{
  "_format": "hh-sol-artifact-1",
  "contractName": "Price",
  "sourceName": "contracts/oracle/Price.sol",
  "abi": [
    {
      "inputs": [],
      "stateMutability": "nonpayable",
      "type": "constructor"
    },
    {
      "anonymous": false,
      "inputs": [
        {
          "indexed": false,
          "internalType": "uint8",
          "name": "version",
          "type": "uint8"
        }
      ],
      "name": "Initialized",
      "type": "event"
    },
    {
      "inputs": [],
      "name": "BASIS_POINTS_DIVISOR",
      "outputs": [
        {
          "internalType": "uint256",
          "name": "",
          "type": "uint256"
        }
      ],
      "stateMutability": "view",
      "type": "function"
    },
    {
      "inputs": [],
      "name": "DEFAULT_ADMIN_ROLE",
      "outputs": [
        {
          "internalType": "bytes32",
          "name": "",
          "type": "bytes32"
        }
      ],
      "stateMutability": "view",
      "type": "function"
    },
    {
      "inputs": [],
      "name": "MAX_ADJUSTMENT_BASIS_POINTS",
      "outputs": [
        {
          "internalType": "uint256",
          "name": "",
          "type": "uint256"
        }
      ],
      "stateMutability": "view",
      "type": "function"
    },
    {
      "inputs": [],
      "name": "MAX_ADJUSTMENT_INTERVAL",
      "outputs": [
        {
          "internalType": "uint256",
          "name": "",
          "type": "uint256"
        }
      ],
      "stateMutability": "view",
      "type": "function"
    },
    {
      "inputs": [],
      "name": "MAX_SPREAD_BASIS_POINTS",
      "outputs": [
        {
          "internalType": "uint256",
          "name": "",
          "type": "uint256"
        }
      ],
      "stateMutability": "view",
      "type": "function"
    },
    {
      "inputs": [],
      "name": "ONE_USD",
      "outputs": [
        {
          "internalType": "uint256",
          "name": "",
          "type": "uint256"
        }
      ],
      "stateMutability": "view",
      "type": "function"
    },
    {
      "inputs": [],
      "name": "PRICE_PRECISION",
      "outputs": [
        {
          "internalType": "uint256",
          "name": "",
          "type": "uint256"
        }
      ],
      "stateMutability": "view",
      "type": "function"
    },
    {
      "inputs": [
        {
          "internalType": "address",
          "name": "newOwner",
          "type": "address"
        }
      ],
      "name": "_transferOwnership",
      "outputs": [],
      "stateMutability": "pure",
      "type": "function"
    },
    {
      "inputs": [
        {
          "internalType": "address",
          "name": "",
          "type": "address"
        }
      ],
      "name": "adjustmentBasisPoints",
      "outputs": [
        {
          "internalType": "uint256",
          "name": "",
          "type": "uint256"
        }
      ],
      "stateMutability": "view",
      "type": "function"
    },
    {
      "inputs": [],
      "name": "chainPriceFeed",
      "outputs": [
        {
          "internalType": "address",
          "name": "",
          "type": "address"
        }
      ],
      "stateMutability": "view",
      "type": "function"
    },
    {
      "inputs": [],
      "name": "fastPriceFeed",
      "outputs": [
        {
          "internalType": "address",
          "name": "",
          "type": "address"
        }
      ],
      "stateMutability": "view",
      "type": "function"
    },
    {
      "inputs": [
        {
          "internalType": "address",
          "name": "_token",
          "type": "address"
        },
        {
          "internalType": "bool",
          "name": "_maximise",
          "type": "bool"
        }
      ],
      "name": "getChainPrice",
      "outputs": [
        {
          "internalType": "uint256",
          "name": "",
          "type": "uint256"
        }
      ],
      "stateMutability": "view",
      "type": "function"
    },
    {
      "inputs": [
        {
          "internalType": "address",
          "name": "_token",
          "type": "address"
        },
        {
          "internalType": "uint256",
          "name": "_referencePrice",
          "type": "uint256"
        },
        {
          "internalType": "bool",
          "name": "_maximise",
          "type": "bool"
        }
      ],
      "name": "getFastPrice",
      "outputs": [
        {
          "internalType": "uint256",
          "name": "",
          "type": "uint256"
        }
      ],
      "stateMutability": "view",
      "type": "function"
    },
    {
      "inputs": [
        {
          "internalType": "address",
          "name": "_token",
          "type": "address"
        },
        {
          "internalType": "bool",
          "name": "_maximise",
          "type": "bool"
        }
      ],
      "name": "getGmxPrice",
      "outputs": [
        {
          "internalType": "uint256",
          "name": "",
          "type": "uint256"
        }
      ],
      "stateMutability": "view",
      "type": "function"
    },
    {
      "inputs": [
        {
          "internalType": "address",
          "name": "_token",
          "type": "address"
        },
        {
          "internalType": "bool",
          "name": "_maximise",
          "type": "bool"
        }
      ],
      "name": "getPrice",
      "outputs": [
        {
          "internalType": "uint256",
          "name": "",
          "type": "uint256"
        }
      ],
      "stateMutability": "view",
      "type": "function"
    },
    {
      "inputs": [],
      "name": "gmxPriceFeed",
      "outputs": [
        {
          "internalType": "address",
          "name": "",
          "type": "address"
        }
      ],
      "stateMutability": "view",
      "type": "function"
    },
    {
      "inputs": [
        {
          "internalType": "address",
          "name": "_account",
          "type": "address"
        }
      ],
      "name": "grantControllerRoleByMarketManager",
      "outputs": [],
      "stateMutability": "nonpayable",
      "type": "function"
    },
    {
      "inputs": [
        {
          "internalType": "bytes32",
          "name": "role",
          "type": "bytes32"
        },
        {
          "internalType": "address",
          "name": "account",
          "type": "address"
        }
      ],
      "name": "grantRole",
      "outputs": [],
      "stateMutability": "pure",
      "type": "function"
    },
    {
      "inputs": [
        {
          "internalType": "bytes32",
          "name": "role",
          "type": "bytes32"
        },
        {
          "internalType": "address",
          "name": "account",
          "type": "address"
        }
      ],
      "name": "hasRole",
      "outputs": [
        {
          "internalType": "bool",
          "name": "",
          "type": "bool"
        }
      ],
      "stateMutability": "pure",
      "type": "function"
    },
    {
      "inputs": [
        {
          "internalType": "address",
          "name": "",
          "type": "address"
        }
      ],
      "name": "isAdjustmentAdditive",
      "outputs": [
        {
          "internalType": "bool",
          "name": "",
          "type": "bool"
        }
      ],
      "stateMutability": "view",
      "type": "function"
    },
    {
      "inputs": [],
      "name": "isFastPriceEnabled",
      "outputs": [
        {
          "internalType": "bool",
          "name": "",
          "type": "bool"
        }
      ],
      "stateMutability": "view",
      "type": "function"
    },
    {
      "inputs": [],
      "name": "isGmxPriceEnabled",
      "outputs": [
        {
          "internalType": "bool",
          "name": "",
          "type": "bool"
        }
      ],
      "stateMutability": "view",
      "type": "function"
    },
    {
      "inputs": [
        {
          "internalType": "address",
          "name": "",
          "type": "address"
        }
      ],
      "name": "lastAdjustmentTimings",
      "outputs": [
        {
          "internalType": "uint256",
          "name": "",
          "type": "uint256"
        }
      ],
      "stateMutability": "view",
      "type": "function"
    },
    {
      "inputs": [],
      "name": "maxStrictPriceDeviation",
      "outputs": [
        {
          "internalType": "uint256",
          "name": "",
          "type": "uint256"
        }
      ],
      "stateMutability": "view",
      "type": "function"
    },
    {
      "inputs": [
        {
          "internalType": "bytes32",
          "name": "role",
          "type": "bytes32"
        },
        {
          "internalType": "address",
          "name": "account",
          "type": "address"
        }
      ],
      "name": "revokeRole",
      "outputs": [],
      "stateMutability": "pure",
      "type": "function"
    },
    {
      "inputs": [
        {
          "internalType": "address",
          "name": "_token",
          "type": "address"
        },
        {
          "internalType": "bool",
          "name": "_isAdditive",
          "type": "bool"
        },
        {
          "internalType": "uint256",
          "name": "_adjustmentBps",
          "type": "uint256"
        }
      ],
      "name": "setAdjustment",
      "outputs": [],
      "stateMutability": "nonpayable",
      "type": "function"
    },
    {
      "inputs": [
        {
          "internalType": "address",
          "name": "_feed",
          "type": "address"
        }
      ],
      "name": "setChainPriceFeed",
      "outputs": [],
      "stateMutability": "nonpayable",
      "type": "function"
    },
    {
      "inputs": [
        {
          "internalType": "bool",
          "name": "_isEnabled",
          "type": "bool"
        }
      ],
      "name": "setFastPriceEnabled",
      "outputs": [],
      "stateMutability": "nonpayable",
      "type": "function"
    },
    {
      "inputs": [
        {
          "internalType": "address",
          "name": "_feed",
          "type": "address"
        }
      ],
      "name": "setFastPriceFeed",
      "outputs": [],
      "stateMutability": "nonpayable",
      "type": "function"
    },
    {
      "inputs": [
        {
          "internalType": "address",
          "name": "feed",
          "type": "address"
        }
      ],
      "name": "setGmxPriceFeed",
      "outputs": [],
      "stateMutability": "nonpayable",
      "type": "function"
    },
    {
      "inputs": [
        {
          "internalType": "bool",
          "name": "enable",
          "type": "bool"
        }
      ],
      "name": "setIsGmxPriceEnabled",
      "outputs": [],
      "stateMutability": "nonpayable",
      "type": "function"
    },
    {
      "inputs": [
        {
          "internalType": "uint256",
          "name": "_maxStrictPriceDeviation",
          "type": "uint256"
        }
      ],
      "name": "setMaxStrictPriceDeviation",
      "outputs": [],
      "stateMutability": "nonpayable",
      "type": "function"
    },
    {
      "inputs": [
        {
          "internalType": "address",
          "name": "_token",
          "type": "address"
        },
        {
          "internalType": "uint256",
          "name": "_spreadBasisPoints",
          "type": "uint256"
        }
      ],
      "name": "setSpreadBasisPoints",
      "outputs": [],
      "stateMutability": "nonpayable",
      "type": "function"
    },
    {
      "inputs": [
        {
          "internalType": "uint256",
          "name": "_spreadThresholdBasisPoints",
          "type": "uint256"
        }
      ],
      "name": "setSpreadThresholdBasisPoints",
      "outputs": [],
      "stateMutability": "nonpayable",
      "type": "function"
    },
    {
      "inputs": [
        {
          "internalType": "address",
          "name": "_token",
          "type": "address"
        },
        {
          "internalType": "bool",
          "name": "_stable",
          "type": "bool"
        }
      ],
      "name": "setStableTokens",
      "outputs": [],
      "stateMutability": "nonpayable",
      "type": "function"
    },
    {
      "inputs": [
        {
          "internalType": "address",
          "name": "",
          "type": "address"
        }
      ],
      "name": "spreadBasisPoints",
      "outputs": [
        {
          "internalType": "uint256",
          "name": "",
          "type": "uint256"
        }
      ],
      "stateMutability": "view",
      "type": "function"
    },
    {
      "inputs": [],
      "name": "spreadThresholdBasisPoints",
      "outputs": [
        {
          "internalType": "uint256",
          "name": "",
          "type": "uint256"
        }
      ],
      "stateMutability": "view",
      "type": "function"
    },
    {
      "inputs": [
        {
          "internalType": "address",
          "name": "",
          "type": "address"
        }
      ],
      "name": "strictStableTokens",
      "outputs": [
        {
          "internalType": "bool",
          "name": "",
          "type": "bool"
        }
      ],
      "stateMutability": "view",
      "type": "function"
    },
    {
      "inputs": [
        {
          "internalType": "address",
          "name": "to",
          "type": "address"
        }
      ],
      "name": "transferAdmin",
      "outputs": [],
      "stateMutability": "nonpayable",
      "type": "function"
    },
    {
      "inputs": [
        {
          "internalType": "address",
          "name": "newOwner",
          "type": "address"
        }
      ],
      "name": "transferOwnership",
      "outputs": [],
      "stateMutability": "pure",
      "type": "function"
    }
  ],
  "bytecode": "0x60806040526000600255601e60035534801561001a57600080fd5b503361002f8161003560201b610a801760201c565b50610043565b426001556100403381565b50565b610eb7806100526000396000f3fe608060405234801561001057600080fd5b50600436106102485760003560e01c80637fe4a6981161013b578063add37b7b116100b8578063d547741f1161007c578063d547741f146102dc578063d694376c14610530578063f2fde38b1461051f578063fc437c0314610543578063fe90cc0e1461057c57600080fd5b8063add37b7b146104c3578063b51de18e146104d6578063b731dd87146104e9578063b8f61105146104fc578063d29d44ee1461051f57600080fd5b80639b889380116100ff5780639b8893801461046c578063a14316be1461047f578063a217fddf14610492578063a27ea3861461049a578063a39c73a3146104ba57600080fd5b80637fe4a6981461042d578063830a27ac1461044057806391d148541461044d57806395082d25146103895780639b18dc471461046357600080fd5b80633a849c21116101c95780636ce8a44b1161018d5780636ce8a44b1461039c578063717cfe7a146103bf57806375829def146103df57806376d69760146103f2578063791accfe1461040557600080fd5b80633a849c211461031d57806348cac2771461034e5780634a4b1f4f1461036e57806361e4ca781461037657806367781c0e1461038957600080fd5b8063171e772111610210578063171e7721146102c95780632f2ff15d146102dc5780632fbfe3d3146102ee57806333206f1914610301578063378e7bf71461031457600080fd5b80630957aed91461024d578063104c2f1a14610268578063126082cf1461027d57806314b7a451146102865780631706c08c146102a7575b600080fd5b610255603281565b6040519081526020015b60405180910390f35b61027b610276366004610c56565b61058f565b005b61025561271081565b61027b610294366004610c81565b6004805460ff1916911515919091179055565b6004546102b990610100900460ff1681565b604051901515815260200161025f565b61027b6102d7366004610c56565b6105f0565b61027b6102ea366004610c9c565b5050565b61027b6102fc366004610cc8565b600255565b61027b61030f366004610c56565b610650565b61025560025481565b600454610336906201000090046001600160a01b031681565b6040516001600160a01b03909116815260200161025f565b61025561035c366004610c56565b60096020526000908152604090205481565b610255601481565b610255610384366004610ce1565b6106a8565b61025568327cb2734119d3b7a9601e1b81565b6102b96103aa366004610c56565b600a6020526000908152604090205460ff1681565b6102556103cd366004610c56565b600b6020526000908152604090205481565b61027b6103ed366004610c56565b610759565b610255610400366004610d1d565b610764565b61027b610413366004610c81565b600480549115156101000261ff0019909216919091179055565b61027b61043b366004610c56565b61052d565b6004546102b99060ff1681565b6102b961045b366004610c9c565b600192915050565b610255611c2081565b61027b61047a366004610d47565b6107f5565b61025561048d366004610d1d565b610880565b610255600081565b6102556104a8366004610c56565b60076020526000908152604090205481565b61025560035481565b600554610336906001600160a01b031681565b600654610336906001600160a01b031681565b61027b6104f7366004610cc8565b600355565b6102b961050a366004610c56565b60086020526000908152604090205460ff1681565b61027b61052d366004610c56565b50565b61027b61053e366004610d71565b610912565b61027b610551366004610d1d565b6001600160a01b03919091166000908152600860205260409020805460ff1916911515919091179055565b61025561058a366004610d1d565b610a37565b600080516020610e628339815191526001600160a01b0382166105cd5760405162461bcd60e51b81526004016105c490610dad565b60405180910390fd5b50600680546001600160a01b0319166001600160a01b0392909216919091179055565b600080516020610e628339815191526001600160a01b0382166106255760405162461bcd60e51b81526004016105c490610dad565b50600480546001600160a01b03909216620100000262010000600160b01b0319909216919091179055565b600080516020610e628339815191526001600160a01b0382166106855760405162461bcd60e51b81526004016105c490610dad565b50600580546001600160a01b0319166001600160a01b0392909216919091179055565b6004546000906201000090046001600160a01b03166106c8575081610752565b60048054604051630ffd9c6d60e31b81526001600160a01b03878116938201939093526024810186905284151560448201526201000090910490911690637fece36890606401602060405180830381865afa15801561072b573d6000803e3d6000fd5b505050506040513d601f19601f8201168201806040525081019061074f9190610dd3565b90505b9392505050565b60006102ea60003382565b6000806107718484610a87565b6001600160a01b03851660009081526009602052604090205490915080156107eb576001600160a01b0385166000908152600a602052604090205460ff16156107de576127106107c18282610e02565b6107cb9084610e15565b6107d59190610e2c565b925050506107ef565b6127106107c18282610e4e565b5090505b92915050565b600080516020610e6283398151915260328211156108635760405162461bcd60e51b815260206004820152602560248201527f5072696365466565643a20696e76616c6964205f7370726561644261736973506044820152646f696e747360d81b60648201526084016105c4565b506001600160a01b03909116600090815260076020526040902055565b6005546000906001600160a01b031661089b575060006107ef565b6005546040516303b6b4bb60e51b81526001600160a01b0385811660048301528415156024830152909116906376d69760906044015b602060405180830381865afa1580156108ee573d6000803e3d6000fd5b505050506040513d601f19601f820116820180604052508101906107529190610dd3565b6001600160a01b0383166000908152600b6020526040902054600080516020610e6283398151915290429061094a90611c2090610e02565b106109a85760405162461bcd60e51b815260206004820152602860248201527f5072696365466565643a2061646a7573746d656e74206672657175656e637920604482015267195e18d95959195960c21b60648201526084016105c4565b60148211156109f25760405162461bcd60e51b8152602060048201526016602482015275696e76616c6964205f61646a7573746d656e7442707360501b60448201526064016105c4565b506001600160a01b03929092166000908152600a60209081526040808320805460ff1916941515949094179093556009815282822093909355600b9092529020429055565b6006546040516317e1d38560e11b81526001600160a01b038481166004830152831515602483015260006044830181905260648301819052921690632fc3a70a906084016108d1565b4260015550565b600080610a948484610880565b60045490915060ff1615610ab057610aad8482856106a8565b90505b600454610100900460ff1615610afb576000610acc8585610a37565b9050838015610ada57508181115b15610ae3578091505b83158015610af057508082115b15610af9578091505b505b6001600160a01b03841660009081526008602052604090205460ff1615610be457600068327cb2734119d3b7a9601e1b8211610b4c57610b478268327cb2734119d3b7a9601e1b610e4e565b610b62565b610b6268327cb2734119d3b7a9601e1b83610e4e565b90506002548111610b835768327cb2734119d3b7a9601e1b925050506107ef565b838015610b9b575068327cb2734119d3b7a9601e1b82115b15610ba8575090506107ef565b83158015610bc1575068327cb2734119d3b7a9601e1b82105b15610bce575090506107ef565b68327cb2734119d3b7a9601e1b925050506107ef565b6001600160a01b0384166000908152600760205260409020548315610c10576127106107c18282610e02565b612710610c1d8282610e4e565b610c279084610e15565b610c319190610e2c565b95945050505050565b80356001600160a01b0381168114610c5157600080fd5b919050565b600060208284031215610c6857600080fd5b61075282610c3a565b80358015158114610c5157600080fd5b600060208284031215610c9357600080fd5b61075282610c71565b60008060408385031215610caf57600080fd5b82359150610cbf60208401610c3a565b90509250929050565b600060208284031215610cda57600080fd5b5035919050565b600080600060608486031215610cf657600080fd5b610cff84610c3a565b925060208401359150610d1460408501610c71565b90509250925092565b60008060408385031215610d3057600080fd5b610d3983610c3a565b9150610cbf60208401610c71565b60008060408385031215610d5a57600080fd5b610d6383610c3a565b946020939093013593505050565b600080600060608486031215610d8657600080fd5b610d8f84610c3a565b9250610d9d60208501610c71565b9150604084013590509250925092565b6020808252600c908201526b1a5b9d985b1a59081999595960a21b604082015260600190565b600060208284031215610de557600080fd5b5051919050565b634e487b7160e01b600052601160045260246000fd5b808201808211156107ef576107ef610dec565b80820281158282048414176107ef576107ef610dec565b600082610e4957634e487b7160e01b600052601260045260246000fd5b500490565b818103818111156107ef576107ef610dec56fe241ecf16d79d0f8dbfb92cbc07fe17840425976cf0667f022fe9877caa831b08a26469706673582212205bb83a55d71de4f5794fd6a7a9da7e50fb5beba29382f22e03dec92afb6c88d464736f6c63430008110033",
  "linkReferences": {},
  "deployedLinkReferences": {}
}