{
  "_format": "hh-sol-artifact-1",
  "contractName": "Price",
  "sourceName": "contracts/oracle/Price.sol",
  "abi": [
    {
      "inputs": [],
      "stateMutability": "nonpayable",
      "type": "constructor"
    },
    {
      "anonymous": false,
      "inputs": [
        {
          "indexed": false,
          "internalType": "uint8",
          "name": "version",
          "type": "uint8"
        }
      ],
      "name": "Initialized",
      "type": "event"
    },
    {
      "anonymous": false,
      "inputs": [
        {
          "indexed": true,
          "internalType": "address",
          "name": "previousOwner",
          "type": "address"
        },
        {
          "indexed": true,
          "internalType": "address",
          "name": "newOwner",
          "type": "address"
        }
      ],
      "name": "OwnershipTransferred",
      "type": "event"
    },
    {
      "anonymous": false,
      "inputs": [
        {
          "indexed": true,
          "internalType": "bytes32",
          "name": "role",
          "type": "bytes32"
        },
        {
          "indexed": true,
          "internalType": "bytes32",
          "name": "previousAdminRole",
          "type": "bytes32"
        },
        {
          "indexed": true,
          "internalType": "bytes32",
          "name": "newAdminRole",
          "type": "bytes32"
        }
      ],
      "name": "RoleAdminChanged",
      "type": "event"
    },
    {
      "anonymous": false,
      "inputs": [
        {
          "indexed": true,
          "internalType": "bytes32",
          "name": "role",
          "type": "bytes32"
        },
        {
          "indexed": true,
          "internalType": "address",
          "name": "account",
          "type": "address"
        },
        {
          "indexed": true,
          "internalType": "address",
          "name": "sender",
          "type": "address"
        }
      ],
      "name": "RoleGranted",
      "type": "event"
    },
    {
      "anonymous": false,
      "inputs": [
        {
          "indexed": true,
          "internalType": "bytes32",
          "name": "role",
          "type": "bytes32"
        },
        {
          "indexed": true,
          "internalType": "address",
          "name": "account",
          "type": "address"
        },
        {
          "indexed": true,
          "internalType": "address",
          "name": "sender",
          "type": "address"
        }
      ],
      "name": "RoleRevoked",
      "type": "event"
    },
    {
      "inputs": [],
      "name": "BASIS_POINTS_DIVISOR",
      "outputs": [
        {
          "internalType": "uint256",
          "name": "",
          "type": "uint256"
        }
      ],
      "stateMutability": "view",
      "type": "function"
    },
    {
      "inputs": [],
      "name": "DEFAULT_ADMIN_ROLE",
      "outputs": [
        {
          "internalType": "bytes32",
          "name": "",
          "type": "bytes32"
        }
      ],
      "stateMutability": "view",
      "type": "function"
    },
    {
      "inputs": [],
      "name": "MAX_ADJUSTMENT_BASIS_POINTS",
      "outputs": [
        {
          "internalType": "uint256",
          "name": "",
          "type": "uint256"
        }
      ],
      "stateMutability": "view",
      "type": "function"
    },
    {
      "inputs": [],
      "name": "MAX_ADJUSTMENT_INTERVAL",
      "outputs": [
        {
          "internalType": "uint256",
          "name": "",
          "type": "uint256"
        }
      ],
      "stateMutability": "view",
      "type": "function"
    },
    {
      "inputs": [],
      "name": "MAX_SPREAD_BASIS_POINTS",
      "outputs": [
        {
          "internalType": "uint256",
          "name": "",
          "type": "uint256"
        }
      ],
      "stateMutability": "view",
      "type": "function"
    },
    {
      "inputs": [],
      "name": "ONE_USD",
      "outputs": [
        {
          "internalType": "uint256",
          "name": "",
          "type": "uint256"
        }
      ],
      "stateMutability": "view",
      "type": "function"
    },
    {
      "inputs": [],
      "name": "PRICE_PRECISION",
      "outputs": [
        {
          "internalType": "uint256",
          "name": "",
          "type": "uint256"
        }
      ],
      "stateMutability": "view",
      "type": "function"
    },
    {
      "inputs": [
        {
          "internalType": "address",
          "name": "",
          "type": "address"
        }
      ],
      "name": "adjustmentBasisPoints",
      "outputs": [
        {
          "internalType": "uint256",
          "name": "",
          "type": "uint256"
        }
      ],
      "stateMutability": "view",
      "type": "function"
    },
    {
      "inputs": [],
      "name": "chainPriceFeed",
      "outputs": [
        {
          "internalType": "address",
          "name": "",
          "type": "address"
        }
      ],
      "stateMutability": "view",
      "type": "function"
    },
    {
      "inputs": [],
      "name": "fastPriceFeed",
      "outputs": [
        {
          "internalType": "address",
          "name": "",
          "type": "address"
        }
      ],
      "stateMutability": "view",
      "type": "function"
    },
    {
      "inputs": [
        {
          "internalType": "address",
          "name": "_token",
          "type": "address"
        },
        {
          "internalType": "bool",
          "name": "_maximise",
          "type": "bool"
        }
      ],
      "name": "getChainPrice",
      "outputs": [
        {
          "internalType": "uint256",
          "name": "",
          "type": "uint256"
        }
      ],
      "stateMutability": "view",
      "type": "function"
    },
    {
      "inputs": [
        {
          "internalType": "address",
          "name": "_token",
          "type": "address"
        },
        {
          "internalType": "uint256",
          "name": "_referencePrice",
          "type": "uint256"
        },
        {
          "internalType": "bool",
          "name": "_maximise",
          "type": "bool"
        }
      ],
      "name": "getFastPrice",
      "outputs": [
        {
          "internalType": "uint256",
          "name": "",
          "type": "uint256"
        }
      ],
      "stateMutability": "view",
      "type": "function"
    },
    {
      "inputs": [
        {
          "internalType": "address",
          "name": "_token",
          "type": "address"
        },
        {
          "internalType": "bool",
          "name": "_maximise",
          "type": "bool"
        }
      ],
      "name": "getGmxPrice",
      "outputs": [
        {
          "internalType": "uint256",
          "name": "",
          "type": "uint256"
        }
      ],
      "stateMutability": "view",
      "type": "function"
    },
    {
      "inputs": [
        {
          "internalType": "address",
          "name": "_token",
          "type": "address"
        },
        {
          "internalType": "bool",
          "name": "_maximise",
          "type": "bool"
        }
      ],
      "name": "getPrice",
      "outputs": [
        {
          "internalType": "uint256",
          "name": "",
          "type": "uint256"
        }
      ],
      "stateMutability": "view",
      "type": "function"
    },
    {
      "inputs": [
        {
          "internalType": "bytes32",
          "name": "role",
          "type": "bytes32"
        }
      ],
      "name": "getRoleAdmin",
      "outputs": [
        {
          "internalType": "bytes32",
          "name": "",
          "type": "bytes32"
        }
      ],
      "stateMutability": "view",
      "type": "function"
    },
    {
      "inputs": [],
      "name": "gmxPriceFeed",
      "outputs": [
        {
          "internalType": "address",
          "name": "",
          "type": "address"
        }
      ],
      "stateMutability": "view",
      "type": "function"
    },
    {
      "inputs": [
        {
          "internalType": "address",
          "name": "_account",
          "type": "address"
        }
      ],
      "name": "grantControllerRoleByMarketManager",
      "outputs": [],
      "stateMutability": "nonpayable",
      "type": "function"
    },
    {
      "inputs": [
        {
          "internalType": "bytes32",
          "name": "role",
          "type": "bytes32"
        },
        {
          "internalType": "address",
          "name": "account",
          "type": "address"
        }
      ],
      "name": "grantRole",
      "outputs": [],
      "stateMutability": "nonpayable",
      "type": "function"
    },
    {
      "inputs": [
        {
          "internalType": "bytes32",
          "name": "role",
          "type": "bytes32"
        },
        {
          "internalType": "address",
          "name": "account",
          "type": "address"
        }
      ],
      "name": "hasRole",
      "outputs": [
        {
          "internalType": "bool",
          "name": "",
          "type": "bool"
        }
      ],
      "stateMutability": "view",
      "type": "function"
    },
    {
      "inputs": [
        {
          "internalType": "address",
          "name": "",
          "type": "address"
        }
      ],
      "name": "isAdjustmentAdditive",
      "outputs": [
        {
          "internalType": "bool",
          "name": "",
          "type": "bool"
        }
      ],
      "stateMutability": "view",
      "type": "function"
    },
    {
      "inputs": [],
      "name": "isFastPriceEnabled",
      "outputs": [
        {
          "internalType": "bool",
          "name": "",
          "type": "bool"
        }
      ],
      "stateMutability": "view",
      "type": "function"
    },
    {
      "inputs": [],
      "name": "isGmxPriceEnabled",
      "outputs": [
        {
          "internalType": "bool",
          "name": "",
          "type": "bool"
        }
      ],
      "stateMutability": "view",
      "type": "function"
    },
    {
      "inputs": [
        {
          "internalType": "address",
          "name": "",
          "type": "address"
        }
      ],
      "name": "lastAdjustmentTimings",
      "outputs": [
        {
          "internalType": "uint256",
          "name": "",
          "type": "uint256"
        }
      ],
      "stateMutability": "view",
      "type": "function"
    },
    {
      "inputs": [],
      "name": "maxStrictPriceDeviation",
      "outputs": [
        {
          "internalType": "uint256",
          "name": "",
          "type": "uint256"
        }
      ],
      "stateMutability": "view",
      "type": "function"
    },
    {
      "inputs": [],
      "name": "owner",
      "outputs": [
        {
          "internalType": "address",
          "name": "",
          "type": "address"
        }
      ],
      "stateMutability": "view",
      "type": "function"
    },
    {
      "inputs": [],
      "name": "renounceOwnership",
      "outputs": [],
      "stateMutability": "nonpayable",
      "type": "function"
    },
    {
      "inputs": [
        {
          "internalType": "bytes32",
          "name": "role",
          "type": "bytes32"
        },
        {
          "internalType": "address",
          "name": "account",
          "type": "address"
        }
      ],
      "name": "renounceRole",
      "outputs": [],
      "stateMutability": "nonpayable",
      "type": "function"
    },
    {
      "inputs": [
        {
          "internalType": "bytes32",
          "name": "role",
          "type": "bytes32"
        },
        {
          "internalType": "address",
          "name": "account",
          "type": "address"
        }
      ],
      "name": "revokeRole",
      "outputs": [],
      "stateMutability": "nonpayable",
      "type": "function"
    },
    {
      "inputs": [
        {
          "internalType": "address",
          "name": "_token",
          "type": "address"
        },
        {
          "internalType": "bool",
          "name": "_isAdditive",
          "type": "bool"
        },
        {
          "internalType": "uint256",
          "name": "_adjustmentBps",
          "type": "uint256"
        }
      ],
      "name": "setAdjustment",
      "outputs": [],
      "stateMutability": "nonpayable",
      "type": "function"
    },
    {
      "inputs": [
        {
          "internalType": "address",
          "name": "_feed",
          "type": "address"
        }
      ],
      "name": "setChainPriceFeed",
      "outputs": [],
      "stateMutability": "nonpayable",
      "type": "function"
    },
    {
      "inputs": [
        {
          "internalType": "bool",
          "name": "_isEnabled",
          "type": "bool"
        }
      ],
      "name": "setFastPriceEnabled",
      "outputs": [],
      "stateMutability": "nonpayable",
      "type": "function"
    },
    {
      "inputs": [
        {
          "internalType": "address",
          "name": "_feed",
          "type": "address"
        }
      ],
      "name": "setFastPriceFeed",
      "outputs": [],
      "stateMutability": "nonpayable",
      "type": "function"
    },
    {
      "inputs": [
        {
          "internalType": "address",
          "name": "feed",
          "type": "address"
        }
      ],
      "name": "setGmxPriceFeed",
      "outputs": [],
      "stateMutability": "nonpayable",
      "type": "function"
    },
    {
      "inputs": [
        {
          "internalType": "bool",
          "name": "enable",
          "type": "bool"
        }
      ],
      "name": "setIsGmxPriceEnabled",
      "outputs": [],
      "stateMutability": "nonpayable",
      "type": "function"
    },
    {
      "inputs": [
        {
          "internalType": "uint256",
          "name": "_maxStrictPriceDeviation",
          "type": "uint256"
        }
      ],
      "name": "setMaxStrictPriceDeviation",
      "outputs": [],
      "stateMutability": "nonpayable",
      "type": "function"
    },
    {
      "inputs": [
        {
          "internalType": "address",
          "name": "_token",
          "type": "address"
        },
        {
          "internalType": "uint256",
          "name": "_spreadBasisPoints",
          "type": "uint256"
        }
      ],
      "name": "setSpreadBasisPoints",
      "outputs": [],
      "stateMutability": "nonpayable",
      "type": "function"
    },
    {
      "inputs": [
        {
          "internalType": "uint256",
          "name": "_spreadThresholdBasisPoints",
          "type": "uint256"
        }
      ],
      "name": "setSpreadThresholdBasisPoints",
      "outputs": [],
      "stateMutability": "nonpayable",
      "type": "function"
    },
    {
      "inputs": [
        {
          "internalType": "address",
          "name": "_token",
          "type": "address"
        },
        {
          "internalType": "bool",
          "name": "_stable",
          "type": "bool"
        }
      ],
      "name": "setStableTokens",
      "outputs": [],
      "stateMutability": "nonpayable",
      "type": "function"
    },
    {
      "inputs": [
        {
          "internalType": "address",
          "name": "",
          "type": "address"
        }
      ],
      "name": "spreadBasisPoints",
      "outputs": [
        {
          "internalType": "uint256",
          "name": "",
          "type": "uint256"
        }
      ],
      "stateMutability": "view",
      "type": "function"
    },
    {
      "inputs": [],
      "name": "spreadThresholdBasisPoints",
      "outputs": [
        {
          "internalType": "uint256",
          "name": "",
          "type": "uint256"
        }
      ],
      "stateMutability": "view",
      "type": "function"
    },
    {
      "inputs": [
        {
          "internalType": "address",
          "name": "",
          "type": "address"
        }
      ],
      "name": "strictStableTokens",
      "outputs": [
        {
          "internalType": "bool",
          "name": "",
          "type": "bool"
        }
      ],
      "stateMutability": "view",
      "type": "function"
    },
    {
      "inputs": [
        {
          "internalType": "bytes4",
          "name": "interfaceId",
          "type": "bytes4"
        }
      ],
      "name": "supportsInterface",
      "outputs": [
        {
          "internalType": "bool",
          "name": "",
          "type": "bool"
        }
      ],
      "stateMutability": "view",
      "type": "function"
    },
    {
      "inputs": [
        {
          "internalType": "address",
          "name": "to",
          "type": "address"
        }
      ],
      "name": "transferAdmin",
      "outputs": [],
      "stateMutability": "nonpayable",
      "type": "function"
    },
    {
      "inputs": [
        {
          "internalType": "address",
          "name": "newOwner",
          "type": "address"
        }
      ],
      "name": "transferOwnership",
      "outputs": [],
      "stateMutability": "nonpayable",
      "type": "function"
    }
  ],
  "bytecode": "0x60806040526000600355601e6004553480156200001b57600080fd5b5033620000288162000045565b6200003e816200009760201b620010c51760201c565b5062000173565b600180546001600160a01b038381166001600160a01b0319831681179093556040519116919082907f8be0079c531659141344cd1fd0a4f28419497f9722a3daafe3b4186f6b6457e090600090a35050565b42600255620000a63362000045565b620000b3600033620000c3565b620000c0600082620000c3565b50565b620000cf8282620000d3565b5050565b6000828152602081815260408083206001600160a01b038516845290915290205460ff16620000cf576000828152602081815260408083206001600160a01b03851684529091529020805460ff191660011790556200012f3390565b6001600160a01b0316816001600160a01b0316837f2f8788117e7eff1d82e926ec794901d17c78024a50270940304540a733656f0d60405160405180910390a45050565b611a2980620001836000396000f3fe608060405234801561001057600080fd5b50600436106102745760003560e01c806376d6976011610151578063a27ea386116100c3578063b8f6110511610087578063b8f6110514610565578063d547741f14610588578063d694376c1461059b578063f2fde38b146105ae578063fc437c03146105c1578063fe90cc0e146105d457600080fd5b8063a27ea38614610503578063a39c73a314610523578063add37b7b1461052c578063b51de18e1461053f578063b731dd871461055257600080fd5b806391d148541161011557806391d14854146104b957806395082d25146103f15780639b18dc47146104cc5780639b889380146104d5578063a14316be146104e8578063a217fddf146104fb57600080fd5b806376d6976014610462578063791accfe146104755780637fe4a69814610488578063830a27ac1461049b5780638da5cb5b146104a857600080fd5b806336568abe116101ea57806361e4ca78116101ae57806361e4ca78146103de57806367781c0e146103f15780636ce8a44b14610404578063715018a614610427578063717cfe7a1461042f57806375829def1461044f57600080fd5b806336568abe14610369578063378e7bf71461037c5780633a849c211461038557806348cac277146103b65780634a4b1f4f146103d657600080fd5b80631706c08c1161023c5780631706c08c146102e8578063171e7721146102fa578063248a9ca31461030d5780632f2ff15d146103305780632fbfe3d31461034357806333206f191461035657600080fd5b806301ffc9a7146102795780630957aed9146102a1578063104c2f1a146102b7578063126082cf146102cc57806314b7a451146102d5575b600080fd5b61028c61028736600461164b565b6105e7565b60405190151581526020015b60405180910390f35b6102a9603281565b604051908152602001610298565b6102ca6102c5366004611691565b61061e565b005b6102a961271081565b6102ca6102e33660046116bc565b6106d2565b60055461028c90610100900460ff1681565b6102ca610308366004611691565b610748565b6102a961031b3660046116d7565b60009081526020819052604090206001015490565b6102ca61033e3660046116f0565b6107fb565b6102ca6103513660046116d7565b610825565b6102ca610364366004611691565b61088d565b6102ca6103773660046116f0565b610938565b6102a960035481565b60055461039e906201000090046001600160a01b031681565b6040516001600160a01b039091168152602001610298565b6102a96103c4366004611691565b600a6020526000908152604090205481565b6102a9601481565b6102a96103ec36600461171c565b6109b6565b6102a968327cb2734119d3b7a9601e1b81565b61028c610412366004611691565b600b6020526000908152604090205460ff1681565b6102ca610a64565b6102a961043d366004611691565b600c6020526000908152604090205481565b6102ca61045d366004611691565b610a78565b6102a9610470366004611758565b610aa2565b6102ca6104833660046116bc565b610b31565b6102ca610496366004611691565b610bae565b60055461028c9060ff1681565b6001546001600160a01b031661039e565b61028c6104c73660046116f0565b610bd8565b6102a9611c2081565b6102ca6104e3366004611782565b610c01565b6102a96104f6366004611758565b610cdf565b6102a9600081565b6102a9610511366004611691565b60086020526000908152604090205481565b6102a960045481565b60065461039e906001600160a01b031681565b60075461039e906001600160a01b031681565b6102ca6105603660046116d7565b610d71565b61028c610573366004611691565b60096020526000908152604090205460ff1681565b6102ca6105963660046116f0565b610dd9565b6102ca6105a93660046117ac565b610dfe565b6102ca6105bc366004611691565b610f75565b6102ca6105cf366004611758565b610fee565b6102a96105e2366004611758565b61107c565b60006001600160e01b03198216637965db0b60e01b148061061857506301ffc9a760e01b6001600160e01b03198316145b92915050565b6000805160206119d483398151915260006106398133610bd8565b9050801561067e57620151806002544261065391906117fe565b106106795760405162461bcd60e51b815260040161067090611811565b60405180910390fd5b610688565b61068882336110e8565b6001600160a01b0383166106ae5760405162461bcd60e51b815260040161067090611839565b5050600780546001600160a01b0319166001600160a01b0392909216919091179055565b6000805160206119d483398151915260006106ed8133610bd8565b9050801561072957620151806002544261070791906117fe565b106107245760405162461bcd60e51b815260040161067090611811565b610733565b61073382336110e8565b50506005805460ff1916911515919091179055565b6000805160206119d483398151915260006107638133610bd8565b9050801561079f57620151806002544261077d91906117fe565b1061079a5760405162461bcd60e51b815260040161067090611811565b6107a9565b6107a982336110e8565b6001600160a01b0383166107cf5760405162461bcd60e51b815260040161067090611839565b5050600580546001600160a01b03909216620100000262010000600160b01b0319909216919091179055565b60008281526020819052604090206001015461081681611141565b610820838361114b565b505050565b6000805160206119d483398151915260006108408133610bd8565b9050801561087c57620151806002544261085a91906117fe565b106108775760405162461bcd60e51b815260040161067090611811565b610886565b61088682336110e8565b5050600355565b6000805160206119d483398151915260006108a88133610bd8565b905080156108e45762015180600254426108c291906117fe565b106108df5760405162461bcd60e51b815260040161067090611811565b6108ee565b6108ee82336110e8565b6001600160a01b0383166109145760405162461bcd60e51b815260040161067090611839565b5050600680546001600160a01b0319166001600160a01b0392909216919091179055565b6001600160a01b03811633146109a85760405162461bcd60e51b815260206004820152602f60248201527f416363657373436f6e74726f6c3a2063616e206f6e6c792072656e6f756e636560448201526e103937b632b9903337b91039b2b63360891b6064820152608401610670565b6109b282826111cf565b5050565b6005546000906201000090046001600160a01b03166109d6575081610a5d565b600554604051630ffd9c6d60e31b81526001600160a01b0386811660048301526024820186905284151560448301526201000090920490911690637fece36890606401602060405180830381865afa158015610a36573d6000803e3d6000fd5b505050506040513d601f19601f82011682018060405250810190610a5a919061185f565b90505b9392505050565b610a6c611234565b610a76600061128e565b565b6000610a8381611141565b610a8e6000836112e0565b610a978261128e565b6109b26000336111cf565b600080610aaf84846112ea565b6001600160a01b0385166000908152600a60205260409020549091508015610b29576001600160a01b0385166000908152600b602052604090205460ff1615610b1c57612710610aff8282611878565b610b09908461188b565b610b1391906118a2565b92505050610618565b612710610aff82826117fe565b509392505050565b6000805160206119d48339815191526000610b4c8133610bd8565b90508015610b88576201518060025442610b6691906117fe565b10610b835760405162461bcd60e51b815260040161067090611811565b610b92565b610b9282336110e8565b5050600580549115156101000261ff0019909216919091179055565b7f8d1089725c0dc266707fa6207730fb801dcd03108bfed7a21099bd303651d2b761027481611141565b6000918252602082815260408084206001600160a01b0393909316845291905290205460ff1690565b6000805160206119d48339815191526000610c1c8133610bd8565b90508015610c58576201518060025442610c3691906117fe565b10610c535760405162461bcd60e51b815260040161067090611811565b610c62565b610c6282336110e8565b6032831115610cc15760405162461bcd60e51b815260206004820152602560248201527f5072696365466565643a20696e76616c6964205f7370726561644261736973506044820152646f696e747360d81b6064820152608401610670565b50506001600160a01b03909116600090815260086020526040902055565b6006546000906001600160a01b0316610cfa57506000610618565b6006546040516303b6b4bb60e51b81526001600160a01b0385811660048301528415156024830152909116906376d69760906044015b602060405180830381865afa158015610d4d573d6000803e3d6000fd5b505050506040513d601f19601f82011682018060405250810190610a5d919061185f565b6000805160206119d48339815191526000610d8c8133610bd8565b90508015610dc8576201518060025442610da691906117fe565b10610dc35760405162461bcd60e51b815260040161067090611811565b610dd2565b610dd282336110e8565b5050600455565b600082815260208190526040902060010154610df481611141565b61082083836111cf565b6000805160206119d48339815191526000610e198133610bd8565b90508015610e55576201518060025442610e3391906117fe565b10610e505760405162461bcd60e51b815260040161067090611811565b610e5f565b610e5f82336110e8565b6001600160a01b0385166000908152600c60205260409020544290610e8790611c2090611878565b10610ee55760405162461bcd60e51b815260206004820152602860248201527f5072696365466565643a2061646a7573746d656e74206672657175656e637920604482015267195e18d95959195960c21b6064820152608401610670565b6014831115610f2f5760405162461bcd60e51b8152602060048201526016602482015275696e76616c6964205f61646a7573746d656e7442707360501b6044820152606401610670565b50506001600160a01b03929092166000908152600b60209081526040808320805460ff191694151594909417909355600a815282822093909355600c9092529020429055565b610f7d611234565b6001600160a01b038116610fe25760405162461bcd60e51b815260206004820152602660248201527f4f776e61626c653a206e6577206f776e657220697320746865207a65726f206160448201526564647265737360d01b6064820152608401610670565b610feb8161128e565b50565b6000805160206119d483398151915260006110098133610bd8565b9050801561104557620151806002544261102391906117fe565b106110405760405162461bcd60e51b815260040161067090611811565b61104f565b61104f82336110e8565b50506001600160a01b03919091166000908152600960205260409020805460ff1916911515919091179055565b6007546040516317e1d38560e11b81526001600160a01b038481166004830152831515602483015260006044830181905260648301819052921690632fc3a70a90608401610d30565b426002556110d23361128e565b6110dd6000336112e0565b610feb6000826112e0565b6110f28282610bd8565b6109b2576110ff8161149d565b61110a8360206114af565b60405160200161111b9291906118e8565b60408051601f198184030181529082905262461bcd60e51b82526106709160040161195d565b610feb81336110e8565b6111558282610bd8565b6109b2576000828152602081815260408083206001600160a01b03851684529091529020805460ff1916600117905561118b3390565b6001600160a01b0316816001600160a01b0316837f2f8788117e7eff1d82e926ec794901d17c78024a50270940304540a733656f0d60405160405180910390a45050565b6111d98282610bd8565b156109b2576000828152602081815260408083206001600160a01b0385168085529252808320805460ff1916905551339285917ff6391f5c32d9c69d2a47ea670b442974b53935d1edc7fd64eb21e047a839171b9190a45050565b6001546001600160a01b03163314610a765760405162461bcd60e51b815260206004820181905260248201527f4f776e61626c653a2063616c6c6572206973206e6f7420746865206f776e65726044820152606401610670565b600180546001600160a01b038381166001600160a01b0319831681179093556040519116919082907f8be0079c531659141344cd1fd0a4f28419497f9722a3daafe3b4186f6b6457e090600090a35050565b6109b2828261114b565b6000806112f78484610cdf565b60055490915060ff1615611313576113108482856109b6565b90505b600554610100900460ff161561135e57600061132f858561107c565b905083801561133d57508181115b15611346578091505b8315801561135357508082115b1561135c578091505b505b6001600160a01b03841660009081526009602052604090205460ff161561144757600068327cb2734119d3b7a9601e1b82116113af576113aa8268327cb2734119d3b7a9601e1b6117fe565b6113c5565b6113c568327cb2734119d3b7a9601e1b836117fe565b905060035481116113e65768327cb2734119d3b7a9601e1b92505050610618565b8380156113fe575068327cb2734119d3b7a9601e1b82115b1561140b57509050610618565b83158015611424575068327cb2734119d3b7a9601e1b82105b1561143157509050610618565b68327cb2734119d3b7a9601e1b92505050610618565b6001600160a01b038416600090815260086020526040902054831561147357612710610aff8282611878565b61271061148082826117fe565b61148a908461188b565b61149491906118a2565b95945050505050565b60606106186001600160a01b03831660145b606060006114be83600261188b565b6114c9906002611878565b67ffffffffffffffff8111156114e1576114e1611990565b6040519080825280601f01601f19166020018201604052801561150b576020820181803683370190505b509050600360fc1b81600081518110611526576115266119a6565b60200101906001600160f81b031916908160001a905350600f60fb1b81600181518110611555576115556119a6565b60200101906001600160f81b031916908160001a905350600061157984600261188b565b611584906001611878565b90505b60018111156115fc576f181899199a1a9b1b9c1cb0b131b232b360811b85600f16601081106115b8576115b86119a6565b1a60f81b8282815181106115ce576115ce6119a6565b60200101906001600160f81b031916908160001a90535060049490941c936115f5816119bc565b9050611587565b508315610a5d5760405162461bcd60e51b815260206004820181905260248201527f537472696e67733a20686578206c656e67746820696e73756666696369656e746044820152606401610670565b60006020828403121561165d57600080fd5b81356001600160e01b031981168114610a5d57600080fd5b80356001600160a01b038116811461168c57600080fd5b919050565b6000602082840312156116a357600080fd5b610a5d82611675565b8035801515811461168c57600080fd5b6000602082840312156116ce57600080fd5b610a5d826116ac565b6000602082840312156116e957600080fd5b5035919050565b6000806040838503121561170357600080fd5b8235915061171360208401611675565b90509250929050565b60008060006060848603121561173157600080fd5b61173a84611675565b92506020840135915061174f604085016116ac565b90509250925092565b6000806040838503121561176b57600080fd5b61177483611675565b9150611713602084016116ac565b6000806040838503121561179557600080fd5b61179e83611675565b946020939093013593505050565b6000806000606084860312156117c157600080fd5b6117ca84611675565b92506117d8602085016116ac565b9150604084013590509250925092565b634e487b7160e01b600052601160045260246000fd5b81810381811115610618576106186117e8565b6020808252600e908201526d1858c81d1a5b59481c185cdcd95960921b604082015260600190565b6020808252600c908201526b1a5b9d985b1a59081999595960a21b604082015260600190565b60006020828403121561187157600080fd5b5051919050565b80820180821115610618576106186117e8565b8082028115828204841417610618576106186117e8565b6000826118bf57634e487b7160e01b600052601260045260246000fd5b500490565b60005b838110156118df5781810151838201526020016118c7565b50506000910152565b7f416363657373436f6e74726f6c3a206163636f756e74200000000000000000008152600083516119208160178501602088016118c4565b7001034b99036b4b9b9b4b733903937b6329607d1b60179184019182015283516119518160288401602088016118c4565b01602801949350505050565b602081526000825180602084015261197c8160408501602087016118c4565b601f01601f19169190910160400192915050565b634e487b7160e01b600052604160045260246000fd5b634e487b7160e01b600052603260045260246000fd5b6000816119cb576119cb6117e8565b50600019019056fe241ecf16d79d0f8dbfb92cbc07fe17840425976cf0667f022fe9877caa831b08a2646970667358221220da05505e9a5df89f772a23f33aca6ebdc6fed31e32aff3f4584c3402ef383b4364736f6c63430008110033",
  "linkReferences": {},
  "deployedLinkReferences": {}
}