{
  "_format": "hh-sol-artifact-1",
  "contractName": "OrderLiqStreamsUpkeep",
  "sourceName": "contracts/datastream/OrderLiqStreamsUpkeep.sol",
  "abi": [
    {
      "inputs": [
        {
          "internalType": "string",
          "name": "feedParamKey",
          "type": "string"
        },
        {
          "internalType": "string[]",
          "name": "feeds",
          "type": "string[]"
        },
        {
          "internalType": "string",
          "name": "timeParamKey",
          "type": "string"
        },
        {
          "internalType": "uint256",
          "name": "time",
          "type": "uint256"
        },
        {
          "internalType": "bytes",
          "name": "extraData",
          "type": "bytes"
        }
      ],
      "name": "StreamsLookup",
      "type": "error"
    },
    {
      "anonymous": false,
      "inputs": [
        {
          "indexed": false,
          "internalType": "uint8",
          "name": "version",
          "type": "uint8"
        }
      ],
      "name": "Initialized",
      "type": "event"
    },
    {
      "anonymous": false,
      "inputs": [
        {
          "indexed": true,
          "internalType": "bytes32",
          "name": "role",
          "type": "bytes32"
        },
        {
          "indexed": true,
          "internalType": "bytes32",
          "name": "previousAdminRole",
          "type": "bytes32"
        },
        {
          "indexed": true,
          "internalType": "bytes32",
          "name": "newAdminRole",
          "type": "bytes32"
        }
      ],
      "name": "RoleAdminChanged",
      "type": "event"
    },
    {
      "anonymous": false,
      "inputs": [
        {
          "indexed": true,
          "internalType": "bytes32",
          "name": "role",
          "type": "bytes32"
        },
        {
          "indexed": true,
          "internalType": "address",
          "name": "account",
          "type": "address"
        },
        {
          "indexed": true,
          "internalType": "address",
          "name": "sender",
          "type": "address"
        }
      ],
      "name": "RoleGranted",
      "type": "event"
    },
    {
      "anonymous": false,
      "inputs": [
        {
          "indexed": true,
          "internalType": "bytes32",
          "name": "role",
          "type": "bytes32"
        },
        {
          "indexed": true,
          "internalType": "address",
          "name": "account",
          "type": "address"
        },
        {
          "indexed": true,
          "internalType": "address",
          "name": "sender",
          "type": "address"
        }
      ],
      "name": "RoleRevoked",
      "type": "event"
    },
    {
      "anonymous": false,
      "inputs": [
        {
          "indexed": false,
          "internalType": "address",
          "name": "",
          "type": "address"
        }
      ],
      "name": "UDSTPrice",
      "type": "event"
    },
    {
      "inputs": [],
      "name": "DATASTREAMS_FEEDLABEL",
      "outputs": [
        {
          "internalType": "string",
          "name": "",
          "type": "string"
        }
      ],
      "stateMutability": "view",
      "type": "function"
    },
    {
      "inputs": [],
      "name": "DATASTREAMS_QUERYLABEL",
      "outputs": [
        {
          "internalType": "string",
          "name": "",
          "type": "string"
        }
      ],
      "stateMutability": "view",
      "type": "function"
    },
    {
      "inputs": [],
      "name": "DEFAULT_ADMIN_ROLE",
      "outputs": [
        {
          "internalType": "bytes32",
          "name": "",
          "type": "bytes32"
        }
      ],
      "stateMutability": "view",
      "type": "function"
    },
    {
      "inputs": [],
      "name": "autoLiq",
      "outputs": [
        {
          "internalType": "address",
          "name": "",
          "type": "address"
        }
      ],
      "stateMutability": "view",
      "type": "function"
    },
    {
      "inputs": [],
      "name": "autoOrder",
      "outputs": [
        {
          "internalType": "address",
          "name": "",
          "type": "address"
        }
      ],
      "stateMutability": "view",
      "type": "function"
    },
    {
      "inputs": [
        {
          "internalType": "bytes[]",
          "name": "signedReports",
          "type": "bytes[]"
        },
        {
          "internalType": "bytes",
          "name": "extraData",
          "type": "bytes"
        }
      ],
      "name": "checkCallback",
      "outputs": [
        {
          "internalType": "bool",
          "name": "upkeepNeeded",
          "type": "bool"
        },
        {
          "internalType": "bytes",
          "name": "performData",
          "type": "bytes"
        }
      ],
      "stateMutability": "view",
      "type": "function"
    },
    {
      "inputs": [
        {
          "internalType": "uint256",
          "name": "priceOffChain",
          "type": "uint256"
        },
        {
          "internalType": "address",
          "name": "market",
          "type": "address"
        }
      ],
      "name": "checkCallbackLiq",
      "outputs": [
        {
          "internalType": "bool",
          "name": "upkeepNeeded",
          "type": "bool"
        },
        {
          "internalType": "bytes",
          "name": "",
          "type": "bytes"
        }
      ],
      "stateMutability": "view",
      "type": "function"
    },
    {
      "inputs": [
        {
          "components": [
            {
              "internalType": "uint256",
              "name": "index",
              "type": "uint256"
            },
            {
              "internalType": "uint256",
              "name": "timestamp",
              "type": "uint256"
            },
            {
              "internalType": "bytes32",
              "name": "txHash",
              "type": "bytes32"
            },
            {
              "internalType": "uint256",
              "name": "blockNumber",
              "type": "uint256"
            },
            {
              "internalType": "bytes32",
              "name": "blockHash",
              "type": "bytes32"
            },
            {
              "internalType": "address",
              "name": "source",
              "type": "address"
            },
            {
              "internalType": "bytes32[]",
              "name": "topics",
              "type": "bytes32[]"
            },
            {
              "internalType": "bytes",
              "name": "data",
              "type": "bytes"
            }
          ],
          "internalType": "struct Log",
          "name": "log",
          "type": "tuple"
        },
        {
          "internalType": "bytes",
          "name": "checkData",
          "type": "bytes"
        }
      ],
      "name": "checkLog",
      "outputs": [
        {
          "internalType": "bool",
          "name": "",
          "type": "bool"
        },
        {
          "internalType": "bytes",
          "name": "",
          "type": "bytes"
        }
      ],
      "stateMutability": "nonpayable",
      "type": "function"
    },
    {
      "inputs": [
        {
          "internalType": "address",
          "name": "",
          "type": "address"
        }
      ],
      "name": "feedId",
      "outputs": [
        {
          "internalType": "string",
          "name": "",
          "type": "string"
        }
      ],
      "stateMutability": "view",
      "type": "function"
    },
    {
      "inputs": [
        {
          "internalType": "bytes32",
          "name": "role",
          "type": "bytes32"
        }
      ],
      "name": "getRoleAdmin",
      "outputs": [
        {
          "internalType": "bytes32",
          "name": "",
          "type": "bytes32"
        }
      ],
      "stateMutability": "view",
      "type": "function"
    },
    {
      "inputs": [
        {
          "internalType": "bytes32",
          "name": "role",
          "type": "bytes32"
        },
        {
          "internalType": "address",
          "name": "account",
          "type": "address"
        }
      ],
      "name": "grantRole",
      "outputs": [],
      "stateMutability": "nonpayable",
      "type": "function"
    },
    {
      "inputs": [
        {
          "internalType": "bytes32",
          "name": "role",
          "type": "bytes32"
        },
        {
          "internalType": "address",
          "name": "account",
          "type": "address"
        }
      ],
      "name": "hasRole",
      "outputs": [
        {
          "internalType": "bool",
          "name": "",
          "type": "bool"
        }
      ],
      "stateMutability": "view",
      "type": "function"
    },
    {
      "inputs": [
        {
          "internalType": "address",
          "name": "_verifier",
          "type": "address"
        },
        {
          "internalType": "address[]",
          "name": "logTypeKey",
          "type": "address[]"
        },
        {
          "internalType": "uint256[]",
          "name": "logTypeVal",
          "type": "uint256[]"
        },
        {
          "internalType": "address[]",
          "name": "feedIdKey",
          "type": "address[]"
        },
        {
          "internalType": "string[]",
          "name": "feedIdVal",
          "type": "string[]"
        }
      ],
      "name": "initialize",
      "outputs": [],
      "stateMutability": "payable",
      "type": "function"
    },
    {
      "inputs": [
        {
          "internalType": "address",
          "name": "",
          "type": "address"
        }
      ],
      "name": "logType",
      "outputs": [
        {
          "internalType": "uint8",
          "name": "",
          "type": "uint8"
        }
      ],
      "stateMutability": "view",
      "type": "function"
    },
    {
      "inputs": [],
      "name": "onlySetPrice",
      "outputs": [
        {
          "internalType": "bool",
          "name": "",
          "type": "bool"
        }
      ],
      "stateMutability": "view",
      "type": "function"
    },
    {
      "inputs": [
        {
          "internalType": "bytes",
          "name": "performData",
          "type": "bytes"
        }
      ],
      "name": "performUpkeep",
      "outputs": [],
      "stateMutability": "nonpayable",
      "type": "function"
    },
    {
      "inputs": [
        {
          "internalType": "bytes32",
          "name": "role",
          "type": "bytes32"
        },
        {
          "internalType": "address",
          "name": "account",
          "type": "address"
        }
      ],
      "name": "renounceRole",
      "outputs": [],
      "stateMutability": "nonpayable",
      "type": "function"
    },
    {
      "inputs": [
        {
          "internalType": "bytes32",
          "name": "role",
          "type": "bytes32"
        },
        {
          "internalType": "address",
          "name": "account",
          "type": "address"
        }
      ],
      "name": "revokeRole",
      "outputs": [],
      "stateMutability": "nonpayable",
      "type": "function"
    },
    {
      "inputs": [],
      "name": "sendETH",
      "outputs": [],
      "stateMutability": "payable",
      "type": "function"
    },
    {
      "inputs": [
        {
          "internalType": "address",
          "name": "market",
          "type": "address"
        },
        {
          "internalType": "string",
          "name": "fid",
          "type": "string"
        }
      ],
      "name": "setFeedId",
      "outputs": [],
      "stateMutability": "nonpayable",
      "type": "function"
    },
    {
      "inputs": [
        {
          "internalType": "address",
          "name": "source",
          "type": "address"
        },
        {
          "internalType": "uint8",
          "name": "_t",
          "type": "uint8"
        }
      ],
      "name": "setLogType",
      "outputs": [],
      "stateMutability": "nonpayable",
      "type": "function"
    },
    {
      "inputs": [
        {
          "internalType": "bytes4",
          "name": "interfaceId",
          "type": "bytes4"
        }
      ],
      "name": "supportsInterface",
      "outputs": [
        {
          "internalType": "bool",
          "name": "",
          "type": "bool"
        }
      ],
      "stateMutability": "view",
      "type": "function"
    },
    {
      "inputs": [],
      "name": "verifier",
      "outputs": [
        {
          "internalType": "contract IVerifierProxy",
          "name": "",
          "type": "address"
        }
      ],
      "stateMutability": "view",
      "type": "function"
    },
    {
      "inputs": [
        {
          "internalType": "address",
          "name": "token",
          "type": "address"
        },
        {
          "internalType": "address",
          "name": "receiver",
          "type": "address"
        },
        {
          "internalType": "uint256",
          "name": "amount",
          "type": "uint256"
        }
      ],
      "name": "withdraw",
      "outputs": [],
      "stateMutability": "nonpayable",
      "type": "function"
    },
    {
      "inputs": [
        {
          "internalType": "address",
          "name": "receiver",
          "type": "address"
        },
        {
          "internalType": "uint256",
          "name": "amount",
          "type": "uint256"
        }
      ],
      "name": "withdrawETH",
      "outputs": [],
      "stateMutability": "nonpayable",
      "type": "function"
    }
  ],
  "bytecode": "0x608060405234801561001057600080fd5b50613ca9806100206000396000f3fe6080604052600436106101665760003560e01c80634b56a42e116100d1578063a217fddf1161008a578063ca42aeb711610064578063ca42aeb71461048b578063cd7978d7146104ab578063d547741f146104cb578063d9caed12146104eb57600080fd5b8063a217fddf14610426578063b71624b51461043b578063c0ccbc9a1461046357600080fd5b80634b56a42e1461035c5780637250b7841461037c578063784643811461039157806388ebd732146103a457806391d14854146103c45780639d2e151f146103e457600080fd5b80632f2ff15d116101235780632f2ff15d1461028e57806336568abe146102ae5780633ebb33e3146102ce57806340691db4146102ee5780634585e33b1461031c5780634782f7791461033c57600080fd5b806301ffc9a71461016b57806308c9e24e146101a05780631b83ca1e146101e05780631d16d9a014610215578063248a9ca3146102175780632b7ac3f314610256575b600080fd5b34801561017757600080fd5b5061018b6101863660046124e9565b61050b565b60405190151581526020015b60405180910390f35b3480156101ac57600080fd5b506101d3604051806040016040528060078152602001666665656449447360c81b81525081565b6040516101979190612563565b3480156101ec57600080fd5b506101d360405180604001604052806009815260200168074696d657374616d760bc1b81525081565b005b34801561022357600080fd5b50610248610232366004612576565b6000908152600160208190526040909120015490565b604051908152602001610197565b34801561026257600080fd5b50600254610276906001600160a01b031681565b6040516001600160a01b039091168152602001610197565b34801561029a57600080fd5b506102156102a93660046125a4565b610542565b3480156102ba57600080fd5b506102156102c93660046125a4565b61056d565b3480156102da57600080fd5b506102156102e9366004612726565b6105f0565b3480156102fa57600080fd5b5061030e610309366004612775565b610623565b6040516101979291906127d7565b34801561032857600080fd5b50610215610337366004612833565b6108e2565b34801561034857600080fd5b50610215610357366004612874565b610aaf565b34801561036857600080fd5b5061030e6103773660046128a0565b610af0565b34801561038857600080fd5b5061018b600181565b61021561039f366004612a4a565b610d59565b3480156103b057600080fd5b5061030e6103bf3660046125a4565b610fbd565b3480156103d057600080fd5b5061018b6103df3660046125a4565b610fd7565b3480156103f057600080fd5b506104146103ff366004612b60565b60046020526000908152604090205460ff1681565b60405160ff9091168152602001610197565b34801561043257600080fd5b50610248600081565b34801561044757600080fd5b50610276737ce298ad682be6b8e74c2d3154a0ece3b2461a0b81565b34801561046f57600080fd5b50610276733ecd1eb4742823f4c9ea35504994764305ca324781565b34801561049757600080fd5b506102156104a6366004612b9c565b611002565b3480156104b757600080fd5b506101d36104c6366004612b60565b61103b565b3480156104d757600080fd5b506102156104e63660046125a4565b6110d5565b3480156104f757600080fd5b50610215610506366004612bca565b6110fb565b60006001600160e01b03198216637965db0b60e01b148061053c57506301ffc9a760e01b6001600160e01b03198316145b92915050565b6000828152600160208190526040909120015461055e8161111a565b6105688383611127565b505050565b6001600160a01b03811633146105e25760405162461bcd60e51b815260206004820152602f60248201527f416363657373436f6e74726f6c3a2063616e206f6e6c792072656e6f756e636560448201526e103937b632b9903337b91039b2b63360891b60648201526084015b60405180910390fd5b6105ec8282611192565b5050565b60006105fb8161111a565b6001600160a01b038316600090815260036020526040902061061d8382612c8b565b50505050565b604080516060818101835260008083526020830181905292820181905290838060200190518101906106559190612d4a565b6001600160a01b03168082526040805163344b6f7960e21b8152905163d12dbde4916004808201926020929091908290030181865afa15801561069c573d6000803e3d6000fd5b505050506040513d601f19601f820116820180604052508101906106c09190612d4a565b6001600160a01b03166106d960c0870160a08801612b60565b6001600160a01b0316036106f3576003602082015261072a565b6004600061070760c0880160a08901612b60565b6001600160a01b031681526020808201929092526040016000205460ff16908201525b604080516001808252818301909252600091816020015b606081526020019060019003908161074157505082516001600160a01b0316600090815260036020526040902080549192509061077d90612c0b565b80601f01602080910402602001604051908101604052809291908181526020018280546107a990612c0b565b80156107f65780601f106107cb576101008083540402835291602001916107f6565b820191906000526020600020905b8154815290600101906020018083116107d957829003601f168201915b50505050508160008151811061080e5761080e612d72565b602090810291909101015261082660e0870187612d88565b8080601f0160208091040260200160405190810160405280939291908181526020018383808284376000920191909152505050506040808401919091528051808201825260078152666665656449447360c81b602080830191909152825180840184526009815268074696d657374616d760bc1b8183015292519192849290918a810135916108b791889101612dce565b60408051601f198184030181529082905263782af25160e11b82526105d99594939291600401612e08565b6000808080806108f486880188612eb4565b9450945094509450945060008560008151811061091357610913612d72565b602002602001015190506000610928826111f9565b80602001905181019061093b9190612fe7565b905060021960ff861601610a415760008480602001905181019061095f91906130a1565b905061096a8761139e565b6001600160a01b031663fcb51252886001600160a01b031663e7d015f26040518163ffffffff1660e01b8152600401602060405180830381865afa1580156109b6573d6000803e3d6000fd5b505050506040513d601f19601f820116820180604052508101906109da9190612d4a565b6109e48a86611463565b856040015163ffffffff16856040518563ffffffff1660e01b8152600401610a0f9493929190613217565b600060405180830381600087803b158015610a2957600080fd5b505af1925050508015610a3a575060015b5050610aa4565b610a4b868261121d565b604051634585e33b60e01b81526001600160a01b03841690634585e33b90610a77908790600401612563565b600060405180830381600087803b158015610a9157600080fd5b505af1925050508015610aa2575060015b505b505050505050505050565b6000610aba8161111a565b6040516001600160a01b0384169083156108fc029084906000818181858888f1935050505015801561061d573d6000803e3d6000fd5b600060606000610b5887876000818110610b0c57610b0c612d72565b9050602002810190610b1e9190612d88565b8080601f0160208091040260200160405190810160405280939291908181526020018383808284376000920191909152506111f992505050565b806020019051810190610b6b9190612fe7565b90506000610b7b85870187613244565b905060606000600360ff16836020015160ff1603610cbf5760008360400151806020019051810190610bad9190613482565b9050610bb881611554565b96508615610cb957604080516001808252818301909252600091816020015b6040805160a081018252600080825260208083018290529282018190526060820181905260808201528252600019909201910181610bd75790505090506040518060a0016040528083600001516001600160a01b031681526020018360a00151606001516001600160a01b031681526020018360a0015161012001516001600160401b031681526020018360600151151581526020018360200151151581525081600081518110610c8a57610c8a612d72565b602002602001018190525080604051602001610ca69190613550565b6040516020818303038152906040529350505b50610d1c565b50737ce298ad682be6b8e74c2d3154a0ece3b2461a0b610cdf848461158f565b909650915085610d0557610cfb8460c001518460000151611871565b9096509150610d1c565b50733ecd1eb4742823f4c9ea35504994764305ca32475b8251602080850151604051610d3b938e938e939192889188910161358c565b60405160208183030381529060405294505050505094509492505050565b600054610100900460ff1615808015610d795750600054600160ff909116105b80610d935750303b158015610d93575060005460ff166001145b610df65760405162461bcd60e51b815260206004820152602e60248201527f496e697469616c697a61626c653a20636f6e747261637420697320616c72656160448201526d191e481a5b9a5d1a585b1a5e995960921b60648201526084016105d9565b6000805460ff191660011790558015610e19576000805461ff0019166101001790555b610e24600033611127565b8351855114610e3257600080fd5b8151835114610e4057600080fd5b600280546001600160a01b0319166001600160a01b03881617905560005b8551811015610eea57848181518110610e7957610e79612d72565b602002602001015160046000888481518110610e9757610e97612d72565b60200260200101516001600160a01b03166001600160a01b0316815260200190815260200160002060006101000a81548160ff021916908360ff1602179055508080610ee290613677565b915050610e5e565b5060005b8351811015610f6e57828181518110610f0957610f09612d72565b602002602001015160036000868481518110610f2757610f27612d72565b60200260200101516001600160a01b03166001600160a01b031681526020019081526020016000209081610f5b9190612c8b565b5080610f6681613677565b915050610eee565b508015610fb5576000805461ff0019169055604051600181527f7f26b83ff96e1f2b6a682f133852f6798a09c465da95921460cefb38474024989060200160405180910390a15b505050505050565b60006060610fcb8484611871565b915091505b9250929050565b60009182526001602090815260408084206001600160a01b0393909316845291905290205460ff1690565b600061100d8161111a565b506001600160a01b03919091166000908152600460205260409020805460ff191660ff909216919091179055565b6003602052600090815260409020805461105490612c0b565b80601f016020809104026020016040519081016040528092919081815260200182805461108090612c0b565b80156110cd5780601f106110a2576101008083540402835291602001916110cd565b820191906000526020600020905b8154815290600101906020018083116110b057829003601f168201915b505050505081565b600082815260016020819052604090912001546110f18161111a565b6105688383611192565b60006111068161111a565b61061d6001600160a01b0385168484611ad0565b6111248133611b22565b50565b6111318282610fd7565b6105ec5760008281526001602081815260408084206001600160a01b0386168086529252808420805460ff19169093179092559051339285917f2f8788117e7eff1d82e926ec794901d17c78024a50270940304540a733656f0d9190a45050565b61119c8282610fd7565b156105ec5760008281526001602090815260408083206001600160a01b0385168085529252808320805460ff1916905551339285917ff6391f5c32d9c69d2a47ea670b442974b53935d1edc7fd64eb21e047a839171b9190a45050565b606060008280602001905181019061121191906136d5565b50919695505050505050565b60408051600180825281830190925260009160208083019080368337019050509050826001600160a01b031663e7d015f26040518163ffffffff1660e01b8152600401602060405180830381865afa15801561127d573d6000803e3d6000fd5b505050506040513d601f19601f820116820180604052508101906112a19190612d4a565b816000815181106112b4576112b4612d72565b6001600160a01b039290921660209283029190910190910152604080516001808252818301909252600091816020016020820280368337019050509050611307846113028560c00151611b7b565b611b95565b8160008151811061131a5761131a612d72565b60200260200101818152505061132f8461139e565b6001600160a01b031663782661bc8383866040015163ffffffff166040518463ffffffff1660e01b8152600401611368939291906137ea565b600060405180830381600087803b15801561138257600080fd5b505af1925050508015611393575060015b1561061d5750505050565b6000816001600160a01b031663741bef1a6040518163ffffffff1660e01b8152600401602060405180830381865afa1580156113de573d6000803e3d6000fd5b505050506040513d601f19601f820116820180604052508101906114029190612d4a565b6001600160a01b0316633a849c216040518163ffffffff1660e01b8152600401602060405180830381865afa15801561143f573d6000803e3d6000fd5b505050506040513d601f19601f8201168201806040525081019061053c9190612d4a565b60408051600180825281830190925260009182919060208083019080368337019050509050836001600160a01b031663e7d015f26040518163ffffffff1660e01b8152600401602060405180830381865afa1580156114c6573d6000803e3d6000fd5b505050506040513d601f19601f820116820180604052508101906114ea9190612d4a565b816000815181106114fd576114fd612d72565b6001600160a01b03929092166020928302919091019091015260408051600180825281830190925260009181602001602082028036833701905050905061154b856113028660c00151611b7b565b95945050505050565b600060028260c00151511015801561053c575060008260c0015160018151811061158057611580612d72565b60200260200101511192915050565b6000606060005b60028110156118695760005b60028110156118565760006115c28760c001518760000151848614611d6f565b90506000836001146116395786600001516001600160a01b03166305ba9ae96040518163ffffffff1660e01b8152600401602060405180830381865afa158015611610573d6000803e3d6000fd5b505050506040513d601f19601f820116820180604052508101906116349190612d4a565b61169f565b86600001516001600160a01b0316637b2fd1e56040518163ffffffff1660e01b8152600401602060405180830381865afa15801561167b573d6000803e3d6000fd5b505050506040513d601f19601f8201168201806040525081019061169f9190612d4a565b6040516314d102a960e01b81526000600482015261270f6024820152600185146044820152606481018490526001600160a01b0391909116906314d102a990608401600060405180830381865afa1580156116fe573d6000803e3d6000fd5b505050506040513d6000823e601f3d908101601f19168201604052611726919081019061384a565b80519091501561184157604080516001808252818301909252600091602080830190803683370190505090508160008151811061176557611765612d72565b6020026020010151606001518260008151811061178457611784612d72565b602002602001015161012001516040516020016117cc92919060609290921b6bffffffffffffffffffffffff1916825260c01b6001600160c01b0319166014820152601c0190565b60405160208183030381529060405280519060200120816000815181106117f5576117f5612d72565b6020026020010181815250506001886000015186600114866001148460405160200161182494939291906138d8565b604051602081830303815290604052965096505050505050610fd0565b5050808061184e90613677565b9150506115a2565b508061186181613677565b915050611596565b509250929050565b6040805160008082526001602080840182815260608086018752939593949386939192908501908036833701905050905060005b6002811015611ac6576000866001600160a01b031663ac0b05a66040518163ffffffff1660e01b8152600401602060405180830381865afa1580156118ee573d6000803e3d6000fd5b505050506040513d601f19601f820116820180604052508101906119129190612d4a565b604051638dd3fde360e01b81526000600482015261270f60248201526001841460448201526001600160a01b039190911690638dd3fde390606401600060405180830381865afa15801561196a573d6000803e3d6000fd5b505050506040513d6000823e601f3d908101601f191682016040526119929190810190613942565b905060006119a289898515611d6f565b905060005b8251811015611ab05760006119da8483815181106119c7576119c7612d72565b60200260200101518b8760011486611e84565b90508015611a9d578382815181106119f4576119f4612d72565b602002602001015186600081518110611a0f57611a0f612d72565b60200260200101906001600160a01b031690816001600160a01b03168152505084600103611a6d5760018a8789604051602001611a4e939291906139d0565b6040516020818303038152906040529850985050505050505050610fd0565b60018a88868581518110611a8357611a83612d72565b6020026020010151604051602001611a4e93929190613a06565b5080611aa881613677565b9150506119a7565b5050508080611abe90613677565b9150506118a5565b5050509250929050565b604080516001600160a01b038416602482015260448082018490528251808303909101815260649091019091526020810180516001600160e01b031663a9059cbb60e01b179052610568908490611ff2565b611b2c8282610fd7565b6105ec57611b39816120c4565b611b448360206120d6565b604051602001611b55929190613a3b565b60408051601f198184030181529082905262461bcd60e51b82526105d991600401612563565b600061053c6001600160c01b03831664e8d4a51000613ab0565b600080611ba184612278565b6001600160a01b031663c54e44eb6040518163ffffffff1660e01b8152600401602060405180830381865afa158015611bde573d6000803e3d6000fd5b505050506040513d601f19601f82011682018060405250810190611c029190612d4a565b90506000611c0f85612278565b604051634ee5a88d60e11b81526001600160a01b0384811660048301529190911690639dcb511a90602401602060405180830381865afa158015611c57573d6000803e3d6000fd5b505050506040513d601f19601f82011682018060405250810190611c7b9190612d4a565b90506000816001600160a01b03166350d25bcd6040518163ffffffff1660e01b8152600401602060405180830381865afa158015611cbd573d6000803e3d6000fd5b505050506040513d601f19601f82011682018060405250810190611ce19190613acf565b905080826001600160a01b031663313ce5676040518163ffffffff1660e01b8152600401602060405180830381865afa158015611d22573d6000803e3d6000fd5b505050506040513d601f19601f82011682018060405250810190611d469190613ae8565b611d5190600a613be1565b611d5b9087613ab0565b611d659190613bf0565b9695505050505050565b6000611d7e8361130286611b7b565b90506000611d8b84612278565b6001600160a01b03166376d69760856001600160a01b031663e7d015f26040518163ffffffff1660e01b8152600401602060405180830381865afa158015611dd7573d6000803e3d6000fd5b505050506040513d601f19601f82011682018060405250810190611dfb9190612d4a565b6040516001600160e01b031960e084901b1681526001600160a01b0390911660048201528515156024820152604401602060405180830381865afa158015611e47573d6000803e3d6000fd5b505050506040513d601f19601f82011682018060405250810190611e6b9190613acf565b905080821083151503611e7c578091505b509392505050565b6000611e8f84612319565b6001600160a01b0316631f21756a868686886001600160a01b031663ac0b05a66040518163ffffffff1660e01b8152600401602060405180830381865afa158015611ede573d6000803e3d6000fd5b505050506040513d601f19601f82011682018060405250810190611f029190612d4a565b896001600160a01b031663f29ebf616040518163ffffffff1660e01b8152600401602060405180830381865afa158015611f40573d6000803e3d6000fd5b505050506040513d601f19601f82011682018060405250810190611f649190612d4a565b60405160e087901b6001600160e01b03191681526001600160a01b0395861660048201529385166024850152911515604484015283166064830152909116608482015260a4810185905260c401602060405180830381865afa158015611fce573d6000803e3d6000fd5b505050506040513d601f19601f8201168201806040525081019061154b9190613acf565b6000612047826040518060400160405280602081526020017f5361666545524332303a206c6f772d6c6576656c2063616c6c206661696c6564815250856001600160a01b03166123599092919063ffffffff16565b80519091501561056857808060200190518101906120659190613c12565b6105685760405162461bcd60e51b815260206004820152602a60248201527f5361666545524332303a204552433230206f7065726174696f6e20646964206e6044820152691bdd081cdd58d8d9595960b21b60648201526084016105d9565b606061053c6001600160a01b03831660145b606060006120e5836002613ab0565b6120f0906002613c2d565b6001600160401b03811115612107576121076125d4565b6040519080825280601f01601f191660200182016040528015612131576020820181803683370190505b509050600360fc1b8160008151811061214c5761214c612d72565b60200101906001600160f81b031916908160001a905350600f60fb1b8160018151811061217b5761217b612d72565b60200101906001600160f81b031916908160001a905350600061219f846002613ab0565b6121aa906001613c2d565b90505b6001811115612222576f181899199a1a9b1b9c1cb0b131b232b360811b85600f16601081106121de576121de612d72565b1a60f81b8282815181106121f4576121f4612d72565b60200101906001600160f81b031916908160001a90535060049490941c9361221b81613c40565b90506121ad565b5083156122715760405162461bcd60e51b815260206004820181905260248201527f537472696e67733a20686578206c656e67746820696e73756666696369656e7460448201526064016105d9565b9392505050565b6000816001600160a01b031663741bef1a6040518163ffffffff1660e01b8152600401602060405180830381865afa1580156122b8573d6000803e3d6000fd5b505050506040513d601f19601f820116820180604052508101906122dc9190612d4a565b6001600160a01b031663add37b7b6040518163ffffffff1660e01b8152600401602060405180830381865afa15801561143f573d6000803e3d6000fd5b6000816001600160a01b031663b894300d6040518163ffffffff1660e01b8152600401602060405180830381865afa15801561143f573d6000803e3d6000fd5b60606123688484600085612370565b949350505050565b6060824710156123d15760405162461bcd60e51b815260206004820152602660248201527f416464726573733a20696e73756666696369656e742062616c616e636520666f6044820152651c8818d85b1b60d21b60648201526084016105d9565b600080866001600160a01b031685876040516123ed9190613c57565b60006040518083038185875af1925050503d806000811461242a576040519150601f19603f3d011682016040523d82523d6000602084013e61242f565b606091505b50915091506124408783838761244b565b979650505050505050565b606083156124ba5782516000036124b3576001600160a01b0385163b6124b35760405162461bcd60e51b815260206004820152601d60248201527f416464726573733a2063616c6c20746f206e6f6e2d636f6e747261637400000060448201526064016105d9565b5081612368565b61236883838151156124cf5781518083602001fd5b8060405162461bcd60e51b81526004016105d99190612563565b6000602082840312156124fb57600080fd5b81356001600160e01b03198116811461227157600080fd5b60005b8381101561252e578181015183820152602001612516565b50506000910152565b6000815180845261254f816020860160208601612513565b601f01601f19169290920160200192915050565b6020815260006122716020830184612537565b60006020828403121561258857600080fd5b5035919050565b6001600160a01b038116811461112457600080fd5b600080604083850312156125b757600080fd5b8235915060208301356125c98161258f565b809150509250929050565b634e487b7160e01b600052604160045260246000fd5b60405160e081016001600160401b038111828210171561260c5761260c6125d4565b60405290565b60405160a081016001600160401b038111828210171561260c5761260c6125d4565b6040516101a081016001600160401b038111828210171561260c5761260c6125d4565b604051606081016001600160401b038111828210171561260c5761260c6125d4565b604051601f8201601f191681016001600160401b03811182821017156126a1576126a16125d4565b604052919050565b60006001600160401b038211156126c2576126c26125d4565b50601f01601f191660200190565b600082601f8301126126e157600080fd5b81356126f46126ef826126a9565b612679565b81815284602083860101111561270957600080fd5b816020850160208301376000918101602001919091529392505050565b6000806040838503121561273957600080fd5b82356127448161258f565b915060208301356001600160401b0381111561275f57600080fd5b61276b858286016126d0565b9150509250929050565b6000806040838503121561278857600080fd5b82356001600160401b038082111561279f57600080fd5b9084019061010082870312156127b457600080fd5b909250602084013590808211156127ca57600080fd5b5061276b858286016126d0565b82151581526040602082015260006123686040830184612537565b60008083601f84011261280457600080fd5b5081356001600160401b0381111561281b57600080fd5b602083019150836020828501011115610fd057600080fd5b6000806020838503121561284657600080fd5b82356001600160401b0381111561285c57600080fd5b612868858286016127f2565b90969095509350505050565b6000806040838503121561288757600080fd5b82356128928161258f565b946020939093013593505050565b600080600080604085870312156128b657600080fd5b84356001600160401b03808211156128cd57600080fd5b818701915087601f8301126128e157600080fd5b8135818111156128f057600080fd5b8860208260051b850101111561290557600080fd5b60209283019650945090860135908082111561292057600080fd5b5061292d878288016127f2565b95989497509550505050565b60006001600160401b03821115612952576129526125d4565b5060051b60200190565b600082601f83011261296d57600080fd5b8135602061297d6126ef83612939565b82815260059290921b8401810191818101908684111561299c57600080fd5b8286015b848110156129c05780356129b38161258f565b83529183019183016129a0565b509695505050505050565b600082601f8301126129dc57600080fd5b813560206129ec6126ef83612939565b82815260059290921b84018101918181019086841115612a0b57600080fd5b8286015b848110156129c05780356001600160401b03811115612a2e5760008081fd5b612a3c8986838b01016126d0565b845250918301918301612a0f565b600080600080600060a08688031215612a6257600080fd5b8535612a6d8161258f565b94506020868101356001600160401b0380821115612a8a57600080fd5b612a968a838b0161295c565b96506040890135915080821115612aac57600080fd5b818901915089601f830112612ac057600080fd5b8135612ace6126ef82612939565b81815260059190911b8301840190848101908c831115612aed57600080fd5b938501935b82851015612b0b57843582529385019390850190612af2565b975050506060890135925080831115612b2357600080fd5b612b2f8a848b0161295c565b94506080890135925080831115612b4557600080fd5b5050612b53888289016129cb565b9150509295509295909350565b600060208284031215612b7257600080fd5b81356122718161258f565b60ff8116811461112457600080fd5b8035612b9781612b7d565b919050565b60008060408385031215612baf57600080fd5b8235612bba8161258f565b915060208301356125c981612b7d565b600080600060608486031215612bdf57600080fd5b8335612bea8161258f565b92506020840135612bfa8161258f565b929592945050506040919091013590565b600181811c90821680612c1f57607f821691505b602082108103612c3f57634e487b7160e01b600052602260045260246000fd5b50919050565b601f82111561056857600081815260208120601f850160051c81016020861015612c6c5750805b601f850160051c820191505b81811015610fb557828155600101612c78565b81516001600160401b03811115612ca457612ca46125d4565b612cb881612cb28454612c0b565b84612c45565b602080601f831160018114612ced5760008415612cd55750858301515b600019600386901b1c1916600185901b178555610fb5565b600085815260208120601f198616915b82811015612d1c57888601518255948401946001909101908401612cfd565b5085821015612d3a5787850151600019600388901b60f8161c191681555b5050505050600190811b01905550565b600060208284031215612d5c57600080fd5b81516122718161258f565b8051612b978161258f565b634e487b7160e01b600052603260045260246000fd5b6000808335601e19843603018112612d9f57600080fd5b8301803591506001600160401b03821115612db957600080fd5b602001915036819003821315610fd057600080fd5b6020815260018060a01b03825116602082015260ff6020830151166040820152600060408301516060808401526123686080840182612537565b60a081526000612e1b60a0830188612537565b6020838203818501528188518084528284019150828160051b850101838b0160005b83811015612e6b57601f19878403018552612e59838351612537565b94860194925090850190600101612e3d565b50508681036040880152612e7f818b612537565b9450505050508460608401528281036080840152612e9d8185612537565b98975050505050505050565b8035612b978161258f565b600080600080600060a08688031215612ecc57600080fd5b85356001600160401b0380821115612ee357600080fd5b818801915088601f830112612ef757600080fd5b81356020612f076126ef83612939565b82815260059290921b8401810191818101908c841115612f2657600080fd5b8286015b84811015612f5e57803586811115612f425760008081fd5b612f508f86838b01016126d0565b845250918301918301612f2a565b509950612f6e90508a8201612ea9565b97505050612f7e60408901612b8c565b94506060880135915080821115612f9457600080fd5b50612fa1888289016126d0565b925050612fb060808701612ea9565b90509295509295909350565b805163ffffffff81168114612b9757600080fd5b80516001600160c01b0381168114612b9757600080fd5b600060e08284031215612ff957600080fd5b6130016125ea565b8251815261301160208401612fbc565b602082015261302260408401612fbc565b604082015261303360608401612fd0565b606082015261304460808401612fd0565b608082015261305560a08401612fbc565b60a082015260c08301518060170b811461306e57600080fd5b60c08201529392505050565b80516001600160401b0381168114612b9757600080fd5b80518015158114612b9757600080fd5b600060208083850312156130b457600080fd5b82516001600160401b038111156130ca57600080fd5b8301601f810185136130db57600080fd5b80516130e96126ef82612939565b81815260a0918202830184019184820191908884111561310857600080fd5b938501935b8385101561318d5780858a0312156131255760008081fd5b61312d612612565b85516131388161258f565b8152858701516131478161258f565b81880152604061315887820161307a565b908201526060613169878201613091565b90820152608061317a878201613091565b908201528352938401939185019161310d565b50979650505050505050565b600081518084526020808501945080840160005b8381101561320c57815180516001600160a01b0390811689528482015116848901526040808201516001600160401b03169089015260608082015115159089015260809081015115159088015260a090960195908201906001016131ad565b509495945050505050565b60018060a01b0385168152836020820152826040820152608060608201526000611d656080830184613199565b60006020828403121561325657600080fd5b81356001600160401b038082111561326d57600080fd5b908301906060828603121561328157600080fd5b60405160608101818110838211171561329c5761329c6125d4565b60405282356132aa8161258f565b815260208301356132ba81612b7d565b60208201526040830135828111156132d157600080fd5b6132dd878286016126d0565b60408301525095945050505050565b8051612b9781612b7d565b805165ffffffffffff81168114612b9757600080fd5b80516fffffffffffffffffffffffffffffffff81168114612b9757600080fd5b60006101a0828403121561334057600080fd5b613348612634565b9050613353826132ec565b815261336160208301612fbc565b6020820152613372604083016132ec565b604082015261338360608301612d67565b6060820152613394608083016132f7565b60808201526133a560a0830161330d565b60a08201526133b660c0830161330d565b60c08201526133c760e0830161330d565b60e08201526101006133da81840161330d565b908201526101206133ec83820161307a565b908201526101406133fe83820161307a565b9082015261016061341083820161330d565b818301525061018080830151818301525092915050565b600082601f83011261343857600080fd5b815160206134486126ef83612939565b82815260059290921b8401810191818101908684111561346757600080fd5b8286015b848110156129c0578051835291830191830161346b565b60006020828403121561349457600080fd5b81516001600160401b03808211156134ab57600080fd5b9083019061026082860312156134c057600080fd5b6134c86125ea565b6134d183612d67565b81526134df60208401613091565b6020820152604083015160408201526134fa60608401613091565b606082015261350b60808401613091565b608082015261351d8660a0850161332d565b60a08201526102408301518281111561353557600080fd5b61354187828601613427565b60c08301525095945050505050565b6020815260006122716020830184613199565b81835281816020850137506000828201602090810191909152601f909101601f19169091010190565b60a08082528101869052600060c0600588901b8301810190830189835b8a81101561361c5785840360bf190183528135368d9003601e190181126135cf57600080fd5b8c0160208181019135906001600160401b038211156135ed57600080fd5b8136038313156135fc57600080fd5b613607878385613563565b965094850194939093019250506001016135a9565b5050506001600160a01b038716602084015260ff8616604084015282810360608401526136498186612537565b91505061244060808301846001600160a01b03169052565b634e487b7160e01b600052601160045260246000fd5b60006001820161368957613689613661565b5060010190565b600082601f8301126136a157600080fd5b81516136af6126ef826126a9565b8181528460208386010111156136c457600080fd5b612368826020830160208701612513565b600080600080600060e086880312156136ed57600080fd5b86601f8701126136fc57600080fd5b613704612657565b80606088018981111561371657600080fd5b885b81811015613730578051845260209384019301613718565b505190965090506001600160401b038082111561374c57600080fd5b61375889838a01613690565b9550608088015191508082111561376e57600080fd5b61377a89838a01613427565b945060a088015191508082111561379057600080fd5b5061379d88828901613427565b92505060c086015190509295509295909350565b600081518084526020808501945080840160005b8381101561320c5781516001600160a01b0316875295820195908201906001016137c5565b6060815260006137fd60608301866137b1565b82810360208481019190915285518083528682019282019060005b8181101561383457845183529383019391830191600101613818565b5050809350505050826040830152949350505050565b6000602080838503121561385d57600080fd5b82516001600160401b0381111561387357600080fd5b8301601f8101851361388457600080fd5b80516138926126ef82612939565b8181526101a091820283018401918482019190888411156138b257600080fd5b938501935b8385101561318d576138c9898661332d565b835293840193918501916138b7565b6001600160a01b0385168152831515602080830191909152831515604083015260806060830181905283519083018190526000918481019160a0850190845b8181101561393357845183529383019391830191600101613917565b50909998505050505050505050565b6000602080838503121561395557600080fd5b82516001600160401b0381111561396b57600080fd5b8301601f8101851361397c57600080fd5b805161398a6126ef82612939565b81815260059190911b820183019083810190878311156139a957600080fd5b928401925b828410156124405783516139c18161258f565b825292840192908401906139ae565b6001600160a01b03841681526060602082018190526000906139f4908301856137b1565b8281036040840152611d6581856137b1565b600060018060a01b03808616835260606020840152613a2860608401866137b1565b9150808416604084015250949350505050565b7f416363657373436f6e74726f6c3a206163636f756e7420000000000000000000815260008351613a73816017850160208801612513565b7001034b99036b4b9b9b4b733903937b6329607d1b6017918401918201528351613aa4816028840160208801612513565b01602801949350505050565b6000816000190483118215151615613aca57613aca613661565b500290565b600060208284031215613ae157600080fd5b5051919050565b600060208284031215613afa57600080fd5b815161227181612b7d565b600181815b80851115611869578160001904821115613b2657613b26613661565b80851615613b3357918102915b93841c9390800290613b0a565b600082613b4f5750600161053c565b81613b5c5750600061053c565b8160018114613b725760028114613b7c57613b98565b600191505061053c565b60ff841115613b8d57613b8d613661565b50506001821b61053c565b5060208310610133831016604e8410600b8410161715613bbb575081810a61053c565b613bc58383613b05565b8060001904821115613bd957613bd9613661565b029392505050565b600061227160ff841683613b40565b600082613c0d57634e487b7160e01b600052601260045260246000fd5b500490565b600060208284031215613c2457600080fd5b61227182613091565b8082018082111561053c5761053c613661565b600081613c4f57613c4f613661565b506000190190565b60008251613c69818460208701612513565b919091019291505056fea2646970667358221220d0d8affb56693ac9f74d1e3e9c84e6706fb92a19d6b8bb1497815be3f8a3e21964736f6c63430008100033",
  "linkReferences": {},
  "deployedLinkReferences": {}
}