{
  "_format": "hh-sol-artifact-1",
  "contractName": "PositionAddMgr",
  "sourceName": "contracts/market/PositionAddMgr.sol",
  "abi": [
    {
      "inputs": [],
      "stateMutability": "nonpayable",
      "type": "constructor"
    },
    {
      "anonymous": false,
      "inputs": [
        {
          "indexed": false,
          "internalType": "uint8",
          "name": "version",
          "type": "uint8"
        }
      ],
      "name": "Initialized",
      "type": "event"
    },
    {
      "anonymous": false,
      "inputs": [
        {
          "indexed": true,
          "internalType": "address",
          "name": "previousOwner",
          "type": "address"
        },
        {
          "indexed": true,
          "internalType": "address",
          "name": "newOwner",
          "type": "address"
        }
      ],
      "name": "OwnershipTransferred",
      "type": "event"
    },
    {
      "anonymous": false,
      "inputs": [
        {
          "indexed": true,
          "internalType": "bytes32",
          "name": "role",
          "type": "bytes32"
        },
        {
          "indexed": true,
          "internalType": "bytes32",
          "name": "previousAdminRole",
          "type": "bytes32"
        },
        {
          "indexed": true,
          "internalType": "bytes32",
          "name": "newAdminRole",
          "type": "bytes32"
        }
      ],
      "name": "RoleAdminChanged",
      "type": "event"
    },
    {
      "anonymous": false,
      "inputs": [
        {
          "indexed": true,
          "internalType": "bytes32",
          "name": "role",
          "type": "bytes32"
        },
        {
          "indexed": true,
          "internalType": "address",
          "name": "account",
          "type": "address"
        },
        {
          "indexed": true,
          "internalType": "address",
          "name": "sender",
          "type": "address"
        }
      ],
      "name": "RoleGranted",
      "type": "event"
    },
    {
      "anonymous": false,
      "inputs": [
        {
          "indexed": true,
          "internalType": "bytes32",
          "name": "role",
          "type": "bytes32"
        },
        {
          "indexed": true,
          "internalType": "address",
          "name": "account",
          "type": "address"
        },
        {
          "indexed": true,
          "internalType": "address",
          "name": "sender",
          "type": "address"
        }
      ],
      "name": "RoleRevoked",
      "type": "event"
    },
    {
      "inputs": [],
      "name": "DEFAULT_ADMIN_ROLE",
      "outputs": [
        {
          "internalType": "bytes32",
          "name": "",
          "type": "bytes32"
        }
      ],
      "stateMutability": "view",
      "type": "function"
    },
    {
      "inputs": [],
      "name": "collateralToken",
      "outputs": [
        {
          "internalType": "address",
          "name": "",
          "type": "address"
        }
      ],
      "stateMutability": "view",
      "type": "function"
    },
    {
      "inputs": [],
      "name": "collateralTokenDigits",
      "outputs": [
        {
          "internalType": "uint8",
          "name": "",
          "type": "uint8"
        }
      ],
      "stateMutability": "view",
      "type": "function"
    },
    {
      "inputs": [
        {
          "components": [
            {
              "internalType": "uint8",
              "name": "version",
              "type": "uint8"
            },
            {
              "internalType": "uint32",
              "name": "updatedAtBlock",
              "type": "uint32"
            },
            {
              "internalType": "uint8",
              "name": "triggerAbove",
              "type": "uint8"
            },
            {
              "internalType": "address",
              "name": "account",
              "type": "address"
            },
            {
              "internalType": "uint48",
              "name": "extra3",
              "type": "uint48"
            },
            {
              "internalType": "uint128",
              "name": "collateral",
              "type": "uint128"
            },
            {
              "internalType": "uint128",
              "name": "size",
              "type": "uint128"
            },
            {
              "internalType": "uint128",
              "name": "price",
              "type": "uint128"
            },
            {
              "internalType": "uint128",
              "name": "extra1",
              "type": "uint128"
            },
            {
              "internalType": "uint64",
              "name": "orderID",
              "type": "uint64"
            },
            {
              "internalType": "uint64",
              "name": "extra2",
              "type": "uint64"
            },
            {
              "internalType": "uint128",
              "name": "extra0",
              "type": "uint128"
            },
            {
              "internalType": "bytes32",
              "name": "refCode",
              "type": "bytes32"
            }
          ],
          "internalType": "struct Order.Props",
          "name": "exeOrder",
          "type": "tuple"
        },
        {
          "components": [
            {
              "internalType": "address",
              "name": "_market",
              "type": "address"
            },
            {
              "internalType": "bool",
              "name": "_isLong",
              "type": "bool"
            },
            {
              "internalType": "uint256",
              "name": "_oraclePrice",
              "type": "uint256"
            },
            {
              "internalType": "bool",
              "name": "isOpen",
              "type": "bool"
            },
            {
              "internalType": "address",
              "name": "_account",
              "type": "address"
            },
            {
              "internalType": "uint256",
              "name": "_sizeDelta",
              "type": "uint256"
            },
            {
              "internalType": "uint256",
              "name": "_price",
              "type": "uint256"
            },
            {
              "internalType": "uint256",
              "name": "_slippage",
              "type": "uint256"
            },
            {
              "internalType": "bool",
              "name": "_isExec",
              "type": "bool"
            },
            {
              "internalType": "uint8",
              "name": "liqState",
              "type": "uint8"
            },
            {
              "internalType": "uint64",
              "name": "_fromOrder",
              "type": "uint64"
            },
            {
              "internalType": "bytes32",
              "name": "_refCode",
              "type": "bytes32"
            },
            {
              "internalType": "uint256",
              "name": "collateralDelta",
              "type": "uint256"
            },
            {
              "internalType": "uint8",
              "name": "execNum",
              "type": "uint8"
            },
            {
              "internalType": "uint256[]",
              "name": "inputs",
              "type": "uint256[]"
            }
          ],
          "internalType": "struct MarketDataTypes.UpdatePositionInputs",
          "name": "_params",
          "type": "tuple"
        }
      ],
      "name": "execOrderKey",
      "outputs": [],
      "stateMutability": "nonpayable",
      "type": "function"
    },
    {
      "inputs": [],
      "name": "feeRouter",
      "outputs": [
        {
          "internalType": "contract IFeeRouter",
          "name": "",
          "type": "address"
        }
      ],
      "stateMutability": "view",
      "type": "function"
    },
    {
      "inputs": [
        {
          "internalType": "bytes32",
          "name": "role",
          "type": "bytes32"
        }
      ],
      "name": "getRoleAdmin",
      "outputs": [
        {
          "internalType": "bytes32",
          "name": "",
          "type": "bytes32"
        }
      ],
      "stateMutability": "view",
      "type": "function"
    },
    {
      "inputs": [],
      "name": "globalValid",
      "outputs": [
        {
          "internalType": "address",
          "name": "",
          "type": "address"
        }
      ],
      "stateMutability": "view",
      "type": "function"
    },
    {
      "inputs": [
        {
          "internalType": "address",
          "name": "_account",
          "type": "address"
        }
      ],
      "name": "grantControllerRoleByMarketManager",
      "outputs": [],
      "stateMutability": "nonpayable",
      "type": "function"
    },
    {
      "inputs": [
        {
          "internalType": "bytes32",
          "name": "role",
          "type": "bytes32"
        },
        {
          "internalType": "address",
          "name": "account",
          "type": "address"
        }
      ],
      "name": "grantRole",
      "outputs": [],
      "stateMutability": "nonpayable",
      "type": "function"
    },
    {
      "inputs": [
        {
          "internalType": "bytes32",
          "name": "role",
          "type": "bytes32"
        },
        {
          "internalType": "address",
          "name": "account",
          "type": "address"
        }
      ],
      "name": "hasRole",
      "outputs": [
        {
          "internalType": "bool",
          "name": "",
          "type": "bool"
        }
      ],
      "stateMutability": "view",
      "type": "function"
    },
    {
      "inputs": [
        {
          "components": [
            {
              "internalType": "address",
              "name": "_market",
              "type": "address"
            },
            {
              "internalType": "bool",
              "name": "_isLong",
              "type": "bool"
            },
            {
              "internalType": "uint256",
              "name": "_oraclePrice",
              "type": "uint256"
            },
            {
              "internalType": "bool",
              "name": "isOpen",
              "type": "bool"
            },
            {
              "internalType": "address",
              "name": "_account",
              "type": "address"
            },
            {
              "internalType": "uint256",
              "name": "_sizeDelta",
              "type": "uint256"
            },
            {
              "internalType": "uint256",
              "name": "_price",
              "type": "uint256"
            },
            {
              "internalType": "uint256",
              "name": "_slippage",
              "type": "uint256"
            },
            {
              "internalType": "bool",
              "name": "_isExec",
              "type": "bool"
            },
            {
              "internalType": "uint8",
              "name": "liqState",
              "type": "uint8"
            },
            {
              "internalType": "uint64",
              "name": "_fromOrder",
              "type": "uint64"
            },
            {
              "internalType": "bytes32",
              "name": "_refCode",
              "type": "bytes32"
            },
            {
              "internalType": "uint256",
              "name": "collateralDelta",
              "type": "uint256"
            },
            {
              "internalType": "uint8",
              "name": "execNum",
              "type": "uint8"
            },
            {
              "internalType": "uint256[]",
              "name": "inputs",
              "type": "uint256[]"
            }
          ],
          "internalType": "struct MarketDataTypes.UpdatePositionInputs",
          "name": "_inputs",
          "type": "tuple"
        }
      ],
      "name": "increasePositionWithOrders",
      "outputs": [],
      "stateMutability": "nonpayable",
      "type": "function"
    },
    {
      "inputs": [],
      "name": "indexToken",
      "outputs": [
        {
          "internalType": "address",
          "name": "",
          "type": "address"
        }
      ],
      "stateMutability": "view",
      "type": "function"
    },
    {
      "inputs": [],
      "name": "marketRouter",
      "outputs": [
        {
          "internalType": "address",
          "name": "",
          "type": "address"
        }
      ],
      "stateMutability": "view",
      "type": "function"
    },
    {
      "inputs": [],
      "name": "marketValid",
      "outputs": [
        {
          "internalType": "address",
          "name": "",
          "type": "address"
        }
      ],
      "stateMutability": "view",
      "type": "function"
    },
    {
      "inputs": [],
      "name": "name",
      "outputs": [
        {
          "internalType": "string",
          "name": "",
          "type": "string"
        }
      ],
      "stateMutability": "view",
      "type": "function"
    },
    {
      "inputs": [],
      "name": "orderBookLong",
      "outputs": [
        {
          "internalType": "contract IOrderBook",
          "name": "",
          "type": "address"
        }
      ],
      "stateMutability": "view",
      "type": "function"
    },
    {
      "inputs": [],
      "name": "orderBookShort",
      "outputs": [
        {
          "internalType": "contract IOrderBook",
          "name": "",
          "type": "address"
        }
      ],
      "stateMutability": "view",
      "type": "function"
    },
    {
      "inputs": [],
      "name": "orderMgr",
      "outputs": [
        {
          "internalType": "address",
          "name": "",
          "type": "address"
        }
      ],
      "stateMutability": "view",
      "type": "function"
    },
    {
      "inputs": [
        {
          "internalType": "bool",
          "name": "isLong",
          "type": "bool"
        },
        {
          "internalType": "bool",
          "name": "isOpen",
          "type": "bool"
        }
      ],
      "name": "orderStore",
      "outputs": [
        {
          "internalType": "contract IOrderStore",
          "name": "",
          "type": "address"
        }
      ],
      "stateMutability": "view",
      "type": "function"
    },
    {
      "inputs": [],
      "name": "owner",
      "outputs": [
        {
          "internalType": "address",
          "name": "",
          "type": "address"
        }
      ],
      "stateMutability": "view",
      "type": "function"
    },
    {
      "inputs": [],
      "name": "pluginGasLimit",
      "outputs": [
        {
          "internalType": "uint256",
          "name": "",
          "type": "uint256"
        }
      ],
      "stateMutability": "view",
      "type": "function"
    },
    {
      "inputs": [
        {
          "internalType": "uint256",
          "name": "",
          "type": "uint256"
        }
      ],
      "name": "plugins",
      "outputs": [
        {
          "internalType": "address",
          "name": "",
          "type": "address"
        }
      ],
      "stateMutability": "view",
      "type": "function"
    },
    {
      "inputs": [],
      "name": "positionAddMgr",
      "outputs": [
        {
          "internalType": "address",
          "name": "",
          "type": "address"
        }
      ],
      "stateMutability": "view",
      "type": "function"
    },
    {
      "inputs": [],
      "name": "positionBook",
      "outputs": [
        {
          "internalType": "contract IPositionBook",
          "name": "",
          "type": "address"
        }
      ],
      "stateMutability": "view",
      "type": "function"
    },
    {
      "inputs": [],
      "name": "positionStoreLong",
      "outputs": [
        {
          "internalType": "address",
          "name": "",
          "type": "address"
        }
      ],
      "stateMutability": "view",
      "type": "function"
    },
    {
      "inputs": [],
      "name": "positionStoreShort",
      "outputs": [
        {
          "internalType": "address",
          "name": "",
          "type": "address"
        }
      ],
      "stateMutability": "view",
      "type": "function"
    },
    {
      "inputs": [],
      "name": "positionSubMgr",
      "outputs": [
        {
          "internalType": "address",
          "name": "",
          "type": "address"
        }
      ],
      "stateMutability": "view",
      "type": "function"
    },
    {
      "inputs": [],
      "name": "priceFeed",
      "outputs": [
        {
          "internalType": "address",
          "name": "",
          "type": "address"
        }
      ],
      "stateMutability": "view",
      "type": "function"
    },
    {
      "inputs": [],
      "name": "renounceOwnership",
      "outputs": [],
      "stateMutability": "nonpayable",
      "type": "function"
    },
    {
      "inputs": [
        {
          "internalType": "bytes32",
          "name": "role",
          "type": "bytes32"
        },
        {
          "internalType": "address",
          "name": "account",
          "type": "address"
        }
      ],
      "name": "renounceRole",
      "outputs": [],
      "stateMutability": "nonpayable",
      "type": "function"
    },
    {
      "inputs": [
        {
          "internalType": "bytes32",
          "name": "role",
          "type": "bytes32"
        },
        {
          "internalType": "address",
          "name": "account",
          "type": "address"
        }
      ],
      "name": "revokeRole",
      "outputs": [],
      "stateMutability": "nonpayable",
      "type": "function"
    },
    {
      "inputs": [
        {
          "internalType": "bytes4",
          "name": "interfaceId",
          "type": "bytes4"
        }
      ],
      "name": "supportsInterface",
      "outputs": [
        {
          "internalType": "bool",
          "name": "",
          "type": "bool"
        }
      ],
      "stateMutability": "view",
      "type": "function"
    },
    {
      "inputs": [
        {
          "internalType": "address",
          "name": "to",
          "type": "address"
        }
      ],
      "name": "transferAdmin",
      "outputs": [],
      "stateMutability": "nonpayable",
      "type": "function"
    },
    {
      "inputs": [
        {
          "internalType": "address",
          "name": "newOwner",
          "type": "address"
        }
      ],
      "name": "transferOwnership",
      "outputs": [],
      "stateMutability": "nonpayable",
      "type": "function"
    },
    {
      "inputs": [],
      "name": "vaultRouter",
      "outputs": [
        {
          "internalType": "address",
          "name": "",
          "type": "address"
        }
      ],
      "stateMutability": "view",
      "type": "function"
    }
  ],
  "bytecode": "0x60806040523480156200001157600080fd5b5060016046556000620000243362000041565b6200003a816200009360201b62000d1a1760201c565b5062000173565b604880546001600160a01b038381166001600160a01b0319831681179093556040519116919082907f8be0079c531659141344cd1fd0a4f28419497f9722a3daafe3b4186f6b6457e090600090a35050565b42604955620000a23362000041565b620000af600033620000bf565b620000bc600082620000bf565b50565b620000cb8282620000cf565b5050565b60008281526047602090815260408083206001600160a01b038516845290915290205460ff16620000cb5760008281526047602090815260408083206001600160a01b03851684529091529020805460ff191660011790556200012f3390565b6001600160a01b0316816001600160a01b0316837f2f8788117e7eff1d82e926ec794901d17c78024a50270940304540a733656f0d60405160405180910390a45050565b613e7680620001836000396000f3fe608060405234801561001057600080fd5b50600436106102115760003560e01c80638da5cb5b11610125578063c54dc3d6116100ad578063d547741f1161007c578063d547741f146104af578063e7d015f2146104c2578063f0a317eb146104d5578063f29ebf61146104e8578063f2fde38b146104fb57600080fd5b8063c54dc3d614610463578063d12dbde414610476578063d37c441c14610489578063d49ff78d1461049c57600080fd5b8063a2640454116100f4578063a2640454146103d3578063ac0b05a61461040b578063b2016bd41461041e578063b21dc9cb14610431578063b894300d1461045057600080fd5b80638da5cb5b1461039457806391d14854146103a5578063a0cbf50c146103b8578063a217fddf146103cb57600080fd5b806336568abe116101a8578063741bef1a11610177578063741bef1a1461033557806375829def146103485780637b2fd1e51461035b5780637fe4a6981461036e5780638a6ca35d1461038157600080fd5b806336568abe146102f45780633bdef83a1461030757806345ccf5c51461031a578063715018a61461032d57600080fd5b806307e87545116101e457806307e875451461029657806312de276c146102a9578063248a9ca3146102be5780632f2ff15d146102e157600080fd5b806301ffc9a71461021657806303deb0291461023e57806305ba9ae91461025657806306fdde0314610281575b600080fd5b610229610224366004612bcd565b61050e565b60405190151581526020015b60405180910390f35b610248620a2c2a81565b604051908152602001610235565b600654610269906001600160a01b031681565b6040516001600160a01b039091168152602001610235565b610289610545565b6040516102359190612c47565b600a54610269906001600160a01b031681565b6102bc6102b7366004612f80565b6105d3565b005b6102486102cc3660046130b4565b60009081526047602052604090206001015490565b6102bc6102ef3660046130cd565b610640565b6102bc6103023660046130cd565b61066a565b6102bc6103153660046130fd565b6106e4565b600b54610269906001600160a01b031681565b6102bc610bbf565b600954610269906001600160a01b031681565b6102bc610356366004613139565b610bd3565b600554610269906001600160a01b031681565b6102bc61037c366004613139565b610bfd565b600e54610269906001600160a01b031681565b6048546001600160a01b0316610269565b6102296103b33660046130cd565b610c27565b600f54610269906001600160a01b031681565b610248600081565b6102696103e1366004613156565b9015156000908152600760209081526040808320931515835292905220546001600160a01b031690565b600354610269906001600160a01b031681565b600454610269906001600160a01b031681565b60135461043e9060ff1681565b60405160ff9091168152602001610235565b600054610269906001600160a01b031681565b600154610269906001600160a01b031681565b601054610269906001600160a01b031681565b600c54610269906001600160a01b031681565b600d54610269906001600160a01b031681565b6102bc6104bd3660046130cd565b610c52565b600254610269906001600160a01b031681565b6102696104e33660046130b4565b610c77565b600854610269906001600160a01b031681565b6102bc610509366004613139565b610ca1565b60006001600160e01b03198216637965db0b60e01b148061053f57506301ffc9a760e01b6001600160e01b03198316145b92915050565b6011805461055290613184565b80601f016020809104026020016040519081016040528092919081815260200182805461057e90613184565b80156105cb5780601f106105a0576101008083540402835291602001916105cb565b820191906000526020600020905b8154815290600101906020018083116105ae57829003601f168201915b505050505081565b6105dc82610d3d565b80606001516106325760405162461bcd60e51b815260206004820152601d60248201527f506f736974696f6e4164644d67723a696e76616c69642069736f70656e00000060448201526064015b60405180910390fd5b61063c8282610ddd565b5050565b60008281526047602052604090206001015461065b81611140565b610665838361114a565b505050565b6001600160a01b03811633146106da5760405162461bcd60e51b815260206004820152602f60248201527f416363657373436f6e74726f6c3a2063616e206f6e6c792072656e6f756e636560448201526e103937b632b9903337b91039b2b63360891b6064820152608401610629565b61063c82826111d0565b60005461018082015160405163015fc61360e01b815260048101919091526001600160a01b039091169063015fc6139060240160006040518083038186803b15801561072f57600080fd5b505afa158015610743573d6000803e3d6000fd5b505050508060e00151600014801561076757506101408101516001600160401b0316155b1561077457601e60e08201525b6107818160200151611237565b6040820152600354608082015160a08301516000926001600160a01b03169163bc95baad91156107b55784604001516107b8565b60005b60208601516040516001600160e01b031960e086901b1681526001600160a01b03909316600484015260248301919091521515604482015260640161018060405180830381865afa158015610811573d6000803e3d6000fd5b505050506040513d601f19601f8201168201806040525081019061083591906131f0565b905061084182826112fe565b506108548260800151836020015161169d565b1580610862575060a0820151155b1561086b575050565b6000610876836117a0565b158015906108ac5750826020015115158360c00151610894856117a0565b1114806108ac57508260c001516108aa846117a0565b145b905060006108b9846117de565b158015906108f157506108cb846117de565b8460c001511115158460200151151514806108f157506108ea846117de565b8460c00151145b9050606060008380156109015750825b61092057838061090e5750825b610919576000610923565b6001610923565b60025b60ff1690508015610a0a57806001600160401b0381111561094657610946612c5a565b60405190808252806020026020018201604052801561097f57816020015b61096c612b2e565b8152602001906001900390816109645790505b5091506109aa8660008661099b57610996896117de565b6109a4565b6109a4896117a0565b8761180e565b826000815181106109bd576109bd6132a6565b602002602001018190525080600203610a05576109e68660006109df896117de565b600061180e565b826001815181106109f9576109f96132a6565b60200260200101819052505b610a12565b505050505050565b60008660200151610a2e576006546001600160a01b0316610a3b565b6005546001600160a01b03165b6001600160a01b031663b398a842846040518263ffffffff1660e01b8152600401610a66919061348c565b6000604051808303816000875af1158015610a85573d6000803e3d6000fd5b505050506040513d6000823e601f3d908101601f19168201604052610aad919081019061351a565b604080516000808252602082019092529192505b8251811015610bb4576000838281518110610ade57610ade6132a6565b60200260200101519050610bab6040518060e00160405280306001600160a01b031681526020018c60200151151581526020018c60400151815260200160001515815260200160011515815260200183815260200185815250620a2c2a6012805480602002602001604051908101604052809291908181526020018280548015610b9157602002820191906000526020600020905b81546001600160a01b03168152600190910190602001808311610b73575b50506004546001600160a01b031692503091506118f19050565b50600101610ac1565b505050505050505050565b610bc7611b3e565b610bd16000611b98565b565b6000610bde81611140565b610be9600083611bea565b610bf282611b98565b61063c6000336111d0565b7f8d1089725c0dc266707fa6207730fb801dcd03108bfed7a21099bd303651d2b761021181611140565b60009182526047602090815260408084206001600160a01b0393909316845291905290205460ff1690565b600082815260476020526040902060010154610c6d81611140565b61066583836111d0565b60128181548110610c8757600080fd5b6000918252602090912001546001600160a01b0316905081565b610ca9611b3e565b6001600160a01b038116610d0e5760405162461bcd60e51b815260206004820152602660248201527f4f776e61626c653a206e6577206f776e657220697320746865207a65726f206160448201526564647265737360d01b6064820152608401610629565b610d1781611b98565b50565b42604955610d2733611b98565b610d32600033611bea565b610d17600082611bea565b60608101516001600160a01b0316610d8b5760405162461bcd60e51b8152602060048201526011602482015270696e76616c6964206f72646572206b657960781b6044820152606401610629565b8061012001516001600160401b0316600003610d175760405162461bcd60e51b8152602060048201526011602482015270696e76616c6964206f72646572206b657960781b6044820152606401610629565b610dea8160200151611237565b604082015260608201516001600160a01b0316610e495760405162461bcd60e51b815260206004820152601760248201527f506f736974696f6e4164644d67723a216163636f756e740000000000000000006044820152606401610629565b60105460405163039fcb0560e31b81526001600160a01b0390911690631cfe582890610e79908490600401613796565b60006040518083038186803b158015610e9157600080fd5b505afa158015610ea5573d6000803e3d6000fd5b505050508060200151610ec3576006546001600160a01b0316610ed0565b6005546001600160a01b03165b6001600160a01b03166345824d67610ee784611bf4565b6040516001600160e01b031960e084901b1681526004810191909152600160248201526044016000604051808303816000875af1158015610f2c573d6000803e3d6000fd5b505050506040513d6000823e601f3d908101601f19168201604052610f54919081019061351a565b506001816101a001818151610f6991906137bf565b60ff169052506040810151610f7f908390611c59565b610f8a836001611c97565b610fc9576040518060400160405280601b81526020017f506f736974696f6e4164644d67723a7472696767657261626f76650000000000815250611000565b6040518060400160405280601e81526020017f506f736974696f6e4164644d67723a6d61726b657420736c69707061676500008152505b9061101e5760405162461bcd60e51b81526004016106299190612c47565b508160a001516001600160801b0316816101800151146110905760405162461bcd60e51b815260206004820152602760248201527f506f736974696f6e4164644d67723a20696e73756666696369656e7420636f6c6044820152661b185d195c985b60ca1b6064820152608401610629565b6040805160a08101825283815260208101839052611137918101600360ff16815260408051602081810183526000808352818501929092529282015260128054825181850281018501909352808352620a2c2a9383018282801561111d57602002820191906000526020600020905b81546001600160a01b031681526001909101906020018083116110ff575b50506004546001600160a01b03169250309150611cc99050565b61063c816106e4565b610d178133611e4d565b6111548282610c27565b61063c5760008281526047602090815260408083206001600160a01b03851684529091529020805460ff1916600117905561118c3390565b6001600160a01b0316816001600160a01b0316837f2f8788117e7eff1d82e926ec794901d17c78024a50270940304540a733656f0d60405160405180910390a45050565b6111da8282610c27565b1561063c5760008281526047602090815260408083206001600160a01b0385168085529252808320805460ff1916905551339285917ff6391f5c32d9c69d2a47ea670b442974b53935d1edc7fd64eb21e047a839171b9190a45050565b6009546002546040516303b6b4bb60e51b81526001600160a01b0391821660048201528315156024820152600092919091169081906376d6976090604401602060405180830381865afa158015611292573d6000803e3d6000fd5b505050506040513d601f19601f820116820180604052508101906112b691906137d8565b9150600082116112f85760405162461bcd60e51b815260206004820152600d60248201526c216f7261636c6520707269636560981b6044820152606401610629565b50919050565b60035460085460009161131d916001600160a01b039182169116611ea6565b308352600854604051634151026360e01b81526000916001600160a01b031690634151026390611353908790879060040161389a565b600060405180830381865afa158015611370573d6000803e3d6000fd5b505050506040513d6000823e601f3d908101601f1916820160405261139891908101906138be565b905060006113a582611f7c565b60a08601519091501561141b5760005460405163fc54d91d60e01b81526001600160a01b039091169063fc54d91d906113e69088908890879060040161394e565b60006040518083038186803b1580156113fe57600080fd5b505afa158015611412573d6000803e3d6000fd5b505050506114b5565b6000546001600160a01b031660a0850151610180870151608087015160405163393ab2bd60e21b8152600260048201526024810193909352604483019190915260648201526000608482015260a481018390526001600160a01b03919091169063e4eacaf49060c40160006040518083038186803b15801561149c57600080fd5b505afa1580156114b0573d6000803e3d6000fd5b505050505b60085460208601516040516334f32e2560e01b815230600482015290151560248201526000916001600160a01b0316906334f32e2590604401602060405180830381865afa15801561150b573d6000803e3d6000fd5b505050506040513d601f19601f8201168201806040525081019061152f91906137d8565b905081611540876101800151611fc2565b61154a9190613984565b9350611557868583612030565b5061156a8660800151876020015161237c565b61157382612488565b60085460808701516004805460405163e50f19ef60e01b81526001600160a01b039485169463e50f19ef946115b0949093909116918991016139ab565b600060405180830381600087803b1580156115ca57600080fd5b505af11580156115de573d6000803e3d6000fd5b50506040805160c08101825289815260208082018a90528183018890526004546001600160a01b03908116606084015260025416608083015260a08201899052601280548451818402810184019095528085526116949650929450620a2c2a9392909183018282801561167a57602002820191906000526020600020905b81546001600160a01b0316815260019091019060200180831161165c575b50506004546001600160a01b031692503091506126089050565b50505092915050565b6000805482151582526007602090815260408084208480529091528220546001600160a01b039182169163e82956c0911660405163350cffdd60e11b81526001600160a01b0387811660048301529190911690636a19ffba90602401602060405180830381865afa158015611716573d6000803e3d6000fd5b505050506040513d601f19601f8201168201806040525081019061173a91906137d8565b6040518263ffffffff1660e01b815260040161175891815260200190565b602060405180830381865afa158015611775573d6000803e3d6000fd5b505050506040513d601f19601f8201168201806040525081019061179991906139d7565b9392505050565b60006001826101c001515110156117b857600061053f565b816101c001516000815181106117d0576117d06132a6565b602002602001015192915050565b60006002826101c001515110156117f657600061053f565b816101c001516001815181106117d0576117d06132a6565b611816612b2e565b611821816000612789565b308152602080860180511515918301919091525161183f9015611237565b60408201526001608082015261014085015160a082015161186c916001600160401b031661016090910152565b608085015160a080830180516001600160a01b03909316606090930192909252860151905161189a916127b6565b60a081810180516000920191909152602086015190516118bf911515841515146127d4565b60a0810180516001600160801b0390941660e09094019390935261016090940151915161018001919091525090919050565b6040516370a0823160e01b81526001600160a01b038281166004830152600091908416906370a0823190602401602060405180830381865afa15801561193b573d6000803e3d6000fd5b505050506040513d601f19601f8201168201806040525081019061195f91906137d8565b905060005b8451811015611a755784818151811061197f5761197f6132a6565b60200260200101516001600160a01b031663612c39b76040518163ffffffff1660e01b8152600401606060405180830381865afa1580156119c4573d6000803e3d6000fd5b505050506040513d601f19601f820116820180604052508101906119e891906139f4565b6020015115611a6357848181518110611a0357611a036132a6565b60200260200101516001600160a01b031663cce9a2f3886040518263ffffffff1660e01b8152600401611a369190613a65565b600060405180830381600087803b158015611a5057600080fd5b505af1925050508015611a61575060015b505b80611a6d81613a78565b915050611964565b506040516370a0823160e01b81526001600160a01b038381166004830152600091908516906370a0823190602401602060405180830381865afa158015611ac0573d6000803e3d6000fd5b505050506040513d601f19601f82011682018060405250810190611ae491906137d8565b9050818114611b355760405162461bcd60e51b815260206004820152601b60248201527f455243323020746f6b656e2062616c616e6365206368616e67656400000000006044820152606401610629565b50505050505050565b6048546001600160a01b03163314610bd15760405162461bcd60e51b815260206004820181905260248201527f4f776e61626c653a2063616c6c6572206973206e6f7420746865206f776e65726044820152606401610629565b604880546001600160a01b038381166001600160a01b0319831681179093556040519116919082907f8be0079c531659141344cd1fd0a4f28419497f9722a3daafe3b4186f6b6457e090600090a35050565b61063c828261114a565b60008160600151826101200151604051602001611c3c92919060609290921b6bffffffffffffffffffffffff1916825260c01b6001600160c01b0319166014820152601c0190565b604051602081830303815290604052805190602001209050919050565b6000611c64836127f2565b15611c80575060e08201516001600160801b031681101561053f565b5060e08201516001600160801b031681111561053f565b60008115611cb45750608082015165ffffffffffff16151561053f565b505061010001516001600160801b0316151590565b6040516370a0823160e01b81526001600160a01b038281166004830152600091908416906370a0823190602401602060405180830381865afa158015611d13573d6000803e3d6000fd5b505050506040513d601f19601f82011682018060405250810190611d3791906137d8565b905060005b8451811015611a7557848181518110611d5757611d576132a6565b60200260200101516001600160a01b031663612c39b76040518163ffffffff1660e01b8152600401606060405180830381865afa158015611d9c573d6000803e3d6000fd5b505050506040513d601f19601f82011682018060405250810190611dc091906139f4565b6040015115611e3b57848181518110611ddb57611ddb6132a6565b60200260200101516001600160a01b031663718cb58a886040518263ffffffff1660e01b8152600401611e0e9190613a91565b600060405180830381600087803b158015611e2857600080fd5b505af1925050508015611e39575060015b505b80611e4581613a78565b915050611d3c565b611e578282610c27565b61063c57611e6481612896565b611e6f8360206128a8565b604051602001611e80929190613b05565b60408051601f198184030181529082905262461bcd60e51b825261062991600401612c47565b600080836001600160a01b0316638749694a6040518163ffffffff1660e01b81526004016040805180830381865afa158015611ee6573d6000803e3d6000fd5b505050506040513d601f19601f82011682018060405250810190611f0a9190613b7a565b60405163c6f83ad160e01b8152306004820152602481018390526044810182905291935091506001600160a01b0384169063c6f83ad190606401600060405180830381600087803b158015611f5e57600080fd5b505af1158015611f72573d6000803e3d6000fd5b5050505050505050565b6000805b82518110156112f857828181518110611f9b57611f9b6132a6565b602002602001015182611fae9190613b9e565b915080611fba81613a78565b915050611f80565b60006001600160ff1b0382111561202c5760405162461bcd60e51b815260206004820152602860248201527f53616665436173743a2076616c756520646f65736e27742066697420696e2061604482015267371034b73a191a9b60c11b6064820152608401610629565b5090565b6120ae60405180610180016040528060006001600160a01b03168152602001600015158152602001600063ffffffff16815260200160006001600160d81b0316815260200160008152602001600081526020016000815260200160008152602001600081526020016000815260200160008152602001600081525090565b60a08401511580156120c05750600083125b1561217f5760035460808501516001600160a01b039091169063e62c0edf906120e886613bc6565b60a088015160208901516040516001600160e01b031960e087901b1681526001600160a01b03909416600485015260248401929092526044830152606482018690521515608482015260a401610180604051808303816000875af1158015612154573d6000803e3d6000fd5b505050506040513d601f19601f8201168201806040525081019061217891906131f0565b90506122ff565b600c5460a0850151600480546040805163313ce56760e01b815290516001600160a01b039586169563c6aee618956122069590949091169263313ce56792818301926020928290030181865afa1580156121dd573d6000803e3d6000fd5b505050506040513d601f19601f820116820180604052508101906122019190613be2565b612a43565b6040518263ffffffff1660e01b815260040161222491815260200190565b600060405180830381600087803b15801561223e57600080fd5b505af1158015612252573d6000803e3d6000fd5b5050600354608087015160a08801516040808a015160208b0151915163f115e8b560e01b81526001600160a01b039485166004820152602481018b90526044810193909352606483015260848201889052151560a48201529116925063f115e8b5915060c401610180604051808303816000875af11580156122d8573d6000803e3d6000fd5b505050506040513d601f19601f820116820180604052508101906122fc91906131f0565b90505b6000546001600160a01b0316608082015160a083015160405163056b460360e31b8152600481019290925260248201526001600160a01b039190911690632b5a30189060440160006040518083038186803b15801561235d57600080fd5b505afa158015612371573d6000803e3d6000fd5b505050509392505050565b6000546003546008546001600160a01b0392831692631f21756a92869230928792811691166123ab8315611237565b60405160e088901b6001600160e01b03191681526001600160a01b039687166004820152948616602486015292151560448501529084166064840152909216608482015260a481019190915260c401602060405180830381865afa158015612417573d6000803e3d6000fd5b505050506040513d601f19601f8201168201806040525081019061243b91906137d8565b1561063c5760405162461bcd60e51b815260206004820152601c60248201527f506f736974696f6e4164644d67723a73686f756c64276e74206c6971000000006044820152606401610629565b6000811215612529576008546004546001600160a01b039182169163d9caed129116306124bf6124ba86600019613bff565b612a73565b6040516001600160e01b031960e086901b1681526001600160a01b0393841660048201529290911660248301526044820152606401600060405180830381600087803b15801561250e57600080fd5b505af1158015612522573d6000803e3d6000fd5b5050505050565b6000811315610d1757600061258761254083612a73565b600480546040805163313ce56760e01b815290516001600160a01b039092169263313ce5679282820192602092908290030181865afa1580156121dd573d6000803e3d6000fd5b6004805460085460405163095ea7b360e01b81526001600160a01b039182169381019390935260248301849052929350919091169063095ea7b3906044016020604051808303816000875af11580156125e4573d6000803e3d6000fd5b505050506040513d601f19601f8201168201806040525081019061066591906139d7565b6040516370a0823160e01b81526001600160a01b038281166004830152600091908416906370a0823190602401602060405180830381865afa158015612652573d6000803e3d6000fd5b505050506040513d601f19601f8201168201806040525081019061267691906137d8565b905060005b8451811015611a7557848181518110612696576126966132a6565b60200260200101516001600160a01b031663612c39b76040518163ffffffff1660e01b8152600401606060405180830381865afa1580156126db573d6000803e3d6000fd5b505050506040513d601f19601f820116820180604052508101906126ff91906139f4565b511561277757848181518110612717576127176132a6565b60200260200101516001600160a01b03166340a542fe886040518263ffffffff1660e01b815260040161274a9190613c2f565b600060405180830381600087803b15801561276457600080fd5b505af1925050508015612775575060015b505b8061278181613a78565b91505061267b565b60408051600380825260808201909252906020820160608036833750505060c08301521515606090910152565b6127bf81612ac5565b6001600160801b031660c09092019190915250565b806127e05760026127e3565b60015b60ff1660409092019190915250565b6000816040015160ff1660000361284b5760405162461bcd60e51b815260206004820152601b60248201527f696e76616c6964206f7264657220747269676765722061626f766500000000006044820152606401610629565b6002826040015161285c9190613cca565b60ff1660010361286e57506001919050565b6002826040015161287f9190613cca565b60ff1660000361289157506000919050565b919050565b606061053f6001600160a01b03831660145b606060006128b7836002613cec565b6128c2906002613d03565b6001600160401b038111156128d9576128d9612c5a565b6040519080825280601f01601f191660200182016040528015612903576020820181803683370190505b509050600360fc1b8160008151811061291e5761291e6132a6565b60200101906001600160f81b031916908160001a905350600f60fb1b8160018151811061294d5761294d6132a6565b60200101906001600160f81b031916908160001a9053506000612971846002613cec565b61297c906001613d03565b90505b60018111156129f4576f181899199a1a9b1b9c1cb0b131b232b360811b85600f16601081106129b0576129b06132a6565b1a60f81b8282815181106129c6576129c66132a6565b60200101906001600160f81b031916908160001a90535060049490941c936129ed81613d16565b905061297f565b5083156117995760405162461bcd60e51b815260206004820181905260248201527f537472696e67733a20686578206c656e67746820696e73756666696369656e746044820152606401610629565b6000612a516012600a613e11565b612a5f60ff8416600a613e20565b612a699085613cec565b6117999190613e2c565b60008082121561202c5760405162461bcd60e51b815260206004820181905260248201527f53616665436173743a2076616c7565206d75737420626520706f7369746976656044820152606401610629565b60006001600160801b0382111561202c5760405162461bcd60e51b815260206004820152602760248201527f53616665436173743a2076616c756520646f65736e27742066697420696e20316044820152663238206269747360c81b6064820152608401610629565b6040805160e08082018352600080835260208084018290528385018290526060808501839052608080860184905286516101a081018852848152928301849052958201839052810182905293840181905260a084810182905260c0850182905291840181905261010084018190526101208401819052610140840181905261016084018190526101808401529091908201908152602001606081525090565b600060208284031215612bdf57600080fd5b81356001600160e01b03198116811461179957600080fd5b60005b83811015612c12578181015183820152602001612bfa565b50506000910152565b60008151808452612c33816020860160208601612bf7565b601f01601f19169290920160200192915050565b6020815260006117996020830184612c1b565b634e487b7160e01b600052604160045260246000fd5b6040516101e081016001600160401b0381118282101715612c9357612c93612c5a565b60405290565b6040516101a081016001600160401b0381118282101715612c9357612c93612c5a565b60405161018081016001600160401b0381118282101715612c9357612c93612c5a565b604051601f8201601f191681016001600160401b0381118282101715612d0757612d07612c5a565b604052919050565b60ff81168114610d1757600080fd5b803561289181612d0f565b63ffffffff81168114610d1757600080fd5b803561289181612d29565b6001600160a01b0381168114610d1757600080fd5b803561289181612d46565b65ffffffffffff81168114610d1757600080fd5b803561289181612d66565b6001600160801b0381168114610d1757600080fd5b803561289181612d85565b6001600160401b0381168114610d1757600080fd5b803561289181612da5565b8015158114610d1757600080fd5b803561289181612dc5565b60006001600160401b03821115612df757612df7612c5a565b5060051b60200190565b600082601f830112612e1257600080fd5b81356020612e27612e2283612dde565b612cdf565b82815260059290921b84018101918181019086841115612e4657600080fd5b8286015b84811015612e615780358352918301918301612e4a565b509695505050505050565b60006101e08284031215612e7f57600080fd5b612e87612c70565b9050612e9282612d5b565b8152612ea060208301612dd3565b602082015260408201356040820152612ebb60608301612dd3565b6060820152612ecc60808301612d5b565b608082015260a082013560a082015260c082013560c082015260e082013560e0820152610100612efd818401612dd3565b90820152610120612f0f838201612d1e565b90820152610140612f21838201612dba565b90820152610160828101359082015261018080830135908201526101a0612f49818401612d1e565b908201526101c0828101356001600160401b03811115612f6857600080fd5b612f7485828601612e01565b82840152505092915050565b6000808284036101c0811215612f9557600080fd5b6101a080821215612fa557600080fd5b612fad612c99565b9150612fb885612d1e565b8252612fc660208601612d3b565b6020830152612fd760408601612d1e565b6040830152612fe860608601612d5b565b6060830152612ff960808601612d7a565b608083015261300a60a08601612d9a565b60a083015261301b60c08601612d9a565b60c083015261302c60e08601612d9a565b60e083015261010061303f818701612d9a565b90830152610120613051868201612dba565b90830152610140613063868201612dba565b90830152610160613075868201612d9a565b9083015261018085810135908301529092508301356001600160401b0381111561309e57600080fd5b6130aa85828601612e6c565b9150509250929050565b6000602082840312156130c657600080fd5b5035919050565b600080604083850312156130e057600080fd5b8235915060208301356130f281612d46565b809150509250929050565b60006020828403121561310f57600080fd5b81356001600160401b0381111561312557600080fd5b61313184828501612e6c565b949350505050565b60006020828403121561314b57600080fd5b813561179981612d46565b6000806040838503121561316957600080fd5b823561317481612dc5565b915060208301356130f281612dc5565b600181811c9082168061319857607f821691505b6020821081036112f857634e487b7160e01b600052602260045260246000fd5b805161289181612d46565b805161289181612dc5565b805161289181612d29565b80516001600160d81b038116811461289157600080fd5b6000610180828403121561320357600080fd5b61320b612cbc565b613214836131b8565b8152613222602084016131c3565b6020820152613233604084016131ce565b6040820152613244606084016131d9565b60608201526080838101519082015260a0808401519082015260c0808401519082015260e08084015190820152610100808401519082015261012080840151908201526101408084015190820152610160928301519281019290925250919050565b634e487b7160e01b600052603260045260246000fd5b805160ff16825260208101516132da602084018263ffffffff169052565b5060408101516132ef604084018260ff169052565b50606081015161330a60608401826001600160a01b03169052565b506080810151613324608084018265ffffffffffff169052565b5060a081015161333f60a08401826001600160801b03169052565b5060c081015161335a60c08401826001600160801b03169052565b5060e081015161337560e08401826001600160801b03169052565b50610100818101516001600160801b038116848301525050610120818101516001600160401b038116848301525050610140818101516001600160401b038116848301525050610160818101516001600160801b03811684830152505061018090810151910152565b600081518084526020808501945080840160005b8381101561340e578151875295820195908201906001016133f2565b509495945050505050565b600061026060018060a01b0383511684526020830151151560208501526040830151604085015260608301511515606085015260808301511515608085015260a083015161346a60a08601826132bc565b5060c083015181610240860152613483828601826133de565b95945050505050565b6000602080830181845280855180835260408601915060408160051b870101925083870160005b828110156134e157603f198886030184526134cf858351613419565b945092850192908501906001016134b3565b5092979650505050505050565b805161289181612d0f565b805161289181612d66565b805161289181612d85565b805161289181612da5565b6000602080838503121561352d57600080fd5b82516001600160401b0381111561354357600080fd5b8301601f8101851361355457600080fd5b8051613562612e2282612dde565b8181526101a0918202830184019184820191908884111561358257600080fd5b938501935b838510156136895780858a03121561359f5760008081fd5b6135a7612c99565b6135b0866134ee565b81526135bd8787016131ce565b8782015260406135ce8188016134ee565b9082015260606135df8782016131b8565b9082015260806135f08782016134f9565b9082015260a0613601878201613504565b9082015260c0613612878201613504565b9082015260e0613623878201613504565b90820152610100613635878201613504565b9082015261012061364787820161350f565b9082015261014061365987820161350f565b9082015261016061366b878201613504565b90820152610180868101519082015283529384019391850191613587565b50979650505050505050565b80516001600160a01b0316825260006101e060208301516136ba602086018215159052565b506040830151604085015260608301516136d8606086018215159052565b5060808301516136f360808601826001600160a01b03169052565b5060a083015160a085015260c083015160c085015260e083015160e0850152610100808401516137268287018215159052565b50506101208381015160ff90811691860191909152610140808501516001600160401b031690860152610160808501519086015261018080850151908601526101a080850151909116908501526101c08084015181860183905261378c838701826133de565b9695505050505050565b6020815260006117996020830184613695565b634e487b7160e01b600052601160045260246000fd5b60ff818116838216019081111561053f5761053f6137a9565b6000602082840312156137ea57600080fd5b5051919050565b80516001600160a01b031682526020810151613811602084018215159052565b506040810151613829604084018263ffffffff169052565b50606081015161384460608401826001600160d81b03169052565b506080818101519083015260a0808201519083015260c0808201519083015260e0808201519083015261010080820151908301526101208082015190830152610140808201519083015261016090810151910152565b60006101a08083526138ae81840186613695565b91505061179960208301846137f1565b600060208083850312156138d157600080fd5b82516001600160401b038111156138e757600080fd5b8301601f810185136138f857600080fd5b8051613906612e2282612dde565b81815260059190911b8201830190838101908783111561392557600080fd5b928401925b828410156139435783518252928401929084019061392a565b979650505050505050565b60006101c080835261396281840187613695565b905061397160208401866137f1565b8281036101a084015261378c81856133de565b81810360008312801583831316838312821617156139a4576139a46137a9565b5092915050565b6001600160a01b03848116825283166020820152606060408201819052600090613483908301846133de565b6000602082840312156139e957600080fd5b815161179981612dc5565b600060608284031215613a0657600080fd5b604051606081018181106001600160401b0382111715613a2857613a28612c5a565b6040528251613a3681612dc5565b81526020830151613a4681612dc5565b60208201526040830151613a5981612dc5565b60408201529392505050565b6020815260006117996020830184613419565b600060018201613a8a57613a8a6137a9565b5060010190565b60208152613aa36020820183516132bc565b60006020830151610220806101c0850152613ac2610240850183613695565b915060ff6040860151166101e08501526060850151601f1985840301610200860152613aee8382612c1b565b925050608085015181850152508091505092915050565b7f416363657373436f6e74726f6c3a206163636f756e7420000000000000000000815260008351613b3d816017850160208801612bf7565b7001034b99036b4b9b9b4b733903937b6329607d1b6017918401918201528351613b6e816028840160208801612bf7565b01602801949350505050565b60008060408385031215613b8d57600080fd5b505080516020909101519092909150565b8082018281126000831280158216821582161715613bbe57613bbe6137a9565b505092915050565b6000600160ff1b8201613bdb57613bdb6137a9565b5060000390565b600060208284031215613bf457600080fd5b815161179981612d0f565b80820260008212600160ff1b84141615613c1b57613c1b6137a9565b818105831482151761053f5761053f6137a9565b6020815260008251610220806020850152613c4e610240850183613695565b91506020850151613c6260408601826137f1565b506040850151848303601f19016101c0860152613c7f83826133de565b60608701516001600160a01b039081166101e088015260808801511661020087015260a0909601519190940152509192915050565b634e487b7160e01b600052601260045260246000fd5b600060ff831680613cdd57613cdd613cb4565b8060ff84160691505092915050565b808202811582820484141761053f5761053f6137a9565b8082018082111561053f5761053f6137a9565b600081613d2557613d256137a9565b506000190190565b600181815b80851115613d68578160001904821115613d4e57613d4e6137a9565b80851615613d5b57918102915b93841c9390800290613d32565b509250929050565b600082613d7f5750600161053f565b81613d8c5750600061053f565b8160018114613da25760028114613dac57613dc8565b600191505061053f565b60ff841115613dbd57613dbd6137a9565b50506001821b61053f565b5060208310610133831016604e8410600b8410161715613deb575081810a61053f565b613df58383613d2d565b8060001904821115613e0957613e096137a9565b029392505050565b600061179960ff841683613d70565b60006117998383613d70565b600082613e3b57613e3b613cb4565b50049056fea2646970667358221220e33cc9429b818df576a2abe557e6a74dafbbdd8629771e750b835d4d9cb62d1264736f6c63430008110033",
  "linkReferences": {},
  "deployedLinkReferences": {}
}