{
  "_format": "hh-sol-artifact-1",
  "contractName": "PositionAddMgr",
  "sourceName": "contracts/market/PositionAddMgr.sol",
  "abi": [
    {
      "inputs": [],
      "stateMutability": "nonpayable",
      "type": "constructor"
    },
    {
      "anonymous": false,
      "inputs": [
        {
          "indexed": false,
          "internalType": "uint8",
          "name": "version",
          "type": "uint8"
        }
      ],
      "name": "Initialized",
      "type": "event"
    },
    {
      "inputs": [],
      "name": "DEFAULT_ADMIN_ROLE",
      "outputs": [
        {
          "internalType": "bytes32",
          "name": "",
          "type": "bytes32"
        }
      ],
      "stateMutability": "view",
      "type": "function"
    },
    {
      "inputs": [
        {
          "internalType": "address",
          "name": "newOwner",
          "type": "address"
        }
      ],
      "name": "_transferOwnership",
      "outputs": [],
      "stateMutability": "pure",
      "type": "function"
    },
    {
      "inputs": [],
      "name": "collateralToken",
      "outputs": [
        {
          "internalType": "address",
          "name": "",
          "type": "address"
        }
      ],
      "stateMutability": "view",
      "type": "function"
    },
    {
      "inputs": [],
      "name": "collateralTokenDigits",
      "outputs": [
        {
          "internalType": "uint8",
          "name": "",
          "type": "uint8"
        }
      ],
      "stateMutability": "view",
      "type": "function"
    },
    {
      "inputs": [
        {
          "components": [
            {
              "internalType": "uint8",
              "name": "version",
              "type": "uint8"
            },
            {
              "internalType": "uint32",
              "name": "updatedAtBlock",
              "type": "uint32"
            },
            {
              "internalType": "uint8",
              "name": "triggerAbove",
              "type": "uint8"
            },
            {
              "internalType": "address",
              "name": "account",
              "type": "address"
            },
            {
              "internalType": "uint48",
              "name": "extra3",
              "type": "uint48"
            },
            {
              "internalType": "uint128",
              "name": "collateral",
              "type": "uint128"
            },
            {
              "internalType": "uint128",
              "name": "size",
              "type": "uint128"
            },
            {
              "internalType": "uint128",
              "name": "price",
              "type": "uint128"
            },
            {
              "internalType": "uint128",
              "name": "extra1",
              "type": "uint128"
            },
            {
              "internalType": "uint64",
              "name": "orderID",
              "type": "uint64"
            },
            {
              "internalType": "uint64",
              "name": "extra2",
              "type": "uint64"
            },
            {
              "internalType": "uint128",
              "name": "extra0",
              "type": "uint128"
            },
            {
              "internalType": "bytes32",
              "name": "refCode",
              "type": "bytes32"
            }
          ],
          "internalType": "struct Order.Props",
          "name": "exeOrder",
          "type": "tuple"
        },
        {
          "components": [
            {
              "internalType": "address",
              "name": "_market",
              "type": "address"
            },
            {
              "internalType": "bool",
              "name": "_isLong",
              "type": "bool"
            },
            {
              "internalType": "uint256",
              "name": "_oraclePrice",
              "type": "uint256"
            },
            {
              "internalType": "bool",
              "name": "isOpen",
              "type": "bool"
            },
            {
              "internalType": "address",
              "name": "_account",
              "type": "address"
            },
            {
              "internalType": "uint256",
              "name": "_sizeDelta",
              "type": "uint256"
            },
            {
              "internalType": "uint256",
              "name": "_price",
              "type": "uint256"
            },
            {
              "internalType": "uint256",
              "name": "_slippage",
              "type": "uint256"
            },
            {
              "internalType": "bool",
              "name": "_isExec",
              "type": "bool"
            },
            {
              "internalType": "uint8",
              "name": "liqState",
              "type": "uint8"
            },
            {
              "internalType": "uint64",
              "name": "_fromOrder",
              "type": "uint64"
            },
            {
              "internalType": "bytes32",
              "name": "_refCode",
              "type": "bytes32"
            },
            {
              "internalType": "uint256",
              "name": "collateralDelta",
              "type": "uint256"
            },
            {
              "internalType": "uint8",
              "name": "execNum",
              "type": "uint8"
            },
            {
              "internalType": "uint256[]",
              "name": "inputs",
              "type": "uint256[]"
            }
          ],
          "internalType": "struct MarketDataTypes.UpdatePositionInputs",
          "name": "_params",
          "type": "tuple"
        }
      ],
      "name": "execOrderKey",
      "outputs": [],
      "stateMutability": "nonpayable",
      "type": "function"
    },
    {
      "inputs": [],
      "name": "feeRouter",
      "outputs": [
        {
          "internalType": "contract IFeeRouter",
          "name": "",
          "type": "address"
        }
      ],
      "stateMutability": "view",
      "type": "function"
    },
    {
      "inputs": [],
      "name": "globalValid",
      "outputs": [
        {
          "internalType": "address",
          "name": "",
          "type": "address"
        }
      ],
      "stateMutability": "view",
      "type": "function"
    },
    {
      "inputs": [
        {
          "internalType": "address",
          "name": "_account",
          "type": "address"
        }
      ],
      "name": "grantControllerRoleByMarketManager",
      "outputs": [],
      "stateMutability": "nonpayable",
      "type": "function"
    },
    {
      "inputs": [
        {
          "internalType": "bytes32",
          "name": "role",
          "type": "bytes32"
        },
        {
          "internalType": "address",
          "name": "account",
          "type": "address"
        }
      ],
      "name": "grantRole",
      "outputs": [],
      "stateMutability": "pure",
      "type": "function"
    },
    {
      "inputs": [
        {
          "internalType": "bytes32",
          "name": "role",
          "type": "bytes32"
        },
        {
          "internalType": "address",
          "name": "account",
          "type": "address"
        }
      ],
      "name": "hasRole",
      "outputs": [
        {
          "internalType": "bool",
          "name": "",
          "type": "bool"
        }
      ],
      "stateMutability": "pure",
      "type": "function"
    },
    {
      "inputs": [
        {
          "components": [
            {
              "internalType": "address",
              "name": "_market",
              "type": "address"
            },
            {
              "internalType": "bool",
              "name": "_isLong",
              "type": "bool"
            },
            {
              "internalType": "uint256",
              "name": "_oraclePrice",
              "type": "uint256"
            },
            {
              "internalType": "bool",
              "name": "isOpen",
              "type": "bool"
            },
            {
              "internalType": "address",
              "name": "_account",
              "type": "address"
            },
            {
              "internalType": "uint256",
              "name": "_sizeDelta",
              "type": "uint256"
            },
            {
              "internalType": "uint256",
              "name": "_price",
              "type": "uint256"
            },
            {
              "internalType": "uint256",
              "name": "_slippage",
              "type": "uint256"
            },
            {
              "internalType": "bool",
              "name": "_isExec",
              "type": "bool"
            },
            {
              "internalType": "uint8",
              "name": "liqState",
              "type": "uint8"
            },
            {
              "internalType": "uint64",
              "name": "_fromOrder",
              "type": "uint64"
            },
            {
              "internalType": "bytes32",
              "name": "_refCode",
              "type": "bytes32"
            },
            {
              "internalType": "uint256",
              "name": "collateralDelta",
              "type": "uint256"
            },
            {
              "internalType": "uint8",
              "name": "execNum",
              "type": "uint8"
            },
            {
              "internalType": "uint256[]",
              "name": "inputs",
              "type": "uint256[]"
            }
          ],
          "internalType": "struct MarketDataTypes.UpdatePositionInputs",
          "name": "_inputs",
          "type": "tuple"
        }
      ],
      "name": "increasePositionWithOrders",
      "outputs": [],
      "stateMutability": "nonpayable",
      "type": "function"
    },
    {
      "inputs": [],
      "name": "indexToken",
      "outputs": [
        {
          "internalType": "address",
          "name": "",
          "type": "address"
        }
      ],
      "stateMutability": "view",
      "type": "function"
    },
    {
      "inputs": [],
      "name": "marketRouter",
      "outputs": [
        {
          "internalType": "address",
          "name": "",
          "type": "address"
        }
      ],
      "stateMutability": "view",
      "type": "function"
    },
    {
      "inputs": [],
      "name": "marketValid",
      "outputs": [
        {
          "internalType": "address",
          "name": "",
          "type": "address"
        }
      ],
      "stateMutability": "view",
      "type": "function"
    },
    {
      "inputs": [],
      "name": "name",
      "outputs": [
        {
          "internalType": "string",
          "name": "",
          "type": "string"
        }
      ],
      "stateMutability": "view",
      "type": "function"
    },
    {
      "inputs": [],
      "name": "orderBookLong",
      "outputs": [
        {
          "internalType": "contract IOrderBook",
          "name": "",
          "type": "address"
        }
      ],
      "stateMutability": "view",
      "type": "function"
    },
    {
      "inputs": [],
      "name": "orderBookShort",
      "outputs": [
        {
          "internalType": "contract IOrderBook",
          "name": "",
          "type": "address"
        }
      ],
      "stateMutability": "view",
      "type": "function"
    },
    {
      "inputs": [],
      "name": "orderMgr",
      "outputs": [
        {
          "internalType": "address",
          "name": "",
          "type": "address"
        }
      ],
      "stateMutability": "view",
      "type": "function"
    },
    {
      "inputs": [
        {
          "internalType": "bool",
          "name": "isLong",
          "type": "bool"
        },
        {
          "internalType": "bool",
          "name": "isOpen",
          "type": "bool"
        }
      ],
      "name": "orderStore",
      "outputs": [
        {
          "internalType": "contract IOrderStore",
          "name": "",
          "type": "address"
        }
      ],
      "stateMutability": "view",
      "type": "function"
    },
    {
      "inputs": [],
      "name": "pluginGasLimit",
      "outputs": [
        {
          "internalType": "uint256",
          "name": "",
          "type": "uint256"
        }
      ],
      "stateMutability": "view",
      "type": "function"
    },
    {
      "inputs": [
        {
          "internalType": "uint256",
          "name": "",
          "type": "uint256"
        }
      ],
      "name": "plugins",
      "outputs": [
        {
          "internalType": "address",
          "name": "",
          "type": "address"
        }
      ],
      "stateMutability": "view",
      "type": "function"
    },
    {
      "inputs": [],
      "name": "positionAddMgr",
      "outputs": [
        {
          "internalType": "address",
          "name": "",
          "type": "address"
        }
      ],
      "stateMutability": "view",
      "type": "function"
    },
    {
      "inputs": [],
      "name": "positionBook",
      "outputs": [
        {
          "internalType": "contract IPositionBook",
          "name": "",
          "type": "address"
        }
      ],
      "stateMutability": "view",
      "type": "function"
    },
    {
      "inputs": [],
      "name": "positionStoreLong",
      "outputs": [
        {
          "internalType": "address",
          "name": "",
          "type": "address"
        }
      ],
      "stateMutability": "view",
      "type": "function"
    },
    {
      "inputs": [],
      "name": "positionStoreShort",
      "outputs": [
        {
          "internalType": "address",
          "name": "",
          "type": "address"
        }
      ],
      "stateMutability": "view",
      "type": "function"
    },
    {
      "inputs": [],
      "name": "positionSubMgr",
      "outputs": [
        {
          "internalType": "address",
          "name": "",
          "type": "address"
        }
      ],
      "stateMutability": "view",
      "type": "function"
    },
    {
      "inputs": [],
      "name": "priceFeed",
      "outputs": [
        {
          "internalType": "address",
          "name": "",
          "type": "address"
        }
      ],
      "stateMutability": "view",
      "type": "function"
    },
    {
      "inputs": [
        {
          "internalType": "bytes32",
          "name": "role",
          "type": "bytes32"
        },
        {
          "internalType": "address",
          "name": "account",
          "type": "address"
        }
      ],
      "name": "revokeRole",
      "outputs": [],
      "stateMutability": "pure",
      "type": "function"
    },
    {
      "inputs": [
        {
          "internalType": "address",
          "name": "to",
          "type": "address"
        }
      ],
      "name": "transferAdmin",
      "outputs": [],
      "stateMutability": "nonpayable",
      "type": "function"
    },
    {
      "inputs": [
        {
          "internalType": "address",
          "name": "newOwner",
          "type": "address"
        }
      ],
      "name": "transferOwnership",
      "outputs": [],
      "stateMutability": "pure",
      "type": "function"
    },
    {
      "inputs": [],
      "name": "vaultRouter",
      "outputs": [
        {
          "internalType": "address",
          "name": "",
          "type": "address"
        }
      ],
      "stateMutability": "view",
      "type": "function"
    }
  ],
  "bytecode": "0x60806040523480156200001157600080fd5b506000600160468190555062000032816200003960201b62000a9b1760201c565b5062000048565b42604855620000453381565b50565b61388080620000586000396000f3fe608060405234801561001057600080fd5b50600436106101e55760003560e01c8063a217fddf1161010f578063d29d44ee116100a2578063e7d015f211610071578063e7d015f214610431578063f0a317eb14610444578063f29ebf6114610457578063f2fde38b146103fa57600080fd5b8063d29d44ee146103fa578063d37c441c1461040b578063d49ff78d1461041e578063d547741f1461026f57600080fd5b8063b21dc9cb116100de578063b21dc9cb146103a2578063b894300d146103c1578063c54dc3d6146103d4578063d12dbde4146103e757600080fd5b8063a217fddf1461033c578063a264045414610344578063ac0b05a61461037c578063b2016bd41461038f57600080fd5b806345ccf5c5116101875780637fe4a698116101565780637fe4a698146102e05780638a6ca35d146102f357806391d1485414610306578063a0cbf50c1461032957600080fd5b806345ccf5c514610294578063741bef1a146102a757806375829def146102ba5780637b2fd1e5146102cd57600080fd5b806307e87545116101c357806307e875451461024757806312de276c1461025a5780632f2ff15d1461026f5780633bdef83a1461028157600080fd5b806303deb029146101ea57806305ba9ae91461020757806306fdde0314610232575b600080fd5b6101f4620a2c2a81565b6040519081526020015b60405180910390f35b60065461021a906001600160a01b031681565b6040516001600160a01b0390911681526020016101fe565b61023a61046a565b6040516101fe91906126a0565b600a5461021a906001600160a01b031681565b61026d6102683660046129d9565b6104f8565b005b61026d61027d366004612b0d565b5050565b61026d61028f366004612b3d565b610561565b600b5461021a906001600160a01b031681565b60095461021a906001600160a01b031681565b61026d6102c8366004612b79565b610a5d565b60055461021a906001600160a01b031681565b61026d6102ee366004612b79565b610408565b600e5461021a906001600160a01b031681565b610319610314366004612b0d565b610a68565b60405190151581526020016101fe565b600f5461021a906001600160a01b031681565b6101f4600081565b61021a610352366004612b96565b9015156000908152600760209081526040808320931515835292905220546001600160a01b031690565b60035461021a906001600160a01b031681565b60045461021a906001600160a01b031681565b6013546103af9060ff1681565b60405160ff90911681526020016101fe565b60005461021a906001600160a01b031681565b60015461021a906001600160a01b031681565b60105461021a906001600160a01b031681565b61026d610408366004612b79565b50565b600c5461021a906001600160a01b031681565b600d5461021a906001600160a01b031681565b60025461021a906001600160a01b031681565b61021a610452366004612bc4565b610a71565b60085461021a906001600160a01b031681565b6011805461047790612bdd565b80601f01602080910402602001604051908101604052809291908181526020018280546104a390612bdd565b80156104f05780601f106104c5576101008083540402835291602001916104f0565b820191906000526020600020905b8154815290600101906020018083116104d357829003601f168201915b505050505081565b61050182610aa2565b80606001516105575760405162461bcd60e51b815260206004820152601d60248201527f506f736974696f6e4164644d67723a696e76616c69642069736f70656e00000060448201526064015b60405180910390fd5b61027d8282610b42565b60005461018082015160405163015fc61360e01b815260048101919091526001600160a01b039091169063015fc6139060240160006040518083038186803b1580156105ac57600080fd5b505afa1580156105c0573d6000803e3d6000fd5b505050508060e0015160001480156105e457506101408101516001600160401b0316155b156105f157601e60e08201525b6105fe8160200151610ea5565b6040820152600354608082015160a08301516000926001600160a01b03169163bc95baad9115610632578460400151610635565b60005b60208601516040516001600160e01b031960e086901b1681526001600160a01b03909316600484015260248301919091521515604482015260640161018060405180830381865afa15801561068e573d6000803e3d6000fd5b505050506040513d601f19601f820116820180604052508101906106b29190612c49565b905060006106c08383610f6c565b905060008112156106cf575060005b6106e1836080015184602001516112af565b15806106ef575060a0830151155b156106f957505050565b6000610704846113b2565b1580159061073a5750836020015115158460c00151610722866113b2565b11148061073a57508360c00151610738856113b2565b145b90506000610747856113f0565b1580159061077f5750610759856113f0565b8560c0015111151585602001511515148061077f5750610778856113f0565b8560c00151145b90506060600083801561078f5750825b6107ae57838061079c5750825b6107a75760006107b1565b60016107b1565b60025b60ff16905080156108a657806001600160401b038111156107d4576107d46126b3565b60405190808252806020026020018201604052801561080d57816020015b6107fa6125bb565b8152602001906001900390816107f25790505b50915061083f8761081d87611420565b866108305761082b8a6113f0565b610839565b6108398a6113b2565b87611476565b8260008151811061085257610852612cff565b6020026020010181905250806002036108a1576108828761087287611420565b61087b8a6113f0565b6000611476565b8260018151811061089557610895612cff565b60200260200101819052505b6108af565b50505050505050565b600087602001516108cb576006546001600160a01b03166108d8565b6005546001600160a01b03165b6001600160a01b031663b398a842846040518263ffffffff1660e01b81526004016109039190612ee5565b6000604051808303816000875af1158015610922573d6000803e3d6000fd5b505050506040513d6000823e601f3d908101601f1916820160405261094a9190810190612f73565b604080516000808252602082019092529192505b8251811015610a5157600083828151811061097b5761097b612cff565b60200260200101519050610a486040518060e00160405280306001600160a01b031681526020018d60200151151581526020018d60400151815260200160001515815260200160011515815260200183815260200185815250620a2c2a6012805480602002602001604051908101604052809291908181526020018280548015610a2e57602002820191906000526020600020905b81546001600160a01b03168152600190910190602001808311610a10575b50506004546001600160a01b031692503091506115b59050565b5060010161095e565b50505050505050505050565b600061027d60003382565b60015b92915050565b60128181548110610a8157600080fd5b6000918252602090912001546001600160a01b0316905081565b4260485550565b60608101516001600160a01b0316610af05760405162461bcd60e51b8152602060048201526011602482015270696e76616c6964206f72646572206b657960781b604482015260640161054e565b8061012001516001600160401b03166000036104085760405162461bcd60e51b8152602060048201526011602482015270696e76616c6964206f72646572206b657960781b604482015260640161054e565b610b4f8160200151610ea5565b604082015260608201516001600160a01b0316610bae5760405162461bcd60e51b815260206004820152601760248201527f506f736974696f6e4164644d67723a216163636f756e74000000000000000000604482015260640161054e565b60105460405163039fcb0560e31b81526001600160a01b0390911690631cfe582890610bde9084906004016131ef565b60006040518083038186803b158015610bf657600080fd5b505afa158015610c0a573d6000803e3d6000fd5b505050508060200151610c28576006546001600160a01b0316610c35565b6005546001600160a01b03165b6001600160a01b03166345824d67610c4c846117f9565b6040516001600160e01b031960e084901b1681526004810191909152600160248201526044016000604051808303816000875af1158015610c91573d6000803e3d6000fd5b505050506040513d6000823e601f3d908101601f19168201604052610cb99190810190612f73565b506001816101a001818151610cce9190613218565b60ff169052506040810151610ce490839061185e565b610cef83600161189c565b610d2e576040518060400160405280601b81526020017f506f736974696f6e4164644d67723a7472696767657261626f76650000000000815250610d65565b6040518060400160405280601e81526020017f506f736974696f6e4164644d67723a6d61726b657420736c69707061676500008152505b90610d835760405162461bcd60e51b815260040161054e91906126a0565b508160a001516001600160801b031681610180015114610df55760405162461bcd60e51b815260206004820152602760248201527f506f736974696f6e4164644d67723a20696e73756666696369656e7420636f6c6044820152661b185d195c985b60ca1b606482015260840161054e565b6040805160a08101825283815260208101839052610e9c918101600360ff16815260408051602081810183526000808352818501929092529282015260128054825181850281018501909352808352620a2c2a93830182828015610e8257602002820191906000526020600020905b81546001600160a01b03168152600190910190602001808311610e64575b50506004546001600160a01b031692503091506118ce9050565b61027d81610561565b6009546002546040516303b6b4bb60e51b81526001600160a01b0391821660048201528315156024820152600092919091169081906376d6976090604401602060405180830381865afa158015610f00573d6000803e3d6000fd5b505050506040513d601f19601f82011682018060405250810190610f249190613231565b915060008211610f665760405162461bcd60e51b815260206004820152600d60248201526c216f7261636c6520707269636560981b604482015260640161054e565b50919050565b600354600854600091610f8b916001600160a01b039182169116611a52565b308352600854604051634151026360e01b81526000916001600160a01b031690634151026390610fc190879087906004016132f3565b600060405180830381865afa158015610fde573d6000803e3d6000fd5b505050506040513d6000823e601f3d908101601f191682016040526110069190810190613317565b9050600061101382611b28565b60a0860151909150156110895760005460405163fc54d91d60e01b81526001600160a01b039091169063fc54d91d90611054908890889087906004016133a7565b60006040518083038186803b15801561106c57600080fd5b505afa158015611080573d6000803e3d6000fd5b50505050611123565b6000546001600160a01b031660a0850151610180870151608087015160405163393ab2bd60e21b8152600260048201526024810193909352604483019190915260648201526000608482015260a481018390526001600160a01b03919091169063e4eacaf49060c40160006040518083038186803b15801561110a57600080fd5b505afa15801561111e573d6000803e3d6000fd5b505050505b60085460208601516040516334f32e2560e01b815230600482015290151560248201526000916001600160a01b0316906334f32e2590604401602060405180830381865afa158015611179573d6000803e3d6000fd5b505050506040513d601f19601f8201168201806040525081019061119d9190613231565b9050816111ae876101800151611b6e565b6111b891906133dd565b93506111c5868583611bd8565b506111d886608001518760200151611f24565b60808601516004546111f591906001600160a01b03168585612030565b6040805160c08101825287815260208082018890528183018690526004546001600160a01b03908116606084015260025416608083015260a08201879052601280548451818402810184019095528085526112a694620a2c2a939092919083018282801561128c57602002820191906000526020600020905b81546001600160a01b0316815260019091019060200180831161126e575b50506004546001600160a01b031692503091506122129050565b50505092915050565b6000805482151582526007602090815260408084208480529091528220546001600160a01b039182169163e82956c0911660405163350cffdd60e11b81526001600160a01b0387811660048301529190911690636a19ffba90602401602060405180830381865afa158015611328573d6000803e3d6000fd5b505050506040513d601f19601f8201168201806040525081019061134c9190613231565b6040518263ffffffff1660e01b815260040161136a91815260200190565b602060405180830381865afa158015611387573d6000803e3d6000fd5b505050506040513d601f19601f820116820180604052508101906113ab9190613404565b9392505050565b60006001826101c001515110156113ca576000610a6b565b816101c001516000815181106113e2576113e2612cff565b602002602001015192915050565b60006002826101c00151511015611408576000610a6b565b816101c001516001815181106113e2576113e2612cff565b6000808212156114725760405162461bcd60e51b815260206004820181905260248201527f53616665436173743a2076616c7565206d75737420626520706f736974697665604482015260640161054e565b5090565b61147e6125bb565b611489816000612393565b30815260208086018051151591830191909152516114a79015610ea5565b60408201526001608082015261014085015160a08201516114d4916001600160401b031661016090910152565b608085015160a080830180516001600160a01b039093166060909301929092528601519051611502916123c0565b60a080820151600091015281801561151e575061151e856123de565b80611536575081158015611536575061153685612425565b1561156a576115448461245d565b60a080830180516001600160801b0390931692909101919091525161156a9060016124c6565b602085015160a0820151611583911515841515146124e4565b60a0810180516001600160801b0390941660e09094019390935261016090940151915161018001919091525090919050565b6040516370a0823160e01b81526001600160a01b038281166004830152600091908416906370a0823190602401602060405180830381865afa1580156115ff573d6000803e3d6000fd5b505050506040513d601f19601f820116820180604052508101906116239190613231565b905060005b84518110156117395784818151811061164357611643612cff565b60200260200101516001600160a01b031663612c39b76040518163ffffffff1660e01b8152600401606060405180830381865afa158015611688573d6000803e3d6000fd5b505050506040513d601f19601f820116820180604052508101906116ac9190613421565b6020015115611727578481815181106116c7576116c7612cff565b60200260200101516001600160a01b031663cce9a2f3886040518263ffffffff1660e01b81526004016116fa9190613492565b600060405180830381600087803b15801561171457600080fd5b505af1925050508015611725575060015b505b80611731816134a5565b915050611628565b506040516370a0823160e01b81526001600160a01b038381166004830152600091908516906370a0823190602401602060405180830381865afa158015611784573d6000803e3d6000fd5b505050506040513d601f19601f820116820180604052508101906117a89190613231565b90508181146108a65760405162461bcd60e51b815260206004820152601b60248201527f455243323020746f6b656e2062616c616e6365206368616e6765640000000000604482015260640161054e565b6000816060015182610120015160405160200161184192919060609290921b6bffffffffffffffffffffffff1916825260c01b6001600160c01b0319166014820152601c0190565b604051602081830303815290604052805190602001209050919050565b600061186983612502565b15611885575060e08201516001600160801b0316811015610a6b565b5060e08201516001600160801b0316811115610a6b565b600081156118b95750608082015165ffffffffffff161515610a6b565b505061010001516001600160801b0316151590565b6040516370a0823160e01b81526001600160a01b038281166004830152600091908416906370a0823190602401602060405180830381865afa158015611918573d6000803e3d6000fd5b505050506040513d601f19601f8201168201806040525081019061193c9190613231565b905060005b84518110156117395784818151811061195c5761195c612cff565b60200260200101516001600160a01b031663612c39b76040518163ffffffff1660e01b8152600401606060405180830381865afa1580156119a1573d6000803e3d6000fd5b505050506040513d601f19601f820116820180604052508101906119c59190613421565b6040015115611a40578481815181106119e0576119e0612cff565b60200260200101516001600160a01b031663718cb58a886040518263ffffffff1660e01b8152600401611a1391906134be565b600060405180830381600087803b158015611a2d57600080fd5b505af1925050508015611a3e575060015b505b80611a4a816134a5565b915050611941565b600080836001600160a01b0316638749694a6040518163ffffffff1660e01b81526004016040805180830381865afa158015611a92573d6000803e3d6000fd5b505050506040513d601f19601f82011682018060405250810190611ab69190613532565b60405163c6f83ad160e01b8152306004820152602481018390526044810182905291935091506001600160a01b0384169063c6f83ad190606401600060405180830381600087803b158015611b0a57600080fd5b505af1158015611b1e573d6000803e3d6000fd5b5050505050505050565b6000805b8251811015610f6657828181518110611b4757611b47612cff565b602002602001015182611b5a9190613556565b915080611b66816134a5565b915050611b2c565b60006001600160ff1b038211156114725760405162461bcd60e51b815260206004820152602860248201527f53616665436173743a2076616c756520646f65736e27742066697420696e2061604482015267371034b73a191a9b60c11b606482015260840161054e565b611c5660405180610180016040528060006001600160a01b03168152602001600015158152602001600063ffffffff16815260200160006001600160d81b0316815260200160008152602001600081526020016000815260200160008152602001600081526020016000815260200160008152602001600081525090565b60a0840151158015611c685750600083125b15611d275760035460808501516001600160a01b039091169063e62c0edf90611c908661357e565b60a088015160208901516040516001600160e01b031960e087901b1681526001600160a01b03909416600485015260248401929092526044830152606482018690521515608482015260a401610180604051808303816000875af1158015611cfc573d6000803e3d6000fd5b505050506040513d601f19601f82011682018060405250810190611d209190612c49565b9050611ea7565b600c5460a0850151600480546040805163313ce56760e01b815290516001600160a01b039586169563c6aee61895611dae9590949091169263313ce56792818301926020928290030181865afa158015611d85573d6000803e3d6000fd5b505050506040513d601f19601f82011682018060405250810190611da9919061359a565b61258b565b6040518263ffffffff1660e01b8152600401611dcc91815260200190565b600060405180830381600087803b158015611de657600080fd5b505af1158015611dfa573d6000803e3d6000fd5b5050600354608087015160a08801516040808a015160208b0151915163f115e8b560e01b81526001600160a01b039485166004820152602481018b90526044810193909352606483015260848201889052151560a48201529116925063f115e8b5915060c401610180604051808303816000875af1158015611e80573d6000803e3d6000fd5b505050506040513d601f19601f82011682018060405250810190611ea49190612c49565b90505b6000546001600160a01b0316608082015160a083015160405163056b460360e31b8152600481019290925260248201526001600160a01b039190911690632b5a30189060440160006040518083038186803b158015611f0557600080fd5b505afa158015611f19573d6000803e3d6000fd5b505050509392505050565b6000546003546008546001600160a01b0392831692631f21756a9286923092879281169116611f538315610ea5565b60405160e088901b6001600160e01b03191681526001600160a01b039687166004820152948616602486015292151560448501529084166064840152909216608482015260a481019190915260c401602060405180830381865afa158015611fbf573d6000803e3d6000fd5b505050506040513d601f19601f82011682018060405250810190611fe39190613231565b1561027d5760405162461bcd60e51b815260206004820152601c60248201527f506f736974696f6e4164644d67723a73686f756c64276e74206c697100000000604482015260640161054e565b60006120a760008312156120575761205261204d846000196135b7565b611420565b612060565b61206083611420565b600480546040805163313ce56760e01b815290516001600160a01b039092169263313ce5679282820192602092908290030181865afa158015611d85573d6000803e3d6000fd5b9050600082121561211f57600854604051631a6ca80960e01b81526001600160a01b0390911690631a6ca809906120e89088908890889087906004016135e7565b600060405180830381600087803b15801561210257600080fd5b505af1158015612116573d6000803e3d6000fd5b5050505061220b565b600082131561220b576004805460085460405163095ea7b360e01b81526001600160a01b039182169381019390935260248301849052169063095ea7b3906044016020604051808303816000875af115801561217f573d6000803e3d6000fd5b505050506040513d601f19601f820116820180604052508101906121a39190613404565b5060085460405163e50f19ef60e01b81526001600160a01b039091169063e50f19ef906121d890889088908890600401613624565b600060405180830381600087803b1580156121f257600080fd5b505af1158015612206573d6000803e3d6000fd5b505050505b5050505050565b6040516370a0823160e01b81526001600160a01b038281166004830152600091908416906370a0823190602401602060405180830381865afa15801561225c573d6000803e3d6000fd5b505050506040513d601f19601f820116820180604052508101906122809190613231565b905060005b8451811015611739578481815181106122a0576122a0612cff565b60200260200101516001600160a01b031663612c39b76040518163ffffffff1660e01b8152600401606060405180830381865afa1580156122e5573d6000803e3d6000fd5b505050506040513d601f19601f820116820180604052508101906123099190613421565b51156123815784818151811061232157612321612cff565b60200260200101516001600160a01b03166340a542fe886040518263ffffffff1660e01b81526004016123549190613650565b600060405180830381600087803b15801561236e57600080fd5b505af192505050801561237f575060015b505b8061238b816134a5565b915050612285565b60408051600380825260808201909252906020820160608036833750505060c08301521515606090910152565b6123c98161245d565b6001600160801b031660c09092019190915250565b60006123ec600260016136d5565b826101c001515110158015610a6b57506000826101c0015160028151811061241657612416612cff565b60200260200101511192915050565b6000612433600360016136d5565b826101c001515110158015610a6b57506000826101c0015160038151811061241657612416612cff565b60006001600160801b038211156114725760405162461bcd60e51b815260206004820152602760248201527f53616665436173743a2076616c756520646f65736e27742066697420696e20316044820152663238206269747360c81b606482015260840161054e565b806124d25760006124d5565b60015b60ff1660809092019190915250565b806124f05760026124f3565b60015b60ff1660409092019190915250565b6000816040015160ff1660000361255b5760405162461bcd60e51b815260206004820152601b60248201527f696e76616c6964206f7264657220747269676765722061626f76650000000000604482015260640161054e565b6002826040015161256c91906136fe565b60ff1660010361257e57506001919050565b506000919050565b919050565b60006125996012600a613804565b6125a760ff8416600a613813565b6125b1908561381f565b6113ab9190613836565b6040805160e08082018352600080835260208084018290528385018290526060808501839052608080860184905286516101a081018852848152928301849052958201839052810182905293840181905260a084810182905260c0850182905291840181905261010084018190526101208401819052610140840181905261016084018190526101808401529091908201908152602001606081525090565b6000815180845260005b8181101561268057602081850181015186830182015201612664565b506000602082860101526020601f19601f83011685010191505092915050565b6020815260006113ab602083018461265a565b634e487b7160e01b600052604160045260246000fd5b6040516101e081016001600160401b03811182821017156126ec576126ec6126b3565b60405290565b6040516101a081016001600160401b03811182821017156126ec576126ec6126b3565b60405161018081016001600160401b03811182821017156126ec576126ec6126b3565b604051601f8201601f191681016001600160401b0381118282101715612760576127606126b3565b604052919050565b60ff8116811461040857600080fd5b803561258681612768565b63ffffffff8116811461040857600080fd5b803561258681612782565b6001600160a01b038116811461040857600080fd5b80356125868161279f565b65ffffffffffff8116811461040857600080fd5b8035612586816127bf565b6001600160801b038116811461040857600080fd5b8035612586816127de565b6001600160401b038116811461040857600080fd5b8035612586816127fe565b801515811461040857600080fd5b80356125868161281e565b60006001600160401b03821115612850576128506126b3565b5060051b60200190565b600082601f83011261286b57600080fd5b8135602061288061287b83612837565b612738565b82815260059290921b8401810191818101908684111561289f57600080fd5b8286015b848110156128ba57803583529183019183016128a3565b509695505050505050565b60006101e082840312156128d857600080fd5b6128e06126c9565b90506128eb826127b4565b81526128f96020830161282c565b6020820152604082013560408201526129146060830161282c565b6060820152612925608083016127b4565b608082015260a082013560a082015260c082013560c082015260e082013560e082015261010061295681840161282c565b90820152610120612968838201612777565b9082015261014061297a838201612813565b90820152610160828101359082015261018080830135908201526101a06129a2818401612777565b908201526101c0828101356001600160401b038111156129c157600080fd5b6129cd8582860161285a565b82840152505092915050565b6000808284036101c08112156129ee57600080fd5b6101a0808212156129fe57600080fd5b612a066126f2565b9150612a1185612777565b8252612a1f60208601612794565b6020830152612a3060408601612777565b6040830152612a41606086016127b4565b6060830152612a52608086016127d3565b6080830152612a6360a086016127f3565b60a0830152612a7460c086016127f3565b60c0830152612a8560e086016127f3565b60e0830152610100612a988187016127f3565b90830152610120612aaa868201612813565b90830152610140612abc868201612813565b90830152610160612ace8682016127f3565b9083015261018085810135908301529092508301356001600160401b03811115612af757600080fd5b612b03858286016128c5565b9150509250929050565b60008060408385031215612b2057600080fd5b823591506020830135612b328161279f565b809150509250929050565b600060208284031215612b4f57600080fd5b81356001600160401b03811115612b6557600080fd5b612b71848285016128c5565b949350505050565b600060208284031215612b8b57600080fd5b81356113ab8161279f565b60008060408385031215612ba957600080fd5b8235612bb48161281e565b91506020830135612b328161281e565b600060208284031215612bd657600080fd5b5035919050565b600181811c90821680612bf157607f821691505b602082108103610f6657634e487b7160e01b600052602260045260246000fd5b80516125868161279f565b80516125868161281e565b805161258681612782565b80516001600160d81b038116811461258657600080fd5b60006101808284031215612c5c57600080fd5b612c64612715565b612c6d83612c11565b8152612c7b60208401612c1c565b6020820152612c8c60408401612c27565b6040820152612c9d60608401612c32565b60608201526080838101519082015260a0808401519082015260c0808401519082015260e08084015190820152610100808401519082015261012080840151908201526101408084015190820152610160928301519281019290925250919050565b634e487b7160e01b600052603260045260246000fd5b805160ff1682526020810151612d33602084018263ffffffff169052565b506040810151612d48604084018260ff169052565b506060810151612d6360608401826001600160a01b03169052565b506080810151612d7d608084018265ffffffffffff169052565b5060a0810151612d9860a08401826001600160801b03169052565b5060c0810151612db360c08401826001600160801b03169052565b5060e0810151612dce60e08401826001600160801b03169052565b50610100818101516001600160801b038116848301525050610120818101516001600160401b038116848301525050610140818101516001600160401b038116848301525050610160818101516001600160801b03811684830152505061018090810151910152565b600081518084526020808501945080840160005b83811015612e6757815187529582019590820190600101612e4b565b509495945050505050565b600061026060018060a01b0383511684526020830151151560208501526040830151604085015260608301511515606085015260808301511515608085015260a0830151612ec360a0860182612d15565b5060c083015181610240860152612edc82860182612e37565b95945050505050565b6000602080830181845280855180835260408601915060408160051b870101925083870160005b82811015612f3a57603f19888603018452612f28858351612e72565b94509285019290850190600101612f0c565b5092979650505050505050565b805161258681612768565b8051612586816127bf565b8051612586816127de565b8051612586816127fe565b60006020808385031215612f8657600080fd5b82516001600160401b03811115612f9c57600080fd5b8301601f81018513612fad57600080fd5b8051612fbb61287b82612837565b8181526101a09182028301840191848201919088841115612fdb57600080fd5b938501935b838510156130e25780858a031215612ff85760008081fd5b6130006126f2565b61300986612f47565b8152613016878701612c27565b878201526040613027818801612f47565b908201526060613038878201612c11565b908201526080613049878201612f52565b9082015260a061305a878201612f5d565b9082015260c061306b878201612f5d565b9082015260e061307c878201612f5d565b9082015261010061308e878201612f5d565b908201526101206130a0878201612f68565b908201526101406130b2878201612f68565b908201526101606130c4878201612f5d565b90820152610180868101519082015283529384019391850191612fe0565b50979650505050505050565b80516001600160a01b0316825260006101e06020830151613113602086018215159052565b50604083015160408501526060830151613131606086018215159052565b50608083015161314c60808601826001600160a01b03169052565b5060a083015160a085015260c083015160c085015260e083015160e08501526101008084015161317f8287018215159052565b50506101208381015160ff90811691860191909152610140808501516001600160401b031690860152610160808501519086015261018080850151908601526101a080850151909116908501526101c0808401518186018390526131e583870182612e37565b9695505050505050565b6020815260006113ab60208301846130ee565b634e487b7160e01b600052601160045260246000fd5b60ff8181168382160190811115610a6b57610a6b613202565b60006020828403121561324357600080fd5b5051919050565b80516001600160a01b03168252602081015161326a602084018215159052565b506040810151613282604084018263ffffffff169052565b50606081015161329d60608401826001600160d81b03169052565b506080818101519083015260a0808201519083015260c0808201519083015260e0808201519083015261010080820151908301526101208082015190830152610140808201519083015261016090810151910152565b60006101a0808352613307818401866130ee565b9150506113ab602083018461324a565b6000602080838503121561332a57600080fd5b82516001600160401b0381111561334057600080fd5b8301601f8101851361335157600080fd5b805161335f61287b82612837565b81815260059190911b8201830190838101908783111561337e57600080fd5b928401925b8284101561339c57835182529284019290840190613383565b979650505050505050565b60006101c08083526133bb818401876130ee565b90506133ca602084018661324a565b8281036101a08401526131e58185612e37565b81810360008312801583831316838312821617156133fd576133fd613202565b5092915050565b60006020828403121561341657600080fd5b81516113ab8161281e565b60006060828403121561343357600080fd5b604051606081018181106001600160401b0382111715613455576134556126b3565b60405282516134638161281e565b815260208301516134738161281e565b602082015260408301516134868161281e565b60408201529392505050565b6020815260006113ab6020830184612e72565b6000600182016134b7576134b7613202565b5060010190565b602081526134d0602082018351612d15565b60006020830151610220806101c08501526134ef6102408501836130ee565b915060ff6040860151166101e08501526060850151601f198584030161020086015261351b838261265a565b925050608085015181850152508091505092915050565b6000806040838503121561354557600080fd5b505080516020909101519092909150565b808201828112600083128015821682158216171561357657613576613202565b505092915050565b6000600160ff1b820161359357613593613202565b5060000390565b6000602082840312156135ac57600080fd5b81516113ab81612768565b80820260008212600160ff1b841416156135d3576135d3613202565b8181058314821517610a6b57610a6b613202565b6001600160a01b0385811682528416602082015260806040820181905260009061361390830185612e37565b905082606083015295945050505050565b6001600160a01b03848116825283166020820152606060408201819052600090612edc90830184612e37565b602081526000825161022080602085015261366f6102408501836130ee565b91506020850151613683604086018261324a565b506040850151848303601f19016101c08601526136a08382612e37565b60608701516001600160a01b039081166101e088015260808801511661020087015260a0909601519190940152509192915050565b80820180821115610a6b57610a6b613202565b634e487b7160e01b600052601260045260246000fd5b600060ff831680613711576137116136e8565b8060ff84160691505092915050565b600181815b8085111561375b57816000190482111561374157613741613202565b8085161561374e57918102915b93841c9390800290613725565b509250929050565b60008261377257506001610a6b565b8161377f57506000610a6b565b8160018114613795576002811461379f576137bb565b6001915050610a6b565b60ff8411156137b0576137b0613202565b50506001821b610a6b565b5060208310610133831016604e8410600b84101617156137de575081810a610a6b565b6137e88383613720565b80600019048211156137fc576137fc613202565b029392505050565b60006113ab60ff841683613763565b60006113ab8383613763565b8082028115828204841417610a6b57610a6b613202565b600082613845576138456136e8565b50049056fea2646970667358221220b1eb3e3215e5dfda424b7658d5a94bae152002565b8c61da64955baa4cb76f0f64736f6c63430008110033",
  "linkReferences": {},
  "deployedLinkReferences": {}
}