{
  "_format": "hh-sol-artifact-1",
  "contractName": "PositionAddMgr",
  "sourceName": "contracts/market/PositionAddMgr.sol",
  "abi": [
    {
      "inputs": [],
      "stateMutability": "nonpayable",
      "type": "constructor"
    },
    {
      "anonymous": false,
      "inputs": [
        {
          "indexed": false,
          "internalType": "uint8",
          "name": "version",
          "type": "uint8"
        }
      ],
      "name": "Initialized",
      "type": "event"
    },
    {
      "anonymous": false,
      "inputs": [
        {
          "indexed": true,
          "internalType": "address",
          "name": "previousOwner",
          "type": "address"
        },
        {
          "indexed": true,
          "internalType": "address",
          "name": "newOwner",
          "type": "address"
        }
      ],
      "name": "OwnershipTransferred",
      "type": "event"
    },
    {
      "anonymous": false,
      "inputs": [
        {
          "indexed": true,
          "internalType": "bytes32",
          "name": "role",
          "type": "bytes32"
        },
        {
          "indexed": true,
          "internalType": "bytes32",
          "name": "previousAdminRole",
          "type": "bytes32"
        },
        {
          "indexed": true,
          "internalType": "bytes32",
          "name": "newAdminRole",
          "type": "bytes32"
        }
      ],
      "name": "RoleAdminChanged",
      "type": "event"
    },
    {
      "anonymous": false,
      "inputs": [
        {
          "indexed": true,
          "internalType": "bytes32",
          "name": "role",
          "type": "bytes32"
        },
        {
          "indexed": true,
          "internalType": "address",
          "name": "account",
          "type": "address"
        },
        {
          "indexed": true,
          "internalType": "address",
          "name": "sender",
          "type": "address"
        }
      ],
      "name": "RoleGranted",
      "type": "event"
    },
    {
      "anonymous": false,
      "inputs": [
        {
          "indexed": true,
          "internalType": "bytes32",
          "name": "role",
          "type": "bytes32"
        },
        {
          "indexed": true,
          "internalType": "address",
          "name": "account",
          "type": "address"
        },
        {
          "indexed": true,
          "internalType": "address",
          "name": "sender",
          "type": "address"
        }
      ],
      "name": "RoleRevoked",
      "type": "event"
    },
    {
      "inputs": [],
      "name": "DEFAULT_ADMIN_ROLE",
      "outputs": [
        {
          "internalType": "bytes32",
          "name": "",
          "type": "bytes32"
        }
      ],
      "stateMutability": "view",
      "type": "function"
    },
    {
      "inputs": [],
      "name": "collateralToken",
      "outputs": [
        {
          "internalType": "address",
          "name": "",
          "type": "address"
        }
      ],
      "stateMutability": "view",
      "type": "function"
    },
    {
      "inputs": [],
      "name": "collateralTokenDigits",
      "outputs": [
        {
          "internalType": "uint8",
          "name": "",
          "type": "uint8"
        }
      ],
      "stateMutability": "view",
      "type": "function"
    },
    {
      "inputs": [
        {
          "components": [
            {
              "internalType": "uint8",
              "name": "version",
              "type": "uint8"
            },
            {
              "internalType": "uint32",
              "name": "updatedAtBlock",
              "type": "uint32"
            },
            {
              "internalType": "uint8",
              "name": "triggerAbove",
              "type": "uint8"
            },
            {
              "internalType": "address",
              "name": "account",
              "type": "address"
            },
            {
              "internalType": "uint48",
              "name": "extra3",
              "type": "uint48"
            },
            {
              "internalType": "uint128",
              "name": "collateral",
              "type": "uint128"
            },
            {
              "internalType": "uint128",
              "name": "size",
              "type": "uint128"
            },
            {
              "internalType": "uint128",
              "name": "price",
              "type": "uint128"
            },
            {
              "internalType": "uint128",
              "name": "extra1",
              "type": "uint128"
            },
            {
              "internalType": "uint64",
              "name": "orderID",
              "type": "uint64"
            },
            {
              "internalType": "uint64",
              "name": "extra2",
              "type": "uint64"
            },
            {
              "internalType": "uint128",
              "name": "extra0",
              "type": "uint128"
            },
            {
              "internalType": "bytes32",
              "name": "refCode",
              "type": "bytes32"
            }
          ],
          "internalType": "struct Order.Props",
          "name": "exeOrder",
          "type": "tuple"
        },
        {
          "components": [
            {
              "internalType": "address",
              "name": "_market",
              "type": "address"
            },
            {
              "internalType": "bool",
              "name": "_isLong",
              "type": "bool"
            },
            {
              "internalType": "uint256",
              "name": "_oraclePrice",
              "type": "uint256"
            },
            {
              "internalType": "bool",
              "name": "isOpen",
              "type": "bool"
            },
            {
              "internalType": "address",
              "name": "_account",
              "type": "address"
            },
            {
              "internalType": "uint256",
              "name": "_sizeDelta",
              "type": "uint256"
            },
            {
              "internalType": "uint256",
              "name": "_price",
              "type": "uint256"
            },
            {
              "internalType": "uint256",
              "name": "_slippage",
              "type": "uint256"
            },
            {
              "internalType": "bool",
              "name": "_isExec",
              "type": "bool"
            },
            {
              "internalType": "uint8",
              "name": "liqState",
              "type": "uint8"
            },
            {
              "internalType": "uint64",
              "name": "_fromOrder",
              "type": "uint64"
            },
            {
              "internalType": "bytes32",
              "name": "_refCode",
              "type": "bytes32"
            },
            {
              "internalType": "uint256",
              "name": "collateralDelta",
              "type": "uint256"
            },
            {
              "internalType": "uint8",
              "name": "execNum",
              "type": "uint8"
            },
            {
              "internalType": "uint256[]",
              "name": "inputs",
              "type": "uint256[]"
            }
          ],
          "internalType": "struct MarketDataTypes.UpdatePositionInputs",
          "name": "_params",
          "type": "tuple"
        }
      ],
      "name": "execOrderKey",
      "outputs": [],
      "stateMutability": "nonpayable",
      "type": "function"
    },
    {
      "inputs": [],
      "name": "feeRouter",
      "outputs": [
        {
          "internalType": "contract IFeeRouter",
          "name": "",
          "type": "address"
        }
      ],
      "stateMutability": "view",
      "type": "function"
    },
    {
      "inputs": [
        {
          "internalType": "bytes32",
          "name": "role",
          "type": "bytes32"
        }
      ],
      "name": "getRoleAdmin",
      "outputs": [
        {
          "internalType": "bytes32",
          "name": "",
          "type": "bytes32"
        }
      ],
      "stateMutability": "view",
      "type": "function"
    },
    {
      "inputs": [],
      "name": "globalValid",
      "outputs": [
        {
          "internalType": "address",
          "name": "",
          "type": "address"
        }
      ],
      "stateMutability": "view",
      "type": "function"
    },
    {
      "inputs": [
        {
          "internalType": "address",
          "name": "_account",
          "type": "address"
        }
      ],
      "name": "grantControllerRoleByMarketManager",
      "outputs": [],
      "stateMutability": "nonpayable",
      "type": "function"
    },
    {
      "inputs": [
        {
          "internalType": "bytes32",
          "name": "role",
          "type": "bytes32"
        },
        {
          "internalType": "address",
          "name": "account",
          "type": "address"
        }
      ],
      "name": "grantRole",
      "outputs": [],
      "stateMutability": "nonpayable",
      "type": "function"
    },
    {
      "inputs": [
        {
          "internalType": "bytes32",
          "name": "role",
          "type": "bytes32"
        },
        {
          "internalType": "address",
          "name": "account",
          "type": "address"
        }
      ],
      "name": "hasRole",
      "outputs": [
        {
          "internalType": "bool",
          "name": "",
          "type": "bool"
        }
      ],
      "stateMutability": "view",
      "type": "function"
    },
    {
      "inputs": [
        {
          "components": [
            {
              "internalType": "address",
              "name": "_market",
              "type": "address"
            },
            {
              "internalType": "bool",
              "name": "_isLong",
              "type": "bool"
            },
            {
              "internalType": "uint256",
              "name": "_oraclePrice",
              "type": "uint256"
            },
            {
              "internalType": "bool",
              "name": "isOpen",
              "type": "bool"
            },
            {
              "internalType": "address",
              "name": "_account",
              "type": "address"
            },
            {
              "internalType": "uint256",
              "name": "_sizeDelta",
              "type": "uint256"
            },
            {
              "internalType": "uint256",
              "name": "_price",
              "type": "uint256"
            },
            {
              "internalType": "uint256",
              "name": "_slippage",
              "type": "uint256"
            },
            {
              "internalType": "bool",
              "name": "_isExec",
              "type": "bool"
            },
            {
              "internalType": "uint8",
              "name": "liqState",
              "type": "uint8"
            },
            {
              "internalType": "uint64",
              "name": "_fromOrder",
              "type": "uint64"
            },
            {
              "internalType": "bytes32",
              "name": "_refCode",
              "type": "bytes32"
            },
            {
              "internalType": "uint256",
              "name": "collateralDelta",
              "type": "uint256"
            },
            {
              "internalType": "uint8",
              "name": "execNum",
              "type": "uint8"
            },
            {
              "internalType": "uint256[]",
              "name": "inputs",
              "type": "uint256[]"
            }
          ],
          "internalType": "struct MarketDataTypes.UpdatePositionInputs",
          "name": "_inputs",
          "type": "tuple"
        }
      ],
      "name": "increasePositionWithOrders",
      "outputs": [],
      "stateMutability": "nonpayable",
      "type": "function"
    },
    {
      "inputs": [],
      "name": "indexToken",
      "outputs": [
        {
          "internalType": "address",
          "name": "",
          "type": "address"
        }
      ],
      "stateMutability": "view",
      "type": "function"
    },
    {
      "inputs": [],
      "name": "marketRouter",
      "outputs": [
        {
          "internalType": "address",
          "name": "",
          "type": "address"
        }
      ],
      "stateMutability": "view",
      "type": "function"
    },
    {
      "inputs": [],
      "name": "marketValid",
      "outputs": [
        {
          "internalType": "address",
          "name": "",
          "type": "address"
        }
      ],
      "stateMutability": "view",
      "type": "function"
    },
    {
      "inputs": [],
      "name": "name",
      "outputs": [
        {
          "internalType": "string",
          "name": "",
          "type": "string"
        }
      ],
      "stateMutability": "view",
      "type": "function"
    },
    {
      "inputs": [],
      "name": "orderBookLong",
      "outputs": [
        {
          "internalType": "contract IOrderBook",
          "name": "",
          "type": "address"
        }
      ],
      "stateMutability": "view",
      "type": "function"
    },
    {
      "inputs": [],
      "name": "orderBookShort",
      "outputs": [
        {
          "internalType": "contract IOrderBook",
          "name": "",
          "type": "address"
        }
      ],
      "stateMutability": "view",
      "type": "function"
    },
    {
      "inputs": [],
      "name": "orderMgr",
      "outputs": [
        {
          "internalType": "address",
          "name": "",
          "type": "address"
        }
      ],
      "stateMutability": "view",
      "type": "function"
    },
    {
      "inputs": [
        {
          "internalType": "bool",
          "name": "isLong",
          "type": "bool"
        },
        {
          "internalType": "bool",
          "name": "isOpen",
          "type": "bool"
        }
      ],
      "name": "orderStore",
      "outputs": [
        {
          "internalType": "contract IOrderStore",
          "name": "",
          "type": "address"
        }
      ],
      "stateMutability": "view",
      "type": "function"
    },
    {
      "inputs": [],
      "name": "owner",
      "outputs": [
        {
          "internalType": "address",
          "name": "",
          "type": "address"
        }
      ],
      "stateMutability": "view",
      "type": "function"
    },
    {
      "inputs": [],
      "name": "pluginGasLimit",
      "outputs": [
        {
          "internalType": "uint256",
          "name": "",
          "type": "uint256"
        }
      ],
      "stateMutability": "view",
      "type": "function"
    },
    {
      "inputs": [
        {
          "internalType": "uint256",
          "name": "",
          "type": "uint256"
        }
      ],
      "name": "plugins",
      "outputs": [
        {
          "internalType": "address",
          "name": "",
          "type": "address"
        }
      ],
      "stateMutability": "view",
      "type": "function"
    },
    {
      "inputs": [],
      "name": "positionAddMgr",
      "outputs": [
        {
          "internalType": "address",
          "name": "",
          "type": "address"
        }
      ],
      "stateMutability": "view",
      "type": "function"
    },
    {
      "inputs": [],
      "name": "positionBook",
      "outputs": [
        {
          "internalType": "contract IPositionBook",
          "name": "",
          "type": "address"
        }
      ],
      "stateMutability": "view",
      "type": "function"
    },
    {
      "inputs": [],
      "name": "positionStoreLong",
      "outputs": [
        {
          "internalType": "address",
          "name": "",
          "type": "address"
        }
      ],
      "stateMutability": "view",
      "type": "function"
    },
    {
      "inputs": [],
      "name": "positionStoreShort",
      "outputs": [
        {
          "internalType": "address",
          "name": "",
          "type": "address"
        }
      ],
      "stateMutability": "view",
      "type": "function"
    },
    {
      "inputs": [],
      "name": "positionSubMgr",
      "outputs": [
        {
          "internalType": "address",
          "name": "",
          "type": "address"
        }
      ],
      "stateMutability": "view",
      "type": "function"
    },
    {
      "inputs": [],
      "name": "priceFeed",
      "outputs": [
        {
          "internalType": "address",
          "name": "",
          "type": "address"
        }
      ],
      "stateMutability": "view",
      "type": "function"
    },
    {
      "inputs": [],
      "name": "renounceOwnership",
      "outputs": [],
      "stateMutability": "nonpayable",
      "type": "function"
    },
    {
      "inputs": [
        {
          "internalType": "bytes32",
          "name": "role",
          "type": "bytes32"
        },
        {
          "internalType": "address",
          "name": "account",
          "type": "address"
        }
      ],
      "name": "renounceRole",
      "outputs": [],
      "stateMutability": "nonpayable",
      "type": "function"
    },
    {
      "inputs": [
        {
          "internalType": "bytes32",
          "name": "role",
          "type": "bytes32"
        },
        {
          "internalType": "address",
          "name": "account",
          "type": "address"
        }
      ],
      "name": "revokeRole",
      "outputs": [],
      "stateMutability": "nonpayable",
      "type": "function"
    },
    {
      "inputs": [
        {
          "internalType": "bytes4",
          "name": "interfaceId",
          "type": "bytes4"
        }
      ],
      "name": "supportsInterface",
      "outputs": [
        {
          "internalType": "bool",
          "name": "",
          "type": "bool"
        }
      ],
      "stateMutability": "view",
      "type": "function"
    },
    {
      "inputs": [
        {
          "internalType": "address",
          "name": "to",
          "type": "address"
        }
      ],
      "name": "transferAdmin",
      "outputs": [],
      "stateMutability": "nonpayable",
      "type": "function"
    },
    {
      "inputs": [
        {
          "internalType": "address",
          "name": "newOwner",
          "type": "address"
        }
      ],
      "name": "transferOwnership",
      "outputs": [],
      "stateMutability": "nonpayable",
      "type": "function"
    },
    {
      "inputs": [],
      "name": "vaultRouter",
      "outputs": [
        {
          "internalType": "address",
          "name": "",
          "type": "address"
        }
      ],
      "stateMutability": "view",
      "type": "function"
    }
  ],
  "bytecode": "0x60806040523480156200001157600080fd5b5060016046556000620000243362000041565b6200003a816200009360201b62000d1a1760201c565b5062000173565b604880546001600160a01b038381166001600160a01b0319831681179093556040519116919082907f8be0079c531659141344cd1fd0a4f28419497f9722a3daafe3b4186f6b6457e090600090a35050565b42604955620000a23362000041565b620000af600033620000bf565b620000bc600082620000bf565b50565b620000cb8282620000cf565b5050565b60008281526047602090815260408083206001600160a01b038516845290915290205460ff16620000cb5760008281526047602090815260408083206001600160a01b03851684529091529020805460ff191660011790556200012f3390565b6001600160a01b0316816001600160a01b0316837f2f8788117e7eff1d82e926ec794901d17c78024a50270940304540a733656f0d60405160405180910390a45050565b613da880620001836000396000f3fe608060405234801561001057600080fd5b50600436106102115760003560e01c80638da5cb5b11610125578063c54dc3d6116100ad578063d547741f1161007c578063d547741f146104af578063e7d015f2146104c2578063f0a317eb146104d5578063f29ebf61146104e8578063f2fde38b146104fb57600080fd5b8063c54dc3d614610463578063d12dbde414610476578063d37c441c14610489578063d49ff78d1461049c57600080fd5b8063a2640454116100f4578063a2640454146103d3578063ac0b05a61461040b578063b2016bd41461041e578063b21dc9cb14610431578063b894300d1461045057600080fd5b80638da5cb5b1461039457806391d14854146103a5578063a0cbf50c146103b8578063a217fddf146103cb57600080fd5b806336568abe116101a8578063741bef1a11610177578063741bef1a1461033557806375829def146103485780637b2fd1e51461035b5780637fe4a6981461036e5780638a6ca35d1461038157600080fd5b806336568abe146102f45780633bdef83a1461030757806345ccf5c51461031a578063715018a61461032d57600080fd5b806307e87545116101e457806307e875451461029657806312de276c146102a9578063248a9ca3146102be5780632f2ff15d146102e157600080fd5b806301ffc9a71461021657806303deb0291461023e57806305ba9ae91461025657806306fdde0314610281575b600080fd5b610229610224366004612b24565b61050e565b60405190151581526020015b60405180910390f35b610248620a2c2a81565b604051908152602001610235565b600654610269906001600160a01b031681565b6040516001600160a01b039091168152602001610235565b610289610545565b6040516102359190612b9e565b600a54610269906001600160a01b031681565b6102bc6102b7366004612edc565b6105d3565b005b6102486102cc366004613010565b60009081526047602052604090206001015490565b6102bc6102ef366004613029565b610640565b6102bc610302366004613029565b61066a565b6102bc610315366004613059565b6106e4565b600b54610269906001600160a01b031681565b6102bc610bbf565b600954610269906001600160a01b031681565b6102bc610356366004613095565b610bd3565b600554610269906001600160a01b031681565b6102bc61037c366004613095565b610bfd565b600e54610269906001600160a01b031681565b6048546001600160a01b0316610269565b6102296103b3366004613029565b610c27565b600f54610269906001600160a01b031681565b610248600081565b6102696103e13660046130b2565b9015156000908152600760209081526040808320931515835292905220546001600160a01b031690565b600354610269906001600160a01b031681565b600454610269906001600160a01b031681565b60135461043e9060ff1681565b60405160ff9091168152602001610235565b600054610269906001600160a01b031681565b600154610269906001600160a01b031681565b601054610269906001600160a01b031681565b600c54610269906001600160a01b031681565b600d54610269906001600160a01b031681565b6102bc6104bd366004613029565b610c52565b600254610269906001600160a01b031681565b6102696104e3366004613010565b610c77565b600854610269906001600160a01b031681565b6102bc610509366004613095565b610ca1565b60006001600160e01b03198216637965db0b60e01b148061053f57506301ffc9a760e01b6001600160e01b03198316145b92915050565b60118054610552906130e0565b80601f016020809104026020016040519081016040528092919081815260200182805461057e906130e0565b80156105cb5780601f106105a0576101008083540402835291602001916105cb565b820191906000526020600020905b8154815290600101906020018083116105ae57829003601f168201915b505050505081565b6105dc82610d3d565b80606001516106325760405162461bcd60e51b815260206004820152601d60248201527f506f736974696f6e4164644d67723a696e76616c69642069736f70656e00000060448201526064015b60405180910390fd5b61063c8282610ddd565b5050565b60008281526047602052604090206001015461065b816110f5565b61066583836110ff565b505050565b6001600160a01b03811633146106da5760405162461bcd60e51b815260206004820152602f60248201527f416363657373436f6e74726f6c3a2063616e206f6e6c792072656e6f756e636560448201526e103937b632b9903337b91039b2b63360891b6064820152608401610629565b61063c8282611185565b60005461018082015160405163015fc61360e01b815260048101919091526001600160a01b039091169063015fc6139060240160006040518083038186803b15801561072f57600080fd5b505afa158015610743573d6000803e3d6000fd5b505050508060e00151600014801561076757506101408101516001600160401b0316155b1561077457601e60e08201525b61078181602001516111ec565b6040820152600354608082015160a08301516000926001600160a01b03169163bc95baad91156107b55784604001516107b8565b60005b60208601516040516001600160e01b031960e086901b1681526001600160a01b03909316600484015260248301919091521515604482015260640161018060405180830381865afa158015610811573d6000803e3d6000fd5b505050506040513d601f19601f82011682018060405250810190610835919061314c565b905061084182826112b3565b5061085482608001518360200151611652565b1580610862575060a0820151155b1561086b575050565b600061087683611755565b158015906108ac5750826020015115158360c0015161089485611755565b1114806108ac57508260c001516108aa84611755565b145b905060006108b984611793565b158015906108f157506108cb84611793565b8460c001511115158460200151151514806108f157506108ea84611793565b8460c00151145b9050606060008380156109015750825b61092057838061090e5750825b610919576000610923565b6001610923565b60025b60ff1690508015610a0a57806001600160401b0381111561094657610946612bb1565b60405190808252806020026020018201604052801561097f57816020015b61096c612a85565b8152602001906001900390816109645790505b5091506109aa8660008661099b5761099689611793565b6109a4565b6109a489611755565b876117c3565b826000815181106109bd576109bd613202565b602002602001018190525080600203610a05576109e68660006109df89611793565b60006117c3565b826001815181106109f9576109f9613202565b60200260200101819052505b610a12565b505050505050565b60008660200151610a2e576006546001600160a01b0316610a3b565b6005546001600160a01b03165b6001600160a01b031663b398a842846040518263ffffffff1660e01b8152600401610a6691906133e8565b6000604051808303816000875af1158015610a85573d6000803e3d6000fd5b505050506040513d6000823e601f3d908101601f19168201604052610aad9190810190613476565b604080516000808252602082019092529192505b8251811015610bb4576000838281518110610ade57610ade613202565b60200260200101519050610bab6040518060e00160405280306001600160a01b031681526020018c60200151151581526020018c60400151815260200160001515815260200160011515815260200183815260200185815250620a2c2a6012805480602002602001604051908101604052809291908181526020018280548015610b9157602002820191906000526020600020905b81546001600160a01b03168152600190910190602001808311610b73575b50506004546001600160a01b031692503091506118a69050565b50600101610ac1565b505050505050505050565b610bc7611af3565b610bd16000611b4d565b565b6000610bde816110f5565b610be9600083611b9f565b610bf282611b4d565b61063c600033611185565b7f8d1089725c0dc266707fa6207730fb801dcd03108bfed7a21099bd303651d2b7610211816110f5565b60009182526047602090815260408084206001600160a01b0393909316845291905290205460ff1690565b600082815260476020526040902060010154610c6d816110f5565b6106658383611185565b60128181548110610c8757600080fd5b6000918252602090912001546001600160a01b0316905081565b610ca9611af3565b6001600160a01b038116610d0e5760405162461bcd60e51b815260206004820152602660248201527f4f776e61626c653a206e6577206f776e657220697320746865207a65726f206160448201526564647265737360d01b6064820152608401610629565b610d1781611b4d565b50565b42604955610d2733611b4d565b610d32600033611b9f565b610d17600082611b9f565b60608101516001600160a01b0316610d8b5760405162461bcd60e51b8152602060048201526011602482015270696e76616c6964206f72646572206b657960781b6044820152606401610629565b8061012001516001600160401b0316600003610d175760405162461bcd60e51b8152602060048201526011602482015270696e76616c6964206f72646572206b657960781b6044820152606401610629565b610dea81602001516111ec565b604082015260608201516001600160a01b0316610e495760405162461bcd60e51b815260206004820152601760248201527f506f736974696f6e4164644d67723a216163636f756e740000000000000000006044820152606401610629565b60105460405163039fcb0560e31b81526001600160a01b0390911690631cfe582890610e799084906004016136f2565b60006040518083038186803b158015610e9157600080fd5b505afa158015610ea5573d6000803e3d6000fd5b505050508060200151610ec3576006546001600160a01b0316610ed0565b6005546001600160a01b03165b6001600160a01b03166345824d67610ee784611ba9565b6040516001600160e01b031960e084901b1681526004810191909152600160248201526044016000604051808303816000875af1158015610f2c573d6000803e3d6000fd5b505050506040513d6000823e601f3d908101601f19168201604052610f549190810190613476565b506001816101a001818151610f69919061371b565b60ff169052506040810151610f7f908390611c0e565b6040518060400160405280601b81526020017f506f736974696f6e4164644d67723a7472696767657261626f7665000000000081525090610fd35760405162461bcd60e51b81526004016106299190612b9e565b508160a001516001600160801b0316816101800151146110455760405162461bcd60e51b815260206004820152602760248201527f506f736974696f6e4164644d67723a20696e73756666696369656e7420636f6c6044820152661b185d195c985b60ca1b6064820152608401610629565b6040805160a081018252838152602081018390526110ec918101600360ff16815260408051602081810183526000808352818501929092529282015260128054825181850281018501909352808352620a2c2a938301828280156110d257602002820191906000526020600020905b81546001600160a01b031681526001909101906020018083116110b4575b50506004546001600160a01b03169250309150611c4c9050565b61063c816106e4565b610d178133611dd0565b6111098282610c27565b61063c5760008281526047602090815260408083206001600160a01b03851684529091529020805460ff191660011790556111413390565b6001600160a01b0316816001600160a01b0316837f2f8788117e7eff1d82e926ec794901d17c78024a50270940304540a733656f0d60405160405180910390a45050565b61118f8282610c27565b1561063c5760008281526047602090815260408083206001600160a01b0385168085529252808320805460ff1916905551339285917ff6391f5c32d9c69d2a47ea670b442974b53935d1edc7fd64eb21e047a839171b9190a45050565b6009546002546040516303b6b4bb60e51b81526001600160a01b0391821660048201528315156024820152600092919091169081906376d6976090604401602060405180830381865afa158015611247573d6000803e3d6000fd5b505050506040513d601f19601f8201168201806040525081019061126b9190613734565b9150600082116112ad5760405162461bcd60e51b815260206004820152600d60248201526c216f7261636c6520707269636560981b6044820152606401610629565b50919050565b6003546008546000916112d2916001600160a01b039182169116611e29565b308352600854604051634151026360e01b81526000916001600160a01b03169063415102639061130890879087906004016137f6565b600060405180830381865afa158015611325573d6000803e3d6000fd5b505050506040513d6000823e601f3d908101601f1916820160405261134d919081019061381a565b9050600061135a82611eff565b60a0860151909150156113d05760005460405163fc54d91d60e01b81526001600160a01b039091169063fc54d91d9061139b908890889087906004016138aa565b60006040518083038186803b1580156113b357600080fd5b505afa1580156113c7573d6000803e3d6000fd5b5050505061146a565b6000546001600160a01b031660a0850151610180870151608087015160405163393ab2bd60e21b8152600260048201526024810193909352604483019190915260648201526000608482015260a481018390526001600160a01b03919091169063e4eacaf49060c40160006040518083038186803b15801561145157600080fd5b505afa158015611465573d6000803e3d6000fd5b505050505b60085460208601516040516334f32e2560e01b815230600482015290151560248201526000916001600160a01b0316906334f32e2590604401602060405180830381865afa1580156114c0573d6000803e3d6000fd5b505050506040513d601f19601f820116820180604052508101906114e49190613734565b9050816114f5876101800151611f45565b6114ff91906138e0565b935061150c868583611fb3565b5061151f866080015187602001516122ff565b6115288261240b565b60085460808701516004805460405163e50f19ef60e01b81526001600160a01b039485169463e50f19ef9461156594909390911691899101613907565b600060405180830381600087803b15801561157f57600080fd5b505af1158015611593573d6000803e3d6000fd5b50506040805160c08101825289815260208082018a90528183018890526004546001600160a01b03908116606084015260025416608083015260a08201899052601280548451818402810184019095528085526116499650929450620a2c2a9392909183018282801561162f57602002820191906000526020600020905b81546001600160a01b03168152600190910190602001808311611611575b50506004546001600160a01b0316925030915061258b9050565b50505092915050565b6000805482151582526007602090815260408084208480529091528220546001600160a01b039182169163e82956c0911660405163350cffdd60e11b81526001600160a01b0387811660048301529190911690636a19ffba90602401602060405180830381865afa1580156116cb573d6000803e3d6000fd5b505050506040513d601f19601f820116820180604052508101906116ef9190613734565b6040518263ffffffff1660e01b815260040161170d91815260200190565b602060405180830381865afa15801561172a573d6000803e3d6000fd5b505050506040513d601f19601f8201168201806040525081019061174e9190613933565b9392505050565b60006001826101c0015151101561176d57600061053f565b816101c0015160008151811061178557611785613202565b602002602001015192915050565b60006002826101c001515110156117ab57600061053f565b816101c0015160018151811061178557611785613202565b6117cb612a85565b6117d681600061270c565b30815260208086018051151591830191909152516117f490156111ec565b60408201526001608082015261014085015160a0820151611821916001600160401b031661016090910152565b608085015160a080830180516001600160a01b03909316606090930192909252860151905161184f91612739565b60a0818101805160009201919091526020860151905161187491151584151514612757565b60a0810180516001600160801b0390941660e09094019390935261016090940151915161018001919091525090919050565b6040516370a0823160e01b81526001600160a01b038281166004830152600091908416906370a0823190602401602060405180830381865afa1580156118f0573d6000803e3d6000fd5b505050506040513d601f19601f820116820180604052508101906119149190613734565b905060005b8451811015611a2a5784818151811061193457611934613202565b60200260200101516001600160a01b031663612c39b76040518163ffffffff1660e01b8152600401606060405180830381865afa158015611979573d6000803e3d6000fd5b505050506040513d601f19601f8201168201806040525081019061199d9190613950565b6020015115611a18578481815181106119b8576119b8613202565b60200260200101516001600160a01b031663cce9a2f3886040518263ffffffff1660e01b81526004016119eb91906139c1565b600060405180830381600087803b158015611a0557600080fd5b505af1925050508015611a16575060015b505b80611a22816139d4565b915050611919565b506040516370a0823160e01b81526001600160a01b038381166004830152600091908516906370a0823190602401602060405180830381865afa158015611a75573d6000803e3d6000fd5b505050506040513d601f19601f82011682018060405250810190611a999190613734565b9050818114611aea5760405162461bcd60e51b815260206004820152601b60248201527f455243323020746f6b656e2062616c616e6365206368616e67656400000000006044820152606401610629565b50505050505050565b6048546001600160a01b03163314610bd15760405162461bcd60e51b815260206004820181905260248201527f4f776e61626c653a2063616c6c6572206973206e6f7420746865206f776e65726044820152606401610629565b604880546001600160a01b038381166001600160a01b0319831681179093556040519116919082907f8be0079c531659141344cd1fd0a4f28419497f9722a3daafe3b4186f6b6457e090600090a35050565b61063c82826110ff565b60008160600151826101200151604051602001611bf192919060609290921b6bffffffffffffffffffffffff1916825260c01b6001600160c01b0319166014820152601c0190565b604051602081830303815290604052805190602001209050919050565b6000611c1983612775565b15611c35575060e08201516001600160801b031681101561053f565b5060e08201516001600160801b031681111561053f565b6040516370a0823160e01b81526001600160a01b038281166004830152600091908416906370a0823190602401602060405180830381865afa158015611c96573d6000803e3d6000fd5b505050506040513d601f19601f82011682018060405250810190611cba9190613734565b905060005b8451811015611a2a57848181518110611cda57611cda613202565b60200260200101516001600160a01b031663612c39b76040518163ffffffff1660e01b8152600401606060405180830381865afa158015611d1f573d6000803e3d6000fd5b505050506040513d601f19601f82011682018060405250810190611d439190613950565b6040015115611dbe57848181518110611d5e57611d5e613202565b60200260200101516001600160a01b031663718cb58a886040518263ffffffff1660e01b8152600401611d9191906139ed565b600060405180830381600087803b158015611dab57600080fd5b505af1925050508015611dbc575060015b505b80611dc8816139d4565b915050611cbf565b611dda8282610c27565b61063c57611de7816127ed565b611df28360206127ff565b604051602001611e03929190613a61565b60408051601f198184030181529082905262461bcd60e51b825261062991600401612b9e565b600080836001600160a01b0316638749694a6040518163ffffffff1660e01b81526004016040805180830381865afa158015611e69573d6000803e3d6000fd5b505050506040513d601f19601f82011682018060405250810190611e8d9190613ad6565b60405163c6f83ad160e01b8152306004820152602481018390526044810182905291935091506001600160a01b0384169063c6f83ad190606401600060405180830381600087803b158015611ee157600080fd5b505af1158015611ef5573d6000803e3d6000fd5b5050505050505050565b6000805b82518110156112ad57828181518110611f1e57611f1e613202565b602002602001015182611f319190613afa565b915080611f3d816139d4565b915050611f03565b60006001600160ff1b03821115611faf5760405162461bcd60e51b815260206004820152602860248201527f53616665436173743a2076616c756520646f65736e27742066697420696e2061604482015267371034b73a191a9b60c11b6064820152608401610629565b5090565b61203160405180610180016040528060006001600160a01b03168152602001600015158152602001600063ffffffff16815260200160006001600160d81b0316815260200160008152602001600081526020016000815260200160008152602001600081526020016000815260200160008152602001600081525090565b60a08401511580156120435750600083125b156121025760035460808501516001600160a01b039091169063e62c0edf9061206b86613b22565b60a088015160208901516040516001600160e01b031960e087901b1681526001600160a01b03909416600485015260248401929092526044830152606482018690521515608482015260a401610180604051808303816000875af11580156120d7573d6000803e3d6000fd5b505050506040513d601f19601f820116820180604052508101906120fb919061314c565b9050612282565b600c5460a0850151600480546040805163313ce56760e01b815290516001600160a01b039586169563c6aee618956121899590949091169263313ce56792818301926020928290030181865afa158015612160573d6000803e3d6000fd5b505050506040513d601f19601f820116820180604052508101906121849190613b3e565b61299a565b6040518263ffffffff1660e01b81526004016121a791815260200190565b600060405180830381600087803b1580156121c157600080fd5b505af11580156121d5573d6000803e3d6000fd5b5050600354608087015160a08801516040808a015160208b0151915163f115e8b560e01b81526001600160a01b039485166004820152602481018b90526044810193909352606483015260848201889052151560a48201529116925063f115e8b5915060c401610180604051808303816000875af115801561225b573d6000803e3d6000fd5b505050506040513d601f19601f8201168201806040525081019061227f919061314c565b90505b6000546001600160a01b0316608082015160a083015160405163056b460360e31b8152600481019290925260248201526001600160a01b039190911690632b5a30189060440160006040518083038186803b1580156122e057600080fd5b505afa1580156122f4573d6000803e3d6000fd5b505050509392505050565b6000546003546008546001600160a01b0392831692631f21756a928692309287928116911661232e83156111ec565b60405160e088901b6001600160e01b03191681526001600160a01b039687166004820152948616602486015292151560448501529084166064840152909216608482015260a481019190915260c401602060405180830381865afa15801561239a573d6000803e3d6000fd5b505050506040513d601f19601f820116820180604052508101906123be9190613734565b1561063c5760405162461bcd60e51b815260206004820152601c60248201527f506f736974696f6e4164644d67723a73686f756c64276e74206c6971000000006044820152606401610629565b60008112156124ac576008546004546001600160a01b039182169163d9caed1291163061244261243d86600019613b5b565b6129ca565b6040516001600160e01b031960e086901b1681526001600160a01b0393841660048201529290911660248301526044820152606401600060405180830381600087803b15801561249157600080fd5b505af11580156124a5573d6000803e3d6000fd5b5050505050565b6000811315610d1757600061250a6124c3836129ca565b600480546040805163313ce56760e01b815290516001600160a01b039092169263313ce5679282820192602092908290030181865afa158015612160573d6000803e3d6000fd5b6004805460085460405163095ea7b360e01b81526001600160a01b039182169381019390935260248301849052929350919091169063095ea7b3906044016020604051808303816000875af1158015612567573d6000803e3d6000fd5b505050506040513d601f19601f820116820180604052508101906106659190613933565b6040516370a0823160e01b81526001600160a01b038281166004830152600091908416906370a0823190602401602060405180830381865afa1580156125d5573d6000803e3d6000fd5b505050506040513d601f19601f820116820180604052508101906125f99190613734565b905060005b8451811015611a2a5784818151811061261957612619613202565b60200260200101516001600160a01b031663612c39b76040518163ffffffff1660e01b8152600401606060405180830381865afa15801561265e573d6000803e3d6000fd5b505050506040513d601f19601f820116820180604052508101906126829190613950565b51156126fa5784818151811061269a5761269a613202565b60200260200101516001600160a01b03166340a542fe886040518263ffffffff1660e01b81526004016126cd9190613b8b565b600060405180830381600087803b1580156126e757600080fd5b505af19250505080156126f8575060015b505b80612704816139d4565b9150506125fe565b60408051600380825260808201909252906020820160608036833750505060c08301521515606090910152565b61274281612a1c565b6001600160801b031660c09092019190915250565b80612763576002612766565b60015b60ff1660409092019190915250565b6000816040015160ff1660010361278e57506001919050565b816040015160ff166002036127a557506000919050565b60405162461bcd60e51b815260206004820152601b60248201527f696e76616c6964206f7264657220747269676765722061626f766500000000006044820152606401610629565b606061053f6001600160a01b03831660145b6060600061280e836002613c10565b612819906002613c27565b6001600160401b0381111561283057612830612bb1565b6040519080825280601f01601f19166020018201604052801561285a576020820181803683370190505b509050600360fc1b8160008151811061287557612875613202565b60200101906001600160f81b031916908160001a905350600f60fb1b816001815181106128a4576128a4613202565b60200101906001600160f81b031916908160001a90535060006128c8846002613c10565b6128d3906001613c27565b90505b600181111561294b576f181899199a1a9b1b9c1cb0b131b232b360811b85600f166010811061290757612907613202565b1a60f81b82828151811061291d5761291d613202565b60200101906001600160f81b031916908160001a90535060049490941c9361294481613c3a565b90506128d6565b50831561174e5760405162461bcd60e51b815260206004820181905260248201527f537472696e67733a20686578206c656e67746820696e73756666696369656e746044820152606401610629565b60006129a86012600a613d35565b6129b660ff8416600a613d44565b6129c09085613c10565b61174e9190613d50565b600080821215611faf5760405162461bcd60e51b815260206004820181905260248201527f53616665436173743a2076616c7565206d75737420626520706f7369746976656044820152606401610629565b60006001600160801b03821115611faf5760405162461bcd60e51b815260206004820152602760248201527f53616665436173743a2076616c756520646f65736e27742066697420696e20316044820152663238206269747360c81b6064820152608401610629565b6040805160e08082018352600080835260208084018290528385018290526060808501839052608080860184905286516101a081018852848152928301849052958201839052810182905293840181905260a084810182905260c0850182905291840181905261010084018190526101208401819052610140840181905261016084018190526101808401529091908201908152602001606081525090565b600060208284031215612b3657600080fd5b81356001600160e01b03198116811461174e57600080fd5b60005b83811015612b69578181015183820152602001612b51565b50506000910152565b60008151808452612b8a816020860160208601612b4e565b601f01601f19169290920160200192915050565b60208152600061174e6020830184612b72565b634e487b7160e01b600052604160045260246000fd5b6040516101e081016001600160401b0381118282101715612bea57612bea612bb1565b60405290565b6040516101a081016001600160401b0381118282101715612bea57612bea612bb1565b60405161018081016001600160401b0381118282101715612bea57612bea612bb1565b604051601f8201601f191681016001600160401b0381118282101715612c5e57612c5e612bb1565b604052919050565b60ff81168114610d1757600080fd5b8035612c8081612c66565b919050565b63ffffffff81168114610d1757600080fd5b8035612c8081612c85565b6001600160a01b0381168114610d1757600080fd5b8035612c8081612ca2565b65ffffffffffff81168114610d1757600080fd5b8035612c8081612cc2565b6001600160801b0381168114610d1757600080fd5b8035612c8081612ce1565b6001600160401b0381168114610d1757600080fd5b8035612c8081612d01565b8015158114610d1757600080fd5b8035612c8081612d21565b60006001600160401b03821115612d5357612d53612bb1565b5060051b60200190565b600082601f830112612d6e57600080fd5b81356020612d83612d7e83612d3a565b612c36565b82815260059290921b84018101918181019086841115612da257600080fd5b8286015b84811015612dbd5780358352918301918301612da6565b509695505050505050565b60006101e08284031215612ddb57600080fd5b612de3612bc7565b9050612dee82612cb7565b8152612dfc60208301612d2f565b602082015260408201356040820152612e1760608301612d2f565b6060820152612e2860808301612cb7565b608082015260a082013560a082015260c082013560c082015260e082013560e0820152610100612e59818401612d2f565b90820152610120612e6b838201612c75565b90820152610140612e7d838201612d16565b90820152610160828101359082015261018080830135908201526101a0612ea5818401612c75565b908201526101c0828101356001600160401b03811115612ec457600080fd5b612ed085828601612d5d565b82840152505092915050565b6000808284036101c0811215612ef157600080fd5b6101a080821215612f0157600080fd5b612f09612bf0565b9150612f1485612c75565b8252612f2260208601612c97565b6020830152612f3360408601612c75565b6040830152612f4460608601612cb7565b6060830152612f5560808601612cd6565b6080830152612f6660a08601612cf6565b60a0830152612f7760c08601612cf6565b60c0830152612f8860e08601612cf6565b60e0830152610100612f9b818701612cf6565b90830152610120612fad868201612d16565b90830152610140612fbf868201612d16565b90830152610160612fd1868201612cf6565b9083015261018085810135908301529092508301356001600160401b03811115612ffa57600080fd5b61300685828601612dc8565b9150509250929050565b60006020828403121561302257600080fd5b5035919050565b6000806040838503121561303c57600080fd5b82359150602083013561304e81612ca2565b809150509250929050565b60006020828403121561306b57600080fd5b81356001600160401b0381111561308157600080fd5b61308d84828501612dc8565b949350505050565b6000602082840312156130a757600080fd5b813561174e81612ca2565b600080604083850312156130c557600080fd5b82356130d081612d21565b9150602083013561304e81612d21565b600181811c908216806130f457607f821691505b6020821081036112ad57634e487b7160e01b600052602260045260246000fd5b8051612c8081612ca2565b8051612c8081612d21565b8051612c8081612c85565b80516001600160d81b0381168114612c8057600080fd5b6000610180828403121561315f57600080fd5b613167612c13565b61317083613114565b815261317e6020840161311f565b602082015261318f6040840161312a565b60408201526131a060608401613135565b60608201526080838101519082015260a0808401519082015260c0808401519082015260e08084015190820152610100808401519082015261012080840151908201526101408084015190820152610160928301519281019290925250919050565b634e487b7160e01b600052603260045260246000fd5b805160ff1682526020810151613236602084018263ffffffff169052565b50604081015161324b604084018260ff169052565b50606081015161326660608401826001600160a01b03169052565b506080810151613280608084018265ffffffffffff169052565b5060a081015161329b60a08401826001600160801b03169052565b5060c08101516132b660c08401826001600160801b03169052565b5060e08101516132d160e08401826001600160801b03169052565b50610100818101516001600160801b038116848301525050610120818101516001600160401b038116848301525050610140818101516001600160401b038116848301525050610160818101516001600160801b03811684830152505061018090810151910152565b600081518084526020808501945080840160005b8381101561336a5781518752958201959082019060010161334e565b509495945050505050565b600061026060018060a01b0383511684526020830151151560208501526040830151604085015260608301511515606085015260808301511515608085015260a08301516133c660a0860182613218565b5060c0830151816102408601526133df8286018261333a565b95945050505050565b6000602080830181845280855180835260408601915060408160051b870101925083870160005b8281101561343d57603f1988860301845261342b858351613375565b9450928501929085019060010161340f565b5092979650505050505050565b8051612c8081612c66565b8051612c8081612cc2565b8051612c8081612ce1565b8051612c8081612d01565b6000602080838503121561348957600080fd5b82516001600160401b0381111561349f57600080fd5b8301601f810185136134b057600080fd5b80516134be612d7e82612d3a565b8181526101a091820283018401918482019190888411156134de57600080fd5b938501935b838510156135e55780858a0312156134fb5760008081fd5b613503612bf0565b61350c8661344a565b815261351987870161312a565b87820152604061352a81880161344a565b90820152606061353b878201613114565b90820152608061354c878201613455565b9082015260a061355d878201613460565b9082015260c061356e878201613460565b9082015260e061357f878201613460565b90820152610100613591878201613460565b908201526101206135a387820161346b565b908201526101406135b587820161346b565b908201526101606135c7878201613460565b908201526101808681015190820152835293840193918501916134e3565b50979650505050505050565b80516001600160a01b0316825260006101e06020830151613616602086018215159052565b50604083015160408501526060830151613634606086018215159052565b50608083015161364f60808601826001600160a01b03169052565b5060a083015160a085015260c083015160c085015260e083015160e0850152610100808401516136828287018215159052565b50506101208381015160ff90811691860191909152610140808501516001600160401b031690860152610160808501519086015261018080850151908601526101a080850151909116908501526101c0808401518186018390526136e88387018261333a565b9695505050505050565b60208152600061174e60208301846135f1565b634e487b7160e01b600052601160045260246000fd5b60ff818116838216019081111561053f5761053f613705565b60006020828403121561374657600080fd5b5051919050565b80516001600160a01b03168252602081015161376d602084018215159052565b506040810151613785604084018263ffffffff169052565b5060608101516137a060608401826001600160d81b03169052565b506080818101519083015260a0808201519083015260c0808201519083015260e0808201519083015261010080820151908301526101208082015190830152610140808201519083015261016090810151910152565b60006101a080835261380a818401866135f1565b91505061174e602083018461374d565b6000602080838503121561382d57600080fd5b82516001600160401b0381111561384357600080fd5b8301601f8101851361385457600080fd5b8051613862612d7e82612d3a565b81815260059190911b8201830190838101908783111561388157600080fd5b928401925b8284101561389f57835182529284019290840190613886565b979650505050505050565b60006101c08083526138be818401876135f1565b90506138cd602084018661374d565b8281036101a08401526136e8818561333a565b818103600083128015838313168383128216171561390057613900613705565b5092915050565b6001600160a01b038481168252831660208201526060604082018190526000906133df9083018461333a565b60006020828403121561394557600080fd5b815161174e81612d21565b60006060828403121561396257600080fd5b604051606081018181106001600160401b038211171561398457613984612bb1565b604052825161399281612d21565b815260208301516139a281612d21565b602082015260408301516139b581612d21565b60408201529392505050565b60208152600061174e6020830184613375565b6000600182016139e6576139e6613705565b5060010190565b602081526139ff602082018351613218565b60006020830151610220806101c0850152613a1e6102408501836135f1565b915060ff6040860151166101e08501526060850151601f1985840301610200860152613a4a8382612b72565b925050608085015181850152508091505092915050565b7f416363657373436f6e74726f6c3a206163636f756e7420000000000000000000815260008351613a99816017850160208801612b4e565b7001034b99036b4b9b9b4b733903937b6329607d1b6017918401918201528351613aca816028840160208801612b4e565b01602801949350505050565b60008060408385031215613ae957600080fd5b505080516020909101519092909150565b8082018281126000831280158216821582161715613b1a57613b1a613705565b505092915050565b6000600160ff1b8201613b3757613b37613705565b5060000390565b600060208284031215613b5057600080fd5b815161174e81612c66565b80820260008212600160ff1b84141615613b7757613b77613705565b818105831482151761053f5761053f613705565b6020815260008251610220806020850152613baa6102408501836135f1565b91506020850151613bbe604086018261374d565b506040850151848303601f19016101c0860152613bdb838261333a565b60608701516001600160a01b039081166101e088015260808801511661020087015260a0909601519190940152509192915050565b808202811582820484141761053f5761053f613705565b8082018082111561053f5761053f613705565b600081613c4957613c49613705565b506000190190565b600181815b80851115613c8c578160001904821115613c7257613c72613705565b80851615613c7f57918102915b93841c9390800290613c56565b509250929050565b600082613ca35750600161053f565b81613cb05750600061053f565b8160018114613cc65760028114613cd057613cec565b600191505061053f565b60ff841115613ce157613ce1613705565b50506001821b61053f565b5060208310610133831016604e8410600b8410161715613d0f575081810a61053f565b613d198383613c51565b8060001904821115613d2d57613d2d613705565b029392505050565b600061174e60ff841683613c94565b600061174e8383613c94565b600082613d6d57634e487b7160e01b600052601260045260246000fd5b50049056fea2646970667358221220f7e7f134145c3d7ad25a85ccc352c744ec430aece191f7e0b97e8fa55100f14e64736f6c63430008110033",
  "linkReferences": {},
  "deployedLinkReferences": {}
}