{"contracts/utils/TransferHelper.sol":{"Precision":{"abi":[{"inputs":[],"name":"BASIS_POINTS_DIVISOR","outputs":[{"internalType":"uint256","name":"","type":"uint256"}],"stateMutability":"view","type":"function"},{"inputs":[],"name":"FEE_RATE_PRECISION","outputs":[{"internalType":"uint256","name":"","type":"uint256"}],"stateMutability":"view","type":"function"},{"inputs":[],"name":"FEE_RATE_PRECISION_DECIMALS","outputs":[{"internalType":"uint256","name":"","type":"uint256"}],"stateMutability":"view","type":"function"}],"evm":{"bytecode":{"linkReferences":{},"object":"6101cc61003a600b82828239805160001a60731461002d57634e487b7160e01b600052600060045260246000fd5b30600052607381538281f3fe730000000000000000000000000000000000000000301460806040526004361061004b5760003560e01c8063126082cf14610050578063dd30ba911461006d578063f4ca4d1d14610075575b600080fd5b61005b6305f5e10081565b60405190815260200160405180910390f35b61005b600881565b61005b6100846008600a610183565b81565b634e487b7160e01b600052601160045260246000fd5b600181815b808511156100d85781600019048211156100be576100be610087565b808516156100cb57918102915b93841c93908002906100a2565b509250929050565b6000826100ef5750600161017d565b816100fc5750600061017d565b8160018114610112576002811461011c57610138565b600191505061017d565b60ff84111561012d5761012d610087565b50506001821b61017d565b5060208310610133831016604e8410600b841016171561015b575081810a61017d565b610165838361009d565b806000190482111561017957610179610087565b0290505b92915050565b600061018f83836100e0565b939250505056fea26469706673582212200e154fd758b7a00ff1c3bae87b31b0f2b6fcfaa71e6d03e53e13df7fc20c658464736f6c63430008110033","opcodes":"PUSH2 0x1CC PUSH2 0x3A PUSH1 0xB DUP3 DUP3 DUP3 CODECOPY DUP1 MLOAD PUSH1 0x0 BYTE PUSH1 0x73 EQ PUSH2 0x2D JUMPI PUSH4 0x4E487B71 PUSH1 0xE0 SHL PUSH1 0x0 MSTORE PUSH1 0x0 PUSH1 0x4 MSTORE PUSH1 0x24 PUSH1 0x0 REVERT JUMPDEST ADDRESS PUSH1 0x0 MSTORE PUSH1 0x73 DUP2 MSTORE8 DUP3 DUP2 RETURN INVALID PUSH20 0x0 ADDRESS EQ PUSH1 0x80 PUSH1 0x40 MSTORE PUSH1 0x4 CALLDATASIZE LT PUSH2 0x4B JUMPI PUSH1 0x0 CALLDATALOAD PUSH1 0xE0 SHR DUP1 PUSH4 0x126082CF EQ PUSH2 0x50 JUMPI DUP1 PUSH4 0xDD30BA91 EQ PUSH2 0x6D JUMPI DUP1 PUSH4 0xF4CA4D1D EQ PUSH2 0x75 JUMPI JUMPDEST PUSH1 0x0 DUP1 REVERT JUMPDEST PUSH2 0x5B PUSH4 0x5F5E100 DUP2 JUMP JUMPDEST PUSH1 0x40 MLOAD SWAP1 DUP2 MSTORE PUSH1 0x20 ADD PUSH1 0x40 MLOAD DUP1 SWAP2 SUB SWAP1 RETURN JUMPDEST PUSH2 0x5B PUSH1 0x8 DUP2 JUMP JUMPDEST PUSH2 0x5B PUSH2 0x84 PUSH1 0x8 PUSH1 0xA PUSH2 0x183 JUMP JUMPDEST DUP2 JUMP JUMPDEST PUSH4 0x4E487B71 PUSH1 0xE0 SHL PUSH1 0x0 MSTORE PUSH1 0x11 PUSH1 0x4 MSTORE PUSH1 0x24 PUSH1 0x0 REVERT JUMPDEST PUSH1 0x1 DUP2 DUP2 JUMPDEST DUP1 DUP6 GT ISZERO PUSH2 0xD8 JUMPI DUP2 PUSH1 0x0 NOT DIV DUP3 GT ISZERO PUSH2 0xBE JUMPI PUSH2 0xBE PUSH2 0x87 JUMP JUMPDEST DUP1 DUP6 AND ISZERO PUSH2 0xCB JUMPI SWAP2 DUP2 MUL SWAP2 JUMPDEST SWAP4 DUP5 SHR SWAP4 SWAP1 DUP1 MUL SWAP1 PUSH2 0xA2 JUMP JUMPDEST POP SWAP3 POP SWAP3 SWAP1 POP JUMP JUMPDEST PUSH1 0x0 DUP3 PUSH2 0xEF JUMPI POP PUSH1 0x1 PUSH2 0x17D JUMP JUMPDEST DUP2 PUSH2 0xFC JUMPI POP PUSH1 0x0 PUSH2 0x17D JUMP JUMPDEST DUP2 PUSH1 0x1 DUP2 EQ PUSH2 0x112 JUMPI PUSH1 0x2 DUP2 EQ PUSH2 0x11C JUMPI PUSH2 0x138 JUMP JUMPDEST PUSH1 0x1 SWAP2 POP POP PUSH2 0x17D JUMP JUMPDEST PUSH1 0xFF DUP5 GT ISZERO PUSH2 0x12D JUMPI PUSH2 0x12D PUSH2 0x87 JUMP JUMPDEST POP POP PUSH1 0x1 DUP3 SHL PUSH2 0x17D JUMP JUMPDEST POP PUSH1 0x20 DUP4 LT PUSH2 0x133 DUP4 LT AND PUSH1 0x4E DUP5 LT PUSH1 0xB DUP5 LT AND OR ISZERO PUSH2 0x15B JUMPI POP DUP2 DUP2 EXP PUSH2 0x17D JUMP JUMPDEST PUSH2 0x165 DUP4 DUP4 PUSH2 0x9D JUMP JUMPDEST DUP1 PUSH1 0x0 NOT DIV DUP3 GT ISZERO PUSH2 0x179 JUMPI PUSH2 0x179 PUSH2 0x87 JUMP JUMPDEST MUL SWAP1 POP JUMPDEST SWAP3 SWAP2 POP POP JUMP JUMPDEST PUSH1 0x0 PUSH2 0x18F DUP4 DUP4 PUSH2 0xE0 JUMP JUMPDEST SWAP4 SWAP3 POP POP POP JUMP INVALID LOG2 PUSH5 0x6970667358 0x22 SLT KECCAK256 0xE ISZERO 0x4F 0xD7 PC 0xB7 LOG0 0xF CALL 0xC3 0xBA 0xE8 PUSH28 0x31B0F2B6FCFAA71E6D03E53E13DF7FC20C658464736F6C6343000811 STOP CALLER "},"methodIdentifiers":{"BASIS_POINTS_DIVISOR()":"126082cf","FEE_RATE_PRECISION()":"f4ca4d1d","FEE_RATE_PRECISION_DECIMALS()":"dd30ba91"}}}}}