{"contracts/fee/lib/FeeRouterLib.sol":{"FeeRouterLib":{"abi":[{"inputs":[],"name":"FEE_RATE_PRECISION","outputs":[{"internalType":"uint256","name":"","type":"uint256"}],"stateMutability":"view","type":"function"}],"evm":{"bytecode":{"linkReferences":{},"object":"6101a861003a600b82828239805160001a60731461002d57634e487b7160e01b600052600060045260246000fd5b30600052607381538281f3fe73000000000000000000000000000000000000000030146080604052600436106100355760003560e01c8063f4ca4d1d1461003a575b600080fd5b610042610054565b60405190815260200160405180910390f35b6100606008600a61015f565b81565b634e487b7160e01b600052601160045260246000fd5b600181815b808511156100b457816000190482111561009a5761009a610063565b808516156100a757918102915b93841c939080029061007e565b509250929050565b6000826100cb57506001610159565b816100d857506000610159565b81600181146100ee57600281146100f857610114565b6001915050610159565b60ff84111561010957610109610063565b50506001821b610159565b5060208310610133831016604e8410600b8410161715610137575081810a610159565b6101418383610079565b806000190482111561015557610155610063565b0290505b92915050565b600061016b83836100bc565b939250505056fea2646970667358221220e52e9e713d322e51f817b01db39f516220b22b2bf78c2ecb19fde6b5e9cf163464736f6c63430008110033","opcodes":"PUSH2 0x1A8 PUSH2 0x3A PUSH1 0xB DUP3 DUP3 DUP3 CODECOPY DUP1 MLOAD PUSH1 0x0 BYTE PUSH1 0x73 EQ PUSH2 0x2D JUMPI PUSH4 0x4E487B71 PUSH1 0xE0 SHL PUSH1 0x0 MSTORE PUSH1 0x0 PUSH1 0x4 MSTORE PUSH1 0x24 PUSH1 0x0 REVERT JUMPDEST ADDRESS PUSH1 0x0 MSTORE PUSH1 0x73 DUP2 MSTORE8 DUP3 DUP2 RETURN INVALID PUSH20 0x0 ADDRESS EQ PUSH1 0x80 PUSH1 0x40 MSTORE PUSH1 0x4 CALLDATASIZE LT PUSH2 0x35 JUMPI PUSH1 0x0 CALLDATALOAD PUSH1 0xE0 SHR DUP1 PUSH4 0xF4CA4D1D EQ PUSH2 0x3A JUMPI JUMPDEST PUSH1 0x0 DUP1 REVERT JUMPDEST PUSH2 0x42 PUSH2 0x54 JUMP JUMPDEST PUSH1 0x40 MLOAD SWAP1 DUP2 MSTORE PUSH1 0x20 ADD PUSH1 0x40 MLOAD DUP1 SWAP2 SUB SWAP1 RETURN JUMPDEST PUSH2 0x60 PUSH1 0x8 PUSH1 0xA PUSH2 0x15F JUMP JUMPDEST DUP2 JUMP JUMPDEST PUSH4 0x4E487B71 PUSH1 0xE0 SHL PUSH1 0x0 MSTORE PUSH1 0x11 PUSH1 0x4 MSTORE PUSH1 0x24 PUSH1 0x0 REVERT JUMPDEST PUSH1 0x1 DUP2 DUP2 JUMPDEST DUP1 DUP6 GT ISZERO PUSH2 0xB4 JUMPI DUP2 PUSH1 0x0 NOT DIV DUP3 GT ISZERO PUSH2 0x9A JUMPI PUSH2 0x9A PUSH2 0x63 JUMP JUMPDEST DUP1 DUP6 AND ISZERO PUSH2 0xA7 JUMPI SWAP2 DUP2 MUL SWAP2 JUMPDEST SWAP4 DUP5 SHR SWAP4 SWAP1 DUP1 MUL SWAP1 PUSH2 0x7E JUMP JUMPDEST POP SWAP3 POP SWAP3 SWAP1 POP JUMP JUMPDEST PUSH1 0x0 DUP3 PUSH2 0xCB JUMPI POP PUSH1 0x1 PUSH2 0x159 JUMP JUMPDEST DUP2 PUSH2 0xD8 JUMPI POP PUSH1 0x0 PUSH2 0x159 JUMP JUMPDEST DUP2 PUSH1 0x1 DUP2 EQ PUSH2 0xEE JUMPI PUSH1 0x2 DUP2 EQ PUSH2 0xF8 JUMPI PUSH2 0x114 JUMP JUMPDEST PUSH1 0x1 SWAP2 POP POP PUSH2 0x159 JUMP JUMPDEST PUSH1 0xFF DUP5 GT ISZERO PUSH2 0x109 JUMPI PUSH2 0x109 PUSH2 0x63 JUMP JUMPDEST POP POP PUSH1 0x1 DUP3 SHL PUSH2 0x159 JUMP JUMPDEST POP PUSH1 0x20 DUP4 LT PUSH2 0x133 DUP4 LT AND PUSH1 0x4E DUP5 LT PUSH1 0xB DUP5 LT AND OR ISZERO PUSH2 0x137 JUMPI POP DUP2 DUP2 EXP PUSH2 0x159 JUMP JUMPDEST PUSH2 0x141 DUP4 DUP4 PUSH2 0x79 JUMP JUMPDEST DUP1 PUSH1 0x0 NOT DIV DUP3 GT ISZERO PUSH2 0x155 JUMPI PUSH2 0x155 PUSH2 0x63 JUMP JUMPDEST MUL SWAP1 POP JUMPDEST SWAP3 SWAP2 POP POP JUMP JUMPDEST PUSH1 0x0 PUSH2 0x16B DUP4 DUP4 PUSH2 0xBC JUMP JUMPDEST SWAP4 SWAP3 POP POP POP JUMP INVALID LOG2 PUSH5 0x6970667358 0x22 SLT KECCAK256 0xE5 0x2E SWAP15 PUSH18 0x3D322E51F817B01DB39F516220B22B2BF78C 0x2E 0xCB NOT REVERT 0xE6 0xB5 0xE9 0xCF AND CALLVALUE PUSH5 0x736F6C6343 STOP ADDMOD GT STOP CALLER "},"methodIdentifiers":{"FEE_RATE_PRECISION()":"f4ca4d1d"}}}}}