{"contracts/fee/FeeRouter.sol":{"FeeRouter":{"abi":[{"anonymous":false,"inputs":[{"indexed":false,"internalType":"uint8","name":"version","type":"uint8"}],"name":"Initialized","type":"event"},{"anonymous":false,"inputs":[{"indexed":true,"internalType":"address","name":"previousOwner","type":"address"},{"indexed":true,"internalType":"address","name":"newOwner","type":"address"}],"name":"OwnershipTransferred","type":"event"},{"anonymous":false,"inputs":[{"indexed":true,"internalType":"bytes32","name":"role","type":"bytes32"},{"indexed":true,"internalType":"bytes32","name":"previousAdminRole","type":"bytes32"},{"indexed":true,"internalType":"bytes32","name":"newAdminRole","type":"bytes32"}],"name":"RoleAdminChanged","type":"event"},{"anonymous":false,"inputs":[{"indexed":true,"internalType":"bytes32","name":"role","type":"bytes32"},{"indexed":true,"internalType":"address","name":"account","type":"address"},{"indexed":true,"internalType":"address","name":"sender","type":"address"}],"name":"RoleGranted","type":"event"},{"anonymous":false,"inputs":[{"indexed":true,"internalType":"bytes32","name":"role","type":"bytes32"},{"indexed":true,"internalType":"address","name":"account","type":"address"},{"indexed":true,"internalType":"address","name":"sender","type":"address"}],"name":"RoleRevoked","type":"event"},{"anonymous":false,"inputs":[{"indexed":true,"internalType":"address","name":"account","type":"address"},{"indexed":true,"internalType":"address","name":"market","type":"address"},{"indexed":false,"internalType":"int256[]","name":"fees","type":"int256[]"},{"indexed":false,"internalType":"uint256","name":"amount","type":"uint256"}],"name":"UpdateFee","type":"event"},{"anonymous":false,"inputs":[{"indexed":true,"internalType":"address","name":"market","type":"address"},{"indexed":false,"internalType":"uint8","name":"kind","type":"uint8"},{"indexed":false,"internalType":"uint256","name":"oldFeeOrRate","type":"uint256"},{"indexed":false,"internalType":"uint256","name":"feeOrRate","type":"uint256"}],"name":"UpdateFeeAndRates","type":"event"},{"anonymous":false,"inputs":[{"indexed":true,"internalType":"address","name":"account","type":"address"},{"indexed":true,"internalType":"address","name":"market","type":"address"},{"indexed":false,"internalType":"int256[]","name":"fees","type":"int256[]"},{"indexed":false,"internalType":"uint256","name":"amount","type":"uint256"}],"name":"UpdatePayoutFee","type":"event"},{"inputs":[],"name":"DEFAULT_ADMIN_ROLE","outputs":[{"internalType":"bytes32","name":"","type":"bytes32"}],"stateMutability":"view","type":"function"},{"inputs":[],"name":"FEE_RATE_PRECISION","outputs":[{"internalType":"uint256","name":"","type":"uint256"}],"stateMutability":"view","type":"function"},{"inputs":[{"internalType":"address","name":"account","type":"address"},{"internalType":"address","name":"token","type":"address"},{"internalType":"int256[]","name":"fees","type":"int256[]"},{"internalType":"uint256","name":"fundfeeLoss","type":"uint256"}],"name":"collectFees","outputs":[],"stateMutability":"nonpayable","type":"function"},{"inputs":[{"internalType":"address","name":"account","type":"address"},{"internalType":"address","name":"token","type":"address"},{"internalType":"int256[]","name":"fees","type":"int256[]"}],"name":"collectFees","outputs":[],"stateMutability":"nonpayable","type":"function"},{"inputs":[{"internalType":"address","name":"market","type":"address"},{"internalType":"bool","name":"isLong","type":"bool"}],"name":"cumulativeFundingRates","outputs":[{"internalType":"int256","name":"","type":"int256"}],"stateMutability":"view","type":"function"},{"inputs":[],"name":"factory","outputs":[{"internalType":"address","name":"","type":"address"}],"stateMutability":"view","type":"function"},{"inputs":[{"internalType":"address","name":"","type":"address"},{"internalType":"uint8","name":"","type":"uint8"}],"name":"feeAndRates","outputs":[{"internalType":"uint256","name":"","type":"uint256"}],"stateMutability":"view","type":"function"},{"inputs":[],"name":"feeVault","outputs":[{"internalType":"address","name":"","type":"address"}],"stateMutability":"view","type":"function"},{"inputs":[],"name":"fundFee","outputs":[{"internalType":"address","name":"","type":"address"}],"stateMutability":"view","type":"function"},{"inputs":[{"internalType":"address","name":"market","type":"address"}],"name":"getExecFee","outputs":[{"internalType":"uint256","name":"","type":"uint256"}],"stateMutability":"view","type":"function"},{"inputs":[{"components":[{"internalType":"address","name":"_market","type":"address"},{"internalType":"bool","name":"_isLong","type":"bool"},{"internalType":"uint256","name":"_oraclePrice","type":"uint256"},{"internalType":"bool","name":"isOpen","type":"bool"},{"internalType":"address","name":"_account","type":"address"},{"internalType":"uint256","name":"_sizeDelta","type":"uint256"},{"internalType":"uint256","name":"_price","type":"uint256"},{"internalType":"uint256","name":"_slippage","type":"uint256"},{"internalType":"bool","name":"_isExec","type":"bool"},{"internalType":"uint8","name":"liqState","type":"uint8"},{"internalType":"uint64","name":"_fromOrder","type":"uint64"},{"internalType":"bytes32","name":"_refCode","type":"bytes32"},{"internalType":"uint256","name":"collateralDelta","type":"uint256"},{"internalType":"uint8","name":"execNum","type":"uint8"},{"internalType":"uint256[]","name":"inputs","type":"uint256[]"}],"internalType":"struct MarketDataTypes.UpdatePositionInputs","name":"params","type":"tuple"},{"components":[{"internalType":"address","name":"market","type":"address"},{"internalType":"bool","name":"isLong","type":"bool"},{"internalType":"uint32","name":"lastTime","type":"uint32"},{"internalType":"uint216","name":"extra3","type":"uint216"},{"internalType":"uint256","name":"size","type":"uint256"},{"internalType":"uint256","name":"collateral","type":"uint256"},{"internalType":"uint256","name":"averagePrice","type":"uint256"},{"internalType":"int256","name":"entryFundingRate","type":"int256"},{"internalType":"int256","name":"realisedPnl","type":"int256"},{"internalType":"uint256","name":"extra0","type":"uint256"},{"internalType":"uint256","name":"extra1","type":"uint256"},{"internalType":"uint256","name":"extra2","type":"uint256"}],"internalType":"struct Position.Props","name":"position","type":"tuple"}],"name":"getFees","outputs":[{"internalType":"int256[]","name":"fees","type":"int256[]"}],"stateMutability":"view","type":"function"},{"inputs":[{"internalType":"address","name":"market","type":"address"},{"internalType":"bool","name":"isLong","type":"bool"}],"name":"getFundingRate","outputs":[{"internalType":"int256","name":"","type":"int256"}],"stateMutability":"view","type":"function"},{"inputs":[{"components":[{"internalType":"address","name":"_market","type":"address"},{"internalType":"bool","name":"_isLong","type":"bool"},{"internalType":"uint256","name":"_oraclePrice","type":"uint256"},{"internalType":"bool","name":"isOpen","type":"bool"},{"internalType":"bool","name":"isCreate","type":"bool"},{"components":[{"internalType":"uint8","name":"version","type":"uint8"},{"internalType":"uint32","name":"updatedAtBlock","type":"uint32"},{"internalType":"uint8","name":"triggerAbove","type":"uint8"},{"internalType":"address","name":"account","type":"address"},{"internalType":"uint48","name":"extra3","type":"uint48"},{"internalType":"uint128","name":"collateral","type":"uint128"},{"internalType":"uint128","name":"size","type":"uint128"},{"internalType":"uint128","name":"price","type":"uint128"},{"internalType":"uint128","name":"extra1","type":"uint128"},{"internalType":"uint64","name":"orderID","type":"uint64"},{"internalType":"uint64","name":"extra2","type":"uint64"},{"internalType":"uint128","name":"extra0","type":"uint128"},{"internalType":"bytes32","name":"refCode","type":"bytes32"}],"internalType":"struct Order.Props","name":"_order","type":"tuple"},{"internalType":"uint256[]","name":"inputs","type":"uint256[]"}],"internalType":"struct MarketDataTypes.UpdateOrderInputs","name":"params","type":"tuple"}],"name":"getOrderFees","outputs":[{"internalType":"int256","name":"fees","type":"int256"}],"stateMutability":"view","type":"function"},{"inputs":[{"internalType":"bytes32","name":"role","type":"bytes32"}],"name":"getRoleAdmin","outputs":[{"internalType":"bytes32","name":"","type":"bytes32"}],"stateMutability":"view","type":"function"},{"inputs":[{"internalType":"address","name":"_account","type":"address"}],"name":"grantControllerRoleByMarketManager","outputs":[],"stateMutability":"nonpayable","type":"function"},{"inputs":[{"internalType":"bytes32","name":"role","type":"bytes32"},{"internalType":"address","name":"account","type":"address"}],"name":"grantRole","outputs":[],"stateMutability":"nonpayable","type":"function"},{"inputs":[{"internalType":"bytes32","name":"role","type":"bytes32"},{"internalType":"address","name":"account","type":"address"}],"name":"hasRole","outputs":[{"internalType":"bool","name":"","type":"bool"}],"stateMutability":"view","type":"function"},{"inputs":[{"internalType":"address","name":"_factory","type":"address"},{"internalType":"address","name":"vault","type":"address"},{"internalType":"address","name":"fundingFee","type":"address"}],"name":"initialize","outputs":[],"stateMutability":"nonpayable","type":"function"},{"inputs":[{"internalType":"address","name":"market","type":"address"},{"internalType":"uint8","name":"_len","type":"uint8"}],"name":"migrateFeeAndRates","outputs":[],"stateMutability":"nonpayable","type":"function"},{"inputs":[],"name":"owner","outputs":[{"internalType":"address","name":"","type":"address"}],"stateMutability":"view","type":"function"},{"inputs":[{"internalType":"address","name":"account","type":"address"},{"internalType":"address","name":"token","type":"address"},{"internalType":"int256[]","name":"fees","type":"int256[]"},{"internalType":"uint256","name":"feesTotal","type":"uint256"}],"name":"payoutFees","outputs":[],"stateMutability":"nonpayable","type":"function"},{"inputs":[],"name":"renounceOwnership","outputs":[],"stateMutability":"nonpayable","type":"function"},{"inputs":[{"internalType":"bytes32","name":"role","type":"bytes32"},{"internalType":"address","name":"account","type":"address"}],"name":"renounceRole","outputs":[],"stateMutability":"nonpayable","type":"function"},{"inputs":[{"internalType":"bytes32","name":"role","type":"bytes32"},{"internalType":"address","name":"account","type":"address"}],"name":"revokeRole","outputs":[],"stateMutability":"nonpayable","type":"function"},{"inputs":[{"internalType":"address","name":"market","type":"address"},{"internalType":"uint256[]","name":"rates","type":"uint256[]"}],"name":"setFeeAndRates","outputs":[],"stateMutability":"nonpayable","type":"function"},{"inputs":[{"internalType":"address","name":"vault","type":"address"}],"name":"setFeeVault","outputs":[],"stateMutability":"nonpayable","type":"function"},{"inputs":[{"internalType":"address","name":"fundingFee","type":"address"}],"name":"setFundFee","outputs":[],"stateMutability":"nonpayable","type":"function"},{"inputs":[{"internalType":"bytes4","name":"interfaceId","type":"bytes4"}],"name":"supportsInterface","outputs":[{"internalType":"bool","name":"","type":"bool"}],"stateMutability":"view","type":"function"},{"inputs":[{"internalType":"address","name":"to","type":"address"}],"name":"transferAdmin","outputs":[],"stateMutability":"nonpayable","type":"function"},{"inputs":[{"internalType":"address","name":"newOwner","type":"address"}],"name":"transferOwnership","outputs":[],"stateMutability":"nonpayable","type":"function"},{"inputs":[{"internalType":"address","name":"market","type":"address"},{"internalType":"uint256","name":"longSize","type":"uint256"},{"internalType":"uint256","name":"shortSize","type":"uint256"}],"name":"updateCumulativeFundingRate","outputs":[],"stateMutability":"nonpayable","type":"function"},{"inputs":[{"internalType":"address","name":"token","type":"address"},{"internalType":"address","name":"to","type":"address"},{"internalType":"uint256","name":"amount","type":"uint256"}],"name":"withdraw","outputs":[],"stateMutability":"nonpayable","type":"function"}],"evm":{"bytecode":{"linkReferences":{},"object":"608060405234801561001057600080fd5b5061001a3361001f565b610071565b600180546001600160a01b038381166001600160a01b0319831681179093556040519116919082907f8be0079c531659141344cd1fd0a4f28419497f9722a3daafe3b4186f6b6457e090600090a35050565b612d7c80620000816000396000f3fe608060405234801561001057600080fd5b50600436106101f05760003560e01c80638da5cb5b1161010f578063c8830bf5116100a2578063d9caed1211610071578063d9caed1214610485578063e50f19ef14610498578063f2fde38b146104ab578063f4ca4d1d146104be57600080fd5b8063c8830bf514610421578063c9cf9f3a14610434578063d547741f14610447578063d87780681461045a57600080fd5b8063a591f97f116100de578063a591f97f146103d5578063c0c53b8b146103e8578063c45a0155146103fb578063c6f83ad11461040e57600080fd5b80638da5cb5b1461039657806391d14854146103a7578063966ace28146103ba578063a217fddf146103cd57600080fd5b806336568abe11610187578063715018a611610156578063715018a61461035557806375829def1461035d5780637dd49023146103705780637fe4a6981461038357600080fd5b806336568abe146102fc578063415102631461030f578063478222c21461032f5780635bac2f601461034257600080fd5b8063248a9ca3116101c3578063248a9ca3146102885780632f2ff15d146102ab57806333abd028146102be57806334f32e25146102e957600080fd5b806301ffc9a7146101f557806309d398971461021d5780631a6ca8091461026057806320981df414610275575b600080fd5b610208610203366004611f38565b6104c6565b60405190151581526020015b60405180910390f35b61025261022b366004611f87565b6001600160a01b031660009081526006602090815260408083206003845290915290205490565b604051908152602001610214565b61027361026e36600461212b565b6104fd565b005b6102526102833660046121ad565b610698565b6102526102963660046121e6565b60009081526020819052604090206001015490565b6102736102b93660046121ff565b61071c565b6004546102d1906001600160a01b031681565b6040516001600160a01b039091168152602001610214565b6102526102f73660046121ad565b610746565b61027361030a3660046121ff565b610781565b61032261031d366004612330565b6107ff565b60405161021491906124b9565b6003546102d1906001600160a01b031681565b6102736103503660046124cc565b610828565b610273610a34565b61027361036b366004611f87565b610a48565b61027361037e3660046124f8565b610a72565b610273610391366004611f87565b610c41565b6001546001600160a01b03166102d1565b6102086103b53660046121ff565b610c6b565b6102736103c836600461212b565b610c94565b610252600081565b6102736103e3366004611f87565b610cfb565b6102736103f6366004612547565b610d90565b6005546102d1906001600160a01b031681565b61027361041c366004612592565b611007565b61025261042f3660046126ee565b6110c1565b610273610442366004611f87565b611142565b6102736104553660046121ff565b6111d7565b6102526104683660046124cc565b600660209081526000928352604080842090915290825290205481565b6102736104933660046127bc565b6111fc565b6102736104a63660046127fd565b61129a565b6102736104b9366004611f87565b6112fc565b610252611375565b60006001600160e01b03198216637965db0b60e01b14806104f757506301ffc9a760e01b6001600160e01b03198316145b92915050565b61050633611384565b8061053657506105367fcb58d6d985142a614029cdf01861b4fe094d5919a47e69b8310dc4093d9d6ad033610c6b565b61055b5760405162461bcd60e51b81526004016105529061285e565b60405180910390fd5b6003546040516370a0823160e01b81526001600160a01b0391821660048201526000918516906370a0823190602401602060405180830381865afa1580156105a7573d6000803e3d6000fd5b505050506040513d601f19601f820116820180604052508101906105cb9190612895565b9050818111156105d85750805b600354604051636ce5768960e11b81526001600160a01b038681166004830152336024830152604482018490529091169063d9caed1290606401600060405180830381600087803b15801561062c57600080fd5b505af1158015610640573d6000803e3d6000fd5b50505050336001600160a01b0316856001600160a01b03167f66f918a5780b532a6d1d0d9d5b8bb0e9b5180775146dd5c853b36d345b9d104385846040516106899291906128ae565b60405180910390a35050505050565b60048054604051630826077d60e21b81526001600160a01b03858116938201939093528315156024820152600092909116906320981df4906044015b602060405180830381865afa1580156106f1573d6000803e3d6000fd5b505050506040513d601f19601f820116820180604052508101906107159190612895565b9392505050565b600082815260208190526040902060010154610737816114b0565b61074183836114ba565b505050565b6003546040516334f32e2560e01b81526001600160a01b038481166004830152831515602483015260009216906334f32e25906044016106d4565b6001600160a01b03811633146107f15760405162461bcd60e51b815260206004820152602f60248201527f416363657373436f6e74726f6c3a2063616e206f6e6c792072656e6f756e636560448201526e103937b632b9903337b91039b2b63360891b6064820152608401610552565b6107fb828261153e565b5050565b6060610715836108218560000151866020015186608001518760e001516115a3565b6006611638565b7f8d1089725c0dc266707fa6207730fb801dcd03108bfed7a21099bd303651d2b760006108558133610c6b565b905080156108b25762093a806002544261086f91906128e6565b106108ad5760405162461bcd60e51b815260206004820152600e60248201526d1858c81d1a5b59481c185cdcd95960921b6044820152606401610552565b6108bc565b6108bc82336117e8565b6000846001600160a01b031663f29ebf616040518163ffffffff1660e01b81526004016020604051808303816000875af11580156108fe573d6000803e3d6000fd5b505050506040513d601f19601f8201168201806040525081019061092291906128f9565b905060005b8460ff168160ff161015610a2c57604051631b0ef00d60e31b81526001600160a01b03878116600483015260ff831660248301526000919084169063d877806890604401602060405180830381865afa158015610988573d6000803e3d6000fd5b505050506040513d601f19601f820116820180604052508101906109ac9190612895565b6001600160a01b038816600081815260066020908152604080832060ff88168085529083529281902085905580519283529082018490528101839052919250907f8e26fb53d63c548677b068d08742bea435b6ecb7911ab3c5ad68fbccddeaf5fe9060600160405180910390a25080610a2481612916565b915050610927565b505050505050565b610a3c611841565b610a46600061189b565b565b6000610a53816114b0565b610a5e6000836118ed565b610a678261189b565b6107fb60003361153e565b7f8d1089725c0dc266707fa6207730fb801dcd03108bfed7a21099bd303651d2b76000610a9f8133610c6b565b90508015610afc5762093a8060025442610ab991906128e6565b10610af75760405162461bcd60e51b815260206004820152600e60248201526d1858c81d1a5b59481c185cdcd95960921b6044820152606401610552565b610b06565b610b0682336117e8565b6000835111610b485760405162461bcd60e51b815260206004820152600e60248201526d696e76616c696420706172616d7360901b6044820152606401610552565b60005b83518160ff161015610c3a576000848260ff1681518110610b6e57610b6e612935565b60200260200101519050848260ff1681518110610b8d57610b8d612935565b6020908102919091018101516001600160a01b038816600081815260068452604080822060ff88168084529552902091909155865190917f8e26fb53d63c548677b068d08742bea435b6ecb7911ab3c5ad68fbccddeaf5fe91859185918a91908110610bfb57610bfb612935565b6020908102919091018101516040805160ff90951685529184019290925282015260600160405180910390a25080610c3281612916565b915050610b4b565b5050505050565b7f8d1089725c0dc266707fa6207730fb801dcd03108bfed7a21099bd303651d2b76101f0816114b0565b6000918252602082815260408084206001600160a01b0393909316845291905290205460ff1690565b610c9d33611384565b80610ccd5750610ccd7fcb58d6d985142a614029cdf01861b4fe094d5919a47e69b8310dc4093d9d6ad033610c6b565b610ce95760405162461bcd60e51b81526004016105529061285e565b610cf5848484846118f7565b50505050565b610d247f241ecf16d79d0f8dbfb92cbc07fe17840425976cf0667f022fe9877caa831b086114b0565b6001600160a01b038116610d6e5760405162461bcd60e51b81526020600482015260116024820152701a5b9d985b1a5908199959481d985d5b1d607a1b6044820152606401610552565b600380546001600160a01b0319166001600160a01b0392909216919091179055565b600154600160a81b900460ff1615808015610db6575060018054600160a01b900460ff16105b80610dd65750303b158015610dd6575060018054600160a01b900460ff16145b610e395760405162461bcd60e51b815260206004820152602e60248201527f496e697469616c697a61626c653a20636f6e747261637420697320616c72656160448201526d191e481a5b9a5d1a585b1a5e995960921b6064820152608401610552565b6001805460ff60a01b1916600160a01b1790558015610e66576001805460ff60a81b1916600160a81b1790555b6001600160a01b038416610eae5760405162461bcd60e51b815260206004820152600f60248201526e696e76616c6964206164647265737360881b6044820152606401610552565b6001600160a01b038316610ef85760405162461bcd60e51b81526020600482015260116024820152701a5b9d985b1a5908199959481d985d5b1d607a1b6044820152606401610552565b6001600160a01b038216610f405760405162461bcd60e51b815260206004820152600f60248201526e696e76616c69642066756e6446656560881b6044820152606401610552565b610f4984611a3d565b600580546001600160a01b038087166001600160a01b031992831617909255600380548684169083161790556004805492851692909116919091179055610f916000336114ba565b610fbb7f241ecf16d79d0f8dbfb92cbc07fe17840425976cf0667f022fe9877caa831b08336114ba565b8015610cf5576001805460ff60a81b191681556040519081527f7f26b83ff96e1f2b6a682f133852f6798a09c465da95921460cefb38474024989060200160405180910390a150505050565b61101033611384565b61104d5760405162461bcd60e51b815260206004820152600e60248201526d1a5b9d985b1a59081b585c9ad95d60921b6044820152606401610552565b6004805460405163c6f83ad160e01b81526001600160a01b0386811693820193909352602481018590526044810184905291169063c6f83ad190606401600060405180830381600087803b1580156110a457600080fd5b505af11580156110b8573d6000803e3d6000fd5b50505050505050565b6000808260600151156110d6575060006110da565b5060015b60006110fe84600001518560a0015160c001516001600160801b0316846006611a60565b84516001600160a01b0316600090815260066020908152604080832060038452909152902054909150611139611134828461294b565b611af5565b95945050505050565b61116b7f241ecf16d79d0f8dbfb92cbc07fe17840425976cf0667f022fe9877caa831b086114b0565b6004546001600160a01b03166111b55760405162461bcd60e51b815260206004820152600f60248201526e696e76616c69642066756e6446656560881b6044820152606401610552565b600480546001600160a01b0319166001600160a01b0392909216919091179055565b6000828152602081905260409020600101546111f2816114b0565b610741838361153e565b7f5d8e12c39142ff96d79d04d15d1ba1269e4fe57bb9d26f43523628b34ba108ec611226816114b0565b600354604051636ce5768960e11b81526001600160a01b0386811660048301528581166024830152604482018590529091169063d9caed1290606401600060405180830381600087803b15801561127c57600080fd5b505af1158015611290573d6000803e3d6000fd5b5050505050505050565b6112a333611384565b806112d357506112d37fcb58d6d985142a614029cdf01861b4fe094d5919a47e69b8310dc4093d9d6ad033610c6b565b6112ef5760405162461bcd60e51b81526004016105529061285e565b61074183838360006118f7565b611304611841565b6001600160a01b0381166113695760405162461bcd60e51b815260206004820152602660248201527f4f776e61626c653a206e6577206f776e657220697320746865207a65726f206160448201526564647265737360d01b6064820152608401610552565b6113728161189b565b50565b6113816008600a612a42565b81565b600080600560009054906101000a90046001600160a01b03166001600160a01b031663ec2c90166040518163ffffffff1660e01b8152600401600060405180830381865afa1580156113da573d6000803e3d6000fd5b505050506040513d6000823e601f3d908101601f191682016040526114029190810190612a88565b805190915060005b818110156114a55782818151811061142457611424612935565b6020026020010151602001516001600160a01b0316856001600160a01b0316036114935782818151811061145a5761145a612935565b60200260200101516060015180611139575082818151811061147e5761147e612935565b60200260200101516080015195945050505050565b8061149d81612bfc565b91505061140a565b506000949350505050565b61137281336117e8565b6114c48282610c6b565b6107fb576000828152602081815260408083206001600160a01b03851684529091529020805460ff191660011790556114fa3390565b6001600160a01b0316816001600160a01b0316837f2f8788117e7eff1d82e926ec794901d17c78024a50270940304540a733656f0d60405160405180910390a45050565b6115488282610c6b565b156107fb576000828152602081815260408083206001600160a01b0385168085529252808320805460ff1916905551339285917ff6391f5c32d9c69d2a47ea670b442974b53935d1edc7fd64eb21e047a839171b9190a45050565b6004805460405163478c57cd60e11b81526001600160a01b03878116938201939093526024810185905260448101849052851515606482015260009290911690638f18af9a90608401602060405180830381865afa158015611609573d6000803e3d6000fd5b505050506040513d601f19601f8201168201806040525081019061162d9190612895565b90505b949350505050565b60408051600c8082526101a0820190925260609160208201610180803683370190505084519091508382600260ff168151811061167757611677612935565b602090810291909101015260a0850151158015611698575061018085015115155b156116a35750610715565b8460600151156116e85760a08501516116c190829060005b86611a60565b82600060ff16815181106116d7576116d7612935565b602002602001018181525050611775565b60a08501516116fa90829060016116bb565b82600160ff168151811061171057611710612935565b60200260200101818152505084610120015160ff16600103611775576001600160a01b0381166000908152602084815260408083206004808552925290912054835190918291859190811061176757611767612935565b602002602001018181525050505b6101a085015160ff16156117e0576001600160a01b038116600090815260208481526040808320600384529091529020546101a08601516117b99060ff1682612c15565b90508083600360ff16815181106117d2576117d2612935565b602002602001018181525050505b509392505050565b6117f28282610c6b565b6107fb576117ff81611b63565b61180a836020611b75565b60405160200161181b929190612c2c565b60408051601f198184030181529082905262461bcd60e51b825261055291600401612ca1565b6001546001600160a01b03163314610a465760405162461bcd60e51b815260206004820181905260248201527f4f776e61626c653a2063616c6c6572206973206e6f7420746865206f776e65726044820152606401610552565b600180546001600160a01b038381166001600160a01b0319831681179093556040519116919082907f8be0079c531659141344cd1fd0a4f28419497f9722a3daafe3b4186f6b6457e090600090a35050565b6107fb82826114ba565b604051636eb1769f60e11b81523360048201523060248201526000906001600160a01b0385169063dd62ed3e90604401602060405180830381865afa158015611944573d6000803e3d6000fd5b505050506040513d601f19601f820116820180604052508101906119689190612895565b9050801561198c5760035461198c906001600160a01b038681169133911684611d10565b81156119f8576004805460405163d6f5066b60e01b81523392810192909252602482018490526001600160a01b03169063d6f5066b90604401600060405180830381600087803b1580156119df57600080fd5b505af11580156119f3573d6000803e3d6000fd5b505050505b336001600160a01b0316856001600160a01b03167f51b85031527a935663233d62a057687d039b9fbcd79c55e46a5b24510159336f85846040516106899291906128ae565b42600255611a4a3361189b565b611a556000336118ed565b6113726000826118ed565b600083600003611a7257506000611630565b6001600160a01b03851660009081526020838152604080832060ff8716845290915281205490819003611aa55750620186a05b6000611ab36008600a612a42565b82611ac06008600a612a42565b611aca91906128e6565b611ad49088612c15565b611ade9190612cd4565b9050611aea81876128e6565b979650505050505050565b60006001600160ff1b03821115611b5f5760405162461bcd60e51b815260206004820152602860248201527f53616665436173743a2076616c756520646f65736e27742066697420696e2061604482015267371034b73a191a9b60c11b6064820152608401610552565b5090565b60606104f76001600160a01b03831660145b60606000611b84836002612c15565b611b8f90600261294b565b6001600160401b03811115611ba657611ba6611fa4565b6040519080825280601f01601f191660200182016040528015611bd0576020820181803683370190505b509050600360fc1b81600081518110611beb57611beb612935565b60200101906001600160f81b031916908160001a905350600f60fb1b81600181518110611c1a57611c1a612935565b60200101906001600160f81b031916908160001a9053506000611c3e846002612c15565b611c4990600161294b565b90505b6001811115611cc1576f181899199a1a9b1b9c1cb0b131b232b360811b85600f1660108110611c7d57611c7d612935565b1a60f81b828281518110611c9357611c93612935565b60200101906001600160f81b031916908160001a90535060049490941c93611cba81612cf6565b9050611c4c565b5083156107155760405162461bcd60e51b815260206004820181905260248201527f537472696e67733a20686578206c656e67746820696e73756666696369656e746044820152606401610552565b604080516001600160a01b038581166024830152848116604483015260648083018590528351808403909101815260849092018352602080830180516001600160e01b03166323b872dd60e01b17905283518085019094528084527f5361666545524332303a206c6f772d6c6576656c2063616c6c206661696c656490840152610cf592879291600091611da8918516908490611e25565b8051909150156107415780806020019051810190611dc69190612d0d565b6107415760405162461bcd60e51b815260206004820152602a60248201527f5361666545524332303a204552433230206f7065726174696f6e20646964206e6044820152691bdd081cdd58d8d9595960b21b6064820152608401610552565b6060611630848460008585600080866001600160a01b03168587604051611e4c9190612d2a565b60006040518083038185875af1925050503d8060008114611e89576040519150601f19603f3d011682016040523d82523d6000602084013e611e8e565b606091505b5091509150611aea8783838760608315611f09578251600003611f02576001600160a01b0385163b611f025760405162461bcd60e51b815260206004820152601d60248201527f416464726573733a2063616c6c20746f206e6f6e2d636f6e74726163740000006044820152606401610552565b5081611630565b6116308383815115611f1e5781518083602001fd5b8060405162461bcd60e51b81526004016105529190612ca1565b600060208284031215611f4a57600080fd5b81356001600160e01b03198116811461071557600080fd5b6001600160a01b038116811461137257600080fd5b8035611f8281611f62565b919050565b600060208284031215611f9957600080fd5b813561071581611f62565b634e487b7160e01b600052604160045260246000fd5b60405161018081016001600160401b0381118282101715611fdd57611fdd611fa4565b60405290565b6040516101e081016001600160401b0381118282101715611fdd57611fdd611fa4565b6040516101a081016001600160401b0381118282101715611fdd57611fdd611fa4565b60405160e081016001600160401b0381118282101715611fdd57611fdd611fa4565b60405160a081016001600160401b0381118282101715611fdd57611fdd611fa4565b604051601f8201601f191681016001600160401b038111828210171561209557612095611fa4565b604052919050565b60006001600160401b038211156120b6576120b6611fa4565b5060051b60200190565b600082601f8301126120d157600080fd5b813560206120e66120e18361209d565b61206d565b82815260059290921b8401810191818101908684111561210557600080fd5b8286015b848110156121205780358352918301918301612109565b509695505050505050565b6000806000806080858703121561214157600080fd5b843561214c81611f62565b9350602085013561215c81611f62565b925060408501356001600160401b0381111561217757600080fd5b612183878288016120c0565b949793965093946060013593505050565b801515811461137257600080fd5b8035611f8281612194565b600080604083850312156121c057600080fd5b82356121cb81611f62565b915060208301356121db81612194565b809150509250929050565b6000602082840312156121f857600080fd5b5035919050565b6000806040838503121561221257600080fd5b8235915060208301356121db81611f62565b803560ff81168114611f8257600080fd5b80356001600160401b0381168114611f8257600080fd5b803563ffffffff81168114611f8257600080fd5b80356001600160d81b0381168114611f8257600080fd5b6000610180828403121561228a57600080fd5b612292611fba565b905061229d82611f77565b81526122ab602083016121a2565b60208201526122bc6040830161224c565b60408201526122cd60608301612260565b60608201526080820135608082015260a082013560a082015260c082013560c082015260e082013560e082015261010080830135818301525061012080830135818301525061014080830135818301525061016080830135818301525092915050565b6000806101a080848603121561234557600080fd5b83356001600160401b038082111561235c57600080fd5b908501906101e0828803121561237157600080fd5b612379611fe3565b61238283611f77565b8152612390602084016121a2565b6020820152604083013560408201526123ab606084016121a2565b60608201526123bc60808401611f77565b608082015260a083013560a082015260c083013560c082015260e083013560e08201526101006123ed8185016121a2565b908201526101206123ff848201612224565b90820152610140612411848201612235565b9082015261016083810135908201526101808084013590820152612436848401612224565b848201526101c09350838301358281111561245057600080fd5b61245c898286016120c0565b8583015250809550505050506124758460208501612277565b90509250929050565b600081518084526020808501945080840160005b838110156124ae57815187529582019590820190600101612492565b509495945050505050565b602081526000610715602083018461247e565b600080604083850312156124df57600080fd5b82356124ea81611f62565b915061247560208401612224565b6000806040838503121561250b57600080fd5b823561251681611f62565b915060208301356001600160401b0381111561253157600080fd5b61253d858286016120c0565b9150509250929050565b60008060006060848603121561255c57600080fd5b833561256781611f62565b9250602084013561257781611f62565b9150604084013561258781611f62565b809150509250925092565b6000806000606084860312156125a757600080fd5b83356125b281611f62565b95602085013595506040909401359392505050565b803565ffffffffffff81168114611f8257600080fd5b80356001600160801b0381168114611f8257600080fd5b60006101a0828403121561260757600080fd5b61260f612006565b905061261a82612224565b81526126286020830161224c565b602082015261263960408301612224565b604082015261264a60608301611f77565b606082015261265b608083016125c7565b608082015261266c60a083016125dd565b60a082015261267d60c083016125dd565b60c082015261268e60e083016125dd565b60e08201526101006126a18184016125dd565b908201526101206126b3838201612235565b908201526101406126c5838201612235565b908201526101606126d78382016125dd565b818301525061018080830135818301525092915050565b60006020828403121561270057600080fd5b81356001600160401b038082111561271757600080fd5b90830190610260828603121561272c57600080fd5b612734612029565b61273d83611f77565b815261274b602084016121a2565b602082015260408301356040820152612766606084016121a2565b6060820152612777608084016121a2565b60808201526127898660a085016125f4565b60a0820152610240830135828111156127a157600080fd5b6127ad878286016120c0565b60c08301525095945050505050565b6000806000606084860312156127d157600080fd5b83356127dc81611f62565b925060208401356127ec81611f62565b929592945050506040919091013590565b60008060006060848603121561281257600080fd5b833561281d81611f62565b9250602084013561282d81611f62565b915060408401356001600160401b0381111561284857600080fd5b612854868287016120c0565b9150509250925092565b60208082526018908201527f666565526f757465723a206163636573732064656e6965640000000000000000604082015260600190565b6000602082840312156128a757600080fd5b5051919050565b6040815260006128c1604083018561247e565b90508260208301529392505050565b634e487b7160e01b600052601160045260246000fd5b818103818111156104f7576104f76128d0565b60006020828403121561290b57600080fd5b815161071581611f62565b600060ff821660ff810361292c5761292c6128d0565b60010192915050565b634e487b7160e01b600052603260045260246000fd5b808201808211156104f7576104f76128d0565b600181815b8085111561299957816000190482111561297f5761297f6128d0565b8085161561298c57918102915b93841c9390800290612963565b509250929050565b6000826129b0575060016104f7565b816129bd575060006104f7565b81600181146129d357600281146129dd576129f9565b60019150506104f7565b60ff8411156129ee576129ee6128d0565b50506001821b6104f7565b5060208310610133831016604e8410600b8410161715612a1c575081810a6104f7565b612a26838361295e565b8060001904821115612a3a57612a3a6128d0565b029392505050565b600061071583836129a1565b60005b83811015612a69578181015183820152602001612a51565b50506000910152565b8051611f8281611f62565b8051611f8281612194565b60006020808385031215612a9b57600080fd5b82516001600160401b0380821115612ab257600080fd5b818501915085601f830112612ac657600080fd5b8151612ad46120e18261209d565b81815260059190911b83018401908481019088831115612af357600080fd5b8585015b83811015612bef57805185811115612b0e57600080fd5b8601601f1960a0828d0382011215612b265760008081fd5b612b2e61204b565b8983015188811115612b405760008081fd5b8301603f81018e13612b525760008081fd5b8a81015160408a821115612b6857612b68611fa4565b612b788d86601f8501160161206d565b94508185528f81838501011115612b8f5760008081fd5b612b9e828e8701838601612a4e565b848452612bac818701612a72565b8d8501526060945084860151818501525050506080612bcc818501612a7d565b83830152612bdc60a08501612a7d565b9082015285525050918601918601612af7565b5098975050505050505050565b600060018201612c0e57612c0e6128d0565b5060010190565b80820281158282048414176104f7576104f76128d0565b7f416363657373436f6e74726f6c3a206163636f756e7420000000000000000000815260008351612c64816017850160208801612a4e565b7001034b99036b4b9b9b4b733903937b6329607d1b6017918401918201528351612c95816028840160208801612a4e565b01602801949350505050565b6020815260008251806020840152612cc0816040850160208701612a4e565b601f01601f19169190910160400192915050565b600082612cf157634e487b7160e01b600052601260045260246000fd5b500490565b600081612d0557612d056128d0565b506000190190565b600060208284031215612d1f57600080fd5b815161071581612194565b60008251612d3c818460208701612a4e565b919091019291505056fea26469706673582212204869840c90598ccc5aa8a1dd4512658d26752616d5e32ba56aa1bf46b8847cd464736f6c63430008110033","opcodes":"PUSH1 0x80 PUSH1 0x40 MSTORE CALLVALUE DUP1 ISZERO PUSH2 0x10 JUMPI PUSH1 0x0 DUP1 REVERT JUMPDEST POP PUSH2 0x1A CALLER PUSH2 0x1F JUMP JUMPDEST PUSH2 0x71 JUMP JUMPDEST PUSH1 0x1 DUP1 SLOAD PUSH1 0x1 PUSH1 0x1 PUSH1 0xA0 SHL SUB DUP4 DUP2 AND PUSH1 0x1 PUSH1 0x1 PUSH1 0xA0 SHL SUB NOT DUP4 AND DUP2 OR SWAP1 SWAP4 SSTORE PUSH1 0x40 MLOAD SWAP2 AND SWAP2 SWAP1 DUP3 SWAP1 PUSH32 0x8BE0079C531659141344CD1FD0A4F28419497F9722A3DAAFE3B4186F6B6457E0 SWAP1 PUSH1 0x0 SWAP1 LOG3 POP POP JUMP JUMPDEST PUSH2 0x2D7C DUP1 PUSH3 0x81 PUSH1 0x0 CODECOPY PUSH1 0x0 RETURN INVALID PUSH1 0x80 PUSH1 0x40 MSTORE CALLVALUE DUP1 ISZERO PUSH2 0x10 JUMPI PUSH1 0x0 DUP1 REVERT JUMPDEST POP PUSH1 0x4 CALLDATASIZE LT PUSH2 0x1F0 JUMPI PUSH1 0x0 CALLDATALOAD PUSH1 0xE0 SHR DUP1 PUSH4 0x8DA5CB5B GT PUSH2 0x10F JUMPI DUP1 PUSH4 0xC8830BF5 GT PUSH2 0xA2 JUMPI DUP1 PUSH4 0xD9CAED12 GT PUSH2 0x71 JUMPI DUP1 PUSH4 0xD9CAED12 EQ PUSH2 0x485 JUMPI DUP1 PUSH4 0xE50F19EF EQ PUSH2 0x498 JUMPI DUP1 PUSH4 0xF2FDE38B EQ PUSH2 0x4AB JUMPI DUP1 PUSH4 0xF4CA4D1D EQ PUSH2 0x4BE JUMPI PUSH1 0x0 DUP1 REVERT JUMPDEST DUP1 PUSH4 0xC8830BF5 EQ PUSH2 0x421 JUMPI DUP1 PUSH4 0xC9CF9F3A EQ PUSH2 0x434 JUMPI DUP1 PUSH4 0xD547741F EQ PUSH2 0x447 JUMPI DUP1 PUSH4 0xD8778068 EQ PUSH2 0x45A JUMPI PUSH1 0x0 DUP1 REVERT JUMPDEST DUP1 PUSH4 0xA591F97F GT PUSH2 0xDE JUMPI DUP1 PUSH4 0xA591F97F EQ PUSH2 0x3D5 JUMPI DUP1 PUSH4 0xC0C53B8B EQ PUSH2 0x3E8 JUMPI DUP1 PUSH4 0xC45A0155 EQ PUSH2 0x3FB JUMPI DUP1 PUSH4 0xC6F83AD1 EQ PUSH2 0x40E JUMPI PUSH1 0x0 DUP1 REVERT JUMPDEST DUP1 PUSH4 0x8DA5CB5B EQ PUSH2 0x396 JUMPI DUP1 PUSH4 0x91D14854 EQ PUSH2 0x3A7 JUMPI DUP1 PUSH4 0x966ACE28 EQ PUSH2 0x3BA JUMPI DUP1 PUSH4 0xA217FDDF EQ PUSH2 0x3CD JUMPI PUSH1 0x0 DUP1 REVERT JUMPDEST DUP1 PUSH4 0x36568ABE GT PUSH2 0x187 JUMPI DUP1 PUSH4 0x715018A6 GT PUSH2 0x156 JUMPI DUP1 PUSH4 0x715018A6 EQ PUSH2 0x355 JUMPI DUP1 PUSH4 0x75829DEF EQ PUSH2 0x35D JUMPI DUP1 PUSH4 0x7DD49023 EQ PUSH2 0x370 JUMPI DUP1 PUSH4 0x7FE4A698 EQ PUSH2 0x383 JUMPI PUSH1 0x0 DUP1 REVERT JUMPDEST DUP1 PUSH4 0x36568ABE EQ PUSH2 0x2FC JUMPI DUP1 PUSH4 0x41510263 EQ PUSH2 0x30F JUMPI DUP1 PUSH4 0x478222C2 EQ PUSH2 0x32F JUMPI DUP1 PUSH4 0x5BAC2F60 EQ PUSH2 0x342 JUMPI PUSH1 0x0 DUP1 REVERT JUMPDEST DUP1 PUSH4 0x248A9CA3 GT PUSH2 0x1C3 JUMPI DUP1 PUSH4 0x248A9CA3 EQ PUSH2 0x288 JUMPI DUP1 PUSH4 0x2F2FF15D EQ PUSH2 0x2AB JUMPI DUP1 PUSH4 0x33ABD028 EQ PUSH2 0x2BE JUMPI DUP1 PUSH4 0x34F32E25 EQ PUSH2 0x2E9 JUMPI PUSH1 0x0 DUP1 REVERT JUMPDEST DUP1 PUSH4 0x1FFC9A7 EQ PUSH2 0x1F5 JUMPI DUP1 PUSH4 0x9D39897 EQ PUSH2 0x21D JUMPI DUP1 PUSH4 0x1A6CA809 EQ PUSH2 0x260 JUMPI DUP1 PUSH4 0x20981DF4 EQ PUSH2 0x275 JUMPI JUMPDEST PUSH1 0x0 DUP1 REVERT JUMPDEST PUSH2 0x208 PUSH2 0x203 CALLDATASIZE PUSH1 0x4 PUSH2 0x1F38 JUMP JUMPDEST PUSH2 0x4C6 JUMP JUMPDEST PUSH1 0x40 MLOAD SWAP1 ISZERO ISZERO DUP2 MSTORE PUSH1 0x20 ADD JUMPDEST PUSH1 0x40 MLOAD DUP1 SWAP2 SUB SWAP1 RETURN JUMPDEST PUSH2 0x252 PUSH2 0x22B CALLDATASIZE PUSH1 0x4 PUSH2 0x1F87 JUMP JUMPDEST PUSH1 0x1 PUSH1 0x1 PUSH1 0xA0 SHL SUB AND PUSH1 0x0 SWAP1 DUP2 MSTORE PUSH1 0x6 PUSH1 0x20 SWAP1 DUP2 MSTORE PUSH1 0x40 DUP1 DUP4 KECCAK256 PUSH1 0x3 DUP5 MSTORE SWAP1 SWAP2 MSTORE SWAP1 KECCAK256 SLOAD SWAP1 JUMP JUMPDEST PUSH1 0x40 MLOAD SWAP1 DUP2 MSTORE PUSH1 0x20 ADD PUSH2 0x214 JUMP JUMPDEST PUSH2 0x273 PUSH2 0x26E CALLDATASIZE PUSH1 0x4 PUSH2 0x212B JUMP JUMPDEST PUSH2 0x4FD JUMP JUMPDEST STOP JUMPDEST PUSH2 0x252 PUSH2 0x283 CALLDATASIZE PUSH1 0x4 PUSH2 0x21AD JUMP JUMPDEST PUSH2 0x698 JUMP JUMPDEST PUSH2 0x252 PUSH2 0x296 CALLDATASIZE PUSH1 0x4 PUSH2 0x21E6 JUMP JUMPDEST PUSH1 0x0 SWAP1 DUP2 MSTORE PUSH1 0x20 DUP2 SWAP1 MSTORE PUSH1 0x40 SWAP1 KECCAK256 PUSH1 0x1 ADD SLOAD SWAP1 JUMP JUMPDEST PUSH2 0x273 PUSH2 0x2B9 CALLDATASIZE PUSH1 0x4 PUSH2 0x21FF JUMP JUMPDEST PUSH2 0x71C JUMP JUMPDEST PUSH1 0x4 SLOAD PUSH2 0x2D1 SWAP1 PUSH1 0x1 PUSH1 0x1 PUSH1 0xA0 SHL SUB AND DUP2 JUMP JUMPDEST PUSH1 0x40 MLOAD PUSH1 0x1 PUSH1 0x1 PUSH1 0xA0 SHL SUB SWAP1 SWAP2 AND DUP2 MSTORE PUSH1 0x20 ADD PUSH2 0x214 JUMP JUMPDEST PUSH2 0x252 PUSH2 0x2F7 CALLDATASIZE PUSH1 0x4 PUSH2 0x21AD JUMP JUMPDEST PUSH2 0x746 JUMP JUMPDEST PUSH2 0x273 PUSH2 0x30A CALLDATASIZE PUSH1 0x4 PUSH2 0x21FF JUMP JUMPDEST PUSH2 0x781 JUMP JUMPDEST PUSH2 0x322 PUSH2 0x31D CALLDATASIZE PUSH1 0x4 PUSH2 0x2330 JUMP JUMPDEST PUSH2 0x7FF JUMP JUMPDEST PUSH1 0x40 MLOAD PUSH2 0x214 SWAP2 SWAP1 PUSH2 0x24B9 JUMP JUMPDEST PUSH1 0x3 SLOAD PUSH2 0x2D1 SWAP1 PUSH1 0x1 PUSH1 0x1 PUSH1 0xA0 SHL SUB AND DUP2 JUMP JUMPDEST PUSH2 0x273 PUSH2 0x350 CALLDATASIZE PUSH1 0x4 PUSH2 0x24CC JUMP JUMPDEST PUSH2 0x828 JUMP JUMPDEST PUSH2 0x273 PUSH2 0xA34 JUMP JUMPDEST PUSH2 0x273 PUSH2 0x36B CALLDATASIZE PUSH1 0x4 PUSH2 0x1F87 JUMP JUMPDEST PUSH2 0xA48 JUMP JUMPDEST PUSH2 0x273 PUSH2 0x37E CALLDATASIZE PUSH1 0x4 PUSH2 0x24F8 JUMP JUMPDEST PUSH2 0xA72 JUMP JUMPDEST PUSH2 0x273 PUSH2 0x391 CALLDATASIZE PUSH1 0x4 PUSH2 0x1F87 JUMP JUMPDEST PUSH2 0xC41 JUMP JUMPDEST PUSH1 0x1 SLOAD PUSH1 0x1 PUSH1 0x1 PUSH1 0xA0 SHL SUB AND PUSH2 0x2D1 JUMP JUMPDEST PUSH2 0x208 PUSH2 0x3B5 CALLDATASIZE PUSH1 0x4 PUSH2 0x21FF JUMP JUMPDEST PUSH2 0xC6B JUMP JUMPDEST PUSH2 0x273 PUSH2 0x3C8 CALLDATASIZE PUSH1 0x4 PUSH2 0x212B JUMP JUMPDEST PUSH2 0xC94 JUMP JUMPDEST PUSH2 0x252 PUSH1 0x0 DUP2 JUMP JUMPDEST PUSH2 0x273 PUSH2 0x3E3 CALLDATASIZE PUSH1 0x4 PUSH2 0x1F87 JUMP JUMPDEST PUSH2 0xCFB JUMP JUMPDEST PUSH2 0x273 PUSH2 0x3F6 CALLDATASIZE PUSH1 0x4 PUSH2 0x2547 JUMP JUMPDEST PUSH2 0xD90 JUMP JUMPDEST PUSH1 0x5 SLOAD PUSH2 0x2D1 SWAP1 PUSH1 0x1 PUSH1 0x1 PUSH1 0xA0 SHL SUB AND DUP2 JUMP JUMPDEST PUSH2 0x273 PUSH2 0x41C CALLDATASIZE PUSH1 0x4 PUSH2 0x2592 JUMP JUMPDEST PUSH2 0x1007 JUMP JUMPDEST PUSH2 0x252 PUSH2 0x42F CALLDATASIZE PUSH1 0x4 PUSH2 0x26EE JUMP JUMPDEST PUSH2 0x10C1 JUMP JUMPDEST PUSH2 0x273 PUSH2 0x442 CALLDATASIZE PUSH1 0x4 PUSH2 0x1F87 JUMP JUMPDEST PUSH2 0x1142 JUMP JUMPDEST PUSH2 0x273 PUSH2 0x455 CALLDATASIZE PUSH1 0x4 PUSH2 0x21FF JUMP JUMPDEST PUSH2 0x11D7 JUMP JUMPDEST PUSH2 0x252 PUSH2 0x468 CALLDATASIZE PUSH1 0x4 PUSH2 0x24CC JUMP JUMPDEST PUSH1 0x6 PUSH1 0x20 SWAP1 DUP2 MSTORE PUSH1 0x0 SWAP3 DUP4 MSTORE PUSH1 0x40 DUP1 DUP5 KECCAK256 SWAP1 SWAP2 MSTORE SWAP1 DUP3 MSTORE SWAP1 KECCAK256 SLOAD DUP2 JUMP JUMPDEST PUSH2 0x273 PUSH2 0x493 CALLDATASIZE PUSH1 0x4 PUSH2 0x27BC JUMP JUMPDEST PUSH2 0x11FC JUMP JUMPDEST PUSH2 0x273 PUSH2 0x4A6 CALLDATASIZE PUSH1 0x4 PUSH2 0x27FD JUMP JUMPDEST PUSH2 0x129A JUMP JUMPDEST PUSH2 0x273 PUSH2 0x4B9 CALLDATASIZE PUSH1 0x4 PUSH2 0x1F87 JUMP JUMPDEST PUSH2 0x12FC JUMP JUMPDEST PUSH2 0x252 PUSH2 0x1375 JUMP JUMPDEST PUSH1 0x0 PUSH1 0x1 PUSH1 0x1 PUSH1 0xE0 SHL SUB NOT DUP3 AND PUSH4 0x7965DB0B PUSH1 0xE0 SHL EQ DUP1 PUSH2 0x4F7 JUMPI POP PUSH4 0x1FFC9A7 PUSH1 0xE0 SHL PUSH1 0x1 PUSH1 0x1 PUSH1 0xE0 SHL SUB NOT DUP4 AND EQ JUMPDEST SWAP3 SWAP2 POP POP JUMP JUMPDEST PUSH2 0x506 CALLER PUSH2 0x1384 JUMP JUMPDEST DUP1 PUSH2 0x536 JUMPI POP PUSH2 0x536 PUSH32 0xCB58D6D985142A614029CDF01861B4FE094D5919A47E69B8310DC4093D9D6AD0 CALLER PUSH2 0xC6B JUMP JUMPDEST PUSH2 0x55B JUMPI PUSH1 0x40 MLOAD PUSH3 0x461BCD PUSH1 0xE5 SHL DUP2 MSTORE PUSH1 0x4 ADD PUSH2 0x552 SWAP1 PUSH2 0x285E JUMP JUMPDEST PUSH1 0x40 MLOAD DUP1 SWAP2 SUB SWAP1 REVERT JUMPDEST PUSH1 0x3 SLOAD PUSH1 0x40 MLOAD PUSH4 0x70A08231 PUSH1 0xE0 SHL DUP2 MSTORE PUSH1 0x1 PUSH1 0x1 PUSH1 0xA0 SHL SUB SWAP2 DUP3 AND PUSH1 0x4 DUP3 ADD MSTORE PUSH1 0x0 SWAP2 DUP6 AND SWAP1 PUSH4 0x70A08231 SWAP1 PUSH1 0x24 ADD PUSH1 0x20 PUSH1 0x40 MLOAD DUP1 DUP4 SUB DUP2 DUP7 GAS STATICCALL ISZERO DUP1 ISZERO PUSH2 0x5A7 JUMPI RETURNDATASIZE PUSH1 0x0 DUP1 RETURNDATACOPY RETURNDATASIZE PUSH1 0x0 REVERT JUMPDEST POP POP POP POP PUSH1 0x40 MLOAD RETURNDATASIZE PUSH1 0x1F NOT PUSH1 0x1F DUP3 ADD AND DUP3 ADD DUP1 PUSH1 0x40 MSTORE POP DUP2 ADD SWAP1 PUSH2 0x5CB SWAP2 SWAP1 PUSH2 0x2895 JUMP JUMPDEST SWAP1 POP DUP2 DUP2 GT ISZERO PUSH2 0x5D8 JUMPI POP DUP1 JUMPDEST PUSH1 0x3 SLOAD PUSH1 0x40 MLOAD PUSH4 0x6CE57689 PUSH1 0xE1 SHL DUP2 MSTORE PUSH1 0x1 PUSH1 0x1 PUSH1 0xA0 SHL SUB DUP7 DUP2 AND PUSH1 0x4 DUP4 ADD MSTORE CALLER PUSH1 0x24 DUP4 ADD MSTORE PUSH1 0x44 DUP3 ADD DUP5 SWAP1 MSTORE SWAP1 SWAP2 AND SWAP1 PUSH4 0xD9CAED12 SWAP1 PUSH1 0x64 ADD PUSH1 0x0 PUSH1 0x40 MLOAD DUP1 DUP4 SUB DUP2 PUSH1 0x0 DUP8 DUP1 EXTCODESIZE ISZERO DUP1 ISZERO PUSH2 0x62C JUMPI PUSH1 0x0 DUP1 REVERT JUMPDEST POP GAS CALL ISZERO DUP1 ISZERO PUSH2 0x640 JUMPI RETURNDATASIZE PUSH1 0x0 DUP1 RETURNDATACOPY RETURNDATASIZE PUSH1 0x0 REVERT JUMPDEST POP POP POP POP CALLER PUSH1 0x1 PUSH1 0x1 PUSH1 0xA0 SHL SUB AND DUP6 PUSH1 0x1 PUSH1 0x1 PUSH1 0xA0 SHL SUB AND PUSH32 0x66F918A5780B532A6D1D0D9D5B8BB0E9B5180775146DD5C853B36D345B9D1043 DUP6 DUP5 PUSH1 0x40 MLOAD PUSH2 0x689 SWAP3 SWAP2 SWAP1 PUSH2 0x28AE JUMP JUMPDEST PUSH1 0x40 MLOAD DUP1 SWAP2 SUB SWAP1 LOG3 POP POP POP POP POP JUMP JUMPDEST PUSH1 0x4 DUP1 SLOAD PUSH1 0x40 MLOAD PUSH4 0x826077D PUSH1 0xE2 SHL DUP2 MSTORE PUSH1 0x1 PUSH1 0x1 PUSH1 0xA0 SHL SUB DUP6 DUP2 AND SWAP4 DUP3 ADD SWAP4 SWAP1 SWAP4 MSTORE DUP4 ISZERO ISZERO PUSH1 0x24 DUP3 ADD MSTORE PUSH1 0x0 SWAP3 SWAP1 SWAP2 AND SWAP1 PUSH4 0x20981DF4 SWAP1 PUSH1 0x44 ADD JUMPDEST PUSH1 0x20 PUSH1 0x40 MLOAD DUP1 DUP4 SUB DUP2 DUP7 GAS STATICCALL ISZERO DUP1 ISZERO PUSH2 0x6F1 JUMPI RETURNDATASIZE PUSH1 0x0 DUP1 RETURNDATACOPY RETURNDATASIZE PUSH1 0x0 REVERT JUMPDEST POP POP POP POP PUSH1 0x40 MLOAD RETURNDATASIZE PUSH1 0x1F NOT PUSH1 0x1F DUP3 ADD AND DUP3 ADD DUP1 PUSH1 0x40 MSTORE POP DUP2 ADD SWAP1 PUSH2 0x715 SWAP2 SWAP1 PUSH2 0x2895 JUMP JUMPDEST SWAP4 SWAP3 POP POP POP JUMP JUMPDEST PUSH1 0x0 DUP3 DUP2 MSTORE PUSH1 0x20 DUP2 SWAP1 MSTORE PUSH1 0x40 SWAP1 KECCAK256 PUSH1 0x1 ADD SLOAD PUSH2 0x737 DUP2 PUSH2 0x14B0 JUMP JUMPDEST PUSH2 0x741 DUP4 DUP4 PUSH2 0x14BA JUMP JUMPDEST POP POP POP JUMP JUMPDEST PUSH1 0x3 SLOAD PUSH1 0x40 MLOAD PUSH4 0x34F32E25 PUSH1 0xE0 SHL DUP2 MSTORE PUSH1 0x1 PUSH1 0x1 PUSH1 0xA0 SHL SUB DUP5 DUP2 AND PUSH1 0x4 DUP4 ADD MSTORE DUP4 ISZERO ISZERO PUSH1 0x24 DUP4 ADD MSTORE PUSH1 0x0 SWAP3 AND SWAP1 PUSH4 0x34F32E25 SWAP1 PUSH1 0x44 ADD PUSH2 0x6D4 JUMP JUMPDEST PUSH1 0x1 PUSH1 0x1 PUSH1 0xA0 SHL SUB DUP2 AND CALLER EQ PUSH2 0x7F1 JUMPI PUSH1 0x40 MLOAD PUSH3 0x461BCD PUSH1 0xE5 SHL DUP2 MSTORE PUSH1 0x20 PUSH1 0x4 DUP3 ADD MSTORE PUSH1 0x2F PUSH1 0x24 DUP3 ADD MSTORE PUSH32 0x416363657373436F6E74726F6C3A2063616E206F6E6C792072656E6F756E6365 PUSH1 0x44 DUP3 ADD MSTORE PUSH15 0x103937B632B9903337B91039B2B633 PUSH1 0x89 SHL PUSH1 0x64 DUP3 ADD MSTORE PUSH1 0x84 ADD PUSH2 0x552 JUMP JUMPDEST PUSH2 0x7FB DUP3 DUP3 PUSH2 0x153E JUMP JUMPDEST POP POP JUMP JUMPDEST PUSH1 0x60 PUSH2 0x715 DUP4 PUSH2 0x821 DUP6 PUSH1 0x0 ADD MLOAD DUP7 PUSH1 0x20 ADD MLOAD DUP7 PUSH1 0x80 ADD MLOAD DUP8 PUSH1 0xE0 ADD MLOAD PUSH2 0x15A3 JUMP JUMPDEST PUSH1 0x6 PUSH2 0x1638 JUMP JUMPDEST PUSH32 0x8D1089725C0DC266707FA6207730FB801DCD03108BFED7A21099BD303651D2B7 PUSH1 0x0 PUSH2 0x855 DUP2 CALLER PUSH2 0xC6B JUMP JUMPDEST SWAP1 POP DUP1 ISZERO PUSH2 0x8B2 JUMPI PUSH3 0x93A80 PUSH1 0x2 SLOAD TIMESTAMP PUSH2 0x86F SWAP2 SWAP1 PUSH2 0x28E6 JUMP JUMPDEST LT PUSH2 0x8AD JUMPI PUSH1 0x40 MLOAD PUSH3 0x461BCD PUSH1 0xE5 SHL DUP2 MSTORE PUSH1 0x20 PUSH1 0x4 DUP3 ADD MSTORE PUSH1 0xE PUSH1 0x24 DUP3 ADD MSTORE PUSH14 0x1858C81D1A5B59481C185CDCD959 PUSH1 0x92 SHL PUSH1 0x44 DUP3 ADD MSTORE PUSH1 0x64 ADD PUSH2 0x552 JUMP JUMPDEST PUSH2 0x8BC JUMP JUMPDEST PUSH2 0x8BC DUP3 CALLER PUSH2 0x17E8 JUMP JUMPDEST PUSH1 0x0 DUP5 PUSH1 0x1 PUSH1 0x1 PUSH1 0xA0 SHL SUB AND PUSH4 0xF29EBF61 PUSH1 0x40 MLOAD DUP2 PUSH4 0xFFFFFFFF AND PUSH1 0xE0 SHL DUP2 MSTORE PUSH1 0x4 ADD PUSH1 0x20 PUSH1 0x40 MLOAD DUP1 DUP4 SUB DUP2 PUSH1 0x0 DUP8 GAS CALL ISZERO DUP1 ISZERO PUSH2 0x8FE JUMPI RETURNDATASIZE PUSH1 0x0 DUP1 RETURNDATACOPY RETURNDATASIZE PUSH1 0x0 REVERT JUMPDEST POP POP POP POP PUSH1 0x40 MLOAD RETURNDATASIZE PUSH1 0x1F NOT PUSH1 0x1F DUP3 ADD AND DUP3 ADD DUP1 PUSH1 0x40 MSTORE POP DUP2 ADD SWAP1 PUSH2 0x922 SWAP2 SWAP1 PUSH2 0x28F9 JUMP JUMPDEST SWAP1 POP PUSH1 0x0 JUMPDEST DUP5 PUSH1 0xFF AND DUP2 PUSH1 0xFF AND LT ISZERO PUSH2 0xA2C JUMPI PUSH1 0x40 MLOAD PUSH4 0x1B0EF00D PUSH1 0xE3 SHL DUP2 MSTORE PUSH1 0x1 PUSH1 0x1 PUSH1 0xA0 SHL SUB DUP8 DUP2 AND PUSH1 0x4 DUP4 ADD MSTORE PUSH1 0xFF DUP4 AND PUSH1 0x24 DUP4 ADD MSTORE PUSH1 0x0 SWAP2 SWAP1 DUP5 AND SWAP1 PUSH4 0xD8778068 SWAP1 PUSH1 0x44 ADD PUSH1 0x20 PUSH1 0x40 MLOAD DUP1 DUP4 SUB DUP2 DUP7 GAS STATICCALL ISZERO DUP1 ISZERO PUSH2 0x988 JUMPI RETURNDATASIZE PUSH1 0x0 DUP1 RETURNDATACOPY RETURNDATASIZE PUSH1 0x0 REVERT JUMPDEST POP POP POP POP PUSH1 0x40 MLOAD RETURNDATASIZE PUSH1 0x1F NOT PUSH1 0x1F DUP3 ADD AND DUP3 ADD DUP1 PUSH1 0x40 MSTORE POP DUP2 ADD SWAP1 PUSH2 0x9AC SWAP2 SWAP1 PUSH2 0x2895 JUMP JUMPDEST PUSH1 0x1 PUSH1 0x1 PUSH1 0xA0 SHL SUB DUP9 AND PUSH1 0x0 DUP2 DUP2 MSTORE PUSH1 0x6 PUSH1 0x20 SWAP1 DUP2 MSTORE PUSH1 0x40 DUP1 DUP4 KECCAK256 PUSH1 0xFF DUP9 AND DUP1 DUP6 MSTORE SWAP1 DUP4 MSTORE SWAP3 DUP2 SWAP1 KECCAK256 DUP6 SWAP1 SSTORE DUP1 MLOAD SWAP3 DUP4 MSTORE SWAP1 DUP3 ADD DUP5 SWAP1 MSTORE DUP2 ADD DUP4 SWAP1 MSTORE SWAP2 SWAP3 POP SWAP1 PUSH32 0x8E26FB53D63C548677B068D08742BEA435B6ECB7911AB3C5AD68FBCCDDEAF5FE SWAP1 PUSH1 0x60 ADD PUSH1 0x40 MLOAD DUP1 SWAP2 SUB SWAP1 LOG2 POP DUP1 PUSH2 0xA24 DUP2 PUSH2 0x2916 JUMP JUMPDEST SWAP2 POP POP PUSH2 0x927 JUMP JUMPDEST POP POP POP POP POP POP JUMP JUMPDEST PUSH2 0xA3C PUSH2 0x1841 JUMP JUMPDEST PUSH2 0xA46 PUSH1 0x0 PUSH2 0x189B JUMP JUMPDEST JUMP JUMPDEST PUSH1 0x0 PUSH2 0xA53 DUP2 PUSH2 0x14B0 JUMP JUMPDEST PUSH2 0xA5E PUSH1 0x0 DUP4 PUSH2 0x18ED JUMP JUMPDEST PUSH2 0xA67 DUP3 PUSH2 0x189B JUMP JUMPDEST PUSH2 0x7FB PUSH1 0x0 CALLER PUSH2 0x153E JUMP JUMPDEST PUSH32 0x8D1089725C0DC266707FA6207730FB801DCD03108BFED7A21099BD303651D2B7 PUSH1 0x0 PUSH2 0xA9F DUP2 CALLER PUSH2 0xC6B JUMP JUMPDEST SWAP1 POP DUP1 ISZERO PUSH2 0xAFC JUMPI PUSH3 0x93A80 PUSH1 0x2 SLOAD TIMESTAMP PUSH2 0xAB9 SWAP2 SWAP1 PUSH2 0x28E6 JUMP JUMPDEST LT PUSH2 0xAF7 JUMPI PUSH1 0x40 MLOAD PUSH3 0x461BCD PUSH1 0xE5 SHL DUP2 MSTORE PUSH1 0x20 PUSH1 0x4 DUP3 ADD MSTORE PUSH1 0xE PUSH1 0x24 DUP3 ADD MSTORE PUSH14 0x1858C81D1A5B59481C185CDCD959 PUSH1 0x92 SHL PUSH1 0x44 DUP3 ADD MSTORE PUSH1 0x64 ADD PUSH2 0x552 JUMP JUMPDEST PUSH2 0xB06 JUMP JUMPDEST PUSH2 0xB06 DUP3 CALLER PUSH2 0x17E8 JUMP JUMPDEST PUSH1 0x0 DUP4 MLOAD GT PUSH2 0xB48 JUMPI PUSH1 0x40 MLOAD PUSH3 0x461BCD PUSH1 0xE5 SHL DUP2 MSTORE PUSH1 0x20 PUSH1 0x4 DUP3 ADD MSTORE PUSH1 0xE PUSH1 0x24 DUP3 ADD MSTORE PUSH14 0x696E76616C696420706172616D73 PUSH1 0x90 SHL PUSH1 0x44 DUP3 ADD MSTORE PUSH1 0x64 ADD PUSH2 0x552 JUMP JUMPDEST PUSH1 0x0 JUMPDEST DUP4 MLOAD DUP2 PUSH1 0xFF AND LT ISZERO PUSH2 0xC3A JUMPI PUSH1 0x0 DUP5 DUP3 PUSH1 0xFF AND DUP2 MLOAD DUP2 LT PUSH2 0xB6E JUMPI PUSH2 0xB6E PUSH2 0x2935 JUMP JUMPDEST PUSH1 0x20 MUL PUSH1 0x20 ADD ADD MLOAD SWAP1 POP DUP5 DUP3 PUSH1 0xFF AND DUP2 MLOAD DUP2 LT PUSH2 0xB8D JUMPI PUSH2 0xB8D PUSH2 0x2935 JUMP JUMPDEST PUSH1 0x20 SWAP1 DUP2 MUL SWAP2 SWAP1 SWAP2 ADD DUP2 ADD MLOAD PUSH1 0x1 PUSH1 0x1 PUSH1 0xA0 SHL SUB DUP9 AND PUSH1 0x0 DUP2 DUP2 MSTORE PUSH1 0x6 DUP5 MSTORE PUSH1 0x40 DUP1 DUP3 KECCAK256 PUSH1 0xFF DUP9 AND DUP1 DUP5 MSTORE SWAP6 MSTORE SWAP1 KECCAK256 SWAP2 SWAP1 SWAP2 SSTORE DUP7 MLOAD SWAP1 SWAP2 PUSH32 0x8E26FB53D63C548677B068D08742BEA435B6ECB7911AB3C5AD68FBCCDDEAF5FE SWAP2 DUP6 SWAP2 DUP6 SWAP2 DUP11 SWAP2 SWAP1 DUP2 LT PUSH2 0xBFB JUMPI PUSH2 0xBFB PUSH2 0x2935 JUMP JUMPDEST PUSH1 0x20 SWAP1 DUP2 MUL SWAP2 SWAP1 SWAP2 ADD DUP2 ADD MLOAD PUSH1 0x40 DUP1 MLOAD PUSH1 0xFF SWAP1 SWAP6 AND DUP6 MSTORE SWAP2 DUP5 ADD SWAP3 SWAP1 SWAP3 MSTORE DUP3 ADD MSTORE PUSH1 0x60 ADD PUSH1 0x40 MLOAD DUP1 SWAP2 SUB SWAP1 LOG2 POP DUP1 PUSH2 0xC32 DUP2 PUSH2 0x2916 JUMP JUMPDEST SWAP2 POP POP PUSH2 0xB4B JUMP JUMPDEST POP POP POP POP POP JUMP JUMPDEST PUSH32 0x8D1089725C0DC266707FA6207730FB801DCD03108BFED7A21099BD303651D2B7 PUSH2 0x1F0 DUP2 PUSH2 0x14B0 JUMP JUMPDEST PUSH1 0x0 SWAP2 DUP3 MSTORE PUSH1 0x20 DUP3 DUP2 MSTORE PUSH1 0x40 DUP1 DUP5 KECCAK256 PUSH1 0x1 PUSH1 0x1 PUSH1 0xA0 SHL SUB SWAP4 SWAP1 SWAP4 AND DUP5 MSTORE SWAP2 SWAP1 MSTORE SWAP1 KECCAK256 SLOAD PUSH1 0xFF AND SWAP1 JUMP JUMPDEST PUSH2 0xC9D CALLER PUSH2 0x1384 JUMP JUMPDEST DUP1 PUSH2 0xCCD JUMPI POP PUSH2 0xCCD PUSH32 0xCB58D6D985142A614029CDF01861B4FE094D5919A47E69B8310DC4093D9D6AD0 CALLER PUSH2 0xC6B JUMP JUMPDEST PUSH2 0xCE9 JUMPI PUSH1 0x40 MLOAD PUSH3 0x461BCD PUSH1 0xE5 SHL DUP2 MSTORE PUSH1 0x4 ADD PUSH2 0x552 SWAP1 PUSH2 0x285E JUMP JUMPDEST PUSH2 0xCF5 DUP5 DUP5 DUP5 DUP5 PUSH2 0x18F7 JUMP JUMPDEST POP POP POP POP JUMP JUMPDEST PUSH2 0xD24 PUSH32 0x241ECF16D79D0F8DBFB92CBC07FE17840425976CF0667F022FE9877CAA831B08 PUSH2 0x14B0 JUMP JUMPDEST PUSH1 0x1 PUSH1 0x1 PUSH1 0xA0 SHL SUB DUP2 AND PUSH2 0xD6E JUMPI PUSH1 0x40 MLOAD PUSH3 0x461BCD PUSH1 0xE5 SHL DUP2 MSTORE PUSH1 0x20 PUSH1 0x4 DUP3 ADD MSTORE PUSH1 0x11 PUSH1 0x24 DUP3 ADD MSTORE PUSH17 0x1A5B9D985B1A5908199959481D985D5B1D PUSH1 0x7A SHL PUSH1 0x44 DUP3 ADD MSTORE PUSH1 0x64 ADD PUSH2 0x552 JUMP JUMPDEST PUSH1 0x3 DUP1 SLOAD PUSH1 0x1 PUSH1 0x1 PUSH1 0xA0 SHL SUB NOT AND PUSH1 0x1 PUSH1 0x1 PUSH1 0xA0 SHL SUB SWAP3 SWAP1 SWAP3 AND SWAP2 SWAP1 SWAP2 OR SWAP1 SSTORE JUMP JUMPDEST PUSH1 0x1 SLOAD PUSH1 0x1 PUSH1 0xA8 SHL SWAP1 DIV PUSH1 0xFF AND ISZERO DUP1 DUP1 ISZERO PUSH2 0xDB6 JUMPI POP PUSH1 0x1 DUP1 SLOAD PUSH1 0x1 PUSH1 0xA0 SHL SWAP1 DIV PUSH1 0xFF AND LT JUMPDEST DUP1 PUSH2 0xDD6 JUMPI POP ADDRESS EXTCODESIZE ISZERO DUP1 ISZERO PUSH2 0xDD6 JUMPI POP PUSH1 0x1 DUP1 SLOAD PUSH1 0x1 PUSH1 0xA0 SHL SWAP1 DIV PUSH1 0xFF AND EQ JUMPDEST PUSH2 0xE39 JUMPI PUSH1 0x40 MLOAD PUSH3 0x461BCD PUSH1 0xE5 SHL DUP2 MSTORE PUSH1 0x20 PUSH1 0x4 DUP3 ADD MSTORE PUSH1 0x2E PUSH1 0x24 DUP3 ADD MSTORE PUSH32 0x496E697469616C697A61626C653A20636F6E747261637420697320616C726561 PUSH1 0x44 DUP3 ADD MSTORE PUSH14 0x191E481A5B9A5D1A585B1A5E9959 PUSH1 0x92 SHL PUSH1 0x64 DUP3 ADD MSTORE PUSH1 0x84 ADD PUSH2 0x552 JUMP JUMPDEST PUSH1 0x1 DUP1 SLOAD PUSH1 0xFF PUSH1 0xA0 SHL NOT AND PUSH1 0x1 PUSH1 0xA0 SHL OR SWAP1 SSTORE DUP1 ISZERO PUSH2 0xE66 JUMPI PUSH1 0x1 DUP1 SLOAD PUSH1 0xFF PUSH1 0xA8 SHL NOT AND PUSH1 0x1 PUSH1 0xA8 SHL OR SWAP1 SSTORE JUMPDEST PUSH1 0x1 PUSH1 0x1 PUSH1 0xA0 SHL SUB DUP5 AND PUSH2 0xEAE JUMPI PUSH1 0x40 MLOAD PUSH3 0x461BCD PUSH1 0xE5 SHL DUP2 MSTORE PUSH1 0x20 PUSH1 0x4 DUP3 ADD MSTORE PUSH1 0xF PUSH1 0x24 DUP3 ADD MSTORE PUSH15 0x696E76616C69642061646472657373 PUSH1 0x88 SHL PUSH1 0x44 DUP3 ADD MSTORE PUSH1 0x64 ADD PUSH2 0x552 JUMP JUMPDEST PUSH1 0x1 PUSH1 0x1 PUSH1 0xA0 SHL SUB DUP4 AND PUSH2 0xEF8 JUMPI PUSH1 0x40 MLOAD PUSH3 0x461BCD PUSH1 0xE5 SHL DUP2 MSTORE PUSH1 0x20 PUSH1 0x4 DUP3 ADD MSTORE PUSH1 0x11 PUSH1 0x24 DUP3 ADD MSTORE PUSH17 0x1A5B9D985B1A5908199959481D985D5B1D PUSH1 0x7A SHL PUSH1 0x44 DUP3 ADD MSTORE PUSH1 0x64 ADD PUSH2 0x552 JUMP JUMPDEST PUSH1 0x1 PUSH1 0x1 PUSH1 0xA0 SHL SUB DUP3 AND PUSH2 0xF40 JUMPI PUSH1 0x40 MLOAD PUSH3 0x461BCD PUSH1 0xE5 SHL DUP2 MSTORE PUSH1 0x20 PUSH1 0x4 DUP3 ADD MSTORE PUSH1 0xF PUSH1 0x24 DUP3 ADD MSTORE PUSH15 0x696E76616C69642066756E64466565 PUSH1 0x88 SHL PUSH1 0x44 DUP3 ADD MSTORE PUSH1 0x64 ADD PUSH2 0x552 JUMP JUMPDEST PUSH2 0xF49 DUP5 PUSH2 0x1A3D JUMP JUMPDEST PUSH1 0x5 DUP1 SLOAD PUSH1 0x1 PUSH1 0x1 PUSH1 0xA0 SHL SUB DUP1 DUP8 AND PUSH1 0x1 PUSH1 0x1 PUSH1 0xA0 SHL SUB NOT SWAP3 DUP4 AND OR SWAP1 SWAP3 SSTORE PUSH1 0x3 DUP1 SLOAD DUP7 DUP5 AND SWAP1 DUP4 AND OR SWAP1 SSTORE PUSH1 0x4 DUP1 SLOAD SWAP3 DUP6 AND SWAP3 SWAP1 SWAP2 AND SWAP2 SWAP1 SWAP2 OR SWAP1 SSTORE PUSH2 0xF91 PUSH1 0x0 CALLER PUSH2 0x14BA JUMP JUMPDEST PUSH2 0xFBB PUSH32 0x241ECF16D79D0F8DBFB92CBC07FE17840425976CF0667F022FE9877CAA831B08 CALLER PUSH2 0x14BA JUMP JUMPDEST DUP1 ISZERO PUSH2 0xCF5 JUMPI PUSH1 0x1 DUP1 SLOAD PUSH1 0xFF PUSH1 0xA8 SHL NOT AND DUP2 SSTORE PUSH1 0x40 MLOAD SWAP1 DUP2 MSTORE PUSH32 0x7F26B83FF96E1F2B6A682F133852F6798A09C465DA95921460CEFB3847402498 SWAP1 PUSH1 0x20 ADD PUSH1 0x40 MLOAD DUP1 SWAP2 SUB SWAP1 LOG1 POP POP POP POP JUMP JUMPDEST PUSH2 0x1010 CALLER PUSH2 0x1384 JUMP JUMPDEST PUSH2 0x104D JUMPI PUSH1 0x40 MLOAD PUSH3 0x461BCD PUSH1 0xE5 SHL DUP2 MSTORE PUSH1 0x20 PUSH1 0x4 DUP3 ADD MSTORE PUSH1 0xE PUSH1 0x24 DUP3 ADD MSTORE PUSH14 0x1A5B9D985B1A59081B585C9AD95D PUSH1 0x92 SHL PUSH1 0x44 DUP3 ADD MSTORE PUSH1 0x64 ADD PUSH2 0x552 JUMP JUMPDEST PUSH1 0x4 DUP1 SLOAD PUSH1 0x40 MLOAD PUSH4 0xC6F83AD1 PUSH1 0xE0 SHL DUP2 MSTORE PUSH1 0x1 PUSH1 0x1 PUSH1 0xA0 SHL SUB DUP7 DUP2 AND SWAP4 DUP3 ADD SWAP4 SWAP1 SWAP4 MSTORE PUSH1 0x24 DUP2 ADD DUP6 SWAP1 MSTORE PUSH1 0x44 DUP2 ADD DUP5 SWAP1 MSTORE SWAP2 AND SWAP1 PUSH4 0xC6F83AD1 SWAP1 PUSH1 0x64 ADD PUSH1 0x0 PUSH1 0x40 MLOAD DUP1 DUP4 SUB DUP2 PUSH1 0x0 DUP8 DUP1 EXTCODESIZE ISZERO DUP1 ISZERO PUSH2 0x10A4 JUMPI PUSH1 0x0 DUP1 REVERT JUMPDEST POP GAS CALL ISZERO DUP1 ISZERO PUSH2 0x10B8 JUMPI RETURNDATASIZE PUSH1 0x0 DUP1 RETURNDATACOPY RETURNDATASIZE PUSH1 0x0 REVERT JUMPDEST POP POP POP POP POP POP POP JUMP JUMPDEST PUSH1 0x0 DUP1 DUP3 PUSH1 0x60 ADD MLOAD ISZERO PUSH2 0x10D6 JUMPI POP PUSH1 0x0 PUSH2 0x10DA JUMP JUMPDEST POP PUSH1 0x1 JUMPDEST PUSH1 0x0 PUSH2 0x10FE DUP5 PUSH1 0x0 ADD MLOAD DUP6 PUSH1 0xA0 ADD MLOAD PUSH1 0xC0 ADD MLOAD PUSH1 0x1 PUSH1 0x1 PUSH1 0x80 SHL SUB AND DUP5 PUSH1 0x6 PUSH2 0x1A60 JUMP JUMPDEST DUP5 MLOAD PUSH1 0x1 PUSH1 0x1 PUSH1 0xA0 SHL SUB AND PUSH1 0x0 SWAP1 DUP2 MSTORE PUSH1 0x6 PUSH1 0x20 SWAP1 DUP2 MSTORE PUSH1 0x40 DUP1 DUP4 KECCAK256 PUSH1 0x3 DUP5 MSTORE SWAP1 SWAP2 MSTORE SWAP1 KECCAK256 SLOAD SWAP1 SWAP2 POP PUSH2 0x1139 PUSH2 0x1134 DUP3 DUP5 PUSH2 0x294B JUMP JUMPDEST PUSH2 0x1AF5 JUMP JUMPDEST SWAP6 SWAP5 POP POP POP POP POP JUMP JUMPDEST PUSH2 0x116B PUSH32 0x241ECF16D79D0F8DBFB92CBC07FE17840425976CF0667F022FE9877CAA831B08 PUSH2 0x14B0 JUMP JUMPDEST PUSH1 0x4 SLOAD PUSH1 0x1 PUSH1 0x1 PUSH1 0xA0 SHL SUB AND PUSH2 0x11B5 JUMPI PUSH1 0x40 MLOAD PUSH3 0x461BCD PUSH1 0xE5 SHL DUP2 MSTORE PUSH1 0x20 PUSH1 0x4 DUP3 ADD MSTORE PUSH1 0xF PUSH1 0x24 DUP3 ADD MSTORE PUSH15 0x696E76616C69642066756E64466565 PUSH1 0x88 SHL PUSH1 0x44 DUP3 ADD MSTORE PUSH1 0x64 ADD PUSH2 0x552 JUMP JUMPDEST PUSH1 0x4 DUP1 SLOAD PUSH1 0x1 PUSH1 0x1 PUSH1 0xA0 SHL SUB NOT AND PUSH1 0x1 PUSH1 0x1 PUSH1 0xA0 SHL SUB SWAP3 SWAP1 SWAP3 AND SWAP2 SWAP1 SWAP2 OR SWAP1 SSTORE JUMP JUMPDEST PUSH1 0x0 DUP3 DUP2 MSTORE PUSH1 0x20 DUP2 SWAP1 MSTORE PUSH1 0x40 SWAP1 KECCAK256 PUSH1 0x1 ADD SLOAD PUSH2 0x11F2 DUP2 PUSH2 0x14B0 JUMP JUMPDEST PUSH2 0x741 DUP4 DUP4 PUSH2 0x153E JUMP JUMPDEST PUSH32 0x5D8E12C39142FF96D79D04D15D1BA1269E4FE57BB9D26F43523628B34BA108EC PUSH2 0x1226 DUP2 PUSH2 0x14B0 JUMP JUMPDEST PUSH1 0x3 SLOAD PUSH1 0x40 MLOAD PUSH4 0x6CE57689 PUSH1 0xE1 SHL DUP2 MSTORE PUSH1 0x1 PUSH1 0x1 PUSH1 0xA0 SHL SUB DUP7 DUP2 AND PUSH1 0x4 DUP4 ADD MSTORE DUP6 DUP2 AND PUSH1 0x24 DUP4 ADD MSTORE PUSH1 0x44 DUP3 ADD DUP6 SWAP1 MSTORE SWAP1 SWAP2 AND SWAP1 PUSH4 0xD9CAED12 SWAP1 PUSH1 0x64 ADD PUSH1 0x0 PUSH1 0x40 MLOAD DUP1 DUP4 SUB DUP2 PUSH1 0x0 DUP8 DUP1 EXTCODESIZE ISZERO DUP1 ISZERO PUSH2 0x127C JUMPI PUSH1 0x0 DUP1 REVERT JUMPDEST POP GAS CALL ISZERO DUP1 ISZERO PUSH2 0x1290 JUMPI RETURNDATASIZE PUSH1 0x0 DUP1 RETURNDATACOPY RETURNDATASIZE PUSH1 0x0 REVERT JUMPDEST POP POP POP POP POP POP POP POP JUMP JUMPDEST PUSH2 0x12A3 CALLER PUSH2 0x1384 JUMP JUMPDEST DUP1 PUSH2 0x12D3 JUMPI POP PUSH2 0x12D3 PUSH32 0xCB58D6D985142A614029CDF01861B4FE094D5919A47E69B8310DC4093D9D6AD0 CALLER PUSH2 0xC6B JUMP JUMPDEST PUSH2 0x12EF JUMPI PUSH1 0x40 MLOAD PUSH3 0x461BCD PUSH1 0xE5 SHL DUP2 MSTORE PUSH1 0x4 ADD PUSH2 0x552 SWAP1 PUSH2 0x285E JUMP JUMPDEST PUSH2 0x741 DUP4 DUP4 DUP4 PUSH1 0x0 PUSH2 0x18F7 JUMP JUMPDEST PUSH2 0x1304 PUSH2 0x1841 JUMP JUMPDEST PUSH1 0x1 PUSH1 0x1 PUSH1 0xA0 SHL SUB DUP2 AND PUSH2 0x1369 JUMPI PUSH1 0x40 MLOAD PUSH3 0x461BCD PUSH1 0xE5 SHL DUP2 MSTORE PUSH1 0x20 PUSH1 0x4 DUP3 ADD MSTORE PUSH1 0x26 PUSH1 0x24 DUP3 ADD MSTORE PUSH32 0x4F776E61626C653A206E6577206F776E657220697320746865207A65726F2061 PUSH1 0x44 DUP3 ADD MSTORE PUSH6 0x646472657373 PUSH1 0xD0 SHL PUSH1 0x64 DUP3 ADD MSTORE PUSH1 0x84 ADD PUSH2 0x552 JUMP JUMPDEST PUSH2 0x1372 DUP2 PUSH2 0x189B JUMP JUMPDEST POP JUMP JUMPDEST PUSH2 0x1381 PUSH1 0x8 PUSH1 0xA PUSH2 0x2A42 JUMP JUMPDEST DUP2 JUMP JUMPDEST PUSH1 0x0 DUP1 PUSH1 0x5 PUSH1 0x0 SWAP1 SLOAD SWAP1 PUSH2 0x100 EXP SWAP1 DIV PUSH1 0x1 PUSH1 0x1 PUSH1 0xA0 SHL SUB AND PUSH1 0x1 PUSH1 0x1 PUSH1 0xA0 SHL SUB AND PUSH4 0xEC2C9016 PUSH1 0x40 MLOAD DUP2 PUSH4 0xFFFFFFFF AND PUSH1 0xE0 SHL DUP2 MSTORE PUSH1 0x4 ADD PUSH1 0x0 PUSH1 0x40 MLOAD DUP1 DUP4 SUB DUP2 DUP7 GAS STATICCALL ISZERO DUP1 ISZERO PUSH2 0x13DA JUMPI RETURNDATASIZE PUSH1 0x0 DUP1 RETURNDATACOPY RETURNDATASIZE PUSH1 0x0 REVERT JUMPDEST POP POP POP POP PUSH1 0x40 MLOAD RETURNDATASIZE PUSH1 0x0 DUP3 RETURNDATACOPY PUSH1 0x1F RETURNDATASIZE SWAP1 DUP2 ADD PUSH1 0x1F NOT AND DUP3 ADD PUSH1 0x40 MSTORE PUSH2 0x1402 SWAP2 SWAP1 DUP2 ADD SWAP1 PUSH2 0x2A88 JUMP JUMPDEST DUP1 MLOAD SWAP1 SWAP2 POP PUSH1 0x0 JUMPDEST DUP2 DUP2 LT ISZERO PUSH2 0x14A5 JUMPI DUP3 DUP2 DUP2 MLOAD DUP2 LT PUSH2 0x1424 JUMPI PUSH2 0x1424 PUSH2 0x2935 JUMP JUMPDEST PUSH1 0x20 MUL PUSH1 0x20 ADD ADD MLOAD PUSH1 0x20 ADD MLOAD PUSH1 0x1 PUSH1 0x1 PUSH1 0xA0 SHL SUB AND DUP6 PUSH1 0x1 PUSH1 0x1 PUSH1 0xA0 SHL SUB AND SUB PUSH2 0x1493 JUMPI DUP3 DUP2 DUP2 MLOAD DUP2 LT PUSH2 0x145A JUMPI PUSH2 0x145A PUSH2 0x2935 JUMP JUMPDEST PUSH1 0x20 MUL PUSH1 0x20 ADD ADD MLOAD PUSH1 0x60 ADD MLOAD DUP1 PUSH2 0x1139 JUMPI POP DUP3 DUP2 DUP2 MLOAD DUP2 LT PUSH2 0x147E JUMPI PUSH2 0x147E PUSH2 0x2935 JUMP JUMPDEST PUSH1 0x20 MUL PUSH1 0x20 ADD ADD MLOAD PUSH1 0x80 ADD MLOAD SWAP6 SWAP5 POP POP POP POP POP JUMP JUMPDEST DUP1 PUSH2 0x149D DUP2 PUSH2 0x2BFC JUMP JUMPDEST SWAP2 POP POP PUSH2 0x140A JUMP JUMPDEST POP PUSH1 0x0 SWAP5 SWAP4 POP POP POP POP JUMP JUMPDEST PUSH2 0x1372 DUP2 CALLER PUSH2 0x17E8 JUMP JUMPDEST PUSH2 0x14C4 DUP3 DUP3 PUSH2 0xC6B JUMP JUMPDEST PUSH2 0x7FB JUMPI PUSH1 0x0 DUP3 DUP2 MSTORE PUSH1 0x20 DUP2 DUP2 MSTORE PUSH1 0x40 DUP1 DUP4 KECCAK256 PUSH1 0x1 PUSH1 0x1 PUSH1 0xA0 SHL SUB DUP6 AND DUP5 MSTORE SWAP1 SWAP2 MSTORE SWAP1 KECCAK256 DUP1 SLOAD PUSH1 0xFF NOT AND PUSH1 0x1 OR SWAP1 SSTORE PUSH2 0x14FA CALLER SWAP1 JUMP JUMPDEST PUSH1 0x1 PUSH1 0x1 PUSH1 0xA0 SHL SUB AND DUP2 PUSH1 0x1 PUSH1 0x1 PUSH1 0xA0 SHL SUB AND DUP4 PUSH32 0x2F8788117E7EFF1D82E926EC794901D17C78024A50270940304540A733656F0D PUSH1 0x40 MLOAD PUSH1 0x40 MLOAD DUP1 SWAP2 SUB SWAP1 LOG4 POP POP JUMP JUMPDEST PUSH2 0x1548 DUP3 DUP3 PUSH2 0xC6B JUMP JUMPDEST ISZERO PUSH2 0x7FB JUMPI PUSH1 0x0 DUP3 DUP2 MSTORE PUSH1 0x20 DUP2 DUP2 MSTORE PUSH1 0x40 DUP1 DUP4 KECCAK256 PUSH1 0x1 PUSH1 0x1 PUSH1 0xA0 SHL SUB DUP6 AND DUP1 DUP6 MSTORE SWAP3 MSTORE DUP1 DUP4 KECCAK256 DUP1 SLOAD PUSH1 0xFF NOT AND SWAP1 SSTORE MLOAD CALLER SWAP3 DUP6 SWAP2 PUSH32 0xF6391F5C32D9C69D2A47EA670B442974B53935D1EDC7FD64EB21E047A839171B SWAP2 SWAP1 LOG4 POP POP JUMP JUMPDEST PUSH1 0x4 DUP1 SLOAD PUSH1 0x40 MLOAD PUSH4 0x478C57CD PUSH1 0xE1 SHL DUP2 MSTORE PUSH1 0x1 PUSH1 0x1 PUSH1 0xA0 SHL SUB DUP8 DUP2 AND SWAP4 DUP3 ADD SWAP4 SWAP1 SWAP4 MSTORE PUSH1 0x24 DUP2 ADD DUP6 SWAP1 MSTORE PUSH1 0x44 DUP2 ADD DUP5 SWAP1 MSTORE DUP6 ISZERO ISZERO PUSH1 0x64 DUP3 ADD MSTORE PUSH1 0x0 SWAP3 SWAP1 SWAP2 AND SWAP1 PUSH4 0x8F18AF9A SWAP1 PUSH1 0x84 ADD PUSH1 0x20 PUSH1 0x40 MLOAD DUP1 DUP4 SUB DUP2 DUP7 GAS STATICCALL ISZERO DUP1 ISZERO PUSH2 0x1609 JUMPI RETURNDATASIZE PUSH1 0x0 DUP1 RETURNDATACOPY RETURNDATASIZE PUSH1 0x0 REVERT JUMPDEST POP POP POP POP PUSH1 0x40 MLOAD RETURNDATASIZE PUSH1 0x1F NOT PUSH1 0x1F DUP3 ADD AND DUP3 ADD DUP1 PUSH1 0x40 MSTORE POP DUP2 ADD SWAP1 PUSH2 0x162D SWAP2 SWAP1 PUSH2 0x2895 JUMP JUMPDEST SWAP1 POP JUMPDEST SWAP5 SWAP4 POP POP POP POP JUMP JUMPDEST PUSH1 0x40 DUP1 MLOAD PUSH1 0xC DUP1 DUP3 MSTORE PUSH2 0x1A0 DUP3 ADD SWAP1 SWAP3 MSTORE PUSH1 0x60 SWAP2 PUSH1 0x20 DUP3 ADD PUSH2 0x180 DUP1 CALLDATASIZE DUP4 CALLDATACOPY ADD SWAP1 POP POP DUP5 MLOAD SWAP1 SWAP2 POP DUP4 DUP3 PUSH1 0x2 PUSH1 0xFF AND DUP2 MLOAD DUP2 LT PUSH2 0x1677 JUMPI PUSH2 0x1677 PUSH2 0x2935 JUMP JUMPDEST PUSH1 0x20 SWAP1 DUP2 MUL SWAP2 SWAP1 SWAP2 ADD ADD MSTORE PUSH1 0xA0 DUP6 ADD MLOAD ISZERO DUP1 ISZERO PUSH2 0x1698 JUMPI POP PUSH2 0x180 DUP6 ADD MLOAD ISZERO ISZERO JUMPDEST ISZERO PUSH2 0x16A3 JUMPI POP PUSH2 0x715 JUMP JUMPDEST DUP5 PUSH1 0x60 ADD MLOAD ISZERO PUSH2 0x16E8 JUMPI PUSH1 0xA0 DUP6 ADD MLOAD PUSH2 0x16C1 SWAP1 DUP3 SWAP1 PUSH1 0x0 JUMPDEST DUP7 PUSH2 0x1A60 JUMP JUMPDEST DUP3 PUSH1 0x0 PUSH1 0xFF AND DUP2 MLOAD DUP2 LT PUSH2 0x16D7 JUMPI PUSH2 0x16D7 PUSH2 0x2935 JUMP JUMPDEST PUSH1 0x20 MUL PUSH1 0x20 ADD ADD DUP2 DUP2 MSTORE POP POP PUSH2 0x1775 JUMP JUMPDEST PUSH1 0xA0 DUP6 ADD MLOAD PUSH2 0x16FA SWAP1 DUP3 SWAP1 PUSH1 0x1 PUSH2 0x16BB JUMP JUMPDEST DUP3 PUSH1 0x1 PUSH1 0xFF AND DUP2 MLOAD DUP2 LT PUSH2 0x1710 JUMPI PUSH2 0x1710 PUSH2 0x2935 JUMP JUMPDEST PUSH1 0x20 MUL PUSH1 0x20 ADD ADD DUP2 DUP2 MSTORE POP POP DUP5 PUSH2 0x120 ADD MLOAD PUSH1 0xFF AND PUSH1 0x1 SUB PUSH2 0x1775 JUMPI PUSH1 0x1 PUSH1 0x1 PUSH1 0xA0 SHL SUB DUP2 AND PUSH1 0x0 SWAP1 DUP2 MSTORE PUSH1 0x20 DUP5 DUP2 MSTORE PUSH1 0x40 DUP1 DUP4 KECCAK256 PUSH1 0x4 DUP1 DUP6 MSTORE SWAP3 MSTORE SWAP1 SWAP2 KECCAK256 SLOAD DUP4 MLOAD SWAP1 SWAP2 DUP3 SWAP2 DUP6 SWAP2 SWAP1 DUP2 LT PUSH2 0x1767 JUMPI PUSH2 0x1767 PUSH2 0x2935 JUMP JUMPDEST PUSH1 0x20 MUL PUSH1 0x20 ADD ADD DUP2 DUP2 MSTORE POP POP POP JUMPDEST PUSH2 0x1A0 DUP6 ADD MLOAD PUSH1 0xFF AND ISZERO PUSH2 0x17E0 JUMPI PUSH1 0x1 PUSH1 0x1 PUSH1 0xA0 SHL SUB DUP2 AND PUSH1 0x0 SWAP1 DUP2 MSTORE PUSH1 0x20 DUP5 DUP2 MSTORE PUSH1 0x40 DUP1 DUP4 KECCAK256 PUSH1 0x3 DUP5 MSTORE SWAP1 SWAP2 MSTORE SWAP1 KECCAK256 SLOAD PUSH2 0x1A0 DUP7 ADD MLOAD PUSH2 0x17B9 SWAP1 PUSH1 0xFF AND DUP3 PUSH2 0x2C15 JUMP JUMPDEST SWAP1 POP DUP1 DUP4 PUSH1 0x3 PUSH1 0xFF AND DUP2 MLOAD DUP2 LT PUSH2 0x17D2 JUMPI PUSH2 0x17D2 PUSH2 0x2935 JUMP JUMPDEST PUSH1 0x20 MUL PUSH1 0x20 ADD ADD DUP2 DUP2 MSTORE POP POP POP JUMPDEST POP SWAP4 SWAP3 POP POP POP JUMP JUMPDEST PUSH2 0x17F2 DUP3 DUP3 PUSH2 0xC6B JUMP JUMPDEST PUSH2 0x7FB JUMPI PUSH2 0x17FF DUP2 PUSH2 0x1B63 JUMP JUMPDEST PUSH2 0x180A DUP4 PUSH1 0x20 PUSH2 0x1B75 JUMP JUMPDEST PUSH1 0x40 MLOAD PUSH1 0x20 ADD PUSH2 0x181B SWAP3 SWAP2 SWAP1 PUSH2 0x2C2C JUMP JUMPDEST PUSH1 0x40 DUP1 MLOAD PUSH1 0x1F NOT DUP2 DUP5 SUB ADD DUP2 MSTORE SWAP1 DUP3 SWAP1 MSTORE PUSH3 0x461BCD PUSH1 0xE5 SHL DUP3 MSTORE PUSH2 0x552 SWAP2 PUSH1 0x4 ADD PUSH2 0x2CA1 JUMP JUMPDEST PUSH1 0x1 SLOAD PUSH1 0x1 PUSH1 0x1 PUSH1 0xA0 SHL SUB AND CALLER EQ PUSH2 0xA46 JUMPI PUSH1 0x40 MLOAD PUSH3 0x461BCD PUSH1 0xE5 SHL DUP2 MSTORE PUSH1 0x20 PUSH1 0x4 DUP3 ADD DUP2 SWAP1 MSTORE PUSH1 0x24 DUP3 ADD MSTORE PUSH32 0x4F776E61626C653A2063616C6C6572206973206E6F7420746865206F776E6572 PUSH1 0x44 DUP3 ADD MSTORE PUSH1 0x64 ADD PUSH2 0x552 JUMP JUMPDEST PUSH1 0x1 DUP1 SLOAD PUSH1 0x1 PUSH1 0x1 PUSH1 0xA0 SHL SUB DUP4 DUP2 AND PUSH1 0x1 PUSH1 0x1 PUSH1 0xA0 SHL SUB NOT DUP4 AND DUP2 OR SWAP1 SWAP4 SSTORE PUSH1 0x40 MLOAD SWAP2 AND SWAP2 SWAP1 DUP3 SWAP1 PUSH32 0x8BE0079C531659141344CD1FD0A4F28419497F9722A3DAAFE3B4186F6B6457E0 SWAP1 PUSH1 0x0 SWAP1 LOG3 POP POP JUMP JUMPDEST PUSH2 0x7FB DUP3 DUP3 PUSH2 0x14BA JUMP JUMPDEST PUSH1 0x40 MLOAD PUSH4 0x6EB1769F PUSH1 0xE1 SHL DUP2 MSTORE CALLER PUSH1 0x4 DUP3 ADD MSTORE ADDRESS PUSH1 0x24 DUP3 ADD MSTORE PUSH1 0x0 SWAP1 PUSH1 0x1 PUSH1 0x1 PUSH1 0xA0 SHL SUB DUP6 AND SWAP1 PUSH4 0xDD62ED3E SWAP1 PUSH1 0x44 ADD PUSH1 0x20 PUSH1 0x40 MLOAD DUP1 DUP4 SUB DUP2 DUP7 GAS STATICCALL ISZERO DUP1 ISZERO PUSH2 0x1944 JUMPI RETURNDATASIZE PUSH1 0x0 DUP1 RETURNDATACOPY RETURNDATASIZE PUSH1 0x0 REVERT JUMPDEST POP POP POP POP PUSH1 0x40 MLOAD RETURNDATASIZE PUSH1 0x1F NOT PUSH1 0x1F DUP3 ADD AND DUP3 ADD DUP1 PUSH1 0x40 MSTORE POP DUP2 ADD SWAP1 PUSH2 0x1968 SWAP2 SWAP1 PUSH2 0x2895 JUMP JUMPDEST SWAP1 POP DUP1 ISZERO PUSH2 0x198C JUMPI PUSH1 0x3 SLOAD PUSH2 0x198C SWAP1 PUSH1 0x1 PUSH1 0x1 PUSH1 0xA0 SHL SUB DUP7 DUP2 AND SWAP2 CALLER SWAP2 AND DUP5 PUSH2 0x1D10 JUMP JUMPDEST DUP2 ISZERO PUSH2 0x19F8 JUMPI PUSH1 0x4 DUP1 SLOAD PUSH1 0x40 MLOAD PUSH4 0xD6F5066B PUSH1 0xE0 SHL DUP2 MSTORE CALLER SWAP3 DUP2 ADD SWAP3 SWAP1 SWAP3 MSTORE PUSH1 0x24 DUP3 ADD DUP5 SWAP1 MSTORE PUSH1 0x1 PUSH1 0x1 PUSH1 0xA0 SHL SUB AND SWAP1 PUSH4 0xD6F5066B SWAP1 PUSH1 0x44 ADD PUSH1 0x0 PUSH1 0x40 MLOAD DUP1 DUP4 SUB DUP2 PUSH1 0x0 DUP8 DUP1 EXTCODESIZE ISZERO DUP1 ISZERO PUSH2 0x19DF JUMPI PUSH1 0x0 DUP1 REVERT JUMPDEST POP GAS CALL ISZERO DUP1 ISZERO PUSH2 0x19F3 JUMPI RETURNDATASIZE PUSH1 0x0 DUP1 RETURNDATACOPY RETURNDATASIZE PUSH1 0x0 REVERT JUMPDEST POP POP POP POP JUMPDEST CALLER PUSH1 0x1 PUSH1 0x1 PUSH1 0xA0 SHL SUB AND DUP6 PUSH1 0x1 PUSH1 0x1 PUSH1 0xA0 SHL SUB AND PUSH32 0x51B85031527A935663233D62A057687D039B9FBCD79C55E46A5B24510159336F DUP6 DUP5 PUSH1 0x40 MLOAD PUSH2 0x689 SWAP3 SWAP2 SWAP1 PUSH2 0x28AE JUMP JUMPDEST TIMESTAMP PUSH1 0x2 SSTORE PUSH2 0x1A4A CALLER PUSH2 0x189B JUMP JUMPDEST PUSH2 0x1A55 PUSH1 0x0 CALLER PUSH2 0x18ED JUMP JUMPDEST PUSH2 0x1372 PUSH1 0x0 DUP3 PUSH2 0x18ED JUMP JUMPDEST PUSH1 0x0 DUP4 PUSH1 0x0 SUB PUSH2 0x1A72 JUMPI POP PUSH1 0x0 PUSH2 0x1630 JUMP JUMPDEST PUSH1 0x1 PUSH1 0x1 PUSH1 0xA0 SHL SUB DUP6 AND PUSH1 0x0 SWAP1 DUP2 MSTORE PUSH1 0x20 DUP4 DUP2 MSTORE PUSH1 0x40 DUP1 DUP4 KECCAK256 PUSH1 0xFF DUP8 AND DUP5 MSTORE SWAP1 SWAP2 MSTORE DUP2 KECCAK256 SLOAD SWAP1 DUP2 SWAP1 SUB PUSH2 0x1AA5 JUMPI POP PUSH3 0x186A0 JUMPDEST PUSH1 0x0 PUSH2 0x1AB3 PUSH1 0x8 PUSH1 0xA PUSH2 0x2A42 JUMP JUMPDEST DUP3 PUSH2 0x1AC0 PUSH1 0x8 PUSH1 0xA PUSH2 0x2A42 JUMP JUMPDEST PUSH2 0x1ACA SWAP2 SWAP1 PUSH2 0x28E6 JUMP JUMPDEST PUSH2 0x1AD4 SWAP1 DUP9 PUSH2 0x2C15 JUMP JUMPDEST PUSH2 0x1ADE SWAP2 SWAP1 PUSH2 0x2CD4 JUMP JUMPDEST SWAP1 POP PUSH2 0x1AEA DUP2 DUP8 PUSH2 0x28E6 JUMP JUMPDEST SWAP8 SWAP7 POP POP POP POP POP POP POP JUMP JUMPDEST PUSH1 0x0 PUSH1 0x1 PUSH1 0x1 PUSH1 0xFF SHL SUB DUP3 GT ISZERO PUSH2 0x1B5F JUMPI PUSH1 0x40 MLOAD PUSH3 0x461BCD PUSH1 0xE5 SHL DUP2 MSTORE PUSH1 0x20 PUSH1 0x4 DUP3 ADD MSTORE PUSH1 0x28 PUSH1 0x24 DUP3 ADD MSTORE PUSH32 0x53616665436173743A2076616C756520646F65736E27742066697420696E2061 PUSH1 0x44 DUP3 ADD MSTORE PUSH8 0x371034B73A191A9B PUSH1 0xC1 SHL PUSH1 0x64 DUP3 ADD MSTORE PUSH1 0x84 ADD PUSH2 0x552 JUMP JUMPDEST POP SWAP1 JUMP JUMPDEST PUSH1 0x60 PUSH2 0x4F7 PUSH1 0x1 PUSH1 0x1 PUSH1 0xA0 SHL SUB DUP4 AND PUSH1 0x14 JUMPDEST PUSH1 0x60 PUSH1 0x0 PUSH2 0x1B84 DUP4 PUSH1 0x2 PUSH2 0x2C15 JUMP JUMPDEST PUSH2 0x1B8F SWAP1 PUSH1 0x2 PUSH2 0x294B JUMP JUMPDEST PUSH1 0x1 PUSH1 0x1 PUSH1 0x40 SHL SUB DUP2 GT ISZERO PUSH2 0x1BA6 JUMPI PUSH2 0x1BA6 PUSH2 0x1FA4 JUMP JUMPDEST PUSH1 0x40 MLOAD SWAP1 DUP1 DUP3 MSTORE DUP1 PUSH1 0x1F ADD PUSH1 0x1F NOT AND PUSH1 0x20 ADD DUP3 ADD PUSH1 0x40 MSTORE DUP1 ISZERO PUSH2 0x1BD0 JUMPI PUSH1 0x20 DUP3 ADD DUP2 DUP1 CALLDATASIZE DUP4 CALLDATACOPY ADD SWAP1 POP JUMPDEST POP SWAP1 POP PUSH1 0x3 PUSH1 0xFC SHL DUP2 PUSH1 0x0 DUP2 MLOAD DUP2 LT PUSH2 0x1BEB JUMPI PUSH2 0x1BEB PUSH2 0x2935 JUMP JUMPDEST PUSH1 0x20 ADD ADD SWAP1 PUSH1 0x1 PUSH1 0x1 PUSH1 0xF8 SHL SUB NOT AND SWAP1 DUP2 PUSH1 0x0 BYTE SWAP1 MSTORE8 POP PUSH1 0xF PUSH1 0xFB SHL DUP2 PUSH1 0x1 DUP2 MLOAD DUP2 LT PUSH2 0x1C1A JUMPI PUSH2 0x1C1A PUSH2 0x2935 JUMP JUMPDEST PUSH1 0x20 ADD ADD SWAP1 PUSH1 0x1 PUSH1 0x1 PUSH1 0xF8 SHL SUB NOT AND SWAP1 DUP2 PUSH1 0x0 BYTE SWAP1 MSTORE8 POP PUSH1 0x0 PUSH2 0x1C3E DUP5 PUSH1 0x2 PUSH2 0x2C15 JUMP JUMPDEST PUSH2 0x1C49 SWAP1 PUSH1 0x1 PUSH2 0x294B JUMP JUMPDEST SWAP1 POP JUMPDEST PUSH1 0x1 DUP2 GT ISZERO PUSH2 0x1CC1 JUMPI PUSH16 0x181899199A1A9B1B9C1CB0B131B232B3 PUSH1 0x81 SHL DUP6 PUSH1 0xF AND PUSH1 0x10 DUP2 LT PUSH2 0x1C7D JUMPI PUSH2 0x1C7D PUSH2 0x2935 JUMP JUMPDEST BYTE PUSH1 0xF8 SHL DUP3 DUP3 DUP2 MLOAD DUP2 LT PUSH2 0x1C93 JUMPI PUSH2 0x1C93 PUSH2 0x2935 JUMP JUMPDEST PUSH1 0x20 ADD ADD SWAP1 PUSH1 0x1 PUSH1 0x1 PUSH1 0xF8 SHL SUB NOT AND SWAP1 DUP2 PUSH1 0x0 BYTE SWAP1 MSTORE8 POP PUSH1 0x4 SWAP5 SWAP1 SWAP5 SHR SWAP4 PUSH2 0x1CBA DUP2 PUSH2 0x2CF6 JUMP JUMPDEST SWAP1 POP PUSH2 0x1C4C JUMP JUMPDEST POP DUP4 ISZERO PUSH2 0x715 JUMPI PUSH1 0x40 MLOAD PUSH3 0x461BCD PUSH1 0xE5 SHL DUP2 MSTORE PUSH1 0x20 PUSH1 0x4 DUP3 ADD DUP2 SWAP1 MSTORE PUSH1 0x24 DUP3 ADD MSTORE PUSH32 0x537472696E67733A20686578206C656E67746820696E73756666696369656E74 PUSH1 0x44 DUP3 ADD MSTORE PUSH1 0x64 ADD PUSH2 0x552 JUMP JUMPDEST PUSH1 0x40 DUP1 MLOAD PUSH1 0x1 PUSH1 0x1 PUSH1 0xA0 SHL SUB DUP6 DUP2 AND PUSH1 0x24 DUP4 ADD MSTORE DUP5 DUP2 AND PUSH1 0x44 DUP4 ADD MSTORE PUSH1 0x64 DUP1 DUP4 ADD DUP6 SWAP1 MSTORE DUP4 MLOAD DUP1 DUP5 SUB SWAP1 SWAP2 ADD DUP2 MSTORE PUSH1 0x84 SWAP1 SWAP3 ADD DUP4 MSTORE PUSH1 0x20 DUP1 DUP4 ADD DUP1 MLOAD PUSH1 0x1 PUSH1 0x1 PUSH1 0xE0 SHL SUB AND PUSH4 0x23B872DD PUSH1 0xE0 SHL OR SWAP1 MSTORE DUP4 MLOAD DUP1 DUP6 ADD SWAP1 SWAP5 MSTORE DUP1 DUP5 MSTORE PUSH32 0x5361666545524332303A206C6F772D6C6576656C2063616C6C206661696C6564 SWAP1 DUP5 ADD MSTORE PUSH2 0xCF5 SWAP3 DUP8 SWAP3 SWAP2 PUSH1 0x0 SWAP2 PUSH2 0x1DA8 SWAP2 DUP6 AND SWAP1 DUP5 SWAP1 PUSH2 0x1E25 JUMP JUMPDEST DUP1 MLOAD SWAP1 SWAP2 POP ISZERO PUSH2 0x741 JUMPI DUP1 DUP1 PUSH1 0x20 ADD SWAP1 MLOAD DUP2 ADD SWAP1 PUSH2 0x1DC6 SWAP2 SWAP1 PUSH2 0x2D0D JUMP JUMPDEST PUSH2 0x741 JUMPI PUSH1 0x40 MLOAD PUSH3 0x461BCD PUSH1 0xE5 SHL DUP2 MSTORE PUSH1 0x20 PUSH1 0x4 DUP3 ADD MSTORE PUSH1 0x2A PUSH1 0x24 DUP3 ADD MSTORE PUSH32 0x5361666545524332303A204552433230206F7065726174696F6E20646964206E PUSH1 0x44 DUP3 ADD MSTORE PUSH10 0x1BDD081CDD58D8D95959 PUSH1 0xB2 SHL PUSH1 0x64 DUP3 ADD MSTORE PUSH1 0x84 ADD PUSH2 0x552 JUMP JUMPDEST PUSH1 0x60 PUSH2 0x1630 DUP5 DUP5 PUSH1 0x0 DUP6 DUP6 PUSH1 0x0 DUP1 DUP7 PUSH1 0x1 PUSH1 0x1 PUSH1 0xA0 SHL SUB AND DUP6 DUP8 PUSH1 0x40 MLOAD PUSH2 0x1E4C SWAP2 SWAP1 PUSH2 0x2D2A JUMP JUMPDEST PUSH1 0x0 PUSH1 0x40 MLOAD DUP1 DUP4 SUB DUP2 DUP6 DUP8 GAS CALL SWAP3 POP POP POP RETURNDATASIZE DUP1 PUSH1 0x0 DUP2 EQ PUSH2 0x1E89 JUMPI PUSH1 0x40 MLOAD SWAP2 POP PUSH1 0x1F NOT PUSH1 0x3F RETURNDATASIZE ADD AND DUP3 ADD PUSH1 0x40 MSTORE RETURNDATASIZE DUP3 MSTORE RETURNDATASIZE PUSH1 0x0 PUSH1 0x20 DUP5 ADD RETURNDATACOPY PUSH2 0x1E8E JUMP JUMPDEST PUSH1 0x60 SWAP2 POP JUMPDEST POP SWAP2 POP SWAP2 POP PUSH2 0x1AEA DUP8 DUP4 DUP4 DUP8 PUSH1 0x60 DUP4 ISZERO PUSH2 0x1F09 JUMPI DUP3 MLOAD PUSH1 0x0 SUB PUSH2 0x1F02 JUMPI PUSH1 0x1 PUSH1 0x1 PUSH1 0xA0 SHL SUB DUP6 AND EXTCODESIZE PUSH2 0x1F02 JUMPI PUSH1 0x40 MLOAD PUSH3 0x461BCD PUSH1 0xE5 SHL DUP2 MSTORE PUSH1 0x20 PUSH1 0x4 DUP3 ADD MSTORE PUSH1 0x1D PUSH1 0x24 DUP3 ADD MSTORE PUSH32 0x416464726573733A2063616C6C20746F206E6F6E2D636F6E7472616374000000 PUSH1 0x44 DUP3 ADD MSTORE PUSH1 0x64 ADD PUSH2 0x552 JUMP JUMPDEST POP DUP2 PUSH2 0x1630 JUMP JUMPDEST PUSH2 0x1630 DUP4 DUP4 DUP2 MLOAD ISZERO PUSH2 0x1F1E JUMPI DUP2 MLOAD DUP1 DUP4 PUSH1 0x20 ADD REVERT JUMPDEST DUP1 PUSH1 0x40 MLOAD PUSH3 0x461BCD PUSH1 0xE5 SHL DUP2 MSTORE PUSH1 0x4 ADD PUSH2 0x552 SWAP2 SWAP1 PUSH2 0x2CA1 JUMP JUMPDEST PUSH1 0x0 PUSH1 0x20 DUP3 DUP5 SUB SLT ISZERO PUSH2 0x1F4A JUMPI PUSH1 0x0 DUP1 REVERT JUMPDEST DUP2 CALLDATALOAD PUSH1 0x1 PUSH1 0x1 PUSH1 0xE0 SHL SUB NOT DUP2 AND DUP2 EQ PUSH2 0x715 JUMPI PUSH1 0x0 DUP1 REVERT JUMPDEST PUSH1 0x1 PUSH1 0x1 PUSH1 0xA0 SHL SUB DUP2 AND DUP2 EQ PUSH2 0x1372 JUMPI PUSH1 0x0 DUP1 REVERT JUMPDEST DUP1 CALLDATALOAD PUSH2 0x1F82 DUP2 PUSH2 0x1F62 JUMP JUMPDEST SWAP2 SWAP1 POP JUMP JUMPDEST PUSH1 0x0 PUSH1 0x20 DUP3 DUP5 SUB SLT ISZERO PUSH2 0x1F99 JUMPI PUSH1 0x0 DUP1 REVERT JUMPDEST DUP2 CALLDATALOAD PUSH2 0x715 DUP2 PUSH2 0x1F62 JUMP JUMPDEST PUSH4 0x4E487B71 PUSH1 0xE0 SHL PUSH1 0x0 MSTORE PUSH1 0x41 PUSH1 0x4 MSTORE PUSH1 0x24 PUSH1 0x0 REVERT JUMPDEST PUSH1 0x40 MLOAD PUSH2 0x180 DUP2 ADD PUSH1 0x1 PUSH1 0x1 PUSH1 0x40 SHL SUB DUP2 GT DUP3 DUP3 LT OR ISZERO PUSH2 0x1FDD JUMPI PUSH2 0x1FDD PUSH2 0x1FA4 JUMP JUMPDEST PUSH1 0x40 MSTORE SWAP1 JUMP JUMPDEST PUSH1 0x40 MLOAD PUSH2 0x1E0 DUP2 ADD PUSH1 0x1 PUSH1 0x1 PUSH1 0x40 SHL SUB DUP2 GT DUP3 DUP3 LT OR ISZERO PUSH2 0x1FDD JUMPI PUSH2 0x1FDD PUSH2 0x1FA4 JUMP JUMPDEST PUSH1 0x40 MLOAD PUSH2 0x1A0 DUP2 ADD PUSH1 0x1 PUSH1 0x1 PUSH1 0x40 SHL SUB DUP2 GT DUP3 DUP3 LT OR ISZERO PUSH2 0x1FDD JUMPI PUSH2 0x1FDD PUSH2 0x1FA4 JUMP JUMPDEST PUSH1 0x40 MLOAD PUSH1 0xE0 DUP2 ADD PUSH1 0x1 PUSH1 0x1 PUSH1 0x40 SHL SUB DUP2 GT DUP3 DUP3 LT OR ISZERO PUSH2 0x1FDD JUMPI PUSH2 0x1FDD PUSH2 0x1FA4 JUMP JUMPDEST PUSH1 0x40 MLOAD PUSH1 0xA0 DUP2 ADD PUSH1 0x1 PUSH1 0x1 PUSH1 0x40 SHL SUB DUP2 GT DUP3 DUP3 LT OR ISZERO PUSH2 0x1FDD JUMPI PUSH2 0x1FDD PUSH2 0x1FA4 JUMP JUMPDEST PUSH1 0x40 MLOAD PUSH1 0x1F DUP3 ADD PUSH1 0x1F NOT AND DUP2 ADD PUSH1 0x1 PUSH1 0x1 PUSH1 0x40 SHL SUB DUP2 GT DUP3 DUP3 LT OR ISZERO PUSH2 0x2095 JUMPI PUSH2 0x2095 PUSH2 0x1FA4 JUMP JUMPDEST PUSH1 0x40 MSTORE SWAP2 SWAP1 POP JUMP JUMPDEST PUSH1 0x0 PUSH1 0x1 PUSH1 0x1 PUSH1 0x40 SHL SUB DUP3 GT ISZERO PUSH2 0x20B6 JUMPI PUSH2 0x20B6 PUSH2 0x1FA4 JUMP JUMPDEST POP PUSH1 0x5 SHL PUSH1 0x20 ADD SWAP1 JUMP JUMPDEST PUSH1 0x0 DUP3 PUSH1 0x1F DUP4 ADD SLT PUSH2 0x20D1 JUMPI PUSH1 0x0 DUP1 REVERT JUMPDEST DUP2 CALLDATALOAD PUSH1 0x20 PUSH2 0x20E6 PUSH2 0x20E1 DUP4 PUSH2 0x209D JUMP JUMPDEST PUSH2 0x206D JUMP JUMPDEST DUP3 DUP2 MSTORE PUSH1 0x5 SWAP3 SWAP1 SWAP3 SHL DUP5 ADD DUP2 ADD SWAP2 DUP2 DUP2 ADD SWAP1 DUP7 DUP5 GT ISZERO PUSH2 0x2105 JUMPI PUSH1 0x0 DUP1 REVERT JUMPDEST DUP3 DUP7 ADD JUMPDEST DUP5 DUP2 LT ISZERO PUSH2 0x2120 JUMPI DUP1 CALLDATALOAD DUP4 MSTORE SWAP2 DUP4 ADD SWAP2 DUP4 ADD PUSH2 0x2109 JUMP JUMPDEST POP SWAP7 SWAP6 POP POP POP POP POP POP JUMP JUMPDEST PUSH1 0x0 DUP1 PUSH1 0x0 DUP1 PUSH1 0x80 DUP6 DUP8 SUB SLT ISZERO PUSH2 0x2141 JUMPI PUSH1 0x0 DUP1 REVERT JUMPDEST DUP5 CALLDATALOAD PUSH2 0x214C DUP2 PUSH2 0x1F62 JUMP JUMPDEST SWAP4 POP PUSH1 0x20 DUP6 ADD CALLDATALOAD PUSH2 0x215C DUP2 PUSH2 0x1F62 JUMP JUMPDEST SWAP3 POP PUSH1 0x40 DUP6 ADD CALLDATALOAD PUSH1 0x1 PUSH1 0x1 PUSH1 0x40 SHL SUB DUP2 GT ISZERO PUSH2 0x2177 JUMPI PUSH1 0x0 DUP1 REVERT JUMPDEST PUSH2 0x2183 DUP8 DUP3 DUP9 ADD PUSH2 0x20C0 JUMP JUMPDEST SWAP5 SWAP8 SWAP4 SWAP7 POP SWAP4 SWAP5 PUSH1 0x60 ADD CALLDATALOAD SWAP4 POP POP POP JUMP JUMPDEST DUP1 ISZERO ISZERO DUP2 EQ PUSH2 0x1372 JUMPI PUSH1 0x0 DUP1 REVERT JUMPDEST DUP1 CALLDATALOAD PUSH2 0x1F82 DUP2 PUSH2 0x2194 JUMP JUMPDEST PUSH1 0x0 DUP1 PUSH1 0x40 DUP4 DUP6 SUB SLT ISZERO PUSH2 0x21C0 JUMPI PUSH1 0x0 DUP1 REVERT JUMPDEST DUP3 CALLDATALOAD PUSH2 0x21CB DUP2 PUSH2 0x1F62 JUMP JUMPDEST SWAP2 POP PUSH1 0x20 DUP4 ADD CALLDATALOAD PUSH2 0x21DB DUP2 PUSH2 0x2194 JUMP JUMPDEST DUP1 SWAP2 POP POP SWAP3 POP SWAP3 SWAP1 POP JUMP JUMPDEST PUSH1 0x0 PUSH1 0x20 DUP3 DUP5 SUB SLT ISZERO PUSH2 0x21F8 JUMPI PUSH1 0x0 DUP1 REVERT JUMPDEST POP CALLDATALOAD SWAP2 SWAP1 POP JUMP JUMPDEST PUSH1 0x0 DUP1 PUSH1 0x40 DUP4 DUP6 SUB SLT ISZERO PUSH2 0x2212 JUMPI PUSH1 0x0 DUP1 REVERT JUMPDEST DUP3 CALLDATALOAD SWAP2 POP PUSH1 0x20 DUP4 ADD CALLDATALOAD PUSH2 0x21DB DUP2 PUSH2 0x1F62 JUMP JUMPDEST DUP1 CALLDATALOAD PUSH1 0xFF DUP2 AND DUP2 EQ PUSH2 0x1F82 JUMPI PUSH1 0x0 DUP1 REVERT JUMPDEST DUP1 CALLDATALOAD PUSH1 0x1 PUSH1 0x1 PUSH1 0x40 SHL SUB DUP2 AND DUP2 EQ PUSH2 0x1F82 JUMPI PUSH1 0x0 DUP1 REVERT JUMPDEST DUP1 CALLDATALOAD PUSH4 0xFFFFFFFF DUP2 AND DUP2 EQ PUSH2 0x1F82 JUMPI PUSH1 0x0 DUP1 REVERT JUMPDEST DUP1 CALLDATALOAD PUSH1 0x1 PUSH1 0x1 PUSH1 0xD8 SHL SUB DUP2 AND DUP2 EQ PUSH2 0x1F82 JUMPI PUSH1 0x0 DUP1 REVERT JUMPDEST PUSH1 0x0 PUSH2 0x180 DUP3 DUP5 SUB SLT ISZERO PUSH2 0x228A JUMPI PUSH1 0x0 DUP1 REVERT JUMPDEST PUSH2 0x2292 PUSH2 0x1FBA JUMP JUMPDEST SWAP1 POP PUSH2 0x229D DUP3 PUSH2 0x1F77 JUMP JUMPDEST DUP2 MSTORE PUSH2 0x22AB PUSH1 0x20 DUP4 ADD PUSH2 0x21A2 JUMP JUMPDEST PUSH1 0x20 DUP3 ADD MSTORE PUSH2 0x22BC PUSH1 0x40 DUP4 ADD PUSH2 0x224C JUMP JUMPDEST PUSH1 0x40 DUP3 ADD MSTORE PUSH2 0x22CD PUSH1 0x60 DUP4 ADD PUSH2 0x2260 JUMP JUMPDEST PUSH1 0x60 DUP3 ADD MSTORE PUSH1 0x80 DUP3 ADD CALLDATALOAD PUSH1 0x80 DUP3 ADD MSTORE PUSH1 0xA0 DUP3 ADD CALLDATALOAD PUSH1 0xA0 DUP3 ADD MSTORE PUSH1 0xC0 DUP3 ADD CALLDATALOAD PUSH1 0xC0 DUP3 ADD MSTORE PUSH1 0xE0 DUP3 ADD CALLDATALOAD PUSH1 0xE0 DUP3 ADD MSTORE PUSH2 0x100 DUP1 DUP4 ADD CALLDATALOAD DUP2 DUP4 ADD MSTORE POP PUSH2 0x120 DUP1 DUP4 ADD CALLDATALOAD DUP2 DUP4 ADD MSTORE POP PUSH2 0x140 DUP1 DUP4 ADD CALLDATALOAD DUP2 DUP4 ADD MSTORE POP PUSH2 0x160 DUP1 DUP4 ADD CALLDATALOAD DUP2 DUP4 ADD MSTORE POP SWAP3 SWAP2 POP POP JUMP JUMPDEST PUSH1 0x0 DUP1 PUSH2 0x1A0 DUP1 DUP5 DUP7 SUB SLT ISZERO PUSH2 0x2345 JUMPI PUSH1 0x0 DUP1 REVERT JUMPDEST DUP4 CALLDATALOAD PUSH1 0x1 PUSH1 0x1 PUSH1 0x40 SHL SUB DUP1 DUP3 GT ISZERO PUSH2 0x235C JUMPI PUSH1 0x0 DUP1 REVERT JUMPDEST SWAP1 DUP6 ADD SWAP1 PUSH2 0x1E0 DUP3 DUP9 SUB SLT ISZERO PUSH2 0x2371 JUMPI PUSH1 0x0 DUP1 REVERT JUMPDEST PUSH2 0x2379 PUSH2 0x1FE3 JUMP JUMPDEST PUSH2 0x2382 DUP4 PUSH2 0x1F77 JUMP JUMPDEST DUP2 MSTORE PUSH2 0x2390 PUSH1 0x20 DUP5 ADD PUSH2 0x21A2 JUMP JUMPDEST PUSH1 0x20 DUP3 ADD MSTORE PUSH1 0x40 DUP4 ADD CALLDATALOAD PUSH1 0x40 DUP3 ADD MSTORE PUSH2 0x23AB PUSH1 0x60 DUP5 ADD PUSH2 0x21A2 JUMP JUMPDEST PUSH1 0x60 DUP3 ADD MSTORE PUSH2 0x23BC PUSH1 0x80 DUP5 ADD PUSH2 0x1F77 JUMP JUMPDEST PUSH1 0x80 DUP3 ADD MSTORE PUSH1 0xA0 DUP4 ADD CALLDATALOAD PUSH1 0xA0 DUP3 ADD MSTORE PUSH1 0xC0 DUP4 ADD CALLDATALOAD PUSH1 0xC0 DUP3 ADD MSTORE PUSH1 0xE0 DUP4 ADD CALLDATALOAD PUSH1 0xE0 DUP3 ADD MSTORE PUSH2 0x100 PUSH2 0x23ED DUP2 DUP6 ADD PUSH2 0x21A2 JUMP JUMPDEST SWAP1 DUP3 ADD MSTORE PUSH2 0x120 PUSH2 0x23FF DUP5 DUP3 ADD PUSH2 0x2224 JUMP JUMPDEST SWAP1 DUP3 ADD MSTORE PUSH2 0x140 PUSH2 0x2411 DUP5 DUP3 ADD PUSH2 0x2235 JUMP JUMPDEST SWAP1 DUP3 ADD MSTORE PUSH2 0x160 DUP4 DUP2 ADD CALLDATALOAD SWAP1 DUP3 ADD MSTORE PUSH2 0x180 DUP1 DUP5 ADD CALLDATALOAD SWAP1 DUP3 ADD MSTORE PUSH2 0x2436 DUP5 DUP5 ADD PUSH2 0x2224 JUMP JUMPDEST DUP5 DUP3 ADD MSTORE PUSH2 0x1C0 SWAP4 POP DUP4 DUP4 ADD CALLDATALOAD DUP3 DUP2 GT ISZERO PUSH2 0x2450 JUMPI PUSH1 0x0 DUP1 REVERT JUMPDEST PUSH2 0x245C DUP10 DUP3 DUP7 ADD PUSH2 0x20C0 JUMP JUMPDEST DUP6 DUP4 ADD MSTORE POP DUP1 SWAP6 POP POP POP POP POP PUSH2 0x2475 DUP5 PUSH1 0x20 DUP6 ADD PUSH2 0x2277 JUMP JUMPDEST SWAP1 POP SWAP3 POP SWAP3 SWAP1 POP JUMP JUMPDEST PUSH1 0x0 DUP2 MLOAD DUP1 DUP5 MSTORE PUSH1 0x20 DUP1 DUP6 ADD SWAP5 POP DUP1 DUP5 ADD PUSH1 0x0 JUMPDEST DUP4 DUP2 LT ISZERO PUSH2 0x24AE JUMPI DUP2 MLOAD DUP8 MSTORE SWAP6 DUP3 ADD SWAP6 SWAP1 DUP3 ADD SWAP1 PUSH1 0x1 ADD PUSH2 0x2492 JUMP JUMPDEST POP SWAP5 SWAP6 SWAP5 POP POP POP POP POP JUMP JUMPDEST PUSH1 0x20 DUP2 MSTORE PUSH1 0x0 PUSH2 0x715 PUSH1 0x20 DUP4 ADD DUP5 PUSH2 0x247E JUMP JUMPDEST PUSH1 0x0 DUP1 PUSH1 0x40 DUP4 DUP6 SUB SLT ISZERO PUSH2 0x24DF JUMPI PUSH1 0x0 DUP1 REVERT JUMPDEST DUP3 CALLDATALOAD PUSH2 0x24EA DUP2 PUSH2 0x1F62 JUMP JUMPDEST SWAP2 POP PUSH2 0x2475 PUSH1 0x20 DUP5 ADD PUSH2 0x2224 JUMP JUMPDEST PUSH1 0x0 DUP1 PUSH1 0x40 DUP4 DUP6 SUB SLT ISZERO PUSH2 0x250B JUMPI PUSH1 0x0 DUP1 REVERT JUMPDEST DUP3 CALLDATALOAD PUSH2 0x2516 DUP2 PUSH2 0x1F62 JUMP JUMPDEST SWAP2 POP PUSH1 0x20 DUP4 ADD CALLDATALOAD PUSH1 0x1 PUSH1 0x1 PUSH1 0x40 SHL SUB DUP2 GT ISZERO PUSH2 0x2531 JUMPI PUSH1 0x0 DUP1 REVERT JUMPDEST PUSH2 0x253D DUP6 DUP3 DUP7 ADD PUSH2 0x20C0 JUMP JUMPDEST SWAP2 POP POP SWAP3 POP SWAP3 SWAP1 POP JUMP JUMPDEST PUSH1 0x0 DUP1 PUSH1 0x0 PUSH1 0x60 DUP5 DUP7 SUB SLT ISZERO PUSH2 0x255C JUMPI PUSH1 0x0 DUP1 REVERT JUMPDEST DUP4 CALLDATALOAD PUSH2 0x2567 DUP2 PUSH2 0x1F62 JUMP JUMPDEST SWAP3 POP PUSH1 0x20 DUP5 ADD CALLDATALOAD PUSH2 0x2577 DUP2 PUSH2 0x1F62 JUMP JUMPDEST SWAP2 POP PUSH1 0x40 DUP5 ADD CALLDATALOAD PUSH2 0x2587 DUP2 PUSH2 0x1F62 JUMP JUMPDEST DUP1 SWAP2 POP POP SWAP3 POP SWAP3 POP SWAP3 JUMP JUMPDEST PUSH1 0x0 DUP1 PUSH1 0x0 PUSH1 0x60 DUP5 DUP7 SUB SLT ISZERO PUSH2 0x25A7 JUMPI PUSH1 0x0 DUP1 REVERT JUMPDEST DUP4 CALLDATALOAD PUSH2 0x25B2 DUP2 PUSH2 0x1F62 JUMP JUMPDEST SWAP6 PUSH1 0x20 DUP6 ADD CALLDATALOAD SWAP6 POP PUSH1 0x40 SWAP1 SWAP5 ADD CALLDATALOAD SWAP4 SWAP3 POP POP POP JUMP JUMPDEST DUP1 CALLDATALOAD PUSH6 0xFFFFFFFFFFFF DUP2 AND DUP2 EQ PUSH2 0x1F82 JUMPI PUSH1 0x0 DUP1 REVERT JUMPDEST DUP1 CALLDATALOAD PUSH1 0x1 PUSH1 0x1 PUSH1 0x80 SHL SUB DUP2 AND DUP2 EQ PUSH2 0x1F82 JUMPI PUSH1 0x0 DUP1 REVERT JUMPDEST PUSH1 0x0 PUSH2 0x1A0 DUP3 DUP5 SUB SLT ISZERO PUSH2 0x2607 JUMPI PUSH1 0x0 DUP1 REVERT JUMPDEST PUSH2 0x260F PUSH2 0x2006 JUMP JUMPDEST SWAP1 POP PUSH2 0x261A DUP3 PUSH2 0x2224 JUMP JUMPDEST DUP2 MSTORE PUSH2 0x2628 PUSH1 0x20 DUP4 ADD PUSH2 0x224C JUMP JUMPDEST PUSH1 0x20 DUP3 ADD MSTORE PUSH2 0x2639 PUSH1 0x40 DUP4 ADD PUSH2 0x2224 JUMP JUMPDEST PUSH1 0x40 DUP3 ADD MSTORE PUSH2 0x264A PUSH1 0x60 DUP4 ADD PUSH2 0x1F77 JUMP JUMPDEST PUSH1 0x60 DUP3 ADD MSTORE PUSH2 0x265B PUSH1 0x80 DUP4 ADD PUSH2 0x25C7 JUMP JUMPDEST PUSH1 0x80 DUP3 ADD MSTORE PUSH2 0x266C PUSH1 0xA0 DUP4 ADD PUSH2 0x25DD JUMP JUMPDEST PUSH1 0xA0 DUP3 ADD MSTORE PUSH2 0x267D PUSH1 0xC0 DUP4 ADD PUSH2 0x25DD JUMP JUMPDEST PUSH1 0xC0 DUP3 ADD MSTORE PUSH2 0x268E PUSH1 0xE0 DUP4 ADD PUSH2 0x25DD JUMP JUMPDEST PUSH1 0xE0 DUP3 ADD MSTORE PUSH2 0x100 PUSH2 0x26A1 DUP2 DUP5 ADD PUSH2 0x25DD JUMP JUMPDEST SWAP1 DUP3 ADD MSTORE PUSH2 0x120 PUSH2 0x26B3 DUP4 DUP3 ADD PUSH2 0x2235 JUMP JUMPDEST SWAP1 DUP3 ADD MSTORE PUSH2 0x140 PUSH2 0x26C5 DUP4 DUP3 ADD PUSH2 0x2235 JUMP JUMPDEST SWAP1 DUP3 ADD MSTORE PUSH2 0x160 PUSH2 0x26D7 DUP4 DUP3 ADD PUSH2 0x25DD JUMP JUMPDEST DUP2 DUP4 ADD MSTORE POP PUSH2 0x180 DUP1 DUP4 ADD CALLDATALOAD DUP2 DUP4 ADD MSTORE POP SWAP3 SWAP2 POP POP JUMP JUMPDEST PUSH1 0x0 PUSH1 0x20 DUP3 DUP5 SUB SLT ISZERO PUSH2 0x2700 JUMPI PUSH1 0x0 DUP1 REVERT JUMPDEST DUP2 CALLDATALOAD PUSH1 0x1 PUSH1 0x1 PUSH1 0x40 SHL SUB DUP1 DUP3 GT ISZERO PUSH2 0x2717 JUMPI PUSH1 0x0 DUP1 REVERT JUMPDEST SWAP1 DUP4 ADD SWAP1 PUSH2 0x260 DUP3 DUP7 SUB SLT ISZERO PUSH2 0x272C JUMPI PUSH1 0x0 DUP1 REVERT JUMPDEST PUSH2 0x2734 PUSH2 0x2029 JUMP JUMPDEST PUSH2 0x273D DUP4 PUSH2 0x1F77 JUMP JUMPDEST DUP2 MSTORE PUSH2 0x274B PUSH1 0x20 DUP5 ADD PUSH2 0x21A2 JUMP JUMPDEST PUSH1 0x20 DUP3 ADD MSTORE PUSH1 0x40 DUP4 ADD CALLDATALOAD PUSH1 0x40 DUP3 ADD MSTORE PUSH2 0x2766 PUSH1 0x60 DUP5 ADD PUSH2 0x21A2 JUMP JUMPDEST PUSH1 0x60 DUP3 ADD MSTORE PUSH2 0x2777 PUSH1 0x80 DUP5 ADD PUSH2 0x21A2 JUMP JUMPDEST PUSH1 0x80 DUP3 ADD MSTORE PUSH2 0x2789 DUP7 PUSH1 0xA0 DUP6 ADD PUSH2 0x25F4 JUMP JUMPDEST PUSH1 0xA0 DUP3 ADD MSTORE PUSH2 0x240 DUP4 ADD CALLDATALOAD DUP3 DUP2 GT ISZERO PUSH2 0x27A1 JUMPI PUSH1 0x0 DUP1 REVERT JUMPDEST PUSH2 0x27AD DUP8 DUP3 DUP7 ADD PUSH2 0x20C0 JUMP JUMPDEST PUSH1 0xC0 DUP4 ADD MSTORE POP SWAP6 SWAP5 POP POP POP POP POP JUMP JUMPDEST PUSH1 0x0 DUP1 PUSH1 0x0 PUSH1 0x60 DUP5 DUP7 SUB SLT ISZERO PUSH2 0x27D1 JUMPI PUSH1 0x0 DUP1 REVERT JUMPDEST DUP4 CALLDATALOAD PUSH2 0x27DC DUP2 PUSH2 0x1F62 JUMP JUMPDEST SWAP3 POP PUSH1 0x20 DUP5 ADD CALLDATALOAD PUSH2 0x27EC DUP2 PUSH2 0x1F62 JUMP JUMPDEST SWAP3 SWAP6 SWAP3 SWAP5 POP POP POP PUSH1 0x40 SWAP2 SWAP1 SWAP2 ADD CALLDATALOAD SWAP1 JUMP JUMPDEST PUSH1 0x0 DUP1 PUSH1 0x0 PUSH1 0x60 DUP5 DUP7 SUB SLT ISZERO PUSH2 0x2812 JUMPI PUSH1 0x0 DUP1 REVERT JUMPDEST DUP4 CALLDATALOAD PUSH2 0x281D DUP2 PUSH2 0x1F62 JUMP JUMPDEST SWAP3 POP PUSH1 0x20 DUP5 ADD CALLDATALOAD PUSH2 0x282D DUP2 PUSH2 0x1F62 JUMP JUMPDEST SWAP2 POP PUSH1 0x40 DUP5 ADD CALLDATALOAD PUSH1 0x1 PUSH1 0x1 PUSH1 0x40 SHL SUB DUP2 GT ISZERO PUSH2 0x2848 JUMPI PUSH1 0x0 DUP1 REVERT JUMPDEST PUSH2 0x2854 DUP7 DUP3 DUP8 ADD PUSH2 0x20C0 JUMP JUMPDEST SWAP2 POP POP SWAP3 POP SWAP3 POP SWAP3 JUMP JUMPDEST PUSH1 0x20 DUP1 DUP3 MSTORE PUSH1 0x18 SWAP1 DUP3 ADD MSTORE PUSH32 0x666565526F757465723A206163636573732064656E6965640000000000000000 PUSH1 0x40 DUP3 ADD MSTORE PUSH1 0x60 ADD SWAP1 JUMP JUMPDEST PUSH1 0x0 PUSH1 0x20 DUP3 DUP5 SUB SLT ISZERO PUSH2 0x28A7 JUMPI PUSH1 0x0 DUP1 REVERT JUMPDEST POP MLOAD SWAP2 SWAP1 POP JUMP JUMPDEST PUSH1 0x40 DUP2 MSTORE PUSH1 0x0 PUSH2 0x28C1 PUSH1 0x40 DUP4 ADD DUP6 PUSH2 0x247E JUMP JUMPDEST SWAP1 POP DUP3 PUSH1 0x20 DUP4 ADD MSTORE SWAP4 SWAP3 POP POP POP JUMP JUMPDEST PUSH4 0x4E487B71 PUSH1 0xE0 SHL PUSH1 0x0 MSTORE PUSH1 0x11 PUSH1 0x4 MSTORE PUSH1 0x24 PUSH1 0x0 REVERT JUMPDEST DUP2 DUP2 SUB DUP2 DUP2 GT ISZERO PUSH2 0x4F7 JUMPI PUSH2 0x4F7 PUSH2 0x28D0 JUMP JUMPDEST PUSH1 0x0 PUSH1 0x20 DUP3 DUP5 SUB SLT ISZERO PUSH2 0x290B JUMPI PUSH1 0x0 DUP1 REVERT JUMPDEST DUP2 MLOAD PUSH2 0x715 DUP2 PUSH2 0x1F62 JUMP JUMPDEST PUSH1 0x0 PUSH1 0xFF DUP3 AND PUSH1 0xFF DUP2 SUB PUSH2 0x292C JUMPI PUSH2 0x292C PUSH2 0x28D0 JUMP JUMPDEST PUSH1 0x1 ADD SWAP3 SWAP2 POP POP JUMP JUMPDEST PUSH4 0x4E487B71 PUSH1 0xE0 SHL PUSH1 0x0 MSTORE PUSH1 0x32 PUSH1 0x4 MSTORE PUSH1 0x24 PUSH1 0x0 REVERT JUMPDEST DUP1 DUP3 ADD DUP1 DUP3 GT ISZERO PUSH2 0x4F7 JUMPI PUSH2 0x4F7 PUSH2 0x28D0 JUMP JUMPDEST PUSH1 0x1 DUP2 DUP2 JUMPDEST DUP1 DUP6 GT ISZERO PUSH2 0x2999 JUMPI DUP2 PUSH1 0x0 NOT DIV DUP3 GT ISZERO PUSH2 0x297F JUMPI PUSH2 0x297F PUSH2 0x28D0 JUMP JUMPDEST DUP1 DUP6 AND ISZERO PUSH2 0x298C JUMPI SWAP2 DUP2 MUL SWAP2 JUMPDEST SWAP4 DUP5 SHR SWAP4 SWAP1 DUP1 MUL SWAP1 PUSH2 0x2963 JUMP JUMPDEST POP SWAP3 POP SWAP3 SWAP1 POP JUMP JUMPDEST PUSH1 0x0 DUP3 PUSH2 0x29B0 JUMPI POP PUSH1 0x1 PUSH2 0x4F7 JUMP JUMPDEST DUP2 PUSH2 0x29BD JUMPI POP PUSH1 0x0 PUSH2 0x4F7 JUMP JUMPDEST DUP2 PUSH1 0x1 DUP2 EQ PUSH2 0x29D3 JUMPI PUSH1 0x2 DUP2 EQ PUSH2 0x29DD JUMPI PUSH2 0x29F9 JUMP JUMPDEST PUSH1 0x1 SWAP2 POP POP PUSH2 0x4F7 JUMP JUMPDEST PUSH1 0xFF DUP5 GT ISZERO PUSH2 0x29EE JUMPI PUSH2 0x29EE PUSH2 0x28D0 JUMP JUMPDEST POP POP PUSH1 0x1 DUP3 SHL PUSH2 0x4F7 JUMP JUMPDEST POP PUSH1 0x20 DUP4 LT PUSH2 0x133 DUP4 LT AND PUSH1 0x4E DUP5 LT PUSH1 0xB DUP5 LT AND OR ISZERO PUSH2 0x2A1C JUMPI POP DUP2 DUP2 EXP PUSH2 0x4F7 JUMP JUMPDEST PUSH2 0x2A26 DUP4 DUP4 PUSH2 0x295E JUMP JUMPDEST DUP1 PUSH1 0x0 NOT DIV DUP3 GT ISZERO PUSH2 0x2A3A JUMPI PUSH2 0x2A3A PUSH2 0x28D0 JUMP JUMPDEST MUL SWAP4 SWAP3 POP POP POP JUMP JUMPDEST PUSH1 0x0 PUSH2 0x715 DUP4 DUP4 PUSH2 0x29A1 JUMP JUMPDEST PUSH1 0x0 JUMPDEST DUP4 DUP2 LT ISZERO PUSH2 0x2A69 JUMPI DUP2 DUP2 ADD MLOAD DUP4 DUP3 ADD MSTORE PUSH1 0x20 ADD PUSH2 0x2A51 JUMP JUMPDEST POP POP PUSH1 0x0 SWAP2 ADD MSTORE JUMP JUMPDEST DUP1 MLOAD PUSH2 0x1F82 DUP2 PUSH2 0x1F62 JUMP JUMPDEST DUP1 MLOAD PUSH2 0x1F82 DUP2 PUSH2 0x2194 JUMP JUMPDEST PUSH1 0x0 PUSH1 0x20 DUP1 DUP4 DUP6 SUB SLT ISZERO PUSH2 0x2A9B JUMPI PUSH1 0x0 DUP1 REVERT JUMPDEST DUP3 MLOAD PUSH1 0x1 PUSH1 0x1 PUSH1 0x40 SHL SUB DUP1 DUP3 GT ISZERO PUSH2 0x2AB2 JUMPI PUSH1 0x0 DUP1 REVERT JUMPDEST DUP2 DUP6 ADD SWAP2 POP DUP6 PUSH1 0x1F DUP4 ADD SLT PUSH2 0x2AC6 JUMPI PUSH1 0x0 DUP1 REVERT JUMPDEST DUP2 MLOAD PUSH2 0x2AD4 PUSH2 0x20E1 DUP3 PUSH2 0x209D JUMP JUMPDEST DUP2 DUP2 MSTORE PUSH1 0x5 SWAP2 SWAP1 SWAP2 SHL DUP4 ADD DUP5 ADD SWAP1 DUP5 DUP2 ADD SWAP1 DUP9 DUP4 GT ISZERO PUSH2 0x2AF3 JUMPI PUSH1 0x0 DUP1 REVERT JUMPDEST DUP6 DUP6 ADD JUMPDEST DUP4 DUP2 LT ISZERO PUSH2 0x2BEF JUMPI DUP1 MLOAD DUP6 DUP2 GT ISZERO PUSH2 0x2B0E JUMPI PUSH1 0x0 DUP1 REVERT JUMPDEST DUP7 ADD PUSH1 0x1F NOT PUSH1 0xA0 DUP3 DUP14 SUB DUP3 ADD SLT ISZERO PUSH2 0x2B26 JUMPI PUSH1 0x0 DUP1 DUP2 REVERT JUMPDEST PUSH2 0x2B2E PUSH2 0x204B JUMP JUMPDEST DUP10 DUP4 ADD MLOAD DUP9 DUP2 GT ISZERO PUSH2 0x2B40 JUMPI PUSH1 0x0 DUP1 DUP2 REVERT JUMPDEST DUP4 ADD PUSH1 0x3F DUP2 ADD DUP15 SGT PUSH2 0x2B52 JUMPI PUSH1 0x0 DUP1 DUP2 REVERT JUMPDEST DUP11 DUP2 ADD MLOAD PUSH1 0x40 DUP11 DUP3 GT ISZERO PUSH2 0x2B68 JUMPI PUSH2 0x2B68 PUSH2 0x1FA4 JUMP JUMPDEST PUSH2 0x2B78 DUP14 DUP7 PUSH1 0x1F DUP6 ADD AND ADD PUSH2 0x206D JUMP JUMPDEST SWAP5 POP DUP2 DUP6 MSTORE DUP16 DUP2 DUP4 DUP6 ADD ADD GT ISZERO PUSH2 0x2B8F JUMPI PUSH1 0x0 DUP1 DUP2 REVERT JUMPDEST PUSH2 0x2B9E DUP3 DUP15 DUP8 ADD DUP4 DUP7 ADD PUSH2 0x2A4E JUMP JUMPDEST DUP5 DUP5 MSTORE PUSH2 0x2BAC DUP2 DUP8 ADD PUSH2 0x2A72 JUMP JUMPDEST DUP14 DUP6 ADD MSTORE PUSH1 0x60 SWAP5 POP DUP5 DUP7 ADD MLOAD DUP2 DUP6 ADD MSTORE POP POP POP PUSH1 0x80 PUSH2 0x2BCC DUP2 DUP6 ADD PUSH2 0x2A7D JUMP JUMPDEST DUP4 DUP4 ADD MSTORE PUSH2 0x2BDC PUSH1 0xA0 DUP6 ADD PUSH2 0x2A7D JUMP JUMPDEST SWAP1 DUP3 ADD MSTORE DUP6 MSTORE POP POP SWAP2 DUP7 ADD SWAP2 DUP7 ADD PUSH2 0x2AF7 JUMP JUMPDEST POP SWAP9 SWAP8 POP POP POP POP POP POP POP POP JUMP JUMPDEST PUSH1 0x0 PUSH1 0x1 DUP3 ADD PUSH2 0x2C0E JUMPI PUSH2 0x2C0E PUSH2 0x28D0 JUMP JUMPDEST POP PUSH1 0x1 ADD SWAP1 JUMP JUMPDEST DUP1 DUP3 MUL DUP2 ISZERO DUP3 DUP3 DIV DUP5 EQ OR PUSH2 0x4F7 JUMPI PUSH2 0x4F7 PUSH2 0x28D0 JUMP JUMPDEST PUSH32 0x416363657373436F6E74726F6C3A206163636F756E7420000000000000000000 DUP2 MSTORE PUSH1 0x0 DUP4 MLOAD PUSH2 0x2C64 DUP2 PUSH1 0x17 DUP6 ADD PUSH1 0x20 DUP9 ADD PUSH2 0x2A4E JUMP JUMPDEST PUSH17 0x1034B99036B4B9B9B4B733903937B6329 PUSH1 0x7D SHL PUSH1 0x17 SWAP2 DUP5 ADD SWAP2 DUP3 ADD MSTORE DUP4 MLOAD PUSH2 0x2C95 DUP2 PUSH1 0x28 DUP5 ADD PUSH1 0x20 DUP9 ADD PUSH2 0x2A4E JUMP JUMPDEST ADD PUSH1 0x28 ADD SWAP5 SWAP4 POP POP POP POP JUMP JUMPDEST PUSH1 0x20 DUP2 MSTORE PUSH1 0x0 DUP3 MLOAD DUP1 PUSH1 0x20 DUP5 ADD MSTORE PUSH2 0x2CC0 DUP2 PUSH1 0x40 DUP6 ADD PUSH1 0x20 DUP8 ADD PUSH2 0x2A4E JUMP JUMPDEST PUSH1 0x1F ADD PUSH1 0x1F NOT AND SWAP2 SWAP1 SWAP2 ADD PUSH1 0x40 ADD SWAP3 SWAP2 POP POP JUMP JUMPDEST PUSH1 0x0 DUP3 PUSH2 0x2CF1 JUMPI PUSH4 0x4E487B71 PUSH1 0xE0 SHL PUSH1 0x0 MSTORE PUSH1 0x12 PUSH1 0x4 MSTORE PUSH1 0x24 PUSH1 0x0 REVERT JUMPDEST POP DIV SWAP1 JUMP JUMPDEST PUSH1 0x0 DUP2 PUSH2 0x2D05 JUMPI PUSH2 0x2D05 PUSH2 0x28D0 JUMP JUMPDEST POP PUSH1 0x0 NOT ADD SWAP1 JUMP JUMPDEST PUSH1 0x0 PUSH1 0x20 DUP3 DUP5 SUB SLT ISZERO PUSH2 0x2D1F JUMPI PUSH1 0x0 DUP1 REVERT JUMPDEST DUP2 MLOAD PUSH2 0x715 DUP2 PUSH2 0x2194 JUMP JUMPDEST PUSH1 0x0 DUP3 MLOAD PUSH2 0x2D3C DUP2 DUP5 PUSH1 0x20 DUP8 ADD PUSH2 0x2A4E JUMP JUMPDEST SWAP2 SWAP1 SWAP2 ADD SWAP3 SWAP2 POP POP JUMP INVALID LOG2 PUSH5 0x6970667358 0x22 SLT KECCAK256 BASEFEE PUSH10 0x840C90598CCC5AA8A1DD GASLIMIT SLT PUSH6 0x8D26752616D5 0xE3 0x2B 0xA5 PUSH11 0xA1BF46B8847CD464736F6C PUSH4 0x43000811 STOP CALLER "},"methodIdentifiers":{"DEFAULT_ADMIN_ROLE()":"a217fddf","FEE_RATE_PRECISION()":"f4ca4d1d","collectFees(address,address,int256[])":"e50f19ef","collectFees(address,address,int256[],uint256)":"966ace28","cumulativeFundingRates(address,bool)":"34f32e25","factory()":"c45a0155","feeAndRates(address,uint8)":"d8778068","feeVault()":"478222c2","fundFee()":"33abd028","getExecFee(address)":"09d39897","getFees((address,bool,uint256,bool,address,uint256,uint256,uint256,bool,uint8,uint64,bytes32,uint256,uint8,uint256[]),(address,bool,uint32,uint216,uint256,uint256,uint256,int256,int256,uint256,uint256,uint256))":"41510263","getFundingRate(address,bool)":"20981df4","getOrderFees((address,bool,uint256,bool,bool,(uint8,uint32,uint8,address,uint48,uint128,uint128,uint128,uint128,uint64,uint64,uint128,bytes32),uint256[]))":"c8830bf5","getRoleAdmin(bytes32)":"248a9ca3","grantControllerRoleByMarketManager(address)":"7fe4a698","grantRole(bytes32,address)":"2f2ff15d","hasRole(bytes32,address)":"91d14854","initialize(address,address,address)":"c0c53b8b","migrateFeeAndRates(address,uint8)":"5bac2f60","owner()":"8da5cb5b","payoutFees(address,address,int256[],uint256)":"1a6ca809","renounceOwnership()":"715018a6","renounceRole(bytes32,address)":"36568abe","revokeRole(bytes32,address)":"d547741f","setFeeAndRates(address,uint256[])":"7dd49023","setFeeVault(address)":"a591f97f","setFundFee(address)":"c9cf9f3a","supportsInterface(bytes4)":"01ffc9a7","transferAdmin(address)":"75829def","transferOwnership(address)":"f2fde38b","updateCumulativeFundingRate(address,uint256,uint256)":"c6f83ad1","withdraw(address,address,uint256)":"d9caed12"}}}}}