{"contracts/market/interfaces/IMarket.sol":{"MarketAddressIndex":{"abi":[{"inputs":[],"name":"ADDR_CT","outputs":[{"internalType":"uint256","name":"","type":"uint256"}],"stateMutability":"view","type":"function"},{"inputs":[],"name":"ADDR_FR","outputs":[{"internalType":"uint256","name":"","type":"uint256"}],"stateMutability":"view","type":"function"},{"inputs":[],"name":"ADDR_IT","outputs":[{"internalType":"uint256","name":"","type":"uint256"}],"stateMutability":"view","type":"function"},{"inputs":[],"name":"ADDR_MI","outputs":[{"internalType":"uint256","name":"","type":"uint256"}],"stateMutability":"view","type":"function"},{"inputs":[],"name":"ADDR_MR","outputs":[{"internalType":"uint256","name":"","type":"uint256"}],"stateMutability":"view","type":"function"},{"inputs":[],"name":"ADDR_MV","outputs":[{"internalType":"uint256","name":"","type":"uint256"}],"stateMutability":"view","type":"function"},{"inputs":[],"name":"ADDR_OBL","outputs":[{"internalType":"uint256","name":"","type":"uint256"}],"stateMutability":"view","type":"function"},{"inputs":[],"name":"ADDR_OBS","outputs":[{"internalType":"uint256","name":"","type":"uint256"}],"stateMutability":"view","type":"function"},{"inputs":[],"name":"ADDR_PB","outputs":[{"internalType":"uint256","name":"","type":"uint256"}],"stateMutability":"view","type":"function"},{"inputs":[],"name":"ADDR_PF","outputs":[{"internalType":"uint256","name":"","type":"uint256"}],"stateMutability":"view","type":"function"},{"inputs":[],"name":"ADDR_PM","outputs":[{"internalType":"uint256","name":"","type":"uint256"}],"stateMutability":"view","type":"function"},{"inputs":[],"name":"ADDR_VR","outputs":[{"internalType":"uint256","name":"","type":"uint256"}],"stateMutability":"view","type":"function"}],"evm":{"bytecode":{"linkReferences":{},"object":"61016b61003a600b82828239805160001a60731461002d57634e487b7160e01b600052600060045260246000fd5b30600052607381538281f3fe73000000000000000000000000000000000000000030146080604052600436106100be5760003560e01c80637710f47d1161007b5780637710f47d14610105578063ae1fa1291461010d578063bd2708a514610115578063c34027271461011d578063ddc1c49e14610125578063e5919c571461012d57600080fd5b80631be9c41f146100c35780632227623a146100dd57806329d6ec38146100e55780632ae2560b146100ed578063520cfece146100f55780635dd463ad146100fd575b600080fd5b6100cb600b81565b60405190815260200160405180910390f35b6100cb600381565b6100cb600a81565b6100cb600781565b6100cb600881565b6100cb600181565b6100cb600681565b6100cb600081565b6100cb600981565b6100cb600581565b6100cb600281565b6100cb60048156fea26469706673582212202174b0f4004bd843dec5fe380218f06efcbccd25723873e17e1b82df51b9b74a64736f6c63430008110033","opcodes":"PUSH2 0x16B PUSH2 0x3A PUSH1 0xB DUP3 DUP3 DUP3 CODECOPY DUP1 MLOAD PUSH1 0x0 BYTE PUSH1 0x73 EQ PUSH2 0x2D JUMPI PUSH4 0x4E487B71 PUSH1 0xE0 SHL PUSH1 0x0 MSTORE PUSH1 0x0 PUSH1 0x4 MSTORE PUSH1 0x24 PUSH1 0x0 REVERT JUMPDEST ADDRESS PUSH1 0x0 MSTORE PUSH1 0x73 DUP2 MSTORE8 DUP3 DUP2 RETURN INVALID PUSH20 0x0 ADDRESS EQ PUSH1 0x80 PUSH1 0x40 MSTORE PUSH1 0x4 CALLDATASIZE LT PUSH2 0xBE JUMPI PUSH1 0x0 CALLDATALOAD PUSH1 0xE0 SHR DUP1 PUSH4 0x7710F47D GT PUSH2 0x7B JUMPI DUP1 PUSH4 0x7710F47D EQ PUSH2 0x105 JUMPI DUP1 PUSH4 0xAE1FA129 EQ PUSH2 0x10D JUMPI DUP1 PUSH4 0xBD2708A5 EQ PUSH2 0x115 JUMPI DUP1 PUSH4 0xC3402727 EQ PUSH2 0x11D JUMPI DUP1 PUSH4 0xDDC1C49E EQ PUSH2 0x125 JUMPI DUP1 PUSH4 0xE5919C57 EQ PUSH2 0x12D JUMPI PUSH1 0x0 DUP1 REVERT JUMPDEST DUP1 PUSH4 0x1BE9C41F EQ PUSH2 0xC3 JUMPI DUP1 PUSH4 0x2227623A EQ PUSH2 0xDD JUMPI DUP1 PUSH4 0x29D6EC38 EQ PUSH2 0xE5 JUMPI DUP1 PUSH4 0x2AE2560B EQ PUSH2 0xED JUMPI DUP1 PUSH4 0x520CFECE EQ PUSH2 0xF5 JUMPI DUP1 PUSH4 0x5DD463AD EQ PUSH2 0xFD JUMPI JUMPDEST PUSH1 0x0 DUP1 REVERT JUMPDEST PUSH2 0xCB PUSH1 0xB DUP2 JUMP JUMPDEST PUSH1 0x40 MLOAD SWAP1 DUP2 MSTORE PUSH1 0x20 ADD PUSH1 0x40 MLOAD DUP1 SWAP2 SUB SWAP1 RETURN JUMPDEST PUSH2 0xCB PUSH1 0x3 DUP2 JUMP JUMPDEST PUSH2 0xCB PUSH1 0xA DUP2 JUMP JUMPDEST PUSH2 0xCB PUSH1 0x7 DUP2 JUMP JUMPDEST PUSH2 0xCB PUSH1 0x8 DUP2 JUMP JUMPDEST PUSH2 0xCB PUSH1 0x1 DUP2 JUMP JUMPDEST PUSH2 0xCB PUSH1 0x6 DUP2 JUMP JUMPDEST PUSH2 0xCB PUSH1 0x0 DUP2 JUMP JUMPDEST PUSH2 0xCB PUSH1 0x9 DUP2 JUMP JUMPDEST PUSH2 0xCB PUSH1 0x5 DUP2 JUMP JUMPDEST PUSH2 0xCB PUSH1 0x2 DUP2 JUMP JUMPDEST PUSH2 0xCB PUSH1 0x4 DUP2 JUMP INVALID LOG2 PUSH5 0x6970667358 0x22 SLT KECCAK256 0x21 PUSH21 0xB0F4004BD843DEC5FE380218F06EFCBCCD25723873 0xE1 PUSH31 0x1B82DF51B9B74A64736F6C6343000811003300000000000000000000000000 "},"methodIdentifiers":{"ADDR_CT()":"1be9c41f","ADDR_FR()":"520cfece","ADDR_IT()":"2ae2560b","ADDR_MI()":"7710f47d","ADDR_MR()":"bd2708a5","ADDR_MV()":"2227623a","ADDR_OBL()":"5dd463ad","ADDR_OBS()":"ddc1c49e","ADDR_PB()":"ae1fa129","ADDR_PF()":"e5919c57","ADDR_PM()":"c3402727","ADDR_VR()":"29d6ec38"}},"storageLayout":{"storage":[],"types":null}}}}