{"contracts/ac/AcUpgradable.sol":{"AcUpgradable":{"abi":[{"anonymous":false,"inputs":[{"indexed":false,"internalType":"uint8","name":"version","type":"uint8"}],"name":"Initialized","type":"event"},{"inputs":[],"name":"DEFAULT_ADMIN_ROLE","outputs":[{"internalType":"bytes32","name":"","type":"bytes32"}],"stateMutability":"view","type":"function"},{"inputs":[{"internalType":"address","name":"newOwner","type":"address"}],"name":"_transferOwnership","outputs":[],"stateMutability":"pure","type":"function"},{"inputs":[{"internalType":"address","name":"_account","type":"address"}],"name":"grantControllerRoleByMarketManager","outputs":[],"stateMutability":"nonpayable","type":"function"},{"inputs":[{"internalType":"bytes32","name":"role","type":"bytes32"},{"internalType":"address","name":"account","type":"address"}],"name":"grantRole","outputs":[],"stateMutability":"pure","type":"function"},{"inputs":[{"internalType":"bytes32","name":"role","type":"bytes32"},{"internalType":"address","name":"account","type":"address"}],"name":"hasRole","outputs":[{"internalType":"bool","name":"","type":"bool"}],"stateMutability":"pure","type":"function"},{"inputs":[{"internalType":"bytes32","name":"role","type":"bytes32"},{"internalType":"address","name":"account","type":"address"}],"name":"revokeRole","outputs":[],"stateMutability":"pure","type":"function"},{"inputs":[{"internalType":"address","name":"to","type":"address"}],"name":"transferAdmin","outputs":[],"stateMutability":"nonpayable","type":"function"},{"inputs":[{"internalType":"address","name":"newOwner","type":"address"}],"name":"transferOwnership","outputs":[],"stateMutability":"pure","type":"function"}],"evm":{"bytecode":{"linkReferences":{},"object":"608060405234801561001057600080fd5b506101c4806100206000396000f3fe608060405234801561001057600080fd5b50600436106100885760003560e01c8063a217fddf1161005b578063a217fddf146100f2578063d29d44ee14610108578063d547741f1461008d578063f2fde38b1461010857600080fd5b80632f2ff15d1461008d57806375829def146100a15780637fe4a698146100b457806391d14854146100c7575b600080fd5b61009f61009b366004610140565b5050565b005b61009f6100af36600461016c565b610119565b61009f6100c236600461016c565b610116565b6100dd6100d5366004610140565b600192915050565b60405190151581526020015b60405180910390f35b6100fa600081565b6040519081526020016100e9565b61009f61011636600461016c565b50565b600061009b60003382565b80356001600160a01b038116811461013b57600080fd5b919050565b6000806040838503121561015357600080fd5b8235915061016360208401610124565b90509250929050565b60006020828403121561017e57600080fd5b61018782610124565b939250505056fea2646970667358221220910eee20862ee06657ff4501952736fa6f771439a4ded849e616119de1856cca64736f6c63430008110033","opcodes":"PUSH1 0x80 PUSH1 0x40 MSTORE CALLVALUE DUP1 ISZERO PUSH2 0x10 JUMPI PUSH1 0x0 DUP1 REVERT JUMPDEST POP PUSH2 0x1C4 DUP1 PUSH2 0x20 PUSH1 0x0 CODECOPY PUSH1 0x0 RETURN INVALID PUSH1 0x80 PUSH1 0x40 MSTORE CALLVALUE DUP1 ISZERO PUSH2 0x10 JUMPI PUSH1 0x0 DUP1 REVERT JUMPDEST POP PUSH1 0x4 CALLDATASIZE LT PUSH2 0x88 JUMPI PUSH1 0x0 CALLDATALOAD PUSH1 0xE0 SHR DUP1 PUSH4 0xA217FDDF GT PUSH2 0x5B JUMPI DUP1 PUSH4 0xA217FDDF EQ PUSH2 0xF2 JUMPI DUP1 PUSH4 0xD29D44EE EQ PUSH2 0x108 JUMPI DUP1 PUSH4 0xD547741F EQ PUSH2 0x8D JUMPI DUP1 PUSH4 0xF2FDE38B EQ PUSH2 0x108 JUMPI PUSH1 0x0 DUP1 REVERT JUMPDEST DUP1 PUSH4 0x2F2FF15D EQ PUSH2 0x8D JUMPI DUP1 PUSH4 0x75829DEF EQ PUSH2 0xA1 JUMPI DUP1 PUSH4 0x7FE4A698 EQ PUSH2 0xB4 JUMPI DUP1 PUSH4 0x91D14854 EQ PUSH2 0xC7 JUMPI JUMPDEST PUSH1 0x0 DUP1 REVERT JUMPDEST PUSH2 0x9F PUSH2 0x9B CALLDATASIZE PUSH1 0x4 PUSH2 0x140 JUMP JUMPDEST POP POP JUMP JUMPDEST STOP JUMPDEST PUSH2 0x9F PUSH2 0xAF CALLDATASIZE PUSH1 0x4 PUSH2 0x16C JUMP JUMPDEST PUSH2 0x119 JUMP JUMPDEST PUSH2 0x9F PUSH2 0xC2 CALLDATASIZE PUSH1 0x4 PUSH2 0x16C JUMP JUMPDEST PUSH2 0x116 JUMP JUMPDEST PUSH2 0xDD PUSH2 0xD5 CALLDATASIZE PUSH1 0x4 PUSH2 0x140 JUMP JUMPDEST PUSH1 0x1 SWAP3 SWAP2 POP POP JUMP JUMPDEST PUSH1 0x40 MLOAD SWAP1 ISZERO ISZERO DUP2 MSTORE PUSH1 0x20 ADD JUMPDEST PUSH1 0x40 MLOAD DUP1 SWAP2 SUB SWAP1 RETURN JUMPDEST PUSH2 0xFA PUSH1 0x0 DUP2 JUMP JUMPDEST PUSH1 0x40 MLOAD SWAP1 DUP2 MSTORE PUSH1 0x20 ADD PUSH2 0xE9 JUMP JUMPDEST PUSH2 0x9F PUSH2 0x116 CALLDATASIZE PUSH1 0x4 PUSH2 0x16C JUMP JUMPDEST POP JUMP JUMPDEST PUSH1 0x0 PUSH2 0x9B PUSH1 0x0 CALLER DUP3 JUMP JUMPDEST DUP1 CALLDATALOAD PUSH1 0x1 PUSH1 0x1 PUSH1 0xA0 SHL SUB DUP2 AND DUP2 EQ PUSH2 0x13B JUMPI PUSH1 0x0 DUP1 REVERT JUMPDEST SWAP2 SWAP1 POP JUMP JUMPDEST PUSH1 0x0 DUP1 PUSH1 0x40 DUP4 DUP6 SUB SLT ISZERO PUSH2 0x153 JUMPI PUSH1 0x0 DUP1 REVERT JUMPDEST DUP3 CALLDATALOAD SWAP2 POP PUSH2 0x163 PUSH1 0x20 DUP5 ADD PUSH2 0x124 JUMP JUMPDEST SWAP1 POP SWAP3 POP SWAP3 SWAP1 POP JUMP JUMPDEST PUSH1 0x0 PUSH1 0x20 DUP3 DUP5 SUB SLT ISZERO PUSH2 0x17E JUMPI PUSH1 0x0 DUP1 REVERT JUMPDEST PUSH2 0x187 DUP3 PUSH2 0x124 JUMP JUMPDEST SWAP4 SWAP3 POP POP POP JUMP INVALID LOG2 PUSH5 0x6970667358 0x22 SLT KECCAK256 SWAP2 0xE 0xEE KECCAK256 DUP7 0x2E 0xE0 PUSH7 0x57FF4501952736 STATICCALL PUSH16 0x771439A4DED849E616119DE1856CCA64 PUSH20 0x6F6C634300081100330000000000000000000000 "},"methodIdentifiers":{"DEFAULT_ADMIN_ROLE()":"a217fddf","_transferOwnership(address)":"d29d44ee","grantControllerRoleByMarketManager(address)":"7fe4a698","grantRole(bytes32,address)":"2f2ff15d","hasRole(bytes32,address)":"91d14854","revokeRole(bytes32,address)":"d547741f","transferAdmin(address)":"75829def","transferOwnership(address)":"f2fde38b"}},"storageLayout":{"storage":[{"astId":25,"contract":"contracts/ac/AcUpgradable.sol:AcUpgradable","label":"_initialized","offset":0,"slot":"0","type":"t_uint8"},{"astId":28,"contract":"contracts/ac/AcUpgradable.sol:AcUpgradable","label":"_initializing","offset":1,"slot":"0","type":"t_bool"},{"astId":3784,"contract":"contracts/ac/AcUpgradable.sol:AcUpgradable","label":"initBlock","offset":0,"slot":"1","type":"t_uint256"}],"types":{"t_bool":{"encoding":"inplace","label":"bool","numberOfBytes":"1"},"t_uint256":{"encoding":"inplace","label":"uint256","numberOfBytes":"32"},"t_uint8":{"encoding":"inplace","label":"uint8","numberOfBytes":"1"}}}}}}