{"contracts/oracle/FastPriceFeed.sol":{"FastPriceFeed":{"abi":[{"anonymous":false,"inputs":[{"indexed":false,"internalType":"uint8","name":"version","type":"uint8"}],"name":"Initialized","type":"event"},{"anonymous":false,"inputs":[{"indexed":false,"internalType":"address","name":"token","type":"address"},{"indexed":false,"internalType":"uint256","name":"refPrice","type":"uint256"},{"indexed":false,"internalType":"uint256","name":"fastPrice","type":"uint256"},{"indexed":false,"internalType":"uint256","name":"cumulativeRefDelta","type":"uint256"},{"indexed":false,"internalType":"uint256","name":"cumulativeFastDelta","type":"uint256"}],"name":"MaxCumulativeDeltaDiffExceeded","type":"event"},{"anonymous":false,"inputs":[{"indexed":false,"internalType":"address","name":"token","type":"address"},{"indexed":false,"internalType":"uint256","name":"refPrice","type":"uint256"},{"indexed":false,"internalType":"uint256","name":"fastPrice","type":"uint256"},{"indexed":false,"internalType":"uint256","name":"cumulativeRefDelta","type":"uint256"},{"indexed":false,"internalType":"uint256","name":"cumulativeFastDelta","type":"uint256"}],"name":"PriceData","type":"event"},{"anonymous":false,"inputs":[{"indexed":false,"internalType":"address","name":"feed","type":"address"},{"indexed":true,"internalType":"address","name":"token","type":"address"},{"indexed":false,"internalType":"uint256","name":"price","type":"uint256"}],"name":"UpdatePrice","type":"event"},{"inputs":[],"name":"BASIS_POINTS_DIVISOR","outputs":[{"internalType":"uint256","name":"","type":"uint256"}],"stateMutability":"view","type":"function"},{"inputs":[],"name":"BITMASK_32","outputs":[{"internalType":"uint256","name":"","type":"uint256"}],"stateMutability":"view","type":"function"},{"inputs":[],"name":"CUMULATIVE_DELTA_PRECISION","outputs":[{"internalType":"uint256","name":"","type":"uint256"}],"stateMutability":"view","type":"function"},{"inputs":[],"name":"DEFAULT_ADMIN_ROLE","outputs":[{"internalType":"bytes32","name":"","type":"bytes32"}],"stateMutability":"view","type":"function"},{"inputs":[],"name":"MAX_CUMULATIVE_FAST_DELTA","outputs":[{"internalType":"uint256","name":"","type":"uint256"}],"stateMutability":"view","type":"function"},{"inputs":[],"name":"MAX_CUMULATIVE_REF_DELTA","outputs":[{"internalType":"uint256","name":"","type":"uint256"}],"stateMutability":"view","type":"function"},{"inputs":[],"name":"MAX_PRICE_DURATION","outputs":[{"internalType":"uint256","name":"","type":"uint256"}],"stateMutability":"view","type":"function"},{"inputs":[],"name":"MAX_REF_PRICE","outputs":[{"internalType":"uint256","name":"","type":"uint256"}],"stateMutability":"view","type":"function"},{"inputs":[],"name":"PRICE_PRECISION","outputs":[{"internalType":"uint256","name":"","type":"uint256"}],"stateMutability":"view","type":"function"},{"inputs":[{"internalType":"address","name":"newOwner","type":"address"}],"name":"_transferOwnership","outputs":[],"stateMutability":"pure","type":"function"},{"inputs":[],"name":"chainPriceFeed","outputs":[{"internalType":"address","name":"","type":"address"}],"stateMutability":"view","type":"function"},{"inputs":[{"internalType":"address","name":"_token","type":"address"}],"name":"favorFastPrice","outputs":[{"internalType":"bool","name":"","type":"bool"}],"stateMutability":"view","type":"function"},{"inputs":[{"internalType":"address","name":"_token","type":"address"},{"internalType":"uint256","name":"_refPrice","type":"uint256"},{"internalType":"bool","name":"_maximise","type":"bool"}],"name":"getPrice","outputs":[{"internalType":"uint256","name":"","type":"uint256"}],"stateMutability":"view","type":"function"},{"inputs":[{"internalType":"address","name":"_token","type":"address"}],"name":"getPriceData","outputs":[{"internalType":"uint256","name":"","type":"uint256"},{"internalType":"uint256","name":"","type":"uint256"},{"internalType":"uint256","name":"","type":"uint256"},{"internalType":"uint256","name":"","type":"uint256"}],"stateMutability":"view","type":"function"},{"inputs":[{"internalType":"address","name":"_account","type":"address"}],"name":"grantControllerRoleByMarketManager","outputs":[],"stateMutability":"nonpayable","type":"function"},{"inputs":[{"internalType":"bytes32","name":"role","type":"bytes32"},{"internalType":"address","name":"account","type":"address"}],"name":"grantRole","outputs":[],"stateMutability":"pure","type":"function"},{"inputs":[{"internalType":"bytes32","name":"role","type":"bytes32"},{"internalType":"address","name":"account","type":"address"}],"name":"hasRole","outputs":[{"internalType":"bool","name":"","type":"bool"}],"stateMutability":"pure","type":"function"},{"inputs":[{"internalType":"uint256","name":"_priceDuration","type":"uint256"},{"internalType":"uint256","name":"_maxPriceUpdateDelay","type":"uint256"},{"internalType":"uint256","name":"_minBlockInterval","type":"uint256"},{"internalType":"uint256","name":"_maxDeviationBasisPoints","type":"uint256"},{"internalType":"uint256","name":"_maxTimeDeviation","type":"uint256"},{"internalType":"uint256","name":"_priceDataInterval","type":"uint256"},{"internalType":"bool","name":"_fastPriceIsSpreadEnabled","type":"bool"},{"internalType":"address","name":"_chainPriceFeed","type":"address"}],"name":"initialize","outputs":[],"stateMutability":"nonpayable","type":"function"},{"inputs":[],"name":"isSpreadEnablede","outputs":[{"internalType":"bool","name":"","type":"bool"}],"stateMutability":"view","type":"function"},{"inputs":[],"name":"lastUpdatedAt","outputs":[{"internalType":"uint256","name":"","type":"uint256"}],"stateMutability":"view","type":"function"},{"inputs":[{"internalType":"address","name":"","type":"address"}],"name":"lastUpdatedAtBlock","outputs":[{"internalType":"uint256","name":"","type":"uint256"}],"stateMutability":"view","type":"function"},{"inputs":[],"name":"lastUpdatedBlock","outputs":[{"internalType":"uint256","name":"","type":"uint256"}],"stateMutability":"view","type":"function"},{"inputs":[{"internalType":"address","name":"","type":"address"}],"name":"maxCumulativeDeltaDiffs","outputs":[{"internalType":"uint256","name":"","type":"uint256"}],"stateMutability":"view","type":"function"},{"inputs":[],"name":"maxDeviationBasisPoints","outputs":[{"internalType":"uint256","name":"","type":"uint256"}],"stateMutability":"view","type":"function"},{"inputs":[],"name":"maxPriceUpdateDelay","outputs":[{"internalType":"uint256","name":"","type":"uint256"}],"stateMutability":"view","type":"function"},{"inputs":[],"name":"maxTimeDeviation","outputs":[{"internalType":"uint256","name":"","type":"uint256"}],"stateMutability":"view","type":"function"},{"inputs":[],"name":"minBlockInterval","outputs":[{"internalType":"uint256","name":"","type":"uint256"}],"stateMutability":"view","type":"function"},{"inputs":[{"internalType":"address","name":"","type":"address"}],"name":"priceData","outputs":[{"internalType":"uint160","name":"refPrice","type":"uint160"},{"internalType":"uint32","name":"refTime","type":"uint32"},{"internalType":"uint32","name":"cumulativeRefDelta","type":"uint32"},{"internalType":"uint32","name":"cumulativeFastDelta","type":"uint32"}],"stateMutability":"view","type":"function"},{"inputs":[],"name":"priceDataInterval","outputs":[{"internalType":"uint256","name":"","type":"uint256"}],"stateMutability":"view","type":"function"},{"inputs":[],"name":"priceDuration","outputs":[{"internalType":"uint256","name":"","type":"uint256"}],"stateMutability":"view","type":"function"},{"inputs":[{"internalType":"address","name":"","type":"address"}],"name":"prices","outputs":[{"internalType":"uint256","name":"","type":"uint256"}],"stateMutability":"view","type":"function"},{"inputs":[{"internalType":"bytes32","name":"role","type":"bytes32"},{"internalType":"address","name":"account","type":"address"}],"name":"revokeRole","outputs":[],"stateMutability":"pure","type":"function"},{"inputs":[{"internalType":"uint256[]","name":"_priceBitArray","type":"uint256[]"},{"internalType":"uint256","name":"_timestamp","type":"uint256"}],"name":"setCompactedPrices","outputs":[],"stateMutability":"nonpayable","type":"function"},{"inputs":[{"internalType":"bool","name":"_enabled","type":"bool"}],"name":"setIsSpreadEnabled","outputs":[],"stateMutability":"nonpayable","type":"function"},{"inputs":[{"internalType":"uint256","name":"_lastUpdatedAt","type":"uint256"}],"name":"setLastUpdatedAt","outputs":[],"stateMutability":"nonpayable","type":"function"},{"inputs":[{"internalType":"address[]","name":"_tokens","type":"address[]"},{"internalType":"uint256[]","name":"_maxCumulativeDeltaDiffs","type":"uint256[]"}],"name":"setMaxCumulativeDeltaDiffs","outputs":[],"stateMutability":"nonpayable","type":"function"},{"inputs":[{"internalType":"uint256","name":"_maxDeviationBasisPoints","type":"uint256"}],"name":"setMaxDeviationBasisPoints","outputs":[],"stateMutability":"nonpayable","type":"function"},{"inputs":[{"internalType":"uint256","name":"_delay","type":"uint256"}],"name":"setMaxPriceUpdateDelay","outputs":[],"stateMutability":"nonpayable","type":"function"},{"inputs":[{"internalType":"uint256","name":"_deviation","type":"uint256"}],"name":"setMaxTimeDeviation","outputs":[],"stateMutability":"nonpayable","type":"function"},{"inputs":[{"internalType":"uint256","name":"_interval","type":"uint256"}],"name":"setMinBlockInterval","outputs":[],"stateMutability":"nonpayable","type":"function"},{"inputs":[{"internalType":"uint256","name":"_priceDataInterval","type":"uint256"}],"name":"setPriceDataInterval","outputs":[],"stateMutability":"nonpayable","type":"function"},{"inputs":[{"internalType":"uint256","name":"_duration","type":"uint256"}],"name":"setPriceDuration","outputs":[],"stateMutability":"nonpayable","type":"function"},{"inputs":[{"internalType":"address","name":"_feed","type":"address"}],"name":"setPriceFeed","outputs":[],"stateMutability":"nonpayable","type":"function"},{"inputs":[{"internalType":"address[]","name":"_tokens","type":"address[]"},{"internalType":"uint256[]","name":"_prices","type":"uint256[]"},{"internalType":"uint256","name":"_timestamp","type":"uint256"}],"name":"setPrices","outputs":[],"stateMutability":"nonpayable","type":"function"},{"inputs":[{"internalType":"address","name":"token","type":"address"},{"internalType":"uint256","name":"price","type":"uint256"},{"internalType":"uint256","name":"timestamp","type":"uint256"},{"components":[{"internalType":"address","name":"market","type":"address"},{"internalType":"address","name":"account","type":"address"},{"internalType":"uint64","name":"orderID","type":"uint64"},{"internalType":"bool","name":"isIncrease","type":"bool"},{"internalType":"bool","name":"isLong","type":"bool"}],"internalType":"struct IMarket.OrderExec[]","name":"orders","type":"tuple[]"}],"name":"setPricesAndExecute","outputs":[],"stateMutability":"nonpayable","type":"function"},{"inputs":[{"internalType":"uint256","name":"_priceBits","type":"uint256"},{"internalType":"uint256","name":"_timestamp","type":"uint256"}],"name":"setPricesWithBits","outputs":[],"stateMutability":"nonpayable","type":"function"},{"inputs":[{"internalType":"uint256","name":"_point","type":"uint256"}],"name":"setSpreadBasisPointsIfChainError","outputs":[],"stateMutability":"nonpayable","type":"function"},{"inputs":[{"internalType":"uint256","name":"_point","type":"uint256"}],"name":"setSpreadBasisPointsIfInactive","outputs":[],"stateMutability":"nonpayable","type":"function"},{"inputs":[{"internalType":"address[]","name":"_tokens","type":"address[]"},{"internalType":"uint256[]","name":"_tokenPrecisions","type":"uint256[]"}],"name":"setTokens","outputs":[],"stateMutability":"nonpayable","type":"function"},{"inputs":[],"name":"spreadBasisPointsIfChainError","outputs":[{"internalType":"uint256","name":"","type":"uint256"}],"stateMutability":"view","type":"function"},{"inputs":[],"name":"spreadBasisPointsIfInactive","outputs":[{"internalType":"uint256","name":"","type":"uint256"}],"stateMutability":"view","type":"function"},{"inputs":[{"internalType":"uint256","name":"","type":"uint256"}],"name":"tokenPrecisions","outputs":[{"internalType":"uint256","name":"","type":"uint256"}],"stateMutability":"view","type":"function"},{"inputs":[{"internalType":"uint256","name":"","type":"uint256"}],"name":"tokens","outputs":[{"internalType":"address","name":"","type":"address"}],"stateMutability":"view","type":"function"},{"inputs":[{"internalType":"address","name":"to","type":"address"}],"name":"transferAdmin","outputs":[],"stateMutability":"nonpayable","type":"function"},{"inputs":[{"internalType":"address","name":"newOwner","type":"address"}],"name":"transferOwnership","outputs":[],"stateMutability":"pure","type":"function"},{"inputs":[{"internalType":"uint256","name":"","type":"uint256"}],"name":"updatedAt","outputs":[{"internalType":"uint256","name":"","type":"uint256"}],"stateMutability":"view","type":"function"}],"evm":{"bytecode":{"linkReferences":{},"object":"608060405234801561001057600080fd5b50612819806100206000396000f3fe608060405234801561001057600080fd5b50600436106103785760003560e01c806382553aad116101d3578063cab44b7611610104578063dfb481c9116100a2578063f2fde38b1161007c578063f2fde38b14610762578063f90ce5ba146107b9578063f931ac30146107c2578063fcb51252146107cf57600080fd5b8063dfb481c914610799578063e64559ad146107a2578063e68a22c0146107ab57600080fd5b8063d29d44ee116100de578063d29d44ee14610762578063d547741f1461040e578063d6a153f114610773578063de0d1b941461078657600080fd5b8063cab44b761461069e578063ce98dfa814610721578063cfed246b1461074257600080fd5b8063a374242511610171578063b3606b561161014b578063b3606b561461065c578063b70c7b7014610665578063c818faec14610678578063c8390a481461068b57600080fd5b8063a37424251461061b578063a6eca8961461063b578063add37b7b1461064457600080fd5b806395082d25116101ad57806395082d25146105d55780639875f760146105e9578063a217fddf14610609578063a2b47c161461061157600080fd5b806382553aad1461059c5780638b7677f4146105af57806391d14854146105c257600080fd5b80634f64b2be116102ad57806374bfed891161024b578063782661bc11610225578063782661bc146105635780637fe4a698146105765780637fece36814610589578063807c9782146103ae57600080fd5b806374bfed891461053457806375829def1461053d578063776d16c11461055057600080fd5b80636c56fd05116102875780636c56fd051461049f578063715c7536146104c257806372279ba1146104cb578063724e78da146104fe57600080fd5b80634f64b2be1461046257806354aea1271461048d578063668d3d651461049657600080fd5b80632e9cd94b1161031a57806344c23193116102f457806344c23193146104295780634bd66c1c146103ae5780634c0e31c81461043c5780634d11fb4a1461044f57600080fd5b80632e9cd94b146103fb5780632f2ff15d1461040e5780633aa08f861461042057600080fd5b8063126082cf11610356578063126082cf146103b957806314dd2dce146103c25780631512656d146103d557806317835d1c146103e857600080fd5b806303cd25711461037d57806303f4d7dc146103995780630604ddea146103ae575b600080fd5b61038660055481565b6040519081526020015b60405180910390f35b6103ac6103a7366004611f01565b6107e2565b005b61038663ffffffff81565b61038661271081565b6103ac6103d0366004611f45565b600355565b6103ac6103e3366004611f88565b61095c565b6103ac6103f6366004611ff9565b610b3a565b6103ac610409366004611f45565b600b55565b6103ac61041c36600461201b565b5050565b610386600a5481565b6103ac610437366004611f45565b610b44565b6103ac61044a3660046120af565b610bc9565b61038661045d366004611f45565b610c64565b610475610470366004611f45565b610c85565b6040516001600160a01b039091168152602001610390565b61038660035481565b61038661070881565b6104b26104ad366004612112565b610caf565b6040519015158152602001610390565b610386600c5481565b6104de6104d9366004612112565b610d1f565b604080519485526020850193909352918301526060820152608001610390565b6103ac61050c366004612112565b600280546001600160a01b0390921661010002610100600160a81b0319909216919091179055565b61038660075481565b6103ac61054b366004612112565b610d89565b6103ac61055e366004611f45565b600a55565b6103ac61057136600461212f565b610d94565b6103ac610584366004612112565b610770565b61038661059736600461219b565b610e21565b6103ac6105aa366004611f45565b600c55565b6103ac6105bd366004611f45565b600655565b6104b26105d036600461201b565b610f84565b6103866c0c9f2c9cd04674edea4000000081565b6103866105f7366004612112565b60136020526000908152604090205481565b610386600081565b6103866298968081565b610386610629366004612112565b600f6020526000908152604090205481565b61038660085481565b6002546104759061010090046001600160a01b031681565b61038660095481565b6103ac610673366004611f45565b600755565b610386610686366004611f45565b610f8d565b6103ac6106993660046120af565b610f9d565b6106eb6106ac366004612112565b600e602052600090815260409020546001600160a01b0381169063ffffffff600160a01b8204811691600160c01b8104821691600160e01b9091041684565b604080516001600160a01b03909516855263ffffffff938416602086015291831691840191909152166060820152608001610390565b6103ac61072f3660046121d9565b6002805460ff1916911515919091179055565b610386610750366004612112565b600d6020526000908152604090205481565b6103ac610770366004612112565b50565b6103ac610781366004611f45565b600955565b6103ac610794366004611f45565b600855565b610386600b5481565b61038660065481565b6103866001600160a01b0381565b61038660045481565b6002546104b29060ff1681565b6103ac6107dd366004612209565b611036565b60006107ed826113de565b905080156109575760025461010090046001600160a01b031660005b845181101561095457600085828151811061082657610826612329565b6020026020010151905060005b600881101561093f5760008161084a856008612355565b610854919061236c565b601054909150811061086a575050505050505050565b6000610877836020612355565b905083811c63ffffffff166000601085610892896008612355565b61089c919061236c565b815481106108ac576108ac612329565b60009182526020822001546001600160a01b031691506011866108d08a6008612355565b6108da919061236c565b815481106108ea576108ea612329565b600091825260208220015491508161090f6c0c9f2c9cd04674edea4000000086612355565b610919919061237f565b905061092683828c611560565b5050505050508080610937906123a1565b915050610833565b5050808061094c906123a1565b915050610809565b50505b505050565b600054610100900460ff161580801561097c5750600054600160ff909116105b806109965750303b158015610996575060005460ff166001145b6109fe5760405162461bcd60e51b815260206004820152602e60248201527f496e697469616c697a61626c653a20636f6e747261637420697320616c72656160448201526d191e481a5b9a5d1a585b1a5e995960921b60648201526084015b60405180910390fd5b6000805460ff191660011790558015610a21576000805461ff0019166101001790555b610a2a3361182e565b610708891115610a8a5760405162461bcd60e51b815260206004820152602560248201527f466173745072696365466565643a20696e76616c6964205f707269636544757260448201526430ba34b7b760d91b60648201526084016109f5565b600589905560068890556009879055600c869055600a859055600b8490556002805460ff19168415151790556001600160a01b038216610ac957600080fd5b60028054610100600160a81b0319166101006001600160a01b038516021790558015610b2f576000805461ff0019169055604051600181527f7f26b83ff96e1f2b6a682f133852f6798a09c465da95921460cefb38474024989060200160405180910390a15b505050505050505050565b61041c8282611835565b7f241ecf16d79d0f8dbfb92cbc07fe17840425976cf0667f022fe9877caa831b08610708821115610bc35760405162461bcd60e51b8152602060048201526024808201527f466173745072696365466565643a20696e76616c6964207072696365447572616044820152633a34b7b760e11b60648201526084016109f5565b50600555565b7f241ecf16d79d0f8dbfb92cbc07fe17840425976cf0667f022fe9877caa831b0860005b8351811015610c5e576000848281518110610c0a57610c0a612329565b60200260200101519050838281518110610c2657610c26612329565b6020908102919091018101516001600160a01b039092166000908152600f909152604090205580610c56816123a1565b915050610bed565b50505050565b60118181548110610c7457600080fd5b600091825260209091200154905081565b60108181548110610c9557600080fd5b6000918252602090912001546001600160a01b0316905081565b60025460009060ff1615610cc557506000919050565b600080610cd184610d1f565b9350935050508181118015610d0657506001600160a01b0384166000908152600f6020526040902054610d0483836123ba565b115b15610d15575060009392505050565b5060019392505050565b6001600160a01b039081166000908152600e60209081526040918290208251608081018452905493841680825263ffffffff600160a01b86048116938301849052600160c01b86048116948301859052600160e01b90950490941660609091018190529293909290565b600061041c60003382565b6000610d9f826113de565b90508015610c5e5760025461010090046001600160a01b031660005b8551811015610e19576000868281518110610dd857610dd8612329565b60200260200101519050610e0681878481518110610df857610df8612329565b602002602001015185611560565b5080610e11816123a1565b915050610dbb565b505050505050565b6000600654600354610e33919061236c565b421115610e81578115610e6e57612710600854612710610e53919061236c565b610e5d9085612355565b610e67919061237f565b9050610f7d565b612710600854612710610e5391906123ba565b600554600354610e91919061236c565b421115610ec4578115610eb157612710600754612710610e53919061236c565b612710600754612710610e5391906123ba565b6001600160a01b0384166000908152600d602052604081205490819003610eee5783915050610f7d565b6000818511610f0657610f0185836123ba565b610f10565b610f1082866123ba565b905084610f1f61271083612355565b610f29919061237f565b90506000610f3687610caf565b1580610f435750600c5482115b90508015610f77578415610f6a57828611610f5e5782610f60565b855b9350505050610f7d565b828610610f5e5782610f60565b50909150505b9392505050565b60015b92915050565b60128181548110610c7457600080fd5b7f241ecf16d79d0f8dbfb92cbc07fe17840425976cf0667f022fe9877caa831b08815183511461100f5760405162461bcd60e51b815260206004820152601e60248201527f466173745072696365466565643a20696e76616c6964206c656e67746873000060448201526064016109f5565b8251611022906010906020860190611d2d565b508151610c5e906011906020850190611d92565b61103f826113de565b506110608484600260019054906101000a90046001600160a01b0316611560565b60005b815181101561095457600082828151811061108057611080612329565b60200260200101516000015190506000816001600160a01b031663a26404548585815181106110b1576110b1612329565b6020026020010151608001518686815181106110cf576110cf612329565b6020026020010151606001516040518363ffffffff1660e01b815260040161110592919091151582521515602082015260400190565b602060405180830381865afa158015611122573d6000803e3d6000fd5b505050506040513d601f19601f8201168201806040525081019061114691906123cd565b905060006111d585858151811061115f5761115f612329565b60200260200101516020015186868151811061117d5761117d612329565b602090810291909101810151604090810151815160609490941b6bffffffffffffffffffffffff19168484015260c01b6001600160c01b03191660348401528051601c818503018152603c9093019052815191012090565b6040516309c3f1e960e41b8152600481018290529091506000906001600160a01b03841690639c3f1e90906024016101a060405180830381865afa158015611221573d6000803e3d6000fd5b505050506040513d601f19601f820116820180604052508101906112459190612452565b604080516101e08101825260008082526020820181905291810182905260608082018390526080820183905260a0820183905260c0820183905260e08201839052610100820183905261012082018390526101408201839052610160820183905261018082018390526101a08201929092526101c08101919091529091506112f38787815181106112d8576112d8612329565b6020026020010151606001518261192c90919063ffffffff16565b6113668288888151811061130957611309612329565b60200260200101516000015189898151811061132757611327612329565b6020026020010151608001518a8a8151811061134557611345612329565b60200260200101516060015160018661195a9095949392919063ffffffff16565b6040516304b789db60e21b81526001600160a01b038616906312de276c906113949085908590600401612687565b600060405180830381600087803b1580156113ae57600080fd5b505af11580156113c2573d6000803e3d6000fd5b50505050505050505080806113d6906123a1565b915050611063565b6009546000901561145e576009546004546113f990436123ba565b101561145e5760405162461bcd60e51b815260206004820152602e60248201527f466173745072696365466565643a206d696e426c6f636b496e74657276616c2060448201526d1b9bdd081e595d081c185cdcd95960921b60648201526084016109f5565b600a5461146b81426123ba565b83116114cf5760405162461bcd60e51b815260206004820152602d60248201527f466173745072696365466565643a205f74696d657374616d702062656c6f772060448201526c616c6c6f7765642072616e676560981b60648201526084016109f5565b6114d9814261236c565b831061153f5760405162461bcd60e51b815260206004820152602f60248201527f466173745072696365466565643a205f74696d657374616d702065786365656460448201526e7320616c6c6f7765642072616e676560881b60648201526084016109f5565b6003548310156115525750600092915050565b505060035543600455600190565b6001600160a01b038116156117ca576040516302c68be360e31b81526001600160a01b038481166004830152600091908316906316345f1890602401602060405180830381865afa1580156115b9573d6000803e3d6000fd5b505050506040513d601f19601f820116820180604052508101906115dd91906127ca565b6001600160a01b0385166000908152600d602052604081205491925080808061160589610d1f565b935093509350935060008411156116d257600084871161162e5761162987866123ba565b611638565b61163885886123ba565b905060008987116116525761164d878b6123ba565b61165c565b61165c8a886123ba565b9050600b544261166c919061237f565b600b54611679908761237f565b146116875760009350600092505b856116956298968084612355565b61169f919061237f565b6116a9908561236c565b9350866116b96298968083612355565b6116c3919061237f565b6116cd908461236c565b925050505b818111801561170157506001600160a01b0389166000908152600f60205260409020546116ff83836123ba565b115b1561175f57604080516001600160a01b038b1681526020810188905290810186905260608101839052608081018290527fe582322b389ad06b2bbf619cd6da3f16a288ec873ea0fa6df4d72f3d9480b4479060a00160405180910390a15b61176b89878484611a96565b604080516001600160a01b038b1681526020810188905290810186905260608101839052608081018290527f23b9387f81fca646aac1dc4487ede045c65f5f7445482906565f01e05afdb3a89060a00160405180910390a15050505050505b6001600160a01b0383166000818152601360209081526040808320429055600d82529182902085905581513381529081018590527f769c880b4ecaf9ff271685d367fa4e4d091bab5879cf19c9ab777391e44f1c0f910160405180910390a2505050565b4260015550565b6000611840826113de565b905080156109575760025461010090046001600160a01b031660005b6008811015610954576010548190811061187857505050505050565b6000611885836020612355565b6010805491925088831c63ffffffff169160009190869081106118aa576118aa612329565b6000918252602082200154601180546001600160a01b03909216935090879081106118d7576118d7612329565b60009182526020822001549150816118fc6c0c9f2c9cd04674edea4000000086612355565b611906919061237f565b905061191383828a611560565b5050505050508080611924906123a1565b91505061185c565b60408051600480825260a0820190925290602082016080803683375050506101c08301521515606090910152565b6001600160a01b038085168752831515602088015260c0808701516001600160801b0390811660a0808b019190915260e08901518216928a0192909252610180808901516101608b01528415156101008b01526101208901516001600160401b03166101408b0152606089015190931660808a01529087015116908701528115611a55576119fd6119f68661010001516001600160801b031690565b8790611c58565b611a1c611a158661016001516001600160801b031690565b8790611c81565b611a37611a30866101400151600f16151590565b8790611c9a565b610140850151611a509060041c600f1615158790611cc4565b610e19565b611a74611a6d866080015165ffffffffffff16151590565b8790611cee565b50608085015165ffffffffffff16610e19576000610180870152505050505050565b6001600160a01b038310611aec5760405162461bcd60e51b815260206004820152601f60248201527f466173745072696365466565643a20696e76616c69642072656650726963650060448201526064016109f5565b63ffffffff8210611b515760405162461bcd60e51b815260206004820152602960248201527f466173745072696365466565643a20696e76616c69642063756d756c617469766044820152686552656644656c746160b81b60648201526084016109f5565b63ffffffff8110611bb75760405162461bcd60e51b815260206004820152602a60248201527f466173745072696365466565643a20696e76616c69642063756d756c61746976604482015269654661737444656c746160b01b60648201526084016109f5565b604080516080810182526001600160a01b03948516815263ffffffff4281166020808401918252958216838501908152948216606084019081529787166000908152600e90965292909420905181549251935196518516600160e01b026001600160e01b03978616600160c01b02979097166001600160c01b0394909516600160a01b026001600160c01b0319909316951694909417171617919091179055565b80826101c00151600081518110611c7157611c71612329565b6020026020010181815250505050565b80826101c00151600181518110611c7157611c71612329565b80611ca6576000611ca9565b60015b60ff16826101c00151600281518110611c7157611c71612329565b80611cd0576000611cd3565b60015b60ff16826101c00151600381518110611c7157611c71612329565b600081611cfc576000611cff565b60015b60ff16836101c00151600081518110611d1a57611d1a612329565b6020026020010181815250905092915050565b828054828255906000526020600020908101928215611d82579160200282015b82811115611d8257825182546001600160a01b0319166001600160a01b03909116178255602090920191600190910190611d4d565b50611d8e929150611dcd565b5090565b828054828255906000526020600020908101928215611d82579160200282015b82811115611d82578251825591602001919060010190611db2565b5b80821115611d8e5760008155600101611dce565b634e487b7160e01b600052604160045260246000fd5b60405160a081016001600160401b0381118282101715611e1a57611e1a611de2565b60405290565b6040516101a081016001600160401b0381118282101715611e1a57611e1a611de2565b604051601f8201601f191681016001600160401b0381118282101715611e6b57611e6b611de2565b604052919050565b60006001600160401b03821115611e8c57611e8c611de2565b5060051b60200190565b600082601f830112611ea757600080fd5b81356020611ebc611eb783611e73565b611e43565b82815260059290921b84018101918181019086841115611edb57600080fd5b8286015b84811015611ef65780358352918301918301611edf565b509695505050505050565b60008060408385031215611f1457600080fd5b82356001600160401b03811115611f2a57600080fd5b611f3685828601611e96565b95602094909401359450505050565b600060208284031215611f5757600080fd5b5035919050565b80358015158114611f6e57600080fd5b919050565b6001600160a01b038116811461077057600080fd5b600080600080600080600080610100898b031215611fa557600080fd5b883597506020890135965060408901359550606089013594506080890135935060a08901359250611fd860c08a01611f5e565b915060e0890135611fe881611f73565b809150509295985092959890939650565b6000806040838503121561200c57600080fd5b50508035926020909101359150565b6000806040838503121561202e57600080fd5b82359150602083013561204081611f73565b809150509250929050565b600082601f83011261205c57600080fd5b8135602061206c611eb783611e73565b82815260059290921b8401810191818101908684111561208b57600080fd5b8286015b84811015611ef65780356120a281611f73565b835291830191830161208f565b600080604083850312156120c257600080fd5b82356001600160401b03808211156120d957600080fd5b6120e58683870161204b565b935060208501359150808211156120fb57600080fd5b5061210885828601611e96565b9150509250929050565b60006020828403121561212457600080fd5b8135610f7d81611f73565b60008060006060848603121561214457600080fd5b83356001600160401b038082111561215b57600080fd5b6121678783880161204b565b9450602086013591508082111561217d57600080fd5b5061218a86828701611e96565b925050604084013590509250925092565b6000806000606084860312156121b057600080fd5b83356121bb81611f73565b9250602084013591506121d060408501611f5e565b90509250925092565b6000602082840312156121eb57600080fd5b610f7d82611f5e565b6001600160401b038116811461077057600080fd5b6000806000806080858703121561221f57600080fd5b843561222a81611f73565b9350602085810135935060408087013593506060808801356001600160401b0381111561225657600080fd5b8801601f81018a1361226757600080fd5b8035612275611eb782611e73565b81815260a0918202830186019186820191908d84111561229457600080fd5b938701935b838510156123175780858f0312156122b15760008081fd5b6122b9611df8565b85356122c481611f73565b8152858901356122d381611f73565b818a0152858801356122e4816121f4565b818901526122f3868801611f5e565b8782015261230360808701611f5e565b608082015283529384019391870191612299565b50999c989b5096995050505050505050565b634e487b7160e01b600052603260045260246000fd5b634e487b7160e01b600052601160045260246000fd5b8082028115828204841417610f8757610f8761233f565b80820180821115610f8757610f8761233f565b60008261239c57634e487b7160e01b600052601260045260246000fd5b500490565b6000600182016123b3576123b361233f565b5060010190565b81810381811115610f8757610f8761233f565b6000602082840312156123df57600080fd5b8151610f7d81611f73565b805160ff81168114611f6e57600080fd5b805163ffffffff81168114611f6e57600080fd5b8051611f6e81611f73565b805165ffffffffffff81168114611f6e57600080fd5b80516001600160801b0381168114611f6e57600080fd5b8051611f6e816121f4565b60006101a0828403121561246557600080fd5b61246d611e20565b612476836123ea565b8152612484602084016123fb565b6020820152612495604084016123ea565b60408201526124a66060840161240f565b60608201526124b76080840161241a565b60808201526124c860a08401612430565b60a08201526124d960c08401612430565b60c08201526124ea60e08401612430565b60e08201526101006124fd818501612430565b9082015261012061250f848201612447565b90820152610140612521848201612447565b90820152610160612533848201612430565b90820152610180928301519281019290925250919050565b600081518084526020808501945080840160005b8381101561257b5781518752958201959082019060010161255f565b509495945050505050565b80516001600160a01b0316825260006101e060208301516125ab602086018215159052565b506040830151604085015260608301516125c9606086018215159052565b5060808301516125e460808601826001600160a01b03169052565b5060a083015160a085015260c083015160c085015260e083015160e0850152610100808401516126178287018215159052565b50506101208381015160ff90811691860191909152610140808501516001600160401b031690860152610160808501519086015261018080850151908601526101a080850151909116908501526101c08084015181860183905261267d8387018261254b565b9695505050505050565b825160ff16815260006101c060208501516126aa602085018263ffffffff169052565b5060408501516126bf604085018260ff169052565b5060608501516126da60608501826001600160a01b03169052565b5060808501516126f4608085018265ffffffffffff169052565b5060a085015161270f60a08501826001600160801b03169052565b5060c085015161272a60c08501826001600160801b03169052565b5060e085015161274560e08501826001600160801b03169052565b50610100858101516001600160801b038116858301525050610120858101516001600160401b038116858301525050610140858101516001600160401b038116858301525050610160858101516001600160801b038116858301525050610180808601518185015250806101a08401526127c181840185612586565b95945050505050565b6000602082840312156127dc57600080fd5b505191905056fea2646970667358221220e65fa73215dffb1ce5c93b983885b2189eb29d9546cea502632229294be6009264736f6c63430008110033","opcodes":"PUSH1 0x80 PUSH1 0x40 MSTORE CALLVALUE DUP1 ISZERO PUSH2 0x10 JUMPI PUSH1 0x0 DUP1 REVERT JUMPDEST POP PUSH2 0x2819 DUP1 PUSH2 0x20 PUSH1 0x0 CODECOPY PUSH1 0x0 RETURN INVALID PUSH1 0x80 PUSH1 0x40 MSTORE CALLVALUE DUP1 ISZERO PUSH2 0x10 JUMPI PUSH1 0x0 DUP1 REVERT JUMPDEST POP PUSH1 0x4 CALLDATASIZE LT PUSH2 0x378 JUMPI PUSH1 0x0 CALLDATALOAD PUSH1 0xE0 SHR DUP1 PUSH4 0x82553AAD GT PUSH2 0x1D3 JUMPI DUP1 PUSH4 0xCAB44B76 GT PUSH2 0x104 JUMPI DUP1 PUSH4 0xDFB481C9 GT PUSH2 0xA2 JUMPI DUP1 PUSH4 0xF2FDE38B GT PUSH2 0x7C JUMPI DUP1 PUSH4 0xF2FDE38B EQ PUSH2 0x762 JUMPI DUP1 PUSH4 0xF90CE5BA EQ PUSH2 0x7B9 JUMPI DUP1 PUSH4 0xF931AC30 EQ PUSH2 0x7C2 JUMPI DUP1 PUSH4 0xFCB51252 EQ PUSH2 0x7CF JUMPI PUSH1 0x0 DUP1 REVERT JUMPDEST DUP1 PUSH4 0xDFB481C9 EQ PUSH2 0x799 JUMPI DUP1 PUSH4 0xE64559AD EQ PUSH2 0x7A2 JUMPI DUP1 PUSH4 0xE68A22C0 EQ PUSH2 0x7AB JUMPI PUSH1 0x0 DUP1 REVERT JUMPDEST DUP1 PUSH4 0xD29D44EE GT PUSH2 0xDE JUMPI DUP1 PUSH4 0xD29D44EE EQ PUSH2 0x762 JUMPI DUP1 PUSH4 0xD547741F EQ PUSH2 0x40E JUMPI DUP1 PUSH4 0xD6A153F1 EQ PUSH2 0x773 JUMPI DUP1 PUSH4 0xDE0D1B94 EQ PUSH2 0x786 JUMPI PUSH1 0x0 DUP1 REVERT JUMPDEST DUP1 PUSH4 0xCAB44B76 EQ PUSH2 0x69E JUMPI DUP1 PUSH4 0xCE98DFA8 EQ PUSH2 0x721 JUMPI DUP1 PUSH4 0xCFED246B EQ PUSH2 0x742 JUMPI PUSH1 0x0 DUP1 REVERT JUMPDEST DUP1 PUSH4 0xA3742425 GT PUSH2 0x171 JUMPI DUP1 PUSH4 0xB3606B56 GT PUSH2 0x14B JUMPI DUP1 PUSH4 0xB3606B56 EQ PUSH2 0x65C JUMPI DUP1 PUSH4 0xB70C7B70 EQ PUSH2 0x665 JUMPI DUP1 PUSH4 0xC818FAEC EQ PUSH2 0x678 JUMPI DUP1 PUSH4 0xC8390A48 EQ PUSH2 0x68B JUMPI PUSH1 0x0 DUP1 REVERT JUMPDEST DUP1 PUSH4 0xA3742425 EQ PUSH2 0x61B JUMPI DUP1 PUSH4 0xA6ECA896 EQ PUSH2 0x63B JUMPI DUP1 PUSH4 0xADD37B7B EQ PUSH2 0x644 JUMPI PUSH1 0x0 DUP1 REVERT JUMPDEST DUP1 PUSH4 0x95082D25 GT PUSH2 0x1AD JUMPI DUP1 PUSH4 0x95082D25 EQ PUSH2 0x5D5 JUMPI DUP1 PUSH4 0x9875F760 EQ PUSH2 0x5E9 JUMPI DUP1 PUSH4 0xA217FDDF EQ PUSH2 0x609 JUMPI DUP1 PUSH4 0xA2B47C16 EQ PUSH2 0x611 JUMPI PUSH1 0x0 DUP1 REVERT JUMPDEST DUP1 PUSH4 0x82553AAD EQ PUSH2 0x59C JUMPI DUP1 PUSH4 0x8B7677F4 EQ PUSH2 0x5AF JUMPI DUP1 PUSH4 0x91D14854 EQ PUSH2 0x5C2 JUMPI PUSH1 0x0 DUP1 REVERT JUMPDEST DUP1 PUSH4 0x4F64B2BE GT PUSH2 0x2AD JUMPI DUP1 PUSH4 0x74BFED89 GT PUSH2 0x24B JUMPI DUP1 PUSH4 0x782661BC GT PUSH2 0x225 JUMPI DUP1 PUSH4 0x782661BC EQ PUSH2 0x563 JUMPI DUP1 PUSH4 0x7FE4A698 EQ PUSH2 0x576 JUMPI DUP1 PUSH4 0x7FECE368 EQ PUSH2 0x589 JUMPI DUP1 PUSH4 0x807C9782 EQ PUSH2 0x3AE JUMPI PUSH1 0x0 DUP1 REVERT JUMPDEST DUP1 PUSH4 0x74BFED89 EQ PUSH2 0x534 JUMPI DUP1 PUSH4 0x75829DEF EQ PUSH2 0x53D JUMPI DUP1 PUSH4 0x776D16C1 EQ PUSH2 0x550 JUMPI PUSH1 0x0 DUP1 REVERT JUMPDEST DUP1 PUSH4 0x6C56FD05 GT PUSH2 0x287 JUMPI DUP1 PUSH4 0x6C56FD05 EQ PUSH2 0x49F JUMPI DUP1 PUSH4 0x715C7536 EQ PUSH2 0x4C2 JUMPI DUP1 PUSH4 0x72279BA1 EQ PUSH2 0x4CB JUMPI DUP1 PUSH4 0x724E78DA EQ PUSH2 0x4FE JUMPI PUSH1 0x0 DUP1 REVERT JUMPDEST DUP1 PUSH4 0x4F64B2BE EQ PUSH2 0x462 JUMPI DUP1 PUSH4 0x54AEA127 EQ PUSH2 0x48D JUMPI DUP1 PUSH4 0x668D3D65 EQ PUSH2 0x496 JUMPI PUSH1 0x0 DUP1 REVERT JUMPDEST DUP1 PUSH4 0x2E9CD94B GT PUSH2 0x31A JUMPI DUP1 PUSH4 0x44C23193 GT PUSH2 0x2F4 JUMPI DUP1 PUSH4 0x44C23193 EQ PUSH2 0x429 JUMPI DUP1 PUSH4 0x4BD66C1C EQ PUSH2 0x3AE JUMPI DUP1 PUSH4 0x4C0E31C8 EQ PUSH2 0x43C JUMPI DUP1 PUSH4 0x4D11FB4A EQ PUSH2 0x44F JUMPI PUSH1 0x0 DUP1 REVERT JUMPDEST DUP1 PUSH4 0x2E9CD94B EQ PUSH2 0x3FB JUMPI DUP1 PUSH4 0x2F2FF15D EQ PUSH2 0x40E JUMPI DUP1 PUSH4 0x3AA08F86 EQ PUSH2 0x420 JUMPI PUSH1 0x0 DUP1 REVERT JUMPDEST DUP1 PUSH4 0x126082CF GT PUSH2 0x356 JUMPI DUP1 PUSH4 0x126082CF EQ PUSH2 0x3B9 JUMPI DUP1 PUSH4 0x14DD2DCE EQ PUSH2 0x3C2 JUMPI DUP1 PUSH4 0x1512656D EQ PUSH2 0x3D5 JUMPI DUP1 PUSH4 0x17835D1C EQ PUSH2 0x3E8 JUMPI PUSH1 0x0 DUP1 REVERT JUMPDEST DUP1 PUSH4 0x3CD2571 EQ PUSH2 0x37D JUMPI DUP1 PUSH4 0x3F4D7DC EQ PUSH2 0x399 JUMPI DUP1 PUSH4 0x604DDEA EQ PUSH2 0x3AE JUMPI JUMPDEST PUSH1 0x0 DUP1 REVERT JUMPDEST PUSH2 0x386 PUSH1 0x5 SLOAD DUP2 JUMP JUMPDEST PUSH1 0x40 MLOAD SWAP1 DUP2 MSTORE PUSH1 0x20 ADD JUMPDEST PUSH1 0x40 MLOAD DUP1 SWAP2 SUB SWAP1 RETURN JUMPDEST PUSH2 0x3AC PUSH2 0x3A7 CALLDATASIZE PUSH1 0x4 PUSH2 0x1F01 JUMP JUMPDEST PUSH2 0x7E2 JUMP JUMPDEST STOP JUMPDEST PUSH2 0x386 PUSH4 0xFFFFFFFF DUP2 JUMP JUMPDEST PUSH2 0x386 PUSH2 0x2710 DUP2 JUMP JUMPDEST PUSH2 0x3AC PUSH2 0x3D0 CALLDATASIZE PUSH1 0x4 PUSH2 0x1F45 JUMP JUMPDEST PUSH1 0x3 SSTORE JUMP JUMPDEST PUSH2 0x3AC PUSH2 0x3E3 CALLDATASIZE PUSH1 0x4 PUSH2 0x1F88 JUMP JUMPDEST PUSH2 0x95C JUMP JUMPDEST PUSH2 0x3AC PUSH2 0x3F6 CALLDATASIZE PUSH1 0x4 PUSH2 0x1FF9 JUMP JUMPDEST PUSH2 0xB3A JUMP JUMPDEST PUSH2 0x3AC PUSH2 0x409 CALLDATASIZE PUSH1 0x4 PUSH2 0x1F45 JUMP JUMPDEST PUSH1 0xB SSTORE JUMP JUMPDEST PUSH2 0x3AC PUSH2 0x41C CALLDATASIZE PUSH1 0x4 PUSH2 0x201B JUMP JUMPDEST POP POP JUMP JUMPDEST PUSH2 0x386 PUSH1 0xA SLOAD DUP2 JUMP JUMPDEST PUSH2 0x3AC PUSH2 0x437 CALLDATASIZE PUSH1 0x4 PUSH2 0x1F45 JUMP JUMPDEST PUSH2 0xB44 JUMP JUMPDEST PUSH2 0x3AC PUSH2 0x44A CALLDATASIZE PUSH1 0x4 PUSH2 0x20AF JUMP JUMPDEST PUSH2 0xBC9 JUMP JUMPDEST PUSH2 0x386 PUSH2 0x45D CALLDATASIZE PUSH1 0x4 PUSH2 0x1F45 JUMP JUMPDEST PUSH2 0xC64 JUMP JUMPDEST PUSH2 0x475 PUSH2 0x470 CALLDATASIZE PUSH1 0x4 PUSH2 0x1F45 JUMP JUMPDEST PUSH2 0xC85 JUMP JUMPDEST PUSH1 0x40 MLOAD PUSH1 0x1 PUSH1 0x1 PUSH1 0xA0 SHL SUB SWAP1 SWAP2 AND DUP2 MSTORE PUSH1 0x20 ADD PUSH2 0x390 JUMP JUMPDEST PUSH2 0x386 PUSH1 0x3 SLOAD DUP2 JUMP JUMPDEST PUSH2 0x386 PUSH2 0x708 DUP2 JUMP JUMPDEST PUSH2 0x4B2 PUSH2 0x4AD CALLDATASIZE PUSH1 0x4 PUSH2 0x2112 JUMP JUMPDEST PUSH2 0xCAF JUMP JUMPDEST PUSH1 0x40 MLOAD SWAP1 ISZERO ISZERO DUP2 MSTORE PUSH1 0x20 ADD PUSH2 0x390 JUMP JUMPDEST PUSH2 0x386 PUSH1 0xC SLOAD DUP2 JUMP JUMPDEST PUSH2 0x4DE PUSH2 0x4D9 CALLDATASIZE PUSH1 0x4 PUSH2 0x2112 JUMP JUMPDEST PUSH2 0xD1F JUMP JUMPDEST PUSH1 0x40 DUP1 MLOAD SWAP5 DUP6 MSTORE PUSH1 0x20 DUP6 ADD SWAP4 SWAP1 SWAP4 MSTORE SWAP2 DUP4 ADD MSTORE PUSH1 0x60 DUP3 ADD MSTORE PUSH1 0x80 ADD PUSH2 0x390 JUMP JUMPDEST PUSH2 0x3AC PUSH2 0x50C CALLDATASIZE PUSH1 0x4 PUSH2 0x2112 JUMP JUMPDEST PUSH1 0x2 DUP1 SLOAD PUSH1 0x1 PUSH1 0x1 PUSH1 0xA0 SHL SUB SWAP1 SWAP3 AND PUSH2 0x100 MUL PUSH2 0x100 PUSH1 0x1 PUSH1 0xA8 SHL SUB NOT SWAP1 SWAP3 AND SWAP2 SWAP1 SWAP2 OR SWAP1 SSTORE JUMP JUMPDEST PUSH2 0x386 PUSH1 0x7 SLOAD DUP2 JUMP JUMPDEST PUSH2 0x3AC PUSH2 0x54B CALLDATASIZE PUSH1 0x4 PUSH2 0x2112 JUMP JUMPDEST PUSH2 0xD89 JUMP JUMPDEST PUSH2 0x3AC PUSH2 0x55E CALLDATASIZE PUSH1 0x4 PUSH2 0x1F45 JUMP JUMPDEST PUSH1 0xA SSTORE JUMP JUMPDEST PUSH2 0x3AC PUSH2 0x571 CALLDATASIZE PUSH1 0x4 PUSH2 0x212F JUMP JUMPDEST PUSH2 0xD94 JUMP JUMPDEST PUSH2 0x3AC PUSH2 0x584 CALLDATASIZE PUSH1 0x4 PUSH2 0x2112 JUMP JUMPDEST PUSH2 0x770 JUMP JUMPDEST PUSH2 0x386 PUSH2 0x597 CALLDATASIZE PUSH1 0x4 PUSH2 0x219B JUMP JUMPDEST PUSH2 0xE21 JUMP JUMPDEST PUSH2 0x3AC PUSH2 0x5AA CALLDATASIZE PUSH1 0x4 PUSH2 0x1F45 JUMP JUMPDEST PUSH1 0xC SSTORE JUMP JUMPDEST PUSH2 0x3AC PUSH2 0x5BD CALLDATASIZE PUSH1 0x4 PUSH2 0x1F45 JUMP JUMPDEST PUSH1 0x6 SSTORE JUMP JUMPDEST PUSH2 0x4B2 PUSH2 0x5D0 CALLDATASIZE PUSH1 0x4 PUSH2 0x201B JUMP JUMPDEST PUSH2 0xF84 JUMP JUMPDEST PUSH2 0x386 PUSH13 0xC9F2C9CD04674EDEA40000000 DUP2 JUMP JUMPDEST PUSH2 0x386 PUSH2 0x5F7 CALLDATASIZE PUSH1 0x4 PUSH2 0x2112 JUMP JUMPDEST PUSH1 0x13 PUSH1 0x20 MSTORE PUSH1 0x0 SWAP1 DUP2 MSTORE PUSH1 0x40 SWAP1 KECCAK256 SLOAD DUP2 JUMP JUMPDEST PUSH2 0x386 PUSH1 0x0 DUP2 JUMP JUMPDEST PUSH2 0x386 PUSH3 0x989680 DUP2 JUMP JUMPDEST PUSH2 0x386 PUSH2 0x629 CALLDATASIZE PUSH1 0x4 PUSH2 0x2112 JUMP JUMPDEST PUSH1 0xF PUSH1 0x20 MSTORE PUSH1 0x0 SWAP1 DUP2 MSTORE PUSH1 0x40 SWAP1 KECCAK256 SLOAD DUP2 JUMP JUMPDEST PUSH2 0x386 PUSH1 0x8 SLOAD DUP2 JUMP JUMPDEST PUSH1 0x2 SLOAD PUSH2 0x475 SWAP1 PUSH2 0x100 SWAP1 DIV PUSH1 0x1 PUSH1 0x1 PUSH1 0xA0 SHL SUB AND DUP2 JUMP JUMPDEST PUSH2 0x386 PUSH1 0x9 SLOAD DUP2 JUMP JUMPDEST PUSH2 0x3AC PUSH2 0x673 CALLDATASIZE PUSH1 0x4 PUSH2 0x1F45 JUMP JUMPDEST PUSH1 0x7 SSTORE JUMP JUMPDEST PUSH2 0x386 PUSH2 0x686 CALLDATASIZE PUSH1 0x4 PUSH2 0x1F45 JUMP JUMPDEST PUSH2 0xF8D JUMP JUMPDEST PUSH2 0x3AC PUSH2 0x699 CALLDATASIZE PUSH1 0x4 PUSH2 0x20AF JUMP JUMPDEST PUSH2 0xF9D JUMP JUMPDEST PUSH2 0x6EB PUSH2 0x6AC CALLDATASIZE PUSH1 0x4 PUSH2 0x2112 JUMP JUMPDEST PUSH1 0xE PUSH1 0x20 MSTORE PUSH1 0x0 SWAP1 DUP2 MSTORE PUSH1 0x40 SWAP1 KECCAK256 SLOAD PUSH1 0x1 PUSH1 0x1 PUSH1 0xA0 SHL SUB DUP2 AND SWAP1 PUSH4 0xFFFFFFFF PUSH1 0x1 PUSH1 0xA0 SHL DUP3 DIV DUP2 AND SWAP2 PUSH1 0x1 PUSH1 0xC0 SHL DUP2 DIV DUP3 AND SWAP2 PUSH1 0x1 PUSH1 0xE0 SHL SWAP1 SWAP2 DIV AND DUP5 JUMP JUMPDEST PUSH1 0x40 DUP1 MLOAD PUSH1 0x1 PUSH1 0x1 PUSH1 0xA0 SHL SUB SWAP1 SWAP6 AND DUP6 MSTORE PUSH4 0xFFFFFFFF SWAP4 DUP5 AND PUSH1 0x20 DUP7 ADD MSTORE SWAP2 DUP4 AND SWAP2 DUP5 ADD SWAP2 SWAP1 SWAP2 MSTORE AND PUSH1 0x60 DUP3 ADD MSTORE PUSH1 0x80 ADD PUSH2 0x390 JUMP JUMPDEST PUSH2 0x3AC PUSH2 0x72F CALLDATASIZE PUSH1 0x4 PUSH2 0x21D9 JUMP JUMPDEST PUSH1 0x2 DUP1 SLOAD PUSH1 0xFF NOT AND SWAP2 ISZERO ISZERO SWAP2 SWAP1 SWAP2 OR SWAP1 SSTORE JUMP JUMPDEST PUSH2 0x386 PUSH2 0x750 CALLDATASIZE PUSH1 0x4 PUSH2 0x2112 JUMP JUMPDEST PUSH1 0xD PUSH1 0x20 MSTORE PUSH1 0x0 SWAP1 DUP2 MSTORE PUSH1 0x40 SWAP1 KECCAK256 SLOAD DUP2 JUMP JUMPDEST PUSH2 0x3AC PUSH2 0x770 CALLDATASIZE PUSH1 0x4 PUSH2 0x2112 JUMP JUMPDEST POP JUMP JUMPDEST PUSH2 0x3AC PUSH2 0x781 CALLDATASIZE PUSH1 0x4 PUSH2 0x1F45 JUMP JUMPDEST PUSH1 0x9 SSTORE JUMP JUMPDEST PUSH2 0x3AC PUSH2 0x794 CALLDATASIZE PUSH1 0x4 PUSH2 0x1F45 JUMP JUMPDEST PUSH1 0x8 SSTORE JUMP JUMPDEST PUSH2 0x386 PUSH1 0xB SLOAD DUP2 JUMP JUMPDEST PUSH2 0x386 PUSH1 0x6 SLOAD DUP2 JUMP JUMPDEST PUSH2 0x386 PUSH1 0x1 PUSH1 0x1 PUSH1 0xA0 SHL SUB DUP2 JUMP JUMPDEST PUSH2 0x386 PUSH1 0x4 SLOAD DUP2 JUMP JUMPDEST PUSH1 0x2 SLOAD PUSH2 0x4B2 SWAP1 PUSH1 0xFF AND DUP2 JUMP JUMPDEST PUSH2 0x3AC PUSH2 0x7DD CALLDATASIZE PUSH1 0x4 PUSH2 0x2209 JUMP JUMPDEST PUSH2 0x1036 JUMP JUMPDEST PUSH1 0x0 PUSH2 0x7ED DUP3 PUSH2 0x13DE JUMP JUMPDEST SWAP1 POP DUP1 ISZERO PUSH2 0x957 JUMPI PUSH1 0x2 SLOAD PUSH2 0x100 SWAP1 DIV PUSH1 0x1 PUSH1 0x1 PUSH1 0xA0 SHL SUB AND PUSH1 0x0 JUMPDEST DUP5 MLOAD DUP2 LT ISZERO PUSH2 0x954 JUMPI PUSH1 0x0 DUP6 DUP3 DUP2 MLOAD DUP2 LT PUSH2 0x826 JUMPI PUSH2 0x826 PUSH2 0x2329 JUMP JUMPDEST PUSH1 0x20 MUL PUSH1 0x20 ADD ADD MLOAD SWAP1 POP PUSH1 0x0 JUMPDEST PUSH1 0x8 DUP2 LT ISZERO PUSH2 0x93F JUMPI PUSH1 0x0 DUP2 PUSH2 0x84A DUP6 PUSH1 0x8 PUSH2 0x2355 JUMP JUMPDEST PUSH2 0x854 SWAP2 SWAP1 PUSH2 0x236C JUMP JUMPDEST PUSH1 0x10 SLOAD SWAP1 SWAP2 POP DUP2 LT PUSH2 0x86A JUMPI POP POP POP POP POP POP POP POP JUMP JUMPDEST PUSH1 0x0 PUSH2 0x877 DUP4 PUSH1 0x20 PUSH2 0x2355 JUMP JUMPDEST SWAP1 POP DUP4 DUP2 SHR PUSH4 0xFFFFFFFF AND PUSH1 0x0 PUSH1 0x10 DUP6 PUSH2 0x892 DUP10 PUSH1 0x8 PUSH2 0x2355 JUMP JUMPDEST PUSH2 0x89C SWAP2 SWAP1 PUSH2 0x236C JUMP JUMPDEST DUP2 SLOAD DUP2 LT PUSH2 0x8AC JUMPI PUSH2 0x8AC PUSH2 0x2329 JUMP JUMPDEST PUSH1 0x0 SWAP2 DUP3 MSTORE PUSH1 0x20 DUP3 KECCAK256 ADD SLOAD PUSH1 0x1 PUSH1 0x1 PUSH1 0xA0 SHL SUB AND SWAP2 POP PUSH1 0x11 DUP7 PUSH2 0x8D0 DUP11 PUSH1 0x8 PUSH2 0x2355 JUMP JUMPDEST PUSH2 0x8DA SWAP2 SWAP1 PUSH2 0x236C JUMP JUMPDEST DUP2 SLOAD DUP2 LT PUSH2 0x8EA JUMPI PUSH2 0x8EA PUSH2 0x2329 JUMP JUMPDEST PUSH1 0x0 SWAP2 DUP3 MSTORE PUSH1 0x20 DUP3 KECCAK256 ADD SLOAD SWAP2 POP DUP2 PUSH2 0x90F PUSH13 0xC9F2C9CD04674EDEA40000000 DUP7 PUSH2 0x2355 JUMP JUMPDEST PUSH2 0x919 SWAP2 SWAP1 PUSH2 0x237F JUMP JUMPDEST SWAP1 POP PUSH2 0x926 DUP4 DUP3 DUP13 PUSH2 0x1560 JUMP JUMPDEST POP POP POP POP POP POP DUP1 DUP1 PUSH2 0x937 SWAP1 PUSH2 0x23A1 JUMP JUMPDEST SWAP2 POP POP PUSH2 0x833 JUMP JUMPDEST POP POP DUP1 DUP1 PUSH2 0x94C SWAP1 PUSH2 0x23A1 JUMP JUMPDEST SWAP2 POP POP PUSH2 0x809 JUMP JUMPDEST POP POP JUMPDEST POP POP POP JUMP JUMPDEST PUSH1 0x0 SLOAD PUSH2 0x100 SWAP1 DIV PUSH1 0xFF AND ISZERO DUP1 DUP1 ISZERO PUSH2 0x97C JUMPI POP PUSH1 0x0 SLOAD PUSH1 0x1 PUSH1 0xFF SWAP1 SWAP2 AND LT JUMPDEST DUP1 PUSH2 0x996 JUMPI POP ADDRESS EXTCODESIZE ISZERO DUP1 ISZERO PUSH2 0x996 JUMPI POP PUSH1 0x0 SLOAD PUSH1 0xFF AND PUSH1 0x1 EQ JUMPDEST PUSH2 0x9FE JUMPI PUSH1 0x40 MLOAD PUSH3 0x461BCD PUSH1 0xE5 SHL DUP2 MSTORE PUSH1 0x20 PUSH1 0x4 DUP3 ADD MSTORE PUSH1 0x2E PUSH1 0x24 DUP3 ADD MSTORE PUSH32 0x496E697469616C697A61626C653A20636F6E747261637420697320616C726561 PUSH1 0x44 DUP3 ADD MSTORE PUSH14 0x191E481A5B9A5D1A585B1A5E9959 PUSH1 0x92 SHL PUSH1 0x64 DUP3 ADD MSTORE PUSH1 0x84 ADD JUMPDEST PUSH1 0x40 MLOAD DUP1 SWAP2 SUB SWAP1 REVERT JUMPDEST PUSH1 0x0 DUP1 SLOAD PUSH1 0xFF NOT AND PUSH1 0x1 OR SWAP1 SSTORE DUP1 ISZERO PUSH2 0xA21 JUMPI PUSH1 0x0 DUP1 SLOAD PUSH2 0xFF00 NOT AND PUSH2 0x100 OR SWAP1 SSTORE JUMPDEST PUSH2 0xA2A CALLER PUSH2 0x182E JUMP JUMPDEST PUSH2 0x708 DUP10 GT ISZERO PUSH2 0xA8A JUMPI PUSH1 0x40 MLOAD PUSH3 0x461BCD PUSH1 0xE5 SHL DUP2 MSTORE PUSH1 0x20 PUSH1 0x4 DUP3 ADD MSTORE PUSH1 0x25 PUSH1 0x24 DUP3 ADD MSTORE PUSH32 0x466173745072696365466565643A20696E76616C6964205F7072696365447572 PUSH1 0x44 DUP3 ADD MSTORE PUSH5 0x30BA34B7B7 PUSH1 0xD9 SHL PUSH1 0x64 DUP3 ADD MSTORE PUSH1 0x84 ADD PUSH2 0x9F5 JUMP JUMPDEST PUSH1 0x5 DUP10 SWAP1 SSTORE PUSH1 0x6 DUP9 SWAP1 SSTORE PUSH1 0x9 DUP8 SWAP1 SSTORE PUSH1 0xC DUP7 SWAP1 SSTORE PUSH1 0xA DUP6 SWAP1 SSTORE PUSH1 0xB DUP5 SWAP1 SSTORE PUSH1 0x2 DUP1 SLOAD PUSH1 0xFF NOT AND DUP5 ISZERO ISZERO OR SWAP1 SSTORE PUSH1 0x1 PUSH1 0x1 PUSH1 0xA0 SHL SUB DUP3 AND PUSH2 0xAC9 JUMPI PUSH1 0x0 DUP1 REVERT JUMPDEST PUSH1 0x2 DUP1 SLOAD PUSH2 0x100 PUSH1 0x1 PUSH1 0xA8 SHL SUB NOT AND PUSH2 0x100 PUSH1 0x1 PUSH1 0x1 PUSH1 0xA0 SHL SUB DUP6 AND MUL OR SWAP1 SSTORE DUP1 ISZERO PUSH2 0xB2F JUMPI PUSH1 0x0 DUP1 SLOAD PUSH2 0xFF00 NOT AND SWAP1 SSTORE PUSH1 0x40 MLOAD PUSH1 0x1 DUP2 MSTORE PUSH32 0x7F26B83FF96E1F2B6A682F133852F6798A09C465DA95921460CEFB3847402498 SWAP1 PUSH1 0x20 ADD PUSH1 0x40 MLOAD DUP1 SWAP2 SUB SWAP1 LOG1 JUMPDEST POP POP POP POP POP POP POP POP POP JUMP JUMPDEST PUSH2 0x41C DUP3 DUP3 PUSH2 0x1835 JUMP JUMPDEST PUSH32 0x241ECF16D79D0F8DBFB92CBC07FE17840425976CF0667F022FE9877CAA831B08 PUSH2 0x708 DUP3 GT ISZERO PUSH2 0xBC3 JUMPI PUSH1 0x40 MLOAD PUSH3 0x461BCD PUSH1 0xE5 SHL DUP2 MSTORE PUSH1 0x20 PUSH1 0x4 DUP3 ADD MSTORE PUSH1 0x24 DUP1 DUP3 ADD MSTORE PUSH32 0x466173745072696365466565643A20696E76616C696420707269636544757261 PUSH1 0x44 DUP3 ADD MSTORE PUSH4 0x3A34B7B7 PUSH1 0xE1 SHL PUSH1 0x64 DUP3 ADD MSTORE PUSH1 0x84 ADD PUSH2 0x9F5 JUMP JUMPDEST POP PUSH1 0x5 SSTORE JUMP JUMPDEST PUSH32 0x241ECF16D79D0F8DBFB92CBC07FE17840425976CF0667F022FE9877CAA831B08 PUSH1 0x0 JUMPDEST DUP4 MLOAD DUP2 LT ISZERO PUSH2 0xC5E JUMPI PUSH1 0x0 DUP5 DUP3 DUP2 MLOAD DUP2 LT PUSH2 0xC0A JUMPI PUSH2 0xC0A PUSH2 0x2329 JUMP JUMPDEST PUSH1 0x20 MUL PUSH1 0x20 ADD ADD MLOAD SWAP1 POP DUP4 DUP3 DUP2 MLOAD DUP2 LT PUSH2 0xC26 JUMPI PUSH2 0xC26 PUSH2 0x2329 JUMP JUMPDEST PUSH1 0x20 SWAP1 DUP2 MUL SWAP2 SWAP1 SWAP2 ADD DUP2 ADD MLOAD PUSH1 0x1 PUSH1 0x1 PUSH1 0xA0 SHL SUB SWAP1 SWAP3 AND PUSH1 0x0 SWAP1 DUP2 MSTORE PUSH1 0xF SWAP1 SWAP2 MSTORE PUSH1 0x40 SWAP1 KECCAK256 SSTORE DUP1 PUSH2 0xC56 DUP2 PUSH2 0x23A1 JUMP JUMPDEST SWAP2 POP POP PUSH2 0xBED JUMP JUMPDEST POP POP POP POP JUMP JUMPDEST PUSH1 0x11 DUP2 DUP2 SLOAD DUP2 LT PUSH2 0xC74 JUMPI PUSH1 0x0 DUP1 REVERT JUMPDEST PUSH1 0x0 SWAP2 DUP3 MSTORE PUSH1 0x20 SWAP1 SWAP2 KECCAK256 ADD SLOAD SWAP1 POP DUP2 JUMP JUMPDEST PUSH1 0x10 DUP2 DUP2 SLOAD DUP2 LT PUSH2 0xC95 JUMPI PUSH1 0x0 DUP1 REVERT JUMPDEST PUSH1 0x0 SWAP2 DUP3 MSTORE PUSH1 0x20 SWAP1 SWAP2 KECCAK256 ADD SLOAD PUSH1 0x1 PUSH1 0x1 PUSH1 0xA0 SHL SUB AND SWAP1 POP DUP2 JUMP JUMPDEST PUSH1 0x2 SLOAD PUSH1 0x0 SWAP1 PUSH1 0xFF AND ISZERO PUSH2 0xCC5 JUMPI POP PUSH1 0x0 SWAP2 SWAP1 POP JUMP JUMPDEST PUSH1 0x0 DUP1 PUSH2 0xCD1 DUP5 PUSH2 0xD1F JUMP JUMPDEST SWAP4 POP SWAP4 POP POP POP DUP2 DUP2 GT DUP1 ISZERO PUSH2 0xD06 JUMPI POP PUSH1 0x1 PUSH1 0x1 PUSH1 0xA0 SHL SUB DUP5 AND PUSH1 0x0 SWAP1 DUP2 MSTORE PUSH1 0xF PUSH1 0x20 MSTORE PUSH1 0x40 SWAP1 KECCAK256 SLOAD PUSH2 0xD04 DUP4 DUP4 PUSH2 0x23BA JUMP JUMPDEST GT JUMPDEST ISZERO PUSH2 0xD15 JUMPI POP PUSH1 0x0 SWAP4 SWAP3 POP POP POP JUMP JUMPDEST POP PUSH1 0x1 SWAP4 SWAP3 POP POP POP JUMP JUMPDEST PUSH1 0x1 PUSH1 0x1 PUSH1 0xA0 SHL SUB SWAP1 DUP2 AND PUSH1 0x0 SWAP1 DUP2 MSTORE PUSH1 0xE PUSH1 0x20 SWAP1 DUP2 MSTORE PUSH1 0x40 SWAP2 DUP3 SWAP1 KECCAK256 DUP3 MLOAD PUSH1 0x80 DUP2 ADD DUP5 MSTORE SWAP1 SLOAD SWAP4 DUP5 AND DUP1 DUP3 MSTORE PUSH4 0xFFFFFFFF PUSH1 0x1 PUSH1 0xA0 SHL DUP7 DIV DUP2 AND SWAP4 DUP4 ADD DUP5 SWAP1 MSTORE PUSH1 0x1 PUSH1 0xC0 SHL DUP7 DIV DUP2 AND SWAP5 DUP4 ADD DUP6 SWAP1 MSTORE PUSH1 0x1 PUSH1 0xE0 SHL SWAP1 SWAP6 DIV SWAP1 SWAP5 AND PUSH1 0x60 SWAP1 SWAP2 ADD DUP2 SWAP1 MSTORE SWAP3 SWAP4 SWAP1 SWAP3 SWAP1 JUMP JUMPDEST PUSH1 0x0 PUSH2 0x41C PUSH1 0x0 CALLER DUP3 JUMP JUMPDEST PUSH1 0x0 PUSH2 0xD9F DUP3 PUSH2 0x13DE JUMP JUMPDEST SWAP1 POP DUP1 ISZERO PUSH2 0xC5E JUMPI PUSH1 0x2 SLOAD PUSH2 0x100 SWAP1 DIV PUSH1 0x1 PUSH1 0x1 PUSH1 0xA0 SHL SUB AND PUSH1 0x0 JUMPDEST DUP6 MLOAD DUP2 LT ISZERO PUSH2 0xE19 JUMPI PUSH1 0x0 DUP7 DUP3 DUP2 MLOAD DUP2 LT PUSH2 0xDD8 JUMPI PUSH2 0xDD8 PUSH2 0x2329 JUMP JUMPDEST PUSH1 0x20 MUL PUSH1 0x20 ADD ADD MLOAD SWAP1 POP PUSH2 0xE06 DUP2 DUP8 DUP5 DUP2 MLOAD DUP2 LT PUSH2 0xDF8 JUMPI PUSH2 0xDF8 PUSH2 0x2329 JUMP JUMPDEST PUSH1 0x20 MUL PUSH1 0x20 ADD ADD MLOAD DUP6 PUSH2 0x1560 JUMP JUMPDEST POP DUP1 PUSH2 0xE11 DUP2 PUSH2 0x23A1 JUMP JUMPDEST SWAP2 POP POP PUSH2 0xDBB JUMP JUMPDEST POP POP POP POP POP POP JUMP JUMPDEST PUSH1 0x0 PUSH1 0x6 SLOAD PUSH1 0x3 SLOAD PUSH2 0xE33 SWAP2 SWAP1 PUSH2 0x236C JUMP JUMPDEST TIMESTAMP GT ISZERO PUSH2 0xE81 JUMPI DUP2 ISZERO PUSH2 0xE6E JUMPI PUSH2 0x2710 PUSH1 0x8 SLOAD PUSH2 0x2710 PUSH2 0xE53 SWAP2 SWAP1 PUSH2 0x236C JUMP JUMPDEST PUSH2 0xE5D SWAP1 DUP6 PUSH2 0x2355 JUMP JUMPDEST PUSH2 0xE67 SWAP2 SWAP1 PUSH2 0x237F JUMP JUMPDEST SWAP1 POP PUSH2 0xF7D JUMP JUMPDEST PUSH2 0x2710 PUSH1 0x8 SLOAD PUSH2 0x2710 PUSH2 0xE53 SWAP2 SWAP1 PUSH2 0x23BA JUMP JUMPDEST PUSH1 0x5 SLOAD PUSH1 0x3 SLOAD PUSH2 0xE91 SWAP2 SWAP1 PUSH2 0x236C JUMP JUMPDEST TIMESTAMP GT ISZERO PUSH2 0xEC4 JUMPI DUP2 ISZERO PUSH2 0xEB1 JUMPI PUSH2 0x2710 PUSH1 0x7 SLOAD PUSH2 0x2710 PUSH2 0xE53 SWAP2 SWAP1 PUSH2 0x236C JUMP JUMPDEST PUSH2 0x2710 PUSH1 0x7 SLOAD PUSH2 0x2710 PUSH2 0xE53 SWAP2 SWAP1 PUSH2 0x23BA JUMP JUMPDEST PUSH1 0x1 PUSH1 0x1 PUSH1 0xA0 SHL SUB DUP5 AND PUSH1 0x0 SWAP1 DUP2 MSTORE PUSH1 0xD PUSH1 0x20 MSTORE PUSH1 0x40 DUP2 KECCAK256 SLOAD SWAP1 DUP2 SWAP1 SUB PUSH2 0xEEE JUMPI DUP4 SWAP2 POP POP PUSH2 0xF7D JUMP JUMPDEST PUSH1 0x0 DUP2 DUP6 GT PUSH2 0xF06 JUMPI PUSH2 0xF01 DUP6 DUP4 PUSH2 0x23BA JUMP JUMPDEST PUSH2 0xF10 JUMP JUMPDEST PUSH2 0xF10 DUP3 DUP7 PUSH2 0x23BA JUMP JUMPDEST SWAP1 POP DUP5 PUSH2 0xF1F PUSH2 0x2710 DUP4 PUSH2 0x2355 JUMP JUMPDEST PUSH2 0xF29 SWAP2 SWAP1 PUSH2 0x237F JUMP JUMPDEST SWAP1 POP PUSH1 0x0 PUSH2 0xF36 DUP8 PUSH2 0xCAF JUMP JUMPDEST ISZERO DUP1 PUSH2 0xF43 JUMPI POP PUSH1 0xC SLOAD DUP3 GT JUMPDEST SWAP1 POP DUP1 ISZERO PUSH2 0xF77 JUMPI DUP5 ISZERO PUSH2 0xF6A JUMPI DUP3 DUP7 GT PUSH2 0xF5E JUMPI DUP3 PUSH2 0xF60 JUMP JUMPDEST DUP6 JUMPDEST SWAP4 POP POP POP POP PUSH2 0xF7D JUMP JUMPDEST DUP3 DUP7 LT PUSH2 0xF5E JUMPI DUP3 PUSH2 0xF60 JUMP JUMPDEST POP SWAP1 SWAP2 POP POP JUMPDEST SWAP4 SWAP3 POP POP POP JUMP JUMPDEST PUSH1 0x1 JUMPDEST SWAP3 SWAP2 POP POP JUMP JUMPDEST PUSH1 0x12 DUP2 DUP2 SLOAD DUP2 LT PUSH2 0xC74 JUMPI PUSH1 0x0 DUP1 REVERT JUMPDEST PUSH32 0x241ECF16D79D0F8DBFB92CBC07FE17840425976CF0667F022FE9877CAA831B08 DUP2 MLOAD DUP4 MLOAD EQ PUSH2 0x100F JUMPI PUSH1 0x40 MLOAD PUSH3 0x461BCD PUSH1 0xE5 SHL DUP2 MSTORE PUSH1 0x20 PUSH1 0x4 DUP3 ADD MSTORE PUSH1 0x1E PUSH1 0x24 DUP3 ADD MSTORE PUSH32 0x466173745072696365466565643A20696E76616C6964206C656E677468730000 PUSH1 0x44 DUP3 ADD MSTORE PUSH1 0x64 ADD PUSH2 0x9F5 JUMP JUMPDEST DUP3 MLOAD PUSH2 0x1022 SWAP1 PUSH1 0x10 SWAP1 PUSH1 0x20 DUP7 ADD SWAP1 PUSH2 0x1D2D JUMP JUMPDEST POP DUP2 MLOAD PUSH2 0xC5E SWAP1 PUSH1 0x11 SWAP1 PUSH1 0x20 DUP6 ADD SWAP1 PUSH2 0x1D92 JUMP JUMPDEST PUSH2 0x103F DUP3 PUSH2 0x13DE JUMP JUMPDEST POP PUSH2 0x1060 DUP5 DUP5 PUSH1 0x2 PUSH1 0x1 SWAP1 SLOAD SWAP1 PUSH2 0x100 EXP SWAP1 DIV PUSH1 0x1 PUSH1 0x1 PUSH1 0xA0 SHL SUB AND PUSH2 0x1560 JUMP JUMPDEST PUSH1 0x0 JUMPDEST DUP2 MLOAD DUP2 LT ISZERO PUSH2 0x954 JUMPI PUSH1 0x0 DUP3 DUP3 DUP2 MLOAD DUP2 LT PUSH2 0x1080 JUMPI PUSH2 0x1080 PUSH2 0x2329 JUMP JUMPDEST PUSH1 0x20 MUL PUSH1 0x20 ADD ADD MLOAD PUSH1 0x0 ADD MLOAD SWAP1 POP PUSH1 0x0 DUP2 PUSH1 0x1 PUSH1 0x1 PUSH1 0xA0 SHL SUB AND PUSH4 0xA2640454 DUP6 DUP6 DUP2 MLOAD DUP2 LT PUSH2 0x10B1 JUMPI PUSH2 0x10B1 PUSH2 0x2329 JUMP JUMPDEST PUSH1 0x20 MUL PUSH1 0x20 ADD ADD MLOAD PUSH1 0x80 ADD MLOAD DUP7 DUP7 DUP2 MLOAD DUP2 LT PUSH2 0x10CF JUMPI PUSH2 0x10CF PUSH2 0x2329 JUMP JUMPDEST PUSH1 0x20 MUL PUSH1 0x20 ADD ADD MLOAD PUSH1 0x60 ADD MLOAD PUSH1 0x40 MLOAD DUP4 PUSH4 0xFFFFFFFF AND PUSH1 0xE0 SHL DUP2 MSTORE PUSH1 0x4 ADD PUSH2 0x1105 SWAP3 SWAP2 SWAP1 SWAP2 ISZERO ISZERO DUP3 MSTORE ISZERO ISZERO PUSH1 0x20 DUP3 ADD MSTORE PUSH1 0x40 ADD SWAP1 JUMP JUMPDEST PUSH1 0x20 PUSH1 0x40 MLOAD DUP1 DUP4 SUB DUP2 DUP7 GAS STATICCALL ISZERO DUP1 ISZERO PUSH2 0x1122 JUMPI RETURNDATASIZE PUSH1 0x0 DUP1 RETURNDATACOPY RETURNDATASIZE PUSH1 0x0 REVERT JUMPDEST POP POP POP POP PUSH1 0x40 MLOAD RETURNDATASIZE PUSH1 0x1F NOT PUSH1 0x1F DUP3 ADD AND DUP3 ADD DUP1 PUSH1 0x40 MSTORE POP DUP2 ADD SWAP1 PUSH2 0x1146 SWAP2 SWAP1 PUSH2 0x23CD JUMP JUMPDEST SWAP1 POP PUSH1 0x0 PUSH2 0x11D5 DUP6 DUP6 DUP2 MLOAD DUP2 LT PUSH2 0x115F JUMPI PUSH2 0x115F PUSH2 0x2329 JUMP JUMPDEST PUSH1 0x20 MUL PUSH1 0x20 ADD ADD MLOAD PUSH1 0x20 ADD MLOAD DUP7 DUP7 DUP2 MLOAD DUP2 LT PUSH2 0x117D JUMPI PUSH2 0x117D PUSH2 0x2329 JUMP JUMPDEST PUSH1 0x20 SWAP1 DUP2 MUL SWAP2 SWAP1 SWAP2 ADD DUP2 ADD MLOAD PUSH1 0x40 SWAP1 DUP2 ADD MLOAD DUP2 MLOAD PUSH1 0x60 SWAP5 SWAP1 SWAP5 SHL PUSH12 0xFFFFFFFFFFFFFFFFFFFFFFFF NOT AND DUP5 DUP5 ADD MSTORE PUSH1 0xC0 SHL PUSH1 0x1 PUSH1 0x1 PUSH1 0xC0 SHL SUB NOT AND PUSH1 0x34 DUP5 ADD MSTORE DUP1 MLOAD PUSH1 0x1C DUP2 DUP6 SUB ADD DUP2 MSTORE PUSH1 0x3C SWAP1 SWAP4 ADD SWAP1 MSTORE DUP2 MLOAD SWAP2 ADD KECCAK256 SWAP1 JUMP JUMPDEST PUSH1 0x40 MLOAD PUSH4 0x9C3F1E9 PUSH1 0xE4 SHL DUP2 MSTORE PUSH1 0x4 DUP2 ADD DUP3 SWAP1 MSTORE SWAP1 SWAP2 POP PUSH1 0x0 SWAP1 PUSH1 0x1 PUSH1 0x1 PUSH1 0xA0 SHL SUB DUP5 AND SWAP1 PUSH4 0x9C3F1E90 SWAP1 PUSH1 0x24 ADD PUSH2 0x1A0 PUSH1 0x40 MLOAD DUP1 DUP4 SUB DUP2 DUP7 GAS STATICCALL ISZERO DUP1 ISZERO PUSH2 0x1221 JUMPI RETURNDATASIZE PUSH1 0x0 DUP1 RETURNDATACOPY RETURNDATASIZE PUSH1 0x0 REVERT JUMPDEST POP POP POP POP PUSH1 0x40 MLOAD RETURNDATASIZE PUSH1 0x1F NOT PUSH1 0x1F DUP3 ADD AND DUP3 ADD DUP1 PUSH1 0x40 MSTORE POP DUP2 ADD SWAP1 PUSH2 0x1245 SWAP2 SWAP1 PUSH2 0x2452 JUMP JUMPDEST PUSH1 0x40 DUP1 MLOAD PUSH2 0x1E0 DUP2 ADD DUP3 MSTORE PUSH1 0x0 DUP1 DUP3 MSTORE PUSH1 0x20 DUP3 ADD DUP2 SWAP1 MSTORE SWAP2 DUP2 ADD DUP3 SWAP1 MSTORE PUSH1 0x60 DUP1 DUP3 ADD DUP4 SWAP1 MSTORE PUSH1 0x80 DUP3 ADD DUP4 SWAP1 MSTORE PUSH1 0xA0 DUP3 ADD DUP4 SWAP1 MSTORE PUSH1 0xC0 DUP3 ADD DUP4 SWAP1 MSTORE PUSH1 0xE0 DUP3 ADD DUP4 SWAP1 MSTORE PUSH2 0x100 DUP3 ADD DUP4 SWAP1 MSTORE PUSH2 0x120 DUP3 ADD DUP4 SWAP1 MSTORE PUSH2 0x140 DUP3 ADD DUP4 SWAP1 MSTORE PUSH2 0x160 DUP3 ADD DUP4 SWAP1 MSTORE PUSH2 0x180 DUP3 ADD DUP4 SWAP1 MSTORE PUSH2 0x1A0 DUP3 ADD SWAP3 SWAP1 SWAP3 MSTORE PUSH2 0x1C0 DUP2 ADD SWAP2 SWAP1 SWAP2 MSTORE SWAP1 SWAP2 POP PUSH2 0x12F3 DUP8 DUP8 DUP2 MLOAD DUP2 LT PUSH2 0x12D8 JUMPI PUSH2 0x12D8 PUSH2 0x2329 JUMP JUMPDEST PUSH1 0x20 MUL PUSH1 0x20 ADD ADD MLOAD PUSH1 0x60 ADD MLOAD DUP3 PUSH2 0x192C SWAP1 SWAP2 SWAP1 PUSH4 0xFFFFFFFF AND JUMP JUMPDEST PUSH2 0x1366 DUP3 DUP9 DUP9 DUP2 MLOAD DUP2 LT PUSH2 0x1309 JUMPI PUSH2 0x1309 PUSH2 0x2329 JUMP JUMPDEST PUSH1 0x20 MUL PUSH1 0x20 ADD ADD MLOAD PUSH1 0x0 ADD MLOAD DUP10 DUP10 DUP2 MLOAD DUP2 LT PUSH2 0x1327 JUMPI PUSH2 0x1327 PUSH2 0x2329 JUMP JUMPDEST PUSH1 0x20 MUL PUSH1 0x20 ADD ADD MLOAD PUSH1 0x80 ADD MLOAD DUP11 DUP11 DUP2 MLOAD DUP2 LT PUSH2 0x1345 JUMPI PUSH2 0x1345 PUSH2 0x2329 JUMP JUMPDEST PUSH1 0x20 MUL PUSH1 0x20 ADD ADD MLOAD PUSH1 0x60 ADD MLOAD PUSH1 0x1 DUP7 PUSH2 0x195A SWAP1 SWAP6 SWAP5 SWAP4 SWAP3 SWAP2 SWAP1 PUSH4 0xFFFFFFFF AND JUMP JUMPDEST PUSH1 0x40 MLOAD PUSH4 0x4B789DB PUSH1 0xE2 SHL DUP2 MSTORE PUSH1 0x1 PUSH1 0x1 PUSH1 0xA0 SHL SUB DUP7 AND SWAP1 PUSH4 0x12DE276C SWAP1 PUSH2 0x1394 SWAP1 DUP6 SWAP1 DUP6 SWAP1 PUSH1 0x4 ADD PUSH2 0x2687 JUMP JUMPDEST PUSH1 0x0 PUSH1 0x40 MLOAD DUP1 DUP4 SUB DUP2 PUSH1 0x0 DUP8 DUP1 EXTCODESIZE ISZERO DUP1 ISZERO PUSH2 0x13AE JUMPI PUSH1 0x0 DUP1 REVERT JUMPDEST POP GAS CALL ISZERO DUP1 ISZERO PUSH2 0x13C2 JUMPI RETURNDATASIZE PUSH1 0x0 DUP1 RETURNDATACOPY RETURNDATASIZE PUSH1 0x0 REVERT JUMPDEST POP POP POP POP POP POP POP POP POP DUP1 DUP1 PUSH2 0x13D6 SWAP1 PUSH2 0x23A1 JUMP JUMPDEST SWAP2 POP POP PUSH2 0x1063 JUMP JUMPDEST PUSH1 0x9 SLOAD PUSH1 0x0 SWAP1 ISZERO PUSH2 0x145E JUMPI PUSH1 0x9 SLOAD PUSH1 0x4 SLOAD PUSH2 0x13F9 SWAP1 NUMBER PUSH2 0x23BA JUMP JUMPDEST LT ISZERO PUSH2 0x145E JUMPI PUSH1 0x40 MLOAD PUSH3 0x461BCD PUSH1 0xE5 SHL DUP2 MSTORE PUSH1 0x20 PUSH1 0x4 DUP3 ADD MSTORE PUSH1 0x2E PUSH1 0x24 DUP3 ADD MSTORE PUSH32 0x466173745072696365466565643A206D696E426C6F636B496E74657276616C20 PUSH1 0x44 DUP3 ADD MSTORE PUSH14 0x1B9BDD081E595D081C185CDCD959 PUSH1 0x92 SHL PUSH1 0x64 DUP3 ADD MSTORE PUSH1 0x84 ADD PUSH2 0x9F5 JUMP JUMPDEST PUSH1 0xA SLOAD PUSH2 0x146B DUP2 TIMESTAMP PUSH2 0x23BA JUMP JUMPDEST DUP4 GT PUSH2 0x14CF JUMPI PUSH1 0x40 MLOAD PUSH3 0x461BCD PUSH1 0xE5 SHL DUP2 MSTORE PUSH1 0x20 PUSH1 0x4 DUP3 ADD MSTORE PUSH1 0x2D PUSH1 0x24 DUP3 ADD MSTORE PUSH32 0x466173745072696365466565643A205F74696D657374616D702062656C6F7720 PUSH1 0x44 DUP3 ADD MSTORE PUSH13 0x616C6C6F7765642072616E6765 PUSH1 0x98 SHL PUSH1 0x64 DUP3 ADD MSTORE PUSH1 0x84 ADD PUSH2 0x9F5 JUMP JUMPDEST PUSH2 0x14D9 DUP2 TIMESTAMP PUSH2 0x236C JUMP JUMPDEST DUP4 LT PUSH2 0x153F JUMPI PUSH1 0x40 MLOAD PUSH3 0x461BCD PUSH1 0xE5 SHL DUP2 MSTORE PUSH1 0x20 PUSH1 0x4 DUP3 ADD MSTORE PUSH1 0x2F PUSH1 0x24 DUP3 ADD MSTORE PUSH32 0x466173745072696365466565643A205F74696D657374616D7020657863656564 PUSH1 0x44 DUP3 ADD MSTORE PUSH15 0x7320616C6C6F7765642072616E6765 PUSH1 0x88 SHL PUSH1 0x64 DUP3 ADD MSTORE PUSH1 0x84 ADD PUSH2 0x9F5 JUMP JUMPDEST PUSH1 0x3 SLOAD DUP4 LT ISZERO PUSH2 0x1552 JUMPI POP PUSH1 0x0 SWAP3 SWAP2 POP POP JUMP JUMPDEST POP POP PUSH1 0x3 SSTORE NUMBER PUSH1 0x4 SSTORE PUSH1 0x1 SWAP1 JUMP JUMPDEST PUSH1 0x1 PUSH1 0x1 PUSH1 0xA0 SHL SUB DUP2 AND ISZERO PUSH2 0x17CA JUMPI PUSH1 0x40 MLOAD PUSH4 0x2C68BE3 PUSH1 0xE3 SHL DUP2 MSTORE PUSH1 0x1 PUSH1 0x1 PUSH1 0xA0 SHL SUB DUP5 DUP2 AND PUSH1 0x4 DUP4 ADD MSTORE PUSH1 0x0 SWAP2 SWAP1 DUP4 AND SWAP1 PUSH4 0x16345F18 SWAP1 PUSH1 0x24 ADD PUSH1 0x20 PUSH1 0x40 MLOAD DUP1 DUP4 SUB DUP2 DUP7 GAS STATICCALL ISZERO DUP1 ISZERO PUSH2 0x15B9 JUMPI RETURNDATASIZE PUSH1 0x0 DUP1 RETURNDATACOPY RETURNDATASIZE PUSH1 0x0 REVERT JUMPDEST POP POP POP POP PUSH1 0x40 MLOAD RETURNDATASIZE PUSH1 0x1F NOT PUSH1 0x1F DUP3 ADD AND DUP3 ADD DUP1 PUSH1 0x40 MSTORE POP DUP2 ADD SWAP1 PUSH2 0x15DD SWAP2 SWAP1 PUSH2 0x27CA JUMP JUMPDEST PUSH1 0x1 PUSH1 0x1 PUSH1 0xA0 SHL SUB DUP6 AND PUSH1 0x0 SWAP1 DUP2 MSTORE PUSH1 0xD PUSH1 0x20 MSTORE PUSH1 0x40 DUP2 KECCAK256 SLOAD SWAP2 SWAP3 POP DUP1 DUP1 DUP1 PUSH2 0x1605 DUP10 PUSH2 0xD1F JUMP JUMPDEST SWAP4 POP SWAP4 POP SWAP4 POP SWAP4 POP PUSH1 0x0 DUP5 GT ISZERO PUSH2 0x16D2 JUMPI PUSH1 0x0 DUP5 DUP8 GT PUSH2 0x162E JUMPI PUSH2 0x1629 DUP8 DUP7 PUSH2 0x23BA JUMP JUMPDEST PUSH2 0x1638 JUMP JUMPDEST PUSH2 0x1638 DUP6 DUP9 PUSH2 0x23BA JUMP JUMPDEST SWAP1 POP PUSH1 0x0 DUP10 DUP8 GT PUSH2 0x1652 JUMPI PUSH2 0x164D DUP8 DUP12 PUSH2 0x23BA JUMP JUMPDEST PUSH2 0x165C JUMP JUMPDEST PUSH2 0x165C DUP11 DUP9 PUSH2 0x23BA JUMP JUMPDEST SWAP1 POP PUSH1 0xB SLOAD TIMESTAMP PUSH2 0x166C SWAP2 SWAP1 PUSH2 0x237F JUMP JUMPDEST PUSH1 0xB SLOAD PUSH2 0x1679 SWAP1 DUP8 PUSH2 0x237F JUMP JUMPDEST EQ PUSH2 0x1687 JUMPI PUSH1 0x0 SWAP4 POP PUSH1 0x0 SWAP3 POP JUMPDEST DUP6 PUSH2 0x1695 PUSH3 0x989680 DUP5 PUSH2 0x2355 JUMP JUMPDEST PUSH2 0x169F SWAP2 SWAP1 PUSH2 0x237F JUMP JUMPDEST PUSH2 0x16A9 SWAP1 DUP6 PUSH2 0x236C JUMP JUMPDEST SWAP4 POP DUP7 PUSH2 0x16B9 PUSH3 0x989680 DUP4 PUSH2 0x2355 JUMP JUMPDEST PUSH2 0x16C3 SWAP2 SWAP1 PUSH2 0x237F JUMP JUMPDEST PUSH2 0x16CD SWAP1 DUP5 PUSH2 0x236C JUMP JUMPDEST SWAP3 POP POP POP JUMPDEST DUP2 DUP2 GT DUP1 ISZERO PUSH2 0x1701 JUMPI POP PUSH1 0x1 PUSH1 0x1 PUSH1 0xA0 SHL SUB DUP10 AND PUSH1 0x0 SWAP1 DUP2 MSTORE PUSH1 0xF PUSH1 0x20 MSTORE PUSH1 0x40 SWAP1 KECCAK256 SLOAD PUSH2 0x16FF DUP4 DUP4 PUSH2 0x23BA JUMP JUMPDEST GT JUMPDEST ISZERO PUSH2 0x175F JUMPI PUSH1 0x40 DUP1 MLOAD PUSH1 0x1 PUSH1 0x1 PUSH1 0xA0 SHL SUB DUP12 AND DUP2 MSTORE PUSH1 0x20 DUP2 ADD DUP9 SWAP1 MSTORE SWAP1 DUP2 ADD DUP7 SWAP1 MSTORE PUSH1 0x60 DUP2 ADD DUP4 SWAP1 MSTORE PUSH1 0x80 DUP2 ADD DUP3 SWAP1 MSTORE PUSH32 0xE582322B389AD06B2BBF619CD6DA3F16A288EC873EA0FA6DF4D72F3D9480B447 SWAP1 PUSH1 0xA0 ADD PUSH1 0x40 MLOAD DUP1 SWAP2 SUB SWAP1 LOG1 JUMPDEST PUSH2 0x176B DUP10 DUP8 DUP5 DUP5 PUSH2 0x1A96 JUMP JUMPDEST PUSH1 0x40 DUP1 MLOAD PUSH1 0x1 PUSH1 0x1 PUSH1 0xA0 SHL SUB DUP12 AND DUP2 MSTORE PUSH1 0x20 DUP2 ADD DUP9 SWAP1 MSTORE SWAP1 DUP2 ADD DUP7 SWAP1 MSTORE PUSH1 0x60 DUP2 ADD DUP4 SWAP1 MSTORE PUSH1 0x80 DUP2 ADD DUP3 SWAP1 MSTORE PUSH32 0x23B9387F81FCA646AAC1DC4487EDE045C65F5F7445482906565F01E05AFDB3A8 SWAP1 PUSH1 0xA0 ADD PUSH1 0x40 MLOAD DUP1 SWAP2 SUB SWAP1 LOG1 POP POP POP POP POP POP JUMPDEST PUSH1 0x1 PUSH1 0x1 PUSH1 0xA0 SHL SUB DUP4 AND PUSH1 0x0 DUP2 DUP2 MSTORE PUSH1 0x13 PUSH1 0x20 SWAP1 DUP2 MSTORE PUSH1 0x40 DUP1 DUP4 KECCAK256 TIMESTAMP SWAP1 SSTORE PUSH1 0xD DUP3 MSTORE SWAP2 DUP3 SWAP1 KECCAK256 DUP6 SWAP1 SSTORE DUP2 MLOAD CALLER DUP2 MSTORE SWAP1 DUP2 ADD DUP6 SWAP1 MSTORE PUSH32 0x769C880B4ECAF9FF271685D367FA4E4D091BAB5879CF19C9AB777391E44F1C0F SWAP2 ADD PUSH1 0x40 MLOAD DUP1 SWAP2 SUB SWAP1 LOG2 POP POP POP JUMP JUMPDEST TIMESTAMP PUSH1 0x1 SSTORE POP JUMP JUMPDEST PUSH1 0x0 PUSH2 0x1840 DUP3 PUSH2 0x13DE JUMP JUMPDEST SWAP1 POP DUP1 ISZERO PUSH2 0x957 JUMPI PUSH1 0x2 SLOAD PUSH2 0x100 SWAP1 DIV PUSH1 0x1 PUSH1 0x1 PUSH1 0xA0 SHL SUB AND PUSH1 0x0 JUMPDEST PUSH1 0x8 DUP2 LT ISZERO PUSH2 0x954 JUMPI PUSH1 0x10 SLOAD DUP2 SWAP1 DUP2 LT PUSH2 0x1878 JUMPI POP POP POP POP POP POP JUMP JUMPDEST PUSH1 0x0 PUSH2 0x1885 DUP4 PUSH1 0x20 PUSH2 0x2355 JUMP JUMPDEST PUSH1 0x10 DUP1 SLOAD SWAP2 SWAP3 POP DUP9 DUP4 SHR PUSH4 0xFFFFFFFF AND SWAP2 PUSH1 0x0 SWAP2 SWAP1 DUP7 SWAP1 DUP2 LT PUSH2 0x18AA JUMPI PUSH2 0x18AA PUSH2 0x2329 JUMP JUMPDEST PUSH1 0x0 SWAP2 DUP3 MSTORE PUSH1 0x20 DUP3 KECCAK256 ADD SLOAD PUSH1 0x11 DUP1 SLOAD PUSH1 0x1 PUSH1 0x1 PUSH1 0xA0 SHL SUB SWAP1 SWAP3 AND SWAP4 POP SWAP1 DUP8 SWAP1 DUP2 LT PUSH2 0x18D7 JUMPI PUSH2 0x18D7 PUSH2 0x2329 JUMP JUMPDEST PUSH1 0x0 SWAP2 DUP3 MSTORE PUSH1 0x20 DUP3 KECCAK256 ADD SLOAD SWAP2 POP DUP2 PUSH2 0x18FC PUSH13 0xC9F2C9CD04674EDEA40000000 DUP7 PUSH2 0x2355 JUMP JUMPDEST PUSH2 0x1906 SWAP2 SWAP1 PUSH2 0x237F JUMP JUMPDEST SWAP1 POP PUSH2 0x1913 DUP4 DUP3 DUP11 PUSH2 0x1560 JUMP JUMPDEST POP POP POP POP POP POP DUP1 DUP1 PUSH2 0x1924 SWAP1 PUSH2 0x23A1 JUMP JUMPDEST SWAP2 POP POP PUSH2 0x185C JUMP JUMPDEST PUSH1 0x40 DUP1 MLOAD PUSH1 0x4 DUP1 DUP3 MSTORE PUSH1 0xA0 DUP3 ADD SWAP1 SWAP3 MSTORE SWAP1 PUSH1 0x20 DUP3 ADD PUSH1 0x80 DUP1 CALLDATASIZE DUP4 CALLDATACOPY POP POP POP PUSH2 0x1C0 DUP4 ADD MSTORE ISZERO ISZERO PUSH1 0x60 SWAP1 SWAP2 ADD MSTORE JUMP JUMPDEST PUSH1 0x1 PUSH1 0x1 PUSH1 0xA0 SHL SUB DUP1 DUP6 AND DUP8 MSTORE DUP4 ISZERO ISZERO PUSH1 0x20 DUP9 ADD MSTORE PUSH1 0xC0 DUP1 DUP8 ADD MLOAD PUSH1 0x1 PUSH1 0x1 PUSH1 0x80 SHL SUB SWAP1 DUP2 AND PUSH1 0xA0 DUP1 DUP12 ADD SWAP2 SWAP1 SWAP2 MSTORE PUSH1 0xE0 DUP10 ADD MLOAD DUP3 AND SWAP3 DUP11 ADD SWAP3 SWAP1 SWAP3 MSTORE PUSH2 0x180 DUP1 DUP10 ADD MLOAD PUSH2 0x160 DUP12 ADD MSTORE DUP5 ISZERO ISZERO PUSH2 0x100 DUP12 ADD MSTORE PUSH2 0x120 DUP10 ADD MLOAD PUSH1 0x1 PUSH1 0x1 PUSH1 0x40 SHL SUB AND PUSH2 0x140 DUP12 ADD MSTORE PUSH1 0x60 DUP10 ADD MLOAD SWAP1 SWAP4 AND PUSH1 0x80 DUP11 ADD MSTORE SWAP1 DUP8 ADD MLOAD AND SWAP1 DUP8 ADD MSTORE DUP2 ISZERO PUSH2 0x1A55 JUMPI PUSH2 0x19FD PUSH2 0x19F6 DUP7 PUSH2 0x100 ADD MLOAD PUSH1 0x1 PUSH1 0x1 PUSH1 0x80 SHL SUB AND SWAP1 JUMP JUMPDEST DUP8 SWAP1 PUSH2 0x1C58 JUMP JUMPDEST PUSH2 0x1A1C PUSH2 0x1A15 DUP7 PUSH2 0x160 ADD MLOAD PUSH1 0x1 PUSH1 0x1 PUSH1 0x80 SHL SUB AND SWAP1 JUMP JUMPDEST DUP8 SWAP1 PUSH2 0x1C81 JUMP JUMPDEST PUSH2 0x1A37 PUSH2 0x1A30 DUP7 PUSH2 0x140 ADD MLOAD PUSH1 0xF AND ISZERO ISZERO SWAP1 JUMP JUMPDEST DUP8 SWAP1 PUSH2 0x1C9A JUMP JUMPDEST PUSH2 0x140 DUP6 ADD MLOAD PUSH2 0x1A50 SWAP1 PUSH1 0x4 SHR PUSH1 0xF AND ISZERO ISZERO DUP8 SWAP1 PUSH2 0x1CC4 JUMP JUMPDEST PUSH2 0xE19 JUMP JUMPDEST PUSH2 0x1A74 PUSH2 0x1A6D DUP7 PUSH1 0x80 ADD MLOAD PUSH6 0xFFFFFFFFFFFF AND ISZERO ISZERO SWAP1 JUMP JUMPDEST DUP8 SWAP1 PUSH2 0x1CEE JUMP JUMPDEST POP PUSH1 0x80 DUP6 ADD MLOAD PUSH6 0xFFFFFFFFFFFF AND PUSH2 0xE19 JUMPI PUSH1 0x0 PUSH2 0x180 DUP8 ADD MSTORE POP POP POP POP POP POP JUMP JUMPDEST PUSH1 0x1 PUSH1 0x1 PUSH1 0xA0 SHL SUB DUP4 LT PUSH2 0x1AEC JUMPI PUSH1 0x40 MLOAD PUSH3 0x461BCD PUSH1 0xE5 SHL DUP2 MSTORE PUSH1 0x20 PUSH1 0x4 DUP3 ADD MSTORE PUSH1 0x1F PUSH1 0x24 DUP3 ADD MSTORE PUSH32 0x466173745072696365466565643A20696E76616C696420726566507269636500 PUSH1 0x44 DUP3 ADD MSTORE PUSH1 0x64 ADD PUSH2 0x9F5 JUMP JUMPDEST PUSH4 0xFFFFFFFF DUP3 LT PUSH2 0x1B51 JUMPI PUSH1 0x40 MLOAD PUSH3 0x461BCD PUSH1 0xE5 SHL DUP2 MSTORE PUSH1 0x20 PUSH1 0x4 DUP3 ADD MSTORE PUSH1 0x29 PUSH1 0x24 DUP3 ADD MSTORE PUSH32 0x466173745072696365466565643A20696E76616C69642063756D756C61746976 PUSH1 0x44 DUP3 ADD MSTORE PUSH9 0x6552656644656C7461 PUSH1 0xB8 SHL PUSH1 0x64 DUP3 ADD MSTORE PUSH1 0x84 ADD PUSH2 0x9F5 JUMP JUMPDEST PUSH4 0xFFFFFFFF DUP2 LT PUSH2 0x1BB7 JUMPI PUSH1 0x40 MLOAD PUSH3 0x461BCD PUSH1 0xE5 SHL DUP2 MSTORE PUSH1 0x20 PUSH1 0x4 DUP3 ADD MSTORE PUSH1 0x2A PUSH1 0x24 DUP3 ADD MSTORE PUSH32 0x466173745072696365466565643A20696E76616C69642063756D756C61746976 PUSH1 0x44 DUP3 ADD MSTORE PUSH10 0x654661737444656C7461 PUSH1 0xB0 SHL PUSH1 0x64 DUP3 ADD MSTORE PUSH1 0x84 ADD PUSH2 0x9F5 JUMP JUMPDEST PUSH1 0x40 DUP1 MLOAD PUSH1 0x80 DUP2 ADD DUP3 MSTORE PUSH1 0x1 PUSH1 0x1 PUSH1 0xA0 SHL SUB SWAP5 DUP6 AND DUP2 MSTORE PUSH4 0xFFFFFFFF TIMESTAMP DUP2 AND PUSH1 0x20 DUP1 DUP5 ADD SWAP2 DUP3 MSTORE SWAP6 DUP3 AND DUP4 DUP6 ADD SWAP1 DUP2 MSTORE SWAP5 DUP3 AND PUSH1 0x60 DUP5 ADD SWAP1 DUP2 MSTORE SWAP8 DUP8 AND PUSH1 0x0 SWAP1 DUP2 MSTORE PUSH1 0xE SWAP1 SWAP7 MSTORE SWAP3 SWAP1 SWAP5 KECCAK256 SWAP1 MLOAD DUP2 SLOAD SWAP3 MLOAD SWAP4 MLOAD SWAP7 MLOAD DUP6 AND PUSH1 0x1 PUSH1 0xE0 SHL MUL PUSH1 0x1 PUSH1 0x1 PUSH1 0xE0 SHL SUB SWAP8 DUP7 AND PUSH1 0x1 PUSH1 0xC0 SHL MUL SWAP8 SWAP1 SWAP8 AND PUSH1 0x1 PUSH1 0x1 PUSH1 0xC0 SHL SUB SWAP5 SWAP1 SWAP6 AND PUSH1 0x1 PUSH1 0xA0 SHL MUL PUSH1 0x1 PUSH1 0x1 PUSH1 0xC0 SHL SUB NOT SWAP1 SWAP4 AND SWAP6 AND SWAP5 SWAP1 SWAP5 OR OR AND OR SWAP2 SWAP1 SWAP2 OR SWAP1 SSTORE JUMP JUMPDEST DUP1 DUP3 PUSH2 0x1C0 ADD MLOAD PUSH1 0x0 DUP2 MLOAD DUP2 LT PUSH2 0x1C71 JUMPI PUSH2 0x1C71 PUSH2 0x2329 JUMP JUMPDEST PUSH1 0x20 MUL PUSH1 0x20 ADD ADD DUP2 DUP2 MSTORE POP POP POP POP JUMP JUMPDEST DUP1 DUP3 PUSH2 0x1C0 ADD MLOAD PUSH1 0x1 DUP2 MLOAD DUP2 LT PUSH2 0x1C71 JUMPI PUSH2 0x1C71 PUSH2 0x2329 JUMP JUMPDEST DUP1 PUSH2 0x1CA6 JUMPI PUSH1 0x0 PUSH2 0x1CA9 JUMP JUMPDEST PUSH1 0x1 JUMPDEST PUSH1 0xFF AND DUP3 PUSH2 0x1C0 ADD MLOAD PUSH1 0x2 DUP2 MLOAD DUP2 LT PUSH2 0x1C71 JUMPI PUSH2 0x1C71 PUSH2 0x2329 JUMP JUMPDEST DUP1 PUSH2 0x1CD0 JUMPI PUSH1 0x0 PUSH2 0x1CD3 JUMP JUMPDEST PUSH1 0x1 JUMPDEST PUSH1 0xFF AND DUP3 PUSH2 0x1C0 ADD MLOAD PUSH1 0x3 DUP2 MLOAD DUP2 LT PUSH2 0x1C71 JUMPI PUSH2 0x1C71 PUSH2 0x2329 JUMP JUMPDEST PUSH1 0x0 DUP2 PUSH2 0x1CFC JUMPI PUSH1 0x0 PUSH2 0x1CFF JUMP JUMPDEST PUSH1 0x1 JUMPDEST PUSH1 0xFF AND DUP4 PUSH2 0x1C0 ADD MLOAD PUSH1 0x0 DUP2 MLOAD DUP2 LT PUSH2 0x1D1A JUMPI PUSH2 0x1D1A PUSH2 0x2329 JUMP JUMPDEST PUSH1 0x20 MUL PUSH1 0x20 ADD ADD DUP2 DUP2 MSTORE POP SWAP1 POP SWAP3 SWAP2 POP POP JUMP JUMPDEST DUP3 DUP1 SLOAD DUP3 DUP3 SSTORE SWAP1 PUSH1 0x0 MSTORE PUSH1 0x20 PUSH1 0x0 KECCAK256 SWAP1 DUP2 ADD SWAP3 DUP3 ISZERO PUSH2 0x1D82 JUMPI SWAP2 PUSH1 0x20 MUL DUP3 ADD JUMPDEST DUP3 DUP2 GT ISZERO PUSH2 0x1D82 JUMPI DUP3 MLOAD DUP3 SLOAD PUSH1 0x1 PUSH1 0x1 PUSH1 0xA0 SHL SUB NOT AND PUSH1 0x1 PUSH1 0x1 PUSH1 0xA0 SHL SUB SWAP1 SWAP2 AND OR DUP3 SSTORE PUSH1 0x20 SWAP1 SWAP3 ADD SWAP2 PUSH1 0x1 SWAP1 SWAP2 ADD SWAP1 PUSH2 0x1D4D JUMP JUMPDEST POP PUSH2 0x1D8E SWAP3 SWAP2 POP PUSH2 0x1DCD JUMP JUMPDEST POP SWAP1 JUMP JUMPDEST DUP3 DUP1 SLOAD DUP3 DUP3 SSTORE SWAP1 PUSH1 0x0 MSTORE PUSH1 0x20 PUSH1 0x0 KECCAK256 SWAP1 DUP2 ADD SWAP3 DUP3 ISZERO PUSH2 0x1D82 JUMPI SWAP2 PUSH1 0x20 MUL DUP3 ADD JUMPDEST DUP3 DUP2 GT ISZERO PUSH2 0x1D82 JUMPI DUP3 MLOAD DUP3 SSTORE SWAP2 PUSH1 0x20 ADD SWAP2 SWAP1 PUSH1 0x1 ADD SWAP1 PUSH2 0x1DB2 JUMP JUMPDEST JUMPDEST DUP1 DUP3 GT ISZERO PUSH2 0x1D8E JUMPI PUSH1 0x0 DUP2 SSTORE PUSH1 0x1 ADD PUSH2 0x1DCE JUMP JUMPDEST PUSH4 0x4E487B71 PUSH1 0xE0 SHL PUSH1 0x0 MSTORE PUSH1 0x41 PUSH1 0x4 MSTORE PUSH1 0x24 PUSH1 0x0 REVERT JUMPDEST PUSH1 0x40 MLOAD PUSH1 0xA0 DUP2 ADD PUSH1 0x1 PUSH1 0x1 PUSH1 0x40 SHL SUB DUP2 GT DUP3 DUP3 LT OR ISZERO PUSH2 0x1E1A JUMPI PUSH2 0x1E1A PUSH2 0x1DE2 JUMP JUMPDEST PUSH1 0x40 MSTORE SWAP1 JUMP JUMPDEST PUSH1 0x40 MLOAD PUSH2 0x1A0 DUP2 ADD PUSH1 0x1 PUSH1 0x1 PUSH1 0x40 SHL SUB DUP2 GT DUP3 DUP3 LT OR ISZERO PUSH2 0x1E1A JUMPI PUSH2 0x1E1A PUSH2 0x1DE2 JUMP JUMPDEST PUSH1 0x40 MLOAD PUSH1 0x1F DUP3 ADD PUSH1 0x1F NOT AND DUP2 ADD PUSH1 0x1 PUSH1 0x1 PUSH1 0x40 SHL SUB DUP2 GT DUP3 DUP3 LT OR ISZERO PUSH2 0x1E6B JUMPI PUSH2 0x1E6B PUSH2 0x1DE2 JUMP JUMPDEST PUSH1 0x40 MSTORE SWAP2 SWAP1 POP JUMP JUMPDEST PUSH1 0x0 PUSH1 0x1 PUSH1 0x1 PUSH1 0x40 SHL SUB DUP3 GT ISZERO PUSH2 0x1E8C JUMPI PUSH2 0x1E8C PUSH2 0x1DE2 JUMP JUMPDEST POP PUSH1 0x5 SHL PUSH1 0x20 ADD SWAP1 JUMP JUMPDEST PUSH1 0x0 DUP3 PUSH1 0x1F DUP4 ADD SLT PUSH2 0x1EA7 JUMPI PUSH1 0x0 DUP1 REVERT JUMPDEST DUP2 CALLDATALOAD PUSH1 0x20 PUSH2 0x1EBC PUSH2 0x1EB7 DUP4 PUSH2 0x1E73 JUMP JUMPDEST PUSH2 0x1E43 JUMP JUMPDEST DUP3 DUP2 MSTORE PUSH1 0x5 SWAP3 SWAP1 SWAP3 SHL DUP5 ADD DUP2 ADD SWAP2 DUP2 DUP2 ADD SWAP1 DUP7 DUP5 GT ISZERO PUSH2 0x1EDB JUMPI PUSH1 0x0 DUP1 REVERT JUMPDEST DUP3 DUP7 ADD JUMPDEST DUP5 DUP2 LT ISZERO PUSH2 0x1EF6 JUMPI DUP1 CALLDATALOAD DUP4 MSTORE SWAP2 DUP4 ADD SWAP2 DUP4 ADD PUSH2 0x1EDF JUMP JUMPDEST POP SWAP7 SWAP6 POP POP POP POP POP POP JUMP JUMPDEST PUSH1 0x0 DUP1 PUSH1 0x40 DUP4 DUP6 SUB SLT ISZERO PUSH2 0x1F14 JUMPI PUSH1 0x0 DUP1 REVERT JUMPDEST DUP3 CALLDATALOAD PUSH1 0x1 PUSH1 0x1 PUSH1 0x40 SHL SUB DUP2 GT ISZERO PUSH2 0x1F2A JUMPI PUSH1 0x0 DUP1 REVERT JUMPDEST PUSH2 0x1F36 DUP6 DUP3 DUP7 ADD PUSH2 0x1E96 JUMP JUMPDEST SWAP6 PUSH1 0x20 SWAP5 SWAP1 SWAP5 ADD CALLDATALOAD SWAP5 POP POP POP POP JUMP JUMPDEST PUSH1 0x0 PUSH1 0x20 DUP3 DUP5 SUB SLT ISZERO PUSH2 0x1F57 JUMPI PUSH1 0x0 DUP1 REVERT JUMPDEST POP CALLDATALOAD SWAP2 SWAP1 POP JUMP JUMPDEST DUP1 CALLDATALOAD DUP1 ISZERO ISZERO DUP2 EQ PUSH2 0x1F6E JUMPI PUSH1 0x0 DUP1 REVERT JUMPDEST SWAP2 SWAP1 POP JUMP JUMPDEST PUSH1 0x1 PUSH1 0x1 PUSH1 0xA0 SHL SUB DUP2 AND DUP2 EQ PUSH2 0x770 JUMPI PUSH1 0x0 DUP1 REVERT JUMPDEST PUSH1 0x0 DUP1 PUSH1 0x0 DUP1 PUSH1 0x0 DUP1 PUSH1 0x0 DUP1 PUSH2 0x100 DUP10 DUP12 SUB SLT ISZERO PUSH2 0x1FA5 JUMPI PUSH1 0x0 DUP1 REVERT JUMPDEST DUP9 CALLDATALOAD SWAP8 POP PUSH1 0x20 DUP10 ADD CALLDATALOAD SWAP7 POP PUSH1 0x40 DUP10 ADD CALLDATALOAD SWAP6 POP PUSH1 0x60 DUP10 ADD CALLDATALOAD SWAP5 POP PUSH1 0x80 DUP10 ADD CALLDATALOAD SWAP4 POP PUSH1 0xA0 DUP10 ADD CALLDATALOAD SWAP3 POP PUSH2 0x1FD8 PUSH1 0xC0 DUP11 ADD PUSH2 0x1F5E JUMP JUMPDEST SWAP2 POP PUSH1 0xE0 DUP10 ADD CALLDATALOAD PUSH2 0x1FE8 DUP2 PUSH2 0x1F73 JUMP JUMPDEST DUP1 SWAP2 POP POP SWAP3 SWAP6 SWAP9 POP SWAP3 SWAP6 SWAP9 SWAP1 SWAP4 SWAP7 POP JUMP JUMPDEST PUSH1 0x0 DUP1 PUSH1 0x40 DUP4 DUP6 SUB SLT ISZERO PUSH2 0x200C JUMPI PUSH1 0x0 DUP1 REVERT JUMPDEST POP POP DUP1 CALLDATALOAD SWAP3 PUSH1 0x20 SWAP1 SWAP2 ADD CALLDATALOAD SWAP2 POP JUMP JUMPDEST PUSH1 0x0 DUP1 PUSH1 0x40 DUP4 DUP6 SUB SLT ISZERO PUSH2 0x202E JUMPI PUSH1 0x0 DUP1 REVERT JUMPDEST DUP3 CALLDATALOAD SWAP2 POP PUSH1 0x20 DUP4 ADD CALLDATALOAD PUSH2 0x2040 DUP2 PUSH2 0x1F73 JUMP JUMPDEST DUP1 SWAP2 POP POP SWAP3 POP SWAP3 SWAP1 POP JUMP JUMPDEST PUSH1 0x0 DUP3 PUSH1 0x1F DUP4 ADD SLT PUSH2 0x205C JUMPI PUSH1 0x0 DUP1 REVERT JUMPDEST DUP2 CALLDATALOAD PUSH1 0x20 PUSH2 0x206C PUSH2 0x1EB7 DUP4 PUSH2 0x1E73 JUMP JUMPDEST DUP3 DUP2 MSTORE PUSH1 0x5 SWAP3 SWAP1 SWAP3 SHL DUP5 ADD DUP2 ADD SWAP2 DUP2 DUP2 ADD SWAP1 DUP7 DUP5 GT ISZERO PUSH2 0x208B JUMPI PUSH1 0x0 DUP1 REVERT JUMPDEST DUP3 DUP7 ADD JUMPDEST DUP5 DUP2 LT ISZERO PUSH2 0x1EF6 JUMPI DUP1 CALLDATALOAD PUSH2 0x20A2 DUP2 PUSH2 0x1F73 JUMP JUMPDEST DUP4 MSTORE SWAP2 DUP4 ADD SWAP2 DUP4 ADD PUSH2 0x208F JUMP JUMPDEST PUSH1 0x0 DUP1 PUSH1 0x40 DUP4 DUP6 SUB SLT ISZERO PUSH2 0x20C2 JUMPI PUSH1 0x0 DUP1 REVERT JUMPDEST DUP3 CALLDATALOAD PUSH1 0x1 PUSH1 0x1 PUSH1 0x40 SHL SUB DUP1 DUP3 GT ISZERO PUSH2 0x20D9 JUMPI PUSH1 0x0 DUP1 REVERT JUMPDEST PUSH2 0x20E5 DUP7 DUP4 DUP8 ADD PUSH2 0x204B JUMP JUMPDEST SWAP4 POP PUSH1 0x20 DUP6 ADD CALLDATALOAD SWAP2 POP DUP1 DUP3 GT ISZERO PUSH2 0x20FB JUMPI PUSH1 0x0 DUP1 REVERT JUMPDEST POP PUSH2 0x2108 DUP6 DUP3 DUP7 ADD PUSH2 0x1E96 JUMP JUMPDEST SWAP2 POP POP SWAP3 POP SWAP3 SWAP1 POP JUMP JUMPDEST PUSH1 0x0 PUSH1 0x20 DUP3 DUP5 SUB SLT ISZERO PUSH2 0x2124 JUMPI PUSH1 0x0 DUP1 REVERT JUMPDEST DUP2 CALLDATALOAD PUSH2 0xF7D DUP2 PUSH2 0x1F73 JUMP JUMPDEST PUSH1 0x0 DUP1 PUSH1 0x0 PUSH1 0x60 DUP5 DUP7 SUB SLT ISZERO PUSH2 0x2144 JUMPI PUSH1 0x0 DUP1 REVERT JUMPDEST DUP4 CALLDATALOAD PUSH1 0x1 PUSH1 0x1 PUSH1 0x40 SHL SUB DUP1 DUP3 GT ISZERO PUSH2 0x215B JUMPI PUSH1 0x0 DUP1 REVERT JUMPDEST PUSH2 0x2167 DUP8 DUP4 DUP9 ADD PUSH2 0x204B JUMP JUMPDEST SWAP5 POP PUSH1 0x20 DUP7 ADD CALLDATALOAD SWAP2 POP DUP1 DUP3 GT ISZERO PUSH2 0x217D JUMPI PUSH1 0x0 DUP1 REVERT JUMPDEST POP PUSH2 0x218A DUP7 DUP3 DUP8 ADD PUSH2 0x1E96 JUMP JUMPDEST SWAP3 POP POP PUSH1 0x40 DUP5 ADD CALLDATALOAD SWAP1 POP SWAP3 POP SWAP3 POP SWAP3 JUMP JUMPDEST PUSH1 0x0 DUP1 PUSH1 0x0 PUSH1 0x60 DUP5 DUP7 SUB SLT ISZERO PUSH2 0x21B0 JUMPI PUSH1 0x0 DUP1 REVERT JUMPDEST DUP4 CALLDATALOAD PUSH2 0x21BB DUP2 PUSH2 0x1F73 JUMP JUMPDEST SWAP3 POP PUSH1 0x20 DUP5 ADD CALLDATALOAD SWAP2 POP PUSH2 0x21D0 PUSH1 0x40 DUP6 ADD PUSH2 0x1F5E JUMP JUMPDEST SWAP1 POP SWAP3 POP SWAP3 POP SWAP3 JUMP JUMPDEST PUSH1 0x0 PUSH1 0x20 DUP3 DUP5 SUB SLT ISZERO PUSH2 0x21EB JUMPI PUSH1 0x0 DUP1 REVERT JUMPDEST PUSH2 0xF7D DUP3 PUSH2 0x1F5E JUMP JUMPDEST PUSH1 0x1 PUSH1 0x1 PUSH1 0x40 SHL SUB DUP2 AND DUP2 EQ PUSH2 0x770 JUMPI PUSH1 0x0 DUP1 REVERT JUMPDEST PUSH1 0x0 DUP1 PUSH1 0x0 DUP1 PUSH1 0x80 DUP6 DUP8 SUB SLT ISZERO PUSH2 0x221F JUMPI PUSH1 0x0 DUP1 REVERT JUMPDEST DUP5 CALLDATALOAD PUSH2 0x222A DUP2 PUSH2 0x1F73 JUMP JUMPDEST SWAP4 POP PUSH1 0x20 DUP6 DUP2 ADD CALLDATALOAD SWAP4 POP PUSH1 0x40 DUP1 DUP8 ADD CALLDATALOAD SWAP4 POP PUSH1 0x60 DUP1 DUP9 ADD CALLDATALOAD PUSH1 0x1 PUSH1 0x1 PUSH1 0x40 SHL SUB DUP2 GT ISZERO PUSH2 0x2256 JUMPI PUSH1 0x0 DUP1 REVERT JUMPDEST DUP9 ADD PUSH1 0x1F DUP2 ADD DUP11 SGT PUSH2 0x2267 JUMPI PUSH1 0x0 DUP1 REVERT JUMPDEST DUP1 CALLDATALOAD PUSH2 0x2275 PUSH2 0x1EB7 DUP3 PUSH2 0x1E73 JUMP JUMPDEST DUP2 DUP2 MSTORE PUSH1 0xA0 SWAP2 DUP3 MUL DUP4 ADD DUP7 ADD SWAP2 DUP7 DUP3 ADD SWAP2 SWAP1 DUP14 DUP5 GT ISZERO PUSH2 0x2294 JUMPI PUSH1 0x0 DUP1 REVERT JUMPDEST SWAP4 DUP8 ADD SWAP4 JUMPDEST DUP4 DUP6 LT ISZERO PUSH2 0x2317 JUMPI DUP1 DUP6 DUP16 SUB SLT ISZERO PUSH2 0x22B1 JUMPI PUSH1 0x0 DUP1 DUP2 REVERT JUMPDEST PUSH2 0x22B9 PUSH2 0x1DF8 JUMP JUMPDEST DUP6 CALLDATALOAD PUSH2 0x22C4 DUP2 PUSH2 0x1F73 JUMP JUMPDEST DUP2 MSTORE DUP6 DUP10 ADD CALLDATALOAD PUSH2 0x22D3 DUP2 PUSH2 0x1F73 JUMP JUMPDEST DUP2 DUP11 ADD MSTORE DUP6 DUP9 ADD CALLDATALOAD PUSH2 0x22E4 DUP2 PUSH2 0x21F4 JUMP JUMPDEST DUP2 DUP10 ADD MSTORE PUSH2 0x22F3 DUP7 DUP9 ADD PUSH2 0x1F5E JUMP JUMPDEST DUP8 DUP3 ADD MSTORE PUSH2 0x2303 PUSH1 0x80 DUP8 ADD PUSH2 0x1F5E JUMP JUMPDEST PUSH1 0x80 DUP3 ADD MSTORE DUP4 MSTORE SWAP4 DUP5 ADD SWAP4 SWAP2 DUP8 ADD SWAP2 PUSH2 0x2299 JUMP JUMPDEST POP SWAP10 SWAP13 SWAP9 SWAP12 POP SWAP7 SWAP10 POP POP POP POP POP POP POP POP JUMP JUMPDEST PUSH4 0x4E487B71 PUSH1 0xE0 SHL PUSH1 0x0 MSTORE PUSH1 0x32 PUSH1 0x4 MSTORE PUSH1 0x24 PUSH1 0x0 REVERT JUMPDEST PUSH4 0x4E487B71 PUSH1 0xE0 SHL PUSH1 0x0 MSTORE PUSH1 0x11 PUSH1 0x4 MSTORE PUSH1 0x24 PUSH1 0x0 REVERT JUMPDEST DUP1 DUP3 MUL DUP2 ISZERO DUP3 DUP3 DIV DUP5 EQ OR PUSH2 0xF87 JUMPI PUSH2 0xF87 PUSH2 0x233F JUMP JUMPDEST DUP1 DUP3 ADD DUP1 DUP3 GT ISZERO PUSH2 0xF87 JUMPI PUSH2 0xF87 PUSH2 0x233F JUMP JUMPDEST PUSH1 0x0 DUP3 PUSH2 0x239C JUMPI PUSH4 0x4E487B71 PUSH1 0xE0 SHL PUSH1 0x0 MSTORE PUSH1 0x12 PUSH1 0x4 MSTORE PUSH1 0x24 PUSH1 0x0 REVERT JUMPDEST POP DIV SWAP1 JUMP JUMPDEST PUSH1 0x0 PUSH1 0x1 DUP3 ADD PUSH2 0x23B3 JUMPI PUSH2 0x23B3 PUSH2 0x233F JUMP JUMPDEST POP PUSH1 0x1 ADD SWAP1 JUMP JUMPDEST DUP2 DUP2 SUB DUP2 DUP2 GT ISZERO PUSH2 0xF87 JUMPI PUSH2 0xF87 PUSH2 0x233F JUMP JUMPDEST PUSH1 0x0 PUSH1 0x20 DUP3 DUP5 SUB SLT ISZERO PUSH2 0x23DF JUMPI PUSH1 0x0 DUP1 REVERT JUMPDEST DUP2 MLOAD PUSH2 0xF7D DUP2 PUSH2 0x1F73 JUMP JUMPDEST DUP1 MLOAD PUSH1 0xFF DUP2 AND DUP2 EQ PUSH2 0x1F6E JUMPI PUSH1 0x0 DUP1 REVERT JUMPDEST DUP1 MLOAD PUSH4 0xFFFFFFFF DUP2 AND DUP2 EQ PUSH2 0x1F6E JUMPI PUSH1 0x0 DUP1 REVERT JUMPDEST DUP1 MLOAD PUSH2 0x1F6E DUP2 PUSH2 0x1F73 JUMP JUMPDEST DUP1 MLOAD PUSH6 0xFFFFFFFFFFFF DUP2 AND DUP2 EQ PUSH2 0x1F6E JUMPI PUSH1 0x0 DUP1 REVERT JUMPDEST DUP1 MLOAD PUSH1 0x1 PUSH1 0x1 PUSH1 0x80 SHL SUB DUP2 AND DUP2 EQ PUSH2 0x1F6E JUMPI PUSH1 0x0 DUP1 REVERT JUMPDEST DUP1 MLOAD PUSH2 0x1F6E DUP2 PUSH2 0x21F4 JUMP JUMPDEST PUSH1 0x0 PUSH2 0x1A0 DUP3 DUP5 SUB SLT ISZERO PUSH2 0x2465 JUMPI PUSH1 0x0 DUP1 REVERT JUMPDEST PUSH2 0x246D PUSH2 0x1E20 JUMP JUMPDEST PUSH2 0x2476 DUP4 PUSH2 0x23EA JUMP JUMPDEST DUP2 MSTORE PUSH2 0x2484 PUSH1 0x20 DUP5 ADD PUSH2 0x23FB JUMP JUMPDEST PUSH1 0x20 DUP3 ADD MSTORE PUSH2 0x2495 PUSH1 0x40 DUP5 ADD PUSH2 0x23EA JUMP JUMPDEST PUSH1 0x40 DUP3 ADD MSTORE PUSH2 0x24A6 PUSH1 0x60 DUP5 ADD PUSH2 0x240F JUMP JUMPDEST PUSH1 0x60 DUP3 ADD MSTORE PUSH2 0x24B7 PUSH1 0x80 DUP5 ADD PUSH2 0x241A JUMP JUMPDEST PUSH1 0x80 DUP3 ADD MSTORE PUSH2 0x24C8 PUSH1 0xA0 DUP5 ADD PUSH2 0x2430 JUMP JUMPDEST PUSH1 0xA0 DUP3 ADD MSTORE PUSH2 0x24D9 PUSH1 0xC0 DUP5 ADD PUSH2 0x2430 JUMP JUMPDEST PUSH1 0xC0 DUP3 ADD MSTORE PUSH2 0x24EA PUSH1 0xE0 DUP5 ADD PUSH2 0x2430 JUMP JUMPDEST PUSH1 0xE0 DUP3 ADD MSTORE PUSH2 0x100 PUSH2 0x24FD DUP2 DUP6 ADD PUSH2 0x2430 JUMP JUMPDEST SWAP1 DUP3 ADD MSTORE PUSH2 0x120 PUSH2 0x250F DUP5 DUP3 ADD PUSH2 0x2447 JUMP JUMPDEST SWAP1 DUP3 ADD MSTORE PUSH2 0x140 PUSH2 0x2521 DUP5 DUP3 ADD PUSH2 0x2447 JUMP JUMPDEST SWAP1 DUP3 ADD MSTORE PUSH2 0x160 PUSH2 0x2533 DUP5 DUP3 ADD PUSH2 0x2430 JUMP JUMPDEST SWAP1 DUP3 ADD MSTORE PUSH2 0x180 SWAP3 DUP4 ADD MLOAD SWAP3 DUP2 ADD SWAP3 SWAP1 SWAP3 MSTORE POP SWAP2 SWAP1 POP JUMP JUMPDEST PUSH1 0x0 DUP2 MLOAD DUP1 DUP5 MSTORE PUSH1 0x20 DUP1 DUP6 ADD SWAP5 POP DUP1 DUP5 ADD PUSH1 0x0 JUMPDEST DUP4 DUP2 LT ISZERO PUSH2 0x257B JUMPI DUP2 MLOAD DUP8 MSTORE SWAP6 DUP3 ADD SWAP6 SWAP1 DUP3 ADD SWAP1 PUSH1 0x1 ADD PUSH2 0x255F JUMP JUMPDEST POP SWAP5 SWAP6 SWAP5 POP POP POP POP POP JUMP JUMPDEST DUP1 MLOAD PUSH1 0x1 PUSH1 0x1 PUSH1 0xA0 SHL SUB AND DUP3 MSTORE PUSH1 0x0 PUSH2 0x1E0 PUSH1 0x20 DUP4 ADD MLOAD PUSH2 0x25AB PUSH1 0x20 DUP7 ADD DUP3 ISZERO ISZERO SWAP1 MSTORE JUMP JUMPDEST POP PUSH1 0x40 DUP4 ADD MLOAD PUSH1 0x40 DUP6 ADD MSTORE PUSH1 0x60 DUP4 ADD MLOAD PUSH2 0x25C9 PUSH1 0x60 DUP7 ADD DUP3 ISZERO ISZERO SWAP1 MSTORE JUMP JUMPDEST POP PUSH1 0x80 DUP4 ADD MLOAD PUSH2 0x25E4 PUSH1 0x80 DUP7 ADD DUP3 PUSH1 0x1 PUSH1 0x1 PUSH1 0xA0 SHL SUB AND SWAP1 MSTORE JUMP JUMPDEST POP PUSH1 0xA0 DUP4 ADD MLOAD PUSH1 0xA0 DUP6 ADD MSTORE PUSH1 0xC0 DUP4 ADD MLOAD PUSH1 0xC0 DUP6 ADD MSTORE PUSH1 0xE0 DUP4 ADD MLOAD PUSH1 0xE0 DUP6 ADD MSTORE PUSH2 0x100 DUP1 DUP5 ADD MLOAD PUSH2 0x2617 DUP3 DUP8 ADD DUP3 ISZERO ISZERO SWAP1 MSTORE JUMP JUMPDEST POP POP PUSH2 0x120 DUP4 DUP2 ADD MLOAD PUSH1 0xFF SWAP1 DUP2 AND SWAP2 DUP7 ADD SWAP2 SWAP1 SWAP2 MSTORE PUSH2 0x140 DUP1 DUP6 ADD MLOAD PUSH1 0x1 PUSH1 0x1 PUSH1 0x40 SHL SUB AND SWAP1 DUP7 ADD MSTORE PUSH2 0x160 DUP1 DUP6 ADD MLOAD SWAP1 DUP7 ADD MSTORE PUSH2 0x180 DUP1 DUP6 ADD MLOAD SWAP1 DUP7 ADD MSTORE PUSH2 0x1A0 DUP1 DUP6 ADD MLOAD SWAP1 SWAP2 AND SWAP1 DUP6 ADD MSTORE PUSH2 0x1C0 DUP1 DUP5 ADD MLOAD DUP2 DUP7 ADD DUP4 SWAP1 MSTORE PUSH2 0x267D DUP4 DUP8 ADD DUP3 PUSH2 0x254B JUMP JUMPDEST SWAP7 SWAP6 POP POP POP POP POP POP JUMP JUMPDEST DUP3 MLOAD PUSH1 0xFF AND DUP2 MSTORE PUSH1 0x0 PUSH2 0x1C0 PUSH1 0x20 DUP6 ADD MLOAD PUSH2 0x26AA PUSH1 0x20 DUP6 ADD DUP3 PUSH4 0xFFFFFFFF AND SWAP1 MSTORE JUMP JUMPDEST POP PUSH1 0x40 DUP6 ADD MLOAD PUSH2 0x26BF PUSH1 0x40 DUP6 ADD DUP3 PUSH1 0xFF AND SWAP1 MSTORE JUMP JUMPDEST POP PUSH1 0x60 DUP6 ADD MLOAD PUSH2 0x26DA PUSH1 0x60 DUP6 ADD DUP3 PUSH1 0x1 PUSH1 0x1 PUSH1 0xA0 SHL SUB AND SWAP1 MSTORE JUMP JUMPDEST POP PUSH1 0x80 DUP6 ADD MLOAD PUSH2 0x26F4 PUSH1 0x80 DUP6 ADD DUP3 PUSH6 0xFFFFFFFFFFFF AND SWAP1 MSTORE JUMP JUMPDEST POP PUSH1 0xA0 DUP6 ADD MLOAD PUSH2 0x270F PUSH1 0xA0 DUP6 ADD DUP3 PUSH1 0x1 PUSH1 0x1 PUSH1 0x80 SHL SUB AND SWAP1 MSTORE JUMP JUMPDEST POP PUSH1 0xC0 DUP6 ADD MLOAD PUSH2 0x272A PUSH1 0xC0 DUP6 ADD DUP3 PUSH1 0x1 PUSH1 0x1 PUSH1 0x80 SHL SUB AND SWAP1 MSTORE JUMP JUMPDEST POP PUSH1 0xE0 DUP6 ADD MLOAD PUSH2 0x2745 PUSH1 0xE0 DUP6 ADD DUP3 PUSH1 0x1 PUSH1 0x1 PUSH1 0x80 SHL SUB AND SWAP1 MSTORE JUMP JUMPDEST POP PUSH2 0x100 DUP6 DUP2 ADD MLOAD PUSH1 0x1 PUSH1 0x1 PUSH1 0x80 SHL SUB DUP2 AND DUP6 DUP4 ADD MSTORE POP POP PUSH2 0x120 DUP6 DUP2 ADD MLOAD PUSH1 0x1 PUSH1 0x1 PUSH1 0x40 SHL SUB DUP2 AND DUP6 DUP4 ADD MSTORE POP POP PUSH2 0x140 DUP6 DUP2 ADD MLOAD PUSH1 0x1 PUSH1 0x1 PUSH1 0x40 SHL SUB DUP2 AND DUP6 DUP4 ADD MSTORE POP POP PUSH2 0x160 DUP6 DUP2 ADD MLOAD PUSH1 0x1 PUSH1 0x1 PUSH1 0x80 SHL SUB DUP2 AND DUP6 DUP4 ADD MSTORE POP POP PUSH2 0x180 DUP1 DUP7 ADD MLOAD DUP2 DUP6 ADD MSTORE POP DUP1 PUSH2 0x1A0 DUP5 ADD MSTORE PUSH2 0x27C1 DUP2 DUP5 ADD DUP6 PUSH2 0x2586 JUMP JUMPDEST SWAP6 SWAP5 POP POP POP POP POP JUMP JUMPDEST PUSH1 0x0 PUSH1 0x20 DUP3 DUP5 SUB SLT ISZERO PUSH2 0x27DC JUMPI PUSH1 0x0 DUP1 REVERT JUMPDEST POP MLOAD SWAP2 SWAP1 POP JUMP INVALID LOG2 PUSH5 0x6970667358 0x22 SLT KECCAK256 0xE6 0x5F 0xA7 ORIGIN ISZERO 0xDF 0xFB SHR 0xE5 0xC9 EXTCODESIZE SWAP9 CODESIZE DUP6 0xB2 XOR SWAP15 0xB2 SWAP14 SWAP6 CHAINID 0xCE 0xA5 MUL PUSH4 0x2229294B 0xE6 STOP SWAP3 PUSH5 0x736F6C6343 STOP ADDMOD GT STOP CALLER "},"methodIdentifiers":{"BASIS_POINTS_DIVISOR()":"126082cf","BITMASK_32()":"807c9782","CUMULATIVE_DELTA_PRECISION()":"a2b47c16","DEFAULT_ADMIN_ROLE()":"a217fddf","MAX_CUMULATIVE_FAST_DELTA()":"4bd66c1c","MAX_CUMULATIVE_REF_DELTA()":"0604ddea","MAX_PRICE_DURATION()":"668d3d65","MAX_REF_PRICE()":"e68a22c0","PRICE_PRECISION()":"95082d25","_transferOwnership(address)":"d29d44ee","chainPriceFeed()":"add37b7b","favorFastPrice(address)":"6c56fd05","getPrice(address,uint256,bool)":"7fece368","getPriceData(address)":"72279ba1","grantControllerRoleByMarketManager(address)":"7fe4a698","grantRole(bytes32,address)":"2f2ff15d","hasRole(bytes32,address)":"91d14854","initialize(uint256,uint256,uint256,uint256,uint256,uint256,bool,address)":"1512656d","isSpreadEnablede()":"f931ac30","lastUpdatedAt()":"54aea127","lastUpdatedAtBlock(address)":"9875f760","lastUpdatedBlock()":"f90ce5ba","maxCumulativeDeltaDiffs(address)":"a3742425","maxDeviationBasisPoints()":"715c7536","maxPriceUpdateDelay()":"e64559ad","maxTimeDeviation()":"3aa08f86","minBlockInterval()":"b3606b56","priceData(address)":"cab44b76","priceDataInterval()":"dfb481c9","priceDuration()":"03cd2571","prices(address)":"cfed246b","revokeRole(bytes32,address)":"d547741f","setCompactedPrices(uint256[],uint256)":"03f4d7dc","setIsSpreadEnabled(bool)":"ce98dfa8","setLastUpdatedAt(uint256)":"14dd2dce","setMaxCumulativeDeltaDiffs(address[],uint256[])":"4c0e31c8","setMaxDeviationBasisPoints(uint256)":"82553aad","setMaxPriceUpdateDelay(uint256)":"8b7677f4","setMaxTimeDeviation(uint256)":"776d16c1","setMinBlockInterval(uint256)":"d6a153f1","setPriceDataInterval(uint256)":"2e9cd94b","setPriceDuration(uint256)":"44c23193","setPriceFeed(address)":"724e78da","setPrices(address[],uint256[],uint256)":"782661bc","setPricesAndExecute(address,uint256,uint256,(address,address,uint64,bool,bool)[])":"fcb51252","setPricesWithBits(uint256,uint256)":"17835d1c","setSpreadBasisPointsIfChainError(uint256)":"de0d1b94","setSpreadBasisPointsIfInactive(uint256)":"b70c7b70","setTokens(address[],uint256[])":"c8390a48","spreadBasisPointsIfChainError()":"a6eca896","spreadBasisPointsIfInactive()":"74bfed89","tokenPrecisions(uint256)":"4d11fb4a","tokens(uint256)":"4f64b2be","transferAdmin(address)":"75829def","transferOwnership(address)":"f2fde38b","updatedAt(uint256)":"c818faec"}},"storageLayout":{"storage":[{"astId":25,"contract":"contracts/oracle/FastPriceFeed.sol:FastPriceFeed","label":"_initialized","offset":0,"slot":"0","type":"t_uint8"},{"astId":28,"contract":"contracts/oracle/FastPriceFeed.sol:FastPriceFeed","label":"_initializing","offset":1,"slot":"0","type":"t_bool"},{"astId":3784,"contract":"contracts/oracle/FastPriceFeed.sol:FastPriceFeed","label":"initBlock","offset":0,"slot":"1","type":"t_uint256"},{"astId":5944,"contract":"contracts/oracle/FastPriceFeed.sol:FastPriceFeed","label":"isSpreadEnablede","offset":0,"slot":"2","type":"t_bool"},{"astId":5946,"contract":"contracts/oracle/FastPriceFeed.sol:FastPriceFeed","label":"chainPriceFeed","offset":1,"slot":"2","type":"t_address"},{"astId":5948,"contract":"contracts/oracle/FastPriceFeed.sol:FastPriceFeed","label":"lastUpdatedAt","offset":0,"slot":"3","type":"t_uint256"},{"astId":5950,"contract":"contracts/oracle/FastPriceFeed.sol:FastPriceFeed","label":"lastUpdatedBlock","offset":0,"slot":"4","type":"t_uint256"},{"astId":5952,"contract":"contracts/oracle/FastPriceFeed.sol:FastPriceFeed","label":"priceDuration","offset":0,"slot":"5","type":"t_uint256"},{"astId":5954,"contract":"contracts/oracle/FastPriceFeed.sol:FastPriceFeed","label":"maxPriceUpdateDelay","offset":0,"slot":"6","type":"t_uint256"},{"astId":5956,"contract":"contracts/oracle/FastPriceFeed.sol:FastPriceFeed","label":"spreadBasisPointsIfInactive","offset":0,"slot":"7","type":"t_uint256"},{"astId":5958,"contract":"contracts/oracle/FastPriceFeed.sol:FastPriceFeed","label":"spreadBasisPointsIfChainError","offset":0,"slot":"8","type":"t_uint256"},{"astId":5960,"contract":"contracts/oracle/FastPriceFeed.sol:FastPriceFeed","label":"minBlockInterval","offset":0,"slot":"9","type":"t_uint256"},{"astId":5962,"contract":"contracts/oracle/FastPriceFeed.sol:FastPriceFeed","label":"maxTimeDeviation","offset":0,"slot":"10","type":"t_uint256"},{"astId":5964,"contract":"contracts/oracle/FastPriceFeed.sol:FastPriceFeed","label":"priceDataInterval","offset":0,"slot":"11","type":"t_uint256"},{"astId":5966,"contract":"contracts/oracle/FastPriceFeed.sol:FastPriceFeed","label":"maxDeviationBasisPoints","offset":0,"slot":"12","type":"t_uint256"},{"astId":5970,"contract":"contracts/oracle/FastPriceFeed.sol:FastPriceFeed","label":"prices","offset":0,"slot":"13","type":"t_mapping(t_address,t_uint256)"},{"astId":5975,"contract":"contracts/oracle/FastPriceFeed.sol:FastPriceFeed","label":"priceData","offset":0,"slot":"14","type":"t_mapping(t_address,t_struct(PriceDataItem)5891_storage)"},{"astId":5979,"contract":"contracts/oracle/FastPriceFeed.sol:FastPriceFeed","label":"maxCumulativeDeltaDiffs","offset":0,"slot":"15","type":"t_mapping(t_address,t_uint256)"},{"astId":5982,"contract":"contracts/oracle/FastPriceFeed.sol:FastPriceFeed","label":"tokens","offset":0,"slot":"16","type":"t_array(t_address)dyn_storage"},{"astId":5985,"contract":"contracts/oracle/FastPriceFeed.sol:FastPriceFeed","label":"tokenPrecisions","offset":0,"slot":"17","type":"t_array(t_uint256)dyn_storage"},{"astId":5988,"contract":"contracts/oracle/FastPriceFeed.sol:FastPriceFeed","label":"updatedAt","offset":0,"slot":"18","type":"t_array(t_uint256)dyn_storage"},{"astId":5992,"contract":"contracts/oracle/FastPriceFeed.sol:FastPriceFeed","label":"lastUpdatedAtBlock","offset":0,"slot":"19","type":"t_mapping(t_address,t_uint256)"}],"types":{"t_address":{"encoding":"inplace","label":"address","numberOfBytes":"20"},"t_array(t_address)dyn_storage":{"base":"t_address","encoding":"dynamic_array","label":"address[]","numberOfBytes":"32"},"t_array(t_uint256)dyn_storage":{"base":"t_uint256","encoding":"dynamic_array","label":"uint256[]","numberOfBytes":"32"},"t_bool":{"encoding":"inplace","label":"bool","numberOfBytes":"1"},"t_mapping(t_address,t_struct(PriceDataItem)5891_storage)":{"encoding":"mapping","key":"t_address","label":"mapping(address => struct FastPriceFeed.PriceDataItem)","numberOfBytes":"32","value":"t_struct(PriceDataItem)5891_storage"},"t_mapping(t_address,t_uint256)":{"encoding":"mapping","key":"t_address","label":"mapping(address => uint256)","numberOfBytes":"32","value":"t_uint256"},"t_struct(PriceDataItem)5891_storage":{"encoding":"inplace","label":"struct FastPriceFeed.PriceDataItem","members":[{"astId":5884,"contract":"contracts/oracle/FastPriceFeed.sol:FastPriceFeed","label":"refPrice","offset":0,"slot":"0","type":"t_uint160"},{"astId":5886,"contract":"contracts/oracle/FastPriceFeed.sol:FastPriceFeed","label":"refTime","offset":20,"slot":"0","type":"t_uint32"},{"astId":5888,"contract":"contracts/oracle/FastPriceFeed.sol:FastPriceFeed","label":"cumulativeRefDelta","offset":24,"slot":"0","type":"t_uint32"},{"astId":5890,"contract":"contracts/oracle/FastPriceFeed.sol:FastPriceFeed","label":"cumulativeFastDelta","offset":28,"slot":"0","type":"t_uint32"}],"numberOfBytes":"32"},"t_uint160":{"encoding":"inplace","label":"uint160","numberOfBytes":"20"},"t_uint256":{"encoding":"inplace","label":"uint256","numberOfBytes":"32"},"t_uint32":{"encoding":"inplace","label":"uint32","numberOfBytes":"4"},"t_uint8":{"encoding":"inplace","label":"uint8","numberOfBytes":"1"}}}}}}