{"contracts/interfaces/order/OrderStruct.sol":{"Order":{"abi":[{"inputs":[],"name":"STRUCT_VERSION","outputs":[{"internalType":"uint8","name":"","type":"uint8"}],"stateMutability":"view","type":"function"}],"evm":{"bytecode":{"linkReferences":{},"object":"608b610038600b82828239805160001a607314602b57634e487b7160e01b600052600060045260246000fd5b30600052607381538281f3fe730000000000000000000000000000000000000000301460806040526004361060335760003560e01c80639be4ac99146038575b600080fd5b603f600181565b60405160ff909116815260200160405180910390f3fea264697066735822122044a6e7bd4a2cf91b1ca37e2d7cd815ef5e6f5f09edc901b9ad13739c5eed9dfe64736f6c63430008110033","opcodes":"PUSH1 0x8B PUSH2 0x38 PUSH1 0xB DUP3 DUP3 DUP3 CODECOPY DUP1 MLOAD PUSH1 0x0 BYTE PUSH1 0x73 EQ PUSH1 0x2B JUMPI PUSH4 0x4E487B71 PUSH1 0xE0 SHL PUSH1 0x0 MSTORE PUSH1 0x0 PUSH1 0x4 MSTORE PUSH1 0x24 PUSH1 0x0 REVERT JUMPDEST ADDRESS PUSH1 0x0 MSTORE PUSH1 0x73 DUP2 MSTORE8 DUP3 DUP2 RETURN INVALID PUSH20 0x0 ADDRESS EQ PUSH1 0x80 PUSH1 0x40 MSTORE PUSH1 0x4 CALLDATASIZE LT PUSH1 0x33 JUMPI PUSH1 0x0 CALLDATALOAD PUSH1 0xE0 SHR DUP1 PUSH4 0x9BE4AC99 EQ PUSH1 0x38 JUMPI JUMPDEST PUSH1 0x0 DUP1 REVERT JUMPDEST PUSH1 0x3F PUSH1 0x1 DUP2 JUMP JUMPDEST PUSH1 0x40 MLOAD PUSH1 0xFF SWAP1 SWAP2 AND DUP2 MSTORE PUSH1 0x20 ADD PUSH1 0x40 MLOAD DUP1 SWAP2 SUB SWAP1 RETURN INVALID LOG2 PUSH5 0x6970667358 0x22 SLT KECCAK256 DIFFICULTY 0xA6 0xE7 0xBD 0x4A 0x2C 0xF9 SHL SHR LOG3 PUSH31 0x2D7CD815EF5E6F5F09EDC901B9AD13739C5EED9DFE64736F6C634300081100 CALLER "},"methodIdentifiers":{"STRUCT_VERSION()":"9be4ac99"}},"storageLayout":{"storage":[],"types":null}}}}