{"contracts/datastream/OrderLiqStreamsUpkeep.sol":{"OrderLiqStreamsUpkeep":{"abi":[{"inputs":[{"internalType":"string","name":"feedParamKey","type":"string"},{"internalType":"string[]","name":"feeds","type":"string[]"},{"internalType":"string","name":"timeParamKey","type":"string"},{"internalType":"uint256","name":"time","type":"uint256"},{"internalType":"bytes","name":"extraData","type":"bytes"}],"name":"StreamsLookup","type":"error"},{"anonymous":false,"inputs":[{"indexed":false,"internalType":"uint8","name":"version","type":"uint8"}],"name":"Initialized","type":"event"},{"anonymous":false,"inputs":[{"indexed":true,"internalType":"bytes32","name":"role","type":"bytes32"},{"indexed":true,"internalType":"bytes32","name":"previousAdminRole","type":"bytes32"},{"indexed":true,"internalType":"bytes32","name":"newAdminRole","type":"bytes32"}],"name":"RoleAdminChanged","type":"event"},{"anonymous":false,"inputs":[{"indexed":true,"internalType":"bytes32","name":"role","type":"bytes32"},{"indexed":true,"internalType":"address","name":"account","type":"address"},{"indexed":true,"internalType":"address","name":"sender","type":"address"}],"name":"RoleGranted","type":"event"},{"anonymous":false,"inputs":[{"indexed":true,"internalType":"bytes32","name":"role","type":"bytes32"},{"indexed":true,"internalType":"address","name":"account","type":"address"},{"indexed":true,"internalType":"address","name":"sender","type":"address"}],"name":"RoleRevoked","type":"event"},{"anonymous":false,"inputs":[{"indexed":false,"internalType":"address","name":"","type":"address"}],"name":"UDSTPrice","type":"event"},{"inputs":[],"name":"DATASTREAMS_FEEDLABEL","outputs":[{"internalType":"string","name":"","type":"string"}],"stateMutability":"view","type":"function"},{"inputs":[],"name":"DATASTREAMS_QUERYLABEL","outputs":[{"internalType":"string","name":"","type":"string"}],"stateMutability":"view","type":"function"},{"inputs":[],"name":"DEFAULT_ADMIN_ROLE","outputs":[{"internalType":"bytes32","name":"","type":"bytes32"}],"stateMutability":"view","type":"function"},{"inputs":[],"name":"autoLiq","outputs":[{"internalType":"address","name":"","type":"address"}],"stateMutability":"view","type":"function"},{"inputs":[],"name":"autoOrder","outputs":[{"internalType":"address","name":"","type":"address"}],"stateMutability":"view","type":"function"},{"inputs":[{"internalType":"bytes[]","name":"signedReports","type":"bytes[]"},{"internalType":"bytes","name":"extraData","type":"bytes"}],"name":"checkCallback","outputs":[{"internalType":"bool","name":"upkeepNeeded","type":"bool"},{"internalType":"bytes","name":"performData","type":"bytes"}],"stateMutability":"view","type":"function"},{"inputs":[{"internalType":"uint256","name":"priceOffChain","type":"uint256"},{"internalType":"address","name":"market","type":"address"}],"name":"checkCallbackLiq","outputs":[{"internalType":"bool","name":"upkeepNeeded","type":"bool"},{"internalType":"bytes","name":"","type":"bytes"}],"stateMutability":"view","type":"function"},{"inputs":[{"components":[{"internalType":"uint256","name":"index","type":"uint256"},{"internalType":"uint256","name":"timestamp","type":"uint256"},{"internalType":"bytes32","name":"txHash","type":"bytes32"},{"internalType":"uint256","name":"blockNumber","type":"uint256"},{"internalType":"bytes32","name":"blockHash","type":"bytes32"},{"internalType":"address","name":"source","type":"address"},{"internalType":"bytes32[]","name":"topics","type":"bytes32[]"},{"internalType":"bytes","name":"data","type":"bytes"}],"internalType":"struct Log","name":"log","type":"tuple"},{"internalType":"bytes","name":"checkData","type":"bytes"}],"name":"checkLog","outputs":[{"internalType":"bool","name":"","type":"bool"},{"internalType":"bytes","name":"","type":"bytes"}],"stateMutability":"nonpayable","type":"function"},{"inputs":[{"internalType":"address","name":"","type":"address"}],"name":"feedId","outputs":[{"internalType":"string","name":"","type":"string"}],"stateMutability":"view","type":"function"},{"inputs":[{"internalType":"bytes32","name":"role","type":"bytes32"}],"name":"getRoleAdmin","outputs":[{"internalType":"bytes32","name":"","type":"bytes32"}],"stateMutability":"view","type":"function"},{"inputs":[{"internalType":"bytes32","name":"role","type":"bytes32"},{"internalType":"address","name":"account","type":"address"}],"name":"grantRole","outputs":[],"stateMutability":"nonpayable","type":"function"},{"inputs":[{"internalType":"bytes32","name":"role","type":"bytes32"},{"internalType":"address","name":"account","type":"address"}],"name":"hasRole","outputs":[{"internalType":"bool","name":"","type":"bool"}],"stateMutability":"view","type":"function"},{"inputs":[{"internalType":"address","name":"_verifier","type":"address"},{"internalType":"address[]","name":"logTypeKey","type":"address[]"},{"internalType":"uint256[]","name":"logTypeVal","type":"uint256[]"},{"internalType":"address[]","name":"feedIdKey","type":"address[]"},{"internalType":"string[]","name":"feedIdVal","type":"string[]"}],"name":"initialize","outputs":[],"stateMutability":"payable","type":"function"},{"inputs":[{"internalType":"address","name":"","type":"address"}],"name":"logType","outputs":[{"internalType":"uint8","name":"","type":"uint8"}],"stateMutability":"view","type":"function"},{"inputs":[],"name":"onlySetPrice","outputs":[{"internalType":"bool","name":"","type":"bool"}],"stateMutability":"view","type":"function"},{"inputs":[{"internalType":"bytes","name":"performData","type":"bytes"}],"name":"performUpkeep","outputs":[],"stateMutability":"nonpayable","type":"function"},{"inputs":[{"internalType":"bytes32","name":"role","type":"bytes32"},{"internalType":"address","name":"account","type":"address"}],"name":"renounceRole","outputs":[],"stateMutability":"nonpayable","type":"function"},{"inputs":[{"internalType":"bytes32","name":"role","type":"bytes32"},{"internalType":"address","name":"account","type":"address"}],"name":"revokeRole","outputs":[],"stateMutability":"nonpayable","type":"function"},{"inputs":[],"name":"sendETH","outputs":[],"stateMutability":"payable","type":"function"},{"inputs":[{"internalType":"address","name":"market","type":"address"},{"internalType":"string","name":"fid","type":"string"}],"name":"setFeedId","outputs":[],"stateMutability":"nonpayable","type":"function"},{"inputs":[{"internalType":"address","name":"source","type":"address"},{"internalType":"uint8","name":"_t","type":"uint8"}],"name":"setLogType","outputs":[],"stateMutability":"nonpayable","type":"function"},{"inputs":[{"internalType":"bytes4","name":"interfaceId","type":"bytes4"}],"name":"supportsInterface","outputs":[{"internalType":"bool","name":"","type":"bool"}],"stateMutability":"view","type":"function"},{"inputs":[],"name":"verifier","outputs":[{"internalType":"contract IVerifierProxy","name":"","type":"address"}],"stateMutability":"view","type":"function"},{"inputs":[{"internalType":"address","name":"token","type":"address"},{"internalType":"address","name":"receiver","type":"address"},{"internalType":"uint256","name":"amount","type":"uint256"}],"name":"withdraw","outputs":[],"stateMutability":"nonpayable","type":"function"},{"inputs":[{"internalType":"address","name":"receiver","type":"address"},{"internalType":"uint256","name":"amount","type":"uint256"}],"name":"withdrawETH","outputs":[],"stateMutability":"nonpayable","type":"function"}],"evm":{"bytecode":{"linkReferences":{},"object":"608060405234801561001057600080fd5b50613ca9806100206000396000f3fe6080604052600436106101665760003560e01c80634b56a42e116100d1578063a217fddf1161008a578063ca42aeb711610064578063ca42aeb71461048b578063cd7978d7146104ab578063d547741f146104cb578063d9caed12146104eb57600080fd5b8063a217fddf14610426578063b71624b51461043b578063c0ccbc9a1461046357600080fd5b80634b56a42e1461035c5780637250b7841461037c578063784643811461039157806388ebd732146103a457806391d14854146103c45780639d2e151f146103e457600080fd5b80632f2ff15d116101235780632f2ff15d1461028e57806336568abe146102ae5780633ebb33e3146102ce57806340691db4146102ee5780634585e33b1461031c5780634782f7791461033c57600080fd5b806301ffc9a71461016b57806308c9e24e146101a05780631b83ca1e146101e05780631d16d9a014610215578063248a9ca3146102175780632b7ac3f314610256575b600080fd5b34801561017757600080fd5b5061018b6101863660046124e9565b61050b565b60405190151581526020015b60405180910390f35b3480156101ac57600080fd5b506101d3604051806040016040528060078152602001666665656449447360c81b81525081565b6040516101979190612563565b3480156101ec57600080fd5b506101d360405180604001604052806009815260200168074696d657374616d760bc1b81525081565b005b34801561022357600080fd5b50610248610232366004612576565b6000908152600160208190526040909120015490565b604051908152602001610197565b34801561026257600080fd5b50600254610276906001600160a01b031681565b6040516001600160a01b039091168152602001610197565b34801561029a57600080fd5b506102156102a93660046125a4565b610542565b3480156102ba57600080fd5b506102156102c93660046125a4565b61056d565b3480156102da57600080fd5b506102156102e9366004612726565b6105f0565b3480156102fa57600080fd5b5061030e610309366004612775565b610623565b6040516101979291906127d7565b34801561032857600080fd5b50610215610337366004612833565b6108e2565b34801561034857600080fd5b50610215610357366004612874565b610aaf565b34801561036857600080fd5b5061030e6103773660046128a0565b610af0565b34801561038857600080fd5b5061018b600181565b61021561039f366004612a4a565b610d59565b3480156103b057600080fd5b5061030e6103bf3660046125a4565b610fbd565b3480156103d057600080fd5b5061018b6103df3660046125a4565b610fd7565b3480156103f057600080fd5b506104146103ff366004612b60565b60046020526000908152604090205460ff1681565b60405160ff9091168152602001610197565b34801561043257600080fd5b50610248600081565b34801561044757600080fd5b50610276737ce298ad682be6b8e74c2d3154a0ece3b2461a0b81565b34801561046f57600080fd5b50610276733ecd1eb4742823f4c9ea35504994764305ca324781565b34801561049757600080fd5b506102156104a6366004612b9c565b611002565b3480156104b757600080fd5b506101d36104c6366004612b60565b61103b565b3480156104d757600080fd5b506102156104e63660046125a4565b6110d5565b3480156104f757600080fd5b50610215610506366004612bca565b6110fb565b60006001600160e01b03198216637965db0b60e01b148061053c57506301ffc9a760e01b6001600160e01b03198316145b92915050565b6000828152600160208190526040909120015461055e8161111a565b6105688383611127565b505050565b6001600160a01b03811633146105e25760405162461bcd60e51b815260206004820152602f60248201527f416363657373436f6e74726f6c3a2063616e206f6e6c792072656e6f756e636560448201526e103937b632b9903337b91039b2b63360891b60648201526084015b60405180910390fd5b6105ec8282611192565b5050565b60006105fb8161111a565b6001600160a01b038316600090815260036020526040902061061d8382612c8b565b50505050565b604080516060818101835260008083526020830181905292820181905290838060200190518101906106559190612d4a565b6001600160a01b03168082526040805163344b6f7960e21b8152905163d12dbde4916004808201926020929091908290030181865afa15801561069c573d6000803e3d6000fd5b505050506040513d601f19601f820116820180604052508101906106c09190612d4a565b6001600160a01b03166106d960c0870160a08801612b60565b6001600160a01b0316036106f3576003602082015261072a565b6004600061070760c0880160a08901612b60565b6001600160a01b031681526020808201929092526040016000205460ff16908201525b604080516001808252818301909252600091816020015b606081526020019060019003908161074157505082516001600160a01b0316600090815260036020526040902080549192509061077d90612c0b565b80601f01602080910402602001604051908101604052809291908181526020018280546107a990612c0b565b80156107f65780601f106107cb576101008083540402835291602001916107f6565b820191906000526020600020905b8154815290600101906020018083116107d957829003601f168201915b50505050508160008151811061080e5761080e612d72565b602090810291909101015261082660e0870187612d88565b8080601f0160208091040260200160405190810160405280939291908181526020018383808284376000920191909152505050506040808401919091528051808201825260078152666665656449447360c81b602080830191909152825180840184526009815268074696d657374616d760bc1b8183015292519192849290918a810135916108b791889101612dce565b60408051601f198184030181529082905263782af25160e11b82526105d99594939291600401612e08565b6000808080806108f486880188612eb4565b9450945094509450945060008560008151811061091357610913612d72565b602002602001015190506000610928826111f9565b80602001905181019061093b9190612fe7565b905060021960ff861601610a415760008480602001905181019061095f91906130a1565b905061096a8761139e565b6001600160a01b031663fcb51252886001600160a01b031663e7d015f26040518163ffffffff1660e01b8152600401602060405180830381865afa1580156109b6573d6000803e3d6000fd5b505050506040513d601f19601f820116820180604052508101906109da9190612d4a565b6109e48a86611463565b856040015163ffffffff16856040518563ffffffff1660e01b8152600401610a0f9493929190613217565b600060405180830381600087803b158015610a2957600080fd5b505af1925050508015610a3a575060015b5050610aa4565b610a4b868261121d565b604051634585e33b60e01b81526001600160a01b03841690634585e33b90610a77908790600401612563565b600060405180830381600087803b158015610a9157600080fd5b505af1925050508015610aa2575060015b505b505050505050505050565b6000610aba8161111a565b6040516001600160a01b0384169083156108fc029084906000818181858888f1935050505015801561061d573d6000803e3d6000fd5b600060606000610b5887876000818110610b0c57610b0c612d72565b9050602002810190610b1e9190612d88565b8080601f0160208091040260200160405190810160405280939291908181526020018383808284376000920191909152506111f992505050565b806020019051810190610b6b9190612fe7565b90506000610b7b85870187613244565b905060606000600360ff16836020015160ff1603610cbf5760008360400151806020019051810190610bad9190613482565b9050610bb881611554565b96508615610cb957604080516001808252818301909252600091816020015b6040805160a081018252600080825260208083018290529282018190526060820181905260808201528252600019909201910181610bd75790505090506040518060a0016040528083600001516001600160a01b031681526020018360a00151606001516001600160a01b031681526020018360a0015161012001516001600160401b031681526020018360600151151581526020018360200151151581525081600081518110610c8a57610c8a612d72565b602002602001018190525080604051602001610ca69190613550565b6040516020818303038152906040529350505b50610d1c565b50737ce298ad682be6b8e74c2d3154a0ece3b2461a0b610cdf848461158f565b909650915085610d0557610cfb8460c001518460000151611871565b9096509150610d1c565b50733ecd1eb4742823f4c9ea35504994764305ca32475b8251602080850151604051610d3b938e938e939192889188910161358c565b60405160208183030381529060405294505050505094509492505050565b600054610100900460ff1615808015610d795750600054600160ff909116105b80610d935750303b158015610d93575060005460ff166001145b610df65760405162461bcd60e51b815260206004820152602e60248201527f496e697469616c697a61626c653a20636f6e747261637420697320616c72656160448201526d191e481a5b9a5d1a585b1a5e995960921b60648201526084016105d9565b6000805460ff191660011790558015610e19576000805461ff0019166101001790555b610e24600033611127565b8351855114610e3257600080fd5b8151835114610e4057600080fd5b600280546001600160a01b0319166001600160a01b03881617905560005b8551811015610eea57848181518110610e7957610e79612d72565b602002602001015160046000888481518110610e9757610e97612d72565b60200260200101516001600160a01b03166001600160a01b0316815260200190815260200160002060006101000a81548160ff021916908360ff1602179055508080610ee290613677565b915050610e5e565b5060005b8351811015610f6e57828181518110610f0957610f09612d72565b602002602001015160036000868481518110610f2757610f27612d72565b60200260200101516001600160a01b03166001600160a01b031681526020019081526020016000209081610f5b9190612c8b565b5080610f6681613677565b915050610eee565b508015610fb5576000805461ff0019169055604051600181527f7f26b83ff96e1f2b6a682f133852f6798a09c465da95921460cefb38474024989060200160405180910390a15b505050505050565b60006060610fcb8484611871565b915091505b9250929050565b60009182526001602090815260408084206001600160a01b0393909316845291905290205460ff1690565b600061100d8161111a565b506001600160a01b03919091166000908152600460205260409020805460ff191660ff909216919091179055565b6003602052600090815260409020805461105490612c0b565b80601f016020809104026020016040519081016040528092919081815260200182805461108090612c0b565b80156110cd5780601f106110a2576101008083540402835291602001916110cd565b820191906000526020600020905b8154815290600101906020018083116110b057829003601f168201915b505050505081565b600082815260016020819052604090912001546110f18161111a565b6105688383611192565b60006111068161111a565b61061d6001600160a01b0385168484611ad0565b6111248133611b22565b50565b6111318282610fd7565b6105ec5760008281526001602081815260408084206001600160a01b0386168086529252808420805460ff19169093179092559051339285917f2f8788117e7eff1d82e926ec794901d17c78024a50270940304540a733656f0d9190a45050565b61119c8282610fd7565b156105ec5760008281526001602090815260408083206001600160a01b0385168085529252808320805460ff1916905551339285917ff6391f5c32d9c69d2a47ea670b442974b53935d1edc7fd64eb21e047a839171b9190a45050565b606060008280602001905181019061121191906136d5565b50919695505050505050565b60408051600180825281830190925260009160208083019080368337019050509050826001600160a01b031663e7d015f26040518163ffffffff1660e01b8152600401602060405180830381865afa15801561127d573d6000803e3d6000fd5b505050506040513d601f19601f820116820180604052508101906112a19190612d4a565b816000815181106112b4576112b4612d72565b6001600160a01b039290921660209283029190910190910152604080516001808252818301909252600091816020016020820280368337019050509050611307846113028560c00151611b7b565b611b95565b8160008151811061131a5761131a612d72565b60200260200101818152505061132f8461139e565b6001600160a01b031663782661bc8383866040015163ffffffff166040518463ffffffff1660e01b8152600401611368939291906137ea565b600060405180830381600087803b15801561138257600080fd5b505af1925050508015611393575060015b1561061d5750505050565b6000816001600160a01b031663741bef1a6040518163ffffffff1660e01b8152600401602060405180830381865afa1580156113de573d6000803e3d6000fd5b505050506040513d601f19601f820116820180604052508101906114029190612d4a565b6001600160a01b0316633a849c216040518163ffffffff1660e01b8152600401602060405180830381865afa15801561143f573d6000803e3d6000fd5b505050506040513d601f19601f8201168201806040525081019061053c9190612d4a565b60408051600180825281830190925260009182919060208083019080368337019050509050836001600160a01b031663e7d015f26040518163ffffffff1660e01b8152600401602060405180830381865afa1580156114c6573d6000803e3d6000fd5b505050506040513d601f19601f820116820180604052508101906114ea9190612d4a565b816000815181106114fd576114fd612d72565b6001600160a01b03929092166020928302919091019091015260408051600180825281830190925260009181602001602082028036833701905050905061154b856113028660c00151611b7b565b95945050505050565b600060028260c00151511015801561053c575060008260c0015160018151811061158057611580612d72565b60200260200101511192915050565b6000606060005b60028110156118695760005b60028110156118565760006115c28760c001518760000151848614611d6f565b90506000836001146116395786600001516001600160a01b03166305ba9ae96040518163ffffffff1660e01b8152600401602060405180830381865afa158015611610573d6000803e3d6000fd5b505050506040513d601f19601f820116820180604052508101906116349190612d4a565b61169f565b86600001516001600160a01b0316637b2fd1e56040518163ffffffff1660e01b8152600401602060405180830381865afa15801561167b573d6000803e3d6000fd5b505050506040513d601f19601f8201168201806040525081019061169f9190612d4a565b6040516314d102a960e01b81526000600482015261270f6024820152600185146044820152606481018490526001600160a01b0391909116906314d102a990608401600060405180830381865afa1580156116fe573d6000803e3d6000fd5b505050506040513d6000823e601f3d908101601f19168201604052611726919081019061384a565b80519091501561184157604080516001808252818301909252600091602080830190803683370190505090508160008151811061176557611765612d72565b6020026020010151606001518260008151811061178457611784612d72565b602002602001015161012001516040516020016117cc92919060609290921b6bffffffffffffffffffffffff1916825260c01b6001600160c01b0319166014820152601c0190565b60405160208183030381529060405280519060200120816000815181106117f5576117f5612d72565b6020026020010181815250506001886000015186600114866001148460405160200161182494939291906138d8565b604051602081830303815290604052965096505050505050610fd0565b5050808061184e90613677565b9150506115a2565b508061186181613677565b915050611596565b509250929050565b6040805160008082526001602080840182815260608086018752939593949386939192908501908036833701905050905060005b6002811015611ac6576000866001600160a01b031663ac0b05a66040518163ffffffff1660e01b8152600401602060405180830381865afa1580156118ee573d6000803e3d6000fd5b505050506040513d601f19601f820116820180604052508101906119129190612d4a565b604051638dd3fde360e01b81526000600482015261270f60248201526001841460448201526001600160a01b039190911690638dd3fde390606401600060405180830381865afa15801561196a573d6000803e3d6000fd5b505050506040513d6000823e601f3d908101601f191682016040526119929190810190613942565b905060006119a289898515611d6f565b905060005b8251811015611ab05760006119da8483815181106119c7576119c7612d72565b60200260200101518b8760011486611e84565b90508015611a9d578382815181106119f4576119f4612d72565b602002602001015186600081518110611a0f57611a0f612d72565b60200260200101906001600160a01b031690816001600160a01b03168152505084600103611a6d5760018a8789604051602001611a4e939291906139d0565b6040516020818303038152906040529850985050505050505050610fd0565b60018a88868581518110611a8357611a83612d72565b6020026020010151604051602001611a4e93929190613a06565b5080611aa881613677565b9150506119a7565b5050508080611abe90613677565b9150506118a5565b5050509250929050565b604080516001600160a01b038416602482015260448082018490528251808303909101815260649091019091526020810180516001600160e01b031663a9059cbb60e01b179052610568908490611ff2565b611b2c8282610fd7565b6105ec57611b39816120c4565b611b448360206120d6565b604051602001611b55929190613a3b565b60408051601f198184030181529082905262461bcd60e51b82526105d991600401612563565b600061053c6001600160c01b03831664e8d4a51000613ab0565b600080611ba184612278565b6001600160a01b031663c54e44eb6040518163ffffffff1660e01b8152600401602060405180830381865afa158015611bde573d6000803e3d6000fd5b505050506040513d601f19601f82011682018060405250810190611c029190612d4a565b90506000611c0f85612278565b604051634ee5a88d60e11b81526001600160a01b0384811660048301529190911690639dcb511a90602401602060405180830381865afa158015611c57573d6000803e3d6000fd5b505050506040513d601f19601f82011682018060405250810190611c7b9190612d4a565b90506000816001600160a01b03166350d25bcd6040518163ffffffff1660e01b8152600401602060405180830381865afa158015611cbd573d6000803e3d6000fd5b505050506040513d601f19601f82011682018060405250810190611ce19190613acf565b905080826001600160a01b031663313ce5676040518163ffffffff1660e01b8152600401602060405180830381865afa158015611d22573d6000803e3d6000fd5b505050506040513d601f19601f82011682018060405250810190611d469190613ae8565b611d5190600a613be1565b611d5b9087613ab0565b611d659190613bf0565b9695505050505050565b6000611d7e8361130286611b7b565b90506000611d8b84612278565b6001600160a01b03166376d69760856001600160a01b031663e7d015f26040518163ffffffff1660e01b8152600401602060405180830381865afa158015611dd7573d6000803e3d6000fd5b505050506040513d601f19601f82011682018060405250810190611dfb9190612d4a565b6040516001600160e01b031960e084901b1681526001600160a01b0390911660048201528515156024820152604401602060405180830381865afa158015611e47573d6000803e3d6000fd5b505050506040513d601f19601f82011682018060405250810190611e6b9190613acf565b905080821083151503611e7c578091505b509392505050565b6000611e8f84612319565b6001600160a01b0316631f21756a868686886001600160a01b031663ac0b05a66040518163ffffffff1660e01b8152600401602060405180830381865afa158015611ede573d6000803e3d6000fd5b505050506040513d601f19601f82011682018060405250810190611f029190612d4a565b896001600160a01b031663f29ebf616040518163ffffffff1660e01b8152600401602060405180830381865afa158015611f40573d6000803e3d6000fd5b505050506040513d601f19601f82011682018060405250810190611f649190612d4a565b60405160e087901b6001600160e01b03191681526001600160a01b0395861660048201529385166024850152911515604484015283166064830152909116608482015260a4810185905260c401602060405180830381865afa158015611fce573d6000803e3d6000fd5b505050506040513d601f19601f8201168201806040525081019061154b9190613acf565b6000612047826040518060400160405280602081526020017f5361666545524332303a206c6f772d6c6576656c2063616c6c206661696c6564815250856001600160a01b03166123599092919063ffffffff16565b80519091501561056857808060200190518101906120659190613c12565b6105685760405162461bcd60e51b815260206004820152602a60248201527f5361666545524332303a204552433230206f7065726174696f6e20646964206e6044820152691bdd081cdd58d8d9595960b21b60648201526084016105d9565b606061053c6001600160a01b03831660145b606060006120e5836002613ab0565b6120f0906002613c2d565b6001600160401b03811115612107576121076125d4565b6040519080825280601f01601f191660200182016040528015612131576020820181803683370190505b509050600360fc1b8160008151811061214c5761214c612d72565b60200101906001600160f81b031916908160001a905350600f60fb1b8160018151811061217b5761217b612d72565b60200101906001600160f81b031916908160001a905350600061219f846002613ab0565b6121aa906001613c2d565b90505b6001811115612222576f181899199a1a9b1b9c1cb0b131b232b360811b85600f16601081106121de576121de612d72565b1a60f81b8282815181106121f4576121f4612d72565b60200101906001600160f81b031916908160001a90535060049490941c9361221b81613c40565b90506121ad565b5083156122715760405162461bcd60e51b815260206004820181905260248201527f537472696e67733a20686578206c656e67746820696e73756666696369656e7460448201526064016105d9565b9392505050565b6000816001600160a01b031663741bef1a6040518163ffffffff1660e01b8152600401602060405180830381865afa1580156122b8573d6000803e3d6000fd5b505050506040513d601f19601f820116820180604052508101906122dc9190612d4a565b6001600160a01b031663add37b7b6040518163ffffffff1660e01b8152600401602060405180830381865afa15801561143f573d6000803e3d6000fd5b6000816001600160a01b031663b894300d6040518163ffffffff1660e01b8152600401602060405180830381865afa15801561143f573d6000803e3d6000fd5b60606123688484600085612370565b949350505050565b6060824710156123d15760405162461bcd60e51b815260206004820152602660248201527f416464726573733a20696e73756666696369656e742062616c616e636520666f6044820152651c8818d85b1b60d21b60648201526084016105d9565b600080866001600160a01b031685876040516123ed9190613c57565b60006040518083038185875af1925050503d806000811461242a576040519150601f19603f3d011682016040523d82523d6000602084013e61242f565b606091505b50915091506124408783838761244b565b979650505050505050565b606083156124ba5782516000036124b3576001600160a01b0385163b6124b35760405162461bcd60e51b815260206004820152601d60248201527f416464726573733a2063616c6c20746f206e6f6e2d636f6e747261637400000060448201526064016105d9565b5081612368565b61236883838151156124cf5781518083602001fd5b8060405162461bcd60e51b81526004016105d99190612563565b6000602082840312156124fb57600080fd5b81356001600160e01b03198116811461227157600080fd5b60005b8381101561252e578181015183820152602001612516565b50506000910152565b6000815180845261254f816020860160208601612513565b601f01601f19169290920160200192915050565b6020815260006122716020830184612537565b60006020828403121561258857600080fd5b5035919050565b6001600160a01b038116811461112457600080fd5b600080604083850312156125b757600080fd5b8235915060208301356125c98161258f565b809150509250929050565b634e487b7160e01b600052604160045260246000fd5b60405160e081016001600160401b038111828210171561260c5761260c6125d4565b60405290565b60405160a081016001600160401b038111828210171561260c5761260c6125d4565b6040516101a081016001600160401b038111828210171561260c5761260c6125d4565b604051606081016001600160401b038111828210171561260c5761260c6125d4565b604051601f8201601f191681016001600160401b03811182821017156126a1576126a16125d4565b604052919050565b60006001600160401b038211156126c2576126c26125d4565b50601f01601f191660200190565b600082601f8301126126e157600080fd5b81356126f46126ef826126a9565b612679565b81815284602083860101111561270957600080fd5b816020850160208301376000918101602001919091529392505050565b6000806040838503121561273957600080fd5b82356127448161258f565b915060208301356001600160401b0381111561275f57600080fd5b61276b858286016126d0565b9150509250929050565b6000806040838503121561278857600080fd5b82356001600160401b038082111561279f57600080fd5b9084019061010082870312156127b457600080fd5b909250602084013590808211156127ca57600080fd5b5061276b858286016126d0565b82151581526040602082015260006123686040830184612537565b60008083601f84011261280457600080fd5b5081356001600160401b0381111561281b57600080fd5b602083019150836020828501011115610fd057600080fd5b6000806020838503121561284657600080fd5b82356001600160401b0381111561285c57600080fd5b612868858286016127f2565b90969095509350505050565b6000806040838503121561288757600080fd5b82356128928161258f565b946020939093013593505050565b600080600080604085870312156128b657600080fd5b84356001600160401b03808211156128cd57600080fd5b818701915087601f8301126128e157600080fd5b8135818111156128f057600080fd5b8860208260051b850101111561290557600080fd5b60209283019650945090860135908082111561292057600080fd5b5061292d878288016127f2565b95989497509550505050565b60006001600160401b03821115612952576129526125d4565b5060051b60200190565b600082601f83011261296d57600080fd5b8135602061297d6126ef83612939565b82815260059290921b8401810191818101908684111561299c57600080fd5b8286015b848110156129c05780356129b38161258f565b83529183019183016129a0565b509695505050505050565b600082601f8301126129dc57600080fd5b813560206129ec6126ef83612939565b82815260059290921b84018101918181019086841115612a0b57600080fd5b8286015b848110156129c05780356001600160401b03811115612a2e5760008081fd5b612a3c8986838b01016126d0565b845250918301918301612a0f565b600080600080600060a08688031215612a6257600080fd5b8535612a6d8161258f565b94506020868101356001600160401b0380821115612a8a57600080fd5b612a968a838b0161295c565b96506040890135915080821115612aac57600080fd5b818901915089601f830112612ac057600080fd5b8135612ace6126ef82612939565b81815260059190911b8301840190848101908c831115612aed57600080fd5b938501935b82851015612b0b57843582529385019390850190612af2565b975050506060890135925080831115612b2357600080fd5b612b2f8a848b0161295c565b94506080890135925080831115612b4557600080fd5b5050612b53888289016129cb565b9150509295509295909350565b600060208284031215612b7257600080fd5b81356122718161258f565b60ff8116811461112457600080fd5b8035612b9781612b7d565b919050565b60008060408385031215612baf57600080fd5b8235612bba8161258f565b915060208301356125c981612b7d565b600080600060608486031215612bdf57600080fd5b8335612bea8161258f565b92506020840135612bfa8161258f565b929592945050506040919091013590565b600181811c90821680612c1f57607f821691505b602082108103612c3f57634e487b7160e01b600052602260045260246000fd5b50919050565b601f82111561056857600081815260208120601f850160051c81016020861015612c6c5750805b601f850160051c820191505b81811015610fb557828155600101612c78565b81516001600160401b03811115612ca457612ca46125d4565b612cb881612cb28454612c0b565b84612c45565b602080601f831160018114612ced5760008415612cd55750858301515b600019600386901b1c1916600185901b178555610fb5565b600085815260208120601f198616915b82811015612d1c57888601518255948401946001909101908401612cfd565b5085821015612d3a5787850151600019600388901b60f8161c191681555b5050505050600190811b01905550565b600060208284031215612d5c57600080fd5b81516122718161258f565b8051612b978161258f565b634e487b7160e01b600052603260045260246000fd5b6000808335601e19843603018112612d9f57600080fd5b8301803591506001600160401b03821115612db957600080fd5b602001915036819003821315610fd057600080fd5b6020815260018060a01b03825116602082015260ff6020830151166040820152600060408301516060808401526123686080840182612537565b60a081526000612e1b60a0830188612537565b6020838203818501528188518084528284019150828160051b850101838b0160005b83811015612e6b57601f19878403018552612e59838351612537565b94860194925090850190600101612e3d565b50508681036040880152612e7f818b612537565b9450505050508460608401528281036080840152612e9d8185612537565b98975050505050505050565b8035612b978161258f565b600080600080600060a08688031215612ecc57600080fd5b85356001600160401b0380821115612ee357600080fd5b818801915088601f830112612ef757600080fd5b81356020612f076126ef83612939565b82815260059290921b8401810191818101908c841115612f2657600080fd5b8286015b84811015612f5e57803586811115612f425760008081fd5b612f508f86838b01016126d0565b845250918301918301612f2a565b509950612f6e90508a8201612ea9565b97505050612f7e60408901612b8c565b94506060880135915080821115612f9457600080fd5b50612fa1888289016126d0565b925050612fb060808701612ea9565b90509295509295909350565b805163ffffffff81168114612b9757600080fd5b80516001600160c01b0381168114612b9757600080fd5b600060e08284031215612ff957600080fd5b6130016125ea565b8251815261301160208401612fbc565b602082015261302260408401612fbc565b604082015261303360608401612fd0565b606082015261304460808401612fd0565b608082015261305560a08401612fbc565b60a082015260c08301518060170b811461306e57600080fd5b60c08201529392505050565b80516001600160401b0381168114612b9757600080fd5b80518015158114612b9757600080fd5b600060208083850312156130b457600080fd5b82516001600160401b038111156130ca57600080fd5b8301601f810185136130db57600080fd5b80516130e96126ef82612939565b81815260a0918202830184019184820191908884111561310857600080fd5b938501935b8385101561318d5780858a0312156131255760008081fd5b61312d612612565b85516131388161258f565b8152858701516131478161258f565b81880152604061315887820161307a565b908201526060613169878201613091565b90820152608061317a878201613091565b908201528352938401939185019161310d565b50979650505050505050565b600081518084526020808501945080840160005b8381101561320c57815180516001600160a01b0390811689528482015116848901526040808201516001600160401b03169089015260608082015115159089015260809081015115159088015260a090960195908201906001016131ad565b509495945050505050565b60018060a01b0385168152836020820152826040820152608060608201526000611d656080830184613199565b60006020828403121561325657600080fd5b81356001600160401b038082111561326d57600080fd5b908301906060828603121561328157600080fd5b60405160608101818110838211171561329c5761329c6125d4565b60405282356132aa8161258f565b815260208301356132ba81612b7d565b60208201526040830135828111156132d157600080fd5b6132dd878286016126d0565b60408301525095945050505050565b8051612b9781612b7d565b805165ffffffffffff81168114612b9757600080fd5b80516fffffffffffffffffffffffffffffffff81168114612b9757600080fd5b60006101a0828403121561334057600080fd5b613348612634565b9050613353826132ec565b815261336160208301612fbc565b6020820152613372604083016132ec565b604082015261338360608301612d67565b6060820152613394608083016132f7565b60808201526133a560a0830161330d565b60a08201526133b660c0830161330d565b60c08201526133c760e0830161330d565b60e08201526101006133da81840161330d565b908201526101206133ec83820161307a565b908201526101406133fe83820161307a565b9082015261016061341083820161330d565b818301525061018080830151818301525092915050565b600082601f83011261343857600080fd5b815160206134486126ef83612939565b82815260059290921b8401810191818101908684111561346757600080fd5b8286015b848110156129c0578051835291830191830161346b565b60006020828403121561349457600080fd5b81516001600160401b03808211156134ab57600080fd5b9083019061026082860312156134c057600080fd5b6134c86125ea565b6134d183612d67565b81526134df60208401613091565b6020820152604083015160408201526134fa60608401613091565b606082015261350b60808401613091565b608082015261351d8660a0850161332d565b60a08201526102408301518281111561353557600080fd5b61354187828601613427565b60c08301525095945050505050565b6020815260006122716020830184613199565b81835281816020850137506000828201602090810191909152601f909101601f19169091010190565b60a08082528101869052600060c0600588901b8301810190830189835b8a81101561361c5785840360bf190183528135368d9003601e190181126135cf57600080fd5b8c0160208181019135906001600160401b038211156135ed57600080fd5b8136038313156135fc57600080fd5b613607878385613563565b965094850194939093019250506001016135a9565b5050506001600160a01b038716602084015260ff8616604084015282810360608401526136498186612537565b91505061244060808301846001600160a01b03169052565b634e487b7160e01b600052601160045260246000fd5b60006001820161368957613689613661565b5060010190565b600082601f8301126136a157600080fd5b81516136af6126ef826126a9565b8181528460208386010111156136c457600080fd5b612368826020830160208701612513565b600080600080600060e086880312156136ed57600080fd5b86601f8701126136fc57600080fd5b613704612657565b80606088018981111561371657600080fd5b885b81811015613730578051845260209384019301613718565b505190965090506001600160401b038082111561374c57600080fd5b61375889838a01613690565b9550608088015191508082111561376e57600080fd5b61377a89838a01613427565b945060a088015191508082111561379057600080fd5b5061379d88828901613427565b92505060c086015190509295509295909350565b600081518084526020808501945080840160005b8381101561320c5781516001600160a01b0316875295820195908201906001016137c5565b6060815260006137fd60608301866137b1565b82810360208481019190915285518083528682019282019060005b8181101561383457845183529383019391830191600101613818565b5050809350505050826040830152949350505050565b6000602080838503121561385d57600080fd5b82516001600160401b0381111561387357600080fd5b8301601f8101851361388457600080fd5b80516138926126ef82612939565b8181526101a091820283018401918482019190888411156138b257600080fd5b938501935b8385101561318d576138c9898661332d565b835293840193918501916138b7565b6001600160a01b0385168152831515602080830191909152831515604083015260806060830181905283519083018190526000918481019160a0850190845b8181101561393357845183529383019391830191600101613917565b50909998505050505050505050565b6000602080838503121561395557600080fd5b82516001600160401b0381111561396b57600080fd5b8301601f8101851361397c57600080fd5b805161398a6126ef82612939565b81815260059190911b820183019083810190878311156139a957600080fd5b928401925b828410156124405783516139c18161258f565b825292840192908401906139ae565b6001600160a01b03841681526060602082018190526000906139f4908301856137b1565b8281036040840152611d6581856137b1565b600060018060a01b03808616835260606020840152613a2860608401866137b1565b9150808416604084015250949350505050565b7f416363657373436f6e74726f6c3a206163636f756e7420000000000000000000815260008351613a73816017850160208801612513565b7001034b99036b4b9b9b4b733903937b6329607d1b6017918401918201528351613aa4816028840160208801612513565b01602801949350505050565b6000816000190483118215151615613aca57613aca613661565b500290565b600060208284031215613ae157600080fd5b5051919050565b600060208284031215613afa57600080fd5b815161227181612b7d565b600181815b80851115611869578160001904821115613b2657613b26613661565b80851615613b3357918102915b93841c9390800290613b0a565b600082613b4f5750600161053c565b81613b5c5750600061053c565b8160018114613b725760028114613b7c57613b98565b600191505061053c565b60ff841115613b8d57613b8d613661565b50506001821b61053c565b5060208310610133831016604e8410600b8410161715613bbb575081810a61053c565b613bc58383613b05565b8060001904821115613bd957613bd9613661565b029392505050565b600061227160ff841683613b40565b600082613c0d57634e487b7160e01b600052601260045260246000fd5b500490565b600060208284031215613c2457600080fd5b61227182613091565b8082018082111561053c5761053c613661565b600081613c4f57613c4f613661565b506000190190565b60008251613c69818460208701612513565b919091019291505056fea2646970667358221220d0d8affb56693ac9f74d1e3e9c84e6706fb92a19d6b8bb1497815be3f8a3e21964736f6c63430008100033","opcodes":"PUSH1 0x80 PUSH1 0x40 MSTORE CALLVALUE DUP1 ISZERO PUSH2 0x10 JUMPI PUSH1 0x0 DUP1 REVERT JUMPDEST POP PUSH2 0x3CA9 DUP1 PUSH2 0x20 PUSH1 0x0 CODECOPY PUSH1 0x0 RETURN INVALID PUSH1 0x80 PUSH1 0x40 MSTORE PUSH1 0x4 CALLDATASIZE LT PUSH2 0x166 JUMPI PUSH1 0x0 CALLDATALOAD PUSH1 0xE0 SHR DUP1 PUSH4 0x4B56A42E GT PUSH2 0xD1 JUMPI DUP1 PUSH4 0xA217FDDF GT PUSH2 0x8A JUMPI DUP1 PUSH4 0xCA42AEB7 GT PUSH2 0x64 JUMPI DUP1 PUSH4 0xCA42AEB7 EQ PUSH2 0x48B JUMPI DUP1 PUSH4 0xCD7978D7 EQ PUSH2 0x4AB JUMPI DUP1 PUSH4 0xD547741F EQ PUSH2 0x4CB JUMPI DUP1 PUSH4 0xD9CAED12 EQ PUSH2 0x4EB JUMPI PUSH1 0x0 DUP1 REVERT JUMPDEST DUP1 PUSH4 0xA217FDDF EQ PUSH2 0x426 JUMPI DUP1 PUSH4 0xB71624B5 EQ PUSH2 0x43B JUMPI DUP1 PUSH4 0xC0CCBC9A EQ PUSH2 0x463 JUMPI PUSH1 0x0 DUP1 REVERT JUMPDEST DUP1 PUSH4 0x4B56A42E EQ PUSH2 0x35C JUMPI DUP1 PUSH4 0x7250B784 EQ PUSH2 0x37C JUMPI DUP1 PUSH4 0x78464381 EQ PUSH2 0x391 JUMPI DUP1 PUSH4 0x88EBD732 EQ PUSH2 0x3A4 JUMPI DUP1 PUSH4 0x91D14854 EQ PUSH2 0x3C4 JUMPI DUP1 PUSH4 0x9D2E151F EQ PUSH2 0x3E4 JUMPI PUSH1 0x0 DUP1 REVERT JUMPDEST DUP1 PUSH4 0x2F2FF15D GT PUSH2 0x123 JUMPI DUP1 PUSH4 0x2F2FF15D EQ PUSH2 0x28E JUMPI DUP1 PUSH4 0x36568ABE EQ PUSH2 0x2AE JUMPI DUP1 PUSH4 0x3EBB33E3 EQ PUSH2 0x2CE JUMPI DUP1 PUSH4 0x40691DB4 EQ PUSH2 0x2EE JUMPI DUP1 PUSH4 0x4585E33B EQ PUSH2 0x31C JUMPI DUP1 PUSH4 0x4782F779 EQ PUSH2 0x33C JUMPI PUSH1 0x0 DUP1 REVERT JUMPDEST DUP1 PUSH4 0x1FFC9A7 EQ PUSH2 0x16B JUMPI DUP1 PUSH4 0x8C9E24E EQ PUSH2 0x1A0 JUMPI DUP1 PUSH4 0x1B83CA1E EQ PUSH2 0x1E0 JUMPI DUP1 PUSH4 0x1D16D9A0 EQ PUSH2 0x215 JUMPI DUP1 PUSH4 0x248A9CA3 EQ PUSH2 0x217 JUMPI DUP1 PUSH4 0x2B7AC3F3 EQ PUSH2 0x256 JUMPI JUMPDEST PUSH1 0x0 DUP1 REVERT JUMPDEST CALLVALUE DUP1 ISZERO PUSH2 0x177 JUMPI PUSH1 0x0 DUP1 REVERT JUMPDEST POP PUSH2 0x18B PUSH2 0x186 CALLDATASIZE PUSH1 0x4 PUSH2 0x24E9 JUMP JUMPDEST PUSH2 0x50B JUMP JUMPDEST PUSH1 0x40 MLOAD SWAP1 ISZERO ISZERO DUP2 MSTORE PUSH1 0x20 ADD JUMPDEST PUSH1 0x40 MLOAD DUP1 SWAP2 SUB SWAP1 RETURN JUMPDEST CALLVALUE DUP1 ISZERO PUSH2 0x1AC JUMPI PUSH1 0x0 DUP1 REVERT JUMPDEST POP PUSH2 0x1D3 PUSH1 0x40 MLOAD DUP1 PUSH1 0x40 ADD PUSH1 0x40 MSTORE DUP1 PUSH1 0x7 DUP2 MSTORE PUSH1 0x20 ADD PUSH7 0x66656564494473 PUSH1 0xC8 SHL DUP2 MSTORE POP DUP2 JUMP JUMPDEST PUSH1 0x40 MLOAD PUSH2 0x197 SWAP2 SWAP1 PUSH2 0x2563 JUMP JUMPDEST CALLVALUE DUP1 ISZERO PUSH2 0x1EC JUMPI PUSH1 0x0 DUP1 REVERT JUMPDEST POP PUSH2 0x1D3 PUSH1 0x40 MLOAD DUP1 PUSH1 0x40 ADD PUSH1 0x40 MSTORE DUP1 PUSH1 0x9 DUP2 MSTORE PUSH1 0x20 ADD PUSH9 0x74696D657374616D7 PUSH1 0xBC SHL DUP2 MSTORE POP DUP2 JUMP JUMPDEST STOP JUMPDEST CALLVALUE DUP1 ISZERO PUSH2 0x223 JUMPI PUSH1 0x0 DUP1 REVERT JUMPDEST POP PUSH2 0x248 PUSH2 0x232 CALLDATASIZE PUSH1 0x4 PUSH2 0x2576 JUMP JUMPDEST PUSH1 0x0 SWAP1 DUP2 MSTORE PUSH1 0x1 PUSH1 0x20 DUP2 SWAP1 MSTORE PUSH1 0x40 SWAP1 SWAP2 KECCAK256 ADD SLOAD SWAP1 JUMP JUMPDEST PUSH1 0x40 MLOAD SWAP1 DUP2 MSTORE PUSH1 0x20 ADD PUSH2 0x197 JUMP JUMPDEST CALLVALUE DUP1 ISZERO PUSH2 0x262 JUMPI PUSH1 0x0 DUP1 REVERT JUMPDEST POP PUSH1 0x2 SLOAD PUSH2 0x276 SWAP1 PUSH1 0x1 PUSH1 0x1 PUSH1 0xA0 SHL SUB AND DUP2 JUMP JUMPDEST PUSH1 0x40 MLOAD PUSH1 0x1 PUSH1 0x1 PUSH1 0xA0 SHL SUB SWAP1 SWAP2 AND DUP2 MSTORE PUSH1 0x20 ADD PUSH2 0x197 JUMP JUMPDEST CALLVALUE DUP1 ISZERO PUSH2 0x29A JUMPI PUSH1 0x0 DUP1 REVERT JUMPDEST POP PUSH2 0x215 PUSH2 0x2A9 CALLDATASIZE PUSH1 0x4 PUSH2 0x25A4 JUMP JUMPDEST PUSH2 0x542 JUMP JUMPDEST CALLVALUE DUP1 ISZERO PUSH2 0x2BA JUMPI PUSH1 0x0 DUP1 REVERT JUMPDEST POP PUSH2 0x215 PUSH2 0x2C9 CALLDATASIZE PUSH1 0x4 PUSH2 0x25A4 JUMP JUMPDEST PUSH2 0x56D JUMP JUMPDEST CALLVALUE DUP1 ISZERO PUSH2 0x2DA JUMPI PUSH1 0x0 DUP1 REVERT JUMPDEST POP PUSH2 0x215 PUSH2 0x2E9 CALLDATASIZE PUSH1 0x4 PUSH2 0x2726 JUMP JUMPDEST PUSH2 0x5F0 JUMP JUMPDEST CALLVALUE DUP1 ISZERO PUSH2 0x2FA JUMPI PUSH1 0x0 DUP1 REVERT JUMPDEST POP PUSH2 0x30E PUSH2 0x309 CALLDATASIZE PUSH1 0x4 PUSH2 0x2775 JUMP JUMPDEST PUSH2 0x623 JUMP JUMPDEST PUSH1 0x40 MLOAD PUSH2 0x197 SWAP3 SWAP2 SWAP1 PUSH2 0x27D7 JUMP JUMPDEST CALLVALUE DUP1 ISZERO PUSH2 0x328 JUMPI PUSH1 0x0 DUP1 REVERT JUMPDEST POP PUSH2 0x215 PUSH2 0x337 CALLDATASIZE PUSH1 0x4 PUSH2 0x2833 JUMP JUMPDEST PUSH2 0x8E2 JUMP JUMPDEST CALLVALUE DUP1 ISZERO PUSH2 0x348 JUMPI PUSH1 0x0 DUP1 REVERT JUMPDEST POP PUSH2 0x215 PUSH2 0x357 CALLDATASIZE PUSH1 0x4 PUSH2 0x2874 JUMP JUMPDEST PUSH2 0xAAF JUMP JUMPDEST CALLVALUE DUP1 ISZERO PUSH2 0x368 JUMPI PUSH1 0x0 DUP1 REVERT JUMPDEST POP PUSH2 0x30E PUSH2 0x377 CALLDATASIZE PUSH1 0x4 PUSH2 0x28A0 JUMP JUMPDEST PUSH2 0xAF0 JUMP JUMPDEST CALLVALUE DUP1 ISZERO PUSH2 0x388 JUMPI PUSH1 0x0 DUP1 REVERT JUMPDEST POP PUSH2 0x18B PUSH1 0x1 DUP2 JUMP JUMPDEST PUSH2 0x215 PUSH2 0x39F CALLDATASIZE PUSH1 0x4 PUSH2 0x2A4A JUMP JUMPDEST PUSH2 0xD59 JUMP JUMPDEST CALLVALUE DUP1 ISZERO PUSH2 0x3B0 JUMPI PUSH1 0x0 DUP1 REVERT JUMPDEST POP PUSH2 0x30E PUSH2 0x3BF CALLDATASIZE PUSH1 0x4 PUSH2 0x25A4 JUMP JUMPDEST PUSH2 0xFBD JUMP JUMPDEST CALLVALUE DUP1 ISZERO PUSH2 0x3D0 JUMPI PUSH1 0x0 DUP1 REVERT JUMPDEST POP PUSH2 0x18B PUSH2 0x3DF CALLDATASIZE PUSH1 0x4 PUSH2 0x25A4 JUMP JUMPDEST PUSH2 0xFD7 JUMP JUMPDEST CALLVALUE DUP1 ISZERO PUSH2 0x3F0 JUMPI PUSH1 0x0 DUP1 REVERT JUMPDEST POP PUSH2 0x414 PUSH2 0x3FF CALLDATASIZE PUSH1 0x4 PUSH2 0x2B60 JUMP JUMPDEST PUSH1 0x4 PUSH1 0x20 MSTORE PUSH1 0x0 SWAP1 DUP2 MSTORE PUSH1 0x40 SWAP1 KECCAK256 SLOAD PUSH1 0xFF AND DUP2 JUMP JUMPDEST PUSH1 0x40 MLOAD PUSH1 0xFF SWAP1 SWAP2 AND DUP2 MSTORE PUSH1 0x20 ADD PUSH2 0x197 JUMP JUMPDEST CALLVALUE DUP1 ISZERO PUSH2 0x432 JUMPI PUSH1 0x0 DUP1 REVERT JUMPDEST POP PUSH2 0x248 PUSH1 0x0 DUP2 JUMP JUMPDEST CALLVALUE DUP1 ISZERO PUSH2 0x447 JUMPI PUSH1 0x0 DUP1 REVERT JUMPDEST POP PUSH2 0x276 PUSH20 0x7CE298AD682BE6B8E74C2D3154A0ECE3B2461A0B DUP2 JUMP JUMPDEST CALLVALUE DUP1 ISZERO PUSH2 0x46F JUMPI PUSH1 0x0 DUP1 REVERT JUMPDEST POP PUSH2 0x276 PUSH20 0x3ECD1EB4742823F4C9EA35504994764305CA3247 DUP2 JUMP JUMPDEST CALLVALUE DUP1 ISZERO PUSH2 0x497 JUMPI PUSH1 0x0 DUP1 REVERT JUMPDEST POP PUSH2 0x215 PUSH2 0x4A6 CALLDATASIZE PUSH1 0x4 PUSH2 0x2B9C JUMP JUMPDEST PUSH2 0x1002 JUMP JUMPDEST CALLVALUE DUP1 ISZERO PUSH2 0x4B7 JUMPI PUSH1 0x0 DUP1 REVERT JUMPDEST POP PUSH2 0x1D3 PUSH2 0x4C6 CALLDATASIZE PUSH1 0x4 PUSH2 0x2B60 JUMP JUMPDEST PUSH2 0x103B JUMP JUMPDEST CALLVALUE DUP1 ISZERO PUSH2 0x4D7 JUMPI PUSH1 0x0 DUP1 REVERT JUMPDEST POP PUSH2 0x215 PUSH2 0x4E6 CALLDATASIZE PUSH1 0x4 PUSH2 0x25A4 JUMP JUMPDEST PUSH2 0x10D5 JUMP JUMPDEST CALLVALUE DUP1 ISZERO PUSH2 0x4F7 JUMPI PUSH1 0x0 DUP1 REVERT JUMPDEST POP PUSH2 0x215 PUSH2 0x506 CALLDATASIZE PUSH1 0x4 PUSH2 0x2BCA JUMP JUMPDEST PUSH2 0x10FB JUMP JUMPDEST PUSH1 0x0 PUSH1 0x1 PUSH1 0x1 PUSH1 0xE0 SHL SUB NOT DUP3 AND PUSH4 0x7965DB0B PUSH1 0xE0 SHL EQ DUP1 PUSH2 0x53C JUMPI POP PUSH4 0x1FFC9A7 PUSH1 0xE0 SHL PUSH1 0x1 PUSH1 0x1 PUSH1 0xE0 SHL SUB NOT DUP4 AND EQ JUMPDEST SWAP3 SWAP2 POP POP JUMP JUMPDEST PUSH1 0x0 DUP3 DUP2 MSTORE PUSH1 0x1 PUSH1 0x20 DUP2 SWAP1 MSTORE PUSH1 0x40 SWAP1 SWAP2 KECCAK256 ADD SLOAD PUSH2 0x55E DUP2 PUSH2 0x111A JUMP JUMPDEST PUSH2 0x568 DUP4 DUP4 PUSH2 0x1127 JUMP JUMPDEST POP POP POP JUMP JUMPDEST PUSH1 0x1 PUSH1 0x1 PUSH1 0xA0 SHL SUB DUP2 AND CALLER EQ PUSH2 0x5E2 JUMPI PUSH1 0x40 MLOAD PUSH3 0x461BCD PUSH1 0xE5 SHL DUP2 MSTORE PUSH1 0x20 PUSH1 0x4 DUP3 ADD MSTORE PUSH1 0x2F PUSH1 0x24 DUP3 ADD MSTORE PUSH32 0x416363657373436F6E74726F6C3A2063616E206F6E6C792072656E6F756E6365 PUSH1 0x44 DUP3 ADD MSTORE PUSH15 0x103937B632B9903337B91039B2B633 PUSH1 0x89 SHL PUSH1 0x64 DUP3 ADD MSTORE PUSH1 0x84 ADD JUMPDEST PUSH1 0x40 MLOAD DUP1 SWAP2 SUB SWAP1 REVERT JUMPDEST PUSH2 0x5EC DUP3 DUP3 PUSH2 0x1192 JUMP JUMPDEST POP POP JUMP JUMPDEST PUSH1 0x0 PUSH2 0x5FB DUP2 PUSH2 0x111A JUMP JUMPDEST PUSH1 0x1 PUSH1 0x1 PUSH1 0xA0 SHL SUB DUP4 AND PUSH1 0x0 SWAP1 DUP2 MSTORE PUSH1 0x3 PUSH1 0x20 MSTORE PUSH1 0x40 SWAP1 KECCAK256 PUSH2 0x61D DUP4 DUP3 PUSH2 0x2C8B JUMP JUMPDEST POP POP POP POP JUMP JUMPDEST PUSH1 0x40 DUP1 MLOAD PUSH1 0x60 DUP2 DUP2 ADD DUP4 MSTORE PUSH1 0x0 DUP1 DUP4 MSTORE PUSH1 0x20 DUP4 ADD DUP2 SWAP1 MSTORE SWAP3 DUP3 ADD DUP2 SWAP1 MSTORE SWAP1 DUP4 DUP1 PUSH1 0x20 ADD SWAP1 MLOAD DUP2 ADD SWAP1 PUSH2 0x655 SWAP2 SWAP1 PUSH2 0x2D4A JUMP JUMPDEST PUSH1 0x1 PUSH1 0x1 PUSH1 0xA0 SHL SUB AND DUP1 DUP3 MSTORE PUSH1 0x40 DUP1 MLOAD PUSH4 0x344B6F79 PUSH1 0xE2 SHL DUP2 MSTORE SWAP1 MLOAD PUSH4 0xD12DBDE4 SWAP2 PUSH1 0x4 DUP1 DUP3 ADD SWAP3 PUSH1 0x20 SWAP3 SWAP1 SWAP2 SWAP1 DUP3 SWAP1 SUB ADD DUP2 DUP7 GAS STATICCALL ISZERO DUP1 ISZERO PUSH2 0x69C JUMPI RETURNDATASIZE PUSH1 0x0 DUP1 RETURNDATACOPY RETURNDATASIZE PUSH1 0x0 REVERT JUMPDEST POP POP POP POP PUSH1 0x40 MLOAD RETURNDATASIZE PUSH1 0x1F NOT PUSH1 0x1F DUP3 ADD AND DUP3 ADD DUP1 PUSH1 0x40 MSTORE POP DUP2 ADD SWAP1 PUSH2 0x6C0 SWAP2 SWAP1 PUSH2 0x2D4A JUMP JUMPDEST PUSH1 0x1 PUSH1 0x1 PUSH1 0xA0 SHL SUB AND PUSH2 0x6D9 PUSH1 0xC0 DUP8 ADD PUSH1 0xA0 DUP9 ADD PUSH2 0x2B60 JUMP JUMPDEST PUSH1 0x1 PUSH1 0x1 PUSH1 0xA0 SHL SUB AND SUB PUSH2 0x6F3 JUMPI PUSH1 0x3 PUSH1 0x20 DUP3 ADD MSTORE PUSH2 0x72A JUMP JUMPDEST PUSH1 0x4 PUSH1 0x0 PUSH2 0x707 PUSH1 0xC0 DUP9 ADD PUSH1 0xA0 DUP10 ADD PUSH2 0x2B60 JUMP JUMPDEST PUSH1 0x1 PUSH1 0x1 PUSH1 0xA0 SHL SUB AND DUP2 MSTORE PUSH1 0x20 DUP1 DUP3 ADD SWAP3 SWAP1 SWAP3 MSTORE PUSH1 0x40 ADD PUSH1 0x0 KECCAK256 SLOAD PUSH1 0xFF AND SWAP1 DUP3 ADD MSTORE JUMPDEST PUSH1 0x40 DUP1 MLOAD PUSH1 0x1 DUP1 DUP3 MSTORE DUP2 DUP4 ADD SWAP1 SWAP3 MSTORE PUSH1 0x0 SWAP2 DUP2 PUSH1 0x20 ADD JUMPDEST PUSH1 0x60 DUP2 MSTORE PUSH1 0x20 ADD SWAP1 PUSH1 0x1 SWAP1 SUB SWAP1 DUP2 PUSH2 0x741 JUMPI POP POP DUP3 MLOAD PUSH1 0x1 PUSH1 0x1 PUSH1 0xA0 SHL SUB AND PUSH1 0x0 SWAP1 DUP2 MSTORE PUSH1 0x3 PUSH1 0x20 MSTORE PUSH1 0x40 SWAP1 KECCAK256 DUP1 SLOAD SWAP2 SWAP3 POP SWAP1 PUSH2 0x77D SWAP1 PUSH2 0x2C0B JUMP JUMPDEST DUP1 PUSH1 0x1F ADD PUSH1 0x20 DUP1 SWAP2 DIV MUL PUSH1 0x20 ADD PUSH1 0x40 MLOAD SWAP1 DUP2 ADD PUSH1 0x40 MSTORE DUP1 SWAP3 SWAP2 SWAP1 DUP2 DUP2 MSTORE PUSH1 0x20 ADD DUP3 DUP1 SLOAD PUSH2 0x7A9 SWAP1 PUSH2 0x2C0B JUMP JUMPDEST DUP1 ISZERO PUSH2 0x7F6 JUMPI DUP1 PUSH1 0x1F LT PUSH2 0x7CB JUMPI PUSH2 0x100 DUP1 DUP4 SLOAD DIV MUL DUP4 MSTORE SWAP2 PUSH1 0x20 ADD SWAP2 PUSH2 0x7F6 JUMP JUMPDEST DUP3 ADD SWAP2 SWAP1 PUSH1 0x0 MSTORE PUSH1 0x20 PUSH1 0x0 KECCAK256 SWAP1 JUMPDEST DUP2 SLOAD DUP2 MSTORE SWAP1 PUSH1 0x1 ADD SWAP1 PUSH1 0x20 ADD DUP1 DUP4 GT PUSH2 0x7D9 JUMPI DUP3 SWAP1 SUB PUSH1 0x1F AND DUP3 ADD SWAP2 JUMPDEST POP POP POP POP POP DUP2 PUSH1 0x0 DUP2 MLOAD DUP2 LT PUSH2 0x80E JUMPI PUSH2 0x80E PUSH2 0x2D72 JUMP JUMPDEST PUSH1 0x20 SWAP1 DUP2 MUL SWAP2 SWAP1 SWAP2 ADD ADD MSTORE PUSH2 0x826 PUSH1 0xE0 DUP8 ADD DUP8 PUSH2 0x2D88 JUMP JUMPDEST DUP1 DUP1 PUSH1 0x1F ADD PUSH1 0x20 DUP1 SWAP2 DIV MUL PUSH1 0x20 ADD PUSH1 0x40 MLOAD SWAP1 DUP2 ADD PUSH1 0x40 MSTORE DUP1 SWAP4 SWAP3 SWAP2 SWAP1 DUP2 DUP2 MSTORE PUSH1 0x20 ADD DUP4 DUP4 DUP1 DUP3 DUP5 CALLDATACOPY PUSH1 0x0 SWAP3 ADD SWAP2 SWAP1 SWAP2 MSTORE POP POP POP POP PUSH1 0x40 DUP1 DUP5 ADD SWAP2 SWAP1 SWAP2 MSTORE DUP1 MLOAD DUP1 DUP3 ADD DUP3 MSTORE PUSH1 0x7 DUP2 MSTORE PUSH7 0x66656564494473 PUSH1 0xC8 SHL PUSH1 0x20 DUP1 DUP4 ADD SWAP2 SWAP1 SWAP2 MSTORE DUP3 MLOAD DUP1 DUP5 ADD DUP5 MSTORE PUSH1 0x9 DUP2 MSTORE PUSH9 0x74696D657374616D7 PUSH1 0xBC SHL DUP2 DUP4 ADD MSTORE SWAP3 MLOAD SWAP2 SWAP3 DUP5 SWAP3 SWAP1 SWAP2 DUP11 DUP2 ADD CALLDATALOAD SWAP2 PUSH2 0x8B7 SWAP2 DUP9 SWAP2 ADD PUSH2 0x2DCE JUMP JUMPDEST PUSH1 0x40 DUP1 MLOAD PUSH1 0x1F NOT DUP2 DUP5 SUB ADD DUP2 MSTORE SWAP1 DUP3 SWAP1 MSTORE PUSH4 0x782AF251 PUSH1 0xE1 SHL DUP3 MSTORE PUSH2 0x5D9 SWAP6 SWAP5 SWAP4 SWAP3 SWAP2 PUSH1 0x4 ADD PUSH2 0x2E08 JUMP JUMPDEST PUSH1 0x0 DUP1 DUP1 DUP1 DUP1 PUSH2 0x8F4 DUP7 DUP9 ADD DUP9 PUSH2 0x2EB4 JUMP JUMPDEST SWAP5 POP SWAP5 POP SWAP5 POP SWAP5 POP SWAP5 POP PUSH1 0x0 DUP6 PUSH1 0x0 DUP2 MLOAD DUP2 LT PUSH2 0x913 JUMPI PUSH2 0x913 PUSH2 0x2D72 JUMP JUMPDEST PUSH1 0x20 MUL PUSH1 0x20 ADD ADD MLOAD SWAP1 POP PUSH1 0x0 PUSH2 0x928 DUP3 PUSH2 0x11F9 JUMP JUMPDEST DUP1 PUSH1 0x20 ADD SWAP1 MLOAD DUP2 ADD SWAP1 PUSH2 0x93B SWAP2 SWAP1 PUSH2 0x2FE7 JUMP JUMPDEST SWAP1 POP PUSH1 0x2 NOT PUSH1 0xFF DUP7 AND ADD PUSH2 0xA41 JUMPI PUSH1 0x0 DUP5 DUP1 PUSH1 0x20 ADD SWAP1 MLOAD DUP2 ADD SWAP1 PUSH2 0x95F SWAP2 SWAP1 PUSH2 0x30A1 JUMP JUMPDEST SWAP1 POP PUSH2 0x96A DUP8 PUSH2 0x139E JUMP JUMPDEST PUSH1 0x1 PUSH1 0x1 PUSH1 0xA0 SHL SUB AND PUSH4 0xFCB51252 DUP9 PUSH1 0x1 PUSH1 0x1 PUSH1 0xA0 SHL SUB AND PUSH4 0xE7D015F2 PUSH1 0x40 MLOAD DUP2 PUSH4 0xFFFFFFFF AND PUSH1 0xE0 SHL DUP2 MSTORE PUSH1 0x4 ADD PUSH1 0x20 PUSH1 0x40 MLOAD DUP1 DUP4 SUB DUP2 DUP7 GAS STATICCALL ISZERO DUP1 ISZERO PUSH2 0x9B6 JUMPI RETURNDATASIZE PUSH1 0x0 DUP1 RETURNDATACOPY RETURNDATASIZE PUSH1 0x0 REVERT JUMPDEST POP POP POP POP PUSH1 0x40 MLOAD RETURNDATASIZE PUSH1 0x1F NOT PUSH1 0x1F DUP3 ADD AND DUP3 ADD DUP1 PUSH1 0x40 MSTORE POP DUP2 ADD SWAP1 PUSH2 0x9DA SWAP2 SWAP1 PUSH2 0x2D4A JUMP JUMPDEST PUSH2 0x9E4 DUP11 DUP7 PUSH2 0x1463 JUMP JUMPDEST DUP6 PUSH1 0x40 ADD MLOAD PUSH4 0xFFFFFFFF AND DUP6 PUSH1 0x40 MLOAD DUP6 PUSH4 0xFFFFFFFF AND PUSH1 0xE0 SHL DUP2 MSTORE PUSH1 0x4 ADD PUSH2 0xA0F SWAP5 SWAP4 SWAP3 SWAP2 SWAP1 PUSH2 0x3217 JUMP JUMPDEST PUSH1 0x0 PUSH1 0x40 MLOAD DUP1 DUP4 SUB DUP2 PUSH1 0x0 DUP8 DUP1 EXTCODESIZE ISZERO DUP1 ISZERO PUSH2 0xA29 JUMPI PUSH1 0x0 DUP1 REVERT JUMPDEST POP GAS CALL SWAP3 POP POP POP DUP1 ISZERO PUSH2 0xA3A JUMPI POP PUSH1 0x1 JUMPDEST POP POP PUSH2 0xAA4 JUMP JUMPDEST PUSH2 0xA4B DUP7 DUP3 PUSH2 0x121D JUMP JUMPDEST PUSH1 0x40 MLOAD PUSH4 0x4585E33B PUSH1 0xE0 SHL DUP2 MSTORE PUSH1 0x1 PUSH1 0x1 PUSH1 0xA0 SHL SUB DUP5 AND SWAP1 PUSH4 0x4585E33B SWAP1 PUSH2 0xA77 SWAP1 DUP8 SWAP1 PUSH1 0x4 ADD PUSH2 0x2563 JUMP JUMPDEST PUSH1 0x0 PUSH1 0x40 MLOAD DUP1 DUP4 SUB DUP2 PUSH1 0x0 DUP8 DUP1 EXTCODESIZE ISZERO DUP1 ISZERO PUSH2 0xA91 JUMPI PUSH1 0x0 DUP1 REVERT JUMPDEST POP GAS CALL SWAP3 POP POP POP DUP1 ISZERO PUSH2 0xAA2 JUMPI POP PUSH1 0x1 JUMPDEST POP JUMPDEST POP POP POP POP POP POP POP POP POP JUMP JUMPDEST PUSH1 0x0 PUSH2 0xABA DUP2 PUSH2 0x111A JUMP JUMPDEST PUSH1 0x40 MLOAD PUSH1 0x1 PUSH1 0x1 PUSH1 0xA0 SHL SUB DUP5 AND SWAP1 DUP4 ISZERO PUSH2 0x8FC MUL SWAP1 DUP5 SWAP1 PUSH1 0x0 DUP2 DUP2 DUP2 DUP6 DUP9 DUP9 CALL SWAP4 POP POP POP POP ISZERO DUP1 ISZERO PUSH2 0x61D JUMPI RETURNDATASIZE PUSH1 0x0 DUP1 RETURNDATACOPY RETURNDATASIZE PUSH1 0x0 REVERT JUMPDEST PUSH1 0x0 PUSH1 0x60 PUSH1 0x0 PUSH2 0xB58 DUP8 DUP8 PUSH1 0x0 DUP2 DUP2 LT PUSH2 0xB0C JUMPI PUSH2 0xB0C PUSH2 0x2D72 JUMP JUMPDEST SWAP1 POP PUSH1 0x20 MUL DUP2 ADD SWAP1 PUSH2 0xB1E SWAP2 SWAP1 PUSH2 0x2D88 JUMP JUMPDEST DUP1 DUP1 PUSH1 0x1F ADD PUSH1 0x20 DUP1 SWAP2 DIV MUL PUSH1 0x20 ADD PUSH1 0x40 MLOAD SWAP1 DUP2 ADD PUSH1 0x40 MSTORE DUP1 SWAP4 SWAP3 SWAP2 SWAP1 DUP2 DUP2 MSTORE PUSH1 0x20 ADD DUP4 DUP4 DUP1 DUP3 DUP5 CALLDATACOPY PUSH1 0x0 SWAP3 ADD SWAP2 SWAP1 SWAP2 MSTORE POP PUSH2 0x11F9 SWAP3 POP POP POP JUMP JUMPDEST DUP1 PUSH1 0x20 ADD SWAP1 MLOAD DUP2 ADD SWAP1 PUSH2 0xB6B SWAP2 SWAP1 PUSH2 0x2FE7 JUMP JUMPDEST SWAP1 POP PUSH1 0x0 PUSH2 0xB7B DUP6 DUP8 ADD DUP8 PUSH2 0x3244 JUMP JUMPDEST SWAP1 POP PUSH1 0x60 PUSH1 0x0 PUSH1 0x3 PUSH1 0xFF AND DUP4 PUSH1 0x20 ADD MLOAD PUSH1 0xFF AND SUB PUSH2 0xCBF JUMPI PUSH1 0x0 DUP4 PUSH1 0x40 ADD MLOAD DUP1 PUSH1 0x20 ADD SWAP1 MLOAD DUP2 ADD SWAP1 PUSH2 0xBAD SWAP2 SWAP1 PUSH2 0x3482 JUMP JUMPDEST SWAP1 POP PUSH2 0xBB8 DUP2 PUSH2 0x1554 JUMP JUMPDEST SWAP7 POP DUP7 ISZERO PUSH2 0xCB9 JUMPI PUSH1 0x40 DUP1 MLOAD PUSH1 0x1 DUP1 DUP3 MSTORE DUP2 DUP4 ADD SWAP1 SWAP3 MSTORE PUSH1 0x0 SWAP2 DUP2 PUSH1 0x20 ADD JUMPDEST PUSH1 0x40 DUP1 MLOAD PUSH1 0xA0 DUP2 ADD DUP3 MSTORE PUSH1 0x0 DUP1 DUP3 MSTORE PUSH1 0x20 DUP1 DUP4 ADD DUP3 SWAP1 MSTORE SWAP3 DUP3 ADD DUP2 SWAP1 MSTORE PUSH1 0x60 DUP3 ADD DUP2 SWAP1 MSTORE PUSH1 0x80 DUP3 ADD MSTORE DUP3 MSTORE PUSH1 0x0 NOT SWAP1 SWAP3 ADD SWAP2 ADD DUP2 PUSH2 0xBD7 JUMPI SWAP1 POP POP SWAP1 POP PUSH1 0x40 MLOAD DUP1 PUSH1 0xA0 ADD PUSH1 0x40 MSTORE DUP1 DUP4 PUSH1 0x0 ADD MLOAD PUSH1 0x1 PUSH1 0x1 PUSH1 0xA0 SHL SUB AND DUP2 MSTORE PUSH1 0x20 ADD DUP4 PUSH1 0xA0 ADD MLOAD PUSH1 0x60 ADD MLOAD PUSH1 0x1 PUSH1 0x1 PUSH1 0xA0 SHL SUB AND DUP2 MSTORE PUSH1 0x20 ADD DUP4 PUSH1 0xA0 ADD MLOAD PUSH2 0x120 ADD MLOAD PUSH1 0x1 PUSH1 0x1 PUSH1 0x40 SHL SUB AND DUP2 MSTORE PUSH1 0x20 ADD DUP4 PUSH1 0x60 ADD MLOAD ISZERO ISZERO DUP2 MSTORE PUSH1 0x20 ADD DUP4 PUSH1 0x20 ADD MLOAD ISZERO ISZERO DUP2 MSTORE POP DUP2 PUSH1 0x0 DUP2 MLOAD DUP2 LT PUSH2 0xC8A JUMPI PUSH2 0xC8A PUSH2 0x2D72 JUMP JUMPDEST PUSH1 0x20 MUL PUSH1 0x20 ADD ADD DUP2 SWAP1 MSTORE POP DUP1 PUSH1 0x40 MLOAD PUSH1 0x20 ADD PUSH2 0xCA6 SWAP2 SWAP1 PUSH2 0x3550 JUMP JUMPDEST PUSH1 0x40 MLOAD PUSH1 0x20 DUP2 DUP4 SUB SUB DUP2 MSTORE SWAP1 PUSH1 0x40 MSTORE SWAP4 POP POP JUMPDEST POP PUSH2 0xD1C JUMP JUMPDEST POP PUSH20 0x7CE298AD682BE6B8E74C2D3154A0ECE3B2461A0B PUSH2 0xCDF DUP5 DUP5 PUSH2 0x158F JUMP JUMPDEST SWAP1 SWAP7 POP SWAP2 POP DUP6 PUSH2 0xD05 JUMPI PUSH2 0xCFB DUP5 PUSH1 0xC0 ADD MLOAD DUP5 PUSH1 0x0 ADD MLOAD PUSH2 0x1871 JUMP JUMPDEST SWAP1 SWAP7 POP SWAP2 POP PUSH2 0xD1C JUMP JUMPDEST POP PUSH20 0x3ECD1EB4742823F4C9EA35504994764305CA3247 JUMPDEST DUP3 MLOAD PUSH1 0x20 DUP1 DUP6 ADD MLOAD PUSH1 0x40 MLOAD PUSH2 0xD3B SWAP4 DUP15 SWAP4 DUP15 SWAP4 SWAP2 SWAP3 DUP9 SWAP2 DUP9 SWAP2 ADD PUSH2 0x358C JUMP JUMPDEST PUSH1 0x40 MLOAD PUSH1 0x20 DUP2 DUP4 SUB SUB DUP2 MSTORE SWAP1 PUSH1 0x40 MSTORE SWAP5 POP POP POP POP POP SWAP5 POP SWAP5 SWAP3 POP POP POP JUMP JUMPDEST PUSH1 0x0 SLOAD PUSH2 0x100 SWAP1 DIV PUSH1 0xFF AND ISZERO DUP1 DUP1 ISZERO PUSH2 0xD79 JUMPI POP PUSH1 0x0 SLOAD PUSH1 0x1 PUSH1 0xFF SWAP1 SWAP2 AND LT JUMPDEST DUP1 PUSH2 0xD93 JUMPI POP ADDRESS EXTCODESIZE ISZERO DUP1 ISZERO PUSH2 0xD93 JUMPI POP PUSH1 0x0 SLOAD PUSH1 0xFF AND PUSH1 0x1 EQ JUMPDEST PUSH2 0xDF6 JUMPI PUSH1 0x40 MLOAD PUSH3 0x461BCD PUSH1 0xE5 SHL DUP2 MSTORE PUSH1 0x20 PUSH1 0x4 DUP3 ADD MSTORE PUSH1 0x2E PUSH1 0x24 DUP3 ADD MSTORE PUSH32 0x496E697469616C697A61626C653A20636F6E747261637420697320616C726561 PUSH1 0x44 DUP3 ADD MSTORE PUSH14 0x191E481A5B9A5D1A585B1A5E9959 PUSH1 0x92 SHL PUSH1 0x64 DUP3 ADD MSTORE PUSH1 0x84 ADD PUSH2 0x5D9 JUMP JUMPDEST PUSH1 0x0 DUP1 SLOAD PUSH1 0xFF NOT AND PUSH1 0x1 OR SWAP1 SSTORE DUP1 ISZERO PUSH2 0xE19 JUMPI PUSH1 0x0 DUP1 SLOAD PUSH2 0xFF00 NOT AND PUSH2 0x100 OR SWAP1 SSTORE JUMPDEST PUSH2 0xE24 PUSH1 0x0 CALLER PUSH2 0x1127 JUMP JUMPDEST DUP4 MLOAD DUP6 MLOAD EQ PUSH2 0xE32 JUMPI PUSH1 0x0 DUP1 REVERT JUMPDEST DUP2 MLOAD DUP4 MLOAD EQ PUSH2 0xE40 JUMPI PUSH1 0x0 DUP1 REVERT JUMPDEST PUSH1 0x2 DUP1 SLOAD PUSH1 0x1 PUSH1 0x1 PUSH1 0xA0 SHL SUB NOT AND PUSH1 0x1 PUSH1 0x1 PUSH1 0xA0 SHL SUB DUP9 AND OR SWAP1 SSTORE PUSH1 0x0 JUMPDEST DUP6 MLOAD DUP2 LT ISZERO PUSH2 0xEEA JUMPI DUP5 DUP2 DUP2 MLOAD DUP2 LT PUSH2 0xE79 JUMPI PUSH2 0xE79 PUSH2 0x2D72 JUMP JUMPDEST PUSH1 0x20 MUL PUSH1 0x20 ADD ADD MLOAD PUSH1 0x4 PUSH1 0x0 DUP9 DUP5 DUP2 MLOAD DUP2 LT PUSH2 0xE97 JUMPI PUSH2 0xE97 PUSH2 0x2D72 JUMP JUMPDEST PUSH1 0x20 MUL PUSH1 0x20 ADD ADD MLOAD PUSH1 0x1 PUSH1 0x1 PUSH1 0xA0 SHL SUB AND PUSH1 0x1 PUSH1 0x1 PUSH1 0xA0 SHL SUB AND DUP2 MSTORE PUSH1 0x20 ADD SWAP1 DUP2 MSTORE PUSH1 0x20 ADD PUSH1 0x0 KECCAK256 PUSH1 0x0 PUSH2 0x100 EXP DUP2 SLOAD DUP2 PUSH1 0xFF MUL NOT AND SWAP1 DUP4 PUSH1 0xFF AND MUL OR SWAP1 SSTORE POP DUP1 DUP1 PUSH2 0xEE2 SWAP1 PUSH2 0x3677 JUMP JUMPDEST SWAP2 POP POP PUSH2 0xE5E JUMP JUMPDEST POP PUSH1 0x0 JUMPDEST DUP4 MLOAD DUP2 LT ISZERO PUSH2 0xF6E JUMPI DUP3 DUP2 DUP2 MLOAD DUP2 LT PUSH2 0xF09 JUMPI PUSH2 0xF09 PUSH2 0x2D72 JUMP JUMPDEST PUSH1 0x20 MUL PUSH1 0x20 ADD ADD MLOAD PUSH1 0x3 PUSH1 0x0 DUP7 DUP5 DUP2 MLOAD DUP2 LT PUSH2 0xF27 JUMPI PUSH2 0xF27 PUSH2 0x2D72 JUMP JUMPDEST PUSH1 0x20 MUL PUSH1 0x20 ADD ADD MLOAD PUSH1 0x1 PUSH1 0x1 PUSH1 0xA0 SHL SUB AND PUSH1 0x1 PUSH1 0x1 PUSH1 0xA0 SHL SUB AND DUP2 MSTORE PUSH1 0x20 ADD SWAP1 DUP2 MSTORE PUSH1 0x20 ADD PUSH1 0x0 KECCAK256 SWAP1 DUP2 PUSH2 0xF5B SWAP2 SWAP1 PUSH2 0x2C8B JUMP JUMPDEST POP DUP1 PUSH2 0xF66 DUP2 PUSH2 0x3677 JUMP JUMPDEST SWAP2 POP POP PUSH2 0xEEE JUMP JUMPDEST POP DUP1 ISZERO PUSH2 0xFB5 JUMPI PUSH1 0x0 DUP1 SLOAD PUSH2 0xFF00 NOT AND SWAP1 SSTORE PUSH1 0x40 MLOAD PUSH1 0x1 DUP2 MSTORE PUSH32 0x7F26B83FF96E1F2B6A682F133852F6798A09C465DA95921460CEFB3847402498 SWAP1 PUSH1 0x20 ADD PUSH1 0x40 MLOAD DUP1 SWAP2 SUB SWAP1 LOG1 JUMPDEST POP POP POP POP POP POP JUMP JUMPDEST PUSH1 0x0 PUSH1 0x60 PUSH2 0xFCB DUP5 DUP5 PUSH2 0x1871 JUMP JUMPDEST SWAP2 POP SWAP2 POP JUMPDEST SWAP3 POP SWAP3 SWAP1 POP JUMP JUMPDEST PUSH1 0x0 SWAP2 DUP3 MSTORE PUSH1 0x1 PUSH1 0x20 SWAP1 DUP2 MSTORE PUSH1 0x40 DUP1 DUP5 KECCAK256 PUSH1 0x1 PUSH1 0x1 PUSH1 0xA0 SHL SUB SWAP4 SWAP1 SWAP4 AND DUP5 MSTORE SWAP2 SWAP1 MSTORE SWAP1 KECCAK256 SLOAD PUSH1 0xFF AND SWAP1 JUMP JUMPDEST PUSH1 0x0 PUSH2 0x100D DUP2 PUSH2 0x111A JUMP JUMPDEST POP PUSH1 0x1 PUSH1 0x1 PUSH1 0xA0 SHL SUB SWAP2 SWAP1 SWAP2 AND PUSH1 0x0 SWAP1 DUP2 MSTORE PUSH1 0x4 PUSH1 0x20 MSTORE PUSH1 0x40 SWAP1 KECCAK256 DUP1 SLOAD PUSH1 0xFF NOT AND PUSH1 0xFF SWAP1 SWAP3 AND SWAP2 SWAP1 SWAP2 OR SWAP1 SSTORE JUMP JUMPDEST PUSH1 0x3 PUSH1 0x20 MSTORE PUSH1 0x0 SWAP1 DUP2 MSTORE PUSH1 0x40 SWAP1 KECCAK256 DUP1 SLOAD PUSH2 0x1054 SWAP1 PUSH2 0x2C0B JUMP JUMPDEST DUP1 PUSH1 0x1F ADD PUSH1 0x20 DUP1 SWAP2 DIV MUL PUSH1 0x20 ADD PUSH1 0x40 MLOAD SWAP1 DUP2 ADD PUSH1 0x40 MSTORE DUP1 SWAP3 SWAP2 SWAP1 DUP2 DUP2 MSTORE PUSH1 0x20 ADD DUP3 DUP1 SLOAD PUSH2 0x1080 SWAP1 PUSH2 0x2C0B JUMP JUMPDEST DUP1 ISZERO PUSH2 0x10CD JUMPI DUP1 PUSH1 0x1F LT PUSH2 0x10A2 JUMPI PUSH2 0x100 DUP1 DUP4 SLOAD DIV MUL DUP4 MSTORE SWAP2 PUSH1 0x20 ADD SWAP2 PUSH2 0x10CD JUMP JUMPDEST DUP3 ADD SWAP2 SWAP1 PUSH1 0x0 MSTORE PUSH1 0x20 PUSH1 0x0 KECCAK256 SWAP1 JUMPDEST DUP2 SLOAD DUP2 MSTORE SWAP1 PUSH1 0x1 ADD SWAP1 PUSH1 0x20 ADD DUP1 DUP4 GT PUSH2 0x10B0 JUMPI DUP3 SWAP1 SUB PUSH1 0x1F AND DUP3 ADD SWAP2 JUMPDEST POP POP POP POP POP DUP2 JUMP JUMPDEST PUSH1 0x0 DUP3 DUP2 MSTORE PUSH1 0x1 PUSH1 0x20 DUP2 SWAP1 MSTORE PUSH1 0x40 SWAP1 SWAP2 KECCAK256 ADD SLOAD PUSH2 0x10F1 DUP2 PUSH2 0x111A JUMP JUMPDEST PUSH2 0x568 DUP4 DUP4 PUSH2 0x1192 JUMP JUMPDEST PUSH1 0x0 PUSH2 0x1106 DUP2 PUSH2 0x111A JUMP JUMPDEST PUSH2 0x61D PUSH1 0x1 PUSH1 0x1 PUSH1 0xA0 SHL SUB DUP6 AND DUP5 DUP5 PUSH2 0x1AD0 JUMP JUMPDEST PUSH2 0x1124 DUP2 CALLER PUSH2 0x1B22 JUMP JUMPDEST POP JUMP JUMPDEST PUSH2 0x1131 DUP3 DUP3 PUSH2 0xFD7 JUMP JUMPDEST PUSH2 0x5EC JUMPI PUSH1 0x0 DUP3 DUP2 MSTORE PUSH1 0x1 PUSH1 0x20 DUP2 DUP2 MSTORE PUSH1 0x40 DUP1 DUP5 KECCAK256 PUSH1 0x1 PUSH1 0x1 PUSH1 0xA0 SHL SUB DUP7 AND DUP1 DUP7 MSTORE SWAP3 MSTORE DUP1 DUP5 KECCAK256 DUP1 SLOAD PUSH1 0xFF NOT AND SWAP1 SWAP4 OR SWAP1 SWAP3 SSTORE SWAP1 MLOAD CALLER SWAP3 DUP6 SWAP2 PUSH32 0x2F8788117E7EFF1D82E926EC794901D17C78024A50270940304540A733656F0D SWAP2 SWAP1 LOG4 POP POP JUMP JUMPDEST PUSH2 0x119C DUP3 DUP3 PUSH2 0xFD7 JUMP JUMPDEST ISZERO PUSH2 0x5EC JUMPI PUSH1 0x0 DUP3 DUP2 MSTORE PUSH1 0x1 PUSH1 0x20 SWAP1 DUP2 MSTORE PUSH1 0x40 DUP1 DUP4 KECCAK256 PUSH1 0x1 PUSH1 0x1 PUSH1 0xA0 SHL SUB DUP6 AND DUP1 DUP6 MSTORE SWAP3 MSTORE DUP1 DUP4 KECCAK256 DUP1 SLOAD PUSH1 0xFF NOT AND SWAP1 SSTORE MLOAD CALLER SWAP3 DUP6 SWAP2 PUSH32 0xF6391F5C32D9C69D2A47EA670B442974B53935D1EDC7FD64EB21E047A839171B SWAP2 SWAP1 LOG4 POP POP JUMP JUMPDEST PUSH1 0x60 PUSH1 0x0 DUP3 DUP1 PUSH1 0x20 ADD SWAP1 MLOAD DUP2 ADD SWAP1 PUSH2 0x1211 SWAP2 SWAP1 PUSH2 0x36D5 JUMP JUMPDEST POP SWAP2 SWAP7 SWAP6 POP POP POP POP POP POP JUMP JUMPDEST PUSH1 0x40 DUP1 MLOAD PUSH1 0x1 DUP1 DUP3 MSTORE DUP2 DUP4 ADD SWAP1 SWAP3 MSTORE PUSH1 0x0 SWAP2 PUSH1 0x20 DUP1 DUP4 ADD SWAP1 DUP1 CALLDATASIZE DUP4 CALLDATACOPY ADD SWAP1 POP POP SWAP1 POP DUP3 PUSH1 0x1 PUSH1 0x1 PUSH1 0xA0 SHL SUB AND PUSH4 0xE7D015F2 PUSH1 0x40 MLOAD DUP2 PUSH4 0xFFFFFFFF AND PUSH1 0xE0 SHL DUP2 MSTORE PUSH1 0x4 ADD PUSH1 0x20 PUSH1 0x40 MLOAD DUP1 DUP4 SUB DUP2 DUP7 GAS STATICCALL ISZERO DUP1 ISZERO PUSH2 0x127D JUMPI RETURNDATASIZE PUSH1 0x0 DUP1 RETURNDATACOPY RETURNDATASIZE PUSH1 0x0 REVERT JUMPDEST POP POP POP POP PUSH1 0x40 MLOAD RETURNDATASIZE PUSH1 0x1F NOT PUSH1 0x1F DUP3 ADD AND DUP3 ADD DUP1 PUSH1 0x40 MSTORE POP DUP2 ADD SWAP1 PUSH2 0x12A1 SWAP2 SWAP1 PUSH2 0x2D4A JUMP JUMPDEST DUP2 PUSH1 0x0 DUP2 MLOAD DUP2 LT PUSH2 0x12B4 JUMPI PUSH2 0x12B4 PUSH2 0x2D72 JUMP JUMPDEST PUSH1 0x1 PUSH1 0x1 PUSH1 0xA0 SHL SUB SWAP3 SWAP1 SWAP3 AND PUSH1 0x20 SWAP3 DUP4 MUL SWAP2 SWAP1 SWAP2 ADD SWAP1 SWAP2 ADD MSTORE PUSH1 0x40 DUP1 MLOAD PUSH1 0x1 DUP1 DUP3 MSTORE DUP2 DUP4 ADD SWAP1 SWAP3 MSTORE PUSH1 0x0 SWAP2 DUP2 PUSH1 0x20 ADD PUSH1 0x20 DUP3 MUL DUP1 CALLDATASIZE DUP4 CALLDATACOPY ADD SWAP1 POP POP SWAP1 POP PUSH2 0x1307 DUP5 PUSH2 0x1302 DUP6 PUSH1 0xC0 ADD MLOAD PUSH2 0x1B7B JUMP JUMPDEST PUSH2 0x1B95 JUMP JUMPDEST DUP2 PUSH1 0x0 DUP2 MLOAD DUP2 LT PUSH2 0x131A JUMPI PUSH2 0x131A PUSH2 0x2D72 JUMP JUMPDEST PUSH1 0x20 MUL PUSH1 0x20 ADD ADD DUP2 DUP2 MSTORE POP POP PUSH2 0x132F DUP5 PUSH2 0x139E JUMP JUMPDEST PUSH1 0x1 PUSH1 0x1 PUSH1 0xA0 SHL SUB AND PUSH4 0x782661BC DUP4 DUP4 DUP7 PUSH1 0x40 ADD MLOAD PUSH4 0xFFFFFFFF AND PUSH1 0x40 MLOAD DUP5 PUSH4 0xFFFFFFFF AND PUSH1 0xE0 SHL DUP2 MSTORE PUSH1 0x4 ADD PUSH2 0x1368 SWAP4 SWAP3 SWAP2 SWAP1 PUSH2 0x37EA JUMP JUMPDEST PUSH1 0x0 PUSH1 0x40 MLOAD DUP1 DUP4 SUB DUP2 PUSH1 0x0 DUP8 DUP1 EXTCODESIZE ISZERO DUP1 ISZERO PUSH2 0x1382 JUMPI PUSH1 0x0 DUP1 REVERT JUMPDEST POP GAS CALL SWAP3 POP POP POP DUP1 ISZERO PUSH2 0x1393 JUMPI POP PUSH1 0x1 JUMPDEST ISZERO PUSH2 0x61D JUMPI POP POP POP POP JUMP JUMPDEST PUSH1 0x0 DUP2 PUSH1 0x1 PUSH1 0x1 PUSH1 0xA0 SHL SUB AND PUSH4 0x741BEF1A PUSH1 0x40 MLOAD DUP2 PUSH4 0xFFFFFFFF AND PUSH1 0xE0 SHL DUP2 MSTORE PUSH1 0x4 ADD PUSH1 0x20 PUSH1 0x40 MLOAD DUP1 DUP4 SUB DUP2 DUP7 GAS STATICCALL ISZERO DUP1 ISZERO PUSH2 0x13DE JUMPI RETURNDATASIZE PUSH1 0x0 DUP1 RETURNDATACOPY RETURNDATASIZE PUSH1 0x0 REVERT JUMPDEST POP POP POP POP PUSH1 0x40 MLOAD RETURNDATASIZE PUSH1 0x1F NOT PUSH1 0x1F DUP3 ADD AND DUP3 ADD DUP1 PUSH1 0x40 MSTORE POP DUP2 ADD SWAP1 PUSH2 0x1402 SWAP2 SWAP1 PUSH2 0x2D4A JUMP JUMPDEST PUSH1 0x1 PUSH1 0x1 PUSH1 0xA0 SHL SUB AND PUSH4 0x3A849C21 PUSH1 0x40 MLOAD DUP2 PUSH4 0xFFFFFFFF AND PUSH1 0xE0 SHL DUP2 MSTORE PUSH1 0x4 ADD PUSH1 0x20 PUSH1 0x40 MLOAD DUP1 DUP4 SUB DUP2 DUP7 GAS STATICCALL ISZERO DUP1 ISZERO PUSH2 0x143F JUMPI RETURNDATASIZE PUSH1 0x0 DUP1 RETURNDATACOPY RETURNDATASIZE PUSH1 0x0 REVERT JUMPDEST POP POP POP POP PUSH1 0x40 MLOAD RETURNDATASIZE PUSH1 0x1F NOT PUSH1 0x1F DUP3 ADD AND DUP3 ADD DUP1 PUSH1 0x40 MSTORE POP DUP2 ADD SWAP1 PUSH2 0x53C SWAP2 SWAP1 PUSH2 0x2D4A JUMP JUMPDEST PUSH1 0x40 DUP1 MLOAD PUSH1 0x1 DUP1 DUP3 MSTORE DUP2 DUP4 ADD SWAP1 SWAP3 MSTORE PUSH1 0x0 SWAP2 DUP3 SWAP2 SWAP1 PUSH1 0x20 DUP1 DUP4 ADD SWAP1 DUP1 CALLDATASIZE DUP4 CALLDATACOPY ADD SWAP1 POP POP SWAP1 POP DUP4 PUSH1 0x1 PUSH1 0x1 PUSH1 0xA0 SHL SUB AND PUSH4 0xE7D015F2 PUSH1 0x40 MLOAD DUP2 PUSH4 0xFFFFFFFF AND PUSH1 0xE0 SHL DUP2 MSTORE PUSH1 0x4 ADD PUSH1 0x20 PUSH1 0x40 MLOAD DUP1 DUP4 SUB DUP2 DUP7 GAS STATICCALL ISZERO DUP1 ISZERO PUSH2 0x14C6 JUMPI RETURNDATASIZE PUSH1 0x0 DUP1 RETURNDATACOPY RETURNDATASIZE PUSH1 0x0 REVERT JUMPDEST POP POP POP POP PUSH1 0x40 MLOAD RETURNDATASIZE PUSH1 0x1F NOT PUSH1 0x1F DUP3 ADD AND DUP3 ADD DUP1 PUSH1 0x40 MSTORE POP DUP2 ADD SWAP1 PUSH2 0x14EA SWAP2 SWAP1 PUSH2 0x2D4A JUMP JUMPDEST DUP2 PUSH1 0x0 DUP2 MLOAD DUP2 LT PUSH2 0x14FD JUMPI PUSH2 0x14FD PUSH2 0x2D72 JUMP JUMPDEST PUSH1 0x1 PUSH1 0x1 PUSH1 0xA0 SHL SUB SWAP3 SWAP1 SWAP3 AND PUSH1 0x20 SWAP3 DUP4 MUL SWAP2 SWAP1 SWAP2 ADD SWAP1 SWAP2 ADD MSTORE PUSH1 0x40 DUP1 MLOAD PUSH1 0x1 DUP1 DUP3 MSTORE DUP2 DUP4 ADD SWAP1 SWAP3 MSTORE PUSH1 0x0 SWAP2 DUP2 PUSH1 0x20 ADD PUSH1 0x20 DUP3 MUL DUP1 CALLDATASIZE DUP4 CALLDATACOPY ADD SWAP1 POP POP SWAP1 POP PUSH2 0x154B DUP6 PUSH2 0x1302 DUP7 PUSH1 0xC0 ADD MLOAD PUSH2 0x1B7B JUMP JUMPDEST SWAP6 SWAP5 POP POP POP POP POP JUMP JUMPDEST PUSH1 0x0 PUSH1 0x2 DUP3 PUSH1 0xC0 ADD MLOAD MLOAD LT ISZERO DUP1 ISZERO PUSH2 0x53C JUMPI POP PUSH1 0x0 DUP3 PUSH1 0xC0 ADD MLOAD PUSH1 0x1 DUP2 MLOAD DUP2 LT PUSH2 0x1580 JUMPI PUSH2 0x1580 PUSH2 0x2D72 JUMP JUMPDEST PUSH1 0x20 MUL PUSH1 0x20 ADD ADD MLOAD GT SWAP3 SWAP2 POP POP JUMP JUMPDEST PUSH1 0x0 PUSH1 0x60 PUSH1 0x0 JUMPDEST PUSH1 0x2 DUP2 LT ISZERO PUSH2 0x1869 JUMPI PUSH1 0x0 JUMPDEST PUSH1 0x2 DUP2 LT ISZERO PUSH2 0x1856 JUMPI PUSH1 0x0 PUSH2 0x15C2 DUP8 PUSH1 0xC0 ADD MLOAD DUP8 PUSH1 0x0 ADD MLOAD DUP5 DUP7 EQ PUSH2 0x1D6F JUMP JUMPDEST SWAP1 POP PUSH1 0x0 DUP4 PUSH1 0x1 EQ PUSH2 0x1639 JUMPI DUP7 PUSH1 0x0 ADD MLOAD PUSH1 0x1 PUSH1 0x1 PUSH1 0xA0 SHL SUB AND PUSH4 0x5BA9AE9 PUSH1 0x40 MLOAD DUP2 PUSH4 0xFFFFFFFF AND PUSH1 0xE0 SHL DUP2 MSTORE PUSH1 0x4 ADD PUSH1 0x20 PUSH1 0x40 MLOAD DUP1 DUP4 SUB DUP2 DUP7 GAS STATICCALL ISZERO DUP1 ISZERO PUSH2 0x1610 JUMPI RETURNDATASIZE PUSH1 0x0 DUP1 RETURNDATACOPY RETURNDATASIZE PUSH1 0x0 REVERT JUMPDEST POP POP POP POP PUSH1 0x40 MLOAD RETURNDATASIZE PUSH1 0x1F NOT PUSH1 0x1F DUP3 ADD AND DUP3 ADD DUP1 PUSH1 0x40 MSTORE POP DUP2 ADD SWAP1 PUSH2 0x1634 SWAP2 SWAP1 PUSH2 0x2D4A JUMP JUMPDEST PUSH2 0x169F JUMP JUMPDEST DUP7 PUSH1 0x0 ADD MLOAD PUSH1 0x1 PUSH1 0x1 PUSH1 0xA0 SHL SUB AND PUSH4 0x7B2FD1E5 PUSH1 0x40 MLOAD DUP2 PUSH4 0xFFFFFFFF AND PUSH1 0xE0 SHL DUP2 MSTORE PUSH1 0x4 ADD PUSH1 0x20 PUSH1 0x40 MLOAD DUP1 DUP4 SUB DUP2 DUP7 GAS STATICCALL ISZERO DUP1 ISZERO PUSH2 0x167B JUMPI RETURNDATASIZE PUSH1 0x0 DUP1 RETURNDATACOPY RETURNDATASIZE PUSH1 0x0 REVERT JUMPDEST POP POP POP POP PUSH1 0x40 MLOAD RETURNDATASIZE PUSH1 0x1F NOT PUSH1 0x1F DUP3 ADD AND DUP3 ADD DUP1 PUSH1 0x40 MSTORE POP DUP2 ADD SWAP1 PUSH2 0x169F SWAP2 SWAP1 PUSH2 0x2D4A JUMP JUMPDEST PUSH1 0x40 MLOAD PUSH4 0x14D102A9 PUSH1 0xE0 SHL DUP2 MSTORE PUSH1 0x0 PUSH1 0x4 DUP3 ADD MSTORE PUSH2 0x270F PUSH1 0x24 DUP3 ADD MSTORE PUSH1 0x1 DUP6 EQ PUSH1 0x44 DUP3 ADD MSTORE PUSH1 0x64 DUP2 ADD DUP5 SWAP1 MSTORE PUSH1 0x1 PUSH1 0x1 PUSH1 0xA0 SHL SUB SWAP2 SWAP1 SWAP2 AND SWAP1 PUSH4 0x14D102A9 SWAP1 PUSH1 0x84 ADD PUSH1 0x0 PUSH1 0x40 MLOAD DUP1 DUP4 SUB DUP2 DUP7 GAS STATICCALL ISZERO DUP1 ISZERO PUSH2 0x16FE JUMPI RETURNDATASIZE PUSH1 0x0 DUP1 RETURNDATACOPY RETURNDATASIZE PUSH1 0x0 REVERT JUMPDEST POP POP POP POP PUSH1 0x40 MLOAD RETURNDATASIZE PUSH1 0x0 DUP3 RETURNDATACOPY PUSH1 0x1F RETURNDATASIZE SWAP1 DUP2 ADD PUSH1 0x1F NOT AND DUP3 ADD PUSH1 0x40 MSTORE PUSH2 0x1726 SWAP2 SWAP1 DUP2 ADD SWAP1 PUSH2 0x384A JUMP JUMPDEST DUP1 MLOAD SWAP1 SWAP2 POP ISZERO PUSH2 0x1841 JUMPI PUSH1 0x40 DUP1 MLOAD PUSH1 0x1 DUP1 DUP3 MSTORE DUP2 DUP4 ADD SWAP1 SWAP3 MSTORE PUSH1 0x0 SWAP2 PUSH1 0x20 DUP1 DUP4 ADD SWAP1 DUP1 CALLDATASIZE DUP4 CALLDATACOPY ADD SWAP1 POP POP SWAP1 POP DUP2 PUSH1 0x0 DUP2 MLOAD DUP2 LT PUSH2 0x1765 JUMPI PUSH2 0x1765 PUSH2 0x2D72 JUMP JUMPDEST PUSH1 0x20 MUL PUSH1 0x20 ADD ADD MLOAD PUSH1 0x60 ADD MLOAD DUP3 PUSH1 0x0 DUP2 MLOAD DUP2 LT PUSH2 0x1784 JUMPI PUSH2 0x1784 PUSH2 0x2D72 JUMP JUMPDEST PUSH1 0x20 MUL PUSH1 0x20 ADD ADD MLOAD PUSH2 0x120 ADD MLOAD PUSH1 0x40 MLOAD PUSH1 0x20 ADD PUSH2 0x17CC SWAP3 SWAP2 SWAP1 PUSH1 0x60 SWAP3 SWAP1 SWAP3 SHL PUSH12 0xFFFFFFFFFFFFFFFFFFFFFFFF NOT AND DUP3 MSTORE PUSH1 0xC0 SHL PUSH1 0x1 PUSH1 0x1 PUSH1 0xC0 SHL SUB NOT AND PUSH1 0x14 DUP3 ADD MSTORE PUSH1 0x1C ADD SWAP1 JUMP JUMPDEST PUSH1 0x40 MLOAD PUSH1 0x20 DUP2 DUP4 SUB SUB DUP2 MSTORE SWAP1 PUSH1 0x40 MSTORE DUP1 MLOAD SWAP1 PUSH1 0x20 ADD KECCAK256 DUP2 PUSH1 0x0 DUP2 MLOAD DUP2 LT PUSH2 0x17F5 JUMPI PUSH2 0x17F5 PUSH2 0x2D72 JUMP JUMPDEST PUSH1 0x20 MUL PUSH1 0x20 ADD ADD DUP2 DUP2 MSTORE POP POP PUSH1 0x1 DUP9 PUSH1 0x0 ADD MLOAD DUP7 PUSH1 0x1 EQ DUP7 PUSH1 0x1 EQ DUP5 PUSH1 0x40 MLOAD PUSH1 0x20 ADD PUSH2 0x1824 SWAP5 SWAP4 SWAP3 SWAP2 SWAP1 PUSH2 0x38D8 JUMP JUMPDEST PUSH1 0x40 MLOAD PUSH1 0x20 DUP2 DUP4 SUB SUB DUP2 MSTORE SWAP1 PUSH1 0x40 MSTORE SWAP7 POP SWAP7 POP POP POP POP POP POP PUSH2 0xFD0 JUMP JUMPDEST POP POP DUP1 DUP1 PUSH2 0x184E SWAP1 PUSH2 0x3677 JUMP JUMPDEST SWAP2 POP POP PUSH2 0x15A2 JUMP JUMPDEST POP DUP1 PUSH2 0x1861 DUP2 PUSH2 0x3677 JUMP JUMPDEST SWAP2 POP POP PUSH2 0x1596 JUMP JUMPDEST POP SWAP3 POP SWAP3 SWAP1 POP JUMP JUMPDEST PUSH1 0x40 DUP1 MLOAD PUSH1 0x0 DUP1 DUP3 MSTORE PUSH1 0x1 PUSH1 0x20 DUP1 DUP5 ADD DUP3 DUP2 MSTORE PUSH1 0x60 DUP1 DUP7 ADD DUP8 MSTORE SWAP4 SWAP6 SWAP4 SWAP5 SWAP4 DUP7 SWAP4 SWAP2 SWAP3 SWAP1 DUP6 ADD SWAP1 DUP1 CALLDATASIZE DUP4 CALLDATACOPY ADD SWAP1 POP POP SWAP1 POP PUSH1 0x0 JUMPDEST PUSH1 0x2 DUP2 LT ISZERO PUSH2 0x1AC6 JUMPI PUSH1 0x0 DUP7 PUSH1 0x1 PUSH1 0x1 PUSH1 0xA0 SHL SUB AND PUSH4 0xAC0B05A6 PUSH1 0x40 MLOAD DUP2 PUSH4 0xFFFFFFFF AND PUSH1 0xE0 SHL DUP2 MSTORE PUSH1 0x4 ADD PUSH1 0x20 PUSH1 0x40 MLOAD DUP1 DUP4 SUB DUP2 DUP7 GAS STATICCALL ISZERO DUP1 ISZERO PUSH2 0x18EE JUMPI RETURNDATASIZE PUSH1 0x0 DUP1 RETURNDATACOPY RETURNDATASIZE PUSH1 0x0 REVERT JUMPDEST POP POP POP POP PUSH1 0x40 MLOAD RETURNDATASIZE PUSH1 0x1F NOT PUSH1 0x1F DUP3 ADD AND DUP3 ADD DUP1 PUSH1 0x40 MSTORE POP DUP2 ADD SWAP1 PUSH2 0x1912 SWAP2 SWAP1 PUSH2 0x2D4A JUMP JUMPDEST PUSH1 0x40 MLOAD PUSH4 0x8DD3FDE3 PUSH1 0xE0 SHL DUP2 MSTORE PUSH1 0x0 PUSH1 0x4 DUP3 ADD MSTORE PUSH2 0x270F PUSH1 0x24 DUP3 ADD MSTORE PUSH1 0x1 DUP5 EQ PUSH1 0x44 DUP3 ADD MSTORE PUSH1 0x1 PUSH1 0x1 PUSH1 0xA0 SHL SUB SWAP2 SWAP1 SWAP2 AND SWAP1 PUSH4 0x8DD3FDE3 SWAP1 PUSH1 0x64 ADD PUSH1 0x0 PUSH1 0x40 MLOAD DUP1 DUP4 SUB DUP2 DUP7 GAS STATICCALL ISZERO DUP1 ISZERO PUSH2 0x196A JUMPI RETURNDATASIZE PUSH1 0x0 DUP1 RETURNDATACOPY RETURNDATASIZE PUSH1 0x0 REVERT JUMPDEST POP POP POP POP PUSH1 0x40 MLOAD RETURNDATASIZE PUSH1 0x0 DUP3 RETURNDATACOPY PUSH1 0x1F RETURNDATASIZE SWAP1 DUP2 ADD PUSH1 0x1F NOT AND DUP3 ADD PUSH1 0x40 MSTORE PUSH2 0x1992 SWAP2 SWAP1 DUP2 ADD SWAP1 PUSH2 0x3942 JUMP JUMPDEST SWAP1 POP PUSH1 0x0 PUSH2 0x19A2 DUP10 DUP10 DUP6 ISZERO PUSH2 0x1D6F JUMP JUMPDEST SWAP1 POP PUSH1 0x0 JUMPDEST DUP3 MLOAD DUP2 LT ISZERO PUSH2 0x1AB0 JUMPI PUSH1 0x0 PUSH2 0x19DA DUP5 DUP4 DUP2 MLOAD DUP2 LT PUSH2 0x19C7 JUMPI PUSH2 0x19C7 PUSH2 0x2D72 JUMP JUMPDEST PUSH1 0x20 MUL PUSH1 0x20 ADD ADD MLOAD DUP12 DUP8 PUSH1 0x1 EQ DUP7 PUSH2 0x1E84 JUMP JUMPDEST SWAP1 POP DUP1 ISZERO PUSH2 0x1A9D JUMPI DUP4 DUP3 DUP2 MLOAD DUP2 LT PUSH2 0x19F4 JUMPI PUSH2 0x19F4 PUSH2 0x2D72 JUMP JUMPDEST PUSH1 0x20 MUL PUSH1 0x20 ADD ADD MLOAD DUP7 PUSH1 0x0 DUP2 MLOAD DUP2 LT PUSH2 0x1A0F JUMPI PUSH2 0x1A0F PUSH2 0x2D72 JUMP JUMPDEST PUSH1 0x20 MUL PUSH1 0x20 ADD ADD SWAP1 PUSH1 0x1 PUSH1 0x1 PUSH1 0xA0 SHL SUB AND SWAP1 DUP2 PUSH1 0x1 PUSH1 0x1 PUSH1 0xA0 SHL SUB AND DUP2 MSTORE POP POP DUP5 PUSH1 0x1 SUB PUSH2 0x1A6D JUMPI PUSH1 0x1 DUP11 DUP8 DUP10 PUSH1 0x40 MLOAD PUSH1 0x20 ADD PUSH2 0x1A4E SWAP4 SWAP3 SWAP2 SWAP1 PUSH2 0x39D0 JUMP JUMPDEST PUSH1 0x40 MLOAD PUSH1 0x20 DUP2 DUP4 SUB SUB DUP2 MSTORE SWAP1 PUSH1 0x40 MSTORE SWAP9 POP SWAP9 POP POP POP POP POP POP POP POP PUSH2 0xFD0 JUMP JUMPDEST PUSH1 0x1 DUP11 DUP9 DUP7 DUP6 DUP2 MLOAD DUP2 LT PUSH2 0x1A83 JUMPI PUSH2 0x1A83 PUSH2 0x2D72 JUMP JUMPDEST PUSH1 0x20 MUL PUSH1 0x20 ADD ADD MLOAD PUSH1 0x40 MLOAD PUSH1 0x20 ADD PUSH2 0x1A4E SWAP4 SWAP3 SWAP2 SWAP1 PUSH2 0x3A06 JUMP JUMPDEST POP DUP1 PUSH2 0x1AA8 DUP2 PUSH2 0x3677 JUMP JUMPDEST SWAP2 POP POP PUSH2 0x19A7 JUMP JUMPDEST POP POP POP DUP1 DUP1 PUSH2 0x1ABE SWAP1 PUSH2 0x3677 JUMP JUMPDEST SWAP2 POP POP PUSH2 0x18A5 JUMP JUMPDEST POP POP POP SWAP3 POP SWAP3 SWAP1 POP JUMP JUMPDEST PUSH1 0x40 DUP1 MLOAD PUSH1 0x1 PUSH1 0x1 PUSH1 0xA0 SHL SUB DUP5 AND PUSH1 0x24 DUP3 ADD MSTORE PUSH1 0x44 DUP1 DUP3 ADD DUP5 SWAP1 MSTORE DUP3 MLOAD DUP1 DUP4 SUB SWAP1 SWAP2 ADD DUP2 MSTORE PUSH1 0x64 SWAP1 SWAP2 ADD SWAP1 SWAP2 MSTORE PUSH1 0x20 DUP2 ADD DUP1 MLOAD PUSH1 0x1 PUSH1 0x1 PUSH1 0xE0 SHL SUB AND PUSH4 0xA9059CBB PUSH1 0xE0 SHL OR SWAP1 MSTORE PUSH2 0x568 SWAP1 DUP5 SWAP1 PUSH2 0x1FF2 JUMP JUMPDEST PUSH2 0x1B2C DUP3 DUP3 PUSH2 0xFD7 JUMP JUMPDEST PUSH2 0x5EC JUMPI PUSH2 0x1B39 DUP2 PUSH2 0x20C4 JUMP JUMPDEST PUSH2 0x1B44 DUP4 PUSH1 0x20 PUSH2 0x20D6 JUMP JUMPDEST PUSH1 0x40 MLOAD PUSH1 0x20 ADD PUSH2 0x1B55 SWAP3 SWAP2 SWAP1 PUSH2 0x3A3B JUMP JUMPDEST PUSH1 0x40 DUP1 MLOAD PUSH1 0x1F NOT DUP2 DUP5 SUB ADD DUP2 MSTORE SWAP1 DUP3 SWAP1 MSTORE PUSH3 0x461BCD PUSH1 0xE5 SHL DUP3 MSTORE PUSH2 0x5D9 SWAP2 PUSH1 0x4 ADD PUSH2 0x2563 JUMP JUMPDEST PUSH1 0x0 PUSH2 0x53C PUSH1 0x1 PUSH1 0x1 PUSH1 0xC0 SHL SUB DUP4 AND PUSH5 0xE8D4A51000 PUSH2 0x3AB0 JUMP JUMPDEST PUSH1 0x0 DUP1 PUSH2 0x1BA1 DUP5 PUSH2 0x2278 JUMP JUMPDEST PUSH1 0x1 PUSH1 0x1 PUSH1 0xA0 SHL SUB AND PUSH4 0xC54E44EB PUSH1 0x40 MLOAD DUP2 PUSH4 0xFFFFFFFF AND PUSH1 0xE0 SHL DUP2 MSTORE PUSH1 0x4 ADD PUSH1 0x20 PUSH1 0x40 MLOAD DUP1 DUP4 SUB DUP2 DUP7 GAS STATICCALL ISZERO DUP1 ISZERO PUSH2 0x1BDE JUMPI RETURNDATASIZE PUSH1 0x0 DUP1 RETURNDATACOPY RETURNDATASIZE PUSH1 0x0 REVERT JUMPDEST POP POP POP POP PUSH1 0x40 MLOAD RETURNDATASIZE PUSH1 0x1F NOT PUSH1 0x1F DUP3 ADD AND DUP3 ADD DUP1 PUSH1 0x40 MSTORE POP DUP2 ADD SWAP1 PUSH2 0x1C02 SWAP2 SWAP1 PUSH2 0x2D4A JUMP JUMPDEST SWAP1 POP PUSH1 0x0 PUSH2 0x1C0F DUP6 PUSH2 0x2278 JUMP JUMPDEST PUSH1 0x40 MLOAD PUSH4 0x4EE5A88D PUSH1 0xE1 SHL DUP2 MSTORE PUSH1 0x1 PUSH1 0x1 PUSH1 0xA0 SHL SUB DUP5 DUP2 AND PUSH1 0x4 DUP4 ADD MSTORE SWAP2 SWAP1 SWAP2 AND SWAP1 PUSH4 0x9DCB511A SWAP1 PUSH1 0x24 ADD PUSH1 0x20 PUSH1 0x40 MLOAD DUP1 DUP4 SUB DUP2 DUP7 GAS STATICCALL ISZERO DUP1 ISZERO PUSH2 0x1C57 JUMPI RETURNDATASIZE PUSH1 0x0 DUP1 RETURNDATACOPY RETURNDATASIZE PUSH1 0x0 REVERT JUMPDEST POP POP POP POP PUSH1 0x40 MLOAD RETURNDATASIZE PUSH1 0x1F NOT PUSH1 0x1F DUP3 ADD AND DUP3 ADD DUP1 PUSH1 0x40 MSTORE POP DUP2 ADD SWAP1 PUSH2 0x1C7B SWAP2 SWAP1 PUSH2 0x2D4A JUMP JUMPDEST SWAP1 POP PUSH1 0x0 DUP2 PUSH1 0x1 PUSH1 0x1 PUSH1 0xA0 SHL SUB AND PUSH4 0x50D25BCD PUSH1 0x40 MLOAD DUP2 PUSH4 0xFFFFFFFF AND PUSH1 0xE0 SHL DUP2 MSTORE PUSH1 0x4 ADD PUSH1 0x20 PUSH1 0x40 MLOAD DUP1 DUP4 SUB DUP2 DUP7 GAS STATICCALL ISZERO DUP1 ISZERO PUSH2 0x1CBD JUMPI RETURNDATASIZE PUSH1 0x0 DUP1 RETURNDATACOPY RETURNDATASIZE PUSH1 0x0 REVERT JUMPDEST POP POP POP POP PUSH1 0x40 MLOAD RETURNDATASIZE PUSH1 0x1F NOT PUSH1 0x1F DUP3 ADD AND DUP3 ADD DUP1 PUSH1 0x40 MSTORE POP DUP2 ADD SWAP1 PUSH2 0x1CE1 SWAP2 SWAP1 PUSH2 0x3ACF JUMP JUMPDEST SWAP1 POP DUP1 DUP3 PUSH1 0x1 PUSH1 0x1 PUSH1 0xA0 SHL SUB AND PUSH4 0x313CE567 PUSH1 0x40 MLOAD DUP2 PUSH4 0xFFFFFFFF AND PUSH1 0xE0 SHL DUP2 MSTORE PUSH1 0x4 ADD PUSH1 0x20 PUSH1 0x40 MLOAD DUP1 DUP4 SUB DUP2 DUP7 GAS STATICCALL ISZERO DUP1 ISZERO PUSH2 0x1D22 JUMPI RETURNDATASIZE PUSH1 0x0 DUP1 RETURNDATACOPY RETURNDATASIZE PUSH1 0x0 REVERT JUMPDEST POP POP POP POP PUSH1 0x40 MLOAD RETURNDATASIZE PUSH1 0x1F NOT PUSH1 0x1F DUP3 ADD AND DUP3 ADD DUP1 PUSH1 0x40 MSTORE POP DUP2 ADD SWAP1 PUSH2 0x1D46 SWAP2 SWAP1 PUSH2 0x3AE8 JUMP JUMPDEST PUSH2 0x1D51 SWAP1 PUSH1 0xA PUSH2 0x3BE1 JUMP JUMPDEST PUSH2 0x1D5B SWAP1 DUP8 PUSH2 0x3AB0 JUMP JUMPDEST PUSH2 0x1D65 SWAP2 SWAP1 PUSH2 0x3BF0 JUMP JUMPDEST SWAP7 SWAP6 POP POP POP POP POP POP JUMP JUMPDEST PUSH1 0x0 PUSH2 0x1D7E DUP4 PUSH2 0x1302 DUP7 PUSH2 0x1B7B JUMP JUMPDEST SWAP1 POP PUSH1 0x0 PUSH2 0x1D8B DUP5 PUSH2 0x2278 JUMP JUMPDEST PUSH1 0x1 PUSH1 0x1 PUSH1 0xA0 SHL SUB AND PUSH4 0x76D69760 DUP6 PUSH1 0x1 PUSH1 0x1 PUSH1 0xA0 SHL SUB AND PUSH4 0xE7D015F2 PUSH1 0x40 MLOAD DUP2 PUSH4 0xFFFFFFFF AND PUSH1 0xE0 SHL DUP2 MSTORE PUSH1 0x4 ADD PUSH1 0x20 PUSH1 0x40 MLOAD DUP1 DUP4 SUB DUP2 DUP7 GAS STATICCALL ISZERO DUP1 ISZERO PUSH2 0x1DD7 JUMPI RETURNDATASIZE PUSH1 0x0 DUP1 RETURNDATACOPY RETURNDATASIZE PUSH1 0x0 REVERT JUMPDEST POP POP POP POP PUSH1 0x40 MLOAD RETURNDATASIZE PUSH1 0x1F NOT PUSH1 0x1F DUP3 ADD AND DUP3 ADD DUP1 PUSH1 0x40 MSTORE POP DUP2 ADD SWAP1 PUSH2 0x1DFB SWAP2 SWAP1 PUSH2 0x2D4A JUMP JUMPDEST PUSH1 0x40 MLOAD PUSH1 0x1 PUSH1 0x1 PUSH1 0xE0 SHL SUB NOT PUSH1 0xE0 DUP5 SWAP1 SHL AND DUP2 MSTORE PUSH1 0x1 PUSH1 0x1 PUSH1 0xA0 SHL SUB SWAP1 SWAP2 AND PUSH1 0x4 DUP3 ADD MSTORE DUP6 ISZERO ISZERO PUSH1 0x24 DUP3 ADD MSTORE PUSH1 0x44 ADD PUSH1 0x20 PUSH1 0x40 MLOAD DUP1 DUP4 SUB DUP2 DUP7 GAS STATICCALL ISZERO DUP1 ISZERO PUSH2 0x1E47 JUMPI RETURNDATASIZE PUSH1 0x0 DUP1 RETURNDATACOPY RETURNDATASIZE PUSH1 0x0 REVERT JUMPDEST POP POP POP POP PUSH1 0x40 MLOAD RETURNDATASIZE PUSH1 0x1F NOT PUSH1 0x1F DUP3 ADD AND DUP3 ADD DUP1 PUSH1 0x40 MSTORE POP DUP2 ADD SWAP1 PUSH2 0x1E6B SWAP2 SWAP1 PUSH2 0x3ACF JUMP JUMPDEST SWAP1 POP DUP1 DUP3 LT DUP4 ISZERO ISZERO SUB PUSH2 0x1E7C JUMPI DUP1 SWAP2 POP JUMPDEST POP SWAP4 SWAP3 POP POP POP JUMP JUMPDEST PUSH1 0x0 PUSH2 0x1E8F DUP5 PUSH2 0x2319 JUMP JUMPDEST PUSH1 0x1 PUSH1 0x1 PUSH1 0xA0 SHL SUB AND PUSH4 0x1F21756A DUP7 DUP7 DUP7 DUP9 PUSH1 0x1 PUSH1 0x1 PUSH1 0xA0 SHL SUB AND PUSH4 0xAC0B05A6 PUSH1 0x40 MLOAD DUP2 PUSH4 0xFFFFFFFF AND PUSH1 0xE0 SHL DUP2 MSTORE PUSH1 0x4 ADD PUSH1 0x20 PUSH1 0x40 MLOAD DUP1 DUP4 SUB DUP2 DUP7 GAS STATICCALL ISZERO DUP1 ISZERO PUSH2 0x1EDE JUMPI RETURNDATASIZE PUSH1 0x0 DUP1 RETURNDATACOPY RETURNDATASIZE PUSH1 0x0 REVERT JUMPDEST POP POP POP POP PUSH1 0x40 MLOAD RETURNDATASIZE PUSH1 0x1F NOT PUSH1 0x1F DUP3 ADD AND DUP3 ADD DUP1 PUSH1 0x40 MSTORE POP DUP2 ADD SWAP1 PUSH2 0x1F02 SWAP2 SWAP1 PUSH2 0x2D4A JUMP JUMPDEST DUP10 PUSH1 0x1 PUSH1 0x1 PUSH1 0xA0 SHL SUB AND PUSH4 0xF29EBF61 PUSH1 0x40 MLOAD DUP2 PUSH4 0xFFFFFFFF AND PUSH1 0xE0 SHL DUP2 MSTORE PUSH1 0x4 ADD PUSH1 0x20 PUSH1 0x40 MLOAD DUP1 DUP4 SUB DUP2 DUP7 GAS STATICCALL ISZERO DUP1 ISZERO PUSH2 0x1F40 JUMPI RETURNDATASIZE PUSH1 0x0 DUP1 RETURNDATACOPY RETURNDATASIZE PUSH1 0x0 REVERT JUMPDEST POP POP POP POP PUSH1 0x40 MLOAD RETURNDATASIZE PUSH1 0x1F NOT PUSH1 0x1F DUP3 ADD AND DUP3 ADD DUP1 PUSH1 0x40 MSTORE POP DUP2 ADD SWAP1 PUSH2 0x1F64 SWAP2 SWAP1 PUSH2 0x2D4A JUMP JUMPDEST PUSH1 0x40 MLOAD PUSH1 0xE0 DUP8 SWAP1 SHL PUSH1 0x1 PUSH1 0x1 PUSH1 0xE0 SHL SUB NOT AND DUP2 MSTORE PUSH1 0x1 PUSH1 0x1 PUSH1 0xA0 SHL SUB SWAP6 DUP7 AND PUSH1 0x4 DUP3 ADD MSTORE SWAP4 DUP6 AND PUSH1 0x24 DUP6 ADD MSTORE SWAP2 ISZERO ISZERO PUSH1 0x44 DUP5 ADD MSTORE DUP4 AND PUSH1 0x64 DUP4 ADD MSTORE SWAP1 SWAP2 AND PUSH1 0x84 DUP3 ADD MSTORE PUSH1 0xA4 DUP2 ADD DUP6 SWAP1 MSTORE PUSH1 0xC4 ADD PUSH1 0x20 PUSH1 0x40 MLOAD DUP1 DUP4 SUB DUP2 DUP7 GAS STATICCALL ISZERO DUP1 ISZERO PUSH2 0x1FCE JUMPI RETURNDATASIZE PUSH1 0x0 DUP1 RETURNDATACOPY RETURNDATASIZE PUSH1 0x0 REVERT JUMPDEST POP POP POP POP PUSH1 0x40 MLOAD RETURNDATASIZE PUSH1 0x1F NOT PUSH1 0x1F DUP3 ADD AND DUP3 ADD DUP1 PUSH1 0x40 MSTORE POP DUP2 ADD SWAP1 PUSH2 0x154B SWAP2 SWAP1 PUSH2 0x3ACF JUMP JUMPDEST PUSH1 0x0 PUSH2 0x2047 DUP3 PUSH1 0x40 MLOAD DUP1 PUSH1 0x40 ADD PUSH1 0x40 MSTORE DUP1 PUSH1 0x20 DUP2 MSTORE PUSH1 0x20 ADD PUSH32 0x5361666545524332303A206C6F772D6C6576656C2063616C6C206661696C6564 DUP2 MSTORE POP DUP6 PUSH1 0x1 PUSH1 0x1 PUSH1 0xA0 SHL SUB AND PUSH2 0x2359 SWAP1 SWAP3 SWAP2 SWAP1 PUSH4 0xFFFFFFFF AND JUMP JUMPDEST DUP1 MLOAD SWAP1 SWAP2 POP ISZERO PUSH2 0x568 JUMPI DUP1 DUP1 PUSH1 0x20 ADD SWAP1 MLOAD DUP2 ADD SWAP1 PUSH2 0x2065 SWAP2 SWAP1 PUSH2 0x3C12 JUMP JUMPDEST PUSH2 0x568 JUMPI PUSH1 0x40 MLOAD PUSH3 0x461BCD PUSH1 0xE5 SHL DUP2 MSTORE PUSH1 0x20 PUSH1 0x4 DUP3 ADD MSTORE PUSH1 0x2A PUSH1 0x24 DUP3 ADD MSTORE PUSH32 0x5361666545524332303A204552433230206F7065726174696F6E20646964206E PUSH1 0x44 DUP3 ADD MSTORE PUSH10 0x1BDD081CDD58D8D95959 PUSH1 0xB2 SHL PUSH1 0x64 DUP3 ADD MSTORE PUSH1 0x84 ADD PUSH2 0x5D9 JUMP JUMPDEST PUSH1 0x60 PUSH2 0x53C PUSH1 0x1 PUSH1 0x1 PUSH1 0xA0 SHL SUB DUP4 AND PUSH1 0x14 JUMPDEST PUSH1 0x60 PUSH1 0x0 PUSH2 0x20E5 DUP4 PUSH1 0x2 PUSH2 0x3AB0 JUMP JUMPDEST PUSH2 0x20F0 SWAP1 PUSH1 0x2 PUSH2 0x3C2D JUMP JUMPDEST PUSH1 0x1 PUSH1 0x1 PUSH1 0x40 SHL SUB DUP2 GT ISZERO PUSH2 0x2107 JUMPI PUSH2 0x2107 PUSH2 0x25D4 JUMP JUMPDEST PUSH1 0x40 MLOAD SWAP1 DUP1 DUP3 MSTORE DUP1 PUSH1 0x1F ADD PUSH1 0x1F NOT AND PUSH1 0x20 ADD DUP3 ADD PUSH1 0x40 MSTORE DUP1 ISZERO PUSH2 0x2131 JUMPI PUSH1 0x20 DUP3 ADD DUP2 DUP1 CALLDATASIZE DUP4 CALLDATACOPY ADD SWAP1 POP JUMPDEST POP SWAP1 POP PUSH1 0x3 PUSH1 0xFC SHL DUP2 PUSH1 0x0 DUP2 MLOAD DUP2 LT PUSH2 0x214C JUMPI PUSH2 0x214C PUSH2 0x2D72 JUMP JUMPDEST PUSH1 0x20 ADD ADD SWAP1 PUSH1 0x1 PUSH1 0x1 PUSH1 0xF8 SHL SUB NOT AND SWAP1 DUP2 PUSH1 0x0 BYTE SWAP1 MSTORE8 POP PUSH1 0xF PUSH1 0xFB SHL DUP2 PUSH1 0x1 DUP2 MLOAD DUP2 LT PUSH2 0x217B JUMPI PUSH2 0x217B PUSH2 0x2D72 JUMP JUMPDEST PUSH1 0x20 ADD ADD SWAP1 PUSH1 0x1 PUSH1 0x1 PUSH1 0xF8 SHL SUB NOT AND SWAP1 DUP2 PUSH1 0x0 BYTE SWAP1 MSTORE8 POP PUSH1 0x0 PUSH2 0x219F DUP5 PUSH1 0x2 PUSH2 0x3AB0 JUMP JUMPDEST PUSH2 0x21AA SWAP1 PUSH1 0x1 PUSH2 0x3C2D JUMP JUMPDEST SWAP1 POP JUMPDEST PUSH1 0x1 DUP2 GT ISZERO PUSH2 0x2222 JUMPI PUSH16 0x181899199A1A9B1B9C1CB0B131B232B3 PUSH1 0x81 SHL DUP6 PUSH1 0xF AND PUSH1 0x10 DUP2 LT PUSH2 0x21DE JUMPI PUSH2 0x21DE PUSH2 0x2D72 JUMP JUMPDEST BYTE PUSH1 0xF8 SHL DUP3 DUP3 DUP2 MLOAD DUP2 LT PUSH2 0x21F4 JUMPI PUSH2 0x21F4 PUSH2 0x2D72 JUMP JUMPDEST PUSH1 0x20 ADD ADD SWAP1 PUSH1 0x1 PUSH1 0x1 PUSH1 0xF8 SHL SUB NOT AND SWAP1 DUP2 PUSH1 0x0 BYTE SWAP1 MSTORE8 POP PUSH1 0x4 SWAP5 SWAP1 SWAP5 SHR SWAP4 PUSH2 0x221B DUP2 PUSH2 0x3C40 JUMP JUMPDEST SWAP1 POP PUSH2 0x21AD JUMP JUMPDEST POP DUP4 ISZERO PUSH2 0x2271 JUMPI PUSH1 0x40 MLOAD PUSH3 0x461BCD PUSH1 0xE5 SHL DUP2 MSTORE PUSH1 0x20 PUSH1 0x4 DUP3 ADD DUP2 SWAP1 MSTORE PUSH1 0x24 DUP3 ADD MSTORE PUSH32 0x537472696E67733A20686578206C656E67746820696E73756666696369656E74 PUSH1 0x44 DUP3 ADD MSTORE PUSH1 0x64 ADD PUSH2 0x5D9 JUMP JUMPDEST SWAP4 SWAP3 POP POP POP JUMP JUMPDEST PUSH1 0x0 DUP2 PUSH1 0x1 PUSH1 0x1 PUSH1 0xA0 SHL SUB AND PUSH4 0x741BEF1A PUSH1 0x40 MLOAD DUP2 PUSH4 0xFFFFFFFF AND PUSH1 0xE0 SHL DUP2 MSTORE PUSH1 0x4 ADD PUSH1 0x20 PUSH1 0x40 MLOAD DUP1 DUP4 SUB DUP2 DUP7 GAS STATICCALL ISZERO DUP1 ISZERO PUSH2 0x22B8 JUMPI RETURNDATASIZE PUSH1 0x0 DUP1 RETURNDATACOPY RETURNDATASIZE PUSH1 0x0 REVERT JUMPDEST POP POP POP POP PUSH1 0x40 MLOAD RETURNDATASIZE PUSH1 0x1F NOT PUSH1 0x1F DUP3 ADD AND DUP3 ADD DUP1 PUSH1 0x40 MSTORE POP DUP2 ADD SWAP1 PUSH2 0x22DC SWAP2 SWAP1 PUSH2 0x2D4A JUMP JUMPDEST PUSH1 0x1 PUSH1 0x1 PUSH1 0xA0 SHL SUB AND PUSH4 0xADD37B7B PUSH1 0x40 MLOAD DUP2 PUSH4 0xFFFFFFFF AND PUSH1 0xE0 SHL DUP2 MSTORE PUSH1 0x4 ADD PUSH1 0x20 PUSH1 0x40 MLOAD DUP1 DUP4 SUB DUP2 DUP7 GAS STATICCALL ISZERO DUP1 ISZERO PUSH2 0x143F JUMPI RETURNDATASIZE PUSH1 0x0 DUP1 RETURNDATACOPY RETURNDATASIZE PUSH1 0x0 REVERT JUMPDEST PUSH1 0x0 DUP2 PUSH1 0x1 PUSH1 0x1 PUSH1 0xA0 SHL SUB AND PUSH4 0xB894300D PUSH1 0x40 MLOAD DUP2 PUSH4 0xFFFFFFFF AND PUSH1 0xE0 SHL DUP2 MSTORE PUSH1 0x4 ADD PUSH1 0x20 PUSH1 0x40 MLOAD DUP1 DUP4 SUB DUP2 DUP7 GAS STATICCALL ISZERO DUP1 ISZERO PUSH2 0x143F JUMPI RETURNDATASIZE PUSH1 0x0 DUP1 RETURNDATACOPY RETURNDATASIZE PUSH1 0x0 REVERT JUMPDEST PUSH1 0x60 PUSH2 0x2368 DUP5 DUP5 PUSH1 0x0 DUP6 PUSH2 0x2370 JUMP JUMPDEST SWAP5 SWAP4 POP POP POP POP JUMP JUMPDEST PUSH1 0x60 DUP3 SELFBALANCE LT ISZERO PUSH2 0x23D1 JUMPI PUSH1 0x40 MLOAD PUSH3 0x461BCD PUSH1 0xE5 SHL DUP2 MSTORE PUSH1 0x20 PUSH1 0x4 DUP3 ADD MSTORE PUSH1 0x26 PUSH1 0x24 DUP3 ADD MSTORE PUSH32 0x416464726573733A20696E73756666696369656E742062616C616E636520666F PUSH1 0x44 DUP3 ADD MSTORE PUSH6 0x1C8818D85B1B PUSH1 0xD2 SHL PUSH1 0x64 DUP3 ADD MSTORE PUSH1 0x84 ADD PUSH2 0x5D9 JUMP JUMPDEST PUSH1 0x0 DUP1 DUP7 PUSH1 0x1 PUSH1 0x1 PUSH1 0xA0 SHL SUB AND DUP6 DUP8 PUSH1 0x40 MLOAD PUSH2 0x23ED SWAP2 SWAP1 PUSH2 0x3C57 JUMP JUMPDEST PUSH1 0x0 PUSH1 0x40 MLOAD DUP1 DUP4 SUB DUP2 DUP6 DUP8 GAS CALL SWAP3 POP POP POP RETURNDATASIZE DUP1 PUSH1 0x0 DUP2 EQ PUSH2 0x242A JUMPI PUSH1 0x40 MLOAD SWAP2 POP PUSH1 0x1F NOT PUSH1 0x3F RETURNDATASIZE ADD AND DUP3 ADD PUSH1 0x40 MSTORE RETURNDATASIZE DUP3 MSTORE RETURNDATASIZE PUSH1 0x0 PUSH1 0x20 DUP5 ADD RETURNDATACOPY PUSH2 0x242F JUMP JUMPDEST PUSH1 0x60 SWAP2 POP JUMPDEST POP SWAP2 POP SWAP2 POP PUSH2 0x2440 DUP8 DUP4 DUP4 DUP8 PUSH2 0x244B JUMP JUMPDEST SWAP8 SWAP7 POP POP POP POP POP POP POP JUMP JUMPDEST PUSH1 0x60 DUP4 ISZERO PUSH2 0x24BA JUMPI DUP3 MLOAD PUSH1 0x0 SUB PUSH2 0x24B3 JUMPI PUSH1 0x1 PUSH1 0x1 PUSH1 0xA0 SHL SUB DUP6 AND EXTCODESIZE PUSH2 0x24B3 JUMPI PUSH1 0x40 MLOAD PUSH3 0x461BCD PUSH1 0xE5 SHL DUP2 MSTORE PUSH1 0x20 PUSH1 0x4 DUP3 ADD MSTORE PUSH1 0x1D PUSH1 0x24 DUP3 ADD MSTORE PUSH32 0x416464726573733A2063616C6C20746F206E6F6E2D636F6E7472616374000000 PUSH1 0x44 DUP3 ADD MSTORE PUSH1 0x64 ADD PUSH2 0x5D9 JUMP JUMPDEST POP DUP2 PUSH2 0x2368 JUMP JUMPDEST PUSH2 0x2368 DUP4 DUP4 DUP2 MLOAD ISZERO PUSH2 0x24CF JUMPI DUP2 MLOAD DUP1 DUP4 PUSH1 0x20 ADD REVERT JUMPDEST DUP1 PUSH1 0x40 MLOAD PUSH3 0x461BCD PUSH1 0xE5 SHL DUP2 MSTORE PUSH1 0x4 ADD PUSH2 0x5D9 SWAP2 SWAP1 PUSH2 0x2563 JUMP JUMPDEST PUSH1 0x0 PUSH1 0x20 DUP3 DUP5 SUB SLT ISZERO PUSH2 0x24FB JUMPI PUSH1 0x0 DUP1 REVERT JUMPDEST DUP2 CALLDATALOAD PUSH1 0x1 PUSH1 0x1 PUSH1 0xE0 SHL SUB NOT DUP2 AND DUP2 EQ PUSH2 0x2271 JUMPI PUSH1 0x0 DUP1 REVERT JUMPDEST PUSH1 0x0 JUMPDEST DUP4 DUP2 LT ISZERO PUSH2 0x252E JUMPI DUP2 DUP2 ADD MLOAD DUP4 DUP3 ADD MSTORE PUSH1 0x20 ADD PUSH2 0x2516 JUMP JUMPDEST POP POP PUSH1 0x0 SWAP2 ADD MSTORE JUMP JUMPDEST PUSH1 0x0 DUP2 MLOAD DUP1 DUP5 MSTORE PUSH2 0x254F DUP2 PUSH1 0x20 DUP7 ADD PUSH1 0x20 DUP7 ADD PUSH2 0x2513 JUMP JUMPDEST PUSH1 0x1F ADD PUSH1 0x1F NOT AND SWAP3 SWAP1 SWAP3 ADD PUSH1 0x20 ADD SWAP3 SWAP2 POP POP JUMP JUMPDEST PUSH1 0x20 DUP2 MSTORE PUSH1 0x0 PUSH2 0x2271 PUSH1 0x20 DUP4 ADD DUP5 PUSH2 0x2537 JUMP JUMPDEST PUSH1 0x0 PUSH1 0x20 DUP3 DUP5 SUB SLT ISZERO PUSH2 0x2588 JUMPI PUSH1 0x0 DUP1 REVERT JUMPDEST POP CALLDATALOAD SWAP2 SWAP1 POP JUMP JUMPDEST PUSH1 0x1 PUSH1 0x1 PUSH1 0xA0 SHL SUB DUP2 AND DUP2 EQ PUSH2 0x1124 JUMPI PUSH1 0x0 DUP1 REVERT JUMPDEST PUSH1 0x0 DUP1 PUSH1 0x40 DUP4 DUP6 SUB SLT ISZERO PUSH2 0x25B7 JUMPI PUSH1 0x0 DUP1 REVERT JUMPDEST DUP3 CALLDATALOAD SWAP2 POP PUSH1 0x20 DUP4 ADD CALLDATALOAD PUSH2 0x25C9 DUP2 PUSH2 0x258F JUMP JUMPDEST DUP1 SWAP2 POP POP SWAP3 POP SWAP3 SWAP1 POP JUMP JUMPDEST PUSH4 0x4E487B71 PUSH1 0xE0 SHL PUSH1 0x0 MSTORE PUSH1 0x41 PUSH1 0x4 MSTORE PUSH1 0x24 PUSH1 0x0 REVERT JUMPDEST PUSH1 0x40 MLOAD PUSH1 0xE0 DUP2 ADD PUSH1 0x1 PUSH1 0x1 PUSH1 0x40 SHL SUB DUP2 GT DUP3 DUP3 LT OR ISZERO PUSH2 0x260C JUMPI PUSH2 0x260C PUSH2 0x25D4 JUMP JUMPDEST PUSH1 0x40 MSTORE SWAP1 JUMP JUMPDEST PUSH1 0x40 MLOAD PUSH1 0xA0 DUP2 ADD PUSH1 0x1 PUSH1 0x1 PUSH1 0x40 SHL SUB DUP2 GT DUP3 DUP3 LT OR ISZERO PUSH2 0x260C JUMPI PUSH2 0x260C PUSH2 0x25D4 JUMP JUMPDEST PUSH1 0x40 MLOAD PUSH2 0x1A0 DUP2 ADD PUSH1 0x1 PUSH1 0x1 PUSH1 0x40 SHL SUB DUP2 GT DUP3 DUP3 LT OR ISZERO PUSH2 0x260C JUMPI PUSH2 0x260C PUSH2 0x25D4 JUMP JUMPDEST PUSH1 0x40 MLOAD PUSH1 0x60 DUP2 ADD PUSH1 0x1 PUSH1 0x1 PUSH1 0x40 SHL SUB DUP2 GT DUP3 DUP3 LT OR ISZERO PUSH2 0x260C JUMPI PUSH2 0x260C PUSH2 0x25D4 JUMP JUMPDEST PUSH1 0x40 MLOAD PUSH1 0x1F DUP3 ADD PUSH1 0x1F NOT AND DUP2 ADD PUSH1 0x1 PUSH1 0x1 PUSH1 0x40 SHL SUB DUP2 GT DUP3 DUP3 LT OR ISZERO PUSH2 0x26A1 JUMPI PUSH2 0x26A1 PUSH2 0x25D4 JUMP JUMPDEST PUSH1 0x40 MSTORE SWAP2 SWAP1 POP JUMP JUMPDEST PUSH1 0x0 PUSH1 0x1 PUSH1 0x1 PUSH1 0x40 SHL SUB DUP3 GT ISZERO PUSH2 0x26C2 JUMPI PUSH2 0x26C2 PUSH2 0x25D4 JUMP JUMPDEST POP PUSH1 0x1F ADD PUSH1 0x1F NOT AND PUSH1 0x20 ADD SWAP1 JUMP JUMPDEST PUSH1 0x0 DUP3 PUSH1 0x1F DUP4 ADD SLT PUSH2 0x26E1 JUMPI PUSH1 0x0 DUP1 REVERT JUMPDEST DUP2 CALLDATALOAD PUSH2 0x26F4 PUSH2 0x26EF DUP3 PUSH2 0x26A9 JUMP JUMPDEST PUSH2 0x2679 JUMP JUMPDEST DUP2 DUP2 MSTORE DUP5 PUSH1 0x20 DUP4 DUP7 ADD ADD GT ISZERO PUSH2 0x2709 JUMPI PUSH1 0x0 DUP1 REVERT JUMPDEST DUP2 PUSH1 0x20 DUP6 ADD PUSH1 0x20 DUP4 ADD CALLDATACOPY PUSH1 0x0 SWAP2 DUP2 ADD PUSH1 0x20 ADD SWAP2 SWAP1 SWAP2 MSTORE SWAP4 SWAP3 POP POP POP JUMP JUMPDEST PUSH1 0x0 DUP1 PUSH1 0x40 DUP4 DUP6 SUB SLT ISZERO PUSH2 0x2739 JUMPI PUSH1 0x0 DUP1 REVERT JUMPDEST DUP3 CALLDATALOAD PUSH2 0x2744 DUP2 PUSH2 0x258F JUMP JUMPDEST SWAP2 POP PUSH1 0x20 DUP4 ADD CALLDATALOAD PUSH1 0x1 PUSH1 0x1 PUSH1 0x40 SHL SUB DUP2 GT ISZERO PUSH2 0x275F JUMPI PUSH1 0x0 DUP1 REVERT JUMPDEST PUSH2 0x276B DUP6 DUP3 DUP7 ADD PUSH2 0x26D0 JUMP JUMPDEST SWAP2 POP POP SWAP3 POP SWAP3 SWAP1 POP JUMP JUMPDEST PUSH1 0x0 DUP1 PUSH1 0x40 DUP4 DUP6 SUB SLT ISZERO PUSH2 0x2788 JUMPI PUSH1 0x0 DUP1 REVERT JUMPDEST DUP3 CALLDATALOAD PUSH1 0x1 PUSH1 0x1 PUSH1 0x40 SHL SUB DUP1 DUP3 GT ISZERO PUSH2 0x279F JUMPI PUSH1 0x0 DUP1 REVERT JUMPDEST SWAP1 DUP5 ADD SWAP1 PUSH2 0x100 DUP3 DUP8 SUB SLT ISZERO PUSH2 0x27B4 JUMPI PUSH1 0x0 DUP1 REVERT JUMPDEST SWAP1 SWAP3 POP PUSH1 0x20 DUP5 ADD CALLDATALOAD SWAP1 DUP1 DUP3 GT ISZERO PUSH2 0x27CA JUMPI PUSH1 0x0 DUP1 REVERT JUMPDEST POP PUSH2 0x276B DUP6 DUP3 DUP7 ADD PUSH2 0x26D0 JUMP JUMPDEST DUP3 ISZERO ISZERO DUP2 MSTORE PUSH1 0x40 PUSH1 0x20 DUP3 ADD MSTORE PUSH1 0x0 PUSH2 0x2368 PUSH1 0x40 DUP4 ADD DUP5 PUSH2 0x2537 JUMP JUMPDEST PUSH1 0x0 DUP1 DUP4 PUSH1 0x1F DUP5 ADD SLT PUSH2 0x2804 JUMPI PUSH1 0x0 DUP1 REVERT JUMPDEST POP DUP2 CALLDATALOAD PUSH1 0x1 PUSH1 0x1 PUSH1 0x40 SHL SUB DUP2 GT ISZERO PUSH2 0x281B JUMPI PUSH1 0x0 DUP1 REVERT JUMPDEST PUSH1 0x20 DUP4 ADD SWAP2 POP DUP4 PUSH1 0x20 DUP3 DUP6 ADD ADD GT ISZERO PUSH2 0xFD0 JUMPI PUSH1 0x0 DUP1 REVERT JUMPDEST PUSH1 0x0 DUP1 PUSH1 0x20 DUP4 DUP6 SUB SLT ISZERO PUSH2 0x2846 JUMPI PUSH1 0x0 DUP1 REVERT JUMPDEST DUP3 CALLDATALOAD PUSH1 0x1 PUSH1 0x1 PUSH1 0x40 SHL SUB DUP2 GT ISZERO PUSH2 0x285C JUMPI PUSH1 0x0 DUP1 REVERT JUMPDEST PUSH2 0x2868 DUP6 DUP3 DUP7 ADD PUSH2 0x27F2 JUMP JUMPDEST SWAP1 SWAP7 SWAP1 SWAP6 POP SWAP4 POP POP POP POP JUMP JUMPDEST PUSH1 0x0 DUP1 PUSH1 0x40 DUP4 DUP6 SUB SLT ISZERO PUSH2 0x2887 JUMPI PUSH1 0x0 DUP1 REVERT JUMPDEST DUP3 CALLDATALOAD PUSH2 0x2892 DUP2 PUSH2 0x258F JUMP JUMPDEST SWAP5 PUSH1 0x20 SWAP4 SWAP1 SWAP4 ADD CALLDATALOAD SWAP4 POP POP POP JUMP JUMPDEST PUSH1 0x0 DUP1 PUSH1 0x0 DUP1 PUSH1 0x40 DUP6 DUP8 SUB SLT ISZERO PUSH2 0x28B6 JUMPI PUSH1 0x0 DUP1 REVERT JUMPDEST DUP5 CALLDATALOAD PUSH1 0x1 PUSH1 0x1 PUSH1 0x40 SHL SUB DUP1 DUP3 GT ISZERO PUSH2 0x28CD JUMPI PUSH1 0x0 DUP1 REVERT JUMPDEST DUP2 DUP8 ADD SWAP2 POP DUP8 PUSH1 0x1F DUP4 ADD SLT PUSH2 0x28E1 JUMPI PUSH1 0x0 DUP1 REVERT JUMPDEST DUP2 CALLDATALOAD DUP2 DUP2 GT ISZERO PUSH2 0x28F0 JUMPI PUSH1 0x0 DUP1 REVERT JUMPDEST DUP9 PUSH1 0x20 DUP3 PUSH1 0x5 SHL DUP6 ADD ADD GT ISZERO PUSH2 0x2905 JUMPI PUSH1 0x0 DUP1 REVERT JUMPDEST PUSH1 0x20 SWAP3 DUP4 ADD SWAP7 POP SWAP5 POP SWAP1 DUP7 ADD CALLDATALOAD SWAP1 DUP1 DUP3 GT ISZERO PUSH2 0x2920 JUMPI PUSH1 0x0 DUP1 REVERT JUMPDEST POP PUSH2 0x292D DUP8 DUP3 DUP9 ADD PUSH2 0x27F2 JUMP JUMPDEST SWAP6 SWAP9 SWAP5 SWAP8 POP SWAP6 POP POP POP POP JUMP JUMPDEST PUSH1 0x0 PUSH1 0x1 PUSH1 0x1 PUSH1 0x40 SHL SUB DUP3 GT ISZERO PUSH2 0x2952 JUMPI PUSH2 0x2952 PUSH2 0x25D4 JUMP JUMPDEST POP PUSH1 0x5 SHL PUSH1 0x20 ADD SWAP1 JUMP JUMPDEST PUSH1 0x0 DUP3 PUSH1 0x1F DUP4 ADD SLT PUSH2 0x296D JUMPI PUSH1 0x0 DUP1 REVERT JUMPDEST DUP2 CALLDATALOAD PUSH1 0x20 PUSH2 0x297D PUSH2 0x26EF DUP4 PUSH2 0x2939 JUMP JUMPDEST DUP3 DUP2 MSTORE PUSH1 0x5 SWAP3 SWAP1 SWAP3 SHL DUP5 ADD DUP2 ADD SWAP2 DUP2 DUP2 ADD SWAP1 DUP7 DUP5 GT ISZERO PUSH2 0x299C JUMPI PUSH1 0x0 DUP1 REVERT JUMPDEST DUP3 DUP7 ADD JUMPDEST DUP5 DUP2 LT ISZERO PUSH2 0x29C0 JUMPI DUP1 CALLDATALOAD PUSH2 0x29B3 DUP2 PUSH2 0x258F JUMP JUMPDEST DUP4 MSTORE SWAP2 DUP4 ADD SWAP2 DUP4 ADD PUSH2 0x29A0 JUMP JUMPDEST POP SWAP7 SWAP6 POP POP POP POP POP POP JUMP JUMPDEST PUSH1 0x0 DUP3 PUSH1 0x1F DUP4 ADD SLT PUSH2 0x29DC JUMPI PUSH1 0x0 DUP1 REVERT JUMPDEST DUP2 CALLDATALOAD PUSH1 0x20 PUSH2 0x29EC PUSH2 0x26EF DUP4 PUSH2 0x2939 JUMP JUMPDEST DUP3 DUP2 MSTORE PUSH1 0x5 SWAP3 SWAP1 SWAP3 SHL DUP5 ADD DUP2 ADD SWAP2 DUP2 DUP2 ADD SWAP1 DUP7 DUP5 GT ISZERO PUSH2 0x2A0B JUMPI PUSH1 0x0 DUP1 REVERT JUMPDEST DUP3 DUP7 ADD JUMPDEST DUP5 DUP2 LT ISZERO PUSH2 0x29C0 JUMPI DUP1 CALLDATALOAD PUSH1 0x1 PUSH1 0x1 PUSH1 0x40 SHL SUB DUP2 GT ISZERO PUSH2 0x2A2E JUMPI PUSH1 0x0 DUP1 DUP2 REVERT JUMPDEST PUSH2 0x2A3C DUP10 DUP7 DUP4 DUP12 ADD ADD PUSH2 0x26D0 JUMP JUMPDEST DUP5 MSTORE POP SWAP2 DUP4 ADD SWAP2 DUP4 ADD PUSH2 0x2A0F JUMP JUMPDEST PUSH1 0x0 DUP1 PUSH1 0x0 DUP1 PUSH1 0x0 PUSH1 0xA0 DUP7 DUP9 SUB SLT ISZERO PUSH2 0x2A62 JUMPI PUSH1 0x0 DUP1 REVERT JUMPDEST DUP6 CALLDATALOAD PUSH2 0x2A6D DUP2 PUSH2 0x258F JUMP JUMPDEST SWAP5 POP PUSH1 0x20 DUP7 DUP2 ADD CALLDATALOAD PUSH1 0x1 PUSH1 0x1 PUSH1 0x40 SHL SUB DUP1 DUP3 GT ISZERO PUSH2 0x2A8A JUMPI PUSH1 0x0 DUP1 REVERT JUMPDEST PUSH2 0x2A96 DUP11 DUP4 DUP12 ADD PUSH2 0x295C JUMP JUMPDEST SWAP7 POP PUSH1 0x40 DUP10 ADD CALLDATALOAD SWAP2 POP DUP1 DUP3 GT ISZERO PUSH2 0x2AAC JUMPI PUSH1 0x0 DUP1 REVERT JUMPDEST DUP2 DUP10 ADD SWAP2 POP DUP10 PUSH1 0x1F DUP4 ADD SLT PUSH2 0x2AC0 JUMPI PUSH1 0x0 DUP1 REVERT JUMPDEST DUP2 CALLDATALOAD PUSH2 0x2ACE PUSH2 0x26EF DUP3 PUSH2 0x2939 JUMP JUMPDEST DUP2 DUP2 MSTORE PUSH1 0x5 SWAP2 SWAP1 SWAP2 SHL DUP4 ADD DUP5 ADD SWAP1 DUP5 DUP2 ADD SWAP1 DUP13 DUP4 GT ISZERO PUSH2 0x2AED JUMPI PUSH1 0x0 DUP1 REVERT JUMPDEST SWAP4 DUP6 ADD SWAP4 JUMPDEST DUP3 DUP6 LT ISZERO PUSH2 0x2B0B JUMPI DUP5 CALLDATALOAD DUP3 MSTORE SWAP4 DUP6 ADD SWAP4 SWAP1 DUP6 ADD SWAP1 PUSH2 0x2AF2 JUMP JUMPDEST SWAP8 POP POP POP PUSH1 0x60 DUP10 ADD CALLDATALOAD SWAP3 POP DUP1 DUP4 GT ISZERO PUSH2 0x2B23 JUMPI PUSH1 0x0 DUP1 REVERT JUMPDEST PUSH2 0x2B2F DUP11 DUP5 DUP12 ADD PUSH2 0x295C JUMP JUMPDEST SWAP5 POP PUSH1 0x80 DUP10 ADD CALLDATALOAD SWAP3 POP DUP1 DUP4 GT ISZERO PUSH2 0x2B45 JUMPI PUSH1 0x0 DUP1 REVERT JUMPDEST POP POP PUSH2 0x2B53 DUP9 DUP3 DUP10 ADD PUSH2 0x29CB JUMP JUMPDEST SWAP2 POP POP SWAP3 SWAP6 POP SWAP3 SWAP6 SWAP1 SWAP4 POP JUMP JUMPDEST PUSH1 0x0 PUSH1 0x20 DUP3 DUP5 SUB SLT ISZERO PUSH2 0x2B72 JUMPI PUSH1 0x0 DUP1 REVERT JUMPDEST DUP2 CALLDATALOAD PUSH2 0x2271 DUP2 PUSH2 0x258F JUMP JUMPDEST PUSH1 0xFF DUP2 AND DUP2 EQ PUSH2 0x1124 JUMPI PUSH1 0x0 DUP1 REVERT JUMPDEST DUP1 CALLDATALOAD PUSH2 0x2B97 DUP2 PUSH2 0x2B7D JUMP JUMPDEST SWAP2 SWAP1 POP JUMP JUMPDEST PUSH1 0x0 DUP1 PUSH1 0x40 DUP4 DUP6 SUB SLT ISZERO PUSH2 0x2BAF JUMPI PUSH1 0x0 DUP1 REVERT JUMPDEST DUP3 CALLDATALOAD PUSH2 0x2BBA DUP2 PUSH2 0x258F JUMP JUMPDEST SWAP2 POP PUSH1 0x20 DUP4 ADD CALLDATALOAD PUSH2 0x25C9 DUP2 PUSH2 0x2B7D JUMP JUMPDEST PUSH1 0x0 DUP1 PUSH1 0x0 PUSH1 0x60 DUP5 DUP7 SUB SLT ISZERO PUSH2 0x2BDF JUMPI PUSH1 0x0 DUP1 REVERT JUMPDEST DUP4 CALLDATALOAD PUSH2 0x2BEA DUP2 PUSH2 0x258F JUMP JUMPDEST SWAP3 POP PUSH1 0x20 DUP5 ADD CALLDATALOAD PUSH2 0x2BFA DUP2 PUSH2 0x258F JUMP JUMPDEST SWAP3 SWAP6 SWAP3 SWAP5 POP POP POP PUSH1 0x40 SWAP2 SWAP1 SWAP2 ADD CALLDATALOAD SWAP1 JUMP JUMPDEST PUSH1 0x1 DUP2 DUP2 SHR SWAP1 DUP3 AND DUP1 PUSH2 0x2C1F JUMPI PUSH1 0x7F DUP3 AND SWAP2 POP JUMPDEST PUSH1 0x20 DUP3 LT DUP2 SUB PUSH2 0x2C3F JUMPI PUSH4 0x4E487B71 PUSH1 0xE0 SHL PUSH1 0x0 MSTORE PUSH1 0x22 PUSH1 0x4 MSTORE PUSH1 0x24 PUSH1 0x0 REVERT JUMPDEST POP SWAP2 SWAP1 POP JUMP JUMPDEST PUSH1 0x1F DUP3 GT ISZERO PUSH2 0x568 JUMPI PUSH1 0x0 DUP2 DUP2 MSTORE PUSH1 0x20 DUP2 KECCAK256 PUSH1 0x1F DUP6 ADD PUSH1 0x5 SHR DUP2 ADD PUSH1 0x20 DUP7 LT ISZERO PUSH2 0x2C6C JUMPI POP DUP1 JUMPDEST PUSH1 0x1F DUP6 ADD PUSH1 0x5 SHR DUP3 ADD SWAP2 POP JUMPDEST DUP2 DUP2 LT ISZERO PUSH2 0xFB5 JUMPI DUP3 DUP2 SSTORE PUSH1 0x1 ADD PUSH2 0x2C78 JUMP JUMPDEST DUP2 MLOAD PUSH1 0x1 PUSH1 0x1 PUSH1 0x40 SHL SUB DUP2 GT ISZERO PUSH2 0x2CA4 JUMPI PUSH2 0x2CA4 PUSH2 0x25D4 JUMP JUMPDEST PUSH2 0x2CB8 DUP2 PUSH2 0x2CB2 DUP5 SLOAD PUSH2 0x2C0B JUMP JUMPDEST DUP5 PUSH2 0x2C45 JUMP JUMPDEST PUSH1 0x20 DUP1 PUSH1 0x1F DUP4 GT PUSH1 0x1 DUP2 EQ PUSH2 0x2CED JUMPI PUSH1 0x0 DUP5 ISZERO PUSH2 0x2CD5 JUMPI POP DUP6 DUP4 ADD MLOAD JUMPDEST PUSH1 0x0 NOT PUSH1 0x3 DUP7 SWAP1 SHL SHR NOT AND PUSH1 0x1 DUP6 SWAP1 SHL OR DUP6 SSTORE PUSH2 0xFB5 JUMP JUMPDEST PUSH1 0x0 DUP6 DUP2 MSTORE PUSH1 0x20 DUP2 KECCAK256 PUSH1 0x1F NOT DUP7 AND SWAP2 JUMPDEST DUP3 DUP2 LT ISZERO PUSH2 0x2D1C JUMPI DUP9 DUP7 ADD MLOAD DUP3 SSTORE SWAP5 DUP5 ADD SWAP5 PUSH1 0x1 SWAP1 SWAP2 ADD SWAP1 DUP5 ADD PUSH2 0x2CFD JUMP JUMPDEST POP DUP6 DUP3 LT ISZERO PUSH2 0x2D3A JUMPI DUP8 DUP6 ADD MLOAD PUSH1 0x0 NOT PUSH1 0x3 DUP9 SWAP1 SHL PUSH1 0xF8 AND SHR NOT AND DUP2 SSTORE JUMPDEST POP POP POP POP POP PUSH1 0x1 SWAP1 DUP2 SHL ADD SWAP1 SSTORE POP JUMP JUMPDEST PUSH1 0x0 PUSH1 0x20 DUP3 DUP5 SUB SLT ISZERO PUSH2 0x2D5C JUMPI PUSH1 0x0 DUP1 REVERT JUMPDEST DUP2 MLOAD PUSH2 0x2271 DUP2 PUSH2 0x258F JUMP JUMPDEST DUP1 MLOAD PUSH2 0x2B97 DUP2 PUSH2 0x258F JUMP JUMPDEST PUSH4 0x4E487B71 PUSH1 0xE0 SHL PUSH1 0x0 MSTORE PUSH1 0x32 PUSH1 0x4 MSTORE PUSH1 0x24 PUSH1 0x0 REVERT JUMPDEST PUSH1 0x0 DUP1 DUP4 CALLDATALOAD PUSH1 0x1E NOT DUP5 CALLDATASIZE SUB ADD DUP2 SLT PUSH2 0x2D9F JUMPI PUSH1 0x0 DUP1 REVERT JUMPDEST DUP4 ADD DUP1 CALLDATALOAD SWAP2 POP PUSH1 0x1 PUSH1 0x1 PUSH1 0x40 SHL SUB DUP3 GT ISZERO PUSH2 0x2DB9 JUMPI PUSH1 0x0 DUP1 REVERT JUMPDEST PUSH1 0x20 ADD SWAP2 POP CALLDATASIZE DUP2 SWAP1 SUB DUP3 SGT ISZERO PUSH2 0xFD0 JUMPI PUSH1 0x0 DUP1 REVERT JUMPDEST PUSH1 0x20 DUP2 MSTORE PUSH1 0x1 DUP1 PUSH1 0xA0 SHL SUB DUP3 MLOAD AND PUSH1 0x20 DUP3 ADD MSTORE PUSH1 0xFF PUSH1 0x20 DUP4 ADD MLOAD AND PUSH1 0x40 DUP3 ADD MSTORE PUSH1 0x0 PUSH1 0x40 DUP4 ADD MLOAD PUSH1 0x60 DUP1 DUP5 ADD MSTORE PUSH2 0x2368 PUSH1 0x80 DUP5 ADD DUP3 PUSH2 0x2537 JUMP JUMPDEST PUSH1 0xA0 DUP2 MSTORE PUSH1 0x0 PUSH2 0x2E1B PUSH1 0xA0 DUP4 ADD DUP9 PUSH2 0x2537 JUMP JUMPDEST PUSH1 0x20 DUP4 DUP3 SUB DUP2 DUP6 ADD MSTORE DUP2 DUP9 MLOAD DUP1 DUP5 MSTORE DUP3 DUP5 ADD SWAP2 POP DUP3 DUP2 PUSH1 0x5 SHL DUP6 ADD ADD DUP4 DUP12 ADD PUSH1 0x0 JUMPDEST DUP4 DUP2 LT ISZERO PUSH2 0x2E6B JUMPI PUSH1 0x1F NOT DUP8 DUP5 SUB ADD DUP6 MSTORE PUSH2 0x2E59 DUP4 DUP4 MLOAD PUSH2 0x2537 JUMP JUMPDEST SWAP5 DUP7 ADD SWAP5 SWAP3 POP SWAP1 DUP6 ADD SWAP1 PUSH1 0x1 ADD PUSH2 0x2E3D JUMP JUMPDEST POP POP DUP7 DUP2 SUB PUSH1 0x40 DUP9 ADD MSTORE PUSH2 0x2E7F DUP2 DUP12 PUSH2 0x2537 JUMP JUMPDEST SWAP5 POP POP POP POP POP DUP5 PUSH1 0x60 DUP5 ADD MSTORE DUP3 DUP2 SUB PUSH1 0x80 DUP5 ADD MSTORE PUSH2 0x2E9D DUP2 DUP6 PUSH2 0x2537 JUMP JUMPDEST SWAP9 SWAP8 POP POP POP POP POP POP POP POP JUMP JUMPDEST DUP1 CALLDATALOAD PUSH2 0x2B97 DUP2 PUSH2 0x258F JUMP JUMPDEST PUSH1 0x0 DUP1 PUSH1 0x0 DUP1 PUSH1 0x0 PUSH1 0xA0 DUP7 DUP9 SUB SLT ISZERO PUSH2 0x2ECC JUMPI PUSH1 0x0 DUP1 REVERT JUMPDEST DUP6 CALLDATALOAD PUSH1 0x1 PUSH1 0x1 PUSH1 0x40 SHL SUB DUP1 DUP3 GT ISZERO PUSH2 0x2EE3 JUMPI PUSH1 0x0 DUP1 REVERT JUMPDEST DUP2 DUP9 ADD SWAP2 POP DUP9 PUSH1 0x1F DUP4 ADD SLT PUSH2 0x2EF7 JUMPI PUSH1 0x0 DUP1 REVERT JUMPDEST DUP2 CALLDATALOAD PUSH1 0x20 PUSH2 0x2F07 PUSH2 0x26EF DUP4 PUSH2 0x2939 JUMP JUMPDEST DUP3 DUP2 MSTORE PUSH1 0x5 SWAP3 SWAP1 SWAP3 SHL DUP5 ADD DUP2 ADD SWAP2 DUP2 DUP2 ADD SWAP1 DUP13 DUP5 GT ISZERO PUSH2 0x2F26 JUMPI PUSH1 0x0 DUP1 REVERT JUMPDEST DUP3 DUP7 ADD JUMPDEST DUP5 DUP2 LT ISZERO PUSH2 0x2F5E JUMPI DUP1 CALLDATALOAD DUP7 DUP2 GT ISZERO PUSH2 0x2F42 JUMPI PUSH1 0x0 DUP1 DUP2 REVERT JUMPDEST PUSH2 0x2F50 DUP16 DUP7 DUP4 DUP12 ADD ADD PUSH2 0x26D0 JUMP JUMPDEST DUP5 MSTORE POP SWAP2 DUP4 ADD SWAP2 DUP4 ADD PUSH2 0x2F2A JUMP JUMPDEST POP SWAP10 POP PUSH2 0x2F6E SWAP1 POP DUP11 DUP3 ADD PUSH2 0x2EA9 JUMP JUMPDEST SWAP8 POP POP POP PUSH2 0x2F7E PUSH1 0x40 DUP10 ADD PUSH2 0x2B8C JUMP JUMPDEST SWAP5 POP PUSH1 0x60 DUP9 ADD CALLDATALOAD SWAP2 POP DUP1 DUP3 GT ISZERO PUSH2 0x2F94 JUMPI PUSH1 0x0 DUP1 REVERT JUMPDEST POP PUSH2 0x2FA1 DUP9 DUP3 DUP10 ADD PUSH2 0x26D0 JUMP JUMPDEST SWAP3 POP POP PUSH2 0x2FB0 PUSH1 0x80 DUP8 ADD PUSH2 0x2EA9 JUMP JUMPDEST SWAP1 POP SWAP3 SWAP6 POP SWAP3 SWAP6 SWAP1 SWAP4 POP JUMP JUMPDEST DUP1 MLOAD PUSH4 0xFFFFFFFF DUP2 AND DUP2 EQ PUSH2 0x2B97 JUMPI PUSH1 0x0 DUP1 REVERT JUMPDEST DUP1 MLOAD PUSH1 0x1 PUSH1 0x1 PUSH1 0xC0 SHL SUB DUP2 AND DUP2 EQ PUSH2 0x2B97 JUMPI PUSH1 0x0 DUP1 REVERT JUMPDEST PUSH1 0x0 PUSH1 0xE0 DUP3 DUP5 SUB SLT ISZERO PUSH2 0x2FF9 JUMPI PUSH1 0x0 DUP1 REVERT JUMPDEST PUSH2 0x3001 PUSH2 0x25EA JUMP JUMPDEST DUP3 MLOAD DUP2 MSTORE PUSH2 0x3011 PUSH1 0x20 DUP5 ADD PUSH2 0x2FBC JUMP JUMPDEST PUSH1 0x20 DUP3 ADD MSTORE PUSH2 0x3022 PUSH1 0x40 DUP5 ADD PUSH2 0x2FBC JUMP JUMPDEST PUSH1 0x40 DUP3 ADD MSTORE PUSH2 0x3033 PUSH1 0x60 DUP5 ADD PUSH2 0x2FD0 JUMP JUMPDEST PUSH1 0x60 DUP3 ADD MSTORE PUSH2 0x3044 PUSH1 0x80 DUP5 ADD PUSH2 0x2FD0 JUMP JUMPDEST PUSH1 0x80 DUP3 ADD MSTORE PUSH2 0x3055 PUSH1 0xA0 DUP5 ADD PUSH2 0x2FBC JUMP JUMPDEST PUSH1 0xA0 DUP3 ADD MSTORE PUSH1 0xC0 DUP4 ADD MLOAD DUP1 PUSH1 0x17 SIGNEXTEND DUP2 EQ PUSH2 0x306E JUMPI PUSH1 0x0 DUP1 REVERT JUMPDEST PUSH1 0xC0 DUP3 ADD MSTORE SWAP4 SWAP3 POP POP POP JUMP JUMPDEST DUP1 MLOAD PUSH1 0x1 PUSH1 0x1 PUSH1 0x40 SHL SUB DUP2 AND DUP2 EQ PUSH2 0x2B97 JUMPI PUSH1 0x0 DUP1 REVERT JUMPDEST DUP1 MLOAD DUP1 ISZERO ISZERO DUP2 EQ PUSH2 0x2B97 JUMPI PUSH1 0x0 DUP1 REVERT JUMPDEST PUSH1 0x0 PUSH1 0x20 DUP1 DUP4 DUP6 SUB SLT ISZERO PUSH2 0x30B4 JUMPI PUSH1 0x0 DUP1 REVERT JUMPDEST DUP3 MLOAD PUSH1 0x1 PUSH1 0x1 PUSH1 0x40 SHL SUB DUP2 GT ISZERO PUSH2 0x30CA JUMPI PUSH1 0x0 DUP1 REVERT JUMPDEST DUP4 ADD PUSH1 0x1F DUP2 ADD DUP6 SGT PUSH2 0x30DB JUMPI PUSH1 0x0 DUP1 REVERT JUMPDEST DUP1 MLOAD PUSH2 0x30E9 PUSH2 0x26EF DUP3 PUSH2 0x2939 JUMP JUMPDEST DUP2 DUP2 MSTORE PUSH1 0xA0 SWAP2 DUP3 MUL DUP4 ADD DUP5 ADD SWAP2 DUP5 DUP3 ADD SWAP2 SWAP1 DUP9 DUP5 GT ISZERO PUSH2 0x3108 JUMPI PUSH1 0x0 DUP1 REVERT JUMPDEST SWAP4 DUP6 ADD SWAP4 JUMPDEST DUP4 DUP6 LT ISZERO PUSH2 0x318D JUMPI DUP1 DUP6 DUP11 SUB SLT ISZERO PUSH2 0x3125 JUMPI PUSH1 0x0 DUP1 DUP2 REVERT JUMPDEST PUSH2 0x312D PUSH2 0x2612 JUMP JUMPDEST DUP6 MLOAD PUSH2 0x3138 DUP2 PUSH2 0x258F JUMP JUMPDEST DUP2 MSTORE DUP6 DUP8 ADD MLOAD PUSH2 0x3147 DUP2 PUSH2 0x258F JUMP JUMPDEST DUP2 DUP9 ADD MSTORE PUSH1 0x40 PUSH2 0x3158 DUP8 DUP3 ADD PUSH2 0x307A JUMP JUMPDEST SWAP1 DUP3 ADD MSTORE PUSH1 0x60 PUSH2 0x3169 DUP8 DUP3 ADD PUSH2 0x3091 JUMP JUMPDEST SWAP1 DUP3 ADD MSTORE PUSH1 0x80 PUSH2 0x317A DUP8 DUP3 ADD PUSH2 0x3091 JUMP JUMPDEST SWAP1 DUP3 ADD MSTORE DUP4 MSTORE SWAP4 DUP5 ADD SWAP4 SWAP2 DUP6 ADD SWAP2 PUSH2 0x310D JUMP JUMPDEST POP SWAP8 SWAP7 POP POP POP POP POP POP POP JUMP JUMPDEST PUSH1 0x0 DUP2 MLOAD DUP1 DUP5 MSTORE PUSH1 0x20 DUP1 DUP6 ADD SWAP5 POP DUP1 DUP5 ADD PUSH1 0x0 JUMPDEST DUP4 DUP2 LT ISZERO PUSH2 0x320C JUMPI DUP2 MLOAD DUP1 MLOAD PUSH1 0x1 PUSH1 0x1 PUSH1 0xA0 SHL SUB SWAP1 DUP2 AND DUP10 MSTORE DUP5 DUP3 ADD MLOAD AND DUP5 DUP10 ADD MSTORE PUSH1 0x40 DUP1 DUP3 ADD MLOAD PUSH1 0x1 PUSH1 0x1 PUSH1 0x40 SHL SUB AND SWAP1 DUP10 ADD MSTORE PUSH1 0x60 DUP1 DUP3 ADD MLOAD ISZERO ISZERO SWAP1 DUP10 ADD MSTORE PUSH1 0x80 SWAP1 DUP2 ADD MLOAD ISZERO ISZERO SWAP1 DUP9 ADD MSTORE PUSH1 0xA0 SWAP1 SWAP7 ADD SWAP6 SWAP1 DUP3 ADD SWAP1 PUSH1 0x1 ADD PUSH2 0x31AD JUMP JUMPDEST POP SWAP5 SWAP6 SWAP5 POP POP POP POP POP JUMP JUMPDEST PUSH1 0x1 DUP1 PUSH1 0xA0 SHL SUB DUP6 AND DUP2 MSTORE DUP4 PUSH1 0x20 DUP3 ADD MSTORE DUP3 PUSH1 0x40 DUP3 ADD MSTORE PUSH1 0x80 PUSH1 0x60 DUP3 ADD MSTORE PUSH1 0x0 PUSH2 0x1D65 PUSH1 0x80 DUP4 ADD DUP5 PUSH2 0x3199 JUMP JUMPDEST PUSH1 0x0 PUSH1 0x20 DUP3 DUP5 SUB SLT ISZERO PUSH2 0x3256 JUMPI PUSH1 0x0 DUP1 REVERT JUMPDEST DUP2 CALLDATALOAD PUSH1 0x1 PUSH1 0x1 PUSH1 0x40 SHL SUB DUP1 DUP3 GT ISZERO PUSH2 0x326D JUMPI PUSH1 0x0 DUP1 REVERT JUMPDEST SWAP1 DUP4 ADD SWAP1 PUSH1 0x60 DUP3 DUP7 SUB SLT ISZERO PUSH2 0x3281 JUMPI PUSH1 0x0 DUP1 REVERT JUMPDEST PUSH1 0x40 MLOAD PUSH1 0x60 DUP2 ADD DUP2 DUP2 LT DUP4 DUP3 GT OR ISZERO PUSH2 0x329C JUMPI PUSH2 0x329C PUSH2 0x25D4 JUMP JUMPDEST PUSH1 0x40 MSTORE DUP3 CALLDATALOAD PUSH2 0x32AA DUP2 PUSH2 0x258F JUMP JUMPDEST DUP2 MSTORE PUSH1 0x20 DUP4 ADD CALLDATALOAD PUSH2 0x32BA DUP2 PUSH2 0x2B7D JUMP JUMPDEST PUSH1 0x20 DUP3 ADD MSTORE PUSH1 0x40 DUP4 ADD CALLDATALOAD DUP3 DUP2 GT ISZERO PUSH2 0x32D1 JUMPI PUSH1 0x0 DUP1 REVERT JUMPDEST PUSH2 0x32DD DUP8 DUP3 DUP7 ADD PUSH2 0x26D0 JUMP JUMPDEST PUSH1 0x40 DUP4 ADD MSTORE POP SWAP6 SWAP5 POP POP POP POP POP JUMP JUMPDEST DUP1 MLOAD PUSH2 0x2B97 DUP2 PUSH2 0x2B7D JUMP JUMPDEST DUP1 MLOAD PUSH6 0xFFFFFFFFFFFF DUP2 AND DUP2 EQ PUSH2 0x2B97 JUMPI PUSH1 0x0 DUP1 REVERT JUMPDEST DUP1 MLOAD PUSH16 0xFFFFFFFFFFFFFFFFFFFFFFFFFFFFFFFF DUP2 AND DUP2 EQ PUSH2 0x2B97 JUMPI PUSH1 0x0 DUP1 REVERT JUMPDEST PUSH1 0x0 PUSH2 0x1A0 DUP3 DUP5 SUB SLT ISZERO PUSH2 0x3340 JUMPI PUSH1 0x0 DUP1 REVERT JUMPDEST PUSH2 0x3348 PUSH2 0x2634 JUMP JUMPDEST SWAP1 POP PUSH2 0x3353 DUP3 PUSH2 0x32EC JUMP JUMPDEST DUP2 MSTORE PUSH2 0x3361 PUSH1 0x20 DUP4 ADD PUSH2 0x2FBC JUMP JUMPDEST PUSH1 0x20 DUP3 ADD MSTORE PUSH2 0x3372 PUSH1 0x40 DUP4 ADD PUSH2 0x32EC JUMP JUMPDEST PUSH1 0x40 DUP3 ADD MSTORE PUSH2 0x3383 PUSH1 0x60 DUP4 ADD PUSH2 0x2D67 JUMP JUMPDEST PUSH1 0x60 DUP3 ADD MSTORE PUSH2 0x3394 PUSH1 0x80 DUP4 ADD PUSH2 0x32F7 JUMP JUMPDEST PUSH1 0x80 DUP3 ADD MSTORE PUSH2 0x33A5 PUSH1 0xA0 DUP4 ADD PUSH2 0x330D JUMP JUMPDEST PUSH1 0xA0 DUP3 ADD MSTORE PUSH2 0x33B6 PUSH1 0xC0 DUP4 ADD PUSH2 0x330D JUMP JUMPDEST PUSH1 0xC0 DUP3 ADD MSTORE PUSH2 0x33C7 PUSH1 0xE0 DUP4 ADD PUSH2 0x330D JUMP JUMPDEST PUSH1 0xE0 DUP3 ADD MSTORE PUSH2 0x100 PUSH2 0x33DA DUP2 DUP5 ADD PUSH2 0x330D JUMP JUMPDEST SWAP1 DUP3 ADD MSTORE PUSH2 0x120 PUSH2 0x33EC DUP4 DUP3 ADD PUSH2 0x307A JUMP JUMPDEST SWAP1 DUP3 ADD MSTORE PUSH2 0x140 PUSH2 0x33FE DUP4 DUP3 ADD PUSH2 0x307A JUMP JUMPDEST SWAP1 DUP3 ADD MSTORE PUSH2 0x160 PUSH2 0x3410 DUP4 DUP3 ADD PUSH2 0x330D JUMP JUMPDEST DUP2 DUP4 ADD MSTORE POP PUSH2 0x180 DUP1 DUP4 ADD MLOAD DUP2 DUP4 ADD MSTORE POP SWAP3 SWAP2 POP POP JUMP JUMPDEST PUSH1 0x0 DUP3 PUSH1 0x1F DUP4 ADD SLT PUSH2 0x3438 JUMPI PUSH1 0x0 DUP1 REVERT JUMPDEST DUP2 MLOAD PUSH1 0x20 PUSH2 0x3448 PUSH2 0x26EF DUP4 PUSH2 0x2939 JUMP JUMPDEST DUP3 DUP2 MSTORE PUSH1 0x5 SWAP3 SWAP1 SWAP3 SHL DUP5 ADD DUP2 ADD SWAP2 DUP2 DUP2 ADD SWAP1 DUP7 DUP5 GT ISZERO PUSH2 0x3467 JUMPI PUSH1 0x0 DUP1 REVERT JUMPDEST DUP3 DUP7 ADD JUMPDEST DUP5 DUP2 LT ISZERO PUSH2 0x29C0 JUMPI DUP1 MLOAD DUP4 MSTORE SWAP2 DUP4 ADD SWAP2 DUP4 ADD PUSH2 0x346B JUMP JUMPDEST PUSH1 0x0 PUSH1 0x20 DUP3 DUP5 SUB SLT ISZERO PUSH2 0x3494 JUMPI PUSH1 0x0 DUP1 REVERT JUMPDEST DUP2 MLOAD PUSH1 0x1 PUSH1 0x1 PUSH1 0x40 SHL SUB DUP1 DUP3 GT ISZERO PUSH2 0x34AB JUMPI PUSH1 0x0 DUP1 REVERT JUMPDEST SWAP1 DUP4 ADD SWAP1 PUSH2 0x260 DUP3 DUP7 SUB SLT ISZERO PUSH2 0x34C0 JUMPI PUSH1 0x0 DUP1 REVERT JUMPDEST PUSH2 0x34C8 PUSH2 0x25EA JUMP JUMPDEST PUSH2 0x34D1 DUP4 PUSH2 0x2D67 JUMP JUMPDEST DUP2 MSTORE PUSH2 0x34DF PUSH1 0x20 DUP5 ADD PUSH2 0x3091 JUMP JUMPDEST PUSH1 0x20 DUP3 ADD MSTORE PUSH1 0x40 DUP4 ADD MLOAD PUSH1 0x40 DUP3 ADD MSTORE PUSH2 0x34FA PUSH1 0x60 DUP5 ADD PUSH2 0x3091 JUMP JUMPDEST PUSH1 0x60 DUP3 ADD MSTORE PUSH2 0x350B PUSH1 0x80 DUP5 ADD PUSH2 0x3091 JUMP JUMPDEST PUSH1 0x80 DUP3 ADD MSTORE PUSH2 0x351D DUP7 PUSH1 0xA0 DUP6 ADD PUSH2 0x332D JUMP JUMPDEST PUSH1 0xA0 DUP3 ADD MSTORE PUSH2 0x240 DUP4 ADD MLOAD DUP3 DUP2 GT ISZERO PUSH2 0x3535 JUMPI PUSH1 0x0 DUP1 REVERT JUMPDEST PUSH2 0x3541 DUP8 DUP3 DUP7 ADD PUSH2 0x3427 JUMP JUMPDEST PUSH1 0xC0 DUP4 ADD MSTORE POP SWAP6 SWAP5 POP POP POP POP POP JUMP JUMPDEST PUSH1 0x20 DUP2 MSTORE PUSH1 0x0 PUSH2 0x2271 PUSH1 0x20 DUP4 ADD DUP5 PUSH2 0x3199 JUMP JUMPDEST DUP2 DUP4 MSTORE DUP2 DUP2 PUSH1 0x20 DUP6 ADD CALLDATACOPY POP PUSH1 0x0 DUP3 DUP3 ADD PUSH1 0x20 SWAP1 DUP2 ADD SWAP2 SWAP1 SWAP2 MSTORE PUSH1 0x1F SWAP1 SWAP2 ADD PUSH1 0x1F NOT AND SWAP1 SWAP2 ADD ADD SWAP1 JUMP JUMPDEST PUSH1 0xA0 DUP1 DUP3 MSTORE DUP2 ADD DUP7 SWAP1 MSTORE PUSH1 0x0 PUSH1 0xC0 PUSH1 0x5 DUP9 SWAP1 SHL DUP4 ADD DUP2 ADD SWAP1 DUP4 ADD DUP10 DUP4 JUMPDEST DUP11 DUP2 LT ISZERO PUSH2 0x361C JUMPI DUP6 DUP5 SUB PUSH1 0xBF NOT ADD DUP4 MSTORE DUP2 CALLDATALOAD CALLDATASIZE DUP14 SWAP1 SUB PUSH1 0x1E NOT ADD DUP2 SLT PUSH2 0x35CF JUMPI PUSH1 0x0 DUP1 REVERT JUMPDEST DUP13 ADD PUSH1 0x20 DUP2 DUP2 ADD SWAP2 CALLDATALOAD SWAP1 PUSH1 0x1 PUSH1 0x1 PUSH1 0x40 SHL SUB DUP3 GT ISZERO PUSH2 0x35ED JUMPI PUSH1 0x0 DUP1 REVERT JUMPDEST DUP2 CALLDATASIZE SUB DUP4 SGT ISZERO PUSH2 0x35FC JUMPI PUSH1 0x0 DUP1 REVERT JUMPDEST PUSH2 0x3607 DUP8 DUP4 DUP6 PUSH2 0x3563 JUMP JUMPDEST SWAP7 POP SWAP5 DUP6 ADD SWAP5 SWAP4 SWAP1 SWAP4 ADD SWAP3 POP POP PUSH1 0x1 ADD PUSH2 0x35A9 JUMP JUMPDEST POP POP POP PUSH1 0x1 PUSH1 0x1 PUSH1 0xA0 SHL SUB DUP8 AND PUSH1 0x20 DUP5 ADD MSTORE PUSH1 0xFF DUP7 AND PUSH1 0x40 DUP5 ADD MSTORE DUP3 DUP2 SUB PUSH1 0x60 DUP5 ADD MSTORE PUSH2 0x3649 DUP2 DUP7 PUSH2 0x2537 JUMP JUMPDEST SWAP2 POP POP PUSH2 0x2440 PUSH1 0x80 DUP4 ADD DUP5 PUSH1 0x1 PUSH1 0x1 PUSH1 0xA0 SHL SUB AND SWAP1 MSTORE JUMP JUMPDEST PUSH4 0x4E487B71 PUSH1 0xE0 SHL PUSH1 0x0 MSTORE PUSH1 0x11 PUSH1 0x4 MSTORE PUSH1 0x24 PUSH1 0x0 REVERT JUMPDEST PUSH1 0x0 PUSH1 0x1 DUP3 ADD PUSH2 0x3689 JUMPI PUSH2 0x3689 PUSH2 0x3661 JUMP JUMPDEST POP PUSH1 0x1 ADD SWAP1 JUMP JUMPDEST PUSH1 0x0 DUP3 PUSH1 0x1F DUP4 ADD SLT PUSH2 0x36A1 JUMPI PUSH1 0x0 DUP1 REVERT JUMPDEST DUP2 MLOAD PUSH2 0x36AF PUSH2 0x26EF DUP3 PUSH2 0x26A9 JUMP JUMPDEST DUP2 DUP2 MSTORE DUP5 PUSH1 0x20 DUP4 DUP7 ADD ADD GT ISZERO PUSH2 0x36C4 JUMPI PUSH1 0x0 DUP1 REVERT JUMPDEST PUSH2 0x2368 DUP3 PUSH1 0x20 DUP4 ADD PUSH1 0x20 DUP8 ADD PUSH2 0x2513 JUMP JUMPDEST PUSH1 0x0 DUP1 PUSH1 0x0 DUP1 PUSH1 0x0 PUSH1 0xE0 DUP7 DUP9 SUB SLT ISZERO PUSH2 0x36ED JUMPI PUSH1 0x0 DUP1 REVERT JUMPDEST DUP7 PUSH1 0x1F DUP8 ADD SLT PUSH2 0x36FC JUMPI PUSH1 0x0 DUP1 REVERT JUMPDEST PUSH2 0x3704 PUSH2 0x2657 JUMP JUMPDEST DUP1 PUSH1 0x60 DUP9 ADD DUP10 DUP2 GT ISZERO PUSH2 0x3716 JUMPI PUSH1 0x0 DUP1 REVERT JUMPDEST DUP9 JUMPDEST DUP2 DUP2 LT ISZERO PUSH2 0x3730 JUMPI DUP1 MLOAD DUP5 MSTORE PUSH1 0x20 SWAP4 DUP5 ADD SWAP4 ADD PUSH2 0x3718 JUMP JUMPDEST POP MLOAD SWAP1 SWAP7 POP SWAP1 POP PUSH1 0x1 PUSH1 0x1 PUSH1 0x40 SHL SUB DUP1 DUP3 GT ISZERO PUSH2 0x374C JUMPI PUSH1 0x0 DUP1 REVERT JUMPDEST PUSH2 0x3758 DUP10 DUP4 DUP11 ADD PUSH2 0x3690 JUMP JUMPDEST SWAP6 POP PUSH1 0x80 DUP9 ADD MLOAD SWAP2 POP DUP1 DUP3 GT ISZERO PUSH2 0x376E JUMPI PUSH1 0x0 DUP1 REVERT JUMPDEST PUSH2 0x377A DUP10 DUP4 DUP11 ADD PUSH2 0x3427 JUMP JUMPDEST SWAP5 POP PUSH1 0xA0 DUP9 ADD MLOAD SWAP2 POP DUP1 DUP3 GT ISZERO PUSH2 0x3790 JUMPI PUSH1 0x0 DUP1 REVERT JUMPDEST POP PUSH2 0x379D DUP9 DUP3 DUP10 ADD PUSH2 0x3427 JUMP JUMPDEST SWAP3 POP POP PUSH1 0xC0 DUP7 ADD MLOAD SWAP1 POP SWAP3 SWAP6 POP SWAP3 SWAP6 SWAP1 SWAP4 POP JUMP JUMPDEST PUSH1 0x0 DUP2 MLOAD DUP1 DUP5 MSTORE PUSH1 0x20 DUP1 DUP6 ADD SWAP5 POP DUP1 DUP5 ADD PUSH1 0x0 JUMPDEST DUP4 DUP2 LT ISZERO PUSH2 0x320C JUMPI DUP2 MLOAD PUSH1 0x1 PUSH1 0x1 PUSH1 0xA0 SHL SUB AND DUP8 MSTORE SWAP6 DUP3 ADD SWAP6 SWAP1 DUP3 ADD SWAP1 PUSH1 0x1 ADD PUSH2 0x37C5 JUMP JUMPDEST PUSH1 0x60 DUP2 MSTORE PUSH1 0x0 PUSH2 0x37FD PUSH1 0x60 DUP4 ADD DUP7 PUSH2 0x37B1 JUMP JUMPDEST DUP3 DUP2 SUB PUSH1 0x20 DUP5 DUP2 ADD SWAP2 SWAP1 SWAP2 MSTORE DUP6 MLOAD DUP1 DUP4 MSTORE DUP7 DUP3 ADD SWAP3 DUP3 ADD SWAP1 PUSH1 0x0 JUMPDEST DUP2 DUP2 LT ISZERO PUSH2 0x3834 JUMPI DUP5 MLOAD DUP4 MSTORE SWAP4 DUP4 ADD SWAP4 SWAP2 DUP4 ADD SWAP2 PUSH1 0x1 ADD PUSH2 0x3818 JUMP JUMPDEST POP POP DUP1 SWAP4 POP POP POP POP DUP3 PUSH1 0x40 DUP4 ADD MSTORE SWAP5 SWAP4 POP POP POP POP JUMP JUMPDEST PUSH1 0x0 PUSH1 0x20 DUP1 DUP4 DUP6 SUB SLT ISZERO PUSH2 0x385D JUMPI PUSH1 0x0 DUP1 REVERT JUMPDEST DUP3 MLOAD PUSH1 0x1 PUSH1 0x1 PUSH1 0x40 SHL SUB DUP2 GT ISZERO PUSH2 0x3873 JUMPI PUSH1 0x0 DUP1 REVERT JUMPDEST DUP4 ADD PUSH1 0x1F DUP2 ADD DUP6 SGT PUSH2 0x3884 JUMPI PUSH1 0x0 DUP1 REVERT JUMPDEST DUP1 MLOAD PUSH2 0x3892 PUSH2 0x26EF DUP3 PUSH2 0x2939 JUMP JUMPDEST DUP2 DUP2 MSTORE PUSH2 0x1A0 SWAP2 DUP3 MUL DUP4 ADD DUP5 ADD SWAP2 DUP5 DUP3 ADD SWAP2 SWAP1 DUP9 DUP5 GT ISZERO PUSH2 0x38B2 JUMPI PUSH1 0x0 DUP1 REVERT JUMPDEST SWAP4 DUP6 ADD SWAP4 JUMPDEST DUP4 DUP6 LT ISZERO PUSH2 0x318D JUMPI PUSH2 0x38C9 DUP10 DUP7 PUSH2 0x332D JUMP JUMPDEST DUP4 MSTORE SWAP4 DUP5 ADD SWAP4 SWAP2 DUP6 ADD SWAP2 PUSH2 0x38B7 JUMP JUMPDEST PUSH1 0x1 PUSH1 0x1 PUSH1 0xA0 SHL SUB DUP6 AND DUP2 MSTORE DUP4 ISZERO ISZERO PUSH1 0x20 DUP1 DUP4 ADD SWAP2 SWAP1 SWAP2 MSTORE DUP4 ISZERO ISZERO PUSH1 0x40 DUP4 ADD MSTORE PUSH1 0x80 PUSH1 0x60 DUP4 ADD DUP2 SWAP1 MSTORE DUP4 MLOAD SWAP1 DUP4 ADD DUP2 SWAP1 MSTORE PUSH1 0x0 SWAP2 DUP5 DUP2 ADD SWAP2 PUSH1 0xA0 DUP6 ADD SWAP1 DUP5 JUMPDEST DUP2 DUP2 LT ISZERO PUSH2 0x3933 JUMPI DUP5 MLOAD DUP4 MSTORE SWAP4 DUP4 ADD SWAP4 SWAP2 DUP4 ADD SWAP2 PUSH1 0x1 ADD PUSH2 0x3917 JUMP JUMPDEST POP SWAP1 SWAP10 SWAP9 POP POP POP POP POP POP POP POP POP JUMP JUMPDEST PUSH1 0x0 PUSH1 0x20 DUP1 DUP4 DUP6 SUB SLT ISZERO PUSH2 0x3955 JUMPI PUSH1 0x0 DUP1 REVERT JUMPDEST DUP3 MLOAD PUSH1 0x1 PUSH1 0x1 PUSH1 0x40 SHL SUB DUP2 GT ISZERO PUSH2 0x396B JUMPI PUSH1 0x0 DUP1 REVERT JUMPDEST DUP4 ADD PUSH1 0x1F DUP2 ADD DUP6 SGT PUSH2 0x397C JUMPI PUSH1 0x0 DUP1 REVERT JUMPDEST DUP1 MLOAD PUSH2 0x398A PUSH2 0x26EF DUP3 PUSH2 0x2939 JUMP JUMPDEST DUP2 DUP2 MSTORE PUSH1 0x5 SWAP2 SWAP1 SWAP2 SHL DUP3 ADD DUP4 ADD SWAP1 DUP4 DUP2 ADD SWAP1 DUP8 DUP4 GT ISZERO PUSH2 0x39A9 JUMPI PUSH1 0x0 DUP1 REVERT JUMPDEST SWAP3 DUP5 ADD SWAP3 JUMPDEST DUP3 DUP5 LT ISZERO PUSH2 0x2440 JUMPI DUP4 MLOAD PUSH2 0x39C1 DUP2 PUSH2 0x258F JUMP JUMPDEST DUP3 MSTORE SWAP3 DUP5 ADD SWAP3 SWAP1 DUP5 ADD SWAP1 PUSH2 0x39AE JUMP JUMPDEST PUSH1 0x1 PUSH1 0x1 PUSH1 0xA0 SHL SUB DUP5 AND DUP2 MSTORE PUSH1 0x60 PUSH1 0x20 DUP3 ADD DUP2 SWAP1 MSTORE PUSH1 0x0 SWAP1 PUSH2 0x39F4 SWAP1 DUP4 ADD DUP6 PUSH2 0x37B1 JUMP JUMPDEST DUP3 DUP2 SUB PUSH1 0x40 DUP5 ADD MSTORE PUSH2 0x1D65 DUP2 DUP6 PUSH2 0x37B1 JUMP JUMPDEST PUSH1 0x0 PUSH1 0x1 DUP1 PUSH1 0xA0 SHL SUB DUP1 DUP7 AND DUP4 MSTORE PUSH1 0x60 PUSH1 0x20 DUP5 ADD MSTORE PUSH2 0x3A28 PUSH1 0x60 DUP5 ADD DUP7 PUSH2 0x37B1 JUMP JUMPDEST SWAP2 POP DUP1 DUP5 AND PUSH1 0x40 DUP5 ADD MSTORE POP SWAP5 SWAP4 POP POP POP POP JUMP JUMPDEST PUSH32 0x416363657373436F6E74726F6C3A206163636F756E7420000000000000000000 DUP2 MSTORE PUSH1 0x0 DUP4 MLOAD PUSH2 0x3A73 DUP2 PUSH1 0x17 DUP6 ADD PUSH1 0x20 DUP9 ADD PUSH2 0x2513 JUMP JUMPDEST PUSH17 0x1034B99036B4B9B9B4B733903937B6329 PUSH1 0x7D SHL PUSH1 0x17 SWAP2 DUP5 ADD SWAP2 DUP3 ADD MSTORE DUP4 MLOAD PUSH2 0x3AA4 DUP2 PUSH1 0x28 DUP5 ADD PUSH1 0x20 DUP9 ADD PUSH2 0x2513 JUMP JUMPDEST ADD PUSH1 0x28 ADD SWAP5 SWAP4 POP POP POP POP JUMP JUMPDEST PUSH1 0x0 DUP2 PUSH1 0x0 NOT DIV DUP4 GT DUP3 ISZERO ISZERO AND ISZERO PUSH2 0x3ACA JUMPI PUSH2 0x3ACA PUSH2 0x3661 JUMP JUMPDEST POP MUL SWAP1 JUMP JUMPDEST PUSH1 0x0 PUSH1 0x20 DUP3 DUP5 SUB SLT ISZERO PUSH2 0x3AE1 JUMPI PUSH1 0x0 DUP1 REVERT JUMPDEST POP MLOAD SWAP2 SWAP1 POP JUMP JUMPDEST PUSH1 0x0 PUSH1 0x20 DUP3 DUP5 SUB SLT ISZERO PUSH2 0x3AFA JUMPI PUSH1 0x0 DUP1 REVERT JUMPDEST DUP2 MLOAD PUSH2 0x2271 DUP2 PUSH2 0x2B7D JUMP JUMPDEST PUSH1 0x1 DUP2 DUP2 JUMPDEST DUP1 DUP6 GT ISZERO PUSH2 0x1869 JUMPI DUP2 PUSH1 0x0 NOT DIV DUP3 GT ISZERO PUSH2 0x3B26 JUMPI PUSH2 0x3B26 PUSH2 0x3661 JUMP JUMPDEST DUP1 DUP6 AND ISZERO PUSH2 0x3B33 JUMPI SWAP2 DUP2 MUL SWAP2 JUMPDEST SWAP4 DUP5 SHR SWAP4 SWAP1 DUP1 MUL SWAP1 PUSH2 0x3B0A JUMP JUMPDEST PUSH1 0x0 DUP3 PUSH2 0x3B4F JUMPI POP PUSH1 0x1 PUSH2 0x53C JUMP JUMPDEST DUP2 PUSH2 0x3B5C JUMPI POP PUSH1 0x0 PUSH2 0x53C JUMP JUMPDEST DUP2 PUSH1 0x1 DUP2 EQ PUSH2 0x3B72 JUMPI PUSH1 0x2 DUP2 EQ PUSH2 0x3B7C JUMPI PUSH2 0x3B98 JUMP JUMPDEST PUSH1 0x1 SWAP2 POP POP PUSH2 0x53C JUMP JUMPDEST PUSH1 0xFF DUP5 GT ISZERO PUSH2 0x3B8D JUMPI PUSH2 0x3B8D PUSH2 0x3661 JUMP JUMPDEST POP POP PUSH1 0x1 DUP3 SHL PUSH2 0x53C JUMP JUMPDEST POP PUSH1 0x20 DUP4 LT PUSH2 0x133 DUP4 LT AND PUSH1 0x4E DUP5 LT PUSH1 0xB DUP5 LT AND OR ISZERO PUSH2 0x3BBB JUMPI POP DUP2 DUP2 EXP PUSH2 0x53C JUMP JUMPDEST PUSH2 0x3BC5 DUP4 DUP4 PUSH2 0x3B05 JUMP JUMPDEST DUP1 PUSH1 0x0 NOT DIV DUP3 GT ISZERO PUSH2 0x3BD9 JUMPI PUSH2 0x3BD9 PUSH2 0x3661 JUMP JUMPDEST MUL SWAP4 SWAP3 POP POP POP JUMP JUMPDEST PUSH1 0x0 PUSH2 0x2271 PUSH1 0xFF DUP5 AND DUP4 PUSH2 0x3B40 JUMP JUMPDEST PUSH1 0x0 DUP3 PUSH2 0x3C0D JUMPI PUSH4 0x4E487B71 PUSH1 0xE0 SHL PUSH1 0x0 MSTORE PUSH1 0x12 PUSH1 0x4 MSTORE PUSH1 0x24 PUSH1 0x0 REVERT JUMPDEST POP DIV SWAP1 JUMP JUMPDEST PUSH1 0x0 PUSH1 0x20 DUP3 DUP5 SUB SLT ISZERO PUSH2 0x3C24 JUMPI PUSH1 0x0 DUP1 REVERT JUMPDEST PUSH2 0x2271 DUP3 PUSH2 0x3091 JUMP JUMPDEST DUP1 DUP3 ADD DUP1 DUP3 GT ISZERO PUSH2 0x53C JUMPI PUSH2 0x53C PUSH2 0x3661 JUMP JUMPDEST PUSH1 0x0 DUP2 PUSH2 0x3C4F JUMPI PUSH2 0x3C4F PUSH2 0x3661 JUMP JUMPDEST POP PUSH1 0x0 NOT ADD SWAP1 JUMP JUMPDEST PUSH1 0x0 DUP3 MLOAD PUSH2 0x3C69 DUP2 DUP5 PUSH1 0x20 DUP8 ADD PUSH2 0x2513 JUMP JUMPDEST SWAP2 SWAP1 SWAP2 ADD SWAP3 SWAP2 POP POP JUMP INVALID LOG2 PUSH5 0x6970667358 0x22 SLT KECCAK256 0xD0 0xD8 0xAF 0xFB JUMP PUSH10 0x3AC9F74D1E3E9C84E670 PUSH16 0xB92A19D6B8BB1497815BE3F8A3E21964 PUSH20 0x6F6C634300081000330000000000000000000000 "},"methodIdentifiers":{"DATASTREAMS_FEEDLABEL()":"08c9e24e","DATASTREAMS_QUERYLABEL()":"1b83ca1e","DEFAULT_ADMIN_ROLE()":"a217fddf","autoLiq()":"b71624b5","autoOrder()":"c0ccbc9a","checkCallback(bytes[],bytes)":"4b56a42e","checkCallbackLiq(uint256,address)":"88ebd732","checkLog((uint256,uint256,bytes32,uint256,bytes32,address,bytes32[],bytes),bytes)":"40691db4","feedId(address)":"cd7978d7","getRoleAdmin(bytes32)":"248a9ca3","grantRole(bytes32,address)":"2f2ff15d","hasRole(bytes32,address)":"91d14854","initialize(address,address[],uint256[],address[],string[])":"78464381","logType(address)":"9d2e151f","onlySetPrice()":"7250b784","performUpkeep(bytes)":"4585e33b","renounceRole(bytes32,address)":"36568abe","revokeRole(bytes32,address)":"d547741f","sendETH()":"1d16d9a0","setFeedId(address,string)":"3ebb33e3","setLogType(address,uint8)":"ca42aeb7","supportsInterface(bytes4)":"01ffc9a7","verifier()":"2b7ac3f3","withdraw(address,address,uint256)":"d9caed12","withdrawETH(address,uint256)":"4782f779"}},"storageLayout":{"storage":[{"astId":6,"contract":"contracts/datastream/OrderLiqStreamsUpkeep.sol:OrderLiqStreamsUpkeep","label":"_initialized","offset":0,"slot":"0","type":"t_uint8"},{"astId":9,"contract":"contracts/datastream/OrderLiqStreamsUpkeep.sol:OrderLiqStreamsUpkeep","label":"_initializing","offset":1,"slot":"0","type":"t_bool"},{"astId":523,"contract":"contracts/datastream/OrderLiqStreamsUpkeep.sol:OrderLiqStreamsUpkeep","label":"_roles","offset":0,"slot":"1","type":"t_mapping(t_bytes32,t_struct(RoleData)518_storage)"},{"astId":4176,"contract":"contracts/datastream/OrderLiqStreamsUpkeep.sol:OrderLiqStreamsUpkeep","label":"verifier","offset":0,"slot":"2","type":"t_contract(IVerifierProxy)3298"},{"astId":4180,"contract":"contracts/datastream/OrderLiqStreamsUpkeep.sol:OrderLiqStreamsUpkeep","label":"feedId","offset":0,"slot":"3","type":"t_mapping(t_address,t_string_storage)"},{"astId":4184,"contract":"contracts/datastream/OrderLiqStreamsUpkeep.sol:OrderLiqStreamsUpkeep","label":"logType","offset":0,"slot":"4","type":"t_mapping(t_address,t_uint8)"}],"types":{"t_address":{"encoding":"inplace","label":"address","numberOfBytes":"20"},"t_bool":{"encoding":"inplace","label":"bool","numberOfBytes":"1"},"t_bytes32":{"encoding":"inplace","label":"bytes32","numberOfBytes":"32"},"t_contract(IVerifierProxy)3298":{"encoding":"inplace","label":"contract IVerifierProxy","numberOfBytes":"20"},"t_mapping(t_address,t_bool)":{"encoding":"mapping","key":"t_address","label":"mapping(address => bool)","numberOfBytes":"32","value":"t_bool"},"t_mapping(t_address,t_string_storage)":{"encoding":"mapping","key":"t_address","label":"mapping(address => string)","numberOfBytes":"32","value":"t_string_storage"},"t_mapping(t_address,t_uint8)":{"encoding":"mapping","key":"t_address","label":"mapping(address => uint8)","numberOfBytes":"32","value":"t_uint8"},"t_mapping(t_bytes32,t_struct(RoleData)518_storage)":{"encoding":"mapping","key":"t_bytes32","label":"mapping(bytes32 => struct AccessControl.RoleData)","numberOfBytes":"32","value":"t_struct(RoleData)518_storage"},"t_string_storage":{"encoding":"bytes","label":"string","numberOfBytes":"32"},"t_struct(RoleData)518_storage":{"encoding":"inplace","label":"struct AccessControl.RoleData","members":[{"astId":515,"contract":"contracts/datastream/OrderLiqStreamsUpkeep.sol:OrderLiqStreamsUpkeep","label":"members","offset":0,"slot":"0","type":"t_mapping(t_address,t_bool)"},{"astId":517,"contract":"contracts/datastream/OrderLiqStreamsUpkeep.sol:OrderLiqStreamsUpkeep","label":"adminRole","offset":0,"slot":"1","type":"t_bytes32"}],"numberOfBytes":"64"},"t_uint8":{"encoding":"inplace","label":"uint8","numberOfBytes":"1"}}}}}}