{
  "_format": "hh-sol-artifact-1",
  "contractName": "MarketValidReader",
  "sourceName": "contracts/mocker/MarketValidReader.sol",
  "abi": [
    {
      "inputs": [
        {
          "internalType": "address",
          "name": "_addr",
          "type": "address"
        }
      ],
      "stateMutability": "nonpayable",
      "type": "constructor"
    },
    {
      "inputs": [],
      "name": "getAllowClose",
      "outputs": [
        {
          "internalType": "bool",
          "name": "",
          "type": "bool"
        }
      ],
      "stateMutability": "view",
      "type": "function"
    },
    {
      "inputs": [],
      "name": "getAllowOpen",
      "outputs": [
        {
          "internalType": "bool",
          "name": "",
          "type": "bool"
        }
      ],
      "stateMutability": "view",
      "type": "function"
    },
    {
      "inputs": [],
      "name": "getConf",
      "outputs": [
        {
          "internalType": "uint256",
          "name": "",
          "type": "uint256"
        }
      ],
      "stateMutability": "view",
      "type": "function"
    },
    {
      "inputs": [],
      "name": "getMaxLev",
      "outputs": [
        {
          "internalType": "uint256",
          "name": "",
          "type": "uint256"
        }
      ],
      "stateMutability": "view",
      "type": "function"
    },
    {
      "inputs": [],
      "name": "getMaxTradeAmount",
      "outputs": [
        {
          "internalType": "uint256",
          "name": "",
          "type": "uint256"
        }
      ],
      "stateMutability": "view",
      "type": "function"
    },
    {
      "inputs": [],
      "name": "getMinCollateral",
      "outputs": [
        {
          "internalType": "uint256",
          "name": "",
          "type": "uint256"
        }
      ],
      "stateMutability": "view",
      "type": "function"
    },
    {
      "inputs": [],
      "name": "getMinLev",
      "outputs": [
        {
          "internalType": "uint256",
          "name": "",
          "type": "uint256"
        }
      ],
      "stateMutability": "view",
      "type": "function"
    },
    {
      "inputs": [],
      "name": "getMinPay",
      "outputs": [
        {
          "internalType": "uint256",
          "name": "",
          "type": "uint256"
        }
      ],
      "stateMutability": "view",
      "type": "function"
    },
    {
      "inputs": [],
      "name": "marketValid",
      "outputs": [
        {
          "internalType": "address",
          "name": "",
          "type": "address"
        }
      ],
      "stateMutability": "view",
      "type": "function"
    },
    {
      "inputs": [],
      "name": "maxSlippage",
      "outputs": [
        {
          "internalType": "uint256",
          "name": "",
          "type": "uint256"
        }
      ],
      "stateMutability": "view",
      "type": "function"
    },
    {
      "inputs": [],
      "name": "minSlippage",
      "outputs": [
        {
          "internalType": "uint256",
          "name": "",
          "type": "uint256"
        }
      ],
      "stateMutability": "view",
      "type": "function"
    }
  ],
  "bytecode": "0x608060405234801561001057600080fd5b506040516108d23803806108d283398101604081905261002f91610054565b600080546001600160a01b0319166001600160a01b0392909216919091179055610084565b60006020828403121561006657600080fd5b81516001600160a01b038116811461007d57600080fd5b9392505050565b61083f806100936000396000f3fe608060405234801561001057600080fd5b50600436106100a95760003560e01c80638c04166f116100715780638c04166f146100f9578063b1b1fdc214610101578063b894300d14610109578063c0677c4714610134578063e3a7b3b81461013c578063e830b6901461014457600080fd5b806309aea85f146100ae5780632a5f1e38146100c957806342274d71146100d1578063424a30fb146100d9578063478e3597146100f1575b600080fd5b6100b661014c565b6040519081526020015b60405180910390f35b6100b66101c6565b6100b6610241565b6100e16102c2565b60405190151581526020016100c0565b6100b661033e565b6100b66103bc565b6100e161043b565b60005461011c906001600160a01b031681565b6040516001600160a01b0390911681526020016100c0565b6100b66104b7565b6100b6610533565b6100b66105a8565b6000805460408051631779272960e01b815290516101c1926001600160a01b03169163177927299160048083019260209291908290030181865afa158015610198573d6000803e3d6000fd5b505050506040513d601f19601f820116820180604052508101906101bc9190610695565b61061d565b905090565b6000805460408051631779272960e01b815290516101c1926001600160a01b03169163177927299160048083019260209291908290030181865afa158015610212573d6000803e3d6000fd5b505050506040513d601f19601f820116820180604052508101906102369190610695565b5160241c610fff1690565b6000805460408051631779272960e01b8152905183926001600160a01b03169163177927299160048083019260209291908290030181865afa15801561028b573d6000803e3d6000fd5b505050506040513d601f19601f820116820180604052508101906102af9190610695565b805190915060181c610fff165b91505090565b6000805460408051631779272960e01b815290516101c1926001600160a01b03169163177927299160048083019260209291908290030181865afa15801561030e573d6000803e3d6000fd5b505050506040513d601f19601f820116820180604052508101906103329190610695565b51600f606c1b16151590565b60008060009054906101000a90046001600160a01b03166001600160a01b031663177927296040518163ffffffff1660e01b8152600401602060405180830381865afa158015610392573d6000803e3d6000fd5b505050506040513d601f19601f820116820180604052508101906103b69190610695565b51919050565b6000805460408051631779272960e01b8152905183926001600160a01b03169163177927299160048083019260209291908290030181865afa158015610406573d6000803e3d6000fd5b505050506040513d601f19601f8201168201806040525081019061042a9190610695565b8051909150600c1c610fff166102bc565b6000805460408051631779272960e01b815290516101c1926001600160a01b03169163177927299160048083019260209291908290030181865afa158015610487573d6000803e3d6000fd5b505050506040513d601f19601f820116820180604052508101906104ab9190610695565b51600f60681b16151590565b6000805460408051631779272960e01b8152905183926001600160a01b03169163177927299160048083019260209291908290030181865afa158015610501573d6000803e3d6000fd5b505050506040513d601f19601f820116820180604052508101906105259190610695565b90506102bc8151610fff1690565b6000805460408051631779272960e01b815290516101c1926001600160a01b03169163177927299160048083019260209291908290030181865afa15801561057f573d6000803e3d6000fd5b505050506040513d601f19601f820116820180604052508101906105a39190610695565b610643565b6000805460408051631779272960e01b815290516101c1926001600160a01b03169163177927299160048083019260209291908290030181865afa1580156105f4573d6000803e3d6000fd5b505050506040513d601f19601f820116820180604052508101906106189190610695565b610661565b60006106288261067f565b825161063d919060481c63ffffffff166106fb565b92915050565b600061064e8261067f565b825161063d919060301c610fff166106fb565b600061066c8261067f565b825161063d9190603c1c610fff166106fb565b805160009061063d9060701c60ff16600a6107f6565b6000602082840312156106a757600080fd5b6040516020810181811067ffffffffffffffff821117156106d857634e487b7160e01b600052604160045260246000fd5b6040529151825250919050565b634e487b7160e01b600052601160045260246000fd5b808202811582820484141761063d5761063d6106e5565b600181815b8085111561074d578160001904821115610733576107336106e5565b8085161561074057918102915b93841c9390800290610717565b509250929050565b6000826107645750600161063d565b816107715750600061063d565b81600181146107875760028114610791576107ad565b600191505061063d565b60ff8411156107a2576107a26106e5565b50506001821b61063d565b5060208310610133831016604e8410600b84101617156107d0575081810a61063d565b6107da8383610712565b80600019048211156107ee576107ee6106e5565b029392505050565b60006108028383610755565b939250505056fea264697066735822122012fb5aa3aef1fc3b06d209db237886186b50f8733fe87320a4a135e6b190abb164736f6c63430008110033",
  "linkReferences": {},
  "deployedLinkReferences": {}
}