{
  "_format": "hh-sol-artifact-1",
  "contractName": "ChainPriceFeed",
  "sourceName": "contracts/oracle/ChainPriceFeed.sol",
  "abi": [
    {
      "inputs": [],
      "stateMutability": "nonpayable",
      "type": "constructor"
    },
    {
      "anonymous": false,
      "inputs": [
        {
          "indexed": false,
          "internalType": "uint8",
          "name": "version",
          "type": "uint8"
        }
      ],
      "name": "Initialized",
      "type": "event"
    },
    {
      "anonymous": false,
      "inputs": [
        {
          "indexed": true,
          "internalType": "address",
          "name": "previousOwner",
          "type": "address"
        },
        {
          "indexed": true,
          "internalType": "address",
          "name": "newOwner",
          "type": "address"
        }
      ],
      "name": "OwnershipTransferred",
      "type": "event"
    },
    {
      "anonymous": false,
      "inputs": [
        {
          "indexed": true,
          "internalType": "bytes32",
          "name": "role",
          "type": "bytes32"
        },
        {
          "indexed": true,
          "internalType": "bytes32",
          "name": "previousAdminRole",
          "type": "bytes32"
        },
        {
          "indexed": true,
          "internalType": "bytes32",
          "name": "newAdminRole",
          "type": "bytes32"
        }
      ],
      "name": "RoleAdminChanged",
      "type": "event"
    },
    {
      "anonymous": false,
      "inputs": [
        {
          "indexed": true,
          "internalType": "bytes32",
          "name": "role",
          "type": "bytes32"
        },
        {
          "indexed": true,
          "internalType": "address",
          "name": "account",
          "type": "address"
        },
        {
          "indexed": true,
          "internalType": "address",
          "name": "sender",
          "type": "address"
        }
      ],
      "name": "RoleGranted",
      "type": "event"
    },
    {
      "anonymous": false,
      "inputs": [
        {
          "indexed": true,
          "internalType": "bytes32",
          "name": "role",
          "type": "bytes32"
        },
        {
          "indexed": true,
          "internalType": "address",
          "name": "account",
          "type": "address"
        },
        {
          "indexed": true,
          "internalType": "address",
          "name": "sender",
          "type": "address"
        }
      ],
      "name": "RoleRevoked",
      "type": "event"
    },
    {
      "inputs": [],
      "name": "DEFAULT_ADMIN_ROLE",
      "outputs": [
        {
          "internalType": "bytes32",
          "name": "",
          "type": "bytes32"
        }
      ],
      "stateMutability": "view",
      "type": "function"
    },
    {
      "inputs": [],
      "name": "PRICE_PRECISION",
      "outputs": [
        {
          "internalType": "uint256",
          "name": "",
          "type": "uint256"
        }
      ],
      "stateMutability": "view",
      "type": "function"
    },
    {
      "inputs": [],
      "name": "USDT",
      "outputs": [
        {
          "internalType": "address",
          "name": "",
          "type": "address"
        }
      ],
      "stateMutability": "view",
      "type": "function"
    },
    {
      "inputs": [
        {
          "internalType": "address",
          "name": "_token",
          "type": "address"
        }
      ],
      "name": "getLatestPrice",
      "outputs": [
        {
          "internalType": "uint256",
          "name": "",
          "type": "uint256"
        }
      ],
      "stateMutability": "view",
      "type": "function"
    },
    {
      "inputs": [
        {
          "internalType": "address",
          "name": "_token",
          "type": "address"
        },
        {
          "internalType": "bool",
          "name": "_maximise",
          "type": "bool"
        }
      ],
      "name": "getPrice",
      "outputs": [
        {
          "internalType": "uint256",
          "name": "",
          "type": "uint256"
        }
      ],
      "stateMutability": "view",
      "type": "function"
    },
    {
      "inputs": [
        {
          "internalType": "bytes32",
          "name": "role",
          "type": "bytes32"
        }
      ],
      "name": "getRoleAdmin",
      "outputs": [
        {
          "internalType": "bytes32",
          "name": "",
          "type": "bytes32"
        }
      ],
      "stateMutability": "view",
      "type": "function"
    },
    {
      "inputs": [
        {
          "internalType": "address",
          "name": "_account",
          "type": "address"
        }
      ],
      "name": "grantControllerRoleByMarketManager",
      "outputs": [],
      "stateMutability": "nonpayable",
      "type": "function"
    },
    {
      "inputs": [
        {
          "internalType": "bytes32",
          "name": "role",
          "type": "bytes32"
        },
        {
          "internalType": "address",
          "name": "account",
          "type": "address"
        }
      ],
      "name": "grantRole",
      "outputs": [],
      "stateMutability": "nonpayable",
      "type": "function"
    },
    {
      "inputs": [
        {
          "internalType": "bytes32",
          "name": "role",
          "type": "bytes32"
        },
        {
          "internalType": "address",
          "name": "account",
          "type": "address"
        }
      ],
      "name": "hasRole",
      "outputs": [
        {
          "internalType": "bool",
          "name": "",
          "type": "bool"
        }
      ],
      "stateMutability": "view",
      "type": "function"
    },
    {
      "inputs": [],
      "name": "owner",
      "outputs": [
        {
          "internalType": "address",
          "name": "",
          "type": "address"
        }
      ],
      "stateMutability": "view",
      "type": "function"
    },
    {
      "inputs": [
        {
          "internalType": "address",
          "name": "",
          "type": "address"
        }
      ],
      "name": "priceDecimals",
      "outputs": [
        {
          "internalType": "uint256",
          "name": "",
          "type": "uint256"
        }
      ],
      "stateMutability": "view",
      "type": "function"
    },
    {
      "inputs": [
        {
          "internalType": "address",
          "name": "",
          "type": "address"
        }
      ],
      "name": "priceFeeds",
      "outputs": [
        {
          "internalType": "address",
          "name": "",
          "type": "address"
        }
      ],
      "stateMutability": "view",
      "type": "function"
    },
    {
      "inputs": [],
      "name": "renounceOwnership",
      "outputs": [],
      "stateMutability": "nonpayable",
      "type": "function"
    },
    {
      "inputs": [
        {
          "internalType": "bytes32",
          "name": "role",
          "type": "bytes32"
        },
        {
          "internalType": "address",
          "name": "account",
          "type": "address"
        }
      ],
      "name": "renounceRole",
      "outputs": [],
      "stateMutability": "nonpayable",
      "type": "function"
    },
    {
      "inputs": [
        {
          "internalType": "bytes32",
          "name": "role",
          "type": "bytes32"
        },
        {
          "internalType": "address",
          "name": "account",
          "type": "address"
        }
      ],
      "name": "revokeRole",
      "outputs": [],
      "stateMutability": "nonpayable",
      "type": "function"
    },
    {
      "inputs": [],
      "name": "sampleSpace",
      "outputs": [
        {
          "internalType": "uint256",
          "name": "",
          "type": "uint256"
        }
      ],
      "stateMutability": "view",
      "type": "function"
    },
    {
      "inputs": [
        {
          "internalType": "address",
          "name": "_token",
          "type": "address"
        },
        {
          "internalType": "address",
          "name": "_feed",
          "type": "address"
        },
        {
          "internalType": "uint256",
          "name": "_decimal",
          "type": "uint256"
        }
      ],
      "name": "setPriceFeed",
      "outputs": [],
      "stateMutability": "nonpayable",
      "type": "function"
    },
    {
      "inputs": [
        {
          "internalType": "uint256",
          "name": "_times",
          "type": "uint256"
        }
      ],
      "name": "setSampleSpace",
      "outputs": [],
      "stateMutability": "nonpayable",
      "type": "function"
    },
    {
      "inputs": [
        {
          "internalType": "address",
          "name": "_token",
          "type": "address"
        },
        {
          "internalType": "address",
          "name": "_feed",
          "type": "address"
        },
        {
          "internalType": "uint256",
          "name": "_decimal",
          "type": "uint256"
        }
      ],
      "name": "setUSDT",
      "outputs": [],
      "stateMutability": "nonpayable",
      "type": "function"
    },
    {
      "inputs": [
        {
          "internalType": "bytes4",
          "name": "interfaceId",
          "type": "bytes4"
        }
      ],
      "name": "supportsInterface",
      "outputs": [
        {
          "internalType": "bool",
          "name": "",
          "type": "bool"
        }
      ],
      "stateMutability": "view",
      "type": "function"
    },
    {
      "inputs": [
        {
          "internalType": "address",
          "name": "to",
          "type": "address"
        }
      ],
      "name": "transferAdmin",
      "outputs": [],
      "stateMutability": "nonpayable",
      "type": "function"
    },
    {
      "inputs": [
        {
          "internalType": "address",
          "name": "newOwner",
          "type": "address"
        }
      ],
      "name": "transferOwnership",
      "outputs": [],
      "stateMutability": "nonpayable",
      "type": "function"
    }
  ],
  "bytecode": "0x6080604052600380553480156200001557600080fd5b503362000022816200003f565b62000038816200009160201b620008b51760201c565b506200016d565b600180546001600160a01b038381166001600160a01b0319831681179093556040519116919082907f8be0079c531659141344cd1fd0a4f28419497f9722a3daafe3b4186f6b6457e090600090a35050565b42600255620000a0336200003f565b620000ad600033620000bd565b620000ba600082620000bd565b50565b620000c98282620000cd565b5050565b6000828152602081815260408083206001600160a01b038516845290915290205460ff16620000c9576000828152602081815260408083206001600160a01b03851684529091529020805460ff19166001179055620001293390565b6001600160a01b0316816001600160a01b0316837f2f8788117e7eff1d82e926ec794901d17c78024a50270940304540a733656f0d60405160405180910390a45050565b6115af806200017d6000396000f3fe608060405234801561001057600080fd5b50600436106101425760003560e01c80637fe4a698116100b8578063a217fddf1161007c578063a217fddf146102bf578063c54e44eb146102c7578063cefe0f21146102da578063d547741f146102fa578063eceb9a9c1461030d578063f2fde38b1461032057600080fd5b80637fe4a698146102385780638da5cb5b1461024b57806391d148541461027057806395082d25146102835780639dcb511a1461029657600080fd5b80632f2ff15d1161010a5780632f2ff15d146101d15780632fe9bdec146101e457806336568abe146101f7578063715018a61461020a57806375829def1461021257806376d697601461022557600080fd5b806301ffc9a714610147578063110106e61461016f57806316345f1814610186578063248a9ca3146101995780632ae76ac2146101bc575b600080fd5b61015a6101553660046110c8565b610333565b60405190151581526020015b60405180910390f35b61017860035481565b604051908152602001610166565b61017861019436600461110e565b61036a565b6101786101a7366004611129565b60009081526020819052604090206001015490565b6101cf6101ca366004611129565b6103fc565b005b6101cf6101df366004611142565b61048b565b6101cf6101f236600461116e565b6104b5565b6101cf610205366004611142565b610597565b6101cf610615565b6101cf61022036600461110e565b610629565b6101786102333660046111aa565b610653565b6101cf61024636600461110e565b6106f1565b6001546001600160a01b03165b6040516001600160a01b039091168152602001610166565b61015a61027e366004611142565b61071b565b61017868327cb2734119d3b7a9601e1b81565b6102586102a436600461110e565b6004602052600090815260409020546001600160a01b031681565b610178600081565b600654610258906001600160a01b031681565b6101786102e836600461110e565b60056020526000908152604090205481565b6101cf610308366004611142565b610744565b6101cf61031b36600461116e565b610769565b6101cf61032e36600461110e565b61083c565b60006001600160e01b03198216637965db0b60e01b148061036457506301ffc9a760e01b6001600160e01b03198316145b92915050565b600080610376836108d8565b600654909150600090610391906001600160a01b03166108d8565b90506103ab68327cb2734119d3b7a9601e1b6000196111fc565b8210156103db57806103c968327cb2734119d3b7a9601e1b8461121e565b6103d391906111fc565b949350505050565b806103f268327cb2734119d3b7a9601e1b846111fc565b6103d3919061121e565b6104257f241ecf16d79d0f8dbfb92cbc07fe17840425976cf0667f022fe9877caa831b086109cd565b600081116104865760405162461bcd60e51b8152602060048201526024808201527f5072696365466565643a20696e76616c6964205f707269636553616d706c65536044820152637061636560e01b60648201526084015b60405180910390fd5b600355565b6000828152602081905260409020600101546104a6816109cd565b6104b083836109d7565b505050565b7f241ecf16d79d0f8dbfb92cbc07fe17840425976cf0667f022fe9877caa831b0860006104e2813361071b565b9050801561053f5762093a80600254426104fc9190611235565b1061053a5760405162461bcd60e51b815260206004820152600e60248201526d1858c81d1a5b59481c185cdcd95960921b604482015260640161047d565b610549565b6105498233610a5b565b5050600680546001600160a01b03199081166001600160a01b039586169081179092556000918252600460209081526040808420805490931695909616949094179055600590925291902055565b6001600160a01b03811633146106075760405162461bcd60e51b815260206004820152602f60248201527f416363657373436f6e74726f6c3a2063616e206f6e6c792072656e6f756e636560448201526e103937b632b9903337b91039b2b63360891b606482015260840161047d565b6106118282610ab4565b5050565b61061d610b19565b6106276000610b73565b565b6000610634816109cd565b61063f600083610bc5565b61064882610b73565b610611600033610ab4565b6000806106608484610bcf565b60065490915060009061067c906001600160a01b031685610bcf565b905061069668327cb2734119d3b7a9601e1b6000196111fc565b8210156106c757806106b468327cb2734119d3b7a9601e1b8461121e565b6106be91906111fc565b92505050610364565b806106de68327cb2734119d3b7a9601e1b846111fc565b6106e8919061121e565b95945050505050565b7f8d1089725c0dc266707fa6207730fb801dcd03108bfed7a21099bd303651d2b7610142816109cd565b6000918252602082815260408084206001600160a01b0393909316845291905290205460ff1690565b60008281526020819052604090206001015461075f816109cd565b6104b08383610ab4565b7f241ecf16d79d0f8dbfb92cbc07fe17840425976cf0667f022fe9877caa831b086000610796813361071b565b905080156107f35762093a80600254426107b09190611235565b106107ee5760405162461bcd60e51b815260206004820152600e60248201526d1858c81d1a5b59481c185cdcd95960921b604482015260640161047d565b6107fd565b6107fd8233610a5b565b50506001600160a01b03928316600090815260046020908152604080832080546001600160a01b03191695909616949094179094556005909352912055565b610844610b19565b6001600160a01b0381166108a95760405162461bcd60e51b815260206004820152602660248201527f4f776e61626c653a206e6577206f776e657220697320746865207a65726f206160448201526564647265737360d01b606482015260840161047d565b6108b281610b73565b50565b426002556108c233610b73565b6108cd600033610bc5565b6108b2600082610bc5565b6001600160a01b03808216600090815260046020526040812054909116806109425760405162461bcd60e51b815260206004820152601d60248201527f5072696365466565643a20696e76616c69642070726963652066656564000000604482015260640161047d565b60008190506000816001600160a01b03166350d25bcd6040518163ffffffff1660e01b8152600401602060405180830381865afa158015610987573d6000803e3d6000fd5b505050506040513d601f19601f820116820180604052508101906109ab9190611248565b9050600081136103d35760405162461bcd60e51b815260040161047d90611261565b6108b28133610a5b565b6109e1828261071b565b610611576000828152602081815260408083206001600160a01b03851684529091529020805460ff19166001179055610a173390565b6001600160a01b0316816001600160a01b0316837f2f8788117e7eff1d82e926ec794901d17c78024a50270940304540a733656f0d60405160405180910390a45050565b610a65828261071b565b61061157610a7281610f13565b610a7d836020610f25565b604051602001610a8e9291906112bc565b60408051601f198184030181529082905262461bcd60e51b825261047d91600401611331565b610abe828261071b565b15610611576000828152602081815260408083206001600160a01b0385168085529252808320805460ff1916905551339285917ff6391f5c32d9c69d2a47ea670b442974b53935d1edc7fd64eb21e047a839171b9190a45050565b6001546001600160a01b031633146106275760405162461bcd60e51b815260206004820181905260248201527f4f776e61626c653a2063616c6c6572206973206e6f7420746865206f776e6572604482015260640161047d565b600180546001600160a01b038381166001600160a01b0319831681179093556040519116919082907f8be0079c531659141344cd1fd0a4f28419497f9722a3daafe3b4186f6b6457e090600090a35050565b61061182826109d7565b6001600160a01b0380831660009081526004602052604081205490911680610c395760405162461bcd60e51b815260206004820152601d60248201527f5072696365466565643a20696e76616c69642070726963652066656564000000604482015260640161047d565b6000819050600080826001600160a01b031663668a0f026040518163ffffffff1660e01b8152600401602060405180830381865afa158015610c7f573d6000803e3d6000fd5b505050506040513d601f19601f82011682018060405250810190610ca3919061137b565b905060005b600354816001600160501b03161015610e7257806001600160501b0316826001600160501b03161115610e72576000816001600160501b0316600003610d75576000856001600160a01b03166350d25bcd6040518163ffffffff1660e01b8152600401602060405180830381865afa158015610d28573d6000803e3d6000fd5b505050506040513d601f19601f82011682018060405250810190610d4c9190611248565b905060008113610d6e5760405162461bcd60e51b815260040161047d90611261565b9050610e21565b60006001600160a01b038616639a6fc8f5610d908587611396565b6040516001600160e01b031960e084901b1681526001600160501b03909116600482015260240160a060405180830381865afa158015610dd4573d6000803e3d6000fd5b505050506040513d601f19601f82011682018060405250810190610df891906113bd565b50505091505060008113610e1e5760405162461bcd60e51b815260040161047d90611261565b90505b83600003610e30579250610e60565b878015610e3c57508381115b15610e48579250610e60565b87158015610e5557508381105b15610e5e578093505b505b80610e6a8161140d565b915050610ca8565b5060008211610ec35760405162461bcd60e51b815260206004820181905260248201527f5072696365466565643a20636f756c64206e6f74206665746368207072696365604482015260640161047d565b6001600160a01b038716600090815260056020526040902054610ee781600a611517565b610efd68327cb2734119d3b7a9601e1b8561121e565b610f0791906111fc565b98975050505050505050565b60606103646001600160a01b03831660145b60606000610f3483600261121e565b610f3f906002611523565b67ffffffffffffffff811115610f5757610f57611536565b6040519080825280601f01601f191660200182016040528015610f81576020820181803683370190505b509050600360fc1b81600081518110610f9c57610f9c61154c565b60200101906001600160f81b031916908160001a905350600f60fb1b81600181518110610fcb57610fcb61154c565b60200101906001600160f81b031916908160001a9053506000610fef84600261121e565b610ffa906001611523565b90505b6001811115611072576f181899199a1a9b1b9c1cb0b131b232b360811b85600f166010811061102e5761102e61154c565b1a60f81b8282815181106110445761104461154c565b60200101906001600160f81b031916908160001a90535060049490941c9361106b81611562565b9050610ffd565b5083156110c15760405162461bcd60e51b815260206004820181905260248201527f537472696e67733a20686578206c656e67746820696e73756666696369656e74604482015260640161047d565b9392505050565b6000602082840312156110da57600080fd5b81356001600160e01b0319811681146110c157600080fd5b80356001600160a01b038116811461110957600080fd5b919050565b60006020828403121561112057600080fd5b6110c1826110f2565b60006020828403121561113b57600080fd5b5035919050565b6000806040838503121561115557600080fd5b82359150611165602084016110f2565b90509250929050565b60008060006060848603121561118357600080fd5b61118c846110f2565b925061119a602085016110f2565b9150604084013590509250925092565b600080604083850312156111bd57600080fd5b6111c6836110f2565b9150602083013580151581146111db57600080fd5b809150509250929050565b634e487b7160e01b600052601160045260246000fd5b60008261121957634e487b7160e01b600052601260045260246000fd5b500490565b8082028115828204841417610364576103646111e6565b81810381811115610364576103646111e6565b60006020828403121561125a57600080fd5b5051919050565b60208082526018908201527f5072696365466565643a20696e76616c69642070726963650000000000000000604082015260600190565b60005b838110156112b357818101518382015260200161129b565b50506000910152565b7f416363657373436f6e74726f6c3a206163636f756e74200000000000000000008152600083516112f4816017850160208801611298565b7001034b99036b4b9b9b4b733903937b6329607d1b6017918401918201528351611325816028840160208801611298565b01602801949350505050565b6020815260008251806020840152611350816040850160208701611298565b601f01601f19169190910160400192915050565b80516001600160501b038116811461110957600080fd5b60006020828403121561138d57600080fd5b6110c182611364565b6001600160501b038281168282160390808211156113b6576113b66111e6565b5092915050565b600080600080600060a086880312156113d557600080fd5b6113de86611364565b945060208601519350604086015192506060860151915061140160808701611364565b90509295509295909350565b60006001600160501b03808316818103611429576114296111e6565b6001019392505050565b600181815b8085111561146e578160001904821115611454576114546111e6565b8085161561146157918102915b93841c9390800290611438565b509250929050565b60008261148557506001610364565b8161149257506000610364565b81600181146114a857600281146114b2576114ce565b6001915050610364565b60ff8411156114c3576114c36111e6565b50506001821b610364565b5060208310610133831016604e8410600b84101617156114f1575081810a610364565b6114fb8383611433565b806000190482111561150f5761150f6111e6565b029392505050565b60006110c18383611476565b80820180821115610364576103646111e6565b634e487b7160e01b600052604160045260246000fd5b634e487b7160e01b600052603260045260246000fd5b600081611571576115716111e6565b50600019019056fea2646970667358221220bc3d157d4f41e4c1e87d6c1d5f2ae23d14e9c38ecb42f64170faafda2f53da8364736f6c63430008110033",
  "linkReferences": {},
  "deployedLinkReferences": {}
}