{
  "_format": "hh-sol-artifact-1",
  "contractName": "ChainPriceFeed",
  "sourceName": "contracts/oracle/ChainPriceFeed.sol",
  "abi": [
    {
      "inputs": [],
      "stateMutability": "nonpayable",
      "type": "constructor"
    },
    {
      "anonymous": false,
      "inputs": [
        {
          "indexed": false,
          "internalType": "uint8",
          "name": "version",
          "type": "uint8"
        }
      ],
      "name": "Initialized",
      "type": "event"
    },
    {
      "inputs": [],
      "name": "DEFAULT_ADMIN_ROLE",
      "outputs": [
        {
          "internalType": "bytes32",
          "name": "",
          "type": "bytes32"
        }
      ],
      "stateMutability": "view",
      "type": "function"
    },
    {
      "inputs": [],
      "name": "PRICE_PRECISION",
      "outputs": [
        {
          "internalType": "uint256",
          "name": "",
          "type": "uint256"
        }
      ],
      "stateMutability": "view",
      "type": "function"
    },
    {
      "inputs": [],
      "name": "USDT",
      "outputs": [
        {
          "internalType": "address",
          "name": "",
          "type": "address"
        }
      ],
      "stateMutability": "view",
      "type": "function"
    },
    {
      "inputs": [
        {
          "internalType": "address",
          "name": "newOwner",
          "type": "address"
        }
      ],
      "name": "_transferOwnership",
      "outputs": [],
      "stateMutability": "pure",
      "type": "function"
    },
    {
      "inputs": [
        {
          "internalType": "address",
          "name": "_token",
          "type": "address"
        }
      ],
      "name": "getLatestPrice",
      "outputs": [
        {
          "internalType": "uint256",
          "name": "",
          "type": "uint256"
        }
      ],
      "stateMutability": "view",
      "type": "function"
    },
    {
      "inputs": [
        {
          "internalType": "address",
          "name": "_token",
          "type": "address"
        },
        {
          "internalType": "bool",
          "name": "_maximise",
          "type": "bool"
        }
      ],
      "name": "getPrice",
      "outputs": [
        {
          "internalType": "uint256",
          "name": "",
          "type": "uint256"
        }
      ],
      "stateMutability": "view",
      "type": "function"
    },
    {
      "inputs": [
        {
          "internalType": "address",
          "name": "_account",
          "type": "address"
        }
      ],
      "name": "grantControllerRoleByMarketManager",
      "outputs": [],
      "stateMutability": "nonpayable",
      "type": "function"
    },
    {
      "inputs": [
        {
          "internalType": "bytes32",
          "name": "role",
          "type": "bytes32"
        },
        {
          "internalType": "address",
          "name": "account",
          "type": "address"
        }
      ],
      "name": "grantRole",
      "outputs": [],
      "stateMutability": "pure",
      "type": "function"
    },
    {
      "inputs": [
        {
          "internalType": "bytes32",
          "name": "role",
          "type": "bytes32"
        },
        {
          "internalType": "address",
          "name": "account",
          "type": "address"
        }
      ],
      "name": "hasRole",
      "outputs": [
        {
          "internalType": "bool",
          "name": "",
          "type": "bool"
        }
      ],
      "stateMutability": "pure",
      "type": "function"
    },
    {
      "inputs": [
        {
          "internalType": "address",
          "name": "",
          "type": "address"
        }
      ],
      "name": "priceDecimals",
      "outputs": [
        {
          "internalType": "uint256",
          "name": "",
          "type": "uint256"
        }
      ],
      "stateMutability": "view",
      "type": "function"
    },
    {
      "inputs": [
        {
          "internalType": "address",
          "name": "",
          "type": "address"
        }
      ],
      "name": "priceFeeds",
      "outputs": [
        {
          "internalType": "address",
          "name": "",
          "type": "address"
        }
      ],
      "stateMutability": "view",
      "type": "function"
    },
    {
      "inputs": [
        {
          "internalType": "bytes32",
          "name": "role",
          "type": "bytes32"
        },
        {
          "internalType": "address",
          "name": "account",
          "type": "address"
        }
      ],
      "name": "revokeRole",
      "outputs": [],
      "stateMutability": "pure",
      "type": "function"
    },
    {
      "inputs": [],
      "name": "sampleSpace",
      "outputs": [
        {
          "internalType": "uint256",
          "name": "",
          "type": "uint256"
        }
      ],
      "stateMutability": "view",
      "type": "function"
    },
    {
      "inputs": [
        {
          "internalType": "address",
          "name": "_token",
          "type": "address"
        },
        {
          "internalType": "address",
          "name": "_feed",
          "type": "address"
        },
        {
          "internalType": "uint256",
          "name": "_decimal",
          "type": "uint256"
        }
      ],
      "name": "setPriceFeed",
      "outputs": [],
      "stateMutability": "nonpayable",
      "type": "function"
    },
    {
      "inputs": [
        {
          "internalType": "uint256",
          "name": "_times",
          "type": "uint256"
        }
      ],
      "name": "setSampleSpace",
      "outputs": [],
      "stateMutability": "nonpayable",
      "type": "function"
    },
    {
      "inputs": [
        {
          "internalType": "address",
          "name": "_token",
          "type": "address"
        },
        {
          "internalType": "address",
          "name": "_feed",
          "type": "address"
        },
        {
          "internalType": "uint256",
          "name": "_decimal",
          "type": "uint256"
        }
      ],
      "name": "setUSDT",
      "outputs": [],
      "stateMutability": "nonpayable",
      "type": "function"
    },
    {
      "inputs": [
        {
          "internalType": "address",
          "name": "to",
          "type": "address"
        }
      ],
      "name": "transferAdmin",
      "outputs": [],
      "stateMutability": "nonpayable",
      "type": "function"
    },
    {
      "inputs": [
        {
          "internalType": "address",
          "name": "newOwner",
          "type": "address"
        }
      ],
      "name": "transferOwnership",
      "outputs": [],
      "stateMutability": "pure",
      "type": "function"
    }
  ],
  "bytecode": "0x6080604052600360025534801561001557600080fd5b503361002a8161003060201b6104b81760201c565b5061003e565b4260015561003b3381565b50565b610c878061004d6000396000f3fe608060405234801561001057600080fd5b50600436106101165760003560e01c806395082d25116100a2578063cefe0f2111610071578063cefe0f2114610299578063d29d44ee146102b9578063d547741f1461015f578063eceb9a9c146102ca578063f2fde38b146102b957600080fd5b806395082d251461022a5780639dcb511a1461023d578063a217fddf1461027e578063c54e44eb1461028657600080fd5b80632fe9bdec116100e95780632fe9bdec1461017157806375829def146101cb57806376d69760146101de5780637fe4a698146101f157806391d148541461020457600080fd5b8063110106e61461011b57806316345f18146101375780632ae76ac21461014a5780632f2ff15d1461015f575b600080fd5b61012460025481565b6040519081526020015b60405180910390f35b610124610145366004610914565b610315565b61015d610158366004610936565b6103a7565b005b61015d61016d36600461094f565b5050565b61015d61017f36600461097b565b600580546001600160a01b03199081166001600160a01b039586169081179092556000918252600360209081526040808420805490931695909616949094179055600490925291902055565b61015d6101d9366004610914565b61040d565b6101246101ec3660046109b7565b610418565b61015d6101ff366004610914565b6102c7565b61021a61021236600461094f565b600192915050565b604051901515815260200161012e565b61012468327cb2734119d3b7a9601e1b81565b61026661024b366004610914565b6003602052600090815260409020546001600160a01b031681565b6040516001600160a01b03909116815260200161012e565b610124600081565b600554610266906001600160a01b031681565b6101246102a7366004610914565b60046020526000908152604090205481565b61015d6102c7366004610914565b50565b61015d6102d836600461097b565b6001600160a01b03928316600090815260036020908152604080832080546001600160a01b03191695909616949094179094556004909352912055565b600080610321836104bf565b60055490915060009061033c906001600160a01b03166104bf565b905061035668327cb2734119d3b7a9601e1b600019610a09565b821015610386578061037468327cb2734119d3b7a9601e1b84610a2b565b61037e9190610a09565b949350505050565b8061039d68327cb2734119d3b7a9601e1b84610a09565b61037e9190610a2b565b600081116104085760405162461bcd60e51b8152602060048201526024808201527f5072696365466565643a20696e76616c6964205f707269636553616d706c65536044820152637061636560e01b60648201526084015b60405180910390fd5b600255565b600061016d60003382565b60008061042584846105b4565b600554909150600090610441906001600160a01b0316856105b4565b905061045b68327cb2734119d3b7a9601e1b600019610a09565b82101561048c578061047968327cb2734119d3b7a9601e1b84610a2b565b6104839190610a09565b925050506104b2565b806104a368327cb2734119d3b7a9601e1b84610a09565b6104ad9190610a2b565b925050505b92915050565b4260015550565b6001600160a01b03808216600090815260036020526040812054909116806105295760405162461bcd60e51b815260206004820152601d60248201527f5072696365466565643a20696e76616c6964207072696365206665656400000060448201526064016103ff565b60008190506000816001600160a01b03166350d25bcd6040518163ffffffff1660e01b8152600401602060405180830381865afa15801561056e573d6000803e3d6000fd5b505050506040513d601f19601f820116820180604052508101906105929190610a42565b90506000811361037e5760405162461bcd60e51b81526004016103ff90610a5b565b6001600160a01b038083166000908152600360205260408120549091168061061e5760405162461bcd60e51b815260206004820152601d60248201527f5072696365466565643a20696e76616c6964207072696365206665656400000060448201526064016103ff565b6000819050600080826001600160a01b031663668a0f026040518163ffffffff1660e01b8152600401602060405180830381865afa158015610664573d6000803e3d6000fd5b505050506040513d601f19601f820116820180604052508101906106889190610aa9565b905060005b600254816001600160501b0316101561085757806001600160501b0316826001600160501b03161115610857576000816001600160501b031660000361075a576000856001600160a01b03166350d25bcd6040518163ffffffff1660e01b8152600401602060405180830381865afa15801561070d573d6000803e3d6000fd5b505050506040513d601f19601f820116820180604052508101906107319190610a42565b9050600081136107535760405162461bcd60e51b81526004016103ff90610a5b565b9050610806565b60006001600160a01b038616639a6fc8f56107758587610ac4565b6040516001600160e01b031960e084901b1681526001600160501b03909116600482015260240160a060405180830381865afa1580156107b9573d6000803e3d6000fd5b505050506040513d601f19601f820116820180604052508101906107dd9190610aeb565b505050915050600081136108035760405162461bcd60e51b81526004016103ff90610a5b565b90505b83600003610815579250610845565b87801561082157508381115b1561082d579250610845565b8715801561083a57508381105b15610843578093505b505b8061084f81610b3b565b91505061068d565b50600082116108a85760405162461bcd60e51b815260206004820181905260248201527f5072696365466565643a20636f756c64206e6f7420666574636820707269636560448201526064016103ff565b6001600160a01b0387166000908152600460205260409020546108cc81600a610c45565b6108e268327cb2734119d3b7a9601e1b85610a2b565b6108ec9190610a09565b98975050505050505050565b80356001600160a01b038116811461090f57600080fd5b919050565b60006020828403121561092657600080fd5b61092f826108f8565b9392505050565b60006020828403121561094857600080fd5b5035919050565b6000806040838503121561096257600080fd5b82359150610972602084016108f8565b90509250929050565b60008060006060848603121561099057600080fd5b610999846108f8565b92506109a7602085016108f8565b9150604084013590509250925092565b600080604083850312156109ca57600080fd5b6109d3836108f8565b9150602083013580151581146109e857600080fd5b809150509250929050565b634e487b7160e01b600052601160045260246000fd5b600082610a2657634e487b7160e01b600052601260045260246000fd5b500490565b80820281158282048414176104b2576104b26109f3565b600060208284031215610a5457600080fd5b5051919050565b60208082526018908201527f5072696365466565643a20696e76616c69642070726963650000000000000000604082015260600190565b80516001600160501b038116811461090f57600080fd5b600060208284031215610abb57600080fd5b61092f82610a92565b6001600160501b03828116828216039080821115610ae457610ae46109f3565b5092915050565b600080600080600060a08688031215610b0357600080fd5b610b0c86610a92565b9450602086015193506040860151925060608601519150610b2f60808701610a92565b90509295509295909350565b60006001600160501b03808316818103610b5757610b576109f3565b6001019392505050565b600181815b80851115610b9c578160001904821115610b8257610b826109f3565b80851615610b8f57918102915b93841c9390800290610b66565b509250929050565b600082610bb3575060016104b2565b81610bc0575060006104b2565b8160018114610bd65760028114610be057610bfc565b60019150506104b2565b60ff841115610bf157610bf16109f3565b50506001821b6104b2565b5060208310610133831016604e8410600b8410161715610c1f575081810a6104b2565b610c298383610b61565b8060001904821115610c3d57610c3d6109f3565b029392505050565b600061092f8383610ba456fea2646970667358221220a78e6fe107c482479f5e212ae9200b0e143904f4cbe160b4b77587996b9a7cfe64736f6c63430008110033",
  "linkReferences": {},
  "deployedLinkReferences": {}
}