{
  "_format": "hh-sol-artifact-1",
  "contractName": "AutoLiquidate",
  "sourceName": "contracts/am/autoLiquidate.sol",
  "abi": [
    {
      "inputs": [
        {
          "internalType": "address",
          "name": "marketAddr",
          "type": "address"
        },
        {
          "internalType": "bool",
          "name": "islong",
          "type": "bool"
        }
      ],
      "stateMutability": "nonpayable",
      "type": "constructor"
    },
    {
      "anonymous": false,
      "inputs": [
        {
          "indexed": true,
          "internalType": "address",
          "name": "previousOwner",
          "type": "address"
        },
        {
          "indexed": true,
          "internalType": "address",
          "name": "newOwner",
          "type": "address"
        }
      ],
      "name": "OwnershipTransferred",
      "type": "event"
    },
    {
      "inputs": [
        {
          "internalType": "uint256",
          "name": "_lower",
          "type": "uint256"
        },
        {
          "internalType": "uint256",
          "name": "_upper",
          "type": "uint256"
        }
      ],
      "name": "checkIndex",
      "outputs": [
        {
          "internalType": "address[]",
          "name": "keys",
          "type": "address[]"
        }
      ],
      "stateMutability": "view",
      "type": "function"
    },
    {
      "inputs": [
        {
          "internalType": "bytes",
          "name": "checkData",
          "type": "bytes"
        }
      ],
      "name": "checkUpkeep",
      "outputs": [
        {
          "internalType": "bool",
          "name": "upkeepNeeded",
          "type": "bool"
        },
        {
          "internalType": "bytes",
          "name": "performData",
          "type": "bytes"
        }
      ],
      "stateMutability": "view",
      "type": "function"
    },
    {
      "inputs": [],
      "name": "execLimit",
      "outputs": [
        {
          "internalType": "uint256",
          "name": "",
          "type": "uint256"
        }
      ],
      "stateMutability": "view",
      "type": "function"
    },
    {
      "inputs": [],
      "name": "isLong",
      "outputs": [
        {
          "internalType": "bool",
          "name": "",
          "type": "bool"
        }
      ],
      "stateMutability": "view",
      "type": "function"
    },
    {
      "inputs": [],
      "name": "market",
      "outputs": [
        {
          "internalType": "address",
          "name": "",
          "type": "address"
        }
      ],
      "stateMutability": "view",
      "type": "function"
    },
    {
      "inputs": [],
      "name": "owner",
      "outputs": [
        {
          "internalType": "address",
          "name": "",
          "type": "address"
        }
      ],
      "stateMutability": "view",
      "type": "function"
    },
    {
      "inputs": [
        {
          "internalType": "uint256",
          "name": "_lower",
          "type": "uint256"
        },
        {
          "internalType": "uint256",
          "name": "_upper",
          "type": "uint256"
        }
      ],
      "name": "performIndex",
      "outputs": [],
      "stateMutability": "nonpayable",
      "type": "function"
    },
    {
      "inputs": [
        {
          "internalType": "bytes",
          "name": "performData",
          "type": "bytes"
        }
      ],
      "name": "performUpkeep",
      "outputs": [],
      "stateMutability": "nonpayable",
      "type": "function"
    },
    {
      "inputs": [],
      "name": "priceOracle",
      "outputs": [
        {
          "internalType": "address",
          "name": "",
          "type": "address"
        }
      ],
      "stateMutability": "view",
      "type": "function"
    },
    {
      "inputs": [],
      "name": "renounceOwnership",
      "outputs": [],
      "stateMutability": "nonpayable",
      "type": "function"
    },
    {
      "inputs": [
        {
          "internalType": "uint256",
          "name": "limit",
          "type": "uint256"
        }
      ],
      "name": "setLimit",
      "outputs": [],
      "stateMutability": "nonpayable",
      "type": "function"
    },
    {
      "inputs": [
        {
          "internalType": "address",
          "name": "m",
          "type": "address"
        }
      ],
      "name": "setMarket",
      "outputs": [],
      "stateMutability": "nonpayable",
      "type": "function"
    },
    {
      "inputs": [
        {
          "internalType": "address",
          "name": "newOwner",
          "type": "address"
        }
      ],
      "name": "transferOwnership",
      "outputs": [],
      "stateMutability": "nonpayable",
      "type": "function"
    },
    {
      "inputs": [
        {
          "internalType": "address",
          "name": "token",
          "type": "address"
        },
        {
          "internalType": "address",
          "name": "to",
          "type": "address"
        },
        {
          "internalType": "uint256",
          "name": "amount",
          "type": "uint256"
        }
      ],
      "name": "withdraw",
      "outputs": [],
      "stateMutability": "nonpayable",
      "type": "function"
    }
  ],
  "bytecode": "0x608060405260056003553480156200001657600080fd5b5060405162001541380380620015418339810160408190526200003991620001c1565b8181620000463362000154565b6001600160a01b038216620000925760405162461bcd60e51b815260206004820152600e60248201526d1a5b9d985b1a59081b585c9ad95d60921b604482015260640160405180910390fd5b600180546001600160a01b0319166001600160a01b0384169081179091556002805460ff60a01b1916600160a01b8415150217905560408051633a0df78d60e11b8152905163741bef1a916004808201926020929091908290030181865afa15801562000103573d6000803e3d6000fd5b505050506040513d601f19601f8201168201806040525081019062000129919062000201565b600280546001600160a01b0319166001600160a01b0392909216919091179055506200022692505050565b600080546001600160a01b038381166001600160a01b0319831681178455604051919092169283917f8be0079c531659141344cd1fd0a4f28419497f9722a3daafe3b4186f6b6457e09190a35050565b80516001600160a01b0381168114620001bc57600080fd5b919050565b60008060408385031215620001d557600080fd5b620001e083620001a4565b915060208301518015158114620001f657600080fd5b809150509250929050565b6000602082840312156200021457600080fd5b6200021f82620001a4565b9392505050565b61130b80620002366000396000f3fe608060405234801561001057600080fd5b50600436106100ea5760003560e01c80636e04ff0d1161008c5780638d54365a116100665780638d54365a146101ed5780638da5cb5b14610204578063d9caed1214610215578063f2fde38b1461022857600080fd5b80636e04ff0d146101b1578063715018a6146101d257806380f55605146101da57600080fd5b8063289e4f67116100c8578063289e4f67146101585780633246b4a6146101785780634585e33b1461018b5780636dcea85f1461019e57600080fd5b8063202a61a1146100ef5780632630c12f1461011857806327ea6f2b14610143575b600080fd5b60025461010390600160a01b900460ff1681565b60405190151581526020015b60405180910390f35b60025461012b906001600160a01b031681565b6040516001600160a01b03909116815260200161010f565b610156610151366004610ecb565b61023b565b005b61016b610166366004610ee4565b61028d565b60405161010f9190610f4a565b610156610186366004610ee4565b6102a0565b610156610199366004610fa4565b6102bc565b6101566101ac36600461104e565b610323565b6101c46101bf366004610fa4565b6103cb565b60405161010f9291906110bb565b61015661047b565b60015461012b906001600160a01b031681565b6101f660035481565b60405190815260200161010f565b6000546001600160a01b031661012b565b6101566102233660046110d6565b61048f565b61015661023636600461104e565b6104ab565b610243610524565b600081116102885760405162461bcd60e51b815260206004820152600d60248201526c1a5b9d985b1a59081b1a5b5a5d609a1b60448201526064015b60405180910390fd5b600355565b6060610299838361057e565b9392505050565b60006102ac838361057e565b90506102b781610830565b505050565b6000818060200190518101906102d29190611117565b905060008151116103165760405162461bcd60e51b815260206004820152600e60248201526d696e76616c696420706172616d7360901b604482015260640161027f565b61031f81610830565b5050565b61032b610524565b600180546001600160a01b0319166001600160a01b03831690811790915560408051633a0df78d60e11b8152905163741bef1a916004808201926020929091908290030181865afa158015610384573d6000803e3d6000fd5b505050506040513d601f19601f820116820180604052508101906103a891906111c9565b600280546001600160a01b0319166001600160a01b039290921691909117905550565b60006060600080848060200190518101906103e691906111e6565b9150915081811161042a5760405162461bcd60e51b815260206004820152600e60248201526d696e76616c696420706172616d7360901b604482015260640161027f565b6000610436838361057e565b9050805160000361044d5760009450505050915091565b8060405160200161045e9190610f4a565b604051602081830303815290604052935060019450505050915091565b610483610524565b61048d60006108a2565b565b610497610524565b6102b76001600160a01b03841683836108f2565b6104b3610524565b6001600160a01b0381166105185760405162461bcd60e51b815260206004820152602660248201527f4f776e61626c653a206e6577206f776e657220697320746865207a65726f206160448201526564647265737360d01b606482015260840161027f565b610521816108a2565b50565b6000546001600160a01b0316331461048d5760405162461bcd60e51b815260206004820181905260248201527f4f776e61626c653a2063616c6c6572206973206e6f7420746865206f776e6572604482015260640161027f565b60606000600160009054906101000a90046001600160a01b03166001600160a01b031663ac0b05a66040518163ffffffff1660e01b8152600401602060405180830381865afa1580156105d5573d6000803e3d6000fd5b505050506040513d601f19601f820116820180604052508101906105f991906111c9565b600254604051638dd3fde360e01b81526004810187905260248101869052600160a01b90910460ff16151560448201529091506000906001600160a01b03831690638dd3fde390606401600060405180830381865afa158015610660573d6000803e3d6000fd5b505050506040513d6000823e601f3d908101601f191682016040526106889190810190611117565b90506000815167ffffffffffffffff8111156106a6576106a6610f5d565b6040519080825280602002602001820160405280156106cf578160200160208202803683370190505b5090506000805b8351811080156106e7575060035482105b156107775761070e8482815181106107015761070161120a565b6020026020010151610944565b15610765578381815181106107255761072561120a565b602002602001015183838151811061073f5761073f61120a565b6001600160a01b03909216602092830291909101909101528161076181611220565b9250505b8061076f81611220565b9150506106d6565b508015610826578067ffffffffffffffff81111561079757610797610f5d565b6040519080825280602002602001820160405280156107c0578160200160208202803683370190505b50945060005b81811015610824578281815181106107e0576107e061120a565b60200260200101518682815181106107fa576107fa61120a565b6001600160a01b03909216602092830291909101909101528061081c81611220565b9150506107c6565b505b5050505092915050565b6001546002546040516212ec5d60e81b81526001600160a01b03909216916312ec5d009161086d918591600160a01b900460ff1690600401611247565b600060405180830381600087803b15801561088757600080fd5b505af115801561089b573d6000803e3d6000fd5b5050505050565b600080546001600160a01b038381166001600160a01b0319831681178455604051919092169283917f8be0079c531659141344cd1fd0a4f28419497f9722a3daafe3b4186f6b6457e09190a35050565b604080516001600160a01b038416602482015260448082018490528251808303909101815260649091019091526020810180516001600160e01b031663a9059cbb60e01b1790526102b7908490610b69565b600080600160009054906101000a90046001600160a01b03166001600160a01b031663b894300d6040518163ffffffff1660e01b8152600401602060405180830381865afa15801561099a573d6000803e3d6000fd5b505050506040513d601f19601f820116820180604052508101906109be91906111c9565b6001546002546040805163560582d360e11b815290519394506000936001600160a01b0380871694631f21756a948a949290911692600160a01b90910460ff1691839163ac0b05a6916004808201926020929091908290030181865afa158015610a2c573d6000803e3d6000fd5b505050506040513d601f19601f82011682018060405250810190610a5091906111c9565b600160009054906101000a90046001600160a01b03166001600160a01b031663f29ebf616040518163ffffffff1660e01b8152600401602060405180830381865afa158015610aa3573d6000803e3d6000fd5b505050506040513d601f19601f82011682018060405250810190610ac791906111c9565b610acf610c3b565b60405160e088901b6001600160e01b03191681526001600160a01b039687166004820152948616602486015292151560448501529084166064840152909216608482015260a481019190915260c401602060405180830381865afa158015610b3b573d6000803e3d6000fd5b505050506040513d601f19601f82011682018060405250810190610b5f919061126b565b1515949350505050565b6000610bbe826040518060400160405280602081526020017f5361666545524332303a206c6f772d6c6576656c2063616c6c206661696c6564815250856001600160a01b0316610d3b9092919063ffffffff16565b8051909150156102b75780806020019051810190610bdc9190611284565b6102b75760405162461bcd60e51b815260206004820152602a60248201527f5361666545524332303a204552433230206f7065726174696f6e20646964206e6044820152691bdd081cdd58d8d9595960b21b606482015260840161027f565b600080600160009054906101000a90046001600160a01b03166001600160a01b031663e7d015f26040518163ffffffff1660e01b8152600401602060405180830381865afa158015610c91573d6000803e3d6000fd5b505050506040513d601f19601f82011682018060405250810190610cb591906111c9565b6002546040516303b6b4bb60e51b81526001600160a01b038084166004830152600160a01b830460ff161560248301529293509116906376d6976090604401602060405180830381865afa158015610d11573d6000803e3d6000fd5b505050506040513d601f19601f82011682018060405250810190610d35919061126b565b91505090565b6060610d4a8484600085610d52565b949350505050565b606082471015610db35760405162461bcd60e51b815260206004820152602660248201527f416464726573733a20696e73756666696369656e742062616c616e636520666f6044820152651c8818d85b1b60d21b606482015260840161027f565b600080866001600160a01b03168587604051610dcf91906112a6565b60006040518083038185875af1925050503d8060008114610e0c576040519150601f19603f3d011682016040523d82523d6000602084013e610e11565b606091505b5091509150610e2287838387610e2d565b979650505050505050565b60608315610e9c578251600003610e95576001600160a01b0385163b610e955760405162461bcd60e51b815260206004820152601d60248201527f416464726573733a2063616c6c20746f206e6f6e2d636f6e7472616374000000604482015260640161027f565b5081610d4a565b610d4a8383815115610eb15781518083602001fd5b8060405162461bcd60e51b815260040161027f91906112c2565b600060208284031215610edd57600080fd5b5035919050565b60008060408385031215610ef757600080fd5b50508035926020909101359150565b600081518084526020808501945080840160005b83811015610f3f5781516001600160a01b031687529582019590820190600101610f1a565b509495945050505050565b6020815260006102996020830184610f06565b634e487b7160e01b600052604160045260246000fd5b604051601f8201601f1916810167ffffffffffffffff81118282101715610f9c57610f9c610f5d565b604052919050565b60006020808385031215610fb757600080fd5b823567ffffffffffffffff80821115610fcf57600080fd5b818501915085601f830112610fe357600080fd5b813581811115610ff557610ff5610f5d565b611007601f8201601f19168501610f73565b9150808252868482850101111561101d57600080fd5b8084840185840137600090820190930192909252509392505050565b6001600160a01b038116811461052157600080fd5b60006020828403121561106057600080fd5b813561029981611039565b60005b8381101561108657818101518382015260200161106e565b50506000910152565b600081518084526110a781602086016020860161106b565b601f01601f19169290920160200192915050565b8215158152604060208201526000610d4a604083018461108f565b6000806000606084860312156110eb57600080fd5b83356110f681611039565b9250602084013561110681611039565b929592945050506040919091013590565b6000602080838503121561112a57600080fd5b825167ffffffffffffffff8082111561114257600080fd5b818501915085601f83011261115657600080fd5b81518181111561116857611168610f5d565b8060051b9150611179848301610f73565b818152918301840191848101908884111561119357600080fd5b938501935b838510156111bd57845192506111ad83611039565b8282529385019390850190611198565b98975050505050505050565b6000602082840312156111db57600080fd5b815161029981611039565b600080604083850312156111f957600080fd5b505080516020909101519092909150565b634e487b7160e01b600052603260045260246000fd5b60006001820161124057634e487b7160e01b600052601160045260246000fd5b5060010190565b60408152600061125a6040830185610f06565b905082151560208301529392505050565b60006020828403121561127d57600080fd5b5051919050565b60006020828403121561129657600080fd5b8151801515811461029957600080fd5b600082516112b881846020870161106b565b9190910192915050565b602081526000610299602083018461108f56fea26469706673582212204e1e4b48672ee58b6551c15a625ff59afd67fc4c139eb6e6cbae1a4d54b0ae3f64736f6c63430008110033",
  "linkReferences": {},
  "deployedLinkReferences": {}
}