{
  "_format": "hh-sol-artifact-1",
  "contractName": "Order",
  "sourceName": "contracts/order/OrderStruct.sol",
  "abi": [
    {
      "inputs": [],
      "name": "STRUCT_VERSION",
      "outputs": [
        {
          "internalType": "uint8",
          "name": "",
          "type": "uint8"
        }
      ],
      "stateMutability": "view",
      "type": "function"
    }
  ],
  "bytecode": "0x608b610038600b82828239805160001a607314602b57634e487b7160e01b600052600060045260246000fd5b30600052607381538281f3fe730000000000000000000000000000000000000000301460806040526004361060335760003560e01c80639be4ac99146038575b600080fd5b603f600181565b60405160ff909116815260200160405180910390f3fea2646970667358221220f29072649e11a231fe8d680b078b6a21eeb9a18cd904ed2f150c24812fce80ea64736f6c63430008110033",
  "linkReferences": {},
  "deployedLinkReferences": {}
}