{
  "_format": "hh-sol-artifact-1",
  "contractName": "BlexMulticall",
  "sourceName": "contracts/am/BlexMuticall.sol",
  "abi": [
    {
      "inputs": [
        {
          "internalType": "bytes[]",
          "name": "calls",
          "type": "bytes[]"
        }
      ],
      "name": "aggregateCall",
      "outputs": [
        {
          "internalType": "uint256",
          "name": "blockNumber",
          "type": "uint256"
        },
        {
          "internalType": "bytes[]",
          "name": "returnData",
          "type": "bytes[]"
        }
      ],
      "stateMutability": "nonpayable",
      "type": "function"
    },
    {
      "inputs": [
        {
          "internalType": "bytes[]",
          "name": "calls",
          "type": "bytes[]"
        }
      ],
      "name": "aggregateStaticCall",
      "outputs": [
        {
          "internalType": "uint256",
          "name": "blockNumber",
          "type": "uint256"
        },
        {
          "internalType": "bytes[]",
          "name": "returnData",
          "type": "bytes[]"
        }
      ],
      "stateMutability": "view",
      "type": "function"
    },
    {
      "inputs": [
        {
          "internalType": "bytes[]",
          "name": "calls",
          "type": "bytes[]"
        }
      ],
      "name": "blockAndAggregate",
      "outputs": [
        {
          "internalType": "uint256",
          "name": "blockNumber",
          "type": "uint256"
        },
        {
          "internalType": "bytes32",
          "name": "blockHash",
          "type": "bytes32"
        },
        {
          "components": [
            {
              "internalType": "bool",
              "name": "success",
              "type": "bool"
            },
            {
              "internalType": "bytes",
              "name": "returnData",
              "type": "bytes"
            }
          ],
          "internalType": "struct BlexMulticall.Result[]",
          "name": "returnData",
          "type": "tuple[]"
        }
      ],
      "stateMutability": "nonpayable",
      "type": "function"
    },
    {
      "inputs": [
        {
          "internalType": "uint256",
          "name": "blockNumber",
          "type": "uint256"
        }
      ],
      "name": "getBlockHash",
      "outputs": [
        {
          "internalType": "bytes32",
          "name": "blockHash",
          "type": "bytes32"
        }
      ],
      "stateMutability": "view",
      "type": "function"
    },
    {
      "inputs": [],
      "name": "getBlockNumber",
      "outputs": [
        {
          "internalType": "uint256",
          "name": "blockNumber",
          "type": "uint256"
        }
      ],
      "stateMutability": "view",
      "type": "function"
    },
    {
      "inputs": [],
      "name": "getCurrentBlockCoinbase",
      "outputs": [
        {
          "internalType": "address",
          "name": "coinbase",
          "type": "address"
        }
      ],
      "stateMutability": "view",
      "type": "function"
    },
    {
      "inputs": [],
      "name": "getCurrentBlockDifficulty",
      "outputs": [
        {
          "internalType": "uint256",
          "name": "difficulty",
          "type": "uint256"
        }
      ],
      "stateMutability": "view",
      "type": "function"
    },
    {
      "inputs": [],
      "name": "getCurrentBlockGasLimit",
      "outputs": [
        {
          "internalType": "uint256",
          "name": "gaslimit",
          "type": "uint256"
        }
      ],
      "stateMutability": "view",
      "type": "function"
    },
    {
      "inputs": [],
      "name": "getCurrentBlockTimestamp",
      "outputs": [
        {
          "internalType": "uint256",
          "name": "timestamp",
          "type": "uint256"
        }
      ],
      "stateMutability": "view",
      "type": "function"
    },
    {
      "inputs": [
        {
          "internalType": "address",
          "name": "addr",
          "type": "address"
        }
      ],
      "name": "getEthBalance",
      "outputs": [
        {
          "internalType": "uint256",
          "name": "balance",
          "type": "uint256"
        }
      ],
      "stateMutability": "view",
      "type": "function"
    },
    {
      "inputs": [],
      "name": "getLastBlockHash",
      "outputs": [
        {
          "internalType": "bytes32",
          "name": "blockHash",
          "type": "bytes32"
        }
      ],
      "stateMutability": "view",
      "type": "function"
    },
    {
      "inputs": [
        {
          "internalType": "bool",
          "name": "requireSuccess",
          "type": "bool"
        },
        {
          "internalType": "bytes[]",
          "name": "calls",
          "type": "bytes[]"
        }
      ],
      "name": "tryAggregate",
      "outputs": [
        {
          "components": [
            {
              "internalType": "bool",
              "name": "success",
              "type": "bool"
            },
            {
              "internalType": "bytes",
              "name": "returnData",
              "type": "bytes"
            }
          ],
          "internalType": "struct BlexMulticall.Result[]",
          "name": "returnData",
          "type": "tuple[]"
        }
      ],
      "stateMutability": "nonpayable",
      "type": "function"
    },
    {
      "inputs": [
        {
          "internalType": "bool",
          "name": "requireSuccess",
          "type": "bool"
        },
        {
          "internalType": "bytes[]",
          "name": "calls",
          "type": "bytes[]"
        }
      ],
      "name": "tryBlockAndAggregate",
      "outputs": [
        {
          "internalType": "uint256",
          "name": "blockNumber",
          "type": "uint256"
        },
        {
          "internalType": "bytes32",
          "name": "blockHash",
          "type": "bytes32"
        },
        {
          "components": [
            {
              "internalType": "bool",
              "name": "success",
              "type": "bool"
            },
            {
              "internalType": "bytes",
              "name": "returnData",
              "type": "bytes"
            }
          ],
          "internalType": "struct BlexMulticall.Result[]",
          "name": "returnData",
          "type": "tuple[]"
        }
      ],
      "stateMutability": "nonpayable",
      "type": "function"
    }
  ],
  "bytecode": "0x608060405234801561001057600080fd5b50610bc1806100206000396000f3fe608060405234801561001057600080fd5b50600436106100cf5760003560e01c80634d2301cc1161008c578063a8b0574e11610066578063a8b0574e14610185578063c8a1918f14610193578063ee82ac5e146101a6578063f15bd157146101b857600080fd5b80634d2301cc1461015e57806372425d9d1461017957806386d516e81461017f57600080fd5b8063055af76d146100d45780630f28c97d146100fe5780631e0a95af1461010e57806320136e031461012e57806327e86d6e1461015057806342cbb15c14610158575b600080fd5b6100e76100e236600461083a565b6101cb565b6040516100f59291906108c7565b60405180910390f35b425b6040519081526020016100f5565b61012161011c366004610931565b610365565b6040516100f591906109f4565b61014161013c36600461083a565b61051b565b6040516100f593929190610a0e565b610100610538565b43610100565b61010061016c366004610a4e565b6001600160a01b03163190565b44610100565b45610100565b6040514181526020016100f5565b6101416101a1366004610931565b61054b565b6101006101b4366004610a6b565b4090565b6100e76101c636600461083a565b610563565b8051439060609067ffffffffffffffff8111156101ea576101ea6106e8565b60405190808252806020026020018201604052801561021d57816020015b60608152602001906001900390816102085790505b50905060005b835181101561035f5760008085838151811061024157610241610a84565b602002602001015180602001905181019061025c9190610a9a565b91509150600080836001600160a01b03168360405161027b9190610b27565b600060405180830381855afa9150503d80600081146102b6576040519150601f19603f3d011682016040523d82523d6000602084013e6102bb565b606091505b50915091508161032a5760405162461bcd60e51b815260206004820152602f60248201527f426c65784d756c746963616c6c206167677265676174653a207374617469636360448201526e185b1b0818d85b1b0819985a5b1959608a1b60648201526084015b60405180910390fd5b8086868151811061033d5761033d610a84565b602002602001018190525050505050808061035790610b59565b915050610223565b50915091565b6060815167ffffffffffffffff811115610381576103816106e8565b6040519080825280602002602001820160405280156103c757816020015b60408051808201909152600081526060602082015281526020019060019003908161039f5790505b50905060005b8251811015610514576000808483815181106103eb576103eb610a84565b60200260200101518060200190518101906104069190610a9a565b91509150600080836001600160a01b0316836040516104259190610b27565b6000604051808303816000865af19150503d8060008114610462576040519150601f19603f3d011682016040523d82523d6000602084013e610467565b606091505b509150915087156104c957816104c95760405162461bcd60e51b815260206004820152602160248201527f4d756c746963616c6c32206167677265676174653a2063616c6c206661696c656044820152601960fa1b6064820152608401610321565b60405180604001604052808315158152602001828152508686815181106104f2576104f2610a84565b602002602001018190525050505050808061050c90610b59565b9150506103cd565b5092915050565b600080606061052b60018561054b565b9196909550909350915050565b6000610545600143610b72565b40905090565b438040606061055a8585610365565b90509250925092565b8051439060609067ffffffffffffffff811115610582576105826106e8565b6040519080825280602002602001820160405280156105b557816020015b60608152602001906001900390816105a05790505b50905060005b835181101561035f576000808583815181106105d9576105d9610a84565b60200260200101518060200190518101906105f49190610a9a565b91509150600080836001600160a01b0316836040516106139190610b27565b6000604051808303816000865af19150503d8060008114610650576040519150601f19603f3d011682016040523d82523d6000602084013e610655565b606091505b5091509150816106b35760405162461bcd60e51b8152602060048201526024808201527f426c65784d756c746963616c6c206167677265676174653a2063616c6c2066616044820152631a5b195960e21b6064820152608401610321565b808686815181106106c6576106c6610a84565b60200260200101819052505050505080806106e090610b59565b9150506105bb565b634e487b7160e01b600052604160045260246000fd5b604051601f8201601f1916810167ffffffffffffffff81118282101715610727576107276106e8565b604052919050565b600067ffffffffffffffff821115610749576107496106e8565b50601f01601f191660200190565b600082601f83011261076857600080fd5b8135602067ffffffffffffffff80831115610785576107856106e8565b8260051b6107948382016106fe565b93845285810183019383810190888611156107ae57600080fd5b84880192505b8583101561082e578235848111156107cc5760008081fd5b8801603f81018a136107de5760008081fd5b8581013560406107f56107f08361072f565b6106fe565b8281528c8284860101111561080a5760008081fd5b828285018a83013760009281018901929092525083525091840191908401906107b4565b98975050505050505050565b60006020828403121561084c57600080fd5b813567ffffffffffffffff81111561086357600080fd5b61086f84828501610757565b949350505050565b60005b8381101561089257818101518382015260200161087a565b50506000910152565b600081518084526108b3816020860160208601610877565b601f01601f19169290920160200192915050565b600060408201848352602060408185015281855180845260608601915060608160051b870101935082870160005b8281101561092357605f1988870301845261091186835161089b565b955092840192908401906001016108f5565b509398975050505050505050565b6000806040838503121561094457600080fd5b8235801515811461095457600080fd5b9150602083013567ffffffffffffffff81111561097057600080fd5b61097c85828601610757565b9150509250929050565b600082825180855260208086019550808260051b84010181860160005b848110156109e757858303601f19018952815180511515845284015160408585018190526109d38186018361089b565b9a86019a94505050908301906001016109a3565b5090979650505050505050565b602081526000610a076020830184610986565b9392505050565b838152826020820152606060408201526000610a2d6060830184610986565b95945050505050565b6001600160a01b0381168114610a4b57600080fd5b50565b600060208284031215610a6057600080fd5b8135610a0781610a36565b600060208284031215610a7d57600080fd5b5035919050565b634e487b7160e01b600052603260045260246000fd5b60008060408385031215610aad57600080fd5b8251610ab881610a36565b602084015190925067ffffffffffffffff811115610ad557600080fd5b8301601f81018513610ae657600080fd5b8051610af46107f08261072f565b818152866020838501011115610b0957600080fd5b610b1a826020830160208601610877565b8093505050509250929050565b60008251610b39818460208701610877565b9190910192915050565b634e487b7160e01b600052601160045260246000fd5b600060018201610b6b57610b6b610b43565b5060010190565b81810381811115610b8557610b85610b43565b9291505056fea264697066735822122053a71207daca5dab14ea0bf51db27bf1e66c6b7951eab1fa24ec512906fd2d4d64736f6c63430008110033",
  "linkReferences": {},
  "deployedLinkReferences": {}
}