{
  "_format": "hh-sol-artifact-1",
  "contractName": "FeeRouter",
  "sourceName": "contracts/fee/FeeRouter.sol",
  "abi": [
    {
      "inputs": [
        {
          "internalType": "address",
          "name": "factory",
          "type": "address"
        }
      ],
      "stateMutability": "nonpayable",
      "type": "constructor"
    },
    {
      "anonymous": false,
      "inputs": [
        {
          "indexed": false,
          "internalType": "uint8",
          "name": "version",
          "type": "uint8"
        }
      ],
      "name": "Initialized",
      "type": "event"
    },
    {
      "anonymous": false,
      "inputs": [
        {
          "indexed": true,
          "internalType": "address",
          "name": "previousOwner",
          "type": "address"
        },
        {
          "indexed": true,
          "internalType": "address",
          "name": "newOwner",
          "type": "address"
        }
      ],
      "name": "OwnershipTransferred",
      "type": "event"
    },
    {
      "anonymous": false,
      "inputs": [
        {
          "indexed": true,
          "internalType": "bytes32",
          "name": "role",
          "type": "bytes32"
        },
        {
          "indexed": true,
          "internalType": "bytes32",
          "name": "previousAdminRole",
          "type": "bytes32"
        },
        {
          "indexed": true,
          "internalType": "bytes32",
          "name": "newAdminRole",
          "type": "bytes32"
        }
      ],
      "name": "RoleAdminChanged",
      "type": "event"
    },
    {
      "anonymous": false,
      "inputs": [
        {
          "indexed": true,
          "internalType": "bytes32",
          "name": "role",
          "type": "bytes32"
        },
        {
          "indexed": true,
          "internalType": "address",
          "name": "account",
          "type": "address"
        },
        {
          "indexed": true,
          "internalType": "address",
          "name": "sender",
          "type": "address"
        }
      ],
      "name": "RoleGranted",
      "type": "event"
    },
    {
      "anonymous": false,
      "inputs": [
        {
          "indexed": true,
          "internalType": "bytes32",
          "name": "role",
          "type": "bytes32"
        },
        {
          "indexed": true,
          "internalType": "address",
          "name": "account",
          "type": "address"
        },
        {
          "indexed": true,
          "internalType": "address",
          "name": "sender",
          "type": "address"
        }
      ],
      "name": "RoleRevoked",
      "type": "event"
    },
    {
      "anonymous": false,
      "inputs": [
        {
          "indexed": true,
          "internalType": "address",
          "name": "account",
          "type": "address"
        },
        {
          "indexed": true,
          "internalType": "address",
          "name": "market",
          "type": "address"
        },
        {
          "indexed": false,
          "internalType": "int256[]",
          "name": "fees",
          "type": "int256[]"
        },
        {
          "indexed": false,
          "internalType": "uint256",
          "name": "amount",
          "type": "uint256"
        }
      ],
      "name": "UpdateFee",
      "type": "event"
    },
    {
      "anonymous": false,
      "inputs": [
        {
          "indexed": true,
          "internalType": "address",
          "name": "market",
          "type": "address"
        },
        {
          "indexed": false,
          "internalType": "uint8",
          "name": "kind",
          "type": "uint8"
        },
        {
          "indexed": false,
          "internalType": "uint256",
          "name": "oldFeeOrRate",
          "type": "uint256"
        },
        {
          "indexed": false,
          "internalType": "uint256",
          "name": "feeOrRate",
          "type": "uint256"
        }
      ],
      "name": "UpdateFeeAndRates",
      "type": "event"
    },
    {
      "inputs": [],
      "name": "DEFAULT_ADMIN_ROLE",
      "outputs": [
        {
          "internalType": "bytes32",
          "name": "",
          "type": "bytes32"
        }
      ],
      "stateMutability": "view",
      "type": "function"
    },
    {
      "inputs": [],
      "name": "FEE_RATE_PRECISION",
      "outputs": [
        {
          "internalType": "uint256",
          "name": "",
          "type": "uint256"
        }
      ],
      "stateMutability": "view",
      "type": "function"
    },
    {
      "inputs": [
        {
          "internalType": "address",
          "name": "account",
          "type": "address"
        },
        {
          "internalType": "address",
          "name": "token",
          "type": "address"
        },
        {
          "internalType": "int256[]",
          "name": "fees",
          "type": "int256[]"
        }
      ],
      "name": "collectFees",
      "outputs": [],
      "stateMutability": "nonpayable",
      "type": "function"
    },
    {
      "inputs": [
        {
          "internalType": "address",
          "name": "market",
          "type": "address"
        },
        {
          "internalType": "bool",
          "name": "isLong",
          "type": "bool"
        }
      ],
      "name": "cumulativeFundingRates",
      "outputs": [
        {
          "internalType": "int256",
          "name": "",
          "type": "int256"
        }
      ],
      "stateMutability": "view",
      "type": "function"
    },
    {
      "inputs": [
        {
          "internalType": "address",
          "name": "",
          "type": "address"
        },
        {
          "internalType": "uint8",
          "name": "",
          "type": "uint8"
        }
      ],
      "name": "feeAndRates",
      "outputs": [
        {
          "internalType": "uint256",
          "name": "",
          "type": "uint256"
        }
      ],
      "stateMutability": "view",
      "type": "function"
    },
    {
      "inputs": [],
      "name": "feeVault",
      "outputs": [
        {
          "internalType": "address",
          "name": "",
          "type": "address"
        }
      ],
      "stateMutability": "view",
      "type": "function"
    },
    {
      "inputs": [],
      "name": "fundFee",
      "outputs": [
        {
          "internalType": "address",
          "name": "",
          "type": "address"
        }
      ],
      "stateMutability": "view",
      "type": "function"
    },
    {
      "inputs": [
        {
          "internalType": "address",
          "name": "market",
          "type": "address"
        }
      ],
      "name": "getExecFee",
      "outputs": [
        {
          "internalType": "uint256",
          "name": "",
          "type": "uint256"
        }
      ],
      "stateMutability": "view",
      "type": "function"
    },
    {
      "inputs": [
        {
          "components": [
            {
              "internalType": "address",
              "name": "_market",
              "type": "address"
            },
            {
              "internalType": "bool",
              "name": "_isLong",
              "type": "bool"
            },
            {
              "internalType": "uint256",
              "name": "_oraclePrice",
              "type": "uint256"
            },
            {
              "internalType": "bool",
              "name": "isOpen",
              "type": "bool"
            },
            {
              "internalType": "address",
              "name": "_account",
              "type": "address"
            },
            {
              "internalType": "uint256",
              "name": "_sizeDelta",
              "type": "uint256"
            },
            {
              "internalType": "uint256",
              "name": "_price",
              "type": "uint256"
            },
            {
              "internalType": "uint256",
              "name": "_slippage",
              "type": "uint256"
            },
            {
              "internalType": "bool",
              "name": "_isExec",
              "type": "bool"
            },
            {
              "internalType": "uint8",
              "name": "liqState",
              "type": "uint8"
            },
            {
              "internalType": "uint64",
              "name": "_fromOrder",
              "type": "uint64"
            },
            {
              "internalType": "bytes32",
              "name": "_refCode",
              "type": "bytes32"
            },
            {
              "internalType": "uint256",
              "name": "collateralDelta",
              "type": "uint256"
            },
            {
              "internalType": "uint8",
              "name": "execNum",
              "type": "uint8"
            },
            {
              "internalType": "uint256[]",
              "name": "inputs",
              "type": "uint256[]"
            }
          ],
          "internalType": "struct MarketDataTypes.UpdatePositionInputs",
          "name": "params",
          "type": "tuple"
        },
        {
          "components": [
            {
              "internalType": "address",
              "name": "market",
              "type": "address"
            },
            {
              "internalType": "bool",
              "name": "isLong",
              "type": "bool"
            },
            {
              "internalType": "uint32",
              "name": "lastTime",
              "type": "uint32"
            },
            {
              "internalType": "uint216",
              "name": "extra3",
              "type": "uint216"
            },
            {
              "internalType": "uint256",
              "name": "size",
              "type": "uint256"
            },
            {
              "internalType": "uint256",
              "name": "collateral",
              "type": "uint256"
            },
            {
              "internalType": "uint256",
              "name": "averagePrice",
              "type": "uint256"
            },
            {
              "internalType": "int256",
              "name": "entryFundingRate",
              "type": "int256"
            },
            {
              "internalType": "int256",
              "name": "realisedPnl",
              "type": "int256"
            },
            {
              "internalType": "uint256",
              "name": "extra0",
              "type": "uint256"
            },
            {
              "internalType": "uint256",
              "name": "extra1",
              "type": "uint256"
            },
            {
              "internalType": "uint256",
              "name": "extra2",
              "type": "uint256"
            }
          ],
          "internalType": "struct Position.Props",
          "name": "position",
          "type": "tuple"
        }
      ],
      "name": "getFees",
      "outputs": [
        {
          "internalType": "int256[]",
          "name": "fees",
          "type": "int256[]"
        }
      ],
      "stateMutability": "view",
      "type": "function"
    },
    {
      "inputs": [
        {
          "internalType": "address",
          "name": "market",
          "type": "address"
        },
        {
          "internalType": "bool",
          "name": "isLong",
          "type": "bool"
        }
      ],
      "name": "getFundingRate",
      "outputs": [
        {
          "internalType": "int256",
          "name": "",
          "type": "int256"
        }
      ],
      "stateMutability": "view",
      "type": "function"
    },
    {
      "inputs": [
        {
          "components": [
            {
              "internalType": "address",
              "name": "_market",
              "type": "address"
            },
            {
              "internalType": "bool",
              "name": "_isLong",
              "type": "bool"
            },
            {
              "internalType": "uint256",
              "name": "_oraclePrice",
              "type": "uint256"
            },
            {
              "internalType": "bool",
              "name": "isOpen",
              "type": "bool"
            },
            {
              "internalType": "bool",
              "name": "isCreate",
              "type": "bool"
            },
            {
              "components": [
                {
                  "internalType": "uint8",
                  "name": "version",
                  "type": "uint8"
                },
                {
                  "internalType": "uint32",
                  "name": "updatedAtBlock",
                  "type": "uint32"
                },
                {
                  "internalType": "uint8",
                  "name": "triggerAbove",
                  "type": "uint8"
                },
                {
                  "internalType": "address",
                  "name": "account",
                  "type": "address"
                },
                {
                  "internalType": "uint48",
                  "name": "extra3",
                  "type": "uint48"
                },
                {
                  "internalType": "uint128",
                  "name": "collateral",
                  "type": "uint128"
                },
                {
                  "internalType": "uint128",
                  "name": "size",
                  "type": "uint128"
                },
                {
                  "internalType": "uint128",
                  "name": "price",
                  "type": "uint128"
                },
                {
                  "internalType": "uint128",
                  "name": "extra1",
                  "type": "uint128"
                },
                {
                  "internalType": "uint64",
                  "name": "orderID",
                  "type": "uint64"
                },
                {
                  "internalType": "uint64",
                  "name": "extra2",
                  "type": "uint64"
                },
                {
                  "internalType": "uint128",
                  "name": "extra0",
                  "type": "uint128"
                },
                {
                  "internalType": "bytes32",
                  "name": "refCode",
                  "type": "bytes32"
                }
              ],
              "internalType": "struct Order.Props",
              "name": "_order",
              "type": "tuple"
            },
            {
              "internalType": "uint256[]",
              "name": "inputs",
              "type": "uint256[]"
            }
          ],
          "internalType": "struct MarketDataTypes.UpdateOrderInputs",
          "name": "params",
          "type": "tuple"
        }
      ],
      "name": "getOrderFees",
      "outputs": [
        {
          "internalType": "int256",
          "name": "fees",
          "type": "int256"
        }
      ],
      "stateMutability": "view",
      "type": "function"
    },
    {
      "inputs": [
        {
          "internalType": "bytes32",
          "name": "role",
          "type": "bytes32"
        }
      ],
      "name": "getRoleAdmin",
      "outputs": [
        {
          "internalType": "bytes32",
          "name": "",
          "type": "bytes32"
        }
      ],
      "stateMutability": "view",
      "type": "function"
    },
    {
      "inputs": [
        {
          "internalType": "bytes32",
          "name": "role",
          "type": "bytes32"
        },
        {
          "internalType": "address",
          "name": "account",
          "type": "address"
        }
      ],
      "name": "grantAndRevoke",
      "outputs": [],
      "stateMutability": "nonpayable",
      "type": "function"
    },
    {
      "inputs": [
        {
          "internalType": "address",
          "name": "_account",
          "type": "address"
        }
      ],
      "name": "grantControllerRoleByMarketManager",
      "outputs": [],
      "stateMutability": "nonpayable",
      "type": "function"
    },
    {
      "inputs": [
        {
          "internalType": "bytes32",
          "name": "role",
          "type": "bytes32"
        },
        {
          "internalType": "address",
          "name": "account",
          "type": "address"
        }
      ],
      "name": "grantRole",
      "outputs": [],
      "stateMutability": "nonpayable",
      "type": "function"
    },
    {
      "inputs": [
        {
          "internalType": "bytes32",
          "name": "role",
          "type": "bytes32"
        },
        {
          "internalType": "address",
          "name": "account",
          "type": "address"
        }
      ],
      "name": "hasRole",
      "outputs": [
        {
          "internalType": "bool",
          "name": "",
          "type": "bool"
        }
      ],
      "stateMutability": "view",
      "type": "function"
    },
    {
      "inputs": [
        {
          "internalType": "address",
          "name": "vault",
          "type": "address"
        },
        {
          "internalType": "address",
          "name": "fundingFee",
          "type": "address"
        }
      ],
      "name": "initialize",
      "outputs": [],
      "stateMutability": "nonpayable",
      "type": "function"
    },
    {
      "inputs": [],
      "name": "owner",
      "outputs": [
        {
          "internalType": "address",
          "name": "",
          "type": "address"
        }
      ],
      "stateMutability": "view",
      "type": "function"
    },
    {
      "inputs": [],
      "name": "renounceOwnership",
      "outputs": [],
      "stateMutability": "nonpayable",
      "type": "function"
    },
    {
      "inputs": [
        {
          "internalType": "bytes32",
          "name": "role",
          "type": "bytes32"
        },
        {
          "internalType": "address",
          "name": "account",
          "type": "address"
        }
      ],
      "name": "renounceRole",
      "outputs": [],
      "stateMutability": "nonpayable",
      "type": "function"
    },
    {
      "inputs": [
        {
          "internalType": "bytes32",
          "name": "role",
          "type": "bytes32"
        },
        {
          "internalType": "address",
          "name": "account",
          "type": "address"
        }
      ],
      "name": "revokeRole",
      "outputs": [],
      "stateMutability": "nonpayable",
      "type": "function"
    },
    {
      "inputs": [
        {
          "internalType": "address",
          "name": "market",
          "type": "address"
        },
        {
          "internalType": "uint256[]",
          "name": "rates",
          "type": "uint256[]"
        }
      ],
      "name": "setFeeAndRates",
      "outputs": [],
      "stateMutability": "nonpayable",
      "type": "function"
    },
    {
      "inputs": [
        {
          "internalType": "address",
          "name": "vault",
          "type": "address"
        }
      ],
      "name": "setFeeVault",
      "outputs": [],
      "stateMutability": "nonpayable",
      "type": "function"
    },
    {
      "inputs": [
        {
          "internalType": "address",
          "name": "fundingFee",
          "type": "address"
        }
      ],
      "name": "setFundFee",
      "outputs": [],
      "stateMutability": "nonpayable",
      "type": "function"
    },
    {
      "inputs": [
        {
          "internalType": "bytes4",
          "name": "interfaceId",
          "type": "bytes4"
        }
      ],
      "name": "supportsInterface",
      "outputs": [
        {
          "internalType": "bool",
          "name": "",
          "type": "bool"
        }
      ],
      "stateMutability": "view",
      "type": "function"
    },
    {
      "inputs": [
        {
          "internalType": "address",
          "name": "to",
          "type": "address"
        }
      ],
      "name": "transferAdmin",
      "outputs": [],
      "stateMutability": "nonpayable",
      "type": "function"
    },
    {
      "inputs": [
        {
          "internalType": "address",
          "name": "newOwner",
          "type": "address"
        }
      ],
      "name": "transferOwnership",
      "outputs": [],
      "stateMutability": "nonpayable",
      "type": "function"
    },
    {
      "inputs": [
        {
          "internalType": "address",
          "name": "market",
          "type": "address"
        },
        {
          "internalType": "uint256",
          "name": "longSize",
          "type": "uint256"
        },
        {
          "internalType": "uint256",
          "name": "shortSize",
          "type": "uint256"
        }
      ],
      "name": "updateCumulativeFundingRate",
      "outputs": [],
      "stateMutability": "nonpayable",
      "type": "function"
    },
    {
      "inputs": [
        {
          "internalType": "address",
          "name": "token",
          "type": "address"
        },
        {
          "internalType": "address",
          "name": "to",
          "type": "address"
        },
        {
          "internalType": "uint256",
          "name": "amount",
          "type": "uint256"
        }
      ],
      "name": "withdraw",
      "outputs": [],
      "stateMutability": "nonpayable",
      "type": "function"
    }
  ],
  "bytecode": "0x60806040523480156200001157600080fd5b506040516200265e3803806200265e8339810160408190526200003491620001b5565b8062000040336200008a565b6200005681620000dc60201b62000fa11760201c565b50620000837f241ecf16d79d0f8dbfb92cbc07fe17840425976cf0667f022fe9877caa831b083362000108565b50620001e7565b600180546001600160a01b038381166001600160a01b0319831681179093556040519116919082907f8be0079c531659141344cd1fd0a4f28419497f9722a3daafe3b4186f6b6457e090600090a35050565b42600255620000eb336200008a565b620000f8600033620001a9565b62000105600082620001a9565b50565b6000828152602081815260408083206001600160a01b038516845290915290205460ff16620001a5576000828152602081815260408083206001600160a01b03851684529091529020805460ff19166001179055620001643390565b6001600160a01b0316816001600160a01b0316837f2f8788117e7eff1d82e926ec794901d17c78024a50270940304540a733656f0d60405160405180910390a45b5050565b620001a5828262000108565b600060208284031215620001c857600080fd5b81516001600160a01b0381168114620001e057600080fd5b9392505050565b61246780620001f76000396000f3fe608060405234801561001057600080fd5b506004361061015f5760003560e01c806301ffc9a71461016457806309d398971461018c57806320981df4146101cf578063248a9ca3146101e25780632f2ff15d146101f557806333abd0281461020a57806334f32e251461023557806336568abe14610248578063415102631461025b578063478222c21461027b578063485cc9551461028e578063715018a6146102a157806375829def146102a95780637dd49023146102bc5780637fe4a698146102cf5780638da5cb5b146102e257806391d14854146102ea57806399d5c1ec146102fd578063a217fddf14610310578063a591f97f14610318578063c6f83ad11461032b578063c8830bf51461033e578063c9cf9f3a14610351578063d547741f14610364578063d877806814610377578063d9caed12146103a2578063e50f19ef146103b5578063f2fde38b146103c8578063f4ca4d1d146103db575b600080fd5b610177610172366004611779565b6103e3565b60405190151581526020015b60405180910390f35b6101c161019a3660046117bf565b6001600160a01b031660009081526005602090815260408083206003845290915290205490565b604051908152602001610183565b6101c16101dd3660046117f3565b61041a565b6101c16101f036600461182a565b610496565b610208610203366004611843565b6104ab565b005b60045461021d906001600160a01b031681565b6040516001600160a01b039091168152602001610183565b6101c16102433660046117f3565b6104cc565b610208610256366004611843565b6104ff565b61026e610269366004611ae0565b610582565b6040516101839190611c60565b60035461021d906001600160a01b031681565b61020861029c366004611c73565b610757565b6102086108fb565b6102086102b73660046117bf565b61090f565b6102086102ca366004611c9d565b610939565b6102086102dd3660046117bf565b610ad5565b61021d610aed565b6101776102f8366004611843565b610afc565b61020861030b366004611843565b610b25565b6101c1600081565b6102086103263660046117bf565b610b96565b610208610339366004611cea565b610bf5565b6101c161034c366004611e44565b610c80565b61020861035f3660046117bf565b610cff565b610208610372366004611843565b610d60565b6101c1610385366004611f12565b600560209081526000928352604080842090915290825290205481565b6102086103b0366004611f3c565b610d7c565b6102086103c3366004611f78565b610e12565b6102086103d63660046117bf565b610f19565b6101c1610f92565b60006001600160e01b03198216637965db0b60e01b148061041457506301ffc9a760e01b6001600160e01b03198316145b92915050565b60048054604051630826077d60e21b81526000926001600160a01b03909216916320981df49161044e91879187910161202b565b602060405180830381865afa15801561046b573d6000803e3d6000fd5b505050506040513d601f19601f8201168201806040525081019061048f9190612046565b9392505050565b60009081526020819052604090206001015490565b6104b482610496565b6104bd81610fc4565b6104c78383610fce565b505050565b6003546040516334f32e2560e01b81526000916001600160a01b0316906334f32e259061044e908690869060040161202b565b6001600160a01b03811633146105745760405162461bcd60e51b815260206004820152602f60248201527f416363657373436f6e74726f6c3a2063616e206f6e6c792072656e6f756e636560448201526e103937b632b9903337b91039b2b63360891b60648201526084015b60405180910390fd5b61057e8282611052565b5050565b60408051600c8082526101a08201909252606091602082016101808036833701905050905060008360000151905060006105ca82866020015186608001518760e001516110b7565b90508083600260ff16815181106105e3576105e361205f565b602090810291909101015260a0850151158015610604575061018085015115155b15610610575050610414565b8460600151156106535760a085015161062c908390600061115a565b83600060ff16815181106106425761064261205f565b6020026020010181815250506106e2565b60a0850151610665908390600161115a565b83600160ff168151811061067b5761067b61205f565b60200260200101818152505084610120015160ff166001036106e2576001600160a01b0382166000908152600560209081526040808320600480855292529091205484519091829186919081106106d4576106d461205f565b602002602001018181525050505b6101a085015160ff161561074f576001600160a01b0382166000908152600560209081526040808320600384529091529020546101a08601516107289060ff168261208b565b90508084600360ff16815181106107415761074161205f565b602002602001018181525050505b505092915050565b600154600160a81b900460ff161580801561077d575060018054600160a01b900460ff16105b806107a4575061078c306111f0565b1580156107a4575060018054600160a01b900460ff16145b6108075760405162461bcd60e51b815260206004820152602e60248201527f496e697469616c697a61626c653a20636f6e747261637420697320616c72656160448201526d191e481a5b9a5d1a585b1a5e995960921b606482015260840161056b565b6001805460ff60a01b1916600160a01b1790558015610834576001805460ff60a81b1916600160a81b1790555b6001600160a01b03831661085a5760405162461bcd60e51b815260040161056b906120a2565b6001600160a01b0382166108805760405162461bcd60e51b815260040161056b906120cd565b600380546001600160a01b038086166001600160a01b031992831617909255600480549285169290911691909117905580156104c7576001805460ff60a81b191681556040519081527f7f26b83ff96e1f2b6a682f133852f6798a09c465da95921460cefb38474024989060200160405180910390a1505050565b6109036111ff565b61090d600061125e565b565b600061091a81610fc4565b6109256000836112b0565b61092e8261125e565b61057e600033611052565b60008051602061241283398151915260006109548133610afc565b9050801561099057620151806002544261096e91906120f6565b1061098b5760405162461bcd60e51b815260040161056b90612109565b61099a565b61099a82336112ba565b60008351116109dc5760405162461bcd60e51b815260206004820152600e60248201526d696e76616c696420706172616d7360901b604482015260640161056b565b60005b83518160ff161015610ace576000848260ff1681518110610a0257610a0261205f565b60200260200101519050848260ff1681518110610a2157610a2161205f565b6020908102919091018101516001600160a01b038816600081815260058452604080822060ff88168084529552902091909155865190917f8e26fb53d63c548677b068d08742bea435b6ecb7911ab3c5ad68fbccddeaf5fe91859185918a91908110610a8f57610a8f61205f565b6020908102919091018101516040805160ff90951685529184019290925282015260600160405180910390a25080610ac681612131565b9150506109df565b5050505050565b60008051602061241283398151915261015f81610fc4565b6001546001600160a01b031690565b6000918252602082815260408084206001600160a01b0393909316845291905290205460ff1690565b6000805160206123f28339815191526000610b408133610afc565b90508015610b7c576201518060025442610b5a91906120f6565b10610b775760405162461bcd60e51b815260040161056b90612109565b610b86565b610b8682336112ba565b610b908484610fce565b50505050565b610bad6000805160206123f2833981519152610fc4565b6001600160a01b038116610bd35760405162461bcd60e51b815260040161056b906120a2565b600380546001600160a01b0319166001600160a01b0392909216919091179055565b610c0c6000805160206123d2833981519152610fc4565b6004805460405163c6f83ad160e01b81526001600160a01b0386811693820193909352602481018590526044810184905291169063c6f83ad190606401600060405180830381600087803b158015610c6357600080fd5b505af1158015610c77573d6000803e3d6000fd5b50505050505050565b600080826060015115610c9557506000610c99565b5060015b6000610cbb84600001518560a0015160c001516001600160801b03168461115a565b84516001600160a01b0316600090815260056020908152604080832060038452909152902054909150610cf6610cf18284612150565b611313565b95945050505050565b610d166000805160206123f2833981519152610fc4565b6004546001600160a01b0316610d3e5760405162461bcd60e51b815260040161056b906120cd565b600480546001600160a01b0319166001600160a01b0392909216919091179055565b610d6982610496565b610d7281610fc4565b6104c78383611052565b7f5d8e12c39142ff96d79d04d15d1ba1269e4fe57bb9d26f43523628b34ba108ec610da681610fc4565b600354604051636ce5768960e11b81526001600160a01b039091169063d9caed1290610dda90879087908790600401612163565b600060405180830381600087803b158015610df457600080fd5b505af1158015610e08573d6000803e3d6000fd5b5050505050505050565b610e296000805160206123d2833981519152610fc4565b604051636eb1769f60e11b81523360048201523060248201526000906001600160a01b0384169063dd62ed3e90604401602060405180830381865afa158015610e76573d6000803e3d6000fd5b505050506040513d601f19601f82011682018060405250810190610e9a9190612046565b905080600003610eaa5750505050565b600354610ec6906001600160a01b038581169133911684611381565b336001600160a01b0316846001600160a01b03167f51b85031527a935663233d62a057687d039b9fbcd79c55e46a5b24510159336f8484604051610f0b929190612187565b60405180910390a350505050565b610f216111ff565b6001600160a01b038116610f865760405162461bcd60e51b815260206004820152602660248201527f4f776e61626c653a206e6577206f776e657220697320746865207a65726f206160448201526564647265737360d01b606482015260840161056b565b610f8f8161125e565b50565b610f9e6008600a61228d565b81565b42600255610fae3361125e565b610fb96000336112b0565b610f8f6000826112b0565b610f8f81336112ba565b610fd88282610afc565b61057e576000828152602081815260408083206001600160a01b03851684529091529020805460ff1916600117905561100e3390565b6001600160a01b0316816001600160a01b0316837f2f8788117e7eff1d82e926ec794901d17c78024a50270940304540a733656f0d60405160405180910390a45050565b61105c8282610afc565b1561057e576000828152602081815260408083206001600160a01b0385168085529252808320805460ff1916905551339285917ff6391f5c32d9c69d2a47ea670b442974b53935d1edc7fd64eb21e047a839171b9190a45050565b6000826000036110c957506000611152565b6004805460405163478c57cd60e11b81526001600160a01b038881169382019390935260248101869052604481018590528615156064820152911690638f18af9a90608401602060405180830381865afa15801561112b573d6000803e3d6000fd5b505050506040513d601f19601f8201168201806040525081019061114f9190612046565b90505b949350505050565b60008260000361116c5750600061048f565b6001600160a01b038416600090815260056020908152604080832060ff86168452909152812054908190036111a15750620186a05b60006111af6008600a61228d565b826111bc6008600a61228d565b6111c691906120f6565b6111d0908761208b565b6111da9190612299565b90506111e681866120f6565b9695505050505050565b6001600160a01b03163b151590565b33611208610aed565b6001600160a01b03161461090d5760405162461bcd60e51b815260206004820181905260248201527f4f776e61626c653a2063616c6c6572206973206e6f7420746865206f776e6572604482015260640161056b565b600180546001600160a01b038381166001600160a01b0319831681179093556040519116919082907f8be0079c531659141344cd1fd0a4f28419497f9722a3daafe3b4186f6b6457e090600090a35050565b61057e8282610fce565b6112c48282610afc565b61057e576112d1816113d9565b6112dc8360206113eb565b6040516020016112ed9291906122df565b60408051601f198184030181529082905262461bcd60e51b825261056b9160040161234e565b60006001600160ff1b0382111561137d5760405162461bcd60e51b815260206004820152602860248201527f53616665436173743a2076616c756520646f65736e27742066697420696e2061604482015267371034b73a191a9b60c11b606482015260840161056b565b5090565b610b90846323b872dd60e01b8585856040516024016113a293929190612163565b60408051601f198184030181529190526020810180516001600160e01b03166001600160e01b031990931692909217909152611586565b60606104146001600160a01b03831660145b606060006113fa83600261208b565b611405906002612150565b6001600160401b0381111561141c5761141c61186f565b6040519080825280601f01601f191660200182016040528015611446576020820181803683370190505b509050600360fc1b816000815181106114615761146161205f565b60200101906001600160f81b031916908160001a905350600f60fb1b816001815181106114905761149061205f565b60200101906001600160f81b031916908160001a90535060006114b484600261208b565b6114bf906001612150565b90505b6001811115611537576f181899199a1a9b1b9c1cb0b131b232b360811b85600f16601081106114f3576114f361205f565b1a60f81b8282815181106115095761150961205f565b60200101906001600160f81b031916908160001a90535060049490941c9361153081612381565b90506114c2565b50831561048f5760405162461bcd60e51b815260206004820181905260248201527f537472696e67733a20686578206c656e67746820696e73756666696369656e74604482015260640161056b565b60006115db826040518060400160405280602081526020017f5361666545524332303a206c6f772d6c6576656c2063616c6c206661696c6564815250856001600160a01b03166116589092919063ffffffff16565b8051909150156104c757808060200190518101906115f99190612398565b6104c75760405162461bcd60e51b815260206004820152602a60248201527f5361666545524332303a204552433230206f7065726174696f6e20646964206e6044820152691bdd081cdd58d8d9595960b21b606482015260840161056b565b6060611152848460008585600080866001600160a01b0316858760405161167f91906123b5565b60006040518083038185875af1925050503d80600081146116bc576040519150601f19603f3d011682016040523d82523d6000602084013e6116c1565b606091505b50915091506116d2878383876116dd565b979650505050505050565b6060831561174a578251600003611743576116f7856111f0565b6117435760405162461bcd60e51b815260206004820152601d60248201527f416464726573733a2063616c6c20746f206e6f6e2d636f6e7472616374000000604482015260640161056b565b5081611152565b611152838381511561175f5781518083602001fd5b8060405162461bcd60e51b815260040161056b919061234e565b60006020828403121561178b57600080fd5b81356001600160e01b03198116811461048f57600080fd5b80356001600160a01b03811681146117ba57600080fd5b919050565b6000602082840312156117d157600080fd5b61048f826117a3565b8015158114610f8f57600080fd5b80356117ba816117da565b6000806040838503121561180657600080fd5b61180f836117a3565b9150602083013561181f816117da565b809150509250929050565b60006020828403121561183c57600080fd5b5035919050565b6000806040838503121561185657600080fd5b82359150611866602084016117a3565b90509250929050565b634e487b7160e01b600052604160045260246000fd5b60405161018081016001600160401b03811182821017156118a8576118a861186f565b60405290565b6040516101e081016001600160401b03811182821017156118a8576118a861186f565b6040516101a081016001600160401b03811182821017156118a8576118a861186f565b60405160e081016001600160401b03811182821017156118a8576118a861186f565b604051601f8201601f191681016001600160401b038111828210171561193e5761193e61186f565b604052919050565b803560ff811681146117ba57600080fd5b80356001600160401b03811681146117ba57600080fd5b60006001600160401b038211156119875761198761186f565b5060051b60200190565b600082601f8301126119a257600080fd5b813560206119b76119b28361196e565b611916565b82815260059290921b840181019181810190868411156119d657600080fd5b8286015b848110156119f157803583529183019183016119da565b509695505050505050565b803563ffffffff811681146117ba57600080fd5b80356001600160d81b03811681146117ba57600080fd5b60006101808284031215611a3a57600080fd5b611a42611885565b9050611a4d826117a3565b8152611a5b602083016117e8565b6020820152611a6c604083016119fc565b6040820152611a7d60608301611a10565b60608201526080820135608082015260a082013560a082015260c082013560c082015260e082013560e082015261010080830135818301525061012080830135818301525061014080830135818301525061016080830135818301525092915050565b6000806101a0808486031215611af557600080fd5b83356001600160401b0380821115611b0c57600080fd5b908501906101e08288031215611b2157600080fd5b611b296118ae565b611b32836117a3565b8152611b40602084016117e8565b602082015260408301356040820152611b5b606084016117e8565b6060820152611b6c608084016117a3565b608082015260a083013560a082015260c083013560c082015260e083013560e0820152610100611b9d8185016117e8565b90820152610120611baf848201611946565b90820152610140611bc1848201611957565b9082015261016083810135908201526101808084013590820152611be6848401611946565b848201526101c093508383013582811115611c0057600080fd5b611c0c89828601611991565b8583015250809550505050506118668460208501611a27565b600081518084526020808501945080840160005b83811015611c5557815187529582019590820190600101611c39565b509495945050505050565b60208152600061048f6020830184611c25565b60008060408385031215611c8657600080fd5b611c8f836117a3565b9150611866602084016117a3565b60008060408385031215611cb057600080fd5b611cb9836117a3565b915060208301356001600160401b03811115611cd457600080fd5b611ce085828601611991565b9150509250929050565b600080600060608486031215611cff57600080fd5b611d08846117a3565b95602085013595506040909401359392505050565b803565ffffffffffff811681146117ba57600080fd5b80356001600160801b03811681146117ba57600080fd5b60006101a08284031215611d5d57600080fd5b611d656118d1565b9050611d7082611946565b8152611d7e602083016119fc565b6020820152611d8f60408301611946565b6040820152611da0606083016117a3565b6060820152611db160808301611d1d565b6080820152611dc260a08301611d33565b60a0820152611dd360c08301611d33565b60c0820152611de460e08301611d33565b60e0820152610100611df7818401611d33565b90820152610120611e09838201611957565b90820152610140611e1b838201611957565b90820152610160611e2d838201611d33565b818301525061018080830135818301525092915050565b600060208284031215611e5657600080fd5b81356001600160401b0380821115611e6d57600080fd5b908301906102608286031215611e8257600080fd5b611e8a6118f4565b611e93836117a3565b8152611ea1602084016117e8565b602082015260408301356040820152611ebc606084016117e8565b6060820152611ecd608084016117e8565b6080820152611edf8660a08501611d4a565b60a082015261024083013582811115611ef757600080fd5b611f0387828601611991565b60c08301525095945050505050565b60008060408385031215611f2557600080fd5b611f2e836117a3565b915061186660208401611946565b600080600060608486031215611f5157600080fd5b611f5a846117a3565b9250611f68602085016117a3565b9150604084013590509250925092565b600080600060608486031215611f8d57600080fd5b611f96846117a3565b92506020611fa58186016117a3565b925060408501356001600160401b03811115611fc057600080fd5b8501601f81018713611fd157600080fd5b8035611fdf6119b28261196e565b81815260059190911b82018301908381019089831115611ffe57600080fd5b928401925b8284101561201c57833582529284019290840190612003565b80955050505050509250925092565b6001600160a01b039290921682521515602082015260400190565b60006020828403121561205857600080fd5b5051919050565b634e487b7160e01b600052603260045260246000fd5b634e487b7160e01b600052601160045260246000fd5b808202811582820484141761041457610414612075565b6020808252601190820152701a5b9d985b1a5908199959481d985d5b1d607a1b604082015260600190565b6020808252600f908201526e696e76616c69642066756e6446656560881b604082015260600190565b8181038181111561041457610414612075565b6020808252600e908201526d1858c81d1a5b59481c185cdcd95960921b604082015260600190565b600060ff821660ff810361214757612147612075565b60010192915050565b8082018082111561041457610414612075565b6001600160a01b039384168152919092166020820152604081019190915260600190565b60408152600061219a6040830185611c25565b90508260208301529392505050565b600181815b808511156121e45781600019048211156121ca576121ca612075565b808516156121d757918102915b93841c93908002906121ae565b509250929050565b6000826121fb57506001610414565b8161220857506000610414565b816001811461221e576002811461222857612244565b6001915050610414565b60ff84111561223957612239612075565b50506001821b610414565b5060208310610133831016604e8410600b8410161715612267575081810a610414565b61227183836121a9565b806000190482111561228557612285612075565b029392505050565b600061048f83836121ec565b6000826122b657634e487b7160e01b600052601260045260246000fd5b500490565b60005b838110156122d65781810151838201526020016122be565b50506000910152565b76020b1b1b2b9b9a1b7b73a3937b61d1030b1b1b7bab73a1604d1b8152600083516123118160178501602088016122bb565b7001034b99036b4b9b9b4b733903937b6329607d1b60179184019182015283516123428160288401602088016122bb565b01602801949350505050565b602081526000825180602084015261236d8160408501602087016122bb565b601f01601f19169190910160400192915050565b60008161239057612390612075565b506000190190565b6000602082840312156123aa57600080fd5b815161048f816117da565b600082516123c78184602087016122bb565b919091019291505056fecb58d6d985142a614029cdf01861b4fe094d5919a47e69b8310dc4093d9d6ad0241ecf16d79d0f8dbfb92cbc07fe17840425976cf0667f022fe9877caa831b088d1089725c0dc266707fa6207730fb801dcd03108bfed7a21099bd303651d2b7a2646970667358221220aeb149204448df2e0374ff6d728516f02c53a1261e73eab3c5ff1bc850a7630964736f6c63430008110033",
  "linkReferences": {},
  "deployedLinkReferences": {}
}