{
  "_format": "hh-sol-artifact-1",
  "contractName": "FeeRouter",
  "sourceName": "contracts/fee/FeeRouter.sol",
  "abi": [
    {
      "inputs": [
        {
          "internalType": "address",
          "name": "_factory",
          "type": "address"
        }
      ],
      "stateMutability": "nonpayable",
      "type": "constructor"
    },
    {
      "anonymous": false,
      "inputs": [
        {
          "indexed": false,
          "internalType": "uint8",
          "name": "version",
          "type": "uint8"
        }
      ],
      "name": "Initialized",
      "type": "event"
    },
    {
      "anonymous": false,
      "inputs": [
        {
          "indexed": true,
          "internalType": "address",
          "name": "previousOwner",
          "type": "address"
        },
        {
          "indexed": true,
          "internalType": "address",
          "name": "newOwner",
          "type": "address"
        }
      ],
      "name": "OwnershipTransferred",
      "type": "event"
    },
    {
      "anonymous": false,
      "inputs": [
        {
          "indexed": true,
          "internalType": "bytes32",
          "name": "role",
          "type": "bytes32"
        },
        {
          "indexed": true,
          "internalType": "bytes32",
          "name": "previousAdminRole",
          "type": "bytes32"
        },
        {
          "indexed": true,
          "internalType": "bytes32",
          "name": "newAdminRole",
          "type": "bytes32"
        }
      ],
      "name": "RoleAdminChanged",
      "type": "event"
    },
    {
      "anonymous": false,
      "inputs": [
        {
          "indexed": true,
          "internalType": "bytes32",
          "name": "role",
          "type": "bytes32"
        },
        {
          "indexed": true,
          "internalType": "address",
          "name": "account",
          "type": "address"
        },
        {
          "indexed": true,
          "internalType": "address",
          "name": "sender",
          "type": "address"
        }
      ],
      "name": "RoleGranted",
      "type": "event"
    },
    {
      "anonymous": false,
      "inputs": [
        {
          "indexed": true,
          "internalType": "bytes32",
          "name": "role",
          "type": "bytes32"
        },
        {
          "indexed": true,
          "internalType": "address",
          "name": "account",
          "type": "address"
        },
        {
          "indexed": true,
          "internalType": "address",
          "name": "sender",
          "type": "address"
        }
      ],
      "name": "RoleRevoked",
      "type": "event"
    },
    {
      "anonymous": false,
      "inputs": [
        {
          "indexed": true,
          "internalType": "address",
          "name": "account",
          "type": "address"
        },
        {
          "indexed": true,
          "internalType": "address",
          "name": "market",
          "type": "address"
        },
        {
          "indexed": false,
          "internalType": "int256[]",
          "name": "fees",
          "type": "int256[]"
        },
        {
          "indexed": false,
          "internalType": "uint256",
          "name": "amount",
          "type": "uint256"
        }
      ],
      "name": "UpdateFee",
      "type": "event"
    },
    {
      "anonymous": false,
      "inputs": [
        {
          "indexed": true,
          "internalType": "address",
          "name": "market",
          "type": "address"
        },
        {
          "indexed": false,
          "internalType": "uint8",
          "name": "kind",
          "type": "uint8"
        },
        {
          "indexed": false,
          "internalType": "uint256",
          "name": "oldFeeOrRate",
          "type": "uint256"
        },
        {
          "indexed": false,
          "internalType": "uint256",
          "name": "feeOrRate",
          "type": "uint256"
        }
      ],
      "name": "UpdateFeeAndRates",
      "type": "event"
    },
    {
      "inputs": [],
      "name": "DEFAULT_ADMIN_ROLE",
      "outputs": [
        {
          "internalType": "bytes32",
          "name": "",
          "type": "bytes32"
        }
      ],
      "stateMutability": "view",
      "type": "function"
    },
    {
      "inputs": [],
      "name": "FEE_RATE_PRECISION",
      "outputs": [
        {
          "internalType": "uint256",
          "name": "",
          "type": "uint256"
        }
      ],
      "stateMutability": "view",
      "type": "function"
    },
    {
      "inputs": [
        {
          "internalType": "address",
          "name": "account",
          "type": "address"
        },
        {
          "internalType": "address",
          "name": "token",
          "type": "address"
        },
        {
          "internalType": "int256[]",
          "name": "fees",
          "type": "int256[]"
        },
        {
          "internalType": "uint256",
          "name": "fundfeeLoss",
          "type": "uint256"
        }
      ],
      "name": "collectFees",
      "outputs": [],
      "stateMutability": "nonpayable",
      "type": "function"
    },
    {
      "inputs": [
        {
          "internalType": "address",
          "name": "account",
          "type": "address"
        },
        {
          "internalType": "address",
          "name": "token",
          "type": "address"
        },
        {
          "internalType": "int256[]",
          "name": "fees",
          "type": "int256[]"
        }
      ],
      "name": "collectFees",
      "outputs": [],
      "stateMutability": "nonpayable",
      "type": "function"
    },
    {
      "inputs": [
        {
          "internalType": "address",
          "name": "market",
          "type": "address"
        },
        {
          "internalType": "bool",
          "name": "isLong",
          "type": "bool"
        }
      ],
      "name": "cumulativeFundingRates",
      "outputs": [
        {
          "internalType": "int256",
          "name": "",
          "type": "int256"
        }
      ],
      "stateMutability": "view",
      "type": "function"
    },
    {
      "inputs": [],
      "name": "factory",
      "outputs": [
        {
          "internalType": "address",
          "name": "",
          "type": "address"
        }
      ],
      "stateMutability": "view",
      "type": "function"
    },
    {
      "inputs": [
        {
          "internalType": "address",
          "name": "",
          "type": "address"
        },
        {
          "internalType": "uint8",
          "name": "",
          "type": "uint8"
        }
      ],
      "name": "feeAndRates",
      "outputs": [
        {
          "internalType": "uint256",
          "name": "",
          "type": "uint256"
        }
      ],
      "stateMutability": "view",
      "type": "function"
    },
    {
      "inputs": [],
      "name": "feeVault",
      "outputs": [
        {
          "internalType": "address",
          "name": "",
          "type": "address"
        }
      ],
      "stateMutability": "view",
      "type": "function"
    },
    {
      "inputs": [],
      "name": "fundFee",
      "outputs": [
        {
          "internalType": "address",
          "name": "",
          "type": "address"
        }
      ],
      "stateMutability": "view",
      "type": "function"
    },
    {
      "inputs": [
        {
          "internalType": "address",
          "name": "market",
          "type": "address"
        }
      ],
      "name": "getExecFee",
      "outputs": [
        {
          "internalType": "uint256",
          "name": "",
          "type": "uint256"
        }
      ],
      "stateMutability": "view",
      "type": "function"
    },
    {
      "inputs": [
        {
          "components": [
            {
              "internalType": "address",
              "name": "_market",
              "type": "address"
            },
            {
              "internalType": "bool",
              "name": "_isLong",
              "type": "bool"
            },
            {
              "internalType": "uint256",
              "name": "_oraclePrice",
              "type": "uint256"
            },
            {
              "internalType": "bool",
              "name": "isOpen",
              "type": "bool"
            },
            {
              "internalType": "address",
              "name": "_account",
              "type": "address"
            },
            {
              "internalType": "uint256",
              "name": "_sizeDelta",
              "type": "uint256"
            },
            {
              "internalType": "uint256",
              "name": "_price",
              "type": "uint256"
            },
            {
              "internalType": "uint256",
              "name": "_slippage",
              "type": "uint256"
            },
            {
              "internalType": "bool",
              "name": "_isExec",
              "type": "bool"
            },
            {
              "internalType": "uint8",
              "name": "liqState",
              "type": "uint8"
            },
            {
              "internalType": "uint64",
              "name": "_fromOrder",
              "type": "uint64"
            },
            {
              "internalType": "bytes32",
              "name": "_refCode",
              "type": "bytes32"
            },
            {
              "internalType": "uint256",
              "name": "collateralDelta",
              "type": "uint256"
            },
            {
              "internalType": "uint8",
              "name": "execNum",
              "type": "uint8"
            },
            {
              "internalType": "uint256[]",
              "name": "inputs",
              "type": "uint256[]"
            }
          ],
          "internalType": "struct MarketDataTypes.UpdatePositionInputs",
          "name": "params",
          "type": "tuple"
        },
        {
          "components": [
            {
              "internalType": "address",
              "name": "market",
              "type": "address"
            },
            {
              "internalType": "bool",
              "name": "isLong",
              "type": "bool"
            },
            {
              "internalType": "uint32",
              "name": "lastTime",
              "type": "uint32"
            },
            {
              "internalType": "uint216",
              "name": "extra3",
              "type": "uint216"
            },
            {
              "internalType": "uint256",
              "name": "size",
              "type": "uint256"
            },
            {
              "internalType": "uint256",
              "name": "collateral",
              "type": "uint256"
            },
            {
              "internalType": "uint256",
              "name": "averagePrice",
              "type": "uint256"
            },
            {
              "internalType": "int256",
              "name": "entryFundingRate",
              "type": "int256"
            },
            {
              "internalType": "int256",
              "name": "realisedPnl",
              "type": "int256"
            },
            {
              "internalType": "uint256",
              "name": "extra0",
              "type": "uint256"
            },
            {
              "internalType": "uint256",
              "name": "extra1",
              "type": "uint256"
            },
            {
              "internalType": "uint256",
              "name": "extra2",
              "type": "uint256"
            }
          ],
          "internalType": "struct Position.Props",
          "name": "position",
          "type": "tuple"
        }
      ],
      "name": "getFees",
      "outputs": [
        {
          "internalType": "int256[]",
          "name": "fees",
          "type": "int256[]"
        }
      ],
      "stateMutability": "view",
      "type": "function"
    },
    {
      "inputs": [
        {
          "internalType": "address",
          "name": "market",
          "type": "address"
        },
        {
          "internalType": "bool",
          "name": "isLong",
          "type": "bool"
        }
      ],
      "name": "getFundingRate",
      "outputs": [
        {
          "internalType": "int256",
          "name": "",
          "type": "int256"
        }
      ],
      "stateMutability": "view",
      "type": "function"
    },
    {
      "inputs": [
        {
          "components": [
            {
              "internalType": "address",
              "name": "_market",
              "type": "address"
            },
            {
              "internalType": "bool",
              "name": "_isLong",
              "type": "bool"
            },
            {
              "internalType": "uint256",
              "name": "_oraclePrice",
              "type": "uint256"
            },
            {
              "internalType": "bool",
              "name": "isOpen",
              "type": "bool"
            },
            {
              "internalType": "bool",
              "name": "isCreate",
              "type": "bool"
            },
            {
              "components": [
                {
                  "internalType": "uint8",
                  "name": "version",
                  "type": "uint8"
                },
                {
                  "internalType": "uint32",
                  "name": "updatedAtBlock",
                  "type": "uint32"
                },
                {
                  "internalType": "uint8",
                  "name": "triggerAbove",
                  "type": "uint8"
                },
                {
                  "internalType": "address",
                  "name": "account",
                  "type": "address"
                },
                {
                  "internalType": "uint48",
                  "name": "extra3",
                  "type": "uint48"
                },
                {
                  "internalType": "uint128",
                  "name": "collateral",
                  "type": "uint128"
                },
                {
                  "internalType": "uint128",
                  "name": "size",
                  "type": "uint128"
                },
                {
                  "internalType": "uint128",
                  "name": "price",
                  "type": "uint128"
                },
                {
                  "internalType": "uint128",
                  "name": "extra1",
                  "type": "uint128"
                },
                {
                  "internalType": "uint64",
                  "name": "orderID",
                  "type": "uint64"
                },
                {
                  "internalType": "uint64",
                  "name": "extra2",
                  "type": "uint64"
                },
                {
                  "internalType": "uint128",
                  "name": "extra0",
                  "type": "uint128"
                },
                {
                  "internalType": "bytes32",
                  "name": "refCode",
                  "type": "bytes32"
                }
              ],
              "internalType": "struct Order.Props",
              "name": "_order",
              "type": "tuple"
            },
            {
              "internalType": "uint256[]",
              "name": "inputs",
              "type": "uint256[]"
            }
          ],
          "internalType": "struct MarketDataTypes.UpdateOrderInputs",
          "name": "params",
          "type": "tuple"
        }
      ],
      "name": "getOrderFees",
      "outputs": [
        {
          "internalType": "int256",
          "name": "fees",
          "type": "int256"
        }
      ],
      "stateMutability": "view",
      "type": "function"
    },
    {
      "inputs": [
        {
          "internalType": "bytes32",
          "name": "role",
          "type": "bytes32"
        }
      ],
      "name": "getRoleAdmin",
      "outputs": [
        {
          "internalType": "bytes32",
          "name": "",
          "type": "bytes32"
        }
      ],
      "stateMutability": "view",
      "type": "function"
    },
    {
      "inputs": [
        {
          "internalType": "address",
          "name": "_account",
          "type": "address"
        }
      ],
      "name": "grantControllerRoleByMarketManager",
      "outputs": [],
      "stateMutability": "nonpayable",
      "type": "function"
    },
    {
      "inputs": [
        {
          "internalType": "bytes32",
          "name": "role",
          "type": "bytes32"
        },
        {
          "internalType": "address",
          "name": "account",
          "type": "address"
        }
      ],
      "name": "grantRole",
      "outputs": [],
      "stateMutability": "nonpayable",
      "type": "function"
    },
    {
      "inputs": [
        {
          "internalType": "bytes32",
          "name": "role",
          "type": "bytes32"
        },
        {
          "internalType": "address",
          "name": "account",
          "type": "address"
        }
      ],
      "name": "hasRole",
      "outputs": [
        {
          "internalType": "bool",
          "name": "",
          "type": "bool"
        }
      ],
      "stateMutability": "view",
      "type": "function"
    },
    {
      "inputs": [
        {
          "internalType": "address",
          "name": "vault",
          "type": "address"
        },
        {
          "internalType": "address",
          "name": "fundingFee",
          "type": "address"
        }
      ],
      "name": "initialize",
      "outputs": [],
      "stateMutability": "nonpayable",
      "type": "function"
    },
    {
      "inputs": [],
      "name": "owner",
      "outputs": [
        {
          "internalType": "address",
          "name": "",
          "type": "address"
        }
      ],
      "stateMutability": "view",
      "type": "function"
    },
    {
      "inputs": [
        {
          "internalType": "address",
          "name": "account",
          "type": "address"
        },
        {
          "internalType": "address",
          "name": "token",
          "type": "address"
        },
        {
          "internalType": "int256[]",
          "name": "fees",
          "type": "int256[]"
        },
        {
          "internalType": "uint256",
          "name": "feesTotal",
          "type": "uint256"
        }
      ],
      "name": "payoutFees",
      "outputs": [],
      "stateMutability": "nonpayable",
      "type": "function"
    },
    {
      "inputs": [],
      "name": "renounceOwnership",
      "outputs": [],
      "stateMutability": "nonpayable",
      "type": "function"
    },
    {
      "inputs": [
        {
          "internalType": "bytes32",
          "name": "role",
          "type": "bytes32"
        },
        {
          "internalType": "address",
          "name": "account",
          "type": "address"
        }
      ],
      "name": "renounceRole",
      "outputs": [],
      "stateMutability": "nonpayable",
      "type": "function"
    },
    {
      "inputs": [
        {
          "internalType": "bytes32",
          "name": "role",
          "type": "bytes32"
        },
        {
          "internalType": "address",
          "name": "account",
          "type": "address"
        }
      ],
      "name": "revokeRole",
      "outputs": [],
      "stateMutability": "nonpayable",
      "type": "function"
    },
    {
      "inputs": [
        {
          "internalType": "address",
          "name": "market",
          "type": "address"
        },
        {
          "internalType": "uint256[]",
          "name": "rates",
          "type": "uint256[]"
        }
      ],
      "name": "setFeeAndRates",
      "outputs": [],
      "stateMutability": "nonpayable",
      "type": "function"
    },
    {
      "inputs": [
        {
          "internalType": "address",
          "name": "vault",
          "type": "address"
        }
      ],
      "name": "setFeeVault",
      "outputs": [],
      "stateMutability": "nonpayable",
      "type": "function"
    },
    {
      "inputs": [
        {
          "internalType": "address",
          "name": "fundingFee",
          "type": "address"
        }
      ],
      "name": "setFundFee",
      "outputs": [],
      "stateMutability": "nonpayable",
      "type": "function"
    },
    {
      "inputs": [
        {
          "internalType": "bytes4",
          "name": "interfaceId",
          "type": "bytes4"
        }
      ],
      "name": "supportsInterface",
      "outputs": [
        {
          "internalType": "bool",
          "name": "",
          "type": "bool"
        }
      ],
      "stateMutability": "view",
      "type": "function"
    },
    {
      "inputs": [
        {
          "internalType": "address",
          "name": "to",
          "type": "address"
        }
      ],
      "name": "transferAdmin",
      "outputs": [],
      "stateMutability": "nonpayable",
      "type": "function"
    },
    {
      "inputs": [
        {
          "internalType": "address",
          "name": "newOwner",
          "type": "address"
        }
      ],
      "name": "transferOwnership",
      "outputs": [],
      "stateMutability": "nonpayable",
      "type": "function"
    },
    {
      "inputs": [
        {
          "internalType": "address",
          "name": "market",
          "type": "address"
        },
        {
          "internalType": "uint256",
          "name": "longSize",
          "type": "uint256"
        },
        {
          "internalType": "uint256",
          "name": "shortSize",
          "type": "uint256"
        }
      ],
      "name": "updateCumulativeFundingRate",
      "outputs": [],
      "stateMutability": "nonpayable",
      "type": "function"
    },
    {
      "inputs": [
        {
          "internalType": "address",
          "name": "token",
          "type": "address"
        },
        {
          "internalType": "address",
          "name": "to",
          "type": "address"
        },
        {
          "internalType": "uint256",
          "name": "amount",
          "type": "uint256"
        }
      ],
      "name": "withdraw",
      "outputs": [],
      "stateMutability": "nonpayable",
      "type": "function"
    }
  ],
  "bytecode": "0x60806040523480156200001157600080fd5b5060405162002cc338038062002cc383398101604081905262000034916200022a565b806200004033620000ff565b62000056816200015160201b620010c71760201c565b506001600160a01b038116620000a45760405162461bcd60e51b815260206004820152600f60248201526e696e76616c6964206164647265737360881b604482015260640160405180910390fd5b600580546001600160a01b0319166001600160a01b038316179055620000cc6000336200017d565b620000f87f241ecf16d79d0f8dbfb92cbc07fe17840425976cf0667f022fe9877caa831b08336200017d565b506200025c565b600180546001600160a01b038381166001600160a01b0319831681179093556040519116919082907f8be0079c531659141344cd1fd0a4f28419497f9722a3daafe3b4186f6b6457e090600090a35050565b426002556200016033620000ff565b6200016d6000336200021e565b6200017a6000826200021e565b50565b6000828152602081815260408083206001600160a01b038516845290915290205460ff166200021a576000828152602081815260408083206001600160a01b03851684529091529020805460ff19166001179055620001d93390565b6001600160a01b0316816001600160a01b0316837f2f8788117e7eff1d82e926ec794901d17c78024a50270940304540a733656f0d60405160405180910390a45b5050565b6200021a82826200017d565b6000602082840312156200023d57600080fd5b81516001600160a01b03811681146200025557600080fd5b9392505050565b612a57806200026c6000396000f3fe608060405234801561001057600080fd5b50600436106101e55760003560e01c80637fe4a6981161010f578063c8830bf5116100a2578063d9caed1211610071578063d9caed1214610467578063e50f19ef1461047a578063f2fde38b1461048d578063f4ca4d1d146104a057600080fd5b8063c8830bf514610403578063c9cf9f3a14610416578063d547741f14610429578063d87780681461043c57600080fd5b8063a217fddf116100de578063a217fddf146103c2578063a591f97f146103ca578063c45a0155146103dd578063c6f83ad1146103f057600080fd5b80637fe4a698146103785780638da5cb5b1461038b57806391d148541461039c578063966ace28146103af57600080fd5b806334f32e2511610187578063485cc95511610156578063485cc95514610337578063715018a61461034a57806375829def146103525780637dd490231461036557600080fd5b806334f32e25146102de57806336568abe146102f15780634151026314610304578063478222c21461032457600080fd5b806320981df4116101c357806320981df41461026a578063248a9ca31461027d5780632f2ff15d146102a057806333abd028146102b357600080fd5b806301ffc9a7146101ea57806309d39897146102125780631a6ca80914610255575b600080fd5b6101fd6101f8366004611c4d565b6104a8565b60405190151581526020015b60405180910390f35b610247610220366004611c9c565b6001600160a01b031660009081526006602090815260408083206003845290915290205490565b604051908152602001610209565b610268610263366004611e40565b6104df565b005b610247610278366004611ec2565b61067b565b61024761028b366004611efb565b60009081526020819052604090206001015490565b6102686102ae366004611f14565b6106ff565b6004546102c6906001600160a01b031681565b6040516001600160a01b039091168152602001610209565b6102476102ec366004611ec2565b610729565b6102686102ff366004611f14565b610764565b610317610312366004612045565b6107e2565b60405161020991906121ce565b6003546102c6906001600160a01b031681565b6102686103453660046121e1565b61080b565b6102686109ee565b610268610360366004611c9c565b610a02565b61026861037336600461220f565b610a2c565b610268610386366004611c9c565b610bfb565b6001546001600160a01b03166102c6565b6101fd6103aa366004611f14565b610c25565b6102686103bd366004611e40565b610c4e565b610247600081565b6102686103d8366004611c9c565b610cb5565b6005546102c6906001600160a01b031681565b6102686103fe36600461225e565b610d4a565b6102476104113660046123ba565b610e04565b610268610424366004611c9c565b610e85565b610268610437366004611f14565b610f1a565b61024761044a366004612488565b600660209081526000928352604080842090915290825290205481565b6102686104753660046124b4565b610f3f565b6102686104883660046124f5565b610fdd565b61026861049b366004611c9c565b61103f565b6102476110b8565b60006001600160e01b03198216637965db0b60e01b14806104d957506301ffc9a760e01b6001600160e01b03198316145b92915050565b6104e8336110ea565b8061051857506105187fcb58d6d985142a614029cdf01861b4fe094d5919a47e69b8310dc4093d9d6ad033610c25565b61053d5760405162461bcd60e51b815260040161053490612556565b60405180910390fd5b6003546040516370a0823160e01b81526001600160a01b0391821660048201526000918516906370a0823190602401602060405180830381865afa158015610589573d6000803e3d6000fd5b505050506040513d601f19601f820116820180604052508101906105ad919061258d565b9050818111156105ba5750805b600354604051636ce5768960e11b81526001600160a01b038681166004830152336024830152604482018490529091169063d9caed12906064015b600060405180830381600087803b15801561060f57600080fd5b505af1158015610623573d6000803e3d6000fd5b50505050336001600160a01b0316856001600160a01b03167f51b85031527a935663233d62a057687d039b9fbcd79c55e46a5b24510159336f858460405161066c9291906125a6565b60405180910390a35050505050565b60048054604051630826077d60e21b81526001600160a01b03858116938201939093528315156024820152600092909116906320981df4906044015b602060405180830381865afa1580156106d4573d6000803e3d6000fd5b505050506040513d601f19601f820116820180604052508101906106f8919061258d565b9392505050565b60008281526020819052604090206001015461071a81611216565b6107248383611220565b505050565b6003546040516334f32e2560e01b81526001600160a01b038481166004830152831515602483015260009216906334f32e25906044016106b7565b6001600160a01b03811633146107d45760405162461bcd60e51b815260206004820152602f60248201527f416363657373436f6e74726f6c3a2063616e206f6e6c792072656e6f756e636560448201526e103937b632b9903337b91039b2b63360891b6064820152608401610534565b6107de82826112a4565b5050565b60606106f8836108048560000151866020015186608001518760e00151611309565b600661139e565b600154600160a81b900460ff1615808015610831575060018054600160a01b900460ff16105b806108515750303b158015610851575060018054600160a01b900460ff16145b6108b45760405162461bcd60e51b815260206004820152602e60248201527f496e697469616c697a61626c653a20636f6e747261637420697320616c72656160448201526d191e481a5b9a5d1a585b1a5e995960921b6064820152608401610534565b6001805460ff60a01b1916600160a01b17905580156108e1576001805460ff60a81b1916600160a81b1790555b6001600160a01b03831661092b5760405162461bcd60e51b81526020600482015260116024820152701a5b9d985b1a5908199959481d985d5b1d607a1b6044820152606401610534565b6001600160a01b0382166109735760405162461bcd60e51b815260206004820152600f60248201526e696e76616c69642066756e6446656560881b6044820152606401610534565b600380546001600160a01b038086166001600160a01b03199283161790925560048054928516929091169190911790558015610724576001805460ff60a81b191681556040519081527f7f26b83ff96e1f2b6a682f133852f6798a09c465da95921460cefb38474024989060200160405180910390a1505050565b6109f661154e565b610a0060006115a8565b565b6000610a0d81611216565b610a186000836115fa565b610a21826115a8565b6107de6000336112a4565b7f8d1089725c0dc266707fa6207730fb801dcd03108bfed7a21099bd303651d2b76000610a598133610c25565b90508015610ab65762093a8060025442610a7391906125de565b10610ab15760405162461bcd60e51b815260206004820152600e60248201526d1858c81d1a5b59481c185cdcd95960921b6044820152606401610534565b610ac0565b610ac08233611604565b6000835111610b025760405162461bcd60e51b815260206004820152600e60248201526d696e76616c696420706172616d7360901b6044820152606401610534565b60005b83518160ff161015610bf4576000848260ff1681518110610b2857610b286125f1565b60200260200101519050848260ff1681518110610b4757610b476125f1565b6020908102919091018101516001600160a01b038816600081815260068452604080822060ff88168084529552902091909155865190917f8e26fb53d63c548677b068d08742bea435b6ecb7911ab3c5ad68fbccddeaf5fe91859185918a91908110610bb557610bb56125f1565b6020908102919091018101516040805160ff90951685529184019290925282015260600160405180910390a25080610bec81612607565b915050610b05565b5050505050565b7f8d1089725c0dc266707fa6207730fb801dcd03108bfed7a21099bd303651d2b76101e581611216565b6000918252602082815260408084206001600160a01b0393909316845291905290205460ff1690565b610c57336110ea565b80610c875750610c877fcb58d6d985142a614029cdf01861b4fe094d5919a47e69b8310dc4093d9d6ad033610c25565b610ca35760405162461bcd60e51b815260040161053490612556565b610caf8484848461165d565b50505050565b610cde7f241ecf16d79d0f8dbfb92cbc07fe17840425976cf0667f022fe9877caa831b08611216565b6001600160a01b038116610d285760405162461bcd60e51b81526020600482015260116024820152701a5b9d985b1a5908199959481d985d5b1d607a1b6044820152606401610534565b600380546001600160a01b0319166001600160a01b0392909216919091179055565b610d53336110ea565b610d905760405162461bcd60e51b815260206004820152600e60248201526d1a5b9d985b1a59081b585c9ad95d60921b6044820152606401610534565b6004805460405163c6f83ad160e01b81526001600160a01b0386811693820193909352602481018590526044810184905291169063c6f83ad190606401600060405180830381600087803b158015610de757600080fd5b505af1158015610dfb573d6000803e3d6000fd5b50505050505050565b600080826060015115610e1957506000610e1d565b5060015b6000610e4184600001518560a0015160c001516001600160801b0316846006611775565b84516001600160a01b0316600090815260066020908152604080832060038452909152902054909150610e7c610e778284612626565b61180a565b95945050505050565b610eae7f241ecf16d79d0f8dbfb92cbc07fe17840425976cf0667f022fe9877caa831b08611216565b6004546001600160a01b0316610ef85760405162461bcd60e51b815260206004820152600f60248201526e696e76616c69642066756e6446656560881b6044820152606401610534565b600480546001600160a01b0319166001600160a01b0392909216919091179055565b600082815260208190526040902060010154610f3581611216565b61072483836112a4565b7f5d8e12c39142ff96d79d04d15d1ba1269e4fe57bb9d26f43523628b34ba108ec610f6981611216565b600354604051636ce5768960e11b81526001600160a01b0386811660048301528581166024830152604482018590529091169063d9caed1290606401600060405180830381600087803b158015610fbf57600080fd5b505af1158015610fd3573d6000803e3d6000fd5b5050505050505050565b610fe6336110ea565b8061101657506110167fcb58d6d985142a614029cdf01861b4fe094d5919a47e69b8310dc4093d9d6ad033610c25565b6110325760405162461bcd60e51b815260040161053490612556565b610724838383600061165d565b61104761154e565b6001600160a01b0381166110ac5760405162461bcd60e51b815260206004820152602660248201527f4f776e61626c653a206e6577206f776e657220697320746865207a65726f206160448201526564647265737360d01b6064820152608401610534565b6110b5816115a8565b50565b6110c46008600a61271d565b81565b426002556110d4336115a8565b6110df6000336115fa565b6110b56000826115fa565b600080600560009054906101000a90046001600160a01b03166001600160a01b031663ec2c90166040518163ffffffff1660e01b8152600401600060405180830381865afa158015611140573d6000803e3d6000fd5b505050506040513d6000823e601f3d908101601f191682016040526111689190810190612763565b805190915060005b8181101561120b5782818151811061118a5761118a6125f1565b6020026020010151602001516001600160a01b0316856001600160a01b0316036111f9578281815181106111c0576111c06125f1565b60200260200101516060015180610e7c57508281815181106111e4576111e46125f1565b60200260200101516080015195945050505050565b80611203816128d7565b915050611170565b506000949350505050565b6110b58133611604565b61122a8282610c25565b6107de576000828152602081815260408083206001600160a01b03851684529091529020805460ff191660011790556112603390565b6001600160a01b0316816001600160a01b0316837f2f8788117e7eff1d82e926ec794901d17c78024a50270940304540a733656f0d60405160405180910390a45050565b6112ae8282610c25565b156107de576000828152602081815260408083206001600160a01b0385168085529252808320805460ff1916905551339285917ff6391f5c32d9c69d2a47ea670b442974b53935d1edc7fd64eb21e047a839171b9190a45050565b6004805460405163478c57cd60e11b81526001600160a01b03878116938201939093526024810185905260448101849052851515606482015260009290911690638f18af9a90608401602060405180830381865afa15801561136f573d6000803e3d6000fd5b505050506040513d601f19601f82011682018060405250810190611393919061258d565b90505b949350505050565b60408051600c8082526101a0820190925260609160208201610180803683370190505084519091508382600260ff16815181106113dd576113dd6125f1565b602090810291909101015260a08501511580156113fe575061018085015115155b1561140957506106f8565b84606001511561144e5760a085015161142790829060005b86611775565b82600060ff168151811061143d5761143d6125f1565b6020026020010181815250506114db565b60a08501516114609082906001611421565b82600160ff1681518110611476576114766125f1565b60200260200101818152505084610120015160ff166001036114db576001600160a01b038116600090815260208481526040808320600480855292529091205483519091829185919081106114cd576114cd6125f1565b602002602001018181525050505b6101a085015160ff1615611546576001600160a01b038116600090815260208481526040808320600384529091529020546101a086015161151f9060ff16826128f0565b90508083600360ff1681518110611538576115386125f1565b602002602001018181525050505b509392505050565b6001546001600160a01b03163314610a005760405162461bcd60e51b815260206004820181905260248201527f4f776e61626c653a2063616c6c6572206973206e6f7420746865206f776e65726044820152606401610534565b600180546001600160a01b038381166001600160a01b0319831681179093556040519116919082907f8be0079c531659141344cd1fd0a4f28419497f9722a3daafe3b4186f6b6457e090600090a35050565b6107de8282611220565b61160e8282610c25565b6107de5761161b81611878565b61162683602061188a565b604051602001611637929190612907565b60408051601f198184030181529082905262461bcd60e51b82526105349160040161297c565b604051636eb1769f60e11b81523360048201523060248201526000906001600160a01b0385169063dd62ed3e90604401602060405180830381865afa1580156116aa573d6000803e3d6000fd5b505050506040513d601f19601f820116820180604052508101906116ce919061258d565b905080156116f2576003546116f2906001600160a01b038681169133911684611a25565b8115611730576004805460405163d6f5066b60e01b81523392810192909252602482018490526001600160a01b03169063d6f5066b906044016105f5565b336001600160a01b0316856001600160a01b03167f51b85031527a935663233d62a057687d039b9fbcd79c55e46a5b24510159336f858460405161066c9291906125a6565b60008360000361178757506000611396565b6001600160a01b03851660009081526020838152604080832060ff87168452909152812054908190036117ba5750620186a05b60006117c86008600a61271d565b826117d56008600a61271d565b6117df91906125de565b6117e990886128f0565b6117f391906129af565b90506117ff81876125de565b979650505050505050565b60006001600160ff1b038211156118745760405162461bcd60e51b815260206004820152602860248201527f53616665436173743a2076616c756520646f65736e27742066697420696e2061604482015267371034b73a191a9b60c11b6064820152608401610534565b5090565b60606104d96001600160a01b03831660145b606060006118998360026128f0565b6118a4906002612626565b6001600160401b038111156118bb576118bb611cb9565b6040519080825280601f01601f1916602001820160405280156118e5576020820181803683370190505b509050600360fc1b81600081518110611900576119006125f1565b60200101906001600160f81b031916908160001a905350600f60fb1b8160018151811061192f5761192f6125f1565b60200101906001600160f81b031916908160001a90535060006119538460026128f0565b61195e906001612626565b90505b60018111156119d6576f181899199a1a9b1b9c1cb0b131b232b360811b85600f1660108110611992576119926125f1565b1a60f81b8282815181106119a8576119a86125f1565b60200101906001600160f81b031916908160001a90535060049490941c936119cf816129d1565b9050611961565b5083156106f85760405162461bcd60e51b815260206004820181905260248201527f537472696e67733a20686578206c656e67746820696e73756666696369656e746044820152606401610534565b604080516001600160a01b038581166024830152848116604483015260648083018590528351808403909101815260849092018352602080830180516001600160e01b03166323b872dd60e01b17905283518085019094528084527f5361666545524332303a206c6f772d6c6576656c2063616c6c206661696c656490840152610caf92879291600091611abd918516908490611b3a565b8051909150156107245780806020019051810190611adb91906129e8565b6107245760405162461bcd60e51b815260206004820152602a60248201527f5361666545524332303a204552433230206f7065726174696f6e20646964206e6044820152691bdd081cdd58d8d9595960b21b6064820152608401610534565b6060611396848460008585600080866001600160a01b03168587604051611b619190612a05565b60006040518083038185875af1925050503d8060008114611b9e576040519150601f19603f3d011682016040523d82523d6000602084013e611ba3565b606091505b50915091506117ff8783838760608315611c1e578251600003611c17576001600160a01b0385163b611c175760405162461bcd60e51b815260206004820152601d60248201527f416464726573733a2063616c6c20746f206e6f6e2d636f6e74726163740000006044820152606401610534565b5081611396565b6113968383815115611c335781518083602001fd5b8060405162461bcd60e51b8152600401610534919061297c565b600060208284031215611c5f57600080fd5b81356001600160e01b0319811681146106f857600080fd5b6001600160a01b03811681146110b557600080fd5b8035611c9781611c77565b919050565b600060208284031215611cae57600080fd5b81356106f881611c77565b634e487b7160e01b600052604160045260246000fd5b60405161018081016001600160401b0381118282101715611cf257611cf2611cb9565b60405290565b6040516101e081016001600160401b0381118282101715611cf257611cf2611cb9565b6040516101a081016001600160401b0381118282101715611cf257611cf2611cb9565b60405160e081016001600160401b0381118282101715611cf257611cf2611cb9565b60405160a081016001600160401b0381118282101715611cf257611cf2611cb9565b604051601f8201601f191681016001600160401b0381118282101715611daa57611daa611cb9565b604052919050565b60006001600160401b03821115611dcb57611dcb611cb9565b5060051b60200190565b600082601f830112611de657600080fd5b81356020611dfb611df683611db2565b611d82565b82815260059290921b84018101918181019086841115611e1a57600080fd5b8286015b84811015611e355780358352918301918301611e1e565b509695505050505050565b60008060008060808587031215611e5657600080fd5b8435611e6181611c77565b93506020850135611e7181611c77565b925060408501356001600160401b03811115611e8c57600080fd5b611e9887828801611dd5565b949793965093946060013593505050565b80151581146110b557600080fd5b8035611c9781611ea9565b60008060408385031215611ed557600080fd5b8235611ee081611c77565b91506020830135611ef081611ea9565b809150509250929050565b600060208284031215611f0d57600080fd5b5035919050565b60008060408385031215611f2757600080fd5b823591506020830135611ef081611c77565b803560ff81168114611c9757600080fd5b80356001600160401b0381168114611c9757600080fd5b803563ffffffff81168114611c9757600080fd5b80356001600160d81b0381168114611c9757600080fd5b60006101808284031215611f9f57600080fd5b611fa7611ccf565b9050611fb282611c8c565b8152611fc060208301611eb7565b6020820152611fd160408301611f61565b6040820152611fe260608301611f75565b60608201526080820135608082015260a082013560a082015260c082013560c082015260e082013560e082015261010080830135818301525061012080830135818301525061014080830135818301525061016080830135818301525092915050565b6000806101a080848603121561205a57600080fd5b83356001600160401b038082111561207157600080fd5b908501906101e0828803121561208657600080fd5b61208e611cf8565b61209783611c8c565b81526120a560208401611eb7565b6020820152604083013560408201526120c060608401611eb7565b60608201526120d160808401611c8c565b608082015260a083013560a082015260c083013560c082015260e083013560e0820152610100612102818501611eb7565b90820152610120612114848201611f39565b90820152610140612126848201611f4a565b908201526101608381013590820152610180808401359082015261214b848401611f39565b848201526101c09350838301358281111561216557600080fd5b61217189828601611dd5565b85830152508095505050505061218a8460208501611f8c565b90509250929050565b600081518084526020808501945080840160005b838110156121c3578151875295820195908201906001016121a7565b509495945050505050565b6020815260006106f86020830184612193565b600080604083850312156121f457600080fd5b82356121ff81611c77565b91506020830135611ef081611c77565b6000806040838503121561222257600080fd5b823561222d81611c77565b915060208301356001600160401b0381111561224857600080fd5b61225485828601611dd5565b9150509250929050565b60008060006060848603121561227357600080fd5b833561227e81611c77565b95602085013595506040909401359392505050565b803565ffffffffffff81168114611c9757600080fd5b80356001600160801b0381168114611c9757600080fd5b60006101a082840312156122d357600080fd5b6122db611d1b565b90506122e682611f39565b81526122f460208301611f61565b602082015261230560408301611f39565b604082015261231660608301611c8c565b606082015261232760808301612293565b608082015261233860a083016122a9565b60a082015261234960c083016122a9565b60c082015261235a60e083016122a9565b60e082015261010061236d8184016122a9565b9082015261012061237f838201611f4a565b90820152610140612391838201611f4a565b908201526101606123a38382016122a9565b818301525061018080830135818301525092915050565b6000602082840312156123cc57600080fd5b81356001600160401b03808211156123e357600080fd5b9083019061026082860312156123f857600080fd5b612400611d3e565b61240983611c8c565b815261241760208401611eb7565b60208201526040830135604082015261243260608401611eb7565b606082015261244360808401611eb7565b60808201526124558660a085016122c0565b60a08201526102408301358281111561246d57600080fd5b61247987828601611dd5565b60c08301525095945050505050565b6000806040838503121561249b57600080fd5b82356124a681611c77565b915061218a60208401611f39565b6000806000606084860312156124c957600080fd5b83356124d481611c77565b925060208401356124e481611c77565b929592945050506040919091013590565b60008060006060848603121561250a57600080fd5b833561251581611c77565b9250602084013561252581611c77565b915060408401356001600160401b0381111561254057600080fd5b61254c86828701611dd5565b9150509250925092565b60208082526018908201527f666565526f757465723a206163636573732064656e6965640000000000000000604082015260600190565b60006020828403121561259f57600080fd5b5051919050565b6040815260006125b96040830185612193565b90508260208301529392505050565b634e487b7160e01b600052601160045260246000fd5b818103818111156104d9576104d96125c8565b634e487b7160e01b600052603260045260246000fd5b600060ff821660ff810361261d5761261d6125c8565b60010192915050565b808201808211156104d9576104d96125c8565b600181815b8085111561267457816000190482111561265a5761265a6125c8565b8085161561266757918102915b93841c939080029061263e565b509250929050565b60008261268b575060016104d9565b81612698575060006104d9565b81600181146126ae57600281146126b8576126d4565b60019150506104d9565b60ff8411156126c9576126c96125c8565b50506001821b6104d9565b5060208310610133831016604e8410600b84101617156126f7575081810a6104d9565b6127018383612639565b8060001904821115612715576127156125c8565b029392505050565b60006106f8838361267c565b60005b8381101561274457818101518382015260200161272c565b50506000910152565b8051611c9781611c77565b8051611c9781611ea9565b6000602080838503121561277657600080fd5b82516001600160401b038082111561278d57600080fd5b818501915085601f8301126127a157600080fd5b81516127af611df682611db2565b81815260059190911b830184019084810190888311156127ce57600080fd5b8585015b838110156128ca578051858111156127e957600080fd5b8601601f1960a0828d03820112156128015760008081fd5b612809611d60565b898301518881111561281b5760008081fd5b8301603f81018e1361282d5760008081fd5b8a81015160408a82111561284357612843611cb9565b6128538d86601f85011601611d82565b94508185528f8183850101111561286a5760008081fd5b612879828e8701838601612729565b84845261288781870161274d565b8d85015260609450848601518185015250505060806128a7818501612758565b838301526128b760a08501612758565b90820152855250509186019186016127d2565b5098975050505050505050565b6000600182016128e9576128e96125c8565b5060010190565b80820281158282048414176104d9576104d96125c8565b7f416363657373436f6e74726f6c3a206163636f756e742000000000000000000081526000835161293f816017850160208801612729565b7001034b99036b4b9b9b4b733903937b6329607d1b6017918401918201528351612970816028840160208801612729565b01602801949350505050565b602081526000825180602084015261299b816040850160208701612729565b601f01601f19169190910160400192915050565b6000826129cc57634e487b7160e01b600052601260045260246000fd5b500490565b6000816129e0576129e06125c8565b506000190190565b6000602082840312156129fa57600080fd5b81516106f881611ea9565b60008251612a17818460208701612729565b919091019291505056fea26469706673582212204cb228dc1d100bf1297803b9a5907bfd5f4658155878554f1f80f1e97587cd9e64736f6c63430008110033",
  "linkReferences": {},
  "deployedLinkReferences": {}
}