{
  "_format": "hh-sol-artifact-1",
  "contractName": "FeeRouter",
  "sourceName": "contracts/fee/FeeRouter.sol",
  "abi": [
    {
      "inputs": [
        {
          "internalType": "address",
          "name": "_factory",
          "type": "address"
        }
      ],
      "stateMutability": "nonpayable",
      "type": "constructor"
    },
    {
      "anonymous": false,
      "inputs": [
        {
          "indexed": false,
          "internalType": "uint8",
          "name": "version",
          "type": "uint8"
        }
      ],
      "name": "Initialized",
      "type": "event"
    },
    {
      "anonymous": false,
      "inputs": [
        {
          "indexed": true,
          "internalType": "address",
          "name": "previousOwner",
          "type": "address"
        },
        {
          "indexed": true,
          "internalType": "address",
          "name": "newOwner",
          "type": "address"
        }
      ],
      "name": "OwnershipTransferred",
      "type": "event"
    },
    {
      "anonymous": false,
      "inputs": [
        {
          "indexed": true,
          "internalType": "bytes32",
          "name": "role",
          "type": "bytes32"
        },
        {
          "indexed": true,
          "internalType": "bytes32",
          "name": "previousAdminRole",
          "type": "bytes32"
        },
        {
          "indexed": true,
          "internalType": "bytes32",
          "name": "newAdminRole",
          "type": "bytes32"
        }
      ],
      "name": "RoleAdminChanged",
      "type": "event"
    },
    {
      "anonymous": false,
      "inputs": [
        {
          "indexed": true,
          "internalType": "bytes32",
          "name": "role",
          "type": "bytes32"
        },
        {
          "indexed": true,
          "internalType": "address",
          "name": "account",
          "type": "address"
        },
        {
          "indexed": true,
          "internalType": "address",
          "name": "sender",
          "type": "address"
        }
      ],
      "name": "RoleGranted",
      "type": "event"
    },
    {
      "anonymous": false,
      "inputs": [
        {
          "indexed": true,
          "internalType": "bytes32",
          "name": "role",
          "type": "bytes32"
        },
        {
          "indexed": true,
          "internalType": "address",
          "name": "account",
          "type": "address"
        },
        {
          "indexed": true,
          "internalType": "address",
          "name": "sender",
          "type": "address"
        }
      ],
      "name": "RoleRevoked",
      "type": "event"
    },
    {
      "anonymous": false,
      "inputs": [
        {
          "indexed": true,
          "internalType": "address",
          "name": "account",
          "type": "address"
        },
        {
          "indexed": true,
          "internalType": "address",
          "name": "market",
          "type": "address"
        },
        {
          "indexed": false,
          "internalType": "int256[]",
          "name": "fees",
          "type": "int256[]"
        },
        {
          "indexed": false,
          "internalType": "uint256",
          "name": "amount",
          "type": "uint256"
        }
      ],
      "name": "UpdateFee",
      "type": "event"
    },
    {
      "anonymous": false,
      "inputs": [
        {
          "indexed": true,
          "internalType": "address",
          "name": "market",
          "type": "address"
        },
        {
          "indexed": false,
          "internalType": "uint8",
          "name": "kind",
          "type": "uint8"
        },
        {
          "indexed": false,
          "internalType": "uint256",
          "name": "oldFeeOrRate",
          "type": "uint256"
        },
        {
          "indexed": false,
          "internalType": "uint256",
          "name": "feeOrRate",
          "type": "uint256"
        }
      ],
      "name": "UpdateFeeAndRates",
      "type": "event"
    },
    {
      "inputs": [],
      "name": "DEFAULT_ADMIN_ROLE",
      "outputs": [
        {
          "internalType": "bytes32",
          "name": "",
          "type": "bytes32"
        }
      ],
      "stateMutability": "view",
      "type": "function"
    },
    {
      "inputs": [],
      "name": "FEE_RATE_PRECISION",
      "outputs": [
        {
          "internalType": "uint256",
          "name": "",
          "type": "uint256"
        }
      ],
      "stateMutability": "view",
      "type": "function"
    },
    {
      "inputs": [
        {
          "internalType": "address",
          "name": "account",
          "type": "address"
        },
        {
          "internalType": "address",
          "name": "token",
          "type": "address"
        },
        {
          "internalType": "int256[]",
          "name": "fees",
          "type": "int256[]"
        }
      ],
      "name": "collectFees",
      "outputs": [],
      "stateMutability": "nonpayable",
      "type": "function"
    },
    {
      "inputs": [
        {
          "internalType": "address",
          "name": "market",
          "type": "address"
        },
        {
          "internalType": "bool",
          "name": "isLong",
          "type": "bool"
        }
      ],
      "name": "cumulativeFundingRates",
      "outputs": [
        {
          "internalType": "int256",
          "name": "",
          "type": "int256"
        }
      ],
      "stateMutability": "view",
      "type": "function"
    },
    {
      "inputs": [],
      "name": "factory",
      "outputs": [
        {
          "internalType": "address",
          "name": "",
          "type": "address"
        }
      ],
      "stateMutability": "view",
      "type": "function"
    },
    {
      "inputs": [
        {
          "internalType": "address",
          "name": "",
          "type": "address"
        },
        {
          "internalType": "uint8",
          "name": "",
          "type": "uint8"
        }
      ],
      "name": "feeAndRates",
      "outputs": [
        {
          "internalType": "uint256",
          "name": "",
          "type": "uint256"
        }
      ],
      "stateMutability": "view",
      "type": "function"
    },
    {
      "inputs": [],
      "name": "feeVault",
      "outputs": [
        {
          "internalType": "address",
          "name": "",
          "type": "address"
        }
      ],
      "stateMutability": "view",
      "type": "function"
    },
    {
      "inputs": [],
      "name": "fundFee",
      "outputs": [
        {
          "internalType": "address",
          "name": "",
          "type": "address"
        }
      ],
      "stateMutability": "view",
      "type": "function"
    },
    {
      "inputs": [
        {
          "internalType": "address",
          "name": "market",
          "type": "address"
        }
      ],
      "name": "getExecFee",
      "outputs": [
        {
          "internalType": "uint256",
          "name": "",
          "type": "uint256"
        }
      ],
      "stateMutability": "view",
      "type": "function"
    },
    {
      "inputs": [
        {
          "components": [
            {
              "internalType": "address",
              "name": "_market",
              "type": "address"
            },
            {
              "internalType": "bool",
              "name": "_isLong",
              "type": "bool"
            },
            {
              "internalType": "uint256",
              "name": "_oraclePrice",
              "type": "uint256"
            },
            {
              "internalType": "bool",
              "name": "isOpen",
              "type": "bool"
            },
            {
              "internalType": "address",
              "name": "_account",
              "type": "address"
            },
            {
              "internalType": "uint256",
              "name": "_sizeDelta",
              "type": "uint256"
            },
            {
              "internalType": "uint256",
              "name": "_price",
              "type": "uint256"
            },
            {
              "internalType": "uint256",
              "name": "_slippage",
              "type": "uint256"
            },
            {
              "internalType": "bool",
              "name": "_isExec",
              "type": "bool"
            },
            {
              "internalType": "uint8",
              "name": "liqState",
              "type": "uint8"
            },
            {
              "internalType": "uint64",
              "name": "_fromOrder",
              "type": "uint64"
            },
            {
              "internalType": "bytes32",
              "name": "_refCode",
              "type": "bytes32"
            },
            {
              "internalType": "uint256",
              "name": "collateralDelta",
              "type": "uint256"
            },
            {
              "internalType": "uint8",
              "name": "execNum",
              "type": "uint8"
            },
            {
              "internalType": "uint256[]",
              "name": "inputs",
              "type": "uint256[]"
            }
          ],
          "internalType": "struct MarketDataTypes.UpdatePositionInputs",
          "name": "params",
          "type": "tuple"
        },
        {
          "components": [
            {
              "internalType": "address",
              "name": "market",
              "type": "address"
            },
            {
              "internalType": "bool",
              "name": "isLong",
              "type": "bool"
            },
            {
              "internalType": "uint32",
              "name": "lastTime",
              "type": "uint32"
            },
            {
              "internalType": "uint216",
              "name": "extra3",
              "type": "uint216"
            },
            {
              "internalType": "uint256",
              "name": "size",
              "type": "uint256"
            },
            {
              "internalType": "uint256",
              "name": "collateral",
              "type": "uint256"
            },
            {
              "internalType": "uint256",
              "name": "averagePrice",
              "type": "uint256"
            },
            {
              "internalType": "int256",
              "name": "entryFundingRate",
              "type": "int256"
            },
            {
              "internalType": "int256",
              "name": "realisedPnl",
              "type": "int256"
            },
            {
              "internalType": "uint256",
              "name": "extra0",
              "type": "uint256"
            },
            {
              "internalType": "uint256",
              "name": "extra1",
              "type": "uint256"
            },
            {
              "internalType": "uint256",
              "name": "extra2",
              "type": "uint256"
            }
          ],
          "internalType": "struct Position.Props",
          "name": "position",
          "type": "tuple"
        }
      ],
      "name": "getFees",
      "outputs": [
        {
          "internalType": "int256[]",
          "name": "fees",
          "type": "int256[]"
        }
      ],
      "stateMutability": "view",
      "type": "function"
    },
    {
      "inputs": [
        {
          "internalType": "address",
          "name": "market",
          "type": "address"
        },
        {
          "internalType": "bool",
          "name": "isLong",
          "type": "bool"
        }
      ],
      "name": "getFundingRate",
      "outputs": [
        {
          "internalType": "int256",
          "name": "",
          "type": "int256"
        }
      ],
      "stateMutability": "view",
      "type": "function"
    },
    {
      "inputs": [
        {
          "components": [
            {
              "internalType": "address",
              "name": "_market",
              "type": "address"
            },
            {
              "internalType": "bool",
              "name": "_isLong",
              "type": "bool"
            },
            {
              "internalType": "uint256",
              "name": "_oraclePrice",
              "type": "uint256"
            },
            {
              "internalType": "bool",
              "name": "isOpen",
              "type": "bool"
            },
            {
              "internalType": "bool",
              "name": "isCreate",
              "type": "bool"
            },
            {
              "components": [
                {
                  "internalType": "uint8",
                  "name": "version",
                  "type": "uint8"
                },
                {
                  "internalType": "uint32",
                  "name": "updatedAtBlock",
                  "type": "uint32"
                },
                {
                  "internalType": "uint8",
                  "name": "triggerAbove",
                  "type": "uint8"
                },
                {
                  "internalType": "address",
                  "name": "account",
                  "type": "address"
                },
                {
                  "internalType": "uint48",
                  "name": "extra3",
                  "type": "uint48"
                },
                {
                  "internalType": "uint128",
                  "name": "collateral",
                  "type": "uint128"
                },
                {
                  "internalType": "uint128",
                  "name": "size",
                  "type": "uint128"
                },
                {
                  "internalType": "uint128",
                  "name": "price",
                  "type": "uint128"
                },
                {
                  "internalType": "uint128",
                  "name": "extra1",
                  "type": "uint128"
                },
                {
                  "internalType": "uint64",
                  "name": "orderID",
                  "type": "uint64"
                },
                {
                  "internalType": "uint64",
                  "name": "extra2",
                  "type": "uint64"
                },
                {
                  "internalType": "uint128",
                  "name": "extra0",
                  "type": "uint128"
                },
                {
                  "internalType": "bytes32",
                  "name": "refCode",
                  "type": "bytes32"
                }
              ],
              "internalType": "struct Order.Props",
              "name": "_order",
              "type": "tuple"
            },
            {
              "internalType": "uint256[]",
              "name": "inputs",
              "type": "uint256[]"
            }
          ],
          "internalType": "struct MarketDataTypes.UpdateOrderInputs",
          "name": "params",
          "type": "tuple"
        }
      ],
      "name": "getOrderFees",
      "outputs": [
        {
          "internalType": "int256",
          "name": "fees",
          "type": "int256"
        }
      ],
      "stateMutability": "view",
      "type": "function"
    },
    {
      "inputs": [
        {
          "internalType": "bytes32",
          "name": "role",
          "type": "bytes32"
        }
      ],
      "name": "getRoleAdmin",
      "outputs": [
        {
          "internalType": "bytes32",
          "name": "",
          "type": "bytes32"
        }
      ],
      "stateMutability": "view",
      "type": "function"
    },
    {
      "inputs": [
        {
          "internalType": "bytes32",
          "name": "role",
          "type": "bytes32"
        },
        {
          "internalType": "address",
          "name": "account",
          "type": "address"
        }
      ],
      "name": "grantAndRevoke",
      "outputs": [],
      "stateMutability": "nonpayable",
      "type": "function"
    },
    {
      "inputs": [
        {
          "internalType": "address",
          "name": "_account",
          "type": "address"
        }
      ],
      "name": "grantControllerRoleByMarketManager",
      "outputs": [],
      "stateMutability": "nonpayable",
      "type": "function"
    },
    {
      "inputs": [
        {
          "internalType": "bytes32",
          "name": "role",
          "type": "bytes32"
        },
        {
          "internalType": "address",
          "name": "account",
          "type": "address"
        }
      ],
      "name": "grantRole",
      "outputs": [],
      "stateMutability": "nonpayable",
      "type": "function"
    },
    {
      "inputs": [
        {
          "internalType": "bytes32",
          "name": "role",
          "type": "bytes32"
        },
        {
          "internalType": "address",
          "name": "account",
          "type": "address"
        }
      ],
      "name": "hasRole",
      "outputs": [
        {
          "internalType": "bool",
          "name": "",
          "type": "bool"
        }
      ],
      "stateMutability": "view",
      "type": "function"
    },
    {
      "inputs": [
        {
          "internalType": "address",
          "name": "vault",
          "type": "address"
        },
        {
          "internalType": "address",
          "name": "fundingFee",
          "type": "address"
        }
      ],
      "name": "initialize",
      "outputs": [],
      "stateMutability": "nonpayable",
      "type": "function"
    },
    {
      "inputs": [],
      "name": "owner",
      "outputs": [
        {
          "internalType": "address",
          "name": "",
          "type": "address"
        }
      ],
      "stateMutability": "view",
      "type": "function"
    },
    {
      "inputs": [],
      "name": "renounceOwnership",
      "outputs": [],
      "stateMutability": "nonpayable",
      "type": "function"
    },
    {
      "inputs": [
        {
          "internalType": "bytes32",
          "name": "role",
          "type": "bytes32"
        },
        {
          "internalType": "address",
          "name": "account",
          "type": "address"
        }
      ],
      "name": "renounceRole",
      "outputs": [],
      "stateMutability": "nonpayable",
      "type": "function"
    },
    {
      "inputs": [
        {
          "internalType": "bytes32",
          "name": "role",
          "type": "bytes32"
        },
        {
          "internalType": "address",
          "name": "account",
          "type": "address"
        }
      ],
      "name": "revokeRole",
      "outputs": [],
      "stateMutability": "nonpayable",
      "type": "function"
    },
    {
      "inputs": [
        {
          "internalType": "address",
          "name": "market",
          "type": "address"
        },
        {
          "internalType": "uint256[]",
          "name": "rates",
          "type": "uint256[]"
        }
      ],
      "name": "setFeeAndRates",
      "outputs": [],
      "stateMutability": "nonpayable",
      "type": "function"
    },
    {
      "inputs": [
        {
          "internalType": "address",
          "name": "vault",
          "type": "address"
        }
      ],
      "name": "setFeeVault",
      "outputs": [],
      "stateMutability": "nonpayable",
      "type": "function"
    },
    {
      "inputs": [
        {
          "internalType": "address",
          "name": "fundingFee",
          "type": "address"
        }
      ],
      "name": "setFundFee",
      "outputs": [],
      "stateMutability": "nonpayable",
      "type": "function"
    },
    {
      "inputs": [
        {
          "internalType": "bytes4",
          "name": "interfaceId",
          "type": "bytes4"
        }
      ],
      "name": "supportsInterface",
      "outputs": [
        {
          "internalType": "bool",
          "name": "",
          "type": "bool"
        }
      ],
      "stateMutability": "view",
      "type": "function"
    },
    {
      "inputs": [
        {
          "internalType": "address",
          "name": "to",
          "type": "address"
        }
      ],
      "name": "transferAdmin",
      "outputs": [],
      "stateMutability": "nonpayable",
      "type": "function"
    },
    {
      "inputs": [
        {
          "internalType": "address",
          "name": "newOwner",
          "type": "address"
        }
      ],
      "name": "transferOwnership",
      "outputs": [],
      "stateMutability": "nonpayable",
      "type": "function"
    },
    {
      "inputs": [
        {
          "internalType": "address",
          "name": "market",
          "type": "address"
        },
        {
          "internalType": "uint256",
          "name": "longSize",
          "type": "uint256"
        },
        {
          "internalType": "uint256",
          "name": "shortSize",
          "type": "uint256"
        }
      ],
      "name": "updateCumulativeFundingRate",
      "outputs": [],
      "stateMutability": "nonpayable",
      "type": "function"
    },
    {
      "inputs": [
        {
          "internalType": "address",
          "name": "token",
          "type": "address"
        },
        {
          "internalType": "address",
          "name": "to",
          "type": "address"
        },
        {
          "internalType": "uint256",
          "name": "amount",
          "type": "uint256"
        }
      ],
      "name": "withdraw",
      "outputs": [],
      "stateMutability": "nonpayable",
      "type": "function"
    }
  ],
  "bytecode": "0x60806040523480156200001157600080fd5b5060405162002b1f38038062002b1f83398101604081905262000034916200021d565b806200004033620000f2565b62000056816200014460201b6200120c1760201c565b506001600160a01b038116620000a45760405162461bcd60e51b815260206004820152600f60248201526e696e76616c6964206164647265737360881b604482015260640160405180910390fd5b600580546001600160a01b0319166001600160a01b038316179055620000eb7f241ecf16d79d0f8dbfb92cbc07fe17840425976cf0667f022fe9877caa831b083362000170565b506200024f565b600180546001600160a01b038381166001600160a01b0319831681179093556040519116919082907f8be0079c531659141344cd1fd0a4f28419497f9722a3daafe3b4186f6b6457e090600090a35050565b426002556200015333620000f2565b6200016060003362000211565b6200016d60008262000211565b50565b6000828152602081815260408083206001600160a01b038516845290915290205460ff166200020d576000828152602081815260408083206001600160a01b03851684529091529020805460ff19166001179055620001cc3390565b6001600160a01b0316816001600160a01b0316837f2f8788117e7eff1d82e926ec794901d17c78024a50270940304540a733656f0d60405160405180910390a45b5050565b6200020d828262000170565b6000602082840312156200023057600080fd5b81516001600160a01b03811681146200024857600080fd5b9392505050565b6128c0806200025f6000396000f3fe608060405234801561001057600080fd5b50600436106101da5760003560e01c80638da5cb5b11610104578063c8830bf5116100a2578063d9caed1211610071578063d9caed1214610449578063e50f19ef1461045c578063f2fde38b1461046f578063f4ca4d1d1461048257600080fd5b8063c8830bf5146103e5578063c9cf9f3a146103f8578063d547741f1461040b578063d87780681461041e57600080fd5b8063a217fddf116100de578063a217fddf146103a4578063a591f97f146103ac578063c45a0155146103bf578063c6f83ad1146103d257600080fd5b80638da5cb5b1461036d57806391d148541461037e57806399d5c1ec1461039157600080fd5b806336568abe1161017c578063715018a61161014b578063715018a61461032c57806375829def146103345780637dd49023146103475780637fe4a6981461035a57600080fd5b806336568abe146102d357806341510263146102e6578063478222c214610306578063485cc9551461031957600080fd5b8063248a9ca3116101b8578063248a9ca31461025d5780632f2ff15d1461028057806333abd0281461029557806334f32e25146102c057600080fd5b806301ffc9a7146101df57806309d398971461020757806320981df41461024a575b600080fd5b6101f26101ed366004611b00565b61048a565b60405190151581526020015b60405180910390f35b61023c610215366004611b4f565b6001600160a01b031660009081526006602090815260408083206003845290915290205490565b6040519081526020016101fe565b61023c610258366004611b85565b6104c1565b61023c61026b366004611bbe565b60009081526020819052604090206001015490565b61029361028e366004611bd7565b610545565b005b6004546102a8906001600160a01b031681565b6040516001600160a01b0390911681526020016101fe565b61023c6102ce366004611b85565b61056f565b6102936102e1366004611bd7565b6105aa565b6102f96102f4366004611e8f565b61062d565b6040516101fe9190612018565b6003546102a8906001600160a01b031681565b61029361032736600461202b565b610802565b6102936109e5565b610293610342366004611b4f565b6109f9565b610293610355366004612059565b610a23565b610293610368366004611b4f565b610bf2565b6001546001600160a01b03166102a8565b6101f261038c366004611bd7565b610c1c565b61029361039f366004611bd7565b610c45565b61023c600081565b6102936103ba366004611b4f565b610ce9565b6005546102a8906001600160a01b031681565b6102936103e03660046120a8565b610d7e565b61023c6103f3366004612204565b610e38565b610293610406366004611b4f565b610eb7565b610293610419366004611bd7565b610f4c565b61023c61042c3660046122d2565b600660209081526000928352604080842090915290825290205481565b6102936104573660046122fe565b610f71565b61029361046a36600461233f565b61100f565b61029361047d366004611b4f565b611184565b61023c6111fd565b60006001600160e01b03198216637965db0b60e01b14806104bb57506301ffc9a760e01b6001600160e01b03198316145b92915050565b60048054604051630826077d60e21b81526001600160a01b03858116938201939093528315156024820152600092909116906320981df4906044015b602060405180830381865afa15801561051a573d6000803e3d6000fd5b505050506040513d601f19601f8201168201806040525081019061053e91906123f6565b9392505050565b6000828152602081905260409020600101546105608161122f565b61056a8383611239565b505050565b6003546040516334f32e2560e01b81526001600160a01b038481166004830152831515602483015260009216906334f32e25906044016104fd565b6001600160a01b038116331461061f5760405162461bcd60e51b815260206004820152602f60248201527f416363657373436f6e74726f6c3a2063616e206f6e6c792072656e6f756e636560448201526e103937b632b9903337b91039b2b63360891b60648201526084015b60405180910390fd5b61062982826112bd565b5050565b60408051600c8082526101a082019092526060916020820161018080368337019050509050600083600001519050600061067582866020015186608001518760e00151611322565b90508083600260ff168151811061068e5761068e61240f565b602090810291909101015260a08501511580156106af575061018085015115155b156106bb5750506104bb565b8460600151156106fe5760a08501516106d790839060006113c5565b83600060ff16815181106106ed576106ed61240f565b60200260200101818152505061078d565b60a085015161071090839060016113c5565b83600160ff16815181106107265761072661240f565b60200260200101818152505084610120015160ff1660010361078d576001600160a01b03821660009081526006602090815260408083206004808552925290912054845190918291869190811061077f5761077f61240f565b602002602001018181525050505b6101a085015160ff16156107fa576001600160a01b0382166000908152600660209081526040808320600384529091529020546101a08601516107d39060ff168261243b565b90508084600360ff16815181106107ec576107ec61240f565b602002602001018181525050505b505092915050565b600154600160a81b900460ff1615808015610828575060018054600160a01b900460ff16105b806108485750303b158015610848575060018054600160a01b900460ff16145b6108ab5760405162461bcd60e51b815260206004820152602e60248201527f496e697469616c697a61626c653a20636f6e747261637420697320616c72656160448201526d191e481a5b9a5d1a585b1a5e995960921b6064820152608401610616565b6001805460ff60a01b1916600160a01b17905580156108d8576001805460ff60a81b1916600160a81b1790555b6001600160a01b0383166109225760405162461bcd60e51b81526020600482015260116024820152701a5b9d985b1a5908199959481d985d5b1d607a1b6044820152606401610616565b6001600160a01b03821661096a5760405162461bcd60e51b815260206004820152600f60248201526e696e76616c69642066756e6446656560881b6044820152606401610616565b600380546001600160a01b038086166001600160a01b0319928316179092556004805492851692909116919091179055801561056a576001805460ff60a81b191681556040519081527f7f26b83ff96e1f2b6a682f133852f6798a09c465da95921460cefb38474024989060200160405180910390a1505050565b6109ed61145b565b6109f760006114b5565b565b6000610a048161122f565b610a0f600083611507565b610a18826114b5565b6106296000336112bd565b7f8d1089725c0dc266707fa6207730fb801dcd03108bfed7a21099bd303651d2b76000610a508133610c1c565b90508015610aad576201518060025442610a6a9190612452565b10610aa85760405162461bcd60e51b815260206004820152600e60248201526d1858c81d1a5b59481c185cdcd95960921b6044820152606401610616565b610ab7565b610ab78233611511565b6000835111610af95760405162461bcd60e51b815260206004820152600e60248201526d696e76616c696420706172616d7360901b6044820152606401610616565b60005b83518160ff161015610beb576000848260ff1681518110610b1f57610b1f61240f565b60200260200101519050848260ff1681518110610b3e57610b3e61240f565b6020908102919091018101516001600160a01b038816600081815260068452604080822060ff88168084529552902091909155865190917f8e26fb53d63c548677b068d08742bea435b6ecb7911ab3c5ad68fbccddeaf5fe91859185918a91908110610bac57610bac61240f565b6020908102919091018101516040805160ff90951685529184019290925282015260600160405180910390a25080610be381612465565b915050610afc565b5050505050565b7f8d1089725c0dc266707fa6207730fb801dcd03108bfed7a21099bd303651d2b76101da8161122f565b6000918252602082815260408084206001600160a01b0393909316845291905290205460ff1690565b7f241ecf16d79d0f8dbfb92cbc07fe17840425976cf0667f022fe9877caa831b086000610c728133610c1c565b90508015610ccf576201518060025442610c8c9190612452565b10610cca5760405162461bcd60e51b815260206004820152600e60248201526d1858c81d1a5b59481c185cdcd95960921b6044820152606401610616565b610cd9565b610cd98233611511565b610ce38484611239565b50505050565b610d127f241ecf16d79d0f8dbfb92cbc07fe17840425976cf0667f022fe9877caa831b0861122f565b6001600160a01b038116610d5c5760405162461bcd60e51b81526020600482015260116024820152701a5b9d985b1a5908199959481d985d5b1d607a1b6044820152606401610616565b600380546001600160a01b0319166001600160a01b0392909216919091179055565b610d873361156a565b610dc45760405162461bcd60e51b815260206004820152600e60248201526d1a5b9d985b1a59081b585c9ad95d60921b6044820152606401610616565b6004805460405163c6f83ad160e01b81526001600160a01b0386811693820193909352602481018590526044810184905291169063c6f83ad190606401600060405180830381600087803b158015610e1b57600080fd5b505af1158015610e2f573d6000803e3d6000fd5b50505050505050565b600080826060015115610e4d57506000610e51565b5060015b6000610e7384600001518560a0015160c001516001600160801b0316846113c5565b84516001600160a01b0316600090815260066020908152604080832060038452909152902054909150610eae610ea98284612484565b611696565b95945050505050565b610ee07f241ecf16d79d0f8dbfb92cbc07fe17840425976cf0667f022fe9877caa831b0861122f565b6004546001600160a01b0316610f2a5760405162461bcd60e51b815260206004820152600f60248201526e696e76616c69642066756e6446656560881b6044820152606401610616565b600480546001600160a01b0319166001600160a01b0392909216919091179055565b600082815260208190526040902060010154610f678161122f565b61056a83836112bd565b7f5d8e12c39142ff96d79d04d15d1ba1269e4fe57bb9d26f43523628b34ba108ec610f9b8161122f565b600354604051636ce5768960e11b81526001600160a01b0386811660048301528581166024830152604482018590529091169063d9caed1290606401600060405180830381600087803b158015610ff157600080fd5b505af1158015611005573d6000803e3d6000fd5b5050505050505050565b6110183361156a565b8061104857506110487fcb58d6d985142a614029cdf01861b4fe094d5919a47e69b8310dc4093d9d6ad033610c1c565b6110945760405162461bcd60e51b815260206004820152601860248201527f666565526f757465723a206163636573732064656e69656400000000000000006044820152606401610616565b604051636eb1769f60e11b81523360048201523060248201526000906001600160a01b0384169063dd62ed3e90604401602060405180830381865afa1580156110e1573d6000803e3d6000fd5b505050506040513d601f19601f8201168201806040525081019061110591906123f6565b9050806000036111155750505050565b600354611131906001600160a01b038581169133911684611704565b336001600160a01b0316846001600160a01b03167f51b85031527a935663233d62a057687d039b9fbcd79c55e46a5b24510159336f8484604051611176929190612497565b60405180910390a350505050565b61118c61145b565b6001600160a01b0381166111f15760405162461bcd60e51b815260206004820152602660248201527f4f776e61626c653a206e6577206f776e657220697320746865207a65726f206160448201526564647265737360d01b6064820152608401610616565b6111fa816114b5565b50565b6112096008600a61259d565b81565b42600255611219336114b5565b611224600033611507565b6111fa600082611507565b6111fa8133611511565b6112438282610c1c565b610629576000828152602081815260408083206001600160a01b03851684529091529020805460ff191660011790556112793390565b6001600160a01b0316816001600160a01b0316837f2f8788117e7eff1d82e926ec794901d17c78024a50270940304540a733656f0d60405160405180910390a45050565b6112c78282610c1c565b15610629576000828152602081815260408083206001600160a01b0385168085529252808320805460ff1916905551339285917ff6391f5c32d9c69d2a47ea670b442974b53935d1edc7fd64eb21e047a839171b9190a45050565b600082600003611334575060006113bd565b6004805460405163478c57cd60e11b81526001600160a01b038881169382019390935260248101869052604481018590528615156064820152911690638f18af9a90608401602060405180830381865afa158015611396573d6000803e3d6000fd5b505050506040513d601f19601f820116820180604052508101906113ba91906123f6565b90505b949350505050565b6000826000036113d75750600061053e565b6001600160a01b038416600090815260066020908152604080832060ff861684529091528120549081900361140c5750620186a05b600061141a6008600a61259d565b826114276008600a61259d565b6114319190612452565b61143b908761243b565b61144591906125a9565b90506114518186612452565b9695505050505050565b6001546001600160a01b031633146109f75760405162461bcd60e51b815260206004820181905260248201527f4f776e61626c653a2063616c6c6572206973206e6f7420746865206f776e65726044820152606401610616565b600180546001600160a01b038381166001600160a01b0319831681179093556040519116919082907f8be0079c531659141344cd1fd0a4f28419497f9722a3daafe3b4186f6b6457e090600090a35050565b6106298282611239565b61151b8282610c1c565b610629576115288161175e565b611533836020611770565b6040516020016115449291906125ef565b60408051601f198184030181529082905262461bcd60e51b825261061691600401612664565b600080600560009054906101000a90046001600160a01b03166001600160a01b031663ec2c90166040518163ffffffff1660e01b8152600401600060405180830381865afa1580156115c0573d6000803e3d6000fd5b505050506040513d6000823e601f3d908101601f191682016040526115e891908101906126ad565b805190915060005b8181101561168b5782818151811061160a5761160a61240f565b6020026020010151602001516001600160a01b0316856001600160a01b031603611679578281815181106116405761164061240f565b60200260200101516060015180610eae57508281815181106116645761166461240f565b60200260200101516080015195945050505050565b8061168381612821565b9150506115f0565b506000949350505050565b60006001600160ff1b038211156117005760405162461bcd60e51b815260206004820152602860248201527f53616665436173743a2076616c756520646f65736e27742066697420696e2061604482015267371034b73a191a9b60c11b6064820152608401610616565b5090565b604080516001600160a01b0385811660248301528416604482015260648082018490528251808303909101815260849091019091526020810180516001600160e01b03166323b872dd60e01b179052610ce390859061190b565b60606104bb6001600160a01b03831660145b6060600061177f83600261243b565b61178a906002612484565b6001600160401b038111156117a1576117a1611bfc565b6040519080825280601f01601f1916602001820160405280156117cb576020820181803683370190505b509050600360fc1b816000815181106117e6576117e661240f565b60200101906001600160f81b031916908160001a905350600f60fb1b816001815181106118155761181561240f565b60200101906001600160f81b031916908160001a905350600061183984600261243b565b611844906001612484565b90505b60018111156118bc576f181899199a1a9b1b9c1cb0b131b232b360811b85600f16601081106118785761187861240f565b1a60f81b82828151811061188e5761188e61240f565b60200101906001600160f81b031916908160001a90535060049490941c936118b58161283a565b9050611847565b50831561053e5760405162461bcd60e51b815260206004820181905260248201527f537472696e67733a20686578206c656e67746820696e73756666696369656e746044820152606401610616565b6000611960826040518060400160405280602081526020017f5361666545524332303a206c6f772d6c6576656c2063616c6c206661696c6564815250856001600160a01b03166119dd9092919063ffffffff16565b80519091501561056a578080602001905181019061197e9190612851565b61056a5760405162461bcd60e51b815260206004820152602a60248201527f5361666545524332303a204552433230206f7065726174696f6e20646964206e6044820152691bdd081cdd58d8d9595960b21b6064820152608401610616565b60606113bd848460008585600080866001600160a01b03168587604051611a04919061286e565b60006040518083038185875af1925050503d8060008114611a41576040519150601f19603f3d011682016040523d82523d6000602084013e611a46565b606091505b5091509150611a5787838387611a62565b979650505050505050565b60608315611ad1578251600003611aca576001600160a01b0385163b611aca5760405162461bcd60e51b815260206004820152601d60248201527f416464726573733a2063616c6c20746f206e6f6e2d636f6e74726163740000006044820152606401610616565b50816113bd565b6113bd8383815115611ae65781518083602001fd5b8060405162461bcd60e51b81526004016106169190612664565b600060208284031215611b1257600080fd5b81356001600160e01b03198116811461053e57600080fd5b6001600160a01b03811681146111fa57600080fd5b8035611b4a81611b2a565b919050565b600060208284031215611b6157600080fd5b813561053e81611b2a565b80151581146111fa57600080fd5b8035611b4a81611b6c565b60008060408385031215611b9857600080fd5b8235611ba381611b2a565b91506020830135611bb381611b6c565b809150509250929050565b600060208284031215611bd057600080fd5b5035919050565b60008060408385031215611bea57600080fd5b823591506020830135611bb381611b2a565b634e487b7160e01b600052604160045260246000fd5b60405161018081016001600160401b0381118282101715611c3557611c35611bfc565b60405290565b6040516101e081016001600160401b0381118282101715611c3557611c35611bfc565b6040516101a081016001600160401b0381118282101715611c3557611c35611bfc565b60405160e081016001600160401b0381118282101715611c3557611c35611bfc565b60405160a081016001600160401b0381118282101715611c3557611c35611bfc565b604051601f8201601f191681016001600160401b0381118282101715611ced57611ced611bfc565b604052919050565b803560ff81168114611b4a57600080fd5b80356001600160401b0381168114611b4a57600080fd5b60006001600160401b03821115611d3657611d36611bfc565b5060051b60200190565b600082601f830112611d5157600080fd5b81356020611d66611d6183611d1d565b611cc5565b82815260059290921b84018101918181019086841115611d8557600080fd5b8286015b84811015611da05780358352918301918301611d89565b509695505050505050565b803563ffffffff81168114611b4a57600080fd5b80356001600160d81b0381168114611b4a57600080fd5b60006101808284031215611de957600080fd5b611df1611c12565b9050611dfc82611b3f565b8152611e0a60208301611b7a565b6020820152611e1b60408301611dab565b6040820152611e2c60608301611dbf565b60608201526080820135608082015260a082013560a082015260c082013560c082015260e082013560e082015261010080830135818301525061012080830135818301525061014080830135818301525061016080830135818301525092915050565b6000806101a0808486031215611ea457600080fd5b83356001600160401b0380821115611ebb57600080fd5b908501906101e08288031215611ed057600080fd5b611ed8611c3b565b611ee183611b3f565b8152611eef60208401611b7a565b602082015260408301356040820152611f0a60608401611b7a565b6060820152611f1b60808401611b3f565b608082015260a083013560a082015260c083013560c082015260e083013560e0820152610100611f4c818501611b7a565b90820152610120611f5e848201611cf5565b90820152610140611f70848201611d06565b9082015261016083810135908201526101808084013590820152611f95848401611cf5565b848201526101c093508383013582811115611faf57600080fd5b611fbb89828601611d40565b858301525080955050505050611fd48460208501611dd6565b90509250929050565b600081518084526020808501945080840160005b8381101561200d57815187529582019590820190600101611ff1565b509495945050505050565b60208152600061053e6020830184611fdd565b6000806040838503121561203e57600080fd5b823561204981611b2a565b91506020830135611bb381611b2a565b6000806040838503121561206c57600080fd5b823561207781611b2a565b915060208301356001600160401b0381111561209257600080fd5b61209e85828601611d40565b9150509250929050565b6000806000606084860312156120bd57600080fd5b83356120c881611b2a565b95602085013595506040909401359392505050565b803565ffffffffffff81168114611b4a57600080fd5b80356001600160801b0381168114611b4a57600080fd5b60006101a0828403121561211d57600080fd5b612125611c5e565b905061213082611cf5565b815261213e60208301611dab565b602082015261214f60408301611cf5565b604082015261216060608301611b3f565b6060820152612171608083016120dd565b608082015261218260a083016120f3565b60a082015261219360c083016120f3565b60c08201526121a460e083016120f3565b60e08201526101006121b78184016120f3565b908201526101206121c9838201611d06565b908201526101406121db838201611d06565b908201526101606121ed8382016120f3565b818301525061018080830135818301525092915050565b60006020828403121561221657600080fd5b81356001600160401b038082111561222d57600080fd5b90830190610260828603121561224257600080fd5b61224a611c81565b61225383611b3f565b815261226160208401611b7a565b60208201526040830135604082015261227c60608401611b7a565b606082015261228d60808401611b7a565b608082015261229f8660a0850161210a565b60a0820152610240830135828111156122b757600080fd5b6122c387828601611d40565b60c08301525095945050505050565b600080604083850312156122e557600080fd5b82356122f081611b2a565b9150611fd460208401611cf5565b60008060006060848603121561231357600080fd5b833561231e81611b2a565b9250602084013561232e81611b2a565b929592945050506040919091013590565b60008060006060848603121561235457600080fd5b833561235f81611b2a565b925060208481013561237081611b2a565b925060408501356001600160401b0381111561238b57600080fd5b8501601f8101871361239c57600080fd5b80356123aa611d6182611d1d565b81815260059190911b820183019083810190898311156123c957600080fd5b928401925b828410156123e7578335825292840192908401906123ce565b80955050505050509250925092565b60006020828403121561240857600080fd5b5051919050565b634e487b7160e01b600052603260045260246000fd5b634e487b7160e01b600052601160045260246000fd5b80820281158282048414176104bb576104bb612425565b818103818111156104bb576104bb612425565b600060ff821660ff810361247b5761247b612425565b60010192915050565b808201808211156104bb576104bb612425565b6040815260006124aa6040830185611fdd565b90508260208301529392505050565b600181815b808511156124f45781600019048211156124da576124da612425565b808516156124e757918102915b93841c93908002906124be565b509250929050565b60008261250b575060016104bb565b81612518575060006104bb565b816001811461252e576002811461253857612554565b60019150506104bb565b60ff84111561254957612549612425565b50506001821b6104bb565b5060208310610133831016604e8410600b8410161715612577575081810a6104bb565b61258183836124b9565b806000190482111561259557612595612425565b029392505050565b600061053e83836124fc565b6000826125c657634e487b7160e01b600052601260045260246000fd5b500490565b60005b838110156125e65781810151838201526020016125ce565b50506000910152565b7f416363657373436f6e74726f6c3a206163636f756e74200000000000000000008152600083516126278160178501602088016125cb565b7001034b99036b4b9b9b4b733903937b6329607d1b60179184019182015283516126588160288401602088016125cb565b01602801949350505050565b60208152600082518060208401526126838160408501602087016125cb565b601f01601f19169190910160400192915050565b8051611b4a81611b2a565b8051611b4a81611b6c565b600060208083850312156126c057600080fd5b82516001600160401b03808211156126d757600080fd5b818501915085601f8301126126eb57600080fd5b81516126f9611d6182611d1d565b81815260059190911b8301840190848101908883111561271857600080fd5b8585015b838110156128145780518581111561273357600080fd5b8601601f1960a0828d038201121561274b5760008081fd5b612753611ca3565b89830151888111156127655760008081fd5b8301603f81018e136127775760008081fd5b8a81015160408a82111561278d5761278d611bfc565b61279d8d86601f85011601611cc5565b94508185528f818385010111156127b45760008081fd5b6127c3828e87018386016125cb565b8484526127d1818701612697565b8d85015260609450848601518185015250505060806127f18185016126a2565b8383015261280160a085016126a2565b908201528552505091860191860161271c565b5098975050505050505050565b60006001820161283357612833612425565b5060010190565b60008161284957612849612425565b506000190190565b60006020828403121561286357600080fd5b815161053e81611b6c565b600082516128808184602087016125cb565b919091019291505056fea264697066735822122086bdfe58165e25e51c53ae816db256263df4816ee8b24ba88cdf6d2cf991a60264736f6c63430008110033",
  "linkReferences": {},
  "deployedLinkReferences": {}
}