{
  "_format": "hh-sol-artifact-1",
  "contractName": "FeeRouter",
  "sourceName": "contracts/fee/FeeRouter.sol",
  "abi": [
    {
      "inputs": [
        {
          "internalType": "address",
          "name": "factory",
          "type": "address"
        }
      ],
      "stateMutability": "nonpayable",
      "type": "constructor"
    },
    {
      "anonymous": false,
      "inputs": [
        {
          "indexed": false,
          "internalType": "uint8",
          "name": "version",
          "type": "uint8"
        }
      ],
      "name": "Initialized",
      "type": "event"
    },
    {
      "anonymous": false,
      "inputs": [
        {
          "indexed": true,
          "internalType": "address",
          "name": "previousOwner",
          "type": "address"
        },
        {
          "indexed": true,
          "internalType": "address",
          "name": "newOwner",
          "type": "address"
        }
      ],
      "name": "OwnershipTransferred",
      "type": "event"
    },
    {
      "anonymous": false,
      "inputs": [
        {
          "indexed": true,
          "internalType": "bytes32",
          "name": "role",
          "type": "bytes32"
        },
        {
          "indexed": true,
          "internalType": "bytes32",
          "name": "previousAdminRole",
          "type": "bytes32"
        },
        {
          "indexed": true,
          "internalType": "bytes32",
          "name": "newAdminRole",
          "type": "bytes32"
        }
      ],
      "name": "RoleAdminChanged",
      "type": "event"
    },
    {
      "anonymous": false,
      "inputs": [
        {
          "indexed": true,
          "internalType": "bytes32",
          "name": "role",
          "type": "bytes32"
        },
        {
          "indexed": true,
          "internalType": "address",
          "name": "account",
          "type": "address"
        },
        {
          "indexed": true,
          "internalType": "address",
          "name": "sender",
          "type": "address"
        }
      ],
      "name": "RoleGranted",
      "type": "event"
    },
    {
      "anonymous": false,
      "inputs": [
        {
          "indexed": true,
          "internalType": "bytes32",
          "name": "role",
          "type": "bytes32"
        },
        {
          "indexed": true,
          "internalType": "address",
          "name": "account",
          "type": "address"
        },
        {
          "indexed": true,
          "internalType": "address",
          "name": "sender",
          "type": "address"
        }
      ],
      "name": "RoleRevoked",
      "type": "event"
    },
    {
      "anonymous": false,
      "inputs": [
        {
          "indexed": true,
          "internalType": "address",
          "name": "account",
          "type": "address"
        },
        {
          "indexed": true,
          "internalType": "address",
          "name": "market",
          "type": "address"
        },
        {
          "indexed": false,
          "internalType": "int256[]",
          "name": "fees",
          "type": "int256[]"
        },
        {
          "indexed": false,
          "internalType": "uint256",
          "name": "amount",
          "type": "uint256"
        }
      ],
      "name": "UpdateFee",
      "type": "event"
    },
    {
      "anonymous": false,
      "inputs": [
        {
          "indexed": true,
          "internalType": "address",
          "name": "market",
          "type": "address"
        },
        {
          "indexed": false,
          "internalType": "uint8",
          "name": "kind",
          "type": "uint8"
        },
        {
          "indexed": false,
          "internalType": "uint256",
          "name": "oldFeeOrRate",
          "type": "uint256"
        },
        {
          "indexed": false,
          "internalType": "uint256",
          "name": "feeOrRate",
          "type": "uint256"
        }
      ],
      "name": "UpdateFeeAndRates",
      "type": "event"
    },
    {
      "inputs": [],
      "name": "DEFAULT_ADMIN_ROLE",
      "outputs": [
        {
          "internalType": "bytes32",
          "name": "",
          "type": "bytes32"
        }
      ],
      "stateMutability": "view",
      "type": "function"
    },
    {
      "inputs": [],
      "name": "FEE_RATE_PRECISION",
      "outputs": [
        {
          "internalType": "uint256",
          "name": "",
          "type": "uint256"
        }
      ],
      "stateMutability": "view",
      "type": "function"
    },
    {
      "inputs": [
        {
          "internalType": "address",
          "name": "account",
          "type": "address"
        },
        {
          "internalType": "address",
          "name": "token",
          "type": "address"
        },
        {
          "internalType": "int256[]",
          "name": "fees",
          "type": "int256[]"
        }
      ],
      "name": "collectFees",
      "outputs": [],
      "stateMutability": "nonpayable",
      "type": "function"
    },
    {
      "inputs": [
        {
          "internalType": "address",
          "name": "market",
          "type": "address"
        },
        {
          "internalType": "bool",
          "name": "isLong",
          "type": "bool"
        }
      ],
      "name": "cumulativeFundingRates",
      "outputs": [
        {
          "internalType": "int256",
          "name": "",
          "type": "int256"
        }
      ],
      "stateMutability": "view",
      "type": "function"
    },
    {
      "inputs": [
        {
          "internalType": "address",
          "name": "",
          "type": "address"
        },
        {
          "internalType": "uint8",
          "name": "",
          "type": "uint8"
        }
      ],
      "name": "feeAndRates",
      "outputs": [
        {
          "internalType": "uint256",
          "name": "",
          "type": "uint256"
        }
      ],
      "stateMutability": "view",
      "type": "function"
    },
    {
      "inputs": [],
      "name": "feeVault",
      "outputs": [
        {
          "internalType": "address",
          "name": "",
          "type": "address"
        }
      ],
      "stateMutability": "view",
      "type": "function"
    },
    {
      "inputs": [],
      "name": "fundFee",
      "outputs": [
        {
          "internalType": "address",
          "name": "",
          "type": "address"
        }
      ],
      "stateMutability": "view",
      "type": "function"
    },
    {
      "inputs": [
        {
          "internalType": "address",
          "name": "market",
          "type": "address"
        }
      ],
      "name": "getExecFee",
      "outputs": [
        {
          "internalType": "uint256",
          "name": "",
          "type": "uint256"
        }
      ],
      "stateMutability": "view",
      "type": "function"
    },
    {
      "inputs": [
        {
          "components": [
            {
              "internalType": "address",
              "name": "_market",
              "type": "address"
            },
            {
              "internalType": "bool",
              "name": "_isLong",
              "type": "bool"
            },
            {
              "internalType": "uint256",
              "name": "_oraclePrice",
              "type": "uint256"
            },
            {
              "internalType": "bool",
              "name": "isOpen",
              "type": "bool"
            },
            {
              "internalType": "address",
              "name": "_account",
              "type": "address"
            },
            {
              "internalType": "uint256",
              "name": "_sizeDelta",
              "type": "uint256"
            },
            {
              "internalType": "uint256",
              "name": "_price",
              "type": "uint256"
            },
            {
              "internalType": "uint256",
              "name": "_slippage",
              "type": "uint256"
            },
            {
              "internalType": "bool",
              "name": "_isExec",
              "type": "bool"
            },
            {
              "internalType": "uint8",
              "name": "liqState",
              "type": "uint8"
            },
            {
              "internalType": "uint64",
              "name": "_fromOrder",
              "type": "uint64"
            },
            {
              "internalType": "bytes32",
              "name": "_refCode",
              "type": "bytes32"
            },
            {
              "internalType": "uint256",
              "name": "collateralDelta",
              "type": "uint256"
            },
            {
              "internalType": "uint8",
              "name": "execNum",
              "type": "uint8"
            },
            {
              "internalType": "uint256[]",
              "name": "inputs",
              "type": "uint256[]"
            }
          ],
          "internalType": "struct MarketDataTypes.UpdatePositionInputs",
          "name": "params",
          "type": "tuple"
        },
        {
          "components": [
            {
              "internalType": "address",
              "name": "market",
              "type": "address"
            },
            {
              "internalType": "bool",
              "name": "isLong",
              "type": "bool"
            },
            {
              "internalType": "uint32",
              "name": "lastTime",
              "type": "uint32"
            },
            {
              "internalType": "uint216",
              "name": "extra3",
              "type": "uint216"
            },
            {
              "internalType": "uint256",
              "name": "size",
              "type": "uint256"
            },
            {
              "internalType": "uint256",
              "name": "collateral",
              "type": "uint256"
            },
            {
              "internalType": "uint256",
              "name": "averagePrice",
              "type": "uint256"
            },
            {
              "internalType": "int256",
              "name": "entryFundingRate",
              "type": "int256"
            },
            {
              "internalType": "int256",
              "name": "realisedPnl",
              "type": "int256"
            },
            {
              "internalType": "uint256",
              "name": "extra0",
              "type": "uint256"
            },
            {
              "internalType": "uint256",
              "name": "extra1",
              "type": "uint256"
            },
            {
              "internalType": "uint256",
              "name": "extra2",
              "type": "uint256"
            }
          ],
          "internalType": "struct Position.Props",
          "name": "position",
          "type": "tuple"
        }
      ],
      "name": "getFees",
      "outputs": [
        {
          "internalType": "int256[]",
          "name": "fees",
          "type": "int256[]"
        }
      ],
      "stateMutability": "view",
      "type": "function"
    },
    {
      "inputs": [
        {
          "internalType": "address",
          "name": "market",
          "type": "address"
        },
        {
          "internalType": "uint256",
          "name": "longSize",
          "type": "uint256"
        },
        {
          "internalType": "uint256",
          "name": "shortSize",
          "type": "uint256"
        },
        {
          "internalType": "bool",
          "name": "isLong",
          "type": "bool"
        }
      ],
      "name": "getFundingRate",
      "outputs": [
        {
          "internalType": "int256",
          "name": "",
          "type": "int256"
        }
      ],
      "stateMutability": "view",
      "type": "function"
    },
    {
      "inputs": [
        {
          "components": [
            {
              "internalType": "address",
              "name": "_market",
              "type": "address"
            },
            {
              "internalType": "bool",
              "name": "_isLong",
              "type": "bool"
            },
            {
              "internalType": "uint256",
              "name": "_oraclePrice",
              "type": "uint256"
            },
            {
              "internalType": "bool",
              "name": "isOpen",
              "type": "bool"
            },
            {
              "internalType": "bool",
              "name": "isCreate",
              "type": "bool"
            },
            {
              "components": [
                {
                  "internalType": "uint8",
                  "name": "version",
                  "type": "uint8"
                },
                {
                  "internalType": "uint32",
                  "name": "updatedAtBlock",
                  "type": "uint32"
                },
                {
                  "internalType": "uint8",
                  "name": "triggerAbove",
                  "type": "uint8"
                },
                {
                  "internalType": "address",
                  "name": "account",
                  "type": "address"
                },
                {
                  "internalType": "uint48",
                  "name": "extra3",
                  "type": "uint48"
                },
                {
                  "internalType": "uint128",
                  "name": "collateral",
                  "type": "uint128"
                },
                {
                  "internalType": "uint128",
                  "name": "size",
                  "type": "uint128"
                },
                {
                  "internalType": "uint128",
                  "name": "price",
                  "type": "uint128"
                },
                {
                  "internalType": "uint128",
                  "name": "extra1",
                  "type": "uint128"
                },
                {
                  "internalType": "uint64",
                  "name": "orderID",
                  "type": "uint64"
                },
                {
                  "internalType": "uint64",
                  "name": "extra2",
                  "type": "uint64"
                },
                {
                  "internalType": "uint128",
                  "name": "extra0",
                  "type": "uint128"
                },
                {
                  "internalType": "bytes32",
                  "name": "refCode",
                  "type": "bytes32"
                }
              ],
              "internalType": "struct Order.Props",
              "name": "_order",
              "type": "tuple"
            },
            {
              "internalType": "uint256[]",
              "name": "inputs",
              "type": "uint256[]"
            }
          ],
          "internalType": "struct MarketDataTypes.UpdateOrderInputs",
          "name": "params",
          "type": "tuple"
        }
      ],
      "name": "getOrderFees",
      "outputs": [
        {
          "internalType": "int256",
          "name": "fees",
          "type": "int256"
        }
      ],
      "stateMutability": "view",
      "type": "function"
    },
    {
      "inputs": [
        {
          "internalType": "bytes32",
          "name": "role",
          "type": "bytes32"
        }
      ],
      "name": "getRoleAdmin",
      "outputs": [
        {
          "internalType": "bytes32",
          "name": "",
          "type": "bytes32"
        }
      ],
      "stateMutability": "view",
      "type": "function"
    },
    {
      "inputs": [
        {
          "internalType": "bytes32",
          "name": "role",
          "type": "bytes32"
        },
        {
          "internalType": "address",
          "name": "account",
          "type": "address"
        }
      ],
      "name": "grantAndRevoke",
      "outputs": [],
      "stateMutability": "nonpayable",
      "type": "function"
    },
    {
      "inputs": [
        {
          "internalType": "bytes32",
          "name": "role",
          "type": "bytes32"
        },
        {
          "internalType": "address",
          "name": "account",
          "type": "address"
        }
      ],
      "name": "grantRole",
      "outputs": [],
      "stateMutability": "nonpayable",
      "type": "function"
    },
    {
      "inputs": [
        {
          "internalType": "bytes32",
          "name": "role",
          "type": "bytes32"
        },
        {
          "internalType": "address",
          "name": "account",
          "type": "address"
        }
      ],
      "name": "hasRole",
      "outputs": [
        {
          "internalType": "bool",
          "name": "",
          "type": "bool"
        }
      ],
      "stateMutability": "view",
      "type": "function"
    },
    {
      "inputs": [
        {
          "internalType": "address",
          "name": "vault",
          "type": "address"
        },
        {
          "internalType": "address",
          "name": "fundingFee",
          "type": "address"
        }
      ],
      "name": "initialize",
      "outputs": [],
      "stateMutability": "nonpayable",
      "type": "function"
    },
    {
      "inputs": [],
      "name": "owner",
      "outputs": [
        {
          "internalType": "address",
          "name": "",
          "type": "address"
        }
      ],
      "stateMutability": "view",
      "type": "function"
    },
    {
      "inputs": [],
      "name": "renounceOwnership",
      "outputs": [],
      "stateMutability": "nonpayable",
      "type": "function"
    },
    {
      "inputs": [
        {
          "internalType": "bytes32",
          "name": "role",
          "type": "bytes32"
        },
        {
          "internalType": "address",
          "name": "account",
          "type": "address"
        }
      ],
      "name": "renounceRole",
      "outputs": [],
      "stateMutability": "nonpayable",
      "type": "function"
    },
    {
      "inputs": [
        {
          "internalType": "bytes32",
          "name": "role",
          "type": "bytes32"
        },
        {
          "internalType": "address",
          "name": "account",
          "type": "address"
        }
      ],
      "name": "revokeRole",
      "outputs": [],
      "stateMutability": "nonpayable",
      "type": "function"
    },
    {
      "inputs": [
        {
          "internalType": "address",
          "name": "market",
          "type": "address"
        },
        {
          "internalType": "uint256[]",
          "name": "rates",
          "type": "uint256[]"
        }
      ],
      "name": "setFeeAndRates",
      "outputs": [],
      "stateMutability": "nonpayable",
      "type": "function"
    },
    {
      "inputs": [
        {
          "internalType": "address",
          "name": "vault",
          "type": "address"
        }
      ],
      "name": "setFeeVault",
      "outputs": [],
      "stateMutability": "nonpayable",
      "type": "function"
    },
    {
      "inputs": [
        {
          "internalType": "address",
          "name": "fundingFee",
          "type": "address"
        }
      ],
      "name": "setFundFee",
      "outputs": [],
      "stateMutability": "nonpayable",
      "type": "function"
    },
    {
      "inputs": [
        {
          "internalType": "bytes4",
          "name": "interfaceId",
          "type": "bytes4"
        }
      ],
      "name": "supportsInterface",
      "outputs": [
        {
          "internalType": "bool",
          "name": "",
          "type": "bool"
        }
      ],
      "stateMutability": "view",
      "type": "function"
    },
    {
      "inputs": [
        {
          "internalType": "address",
          "name": "to",
          "type": "address"
        }
      ],
      "name": "transferAdmin",
      "outputs": [],
      "stateMutability": "nonpayable",
      "type": "function"
    },
    {
      "inputs": [
        {
          "internalType": "address",
          "name": "newOwner",
          "type": "address"
        }
      ],
      "name": "transferOwnership",
      "outputs": [],
      "stateMutability": "nonpayable",
      "type": "function"
    },
    {
      "inputs": [
        {
          "internalType": "address",
          "name": "market",
          "type": "address"
        },
        {
          "internalType": "uint256",
          "name": "longSize",
          "type": "uint256"
        },
        {
          "internalType": "uint256",
          "name": "shortSize",
          "type": "uint256"
        }
      ],
      "name": "updateCumulativeFundingRate",
      "outputs": [],
      "stateMutability": "nonpayable",
      "type": "function"
    },
    {
      "inputs": [
        {
          "internalType": "address",
          "name": "token",
          "type": "address"
        },
        {
          "internalType": "address",
          "name": "to",
          "type": "address"
        },
        {
          "internalType": "uint256",
          "name": "amount",
          "type": "uint256"
        }
      ],
      "name": "withdraw",
      "outputs": [],
      "stateMutability": "nonpayable",
      "type": "function"
    }
  ],
  "bytecode": "0x60806040523480156200001157600080fd5b5060405162002666380380620026668339810160408190526200003491620001b5565b8062000040336200008a565b6200005681620000dc60201b62000fd01760201c565b50620000837f241ecf16d79d0f8dbfb92cbc07fe17840425976cf0667f022fe9877caa831b083362000108565b50620001e7565b600180546001600160a01b038381166001600160a01b0319831681179093556040519116919082907f8be0079c531659141344cd1fd0a4f28419497f9722a3daafe3b4186f6b6457e090600090a35050565b42600255620000eb336200008a565b620000f8600033620001a9565b62000105600082620001a9565b50565b6000828152602081815260408083206001600160a01b038516845290915290205460ff16620001a5576000828152602081815260408083206001600160a01b03851684529091529020805460ff19166001179055620001643390565b6001600160a01b0316816001600160a01b0316837f2f8788117e7eff1d82e926ec794901d17c78024a50270940304540a733656f0d60405160405180910390a45b5050565b620001a5828262000108565b600060208284031215620001c857600080fd5b81516001600160a01b0381168114620001e057600080fd5b9392505050565b61246f80620001f76000396000f3fe608060405234801561001057600080fd5b50600436106101545760003560e01c806301ffc9a71461015957806309d3989714610181578063248a9ca3146101c45780632f2ff15d146101d757806333abd028146101ec57806334f32e251461021757806336568abe1461022a578063415102631461023d578063478222c21461025d578063485cc95514610270578063504b8b6814610283578063715018a61461029657806375829def1461029e5780637dd49023146102b15780638da5cb5b146102c457806391d14854146102cc57806399d5c1ec146102df578063a217fddf146102f2578063a591f97f146102fa578063c6f83ad11461030d578063c8830bf514610320578063c9cf9f3a14610333578063d547741f14610346578063d877806814610359578063d9caed1214610384578063e50f19ef14610397578063f2fde38b146103aa578063f4ca4d1d146103bd575b600080fd5b61016c61016736600461174c565b6103c5565b60405190151581526020015b60405180910390f35b6101b661018f366004611792565b6001600160a01b031660009081526005602090815260408083206003845290915290205490565b604051908152602001610178565b6101b66101d23660046117ad565b6103fc565b6101ea6101e53660046117c6565b610411565b005b6004546101ff906001600160a01b031681565b6040516001600160a01b039091168152602001610178565b6101b661022536600461180b565b610432565b6101ea6102383660046117c6565b6104b0565b61025061024b366004611ab3565b610533565b6040516101789190611c33565b6003546101ff906001600160a01b031681565b6101ea61027e366004611c46565b610708565b6101b6610291366004611c70565b6108ac565b6101ea610930565b6101ea6102ac366004611792565b610944565b6101ea6102bf366004611cb8565b61096e565b6101ff610b1c565b61016c6102da3660046117c6565b610b2b565b6101ea6102ed3660046117c6565b610b54565b6101b6600081565b6101ea610308366004611792565b610bc5565b6101ea61031b366004611d05565b610c24565b6101b661032e366004611e5f565b610caf565b6101ea610341366004611792565b610d2e565b6101ea6103543660046117c6565b610d8f565b6101b6610367366004611f2d565b600560209081526000928352604080842090915290825290205481565b6101ea610392366004611f57565b610dab565b6101ea6103a5366004611f93565b610e41565b6101ea6103b8366004611792565b610f48565b6101b6610fc1565b60006001600160e01b03198216637965db0b60e01b14806103f657506301ffc9a760e01b6001600160e01b03198316145b92915050565b60009081526020819052604090206001015490565b61041a826103fc565b61042381610ff3565b61042d8383610ffd565b505050565b6003546040516334f32e2560e01b81526001600160a01b038481166004830152831515602483015260009216906334f32e2590604401602060405180830381865afa158015610485573d6000803e3d6000fd5b505050506040513d601f19601f820116820180604052508101906104a99190612046565b9392505050565b6001600160a01b03811633146105255760405162461bcd60e51b815260206004820152602f60248201527f416363657373436f6e74726f6c3a2063616e206f6e6c792072656e6f756e636560448201526e103937b632b9903337b91039b2b63360891b60648201526084015b60405180910390fd5b61052f8282611081565b5050565b60408051600c8082526101a082019092526060916020820161018080368337019050509050600083600001519050600061057b82866020015186608001518760e001516110e6565b90508083600260ff16815181106105945761059461205f565b602090810291909101015260a08501511580156105b5575061018085015115155b156105c15750506103f6565b8460600151156106045760a08501516105dd908390600061112d565b83600060ff16815181106105f3576105f361205f565b602002602001018181525050610693565b60a0850151610616908390600161112d565b83600160ff168151811061062c5761062c61205f565b60200260200101818152505084610120015160ff16600103610693576001600160a01b0382166000908152600560209081526040808320600480855292529091205484519091829186919081106106855761068561205f565b602002602001018181525050505b6101a085015160ff1615610700576001600160a01b0382166000908152600560209081526040808320600384529091529020546101a08601516106d99060ff168261208b565b90508084600360ff16815181106106f2576106f261205f565b602002602001018181525050505b505092915050565b600154600160a81b900460ff161580801561072e575060018054600160a01b900460ff16105b80610755575061073d306111c3565b158015610755575060018054600160a01b900460ff16145b6107b85760405162461bcd60e51b815260206004820152602e60248201527f496e697469616c697a61626c653a20636f6e747261637420697320616c72656160448201526d191e481a5b9a5d1a585b1a5e995960921b606482015260840161051c565b6001805460ff60a01b1916600160a01b17905580156107e5576001805460ff60a81b1916600160a81b1790555b6001600160a01b03831661080b5760405162461bcd60e51b815260040161051c906120a2565b6001600160a01b0382166108315760405162461bcd60e51b815260040161051c906120cd565b600380546001600160a01b038086166001600160a01b0319928316179092556004805492851692909116919091179055801561042d576001805460ff60a81b191681556040519081527f7f26b83ff96e1f2b6a682f133852f6798a09c465da95921460cefb38474024989060200160405180910390a1505050565b60048054604051630a09716d60e31b81526000926001600160a01b039092169163504b8b68916108e4918991899189918991016120f6565b602060405180830381865afa158015610901573d6000803e3d6000fd5b505050506040513d601f19601f820116820180604052508101906109259190612046565b90505b949350505050565b6109386111d2565b6109426000611231565b565b600061094f81610ff3565b61095a600083611283565b61096382611231565b61052f600033611081565b7f8d1089725c0dc266707fa6207730fb801dcd03108bfed7a21099bd303651d2b7600061099b8133610b2b565b905080156109d75762015180600254426109b5919061211e565b106109d25760405162461bcd60e51b815260040161051c90612131565b6109e1565b6109e1823361128d565b6000835111610a235760405162461bcd60e51b815260206004820152600e60248201526d696e76616c696420706172616d7360901b604482015260640161051c565b60005b83518160ff161015610b15576000848260ff1681518110610a4957610a4961205f565b60200260200101519050848260ff1681518110610a6857610a6861205f565b6020908102919091018101516001600160a01b038816600081815260058452604080822060ff88168084529552902091909155865190917f8e26fb53d63c548677b068d08742bea435b6ecb7911ab3c5ad68fbccddeaf5fe91859185918a91908110610ad657610ad661205f565b6020908102919091018101516040805160ff90951685529184019290925282015260600160405180910390a25080610b0d81612159565b915050610a26565b5050505050565b6001546001600160a01b031690565b6000918252602082815260408084206001600160a01b0393909316845291905290205460ff1690565b60008051602061241a8339815191526000610b6f8133610b2b565b90508015610bab576201518060025442610b89919061211e565b10610ba65760405162461bcd60e51b815260040161051c90612131565b610bb5565b610bb5823361128d565b610bbf8484610ffd565b50505050565b610bdc60008051602061241a833981519152610ff3565b6001600160a01b038116610c025760405162461bcd60e51b815260040161051c906120a2565b600380546001600160a01b0319166001600160a01b0392909216919091179055565b610c3b6000805160206123fa833981519152610ff3565b6004805460405163c6f83ad160e01b81526001600160a01b0386811693820193909352602481018590526044810184905291169063c6f83ad190606401600060405180830381600087803b158015610c9257600080fd5b505af1158015610ca6573d6000803e3d6000fd5b50505050505050565b600080826060015115610cc457506000610cc8565b5060015b6000610cea84600001518560a0015160c001516001600160801b03168461112d565b84516001600160a01b0316600090815260056020908152604080832060038452909152902054909150610d25610d208284612178565b6112e6565b95945050505050565b610d4560008051602061241a833981519152610ff3565b6004546001600160a01b0316610d6d5760405162461bcd60e51b815260040161051c906120cd565b600480546001600160a01b0319166001600160a01b0392909216919091179055565b610d98826103fc565b610da181610ff3565b61042d8383611081565b7f5d8e12c39142ff96d79d04d15d1ba1269e4fe57bb9d26f43523628b34ba108ec610dd581610ff3565b600354604051636ce5768960e11b81526001600160a01b039091169063d9caed1290610e099087908790879060040161218b565b600060405180830381600087803b158015610e2357600080fd5b505af1158015610e37573d6000803e3d6000fd5b5050505050505050565b610e586000805160206123fa833981519152610ff3565b604051636eb1769f60e11b81523360048201523060248201526000906001600160a01b0384169063dd62ed3e90604401602060405180830381865afa158015610ea5573d6000803e3d6000fd5b505050506040513d601f19601f82011682018060405250810190610ec99190612046565b905080600003610ed95750505050565b600354610ef5906001600160a01b038581169133911684611354565b336001600160a01b0316846001600160a01b03167f51b85031527a935663233d62a057687d039b9fbcd79c55e46a5b24510159336f8484604051610f3a9291906121af565b60405180910390a350505050565b610f506111d2565b6001600160a01b038116610fb55760405162461bcd60e51b815260206004820152602660248201527f4f776e61626c653a206e6577206f776e657220697320746865207a65726f206160448201526564647265737360d01b606482015260840161051c565b610fbe81611231565b50565b610fcd6008600a6122b5565b81565b42600255610fdd33611231565b610fe8600033611283565b610fbe600082611283565b610fbe813361128d565b6110078282610b2b565b61052f576000828152602081815260408083206001600160a01b03851684529091529020805460ff1916600117905561103d3390565b6001600160a01b0316816001600160a01b0316837f2f8788117e7eff1d82e926ec794901d17c78024a50270940304540a733656f0d60405160405180910390a45050565b61108b8282610b2b565b1561052f576000828152602081815260408083206001600160a01b0385168085529252808320805460ff1916905551339285917ff6391f5c32d9c69d2a47ea670b442974b53935d1edc7fd64eb21e047a839171b9190a45050565b6000826000036110f857506000610928565b6004805460405163478c57cd60e11b81526001600160a01b0390911691638f18af9a916108e4918991889188918b91016120f6565b60008260000361113f575060006104a9565b6001600160a01b038416600090815260056020908152604080832060ff86168452909152812054908190036111745750620186a05b60006111826008600a6122b5565b8261118f6008600a6122b5565b611199919061211e565b6111a3908761208b565b6111ad91906122c1565b90506111b9818661211e565b9695505050505050565b6001600160a01b03163b151590565b336111db610b1c565b6001600160a01b0316146109425760405162461bcd60e51b815260206004820181905260248201527f4f776e61626c653a2063616c6c6572206973206e6f7420746865206f776e6572604482015260640161051c565b600180546001600160a01b038381166001600160a01b0319831681179093556040519116919082907f8be0079c531659141344cd1fd0a4f28419497f9722a3daafe3b4186f6b6457e090600090a35050565b61052f8282610ffd565b6112978282610b2b565b61052f576112a4816113ac565b6112af8360206113be565b6040516020016112c0929190612307565b60408051601f198184030181529082905262461bcd60e51b825261051c91600401612376565b60006001600160ff1b038211156113505760405162461bcd60e51b815260206004820152602860248201527f53616665436173743a2076616c756520646f65736e27742066697420696e2061604482015267371034b73a191a9b60c11b606482015260840161051c565b5090565b610bbf846323b872dd60e01b8585856040516024016113759392919061218b565b60408051601f198184030181529190526020810180516001600160e01b03166001600160e01b031990931692909217909152611559565b60606103f66001600160a01b03831660145b606060006113cd83600261208b565b6113d8906002612178565b6001600160401b038111156113ef576113ef611842565b6040519080825280601f01601f191660200182016040528015611419576020820181803683370190505b509050600360fc1b816000815181106114345761143461205f565b60200101906001600160f81b031916908160001a905350600f60fb1b816001815181106114635761146361205f565b60200101906001600160f81b031916908160001a905350600061148784600261208b565b611492906001612178565b90505b600181111561150a576f181899199a1a9b1b9c1cb0b131b232b360811b85600f16601081106114c6576114c661205f565b1a60f81b8282815181106114dc576114dc61205f565b60200101906001600160f81b031916908160001a90535060049490941c93611503816123a9565b9050611495565b5083156104a95760405162461bcd60e51b815260206004820181905260248201527f537472696e67733a20686578206c656e67746820696e73756666696369656e74604482015260640161051c565b60006115ae826040518060400160405280602081526020017f5361666545524332303a206c6f772d6c6576656c2063616c6c206661696c6564815250856001600160a01b031661162b9092919063ffffffff16565b80519091501561042d57808060200190518101906115cc91906123c0565b61042d5760405162461bcd60e51b815260206004820152602a60248201527f5361666545524332303a204552433230206f7065726174696f6e20646964206e6044820152691bdd081cdd58d8d9595960b21b606482015260840161051c565b6060610928848460008585600080866001600160a01b0316858760405161165291906123dd565b60006040518083038185875af1925050503d806000811461168f576040519150601f19603f3d011682016040523d82523d6000602084013e611694565b606091505b50915091506116a5878383876116b0565b979650505050505050565b6060831561171d578251600003611716576116ca856111c3565b6117165760405162461bcd60e51b815260206004820152601d60248201527f416464726573733a2063616c6c20746f206e6f6e2d636f6e7472616374000000604482015260640161051c565b5081610928565b61092883838151156117325781518083602001fd5b8060405162461bcd60e51b815260040161051c9190612376565b60006020828403121561175e57600080fd5b81356001600160e01b0319811681146104a957600080fd5b80356001600160a01b038116811461178d57600080fd5b919050565b6000602082840312156117a457600080fd5b6104a982611776565b6000602082840312156117bf57600080fd5b5035919050565b600080604083850312156117d957600080fd5b823591506117e960208401611776565b90509250929050565b8015158114610fbe57600080fd5b803561178d816117f2565b6000806040838503121561181e57600080fd5b61182783611776565b91506020830135611837816117f2565b809150509250929050565b634e487b7160e01b600052604160045260246000fd5b60405161018081016001600160401b038111828210171561187b5761187b611842565b60405290565b6040516101e081016001600160401b038111828210171561187b5761187b611842565b6040516101a081016001600160401b038111828210171561187b5761187b611842565b60405160e081016001600160401b038111828210171561187b5761187b611842565b604051601f8201601f191681016001600160401b038111828210171561191157611911611842565b604052919050565b803560ff8116811461178d57600080fd5b80356001600160401b038116811461178d57600080fd5b60006001600160401b0382111561195a5761195a611842565b5060051b60200190565b600082601f83011261197557600080fd5b8135602061198a61198583611941565b6118e9565b82815260059290921b840181019181810190868411156119a957600080fd5b8286015b848110156119c457803583529183019183016119ad565b509695505050505050565b803563ffffffff8116811461178d57600080fd5b80356001600160d81b038116811461178d57600080fd5b60006101808284031215611a0d57600080fd5b611a15611858565b9050611a2082611776565b8152611a2e60208301611800565b6020820152611a3f604083016119cf565b6040820152611a50606083016119e3565b60608201526080820135608082015260a082013560a082015260c082013560c082015260e082013560e082015261010080830135818301525061012080830135818301525061014080830135818301525061016080830135818301525092915050565b6000806101a0808486031215611ac857600080fd5b83356001600160401b0380821115611adf57600080fd5b908501906101e08288031215611af457600080fd5b611afc611881565b611b0583611776565b8152611b1360208401611800565b602082015260408301356040820152611b2e60608401611800565b6060820152611b3f60808401611776565b608082015260a083013560a082015260c083013560c082015260e083013560e0820152610100611b70818501611800565b90820152610120611b82848201611919565b90820152610140611b9484820161192a565b9082015261016083810135908201526101808084013590820152611bb9848401611919565b848201526101c093508383013582811115611bd357600080fd5b611bdf89828601611964565b8583015250809550505050506117e984602085016119fa565b600081518084526020808501945080840160005b83811015611c2857815187529582019590820190600101611c0c565b509495945050505050565b6020815260006104a96020830184611bf8565b60008060408385031215611c5957600080fd5b611c6283611776565b91506117e960208401611776565b60008060008060808587031215611c8657600080fd5b611c8f85611776565b935060208501359250604085013591506060850135611cad816117f2565b939692955090935050565b60008060408385031215611ccb57600080fd5b611cd483611776565b915060208301356001600160401b03811115611cef57600080fd5b611cfb85828601611964565b9150509250929050565b600080600060608486031215611d1a57600080fd5b611d2384611776565b95602085013595506040909401359392505050565b803565ffffffffffff8116811461178d57600080fd5b80356001600160801b038116811461178d57600080fd5b60006101a08284031215611d7857600080fd5b611d806118a4565b9050611d8b82611919565b8152611d99602083016119cf565b6020820152611daa60408301611919565b6040820152611dbb60608301611776565b6060820152611dcc60808301611d38565b6080820152611ddd60a08301611d4e565b60a0820152611dee60c08301611d4e565b60c0820152611dff60e08301611d4e565b60e0820152610100611e12818401611d4e565b90820152610120611e2483820161192a565b90820152610140611e3683820161192a565b90820152610160611e48838201611d4e565b818301525061018080830135818301525092915050565b600060208284031215611e7157600080fd5b81356001600160401b0380821115611e8857600080fd5b908301906102608286031215611e9d57600080fd5b611ea56118c7565b611eae83611776565b8152611ebc60208401611800565b602082015260408301356040820152611ed760608401611800565b6060820152611ee860808401611800565b6080820152611efa8660a08501611d65565b60a082015261024083013582811115611f1257600080fd5b611f1e87828601611964565b60c08301525095945050505050565b60008060408385031215611f4057600080fd5b611f4983611776565b91506117e960208401611919565b600080600060608486031215611f6c57600080fd5b611f7584611776565b9250611f8360208501611776565b9150604084013590509250925092565b600080600060608486031215611fa857600080fd5b611fb184611776565b92506020611fc0818601611776565b925060408501356001600160401b03811115611fdb57600080fd5b8501601f81018713611fec57600080fd5b8035611ffa61198582611941565b81815260059190911b8201830190838101908983111561201957600080fd5b928401925b828410156120375783358252928401929084019061201e565b80955050505050509250925092565b60006020828403121561205857600080fd5b5051919050565b634e487b7160e01b600052603260045260246000fd5b634e487b7160e01b600052601160045260246000fd5b80820281158282048414176103f6576103f6612075565b6020808252601190820152701a5b9d985b1a5908199959481d985d5b1d607a1b604082015260600190565b6020808252600f908201526e696e76616c69642066756e6446656560881b604082015260600190565b6001600160a01b03949094168452602084019290925260408301521515606082015260800190565b818103818111156103f6576103f6612075565b6020808252600e908201526d1858c81d1a5b59481c185cdcd95960921b604082015260600190565b600060ff821660ff810361216f5761216f612075565b60010192915050565b808201808211156103f6576103f6612075565b6001600160a01b039384168152919092166020820152604081019190915260600190565b6040815260006121c26040830185611bf8565b90508260208301529392505050565b600181815b8085111561220c5781600019048211156121f2576121f2612075565b808516156121ff57918102915b93841c93908002906121d6565b509250929050565b600082612223575060016103f6565b81612230575060006103f6565b816001811461224657600281146122505761226c565b60019150506103f6565b60ff84111561226157612261612075565b50506001821b6103f6565b5060208310610133831016604e8410600b841016171561228f575081810a6103f6565b61229983836121d1565b80600019048211156122ad576122ad612075565b029392505050565b60006104a98383612214565b6000826122de57634e487b7160e01b600052601260045260246000fd5b500490565b60005b838110156122fe5781810151838201526020016122e6565b50506000910152565b76020b1b1b2b9b9a1b7b73a3937b61d1030b1b1b7bab73a1604d1b8152600083516123398160178501602088016122e3565b7001034b99036b4b9b9b4b733903937b6329607d1b601791840191820152835161236a8160288401602088016122e3565b01602801949350505050565b60208152600082518060208401526123958160408501602087016122e3565b601f01601f19169190910160400192915050565b6000816123b8576123b8612075565b506000190190565b6000602082840312156123d257600080fd5b81516104a9816117f2565b600082516123ef8184602087016122e3565b919091019291505056fecb58d6d985142a614029cdf01861b4fe094d5919a47e69b8310dc4093d9d6ad0241ecf16d79d0f8dbfb92cbc07fe17840425976cf0667f022fe9877caa831b08a2646970667358221220c295720a449c557aa3ec68fa974e6864fed32a18db5f4c4a27f93c521892e63a64736f6c63430008110033",
  "linkReferences": {},
  "deployedLinkReferences": {}
}