{
  "_format": "hh-sol-artifact-1",
  "contractName": "FeeRouter",
  "sourceName": "contracts/fee/FeeRouter.sol",
  "abi": [
    {
      "inputs": [
        {
          "internalType": "address",
          "name": "_factory",
          "type": "address"
        }
      ],
      "stateMutability": "nonpayable",
      "type": "constructor"
    },
    {
      "anonymous": false,
      "inputs": [
        {
          "indexed": false,
          "internalType": "uint8",
          "name": "version",
          "type": "uint8"
        }
      ],
      "name": "Initialized",
      "type": "event"
    },
    {
      "anonymous": false,
      "inputs": [
        {
          "indexed": true,
          "internalType": "address",
          "name": "previousOwner",
          "type": "address"
        },
        {
          "indexed": true,
          "internalType": "address",
          "name": "newOwner",
          "type": "address"
        }
      ],
      "name": "OwnershipTransferred",
      "type": "event"
    },
    {
      "anonymous": false,
      "inputs": [
        {
          "indexed": true,
          "internalType": "bytes32",
          "name": "role",
          "type": "bytes32"
        },
        {
          "indexed": true,
          "internalType": "bytes32",
          "name": "previousAdminRole",
          "type": "bytes32"
        },
        {
          "indexed": true,
          "internalType": "bytes32",
          "name": "newAdminRole",
          "type": "bytes32"
        }
      ],
      "name": "RoleAdminChanged",
      "type": "event"
    },
    {
      "anonymous": false,
      "inputs": [
        {
          "indexed": true,
          "internalType": "bytes32",
          "name": "role",
          "type": "bytes32"
        },
        {
          "indexed": true,
          "internalType": "address",
          "name": "account",
          "type": "address"
        },
        {
          "indexed": true,
          "internalType": "address",
          "name": "sender",
          "type": "address"
        }
      ],
      "name": "RoleGranted",
      "type": "event"
    },
    {
      "anonymous": false,
      "inputs": [
        {
          "indexed": true,
          "internalType": "bytes32",
          "name": "role",
          "type": "bytes32"
        },
        {
          "indexed": true,
          "internalType": "address",
          "name": "account",
          "type": "address"
        },
        {
          "indexed": true,
          "internalType": "address",
          "name": "sender",
          "type": "address"
        }
      ],
      "name": "RoleRevoked",
      "type": "event"
    },
    {
      "anonymous": false,
      "inputs": [
        {
          "indexed": true,
          "internalType": "address",
          "name": "account",
          "type": "address"
        },
        {
          "indexed": true,
          "internalType": "address",
          "name": "market",
          "type": "address"
        },
        {
          "indexed": false,
          "internalType": "int256[]",
          "name": "fees",
          "type": "int256[]"
        },
        {
          "indexed": false,
          "internalType": "uint256",
          "name": "amount",
          "type": "uint256"
        }
      ],
      "name": "UpdateFee",
      "type": "event"
    },
    {
      "anonymous": false,
      "inputs": [
        {
          "indexed": true,
          "internalType": "address",
          "name": "market",
          "type": "address"
        },
        {
          "indexed": false,
          "internalType": "uint8",
          "name": "kind",
          "type": "uint8"
        },
        {
          "indexed": false,
          "internalType": "uint256",
          "name": "oldFeeOrRate",
          "type": "uint256"
        },
        {
          "indexed": false,
          "internalType": "uint256",
          "name": "feeOrRate",
          "type": "uint256"
        }
      ],
      "name": "UpdateFeeAndRates",
      "type": "event"
    },
    {
      "inputs": [],
      "name": "DEFAULT_ADMIN_ROLE",
      "outputs": [
        {
          "internalType": "bytes32",
          "name": "",
          "type": "bytes32"
        }
      ],
      "stateMutability": "view",
      "type": "function"
    },
    {
      "inputs": [],
      "name": "FEE_RATE_PRECISION",
      "outputs": [
        {
          "internalType": "uint256",
          "name": "",
          "type": "uint256"
        }
      ],
      "stateMutability": "view",
      "type": "function"
    },
    {
      "inputs": [
        {
          "internalType": "address",
          "name": "account",
          "type": "address"
        },
        {
          "internalType": "address",
          "name": "token",
          "type": "address"
        },
        {
          "internalType": "int256[]",
          "name": "fees",
          "type": "int256[]"
        },
        {
          "internalType": "uint256",
          "name": "fundfeeLoss",
          "type": "uint256"
        }
      ],
      "name": "collectFees",
      "outputs": [],
      "stateMutability": "nonpayable",
      "type": "function"
    },
    {
      "inputs": [
        {
          "internalType": "address",
          "name": "account",
          "type": "address"
        },
        {
          "internalType": "address",
          "name": "token",
          "type": "address"
        },
        {
          "internalType": "int256[]",
          "name": "fees",
          "type": "int256[]"
        }
      ],
      "name": "collectFees",
      "outputs": [],
      "stateMutability": "nonpayable",
      "type": "function"
    },
    {
      "inputs": [
        {
          "internalType": "address",
          "name": "market",
          "type": "address"
        },
        {
          "internalType": "bool",
          "name": "isLong",
          "type": "bool"
        }
      ],
      "name": "cumulativeFundingRates",
      "outputs": [
        {
          "internalType": "int256",
          "name": "",
          "type": "int256"
        }
      ],
      "stateMutability": "view",
      "type": "function"
    },
    {
      "inputs": [],
      "name": "factory",
      "outputs": [
        {
          "internalType": "address",
          "name": "",
          "type": "address"
        }
      ],
      "stateMutability": "view",
      "type": "function"
    },
    {
      "inputs": [
        {
          "internalType": "address",
          "name": "",
          "type": "address"
        },
        {
          "internalType": "uint8",
          "name": "",
          "type": "uint8"
        }
      ],
      "name": "feeAndRates",
      "outputs": [
        {
          "internalType": "uint256",
          "name": "",
          "type": "uint256"
        }
      ],
      "stateMutability": "view",
      "type": "function"
    },
    {
      "inputs": [],
      "name": "feeVault",
      "outputs": [
        {
          "internalType": "address",
          "name": "",
          "type": "address"
        }
      ],
      "stateMutability": "view",
      "type": "function"
    },
    {
      "inputs": [],
      "name": "fundFee",
      "outputs": [
        {
          "internalType": "address",
          "name": "",
          "type": "address"
        }
      ],
      "stateMutability": "view",
      "type": "function"
    },
    {
      "inputs": [
        {
          "internalType": "address",
          "name": "market",
          "type": "address"
        }
      ],
      "name": "getExecFee",
      "outputs": [
        {
          "internalType": "uint256",
          "name": "",
          "type": "uint256"
        }
      ],
      "stateMutability": "view",
      "type": "function"
    },
    {
      "inputs": [
        {
          "components": [
            {
              "internalType": "address",
              "name": "_market",
              "type": "address"
            },
            {
              "internalType": "bool",
              "name": "_isLong",
              "type": "bool"
            },
            {
              "internalType": "uint256",
              "name": "_oraclePrice",
              "type": "uint256"
            },
            {
              "internalType": "bool",
              "name": "isOpen",
              "type": "bool"
            },
            {
              "internalType": "address",
              "name": "_account",
              "type": "address"
            },
            {
              "internalType": "uint256",
              "name": "_sizeDelta",
              "type": "uint256"
            },
            {
              "internalType": "uint256",
              "name": "_price",
              "type": "uint256"
            },
            {
              "internalType": "uint256",
              "name": "_slippage",
              "type": "uint256"
            },
            {
              "internalType": "bool",
              "name": "_isExec",
              "type": "bool"
            },
            {
              "internalType": "uint8",
              "name": "liqState",
              "type": "uint8"
            },
            {
              "internalType": "uint64",
              "name": "_fromOrder",
              "type": "uint64"
            },
            {
              "internalType": "bytes32",
              "name": "_refCode",
              "type": "bytes32"
            },
            {
              "internalType": "uint256",
              "name": "collateralDelta",
              "type": "uint256"
            },
            {
              "internalType": "uint8",
              "name": "execNum",
              "type": "uint8"
            },
            {
              "internalType": "uint256[]",
              "name": "inputs",
              "type": "uint256[]"
            }
          ],
          "internalType": "struct MarketDataTypes.UpdatePositionInputs",
          "name": "params",
          "type": "tuple"
        },
        {
          "components": [
            {
              "internalType": "address",
              "name": "market",
              "type": "address"
            },
            {
              "internalType": "bool",
              "name": "isLong",
              "type": "bool"
            },
            {
              "internalType": "uint32",
              "name": "lastTime",
              "type": "uint32"
            },
            {
              "internalType": "uint216",
              "name": "extra3",
              "type": "uint216"
            },
            {
              "internalType": "uint256",
              "name": "size",
              "type": "uint256"
            },
            {
              "internalType": "uint256",
              "name": "collateral",
              "type": "uint256"
            },
            {
              "internalType": "uint256",
              "name": "averagePrice",
              "type": "uint256"
            },
            {
              "internalType": "int256",
              "name": "entryFundingRate",
              "type": "int256"
            },
            {
              "internalType": "int256",
              "name": "realisedPnl",
              "type": "int256"
            },
            {
              "internalType": "uint256",
              "name": "extra0",
              "type": "uint256"
            },
            {
              "internalType": "uint256",
              "name": "extra1",
              "type": "uint256"
            },
            {
              "internalType": "uint256",
              "name": "extra2",
              "type": "uint256"
            }
          ],
          "internalType": "struct Position.Props",
          "name": "position",
          "type": "tuple"
        }
      ],
      "name": "getFees",
      "outputs": [
        {
          "internalType": "int256[]",
          "name": "fees",
          "type": "int256[]"
        }
      ],
      "stateMutability": "view",
      "type": "function"
    },
    {
      "inputs": [
        {
          "internalType": "address",
          "name": "market",
          "type": "address"
        },
        {
          "internalType": "bool",
          "name": "isLong",
          "type": "bool"
        }
      ],
      "name": "getFundingRate",
      "outputs": [
        {
          "internalType": "int256",
          "name": "",
          "type": "int256"
        }
      ],
      "stateMutability": "view",
      "type": "function"
    },
    {
      "inputs": [
        {
          "components": [
            {
              "internalType": "address",
              "name": "_market",
              "type": "address"
            },
            {
              "internalType": "bool",
              "name": "_isLong",
              "type": "bool"
            },
            {
              "internalType": "uint256",
              "name": "_oraclePrice",
              "type": "uint256"
            },
            {
              "internalType": "bool",
              "name": "isOpen",
              "type": "bool"
            },
            {
              "internalType": "bool",
              "name": "isCreate",
              "type": "bool"
            },
            {
              "components": [
                {
                  "internalType": "uint8",
                  "name": "version",
                  "type": "uint8"
                },
                {
                  "internalType": "uint32",
                  "name": "updatedAtBlock",
                  "type": "uint32"
                },
                {
                  "internalType": "uint8",
                  "name": "triggerAbove",
                  "type": "uint8"
                },
                {
                  "internalType": "address",
                  "name": "account",
                  "type": "address"
                },
                {
                  "internalType": "uint48",
                  "name": "extra3",
                  "type": "uint48"
                },
                {
                  "internalType": "uint128",
                  "name": "collateral",
                  "type": "uint128"
                },
                {
                  "internalType": "uint128",
                  "name": "size",
                  "type": "uint128"
                },
                {
                  "internalType": "uint128",
                  "name": "price",
                  "type": "uint128"
                },
                {
                  "internalType": "uint128",
                  "name": "extra1",
                  "type": "uint128"
                },
                {
                  "internalType": "uint64",
                  "name": "orderID",
                  "type": "uint64"
                },
                {
                  "internalType": "uint64",
                  "name": "extra2",
                  "type": "uint64"
                },
                {
                  "internalType": "uint128",
                  "name": "extra0",
                  "type": "uint128"
                },
                {
                  "internalType": "bytes32",
                  "name": "refCode",
                  "type": "bytes32"
                }
              ],
              "internalType": "struct Order.Props",
              "name": "_order",
              "type": "tuple"
            },
            {
              "internalType": "uint256[]",
              "name": "inputs",
              "type": "uint256[]"
            }
          ],
          "internalType": "struct MarketDataTypes.UpdateOrderInputs",
          "name": "params",
          "type": "tuple"
        }
      ],
      "name": "getOrderFees",
      "outputs": [
        {
          "internalType": "int256",
          "name": "fees",
          "type": "int256"
        }
      ],
      "stateMutability": "view",
      "type": "function"
    },
    {
      "inputs": [
        {
          "internalType": "bytes32",
          "name": "role",
          "type": "bytes32"
        }
      ],
      "name": "getRoleAdmin",
      "outputs": [
        {
          "internalType": "bytes32",
          "name": "",
          "type": "bytes32"
        }
      ],
      "stateMutability": "view",
      "type": "function"
    },
    {
      "inputs": [
        {
          "internalType": "address",
          "name": "_account",
          "type": "address"
        }
      ],
      "name": "grantControllerRoleByMarketManager",
      "outputs": [],
      "stateMutability": "nonpayable",
      "type": "function"
    },
    {
      "inputs": [
        {
          "internalType": "bytes32",
          "name": "role",
          "type": "bytes32"
        },
        {
          "internalType": "address",
          "name": "account",
          "type": "address"
        }
      ],
      "name": "grantRole",
      "outputs": [],
      "stateMutability": "nonpayable",
      "type": "function"
    },
    {
      "inputs": [
        {
          "internalType": "bytes32",
          "name": "role",
          "type": "bytes32"
        },
        {
          "internalType": "address",
          "name": "account",
          "type": "address"
        }
      ],
      "name": "hasRole",
      "outputs": [
        {
          "internalType": "bool",
          "name": "",
          "type": "bool"
        }
      ],
      "stateMutability": "view",
      "type": "function"
    },
    {
      "inputs": [
        {
          "internalType": "address",
          "name": "vault",
          "type": "address"
        },
        {
          "internalType": "address",
          "name": "fundingFee",
          "type": "address"
        }
      ],
      "name": "initialize",
      "outputs": [],
      "stateMutability": "nonpayable",
      "type": "function"
    },
    {
      "inputs": [],
      "name": "owner",
      "outputs": [
        {
          "internalType": "address",
          "name": "",
          "type": "address"
        }
      ],
      "stateMutability": "view",
      "type": "function"
    },
    {
      "inputs": [
        {
          "internalType": "address",
          "name": "account",
          "type": "address"
        },
        {
          "internalType": "address",
          "name": "token",
          "type": "address"
        },
        {
          "internalType": "int256[]",
          "name": "fees",
          "type": "int256[]"
        },
        {
          "internalType": "int256",
          "name": "feesTotal",
          "type": "int256"
        }
      ],
      "name": "payoutFees",
      "outputs": [],
      "stateMutability": "nonpayable",
      "type": "function"
    },
    {
      "inputs": [],
      "name": "renounceOwnership",
      "outputs": [],
      "stateMutability": "nonpayable",
      "type": "function"
    },
    {
      "inputs": [
        {
          "internalType": "bytes32",
          "name": "role",
          "type": "bytes32"
        },
        {
          "internalType": "address",
          "name": "account",
          "type": "address"
        }
      ],
      "name": "renounceRole",
      "outputs": [],
      "stateMutability": "nonpayable",
      "type": "function"
    },
    {
      "inputs": [
        {
          "internalType": "bytes32",
          "name": "role",
          "type": "bytes32"
        },
        {
          "internalType": "address",
          "name": "account",
          "type": "address"
        }
      ],
      "name": "revokeRole",
      "outputs": [],
      "stateMutability": "nonpayable",
      "type": "function"
    },
    {
      "inputs": [
        {
          "internalType": "address",
          "name": "market",
          "type": "address"
        },
        {
          "internalType": "uint256[]",
          "name": "rates",
          "type": "uint256[]"
        }
      ],
      "name": "setFeeAndRates",
      "outputs": [],
      "stateMutability": "nonpayable",
      "type": "function"
    },
    {
      "inputs": [
        {
          "internalType": "address",
          "name": "vault",
          "type": "address"
        }
      ],
      "name": "setFeeVault",
      "outputs": [],
      "stateMutability": "nonpayable",
      "type": "function"
    },
    {
      "inputs": [
        {
          "internalType": "address",
          "name": "fundingFee",
          "type": "address"
        }
      ],
      "name": "setFundFee",
      "outputs": [],
      "stateMutability": "nonpayable",
      "type": "function"
    },
    {
      "inputs": [
        {
          "internalType": "bytes4",
          "name": "interfaceId",
          "type": "bytes4"
        }
      ],
      "name": "supportsInterface",
      "outputs": [
        {
          "internalType": "bool",
          "name": "",
          "type": "bool"
        }
      ],
      "stateMutability": "view",
      "type": "function"
    },
    {
      "inputs": [
        {
          "internalType": "address",
          "name": "to",
          "type": "address"
        }
      ],
      "name": "transferAdmin",
      "outputs": [],
      "stateMutability": "nonpayable",
      "type": "function"
    },
    {
      "inputs": [
        {
          "internalType": "address",
          "name": "newOwner",
          "type": "address"
        }
      ],
      "name": "transferOwnership",
      "outputs": [],
      "stateMutability": "nonpayable",
      "type": "function"
    },
    {
      "inputs": [
        {
          "internalType": "address",
          "name": "market",
          "type": "address"
        },
        {
          "internalType": "uint256",
          "name": "longSize",
          "type": "uint256"
        },
        {
          "internalType": "uint256",
          "name": "shortSize",
          "type": "uint256"
        }
      ],
      "name": "updateCumulativeFundingRate",
      "outputs": [],
      "stateMutability": "nonpayable",
      "type": "function"
    },
    {
      "inputs": [
        {
          "internalType": "address",
          "name": "token",
          "type": "address"
        },
        {
          "internalType": "address",
          "name": "to",
          "type": "address"
        },
        {
          "internalType": "uint256",
          "name": "amount",
          "type": "uint256"
        }
      ],
      "name": "withdraw",
      "outputs": [],
      "stateMutability": "nonpayable",
      "type": "function"
    }
  ],
  "bytecode": "0x60806040523480156200001157600080fd5b5060405162002d2538038062002d2583398101604081905262000034916200021d565b806200004033620000f2565b62000056816200014460201b620011121760201c565b506001600160a01b038116620000a45760405162461bcd60e51b815260206004820152600f60248201526e696e76616c6964206164647265737360881b604482015260640160405180910390fd5b600580546001600160a01b0319166001600160a01b038316179055620000eb7f241ecf16d79d0f8dbfb92cbc07fe17840425976cf0667f022fe9877caa831b083362000170565b506200024f565b600180546001600160a01b038381166001600160a01b0319831681179093556040519116919082907f8be0079c531659141344cd1fd0a4f28419497f9722a3daafe3b4186f6b6457e090600090a35050565b426002556200015333620000f2565b6200016060003362000211565b6200016d60008262000211565b50565b6000828152602081815260408083206001600160a01b038516845290915290205460ff166200020d576000828152602081815260408083206001600160a01b03851684529091529020805460ff19166001179055620001cc3390565b6001600160a01b0316816001600160a01b0316837f2f8788117e7eff1d82e926ec794901d17c78024a50270940304540a733656f0d60405160405180910390a45b5050565b6200020d828262000170565b6000602082840312156200023057600080fd5b81516001600160a01b03811681146200024857600080fd5b9392505050565b612ac6806200025f6000396000f3fe608060405234801561001057600080fd5b50600436106101e55760003560e01c80638da5cb5b1161010f578063c8830bf5116100a2578063d9caed1211610071578063d9caed1214610467578063e50f19ef1461047a578063f2fde38b1461048d578063f4ca4d1d146104a057600080fd5b8063c8830bf514610403578063c9cf9f3a14610416578063d547741f14610429578063d87780681461043c57600080fd5b8063a217fddf116100de578063a217fddf146103c2578063a591f97f146103ca578063c45a0155146103dd578063c6f83ad1146103f057600080fd5b80638da5cb5b1461037857806391d14854146103895780639472f7d31461039c578063966ace28146103af57600080fd5b806336568abe11610187578063715018a611610156578063715018a61461033757806375829def1461033f5780637dd49023146103525780637fe4a6981461036557600080fd5b806336568abe146102de57806341510263146102f1578063478222c214610311578063485cc9551461032457600080fd5b8063248a9ca3116101c3578063248a9ca3146102685780632f2ff15d1461028b57806333abd028146102a057806334f32e25146102cb57600080fd5b806301ffc9a7146101ea57806309d398971461021257806320981df414610255575b600080fd5b6101fd6101f8366004611ca0565b6104a8565b60405190151581526020015b60405180910390f35b610247610220366004611cef565b6001600160a01b031660009081526006602090815260408083206003845290915290205490565b604051908152602001610209565b610247610263366004611d25565b6104df565b610247610276366004611d5e565b60009081526020819052604090206001015490565b61029e610299366004611d77565b610563565b005b6004546102b3906001600160a01b031681565b6040516001600160a01b039091168152602001610209565b6102476102d9366004611d25565b61058d565b61029e6102ec366004611d77565b6105c8565b6103046102ff36600461202f565b61064b565b60405161020991906121b8565b6003546102b3906001600160a01b031681565b61029e6103323660046121cb565b610674565b61029e610857565b61029e61034d366004611cef565b61086b565b61029e6103603660046121f9565b610895565b61029e610373366004611cef565b610a64565b6001546001600160a01b03166102b3565b6101fd610397366004611d77565b610a8e565b61029e6103aa366004612248565b610ab7565b61029e6103bd366004612248565b610c99565b610247600081565b61029e6103d8366004611cef565b610d00565b6005546102b3906001600160a01b031681565b61029e6103fe3660046122b1565b610d95565b61024761041136600461240d565b610e4f565b61029e610424366004611cef565b610ed0565b61029e610437366004611d77565b610f65565b61024761044a3660046124db565b600660209081526000928352604080842090915290825290205481565b61029e610475366004612507565b610f8a565b61029e610488366004612548565b611028565b61029e61049b366004611cef565b61108a565b610247611103565b60006001600160e01b03198216637965db0b60e01b14806104d957506301ffc9a760e01b6001600160e01b03198316145b92915050565b60048054604051630826077d60e21b81526001600160a01b03858116938201939093528315156024820152600092909116906320981df4906044015b602060405180830381865afa158015610538573d6000803e3d6000fd5b505050506040513d601f19601f8201168201806040525081019061055c91906125a9565b9392505050565b60008281526020819052604090206001015461057e81611135565b610588838361113f565b505050565b6003546040516334f32e2560e01b81526001600160a01b038481166004830152831515602483015260009216906334f32e259060440161051b565b6001600160a01b038116331461063d5760405162461bcd60e51b815260206004820152602f60248201527f416363657373436f6e74726f6c3a2063616e206f6e6c792072656e6f756e636560448201526e103937b632b9903337b91039b2b63360891b60648201526084015b60405180910390fd5b61064782826111c3565b5050565b606061055c8361066d8560000151866020015186608001518760e00151611228565b60066112bd565b600154600160a81b900460ff161580801561069a575060018054600160a01b900460ff16105b806106ba5750303b1580156106ba575060018054600160a01b900460ff16145b61071d5760405162461bcd60e51b815260206004820152602e60248201527f496e697469616c697a61626c653a20636f6e747261637420697320616c72656160448201526d191e481a5b9a5d1a585b1a5e995960921b6064820152608401610634565b6001805460ff60a01b1916600160a01b179055801561074a576001805460ff60a81b1916600160a81b1790555b6001600160a01b0383166107945760405162461bcd60e51b81526020600482015260116024820152701a5b9d985b1a5908199959481d985d5b1d607a1b6044820152606401610634565b6001600160a01b0382166107dc5760405162461bcd60e51b815260206004820152600f60248201526e696e76616c69642066756e6446656560881b6044820152606401610634565b600380546001600160a01b038086166001600160a01b03199283161790925560048054928516929091169190911790558015610588576001805460ff60a81b191681556040519081527f7f26b83ff96e1f2b6a682f133852f6798a09c465da95921460cefb38474024989060200160405180910390a1505050565b61085f61146d565b61086960006114c7565b565b600061087681611135565b610881600083611519565b61088a826114c7565b6106476000336111c3565b7f8d1089725c0dc266707fa6207730fb801dcd03108bfed7a21099bd303651d2b760006108c28133610a8e565b9050801561091f5762015180600254426108dc91906125d8565b1061091a5760405162461bcd60e51b815260206004820152600e60248201526d1858c81d1a5b59481c185cdcd95960921b6044820152606401610634565b610929565b6109298233611523565b600083511161096b5760405162461bcd60e51b815260206004820152600e60248201526d696e76616c696420706172616d7360901b6044820152606401610634565b60005b83518160ff161015610a5d576000848260ff1681518110610991576109916125eb565b60200260200101519050848260ff16815181106109b0576109b06125eb565b6020908102919091018101516001600160a01b038816600081815260068452604080822060ff88168084529552902091909155865190917f8e26fb53d63c548677b068d08742bea435b6ecb7911ab3c5ad68fbccddeaf5fe91859185918a91908110610a1e57610a1e6125eb565b6020908102919091018101516040805160ff90951685529184019290925282015260600160405180910390a25080610a5581612601565b91505061096e565b5050505050565b7f8d1089725c0dc266707fa6207730fb801dcd03108bfed7a21099bd303651d2b76101e581611135565b6000918252602082815260408084206001600160a01b0393909316845291905290205460ff1690565b610ac03361157c565b80610af05750610af07fcb58d6d985142a614029cdf01861b4fe094d5919a47e69b8310dc4093d9d6ad033610a8e565b610b0c5760405162461bcd60e51b815260040161063490612620565b6000811315610b4a5760405162461bcd60e51b815260206004820152600a602482015269085999595cd51bdd185b60b21b6044820152606401610634565b6003546040516370a0823160e01b81526001600160a01b0391821660048201526000918516906370a0823190602401602060405180830381865afa158015610b96573d6000803e3d6000fd5b505050506040513d601f19601f82011682018060405250810190610bba91906125a9565b9050610bc582612657565b811115610bd857610bd582612657565b90505b600354604051636ce5768960e11b81526001600160a01b038681166004830152336024830152604482018490529091169063d9caed12906064015b600060405180830381600087803b158015610c2d57600080fd5b505af1158015610c41573d6000803e3d6000fd5b50505050336001600160a01b0316856001600160a01b03167f51b85031527a935663233d62a057687d039b9fbcd79c55e46a5b24510159336f8584604051610c8a929190612673565b60405180910390a35050505050565b610ca23361157c565b80610cd25750610cd27fcb58d6d985142a614029cdf01861b4fe094d5919a47e69b8310dc4093d9d6ad033610a8e565b610cee5760405162461bcd60e51b815260040161063490612620565b610cfa848484846116a8565b50505050565b610d297f241ecf16d79d0f8dbfb92cbc07fe17840425976cf0667f022fe9877caa831b08611135565b6001600160a01b038116610d735760405162461bcd60e51b81526020600482015260116024820152701a5b9d985b1a5908199959481d985d5b1d607a1b6044820152606401610634565b600380546001600160a01b0319166001600160a01b0392909216919091179055565b610d9e3361157c565b610ddb5760405162461bcd60e51b815260206004820152600e60248201526d1a5b9d985b1a59081b585c9ad95d60921b6044820152606401610634565b6004805460405163c6f83ad160e01b81526001600160a01b0386811693820193909352602481018590526044810184905291169063c6f83ad190606401600060405180830381600087803b158015610e3257600080fd5b505af1158015610e46573d6000803e3d6000fd5b50505050505050565b600080826060015115610e6457506000610e68565b5060015b6000610e8c84600001518560a0015160c001516001600160801b03168460066117c8565b84516001600160a01b0316600090815260066020908152604080832060038452909152902054909150610ec7610ec28284612695565b61185d565b95945050505050565b610ef97f241ecf16d79d0f8dbfb92cbc07fe17840425976cf0667f022fe9877caa831b08611135565b6004546001600160a01b0316610f435760405162461bcd60e51b815260206004820152600f60248201526e696e76616c69642066756e6446656560881b6044820152606401610634565b600480546001600160a01b0319166001600160a01b0392909216919091179055565b600082815260208190526040902060010154610f8081611135565b61058883836111c3565b7f5d8e12c39142ff96d79d04d15d1ba1269e4fe57bb9d26f43523628b34ba108ec610fb481611135565b600354604051636ce5768960e11b81526001600160a01b0386811660048301528581166024830152604482018590529091169063d9caed1290606401600060405180830381600087803b15801561100a57600080fd5b505af115801561101e573d6000803e3d6000fd5b5050505050505050565b6110313361157c565b8061106157506110617fcb58d6d985142a614029cdf01861b4fe094d5919a47e69b8310dc4093d9d6ad033610a8e565b61107d5760405162461bcd60e51b815260040161063490612620565b61058883838360006116a8565b61109261146d565b6001600160a01b0381166110f75760405162461bcd60e51b815260206004820152602660248201527f4f776e61626c653a206e6577206f776e657220697320746865207a65726f206160448201526564647265737360d01b6064820152608401610634565b611100816114c7565b50565b61110f6008600a61278c565b81565b4260025561111f336114c7565b61112a600033611519565b611100600082611519565b6111008133611523565b6111498282610a8e565b610647576000828152602081815260408083206001600160a01b03851684529091529020805460ff1916600117905561117f3390565b6001600160a01b0316816001600160a01b0316837f2f8788117e7eff1d82e926ec794901d17c78024a50270940304540a733656f0d60405160405180910390a45050565b6111cd8282610a8e565b15610647576000828152602081815260408083206001600160a01b0385168085529252808320805460ff1916905551339285917ff6391f5c32d9c69d2a47ea670b442974b53935d1edc7fd64eb21e047a839171b9190a45050565b6004805460405163478c57cd60e11b81526001600160a01b03878116938201939093526024810185905260448101849052851515606482015260009290911690638f18af9a90608401602060405180830381865afa15801561128e573d6000803e3d6000fd5b505050506040513d601f19601f820116820180604052508101906112b291906125a9565b90505b949350505050565b60408051600c8082526101a0820190925260609160208201610180803683370190505084519091508382600260ff16815181106112fc576112fc6125eb565b602090810291909101015260a085015115801561131d575061018085015115155b15611328575061055c565b84606001511561136d5760a085015161134690829060005b866117c8565b82600060ff168151811061135c5761135c6125eb565b6020026020010181815250506113fa565b60a085015161137f9082906001611340565b82600160ff1681518110611395576113956125eb565b60200260200101818152505084610120015160ff166001036113fa576001600160a01b038116600090815260208481526040808320600480855292529091205483519091829185919081106113ec576113ec6125eb565b602002602001018181525050505b6101a085015160ff1615611465576001600160a01b038116600090815260208481526040808320600384529091529020546101a086015161143e9060ff1682612798565b90508083600360ff1681518110611457576114576125eb565b602002602001018181525050505b509392505050565b6001546001600160a01b031633146108695760405162461bcd60e51b815260206004820181905260248201527f4f776e61626c653a2063616c6c6572206973206e6f7420746865206f776e65726044820152606401610634565b600180546001600160a01b038381166001600160a01b0319831681179093556040519116919082907f8be0079c531659141344cd1fd0a4f28419497f9722a3daafe3b4186f6b6457e090600090a35050565b610647828261113f565b61152d8282610a8e565b6106475761153a816118cb565b6115458360206118dd565b6040516020016115569291906127d3565b60408051601f198184030181529082905262461bcd60e51b825261063491600401612848565b600080600560009054906101000a90046001600160a01b03166001600160a01b031663ec2c90166040518163ffffffff1660e01b8152600401600060405180830381865afa1580156115d2573d6000803e3d6000fd5b505050506040513d6000823e601f3d908101601f191682016040526115fa9190810190612891565b805190915060005b8181101561169d5782818151811061161c5761161c6125eb565b6020026020010151602001516001600160a01b0316856001600160a01b03160361168b57828181518110611652576116526125eb565b60200260200101516060015180610ec75750828181518110611676576116766125eb565b60200260200101516080015195945050505050565b8061169581612a05565b915050611602565b506000949350505050565b604051636eb1769f60e11b81523360048201523060248201526000906001600160a01b0385169063dd62ed3e90604401602060405180830381865afa1580156116f5573d6000803e3d6000fd5b505050506040513d601f19601f8201168201806040525081019061171991906125a9565b9050806000036117295750610cfa565b600354611745906001600160a01b038681169133911684611a78565b8115611783576004805460405163d6f5066b60e01b81523392810192909252602482018490526001600160a01b03169063d6f5066b90604401610c13565b336001600160a01b0316856001600160a01b03167f51b85031527a935663233d62a057687d039b9fbcd79c55e46a5b24510159336f8584604051610c8a929190612673565b6000836000036117da575060006112b5565b6001600160a01b03851660009081526020838152604080832060ff871684529091528120549081900361180d5750620186a05b600061181b6008600a61278c565b826118286008600a61278c565b61183291906125d8565b61183c9088612798565b6118469190612a1e565b905061185281876125d8565b979650505050505050565b60006001600160ff1b038211156118c75760405162461bcd60e51b815260206004820152602860248201527f53616665436173743a2076616c756520646f65736e27742066697420696e2061604482015267371034b73a191a9b60c11b6064820152608401610634565b5090565b60606104d96001600160a01b03831660145b606060006118ec836002612798565b6118f7906002612695565b6001600160401b0381111561190e5761190e611d9c565b6040519080825280601f01601f191660200182016040528015611938576020820181803683370190505b509050600360fc1b81600081518110611953576119536125eb565b60200101906001600160f81b031916908160001a905350600f60fb1b81600181518110611982576119826125eb565b60200101906001600160f81b031916908160001a90535060006119a6846002612798565b6119b1906001612695565b90505b6001811115611a29576f181899199a1a9b1b9c1cb0b131b232b360811b85600f16601081106119e5576119e56125eb565b1a60f81b8282815181106119fb576119fb6125eb565b60200101906001600160f81b031916908160001a90535060049490941c93611a2281612a40565b90506119b4565b50831561055c5760405162461bcd60e51b815260206004820181905260248201527f537472696e67733a20686578206c656e67746820696e73756666696369656e746044820152606401610634565b604080516001600160a01b038581166024830152848116604483015260648083018590528351808403909101815260849092018352602080830180516001600160e01b03166323b872dd60e01b17905283518085019094528084527f5361666545524332303a206c6f772d6c6576656c2063616c6c206661696c656490840152610cfa92879291600091611b10918516908490611b8d565b8051909150156105885780806020019051810190611b2e9190612a57565b6105885760405162461bcd60e51b815260206004820152602a60248201527f5361666545524332303a204552433230206f7065726174696f6e20646964206e6044820152691bdd081cdd58d8d9595960b21b6064820152608401610634565b60606112b5848460008585600080866001600160a01b03168587604051611bb49190612a74565b60006040518083038185875af1925050503d8060008114611bf1576040519150601f19603f3d011682016040523d82523d6000602084013e611bf6565b606091505b50915091506118528783838760608315611c71578251600003611c6a576001600160a01b0385163b611c6a5760405162461bcd60e51b815260206004820152601d60248201527f416464726573733a2063616c6c20746f206e6f6e2d636f6e74726163740000006044820152606401610634565b50816112b5565b6112b58383815115611c865781518083602001fd5b8060405162461bcd60e51b81526004016106349190612848565b600060208284031215611cb257600080fd5b81356001600160e01b03198116811461055c57600080fd5b6001600160a01b038116811461110057600080fd5b8035611cea81611cca565b919050565b600060208284031215611d0157600080fd5b813561055c81611cca565b801515811461110057600080fd5b8035611cea81611d0c565b60008060408385031215611d3857600080fd5b8235611d4381611cca565b91506020830135611d5381611d0c565b809150509250929050565b600060208284031215611d7057600080fd5b5035919050565b60008060408385031215611d8a57600080fd5b823591506020830135611d5381611cca565b634e487b7160e01b600052604160045260246000fd5b60405161018081016001600160401b0381118282101715611dd557611dd5611d9c565b60405290565b6040516101e081016001600160401b0381118282101715611dd557611dd5611d9c565b6040516101a081016001600160401b0381118282101715611dd557611dd5611d9c565b60405160e081016001600160401b0381118282101715611dd557611dd5611d9c565b60405160a081016001600160401b0381118282101715611dd557611dd5611d9c565b604051601f8201601f191681016001600160401b0381118282101715611e8d57611e8d611d9c565b604052919050565b803560ff81168114611cea57600080fd5b80356001600160401b0381168114611cea57600080fd5b60006001600160401b03821115611ed657611ed6611d9c565b5060051b60200190565b600082601f830112611ef157600080fd5b81356020611f06611f0183611ebd565b611e65565b82815260059290921b84018101918181019086841115611f2557600080fd5b8286015b84811015611f405780358352918301918301611f29565b509695505050505050565b803563ffffffff81168114611cea57600080fd5b80356001600160d81b0381168114611cea57600080fd5b60006101808284031215611f8957600080fd5b611f91611db2565b9050611f9c82611cdf565b8152611faa60208301611d1a565b6020820152611fbb60408301611f4b565b6040820152611fcc60608301611f5f565b60608201526080820135608082015260a082013560a082015260c082013560c082015260e082013560e082015261010080830135818301525061012080830135818301525061014080830135818301525061016080830135818301525092915050565b6000806101a080848603121561204457600080fd5b83356001600160401b038082111561205b57600080fd5b908501906101e0828803121561207057600080fd5b612078611ddb565b61208183611cdf565b815261208f60208401611d1a565b6020820152604083013560408201526120aa60608401611d1a565b60608201526120bb60808401611cdf565b608082015260a083013560a082015260c083013560c082015260e083013560e08201526101006120ec818501611d1a565b908201526101206120fe848201611e95565b90820152610140612110848201611ea6565b9082015261016083810135908201526101808084013590820152612135848401611e95565b848201526101c09350838301358281111561214f57600080fd5b61215b89828601611ee0565b8583015250809550505050506121748460208501611f76565b90509250929050565b600081518084526020808501945080840160005b838110156121ad57815187529582019590820190600101612191565b509495945050505050565b60208152600061055c602083018461217d565b600080604083850312156121de57600080fd5b82356121e981611cca565b91506020830135611d5381611cca565b6000806040838503121561220c57600080fd5b823561221781611cca565b915060208301356001600160401b0381111561223257600080fd5b61223e85828601611ee0565b9150509250929050565b6000806000806080858703121561225e57600080fd5b843561226981611cca565b9350602085013561227981611cca565b925060408501356001600160401b0381111561229457600080fd5b6122a087828801611ee0565b949793965093946060013593505050565b6000806000606084860312156122c657600080fd5b83356122d181611cca565b95602085013595506040909401359392505050565b803565ffffffffffff81168114611cea57600080fd5b80356001600160801b0381168114611cea57600080fd5b60006101a0828403121561232657600080fd5b61232e611dfe565b905061233982611e95565b815261234760208301611f4b565b602082015261235860408301611e95565b604082015261236960608301611cdf565b606082015261237a608083016122e6565b608082015261238b60a083016122fc565b60a082015261239c60c083016122fc565b60c08201526123ad60e083016122fc565b60e08201526101006123c08184016122fc565b908201526101206123d2838201611ea6565b908201526101406123e4838201611ea6565b908201526101606123f68382016122fc565b818301525061018080830135818301525092915050565b60006020828403121561241f57600080fd5b81356001600160401b038082111561243657600080fd5b90830190610260828603121561244b57600080fd5b612453611e21565b61245c83611cdf565b815261246a60208401611d1a565b60208201526040830135604082015261248560608401611d1a565b606082015261249660808401611d1a565b60808201526124a88660a08501612313565b60a0820152610240830135828111156124c057600080fd5b6124cc87828601611ee0565b60c08301525095945050505050565b600080604083850312156124ee57600080fd5b82356124f981611cca565b915061217460208401611e95565b60008060006060848603121561251c57600080fd5b833561252781611cca565b9250602084013561253781611cca565b929592945050506040919091013590565b60008060006060848603121561255d57600080fd5b833561256881611cca565b9250602084013561257881611cca565b915060408401356001600160401b0381111561259357600080fd5b61259f86828701611ee0565b9150509250925092565b6000602082840312156125bb57600080fd5b5051919050565b634e487b7160e01b600052601160045260246000fd5b818103818111156104d9576104d96125c2565b634e487b7160e01b600052603260045260246000fd5b600060ff821660ff8103612617576126176125c2565b60010192915050565b60208082526018908201527f666565526f757465723a206163636573732064656e6965640000000000000000604082015260600190565b6000600160ff1b820161266c5761266c6125c2565b5060000390565b604081526000612686604083018561217d565b90508260208301529392505050565b808201808211156104d9576104d96125c2565b600181815b808511156126e35781600019048211156126c9576126c96125c2565b808516156126d657918102915b93841c93908002906126ad565b509250929050565b6000826126fa575060016104d9565b81612707575060006104d9565b816001811461271d576002811461272757612743565b60019150506104d9565b60ff841115612738576127386125c2565b50506001821b6104d9565b5060208310610133831016604e8410600b8410161715612766575081810a6104d9565b61277083836126a8565b8060001904821115612784576127846125c2565b029392505050565b600061055c83836126eb565b80820281158282048414176104d9576104d96125c2565b60005b838110156127ca5781810151838201526020016127b2565b50506000910152565b7f416363657373436f6e74726f6c3a206163636f756e742000000000000000000081526000835161280b8160178501602088016127af565b7001034b99036b4b9b9b4b733903937b6329607d1b601791840191820152835161283c8160288401602088016127af565b01602801949350505050565b60208152600082518060208401526128678160408501602087016127af565b601f01601f19169190910160400192915050565b8051611cea81611cca565b8051611cea81611d0c565b600060208083850312156128a457600080fd5b82516001600160401b03808211156128bb57600080fd5b818501915085601f8301126128cf57600080fd5b81516128dd611f0182611ebd565b81815260059190911b830184019084810190888311156128fc57600080fd5b8585015b838110156129f85780518581111561291757600080fd5b8601601f1960a0828d038201121561292f5760008081fd5b612937611e43565b89830151888111156129495760008081fd5b8301603f81018e1361295b5760008081fd5b8a81015160408a82111561297157612971611d9c565b6129818d86601f85011601611e65565b94508185528f818385010111156129985760008081fd5b6129a7828e87018386016127af565b8484526129b581870161287b565b8d85015260609450848601518185015250505060806129d5818501612886565b838301526129e560a08501612886565b9082015285525050918601918601612900565b5098975050505050505050565b600060018201612a1757612a176125c2565b5060010190565b600082612a3b57634e487b7160e01b600052601260045260246000fd5b500490565b600081612a4f57612a4f6125c2565b506000190190565b600060208284031215612a6957600080fd5b815161055c81611d0c565b60008251612a868184602087016127af565b919091019291505056fea26469706673582212201dbbbd7b121d06cfca0e4069176013ad2e0bc83fd1bb180f7b9cf50d0c9befeb64736f6c63430008110033",
  "linkReferences": {},
  "deployedLinkReferences": {}
}