{
    "_format": "hh-sol-artifact-1",
    "contractName": "FeeRouter",
    "sourceName": "contracts/fee/FeeRouter.sol",
    "abi": [
        {
            "anonymous": false,
            "inputs": [
                {
                    "indexed": false,
                    "internalType": "uint8",
                    "name": "version",
                    "type": "uint8"
                }
            ],
            "name": "Initialized",
            "type": "event"
        },
        {
            "anonymous": false,
            "inputs": [
                {
                    "indexed": true,
                    "internalType": "address",
                    "name": "account",
                    "type": "address"
                },
                {
                    "indexed": true,
                    "internalType": "address",
                    "name": "market",
                    "type": "address"
                },
                {
                    "indexed": false,
                    "internalType": "int256[]",
                    "name": "fees",
                    "type": "int256[]"
                },
                {
                    "indexed": false,
                    "internalType": "uint256",
                    "name": "amount",
                    "type": "uint256"
                }
            ],
            "name": "UpdateFee",
            "type": "event"
        },
        {
            "anonymous": false,
            "inputs": [
                {
                    "indexed": true,
                    "internalType": "address",
                    "name": "market",
                    "type": "address"
                },
                {
                    "indexed": false,
                    "internalType": "uint8",
                    "name": "kind",
                    "type": "uint8"
                },
                {
                    "indexed": false,
                    "internalType": "uint256",
                    "name": "oldFeeOrRate",
                    "type": "uint256"
                },
                {
                    "indexed": false,
                    "internalType": "uint256",
                    "name": "feeOrRate",
                    "type": "uint256"
                }
            ],
            "name": "UpdateFeeAndRates",
            "type": "event"
        },
        {
            "anonymous": false,
            "inputs": [
                {
                    "indexed": true,
                    "internalType": "address",
                    "name": "account",
                    "type": "address"
                },
                {
                    "indexed": true,
                    "internalType": "address",
                    "name": "market",
                    "type": "address"
                },
                {
                    "indexed": false,
                    "internalType": "int256[]",
                    "name": "fees",
                    "type": "int256[]"
                },
                {
                    "indexed": false,
                    "internalType": "uint256",
                    "name": "amount",
                    "type": "uint256"
                }
            ],
            "name": "UpdatePayoutFee",
            "type": "event"
        },
        {
            "inputs": [],
            "name": "DEFAULT_ADMIN_ROLE",
            "outputs": [
                {
                    "internalType": "bytes32",
                    "name": "",
                    "type": "bytes32"
                }
            ],
            "stateMutability": "view",
            "type": "function"
        },
        {
            "inputs": [],
            "name": "FEE_RATE_PRECISION",
            "outputs": [
                {
                    "internalType": "uint256",
                    "name": "",
                    "type": "uint256"
                }
            ],
            "stateMutability": "view",
            "type": "function"
        },
        {
            "inputs": [
                {
                    "internalType": "address",
                    "name": "newOwner",
                    "type": "address"
                }
            ],
            "name": "_transferOwnership",
            "outputs": [],
            "stateMutability": "pure",
            "type": "function"
        },
        {
            "inputs": [
                {
                    "internalType": "address",
                    "name": "account",
                    "type": "address"
                },
                {
                    "internalType": "address",
                    "name": "token",
                    "type": "address"
                },
                {
                    "internalType": "int256[]",
                    "name": "fees",
                    "type": "int256[]"
                },
                {
                    "internalType": "uint256",
                    "name": "fundfeeLoss",
                    "type": "uint256"
                }
            ],
            "name": "collectFees",
            "outputs": [],
            "stateMutability": "nonpayable",
            "type": "function"
        },
        {
            "inputs": [
                {
                    "internalType": "address",
                    "name": "account",
                    "type": "address"
                },
                {
                    "internalType": "address",
                    "name": "token",
                    "type": "address"
                },
                {
                    "internalType": "int256[]",
                    "name": "fees",
                    "type": "int256[]"
                }
            ],
            "name": "collectFees",
            "outputs": [],
            "stateMutability": "nonpayable",
            "type": "function"
        },
        {
            "inputs": [
                {
                    "internalType": "address",
                    "name": "market",
                    "type": "address"
                },
                {
                    "internalType": "bool",
                    "name": "isLong",
                    "type": "bool"
                }
            ],
            "name": "cumulativeFundingRates",
            "outputs": [
                {
                    "internalType": "int256",
                    "name": "",
                    "type": "int256"
                }
            ],
            "stateMutability": "view",
            "type": "function"
        },
        {
            "inputs": [],
            "name": "factory",
            "outputs": [
                {
                    "internalType": "address",
                    "name": "",
                    "type": "address"
                }
            ],
            "stateMutability": "view",
            "type": "function"
        },
        {
            "inputs": [
                {
                    "internalType": "address",
                    "name": "",
                    "type": "address"
                },
                {
                    "internalType": "uint8",
                    "name": "",
                    "type": "uint8"
                }
            ],
            "name": "feeAndRates",
            "outputs": [
                {
                    "internalType": "uint256",
                    "name": "",
                    "type": "uint256"
                }
            ],
            "stateMutability": "view",
            "type": "function"
        },
        {
            "inputs": [],
            "name": "feeVault",
            "outputs": [
                {
                    "internalType": "address",
                    "name": "",
                    "type": "address"
                }
            ],
            "stateMutability": "view",
            "type": "function"
        },
        {
            "inputs": [],
            "name": "fundFee",
            "outputs": [
                {
                    "internalType": "address",
                    "name": "",
                    "type": "address"
                }
            ],
            "stateMutability": "view",
            "type": "function"
        },
        {
            "inputs": [
                {
                    "internalType": "address",
                    "name": "market",
                    "type": "address"
                }
            ],
            "name": "getExecFee",
            "outputs": [
                {
                    "internalType": "uint256",
                    "name": "",
                    "type": "uint256"
                }
            ],
            "stateMutability": "view",
            "type": "function"
        },
        {
            "inputs": [
                {
                    "components": [
                        {
                            "internalType": "address",
                            "name": "_market",
                            "type": "address"
                        },
                        {
                            "internalType": "bool",
                            "name": "_isLong",
                            "type": "bool"
                        },
                        {
                            "internalType": "uint256",
                            "name": "_oraclePrice",
                            "type": "uint256"
                        },
                        {
                            "internalType": "bool",
                            "name": "isOpen",
                            "type": "bool"
                        },
                        {
                            "internalType": "address",
                            "name": "_account",
                            "type": "address"
                        },
                        {
                            "internalType": "uint256",
                            "name": "_sizeDelta",
                            "type": "uint256"
                        },
                        {
                            "internalType": "uint256",
                            "name": "_price",
                            "type": "uint256"
                        },
                        {
                            "internalType": "uint256",
                            "name": "_slippage",
                            "type": "uint256"
                        },
                        {
                            "internalType": "bool",
                            "name": "_isExec",
                            "type": "bool"
                        },
                        {
                            "internalType": "uint8",
                            "name": "liqState",
                            "type": "uint8"
                        },
                        {
                            "internalType": "uint64",
                            "name": "_fromOrder",
                            "type": "uint64"
                        },
                        {
                            "internalType": "bytes32",
                            "name": "_refCode",
                            "type": "bytes32"
                        },
                        {
                            "internalType": "uint256",
                            "name": "collateralDelta",
                            "type": "uint256"
                        },
                        {
                            "internalType": "uint8",
                            "name": "execNum",
                            "type": "uint8"
                        },
                        {
                            "internalType": "uint256[]",
                            "name": "inputs",
                            "type": "uint256[]"
                        }
                    ],
                    "internalType": "struct MarketDataTypes.UpdatePositionInputs",
                    "name": "params",
                    "type": "tuple"
                },
                {
                    "components": [
                        {
                            "internalType": "address",
                            "name": "market",
                            "type": "address"
                        },
                        {
                            "internalType": "bool",
                            "name": "isLong",
                            "type": "bool"
                        },
                        {
                            "internalType": "uint32",
                            "name": "lastTime",
                            "type": "uint32"
                        },
                        {
                            "internalType": "uint216",
                            "name": "extra3",
                            "type": "uint216"
                        },
                        {
                            "internalType": "uint256",
                            "name": "size",
                            "type": "uint256"
                        },
                        {
                            "internalType": "uint256",
                            "name": "collateral",
                            "type": "uint256"
                        },
                        {
                            "internalType": "uint256",
                            "name": "averagePrice",
                            "type": "uint256"
                        },
                        {
                            "internalType": "int256",
                            "name": "entryFundingRate",
                            "type": "int256"
                        },
                        {
                            "internalType": "int256",
                            "name": "realisedPnl",
                            "type": "int256"
                        },
                        {
                            "internalType": "uint256",
                            "name": "extra0",
                            "type": "uint256"
                        },
                        {
                            "internalType": "uint256",
                            "name": "extra1",
                            "type": "uint256"
                        },
                        {
                            "internalType": "uint256",
                            "name": "extra2",
                            "type": "uint256"
                        }
                    ],
                    "internalType": "struct Position.Props",
                    "name": "position",
                    "type": "tuple"
                }
            ],
            "name": "getFees",
            "outputs": [
                {
                    "internalType": "int256[]",
                    "name": "fees",
                    "type": "int256[]"
                }
            ],
            "stateMutability": "view",
            "type": "function"
        },
        {
            "inputs": [
                {
                    "internalType": "address",
                    "name": "market",
                    "type": "address"
                },
                {
                    "internalType": "bool",
                    "name": "isLong",
                    "type": "bool"
                }
            ],
            "name": "getFundingRate",
            "outputs": [
                {
                    "internalType": "int256",
                    "name": "",
                    "type": "int256"
                }
            ],
            "stateMutability": "view",
            "type": "function"
        },
        {
            "inputs": [
                {
                    "components": [
                        {
                            "internalType": "address",
                            "name": "_market",
                            "type": "address"
                        },
                        {
                            "internalType": "bool",
                            "name": "_isLong",
                            "type": "bool"
                        },
                        {
                            "internalType": "uint256",
                            "name": "_oraclePrice",
                            "type": "uint256"
                        },
                        {
                            "internalType": "bool",
                            "name": "isOpen",
                            "type": "bool"
                        },
                        {
                            "internalType": "bool",
                            "name": "isCreate",
                            "type": "bool"
                        },
                        {
                            "components": [
                                {
                                    "internalType": "uint8",
                                    "name": "version",
                                    "type": "uint8"
                                },
                                {
                                    "internalType": "uint32",
                                    "name": "updatedAtBlock",
                                    "type": "uint32"
                                },
                                {
                                    "internalType": "uint8",
                                    "name": "triggerAbove",
                                    "type": "uint8"
                                },
                                {
                                    "internalType": "address",
                                    "name": "account",
                                    "type": "address"
                                },
                                {
                                    "internalType": "uint48",
                                    "name": "extra3",
                                    "type": "uint48"
                                },
                                {
                                    "internalType": "uint128",
                                    "name": "collateral",
                                    "type": "uint128"
                                },
                                {
                                    "internalType": "uint128",
                                    "name": "size",
                                    "type": "uint128"
                                },
                                {
                                    "internalType": "uint128",
                                    "name": "price",
                                    "type": "uint128"
                                },
                                {
                                    "internalType": "uint128",
                                    "name": "extra1",
                                    "type": "uint128"
                                },
                                {
                                    "internalType": "uint64",
                                    "name": "orderID",
                                    "type": "uint64"
                                },
                                {
                                    "internalType": "uint64",
                                    "name": "extra2",
                                    "type": "uint64"
                                },
                                {
                                    "internalType": "uint128",
                                    "name": "extra0",
                                    "type": "uint128"
                                },
                                {
                                    "internalType": "bytes32",
                                    "name": "refCode",
                                    "type": "bytes32"
                                }
                            ],
                            "internalType": "struct Order.Props",
                            "name": "_order",
                            "type": "tuple"
                        },
                        {
                            "internalType": "uint256[]",
                            "name": "inputs",
                            "type": "uint256[]"
                        }
                    ],
                    "internalType": "struct MarketDataTypes.UpdateOrderInputs",
                    "name": "params",
                    "type": "tuple"
                }
            ],
            "name": "getOrderFees",
            "outputs": [
                {
                    "internalType": "int256",
                    "name": "fees",
                    "type": "int256"
                }
            ],
            "stateMutability": "view",
            "type": "function"
        },
        {
            "inputs": [
                {
                    "internalType": "address",
                    "name": "_account",
                    "type": "address"
                }
            ],
            "name": "grantControllerRoleByMarketManager",
            "outputs": [],
            "stateMutability": "nonpayable",
            "type": "function"
        },
        {
            "inputs": [
                {
                    "internalType": "bytes32",
                    "name": "role",
                    "type": "bytes32"
                },
                {
                    "internalType": "address",
                    "name": "account",
                    "type": "address"
                }
            ],
            "name": "grantRole",
            "outputs": [],
            "stateMutability": "pure",
            "type": "function"
        },
        {
            "inputs": [
                {
                    "internalType": "bytes32",
                    "name": "role",
                    "type": "bytes32"
                },
                {
                    "internalType": "address",
                    "name": "account",
                    "type": "address"
                }
            ],
            "name": "hasRole",
            "outputs": [
                {
                    "internalType": "bool",
                    "name": "",
                    "type": "bool"
                }
            ],
            "stateMutability": "pure",
            "type": "function"
        },
        {
            "inputs": [
                {
                    "internalType": "address",
                    "name": "_factory",
                    "type": "address"
                },
                {
                    "internalType": "address",
                    "name": "vault",
                    "type": "address"
                },
                {
                    "internalType": "address",
                    "name": "fundingFee",
                    "type": "address"
                }
            ],
            "name": "initialize",
            "outputs": [],
            "stateMutability": "nonpayable",
            "type": "function"
        },
        {
            "inputs": [
                {
                    "internalType": "address",
                    "name": "market",
                    "type": "address"
                },
                {
                    "internalType": "uint8",
                    "name": "_len",
                    "type": "uint8"
                }
            ],
            "name": "migrateFeeAndRates",
            "outputs": [],
            "stateMutability": "nonpayable",
            "type": "function"
        },
        {
            "inputs": [
                {
                    "internalType": "address",
                    "name": "account",
                    "type": "address"
                },
                {
                    "internalType": "address",
                    "name": "token",
                    "type": "address"
                },
                {
                    "internalType": "int256[]",
                    "name": "fees",
                    "type": "int256[]"
                },
                {
                    "internalType": "uint256",
                    "name": "feesTotal",
                    "type": "uint256"
                }
            ],
            "name": "payoutFees",
            "outputs": [],
            "stateMutability": "nonpayable",
            "type": "function"
        },
        {
            "inputs": [
                {
                    "internalType": "bytes32",
                    "name": "role",
                    "type": "bytes32"
                },
                {
                    "internalType": "address",
                    "name": "account",
                    "type": "address"
                }
            ],
            "name": "revokeRole",
            "outputs": [],
            "stateMutability": "pure",
            "type": "function"
        },
        {
            "inputs": [
                {
                    "internalType": "address",
                    "name": "market",
                    "type": "address"
                },
                {
                    "internalType": "uint256[]",
                    "name": "rates",
                    "type": "uint256[]"
                }
            ],
            "name": "setFeeAndRates",
            "outputs": [],
            "stateMutability": "nonpayable",
            "type": "function"
        },
        {
            "inputs": [
                {
                    "internalType": "address",
                    "name": "vault",
                    "type": "address"
                }
            ],
            "name": "setFeeVault",
            "outputs": [],
            "stateMutability": "nonpayable",
            "type": "function"
        },
        {
            "inputs": [
                {
                    "internalType": "address",
                    "name": "fundingFee",
                    "type": "address"
                }
            ],
            "name": "setFundFee",
            "outputs": [],
            "stateMutability": "nonpayable",
            "type": "function"
        },
        {
            "inputs": [
                {
                    "internalType": "address",
                    "name": "to",
                    "type": "address"
                }
            ],
            "name": "transferAdmin",
            "outputs": [],
            "stateMutability": "nonpayable",
            "type": "function"
        },
        {
            "inputs": [
                {
                    "internalType": "address",
                    "name": "newOwner",
                    "type": "address"
                }
            ],
            "name": "transferOwnership",
            "outputs": [],
            "stateMutability": "pure",
            "type": "function"
        },
        {
            "inputs": [
                {
                    "internalType": "address",
                    "name": "market",
                    "type": "address"
                },
                {
                    "internalType": "uint256",
                    "name": "longSize",
                    "type": "uint256"
                },
                {
                    "internalType": "uint256",
                    "name": "shortSize",
                    "type": "uint256"
                }
            ],
            "name": "updateCumulativeFundingRate",
            "outputs": [],
            "stateMutability": "nonpayable",
            "type": "function"
        },
        {
            "inputs": [
                {
                    "internalType": "address",
                    "name": "token",
                    "type": "address"
                },
                {
                    "internalType": "address",
                    "name": "to",
                    "type": "address"
                },
                {
                    "internalType": "uint256",
                    "name": "amount",
                    "type": "uint256"
                }
            ],
            "name": "withdraw",
            "outputs": [],
            "stateMutability": "nonpayable",
            "type": "function"
        }
    ],
    "bytecode": "0x608060405234801561001057600080fd5b506124eb806100206000396000f3fe608060405234801561001057600080fd5b50600436106101c45760003560e01c8063a217fddf116100f9578063d29d44ee11610097578063d9caed1211610071578063d9caed12146103f2578063e50f19ef14610405578063f2fde38b146103b6578063f4ca4d1d1461041857600080fd5b8063d29d44ee146103b6578063d547741f14610239578063d8778068146103c757600080fd5b8063c45a0155116100d3578063c45a01551461036a578063c6f83ad11461037d578063c8830bf514610390578063c9cf9f3a146103a357600080fd5b8063a217fddf1461033c578063a591f97f14610344578063c0c53b8b1461035757600080fd5b8063478222c2116101665780637dd49023116101405780637dd49023146102e25780637fe4a698146102f557806391d1485414610303578063966ace281461032957600080fd5b8063478222c2146102a95780635bac2f60146102bc57806375829def146102cf57600080fd5b80632f2ff15d116101a25780632f2ff15d1461023957806333abd0281461024b57806334f32e2514610276578063415102631461028957600080fd5b806309d39897146101c95780631a6ca8091461021157806320981df414610226575b600080fd5b6101fe6101d736600461179b565b6001600160a01b031660009081526005602090815260408083206003845290915290205490565b6040519081526020015b60405180910390f35b61022461021f36600461193f565b610420565b005b6101fe6102343660046119c1565b610594565b6102246102473660046119fa565b5050565b60035461025e906001600160a01b031681565b6040516001600160a01b039091168152602001610208565b6101fe6102843660046119c1565b610615565b61029c610297366004611b2b565b610650565b6040516102089190611cb4565b60025461025e906001600160a01b031681565b6102246102ca366004611cc7565b610679565b6102246102dd36600461179b565b610876565b6102246102f0366004611cf3565b610881565b6102246101c436600461179b565b6103196103113660046119fa565b600192915050565b6040519015158152602001610208565b61022461033736600461193f565b610a41565b6101fe600081565b61022461035236600461179b565b610a81565b610224610365366004611d42565b610aed565b60045461025e906001600160a01b031681565b61022461038b366004611d8d565b610d18565b6101fe61039e366004611ee9565b610dd0565b6102246103b136600461179b565b610e51565b6102246103c436600461179b565b50565b6101fe6103d5366004611cc7565b600560209081526000928352604080842090915290825290205481565b610224610400366004611fb7565b610ebd565b610224610413366004611ff8565b610f51565b6101fe610f91565b61042933610fa0565b80610432575060015b6104575760405162461bcd60e51b815260040161044e90612059565b60405180910390fd5b6002546040516370a0823160e01b81526001600160a01b0391821660048201526000918516906370a0823190602401602060405180830381865afa1580156104a3573d6000803e3d6000fd5b505050506040513d601f19601f820116820180604052508101906104c79190612090565b9050818111156104d45750805b600254604051636ce5768960e11b81526001600160a01b038681166004830152336024830152604482018490529091169063d9caed1290606401600060405180830381600087803b15801561052857600080fd5b505af115801561053c573d6000803e3d6000fd5b50505050336001600160a01b0316856001600160a01b03167f66f918a5780b532a6d1d0d9d5b8bb0e9b5180775146dd5c853b36d345b9d104385846040516105859291906120a9565b60405180910390a35050505050565b600354604051630826077d60e21b81526001600160a01b038481166004830152831515602483015260009216906320981df4906044015b602060405180830381865afa1580156105e8573d6000803e3d6000fd5b505050506040513d601f19601f8201168201806040525081019061060c9190612090565b90505b92915050565b6002546040516334f32e2560e01b81526001600160a01b038481166004830152831515602483015260009216906334f32e25906044016105cb565b606061060c836106728560000151866020015186608001518760e001516110be565b600561114e565b7f8d1089725c0dc266707fa6207730fb801dcd03108bfed7a21099bd303651d2b760006106a68133610311565b905080156106fe5762093a80600154426106c091906120e1565b106106fe5760405162461bcd60e51b815260206004820152600e60248201526d1858c81d1a5b59481c185cdcd95960921b604482015260640161044e565b6000846001600160a01b031663f29ebf616040518163ffffffff1660e01b81526004016020604051808303816000875af1158015610740573d6000803e3d6000fd5b505050506040513d601f19601f8201168201806040525081019061076491906120f4565b905060005b8460ff168160ff16101561086e57604051631b0ef00d60e31b81526001600160a01b03878116600483015260ff831660248301526000919084169063d877806890604401602060405180830381865afa1580156107ca573d6000803e3d6000fd5b505050506040513d601f19601f820116820180604052508101906107ee9190612090565b6001600160a01b038816600081815260056020908152604080832060ff88168085529083529281902085905580519283529082018490528101839052919250907f8e26fb53d63c548677b068d08742bea435b6ecb7911ab3c5ad68fbccddeaf5fe9060600160405180910390a2508061086681612111565b915050610769565b505050505050565b600061024760003382565b7f8d1089725c0dc266707fa6207730fb801dcd03108bfed7a21099bd303651d2b760006108ae8133610311565b905080156109065762093a80600154426108c891906120e1565b106109065760405162461bcd60e51b815260206004820152600e60248201526d1858c81d1a5b59481c185cdcd95960921b604482015260640161044e565b60008351116109485760405162461bcd60e51b815260206004820152600e60248201526d696e76616c696420706172616d7360901b604482015260640161044e565b60005b83518160ff161015610a3a576000848260ff168151811061096e5761096e612130565b60200260200101519050848260ff168151811061098d5761098d612130565b6020908102919091018101516001600160a01b038816600081815260058452604080822060ff88168084529552902091909155865190917f8e26fb53d63c548677b068d08742bea435b6ecb7911ab3c5ad68fbccddeaf5fe91859185918a919081106109fb576109fb612130565b6020908102919091018101516040805160ff90951685529184019290925282015260600160405180910390a25080610a3281612111565b91505061094b565b5050505050565b610a4a33610fa0565b80610a53575060015b610a6f5760405162461bcd60e51b815260040161044e90612059565b610a7b848484846112ff565b50505050565b6001600160a01b038116610acb5760405162461bcd60e51b81526020600482015260116024820152701a5b9d985b1a5908199959481d985d5b1d607a1b604482015260640161044e565b600280546001600160a01b0319166001600160a01b0392909216919091179055565b600054610100900460ff1615808015610b0d5750600054600160ff909116105b80610b275750303b158015610b27575060005460ff166001145b610b8a5760405162461bcd60e51b815260206004820152602e60248201527f496e697469616c697a61626c653a20636f6e747261637420697320616c72656160448201526d191e481a5b9a5d1a585b1a5e995960921b606482015260840161044e565b6000805460ff191660011790558015610bad576000805461ff0019166101001790555b6001600160a01b038416610bf55760405162461bcd60e51b815260206004820152600f60248201526e696e76616c6964206164647265737360881b604482015260640161044e565b6001600160a01b038316610c3f5760405162461bcd60e51b81526020600482015260116024820152701a5b9d985b1a5908199959481d985d5b1d607a1b604482015260640161044e565b6001600160a01b038216610c875760405162461bcd60e51b815260206004820152600f60248201526e696e76616c69642066756e6446656560881b604482015260640161044e565b610c9084611444565b600480546001600160a01b038087166001600160a01b0319928316179092556002805486841690831617905560038054928516929091169190911790558015610a7b576000805461ff0019169055604051600181527f7f26b83ff96e1f2b6a682f133852f6798a09c465da95921460cefb38474024989060200160405180910390a150505050565b610d2133610fa0565b610d5e5760405162461bcd60e51b815260206004820152600e60248201526d1a5b9d985b1a59081b585c9ad95d60921b604482015260640161044e565b60035460405163c6f83ad160e01b81526001600160a01b03858116600483015260248201859052604482018490529091169063c6f83ad190606401600060405180830381600087803b158015610db357600080fd5b505af1158015610dc7573d6000803e3d6000fd5b50505050505050565b600080826060015115610de557506000610de9565b5060015b6000610e0d84600001518560a0015160c001516001600160801b031684600561144b565b84516001600160a01b0316600090815260056020908152604080832060038452909152902054909150610e48610e438284612146565b6114e0565b95945050505050565b6003546001600160a01b0316610e9b5760405162461bcd60e51b815260206004820152600f60248201526e696e76616c69642066756e6446656560881b604482015260640161044e565b600380546001600160a01b0319166001600160a01b0392909216919091179055565b600254604051636ce5768960e11b81526001600160a01b0385811660048301528481166024830152604482018490527f5d8e12c39142ff96d79d04d15d1ba1269e4fe57bb9d26f43523628b34ba108ec92169063d9caed1290606401600060405180830381600087803b158015610f3357600080fd5b505af1158015610f47573d6000803e3d6000fd5b5050505050505050565b610f5a33610fa0565b80610f63575060015b610f7f5760405162461bcd60e51b815260040161044e90612059565b610f8c83838360006112ff565b505050565b610f9d6008600a61223d565b81565b6004805460408051637616480b60e11b8152905160009384936001600160a01b03169263ec2c9016928183019286928290030181865afa158015610fe8573d6000803e3d6000fd5b505050506040513d6000823e601f3d908101601f191682016040526110109190810190612283565b805190915060005b818110156110b35782818151811061103257611032612130565b6020026020010151602001516001600160a01b0316856001600160a01b0316036110a15782818151811061106857611068612130565b60200260200101516060015180610e48575082818151811061108c5761108c612130565b60200260200101516080015195945050505050565b806110ab816123f7565b915050611018565b506000949350505050565b60035460405163478c57cd60e11b81526001600160a01b038681166004830152602482018590526044820184905285151560648301526000921690638f18af9a90608401602060405180830381865afa15801561111f573d6000803e3d6000fd5b505050506040513d601f19601f820116820180604052508101906111439190612090565b90505b949350505050565b60408051600c8082526101a0820190925260609160208201610180803683370190505084519091508382600260ff168151811061118d5761118d612130565b602090810291909101015260a08501511580156111ae575061018085015115155b156111b957506112f8565b8460600151156111fe5760a08501516111d790829060005b8661144b565b82600060ff16815181106111ed576111ed612130565b60200260200101818152505061128b565b60a085015161121090829060016111d1565b82600160ff168151811061122657611226612130565b60200260200101818152505084610120015160ff1660010361128b576001600160a01b0381166000908152602084815260408083206004808552925290912054835190918291859190811061127d5761127d612130565b602002602001018181525050505b6101a085015160ff16156112f6576001600160a01b038116600090815260208481526040808320600384529091529020546101a08601516112cf9060ff1682612410565b90508083600360ff16815181106112e8576112e8612130565b602002602001018181525050505b505b9392505050565b604051636eb1769f60e11b81523360048201523060248201526000906001600160a01b0385169063dd62ed3e90604401602060405180830381865afa15801561134c573d6000803e3d6000fd5b505050506040513d601f19601f820116820180604052508101906113709190612090565b9050801561139457600254611394906001600160a01b03868116913391168461154e565b81156113ff5760035460405163d6f5066b60e01b8152336004820152602481018490526001600160a01b039091169063d6f5066b90604401600060405180830381600087803b1580156113e657600080fd5b505af11580156113fa573d6000803e3d6000fd5b505050505b336001600160a01b0316856001600160a01b03167f51b85031527a935663233d62a057687d039b9fbcd79c55e46a5b24510159336f85846040516105859291906120a9565b4260015550565b60008360000361145d57506000611146565b6001600160a01b03851660009081526020838152604080832060ff87168452909152812054908190036114905750620186a05b600061149e6008600a61223d565b826114ab6008600a61223d565b6114b591906120e1565b6114bf9088612410565b6114c99190612427565b90506114d581876120e1565b979650505050505050565b60006001600160ff1b0382111561154a5760405162461bcd60e51b815260206004820152602860248201527f53616665436173743a2076616c756520646f65736e27742066697420696e2061604482015267371034b73a191a9b60c11b606482015260840161044e565b5090565b604080516001600160a01b038581166024830152848116604483015260648083018590528351808403909101815260849092018352602080830180516001600160e01b03166323b872dd60e01b17905283518085019094528084527f5361666545524332303a206c6f772d6c6576656c2063616c6c206661696c656490840152610a7b928792916000916115e6918516908490611663565b805190915015610f8c57808060200190518101906116049190612449565b610f8c5760405162461bcd60e51b815260206004820152602a60248201527f5361666545524332303a204552433230206f7065726174696f6e20646964206e6044820152691bdd081cdd58d8d9595960b21b606482015260840161044e565b6060611146848460008585600080866001600160a01b0316858760405161168a9190612466565b60006040518083038185875af1925050503d80600081146116c7576040519150601f19603f3d011682016040523d82523d6000602084013e6116cc565b606091505b50915091506114d58783838760608315611747578251600003611740576001600160a01b0385163b6117405760405162461bcd60e51b815260206004820152601d60248201527f416464726573733a2063616c6c20746f206e6f6e2d636f6e7472616374000000604482015260640161044e565b5081611146565b611146838381511561175c5781518083602001fd5b8060405162461bcd60e51b815260040161044e9190612482565b6001600160a01b03811681146103c457600080fd5b803561179681611776565b919050565b6000602082840312156117ad57600080fd5b81356112f881611776565b634e487b7160e01b600052604160045260246000fd5b60405161018081016001600160401b03811182821017156117f1576117f16117b8565b60405290565b6040516101e081016001600160401b03811182821017156117f1576117f16117b8565b6040516101a081016001600160401b03811182821017156117f1576117f16117b8565b60405160e081016001600160401b03811182821017156117f1576117f16117b8565b60405160a081016001600160401b03811182821017156117f1576117f16117b8565b604051601f8201601f191681016001600160401b03811182821017156118a9576118a96117b8565b604052919050565b60006001600160401b038211156118ca576118ca6117b8565b5060051b60200190565b600082601f8301126118e557600080fd5b813560206118fa6118f5836118b1565b611881565b82815260059290921b8401810191818101908684111561191957600080fd5b8286015b84811015611934578035835291830191830161191d565b509695505050505050565b6000806000806080858703121561195557600080fd5b843561196081611776565b9350602085013561197081611776565b925060408501356001600160401b0381111561198b57600080fd5b611997878288016118d4565b949793965093946060013593505050565b80151581146103c457600080fd5b8035611796816119a8565b600080604083850312156119d457600080fd5b82356119df81611776565b915060208301356119ef816119a8565b809150509250929050565b60008060408385031215611a0d57600080fd5b8235915060208301356119ef81611776565b803560ff8116811461179657600080fd5b80356001600160401b038116811461179657600080fd5b803563ffffffff8116811461179657600080fd5b80356001600160d81b038116811461179657600080fd5b60006101808284031215611a8557600080fd5b611a8d6117ce565b9050611a988261178b565b8152611aa6602083016119b6565b6020820152611ab760408301611a47565b6040820152611ac860608301611a5b565b60608201526080820135608082015260a082013560a082015260c082013560c082015260e082013560e082015261010080830135818301525061012080830135818301525061014080830135818301525061016080830135818301525092915050565b6000806101a0808486031215611b4057600080fd5b83356001600160401b0380821115611b5757600080fd5b908501906101e08288031215611b6c57600080fd5b611b746117f7565b611b7d8361178b565b8152611b8b602084016119b6565b602082015260408301356040820152611ba6606084016119b6565b6060820152611bb76080840161178b565b608082015260a083013560a082015260c083013560c082015260e083013560e0820152610100611be88185016119b6565b90820152610120611bfa848201611a1f565b90820152610140611c0c848201611a30565b9082015261016083810135908201526101808084013590820152611c31848401611a1f565b848201526101c093508383013582811115611c4b57600080fd5b611c57898286016118d4565b858301525080955050505050611c708460208501611a72565b90509250929050565b600081518084526020808501945080840160005b83811015611ca957815187529582019590820190600101611c8d565b509495945050505050565b60208152600061060c6020830184611c79565b60008060408385031215611cda57600080fd5b8235611ce581611776565b9150611c7060208401611a1f565b60008060408385031215611d0657600080fd5b8235611d1181611776565b915060208301356001600160401b03811115611d2c57600080fd5b611d38858286016118d4565b9150509250929050565b600080600060608486031215611d5757600080fd5b8335611d6281611776565b92506020840135611d7281611776565b91506040840135611d8281611776565b809150509250925092565b600080600060608486031215611da257600080fd5b8335611dad81611776565b95602085013595506040909401359392505050565b803565ffffffffffff8116811461179657600080fd5b80356001600160801b038116811461179657600080fd5b60006101a08284031215611e0257600080fd5b611e0a61181a565b9050611e1582611a1f565b8152611e2360208301611a47565b6020820152611e3460408301611a1f565b6040820152611e456060830161178b565b6060820152611e5660808301611dc2565b6080820152611e6760a08301611dd8565b60a0820152611e7860c08301611dd8565b60c0820152611e8960e08301611dd8565b60e0820152610100611e9c818401611dd8565b90820152610120611eae838201611a30565b90820152610140611ec0838201611a30565b90820152610160611ed2838201611dd8565b818301525061018080830135818301525092915050565b600060208284031215611efb57600080fd5b81356001600160401b0380821115611f1257600080fd5b908301906102608286031215611f2757600080fd5b611f2f61183d565b611f388361178b565b8152611f46602084016119b6565b602082015260408301356040820152611f61606084016119b6565b6060820152611f72608084016119b6565b6080820152611f848660a08501611def565b60a082015261024083013582811115611f9c57600080fd5b611fa8878286016118d4565b60c08301525095945050505050565b600080600060608486031215611fcc57600080fd5b8335611fd781611776565b92506020840135611fe781611776565b929592945050506040919091013590565b60008060006060848603121561200d57600080fd5b833561201881611776565b9250602084013561202881611776565b915060408401356001600160401b0381111561204357600080fd5b61204f868287016118d4565b9150509250925092565b60208082526018908201527f666565526f757465723a206163636573732064656e6965640000000000000000604082015260600190565b6000602082840312156120a257600080fd5b5051919050565b6040815260006120bc6040830185611c79565b90508260208301529392505050565b634e487b7160e01b600052601160045260246000fd5b8181038181111561060f5761060f6120cb565b60006020828403121561210657600080fd5b81516112f881611776565b600060ff821660ff8103612127576121276120cb565b60010192915050565b634e487b7160e01b600052603260045260246000fd5b8082018082111561060f5761060f6120cb565b600181815b8085111561219457816000190482111561217a5761217a6120cb565b8085161561218757918102915b93841c939080029061215e565b509250929050565b6000826121ab5750600161060f565b816121b85750600061060f565b81600181146121ce57600281146121d8576121f4565b600191505061060f565b60ff8411156121e9576121e96120cb565b50506001821b61060f565b5060208310610133831016604e8410600b8410161715612217575081810a61060f565b6122218383612159565b8060001904821115612235576122356120cb565b029392505050565b600061060c838361219c565b60005b8381101561226457818101518382015260200161224c565b50506000910152565b805161179681611776565b8051611796816119a8565b6000602080838503121561229657600080fd5b82516001600160401b03808211156122ad57600080fd5b818501915085601f8301126122c157600080fd5b81516122cf6118f5826118b1565b81815260059190911b830184019084810190888311156122ee57600080fd5b8585015b838110156123ea5780518581111561230957600080fd5b8601601f1960a0828d03820112156123215760008081fd5b61232961185f565b898301518881111561233b5760008081fd5b8301603f81018e1361234d5760008081fd5b8a81015160408a821115612363576123636117b8565b6123738d86601f85011601611881565b94508185528f8183850101111561238a5760008081fd5b612399828e8701838601612249565b8484526123a781870161226d565b8d85015260609450848601518185015250505060806123c7818501612278565b838301526123d760a08501612278565b90820152855250509186019186016122f2565b5098975050505050505050565b600060018201612409576124096120cb565b5060010190565b808202811582820484141761060f5761060f6120cb565b60008261244457634e487b7160e01b600052601260045260246000fd5b500490565b60006020828403121561245b57600080fd5b81516112f8816119a8565b60008251612478818460208701612249565b9190910192915050565b60208152600082518060208401526124a1816040850160208701612249565b601f01601f1916919091016040019291505056fea2646970667358221220219d89f4eb774d0ec815323b8383ba69f9097a936504ec0219577ee5774690ab64736f6c63430008110033",
    "linkReferences": {},
    "deployedLinkReferences": {}
}