{
  "_format": "hh-sol-artifact-1",
  "contractName": "FeeRouter",
  "sourceName": "contracts/fee/FeeRouter.sol",
  "abi": [
    {
      "inputs": [
        {
          "internalType": "address",
          "name": "_factory",
          "type": "address"
        }
      ],
      "stateMutability": "nonpayable",
      "type": "constructor"
    },
    {
      "anonymous": false,
      "inputs": [
        {
          "indexed": false,
          "internalType": "uint8",
          "name": "version",
          "type": "uint8"
        }
      ],
      "name": "Initialized",
      "type": "event"
    },
    {
      "anonymous": false,
      "inputs": [
        {
          "indexed": true,
          "internalType": "address",
          "name": "previousOwner",
          "type": "address"
        },
        {
          "indexed": true,
          "internalType": "address",
          "name": "newOwner",
          "type": "address"
        }
      ],
      "name": "OwnershipTransferred",
      "type": "event"
    },
    {
      "anonymous": false,
      "inputs": [
        {
          "indexed": true,
          "internalType": "bytes32",
          "name": "role",
          "type": "bytes32"
        },
        {
          "indexed": true,
          "internalType": "bytes32",
          "name": "previousAdminRole",
          "type": "bytes32"
        },
        {
          "indexed": true,
          "internalType": "bytes32",
          "name": "newAdminRole",
          "type": "bytes32"
        }
      ],
      "name": "RoleAdminChanged",
      "type": "event"
    },
    {
      "anonymous": false,
      "inputs": [
        {
          "indexed": true,
          "internalType": "bytes32",
          "name": "role",
          "type": "bytes32"
        },
        {
          "indexed": true,
          "internalType": "address",
          "name": "account",
          "type": "address"
        },
        {
          "indexed": true,
          "internalType": "address",
          "name": "sender",
          "type": "address"
        }
      ],
      "name": "RoleGranted",
      "type": "event"
    },
    {
      "anonymous": false,
      "inputs": [
        {
          "indexed": true,
          "internalType": "bytes32",
          "name": "role",
          "type": "bytes32"
        },
        {
          "indexed": true,
          "internalType": "address",
          "name": "account",
          "type": "address"
        },
        {
          "indexed": true,
          "internalType": "address",
          "name": "sender",
          "type": "address"
        }
      ],
      "name": "RoleRevoked",
      "type": "event"
    },
    {
      "anonymous": false,
      "inputs": [
        {
          "indexed": true,
          "internalType": "address",
          "name": "account",
          "type": "address"
        },
        {
          "indexed": true,
          "internalType": "address",
          "name": "market",
          "type": "address"
        },
        {
          "indexed": false,
          "internalType": "int256[]",
          "name": "fees",
          "type": "int256[]"
        },
        {
          "indexed": false,
          "internalType": "uint256",
          "name": "amount",
          "type": "uint256"
        }
      ],
      "name": "UpdateFee",
      "type": "event"
    },
    {
      "anonymous": false,
      "inputs": [
        {
          "indexed": true,
          "internalType": "address",
          "name": "market",
          "type": "address"
        },
        {
          "indexed": false,
          "internalType": "uint8",
          "name": "kind",
          "type": "uint8"
        },
        {
          "indexed": false,
          "internalType": "uint256",
          "name": "oldFeeOrRate",
          "type": "uint256"
        },
        {
          "indexed": false,
          "internalType": "uint256",
          "name": "feeOrRate",
          "type": "uint256"
        }
      ],
      "name": "UpdateFeeAndRates",
      "type": "event"
    },
    {
      "inputs": [],
      "name": "DEFAULT_ADMIN_ROLE",
      "outputs": [
        {
          "internalType": "bytes32",
          "name": "",
          "type": "bytes32"
        }
      ],
      "stateMutability": "view",
      "type": "function"
    },
    {
      "inputs": [],
      "name": "FEE_RATE_PRECISION",
      "outputs": [
        {
          "internalType": "uint256",
          "name": "",
          "type": "uint256"
        }
      ],
      "stateMutability": "view",
      "type": "function"
    },
    {
      "inputs": [
        {
          "internalType": "address",
          "name": "account",
          "type": "address"
        },
        {
          "internalType": "address",
          "name": "token",
          "type": "address"
        },
        {
          "internalType": "int256[]",
          "name": "fees",
          "type": "int256[]"
        },
        {
          "internalType": "uint256",
          "name": "fundfeeLoss",
          "type": "uint256"
        }
      ],
      "name": "collectFees",
      "outputs": [],
      "stateMutability": "nonpayable",
      "type": "function"
    },
    {
      "inputs": [
        {
          "internalType": "address",
          "name": "account",
          "type": "address"
        },
        {
          "internalType": "address",
          "name": "token",
          "type": "address"
        },
        {
          "internalType": "int256[]",
          "name": "fees",
          "type": "int256[]"
        }
      ],
      "name": "collectFees",
      "outputs": [],
      "stateMutability": "nonpayable",
      "type": "function"
    },
    {
      "inputs": [
        {
          "internalType": "address",
          "name": "market",
          "type": "address"
        },
        {
          "internalType": "bool",
          "name": "isLong",
          "type": "bool"
        }
      ],
      "name": "cumulativeFundingRates",
      "outputs": [
        {
          "internalType": "int256",
          "name": "",
          "type": "int256"
        }
      ],
      "stateMutability": "view",
      "type": "function"
    },
    {
      "inputs": [],
      "name": "factory",
      "outputs": [
        {
          "internalType": "address",
          "name": "",
          "type": "address"
        }
      ],
      "stateMutability": "view",
      "type": "function"
    },
    {
      "inputs": [
        {
          "internalType": "address",
          "name": "",
          "type": "address"
        },
        {
          "internalType": "uint8",
          "name": "",
          "type": "uint8"
        }
      ],
      "name": "feeAndRates",
      "outputs": [
        {
          "internalType": "uint256",
          "name": "",
          "type": "uint256"
        }
      ],
      "stateMutability": "view",
      "type": "function"
    },
    {
      "inputs": [],
      "name": "feeVault",
      "outputs": [
        {
          "internalType": "address",
          "name": "",
          "type": "address"
        }
      ],
      "stateMutability": "view",
      "type": "function"
    },
    {
      "inputs": [],
      "name": "fundFee",
      "outputs": [
        {
          "internalType": "address",
          "name": "",
          "type": "address"
        }
      ],
      "stateMutability": "view",
      "type": "function"
    },
    {
      "inputs": [
        {
          "internalType": "address",
          "name": "market",
          "type": "address"
        }
      ],
      "name": "getExecFee",
      "outputs": [
        {
          "internalType": "uint256",
          "name": "",
          "type": "uint256"
        }
      ],
      "stateMutability": "view",
      "type": "function"
    },
    {
      "inputs": [
        {
          "components": [
            {
              "internalType": "address",
              "name": "_market",
              "type": "address"
            },
            {
              "internalType": "bool",
              "name": "_isLong",
              "type": "bool"
            },
            {
              "internalType": "uint256",
              "name": "_oraclePrice",
              "type": "uint256"
            },
            {
              "internalType": "bool",
              "name": "isOpen",
              "type": "bool"
            },
            {
              "internalType": "address",
              "name": "_account",
              "type": "address"
            },
            {
              "internalType": "uint256",
              "name": "_sizeDelta",
              "type": "uint256"
            },
            {
              "internalType": "uint256",
              "name": "_price",
              "type": "uint256"
            },
            {
              "internalType": "uint256",
              "name": "_slippage",
              "type": "uint256"
            },
            {
              "internalType": "bool",
              "name": "_isExec",
              "type": "bool"
            },
            {
              "internalType": "uint8",
              "name": "liqState",
              "type": "uint8"
            },
            {
              "internalType": "uint64",
              "name": "_fromOrder",
              "type": "uint64"
            },
            {
              "internalType": "bytes32",
              "name": "_refCode",
              "type": "bytes32"
            },
            {
              "internalType": "uint256",
              "name": "collateralDelta",
              "type": "uint256"
            },
            {
              "internalType": "uint8",
              "name": "execNum",
              "type": "uint8"
            },
            {
              "internalType": "uint256[]",
              "name": "inputs",
              "type": "uint256[]"
            }
          ],
          "internalType": "struct MarketDataTypes.UpdatePositionInputs",
          "name": "params",
          "type": "tuple"
        },
        {
          "components": [
            {
              "internalType": "address",
              "name": "market",
              "type": "address"
            },
            {
              "internalType": "bool",
              "name": "isLong",
              "type": "bool"
            },
            {
              "internalType": "uint32",
              "name": "lastTime",
              "type": "uint32"
            },
            {
              "internalType": "uint216",
              "name": "extra3",
              "type": "uint216"
            },
            {
              "internalType": "uint256",
              "name": "size",
              "type": "uint256"
            },
            {
              "internalType": "uint256",
              "name": "collateral",
              "type": "uint256"
            },
            {
              "internalType": "uint256",
              "name": "averagePrice",
              "type": "uint256"
            },
            {
              "internalType": "int256",
              "name": "entryFundingRate",
              "type": "int256"
            },
            {
              "internalType": "int256",
              "name": "realisedPnl",
              "type": "int256"
            },
            {
              "internalType": "uint256",
              "name": "extra0",
              "type": "uint256"
            },
            {
              "internalType": "uint256",
              "name": "extra1",
              "type": "uint256"
            },
            {
              "internalType": "uint256",
              "name": "extra2",
              "type": "uint256"
            }
          ],
          "internalType": "struct Position.Props",
          "name": "position",
          "type": "tuple"
        }
      ],
      "name": "getFees",
      "outputs": [
        {
          "internalType": "int256[]",
          "name": "fees",
          "type": "int256[]"
        }
      ],
      "stateMutability": "view",
      "type": "function"
    },
    {
      "inputs": [
        {
          "internalType": "address",
          "name": "market",
          "type": "address"
        },
        {
          "internalType": "bool",
          "name": "isLong",
          "type": "bool"
        }
      ],
      "name": "getFundingRate",
      "outputs": [
        {
          "internalType": "int256",
          "name": "",
          "type": "int256"
        }
      ],
      "stateMutability": "view",
      "type": "function"
    },
    {
      "inputs": [
        {
          "components": [
            {
              "internalType": "address",
              "name": "_market",
              "type": "address"
            },
            {
              "internalType": "bool",
              "name": "_isLong",
              "type": "bool"
            },
            {
              "internalType": "uint256",
              "name": "_oraclePrice",
              "type": "uint256"
            },
            {
              "internalType": "bool",
              "name": "isOpen",
              "type": "bool"
            },
            {
              "internalType": "bool",
              "name": "isCreate",
              "type": "bool"
            },
            {
              "components": [
                {
                  "internalType": "uint8",
                  "name": "version",
                  "type": "uint8"
                },
                {
                  "internalType": "uint32",
                  "name": "updatedAtBlock",
                  "type": "uint32"
                },
                {
                  "internalType": "uint8",
                  "name": "triggerAbove",
                  "type": "uint8"
                },
                {
                  "internalType": "address",
                  "name": "account",
                  "type": "address"
                },
                {
                  "internalType": "uint48",
                  "name": "extra3",
                  "type": "uint48"
                },
                {
                  "internalType": "uint128",
                  "name": "collateral",
                  "type": "uint128"
                },
                {
                  "internalType": "uint128",
                  "name": "size",
                  "type": "uint128"
                },
                {
                  "internalType": "uint128",
                  "name": "price",
                  "type": "uint128"
                },
                {
                  "internalType": "uint128",
                  "name": "extra1",
                  "type": "uint128"
                },
                {
                  "internalType": "uint64",
                  "name": "orderID",
                  "type": "uint64"
                },
                {
                  "internalType": "uint64",
                  "name": "extra2",
                  "type": "uint64"
                },
                {
                  "internalType": "uint128",
                  "name": "extra0",
                  "type": "uint128"
                },
                {
                  "internalType": "bytes32",
                  "name": "refCode",
                  "type": "bytes32"
                }
              ],
              "internalType": "struct Order.Props",
              "name": "_order",
              "type": "tuple"
            },
            {
              "internalType": "uint256[]",
              "name": "inputs",
              "type": "uint256[]"
            }
          ],
          "internalType": "struct MarketDataTypes.UpdateOrderInputs",
          "name": "params",
          "type": "tuple"
        }
      ],
      "name": "getOrderFees",
      "outputs": [
        {
          "internalType": "int256",
          "name": "fees",
          "type": "int256"
        }
      ],
      "stateMutability": "view",
      "type": "function"
    },
    {
      "inputs": [
        {
          "internalType": "bytes32",
          "name": "role",
          "type": "bytes32"
        }
      ],
      "name": "getRoleAdmin",
      "outputs": [
        {
          "internalType": "bytes32",
          "name": "",
          "type": "bytes32"
        }
      ],
      "stateMutability": "view",
      "type": "function"
    },
    {
      "inputs": [
        {
          "internalType": "address",
          "name": "_account",
          "type": "address"
        }
      ],
      "name": "grantControllerRoleByMarketManager",
      "outputs": [],
      "stateMutability": "nonpayable",
      "type": "function"
    },
    {
      "inputs": [
        {
          "internalType": "bytes32",
          "name": "role",
          "type": "bytes32"
        },
        {
          "internalType": "address",
          "name": "account",
          "type": "address"
        }
      ],
      "name": "grantRole",
      "outputs": [],
      "stateMutability": "nonpayable",
      "type": "function"
    },
    {
      "inputs": [
        {
          "internalType": "bytes32",
          "name": "role",
          "type": "bytes32"
        },
        {
          "internalType": "address",
          "name": "account",
          "type": "address"
        }
      ],
      "name": "hasRole",
      "outputs": [
        {
          "internalType": "bool",
          "name": "",
          "type": "bool"
        }
      ],
      "stateMutability": "view",
      "type": "function"
    },
    {
      "inputs": [
        {
          "internalType": "address",
          "name": "vault",
          "type": "address"
        },
        {
          "internalType": "address",
          "name": "fundingFee",
          "type": "address"
        }
      ],
      "name": "initialize",
      "outputs": [],
      "stateMutability": "nonpayable",
      "type": "function"
    },
    {
      "inputs": [
        {
          "internalType": "address",
          "name": "market",
          "type": "address"
        },
        {
          "internalType": "uint8",
          "name": "_len",
          "type": "uint8"
        }
      ],
      "name": "migrateFeeAndRates",
      "outputs": [],
      "stateMutability": "nonpayable",
      "type": "function"
    },
    {
      "inputs": [],
      "name": "owner",
      "outputs": [
        {
          "internalType": "address",
          "name": "",
          "type": "address"
        }
      ],
      "stateMutability": "view",
      "type": "function"
    },
    {
      "inputs": [
        {
          "internalType": "address",
          "name": "account",
          "type": "address"
        },
        {
          "internalType": "address",
          "name": "token",
          "type": "address"
        },
        {
          "internalType": "int256[]",
          "name": "fees",
          "type": "int256[]"
        },
        {
          "internalType": "uint256",
          "name": "feesTotal",
          "type": "uint256"
        }
      ],
      "name": "payoutFees",
      "outputs": [],
      "stateMutability": "nonpayable",
      "type": "function"
    },
    {
      "inputs": [],
      "name": "renounceOwnership",
      "outputs": [],
      "stateMutability": "nonpayable",
      "type": "function"
    },
    {
      "inputs": [
        {
          "internalType": "bytes32",
          "name": "role",
          "type": "bytes32"
        },
        {
          "internalType": "address",
          "name": "account",
          "type": "address"
        }
      ],
      "name": "renounceRole",
      "outputs": [],
      "stateMutability": "nonpayable",
      "type": "function"
    },
    {
      "inputs": [
        {
          "internalType": "bytes32",
          "name": "role",
          "type": "bytes32"
        },
        {
          "internalType": "address",
          "name": "account",
          "type": "address"
        }
      ],
      "name": "revokeRole",
      "outputs": [],
      "stateMutability": "nonpayable",
      "type": "function"
    },
    {
      "inputs": [
        {
          "internalType": "address",
          "name": "market",
          "type": "address"
        },
        {
          "internalType": "uint256[]",
          "name": "rates",
          "type": "uint256[]"
        }
      ],
      "name": "setFeeAndRates",
      "outputs": [],
      "stateMutability": "nonpayable",
      "type": "function"
    },
    {
      "inputs": [
        {
          "internalType": "address",
          "name": "vault",
          "type": "address"
        }
      ],
      "name": "setFeeVault",
      "outputs": [],
      "stateMutability": "nonpayable",
      "type": "function"
    },
    {
      "inputs": [
        {
          "internalType": "address",
          "name": "fundingFee",
          "type": "address"
        }
      ],
      "name": "setFundFee",
      "outputs": [],
      "stateMutability": "nonpayable",
      "type": "function"
    },
    {
      "inputs": [
        {
          "internalType": "bytes4",
          "name": "interfaceId",
          "type": "bytes4"
        }
      ],
      "name": "supportsInterface",
      "outputs": [
        {
          "internalType": "bool",
          "name": "",
          "type": "bool"
        }
      ],
      "stateMutability": "view",
      "type": "function"
    },
    {
      "inputs": [
        {
          "internalType": "address",
          "name": "to",
          "type": "address"
        }
      ],
      "name": "transferAdmin",
      "outputs": [],
      "stateMutability": "nonpayable",
      "type": "function"
    },
    {
      "inputs": [
        {
          "internalType": "address",
          "name": "newOwner",
          "type": "address"
        }
      ],
      "name": "transferOwnership",
      "outputs": [],
      "stateMutability": "nonpayable",
      "type": "function"
    },
    {
      "inputs": [
        {
          "internalType": "address",
          "name": "market",
          "type": "address"
        },
        {
          "internalType": "uint256",
          "name": "longSize",
          "type": "uint256"
        },
        {
          "internalType": "uint256",
          "name": "shortSize",
          "type": "uint256"
        }
      ],
      "name": "updateCumulativeFundingRate",
      "outputs": [],
      "stateMutability": "nonpayable",
      "type": "function"
    },
    {
      "inputs": [
        {
          "internalType": "address",
          "name": "token",
          "type": "address"
        },
        {
          "internalType": "address",
          "name": "to",
          "type": "address"
        },
        {
          "internalType": "uint256",
          "name": "amount",
          "type": "uint256"
        }
      ],
      "name": "withdraw",
      "outputs": [],
      "stateMutability": "nonpayable",
      "type": "function"
    }
  ],
  "bytecode": "0x60806040523480156200001157600080fd5b5060405162002f0a38038062002f0a83398101604081905262000034916200022a565b806200004033620000ff565b62000056816200015160201b620012f11760201c565b506001600160a01b038116620000a45760405162461bcd60e51b815260206004820152600f60248201526e696e76616c6964206164647265737360881b604482015260640160405180910390fd5b600580546001600160a01b0319166001600160a01b038316179055620000cc6000336200017d565b620000f87f241ecf16d79d0f8dbfb92cbc07fe17840425976cf0667f022fe9877caa831b08336200017d565b506200025c565b600180546001600160a01b038381166001600160a01b0319831681179093556040519116919082907f8be0079c531659141344cd1fd0a4f28419497f9722a3daafe3b4186f6b6457e090600090a35050565b426002556200016033620000ff565b6200016d6000336200021e565b6200017a6000826200021e565b50565b6000828152602081815260408083206001600160a01b038516845290915290205460ff166200021a576000828152602081815260408083206001600160a01b03851684529091529020805460ff19166001179055620001d93390565b6001600160a01b0316816001600160a01b0316837f2f8788117e7eff1d82e926ec794901d17c78024a50270940304540a733656f0d60405160405180910390a45b5050565b6200021a82826200017d565b6000602082840312156200023d57600080fd5b81516001600160a01b03811681146200025557600080fd5b9392505050565b612c9e806200026c6000396000f3fe608060405234801561001057600080fd5b50600436106101f05760003560e01c80637fe4a6981161010f578063c8830bf5116100a2578063d9caed1211610071578063d9caed1214610485578063e50f19ef14610498578063f2fde38b146104ab578063f4ca4d1d146104be57600080fd5b8063c8830bf514610421578063c9cf9f3a14610434578063d547741f14610447578063d87780681461045a57600080fd5b8063a217fddf116100de578063a217fddf146103e0578063a591f97f146103e8578063c45a0155146103fb578063c6f83ad11461040e57600080fd5b80637fe4a698146103965780638da5cb5b146103a957806391d14854146103ba578063966ace28146103cd57600080fd5b806336568abe116101875780635bac2f60116101565780635bac2f6014610355578063715018a61461036857806375829def146103705780637dd490231461038357600080fd5b806336568abe146102fc578063415102631461030f578063478222c21461032f578063485cc9551461034257600080fd5b8063248a9ca3116101c3578063248a9ca3146102885780632f2ff15d146102ab57806333abd028146102be57806334f32e25146102e957600080fd5b806301ffc9a7146101f557806309d398971461021d5780631a6ca8091461026057806320981df414610275575b600080fd5b610208610203366004611e77565b6104c6565b60405190151581526020015b60405180910390f35b61025261022b366004611ec6565b6001600160a01b031660009081526006602090815260408083206003845290915290205490565b604051908152602001610214565b61027361026e36600461206a565b6104fd565b005b6102526102833660046120ec565b610699565b610252610296366004612125565b60009081526020819052604090206001015490565b6102736102b936600461213e565b61071d565b6004546102d1906001600160a01b031681565b6040516001600160a01b039091168152602001610214565b6102526102f73660046120ec565b610747565b61027361030a36600461213e565b610782565b61032261031d36600461226f565b610800565b60405161021491906123f8565b6003546102d1906001600160a01b031681565b61027361035036600461240b565b610829565b610273610363366004612439565b610a0c565b610273610c18565b61027361037e366004611ec6565b610c2c565b610273610391366004612465565b610c56565b6102736103a4366004611ec6565b610e25565b6001546001600160a01b03166102d1565b6102086103c836600461213e565b610e4f565b6102736103db36600461206a565b610e78565b610252600081565b6102736103f6366004611ec6565b610edf565b6005546102d1906001600160a01b031681565b61027361041c3660046124b4565b610f74565b61025261042f366004612610565b61102e565b610273610442366004611ec6565b6110af565b61027361045536600461213e565b611144565b610252610468366004612439565b600660209081526000928352604080842090915290825290205481565b6102736104933660046126de565b611169565b6102736104a636600461271f565b611207565b6102736104b9366004611ec6565b611269565b6102526112e2565b60006001600160e01b03198216637965db0b60e01b14806104f757506301ffc9a760e01b6001600160e01b03198316145b92915050565b61050633611314565b8061053657506105367fcb58d6d985142a614029cdf01861b4fe094d5919a47e69b8310dc4093d9d6ad033610e4f565b61055b5760405162461bcd60e51b815260040161055290612780565b60405180910390fd5b6003546040516370a0823160e01b81526001600160a01b0391821660048201526000918516906370a0823190602401602060405180830381865afa1580156105a7573d6000803e3d6000fd5b505050506040513d601f19601f820116820180604052508101906105cb91906127b7565b9050818111156105d85750805b600354604051636ce5768960e11b81526001600160a01b038681166004830152336024830152604482018490529091169063d9caed12906064015b600060405180830381600087803b15801561062d57600080fd5b505af1158015610641573d6000803e3d6000fd5b50505050336001600160a01b0316856001600160a01b03167f51b85031527a935663233d62a057687d039b9fbcd79c55e46a5b24510159336f858460405161068a9291906127d0565b60405180910390a35050505050565b60048054604051630826077d60e21b81526001600160a01b03858116938201939093528315156024820152600092909116906320981df4906044015b602060405180830381865afa1580156106f2573d6000803e3d6000fd5b505050506040513d601f19601f8201168201806040525081019061071691906127b7565b9392505050565b60008281526020819052604090206001015461073881611440565b610742838361144a565b505050565b6003546040516334f32e2560e01b81526001600160a01b038481166004830152831515602483015260009216906334f32e25906044016106d5565b6001600160a01b03811633146107f25760405162461bcd60e51b815260206004820152602f60248201527f416363657373436f6e74726f6c3a2063616e206f6e6c792072656e6f756e636560448201526e103937b632b9903337b91039b2b63360891b6064820152608401610552565b6107fc82826114ce565b5050565b6060610716836108228560000151866020015186608001518760e00151611533565b60066115c8565b600154600160a81b900460ff161580801561084f575060018054600160a01b900460ff16105b8061086f5750303b15801561086f575060018054600160a01b900460ff16145b6108d25760405162461bcd60e51b815260206004820152602e60248201527f496e697469616c697a61626c653a20636f6e747261637420697320616c72656160448201526d191e481a5b9a5d1a585b1a5e995960921b6064820152608401610552565b6001805460ff60a01b1916600160a01b17905580156108ff576001805460ff60a81b1916600160a81b1790555b6001600160a01b0383166109495760405162461bcd60e51b81526020600482015260116024820152701a5b9d985b1a5908199959481d985d5b1d607a1b6044820152606401610552565b6001600160a01b0382166109915760405162461bcd60e51b815260206004820152600f60248201526e696e76616c69642066756e6446656560881b6044820152606401610552565b600380546001600160a01b038086166001600160a01b03199283161790925560048054928516929091169190911790558015610742576001805460ff60a81b191681556040519081527f7f26b83ff96e1f2b6a682f133852f6798a09c465da95921460cefb38474024989060200160405180910390a1505050565b7f8d1089725c0dc266707fa6207730fb801dcd03108bfed7a21099bd303651d2b76000610a398133610e4f565b90508015610a965762093a8060025442610a539190612808565b10610a915760405162461bcd60e51b815260206004820152600e60248201526d1858c81d1a5b59481c185cdcd95960921b6044820152606401610552565b610aa0565b610aa08233611778565b6000846001600160a01b031663f29ebf616040518163ffffffff1660e01b81526004016020604051808303816000875af1158015610ae2573d6000803e3d6000fd5b505050506040513d601f19601f82011682018060405250810190610b06919061281b565b905060005b8460ff168160ff161015610c1057604051631b0ef00d60e31b81526001600160a01b03878116600483015260ff831660248301526000919084169063d877806890604401602060405180830381865afa158015610b6c573d6000803e3d6000fd5b505050506040513d601f19601f82011682018060405250810190610b9091906127b7565b6001600160a01b038816600081815260066020908152604080832060ff88168085529083529281902085905580519283529082018490528101839052919250907f8e26fb53d63c548677b068d08742bea435b6ecb7911ab3c5ad68fbccddeaf5fe9060600160405180910390a25080610c0881612838565b915050610b0b565b505050505050565b610c206117d1565b610c2a600061182b565b565b6000610c3781611440565b610c4260008361187d565b610c4b8261182b565b6107fc6000336114ce565b7f8d1089725c0dc266707fa6207730fb801dcd03108bfed7a21099bd303651d2b76000610c838133610e4f565b90508015610ce05762093a8060025442610c9d9190612808565b10610cdb5760405162461bcd60e51b815260206004820152600e60248201526d1858c81d1a5b59481c185cdcd95960921b6044820152606401610552565b610cea565b610cea8233611778565b6000835111610d2c5760405162461bcd60e51b815260206004820152600e60248201526d696e76616c696420706172616d7360901b6044820152606401610552565b60005b83518160ff161015610e1e576000848260ff1681518110610d5257610d52612857565b60200260200101519050848260ff1681518110610d7157610d71612857565b6020908102919091018101516001600160a01b038816600081815260068452604080822060ff88168084529552902091909155865190917f8e26fb53d63c548677b068d08742bea435b6ecb7911ab3c5ad68fbccddeaf5fe91859185918a91908110610ddf57610ddf612857565b6020908102919091018101516040805160ff90951685529184019290925282015260600160405180910390a25080610e1681612838565b915050610d2f565b5050505050565b7f8d1089725c0dc266707fa6207730fb801dcd03108bfed7a21099bd303651d2b76101f081611440565b6000918252602082815260408084206001600160a01b0393909316845291905290205460ff1690565b610e8133611314565b80610eb15750610eb17fcb58d6d985142a614029cdf01861b4fe094d5919a47e69b8310dc4093d9d6ad033610e4f565b610ecd5760405162461bcd60e51b815260040161055290612780565b610ed984848484611887565b50505050565b610f087f241ecf16d79d0f8dbfb92cbc07fe17840425976cf0667f022fe9877caa831b08611440565b6001600160a01b038116610f525760405162461bcd60e51b81526020600482015260116024820152701a5b9d985b1a5908199959481d985d5b1d607a1b6044820152606401610552565b600380546001600160a01b0319166001600160a01b0392909216919091179055565b610f7d33611314565b610fba5760405162461bcd60e51b815260206004820152600e60248201526d1a5b9d985b1a59081b585c9ad95d60921b6044820152606401610552565b6004805460405163c6f83ad160e01b81526001600160a01b0386811693820193909352602481018590526044810184905291169063c6f83ad190606401600060405180830381600087803b15801561101157600080fd5b505af1158015611025573d6000803e3d6000fd5b50505050505050565b60008082606001511561104357506000611047565b5060015b600061106b84600001518560a0015160c001516001600160801b031684600661199f565b84516001600160a01b03166000908152600660209081526040808320600384529091529020549091506110a66110a1828461286d565b611a34565b95945050505050565b6110d87f241ecf16d79d0f8dbfb92cbc07fe17840425976cf0667f022fe9877caa831b08611440565b6004546001600160a01b03166111225760405162461bcd60e51b815260206004820152600f60248201526e696e76616c69642066756e6446656560881b6044820152606401610552565b600480546001600160a01b0319166001600160a01b0392909216919091179055565b60008281526020819052604090206001015461115f81611440565b61074283836114ce565b7f5d8e12c39142ff96d79d04d15d1ba1269e4fe57bb9d26f43523628b34ba108ec61119381611440565b600354604051636ce5768960e11b81526001600160a01b0386811660048301528581166024830152604482018590529091169063d9caed1290606401600060405180830381600087803b1580156111e957600080fd5b505af11580156111fd573d6000803e3d6000fd5b5050505050505050565b61121033611314565b8061124057506112407fcb58d6d985142a614029cdf01861b4fe094d5919a47e69b8310dc4093d9d6ad033610e4f565b61125c5760405162461bcd60e51b815260040161055290612780565b6107428383836000611887565b6112716117d1565b6001600160a01b0381166112d65760405162461bcd60e51b815260206004820152602660248201527f4f776e61626c653a206e6577206f776e657220697320746865207a65726f206160448201526564647265737360d01b6064820152608401610552565b6112df8161182b565b50565b6112ee6008600a612964565b81565b426002556112fe3361182b565b61130960003361187d565b6112df60008261187d565b600080600560009054906101000a90046001600160a01b03166001600160a01b031663ec2c90166040518163ffffffff1660e01b8152600401600060405180830381865afa15801561136a573d6000803e3d6000fd5b505050506040513d6000823e601f3d908101601f1916820160405261139291908101906129aa565b805190915060005b81811015611435578281815181106113b4576113b4612857565b6020026020010151602001516001600160a01b0316856001600160a01b031603611423578281815181106113ea576113ea612857565b602002602001015160600151806110a6575082818151811061140e5761140e612857565b60200260200101516080015195945050505050565b8061142d81612b1e565b91505061139a565b506000949350505050565b6112df8133611778565b6114548282610e4f565b6107fc576000828152602081815260408083206001600160a01b03851684529091529020805460ff1916600117905561148a3390565b6001600160a01b0316816001600160a01b0316837f2f8788117e7eff1d82e926ec794901d17c78024a50270940304540a733656f0d60405160405180910390a45050565b6114d88282610e4f565b156107fc576000828152602081815260408083206001600160a01b0385168085529252808320805460ff1916905551339285917ff6391f5c32d9c69d2a47ea670b442974b53935d1edc7fd64eb21e047a839171b9190a45050565b6004805460405163478c57cd60e11b81526001600160a01b03878116938201939093526024810185905260448101849052851515606482015260009290911690638f18af9a90608401602060405180830381865afa158015611599573d6000803e3d6000fd5b505050506040513d601f19601f820116820180604052508101906115bd91906127b7565b90505b949350505050565b60408051600c8082526101a0820190925260609160208201610180803683370190505084519091508382600260ff168151811061160757611607612857565b602090810291909101015260a0850151158015611628575061018085015115155b156116335750610716565b8460600151156116785760a085015161165190829060005b8661199f565b82600060ff168151811061166757611667612857565b602002602001018181525050611705565b60a085015161168a908290600161164b565b82600160ff16815181106116a0576116a0612857565b60200260200101818152505084610120015160ff16600103611705576001600160a01b038116600090815260208481526040808320600480855292529091205483519091829185919081106116f7576116f7612857565b602002602001018181525050505b6101a085015160ff1615611770576001600160a01b038116600090815260208481526040808320600384529091529020546101a08601516117499060ff1682612b37565b90508083600360ff168151811061176257611762612857565b602002602001018181525050505b509392505050565b6117828282610e4f565b6107fc5761178f81611aa2565b61179a836020611ab4565b6040516020016117ab929190612b4e565b60408051601f198184030181529082905262461bcd60e51b825261055291600401612bc3565b6001546001600160a01b03163314610c2a5760405162461bcd60e51b815260206004820181905260248201527f4f776e61626c653a2063616c6c6572206973206e6f7420746865206f776e65726044820152606401610552565b600180546001600160a01b038381166001600160a01b0319831681179093556040519116919082907f8be0079c531659141344cd1fd0a4f28419497f9722a3daafe3b4186f6b6457e090600090a35050565b6107fc828261144a565b604051636eb1769f60e11b81523360048201523060248201526000906001600160a01b0385169063dd62ed3e90604401602060405180830381865afa1580156118d4573d6000803e3d6000fd5b505050506040513d601f19601f820116820180604052508101906118f891906127b7565b9050801561191c5760035461191c906001600160a01b038681169133911684611c4f565b811561195a576004805460405163d6f5066b60e01b81523392810192909252602482018490526001600160a01b03169063d6f5066b90604401610613565b336001600160a01b0316856001600160a01b03167f51b85031527a935663233d62a057687d039b9fbcd79c55e46a5b24510159336f858460405161068a9291906127d0565b6000836000036119b1575060006115c0565b6001600160a01b03851660009081526020838152604080832060ff87168452909152812054908190036119e45750620186a05b60006119f26008600a612964565b826119ff6008600a612964565b611a099190612808565b611a139088612b37565b611a1d9190612bf6565b9050611a298187612808565b979650505050505050565b60006001600160ff1b03821115611a9e5760405162461bcd60e51b815260206004820152602860248201527f53616665436173743a2076616c756520646f65736e27742066697420696e2061604482015267371034b73a191a9b60c11b6064820152608401610552565b5090565b60606104f76001600160a01b03831660145b60606000611ac3836002612b37565b611ace90600261286d565b6001600160401b03811115611ae557611ae5611ee3565b6040519080825280601f01601f191660200182016040528015611b0f576020820181803683370190505b509050600360fc1b81600081518110611b2a57611b2a612857565b60200101906001600160f81b031916908160001a905350600f60fb1b81600181518110611b5957611b59612857565b60200101906001600160f81b031916908160001a9053506000611b7d846002612b37565b611b8890600161286d565b90505b6001811115611c00576f181899199a1a9b1b9c1cb0b131b232b360811b85600f1660108110611bbc57611bbc612857565b1a60f81b828281518110611bd257611bd2612857565b60200101906001600160f81b031916908160001a90535060049490941c93611bf981612c18565b9050611b8b565b5083156107165760405162461bcd60e51b815260206004820181905260248201527f537472696e67733a20686578206c656e67746820696e73756666696369656e746044820152606401610552565b604080516001600160a01b038581166024830152848116604483015260648083018590528351808403909101815260849092018352602080830180516001600160e01b03166323b872dd60e01b17905283518085019094528084527f5361666545524332303a206c6f772d6c6576656c2063616c6c206661696c656490840152610ed992879291600091611ce7918516908490611d64565b8051909150156107425780806020019051810190611d059190612c2f565b6107425760405162461bcd60e51b815260206004820152602a60248201527f5361666545524332303a204552433230206f7065726174696f6e20646964206e6044820152691bdd081cdd58d8d9595960b21b6064820152608401610552565b60606115c0848460008585600080866001600160a01b03168587604051611d8b9190612c4c565b60006040518083038185875af1925050503d8060008114611dc8576040519150601f19603f3d011682016040523d82523d6000602084013e611dcd565b606091505b5091509150611a298783838760608315611e48578251600003611e41576001600160a01b0385163b611e415760405162461bcd60e51b815260206004820152601d60248201527f416464726573733a2063616c6c20746f206e6f6e2d636f6e74726163740000006044820152606401610552565b50816115c0565b6115c08383815115611e5d5781518083602001fd5b8060405162461bcd60e51b81526004016105529190612bc3565b600060208284031215611e8957600080fd5b81356001600160e01b03198116811461071657600080fd5b6001600160a01b03811681146112df57600080fd5b8035611ec181611ea1565b919050565b600060208284031215611ed857600080fd5b813561071681611ea1565b634e487b7160e01b600052604160045260246000fd5b60405161018081016001600160401b0381118282101715611f1c57611f1c611ee3565b60405290565b6040516101e081016001600160401b0381118282101715611f1c57611f1c611ee3565b6040516101a081016001600160401b0381118282101715611f1c57611f1c611ee3565b60405160e081016001600160401b0381118282101715611f1c57611f1c611ee3565b60405160a081016001600160401b0381118282101715611f1c57611f1c611ee3565b604051601f8201601f191681016001600160401b0381118282101715611fd457611fd4611ee3565b604052919050565b60006001600160401b03821115611ff557611ff5611ee3565b5060051b60200190565b600082601f83011261201057600080fd5b8135602061202561202083611fdc565b611fac565b82815260059290921b8401810191818101908684111561204457600080fd5b8286015b8481101561205f5780358352918301918301612048565b509695505050505050565b6000806000806080858703121561208057600080fd5b843561208b81611ea1565b9350602085013561209b81611ea1565b925060408501356001600160401b038111156120b657600080fd5b6120c287828801611fff565b949793965093946060013593505050565b80151581146112df57600080fd5b8035611ec1816120d3565b600080604083850312156120ff57600080fd5b823561210a81611ea1565b9150602083013561211a816120d3565b809150509250929050565b60006020828403121561213757600080fd5b5035919050565b6000806040838503121561215157600080fd5b82359150602083013561211a81611ea1565b803560ff81168114611ec157600080fd5b80356001600160401b0381168114611ec157600080fd5b803563ffffffff81168114611ec157600080fd5b80356001600160d81b0381168114611ec157600080fd5b600061018082840312156121c957600080fd5b6121d1611ef9565b90506121dc82611eb6565b81526121ea602083016120e1565b60208201526121fb6040830161218b565b604082015261220c6060830161219f565b60608201526080820135608082015260a082013560a082015260c082013560c082015260e082013560e082015261010080830135818301525061012080830135818301525061014080830135818301525061016080830135818301525092915050565b6000806101a080848603121561228457600080fd5b83356001600160401b038082111561229b57600080fd5b908501906101e082880312156122b057600080fd5b6122b8611f22565b6122c183611eb6565b81526122cf602084016120e1565b6020820152604083013560408201526122ea606084016120e1565b60608201526122fb60808401611eb6565b608082015260a083013560a082015260c083013560c082015260e083013560e082015261010061232c8185016120e1565b9082015261012061233e848201612163565b90820152610140612350848201612174565b9082015261016083810135908201526101808084013590820152612375848401612163565b848201526101c09350838301358281111561238f57600080fd5b61239b89828601611fff565b8583015250809550505050506123b484602085016121b6565b90509250929050565b600081518084526020808501945080840160005b838110156123ed578151875295820195908201906001016123d1565b509495945050505050565b60208152600061071660208301846123bd565b6000806040838503121561241e57600080fd5b823561242981611ea1565b9150602083013561211a81611ea1565b6000806040838503121561244c57600080fd5b823561245781611ea1565b91506123b460208401612163565b6000806040838503121561247857600080fd5b823561248381611ea1565b915060208301356001600160401b0381111561249e57600080fd5b6124aa85828601611fff565b9150509250929050565b6000806000606084860312156124c957600080fd5b83356124d481611ea1565b95602085013595506040909401359392505050565b803565ffffffffffff81168114611ec157600080fd5b80356001600160801b0381168114611ec157600080fd5b60006101a0828403121561252957600080fd5b612531611f45565b905061253c82612163565b815261254a6020830161218b565b602082015261255b60408301612163565b604082015261256c60608301611eb6565b606082015261257d608083016124e9565b608082015261258e60a083016124ff565b60a082015261259f60c083016124ff565b60c08201526125b060e083016124ff565b60e08201526101006125c38184016124ff565b908201526101206125d5838201612174565b908201526101406125e7838201612174565b908201526101606125f98382016124ff565b818301525061018080830135818301525092915050565b60006020828403121561262257600080fd5b81356001600160401b038082111561263957600080fd5b90830190610260828603121561264e57600080fd5b612656611f68565b61265f83611eb6565b815261266d602084016120e1565b602082015260408301356040820152612688606084016120e1565b6060820152612699608084016120e1565b60808201526126ab8660a08501612516565b60a0820152610240830135828111156126c357600080fd5b6126cf87828601611fff565b60c08301525095945050505050565b6000806000606084860312156126f357600080fd5b83356126fe81611ea1565b9250602084013561270e81611ea1565b929592945050506040919091013590565b60008060006060848603121561273457600080fd5b833561273f81611ea1565b9250602084013561274f81611ea1565b915060408401356001600160401b0381111561276a57600080fd5b61277686828701611fff565b9150509250925092565b60208082526018908201527f666565526f757465723a206163636573732064656e6965640000000000000000604082015260600190565b6000602082840312156127c957600080fd5b5051919050565b6040815260006127e360408301856123bd565b90508260208301529392505050565b634e487b7160e01b600052601160045260246000fd5b818103818111156104f7576104f76127f2565b60006020828403121561282d57600080fd5b815161071681611ea1565b600060ff821660ff810361284e5761284e6127f2565b60010192915050565b634e487b7160e01b600052603260045260246000fd5b808201808211156104f7576104f76127f2565b600181815b808511156128bb5781600019048211156128a1576128a16127f2565b808516156128ae57918102915b93841c9390800290612885565b509250929050565b6000826128d2575060016104f7565b816128df575060006104f7565b81600181146128f557600281146128ff5761291b565b60019150506104f7565b60ff841115612910576129106127f2565b50506001821b6104f7565b5060208310610133831016604e8410600b841016171561293e575081810a6104f7565b6129488383612880565b806000190482111561295c5761295c6127f2565b029392505050565b600061071683836128c3565b60005b8381101561298b578181015183820152602001612973565b50506000910152565b8051611ec181611ea1565b8051611ec1816120d3565b600060208083850312156129bd57600080fd5b82516001600160401b03808211156129d457600080fd5b818501915085601f8301126129e857600080fd5b81516129f661202082611fdc565b81815260059190911b83018401908481019088831115612a1557600080fd5b8585015b83811015612b1157805185811115612a3057600080fd5b8601601f1960a0828d0382011215612a485760008081fd5b612a50611f8a565b8983015188811115612a625760008081fd5b8301603f81018e13612a745760008081fd5b8a81015160408a821115612a8a57612a8a611ee3565b612a9a8d86601f85011601611fac565b94508185528f81838501011115612ab15760008081fd5b612ac0828e8701838601612970565b848452612ace818701612994565b8d8501526060945084860151818501525050506080612aee81850161299f565b83830152612afe60a0850161299f565b9082015285525050918601918601612a19565b5098975050505050505050565b600060018201612b3057612b306127f2565b5060010190565b80820281158282048414176104f7576104f76127f2565b7f416363657373436f6e74726f6c3a206163636f756e7420000000000000000000815260008351612b86816017850160208801612970565b7001034b99036b4b9b9b4b733903937b6329607d1b6017918401918201528351612bb7816028840160208801612970565b01602801949350505050565b6020815260008251806020840152612be2816040850160208701612970565b601f01601f19169190910160400192915050565b600082612c1357634e487b7160e01b600052601260045260246000fd5b500490565b600081612c2757612c276127f2565b506000190190565b600060208284031215612c4157600080fd5b8151610716816120d3565b60008251612c5e818460208701612970565b919091019291505056fea2646970667358221220569236f97d1dac4f0eab4cf469d3aa0dc503bc427dca21bbb45eea043f9f8dda64736f6c63430008110033",
  "linkReferences": {},
  "deployedLinkReferences": {}
}