{
  "_format": "hh-sol-artifact-1",
  "contractName": "FeeRouter",
  "sourceName": "contracts/fee/FeeRouter.sol",
  "abi": [
    {
      "anonymous": false,
      "inputs": [
        {
          "indexed": false,
          "internalType": "uint8",
          "name": "version",
          "type": "uint8"
        }
      ],
      "name": "Initialized",
      "type": "event"
    },
    {
      "anonymous": false,
      "inputs": [
        {
          "indexed": true,
          "internalType": "address",
          "name": "previousOwner",
          "type": "address"
        },
        {
          "indexed": true,
          "internalType": "address",
          "name": "newOwner",
          "type": "address"
        }
      ],
      "name": "OwnershipTransferred",
      "type": "event"
    },
    {
      "anonymous": false,
      "inputs": [
        {
          "indexed": true,
          "internalType": "bytes32",
          "name": "role",
          "type": "bytes32"
        },
        {
          "indexed": true,
          "internalType": "bytes32",
          "name": "previousAdminRole",
          "type": "bytes32"
        },
        {
          "indexed": true,
          "internalType": "bytes32",
          "name": "newAdminRole",
          "type": "bytes32"
        }
      ],
      "name": "RoleAdminChanged",
      "type": "event"
    },
    {
      "anonymous": false,
      "inputs": [
        {
          "indexed": true,
          "internalType": "bytes32",
          "name": "role",
          "type": "bytes32"
        },
        {
          "indexed": true,
          "internalType": "address",
          "name": "account",
          "type": "address"
        },
        {
          "indexed": true,
          "internalType": "address",
          "name": "sender",
          "type": "address"
        }
      ],
      "name": "RoleGranted",
      "type": "event"
    },
    {
      "anonymous": false,
      "inputs": [
        {
          "indexed": true,
          "internalType": "bytes32",
          "name": "role",
          "type": "bytes32"
        },
        {
          "indexed": true,
          "internalType": "address",
          "name": "account",
          "type": "address"
        },
        {
          "indexed": true,
          "internalType": "address",
          "name": "sender",
          "type": "address"
        }
      ],
      "name": "RoleRevoked",
      "type": "event"
    },
    {
      "anonymous": false,
      "inputs": [
        {
          "indexed": true,
          "internalType": "address",
          "name": "account",
          "type": "address"
        },
        {
          "indexed": true,
          "internalType": "address",
          "name": "market",
          "type": "address"
        },
        {
          "indexed": false,
          "internalType": "int256[]",
          "name": "fees",
          "type": "int256[]"
        },
        {
          "indexed": false,
          "internalType": "uint256",
          "name": "amount",
          "type": "uint256"
        }
      ],
      "name": "UpdateFee",
      "type": "event"
    },
    {
      "anonymous": false,
      "inputs": [
        {
          "indexed": true,
          "internalType": "address",
          "name": "market",
          "type": "address"
        },
        {
          "indexed": false,
          "internalType": "uint8",
          "name": "kind",
          "type": "uint8"
        },
        {
          "indexed": false,
          "internalType": "uint256",
          "name": "oldFeeOrRate",
          "type": "uint256"
        },
        {
          "indexed": false,
          "internalType": "uint256",
          "name": "feeOrRate",
          "type": "uint256"
        }
      ],
      "name": "UpdateFeeAndRates",
      "type": "event"
    },
    {
      "inputs": [],
      "name": "DEFAULT_ADMIN_ROLE",
      "outputs": [
        {
          "internalType": "bytes32",
          "name": "",
          "type": "bytes32"
        }
      ],
      "stateMutability": "view",
      "type": "function"
    },
    {
      "inputs": [],
      "name": "FEE_RATE_PRECISION",
      "outputs": [
        {
          "internalType": "uint256",
          "name": "",
          "type": "uint256"
        }
      ],
      "stateMutability": "view",
      "type": "function"
    },
    {
      "inputs": [
        {
          "internalType": "address",
          "name": "account",
          "type": "address"
        },
        {
          "internalType": "address",
          "name": "token",
          "type": "address"
        },
        {
          "internalType": "int256[]",
          "name": "fees",
          "type": "int256[]"
        },
        {
          "internalType": "uint256",
          "name": "fundfeeLoss",
          "type": "uint256"
        }
      ],
      "name": "collectFees",
      "outputs": [],
      "stateMutability": "nonpayable",
      "type": "function"
    },
    {
      "inputs": [
        {
          "internalType": "address",
          "name": "account",
          "type": "address"
        },
        {
          "internalType": "address",
          "name": "token",
          "type": "address"
        },
        {
          "internalType": "int256[]",
          "name": "fees",
          "type": "int256[]"
        }
      ],
      "name": "collectFees",
      "outputs": [],
      "stateMutability": "nonpayable",
      "type": "function"
    },
    {
      "inputs": [
        {
          "internalType": "address",
          "name": "market",
          "type": "address"
        },
        {
          "internalType": "bool",
          "name": "isLong",
          "type": "bool"
        }
      ],
      "name": "cumulativeFundingRates",
      "outputs": [
        {
          "internalType": "int256",
          "name": "",
          "type": "int256"
        }
      ],
      "stateMutability": "view",
      "type": "function"
    },
    {
      "inputs": [],
      "name": "factory",
      "outputs": [
        {
          "internalType": "address",
          "name": "",
          "type": "address"
        }
      ],
      "stateMutability": "view",
      "type": "function"
    },
    {
      "inputs": [
        {
          "internalType": "address",
          "name": "",
          "type": "address"
        },
        {
          "internalType": "uint8",
          "name": "",
          "type": "uint8"
        }
      ],
      "name": "feeAndRates",
      "outputs": [
        {
          "internalType": "uint256",
          "name": "",
          "type": "uint256"
        }
      ],
      "stateMutability": "view",
      "type": "function"
    },
    {
      "inputs": [],
      "name": "feeVault",
      "outputs": [
        {
          "internalType": "address",
          "name": "",
          "type": "address"
        }
      ],
      "stateMutability": "view",
      "type": "function"
    },
    {
      "inputs": [],
      "name": "fundFee",
      "outputs": [
        {
          "internalType": "address",
          "name": "",
          "type": "address"
        }
      ],
      "stateMutability": "view",
      "type": "function"
    },
    {
      "inputs": [
        {
          "internalType": "address",
          "name": "market",
          "type": "address"
        }
      ],
      "name": "getExecFee",
      "outputs": [
        {
          "internalType": "uint256",
          "name": "",
          "type": "uint256"
        }
      ],
      "stateMutability": "view",
      "type": "function"
    },
    {
      "inputs": [
        {
          "components": [
            {
              "internalType": "address",
              "name": "_market",
              "type": "address"
            },
            {
              "internalType": "bool",
              "name": "_isLong",
              "type": "bool"
            },
            {
              "internalType": "uint256",
              "name": "_oraclePrice",
              "type": "uint256"
            },
            {
              "internalType": "bool",
              "name": "isOpen",
              "type": "bool"
            },
            {
              "internalType": "address",
              "name": "_account",
              "type": "address"
            },
            {
              "internalType": "uint256",
              "name": "_sizeDelta",
              "type": "uint256"
            },
            {
              "internalType": "uint256",
              "name": "_price",
              "type": "uint256"
            },
            {
              "internalType": "uint256",
              "name": "_slippage",
              "type": "uint256"
            },
            {
              "internalType": "bool",
              "name": "_isExec",
              "type": "bool"
            },
            {
              "internalType": "uint8",
              "name": "liqState",
              "type": "uint8"
            },
            {
              "internalType": "uint64",
              "name": "_fromOrder",
              "type": "uint64"
            },
            {
              "internalType": "bytes32",
              "name": "_refCode",
              "type": "bytes32"
            },
            {
              "internalType": "uint256",
              "name": "collateralDelta",
              "type": "uint256"
            },
            {
              "internalType": "uint8",
              "name": "execNum",
              "type": "uint8"
            },
            {
              "internalType": "uint256[]",
              "name": "inputs",
              "type": "uint256[]"
            }
          ],
          "internalType": "struct MarketDataTypes.UpdatePositionInputs",
          "name": "params",
          "type": "tuple"
        },
        {
          "components": [
            {
              "internalType": "address",
              "name": "market",
              "type": "address"
            },
            {
              "internalType": "bool",
              "name": "isLong",
              "type": "bool"
            },
            {
              "internalType": "uint32",
              "name": "lastTime",
              "type": "uint32"
            },
            {
              "internalType": "uint216",
              "name": "extra3",
              "type": "uint216"
            },
            {
              "internalType": "uint256",
              "name": "size",
              "type": "uint256"
            },
            {
              "internalType": "uint256",
              "name": "collateral",
              "type": "uint256"
            },
            {
              "internalType": "uint256",
              "name": "averagePrice",
              "type": "uint256"
            },
            {
              "internalType": "int256",
              "name": "entryFundingRate",
              "type": "int256"
            },
            {
              "internalType": "int256",
              "name": "realisedPnl",
              "type": "int256"
            },
            {
              "internalType": "uint256",
              "name": "extra0",
              "type": "uint256"
            },
            {
              "internalType": "uint256",
              "name": "extra1",
              "type": "uint256"
            },
            {
              "internalType": "uint256",
              "name": "extra2",
              "type": "uint256"
            }
          ],
          "internalType": "struct Position.Props",
          "name": "position",
          "type": "tuple"
        }
      ],
      "name": "getFees",
      "outputs": [
        {
          "internalType": "int256[]",
          "name": "fees",
          "type": "int256[]"
        }
      ],
      "stateMutability": "view",
      "type": "function"
    },
    {
      "inputs": [
        {
          "internalType": "address",
          "name": "market",
          "type": "address"
        },
        {
          "internalType": "bool",
          "name": "isLong",
          "type": "bool"
        }
      ],
      "name": "getFundingRate",
      "outputs": [
        {
          "internalType": "int256",
          "name": "",
          "type": "int256"
        }
      ],
      "stateMutability": "view",
      "type": "function"
    },
    {
      "inputs": [
        {
          "components": [
            {
              "internalType": "address",
              "name": "_market",
              "type": "address"
            },
            {
              "internalType": "bool",
              "name": "_isLong",
              "type": "bool"
            },
            {
              "internalType": "uint256",
              "name": "_oraclePrice",
              "type": "uint256"
            },
            {
              "internalType": "bool",
              "name": "isOpen",
              "type": "bool"
            },
            {
              "internalType": "bool",
              "name": "isCreate",
              "type": "bool"
            },
            {
              "components": [
                {
                  "internalType": "uint8",
                  "name": "version",
                  "type": "uint8"
                },
                {
                  "internalType": "uint32",
                  "name": "updatedAtBlock",
                  "type": "uint32"
                },
                {
                  "internalType": "uint8",
                  "name": "triggerAbove",
                  "type": "uint8"
                },
                {
                  "internalType": "address",
                  "name": "account",
                  "type": "address"
                },
                {
                  "internalType": "uint48",
                  "name": "extra3",
                  "type": "uint48"
                },
                {
                  "internalType": "uint128",
                  "name": "collateral",
                  "type": "uint128"
                },
                {
                  "internalType": "uint128",
                  "name": "size",
                  "type": "uint128"
                },
                {
                  "internalType": "uint128",
                  "name": "price",
                  "type": "uint128"
                },
                {
                  "internalType": "uint128",
                  "name": "extra1",
                  "type": "uint128"
                },
                {
                  "internalType": "uint64",
                  "name": "orderID",
                  "type": "uint64"
                },
                {
                  "internalType": "uint64",
                  "name": "extra2",
                  "type": "uint64"
                },
                {
                  "internalType": "uint128",
                  "name": "extra0",
                  "type": "uint128"
                },
                {
                  "internalType": "bytes32",
                  "name": "refCode",
                  "type": "bytes32"
                }
              ],
              "internalType": "struct Order.Props",
              "name": "_order",
              "type": "tuple"
            },
            {
              "internalType": "uint256[]",
              "name": "inputs",
              "type": "uint256[]"
            }
          ],
          "internalType": "struct MarketDataTypes.UpdateOrderInputs",
          "name": "params",
          "type": "tuple"
        }
      ],
      "name": "getOrderFees",
      "outputs": [
        {
          "internalType": "int256",
          "name": "fees",
          "type": "int256"
        }
      ],
      "stateMutability": "view",
      "type": "function"
    },
    {
      "inputs": [
        {
          "internalType": "bytes32",
          "name": "role",
          "type": "bytes32"
        }
      ],
      "name": "getRoleAdmin",
      "outputs": [
        {
          "internalType": "bytes32",
          "name": "",
          "type": "bytes32"
        }
      ],
      "stateMutability": "view",
      "type": "function"
    },
    {
      "inputs": [
        {
          "internalType": "address",
          "name": "_account",
          "type": "address"
        }
      ],
      "name": "grantControllerRoleByMarketManager",
      "outputs": [],
      "stateMutability": "nonpayable",
      "type": "function"
    },
    {
      "inputs": [
        {
          "internalType": "bytes32",
          "name": "role",
          "type": "bytes32"
        },
        {
          "internalType": "address",
          "name": "account",
          "type": "address"
        }
      ],
      "name": "grantRole",
      "outputs": [],
      "stateMutability": "nonpayable",
      "type": "function"
    },
    {
      "inputs": [
        {
          "internalType": "bytes32",
          "name": "role",
          "type": "bytes32"
        },
        {
          "internalType": "address",
          "name": "account",
          "type": "address"
        }
      ],
      "name": "hasRole",
      "outputs": [
        {
          "internalType": "bool",
          "name": "",
          "type": "bool"
        }
      ],
      "stateMutability": "view",
      "type": "function"
    },
    {
      "inputs": [
        {
          "internalType": "address",
          "name": "_factory",
          "type": "address"
        },
        {
          "internalType": "address",
          "name": "vault",
          "type": "address"
        },
        {
          "internalType": "address",
          "name": "fundingFee",
          "type": "address"
        }
      ],
      "name": "initialize",
      "outputs": [],
      "stateMutability": "nonpayable",
      "type": "function"
    },
    {
      "inputs": [
        {
          "internalType": "address",
          "name": "market",
          "type": "address"
        },
        {
          "internalType": "uint8",
          "name": "_len",
          "type": "uint8"
        }
      ],
      "name": "migrateFeeAndRates",
      "outputs": [],
      "stateMutability": "nonpayable",
      "type": "function"
    },
    {
      "inputs": [],
      "name": "owner",
      "outputs": [
        {
          "internalType": "address",
          "name": "",
          "type": "address"
        }
      ],
      "stateMutability": "view",
      "type": "function"
    },
    {
      "inputs": [
        {
          "internalType": "address",
          "name": "account",
          "type": "address"
        },
        {
          "internalType": "address",
          "name": "token",
          "type": "address"
        },
        {
          "internalType": "int256[]",
          "name": "fees",
          "type": "int256[]"
        },
        {
          "internalType": "uint256",
          "name": "feesTotal",
          "type": "uint256"
        },
        {
          "internalType": "uint256",
          "name": "fundfeeLoss",
          "type": "uint256"
        }
      ],
      "name": "payoutFees",
      "outputs": [],
      "stateMutability": "nonpayable",
      "type": "function"
    },
    {
      "inputs": [],
      "name": "renounceOwnership",
      "outputs": [],
      "stateMutability": "nonpayable",
      "type": "function"
    },
    {
      "inputs": [
        {
          "internalType": "bytes32",
          "name": "role",
          "type": "bytes32"
        },
        {
          "internalType": "address",
          "name": "account",
          "type": "address"
        }
      ],
      "name": "renounceRole",
      "outputs": [],
      "stateMutability": "nonpayable",
      "type": "function"
    },
    {
      "inputs": [
        {
          "internalType": "bytes32",
          "name": "role",
          "type": "bytes32"
        },
        {
          "internalType": "address",
          "name": "account",
          "type": "address"
        }
      ],
      "name": "revokeRole",
      "outputs": [],
      "stateMutability": "nonpayable",
      "type": "function"
    },
    {
      "inputs": [
        {
          "internalType": "address",
          "name": "market",
          "type": "address"
        },
        {
          "internalType": "uint256[]",
          "name": "rates",
          "type": "uint256[]"
        }
      ],
      "name": "setFeeAndRates",
      "outputs": [],
      "stateMutability": "nonpayable",
      "type": "function"
    },
    {
      "inputs": [
        {
          "internalType": "address",
          "name": "vault",
          "type": "address"
        }
      ],
      "name": "setFeeVault",
      "outputs": [],
      "stateMutability": "nonpayable",
      "type": "function"
    },
    {
      "inputs": [
        {
          "internalType": "address",
          "name": "fundingFee",
          "type": "address"
        }
      ],
      "name": "setFundFee",
      "outputs": [],
      "stateMutability": "nonpayable",
      "type": "function"
    },
    {
      "inputs": [
        {
          "internalType": "bytes4",
          "name": "interfaceId",
          "type": "bytes4"
        }
      ],
      "name": "supportsInterface",
      "outputs": [
        {
          "internalType": "bool",
          "name": "",
          "type": "bool"
        }
      ],
      "stateMutability": "view",
      "type": "function"
    },
    {
      "inputs": [
        {
          "internalType": "address",
          "name": "to",
          "type": "address"
        }
      ],
      "name": "transferAdmin",
      "outputs": [],
      "stateMutability": "nonpayable",
      "type": "function"
    },
    {
      "inputs": [
        {
          "internalType": "address",
          "name": "newOwner",
          "type": "address"
        }
      ],
      "name": "transferOwnership",
      "outputs": [],
      "stateMutability": "nonpayable",
      "type": "function"
    },
    {
      "inputs": [
        {
          "internalType": "address",
          "name": "market",
          "type": "address"
        },
        {
          "internalType": "uint256",
          "name": "longSize",
          "type": "uint256"
        },
        {
          "internalType": "uint256",
          "name": "shortSize",
          "type": "uint256"
        }
      ],
      "name": "updateCumulativeFundingRate",
      "outputs": [],
      "stateMutability": "nonpayable",
      "type": "function"
    },
    {
      "inputs": [
        {
          "internalType": "address",
          "name": "token",
          "type": "address"
        },
        {
          "internalType": "address",
          "name": "to",
          "type": "address"
        },
        {
          "internalType": "uint256",
          "name": "amount",
          "type": "uint256"
        }
      ],
      "name": "withdraw",
      "outputs": [],
      "stateMutability": "nonpayable",
      "type": "function"
    }
  ],
  "bytecode": "0x608060405234801561001057600080fd5b5061001a3361001f565b610071565b600180546001600160a01b038381166001600160a01b0319831681179093556040519116919082907f8be0079c531659141344cd1fd0a4f28419497f9722a3daafe3b4186f6b6457e090600090a35050565b612e6a80620000816000396000f3fe608060405234801561001057600080fd5b50600436106101f05760003560e01c806391d148541161010f578063c8830bf5116100a2578063d9caed1211610071578063d9caed1214610485578063e50f19ef14610498578063f2fde38b146104ab578063f4ca4d1d146104be57600080fd5b8063c8830bf514610421578063c9cf9f3a14610434578063d547741f14610447578063d87780681461045a57600080fd5b8063bb418698116100de578063bb418698146103d5578063c0c53b8b146103e8578063c45a0155146103fb578063c6f83ad11461040e57600080fd5b806391d1485414610394578063966ace28146103a7578063a217fddf146103ba578063a591f97f146103c257600080fd5b8063415102631161018757806375829def1161015657806375829def1461034a5780637dd490231461035d5780637fe4a698146103705780638da5cb5b1461038357600080fd5b806341510263146102fc578063478222c21461031c5780635bac2f601461032f578063715018a61461034257600080fd5b80632f2ff15d116101c35780632f2ff15d1461029657806333abd028146102ab57806334f32e25146102d657806336568abe146102e957600080fd5b806301ffc9a7146101f557806309d398971461021d57806320981df414610260578063248a9ca314610273575b600080fd5b610208610203366004611fb3565b6104c6565b60405190151581526020015b60405180910390f35b61025261022b366004612002565b6001600160a01b031660009081526006602090815260408083206003845290915290205490565b604051908152602001610214565b61025261026e366004612038565b6104fd565b610252610281366004612071565b60009081526020819052604090206001015490565b6102a96102a436600461208a565b610581565b005b6004546102be906001600160a01b031681565b6040516001600160a01b039091168152602001610214565b6102526102e4366004612038565b6105ab565b6102a96102f736600461208a565b6105e6565b61030f61030a366004612342565b610669565b60405161021491906124cb565b6003546102be906001600160a01b031681565b6102a961033d3660046124de565b610692565b6102a961089e565b6102a9610358366004612002565b6108b2565b6102a961036b36600461250a565b6108dc565b6102a961037e366004612002565b610aab565b6001546001600160a01b03166102be565b6102086103a236600461208a565b610ad5565b6102a96103b5366004612559565b610afe565b610252600081565b6102a96103d0366004612002565b610b65565b6102a96103e33660046125c2565b610bfa565b6102a96103f6366004612635565b610dfc565b6005546102be906001600160a01b031681565b6102a961041c366004612680565b611073565b61025261042f3660046127dc565b61112d565b6102a9610442366004612002565b6111ae565b6102a961045536600461208a565b611243565b6102526104683660046124de565b600660209081526000928352604080842090915290825290205481565b6102a96104933660046128aa565b611268565b6102a96104a63660046128eb565b611306565b6102a96104b9366004612002565b611368565b6102526113e1565b60006001600160e01b03198216637965db0b60e01b14806104f757506301ffc9a760e01b6001600160e01b03198316145b92915050565b60048054604051630826077d60e21b81526001600160a01b03858116938201939093528315156024820152600092909116906320981df4906044015b602060405180830381865afa158015610556573d6000803e3d6000fd5b505050506040513d601f19601f8201168201806040525081019061057a919061294c565b9392505050565b60008281526020819052604090206001015461059c816113f0565b6105a683836113fa565b505050565b6003546040516334f32e2560e01b81526001600160a01b038481166004830152831515602483015260009216906334f32e2590604401610539565b6001600160a01b038116331461065b5760405162461bcd60e51b815260206004820152602f60248201527f416363657373436f6e74726f6c3a2063616e206f6e6c792072656e6f756e636560448201526e103937b632b9903337b91039b2b63360891b60648201526084015b60405180910390fd5b610665828261147e565b5050565b606061057a8361068b8560000151866020015186608001518760e001516114e3565b6006611578565b7f8d1089725c0dc266707fa6207730fb801dcd03108bfed7a21099bd303651d2b760006106bf8133610ad5565b9050801561071c5762093a80600254426106d9919061297b565b106107175760405162461bcd60e51b815260206004820152600e60248201526d1858c81d1a5b59481c185cdcd95960921b6044820152606401610652565b610726565b6107268233611728565b6000846001600160a01b031663f29ebf616040518163ffffffff1660e01b81526004016020604051808303816000875af1158015610768573d6000803e3d6000fd5b505050506040513d601f19601f8201168201806040525081019061078c919061298e565b905060005b8460ff168160ff16101561089657604051631b0ef00d60e31b81526001600160a01b03878116600483015260ff831660248301526000919084169063d877806890604401602060405180830381865afa1580156107f2573d6000803e3d6000fd5b505050506040513d601f19601f82011682018060405250810190610816919061294c565b6001600160a01b038816600081815260066020908152604080832060ff88168085529083529281902085905580519283529082018490528101839052919250907f8e26fb53d63c548677b068d08742bea435b6ecb7911ab3c5ad68fbccddeaf5fe9060600160405180910390a2508061088e816129ab565b915050610791565b505050505050565b6108a6611781565b6108b060006117db565b565b60006108bd816113f0565b6108c860008361182d565b6108d1826117db565b61066560003361147e565b7f8d1089725c0dc266707fa6207730fb801dcd03108bfed7a21099bd303651d2b760006109098133610ad5565b905080156109665762093a8060025442610923919061297b565b106109615760405162461bcd60e51b815260206004820152600e60248201526d1858c81d1a5b59481c185cdcd95960921b6044820152606401610652565b610970565b6109708233611728565b60008351116109b25760405162461bcd60e51b815260206004820152600e60248201526d696e76616c696420706172616d7360901b6044820152606401610652565b60005b83518160ff161015610aa4576000848260ff16815181106109d8576109d86129ca565b60200260200101519050848260ff16815181106109f7576109f76129ca565b6020908102919091018101516001600160a01b038816600081815260068452604080822060ff88168084529552902091909155865190917f8e26fb53d63c548677b068d08742bea435b6ecb7911ab3c5ad68fbccddeaf5fe91859185918a91908110610a6557610a656129ca565b6020908102919091018101516040805160ff90951685529184019290925282015260600160405180910390a25080610a9c816129ab565b9150506109b5565b5050505050565b7f8d1089725c0dc266707fa6207730fb801dcd03108bfed7a21099bd303651d2b76101f0816113f0565b6000918252602082815260408084206001600160a01b0393909316845291905290205460ff1690565b610b0733611837565b80610b375750610b377fcb58d6d985142a614029cdf01861b4fe094d5919a47e69b8310dc4093d9d6ad033610ad5565b610b535760405162461bcd60e51b8152600401610652906129e0565b610b5f84848484611963565b50505050565b610b8e7f241ecf16d79d0f8dbfb92cbc07fe17840425976cf0667f022fe9877caa831b086113f0565b6001600160a01b038116610bd85760405162461bcd60e51b81526020600482015260116024820152701a5b9d985b1a5908199959481d985d5b1d607a1b6044820152606401610652565b600380546001600160a01b0319166001600160a01b0392909216919091179055565b610c0333611837565b80610c335750610c337fcb58d6d985142a614029cdf01861b4fe094d5919a47e69b8310dc4093d9d6ad033610ad5565b610c4f5760405162461bcd60e51b8152600401610652906129e0565b6003546040516370a0823160e01b81526001600160a01b0391821660048201526000918616906370a0823190602401602060405180830381865afa158015610c9b573d6000803e3d6000fd5b505050506040513d601f19601f82011682018060405250810190610cbf919061294c565b905082811115610ccc5750815b600354604051636ce5768960e11b81526001600160a01b038781166004830152336024830152604482018490529091169063d9caed1290606401600060405180830381600087803b158015610d2057600080fd5b505af1158015610d34573d6000803e3d6000fd5b505050506000821115610da7576004805460405163d6f5066b60e01b81523392810192909252602482018490526001600160a01b03169063d6f5066b90604401600060405180830381600087803b158015610d8e57600080fd5b505af1158015610da2573d6000803e3d6000fd5b505050505b336001600160a01b0316866001600160a01b03167f51b85031527a935663233d62a057687d039b9fbcd79c55e46a5b24510159336f8684604051610dec929190612a17565b60405180910390a3505050505050565b600154600160a81b900460ff1615808015610e22575060018054600160a01b900460ff16105b80610e425750303b158015610e42575060018054600160a01b900460ff16145b610ea55760405162461bcd60e51b815260206004820152602e60248201527f496e697469616c697a61626c653a20636f6e747261637420697320616c72656160448201526d191e481a5b9a5d1a585b1a5e995960921b6064820152608401610652565b6001805460ff60a01b1916600160a01b1790558015610ed2576001805460ff60a81b1916600160a81b1790555b6001600160a01b038416610f1a5760405162461bcd60e51b815260206004820152600f60248201526e696e76616c6964206164647265737360881b6044820152606401610652565b6001600160a01b038316610f645760405162461bcd60e51b81526020600482015260116024820152701a5b9d985b1a5908199959481d985d5b1d607a1b6044820152606401610652565b6001600160a01b038216610fac5760405162461bcd60e51b815260206004820152600f60248201526e696e76616c69642066756e6446656560881b6044820152606401610652565b610fb584611ab8565b600580546001600160a01b038087166001600160a01b031992831617909255600380548684169083161790556004805492851692909116919091179055610ffd6000336113fa565b6110277f241ecf16d79d0f8dbfb92cbc07fe17840425976cf0667f022fe9877caa831b08336113fa565b8015610b5f576001805460ff60a81b191681556040519081527f7f26b83ff96e1f2b6a682f133852f6798a09c465da95921460cefb38474024989060200160405180910390a150505050565b61107c33611837565b6110b95760405162461bcd60e51b815260206004820152600e60248201526d1a5b9d985b1a59081b585c9ad95d60921b6044820152606401610652565b6004805460405163c6f83ad160e01b81526001600160a01b0386811693820193909352602481018590526044810184905291169063c6f83ad190606401600060405180830381600087803b15801561111057600080fd5b505af1158015611124573d6000803e3d6000fd5b50505050505050565b60008082606001511561114257506000611146565b5060015b600061116a84600001518560a0015160c001516001600160801b0316846006611adb565b84516001600160a01b03166000908152600660209081526040808320600384529091529020549091506111a56111a08284612a39565b611b70565b95945050505050565b6111d77f241ecf16d79d0f8dbfb92cbc07fe17840425976cf0667f022fe9877caa831b086113f0565b6004546001600160a01b03166112215760405162461bcd60e51b815260206004820152600f60248201526e696e76616c69642066756e6446656560881b6044820152606401610652565b600480546001600160a01b0319166001600160a01b0392909216919091179055565b60008281526020819052604090206001015461125e816113f0565b6105a6838361147e565b7f5d8e12c39142ff96d79d04d15d1ba1269e4fe57bb9d26f43523628b34ba108ec611292816113f0565b600354604051636ce5768960e11b81526001600160a01b0386811660048301528581166024830152604482018590529091169063d9caed1290606401600060405180830381600087803b1580156112e857600080fd5b505af11580156112fc573d6000803e3d6000fd5b5050505050505050565b61130f33611837565b8061133f575061133f7fcb58d6d985142a614029cdf01861b4fe094d5919a47e69b8310dc4093d9d6ad033610ad5565b61135b5760405162461bcd60e51b8152600401610652906129e0565b6105a68383836000611963565b611370611781565b6001600160a01b0381166113d55760405162461bcd60e51b815260206004820152602660248201527f4f776e61626c653a206e6577206f776e657220697320746865207a65726f206160448201526564647265737360d01b6064820152608401610652565b6113de816117db565b50565b6113ed6008600a612b30565b81565b6113de8133611728565b6114048282610ad5565b610665576000828152602081815260408083206001600160a01b03851684529091529020805460ff1916600117905561143a3390565b6001600160a01b0316816001600160a01b0316837f2f8788117e7eff1d82e926ec794901d17c78024a50270940304540a733656f0d60405160405180910390a45050565b6114888282610ad5565b15610665576000828152602081815260408083206001600160a01b0385168085529252808320805460ff1916905551339285917ff6391f5c32d9c69d2a47ea670b442974b53935d1edc7fd64eb21e047a839171b9190a45050565b6004805460405163478c57cd60e11b81526001600160a01b03878116938201939093526024810185905260448101849052851515606482015260009290911690638f18af9a90608401602060405180830381865afa158015611549573d6000803e3d6000fd5b505050506040513d601f19601f8201168201806040525081019061156d919061294c565b90505b949350505050565b60408051600c8082526101a0820190925260609160208201610180803683370190505084519091508382600260ff16815181106115b7576115b76129ca565b602090810291909101015260a08501511580156115d8575061018085015115155b156115e3575061057a565b8460600151156116285760a085015161160190829060005b86611adb565b82600060ff1681518110611617576116176129ca565b6020026020010181815250506116b5565b60a085015161163a90829060016115fb565b82600160ff1681518110611650576116506129ca565b60200260200101818152505084610120015160ff166001036116b5576001600160a01b038116600090815260208481526040808320600480855292529091205483519091829185919081106116a7576116a76129ca565b602002602001018181525050505b6101a085015160ff1615611720576001600160a01b038116600090815260208481526040808320600384529091529020546101a08601516116f99060ff1682612b3c565b90508083600360ff1681518110611712576117126129ca565b602002602001018181525050505b509392505050565b6117328282610ad5565b6106655761173f81611bde565b61174a836020611bf0565b60405160200161175b929190612b77565b60408051601f198184030181529082905262461bcd60e51b825261065291600401612bec565b6001546001600160a01b031633146108b05760405162461bcd60e51b815260206004820181905260248201527f4f776e61626c653a2063616c6c6572206973206e6f7420746865206f776e65726044820152606401610652565b600180546001600160a01b038381166001600160a01b0319831681179093556040519116919082907f8be0079c531659141344cd1fd0a4f28419497f9722a3daafe3b4186f6b6457e090600090a35050565b61066582826113fa565b600080600560009054906101000a90046001600160a01b03166001600160a01b031663ec2c90166040518163ffffffff1660e01b8152600401600060405180830381865afa15801561188d573d6000803e3d6000fd5b505050506040513d6000823e601f3d908101601f191682016040526118b59190810190612c35565b805190915060005b81811015611958578281815181106118d7576118d76129ca565b6020026020010151602001516001600160a01b0316856001600160a01b0316036119465782818151811061190d5761190d6129ca565b602002602001015160600151806111a55750828181518110611931576119316129ca565b60200260200101516080015195945050505050565b8061195081612da9565b9150506118bd565b506000949350505050565b604051636eb1769f60e11b81523360048201523060248201526000906001600160a01b0385169063dd62ed3e90604401602060405180830381865afa1580156119b0573d6000803e3d6000fd5b505050506040513d601f19601f820116820180604052508101906119d4919061294c565b905080156119f8576003546119f8906001600160a01b038681169133911684611d8b565b8115611a64576004805460405163d6f5066b60e01b81523392810192909252602482018490526001600160a01b03169063d6f5066b90604401600060405180830381600087803b158015611a4b57600080fd5b505af1158015611a5f573d6000803e3d6000fd5b505050505b336001600160a01b0316856001600160a01b03167f51b85031527a935663233d62a057687d039b9fbcd79c55e46a5b24510159336f8584604051611aa9929190612a17565b60405180910390a35050505050565b42600255611ac5336117db565b611ad060003361182d565b6113de60008261182d565b600083600003611aed57506000611570565b6001600160a01b03851660009081526020838152604080832060ff8716845290915281205490819003611b205750620186a05b6000611b2e6008600a612b30565b82611b3b6008600a612b30565b611b45919061297b565b611b4f9088612b3c565b611b599190612dc2565b9050611b65818761297b565b979650505050505050565b60006001600160ff1b03821115611bda5760405162461bcd60e51b815260206004820152602860248201527f53616665436173743a2076616c756520646f65736e27742066697420696e2061604482015267371034b73a191a9b60c11b6064820152608401610652565b5090565b60606104f76001600160a01b03831660145b60606000611bff836002612b3c565b611c0a906002612a39565b6001600160401b03811115611c2157611c216120af565b6040519080825280601f01601f191660200182016040528015611c4b576020820181803683370190505b509050600360fc1b81600081518110611c6657611c666129ca565b60200101906001600160f81b031916908160001a905350600f60fb1b81600181518110611c9557611c956129ca565b60200101906001600160f81b031916908160001a9053506000611cb9846002612b3c565b611cc4906001612a39565b90505b6001811115611d3c576f181899199a1a9b1b9c1cb0b131b232b360811b85600f1660108110611cf857611cf86129ca565b1a60f81b828281518110611d0e57611d0e6129ca565b60200101906001600160f81b031916908160001a90535060049490941c93611d3581612de4565b9050611cc7565b50831561057a5760405162461bcd60e51b815260206004820181905260248201527f537472696e67733a20686578206c656e67746820696e73756666696369656e746044820152606401610652565b604080516001600160a01b038581166024830152848116604483015260648083018590528351808403909101815260849092018352602080830180516001600160e01b03166323b872dd60e01b17905283518085019094528084527f5361666545524332303a206c6f772d6c6576656c2063616c6c206661696c656490840152610b5f92879291600091611e23918516908490611ea0565b8051909150156105a65780806020019051810190611e419190612dfb565b6105a65760405162461bcd60e51b815260206004820152602a60248201527f5361666545524332303a204552433230206f7065726174696f6e20646964206e6044820152691bdd081cdd58d8d9595960b21b6064820152608401610652565b6060611570848460008585600080866001600160a01b03168587604051611ec79190612e18565b60006040518083038185875af1925050503d8060008114611f04576040519150601f19603f3d011682016040523d82523d6000602084013e611f09565b606091505b5091509150611b658783838760608315611f84578251600003611f7d576001600160a01b0385163b611f7d5760405162461bcd60e51b815260206004820152601d60248201527f416464726573733a2063616c6c20746f206e6f6e2d636f6e74726163740000006044820152606401610652565b5081611570565b6115708383815115611f995781518083602001fd5b8060405162461bcd60e51b81526004016106529190612bec565b600060208284031215611fc557600080fd5b81356001600160e01b03198116811461057a57600080fd5b6001600160a01b03811681146113de57600080fd5b8035611ffd81611fdd565b919050565b60006020828403121561201457600080fd5b813561057a81611fdd565b80151581146113de57600080fd5b8035611ffd8161201f565b6000806040838503121561204b57600080fd5b823561205681611fdd565b915060208301356120668161201f565b809150509250929050565b60006020828403121561208357600080fd5b5035919050565b6000806040838503121561209d57600080fd5b82359150602083013561206681611fdd565b634e487b7160e01b600052604160045260246000fd5b60405161018081016001600160401b03811182821017156120e8576120e86120af565b60405290565b6040516101e081016001600160401b03811182821017156120e8576120e86120af565b6040516101a081016001600160401b03811182821017156120e8576120e86120af565b60405160e081016001600160401b03811182821017156120e8576120e86120af565b60405160a081016001600160401b03811182821017156120e8576120e86120af565b604051601f8201601f191681016001600160401b03811182821017156121a0576121a06120af565b604052919050565b803560ff81168114611ffd57600080fd5b80356001600160401b0381168114611ffd57600080fd5b60006001600160401b038211156121e9576121e96120af565b5060051b60200190565b600082601f83011261220457600080fd5b81356020612219612214836121d0565b612178565b82815260059290921b8401810191818101908684111561223857600080fd5b8286015b84811015612253578035835291830191830161223c565b509695505050505050565b803563ffffffff81168114611ffd57600080fd5b80356001600160d81b0381168114611ffd57600080fd5b6000610180828403121561229c57600080fd5b6122a46120c5565b90506122af82611ff2565b81526122bd6020830161202d565b60208201526122ce6040830161225e565b60408201526122df60608301612272565b60608201526080820135608082015260a082013560a082015260c082013560c082015260e082013560e082015261010080830135818301525061012080830135818301525061014080830135818301525061016080830135818301525092915050565b6000806101a080848603121561235757600080fd5b83356001600160401b038082111561236e57600080fd5b908501906101e0828803121561238357600080fd5b61238b6120ee565b61239483611ff2565b81526123a26020840161202d565b6020820152604083013560408201526123bd6060840161202d565b60608201526123ce60808401611ff2565b608082015260a083013560a082015260c083013560c082015260e083013560e08201526101006123ff81850161202d565b908201526101206124118482016121a8565b908201526101406124238482016121b9565b90820152610160838101359082015261018080840135908201526124488484016121a8565b848201526101c09350838301358281111561246257600080fd5b61246e898286016121f3565b8583015250809550505050506124878460208501612289565b90509250929050565b600081518084526020808501945080840160005b838110156124c0578151875295820195908201906001016124a4565b509495945050505050565b60208152600061057a6020830184612490565b600080604083850312156124f157600080fd5b82356124fc81611fdd565b9150612487602084016121a8565b6000806040838503121561251d57600080fd5b823561252881611fdd565b915060208301356001600160401b0381111561254357600080fd5b61254f858286016121f3565b9150509250929050565b6000806000806080858703121561256f57600080fd5b843561257a81611fdd565b9350602085013561258a81611fdd565b925060408501356001600160401b038111156125a557600080fd5b6125b1878288016121f3565b949793965093946060013593505050565b600080600080600060a086880312156125da57600080fd5b85356125e581611fdd565b945060208601356125f581611fdd565b935060408601356001600160401b0381111561261057600080fd5b61261c888289016121f3565b9598949750949560608101359550608001359392505050565b60008060006060848603121561264a57600080fd5b833561265581611fdd565b9250602084013561266581611fdd565b9150604084013561267581611fdd565b809150509250925092565b60008060006060848603121561269557600080fd5b83356126a081611fdd565b95602085013595506040909401359392505050565b803565ffffffffffff81168114611ffd57600080fd5b80356001600160801b0381168114611ffd57600080fd5b60006101a082840312156126f557600080fd5b6126fd612111565b9050612708826121a8565b81526127166020830161225e565b6020820152612727604083016121a8565b604082015261273860608301611ff2565b6060820152612749608083016126b5565b608082015261275a60a083016126cb565b60a082015261276b60c083016126cb565b60c082015261277c60e083016126cb565b60e082015261010061278f8184016126cb565b908201526101206127a18382016121b9565b908201526101406127b38382016121b9565b908201526101606127c58382016126cb565b818301525061018080830135818301525092915050565b6000602082840312156127ee57600080fd5b81356001600160401b038082111561280557600080fd5b90830190610260828603121561281a57600080fd5b612822612134565b61282b83611ff2565b81526128396020840161202d565b6020820152604083013560408201526128546060840161202d565b60608201526128656080840161202d565b60808201526128778660a085016126e2565b60a08201526102408301358281111561288f57600080fd5b61289b878286016121f3565b60c08301525095945050505050565b6000806000606084860312156128bf57600080fd5b83356128ca81611fdd565b925060208401356128da81611fdd565b929592945050506040919091013590565b60008060006060848603121561290057600080fd5b833561290b81611fdd565b9250602084013561291b81611fdd565b915060408401356001600160401b0381111561293657600080fd5b612942868287016121f3565b9150509250925092565b60006020828403121561295e57600080fd5b5051919050565b634e487b7160e01b600052601160045260246000fd5b818103818111156104f7576104f7612965565b6000602082840312156129a057600080fd5b815161057a81611fdd565b600060ff821660ff81036129c1576129c1612965565b60010192915050565b634e487b7160e01b600052603260045260246000fd5b60208082526018908201527f666565526f757465723a206163636573732064656e6965640000000000000000604082015260600190565b604081526000612a2a6040830185612490565b90508260208301529392505050565b808201808211156104f7576104f7612965565b600181815b80851115612a87578160001904821115612a6d57612a6d612965565b80851615612a7a57918102915b93841c9390800290612a51565b509250929050565b600082612a9e575060016104f7565b81612aab575060006104f7565b8160018114612ac15760028114612acb57612ae7565b60019150506104f7565b60ff841115612adc57612adc612965565b50506001821b6104f7565b5060208310610133831016604e8410600b8410161715612b0a575081810a6104f7565b612b148383612a4c565b8060001904821115612b2857612b28612965565b029392505050565b600061057a8383612a8f565b80820281158282048414176104f7576104f7612965565b60005b83811015612b6e578181015183820152602001612b56565b50506000910152565b7f416363657373436f6e74726f6c3a206163636f756e7420000000000000000000815260008351612baf816017850160208801612b53565b7001034b99036b4b9b9b4b733903937b6329607d1b6017918401918201528351612be0816028840160208801612b53565b01602801949350505050565b6020815260008251806020840152612c0b816040850160208701612b53565b601f01601f19169190910160400192915050565b8051611ffd81611fdd565b8051611ffd8161201f565b60006020808385031215612c4857600080fd5b82516001600160401b0380821115612c5f57600080fd5b818501915085601f830112612c7357600080fd5b8151612c81612214826121d0565b81815260059190911b83018401908481019088831115612ca057600080fd5b8585015b83811015612d9c57805185811115612cbb57600080fd5b8601601f1960a0828d0382011215612cd35760008081fd5b612cdb612156565b8983015188811115612ced5760008081fd5b8301603f81018e13612cff5760008081fd5b8a81015160408a821115612d1557612d156120af565b612d258d86601f85011601612178565b94508185528f81838501011115612d3c5760008081fd5b612d4b828e8701838601612b53565b848452612d59818701612c1f565b8d8501526060945084860151818501525050506080612d79818501612c2a565b83830152612d8960a08501612c2a565b9082015285525050918601918601612ca4565b5098975050505050505050565b600060018201612dbb57612dbb612965565b5060010190565b600082612ddf57634e487b7160e01b600052601260045260246000fd5b500490565b600081612df357612df3612965565b506000190190565b600060208284031215612e0d57600080fd5b815161057a8161201f565b60008251612e2a818460208701612b53565b919091019291505056fea2646970667358221220894cdf8f6c54aa04af36df748c26fca9306c054930e68a050748e70f2c2b278c64736f6c63430008110033",
  "linkReferences": {},
  "deployedLinkReferences": {}
}