{
  "_format": "hh-sol-artifact-1",
  "contractName": "FeeRouter",
  "sourceName": "contracts/fee/FeeRouter.sol",
  "abi": [
    {
      "inputs": [
        {
          "internalType": "address",
          "name": "_factory",
          "type": "address"
        }
      ],
      "stateMutability": "nonpayable",
      "type": "constructor"
    },
    {
      "anonymous": false,
      "inputs": [
        {
          "indexed": false,
          "internalType": "uint8",
          "name": "version",
          "type": "uint8"
        }
      ],
      "name": "Initialized",
      "type": "event"
    },
    {
      "anonymous": false,
      "inputs": [
        {
          "indexed": true,
          "internalType": "address",
          "name": "previousOwner",
          "type": "address"
        },
        {
          "indexed": true,
          "internalType": "address",
          "name": "newOwner",
          "type": "address"
        }
      ],
      "name": "OwnershipTransferred",
      "type": "event"
    },
    {
      "anonymous": false,
      "inputs": [
        {
          "indexed": true,
          "internalType": "bytes32",
          "name": "role",
          "type": "bytes32"
        },
        {
          "indexed": true,
          "internalType": "bytes32",
          "name": "previousAdminRole",
          "type": "bytes32"
        },
        {
          "indexed": true,
          "internalType": "bytes32",
          "name": "newAdminRole",
          "type": "bytes32"
        }
      ],
      "name": "RoleAdminChanged",
      "type": "event"
    },
    {
      "anonymous": false,
      "inputs": [
        {
          "indexed": true,
          "internalType": "bytes32",
          "name": "role",
          "type": "bytes32"
        },
        {
          "indexed": true,
          "internalType": "address",
          "name": "account",
          "type": "address"
        },
        {
          "indexed": true,
          "internalType": "address",
          "name": "sender",
          "type": "address"
        }
      ],
      "name": "RoleGranted",
      "type": "event"
    },
    {
      "anonymous": false,
      "inputs": [
        {
          "indexed": true,
          "internalType": "bytes32",
          "name": "role",
          "type": "bytes32"
        },
        {
          "indexed": true,
          "internalType": "address",
          "name": "account",
          "type": "address"
        },
        {
          "indexed": true,
          "internalType": "address",
          "name": "sender",
          "type": "address"
        }
      ],
      "name": "RoleRevoked",
      "type": "event"
    },
    {
      "anonymous": false,
      "inputs": [
        {
          "indexed": true,
          "internalType": "address",
          "name": "account",
          "type": "address"
        },
        {
          "indexed": true,
          "internalType": "address",
          "name": "market",
          "type": "address"
        },
        {
          "indexed": false,
          "internalType": "int256[]",
          "name": "fees",
          "type": "int256[]"
        },
        {
          "indexed": false,
          "internalType": "uint256",
          "name": "amount",
          "type": "uint256"
        }
      ],
      "name": "UpdateFee",
      "type": "event"
    },
    {
      "anonymous": false,
      "inputs": [
        {
          "indexed": true,
          "internalType": "address",
          "name": "market",
          "type": "address"
        },
        {
          "indexed": false,
          "internalType": "uint8",
          "name": "kind",
          "type": "uint8"
        },
        {
          "indexed": false,
          "internalType": "uint256",
          "name": "oldFeeOrRate",
          "type": "uint256"
        },
        {
          "indexed": false,
          "internalType": "uint256",
          "name": "feeOrRate",
          "type": "uint256"
        }
      ],
      "name": "UpdateFeeAndRates",
      "type": "event"
    },
    {
      "inputs": [],
      "name": "DEFAULT_ADMIN_ROLE",
      "outputs": [
        {
          "internalType": "bytes32",
          "name": "",
          "type": "bytes32"
        }
      ],
      "stateMutability": "view",
      "type": "function"
    },
    {
      "inputs": [],
      "name": "FEE_RATE_PRECISION",
      "outputs": [
        {
          "internalType": "uint256",
          "name": "",
          "type": "uint256"
        }
      ],
      "stateMutability": "view",
      "type": "function"
    },
    {
      "inputs": [
        {
          "internalType": "address",
          "name": "account",
          "type": "address"
        },
        {
          "internalType": "address",
          "name": "token",
          "type": "address"
        },
        {
          "internalType": "int256[]",
          "name": "fees",
          "type": "int256[]"
        },
        {
          "internalType": "uint256",
          "name": "fundfeeLoss",
          "type": "uint256"
        }
      ],
      "name": "collectFees",
      "outputs": [],
      "stateMutability": "nonpayable",
      "type": "function"
    },
    {
      "inputs": [
        {
          "internalType": "address",
          "name": "account",
          "type": "address"
        },
        {
          "internalType": "address",
          "name": "token",
          "type": "address"
        },
        {
          "internalType": "int256[]",
          "name": "fees",
          "type": "int256[]"
        }
      ],
      "name": "collectFees",
      "outputs": [],
      "stateMutability": "nonpayable",
      "type": "function"
    },
    {
      "inputs": [
        {
          "internalType": "address",
          "name": "market",
          "type": "address"
        },
        {
          "internalType": "bool",
          "name": "isLong",
          "type": "bool"
        }
      ],
      "name": "cumulativeFundingRates",
      "outputs": [
        {
          "internalType": "int256",
          "name": "",
          "type": "int256"
        }
      ],
      "stateMutability": "view",
      "type": "function"
    },
    {
      "inputs": [],
      "name": "factory",
      "outputs": [
        {
          "internalType": "address",
          "name": "",
          "type": "address"
        }
      ],
      "stateMutability": "view",
      "type": "function"
    },
    {
      "inputs": [
        {
          "internalType": "address",
          "name": "",
          "type": "address"
        },
        {
          "internalType": "uint8",
          "name": "",
          "type": "uint8"
        }
      ],
      "name": "feeAndRates",
      "outputs": [
        {
          "internalType": "uint256",
          "name": "",
          "type": "uint256"
        }
      ],
      "stateMutability": "view",
      "type": "function"
    },
    {
      "inputs": [],
      "name": "feeVault",
      "outputs": [
        {
          "internalType": "address",
          "name": "",
          "type": "address"
        }
      ],
      "stateMutability": "view",
      "type": "function"
    },
    {
      "inputs": [],
      "name": "fundFee",
      "outputs": [
        {
          "internalType": "address",
          "name": "",
          "type": "address"
        }
      ],
      "stateMutability": "view",
      "type": "function"
    },
    {
      "inputs": [
        {
          "internalType": "address",
          "name": "market",
          "type": "address"
        }
      ],
      "name": "getExecFee",
      "outputs": [
        {
          "internalType": "uint256",
          "name": "",
          "type": "uint256"
        }
      ],
      "stateMutability": "view",
      "type": "function"
    },
    {
      "inputs": [
        {
          "components": [
            {
              "internalType": "address",
              "name": "_market",
              "type": "address"
            },
            {
              "internalType": "bool",
              "name": "_isLong",
              "type": "bool"
            },
            {
              "internalType": "uint256",
              "name": "_oraclePrice",
              "type": "uint256"
            },
            {
              "internalType": "bool",
              "name": "isOpen",
              "type": "bool"
            },
            {
              "internalType": "address",
              "name": "_account",
              "type": "address"
            },
            {
              "internalType": "uint256",
              "name": "_sizeDelta",
              "type": "uint256"
            },
            {
              "internalType": "uint256",
              "name": "_price",
              "type": "uint256"
            },
            {
              "internalType": "uint256",
              "name": "_slippage",
              "type": "uint256"
            },
            {
              "internalType": "bool",
              "name": "_isExec",
              "type": "bool"
            },
            {
              "internalType": "uint8",
              "name": "liqState",
              "type": "uint8"
            },
            {
              "internalType": "uint64",
              "name": "_fromOrder",
              "type": "uint64"
            },
            {
              "internalType": "bytes32",
              "name": "_refCode",
              "type": "bytes32"
            },
            {
              "internalType": "uint256",
              "name": "collateralDelta",
              "type": "uint256"
            },
            {
              "internalType": "uint8",
              "name": "execNum",
              "type": "uint8"
            },
            {
              "internalType": "uint256[]",
              "name": "inputs",
              "type": "uint256[]"
            }
          ],
          "internalType": "struct MarketDataTypes.UpdatePositionInputs",
          "name": "params",
          "type": "tuple"
        },
        {
          "components": [
            {
              "internalType": "address",
              "name": "market",
              "type": "address"
            },
            {
              "internalType": "bool",
              "name": "isLong",
              "type": "bool"
            },
            {
              "internalType": "uint32",
              "name": "lastTime",
              "type": "uint32"
            },
            {
              "internalType": "uint216",
              "name": "extra3",
              "type": "uint216"
            },
            {
              "internalType": "uint256",
              "name": "size",
              "type": "uint256"
            },
            {
              "internalType": "uint256",
              "name": "collateral",
              "type": "uint256"
            },
            {
              "internalType": "uint256",
              "name": "averagePrice",
              "type": "uint256"
            },
            {
              "internalType": "int256",
              "name": "entryFundingRate",
              "type": "int256"
            },
            {
              "internalType": "int256",
              "name": "realisedPnl",
              "type": "int256"
            },
            {
              "internalType": "uint256",
              "name": "extra0",
              "type": "uint256"
            },
            {
              "internalType": "uint256",
              "name": "extra1",
              "type": "uint256"
            },
            {
              "internalType": "uint256",
              "name": "extra2",
              "type": "uint256"
            }
          ],
          "internalType": "struct Position.Props",
          "name": "position",
          "type": "tuple"
        }
      ],
      "name": "getFees",
      "outputs": [
        {
          "internalType": "int256[]",
          "name": "fees",
          "type": "int256[]"
        }
      ],
      "stateMutability": "view",
      "type": "function"
    },
    {
      "inputs": [
        {
          "internalType": "address",
          "name": "market",
          "type": "address"
        },
        {
          "internalType": "bool",
          "name": "isLong",
          "type": "bool"
        }
      ],
      "name": "getFundingRate",
      "outputs": [
        {
          "internalType": "int256",
          "name": "",
          "type": "int256"
        }
      ],
      "stateMutability": "view",
      "type": "function"
    },
    {
      "inputs": [
        {
          "components": [
            {
              "internalType": "address",
              "name": "_market",
              "type": "address"
            },
            {
              "internalType": "bool",
              "name": "_isLong",
              "type": "bool"
            },
            {
              "internalType": "uint256",
              "name": "_oraclePrice",
              "type": "uint256"
            },
            {
              "internalType": "bool",
              "name": "isOpen",
              "type": "bool"
            },
            {
              "internalType": "bool",
              "name": "isCreate",
              "type": "bool"
            },
            {
              "components": [
                {
                  "internalType": "uint8",
                  "name": "version",
                  "type": "uint8"
                },
                {
                  "internalType": "uint32",
                  "name": "updatedAtBlock",
                  "type": "uint32"
                },
                {
                  "internalType": "uint8",
                  "name": "triggerAbove",
                  "type": "uint8"
                },
                {
                  "internalType": "address",
                  "name": "account",
                  "type": "address"
                },
                {
                  "internalType": "uint48",
                  "name": "extra3",
                  "type": "uint48"
                },
                {
                  "internalType": "uint128",
                  "name": "collateral",
                  "type": "uint128"
                },
                {
                  "internalType": "uint128",
                  "name": "size",
                  "type": "uint128"
                },
                {
                  "internalType": "uint128",
                  "name": "price",
                  "type": "uint128"
                },
                {
                  "internalType": "uint128",
                  "name": "extra1",
                  "type": "uint128"
                },
                {
                  "internalType": "uint64",
                  "name": "orderID",
                  "type": "uint64"
                },
                {
                  "internalType": "uint64",
                  "name": "extra2",
                  "type": "uint64"
                },
                {
                  "internalType": "uint128",
                  "name": "extra0",
                  "type": "uint128"
                },
                {
                  "internalType": "bytes32",
                  "name": "refCode",
                  "type": "bytes32"
                }
              ],
              "internalType": "struct Order.Props",
              "name": "_order",
              "type": "tuple"
            },
            {
              "internalType": "uint256[]",
              "name": "inputs",
              "type": "uint256[]"
            }
          ],
          "internalType": "struct MarketDataTypes.UpdateOrderInputs",
          "name": "params",
          "type": "tuple"
        }
      ],
      "name": "getOrderFees",
      "outputs": [
        {
          "internalType": "int256",
          "name": "fees",
          "type": "int256"
        }
      ],
      "stateMutability": "view",
      "type": "function"
    },
    {
      "inputs": [
        {
          "internalType": "bytes32",
          "name": "role",
          "type": "bytes32"
        }
      ],
      "name": "getRoleAdmin",
      "outputs": [
        {
          "internalType": "bytes32",
          "name": "",
          "type": "bytes32"
        }
      ],
      "stateMutability": "view",
      "type": "function"
    },
    {
      "inputs": [
        {
          "internalType": "address",
          "name": "_account",
          "type": "address"
        }
      ],
      "name": "grantControllerRoleByMarketManager",
      "outputs": [],
      "stateMutability": "nonpayable",
      "type": "function"
    },
    {
      "inputs": [
        {
          "internalType": "bytes32",
          "name": "role",
          "type": "bytes32"
        },
        {
          "internalType": "address",
          "name": "account",
          "type": "address"
        }
      ],
      "name": "grantRole",
      "outputs": [],
      "stateMutability": "nonpayable",
      "type": "function"
    },
    {
      "inputs": [
        {
          "internalType": "bytes32",
          "name": "role",
          "type": "bytes32"
        },
        {
          "internalType": "address",
          "name": "account",
          "type": "address"
        }
      ],
      "name": "hasRole",
      "outputs": [
        {
          "internalType": "bool",
          "name": "",
          "type": "bool"
        }
      ],
      "stateMutability": "view",
      "type": "function"
    },
    {
      "inputs": [
        {
          "internalType": "address",
          "name": "vault",
          "type": "address"
        },
        {
          "internalType": "address",
          "name": "fundingFee",
          "type": "address"
        }
      ],
      "name": "initialize",
      "outputs": [],
      "stateMutability": "nonpayable",
      "type": "function"
    },
    {
      "inputs": [],
      "name": "owner",
      "outputs": [
        {
          "internalType": "address",
          "name": "",
          "type": "address"
        }
      ],
      "stateMutability": "view",
      "type": "function"
    },
    {
      "inputs": [
        {
          "internalType": "address",
          "name": "account",
          "type": "address"
        },
        {
          "internalType": "address",
          "name": "token",
          "type": "address"
        },
        {
          "internalType": "int256[]",
          "name": "fees",
          "type": "int256[]"
        },
        {
          "internalType": "int256",
          "name": "feesTotal",
          "type": "int256"
        }
      ],
      "name": "payoutFees",
      "outputs": [],
      "stateMutability": "nonpayable",
      "type": "function"
    },
    {
      "inputs": [],
      "name": "renounceOwnership",
      "outputs": [],
      "stateMutability": "nonpayable",
      "type": "function"
    },
    {
      "inputs": [
        {
          "internalType": "bytes32",
          "name": "role",
          "type": "bytes32"
        },
        {
          "internalType": "address",
          "name": "account",
          "type": "address"
        }
      ],
      "name": "renounceRole",
      "outputs": [],
      "stateMutability": "nonpayable",
      "type": "function"
    },
    {
      "inputs": [
        {
          "internalType": "bytes32",
          "name": "role",
          "type": "bytes32"
        },
        {
          "internalType": "address",
          "name": "account",
          "type": "address"
        }
      ],
      "name": "revokeRole",
      "outputs": [],
      "stateMutability": "nonpayable",
      "type": "function"
    },
    {
      "inputs": [
        {
          "internalType": "address",
          "name": "market",
          "type": "address"
        },
        {
          "internalType": "uint256[]",
          "name": "rates",
          "type": "uint256[]"
        }
      ],
      "name": "setFeeAndRates",
      "outputs": [],
      "stateMutability": "nonpayable",
      "type": "function"
    },
    {
      "inputs": [
        {
          "internalType": "address",
          "name": "vault",
          "type": "address"
        }
      ],
      "name": "setFeeVault",
      "outputs": [],
      "stateMutability": "nonpayable",
      "type": "function"
    },
    {
      "inputs": [
        {
          "internalType": "address",
          "name": "fundingFee",
          "type": "address"
        }
      ],
      "name": "setFundFee",
      "outputs": [],
      "stateMutability": "nonpayable",
      "type": "function"
    },
    {
      "inputs": [
        {
          "internalType": "bytes4",
          "name": "interfaceId",
          "type": "bytes4"
        }
      ],
      "name": "supportsInterface",
      "outputs": [
        {
          "internalType": "bool",
          "name": "",
          "type": "bool"
        }
      ],
      "stateMutability": "view",
      "type": "function"
    },
    {
      "inputs": [
        {
          "internalType": "address",
          "name": "to",
          "type": "address"
        }
      ],
      "name": "transferAdmin",
      "outputs": [],
      "stateMutability": "nonpayable",
      "type": "function"
    },
    {
      "inputs": [
        {
          "internalType": "address",
          "name": "newOwner",
          "type": "address"
        }
      ],
      "name": "transferOwnership",
      "outputs": [],
      "stateMutability": "nonpayable",
      "type": "function"
    },
    {
      "inputs": [
        {
          "internalType": "address",
          "name": "market",
          "type": "address"
        },
        {
          "internalType": "uint256",
          "name": "longSize",
          "type": "uint256"
        },
        {
          "internalType": "uint256",
          "name": "shortSize",
          "type": "uint256"
        }
      ],
      "name": "updateCumulativeFundingRate",
      "outputs": [],
      "stateMutability": "nonpayable",
      "type": "function"
    },
    {
      "inputs": [
        {
          "internalType": "address",
          "name": "token",
          "type": "address"
        },
        {
          "internalType": "address",
          "name": "to",
          "type": "address"
        },
        {
          "internalType": "uint256",
          "name": "amount",
          "type": "uint256"
        }
      ],
      "name": "withdraw",
      "outputs": [],
      "stateMutability": "nonpayable",
      "type": "function"
    }
  ],
  "bytecode": "0x60806040523480156200001157600080fd5b5060405162002d2838038062002d2883398101604081905262000034916200021d565b806200004033620000f2565b62000056816200014460201b620011151760201c565b506001600160a01b038116620000a45760405162461bcd60e51b815260206004820152600f60248201526e696e76616c6964206164647265737360881b604482015260640160405180910390fd5b600580546001600160a01b0319166001600160a01b038316179055620000eb7f241ecf16d79d0f8dbfb92cbc07fe17840425976cf0667f022fe9877caa831b083362000170565b506200024f565b600180546001600160a01b038381166001600160a01b0319831681179093556040519116919082907f8be0079c531659141344cd1fd0a4f28419497f9722a3daafe3b4186f6b6457e090600090a35050565b426002556200015333620000f2565b6200016060003362000211565b6200016d60008262000211565b50565b6000828152602081815260408083206001600160a01b038516845290915290205460ff166200020d576000828152602081815260408083206001600160a01b03851684529091529020805460ff19166001179055620001cc3390565b6001600160a01b0316816001600160a01b0316837f2f8788117e7eff1d82e926ec794901d17c78024a50270940304540a733656f0d60405160405180910390a45b5050565b6200020d828262000170565b6000602082840312156200023057600080fd5b81516001600160a01b03811681146200024857600080fd5b9392505050565b612ac9806200025f6000396000f3fe608060405234801561001057600080fd5b50600436106101e55760003560e01c80638da5cb5b1161010f578063c8830bf5116100a2578063d9caed1211610071578063d9caed1214610467578063e50f19ef1461047a578063f2fde38b1461048d578063f4ca4d1d146104a057600080fd5b8063c8830bf514610403578063c9cf9f3a14610416578063d547741f14610429578063d87780681461043c57600080fd5b8063a217fddf116100de578063a217fddf146103c2578063a591f97f146103ca578063c45a0155146103dd578063c6f83ad1146103f057600080fd5b80638da5cb5b1461037857806391d14854146103895780639472f7d31461039c578063966ace28146103af57600080fd5b806336568abe11610187578063715018a611610156578063715018a61461033757806375829def1461033f5780637dd49023146103525780637fe4a6981461036557600080fd5b806336568abe146102de57806341510263146102f1578063478222c214610311578063485cc9551461032457600080fd5b8063248a9ca3116101c3578063248a9ca3146102685780632f2ff15d1461028b57806333abd028146102a057806334f32e25146102cb57600080fd5b806301ffc9a7146101ea57806309d398971461021257806320981df414610255575b600080fd5b6101fd6101f8366004611ca3565b6104a8565b60405190151581526020015b60405180910390f35b610247610220366004611cf2565b6001600160a01b031660009081526006602090815260408083206003845290915290205490565b604051908152602001610209565b610247610263366004611d28565b6104df565b610247610276366004611d61565b60009081526020819052604090206001015490565b61029e610299366004611d7a565b610563565b005b6004546102b3906001600160a01b031681565b6040516001600160a01b039091168152602001610209565b6102476102d9366004611d28565b61058d565b61029e6102ec366004611d7a565b6105c8565b6103046102ff366004612032565b61064b565b60405161020991906121bb565b6003546102b3906001600160a01b031681565b61029e6103323660046121ce565b610674565b61029e610857565b61029e61034d366004611cf2565b61086b565b61029e6103603660046121fc565b610895565b61029e610373366004611cf2565b610a6d565b6001546001600160a01b03166102b3565b6101fd610397366004611d7a565b610a97565b61029e6103aa36600461224b565b610ac0565b61029e6103bd36600461224b565b610ca2565b610247600081565b61029e6103d8366004611cf2565b610d03565b6005546102b3906001600160a01b031681565b61029e6103fe3660046122b4565b610d98565b610247610411366004612410565b610e52565b61029e610424366004611cf2565b610ed3565b61029e610437366004611d7a565b610f68565b61024761044a3660046124de565b600660209081526000928352604080842090915290825290205481565b61029e61047536600461250a565b610f8d565b61029e61048836600461254b565b61102b565b61029e61049b366004611cf2565b61108d565b610247611106565b60006001600160e01b03198216637965db0b60e01b14806104d957506301ffc9a760e01b6001600160e01b03198316145b92915050565b60048054604051630826077d60e21b81526001600160a01b03858116938201939093528315156024820152600092909116906320981df4906044015b602060405180830381865afa158015610538573d6000803e3d6000fd5b505050506040513d601f19601f8201168201806040525081019061055c91906125ac565b9392505050565b60008281526020819052604090206001015461057e81611138565b6105888383611142565b505050565b6003546040516334f32e2560e01b81526001600160a01b038481166004830152831515602483015260009216906334f32e259060440161051b565b6001600160a01b038116331461063d5760405162461bcd60e51b815260206004820152602f60248201527f416363657373436f6e74726f6c3a2063616e206f6e6c792072656e6f756e636560448201526e103937b632b9903337b91039b2b63360891b60648201526084015b60405180910390fd5b61064782826111c6565b5050565b606061055c8361066d8560000151866020015186608001518760e0015161122b565b60066112c0565b600154600160a81b900460ff161580801561069a575060018054600160a01b900460ff16105b806106ba5750303b1580156106ba575060018054600160a01b900460ff16145b61071d5760405162461bcd60e51b815260206004820152602e60248201527f496e697469616c697a61626c653a20636f6e747261637420697320616c72656160448201526d191e481a5b9a5d1a585b1a5e995960921b6064820152608401610634565b6001805460ff60a01b1916600160a01b179055801561074a576001805460ff60a81b1916600160a81b1790555b6001600160a01b0383166107945760405162461bcd60e51b81526020600482015260116024820152701a5b9d985b1a5908199959481d985d5b1d607a1b6044820152606401610634565b6001600160a01b0382166107dc5760405162461bcd60e51b815260206004820152600f60248201526e696e76616c69642066756e6446656560881b6044820152606401610634565b600380546001600160a01b038086166001600160a01b03199283161790925560048054928516929091169190911790558015610588576001805460ff60a81b191681556040519081527f7f26b83ff96e1f2b6a682f133852f6798a09c465da95921460cefb38474024989060200160405180910390a1505050565b61085f611470565b61086960006114ca565b565b600061087681611138565b61088160008361151c565b61088a826114ca565b6106476000336111c6565b7f8d1089725c0dc266707fa6207730fb801dcd03108bfed7a21099bd303651d2b76108c08133610a97565b610933576108cf600033610a97565b156109295762093a80600254426108e691906125db565b106109245760405162461bcd60e51b815260206004820152600e60248201526d1858c81d1a5b59481c185cdcd95960921b6044820152606401610634565b610933565b6109338133611526565b60008251116109755760405162461bcd60e51b815260206004820152600e60248201526d696e76616c696420706172616d7360901b6044820152606401610634565b60005b82518160ff161015610a67576000838260ff168151811061099b5761099b6125ee565b60200260200101519050838260ff16815181106109ba576109ba6125ee565b6020908102919091018101516001600160a01b038716600081815260068452604080822060ff88168084529552902091909155855190917f8e26fb53d63c548677b068d08742bea435b6ecb7911ab3c5ad68fbccddeaf5fe91859185918991908110610a2857610a286125ee565b6020908102919091018101516040805160ff90951685529184019290925282015260600160405180910390a25080610a5f81612604565b915050610978565b50505050565b7f8d1089725c0dc266707fa6207730fb801dcd03108bfed7a21099bd303651d2b76101e581611138565b6000918252602082815260408084206001600160a01b0393909316845291905290205460ff1690565b610ac93361157f565b80610af95750610af97fcb58d6d985142a614029cdf01861b4fe094d5919a47e69b8310dc4093d9d6ad033610a97565b610b155760405162461bcd60e51b815260040161063490612623565b6000811315610b535760405162461bcd60e51b815260206004820152600a602482015269085999595cd51bdd185b60b21b6044820152606401610634565b6003546040516370a0823160e01b81526001600160a01b0391821660048201526000918516906370a0823190602401602060405180830381865afa158015610b9f573d6000803e3d6000fd5b505050506040513d601f19601f82011682018060405250810190610bc391906125ac565b9050610bce8261265a565b811115610be157610bde8261265a565b90505b600354604051636ce5768960e11b81526001600160a01b038681166004830152336024830152604482018490529091169063d9caed12906064015b600060405180830381600087803b158015610c3657600080fd5b505af1158015610c4a573d6000803e3d6000fd5b50505050336001600160a01b0316856001600160a01b03167f51b85031527a935663233d62a057687d039b9fbcd79c55e46a5b24510159336f8584604051610c93929190612676565b60405180910390a35050505050565b610cab3361157f565b80610cdb5750610cdb7fcb58d6d985142a614029cdf01861b4fe094d5919a47e69b8310dc4093d9d6ad033610a97565b610cf75760405162461bcd60e51b815260040161063490612623565b610a67848484846116ab565b610d2c7f241ecf16d79d0f8dbfb92cbc07fe17840425976cf0667f022fe9877caa831b08611138565b6001600160a01b038116610d765760405162461bcd60e51b81526020600482015260116024820152701a5b9d985b1a5908199959481d985d5b1d607a1b6044820152606401610634565b600380546001600160a01b0319166001600160a01b0392909216919091179055565b610da13361157f565b610dde5760405162461bcd60e51b815260206004820152600e60248201526d1a5b9d985b1a59081b585c9ad95d60921b6044820152606401610634565b6004805460405163c6f83ad160e01b81526001600160a01b0386811693820193909352602481018590526044810184905291169063c6f83ad190606401600060405180830381600087803b158015610e3557600080fd5b505af1158015610e49573d6000803e3d6000fd5b50505050505050565b600080826060015115610e6757506000610e6b565b5060015b6000610e8f84600001518560a0015160c001516001600160801b03168460066117cb565b84516001600160a01b0316600090815260066020908152604080832060038452909152902054909150610eca610ec58284612698565b611860565b95945050505050565b610efc7f241ecf16d79d0f8dbfb92cbc07fe17840425976cf0667f022fe9877caa831b08611138565b6004546001600160a01b0316610f465760405162461bcd60e51b815260206004820152600f60248201526e696e76616c69642066756e6446656560881b6044820152606401610634565b600480546001600160a01b0319166001600160a01b0392909216919091179055565b600082815260208190526040902060010154610f8381611138565b61058883836111c6565b7f5d8e12c39142ff96d79d04d15d1ba1269e4fe57bb9d26f43523628b34ba108ec610fb781611138565b600354604051636ce5768960e11b81526001600160a01b0386811660048301528581166024830152604482018590529091169063d9caed1290606401600060405180830381600087803b15801561100d57600080fd5b505af1158015611021573d6000803e3d6000fd5b5050505050505050565b6110343361157f565b8061106457506110647fcb58d6d985142a614029cdf01861b4fe094d5919a47e69b8310dc4093d9d6ad033610a97565b6110805760405162461bcd60e51b815260040161063490612623565b61058883838360006116ab565b611095611470565b6001600160a01b0381166110fa5760405162461bcd60e51b815260206004820152602660248201527f4f776e61626c653a206e6577206f776e657220697320746865207a65726f206160448201526564647265737360d01b6064820152608401610634565b611103816114ca565b50565b6111126008600a61278f565b81565b42600255611122336114ca565b61112d60003361151c565b61110360008261151c565b6111038133611526565b61114c8282610a97565b610647576000828152602081815260408083206001600160a01b03851684529091529020805460ff191660011790556111823390565b6001600160a01b0316816001600160a01b0316837f2f8788117e7eff1d82e926ec794901d17c78024a50270940304540a733656f0d60405160405180910390a45050565b6111d08282610a97565b15610647576000828152602081815260408083206001600160a01b0385168085529252808320805460ff1916905551339285917ff6391f5c32d9c69d2a47ea670b442974b53935d1edc7fd64eb21e047a839171b9190a45050565b6004805460405163478c57cd60e11b81526001600160a01b03878116938201939093526024810185905260448101849052851515606482015260009290911690638f18af9a90608401602060405180830381865afa158015611291573d6000803e3d6000fd5b505050506040513d601f19601f820116820180604052508101906112b591906125ac565b90505b949350505050565b60408051600c8082526101a0820190925260609160208201610180803683370190505084519091508382600260ff16815181106112ff576112ff6125ee565b602090810291909101015260a0850151158015611320575061018085015115155b1561132b575061055c565b8460600151156113705760a085015161134990829060005b866117cb565b82600060ff168151811061135f5761135f6125ee565b6020026020010181815250506113fd565b60a08501516113829082906001611343565b82600160ff1681518110611398576113986125ee565b60200260200101818152505084610120015160ff166001036113fd576001600160a01b038116600090815260208481526040808320600480855292529091205483519091829185919081106113ef576113ef6125ee565b602002602001018181525050505b6101a085015160ff1615611468576001600160a01b038116600090815260208481526040808320600384529091529020546101a08601516114419060ff168261279b565b90508083600360ff168151811061145a5761145a6125ee565b602002602001018181525050505b509392505050565b6001546001600160a01b031633146108695760405162461bcd60e51b815260206004820181905260248201527f4f776e61626c653a2063616c6c6572206973206e6f7420746865206f776e65726044820152606401610634565b600180546001600160a01b038381166001600160a01b0319831681179093556040519116919082907f8be0079c531659141344cd1fd0a4f28419497f9722a3daafe3b4186f6b6457e090600090a35050565b6106478282611142565b6115308282610a97565b6106475761153d816118ce565b6115488360206118e0565b6040516020016115599291906127d6565b60408051601f198184030181529082905262461bcd60e51b82526106349160040161284b565b600080600560009054906101000a90046001600160a01b03166001600160a01b031663ec2c90166040518163ffffffff1660e01b8152600401600060405180830381865afa1580156115d5573d6000803e3d6000fd5b505050506040513d6000823e601f3d908101601f191682016040526115fd9190810190612894565b805190915060005b818110156116a05782818151811061161f5761161f6125ee565b6020026020010151602001516001600160a01b0316856001600160a01b03160361168e57828181518110611655576116556125ee565b60200260200101516060015180610eca5750828181518110611679576116796125ee565b60200260200101516080015195945050505050565b8061169881612a08565b915050611605565b506000949350505050565b604051636eb1769f60e11b81523360048201523060248201526000906001600160a01b0385169063dd62ed3e90604401602060405180830381865afa1580156116f8573d6000803e3d6000fd5b505050506040513d601f19601f8201168201806040525081019061171c91906125ac565b90508060000361172c5750610a67565b600354611748906001600160a01b038681169133911684611a7b565b8115611786576004805460405163d6f5066b60e01b81523392810192909252602482018490526001600160a01b03169063d6f5066b90604401610c1c565b336001600160a01b0316856001600160a01b03167f51b85031527a935663233d62a057687d039b9fbcd79c55e46a5b24510159336f8584604051610c93929190612676565b6000836000036117dd575060006112b8565b6001600160a01b03851660009081526020838152604080832060ff87168452909152812054908190036118105750620186a05b600061181e6008600a61278f565b8261182b6008600a61278f565b61183591906125db565b61183f908861279b565b6118499190612a21565b905061185581876125db565b979650505050505050565b60006001600160ff1b038211156118ca5760405162461bcd60e51b815260206004820152602860248201527f53616665436173743a2076616c756520646f65736e27742066697420696e2061604482015267371034b73a191a9b60c11b6064820152608401610634565b5090565b60606104d96001600160a01b03831660145b606060006118ef83600261279b565b6118fa906002612698565b6001600160401b0381111561191157611911611d9f565b6040519080825280601f01601f19166020018201604052801561193b576020820181803683370190505b509050600360fc1b81600081518110611956576119566125ee565b60200101906001600160f81b031916908160001a905350600f60fb1b81600181518110611985576119856125ee565b60200101906001600160f81b031916908160001a90535060006119a984600261279b565b6119b4906001612698565b90505b6001811115611a2c576f181899199a1a9b1b9c1cb0b131b232b360811b85600f16601081106119e8576119e86125ee565b1a60f81b8282815181106119fe576119fe6125ee565b60200101906001600160f81b031916908160001a90535060049490941c93611a2581612a43565b90506119b7565b50831561055c5760405162461bcd60e51b815260206004820181905260248201527f537472696e67733a20686578206c656e67746820696e73756666696369656e746044820152606401610634565b604080516001600160a01b038581166024830152848116604483015260648083018590528351808403909101815260849092018352602080830180516001600160e01b03166323b872dd60e01b17905283518085019094528084527f5361666545524332303a206c6f772d6c6576656c2063616c6c206661696c656490840152610a6792879291600091611b13918516908490611b90565b8051909150156105885780806020019051810190611b319190612a5a565b6105885760405162461bcd60e51b815260206004820152602a60248201527f5361666545524332303a204552433230206f7065726174696f6e20646964206e6044820152691bdd081cdd58d8d9595960b21b6064820152608401610634565b60606112b8848460008585600080866001600160a01b03168587604051611bb79190612a77565b60006040518083038185875af1925050503d8060008114611bf4576040519150601f19603f3d011682016040523d82523d6000602084013e611bf9565b606091505b50915091506118558783838760608315611c74578251600003611c6d576001600160a01b0385163b611c6d5760405162461bcd60e51b815260206004820152601d60248201527f416464726573733a2063616c6c20746f206e6f6e2d636f6e74726163740000006044820152606401610634565b50816112b8565b6112b88383815115611c895781518083602001fd5b8060405162461bcd60e51b8152600401610634919061284b565b600060208284031215611cb557600080fd5b81356001600160e01b03198116811461055c57600080fd5b6001600160a01b038116811461110357600080fd5b8035611ced81611ccd565b919050565b600060208284031215611d0457600080fd5b813561055c81611ccd565b801515811461110357600080fd5b8035611ced81611d0f565b60008060408385031215611d3b57600080fd5b8235611d4681611ccd565b91506020830135611d5681611d0f565b809150509250929050565b600060208284031215611d7357600080fd5b5035919050565b60008060408385031215611d8d57600080fd5b823591506020830135611d5681611ccd565b634e487b7160e01b600052604160045260246000fd5b60405161018081016001600160401b0381118282101715611dd857611dd8611d9f565b60405290565b6040516101e081016001600160401b0381118282101715611dd857611dd8611d9f565b6040516101a081016001600160401b0381118282101715611dd857611dd8611d9f565b60405160e081016001600160401b0381118282101715611dd857611dd8611d9f565b60405160a081016001600160401b0381118282101715611dd857611dd8611d9f565b604051601f8201601f191681016001600160401b0381118282101715611e9057611e90611d9f565b604052919050565b803560ff81168114611ced57600080fd5b80356001600160401b0381168114611ced57600080fd5b60006001600160401b03821115611ed957611ed9611d9f565b5060051b60200190565b600082601f830112611ef457600080fd5b81356020611f09611f0483611ec0565b611e68565b82815260059290921b84018101918181019086841115611f2857600080fd5b8286015b84811015611f435780358352918301918301611f2c565b509695505050505050565b803563ffffffff81168114611ced57600080fd5b80356001600160d81b0381168114611ced57600080fd5b60006101808284031215611f8c57600080fd5b611f94611db5565b9050611f9f82611ce2565b8152611fad60208301611d1d565b6020820152611fbe60408301611f4e565b6040820152611fcf60608301611f62565b60608201526080820135608082015260a082013560a082015260c082013560c082015260e082013560e082015261010080830135818301525061012080830135818301525061014080830135818301525061016080830135818301525092915050565b6000806101a080848603121561204757600080fd5b83356001600160401b038082111561205e57600080fd5b908501906101e0828803121561207357600080fd5b61207b611dde565b61208483611ce2565b815261209260208401611d1d565b6020820152604083013560408201526120ad60608401611d1d565b60608201526120be60808401611ce2565b608082015260a083013560a082015260c083013560c082015260e083013560e08201526101006120ef818501611d1d565b90820152610120612101848201611e98565b90820152610140612113848201611ea9565b9082015261016083810135908201526101808084013590820152612138848401611e98565b848201526101c09350838301358281111561215257600080fd5b61215e89828601611ee3565b8583015250809550505050506121778460208501611f79565b90509250929050565b600081518084526020808501945080840160005b838110156121b057815187529582019590820190600101612194565b509495945050505050565b60208152600061055c6020830184612180565b600080604083850312156121e157600080fd5b82356121ec81611ccd565b91506020830135611d5681611ccd565b6000806040838503121561220f57600080fd5b823561221a81611ccd565b915060208301356001600160401b0381111561223557600080fd5b61224185828601611ee3565b9150509250929050565b6000806000806080858703121561226157600080fd5b843561226c81611ccd565b9350602085013561227c81611ccd565b925060408501356001600160401b0381111561229757600080fd5b6122a387828801611ee3565b949793965093946060013593505050565b6000806000606084860312156122c957600080fd5b83356122d481611ccd565b95602085013595506040909401359392505050565b803565ffffffffffff81168114611ced57600080fd5b80356001600160801b0381168114611ced57600080fd5b60006101a0828403121561232957600080fd5b612331611e01565b905061233c82611e98565b815261234a60208301611f4e565b602082015261235b60408301611e98565b604082015261236c60608301611ce2565b606082015261237d608083016122e9565b608082015261238e60a083016122ff565b60a082015261239f60c083016122ff565b60c08201526123b060e083016122ff565b60e08201526101006123c38184016122ff565b908201526101206123d5838201611ea9565b908201526101406123e7838201611ea9565b908201526101606123f98382016122ff565b818301525061018080830135818301525092915050565b60006020828403121561242257600080fd5b81356001600160401b038082111561243957600080fd5b90830190610260828603121561244e57600080fd5b612456611e24565b61245f83611ce2565b815261246d60208401611d1d565b60208201526040830135604082015261248860608401611d1d565b606082015261249960808401611d1d565b60808201526124ab8660a08501612316565b60a0820152610240830135828111156124c357600080fd5b6124cf87828601611ee3565b60c08301525095945050505050565b600080604083850312156124f157600080fd5b82356124fc81611ccd565b915061217760208401611e98565b60008060006060848603121561251f57600080fd5b833561252a81611ccd565b9250602084013561253a81611ccd565b929592945050506040919091013590565b60008060006060848603121561256057600080fd5b833561256b81611ccd565b9250602084013561257b81611ccd565b915060408401356001600160401b0381111561259657600080fd5b6125a286828701611ee3565b9150509250925092565b6000602082840312156125be57600080fd5b5051919050565b634e487b7160e01b600052601160045260246000fd5b818103818111156104d9576104d96125c5565b634e487b7160e01b600052603260045260246000fd5b600060ff821660ff810361261a5761261a6125c5565b60010192915050565b60208082526018908201527f666565526f757465723a206163636573732064656e6965640000000000000000604082015260600190565b6000600160ff1b820161266f5761266f6125c5565b5060000390565b6040815260006126896040830185612180565b90508260208301529392505050565b808201808211156104d9576104d96125c5565b600181815b808511156126e65781600019048211156126cc576126cc6125c5565b808516156126d957918102915b93841c93908002906126b0565b509250929050565b6000826126fd575060016104d9565b8161270a575060006104d9565b8160018114612720576002811461272a57612746565b60019150506104d9565b60ff84111561273b5761273b6125c5565b50506001821b6104d9565b5060208310610133831016604e8410600b8410161715612769575081810a6104d9565b61277383836126ab565b8060001904821115612787576127876125c5565b029392505050565b600061055c83836126ee565b80820281158282048414176104d9576104d96125c5565b60005b838110156127cd5781810151838201526020016127b5565b50506000910152565b7f416363657373436f6e74726f6c3a206163636f756e742000000000000000000081526000835161280e8160178501602088016127b2565b7001034b99036b4b9b9b4b733903937b6329607d1b601791840191820152835161283f8160288401602088016127b2565b01602801949350505050565b602081526000825180602084015261286a8160408501602087016127b2565b601f01601f19169190910160400192915050565b8051611ced81611ccd565b8051611ced81611d0f565b600060208083850312156128a757600080fd5b82516001600160401b03808211156128be57600080fd5b818501915085601f8301126128d257600080fd5b81516128e0611f0482611ec0565b81815260059190911b830184019084810190888311156128ff57600080fd5b8585015b838110156129fb5780518581111561291a57600080fd5b8601601f1960a0828d03820112156129325760008081fd5b61293a611e46565b898301518881111561294c5760008081fd5b8301603f81018e1361295e5760008081fd5b8a81015160408a82111561297457612974611d9f565b6129848d86601f85011601611e68565b94508185528f8183850101111561299b5760008081fd5b6129aa828e87018386016127b2565b8484526129b881870161287e565b8d85015260609450848601518185015250505060806129d8818501612889565b838301526129e860a08501612889565b9082015285525050918601918601612903565b5098975050505050505050565b600060018201612a1a57612a1a6125c5565b5060010190565b600082612a3e57634e487b7160e01b600052601260045260246000fd5b500490565b600081612a5257612a526125c5565b506000190190565b600060208284031215612a6c57600080fd5b815161055c81611d0f565b60008251612a898184602087016127b2565b919091019291505056fea2646970667358221220074efe59351a6debb25a4a1560bd57e0bf02632831e6841f5292df8077f7b66d64736f6c63430008110033",
  "linkReferences": {},
  "deployedLinkReferences": {}
}