{
  "_format": "hh-sol-artifact-1",
  "contractName": "FeeRouter",
  "sourceName": "contracts/fee/FeeRouter.sol",
  "abi": [
    {
      "anonymous": false,
      "inputs": [
        {
          "indexed": false,
          "internalType": "uint8",
          "name": "version",
          "type": "uint8"
        }
      ],
      "name": "Initialized",
      "type": "event"
    },
    {
      "anonymous": false,
      "inputs": [
        {
          "indexed": true,
          "internalType": "address",
          "name": "previousOwner",
          "type": "address"
        },
        {
          "indexed": true,
          "internalType": "address",
          "name": "newOwner",
          "type": "address"
        }
      ],
      "name": "OwnershipTransferred",
      "type": "event"
    },
    {
      "anonymous": false,
      "inputs": [
        {
          "indexed": true,
          "internalType": "bytes32",
          "name": "role",
          "type": "bytes32"
        },
        {
          "indexed": true,
          "internalType": "bytes32",
          "name": "previousAdminRole",
          "type": "bytes32"
        },
        {
          "indexed": true,
          "internalType": "bytes32",
          "name": "newAdminRole",
          "type": "bytes32"
        }
      ],
      "name": "RoleAdminChanged",
      "type": "event"
    },
    {
      "anonymous": false,
      "inputs": [
        {
          "indexed": true,
          "internalType": "bytes32",
          "name": "role",
          "type": "bytes32"
        },
        {
          "indexed": true,
          "internalType": "address",
          "name": "account",
          "type": "address"
        },
        {
          "indexed": true,
          "internalType": "address",
          "name": "sender",
          "type": "address"
        }
      ],
      "name": "RoleGranted",
      "type": "event"
    },
    {
      "anonymous": false,
      "inputs": [
        {
          "indexed": true,
          "internalType": "bytes32",
          "name": "role",
          "type": "bytes32"
        },
        {
          "indexed": true,
          "internalType": "address",
          "name": "account",
          "type": "address"
        },
        {
          "indexed": true,
          "internalType": "address",
          "name": "sender",
          "type": "address"
        }
      ],
      "name": "RoleRevoked",
      "type": "event"
    },
    {
      "anonymous": false,
      "inputs": [
        {
          "indexed": true,
          "internalType": "address",
          "name": "account",
          "type": "address"
        },
        {
          "indexed": true,
          "internalType": "address",
          "name": "market",
          "type": "address"
        },
        {
          "indexed": false,
          "internalType": "int256[]",
          "name": "fees",
          "type": "int256[]"
        },
        {
          "indexed": false,
          "internalType": "uint256",
          "name": "amount",
          "type": "uint256"
        }
      ],
      "name": "UpdateFee",
      "type": "event"
    },
    {
      "anonymous": false,
      "inputs": [
        {
          "indexed": true,
          "internalType": "address",
          "name": "market",
          "type": "address"
        },
        {
          "indexed": false,
          "internalType": "uint8",
          "name": "kind",
          "type": "uint8"
        },
        {
          "indexed": false,
          "internalType": "uint256",
          "name": "oldFeeOrRate",
          "type": "uint256"
        },
        {
          "indexed": false,
          "internalType": "uint256",
          "name": "feeOrRate",
          "type": "uint256"
        }
      ],
      "name": "UpdateFeeAndRates",
      "type": "event"
    },
    {
      "inputs": [],
      "name": "DEFAULT_ADMIN_ROLE",
      "outputs": [
        {
          "internalType": "bytes32",
          "name": "",
          "type": "bytes32"
        }
      ],
      "stateMutability": "view",
      "type": "function"
    },
    {
      "inputs": [],
      "name": "FEE_RATE_PRECISION",
      "outputs": [
        {
          "internalType": "uint256",
          "name": "",
          "type": "uint256"
        }
      ],
      "stateMutability": "view",
      "type": "function"
    },
    {
      "inputs": [
        {
          "internalType": "address",
          "name": "account",
          "type": "address"
        },
        {
          "internalType": "address",
          "name": "token",
          "type": "address"
        },
        {
          "internalType": "int256[]",
          "name": "fees",
          "type": "int256[]"
        },
        {
          "internalType": "uint256",
          "name": "fundfeeLoss",
          "type": "uint256"
        }
      ],
      "name": "collectFees",
      "outputs": [],
      "stateMutability": "nonpayable",
      "type": "function"
    },
    {
      "inputs": [
        {
          "internalType": "address",
          "name": "account",
          "type": "address"
        },
        {
          "internalType": "address",
          "name": "token",
          "type": "address"
        },
        {
          "internalType": "int256[]",
          "name": "fees",
          "type": "int256[]"
        }
      ],
      "name": "collectFees",
      "outputs": [],
      "stateMutability": "nonpayable",
      "type": "function"
    },
    {
      "inputs": [
        {
          "internalType": "address",
          "name": "market",
          "type": "address"
        },
        {
          "internalType": "bool",
          "name": "isLong",
          "type": "bool"
        }
      ],
      "name": "cumulativeFundingRates",
      "outputs": [
        {
          "internalType": "int256",
          "name": "",
          "type": "int256"
        }
      ],
      "stateMutability": "view",
      "type": "function"
    },
    {
      "inputs": [],
      "name": "factory",
      "outputs": [
        {
          "internalType": "address",
          "name": "",
          "type": "address"
        }
      ],
      "stateMutability": "view",
      "type": "function"
    },
    {
      "inputs": [
        {
          "internalType": "address",
          "name": "",
          "type": "address"
        },
        {
          "internalType": "uint8",
          "name": "",
          "type": "uint8"
        }
      ],
      "name": "feeAndRates",
      "outputs": [
        {
          "internalType": "uint256",
          "name": "",
          "type": "uint256"
        }
      ],
      "stateMutability": "view",
      "type": "function"
    },
    {
      "inputs": [],
      "name": "feeVault",
      "outputs": [
        {
          "internalType": "address",
          "name": "",
          "type": "address"
        }
      ],
      "stateMutability": "view",
      "type": "function"
    },
    {
      "inputs": [],
      "name": "fundFee",
      "outputs": [
        {
          "internalType": "address",
          "name": "",
          "type": "address"
        }
      ],
      "stateMutability": "view",
      "type": "function"
    },
    {
      "inputs": [
        {
          "internalType": "address",
          "name": "market",
          "type": "address"
        }
      ],
      "name": "getExecFee",
      "outputs": [
        {
          "internalType": "uint256",
          "name": "",
          "type": "uint256"
        }
      ],
      "stateMutability": "view",
      "type": "function"
    },
    {
      "inputs": [
        {
          "components": [
            {
              "internalType": "address",
              "name": "_market",
              "type": "address"
            },
            {
              "internalType": "bool",
              "name": "_isLong",
              "type": "bool"
            },
            {
              "internalType": "uint256",
              "name": "_oraclePrice",
              "type": "uint256"
            },
            {
              "internalType": "bool",
              "name": "isOpen",
              "type": "bool"
            },
            {
              "internalType": "address",
              "name": "_account",
              "type": "address"
            },
            {
              "internalType": "uint256",
              "name": "_sizeDelta",
              "type": "uint256"
            },
            {
              "internalType": "uint256",
              "name": "_price",
              "type": "uint256"
            },
            {
              "internalType": "uint256",
              "name": "_slippage",
              "type": "uint256"
            },
            {
              "internalType": "bool",
              "name": "_isExec",
              "type": "bool"
            },
            {
              "internalType": "uint8",
              "name": "liqState",
              "type": "uint8"
            },
            {
              "internalType": "uint64",
              "name": "_fromOrder",
              "type": "uint64"
            },
            {
              "internalType": "bytes32",
              "name": "_refCode",
              "type": "bytes32"
            },
            {
              "internalType": "uint256",
              "name": "collateralDelta",
              "type": "uint256"
            },
            {
              "internalType": "uint8",
              "name": "execNum",
              "type": "uint8"
            },
            {
              "internalType": "uint256[]",
              "name": "inputs",
              "type": "uint256[]"
            }
          ],
          "internalType": "struct MarketDataTypes.UpdatePositionInputs",
          "name": "params",
          "type": "tuple"
        },
        {
          "components": [
            {
              "internalType": "address",
              "name": "market",
              "type": "address"
            },
            {
              "internalType": "bool",
              "name": "isLong",
              "type": "bool"
            },
            {
              "internalType": "uint32",
              "name": "lastTime",
              "type": "uint32"
            },
            {
              "internalType": "uint216",
              "name": "extra3",
              "type": "uint216"
            },
            {
              "internalType": "uint256",
              "name": "size",
              "type": "uint256"
            },
            {
              "internalType": "uint256",
              "name": "collateral",
              "type": "uint256"
            },
            {
              "internalType": "uint256",
              "name": "averagePrice",
              "type": "uint256"
            },
            {
              "internalType": "int256",
              "name": "entryFundingRate",
              "type": "int256"
            },
            {
              "internalType": "int256",
              "name": "realisedPnl",
              "type": "int256"
            },
            {
              "internalType": "uint256",
              "name": "extra0",
              "type": "uint256"
            },
            {
              "internalType": "uint256",
              "name": "extra1",
              "type": "uint256"
            },
            {
              "internalType": "uint256",
              "name": "extra2",
              "type": "uint256"
            }
          ],
          "internalType": "struct Position.Props",
          "name": "position",
          "type": "tuple"
        }
      ],
      "name": "getFees",
      "outputs": [
        {
          "internalType": "int256[]",
          "name": "fees",
          "type": "int256[]"
        }
      ],
      "stateMutability": "view",
      "type": "function"
    },
    {
      "inputs": [
        {
          "internalType": "address",
          "name": "market",
          "type": "address"
        },
        {
          "internalType": "bool",
          "name": "isLong",
          "type": "bool"
        }
      ],
      "name": "getFundingRate",
      "outputs": [
        {
          "internalType": "int256",
          "name": "",
          "type": "int256"
        }
      ],
      "stateMutability": "view",
      "type": "function"
    },
    {
      "inputs": [
        {
          "components": [
            {
              "internalType": "address",
              "name": "_market",
              "type": "address"
            },
            {
              "internalType": "bool",
              "name": "_isLong",
              "type": "bool"
            },
            {
              "internalType": "uint256",
              "name": "_oraclePrice",
              "type": "uint256"
            },
            {
              "internalType": "bool",
              "name": "isOpen",
              "type": "bool"
            },
            {
              "internalType": "bool",
              "name": "isCreate",
              "type": "bool"
            },
            {
              "components": [
                {
                  "internalType": "uint8",
                  "name": "version",
                  "type": "uint8"
                },
                {
                  "internalType": "uint32",
                  "name": "updatedAtBlock",
                  "type": "uint32"
                },
                {
                  "internalType": "uint8",
                  "name": "triggerAbove",
                  "type": "uint8"
                },
                {
                  "internalType": "address",
                  "name": "account",
                  "type": "address"
                },
                {
                  "internalType": "uint48",
                  "name": "extra3",
                  "type": "uint48"
                },
                {
                  "internalType": "uint128",
                  "name": "collateral",
                  "type": "uint128"
                },
                {
                  "internalType": "uint128",
                  "name": "size",
                  "type": "uint128"
                },
                {
                  "internalType": "uint128",
                  "name": "price",
                  "type": "uint128"
                },
                {
                  "internalType": "uint128",
                  "name": "extra1",
                  "type": "uint128"
                },
                {
                  "internalType": "uint64",
                  "name": "orderID",
                  "type": "uint64"
                },
                {
                  "internalType": "uint64",
                  "name": "extra2",
                  "type": "uint64"
                },
                {
                  "internalType": "uint128",
                  "name": "extra0",
                  "type": "uint128"
                },
                {
                  "internalType": "bytes32",
                  "name": "refCode",
                  "type": "bytes32"
                }
              ],
              "internalType": "struct Order.Props",
              "name": "_order",
              "type": "tuple"
            },
            {
              "internalType": "uint256[]",
              "name": "inputs",
              "type": "uint256[]"
            }
          ],
          "internalType": "struct MarketDataTypes.UpdateOrderInputs",
          "name": "params",
          "type": "tuple"
        }
      ],
      "name": "getOrderFees",
      "outputs": [
        {
          "internalType": "int256",
          "name": "fees",
          "type": "int256"
        }
      ],
      "stateMutability": "view",
      "type": "function"
    },
    {
      "inputs": [
        {
          "internalType": "bytes32",
          "name": "role",
          "type": "bytes32"
        }
      ],
      "name": "getRoleAdmin",
      "outputs": [
        {
          "internalType": "bytes32",
          "name": "",
          "type": "bytes32"
        }
      ],
      "stateMutability": "view",
      "type": "function"
    },
    {
      "inputs": [
        {
          "internalType": "address",
          "name": "_account",
          "type": "address"
        }
      ],
      "name": "grantControllerRoleByMarketManager",
      "outputs": [],
      "stateMutability": "nonpayable",
      "type": "function"
    },
    {
      "inputs": [
        {
          "internalType": "bytes32",
          "name": "role",
          "type": "bytes32"
        },
        {
          "internalType": "address",
          "name": "account",
          "type": "address"
        }
      ],
      "name": "grantRole",
      "outputs": [],
      "stateMutability": "nonpayable",
      "type": "function"
    },
    {
      "inputs": [
        {
          "internalType": "bytes32",
          "name": "role",
          "type": "bytes32"
        },
        {
          "internalType": "address",
          "name": "account",
          "type": "address"
        }
      ],
      "name": "hasRole",
      "outputs": [
        {
          "internalType": "bool",
          "name": "",
          "type": "bool"
        }
      ],
      "stateMutability": "view",
      "type": "function"
    },
    {
      "inputs": [
        {
          "internalType": "address",
          "name": "_factory",
          "type": "address"
        },
        {
          "internalType": "address",
          "name": "vault",
          "type": "address"
        },
        {
          "internalType": "address",
          "name": "fundingFee",
          "type": "address"
        }
      ],
      "name": "initialize",
      "outputs": [],
      "stateMutability": "nonpayable",
      "type": "function"
    },
    {
      "inputs": [
        {
          "internalType": "address",
          "name": "market",
          "type": "address"
        },
        {
          "internalType": "uint8",
          "name": "_len",
          "type": "uint8"
        }
      ],
      "name": "migrateFeeAndRates",
      "outputs": [],
      "stateMutability": "nonpayable",
      "type": "function"
    },
    {
      "inputs": [],
      "name": "owner",
      "outputs": [
        {
          "internalType": "address",
          "name": "",
          "type": "address"
        }
      ],
      "stateMutability": "view",
      "type": "function"
    },
    {
      "inputs": [
        {
          "internalType": "address",
          "name": "account",
          "type": "address"
        },
        {
          "internalType": "address",
          "name": "token",
          "type": "address"
        },
        {
          "internalType": "int256[]",
          "name": "fees",
          "type": "int256[]"
        },
        {
          "internalType": "uint256",
          "name": "feesTotal",
          "type": "uint256"
        }
      ],
      "name": "payoutFees",
      "outputs": [],
      "stateMutability": "nonpayable",
      "type": "function"
    },
    {
      "inputs": [],
      "name": "renounceOwnership",
      "outputs": [],
      "stateMutability": "nonpayable",
      "type": "function"
    },
    {
      "inputs": [
        {
          "internalType": "bytes32",
          "name": "role",
          "type": "bytes32"
        },
        {
          "internalType": "address",
          "name": "account",
          "type": "address"
        }
      ],
      "name": "renounceRole",
      "outputs": [],
      "stateMutability": "nonpayable",
      "type": "function"
    },
    {
      "inputs": [
        {
          "internalType": "bytes32",
          "name": "role",
          "type": "bytes32"
        },
        {
          "internalType": "address",
          "name": "account",
          "type": "address"
        }
      ],
      "name": "revokeRole",
      "outputs": [],
      "stateMutability": "nonpayable",
      "type": "function"
    },
    {
      "inputs": [
        {
          "internalType": "address",
          "name": "market",
          "type": "address"
        },
        {
          "internalType": "uint256[]",
          "name": "rates",
          "type": "uint256[]"
        }
      ],
      "name": "setFeeAndRates",
      "outputs": [],
      "stateMutability": "nonpayable",
      "type": "function"
    },
    {
      "inputs": [
        {
          "internalType": "address",
          "name": "vault",
          "type": "address"
        }
      ],
      "name": "setFeeVault",
      "outputs": [],
      "stateMutability": "nonpayable",
      "type": "function"
    },
    {
      "inputs": [
        {
          "internalType": "address",
          "name": "fundingFee",
          "type": "address"
        }
      ],
      "name": "setFundFee",
      "outputs": [],
      "stateMutability": "nonpayable",
      "type": "function"
    },
    {
      "inputs": [
        {
          "internalType": "bytes4",
          "name": "interfaceId",
          "type": "bytes4"
        }
      ],
      "name": "supportsInterface",
      "outputs": [
        {
          "internalType": "bool",
          "name": "",
          "type": "bool"
        }
      ],
      "stateMutability": "view",
      "type": "function"
    },
    {
      "inputs": [
        {
          "internalType": "address",
          "name": "to",
          "type": "address"
        }
      ],
      "name": "transferAdmin",
      "outputs": [],
      "stateMutability": "nonpayable",
      "type": "function"
    },
    {
      "inputs": [
        {
          "internalType": "address",
          "name": "newOwner",
          "type": "address"
        }
      ],
      "name": "transferOwnership",
      "outputs": [],
      "stateMutability": "nonpayable",
      "type": "function"
    },
    {
      "inputs": [
        {
          "internalType": "address",
          "name": "market",
          "type": "address"
        },
        {
          "internalType": "uint256",
          "name": "longSize",
          "type": "uint256"
        },
        {
          "internalType": "uint256",
          "name": "shortSize",
          "type": "uint256"
        }
      ],
      "name": "updateCumulativeFundingRate",
      "outputs": [],
      "stateMutability": "nonpayable",
      "type": "function"
    },
    {
      "inputs": [
        {
          "internalType": "address",
          "name": "token",
          "type": "address"
        },
        {
          "internalType": "address",
          "name": "to",
          "type": "address"
        },
        {
          "internalType": "uint256",
          "name": "amount",
          "type": "uint256"
        }
      ],
      "name": "withdraw",
      "outputs": [],
      "stateMutability": "nonpayable",
      "type": "function"
    }
  ],
  "bytecode": "0x608060405234801561001057600080fd5b5061001a3361001f565b610071565b600180546001600160a01b038381166001600160a01b0319831681179093556040519116919082907f8be0079c531659141344cd1fd0a4f28419497f9722a3daafe3b4186f6b6457e090600090a35050565b612d4f80620000816000396000f3fe608060405234801561001057600080fd5b50600436106101f05760003560e01c80638da5cb5b1161010f578063c8830bf5116100a2578063d9caed1211610071578063d9caed1214610485578063e50f19ef14610498578063f2fde38b146104ab578063f4ca4d1d146104be57600080fd5b8063c8830bf514610421578063c9cf9f3a14610434578063d547741f14610447578063d87780681461045a57600080fd5b8063a591f97f116100de578063a591f97f146103d5578063c0c53b8b146103e8578063c45a0155146103fb578063c6f83ad11461040e57600080fd5b80638da5cb5b1461039657806391d14854146103a7578063966ace28146103ba578063a217fddf146103cd57600080fd5b806336568abe11610187578063715018a611610156578063715018a61461035557806375829def1461035d5780637dd49023146103705780637fe4a6981461038357600080fd5b806336568abe146102fc578063415102631461030f578063478222c21461032f5780635bac2f601461034257600080fd5b8063248a9ca3116101c3578063248a9ca3146102885780632f2ff15d146102ab57806333abd028146102be57806334f32e25146102e957600080fd5b806301ffc9a7146101f557806309d398971461021d5780631a6ca8091461026057806320981df414610275575b600080fd5b610208610203366004611f0b565b6104c6565b60405190151581526020015b60405180910390f35b61025261022b366004611f5a565b6001600160a01b031660009081526006602090815260408083206003845290915290205490565b604051908152602001610214565b61027361026e3660046120fe565b6104fd565b005b610252610283366004612180565b610699565b6102526102963660046121b9565b60009081526020819052604090206001015490565b6102736102b93660046121d2565b61071d565b6004546102d1906001600160a01b031681565b6040516001600160a01b039091168152602001610214565b6102526102f7366004612180565b610747565b61027361030a3660046121d2565b610782565b61032261031d366004612303565b610800565b604051610214919061248c565b6003546102d1906001600160a01b031681565b61027361035036600461249f565b610829565b610273610a35565b61027361036b366004611f5a565b610a49565b61027361037e3660046124cb565b610a73565b610273610391366004611f5a565b610c42565b6001546001600160a01b03166102d1565b6102086103b53660046121d2565b610c6c565b6102736103c83660046120fe565b610c95565b610252600081565b6102736103e3366004611f5a565b610cfc565b6102736103f636600461251a565b610d91565b6005546102d1906001600160a01b031681565b61027361041c366004612565565b611008565b61025261042f3660046126c1565b6110c2565b610273610442366004611f5a565b611143565b6102736104553660046121d2565b6111d8565b61025261046836600461249f565b600660209081526000928352604080842090915290825290205481565b61027361049336600461278f565b6111fd565b6102736104a63660046127d0565b61129b565b6102736104b9366004611f5a565b6112fd565b610252611376565b60006001600160e01b03198216637965db0b60e01b14806104f757506301ffc9a760e01b6001600160e01b03198316145b92915050565b61050633611385565b8061053657506105367fcb58d6d985142a614029cdf01861b4fe094d5919a47e69b8310dc4093d9d6ad033610c6c565b61055b5760405162461bcd60e51b815260040161055290612831565b60405180910390fd5b6003546040516370a0823160e01b81526001600160a01b0391821660048201526000918516906370a0823190602401602060405180830381865afa1580156105a7573d6000803e3d6000fd5b505050506040513d601f19601f820116820180604052508101906105cb9190612868565b9050818111156105d85750805b600354604051636ce5768960e11b81526001600160a01b038681166004830152336024830152604482018490529091169063d9caed12906064015b600060405180830381600087803b15801561062d57600080fd5b505af1158015610641573d6000803e3d6000fd5b50505050336001600160a01b0316856001600160a01b03167f51b85031527a935663233d62a057687d039b9fbcd79c55e46a5b24510159336f858460405161068a929190612881565b60405180910390a35050505050565b60048054604051630826077d60e21b81526001600160a01b03858116938201939093528315156024820152600092909116906320981df4906044015b602060405180830381865afa1580156106f2573d6000803e3d6000fd5b505050506040513d601f19601f820116820180604052508101906107169190612868565b9392505050565b600082815260208190526040902060010154610738816114b1565b61074283836114bb565b505050565b6003546040516334f32e2560e01b81526001600160a01b038481166004830152831515602483015260009216906334f32e25906044016106d5565b6001600160a01b03811633146107f25760405162461bcd60e51b815260206004820152602f60248201527f416363657373436f6e74726f6c3a2063616e206f6e6c792072656e6f756e636560448201526e103937b632b9903337b91039b2b63360891b6064820152608401610552565b6107fc828261153f565b5050565b6060610716836108228560000151866020015186608001518760e001516115a4565b6006611639565b7f8d1089725c0dc266707fa6207730fb801dcd03108bfed7a21099bd303651d2b760006108568133610c6c565b905080156108b35762093a806002544261087091906128b9565b106108ae5760405162461bcd60e51b815260206004820152600e60248201526d1858c81d1a5b59481c185cdcd95960921b6044820152606401610552565b6108bd565b6108bd82336117e9565b6000846001600160a01b031663f29ebf616040518163ffffffff1660e01b81526004016020604051808303816000875af11580156108ff573d6000803e3d6000fd5b505050506040513d601f19601f8201168201806040525081019061092391906128cc565b905060005b8460ff168160ff161015610a2d57604051631b0ef00d60e31b81526001600160a01b03878116600483015260ff831660248301526000919084169063d877806890604401602060405180830381865afa158015610989573d6000803e3d6000fd5b505050506040513d601f19601f820116820180604052508101906109ad9190612868565b6001600160a01b038816600081815260066020908152604080832060ff88168085529083529281902085905580519283529082018490528101839052919250907f8e26fb53d63c548677b068d08742bea435b6ecb7911ab3c5ad68fbccddeaf5fe9060600160405180910390a25080610a25816128e9565b915050610928565b505050505050565b610a3d611842565b610a47600061189c565b565b6000610a54816114b1565b610a5f6000836118ee565b610a688261189c565b6107fc60003361153f565b7f8d1089725c0dc266707fa6207730fb801dcd03108bfed7a21099bd303651d2b76000610aa08133610c6c565b90508015610afd5762093a8060025442610aba91906128b9565b10610af85760405162461bcd60e51b815260206004820152600e60248201526d1858c81d1a5b59481c185cdcd95960921b6044820152606401610552565b610b07565b610b0782336117e9565b6000835111610b495760405162461bcd60e51b815260206004820152600e60248201526d696e76616c696420706172616d7360901b6044820152606401610552565b60005b83518160ff161015610c3b576000848260ff1681518110610b6f57610b6f612908565b60200260200101519050848260ff1681518110610b8e57610b8e612908565b6020908102919091018101516001600160a01b038816600081815260068452604080822060ff88168084529552902091909155865190917f8e26fb53d63c548677b068d08742bea435b6ecb7911ab3c5ad68fbccddeaf5fe91859185918a91908110610bfc57610bfc612908565b6020908102919091018101516040805160ff90951685529184019290925282015260600160405180910390a25080610c33816128e9565b915050610b4c565b5050505050565b7f8d1089725c0dc266707fa6207730fb801dcd03108bfed7a21099bd303651d2b76101f0816114b1565b6000918252602082815260408084206001600160a01b0393909316845291905290205460ff1690565b610c9e33611385565b80610cce5750610cce7fcb58d6d985142a614029cdf01861b4fe094d5919a47e69b8310dc4093d9d6ad033610c6c565b610cea5760405162461bcd60e51b815260040161055290612831565b610cf6848484846118f8565b50505050565b610d257f241ecf16d79d0f8dbfb92cbc07fe17840425976cf0667f022fe9877caa831b086114b1565b6001600160a01b038116610d6f5760405162461bcd60e51b81526020600482015260116024820152701a5b9d985b1a5908199959481d985d5b1d607a1b6044820152606401610552565b600380546001600160a01b0319166001600160a01b0392909216919091179055565b600154600160a81b900460ff1615808015610db7575060018054600160a01b900460ff16105b80610dd75750303b158015610dd7575060018054600160a01b900460ff16145b610e3a5760405162461bcd60e51b815260206004820152602e60248201527f496e697469616c697a61626c653a20636f6e747261637420697320616c72656160448201526d191e481a5b9a5d1a585b1a5e995960921b6064820152608401610552565b6001805460ff60a01b1916600160a01b1790558015610e67576001805460ff60a81b1916600160a81b1790555b6001600160a01b038416610eaf5760405162461bcd60e51b815260206004820152600f60248201526e696e76616c6964206164647265737360881b6044820152606401610552565b6001600160a01b038316610ef95760405162461bcd60e51b81526020600482015260116024820152701a5b9d985b1a5908199959481d985d5b1d607a1b6044820152606401610552565b6001600160a01b038216610f415760405162461bcd60e51b815260206004820152600f60248201526e696e76616c69642066756e6446656560881b6044820152606401610552565b610f4a84611a10565b600580546001600160a01b038087166001600160a01b031992831617909255600380548684169083161790556004805492851692909116919091179055610f926000336114bb565b610fbc7f241ecf16d79d0f8dbfb92cbc07fe17840425976cf0667f022fe9877caa831b08336114bb565b8015610cf6576001805460ff60a81b191681556040519081527f7f26b83ff96e1f2b6a682f133852f6798a09c465da95921460cefb38474024989060200160405180910390a150505050565b61101133611385565b61104e5760405162461bcd60e51b815260206004820152600e60248201526d1a5b9d985b1a59081b585c9ad95d60921b6044820152606401610552565b6004805460405163c6f83ad160e01b81526001600160a01b0386811693820193909352602481018590526044810184905291169063c6f83ad190606401600060405180830381600087803b1580156110a557600080fd5b505af11580156110b9573d6000803e3d6000fd5b50505050505050565b6000808260600151156110d7575060006110db565b5060015b60006110ff84600001518560a0015160c001516001600160801b0316846006611a33565b84516001600160a01b031660009081526006602090815260408083206003845290915290205490915061113a611135828461291e565b611ac8565b95945050505050565b61116c7f241ecf16d79d0f8dbfb92cbc07fe17840425976cf0667f022fe9877caa831b086114b1565b6004546001600160a01b03166111b65760405162461bcd60e51b815260206004820152600f60248201526e696e76616c69642066756e6446656560881b6044820152606401610552565b600480546001600160a01b0319166001600160a01b0392909216919091179055565b6000828152602081905260409020600101546111f3816114b1565b610742838361153f565b7f5d8e12c39142ff96d79d04d15d1ba1269e4fe57bb9d26f43523628b34ba108ec611227816114b1565b600354604051636ce5768960e11b81526001600160a01b0386811660048301528581166024830152604482018590529091169063d9caed1290606401600060405180830381600087803b15801561127d57600080fd5b505af1158015611291573d6000803e3d6000fd5b5050505050505050565b6112a433611385565b806112d457506112d47fcb58d6d985142a614029cdf01861b4fe094d5919a47e69b8310dc4093d9d6ad033610c6c565b6112f05760405162461bcd60e51b815260040161055290612831565b61074283838360006118f8565b611305611842565b6001600160a01b03811661136a5760405162461bcd60e51b815260206004820152602660248201527f4f776e61626c653a206e6577206f776e657220697320746865207a65726f206160448201526564647265737360d01b6064820152608401610552565b6113738161189c565b50565b6113826008600a612a15565b81565b600080600560009054906101000a90046001600160a01b03166001600160a01b031663ec2c90166040518163ffffffff1660e01b8152600401600060405180830381865afa1580156113db573d6000803e3d6000fd5b505050506040513d6000823e601f3d908101601f191682016040526114039190810190612a5b565b805190915060005b818110156114a65782818151811061142557611425612908565b6020026020010151602001516001600160a01b0316856001600160a01b0316036114945782818151811061145b5761145b612908565b6020026020010151606001518061113a575082818151811061147f5761147f612908565b60200260200101516080015195945050505050565b8061149e81612bcf565b91505061140b565b506000949350505050565b61137381336117e9565b6114c58282610c6c565b6107fc576000828152602081815260408083206001600160a01b03851684529091529020805460ff191660011790556114fb3390565b6001600160a01b0316816001600160a01b0316837f2f8788117e7eff1d82e926ec794901d17c78024a50270940304540a733656f0d60405160405180910390a45050565b6115498282610c6c565b156107fc576000828152602081815260408083206001600160a01b0385168085529252808320805460ff1916905551339285917ff6391f5c32d9c69d2a47ea670b442974b53935d1edc7fd64eb21e047a839171b9190a45050565b6004805460405163478c57cd60e11b81526001600160a01b03878116938201939093526024810185905260448101849052851515606482015260009290911690638f18af9a90608401602060405180830381865afa15801561160a573d6000803e3d6000fd5b505050506040513d601f19601f8201168201806040525081019061162e9190612868565b90505b949350505050565b60408051600c8082526101a0820190925260609160208201610180803683370190505084519091508382600260ff168151811061167857611678612908565b602090810291909101015260a0850151158015611699575061018085015115155b156116a45750610716565b8460600151156116e95760a08501516116c290829060005b86611a33565b82600060ff16815181106116d8576116d8612908565b602002602001018181525050611776565b60a08501516116fb90829060016116bc565b82600160ff168151811061171157611711612908565b60200260200101818152505084610120015160ff16600103611776576001600160a01b0381166000908152602084815260408083206004808552925290912054835190918291859190811061176857611768612908565b602002602001018181525050505b6101a085015160ff16156117e1576001600160a01b038116600090815260208481526040808320600384529091529020546101a08601516117ba9060ff1682612be8565b90508083600360ff16815181106117d3576117d3612908565b602002602001018181525050505b509392505050565b6117f38282610c6c565b6107fc5761180081611b36565b61180b836020611b48565b60405160200161181c929190612bff565b60408051601f198184030181529082905262461bcd60e51b825261055291600401612c74565b6001546001600160a01b03163314610a475760405162461bcd60e51b815260206004820181905260248201527f4f776e61626c653a2063616c6c6572206973206e6f7420746865206f776e65726044820152606401610552565b600180546001600160a01b038381166001600160a01b0319831681179093556040519116919082907f8be0079c531659141344cd1fd0a4f28419497f9722a3daafe3b4186f6b6457e090600090a35050565b6107fc82826114bb565b604051636eb1769f60e11b81523360048201523060248201526000906001600160a01b0385169063dd62ed3e90604401602060405180830381865afa158015611945573d6000803e3d6000fd5b505050506040513d601f19601f820116820180604052508101906119699190612868565b9050801561198d5760035461198d906001600160a01b038681169133911684611ce3565b81156119cb576004805460405163d6f5066b60e01b81523392810192909252602482018490526001600160a01b03169063d6f5066b90604401610613565b336001600160a01b0316856001600160a01b03167f51b85031527a935663233d62a057687d039b9fbcd79c55e46a5b24510159336f858460405161068a929190612881565b42600255611a1d3361189c565b611a286000336118ee565b6113736000826118ee565b600083600003611a4557506000611631565b6001600160a01b03851660009081526020838152604080832060ff8716845290915281205490819003611a785750620186a05b6000611a866008600a612a15565b82611a936008600a612a15565b611a9d91906128b9565b611aa79088612be8565b611ab19190612ca7565b9050611abd81876128b9565b979650505050505050565b60006001600160ff1b03821115611b325760405162461bcd60e51b815260206004820152602860248201527f53616665436173743a2076616c756520646f65736e27742066697420696e2061604482015267371034b73a191a9b60c11b6064820152608401610552565b5090565b60606104f76001600160a01b03831660145b60606000611b57836002612be8565b611b6290600261291e565b6001600160401b03811115611b7957611b79611f77565b6040519080825280601f01601f191660200182016040528015611ba3576020820181803683370190505b509050600360fc1b81600081518110611bbe57611bbe612908565b60200101906001600160f81b031916908160001a905350600f60fb1b81600181518110611bed57611bed612908565b60200101906001600160f81b031916908160001a9053506000611c11846002612be8565b611c1c90600161291e565b90505b6001811115611c94576f181899199a1a9b1b9c1cb0b131b232b360811b85600f1660108110611c5057611c50612908565b1a60f81b828281518110611c6657611c66612908565b60200101906001600160f81b031916908160001a90535060049490941c93611c8d81612cc9565b9050611c1f565b5083156107165760405162461bcd60e51b815260206004820181905260248201527f537472696e67733a20686578206c656e67746820696e73756666696369656e746044820152606401610552565b604080516001600160a01b038581166024830152848116604483015260648083018590528351808403909101815260849092018352602080830180516001600160e01b03166323b872dd60e01b17905283518085019094528084527f5361666545524332303a206c6f772d6c6576656c2063616c6c206661696c656490840152610cf692879291600091611d7b918516908490611df8565b8051909150156107425780806020019051810190611d999190612ce0565b6107425760405162461bcd60e51b815260206004820152602a60248201527f5361666545524332303a204552433230206f7065726174696f6e20646964206e6044820152691bdd081cdd58d8d9595960b21b6064820152608401610552565b6060611631848460008585600080866001600160a01b03168587604051611e1f9190612cfd565b60006040518083038185875af1925050503d8060008114611e5c576040519150601f19603f3d011682016040523d82523d6000602084013e611e61565b606091505b5091509150611abd8783838760608315611edc578251600003611ed5576001600160a01b0385163b611ed55760405162461bcd60e51b815260206004820152601d60248201527f416464726573733a2063616c6c20746f206e6f6e2d636f6e74726163740000006044820152606401610552565b5081611631565b6116318383815115611ef15781518083602001fd5b8060405162461bcd60e51b81526004016105529190612c74565b600060208284031215611f1d57600080fd5b81356001600160e01b03198116811461071657600080fd5b6001600160a01b038116811461137357600080fd5b8035611f5581611f35565b919050565b600060208284031215611f6c57600080fd5b813561071681611f35565b634e487b7160e01b600052604160045260246000fd5b60405161018081016001600160401b0381118282101715611fb057611fb0611f77565b60405290565b6040516101e081016001600160401b0381118282101715611fb057611fb0611f77565b6040516101a081016001600160401b0381118282101715611fb057611fb0611f77565b60405160e081016001600160401b0381118282101715611fb057611fb0611f77565b60405160a081016001600160401b0381118282101715611fb057611fb0611f77565b604051601f8201601f191681016001600160401b038111828210171561206857612068611f77565b604052919050565b60006001600160401b0382111561208957612089611f77565b5060051b60200190565b600082601f8301126120a457600080fd5b813560206120b96120b483612070565b612040565b82815260059290921b840181019181810190868411156120d857600080fd5b8286015b848110156120f357803583529183019183016120dc565b509695505050505050565b6000806000806080858703121561211457600080fd5b843561211f81611f35565b9350602085013561212f81611f35565b925060408501356001600160401b0381111561214a57600080fd5b61215687828801612093565b949793965093946060013593505050565b801515811461137357600080fd5b8035611f5581612167565b6000806040838503121561219357600080fd5b823561219e81611f35565b915060208301356121ae81612167565b809150509250929050565b6000602082840312156121cb57600080fd5b5035919050565b600080604083850312156121e557600080fd5b8235915060208301356121ae81611f35565b803560ff81168114611f5557600080fd5b80356001600160401b0381168114611f5557600080fd5b803563ffffffff81168114611f5557600080fd5b80356001600160d81b0381168114611f5557600080fd5b6000610180828403121561225d57600080fd5b612265611f8d565b905061227082611f4a565b815261227e60208301612175565b602082015261228f6040830161221f565b60408201526122a060608301612233565b60608201526080820135608082015260a082013560a082015260c082013560c082015260e082013560e082015261010080830135818301525061012080830135818301525061014080830135818301525061016080830135818301525092915050565b6000806101a080848603121561231857600080fd5b83356001600160401b038082111561232f57600080fd5b908501906101e0828803121561234457600080fd5b61234c611fb6565b61235583611f4a565b815261236360208401612175565b60208201526040830135604082015261237e60608401612175565b606082015261238f60808401611f4a565b608082015260a083013560a082015260c083013560c082015260e083013560e08201526101006123c0818501612175565b908201526101206123d28482016121f7565b908201526101406123e4848201612208565b90820152610160838101359082015261018080840135908201526124098484016121f7565b848201526101c09350838301358281111561242357600080fd5b61242f89828601612093565b858301525080955050505050612448846020850161224a565b90509250929050565b600081518084526020808501945080840160005b8381101561248157815187529582019590820190600101612465565b509495945050505050565b6020815260006107166020830184612451565b600080604083850312156124b257600080fd5b82356124bd81611f35565b9150612448602084016121f7565b600080604083850312156124de57600080fd5b82356124e981611f35565b915060208301356001600160401b0381111561250457600080fd5b61251085828601612093565b9150509250929050565b60008060006060848603121561252f57600080fd5b833561253a81611f35565b9250602084013561254a81611f35565b9150604084013561255a81611f35565b809150509250925092565b60008060006060848603121561257a57600080fd5b833561258581611f35565b95602085013595506040909401359392505050565b803565ffffffffffff81168114611f5557600080fd5b80356001600160801b0381168114611f5557600080fd5b60006101a082840312156125da57600080fd5b6125e2611fd9565b90506125ed826121f7565b81526125fb6020830161221f565b602082015261260c604083016121f7565b604082015261261d60608301611f4a565b606082015261262e6080830161259a565b608082015261263f60a083016125b0565b60a082015261265060c083016125b0565b60c082015261266160e083016125b0565b60e08201526101006126748184016125b0565b90820152610120612686838201612208565b90820152610140612698838201612208565b908201526101606126aa8382016125b0565b818301525061018080830135818301525092915050565b6000602082840312156126d357600080fd5b81356001600160401b03808211156126ea57600080fd5b9083019061026082860312156126ff57600080fd5b612707611ffc565b61271083611f4a565b815261271e60208401612175565b60208201526040830135604082015261273960608401612175565b606082015261274a60808401612175565b608082015261275c8660a085016125c7565b60a08201526102408301358281111561277457600080fd5b61278087828601612093565b60c08301525095945050505050565b6000806000606084860312156127a457600080fd5b83356127af81611f35565b925060208401356127bf81611f35565b929592945050506040919091013590565b6000806000606084860312156127e557600080fd5b83356127f081611f35565b9250602084013561280081611f35565b915060408401356001600160401b0381111561281b57600080fd5b61282786828701612093565b9150509250925092565b60208082526018908201527f666565526f757465723a206163636573732064656e6965640000000000000000604082015260600190565b60006020828403121561287a57600080fd5b5051919050565b6040815260006128946040830185612451565b90508260208301529392505050565b634e487b7160e01b600052601160045260246000fd5b818103818111156104f7576104f76128a3565b6000602082840312156128de57600080fd5b815161071681611f35565b600060ff821660ff81036128ff576128ff6128a3565b60010192915050565b634e487b7160e01b600052603260045260246000fd5b808201808211156104f7576104f76128a3565b600181815b8085111561296c578160001904821115612952576129526128a3565b8085161561295f57918102915b93841c9390800290612936565b509250929050565b600082612983575060016104f7565b81612990575060006104f7565b81600181146129a657600281146129b0576129cc565b60019150506104f7565b60ff8411156129c1576129c16128a3565b50506001821b6104f7565b5060208310610133831016604e8410600b84101617156129ef575081810a6104f7565b6129f98383612931565b8060001904821115612a0d57612a0d6128a3565b029392505050565b60006107168383612974565b60005b83811015612a3c578181015183820152602001612a24565b50506000910152565b8051611f5581611f35565b8051611f5581612167565b60006020808385031215612a6e57600080fd5b82516001600160401b0380821115612a8557600080fd5b818501915085601f830112612a9957600080fd5b8151612aa76120b482612070565b81815260059190911b83018401908481019088831115612ac657600080fd5b8585015b83811015612bc257805185811115612ae157600080fd5b8601601f1960a0828d0382011215612af95760008081fd5b612b0161201e565b8983015188811115612b135760008081fd5b8301603f81018e13612b255760008081fd5b8a81015160408a821115612b3b57612b3b611f77565b612b4b8d86601f85011601612040565b94508185528f81838501011115612b625760008081fd5b612b71828e8701838601612a21565b848452612b7f818701612a45565b8d8501526060945084860151818501525050506080612b9f818501612a50565b83830152612baf60a08501612a50565b9082015285525050918601918601612aca565b5098975050505050505050565b600060018201612be157612be16128a3565b5060010190565b80820281158282048414176104f7576104f76128a3565b7f416363657373436f6e74726f6c3a206163636f756e7420000000000000000000815260008351612c37816017850160208801612a21565b7001034b99036b4b9b9b4b733903937b6329607d1b6017918401918201528351612c68816028840160208801612a21565b01602801949350505050565b6020815260008251806020840152612c93816040850160208701612a21565b601f01601f19169190910160400192915050565b600082612cc457634e487b7160e01b600052601260045260246000fd5b500490565b600081612cd857612cd86128a3565b506000190190565b600060208284031215612cf257600080fd5b815161071681612167565b60008251612d0f818460208701612a21565b919091019291505056fea2646970667358221220155bd8bea160d7968010743d2e990d8db14e82fc151803ab80e16e68b9926fd464736f6c63430008110033",
  "linkReferences": {},
  "deployedLinkReferences": {}
}