{
  "_format": "hh-sol-artifact-1",
  "contractName": "FeeRouter",
  "sourceName": "contracts/fee/FeeRouter.sol",
  "abi": [
    {
      "inputs": [
        {
          "internalType": "address",
          "name": "_factory",
          "type": "address"
        }
      ],
      "stateMutability": "nonpayable",
      "type": "constructor"
    },
    {
      "anonymous": false,
      "inputs": [
        {
          "indexed": false,
          "internalType": "uint8",
          "name": "version",
          "type": "uint8"
        }
      ],
      "name": "Initialized",
      "type": "event"
    },
    {
      "anonymous": false,
      "inputs": [
        {
          "indexed": true,
          "internalType": "address",
          "name": "previousOwner",
          "type": "address"
        },
        {
          "indexed": true,
          "internalType": "address",
          "name": "newOwner",
          "type": "address"
        }
      ],
      "name": "OwnershipTransferred",
      "type": "event"
    },
    {
      "anonymous": false,
      "inputs": [
        {
          "indexed": true,
          "internalType": "bytes32",
          "name": "role",
          "type": "bytes32"
        },
        {
          "indexed": true,
          "internalType": "bytes32",
          "name": "previousAdminRole",
          "type": "bytes32"
        },
        {
          "indexed": true,
          "internalType": "bytes32",
          "name": "newAdminRole",
          "type": "bytes32"
        }
      ],
      "name": "RoleAdminChanged",
      "type": "event"
    },
    {
      "anonymous": false,
      "inputs": [
        {
          "indexed": true,
          "internalType": "bytes32",
          "name": "role",
          "type": "bytes32"
        },
        {
          "indexed": true,
          "internalType": "address",
          "name": "account",
          "type": "address"
        },
        {
          "indexed": true,
          "internalType": "address",
          "name": "sender",
          "type": "address"
        }
      ],
      "name": "RoleGranted",
      "type": "event"
    },
    {
      "anonymous": false,
      "inputs": [
        {
          "indexed": true,
          "internalType": "bytes32",
          "name": "role",
          "type": "bytes32"
        },
        {
          "indexed": true,
          "internalType": "address",
          "name": "account",
          "type": "address"
        },
        {
          "indexed": true,
          "internalType": "address",
          "name": "sender",
          "type": "address"
        }
      ],
      "name": "RoleRevoked",
      "type": "event"
    },
    {
      "anonymous": false,
      "inputs": [
        {
          "indexed": true,
          "internalType": "address",
          "name": "account",
          "type": "address"
        },
        {
          "indexed": true,
          "internalType": "address",
          "name": "market",
          "type": "address"
        },
        {
          "indexed": false,
          "internalType": "int256[]",
          "name": "fees",
          "type": "int256[]"
        },
        {
          "indexed": false,
          "internalType": "uint256",
          "name": "amount",
          "type": "uint256"
        }
      ],
      "name": "UpdateFee",
      "type": "event"
    },
    {
      "anonymous": false,
      "inputs": [
        {
          "indexed": true,
          "internalType": "address",
          "name": "market",
          "type": "address"
        },
        {
          "indexed": false,
          "internalType": "uint8",
          "name": "kind",
          "type": "uint8"
        },
        {
          "indexed": false,
          "internalType": "uint256",
          "name": "oldFeeOrRate",
          "type": "uint256"
        },
        {
          "indexed": false,
          "internalType": "uint256",
          "name": "feeOrRate",
          "type": "uint256"
        }
      ],
      "name": "UpdateFeeAndRates",
      "type": "event"
    },
    {
      "inputs": [],
      "name": "DEFAULT_ADMIN_ROLE",
      "outputs": [
        {
          "internalType": "bytes32",
          "name": "",
          "type": "bytes32"
        }
      ],
      "stateMutability": "view",
      "type": "function"
    },
    {
      "inputs": [],
      "name": "FEE_RATE_PRECISION",
      "outputs": [
        {
          "internalType": "uint256",
          "name": "",
          "type": "uint256"
        }
      ],
      "stateMutability": "view",
      "type": "function"
    },
    {
      "inputs": [
        {
          "internalType": "address",
          "name": "account",
          "type": "address"
        },
        {
          "internalType": "address",
          "name": "token",
          "type": "address"
        },
        {
          "internalType": "int256[]",
          "name": "fees",
          "type": "int256[]"
        }
      ],
      "name": "collectFees",
      "outputs": [],
      "stateMutability": "nonpayable",
      "type": "function"
    },
    {
      "inputs": [
        {
          "internalType": "address",
          "name": "market",
          "type": "address"
        },
        {
          "internalType": "bool",
          "name": "isLong",
          "type": "bool"
        }
      ],
      "name": "cumulativeFundingRates",
      "outputs": [
        {
          "internalType": "int256",
          "name": "",
          "type": "int256"
        }
      ],
      "stateMutability": "view",
      "type": "function"
    },
    {
      "inputs": [],
      "name": "factory",
      "outputs": [
        {
          "internalType": "address",
          "name": "",
          "type": "address"
        }
      ],
      "stateMutability": "view",
      "type": "function"
    },
    {
      "inputs": [
        {
          "internalType": "address",
          "name": "",
          "type": "address"
        },
        {
          "internalType": "uint8",
          "name": "",
          "type": "uint8"
        }
      ],
      "name": "feeAndRates",
      "outputs": [
        {
          "internalType": "uint256",
          "name": "",
          "type": "uint256"
        }
      ],
      "stateMutability": "view",
      "type": "function"
    },
    {
      "inputs": [],
      "name": "feeVault",
      "outputs": [
        {
          "internalType": "address",
          "name": "",
          "type": "address"
        }
      ],
      "stateMutability": "view",
      "type": "function"
    },
    {
      "inputs": [],
      "name": "fundFee",
      "outputs": [
        {
          "internalType": "address",
          "name": "",
          "type": "address"
        }
      ],
      "stateMutability": "view",
      "type": "function"
    },
    {
      "inputs": [
        {
          "internalType": "address",
          "name": "market",
          "type": "address"
        }
      ],
      "name": "getExecFee",
      "outputs": [
        {
          "internalType": "uint256",
          "name": "",
          "type": "uint256"
        }
      ],
      "stateMutability": "view",
      "type": "function"
    },
    {
      "inputs": [
        {
          "components": [
            {
              "internalType": "address",
              "name": "_market",
              "type": "address"
            },
            {
              "internalType": "bool",
              "name": "_isLong",
              "type": "bool"
            },
            {
              "internalType": "uint256",
              "name": "_oraclePrice",
              "type": "uint256"
            },
            {
              "internalType": "bool",
              "name": "isOpen",
              "type": "bool"
            },
            {
              "internalType": "address",
              "name": "_account",
              "type": "address"
            },
            {
              "internalType": "uint256",
              "name": "_sizeDelta",
              "type": "uint256"
            },
            {
              "internalType": "uint256",
              "name": "_price",
              "type": "uint256"
            },
            {
              "internalType": "uint256",
              "name": "_slippage",
              "type": "uint256"
            },
            {
              "internalType": "bool",
              "name": "_isExec",
              "type": "bool"
            },
            {
              "internalType": "uint8",
              "name": "liqState",
              "type": "uint8"
            },
            {
              "internalType": "uint64",
              "name": "_fromOrder",
              "type": "uint64"
            },
            {
              "internalType": "bytes32",
              "name": "_refCode",
              "type": "bytes32"
            },
            {
              "internalType": "uint256",
              "name": "collateralDelta",
              "type": "uint256"
            },
            {
              "internalType": "uint8",
              "name": "execNum",
              "type": "uint8"
            },
            {
              "internalType": "uint256[]",
              "name": "inputs",
              "type": "uint256[]"
            }
          ],
          "internalType": "struct MarketDataTypes.UpdatePositionInputs",
          "name": "params",
          "type": "tuple"
        },
        {
          "components": [
            {
              "internalType": "address",
              "name": "market",
              "type": "address"
            },
            {
              "internalType": "bool",
              "name": "isLong",
              "type": "bool"
            },
            {
              "internalType": "uint32",
              "name": "lastTime",
              "type": "uint32"
            },
            {
              "internalType": "uint216",
              "name": "extra3",
              "type": "uint216"
            },
            {
              "internalType": "uint256",
              "name": "size",
              "type": "uint256"
            },
            {
              "internalType": "uint256",
              "name": "collateral",
              "type": "uint256"
            },
            {
              "internalType": "uint256",
              "name": "averagePrice",
              "type": "uint256"
            },
            {
              "internalType": "int256",
              "name": "entryFundingRate",
              "type": "int256"
            },
            {
              "internalType": "int256",
              "name": "realisedPnl",
              "type": "int256"
            },
            {
              "internalType": "uint256",
              "name": "extra0",
              "type": "uint256"
            },
            {
              "internalType": "uint256",
              "name": "extra1",
              "type": "uint256"
            },
            {
              "internalType": "uint256",
              "name": "extra2",
              "type": "uint256"
            }
          ],
          "internalType": "struct Position.Props",
          "name": "position",
          "type": "tuple"
        }
      ],
      "name": "getFees",
      "outputs": [
        {
          "internalType": "int256[]",
          "name": "fees",
          "type": "int256[]"
        }
      ],
      "stateMutability": "view",
      "type": "function"
    },
    {
      "inputs": [
        {
          "internalType": "address",
          "name": "market",
          "type": "address"
        },
        {
          "internalType": "bool",
          "name": "isLong",
          "type": "bool"
        }
      ],
      "name": "getFundingRate",
      "outputs": [
        {
          "internalType": "int256",
          "name": "",
          "type": "int256"
        }
      ],
      "stateMutability": "view",
      "type": "function"
    },
    {
      "inputs": [
        {
          "components": [
            {
              "internalType": "address",
              "name": "_market",
              "type": "address"
            },
            {
              "internalType": "bool",
              "name": "_isLong",
              "type": "bool"
            },
            {
              "internalType": "uint256",
              "name": "_oraclePrice",
              "type": "uint256"
            },
            {
              "internalType": "bool",
              "name": "isOpen",
              "type": "bool"
            },
            {
              "internalType": "bool",
              "name": "isCreate",
              "type": "bool"
            },
            {
              "components": [
                {
                  "internalType": "uint8",
                  "name": "version",
                  "type": "uint8"
                },
                {
                  "internalType": "uint32",
                  "name": "updatedAtBlock",
                  "type": "uint32"
                },
                {
                  "internalType": "uint8",
                  "name": "triggerAbove",
                  "type": "uint8"
                },
                {
                  "internalType": "address",
                  "name": "account",
                  "type": "address"
                },
                {
                  "internalType": "uint48",
                  "name": "extra3",
                  "type": "uint48"
                },
                {
                  "internalType": "uint128",
                  "name": "collateral",
                  "type": "uint128"
                },
                {
                  "internalType": "uint128",
                  "name": "size",
                  "type": "uint128"
                },
                {
                  "internalType": "uint128",
                  "name": "price",
                  "type": "uint128"
                },
                {
                  "internalType": "uint128",
                  "name": "extra1",
                  "type": "uint128"
                },
                {
                  "internalType": "uint64",
                  "name": "orderID",
                  "type": "uint64"
                },
                {
                  "internalType": "uint64",
                  "name": "extra2",
                  "type": "uint64"
                },
                {
                  "internalType": "uint128",
                  "name": "extra0",
                  "type": "uint128"
                },
                {
                  "internalType": "bytes32",
                  "name": "refCode",
                  "type": "bytes32"
                }
              ],
              "internalType": "struct Order.Props",
              "name": "_order",
              "type": "tuple"
            },
            {
              "internalType": "uint256[]",
              "name": "inputs",
              "type": "uint256[]"
            }
          ],
          "internalType": "struct MarketDataTypes.UpdateOrderInputs",
          "name": "params",
          "type": "tuple"
        }
      ],
      "name": "getOrderFees",
      "outputs": [
        {
          "internalType": "int256",
          "name": "fees",
          "type": "int256"
        }
      ],
      "stateMutability": "view",
      "type": "function"
    },
    {
      "inputs": [
        {
          "internalType": "bytes32",
          "name": "role",
          "type": "bytes32"
        }
      ],
      "name": "getRoleAdmin",
      "outputs": [
        {
          "internalType": "bytes32",
          "name": "",
          "type": "bytes32"
        }
      ],
      "stateMutability": "view",
      "type": "function"
    },
    {
      "inputs": [
        {
          "internalType": "bytes32",
          "name": "role",
          "type": "bytes32"
        },
        {
          "internalType": "address",
          "name": "account",
          "type": "address"
        }
      ],
      "name": "grantAndRevoke",
      "outputs": [],
      "stateMutability": "nonpayable",
      "type": "function"
    },
    {
      "inputs": [
        {
          "internalType": "address",
          "name": "_account",
          "type": "address"
        }
      ],
      "name": "grantControllerRoleByMarketManager",
      "outputs": [],
      "stateMutability": "nonpayable",
      "type": "function"
    },
    {
      "inputs": [
        {
          "internalType": "bytes32",
          "name": "role",
          "type": "bytes32"
        },
        {
          "internalType": "address",
          "name": "account",
          "type": "address"
        }
      ],
      "name": "grantRole",
      "outputs": [],
      "stateMutability": "nonpayable",
      "type": "function"
    },
    {
      "inputs": [
        {
          "internalType": "bytes32",
          "name": "role",
          "type": "bytes32"
        },
        {
          "internalType": "address",
          "name": "account",
          "type": "address"
        }
      ],
      "name": "hasRole",
      "outputs": [
        {
          "internalType": "bool",
          "name": "",
          "type": "bool"
        }
      ],
      "stateMutability": "view",
      "type": "function"
    },
    {
      "inputs": [
        {
          "internalType": "address",
          "name": "vault",
          "type": "address"
        },
        {
          "internalType": "address",
          "name": "fundingFee",
          "type": "address"
        }
      ],
      "name": "initialize",
      "outputs": [],
      "stateMutability": "nonpayable",
      "type": "function"
    },
    {
      "inputs": [],
      "name": "owner",
      "outputs": [
        {
          "internalType": "address",
          "name": "",
          "type": "address"
        }
      ],
      "stateMutability": "view",
      "type": "function"
    },
    {
      "inputs": [],
      "name": "renounceOwnership",
      "outputs": [],
      "stateMutability": "nonpayable",
      "type": "function"
    },
    {
      "inputs": [
        {
          "internalType": "bytes32",
          "name": "role",
          "type": "bytes32"
        },
        {
          "internalType": "address",
          "name": "account",
          "type": "address"
        }
      ],
      "name": "renounceRole",
      "outputs": [],
      "stateMutability": "nonpayable",
      "type": "function"
    },
    {
      "inputs": [
        {
          "internalType": "bytes32",
          "name": "role",
          "type": "bytes32"
        },
        {
          "internalType": "address",
          "name": "account",
          "type": "address"
        }
      ],
      "name": "revokeRole",
      "outputs": [],
      "stateMutability": "nonpayable",
      "type": "function"
    },
    {
      "inputs": [
        {
          "internalType": "address",
          "name": "market",
          "type": "address"
        },
        {
          "internalType": "uint256[]",
          "name": "rates",
          "type": "uint256[]"
        }
      ],
      "name": "setFeeAndRates",
      "outputs": [],
      "stateMutability": "nonpayable",
      "type": "function"
    },
    {
      "inputs": [
        {
          "internalType": "address",
          "name": "vault",
          "type": "address"
        }
      ],
      "name": "setFeeVault",
      "outputs": [],
      "stateMutability": "nonpayable",
      "type": "function"
    },
    {
      "inputs": [
        {
          "internalType": "address",
          "name": "fundingFee",
          "type": "address"
        }
      ],
      "name": "setFundFee",
      "outputs": [],
      "stateMutability": "nonpayable",
      "type": "function"
    },
    {
      "inputs": [
        {
          "internalType": "bytes4",
          "name": "interfaceId",
          "type": "bytes4"
        }
      ],
      "name": "supportsInterface",
      "outputs": [
        {
          "internalType": "bool",
          "name": "",
          "type": "bool"
        }
      ],
      "stateMutability": "view",
      "type": "function"
    },
    {
      "inputs": [
        {
          "internalType": "address",
          "name": "to",
          "type": "address"
        }
      ],
      "name": "transferAdmin",
      "outputs": [],
      "stateMutability": "nonpayable",
      "type": "function"
    },
    {
      "inputs": [
        {
          "internalType": "address",
          "name": "newOwner",
          "type": "address"
        }
      ],
      "name": "transferOwnership",
      "outputs": [],
      "stateMutability": "nonpayable",
      "type": "function"
    },
    {
      "inputs": [
        {
          "internalType": "address",
          "name": "market",
          "type": "address"
        },
        {
          "internalType": "uint256",
          "name": "longSize",
          "type": "uint256"
        },
        {
          "internalType": "uint256",
          "name": "shortSize",
          "type": "uint256"
        }
      ],
      "name": "updateCumulativeFundingRate",
      "outputs": [],
      "stateMutability": "nonpayable",
      "type": "function"
    },
    {
      "inputs": [
        {
          "internalType": "address",
          "name": "token",
          "type": "address"
        },
        {
          "internalType": "address",
          "name": "to",
          "type": "address"
        },
        {
          "internalType": "uint256",
          "name": "amount",
          "type": "uint256"
        }
      ],
      "name": "withdraw",
      "outputs": [],
      "stateMutability": "nonpayable",
      "type": "function"
    }
  ],
  "bytecode": "0x60806040523480156200001157600080fd5b5060405162002ae038038062002ae083398101604081905262000034916200021d565b806200004033620000f2565b62000056816200014460201b620011cd1760201c565b506001600160a01b038116620000a45760405162461bcd60e51b815260206004820152600f60248201526e696e76616c6964206164647265737360881b604482015260640160405180910390fd5b600580546001600160a01b0319166001600160a01b038316179055620000eb7f241ecf16d79d0f8dbfb92cbc07fe17840425976cf0667f022fe9877caa831b083362000170565b506200024f565b600180546001600160a01b038381166001600160a01b0319831681179093556040519116919082907f8be0079c531659141344cd1fd0a4f28419497f9722a3daafe3b4186f6b6457e090600090a35050565b426002556200015333620000f2565b6200016060003362000211565b6200016d60008262000211565b50565b6000828152602081815260408083206001600160a01b038516845290915290205460ff166200020d576000828152602081815260408083206001600160a01b03851684529091529020805460ff19166001179055620001cc3390565b6001600160a01b0316816001600160a01b0316837f2f8788117e7eff1d82e926ec794901d17c78024a50270940304540a733656f0d60405160405180910390a45b5050565b6200020d828262000170565b6000602082840312156200023057600080fd5b81516001600160a01b03811681146200024857600080fd5b9392505050565b612881806200025f6000396000f3fe608060405234801561001057600080fd5b50600436106101da5760003560e01c80638da5cb5b11610104578063c8830bf5116100a2578063d9caed1211610071578063d9caed1214610449578063e50f19ef1461045c578063f2fde38b1461046f578063f4ca4d1d1461048257600080fd5b8063c8830bf5146103e5578063c9cf9f3a146103f8578063d547741f1461040b578063d87780681461041e57600080fd5b8063a217fddf116100de578063a217fddf146103a4578063a591f97f146103ac578063c45a0155146103bf578063c6f83ad1146103d257600080fd5b80638da5cb5b1461036d57806391d148541461037e57806399d5c1ec1461039157600080fd5b806336568abe1161017c578063715018a61161014b578063715018a61461032c57806375829def146103345780637dd49023146103475780637fe4a6981461035a57600080fd5b806336568abe146102d357806341510263146102e6578063478222c214610306578063485cc9551461031957600080fd5b8063248a9ca3116101b8578063248a9ca31461025d5780632f2ff15d1461028057806333abd0281461029557806334f32e25146102c057600080fd5b806301ffc9a7146101df57806309d398971461020757806320981df41461024a575b600080fd5b6101f26101ed366004611ac1565b61048a565b60405190151581526020015b60405180910390f35b61023c610215366004611b10565b6001600160a01b031660009081526006602090815260408083206003845290915290205490565b6040519081526020016101fe565b61023c610258366004611b46565b6104c1565b61023c61026b366004611b7f565b60009081526020819052604090206001015490565b61029361028e366004611b98565b610545565b005b6004546102a8906001600160a01b031681565b6040516001600160a01b0390911681526020016101fe565b61023c6102ce366004611b46565b61056f565b6102936102e1366004611b98565b6105aa565b6102f96102f4366004611e50565b61062d565b6040516101fe9190611fd9565b6003546102a8906001600160a01b031681565b610293610327366004611fec565b610802565b6102936109e5565b610293610342366004611b10565b6109f9565b61029361035536600461201a565b610a23565b610293610368366004611b10565b610bf2565b6001546001600160a01b03166102a8565b6101f261038c366004611b98565b610c1c565b61029361039f366004611b98565b610c45565b61023c600081565b6102936103ba366004611b10565b610ce9565b6005546102a8906001600160a01b031681565b6102936103e0366004612069565b610d7e565b61023c6103f33660046121c5565b610e38565b610293610406366004611b10565b610eb7565b610293610419366004611b98565b610f4c565b61023c61042c366004612293565b600660209081526000928352604080842090915290825290205481565b6102936104573660046122bf565b610f71565b61029361046a366004612300565b61100f565b61029361047d366004611b10565b611145565b61023c6111be565b60006001600160e01b03198216637965db0b60e01b14806104bb57506301ffc9a760e01b6001600160e01b03198316145b92915050565b60048054604051630826077d60e21b81526001600160a01b03858116938201939093528315156024820152600092909116906320981df4906044015b602060405180830381865afa15801561051a573d6000803e3d6000fd5b505050506040513d601f19601f8201168201806040525081019061053e91906123b7565b9392505050565b600082815260208190526040902060010154610560816111f0565b61056a83836111fa565b505050565b6003546040516334f32e2560e01b81526001600160a01b038481166004830152831515602483015260009216906334f32e25906044016104fd565b6001600160a01b038116331461061f5760405162461bcd60e51b815260206004820152602f60248201527f416363657373436f6e74726f6c3a2063616e206f6e6c792072656e6f756e636560448201526e103937b632b9903337b91039b2b63360891b60648201526084015b60405180910390fd5b610629828261127e565b5050565b60408051600c8082526101a082019092526060916020820161018080368337019050509050600083600001519050600061067582866020015186608001518760e001516112e3565b90508083600260ff168151811061068e5761068e6123d0565b602090810291909101015260a08501511580156106af575061018085015115155b156106bb5750506104bb565b8460600151156106fe5760a08501516106d79083906000611386565b83600060ff16815181106106ed576106ed6123d0565b60200260200101818152505061078d565b60a08501516107109083906001611386565b83600160ff1681518110610726576107266123d0565b60200260200101818152505084610120015160ff1660010361078d576001600160a01b03821660009081526006602090815260408083206004808552925290912054845190918291869190811061077f5761077f6123d0565b602002602001018181525050505b6101a085015160ff16156107fa576001600160a01b0382166000908152600660209081526040808320600384529091529020546101a08601516107d39060ff16826123fc565b90508084600360ff16815181106107ec576107ec6123d0565b602002602001018181525050505b505092915050565b600154600160a81b900460ff1615808015610828575060018054600160a01b900460ff16105b806108485750303b158015610848575060018054600160a01b900460ff16145b6108ab5760405162461bcd60e51b815260206004820152602e60248201527f496e697469616c697a61626c653a20636f6e747261637420697320616c72656160448201526d191e481a5b9a5d1a585b1a5e995960921b6064820152608401610616565b6001805460ff60a01b1916600160a01b17905580156108d8576001805460ff60a81b1916600160a81b1790555b6001600160a01b0383166109225760405162461bcd60e51b81526020600482015260116024820152701a5b9d985b1a5908199959481d985d5b1d607a1b6044820152606401610616565b6001600160a01b03821661096a5760405162461bcd60e51b815260206004820152600f60248201526e696e76616c69642066756e6446656560881b6044820152606401610616565b600380546001600160a01b038086166001600160a01b0319928316179092556004805492851692909116919091179055801561056a576001805460ff60a81b191681556040519081527f7f26b83ff96e1f2b6a682f133852f6798a09c465da95921460cefb38474024989060200160405180910390a1505050565b6109ed61141c565b6109f76000611476565b565b6000610a04816111f0565b610a0f6000836114c8565b610a1882611476565b61062960003361127e565b7f8d1089725c0dc266707fa6207730fb801dcd03108bfed7a21099bd303651d2b76000610a508133610c1c565b90508015610aad576201518060025442610a6a9190612413565b10610aa85760405162461bcd60e51b815260206004820152600e60248201526d1858c81d1a5b59481c185cdcd95960921b6044820152606401610616565b610ab7565b610ab782336114d2565b6000835111610af95760405162461bcd60e51b815260206004820152600e60248201526d696e76616c696420706172616d7360901b6044820152606401610616565b60005b83518160ff161015610beb576000848260ff1681518110610b1f57610b1f6123d0565b60200260200101519050848260ff1681518110610b3e57610b3e6123d0565b6020908102919091018101516001600160a01b038816600081815260068452604080822060ff88168084529552902091909155865190917f8e26fb53d63c548677b068d08742bea435b6ecb7911ab3c5ad68fbccddeaf5fe91859185918a91908110610bac57610bac6123d0565b6020908102919091018101516040805160ff90951685529184019290925282015260600160405180910390a25080610be381612426565b915050610afc565b5050505050565b7f8d1089725c0dc266707fa6207730fb801dcd03108bfed7a21099bd303651d2b76101da816111f0565b6000918252602082815260408084206001600160a01b0393909316845291905290205460ff1690565b7f241ecf16d79d0f8dbfb92cbc07fe17840425976cf0667f022fe9877caa831b086000610c728133610c1c565b90508015610ccf576201518060025442610c8c9190612413565b10610cca5760405162461bcd60e51b815260206004820152600e60248201526d1858c81d1a5b59481c185cdcd95960921b6044820152606401610616565b610cd9565b610cd982336114d2565b610ce384846111fa565b50505050565b610d127f241ecf16d79d0f8dbfb92cbc07fe17840425976cf0667f022fe9877caa831b086111f0565b6001600160a01b038116610d5c5760405162461bcd60e51b81526020600482015260116024820152701a5b9d985b1a5908199959481d985d5b1d607a1b6044820152606401610616565b600380546001600160a01b0319166001600160a01b0392909216919091179055565b610d873361152b565b610dc45760405162461bcd60e51b815260206004820152600e60248201526d1a5b9d985b1a59081b585c9ad95d60921b6044820152606401610616565b6004805460405163c6f83ad160e01b81526001600160a01b0386811693820193909352602481018590526044810184905291169063c6f83ad190606401600060405180830381600087803b158015610e1b57600080fd5b505af1158015610e2f573d6000803e3d6000fd5b50505050505050565b600080826060015115610e4d57506000610e51565b5060015b6000610e7384600001518560a0015160c001516001600160801b031684611386565b84516001600160a01b0316600090815260066020908152604080832060038452909152902054909150610eae610ea98284612445565b611657565b95945050505050565b610ee07f241ecf16d79d0f8dbfb92cbc07fe17840425976cf0667f022fe9877caa831b086111f0565b6004546001600160a01b0316610f2a5760405162461bcd60e51b815260206004820152600f60248201526e696e76616c69642066756e6446656560881b6044820152606401610616565b600480546001600160a01b0319166001600160a01b0392909216919091179055565b600082815260208190526040902060010154610f67816111f0565b61056a838361127e565b7f5d8e12c39142ff96d79d04d15d1ba1269e4fe57bb9d26f43523628b34ba108ec610f9b816111f0565b600354604051636ce5768960e11b81526001600160a01b0386811660048301528581166024830152604482018590529091169063d9caed1290606401600060405180830381600087803b158015610ff157600080fd5b505af1158015611005573d6000803e3d6000fd5b5050505050505050565b6110183361152b565b6110555760405162461bcd60e51b815260206004820152600e60248201526d1a5b9d985b1a59081b585c9ad95d60921b6044820152606401610616565b604051636eb1769f60e11b81523360048201523060248201526000906001600160a01b0384169063dd62ed3e90604401602060405180830381865afa1580156110a2573d6000803e3d6000fd5b505050506040513d601f19601f820116820180604052508101906110c691906123b7565b9050806000036110d65750505050565b6003546110f2906001600160a01b0385811691339116846116c5565b336001600160a01b0316846001600160a01b03167f51b85031527a935663233d62a057687d039b9fbcd79c55e46a5b24510159336f8484604051611137929190612458565b60405180910390a350505050565b61114d61141c565b6001600160a01b0381166111b25760405162461bcd60e51b815260206004820152602660248201527f4f776e61626c653a206e6577206f776e657220697320746865207a65726f206160448201526564647265737360d01b6064820152608401610616565b6111bb81611476565b50565b6111ca6008600a61255e565b81565b426002556111da33611476565b6111e56000336114c8565b6111bb6000826114c8565b6111bb81336114d2565b6112048282610c1c565b610629576000828152602081815260408083206001600160a01b03851684529091529020805460ff1916600117905561123a3390565b6001600160a01b0316816001600160a01b0316837f2f8788117e7eff1d82e926ec794901d17c78024a50270940304540a733656f0d60405160405180910390a45050565b6112888282610c1c565b15610629576000828152602081815260408083206001600160a01b0385168085529252808320805460ff1916905551339285917ff6391f5c32d9c69d2a47ea670b442974b53935d1edc7fd64eb21e047a839171b9190a45050565b6000826000036112f55750600061137e565b6004805460405163478c57cd60e11b81526001600160a01b038881169382019390935260248101869052604481018590528615156064820152911690638f18af9a90608401602060405180830381865afa158015611357573d6000803e3d6000fd5b505050506040513d601f19601f8201168201806040525081019061137b91906123b7565b90505b949350505050565b6000826000036113985750600061053e565b6001600160a01b038416600090815260066020908152604080832060ff86168452909152812054908190036113cd5750620186a05b60006113db6008600a61255e565b826113e86008600a61255e565b6113f29190612413565b6113fc90876123fc565b611406919061256a565b90506114128186612413565b9695505050505050565b6001546001600160a01b031633146109f75760405162461bcd60e51b815260206004820181905260248201527f4f776e61626c653a2063616c6c6572206973206e6f7420746865206f776e65726044820152606401610616565b600180546001600160a01b038381166001600160a01b0319831681179093556040519116919082907f8be0079c531659141344cd1fd0a4f28419497f9722a3daafe3b4186f6b6457e090600090a35050565b61062982826111fa565b6114dc8282610c1c565b610629576114e98161171f565b6114f4836020611731565b6040516020016115059291906125b0565b60408051601f198184030181529082905262461bcd60e51b825261061691600401612625565b600080600560009054906101000a90046001600160a01b03166001600160a01b031663ec2c90166040518163ffffffff1660e01b8152600401600060405180830381865afa158015611581573d6000803e3d6000fd5b505050506040513d6000823e601f3d908101601f191682016040526115a9919081019061266e565b805190915060005b8181101561164c578281815181106115cb576115cb6123d0565b6020026020010151602001516001600160a01b0316856001600160a01b03160361163a57828181518110611601576116016123d0565b60200260200101516060015180610eae5750828181518110611625576116256123d0565b60200260200101516080015195945050505050565b80611644816127e2565b9150506115b1565b506000949350505050565b60006001600160ff1b038211156116c15760405162461bcd60e51b815260206004820152602860248201527f53616665436173743a2076616c756520646f65736e27742066697420696e2061604482015267371034b73a191a9b60c11b6064820152608401610616565b5090565b604080516001600160a01b0385811660248301528416604482015260648082018490528251808303909101815260849091019091526020810180516001600160e01b03166323b872dd60e01b179052610ce39085906118cc565b60606104bb6001600160a01b03831660145b606060006117408360026123fc565b61174b906002612445565b6001600160401b0381111561176257611762611bbd565b6040519080825280601f01601f19166020018201604052801561178c576020820181803683370190505b509050600360fc1b816000815181106117a7576117a76123d0565b60200101906001600160f81b031916908160001a905350600f60fb1b816001815181106117d6576117d66123d0565b60200101906001600160f81b031916908160001a90535060006117fa8460026123fc565b611805906001612445565b90505b600181111561187d576f181899199a1a9b1b9c1cb0b131b232b360811b85600f1660108110611839576118396123d0565b1a60f81b82828151811061184f5761184f6123d0565b60200101906001600160f81b031916908160001a90535060049490941c93611876816127fb565b9050611808565b50831561053e5760405162461bcd60e51b815260206004820181905260248201527f537472696e67733a20686578206c656e67746820696e73756666696369656e746044820152606401610616565b6000611921826040518060400160405280602081526020017f5361666545524332303a206c6f772d6c6576656c2063616c6c206661696c6564815250856001600160a01b031661199e9092919063ffffffff16565b80519091501561056a578080602001905181019061193f9190612812565b61056a5760405162461bcd60e51b815260206004820152602a60248201527f5361666545524332303a204552433230206f7065726174696f6e20646964206e6044820152691bdd081cdd58d8d9595960b21b6064820152608401610616565b606061137e848460008585600080866001600160a01b031685876040516119c5919061282f565b60006040518083038185875af1925050503d8060008114611a02576040519150601f19603f3d011682016040523d82523d6000602084013e611a07565b606091505b5091509150611a1887838387611a23565b979650505050505050565b60608315611a92578251600003611a8b576001600160a01b0385163b611a8b5760405162461bcd60e51b815260206004820152601d60248201527f416464726573733a2063616c6c20746f206e6f6e2d636f6e74726163740000006044820152606401610616565b508161137e565b61137e8383815115611aa75781518083602001fd5b8060405162461bcd60e51b81526004016106169190612625565b600060208284031215611ad357600080fd5b81356001600160e01b03198116811461053e57600080fd5b6001600160a01b03811681146111bb57600080fd5b8035611b0b81611aeb565b919050565b600060208284031215611b2257600080fd5b813561053e81611aeb565b80151581146111bb57600080fd5b8035611b0b81611b2d565b60008060408385031215611b5957600080fd5b8235611b6481611aeb565b91506020830135611b7481611b2d565b809150509250929050565b600060208284031215611b9157600080fd5b5035919050565b60008060408385031215611bab57600080fd5b823591506020830135611b7481611aeb565b634e487b7160e01b600052604160045260246000fd5b60405161018081016001600160401b0381118282101715611bf657611bf6611bbd565b60405290565b6040516101e081016001600160401b0381118282101715611bf657611bf6611bbd565b6040516101a081016001600160401b0381118282101715611bf657611bf6611bbd565b60405160e081016001600160401b0381118282101715611bf657611bf6611bbd565b60405160a081016001600160401b0381118282101715611bf657611bf6611bbd565b604051601f8201601f191681016001600160401b0381118282101715611cae57611cae611bbd565b604052919050565b803560ff81168114611b0b57600080fd5b80356001600160401b0381168114611b0b57600080fd5b60006001600160401b03821115611cf757611cf7611bbd565b5060051b60200190565b600082601f830112611d1257600080fd5b81356020611d27611d2283611cde565b611c86565b82815260059290921b84018101918181019086841115611d4657600080fd5b8286015b84811015611d615780358352918301918301611d4a565b509695505050505050565b803563ffffffff81168114611b0b57600080fd5b80356001600160d81b0381168114611b0b57600080fd5b60006101808284031215611daa57600080fd5b611db2611bd3565b9050611dbd82611b00565b8152611dcb60208301611b3b565b6020820152611ddc60408301611d6c565b6040820152611ded60608301611d80565b60608201526080820135608082015260a082013560a082015260c082013560c082015260e082013560e082015261010080830135818301525061012080830135818301525061014080830135818301525061016080830135818301525092915050565b6000806101a0808486031215611e6557600080fd5b83356001600160401b0380821115611e7c57600080fd5b908501906101e08288031215611e9157600080fd5b611e99611bfc565b611ea283611b00565b8152611eb060208401611b3b565b602082015260408301356040820152611ecb60608401611b3b565b6060820152611edc60808401611b00565b608082015260a083013560a082015260c083013560c082015260e083013560e0820152610100611f0d818501611b3b565b90820152610120611f1f848201611cb6565b90820152610140611f31848201611cc7565b9082015261016083810135908201526101808084013590820152611f56848401611cb6565b848201526101c093508383013582811115611f7057600080fd5b611f7c89828601611d01565b858301525080955050505050611f958460208501611d97565b90509250929050565b600081518084526020808501945080840160005b83811015611fce57815187529582019590820190600101611fb2565b509495945050505050565b60208152600061053e6020830184611f9e565b60008060408385031215611fff57600080fd5b823561200a81611aeb565b91506020830135611b7481611aeb565b6000806040838503121561202d57600080fd5b823561203881611aeb565b915060208301356001600160401b0381111561205357600080fd5b61205f85828601611d01565b9150509250929050565b60008060006060848603121561207e57600080fd5b833561208981611aeb565b95602085013595506040909401359392505050565b803565ffffffffffff81168114611b0b57600080fd5b80356001600160801b0381168114611b0b57600080fd5b60006101a082840312156120de57600080fd5b6120e6611c1f565b90506120f182611cb6565b81526120ff60208301611d6c565b602082015261211060408301611cb6565b604082015261212160608301611b00565b60608201526121326080830161209e565b608082015261214360a083016120b4565b60a082015261215460c083016120b4565b60c082015261216560e083016120b4565b60e08201526101006121788184016120b4565b9082015261012061218a838201611cc7565b9082015261014061219c838201611cc7565b908201526101606121ae8382016120b4565b818301525061018080830135818301525092915050565b6000602082840312156121d757600080fd5b81356001600160401b03808211156121ee57600080fd5b90830190610260828603121561220357600080fd5b61220b611c42565b61221483611b00565b815261222260208401611b3b565b60208201526040830135604082015261223d60608401611b3b565b606082015261224e60808401611b3b565b60808201526122608660a085016120cb565b60a08201526102408301358281111561227857600080fd5b61228487828601611d01565b60c08301525095945050505050565b600080604083850312156122a657600080fd5b82356122b181611aeb565b9150611f9560208401611cb6565b6000806000606084860312156122d457600080fd5b83356122df81611aeb565b925060208401356122ef81611aeb565b929592945050506040919091013590565b60008060006060848603121561231557600080fd5b833561232081611aeb565b925060208481013561233181611aeb565b925060408501356001600160401b0381111561234c57600080fd5b8501601f8101871361235d57600080fd5b803561236b611d2282611cde565b81815260059190911b8201830190838101908983111561238a57600080fd5b928401925b828410156123a85783358252928401929084019061238f565b80955050505050509250925092565b6000602082840312156123c957600080fd5b5051919050565b634e487b7160e01b600052603260045260246000fd5b634e487b7160e01b600052601160045260246000fd5b80820281158282048414176104bb576104bb6123e6565b818103818111156104bb576104bb6123e6565b600060ff821660ff810361243c5761243c6123e6565b60010192915050565b808201808211156104bb576104bb6123e6565b60408152600061246b6040830185611f9e565b90508260208301529392505050565b600181815b808511156124b557816000190482111561249b5761249b6123e6565b808516156124a857918102915b93841c939080029061247f565b509250929050565b6000826124cc575060016104bb565b816124d9575060006104bb565b81600181146124ef57600281146124f957612515565b60019150506104bb565b60ff84111561250a5761250a6123e6565b50506001821b6104bb565b5060208310610133831016604e8410600b8410161715612538575081810a6104bb565b612542838361247a565b8060001904821115612556576125566123e6565b029392505050565b600061053e83836124bd565b60008261258757634e487b7160e01b600052601260045260246000fd5b500490565b60005b838110156125a757818101518382015260200161258f565b50506000910152565b7f416363657373436f6e74726f6c3a206163636f756e74200000000000000000008152600083516125e881601785016020880161258c565b7001034b99036b4b9b9b4b733903937b6329607d1b601791840191820152835161261981602884016020880161258c565b01602801949350505050565b602081526000825180602084015261264481604085016020870161258c565b601f01601f19169190910160400192915050565b8051611b0b81611aeb565b8051611b0b81611b2d565b6000602080838503121561268157600080fd5b82516001600160401b038082111561269857600080fd5b818501915085601f8301126126ac57600080fd5b81516126ba611d2282611cde565b81815260059190911b830184019084810190888311156126d957600080fd5b8585015b838110156127d5578051858111156126f457600080fd5b8601601f1960a0828d038201121561270c5760008081fd5b612714611c64565b89830151888111156127265760008081fd5b8301603f81018e136127385760008081fd5b8a81015160408a82111561274e5761274e611bbd565b61275e8d86601f85011601611c86565b94508185528f818385010111156127755760008081fd5b612784828e870183860161258c565b848452612792818701612658565b8d85015260609450848601518185015250505060806127b2818501612663565b838301526127c260a08501612663565b90820152855250509186019186016126dd565b5098975050505050505050565b6000600182016127f4576127f46123e6565b5060010190565b60008161280a5761280a6123e6565b506000190190565b60006020828403121561282457600080fd5b815161053e81611b2d565b6000825161284181846020870161258c565b919091019291505056fea2646970667358221220d3bb166cf7980757294e63a2082f5446807436131a760015681c8648941dc40764736f6c63430008110033",
  "linkReferences": {},
  "deployedLinkReferences": {}
}