{
  "_format": "hh-sol-artifact-1",
  "contractName": "FundFee",
  "sourceName": "contracts/fee/FundFee.sol",
  "abi": [
    {
      "inputs": [
        {
          "internalType": "int256",
          "name": "lCFRate",
          "type": "int256"
        },
        {
          "internalType": "int256",
          "name": "sCFRate",
          "type": "int256"
        }
      ],
      "name": "NextFundFee",
      "type": "error"
    },
    {
      "anonymous": false,
      "inputs": [
        {
          "indexed": true,
          "internalType": "uint256",
          "name": "startTime",
          "type": "uint256"
        },
        {
          "indexed": true,
          "internalType": "uint256",
          "name": "endTime",
          "type": "uint256"
        }
      ],
      "name": "AddSkipTime",
      "type": "event"
    },
    {
      "anonymous": false,
      "inputs": [
        {
          "indexed": false,
          "internalType": "uint8",
          "name": "version",
          "type": "uint8"
        }
      ],
      "name": "Initialized",
      "type": "event"
    },
    {
      "anonymous": false,
      "inputs": [
        {
          "indexed": true,
          "internalType": "address",
          "name": "previousOwner",
          "type": "address"
        },
        {
          "indexed": true,
          "internalType": "address",
          "name": "newOwner",
          "type": "address"
        }
      ],
      "name": "OwnershipTransferred",
      "type": "event"
    },
    {
      "anonymous": false,
      "inputs": [
        {
          "indexed": true,
          "internalType": "bytes32",
          "name": "role",
          "type": "bytes32"
        },
        {
          "indexed": true,
          "internalType": "bytes32",
          "name": "previousAdminRole",
          "type": "bytes32"
        },
        {
          "indexed": true,
          "internalType": "bytes32",
          "name": "newAdminRole",
          "type": "bytes32"
        }
      ],
      "name": "RoleAdminChanged",
      "type": "event"
    },
    {
      "anonymous": false,
      "inputs": [
        {
          "indexed": true,
          "internalType": "bytes32",
          "name": "role",
          "type": "bytes32"
        },
        {
          "indexed": true,
          "internalType": "address",
          "name": "account",
          "type": "address"
        },
        {
          "indexed": true,
          "internalType": "address",
          "name": "sender",
          "type": "address"
        }
      ],
      "name": "RoleGranted",
      "type": "event"
    },
    {
      "anonymous": false,
      "inputs": [
        {
          "indexed": true,
          "internalType": "bytes32",
          "name": "role",
          "type": "bytes32"
        },
        {
          "indexed": true,
          "internalType": "address",
          "name": "account",
          "type": "address"
        },
        {
          "indexed": true,
          "internalType": "address",
          "name": "sender",
          "type": "address"
        }
      ],
      "name": "RoleRevoked",
      "type": "event"
    },
    {
      "anonymous": false,
      "inputs": [
        {
          "indexed": false,
          "internalType": "address",
          "name": "market",
          "type": "address"
        },
        {
          "indexed": false,
          "internalType": "uint256",
          "name": "updatedAt",
          "type": "uint256"
        }
      ],
      "name": "SetUpdateAt",
      "type": "event"
    },
    {
      "anonymous": false,
      "inputs": [
        {
          "indexed": true,
          "internalType": "address",
          "name": "market",
          "type": "address"
        },
        {
          "indexed": false,
          "internalType": "uint256",
          "name": "interval",
          "type": "uint256"
        }
      ],
      "name": "UpdateCalInterval",
      "type": "event"
    },
    {
      "anonymous": false,
      "inputs": [
        {
          "indexed": false,
          "internalType": "uint256",
          "name": "index",
          "type": "uint256"
        },
        {
          "indexed": false,
          "internalType": "uint256",
          "name": "oldFRate",
          "type": "uint256"
        },
        {
          "indexed": false,
          "internalType": "uint256",
          "name": "newFRate",
          "type": "uint256"
        }
      ],
      "name": "UpdateConfig",
      "type": "event"
    },
    {
      "anonymous": false,
      "inputs": [
        {
          "indexed": true,
          "internalType": "address",
          "name": "market",
          "type": "address"
        },
        {
          "indexed": false,
          "internalType": "uint256",
          "name": "interval",
          "type": "uint256"
        }
      ],
      "name": "UpdateFundInterval",
      "type": "event"
    },
    {
      "anonymous": false,
      "inputs": [
        {
          "indexed": true,
          "internalType": "address",
          "name": "market",
          "type": "address"
        },
        {
          "indexed": false,
          "internalType": "uint256",
          "name": "longRate",
          "type": "uint256"
        },
        {
          "indexed": false,
          "internalType": "uint256",
          "name": "shortRate",
          "type": "uint256"
        }
      ],
      "name": "UpdateLastCalRate",
      "type": "event"
    },
    {
      "inputs": [],
      "name": "DEFAULT_ADMIN_ROLE",
      "outputs": [
        {
          "internalType": "bytes32",
          "name": "",
          "type": "bytes32"
        }
      ],
      "stateMutability": "view",
      "type": "function"
    },
    {
      "inputs": [],
      "name": "FEERATEPRECISION",
      "outputs": [
        {
          "internalType": "uint256",
          "name": "",
          "type": "uint256"
        }
      ],
      "stateMutability": "view",
      "type": "function"
    },
    {
      "inputs": [
        {
          "internalType": "address",
          "name": "market",
          "type": "address"
        },
        {
          "internalType": "uint256",
          "name": "a",
          "type": "uint256"
        }
      ],
      "name": "addFeeLoss",
      "outputs": [],
      "stateMutability": "nonpayable",
      "type": "function"
    },
    {
      "inputs": [
        {
          "internalType": "uint256",
          "name": "start",
          "type": "uint256"
        },
        {
          "internalType": "uint256",
          "name": "end",
          "type": "uint256"
        }
      ],
      "name": "addSkipTime",
      "outputs": [],
      "stateMutability": "nonpayable",
      "type": "function"
    },
    {
      "inputs": [
        {
          "internalType": "address",
          "name": "",
          "type": "address"
        },
        {
          "internalType": "bool",
          "name": "",
          "type": "bool"
        }
      ],
      "name": "calFundingRates",
      "outputs": [
        {
          "internalType": "int256",
          "name": "",
          "type": "int256"
        }
      ],
      "stateMutability": "view",
      "type": "function"
    },
    {
      "inputs": [
        {
          "internalType": "address",
          "name": "",
          "type": "address"
        }
      ],
      "name": "calIntervals",
      "outputs": [
        {
          "internalType": "uint256",
          "name": "",
          "type": "uint256"
        }
      ],
      "stateMutability": "view",
      "type": "function"
    },
    {
      "inputs": [
        {
          "internalType": "uint256",
          "name": "",
          "type": "uint256"
        }
      ],
      "name": "configs",
      "outputs": [
        {
          "internalType": "uint256",
          "name": "",
          "type": "uint256"
        }
      ],
      "stateMutability": "view",
      "type": "function"
    },
    {
      "inputs": [],
      "name": "fRateFactor",
      "outputs": [
        {
          "internalType": "uint256",
          "name": "",
          "type": "uint256"
        }
      ],
      "stateMutability": "view",
      "type": "function"
    },
    {
      "inputs": [],
      "name": "feeVault",
      "outputs": [
        {
          "internalType": "address",
          "name": "",
          "type": "address"
        }
      ],
      "stateMutability": "view",
      "type": "function"
    },
    {
      "inputs": [
        {
          "internalType": "address",
          "name": "",
          "type": "address"
        }
      ],
      "name": "fundFeeLoss",
      "outputs": [
        {
          "internalType": "uint256",
          "name": "",
          "type": "uint256"
        }
      ],
      "stateMutability": "view",
      "type": "function"
    },
    {
      "inputs": [
        {
          "internalType": "address",
          "name": "market",
          "type": "address"
        }
      ],
      "name": "fundingFeeLoss",
      "outputs": [
        {
          "internalType": "uint256",
          "name": "",
          "type": "uint256"
        }
      ],
      "stateMutability": "view",
      "type": "function"
    },
    {
      "inputs": [],
      "name": "fundingFeeLossOffLimit",
      "outputs": [
        {
          "internalType": "uint256",
          "name": "",
          "type": "uint256"
        }
      ],
      "stateMutability": "view",
      "type": "function"
    },
    {
      "inputs": [
        {
          "internalType": "address",
          "name": "",
          "type": "address"
        }
      ],
      "name": "fundingIntervals",
      "outputs": [
        {
          "internalType": "uint256",
          "name": "",
          "type": "uint256"
        }
      ],
      "stateMutability": "view",
      "type": "function"
    },
    {
      "inputs": [
        {
          "internalType": "address",
          "name": "market",
          "type": "address"
        }
      ],
      "name": "getCalFundingRates",
      "outputs": [
        {
          "internalType": "int256",
          "name": "",
          "type": "int256"
        },
        {
          "internalType": "int256",
          "name": "",
          "type": "int256"
        }
      ],
      "stateMutability": "view",
      "type": "function"
    },
    {
      "inputs": [
        {
          "internalType": "address",
          "name": "market",
          "type": "address"
        },
        {
          "internalType": "uint256",
          "name": "size",
          "type": "uint256"
        },
        {
          "internalType": "int256",
          "name": "entryFundingRate",
          "type": "int256"
        },
        {
          "internalType": "bool",
          "name": "isLong",
          "type": "bool"
        }
      ],
      "name": "getFundingFee",
      "outputs": [
        {
          "internalType": "int256",
          "name": "",
          "type": "int256"
        }
      ],
      "stateMutability": "view",
      "type": "function"
    },
    {
      "inputs": [
        {
          "internalType": "address",
          "name": "market",
          "type": "address"
        },
        {
          "internalType": "bool",
          "name": "isLong",
          "type": "bool"
        }
      ],
      "name": "getFundingRate",
      "outputs": [
        {
          "internalType": "int256",
          "name": "",
          "type": "int256"
        }
      ],
      "stateMutability": "view",
      "type": "function"
    },
    {
      "inputs": [],
      "name": "getGlobalOpenInterest",
      "outputs": [
        {
          "internalType": "uint256",
          "name": "_globalSize",
          "type": "uint256"
        }
      ],
      "stateMutability": "view",
      "type": "function"
    },
    {
      "inputs": [
        {
          "internalType": "address",
          "name": "market",
          "type": "address"
        },
        {
          "internalType": "uint256",
          "name": "longSize",
          "type": "uint256"
        },
        {
          "internalType": "uint256",
          "name": "shortSize",
          "type": "uint256"
        }
      ],
      "name": "getNextFundingRate",
      "outputs": [],
      "stateMutability": "nonpayable",
      "type": "function"
    },
    {
      "inputs": [
        {
          "internalType": "bytes32",
          "name": "role",
          "type": "bytes32"
        }
      ],
      "name": "getRoleAdmin",
      "outputs": [
        {
          "internalType": "bytes32",
          "name": "",
          "type": "bytes32"
        }
      ],
      "stateMutability": "view",
      "type": "function"
    },
    {
      "inputs": [],
      "name": "getSkipTime",
      "outputs": [
        {
          "internalType": "uint256",
          "name": "totalSkip",
          "type": "uint256"
        }
      ],
      "stateMutability": "view",
      "type": "function"
    },
    {
      "inputs": [
        {
          "internalType": "address",
          "name": "_account",
          "type": "address"
        }
      ],
      "name": "grantControllerRoleByMarketManager",
      "outputs": [],
      "stateMutability": "nonpayable",
      "type": "function"
    },
    {
      "inputs": [
        {
          "internalType": "bytes32",
          "name": "role",
          "type": "bytes32"
        },
        {
          "internalType": "address",
          "name": "account",
          "type": "address"
        }
      ],
      "name": "grantRole",
      "outputs": [],
      "stateMutability": "nonpayable",
      "type": "function"
    },
    {
      "inputs": [
        {
          "internalType": "bytes32",
          "name": "role",
          "type": "bytes32"
        },
        {
          "internalType": "address",
          "name": "account",
          "type": "address"
        }
      ],
      "name": "hasRole",
      "outputs": [
        {
          "internalType": "bool",
          "name": "",
          "type": "bool"
        }
      ],
      "stateMutability": "view",
      "type": "function"
    },
    {
      "inputs": [
        {
          "internalType": "address",
          "name": "_feeVault",
          "type": "address"
        }
      ],
      "name": "initialize",
      "outputs": [],
      "stateMutability": "nonpayable",
      "type": "function"
    },
    {
      "inputs": [
        {
          "internalType": "address",
          "name": "",
          "type": "address"
        },
        {
          "internalType": "bool",
          "name": "",
          "type": "bool"
        }
      ],
      "name": "lastCalRate",
      "outputs": [
        {
          "internalType": "uint256",
          "name": "",
          "type": "uint256"
        }
      ],
      "stateMutability": "view",
      "type": "function"
    },
    {
      "inputs": [
        {
          "internalType": "address",
          "name": "",
          "type": "address"
        }
      ],
      "name": "lastCalTimes",
      "outputs": [
        {
          "internalType": "uint256",
          "name": "",
          "type": "uint256"
        }
      ],
      "stateMutability": "view",
      "type": "function"
    },
    {
      "inputs": [],
      "name": "marketReader",
      "outputs": [
        {
          "internalType": "address",
          "name": "",
          "type": "address"
        }
      ],
      "stateMutability": "view",
      "type": "function"
    },
    {
      "inputs": [],
      "name": "maxFRate",
      "outputs": [
        {
          "internalType": "uint256",
          "name": "",
          "type": "uint256"
        }
      ],
      "stateMutability": "view",
      "type": "function"
    },
    {
      "inputs": [],
      "name": "maxFRatePerDay",
      "outputs": [
        {
          "internalType": "uint256",
          "name": "",
          "type": "uint256"
        }
      ],
      "stateMutability": "view",
      "type": "function"
    },
    {
      "inputs": [],
      "name": "minCFRate",
      "outputs": [
        {
          "internalType": "uint256",
          "name": "",
          "type": "uint256"
        }
      ],
      "stateMutability": "view",
      "type": "function"
    },
    {
      "inputs": [],
      "name": "minFRate",
      "outputs": [
        {
          "internalType": "uint256",
          "name": "",
          "type": "uint256"
        }
      ],
      "stateMutability": "view",
      "type": "function"
    },
    {
      "inputs": [],
      "name": "minFundingInterval",
      "outputs": [
        {
          "internalType": "uint256",
          "name": "",
          "type": "uint256"
        }
      ],
      "stateMutability": "view",
      "type": "function"
    },
    {
      "inputs": [],
      "name": "minorityFRate",
      "outputs": [
        {
          "internalType": "uint256",
          "name": "",
          "type": "uint256"
        }
      ],
      "stateMutability": "view",
      "type": "function"
    },
    {
      "inputs": [
        {
          "internalType": "address",
          "name": "",
          "type": "address"
        },
        {
          "internalType": "bool",
          "name": "",
          "type": "bool"
        }
      ],
      "name": "nextFundingRate",
      "outputs": [
        {
          "internalType": "int256",
          "name": "",
          "type": "int256"
        }
      ],
      "stateMutability": "view",
      "type": "function"
    },
    {
      "inputs": [],
      "name": "owner",
      "outputs": [
        {
          "internalType": "address",
          "name": "",
          "type": "address"
        }
      ],
      "stateMutability": "view",
      "type": "function"
    },
    {
      "inputs": [],
      "name": "renounceOwnership",
      "outputs": [],
      "stateMutability": "nonpayable",
      "type": "function"
    },
    {
      "inputs": [
        {
          "internalType": "bytes32",
          "name": "role",
          "type": "bytes32"
        },
        {
          "internalType": "address",
          "name": "account",
          "type": "address"
        }
      ],
      "name": "renounceRole",
      "outputs": [],
      "stateMutability": "nonpayable",
      "type": "function"
    },
    {
      "inputs": [
        {
          "internalType": "bytes32",
          "name": "role",
          "type": "bytes32"
        },
        {
          "internalType": "address",
          "name": "account",
          "type": "address"
        }
      ],
      "name": "revokeRole",
      "outputs": [],
      "stateMutability": "nonpayable",
      "type": "function"
    },
    {
      "inputs": [
        {
          "internalType": "address[]",
          "name": "markets",
          "type": "address[]"
        },
        {
          "internalType": "uint256[]",
          "name": "intervals",
          "type": "uint256[]"
        }
      ],
      "name": "setCalInterval",
      "outputs": [],
      "stateMutability": "nonpayable",
      "type": "function"
    },
    {
      "inputs": [
        {
          "internalType": "uint256",
          "name": "_idx",
          "type": "uint256"
        },
        {
          "internalType": "uint256",
          "name": "_val",
          "type": "uint256"
        }
      ],
      "name": "setConfig",
      "outputs": [],
      "stateMutability": "nonpayable",
      "type": "function"
    },
    {
      "inputs": [
        {
          "internalType": "uint256[]",
          "name": "_newCfgs",
          "type": "uint256[]"
        }
      ],
      "name": "setConfigs",
      "outputs": [],
      "stateMutability": "nonpayable",
      "type": "function"
    },
    {
      "inputs": [
        {
          "internalType": "uint256",
          "name": "x",
          "type": "uint256"
        }
      ],
      "name": "setFRateFactor",
      "outputs": [],
      "stateMutability": "nonpayable",
      "type": "function"
    },
    {
      "inputs": [
        {
          "internalType": "uint256",
          "name": "limit",
          "type": "uint256"
        }
      ],
      "name": "setFundingFeeLossOffLimit",
      "outputs": [],
      "stateMutability": "nonpayable",
      "type": "function"
    },
    {
      "inputs": [
        {
          "internalType": "address[]",
          "name": "markets",
          "type": "address[]"
        },
        {
          "internalType": "uint256[]",
          "name": "intervals",
          "type": "uint256[]"
        }
      ],
      "name": "setFundingInterval",
      "outputs": [],
      "stateMutability": "nonpayable",
      "type": "function"
    },
    {
      "inputs": [
        {
          "internalType": "address",
          "name": "_marketReader",
          "type": "address"
        }
      ],
      "name": "setMarketReader",
      "outputs": [],
      "stateMutability": "nonpayable",
      "type": "function"
    },
    {
      "inputs": [
        {
          "internalType": "uint256",
          "name": "x",
          "type": "uint256"
        }
      ],
      "name": "setMaxFRate",
      "outputs": [],
      "stateMutability": "nonpayable",
      "type": "function"
    },
    {
      "inputs": [
        {
          "internalType": "uint256",
          "name": "x",
          "type": "uint256"
        }
      ],
      "name": "setMaxFRatePerDay",
      "outputs": [],
      "stateMutability": "nonpayable",
      "type": "function"
    },
    {
      "inputs": [
        {
          "internalType": "uint256",
          "name": "limit",
          "type": "uint256"
        }
      ],
      "name": "setMinCFRate",
      "outputs": [],
      "stateMutability": "nonpayable",
      "type": "function"
    },
    {
      "inputs": [
        {
          "internalType": "uint256",
          "name": "limit",
          "type": "uint256"
        }
      ],
      "name": "setMinFRate",
      "outputs": [],
      "stateMutability": "nonpayable",
      "type": "function"
    },
    {
      "inputs": [
        {
          "internalType": "uint256",
          "name": "x",
          "type": "uint256"
        }
      ],
      "name": "setMinFundingInterval",
      "outputs": [],
      "stateMutability": "nonpayable",
      "type": "function"
    },
    {
      "inputs": [
        {
          "internalType": "uint256",
          "name": "limit",
          "type": "uint256"
        }
      ],
      "name": "setMinorityFRate",
      "outputs": [],
      "stateMutability": "nonpayable",
      "type": "function"
    },
    {
      "inputs": [
        {
          "internalType": "uint256[]",
          "name": "updatedAts",
          "type": "uint256[]"
        },
        {
          "internalType": "address[]",
          "name": "markets",
          "type": "address[]"
        }
      ],
      "name": "setUpdateAt",
      "outputs": [],
      "stateMutability": "nonpayable",
      "type": "function"
    },
    {
      "inputs": [
        {
          "internalType": "bytes4",
          "name": "interfaceId",
          "type": "bytes4"
        }
      ],
      "name": "supportsInterface",
      "outputs": [
        {
          "internalType": "bool",
          "name": "",
          "type": "bool"
        }
      ],
      "stateMutability": "view",
      "type": "function"
    },
    {
      "inputs": [
        {
          "internalType": "address",
          "name": "to",
          "type": "address"
        }
      ],
      "name": "transferAdmin",
      "outputs": [],
      "stateMutability": "nonpayable",
      "type": "function"
    },
    {
      "inputs": [
        {
          "internalType": "address",
          "name": "newOwner",
          "type": "address"
        }
      ],
      "name": "transferOwnership",
      "outputs": [],
      "stateMutability": "nonpayable",
      "type": "function"
    },
    {
      "inputs": [
        {
          "internalType": "address",
          "name": "market",
          "type": "address"
        },
        {
          "internalType": "uint256",
          "name": "longSize",
          "type": "uint256"
        },
        {
          "internalType": "uint256",
          "name": "shortSize",
          "type": "uint256"
        }
      ],
      "name": "updateCumulativeFundingRate",
      "outputs": [],
      "stateMutability": "nonpayable",
      "type": "function"
    }
  ],
  "bytecode": "0x60806040523480156200001157600080fd5b506200001d3362000023565b62000075565b600180546001600160a01b038381166001600160a01b0319831681179093556040519116919082907f8be0079c531659141344cd1fd0a4f28419497f9722a3daafe3b4186f6b6457e090600090a35050565b61379380620000856000396000f3fe608060405234801561001057600080fd5b50600436106103775760003560e01c8063801341a6116101d3578063bac8d9e811610104578063d547741f116100a2578063e25fefde1161007c578063e25fefde146107c3578063f2fde38b146107d6578063fa9dbfde146107e9578063fc0fd3541461081457600080fd5b8063d547741f1461078a578063d6f5066b1461079d578063dc5ac995146107b057600080fd5b8063c418b11c116100de578063c418b11c14610731578063c4d66de814610744578063c6f83ad114610757578063d4681d1a1461076a57600080fd5b8063bac8d9e81461070e578063bc3d3a8b14610716578063bf63a0a01461072957600080fd5b806395d608a2116101715780639f36dde01161014b5780639f36dde0146106b7578063a217fddf146106ca578063b2b26b06146106d2578063b8749703146106fb57600080fd5b806395d608a2146106945780639ac5d5b21461069c5780639bed226a146106af57600080fd5b80638ac89fc2116101ad5780638ac89fc2146106555780638da5cb5b1461065d5780638f18af9a1461066e57806391d148541461068157600080fd5b8063801341a6146106275780638698a9bd1461063a57806389bff77f1461064d57600080fd5b806350d16a29116102ad578063715018a61161024b57806375829def1161022557806375829def146105ce57806376239a67146105e157806378c225ce146105f45780637fe4a6981461061457600080fd5b8063715018a6146105b357806372d004cf146105bb57806374d57cef146105c657600080fd5b80635b7c1137116102875780635b7c1137146105375780636094ee2b1461054a5780636725684f146105755780636eb5e43c146105a057600080fd5b806350d16a29146104f15780635645d877146105045780635a7fdf161461052457600080fd5b8063248a9ca31161031a57806331021f47116102f457806331021f471461049857806336568abe146104a0578063478222c2146104b35780634fd39bee146104de57600080fd5b8063248a9ca31461045a57806327d3fbf31461047d5780632f2ff15d1461048557600080fd5b80631131cf86116103565780631131cf86146103da5780631d36a50e146103e25780631e34c5851461043457806320981df41461044757600080fd5b806298fa221461037c57806301ffc9a7146103a2578063054aaca1146103c5575b600080fd5b61038f61038a366004612e28565b610834565b6040519081526020015b60405180910390f35b6103b56103b0366004612e41565b610855565b6040519015158152602001610399565b6103d86103d3366004612e80565b61088c565b005b61038f6108fc565b61041f6103f0366004612eb5565b6001600160a01b0316600090815260096020908152604080832060018452909152808220548280529120549091565b60408051928352602083019190915201610399565b6103d8610442366004612ed2565b610922565b61038f610455366004612f02565b610947565b61038f610468366004612e28565b60009081526020819052604090206001015490565b61038f6109c8565b6103d8610493366004612f3b565b6109d3565b61038f6109fd565b6103d86104ae366004612f3b565b610a08565b6003546104c6906001600160a01b031681565b6040516001600160a01b039091168152602001610399565b6103d86104ec366004612e28565b610a82565b6103d86104ff366004612e28565b610aa8565b61038f610512366004612eb5565b60056020526000908152604090205481565b6103d8610532366004612e28565b610ac9565b6103d8610545366004612eb5565b610aea565b61038f610558366004612f02565b600960209081526000928352604080842090915290825290205481565b61038f610583366004612f02565b600b60209081526000928352604080842090915290825290205481565b6103d86105ae3660046130c3565b610b23565b6103d8610d4f565b61038f6305f5e10081565b61038f610d63565b6103d86105dc366004612eb5565b610d6e565b6103d86105ef366004613127565b610d98565b61038f610602366004612eb5565b60086020526000908152604090205481565b6103d8610622366004612eb5565b610f5a565b6103d8610635366004612e28565b610f84565b6103d8610648366004613181565b610fa5565b61038f61100b565b61038f611015565b6001546001600160a01b03166104c6565b61038f61067c3660046131b6565b611020565b6103b561068f366004612f3b565b6110b1565b61038f6110da565b6103d86106aa366004613127565b6110e5565b61038f6112a1565b6103d86106c5366004612e28565b6112ac565b61038f600081565b61038f6106e0366004612eb5565b6001600160a01b03166000908152600a602052604090205490565b6103d8610709366004612e28565b61130d565b61038f61132e565b6103d8610724366004612ed2565b6114d0565b61038f611554565b6004546104c6906001600160a01b031681565b6103d8610752366004612eb5565b61155f565b6103d8610765366004612e80565b6117bd565b61038f610778366004612eb5565b60076020526000908152604090205481565b6103d8610798366004612f3b565b6117f9565b6103d86107ab366004613200565b61181e565b6103d86107be366004612e28565b611853565b6103d86107d1366004612e28565b611874565b6103d86107e4366004612eb5565b611895565b61038f6107f7366004612f02565b600c60209081526000928352604080842090915290825290205481565b61038f610822366004612eb5565b600a6020526000908152604090205481565b6006818154811061084457600080fd5b600091825260209091200154905081565b60006001600160e01b03198216637965db0b60e01b148061088657506301ffc9a760e01b6001600160e01b03198316145b92915050565b6000806108a08585854261190b565b61190b565b9150915060006108c086868686602001518660a0015161089b9190613242565b915050806101a00151816101800151604051631be0b97360e01b81526004016108f3929190918252602082015260400190565b60405180910390fd5b60006006805b8154811061091257610912613255565b9060005260206000200154905090565b61093960008051602061373e8339815191526119de565b61094382826119e8565b5050565b6003546040516001624c409d60e01b031981526001600160a01b0384811660048301528315156024830152600092169063ffb3bf6390604401602060405180830381865afa15801561099d573d6000803e3d6000fd5b505050506040513d601f19601f820116820180604052508101906109c1919061326b565b9392505050565b600060066007610902565b6000828152602081905260409020600101546109ee816119de565b6109f88383611a72565b505050565b600060066004610902565b6001600160a01b0381163314610a785760405162461bcd60e51b815260206004820152602f60248201527f416363657373436f6e74726f6c3a2063616e206f6e6c792072656e6f756e636560448201526e103937b632b9903337b91039b2b63360891b60648201526084016108f3565b6109438282611af6565b610a9960008051602061373e8339815191526119de565b610aa560035b826119e8565b50565b610abf60008051602061373e8339815191526119de565b610aa56001610a9f565b610ae060008051602061373e8339815191526119de565b610aa56008610a9f565b610b0160008051602061373e8339815191526119de565b600480546001600160a01b0319166001600160a01b0392909216919091179055565b610b3a60008051602061373e8339815191526119de565b8051825114610b7d5760405162461bcd60e51b815260206004820152600f60248201526e0dad2e6dac2e8c6d040d8cadccee8d608b1b60448201526064016108f3565b60005b81518110156109f857828181518110610b9b57610b9b613255565b602002602001015160086000848481518110610bb957610bb9613255565b60200260200101516001600160a01b03166001600160a01b0316815260200190815260200160002081905550600360009054906101000a90046001600160a01b03166001600160a01b031663b21bf2d3838381518110610c1b57610c1b613255565b6020026020010151600080600080898881518110610c3b57610c3b613255565b60209081029190910101516040516001600160e01b031960e089901b1681526001600160a01b039096166004870152602486019490945260448501929092526064840152608483015260a482015260c401600060405180830381600087803b158015610ca657600080fd5b505af1158015610cba573d6000803e3d6000fd5b505050507f4d67f7d80a18414610613bcd82c005df45389ac7808cbd04b6ea464d60a3eb12828281518110610cf157610cf1613255565b6020026020010151848381518110610d0b57610d0b613255565b6020026020010151604051610d359291906001600160a01b03929092168252602082015260400190565b60405180910390a180610d4781613284565b915050610b80565b610d57611b5b565b610d616000611bb5565b565b600060066003610902565b6000610d79816119de565b610d84600083611c07565b610d8d82611bb5565b610943600033611af6565b610daf60008051602061373e8339815191526119de565b8051825114610df15760405162461bcd60e51b815260206004820152600e60248201526d696e76616c696420706172616d7360901b60448201526064016108f3565b6000805b8351811015610f545760006001600160a01b0316848281518110610e1b57610e1b613255565b60200260200101516001600160a01b031603610e3657600080fd5b610e3e6108fc565b838281518110610e5057610e50613255565b60200260200101511015610e6357600080fd5b610e6b6108fc565b610e736108fc565b848381518110610e8557610e85613255565b6020026020010151610e9791906132b3565b610ea191906132c7565b91508160056000868481518110610eba57610eba613255565b60200260200101516001600160a01b03166001600160a01b0316815260200190815260200160002081905550838181518110610ef857610ef8613255565b60200260200101516001600160a01b03167f014f9b627a46d0881111664e681522272907a49b31cc3f24613bdad2c551825c83604051610f3a91815260200190565b60405180910390a280610f4c81613284565b915050610df5565b50505050565b7f8d1089725c0dc266707fa6207730fb801dcd03108bfed7a21099bd303651d2b7610377816119de565b610f9b60008051602061373e8339815191526119de565b610aa56009610a9f565b610fbc60008051602061373e8339815191526119de565b600a815114610fca57600080fd5b60005b815181101561094357610ff981838381518110610fec57610fec613255565b60200260200101516119e8565b8061100381613284565b915050610fcd565b6000600681610902565b600060066001610902565b6003546040516334f32e2560e01b81526001600160a01b038681166004830152831515602483015260009283929116906334f32e2590604401602060405180830381865afa158015611076573d6000803e3d6000fd5b505050506040513d601f19601f8201168201806040525081019061109a919061326b565b90506110a7858583611c11565b9695505050505050565b6000918252602082815260408084206001600160a01b0393909316845291905290205460ff1690565b600060066002610902565b6110fc60008051602061373e8339815191526119de565b805182511461113e5760405162461bcd60e51b815260206004820152600e60248201526d696e76616c696420706172616d7360901b60448201526064016108f3565b6000805b8351811015610f545760006001600160a01b031684828151811061116857611168613255565b60200260200101516001600160a01b03160361118357600080fd5b61118b6108fc565b83828151811061119d5761119d613255565b602002602001015110156111b057600080fd5b6111b86108fc565b6111c06108fc565b8483815181106111d2576111d2613255565b60200260200101516111e491906132b3565b6111ee91906132c7565b9150816007600086848151811061120757611207613255565b60200260200101516001600160a01b03166001600160a01b031681526020019081526020016000208190555083818151811061124557611245613255565b60200260200101516001600160a01b03167f1b8e6b844a5201ce0d37b6d92b871ff8ee5aede9e47593abc68ce8b2d1d25b888360405161128791815260200190565b60405180910390a28061129981613284565b915050611142565b600060066008610902565b6112c360008051602061373e8339815191526119de565b600081116113035760405162461bcd60e51b815260206004820152600d60248201526c1a5b9d985b1a59081b1a5b5a5d609a1b60448201526064016108f3565b610aa56004610a9f565b61132460008051602061373e8339815191526119de565b610aa56002610a9f565b6004805460408051637616480b60e11b815290516000936001600160a01b03909316928492849263ec2c90169282810192869291908290030181865afa15801561137c573d6000803e3d6000fd5b505050506040513d6000823e601f3d908101601f191682016040526113a4919081019061331d565b905060005b81518110156114ca57826001600160a01b031663d37c441c6040518163ffffffff1660e01b8152600401602060405180830381865afa1580156113f0573d6000803e3d6000fd5b505050506040513d601f19601f820116820180604052508101906114149190613492565b6001600160a01b0316632b8a001283838151811061143457611434613255565b6020026020010151602001516040518263ffffffff1660e01b815260040161146b91906001600160a01b0391909116815260200190565b602060405180830381865afa158015611488573d6000803e3d6000fd5b505050506040513d601f19601f820116820180604052508101906114ac919061326b565b6114b69085613242565b9350806114c281613284565b9150506113a9565b50505090565b6114e760008051602061373e8339815191526119de565b6114f182826134af565b600660008154811061150557611505613255565b90600052602060002001600082825461151e9190613242565b9091555050604051819083907fbb67e50fdd1f174a20c4f1e0e5b9ab3984685f30623b89b69ba068a11ce913b690600090a35050565b600060066009610902565b600154600160a81b900460ff1615808015611585575060018054600160a01b900460ff16105b806115a55750303b1580156115a5575060018054600160a01b900460ff16145b6116085760405162461bcd60e51b815260206004820152602e60248201527f496e697469616c697a61626c653a20636f6e747261637420697320616c72656160448201526d191e481a5b9a5d1a585b1a5e995960921b60648201526084016108f3565b6001805460ff60a01b1916600160a01b1790558015611635576001805460ff60a81b1916600160a81b1790555b6001600160a01b03821661167e5760405162461bcd60e51b815260206004820152601060248201526f1a5b9d985b1a590819995955985d5b1d60821b60448201526064016108f3565b61168733611c3e565b6040805160c88082526119208201909252906020820161190080368337505081516116b9926006925060200190612d11565b506305f5e10060066001815481106116d3576116d3613255565b6000918252602090912001556305f5e10060066002815481106116f8576116f8613255565b6000918252602090912001556104e2600660048154811061171b5761171b613255565b600091825260209091200155600380546001600160a01b0319166001600160a01b03841617905561175a60008051602061373e83398151915233611a72565b6117676006610e106119e8565b611773600960466119e8565b8015610943576001805460ff60a81b191681556040519081527f7f26b83ff96e1f2b6a682f133852f6798a09c465da95921460cefb38474024989060200160405180910390a15050565b6117e67fcb58d6d985142a614029cdf01861b4fe094d5919a47e69b8310dc4093d9d6ad06119de565b6117f28383834261190b565b5050505050565b600082815260208190526040902060010154611814816119de565b6109f88383611af6565b6118477fcb58d6d985142a614029cdf01861b4fe094d5919a47e69b8310dc4093d9d6ad06119de565b6109438282600a611c61565b61186a60008051602061373e8339815191526119de565b610aa56007610a9f565b61188b60008051602061373e8339815191526119de565b610aa56006610a9f565b61189d611b5b565b6001600160a01b0381166119025760405162461bcd60e51b815260206004820152602660248201527f4f776e61626c653a206e6577206f776e657220697320746865207a65726f206160448201526564647265737360d01b60648201526084016108f3565b610aa581611bb5565b611913612d58565b61191b612da4565b611926868686611cef565b915061193182611e1d565b905061193e828285611e68565b156119ba5761194d8282611e9c565b156119675761195c8282611ed0565b611967818686611f68565b611972828483612018565b156119af57611981828261204b565b60005b81606001518110156119ad5761199b828787611f68565b806119a581613284565b915050611984565b505b6119ba8282886120a7565b6119c582848361218b565b156119d5576119d58282886121ce565b94509492505050565b610aa581336122e4565b6000600683815481106119fd576119fd613255565b906000526020600020015490508160068481548110611a1e57611a1e613255565b600091825260209182902001919091556040805185815291820183905281018390527f7ee20b53ffb80d74dc08be0adedf33c8fa93e5b44eb347a27eedd30c3d6bc35c9060600160405180910390a1505050565b611a7c82826110b1565b610943576000828152602081815260408083206001600160a01b03851684529091529020805460ff19166001179055611ab23390565b6001600160a01b0316816001600160a01b0316837f2f8788117e7eff1d82e926ec794901d17c78024a50270940304540a733656f0d60405160405180910390a45050565b611b0082826110b1565b15610943576000828152602081815260408083206001600160a01b0385168085529252808320805460ff1916905551339285917ff6391f5c32d9c69d2a47ea670b442974b53935d1edc7fd64eb21e047a839171b9190a45050565b6001546001600160a01b03163314610d615760405162461bcd60e51b815260206004820181905260248201527f4f776e61626c653a2063616c6c6572206973206e6f7420746865206f776e657260448201526064016108f3565b600180546001600160a01b038381166001600160a01b0319831681179093556040519116919082907f8be0079c531659141344cd1fd0a4f28419497f9722a3daafe3b4186f6b6457e090600090a35050565b6109438282611a72565b60006305f5e100611c2284846134c2565b611c2c90866134e9565b611c369190613519565b949350505050565b42600255611c4b33611bb5565b611c56600033611c07565b610aa5600082611c07565b6001600160a01b0383166000908152602082905260408120805491849190611c898385613242565b90915550506001600160a01b03841660008181526020848152604091829020548251878152918201859052918101919091527ff92e4260a5a0861b750596d87de06d7f097df50397fa2af2d7d33d9c6d867458906060015b60405180910390a250505050565b611cf7612d58565b6001600160a01b0384166000818152600760209081526040808320548552838352600582528083205485830152928252600890528190205490820152611d3c8461233d565b60608201526001600160a01b0384166000818152600a602090815260408083205461010086015292825260098152828220600183528082528383205460e08601528280529052205460c082015260068054611e0c9185918591906003908110611da757611da7613255565b600091825260209091200154600680546004908110611dc857611dc8613255565b9060005260206000200154611ddc896123ac565b611de78a8a8a6124ad565b600680546007908110611dfc57611dfc613255565b90600052602060002001546124ca565b608083015260a08201529392505050565b611e25612da4565b81516020830151611e3691906132b3565b602082015260e082015161012082015260c082015161010080830191909152604083015160a083015290910151815290565b60008260a00151821015611e7e575060006109c1565b8184602001518560600151611e939190613242565b10949350505050565b81516060830151604084015160009291611eb5916134af565b611ebf91906132b3565b604083018190521515905092915050565b81602001518260600151611ee49190613242565b60a082015260408101516020820151611f1491611f00916134af565b8360a00151611f0f91906132c7565b612517565b8260e00151611f239190613547565b61012082015260408101516020820151611f4f91611f40916134af565b8360800151611f0f91906132c7565b8260c00151611f5e9190613547565b6101009091015250565b6000611f86846101200151856101000151611f816112a1565b612585565b9050611fa984610120015185610100015183611fa0611554565b885188886125a5565b60c087015261016086015261014085018190526101a085018051611fce908390613547565b90525061016084015161018085018051611fe9908390613547565b90525060c0840151845111611fff576000612010565b60c0840151845161201091906134af565b909352505050565b600083602001518260a001518461202f91906134af565b61203991906132b3565b60608301819052151590509392505050565b8060600151826020015161205f91906132c7565b8160a0018181516120709190613242565b905250602081015160a083015161208a91611f0f916132c7565b61012082015260208101516080830151611f5e91611f0f916132c7565b6120c78183600001518561010001516120c091906134af565b600a6126cf565b6003546101408301516101608401516101a085015161018086015160a087015160405163b21bf2d360e01b81526001600160a01b038881166004830152602482019690965260448101949094526064840192909252608483015260a482015291169063b21bf2d39060c401600060405180830381600087803b15801561214c57600080fd5b505af1158015612160573d6000803e3d6000fd5b50505050612176818360a0015160096008612774565b50600061012082018190526101009091015250565b60008160a001518310156121a1575060006109c1565b835160a08301516121b290856134af565b6121bc91906132b3565b60808301819052151590509392505050565b608082015183516121df91906132c7565b8260a0018181516121f09190613242565b905250608082015160a084015161220a91611f0f916132c7565b826101200181815161221c9190613547565b9052506080808301519084015161223691611f0f916132c7565b82610100018181516122489190613547565b90525060a0830180516001600160a01b0383166000818152600b6020908152604080832060018452825280832094909455608088018051838052928590209290925593519051835191825293810193909352917f8bfe8b5c73740b3875e694ce9425829dc01970e61b7edbe2b3c2d379328bab72910160405180910390a26109f8818361012001518461010001518560a0015160096008612820565b6122ee82826110b1565b610943576122fb8161292b565b61230683602061293d565b60405160200161231792919061356f565b60408051601f198184030181529082905262461bcd60e51b82526108f3916004016135e4565b60035460405163d8f897c360e01b81526001600160a01b038381166004830152600092169063d8f897c390602401602060405180830381865afa158015612388573d6000803e3d6000fd5b505050506040513d601f19601f82011682018060405250810190610886919061326b565b6004546000906001600160a01b0316816123c461132e565b90506000826001600160a01b031663d37c441c6040518163ffffffff1660e01b8152600401602060405180830381865afa158015612406573d6000803e3d6000fd5b505050506040513d601f19601f8201168201806040525081019061242a9190613492565b6001600160a01b0316636dc7b0a16040518163ffffffff1660e01b8152600401602060405180830381865afa158015612467573d6000803e3d6000fd5b505050506040513d601f19601f8201168201806040525081019061248b919061326b565b9050600061249886612ad9565b90506110a783836124a7611015565b84612ae6565b6000611c3683836124bd87612ad9565b6124c56110da565b612b3c565b60008086156124d957866124db565b845b9650868411156124e9578693505b858410156124f5578593505b87891015612504578284612507565b83835b9150915097509795505050505050565b60006001600160ff1b038211156125815760405162461bcd60e51b815260206004820152602860248201527f53616665436173743a2076616c756520646f65736e27742066697420696e2061604482015267371034b73a191a9b60c11b60648201526084016108f3565b5090565b60006125996125948585612bed565b612c11565b9050611c368183612c63565b6000806000806000861180156125bb5750600085115b9050898b12612645576125d0868a8a8a612c79565b91506125db89612517565b93508015612640576125ec85612517565b6125f96305f5e100612517565b61260284612517565b61260c91906134e9565b8561261689612517565b61262091906134e9565b61262a91906134c2565b61263390613617565b61263d9190613519565b92505b6126c1565b612651858a8a8a612c79565b915061265c89612517565b925080156126c15761266d86612517565b61267a6305f5e100612517565b61268384612517565b61268d91906134e9565b8461269788612517565b6126a191906134e9565b6126ab91906134c2565b6126b490613617565b6126be9190613519565b93505b509750975097945050505050565b6001600160a01b0383166000908152602082905260409020548281116126f657600061271a565b6001600160a01b03841660009081526020839052604090205461271a9084906134af565b6001600160a01b03851660008181526020858152604091829020849055815187815290810185905290810192909252907f46688c57894e3513fd67b19c1f09ffe6b4a24062d8d29e580ba554fe4384c0e090606001611ce1565b6001600160a01b0384166000818152602084815260408083206001845282528083208390558280528083208390558383528482528083208790558051838152918201929092527f18c1e75c2355914e05f0e3d65be88099e2489e17f7a307d0adc3a22239b4667f910160405180910390a2836001600160a01b03167f5e6f1d9aee6db6f0c00c16081ad195c05424762f100ab07c4fdbe9fde1d42a6c84604051611ce191815260200190565b6001600160a01b0386166000908152602083815260408083206001845290915281208054879290612852908490613547565b90915550506001600160a01b03861660009081526020838152604080832083805290915281208054869290612888908490613547565b90915550506001600160a01b0386166000818152602083815260409182902086905581518881529081018790527f18c1e75c2355914e05f0e3d65be88099e2489e17f7a307d0adc3a22239b4667f910160405180910390a2856001600160a01b03167f5e6f1d9aee6db6f0c00c16081ad195c05424762f100ab07c4fdbe9fde1d42a6c8460405161291b91815260200190565b60405180910390a2505050505050565b60606108866001600160a01b03831660145b6060600061294c8360026132c7565b612957906002613242565b67ffffffffffffffff81111561296f5761296f612f60565b6040519080825280601f01601f191660200182016040528015612999576020820181803683370190505b509050600360fc1b816000815181106129b4576129b4613255565b60200101906001600160f81b031916908160001a905350600f60fb1b816001815181106129e3576129e3613255565b60200101906001600160f81b031916908160001a9053506000612a078460026132c7565b612a12906001613242565b90505b6001811115612a8a576f181899199a1a9b1b9c1cb0b131b232b360811b85600f1660108110612a4657612a46613255565b1a60f81b828281518110612a5c57612a5c613255565b60200101906001600160f81b031916908160001a90535060049490941c93612a8381613633565b9050612a15565b5083156109c15760405162461bcd60e51b815260206004820181905260248201527f537472696e67733a20686578206c656e67746820696e73756666696369656e7460448201526064016108f3565b6000610886826007612cbb565b600080610e106305f5e1006018878288612b00898d6132c7565b612b0a91906132c7565b612b1491906132c7565b612b1e91906132b3565b612b2891906132b3565b612b3291906132b3565b6110a791906132b3565b600080612b498686612ce5565b9050600081156110a7576000612b5f8789613242565b905080612b706305f5e100856132c7565b612b7a91906132b3565b9150610e10601860646305f5e10089612b9460028861372e565b612b9e91906132c7565b612ba891906132b3565b612bb291906132b3565b612bbc91906132b3565b612bc691906132b3565b91506305f5e100612bd786846132c7565b612be191906132b3565b98975050505050505050565b6000818312612c0757612c0082846134c2565b9050610886565b612c0083836134c2565b6000808212156125815760405162461bcd60e51b815260206004820181905260248201527f53616665436173743a2076616c7565206d75737420626520706f73697469766560448201526064016108f3565b6000818311612c7257816109c1565b5090919050565b6000612cb2612c8d60026305f5e10061372e565b84612c9887896132c7565b612ca291906132c7565b612cac91906132b3565b83612d02565b95945050505050565b6001600160a01b038216600090815260208290526040812054908190036108865750610e10610886565b6000818310612cf857612c0082846134af565b612c0083836134af565b6000818310612c7257816109c1565b828054828255906000526020600020908101928215612d4c579160200282015b82811115612d4c578251825591602001919060010190612d31565b50612581929150612e13565b6040518061012001604052806000815260200160008152602001600081526020016000815260200160008152602001600081526020016000815260200160008152602001600081525090565b604051806101c0016040528060008152602001600081526020016000815260200160008152602001600081526020016000815260200160008152602001600081526020016000815260200160008152602001600081526020016000815260200160008152602001600081525090565b5b808211156125815760008155600101612e14565b600060208284031215612e3a57600080fd5b5035919050565b600060208284031215612e5357600080fd5b81356001600160e01b0319811681146109c157600080fd5b6001600160a01b0381168114610aa557600080fd5b600080600060608486031215612e9557600080fd5b8335612ea081612e6b565b95602085013595506040909401359392505050565b600060208284031215612ec757600080fd5b81356109c181612e6b565b60008060408385031215612ee557600080fd5b50508035926020909101359150565b8015158114610aa557600080fd5b60008060408385031215612f1557600080fd5b8235612f2081612e6b565b91506020830135612f3081612ef4565b809150509250929050565b60008060408385031215612f4e57600080fd5b823591506020830135612f3081612e6b565b634e487b7160e01b600052604160045260246000fd5b60405160a0810167ffffffffffffffff81118282101715612f9957612f99612f60565b60405290565b604051601f8201601f1916810167ffffffffffffffff81118282101715612fc857612fc8612f60565b604052919050565b600067ffffffffffffffff821115612fea57612fea612f60565b5060051b60200190565b600082601f83011261300557600080fd5b8135602061301a61301583612fd0565b612f9f565b82815260059290921b8401810191818101908684111561303957600080fd5b8286015b84811015613054578035835291830191830161303d565b509695505050505050565b600082601f83011261307057600080fd5b8135602061308061301583612fd0565b82815260059290921b8401810191818101908684111561309f57600080fd5b8286015b848110156130545780356130b681612e6b565b83529183019183016130a3565b600080604083850312156130d657600080fd5b823567ffffffffffffffff808211156130ee57600080fd5b6130fa86838701612ff4565b9350602085013591508082111561311057600080fd5b5061311d8582860161305f565b9150509250929050565b6000806040838503121561313a57600080fd5b823567ffffffffffffffff8082111561315257600080fd5b61315e8683870161305f565b9350602085013591508082111561317457600080fd5b5061311d85828601612ff4565b60006020828403121561319357600080fd5b813567ffffffffffffffff8111156131aa57600080fd5b611c3684828501612ff4565b600080600080608085870312156131cc57600080fd5b84356131d781612e6b565b9350602085013592506040850135915060608501356131f581612ef4565b939692955090935050565b6000806040838503121561321357600080fd5b823561321e81612e6b565b946020939093013593505050565b634e487b7160e01b600052601160045260246000fd5b808201808211156108865761088661322c565b634e487b7160e01b600052603260045260246000fd5b60006020828403121561327d57600080fd5b5051919050565b6000600182016132965761329661322c565b5060010190565b634e487b7160e01b600052601260045260246000fd5b6000826132c2576132c261329d565b500490565b80820281158282048414176108865761088661322c565b60005b838110156132f95781810151838201526020016132e1565b50506000910152565b805161330d81612e6b565b919050565b805161330d81612ef4565b6000602080838503121561333057600080fd5b825167ffffffffffffffff8082111561334857600080fd5b818501915085601f83011261335c57600080fd5b815161336a61301582612fd0565b81815260059190911b8301840190848101908883111561338957600080fd5b8585015b83811015613485578051858111156133a457600080fd5b8601601f1960a0828d03820112156133bc5760008081fd5b6133c4612f76565b89830151888111156133d65760008081fd5b8301603f81018e136133e85760008081fd5b8a81015160408a8211156133fe576133fe612f60565b61340e8d86601f85011601612f9f565b94508185528f818385010111156134255760008081fd5b613434828e87018386016132de565b848452613442818701613302565b8d8501526060945084860151818501525050506080613462818501613312565b8383015261347260a08501613312565b908201528552505091860191860161338d565b5098975050505050505050565b6000602082840312156134a457600080fd5b81516109c181612e6b565b818103818111156108865761088661322c565b81810360008312801583831316838312821617156134e2576134e261322c565b5092915050565b80820260008212600160ff1b841416156135055761350561322c565b81810583148215176108865761088661322c565b6000826135285761352861329d565b600160ff1b8214600019841416156135425761354261322c565b500590565b80820182811260008312801582168215821617156135675761356761322c565b505092915050565b7f416363657373436f6e74726f6c3a206163636f756e74200000000000000000008152600083516135a78160178501602088016132de565b7001034b99036b4b9b9b4b733903937b6329607d1b60179184019182015283516135d88160288401602088016132de565b01602801949350505050565b60208152600082518060208401526136038160408501602087016132de565b601f01601f19169190910160400192915050565b6000600160ff1b820161362c5761362c61322c565b5060000390565b6000816136425761364261322c565b506000190190565b600181815b8085111561368557816000190482111561366b5761366b61322c565b8085161561367857918102915b93841c939080029061364f565b509250929050565b60008261369c57506001610886565b816136a957506000610886565b81600181146136bf57600281146136c9576136e5565b6001915050610886565b60ff8411156136da576136da61322c565b50506001821b610886565b5060208310610133831016604e8410600b8410161715613708575081810a610886565b613712838361364a565b80600019048211156137265761372661322c565b029392505050565b60006109c160ff84168361368d56fe241ecf16d79d0f8dbfb92cbc07fe17840425976cf0667f022fe9877caa831b08a26469706673582212200d9a82f4430e8dfd483d57836a18f38b9cee4ae04b4cc5c4c6fe6d3f803611c964736f6c63430008110033",
  "linkReferences": {},
  "deployedLinkReferences": {}
}