{
  "_format": "hh-sol-artifact-1",
  "contractName": "FundFee",
  "sourceName": "contracts/fee/FundFee.sol",
  "abi": [
    {
      "anonymous": false,
      "inputs": [
        {
          "indexed": true,
          "internalType": "address",
          "name": "market",
          "type": "address"
        },
        {
          "indexed": false,
          "internalType": "uint256",
          "name": "amount",
          "type": "uint256"
        },
        {
          "indexed": false,
          "internalType": "uint256",
          "name": "lossBefore",
          "type": "uint256"
        },
        {
          "indexed": false,
          "internalType": "uint256",
          "name": "lossAfter",
          "type": "uint256"
        }
      ],
      "name": "AddNegativeFeeLoss",
      "type": "event"
    },
    {
      "anonymous": false,
      "inputs": [
        {
          "indexed": true,
          "internalType": "address",
          "name": "market",
          "type": "address"
        },
        {
          "indexed": false,
          "internalType": "uint256",
          "name": "deductAmount",
          "type": "uint256"
        },
        {
          "indexed": false,
          "internalType": "uint256",
          "name": "lossBefore",
          "type": "uint256"
        },
        {
          "indexed": false,
          "internalType": "uint256",
          "name": "lossAfter",
          "type": "uint256"
        }
      ],
      "name": "AddPositiveFeeLoss",
      "type": "event"
    },
    {
      "anonymous": false,
      "inputs": [
        {
          "indexed": true,
          "internalType": "uint256",
          "name": "startTime",
          "type": "uint256"
        },
        {
          "indexed": true,
          "internalType": "uint256",
          "name": "endTime",
          "type": "uint256"
        }
      ],
      "name": "AddSkipTime",
      "type": "event"
    },
    {
      "anonymous": false,
      "inputs": [
        {
          "indexed": false,
          "internalType": "uint8",
          "name": "version",
          "type": "uint8"
        }
      ],
      "name": "Initialized",
      "type": "event"
    },
    {
      "anonymous": false,
      "inputs": [
        {
          "indexed": true,
          "internalType": "address",
          "name": "previousOwner",
          "type": "address"
        },
        {
          "indexed": true,
          "internalType": "address",
          "name": "newOwner",
          "type": "address"
        }
      ],
      "name": "OwnershipTransferred",
      "type": "event"
    },
    {
      "anonymous": false,
      "inputs": [
        {
          "indexed": true,
          "internalType": "bytes32",
          "name": "role",
          "type": "bytes32"
        },
        {
          "indexed": true,
          "internalType": "bytes32",
          "name": "previousAdminRole",
          "type": "bytes32"
        },
        {
          "indexed": true,
          "internalType": "bytes32",
          "name": "newAdminRole",
          "type": "bytes32"
        }
      ],
      "name": "RoleAdminChanged",
      "type": "event"
    },
    {
      "anonymous": false,
      "inputs": [
        {
          "indexed": true,
          "internalType": "bytes32",
          "name": "role",
          "type": "bytes32"
        },
        {
          "indexed": true,
          "internalType": "address",
          "name": "account",
          "type": "address"
        },
        {
          "indexed": true,
          "internalType": "address",
          "name": "sender",
          "type": "address"
        }
      ],
      "name": "RoleGranted",
      "type": "event"
    },
    {
      "anonymous": false,
      "inputs": [
        {
          "indexed": true,
          "internalType": "bytes32",
          "name": "role",
          "type": "bytes32"
        },
        {
          "indexed": true,
          "internalType": "address",
          "name": "account",
          "type": "address"
        },
        {
          "indexed": true,
          "internalType": "address",
          "name": "sender",
          "type": "address"
        }
      ],
      "name": "RoleRevoked",
      "type": "event"
    },
    {
      "anonymous": false,
      "inputs": [
        {
          "indexed": false,
          "internalType": "address",
          "name": "market",
          "type": "address"
        },
        {
          "indexed": false,
          "internalType": "uint256",
          "name": "updatedAt",
          "type": "uint256"
        }
      ],
      "name": "SetUpdateAt",
      "type": "event"
    },
    {
      "anonymous": false,
      "inputs": [
        {
          "indexed": true,
          "internalType": "address",
          "name": "market",
          "type": "address"
        },
        {
          "indexed": false,
          "internalType": "int256",
          "name": "longRate",
          "type": "int256"
        },
        {
          "indexed": false,
          "internalType": "int256",
          "name": "shortRate",
          "type": "int256"
        }
      ],
      "name": "UpdateCalFundRates",
      "type": "event"
    },
    {
      "anonymous": false,
      "inputs": [
        {
          "indexed": true,
          "internalType": "address",
          "name": "market",
          "type": "address"
        },
        {
          "indexed": false,
          "internalType": "uint256",
          "name": "interval",
          "type": "uint256"
        }
      ],
      "name": "UpdateCalInterval",
      "type": "event"
    },
    {
      "anonymous": false,
      "inputs": [
        {
          "indexed": false,
          "internalType": "uint256",
          "name": "index",
          "type": "uint256"
        },
        {
          "indexed": false,
          "internalType": "uint256",
          "name": "oldFRate",
          "type": "uint256"
        },
        {
          "indexed": false,
          "internalType": "uint256",
          "name": "newFRate",
          "type": "uint256"
        }
      ],
      "name": "UpdateConfig",
      "type": "event"
    },
    {
      "anonymous": false,
      "inputs": [
        {
          "indexed": true,
          "internalType": "address",
          "name": "market",
          "type": "address"
        },
        {
          "indexed": false,
          "internalType": "uint256",
          "name": "interval",
          "type": "uint256"
        }
      ],
      "name": "UpdateFundInterval",
      "type": "event"
    },
    {
      "anonymous": false,
      "inputs": [
        {
          "indexed": true,
          "internalType": "address",
          "name": "market",
          "type": "address"
        },
        {
          "indexed": false,
          "internalType": "uint256",
          "name": "longRate",
          "type": "uint256"
        },
        {
          "indexed": false,
          "internalType": "uint256",
          "name": "shortRate",
          "type": "uint256"
        }
      ],
      "name": "UpdateLastCalRate",
      "type": "event"
    },
    {
      "anonymous": false,
      "inputs": [
        {
          "indexed": true,
          "internalType": "address",
          "name": "market",
          "type": "address"
        },
        {
          "indexed": false,
          "internalType": "uint256",
          "name": "timestamp",
          "type": "uint256"
        }
      ],
      "name": "UpdateLastCalTime",
      "type": "event"
    },
    {
      "inputs": [],
      "name": "DEFAULT_ADMIN_ROLE",
      "outputs": [
        {
          "internalType": "bytes32",
          "name": "",
          "type": "bytes32"
        }
      ],
      "stateMutability": "view",
      "type": "function"
    },
    {
      "inputs": [],
      "name": "FEERATEPRECISION",
      "outputs": [
        {
          "internalType": "uint256",
          "name": "",
          "type": "uint256"
        }
      ],
      "stateMutability": "view",
      "type": "function"
    },
    {
      "inputs": [
        {
          "internalType": "address",
          "name": "market",
          "type": "address"
        },
        {
          "internalType": "uint256",
          "name": "a",
          "type": "uint256"
        }
      ],
      "name": "addFeeLoss",
      "outputs": [],
      "stateMutability": "nonpayable",
      "type": "function"
    },
    {
      "inputs": [
        {
          "internalType": "uint256",
          "name": "start",
          "type": "uint256"
        },
        {
          "internalType": "uint256",
          "name": "end",
          "type": "uint256"
        }
      ],
      "name": "addSkipTime",
      "outputs": [],
      "stateMutability": "nonpayable",
      "type": "function"
    },
    {
      "inputs": [],
      "name": "aum",
      "outputs": [
        {
          "internalType": "uint256",
          "name": "",
          "type": "uint256"
        }
      ],
      "stateMutability": "view",
      "type": "function"
    },
    {
      "inputs": [
        {
          "internalType": "address",
          "name": "",
          "type": "address"
        },
        {
          "internalType": "bool",
          "name": "",
          "type": "bool"
        }
      ],
      "name": "calFundingRates",
      "outputs": [
        {
          "internalType": "int256",
          "name": "",
          "type": "int256"
        }
      ],
      "stateMutability": "view",
      "type": "function"
    },
    {
      "inputs": [
        {
          "internalType": "address",
          "name": "",
          "type": "address"
        }
      ],
      "name": "calIntervals",
      "outputs": [
        {
          "internalType": "uint256",
          "name": "",
          "type": "uint256"
        }
      ],
      "stateMutability": "view",
      "type": "function"
    },
    {
      "inputs": [
        {
          "internalType": "uint256",
          "name": "",
          "type": "uint256"
        }
      ],
      "name": "configs",
      "outputs": [
        {
          "internalType": "uint256",
          "name": "",
          "type": "uint256"
        }
      ],
      "stateMutability": "view",
      "type": "function"
    },
    {
      "inputs": [],
      "name": "fRateFactor",
      "outputs": [
        {
          "internalType": "uint256",
          "name": "",
          "type": "uint256"
        }
      ],
      "stateMutability": "view",
      "type": "function"
    },
    {
      "inputs": [],
      "name": "feeVault",
      "outputs": [
        {
          "internalType": "address",
          "name": "",
          "type": "address"
        }
      ],
      "stateMutability": "view",
      "type": "function"
    },
    {
      "inputs": [
        {
          "internalType": "address",
          "name": "",
          "type": "address"
        }
      ],
      "name": "fundFeeLoss",
      "outputs": [
        {
          "internalType": "uint256",
          "name": "",
          "type": "uint256"
        }
      ],
      "stateMutability": "view",
      "type": "function"
    },
    {
      "inputs": [
        {
          "internalType": "address",
          "name": "market",
          "type": "address"
        }
      ],
      "name": "fundingFeeLoss",
      "outputs": [
        {
          "internalType": "uint256",
          "name": "",
          "type": "uint256"
        }
      ],
      "stateMutability": "view",
      "type": "function"
    },
    {
      "inputs": [],
      "name": "fundingFeeLossOffLimit",
      "outputs": [
        {
          "internalType": "uint256",
          "name": "",
          "type": "uint256"
        }
      ],
      "stateMutability": "view",
      "type": "function"
    },
    {
      "inputs": [
        {
          "internalType": "address",
          "name": "",
          "type": "address"
        }
      ],
      "name": "fundingIntervals",
      "outputs": [
        {
          "internalType": "uint256",
          "name": "",
          "type": "uint256"
        }
      ],
      "stateMutability": "view",
      "type": "function"
    },
    {
      "inputs": [
        {
          "internalType": "address",
          "name": "market",
          "type": "address"
        }
      ],
      "name": "getCalFundingRates",
      "outputs": [
        {
          "internalType": "int256",
          "name": "",
          "type": "int256"
        },
        {
          "internalType": "int256",
          "name": "",
          "type": "int256"
        }
      ],
      "stateMutability": "view",
      "type": "function"
    },
    {
      "inputs": [
        {
          "internalType": "address",
          "name": "market",
          "type": "address"
        },
        {
          "internalType": "uint256",
          "name": "size",
          "type": "uint256"
        },
        {
          "internalType": "int256",
          "name": "entryFundingRate",
          "type": "int256"
        },
        {
          "internalType": "bool",
          "name": "isLong",
          "type": "bool"
        }
      ],
      "name": "getFundingFee",
      "outputs": [
        {
          "internalType": "int256",
          "name": "",
          "type": "int256"
        }
      ],
      "stateMutability": "view",
      "type": "function"
    },
    {
      "inputs": [
        {
          "internalType": "address",
          "name": "market",
          "type": "address"
        },
        {
          "internalType": "bool",
          "name": "isLong",
          "type": "bool"
        }
      ],
      "name": "getFundingRate",
      "outputs": [
        {
          "internalType": "int256",
          "name": "",
          "type": "int256"
        }
      ],
      "stateMutability": "view",
      "type": "function"
    },
    {
      "inputs": [],
      "name": "getGlobalOpenInterest",
      "outputs": [
        {
          "internalType": "uint256",
          "name": "_globalSize",
          "type": "uint256"
        }
      ],
      "stateMutability": "view",
      "type": "function"
    },
    {
      "inputs": [
        {
          "internalType": "address",
          "name": "market",
          "type": "address"
        },
        {
          "internalType": "uint256",
          "name": "longSize",
          "type": "uint256"
        },
        {
          "internalType": "uint256",
          "name": "shortSize",
          "type": "uint256"
        }
      ],
      "name": "getNextFundingRate",
      "outputs": [],
      "stateMutability": "nonpayable",
      "type": "function"
    },
    {
      "inputs": [
        {
          "internalType": "bytes32",
          "name": "role",
          "type": "bytes32"
        }
      ],
      "name": "getRoleAdmin",
      "outputs": [
        {
          "internalType": "bytes32",
          "name": "",
          "type": "bytes32"
        }
      ],
      "stateMutability": "view",
      "type": "function"
    },
    {
      "inputs": [],
      "name": "getSkipTime",
      "outputs": [
        {
          "internalType": "uint256",
          "name": "totalSkip",
          "type": "uint256"
        }
      ],
      "stateMutability": "view",
      "type": "function"
    },
    {
      "inputs": [
        {
          "internalType": "address",
          "name": "_account",
          "type": "address"
        }
      ],
      "name": "grantControllerRoleByMarketManager",
      "outputs": [],
      "stateMutability": "nonpayable",
      "type": "function"
    },
    {
      "inputs": [
        {
          "internalType": "bytes32",
          "name": "role",
          "type": "bytes32"
        },
        {
          "internalType": "address",
          "name": "account",
          "type": "address"
        }
      ],
      "name": "grantRole",
      "outputs": [],
      "stateMutability": "nonpayable",
      "type": "function"
    },
    {
      "inputs": [
        {
          "internalType": "bytes32",
          "name": "role",
          "type": "bytes32"
        },
        {
          "internalType": "address",
          "name": "account",
          "type": "address"
        }
      ],
      "name": "hasRole",
      "outputs": [
        {
          "internalType": "bool",
          "name": "",
          "type": "bool"
        }
      ],
      "stateMutability": "view",
      "type": "function"
    },
    {
      "inputs": [
        {
          "internalType": "address",
          "name": "_feeVault",
          "type": "address"
        }
      ],
      "name": "initialize",
      "outputs": [],
      "stateMutability": "nonpayable",
      "type": "function"
    },
    {
      "inputs": [
        {
          "internalType": "address",
          "name": "",
          "type": "address"
        },
        {
          "internalType": "bool",
          "name": "",
          "type": "bool"
        }
      ],
      "name": "lastCalRate",
      "outputs": [
        {
          "internalType": "uint256",
          "name": "",
          "type": "uint256"
        }
      ],
      "stateMutability": "view",
      "type": "function"
    },
    {
      "inputs": [
        {
          "internalType": "address",
          "name": "",
          "type": "address"
        }
      ],
      "name": "lastCalTimes",
      "outputs": [
        {
          "internalType": "uint256",
          "name": "",
          "type": "uint256"
        }
      ],
      "stateMutability": "view",
      "type": "function"
    },
    {
      "inputs": [],
      "name": "marketReader",
      "outputs": [
        {
          "internalType": "address",
          "name": "",
          "type": "address"
        }
      ],
      "stateMutability": "view",
      "type": "function"
    },
    {
      "inputs": [],
      "name": "maxFRate",
      "outputs": [
        {
          "internalType": "uint256",
          "name": "",
          "type": "uint256"
        }
      ],
      "stateMutability": "view",
      "type": "function"
    },
    {
      "inputs": [],
      "name": "maxFRatePerDay",
      "outputs": [
        {
          "internalType": "uint256",
          "name": "",
          "type": "uint256"
        }
      ],
      "stateMutability": "view",
      "type": "function"
    },
    {
      "inputs": [],
      "name": "minCFRate",
      "outputs": [
        {
          "internalType": "uint256",
          "name": "",
          "type": "uint256"
        }
      ],
      "stateMutability": "view",
      "type": "function"
    },
    {
      "inputs": [],
      "name": "minFRate",
      "outputs": [
        {
          "internalType": "uint256",
          "name": "",
          "type": "uint256"
        }
      ],
      "stateMutability": "view",
      "type": "function"
    },
    {
      "inputs": [],
      "name": "minFundingInterval",
      "outputs": [
        {
          "internalType": "uint256",
          "name": "",
          "type": "uint256"
        }
      ],
      "stateMutability": "view",
      "type": "function"
    },
    {
      "inputs": [],
      "name": "minorityFRate",
      "outputs": [
        {
          "internalType": "uint256",
          "name": "",
          "type": "uint256"
        }
      ],
      "stateMutability": "view",
      "type": "function"
    },
    {
      "inputs": [],
      "name": "owner",
      "outputs": [
        {
          "internalType": "address",
          "name": "",
          "type": "address"
        }
      ],
      "stateMutability": "view",
      "type": "function"
    },
    {
      "inputs": [],
      "name": "renounceOwnership",
      "outputs": [],
      "stateMutability": "nonpayable",
      "type": "function"
    },
    {
      "inputs": [
        {
          "internalType": "bytes32",
          "name": "role",
          "type": "bytes32"
        },
        {
          "internalType": "address",
          "name": "account",
          "type": "address"
        }
      ],
      "name": "renounceRole",
      "outputs": [],
      "stateMutability": "nonpayable",
      "type": "function"
    },
    {
      "inputs": [
        {
          "internalType": "bytes32",
          "name": "role",
          "type": "bytes32"
        },
        {
          "internalType": "address",
          "name": "account",
          "type": "address"
        }
      ],
      "name": "revokeRole",
      "outputs": [],
      "stateMutability": "nonpayable",
      "type": "function"
    },
    {
      "inputs": [
        {
          "internalType": "address[]",
          "name": "markets",
          "type": "address[]"
        },
        {
          "internalType": "uint256[]",
          "name": "intervals",
          "type": "uint256[]"
        }
      ],
      "name": "setCalInterval",
      "outputs": [],
      "stateMutability": "nonpayable",
      "type": "function"
    },
    {
      "inputs": [
        {
          "internalType": "uint256",
          "name": "_idx",
          "type": "uint256"
        },
        {
          "internalType": "uint256",
          "name": "_val",
          "type": "uint256"
        }
      ],
      "name": "setConfig",
      "outputs": [],
      "stateMutability": "nonpayable",
      "type": "function"
    },
    {
      "inputs": [
        {
          "internalType": "uint256[]",
          "name": "_newCfgs",
          "type": "uint256[]"
        }
      ],
      "name": "setConfigs",
      "outputs": [],
      "stateMutability": "nonpayable",
      "type": "function"
    },
    {
      "inputs": [
        {
          "internalType": "uint256",
          "name": "x",
          "type": "uint256"
        }
      ],
      "name": "setFRateFactor",
      "outputs": [],
      "stateMutability": "nonpayable",
      "type": "function"
    },
    {
      "inputs": [
        {
          "internalType": "uint256",
          "name": "limit",
          "type": "uint256"
        }
      ],
      "name": "setFundingFeeLossOffLimit",
      "outputs": [],
      "stateMutability": "nonpayable",
      "type": "function"
    },
    {
      "inputs": [
        {
          "internalType": "address[]",
          "name": "markets",
          "type": "address[]"
        },
        {
          "internalType": "uint256[]",
          "name": "intervals",
          "type": "uint256[]"
        }
      ],
      "name": "setFundingInterval",
      "outputs": [],
      "stateMutability": "nonpayable",
      "type": "function"
    },
    {
      "inputs": [
        {
          "internalType": "address",
          "name": "_marketReader",
          "type": "address"
        }
      ],
      "name": "setMarketReader",
      "outputs": [],
      "stateMutability": "nonpayable",
      "type": "function"
    },
    {
      "inputs": [
        {
          "internalType": "uint256",
          "name": "x",
          "type": "uint256"
        }
      ],
      "name": "setMaxFRate",
      "outputs": [],
      "stateMutability": "nonpayable",
      "type": "function"
    },
    {
      "inputs": [
        {
          "internalType": "uint256",
          "name": "x",
          "type": "uint256"
        }
      ],
      "name": "setMaxFRatePerDay",
      "outputs": [],
      "stateMutability": "nonpayable",
      "type": "function"
    },
    {
      "inputs": [
        {
          "internalType": "uint256",
          "name": "limit",
          "type": "uint256"
        }
      ],
      "name": "setMinCFRate",
      "outputs": [],
      "stateMutability": "nonpayable",
      "type": "function"
    },
    {
      "inputs": [
        {
          "internalType": "uint256",
          "name": "limit",
          "type": "uint256"
        }
      ],
      "name": "setMinFRate",
      "outputs": [],
      "stateMutability": "nonpayable",
      "type": "function"
    },
    {
      "inputs": [
        {
          "internalType": "uint256",
          "name": "x",
          "type": "uint256"
        }
      ],
      "name": "setMinFundingInterval",
      "outputs": [],
      "stateMutability": "nonpayable",
      "type": "function"
    },
    {
      "inputs": [
        {
          "internalType": "uint256",
          "name": "limit",
          "type": "uint256"
        }
      ],
      "name": "setMinorityFRate",
      "outputs": [],
      "stateMutability": "nonpayable",
      "type": "function"
    },
    {
      "inputs": [
        {
          "internalType": "uint256[]",
          "name": "updatedAts",
          "type": "uint256[]"
        },
        {
          "internalType": "address[]",
          "name": "markets",
          "type": "address[]"
        }
      ],
      "name": "setUpdateAt",
      "outputs": [],
      "stateMutability": "nonpayable",
      "type": "function"
    },
    {
      "inputs": [
        {
          "internalType": "bytes4",
          "name": "interfaceId",
          "type": "bytes4"
        }
      ],
      "name": "supportsInterface",
      "outputs": [
        {
          "internalType": "bool",
          "name": "",
          "type": "bool"
        }
      ],
      "stateMutability": "view",
      "type": "function"
    },
    {
      "inputs": [
        {
          "internalType": "address",
          "name": "to",
          "type": "address"
        }
      ],
      "name": "transferAdmin",
      "outputs": [],
      "stateMutability": "nonpayable",
      "type": "function"
    },
    {
      "inputs": [
        {
          "internalType": "address",
          "name": "newOwner",
          "type": "address"
        }
      ],
      "name": "transferOwnership",
      "outputs": [],
      "stateMutability": "nonpayable",
      "type": "function"
    },
    {
      "inputs": [
        {
          "internalType": "uint256",
          "name": "_a",
          "type": "uint256"
        }
      ],
      "name": "updateAUM",
      "outputs": [],
      "stateMutability": "nonpayable",
      "type": "function"
    },
    {
      "inputs": [
        {
          "internalType": "address",
          "name": "market",
          "type": "address"
        },
        {
          "internalType": "uint256",
          "name": "longSize",
          "type": "uint256"
        },
        {
          "internalType": "uint256",
          "name": "shortSize",
          "type": "uint256"
        }
      ],
      "name": "updateCumulativeFundingRate",
      "outputs": [],
      "stateMutability": "nonpayable",
      "type": "function"
    }
  ],
  "bytecode": "0x60806040523480156200001157600080fd5b506200001d3362000023565b62000075565b600180546001600160a01b038381166001600160a01b0319831681179093556040519116919082907f8be0079c531659141344cd1fd0a4f28419497f9722a3daafe3b4186f6b6457e090600090a35050565b61415f80620000856000396000f3fe608060405234801561001057600080fd5b50600436106103825760003560e01c806378c225ce116101de578063b2b26b061161010f578063c6f83ad1116100ad578063dc5ac9951161007c578063dc5ac995146107d7578063e25fefde146107ea578063f2fde38b146107fd578063fc0fd3541461081057600080fd5b8063c6f83ad11461077e578063d4681d1a14610791578063d547741f146107b1578063d6f5066b146107c457600080fd5b8063bc3d3a8b116100e9578063bc3d3a8b1461073d578063bf63a0a014610750578063c418b11c14610758578063c4d66de81461076b57600080fd5b8063b2b26b06146106f9578063b874970314610722578063bac8d9e81461073557600080fd5b80638f18af9a1161017c5780639ac5d5b2116101565780639ac5d5b2146106c35780639bed226a146106d65780639f36dde0146106de578063a217fddf146106f157600080fd5b80638f18af9a1461069557806391d14854146106a857806395d608a2146106bb57600080fd5b80638698a9bd116101b85780638698a9bd1461066157806389bff77f146106745780638ac89fc21461067c5780638da5cb5b1461068457600080fd5b806378c225ce1461061b5780637fe4a6981461063b578063801341a61461064e57600080fd5b80634fd39bee116102b85780636725684f1161025657806372d004cf1161023057806372d004cf146105e257806374d57cef146105ed57806375829def146105f557806376239a671461060857600080fd5b80636725684f1461059c5780636eb5e43c146105c7578063715018a6146105da57600080fd5b80635a7fdf16116102925780635a7fdf16146105385780635b7c11371461054b5780636094ee2b1461055e578063653645ff1461058957600080fd5b80634fd39bee146104f257806350d16a29146105055780635645d8771461051857600080fd5b806320981df4116103255780632f2ff15d116102ff5780632f2ff15d1461049957806331021f47146104ac57806336568abe146104b4578063478222c2146104c757600080fd5b806320981df41461045b578063248a9ca31461046e57806327d3fbf31461049157600080fd5b80630ab51bac116103615780630ab51bac146103e55780631131cf86146103ee5780631d36a50e146103f65780631e34c5851461044857600080fd5b806298fa221461038757806301ffc9a7146103ad578063054aaca1146103d0575b600080fd5b61039a61039536600461353b565b610830565b6040519081526020015b60405180910390f35b6103c06103bb366004613554565b610851565b60405190151581526020016103a4565b6103e36103de366004613593565b610888565b005b61039a600c5481565b61039a610a92565b6104336104043660046135c8565b6001600160a01b0316600090815260096020908152604080832060018452909152808220548280529120549091565b604080519283526020830191909152016103a4565b6103e36104563660046135e5565b610ab8565b61039a610469366004613615565b610add565b61039a61047c36600461353b565b60009081526020819052604090206001015490565b61039a610b5e565b6103e36104a736600461364e565b610b69565b61039a610b93565b6103e36104c236600461364e565b610b9e565b6003546104da906001600160a01b031681565b6040516001600160a01b0390911681526020016103a4565b6103e361050036600461353b565b610c18565b6103e361051336600461353b565b610c3e565b61039a6105263660046135c8565b60056020526000908152604090205481565b6103e361054636600461353b565b610c5f565b6103e36105593660046135c8565b610c80565b61039a61056c366004613615565b600960209081526000928352604080842090915290825290205481565b6103e361059736600461353b565b610cb9565b61039a6105aa366004613615565b600b60209081526000928352604080842090915290825290205481565b6103e36105d536600461381e565b610daf565b6103e3610fdb565b61039a6305f5e10081565b61039a610fef565b6103e36106033660046135c8565b610ffa565b6103e3610616366004613882565b611024565b61039a6106293660046135c8565b60086020526000908152604090205481565b6103e36106493660046135c8565b6113b4565b6103e361065c36600461353b565b6113de565b6103e361066f3660046138dc565b6113ff565b61039a611465565b61039a61146f565b6001546001600160a01b03166104da565b61039a6106a3366004613911565b61147a565b6103c06106b636600461364e565b61150b565b61039a611534565b6103e36106d1366004613882565b61153f565b61039a611701565b6103e36106ec36600461353b565b61170c565b61039a600081565b61039a6107073660046135c8565b6001600160a01b03166000908152600a602052604090205490565b6103e361073036600461353b565b61176d565b61039a61178e565b6103e361074b3660046135e5565b611930565b61039a6119b4565b6004546104da906001600160a01b031681565b6103e36107793660046135c8565b6119bf565b6103e361078c366004613593565b611c1f565b61039a61079f3660046135c8565b60076020526000908152604090205481565b6103e36107bf36600461364e565b611c57565b6103e36107d236600461395b565b611c7c565b6103e36107e536600461353b565b611d2f565b6103e36107f836600461353b565b611d50565b6103e361080b3660046135c8565b611d71565b61039a61081e3660046135c8565b600a6020526000908152604090205481565b6006818154811061084057600080fd5b600091825260209091200154905081565b60006001600160e01b03198216637965db0b60e01b148061088257506301ffc9a760e01b6001600160e01b03198316145b92915050565b600c5460008190036109685760048054604080516334df110760e21b815290516001600160a01b039092169263d37c441c9282820192602092908290030181865afa1580156108db573d6000803e3d6000fd5b505050506040513d601f19601f820116820180604052508101906108ff9190613987565b6001600160a01b0316636dc7b0a16040518163ffffffff1660e01b8152600401602060405180830381865afa15801561093c573d6000803e3d6000fd5b505050506040513d601f19601f8201168201806040525081019061096091906139a4565b600c81905590505b6000806109788686864287611de7565b91509150600061099e87878786602001518660a0015161099891906139d3565b88611de7565b915050600080826101a0015112156109eb576109c7826101a001516109c2906139e6565b611e65565b6040516020016109d79190613a26565b6040516020818303038152906040526109f9565b6109f9826101a00151611e65565b90506000808361018001511215610a4057610a1c8361018001516109c2906139e6565b604051602001610a2c9190613a26565b604051602081830303815290604052610a4e565b610a4e836101800151611e65565b90508181604051602001610a63929190613a4f565b60408051601f198184030181529082905262461bcd60e51b8252610a8991600401613a9f565b60405180910390fd5b60006006805b81548110610aa857610aa8613ad2565b9060005260206000200154905090565b610acf60008051602061410a833981519152611ef8565b610ad98282611f02565b5050565b6003546040516001624c409d60e01b031981526001600160a01b0384811660048301528315156024830152600092169063ffb3bf6390604401602060405180830381865afa158015610b33573d6000803e3d6000fd5b505050506040513d601f19601f82011682018060405250810190610b5791906139a4565b9392505050565b600060066007610a98565b600082815260208190526040902060010154610b8481611ef8565b610b8e8383611f8c565b505050565b600060066004610a98565b6001600160a01b0381163314610c0e5760405162461bcd60e51b815260206004820152602f60248201527f416363657373436f6e74726f6c3a2063616e206f6e6c792072656e6f756e636560448201526e103937b632b9903337b91039b2b63360891b6064820152608401610a89565b610ad98282612010565b610c2f60008051602061410a833981519152611ef8565b610c3b60035b82611f02565b50565b610c5560008051602061410a833981519152611ef8565b610c3b6001610c35565b610c7660008051602061410a833981519152611ef8565b610c3b6008610c35565b610c9760008051602061410a833981519152611ef8565b600480546001600160a01b0319166001600160a01b0392909216919091179055565b610cd060008051602061410a833981519152611ef8565b80600003610daa5760048054604080516334df110760e21b815290516001600160a01b039092169263d37c441c9282820192602092908290030181865afa158015610d1f573d6000803e3d6000fd5b505050506040513d601f19601f82011682018060405250810190610d439190613987565b6001600160a01b0316636dc7b0a16040518163ffffffff1660e01b8152600401602060405180830381865afa158015610d80573d6000803e3d6000fd5b505050506040513d601f19601f82011682018060405250810190610da491906139a4565b600c5550565b600c55565b610dc660008051602061410a833981519152611ef8565b8051825114610e095760405162461bcd60e51b815260206004820152600f60248201526e0dad2e6dac2e8c6d040d8cadccee8d608b1b6044820152606401610a89565b60005b8151811015610b8e57828181518110610e2757610e27613ad2565b602002602001015160086000848481518110610e4557610e45613ad2565b60200260200101516001600160a01b03166001600160a01b0316815260200190815260200160002081905550600360009054906101000a90046001600160a01b03166001600160a01b031663b21bf2d3838381518110610ea757610ea7613ad2565b6020026020010151600080600080898881518110610ec757610ec7613ad2565b60209081029190910101516040516001600160e01b031960e089901b1681526001600160a01b039096166004870152602486019490945260448501929092526064840152608483015260a482015260c401600060405180830381600087803b158015610f3257600080fd5b505af1158015610f46573d6000803e3d6000fd5b505050507f4d67f7d80a18414610613bcd82c005df45389ac7808cbd04b6ea464d60a3eb12828281518110610f7d57610f7d613ad2565b6020026020010151848381518110610f9757610f97613ad2565b6020026020010151604051610fc19291906001600160a01b03929092168252602082015260400190565b60405180910390a180610fd381613ae8565b915050610e0c565b610fe3612075565b610fed60006120cf565b565b600060066003610a98565b600061100581611ef8565b611010600083612121565b611019826120cf565b610ad9600033612010565b61103b60008051602061410a833981519152611ef8565b805182511461107d5760405162461bcd60e51b815260206004820152600e60248201526d696e76616c696420706172616d7360901b6044820152606401610a89565b600042815b84518110156113ad5760006001600160a01b03168582815181106110a8576110a8613ad2565b60200260200101516001600160a01b0316036110c357600080fd5b6110cb610a92565b8482815181106110dd576110dd613ad2565b602002602001015110156110f057600080fd5b6110f8610a92565b611100610a92565b85838151811061111257611112613ad2565b60200260200101516111249190613b17565b61112e9190613b2b565b925082610e101480611141575082611c20145b8061114d575082613840145b80611159575082617080145b1561134357600061116c61708084613b17565b61117890617080613b2b565b6111829084613b42565b905060006005600088858151811061119c5761119c613ad2565b60200260200101516001600160a01b03166001600160a01b0316815260200190815260200160002054905060008582116111d657816111d8565b855b90508083106112305761120c8885815181106111f6576111f6613ad2565b60200260200101516001600160a01b031661212b565b61121587611e65565b61121e83611e65565b604051602001610a6393929190613b55565b87848151811061124257611242613ad2565b60200260200101516001600160a01b0316633f70d4426040518163ffffffff1660e01b8152600401600060405180830381600087803b15801561128457600080fd5b505af1158015611298573d6000803e3d6000fd5b5050505085600560008a87815181106112b3576112b3613ad2565b60200260200101516001600160a01b03166001600160a01b03168152602001908152602001600020819055508784815181106112f1576112f1613ad2565b60200260200101516001600160a01b03167f014f9b627a46d0881111664e681522272907a49b31cc3f24613bdad2c551825c8760405161133391815260200190565b60405180910390a250505061139b565b60405162461bcd60e51b815260206004820152602760248201527f696e74657276616c2063616e206265206f6e6c79205b312c20322c20342c20386044820152665d20686f75727360c81b6064820152608401610a89565b806113a581613ae8565b915050611082565b5050505050565b7f8d1089725c0dc266707fa6207730fb801dcd03108bfed7a21099bd303651d2b761038281611ef8565b6113f560008051602061410a833981519152611ef8565b610c3b6009610c35565b61141660008051602061410a833981519152611ef8565b600a81511461142457600080fd5b60005b8151811015610ad9576114538183838151811061144657611446613ad2565b6020026020010151611f02565b8061145d81613ae8565b915050611427565b6000600681610a98565b600060066001610a98565b6003546040516334f32e2560e01b81526001600160a01b038681166004830152831515602483015260009283929116906334f32e2590604401602060405180830381865afa1580156114d0573d6000803e3d6000fd5b505050506040513d601f19601f820116820180604052508101906114f491906139a4565b9050611501858583612141565b9695505050505050565b6000918252602082815260408084206001600160a01b0393909316845291905290205460ff1690565b600060066002610a98565b61155660008051602061410a833981519152611ef8565b80518251146115985760405162461bcd60e51b815260206004820152600e60248201526d696e76616c696420706172616d7360901b6044820152606401610a89565b6000805b83518110156116fb5760006001600160a01b03168482815181106115c2576115c2613ad2565b60200260200101516001600160a01b0316036115dd57600080fd5b6115e5610a92565b8382815181106115f7576115f7613ad2565b6020026020010151101561160a57600080fd5b611612610a92565b61161a610a92565b84838151811061162c5761162c613ad2565b602002602001015161163e9190613b17565b6116489190613b2b565b9150816007600086848151811061166157611661613ad2565b60200260200101516001600160a01b03166001600160a01b031681526020019081526020016000208190555083818151811061169f5761169f613ad2565b60200260200101516001600160a01b03167f1b8e6b844a5201ce0d37b6d92b871ff8ee5aede9e47593abc68ce8b2d1d25b88836040516116e191815260200190565b60405180910390a2806116f381613ae8565b91505061159c565b50505050565b600060066008610a98565b61172360008051602061410a833981519152611ef8565b600081116117635760405162461bcd60e51b815260206004820152600d60248201526c1a5b9d985b1a59081b1a5b5a5d609a1b6044820152606401610a89565b610c3b6004610c35565b61178460008051602061410a833981519152611ef8565b610c3b6002610c35565b6004805460408051637616480b60e11b815290516000936001600160a01b03909316928492849263ec2c90169282810192869291908290030181865afa1580156117dc573d6000803e3d6000fd5b505050506040513d6000823e601f3d908101601f191682016040526118049190810190613c36565b905060005b815181101561192a57826001600160a01b031663d37c441c6040518163ffffffff1660e01b8152600401602060405180830381865afa158015611850573d6000803e3d6000fd5b505050506040513d601f19601f820116820180604052508101906118749190613987565b6001600160a01b0316632b8a001283838151811061189457611894613ad2565b6020026020010151602001516040518263ffffffff1660e01b81526004016118cb91906001600160a01b0391909116815260200190565b602060405180830381865afa1580156118e8573d6000803e3d6000fd5b505050506040513d601f19601f8201168201806040525081019061190c91906139a4565b61191690856139d3565b93508061192281613ae8565b915050611809565b50505090565b61194760008051602061410a833981519152611ef8565b6119518282613b42565b600660008154811061196557611965613ad2565b90600052602060002001600082825461197e91906139d3565b9091555050604051819083907fbb67e50fdd1f174a20c4f1e0e5b9ab3984685f30623b89b69ba068a11ce913b690600090a35050565b600060066009610a98565b600154600160a81b900460ff16158080156119e5575060018054600160a01b900460ff16105b80611a055750303b158015611a05575060018054600160a01b900460ff16145b611a685760405162461bcd60e51b815260206004820152602e60248201527f496e697469616c697a61626c653a20636f6e747261637420697320616c72656160448201526d191e481a5b9a5d1a585b1a5e995960921b6064820152608401610a89565b6001805460ff60a01b1916600160a01b1790558015611a95576001805460ff60a81b1916600160a81b1790555b6001600160a01b038216611ade5760405162461bcd60e51b815260206004820152601060248201526f1a5b9d985b1a590819995955985d5b1d60821b6044820152606401610a89565b611ae73361216e565b6040805160c8808252611920820190925290602082016119008036833750508151611b19926006925060200190613424565b506305f5e1006006600181548110611b3357611b33613ad2565b6000918252602090912001556305f5e1006006600281548110611b5857611b58613ad2565b6000918252602090912001556104e26006600481548110611b7b57611b7b613ad2565b600091825260209091200155600380546001600160a01b0319166001600160a01b038416179055611bba60008051602061410a83398151915233611f8c565b611bc76006610e10611f02565b611bd5600962989680611f02565b8015610ad9576001805460ff60a81b191681556040519081527f7f26b83ff96e1f2b6a682f133852f6798a09c465da95921460cefb38474024989060200160405180910390a15050565b611c487fcb58d6d985142a614029cdf01861b4fe094d5919a47e69b8310dc4093d9d6ad0611ef8565b6113ad83838342600c54611de7565b600082815260208190526040902060010154611c7281611ef8565b610b8e8383612010565b611ca57fcb58d6d985142a614029cdf01861b4fe094d5919a47e69b8310dc4093d9d6ad0611ef8565b6001600160a01b0382166000908152600a60205260408120805491839190611ccd83856139d3565b90915550506001600160a01b0383166000818152600a60209081526040918290205482518681529182018590528183015290517ff92e4260a5a0861b750596d87de06d7f097df50397fa2af2d7d33d9c6d8674589181900360600190a2505050565b611d4660008051602061410a833981519152611ef8565b610c3b6007610c35565b611d6760008051602061410a833981519152611ef8565b610c3b6006610c35565b611d79612075565b6001600160a01b038116611dde5760405162461bcd60e51b815260206004820152602660248201527f4f776e61626c653a206e6577206f776e657220697320746865207a65726f206160448201526564647265737360d01b6064820152608401610a89565b610c3b816120cf565b611def61346b565b611df76134b7565b611e0387878786612191565b9150600080600080611e278a8a8a89611e1a611701565b611e226119b4565b6122c1565b93509350935093508015611e4057611e4083838d612575565b608084015115611e5557611e5586858d612714565b5091925050509550959350505050565b60606000611e72836127a9565b600101905060008167ffffffffffffffff811115611e9257611e92613673565b6040519080825280601f01601f191660200182016040528015611ebc576020820181803683370190505b5090508181016020015b600019016f181899199a1a9b1b9c1cb0b131b232b360811b600a86061a8153600a8504945084611ec657509392505050565b610c3b8133612881565b600060068381548110611f1757611f17613ad2565b906000526020600020015490508160068481548110611f3857611f38613ad2565b600091825260209182902001919091556040805185815291820183905281018390527f7ee20b53ffb80d74dc08be0adedf33c8fa93e5b44eb347a27eedd30c3d6bc35c9060600160405180910390a1505050565b611f96828261150b565b610ad9576000828152602081815260408083206001600160a01b03851684529091529020805460ff19166001179055611fcc3390565b6001600160a01b0316816001600160a01b0316837f2f8788117e7eff1d82e926ec794901d17c78024a50270940304540a733656f0d60405160405180910390a45050565b61201a828261150b565b15610ad9576000828152602081815260408083206001600160a01b0385168085529252808320805460ff1916905551339285917ff6391f5c32d9c69d2a47ea670b442974b53935d1edc7fd64eb21e047a839171b9190a45050565b6001546001600160a01b03163314610fed5760405162461bcd60e51b815260206004820181905260248201527f4f776e61626c653a2063616c6c6572206973206e6f7420746865206f776e65726044820152606401610a89565b600180546001600160a01b038381166001600160a01b0319831681179093556040519116919082907f8be0079c531659141344cd1fd0a4f28419497f9722a3daafe3b4186f6b6457e090600090a35050565b610ad98282611f8c565b60606108826001600160a01b03831660146128b4565b60006305f5e1006121528484613dab565b61215c9086613dd2565b6121669190613e02565b949350505050565b4260025561217b336120cf565b612186600033612121565b610c3b600082612121565b61219961346b565b6001600160a01b03851660008181526007602090815260408083205485528383526005825280832054858301529282526008905281902054908201526121de85612a50565b60608201526001600160a01b0385166000818152600a602090815260408083205461010086015292825260098152828220600183528082528383205460e08601528280529052205460c0820152600680546122af918691869190600390811061224957612249613ad2565b60009182526020909120015460068054600490811061226a5761226a613ad2565b906000526020600020015461227f8a88612abf565b61228a8b8b8b612af5565b60068054600790811061229f5761229f613ad2565b9060005260206000200154612b12565b608083015260a0820152949350505050565b6122c96134b7565b6122d161346b565b6122d96134b7565b60006122e487612b5f565b93506122f187858a612baa565b905080156124d5576123038785612c11565b1561231f576123128785612c45565b61231f848b8b8989612cd8565b61232a878986612d7f565b15612369576123398785612db2565b60005b846060015181101561236757612355858c8c8a8a612cd8565b8061235f81613ae8565b91505061233c565b505b8360405160200161240b9190815181526020808301519082015260408083015190820152606080830151908201526080808301519082015260a0808301519082015260c0808301519082015260e08083015190820152610100808301519082015261012080830151908201526101408083015190820152610160808301519082015261018080830151908201526101a091820151918101919091526101c00190565b60405160208183030381529060405280602001905181019061242d9190613e30565b9150866040516020016124a09190600061012082019050825182526020830151602083015260408301516040830152606083015160608301526080830151608083015260a083015160a083015260c083015160c083015260e083015160e083015261010080840151818401525092915050565b6040516020818303038152906040528060200190518101906124c29190613ee7565b6000610120860181905261010086015292505b6124e0878986612e0e565b1561256857608084015187516124f69190613b2b565b8460a00181815161250791906139d3565b905250608084015160a08801516125269161252191613b2b565b612e51565b84610120018181516125389190613f62565b905250608080850151908801516125529161252191613b2b565b84610100018181516125649190613f62565b9052505b9650965096509692505050565b61259581836000015185610100015161258e9190613b42565b8451612ebf565b6003546101408301516101608401516101a085015161018086015160a087015160405163b21bf2d360e01b81526001600160a01b038881166004830152602482019690965260448101949094526064840192909252608483015260a482015291169063b21bf2d39060c401600060405180830381600087803b15801561261a57600080fd5b505af115801561262e573d6000803e3d6000fd5b50505050612640818360a00151612f38565b60048054604080516334df110760e21b815290516001600160a01b039092169263d37c441c9282820192602092908290030181865afa158015612687573d6000803e3d6000fd5b505050506040513d601f19601f820116820180604052508101906126ab9190613987565b6001600160a01b0316636dc7b0a16040518163ffffffff1660e01b8152600401602060405180830381865afa1580156126e8573d6000803e3d6000fd5b505050506040513d601f19601f8201168201806040525081019061270c91906139a4565b600c55505050565b60a0830180516001600160a01b0383166000818152600b6020908152604080832060018452825280832094909455608088018051838052928590209290925593519051835191825293810193909352917f8bfe8b5c73740b3875e694ce9425829dc01970e61b7edbe2b3c2d379328bab72910160405180910390a2610b8e818361012001518461010001518560a00151612ff3565b60008072184f03e93ff9f4daa797ed6e38ed64bf6a1f0160401b83106127e85772184f03e93ff9f4daa797ed6e38ed64bf6a1f0160401b830492506040015b6d04ee2d6d415b85acef81000000008310612814576d04ee2d6d415b85acef8100000000830492506020015b662386f26fc10000831061283257662386f26fc10000830492506010015b6305f5e100831061284a576305f5e100830492506008015b612710831061285e57612710830492506004015b60648310612870576064830492506002015b600a83106108825760010192915050565b61288b828261150b565b610ad9576128988161212b565b6128a38360206128b4565b604051602001610a63929190613f8a565b606060006128c3836002613b2b565b6128ce9060026139d3565b67ffffffffffffffff8111156128e6576128e6613673565b6040519080825280601f01601f191660200182016040528015612910576020820181803683370190505b509050600360fc1b8160008151811061292b5761292b613ad2565b60200101906001600160f81b031916908160001a905350600f60fb1b8160018151811061295a5761295a613ad2565b60200101906001600160f81b031916908160001a905350600061297e846002613b2b565b6129899060016139d3565b90505b6001811115612a01576f181899199a1a9b1b9c1cb0b131b232b360811b85600f16601081106129bd576129bd613ad2565b1a60f81b8282815181106129d3576129d3613ad2565b60200101906001600160f81b031916908160001a90535060049490941c936129fa81613fff565b905061298c565b508315610b575760405162461bcd60e51b815260206004820181905260248201527f537472696e67733a20686578206c656e67746820696e73756666696369656e746044820152606401610a89565b60035460405163d8f897c360e01b81526001600160a01b038381166004830152600092169063d8f897c390602401602060405180830381865afa158015612a9b573d6000803e3d6000fd5b505050506040513d601f19601f8201168201806040525081019061088291906139a4565b600080612aca61178e565b90506000612ad7856130b0565b9050612aec8285612ae661146f565b846130bd565b95945050505050565b60006121668383612b05876130b0565b612b0d611534565b613113565b6000808615612b215786612b23565b845b965086841115612b31578693505b85841015612b3d578593505b87891015612b4c578284612b4f565b83835b9150915097509795505050505050565b612b676134b7565b81516020830151612b789190613b17565b602082015260e082015161012082015260c082015161010080830191909152604083015160a083015290910151815290565b60008260a00151600003612bde576020840151612bc78184613b17565b612bd19190613b2b565b60a0840152506001610b57565b8260a00151821015612bf257506000610b57565b8184602001518560600151612c0791906139d3565b1115949350505050565b81516060830151604084015160009291612c2a91613b42565b612c349190613b17565b604083018190521515905092915050565b81602001518260600151612c5991906139d3565b60a082015260408101516020820151612c8491612c7591613b42565b8360a001516125219190613b2b565b8260e00151612c939190613f62565b61012082015260408101516020820151612cbf91612cb091613b42565b83608001516125219190613b2b565b8260c00151612cce9190613f62565b6101009091015250565b6000612cef866101200151876101000151856131c4565b9050612d0e86610120015187610100015183858a600001518a8a6131e4565b60c089015261016088015261014087018190526101a087018051612d33908390613f62565b90525061016086015161018087018051612d4e908390613f62565b90525060c0860151865111612d64576000612d75565b60c08601518651612d759190613b42565b9095525050505050565b600083602001518260a0015184612d969190613b42565b612da09190613b17565b60608301819052151590509392505050565b80606001518260200151612dc69190613b2b565b8160a001818151612dd791906139d3565b905250602081015160a0830151612df19161252191613b2b565b61012082015260208101516080830151612cce9161252191613b2b565b60008160a00151831015612e2457506000610b57565b835160a0830151612e359085613b42565b612e3f9190613b17565b60808301819052151590509392505050565b60006001600160ff1b03821115612ebb5760405162461bcd60e51b815260206004820152602860248201527f53616665436173743a2076616c756520646f65736e27742066697420696e2061604482015267371034b73a191a9b60c11b6064820152608401610a89565b5090565b6001600160a01b0383166000818152600a6020908152604091829020548251868152918201529081018390527f46688c57894e3513fd67b19c1f09ffe6b4a24062d8d29e580ba554fe4384c0e09060600160405180910390a26001600160a01b039092166000908152600a602052604090209190915550565b6001600160a01b0382166000818152600960209081526040808320600184528252808320839055828052808320839055838352600882528083208590558051838152918201929092527f18c1e75c2355914e05f0e3d65be88099e2489e17f7a307d0adc3a22239b4667f910160405180910390a2816001600160a01b03167f5e6f1d9aee6db6f0c00c16081ad195c05424762f100ab07c4fdbe9fde1d42a6c82604051612fe791815260200190565b60405180910390a25050565b6001600160a01b0384166000818152600960209081526040808320600184528252808320879055828052808320869055838352600882529182902084905581518681529081018590527f18c1e75c2355914e05f0e3d65be88099e2489e17f7a307d0adc3a22239b4667f910160405180910390a2836001600160a01b03167f5e6f1d9aee6db6f0c00c16081ad195c05424762f100ab07c4fdbe9fde1d42a6c826040516130a291815260200190565b60405180910390a250505050565b600061088282600761330e565b600080610e106305f5e10060188782886130d7898d613b2b565b6130e19190613b2b565b6130eb9190613b2b565b6130f59190613b17565b6130ff9190613b17565b6131099190613b17565b6115019190613b17565b6000806131208686613338565b90506000811561150157600061313687896139d3565b9050806131476305f5e10085613b2b565b6131519190613b17565b9150610e10601860646305f5e1008961316b6002886140fa565b6131759190613b2b565b61317f9190613b17565b6131899190613b17565b6131939190613b17565b61319d9190613b17565b91506305f5e1006131ae8684613b2b565b6131b89190613b17565b98975050505050505050565b60006131d86131d3858561335c565b613379565b905061216681836133cb565b6000806000806000861180156131fa5750600085115b9050898b126132845761320f868a8a8a6133e1565b915061321a89612e51565b9350801561327f5761322b85612e51565b6132386305f5e100612e51565b61324184612e51565b61324b9190613dd2565b8561325589612e51565b61325f9190613dd2565b6132699190613dab565b613272906139e6565b61327c9190613e02565b92505b613300565b613290858a8a8a6133e1565b915061329b89612e51565b92508015613300576132ac86612e51565b6132b96305f5e100612e51565b6132c284612e51565b6132cc9190613dd2565b846132d688612e51565b6132e09190613dd2565b6132ea9190613dab565b6132f3906139e6565b6132fd9190613e02565b93505b509750975097945050505050565b6001600160a01b038216600090815260208290526040812054908190036108825750610e10610882565b60008183106133525761334b8284613b42565b9050610882565b61334b8383613b42565b600081831261336f5761334b8284613dab565b61334b8383613dab565b600080821215612ebb5760405162461bcd60e51b815260206004820181905260248201527f53616665436173743a2076616c7565206d75737420626520706f7369746976656044820152606401610a89565b60008183116133da5781610b57565b5090919050565b6000612aec6133f560026305f5e1006140fa565b846134008789613b2b565b61340a9190613b2b565b6134149190613b17565b8360008183106133da5781610b57565b82805482825590600052602060002090810192821561345f579160200282015b8281111561345f578251825591602001919060010190613444565b50612ebb929150613526565b6040518061012001604052806000815260200160008152602001600081526020016000815260200160008152602001600081526020016000815260200160008152602001600081525090565b604051806101c0016040528060008152602001600081526020016000815260200160008152602001600081526020016000815260200160008152602001600081526020016000815260200160008152602001600081526020016000815260200160008152602001600081525090565b5b80821115612ebb5760008155600101613527565b60006020828403121561354d57600080fd5b5035919050565b60006020828403121561356657600080fd5b81356001600160e01b031981168114610b5757600080fd5b6001600160a01b0381168114610c3b57600080fd5b6000806000606084860312156135a857600080fd5b83356135b38161357e565b95602085013595506040909401359392505050565b6000602082840312156135da57600080fd5b8135610b578161357e565b600080604083850312156135f857600080fd5b50508035926020909101359150565b8015158114610c3b57600080fd5b6000806040838503121561362857600080fd5b82356136338161357e565b9150602083013561364381613607565b809150509250929050565b6000806040838503121561366157600080fd5b8235915060208301356136438161357e565b634e487b7160e01b600052604160045260246000fd5b60405160a0810167ffffffffffffffff811182821017156136ac576136ac613673565b60405290565b6040516101c0810167ffffffffffffffff811182821017156136ac576136ac613673565b604051610120810167ffffffffffffffff811182821017156136ac576136ac613673565b604051601f8201601f1916810167ffffffffffffffff8111828210171561372357613723613673565b604052919050565b600067ffffffffffffffff82111561374557613745613673565b5060051b60200190565b600082601f83011261376057600080fd5b813560206137756137708361372b565b6136fa565b82815260059290921b8401810191818101908684111561379457600080fd5b8286015b848110156137af5780358352918301918301613798565b509695505050505050565b600082601f8301126137cb57600080fd5b813560206137db6137708361372b565b82815260059290921b840181019181810190868411156137fa57600080fd5b8286015b848110156137af5780356138118161357e565b83529183019183016137fe565b6000806040838503121561383157600080fd5b823567ffffffffffffffff8082111561384957600080fd5b6138558683870161374f565b9350602085013591508082111561386b57600080fd5b50613878858286016137ba565b9150509250929050565b6000806040838503121561389557600080fd5b823567ffffffffffffffff808211156138ad57600080fd5b6138b9868387016137ba565b935060208501359150808211156138cf57600080fd5b506138788582860161374f565b6000602082840312156138ee57600080fd5b813567ffffffffffffffff81111561390557600080fd5b6121668482850161374f565b6000806000806080858703121561392757600080fd5b84356139328161357e565b93506020850135925060408501359150606085013561395081613607565b939692955090935050565b6000806040838503121561396e57600080fd5b82356139798161357e565b946020939093013593505050565b60006020828403121561399957600080fd5b8151610b578161357e565b6000602082840312156139b657600080fd5b5051919050565b634e487b7160e01b600052601160045260246000fd5b80820180821115610882576108826139bd565b6000600160ff1b82016139fb576139fb6139bd565b5060000390565b60005b83811015613a1d578181015183820152602001613a05565b50506000910152565b602d60f81b815260008251613a42816001850160208701613a02565b9190910160010192915050565b600061232360f01b8083528451613a6d816002860160208901613a02565b80840190508160028201528451613a8b816004840160208901613a02565b016004810191909152600601949350505050565b6020815260008251806020840152613abe816040850160208701613a02565b601f01601f19169190910160400192915050565b634e487b7160e01b600052603260045260246000fd5b600060018201613afa57613afa6139bd565b5060010190565b634e487b7160e01b600052601260045260246000fd5b600082613b2657613b26613b01565b500490565b8082028115828204841417610882576108826139bd565b81810381811115610882576108826139bd565b60008451613b67818460208901613a02565b7f277320696e74657276616c2063616e2062652073657420746f200000000000009083019081528451613ba181601a840160208901613a02565b7f2c20627574206f6e6c79206166746572205b382c2031362c2032345d206f2763601a92909101918201526f03637b1b59030b7321034b7103a3432960851b603a8201528351613bf881604a840160208801613a02565b68207365636f6e64732160b81b604a929091019182015260530195945050505050565b8051613c268161357e565b919050565b8051613c2681613607565b60006020808385031215613c4957600080fd5b825167ffffffffffffffff80821115613c6157600080fd5b818501915085601f830112613c7557600080fd5b8151613c836137708261372b565b81815260059190911b83018401908481019088831115613ca257600080fd5b8585015b83811015613d9e57805185811115613cbd57600080fd5b8601601f1960a0828d0382011215613cd55760008081fd5b613cdd613689565b8983015188811115613cef5760008081fd5b8301603f81018e13613d015760008081fd5b8a81015160408a821115613d1757613d17613673565b613d278d86601f850116016136fa565b94508185528f81838501011115613d3e5760008081fd5b613d4d828e8701838601613a02565b848452613d5b818701613c1b565b8d8501526060945084860151818501525050506080613d7b818501613c2b565b83830152613d8b60a08501613c2b565b9082015285525050918601918601613ca6565b5098975050505050505050565b8181036000831280158383131683831282161715613dcb57613dcb6139bd565b5092915050565b80820260008212600160ff1b84141615613dee57613dee6139bd565b8181058314821517610882576108826139bd565b600082613e1157613e11613b01565b600160ff1b821460001984141615613e2b57613e2b6139bd565b500590565b60006101c08284031215613e4357600080fd5b613e4b6136b2565b825181526020830151602082015260408301516040820152606083015160608201526080830151608082015260a083015160a082015260c083015160c082015260e083015160e08201526101008084015181830152506101208084015181830152506101408084015181830152506101608084015181830152506101808084015181830152506101a08084015181830152508091505092915050565b60006101208284031215613efa57600080fd5b613f026136d6565b825181526020830151602082015260408301516040820152606083015160608201526080830151608082015260a083015160a082015260c083015160c082015260e083015160e08201526101008084015181830152508091505092915050565b8082018281126000831280158216821582161715613f8257613f826139bd565b505092915050565b7f416363657373436f6e74726f6c3a206163636f756e7420000000000000000000815260008351613fc2816017850160208801613a02565b7001034b99036b4b9b9b4b733903937b6329607d1b6017918401918201528351613ff3816028840160208801613a02565b01602801949350505050565b60008161400e5761400e6139bd565b506000190190565b600181815b80851115614051578160001904821115614037576140376139bd565b8085161561404457918102915b93841c939080029061401b565b509250929050565b60008261406857506001610882565b8161407557506000610882565b816001811461408b5760028114614095576140b1565b6001915050610882565b60ff8411156140a6576140a66139bd565b50506001821b610882565b5060208310610133831016604e8410600b84101617156140d4575081810a610882565b6140de8383614016565b80600019048211156140f2576140f26139bd565b029392505050565b6000610b5760ff84168361405956fe241ecf16d79d0f8dbfb92cbc07fe17840425976cf0667f022fe9877caa831b08a26469706673582212208dc4888cc74021da2d01d022da66dfea42598aec6a244bdb30741b8ee4e475db64736f6c63430008110033",
  "linkReferences": {},
  "deployedLinkReferences": {}
}