{
  "_format": "hh-sol-artifact-1",
  "contractName": "FundFee",
  "sourceName": "contracts/fee/FundFee.sol",
  "abi": [
    {
      "anonymous": false,
      "inputs": [
        {
          "indexed": true,
          "internalType": "address",
          "name": "market",
          "type": "address"
        },
        {
          "indexed": false,
          "internalType": "uint256",
          "name": "amount",
          "type": "uint256"
        },
        {
          "indexed": false,
          "internalType": "uint256",
          "name": "lossBefore",
          "type": "uint256"
        },
        {
          "indexed": false,
          "internalType": "uint256",
          "name": "lossAfter",
          "type": "uint256"
        }
      ],
      "name": "AddNegativeFeeLoss",
      "type": "event"
    },
    {
      "anonymous": false,
      "inputs": [
        {
          "indexed": true,
          "internalType": "address",
          "name": "market",
          "type": "address"
        },
        {
          "indexed": false,
          "internalType": "uint256",
          "name": "deductAmount",
          "type": "uint256"
        },
        {
          "indexed": false,
          "internalType": "uint256",
          "name": "lossBefore",
          "type": "uint256"
        },
        {
          "indexed": false,
          "internalType": "uint256",
          "name": "lossAfter",
          "type": "uint256"
        }
      ],
      "name": "AddPositiveFeeLoss",
      "type": "event"
    },
    {
      "anonymous": false,
      "inputs": [
        {
          "indexed": true,
          "internalType": "uint256",
          "name": "startTime",
          "type": "uint256"
        },
        {
          "indexed": true,
          "internalType": "uint256",
          "name": "endTime",
          "type": "uint256"
        }
      ],
      "name": "AddSkipTime",
      "type": "event"
    },
    {
      "anonymous": false,
      "inputs": [
        {
          "indexed": false,
          "internalType": "uint8",
          "name": "version",
          "type": "uint8"
        }
      ],
      "name": "Initialized",
      "type": "event"
    },
    {
      "anonymous": false,
      "inputs": [
        {
          "indexed": false,
          "internalType": "address",
          "name": "market",
          "type": "address"
        },
        {
          "indexed": false,
          "internalType": "uint256",
          "name": "updatedAt",
          "type": "uint256"
        }
      ],
      "name": "SetUpdateAt",
      "type": "event"
    },
    {
      "anonymous": false,
      "inputs": [
        {
          "indexed": true,
          "internalType": "address",
          "name": "market",
          "type": "address"
        },
        {
          "indexed": false,
          "internalType": "int256",
          "name": "longRate",
          "type": "int256"
        },
        {
          "indexed": false,
          "internalType": "int256",
          "name": "shortRate",
          "type": "int256"
        }
      ],
      "name": "UpdateCalFundRates",
      "type": "event"
    },
    {
      "anonymous": false,
      "inputs": [
        {
          "indexed": true,
          "internalType": "address",
          "name": "market",
          "type": "address"
        },
        {
          "indexed": false,
          "internalType": "uint256",
          "name": "interval",
          "type": "uint256"
        }
      ],
      "name": "UpdateCalInterval",
      "type": "event"
    },
    {
      "anonymous": false,
      "inputs": [
        {
          "indexed": false,
          "internalType": "uint256",
          "name": "index",
          "type": "uint256"
        },
        {
          "indexed": false,
          "internalType": "uint256",
          "name": "oldFRate",
          "type": "uint256"
        },
        {
          "indexed": false,
          "internalType": "uint256",
          "name": "newFRate",
          "type": "uint256"
        }
      ],
      "name": "UpdateConfig",
      "type": "event"
    },
    {
      "anonymous": false,
      "inputs": [
        {
          "indexed": true,
          "internalType": "address",
          "name": "market",
          "type": "address"
        },
        {
          "indexed": false,
          "internalType": "uint256",
          "name": "interval",
          "type": "uint256"
        }
      ],
      "name": "UpdateFundInterval",
      "type": "event"
    },
    {
      "anonymous": false,
      "inputs": [
        {
          "indexed": true,
          "internalType": "address",
          "name": "market",
          "type": "address"
        },
        {
          "indexed": false,
          "internalType": "uint256",
          "name": "longRate",
          "type": "uint256"
        },
        {
          "indexed": false,
          "internalType": "uint256",
          "name": "shortRate",
          "type": "uint256"
        }
      ],
      "name": "UpdateLastCalRate",
      "type": "event"
    },
    {
      "anonymous": false,
      "inputs": [
        {
          "indexed": true,
          "internalType": "address",
          "name": "market",
          "type": "address"
        },
        {
          "indexed": false,
          "internalType": "uint256",
          "name": "timestamp",
          "type": "uint256"
        }
      ],
      "name": "UpdateLastCalTime",
      "type": "event"
    },
    {
      "inputs": [],
      "name": "DEFAULT_ADMIN_ROLE",
      "outputs": [
        {
          "internalType": "bytes32",
          "name": "",
          "type": "bytes32"
        }
      ],
      "stateMutability": "view",
      "type": "function"
    },
    {
      "inputs": [],
      "name": "FEERATEPRECISION",
      "outputs": [
        {
          "internalType": "uint256",
          "name": "",
          "type": "uint256"
        }
      ],
      "stateMutability": "view",
      "type": "function"
    },
    {
      "inputs": [
        {
          "internalType": "address",
          "name": "newOwner",
          "type": "address"
        }
      ],
      "name": "_transferOwnership",
      "outputs": [],
      "stateMutability": "pure",
      "type": "function"
    },
    {
      "inputs": [
        {
          "internalType": "address",
          "name": "market",
          "type": "address"
        },
        {
          "internalType": "uint256",
          "name": "a",
          "type": "uint256"
        }
      ],
      "name": "addFeeLoss",
      "outputs": [],
      "stateMutability": "nonpayable",
      "type": "function"
    },
    {
      "inputs": [
        {
          "internalType": "uint256",
          "name": "start",
          "type": "uint256"
        },
        {
          "internalType": "uint256",
          "name": "end",
          "type": "uint256"
        }
      ],
      "name": "addSkipTime",
      "outputs": [],
      "stateMutability": "nonpayable",
      "type": "function"
    },
    {
      "inputs": [
        {
          "internalType": "address",
          "name": "",
          "type": "address"
        },
        {
          "internalType": "bool",
          "name": "",
          "type": "bool"
        }
      ],
      "name": "calFundingRates",
      "outputs": [
        {
          "internalType": "int256",
          "name": "",
          "type": "int256"
        }
      ],
      "stateMutability": "view",
      "type": "function"
    },
    {
      "inputs": [
        {
          "internalType": "address",
          "name": "",
          "type": "address"
        }
      ],
      "name": "calIntervals",
      "outputs": [
        {
          "internalType": "uint256",
          "name": "",
          "type": "uint256"
        }
      ],
      "stateMutability": "view",
      "type": "function"
    },
    {
      "inputs": [
        {
          "internalType": "uint256",
          "name": "",
          "type": "uint256"
        }
      ],
      "name": "configs",
      "outputs": [
        {
          "internalType": "uint256",
          "name": "",
          "type": "uint256"
        }
      ],
      "stateMutability": "view",
      "type": "function"
    },
    {
      "inputs": [],
      "name": "fRateFactor",
      "outputs": [
        {
          "internalType": "uint256",
          "name": "",
          "type": "uint256"
        }
      ],
      "stateMutability": "view",
      "type": "function"
    },
    {
      "inputs": [],
      "name": "feeVault",
      "outputs": [
        {
          "internalType": "address",
          "name": "",
          "type": "address"
        }
      ],
      "stateMutability": "view",
      "type": "function"
    },
    {
      "inputs": [
        {
          "internalType": "address",
          "name": "",
          "type": "address"
        }
      ],
      "name": "fundFeeLoss",
      "outputs": [
        {
          "internalType": "uint256",
          "name": "",
          "type": "uint256"
        }
      ],
      "stateMutability": "view",
      "type": "function"
    },
    {
      "inputs": [
        {
          "internalType": "address",
          "name": "market",
          "type": "address"
        }
      ],
      "name": "fundingFeeLoss",
      "outputs": [
        {
          "internalType": "uint256",
          "name": "",
          "type": "uint256"
        }
      ],
      "stateMutability": "view",
      "type": "function"
    },
    {
      "inputs": [],
      "name": "fundingFeeLossOffLimit",
      "outputs": [
        {
          "internalType": "uint256",
          "name": "",
          "type": "uint256"
        }
      ],
      "stateMutability": "view",
      "type": "function"
    },
    {
      "inputs": [
        {
          "internalType": "address",
          "name": "",
          "type": "address"
        }
      ],
      "name": "fundingIntervals",
      "outputs": [
        {
          "internalType": "uint256",
          "name": "",
          "type": "uint256"
        }
      ],
      "stateMutability": "view",
      "type": "function"
    },
    {
      "inputs": [
        {
          "internalType": "address",
          "name": "market",
          "type": "address"
        }
      ],
      "name": "getCalFundingRates",
      "outputs": [
        {
          "internalType": "int256",
          "name": "",
          "type": "int256"
        },
        {
          "internalType": "int256",
          "name": "",
          "type": "int256"
        }
      ],
      "stateMutability": "view",
      "type": "function"
    },
    {
      "inputs": [
        {
          "internalType": "address",
          "name": "market",
          "type": "address"
        },
        {
          "internalType": "uint256",
          "name": "size",
          "type": "uint256"
        },
        {
          "internalType": "int256",
          "name": "entryFundingRate",
          "type": "int256"
        },
        {
          "internalType": "bool",
          "name": "isLong",
          "type": "bool"
        }
      ],
      "name": "getFundingFee",
      "outputs": [
        {
          "internalType": "int256",
          "name": "",
          "type": "int256"
        }
      ],
      "stateMutability": "view",
      "type": "function"
    },
    {
      "inputs": [
        {
          "internalType": "address",
          "name": "market",
          "type": "address"
        },
        {
          "internalType": "bool",
          "name": "isLong",
          "type": "bool"
        }
      ],
      "name": "getFundingRate",
      "outputs": [
        {
          "internalType": "int256",
          "name": "",
          "type": "int256"
        }
      ],
      "stateMutability": "view",
      "type": "function"
    },
    {
      "inputs": [],
      "name": "getGlobalOpenInterest",
      "outputs": [
        {
          "internalType": "uint256",
          "name": "_globalSize",
          "type": "uint256"
        }
      ],
      "stateMutability": "view",
      "type": "function"
    },
    {
      "inputs": [
        {
          "internalType": "address",
          "name": "market",
          "type": "address"
        },
        {
          "internalType": "uint256",
          "name": "longSize",
          "type": "uint256"
        },
        {
          "internalType": "uint256",
          "name": "shortSize",
          "type": "uint256"
        }
      ],
      "name": "getNextFundingRate",
      "outputs": [],
      "stateMutability": "nonpayable",
      "type": "function"
    },
    {
      "inputs": [],
      "name": "getSkipTime",
      "outputs": [
        {
          "internalType": "uint256",
          "name": "totalSkip",
          "type": "uint256"
        }
      ],
      "stateMutability": "view",
      "type": "function"
    },
    {
      "inputs": [
        {
          "internalType": "address",
          "name": "_account",
          "type": "address"
        }
      ],
      "name": "grantControllerRoleByMarketManager",
      "outputs": [],
      "stateMutability": "nonpayable",
      "type": "function"
    },
    {
      "inputs": [
        {
          "internalType": "bytes32",
          "name": "role",
          "type": "bytes32"
        },
        {
          "internalType": "address",
          "name": "account",
          "type": "address"
        }
      ],
      "name": "grantRole",
      "outputs": [],
      "stateMutability": "pure",
      "type": "function"
    },
    {
      "inputs": [
        {
          "internalType": "bytes32",
          "name": "role",
          "type": "bytes32"
        },
        {
          "internalType": "address",
          "name": "account",
          "type": "address"
        }
      ],
      "name": "hasRole",
      "outputs": [
        {
          "internalType": "bool",
          "name": "",
          "type": "bool"
        }
      ],
      "stateMutability": "pure",
      "type": "function"
    },
    {
      "inputs": [
        {
          "internalType": "address",
          "name": "_feeVault",
          "type": "address"
        }
      ],
      "name": "initialize",
      "outputs": [],
      "stateMutability": "nonpayable",
      "type": "function"
    },
    {
      "inputs": [
        {
          "internalType": "address",
          "name": "",
          "type": "address"
        },
        {
          "internalType": "bool",
          "name": "",
          "type": "bool"
        }
      ],
      "name": "lastCalRate",
      "outputs": [
        {
          "internalType": "uint256",
          "name": "",
          "type": "uint256"
        }
      ],
      "stateMutability": "view",
      "type": "function"
    },
    {
      "inputs": [
        {
          "internalType": "address",
          "name": "",
          "type": "address"
        }
      ],
      "name": "lastCalTimes",
      "outputs": [
        {
          "internalType": "uint256",
          "name": "",
          "type": "uint256"
        }
      ],
      "stateMutability": "view",
      "type": "function"
    },
    {
      "inputs": [],
      "name": "marketReader",
      "outputs": [
        {
          "internalType": "address",
          "name": "",
          "type": "address"
        }
      ],
      "stateMutability": "view",
      "type": "function"
    },
    {
      "inputs": [],
      "name": "maxFRate",
      "outputs": [
        {
          "internalType": "uint256",
          "name": "",
          "type": "uint256"
        }
      ],
      "stateMutability": "view",
      "type": "function"
    },
    {
      "inputs": [],
      "name": "maxFRatePerDay",
      "outputs": [
        {
          "internalType": "uint256",
          "name": "",
          "type": "uint256"
        }
      ],
      "stateMutability": "view",
      "type": "function"
    },
    {
      "inputs": [],
      "name": "minCFRate",
      "outputs": [
        {
          "internalType": "uint256",
          "name": "",
          "type": "uint256"
        }
      ],
      "stateMutability": "view",
      "type": "function"
    },
    {
      "inputs": [],
      "name": "minFRate",
      "outputs": [
        {
          "internalType": "uint256",
          "name": "",
          "type": "uint256"
        }
      ],
      "stateMutability": "view",
      "type": "function"
    },
    {
      "inputs": [],
      "name": "minFundingInterval",
      "outputs": [
        {
          "internalType": "uint256",
          "name": "",
          "type": "uint256"
        }
      ],
      "stateMutability": "view",
      "type": "function"
    },
    {
      "inputs": [],
      "name": "minRateLimit",
      "outputs": [
        {
          "internalType": "uint256",
          "name": "",
          "type": "uint256"
        }
      ],
      "stateMutability": "view",
      "type": "function"
    },
    {
      "inputs": [],
      "name": "minorityFRate",
      "outputs": [
        {
          "internalType": "uint256",
          "name": "",
          "type": "uint256"
        }
      ],
      "stateMutability": "view",
      "type": "function"
    },
    {
      "inputs": [
        {
          "internalType": "bytes32",
          "name": "role",
          "type": "bytes32"
        },
        {
          "internalType": "address",
          "name": "account",
          "type": "address"
        }
      ],
      "name": "revokeRole",
      "outputs": [],
      "stateMutability": "pure",
      "type": "function"
    },
    {
      "inputs": [
        {
          "internalType": "address[]",
          "name": "markets",
          "type": "address[]"
        },
        {
          "internalType": "uint256[]",
          "name": "intervals",
          "type": "uint256[]"
        }
      ],
      "name": "setCalInterval",
      "outputs": [],
      "stateMutability": "nonpayable",
      "type": "function"
    },
    {
      "inputs": [
        {
          "internalType": "uint256",
          "name": "_idx",
          "type": "uint256"
        },
        {
          "internalType": "uint256",
          "name": "_val",
          "type": "uint256"
        }
      ],
      "name": "setConfig",
      "outputs": [],
      "stateMutability": "nonpayable",
      "type": "function"
    },
    {
      "inputs": [
        {
          "internalType": "uint256[]",
          "name": "_newCfgs",
          "type": "uint256[]"
        }
      ],
      "name": "setConfigs",
      "outputs": [],
      "stateMutability": "nonpayable",
      "type": "function"
    },
    {
      "inputs": [
        {
          "internalType": "uint256",
          "name": "x",
          "type": "uint256"
        }
      ],
      "name": "setFRateFactor",
      "outputs": [],
      "stateMutability": "nonpayable",
      "type": "function"
    },
    {
      "inputs": [
        {
          "internalType": "uint256",
          "name": "limit",
          "type": "uint256"
        }
      ],
      "name": "setFundingFeeLossOffLimit",
      "outputs": [],
      "stateMutability": "nonpayable",
      "type": "function"
    },
    {
      "inputs": [
        {
          "internalType": "address[]",
          "name": "markets",
          "type": "address[]"
        },
        {
          "internalType": "uint256[]",
          "name": "intervals",
          "type": "uint256[]"
        }
      ],
      "name": "setFundingInterval",
      "outputs": [],
      "stateMutability": "nonpayable",
      "type": "function"
    },
    {
      "inputs": [
        {
          "internalType": "address[]",
          "name": "markets",
          "type": "address[]"
        },
        {
          "internalType": "uint256[]",
          "name": "intervals",
          "type": "uint256[]"
        }
      ],
      "name": "setFundingInterval_init",
      "outputs": [],
      "stateMutability": "nonpayable",
      "type": "function"
    },
    {
      "inputs": [
        {
          "internalType": "address",
          "name": "_marketReader",
          "type": "address"
        }
      ],
      "name": "setMarketReader",
      "outputs": [],
      "stateMutability": "nonpayable",
      "type": "function"
    },
    {
      "inputs": [
        {
          "internalType": "uint256",
          "name": "x",
          "type": "uint256"
        }
      ],
      "name": "setMaxFRate",
      "outputs": [],
      "stateMutability": "nonpayable",
      "type": "function"
    },
    {
      "inputs": [
        {
          "internalType": "uint256",
          "name": "x",
          "type": "uint256"
        }
      ],
      "name": "setMaxFRatePerDay",
      "outputs": [],
      "stateMutability": "nonpayable",
      "type": "function"
    },
    {
      "inputs": [
        {
          "internalType": "uint256",
          "name": "limit",
          "type": "uint256"
        }
      ],
      "name": "setMinCFRate",
      "outputs": [],
      "stateMutability": "nonpayable",
      "type": "function"
    },
    {
      "inputs": [
        {
          "internalType": "uint256",
          "name": "limit",
          "type": "uint256"
        }
      ],
      "name": "setMinFRate",
      "outputs": [],
      "stateMutability": "nonpayable",
      "type": "function"
    },
    {
      "inputs": [
        {
          "internalType": "uint256",
          "name": "x",
          "type": "uint256"
        }
      ],
      "name": "setMinFundingInterval",
      "outputs": [],
      "stateMutability": "nonpayable",
      "type": "function"
    },
    {
      "inputs": [
        {
          "internalType": "uint256",
          "name": "limit",
          "type": "uint256"
        }
      ],
      "name": "setMinRateLimit",
      "outputs": [],
      "stateMutability": "nonpayable",
      "type": "function"
    },
    {
      "inputs": [
        {
          "internalType": "uint256",
          "name": "limit",
          "type": "uint256"
        }
      ],
      "name": "setMinorityFRate",
      "outputs": [],
      "stateMutability": "nonpayable",
      "type": "function"
    },
    {
      "inputs": [
        {
          "internalType": "uint256[]",
          "name": "updatedAts",
          "type": "uint256[]"
        },
        {
          "internalType": "address[]",
          "name": "markets",
          "type": "address[]"
        }
      ],
      "name": "setUpdateAt",
      "outputs": [],
      "stateMutability": "nonpayable",
      "type": "function"
    },
    {
      "inputs": [
        {
          "internalType": "address",
          "name": "to",
          "type": "address"
        }
      ],
      "name": "transferAdmin",
      "outputs": [],
      "stateMutability": "nonpayable",
      "type": "function"
    },
    {
      "inputs": [
        {
          "internalType": "address",
          "name": "newOwner",
          "type": "address"
        }
      ],
      "name": "transferOwnership",
      "outputs": [],
      "stateMutability": "pure",
      "type": "function"
    },
    {
      "inputs": [
        {
          "internalType": "address",
          "name": "market",
          "type": "address"
        },
        {
          "internalType": "uint256",
          "name": "longSize",
          "type": "uint256"
        },
        {
          "internalType": "uint256",
          "name": "shortSize",
          "type": "uint256"
        }
      ],
      "name": "updateCumulativeFundingRate",
      "outputs": [],
      "stateMutability": "nonpayable",
      "type": "function"
    }
  ],
  "bytecode": "0x608060405234801561001057600080fd5b5061398e806100206000396000f3fe608060405234801561001057600080fd5b50600436106103415760003560e01c806389bff77f116101b8578063bf63a0a011610104578063d547741f116100a2578063e25fefde1161007c578063e25fefde14610756578063e56fa59d1461064c578063f2fde38b146106ff578063fc0fd3541461076957600080fd5b8063d547741f14610409578063d6f5066b14610730578063dc5ac9951461074357600080fd5b8063c6f83ad1116100de578063c6f83ad1146106ec578063c831ba2a1461041b578063d29d44ee146106ff578063d4681d1a1461071057600080fd5b8063bf63a0a0146106be578063c418b11c146106c6578063c4d66de8146106d957600080fd5b80639bed226a11610171578063b2b26b061161014b578063b2b26b0614610667578063b874970314610690578063bac8d9e8146106a3578063bc3d3a8b146106ab57600080fd5b80639bed226a146106445780639f36dde01461064c578063a217fddf1461065f57600080fd5b806389bff77f146105e05780638ac89fc2146105e85780638f18af9a146105f057806391d148541461060357806395d608a2146106295780639ac5d5b21461063157600080fd5b80635a7fdf161161029257806375829def1161023057806378c225ce1161020a57806378c225ce1461058c5780637fe4a698146105ac578063801341a6146105ba5780638698a9bd146105cd57600080fd5b806375829def14610553578063759997e81461056657806376239a671461057957600080fd5b80636725684f1161026c5780636725684f146105025780636eb5e43c1461052d57806372d004cf1461054057806374d57cef1461054b57600080fd5b80635a7fdf16146104945780635b7c1137146104a75780636094ee2b146104d757600080fd5b806327d3fbf3116102ff578063478222c2116102d9578063478222c2146104235780634fd39bee1461044e57806350d16a29146104615780635645d8771461047457600080fd5b806327d3fbf3146104015780632f2ff15d1461040957806331021f471461041b57600080fd5b806298fa2214610346578063054aaca11461036c5780631131cf86146103815780631d36a50e146103895780631e34c585146103db57806320981df4146103ee575b600080fd5b610359610354366004612e21565b610789565b6040519081526020015b60405180910390f35b61037f61037a366004612e4f565b6107aa565b005b6103596108d4565b6103c6610397366004612e84565b6001600160a01b0316600090815260086020908152604080832060018452909152808220548280529120549091565b60408051928352602083019190915201610363565b61037f6103e9366004612ea1565b6108fb565b6103596103fc366004612ed1565b610905565b610359610988565b61037f610417366004612f0a565b5050565b610359610993565b600254610436906001600160a01b031681565b6040516001600160a01b039091168152602001610363565b61037f61045c366004612e21565b61099e565b61037f61046f366004612e21565b6109aa565b610359610482366004612e84565b60046020526000908152604090205481565b61037f6104a2366004612e21565b6109b4565b61037f6104b5366004612e84565b600380546001600160a01b0319166001600160a01b0392909216919091179055565b6103596104e5366004612ed1565b600860209081526000928352604080842090915290825290205481565b610359610510366004612ed1565b600a60209081526000928352604080842090915290825290205481565b61037f61053b3660046130da565b6109be565b6103596305f5e10081565b610359610bd8565b61037f610561366004612e84565b610be3565b61037f61057436600461313e565b610bee565b61037f61058736600461313e565b610cee565b61035961059a366004612e84565b60076020526000908152604090205481565b61037f610341366004612e84565b61037f6105c8366004612e21565b611067565b61037f6105db366004613198565b611071565b6103596110c0565b6103596110ca565b6103596105fe3660046131d5565b6110d5565b610619610611366004612f0a565b600192915050565b6040519015158152602001610363565b610359611166565b61037f61063f36600461313e565b611171565b61035961131c565b61037f61065a366004612e21565b611327565b610359600081565b610359610675366004612e84565b6001600160a01b031660009081526009602052604090205490565b61037f61069e366004612e21565b611371565b61035961137b565b61037f6106b9366004612ea1565b61151c565b610359611589565b600354610436906001600160a01b031681565b61037f6106e7366004612e84565b611594565b61037f6106fa366004612e4f565b6117c5565b61037f61070d366004612e84565b50565b61035961071e366004612e84565b60066020526000908152604090205481565b61037f61073e36600461321f565b6117d1565b61037f610751366004612e21565b61185b565b61037f610764366004612e21565b611865565b610359610777366004612e84565b60096020526000908152604090205481565b6005818154811061079957600080fd5b600091825260209091200154905081565b60006107bd8484844261186f565b61186f565b50905060006107e085858585602001516107d68a6118eb565b6107b89190613261565b915050600080826101a00151121561082d57610809826101a0015161080490613274565b61195a565b60405160200161081991906132b4565b60405160208183030381529060405261083b565b61083b826101a0015161195a565b905060008083610180015112156108825761085e83610180015161080490613274565b60405160200161086e91906132b4565b604051602081830303815290604052610890565b61089083610180015161195a565b905081816040516020016108a59291906132dd565b60408051601f198184030181529082905262461bcd60e51b82526108cb9160040161332d565b60405180910390fd5b6000600560065b815481106108eb576108eb613360565b9060005260206000200154905090565b61041782826119ed565b6002546040516001624c409d60e01b031981526001600160a01b0384811660048301528315156024830152600092169063ffb3bf6390604401602060405180830381865afa15801561095b573d6000803e3d6000fd5b505050506040513d601f19601f8201168201806040525081019061097f9190613376565b90505b92915050565b6000600560076108db565b6000600560046108db565b61070d60035b826119ed565b61070d60016109a4565b61070d60086109a4565b8051825114610a015760405162461bcd60e51b815260206004820152600f60248201526e0dad2e6dac2e8c6d040d8cadccee8d608b1b60448201526064016108cb565b60005b8151811015610bd357828181518110610a1f57610a1f613360565b602002602001015160076000848481518110610a3d57610a3d613360565b60200260200101516001600160a01b03166001600160a01b0316815260200190815260200160002081905550600260009054906101000a90046001600160a01b03166001600160a01b031663b21bf2d3838381518110610a9f57610a9f613360565b6020026020010151600080600080898881518110610abf57610abf613360565b60209081029190910101516040516001600160e01b031960e089901b1681526001600160a01b039096166004870152602486019490945260448501929092526064840152608483015260a482015260c401600060405180830381600087803b158015610b2a57600080fd5b505af1158015610b3e573d6000803e3d6000fd5b505050507f4d67f7d80a18414610613bcd82c005df45389ac7808cbd04b6ea464d60a3eb12828281518110610b7557610b75613360565b6020026020010151848381518110610b8f57610b8f613360565b6020026020010151604051610bb99291906001600160a01b03929092168252602082015260400190565b60405180910390a180610bcb8161338f565b915050610a04565b505050565b6000600560036108db565b600061041760003382565b60005b8251811015610bd3576000610c046108d4565b610c0c6108d4565b848481518110610c1e57610c1e613360565b6020026020010151610c3091906133be565b610c3a91906133d2565b90508060046000868581518110610c5357610c53613360565b60200260200101516001600160a01b03166001600160a01b0316815260200190815260200160002081905550838281518110610c9157610c91613360565b60200260200101516001600160a01b03167f014f9b627a46d0881111664e681522272907a49b31cc3f24613bdad2c551825c82604051610cd391815260200190565b60405180910390a25080610ce68161338f565b915050610bf1565b8051825114610d305760405162461bcd60e51b815260206004820152600e60248201526d696e76616c696420706172616d7360901b60448201526064016108cb565b600042815b84518110156110605760006001600160a01b0316858281518110610d5b57610d5b613360565b60200260200101516001600160a01b031603610d7657600080fd5b610d7e6108d4565b848281518110610d9057610d90613360565b60200260200101511015610da357600080fd5b610dab6108d4565b610db36108d4565b858381518110610dc557610dc5613360565b6020026020010151610dd791906133be565b610de191906133d2565b925082610e101480610df4575082611c20145b80610e00575082613840145b80610e0c575082617080145b15610ff6576000610e1f617080846133be565b610e2b906170806133d2565b610e3590846133e9565b9050600060046000888581518110610e4f57610e4f613360565b60200260200101516001600160a01b03166001600160a01b031681526020019081526020016000205490506000858211610e895781610e8b565b855b9050808310610ee357610ebf888581518110610ea957610ea9613360565b60200260200101516001600160a01b0316611a77565b610ec88761195a565b610ed18361195a565b6040516020016108a5939291906133fc565b878481518110610ef557610ef5613360565b60200260200101516001600160a01b0316633f70d4426040518163ffffffff1660e01b8152600401600060405180830381600087803b158015610f3757600080fd5b505af1158015610f4b573d6000803e3d6000fd5b5050505085600460008a8781518110610f6657610f66613360565b60200260200101516001600160a01b03166001600160a01b0316815260200190815260200160002081905550878481518110610fa457610fa4613360565b60200260200101516001600160a01b03167f014f9b627a46d0881111664e681522272907a49b31cc3f24613bdad2c551825c87604051610fe691815260200190565b60405180910390a250505061104e565b60405162461bcd60e51b815260206004820152602760248201527f696e74657276616c2063616e206265206f6e6c79205b312c20322c20342c20386044820152665d20686f75727360c81b60648201526084016108cb565b806110588161338f565b915050610d35565b5050505050565b61070d60096109a4565b600a81511461107f57600080fd5b60005b8151811015610417576110ae818383815181106110a1576110a1613360565b60200260200101516119ed565b806110b88161338f565b915050611082565b60006005816108db565b6000600560016108db565b6002546040516334f32e2560e01b81526001600160a01b038681166004830152831515602483015260009283929116906334f32e2590604401602060405180830381865afa15801561112b573d6000803e3d6000fd5b505050506040513d601f19601f8201168201806040525081019061114f9190613376565b905061115c858583611a8d565b9695505050505050565b6000600560026108db565b80518251146111b35760405162461bcd60e51b815260206004820152600e60248201526d696e76616c696420706172616d7360901b60448201526064016108cb565b6000805b83518110156113165760006001600160a01b03168482815181106111dd576111dd613360565b60200260200101516001600160a01b0316036111f857600080fd5b6112006108d4565b83828151811061121257611212613360565b6020026020010151101561122557600080fd5b61122d6108d4565b6112356108d4565b84838151811061124757611247613360565b602002602001015161125991906133be565b61126391906133d2565b9150816006600086848151811061127c5761127c613360565b60200260200101516001600160a01b03166001600160a01b03168152602001908152602001600020819055508381815181106112ba576112ba613360565b60200260200101516001600160a01b03167f1b8e6b844a5201ce0d37b6d92b871ff8ee5aede9e47593abc68ce8b2d1d25b88836040516112fc91815260200190565b60405180910390a28061130e8161338f565b9150506111b7565b50505050565b6000600560086108db565b600081116113675760405162461bcd60e51b815260206004820152600d60248201526c1a5b9d985b1a59081b1a5b5a5d609a1b60448201526064016108cb565b61070d60046109a4565b61070d60026109a4565b60035460408051637616480b60e11b815290516000926001600160a01b0316918391839163ec2c901691600480830192869291908290030181865afa1580156113c8573d6000803e3d6000fd5b505050506040513d6000823e601f3d908101601f191682016040526113f091908101906134dd565b905060005b815181101561151657826001600160a01b031663d37c441c6040518163ffffffff1660e01b8152600401602060405180830381865afa15801561143c573d6000803e3d6000fd5b505050506040513d601f19601f820116820180604052508101906114609190613652565b6001600160a01b0316632b8a001283838151811061148057611480613360565b6020026020010151602001516040518263ffffffff1660e01b81526004016114b791906001600160a01b0391909116815260200190565b602060405180830381865afa1580156114d4573d6000803e3d6000fd5b505050506040513d601f19601f820116820180604052508101906114f89190613376565b6115029085613261565b93508061150e8161338f565b9150506113f5565b50505090565b61152682826133e9565b600560008154811061153a5761153a613360565b9060005260206000200160008282546115539190613261565b9091555050604051819083907fbb67e50fdd1f174a20c4f1e0e5b9ab3984685f30623b89b69ba068a11ce913b690600090a35050565b6000600560096108db565b600054610100900460ff16158080156115b45750600054600160ff909116105b806115ce5750303b1580156115ce575060005460ff166001145b6116315760405162461bcd60e51b815260206004820152602e60248201527f496e697469616c697a61626c653a20636f6e747261637420697320616c72656160448201526d191e481a5b9a5d1a585b1a5e995960921b60648201526084016108cb565b6000805460ff191660011790558015611654576000805461ff0019166101001790555b6001600160a01b03821661169d5760405162461bcd60e51b815260206004820152601060248201526f1a5b9d985b1a590819995955985d5b1d60821b60448201526064016108cb565b6116a633611abc565b6040805160c88082526119208201909252906020820161190080368337505081516116d8926005925060200190612d0a565b506305f5e10060056001815481106116f2576116f2613360565b6000918252602090912001556305f5e100600560028154811061171757611717613360565b6000918252602090912001556104e2600560048154811061173a5761173a613360565b600091825260209091200155600280546001600160a01b0319166001600160a01b03841617905561176e6006610e106119ed565b61177c6009629896806119ed565b8015610417576000805461ff0019169055604051600181527f7f26b83ff96e1f2b6a682f133852f6798a09c465da95921460cefb38474024989060200160405180910390a15050565b6110608383834261186f565b6001600160a01b03821660009081526009602052604081208054918391906117f98385613261565b90915550506001600160a01b0383166000818152600960209081526040918290205482518681529182018590528183015290517ff92e4260a5a0861b750596d87de06d7f097df50397fa2af2d7d33d9c6d8674589181900360600190a2505050565b61070d60076109a4565b61070d60066109a4565b611877612d51565b61187f612d9d565b61188a868686611ac3565b91506000806000806118ae898989896118a161131c565b6118a9611589565b611c44565b935093509350935080156118c7576118c783838c611ef8565b6080840151156118dc576118dc86858c611fc3565b50919250505094509492505050565b60025460405163d8f897c360e01b81526001600160a01b038381166004830152600092169063d8f897c390602401602060405180830381865afa158015611936573d6000803e3d6000fd5b505050506040513d601f19601f820116820180604052508101906109829190613376565b6060600061196783612058565b600101905060008167ffffffffffffffff81111561198757611987612f2f565b6040519080825280601f01601f1916602001820160405280156119b1576020820181803683370190505b5090508181016020015b600019016f181899199a1a9b1b9c1cb0b131b232b360811b600a86061a8153600a85049450846119bb57509392505050565b600060058381548110611a0257611a02613360565b906000526020600020015490508160058481548110611a2357611a23613360565b600091825260209182902001919091556040805185815291820183905281018390527f7ee20b53ffb80d74dc08be0adedf33c8fa93e5b44eb347a27eedd30c3d6bc35c9060600160405180910390a1505050565b60606109826001600160a01b0383166014612130565b60006305f5e100611a9e848461366f565b611aa89086613696565b611ab291906136c6565b90505b9392505050565b4260015550565b611acb612d51565b6001600160a01b0384166000908152600660205260408120548083529003611af357610e1081525b6001600160a01b03841660009081526004602090815260408220549083018190529003611b235761708060208201525b6001600160a01b038416600090815260076020526040908190205490820152611b4b846118eb565b6060820181905260408201511015611b6857606081015160408201525b6001600160a01b03841660008181526009602090815260408083205461010086015292825260088152828220600183528082528383205460e08601528280529052205460c082015260058054611c339185918591906003908110611bce57611bce613360565b600091825260209091200154600580546004908110611bef57611bef613360565b9060005260206000200154611c03896122cc565b611c0e8a8a8a6123cd565b600580546007908110611c2357611c23613360565b90600052602060002001546123ea565b608083015260a08201529392505050565b611c4c612d9d565b611c54612d51565b611c5c612d9d565b6000611c6787612437565b9350611c7487858a612482565b90508015611e5857611c8687856124e9565b15611ca257611c95878561251d565b611ca2848b8b89896125b0565b611cad878986612657565b15611cec57611cbc878561268a565b60005b8460600151811015611cea57611cd8858c8c8a8a6125b0565b80611ce28161338f565b915050611cbf565b505b83604051602001611d8e9190815181526020808301519082015260408083015190820152606080830151908201526080808301519082015260a0808301519082015260c0808301519082015260e08083015190820152610100808301519082015261012080830151908201526101408083015190820152610160808301519082015261018080830151908201526101a091820151918101919091526101c00190565b604051602081830303815290604052806020019051810190611db091906136f4565b915086604051602001611e239190600061012082019050825182526020830151602083015260408301516040830152606083015160608301526080830151608083015260a083015160a083015260c083015160c083015260e083015160e083015261010080840151818401525092915050565b604051602081830303815290604052806020019051810190611e4591906137ab565b6000610120860181905261010086015292505b611e638789866126e6565b15611eeb5760808401518751611e7991906133d2565b8460a001818151611e8a9190613261565b905250608084015160a0880151611ea991611ea4916133d2565b612729565b8461012001818151611ebb9190613826565b90525060808085015190880151611ed591611ea4916133d2565b8461010001818151611ee79190613826565b9052505b9650965096509692505050565b611f18818360000151856101000151611f1191906133e9565b8451612797565b6002546101408301516101608401516101a085015161018086015160a087015160405163b21bf2d360e01b81526001600160a01b038881166004830152602482019690965260448101949094526064840192909252608483015260a482015291169063b21bf2d39060c401600060405180830381600087803b158015611f9d57600080fd5b505af1158015611fb1573d6000803e3d6000fd5b50505050610bd3818360a00151612810565b60a0830180516001600160a01b0383166000818152600a6020908152604080832060018452825280832094909455608088018051838052928590209290925593519051835191825293810193909352917f8bfe8b5c73740b3875e694ce9425829dc01970e61b7edbe2b3c2d379328bab72910160405180910390a2610bd3818361012001518461010001518560a001516128cb565b60008072184f03e93ff9f4daa797ed6e38ed64bf6a1f0160401b83106120975772184f03e93ff9f4daa797ed6e38ed64bf6a1f0160401b830492506040015b6d04ee2d6d415b85acef810000000083106120c3576d04ee2d6d415b85acef8100000000830492506020015b662386f26fc1000083106120e157662386f26fc10000830492506010015b6305f5e10083106120f9576305f5e100830492506008015b612710831061210d57612710830492506004015b6064831061211f576064830492506002015b600a83106109825760010192915050565b6060600061213f8360026133d2565b61214a906002613261565b67ffffffffffffffff81111561216257612162612f2f565b6040519080825280601f01601f19166020018201604052801561218c576020820181803683370190505b509050600360fc1b816000815181106121a7576121a7613360565b60200101906001600160f81b031916908160001a905350600f60fb1b816001815181106121d6576121d6613360565b60200101906001600160f81b031916908160001a90535060006121fa8460026133d2565b612205906001613261565b90505b600181111561227d576f181899199a1a9b1b9c1cb0b131b232b360811b85600f166010811061223957612239613360565b1a60f81b82828151811061224f5761224f613360565b60200101906001600160f81b031916908160001a90535060049490941c936122768161384e565b9050612208565b50831561097f5760405162461bcd60e51b815260206004820181905260248201527f537472696e67733a20686578206c656e67746820696e73756666696369656e7460448201526064016108cb565b6003546000906001600160a01b0316816122e461137b565b90506000826001600160a01b031663d37c441c6040518163ffffffff1660e01b8152600401602060405180830381865afa158015612326573d6000803e3d6000fd5b505050506040513d601f19601f8201168201806040525081019061234a9190613652565b6001600160a01b0316636dc7b0a16040518163ffffffff1660e01b8152600401602060405180830381865afa158015612387573d6000803e3d6000fd5b505050506040513d601f19601f820116820180604052508101906123ab9190613376565b905060006123b886612988565b905061115c83836123c76110ca565b84612995565b6000611ab283836123dd87612988565b6123e5611166565b6129eb565b60008086156123f957866123fb565b845b965086841115612409578693505b85841015612415578593505b87891015612424578284612427565b83835b9150915097509795505050505050565b61243f612d9d565b8151602083015161245091906133be565b602082015260e082015161012082015260c082015161010080830191909152604083015160a083015290910151815290565b60008260a001516000036124b657602084015161249f81846133be565b6124a991906133d2565b60a0840152506001611ab5565b8260a001518210156124ca57506000611ab5565b81846020015185606001516124df9190613261565b1115949350505050565b81516060830151604084015160009291612502916133e9565b61250c91906133be565b604083018190521515905092915050565b816020015182606001516125319190613261565b60a08201526040810151602082015161255c9161254d916133e9565b8360a00151611ea491906133d2565b8260e0015161256b9190613826565b6101208201526040810151602082015161259791612588916133e9565b8360800151611ea491906133d2565b8260c001516125a69190613826565b6101009091015250565b60006125c786610120015187610100015185612a9c565b90506125e686610120015187610100015183858a600001518a8a612abc565b60c089015261016088015261014087018190526101a08701805161260b908390613826565b90525061016086015161018087018051612626908390613826565b90525060c086015186511161263c57600061264d565b60c0860151865161264d91906133e9565b9095525050505050565b600083602001518260a001518461266e91906133e9565b61267891906133be565b60608301819052151590509392505050565b8060600151826020015161269e91906133d2565b8160a0018181516126af9190613261565b905250602081015160a08301516126c991611ea4916133d2565b610120820152602081015160808301516125a691611ea4916133d2565b60008160a001518310156126fc57506000611ab5565b835160a083015161270d90856133e9565b61271791906133be565b60808301819052151590509392505050565b60006001600160ff1b038211156127935760405162461bcd60e51b815260206004820152602860248201527f53616665436173743a2076616c756520646f65736e27742066697420696e2061604482015267371034b73a191a9b60c11b60648201526084016108cb565b5090565b6001600160a01b038316600081815260096020908152604091829020548251868152918201529081018390527f46688c57894e3513fd67b19c1f09ffe6b4a24062d8d29e580ba554fe4384c0e09060600160405180910390a26001600160a01b0390921660009081526009602052604090209190915550565b6001600160a01b0382166000818152600860209081526040808320600184528252808320839055828052808320839055838352600782528083208590558051838152918201929092527f18c1e75c2355914e05f0e3d65be88099e2489e17f7a307d0adc3a22239b4667f910160405180910390a2816001600160a01b03167f5e6f1d9aee6db6f0c00c16081ad195c05424762f100ab07c4fdbe9fde1d42a6c826040516128bf91815260200190565b60405180910390a25050565b6001600160a01b0384166000818152600860209081526040808320600184528252808320879055828052808320869055838352600782529182902084905581518681529081018590527f18c1e75c2355914e05f0e3d65be88099e2489e17f7a307d0adc3a22239b4667f910160405180910390a2836001600160a01b03167f5e6f1d9aee6db6f0c00c16081ad195c05424762f100ab07c4fdbe9fde1d42a6c8260405161297a91815260200190565b60405180910390a250505050565b6000610982826006612be6565b600080610e106305f5e10060188782886129af898d6133d2565b6129b991906133d2565b6129c391906133d2565b6129cd91906133be565b6129d791906133be565b6129e191906133be565b61115c91906133be565b6000806129f88686612c10565b90506000811561115c576000612a0e8789613261565b905080612a1f6305f5e100856133d2565b612a2991906133be565b9150610e10601860646305f5e10089612a43600288613949565b612a4d91906133d2565b612a5791906133be565b612a6191906133be565b612a6b91906133be565b612a7591906133be565b91506305f5e100612a8686846133d2565b612a9091906133be565b98975050505050505050565b6000612ab0612aab8585612c34565b612c51565b9050611ab28183612ca3565b600080600080600086118015612ad25750600085115b9050898b12612b5c57612ae7868a8a8a612cb9565b9150612af289612729565b93508015612b5757612b0385612729565b612b106305f5e100612729565b612b1984612729565b612b239190613696565b85612b2d89612729565b612b379190613696565b612b41919061366f565b612b4a90613274565b612b5491906136c6565b92505b612bd8565b612b68858a8a8a612cb9565b9150612b7389612729565b92508015612bd857612b8486612729565b612b916305f5e100612729565b612b9a84612729565b612ba49190613696565b84612bae88612729565b612bb89190613696565b612bc2919061366f565b612bcb90613274565b612bd591906136c6565b93505b509750975097945050505050565b6001600160a01b038216600090815260208290526040812054908190036109825750610e10610982565b6000818310612c2a57612c2382846133e9565b9050610982565b612c2383836133e9565b6000818312612c4757612c23828461366f565b612c23838361366f565b6000808212156127935760405162461bcd60e51b815260206004820181905260248201527f53616665436173743a2076616c7565206d75737420626520706f73697469766560448201526064016108cb565b6000818311612cb2578161097f565b5090919050565b6000612cf2612ccd60026305f5e100613949565b84612cd887896133d2565b612ce291906133d2565b612cec91906133be565b83612cfb565b95945050505050565b6000818310612cb2578161097f565b828054828255906000526020600020908101928215612d45579160200282015b82811115612d45578251825591602001919060010190612d2a565b50612793929150612e0c565b6040518061012001604052806000815260200160008152602001600081526020016000815260200160008152602001600081526020016000815260200160008152602001600081525090565b604051806101c0016040528060008152602001600081526020016000815260200160008152602001600081526020016000815260200160008152602001600081526020016000815260200160008152602001600081526020016000815260200160008152602001600081525090565b5b808211156127935760008155600101612e0d565b600060208284031215612e3357600080fd5b5035919050565b6001600160a01b038116811461070d57600080fd5b600080600060608486031215612e6457600080fd5b8335612e6f81612e3a565b95602085013595506040909401359392505050565b600060208284031215612e9657600080fd5b813561097f81612e3a565b60008060408385031215612eb457600080fd5b50508035926020909101359150565b801515811461070d57600080fd5b60008060408385031215612ee457600080fd5b8235612eef81612e3a565b91506020830135612eff81612ec3565b809150509250929050565b60008060408385031215612f1d57600080fd5b823591506020830135612eff81612e3a565b634e487b7160e01b600052604160045260246000fd5b60405160a0810167ffffffffffffffff81118282101715612f6857612f68612f2f565b60405290565b6040516101c0810167ffffffffffffffff81118282101715612f6857612f68612f2f565b604051610120810167ffffffffffffffff81118282101715612f6857612f68612f2f565b604051601f8201601f1916810167ffffffffffffffff81118282101715612fdf57612fdf612f2f565b604052919050565b600067ffffffffffffffff82111561300157613001612f2f565b5060051b60200190565b600082601f83011261301c57600080fd5b8135602061303161302c83612fe7565b612fb6565b82815260059290921b8401810191818101908684111561305057600080fd5b8286015b8481101561306b5780358352918301918301613054565b509695505050505050565b600082601f83011261308757600080fd5b8135602061309761302c83612fe7565b82815260059290921b840181019181810190868411156130b657600080fd5b8286015b8481101561306b5780356130cd81612e3a565b83529183019183016130ba565b600080604083850312156130ed57600080fd5b823567ffffffffffffffff8082111561310557600080fd5b6131118683870161300b565b9350602085013591508082111561312757600080fd5b5061313485828601613076565b9150509250929050565b6000806040838503121561315157600080fd5b823567ffffffffffffffff8082111561316957600080fd5b61317586838701613076565b9350602085013591508082111561318b57600080fd5b506131348582860161300b565b6000602082840312156131aa57600080fd5b813567ffffffffffffffff8111156131c157600080fd5b6131cd8482850161300b565b949350505050565b600080600080608085870312156131eb57600080fd5b84356131f681612e3a565b93506020850135925060408501359150606085013561321481612ec3565b939692955090935050565b6000806040838503121561323257600080fd5b823561323d81612e3a565b946020939093013593505050565b634e487b7160e01b600052601160045260246000fd5b808201808211156109825761098261324b565b6000600160ff1b82016132895761328961324b565b5060000390565b60005b838110156132ab578181015183820152602001613293565b50506000910152565b602d60f81b8152600082516132d0816001850160208701613290565b9190910160010192915050565b600061232360f01b80835284516132fb816002860160208901613290565b80840190508160028201528451613319816004840160208901613290565b016004810191909152600601949350505050565b602081526000825180602084015261334c816040850160208701613290565b601f01601f19169190910160400192915050565b634e487b7160e01b600052603260045260246000fd5b60006020828403121561338857600080fd5b5051919050565b6000600182016133a1576133a161324b565b5060010190565b634e487b7160e01b600052601260045260246000fd5b6000826133cd576133cd6133a8565b500490565b80820281158282048414176109825761098261324b565b818103818111156109825761098261324b565b6000845161340e818460208901613290565b7f277320696e74657276616c2063616e2062652073657420746f20000000000000908301908152845161344881601a840160208901613290565b7f2c20627574206f6e6c79206166746572205b382c2031362c2032345d206f2763601a92909101918201526f03637b1b59030b7321034b7103a3432960851b603a820152835161349f81604a840160208801613290565b68207365636f6e64732160b81b604a929091019182015260530195945050505050565b80516134cd81612e3a565b919050565b80516134cd81612ec3565b600060208083850312156134f057600080fd5b825167ffffffffffffffff8082111561350857600080fd5b818501915085601f83011261351c57600080fd5b815161352a61302c82612fe7565b81815260059190911b8301840190848101908883111561354957600080fd5b8585015b838110156136455780518581111561356457600080fd5b8601601f1960a0828d038201121561357c5760008081fd5b613584612f45565b89830151888111156135965760008081fd5b8301603f81018e136135a85760008081fd5b8a81015160408a8211156135be576135be612f2f565b6135ce8d86601f85011601612fb6565b94508185528f818385010111156135e55760008081fd5b6135f4828e8701838601613290565b8484526136028187016134c2565b8d85015260609450848601518185015250505060806136228185016134d2565b8383015261363260a085016134d2565b908201528552505091860191860161354d565b5098975050505050505050565b60006020828403121561366457600080fd5b815161097f81612e3a565b818103600083128015838313168383128216171561368f5761368f61324b565b5092915050565b80820260008212600160ff1b841416156136b2576136b261324b565b81810583148215176109825761098261324b565b6000826136d5576136d56133a8565b600160ff1b8214600019841416156136ef576136ef61324b565b500590565b60006101c0828403121561370757600080fd5b61370f612f6e565b825181526020830151602082015260408301516040820152606083015160608201526080830151608082015260a083015160a082015260c083015160c082015260e083015160e08201526101008084015181830152506101208084015181830152506101408084015181830152506101608084015181830152506101808084015181830152506101a08084015181830152508091505092915050565b600061012082840312156137be57600080fd5b6137c6612f92565b825181526020830151602082015260408301516040820152606083015160608201526080830151608082015260a083015160a082015260c083015160c082015260e083015160e08201526101008084015181830152508091505092915050565b80820182811260008312801582168215821617156138465761384661324b565b505092915050565b60008161385d5761385d61324b565b506000190190565b600181815b808511156138a05781600019048211156138865761388661324b565b8085161561389357918102915b93841c939080029061386a565b509250929050565b6000826138b757506001610982565b816138c457506000610982565b81600181146138da57600281146138e457613900565b6001915050610982565b60ff8411156138f5576138f561324b565b50506001821b610982565b5060208310610133831016604e8410600b8410161715613923575081810a610982565b61392d8383613865565b80600019048211156139415761394161324b565b029392505050565b600061097f60ff8416836138a856fea264697066735822122048d6775e4a18a250d0e695543b405ec1d9ac631915573c3bef12d328d0ba49fa64736f6c63430008110033",
  "linkReferences": {},
  "deployedLinkReferences": {}
}