{
  "_format": "hh-sol-artifact-1",
  "contractName": "FundFee",
  "sourceName": "contracts/fee/FundFee.sol",
  "abi": [
    {
      "anonymous": false,
      "inputs": [
        {
          "indexed": true,
          "internalType": "address",
          "name": "market",
          "type": "address"
        },
        {
          "indexed": false,
          "internalType": "uint256",
          "name": "amount",
          "type": "uint256"
        },
        {
          "indexed": false,
          "internalType": "uint256",
          "name": "lossBefore",
          "type": "uint256"
        },
        {
          "indexed": false,
          "internalType": "uint256",
          "name": "lossAfter",
          "type": "uint256"
        }
      ],
      "name": "AddNegativeFeeLoss",
      "type": "event"
    },
    {
      "anonymous": false,
      "inputs": [
        {
          "indexed": true,
          "internalType": "address",
          "name": "market",
          "type": "address"
        },
        {
          "indexed": false,
          "internalType": "uint256",
          "name": "deductAmount",
          "type": "uint256"
        },
        {
          "indexed": false,
          "internalType": "uint256",
          "name": "lossBefore",
          "type": "uint256"
        },
        {
          "indexed": false,
          "internalType": "uint256",
          "name": "lossAfter",
          "type": "uint256"
        }
      ],
      "name": "AddPositiveFeeLoss",
      "type": "event"
    },
    {
      "anonymous": false,
      "inputs": [
        {
          "indexed": true,
          "internalType": "uint256",
          "name": "startTime",
          "type": "uint256"
        },
        {
          "indexed": true,
          "internalType": "uint256",
          "name": "endTime",
          "type": "uint256"
        }
      ],
      "name": "AddSkipTime",
      "type": "event"
    },
    {
      "anonymous": false,
      "inputs": [
        {
          "indexed": false,
          "internalType": "uint8",
          "name": "version",
          "type": "uint8"
        }
      ],
      "name": "Initialized",
      "type": "event"
    },
    {
      "anonymous": false,
      "inputs": [
        {
          "indexed": false,
          "internalType": "address",
          "name": "market",
          "type": "address"
        },
        {
          "indexed": false,
          "internalType": "uint256",
          "name": "updatedAt",
          "type": "uint256"
        }
      ],
      "name": "SetUpdateAt",
      "type": "event"
    },
    {
      "anonymous": false,
      "inputs": [
        {
          "indexed": true,
          "internalType": "address",
          "name": "market",
          "type": "address"
        },
        {
          "indexed": false,
          "internalType": "int256",
          "name": "longRate",
          "type": "int256"
        },
        {
          "indexed": false,
          "internalType": "int256",
          "name": "shortRate",
          "type": "int256"
        }
      ],
      "name": "UpdateCalFundRates",
      "type": "event"
    },
    {
      "anonymous": false,
      "inputs": [
        {
          "indexed": true,
          "internalType": "address",
          "name": "market",
          "type": "address"
        },
        {
          "indexed": false,
          "internalType": "uint256",
          "name": "interval",
          "type": "uint256"
        }
      ],
      "name": "UpdateCalInterval",
      "type": "event"
    },
    {
      "anonymous": false,
      "inputs": [
        {
          "indexed": false,
          "internalType": "uint256",
          "name": "index",
          "type": "uint256"
        },
        {
          "indexed": false,
          "internalType": "uint256",
          "name": "oldFRate",
          "type": "uint256"
        },
        {
          "indexed": false,
          "internalType": "uint256",
          "name": "newFRate",
          "type": "uint256"
        }
      ],
      "name": "UpdateConfig",
      "type": "event"
    },
    {
      "anonymous": false,
      "inputs": [
        {
          "indexed": true,
          "internalType": "address",
          "name": "market",
          "type": "address"
        },
        {
          "indexed": false,
          "internalType": "uint256",
          "name": "interval",
          "type": "uint256"
        }
      ],
      "name": "UpdateFundInterval",
      "type": "event"
    },
    {
      "anonymous": false,
      "inputs": [
        {
          "indexed": true,
          "internalType": "address",
          "name": "market",
          "type": "address"
        },
        {
          "indexed": false,
          "internalType": "uint256",
          "name": "longRate",
          "type": "uint256"
        },
        {
          "indexed": false,
          "internalType": "uint256",
          "name": "shortRate",
          "type": "uint256"
        }
      ],
      "name": "UpdateLastCalRate",
      "type": "event"
    },
    {
      "anonymous": false,
      "inputs": [
        {
          "indexed": true,
          "internalType": "address",
          "name": "market",
          "type": "address"
        },
        {
          "indexed": false,
          "internalType": "uint256",
          "name": "timestamp",
          "type": "uint256"
        }
      ],
      "name": "UpdateLastCalTime",
      "type": "event"
    },
    {
      "inputs": [],
      "name": "DEFAULT_ADMIN_ROLE",
      "outputs": [
        {
          "internalType": "bytes32",
          "name": "",
          "type": "bytes32"
        }
      ],
      "stateMutability": "view",
      "type": "function"
    },
    {
      "inputs": [],
      "name": "FEERATEPRECISION",
      "outputs": [
        {
          "internalType": "uint256",
          "name": "",
          "type": "uint256"
        }
      ],
      "stateMutability": "view",
      "type": "function"
    },
    {
      "inputs": [
        {
          "internalType": "address",
          "name": "newOwner",
          "type": "address"
        }
      ],
      "name": "_transferOwnership",
      "outputs": [],
      "stateMutability": "pure",
      "type": "function"
    },
    {
      "inputs": [
        {
          "internalType": "address",
          "name": "market",
          "type": "address"
        },
        {
          "internalType": "uint256",
          "name": "a",
          "type": "uint256"
        }
      ],
      "name": "addFeeLoss",
      "outputs": [],
      "stateMutability": "nonpayable",
      "type": "function"
    },
    {
      "inputs": [
        {
          "internalType": "uint256",
          "name": "start",
          "type": "uint256"
        },
        {
          "internalType": "uint256",
          "name": "end",
          "type": "uint256"
        }
      ],
      "name": "addSkipTime",
      "outputs": [],
      "stateMutability": "nonpayable",
      "type": "function"
    },
    {
      "inputs": [
        {
          "internalType": "address",
          "name": "",
          "type": "address"
        },
        {
          "internalType": "bool",
          "name": "",
          "type": "bool"
        }
      ],
      "name": "calFundingRates",
      "outputs": [
        {
          "internalType": "int256",
          "name": "",
          "type": "int256"
        }
      ],
      "stateMutability": "view",
      "type": "function"
    },
    {
      "inputs": [
        {
          "internalType": "address",
          "name": "",
          "type": "address"
        }
      ],
      "name": "calIntervals",
      "outputs": [
        {
          "internalType": "uint256",
          "name": "",
          "type": "uint256"
        }
      ],
      "stateMutability": "view",
      "type": "function"
    },
    {
      "inputs": [
        {
          "internalType": "uint256",
          "name": "",
          "type": "uint256"
        }
      ],
      "name": "configs",
      "outputs": [
        {
          "internalType": "uint256",
          "name": "",
          "type": "uint256"
        }
      ],
      "stateMutability": "view",
      "type": "function"
    },
    {
      "inputs": [],
      "name": "fRateFactor",
      "outputs": [
        {
          "internalType": "uint256",
          "name": "",
          "type": "uint256"
        }
      ],
      "stateMutability": "view",
      "type": "function"
    },
    {
      "inputs": [],
      "name": "feeVault",
      "outputs": [
        {
          "internalType": "address",
          "name": "",
          "type": "address"
        }
      ],
      "stateMutability": "view",
      "type": "function"
    },
    {
      "inputs": [
        {
          "internalType": "address",
          "name": "",
          "type": "address"
        }
      ],
      "name": "fundFeeLoss",
      "outputs": [
        {
          "internalType": "uint256",
          "name": "",
          "type": "uint256"
        }
      ],
      "stateMutability": "view",
      "type": "function"
    },
    {
      "inputs": [
        {
          "internalType": "address",
          "name": "market",
          "type": "address"
        }
      ],
      "name": "fundingFeeLoss",
      "outputs": [
        {
          "internalType": "uint256",
          "name": "",
          "type": "uint256"
        }
      ],
      "stateMutability": "view",
      "type": "function"
    },
    {
      "inputs": [],
      "name": "fundingFeeLossOffLimit",
      "outputs": [
        {
          "internalType": "uint256",
          "name": "",
          "type": "uint256"
        }
      ],
      "stateMutability": "view",
      "type": "function"
    },
    {
      "inputs": [
        {
          "internalType": "address",
          "name": "",
          "type": "address"
        }
      ],
      "name": "fundingIntervals",
      "outputs": [
        {
          "internalType": "uint256",
          "name": "",
          "type": "uint256"
        }
      ],
      "stateMutability": "view",
      "type": "function"
    },
    {
      "inputs": [
        {
          "internalType": "address",
          "name": "market",
          "type": "address"
        }
      ],
      "name": "getCalFundingRates",
      "outputs": [
        {
          "internalType": "int256",
          "name": "",
          "type": "int256"
        },
        {
          "internalType": "int256",
          "name": "",
          "type": "int256"
        }
      ],
      "stateMutability": "view",
      "type": "function"
    },
    {
      "inputs": [
        {
          "internalType": "address",
          "name": "market",
          "type": "address"
        },
        {
          "internalType": "uint256",
          "name": "size",
          "type": "uint256"
        },
        {
          "internalType": "int256",
          "name": "entryFundingRate",
          "type": "int256"
        },
        {
          "internalType": "bool",
          "name": "isLong",
          "type": "bool"
        }
      ],
      "name": "getFundingFee",
      "outputs": [
        {
          "internalType": "int256",
          "name": "",
          "type": "int256"
        }
      ],
      "stateMutability": "view",
      "type": "function"
    },
    {
      "inputs": [
        {
          "internalType": "address",
          "name": "market",
          "type": "address"
        },
        {
          "internalType": "bool",
          "name": "isLong",
          "type": "bool"
        }
      ],
      "name": "getFundingRate",
      "outputs": [
        {
          "internalType": "int256",
          "name": "",
          "type": "int256"
        }
      ],
      "stateMutability": "view",
      "type": "function"
    },
    {
      "inputs": [],
      "name": "getGlobalOpenInterest",
      "outputs": [
        {
          "internalType": "uint256",
          "name": "_globalSize",
          "type": "uint256"
        }
      ],
      "stateMutability": "view",
      "type": "function"
    },
    {
      "inputs": [
        {
          "internalType": "address",
          "name": "market",
          "type": "address"
        },
        {
          "internalType": "uint256",
          "name": "longSize",
          "type": "uint256"
        },
        {
          "internalType": "uint256",
          "name": "shortSize",
          "type": "uint256"
        }
      ],
      "name": "getNextFundingRate",
      "outputs": [],
      "stateMutability": "nonpayable",
      "type": "function"
    },
    {
      "inputs": [],
      "name": "getSkipTime",
      "outputs": [
        {
          "internalType": "uint256",
          "name": "totalSkip",
          "type": "uint256"
        }
      ],
      "stateMutability": "view",
      "type": "function"
    },
    {
      "inputs": [
        {
          "internalType": "address",
          "name": "_account",
          "type": "address"
        }
      ],
      "name": "grantControllerRoleByMarketManager",
      "outputs": [],
      "stateMutability": "nonpayable",
      "type": "function"
    },
    {
      "inputs": [
        {
          "internalType": "bytes32",
          "name": "role",
          "type": "bytes32"
        },
        {
          "internalType": "address",
          "name": "account",
          "type": "address"
        }
      ],
      "name": "grantRole",
      "outputs": [],
      "stateMutability": "pure",
      "type": "function"
    },
    {
      "inputs": [
        {
          "internalType": "bytes32",
          "name": "role",
          "type": "bytes32"
        },
        {
          "internalType": "address",
          "name": "account",
          "type": "address"
        }
      ],
      "name": "hasRole",
      "outputs": [
        {
          "internalType": "bool",
          "name": "",
          "type": "bool"
        }
      ],
      "stateMutability": "pure",
      "type": "function"
    },
    {
      "inputs": [
        {
          "internalType": "address",
          "name": "_feeVault",
          "type": "address"
        }
      ],
      "name": "initialize",
      "outputs": [],
      "stateMutability": "nonpayable",
      "type": "function"
    },
    {
      "inputs": [
        {
          "internalType": "address",
          "name": "",
          "type": "address"
        },
        {
          "internalType": "bool",
          "name": "",
          "type": "bool"
        }
      ],
      "name": "lastCalRate",
      "outputs": [
        {
          "internalType": "uint256",
          "name": "",
          "type": "uint256"
        }
      ],
      "stateMutability": "view",
      "type": "function"
    },
    {
      "inputs": [
        {
          "internalType": "address",
          "name": "",
          "type": "address"
        }
      ],
      "name": "lastCalTimes",
      "outputs": [
        {
          "internalType": "uint256",
          "name": "",
          "type": "uint256"
        }
      ],
      "stateMutability": "view",
      "type": "function"
    },
    {
      "inputs": [],
      "name": "marketReader",
      "outputs": [
        {
          "internalType": "address",
          "name": "",
          "type": "address"
        }
      ],
      "stateMutability": "view",
      "type": "function"
    },
    {
      "inputs": [],
      "name": "maxFRate",
      "outputs": [
        {
          "internalType": "uint256",
          "name": "",
          "type": "uint256"
        }
      ],
      "stateMutability": "view",
      "type": "function"
    },
    {
      "inputs": [],
      "name": "maxFRatePerDay",
      "outputs": [
        {
          "internalType": "uint256",
          "name": "",
          "type": "uint256"
        }
      ],
      "stateMutability": "view",
      "type": "function"
    },
    {
      "inputs": [],
      "name": "minCFRate",
      "outputs": [
        {
          "internalType": "uint256",
          "name": "",
          "type": "uint256"
        }
      ],
      "stateMutability": "view",
      "type": "function"
    },
    {
      "inputs": [],
      "name": "minFRate",
      "outputs": [
        {
          "internalType": "uint256",
          "name": "",
          "type": "uint256"
        }
      ],
      "stateMutability": "view",
      "type": "function"
    },
    {
      "inputs": [],
      "name": "minFundingInterval",
      "outputs": [
        {
          "internalType": "uint256",
          "name": "",
          "type": "uint256"
        }
      ],
      "stateMutability": "view",
      "type": "function"
    },
    {
      "inputs": [],
      "name": "minRateLimit",
      "outputs": [
        {
          "internalType": "uint256",
          "name": "",
          "type": "uint256"
        }
      ],
      "stateMutability": "view",
      "type": "function"
    },
    {
      "inputs": [],
      "name": "minorityFRate",
      "outputs": [
        {
          "internalType": "uint256",
          "name": "",
          "type": "uint256"
        }
      ],
      "stateMutability": "view",
      "type": "function"
    },
    {
      "inputs": [
        {
          "internalType": "bytes32",
          "name": "role",
          "type": "bytes32"
        },
        {
          "internalType": "address",
          "name": "account",
          "type": "address"
        }
      ],
      "name": "revokeRole",
      "outputs": [],
      "stateMutability": "pure",
      "type": "function"
    },
    {
      "inputs": [
        {
          "internalType": "address[]",
          "name": "markets",
          "type": "address[]"
        },
        {
          "internalType": "uint256[]",
          "name": "intervals",
          "type": "uint256[]"
        }
      ],
      "name": "setCalInterval",
      "outputs": [],
      "stateMutability": "nonpayable",
      "type": "function"
    },
    {
      "inputs": [
        {
          "internalType": "uint256",
          "name": "_idx",
          "type": "uint256"
        },
        {
          "internalType": "uint256",
          "name": "_val",
          "type": "uint256"
        }
      ],
      "name": "setConfig",
      "outputs": [],
      "stateMutability": "nonpayable",
      "type": "function"
    },
    {
      "inputs": [
        {
          "internalType": "uint256[]",
          "name": "_newCfgs",
          "type": "uint256[]"
        }
      ],
      "name": "setConfigs",
      "outputs": [],
      "stateMutability": "nonpayable",
      "type": "function"
    },
    {
      "inputs": [
        {
          "internalType": "uint256",
          "name": "x",
          "type": "uint256"
        }
      ],
      "name": "setFRateFactor",
      "outputs": [],
      "stateMutability": "nonpayable",
      "type": "function"
    },
    {
      "inputs": [
        {
          "internalType": "uint256",
          "name": "limit",
          "type": "uint256"
        }
      ],
      "name": "setFundingFeeLossOffLimit",
      "outputs": [],
      "stateMutability": "nonpayable",
      "type": "function"
    },
    {
      "inputs": [
        {
          "internalType": "address[]",
          "name": "markets",
          "type": "address[]"
        },
        {
          "internalType": "uint256[]",
          "name": "intervals",
          "type": "uint256[]"
        }
      ],
      "name": "setFundingInterval",
      "outputs": [],
      "stateMutability": "nonpayable",
      "type": "function"
    },
    {
      "inputs": [
        {
          "internalType": "address[]",
          "name": "markets",
          "type": "address[]"
        },
        {
          "internalType": "uint256[]",
          "name": "intervals",
          "type": "uint256[]"
        }
      ],
      "name": "setFundingInterval_init",
      "outputs": [],
      "stateMutability": "nonpayable",
      "type": "function"
    },
    {
      "inputs": [
        {
          "internalType": "address",
          "name": "_marketReader",
          "type": "address"
        }
      ],
      "name": "setMarketReader",
      "outputs": [],
      "stateMutability": "nonpayable",
      "type": "function"
    },
    {
      "inputs": [
        {
          "internalType": "uint256",
          "name": "x",
          "type": "uint256"
        }
      ],
      "name": "setMaxFRate",
      "outputs": [],
      "stateMutability": "nonpayable",
      "type": "function"
    },
    {
      "inputs": [
        {
          "internalType": "uint256",
          "name": "x",
          "type": "uint256"
        }
      ],
      "name": "setMaxFRatePerDay",
      "outputs": [],
      "stateMutability": "nonpayable",
      "type": "function"
    },
    {
      "inputs": [
        {
          "internalType": "uint256",
          "name": "limit",
          "type": "uint256"
        }
      ],
      "name": "setMinCFRate",
      "outputs": [],
      "stateMutability": "nonpayable",
      "type": "function"
    },
    {
      "inputs": [
        {
          "internalType": "uint256",
          "name": "limit",
          "type": "uint256"
        }
      ],
      "name": "setMinFRate",
      "outputs": [],
      "stateMutability": "nonpayable",
      "type": "function"
    },
    {
      "inputs": [
        {
          "internalType": "uint256",
          "name": "x",
          "type": "uint256"
        }
      ],
      "name": "setMinFundingInterval",
      "outputs": [],
      "stateMutability": "nonpayable",
      "type": "function"
    },
    {
      "inputs": [
        {
          "internalType": "uint256",
          "name": "limit",
          "type": "uint256"
        }
      ],
      "name": "setMinRateLimit",
      "outputs": [],
      "stateMutability": "nonpayable",
      "type": "function"
    },
    {
      "inputs": [
        {
          "internalType": "uint256",
          "name": "limit",
          "type": "uint256"
        }
      ],
      "name": "setMinorityFRate",
      "outputs": [],
      "stateMutability": "nonpayable",
      "type": "function"
    },
    {
      "inputs": [
        {
          "internalType": "uint256[]",
          "name": "updatedAts",
          "type": "uint256[]"
        },
        {
          "internalType": "address[]",
          "name": "markets",
          "type": "address[]"
        }
      ],
      "name": "setUpdateAt",
      "outputs": [],
      "stateMutability": "nonpayable",
      "type": "function"
    },
    {
      "inputs": [
        {
          "internalType": "address",
          "name": "to",
          "type": "address"
        }
      ],
      "name": "transferAdmin",
      "outputs": [],
      "stateMutability": "nonpayable",
      "type": "function"
    },
    {
      "inputs": [
        {
          "internalType": "address",
          "name": "newOwner",
          "type": "address"
        }
      ],
      "name": "transferOwnership",
      "outputs": [],
      "stateMutability": "pure",
      "type": "function"
    },
    {
      "inputs": [
        {
          "internalType": "address",
          "name": "market",
          "type": "address"
        },
        {
          "internalType": "uint256",
          "name": "longSize",
          "type": "uint256"
        },
        {
          "internalType": "uint256",
          "name": "shortSize",
          "type": "uint256"
        }
      ],
      "name": "updateCumulativeFundingRate",
      "outputs": [],
      "stateMutability": "nonpayable",
      "type": "function"
    }
  ],
  "bytecode": "0x608060405234801561001057600080fd5b506139a0806100206000396000f3fe608060405234801561001057600080fd5b50600436106103415760003560e01c806389bff77f116101b8578063bf63a0a011610104578063d547741f116100a2578063e25fefde1161007c578063e25fefde1461075b578063e56fa59d14610651578063f2fde38b14610704578063fc0fd3541461076e57600080fd5b8063d547741f14610409578063d6f5066b14610735578063dc5ac9951461074857600080fd5b8063c6f83ad1116100de578063c6f83ad1146106f1578063c831ba2a1461041b578063d29d44ee14610704578063d4681d1a1461071557600080fd5b8063bf63a0a0146106c3578063c418b11c146106cb578063c4d66de8146106de57600080fd5b80639bed226a11610171578063b2b26b061161014b578063b2b26b061461066c578063b874970314610695578063bac8d9e8146106a8578063bc3d3a8b146106b057600080fd5b80639bed226a146106495780639f36dde014610651578063a217fddf1461066457600080fd5b806389bff77f146105e55780638ac89fc2146105ed5780638f18af9a146105f557806391d148541461060857806395d608a21461062e5780639ac5d5b21461063657600080fd5b80635a7fdf161161029257806375829def1161023057806378c225ce1161020a57806378c225ce1461058c5780637fe4a698146105ac578063801341a6146105bf5780638698a9bd146105d257600080fd5b806375829def14610553578063759997e81461056657806376239a671461057957600080fd5b80636725684f1161026c5780636725684f146105025780636eb5e43c1461052d57806372d004cf1461054057806374d57cef1461054b57600080fd5b80635a7fdf16146104945780635b7c1137146104a75780636094ee2b146104d757600080fd5b806327d3fbf3116102ff578063478222c2116102d9578063478222c2146104235780634fd39bee1461044e57806350d16a29146104615780635645d8771461047457600080fd5b806327d3fbf3146104015780632f2ff15d1461040957806331021f471461041b57600080fd5b806298fa2214610346578063054aaca11461036c5780631131cf86146103815780631d36a50e146103895780631e34c585146103db57806320981df4146103ee575b600080fd5b610359610354366004612e33565b61078e565b6040519081526020015b60405180910390f35b61037f61037a366004612e61565b6107af565b005b6103596108d9565b6103c6610397366004612e96565b6001600160a01b0316600090815260086020908152604080832060018452909152808220548280529120549091565b60408051928352602083019190915201610363565b61037f6103e9366004612eb3565b610900565b6103596103fc366004612ee3565b61090a565b61035961098d565b61037f610417366004612f1c565b5050565b610359610998565b600254610436906001600160a01b031681565b6040516001600160a01b039091168152602001610363565b61037f61045c366004612e33565b6109a3565b61037f61046f366004612e33565b6109af565b610359610482366004612e96565b60046020526000908152604090205481565b61037f6104a2366004612e33565b6109b9565b61037f6104b5366004612e96565b600380546001600160a01b0319166001600160a01b0392909216919091179055565b6103596104e5366004612ee3565b600860209081526000928352604080842090915290825290205481565b610359610510366004612ee3565b600a60209081526000928352604080842090915290825290205481565b61037f61053b3660046130ec565b6109c3565b6103596305f5e10081565b610359610bdd565b61037f610561366004612e96565b610be8565b61037f610574366004613150565b610bf3565b61037f610587366004613150565b610cf3565b61035961059a366004612e96565b60076020526000908152604090205481565b61037f6105ba366004612e96565b610712565b61037f6105cd366004612e33565b611079565b61037f6105e03660046131aa565b611083565b6103596110d2565b6103596110dc565b6103596106033660046131e7565b6110e7565b61061e610616366004612f1c565b600192915050565b6040519015158152602001610363565b610359611178565b61037f610644366004613150565b611183565b61035961132e565b61037f61065f366004612e33565b611339565b610359600081565b61035961067a366004612e96565b6001600160a01b031660009081526009602052604090205490565b61037f6106a3366004612e33565b611383565b61035961138d565b61037f6106be366004612eb3565b61152e565b61035961159b565b600354610436906001600160a01b031681565b61037f6106ec366004612e96565b6115a6565b61037f6106ff366004612e61565b6117d7565b61037f610712366004612e96565b50565b610359610723366004612e96565b60066020526000908152604090205481565b61037f610743366004613231565b6117e3565b61037f610756366004612e33565b61186d565b61037f610769366004612e33565b611877565b61035961077c366004612e96565b60096020526000908152604090205481565b6005818154811061079e57600080fd5b600091825260209091200154905081565b60006107c284848442611881565b611881565b50905060006107e585858585602001516107db8a6118fd565b6107bd9190613273565b915050600080826101a0015112156108325761080e826101a0015161080990613286565b61196c565b60405160200161081e91906132c6565b604051602081830303815290604052610840565b610840826101a0015161196c565b905060008083610180015112156108875761086383610180015161080990613286565b60405160200161087391906132c6565b604051602081830303815290604052610895565b61089583610180015161196c565b905081816040516020016108aa9291906132ef565b60408051601f198184030181529082905262461bcd60e51b82526108d09160040161333f565b60405180910390fd5b6000600560065b815481106108f0576108f0613372565b9060005260206000200154905090565b61041782826119ff565b6002546040516001624c409d60e01b031981526001600160a01b0384811660048301528315156024830152600092169063ffb3bf6390604401602060405180830381865afa158015610960573d6000803e3d6000fd5b505050506040513d601f19601f820116820180604052508101906109849190613388565b90505b92915050565b6000600560076108e0565b6000600560046108e0565b61071260035b826119ff565b61071260016109a9565b61071260086109a9565b8051825114610a065760405162461bcd60e51b815260206004820152600f60248201526e0dad2e6dac2e8c6d040d8cadccee8d608b1b60448201526064016108d0565b60005b8151811015610bd857828181518110610a2457610a24613372565b602002602001015160076000848481518110610a4257610a42613372565b60200260200101516001600160a01b03166001600160a01b0316815260200190815260200160002081905550600260009054906101000a90046001600160a01b03166001600160a01b031663b21bf2d3838381518110610aa457610aa4613372565b6020026020010151600080600080898881518110610ac457610ac4613372565b60209081029190910101516040516001600160e01b031960e089901b1681526001600160a01b039096166004870152602486019490945260448501929092526064840152608483015260a482015260c401600060405180830381600087803b158015610b2f57600080fd5b505af1158015610b43573d6000803e3d6000fd5b505050507f4d67f7d80a18414610613bcd82c005df45389ac7808cbd04b6ea464d60a3eb12828281518110610b7a57610b7a613372565b6020026020010151848381518110610b9457610b94613372565b6020026020010151604051610bbe9291906001600160a01b03929092168252602082015260400190565b60405180910390a180610bd0816133a1565b915050610a09565b505050565b6000600560036108e0565b600061041760003382565b60005b8251811015610bd8576000610c096108d9565b610c116108d9565b848481518110610c2357610c23613372565b6020026020010151610c3591906133d0565b610c3f91906133e4565b90508060046000868581518110610c5857610c58613372565b60200260200101516001600160a01b03166001600160a01b0316815260200190815260200160002081905550838281518110610c9657610c96613372565b60200260200101516001600160a01b03167f014f9b627a46d0881111664e681522272907a49b31cc3f24613bdad2c551825c82604051610cd891815260200190565b60405180910390a25080610ceb816133a1565b915050610bf6565b8051825114610d355760405162461bcd60e51b815260206004820152600e60248201526d696e76616c696420706172616d7360901b60448201526064016108d0565b600042815b84518110156110725760006001600160a01b0316858281518110610d6057610d60613372565b60200260200101516001600160a01b031603610d7b57600080fd5b610d836108d9565b848281518110610d9557610d95613372565b60200260200101511015610da857600080fd5b610db06108d9565b610db86108d9565b858381518110610dca57610dca613372565b6020026020010151610ddc91906133d0565b610de691906133e4565b925082610e101480610df9575082611c20145b80610e05575082613840145b80610e11575082617080145b15611008576000610e24617080846133d0565b610e30906170806133e4565b610e3a90846133fb565b9050600060046000888581518110610e5457610e54613372565b60200260200101516001600160a01b03166001600160a01b031681526020019081526020016000205490506000858211610e8e5781610e90565b855b90508015801590610ea15750808310155b15610ef557610ed1888581518110610ebb57610ebb613372565b60200260200101516001600160a01b0316611a89565b610eda8761196c565b610ee38361196c565b6040516020016108aa9392919061340e565b878481518110610f0757610f07613372565b60200260200101516001600160a01b0316633f70d4426040518163ffffffff1660e01b8152600401600060405180830381600087803b158015610f4957600080fd5b505af1158015610f5d573d6000803e3d6000fd5b5050505085600460008a8781518110610f7857610f78613372565b60200260200101516001600160a01b03166001600160a01b0316815260200190815260200160002081905550878481518110610fb657610fb6613372565b60200260200101516001600160a01b03167f014f9b627a46d0881111664e681522272907a49b31cc3f24613bdad2c551825c87604051610ff891815260200190565b60405180910390a2505050611060565b60405162461bcd60e51b815260206004820152602760248201527f696e74657276616c2063616e206265206f6e6c79205b312c20322c20342c20386044820152665d20686f75727360c81b60648201526084016108d0565b8061106a816133a1565b915050610d3a565b5050505050565b61071260096109a9565b600a81511461109157600080fd5b60005b8151811015610417576110c0818383815181106110b3576110b3613372565b60200260200101516119ff565b806110ca816133a1565b915050611094565b60006005816108e0565b6000600560016108e0565b6002546040516334f32e2560e01b81526001600160a01b038681166004830152831515602483015260009283929116906334f32e2590604401602060405180830381865afa15801561113d573d6000803e3d6000fd5b505050506040513d601f19601f820116820180604052508101906111619190613388565b905061116e858583611a9f565b9695505050505050565b6000600560026108e0565b80518251146111c55760405162461bcd60e51b815260206004820152600e60248201526d696e76616c696420706172616d7360901b60448201526064016108d0565b6000805b83518110156113285760006001600160a01b03168482815181106111ef576111ef613372565b60200260200101516001600160a01b03160361120a57600080fd5b6112126108d9565b83828151811061122457611224613372565b6020026020010151101561123757600080fd5b61123f6108d9565b6112476108d9565b84838151811061125957611259613372565b602002602001015161126b91906133d0565b61127591906133e4565b9150816006600086848151811061128e5761128e613372565b60200260200101516001600160a01b03166001600160a01b03168152602001908152602001600020819055508381815181106112cc576112cc613372565b60200260200101516001600160a01b03167f1b8e6b844a5201ce0d37b6d92b871ff8ee5aede9e47593abc68ce8b2d1d25b888360405161130e91815260200190565b60405180910390a280611320816133a1565b9150506111c9565b50505050565b6000600560086108e0565b600081116113795760405162461bcd60e51b815260206004820152600d60248201526c1a5b9d985b1a59081b1a5b5a5d609a1b60448201526064016108d0565b61071260046109a9565b61071260026109a9565b60035460408051637616480b60e11b815290516000926001600160a01b0316918391839163ec2c901691600480830192869291908290030181865afa1580156113da573d6000803e3d6000fd5b505050506040513d6000823e601f3d908101601f1916820160405261140291908101906134ef565b905060005b815181101561152857826001600160a01b031663d37c441c6040518163ffffffff1660e01b8152600401602060405180830381865afa15801561144e573d6000803e3d6000fd5b505050506040513d601f19601f820116820180604052508101906114729190613664565b6001600160a01b0316632b8a001283838151811061149257611492613372565b6020026020010151602001516040518263ffffffff1660e01b81526004016114c991906001600160a01b0391909116815260200190565b602060405180830381865afa1580156114e6573d6000803e3d6000fd5b505050506040513d601f19601f8201168201806040525081019061150a9190613388565b6115149085613273565b935080611520816133a1565b915050611407565b50505090565b61153882826133fb565b600560008154811061154c5761154c613372565b9060005260206000200160008282546115659190613273565b9091555050604051819083907fbb67e50fdd1f174a20c4f1e0e5b9ab3984685f30623b89b69ba068a11ce913b690600090a35050565b6000600560096108e0565b600054610100900460ff16158080156115c65750600054600160ff909116105b806115e05750303b1580156115e0575060005460ff166001145b6116435760405162461bcd60e51b815260206004820152602e60248201527f496e697469616c697a61626c653a20636f6e747261637420697320616c72656160448201526d191e481a5b9a5d1a585b1a5e995960921b60648201526084016108d0565b6000805460ff191660011790558015611666576000805461ff0019166101001790555b6001600160a01b0382166116af5760405162461bcd60e51b815260206004820152601060248201526f1a5b9d985b1a590819995955985d5b1d60821b60448201526064016108d0565b6116b833611ace565b6040805160c88082526119208201909252906020820161190080368337505081516116ea926005925060200190612d1c565b506305f5e100600560018154811061170457611704613372565b6000918252602090912001556305f5e100600560028154811061172957611729613372565b6000918252602090912001556104e2600560048154811061174c5761174c613372565b600091825260209091200155600280546001600160a01b0319166001600160a01b0384161790556117806006610e106119ff565b61178e6009629896806119ff565b8015610417576000805461ff0019169055604051600181527f7f26b83ff96e1f2b6a682f133852f6798a09c465da95921460cefb38474024989060200160405180910390a15050565b61107283838342611881565b6001600160a01b038216600090815260096020526040812080549183919061180b8385613273565b90915550506001600160a01b0383166000818152600960209081526040918290205482518681529182018590528183015290517ff92e4260a5a0861b750596d87de06d7f097df50397fa2af2d7d33d9c6d8674589181900360600190a2505050565b61071260076109a9565b61071260066109a9565b611889612d63565b611891612daf565b61189c868686611ad5565b91506000806000806118c0898989896118b361132e565b6118bb61159b565b611c56565b935093509350935080156118d9576118d983838c611f0a565b6080840151156118ee576118ee86858c611fd5565b50919250505094509492505050565b60025460405163d8f897c360e01b81526001600160a01b038381166004830152600092169063d8f897c390602401602060405180830381865afa158015611948573d6000803e3d6000fd5b505050506040513d601f19601f820116820180604052508101906109879190613388565b606060006119798361206a565b600101905060008167ffffffffffffffff81111561199957611999612f41565b6040519080825280601f01601f1916602001820160405280156119c3576020820181803683370190505b5090508181016020015b600019016f181899199a1a9b1b9c1cb0b131b232b360811b600a86061a8153600a85049450846119cd57509392505050565b600060058381548110611a1457611a14613372565b906000526020600020015490508160058481548110611a3557611a35613372565b600091825260209182902001919091556040805185815291820183905281018390527f7ee20b53ffb80d74dc08be0adedf33c8fa93e5b44eb347a27eedd30c3d6bc35c9060600160405180910390a1505050565b60606109876001600160a01b0383166014612142565b60006305f5e100611ab08484613681565b611aba90866136a8565b611ac491906136d8565b90505b9392505050565b4260015550565b611add612d63565b6001600160a01b0384166000908152600660205260408120548083529003611b0557610e1081525b6001600160a01b03841660009081526004602090815260408220549083018190529003611b355761708060208201525b6001600160a01b038416600090815260076020526040908190205490820152611b5d846118fd565b6060820181905260408201511015611b7a57606081015160408201525b6001600160a01b03841660008181526009602090815260408083205461010086015292825260088152828220600183528082528383205460e08601528280529052205460c082015260058054611c459185918591906003908110611be057611be0613372565b600091825260209091200154600580546004908110611c0157611c01613372565b9060005260206000200154611c15896122de565b611c208a8a8a6123df565b600580546007908110611c3557611c35613372565b90600052602060002001546123fc565b608083015260a08201529392505050565b611c5e612daf565b611c66612d63565b611c6e612daf565b6000611c7987612449565b9350611c8687858a612494565b90508015611e6a57611c9887856124fb565b15611cb457611ca7878561252f565b611cb4848b8b89896125c2565b611cbf878986612669565b15611cfe57611cce878561269c565b60005b8460600151811015611cfc57611cea858c8c8a8a6125c2565b80611cf4816133a1565b915050611cd1565b505b83604051602001611da09190815181526020808301519082015260408083015190820152606080830151908201526080808301519082015260a0808301519082015260c0808301519082015260e08083015190820152610100808301519082015261012080830151908201526101408083015190820152610160808301519082015261018080830151908201526101a091820151918101919091526101c00190565b604051602081830303815290604052806020019051810190611dc29190613706565b915086604051602001611e359190600061012082019050825182526020830151602083015260408301516040830152606083015160608301526080830151608083015260a083015160a083015260c083015160c083015260e083015160e083015261010080840151818401525092915050565b604051602081830303815290604052806020019051810190611e5791906137bd565b6000610120860181905261010086015292505b611e758789866126f8565b15611efd5760808401518751611e8b91906133e4565b8460a001818151611e9c9190613273565b905250608084015160a0880151611ebb91611eb6916133e4565b61273b565b8461012001818151611ecd9190613838565b90525060808085015190880151611ee791611eb6916133e4565b8461010001818151611ef99190613838565b9052505b9650965096509692505050565b611f2a818360000151856101000151611f2391906133fb565b84516127a9565b6002546101408301516101608401516101a085015161018086015160a087015160405163b21bf2d360e01b81526001600160a01b038881166004830152602482019690965260448101949094526064840192909252608483015260a482015291169063b21bf2d39060c401600060405180830381600087803b158015611faf57600080fd5b505af1158015611fc3573d6000803e3d6000fd5b50505050610bd8818360a00151612822565b60a0830180516001600160a01b0383166000818152600a6020908152604080832060018452825280832094909455608088018051838052928590209290925593519051835191825293810193909352917f8bfe8b5c73740b3875e694ce9425829dc01970e61b7edbe2b3c2d379328bab72910160405180910390a2610bd8818361012001518461010001518560a001516128dd565b60008072184f03e93ff9f4daa797ed6e38ed64bf6a1f0160401b83106120a95772184f03e93ff9f4daa797ed6e38ed64bf6a1f0160401b830492506040015b6d04ee2d6d415b85acef810000000083106120d5576d04ee2d6d415b85acef8100000000830492506020015b662386f26fc1000083106120f357662386f26fc10000830492506010015b6305f5e100831061210b576305f5e100830492506008015b612710831061211f57612710830492506004015b60648310612131576064830492506002015b600a83106109875760010192915050565b606060006121518360026133e4565b61215c906002613273565b67ffffffffffffffff81111561217457612174612f41565b6040519080825280601f01601f19166020018201604052801561219e576020820181803683370190505b509050600360fc1b816000815181106121b9576121b9613372565b60200101906001600160f81b031916908160001a905350600f60fb1b816001815181106121e8576121e8613372565b60200101906001600160f81b031916908160001a905350600061220c8460026133e4565b612217906001613273565b90505b600181111561228f576f181899199a1a9b1b9c1cb0b131b232b360811b85600f166010811061224b5761224b613372565b1a60f81b82828151811061226157612261613372565b60200101906001600160f81b031916908160001a90535060049490941c9361228881613860565b905061221a565b5083156109845760405162461bcd60e51b815260206004820181905260248201527f537472696e67733a20686578206c656e67746820696e73756666696369656e7460448201526064016108d0565b6003546000906001600160a01b0316816122f661138d565b90506000826001600160a01b031663d37c441c6040518163ffffffff1660e01b8152600401602060405180830381865afa158015612338573d6000803e3d6000fd5b505050506040513d601f19601f8201168201806040525081019061235c9190613664565b6001600160a01b0316636dc7b0a16040518163ffffffff1660e01b8152600401602060405180830381865afa158015612399573d6000803e3d6000fd5b505050506040513d601f19601f820116820180604052508101906123bd9190613388565b905060006123ca8661299a565b905061116e83836123d96110dc565b846129a7565b6000611ac483836123ef8761299a565b6123f7611178565b6129fd565b600080861561240b578661240d565b845b96508684111561241b578693505b85841015612427578593505b87891015612436578284612439565b83835b9150915097509795505050505050565b612451612daf565b8151602083015161246291906133d0565b602082015260e082015161012082015260c082015161010080830191909152604083015160a083015290910151815290565b60008260a001516000036124c85760208401516124b181846133d0565b6124bb91906133e4565b60a0840152506001611ac7565b8260a001518210156124dc57506000611ac7565b81846020015185606001516124f19190613273565b1115949350505050565b81516060830151604084015160009291612514916133fb565b61251e91906133d0565b604083018190521515905092915050565b816020015182606001516125439190613273565b60a08201526040810151602082015161256e9161255f916133fb565b8360a00151611eb691906133e4565b8260e0015161257d9190613838565b610120820152604081015160208201516125a99161259a916133fb565b8360800151611eb691906133e4565b8260c001516125b89190613838565b6101009091015250565b60006125d986610120015187610100015185612aae565b90506125f886610120015187610100015183858a600001518a8a612ace565b60c089015261016088015261014087018190526101a08701805161261d908390613838565b90525061016086015161018087018051612638908390613838565b90525060c086015186511161264e57600061265f565b60c0860151865161265f91906133fb565b9095525050505050565b600083602001518260a001518461268091906133fb565b61268a91906133d0565b60608301819052151590509392505050565b806060015182602001516126b091906133e4565b8160a0018181516126c19190613273565b905250602081015160a08301516126db91611eb6916133e4565b610120820152602081015160808301516125b891611eb6916133e4565b60008160a0015183101561270e57506000611ac7565b835160a083015161271f90856133fb565b61272991906133d0565b60808301819052151590509392505050565b60006001600160ff1b038211156127a55760405162461bcd60e51b815260206004820152602860248201527f53616665436173743a2076616c756520646f65736e27742066697420696e2061604482015267371034b73a191a9b60c11b60648201526084016108d0565b5090565b6001600160a01b038316600081815260096020908152604091829020548251868152918201529081018390527f46688c57894e3513fd67b19c1f09ffe6b4a24062d8d29e580ba554fe4384c0e09060600160405180910390a26001600160a01b0390921660009081526009602052604090209190915550565b6001600160a01b0382166000818152600860209081526040808320600184528252808320839055828052808320839055838352600782528083208590558051838152918201929092527f18c1e75c2355914e05f0e3d65be88099e2489e17f7a307d0adc3a22239b4667f910160405180910390a2816001600160a01b03167f5e6f1d9aee6db6f0c00c16081ad195c05424762f100ab07c4fdbe9fde1d42a6c826040516128d191815260200190565b60405180910390a25050565b6001600160a01b0384166000818152600860209081526040808320600184528252808320879055828052808320869055838352600782529182902084905581518681529081018590527f18c1e75c2355914e05f0e3d65be88099e2489e17f7a307d0adc3a22239b4667f910160405180910390a2836001600160a01b03167f5e6f1d9aee6db6f0c00c16081ad195c05424762f100ab07c4fdbe9fde1d42a6c8260405161298c91815260200190565b60405180910390a250505050565b6000610987826006612bf8565b600080610e106305f5e10060188782886129c1898d6133e4565b6129cb91906133e4565b6129d591906133e4565b6129df91906133d0565b6129e991906133d0565b6129f391906133d0565b61116e91906133d0565b600080612a0a8686612c22565b90506000811561116e576000612a208789613273565b905080612a316305f5e100856133e4565b612a3b91906133d0565b9150610e10601860646305f5e10089612a5560028861395b565b612a5f91906133e4565b612a6991906133d0565b612a7391906133d0565b612a7d91906133d0565b612a8791906133d0565b91506305f5e100612a9886846133e4565b612aa291906133d0565b98975050505050505050565b6000612ac2612abd8585612c46565b612c63565b9050611ac48183612cb5565b600080600080600086118015612ae45750600085115b9050898b12612b6e57612af9868a8a8a612ccb565b9150612b048961273b565b93508015612b6957612b158561273b565b612b226305f5e10061273b565b612b2b8461273b565b612b3591906136a8565b85612b3f8961273b565b612b4991906136a8565b612b539190613681565b612b5c90613286565b612b6691906136d8565b92505b612bea565b612b7a858a8a8a612ccb565b9150612b858961273b565b92508015612bea57612b968661273b565b612ba36305f5e10061273b565b612bac8461273b565b612bb691906136a8565b84612bc08861273b565b612bca91906136a8565b612bd49190613681565b612bdd90613286565b612be791906136d8565b93505b509750975097945050505050565b6001600160a01b038216600090815260208290526040812054908190036109875750610e10610987565b6000818310612c3c57612c3582846133fb565b9050610987565b612c3583836133fb565b6000818312612c5957612c358284613681565b612c358383613681565b6000808212156127a55760405162461bcd60e51b815260206004820181905260248201527f53616665436173743a2076616c7565206d75737420626520706f73697469766560448201526064016108d0565b6000818311612cc45781610984565b5090919050565b6000612d04612cdf60026305f5e10061395b565b84612cea87896133e4565b612cf491906133e4565b612cfe91906133d0565b83612d0d565b95945050505050565b6000818310612cc45781610984565b828054828255906000526020600020908101928215612d57579160200282015b82811115612d57578251825591602001919060010190612d3c565b506127a5929150612e1e565b6040518061012001604052806000815260200160008152602001600081526020016000815260200160008152602001600081526020016000815260200160008152602001600081525090565b604051806101c0016040528060008152602001600081526020016000815260200160008152602001600081526020016000815260200160008152602001600081526020016000815260200160008152602001600081526020016000815260200160008152602001600081525090565b5b808211156127a55760008155600101612e1f565b600060208284031215612e4557600080fd5b5035919050565b6001600160a01b038116811461071257600080fd5b600080600060608486031215612e7657600080fd5b8335612e8181612e4c565b95602085013595506040909401359392505050565b600060208284031215612ea857600080fd5b813561098481612e4c565b60008060408385031215612ec657600080fd5b50508035926020909101359150565b801515811461071257600080fd5b60008060408385031215612ef657600080fd5b8235612f0181612e4c565b91506020830135612f1181612ed5565b809150509250929050565b60008060408385031215612f2f57600080fd5b823591506020830135612f1181612e4c565b634e487b7160e01b600052604160045260246000fd5b60405160a0810167ffffffffffffffff81118282101715612f7a57612f7a612f41565b60405290565b6040516101c0810167ffffffffffffffff81118282101715612f7a57612f7a612f41565b604051610120810167ffffffffffffffff81118282101715612f7a57612f7a612f41565b604051601f8201601f1916810167ffffffffffffffff81118282101715612ff157612ff1612f41565b604052919050565b600067ffffffffffffffff82111561301357613013612f41565b5060051b60200190565b600082601f83011261302e57600080fd5b8135602061304361303e83612ff9565b612fc8565b82815260059290921b8401810191818101908684111561306257600080fd5b8286015b8481101561307d5780358352918301918301613066565b509695505050505050565b600082601f83011261309957600080fd5b813560206130a961303e83612ff9565b82815260059290921b840181019181810190868411156130c857600080fd5b8286015b8481101561307d5780356130df81612e4c565b83529183019183016130cc565b600080604083850312156130ff57600080fd5b823567ffffffffffffffff8082111561311757600080fd5b6131238683870161301d565b9350602085013591508082111561313957600080fd5b5061314685828601613088565b9150509250929050565b6000806040838503121561316357600080fd5b823567ffffffffffffffff8082111561317b57600080fd5b61318786838701613088565b9350602085013591508082111561319d57600080fd5b506131468582860161301d565b6000602082840312156131bc57600080fd5b813567ffffffffffffffff8111156131d357600080fd5b6131df8482850161301d565b949350505050565b600080600080608085870312156131fd57600080fd5b843561320881612e4c565b93506020850135925060408501359150606085013561322681612ed5565b939692955090935050565b6000806040838503121561324457600080fd5b823561324f81612e4c565b946020939093013593505050565b634e487b7160e01b600052601160045260246000fd5b808201808211156109875761098761325d565b6000600160ff1b820161329b5761329b61325d565b5060000390565b60005b838110156132bd5781810151838201526020016132a5565b50506000910152565b602d60f81b8152600082516132e28160018501602087016132a2565b9190910160010192915050565b600061232360f01b808352845161330d8160028601602089016132a2565b8084019050816002820152845161332b8160048401602089016132a2565b016004810191909152600601949350505050565b602081526000825180602084015261335e8160408501602087016132a2565b601f01601f19169190910160400192915050565b634e487b7160e01b600052603260045260246000fd5b60006020828403121561339a57600080fd5b5051919050565b6000600182016133b3576133b361325d565b5060010190565b634e487b7160e01b600052601260045260246000fd5b6000826133df576133df6133ba565b500490565b80820281158282048414176109875761098761325d565b818103818111156109875761098761325d565b600084516134208184602089016132a2565b7f277320696e74657276616c2063616e2062652073657420746f20000000000000908301908152845161345a81601a8401602089016132a2565b7f2c20627574206f6e6c79206166746572205b382c2031362c2032345d206f2763601a92909101918201526f03637b1b59030b7321034b7103a3432960851b603a82015283516134b181604a8401602088016132a2565b68207365636f6e64732160b81b604a929091019182015260530195945050505050565b80516134df81612e4c565b919050565b80516134df81612ed5565b6000602080838503121561350257600080fd5b825167ffffffffffffffff8082111561351a57600080fd5b818501915085601f83011261352e57600080fd5b815161353c61303e82612ff9565b81815260059190911b8301840190848101908883111561355b57600080fd5b8585015b838110156136575780518581111561357657600080fd5b8601601f1960a0828d038201121561358e5760008081fd5b613596612f57565b89830151888111156135a85760008081fd5b8301603f81018e136135ba5760008081fd5b8a81015160408a8211156135d0576135d0612f41565b6135e08d86601f85011601612fc8565b94508185528f818385010111156135f75760008081fd5b613606828e87018386016132a2565b8484526136148187016134d4565b8d85015260609450848601518185015250505060806136348185016134e4565b8383015261364460a085016134e4565b908201528552505091860191860161355f565b5098975050505050505050565b60006020828403121561367657600080fd5b815161098481612e4c565b81810360008312801583831316838312821617156136a1576136a161325d565b5092915050565b80820260008212600160ff1b841416156136c4576136c461325d565b81810583148215176109875761098761325d565b6000826136e7576136e76133ba565b600160ff1b8214600019841416156137015761370161325d565b500590565b60006101c0828403121561371957600080fd5b613721612f80565b825181526020830151602082015260408301516040820152606083015160608201526080830151608082015260a083015160a082015260c083015160c082015260e083015160e08201526101008084015181830152506101208084015181830152506101408084015181830152506101608084015181830152506101808084015181830152506101a08084015181830152508091505092915050565b600061012082840312156137d057600080fd5b6137d8612fa4565b825181526020830151602082015260408301516040820152606083015160608201526080830151608082015260a083015160a082015260c083015160c082015260e083015160e08201526101008084015181830152508091505092915050565b80820182811260008312801582168215821617156138585761385861325d565b505092915050565b60008161386f5761386f61325d565b506000190190565b600181815b808511156138b25781600019048211156138985761389861325d565b808516156138a557918102915b93841c939080029061387c565b509250929050565b6000826138c957506001610987565b816138d657506000610987565b81600181146138ec57600281146138f657613912565b6001915050610987565b60ff8411156139075761390761325d565b50506001821b610987565b5060208310610133831016604e8410600b8410161715613935575081810a610987565b61393f8383613877565b80600019048211156139535761395361325d565b029392505050565b600061098460ff8416836138ba56fea26469706673582212207f92a1fcb03cf7538a626a52252a894f05b857dd9b6f711b70ea61ce4d0fc34964736f6c63430008110033",
  "linkReferences": {},
  "deployedLinkReferences": {}
}