{
  "_format": "hh-sol-artifact-1",
  "contractName": "FundFee",
  "sourceName": "contracts/fee/FundFee.sol",
  "abi": [
    {
      "anonymous": false,
      "inputs": [
        {
          "indexed": true,
          "internalType": "address",
          "name": "market",
          "type": "address"
        },
        {
          "indexed": false,
          "internalType": "uint256",
          "name": "amount",
          "type": "uint256"
        },
        {
          "indexed": false,
          "internalType": "uint256",
          "name": "lossBefore",
          "type": "uint256"
        },
        {
          "indexed": false,
          "internalType": "uint256",
          "name": "lossAfter",
          "type": "uint256"
        }
      ],
      "name": "AddNegativeFeeLoss",
      "type": "event"
    },
    {
      "anonymous": false,
      "inputs": [
        {
          "indexed": true,
          "internalType": "address",
          "name": "market",
          "type": "address"
        },
        {
          "indexed": false,
          "internalType": "uint256",
          "name": "deductAmount",
          "type": "uint256"
        },
        {
          "indexed": false,
          "internalType": "uint256",
          "name": "lossBefore",
          "type": "uint256"
        },
        {
          "indexed": false,
          "internalType": "uint256",
          "name": "lossAfter",
          "type": "uint256"
        }
      ],
      "name": "AddPositiveFeeLoss",
      "type": "event"
    },
    {
      "anonymous": false,
      "inputs": [
        {
          "indexed": true,
          "internalType": "uint256",
          "name": "startTime",
          "type": "uint256"
        },
        {
          "indexed": true,
          "internalType": "uint256",
          "name": "endTime",
          "type": "uint256"
        }
      ],
      "name": "AddSkipTime",
      "type": "event"
    },
    {
      "anonymous": false,
      "inputs": [
        {
          "indexed": false,
          "internalType": "uint8",
          "name": "version",
          "type": "uint8"
        }
      ],
      "name": "Initialized",
      "type": "event"
    },
    {
      "anonymous": false,
      "inputs": [
        {
          "indexed": true,
          "internalType": "address",
          "name": "previousOwner",
          "type": "address"
        },
        {
          "indexed": true,
          "internalType": "address",
          "name": "newOwner",
          "type": "address"
        }
      ],
      "name": "OwnershipTransferred",
      "type": "event"
    },
    {
      "anonymous": false,
      "inputs": [
        {
          "indexed": true,
          "internalType": "bytes32",
          "name": "role",
          "type": "bytes32"
        },
        {
          "indexed": true,
          "internalType": "bytes32",
          "name": "previousAdminRole",
          "type": "bytes32"
        },
        {
          "indexed": true,
          "internalType": "bytes32",
          "name": "newAdminRole",
          "type": "bytes32"
        }
      ],
      "name": "RoleAdminChanged",
      "type": "event"
    },
    {
      "anonymous": false,
      "inputs": [
        {
          "indexed": true,
          "internalType": "bytes32",
          "name": "role",
          "type": "bytes32"
        },
        {
          "indexed": true,
          "internalType": "address",
          "name": "account",
          "type": "address"
        },
        {
          "indexed": true,
          "internalType": "address",
          "name": "sender",
          "type": "address"
        }
      ],
      "name": "RoleGranted",
      "type": "event"
    },
    {
      "anonymous": false,
      "inputs": [
        {
          "indexed": true,
          "internalType": "bytes32",
          "name": "role",
          "type": "bytes32"
        },
        {
          "indexed": true,
          "internalType": "address",
          "name": "account",
          "type": "address"
        },
        {
          "indexed": true,
          "internalType": "address",
          "name": "sender",
          "type": "address"
        }
      ],
      "name": "RoleRevoked",
      "type": "event"
    },
    {
      "anonymous": false,
      "inputs": [
        {
          "indexed": false,
          "internalType": "address",
          "name": "market",
          "type": "address"
        },
        {
          "indexed": false,
          "internalType": "uint256",
          "name": "updatedAt",
          "type": "uint256"
        }
      ],
      "name": "SetUpdateAt",
      "type": "event"
    },
    {
      "anonymous": false,
      "inputs": [
        {
          "indexed": true,
          "internalType": "address",
          "name": "market",
          "type": "address"
        },
        {
          "indexed": false,
          "internalType": "int256",
          "name": "longRate",
          "type": "int256"
        },
        {
          "indexed": false,
          "internalType": "int256",
          "name": "shortRate",
          "type": "int256"
        }
      ],
      "name": "UpdateCalFundRates",
      "type": "event"
    },
    {
      "anonymous": false,
      "inputs": [
        {
          "indexed": true,
          "internalType": "address",
          "name": "market",
          "type": "address"
        },
        {
          "indexed": false,
          "internalType": "uint256",
          "name": "interval",
          "type": "uint256"
        }
      ],
      "name": "UpdateCalInterval",
      "type": "event"
    },
    {
      "anonymous": false,
      "inputs": [
        {
          "indexed": false,
          "internalType": "uint256",
          "name": "index",
          "type": "uint256"
        },
        {
          "indexed": false,
          "internalType": "uint256",
          "name": "oldFRate",
          "type": "uint256"
        },
        {
          "indexed": false,
          "internalType": "uint256",
          "name": "newFRate",
          "type": "uint256"
        }
      ],
      "name": "UpdateConfig",
      "type": "event"
    },
    {
      "anonymous": false,
      "inputs": [
        {
          "indexed": true,
          "internalType": "address",
          "name": "market",
          "type": "address"
        },
        {
          "indexed": false,
          "internalType": "uint256",
          "name": "interval",
          "type": "uint256"
        }
      ],
      "name": "UpdateFundInterval",
      "type": "event"
    },
    {
      "anonymous": false,
      "inputs": [
        {
          "indexed": true,
          "internalType": "address",
          "name": "market",
          "type": "address"
        },
        {
          "indexed": false,
          "internalType": "uint256",
          "name": "longRate",
          "type": "uint256"
        },
        {
          "indexed": false,
          "internalType": "uint256",
          "name": "shortRate",
          "type": "uint256"
        }
      ],
      "name": "UpdateLastCalRate",
      "type": "event"
    },
    {
      "anonymous": false,
      "inputs": [
        {
          "indexed": true,
          "internalType": "address",
          "name": "market",
          "type": "address"
        },
        {
          "indexed": false,
          "internalType": "uint256",
          "name": "timestamp",
          "type": "uint256"
        }
      ],
      "name": "UpdateLastCalTime",
      "type": "event"
    },
    {
      "inputs": [],
      "name": "DEFAULT_ADMIN_ROLE",
      "outputs": [
        {
          "internalType": "bytes32",
          "name": "",
          "type": "bytes32"
        }
      ],
      "stateMutability": "view",
      "type": "function"
    },
    {
      "inputs": [],
      "name": "FEERATEPRECISION",
      "outputs": [
        {
          "internalType": "uint256",
          "name": "",
          "type": "uint256"
        }
      ],
      "stateMutability": "view",
      "type": "function"
    },
    {
      "inputs": [
        {
          "internalType": "address",
          "name": "market",
          "type": "address"
        },
        {
          "internalType": "uint256",
          "name": "a",
          "type": "uint256"
        }
      ],
      "name": "addFeeLoss",
      "outputs": [],
      "stateMutability": "nonpayable",
      "type": "function"
    },
    {
      "inputs": [
        {
          "internalType": "uint256",
          "name": "start",
          "type": "uint256"
        },
        {
          "internalType": "uint256",
          "name": "end",
          "type": "uint256"
        }
      ],
      "name": "addSkipTime",
      "outputs": [],
      "stateMutability": "nonpayable",
      "type": "function"
    },
    {
      "inputs": [
        {
          "internalType": "address",
          "name": "",
          "type": "address"
        },
        {
          "internalType": "bool",
          "name": "",
          "type": "bool"
        }
      ],
      "name": "calFundingRates",
      "outputs": [
        {
          "internalType": "int256",
          "name": "",
          "type": "int256"
        }
      ],
      "stateMutability": "view",
      "type": "function"
    },
    {
      "inputs": [
        {
          "internalType": "address",
          "name": "",
          "type": "address"
        }
      ],
      "name": "calIntervals",
      "outputs": [
        {
          "internalType": "uint256",
          "name": "",
          "type": "uint256"
        }
      ],
      "stateMutability": "view",
      "type": "function"
    },
    {
      "inputs": [
        {
          "internalType": "uint256",
          "name": "",
          "type": "uint256"
        }
      ],
      "name": "configs",
      "outputs": [
        {
          "internalType": "uint256",
          "name": "",
          "type": "uint256"
        }
      ],
      "stateMutability": "view",
      "type": "function"
    },
    {
      "inputs": [],
      "name": "fRateFactor",
      "outputs": [
        {
          "internalType": "uint256",
          "name": "",
          "type": "uint256"
        }
      ],
      "stateMutability": "view",
      "type": "function"
    },
    {
      "inputs": [],
      "name": "feeVault",
      "outputs": [
        {
          "internalType": "address",
          "name": "",
          "type": "address"
        }
      ],
      "stateMutability": "view",
      "type": "function"
    },
    {
      "inputs": [
        {
          "internalType": "address",
          "name": "",
          "type": "address"
        }
      ],
      "name": "fundFeeLoss",
      "outputs": [
        {
          "internalType": "uint256",
          "name": "",
          "type": "uint256"
        }
      ],
      "stateMutability": "view",
      "type": "function"
    },
    {
      "inputs": [
        {
          "internalType": "address",
          "name": "market",
          "type": "address"
        }
      ],
      "name": "fundingFeeLoss",
      "outputs": [
        {
          "internalType": "uint256",
          "name": "",
          "type": "uint256"
        }
      ],
      "stateMutability": "view",
      "type": "function"
    },
    {
      "inputs": [],
      "name": "fundingFeeLossOffLimit",
      "outputs": [
        {
          "internalType": "uint256",
          "name": "",
          "type": "uint256"
        }
      ],
      "stateMutability": "view",
      "type": "function"
    },
    {
      "inputs": [
        {
          "internalType": "address",
          "name": "",
          "type": "address"
        }
      ],
      "name": "fundingIntervals",
      "outputs": [
        {
          "internalType": "uint256",
          "name": "",
          "type": "uint256"
        }
      ],
      "stateMutability": "view",
      "type": "function"
    },
    {
      "inputs": [
        {
          "internalType": "address",
          "name": "market",
          "type": "address"
        }
      ],
      "name": "getCalFundingRates",
      "outputs": [
        {
          "internalType": "int256",
          "name": "",
          "type": "int256"
        },
        {
          "internalType": "int256",
          "name": "",
          "type": "int256"
        }
      ],
      "stateMutability": "view",
      "type": "function"
    },
    {
      "inputs": [
        {
          "internalType": "address",
          "name": "market",
          "type": "address"
        },
        {
          "internalType": "uint256",
          "name": "size",
          "type": "uint256"
        },
        {
          "internalType": "int256",
          "name": "entryFundingRate",
          "type": "int256"
        },
        {
          "internalType": "bool",
          "name": "isLong",
          "type": "bool"
        }
      ],
      "name": "getFundingFee",
      "outputs": [
        {
          "internalType": "int256",
          "name": "",
          "type": "int256"
        }
      ],
      "stateMutability": "view",
      "type": "function"
    },
    {
      "inputs": [
        {
          "internalType": "address",
          "name": "market",
          "type": "address"
        },
        {
          "internalType": "bool",
          "name": "isLong",
          "type": "bool"
        }
      ],
      "name": "getFundingRate",
      "outputs": [
        {
          "internalType": "int256",
          "name": "",
          "type": "int256"
        }
      ],
      "stateMutability": "view",
      "type": "function"
    },
    {
      "inputs": [],
      "name": "getGlobalOpenInterest",
      "outputs": [
        {
          "internalType": "uint256",
          "name": "_globalSize",
          "type": "uint256"
        }
      ],
      "stateMutability": "view",
      "type": "function"
    },
    {
      "inputs": [
        {
          "internalType": "address",
          "name": "market",
          "type": "address"
        },
        {
          "internalType": "uint256",
          "name": "longSize",
          "type": "uint256"
        },
        {
          "internalType": "uint256",
          "name": "shortSize",
          "type": "uint256"
        }
      ],
      "name": "getNextFundingRate",
      "outputs": [],
      "stateMutability": "nonpayable",
      "type": "function"
    },
    {
      "inputs": [
        {
          "internalType": "bytes32",
          "name": "role",
          "type": "bytes32"
        }
      ],
      "name": "getRoleAdmin",
      "outputs": [
        {
          "internalType": "bytes32",
          "name": "",
          "type": "bytes32"
        }
      ],
      "stateMutability": "view",
      "type": "function"
    },
    {
      "inputs": [],
      "name": "getSkipTime",
      "outputs": [
        {
          "internalType": "uint256",
          "name": "totalSkip",
          "type": "uint256"
        }
      ],
      "stateMutability": "view",
      "type": "function"
    },
    {
      "inputs": [
        {
          "internalType": "address",
          "name": "_account",
          "type": "address"
        }
      ],
      "name": "grantControllerRoleByMarketManager",
      "outputs": [],
      "stateMutability": "nonpayable",
      "type": "function"
    },
    {
      "inputs": [
        {
          "internalType": "bytes32",
          "name": "role",
          "type": "bytes32"
        },
        {
          "internalType": "address",
          "name": "account",
          "type": "address"
        }
      ],
      "name": "grantRole",
      "outputs": [],
      "stateMutability": "nonpayable",
      "type": "function"
    },
    {
      "inputs": [
        {
          "internalType": "bytes32",
          "name": "role",
          "type": "bytes32"
        },
        {
          "internalType": "address",
          "name": "account",
          "type": "address"
        }
      ],
      "name": "hasRole",
      "outputs": [
        {
          "internalType": "bool",
          "name": "",
          "type": "bool"
        }
      ],
      "stateMutability": "view",
      "type": "function"
    },
    {
      "inputs": [
        {
          "internalType": "address",
          "name": "_feeVault",
          "type": "address"
        }
      ],
      "name": "initialize",
      "outputs": [],
      "stateMutability": "nonpayable",
      "type": "function"
    },
    {
      "inputs": [
        {
          "internalType": "address",
          "name": "",
          "type": "address"
        },
        {
          "internalType": "bool",
          "name": "",
          "type": "bool"
        }
      ],
      "name": "lastCalRate",
      "outputs": [
        {
          "internalType": "uint256",
          "name": "",
          "type": "uint256"
        }
      ],
      "stateMutability": "view",
      "type": "function"
    },
    {
      "inputs": [
        {
          "internalType": "address",
          "name": "",
          "type": "address"
        }
      ],
      "name": "lastCalTimes",
      "outputs": [
        {
          "internalType": "uint256",
          "name": "",
          "type": "uint256"
        }
      ],
      "stateMutability": "view",
      "type": "function"
    },
    {
      "inputs": [],
      "name": "marketReader",
      "outputs": [
        {
          "internalType": "address",
          "name": "",
          "type": "address"
        }
      ],
      "stateMutability": "view",
      "type": "function"
    },
    {
      "inputs": [],
      "name": "maxFRate",
      "outputs": [
        {
          "internalType": "uint256",
          "name": "",
          "type": "uint256"
        }
      ],
      "stateMutability": "view",
      "type": "function"
    },
    {
      "inputs": [],
      "name": "maxFRatePerDay",
      "outputs": [
        {
          "internalType": "uint256",
          "name": "",
          "type": "uint256"
        }
      ],
      "stateMutability": "view",
      "type": "function"
    },
    {
      "inputs": [],
      "name": "minCFRate",
      "outputs": [
        {
          "internalType": "uint256",
          "name": "",
          "type": "uint256"
        }
      ],
      "stateMutability": "view",
      "type": "function"
    },
    {
      "inputs": [],
      "name": "minFRate",
      "outputs": [
        {
          "internalType": "uint256",
          "name": "",
          "type": "uint256"
        }
      ],
      "stateMutability": "view",
      "type": "function"
    },
    {
      "inputs": [],
      "name": "minFundingInterval",
      "outputs": [
        {
          "internalType": "uint256",
          "name": "",
          "type": "uint256"
        }
      ],
      "stateMutability": "view",
      "type": "function"
    },
    {
      "inputs": [],
      "name": "minorityFRate",
      "outputs": [
        {
          "internalType": "uint256",
          "name": "",
          "type": "uint256"
        }
      ],
      "stateMutability": "view",
      "type": "function"
    },
    {
      "inputs": [],
      "name": "owner",
      "outputs": [
        {
          "internalType": "address",
          "name": "",
          "type": "address"
        }
      ],
      "stateMutability": "view",
      "type": "function"
    },
    {
      "inputs": [],
      "name": "renounceOwnership",
      "outputs": [],
      "stateMutability": "nonpayable",
      "type": "function"
    },
    {
      "inputs": [
        {
          "internalType": "bytes32",
          "name": "role",
          "type": "bytes32"
        },
        {
          "internalType": "address",
          "name": "account",
          "type": "address"
        }
      ],
      "name": "renounceRole",
      "outputs": [],
      "stateMutability": "nonpayable",
      "type": "function"
    },
    {
      "inputs": [
        {
          "internalType": "bytes32",
          "name": "role",
          "type": "bytes32"
        },
        {
          "internalType": "address",
          "name": "account",
          "type": "address"
        }
      ],
      "name": "revokeRole",
      "outputs": [],
      "stateMutability": "nonpayable",
      "type": "function"
    },
    {
      "inputs": [
        {
          "internalType": "address[]",
          "name": "markets",
          "type": "address[]"
        },
        {
          "internalType": "uint256[]",
          "name": "intervals",
          "type": "uint256[]"
        }
      ],
      "name": "setCalInterval",
      "outputs": [],
      "stateMutability": "nonpayable",
      "type": "function"
    },
    {
      "inputs": [
        {
          "internalType": "uint256",
          "name": "_idx",
          "type": "uint256"
        },
        {
          "internalType": "uint256",
          "name": "_val",
          "type": "uint256"
        }
      ],
      "name": "setConfig",
      "outputs": [],
      "stateMutability": "nonpayable",
      "type": "function"
    },
    {
      "inputs": [
        {
          "internalType": "uint256[]",
          "name": "_newCfgs",
          "type": "uint256[]"
        }
      ],
      "name": "setConfigs",
      "outputs": [],
      "stateMutability": "nonpayable",
      "type": "function"
    },
    {
      "inputs": [
        {
          "internalType": "uint256",
          "name": "x",
          "type": "uint256"
        }
      ],
      "name": "setFRateFactor",
      "outputs": [],
      "stateMutability": "nonpayable",
      "type": "function"
    },
    {
      "inputs": [
        {
          "internalType": "uint256",
          "name": "limit",
          "type": "uint256"
        }
      ],
      "name": "setFundingFeeLossOffLimit",
      "outputs": [],
      "stateMutability": "nonpayable",
      "type": "function"
    },
    {
      "inputs": [
        {
          "internalType": "address[]",
          "name": "markets",
          "type": "address[]"
        },
        {
          "internalType": "uint256[]",
          "name": "intervals",
          "type": "uint256[]"
        }
      ],
      "name": "setFundingInterval",
      "outputs": [],
      "stateMutability": "nonpayable",
      "type": "function"
    },
    {
      "inputs": [
        {
          "internalType": "address",
          "name": "_marketReader",
          "type": "address"
        }
      ],
      "name": "setMarketReader",
      "outputs": [],
      "stateMutability": "nonpayable",
      "type": "function"
    },
    {
      "inputs": [
        {
          "internalType": "uint256",
          "name": "x",
          "type": "uint256"
        }
      ],
      "name": "setMaxFRate",
      "outputs": [],
      "stateMutability": "nonpayable",
      "type": "function"
    },
    {
      "inputs": [
        {
          "internalType": "uint256",
          "name": "x",
          "type": "uint256"
        }
      ],
      "name": "setMaxFRatePerDay",
      "outputs": [],
      "stateMutability": "nonpayable",
      "type": "function"
    },
    {
      "inputs": [
        {
          "internalType": "uint256",
          "name": "limit",
          "type": "uint256"
        }
      ],
      "name": "setMinCFRate",
      "outputs": [],
      "stateMutability": "nonpayable",
      "type": "function"
    },
    {
      "inputs": [
        {
          "internalType": "uint256",
          "name": "limit",
          "type": "uint256"
        }
      ],
      "name": "setMinFRate",
      "outputs": [],
      "stateMutability": "nonpayable",
      "type": "function"
    },
    {
      "inputs": [
        {
          "internalType": "uint256",
          "name": "x",
          "type": "uint256"
        }
      ],
      "name": "setMinFundingInterval",
      "outputs": [],
      "stateMutability": "nonpayable",
      "type": "function"
    },
    {
      "inputs": [
        {
          "internalType": "uint256",
          "name": "limit",
          "type": "uint256"
        }
      ],
      "name": "setMinorityFRate",
      "outputs": [],
      "stateMutability": "nonpayable",
      "type": "function"
    },
    {
      "inputs": [
        {
          "internalType": "uint256[]",
          "name": "updatedAts",
          "type": "uint256[]"
        },
        {
          "internalType": "address[]",
          "name": "markets",
          "type": "address[]"
        }
      ],
      "name": "setUpdateAt",
      "outputs": [],
      "stateMutability": "nonpayable",
      "type": "function"
    },
    {
      "inputs": [
        {
          "internalType": "bytes4",
          "name": "interfaceId",
          "type": "bytes4"
        }
      ],
      "name": "supportsInterface",
      "outputs": [
        {
          "internalType": "bool",
          "name": "",
          "type": "bool"
        }
      ],
      "stateMutability": "view",
      "type": "function"
    },
    {
      "inputs": [
        {
          "internalType": "address",
          "name": "to",
          "type": "address"
        }
      ],
      "name": "transferAdmin",
      "outputs": [],
      "stateMutability": "nonpayable",
      "type": "function"
    },
    {
      "inputs": [
        {
          "internalType": "address",
          "name": "newOwner",
          "type": "address"
        }
      ],
      "name": "transferOwnership",
      "outputs": [],
      "stateMutability": "nonpayable",
      "type": "function"
    },
    {
      "inputs": [
        {
          "internalType": "address",
          "name": "market",
          "type": "address"
        },
        {
          "internalType": "uint256",
          "name": "longSize",
          "type": "uint256"
        },
        {
          "internalType": "uint256",
          "name": "shortSize",
          "type": "uint256"
        }
      ],
      "name": "updateCumulativeFundingRate",
      "outputs": [],
      "stateMutability": "nonpayable",
      "type": "function"
    }
  ],
  "bytecode": "0x60806040523480156200001157600080fd5b506200001d3362000023565b62000075565b600180546001600160a01b038381166001600160a01b0319831681179093556040519116919082907f8be0079c531659141344cd1fd0a4f28419497f9722a3daafe3b4186f6b6457e090600090a35050565b613cfc80620000856000396000f3fe608060405234801561001057600080fd5b506004361061035c5760003560e01c80637fe4a698116101d3578063b874970311610104578063d4681d1a116100a2578063dc5ac9951161007c578063dc5ac99514610795578063e25fefde146107a8578063f2fde38b146107bb578063fc0fd354146107ce57600080fd5b8063d4681d1a1461074f578063d547741f1461076f578063d6f5066b1461078257600080fd5b8063bf63a0a0116100de578063bf63a0a01461070e578063c418b11c14610716578063c4d66de814610729578063c6f83ad11461073c57600080fd5b8063b8749703146106e0578063bac8d9e8146106f3578063bc3d3a8b146106fb57600080fd5b806391d14854116101715780639bed226a1161014b5780639bed226a146106945780639f36dde01461069c578063a217fddf146106af578063b2b26b06146106b757600080fd5b806391d148541461066657806395d608a2146106795780639ac5d5b21461068157600080fd5b806389bff77f116101ad57806389bff77f146106325780638ac89fc21461063a5780638da5cb5b146106425780638f18af9a1461065357600080fd5b80637fe4a698146105f9578063801341a61461060c5780638698a9bd1461061f57600080fd5b80634fd39bee116102ad5780636eb5e43c1161024b57806374d57cef1161022557806374d57cef146105ab57806375829def146105b357806376239a67146105c657806378c225ce146105d957600080fd5b80636eb5e43c14610585578063715018a61461059857806372d004cf146105a057600080fd5b80635a7fdf16116102875780635a7fdf16146105095780635b7c11371461051c5780636094ee2b1461052f5780636725684f1461055a57600080fd5b80634fd39bee146104c357806350d16a29146104d65780635645d877146104e957600080fd5b806320981df41161031a5780632f2ff15d116102f45780632f2ff15d1461046a57806331021f471461047d57806336568abe14610485578063478222c21461049857600080fd5b806320981df41461042c578063248a9ca31461043f57806327d3fbf31461046257600080fd5b806298fa221461036157806301ffc9a714610387578063054aaca1146103aa5780631131cf86146103bf5780631d36a50e146103c75780631e34c58514610419575b600080fd5b61037461036f36600461319e565b6107ee565b6040519081526020015b60405180910390f35b61039a6103953660046131b7565b61080f565b604051901515815260200161037e565b6103bd6103b83660046131f6565b610846565b005b61037461096e565b6104046103d536600461322b565b6001600160a01b0316600090815260096020908152604080832060018452909152808220548280529120549091565b6040805192835260208301919091520161037e565b6103bd610427366004613248565b610994565b61037461043a366004613278565b6109b9565b61037461044d36600461319e565b60009081526020819052604090206001015490565b610374610a3a565b6103bd6104783660046132b1565b610a45565b610374610a6f565b6103bd6104933660046132b1565b610a7a565b6003546104ab906001600160a01b031681565b6040516001600160a01b03909116815260200161037e565b6103bd6104d136600461319e565b610af4565b6103bd6104e436600461319e565b610b1a565b6103746104f736600461322b565b60056020526000908152604090205481565b6103bd61051736600461319e565b610b3b565b6103bd61052a36600461322b565b610b5c565b61037461053d366004613278565b600960209081526000928352604080842090915290825290205481565b610374610568366004613278565b600b60209081526000928352604080842090915290825290205481565b6103bd610593366004613481565b610b95565b6103bd610dc1565b6103746305f5e10081565b610374610dd5565b6103bd6105c136600461322b565b610de0565b6103bd6105d43660046134e5565b610e0a565b6103746105e736600461322b565b60086020526000908152604090205481565b6103bd61060736600461322b565b610fcc565b6103bd61061a36600461319e565b610ff6565b6103bd61062d36600461353f565b611017565b61037461107d565b610374611087565b6001546001600160a01b03166104ab565b610374610661366004613574565b611092565b61039a6106743660046132b1565b611123565b61037461114c565b6103bd61068f3660046134e5565b611157565b610374611313565b6103bd6106aa36600461319e565b61131e565b610374600081565b6103746106c536600461322b565b6001600160a01b03166000908152600a602052604090205490565b6103bd6106ee36600461319e565b61137f565b6103746113a0565b6103bd610709366004613248565b611542565b6103746115c6565b6004546104ab906001600160a01b031681565b6103bd61073736600461322b565b6115d1565b6103bd61074a3660046131f6565b61182f565b61037461075d36600461322b565b60076020526000908152604090205481565b6103bd61077d3660046132b1565b61186b565b6103bd6107903660046135be565b611890565b6103bd6107a336600461319e565b611943565b6103bd6107b636600461319e565b611964565b6103bd6107c936600461322b565b611985565b6103746107dc36600461322b565b600a6020526000908152604090205481565b600681815481106107fe57600080fd5b600091825260209091200154905081565b60006001600160e01b03198216637965db0b60e01b148061084057506301ffc9a760e01b6001600160e01b03198316145b92915050565b60008061085a858585426119fb565b6119fb565b91509150600061087a86868686602001518660a001516108559190613600565b915050600080826101a0015112156108c7576108a3826101a0015161089e90613613565b611a77565b6040516020016108b39190613653565b6040516020818303038152906040526108d5565b6108d5826101a00151611a77565b9050600080836101800151121561091c576108f883610180015161089e90613613565b6040516020016109089190613653565b60405160208183030381529060405261092a565b61092a836101800151611a77565b9050818160405160200161093f92919061367c565b60408051601f198184030181529082905262461bcd60e51b8252610965916004016136cc565b60405180910390fd5b60006006805b81548110610984576109846136ff565b9060005260206000200154905090565b6109ab600080516020613ca7833981519152611b0a565b6109b58282611b14565b5050565b6003546040516001624c409d60e01b031981526001600160a01b0384811660048301528315156024830152600092169063ffb3bf6390604401602060405180830381865afa158015610a0f573d6000803e3d6000fd5b505050506040513d601f19601f82011682018060405250810190610a339190613715565b9392505050565b600060066007610974565b600082815260208190526040902060010154610a6081611b0a565b610a6a8383611b9e565b505050565b600060066004610974565b6001600160a01b0381163314610aea5760405162461bcd60e51b815260206004820152602f60248201527f416363657373436f6e74726f6c3a2063616e206f6e6c792072656e6f756e636560448201526e103937b632b9903337b91039b2b63360891b6064820152608401610965565b6109b58282611c22565b610b0b600080516020613ca7833981519152611b0a565b610b1760035b82611b14565b50565b610b31600080516020613ca7833981519152611b0a565b610b176001610b11565b610b52600080516020613ca7833981519152611b0a565b610b176008610b11565b610b73600080516020613ca7833981519152611b0a565b600480546001600160a01b0319166001600160a01b0392909216919091179055565b610bac600080516020613ca7833981519152611b0a565b8051825114610bef5760405162461bcd60e51b815260206004820152600f60248201526e0dad2e6dac2e8c6d040d8cadccee8d608b1b6044820152606401610965565b60005b8151811015610a6a57828181518110610c0d57610c0d6136ff565b602002602001015160086000848481518110610c2b57610c2b6136ff565b60200260200101516001600160a01b03166001600160a01b0316815260200190815260200160002081905550600360009054906101000a90046001600160a01b03166001600160a01b031663b21bf2d3838381518110610c8d57610c8d6136ff565b6020026020010151600080600080898881518110610cad57610cad6136ff565b60209081029190910101516040516001600160e01b031960e089901b1681526001600160a01b039096166004870152602486019490945260448501929092526064840152608483015260a482015260c401600060405180830381600087803b158015610d1857600080fd5b505af1158015610d2c573d6000803e3d6000fd5b505050507f4d67f7d80a18414610613bcd82c005df45389ac7808cbd04b6ea464d60a3eb12828281518110610d6357610d636136ff565b6020026020010151848381518110610d7d57610d7d6136ff565b6020026020010151604051610da79291906001600160a01b03929092168252602082015260400190565b60405180910390a180610db98161372e565b915050610bf2565b610dc9611c87565b610dd36000611ce1565b565b600060066003610974565b6000610deb81611b0a565b610df6600083611d33565b610dff82611ce1565b6109b5600033611c22565b610e21600080516020613ca7833981519152611b0a565b8051825114610e635760405162461bcd60e51b815260206004820152600e60248201526d696e76616c696420706172616d7360901b6044820152606401610965565b6000805b8351811015610fc65760006001600160a01b0316848281518110610e8d57610e8d6136ff565b60200260200101516001600160a01b031603610ea857600080fd5b610eb061096e565b838281518110610ec257610ec26136ff565b60200260200101511015610ed557600080fd5b610edd61096e565b610ee561096e565b848381518110610ef757610ef76136ff565b6020026020010151610f09919061375d565b610f139190613771565b91508160056000868481518110610f2c57610f2c6136ff565b60200260200101516001600160a01b03166001600160a01b0316815260200190815260200160002081905550838181518110610f6a57610f6a6136ff565b60200260200101516001600160a01b03167f014f9b627a46d0881111664e681522272907a49b31cc3f24613bdad2c551825c83604051610fac91815260200190565b60405180910390a280610fbe8161372e565b915050610e67565b50505050565b7f8d1089725c0dc266707fa6207730fb801dcd03108bfed7a21099bd303651d2b761035c81611b0a565b61100d600080516020613ca7833981519152611b0a565b610b176009610b11565b61102e600080516020613ca7833981519152611b0a565b600a81511461103c57600080fd5b60005b81518110156109b55761106b8183838151811061105e5761105e6136ff565b6020026020010151611b14565b806110758161372e565b91505061103f565b6000600681610974565b600060066001610974565b6003546040516334f32e2560e01b81526001600160a01b038681166004830152831515602483015260009283929116906334f32e2590604401602060405180830381865afa1580156110e8573d6000803e3d6000fd5b505050506040513d601f19601f8201168201806040525081019061110c9190613715565b9050611119858583611d3d565b9695505050505050565b6000918252602082815260408084206001600160a01b0393909316845291905290205460ff1690565b600060066002610974565b61116e600080516020613ca7833981519152611b0a565b80518251146111b05760405162461bcd60e51b815260206004820152600e60248201526d696e76616c696420706172616d7360901b6044820152606401610965565b6000805b8351811015610fc65760006001600160a01b03168482815181106111da576111da6136ff565b60200260200101516001600160a01b0316036111f557600080fd5b6111fd61096e565b83828151811061120f5761120f6136ff565b6020026020010151101561122257600080fd5b61122a61096e565b61123261096e565b848381518110611244576112446136ff565b6020026020010151611256919061375d565b6112609190613771565b91508160076000868481518110611279576112796136ff565b60200260200101516001600160a01b03166001600160a01b03168152602001908152602001600020819055508381815181106112b7576112b76136ff565b60200260200101516001600160a01b03167f1b8e6b844a5201ce0d37b6d92b871ff8ee5aede9e47593abc68ce8b2d1d25b88836040516112f991815260200190565b60405180910390a28061130b8161372e565b9150506111b4565b600060066008610974565b611335600080516020613ca7833981519152611b0a565b600081116113755760405162461bcd60e51b815260206004820152600d60248201526c1a5b9d985b1a59081b1a5b5a5d609a1b6044820152606401610965565b610b176004610b11565b611396600080516020613ca7833981519152611b0a565b610b176002610b11565b6004805460408051637616480b60e11b815290516000936001600160a01b03909316928492849263ec2c90169282810192869291908290030181865afa1580156113ee573d6000803e3d6000fd5b505050506040513d6000823e601f3d908101601f1916820160405261141691908101906137a3565b905060005b815181101561153c57826001600160a01b031663d37c441c6040518163ffffffff1660e01b8152600401602060405180830381865afa158015611462573d6000803e3d6000fd5b505050506040513d601f19601f820116820180604052508101906114869190613918565b6001600160a01b0316632b8a00128383815181106114a6576114a66136ff565b6020026020010151602001516040518263ffffffff1660e01b81526004016114dd91906001600160a01b0391909116815260200190565b602060405180830381865afa1580156114fa573d6000803e3d6000fd5b505050506040513d601f19601f8201168201806040525081019061151e9190613715565b6115289085613600565b9350806115348161372e565b91505061141b565b50505090565b611559600080516020613ca7833981519152611b0a565b6115638282613935565b6006600081548110611577576115776136ff565b9060005260206000200160008282546115909190613600565b9091555050604051819083907fbb67e50fdd1f174a20c4f1e0e5b9ab3984685f30623b89b69ba068a11ce913b690600090a35050565b600060066009610974565b600154600160a81b900460ff16158080156115f7575060018054600160a01b900460ff16105b806116175750303b158015611617575060018054600160a01b900460ff16145b61167a5760405162461bcd60e51b815260206004820152602e60248201527f496e697469616c697a61626c653a20636f6e747261637420697320616c72656160448201526d191e481a5b9a5d1a585b1a5e995960921b6064820152608401610965565b6001805460ff60a01b1916600160a01b17905580156116a7576001805460ff60a81b1916600160a81b1790555b6001600160a01b0382166116f05760405162461bcd60e51b815260206004820152601060248201526f1a5b9d985b1a590819995955985d5b1d60821b6044820152606401610965565b6116f933611d6a565b6040805160c880825261192082019092529060208201611900803683375050815161172b926006925060200190613087565b506305f5e1006006600181548110611745576117456136ff565b6000918252602090912001556305f5e100600660028154811061176a5761176a6136ff565b6000918252602090912001556104e2600660048154811061178d5761178d6136ff565b600091825260209091200155600380546001600160a01b0319166001600160a01b0384161790556117cc600080516020613ca783398151915233611b9e565b6117d96006610e10611b14565b6117e560096046611b14565b80156109b5576001805460ff60a81b191681556040519081527f7f26b83ff96e1f2b6a682f133852f6798a09c465da95921460cefb38474024989060200160405180910390a15050565b6118587fcb58d6d985142a614029cdf01861b4fe094d5919a47e69b8310dc4093d9d6ad0611b0a565b611864838383426119fb565b5050505050565b60008281526020819052604090206001015461188681611b0a565b610a6a8383611c22565b6118b97fcb58d6d985142a614029cdf01861b4fe094d5919a47e69b8310dc4093d9d6ad0611b0a565b6001600160a01b0382166000908152600a602052604081208054918391906118e18385613600565b90915550506001600160a01b0383166000818152600a60209081526040918290205482518681529182018590528183015290517ff92e4260a5a0861b750596d87de06d7f097df50397fa2af2d7d33d9c6d8674589181900360600190a2505050565b61195a600080516020613ca7833981519152611b0a565b610b176007610b11565b61197b600080516020613ca7833981519152611b0a565b610b176006610b11565b61198d611c87565b6001600160a01b0381166119f25760405162461bcd60e51b815260206004820152602660248201527f4f776e61626c653a206e6577206f776e657220697320746865207a65726f206160448201526564647265737360d01b6064820152608401610965565b610b1781611ce1565b611a036130ce565b611a0b61311a565b611a16868686611d8d565b9150600080600080611a3a89898989611a2d611313565b611a356115c6565b611ebb565b93509350935093508015611a5357611a5383838c61216f565b608084015115611a6857611a6886858c61223a565b50919250505094509492505050565b60606000611a84836122cf565b600101905060008167ffffffffffffffff811115611aa457611aa46132d6565b6040519080825280601f01601f191660200182016040528015611ace576020820181803683370190505b5090508181016020015b600019016f181899199a1a9b1b9c1cb0b131b232b360811b600a86061a8153600a8504945084611ad857509392505050565b610b1781336123a7565b600060068381548110611b2957611b296136ff565b906000526020600020015490508160068481548110611b4a57611b4a6136ff565b600091825260209182902001919091556040805185815291820183905281018390527f7ee20b53ffb80d74dc08be0adedf33c8fa93e5b44eb347a27eedd30c3d6bc35c9060600160405180910390a1505050565b611ba88282611123565b6109b5576000828152602081815260408083206001600160a01b03851684529091529020805460ff19166001179055611bde3390565b6001600160a01b0316816001600160a01b0316837f2f8788117e7eff1d82e926ec794901d17c78024a50270940304540a733656f0d60405160405180910390a45050565b611c2c8282611123565b156109b5576000828152602081815260408083206001600160a01b0385168085529252808320805460ff1916905551339285917ff6391f5c32d9c69d2a47ea670b442974b53935d1edc7fd64eb21e047a839171b9190a45050565b6001546001600160a01b03163314610dd35760405162461bcd60e51b815260206004820181905260248201527f4f776e61626c653a2063616c6c6572206973206e6f7420746865206f776e65726044820152606401610965565b600180546001600160a01b038381166001600160a01b0319831681179093556040519116919082907f8be0079c531659141344cd1fd0a4f28419497f9722a3daafe3b4186f6b6457e090600090a35050565b6109b58282611b9e565b60006305f5e100611d4e8484613948565b611d58908661396f565b611d62919061399f565b949350505050565b42600255611d7733611ce1565b611d82600033611d33565b610b17600082611d33565b611d956130ce565b6001600160a01b0384166000818152600760209081526040808320548552838352600582528083205485830152928252600890528190205490820152611dda846123da565b60608201526001600160a01b0384166000818152600a602090815260408083205461010086015292825260098152828220600183528082528383205460e08601528280529052205460c082015260068054611eaa9185918591906003908110611e4557611e456136ff565b600091825260209091200154600680546004908110611e6657611e666136ff565b9060005260206000200154611e7a89612449565b611e858a8a8a61254a565b600680546007908110611e9a57611e9a6136ff565b9060005260206000200154612567565b608083015260a08201529392505050565b611ec361311a565b611ecb6130ce565b611ed361311a565b6000611ede876125b4565b9350611eeb87858a6125ff565b905080156120cf57611efd8785612666565b15611f1957611f0c878561269a565b611f19848b8b898961272d565b611f248789866127d4565b15611f6357611f338785612807565b60005b8460600151811015611f6157611f4f858c8c8a8a61272d565b80611f598161372e565b915050611f36565b505b836040516020016120059190815181526020808301519082015260408083015190820152606080830151908201526080808301519082015260a0808301519082015260c0808301519082015260e08083015190820152610100808301519082015261012080830151908201526101408083015190820152610160808301519082015261018080830151908201526101a091820151918101919091526101c00190565b60405160208183030381529060405280602001905181019061202791906139cd565b91508660405160200161209a9190600061012082019050825182526020830151602083015260408301516040830152606083015160608301526080830151608083015260a083015160a083015260c083015160c083015260e083015160e083015261010080840151818401525092915050565b6040516020818303038152906040528060200190518101906120bc9190613a84565b6000610120860181905261010086015292505b6120da878986612863565b1561216257608084015187516120f09190613771565b8460a0018181516121019190613600565b905250608084015160a08801516121209161211b91613771565b6128a6565b84610120018181516121329190613aff565b9052506080808501519088015161214c9161211b91613771565b846101000181815161215e9190613aff565b9052505b9650965096509692505050565b61218f8183600001518561010001516121889190613935565b8451612914565b6003546101408301516101608401516101a085015161018086015160a087015160405163b21bf2d360e01b81526001600160a01b038881166004830152602482019690965260448101949094526064840192909252608483015260a482015291169063b21bf2d39060c401600060405180830381600087803b15801561221457600080fd5b505af1158015612228573d6000803e3d6000fd5b50505050610a6a818360a0015161298d565b60a0830180516001600160a01b0383166000818152600b6020908152604080832060018452825280832094909455608088018051838052928590209290925593519051835191825293810193909352917f8bfe8b5c73740b3875e694ce9425829dc01970e61b7edbe2b3c2d379328bab72910160405180910390a2610a6a818361012001518461010001518560a00151612a48565b60008072184f03e93ff9f4daa797ed6e38ed64bf6a1f0160401b831061230e5772184f03e93ff9f4daa797ed6e38ed64bf6a1f0160401b830492506040015b6d04ee2d6d415b85acef8100000000831061233a576d04ee2d6d415b85acef8100000000830492506020015b662386f26fc10000831061235857662386f26fc10000830492506010015b6305f5e1008310612370576305f5e100830492506008015b612710831061238457612710830492506004015b60648310612396576064830492506002015b600a83106108405760010192915050565b6123b18282611123565b6109b5576123be81612b57565b6123c9836020612b69565b60405160200161093f929190613b27565b60035460405163d8f897c360e01b81526001600160a01b038381166004830152600092169063d8f897c390602401602060405180830381865afa158015612425573d6000803e3d6000fd5b505050506040513d601f19601f820116820180604052508101906108409190613715565b6004546000906001600160a01b0316816124616113a0565b90506000826001600160a01b031663d37c441c6040518163ffffffff1660e01b8152600401602060405180830381865afa1580156124a3573d6000803e3d6000fd5b505050506040513d601f19601f820116820180604052508101906124c79190613918565b6001600160a01b0316636dc7b0a16040518163ffffffff1660e01b8152600401602060405180830381865afa158015612504573d6000803e3d6000fd5b505050506040513d601f19601f820116820180604052508101906125289190613715565b9050600061253586612d05565b90506111198383612544611087565b84612d12565b6000611d62838361255a87612d05565b61256261114c565b612d68565b60008086156125765786612578565b845b965086841115612586578693505b85841015612592578593505b878910156125a15782846125a4565b83835b9150915097509795505050505050565b6125bc61311a565b815160208301516125cd919061375d565b602082015260e082015161012082015260c082015161010080830191909152604083015160a083015290910151815290565b60008260a0015160000361263357602084015161261c818461375d565b6126269190613771565b60a0840152506001610a33565b8260a0015182101561264757506000610a33565b818460200151856060015161265c9190613600565b1115949350505050565b8151606083015160408401516000929161267f91613935565b612689919061375d565b604083018190521515905092915050565b816020015182606001516126ae9190613600565b60a0820152604081015160208201516126d9916126ca91613935565b8360a0015161211b9190613771565b8260e001516126e89190613aff565b610120820152604081015160208201516127149161270591613935565b836080015161211b9190613771565b8260c001516127239190613aff565b6101009091015250565b600061274486610120015187610100015185612e19565b905061276386610120015187610100015183858a600001518a8a612e39565b60c089015261016088015261014087018190526101a087018051612788908390613aff565b905250610160860151610180870180516127a3908390613aff565b90525060c08601518651116127b95760006127ca565b60c086015186516127ca9190613935565b9095525050505050565b600083602001518260a00151846127eb9190613935565b6127f5919061375d565b60608301819052151590509392505050565b8060600151826020015161281b9190613771565b8160a00181815161282c9190613600565b905250602081015160a08301516128469161211b91613771565b610120820152602081015160808301516127239161211b91613771565b60008160a0015183101561287957506000610a33565b835160a083015161288a9085613935565b612894919061375d565b60808301819052151590509392505050565b60006001600160ff1b038211156129105760405162461bcd60e51b815260206004820152602860248201527f53616665436173743a2076616c756520646f65736e27742066697420696e2061604482015267371034b73a191a9b60c11b6064820152608401610965565b5090565b6001600160a01b0383166000818152600a6020908152604091829020548251868152918201529081018390527f46688c57894e3513fd67b19c1f09ffe6b4a24062d8d29e580ba554fe4384c0e09060600160405180910390a26001600160a01b039092166000908152600a602052604090209190915550565b6001600160a01b0382166000818152600960209081526040808320600184528252808320839055828052808320839055838352600882528083208590558051838152918201929092527f18c1e75c2355914e05f0e3d65be88099e2489e17f7a307d0adc3a22239b4667f910160405180910390a2816001600160a01b03167f5e6f1d9aee6db6f0c00c16081ad195c05424762f100ab07c4fdbe9fde1d42a6c82604051612a3c91815260200190565b60405180910390a25050565b6001600160a01b03841660009081526009602090815260408083206001845290915281208054859290612a7c908490613aff565b90915550506001600160a01b038416600090815260096020908152604080832083805290915281208054849290612ab4908490613aff565b90915550506001600160a01b03841660008181526008602090815260409182902084905581518681529081018590527f18c1e75c2355914e05f0e3d65be88099e2489e17f7a307d0adc3a22239b4667f910160405180910390a2836001600160a01b03167f5e6f1d9aee6db6f0c00c16081ad195c05424762f100ab07c4fdbe9fde1d42a6c82604051612b4991815260200190565b60405180910390a250505050565b60606108406001600160a01b03831660145b60606000612b78836002613771565b612b83906002613600565b67ffffffffffffffff811115612b9b57612b9b6132d6565b6040519080825280601f01601f191660200182016040528015612bc5576020820181803683370190505b509050600360fc1b81600081518110612be057612be06136ff565b60200101906001600160f81b031916908160001a905350600f60fb1b81600181518110612c0f57612c0f6136ff565b60200101906001600160f81b031916908160001a9053506000612c33846002613771565b612c3e906001613600565b90505b6001811115612cb6576f181899199a1a9b1b9c1cb0b131b232b360811b85600f1660108110612c7257612c726136ff565b1a60f81b828281518110612c8857612c886136ff565b60200101906001600160f81b031916908160001a90535060049490941c93612caf81613b9c565b9050612c41565b508315610a335760405162461bcd60e51b815260206004820181905260248201527f537472696e67733a20686578206c656e67746820696e73756666696369656e746044820152606401610965565b6000610840826007612f63565b600080610e106305f5e1006018878288612d2c898d613771565b612d369190613771565b612d409190613771565b612d4a919061375d565b612d54919061375d565b612d5e919061375d565b611119919061375d565b600080612d758686612f8d565b905060008115611119576000612d8b8789613600565b905080612d9c6305f5e10085613771565b612da6919061375d565b9150610e10601860646305f5e10089612dc0600288613c97565b612dca9190613771565b612dd4919061375d565b612dde919061375d565b612de8919061375d565b612df2919061375d565b91506305f5e100612e038684613771565b612e0d919061375d565b98975050505050505050565b6000612e2d612e288585612fb1565b612fce565b9050611d628183613020565b600080600080600086118015612e4f5750600085115b9050898b12612ed957612e64868a8a8a613036565b9150612e6f896128a6565b93508015612ed457612e80856128a6565b612e8d6305f5e1006128a6565b612e96846128a6565b612ea0919061396f565b85612eaa896128a6565b612eb4919061396f565b612ebe9190613948565b612ec790613613565b612ed1919061399f565b92505b612f55565b612ee5858a8a8a613036565b9150612ef0896128a6565b92508015612f5557612f01866128a6565b612f0e6305f5e1006128a6565b612f17846128a6565b612f21919061396f565b84612f2b886128a6565b612f35919061396f565b612f3f9190613948565b612f4890613613565b612f52919061399f565b93505b509750975097945050505050565b6001600160a01b038216600090815260208290526040812054908190036108405750610e10610840565b6000818310612fa757612fa08284613935565b9050610840565b612fa08383613935565b6000818312612fc457612fa08284613948565b612fa08383613948565b6000808212156129105760405162461bcd60e51b815260206004820181905260248201527f53616665436173743a2076616c7565206d75737420626520706f7369746976656044820152606401610965565b600081831161302f5781610a33565b5090919050565b600061306f61304a60026305f5e100613c97565b846130558789613771565b61305f9190613771565b613069919061375d565b83613078565b95945050505050565b600081831061302f5781610a33565b8280548282559060005260206000209081019282156130c2579160200282015b828111156130c25782518255916020019190600101906130a7565b50612910929150613189565b6040518061012001604052806000815260200160008152602001600081526020016000815260200160008152602001600081526020016000815260200160008152602001600081525090565b604051806101c0016040528060008152602001600081526020016000815260200160008152602001600081526020016000815260200160008152602001600081526020016000815260200160008152602001600081526020016000815260200160008152602001600081525090565b5b80821115612910576000815560010161318a565b6000602082840312156131b057600080fd5b5035919050565b6000602082840312156131c957600080fd5b81356001600160e01b031981168114610a3357600080fd5b6001600160a01b0381168114610b1757600080fd5b60008060006060848603121561320b57600080fd5b8335613216816131e1565b95602085013595506040909401359392505050565b60006020828403121561323d57600080fd5b8135610a33816131e1565b6000806040838503121561325b57600080fd5b50508035926020909101359150565b8015158114610b1757600080fd5b6000806040838503121561328b57600080fd5b8235613296816131e1565b915060208301356132a68161326a565b809150509250929050565b600080604083850312156132c457600080fd5b8235915060208301356132a6816131e1565b634e487b7160e01b600052604160045260246000fd5b60405160a0810167ffffffffffffffff8111828210171561330f5761330f6132d6565b60405290565b6040516101c0810167ffffffffffffffff8111828210171561330f5761330f6132d6565b604051610120810167ffffffffffffffff8111828210171561330f5761330f6132d6565b604051601f8201601f1916810167ffffffffffffffff81118282101715613386576133866132d6565b604052919050565b600067ffffffffffffffff8211156133a8576133a86132d6565b5060051b60200190565b600082601f8301126133c357600080fd5b813560206133d86133d38361338e565b61335d565b82815260059290921b840181019181810190868411156133f757600080fd5b8286015b8481101561341257803583529183019183016133fb565b509695505050505050565b600082601f83011261342e57600080fd5b8135602061343e6133d38361338e565b82815260059290921b8401810191818101908684111561345d57600080fd5b8286015b84811015613412578035613474816131e1565b8352918301918301613461565b6000806040838503121561349457600080fd5b823567ffffffffffffffff808211156134ac57600080fd5b6134b8868387016133b2565b935060208501359150808211156134ce57600080fd5b506134db8582860161341d565b9150509250929050565b600080604083850312156134f857600080fd5b823567ffffffffffffffff8082111561351057600080fd5b61351c8683870161341d565b9350602085013591508082111561353257600080fd5b506134db858286016133b2565b60006020828403121561355157600080fd5b813567ffffffffffffffff81111561356857600080fd5b611d62848285016133b2565b6000806000806080858703121561358a57600080fd5b8435613595816131e1565b9350602085013592506040850135915060608501356135b38161326a565b939692955090935050565b600080604083850312156135d157600080fd5b82356135dc816131e1565b946020939093013593505050565b634e487b7160e01b600052601160045260246000fd5b80820180821115610840576108406135ea565b6000600160ff1b8201613628576136286135ea565b5060000390565b60005b8381101561364a578181015183820152602001613632565b50506000910152565b602d60f81b81526000825161366f81600185016020870161362f565b9190910160010192915050565b600061232360f01b808352845161369a81600286016020890161362f565b808401905081600282015284516136b881600484016020890161362f565b016004810191909152600601949350505050565b60208152600082518060208401526136eb81604085016020870161362f565b601f01601f19169190910160400192915050565b634e487b7160e01b600052603260045260246000fd5b60006020828403121561372757600080fd5b5051919050565b600060018201613740576137406135ea565b5060010190565b634e487b7160e01b600052601260045260246000fd5b60008261376c5761376c613747565b500490565b8082028115828204841417610840576108406135ea565b8051613793816131e1565b919050565b80516137938161326a565b600060208083850312156137b657600080fd5b825167ffffffffffffffff808211156137ce57600080fd5b818501915085601f8301126137e257600080fd5b81516137f06133d38261338e565b81815260059190911b8301840190848101908883111561380f57600080fd5b8585015b8381101561390b5780518581111561382a57600080fd5b8601601f1960a0828d03820112156138425760008081fd5b61384a6132ec565b898301518881111561385c5760008081fd5b8301603f81018e1361386e5760008081fd5b8a81015160408a821115613884576138846132d6565b6138948d86601f8501160161335d565b94508185528f818385010111156138ab5760008081fd5b6138ba828e870183860161362f565b8484526138c8818701613788565b8d85015260609450848601518185015250505060806138e8818501613798565b838301526138f860a08501613798565b9082015285525050918601918601613813565b5098975050505050505050565b60006020828403121561392a57600080fd5b8151610a33816131e1565b81810381811115610840576108406135ea565b8181036000831280158383131683831282161715613968576139686135ea565b5092915050565b80820260008212600160ff1b8414161561398b5761398b6135ea565b8181058314821517610840576108406135ea565b6000826139ae576139ae613747565b600160ff1b8214600019841416156139c8576139c86135ea565b500590565b60006101c082840312156139e057600080fd5b6139e8613315565b825181526020830151602082015260408301516040820152606083015160608201526080830151608082015260a083015160a082015260c083015160c082015260e083015160e08201526101008084015181830152506101208084015181830152506101408084015181830152506101608084015181830152506101808084015181830152506101a08084015181830152508091505092915050565b60006101208284031215613a9757600080fd5b613a9f613339565b825181526020830151602082015260408301516040820152606083015160608201526080830151608082015260a083015160a082015260c083015160c082015260e083015160e08201526101008084015181830152508091505092915050565b8082018281126000831280158216821582161715613b1f57613b1f6135ea565b505092915050565b7f416363657373436f6e74726f6c3a206163636f756e7420000000000000000000815260008351613b5f81601785016020880161362f565b7001034b99036b4b9b9b4b733903937b6329607d1b6017918401918201528351613b9081602884016020880161362f565b01602801949350505050565b600081613bab57613bab6135ea565b506000190190565b600181815b80851115613bee578160001904821115613bd457613bd46135ea565b80851615613be157918102915b93841c9390800290613bb8565b509250929050565b600082613c0557506001610840565b81613c1257506000610840565b8160018114613c285760028114613c3257613c4e565b6001915050610840565b60ff841115613c4357613c436135ea565b50506001821b610840565b5060208310610133831016604e8410600b8410161715613c71575081810a610840565b613c7b8383613bb3565b8060001904821115613c8f57613c8f6135ea565b029392505050565b6000610a3360ff841683613bf656fe241ecf16d79d0f8dbfb92cbc07fe17840425976cf0667f022fe9877caa831b08a26469706673582212207bfa133071cdb47e29467d6cdeb7660ea6b2dd79f508a9848a17599e5e5e3baa64736f6c63430008110033",
  "linkReferences": {},
  "deployedLinkReferences": {}
}