{
  "_format": "hh-sol-artifact-1",
  "contractName": "FundFee",
  "sourceName": "contracts/fee/FundFee.sol",
  "abi": [
    {
      "inputs": [
        {
          "internalType": "int256",
          "name": "lCFRate",
          "type": "int256"
        },
        {
          "internalType": "int256",
          "name": "sCFRate",
          "type": "int256"
        }
      ],
      "name": "NextFundFee",
      "type": "error"
    },
    {
      "anonymous": false,
      "inputs": [
        {
          "indexed": true,
          "internalType": "address",
          "name": "market",
          "type": "address"
        },
        {
          "indexed": false,
          "internalType": "uint256",
          "name": "amount",
          "type": "uint256"
        },
        {
          "indexed": false,
          "internalType": "uint256",
          "name": "lossBefore",
          "type": "uint256"
        },
        {
          "indexed": false,
          "internalType": "uint256",
          "name": "lossAfter",
          "type": "uint256"
        }
      ],
      "name": "AddNegativeFeeLoss",
      "type": "event"
    },
    {
      "anonymous": false,
      "inputs": [
        {
          "indexed": true,
          "internalType": "address",
          "name": "market",
          "type": "address"
        },
        {
          "indexed": false,
          "internalType": "uint256",
          "name": "deductAmount",
          "type": "uint256"
        },
        {
          "indexed": false,
          "internalType": "uint256",
          "name": "lossBefore",
          "type": "uint256"
        },
        {
          "indexed": false,
          "internalType": "uint256",
          "name": "lossAfter",
          "type": "uint256"
        }
      ],
      "name": "AddPositiveFeeLoss",
      "type": "event"
    },
    {
      "anonymous": false,
      "inputs": [
        {
          "indexed": true,
          "internalType": "uint256",
          "name": "startTime",
          "type": "uint256"
        },
        {
          "indexed": true,
          "internalType": "uint256",
          "name": "endTime",
          "type": "uint256"
        }
      ],
      "name": "AddSkipTime",
      "type": "event"
    },
    {
      "anonymous": false,
      "inputs": [
        {
          "indexed": false,
          "internalType": "uint8",
          "name": "version",
          "type": "uint8"
        }
      ],
      "name": "Initialized",
      "type": "event"
    },
    {
      "anonymous": false,
      "inputs": [
        {
          "indexed": true,
          "internalType": "address",
          "name": "previousOwner",
          "type": "address"
        },
        {
          "indexed": true,
          "internalType": "address",
          "name": "newOwner",
          "type": "address"
        }
      ],
      "name": "OwnershipTransferred",
      "type": "event"
    },
    {
      "anonymous": false,
      "inputs": [
        {
          "indexed": true,
          "internalType": "bytes32",
          "name": "role",
          "type": "bytes32"
        },
        {
          "indexed": true,
          "internalType": "bytes32",
          "name": "previousAdminRole",
          "type": "bytes32"
        },
        {
          "indexed": true,
          "internalType": "bytes32",
          "name": "newAdminRole",
          "type": "bytes32"
        }
      ],
      "name": "RoleAdminChanged",
      "type": "event"
    },
    {
      "anonymous": false,
      "inputs": [
        {
          "indexed": true,
          "internalType": "bytes32",
          "name": "role",
          "type": "bytes32"
        },
        {
          "indexed": true,
          "internalType": "address",
          "name": "account",
          "type": "address"
        },
        {
          "indexed": true,
          "internalType": "address",
          "name": "sender",
          "type": "address"
        }
      ],
      "name": "RoleGranted",
      "type": "event"
    },
    {
      "anonymous": false,
      "inputs": [
        {
          "indexed": true,
          "internalType": "bytes32",
          "name": "role",
          "type": "bytes32"
        },
        {
          "indexed": true,
          "internalType": "address",
          "name": "account",
          "type": "address"
        },
        {
          "indexed": true,
          "internalType": "address",
          "name": "sender",
          "type": "address"
        }
      ],
      "name": "RoleRevoked",
      "type": "event"
    },
    {
      "anonymous": false,
      "inputs": [
        {
          "indexed": false,
          "internalType": "address",
          "name": "market",
          "type": "address"
        },
        {
          "indexed": false,
          "internalType": "uint256",
          "name": "updatedAt",
          "type": "uint256"
        }
      ],
      "name": "SetUpdateAt",
      "type": "event"
    },
    {
      "anonymous": false,
      "inputs": [
        {
          "indexed": true,
          "internalType": "address",
          "name": "market",
          "type": "address"
        },
        {
          "indexed": false,
          "internalType": "int256",
          "name": "longRate",
          "type": "int256"
        },
        {
          "indexed": false,
          "internalType": "int256",
          "name": "shortRate",
          "type": "int256"
        }
      ],
      "name": "UpdateCalFundRates",
      "type": "event"
    },
    {
      "anonymous": false,
      "inputs": [
        {
          "indexed": true,
          "internalType": "address",
          "name": "market",
          "type": "address"
        },
        {
          "indexed": false,
          "internalType": "uint256",
          "name": "interval",
          "type": "uint256"
        }
      ],
      "name": "UpdateCalInterval",
      "type": "event"
    },
    {
      "anonymous": false,
      "inputs": [
        {
          "indexed": false,
          "internalType": "uint256",
          "name": "index",
          "type": "uint256"
        },
        {
          "indexed": false,
          "internalType": "uint256",
          "name": "oldFRate",
          "type": "uint256"
        },
        {
          "indexed": false,
          "internalType": "uint256",
          "name": "newFRate",
          "type": "uint256"
        }
      ],
      "name": "UpdateConfig",
      "type": "event"
    },
    {
      "anonymous": false,
      "inputs": [
        {
          "indexed": true,
          "internalType": "address",
          "name": "market",
          "type": "address"
        },
        {
          "indexed": false,
          "internalType": "uint256",
          "name": "interval",
          "type": "uint256"
        }
      ],
      "name": "UpdateFundInterval",
      "type": "event"
    },
    {
      "anonymous": false,
      "inputs": [
        {
          "indexed": true,
          "internalType": "address",
          "name": "market",
          "type": "address"
        },
        {
          "indexed": false,
          "internalType": "uint256",
          "name": "longRate",
          "type": "uint256"
        },
        {
          "indexed": false,
          "internalType": "uint256",
          "name": "shortRate",
          "type": "uint256"
        }
      ],
      "name": "UpdateLastCalRate",
      "type": "event"
    },
    {
      "anonymous": false,
      "inputs": [
        {
          "indexed": true,
          "internalType": "address",
          "name": "market",
          "type": "address"
        },
        {
          "indexed": false,
          "internalType": "uint256",
          "name": "timestamp",
          "type": "uint256"
        }
      ],
      "name": "UpdateLastCalTime",
      "type": "event"
    },
    {
      "inputs": [],
      "name": "DEFAULT_ADMIN_ROLE",
      "outputs": [
        {
          "internalType": "bytes32",
          "name": "",
          "type": "bytes32"
        }
      ],
      "stateMutability": "view",
      "type": "function"
    },
    {
      "inputs": [],
      "name": "FEERATEPRECISION",
      "outputs": [
        {
          "internalType": "uint256",
          "name": "",
          "type": "uint256"
        }
      ],
      "stateMutability": "view",
      "type": "function"
    },
    {
      "inputs": [
        {
          "internalType": "address",
          "name": "market",
          "type": "address"
        },
        {
          "internalType": "uint256",
          "name": "a",
          "type": "uint256"
        }
      ],
      "name": "addFeeLoss",
      "outputs": [],
      "stateMutability": "nonpayable",
      "type": "function"
    },
    {
      "inputs": [
        {
          "internalType": "uint256",
          "name": "start",
          "type": "uint256"
        },
        {
          "internalType": "uint256",
          "name": "end",
          "type": "uint256"
        }
      ],
      "name": "addSkipTime",
      "outputs": [],
      "stateMutability": "nonpayable",
      "type": "function"
    },
    {
      "inputs": [
        {
          "internalType": "address",
          "name": "",
          "type": "address"
        },
        {
          "internalType": "bool",
          "name": "",
          "type": "bool"
        }
      ],
      "name": "calFundingRates",
      "outputs": [
        {
          "internalType": "int256",
          "name": "",
          "type": "int256"
        }
      ],
      "stateMutability": "view",
      "type": "function"
    },
    {
      "inputs": [
        {
          "internalType": "address",
          "name": "",
          "type": "address"
        }
      ],
      "name": "calIntervals",
      "outputs": [
        {
          "internalType": "uint256",
          "name": "",
          "type": "uint256"
        }
      ],
      "stateMutability": "view",
      "type": "function"
    },
    {
      "inputs": [
        {
          "internalType": "uint256",
          "name": "",
          "type": "uint256"
        }
      ],
      "name": "configs",
      "outputs": [
        {
          "internalType": "uint256",
          "name": "",
          "type": "uint256"
        }
      ],
      "stateMutability": "view",
      "type": "function"
    },
    {
      "inputs": [],
      "name": "fRateFactor",
      "outputs": [
        {
          "internalType": "uint256",
          "name": "",
          "type": "uint256"
        }
      ],
      "stateMutability": "view",
      "type": "function"
    },
    {
      "inputs": [],
      "name": "feeVault",
      "outputs": [
        {
          "internalType": "address",
          "name": "",
          "type": "address"
        }
      ],
      "stateMutability": "view",
      "type": "function"
    },
    {
      "inputs": [
        {
          "internalType": "address",
          "name": "",
          "type": "address"
        }
      ],
      "name": "fundFeeLoss",
      "outputs": [
        {
          "internalType": "uint256",
          "name": "",
          "type": "uint256"
        }
      ],
      "stateMutability": "view",
      "type": "function"
    },
    {
      "inputs": [
        {
          "internalType": "address",
          "name": "market",
          "type": "address"
        }
      ],
      "name": "fundingFeeLoss",
      "outputs": [
        {
          "internalType": "uint256",
          "name": "",
          "type": "uint256"
        }
      ],
      "stateMutability": "view",
      "type": "function"
    },
    {
      "inputs": [],
      "name": "fundingFeeLossOffLimit",
      "outputs": [
        {
          "internalType": "uint256",
          "name": "",
          "type": "uint256"
        }
      ],
      "stateMutability": "view",
      "type": "function"
    },
    {
      "inputs": [
        {
          "internalType": "address",
          "name": "",
          "type": "address"
        }
      ],
      "name": "fundingIntervals",
      "outputs": [
        {
          "internalType": "uint256",
          "name": "",
          "type": "uint256"
        }
      ],
      "stateMutability": "view",
      "type": "function"
    },
    {
      "inputs": [
        {
          "internalType": "address",
          "name": "market",
          "type": "address"
        }
      ],
      "name": "getCalFundingRates",
      "outputs": [
        {
          "internalType": "int256",
          "name": "",
          "type": "int256"
        },
        {
          "internalType": "int256",
          "name": "",
          "type": "int256"
        }
      ],
      "stateMutability": "view",
      "type": "function"
    },
    {
      "inputs": [
        {
          "internalType": "address",
          "name": "market",
          "type": "address"
        },
        {
          "internalType": "uint256",
          "name": "size",
          "type": "uint256"
        },
        {
          "internalType": "int256",
          "name": "entryFundingRate",
          "type": "int256"
        },
        {
          "internalType": "bool",
          "name": "isLong",
          "type": "bool"
        }
      ],
      "name": "getFundingFee",
      "outputs": [
        {
          "internalType": "int256",
          "name": "",
          "type": "int256"
        }
      ],
      "stateMutability": "view",
      "type": "function"
    },
    {
      "inputs": [
        {
          "internalType": "address",
          "name": "market",
          "type": "address"
        },
        {
          "internalType": "bool",
          "name": "isLong",
          "type": "bool"
        }
      ],
      "name": "getFundingRate",
      "outputs": [
        {
          "internalType": "int256",
          "name": "",
          "type": "int256"
        }
      ],
      "stateMutability": "view",
      "type": "function"
    },
    {
      "inputs": [],
      "name": "getGlobalOpenInterest",
      "outputs": [
        {
          "internalType": "uint256",
          "name": "_globalSize",
          "type": "uint256"
        }
      ],
      "stateMutability": "view",
      "type": "function"
    },
    {
      "inputs": [
        {
          "internalType": "address",
          "name": "market",
          "type": "address"
        },
        {
          "internalType": "uint256",
          "name": "longSize",
          "type": "uint256"
        },
        {
          "internalType": "uint256",
          "name": "shortSize",
          "type": "uint256"
        }
      ],
      "name": "getNextFundingRate",
      "outputs": [],
      "stateMutability": "nonpayable",
      "type": "function"
    },
    {
      "inputs": [
        {
          "internalType": "bytes32",
          "name": "role",
          "type": "bytes32"
        }
      ],
      "name": "getRoleAdmin",
      "outputs": [
        {
          "internalType": "bytes32",
          "name": "",
          "type": "bytes32"
        }
      ],
      "stateMutability": "view",
      "type": "function"
    },
    {
      "inputs": [],
      "name": "getSkipTime",
      "outputs": [
        {
          "internalType": "uint256",
          "name": "totalSkip",
          "type": "uint256"
        }
      ],
      "stateMutability": "view",
      "type": "function"
    },
    {
      "inputs": [
        {
          "internalType": "address",
          "name": "_account",
          "type": "address"
        }
      ],
      "name": "grantControllerRoleByMarketManager",
      "outputs": [],
      "stateMutability": "nonpayable",
      "type": "function"
    },
    {
      "inputs": [
        {
          "internalType": "bytes32",
          "name": "role",
          "type": "bytes32"
        },
        {
          "internalType": "address",
          "name": "account",
          "type": "address"
        }
      ],
      "name": "grantRole",
      "outputs": [],
      "stateMutability": "nonpayable",
      "type": "function"
    },
    {
      "inputs": [
        {
          "internalType": "bytes32",
          "name": "role",
          "type": "bytes32"
        },
        {
          "internalType": "address",
          "name": "account",
          "type": "address"
        }
      ],
      "name": "hasRole",
      "outputs": [
        {
          "internalType": "bool",
          "name": "",
          "type": "bool"
        }
      ],
      "stateMutability": "view",
      "type": "function"
    },
    {
      "inputs": [
        {
          "internalType": "address",
          "name": "_feeVault",
          "type": "address"
        }
      ],
      "name": "initialize",
      "outputs": [],
      "stateMutability": "nonpayable",
      "type": "function"
    },
    {
      "inputs": [
        {
          "internalType": "address",
          "name": "",
          "type": "address"
        },
        {
          "internalType": "bool",
          "name": "",
          "type": "bool"
        }
      ],
      "name": "lastCalRate",
      "outputs": [
        {
          "internalType": "uint256",
          "name": "",
          "type": "uint256"
        }
      ],
      "stateMutability": "view",
      "type": "function"
    },
    {
      "inputs": [
        {
          "internalType": "address",
          "name": "",
          "type": "address"
        }
      ],
      "name": "lastCalTimes",
      "outputs": [
        {
          "internalType": "uint256",
          "name": "",
          "type": "uint256"
        }
      ],
      "stateMutability": "view",
      "type": "function"
    },
    {
      "inputs": [],
      "name": "marketReader",
      "outputs": [
        {
          "internalType": "address",
          "name": "",
          "type": "address"
        }
      ],
      "stateMutability": "view",
      "type": "function"
    },
    {
      "inputs": [],
      "name": "maxFRate",
      "outputs": [
        {
          "internalType": "uint256",
          "name": "",
          "type": "uint256"
        }
      ],
      "stateMutability": "view",
      "type": "function"
    },
    {
      "inputs": [],
      "name": "maxFRatePerDay",
      "outputs": [
        {
          "internalType": "uint256",
          "name": "",
          "type": "uint256"
        }
      ],
      "stateMutability": "view",
      "type": "function"
    },
    {
      "inputs": [],
      "name": "minCFRate",
      "outputs": [
        {
          "internalType": "uint256",
          "name": "",
          "type": "uint256"
        }
      ],
      "stateMutability": "view",
      "type": "function"
    },
    {
      "inputs": [],
      "name": "minFRate",
      "outputs": [
        {
          "internalType": "uint256",
          "name": "",
          "type": "uint256"
        }
      ],
      "stateMutability": "view",
      "type": "function"
    },
    {
      "inputs": [],
      "name": "minFundingInterval",
      "outputs": [
        {
          "internalType": "uint256",
          "name": "",
          "type": "uint256"
        }
      ],
      "stateMutability": "view",
      "type": "function"
    },
    {
      "inputs": [],
      "name": "minorityFRate",
      "outputs": [
        {
          "internalType": "uint256",
          "name": "",
          "type": "uint256"
        }
      ],
      "stateMutability": "view",
      "type": "function"
    },
    {
      "inputs": [],
      "name": "owner",
      "outputs": [
        {
          "internalType": "address",
          "name": "",
          "type": "address"
        }
      ],
      "stateMutability": "view",
      "type": "function"
    },
    {
      "inputs": [],
      "name": "renounceOwnership",
      "outputs": [],
      "stateMutability": "nonpayable",
      "type": "function"
    },
    {
      "inputs": [
        {
          "internalType": "bytes32",
          "name": "role",
          "type": "bytes32"
        },
        {
          "internalType": "address",
          "name": "account",
          "type": "address"
        }
      ],
      "name": "renounceRole",
      "outputs": [],
      "stateMutability": "nonpayable",
      "type": "function"
    },
    {
      "inputs": [
        {
          "internalType": "bytes32",
          "name": "role",
          "type": "bytes32"
        },
        {
          "internalType": "address",
          "name": "account",
          "type": "address"
        }
      ],
      "name": "revokeRole",
      "outputs": [],
      "stateMutability": "nonpayable",
      "type": "function"
    },
    {
      "inputs": [
        {
          "internalType": "address[]",
          "name": "markets",
          "type": "address[]"
        },
        {
          "internalType": "uint256[]",
          "name": "intervals",
          "type": "uint256[]"
        }
      ],
      "name": "setCalInterval",
      "outputs": [],
      "stateMutability": "nonpayable",
      "type": "function"
    },
    {
      "inputs": [
        {
          "internalType": "uint256",
          "name": "_idx",
          "type": "uint256"
        },
        {
          "internalType": "uint256",
          "name": "_val",
          "type": "uint256"
        }
      ],
      "name": "setConfig",
      "outputs": [],
      "stateMutability": "nonpayable",
      "type": "function"
    },
    {
      "inputs": [
        {
          "internalType": "uint256[]",
          "name": "_newCfgs",
          "type": "uint256[]"
        }
      ],
      "name": "setConfigs",
      "outputs": [],
      "stateMutability": "nonpayable",
      "type": "function"
    },
    {
      "inputs": [
        {
          "internalType": "uint256",
          "name": "x",
          "type": "uint256"
        }
      ],
      "name": "setFRateFactor",
      "outputs": [],
      "stateMutability": "nonpayable",
      "type": "function"
    },
    {
      "inputs": [
        {
          "internalType": "uint256",
          "name": "limit",
          "type": "uint256"
        }
      ],
      "name": "setFundingFeeLossOffLimit",
      "outputs": [],
      "stateMutability": "nonpayable",
      "type": "function"
    },
    {
      "inputs": [
        {
          "internalType": "address[]",
          "name": "markets",
          "type": "address[]"
        },
        {
          "internalType": "uint256[]",
          "name": "intervals",
          "type": "uint256[]"
        }
      ],
      "name": "setFundingInterval",
      "outputs": [],
      "stateMutability": "nonpayable",
      "type": "function"
    },
    {
      "inputs": [
        {
          "internalType": "address",
          "name": "_marketReader",
          "type": "address"
        }
      ],
      "name": "setMarketReader",
      "outputs": [],
      "stateMutability": "nonpayable",
      "type": "function"
    },
    {
      "inputs": [
        {
          "internalType": "uint256",
          "name": "x",
          "type": "uint256"
        }
      ],
      "name": "setMaxFRate",
      "outputs": [],
      "stateMutability": "nonpayable",
      "type": "function"
    },
    {
      "inputs": [
        {
          "internalType": "uint256",
          "name": "x",
          "type": "uint256"
        }
      ],
      "name": "setMaxFRatePerDay",
      "outputs": [],
      "stateMutability": "nonpayable",
      "type": "function"
    },
    {
      "inputs": [
        {
          "internalType": "uint256",
          "name": "limit",
          "type": "uint256"
        }
      ],
      "name": "setMinCFRate",
      "outputs": [],
      "stateMutability": "nonpayable",
      "type": "function"
    },
    {
      "inputs": [
        {
          "internalType": "uint256",
          "name": "limit",
          "type": "uint256"
        }
      ],
      "name": "setMinFRate",
      "outputs": [],
      "stateMutability": "nonpayable",
      "type": "function"
    },
    {
      "inputs": [
        {
          "internalType": "uint256",
          "name": "x",
          "type": "uint256"
        }
      ],
      "name": "setMinFundingInterval",
      "outputs": [],
      "stateMutability": "nonpayable",
      "type": "function"
    },
    {
      "inputs": [
        {
          "internalType": "uint256",
          "name": "limit",
          "type": "uint256"
        }
      ],
      "name": "setMinorityFRate",
      "outputs": [],
      "stateMutability": "nonpayable",
      "type": "function"
    },
    {
      "inputs": [
        {
          "internalType": "uint256[]",
          "name": "updatedAts",
          "type": "uint256[]"
        },
        {
          "internalType": "address[]",
          "name": "markets",
          "type": "address[]"
        }
      ],
      "name": "setUpdateAt",
      "outputs": [],
      "stateMutability": "nonpayable",
      "type": "function"
    },
    {
      "inputs": [
        {
          "internalType": "bytes4",
          "name": "interfaceId",
          "type": "bytes4"
        }
      ],
      "name": "supportsInterface",
      "outputs": [
        {
          "internalType": "bool",
          "name": "",
          "type": "bool"
        }
      ],
      "stateMutability": "view",
      "type": "function"
    },
    {
      "inputs": [
        {
          "internalType": "address",
          "name": "to",
          "type": "address"
        }
      ],
      "name": "transferAdmin",
      "outputs": [],
      "stateMutability": "nonpayable",
      "type": "function"
    },
    {
      "inputs": [
        {
          "internalType": "address",
          "name": "newOwner",
          "type": "address"
        }
      ],
      "name": "transferOwnership",
      "outputs": [],
      "stateMutability": "nonpayable",
      "type": "function"
    },
    {
      "inputs": [
        {
          "internalType": "address",
          "name": "market",
          "type": "address"
        },
        {
          "internalType": "uint256",
          "name": "longSize",
          "type": "uint256"
        },
        {
          "internalType": "uint256",
          "name": "shortSize",
          "type": "uint256"
        }
      ],
      "name": "updateCumulativeFundingRate",
      "outputs": [],
      "stateMutability": "nonpayable",
      "type": "function"
    }
  ],
  "bytecode": "0x60806040523480156200001157600080fd5b506200001d3362000023565b62000075565b600180546001600160a01b038381166001600160a01b0319831681179093556040519116919082907f8be0079c531659141344cd1fd0a4f28419497f9722a3daafe3b4186f6b6457e090600090a35050565b613a6f80620000856000396000f3fe608060405234801561001057600080fd5b506004361061035c5760003560e01c80637fe4a698116101d3578063b874970311610104578063d4681d1a116100a2578063dc5ac9951161007c578063dc5ac99514610795578063e25fefde146107a8578063f2fde38b146107bb578063fc0fd354146107ce57600080fd5b8063d4681d1a1461074f578063d547741f1461076f578063d6f5066b1461078257600080fd5b8063bf63a0a0116100de578063bf63a0a01461070e578063c418b11c14610716578063c4d66de814610729578063c6f83ad11461073c57600080fd5b8063b8749703146106e0578063bac8d9e8146106f3578063bc3d3a8b146106fb57600080fd5b806391d14854116101715780639bed226a1161014b5780639bed226a146106945780639f36dde01461069c578063a217fddf146106af578063b2b26b06146106b757600080fd5b806391d148541461066657806395d608a2146106795780639ac5d5b21461068157600080fd5b806389bff77f116101ad57806389bff77f146106325780638ac89fc21461063a5780638da5cb5b146106425780638f18af9a1461065357600080fd5b80637fe4a698146105f9578063801341a61461060c5780638698a9bd1461061f57600080fd5b80634fd39bee116102ad5780636eb5e43c1161024b57806374d57cef1161022557806374d57cef146105ab57806375829def146105b357806376239a67146105c657806378c225ce146105d957600080fd5b80636eb5e43c14610585578063715018a61461059857806372d004cf146105a057600080fd5b80635a7fdf16116102875780635a7fdf16146105095780635b7c11371461051c5780636094ee2b1461052f5780636725684f1461055a57600080fd5b80634fd39bee146104c357806350d16a29146104d65780635645d877146104e957600080fd5b806320981df41161031a5780632f2ff15d116102f45780632f2ff15d1461046a57806331021f471461047d57806336568abe14610485578063478222c21461049857600080fd5b806320981df41461042c578063248a9ca31461043f57806327d3fbf31461046257600080fd5b806298fa221461036157806301ffc9a714610387578063054aaca1146103aa5780631131cf86146103bf5780631d36a50e146103c75780631e34c58514610419575b600080fd5b61037461036f366004612f8a565b6107ee565b6040519081526020015b60405180910390f35b61039a610395366004612fa3565b61080f565b604051901515815260200161037e565b6103bd6103b8366004612fe2565b610846565b005b6103746108b6565b6104046103d5366004613017565b6001600160a01b0316600090815260096020908152604080832060018452909152808220548280529120549091565b6040805192835260208301919091520161037e565b6103bd610427366004613034565b6108dc565b61037461043a366004613064565b610901565b61037461044d366004612f8a565b60009081526020819052604090206001015490565b610374610982565b6103bd61047836600461309d565b61098d565b6103746109b7565b6103bd61049336600461309d565b6109c2565b6003546104ab906001600160a01b031681565b6040516001600160a01b03909116815260200161037e565b6103bd6104d1366004612f8a565b610a3c565b6103bd6104e4366004612f8a565b610a62565b6103746104f7366004613017565b60056020526000908152604090205481565b6103bd610517366004612f8a565b610a83565b6103bd61052a366004613017565b610aa4565b61037461053d366004613064565b600960209081526000928352604080842090915290825290205481565b610374610568366004613064565b600b60209081526000928352604080842090915290825290205481565b6103bd61059336600461326d565b610add565b6103bd610d09565b6103746305f5e10081565b610374610d1d565b6103bd6105c1366004613017565b610d28565b6103bd6105d43660046132d1565b610d52565b6103746105e7366004613017565b60086020526000908152604090205481565b6103bd610607366004613017565b610f14565b6103bd61061a366004612f8a565b610f3e565b6103bd61062d36600461332b565b610f5f565b610374610fc5565b610374610fcf565b6001546001600160a01b03166104ab565b610374610661366004613360565b610fda565b61039a61067436600461309d565b61106b565b610374611094565b6103bd61068f3660046132d1565b61109f565b61037461125b565b6103bd6106aa366004612f8a565b611266565b610374600081565b6103746106c5366004613017565b6001600160a01b03166000908152600a602052604090205490565b6103bd6106ee366004612f8a565b6112c7565b6103746112e8565b6103bd610709366004613034565b61148a565b61037461150e565b6004546104ab906001600160a01b031681565b6103bd610737366004613017565b611519565b6103bd61074a366004612fe2565b611777565b61037461075d366004613017565b60076020526000908152604090205481565b6103bd61077d36600461309d565b6117b3565b6103bd6107903660046133aa565b6117d8565b6103bd6107a3366004612f8a565b61188b565b6103bd6107b6366004612f8a565b6118ac565b6103bd6107c9366004613017565b6118cd565b6103746107dc366004613017565b600a6020526000908152604090205481565b600681815481106107fe57600080fd5b600091825260209091200154905081565b60006001600160e01b03198216637965db0b60e01b148061084057506301ffc9a760e01b6001600160e01b03198316145b92915050565b60008061085a85858542611943565b611943565b91509150600061087a86868686602001518660a0015161085591906133ec565b915050806101a00151816101800151604051631be0b97360e01b81526004016108ad929190918252602082015260400190565b60405180910390fd5b60006006805b815481106108cc576108cc6133ff565b9060005260206000200154905090565b6108f3600080516020613a1a8339815191526119b5565b6108fd82826119bf565b5050565b6003546040516001624c409d60e01b031981526001600160a01b0384811660048301528315156024830152600092169063ffb3bf6390604401602060405180830381865afa158015610957573d6000803e3d6000fd5b505050506040513d601f19601f8201168201806040525081019061097b9190613415565b9392505050565b6000600660076108bc565b6000828152602081905260409020600101546109a8816119b5565b6109b28383611a49565b505050565b6000600660046108bc565b6001600160a01b0381163314610a325760405162461bcd60e51b815260206004820152602f60248201527f416363657373436f6e74726f6c3a2063616e206f6e6c792072656e6f756e636560448201526e103937b632b9903337b91039b2b63360891b60648201526084016108ad565b6108fd8282611acd565b610a53600080516020613a1a8339815191526119b5565b610a5f60035b826119bf565b50565b610a79600080516020613a1a8339815191526119b5565b610a5f6001610a59565b610a9a600080516020613a1a8339815191526119b5565b610a5f6008610a59565b610abb600080516020613a1a8339815191526119b5565b600480546001600160a01b0319166001600160a01b0392909216919091179055565b610af4600080516020613a1a8339815191526119b5565b8051825114610b375760405162461bcd60e51b815260206004820152600f60248201526e0dad2e6dac2e8c6d040d8cadccee8d608b1b60448201526064016108ad565b60005b81518110156109b257828181518110610b5557610b556133ff565b602002602001015160086000848481518110610b7357610b736133ff565b60200260200101516001600160a01b03166001600160a01b0316815260200190815260200160002081905550600360009054906101000a90046001600160a01b03166001600160a01b031663b21bf2d3838381518110610bd557610bd56133ff565b6020026020010151600080600080898881518110610bf557610bf56133ff565b60209081029190910101516040516001600160e01b031960e089901b1681526001600160a01b039096166004870152602486019490945260448501929092526064840152608483015260a482015260c401600060405180830381600087803b158015610c6057600080fd5b505af1158015610c74573d6000803e3d6000fd5b505050507f4d67f7d80a18414610613bcd82c005df45389ac7808cbd04b6ea464d60a3eb12828281518110610cab57610cab6133ff565b6020026020010151848381518110610cc557610cc56133ff565b6020026020010151604051610cef9291906001600160a01b03929092168252602082015260400190565b60405180910390a180610d018161342e565b915050610b3a565b610d11611b32565b610d1b6000611b8c565b565b6000600660036108bc565b6000610d33816119b5565b610d3e600083611bde565b610d4782611b8c565b6108fd600033611acd565b610d69600080516020613a1a8339815191526119b5565b8051825114610dab5760405162461bcd60e51b815260206004820152600e60248201526d696e76616c696420706172616d7360901b60448201526064016108ad565b6000805b8351811015610f0e5760006001600160a01b0316848281518110610dd557610dd56133ff565b60200260200101516001600160a01b031603610df057600080fd5b610df86108b6565b838281518110610e0a57610e0a6133ff565b60200260200101511015610e1d57600080fd5b610e256108b6565b610e2d6108b6565b848381518110610e3f57610e3f6133ff565b6020026020010151610e51919061345d565b610e5b9190613471565b91508160056000868481518110610e7457610e746133ff565b60200260200101516001600160a01b03166001600160a01b0316815260200190815260200160002081905550838181518110610eb257610eb26133ff565b60200260200101516001600160a01b03167f014f9b627a46d0881111664e681522272907a49b31cc3f24613bdad2c551825c83604051610ef491815260200190565b60405180910390a280610f068161342e565b915050610daf565b50505050565b7f8d1089725c0dc266707fa6207730fb801dcd03108bfed7a21099bd303651d2b761035c816119b5565b610f55600080516020613a1a8339815191526119b5565b610a5f6009610a59565b610f76600080516020613a1a8339815191526119b5565b600a815114610f8457600080fd5b60005b81518110156108fd57610fb381838381518110610fa657610fa66133ff565b60200260200101516119bf565b80610fbd8161342e565b915050610f87565b60006006816108bc565b6000600660016108bc565b6003546040516334f32e2560e01b81526001600160a01b038681166004830152831515602483015260009283929116906334f32e2590604401602060405180830381865afa158015611030573d6000803e3d6000fd5b505050506040513d601f19601f820116820180604052508101906110549190613415565b9050611061858583611be8565b9695505050505050565b6000918252602082815260408084206001600160a01b0393909316845291905290205460ff1690565b6000600660026108bc565b6110b6600080516020613a1a8339815191526119b5565b80518251146110f85760405162461bcd60e51b815260206004820152600e60248201526d696e76616c696420706172616d7360901b60448201526064016108ad565b6000805b8351811015610f0e5760006001600160a01b0316848281518110611122576111226133ff565b60200260200101516001600160a01b03160361113d57600080fd5b6111456108b6565b838281518110611157576111576133ff565b6020026020010151101561116a57600080fd5b6111726108b6565b61117a6108b6565b84838151811061118c5761118c6133ff565b602002602001015161119e919061345d565b6111a89190613471565b915081600760008684815181106111c1576111c16133ff565b60200260200101516001600160a01b03166001600160a01b03168152602001908152602001600020819055508381815181106111ff576111ff6133ff565b60200260200101516001600160a01b03167f1b8e6b844a5201ce0d37b6d92b871ff8ee5aede9e47593abc68ce8b2d1d25b888360405161124191815260200190565b60405180910390a2806112538161342e565b9150506110fc565b6000600660086108bc565b61127d600080516020613a1a8339815191526119b5565b600081116112bd5760405162461bcd60e51b815260206004820152600d60248201526c1a5b9d985b1a59081b1a5b5a5d609a1b60448201526064016108ad565b610a5f6004610a59565b6112de600080516020613a1a8339815191526119b5565b610a5f6002610a59565b6004805460408051637616480b60e11b815290516000936001600160a01b03909316928492849263ec2c90169282810192869291908290030181865afa158015611336573d6000803e3d6000fd5b505050506040513d6000823e601f3d908101601f1916820160405261135e91908101906134c7565b905060005b815181101561148457826001600160a01b031663d37c441c6040518163ffffffff1660e01b8152600401602060405180830381865afa1580156113aa573d6000803e3d6000fd5b505050506040513d601f19601f820116820180604052508101906113ce919061363c565b6001600160a01b0316632b8a00128383815181106113ee576113ee6133ff565b6020026020010151602001516040518263ffffffff1660e01b815260040161142591906001600160a01b0391909116815260200190565b602060405180830381865afa158015611442573d6000803e3d6000fd5b505050506040513d601f19601f820116820180604052508101906114669190613415565b61147090856133ec565b93508061147c8161342e565b915050611363565b50505090565b6114a1600080516020613a1a8339815191526119b5565b6114ab8282613659565b60066000815481106114bf576114bf6133ff565b9060005260206000200160008282546114d891906133ec565b9091555050604051819083907fbb67e50fdd1f174a20c4f1e0e5b9ab3984685f30623b89b69ba068a11ce913b690600090a35050565b6000600660096108bc565b600154600160a81b900460ff161580801561153f575060018054600160a01b900460ff16105b8061155f5750303b15801561155f575060018054600160a01b900460ff16145b6115c25760405162461bcd60e51b815260206004820152602e60248201527f496e697469616c697a61626c653a20636f6e747261637420697320616c72656160448201526d191e481a5b9a5d1a585b1a5e995960921b60648201526084016108ad565b6001805460ff60a01b1916600160a01b17905580156115ef576001805460ff60a81b1916600160a81b1790555b6001600160a01b0382166116385760405162461bcd60e51b815260206004820152601060248201526f1a5b9d985b1a590819995955985d5b1d60821b60448201526064016108ad565b61164133611c15565b6040805160c8808252611920820190925290602082016119008036833750508151611673926006925060200190612e73565b506305f5e100600660018154811061168d5761168d6133ff565b6000918252602090912001556305f5e10060066002815481106116b2576116b26133ff565b6000918252602090912001556104e260066004815481106116d5576116d56133ff565b600091825260209091200155600380546001600160a01b0319166001600160a01b038416179055611714600080516020613a1a83398151915233611a49565b6117216006610e106119bf565b61172d600960466119bf565b80156108fd576001805460ff60a81b191681556040519081527f7f26b83ff96e1f2b6a682f133852f6798a09c465da95921460cefb38474024989060200160405180910390a15050565b6117a07fcb58d6d985142a614029cdf01861b4fe094d5919a47e69b8310dc4093d9d6ad06119b5565b6117ac83838342611943565b5050505050565b6000828152602081905260409020600101546117ce816119b5565b6109b28383611acd565b6118017fcb58d6d985142a614029cdf01861b4fe094d5919a47e69b8310dc4093d9d6ad06119b5565b6001600160a01b0382166000908152600a6020526040812080549183919061182983856133ec565b90915550506001600160a01b0383166000818152600a60209081526040918290205482518681529182018590528183015290517ff92e4260a5a0861b750596d87de06d7f097df50397fa2af2d7d33d9c6d8674589181900360600190a2505050565b6118a2600080516020613a1a8339815191526119b5565b610a5f6007610a59565b6118c3600080516020613a1a8339815191526119b5565b610a5f6006610a59565b6118d5611b32565b6001600160a01b03811661193a5760405162461bcd60e51b815260206004820152602660248201527f4f776e61626c653a206e6577206f776e657220697320746865207a65726f206160448201526564647265737360d01b60648201526084016108ad565b610a5f81611b8c565b61194b612eba565b611953612f06565b61195e868686611c38565b91506000806000806119828989898961197561125b565b61197d61150e565b611d66565b9350935093509350801561199b5761199b83838c61201a565b6119a686858c6120e5565b50919250505094509492505050565b610a5f813361219f565b6000600683815481106119d4576119d46133ff565b9060005260206000200154905081600684815481106119f5576119f56133ff565b600091825260209182902001919091556040805185815291820183905281018390527f7ee20b53ffb80d74dc08be0adedf33c8fa93e5b44eb347a27eedd30c3d6bc35c9060600160405180910390a1505050565b611a53828261106b565b6108fd576000828152602081815260408083206001600160a01b03851684529091529020805460ff19166001179055611a893390565b6001600160a01b0316816001600160a01b0316837f2f8788117e7eff1d82e926ec794901d17c78024a50270940304540a733656f0d60405160405180910390a45050565b611ad7828261106b565b156108fd576000828152602081815260408083206001600160a01b0385168085529252808320805460ff1916905551339285917ff6391f5c32d9c69d2a47ea670b442974b53935d1edc7fd64eb21e047a839171b9190a45050565b6001546001600160a01b03163314610d1b5760405162461bcd60e51b815260206004820181905260248201527f4f776e61626c653a2063616c6c6572206973206e6f7420746865206f776e657260448201526064016108ad565b600180546001600160a01b038381166001600160a01b0319831681179093556040519116919082907f8be0079c531659141344cd1fd0a4f28419497f9722a3daafe3b4186f6b6457e090600090a35050565b6108fd8282611a49565b60006305f5e100611bf9848461366c565b611c039086613693565b611c0d91906136c3565b949350505050565b42600255611c2233611b8c565b611c2d600033611bde565b610a5f600082611bde565b611c40612eba565b6001600160a01b0384166000818152600760209081526040808320548552838352600582528083205485830152928252600890528190205490820152611c85846121f8565b60608201526001600160a01b0384166000818152600a602090815260408083205461010086015292825260098152828220600183528082528383205460e08601528280529052205460c082015260068054611d559185918591906003908110611cf057611cf06133ff565b600091825260209091200154600680546004908110611d1157611d116133ff565b9060005260206000200154611d2589612267565b611d308a8a8a612368565b600680546007908110611d4557611d456133ff565b9060005260206000200154612385565b608083015260a08201529392505050565b611d6e612f06565b611d76612eba565b611d7e612f06565b6000611d89876123d2565b9350611d9687858a61241d565b90508015611f7a57611da88785612452565b15611dc457611db78785612486565b611dc4848b8b8989612519565b611dcf8789866125c0565b15611e0e57611dde87856125f3565b60005b8460600151811015611e0c57611dfa858c8c8a8a612519565b80611e048161342e565b915050611de1565b505b83604051602001611eb09190815181526020808301519082015260408083015190820152606080830151908201526080808301519082015260a0808301519082015260c0808301519082015260e08083015190820152610100808301519082015261012080830151908201526101408083015190820152610160808301519082015261018080830151908201526101a091820151918101919091526101c00190565b604051602081830303815290604052806020019051810190611ed291906136f1565b915086604051602001611f459190600061012082019050825182526020830151602083015260408301516040830152606083015160608301526080830151608083015260a083015160a083015260c083015160c083015260e083015160e083015261010080840151818401525092915050565b604051602081830303815290604052806020019051810190611f6791906137a8565b6000610120860181905261010086015292505b611f8587898661264f565b1561200d5760808401518751611f9b9190613471565b8460a001818151611fac91906133ec565b905250608084015160a0880151611fcb91611fc691613471565b612692565b8461012001818151611fdd9190613823565b90525060808085015190880151611ff791611fc691613471565b84610100018181516120099190613823565b9052505b9650965096509692505050565b61203a8183600001518561010001516120339190613659565b8451612700565b6003546101408301516101608401516101a085015161018086015160a087015160405163b21bf2d360e01b81526001600160a01b038881166004830152602482019690965260448101949094526064840192909252608483015260a482015291169063b21bf2d39060c401600060405180830381600087803b1580156120bf57600080fd5b505af11580156120d3573d6000803e3d6000fd5b505050506109b2818360a00151612779565b608082015183516120f69190613471565b8260a00181815161210791906133ec565b90525060a0830180516001600160a01b0383166000818152600b6020908152604080832060018452825280832094909455608088018051838052928590209290925593519051835191825293810193909352917f8bfe8b5c73740b3875e694ce9425829dc01970e61b7edbe2b3c2d379328bab72910160405180910390a26109b2818361012001518461010001518560a00151612834565b6121a9828261106b565b6108fd576121b681612943565b6121c1836020612955565b6040516020016121d292919061384b565b60408051601f198184030181529082905262461bcd60e51b82526108ad916004016138c0565b60035460405163d8f897c360e01b81526001600160a01b038381166004830152600092169063d8f897c390602401602060405180830381865afa158015612243573d6000803e3d6000fd5b505050506040513d601f19601f820116820180604052508101906108409190613415565b6004546000906001600160a01b03168161227f6112e8565b90506000826001600160a01b031663d37c441c6040518163ffffffff1660e01b8152600401602060405180830381865afa1580156122c1573d6000803e3d6000fd5b505050506040513d601f19601f820116820180604052508101906122e5919061363c565b6001600160a01b0316636dc7b0a16040518163ffffffff1660e01b8152600401602060405180830381865afa158015612322573d6000803e3d6000fd5b505050506040513d601f19601f820116820180604052508101906123469190613415565b9050600061235386612af1565b90506110618383612362610fcf565b84612afe565b6000611c0d838361237887612af1565b612380611094565b612b54565b60008086156123945786612396565b845b9650868411156123a4578693505b858410156123b0578593505b878910156123bf5782846123c2565b83835b9150915097509795505050505050565b6123da612f06565b815160208301516123eb919061345d565b602082015260e082015161012082015260c082015161010080830191909152604083015160a083015290910151815290565b60008260a001518210156124335750600061097b565b818460200151856060015161244891906133ec565b1115949350505050565b8151606083015160408401516000929161246b91613659565b612475919061345d565b604083018190521515905092915050565b8160200151826060015161249a91906133ec565b60a0820152604081015160208201516124c5916124b691613659565b8360a00151611fc69190613471565b8260e001516124d49190613823565b61012082015260408101516020820151612500916124f191613659565b8360800151611fc69190613471565b8260c0015161250f9190613823565b6101009091015250565b600061253086610120015187610100015185612c05565b905061254f86610120015187610100015183858a600001518a8a612c25565b60c089015261016088015261014087018190526101a087018051612574908390613823565b9052506101608601516101808701805161258f908390613823565b90525060c08601518651116125a55760006125b6565b60c086015186516125b69190613659565b9095525050505050565b600083602001518260a00151846125d79190613659565b6125e1919061345d565b60608301819052151590509392505050565b806060015182602001516126079190613471565b8160a00181815161261891906133ec565b905250602081015160a083015161263291611fc691613471565b6101208201526020810151608083015161250f91611fc691613471565b60008160a001518310156126655750600061097b565b835160a08301516126769085613659565b612680919061345d565b60808301819052151590509392505050565b60006001600160ff1b038211156126fc5760405162461bcd60e51b815260206004820152602860248201527f53616665436173743a2076616c756520646f65736e27742066697420696e2061604482015267371034b73a191a9b60c11b60648201526084016108ad565b5090565b6001600160a01b0383166000818152600a6020908152604091829020548251868152918201529081018390527f46688c57894e3513fd67b19c1f09ffe6b4a24062d8d29e580ba554fe4384c0e09060600160405180910390a26001600160a01b039092166000908152600a602052604090209190915550565b6001600160a01b0382166000818152600960209081526040808320600184528252808320839055828052808320839055838352600882528083208590558051838152918201929092527f18c1e75c2355914e05f0e3d65be88099e2489e17f7a307d0adc3a22239b4667f910160405180910390a2816001600160a01b03167f5e6f1d9aee6db6f0c00c16081ad195c05424762f100ab07c4fdbe9fde1d42a6c8260405161282891815260200190565b60405180910390a25050565b6001600160a01b03841660009081526009602090815260408083206001845290915281208054859290612868908490613823565b90915550506001600160a01b0384166000908152600960209081526040808320838052909152812080548492906128a0908490613823565b90915550506001600160a01b03841660008181526008602090815260409182902084905581518681529081018590527f18c1e75c2355914e05f0e3d65be88099e2489e17f7a307d0adc3a22239b4667f910160405180910390a2836001600160a01b03167f5e6f1d9aee6db6f0c00c16081ad195c05424762f100ab07c4fdbe9fde1d42a6c8260405161293591815260200190565b60405180910390a250505050565b60606108406001600160a01b03831660145b60606000612964836002613471565b61296f9060026133ec565b67ffffffffffffffff811115612987576129876130c2565b6040519080825280601f01601f1916602001820160405280156129b1576020820181803683370190505b509050600360fc1b816000815181106129cc576129cc6133ff565b60200101906001600160f81b031916908160001a905350600f60fb1b816001815181106129fb576129fb6133ff565b60200101906001600160f81b031916908160001a9053506000612a1f846002613471565b612a2a9060016133ec565b90505b6001811115612aa2576f181899199a1a9b1b9c1cb0b131b232b360811b85600f1660108110612a5e57612a5e6133ff565b1a60f81b828281518110612a7457612a746133ff565b60200101906001600160f81b031916908160001a90535060049490941c93612a9b816138f3565b9050612a2d565b50831561097b5760405162461bcd60e51b815260206004820181905260248201527f537472696e67733a20686578206c656e67746820696e73756666696369656e7460448201526064016108ad565b6000610840826007612d4f565b600080610e106305f5e1006018878288612b18898d613471565b612b229190613471565b612b2c9190613471565b612b36919061345d565b612b40919061345d565b612b4a919061345d565b611061919061345d565b600080612b618686612d79565b905060008115611061576000612b7787896133ec565b905080612b886305f5e10085613471565b612b92919061345d565b9150610e10601860646305f5e10089612bac6002886139ee565b612bb69190613471565b612bc0919061345d565b612bca919061345d565b612bd4919061345d565b612bde919061345d565b91506305f5e100612bef8684613471565b612bf9919061345d565b98975050505050505050565b6000612c19612c148585612d9d565b612dba565b9050611c0d8183612e0c565b600080600080600086118015612c3b5750600085115b9050898b12612cc557612c50868a8a8a612e22565b9150612c5b89612692565b93508015612cc057612c6c85612692565b612c796305f5e100612692565b612c8284612692565b612c8c9190613693565b85612c9689612692565b612ca09190613693565b612caa919061366c565b612cb3906139fd565b612cbd91906136c3565b92505b612d41565b612cd1858a8a8a612e22565b9150612cdc89612692565b92508015612d4157612ced86612692565b612cfa6305f5e100612692565b612d0384612692565b612d0d9190613693565b84612d1788612692565b612d219190613693565b612d2b919061366c565b612d34906139fd565b612d3e91906136c3565b93505b509750975097945050505050565b6001600160a01b038216600090815260208290526040812054908190036108405750610e10610840565b6000818310612d9357612d8c8284613659565b9050610840565b612d8c8383613659565b6000818312612db057612d8c828461366c565b612d8c838361366c565b6000808212156126fc5760405162461bcd60e51b815260206004820181905260248201527f53616665436173743a2076616c7565206d75737420626520706f73697469766560448201526064016108ad565b6000818311612e1b578161097b565b5090919050565b6000612e5b612e3660026305f5e1006139ee565b84612e418789613471565b612e4b9190613471565b612e55919061345d565b83612e64565b95945050505050565b6000818310612e1b578161097b565b828054828255906000526020600020908101928215612eae579160200282015b82811115612eae578251825591602001919060010190612e93565b506126fc929150612f75565b6040518061012001604052806000815260200160008152602001600081526020016000815260200160008152602001600081526020016000815260200160008152602001600081525090565b604051806101c0016040528060008152602001600081526020016000815260200160008152602001600081526020016000815260200160008152602001600081526020016000815260200160008152602001600081526020016000815260200160008152602001600081525090565b5b808211156126fc5760008155600101612f76565b600060208284031215612f9c57600080fd5b5035919050565b600060208284031215612fb557600080fd5b81356001600160e01b03198116811461097b57600080fd5b6001600160a01b0381168114610a5f57600080fd5b600080600060608486031215612ff757600080fd5b833561300281612fcd565b95602085013595506040909401359392505050565b60006020828403121561302957600080fd5b813561097b81612fcd565b6000806040838503121561304757600080fd5b50508035926020909101359150565b8015158114610a5f57600080fd5b6000806040838503121561307757600080fd5b823561308281612fcd565b9150602083013561309281613056565b809150509250929050565b600080604083850312156130b057600080fd5b82359150602083013561309281612fcd565b634e487b7160e01b600052604160045260246000fd5b60405160a0810167ffffffffffffffff811182821017156130fb576130fb6130c2565b60405290565b6040516101c0810167ffffffffffffffff811182821017156130fb576130fb6130c2565b604051610120810167ffffffffffffffff811182821017156130fb576130fb6130c2565b604051601f8201601f1916810167ffffffffffffffff81118282101715613172576131726130c2565b604052919050565b600067ffffffffffffffff821115613194576131946130c2565b5060051b60200190565b600082601f8301126131af57600080fd5b813560206131c46131bf8361317a565b613149565b82815260059290921b840181019181810190868411156131e357600080fd5b8286015b848110156131fe57803583529183019183016131e7565b509695505050505050565b600082601f83011261321a57600080fd5b8135602061322a6131bf8361317a565b82815260059290921b8401810191818101908684111561324957600080fd5b8286015b848110156131fe57803561326081612fcd565b835291830191830161324d565b6000806040838503121561328057600080fd5b823567ffffffffffffffff8082111561329857600080fd5b6132a48683870161319e565b935060208501359150808211156132ba57600080fd5b506132c785828601613209565b9150509250929050565b600080604083850312156132e457600080fd5b823567ffffffffffffffff808211156132fc57600080fd5b61330886838701613209565b9350602085013591508082111561331e57600080fd5b506132c78582860161319e565b60006020828403121561333d57600080fd5b813567ffffffffffffffff81111561335457600080fd5b611c0d8482850161319e565b6000806000806080858703121561337657600080fd5b843561338181612fcd565b93506020850135925060408501359150606085013561339f81613056565b939692955090935050565b600080604083850312156133bd57600080fd5b82356133c881612fcd565b946020939093013593505050565b634e487b7160e01b600052601160045260246000fd5b80820180821115610840576108406133d6565b634e487b7160e01b600052603260045260246000fd5b60006020828403121561342757600080fd5b5051919050565b600060018201613440576134406133d6565b5060010190565b634e487b7160e01b600052601260045260246000fd5b60008261346c5761346c613447565b500490565b8082028115828204841417610840576108406133d6565b60005b838110156134a357818101518382015260200161348b565b50506000910152565b80516134b781612fcd565b919050565b80516134b781613056565b600060208083850312156134da57600080fd5b825167ffffffffffffffff808211156134f257600080fd5b818501915085601f83011261350657600080fd5b81516135146131bf8261317a565b81815260059190911b8301840190848101908883111561353357600080fd5b8585015b8381101561362f5780518581111561354e57600080fd5b8601601f1960a0828d03820112156135665760008081fd5b61356e6130d8565b89830151888111156135805760008081fd5b8301603f81018e136135925760008081fd5b8a81015160408a8211156135a8576135a86130c2565b6135b88d86601f85011601613149565b94508185528f818385010111156135cf5760008081fd5b6135de828e8701838601613488565b8484526135ec8187016134ac565b8d850152606094508486015181850152505050608061360c8185016134bc565b8383015261361c60a085016134bc565b9082015285525050918601918601613537565b5098975050505050505050565b60006020828403121561364e57600080fd5b815161097b81612fcd565b81810381811115610840576108406133d6565b818103600083128015838313168383128216171561368c5761368c6133d6565b5092915050565b80820260008212600160ff1b841416156136af576136af6133d6565b8181058314821517610840576108406133d6565b6000826136d2576136d2613447565b600160ff1b8214600019841416156136ec576136ec6133d6565b500590565b60006101c0828403121561370457600080fd5b61370c613101565b825181526020830151602082015260408301516040820152606083015160608201526080830151608082015260a083015160a082015260c083015160c082015260e083015160e08201526101008084015181830152506101208084015181830152506101408084015181830152506101608084015181830152506101808084015181830152506101a08084015181830152508091505092915050565b600061012082840312156137bb57600080fd5b6137c3613125565b825181526020830151602082015260408301516040820152606083015160608201526080830151608082015260a083015160a082015260c083015160c082015260e083015160e08201526101008084015181830152508091505092915050565b8082018281126000831280158216821582161715613843576138436133d6565b505092915050565b7f416363657373436f6e74726f6c3a206163636f756e7420000000000000000000815260008351613883816017850160208801613488565b7001034b99036b4b9b9b4b733903937b6329607d1b60179184019182015283516138b4816028840160208801613488565b01602801949350505050565b60208152600082518060208401526138df816040850160208701613488565b601f01601f19169190910160400192915050565b600081613902576139026133d6565b506000190190565b600181815b8085111561394557816000190482111561392b5761392b6133d6565b8085161561393857918102915b93841c939080029061390f565b509250929050565b60008261395c57506001610840565b8161396957506000610840565b816001811461397f5760028114613989576139a5565b6001915050610840565b60ff84111561399a5761399a6133d6565b50506001821b610840565b5060208310610133831016604e8410600b84101617156139c8575081810a610840565b6139d2838361390a565b80600019048211156139e6576139e66133d6565b029392505050565b600061097b60ff84168361394d565b6000600160ff1b8201613a1257613a126133d6565b506000039056fe241ecf16d79d0f8dbfb92cbc07fe17840425976cf0667f022fe9877caa831b08a264697066735822122081f2eeb8258315138ca7bcad2cfc00bf4341d1e144c8b0513df671a62694cab864736f6c63430008110033",
  "linkReferences": {},
  "deployedLinkReferences": {}
}