{
  "_format": "hh-sol-artifact-1",
  "contractName": "MarketReader",
  "sourceName": "contracts/market/MarketReader.sol",
  "abi": [
    {
      "inputs": [
        {
          "internalType": "address",
          "name": "_f",
          "type": "address"
        }
      ],
      "stateMutability": "nonpayable",
      "type": "constructor"
    },
    {
      "anonymous": false,
      "inputs": [
        {
          "indexed": false,
          "internalType": "uint8",
          "name": "version",
          "type": "uint8"
        }
      ],
      "name": "Initialized",
      "type": "event"
    },
    {
      "anonymous": false,
      "inputs": [
        {
          "indexed": true,
          "internalType": "address",
          "name": "previousOwner",
          "type": "address"
        },
        {
          "indexed": true,
          "internalType": "address",
          "name": "newOwner",
          "type": "address"
        }
      ],
      "name": "OwnershipTransferred",
      "type": "event"
    },
    {
      "anonymous": false,
      "inputs": [
        {
          "indexed": true,
          "internalType": "bytes32",
          "name": "role",
          "type": "bytes32"
        },
        {
          "indexed": true,
          "internalType": "bytes32",
          "name": "previousAdminRole",
          "type": "bytes32"
        },
        {
          "indexed": true,
          "internalType": "bytes32",
          "name": "newAdminRole",
          "type": "bytes32"
        }
      ],
      "name": "RoleAdminChanged",
      "type": "event"
    },
    {
      "anonymous": false,
      "inputs": [
        {
          "indexed": true,
          "internalType": "bytes32",
          "name": "role",
          "type": "bytes32"
        },
        {
          "indexed": true,
          "internalType": "address",
          "name": "account",
          "type": "address"
        },
        {
          "indexed": true,
          "internalType": "address",
          "name": "sender",
          "type": "address"
        }
      ],
      "name": "RoleGranted",
      "type": "event"
    },
    {
      "anonymous": false,
      "inputs": [
        {
          "indexed": true,
          "internalType": "bytes32",
          "name": "role",
          "type": "bytes32"
        },
        {
          "indexed": true,
          "internalType": "address",
          "name": "account",
          "type": "address"
        },
        {
          "indexed": true,
          "internalType": "address",
          "name": "sender",
          "type": "address"
        }
      ],
      "name": "RoleRevoked",
      "type": "event"
    },
    {
      "inputs": [],
      "name": "DEFAULT_ADMIN_ROLE",
      "outputs": [
        {
          "internalType": "bytes32",
          "name": "",
          "type": "bytes32"
        }
      ],
      "stateMutability": "view",
      "type": "function"
    },
    {
      "inputs": [
        {
          "internalType": "address",
          "name": "market",
          "type": "address"
        },
        {
          "internalType": "address",
          "name": "account",
          "type": "address"
        },
        {
          "internalType": "bool",
          "name": "isLong",
          "type": "bool"
        }
      ],
      "name": "availableLiquidity",
      "outputs": [
        {
          "internalType": "uint256",
          "name": "",
          "type": "uint256"
        }
      ],
      "stateMutability": "view",
      "type": "function"
    },
    {
      "inputs": [],
      "name": "fac",
      "outputs": [
        {
          "internalType": "contract IMarketFactory",
          "name": "",
          "type": "address"
        }
      ],
      "stateMutability": "view",
      "type": "function"
    },
    {
      "inputs": [
        {
          "internalType": "address",
          "name": "account",
          "type": "address"
        },
        {
          "internalType": "address",
          "name": "market",
          "type": "address"
        },
        {
          "internalType": "bool",
          "name": "isLong",
          "type": "bool"
        }
      ],
      "name": "getFundingFee",
      "outputs": [
        {
          "internalType": "int256",
          "name": "",
          "type": "int256"
        }
      ],
      "stateMutability": "view",
      "type": "function"
    },
    {
      "inputs": [
        {
          "internalType": "address",
          "name": "_market",
          "type": "address"
        },
        {
          "internalType": "bool",
          "name": "_isLong",
          "type": "bool"
        }
      ],
      "name": "getFundingRate",
      "outputs": [
        {
          "internalType": "int256",
          "name": "",
          "type": "int256"
        },
        {
          "internalType": "int256",
          "name": "",
          "type": "int256"
        }
      ],
      "stateMutability": "view",
      "type": "function"
    },
    {
      "inputs": [
        {
          "internalType": "address",
          "name": "_marketAddr",
          "type": "address"
        }
      ],
      "name": "getMarket",
      "outputs": [
        {
          "components": [
            {
              "internalType": "uint256",
              "name": "minSlippage",
              "type": "uint256"
            },
            {
              "internalType": "uint256",
              "name": "maxSlippage",
              "type": "uint256"
            },
            {
              "internalType": "uint256",
              "name": "slippageDigits",
              "type": "uint256"
            },
            {
              "internalType": "uint256",
              "name": "minLev",
              "type": "uint256"
            },
            {
              "internalType": "uint256",
              "name": "maxLev",
              "type": "uint256"
            },
            {
              "internalType": "uint256",
              "name": "minCollateral",
              "type": "uint256"
            },
            {
              "internalType": "uint256",
              "name": "maxTradeAmount",
              "type": "uint256"
            },
            {
              "internalType": "bool",
              "name": "allowOpen",
              "type": "bool"
            },
            {
              "internalType": "bool",
              "name": "allowClose",
              "type": "bool"
            }
          ],
          "internalType": "struct IMarketReader.ValidOuts",
          "name": "validOuts",
          "type": "tuple"
        },
        {
          "components": [
            {
              "internalType": "uint256",
              "name": "tokenDigits",
              "type": "uint256"
            },
            {
              "internalType": "uint256",
              "name": "closeFeeRate",
              "type": "uint256"
            },
            {
              "internalType": "uint256",
              "name": "openFeeRate",
              "type": "uint256"
            },
            {
              "internalType": "uint256",
              "name": "liquidationFeeUsd",
              "type": "uint256"
            },
            {
              "internalType": "uint256",
              "name": "spread",
              "type": "uint256"
            },
            {
              "internalType": "address",
              "name": "indexToken",
              "type": "address"
            },
            {
              "internalType": "address",
              "name": "collateralToken",
              "type": "address"
            },
            {
              "internalType": "address",
              "name": "orderBookLong",
              "type": "address"
            },
            {
              "internalType": "address",
              "name": "orderBookShort",
              "type": "address"
            },
            {
              "internalType": "address",
              "name": "positionBook",
              "type": "address"
            }
          ],
          "internalType": "struct IMarketReader.MarketOuts",
          "name": "mktOuts",
          "type": "tuple"
        },
        {
          "components": [
            {
              "internalType": "uint256",
              "name": "closeFeeRate",
              "type": "uint256"
            },
            {
              "internalType": "uint256",
              "name": "openFeeRate",
              "type": "uint256"
            },
            {
              "internalType": "uint256",
              "name": "execFee",
              "type": "uint256"
            },
            {
              "internalType": "uint256",
              "name": "liquidateFee",
              "type": "uint256"
            },
            {
              "internalType": "uint256",
              "name": "digits",
              "type": "uint256"
            }
          ],
          "internalType": "struct IMarketReader.FeeOuts",
          "name": "feeOuts",
          "type": "tuple"
        }
      ],
      "stateMutability": "view",
      "type": "function"
    },
    {
      "inputs": [],
      "name": "getMarkets",
      "outputs": [
        {
          "components": [
            {
              "internalType": "string",
              "name": "name",
              "type": "string"
            },
            {
              "internalType": "address",
              "name": "addr",
              "type": "address"
            },
            {
              "internalType": "uint256",
              "name": "minPay",
              "type": "uint256"
            },
            {
              "internalType": "bool",
              "name": "allowOpen",
              "type": "bool"
            },
            {
              "internalType": "bool",
              "name": "allowClose",
              "type": "bool"
            }
          ],
          "internalType": "struct IMarketFactory.Outs[]",
          "name": "_outs",
          "type": "tuple[]"
        }
      ],
      "stateMutability": "view",
      "type": "function"
    },
    {
      "inputs": [
        {
          "internalType": "address",
          "name": "account",
          "type": "address"
        },
        {
          "internalType": "address",
          "name": "market",
          "type": "address"
        }
      ],
      "name": "getPositions",
      "outputs": [
        {
          "components": [
            {
              "internalType": "address",
              "name": "market",
              "type": "address"
            },
            {
              "internalType": "bool",
              "name": "isLong",
              "type": "bool"
            },
            {
              "internalType": "uint32",
              "name": "lastTime",
              "type": "uint32"
            },
            {
              "internalType": "uint216",
              "name": "extra3",
              "type": "uint216"
            },
            {
              "internalType": "uint256",
              "name": "size",
              "type": "uint256"
            },
            {
              "internalType": "uint256",
              "name": "collateral",
              "type": "uint256"
            },
            {
              "internalType": "uint256",
              "name": "averagePrice",
              "type": "uint256"
            },
            {
              "internalType": "int256",
              "name": "entryFundingRate",
              "type": "int256"
            },
            {
              "internalType": "int256",
              "name": "realisedPnl",
              "type": "int256"
            },
            {
              "internalType": "uint256",
              "name": "extra0",
              "type": "uint256"
            },
            {
              "internalType": "uint256",
              "name": "extra1",
              "type": "uint256"
            },
            {
              "internalType": "uint256",
              "name": "extra2",
              "type": "uint256"
            }
          ],
          "internalType": "struct Position.Props[]",
          "name": "_positions",
          "type": "tuple[]"
        }
      ],
      "stateMutability": "view",
      "type": "function"
    },
    {
      "inputs": [
        {
          "internalType": "bytes32",
          "name": "role",
          "type": "bytes32"
        }
      ],
      "name": "getRoleAdmin",
      "outputs": [
        {
          "internalType": "bytes32",
          "name": "",
          "type": "bytes32"
        }
      ],
      "stateMutability": "view",
      "type": "function"
    },
    {
      "inputs": [
        {
          "internalType": "bytes32",
          "name": "role",
          "type": "bytes32"
        },
        {
          "internalType": "address",
          "name": "account",
          "type": "address"
        }
      ],
      "name": "grantAndRevoke",
      "outputs": [],
      "stateMutability": "nonpayable",
      "type": "function"
    },
    {
      "inputs": [
        {
          "internalType": "address",
          "name": "_account",
          "type": "address"
        }
      ],
      "name": "grantControllerRoleByMarketManager",
      "outputs": [],
      "stateMutability": "nonpayable",
      "type": "function"
    },
    {
      "inputs": [
        {
          "internalType": "bytes32",
          "name": "role",
          "type": "bytes32"
        },
        {
          "internalType": "address",
          "name": "account",
          "type": "address"
        }
      ],
      "name": "grantRole",
      "outputs": [],
      "stateMutability": "nonpayable",
      "type": "function"
    },
    {
      "inputs": [
        {
          "internalType": "bytes32",
          "name": "role",
          "type": "bytes32"
        },
        {
          "internalType": "address",
          "name": "account",
          "type": "address"
        }
      ],
      "name": "hasRole",
      "outputs": [
        {
          "internalType": "bool",
          "name": "",
          "type": "bool"
        }
      ],
      "stateMutability": "view",
      "type": "function"
    },
    {
      "inputs": [
        {
          "internalType": "address",
          "name": "_marketRouter",
          "type": "address"
        },
        {
          "internalType": "address",
          "name": "_vaultRouter",
          "type": "address"
        }
      ],
      "name": "initialize",
      "outputs": [],
      "stateMutability": "nonpayable",
      "type": "function"
    },
    {
      "inputs": [
        {
          "internalType": "address",
          "name": "market",
          "type": "address"
        },
        {
          "internalType": "address",
          "name": "_account",
          "type": "address"
        },
        {
          "internalType": "bool",
          "name": "_isLong",
          "type": "bool"
        }
      ],
      "name": "isLiquidate",
      "outputs": [
        {
          "internalType": "uint256",
          "name": "_state",
          "type": "uint256"
        }
      ],
      "stateMutability": "view",
      "type": "function"
    },
    {
      "inputs": [],
      "name": "marketRouter",
      "outputs": [
        {
          "internalType": "contract IMarketRouter",
          "name": "",
          "type": "address"
        }
      ],
      "stateMutability": "view",
      "type": "function"
    },
    {
      "inputs": [],
      "name": "owner",
      "outputs": [
        {
          "internalType": "address",
          "name": "",
          "type": "address"
        }
      ],
      "stateMutability": "view",
      "type": "function"
    },
    {
      "inputs": [],
      "name": "renounceOwnership",
      "outputs": [],
      "stateMutability": "nonpayable",
      "type": "function"
    },
    {
      "inputs": [
        {
          "internalType": "bytes32",
          "name": "role",
          "type": "bytes32"
        },
        {
          "internalType": "address",
          "name": "account",
          "type": "address"
        }
      ],
      "name": "renounceRole",
      "outputs": [],
      "stateMutability": "nonpayable",
      "type": "function"
    },
    {
      "inputs": [
        {
          "internalType": "bytes32",
          "name": "role",
          "type": "bytes32"
        },
        {
          "internalType": "address",
          "name": "account",
          "type": "address"
        }
      ],
      "name": "revokeRole",
      "outputs": [],
      "stateMutability": "nonpayable",
      "type": "function"
    },
    {
      "inputs": [
        {
          "internalType": "bytes4",
          "name": "interfaceId",
          "type": "bytes4"
        }
      ],
      "name": "supportsInterface",
      "outputs": [
        {
          "internalType": "bool",
          "name": "",
          "type": "bool"
        }
      ],
      "stateMutability": "view",
      "type": "function"
    },
    {
      "inputs": [
        {
          "internalType": "address",
          "name": "to",
          "type": "address"
        }
      ],
      "name": "transferAdmin",
      "outputs": [],
      "stateMutability": "nonpayable",
      "type": "function"
    },
    {
      "inputs": [
        {
          "internalType": "address",
          "name": "newOwner",
          "type": "address"
        }
      ],
      "name": "transferOwnership",
      "outputs": [],
      "stateMutability": "nonpayable",
      "type": "function"
    },
    {
      "inputs": [],
      "name": "vaultRouter",
      "outputs": [
        {
          "internalType": "contract IVaultRouter",
          "name": "",
          "type": "address"
        }
      ],
      "stateMutability": "view",
      "type": "function"
    }
  ],
  "bytecode": "0x60806040523480156200001157600080fd5b5060405162003599380380620035998339810160408190526200003491620001ab565b8062000040336200007d565b6200005681620000cf60201b620020801760201c565b50600580546001600160a01b0319166001600160a01b0392909216919091179055620001dd565b600180546001600160a01b038381166001600160a01b0319831681179093556040519116919082907f8be0079c531659141344cd1fd0a4f28419497f9722a3daafe3b4186f6b6457e090600090a35050565b42600255620000de336200007d565b620000eb600033620000fb565b620000f8600082620000fb565b50565b6200010782826200010b565b5050565b6000828152602081815260408083206001600160a01b038516845290915290205460ff1662000107576000828152602081815260408083206001600160a01b03851684529091529020805460ff19166001179055620001673390565b6001600160a01b0316816001600160a01b0316837f2f8788117e7eff1d82e926ec794901d17c78024a50270940304540a733656f0d60405160405180910390a45050565b600060208284031215620001be57600080fd5b81516001600160a01b0381168114620001d657600080fd5b9392505050565b6133ac80620001ed6000396000f3fe608060405234801561001057600080fd5b50600436106101285760003560e01c806301ffc9a71461012d57806320981df414610155578063239610011461017d578063248a9ca31461019e5780632f2ff15d146101b157806336568abe146101c6578063485cc955146101d9578063715018a6146101ec578063735a2885146101f4578063739118a41461020757806375829def146102275780637fe4a6981461023a578063889be2851461024d5780638da5cb5b1461026057806391d148541461027557806399d5c1ec14610288578063a217fddf1461029b578063c3b31472146102a3578063d12dbde4146102b6578063d37c441c146102c9578063d4dfadbf146102dc578063d547741f146102fe578063ec2c901614610311578063f2fde38b14610326575b600080fd5b61014061013b366004612578565b610339565b60405190151581526020015b60405180910390f35b6101686101633660046125c5565b610370565b6040805192835260208301919091520161014c565b61019061018b3660046125fe565b6104cb565b60405190815260200161014c565b6101906101ac366004612649565b6107db565b6101c46101bf366004612662565b6107f0565b005b6101c46101d4366004612662565b610811565b6101c46101e7366004612687565b610894565b6101c4610a13565b6101906102023660046125fe565b610a27565b61021a610215366004612687565b610f7b565b60405161014c9190612769565b6101c46102353660046127b8565b6112c0565b6101c46102483660046127b8565b6112ea565b61019061025b3660046125fe565b611314565b61026861158d565b60405161014c91906127d5565b610140610283366004612662565b61159c565b6101c4610296366004612662565b6115c5565b610190600081565b600554610268906001600160a01b031681565b600354610268906001600160a01b031681565b600454610268906001600160a01b031681565b6102ef6102ea3660046127b8565b611669565b60405161014c93929190612876565b6101c461030c366004612662565b611f74565b610319611f90565b60405161014c9190612973565b6101c46103343660046127b8565b612007565b60006001600160e01b03198216637965db0b60e01b148061036a57506301ffc9a760e01b6001600160e01b03198316145b92915050565b6000806000846001600160a01b031663f29ebf616040518163ffffffff1660e01b8152600401602060405180830381865afa1580156103b3573d6000803e3d6000fd5b505050506040513d601f19601f820116820180604052508101906103d79190612a15565b90506000816001600160a01b03166320981df487876040518363ffffffff1660e01b8152600401610409929190612a32565b602060405180830381865afa158015610426573d6000803e3d6000fd5b505050506040513d601f19601f8201168201806040525081019061044a9190612a4d565b90506000826001600160a01b03166334f32e2588886040518363ffffffff1660e01b815260040161047c929190612a32565b602060405180830381865afa158015610499573d6000803e3d6000fd5b505050506040513d601f19601f820116820180604052508101906104bd9190612a4d565b919791965090945050505050565b6000808490506000816001600160a01b031663b894300d6040518163ffffffff1660e01b8152600401602060405180830381865afa158015610511573d6000803e3d6000fd5b505050506040513d601f19601f820116820180604052508101906105359190612a15565b9050806001600160a01b0316631f21756a868887866001600160a01b031663ac0b05a66040518163ffffffff1660e01b8152600401602060405180830381865afa158015610587573d6000803e3d6000fd5b505050506040513d601f19601f820116820180604052508101906105ab9190612a15565b876001600160a01b031663f29ebf616040518163ffffffff1660e01b8152600401602060405180830381865afa1580156105e9573d6000803e3d6000fd5b505050506040513d601f19601f8201168201806040525081019061060d9190612a15565b886001600160a01b031663741bef1a6040518163ffffffff1660e01b8152600401602060405180830381865afa15801561064b573d6000803e3d6000fd5b505050506040513d601f19601f8201168201806040525081019061066f9190612a15565b6001600160a01b03166376d697608a6001600160a01b031663e7d015f26040518163ffffffff1660e01b8152600401602060405180830381865afa1580156106bb573d6000803e3d6000fd5b505050506040513d601f19601f820116820180604052508101906106df9190612a15565b8d156040518363ffffffff1660e01b81526004016106fe929190612a32565b602060405180830381865afa15801561071b573d6000803e3d6000fd5b505050506040513d601f19601f8201168201806040525081019061073f9190612a4d565b60405160e088901b6001600160e01b03191681526001600160a01b039687166004820152948616602486015292151560448501529084166064840152909216608482015260a481019190915260c401602060405180830381865afa1580156107ab573d6000803e3d6000fd5b505050506040513d601f19601f820116820180604052508101906107cf9190612a4d565b925050505b9392505050565b60009081526020819052604090206001015490565b6107f9826107db565b610802816120a3565b61080c83836120ad565b505050565b6001600160a01b03811633146108865760405162461bcd60e51b815260206004820152602f60248201527f416363657373436f6e74726f6c3a2063616e206f6e6c792072656e6f756e636560448201526e103937b632b9903337b91039b2b63360891b60648201526084015b60405180910390fd5b6108908282612131565b5050565b61089c612196565b600154600160a81b900460ff16158080156108c2575060018054600160a01b900460ff16105b806108e25750303b1580156108e2575060018054600160a01b900460ff16145b6109455760405162461bcd60e51b815260206004820152602e60248201527f496e697469616c697a61626c653a20636f6e747261637420697320616c72656160448201526d191e481a5b9a5d1a585b1a5e995960921b606482015260840161087d565b6001805460ff60a01b1916600160a01b1790558015610972576001805460ff60a81b1916600160a81b1790555b6001600160a01b03831661098557600080fd5b6001600160a01b03821661099857600080fd5b600380546001600160a01b038086166001600160a01b0319928316179092556004805492851692909116919091179055801561080c576001805460ff60a81b191681556040519081527f7f26b83ff96e1f2b6a682f133852f6798a09c465da95921460cefb38474024989060200160405180910390a1505050565b610a1b612196565b610a2560006121f5565b565b600080846001600160a01b031663d37c441c6040518163ffffffff1660e01b8152600401602060405180830381865afa158015610a68573d6000803e3d6000fd5b505050506040513d601f19601f82011682018060405250810190610a8c9190612a15565b90506000816001600160a01b0316636dc7b0a16040518163ffffffff1660e01b8152600401602060405180830381865afa158015610ace573d6000803e3d6000fd5b505050506040513d601f19601f82011682018060405250810190610af29190612a4d565b905060008111610b07576000925050506107d4565b6000866001600160a01b031663ac0b05a66040518163ffffffff1660e01b8152600401602060405180830381865afa158015610b47573d6000803e3d6000fd5b505050506040513d601f19601f82011682018060405250810190610b6b9190612a15565b90506000876001600160a01b031663c54dc3d66040518163ffffffff1660e01b8152600401602060405180830381865afa158015610bad573d6000803e3d6000fd5b505050506040513d601f19601f82011682018060405250810190610bd19190612a15565b9050610c3460405180610140016040528060006001600160a01b0316815260200160008152602001600015158152602001600081526020016000815260200160008152602001600081526020016000815260200160008152602001600081525090565b6001600160a01b03808a1682528715156040808401919091526000602084015280516343a4b4a560e11b8152815192861692638749694a926004808401939192918290030181865afa158015610c8e573d6000803e3d6000fd5b505050506040513d601f19601f82011682018060405250810190610cb29190612a76565b61010083015260e082015260035460405162b29b4b60e61b81526001600160a01b0390911690632ca6d2c090610cec908b906004016127d5565b6040805180830381865afa158015610d08573d6000803e3d6000fd5b505050506040513d601f19601f82011682018060405250810190610d2c9190612a76565b60c083015260a082015260035460408051630799f55f60e01b815281516001600160a01b0390931692630799f55f926004808401939192918290030181865afa158015610d7d573d6000803e3d6000fd5b505050506040513d601f19601f82011682018060405250810190610da19190612a76565b8260600183608001828152508281525050506000896001600160a01b031663b2016bd46040518163ffffffff1660e01b8152600401602060405180830381865afa158015610df3573d6000803e3d6000fd5b505050506040513d601f19601f82011682018060405250810190610e179190612a15565b9050610efa600460009054906101000a90046001600160a01b03166001600160a01b0316636dc7b0a16040518163ffffffff1660e01b8152600401602060405180830381865afa158015610e6f573d6000803e3d6000fd5b505050506040513d601f19601f82011682018060405250810190610e939190612a4d565b826001600160a01b031663313ce5676040518163ffffffff1660e01b8152600401602060405180830381865afa158015610ed1573d6000803e3d6000fd5b505050506040513d601f19601f82011682018060405250810190610ef59190612a9a565b612247565b610120830152604051638050e32f60e01b81526001600160a01b03841690638050e32f90610f2c908590600401612abd565b602060405180830381865afa158015610f49573d6000803e3d6000fd5b505050506040513d601f19601f82011682018060405250810190610f6d9190612a4d565b9a9950505050505050505050565b60606001600160a01b03821661124f5760055460408051637616480b60e11b815290516000926001600160a01b03169163ec2c901691600480830192869291908290030181865afa158015610fd4573d6000803e3d6000fd5b505050506040513d6000823e601f3d908101601f19168201604052610ffc9190810190612bfe565b905060008080805b84518110156110c55784818151811061101f5761101f612d77565b60200260200101516020015193506000846001600160a01b0316633eeb530e8a6040518263ffffffff1660e01b815260040161105b91906127d5565b600060405180830381865afa158015611078573d6000803e3d6000fd5b505050506040513d6000823e601f3d908101601f191682016040526110a09190810190612e71565b90508051836110af9190612f21565b92505080806110bd90612f34565b915050611004565b50806000036110d7575050505061036a565b806001600160401b038111156110ef576110ef612b3f565b60405190808252806020026020018201604052801561112857816020015b6111156124fd565b81526020019060019003908161110d5790505b50945060005b84518110156112455784818151811061114957611149612d77565b60200260200101516020015193506000846001600160a01b0316633eeb530e8a6040518263ffffffff1660e01b815260040161118591906127d5565b600060405180830381865afa1580156111a2573d6000803e3d6000fd5b505050506040513d6000823e601f3d908101601f191682016040526111ca9190810190612e71565b905060005b8151811015611230578181815181106111ea576111ea612d77565b602002602001015188868151811061120457611204612d77565b6020026020010181905250848061121a90612f34565b955050808061122890612f34565b9150506111cf565b5050808061123d90612f34565b91505061112e565b505050505061036a565b604051631f75a98760e11b81526001600160a01b03831690633eeb530e9061127b9086906004016127d5565b600060405180830381865afa158015611298573d6000803e3d6000fd5b505050506040513d6000823e601f3d908101601f191682016040526107d49190810190612e71565b60006112cb816120a3565b6112d6600083612274565b6112df826121f5565b610890600033612131565b7f8d1089725c0dc266707fa6207730fb801dcd03108bfed7a21099bd303651d2b7610128816120a3565b600080836001600160a01b031663ac0b05a66040518163ffffffff1660e01b8152600401602060405180830381865afa158015611355573d6000803e3d6000fd5b505050506040513d601f19601f820116820180604052508101906113799190612a15565b90506113836124fd565b60405163bc95baad60e01b81526001600160a01b03878116600483015260006024830152851515604483015283169063bc95baad9060640161018060405180830381865afa1580156113d9573d6000803e3d6000fd5b505050506040513d601f19601f820116820180604052508101906113fd9190612f4d565b90506000856001600160a01b031663f29ebf616040518163ffffffff1660e01b8152600401602060405180830381865afa15801561143f573d6000803e3d6000fd5b505050506040513d601f19601f820116820180604052508101906114639190612a15565b604080516101e081018252600080825281830181905260608083018290526080830182905260a080840183905260c0840183905260e08401839052610100840183905261012084018390526101408401839052610160840183905261018084018381526101a085018490526101c08501929092528a1515602085015287015190526001600160a01b038a811683529251634151026360e01b81529394509092909184169063415102639061151d9085908890600401612fa5565b600060405180830381865afa15801561153a573d6000803e3d6000fd5b505050506040513d6000823e601f3d908101601f1916820160405261156291908101906130a5565b90508060028151811061157757611577612d77565b6020026020010151955050505050509392505050565b6001546001600160a01b031690565b6000918252602082815260408084206001600160a01b0393909316845291905290205460ff1690565b7f241ecf16d79d0f8dbfb92cbc07fe17840425976cf0667f022fe9877caa831b0860006115f2813361159c565b9050801561164f57620151806002544261160c9190613135565b1061164a5760405162461bcd60e51b815260206004820152600e60248201526d1858c81d1a5b59481c185cdcd95960921b604482015260640161087d565b611659565b611659823361227e565b61166384846120ad565b50505050565b6116bc604051806101200160405280600081526020016000815260200160008152602001600081526020016000815260200160008152602001600081526020016000151581526020016000151581525090565b6040805161014081018252600080825260208201819052918101829052606081018290526080810182905260a0810182905260c0810182905260e08101829052610100810182905261012081019190915261173f6040518060a0016040528060008152602001600081526020016000815260200160008152602001600081525090565b60008490506000816001600160a01b031663f29ebf616040518163ffffffff1660e01b8152600401602060405180830381865afa158015611784573d6000803e3d6000fd5b505050506040513d601f19601f820116820180604052508101906117a89190612a15565b90506000826001600160a01b031663b894300d6040518163ffffffff1660e01b8152600401602060405180830381865afa1580156117ea573d6000803e3d6000fd5b505050506040513d601f19601f8201168201806040525081019061180e9190612a15565b90506000816001600160a01b031663177927296040518163ffffffff1660e01b8152600401602060405180830381865afa158015611850573d6000803e3d6000fd5b505050506040513d601f19601f820116820180604052508101906118749190613148565b905060405180610120016040528061188e8351610fff1690565b81528251602090910190600c1c610fff1681526020016118af6127106122d7565b8152825160181c610fff9081166020830152835160241c1660408201526060016118d8836122fc565b81526020016118e68361231a565b81526020016118fb8351600f606c1b16151590565b151581526020016119128351600f60681b16151590565b15158152509650604051806101400160405280856001600160a01b031663e84254676040518163ffffffff1660e01b8152600401602060405180830381865afa158015611963573d6000803e3d6000fd5b505050506040513d601f19601f820116820180604052508101906119879190612a9a565b60ff168152602001846001600160a01b031663d87780688b60016040518363ffffffff1660e01b81526004016119be929190613189565b602060405180830381865afa1580156119db573d6000803e3d6000fd5b505050506040513d601f19601f820116820180604052508101906119ff9190612a4d565b8152602001846001600160a01b031663d87780688b60006040518363ffffffff1660e01b8152600401611a33929190613189565b602060405180830381865afa158015611a50573d6000803e3d6000fd5b505050506040513d601f19601f82011682018060405250810190611a749190612a4d565b8152602001846001600160a01b031663d87780688b60046040518363ffffffff1660e01b8152600401611aa8929190613189565b602060405180830381865afa158015611ac5573d6000803e3d6000fd5b505050506040513d601f19601f82011682018060405250810190611ae99190612a4d565b815260200160008152602001856001600160a01b031663e7d015f26040518163ffffffff1660e01b8152600401602060405180830381865afa158015611b33573d6000803e3d6000fd5b505050506040513d601f19601f82011682018060405250810190611b579190612a15565b6001600160a01b03168152602001856001600160a01b031663b2016bd46040518163ffffffff1660e01b8152600401602060405180830381865afa158015611ba3573d6000803e3d6000fd5b505050506040513d601f19601f82011682018060405250810190611bc79190612a15565b6001600160a01b03168152602001856001600160a01b0316637b2fd1e56040518163ffffffff1660e01b8152600401602060405180830381865afa158015611c13573d6000803e3d6000fd5b505050506040513d601f19601f82011682018060405250810190611c379190612a15565b6001600160a01b03168152602001856001600160a01b03166305ba9ae96040518163ffffffff1660e01b8152600401602060405180830381865afa158015611c83573d6000803e3d6000fd5b505050506040513d601f19601f82011682018060405250810190611ca79190612a15565b6001600160a01b03168152602001856001600160a01b031663ac0b05a66040518163ffffffff1660e01b8152600401602060405180830381865afa158015611cf3573d6000803e3d6000fd5b505050506040513d601f19601f82011682018060405250810190611d179190612a15565b6001600160a01b039081169091526040805160a0810191829052631b0ef00d60e31b9091529197508190851663d8778068611d578c600160a48601613189565b602060405180830381865afa158015611d74573d6000803e3d6000fd5b505050506040513d601f19601f82011682018060405250810190611d989190612a4d565b8152602001846001600160a01b031663d87780688b60006040518363ffffffff1660e01b8152600401611dcc929190613189565b602060405180830381865afa158015611de9573d6000803e3d6000fd5b505050506040513d601f19601f82011682018060405250810190611e0d9190612a4d565b8152602001846001600160a01b031663d87780688b60036040518363ffffffff1660e01b8152600401611e41929190613189565b602060405180830381865afa158015611e5e573d6000803e3d6000fd5b505050506040513d601f19601f82011682018060405250810190611e829190612a4d565b8152602001846001600160a01b031663d87780688b60046040518363ffffffff1660e01b8152600401611eb6929190613189565b602060405180830381865afa158015611ed3573d6000803e3d6000fd5b505050506040513d601f19601f82011682018060405250810190611ef79190612a4d565b8152602001611f66856001600160a01b031663f4ca4d1d6040518163ffffffff1660e01b8152600401602060405180830381865afa158015611f3d573d6000803e3d6000fd5b505050506040513d601f19601f82011682018060405250810190611f619190612a4d565b6122d7565b905296989597505050505050565b611f7d826107db565b611f86816120a3565b61080c8383612131565b60055460408051637616480b60e11b815290516060926001600160a01b03169163ec2c90169160048083019260009291908290030181865afa158015611fda573d6000803e3d6000fd5b505050506040513d6000823e601f3d908101601f191682016040526120029190810190612bfe565b905090565b61200f612196565b6001600160a01b0381166120745760405162461bcd60e51b815260206004820152602660248201527f4f776e61626c653a206e6577206f776e657220697320746865207a65726f206160448201526564647265737360d01b606482015260840161087d565b61207d816121f5565b50565b4260025561208d336121f5565b612098600033612274565b61207d600082612274565b61207d813361227e565b6120b7828261159c565b610890576000828152602081815260408083206001600160a01b03851684529091529020805460ff191660011790556120ed3390565b6001600160a01b0316816001600160a01b0316837f2f8788117e7eff1d82e926ec794901d17c78024a50270940304540a733656f0d60405160405180910390a45050565b61213b828261159c565b15610890576000828152602081815260408083206001600160a01b0385168085529252808320805460ff1916905551339285917ff6391f5c32d9c69d2a47ea670b442974b53935d1edc7fd64eb21e047a839171b9190a45050565b3361219f61158d565b6001600160a01b031614610a255760405162461bcd60e51b815260206004820181905260248201527f4f776e61626c653a2063616c6c6572206973206e6f7420746865206f776e6572604482015260640161087d565b600180546001600160a01b038381166001600160a01b0319831681179093556040519116919082907f8be0079c531659141344cd1fd0a4f28419497f9722a3daafe3b4186f6b6457e090600090a35050565b600061225482600a613289565b6122606012600a613298565b61226a90856132a4565b6107d491906132bb565b61089082826120ad565b612288828261159c565b610890576122958161233a565b6122a083602061234c565b6040516020016122b19291906132dd565b60408051601f198184030181529082905262461bcd60e51b825261087d9160040161334c565b600060015b6001909101906122ed600a826132a4565b90508281036122dc5750919050565b6000612307826124e7565b825161036a9190603c1c610fff166132a4565b6000612325826124e7565b825161036a919060481c63ffffffff166132a4565b606061036a6001600160a01b03831660145b6060600061235b8360026132a4565b612366906002612f21565b6001600160401b0381111561237d5761237d612b3f565b6040519080825280601f01601f1916602001820160405280156123a7576020820181803683370190505b509050600360fc1b816000815181106123c2576123c2612d77565b60200101906001600160f81b031916908160001a905350600f60fb1b816001815181106123f1576123f1612d77565b60200101906001600160f81b031916908160001a90535060006124158460026132a4565b612420906001612f21565b90505b6001811115612498576f181899199a1a9b1b9c1cb0b131b232b360811b85600f166010811061245457612454612d77565b1a60f81b82828151811061246a5761246a612d77565b60200101906001600160f81b031916908160001a90535060049490941c936124918161335f565b9050612423565b5083156107d45760405162461bcd60e51b815260206004820181905260248201527f537472696e67733a20686578206c656e67746820696e73756666696369656e74604482015260640161087d565b805160009061036a9060701c60ff16600a613298565b60405180610180016040528060006001600160a01b03168152602001600015158152602001600063ffffffff16815260200160006001600160d81b0316815260200160008152602001600081526020016000815260200160008152602001600081526020016000815260200160008152602001600081525090565b60006020828403121561258a57600080fd5b81356001600160e01b0319811681146107d457600080fd5b6001600160a01b038116811461207d57600080fd5b801515811461207d57600080fd5b600080604083850312156125d857600080fd5b82356125e3816125a2565b915060208301356125f3816125b7565b809150509250929050565b60008060006060848603121561261357600080fd5b833561261e816125a2565b9250602084013561262e816125a2565b9150604084013561263e816125b7565b809150509250925092565b60006020828403121561265b57600080fd5b5035919050565b6000806040838503121561267557600080fd5b8235915060208301356125f3816125a2565b6000806040838503121561269a57600080fd5b82356126a5816125a2565b915060208301356125f3816125a2565b6001600160a01b03169052565b6126cd8282516126b5565b60208101516126e0602084018215159052565b5060408101516126f8604084018263ffffffff169052565b50606081015161271360608401826001600160d81b03169052565b506080818101519083015260a0808201519083015260c0808201519083015260e0808201519083015261010080820151908301526101208082015190830152610140808201519083015261016090810151910152565b6020808252825182820181905260009190848201906040850190845b818110156127ac576127988385516126c2565b928401926101809290920191600101612785565b50909695505050505050565b6000602082840312156127ca57600080fd5b81356107d4816125a2565b6001600160a01b0391909116815260200190565b805182526020810151602083015260408101516040830152606081015160608301526080810151608083015260a081015161282760a08401826126b5565b5060c081015161283a60c08401826126b5565b5060e081015161284d60e08401826126b5565b5061010080820151612861828501826126b5565b505061012080820151611663828501826126b5565b600061030082019050845182526020850151602083015260408501516040830152606085015160608301526080850151608083015260a085015160a083015260c085015160c083015260e0850151151560e083015261010080860151151581840152506128e76101208301856127e9565b8251610260830152602083015161028083015260408301516102a083015260608301516102c083015260808301516102e0830152949350505050565b60005b8381101561293e578181015183820152602001612926565b50506000910152565b6000815180845261295f816020860160208601612923565b601f01601f19169290920160200192915050565b60006020808301818452808551808352604092508286019150828160051b87010184880160005b83811015612a0757603f19898403018552815160a081518186526129c082870182612947565b838b01516001600160a01b0316878c0152898401518a880152606080850151151590880152608093840151151593909601929092525050938601939086019060010161299a565b509098975050505050505050565b600060208284031215612a2757600080fd5b81516107d4816125a2565b6001600160a01b039290921682521515602082015260400190565b600060208284031215612a5f57600080fd5b5051919050565b8051612a71816125a2565b919050565b60008060408385031215612a8957600080fd5b505080516020909101519092909150565b600060208284031215612aac57600080fd5b815160ff811681146107d457600080fd5b600061014082019050612ad18284516126b5565b602083015160208301526040830151612aee604084018215159052565b50606083015160608301526080830151608083015260a083015160a083015260c083015160c083015260e083015160e083015261010080840151818401525061012080840151818401525092915050565b634e487b7160e01b600052604160045260246000fd5b60405160a081016001600160401b0381118282101715612b7757612b77612b3f565b60405290565b60405161018081016001600160401b0381118282101715612b7757612b77612b3f565b604051601f8201601f191681016001600160401b0381118282101715612bc857612bc8612b3f565b604052919050565b60006001600160401b03821115612be957612be9612b3f565b5060051b60200190565b8051612a71816125b7565b60006020808385031215612c1157600080fd5b82516001600160401b0380821115612c2857600080fd5b818501915085601f830112612c3c57600080fd5b8151612c4f612c4a82612bd0565b612ba0565b81815260059190911b83018401908481019088831115612c6e57600080fd5b8585015b83811015612d6a57805185811115612c8957600080fd5b8601601f1960a0828d0382011215612ca15760008081fd5b612ca9612b55565b8983015188811115612cbb5760008081fd5b8301603f81018e13612ccd5760008081fd5b8a81015160408a821115612ce357612ce3612b3f565b612cf38d86601f85011601612ba0565b94508185528f81838501011115612d0a5760008081fd5b612d19828e8701838601612923565b848452612d27818701612a66565b8d8501526060945084860151818501525050506080612d47818501612bf3565b83830152612d5760a08501612bf3565b9082015285525050918601918601612c72565b5098975050505050505050565b634e487b7160e01b600052603260045260246000fd5b805163ffffffff81168114612a7157600080fd5b80516001600160d81b0381168114612a7157600080fd5b60006101808284031215612dcb57600080fd5b612dd3612b7d565b9050612dde82612a66565b8152612dec60208301612bf3565b6020820152612dfd60408301612d8d565b6040820152612e0e60608301612da1565b60608201526080820151608082015260a082015160a082015260c082015160c082015260e082015160e082015261010080830151818301525061012080830151818301525061014080830151818301525061016080830151818301525092915050565b60006020808385031215612e8457600080fd5b82516001600160401b03811115612e9a57600080fd5b8301601f81018513612eab57600080fd5b8051612eb9612c4a82612bd0565b8181526101809182028301840191848201919088841115612ed957600080fd5b938501935b83851015612eff57612ef08986612db8565b83529384019391850191612ede565b50979650505050505050565b634e487b7160e01b600052601160045260246000fd5b8082018082111561036a5761036a612f0b565b600060018201612f4657612f46612f0b565b5060010190565b60006101808284031215612f6057600080fd5b6107d48383612db8565b600081518084526020808501945080840160005b83811015612f9a57815187529582019590820190600101612f7e565b509495945050505050565b60006101a0808352612fba81840186516126b5565b60208501516101c0612fcf8186018315159052565b60408701516101e08681019190915260608801511515610200870152608088015192506130006102208701846126b5565b60a088015161024087015260c088015161026087015260e088015161028087015261010088015115156102a087015261012088015160ff9081166102c08801526101408901516001600160401b03166102e08801526101608901516103008801526101808901516103208801529388015190931661034086015286015161036085019290925250613095610380840182612f6a565b9150506107d460208301846126c2565b600060208083850312156130b857600080fd5b82516001600160401b038111156130ce57600080fd5b8301601f810185136130df57600080fd5b80516130ed612c4a82612bd0565b81815260059190911b8201830190838101908783111561310c57600080fd5b928401925b8284101561312a57835182529284019290840190613111565b979650505050505050565b8181038181111561036a5761036a612f0b565b60006020828403121561315a57600080fd5b604051602081016001600160401b038111828210171561317c5761317c612b3f565b6040529151825250919050565b6001600160a01b0392909216825260ff16602082015260400190565b600181815b808511156131e05781600019048211156131c6576131c6612f0b565b808516156131d357918102915b93841c93908002906131aa565b509250929050565b6000826131f75750600161036a565b816132045750600061036a565b816001811461321a576002811461322457613240565b600191505061036a565b60ff84111561323557613235612f0b565b50506001821b61036a565b5060208310610133831016604e8410600b8410161715613263575081810a61036a565b61326d83836131a5565b806000190482111561328157613281612f0b565b029392505050565b60006107d460ff8416836131e8565b60006107d483836131e8565b808202811582820484141761036a5761036a612f0b565b6000826132d857634e487b7160e01b600052601260045260246000fd5b500490565b76020b1b1b2b9b9a1b7b73a3937b61d1030b1b1b7bab73a1604d1b81526000835161330f816017850160208801612923565b7001034b99036b4b9b9b4b733903937b6329607d1b6017918401918201528351613340816028840160208801612923565b01602801949350505050565b6020815260006107d46020830184612947565b60008161336e5761336e612f0b565b50600019019056fea2646970667358221220d87e39077f18b0bf911d872143d6972a5d9a98d689ee4571c28c91bcb4d4e98b64736f6c63430008110033",
  "linkReferences": {},
  "deployedLinkReferences": {}
}