{
  "_format": "hh-sol-artifact-1",
  "contractName": "MarketReader",
  "sourceName": "contracts/market/MarketReader.sol",
  "abi": [
    {
      "inputs": [
        {
          "internalType": "address",
          "name": "_f",
          "type": "address"
        }
      ],
      "stateMutability": "nonpayable",
      "type": "constructor"
    },
    {
      "anonymous": false,
      "inputs": [
        {
          "indexed": false,
          "internalType": "uint8",
          "name": "version",
          "type": "uint8"
        }
      ],
      "name": "Initialized",
      "type": "event"
    },
    {
      "anonymous": false,
      "inputs": [
        {
          "indexed": true,
          "internalType": "address",
          "name": "previousOwner",
          "type": "address"
        },
        {
          "indexed": true,
          "internalType": "address",
          "name": "newOwner",
          "type": "address"
        }
      ],
      "name": "OwnershipTransferred",
      "type": "event"
    },
    {
      "anonymous": false,
      "inputs": [
        {
          "indexed": true,
          "internalType": "bytes32",
          "name": "role",
          "type": "bytes32"
        },
        {
          "indexed": true,
          "internalType": "bytes32",
          "name": "previousAdminRole",
          "type": "bytes32"
        },
        {
          "indexed": true,
          "internalType": "bytes32",
          "name": "newAdminRole",
          "type": "bytes32"
        }
      ],
      "name": "RoleAdminChanged",
      "type": "event"
    },
    {
      "anonymous": false,
      "inputs": [
        {
          "indexed": true,
          "internalType": "bytes32",
          "name": "role",
          "type": "bytes32"
        },
        {
          "indexed": true,
          "internalType": "address",
          "name": "account",
          "type": "address"
        },
        {
          "indexed": true,
          "internalType": "address",
          "name": "sender",
          "type": "address"
        }
      ],
      "name": "RoleGranted",
      "type": "event"
    },
    {
      "anonymous": false,
      "inputs": [
        {
          "indexed": true,
          "internalType": "bytes32",
          "name": "role",
          "type": "bytes32"
        },
        {
          "indexed": true,
          "internalType": "address",
          "name": "account",
          "type": "address"
        },
        {
          "indexed": true,
          "internalType": "address",
          "name": "sender",
          "type": "address"
        }
      ],
      "name": "RoleRevoked",
      "type": "event"
    },
    {
      "inputs": [],
      "name": "DEFAULT_ADMIN_ROLE",
      "outputs": [
        {
          "internalType": "bytes32",
          "name": "",
          "type": "bytes32"
        }
      ],
      "stateMutability": "view",
      "type": "function"
    },
    {
      "inputs": [
        {
          "internalType": "address",
          "name": "market",
          "type": "address"
        },
        {
          "internalType": "address",
          "name": "account",
          "type": "address"
        },
        {
          "internalType": "bool",
          "name": "isLong",
          "type": "bool"
        }
      ],
      "name": "availableLiquidity",
      "outputs": [
        {
          "internalType": "uint256",
          "name": "",
          "type": "uint256"
        }
      ],
      "stateMutability": "view",
      "type": "function"
    },
    {
      "inputs": [],
      "name": "fac",
      "outputs": [
        {
          "internalType": "contract IMarketFactory",
          "name": "",
          "type": "address"
        }
      ],
      "stateMutability": "view",
      "type": "function"
    },
    {
      "inputs": [
        {
          "internalType": "address",
          "name": "account",
          "type": "address"
        },
        {
          "internalType": "address",
          "name": "market",
          "type": "address"
        },
        {
          "internalType": "bool",
          "name": "isLong",
          "type": "bool"
        }
      ],
      "name": "getFundingFee",
      "outputs": [
        {
          "internalType": "int256",
          "name": "",
          "type": "int256"
        }
      ],
      "stateMutability": "view",
      "type": "function"
    },
    {
      "inputs": [
        {
          "internalType": "address",
          "name": "_market",
          "type": "address"
        },
        {
          "internalType": "bool",
          "name": "_isLong",
          "type": "bool"
        }
      ],
      "name": "getFundingRate",
      "outputs": [
        {
          "internalType": "int256",
          "name": "",
          "type": "int256"
        },
        {
          "internalType": "int256",
          "name": "",
          "type": "int256"
        }
      ],
      "stateMutability": "view",
      "type": "function"
    },
    {
      "inputs": [
        {
          "internalType": "address",
          "name": "_marketAddr",
          "type": "address"
        }
      ],
      "name": "getMarket",
      "outputs": [
        {
          "components": [
            {
              "internalType": "uint256",
              "name": "minSlippage",
              "type": "uint256"
            },
            {
              "internalType": "uint256",
              "name": "maxSlippage",
              "type": "uint256"
            },
            {
              "internalType": "uint256",
              "name": "slippageDigits",
              "type": "uint256"
            },
            {
              "internalType": "uint256",
              "name": "minLev",
              "type": "uint256"
            },
            {
              "internalType": "uint256",
              "name": "maxLev",
              "type": "uint256"
            },
            {
              "internalType": "uint256",
              "name": "minCollateral",
              "type": "uint256"
            },
            {
              "internalType": "uint256",
              "name": "maxTradeAmount",
              "type": "uint256"
            },
            {
              "internalType": "bool",
              "name": "allowOpen",
              "type": "bool"
            },
            {
              "internalType": "bool",
              "name": "allowClose",
              "type": "bool"
            }
          ],
          "internalType": "struct IMarketReader.ValidOuts",
          "name": "validOuts",
          "type": "tuple"
        },
        {
          "components": [
            {
              "internalType": "uint256",
              "name": "tokenDigits",
              "type": "uint256"
            },
            {
              "internalType": "uint256",
              "name": "closeFeeRate",
              "type": "uint256"
            },
            {
              "internalType": "uint256",
              "name": "openFeeRate",
              "type": "uint256"
            },
            {
              "internalType": "uint256",
              "name": "liquidationFeeUsd",
              "type": "uint256"
            },
            {
              "internalType": "uint256",
              "name": "spread",
              "type": "uint256"
            },
            {
              "internalType": "address",
              "name": "indexToken",
              "type": "address"
            },
            {
              "internalType": "address",
              "name": "collateralToken",
              "type": "address"
            },
            {
              "internalType": "address",
              "name": "orderBookLong",
              "type": "address"
            },
            {
              "internalType": "address",
              "name": "orderBookShort",
              "type": "address"
            },
            {
              "internalType": "address",
              "name": "positionBook",
              "type": "address"
            }
          ],
          "internalType": "struct IMarketReader.MarketOuts",
          "name": "mktOuts",
          "type": "tuple"
        },
        {
          "components": [
            {
              "internalType": "uint256",
              "name": "closeFeeRate",
              "type": "uint256"
            },
            {
              "internalType": "uint256",
              "name": "openFeeRate",
              "type": "uint256"
            },
            {
              "internalType": "uint256",
              "name": "execFee",
              "type": "uint256"
            },
            {
              "internalType": "uint256",
              "name": "liquidateFee",
              "type": "uint256"
            },
            {
              "internalType": "uint256",
              "name": "digits",
              "type": "uint256"
            }
          ],
          "internalType": "struct IMarketReader.FeeOuts",
          "name": "feeOuts",
          "type": "tuple"
        }
      ],
      "stateMutability": "view",
      "type": "function"
    },
    {
      "inputs": [],
      "name": "getMarkets",
      "outputs": [
        {
          "components": [
            {
              "internalType": "string",
              "name": "name",
              "type": "string"
            },
            {
              "internalType": "address",
              "name": "addr",
              "type": "address"
            },
            {
              "internalType": "uint256",
              "name": "minPay",
              "type": "uint256"
            },
            {
              "internalType": "bool",
              "name": "allowOpen",
              "type": "bool"
            },
            {
              "internalType": "bool",
              "name": "allowClose",
              "type": "bool"
            }
          ],
          "internalType": "struct IMarketFactory.Outs[]",
          "name": "_outs",
          "type": "tuple[]"
        }
      ],
      "stateMutability": "view",
      "type": "function"
    },
    {
      "inputs": [
        {
          "internalType": "address",
          "name": "account",
          "type": "address"
        },
        {
          "internalType": "address",
          "name": "market",
          "type": "address"
        }
      ],
      "name": "getPositions",
      "outputs": [
        {
          "components": [
            {
              "internalType": "address",
              "name": "market",
              "type": "address"
            },
            {
              "internalType": "bool",
              "name": "isLong",
              "type": "bool"
            },
            {
              "internalType": "uint32",
              "name": "lastTime",
              "type": "uint32"
            },
            {
              "internalType": "uint216",
              "name": "extra3",
              "type": "uint216"
            },
            {
              "internalType": "uint256",
              "name": "size",
              "type": "uint256"
            },
            {
              "internalType": "uint256",
              "name": "collateral",
              "type": "uint256"
            },
            {
              "internalType": "uint256",
              "name": "averagePrice",
              "type": "uint256"
            },
            {
              "internalType": "int256",
              "name": "entryFundingRate",
              "type": "int256"
            },
            {
              "internalType": "int256",
              "name": "realisedPnl",
              "type": "int256"
            },
            {
              "internalType": "uint256",
              "name": "extra0",
              "type": "uint256"
            },
            {
              "internalType": "uint256",
              "name": "extra1",
              "type": "uint256"
            },
            {
              "internalType": "uint256",
              "name": "extra2",
              "type": "uint256"
            }
          ],
          "internalType": "struct Position.Props[]",
          "name": "_positions",
          "type": "tuple[]"
        }
      ],
      "stateMutability": "view",
      "type": "function"
    },
    {
      "inputs": [
        {
          "internalType": "bytes32",
          "name": "role",
          "type": "bytes32"
        }
      ],
      "name": "getRoleAdmin",
      "outputs": [
        {
          "internalType": "bytes32",
          "name": "",
          "type": "bytes32"
        }
      ],
      "stateMutability": "view",
      "type": "function"
    },
    {
      "inputs": [
        {
          "internalType": "address",
          "name": "_account",
          "type": "address"
        }
      ],
      "name": "grantControllerRoleByMarketManager",
      "outputs": [],
      "stateMutability": "nonpayable",
      "type": "function"
    },
    {
      "inputs": [
        {
          "internalType": "bytes32",
          "name": "role",
          "type": "bytes32"
        },
        {
          "internalType": "address",
          "name": "account",
          "type": "address"
        }
      ],
      "name": "grantRole",
      "outputs": [],
      "stateMutability": "nonpayable",
      "type": "function"
    },
    {
      "inputs": [
        {
          "internalType": "bytes32",
          "name": "role",
          "type": "bytes32"
        },
        {
          "internalType": "address",
          "name": "account",
          "type": "address"
        }
      ],
      "name": "hasRole",
      "outputs": [
        {
          "internalType": "bool",
          "name": "",
          "type": "bool"
        }
      ],
      "stateMutability": "view",
      "type": "function"
    },
    {
      "inputs": [
        {
          "internalType": "address",
          "name": "_marketRouter",
          "type": "address"
        },
        {
          "internalType": "address",
          "name": "_vaultRouter",
          "type": "address"
        }
      ],
      "name": "initialize",
      "outputs": [],
      "stateMutability": "nonpayable",
      "type": "function"
    },
    {
      "inputs": [
        {
          "internalType": "address",
          "name": "market",
          "type": "address"
        },
        {
          "internalType": "address",
          "name": "_account",
          "type": "address"
        },
        {
          "internalType": "bool",
          "name": "_isLong",
          "type": "bool"
        }
      ],
      "name": "isLiquidate",
      "outputs": [
        {
          "internalType": "uint256",
          "name": "_state",
          "type": "uint256"
        }
      ],
      "stateMutability": "view",
      "type": "function"
    },
    {
      "inputs": [],
      "name": "marketRouter",
      "outputs": [
        {
          "internalType": "contract IMarketRouter",
          "name": "",
          "type": "address"
        }
      ],
      "stateMutability": "view",
      "type": "function"
    },
    {
      "inputs": [],
      "name": "owner",
      "outputs": [
        {
          "internalType": "address",
          "name": "",
          "type": "address"
        }
      ],
      "stateMutability": "view",
      "type": "function"
    },
    {
      "inputs": [],
      "name": "renounceOwnership",
      "outputs": [],
      "stateMutability": "nonpayable",
      "type": "function"
    },
    {
      "inputs": [
        {
          "internalType": "bytes32",
          "name": "role",
          "type": "bytes32"
        },
        {
          "internalType": "address",
          "name": "account",
          "type": "address"
        }
      ],
      "name": "renounceRole",
      "outputs": [],
      "stateMutability": "nonpayable",
      "type": "function"
    },
    {
      "inputs": [
        {
          "internalType": "bytes32",
          "name": "role",
          "type": "bytes32"
        },
        {
          "internalType": "address",
          "name": "account",
          "type": "address"
        }
      ],
      "name": "revokeRole",
      "outputs": [],
      "stateMutability": "nonpayable",
      "type": "function"
    },
    {
      "inputs": [
        {
          "internalType": "bytes4",
          "name": "interfaceId",
          "type": "bytes4"
        }
      ],
      "name": "supportsInterface",
      "outputs": [
        {
          "internalType": "bool",
          "name": "",
          "type": "bool"
        }
      ],
      "stateMutability": "view",
      "type": "function"
    },
    {
      "inputs": [
        {
          "internalType": "address",
          "name": "to",
          "type": "address"
        }
      ],
      "name": "transferAdmin",
      "outputs": [],
      "stateMutability": "nonpayable",
      "type": "function"
    },
    {
      "inputs": [
        {
          "internalType": "address",
          "name": "newOwner",
          "type": "address"
        }
      ],
      "name": "transferOwnership",
      "outputs": [],
      "stateMutability": "nonpayable",
      "type": "function"
    },
    {
      "inputs": [],
      "name": "vaultRouter",
      "outputs": [
        {
          "internalType": "contract IVaultRouter",
          "name": "",
          "type": "address"
        }
      ],
      "stateMutability": "view",
      "type": "function"
    }
  ],
  "bytecode": "0x60806040523480156200001157600080fd5b506040516200350e3803806200350e8339810160408190526200003491620001ab565b8062000040336200007d565b6200005681620000cf60201b62001faa1760201c565b50600580546001600160a01b0319166001600160a01b0392909216919091179055620001dd565b600180546001600160a01b038381166001600160a01b0319831681179093556040519116919082907f8be0079c531659141344cd1fd0a4f28419497f9722a3daafe3b4186f6b6457e090600090a35050565b42600255620000de336200007d565b620000eb600033620000fb565b620000f8600082620000fb565b50565b6200010782826200010b565b5050565b6000828152602081815260408083206001600160a01b038516845290915290205460ff1662000107576000828152602081815260408083206001600160a01b03851684529091529020805460ff19166001179055620001673390565b6001600160a01b0316816001600160a01b0316837f2f8788117e7eff1d82e926ec794901d17c78024a50270940304540a733656f0d60405160405180910390a45050565b600060208284031215620001be57600080fd5b81516001600160a01b0381168114620001d657600080fd5b9392505050565b61332180620001ed6000396000f3fe608060405234801561001057600080fd5b506004361061014d5760003560e01c80637fe4a698116100c3578063d12dbde41161007c578063d12dbde4146102e8578063d37c441c146102fb578063d4dfadbf1461030e578063d547741f14610330578063ec2c901614610343578063f2fde38b1461035857600080fd5b80637fe4a6981461026f578063889be285146102825780638da5cb5b1461029557806391d14854146102ba578063a217fddf146102cd578063c3b31472146102d557600080fd5b806336568abe1161011557806336568abe146101fb578063485cc9551461020e578063715018a614610221578063735a288514610229578063739118a41461023c57806375829def1461025c57600080fd5b806301ffc9a71461015257806320981df41461017a57806323961001146101a2578063248a9ca3146101c35780632f2ff15d146101e6575b600080fd5b610165610160366004612510565b61036b565b60405190151581526020015b60405180910390f35b61018d61018836600461255d565b6103a2565b60408051928352602083019190915201610171565b6101b56101b0366004612596565b610507565b604051908152602001610171565b6101b56101d13660046125e1565b60009081526020819052604090206001015490565b6101f96101f43660046125fa565b610826565b005b6101f96102093660046125fa565b610850565b6101f961021c36600461261f565b6108d3565b6101f9610a52565b6101b5610237366004612596565b610a66565b61024f61024a36600461261f565b610fb7565b60405161017191906126f6565b6101f961026a366004612745565b6112fc565b6101f961027d366004612745565b611326565b6101b5610290366004612596565b611350565b6001546001600160a01b03165b6040516001600160a01b039091168152602001610171565b6101656102c83660046125fa565b6115c9565b6101b5600081565b6005546102a2906001600160a01b031681565b6003546102a2906001600160a01b031681565b6004546102a2906001600160a01b031681565b61032161031c366004612745565b6115f2565b60405161017193929190612805565b6101f961033e3660046125fa565b611efd565b61034b611f22565b6040516101719190612902565b6101f9610366366004612745565b611f31565b60006001600160e01b03198216637965db0b60e01b148061039c57506301ffc9a760e01b6001600160e01b03198316145b92915050565b6000806000846001600160a01b031663f29ebf616040518163ffffffff1660e01b8152600401602060405180830381865afa1580156103e5573d6000803e3d6000fd5b505050506040513d601f19601f8201168201806040525081019061040991906129a4565b604051630826077d60e21b81526001600160a01b03878116600483015286151560248301529192506000918316906320981df490604401602060405180830381865afa15801561045d573d6000803e3d6000fd5b505050506040513d601f19601f8201168201806040525081019061048191906129c1565b6040516334f32e2560e01b81526001600160a01b03888116600483015287151560248301529192506000918416906334f32e2590604401602060405180830381865afa1580156104d5573d6000803e3d6000fd5b505050506040513d601f19601f820116820180604052508101906104f991906129c1565b919791965090945050505050565b6000808490506000816001600160a01b031663b894300d6040518163ffffffff1660e01b8152600401602060405180830381865afa15801561054d573d6000803e3d6000fd5b505050506040513d601f19601f8201168201806040525081019061057191906129a4565b9050806001600160a01b0316631f21756a868887866001600160a01b031663ac0b05a66040518163ffffffff1660e01b8152600401602060405180830381865afa1580156105c3573d6000803e3d6000fd5b505050506040513d601f19601f820116820180604052508101906105e791906129a4565b876001600160a01b031663f29ebf616040518163ffffffff1660e01b8152600401602060405180830381865afa158015610625573d6000803e3d6000fd5b505050506040513d601f19601f8201168201806040525081019061064991906129a4565b886001600160a01b031663741bef1a6040518163ffffffff1660e01b8152600401602060405180830381865afa158015610687573d6000803e3d6000fd5b505050506040513d601f19601f820116820180604052508101906106ab91906129a4565b6001600160a01b03166376d697608a6001600160a01b031663e7d015f26040518163ffffffff1660e01b8152600401602060405180830381865afa1580156106f7573d6000803e3d6000fd5b505050506040513d601f19601f8201168201806040525081019061071b91906129a4565b6040516001600160e01b031960e084901b1681526001600160a01b0390911660048201528d156024820152604401602060405180830381865afa158015610766573d6000803e3d6000fd5b505050506040513d601f19601f8201168201806040525081019061078a91906129c1565b60405160e088901b6001600160e01b03191681526001600160a01b039687166004820152948616602486015292151560448501529084166064840152909216608482015260a481019190915260c401602060405180830381865afa1580156107f6573d6000803e3d6000fd5b505050506040513d601f19601f8201168201806040525081019061081a91906129c1565b925050505b9392505050565b60008281526020819052604090206001015461084181611fcd565b61084b8383611fd7565b505050565b6001600160a01b03811633146108c55760405162461bcd60e51b815260206004820152602f60248201527f416363657373436f6e74726f6c3a2063616e206f6e6c792072656e6f756e636560448201526e103937b632b9903337b91039b2b63360891b60648201526084015b60405180910390fd5b6108cf828261205b565b5050565b6108db6120c0565b600154600160a81b900460ff1615808015610901575060018054600160a01b900460ff16105b806109215750303b158015610921575060018054600160a01b900460ff16145b6109845760405162461bcd60e51b815260206004820152602e60248201527f496e697469616c697a61626c653a20636f6e747261637420697320616c72656160448201526d191e481a5b9a5d1a585b1a5e995960921b60648201526084016108bc565b6001805460ff60a01b1916600160a01b17905580156109b1576001805460ff60a81b1916600160a81b1790555b6001600160a01b0383166109c457600080fd5b6001600160a01b0382166109d757600080fd5b600380546001600160a01b038086166001600160a01b0319928316179092556004805492851692909116919091179055801561084b576001805460ff60a81b191681556040519081527f7f26b83ff96e1f2b6a682f133852f6798a09c465da95921460cefb38474024989060200160405180910390a1505050565b610a5a6120c0565b610a64600061211a565b565b600080846001600160a01b031663d37c441c6040518163ffffffff1660e01b8152600401602060405180830381865afa158015610aa7573d6000803e3d6000fd5b505050506040513d601f19601f82011682018060405250810190610acb91906129a4565b90506000816001600160a01b0316636dc7b0a16040518163ffffffff1660e01b8152600401602060405180830381865afa158015610b0d573d6000803e3d6000fd5b505050506040513d601f19601f82011682018060405250810190610b3191906129c1565b905060008111610b465760009250505061081f565b6000866001600160a01b031663ac0b05a66040518163ffffffff1660e01b8152600401602060405180830381865afa158015610b86573d6000803e3d6000fd5b505050506040513d601f19601f82011682018060405250810190610baa91906129a4565b90506000876001600160a01b031663c54dc3d66040518163ffffffff1660e01b8152600401602060405180830381865afa158015610bec573d6000803e3d6000fd5b505050506040513d601f19601f82011682018060405250810190610c1091906129a4565b9050610c7360405180610140016040528060006001600160a01b0316815260200160008152602001600015158152602001600081526020016000815260200160008152602001600081526020016000815260200160008152602001600081525090565b6001600160a01b03808a1682528715156040808401919091526000602084015280516343a4b4a560e11b8152815192861692638749694a926004808401939192918290030181865afa158015610ccd573d6000803e3d6000fd5b505050506040513d601f19601f82011682018060405250810190610cf191906129ea565b61010083015260e082015260035460405162b29b4b60e61b81526001600160a01b038a8116600483015290911690632ca6d2c0906024016040805180830381865afa158015610d44573d6000803e3d6000fd5b505050506040513d601f19601f82011682018060405250810190610d6891906129ea565b60c083015260a082015260035460408051630799f55f60e01b815281516001600160a01b0390931692630799f55f926004808401939192918290030181865afa158015610db9573d6000803e3d6000fd5b505050506040513d601f19601f82011682018060405250810190610ddd91906129ea565b8260600183608001828152508281525050506000896001600160a01b031663b2016bd46040518163ffffffff1660e01b8152600401602060405180830381865afa158015610e2f573d6000803e3d6000fd5b505050506040513d601f19601f82011682018060405250810190610e5391906129a4565b9050610f36600460009054906101000a90046001600160a01b03166001600160a01b0316636dc7b0a16040518163ffffffff1660e01b8152600401602060405180830381865afa158015610eab573d6000803e3d6000fd5b505050506040513d601f19601f82011682018060405250810190610ecf91906129c1565b826001600160a01b031663313ce5676040518163ffffffff1660e01b8152600401602060405180830381865afa158015610f0d573d6000803e3d6000fd5b505050506040513d601f19601f82011682018060405250810190610f319190612a0e565b61216c565b610120830152604051638050e32f60e01b81526001600160a01b03841690638050e32f90610f68908590600401612a31565b602060405180830381865afa158015610f85573d6000803e3d6000fd5b505050506040513d601f19601f82011682018060405250810190610fa991906129c1565b9a9950505050505050505050565b60606001600160a01b03821661128e5760055460408051637616480b60e11b815290516000926001600160a01b03169163ec2c901691600480830192869291908290030181865afa158015611010573d6000803e3d6000fd5b505050506040513d6000823e601f3d908101601f191682016040526110389190810190612b74565b905060008080805b84518110156111025784818151811061105b5761105b612cee565b6020908102919091018101510151604051631f75a98760e11b81526001600160a01b038a81166004830152919550600091861690633eeb530e90602401600060405180830381865afa1580156110b5573d6000803e3d6000fd5b505050506040513d6000823e601f3d908101601f191682016040526110dd9190810190612de8565b90508051836110ec9190612e99565b92505080806110fa90612eac565b915050611040565b5080600003611114575050505061039c565b8067ffffffffffffffff81111561112d5761112d612ab1565b60405190808252806020026020018201604052801561116657816020015b611153612495565b81526020019060019003908161114b5790505b50945060005b84518110156112845784818151811061118757611187612cee565b6020908102919091018101510151604051631f75a98760e11b81526001600160a01b038a81166004830152919550600091861690633eeb530e90602401600060405180830381865afa1580156111e1573d6000803e3d6000fd5b505050506040513d6000823e601f3d908101601f191682016040526112099190810190612de8565b905060005b815181101561126f5781818151811061122957611229612cee565b602002602001015188868151811061124357611243612cee565b6020026020010181905250848061125990612eac565b955050808061126790612eac565b91505061120e565b5050808061127c90612eac565b91505061116c565b505050505061039c565b604051631f75a98760e11b81526001600160a01b038481166004830152831690633eeb530e90602401600060405180830381865afa1580156112d4573d6000803e3d6000fd5b505050506040513d6000823e601f3d908101601f1916820160405261081f9190810190612de8565b600061130781611fcd565b611312600083612199565b61131b8261211a565b6108cf60003361205b565b7f8d1089725c0dc266707fa6207730fb801dcd03108bfed7a21099bd303651d2b761014d81611fcd565b600080836001600160a01b031663ac0b05a66040518163ffffffff1660e01b8152600401602060405180830381865afa158015611391573d6000803e3d6000fd5b505050506040513d601f19601f820116820180604052508101906113b591906129a4565b90506113bf612495565b60405163bc95baad60e01b81526001600160a01b03878116600483015260006024830152851515604483015283169063bc95baad9060640161018060405180830381865afa158015611415573d6000803e3d6000fd5b505050506040513d601f19601f820116820180604052508101906114399190612ec5565b90506000856001600160a01b031663f29ebf616040518163ffffffff1660e01b8152600401602060405180830381865afa15801561147b573d6000803e3d6000fd5b505050506040513d601f19601f8201168201806040525081019061149f91906129a4565b604080516101e081018252600080825281830181905260608083018290526080830182905260a080840183905260c0840183905260e08401839052610100840183905261012084018390526101408401839052610160840183905261018084018381526101a085018490526101c08501929092528a1515602085015287015190526001600160a01b038a811683529251634151026360e01b8152939450909290918416906341510263906115599085908890600401612f1d565b600060405180830381865afa158015611576573d6000803e3d6000fd5b505050506040513d6000823e601f3d908101601f1916820160405261159e9190810190613025565b9050806002815181106115b3576115b3612cee565b6020026020010151955050505050509392505050565b6000918252602082815260408084206001600160a01b0393909316845291905290205460ff1690565b611645604051806101200160405280600081526020016000815260200160008152602001600081526020016000815260200160008152602001600081526020016000151581526020016000151581525090565b6040805161014081018252600080825260208201819052918101829052606081018290526080810182905260a0810182905260c0810182905260e0810182905261010081018290526101208101919091526116c86040518060a0016040528060008152602001600081526020016000815260200160008152602001600081525090565b60008490506000816001600160a01b031663f29ebf616040518163ffffffff1660e01b8152600401602060405180830381865afa15801561170d573d6000803e3d6000fd5b505050506040513d601f19601f8201168201806040525081019061173191906129a4565b90506000826001600160a01b031663b894300d6040518163ffffffff1660e01b8152600401602060405180830381865afa158015611773573d6000803e3d6000fd5b505050506040513d601f19601f8201168201806040525081019061179791906129a4565b90506000816001600160a01b031663177927296040518163ffffffff1660e01b8152600401602060405180830381865afa1580156117d9573d6000803e3d6000fd5b505050506040513d601f19601f820116820180604052508101906117fd91906130b6565b90506040518061012001604052806118178351610fff1690565b81528251602090910190600c1c610fff1681526020016118386127106121a3565b8152825160181c610fff9081166020830152835160241c166040820152606001611861836121c8565b815260200161186f836121e6565b81526020016118848351600f606c1b16151590565b1515815260200161189b8351600f60681b16151590565b15158152509650604051806101400160405280856001600160a01b031663e84254676040518163ffffffff1660e01b8152600401602060405180830381865afa1580156118ec573d6000803e3d6000fd5b505050506040513d601f19601f820116820180604052508101906119109190612a0e565b60ff168152602001846001600160a01b031663d87780688b60016040518363ffffffff1660e01b81526004016119479291906130f8565b602060405180830381865afa158015611964573d6000803e3d6000fd5b505050506040513d601f19601f8201168201806040525081019061198891906129c1565b8152602001846001600160a01b031663d87780688b60006040518363ffffffff1660e01b81526004016119bc9291906130f8565b602060405180830381865afa1580156119d9573d6000803e3d6000fd5b505050506040513d601f19601f820116820180604052508101906119fd91906129c1565b8152602001846001600160a01b031663d87780688b60046040518363ffffffff1660e01b8152600401611a319291906130f8565b602060405180830381865afa158015611a4e573d6000803e3d6000fd5b505050506040513d601f19601f82011682018060405250810190611a7291906129c1565b815260200160008152602001856001600160a01b031663e7d015f26040518163ffffffff1660e01b8152600401602060405180830381865afa158015611abc573d6000803e3d6000fd5b505050506040513d601f19601f82011682018060405250810190611ae091906129a4565b6001600160a01b03168152602001856001600160a01b031663b2016bd46040518163ffffffff1660e01b8152600401602060405180830381865afa158015611b2c573d6000803e3d6000fd5b505050506040513d601f19601f82011682018060405250810190611b5091906129a4565b6001600160a01b03168152602001856001600160a01b0316637b2fd1e56040518163ffffffff1660e01b8152600401602060405180830381865afa158015611b9c573d6000803e3d6000fd5b505050506040513d601f19601f82011682018060405250810190611bc091906129a4565b6001600160a01b03168152602001856001600160a01b03166305ba9ae96040518163ffffffff1660e01b8152600401602060405180830381865afa158015611c0c573d6000803e3d6000fd5b505050506040513d601f19601f82011682018060405250810190611c3091906129a4565b6001600160a01b03168152602001856001600160a01b031663ac0b05a66040518163ffffffff1660e01b8152600401602060405180830381865afa158015611c7c573d6000803e3d6000fd5b505050506040513d601f19601f82011682018060405250810190611ca091906129a4565b6001600160a01b039081169091526040805160a0810191829052631b0ef00d60e31b9091529197508190851663d8778068611ce08c600160a486016130f8565b602060405180830381865afa158015611cfd573d6000803e3d6000fd5b505050506040513d601f19601f82011682018060405250810190611d2191906129c1565b8152602001846001600160a01b031663d87780688b60006040518363ffffffff1660e01b8152600401611d559291906130f8565b602060405180830381865afa158015611d72573d6000803e3d6000fd5b505050506040513d601f19601f82011682018060405250810190611d9691906129c1565b8152602001846001600160a01b031663d87780688b60036040518363ffffffff1660e01b8152600401611dca9291906130f8565b602060405180830381865afa158015611de7573d6000803e3d6000fd5b505050506040513d601f19601f82011682018060405250810190611e0b91906129c1565b8152602001846001600160a01b031663d87780688b60046040518363ffffffff1660e01b8152600401611e3f9291906130f8565b602060405180830381865afa158015611e5c573d6000803e3d6000fd5b505050506040513d601f19601f82011682018060405250810190611e8091906129c1565b8152602001611eef856001600160a01b031663f4ca4d1d6040518163ffffffff1660e01b8152600401602060405180830381865afa158015611ec6573d6000803e3d6000fd5b505050506040513d601f19601f82011682018060405250810190611eea91906129c1565b6121a3565b905296989597505050505050565b600082815260208190526040902060010154611f1881611fcd565b61084b838361205b565b6060611f2c612206565b905090565b611f396120c0565b6001600160a01b038116611f9e5760405162461bcd60e51b815260206004820152602660248201527f4f776e61626c653a206e6577206f776e657220697320746865207a65726f206160448201526564647265737360d01b60648201526084016108bc565b611fa78161211a565b50565b42600255611fb73361211a565b611fc2600033612199565b611fa7600082612199565b611fa78133612278565b611fe182826115c9565b6108cf576000828152602081815260408083206001600160a01b03851684529091529020805460ff191660011790556120173390565b6001600160a01b0316816001600160a01b0316837f2f8788117e7eff1d82e926ec794901d17c78024a50270940304540a733656f0d60405160405180910390a45050565b61206582826115c9565b156108cf576000828152602081815260408083206001600160a01b0385168085529252808320805460ff1916905551339285917ff6391f5c32d9c69d2a47ea670b442974b53935d1edc7fd64eb21e047a839171b9190a45050565b6001546001600160a01b03163314610a645760405162461bcd60e51b815260206004820181905260248201527f4f776e61626c653a2063616c6c6572206973206e6f7420746865206f776e657260448201526064016108bc565b600180546001600160a01b038381166001600160a01b0319831681179093556040519116919082907f8be0079c531659141344cd1fd0a4f28419497f9722a3daafe3b4186f6b6457e090600090a35050565b600061217982600a6131f8565b6121856012600a613207565b61218f9085613213565b61081f919061322a565b6108cf8282611fd7565b600060015b6001909101906121b9600a82613213565b90508281036121a85750919050565b60006121d3826122d1565b825161039c9190603c1c610fff16613213565b60006121f1826122d1565b825161039c919060481c63ffffffff16613213565b60055460408051637616480b60e11b815290516060926001600160a01b03169163ec2c90169160048083019260009291908290030181865afa158015612250573d6000803e3d6000fd5b505050506040513d6000823e601f3d908101601f19168201604052611f2c9190810190612b74565b61228282826115c9565b6108cf5761228f816122e7565b61229a8360206122f9565b6040516020016122ab92919061324c565b60408051601f198184030181529082905262461bcd60e51b82526108bc916004016132c1565b805160009061039c9060701c60ff16600a613207565b606061039c6001600160a01b03831660145b60606000612308836002613213565b612313906002612e99565b67ffffffffffffffff81111561232b5761232b612ab1565b6040519080825280601f01601f191660200182016040528015612355576020820181803683370190505b509050600360fc1b8160008151811061237057612370612cee565b60200101906001600160f81b031916908160001a905350600f60fb1b8160018151811061239f5761239f612cee565b60200101906001600160f81b031916908160001a90535060006123c3846002613213565b6123ce906001612e99565b90505b6001811115612446576f181899199a1a9b1b9c1cb0b131b232b360811b85600f166010811061240257612402612cee565b1a60f81b82828151811061241857612418612cee565b60200101906001600160f81b031916908160001a90535060049490941c9361243f816132d4565b90506123d1565b50831561081f5760405162461bcd60e51b815260206004820181905260248201527f537472696e67733a20686578206c656e67746820696e73756666696369656e7460448201526064016108bc565b60405180610180016040528060006001600160a01b03168152602001600015158152602001600063ffffffff16815260200160006001600160d81b0316815260200160008152602001600081526020016000815260200160008152602001600081526020016000815260200160008152602001600081525090565b60006020828403121561252257600080fd5b81356001600160e01b03198116811461081f57600080fd5b6001600160a01b0381168114611fa757600080fd5b8015158114611fa757600080fd5b6000806040838503121561257057600080fd5b823561257b8161253a565b9150602083013561258b8161254f565b809150509250929050565b6000806000606084860312156125ab57600080fd5b83356125b68161253a565b925060208401356125c68161253a565b915060408401356125d68161254f565b809150509250925092565b6000602082840312156125f357600080fd5b5035919050565b6000806040838503121561260d57600080fd5b82359150602083013561258b8161253a565b6000806040838503121561263257600080fd5b823561263d8161253a565b9150602083013561258b8161253a565b80516001600160a01b03168252602081015161266d602084018215159052565b506040810151612685604084018263ffffffff169052565b5060608101516126a060608401826001600160d81b03169052565b506080818101519083015260a0808201519083015260c0808201519083015260e0808201519083015261010080820151908301526101208082015190830152610140808201519083015261016090810151910152565b6020808252825182820181905260009190848201906040850190845b818110156127395761272583855161264d565b928401926101809290920191600101612712565b50909695505050505050565b60006020828403121561275757600080fd5b813561081f8161253a565b805182526020810151602083015260408101516040830152606081015160608301526080810151608083015260a08101516127a860a08401826001600160a01b03169052565b5060c08101516127c360c08401826001600160a01b03169052565b5060e08101516127de60e08401826001600160a01b03169052565b50610100818101516001600160a01b03908116918401919091526101209182015116910152565b600061030082019050845182526020850151602083015260408501516040830152606085015160608301526080850151608083015260a085015160a083015260c085015160c083015260e0850151151560e08301526101008086015115158184015250612876610120830185612762565b8251610260830152602083015161028083015260408301516102a083015260608301516102c083015260808301516102e0830152949350505050565b60005b838110156128cd5781810151838201526020016128b5565b50506000910152565b600081518084526128ee8160208601602086016128b2565b601f01601f19169290920160200192915050565b60006020808301818452808551808352604092508286019150828160051b87010184880160005b8381101561299657603f19898403018552815160a0815181865261294f828701826128d6565b838b01516001600160a01b0316878c0152898401518a8801526060808501511515908801526080938401511515939096019290925250509386019390860190600101612929565b509098975050505050505050565b6000602082840312156129b657600080fd5b815161081f8161253a565b6000602082840312156129d357600080fd5b5051919050565b80516129e58161253a565b919050565b600080604083850312156129fd57600080fd5b505080516020909101519092909150565b600060208284031215612a2057600080fd5b815160ff8116811461081f57600080fd5b81516001600160a01b031681526101408101602083015160208301526040830151612a60604084018215159052565b50606083015160608301526080830151608083015260a083015160a083015260c083015160c083015260e083015160e083015261010080840151818401525061012080840151818401525092915050565b634e487b7160e01b600052604160045260246000fd5b60405160a0810167ffffffffffffffff81118282101715612aea57612aea612ab1565b60405290565b604051610180810167ffffffffffffffff81118282101715612aea57612aea612ab1565b604051601f8201601f1916810167ffffffffffffffff81118282101715612b3d57612b3d612ab1565b604052919050565b600067ffffffffffffffff821115612b5f57612b5f612ab1565b5060051b60200190565b80516129e58161254f565b60006020808385031215612b8757600080fd5b825167ffffffffffffffff80821115612b9f57600080fd5b818501915085601f830112612bb357600080fd5b8151612bc6612bc182612b45565b612b14565b81815260059190911b83018401908481019088831115612be557600080fd5b8585015b83811015612ce157805185811115612c0057600080fd5b8601601f1960a0828d0382011215612c185760008081fd5b612c20612ac7565b8983015188811115612c325760008081fd5b8301603f81018e13612c445760008081fd5b8a81015160408a821115612c5a57612c5a612ab1565b612c6a8d86601f85011601612b14565b94508185528f81838501011115612c815760008081fd5b612c90828e87018386016128b2565b848452612c9e8187016129da565b8d8501526060945084860151818501525050506080612cbe818501612b69565b83830152612cce60a08501612b69565b9082015285525050918601918601612be9565b5098975050505050505050565b634e487b7160e01b600052603260045260246000fd5b805163ffffffff811681146129e557600080fd5b80516001600160d81b03811681146129e557600080fd5b60006101808284031215612d4257600080fd5b612d4a612af0565b9050612d55826129da565b8152612d6360208301612b69565b6020820152612d7460408301612d04565b6040820152612d8560608301612d18565b60608201526080820151608082015260a082015160a082015260c082015160c082015260e082015160e082015261010080830151818301525061012080830151818301525061014080830151818301525061016080830151818301525092915050565b60006020808385031215612dfb57600080fd5b825167ffffffffffffffff811115612e1257600080fd5b8301601f81018513612e2357600080fd5b8051612e31612bc182612b45565b8181526101809182028301840191848201919088841115612e5157600080fd5b938501935b83851015612e7757612e688986612d2f565b83529384019391850191612e56565b50979650505050505050565b634e487b7160e01b600052601160045260246000fd5b8082018082111561039c5761039c612e83565b600060018201612ebe57612ebe612e83565b5060010190565b60006101808284031215612ed857600080fd5b61081f8383612d2f565b600081518084526020808501945080840160005b83811015612f1257815187529582019590820190600101612ef6565b509495945050505050565b60006101a0808352612f3a81840186516001600160a01b03169052565b60208501516101c0612f4f8186018315159052565b60408701516101e0868101919091526060880151151561020087015260808801516001600160a01b031661022087015260a088015161024087015260c088015161026087015260e088015161028087015261010088015115156102a087015261012088015160ff9081166102c088015261014089015167ffffffffffffffff166102e08801526101608901516103008801526101808901516103208801529388015190931661034086015286015161036085019290925250613015610380840182612ee2565b91505061081f602083018461264d565b6000602080838503121561303857600080fd5b825167ffffffffffffffff81111561304f57600080fd5b8301601f8101851361306057600080fd5b805161306e612bc182612b45565b81815260059190911b8201830190838101908783111561308d57600080fd5b928401925b828410156130ab57835182529284019290840190613092565b979650505050505050565b6000602082840312156130c857600080fd5b6040516020810181811067ffffffffffffffff821117156130eb576130eb612ab1565b6040529151825250919050565b6001600160a01b0392909216825260ff16602082015260400190565b600181815b8085111561314f57816000190482111561313557613135612e83565b8085161561314257918102915b93841c9390800290613119565b509250929050565b6000826131665750600161039c565b816131735750600061039c565b81600181146131895760028114613193576131af565b600191505061039c565b60ff8411156131a4576131a4612e83565b50506001821b61039c565b5060208310610133831016604e8410600b84101617156131d2575081810a61039c565b6131dc8383613114565b80600019048211156131f0576131f0612e83565b029392505050565b600061081f60ff841683613157565b600061081f8383613157565b808202811582820484141761039c5761039c612e83565b60008261324757634e487b7160e01b600052601260045260246000fd5b500490565b7f416363657373436f6e74726f6c3a206163636f756e74200000000000000000008152600083516132848160178501602088016128b2565b7001034b99036b4b9b9b4b733903937b6329607d1b60179184019182015283516132b58160288401602088016128b2565b01602801949350505050565b60208152600061081f60208301846128d6565b6000816132e3576132e3612e83565b50600019019056fea264697066735822122039e583f8b69c23ff5bff7e74250ba57855b2e3f7c2a23745407ff72a73dd110664736f6c63430008110033",
  "linkReferences": {},
  "deployedLinkReferences": {}
}