{
  "_format": "hh-sol-artifact-1",
  "contractName": "MarketReader",
  "sourceName": "contracts/market/MarketReader.sol",
  "abi": [
    {
      "inputs": [
        {
          "internalType": "address",
          "name": "_f",
          "type": "address"
        }
      ],
      "stateMutability": "nonpayable",
      "type": "constructor"
    },
    {
      "anonymous": false,
      "inputs": [
        {
          "indexed": false,
          "internalType": "uint8",
          "name": "version",
          "type": "uint8"
        }
      ],
      "name": "Initialized",
      "type": "event"
    },
    {
      "anonymous": false,
      "inputs": [
        {
          "indexed": true,
          "internalType": "address",
          "name": "previousOwner",
          "type": "address"
        },
        {
          "indexed": true,
          "internalType": "address",
          "name": "newOwner",
          "type": "address"
        }
      ],
      "name": "OwnershipTransferred",
      "type": "event"
    },
    {
      "anonymous": false,
      "inputs": [
        {
          "indexed": true,
          "internalType": "bytes32",
          "name": "role",
          "type": "bytes32"
        },
        {
          "indexed": true,
          "internalType": "bytes32",
          "name": "previousAdminRole",
          "type": "bytes32"
        },
        {
          "indexed": true,
          "internalType": "bytes32",
          "name": "newAdminRole",
          "type": "bytes32"
        }
      ],
      "name": "RoleAdminChanged",
      "type": "event"
    },
    {
      "anonymous": false,
      "inputs": [
        {
          "indexed": true,
          "internalType": "bytes32",
          "name": "role",
          "type": "bytes32"
        },
        {
          "indexed": true,
          "internalType": "address",
          "name": "account",
          "type": "address"
        },
        {
          "indexed": true,
          "internalType": "address",
          "name": "sender",
          "type": "address"
        }
      ],
      "name": "RoleGranted",
      "type": "event"
    },
    {
      "anonymous": false,
      "inputs": [
        {
          "indexed": true,
          "internalType": "bytes32",
          "name": "role",
          "type": "bytes32"
        },
        {
          "indexed": true,
          "internalType": "address",
          "name": "account",
          "type": "address"
        },
        {
          "indexed": true,
          "internalType": "address",
          "name": "sender",
          "type": "address"
        }
      ],
      "name": "RoleRevoked",
      "type": "event"
    },
    {
      "inputs": [],
      "name": "DEFAULT_ADMIN_ROLE",
      "outputs": [
        {
          "internalType": "bytes32",
          "name": "",
          "type": "bytes32"
        }
      ],
      "stateMutability": "view",
      "type": "function"
    },
    {
      "inputs": [
        {
          "internalType": "address",
          "name": "market",
          "type": "address"
        },
        {
          "internalType": "address",
          "name": "account",
          "type": "address"
        },
        {
          "internalType": "bool",
          "name": "isLong",
          "type": "bool"
        }
      ],
      "name": "availableLiquidity",
      "outputs": [
        {
          "internalType": "uint256",
          "name": "",
          "type": "uint256"
        }
      ],
      "stateMutability": "view",
      "type": "function"
    },
    {
      "inputs": [],
      "name": "fac",
      "outputs": [
        {
          "internalType": "contract IMarketFactory",
          "name": "",
          "type": "address"
        }
      ],
      "stateMutability": "view",
      "type": "function"
    },
    {
      "inputs": [
        {
          "internalType": "address",
          "name": "account",
          "type": "address"
        },
        {
          "internalType": "address",
          "name": "market",
          "type": "address"
        },
        {
          "internalType": "bool",
          "name": "isLong",
          "type": "bool"
        }
      ],
      "name": "getFundingFee",
      "outputs": [
        {
          "internalType": "int256",
          "name": "",
          "type": "int256"
        }
      ],
      "stateMutability": "view",
      "type": "function"
    },
    {
      "inputs": [
        {
          "internalType": "address",
          "name": "_market",
          "type": "address"
        },
        {
          "internalType": "bool",
          "name": "_isLong",
          "type": "bool"
        }
      ],
      "name": "getFundingRate",
      "outputs": [
        {
          "internalType": "int256",
          "name": "",
          "type": "int256"
        },
        {
          "internalType": "int256",
          "name": "",
          "type": "int256"
        }
      ],
      "stateMutability": "view",
      "type": "function"
    },
    {
      "inputs": [
        {
          "internalType": "address",
          "name": "_marketAddr",
          "type": "address"
        }
      ],
      "name": "getMarket",
      "outputs": [
        {
          "components": [
            {
              "internalType": "uint256",
              "name": "minSlippage",
              "type": "uint256"
            },
            {
              "internalType": "uint256",
              "name": "maxSlippage",
              "type": "uint256"
            },
            {
              "internalType": "uint256",
              "name": "slippageDigits",
              "type": "uint256"
            },
            {
              "internalType": "uint256",
              "name": "minLev",
              "type": "uint256"
            },
            {
              "internalType": "uint256",
              "name": "maxLev",
              "type": "uint256"
            },
            {
              "internalType": "uint256",
              "name": "minCollateral",
              "type": "uint256"
            },
            {
              "internalType": "uint256",
              "name": "maxTradeAmount",
              "type": "uint256"
            },
            {
              "internalType": "bool",
              "name": "allowOpen",
              "type": "bool"
            },
            {
              "internalType": "bool",
              "name": "allowClose",
              "type": "bool"
            }
          ],
          "internalType": "struct IMarketReader.ValidOuts",
          "name": "validOuts",
          "type": "tuple"
        },
        {
          "components": [
            {
              "internalType": "uint256",
              "name": "tokenDigits",
              "type": "uint256"
            },
            {
              "internalType": "uint256",
              "name": "closeFeeRate",
              "type": "uint256"
            },
            {
              "internalType": "uint256",
              "name": "openFeeRate",
              "type": "uint256"
            },
            {
              "internalType": "uint256",
              "name": "liquidationFeeUsd",
              "type": "uint256"
            },
            {
              "internalType": "uint256",
              "name": "spread",
              "type": "uint256"
            },
            {
              "internalType": "address",
              "name": "indexToken",
              "type": "address"
            },
            {
              "internalType": "address",
              "name": "collateralToken",
              "type": "address"
            },
            {
              "internalType": "address",
              "name": "orderBookLong",
              "type": "address"
            },
            {
              "internalType": "address",
              "name": "orderBookShort",
              "type": "address"
            },
            {
              "internalType": "address",
              "name": "positionBook",
              "type": "address"
            }
          ],
          "internalType": "struct IMarketReader.MarketOuts",
          "name": "mktOuts",
          "type": "tuple"
        },
        {
          "components": [
            {
              "internalType": "uint256",
              "name": "closeFeeRate",
              "type": "uint256"
            },
            {
              "internalType": "uint256",
              "name": "openFeeRate",
              "type": "uint256"
            },
            {
              "internalType": "uint256",
              "name": "execFee",
              "type": "uint256"
            },
            {
              "internalType": "uint256",
              "name": "liquidateFee",
              "type": "uint256"
            },
            {
              "internalType": "uint256",
              "name": "digits",
              "type": "uint256"
            }
          ],
          "internalType": "struct IMarketReader.FeeOuts",
          "name": "feeOuts",
          "type": "tuple"
        }
      ],
      "stateMutability": "view",
      "type": "function"
    },
    {
      "inputs": [],
      "name": "getMarkets",
      "outputs": [
        {
          "components": [
            {
              "internalType": "string",
              "name": "name",
              "type": "string"
            },
            {
              "internalType": "address",
              "name": "addr",
              "type": "address"
            },
            {
              "internalType": "uint256",
              "name": "minPay",
              "type": "uint256"
            },
            {
              "internalType": "bool",
              "name": "allowOpen",
              "type": "bool"
            },
            {
              "internalType": "bool",
              "name": "allowClose",
              "type": "bool"
            }
          ],
          "internalType": "struct IMarketFactory.Outs[]",
          "name": "_outs",
          "type": "tuple[]"
        }
      ],
      "stateMutability": "view",
      "type": "function"
    },
    {
      "inputs": [
        {
          "internalType": "address",
          "name": "account",
          "type": "address"
        },
        {
          "internalType": "address",
          "name": "market",
          "type": "address"
        }
      ],
      "name": "getPositions",
      "outputs": [
        {
          "components": [
            {
              "internalType": "address",
              "name": "market",
              "type": "address"
            },
            {
              "internalType": "bool",
              "name": "isLong",
              "type": "bool"
            },
            {
              "internalType": "uint32",
              "name": "lastTime",
              "type": "uint32"
            },
            {
              "internalType": "uint216",
              "name": "extra3",
              "type": "uint216"
            },
            {
              "internalType": "uint256",
              "name": "size",
              "type": "uint256"
            },
            {
              "internalType": "uint256",
              "name": "collateral",
              "type": "uint256"
            },
            {
              "internalType": "uint256",
              "name": "averagePrice",
              "type": "uint256"
            },
            {
              "internalType": "int256",
              "name": "entryFundingRate",
              "type": "int256"
            },
            {
              "internalType": "int256",
              "name": "realisedPnl",
              "type": "int256"
            },
            {
              "internalType": "uint256",
              "name": "extra0",
              "type": "uint256"
            },
            {
              "internalType": "uint256",
              "name": "extra1",
              "type": "uint256"
            },
            {
              "internalType": "uint256",
              "name": "extra2",
              "type": "uint256"
            }
          ],
          "internalType": "struct Position.Props[]",
          "name": "_positions",
          "type": "tuple[]"
        }
      ],
      "stateMutability": "view",
      "type": "function"
    },
    {
      "inputs": [
        {
          "internalType": "bytes32",
          "name": "role",
          "type": "bytes32"
        }
      ],
      "name": "getRoleAdmin",
      "outputs": [
        {
          "internalType": "bytes32",
          "name": "",
          "type": "bytes32"
        }
      ],
      "stateMutability": "view",
      "type": "function"
    },
    {
      "inputs": [
        {
          "internalType": "bytes32",
          "name": "role",
          "type": "bytes32"
        },
        {
          "internalType": "address",
          "name": "account",
          "type": "address"
        }
      ],
      "name": "grantAndRevoke",
      "outputs": [],
      "stateMutability": "nonpayable",
      "type": "function"
    },
    {
      "inputs": [
        {
          "internalType": "address",
          "name": "_account",
          "type": "address"
        }
      ],
      "name": "grantControllerRoleByMarketManager",
      "outputs": [],
      "stateMutability": "nonpayable",
      "type": "function"
    },
    {
      "inputs": [
        {
          "internalType": "bytes32",
          "name": "role",
          "type": "bytes32"
        },
        {
          "internalType": "address",
          "name": "account",
          "type": "address"
        }
      ],
      "name": "grantRole",
      "outputs": [],
      "stateMutability": "nonpayable",
      "type": "function"
    },
    {
      "inputs": [
        {
          "internalType": "bytes32",
          "name": "role",
          "type": "bytes32"
        },
        {
          "internalType": "address",
          "name": "account",
          "type": "address"
        }
      ],
      "name": "hasRole",
      "outputs": [
        {
          "internalType": "bool",
          "name": "",
          "type": "bool"
        }
      ],
      "stateMutability": "view",
      "type": "function"
    },
    {
      "inputs": [
        {
          "internalType": "address",
          "name": "_marketRouter",
          "type": "address"
        },
        {
          "internalType": "address",
          "name": "_vaultRouter",
          "type": "address"
        }
      ],
      "name": "initialize",
      "outputs": [],
      "stateMutability": "nonpayable",
      "type": "function"
    },
    {
      "inputs": [
        {
          "internalType": "address",
          "name": "market",
          "type": "address"
        },
        {
          "internalType": "address",
          "name": "_account",
          "type": "address"
        },
        {
          "internalType": "bool",
          "name": "_isLong",
          "type": "bool"
        }
      ],
      "name": "isLiquidate",
      "outputs": [
        {
          "internalType": "uint256",
          "name": "_state",
          "type": "uint256"
        }
      ],
      "stateMutability": "view",
      "type": "function"
    },
    {
      "inputs": [],
      "name": "marketRouter",
      "outputs": [
        {
          "internalType": "contract IMarketRouter",
          "name": "",
          "type": "address"
        }
      ],
      "stateMutability": "view",
      "type": "function"
    },
    {
      "inputs": [],
      "name": "owner",
      "outputs": [
        {
          "internalType": "address",
          "name": "",
          "type": "address"
        }
      ],
      "stateMutability": "view",
      "type": "function"
    },
    {
      "inputs": [],
      "name": "renounceOwnership",
      "outputs": [],
      "stateMutability": "nonpayable",
      "type": "function"
    },
    {
      "inputs": [
        {
          "internalType": "bytes32",
          "name": "role",
          "type": "bytes32"
        },
        {
          "internalType": "address",
          "name": "account",
          "type": "address"
        }
      ],
      "name": "renounceRole",
      "outputs": [],
      "stateMutability": "nonpayable",
      "type": "function"
    },
    {
      "inputs": [
        {
          "internalType": "bytes32",
          "name": "role",
          "type": "bytes32"
        },
        {
          "internalType": "address",
          "name": "account",
          "type": "address"
        }
      ],
      "name": "revokeRole",
      "outputs": [],
      "stateMutability": "nonpayable",
      "type": "function"
    },
    {
      "inputs": [
        {
          "internalType": "bytes4",
          "name": "interfaceId",
          "type": "bytes4"
        }
      ],
      "name": "supportsInterface",
      "outputs": [
        {
          "internalType": "bool",
          "name": "",
          "type": "bool"
        }
      ],
      "stateMutability": "view",
      "type": "function"
    },
    {
      "inputs": [
        {
          "internalType": "address",
          "name": "to",
          "type": "address"
        }
      ],
      "name": "transferAdmin",
      "outputs": [],
      "stateMutability": "nonpayable",
      "type": "function"
    },
    {
      "inputs": [
        {
          "internalType": "address",
          "name": "newOwner",
          "type": "address"
        }
      ],
      "name": "transferOwnership",
      "outputs": [],
      "stateMutability": "nonpayable",
      "type": "function"
    },
    {
      "inputs": [],
      "name": "vaultRouter",
      "outputs": [
        {
          "internalType": "contract IVaultRouter",
          "name": "",
          "type": "address"
        }
      ],
      "stateMutability": "view",
      "type": "function"
    }
  ],
  "bytecode": "0x60806040523480156200001157600080fd5b50604051620035e4380380620035e48339810160408190526200003491620001ab565b8062000040336200007d565b6200005681620000cf60201b620020d41760201c565b50600580546001600160a01b0319166001600160a01b0392909216919091179055620001dd565b600180546001600160a01b038381166001600160a01b0319831681179093556040519116919082907f8be0079c531659141344cd1fd0a4f28419497f9722a3daafe3b4186f6b6457e090600090a35050565b42600255620000de336200007d565b620000eb600033620000fb565b620000f8600082620000fb565b50565b6200010782826200010b565b5050565b6000828152602081815260408083206001600160a01b038516845290915290205460ff1662000107576000828152602081815260408083206001600160a01b03851684529091529020805460ff19166001179055620001673390565b6001600160a01b0316816001600160a01b0316837f2f8788117e7eff1d82e926ec794901d17c78024a50270940304540a733656f0d60405160405180910390a45050565b600060208284031215620001be57600080fd5b81516001600160a01b0381168114620001d657600080fd5b9392505050565b6133f780620001ed6000396000f3fe608060405234801561001057600080fd5b50600436106101585760003560e01c8063889be285116100c3578063d12dbde41161007c578063d12dbde414610306578063d37c441c14610319578063d4dfadbf1461032c578063d547741f1461034e578063ec2c901614610361578063f2fde38b1461037657600080fd5b8063889be2851461028d5780638da5cb5b146102a057806391d14854146102c557806399d5c1ec146102d8578063a217fddf146102eb578063c3b31472146102f357600080fd5b8063485cc95511610115578063485cc95514610219578063715018a61461022c578063735a288514610234578063739118a41461024757806375829def146102675780637fe4a6981461027a57600080fd5b806301ffc9a71461015d57806320981df41461018557806323961001146101ad578063248a9ca3146101ce5780632f2ff15d146101f157806336568abe14610206575b600080fd5b61017061016b3660046125c8565b610389565b60405190151581526020015b60405180910390f35b610198610193366004612615565b6103c0565b6040805192835260208301919091520161017c565b6101c06101bb36600461264e565b610525565b60405190815260200161017c565b6101c06101dc366004612699565b60009081526020819052604090206001015490565b6102046101ff3660046126b2565b610844565b005b6102046102143660046126b2565b61086e565b6102046102273660046126d7565b6108f1565b610204610a70565b6101c061024236600461264e565b610a84565b61025a6102553660046126d7565b610fd5565b60405161017c91906127ae565b6102046102753660046127fd565b61131a565b6102046102883660046127fd565b611344565b6101c061029b36600461264e565b61136e565b6001546001600160a01b03165b6040516001600160a01b03909116815260200161017c565b6101706102d33660046126b2565b6115e7565b6102046102e63660046126b2565b611610565b6101c0600081565b6005546102ad906001600160a01b031681565b6003546102ad906001600160a01b031681565b6004546102ad906001600160a01b031681565b61033f61033a3660046127fd565b6116b4565b60405161017c939291906128c8565b61020461035c3660046126b2565b611fbf565b610369611fe4565b60405161017c91906129c5565b6102046103843660046127fd565b61205b565b60006001600160e01b03198216637965db0b60e01b14806103ba57506301ffc9a760e01b6001600160e01b03198316145b92915050565b6000806000846001600160a01b031663f29ebf616040518163ffffffff1660e01b8152600401602060405180830381865afa158015610403573d6000803e3d6000fd5b505050506040513d601f19601f820116820180604052508101906104279190612a67565b604051630826077d60e21b81526001600160a01b03878116600483015286151560248301529192506000918316906320981df490604401602060405180830381865afa15801561047b573d6000803e3d6000fd5b505050506040513d601f19601f8201168201806040525081019061049f9190612a84565b6040516334f32e2560e01b81526001600160a01b03888116600483015287151560248301529192506000918416906334f32e2590604401602060405180830381865afa1580156104f3573d6000803e3d6000fd5b505050506040513d601f19601f820116820180604052508101906105179190612a84565b919791965090945050505050565b6000808490506000816001600160a01b031663b894300d6040518163ffffffff1660e01b8152600401602060405180830381865afa15801561056b573d6000803e3d6000fd5b505050506040513d601f19601f8201168201806040525081019061058f9190612a67565b9050806001600160a01b0316631f21756a868887866001600160a01b031663ac0b05a66040518163ffffffff1660e01b8152600401602060405180830381865afa1580156105e1573d6000803e3d6000fd5b505050506040513d601f19601f820116820180604052508101906106059190612a67565b876001600160a01b031663f29ebf616040518163ffffffff1660e01b8152600401602060405180830381865afa158015610643573d6000803e3d6000fd5b505050506040513d601f19601f820116820180604052508101906106679190612a67565b886001600160a01b031663741bef1a6040518163ffffffff1660e01b8152600401602060405180830381865afa1580156106a5573d6000803e3d6000fd5b505050506040513d601f19601f820116820180604052508101906106c99190612a67565b6001600160a01b03166376d697608a6001600160a01b031663e7d015f26040518163ffffffff1660e01b8152600401602060405180830381865afa158015610715573d6000803e3d6000fd5b505050506040513d601f19601f820116820180604052508101906107399190612a67565b6040516001600160e01b031960e084901b1681526001600160a01b0390911660048201528d156024820152604401602060405180830381865afa158015610784573d6000803e3d6000fd5b505050506040513d601f19601f820116820180604052508101906107a89190612a84565b60405160e088901b6001600160e01b03191681526001600160a01b039687166004820152948616602486015292151560448501529084166064840152909216608482015260a481019190915260c401602060405180830381865afa158015610814573d6000803e3d6000fd5b505050506040513d601f19601f820116820180604052508101906108389190612a84565b925050505b9392505050565b60008281526020819052604090206001015461085f816120f7565b6108698383612101565b505050565b6001600160a01b03811633146108e35760405162461bcd60e51b815260206004820152602f60248201527f416363657373436f6e74726f6c3a2063616e206f6e6c792072656e6f756e636560448201526e103937b632b9903337b91039b2b63360891b60648201526084015b60405180910390fd5b6108ed8282612185565b5050565b6108f96121ea565b600154600160a81b900460ff161580801561091f575060018054600160a01b900460ff16105b8061093f5750303b15801561093f575060018054600160a01b900460ff16145b6109a25760405162461bcd60e51b815260206004820152602e60248201527f496e697469616c697a61626c653a20636f6e747261637420697320616c72656160448201526d191e481a5b9a5d1a585b1a5e995960921b60648201526084016108da565b6001805460ff60a01b1916600160a01b17905580156109cf576001805460ff60a81b1916600160a81b1790555b6001600160a01b0383166109e257600080fd5b6001600160a01b0382166109f557600080fd5b600380546001600160a01b038086166001600160a01b03199283161790925560048054928516929091169190911790558015610869576001805460ff60a81b191681556040519081527f7f26b83ff96e1f2b6a682f133852f6798a09c465da95921460cefb38474024989060200160405180910390a1505050565b610a786121ea565b610a826000612244565b565b600080846001600160a01b031663d37c441c6040518163ffffffff1660e01b8152600401602060405180830381865afa158015610ac5573d6000803e3d6000fd5b505050506040513d601f19601f82011682018060405250810190610ae99190612a67565b90506000816001600160a01b0316636dc7b0a16040518163ffffffff1660e01b8152600401602060405180830381865afa158015610b2b573d6000803e3d6000fd5b505050506040513d601f19601f82011682018060405250810190610b4f9190612a84565b905060008111610b645760009250505061083d565b6000866001600160a01b031663ac0b05a66040518163ffffffff1660e01b8152600401602060405180830381865afa158015610ba4573d6000803e3d6000fd5b505050506040513d601f19601f82011682018060405250810190610bc89190612a67565b90506000876001600160a01b031663c54dc3d66040518163ffffffff1660e01b8152600401602060405180830381865afa158015610c0a573d6000803e3d6000fd5b505050506040513d601f19601f82011682018060405250810190610c2e9190612a67565b9050610c9160405180610140016040528060006001600160a01b0316815260200160008152602001600015158152602001600081526020016000815260200160008152602001600081526020016000815260200160008152602001600081525090565b6001600160a01b03808a1682528715156040808401919091526000602084015280516343a4b4a560e11b8152815192861692638749694a926004808401939192918290030181865afa158015610ceb573d6000803e3d6000fd5b505050506040513d601f19601f82011682018060405250810190610d0f9190612aad565b61010083015260e082015260035460405162b29b4b60e61b81526001600160a01b038a8116600483015290911690632ca6d2c0906024016040805180830381865afa158015610d62573d6000803e3d6000fd5b505050506040513d601f19601f82011682018060405250810190610d869190612aad565b60c083015260a082015260035460408051630799f55f60e01b815281516001600160a01b0390931692630799f55f926004808401939192918290030181865afa158015610dd7573d6000803e3d6000fd5b505050506040513d601f19601f82011682018060405250810190610dfb9190612aad565b8260600183608001828152508281525050506000896001600160a01b031663b2016bd46040518163ffffffff1660e01b8152600401602060405180830381865afa158015610e4d573d6000803e3d6000fd5b505050506040513d601f19601f82011682018060405250810190610e719190612a67565b9050610f54600460009054906101000a90046001600160a01b03166001600160a01b0316636dc7b0a16040518163ffffffff1660e01b8152600401602060405180830381865afa158015610ec9573d6000803e3d6000fd5b505050506040513d601f19601f82011682018060405250810190610eed9190612a84565b826001600160a01b031663313ce5676040518163ffffffff1660e01b8152600401602060405180830381865afa158015610f2b573d6000803e3d6000fd5b505050506040513d601f19601f82011682018060405250810190610f4f9190612ad1565b612296565b610120830152604051638050e32f60e01b81526001600160a01b03841690638050e32f90610f86908590600401612af4565b602060405180830381865afa158015610fa3573d6000803e3d6000fd5b505050506040513d601f19601f82011682018060405250810190610fc79190612a84565b9a9950505050505050505050565b60606001600160a01b0382166112ac5760055460408051637616480b60e11b815290516000926001600160a01b03169163ec2c901691600480830192869291908290030181865afa15801561102e573d6000803e3d6000fd5b505050506040513d6000823e601f3d908101601f191682016040526110569190810190612c37565b905060008080805b84518110156111205784818151811061107957611079612db1565b6020908102919091018101510151604051631f75a98760e11b81526001600160a01b038a81166004830152919550600091861690633eeb530e90602401600060405180830381865afa1580156110d3573d6000803e3d6000fd5b505050506040513d6000823e601f3d908101601f191682016040526110fb9190810190612eab565b905080518361110a9190612f5c565b925050808061111890612f6f565b91505061105e565b508060000361113257505050506103ba565b8067ffffffffffffffff81111561114b5761114b612b74565b60405190808252806020026020018201604052801561118457816020015b61117161254d565b8152602001906001900390816111695790505b50945060005b84518110156112a2578481815181106111a5576111a5612db1565b6020908102919091018101510151604051631f75a98760e11b81526001600160a01b038a81166004830152919550600091861690633eeb530e90602401600060405180830381865afa1580156111ff573d6000803e3d6000fd5b505050506040513d6000823e601f3d908101601f191682016040526112279190810190612eab565b905060005b815181101561128d5781818151811061124757611247612db1565b602002602001015188868151811061126157611261612db1565b6020026020010181905250848061127790612f6f565b955050808061128590612f6f565b91505061122c565b5050808061129a90612f6f565b91505061118a565b50505050506103ba565b604051631f75a98760e11b81526001600160a01b038481166004830152831690633eeb530e90602401600060405180830381865afa1580156112f2573d6000803e3d6000fd5b505050506040513d6000823e601f3d908101601f1916820160405261083d9190810190612eab565b6000611325816120f7565b6113306000836122c3565b61133982612244565b6108ed600033612185565b7f8d1089725c0dc266707fa6207730fb801dcd03108bfed7a21099bd303651d2b7610158816120f7565b600080836001600160a01b031663ac0b05a66040518163ffffffff1660e01b8152600401602060405180830381865afa1580156113af573d6000803e3d6000fd5b505050506040513d601f19601f820116820180604052508101906113d39190612a67565b90506113dd61254d565b60405163bc95baad60e01b81526001600160a01b03878116600483015260006024830152851515604483015283169063bc95baad9060640161018060405180830381865afa158015611433573d6000803e3d6000fd5b505050506040513d601f19601f820116820180604052508101906114579190612f88565b90506000856001600160a01b031663f29ebf616040518163ffffffff1660e01b8152600401602060405180830381865afa158015611499573d6000803e3d6000fd5b505050506040513d601f19601f820116820180604052508101906114bd9190612a67565b604080516101e081018252600080825281830181905260608083018290526080830182905260a080840183905260c0840183905260e08401839052610100840183905261012084018390526101408401839052610160840183905261018084018381526101a085018490526101c08501929092528a1515602085015287015190526001600160a01b038a811683529251634151026360e01b8152939450909290918416906341510263906115779085908890600401612fe0565b600060405180830381865afa158015611594573d6000803e3d6000fd5b505050506040513d6000823e601f3d908101601f191682016040526115bc91908101906130e8565b9050806002815181106115d1576115d1612db1565b6020026020010151955050505050509392505050565b6000918252602082815260408084206001600160a01b0393909316845291905290205460ff1690565b7f241ecf16d79d0f8dbfb92cbc07fe17840425976cf0667f022fe9877caa831b08600061163d81336115e7565b9050801561169a5762015180600254426116579190613179565b106116955760405162461bcd60e51b815260206004820152600e60248201526d1858c81d1a5b59481c185cdcd95960921b60448201526064016108da565b6116a4565b6116a482336122cd565b6116ae8484612101565b50505050565b611707604051806101200160405280600081526020016000815260200160008152602001600081526020016000815260200160008152602001600081526020016000151581526020016000151581525090565b6040805161014081018252600080825260208201819052918101829052606081018290526080810182905260a0810182905260c0810182905260e08101829052610100810182905261012081019190915261178a6040518060a0016040528060008152602001600081526020016000815260200160008152602001600081525090565b60008490506000816001600160a01b031663f29ebf616040518163ffffffff1660e01b8152600401602060405180830381865afa1580156117cf573d6000803e3d6000fd5b505050506040513d601f19601f820116820180604052508101906117f39190612a67565b90506000826001600160a01b031663b894300d6040518163ffffffff1660e01b8152600401602060405180830381865afa158015611835573d6000803e3d6000fd5b505050506040513d601f19601f820116820180604052508101906118599190612a67565b90506000816001600160a01b031663177927296040518163ffffffff1660e01b8152600401602060405180830381865afa15801561189b573d6000803e3d6000fd5b505050506040513d601f19601f820116820180604052508101906118bf919061318c565b90506040518061012001604052806118d98351610fff1690565b81528251602090910190600c1c610fff1681526020016118fa612710612326565b8152825160181c610fff9081166020830152835160241c1660408201526060016119238361234b565b815260200161193183612369565b81526020016119468351600f606c1b16151590565b1515815260200161195d8351600f60681b16151590565b15158152509650604051806101400160405280856001600160a01b031663e84254676040518163ffffffff1660e01b8152600401602060405180830381865afa1580156119ae573d6000803e3d6000fd5b505050506040513d601f19601f820116820180604052508101906119d29190612ad1565b60ff168152602001846001600160a01b031663d87780688b60016040518363ffffffff1660e01b8152600401611a099291906131ce565b602060405180830381865afa158015611a26573d6000803e3d6000fd5b505050506040513d601f19601f82011682018060405250810190611a4a9190612a84565b8152602001846001600160a01b031663d87780688b60006040518363ffffffff1660e01b8152600401611a7e9291906131ce565b602060405180830381865afa158015611a9b573d6000803e3d6000fd5b505050506040513d601f19601f82011682018060405250810190611abf9190612a84565b8152602001846001600160a01b031663d87780688b60046040518363ffffffff1660e01b8152600401611af39291906131ce565b602060405180830381865afa158015611b10573d6000803e3d6000fd5b505050506040513d601f19601f82011682018060405250810190611b349190612a84565b815260200160008152602001856001600160a01b031663e7d015f26040518163ffffffff1660e01b8152600401602060405180830381865afa158015611b7e573d6000803e3d6000fd5b505050506040513d601f19601f82011682018060405250810190611ba29190612a67565b6001600160a01b03168152602001856001600160a01b031663b2016bd46040518163ffffffff1660e01b8152600401602060405180830381865afa158015611bee573d6000803e3d6000fd5b505050506040513d601f19601f82011682018060405250810190611c129190612a67565b6001600160a01b03168152602001856001600160a01b0316637b2fd1e56040518163ffffffff1660e01b8152600401602060405180830381865afa158015611c5e573d6000803e3d6000fd5b505050506040513d601f19601f82011682018060405250810190611c829190612a67565b6001600160a01b03168152602001856001600160a01b03166305ba9ae96040518163ffffffff1660e01b8152600401602060405180830381865afa158015611cce573d6000803e3d6000fd5b505050506040513d601f19601f82011682018060405250810190611cf29190612a67565b6001600160a01b03168152602001856001600160a01b031663ac0b05a66040518163ffffffff1660e01b8152600401602060405180830381865afa158015611d3e573d6000803e3d6000fd5b505050506040513d601f19601f82011682018060405250810190611d629190612a67565b6001600160a01b039081169091526040805160a0810191829052631b0ef00d60e31b9091529197508190851663d8778068611da28c600160a486016131ce565b602060405180830381865afa158015611dbf573d6000803e3d6000fd5b505050506040513d601f19601f82011682018060405250810190611de39190612a84565b8152602001846001600160a01b031663d87780688b60006040518363ffffffff1660e01b8152600401611e179291906131ce565b602060405180830381865afa158015611e34573d6000803e3d6000fd5b505050506040513d601f19601f82011682018060405250810190611e589190612a84565b8152602001846001600160a01b031663d87780688b60036040518363ffffffff1660e01b8152600401611e8c9291906131ce565b602060405180830381865afa158015611ea9573d6000803e3d6000fd5b505050506040513d601f19601f82011682018060405250810190611ecd9190612a84565b8152602001846001600160a01b031663d87780688b60046040518363ffffffff1660e01b8152600401611f019291906131ce565b602060405180830381865afa158015611f1e573d6000803e3d6000fd5b505050506040513d601f19601f82011682018060405250810190611f429190612a84565b8152602001611fb1856001600160a01b031663f4ca4d1d6040518163ffffffff1660e01b8152600401602060405180830381865afa158015611f88573d6000803e3d6000fd5b505050506040513d601f19601f82011682018060405250810190611fac9190612a84565b612326565b905296989597505050505050565b600082815260208190526040902060010154611fda816120f7565b6108698383612185565b60055460408051637616480b60e11b815290516060926001600160a01b03169163ec2c90169160048083019260009291908290030181865afa15801561202e573d6000803e3d6000fd5b505050506040513d6000823e601f3d908101601f191682016040526120569190810190612c37565b905090565b6120636121ea565b6001600160a01b0381166120c85760405162461bcd60e51b815260206004820152602660248201527f4f776e61626c653a206e6577206f776e657220697320746865207a65726f206160448201526564647265737360d01b60648201526084016108da565b6120d181612244565b50565b426002556120e133612244565b6120ec6000336122c3565b6120d16000826122c3565b6120d181336122cd565b61210b82826115e7565b6108ed576000828152602081815260408083206001600160a01b03851684529091529020805460ff191660011790556121413390565b6001600160a01b0316816001600160a01b0316837f2f8788117e7eff1d82e926ec794901d17c78024a50270940304540a733656f0d60405160405180910390a45050565b61218f82826115e7565b156108ed576000828152602081815260408083206001600160a01b0385168085529252808320805460ff1916905551339285917ff6391f5c32d9c69d2a47ea670b442974b53935d1edc7fd64eb21e047a839171b9190a45050565b6001546001600160a01b03163314610a825760405162461bcd60e51b815260206004820181905260248201527f4f776e61626c653a2063616c6c6572206973206e6f7420746865206f776e657260448201526064016108da565b600180546001600160a01b038381166001600160a01b0319831681179093556040519116919082907f8be0079c531659141344cd1fd0a4f28419497f9722a3daafe3b4186f6b6457e090600090a35050565b60006122a382600a6132ce565b6122af6012600a6132dd565b6122b990856132e9565b61083d9190613300565b6108ed8282612101565b6122d782826115e7565b6108ed576122e481612389565b6122ef83602061239b565b604051602001612300929190613322565b60408051601f198184030181529082905262461bcd60e51b82526108da91600401613397565b600060015b60019091019061233c600a826132e9565b905082810361232b5750919050565b600061235682612537565b82516103ba9190603c1c610fff166132e9565b600061237482612537565b82516103ba919060481c63ffffffff166132e9565b60606103ba6001600160a01b03831660145b606060006123aa8360026132e9565b6123b5906002612f5c565b67ffffffffffffffff8111156123cd576123cd612b74565b6040519080825280601f01601f1916602001820160405280156123f7576020820181803683370190505b509050600360fc1b8160008151811061241257612412612db1565b60200101906001600160f81b031916908160001a905350600f60fb1b8160018151811061244157612441612db1565b60200101906001600160f81b031916908160001a90535060006124658460026132e9565b612470906001612f5c565b90505b60018111156124e8576f181899199a1a9b1b9c1cb0b131b232b360811b85600f16601081106124a4576124a4612db1565b1a60f81b8282815181106124ba576124ba612db1565b60200101906001600160f81b031916908160001a90535060049490941c936124e1816133aa565b9050612473565b50831561083d5760405162461bcd60e51b815260206004820181905260248201527f537472696e67733a20686578206c656e67746820696e73756666696369656e7460448201526064016108da565b80516000906103ba9060701c60ff16600a6132dd565b60405180610180016040528060006001600160a01b03168152602001600015158152602001600063ffffffff16815260200160006001600160d81b0316815260200160008152602001600081526020016000815260200160008152602001600081526020016000815260200160008152602001600081525090565b6000602082840312156125da57600080fd5b81356001600160e01b03198116811461083d57600080fd5b6001600160a01b03811681146120d157600080fd5b80151581146120d157600080fd5b6000806040838503121561262857600080fd5b8235612633816125f2565b9150602083013561264381612607565b809150509250929050565b60008060006060848603121561266357600080fd5b833561266e816125f2565b9250602084013561267e816125f2565b9150604084013561268e81612607565b809150509250925092565b6000602082840312156126ab57600080fd5b5035919050565b600080604083850312156126c557600080fd5b823591506020830135612643816125f2565b600080604083850312156126ea57600080fd5b82356126f5816125f2565b91506020830135612643816125f2565b80516001600160a01b031682526020810151612725602084018215159052565b50604081015161273d604084018263ffffffff169052565b50606081015161275860608401826001600160d81b03169052565b506080818101519083015260a0808201519083015260c0808201519083015260e0808201519083015261010080820151908301526101208082015190830152610140808201519083015261016090810151910152565b6020808252825182820181905260009190848201906040850190845b818110156127f1576127dd838551612705565b9284019261018092909201916001016127ca565b50909695505050505050565b60006020828403121561280f57600080fd5b813561083d816125f2565b805182526020810151602083015260408101516040830152606081015160608301526080810151608083015260a081015161286060a08401826001600160a01b03169052565b5060c081015161287b60c08401826001600160a01b03169052565b5060e081015161289660e08401826001600160a01b03169052565b50610100818101516001600160a01b038116848301525050610120818101516001600160a01b038116848301526116ae565b600061030082019050845182526020850151602083015260408501516040830152606085015160608301526080850151608083015260a085015160a083015260c085015160c083015260e0850151151560e0830152610100808601511515818401525061293961012083018561281a565b8251610260830152602083015161028083015260408301516102a083015260608301516102c083015260808301516102e0830152949350505050565b60005b83811015612990578181015183820152602001612978565b50506000910152565b600081518084526129b1816020860160208601612975565b601f01601f19169290920160200192915050565b60006020808301818452808551808352604092508286019150828160051b87010184880160005b83811015612a5957603f19898403018552815160a08151818652612a1282870182612999565b838b01516001600160a01b0316878c0152898401518a88015260608085015115159088015260809384015115159390960192909252505093860193908601906001016129ec565b509098975050505050505050565b600060208284031215612a7957600080fd5b815161083d816125f2565b600060208284031215612a9657600080fd5b5051919050565b8051612aa8816125f2565b919050565b60008060408385031215612ac057600080fd5b505080516020909101519092909150565b600060208284031215612ae357600080fd5b815160ff8116811461083d57600080fd5b81516001600160a01b031681526101408101602083015160208301526040830151612b23604084018215159052565b50606083015160608301526080830151608083015260a083015160a083015260c083015160c083015260e083015160e083015261010080840151818401525061012080840151818401525092915050565b634e487b7160e01b600052604160045260246000fd5b60405160a0810167ffffffffffffffff81118282101715612bad57612bad612b74565b60405290565b604051610180810167ffffffffffffffff81118282101715612bad57612bad612b74565b604051601f8201601f1916810167ffffffffffffffff81118282101715612c0057612c00612b74565b604052919050565b600067ffffffffffffffff821115612c2257612c22612b74565b5060051b60200190565b8051612aa881612607565b60006020808385031215612c4a57600080fd5b825167ffffffffffffffff80821115612c6257600080fd5b818501915085601f830112612c7657600080fd5b8151612c89612c8482612c08565b612bd7565b81815260059190911b83018401908481019088831115612ca857600080fd5b8585015b83811015612da457805185811115612cc357600080fd5b8601601f1960a0828d0382011215612cdb5760008081fd5b612ce3612b8a565b8983015188811115612cf55760008081fd5b8301603f81018e13612d075760008081fd5b8a81015160408a821115612d1d57612d1d612b74565b612d2d8d86601f85011601612bd7565b94508185528f81838501011115612d445760008081fd5b612d53828e8701838601612975565b848452612d61818701612a9d565b8d8501526060945084860151818501525050506080612d81818501612c2c565b83830152612d9160a08501612c2c565b9082015285525050918601918601612cac565b5098975050505050505050565b634e487b7160e01b600052603260045260246000fd5b805163ffffffff81168114612aa857600080fd5b80516001600160d81b0381168114612aa857600080fd5b60006101808284031215612e0557600080fd5b612e0d612bb3565b9050612e1882612a9d565b8152612e2660208301612c2c565b6020820152612e3760408301612dc7565b6040820152612e4860608301612ddb565b60608201526080820151608082015260a082015160a082015260c082015160c082015260e082015160e082015261010080830151818301525061012080830151818301525061014080830151818301525061016080830151818301525092915050565b60006020808385031215612ebe57600080fd5b825167ffffffffffffffff811115612ed557600080fd5b8301601f81018513612ee657600080fd5b8051612ef4612c8482612c08565b8181526101809182028301840191848201919088841115612f1457600080fd5b938501935b83851015612f3a57612f2b8986612df2565b83529384019391850191612f19565b50979650505050505050565b634e487b7160e01b600052601160045260246000fd5b808201808211156103ba576103ba612f46565b600060018201612f8157612f81612f46565b5060010190565b60006101808284031215612f9b57600080fd5b61083d8383612df2565b600081518084526020808501945080840160005b83811015612fd557815187529582019590820190600101612fb9565b509495945050505050565b60006101a0808352612ffd81840186516001600160a01b03169052565b60208501516101c06130128186018315159052565b60408701516101e0868101919091526060880151151561020087015260808801516001600160a01b031661022087015260a088015161024087015260c088015161026087015260e088015161028087015261010088015115156102a087015261012088015160ff9081166102c088015261014089015167ffffffffffffffff166102e088015261016089015161030088015261018089015161032088015293880151909316610340860152860151610360850192909252506130d8610380840182612fa5565b91505061083d6020830184612705565b600060208083850312156130fb57600080fd5b825167ffffffffffffffff81111561311257600080fd5b8301601f8101851361312357600080fd5b8051613131612c8482612c08565b81815260059190911b8201830190838101908783111561315057600080fd5b928401925b8284101561316e57835182529284019290840190613155565b979650505050505050565b818103818111156103ba576103ba612f46565b60006020828403121561319e57600080fd5b6040516020810181811067ffffffffffffffff821117156131c1576131c1612b74565b6040529151825250919050565b6001600160a01b0392909216825260ff16602082015260400190565b600181815b8085111561322557816000190482111561320b5761320b612f46565b8085161561321857918102915b93841c93908002906131ef565b509250929050565b60008261323c575060016103ba565b81613249575060006103ba565b816001811461325f576002811461326957613285565b60019150506103ba565b60ff84111561327a5761327a612f46565b50506001821b6103ba565b5060208310610133831016604e8410600b84101617156132a8575081810a6103ba565b6132b283836131ea565b80600019048211156132c6576132c6612f46565b029392505050565b600061083d60ff84168361322d565b600061083d838361322d565b80820281158282048414176103ba576103ba612f46565b60008261331d57634e487b7160e01b600052601260045260246000fd5b500490565b7f416363657373436f6e74726f6c3a206163636f756e742000000000000000000081526000835161335a816017850160208801612975565b7001034b99036b4b9b9b4b733903937b6329607d1b601791840191820152835161338b816028840160208801612975565b01602801949350505050565b60208152600061083d6020830184612999565b6000816133b9576133b9612f46565b50600019019056fea2646970667358221220071088339d3d261b14fe24e0663b4ddf562d210fba0414cbf8ca325da86b00e764736f6c63430008110033",
  "linkReferences": {},
  "deployedLinkReferences": {}
}