{
    "_format": "hh-sol-artifact-1",
    "contractName": "MarketReader",
    "sourceName": "contracts/market/MarketReader.sol",
    "abi": [
        {
            "inputs": [
                {
                    "internalType": "address",
                    "name": "_f",
                    "type": "address"
                }
            ],
            "stateMutability": "nonpayable",
            "type": "constructor"
        },
        {
            "anonymous": false,
            "inputs": [
                {
                    "indexed": false,
                    "internalType": "uint8",
                    "name": "version",
                    "type": "uint8"
                }
            ],
            "name": "Initialized",
            "type": "event"
        },
        {
            "inputs": [],
            "name": "DEFAULT_ADMIN_ROLE",
            "outputs": [
                {
                    "internalType": "bytes32",
                    "name": "",
                    "type": "bytes32"
                }
            ],
            "stateMutability": "view",
            "type": "function"
        },
        {
            "inputs": [
                {
                    "internalType": "address",
                    "name": "newOwner",
                    "type": "address"
                }
            ],
            "name": "_transferOwnership",
            "outputs": [],
            "stateMutability": "pure",
            "type": "function"
        },
        {
            "inputs": [
                {
                    "internalType": "address",
                    "name": "market",
                    "type": "address"
                },
                {
                    "internalType": "address",
                    "name": "account",
                    "type": "address"
                },
                {
                    "internalType": "bool",
                    "name": "isLong",
                    "type": "bool"
                }
            ],
            "name": "availableLiquidity",
            "outputs": [
                {
                    "internalType": "uint256",
                    "name": "",
                    "type": "uint256"
                }
            ],
            "stateMutability": "view",
            "type": "function"
        },
        {
            "inputs": [],
            "name": "fac",
            "outputs": [
                {
                    "internalType": "contract IMarketFactory",
                    "name": "",
                    "type": "address"
                }
            ],
            "stateMutability": "view",
            "type": "function"
        },
        {
            "inputs": [
                {
                    "internalType": "address",
                    "name": "account",
                    "type": "address"
                },
                {
                    "internalType": "address",
                    "name": "market",
                    "type": "address"
                },
                {
                    "internalType": "bool",
                    "name": "isLong",
                    "type": "bool"
                }
            ],
            "name": "getFundingFee",
            "outputs": [
                {
                    "internalType": "int256",
                    "name": "",
                    "type": "int256"
                }
            ],
            "stateMutability": "view",
            "type": "function"
        },
        {
            "inputs": [
                {
                    "internalType": "address",
                    "name": "_market",
                    "type": "address"
                },
                {
                    "internalType": "bool",
                    "name": "_isLong",
                    "type": "bool"
                }
            ],
            "name": "getFundingRate",
            "outputs": [
                {
                    "internalType": "int256",
                    "name": "",
                    "type": "int256"
                },
                {
                    "internalType": "int256",
                    "name": "",
                    "type": "int256"
                }
            ],
            "stateMutability": "view",
            "type": "function"
        },
        {
            "inputs": [
                {
                    "internalType": "address",
                    "name": "_marketAddr",
                    "type": "address"
                }
            ],
            "name": "getMarket",
            "outputs": [
                {
                    "components": [
                        {
                            "internalType": "uint256",
                            "name": "minSlippage",
                            "type": "uint256"
                        },
                        {
                            "internalType": "uint256",
                            "name": "maxSlippage",
                            "type": "uint256"
                        },
                        {
                            "internalType": "uint256",
                            "name": "slippageDigits",
                            "type": "uint256"
                        },
                        {
                            "internalType": "uint256",
                            "name": "minLev",
                            "type": "uint256"
                        },
                        {
                            "internalType": "uint256",
                            "name": "maxLev",
                            "type": "uint256"
                        },
                        {
                            "internalType": "uint256",
                            "name": "minCollateral",
                            "type": "uint256"
                        },
                        {
                            "internalType": "uint256",
                            "name": "maxTradeAmount",
                            "type": "uint256"
                        },
                        {
                            "internalType": "bool",
                            "name": "allowOpen",
                            "type": "bool"
                        },
                        {
                            "internalType": "bool",
                            "name": "allowClose",
                            "type": "bool"
                        }
                    ],
                    "internalType": "struct IMarketReader.ValidOuts",
                    "name": "validOuts",
                    "type": "tuple"
                },
                {
                    "components": [
                        {
                            "internalType": "uint256",
                            "name": "tokenDigits",
                            "type": "uint256"
                        },
                        {
                            "internalType": "uint256",
                            "name": "closeFeeRate",
                            "type": "uint256"
                        },
                        {
                            "internalType": "uint256",
                            "name": "openFeeRate",
                            "type": "uint256"
                        },
                        {
                            "internalType": "uint256",
                            "name": "liquidationFeeUsd",
                            "type": "uint256"
                        },
                        {
                            "internalType": "uint256",
                            "name": "spread",
                            "type": "uint256"
                        },
                        {
                            "internalType": "address",
                            "name": "indexToken",
                            "type": "address"
                        },
                        {
                            "internalType": "address",
                            "name": "collateralToken",
                            "type": "address"
                        },
                        {
                            "internalType": "address",
                            "name": "orderBookLong",
                            "type": "address"
                        },
                        {
                            "internalType": "address",
                            "name": "orderBookShort",
                            "type": "address"
                        },
                        {
                            "internalType": "address",
                            "name": "positionBook",
                            "type": "address"
                        }
                    ],
                    "internalType": "struct IMarketReader.MarketOuts",
                    "name": "mktOuts",
                    "type": "tuple"
                },
                {
                    "components": [
                        {
                            "internalType": "uint256",
                            "name": "closeFeeRate",
                            "type": "uint256"
                        },
                        {
                            "internalType": "uint256",
                            "name": "openFeeRate",
                            "type": "uint256"
                        },
                        {
                            "internalType": "uint256",
                            "name": "execFee",
                            "type": "uint256"
                        },
                        {
                            "internalType": "uint256",
                            "name": "liquidateFee",
                            "type": "uint256"
                        },
                        {
                            "internalType": "uint256",
                            "name": "digits",
                            "type": "uint256"
                        }
                    ],
                    "internalType": "struct IMarketReader.FeeOuts",
                    "name": "feeOuts",
                    "type": "tuple"
                }
            ],
            "stateMutability": "view",
            "type": "function"
        },
        {
            "inputs": [],
            "name": "getMarkets",
            "outputs": [
                {
                    "components": [
                        {
                            "internalType": "string",
                            "name": "name",
                            "type": "string"
                        },
                        {
                            "internalType": "address",
                            "name": "addr",
                            "type": "address"
                        },
                        {
                            "internalType": "uint256",
                            "name": "minPay",
                            "type": "uint256"
                        },
                        {
                            "internalType": "bool",
                            "name": "allowOpen",
                            "type": "bool"
                        },
                        {
                            "internalType": "bool",
                            "name": "allowClose",
                            "type": "bool"
                        }
                    ],
                    "internalType": "struct IMarketFactory.Outs[]",
                    "name": "_outs",
                    "type": "tuple[]"
                }
            ],
            "stateMutability": "view",
            "type": "function"
        },
        {
            "inputs": [
                {
                    "internalType": "address",
                    "name": "account",
                    "type": "address"
                },
                {
                    "internalType": "address",
                    "name": "market",
                    "type": "address"
                }
            ],
            "name": "getPositions",
            "outputs": [
                {
                    "components": [
                        {
                            "internalType": "address",
                            "name": "market",
                            "type": "address"
                        },
                        {
                            "internalType": "bool",
                            "name": "isLong",
                            "type": "bool"
                        },
                        {
                            "internalType": "uint32",
                            "name": "lastTime",
                            "type": "uint32"
                        },
                        {
                            "internalType": "uint216",
                            "name": "extra3",
                            "type": "uint216"
                        },
                        {
                            "internalType": "uint256",
                            "name": "size",
                            "type": "uint256"
                        },
                        {
                            "internalType": "uint256",
                            "name": "collateral",
                            "type": "uint256"
                        },
                        {
                            "internalType": "uint256",
                            "name": "averagePrice",
                            "type": "uint256"
                        },
                        {
                            "internalType": "int256",
                            "name": "entryFundingRate",
                            "type": "int256"
                        },
                        {
                            "internalType": "int256",
                            "name": "realisedPnl",
                            "type": "int256"
                        },
                        {
                            "internalType": "uint256",
                            "name": "extra0",
                            "type": "uint256"
                        },
                        {
                            "internalType": "uint256",
                            "name": "extra1",
                            "type": "uint256"
                        },
                        {
                            "internalType": "uint256",
                            "name": "extra2",
                            "type": "uint256"
                        }
                    ],
                    "internalType": "struct Position.Props[]",
                    "name": "_positions",
                    "type": "tuple[]"
                }
            ],
            "stateMutability": "view",
            "type": "function"
        },
        {
            "inputs": [
                {
                    "internalType": "address",
                    "name": "_account",
                    "type": "address"
                }
            ],
            "name": "grantControllerRoleByMarketManager",
            "outputs": [],
            "stateMutability": "nonpayable",
            "type": "function"
        },
        {
            "inputs": [
                {
                    "internalType": "bytes32",
                    "name": "role",
                    "type": "bytes32"
                },
                {
                    "internalType": "address",
                    "name": "account",
                    "type": "address"
                }
            ],
            "name": "grantRole",
            "outputs": [],
            "stateMutability": "pure",
            "type": "function"
        },
        {
            "inputs": [
                {
                    "internalType": "bytes32",
                    "name": "role",
                    "type": "bytes32"
                },
                {
                    "internalType": "address",
                    "name": "account",
                    "type": "address"
                }
            ],
            "name": "hasRole",
            "outputs": [
                {
                    "internalType": "bool",
                    "name": "",
                    "type": "bool"
                }
            ],
            "stateMutability": "pure",
            "type": "function"
        },
        {
            "inputs": [
                {
                    "internalType": "address",
                    "name": "_marketRouter",
                    "type": "address"
                },
                {
                    "internalType": "address",
                    "name": "_vaultRouter",
                    "type": "address"
                }
            ],
            "name": "initialize",
            "outputs": [],
            "stateMutability": "nonpayable",
            "type": "function"
        },
        {
            "inputs": [
                {
                    "internalType": "address",
                    "name": "market",
                    "type": "address"
                },
                {
                    "internalType": "address",
                    "name": "_account",
                    "type": "address"
                },
                {
                    "internalType": "bool",
                    "name": "_isLong",
                    "type": "bool"
                }
            ],
            "name": "isLiquidate",
            "outputs": [
                {
                    "internalType": "uint256",
                    "name": "_state",
                    "type": "uint256"
                }
            ],
            "stateMutability": "view",
            "type": "function"
        },
        {
            "inputs": [],
            "name": "marketRouter",
            "outputs": [
                {
                    "internalType": "contract IMarketRouter",
                    "name": "",
                    "type": "address"
                }
            ],
            "stateMutability": "view",
            "type": "function"
        },
        {
            "inputs": [
                {
                    "internalType": "bytes32",
                    "name": "role",
                    "type": "bytes32"
                },
                {
                    "internalType": "address",
                    "name": "account",
                    "type": "address"
                }
            ],
            "name": "revokeRole",
            "outputs": [],
            "stateMutability": "pure",
            "type": "function"
        },
        {
            "inputs": [
                {
                    "internalType": "address",
                    "name": "to",
                    "type": "address"
                }
            ],
            "name": "transferAdmin",
            "outputs": [],
            "stateMutability": "nonpayable",
            "type": "function"
        },
        {
            "inputs": [
                {
                    "internalType": "address",
                    "name": "newOwner",
                    "type": "address"
                }
            ],
            "name": "transferOwnership",
            "outputs": [],
            "stateMutability": "pure",
            "type": "function"
        },
        {
            "inputs": [],
            "name": "vaultRouter",
            "outputs": [
                {
                    "internalType": "contract IVaultRouter",
                    "name": "",
                    "type": "address"
                }
            ],
            "stateMutability": "view",
            "type": "function"
        }
    ],
    "bytecode": "0x60806040523480156200001157600080fd5b5060405162002c7838038062002c78833981016040819052620000349162000081565b806200004b816200007260201b62001d6e1760201c565b50600480546001600160a01b0319166001600160a01b0392909216919091179055620000b3565b426001556200007e3381565b50565b6000602082840312156200009457600080fd5b81516001600160a01b0381168114620000ac57600080fd5b9392505050565b612bb580620000c36000396000f3fe608060405234801561001057600080fd5b50600436106101215760003560e01c806391d14854116100ad578063d37c441c11610071578063d37c441c1461027f578063d4dfadbf14610292578063d547741f14610174578063ec2c9016146102b4578063f2fde38b1461026e57600080fd5b806391d1485414610202578063a217fddf14610228578063c3b3147214610230578063d12dbde41461025b578063d29d44ee1461026e57600080fd5b8063735a2885116100f4578063735a28851461019b578063739118a4146101ae57806375829def146101ce5780637fe4a698146101e1578063889be285146101ef57600080fd5b806320981df41461012657806323961001146101535780632f2ff15d14610174578063485cc95514610188575b600080fd5b610139610134366004611eb9565b6102c9565b604080519283526020830191909152015b60405180910390f35b610166610161366004611ef2565b61042e565b60405190815260200161014a565b610186610182366004611f3d565b5050565b005b610186610196366004611f62565b61074d565b6101666101a9366004611ef2565b6108b2565b6101c16101bc366004611f62565b610e03565b60405161014a9190612039565b6101866101dc366004612088565b61115d565b610186610121366004612088565b6101666101fd366004611ef2565b611168565b610218610210366004611f3d565b600192915050565b604051901515815260200161014a565b610166600081565b600454610243906001600160a01b031681565b6040516001600160a01b03909116815260200161014a565b600254610243906001600160a01b031681565b61018661027c366004612088565b50565b600354610243906001600160a01b031681565b6102a56102a0366004612088565b6113e1565b60405161014a93929190612148565b6102bc611cec565b60405161014a9190612219565b6000806000846001600160a01b031663f29ebf616040518163ffffffff1660e01b8152600401602060405180830381865afa15801561030c573d6000803e3d6000fd5b505050506040513d601f19601f8201168201806040525081019061033091906122d7565b604051630826077d60e21b81526001600160a01b03878116600483015286151560248301529192506000918316906320981df490604401602060405180830381865afa158015610384573d6000803e3d6000fd5b505050506040513d601f19601f820116820180604052508101906103a891906122f4565b6040516334f32e2560e01b81526001600160a01b03888116600483015287151560248301529192506000918416906334f32e2590604401602060405180830381865afa1580156103fc573d6000803e3d6000fd5b505050506040513d601f19601f8201168201806040525081019061042091906122f4565b919791965090945050505050565b6000808490506000816001600160a01b031663b894300d6040518163ffffffff1660e01b8152600401602060405180830381865afa158015610474573d6000803e3d6000fd5b505050506040513d601f19601f8201168201806040525081019061049891906122d7565b9050806001600160a01b0316631f21756a868887866001600160a01b031663ac0b05a66040518163ffffffff1660e01b8152600401602060405180830381865afa1580156104ea573d6000803e3d6000fd5b505050506040513d601f19601f8201168201806040525081019061050e91906122d7565b876001600160a01b031663f29ebf616040518163ffffffff1660e01b8152600401602060405180830381865afa15801561054c573d6000803e3d6000fd5b505050506040513d601f19601f8201168201806040525081019061057091906122d7565b886001600160a01b031663741bef1a6040518163ffffffff1660e01b8152600401602060405180830381865afa1580156105ae573d6000803e3d6000fd5b505050506040513d601f19601f820116820180604052508101906105d291906122d7565b6001600160a01b03166376d697608a6001600160a01b031663e7d015f26040518163ffffffff1660e01b8152600401602060405180830381865afa15801561061e573d6000803e3d6000fd5b505050506040513d601f19601f8201168201806040525081019061064291906122d7565b6040516001600160e01b031960e084901b1681526001600160a01b0390911660048201528d156024820152604401602060405180830381865afa15801561068d573d6000803e3d6000fd5b505050506040513d601f19601f820116820180604052508101906106b191906122f4565b60405160e088901b6001600160e01b03191681526001600160a01b039687166004820152948616602486015292151560448501529084166064840152909216608482015260a481019190915260c401602060405180830381865afa15801561071d573d6000803e3d6000fd5b505050506040513d601f19601f8201168201806040525081019061074191906122f4565b925050505b9392505050565b600054610100900460ff161580801561076d5750600054600160ff909116105b806107875750303b158015610787575060005460ff166001145b6107ee5760405162461bcd60e51b815260206004820152602e60248201527f496e697469616c697a61626c653a20636f6e747261637420697320616c72656160448201526d191e481a5b9a5d1a585b1a5e995960921b606482015260840160405180910390fd5b6000805460ff191660011790558015610811576000805461ff0019166101001790555b6001600160a01b03831661082457600080fd5b6001600160a01b03821661083757600080fd5b600280546001600160a01b038086166001600160a01b031992831617909255600380549285169290911691909117905580156108ad576000805461ff0019169055604051600181527f7f26b83ff96e1f2b6a682f133852f6798a09c465da95921460cefb38474024989060200160405180910390a15b505050565b600080846001600160a01b031663d37c441c6040518163ffffffff1660e01b8152600401602060405180830381865afa1580156108f3573d6000803e3d6000fd5b505050506040513d601f19601f8201168201806040525081019061091791906122d7565b90506000816001600160a01b0316636dc7b0a16040518163ffffffff1660e01b8152600401602060405180830381865afa158015610959573d6000803e3d6000fd5b505050506040513d601f19601f8201168201806040525081019061097d91906122f4565b90506000811161099257600092505050610746565b6000866001600160a01b031663ac0b05a66040518163ffffffff1660e01b8152600401602060405180830381865afa1580156109d2573d6000803e3d6000fd5b505050506040513d601f19601f820116820180604052508101906109f691906122d7565b90506000876001600160a01b031663c54dc3d66040518163ffffffff1660e01b8152600401602060405180830381865afa158015610a38573d6000803e3d6000fd5b505050506040513d601f19601f82011682018060405250810190610a5c91906122d7565b9050610abf60405180610140016040528060006001600160a01b0316815260200160008152602001600015158152602001600081526020016000815260200160008152602001600081526020016000815260200160008152602001600081525090565b6001600160a01b03808a1682528715156040808401919091526000602084015280516343a4b4a560e11b8152815192861692638749694a926004808401939192918290030181865afa158015610b19573d6000803e3d6000fd5b505050506040513d601f19601f82011682018060405250810190610b3d919061231d565b61010083015260e082015260025460405162b29b4b60e61b81526001600160a01b038a8116600483015290911690632ca6d2c0906024016040805180830381865afa158015610b90573d6000803e3d6000fd5b505050506040513d601f19601f82011682018060405250810190610bb4919061231d565b60c083015260a082015260025460408051630799f55f60e01b815281516001600160a01b0390931692630799f55f926004808401939192918290030181865afa158015610c05573d6000803e3d6000fd5b505050506040513d601f19601f82011682018060405250810190610c29919061231d565b8260600183608001828152508281525050506000896001600160a01b031663b2016bd46040518163ffffffff1660e01b8152600401602060405180830381865afa158015610c7b573d6000803e3d6000fd5b505050506040513d601f19601f82011682018060405250810190610c9f91906122d7565b9050610d82600360009054906101000a90046001600160a01b03166001600160a01b0316636dc7b0a16040518163ffffffff1660e01b8152600401602060405180830381865afa158015610cf7573d6000803e3d6000fd5b505050506040513d601f19601f82011682018060405250810190610d1b91906122f4565b826001600160a01b031663313ce5676040518163ffffffff1660e01b8152600401602060405180830381865afa158015610d59573d6000803e3d6000fd5b505050506040513d601f19601f82011682018060405250810190610d7d9190612341565b611d75565b610120830152604051638050e32f60e01b81526001600160a01b03841690638050e32f90610db4908590600401612364565b602060405180830381865afa158015610dd1573d6000803e3d6000fd5b505050506040513d601f19601f82011682018060405250810190610df591906122f4565b9a9950505050505050505050565b60606001600160a01b0382166110e6576000600460009054906101000a90046001600160a01b03166001600160a01b031663ec2c90166040518163ffffffff1660e01b8152600401600060405180830381865afa158015610e68573d6000803e3d6000fd5b505050506040513d6000823e601f3d908101601f19168201604052610e9091908101906124a7565b905060008080805b8451811015610f5a57848181518110610eb357610eb3612621565b6020908102919091018101510151604051631f75a98760e11b81526001600160a01b038a81166004830152919550600091861690633eeb530e90602401600060405180830381865afa158015610f0d573d6000803e3d6000fd5b505050506040513d6000823e601f3d908101601f19168201604052610f35919081019061271b565b9050805183610f4491906127cc565b9250508080610f52906127df565b915050610e98565b5080600003610f6c5750505050611157565b8067ffffffffffffffff811115610f8557610f856123e4565b604051908082528060200260200182016040528015610fbe57816020015b610fab611e1b565b815260200190600190039081610fa35790505b50945060005b84518110156110dc57848181518110610fdf57610fdf612621565b6020908102919091018101510151604051631f75a98760e11b81526001600160a01b038a81166004830152919550600091861690633eeb530e90602401600060405180830381865afa158015611039573d6000803e3d6000fd5b505050506040513d6000823e601f3d908101601f19168201604052611061919081019061271b565b905060005b81518110156110c75781818151811061108157611081612621565b602002602001015188868151811061109b5761109b612621565b602002602001018190525084806110b1906127df565b95505080806110bf906127df565b915050611066565b505080806110d4906127df565b915050610fc4565b5050505050611157565b604051631f75a98760e11b81526001600160a01b038481166004830152831690633eeb530e90602401600060405180830381865afa15801561112c573d6000803e3d6000fd5b505050506040513d6000823e601f3d908101601f19168201604052611154919081019061271b565b90505b92915050565b600061018260003382565b600080836001600160a01b031663ac0b05a66040518163ffffffff1660e01b8152600401602060405180830381865afa1580156111a9573d6000803e3d6000fd5b505050506040513d601f19601f820116820180604052508101906111cd91906122d7565b90506111d7611e1b565b60405163bc95baad60e01b81526001600160a01b03878116600483015260006024830152851515604483015283169063bc95baad9060640161018060405180830381865afa15801561122d573d6000803e3d6000fd5b505050506040513d601f19601f8201168201806040525081019061125191906127f8565b90506000856001600160a01b031663f29ebf616040518163ffffffff1660e01b8152600401602060405180830381865afa158015611293573d6000803e3d6000fd5b505050506040513d601f19601f820116820180604052508101906112b791906122d7565b604080516101e081018252600080825281830181905260608083018290526080830182905260a080840183905260c0840183905260e08401839052610100840183905261012084018390526101408401839052610160840183905261018084018381526101a085018490526101c08501929092528a1515602085015287015190526001600160a01b038a811683529251634151026360e01b8152939450909290918416906341510263906113719085908890600401612850565b600060405180830381865afa15801561138e573d6000803e3d6000fd5b505050506040513d6000823e601f3d908101601f191682016040526113b69190810190612958565b9050806002815181106113cb576113cb612621565b6020026020010151955050505050509392505050565b611434604051806101200160405280600081526020016000815260200160008152602001600081526020016000815260200160008152602001600081526020016000151581526020016000151581525090565b6040805161014081018252600080825260208201819052918101829052606081018290526080810182905260a0810182905260c0810182905260e0810182905261010081018290526101208101919091526114b76040518060a0016040528060008152602001600081526020016000815260200160008152602001600081525090565b60008490506000816001600160a01b031663f29ebf616040518163ffffffff1660e01b8152600401602060405180830381865afa1580156114fc573d6000803e3d6000fd5b505050506040513d601f19601f8201168201806040525081019061152091906122d7565b90506000826001600160a01b031663b894300d6040518163ffffffff1660e01b8152600401602060405180830381865afa158015611562573d6000803e3d6000fd5b505050506040513d601f19601f8201168201806040525081019061158691906122d7565b90506000816001600160a01b031663177927296040518163ffffffff1660e01b8152600401602060405180830381865afa1580156115c8573d6000803e3d6000fd5b505050506040513d601f19601f820116820180604052508101906115ec91906129e9565b90506040518061012001604052806116068351610fff1690565b81528251602090910190600c1c610fff168152602001611627612710611da2565b8152825160181c610fff9081166020830152835160241c16604082015260600161165083611dc7565b815260200161165e83611de5565b81526020016116738351600f606c1b16151590565b1515815260200161168a8351600f60681b16151590565b15158152509650604051806101400160405280856001600160a01b031663e84254676040518163ffffffff1660e01b8152600401602060405180830381865afa1580156116db573d6000803e3d6000fd5b505050506040513d601f19601f820116820180604052508101906116ff9190612341565b60ff168152602001846001600160a01b031663d87780688b60016040518363ffffffff1660e01b8152600401611736929190612a2b565b602060405180830381865afa158015611753573d6000803e3d6000fd5b505050506040513d601f19601f8201168201806040525081019061177791906122f4565b8152602001846001600160a01b031663d87780688b60006040518363ffffffff1660e01b81526004016117ab929190612a2b565b602060405180830381865afa1580156117c8573d6000803e3d6000fd5b505050506040513d601f19601f820116820180604052508101906117ec91906122f4565b8152602001846001600160a01b031663d87780688b60046040518363ffffffff1660e01b8152600401611820929190612a2b565b602060405180830381865afa15801561183d573d6000803e3d6000fd5b505050506040513d601f19601f8201168201806040525081019061186191906122f4565b815260200160008152602001856001600160a01b031663e7d015f26040518163ffffffff1660e01b8152600401602060405180830381865afa1580156118ab573d6000803e3d6000fd5b505050506040513d601f19601f820116820180604052508101906118cf91906122d7565b6001600160a01b03168152602001856001600160a01b031663b2016bd46040518163ffffffff1660e01b8152600401602060405180830381865afa15801561191b573d6000803e3d6000fd5b505050506040513d601f19601f8201168201806040525081019061193f91906122d7565b6001600160a01b03168152602001856001600160a01b0316637b2fd1e56040518163ffffffff1660e01b8152600401602060405180830381865afa15801561198b573d6000803e3d6000fd5b505050506040513d601f19601f820116820180604052508101906119af91906122d7565b6001600160a01b03168152602001856001600160a01b03166305ba9ae96040518163ffffffff1660e01b8152600401602060405180830381865afa1580156119fb573d6000803e3d6000fd5b505050506040513d601f19601f82011682018060405250810190611a1f91906122d7565b6001600160a01b03168152602001856001600160a01b031663ac0b05a66040518163ffffffff1660e01b8152600401602060405180830381865afa158015611a6b573d6000803e3d6000fd5b505050506040513d601f19601f82011682018060405250810190611a8f91906122d7565b6001600160a01b039081169091526040805160a0810191829052631b0ef00d60e31b9091529197508190851663d8778068611acf8c600160a48601612a2b565b602060405180830381865afa158015611aec573d6000803e3d6000fd5b505050506040513d601f19601f82011682018060405250810190611b1091906122f4565b8152602001846001600160a01b031663d87780688b60006040518363ffffffff1660e01b8152600401611b44929190612a2b565b602060405180830381865afa158015611b61573d6000803e3d6000fd5b505050506040513d601f19601f82011682018060405250810190611b8591906122f4565b8152602001846001600160a01b031663d87780688b60036040518363ffffffff1660e01b8152600401611bb9929190612a2b565b602060405180830381865afa158015611bd6573d6000803e3d6000fd5b505050506040513d601f19601f82011682018060405250810190611bfa91906122f4565b8152602001846001600160a01b031663d87780688b60046040518363ffffffff1660e01b8152600401611c2e929190612a2b565b602060405180830381865afa158015611c4b573d6000803e3d6000fd5b505050506040513d601f19601f82011682018060405250810190611c6f91906122f4565b8152602001611cde856001600160a01b031663f4ca4d1d6040518163ffffffff1660e01b8152600401602060405180830381865afa158015611cb5573d6000803e3d6000fd5b505050506040513d601f19601f82011682018060405250810190611cd991906122f4565b611da2565b905296989597505050505050565b6060600460009054906101000a90046001600160a01b03166001600160a01b031663ec2c90166040518163ffffffff1660e01b8152600401600060405180830381865afa158015611d41573d6000803e3d6000fd5b505050506040513d6000823e601f3d908101601f19168201604052611d6991908101906124a7565b905090565b4260015550565b6000611d8282600a612b2b565b611d8e6012600a612b3a565b611d989085612b46565b6111549190612b5d565b600060015b600190910190611db8600a82612b46565b9050828103611da75750919050565b6000611dd282611e05565b82516111579190603c1c610fff16612b46565b6000611df082611e05565b8251611157919060481c63ffffffff16612b46565b80516000906111579060701c60ff16600a612b3a565b60405180610180016040528060006001600160a01b03168152602001600015158152602001600063ffffffff16815260200160006001600160d81b0316815260200160008152602001600081526020016000815260200160008152602001600081526020016000815260200160008152602001600081525090565b6001600160a01b038116811461027c57600080fd5b801515811461027c57600080fd5b60008060408385031215611ecc57600080fd5b8235611ed781611e96565b91506020830135611ee781611eab565b809150509250929050565b600080600060608486031215611f0757600080fd5b8335611f1281611e96565b92506020840135611f2281611e96565b91506040840135611f3281611eab565b809150509250925092565b60008060408385031215611f5057600080fd5b823591506020830135611ee781611e96565b60008060408385031215611f7557600080fd5b8235611f8081611e96565b91506020830135611ee781611e96565b80516001600160a01b031682526020810151611fb0602084018215159052565b506040810151611fc8604084018263ffffffff169052565b506060810151611fe360608401826001600160d81b03169052565b506080818101519083015260a0808201519083015260c0808201519083015260e0808201519083015261010080820151908301526101208082015190830152610140808201519083015261016090810151910152565b6020808252825182820181905260009190848201906040850190845b8181101561207c57612068838551611f90565b928401926101809290920191600101612055565b50909695505050505050565b60006020828403121561209a57600080fd5b813561074681611e96565b805182526020810151602083015260408101516040830152606081015160608301526080810151608083015260a08101516120eb60a08401826001600160a01b03169052565b5060c081015161210660c08401826001600160a01b03169052565b5060e081015161212160e08401826001600160a01b03169052565b50610100818101516001600160a01b03908116918401919091526101209182015116910152565b600061030082019050845182526020850151602083015260408501516040830152606085015160608301526080850151608083015260a085015160a083015260c085015160c083015260e0850151151560e083015261010080860151151581840152506121b96101208301856120a5565b8251610260830152602083015161028083015260408301516102a083015260608301516102c083015260808301516102e0830152949350505050565b60005b838110156122105781810151838201526020016121f8565b50506000910152565b60006020808301818452808551808352604092508286019150828160051b87010184880160005b838110156122c957603f19898403018552815160a081518186528051808388015260c09250612274818489018d85016121f5565b8a8401516001600160a01b0316878c0152898401518a8801526060808501511515908801526080938401511515938701939093525095880195601f909101601f19169093019092019190860190600101612240565b509098975050505050505050565b6000602082840312156122e957600080fd5b815161074681611e96565b60006020828403121561230657600080fd5b5051919050565b805161231881611e96565b919050565b6000806040838503121561233057600080fd5b505080516020909101519092909150565b60006020828403121561235357600080fd5b815160ff8116811461074657600080fd5b81516001600160a01b031681526101408101602083015160208301526040830151612393604084018215159052565b50606083015160608301526080830151608083015260a083015160a083015260c083015160c083015260e083015160e083015261010080840151818401525061012080840151818401525092915050565b634e487b7160e01b600052604160045260246000fd5b60405160a0810167ffffffffffffffff8111828210171561241d5761241d6123e4565b60405290565b604051610180810167ffffffffffffffff8111828210171561241d5761241d6123e4565b604051601f8201601f1916810167ffffffffffffffff81118282101715612470576124706123e4565b604052919050565b600067ffffffffffffffff821115612492576124926123e4565b5060051b60200190565b805161231881611eab565b600060208083850312156124ba57600080fd5b825167ffffffffffffffff808211156124d257600080fd5b818501915085601f8301126124e657600080fd5b81516124f96124f482612478565b612447565b81815260059190911b8301840190848101908883111561251857600080fd5b8585015b838110156126145780518581111561253357600080fd5b8601601f1960a0828d038201121561254b5760008081fd5b6125536123fa565b89830151888111156125655760008081fd5b8301603f81018e136125775760008081fd5b8a81015160408a82111561258d5761258d6123e4565b61259d8d86601f85011601612447565b94508185528f818385010111156125b45760008081fd5b6125c3828e87018386016121f5565b8484526125d181870161230d565b8d85015260609450848601518185015250505060806125f181850161249c565b8383015261260160a0850161249c565b908201528552505091860191860161251c565b5098975050505050505050565b634e487b7160e01b600052603260045260246000fd5b805163ffffffff8116811461231857600080fd5b80516001600160d81b038116811461231857600080fd5b6000610180828403121561267557600080fd5b61267d612423565b90506126888261230d565b81526126966020830161249c565b60208201526126a760408301612637565b60408201526126b86060830161264b565b60608201526080820151608082015260a082015160a082015260c082015160c082015260e082015160e082015261010080830151818301525061012080830151818301525061014080830151818301525061016080830151818301525092915050565b6000602080838503121561272e57600080fd5b825167ffffffffffffffff81111561274557600080fd5b8301601f8101851361275657600080fd5b80516127646124f482612478565b818152610180918202830184019184820191908884111561278457600080fd5b938501935b838510156127aa5761279b8986612662565b83529384019391850191612789565b50979650505050505050565b634e487b7160e01b600052601160045260246000fd5b80820180821115611157576111576127b6565b6000600182016127f1576127f16127b6565b5060010190565b6000610180828403121561280b57600080fd5b6111548383612662565b600081518084526020808501945080840160005b8381101561284557815187529582019590820190600101612829565b509495945050505050565b60006101a080835261286d81840186516001600160a01b03169052565b60208501516101c06128828186018315159052565b60408701516101e0868101919091526060880151151561020087015260808801516001600160a01b031661022087015260a088015161024087015260c088015161026087015260e088015161028087015261010088015115156102a087015261012088015160ff9081166102c088015261014089015167ffffffffffffffff166102e08801526101608901516103008801526101808901516103208801529388015190931661034086015286015161036085019290925250612948610380840182612815565b9150506107466020830184611f90565b6000602080838503121561296b57600080fd5b825167ffffffffffffffff81111561298257600080fd5b8301601f8101851361299357600080fd5b80516129a16124f482612478565b81815260059190911b820183019083810190878311156129c057600080fd5b928401925b828410156129de578351825292840192908401906129c5565b979650505050505050565b6000602082840312156129fb57600080fd5b6040516020810181811067ffffffffffffffff82111715612a1e57612a1e6123e4565b6040529151825250919050565b6001600160a01b0392909216825260ff16602082015260400190565b600181815b80851115612a82578160001904821115612a6857612a686127b6565b80851615612a7557918102915b93841c9390800290612a4c565b509250929050565b600082612a9957506001611157565b81612aa657506000611157565b8160018114612abc5760028114612ac657612ae2565b6001915050611157565b60ff841115612ad757612ad76127b6565b50506001821b611157565b5060208310610133831016604e8410600b8410161715612b05575081810a611157565b612b0f8383612a47565b8060001904821115612b2357612b236127b6565b029392505050565b600061115460ff841683612a8a565b60006111548383612a8a565b8082028115828204841417611157576111576127b6565b600082612b7a57634e487b7160e01b600052601260045260246000fd5b50049056fea26469706673582212201d76886f1c053d974e19ef0b4991a5a21ae149c0e8d68bece462901b4c367c1364736f6c63430008110033",
    "linkReferences": {},
    "deployedLinkReferences": {}
}