{
  "_format": "hh-sol-artifact-1",
  "contractName": "MarketRouter",
  "sourceName": "contracts/market/MarketRouter.sol",
  "abi": [
    {
      "anonymous": false,
      "inputs": [
        {
          "indexed": true,
          "internalType": "address",
          "name": "account",
          "type": "address"
        },
        {
          "indexed": false,
          "internalType": "bool",
          "name": "isLong",
          "type": "bool"
        },
        {
          "indexed": false,
          "internalType": "bool",
          "name": "isIncrease",
          "type": "bool"
        },
        {
          "indexed": false,
          "internalType": "uint256",
          "name": "orderID",
          "type": "uint256"
        },
        {
          "indexed": false,
          "internalType": "address",
          "name": "market",
          "type": "address"
        },
        {
          "indexed": false,
          "internalType": "uint8",
          "name": "reason",
          "type": "uint8"
        },
        {
          "indexed": false,
          "internalType": "string",
          "name": "reasonStr",
          "type": "string"
        },
        {
          "indexed": false,
          "internalType": "uint256",
          "name": "price",
          "type": "uint256"
        },
        {
          "indexed": false,
          "internalType": "int256",
          "name": "dPNL",
          "type": "int256"
        }
      ],
      "name": "DeleteOrder",
      "type": "event"
    },
    {
      "anonymous": false,
      "inputs": [
        {
          "indexed": false,
          "internalType": "uint8",
          "name": "version",
          "type": "uint8"
        }
      ],
      "name": "Initialized",
      "type": "event"
    },
    {
      "anonymous": false,
      "inputs": [
        {
          "indexed": true,
          "internalType": "address",
          "name": "previousOwner",
          "type": "address"
        },
        {
          "indexed": true,
          "internalType": "address",
          "name": "newOwner",
          "type": "address"
        }
      ],
      "name": "OwnershipTransferred",
      "type": "event"
    },
    {
      "anonymous": false,
      "inputs": [
        {
          "indexed": true,
          "internalType": "bytes32",
          "name": "role",
          "type": "bytes32"
        },
        {
          "indexed": true,
          "internalType": "bytes32",
          "name": "previousAdminRole",
          "type": "bytes32"
        },
        {
          "indexed": true,
          "internalType": "bytes32",
          "name": "newAdminRole",
          "type": "bytes32"
        }
      ],
      "name": "RoleAdminChanged",
      "type": "event"
    },
    {
      "anonymous": false,
      "inputs": [
        {
          "indexed": true,
          "internalType": "bytes32",
          "name": "role",
          "type": "bytes32"
        },
        {
          "indexed": true,
          "internalType": "address",
          "name": "account",
          "type": "address"
        },
        {
          "indexed": true,
          "internalType": "address",
          "name": "sender",
          "type": "address"
        }
      ],
      "name": "RoleGranted",
      "type": "event"
    },
    {
      "anonymous": false,
      "inputs": [
        {
          "indexed": true,
          "internalType": "bytes32",
          "name": "role",
          "type": "bytes32"
        },
        {
          "indexed": true,
          "internalType": "address",
          "name": "account",
          "type": "address"
        },
        {
          "indexed": true,
          "internalType": "address",
          "name": "sender",
          "type": "address"
        }
      ],
      "name": "RoleRevoked",
      "type": "event"
    },
    {
      "anonymous": false,
      "inputs": [
        {
          "indexed": true,
          "internalType": "address",
          "name": "account",
          "type": "address"
        },
        {
          "indexed": false,
          "internalType": "bool",
          "name": "isLong",
          "type": "bool"
        },
        {
          "indexed": false,
          "internalType": "bool",
          "name": "isIncrease",
          "type": "bool"
        },
        {
          "indexed": false,
          "internalType": "uint256",
          "name": "orderID",
          "type": "uint256"
        },
        {
          "indexed": false,
          "internalType": "address",
          "name": "market",
          "type": "address"
        },
        {
          "indexed": false,
          "internalType": "uint256",
          "name": "size",
          "type": "uint256"
        },
        {
          "indexed": false,
          "internalType": "uint256",
          "name": "collateral",
          "type": "uint256"
        },
        {
          "indexed": false,
          "internalType": "uint256",
          "name": "triggerPrice",
          "type": "uint256"
        },
        {
          "indexed": false,
          "internalType": "bool",
          "name": "triggerAbove",
          "type": "bool"
        },
        {
          "indexed": false,
          "internalType": "uint256",
          "name": "tp",
          "type": "uint256"
        },
        {
          "indexed": false,
          "internalType": "uint256",
          "name": "sl",
          "type": "uint256"
        },
        {
          "indexed": false,
          "internalType": "uint128",
          "name": "fromOrder",
          "type": "uint128"
        },
        {
          "indexed": false,
          "internalType": "bool",
          "name": "isKeepLev",
          "type": "bool"
        },
        {
          "components": [
            {
              "internalType": "address",
              "name": "_market",
              "type": "address"
            },
            {
              "internalType": "bool",
              "name": "_isLong",
              "type": "bool"
            },
            {
              "internalType": "uint256",
              "name": "_oraclePrice",
              "type": "uint256"
            },
            {
              "internalType": "bool",
              "name": "isOpen",
              "type": "bool"
            },
            {
              "internalType": "bool",
              "name": "isCreate",
              "type": "bool"
            },
            {
              "components": [
                {
                  "internalType": "uint8",
                  "name": "version",
                  "type": "uint8"
                },
                {
                  "internalType": "uint32",
                  "name": "updatedAtBlock",
                  "type": "uint32"
                },
                {
                  "internalType": "uint8",
                  "name": "triggerAbove",
                  "type": "uint8"
                },
                {
                  "internalType": "address",
                  "name": "account",
                  "type": "address"
                },
                {
                  "internalType": "uint48",
                  "name": "extra3",
                  "type": "uint48"
                },
                {
                  "internalType": "uint128",
                  "name": "collateral",
                  "type": "uint128"
                },
                {
                  "internalType": "uint128",
                  "name": "size",
                  "type": "uint128"
                },
                {
                  "internalType": "uint128",
                  "name": "price",
                  "type": "uint128"
                },
                {
                  "internalType": "uint128",
                  "name": "extra1",
                  "type": "uint128"
                },
                {
                  "internalType": "uint64",
                  "name": "orderID",
                  "type": "uint64"
                },
                {
                  "internalType": "uint64",
                  "name": "extra2",
                  "type": "uint64"
                },
                {
                  "internalType": "uint128",
                  "name": "extra0",
                  "type": "uint128"
                },
                {
                  "internalType": "bytes32",
                  "name": "refCode",
                  "type": "bytes32"
                }
              ],
              "internalType": "struct Order.Props",
              "name": "_order",
              "type": "tuple"
            },
            {
              "internalType": "uint256[]",
              "name": "inputs",
              "type": "uint256[]"
            }
          ],
          "indexed": false,
          "internalType": "struct MarketDataTypes.UpdateOrderInputs",
          "name": "params",
          "type": "tuple"
        }
      ],
      "name": "UpdateOrder",
      "type": "event"
    },
    {
      "anonymous": false,
      "inputs": [
        {
          "indexed": true,
          "internalType": "address",
          "name": "account",
          "type": "address"
        },
        {
          "indexed": false,
          "internalType": "uint256",
          "name": "collateralDelta",
          "type": "uint256"
        },
        {
          "indexed": false,
          "internalType": "int256",
          "name": "collateralDeltaAfter",
          "type": "int256"
        },
        {
          "indexed": false,
          "internalType": "uint256",
          "name": "sizeDelta",
          "type": "uint256"
        },
        {
          "indexed": false,
          "internalType": "bool",
          "name": "isLong",
          "type": "bool"
        },
        {
          "indexed": false,
          "internalType": "uint256",
          "name": "price",
          "type": "uint256"
        },
        {
          "indexed": false,
          "internalType": "int256",
          "name": "pnl",
          "type": "int256"
        },
        {
          "indexed": false,
          "internalType": "int256[]",
          "name": "fees",
          "type": "int256[]"
        },
        {
          "indexed": false,
          "internalType": "address",
          "name": "market",
          "type": "address"
        },
        {
          "indexed": false,
          "internalType": "address",
          "name": "collateralToken",
          "type": "address"
        },
        {
          "indexed": false,
          "internalType": "address",
          "name": "indexToken",
          "type": "address"
        },
        {
          "indexed": false,
          "internalType": "uint256",
          "name": "category",
          "type": "uint256"
        },
        {
          "indexed": false,
          "internalType": "uint64",
          "name": "fromOrder",
          "type": "uint64"
        }
      ],
      "name": "UpdatePosition",
      "type": "event"
    },
    {
      "inputs": [],
      "name": "DEFAULT_ADMIN_ROLE",
      "outputs": [
        {
          "internalType": "bytes32",
          "name": "",
          "type": "bytes32"
        }
      ],
      "stateMutability": "view",
      "type": "function"
    },
    {
      "inputs": [
        {
          "internalType": "address",
          "name": "_market",
          "type": "address"
        },
        {
          "internalType": "address",
          "name": "vault",
          "type": "address"
        }
      ],
      "name": "addMarket",
      "outputs": [],
      "stateMutability": "nonpayable",
      "type": "function"
    },
    {
      "inputs": [
        {
          "internalType": "address[]",
          "name": "_markets",
          "type": "address[]"
        },
        {
          "internalType": "bool[]",
          "name": "_isIncreaseList",
          "type": "bool[]"
        },
        {
          "internalType": "uint256[]",
          "name": "_orderIDList",
          "type": "uint256[]"
        },
        {
          "internalType": "bool[]",
          "name": "_isLongList",
          "type": "bool[]"
        }
      ],
      "name": "cancelOrderList",
      "outputs": [],
      "stateMutability": "nonpayable",
      "type": "function"
    },
    {
      "inputs": [
        {
          "components": [
            {
              "internalType": "address",
              "name": "_market",
              "type": "address"
            },
            {
              "internalType": "bool",
              "name": "_isLong",
              "type": "bool"
            },
            {
              "internalType": "uint256",
              "name": "_oraclePrice",
              "type": "uint256"
            },
            {
              "internalType": "bool",
              "name": "isOpen",
              "type": "bool"
            },
            {
              "internalType": "address",
              "name": "_account",
              "type": "address"
            },
            {
              "internalType": "uint256",
              "name": "_sizeDelta",
              "type": "uint256"
            },
            {
              "internalType": "uint256",
              "name": "_price",
              "type": "uint256"
            },
            {
              "internalType": "uint256",
              "name": "_slippage",
              "type": "uint256"
            },
            {
              "internalType": "bool",
              "name": "_isExec",
              "type": "bool"
            },
            {
              "internalType": "uint8",
              "name": "liqState",
              "type": "uint8"
            },
            {
              "internalType": "uint64",
              "name": "_fromOrder",
              "type": "uint64"
            },
            {
              "internalType": "bytes32",
              "name": "_refCode",
              "type": "bytes32"
            },
            {
              "internalType": "uint256",
              "name": "collateralDelta",
              "type": "uint256"
            },
            {
              "internalType": "uint8",
              "name": "execNum",
              "type": "uint8"
            },
            {
              "internalType": "uint256[]",
              "name": "inputs",
              "type": "uint256[]"
            }
          ],
          "internalType": "struct MarketDataTypes.UpdatePositionInputs",
          "name": "_vars",
          "type": "tuple"
        }
      ],
      "name": "decreasePosition",
      "outputs": [],
      "stateMutability": "nonpayable",
      "type": "function"
    },
    {
      "inputs": [
        {
          "components": [
            {
              "components": [
                {
                  "internalType": "uint8",
                  "name": "version",
                  "type": "uint8"
                },
                {
                  "internalType": "uint32",
                  "name": "updatedAtBlock",
                  "type": "uint32"
                },
                {
                  "internalType": "uint8",
                  "name": "triggerAbove",
                  "type": "uint8"
                },
                {
                  "internalType": "address",
                  "name": "account",
                  "type": "address"
                },
                {
                  "internalType": "uint48",
                  "name": "extra3",
                  "type": "uint48"
                },
                {
                  "internalType": "uint128",
                  "name": "collateral",
                  "type": "uint128"
                },
                {
                  "internalType": "uint128",
                  "name": "size",
                  "type": "uint128"
                },
                {
                  "internalType": "uint128",
                  "name": "price",
                  "type": "uint128"
                },
                {
                  "internalType": "uint128",
                  "name": "extra1",
                  "type": "uint128"
                },
                {
                  "internalType": "uint64",
                  "name": "orderID",
                  "type": "uint64"
                },
                {
                  "internalType": "uint64",
                  "name": "extra2",
                  "type": "uint64"
                },
                {
                  "internalType": "uint128",
                  "name": "extra0",
                  "type": "uint128"
                },
                {
                  "internalType": "bytes32",
                  "name": "refCode",
                  "type": "bytes32"
                }
              ],
              "internalType": "struct Order.Props",
              "name": "order",
              "type": "tuple"
            },
            {
              "components": [
                {
                  "internalType": "address",
                  "name": "_market",
                  "type": "address"
                },
                {
                  "internalType": "bool",
                  "name": "_isLong",
                  "type": "bool"
                },
                {
                  "internalType": "uint256",
                  "name": "_oraclePrice",
                  "type": "uint256"
                },
                {
                  "internalType": "bool",
                  "name": "isOpen",
                  "type": "bool"
                },
                {
                  "internalType": "address",
                  "name": "_account",
                  "type": "address"
                },
                {
                  "internalType": "uint256",
                  "name": "_sizeDelta",
                  "type": "uint256"
                },
                {
                  "internalType": "uint256",
                  "name": "_price",
                  "type": "uint256"
                },
                {
                  "internalType": "uint256",
                  "name": "_slippage",
                  "type": "uint256"
                },
                {
                  "internalType": "bool",
                  "name": "_isExec",
                  "type": "bool"
                },
                {
                  "internalType": "uint8",
                  "name": "liqState",
                  "type": "uint8"
                },
                {
                  "internalType": "uint64",
                  "name": "_fromOrder",
                  "type": "uint64"
                },
                {
                  "internalType": "bytes32",
                  "name": "_refCode",
                  "type": "bytes32"
                },
                {
                  "internalType": "uint256",
                  "name": "collateralDelta",
                  "type": "uint256"
                },
                {
                  "internalType": "uint8",
                  "name": "execNum",
                  "type": "uint8"
                },
                {
                  "internalType": "uint256[]",
                  "name": "inputs",
                  "type": "uint256[]"
                }
              ],
              "internalType": "struct MarketDataTypes.UpdatePositionInputs",
              "name": "inputs",
              "type": "tuple"
            },
            {
              "internalType": "uint8",
              "name": "reason",
              "type": "uint8"
            },
            {
              "internalType": "string",
              "name": "reasonStr",
              "type": "string"
            },
            {
              "internalType": "int256",
              "name": "dPNL",
              "type": "int256"
            }
          ],
          "internalType": "struct MarketOrderCallBackIntl.DeleteOrderEvent",
          "name": "e",
          "type": "tuple"
        }
      ],
      "name": "deleteOrderCallback",
      "outputs": [],
      "stateMutability": "nonpayable",
      "type": "function"
    },
    {
      "inputs": [
        {
          "internalType": "address",
          "name": "account",
          "type": "address"
        }
      ],
      "name": "getAccountSize",
      "outputs": [
        {
          "internalType": "uint256",
          "name": "sizesL",
          "type": "uint256"
        },
        {
          "internalType": "uint256",
          "name": "sizesS",
          "type": "uint256"
        }
      ],
      "stateMutability": "view",
      "type": "function"
    },
    {
      "inputs": [],
      "name": "getGlobalPNL",
      "outputs": [
        {
          "internalType": "int256",
          "name": "pnl",
          "type": "int256"
        }
      ],
      "stateMutability": "view",
      "type": "function"
    },
    {
      "inputs": [],
      "name": "getGlobalSize",
      "outputs": [
        {
          "internalType": "uint256",
          "name": "sizesLong",
          "type": "uint256"
        },
        {
          "internalType": "uint256",
          "name": "sizesShort",
          "type": "uint256"
        }
      ],
      "stateMutability": "view",
      "type": "function"
    },
    {
      "inputs": [],
      "name": "getHooksCalls",
      "outputs": [
        {
          "components": [
            {
              "internalType": "bool",
              "name": "updatePosition",
              "type": "bool"
            },
            {
              "internalType": "bool",
              "name": "updateOrder",
              "type": "bool"
            },
            {
              "internalType": "bool",
              "name": "deleteOrder",
              "type": "bool"
            }
          ],
          "internalType": "struct MarketCallBackIntl.Calls",
          "name": "",
          "type": "tuple"
        }
      ],
      "stateMutability": "pure",
      "type": "function"
    },
    {
      "inputs": [],
      "name": "getMarkets",
      "outputs": [
        {
          "internalType": "address[]",
          "name": "",
          "type": "address[]"
        }
      ],
      "stateMutability": "view",
      "type": "function"
    },
    {
      "inputs": [
        {
          "internalType": "bytes32",
          "name": "role",
          "type": "bytes32"
        }
      ],
      "name": "getRoleAdmin",
      "outputs": [
        {
          "internalType": "bytes32",
          "name": "",
          "type": "bytes32"
        }
      ],
      "stateMutability": "view",
      "type": "function"
    },
    {
      "inputs": [
        {
          "internalType": "bytes32",
          "name": "role",
          "type": "bytes32"
        },
        {
          "internalType": "address",
          "name": "account",
          "type": "address"
        }
      ],
      "name": "grantAndRevoke",
      "outputs": [],
      "stateMutability": "nonpayable",
      "type": "function"
    },
    {
      "inputs": [
        {
          "internalType": "address",
          "name": "_account",
          "type": "address"
        }
      ],
      "name": "grantControllerRoleByMarketManager",
      "outputs": [],
      "stateMutability": "nonpayable",
      "type": "function"
    },
    {
      "inputs": [
        {
          "internalType": "bytes32",
          "name": "role",
          "type": "bytes32"
        },
        {
          "internalType": "address",
          "name": "account",
          "type": "address"
        }
      ],
      "name": "grantRole",
      "outputs": [],
      "stateMutability": "nonpayable",
      "type": "function"
    },
    {
      "inputs": [],
      "name": "gv",
      "outputs": [
        {
          "internalType": "address",
          "name": "",
          "type": "address"
        }
      ],
      "stateMutability": "view",
      "type": "function"
    },
    {
      "inputs": [
        {
          "internalType": "bytes32",
          "name": "role",
          "type": "bytes32"
        },
        {
          "internalType": "address",
          "name": "account",
          "type": "address"
        }
      ],
      "name": "hasRole",
      "outputs": [
        {
          "internalType": "bool",
          "name": "",
          "type": "bool"
        }
      ],
      "stateMutability": "view",
      "type": "function"
    },
    {
      "inputs": [
        {
          "components": [
            {
              "internalType": "address",
              "name": "_market",
              "type": "address"
            },
            {
              "internalType": "bool",
              "name": "_isLong",
              "type": "bool"
            },
            {
              "internalType": "uint256",
              "name": "_oraclePrice",
              "type": "uint256"
            },
            {
              "internalType": "bool",
              "name": "isOpen",
              "type": "bool"
            },
            {
              "internalType": "address",
              "name": "_account",
              "type": "address"
            },
            {
              "internalType": "uint256",
              "name": "_sizeDelta",
              "type": "uint256"
            },
            {
              "internalType": "uint256",
              "name": "_price",
              "type": "uint256"
            },
            {
              "internalType": "uint256",
              "name": "_slippage",
              "type": "uint256"
            },
            {
              "internalType": "bool",
              "name": "_isExec",
              "type": "bool"
            },
            {
              "internalType": "uint8",
              "name": "liqState",
              "type": "uint8"
            },
            {
              "internalType": "uint64",
              "name": "_fromOrder",
              "type": "uint64"
            },
            {
              "internalType": "bytes32",
              "name": "_refCode",
              "type": "bytes32"
            },
            {
              "internalType": "uint256",
              "name": "collateralDelta",
              "type": "uint256"
            },
            {
              "internalType": "uint8",
              "name": "execNum",
              "type": "uint8"
            },
            {
              "internalType": "uint256[]",
              "name": "inputs",
              "type": "uint256[]"
            }
          ],
          "internalType": "struct MarketDataTypes.UpdatePositionInputs",
          "name": "_inputs",
          "type": "tuple"
        }
      ],
      "name": "increasePosition",
      "outputs": [],
      "stateMutability": "nonpayable",
      "type": "function"
    },
    {
      "inputs": [
        {
          "internalType": "address",
          "name": "_f",
          "type": "address"
        },
        {
          "internalType": "address",
          "name": "_gv",
          "type": "address"
        },
        {
          "internalType": "address",
          "name": "vr",
          "type": "address"
        }
      ],
      "name": "initialize",
      "outputs": [],
      "stateMutability": "nonpayable",
      "type": "function"
    },
    {
      "inputs": [],
      "name": "isEnableMarketConvertToOrder",
      "outputs": [
        {
          "internalType": "bool",
          "name": "",
          "type": "bool"
        }
      ],
      "stateMutability": "view",
      "type": "function"
    },
    {
      "inputs": [],
      "name": "owner",
      "outputs": [
        {
          "internalType": "address",
          "name": "",
          "type": "address"
        }
      ],
      "stateMutability": "view",
      "type": "function"
    },
    {
      "inputs": [
        {
          "internalType": "address",
          "name": "_market",
          "type": "address"
        }
      ],
      "name": "removeMarket",
      "outputs": [],
      "stateMutability": "nonpayable",
      "type": "function"
    },
    {
      "inputs": [],
      "name": "renounceOwnership",
      "outputs": [],
      "stateMutability": "nonpayable",
      "type": "function"
    },
    {
      "inputs": [
        {
          "internalType": "bytes32",
          "name": "role",
          "type": "bytes32"
        },
        {
          "internalType": "address",
          "name": "account",
          "type": "address"
        }
      ],
      "name": "renounceRole",
      "outputs": [],
      "stateMutability": "nonpayable",
      "type": "function"
    },
    {
      "inputs": [
        {
          "internalType": "bytes32",
          "name": "role",
          "type": "bytes32"
        },
        {
          "internalType": "address",
          "name": "account",
          "type": "address"
        }
      ],
      "name": "revokeRole",
      "outputs": [],
      "stateMutability": "nonpayable",
      "type": "function"
    },
    {
      "inputs": [
        {
          "internalType": "bool",
          "name": "_isEnableMarketConvertToOrder",
          "type": "bool"
        }
      ],
      "name": "setIsEnableMarketConvertToOrder",
      "outputs": [],
      "stateMutability": "nonpayable",
      "type": "function"
    },
    {
      "inputs": [
        {
          "internalType": "bytes4",
          "name": "interfaceId",
          "type": "bytes4"
        }
      ],
      "name": "supportsInterface",
      "outputs": [
        {
          "internalType": "bool",
          "name": "",
          "type": "bool"
        }
      ],
      "stateMutability": "view",
      "type": "function"
    },
    {
      "inputs": [
        {
          "internalType": "address",
          "name": "to",
          "type": "address"
        }
      ],
      "name": "transferAdmin",
      "outputs": [],
      "stateMutability": "nonpayable",
      "type": "function"
    },
    {
      "inputs": [
        {
          "internalType": "address",
          "name": "newOwner",
          "type": "address"
        }
      ],
      "name": "transferOwnership",
      "outputs": [],
      "stateMutability": "nonpayable",
      "type": "function"
    },
    {
      "inputs": [
        {
          "components": [
            {
              "internalType": "address",
              "name": "_market",
              "type": "address"
            },
            {
              "internalType": "bool",
              "name": "_isLong",
              "type": "bool"
            },
            {
              "internalType": "uint256",
              "name": "_oraclePrice",
              "type": "uint256"
            },
            {
              "internalType": "bool",
              "name": "isOpen",
              "type": "bool"
            },
            {
              "internalType": "bool",
              "name": "isCreate",
              "type": "bool"
            },
            {
              "components": [
                {
                  "internalType": "uint8",
                  "name": "version",
                  "type": "uint8"
                },
                {
                  "internalType": "uint32",
                  "name": "updatedAtBlock",
                  "type": "uint32"
                },
                {
                  "internalType": "uint8",
                  "name": "triggerAbove",
                  "type": "uint8"
                },
                {
                  "internalType": "address",
                  "name": "account",
                  "type": "address"
                },
                {
                  "internalType": "uint48",
                  "name": "extra3",
                  "type": "uint48"
                },
                {
                  "internalType": "uint128",
                  "name": "collateral",
                  "type": "uint128"
                },
                {
                  "internalType": "uint128",
                  "name": "size",
                  "type": "uint128"
                },
                {
                  "internalType": "uint128",
                  "name": "price",
                  "type": "uint128"
                },
                {
                  "internalType": "uint128",
                  "name": "extra1",
                  "type": "uint128"
                },
                {
                  "internalType": "uint64",
                  "name": "orderID",
                  "type": "uint64"
                },
                {
                  "internalType": "uint64",
                  "name": "extra2",
                  "type": "uint64"
                },
                {
                  "internalType": "uint128",
                  "name": "extra0",
                  "type": "uint128"
                },
                {
                  "internalType": "bytes32",
                  "name": "refCode",
                  "type": "bytes32"
                }
              ],
              "internalType": "struct Order.Props",
              "name": "_order",
              "type": "tuple"
            },
            {
              "internalType": "uint256[]",
              "name": "inputs",
              "type": "uint256[]"
            }
          ],
          "internalType": "struct MarketDataTypes.UpdateOrderInputs",
          "name": "_vars",
          "type": "tuple"
        }
      ],
      "name": "updateOrder",
      "outputs": [],
      "stateMutability": "nonpayable",
      "type": "function"
    },
    {
      "inputs": [
        {
          "components": [
            {
              "internalType": "address",
              "name": "_market",
              "type": "address"
            },
            {
              "internalType": "bool",
              "name": "_isLong",
              "type": "bool"
            },
            {
              "internalType": "uint256",
              "name": "_oraclePrice",
              "type": "uint256"
            },
            {
              "internalType": "bool",
              "name": "isOpen",
              "type": "bool"
            },
            {
              "internalType": "bool",
              "name": "isCreate",
              "type": "bool"
            },
            {
              "components": [
                {
                  "internalType": "uint8",
                  "name": "version",
                  "type": "uint8"
                },
                {
                  "internalType": "uint32",
                  "name": "updatedAtBlock",
                  "type": "uint32"
                },
                {
                  "internalType": "uint8",
                  "name": "triggerAbove",
                  "type": "uint8"
                },
                {
                  "internalType": "address",
                  "name": "account",
                  "type": "address"
                },
                {
                  "internalType": "uint48",
                  "name": "extra3",
                  "type": "uint48"
                },
                {
                  "internalType": "uint128",
                  "name": "collateral",
                  "type": "uint128"
                },
                {
                  "internalType": "uint128",
                  "name": "size",
                  "type": "uint128"
                },
                {
                  "internalType": "uint128",
                  "name": "price",
                  "type": "uint128"
                },
                {
                  "internalType": "uint128",
                  "name": "extra1",
                  "type": "uint128"
                },
                {
                  "internalType": "uint64",
                  "name": "orderID",
                  "type": "uint64"
                },
                {
                  "internalType": "uint64",
                  "name": "extra2",
                  "type": "uint64"
                },
                {
                  "internalType": "uint128",
                  "name": "extra0",
                  "type": "uint128"
                },
                {
                  "internalType": "bytes32",
                  "name": "refCode",
                  "type": "bytes32"
                }
              ],
              "internalType": "struct Order.Props",
              "name": "_order",
              "type": "tuple"
            },
            {
              "internalType": "uint256[]",
              "name": "inputs",
              "type": "uint256[]"
            }
          ],
          "internalType": "struct MarketDataTypes.UpdateOrderInputs",
          "name": "_event",
          "type": "tuple"
        }
      ],
      "name": "updateOrderCallback",
      "outputs": [],
      "stateMutability": "nonpayable",
      "type": "function"
    },
    {
      "inputs": [
        {
          "internalType": "address",
          "name": "newA",
          "type": "address"
        }
      ],
      "name": "updatePositionBook",
      "outputs": [],
      "stateMutability": "nonpayable",
      "type": "function"
    },
    {
      "inputs": [
        {
          "components": [
            {
              "components": [
                {
                  "internalType": "address",
                  "name": "_market",
                  "type": "address"
                },
                {
                  "internalType": "bool",
                  "name": "_isLong",
                  "type": "bool"
                },
                {
                  "internalType": "uint256",
                  "name": "_oraclePrice",
                  "type": "uint256"
                },
                {
                  "internalType": "bool",
                  "name": "isOpen",
                  "type": "bool"
                },
                {
                  "internalType": "address",
                  "name": "_account",
                  "type": "address"
                },
                {
                  "internalType": "uint256",
                  "name": "_sizeDelta",
                  "type": "uint256"
                },
                {
                  "internalType": "uint256",
                  "name": "_price",
                  "type": "uint256"
                },
                {
                  "internalType": "uint256",
                  "name": "_slippage",
                  "type": "uint256"
                },
                {
                  "internalType": "bool",
                  "name": "_isExec",
                  "type": "bool"
                },
                {
                  "internalType": "uint8",
                  "name": "liqState",
                  "type": "uint8"
                },
                {
                  "internalType": "uint64",
                  "name": "_fromOrder",
                  "type": "uint64"
                },
                {
                  "internalType": "bytes32",
                  "name": "_refCode",
                  "type": "bytes32"
                },
                {
                  "internalType": "uint256",
                  "name": "collateralDelta",
                  "type": "uint256"
                },
                {
                  "internalType": "uint8",
                  "name": "execNum",
                  "type": "uint8"
                },
                {
                  "internalType": "uint256[]",
                  "name": "inputs",
                  "type": "uint256[]"
                }
              ],
              "internalType": "struct MarketDataTypes.UpdatePositionInputs",
              "name": "inputs",
              "type": "tuple"
            },
            {
              "components": [
                {
                  "internalType": "address",
                  "name": "market",
                  "type": "address"
                },
                {
                  "internalType": "bool",
                  "name": "isLong",
                  "type": "bool"
                },
                {
                  "internalType": "uint32",
                  "name": "lastTime",
                  "type": "uint32"
                },
                {
                  "internalType": "uint216",
                  "name": "extra3",
                  "type": "uint216"
                },
                {
                  "internalType": "uint256",
                  "name": "size",
                  "type": "uint256"
                },
                {
                  "internalType": "uint256",
                  "name": "collateral",
                  "type": "uint256"
                },
                {
                  "internalType": "uint256",
                  "name": "averagePrice",
                  "type": "uint256"
                },
                {
                  "internalType": "int256",
                  "name": "entryFundingRate",
                  "type": "int256"
                },
                {
                  "internalType": "int256",
                  "name": "realisedPnl",
                  "type": "int256"
                },
                {
                  "internalType": "uint256",
                  "name": "extra0",
                  "type": "uint256"
                },
                {
                  "internalType": "uint256",
                  "name": "extra1",
                  "type": "uint256"
                },
                {
                  "internalType": "uint256",
                  "name": "extra2",
                  "type": "uint256"
                }
              ],
              "internalType": "struct Position.Props",
              "name": "position",
              "type": "tuple"
            },
            {
              "internalType": "int256[]",
              "name": "fees",
              "type": "int256[]"
            },
            {
              "internalType": "address",
              "name": "collateralToken",
              "type": "address"
            },
            {
              "internalType": "address",
              "name": "indexToken",
              "type": "address"
            },
            {
              "internalType": "int256",
              "name": "collateralDeltaAfter",
              "type": "int256"
            }
          ],
          "internalType": "struct MarketPositionCallBackIntl.UpdatePositionEvent",
          "name": "_event",
          "type": "tuple"
        }
      ],
      "name": "updatePositionCallback",
      "outputs": [],
      "stateMutability": "nonpayable",
      "type": "function"
    },
    {
      "inputs": [
        {
          "components": [
            {
              "internalType": "address",
              "name": "_market",
              "type": "address"
            },
            {
              "internalType": "bool",
              "name": "_isLong",
              "type": "bool"
            },
            {
              "internalType": "uint256",
              "name": "_oraclePrice",
              "type": "uint256"
            },
            {
              "internalType": "bool",
              "name": "isOpen",
              "type": "bool"
            },
            {
              "internalType": "address",
              "name": "_account",
              "type": "address"
            },
            {
              "internalType": "uint256",
              "name": "_sizeDelta",
              "type": "uint256"
            },
            {
              "internalType": "uint256",
              "name": "_price",
              "type": "uint256"
            },
            {
              "internalType": "uint256",
              "name": "_slippage",
              "type": "uint256"
            },
            {
              "internalType": "bool",
              "name": "_isExec",
              "type": "bool"
            },
            {
              "internalType": "uint8",
              "name": "liqState",
              "type": "uint8"
            },
            {
              "internalType": "uint64",
              "name": "_fromOrder",
              "type": "uint64"
            },
            {
              "internalType": "bytes32",
              "name": "_refCode",
              "type": "bytes32"
            },
            {
              "internalType": "uint256",
              "name": "collateralDelta",
              "type": "uint256"
            },
            {
              "internalType": "uint8",
              "name": "execNum",
              "type": "uint8"
            },
            {
              "internalType": "uint256[]",
              "name": "inputs",
              "type": "uint256[]"
            }
          ],
          "internalType": "struct MarketDataTypes.UpdatePositionInputs",
          "name": "_inputs",
          "type": "tuple"
        }
      ],
      "name": "validateIncreasePosition",
      "outputs": [],
      "stateMutability": "view",
      "type": "function"
    },
    {
      "inputs": [],
      "name": "vaultRouter",
      "outputs": [
        {
          "internalType": "address",
          "name": "",
          "type": "address"
        }
      ],
      "stateMutability": "view",
      "type": "function"
    }
  ],
  "bytecode": "0x60806040523480156200001157600080fd5b506200001d3362000028565b60016003556200007a565b600180546001600160a01b038381166001600160a01b0319831681179093556040519116919082907f8be0079c531659141344cd1fd0a4f28419497f9722a3daafe3b4186f6b6457e090600090a35050565b61414a806200008a6000396000f3fe608060405234801561001057600080fd5b50600436106101965760003560e01c806301ffc9a71461019b5780630799f55f146101c35780630d918caa146101e05780631cfe5828146101f55780632073b0ce14610208578063248a9ca31461021e5780632ca6d2c0146102315780632f2ff15d14610244578063332013a71461025757806336568abe1461026b57806340a542fe1461027e5780634463b5bc14610291578063544781af146102a4578063612c39b7146102b7578063715018a61461030b578063718cb58a1461031357806375829def146103265780637fe4a698146103395780638b4400f21461034c5780638da5cb5b1461036c57806391d148541461037457806399d5c1ec14610387578063a217fddf1461039a578063abed9618146103a2578063b038beb8146103b5578063c0c53b8b146103c8578063cce9a2f3146103db578063cd6ebf66146103ee578063d37c441c14610401578063d547741f14610414578063db91323614610427578063de1f44301461043a578063ec2c90161461044d578063f2fde38b14610462575b600080fd5b6101ae6101a9366004612c22565b610475565b60405190151581526020015b60405180910390f35b6101cb6104ac565b604080519283526020830191909152016101ba565b6101f36101ee366004612f78565b61056f565b005b6101f3610203366004612f78565b610716565b610210610a3c565b6040519081526020016101ba565b61021061022c366004612fac565b610aec565b6101cb61023f366004612fc5565b610b01565b6101f3610252366004612fe2565b610bd0565b600a546101ae90600160a01b900460ff1681565b6101f3610279366004612fe2565b610bf1565b6101f361028c3660046130f6565b610c6f565b6101f361029f3660046131ca565b610dc4565b6101f36102b236600461324b565b610dfb565b604080516060808201835260008083526020808401829052928401528251808201845260018082528184018181529185018181528551918252915115159381019390935251151592820192909252016101ba565b6101f36111f4565b6101f36103213660046134eb565b611208565b6101f3610334366004612fc5565b6112dc565b6101f3610347366004612fc5565b611306565b60095461035f906001600160a01b031681565b6040516101ba91906135bb565b61035f61131e565b6101ae610382366004612fe2565b61132d565b6101f3610395366004612fe2565b611356565b610210600081565b6101f36103b0366004612f78565b6113d3565b6101f36103c33660046135cf565b6114a1565b6101f36103d636600461369d565b6114b2565b6101f36103e93660046135cf565b611623565b6101f36103fc366004612fc5565b611769565b600a5461035f906001600160a01b031681565b6101f3610422366004612fe2565b6118e3565b6101f3610435366004612fc5565b6118ff565b6101f36104483660046136e8565b6119be565b610455611af2565b6040516101ba9190613716565b6101f3610470366004612fc5565b611b03565b60006001600160e01b03198216637965db0b60e01b14806104a657506301ffc9a760e01b6001600160e01b03198316145b92915050565b60008060005b6104bc6005611b79565b5181101561056a5760006104d1600583611b8d565b9050600080826001600160a01b0316638749694a6040518163ffffffff1660e01b81526004016040805180830381865afa158015610513573d6000803e3d6000fd5b505050506040513d601f19601f820116820180604052508101906105379190613763565b9092509050610546828761379d565b9550610552818661379d565b94505050508080610562906137b0565b9150506104b2565b509091565b610577611b99565b600a54600160a01b900460ff168015610594575060008160a00151115b156105a7576105a281611bf2565b610709565b80516105b590600790611d31565b6105fd5760405162461bcd60e51b815260206004820152601460248201527313585c9ad95d149bdd5d195c8e885b585c9ad95d60621b60448201526064015b60405180910390fd5b6000816000015190506000816001600160a01b031663b2016bd46040518163ffffffff1660e01b8152600401602060405180830381865afa158015610646573d6000803e3d6000fd5b505050506040513d601f19601f8201168201806040525081019061066a91906137c9565b905061069633846000015161068484876101800151611d46565b6001600160a01b038516929190611dbf565b3360808401526106a583610716565b8251604051631def7c1d60e11b81526001600160a01b0390911690633bdef83a906106d490869060040161382e565b600060405180830381600087803b1580156106ee57600080fd5b505af1158015610702573d6000803e3d6000fd5b5050505050505b6107136001600355565b50565b80516001600160a01b03908116600090815260046020908152604080832054815161014081018352848152808401858152928101858152606082018690526080820186905260a080830187905260c0830187905260e08301879052610100830187905261012083019690965287518716825294870151909252918501511515909252909116906107a46104ac565b60808084019190915260608301919091528301516107c190610b01565b60c083015260a0820152604080516343a4b4a560e11b815281516001600160a01b03851692638749694a92600480820193918290030181865afa15801561080c573d6000803e3d6000fd5b505050506040513d601f19601f820116820180604052508101906108309190613763565b61010083015260e0820152825160408051632c805af560e21b815290516000926001600160a01b03169163b2016bd49160048083019260209291908290030181865afa158015610884573d6000803e3d6000fd5b505050506040513d601f19601f820116820180604052508101906108a891906137c9565b905061098b600a60009054906101000a90046001600160a01b03166001600160a01b0316636dc7b0a16040518163ffffffff1660e01b8152600401602060405180830381865afa158015610900573d6000803e3d6000fd5b505050506040513d601f19601f820116820180604052508101906109249190613933565b826001600160a01b031663313ce5676040518163ffffffff1660e01b8152600401602060405180830381865afa158015610962573d6000803e3d6000fd5b505050506040513d601f19601f82011682018060405250810190610986919061394c565b611e19565b61012083015260095460405163028c7b5160e41b81526001600160a01b03909116906328c7b510906109c1908590600401613969565b602060405180830381865afa1580156109de573d6000803e3d6000fd5b505050506040513d601f19601f82011682018060405250810190610a0291906139eb565b610a365760405162461bcd60e51b815260206004820152600560248201526436b91d33bb60d91b60448201526064016105f4565b50505050565b6000805b610a4a6007611b79565b51811015610ae8576000610a5f600783611b8d565b90506000816001600160a01b03166393a98e6c6040518163ffffffff1660e01b8152600401602060405180830381865afa158015610aa1573d6000803e3d6000fd5b505050506040513d601f19601f82011682018060405250810190610ac59190613933565b9050610ad18185613a08565b935050508080610ae0906137b0565b915050610a40565b5090565b60009081526020819052604090206001015490565b60008060005b610b116005611b79565b51811015610bca576000610b26600583611b8d565b9050600080826001600160a01b0316632ca6d2c0886040518263ffffffff1660e01b8152600401610b5791906135bb565b6040805180830381865afa158015610b73573d6000803e3d6000fd5b505050506040513d601f19601f82011682018060405250810190610b979190613763565b9092509050610ba6828761379d565b9550610bb2818661379d565b94505050508080610bc2906137b0565b915050610b07565b50915091565b610bd982610aec565b610be281611e46565b610bec8383611e50565b505050565b6001600160a01b0381163314610c615760405162461bcd60e51b815260206004820152602f60248201527f416363657373436f6e74726f6c3a2063616e206f6e6c792072656e6f756e636560448201526e103937b632b9903337b91039b2b63360891b60648201526084016105f4565b610c6b8282611ed4565b5050565b8051516001600160a01b03163314610c995760405162461bcd60e51b81526004016105f490613a30565b610ca4600733611d31565b610cc05760405162461bcd60e51b81526004016105f490613a58565b80516060015160019015610ceb57815160a00151600003610ce357506002610d2e565b506000610d2e565b8151610120015160ff16600103610d0457506004610d2e565b8151610120015160ff16600203610d1d57506005610d2e565b815160a00151600003610d2e575060035b815160808082015161018083015160a08087015190850151602080870151604080890151928b01516101000151818c01518a5160608e01519a8e0151610140909c015193516001600160a01b03909a169b7fd0abfef5eb2cd61e6fd56ea2b69e9867bc90e8589023c554bdade2287b28c9399b610db89b96979694959394929390928f9190613a80565b60405180910390a25050565b6000805160206140f5833981519152610ddc81611e46565b50600a8054911515600160a01b0260ff60a01b19909216919091179055565b610e03611b99565b82518451148015610e15575081518351145b8015610e22575080518251145b610e6b5760405162461bcd60e51b815260206004820152601a602482015279082e4e4c2f240d8cadccee8d0e640c8de40dcdee840dac2e8c6d60331b60448201526064016105f4565b604080516001808252818301909252600091602080830190803683375050604080516001808252818301909252929350600092915060208083019080368337505060408051600180825281830190925292935060009291506020808301908036833701905050905060005b87518110156111e657610f0c888281518110610ef457610ef4613b3f565b60200260200101516007611d3190919063ffffffff16565b610f285760405162461bcd60e51b81526004016105f490613a58565b6000610f3582600161379d565b90505b885181101561109e57888181518110610f5357610f53613b3f565b60200260200101516001600160a01b0316898381518110610f7657610f76613b3f565b60200260200101516001600160a01b0316148015610fc95750878181518110610fa157610fa1613b3f565b60200260200101511515888381518110610fbd57610fbd613b3f565b60200260200101511515145b80156110065750868181518110610fe257610fe2613b3f565b6020026020010151878381518110610ffc57610ffc613b3f565b6020026020010151145b8015611047575085818151811061101f5761101f613b3f565b6020026020010151151586838151811061103b5761103b613b3f565b60200260200101511515145b1561108c5760405162461bcd60e51b8152602060048201526015602482015274111d5c1b1a58d85d19481bdc99195c88199bdd5b99605a1b60448201526064016105f4565b80611096816137b0565b915050610f38565b508681815181106110b1576110b1613b3f565b6020026020010151846000815181106110cc576110cc613b3f565b6020026020010190151590811515815250508581815181106110f0576110f0613b3f565b60200260200101518360008151811061110b5761110b613b3f565b60200260200101818152505084818151811061112957611129613b3f565b60200260200101518260008151811061114457611144613b3f565b60200260200101901515908115158152505087818151811061116857611168613b3f565b60200260200101516001600160a01b031663301f6fe9338686866040518563ffffffff1660e01b81526004016111a19493929190613b87565b600060405180830381600087803b1580156111bb57600080fd5b505af11580156111cf573d6000803e3d6000fd5b5050505080806111de906137b0565b915050610ed6565b50505050610a366001600355565b6111fc611f39565b6112066000611f98565b565b6020810151516001600160a01b031633146112355760405162461bcd60e51b81526004016105f490613a30565b611240600733611d31565b61125c5760405162461bcd60e51b81526004016105f490613a58565b80516060808201516020808501519081015181840151610120909501518251604080890151968901519481015160808a015191516001600160a01b03909716987f083f7516dcfe13a8bef8bcbbe89648ce92bfd7161733f88ba43e1049de6af1b4986112d19896979196909391929190613c21565b60405180910390a250565b60006112e781611e46565b6112f2600083611fea565b6112fb82611f98565b610c6b600033611ed4565b6000805160206140f583398151915261019681611e46565b6001546001600160a01b031690565b6000918252602082815260408084206001600160a01b0393909316845291905290205460ff1690565b7f241ecf16d79d0f8dbfb92cbc07fe17840425976cf0667f022fe9877caa831b086000611383813361132d565b905080156113bf57620151806002544261139d9190613c86565b106113ba5760405162461bcd60e51b81526004016105f490613c99565b6113c9565b6113c98233611ff4565b610a368484611e50565b6113db611b99565b600a54600160a01b900460ff1680156113f8575060008160a00151115b15611406576105a281611bf2565b805161141490600790611d31565b6114305760405162461bcd60e51b81526004016105f490613a58565b336080820152805160405163157db2c360e31b81526001600160a01b039091169063abed96189061146590849060040161382e565b600060405180830381600087803b15801561147f57600080fd5b505af1158015611493573d6000803e3d6000fd5b505050506107136001600355565b6114a9611b99565b6107098161204d565b600154600160a81b900460ff16158080156114d8575060018054600160a01b900460ff16105b806114ff57506114e7306121e7565b1580156114ff575060018054600160a01b900460ff16145b6115625760405162461bcd60e51b815260206004820152602e60248201527f496e697469616c697a61626c653a20636f6e747261637420697320616c72656160448201526d191e481a5b9a5d1a585b1a5e995960921b60648201526084016105f4565b6001805460ff60a01b1916600160a01b179055801561158f576001805460ff60a81b1916600160a81b1790555b611598846121f6565b600980546001600160a01b038086166001600160a01b031990921691909117909155600a80546001600160a81b03191691841691909117600160a01b1790558015610a36576001805460ff60a81b191681556040519081527f7f26b83ff96e1f2b6a682f133852f6798a09c465da95921460cefb38474024989060200160405180910390a150505050565b80516001600160a01b0316331461164c5760405162461bcd60e51b81526004016105f490613a30565b611657600733611d31565b6116735760405162461bcd60e51b81526004016105f490613a58565b60a080820151606080820151602085015191850151610120840151865160c08601519686015160e08701516001600160a01b03909516977fc1a292b7363ad930d02501a9224823f3fc6d6433978aa670da66b24004eaac719794959394929390926116dd90612219565b8a606001516116ed576000611701565b60a08b015161010001516001600160801b03165b8b6060015161171157600061171e565b61171e8c60a0015161228f565b8c60600151611739576117348d60a0015161228f565b61173c565b60005b60a08e01516080015165ffffffffffff1615158e6040516112d19d9c9b9a99989796959493929190613e34565b6000805160206140f583398151915261178181611e46565b6001600160a01b03821661179457600080fd5b336117a0600782611d31565b6117bc5760405162461bcd60e51b81526004016105f490613a58565b611829816001600160a01b031663ac0b05a66040518163ffffffff1660e01b8152600401602060405180830381865afa1580156117fd573d6000803e3d6000fd5b505050506040513d601f19601f8201168201806040525081019061182191906137c9565b6005906122a0565b506000816001600160a01b031663ac0b05a66040518163ffffffff1660e01b8152600401602060405180830381865afa15801561186a573d6000803e3d6000fd5b505050506040513d601f19601f8201168201806040525081019061188e91906137c9565b905061189b6005826122a0565b506118a76005856122b5565b6118b057600080fd5b506001600160a01b0390811660009081526004602052604090208054919093166001600160a01b03199091161790915550565b6118ec82610aec565b6118f581611e46565b610bec8383611ed4565b6000805160206140f583398151915261191781611e46565b6000826001600160a01b031663ac0b05a66040518163ffffffff1660e01b8152600401602060405180830381865afa158015611957573d6000803e3d6000fd5b505050506040513d601f19601f8201168201806040525081019061197b91906137c9565b90506119886007846122a0565b506119946005826122a0565b5050506001600160a01b0316600090815260046020526040902080546001600160a01b0319169055565b6000805160206140f583398151915260006119d9813361132d565b90508015611a155762015180600254426119f39190613c86565b10611a105760405162461bcd60e51b81526004016105f490613c99565b611a1f565b611a1f8233611ff4565b6001600160a01b038416611a3257600080fd5b6000846001600160a01b031663ac0b05a66040518163ffffffff1660e01b8152600401602060405180830381865afa158015611a72573d6000803e3d6000fd5b505050506040513d601f19601f82011682018060405250810190611a9691906137c9565b9050611aa36007866122b5565b611aac57600080fd5b611ab76005826122b5565b611ac057600080fd5b6001600160a01b03948516600090815260046020526040902080546001600160a01b0319169190951617909355505050565b6060611afe6007611b79565b905090565b611b0b611f39565b6001600160a01b038116611b705760405162461bcd60e51b815260206004820152602660248201527f4f776e61626c653a206e6577206f776e657220697320746865207a65726f206160448201526564647265737360d01b60648201526084016105f4565b61071381611f98565b60606000611b86836122ca565b9392505050565b6000611b868383612326565b600260035403611beb5760405162461bcd60e51b815260206004820152601f60248201527f5265656e7472616e637947756172643a207265656e7472616e742063616c6c0060448201526064016105f4565b6002600355565b611bfa612b72565b6060820151611c0a908290612350565b611c1581600161237d565b60e0820151611c259082906123b6565b81516001600160a01b0316815260208083015115159082015260016080820152611c4d612bb6565b60608301511515600003611c7357611c6e611c67846123ce565b829061240b565b611caa565b610180830151611c84908390612429565b611c97611c9084612441565b829061247f565b611caa611ca38461249e565b82906124ce565b611cb88361018001516124ed565b6001600160801b031660a08083019190915260808401516001600160a01b03166060830152830151611ce9906124ed565b6001600160801b031660c080830191909152830151611d07906124ed565b6001600160801b031660e082015261016083015161018082015260a08201819052610bec8261204d565b6000611b86836001600160a01b038416612556565b600080836001600160a01b031663313ce5676040518163ffffffff1660e01b8152600401602060405180830381865afa158015611d87573d6000803e3d6000fd5b505050506040513d601f19601f82011682018060405250810190611dab919061394c565b9050611db7838261256e565b949350505050565b604080516001600160a01b0385811660248301528416604482015260648082018490528251808303909101815260849091019091526020810180516001600160e01b03166323b872dd60e01b179052610a3690859061258a565b6000611e2682600a613fc2565b611e326012600a613fd1565b611e3c9085613fdd565b611b869190613ff4565b6107138133611ff4565b611e5a828261132d565b610c6b576000828152602081815260408083206001600160a01b03851684529091529020805460ff19166001179055611e903390565b6001600160a01b0316816001600160a01b0316837f2f8788117e7eff1d82e926ec794901d17c78024a50270940304540a733656f0d60405160405180910390a45050565b611ede828261132d565b15610c6b576000828152602081815260408083206001600160a01b0385168085529252808320805460ff1916905551339285917ff6391f5c32d9c69d2a47ea670b442974b53935d1edc7fd64eb21e047a839171b9190a45050565b33611f4261131e565b6001600160a01b0316146112065760405162461bcd60e51b815260206004820181905260248201527f4f776e61626c653a2063616c6c6572206973206e6f7420746865206f776e657260448201526064016105f4565b600180546001600160a01b038381166001600160a01b0319831681179093556040519116919082907f8be0079c531659141344cd1fd0a4f28419497f9722a3daafe3b4186f6b6457e090600090a35050565b610c6b8282611e50565b611ffe828261132d565b610c6b5761200b8161265c565b61201683602061266e565b604051602001612027929190614016565b60408051601f198184030181529082905262461bcd60e51b82526105f491600401614085565b805161205b90600790611d31565b6120775760405162461bcd60e51b81526004016105f490613a58565b61208081612809565b6120bd5760405162461bcd60e51b815260206004820152600e60248201526d696e76616c696420706172616d7360901b60448201526064016105f4565b60a0810151336060918201528101516120e5906120d98361287b565b60a084015191906128a7565b806060015180156120f7575080608001515b1561218357600081600001516001600160a01b031663b2016bd46040518163ffffffff1660e01b8152600401602060405180830381865afa158015612140573d6000803e3d6000fd5b505050506040513d601f19601f8201168201806040525081019061216491906137c9565b90506121813383600001516106848461217c876128e6565b611d46565b505b805160405163160717d760e31b81526001600160a01b039091169063b038beb8906121b2908490600401614098565b600060405180830381600087803b1580156121cc57600080fd5b505af11580156121e0573d6000803e3d6000fd5b5050505050565b6001600160a01b03163b151590565b4260025561220333611f98565b61220e600033611fea565b610713600082611fea565b6000816040015160ff1660010361223257506001919050565b816040015160ff1660020361224957506000919050565b60405162461bcd60e51b815260206004820152601b60248201527a696e76616c6964206f7264657220747269676765722061626f766560281b60448201526064016105f4565b61016001516001600160801b031690565b6000611b86836001600160a01b038416612914565b6000611b86836001600160a01b038416612a07565b60608160000180548060200260200160405190810160405280929190818152602001828054801561231a57602002820191906000526020600020905b815481526020019060010190808311612306575b50505050509050919050565b600082600001828154811061233d5761233d613b3f565b9060005260206000200154905092915050565b60408051600380825260808201909252906020820160608036833750505060c08301521515606090910152565b8061238957600061238c565b60015b60ff168260c001516001815181106123a6576123a6613b3f565b6020026020010181815250505050565b808260c001516002815181106123a6576123a6613b3f565b60006001826101c0015151101580156104a657506000826101c001516000815181106123fc576123fc613b3f565b60200260200101511192915050565b8061241757600061241a565b60015b60ff1660809092019190915250565b808260c001516000815181106123a6576123a6613b3f565b60006001826101c001515110156124595760006104a6565b816101c0015160008151811061247157612471613b3f565b602002602001015192915050565b612488816124ed565b6001600160801b03166101009092019190915250565b60006002826101c001515110156124b65760006104a6565b816101c0015160018151811061247157612471613b3f565b6124d7816124ed565b6001600160801b03166101609092019190915250565b60006001600160801b03821115610ae85760405162461bcd60e51b815260206004820152602760248201527f53616665436173743a2076616c756520646f65736e27742066697420696e20316044820152663238206269747360c81b60648201526084016105f4565b60009081526001919091016020526040902054151590565b600061257c6012600a613fc2565b611e3260ff8416600a613fd1565b60006125df826040518060400160405280602081526020017f5361666545524332303a206c6f772d6c6576656c2063616c6c206661696c6564815250856001600160a01b0316612a519092919063ffffffff16565b805190915015610bec57808060200190518101906125fd91906139eb565b610bec5760405162461bcd60e51b815260206004820152602a60248201527f5361666545524332303a204552433230206f7065726174696f6e20646964206e6044820152691bdd081cdd58d8d9595960b21b60648201526084016105f4565b60606104a66001600160a01b03831660145b6060600061267d836002613fdd565b61268890600261379d565b6001600160401b0381111561269f5761269f612c4c565b6040519080825280601f01601f1916602001820160405280156126c9576020820181803683370190505b509050600360fc1b816000815181106126e4576126e4613b3f565b60200101906001600160f81b031916908160001a905350600f60fb1b8160018151811061271357612713613b3f565b60200101906001600160f81b031916908160001a9053506000612737846002613fdd565b61274290600161379d565b90505b60018111156127ba576f181899199a1a9b1b9c1cb0b131b232b360811b85600f166010811061277657612776613b3f565b1a60f81b82828151811061278c5761278c613b3f565b60200101906001600160f81b031916908160001a90535060049490941c936127b3816140ab565b9050612745565b508315611b865760405162461bcd60e51b815260206004820181905260248201527f537472696e67733a20686578206c656e67746820696e73756666696369656e7460448201526064016105f4565b60408101516000901561281e57506000919050565b60608201511515600003612873578160800151156128735760006128458360a0015161228f565b111561285357506000919050565b60a082015161014001516001600160401b03161561287357506000919050565b506001919050565b600060028260c0015151101580156104a6575060008260c001516001815181106123fc576123fc613b3f565b81156128c957806128b95760006128bc565b60015b60ff166080840152505050565b806128d55760006128d8565b60015b60ff16610100840152505050565b600060018260c001515110156128fd5760006104a6565b8160c0015160008151811061247157612471613b3f565b600081815260018301602052604081205480156129fd576000612938600183613c86565b855490915060009061294c90600190613c86565b90508181146129b157600086600001828154811061296c5761296c613b3f565b906000526020600020015490508087600001848154811061298f5761298f613b3f565b6000918252602080832090910192909255918252600188019052604090208390555b85548690806129c2576129c26140c2565b6001900381819060005260206000200160009055905585600101600086815260200190815260200160002060009055600193505050506104a6565b60009150506104a6565b6000612a138383612556565b612a49575081546001818101845560008481526020808220909301849055845484825282860190935260409020919091556104a6565b5060006104a6565b6060611db7848460008585600080866001600160a01b03168587604051612a7891906140d8565b60006040518083038185875af1925050503d8060008114612ab5576040519150601f19603f3d011682016040523d82523d6000602084013e612aba565b606091505b5091509150612acb87838387612ad6565b979650505050505050565b60608315612b43578251600003612b3c57612af0856121e7565b612b3c5760405162461bcd60e51b815260206004820152601d60248201527f416464726573733a2063616c6c20746f206e6f6e2d636f6e747261637400000060448201526064016105f4565b5081611db7565b611db78383815115612b585781518083602001fd5b8060405162461bcd60e51b81526004016105f49190614085565b6040805160e08101825260008082526020820181905291810182905260608101829052608081019190915260a08101612ba9612bb6565b8152602001606081525090565b604080516101a081018252600080825260208201819052918101829052606081018290526080810182905260a0810182905260c0810182905260e08101829052610100810182905261012081018290526101408101829052610160810182905261018081019190915290565b600060208284031215612c3457600080fd5b81356001600160e01b031981168114611b8657600080fd5b634e487b7160e01b600052604160045260246000fd5b6040516101e081016001600160401b0381118282101715612c8557612c85612c4c565b60405290565b60405161018081016001600160401b0381118282101715612c8557612c85612c4c565b60405160c081016001600160401b0381118282101715612c8557612c85612c4c565b6040516101a081016001600160401b0381118282101715612c8557612c85612c4c565b60405160a081016001600160401b0381118282101715612c8557612c85612c4c565b60405160e081016001600160401b0381118282101715612c8557612c85612c4c565b604051601f8201601f191681016001600160401b0381118282101715612d5f57612d5f612c4c565b604052919050565b6001600160a01b038116811461071357600080fd5b8035612d8781612d67565b919050565b801515811461071357600080fd5b8035612d8781612d8c565b60ff8116811461071357600080fd5b8035612d8781612da5565b80356001600160401b0381168114612d8757600080fd5b60006001600160401b03821115612def57612def612c4c565b5060051b60200190565b600082601f830112612e0a57600080fd5b81356020612e1f612e1a83612dd6565b612d37565b82815260059290921b84018101918181019086841115612e3e57600080fd5b8286015b84811015612e595780358352918301918301612e42565b509695505050505050565b60006101e08284031215612e7757600080fd5b612e7f612c62565b9050612e8a82612d7c565b8152612e9860208301612d9a565b602082015260408201356040820152612eb360608301612d9a565b6060820152612ec460808301612d7c565b608082015260a082013560a082015260c082013560c082015260e082013560e0820152610100612ef5818401612d9a565b90820152610120612f07838201612db4565b90820152610140612f19838201612dbf565b90820152610160828101359082015261018080830135908201526101a0612f41818401612db4565b908201526101c0828101356001600160401b03811115612f6057600080fd5b612f6c85828601612df9565b82840152505092915050565b600060208284031215612f8a57600080fd5b81356001600160401b03811115612fa057600080fd5b611db784828501612e64565b600060208284031215612fbe57600080fd5b5035919050565b600060208284031215612fd757600080fd5b8135611b8681612d67565b60008060408385031215612ff557600080fd5b82359150602083013561300781612d67565b809150509250929050565b803563ffffffff81168114612d8757600080fd5b80356001600160d81b0381168114612d8757600080fd5b6000610180828403121561305057600080fd5b613058612c8b565b905061306382612d7c565b815261307160208301612d9a565b602082015261308260408301613012565b604082015261309360608301613026565b60608201526080820135608082015260a082013560a082015260c082013560c082015260e082013560e082015261010080830135818301525061012080830135818301525061014080830135818301525061016080830135818301525092915050565b60006020828403121561310857600080fd5b81356001600160401b038082111561311f57600080fd5b90830190610220828603121561313457600080fd5b61313c612cae565b82358281111561314b57600080fd5b61315787828601612e64565b825250613167866020850161303d565b60208201526101a08301358281111561317f57600080fd5b61318b87828601612df9565b60408301525061319e6101c08401612d7c565b60608201526131b06101e08401612d7c565b6080820152610200929092013560a0830152509392505050565b6000602082840312156131dc57600080fd5b8135611b8681612d8c565b600082601f8301126131f857600080fd5b81356020613208612e1a83612dd6565b82815260059290921b8401810191818101908684111561322757600080fd5b8286015b84811015612e5957803561323e81612d8c565b835291830191830161322b565b6000806000806080858703121561326157600080fd5b84356001600160401b038082111561327857600080fd5b818701915087601f83011261328c57600080fd5b8135602061329c612e1a83612dd6565b82815260059290921b8401810191818101908b8411156132bb57600080fd5b948201945b838610156132e25785356132d381612d67565b825294820194908201906132c0565b985050880135925050808211156132f857600080fd5b613304888389016131e7565b9450604087013591508082111561331a57600080fd5b61332688838901612df9565b9350606087013591508082111561333c57600080fd5b50613349878288016131e7565b91505092959194509250565b803565ffffffffffff81168114612d8757600080fd5b80356001600160801b0381168114612d8757600080fd5b60006101a0828403121561339557600080fd5b61339d612cd0565b90506133a882612db4565b81526133b660208301613012565b60208201526133c760408301612db4565b60408201526133d860608301612d7c565b60608201526133e960808301613355565b60808201526133fa60a0830161336b565b60a082015261340b60c0830161336b565b60c082015261341c60e0830161336b565b60e082015261010061342f81840161336b565b90820152610120613441838201612dbf565b90820152610140613453838201612dbf565b9082015261016061346583820161336b565b818301525061018080830135818301525092915050565b600082601f83011261348d57600080fd5b81356001600160401b038111156134a6576134a6612c4c565b6134b9601f8201601f1916602001612d37565b8181528460208386010111156134ce57600080fd5b816020850160208301376000918101602001919091529392505050565b6000602082840312156134fd57600080fd5b81356001600160401b038082111561351457600080fd5b90830190610220828603121561352957600080fd5b613531612cf3565b61353b8684613382565b81526101a08301358281111561355057600080fd5b61355c87828601612e64565b60208301525061356f6101c08401612db4565b60408201526101e08301358281111561358757600080fd5b6135938782860161347c565b60608301525061020092909201356080830152509392505050565b6001600160a01b03169052565b6001600160a01b0391909116815260200190565b6000602082840312156135e157600080fd5b81356001600160401b03808211156135f857600080fd5b90830190610260828603121561360d57600080fd5b613615612d15565b61361e83612d7c565b815261362c60208401612d9a565b60208201526040830135604082015261364760608401612d9a565b606082015261365860808401612d9a565b608082015261366a8660a08501613382565b60a08201526102408301358281111561368257600080fd5b61368e87828601612df9565b60c08301525095945050505050565b6000806000606084860312156136b257600080fd5b83356136bd81612d67565b925060208401356136cd81612d67565b915060408401356136dd81612d67565b809150509250925092565b600080604083850312156136fb57600080fd5b823561370681612d67565b9150602083013561300781612d67565b6020808252825182820181905260009190848201906040850190845b818110156137575783516001600160a01b031683529284019291840191600101613732565b50909695505050505050565b6000806040838503121561377657600080fd5b505080516020909101519092909150565b634e487b7160e01b600052601160045260246000fd5b808201808211156104a6576104a6613787565b6000600182016137c2576137c2613787565b5060010190565b6000602082840312156137db57600080fd5b8151611b8681612d67565b6001600160401b03169052565b600081518084526020808501945080840160005b8381101561382357815187529582019590820190600101613807565b509495945050505050565b602081526138406020820183516135ae565b60006020830151613855604084018215159052565b50604083015160608301526060830151613873608084018215159052565b50608083015161388660a08401826135ae565b5060a083015160c083015260c083015160e083015260e08301516101008181850152808501519150506101206138bf8185018315159052565b84015190506101406138d58482018360ff169052565b84015190506101606138e9848201836137e6565b840151610180848101919091528401516101a08085019190915284015190506101c06139198185018360ff169052565b8401516101e0848101529050611db76102008401826137f3565b60006020828403121561394557600080fd5b5051919050565b60006020828403121561395e57600080fd5b8151611b8681612da5565b60006101408201905061397d8284516135ae565b60208301516020830152604083015161399a604084018215159052565b50606083015160608301526080830151608083015260a083015160a083015260c083015160c083015260e083015160e083015261010080840151818401525061012080840151818401525092915050565b6000602082840312156139fd57600080fd5b8151611b8681612d8c565b8082018281126000831280158216821582161715613a2857613a28613787565b505092915050565b6020808252600e908201526d34b73b30b634b21039b2b73232b960911b604082015260600190565b6020808252600e908201526d1a5b9d985b1a59081b585c9ad95d60921b604082015260600190565b60006101808083018f845260208f818601528e60408601528d151560608601528c60808601528b60a08601528260c08601528192508a518083526101a086019350818c01925060005b81811015613ae557835185529382019392820192600101613ac9565b5050505080915050613afa60e08301886135ae565b613b086101008301876135ae565b613b166101208301866135ae565b60ff8416610140830152613b2e6101608301846137e6565b9d9c50505050505050505050505050565b634e487b7160e01b600052603260045260246000fd5b600081518084526020808501945080840160005b83811015613823578151151587529582019590820190600101613b69565b6001600160a01b0385168152608060208201819052600090613bab90830186613b55565b8281036040840152613bbd81866137f3565b90508281036060840152612acb8185613b55565b60005b83811015613bec578181015183820152602001613bd4565b50506000910152565b60008151808452613c0d816020860160208601613bd1565b601f01601f19169290920160200192915050565b881515815287151560208201526001600160401b03871660408201526001600160a01b038616606082015260ff8516608082015261010060a08201819052600090613c6e83820187613bf5565b60c0840195909552505060e001529695505050505050565b818103818111156104a6576104a6613787565b6020808252600e908201526d1858c81d1a5b59481c185cdcd95960921b604082015260600190565b6001600160801b03169052565b600061026060018060a01b0383511684526020830151151560208501526040830151604085015260608301511515606085015260808301511515608085015260a0830151613d2260a08601825160ff169052565b602081015163ffffffff1660c0860152604081015160ff1660e08601526060810151610100613d53818801836135ae565b60808301519150610120613d708189018465ffffffffffff169052565b60a08401519250610140613d86818a0185613cc1565b60c08501519350610160613d9c818b0186613cc1565b60e08601519450610180613db2818c0187613cc1565b848701519550613dc66101a08c0187613cc1565b838701519550613dda6101c08c01876137e6565b828701519550613dee6101e08c01876137e6565b818701519550613e026102008c0187613cc1565b808701516102208c01525050505050505060c083015181610240860152613e2b828601826137f3565b95945050505050565b8d151581528c151560208201526001600160401b038c16604082015260006101a0613e62606084018e6135ae565b613e6f608084018d613cc1565b613e7c60a084018c613cc1565b613e8960c084018b613cc1565b88151560e08401528761010084015286610120840152613ead610140840187613cc1565b84151561016084015280610180840152613ec981840185613cce565b9150509e9d5050505050505050505050505050565b600181815b80851115613f19578160001904821115613eff57613eff613787565b80851615613f0c57918102915b93841c9390800290613ee3565b509250929050565b600082613f30575060016104a6565b81613f3d575060006104a6565b8160018114613f535760028114613f5d57613f79565b60019150506104a6565b60ff841115613f6e57613f6e613787565b50506001821b6104a6565b5060208310610133831016604e8410600b8410161715613f9c575081810a6104a6565b613fa68383613ede565b8060001904821115613fba57613fba613787565b029392505050565b6000611b8660ff841683613f21565b6000611b868383613f21565b80820281158282048414176104a6576104a6613787565b60008261401157634e487b7160e01b600052601260045260246000fd5b500490565b76020b1b1b2b9b9a1b7b73a3937b61d1030b1b1b7bab73a1604d1b815260008351614048816017850160208801613bd1565b7001034b99036b4b9b9b4b733903937b6329607d1b6017918401918201528351614079816028840160208801613bd1565b01602801949350505050565b602081526000611b866020830184613bf5565b602081526000611b866020830184613cce565b6000816140ba576140ba613787565b506000190190565b634e487b7160e01b600052603160045260246000fd5b600082516140ea818460208701613bd1565b919091019291505056fe8d1089725c0dc266707fa6207730fb801dcd03108bfed7a21099bd303651d2b7a2646970667358221220ef4122e10572ded77044431abf91f6c02622a72dbb24a210dacce57c648ca3e564736f6c63430008110033",
  "linkReferences": {},
  "deployedLinkReferences": {}
}