{
  "_format": "hh-sol-artifact-1",
  "contractName": "MarketRouter",
  "sourceName": "contracts/market/MarketRouter.sol",
  "abi": [
    {
      "anonymous": false,
      "inputs": [
        {
          "indexed": true,
          "internalType": "address",
          "name": "account",
          "type": "address"
        },
        {
          "indexed": false,
          "internalType": "bool",
          "name": "isLong",
          "type": "bool"
        },
        {
          "indexed": false,
          "internalType": "bool",
          "name": "isIncrease",
          "type": "bool"
        },
        {
          "indexed": false,
          "internalType": "uint256",
          "name": "orderID",
          "type": "uint256"
        },
        {
          "indexed": false,
          "internalType": "address",
          "name": "market",
          "type": "address"
        },
        {
          "indexed": false,
          "internalType": "uint8",
          "name": "reason",
          "type": "uint8"
        },
        {
          "indexed": false,
          "internalType": "string",
          "name": "reasonStr",
          "type": "string"
        },
        {
          "indexed": false,
          "internalType": "uint256",
          "name": "price",
          "type": "uint256"
        },
        {
          "indexed": false,
          "internalType": "int256",
          "name": "dPNL",
          "type": "int256"
        }
      ],
      "name": "DeleteOrder",
      "type": "event"
    },
    {
      "anonymous": false,
      "inputs": [
        {
          "indexed": false,
          "internalType": "uint8",
          "name": "version",
          "type": "uint8"
        }
      ],
      "name": "Initialized",
      "type": "event"
    },
    {
      "anonymous": false,
      "inputs": [
        {
          "indexed": true,
          "internalType": "address",
          "name": "previousOwner",
          "type": "address"
        },
        {
          "indexed": true,
          "internalType": "address",
          "name": "newOwner",
          "type": "address"
        }
      ],
      "name": "OwnershipTransferred",
      "type": "event"
    },
    {
      "anonymous": false,
      "inputs": [
        {
          "indexed": true,
          "internalType": "bytes32",
          "name": "role",
          "type": "bytes32"
        },
        {
          "indexed": true,
          "internalType": "bytes32",
          "name": "previousAdminRole",
          "type": "bytes32"
        },
        {
          "indexed": true,
          "internalType": "bytes32",
          "name": "newAdminRole",
          "type": "bytes32"
        }
      ],
      "name": "RoleAdminChanged",
      "type": "event"
    },
    {
      "anonymous": false,
      "inputs": [
        {
          "indexed": true,
          "internalType": "bytes32",
          "name": "role",
          "type": "bytes32"
        },
        {
          "indexed": true,
          "internalType": "address",
          "name": "account",
          "type": "address"
        },
        {
          "indexed": true,
          "internalType": "address",
          "name": "sender",
          "type": "address"
        }
      ],
      "name": "RoleGranted",
      "type": "event"
    },
    {
      "anonymous": false,
      "inputs": [
        {
          "indexed": true,
          "internalType": "bytes32",
          "name": "role",
          "type": "bytes32"
        },
        {
          "indexed": true,
          "internalType": "address",
          "name": "account",
          "type": "address"
        },
        {
          "indexed": true,
          "internalType": "address",
          "name": "sender",
          "type": "address"
        }
      ],
      "name": "RoleRevoked",
      "type": "event"
    },
    {
      "anonymous": false,
      "inputs": [
        {
          "indexed": true,
          "internalType": "address",
          "name": "account",
          "type": "address"
        },
        {
          "indexed": false,
          "internalType": "bool",
          "name": "isLong",
          "type": "bool"
        },
        {
          "indexed": false,
          "internalType": "bool",
          "name": "isIncrease",
          "type": "bool"
        },
        {
          "indexed": false,
          "internalType": "uint256",
          "name": "orderID",
          "type": "uint256"
        },
        {
          "indexed": false,
          "internalType": "address",
          "name": "market",
          "type": "address"
        },
        {
          "indexed": false,
          "internalType": "uint256",
          "name": "size",
          "type": "uint256"
        },
        {
          "indexed": false,
          "internalType": "uint256",
          "name": "collateral",
          "type": "uint256"
        },
        {
          "indexed": false,
          "internalType": "uint256",
          "name": "triggerPrice",
          "type": "uint256"
        },
        {
          "indexed": false,
          "internalType": "bool",
          "name": "triggerAbove",
          "type": "bool"
        },
        {
          "indexed": false,
          "internalType": "uint256",
          "name": "tp",
          "type": "uint256"
        },
        {
          "indexed": false,
          "internalType": "uint256",
          "name": "sl",
          "type": "uint256"
        },
        {
          "indexed": false,
          "internalType": "uint128",
          "name": "fromOrder",
          "type": "uint128"
        },
        {
          "indexed": false,
          "internalType": "bool",
          "name": "isKeepLev",
          "type": "bool"
        },
        {
          "components": [
            {
              "internalType": "address",
              "name": "_market",
              "type": "address"
            },
            {
              "internalType": "bool",
              "name": "_isLong",
              "type": "bool"
            },
            {
              "internalType": "uint256",
              "name": "_oraclePrice",
              "type": "uint256"
            },
            {
              "internalType": "bool",
              "name": "isOpen",
              "type": "bool"
            },
            {
              "internalType": "bool",
              "name": "isCreate",
              "type": "bool"
            },
            {
              "components": [
                {
                  "internalType": "uint8",
                  "name": "version",
                  "type": "uint8"
                },
                {
                  "internalType": "uint32",
                  "name": "updatedAtBlock",
                  "type": "uint32"
                },
                {
                  "internalType": "uint8",
                  "name": "triggerAbove",
                  "type": "uint8"
                },
                {
                  "internalType": "address",
                  "name": "account",
                  "type": "address"
                },
                {
                  "internalType": "uint48",
                  "name": "extra3",
                  "type": "uint48"
                },
                {
                  "internalType": "uint128",
                  "name": "collateral",
                  "type": "uint128"
                },
                {
                  "internalType": "uint128",
                  "name": "size",
                  "type": "uint128"
                },
                {
                  "internalType": "uint128",
                  "name": "price",
                  "type": "uint128"
                },
                {
                  "internalType": "uint128",
                  "name": "extra1",
                  "type": "uint128"
                },
                {
                  "internalType": "uint64",
                  "name": "orderID",
                  "type": "uint64"
                },
                {
                  "internalType": "uint64",
                  "name": "extra2",
                  "type": "uint64"
                },
                {
                  "internalType": "uint128",
                  "name": "extra0",
                  "type": "uint128"
                },
                {
                  "internalType": "bytes32",
                  "name": "refCode",
                  "type": "bytes32"
                }
              ],
              "internalType": "struct Order.Props",
              "name": "_order",
              "type": "tuple"
            },
            {
              "internalType": "uint256[]",
              "name": "inputs",
              "type": "uint256[]"
            }
          ],
          "indexed": false,
          "internalType": "struct MarketDataTypes.UpdateOrderInputs",
          "name": "params",
          "type": "tuple"
        }
      ],
      "name": "UpdateOrder",
      "type": "event"
    },
    {
      "anonymous": false,
      "inputs": [
        {
          "indexed": true,
          "internalType": "address",
          "name": "account",
          "type": "address"
        },
        {
          "indexed": false,
          "internalType": "uint256",
          "name": "collateralDelta",
          "type": "uint256"
        },
        {
          "indexed": false,
          "internalType": "int256",
          "name": "collateralDeltaAfter",
          "type": "int256"
        },
        {
          "indexed": false,
          "internalType": "uint256",
          "name": "sizeDelta",
          "type": "uint256"
        },
        {
          "indexed": false,
          "internalType": "bool",
          "name": "isLong",
          "type": "bool"
        },
        {
          "indexed": false,
          "internalType": "uint256",
          "name": "price",
          "type": "uint256"
        },
        {
          "indexed": false,
          "internalType": "int256",
          "name": "pnl",
          "type": "int256"
        },
        {
          "indexed": false,
          "internalType": "int256[]",
          "name": "fees",
          "type": "int256[]"
        },
        {
          "indexed": false,
          "internalType": "address",
          "name": "market",
          "type": "address"
        },
        {
          "indexed": false,
          "internalType": "address",
          "name": "collateralToken",
          "type": "address"
        },
        {
          "indexed": false,
          "internalType": "address",
          "name": "indexToken",
          "type": "address"
        },
        {
          "indexed": false,
          "internalType": "uint256",
          "name": "category",
          "type": "uint256"
        },
        {
          "indexed": false,
          "internalType": "uint64",
          "name": "fromOrder",
          "type": "uint64"
        }
      ],
      "name": "UpdatePosition",
      "type": "event"
    },
    {
      "inputs": [],
      "name": "DEFAULT_ADMIN_ROLE",
      "outputs": [
        {
          "internalType": "bytes32",
          "name": "",
          "type": "bytes32"
        }
      ],
      "stateMutability": "view",
      "type": "function"
    },
    {
      "inputs": [
        {
          "internalType": "address",
          "name": "_market",
          "type": "address"
        },
        {
          "internalType": "address",
          "name": "vault",
          "type": "address"
        }
      ],
      "name": "addMarket",
      "outputs": [],
      "stateMutability": "nonpayable",
      "type": "function"
    },
    {
      "inputs": [
        {
          "internalType": "address[]",
          "name": "_markets",
          "type": "address[]"
        },
        {
          "internalType": "bool[]",
          "name": "_isIncreaseList",
          "type": "bool[]"
        },
        {
          "internalType": "uint256[]",
          "name": "_orderIDList",
          "type": "uint256[]"
        },
        {
          "internalType": "bool[]",
          "name": "_isLongList",
          "type": "bool[]"
        }
      ],
      "name": "cancelOrderList",
      "outputs": [],
      "stateMutability": "nonpayable",
      "type": "function"
    },
    {
      "inputs": [
        {
          "components": [
            {
              "internalType": "address",
              "name": "_market",
              "type": "address"
            },
            {
              "internalType": "bool",
              "name": "_isLong",
              "type": "bool"
            },
            {
              "internalType": "uint256",
              "name": "_oraclePrice",
              "type": "uint256"
            },
            {
              "internalType": "bool",
              "name": "isOpen",
              "type": "bool"
            },
            {
              "internalType": "address",
              "name": "_account",
              "type": "address"
            },
            {
              "internalType": "uint256",
              "name": "_sizeDelta",
              "type": "uint256"
            },
            {
              "internalType": "uint256",
              "name": "_price",
              "type": "uint256"
            },
            {
              "internalType": "uint256",
              "name": "_slippage",
              "type": "uint256"
            },
            {
              "internalType": "bool",
              "name": "_isExec",
              "type": "bool"
            },
            {
              "internalType": "uint8",
              "name": "liqState",
              "type": "uint8"
            },
            {
              "internalType": "uint64",
              "name": "_fromOrder",
              "type": "uint64"
            },
            {
              "internalType": "bytes32",
              "name": "_refCode",
              "type": "bytes32"
            },
            {
              "internalType": "uint256",
              "name": "collateralDelta",
              "type": "uint256"
            },
            {
              "internalType": "uint8",
              "name": "execNum",
              "type": "uint8"
            },
            {
              "internalType": "uint256[]",
              "name": "inputs",
              "type": "uint256[]"
            }
          ],
          "internalType": "struct MarketDataTypes.UpdatePositionInputs",
          "name": "_vars",
          "type": "tuple"
        }
      ],
      "name": "decreasePosition",
      "outputs": [],
      "stateMutability": "nonpayable",
      "type": "function"
    },
    {
      "inputs": [
        {
          "components": [
            {
              "components": [
                {
                  "internalType": "uint8",
                  "name": "version",
                  "type": "uint8"
                },
                {
                  "internalType": "uint32",
                  "name": "updatedAtBlock",
                  "type": "uint32"
                },
                {
                  "internalType": "uint8",
                  "name": "triggerAbove",
                  "type": "uint8"
                },
                {
                  "internalType": "address",
                  "name": "account",
                  "type": "address"
                },
                {
                  "internalType": "uint48",
                  "name": "extra3",
                  "type": "uint48"
                },
                {
                  "internalType": "uint128",
                  "name": "collateral",
                  "type": "uint128"
                },
                {
                  "internalType": "uint128",
                  "name": "size",
                  "type": "uint128"
                },
                {
                  "internalType": "uint128",
                  "name": "price",
                  "type": "uint128"
                },
                {
                  "internalType": "uint128",
                  "name": "extra1",
                  "type": "uint128"
                },
                {
                  "internalType": "uint64",
                  "name": "orderID",
                  "type": "uint64"
                },
                {
                  "internalType": "uint64",
                  "name": "extra2",
                  "type": "uint64"
                },
                {
                  "internalType": "uint128",
                  "name": "extra0",
                  "type": "uint128"
                },
                {
                  "internalType": "bytes32",
                  "name": "refCode",
                  "type": "bytes32"
                }
              ],
              "internalType": "struct Order.Props",
              "name": "order",
              "type": "tuple"
            },
            {
              "components": [
                {
                  "internalType": "address",
                  "name": "_market",
                  "type": "address"
                },
                {
                  "internalType": "bool",
                  "name": "_isLong",
                  "type": "bool"
                },
                {
                  "internalType": "uint256",
                  "name": "_oraclePrice",
                  "type": "uint256"
                },
                {
                  "internalType": "bool",
                  "name": "isOpen",
                  "type": "bool"
                },
                {
                  "internalType": "address",
                  "name": "_account",
                  "type": "address"
                },
                {
                  "internalType": "uint256",
                  "name": "_sizeDelta",
                  "type": "uint256"
                },
                {
                  "internalType": "uint256",
                  "name": "_price",
                  "type": "uint256"
                },
                {
                  "internalType": "uint256",
                  "name": "_slippage",
                  "type": "uint256"
                },
                {
                  "internalType": "bool",
                  "name": "_isExec",
                  "type": "bool"
                },
                {
                  "internalType": "uint8",
                  "name": "liqState",
                  "type": "uint8"
                },
                {
                  "internalType": "uint64",
                  "name": "_fromOrder",
                  "type": "uint64"
                },
                {
                  "internalType": "bytes32",
                  "name": "_refCode",
                  "type": "bytes32"
                },
                {
                  "internalType": "uint256",
                  "name": "collateralDelta",
                  "type": "uint256"
                },
                {
                  "internalType": "uint8",
                  "name": "execNum",
                  "type": "uint8"
                },
                {
                  "internalType": "uint256[]",
                  "name": "inputs",
                  "type": "uint256[]"
                }
              ],
              "internalType": "struct MarketDataTypes.UpdatePositionInputs",
              "name": "inputs",
              "type": "tuple"
            },
            {
              "internalType": "uint8",
              "name": "reason",
              "type": "uint8"
            },
            {
              "internalType": "string",
              "name": "reasonStr",
              "type": "string"
            },
            {
              "internalType": "int256",
              "name": "dPNL",
              "type": "int256"
            }
          ],
          "internalType": "struct MarketOrderCallBackIntl.DeleteOrderEvent",
          "name": "e",
          "type": "tuple"
        }
      ],
      "name": "deleteOrderCallback",
      "outputs": [],
      "stateMutability": "nonpayable",
      "type": "function"
    },
    {
      "inputs": [
        {
          "internalType": "address",
          "name": "account",
          "type": "address"
        }
      ],
      "name": "getAccountSize",
      "outputs": [
        {
          "internalType": "uint256",
          "name": "sizesL",
          "type": "uint256"
        },
        {
          "internalType": "uint256",
          "name": "sizesS",
          "type": "uint256"
        }
      ],
      "stateMutability": "view",
      "type": "function"
    },
    {
      "inputs": [],
      "name": "getGlobalPNL",
      "outputs": [
        {
          "internalType": "int256",
          "name": "pnl",
          "type": "int256"
        }
      ],
      "stateMutability": "view",
      "type": "function"
    },
    {
      "inputs": [],
      "name": "getGlobalSize",
      "outputs": [
        {
          "internalType": "uint256",
          "name": "sizesLong",
          "type": "uint256"
        },
        {
          "internalType": "uint256",
          "name": "sizesShort",
          "type": "uint256"
        }
      ],
      "stateMutability": "view",
      "type": "function"
    },
    {
      "inputs": [],
      "name": "getHooksCalls",
      "outputs": [
        {
          "components": [
            {
              "internalType": "bool",
              "name": "updatePosition",
              "type": "bool"
            },
            {
              "internalType": "bool",
              "name": "updateOrder",
              "type": "bool"
            },
            {
              "internalType": "bool",
              "name": "deleteOrder",
              "type": "bool"
            }
          ],
          "internalType": "struct MarketCallBackIntl.Calls",
          "name": "",
          "type": "tuple"
        }
      ],
      "stateMutability": "pure",
      "type": "function"
    },
    {
      "inputs": [],
      "name": "getMarkets",
      "outputs": [
        {
          "internalType": "address[]",
          "name": "",
          "type": "address[]"
        }
      ],
      "stateMutability": "view",
      "type": "function"
    },
    {
      "inputs": [
        {
          "internalType": "bytes32",
          "name": "role",
          "type": "bytes32"
        }
      ],
      "name": "getRoleAdmin",
      "outputs": [
        {
          "internalType": "bytes32",
          "name": "",
          "type": "bytes32"
        }
      ],
      "stateMutability": "view",
      "type": "function"
    },
    {
      "inputs": [
        {
          "internalType": "bytes32",
          "name": "role",
          "type": "bytes32"
        },
        {
          "internalType": "address",
          "name": "account",
          "type": "address"
        }
      ],
      "name": "grantAndRevoke",
      "outputs": [],
      "stateMutability": "nonpayable",
      "type": "function"
    },
    {
      "inputs": [
        {
          "internalType": "bytes32",
          "name": "role",
          "type": "bytes32"
        },
        {
          "internalType": "address",
          "name": "account",
          "type": "address"
        }
      ],
      "name": "grantRole",
      "outputs": [],
      "stateMutability": "nonpayable",
      "type": "function"
    },
    {
      "inputs": [],
      "name": "gv",
      "outputs": [
        {
          "internalType": "address",
          "name": "",
          "type": "address"
        }
      ],
      "stateMutability": "view",
      "type": "function"
    },
    {
      "inputs": [
        {
          "internalType": "bytes32",
          "name": "role",
          "type": "bytes32"
        },
        {
          "internalType": "address",
          "name": "account",
          "type": "address"
        }
      ],
      "name": "hasRole",
      "outputs": [
        {
          "internalType": "bool",
          "name": "",
          "type": "bool"
        }
      ],
      "stateMutability": "view",
      "type": "function"
    },
    {
      "inputs": [
        {
          "components": [
            {
              "internalType": "address",
              "name": "_market",
              "type": "address"
            },
            {
              "internalType": "bool",
              "name": "_isLong",
              "type": "bool"
            },
            {
              "internalType": "uint256",
              "name": "_oraclePrice",
              "type": "uint256"
            },
            {
              "internalType": "bool",
              "name": "isOpen",
              "type": "bool"
            },
            {
              "internalType": "address",
              "name": "_account",
              "type": "address"
            },
            {
              "internalType": "uint256",
              "name": "_sizeDelta",
              "type": "uint256"
            },
            {
              "internalType": "uint256",
              "name": "_price",
              "type": "uint256"
            },
            {
              "internalType": "uint256",
              "name": "_slippage",
              "type": "uint256"
            },
            {
              "internalType": "bool",
              "name": "_isExec",
              "type": "bool"
            },
            {
              "internalType": "uint8",
              "name": "liqState",
              "type": "uint8"
            },
            {
              "internalType": "uint64",
              "name": "_fromOrder",
              "type": "uint64"
            },
            {
              "internalType": "bytes32",
              "name": "_refCode",
              "type": "bytes32"
            },
            {
              "internalType": "uint256",
              "name": "collateralDelta",
              "type": "uint256"
            },
            {
              "internalType": "uint8",
              "name": "execNum",
              "type": "uint8"
            },
            {
              "internalType": "uint256[]",
              "name": "inputs",
              "type": "uint256[]"
            }
          ],
          "internalType": "struct MarketDataTypes.UpdatePositionInputs",
          "name": "_inputs",
          "type": "tuple"
        }
      ],
      "name": "increasePosition",
      "outputs": [],
      "stateMutability": "nonpayable",
      "type": "function"
    },
    {
      "inputs": [
        {
          "internalType": "address",
          "name": "_f",
          "type": "address"
        },
        {
          "internalType": "address",
          "name": "_gv",
          "type": "address"
        },
        {
          "internalType": "address",
          "name": "vr",
          "type": "address"
        }
      ],
      "name": "initialize",
      "outputs": [],
      "stateMutability": "nonpayable",
      "type": "function"
    },
    {
      "inputs": [],
      "name": "isEnableMarketConvertToOrder",
      "outputs": [
        {
          "internalType": "bool",
          "name": "",
          "type": "bool"
        }
      ],
      "stateMutability": "view",
      "type": "function"
    },
    {
      "inputs": [],
      "name": "owner",
      "outputs": [
        {
          "internalType": "address",
          "name": "",
          "type": "address"
        }
      ],
      "stateMutability": "view",
      "type": "function"
    },
    {
      "inputs": [
        {
          "internalType": "address",
          "name": "_market",
          "type": "address"
        }
      ],
      "name": "removeMarket",
      "outputs": [],
      "stateMutability": "nonpayable",
      "type": "function"
    },
    {
      "inputs": [],
      "name": "renounceOwnership",
      "outputs": [],
      "stateMutability": "nonpayable",
      "type": "function"
    },
    {
      "inputs": [
        {
          "internalType": "bytes32",
          "name": "role",
          "type": "bytes32"
        },
        {
          "internalType": "address",
          "name": "account",
          "type": "address"
        }
      ],
      "name": "renounceRole",
      "outputs": [],
      "stateMutability": "nonpayable",
      "type": "function"
    },
    {
      "inputs": [
        {
          "internalType": "bytes32",
          "name": "role",
          "type": "bytes32"
        },
        {
          "internalType": "address",
          "name": "account",
          "type": "address"
        }
      ],
      "name": "revokeRole",
      "outputs": [],
      "stateMutability": "nonpayable",
      "type": "function"
    },
    {
      "inputs": [
        {
          "internalType": "bool",
          "name": "_isEnableMarketConvertToOrder",
          "type": "bool"
        }
      ],
      "name": "setIsEnableMarketConvertToOrder",
      "outputs": [],
      "stateMutability": "nonpayable",
      "type": "function"
    },
    {
      "inputs": [
        {
          "internalType": "bytes4",
          "name": "interfaceId",
          "type": "bytes4"
        }
      ],
      "name": "supportsInterface",
      "outputs": [
        {
          "internalType": "bool",
          "name": "",
          "type": "bool"
        }
      ],
      "stateMutability": "view",
      "type": "function"
    },
    {
      "inputs": [
        {
          "internalType": "address",
          "name": "to",
          "type": "address"
        }
      ],
      "name": "transferAdmin",
      "outputs": [],
      "stateMutability": "nonpayable",
      "type": "function"
    },
    {
      "inputs": [
        {
          "internalType": "address",
          "name": "newOwner",
          "type": "address"
        }
      ],
      "name": "transferOwnership",
      "outputs": [],
      "stateMutability": "nonpayable",
      "type": "function"
    },
    {
      "inputs": [
        {
          "components": [
            {
              "internalType": "address",
              "name": "_market",
              "type": "address"
            },
            {
              "internalType": "bool",
              "name": "_isLong",
              "type": "bool"
            },
            {
              "internalType": "uint256",
              "name": "_oraclePrice",
              "type": "uint256"
            },
            {
              "internalType": "bool",
              "name": "isOpen",
              "type": "bool"
            },
            {
              "internalType": "bool",
              "name": "isCreate",
              "type": "bool"
            },
            {
              "components": [
                {
                  "internalType": "uint8",
                  "name": "version",
                  "type": "uint8"
                },
                {
                  "internalType": "uint32",
                  "name": "updatedAtBlock",
                  "type": "uint32"
                },
                {
                  "internalType": "uint8",
                  "name": "triggerAbove",
                  "type": "uint8"
                },
                {
                  "internalType": "address",
                  "name": "account",
                  "type": "address"
                },
                {
                  "internalType": "uint48",
                  "name": "extra3",
                  "type": "uint48"
                },
                {
                  "internalType": "uint128",
                  "name": "collateral",
                  "type": "uint128"
                },
                {
                  "internalType": "uint128",
                  "name": "size",
                  "type": "uint128"
                },
                {
                  "internalType": "uint128",
                  "name": "price",
                  "type": "uint128"
                },
                {
                  "internalType": "uint128",
                  "name": "extra1",
                  "type": "uint128"
                },
                {
                  "internalType": "uint64",
                  "name": "orderID",
                  "type": "uint64"
                },
                {
                  "internalType": "uint64",
                  "name": "extra2",
                  "type": "uint64"
                },
                {
                  "internalType": "uint128",
                  "name": "extra0",
                  "type": "uint128"
                },
                {
                  "internalType": "bytes32",
                  "name": "refCode",
                  "type": "bytes32"
                }
              ],
              "internalType": "struct Order.Props",
              "name": "_order",
              "type": "tuple"
            },
            {
              "internalType": "uint256[]",
              "name": "inputs",
              "type": "uint256[]"
            }
          ],
          "internalType": "struct MarketDataTypes.UpdateOrderInputs",
          "name": "_vars",
          "type": "tuple"
        }
      ],
      "name": "updateOrder",
      "outputs": [],
      "stateMutability": "nonpayable",
      "type": "function"
    },
    {
      "inputs": [
        {
          "components": [
            {
              "internalType": "address",
              "name": "_market",
              "type": "address"
            },
            {
              "internalType": "bool",
              "name": "_isLong",
              "type": "bool"
            },
            {
              "internalType": "uint256",
              "name": "_oraclePrice",
              "type": "uint256"
            },
            {
              "internalType": "bool",
              "name": "isOpen",
              "type": "bool"
            },
            {
              "internalType": "bool",
              "name": "isCreate",
              "type": "bool"
            },
            {
              "components": [
                {
                  "internalType": "uint8",
                  "name": "version",
                  "type": "uint8"
                },
                {
                  "internalType": "uint32",
                  "name": "updatedAtBlock",
                  "type": "uint32"
                },
                {
                  "internalType": "uint8",
                  "name": "triggerAbove",
                  "type": "uint8"
                },
                {
                  "internalType": "address",
                  "name": "account",
                  "type": "address"
                },
                {
                  "internalType": "uint48",
                  "name": "extra3",
                  "type": "uint48"
                },
                {
                  "internalType": "uint128",
                  "name": "collateral",
                  "type": "uint128"
                },
                {
                  "internalType": "uint128",
                  "name": "size",
                  "type": "uint128"
                },
                {
                  "internalType": "uint128",
                  "name": "price",
                  "type": "uint128"
                },
                {
                  "internalType": "uint128",
                  "name": "extra1",
                  "type": "uint128"
                },
                {
                  "internalType": "uint64",
                  "name": "orderID",
                  "type": "uint64"
                },
                {
                  "internalType": "uint64",
                  "name": "extra2",
                  "type": "uint64"
                },
                {
                  "internalType": "uint128",
                  "name": "extra0",
                  "type": "uint128"
                },
                {
                  "internalType": "bytes32",
                  "name": "refCode",
                  "type": "bytes32"
                }
              ],
              "internalType": "struct Order.Props",
              "name": "_order",
              "type": "tuple"
            },
            {
              "internalType": "uint256[]",
              "name": "inputs",
              "type": "uint256[]"
            }
          ],
          "internalType": "struct MarketDataTypes.UpdateOrderInputs",
          "name": "_event",
          "type": "tuple"
        }
      ],
      "name": "updateOrderCallback",
      "outputs": [],
      "stateMutability": "nonpayable",
      "type": "function"
    },
    {
      "inputs": [
        {
          "internalType": "address",
          "name": "newA",
          "type": "address"
        }
      ],
      "name": "updatePositionBook",
      "outputs": [],
      "stateMutability": "nonpayable",
      "type": "function"
    },
    {
      "inputs": [
        {
          "components": [
            {
              "components": [
                {
                  "internalType": "address",
                  "name": "_market",
                  "type": "address"
                },
                {
                  "internalType": "bool",
                  "name": "_isLong",
                  "type": "bool"
                },
                {
                  "internalType": "uint256",
                  "name": "_oraclePrice",
                  "type": "uint256"
                },
                {
                  "internalType": "bool",
                  "name": "isOpen",
                  "type": "bool"
                },
                {
                  "internalType": "address",
                  "name": "_account",
                  "type": "address"
                },
                {
                  "internalType": "uint256",
                  "name": "_sizeDelta",
                  "type": "uint256"
                },
                {
                  "internalType": "uint256",
                  "name": "_price",
                  "type": "uint256"
                },
                {
                  "internalType": "uint256",
                  "name": "_slippage",
                  "type": "uint256"
                },
                {
                  "internalType": "bool",
                  "name": "_isExec",
                  "type": "bool"
                },
                {
                  "internalType": "uint8",
                  "name": "liqState",
                  "type": "uint8"
                },
                {
                  "internalType": "uint64",
                  "name": "_fromOrder",
                  "type": "uint64"
                },
                {
                  "internalType": "bytes32",
                  "name": "_refCode",
                  "type": "bytes32"
                },
                {
                  "internalType": "uint256",
                  "name": "collateralDelta",
                  "type": "uint256"
                },
                {
                  "internalType": "uint8",
                  "name": "execNum",
                  "type": "uint8"
                },
                {
                  "internalType": "uint256[]",
                  "name": "inputs",
                  "type": "uint256[]"
                }
              ],
              "internalType": "struct MarketDataTypes.UpdatePositionInputs",
              "name": "inputs",
              "type": "tuple"
            },
            {
              "components": [
                {
                  "internalType": "address",
                  "name": "market",
                  "type": "address"
                },
                {
                  "internalType": "bool",
                  "name": "isLong",
                  "type": "bool"
                },
                {
                  "internalType": "uint32",
                  "name": "lastTime",
                  "type": "uint32"
                },
                {
                  "internalType": "uint216",
                  "name": "extra3",
                  "type": "uint216"
                },
                {
                  "internalType": "uint256",
                  "name": "size",
                  "type": "uint256"
                },
                {
                  "internalType": "uint256",
                  "name": "collateral",
                  "type": "uint256"
                },
                {
                  "internalType": "uint256",
                  "name": "averagePrice",
                  "type": "uint256"
                },
                {
                  "internalType": "int256",
                  "name": "entryFundingRate",
                  "type": "int256"
                },
                {
                  "internalType": "int256",
                  "name": "realisedPnl",
                  "type": "int256"
                },
                {
                  "internalType": "uint256",
                  "name": "extra0",
                  "type": "uint256"
                },
                {
                  "internalType": "uint256",
                  "name": "extra1",
                  "type": "uint256"
                },
                {
                  "internalType": "uint256",
                  "name": "extra2",
                  "type": "uint256"
                }
              ],
              "internalType": "struct Position.Props",
              "name": "position",
              "type": "tuple"
            },
            {
              "internalType": "int256[]",
              "name": "fees",
              "type": "int256[]"
            },
            {
              "internalType": "address",
              "name": "collateralToken",
              "type": "address"
            },
            {
              "internalType": "address",
              "name": "indexToken",
              "type": "address"
            },
            {
              "internalType": "int256",
              "name": "collateralDeltaAfter",
              "type": "int256"
            }
          ],
          "internalType": "struct MarketPositionCallBackIntl.UpdatePositionEvent",
          "name": "_event",
          "type": "tuple"
        }
      ],
      "name": "updatePositionCallback",
      "outputs": [],
      "stateMutability": "nonpayable",
      "type": "function"
    },
    {
      "inputs": [
        {
          "components": [
            {
              "internalType": "address",
              "name": "_market",
              "type": "address"
            },
            {
              "internalType": "bool",
              "name": "_isLong",
              "type": "bool"
            },
            {
              "internalType": "uint256",
              "name": "_oraclePrice",
              "type": "uint256"
            },
            {
              "internalType": "bool",
              "name": "isOpen",
              "type": "bool"
            },
            {
              "internalType": "address",
              "name": "_account",
              "type": "address"
            },
            {
              "internalType": "uint256",
              "name": "_sizeDelta",
              "type": "uint256"
            },
            {
              "internalType": "uint256",
              "name": "_price",
              "type": "uint256"
            },
            {
              "internalType": "uint256",
              "name": "_slippage",
              "type": "uint256"
            },
            {
              "internalType": "bool",
              "name": "_isExec",
              "type": "bool"
            },
            {
              "internalType": "uint8",
              "name": "liqState",
              "type": "uint8"
            },
            {
              "internalType": "uint64",
              "name": "_fromOrder",
              "type": "uint64"
            },
            {
              "internalType": "bytes32",
              "name": "_refCode",
              "type": "bytes32"
            },
            {
              "internalType": "uint256",
              "name": "collateralDelta",
              "type": "uint256"
            },
            {
              "internalType": "uint8",
              "name": "execNum",
              "type": "uint8"
            },
            {
              "internalType": "uint256[]",
              "name": "inputs",
              "type": "uint256[]"
            }
          ],
          "internalType": "struct MarketDataTypes.UpdatePositionInputs",
          "name": "_inputs",
          "type": "tuple"
        }
      ],
      "name": "validateIncreasePosition",
      "outputs": [],
      "stateMutability": "view",
      "type": "function"
    },
    {
      "inputs": [],
      "name": "vaultRouter",
      "outputs": [
        {
          "internalType": "address",
          "name": "",
          "type": "address"
        }
      ],
      "stateMutability": "view",
      "type": "function"
    }
  ],
  "bytecode": "0x60806040523480156200001157600080fd5b506200001d3362000028565b60016002556200007a565b600180546001600160a01b038381166001600160a01b0319831681179093556040519116919082907f8be0079c531659141344cd1fd0a4f28419497f9722a3daafe3b4186f6b6457e090600090a35050565b61434f806200008a6000396000f3fe608060405234801561001057600080fd5b506004361061018b5760003560e01c806301ffc9a7146101905780630799f55f146101b85780630d918caa146101d55780631cfe5828146101ea5780632073b0ce146101fd578063248a9ca3146102135780632ca6d2c0146102265780632f2ff15d14610239578063332013a71461024c57806336568abe1461026057806340a542fe146102735780634463b5bc14610286578063544781af14610299578063612c39b7146102ac578063715018a614610300578063718cb58a1461030857806375829def1461031b5780638b4400f21461032e5780638da5cb5b1461034e57806391d148541461035657806399d5c1ec14610369578063a217fddf1461037c578063abed961814610384578063b038beb814610397578063c0c53b8b146103aa578063cce9a2f3146103bd578063cd6ebf66146103d0578063d37c441c146103e3578063d547741f146103f6578063db91323614610409578063de1f44301461041c578063ec2c90161461042f578063f2fde38b14610444575b600080fd5b6101a361019e366004612d6f565b610457565b60405190151581526020015b60405180910390f35b6101c061048e565b604080519283526020830191909152016101af565b6101e86101e33660046130c5565b610551565b005b6101e86101f83660046130c5565b6106f8565b610205610a14565b6040519081526020016101af565b6102056102213660046130f9565b610ac4565b6101c0610234366004613112565b610ad9565b6101e861024736600461312f565b610ba8565b6009546101a390600160a01b900460ff1681565b6101e861026e36600461312f565b610bc9565b6101e8610281366004613243565b610c47565b6101e8610294366004613317565b610d9c565b6101e86102a7366004613398565b610dd3565b604080516060808201835260008083526020808401829052928401528251808201845260018082528184018181529185018181528551918252915115159381019390935251151592820192909252016101af565b6101e86111cc565b6101e8610316366004613638565b6111e0565b6101e8610329366004613112565b6112b4565b600854610341906001600160a01b031681565b6040516101af9190613708565b6103416112de565b6101a361036436600461312f565b6112ed565b6101e861037736600461312f565b611316565b610205600081565b6101e86103923660046130c5565b611343565b6101e86103a536600461371c565b611411565b6101e86103b83660046137ea565b611422565b6101e86103cb36600461371c565b611593565b6101e86103de366004613112565b6116d9565b600954610341906001600160a01b031681565b6101e861040436600461312f565b61184b565b6101e8610417366004613112565b611867565b6101e861042a366004613835565b611926565b610437611a60565b6040516101af9190613863565b6101e8610452366004613112565b611a71565b60006001600160e01b03198216637965db0b60e01b148061048857506301ffc9a760e01b6001600160e01b03198316145b92915050565b60008060005b61049e6004611ae7565b5181101561054c5760006104b3600483611afb565b9050600080826001600160a01b0316638749694a6040518163ffffffff1660e01b81526004016040805180830381865afa1580156104f5573d6000803e3d6000fd5b505050506040513d601f19601f8201168201806040525081019061051991906138b0565b909250905061052882876138ea565b955061053481866138ea565b94505050508080610544906138fd565b915050610494565b509091565b610559611b07565b600954600160a01b900460ff168015610576575060008160a00151115b156105895761058481611b5e565b6106eb565b805161059790600690611c9d565b6105df5760405162461bcd60e51b815260206004820152601460248201527313585c9ad95d149bdd5d195c8e885b585c9ad95d60621b60448201526064015b60405180910390fd5b6000816000015190506000816001600160a01b031663b2016bd46040518163ffffffff1660e01b8152600401602060405180830381865afa158015610628573d6000803e3d6000fd5b505050506040513d601f19601f8201168201806040525081019061064c9190613916565b905061067833846000015161066684876101800151611cb2565b6001600160a01b038516929190611d2b565b336080840152610687836106f8565b8251604051631def7c1d60e11b81526001600160a01b0390911690633bdef83a906106b690869060040161397b565b600060405180830381600087803b1580156106d057600080fd5b505af11580156106e4573d6000803e3d6000fd5b5050505050505b6106f56001600255565b50565b80516001600160a01b03908116600090815260036020908152604080832054815161014081018352848152808401858152928101858152606082018690526080820186905260a080830187905260c0830187905260e083018790526101008301879052610120830196909652875187168252948701519092529185015115159092529091169061078661048e565b6080830152606082015261079933610ad9565b60c083015260a0820152604080516343a4b4a560e11b815281516001600160a01b03851692638749694a92600480820193918290030181865afa1580156107e4573d6000803e3d6000fd5b505050506040513d601f19601f8201168201806040525081019061080891906138b0565b61010083015260e0820152825160408051632c805af560e21b815290516000926001600160a01b03169163b2016bd49160048083019260209291908290030181865afa15801561085c573d6000803e3d6000fd5b505050506040513d601f19601f820116820180604052508101906108809190613916565b9050610963600960009054906101000a90046001600160a01b03166001600160a01b0316636dc7b0a16040518163ffffffff1660e01b8152600401602060405180830381865afa1580156108d8573d6000803e3d6000fd5b505050506040513d601f19601f820116820180604052508101906108fc9190613a80565b826001600160a01b031663313ce5676040518163ffffffff1660e01b8152600401602060405180830381865afa15801561093a573d6000803e3d6000fd5b505050506040513d601f19601f8201168201806040525081019061095e9190613a99565b611d85565b61012083015260085460405163028c7b5160e41b81526001600160a01b03909116906328c7b51090610999908590600401613ab6565b602060405180830381865afa1580156109b6573d6000803e3d6000fd5b505050506040513d601f19601f820116820180604052508101906109da9190613b38565b610a0e5760405162461bcd60e51b815260206004820152600560248201526436b91d33bb60d91b60448201526064016105d6565b50505050565b6000805b610a226006611ae7565b51811015610ac0576000610a37600683611afb565b90506000816001600160a01b03166393a98e6c6040518163ffffffff1660e01b8152600401602060405180830381865afa158015610a79573d6000803e3d6000fd5b505050506040513d601f19601f82011682018060405250810190610a9d9190613a80565b9050610aa98185613b55565b935050508080610ab8906138fd565b915050610a18565b5090565b60009081526020819052604090206001015490565b60008060005b610ae96004611ae7565b51811015610ba2576000610afe600483611afb565b9050600080826001600160a01b0316632ca6d2c0886040518263ffffffff1660e01b8152600401610b2f9190613708565b6040805180830381865afa158015610b4b573d6000803e3d6000fd5b505050506040513d601f19601f82011682018060405250810190610b6f91906138b0565b9092509050610b7e82876138ea565b9550610b8a81866138ea565b94505050508080610b9a906138fd565b915050610adf565b50915091565b610bb182610ac4565b610bba81611db2565b610bc48383611dbc565b505050565b6001600160a01b0381163314610c395760405162461bcd60e51b815260206004820152602f60248201527f416363657373436f6e74726f6c3a2063616e206f6e6c792072656e6f756e636560448201526e103937b632b9903337b91039b2b63360891b60648201526084016105d6565b610c438282611e40565b5050565b8051516001600160a01b03163314610c715760405162461bcd60e51b81526004016105d690613b7d565b610c7c600633611c9d565b610c985760405162461bcd60e51b81526004016105d690613ba5565b80516060015160019015610cc357815160a00151600003610cbb57506002610d06565b506000610d06565b8151610120015160ff16600103610cdc57506004610d06565b8151610120015160ff16600203610cf557506005610d06565b815160a00151600003610d06575060035b815160808082015161018083015160a08087015190850151602080870151604080890151928b01516101000151818c01518a5160608e01519a8e0151610140909c015193516001600160a01b03909a169b7fd0abfef5eb2cd61e6fd56ea2b69e9867bc90e8589023c554bdade2287b28c9399b610d909b96979694959394929390928f9190613bcd565b60405180910390a25050565b6000805160206142fa833981519152610db481611db2565b5060098054911515600160a01b0260ff60a01b19909216919091179055565b610ddb611b07565b82518451148015610ded575081518351145b8015610dfa575080518251145b610e435760405162461bcd60e51b815260206004820152601a602482015279082e4e4c2f240d8cadccee8d0e640c8de40dcdee840dac2e8c6d60331b60448201526064016105d6565b604080516001808252818301909252600091602080830190803683375050604080516001808252818301909252929350600092915060208083019080368337505060408051600180825281830190925292935060009291506020808301908036833701905050905060005b87518110156111be57610ee4888281518110610ecc57610ecc613c8c565b60200260200101516006611c9d90919063ffffffff16565b610f005760405162461bcd60e51b81526004016105d690613ba5565b6000610f0d8260016138ea565b90505b885181101561107657888181518110610f2b57610f2b613c8c565b60200260200101516001600160a01b0316898381518110610f4e57610f4e613c8c565b60200260200101516001600160a01b0316148015610fa15750878181518110610f7957610f79613c8c565b60200260200101511515888381518110610f9557610f95613c8c565b60200260200101511515145b8015610fde5750868181518110610fba57610fba613c8c565b6020026020010151878381518110610fd457610fd4613c8c565b6020026020010151145b801561101f5750858181518110610ff757610ff7613c8c565b6020026020010151151586838151811061101357611013613c8c565b60200260200101511515145b156110645760405162461bcd60e51b8152602060048201526015602482015274111d5c1b1a58d85d19481bdc99195c88199bdd5b99605a1b60448201526064016105d6565b8061106e816138fd565b915050610f10565b5086818151811061108957611089613c8c565b6020026020010151846000815181106110a4576110a4613c8c565b6020026020010190151590811515815250508581815181106110c8576110c8613c8c565b6020026020010151836000815181106110e3576110e3613c8c565b60200260200101818152505084818151811061110157611101613c8c565b60200260200101518260008151811061111c5761111c613c8c565b60200260200101901515908115158152505087818151811061114057611140613c8c565b60200260200101516001600160a01b031663301f6fe9338686866040518563ffffffff1660e01b81526004016111799493929190613cd4565b600060405180830381600087803b15801561119357600080fd5b505af11580156111a7573d6000803e3d6000fd5b5050505080806111b6906138fd565b915050610eae565b50505050610a0e6001600255565b6111d4611ea5565b6111de6000611f04565b565b6020810151516001600160a01b0316331461120d5760405162461bcd60e51b81526004016105d690613b7d565b611218600633611c9d565b6112345760405162461bcd60e51b81526004016105d690613ba5565b80516060808201516020808501519081015181840151610120909501518251604080890151968901519481015160808a015191516001600160a01b03909716987f083f7516dcfe13a8bef8bcbbe89648ce92bfd7161733f88ba43e1049de6af1b4986112a99896979196909391929190613d6e565b60405180910390a250565b60006112bf81611db2565b6112ca600083611f56565b6112d382611f04565b610c43600033611e40565b6001546001600160a01b031690565b6000918252602082815260408084206001600160a01b0393909316845291905290205460ff1690565b60008051602061429a83398151915261132e81611db2565b6113388383610ba8565b610bc460003361184b565b61134b611b07565b600954600160a01b900460ff168015611368575060008160a00151115b156113765761058481611b5e565b805161138490600690611c9d565b6113a05760405162461bcd60e51b81526004016105d690613ba5565b336080820152805160405163157db2c360e31b81526001600160a01b039091169063abed9618906113d590849060040161397b565b600060405180830381600087803b1580156113ef57600080fd5b505af1158015611403573d6000803e3d6000fd5b505050506106f56001600255565b611419611b07565b6106eb81611f60565b600154600160a81b900460ff1615808015611448575060018054600160a01b900460ff16105b8061146f5750611457306120fa565b15801561146f575060018054600160a01b900460ff16145b6114d25760405162461bcd60e51b815260206004820152602e60248201527f496e697469616c697a61626c653a20636f6e747261637420697320616c72656160448201526d191e481a5b9a5d1a585b1a5e995960921b60648201526084016105d6565b6001805460ff60a01b1916600160a01b17905580156114ff576001805460ff60a81b1916600160a81b1790555b61150884612109565b600880546001600160a01b038086166001600160a01b031990921691909117909155600980546001600160a81b03191691841691909117600160a01b1790558015610a0e576001805460ff60a81b191681556040519081527f7f26b83ff96e1f2b6a682f133852f6798a09c465da95921460cefb38474024989060200160405180910390a150505050565b80516001600160a01b031633146115bc5760405162461bcd60e51b81526004016105d690613b7d565b6115c7600633611c9d565b6115e35760405162461bcd60e51b81526004016105d690613ba5565b60a080820151606080820151602085015191850151610120840151865160c08601519686015160e08701516001600160a01b03909516977fc1a292b7363ad930d02501a9224823f3fc6d6433978aa670da66b24004eaac7197949593949293909261164d906122a8565b8a6060015161165d576000611671565b60a08b015161010001516001600160801b03165b8b6060015161168157600061168e565b61168e8c60a0015161231e565b8c606001516116a9576116a48d60a0015161231e565b6116ac565b60005b60a08e01516080015165ffffffffffff1615158e6040516112a99d9c9b9a99989796959493929190613f46565b6000805160206142fa8339815191526116f181611db2565b6001600160a01b03821661170457600080fd5b33611710600682611c9d565b61172c5760405162461bcd60e51b81526004016105d690613ba5565b611799816001600160a01b031663ac0b05a66040518163ffffffff1660e01b8152600401602060405180830381865afa15801561176d573d6000803e3d6000fd5b505050506040513d601f19601f820116820180604052508101906117919190613916565b60049061232f565b506000816001600160a01b031663ac0b05a66040518163ffffffff1660e01b8152600401602060405180830381865afa1580156117da573d6000803e3d6000fd5b505050506040513d601f19601f820116820180604052508101906117fe9190613916565b905061180b60048261232f565b50611817600485612344565b50506001600160a01b0390811660009081526003602052604090208054919093166001600160a01b03199091161790915550565b61185482610ac4565b61185d81611db2565b610bc48383611e40565b6000805160206142fa83398151915261187f81611db2565b6000826001600160a01b031663ac0b05a66040518163ffffffff1660e01b8152600401602060405180830381865afa1580156118bf573d6000803e3d6000fd5b505050506040513d601f19601f820116820180604052508101906118e39190613916565b90506118f060068461232f565b506118fc60048261232f565b5050506001600160a01b0316600090815260036020526040902080546001600160a01b0319169055565b6000805160206142fa83398151915261193e81611db2565b6001600160a01b03831661195157600080fd5b6000836001600160a01b031663ac0b05a66040518163ffffffff1660e01b8152600401602060405180830381865afa158015611991573d6000803e3d6000fd5b505050506040513d601f19601f820116820180604052508101906119b59190613916565b90506119c2600685612344565b506119ce600482612344565b506001600160a01b038481166000818152600360205260409081902080546001600160a01b03191685851617905560095490516329f076a960e21b8152600481019290925285831660248301529091169063a7c1daa490604401600060405180830381600087803b158015611a4257600080fd5b505af1158015611a56573d6000803e3d6000fd5b5050505050505050565b6060611a6c6006611ae7565b905090565b611a79611ea5565b6001600160a01b038116611ade5760405162461bcd60e51b815260206004820152602660248201527f4f776e61626c653a206e6577206f776e657220697320746865207a65726f206160448201526564647265737360d01b60648201526084016105d6565b6106f581611f04565b60606000611af483612359565b9392505050565b6000611af483836123b5565b6002805403611b585760405162461bcd60e51b815260206004820152601f60248201527f5265656e7472616e637947756172643a207265656e7472616e742063616c6c0060448201526064016105d6565b60028055565b611b66612cbf565b6060820151611b769082906123df565b611b8181600161240c565b60e0820151611b91908290612445565b81516001600160a01b0316815260208083015115159082015260016080820152611bb9612d03565b60608301511515600003611bdf57611bda611bd38461245d565b829061249a565b611c16565b610180830151611bf09083906124b8565b611c03611bfc846124d0565b829061250e565b611c16611c0f8461252d565b829061255d565b611c2483610180015161257c565b6001600160801b031660a08083019190915260808401516001600160a01b03166060830152830151611c559061257c565b6001600160801b031660c080830191909152830151611c739061257c565b6001600160801b031660e082015261016083015161018082015260a08201819052610bc482611f60565b6000611af4836001600160a01b0384166125e5565b600080836001600160a01b031663313ce5676040518163ffffffff1660e01b8152600401602060405180830381865afa158015611cf3573d6000803e3d6000fd5b505050506040513d601f19601f82011682018060405250810190611d179190613a99565b9050611d2383826125fd565b949350505050565b604080516001600160a01b0385811660248301528416604482015260648082018490528251808303909101815260849091019091526020810180516001600160e01b03166323b872dd60e01b179052610a0e908590612619565b6000611d9282600a6140d4565b611d9e6012600a6140e3565b611da890856140ef565b611af49190614106565b6106f581336126eb565b611dc682826112ed565b610c43576000828152602081815260408083206001600160a01b03851684529091529020805460ff19166001179055611dfc3390565b6001600160a01b0316816001600160a01b0316837f2f8788117e7eff1d82e926ec794901d17c78024a50270940304540a733656f0d60405160405180910390a45050565b611e4a82826112ed565b15610c43576000828152602081815260408083206001600160a01b0385168085529252808320805460ff1916905551339285917ff6391f5c32d9c69d2a47ea670b442974b53935d1edc7fd64eb21e047a839171b9190a45050565b33611eae6112de565b6001600160a01b0316146111de5760405162461bcd60e51b815260206004820181905260248201527f4f776e61626c653a2063616c6c6572206973206e6f7420746865206f776e657260448201526064016105d6565b600180546001600160a01b038381166001600160a01b0319831681179093556040519116919082907f8be0079c531659141344cd1fd0a4f28419497f9722a3daafe3b4186f6b6457e090600090a35050565b610c438282611dbc565b8051611f6e90600690611c9d565b611f8a5760405162461bcd60e51b81526004016105d690613ba5565b611f9381612744565b611fd05760405162461bcd60e51b815260206004820152600e60248201526d696e76616c696420706172616d7360901b60448201526064016105d6565b60a081015133606091820152810151611ff890611fec836127b6565b60a084015191906127e2565b8060600151801561200a575080608001515b1561209657600081600001516001600160a01b031663b2016bd46040518163ffffffff1660e01b8152600401602060405180830381865afa158015612053573d6000803e3d6000fd5b505050506040513d601f19601f820116820180604052508101906120779190613916565b90506120943383600001516106668461208f87612821565b611cb2565b505b805160405163160717d760e31b81526001600160a01b039091169063b038beb8906120c5908490600401614128565b600060405180830381600087803b1580156120df57600080fd5b505af11580156120f3573d6000803e3d6000fd5b5050505050565b6001600160a01b03163b151590565b61211233611f04565b61211d600033611f56565b612128600082611f56565b61214060008051602061429a83398151915233611f56565b61215860008051602061429a83398151915282611f56565b6121706000805160206142fa83398151915233611f56565b6121886000805160206142fa83398151915282611f56565b6121a060008051602061427a83398151915233611f56565b6121b860008051602061427a83398151915282611f56565b6121d060008051602061425a83398151915233611f56565b6121e860008051602061425a83398151915282611f56565b6122006000805160206142ba83398151915233611f56565b6122186000805160206142ba83398151915282611f56565b61223060008051602061423a83398151915233611f56565b61224860008051602061423a83398151915282611f56565b61226060008051602061421a83398151915233611f56565b61227860008051602061421a83398151915282611f56565b6122906000805160206142da83398151915233611f56565b6106f56000805160206142da83398151915282611f56565b6000816040015160ff166001036122c157506001919050565b816040015160ff166002036122d857506000919050565b60405162461bcd60e51b815260206004820152601b60248201527a696e76616c6964206f7264657220747269676765722061626f766560281b60448201526064016105d6565b61016001516001600160801b031690565b6000611af4836001600160a01b03841661284f565b6000611af4836001600160a01b038416612942565b6060816000018054806020026020016040519081016040528092919081815260200182805480156123a957602002820191906000526020600020905b815481526020019060010190808311612395575b50505050509050919050565b60008260000182815481106123cc576123cc613c8c565b9060005260206000200154905092915050565b60408051600380825260808201909252906020820160608036833750505060c08301521515606090910152565b8061241857600061241b565b60015b60ff168260c0015160018151811061243557612435613c8c565b6020026020010181815250505050565b808260c0015160028151811061243557612435613c8c565b60006001826101c00151511015801561048857506000826101c0015160008151811061248b5761248b613c8c565b60200260200101511192915050565b806124a65760006124a9565b60015b60ff1660809092019190915250565b808260c0015160008151811061243557612435613c8c565b60006001826101c001515110156124e8576000610488565b816101c0015160008151811061250057612500613c8c565b602002602001015192915050565b6125178161257c565b6001600160801b03166101009092019190915250565b60006002826101c00151511015612545576000610488565b816101c0015160018151811061250057612500613c8c565b6125668161257c565b6001600160801b03166101609092019190915250565b60006001600160801b03821115610ac05760405162461bcd60e51b815260206004820152602760248201527f53616665436173743a2076616c756520646f65736e27742066697420696e20316044820152663238206269747360c81b60648201526084016105d6565b60009081526001919091016020526040902054151590565b600061260b6012600a6140d4565b611d9e60ff8416600a6140e3565b600061266e826040518060400160405280602081526020017f5361666545524332303a206c6f772d6c6576656c2063616c6c206661696c6564815250856001600160a01b031661298c9092919063ffffffff16565b805190915015610bc4578080602001905181019061268c9190613b38565b610bc45760405162461bcd60e51b815260206004820152602a60248201527f5361666545524332303a204552433230206f7065726174696f6e20646964206e6044820152691bdd081cdd58d8d9595960b21b60648201526084016105d6565b6126f582826112ed565b610c43576127028161299b565b61270d8360206129ad565b60405160200161271e92919061413b565b60408051601f198184030181529082905262461bcd60e51b82526105d6916004016141aa565b60408101516000901561275957506000919050565b606082015115156000036127ae578160800151156127ae5760006127808360a0015161231e565b111561278e57506000919050565b60a082015161014001516001600160401b0316156127ae57506000919050565b506001919050565b600060028260c001515110158015610488575060008260c0015160018151811061248b5761248b613c8c565b811561280457806127f45760006127f7565b60015b60ff166080840152505050565b80612810576000612813565b60015b60ff16610100840152505050565b600060018260c00151511015612838576000610488565b8160c0015160008151811061250057612500613c8c565b600081815260018301602052604081205480156129385760006128736001836141bd565b8554909150600090612887906001906141bd565b90508181146128ec5760008660000182815481106128a7576128a7613c8c565b90600052602060002001549050808760000184815481106128ca576128ca613c8c565b6000918252602080832090910192909255918252600188019052604090208390555b85548690806128fd576128fd6141d0565b600190038181906000526020600020016000905590558560010160008681526020019081526020016000206000905560019350505050610488565b6000915050610488565b600061294e83836125e5565b61298457508154600181810184556000848152602080822090930184905584548482528286019093526040902091909155610488565b506000610488565b6060611d238484600085612b48565b60606104886001600160a01b03831660145b606060006129bc8360026140ef565b6129c79060026138ea565b6001600160401b038111156129de576129de612d99565b6040519080825280601f01601f191660200182016040528015612a08576020820181803683370190505b509050600360fc1b81600081518110612a2357612a23613c8c565b60200101906001600160f81b031916908160001a905350600f60fb1b81600181518110612a5257612a52613c8c565b60200101906001600160f81b031916908160001a9053506000612a768460026140ef565b612a819060016138ea565b90505b6001811115612af9576f181899199a1a9b1b9c1cb0b131b232b360811b85600f1660108110612ab557612ab5613c8c565b1a60f81b828281518110612acb57612acb613c8c565b60200101906001600160f81b031916908160001a90535060049490941c93612af2816141e6565b9050612a84565b508315611af45760405162461bcd60e51b815260206004820181905260248201527f537472696e67733a20686578206c656e67746820696e73756666696369656e7460448201526064016105d6565b606082471015612ba95760405162461bcd60e51b815260206004820152602660248201527f416464726573733a20696e73756666696369656e742062616c616e636520666f6044820152651c8818d85b1b60d21b60648201526084016105d6565b600080866001600160a01b03168587604051612bc591906141fd565b60006040518083038185875af1925050503d8060008114612c02576040519150601f19603f3d011682016040523d82523d6000602084013e612c07565b606091505b5091509150612c1887838387612c23565b979650505050505050565b60608315612c90578251600003612c8957612c3d856120fa565b612c895760405162461bcd60e51b815260206004820152601d60248201527f416464726573733a2063616c6c20746f206e6f6e2d636f6e747261637400000060448201526064016105d6565b5081611d23565b611d238383815115612ca55781518083602001fd5b8060405162461bcd60e51b81526004016105d691906141aa565b6040805160e08101825260008082526020820181905291810182905260608101829052608081019190915260a08101612cf6612d03565b8152602001606081525090565b604080516101a081018252600080825260208201819052918101829052606081018290526080810182905260a0810182905260c0810182905260e08101829052610100810182905261012081018290526101408101829052610160810182905261018081019190915290565b600060208284031215612d8157600080fd5b81356001600160e01b031981168114611af457600080fd5b634e487b7160e01b600052604160045260246000fd5b6040516101e081016001600160401b0381118282101715612dd257612dd2612d99565b60405290565b60405161018081016001600160401b0381118282101715612dd257612dd2612d99565b60405160c081016001600160401b0381118282101715612dd257612dd2612d99565b6040516101a081016001600160401b0381118282101715612dd257612dd2612d99565b60405160a081016001600160401b0381118282101715612dd257612dd2612d99565b60405160e081016001600160401b0381118282101715612dd257612dd2612d99565b604051601f8201601f191681016001600160401b0381118282101715612eac57612eac612d99565b604052919050565b6001600160a01b03811681146106f557600080fd5b8035612ed481612eb4565b919050565b80151581146106f557600080fd5b8035612ed481612ed9565b60ff811681146106f557600080fd5b8035612ed481612ef2565b80356001600160401b0381168114612ed457600080fd5b60006001600160401b03821115612f3c57612f3c612d99565b5060051b60200190565b600082601f830112612f5757600080fd5b81356020612f6c612f6783612f23565b612e84565b82815260059290921b84018101918181019086841115612f8b57600080fd5b8286015b84811015612fa65780358352918301918301612f8f565b509695505050505050565b60006101e08284031215612fc457600080fd5b612fcc612daf565b9050612fd782612ec9565b8152612fe560208301612ee7565b60208201526040820135604082015261300060608301612ee7565b606082015261301160808301612ec9565b608082015260a082013560a082015260c082013560c082015260e082013560e0820152610100613042818401612ee7565b90820152610120613054838201612f01565b90820152610140613066838201612f0c565b90820152610160828101359082015261018080830135908201526101a061308e818401612f01565b908201526101c0828101356001600160401b038111156130ad57600080fd5b6130b985828601612f46565b82840152505092915050565b6000602082840312156130d757600080fd5b81356001600160401b038111156130ed57600080fd5b611d2384828501612fb1565b60006020828403121561310b57600080fd5b5035919050565b60006020828403121561312457600080fd5b8135611af481612eb4565b6000806040838503121561314257600080fd5b82359150602083013561315481612eb4565b809150509250929050565b803563ffffffff81168114612ed457600080fd5b80356001600160d81b0381168114612ed457600080fd5b6000610180828403121561319d57600080fd5b6131a5612dd8565b90506131b082612ec9565b81526131be60208301612ee7565b60208201526131cf6040830161315f565b60408201526131e060608301613173565b60608201526080820135608082015260a082013560a082015260c082013560c082015260e082013560e082015261010080830135818301525061012080830135818301525061014080830135818301525061016080830135818301525092915050565b60006020828403121561325557600080fd5b81356001600160401b038082111561326c57600080fd5b90830190610220828603121561328157600080fd5b613289612dfb565b82358281111561329857600080fd5b6132a487828601612fb1565b8252506132b4866020850161318a565b60208201526101a0830135828111156132cc57600080fd5b6132d887828601612f46565b6040830152506132eb6101c08401612ec9565b60608201526132fd6101e08401612ec9565b6080820152610200929092013560a0830152509392505050565b60006020828403121561332957600080fd5b8135611af481612ed9565b600082601f83011261334557600080fd5b81356020613355612f6783612f23565b82815260059290921b8401810191818101908684111561337457600080fd5b8286015b84811015612fa657803561338b81612ed9565b8352918301918301613378565b600080600080608085870312156133ae57600080fd5b84356001600160401b03808211156133c557600080fd5b818701915087601f8301126133d957600080fd5b813560206133e9612f6783612f23565b82815260059290921b8401810191818101908b84111561340857600080fd5b948201945b8386101561342f57853561342081612eb4565b8252948201949082019061340d565b9850508801359250508082111561344557600080fd5b61345188838901613334565b9450604087013591508082111561346757600080fd5b61347388838901612f46565b9350606087013591508082111561348957600080fd5b5061349687828801613334565b91505092959194509250565b803565ffffffffffff81168114612ed457600080fd5b80356001600160801b0381168114612ed457600080fd5b60006101a082840312156134e257600080fd5b6134ea612e1d565b90506134f582612f01565b81526135036020830161315f565b602082015261351460408301612f01565b604082015261352560608301612ec9565b6060820152613536608083016134a2565b608082015261354760a083016134b8565b60a082015261355860c083016134b8565b60c082015261356960e083016134b8565b60e082015261010061357c8184016134b8565b9082015261012061358e838201612f0c565b908201526101406135a0838201612f0c565b908201526101606135b28382016134b8565b818301525061018080830135818301525092915050565b600082601f8301126135da57600080fd5b81356001600160401b038111156135f3576135f3612d99565b613606601f8201601f1916602001612e84565b81815284602083860101111561361b57600080fd5b816020850160208301376000918101602001919091529392505050565b60006020828403121561364a57600080fd5b81356001600160401b038082111561366157600080fd5b90830190610220828603121561367657600080fd5b61367e612e40565b61368886846134cf565b81526101a08301358281111561369d57600080fd5b6136a987828601612fb1565b6020830152506136bc6101c08401612f01565b60408201526101e0830135828111156136d457600080fd5b6136e0878286016135c9565b60608301525061020092909201356080830152509392505050565b6001600160a01b03169052565b6001600160a01b0391909116815260200190565b60006020828403121561372e57600080fd5b81356001600160401b038082111561374557600080fd5b90830190610260828603121561375a57600080fd5b613762612e62565b61376b83612ec9565b815261377960208401612ee7565b60208201526040830135604082015261379460608401612ee7565b60608201526137a560808401612ee7565b60808201526137b78660a085016134cf565b60a0820152610240830135828111156137cf57600080fd5b6137db87828601612f46565b60c08301525095945050505050565b6000806000606084860312156137ff57600080fd5b833561380a81612eb4565b9250602084013561381a81612eb4565b9150604084013561382a81612eb4565b809150509250925092565b6000806040838503121561384857600080fd5b823561385381612eb4565b9150602083013561315481612eb4565b6020808252825182820181905260009190848201906040850190845b818110156138a45783516001600160a01b03168352928401929184019160010161387f565b50909695505050505050565b600080604083850312156138c357600080fd5b505080516020909101519092909150565b634e487b7160e01b600052601160045260246000fd5b80820180821115610488576104886138d4565b60006001820161390f5761390f6138d4565b5060010190565b60006020828403121561392857600080fd5b8151611af481612eb4565b6001600160401b03169052565b600081518084526020808501945080840160005b8381101561397057815187529582019590820190600101613954565b509495945050505050565b6020815261398d6020820183516136fb565b600060208301516139a2604084018215159052565b506040830151606083015260608301516139c0608084018215159052565b5060808301516139d360a08401826136fb565b5060a083015160c083015260c083015160e083015260e0830151610100818185015280850151915050610120613a0c8185018315159052565b8401519050610140613a228482018360ff169052565b8401519050610160613a3684820183613933565b840151610180848101919091528401516101a08085019190915284015190506101c0613a668185018360ff169052565b8401516101e0848101529050611d23610200840182613940565b600060208284031215613a9257600080fd5b5051919050565b600060208284031215613aab57600080fd5b8151611af481612ef2565b600061014082019050613aca8284516136fb565b602083015160208301526040830151613ae7604084018215159052565b50606083015160608301526080830151608083015260a083015160a083015260c083015160c083015260e083015160e083015261010080840151818401525061012080840151818401525092915050565b600060208284031215613b4a57600080fd5b8151611af481612ed9565b8082018281126000831280158216821582161715613b7557613b756138d4565b505092915050565b6020808252600e908201526d34b73b30b634b21039b2b73232b960911b604082015260600190565b6020808252600e908201526d1a5b9d985b1a59081b585c9ad95d60921b604082015260600190565b60006101808083018f845260208f818601528e60408601528d151560608601528c60808601528b60a08601528260c08601528192508a518083526101a086019350818c01925060005b81811015613c3257835185529382019392820192600101613c16565b5050505080915050613c4760e08301886136fb565b613c556101008301876136fb565b613c636101208301866136fb565b60ff8416610140830152613c7b610160830184613933565b9d9c50505050505050505050505050565b634e487b7160e01b600052603260045260246000fd5b600081518084526020808501945080840160005b83811015613970578151151587529582019590820190600101613cb6565b6001600160a01b0385168152608060208201819052600090613cf890830186613ca2565b8281036040840152613d0a8186613940565b90508281036060840152612c188185613ca2565b60005b83811015613d39578181015183820152602001613d21565b50506000910152565b60008151808452613d5a816020860160208601613d1e565b601f01601f19169290920160200192915050565b881515815287151560208201526001600160401b03871660408201526001600160a01b038616606082015260ff8516608082015261010060a08201819052600090613dbb83820187613d42565b60c0840195909552505060e001529695505050505050565b6001600160801b03169052565b600061026060018060a01b0383511684526020830151151560208501526040830151604085015260608301511515606085015260808301511515608085015260a0830151613e3460a08601825160ff169052565b602081015163ffffffff1660c0860152604081015160ff1660e08601526060810151610100613e65818801836136fb565b60808301519150610120613e828189018465ffffffffffff169052565b60a08401519250610140613e98818a0185613dd3565b60c08501519350610160613eae818b0186613dd3565b60e08601519450610180613ec4818c0187613dd3565b848701519550613ed86101a08c0187613dd3565b838701519550613eec6101c08c0187613933565b828701519550613f006101e08c0187613933565b818701519550613f146102008c0187613dd3565b808701516102208c01525050505050505060c083015181610240860152613f3d82860182613940565b95945050505050565b8d151581528c151560208201526001600160401b038c16604082015260006101a0613f74606084018e6136fb565b613f81608084018d613dd3565b613f8e60a084018c613dd3565b613f9b60c084018b613dd3565b88151560e08401528761010084015286610120840152613fbf610140840187613dd3565b84151561016084015280610180840152613fdb81840185613de0565b9150509e9d5050505050505050505050505050565b600181815b8085111561402b578160001904821115614011576140116138d4565b8085161561401e57918102915b93841c9390800290613ff5565b509250929050565b60008261404257506001610488565b8161404f57506000610488565b8160018114614065576002811461406f5761408b565b6001915050610488565b60ff841115614080576140806138d4565b50506001821b610488565b5060208310610133831016604e8410600b84101617156140ae575081810a610488565b6140b88383613ff0565b80600019048211156140cc576140cc6138d4565b029392505050565b6000611af460ff841683614033565b6000611af48383614033565b8082028115828204841417610488576104886138d4565b60008261412357634e487b7160e01b600052601260045260246000fd5b500490565b602081526000611af46020830184613de0565b76020b1b1b2b9b9a1b7b73a3937b61d1030b1b1b7bab73a1604d1b81526000835161416d816017850160208801613d1e565b7001034b99036b4b9b9b4b733903937b6329607d1b601791840191820152835161419e816028840160208801613d1e565b01602801949350505050565b602081526000611af46020830184613d42565b81810381811115610488576104886138d4565b634e487b7160e01b600052603160045260246000fd5b6000816141f5576141f56138d4565b506000190190565b6000825161420f818460208701613d1e565b919091019291505056fe59c7a9ef9a56707d87d116a5d27496afee2604c70b902ac2c4dbdcb68f36f2eacb6bc1c12dd43bca8d7dd46d975f913325437d0dcd5978e99d515e4ad39b97725d8e12c39142ff96d79d04d15d1ba1269e4fe57bb9d26f43523628b34ba108ecfb248bbb6ca5a799a6bb9ba79f58aa5cdbe0e5979238a967315e7ffbfd119d1a241ecf16d79d0f8dbfb92cbc07fe17840425976cf0667f022fe9877caa831b08275a642cf55cb12407e505ec86398168f240e88df6e66d1649bd09de9071c5dbf21b97e3e053faeacb5e76d16d9daf713b69d060518bccb2c9ee13a7f9cfc49f8d1089725c0dc266707fa6207730fb801dcd03108bfed7a21099bd303651d2b7a26469706673582212209d5ab8d8bd3de459f63a28c666a2f34ee418c06d0b9cc7baee64c256e2a66dee64736f6c63430008110033",
  "linkReferences": {},
  "deployedLinkReferences": {}
}