{
    "_format": "hh-sol-artifact-1",
    "contractName": "MarketRouter",
    "sourceName": "contracts/market/MarketRouter.sol",
    "abi": [
        {
            "anonymous": false,
            "inputs": [
                {
                    "indexed": true,
                    "internalType": "address",
                    "name": "account",
                    "type": "address"
                },
                {
                    "indexed": false,
                    "internalType": "bool",
                    "name": "isLong",
                    "type": "bool"
                },
                {
                    "indexed": false,
                    "internalType": "bool",
                    "name": "isIncrease",
                    "type": "bool"
                },
                {
                    "indexed": false,
                    "internalType": "uint256",
                    "name": "orderID",
                    "type": "uint256"
                },
                {
                    "indexed": false,
                    "internalType": "address",
                    "name": "market",
                    "type": "address"
                },
                {
                    "indexed": false,
                    "internalType": "uint8",
                    "name": "reason",
                    "type": "uint8"
                },
                {
                    "indexed": false,
                    "internalType": "string",
                    "name": "reasonStr",
                    "type": "string"
                },
                {
                    "indexed": false,
                    "internalType": "uint256",
                    "name": "price",
                    "type": "uint256"
                },
                {
                    "indexed": false,
                    "internalType": "int256",
                    "name": "dPNL",
                    "type": "int256"
                }
            ],
            "name": "DeleteOrder",
            "type": "event"
        },
        {
            "anonymous": false,
            "inputs": [
                {
                    "indexed": false,
                    "internalType": "uint8",
                    "name": "version",
                    "type": "uint8"
                }
            ],
            "name": "Initialized",
            "type": "event"
        },
        {
            "anonymous": false,
            "inputs": [
                {
                    "indexed": true,
                    "internalType": "address",
                    "name": "account",
                    "type": "address"
                },
                {
                    "indexed": false,
                    "internalType": "bool",
                    "name": "isLong",
                    "type": "bool"
                },
                {
                    "indexed": false,
                    "internalType": "bool",
                    "name": "isIncrease",
                    "type": "bool"
                },
                {
                    "indexed": false,
                    "internalType": "uint256",
                    "name": "orderID",
                    "type": "uint256"
                },
                {
                    "indexed": false,
                    "internalType": "address",
                    "name": "market",
                    "type": "address"
                },
                {
                    "indexed": false,
                    "internalType": "uint256",
                    "name": "size",
                    "type": "uint256"
                },
                {
                    "indexed": false,
                    "internalType": "uint256",
                    "name": "collateral",
                    "type": "uint256"
                },
                {
                    "indexed": false,
                    "internalType": "uint256",
                    "name": "triggerPrice",
                    "type": "uint256"
                },
                {
                    "indexed": false,
                    "internalType": "bool",
                    "name": "triggerAbove",
                    "type": "bool"
                },
                {
                    "indexed": false,
                    "internalType": "uint256",
                    "name": "tp",
                    "type": "uint256"
                },
                {
                    "indexed": false,
                    "internalType": "uint256",
                    "name": "sl",
                    "type": "uint256"
                },
                {
                    "indexed": false,
                    "internalType": "uint128",
                    "name": "fromOrder",
                    "type": "uint128"
                },
                {
                    "indexed": false,
                    "internalType": "bool",
                    "name": "isKeepLev",
                    "type": "bool"
                },
                {
                    "components": [
                        {
                            "internalType": "address",
                            "name": "_market",
                            "type": "address"
                        },
                        {
                            "internalType": "bool",
                            "name": "_isLong",
                            "type": "bool"
                        },
                        {
                            "internalType": "uint256",
                            "name": "_oraclePrice",
                            "type": "uint256"
                        },
                        {
                            "internalType": "bool",
                            "name": "isOpen",
                            "type": "bool"
                        },
                        {
                            "internalType": "bool",
                            "name": "isCreate",
                            "type": "bool"
                        },
                        {
                            "components": [
                                {
                                    "internalType": "uint8",
                                    "name": "version",
                                    "type": "uint8"
                                },
                                {
                                    "internalType": "uint32",
                                    "name": "updatedAtBlock",
                                    "type": "uint32"
                                },
                                {
                                    "internalType": "uint8",
                                    "name": "triggerAbove",
                                    "type": "uint8"
                                },
                                {
                                    "internalType": "address",
                                    "name": "account",
                                    "type": "address"
                                },
                                {
                                    "internalType": "uint48",
                                    "name": "extra3",
                                    "type": "uint48"
                                },
                                {
                                    "internalType": "uint128",
                                    "name": "collateral",
                                    "type": "uint128"
                                },
                                {
                                    "internalType": "uint128",
                                    "name": "size",
                                    "type": "uint128"
                                },
                                {
                                    "internalType": "uint128",
                                    "name": "price",
                                    "type": "uint128"
                                },
                                {
                                    "internalType": "uint128",
                                    "name": "extra1",
                                    "type": "uint128"
                                },
                                {
                                    "internalType": "uint64",
                                    "name": "orderID",
                                    "type": "uint64"
                                },
                                {
                                    "internalType": "uint64",
                                    "name": "extra2",
                                    "type": "uint64"
                                },
                                {
                                    "internalType": "uint128",
                                    "name": "extra0",
                                    "type": "uint128"
                                },
                                {
                                    "internalType": "bytes32",
                                    "name": "refCode",
                                    "type": "bytes32"
                                }
                            ],
                            "internalType": "struct Order.Props",
                            "name": "_order",
                            "type": "tuple"
                        },
                        {
                            "internalType": "uint256[]",
                            "name": "inputs",
                            "type": "uint256[]"
                        }
                    ],
                    "indexed": false,
                    "internalType": "struct MarketDataTypes.UpdateOrderInputs",
                    "name": "params",
                    "type": "tuple"
                }
            ],
            "name": "UpdateOrder",
            "type": "event"
        },
        {
            "anonymous": false,
            "inputs": [
                {
                    "components": [
                        {
                            "internalType": "address",
                            "name": "_market",
                            "type": "address"
                        },
                        {
                            "internalType": "bool",
                            "name": "_isLong",
                            "type": "bool"
                        },
                        {
                            "internalType": "uint256",
                            "name": "_oraclePrice",
                            "type": "uint256"
                        },
                        {
                            "internalType": "bool",
                            "name": "isOpen",
                            "type": "bool"
                        },
                        {
                            "internalType": "bool",
                            "name": "isCreate",
                            "type": "bool"
                        },
                        {
                            "components": [
                                {
                                    "internalType": "uint8",
                                    "name": "version",
                                    "type": "uint8"
                                },
                                {
                                    "internalType": "uint32",
                                    "name": "updatedAtBlock",
                                    "type": "uint32"
                                },
                                {
                                    "internalType": "uint8",
                                    "name": "triggerAbove",
                                    "type": "uint8"
                                },
                                {
                                    "internalType": "address",
                                    "name": "account",
                                    "type": "address"
                                },
                                {
                                    "internalType": "uint48",
                                    "name": "extra3",
                                    "type": "uint48"
                                },
                                {
                                    "internalType": "uint128",
                                    "name": "collateral",
                                    "type": "uint128"
                                },
                                {
                                    "internalType": "uint128",
                                    "name": "size",
                                    "type": "uint128"
                                },
                                {
                                    "internalType": "uint128",
                                    "name": "price",
                                    "type": "uint128"
                                },
                                {
                                    "internalType": "uint128",
                                    "name": "extra1",
                                    "type": "uint128"
                                },
                                {
                                    "internalType": "uint64",
                                    "name": "orderID",
                                    "type": "uint64"
                                },
                                {
                                    "internalType": "uint64",
                                    "name": "extra2",
                                    "type": "uint64"
                                },
                                {
                                    "internalType": "uint128",
                                    "name": "extra0",
                                    "type": "uint128"
                                },
                                {
                                    "internalType": "bytes32",
                                    "name": "refCode",
                                    "type": "bytes32"
                                }
                            ],
                            "internalType": "struct Order.Props",
                            "name": "_order",
                            "type": "tuple"
                        },
                        {
                            "internalType": "uint256[]",
                            "name": "inputs",
                            "type": "uint256[]"
                        }
                    ],
                    "indexed": false,
                    "internalType": "struct MarketDataTypes.UpdateOrderInputs",
                    "name": "params",
                    "type": "tuple"
                }
            ],
            "name": "UpdateOrderV2",
            "type": "event"
        },
        {
            "anonymous": false,
            "inputs": [
                {
                    "indexed": true,
                    "internalType": "address",
                    "name": "account",
                    "type": "address"
                },
                {
                    "indexed": false,
                    "internalType": "uint256",
                    "name": "collateralDelta",
                    "type": "uint256"
                },
                {
                    "indexed": false,
                    "internalType": "int256",
                    "name": "collateralDeltaAfter",
                    "type": "int256"
                },
                {
                    "indexed": false,
                    "internalType": "uint256",
                    "name": "sizeDelta",
                    "type": "uint256"
                },
                {
                    "indexed": false,
                    "internalType": "bool",
                    "name": "isLong",
                    "type": "bool"
                },
                {
                    "indexed": false,
                    "internalType": "uint256",
                    "name": "price",
                    "type": "uint256"
                },
                {
                    "indexed": false,
                    "internalType": "int256",
                    "name": "pnl",
                    "type": "int256"
                },
                {
                    "indexed": false,
                    "internalType": "int256[]",
                    "name": "fees",
                    "type": "int256[]"
                },
                {
                    "indexed": false,
                    "internalType": "address",
                    "name": "market",
                    "type": "address"
                },
                {
                    "indexed": false,
                    "internalType": "address",
                    "name": "collateralToken",
                    "type": "address"
                },
                {
                    "indexed": false,
                    "internalType": "address",
                    "name": "indexToken",
                    "type": "address"
                },
                {
                    "indexed": false,
                    "internalType": "uint256",
                    "name": "category",
                    "type": "uint256"
                },
                {
                    "indexed": false,
                    "internalType": "uint64",
                    "name": "fromOrder",
                    "type": "uint64"
                }
            ],
            "name": "UpdatePosition",
            "type": "event"
        },
        {
            "inputs": [],
            "name": "DEFAULT_ADMIN_ROLE",
            "outputs": [
                {
                    "internalType": "bytes32",
                    "name": "",
                    "type": "bytes32"
                }
            ],
            "stateMutability": "view",
            "type": "function"
        },
        {
            "inputs": [
                {
                    "internalType": "address",
                    "name": "newOwner",
                    "type": "address"
                }
            ],
            "name": "_transferOwnership",
            "outputs": [],
            "stateMutability": "pure",
            "type": "function"
        },
        {
            "inputs": [
                {
                    "internalType": "address",
                    "name": "_market",
                    "type": "address"
                },
                {
                    "internalType": "address",
                    "name": "",
                    "type": "address"
                }
            ],
            "name": "addMarket",
            "outputs": [],
            "stateMutability": "nonpayable",
            "type": "function"
        },
        {
            "inputs": [
                {
                    "internalType": "address[]",
                    "name": "_markets",
                    "type": "address[]"
                },
                {
                    "internalType": "bool[]",
                    "name": "_isIncreaseList",
                    "type": "bool[]"
                },
                {
                    "internalType": "uint256[]",
                    "name": "_orderIDList",
                    "type": "uint256[]"
                },
                {
                    "internalType": "bool[]",
                    "name": "_isLongList",
                    "type": "bool[]"
                }
            ],
            "name": "cancelOrderList",
            "outputs": [],
            "stateMutability": "nonpayable",
            "type": "function"
        },
        {
            "inputs": [
                {
                    "components": [
                        {
                            "internalType": "address",
                            "name": "_market",
                            "type": "address"
                        },
                        {
                            "internalType": "bool",
                            "name": "_isLong",
                            "type": "bool"
                        },
                        {
                            "internalType": "uint256",
                            "name": "_oraclePrice",
                            "type": "uint256"
                        },
                        {
                            "internalType": "bool",
                            "name": "isOpen",
                            "type": "bool"
                        },
                        {
                            "internalType": "address",
                            "name": "_account",
                            "type": "address"
                        },
                        {
                            "internalType": "uint256",
                            "name": "_sizeDelta",
                            "type": "uint256"
                        },
                        {
                            "internalType": "uint256",
                            "name": "_price",
                            "type": "uint256"
                        },
                        {
                            "internalType": "uint256",
                            "name": "_slippage",
                            "type": "uint256"
                        },
                        {
                            "internalType": "bool",
                            "name": "_isExec",
                            "type": "bool"
                        },
                        {
                            "internalType": "uint8",
                            "name": "liqState",
                            "type": "uint8"
                        },
                        {
                            "internalType": "uint64",
                            "name": "_fromOrder",
                            "type": "uint64"
                        },
                        {
                            "internalType": "bytes32",
                            "name": "_refCode",
                            "type": "bytes32"
                        },
                        {
                            "internalType": "uint256",
                            "name": "collateralDelta",
                            "type": "uint256"
                        },
                        {
                            "internalType": "uint8",
                            "name": "execNum",
                            "type": "uint8"
                        },
                        {
                            "internalType": "uint256[]",
                            "name": "inputs",
                            "type": "uint256[]"
                        }
                    ],
                    "internalType": "struct MarketDataTypes.UpdatePositionInputs",
                    "name": "_vars",
                    "type": "tuple"
                }
            ],
            "name": "decreasePosition",
            "outputs": [],
            "stateMutability": "nonpayable",
            "type": "function"
        },
        {
            "inputs": [
                {
                    "components": [
                        {
                            "components": [
                                {
                                    "internalType": "uint8",
                                    "name": "version",
                                    "type": "uint8"
                                },
                                {
                                    "internalType": "uint32",
                                    "name": "updatedAtBlock",
                                    "type": "uint32"
                                },
                                {
                                    "internalType": "uint8",
                                    "name": "triggerAbove",
                                    "type": "uint8"
                                },
                                {
                                    "internalType": "address",
                                    "name": "account",
                                    "type": "address"
                                },
                                {
                                    "internalType": "uint48",
                                    "name": "extra3",
                                    "type": "uint48"
                                },
                                {
                                    "internalType": "uint128",
                                    "name": "collateral",
                                    "type": "uint128"
                                },
                                {
                                    "internalType": "uint128",
                                    "name": "size",
                                    "type": "uint128"
                                },
                                {
                                    "internalType": "uint128",
                                    "name": "price",
                                    "type": "uint128"
                                },
                                {
                                    "internalType": "uint128",
                                    "name": "extra1",
                                    "type": "uint128"
                                },
                                {
                                    "internalType": "uint64",
                                    "name": "orderID",
                                    "type": "uint64"
                                },
                                {
                                    "internalType": "uint64",
                                    "name": "extra2",
                                    "type": "uint64"
                                },
                                {
                                    "internalType": "uint128",
                                    "name": "extra0",
                                    "type": "uint128"
                                },
                                {
                                    "internalType": "bytes32",
                                    "name": "refCode",
                                    "type": "bytes32"
                                }
                            ],
                            "internalType": "struct Order.Props",
                            "name": "order",
                            "type": "tuple"
                        },
                        {
                            "components": [
                                {
                                    "internalType": "address",
                                    "name": "_market",
                                    "type": "address"
                                },
                                {
                                    "internalType": "bool",
                                    "name": "_isLong",
                                    "type": "bool"
                                },
                                {
                                    "internalType": "uint256",
                                    "name": "_oraclePrice",
                                    "type": "uint256"
                                },
                                {
                                    "internalType": "bool",
                                    "name": "isOpen",
                                    "type": "bool"
                                },
                                {
                                    "internalType": "address",
                                    "name": "_account",
                                    "type": "address"
                                },
                                {
                                    "internalType": "uint256",
                                    "name": "_sizeDelta",
                                    "type": "uint256"
                                },
                                {
                                    "internalType": "uint256",
                                    "name": "_price",
                                    "type": "uint256"
                                },
                                {
                                    "internalType": "uint256",
                                    "name": "_slippage",
                                    "type": "uint256"
                                },
                                {
                                    "internalType": "bool",
                                    "name": "_isExec",
                                    "type": "bool"
                                },
                                {
                                    "internalType": "uint8",
                                    "name": "liqState",
                                    "type": "uint8"
                                },
                                {
                                    "internalType": "uint64",
                                    "name": "_fromOrder",
                                    "type": "uint64"
                                },
                                {
                                    "internalType": "bytes32",
                                    "name": "_refCode",
                                    "type": "bytes32"
                                },
                                {
                                    "internalType": "uint256",
                                    "name": "collateralDelta",
                                    "type": "uint256"
                                },
                                {
                                    "internalType": "uint8",
                                    "name": "execNum",
                                    "type": "uint8"
                                },
                                {
                                    "internalType": "uint256[]",
                                    "name": "inputs",
                                    "type": "uint256[]"
                                }
                            ],
                            "internalType": "struct MarketDataTypes.UpdatePositionInputs",
                            "name": "inputs",
                            "type": "tuple"
                        },
                        {
                            "internalType": "uint8",
                            "name": "reason",
                            "type": "uint8"
                        },
                        {
                            "internalType": "string",
                            "name": "reasonStr",
                            "type": "string"
                        },
                        {
                            "internalType": "int256",
                            "name": "dPNL",
                            "type": "int256"
                        }
                    ],
                    "internalType": "struct MarketOrderCallBackIntl.DeleteOrderEvent",
                    "name": "e",
                    "type": "tuple"
                }
            ],
            "name": "deleteOrderCallback",
            "outputs": [],
            "stateMutability": "nonpayable",
            "type": "function"
        },
        {
            "inputs": [
                {
                    "internalType": "address",
                    "name": "account",
                    "type": "address"
                }
            ],
            "name": "getAccountSize",
            "outputs": [
                {
                    "internalType": "uint256",
                    "name": "sizesL",
                    "type": "uint256"
                },
                {
                    "internalType": "uint256",
                    "name": "sizesS",
                    "type": "uint256"
                }
            ],
            "stateMutability": "view",
            "type": "function"
        },
        {
            "inputs": [],
            "name": "getGlobalPNL",
            "outputs": [
                {
                    "internalType": "int256",
                    "name": "pnl",
                    "type": "int256"
                }
            ],
            "stateMutability": "view",
            "type": "function"
        },
        {
            "inputs": [],
            "name": "getGlobalSize",
            "outputs": [
                {
                    "internalType": "uint256",
                    "name": "sizesLong",
                    "type": "uint256"
                },
                {
                    "internalType": "uint256",
                    "name": "sizesShort",
                    "type": "uint256"
                }
            ],
            "stateMutability": "view",
            "type": "function"
        },
        {
            "inputs": [],
            "name": "getHooksCalls",
            "outputs": [
                {
                    "components": [
                        {
                            "internalType": "bool",
                            "name": "updatePosition",
                            "type": "bool"
                        },
                        {
                            "internalType": "bool",
                            "name": "updateOrder",
                            "type": "bool"
                        },
                        {
                            "internalType": "bool",
                            "name": "deleteOrder",
                            "type": "bool"
                        }
                    ],
                    "internalType": "struct MarketCallBackIntl.Calls",
                    "name": "",
                    "type": "tuple"
                }
            ],
            "stateMutability": "pure",
            "type": "function"
        },
        {
            "inputs": [],
            "name": "getMarkets",
            "outputs": [
                {
                    "internalType": "address[]",
                    "name": "",
                    "type": "address[]"
                }
            ],
            "stateMutability": "view",
            "type": "function"
        },
        {
            "inputs": [
                {
                    "internalType": "address",
                    "name": "_account",
                    "type": "address"
                }
            ],
            "name": "grantControllerRoleByMarketManager",
            "outputs": [],
            "stateMutability": "nonpayable",
            "type": "function"
        },
        {
            "inputs": [
                {
                    "internalType": "bytes32",
                    "name": "role",
                    "type": "bytes32"
                },
                {
                    "internalType": "address",
                    "name": "account",
                    "type": "address"
                }
            ],
            "name": "grantRole",
            "outputs": [],
            "stateMutability": "pure",
            "type": "function"
        },
        {
            "inputs": [],
            "name": "gv",
            "outputs": [
                {
                    "internalType": "address",
                    "name": "",
                    "type": "address"
                }
            ],
            "stateMutability": "view",
            "type": "function"
        },
        {
            "inputs": [
                {
                    "internalType": "bytes32",
                    "name": "role",
                    "type": "bytes32"
                },
                {
                    "internalType": "address",
                    "name": "account",
                    "type": "address"
                }
            ],
            "name": "hasRole",
            "outputs": [
                {
                    "internalType": "bool",
                    "name": "",
                    "type": "bool"
                }
            ],
            "stateMutability": "pure",
            "type": "function"
        },
        {
            "inputs": [
                {
                    "components": [
                        {
                            "internalType": "address",
                            "name": "_market",
                            "type": "address"
                        },
                        {
                            "internalType": "bool",
                            "name": "_isLong",
                            "type": "bool"
                        },
                        {
                            "internalType": "uint256",
                            "name": "_oraclePrice",
                            "type": "uint256"
                        },
                        {
                            "internalType": "bool",
                            "name": "isOpen",
                            "type": "bool"
                        },
                        {
                            "internalType": "address",
                            "name": "_account",
                            "type": "address"
                        },
                        {
                            "internalType": "uint256",
                            "name": "_sizeDelta",
                            "type": "uint256"
                        },
                        {
                            "internalType": "uint256",
                            "name": "_price",
                            "type": "uint256"
                        },
                        {
                            "internalType": "uint256",
                            "name": "_slippage",
                            "type": "uint256"
                        },
                        {
                            "internalType": "bool",
                            "name": "_isExec",
                            "type": "bool"
                        },
                        {
                            "internalType": "uint8",
                            "name": "liqState",
                            "type": "uint8"
                        },
                        {
                            "internalType": "uint64",
                            "name": "_fromOrder",
                            "type": "uint64"
                        },
                        {
                            "internalType": "bytes32",
                            "name": "_refCode",
                            "type": "bytes32"
                        },
                        {
                            "internalType": "uint256",
                            "name": "collateralDelta",
                            "type": "uint256"
                        },
                        {
                            "internalType": "uint8",
                            "name": "execNum",
                            "type": "uint8"
                        },
                        {
                            "internalType": "uint256[]",
                            "name": "inputs",
                            "type": "uint256[]"
                        }
                    ],
                    "internalType": "struct MarketDataTypes.UpdatePositionInputs",
                    "name": "_inputs",
                    "type": "tuple"
                }
            ],
            "name": "increasePosition",
            "outputs": [],
            "stateMutability": "nonpayable",
            "type": "function"
        },
        {
            "inputs": [
                {
                    "internalType": "address",
                    "name": "_f",
                    "type": "address"
                },
                {
                    "internalType": "address",
                    "name": "_gv",
                    "type": "address"
                },
                {
                    "internalType": "address",
                    "name": "vr",
                    "type": "address"
                }
            ],
            "name": "initialize",
            "outputs": [],
            "stateMutability": "nonpayable",
            "type": "function"
        },
        {
            "inputs": [],
            "name": "isEnableMarketConvertToOrder",
            "outputs": [
                {
                    "internalType": "bool",
                    "name": "",
                    "type": "bool"
                }
            ],
            "stateMutability": "view",
            "type": "function"
        },
        {
            "inputs": [
                {
                    "internalType": "address",
                    "name": "_market",
                    "type": "address"
                }
            ],
            "name": "removeMarket",
            "outputs": [],
            "stateMutability": "nonpayable",
            "type": "function"
        },
        {
            "inputs": [
                {
                    "internalType": "bytes32",
                    "name": "role",
                    "type": "bytes32"
                },
                {
                    "internalType": "address",
                    "name": "account",
                    "type": "address"
                }
            ],
            "name": "revokeRole",
            "outputs": [],
            "stateMutability": "pure",
            "type": "function"
        },
        {
            "inputs": [
                {
                    "internalType": "bool",
                    "name": "_isEnableMarketConvertToOrder",
                    "type": "bool"
                }
            ],
            "name": "setIsEnableMarketConvertToOrder",
            "outputs": [],
            "stateMutability": "nonpayable",
            "type": "function"
        },
        {
            "inputs": [
                {
                    "internalType": "address",
                    "name": "to",
                    "type": "address"
                }
            ],
            "name": "transferAdmin",
            "outputs": [],
            "stateMutability": "nonpayable",
            "type": "function"
        },
        {
            "inputs": [
                {
                    "internalType": "address",
                    "name": "newOwner",
                    "type": "address"
                }
            ],
            "name": "transferOwnership",
            "outputs": [],
            "stateMutability": "pure",
            "type": "function"
        },
        {
            "inputs": [
                {
                    "components": [
                        {
                            "internalType": "address",
                            "name": "_market",
                            "type": "address"
                        },
                        {
                            "internalType": "bool",
                            "name": "_isLong",
                            "type": "bool"
                        },
                        {
                            "internalType": "uint256",
                            "name": "_oraclePrice",
                            "type": "uint256"
                        },
                        {
                            "internalType": "bool",
                            "name": "isOpen",
                            "type": "bool"
                        },
                        {
                            "internalType": "bool",
                            "name": "isCreate",
                            "type": "bool"
                        },
                        {
                            "components": [
                                {
                                    "internalType": "uint8",
                                    "name": "version",
                                    "type": "uint8"
                                },
                                {
                                    "internalType": "uint32",
                                    "name": "updatedAtBlock",
                                    "type": "uint32"
                                },
                                {
                                    "internalType": "uint8",
                                    "name": "triggerAbove",
                                    "type": "uint8"
                                },
                                {
                                    "internalType": "address",
                                    "name": "account",
                                    "type": "address"
                                },
                                {
                                    "internalType": "uint48",
                                    "name": "extra3",
                                    "type": "uint48"
                                },
                                {
                                    "internalType": "uint128",
                                    "name": "collateral",
                                    "type": "uint128"
                                },
                                {
                                    "internalType": "uint128",
                                    "name": "size",
                                    "type": "uint128"
                                },
                                {
                                    "internalType": "uint128",
                                    "name": "price",
                                    "type": "uint128"
                                },
                                {
                                    "internalType": "uint128",
                                    "name": "extra1",
                                    "type": "uint128"
                                },
                                {
                                    "internalType": "uint64",
                                    "name": "orderID",
                                    "type": "uint64"
                                },
                                {
                                    "internalType": "uint64",
                                    "name": "extra2",
                                    "type": "uint64"
                                },
                                {
                                    "internalType": "uint128",
                                    "name": "extra0",
                                    "type": "uint128"
                                },
                                {
                                    "internalType": "bytes32",
                                    "name": "refCode",
                                    "type": "bytes32"
                                }
                            ],
                            "internalType": "struct Order.Props",
                            "name": "_order",
                            "type": "tuple"
                        },
                        {
                            "internalType": "uint256[]",
                            "name": "inputs",
                            "type": "uint256[]"
                        }
                    ],
                    "internalType": "struct MarketDataTypes.UpdateOrderInputs",
                    "name": "_vars",
                    "type": "tuple"
                }
            ],
            "name": "updateOrder",
            "outputs": [],
            "stateMutability": "nonpayable",
            "type": "function"
        },
        {
            "inputs": [
                {
                    "components": [
                        {
                            "internalType": "address",
                            "name": "_market",
                            "type": "address"
                        },
                        {
                            "internalType": "bool",
                            "name": "_isLong",
                            "type": "bool"
                        },
                        {
                            "internalType": "uint256",
                            "name": "_oraclePrice",
                            "type": "uint256"
                        },
                        {
                            "internalType": "bool",
                            "name": "isOpen",
                            "type": "bool"
                        },
                        {
                            "internalType": "bool",
                            "name": "isCreate",
                            "type": "bool"
                        },
                        {
                            "components": [
                                {
                                    "internalType": "uint8",
                                    "name": "version",
                                    "type": "uint8"
                                },
                                {
                                    "internalType": "uint32",
                                    "name": "updatedAtBlock",
                                    "type": "uint32"
                                },
                                {
                                    "internalType": "uint8",
                                    "name": "triggerAbove",
                                    "type": "uint8"
                                },
                                {
                                    "internalType": "address",
                                    "name": "account",
                                    "type": "address"
                                },
                                {
                                    "internalType": "uint48",
                                    "name": "extra3",
                                    "type": "uint48"
                                },
                                {
                                    "internalType": "uint128",
                                    "name": "collateral",
                                    "type": "uint128"
                                },
                                {
                                    "internalType": "uint128",
                                    "name": "size",
                                    "type": "uint128"
                                },
                                {
                                    "internalType": "uint128",
                                    "name": "price",
                                    "type": "uint128"
                                },
                                {
                                    "internalType": "uint128",
                                    "name": "extra1",
                                    "type": "uint128"
                                },
                                {
                                    "internalType": "uint64",
                                    "name": "orderID",
                                    "type": "uint64"
                                },
                                {
                                    "internalType": "uint64",
                                    "name": "extra2",
                                    "type": "uint64"
                                },
                                {
                                    "internalType": "uint128",
                                    "name": "extra0",
                                    "type": "uint128"
                                },
                                {
                                    "internalType": "bytes32",
                                    "name": "refCode",
                                    "type": "bytes32"
                                }
                            ],
                            "internalType": "struct Order.Props",
                            "name": "_order",
                            "type": "tuple"
                        },
                        {
                            "internalType": "uint256[]",
                            "name": "inputs",
                            "type": "uint256[]"
                        }
                    ],
                    "internalType": "struct MarketDataTypes.UpdateOrderInputs",
                    "name": "_event",
                    "type": "tuple"
                }
            ],
            "name": "updateOrderCallback",
            "outputs": [],
            "stateMutability": "nonpayable",
            "type": "function"
        },
        {
            "inputs": [
                {
                    "internalType": "address",
                    "name": "newA",
                    "type": "address"
                }
            ],
            "name": "updatePositionBook",
            "outputs": [],
            "stateMutability": "nonpayable",
            "type": "function"
        },
        {
            "inputs": [
                {
                    "components": [
                        {
                            "components": [
                                {
                                    "internalType": "address",
                                    "name": "_market",
                                    "type": "address"
                                },
                                {
                                    "internalType": "bool",
                                    "name": "_isLong",
                                    "type": "bool"
                                },
                                {
                                    "internalType": "uint256",
                                    "name": "_oraclePrice",
                                    "type": "uint256"
                                },
                                {
                                    "internalType": "bool",
                                    "name": "isOpen",
                                    "type": "bool"
                                },
                                {
                                    "internalType": "address",
                                    "name": "_account",
                                    "type": "address"
                                },
                                {
                                    "internalType": "uint256",
                                    "name": "_sizeDelta",
                                    "type": "uint256"
                                },
                                {
                                    "internalType": "uint256",
                                    "name": "_price",
                                    "type": "uint256"
                                },
                                {
                                    "internalType": "uint256",
                                    "name": "_slippage",
                                    "type": "uint256"
                                },
                                {
                                    "internalType": "bool",
                                    "name": "_isExec",
                                    "type": "bool"
                                },
                                {
                                    "internalType": "uint8",
                                    "name": "liqState",
                                    "type": "uint8"
                                },
                                {
                                    "internalType": "uint64",
                                    "name": "_fromOrder",
                                    "type": "uint64"
                                },
                                {
                                    "internalType": "bytes32",
                                    "name": "_refCode",
                                    "type": "bytes32"
                                },
                                {
                                    "internalType": "uint256",
                                    "name": "collateralDelta",
                                    "type": "uint256"
                                },
                                {
                                    "internalType": "uint8",
                                    "name": "execNum",
                                    "type": "uint8"
                                },
                                {
                                    "internalType": "uint256[]",
                                    "name": "inputs",
                                    "type": "uint256[]"
                                }
                            ],
                            "internalType": "struct MarketDataTypes.UpdatePositionInputs",
                            "name": "inputs",
                            "type": "tuple"
                        },
                        {
                            "components": [
                                {
                                    "internalType": "address",
                                    "name": "market",
                                    "type": "address"
                                },
                                {
                                    "internalType": "bool",
                                    "name": "isLong",
                                    "type": "bool"
                                },
                                {
                                    "internalType": "uint32",
                                    "name": "lastTime",
                                    "type": "uint32"
                                },
                                {
                                    "internalType": "uint216",
                                    "name": "extra3",
                                    "type": "uint216"
                                },
                                {
                                    "internalType": "uint256",
                                    "name": "size",
                                    "type": "uint256"
                                },
                                {
                                    "internalType": "uint256",
                                    "name": "collateral",
                                    "type": "uint256"
                                },
                                {
                                    "internalType": "uint256",
                                    "name": "averagePrice",
                                    "type": "uint256"
                                },
                                {
                                    "internalType": "int256",
                                    "name": "entryFundingRate",
                                    "type": "int256"
                                },
                                {
                                    "internalType": "int256",
                                    "name": "realisedPnl",
                                    "type": "int256"
                                },
                                {
                                    "internalType": "uint256",
                                    "name": "extra0",
                                    "type": "uint256"
                                },
                                {
                                    "internalType": "uint256",
                                    "name": "extra1",
                                    "type": "uint256"
                                },
                                {
                                    "internalType": "uint256",
                                    "name": "extra2",
                                    "type": "uint256"
                                }
                            ],
                            "internalType": "struct Position.Props",
                            "name": "position",
                            "type": "tuple"
                        },
                        {
                            "internalType": "int256[]",
                            "name": "fees",
                            "type": "int256[]"
                        },
                        {
                            "internalType": "address",
                            "name": "collateralToken",
                            "type": "address"
                        },
                        {
                            "internalType": "address",
                            "name": "indexToken",
                            "type": "address"
                        },
                        {
                            "internalType": "int256",
                            "name": "collateralDeltaAfter",
                            "type": "int256"
                        }
                    ],
                    "internalType": "struct MarketPositionCallBackIntl.UpdatePositionEvent",
                    "name": "_event",
                    "type": "tuple"
                }
            ],
            "name": "updatePositionCallback",
            "outputs": [],
            "stateMutability": "nonpayable",
            "type": "function"
        },
        {
            "inputs": [
                {
                    "components": [
                        {
                            "internalType": "address",
                            "name": "_market",
                            "type": "address"
                        },
                        {
                            "internalType": "bool",
                            "name": "_isLong",
                            "type": "bool"
                        },
                        {
                            "internalType": "uint256",
                            "name": "_oraclePrice",
                            "type": "uint256"
                        },
                        {
                            "internalType": "bool",
                            "name": "isOpen",
                            "type": "bool"
                        },
                        {
                            "internalType": "address",
                            "name": "_account",
                            "type": "address"
                        },
                        {
                            "internalType": "uint256",
                            "name": "_sizeDelta",
                            "type": "uint256"
                        },
                        {
                            "internalType": "uint256",
                            "name": "_price",
                            "type": "uint256"
                        },
                        {
                            "internalType": "uint256",
                            "name": "_slippage",
                            "type": "uint256"
                        },
                        {
                            "internalType": "bool",
                            "name": "_isExec",
                            "type": "bool"
                        },
                        {
                            "internalType": "uint8",
                            "name": "liqState",
                            "type": "uint8"
                        },
                        {
                            "internalType": "uint64",
                            "name": "_fromOrder",
                            "type": "uint64"
                        },
                        {
                            "internalType": "bytes32",
                            "name": "_refCode",
                            "type": "bytes32"
                        },
                        {
                            "internalType": "uint256",
                            "name": "collateralDelta",
                            "type": "uint256"
                        },
                        {
                            "internalType": "uint8",
                            "name": "execNum",
                            "type": "uint8"
                        },
                        {
                            "internalType": "uint256[]",
                            "name": "inputs",
                            "type": "uint256[]"
                        }
                    ],
                    "internalType": "struct MarketDataTypes.UpdatePositionInputs",
                    "name": "_inputs",
                    "type": "tuple"
                }
            ],
            "name": "validateIncreasePosition",
            "outputs": [],
            "stateMutability": "view",
            "type": "function"
        },
        {
            "inputs": [],
            "name": "vaultRouter",
            "outputs": [
                {
                    "internalType": "address",
                    "name": "",
                    "type": "address"
                }
            ],
            "stateMutability": "view",
            "type": "function"
        }
    ],
    "bytecode": "0x608060405234801561001057600080fd5b506001600255613b4c806100256000396000f3fe608060405234801561001057600080fd5b50600436106101cf5760003560e01c80638b4400f211610104578063cd6ebf66116100a2578063db91323611610071578063db91323614610420578063de1f443014610433578063ec2c901614610446578063f2fde38b146103fc57600080fd5b8063cd6ebf66146103e9578063d29d44ee146103fc578063d37c441c1461040d578063d547741f1461024757600080fd5b8063abed9618116100de578063abed96181461039d578063b038beb8146103b0578063c0c53b8b146103c3578063cce9a2f3146103d657600080fd5b80638b4400f21461035757806391d1485414610382578063a217fddf1461039557600080fd5b806340a542fe11610171578063612c39b71161014b578063612c39b7146102cf578063718cb58a1461032357806375829def146103365780637fe4a6981461034957600080fd5b806340a542fe1461027d5780634463b5bc14610290578063544781af146102bc57600080fd5b80632073b0ce116101ad5780632073b0ce1461021e5780632ca6d2c0146102345780632f2ff15d14610247578063332013a71461025957600080fd5b80630799f55f146101d45780630d918caa146101f65780631cfe58281461020b575b600080fd5b6101dc61045b565b604080519283526020830191909152015b60405180910390f35b610209610204366004612a43565b61051e565b005b610209610219366004612a43565b6106c2565b6102266109e8565b6040519081526020016101ed565b6101dc610242366004612a77565b610a98565b610209610255366004612a94565b5050565b60095461026d90600160a01b900460ff1681565b60405190151581526020016101ed565b61020961028b366004612ba8565b610b67565b61020961029e366004612c7c565b60098054911515600160a01b0260ff60a01b19909216919091179055565b6102096102ca366004612cfd565b610cbc565b604080516060808201835260008083526020808401829052928401528251808201845260018082528184018181529185018181528551918252915115159381019390935251151592820192909252016101ed565b610209610331366004612f9d565b6110b8565b610209610344366004612a77565b61118c565b6102096101cf366004612a77565b60085461036a906001600160a01b031681565b6040516001600160a01b0390911681526020016101ed565b61026d610390366004612a94565b611197565b610226600081565b6102096103ab366004612a43565b6111a0565b6102096103be366004613060565b61126e565b6102096103d136600461312e565b61127f565b6102096103e4366004613060565b6113d2565b6102096103f7366004612a77565b61158c565b61020961040a366004612a77565b50565b60095461036a906001600160a01b031681565b61020961042e366004612a77565b61170f565b610209610441366004613179565b6117d7565b61044e61192f565b6040516101ed91906131a7565b60008060005b61046b6004611940565b51811015610519576000610480600483611954565b9050600080826001600160a01b0316638749694a6040518163ffffffff1660e01b81526004016040805180830381865afa1580156104c2573d6000803e3d6000fd5b505050506040513d601f19601f820116820180604052508101906104e691906131f4565b90925090506104f5828761322e565b9550610501818661322e565b9450505050808061051190613241565b915050610461565b509091565b610526611960565b600954600160a01b900460ff168015610543575060008160a00151115b1561055657610551816119b7565b6106b8565b805161056490600690611b21565b6105ac5760405162461bcd60e51b815260206004820152601460248201527313585c9ad95d149bdd5d195c8e885b585c9ad95d60621b60448201526064015b60405180910390fd5b6000816000015190506000816001600160a01b031663b2016bd46040518163ffffffff1660e01b8152600401602060405180830381865afa1580156105f5573d6000803e3d6000fd5b505050506040513d601f19601f82011682018060405250810190610619919061325a565b905061064533846000015161063384876101800151611b43565b6001600160a01b038516929190611bbc565b336080840152610654836106c2565b8251604051631def7c1d60e11b81526001600160a01b0390911690633bdef83a906106839086906004016132b2565b600060405180830381600087803b15801561069d57600080fd5b505af11580156106b1573d6000803e3d6000fd5b5050505050505b61040a6001600255565b80516001600160a01b03908116600090815260036020908152604080832054815161014081018352848152808401858152928101858152606082018690526080820186905260a080830187905260c0830187905260e083018790526101008301879052610120830196909652875187168252948701519092529185015115159092529091169061075061045b565b608080840191909152606083019190915283015161076d90610a98565b60c083015260a0820152604080516343a4b4a560e11b815281516001600160a01b03851692638749694a92600480820193918290030181865afa1580156107b8573d6000803e3d6000fd5b505050506040513d601f19601f820116820180604052508101906107dc91906131f4565b61010083015260e0820152825160408051632c805af560e21b815290516000926001600160a01b03169163b2016bd49160048083019260209291908290030181865afa158015610830573d6000803e3d6000fd5b505050506040513d601f19601f82011682018060405250810190610854919061325a565b9050610937600960009054906101000a90046001600160a01b03166001600160a01b0316636dc7b0a16040518163ffffffff1660e01b8152600401602060405180830381865afa1580156108ac573d6000803e3d6000fd5b505050506040513d601f19601f820116820180604052508101906108d091906133c9565b826001600160a01b031663313ce5676040518163ffffffff1660e01b8152600401602060405180830381865afa15801561090e573d6000803e3d6000fd5b505050506040513d601f19601f8201168201806040525081019061093291906133e2565b611c16565b61012083015260085460405163028c7b5160e41b81526001600160a01b03909116906328c7b5109061096d9085906004016133ff565b602060405180830381865afa15801561098a573d6000803e3d6000fd5b505050506040513d601f19601f820116820180604052508101906109ae919061347f565b6109e25760405162461bcd60e51b815260206004820152600560248201526436b91d33bb60d91b60448201526064016105a3565b50505050565b6000805b6109f66006611940565b51811015610a94576000610a0b600683611954565b90506000816001600160a01b03166393a98e6c6040518163ffffffff1660e01b8152600401602060405180830381865afa158015610a4d573d6000803e3d6000fd5b505050506040513d601f19601f82011682018060405250810190610a7191906133c9565b9050610a7d818561349c565b935050508080610a8c90613241565b9150506109ec565b5090565b60008060005b610aa86004611940565b51811015610b61576000610abd600483611954565b60405162b29b4b60e61b81526001600160a01b038781166004830152919250600091829190841690632ca6d2c0906024016040805180830381865afa158015610b0a573d6000803e3d6000fd5b505050506040513d601f19601f82011682018060405250810190610b2e91906131f4565b9092509050610b3d828761322e565b9550610b49818661322e565b94505050508080610b5990613241565b915050610a9e565b50915091565b8051516001600160a01b03163314610b915760405162461bcd60e51b81526004016105a3906134c4565b610b9c600633611b21565b610bb85760405162461bcd60e51b81526004016105a3906134ec565b80516060015160019015610be357815160a00151600003610bdb57506002610c26565b506000610c26565b8151610120015160ff16600103610bfc57506004610c26565b8151610120015160ff16600203610c1557506005610c26565b815160a00151600003610c26575060035b815160808082015161018083015160a08087015190850151602080870151604080890151928b01516101000151818c01518a5160608e01519a8e0151610140909c015193516001600160a01b03909a169b7fd0abfef5eb2cd61e6fd56ea2b69e9867bc90e8589023c554bdade2287b28c9399b610cb09b96979694959394929390928f9190613514565b60405180910390a25050565b610cc4611960565b82518451148015610cd6575081518351145b8015610ce3575080518251145b610d2f5760405162461bcd60e51b815260206004820152601a60248201527f4172726179206c656e6774687320646f206e6f74206d6174636800000000000060448201526064016105a3565b604080516001808252818301909252600091602080830190803683375050604080516001808252818301909252929350600092915060208083019080368337505060408051600180825281830190925292935060009291506020808301908036833701905050905060005b87518110156110aa57610dd0888281518110610db857610db86135d9565b60200260200101516006611b2190919063ffffffff16565b610dec5760405162461bcd60e51b81526004016105a3906134ec565b6000610df982600161322e565b90505b8851811015610f6257888181518110610e1757610e176135d9565b60200260200101516001600160a01b0316898381518110610e3a57610e3a6135d9565b60200260200101516001600160a01b0316148015610e8d5750878181518110610e6557610e656135d9565b60200260200101511515888381518110610e8157610e816135d9565b60200260200101511515145b8015610eca5750868181518110610ea657610ea66135d9565b6020026020010151878381518110610ec057610ec06135d9565b6020026020010151145b8015610f0b5750858181518110610ee357610ee36135d9565b60200260200101511515868381518110610eff57610eff6135d9565b60200260200101511515145b15610f505760405162461bcd60e51b8152602060048201526015602482015274111d5c1b1a58d85d19481bdc99195c88199bdd5b99605a1b60448201526064016105a3565b80610f5a81613241565b915050610dfc565b50868181518110610f7557610f756135d9565b602002602001015184600081518110610f9057610f906135d9565b602002602001019015159081151581525050858181518110610fb457610fb46135d9565b602002602001015183600081518110610fcf57610fcf6135d9565b602002602001018181525050848181518110610fed57610fed6135d9565b602002602001015182600081518110611008576110086135d9565b60200260200101901515908115158152505087818151811061102c5761102c6135d9565b60200260200101516001600160a01b031663301f6fe9338686866040518563ffffffff1660e01b81526004016110659493929190613621565b600060405180830381600087803b15801561107f57600080fd5b505af1158015611093573d6000803e3d6000fd5b5050505080806110a290613241565b915050610d9a565b505050506109e26001600255565b6020810151516001600160a01b031633146110e55760405162461bcd60e51b81526004016105a3906134c4565b6110f0600633611b21565b61110c5760405162461bcd60e51b81526004016105a3906134ec565b80516060808201516020808501519081015181840151610120909501518251604080890151968901519481015160808a015191516001600160a01b03909716987f083f7516dcfe13a8bef8bcbbe89648ce92bfd7161733f88ba43e1049de6af1b49861118198969791969093919291906136bb565b60405180910390a250565b600061025560003382565b60015b92915050565b6111a8611960565b600954600160a01b900460ff1680156111c5575060008160a00151115b156111d357610551816119b7565b80516111e190600690611b21565b6111fd5760405162461bcd60e51b81526004016105a3906134ec565b336080820152805160405163157db2c360e31b81526001600160a01b039091169063abed9618906112329084906004016132b2565b600060405180830381600087803b15801561124c57600080fd5b505af1158015611260573d6000803e3d6000fd5b5050505061040a6001600255565b611276611960565b6106b881611c43565b600054610100900460ff161580801561129f5750600054600160ff909116105b806112b95750303b1580156112b9575060005460ff166001145b61131c5760405162461bcd60e51b815260206004820152602e60248201527f496e697469616c697a61626c653a20636f6e747261637420697320616c72656160448201526d191e481a5b9a5d1a585b1a5e995960921b60648201526084016105a3565b6000805460ff19166001179055801561133f576000805461ff0019166101001790555b61134884611ddd565b600880546001600160a01b038086166001600160a01b031990921691909117909155600980546001600160a81b03191691841691909117600160a01b17905580156109e2576000805461ff0019169055604051600181527f7f26b83ff96e1f2b6a682f133852f6798a09c465da95921460cefb38474024989060200160405180910390a150505050565b80516001600160a01b031633146113fb5760405162461bcd60e51b81526004016105a3906134c4565b611406600633611b21565b6114225760405162461bcd60e51b81526004016105a3906134ec565b60a080820151606080820151602085015191850151610120840151865160c08601519686015160e08701516001600160a01b03909516977fc1a292b7363ad930d02501a9224823f3fc6d6433978aa670da66b24004eaac7197949593949293909261148c90611de4565b8a6060015161149c5760006114b0565b60a08b015161010001516001600160801b03165b8b606001516114c05760006114d4565b60a08c015161016001516001600160801b03165b8c606001516114f55760a08d015161016001516001600160801b03166114f8565b60005b8d606001516115195760a08e01516080015165ffffffffffff161515611530565b60008e60a0015161014001516001600160401b0316115b8e60405161154a9d9c9b9a9998979695949392919061388f565b60405180910390a27fd021e36eda71ecb4a3fe710972a299d20826da17a411ec1f8a3d1dc41d5cf43c816040516115819190613949565b60405180910390a150565b7f8d1089725c0dc266707fa6207730fb801dcd03108bfed7a21099bd303651d2b76001600160a01b0382166115c057600080fd5b336115cc600682611b21565b6115e85760405162461bcd60e51b81526004016105a3906134ec565b611655816001600160a01b031663ac0b05a66040518163ffffffff1660e01b8152600401602060405180830381865afa158015611629573d6000803e3d6000fd5b505050506040513d601f19601f8201168201806040525081019061164d919061325a565b600490611e6d565b506000816001600160a01b031663ac0b05a66040518163ffffffff1660e01b8152600401602060405180830381865afa158015611696573d6000803e3d6000fd5b505050506040513d601f19601f820116820180604052508101906116ba919061325a565b90506116c7600482611e6d565b506116d3600485611e82565b6116dc57600080fd5b506001600160a01b0390811660009081526003602052604090208054919093166001600160a01b03199091161790915550565b7f8d1089725c0dc266707fa6207730fb801dcd03108bfed7a21099bd303651d2b76000826001600160a01b031663ac0b05a66040518163ffffffff1660e01b8152600401602060405180830381865afa158015611770573d6000803e3d6000fd5b505050506040513d601f19601f82011682018060405250810190611794919061325a565b90506117a1600684611e6d565b506117ad600482611e6d565b5050506001600160a01b0316600090815260036020526040902080546001600160a01b0319169055565b7f8d1089725c0dc266707fa6207730fb801dcd03108bfed7a21099bd303651d2b760006118048133611197565b9050801561185c5762093a806001544261181e919061395c565b1061185c5760405162461bcd60e51b815260206004820152600e60248201526d1858c81d1a5b59481c185cdcd95960921b60448201526064016105a3565b6001600160a01b03841661186f57600080fd5b6000846001600160a01b031663ac0b05a66040518163ffffffff1660e01b8152600401602060405180830381865afa1580156118af573d6000803e3d6000fd5b505050506040513d601f19601f820116820180604052508101906118d3919061325a565b90506118e0600686611e82565b6118e957600080fd5b6118f4600482611e82565b6118fd57600080fd5b6001600160a01b03948516600090815260036020526040902080546001600160a01b0319169190951617909355505050565b606061193b6006611940565b905090565b6060600061194d83611e97565b9392505050565b600061194d8383611ef3565b60028054036119b15760405162461bcd60e51b815260206004820152601f60248201527f5265656e7472616e637947756172643a207265656e7472616e742063616c6c0060448201526064016105a3565b60028055565b6119bf61266c565b60608201516119cf908290611f1d565b6119da816001611f4a565b60e08201516119ea908290611f83565b81516001600160a01b0316815260208083015115159082015260016080820152611a126126b0565b60608301511515600003611a3857611a33611a2c84611f9b565b8290611fd8565b611a95565b610180830151611a49908390611ff6565b611a5c611a558461200e565b829061204c565b611a6f611a688461206b565b829061209b565b611a82611a7b846120ba565b82906120f2565b611a95611a8e84612126565b829061215e565b611aa3836101800151612199565b6001600160801b031660a08083019190915260808401516001600160a01b03166060830152830151611ad490612199565b6001600160801b031660c080830191909152830151611af290612199565b6001600160801b031660e082015261016083015161018082015260a08201819052611b1c82611c43565b505050565b6001600160a01b0381166000908152600183016020526040812054151561194d565b600080836001600160a01b031663313ce5676040518163ffffffff1660e01b8152600401602060405180830381865afa158015611b84573d6000803e3d6000fd5b505050506040513d601f19601f82011682018060405250810190611ba891906133e2565b9050611bb48382612202565b949350505050565b604080516001600160a01b0385811660248301528416604482015260648082018490528251808303909101815260849091019091526020810180516001600160e01b03166323b872dd60e01b1790526109e290859061221e565b6000611c2382600a613a53565b611c2f6012600a613a62565b611c399085613a6e565b61194d9190613a9b565b8051611c5190600690611b21565b611c6d5760405162461bcd60e51b81526004016105a3906134ec565b611c76816122f0565b611cb35760405162461bcd60e51b815260206004820152600e60248201526d696e76616c696420706172616d7360901b60448201526064016105a3565b60a081015133606091820152810151611cdb90611ccf8361236e565b60a0840151919061239a565b80606001518015611ced575080608001515b15611d7957600081600001516001600160a01b031663b2016bd46040518163ffffffff1660e01b8152600401602060405180830381865afa158015611d36573d6000803e3d6000fd5b505050506040513d601f19601f82011682018060405250810190611d5a919061325a565b9050611d7733836000015161063384611d72876123d9565b611b43565b505b805160405163160717d760e31b81526001600160a01b039091169063b038beb890611da8908490600401613949565b600060405180830381600087803b158015611dc257600080fd5b505af1158015611dd6573d6000803e3d6000fd5b5050505050565b4260015550565b6000816040015160ff16600003611e3d5760405162461bcd60e51b815260206004820152601b60248201527f696e76616c6964206f7264657220747269676765722061626f7665000000000060448201526064016105a3565b60028260400151611e4e9190613aaf565b60ff16600103611e6057506001919050565b506000919050565b919050565b600061194d836001600160a01b038416612407565b600061194d836001600160a01b0384166124fa565b606081600001805480602002602001604051908101604052809291908181526020018280548015611ee757602002820191906000526020600020905b815481526020019060010190808311611ed3575b50505050509050919050565b6000826000018281548110611f0a57611f0a6135d9565b9060005260206000200154905092915050565b60408051600380825260808201909252906020820160608036833750505060c08301521515606090910152565b80611f56576000611f59565b60015b60ff168260c00151600181518110611f7357611f736135d9565b6020026020010181815250505050565b808260c00151600281518110611f7357611f736135d9565b60006001826101c00151511015801561119a57506000826101c00151600081518110611fc957611fc96135d9565b60200260200101511192915050565b80611fe4576000611fe7565b60015b60ff1660809092019190915250565b808260c00151600081518110611f7357611f736135d9565b60006001826101c0015151101561202657600061119a565b816101c0015160008151811061203e5761203e6135d9565b602002602001015192915050565b61205581612199565b6001600160801b03166101009092019190915250565b60006002826101c0015151101561208357600061119a565b816101c0015160018151811061203e5761203e6135d9565b6120a481612199565b6001600160801b03166101609092019190915250565b60006120c86002600161322e565b826101c00151511015801561119a57506000826101c00151600281518110611fc957611fc96135d9565b600081612100576000612103565b60015b610140909301805167fffffffffffffff01660ff94909416939093179092525050565b60006121346003600161322e565b826101c00151511015801561119a57506000826101c00151600381518110611fc957611fc96135d9565b60008161216c57600061216f565b60015b610140909301805167ffffffffffffff0f16610ff060049590951b94909416939093179092525050565b60006001600160801b03821115610a945760405162461bcd60e51b815260206004820152602760248201527f53616665436173743a2076616c756520646f65736e27742066697420696e20316044820152663238206269747360c81b60648201526084016105a3565b60006122106012600a613a53565b611c2f60ff8416600a613a62565b6000612273826040518060400160405280602081526020017f5361666545524332303a206c6f772d6c6576656c2063616c6c206661696c6564815250856001600160a01b03166125499092919063ffffffff16565b805190915015611b1c5780806020019051810190612291919061347f565b611b1c5760405162461bcd60e51b815260206004820152602a60248201527f5361666545524332303a204552433230206f7065726174696f6e20646964206e6044820152691bdd081cdd58d8d9595960b21b60648201526084016105a3565b60408101516000901561230557506000919050565b60608201511515600003612366578160800151156123665760006123388360a0015161016001516001600160801b031690565b111561234657506000919050565b60a082015161014001516001600160401b03161561236657506000919050565b506001919050565b600060028260c00151511015801561119a575060008260c00151600181518110611fc957611fc96135d9565b81156123bc57806123ac5760006123af565b60015b60ff166080840152505050565b806123c85760006123cb565b60015b60ff16610100840152505050565b600060018260c001515110156123f057600061119a565b8160c0015160008151811061203e5761203e6135d9565b600081815260018301602052604081205480156124f057600061242b60018361395c565b855490915060009061243f9060019061395c565b90508181146124a457600086600001828154811061245f5761245f6135d9565b9060005260206000200154905080876000018481548110612482576124826135d9565b6000918252602080832090910192909255918252600188019052604090208390555b85548690806124b5576124b5613ad1565b60019003818190600052602060002001600090559055856001016000868152602001908152602001600020600090556001935050505061119a565b600091505061119a565b60008181526001830160205260408120546125415750815460018181018455600084815260208082209093018490558454848252828601909352604090209190915561119a565b50600061119a565b6060611bb4848460008585600080866001600160a01b031685876040516125709190613ae7565b60006040518083038185875af1925050503d80600081146125ad576040519150601f19603f3d011682016040523d82523d6000602084013e6125b2565b606091505b50915091506125c3878383876125ce565b979650505050505050565b6060831561263d578251600003612636576001600160a01b0385163b6126365760405162461bcd60e51b815260206004820152601d60248201527f416464726573733a2063616c6c20746f206e6f6e2d636f6e747261637400000060448201526064016105a3565b5081611bb4565b611bb483838151156126525781518083602001fd5b8060405162461bcd60e51b81526004016105a39190613b03565b6040805160e08101825260008082526020820181905291810182905260608101829052608081019190915260a081016126a36126b0565b8152602001606081525090565b604080516101a081018252600080825260208201819052918101829052606081018290526080810182905260a0810182905260c0810182905260e08101829052610100810182905261012081018290526101408101829052610160810182905261018081019190915290565b634e487b7160e01b600052604160045260246000fd5b6040516101e081016001600160401b03811182821017156127555761275561271c565b60405290565b60405161018081016001600160401b03811182821017156127555761275561271c565b60405160c081016001600160401b03811182821017156127555761275561271c565b6040516101a081016001600160401b03811182821017156127555761275561271c565b60405160a081016001600160401b03811182821017156127555761275561271c565b60405160e081016001600160401b03811182821017156127555761275561271c565b604051601f8201601f191681016001600160401b038111828210171561282f5761282f61271c565b604052919050565b6001600160a01b038116811461040a57600080fd5b8035611e6881612837565b801515811461040a57600080fd5b8035611e6881612857565b60ff8116811461040a57600080fd5b8035611e6881612870565b80356001600160401b0381168114611e6857600080fd5b60006001600160401b038211156128ba576128ba61271c565b5060051b60200190565b600082601f8301126128d557600080fd5b813560206128ea6128e5836128a1565b612807565b82815260059290921b8401810191818101908684111561290957600080fd5b8286015b84811015612924578035835291830191830161290d565b509695505050505050565b60006101e0828403121561294257600080fd5b61294a612732565b90506129558261284c565b815261296360208301612865565b60208201526040820135604082015261297e60608301612865565b606082015261298f6080830161284c565b608082015260a082013560a082015260c082013560c082015260e082013560e08201526101006129c0818401612865565b908201526101206129d283820161287f565b908201526101406129e483820161288a565b90820152610160828101359082015261018080830135908201526101a0612a0c81840161287f565b908201526101c0828101356001600160401b03811115612a2b57600080fd5b612a37858286016128c4565b82840152505092915050565b600060208284031215612a5557600080fd5b81356001600160401b03811115612a6b57600080fd5b611bb48482850161292f565b600060208284031215612a8957600080fd5b813561194d81612837565b60008060408385031215612aa757600080fd5b823591506020830135612ab981612837565b809150509250929050565b803563ffffffff81168114611e6857600080fd5b80356001600160d81b0381168114611e6857600080fd5b60006101808284031215612b0257600080fd5b612b0a61275b565b9050612b158261284c565b8152612b2360208301612865565b6020820152612b3460408301612ac4565b6040820152612b4560608301612ad8565b60608201526080820135608082015260a082013560a082015260c082013560c082015260e082013560e082015261010080830135818301525061012080830135818301525061014080830135818301525061016080830135818301525092915050565b600060208284031215612bba57600080fd5b81356001600160401b0380821115612bd157600080fd5b908301906102208286031215612be657600080fd5b612bee61277e565b823582811115612bfd57600080fd5b612c098782860161292f565b825250612c198660208501612aef565b60208201526101a083013582811115612c3157600080fd5b612c3d878286016128c4565b604083015250612c506101c0840161284c565b6060820152612c626101e0840161284c565b6080820152610200929092013560a0830152509392505050565b600060208284031215612c8e57600080fd5b813561194d81612857565b600082601f830112612caa57600080fd5b81356020612cba6128e5836128a1565b82815260059290921b84018101918181019086841115612cd957600080fd5b8286015b84811015612924578035612cf081612857565b8352918301918301612cdd565b60008060008060808587031215612d1357600080fd5b84356001600160401b0380821115612d2a57600080fd5b818701915087601f830112612d3e57600080fd5b81356020612d4e6128e5836128a1565b82815260059290921b8401810191818101908b841115612d6d57600080fd5b948201945b83861015612d94578535612d8581612837565b82529482019490820190612d72565b98505088013592505080821115612daa57600080fd5b612db688838901612c99565b94506040870135915080821115612dcc57600080fd5b612dd8888389016128c4565b93506060870135915080821115612dee57600080fd5b50612dfb87828801612c99565b91505092959194509250565b803565ffffffffffff81168114611e6857600080fd5b80356001600160801b0381168114611e6857600080fd5b60006101a08284031215612e4757600080fd5b612e4f6127a0565b9050612e5a8261287f565b8152612e6860208301612ac4565b6020820152612e796040830161287f565b6040820152612e8a6060830161284c565b6060820152612e9b60808301612e07565b6080820152612eac60a08301612e1d565b60a0820152612ebd60c08301612e1d565b60c0820152612ece60e08301612e1d565b60e0820152610100612ee1818401612e1d565b90820152610120612ef383820161288a565b90820152610140612f0583820161288a565b90820152610160612f17838201612e1d565b818301525061018080830135818301525092915050565b600082601f830112612f3f57600080fd5b81356001600160401b03811115612f5857612f5861271c565b612f6b601f8201601f1916602001612807565b818152846020838601011115612f8057600080fd5b816020850160208301376000918101602001919091529392505050565b600060208284031215612faf57600080fd5b81356001600160401b0380821115612fc657600080fd5b908301906102208286031215612fdb57600080fd5b612fe36127c3565b612fed8684612e34565b81526101a08301358281111561300257600080fd5b61300e8782860161292f565b6020830152506130216101c0840161287f565b60408201526101e08301358281111561303957600080fd5b61304587828601612f2e565b60608301525061020092909201356080830152509392505050565b60006020828403121561307257600080fd5b81356001600160401b038082111561308957600080fd5b90830190610260828603121561309e57600080fd5b6130a66127e5565b6130af8361284c565b81526130bd60208401612865565b6020820152604083013560408201526130d860608401612865565b60608201526130e960808401612865565b60808201526130fb8660a08501612e34565b60a08201526102408301358281111561311357600080fd5b61311f878286016128c4565b60c08301525095945050505050565b60008060006060848603121561314357600080fd5b833561314e81612837565b9250602084013561315e81612837565b9150604084013561316e81612837565b809150509250925092565b6000806040838503121561318c57600080fd5b823561319781612837565b91506020830135612ab981612837565b6020808252825182820181905260009190848201906040850190845b818110156131e85783516001600160a01b0316835292840192918401916001016131c3565b50909695505050505050565b6000806040838503121561320757600080fd5b505080516020909101519092909150565b634e487b7160e01b600052601160045260246000fd5b8082018082111561119a5761119a613218565b60006001820161325357613253613218565b5060010190565b60006020828403121561326c57600080fd5b815161194d81612837565b600081518084526020808501945080840160005b838110156132a75781518752958201959082019060010161328b565b509495945050505050565b602081526132cc6020820183516001600160a01b03169052565b600060208301516132e1604084018215159052565b506040830151606083015260608301516132ff608084018215159052565b5060808301516001600160a01b03811660a08401525060a083015160c083015260c083015160e083015260e083015161010081818501528085015191505061012061334d8185018315159052565b84015190506101406133638482018360ff169052565b840151905061016061337f848201836001600160401b03169052565b840151610180848101919091528401516101a08085019190915284015190506101c06133af8185018360ff169052565b8401516101e0848101529050611bb4610200840182613277565b6000602082840312156133db57600080fd5b5051919050565b6000602082840312156133f457600080fd5b815161194d81612870565b81516001600160a01b03168152610140810160208301516020830152604083015161342e604084018215159052565b50606083015160608301526080830151608083015260a083015160a083015260c083015160c083015260e083015160e083015261010080840151818401525061012080840151818401525092915050565b60006020828403121561349157600080fd5b815161194d81612857565b80820182811260008312801582168215821617156134bc576134bc613218565b505092915050565b6020808252600e908201526d34b73b30b634b21039b2b73232b960911b604082015260600190565b6020808252600e908201526d1a5b9d985b1a59081b585c9ad95d60921b604082015260600190565b60006101808083018f845260208f818601528e60408601528d151560608601528c60808601528b60a08601528260c08601528192508a518083526101a086019350818c01925060005b818110156135795783518552938201939282019260010161355d565b5050506001600160a01b03891660e08501525090506001600160a01b0386166101008301526001600160a01b03851661012083015260ff84166101408301526001600160401b0383166101608301529d9c50505050505050505050505050565b634e487b7160e01b600052603260045260246000fd5b600081518084526020808501945080840160005b838110156132a7578151151587529582019590820190600101613603565b6001600160a01b0385168152608060208201819052600090613645908301866135ef565b82810360408401526136578186613277565b905082810360608401526125c381856135ef565b60005b8381101561368657818101518382015260200161366e565b50506000910152565b600081518084526136a781602086016020860161366b565b601f01601f19169290920160200192915050565b881515815287151560208201526001600160401b03871660408201526001600160a01b038616606082015260ff8516608082015261010060a082018190526000906137088382018761368f565b60c0840195909552505060e001529695505050505050565b600061026060018060a01b0383511684526020830151151560208501526040830151604085015260608301511515606085015260808301511515608085015260a083015161377460a08601825160ff169052565b602081015163ffffffff1660c0860152604081015160ff1660e086015260608101516001600160a01b03811661010080880191909152608083015191506101206137c78189018465ffffffffffff169052565b60a084015192506101406137e5818a01856001600160801b03169052565b60c08501519350610160613803818b01866001600160801b03169052565b60e08601519450610180613821818c01876001600160801b03169052565b938601516001600160801b039081166101a08c0152928601516001600160401b039081166101c08c0152918601519091166101e08a015284015116610200880152909101516102208601525060c0830151610240850182905261388682860182613277565b95945050505050565b8d151581528c151560208201526001600160401b038c1660408201526001600160a01b038b16606082015260006101a06001600160801b038c1660808401526001600160801b038b1660a08401526001600160801b038a1660c084015288151560e084015287610100840152866101208401526139186101408401876001600160801b03169052565b8415156101608401528061018084015261393481840185613720565b9150509e9d5050505050505050505050505050565b60208152600061194d6020830184613720565b8181038181111561119a5761119a613218565b600181815b808511156139aa57816000190482111561399057613990613218565b8085161561399d57918102915b93841c9390800290613974565b509250929050565b6000826139c15750600161119a565b816139ce5750600061119a565b81600181146139e457600281146139ee57613a0a565b600191505061119a565b60ff8411156139ff576139ff613218565b50506001821b61119a565b5060208310610133831016604e8410600b8410161715613a2d575081810a61119a565b613a37838361396f565b8060001904821115613a4b57613a4b613218565b029392505050565b600061194d60ff8416836139b2565b600061194d83836139b2565b808202811582820484141761119a5761119a613218565b634e487b7160e01b600052601260045260246000fd5b600082613aaa57613aaa613a85565b500490565b600060ff831680613ac257613ac2613a85565b8060ff84160691505092915050565b634e487b7160e01b600052603160045260246000fd5b60008251613af981846020870161366b565b9190910192915050565b60208152600061194d602083018461368f56fea2646970667358221220178782567c5058334a6c1fc7cce3a80d63198039baa4727ed5e15860368d4b8a64736f6c63430008110033",
    "linkReferences": {},
    "deployedLinkReferences": {}
}