{
  "_format": "hh-sol-artifact-1",
  "contractName": "Market",
  "sourceName": "contracts/market/Market.sol",
  "abi": [
    {
      "inputs": [
        {
          "internalType": "address",
          "name": "_account",
          "type": "address"
        },
        {
          "internalType": "bool[]",
          "name": "_isIncreaseList",
          "type": "bool[]"
        },
        {
          "internalType": "uint256[]",
          "name": "_orderIDList",
          "type": "uint256[]"
        },
        {
          "internalType": "bool[]",
          "name": "_isLongList",
          "type": "bool[]"
        }
      ],
      "name": "cancelOrderList",
      "outputs": [],
      "stateMutability": "nonpayable",
      "type": "function"
    },
    {
      "inputs": [],
      "name": "collateralToken",
      "outputs": [
        {
          "internalType": "address",
          "name": "",
          "type": "address"
        }
      ],
      "stateMutability": "view",
      "type": "function"
    },
    {
      "inputs": [
        {
          "internalType": "address[]",
          "name": "addrs",
          "type": "address[]"
        }
      ],
      "name": "setContracts",
      "outputs": [],
      "stateMutability": "nonpayable",
      "type": "function"
    },
    {
      "inputs": [
        {
          "internalType": "address",
          "name": "_f",
          "type": "address"
        }
      ],
      "name": "setFeeRouter",
      "outputs": [],
      "stateMutability": "nonpayable",
      "type": "function"
    },
    {
      "inputs": [
        {
          "internalType": "address",
          "name": "pb",
          "type": "address"
        }
      ],
      "name": "setPositionBookV2",
      "outputs": [],
      "stateMutability": "nonpayable",
      "type": "function"
    },
    {
      "inputs": [
        {
          "internalType": "bytes32[]",
          "name": "_orderKey",
          "type": "bytes32[]"
        },
        {
          "internalType": "bool[]",
          "name": "_isLong",
          "type": "bool[]"
        },
        {
          "internalType": "bool[]",
          "name": "_isIncrease",
          "type": "bool[]"
        },
        {
          "internalType": "string[]",
          "name": "reasons",
          "type": "string[]"
        }
      ],
      "name": "sysCancelOrder",
      "outputs": [],
      "stateMutability": "nonpayable",
      "type": "function"
    },
    {
      "inputs": [
        {
          "components": [
            {
              "internalType": "address",
              "name": "_market",
              "type": "address"
            },
            {
              "internalType": "bool",
              "name": "_isLong",
              "type": "bool"
            },
            {
              "internalType": "uint256",
              "name": "_oraclePrice",
              "type": "uint256"
            },
            {
              "internalType": "bool",
              "name": "isOpen",
              "type": "bool"
            },
            {
              "internalType": "bool",
              "name": "isCreate",
              "type": "bool"
            },
            {
              "components": [
                {
                  "internalType": "uint8",
                  "name": "version",
                  "type": "uint8"
                },
                {
                  "internalType": "uint32",
                  "name": "updatedAtBlock",
                  "type": "uint32"
                },
                {
                  "internalType": "uint8",
                  "name": "triggerAbove",
                  "type": "uint8"
                },
                {
                  "internalType": "address",
                  "name": "account",
                  "type": "address"
                },
                {
                  "internalType": "uint48",
                  "name": "extra3",
                  "type": "uint48"
                },
                {
                  "internalType": "uint128",
                  "name": "collateral",
                  "type": "uint128"
                },
                {
                  "internalType": "uint128",
                  "name": "size",
                  "type": "uint128"
                },
                {
                  "internalType": "uint128",
                  "name": "price",
                  "type": "uint128"
                },
                {
                  "internalType": "uint128",
                  "name": "extra1",
                  "type": "uint128"
                },
                {
                  "internalType": "uint64",
                  "name": "orderID",
                  "type": "uint64"
                },
                {
                  "internalType": "uint64",
                  "name": "extra2",
                  "type": "uint64"
                },
                {
                  "internalType": "uint128",
                  "name": "extra0",
                  "type": "uint128"
                },
                {
                  "internalType": "bytes32",
                  "name": "refCode",
                  "type": "bytes32"
                }
              ],
              "internalType": "struct Order.Props",
              "name": "_order",
              "type": "tuple"
            },
            {
              "internalType": "uint256[]",
              "name": "inputs",
              "type": "uint256[]"
            }
          ],
          "internalType": "struct MarketDataTypes.UpdateOrderInputs",
          "name": "_vars",
          "type": "tuple"
        }
      ],
      "name": "updateOrder",
      "outputs": [],
      "stateMutability": "nonpayable",
      "type": "function"
    },
    {
      "inputs": [
        {
          "internalType": "address",
          "name": "_f",
          "type": "address"
        }
      ],
      "stateMutability": "nonpayable",
      "type": "constructor"
    },
    {
      "anonymous": false,
      "inputs": [
        {
          "indexed": false,
          "internalType": "uint8",
          "name": "version",
          "type": "uint8"
        }
      ],
      "name": "Initialized",
      "type": "event"
    },
    {
      "anonymous": false,
      "inputs": [
        {
          "indexed": true,
          "internalType": "address",
          "name": "previousOwner",
          "type": "address"
        },
        {
          "indexed": true,
          "internalType": "address",
          "name": "newOwner",
          "type": "address"
        }
      ],
      "name": "OwnershipTransferred",
      "type": "event"
    },
    {
      "anonymous": false,
      "inputs": [
        {
          "indexed": true,
          "internalType": "bytes32",
          "name": "role",
          "type": "bytes32"
        },
        {
          "indexed": true,
          "internalType": "bytes32",
          "name": "previousAdminRole",
          "type": "bytes32"
        },
        {
          "indexed": true,
          "internalType": "bytes32",
          "name": "newAdminRole",
          "type": "bytes32"
        }
      ],
      "name": "RoleAdminChanged",
      "type": "event"
    },
    {
      "anonymous": false,
      "inputs": [
        {
          "indexed": true,
          "internalType": "bytes32",
          "name": "role",
          "type": "bytes32"
        },
        {
          "indexed": true,
          "internalType": "address",
          "name": "account",
          "type": "address"
        },
        {
          "indexed": true,
          "internalType": "address",
          "name": "sender",
          "type": "address"
        }
      ],
      "name": "RoleGranted",
      "type": "event"
    },
    {
      "anonymous": false,
      "inputs": [
        {
          "indexed": true,
          "internalType": "bytes32",
          "name": "role",
          "type": "bytes32"
        },
        {
          "indexed": true,
          "internalType": "address",
          "name": "account",
          "type": "address"
        },
        {
          "indexed": true,
          "internalType": "address",
          "name": "sender",
          "type": "address"
        }
      ],
      "name": "RoleRevoked",
      "type": "event"
    },
    {
      "stateMutability": "payable",
      "type": "fallback"
    },
    {
      "inputs": [],
      "name": "DEFAULT_ADMIN_ROLE",
      "outputs": [
        {
          "internalType": "bytes32",
          "name": "",
          "type": "bytes32"
        }
      ],
      "stateMutability": "view",
      "type": "function"
    },
    {
      "inputs": [],
      "name": "USDDecimals",
      "outputs": [
        {
          "internalType": "uint8",
          "name": "",
          "type": "uint8"
        }
      ],
      "stateMutability": "pure",
      "type": "function"
    },
    {
      "inputs": [
        {
          "internalType": "address",
          "name": "_addr",
          "type": "address"
        }
      ],
      "name": "addPlugin",
      "outputs": [],
      "stateMutability": "nonpayable",
      "type": "function"
    },
    {
      "inputs": [],
      "name": "collateralToken",
      "outputs": [
        {
          "internalType": "address",
          "name": "",
          "type": "address"
        }
      ],
      "stateMutability": "view",
      "type": "function"
    },
    {
      "inputs": [],
      "name": "collateralTokenDigits",
      "outputs": [
        {
          "internalType": "uint8",
          "name": "",
          "type": "uint8"
        }
      ],
      "stateMutability": "view",
      "type": "function"
    },
    {
      "inputs": [
        {
          "components": [
            {
              "internalType": "address",
              "name": "_market",
              "type": "address"
            },
            {
              "internalType": "bool",
              "name": "_isLong",
              "type": "bool"
            },
            {
              "internalType": "uint256",
              "name": "_oraclePrice",
              "type": "uint256"
            },
            {
              "internalType": "bool",
              "name": "isOpen",
              "type": "bool"
            },
            {
              "internalType": "address",
              "name": "_account",
              "type": "address"
            },
            {
              "internalType": "uint256",
              "name": "_sizeDelta",
              "type": "uint256"
            },
            {
              "internalType": "uint256",
              "name": "_price",
              "type": "uint256"
            },
            {
              "internalType": "uint256",
              "name": "_slippage",
              "type": "uint256"
            },
            {
              "internalType": "bool",
              "name": "_isExec",
              "type": "bool"
            },
            {
              "internalType": "uint8",
              "name": "liqState",
              "type": "uint8"
            },
            {
              "internalType": "uint64",
              "name": "_fromOrder",
              "type": "uint64"
            },
            {
              "internalType": "bytes32",
              "name": "_refCode",
              "type": "bytes32"
            },
            {
              "internalType": "uint256",
              "name": "collateralDelta",
              "type": "uint256"
            },
            {
              "internalType": "uint8",
              "name": "execNum",
              "type": "uint8"
            },
            {
              "internalType": "uint256[]",
              "name": "inputs",
              "type": "uint256[]"
            }
          ],
          "internalType": "struct MarketDataTypes.UpdatePositionInputs",
          "name": "",
          "type": "tuple"
        }
      ],
      "name": "decreasePosition",
      "outputs": [],
      "stateMutability": "nonpayable",
      "type": "function"
    },
    {
      "inputs": [
        {
          "components": [
            {
              "internalType": "uint8",
              "name": "version",
              "type": "uint8"
            },
            {
              "internalType": "uint32",
              "name": "updatedAtBlock",
              "type": "uint32"
            },
            {
              "internalType": "uint8",
              "name": "triggerAbove",
              "type": "uint8"
            },
            {
              "internalType": "address",
              "name": "account",
              "type": "address"
            },
            {
              "internalType": "uint48",
              "name": "extra3",
              "type": "uint48"
            },
            {
              "internalType": "uint128",
              "name": "collateral",
              "type": "uint128"
            },
            {
              "internalType": "uint128",
              "name": "size",
              "type": "uint128"
            },
            {
              "internalType": "uint128",
              "name": "price",
              "type": "uint128"
            },
            {
              "internalType": "uint128",
              "name": "extra1",
              "type": "uint128"
            },
            {
              "internalType": "uint64",
              "name": "orderID",
              "type": "uint64"
            },
            {
              "internalType": "uint64",
              "name": "extra2",
              "type": "uint64"
            },
            {
              "internalType": "uint128",
              "name": "extra0",
              "type": "uint128"
            },
            {
              "internalType": "bytes32",
              "name": "refCode",
              "type": "bytes32"
            }
          ],
          "internalType": "struct Order.Props",
          "name": "exeOrder",
          "type": "tuple"
        },
        {
          "components": [
            {
              "internalType": "address",
              "name": "_market",
              "type": "address"
            },
            {
              "internalType": "bool",
              "name": "_isLong",
              "type": "bool"
            },
            {
              "internalType": "uint256",
              "name": "_oraclePrice",
              "type": "uint256"
            },
            {
              "internalType": "bool",
              "name": "isOpen",
              "type": "bool"
            },
            {
              "internalType": "address",
              "name": "_account",
              "type": "address"
            },
            {
              "internalType": "uint256",
              "name": "_sizeDelta",
              "type": "uint256"
            },
            {
              "internalType": "uint256",
              "name": "_price",
              "type": "uint256"
            },
            {
              "internalType": "uint256",
              "name": "_slippage",
              "type": "uint256"
            },
            {
              "internalType": "bool",
              "name": "_isExec",
              "type": "bool"
            },
            {
              "internalType": "uint8",
              "name": "liqState",
              "type": "uint8"
            },
            {
              "internalType": "uint64",
              "name": "_fromOrder",
              "type": "uint64"
            },
            {
              "internalType": "bytes32",
              "name": "_refCode",
              "type": "bytes32"
            },
            {
              "internalType": "uint256",
              "name": "collateralDelta",
              "type": "uint256"
            },
            {
              "internalType": "uint8",
              "name": "execNum",
              "type": "uint8"
            },
            {
              "internalType": "uint256[]",
              "name": "inputs",
              "type": "uint256[]"
            }
          ],
          "internalType": "struct MarketDataTypes.UpdatePositionInputs",
          "name": "_params",
          "type": "tuple"
        }
      ],
      "name": "execOrderKey",
      "outputs": [],
      "stateMutability": "nonpayable",
      "type": "function"
    },
    {
      "inputs": [],
      "name": "feeRouter",
      "outputs": [
        {
          "internalType": "contract IFeeRouter",
          "name": "",
          "type": "address"
        }
      ],
      "stateMutability": "view",
      "type": "function"
    },
    {
      "inputs": [],
      "name": "getPNL",
      "outputs": [
        {
          "internalType": "int256",
          "name": "pnl",
          "type": "int256"
        }
      ],
      "stateMutability": "view",
      "type": "function"
    },
    {
      "inputs": [
        {
          "internalType": "address",
          "name": "account",
          "type": "address"
        }
      ],
      "name": "getPositions",
      "outputs": [
        {
          "components": [
            {
              "internalType": "address",
              "name": "market",
              "type": "address"
            },
            {
              "internalType": "bool",
              "name": "isLong",
              "type": "bool"
            },
            {
              "internalType": "uint32",
              "name": "lastTime",
              "type": "uint32"
            },
            {
              "internalType": "uint216",
              "name": "extra3",
              "type": "uint216"
            },
            {
              "internalType": "uint256",
              "name": "size",
              "type": "uint256"
            },
            {
              "internalType": "uint256",
              "name": "collateral",
              "type": "uint256"
            },
            {
              "internalType": "uint256",
              "name": "averagePrice",
              "type": "uint256"
            },
            {
              "internalType": "int256",
              "name": "entryFundingRate",
              "type": "int256"
            },
            {
              "internalType": "int256",
              "name": "realisedPnl",
              "type": "int256"
            },
            {
              "internalType": "uint256",
              "name": "extra0",
              "type": "uint256"
            },
            {
              "internalType": "uint256",
              "name": "extra1",
              "type": "uint256"
            },
            {
              "internalType": "uint256",
              "name": "extra2",
              "type": "uint256"
            }
          ],
          "internalType": "struct Position.Props[]",
          "name": "_poss",
          "type": "tuple[]"
        }
      ],
      "stateMutability": "view",
      "type": "function"
    },
    {
      "inputs": [
        {
          "internalType": "bytes32",
          "name": "role",
          "type": "bytes32"
        }
      ],
      "name": "getRoleAdmin",
      "outputs": [
        {
          "internalType": "bytes32",
          "name": "",
          "type": "bytes32"
        }
      ],
      "stateMutability": "view",
      "type": "function"
    },
    {
      "inputs": [],
      "name": "globalValid",
      "outputs": [
        {
          "internalType": "address",
          "name": "",
          "type": "address"
        }
      ],
      "stateMutability": "view",
      "type": "function"
    },
    {
      "inputs": [
        {
          "internalType": "address",
          "name": "_account",
          "type": "address"
        }
      ],
      "name": "grantControllerRoleByMarketManager",
      "outputs": [],
      "stateMutability": "nonpayable",
      "type": "function"
    },
    {
      "inputs": [
        {
          "internalType": "bytes32",
          "name": "role",
          "type": "bytes32"
        },
        {
          "internalType": "address",
          "name": "account",
          "type": "address"
        }
      ],
      "name": "grantRole",
      "outputs": [],
      "stateMutability": "nonpayable",
      "type": "function"
    },
    {
      "inputs": [
        {
          "internalType": "bytes32",
          "name": "role",
          "type": "bytes32"
        },
        {
          "internalType": "address",
          "name": "account",
          "type": "address"
        }
      ],
      "name": "hasRole",
      "outputs": [
        {
          "internalType": "bool",
          "name": "",
          "type": "bool"
        }
      ],
      "stateMutability": "view",
      "type": "function"
    },
    {
      "inputs": [
        {
          "components": [
            {
              "internalType": "address",
              "name": "_market",
              "type": "address"
            },
            {
              "internalType": "bool",
              "name": "_isLong",
              "type": "bool"
            },
            {
              "internalType": "uint256",
              "name": "_oraclePrice",
              "type": "uint256"
            },
            {
              "internalType": "bool",
              "name": "isOpen",
              "type": "bool"
            },
            {
              "internalType": "address",
              "name": "_account",
              "type": "address"
            },
            {
              "internalType": "uint256",
              "name": "_sizeDelta",
              "type": "uint256"
            },
            {
              "internalType": "uint256",
              "name": "_price",
              "type": "uint256"
            },
            {
              "internalType": "uint256",
              "name": "_slippage",
              "type": "uint256"
            },
            {
              "internalType": "bool",
              "name": "_isExec",
              "type": "bool"
            },
            {
              "internalType": "uint8",
              "name": "liqState",
              "type": "uint8"
            },
            {
              "internalType": "uint64",
              "name": "_fromOrder",
              "type": "uint64"
            },
            {
              "internalType": "bytes32",
              "name": "_refCode",
              "type": "bytes32"
            },
            {
              "internalType": "uint256",
              "name": "collateralDelta",
              "type": "uint256"
            },
            {
              "internalType": "uint8",
              "name": "execNum",
              "type": "uint8"
            },
            {
              "internalType": "uint256[]",
              "name": "inputs",
              "type": "uint256[]"
            }
          ],
          "internalType": "struct MarketDataTypes.UpdatePositionInputs",
          "name": "",
          "type": "tuple"
        }
      ],
      "name": "increasePositionWithOrders",
      "outputs": [],
      "stateMutability": "nonpayable",
      "type": "function"
    },
    {
      "inputs": [],
      "name": "indexToken",
      "outputs": [
        {
          "internalType": "address",
          "name": "",
          "type": "address"
        }
      ],
      "stateMutability": "view",
      "type": "function"
    },
    {
      "inputs": [
        {
          "internalType": "address[]",
          "name": "addrs",
          "type": "address[]"
        },
        {
          "internalType": "string",
          "name": "_name",
          "type": "string"
        }
      ],
      "name": "initialize",
      "outputs": [],
      "stateMutability": "nonpayable",
      "type": "function"
    },
    {
      "inputs": [
        {
          "internalType": "address[]",
          "name": "",
          "type": "address[]"
        },
        {
          "internalType": "bool",
          "name": "",
          "type": "bool"
        }
      ],
      "name": "liquidatePositions",
      "outputs": [],
      "stateMutability": "nonpayable",
      "type": "function"
    },
    {
      "inputs": [],
      "name": "marketRouter",
      "outputs": [
        {
          "internalType": "address",
          "name": "",
          "type": "address"
        }
      ],
      "stateMutability": "view",
      "type": "function"
    },
    {
      "inputs": [],
      "name": "marketValid",
      "outputs": [
        {
          "internalType": "address",
          "name": "",
          "type": "address"
        }
      ],
      "stateMutability": "view",
      "type": "function"
    },
    {
      "inputs": [],
      "name": "name",
      "outputs": [
        {
          "internalType": "string",
          "name": "",
          "type": "string"
        }
      ],
      "stateMutability": "view",
      "type": "function"
    },
    {
      "inputs": [],
      "name": "orderBookLong",
      "outputs": [
        {
          "internalType": "contract IOrderBook",
          "name": "",
          "type": "address"
        }
      ],
      "stateMutability": "view",
      "type": "function"
    },
    {
      "inputs": [],
      "name": "orderBookShort",
      "outputs": [
        {
          "internalType": "contract IOrderBook",
          "name": "",
          "type": "address"
        }
      ],
      "stateMutability": "view",
      "type": "function"
    },
    {
      "inputs": [],
      "name": "orderMgr",
      "outputs": [
        {
          "internalType": "address",
          "name": "",
          "type": "address"
        }
      ],
      "stateMutability": "view",
      "type": "function"
    },
    {
      "inputs": [
        {
          "internalType": "bool",
          "name": "isLong",
          "type": "bool"
        },
        {
          "internalType": "bool",
          "name": "isOpen",
          "type": "bool"
        }
      ],
      "name": "orderStore",
      "outputs": [
        {
          "internalType": "contract IOrderStore",
          "name": "",
          "type": "address"
        }
      ],
      "stateMutability": "view",
      "type": "function"
    },
    {
      "inputs": [],
      "name": "owner",
      "outputs": [
        {
          "internalType": "address",
          "name": "",
          "type": "address"
        }
      ],
      "stateMutability": "view",
      "type": "function"
    },
    {
      "inputs": [],
      "name": "pluginGasLimit",
      "outputs": [
        {
          "internalType": "uint256",
          "name": "",
          "type": "uint256"
        }
      ],
      "stateMutability": "view",
      "type": "function"
    },
    {
      "inputs": [
        {
          "internalType": "uint256",
          "name": "",
          "type": "uint256"
        }
      ],
      "name": "plugins",
      "outputs": [
        {
          "internalType": "address",
          "name": "",
          "type": "address"
        }
      ],
      "stateMutability": "view",
      "type": "function"
    },
    {
      "inputs": [],
      "name": "positionAddMgr",
      "outputs": [
        {
          "internalType": "address",
          "name": "",
          "type": "address"
        }
      ],
      "stateMutability": "view",
      "type": "function"
    },
    {
      "inputs": [],
      "name": "positionBook",
      "outputs": [
        {
          "internalType": "contract IPositionBook",
          "name": "",
          "type": "address"
        }
      ],
      "stateMutability": "view",
      "type": "function"
    },
    {
      "inputs": [],
      "name": "positionStoreLong",
      "outputs": [
        {
          "internalType": "address",
          "name": "",
          "type": "address"
        }
      ],
      "stateMutability": "view",
      "type": "function"
    },
    {
      "inputs": [],
      "name": "positionStoreShort",
      "outputs": [
        {
          "internalType": "address",
          "name": "",
          "type": "address"
        }
      ],
      "stateMutability": "view",
      "type": "function"
    },
    {
      "inputs": [],
      "name": "positionSubMgr",
      "outputs": [
        {
          "internalType": "address",
          "name": "",
          "type": "address"
        }
      ],
      "stateMutability": "view",
      "type": "function"
    },
    {
      "inputs": [],
      "name": "priceFeed",
      "outputs": [
        {
          "internalType": "address",
          "name": "",
          "type": "address"
        }
      ],
      "stateMutability": "view",
      "type": "function"
    },
    {
      "inputs": [
        {
          "internalType": "address",
          "name": "_addr",
          "type": "address"
        }
      ],
      "name": "removePlugin",
      "outputs": [],
      "stateMutability": "nonpayable",
      "type": "function"
    },
    {
      "inputs": [],
      "name": "renounceOwnership",
      "outputs": [],
      "stateMutability": "nonpayable",
      "type": "function"
    },
    {
      "inputs": [
        {
          "internalType": "bytes32",
          "name": "role",
          "type": "bytes32"
        },
        {
          "internalType": "address",
          "name": "account",
          "type": "address"
        }
      ],
      "name": "renounceRole",
      "outputs": [],
      "stateMutability": "nonpayable",
      "type": "function"
    },
    {
      "inputs": [
        {
          "internalType": "bytes32",
          "name": "role",
          "type": "bytes32"
        },
        {
          "internalType": "address",
          "name": "account",
          "type": "address"
        }
      ],
      "name": "revokeRole",
      "outputs": [],
      "stateMutability": "nonpayable",
      "type": "function"
    },
    {
      "inputs": [
        {
          "internalType": "address",
          "name": "_newMv",
          "type": "address"
        }
      ],
      "name": "setMarketValid",
      "outputs": [],
      "stateMutability": "nonpayable",
      "type": "function"
    },
    {
      "inputs": [
        {
          "internalType": "address",
          "name": "obl",
          "type": "address"
        },
        {
          "internalType": "address",
          "name": "obs",
          "type": "address"
        }
      ],
      "name": "setOrderBooks",
      "outputs": [],
      "stateMutability": "nonpayable",
      "type": "function"
    },
    {
      "inputs": [
        {
          "internalType": "address",
          "name": "_m",
          "type": "address"
        }
      ],
      "name": "setOrderMgr",
      "outputs": [],
      "stateMutability": "nonpayable",
      "type": "function"
    },
    {
      "inputs": [
        {
          "internalType": "address",
          "name": "pb",
          "type": "address"
        }
      ],
      "name": "setPositionBook",
      "outputs": [],
      "stateMutability": "nonpayable",
      "type": "function"
    },
    {
      "inputs": [
        {
          "internalType": "address",
          "name": "_m",
          "type": "address"
        },
        {
          "internalType": "bool",
          "name": "add",
          "type": "bool"
        }
      ],
      "name": "setPositionMgr",
      "outputs": [],
      "stateMutability": "nonpayable",
      "type": "function"
    },
    {
      "inputs": [
        {
          "internalType": "bytes4",
          "name": "interfaceId",
          "type": "bytes4"
        }
      ],
      "name": "supportsInterface",
      "outputs": [
        {
          "internalType": "bool",
          "name": "",
          "type": "bool"
        }
      ],
      "stateMutability": "view",
      "type": "function"
    },
    {
      "inputs": [
        {
          "internalType": "address",
          "name": "to",
          "type": "address"
        }
      ],
      "name": "transferAdmin",
      "outputs": [],
      "stateMutability": "nonpayable",
      "type": "function"
    },
    {
      "inputs": [
        {
          "internalType": "address",
          "name": "newOwner",
          "type": "address"
        }
      ],
      "name": "transferOwnership",
      "outputs": [],
      "stateMutability": "nonpayable",
      "type": "function"
    },
    {
      "inputs": [],
      "name": "updateCumulativeFundingRate",
      "outputs": [],
      "stateMutability": "nonpayable",
      "type": "function"
    },
    {
      "inputs": [],
      "name": "vaultRouter",
      "outputs": [
        {
          "internalType": "address",
          "name": "",
          "type": "address"
        }
      ],
      "stateMutability": "view",
      "type": "function"
    },
    {
      "stateMutability": "payable",
      "type": "receive"
    }
  ],
  "bytecode": "0x60806040523480156200001157600080fd5b506040516200435138038062004351833981016040819052620000349162000195565b600160465580620000453362000063565b6200005b81620000b560201b620025dd1760201c565b5050620001c7565b604880546001600160a01b038381166001600160a01b0319831681179093556040519116919082907f8be0079c531659141344cd1fd0a4f28419497f9722a3daafe3b4186f6b6457e090600090a35050565b42604955620000c43362000063565b620000d1600033620000e1565b620000de600082620000e1565b50565b620000ed8282620000f1565b5050565b60008281526047602090815260408083206001600160a01b038516845290915290205460ff16620000ed5760008281526047602090815260408083206001600160a01b03851684529091529020805460ff19166001179055620001513390565b6001600160a01b0316816001600160a01b0316837f2f8788117e7eff1d82e926ec794901d17c78024a50270940304540a733656f0d60405160405180910390a45050565b600060208284031215620001a857600080fd5b81516001600160a01b0381168114620001c057600080fd5b9392505050565b61417a80620001d76000396000f3fe6080604052600436106102b25760003560e01c80638d49701d11610175578063b21dc9cb116100dc578063d547741f11610095578063e84254671161006f578063e842546714610946578063f0a317eb1461095a578063f29ebf611461097a578063f2fde38b1461099a576102bc565b8063d547741f146108e6578063d8867fc814610906578063e7d015f214610926576102bc565b8063b21dc9cb1461081a578063b894300d14610846578063c54dc3d614610866578063d12dbde414610886578063d37c441c146108a6578063d49ff78d146108c6576102bc565b8063a217fddf1161012e578063a217fddf14610740578063a264045414610755578063a4d95b641461079a578063abed9618146107ba578063ac0b05a6146107da578063b2016bd4146107fa576102bc565b80638d49701d1461068d5780638da5cb5b146106ad5780638dcbb54d146106cb57806391d14854146106eb57806393a98e6c1461070b578063a0cbf50c14610720576102bc565b806336568abe11610219578063715018a6116101d2578063715018a6146105d8578063741bef1a146105ed57806375829def1461060d5780637b2fd1e51461062d5780637fe4a6981461064d5780638a6ca35d1461066d576102bc565b806336568abe1461051657806339955ed7146105365780633bdef83a146105565780633eeb530e146105765780633f70d442146105a357806345ccf5c5146105b8576102bc565b806312ec5d001161026b57806312ec5d00146104465780631afd89c714610466578063248a9ca3146104865780632b0b0662146104b65780632f2ff15d146104d65780633233efe5146104f6576102bc565b806301ffc9a71461035257806303deb0291461038757806305ba9ae9146103ac57806306fdde03146103e457806307e875451461040657806312de276c14610426576102bc565b366102bc57600080fd5b6102e57fcb58d6d985142a614029cdf01861b4fe094d5919a47e69b8310dc4093d9d6ad06109ba565b600f5460408051602036601f8101829004820283018201909352828252610350936001600160a01b03169260009181908401838280828437600092019190915250506040805180820190915260078152663ab735b737bbb760c91b60208201529150600190506109c7565b005b34801561035e57600080fd5b5061037261036d366004612e2f565b610a9e565b60405190151581526020015b60405180910390f35b34801561039357600080fd5b5061039e620a2c2a81565b60405190815260200161037e565b3480156103b857600080fd5b506006546103cc906001600160a01b031681565b6040516001600160a01b03909116815260200161037e565b3480156103f057600080fd5b506103f9610ad5565b60405161037e9190612ea9565b34801561041257600080fd5b50600a546103cc906001600160a01b031681565b34801561043257600080fd5b506103506104413660046131cc565b610b63565b34801561045257600080fd5b50610350610461366004613364565b610e0c565b34801561047257600080fd5b506103506104813660046133b5565b610eab565b34801561049257600080fd5b5061039e6104a13660046133e3565b60009081526047602052604090206001015490565b3480156104c257600080fd5b506103506104d13660046133fc565b610f1f565b3480156104e257600080fd5b506103506104f1366004613419565b610f6d565b34801561050257600080fd5b50610350610511366004613465565b610f92565b34801561052257600080fd5b50610350610531366004613419565b611932565b34801561054257600080fd5b506103506105513660046133fc565b6119b0565b34801561056257600080fd5b50610350610571366004613506565b611ae6565b34801561058257600080fd5b506105966105913660046133fc565b611b90565b60405161037e9190613542565b3480156105af57600080fd5b50610350611c54565b3480156105c457600080fd5b50600b546103cc906001600160a01b031681565b3480156105e457600080fd5b50610350611c72565b3480156105f957600080fd5b506009546103cc906001600160a01b031681565b34801561061957600080fd5b506103506106283660046133fc565b611c84565b34801561063957600080fd5b506005546103cc906001600160a01b031681565b34801561065957600080fd5b506103506106683660046133fc565b611cae565b34801561067957600080fd5b50600e546103cc906001600160a01b031681565b34801561069957600080fd5b506103506106a83660046133fc565b611ccb565b3480156106b957600080fd5b506048546001600160a01b03166103cc565b3480156106d757600080fd5b506103506106e6366004613615565b611fc9565b3480156106f757600080fd5b50610372610706366004613419565b61201d565b34801561071757600080fd5b5061039e612048565b34801561072c57600080fd5b50600f546103cc906001600160a01b031681565b34801561074c57600080fd5b5061039e600081565b34801561076157600080fd5b506103cc610770366004613643565b9015156000908152600760209081526040808320931515835292905220546001600160a01b031690565b3480156107a657600080fd5b506103506107b53660046133fc565b6121cd565b3480156107c657600080fd5b506103506107d5366004613506565b6122fd565b3480156107e657600080fd5b506003546103cc906001600160a01b031681565b34801561080657600080fd5b506004546103cc906001600160a01b031681565b34801561082657600080fd5b506013546108349060ff1681565b60405160ff909116815260200161037e565b34801561085257600080fd5b506000546103cc906001600160a01b031681565b34801561087257600080fd5b506001546103cc906001600160a01b031681565b34801561089257600080fd5b506010546103cc906001600160a01b031681565b3480156108b257600080fd5b50600c546103cc906001600160a01b031681565b3480156108d257600080fd5b50600d546103cc906001600160a01b031681565b3480156108f257600080fd5b50610350610901366004613419565b61239a565b34801561091257600080fd5b506103506109213660046133fc565b6123bf565b34801561093257600080fd5b506002546103cc906001600160a01b031681565b34801561095257600080fd5b506012610834565b34801561096657600080fd5b506103cc6109753660046133e3565b61253d565b34801561098657600080fd5b506008546103cc906001600160a01b031681565b3480156109a657600080fd5b506103506109b53660046133fc565b612567565b6109c48133612600565b50565b606060006060866001600160a01b0316866040516109e59190613661565b600060405180830381855af49150503d8060008114610a20576040519150601f19603f3d011682016040523d82523d6000602084013e610a25565b606091505b50909250905081610a9457604481511015610a4257849250610a6b565b60048101905080806020019051810190610a5c919061367d565b92508251600003610a6b578492505b8315610a94578260405162461bcd60e51b8152600401610a8b9190612ea9565b60405180910390fd5b5094509492505050565b60006001600160e01b03198216637965db0b60e01b1480610acf57506301ffc9a760e01b6001600160e01b03198316145b92915050565b60118054610ae2906136f3565b80601f0160208091040260200160405190810160405280929190818152602001828054610b0e906136f3565b8015610b5b5780601f10610b3057610100808354040283529160200191610b5b565b820191906000526020600020905b815481529060010190602001808311610b3e57829003601f168201915b505050505081565b610b8c7ffb248bbb6ca5a799a6bb9ba79f58aa5cdbe0e5979238a967315e7ffbfd119d1a6109ba565b600080610c4c8360600151610bac57600e546001600160a01b0316610bb9565b600d546001600160a01b03165b60405180610100016040528060dd815260200161404860dd9139805190602001208686604051602401610bed929190613863565b604051602081830303815290604052906001600160e01b0319166020820180516001600160e01b0383818316178352505050506040518060400160405280600c81526020016b657865634f726465724b657960a01b81525060006109c7565b9150915080610e065760408051600180825281830190925260009160208083019080368337019050509050610c8085612659565b81600081518110610c9357610c9361399d565b6020908102919091010152604080516001808252818301909252600091816020016020820280368337019050509050846020015181600081518110610cda57610cda61399d565b91151560209283029190910190910152604080516001808252818301909252600091816020016020820280368337019050509050856060015181600081518110610d2657610d2661399d565b91151560209283029190910190910152604080516001808252818301909252600091816020015b6060815260200190600190039081610d4d5790505090508581600081518110610d7857610d7861399d565b6020908102919091010152600f54604051610dff916001600160a01b031690610dab9087908790879087906024016139e5565b60408051601f19818403018152918152602080830180516001600160e01b0316632b031ea960e21b1790528151808301909252600e82526d39bcb9a1b0b731b2b627b93232b960911b9082015260016109c7565b5050505050505b50505050565b610e357ffb248bbb6ca5a799a6bb9ba79f58aa5cdbe0e5979238a967315e7ffbfd119d1a6109ba565b600e5460408051602036601f8101829004820283018201909352828252610e06936001600160a01b03169260009181908401838280828437600092019190915250506040805180820190915260128152716c6971756964617465506f736974696f6e7360701b60208201529150600190506109c7565b600080516020614125833981519152610ec3816109ba565b6001600160a01b038316610ed657600080fd5b8115610efe57600d80546001600160a01b0385166001600160a01b0319909116179055505050565b600e80546001600160a01b0319166001600160a01b0385161790555b505050565b600080516020614125833981519152610f37816109ba565b6001600160a01b038216610f4a57600080fd5b50600f80546001600160a01b0319166001600160a01b0392909216919091179055565b600082815260476020526040902060010154610f88816109ba565b610f1a83836126be565b604854600160a81b900460ff1615808015610fba57506048546001600160a01b90910460ff16105b80610fdb5750303b158015610fdb5750604854600160a01b900460ff166001145b61103e5760405162461bcd60e51b815260206004820152602e60248201527f496e697469616c697a61626c653a20636f6e747261637420697320616c72656160448201526d191e481a5b9a5d1a585b1a5e995960921b6064820152608401610a8b565b6048805460ff60a01b1916600160a01b179055801561106b576048805460ff60a81b1916600160a81b1790555b60116110778382613af6565b508260008151811061108b5761108b61399d565b6020026020010151600360006101000a8154816001600160a01b0302191690836001600160a01b03160217905550826001815181106110cc576110cc61399d565b6020026020010151600560006101000a8154816001600160a01b0302191690836001600160a01b031602179055508260028151811061110d5761110d61399d565b6020026020010151600660006101000a8154816001600160a01b0302191690836001600160a01b031602179055508260038151811061114e5761114e61399d565b60200260200101516000806101000a8154816001600160a01b0302191690836001600160a01b031602179055508260048151811061118e5761118e61399d565b6020026020010151600960006101000a8154816001600160a01b0302191690836001600160a01b03160217905550826005815181106111cf576111cf61399d565b6020026020010151600e60006101000a8154816001600160a01b0302191690836001600160a01b03160217905550826006815181106112105761121061399d565b6020026020010151600d60006101000a8154816001600160a01b0302191690836001600160a01b03160217905550826007815181106112515761125161399d565b6020026020010151600260006101000a8154816001600160a01b0302191690836001600160a01b03160217905550826008815181106112925761129261399d565b6020026020010151600860006101000a8154816001600160a01b0302191690836001600160a01b03160217905550826009815181106112d3576112d361399d565b6020026020010151601060006101000a8154816001600160a01b0302191690836001600160a01b0316021790555082600a815181106113145761131461399d565b6020026020010151600c60006101000a8154816001600160a01b0302191690836001600160a01b0316021790555082600b815181106113555761135561399d565b6020026020010151600460006101000a8154816001600160a01b0302191690836001600160a01b0316021790555082600c815181106113965761139661399d565b6020026020010151600160006101000a8154816001600160a01b0302191690836001600160a01b0316021790555082600d815181106113d7576113d761399d565b602090810291909101810151600f80546001600160a01b0319166001600160a01b0392831617905560055460408051637e1dcaf760e01b815290519190921692637e1dcaf792600480820193918290030181865afa15801561143d573d6000803e3d6000fd5b505050506040513d601f19601f820116820180604052508101906114619190613bb5565b60016000527fb39221ace053465ec3453ce2b36430bd138b997ecea25c1043da0c366812b82860209081527f7e3f8087768dd46afafd904b64320d27e506312b937487e59f767c7732ae8f6e80546001600160a01b0319166001600160a01b0393841617905560055460408051633683c2b360e11b815290519190931692636d0785669260048083019391928290030181865afa158015611506573d6000803e3d6000fd5b505050506040513d601f19601f8201168201806040525081019061152a9190613bb5565b600080527fb39221ace053465ec3453ce2b36430bd138b997ecea25c1043da0c366812b82860209081527fdab972c909d3e9becdfd720143424fd6fe2ef53f3b2f9c4b45f582e7e83b39bb80546001600160a01b0319166001600160a01b0393841617905560065460408051637e1dcaf760e01b815290519190931692637e1dcaf79260048083019391928290030181865afa1580156115ce573d6000803e3d6000fd5b505050506040513d601f19601f820116820180604052508101906115f29190613bb5565b60016000527f6d5257204ebe7d88fd91ae87941cb2dd9d8062b64ae5a2bd2d28ec40b9fbf6df60209081527ffa778a20fba1b88d7c7b188dc1c4eb115a1fb0693025fb44b92eb4ffe9dbb68e80546001600160a01b0319166001600160a01b0393841617905560065460408051633683c2b360e11b815290519190931692636d0785669260048083019391928290030181865afa158015611697573d6000803e3d6000fd5b505050506040513d601f19601f820116820180604052508101906116bb9190613bb5565b600080527f6d5257204ebe7d88fd91ae87941cb2dd9d8062b64ae5a2bd2d28ec40b9fbf6df60209081527fc65916d663d52b0a18b63681e34ad6e3e8bb58d57f662b8e7e045ab09fab038580546001600160a01b0319166001600160a01b03938416179055600480546040805163313ce56760e01b81529051919094169363313ce56793818401939092918290030181865afa15801561175f573d6000803e3d6000fd5b505050506040513d601f19601f820116820180604052508101906117839190613bd2565b6013805460ff191660ff92909216919091179055600354604080516350c1c30960e11b815290516001600160a01b039092169163a1838612916004808201926020929091908290030181865afa1580156117e1573d6000803e3d6000fd5b505050506040513d601f19601f820116820180604052508101906118059190613bb5565b600a80546001600160a01b0319166001600160a01b0392831617905560035460408051630a302a3960e11b81529051919092169163146054729160048083019260209291908290030181865afa158015611863573d6000803e3d6000fd5b505050506040513d601f19601f820116820180604052508101906118879190613bb5565b600b80546001600160a01b03199081166001600160a01b0393841617909155601054601280546001810182556000919091527fbb8a6a4669ba250d26cd7a459eca9d215f8307e33aebe50379bc5a3617ec34440180549190931691161790558015610f1a576048805460ff60a81b19169055604051600181527f7f26b83ff96e1f2b6a682f133852f6798a09c465da95921460cefb38474024989060200160405180910390a1505050565b6001600160a01b03811633146119a25760405162461bcd60e51b815260206004820152602f60248201527f416363657373436f6e74726f6c3a2063616e206f6e6c792072656e6f756e636560448201526e103937b632b9903337b91039b2b63360891b6064820152608401610a8b565b6119ac8282612744565b5050565b6000805160206141258339815191526119c8816109ba565b6001600160a01b0382166119db57600080fd5b6000546001600160a01b031615611ac357816001600160a01b0316638e98ec8d60008054906101000a90046001600160a01b03166001600160a01b031663177927296040518163ffffffff1660e01b8152600401602060405180830381865afa158015611a4c573d6000803e3d6000fd5b505050506040513d601f19601f82011682018060405250810190611a709190613bfa565b5160405160e083901b6001600160e01b03191681526004810191909152602401600060405180830381600087803b158015611aaa57600080fd5b505af1158015611abe573d6000803e3d6000fd5b505050505b50600080546001600160a01b0319166001600160a01b0392909216919091179055565b611b0f7fcb58d6d985142a614029cdf01861b4fe094d5919a47e69b8310dc4093d9d6ad06109ba565b600d5460408051602036601f8101829004820283018201909352828252610f1a936001600160a01b031692600091819084018382808284376000920191909152505060408051808201909152601a81527f696e637265617365506f736974696f6e576974684f726465727300000000000060208201529150600190506109c7565b600354604051631f75a98760e11b81526001600160a01b0383811660048301526060921690633eeb530e90602401600060405180830381865afa158015611bdb573d6000803e3d6000fd5b505050506040513d6000823e601f3d908101601f19168201604052611c039190810190613c68565b905060005b8151811015611c4e5730828281518110611c2457611c2461399d565b60209081029190910101516001600160a01b03909116905280611c4681613db6565b915050611c08565b50919050565b600354600854611c70916001600160a01b0390811691166127ab565b565b611c7a612881565b611c7060006128db565b6000611c8f816109ba565b611c9a60008361292d565b611ca3826128db565b6119ac600033612744565b600080516020614125833981519152611cc6816109ba565b600080fd5b600080516020614125833981519152611ce3816109ba565b6001600160a01b038216611cf657600080fd5b816001600160a01b031663a18386126040518163ffffffff1660e01b8152600401602060405180830381865afa158015611d34573d6000803e3d6000fd5b505050506040513d601f19601f82011682018060405250810190611d589190613bb5565b6001600160a01b0316600360009054906101000a90046001600160a01b03166001600160a01b031663a18386126040518163ffffffff1660e01b8152600401602060405180830381865afa158015611db4573d6000803e3d6000fd5b505050506040513d601f19601f82011682018060405250810190611dd89190613bb5565b6001600160a01b031614611e1e5760405162461bcd60e51b815260206004820152600d60248201526c696e76616c69642073746f726560981b6044820152606401610a8b565b816001600160a01b031663146054726040518163ffffffff1660e01b8152600401602060405180830381865afa158015611e5c573d6000803e3d6000fd5b505050506040513d601f19601f82011682018060405250810190611e809190613bb5565b6001600160a01b0316600360009054906101000a90046001600160a01b03166001600160a01b031663146054726040518163ffffffff1660e01b8152600401602060405180830381865afa158015611edc573d6000803e3d6000fd5b505050506040513d601f19601f82011682018060405250810190611f009190613bb5565b6001600160a01b031614611f465760405162461bcd60e51b815260206004820152600d60248201526c696e76616c69642073746f726560981b6044820152606401610a8b565b6010546040516366b75fb360e11b81526001600160a01b0384811660048301529091169063cd6ebf6690602401600060405180830381600087803b158015611f8d57600080fd5b505af1158015611fa1573d6000803e3d6000fd5b5050600380546001600160a01b0319166001600160a01b039590951694909417909355505050565b600080516020614125833981519152611fe1816109ba565b6001600160a01b038316611ff457600080fd5b6001600160a01b03821661200757600080fd5b612012600184612937565b610f1a600083612937565b60009182526047602090815260408084206001600160a01b0393909316845291905290205460ff1690565b6009546002546040516303b6b4bb60e51b81526001600160a01b03918216600482015260006024820181905292839216906376d6976090604401602060405180830381865afa15801561209f573d6000803e3d6000fd5b505050506040513d601f19601f820116820180604052508101906120c39190613dcf565b6009546002546040516303b6b4bb60e51b81526001600160a01b039182166004820152600160248201529293506000929116906376d6976090604401602060405180830381865afa15801561211c573d6000803e3d6000fd5b505050506040513d601f19601f820116820180604052508101906121409190613dcf565b6003546040516301aa2e3960e41b815260048101859052602481018390529192506121c6916001600160a01b0390911690631aa2e39090604401602060405180830381865afa158015612197573d6000803e3d6000fd5b505050506040513d601f19601f820116820180604052508101906121bb9190613dcf565b60135460ff16612c4b565b9250505090565b6121f67f241ecf16d79d0f8dbfb92cbc07fe17840425976cf0667f022fe9877caa831b086109ba565b60005b6012548110156119ac57816001600160a01b0316601282815481106122205761222061399d565b6000918252602090912001546001600160a01b0316036122eb576012805461224a90600190613de8565b8154811061225a5761225a61399d565b600091825260209091200154601280546001600160a01b0390921691839081106122865761228661399d565b9060005260206000200160006101000a8154816001600160a01b0302191690836001600160a01b0316021790555060128054806122c5576122c5613dfb565b600082815260209020810160001990810180546001600160a01b03191690550190555050565b806122f581613db6565b9150506121f9565b6123267fcb58d6d985142a614029cdf01861b4fe094d5919a47e69b8310dc4093d9d6ad06109ba565b600e5460408051602036601f8101829004820283018201909352828252610f1a936001600160a01b031692600091819084018382808284376000920191909152505060408051808201909152601081526f3232b1b932b0b9b2a837b9b4ba34b7b760811b60208201529150600190506109c7565b6000828152604760205260409020600101546123b5816109ba565b610f1a8383612744565b7f241ecf16d79d0f8dbfb92cbc07fe17840425976cf0667f022fe9877caa831b0860006123ec813361201d565b905080156124495762093a80604954426124069190613de8565b106124445760405162461bcd60e51b815260206004820152600e60248201526d1858c81d1a5b59481c185cdcd95960921b6044820152606401610a8b565b612453565b6124538233612600565b60005b6012548110156124e757836001600160a01b03166012828154811061247d5761247d61399d565b6000918252602090912001546001600160a01b0316036124d55760405162461bcd60e51b81526020600482015260136024820152724d61726b65743a73616d65206164647265737360681b6044820152606401610a8b565b806124df81613db6565b915050612456565b5050601280546001810182556000919091527fbb8a6a4669ba250d26cd7a459eca9d215f8307e33aebe50379bc5a3617ec34440180546001600160a01b0319166001600160a01b03939093169290921790915550565b6012818154811061254d57600080fd5b6000918252602090912001546001600160a01b0316905081565b61256f612881565b6001600160a01b0381166125d45760405162461bcd60e51b815260206004820152602660248201527f4f776e61626c653a206e6577206f776e657220697320746865207a65726f206160448201526564647265737360d01b6064820152608401610a8b565b6109c4816128db565b426049556125ea336128db565b6125f560003361292d565b6109c460008261292d565b61260a828261201d565b6119ac5761261781612c82565b612622836020612c94565b604051602001612633929190613e11565b60408051601f198184030181529082905262461bcd60e51b8252610a8b91600401612ea9565b600081606001518261012001516040516020016126a192919060609290921b6bffffffffffffffffffffffff1916825260c01b6001600160c01b0319166014820152601c0190565b604051602081830303815290604052805190602001209050919050565b6126c8828261201d565b6119ac5760008281526047602090815260408083206001600160a01b03851684529091529020805460ff191660011790556127003390565b6001600160a01b0316816001600160a01b0316837f2f8788117e7eff1d82e926ec794901d17c78024a50270940304540a733656f0d60405160405180910390a45050565b61274e828261201d565b156119ac5760008281526047602090815260408083206001600160a01b0385168085529252808320805460ff1916905551339285917ff6391f5c32d9c69d2a47ea670b442974b53935d1edc7fd64eb21e047a839171b9190a45050565b600080836001600160a01b0316638749694a6040518163ffffffff1660e01b81526004016040805180830381865afa1580156127eb573d6000803e3d6000fd5b505050506040513d601f19601f8201168201806040525081019061280f9190613e86565b60405163c6f83ad160e01b8152306004820152602481018390526044810182905291935091506001600160a01b0384169063c6f83ad190606401600060405180830381600087803b15801561286357600080fd5b505af1158015612877573d6000803e3d6000fd5b5050505050505050565b6048546001600160a01b03163314611c705760405162461bcd60e51b815260206004820181905260248201527f4f776e61626c653a2063616c6c6572206973206e6f7420746865206f776e65726044820152606401610a8b565b604880546001600160a01b038381166001600160a01b0319831681179093556040519116919082907f8be0079c531659141344cd1fd0a4f28419497f9722a3daafe3b4186f6b6457e090600090a35050565b6119ac82826126be565b808215612ac457806001600160a01b031663e254542284600560009054906101000a90046001600160a01b03166001600160a01b0316637e1dcaf76040518163ffffffff1660e01b8152600401602060405180830381865afa1580156129a1573d6000803e3d6000fd5b505050506040513d601f19601f820116820180604052508101906129c59190613bb5565b600560009054906101000a90046001600160a01b03166001600160a01b0316636d0785666040518163ffffffff1660e01b8152600401602060405180830381865afa158015612a18573d6000803e3d6000fd5b505050506040513d601f19601f82011682018060405250810190612a3c9190613bb5565b6040516001600160e01b031960e086901b16815292151560048401526001600160a01b039182166024840152166044820152606401600060405180830381600087803b158015612a8b57600080fd5b505af1158015612a9f573d6000803e3d6000fd5b5050600580546001600160a01b0319166001600160a01b03851617905550610f1a9050565b806001600160a01b031663e254542284600660009054906101000a90046001600160a01b03166001600160a01b0316637e1dcaf76040518163ffffffff1660e01b8152600401602060405180830381865afa158015612b27573d6000803e3d6000fd5b505050506040513d601f19601f82011682018060405250810190612b4b9190613bb5565b600660009054906101000a90046001600160a01b03166001600160a01b0316636d0785666040518163ffffffff1660e01b8152600401602060405180830381865afa158015612b9e573d6000803e3d6000fd5b505050506040513d601f19601f82011682018060405250810190612bc29190613bb5565b6040516001600160e01b031960e086901b16815292151560048401526001600160a01b039182166024840152166044820152606401600060405180830381600087803b158015612c1157600080fd5b505af1158015612c25573d6000803e3d6000fd5b5050600680546001600160a01b0385166001600160a01b03199091161790555050505050565b6000612c596012600a613f8e565b612c6760ff8416600a613f8e565b612c719085613f9a565b612c7b9190613fca565b9392505050565b6060610acf6001600160a01b03831660145b60606000612ca3836002614006565b612cae90600261401d565b6001600160401b03811115612cc557612cc5612ebc565b6040519080825280601f01601f191660200182016040528015612cef576020820181803683370190505b509050600360fc1b81600081518110612d0a57612d0a61399d565b60200101906001600160f81b031916908160001a905350600f60fb1b81600181518110612d3957612d3961399d565b60200101906001600160f81b031916908160001a9053506000612d5d846002614006565b612d6890600161401d565b90505b6001811115612de0576f181899199a1a9b1b9c1cb0b131b232b360811b85600f1660108110612d9c57612d9c61399d565b1a60f81b828281518110612db257612db261399d565b60200101906001600160f81b031916908160001a90535060049490941c93612dd981614030565b9050612d6b565b508315612c7b5760405162461bcd60e51b815260206004820181905260248201527f537472696e67733a20686578206c656e67746820696e73756666696369656e746044820152606401610a8b565b600060208284031215612e4157600080fd5b81356001600160e01b031981168114612c7b57600080fd5b60005b83811015612e74578181015183820152602001612e5c565b50506000910152565b60008151808452612e95816020860160208601612e59565b601f01601f19169290920160200192915050565b602081526000612c7b6020830184612e7d565b634e487b7160e01b600052604160045260246000fd5b6040516101e081016001600160401b0381118282101715612ef557612ef5612ebc565b60405290565b6040516101a081016001600160401b0381118282101715612ef557612ef5612ebc565b60405161018081016001600160401b0381118282101715612ef557612ef5612ebc565b604051601f8201601f191681016001600160401b0381118282101715612f6957612f69612ebc565b604052919050565b60ff811681146109c457600080fd5b8035612f8b81612f71565b919050565b63ffffffff811681146109c457600080fd5b8035612f8b81612f90565b6001600160a01b03811681146109c457600080fd5b8035612f8b81612fad565b803565ffffffffffff81168114612f8b57600080fd5b80356001600160801b0381168114612f8b57600080fd5b80356001600160401b0381168114612f8b57600080fd5b80151581146109c457600080fd5b8035612f8b81613011565b60006001600160401b0382111561304357613043612ebc565b5060051b60200190565b600082601f83011261305e57600080fd5b8135602061307361306e8361302a565b612f41565b82815260059290921b8401810191818101908684111561309257600080fd5b8286015b848110156130ad5780358352918301918301613096565b509695505050505050565b60006101e082840312156130cb57600080fd5b6130d3612ed2565b90506130de82612fc2565b81526130ec6020830161301f565b6020820152604082013560408201526131076060830161301f565b606082015261311860808301612fc2565b608082015260a082013560a082015260c082013560c082015260e082013560e082015261010061314981840161301f565b9082015261012061315b838201612f80565b9082015261014061316d838201612ffa565b90820152610160828101359082015261018080830135908201526101a0613195818401612f80565b908201526101c0828101356001600160401b038111156131b457600080fd5b6131c08582860161304d565b82840152505092915050565b6000808284036101c08112156131e157600080fd5b6101a0808212156131f157600080fd5b6131f9612efb565b915061320485612f80565b825261321260208601612fa2565b602083015261322360408601612f80565b604083015261323460608601612fc2565b606083015261324560808601612fcd565b608083015261325660a08601612fe3565b60a083015261326760c08601612fe3565b60c083015261327860e08601612fe3565b60e083015261010061328b818701612fe3565b9083015261012061329d868201612ffa565b908301526101406132af868201612ffa565b908301526101606132c1868201612fe3565b9083015261018085810135908301529092508301356001600160401b038111156132ea57600080fd5b6132f6858286016130b8565b9150509250929050565b600082601f83011261331157600080fd5b8135602061332161306e8361302a565b82815260059290921b8401810191818101908684111561334057600080fd5b8286015b848110156130ad57803561335781612fad565b8352918301918301613344565b6000806040838503121561337757600080fd5b82356001600160401b0381111561338d57600080fd5b61339985828601613300565b92505060208301356133aa81613011565b809150509250929050565b600080604083850312156133c857600080fd5b82356133d381612fad565b915060208301356133aa81613011565b6000602082840312156133f557600080fd5b5035919050565b60006020828403121561340e57600080fd5b8135612c7b81612fad565b6000806040838503121561342c57600080fd5b8235915060208301356133aa81612fad565b60006001600160401b0382111561345757613457612ebc565b50601f01601f191660200190565b6000806040838503121561347857600080fd5b82356001600160401b038082111561348f57600080fd5b61349b86838701613300565b935060208501359150808211156134b157600080fd5b508301601f810185136134c357600080fd5b80356134d161306e8261343e565b8181528660208385010111156134e657600080fd5b816020840160208301376000602083830101528093505050509250929050565b60006020828403121561351857600080fd5b81356001600160401b0381111561352e57600080fd5b61353a848285016130b8565b949350505050565b602080825282518282018190526000919060409081850190868401855b8281101561360857815180516001600160a01b03168552868101511515878601528581015163ffffffff16868601526060808201516001600160d81b0316908601526080808201519086015260a0808201519086015260c0808201519086015260e080820151908601526101008082015190860152610120808201519086015261014080820151908601526101609081015190850152610180909301929085019060010161355f565b5091979650505050505050565b6000806040838503121561362857600080fd5b823561363381612fad565b915060208301356133aa81612fad565b6000806040838503121561365657600080fd5b82356133d381613011565b60008251613673818460208701612e59565b9190910192915050565b60006020828403121561368f57600080fd5b81516001600160401b038111156136a557600080fd5b8201601f810184136136b657600080fd5b80516136c461306e8261343e565b8181528560208385010111156136d957600080fd5b6136ea826020830160208601612e59565b95945050505050565b600181811c9082168061370757607f821691505b602082108103611c4e57634e487b7160e01b600052602260045260246000fd5b600081518084526020808501945080840160005b838110156137575781518752958201959082019060010161373b565b509495945050505050565b80516001600160a01b0316825260006101e06020830151613787602086018215159052565b506040830151604085015260608301516137a5606086018215159052565b5060808301516137c060808601826001600160a01b03169052565b5060a083015160a085015260c083015160c085015260e083015160e0850152610100808401516137f38287018215159052565b50506101208381015160ff90811691860191909152610140808501516001600160401b031690860152610160808501519086015261018080850151908601526101a080850151909116908501526101c08084015181860183905261385983870182613727565b9695505050505050565b825160ff16815260006101c06020850151613886602085018263ffffffff169052565b50604085015161389b604085018260ff169052565b5060608501516138b660608501826001600160a01b03169052565b5060808501516138d0608085018265ffffffffffff169052565b5060a08501516138eb60a08501826001600160801b03169052565b5060c085015161390660c08501826001600160801b03169052565b5060e085015161392160e08501826001600160801b03169052565b50610100858101516001600160801b038116858301525050610120858101516001600160401b038116858301525050610140858101516001600160401b038116858301525050610160858101516001600160801b038116858301525050610180808601518185015250806101a08401526136ea81840185613762565b634e487b7160e01b600052603260045260246000fd5b600081518084526020808501945080840160005b838110156137575781511515875295820195908201906001016139c7565b6080808252855190820181905260009060209060a0840190828901845b82811015613a1e57815184529284019290840190600101613a02565b50505083810382850152613a3281886139b3565b90508381036040850152613a4681876139b3565b905083810360608501528085518083528383019150838160051b84010184880160005b83811015613a9757601f19868403018552613a85838351612e7d565b94870194925090860190600101613a69565b50909b9a5050505050505050505050565b601f821115610f1a57600081815260208120601f850160051c81016020861015613acf5750805b601f850160051c820191505b81811015613aee57828155600101613adb565b505050505050565b81516001600160401b03811115613b0f57613b0f612ebc565b613b2381613b1d84546136f3565b84613aa8565b602080601f831160018114613b585760008415613b405750858301515b600019600386901b1c1916600185901b178555613aee565b600085815260208120601f198616915b82811015613b8757888601518255948401946001909101908401613b68565b5085821015613ba55787850151600019600388901b60f8161c191681555b5050505050600190811b01905550565b600060208284031215613bc757600080fd5b8151612c7b81612fad565b600060208284031215613be457600080fd5b8151612c7b81612f71565b8051612f8b81612fad565b600060208284031215613c0c57600080fd5b604051602081018181106001600160401b0382111715613c2e57613c2e612ebc565b6040529151825250919050565b8051612f8b81613011565b8051612f8b81612f90565b80516001600160d81b0381168114612f8b57600080fd5b60006020808385031215613c7b57600080fd5b82516001600160401b03811115613c9157600080fd5b8301601f81018513613ca257600080fd5b8051613cb061306e8261302a565b8181526101809182028301840191848201919088841115613cd057600080fd5b938501935b83851015613d945780858a031215613ced5760008081fd5b613cf5612f1e565b613cfe86613bef565b8152613d0b878701613c3b565b878201526040613d1c818801613c46565b908201526060613d2d878201613c51565b908201526080868101519082015260a0808701519082015260c0808701519082015260e08087015190820152610100808701519082015261012080870151908201526101408087015190820152610160808701519082015283529384019391850191613cd5565b50979650505050505050565b634e487b7160e01b600052601160045260246000fd5b600060018201613dc857613dc8613da0565b5060010190565b600060208284031215613de157600080fd5b5051919050565b81810381811115610acf57610acf613da0565b634e487b7160e01b600052603160045260246000fd5b7f416363657373436f6e74726f6c3a206163636f756e7420000000000000000000815260008351613e49816017850160208801612e59565b7001034b99036b4b9b9b4b733903937b6329607d1b6017918401918201528351613e7a816028840160208801612e59565b01602801949350505050565b60008060408385031215613e9957600080fd5b505080516020909101519092909150565b600181815b80851115613ee5578160001904821115613ecb57613ecb613da0565b80851615613ed857918102915b93841c9390800290613eaf565b509250929050565b600082613efc57506001610acf565b81613f0957506000610acf565b8160018114613f1f5760028114613f2957613f45565b6001915050610acf565b60ff841115613f3a57613f3a613da0565b50506001821b610acf565b5060208310610133831016604e8410600b8410161715613f68575081810a610acf565b613f728383613eaa565b8060001904821115613f8657613f86613da0565b029392505050565b6000612c7b8383613eed565b80820260008212600160ff1b84141615613fb657613fb6613da0565b8181058314821517610acf57610acf613da0565b600082613fe757634e487b7160e01b600052601260045260246000fd5b600160ff1b82146000198414161561400157614001613da0565b500590565b8082028115828204841417610acf57610acf613da0565b80820180821115610acf57610acf613da0565b60008161403f5761403f613da0565b50600019019056fe657865634f726465724b6579282875696e74382c75696e7433322c75696e74382c616464726573732c75696e7434382c75696e743132382c75696e743132382c75696e743132382c75696e743132382c75696e7436342c75696e7436342c75696e743132382c62797465733332292c28616464726573732c626f6f6c2c75696e743235362c626f6f6c2c616464726573732c75696e743235362c75696e743235362c75696e743235362c626f6f6c2c75696e74382c75696e7436342c627974657333322c75696e743235362c75696e74382c75696e743235365b5d29298d1089725c0dc266707fa6207730fb801dcd03108bfed7a21099bd303651d2b7a26469706673582212201584d0a1ceafe39f514d6bdd907ad562aba424310cbffa1987257b2b889af98a64736f6c63430008110033",
  "linkReferences": {},
  "deployedLinkReferences": {}
}