{
  "_format": "hh-sol-artifact-1",
  "contractName": "MarketReader",
  "sourceName": "contracts/market/MarketReader.sol",
  "abi": [
    {
      "inputs": [
        {
          "internalType": "address",
          "name": "_f",
          "type": "address"
        }
      ],
      "stateMutability": "nonpayable",
      "type": "constructor"
    },
    {
      "anonymous": false,
      "inputs": [
        {
          "indexed": false,
          "internalType": "uint8",
          "name": "version",
          "type": "uint8"
        }
      ],
      "name": "Initialized",
      "type": "event"
    },
    {
      "anonymous": false,
      "inputs": [
        {
          "indexed": true,
          "internalType": "address",
          "name": "previousOwner",
          "type": "address"
        },
        {
          "indexed": true,
          "internalType": "address",
          "name": "newOwner",
          "type": "address"
        }
      ],
      "name": "OwnershipTransferred",
      "type": "event"
    },
    {
      "anonymous": false,
      "inputs": [
        {
          "indexed": true,
          "internalType": "bytes32",
          "name": "role",
          "type": "bytes32"
        },
        {
          "indexed": true,
          "internalType": "bytes32",
          "name": "previousAdminRole",
          "type": "bytes32"
        },
        {
          "indexed": true,
          "internalType": "bytes32",
          "name": "newAdminRole",
          "type": "bytes32"
        }
      ],
      "name": "RoleAdminChanged",
      "type": "event"
    },
    {
      "anonymous": false,
      "inputs": [
        {
          "indexed": true,
          "internalType": "bytes32",
          "name": "role",
          "type": "bytes32"
        },
        {
          "indexed": true,
          "internalType": "address",
          "name": "account",
          "type": "address"
        },
        {
          "indexed": true,
          "internalType": "address",
          "name": "sender",
          "type": "address"
        }
      ],
      "name": "RoleGranted",
      "type": "event"
    },
    {
      "anonymous": false,
      "inputs": [
        {
          "indexed": true,
          "internalType": "bytes32",
          "name": "role",
          "type": "bytes32"
        },
        {
          "indexed": true,
          "internalType": "address",
          "name": "account",
          "type": "address"
        },
        {
          "indexed": true,
          "internalType": "address",
          "name": "sender",
          "type": "address"
        }
      ],
      "name": "RoleRevoked",
      "type": "event"
    },
    {
      "inputs": [],
      "name": "DEFAULT_ADMIN_ROLE",
      "outputs": [
        {
          "internalType": "bytes32",
          "name": "",
          "type": "bytes32"
        }
      ],
      "stateMutability": "view",
      "type": "function"
    },
    {
      "inputs": [
        {
          "internalType": "address",
          "name": "market",
          "type": "address"
        },
        {
          "internalType": "address",
          "name": "account",
          "type": "address"
        },
        {
          "internalType": "bool",
          "name": "isLong",
          "type": "bool"
        }
      ],
      "name": "availableLiquidity",
      "outputs": [
        {
          "internalType": "uint256",
          "name": "",
          "type": "uint256"
        }
      ],
      "stateMutability": "view",
      "type": "function"
    },
    {
      "inputs": [],
      "name": "fac",
      "outputs": [
        {
          "internalType": "contract IMarketFactory",
          "name": "",
          "type": "address"
        }
      ],
      "stateMutability": "view",
      "type": "function"
    },
    {
      "inputs": [
        {
          "internalType": "address",
          "name": "account",
          "type": "address"
        },
        {
          "internalType": "address",
          "name": "market",
          "type": "address"
        },
        {
          "internalType": "bool",
          "name": "isLong",
          "type": "bool"
        }
      ],
      "name": "getFundingFee",
      "outputs": [
        {
          "internalType": "int256",
          "name": "",
          "type": "int256"
        }
      ],
      "stateMutability": "view",
      "type": "function"
    },
    {
      "inputs": [
        {
          "internalType": "address",
          "name": "_market",
          "type": "address"
        },
        {
          "internalType": "bool",
          "name": "_isLong",
          "type": "bool"
        }
      ],
      "name": "getFundingRate",
      "outputs": [
        {
          "internalType": "int256",
          "name": "",
          "type": "int256"
        },
        {
          "internalType": "int256",
          "name": "",
          "type": "int256"
        }
      ],
      "stateMutability": "view",
      "type": "function"
    },
    {
      "inputs": [
        {
          "internalType": "address",
          "name": "_marketAddr",
          "type": "address"
        }
      ],
      "name": "getMarket",
      "outputs": [
        {
          "components": [
            {
              "internalType": "uint256",
              "name": "minSlippage",
              "type": "uint256"
            },
            {
              "internalType": "uint256",
              "name": "maxSlippage",
              "type": "uint256"
            },
            {
              "internalType": "uint256",
              "name": "slippageDigits",
              "type": "uint256"
            },
            {
              "internalType": "uint256",
              "name": "minLev",
              "type": "uint256"
            },
            {
              "internalType": "uint256",
              "name": "maxLev",
              "type": "uint256"
            },
            {
              "internalType": "uint256",
              "name": "minCollateral",
              "type": "uint256"
            },
            {
              "internalType": "uint256",
              "name": "maxTradeAmount",
              "type": "uint256"
            },
            {
              "internalType": "bool",
              "name": "allowOpen",
              "type": "bool"
            },
            {
              "internalType": "bool",
              "name": "allowClose",
              "type": "bool"
            }
          ],
          "internalType": "struct IMarketReader.ValidOuts",
          "name": "validOuts",
          "type": "tuple"
        },
        {
          "components": [
            {
              "internalType": "uint256",
              "name": "tokenDigits",
              "type": "uint256"
            },
            {
              "internalType": "uint256",
              "name": "closeFeeRate",
              "type": "uint256"
            },
            {
              "internalType": "uint256",
              "name": "openFeeRate",
              "type": "uint256"
            },
            {
              "internalType": "uint256",
              "name": "liquidationFeeUsd",
              "type": "uint256"
            },
            {
              "internalType": "uint256",
              "name": "spread",
              "type": "uint256"
            },
            {
              "internalType": "address",
              "name": "indexToken",
              "type": "address"
            },
            {
              "internalType": "address",
              "name": "collateralToken",
              "type": "address"
            },
            {
              "internalType": "address",
              "name": "orderBookLong",
              "type": "address"
            },
            {
              "internalType": "address",
              "name": "orderBookShort",
              "type": "address"
            },
            {
              "internalType": "address",
              "name": "positionBook",
              "type": "address"
            }
          ],
          "internalType": "struct IMarketReader.MarketOuts",
          "name": "mktOuts",
          "type": "tuple"
        },
        {
          "components": [
            {
              "internalType": "uint256",
              "name": "closeFeeRate",
              "type": "uint256"
            },
            {
              "internalType": "uint256",
              "name": "openFeeRate",
              "type": "uint256"
            },
            {
              "internalType": "uint256",
              "name": "execFee",
              "type": "uint256"
            },
            {
              "internalType": "uint256",
              "name": "liquidateFee",
              "type": "uint256"
            },
            {
              "internalType": "uint256",
              "name": "digits",
              "type": "uint256"
            }
          ],
          "internalType": "struct IMarketReader.FeeOuts",
          "name": "feeOuts",
          "type": "tuple"
        }
      ],
      "stateMutability": "view",
      "type": "function"
    },
    {
      "inputs": [],
      "name": "getMarkets",
      "outputs": [
        {
          "components": [
            {
              "internalType": "string",
              "name": "name",
              "type": "string"
            },
            {
              "internalType": "address",
              "name": "addr",
              "type": "address"
            },
            {
              "internalType": "uint256",
              "name": "minPay",
              "type": "uint256"
            },
            {
              "internalType": "bool",
              "name": "allowOpen",
              "type": "bool"
            },
            {
              "internalType": "bool",
              "name": "allowClose",
              "type": "bool"
            }
          ],
          "internalType": "struct IMarketFactory.Outs[]",
          "name": "_outs",
          "type": "tuple[]"
        }
      ],
      "stateMutability": "view",
      "type": "function"
    },
    {
      "inputs": [
        {
          "internalType": "address",
          "name": "account",
          "type": "address"
        },
        {
          "internalType": "address",
          "name": "market",
          "type": "address"
        }
      ],
      "name": "getPositions",
      "outputs": [
        {
          "components": [
            {
              "internalType": "address",
              "name": "market",
              "type": "address"
            },
            {
              "internalType": "bool",
              "name": "isLong",
              "type": "bool"
            },
            {
              "internalType": "uint32",
              "name": "lastTime",
              "type": "uint32"
            },
            {
              "internalType": "uint216",
              "name": "extra3",
              "type": "uint216"
            },
            {
              "internalType": "uint256",
              "name": "size",
              "type": "uint256"
            },
            {
              "internalType": "uint256",
              "name": "collateral",
              "type": "uint256"
            },
            {
              "internalType": "uint256",
              "name": "averagePrice",
              "type": "uint256"
            },
            {
              "internalType": "int256",
              "name": "entryFundingRate",
              "type": "int256"
            },
            {
              "internalType": "int256",
              "name": "realisedPnl",
              "type": "int256"
            },
            {
              "internalType": "uint256",
              "name": "extra0",
              "type": "uint256"
            },
            {
              "internalType": "uint256",
              "name": "extra1",
              "type": "uint256"
            },
            {
              "internalType": "uint256",
              "name": "extra2",
              "type": "uint256"
            }
          ],
          "internalType": "struct Position.Props[]",
          "name": "_positions",
          "type": "tuple[]"
        }
      ],
      "stateMutability": "view",
      "type": "function"
    },
    {
      "inputs": [
        {
          "internalType": "bytes32",
          "name": "role",
          "type": "bytes32"
        }
      ],
      "name": "getRoleAdmin",
      "outputs": [
        {
          "internalType": "bytes32",
          "name": "",
          "type": "bytes32"
        }
      ],
      "stateMutability": "view",
      "type": "function"
    },
    {
      "inputs": [
        {
          "internalType": "bytes32",
          "name": "role",
          "type": "bytes32"
        },
        {
          "internalType": "address",
          "name": "account",
          "type": "address"
        }
      ],
      "name": "grantAndRevoke",
      "outputs": [],
      "stateMutability": "nonpayable",
      "type": "function"
    },
    {
      "inputs": [
        {
          "internalType": "bytes32",
          "name": "role",
          "type": "bytes32"
        },
        {
          "internalType": "address",
          "name": "account",
          "type": "address"
        }
      ],
      "name": "grantRole",
      "outputs": [],
      "stateMutability": "nonpayable",
      "type": "function"
    },
    {
      "inputs": [
        {
          "internalType": "bytes32",
          "name": "role",
          "type": "bytes32"
        },
        {
          "internalType": "address",
          "name": "account",
          "type": "address"
        }
      ],
      "name": "hasRole",
      "outputs": [
        {
          "internalType": "bool",
          "name": "",
          "type": "bool"
        }
      ],
      "stateMutability": "view",
      "type": "function"
    },
    {
      "inputs": [
        {
          "internalType": "address",
          "name": "_marketRouter",
          "type": "address"
        },
        {
          "internalType": "address",
          "name": "_vaultRouter",
          "type": "address"
        }
      ],
      "name": "initialize",
      "outputs": [],
      "stateMutability": "nonpayable",
      "type": "function"
    },
    {
      "inputs": [
        {
          "internalType": "address",
          "name": "market",
          "type": "address"
        },
        {
          "internalType": "address",
          "name": "_account",
          "type": "address"
        },
        {
          "internalType": "bool",
          "name": "_isLong",
          "type": "bool"
        }
      ],
      "name": "isLiquidate",
      "outputs": [
        {
          "internalType": "uint256",
          "name": "_state",
          "type": "uint256"
        }
      ],
      "stateMutability": "view",
      "type": "function"
    },
    {
      "inputs": [],
      "name": "marketRouter",
      "outputs": [
        {
          "internalType": "contract IMarketRouter",
          "name": "",
          "type": "address"
        }
      ],
      "stateMutability": "view",
      "type": "function"
    },
    {
      "inputs": [],
      "name": "owner",
      "outputs": [
        {
          "internalType": "address",
          "name": "",
          "type": "address"
        }
      ],
      "stateMutability": "view",
      "type": "function"
    },
    {
      "inputs": [],
      "name": "renounceOwnership",
      "outputs": [],
      "stateMutability": "nonpayable",
      "type": "function"
    },
    {
      "inputs": [
        {
          "internalType": "bytes32",
          "name": "role",
          "type": "bytes32"
        },
        {
          "internalType": "address",
          "name": "account",
          "type": "address"
        }
      ],
      "name": "renounceRole",
      "outputs": [],
      "stateMutability": "nonpayable",
      "type": "function"
    },
    {
      "inputs": [
        {
          "internalType": "bytes32",
          "name": "role",
          "type": "bytes32"
        },
        {
          "internalType": "address",
          "name": "account",
          "type": "address"
        }
      ],
      "name": "revokeRole",
      "outputs": [],
      "stateMutability": "nonpayable",
      "type": "function"
    },
    {
      "inputs": [
        {
          "internalType": "bytes4",
          "name": "interfaceId",
          "type": "bytes4"
        }
      ],
      "name": "supportsInterface",
      "outputs": [
        {
          "internalType": "bool",
          "name": "",
          "type": "bool"
        }
      ],
      "stateMutability": "view",
      "type": "function"
    },
    {
      "inputs": [
        {
          "internalType": "address",
          "name": "to",
          "type": "address"
        }
      ],
      "name": "transferAdmin",
      "outputs": [],
      "stateMutability": "nonpayable",
      "type": "function"
    },
    {
      "inputs": [
        {
          "internalType": "address",
          "name": "newOwner",
          "type": "address"
        }
      ],
      "name": "transferOwnership",
      "outputs": [],
      "stateMutability": "nonpayable",
      "type": "function"
    },
    {
      "inputs": [],
      "name": "vaultRouter",
      "outputs": [
        {
          "internalType": "contract IVaultRouter",
          "name": "",
          "type": "address"
        }
      ],
      "stateMutability": "view",
      "type": "function"
    }
  ],
  "bytecode": "0x60806040523480156200001157600080fd5b5060405162003586380380620035868339810160408190526200003491620001dd565b8062000040336200007d565b6200005681620000cf60201b62001fdc1760201c565b50600480546001600160a01b0319166001600160a01b03929092169190911790556200020f565b600180546001600160a01b038381166001600160a01b0319831681179093556040519116919082907f8be0079c531659141344cd1fd0a4f28419497f9722a3daafe3b4186f6b6457e090600090a35050565b620000da336200007d565b620000e76000336200012d565b620000f46000826200012d565b6200010f60008051602062003566833981519152336200012d565b6200012a60008051602062003566833981519152826200012d565b50565b6200013982826200013d565b5050565b6000828152602081815260408083206001600160a01b038516845290915290205460ff1662000139576000828152602081815260408083206001600160a01b03851684529091529020805460ff19166001179055620001993390565b6001600160a01b0316816001600160a01b0316837f2f8788117e7eff1d82e926ec794901d17c78024a50270940304540a733656f0d60405160405180910390a45050565b600060208284031215620001f057600080fd5b81516001600160a01b03811681146200020857600080fd5b9392505050565b613347806200021f6000396000f3fe608060405234801561001057600080fd5b506004361061011d5760003560e01c806301ffc9a71461012257806320981df41461014a5780632396100114610172578063248a9ca3146101935780632f2ff15d146101a657806336568abe146101bb578063485cc955146101ce578063715018a6146101e1578063735a2885146101e9578063739118a4146101fc57806375829def1461021c578063889be2851461022f5780638da5cb5b1461024257806391d148541461025757806399d5c1ec1461026a578063a217fddf1461027d578063c3b3147214610285578063d12dbde414610298578063d37c441c146102ab578063d4dfadbf146102be578063d547741f146102e0578063ec2c9016146102f3578063f2fde38b14610308575b600080fd5b610135610130366004612500565b61031b565b60405190151581526020015b60405180910390f35b61015d61015836600461254d565b610352565b60408051928352602083019190915201610141565b610185610180366004612586565b610592565b604051908152602001610141565b6101856101a13660046125d1565b6108a2565b6101b96101b43660046125ea565b6108b7565b005b6101b96101c93660046125ea565b6108d8565b6101b96101dc36600461260f565b61095b565b6101b9610ada565b6101856101f7366004612586565b610aee565b61020f61020a36600461260f565b610f61565b60405161014191906126f1565b6101b961022a366004612740565b6112b2565b61018561023d366004612586565b6112dc565b61024a611555565b604051610141919061275d565b6101356102653660046125ea565b611564565b6101b96102783660046125ea565b61158d565b610185600081565b60045461024a906001600160a01b031681565b60025461024a906001600160a01b031681565b60035461024a906001600160a01b031681565b6102d16102cc366004612740565b6115ba565b60405161014193929190612804565b6101b96102ee3660046125ea565b611ec5565b6102fb611ee1565b6040516101419190612901565b6101b9610316366004612740565b611f63565b60006001600160e01b03198216637965db0b60e01b148061034c57506301ffc9a760e01b6001600160e01b03198316145b92915050565b6000806000846001600160a01b031663f29ebf616040518163ffffffff1660e01b8152600401602060405180830381865afa158015610395573d6000803e3d6000fd5b505050506040513d601f19601f820116820180604052508101906103b991906129a3565b90506000856001600160a01b031663ac0b05a66040518163ffffffff1660e01b8152600401602060405180830381865afa1580156103fb573d6000803e3d6000fd5b505050506040513d601f19601f8201168201806040525081019061041f91906129a3565b9050600080826001600160a01b0316638749694a6040518163ffffffff1660e01b81526004016040805180830381865afa158015610461573d6000803e3d6000fd5b505050506040513d601f19601f8201168201806040525081019061048591906129c0565b604051630a09716d60e31b81526001600160a01b038b8116600483015260248201849052604482018390528a1515606483015292945090925060009186169063504b8b6890608401602060405180830381865afa1580156104ea573d6000803e3d6000fd5b505050506040513d601f19601f8201168201806040525081019061050e91906129e4565b90506000856001600160a01b03166334f32e258b8b6040518363ffffffff1660e01b81526004016105409291906129fd565b602060405180830381865afa15801561055d573d6000803e3d6000fd5b505050506040513d601f19601f8201168201806040525081019061058191906129e4565b919a91995090975050505050505050565b6000808490506000816001600160a01b031663b894300d6040518163ffffffff1660e01b8152600401602060405180830381865afa1580156105d8573d6000803e3d6000fd5b505050506040513d601f19601f820116820180604052508101906105fc91906129a3565b9050806001600160a01b0316631f21756a868887866001600160a01b031663ac0b05a66040518163ffffffff1660e01b8152600401602060405180830381865afa15801561064e573d6000803e3d6000fd5b505050506040513d601f19601f8201168201806040525081019061067291906129a3565b876001600160a01b031663f29ebf616040518163ffffffff1660e01b8152600401602060405180830381865afa1580156106b0573d6000803e3d6000fd5b505050506040513d601f19601f820116820180604052508101906106d491906129a3565b886001600160a01b031663741bef1a6040518163ffffffff1660e01b8152600401602060405180830381865afa158015610712573d6000803e3d6000fd5b505050506040513d601f19601f8201168201806040525081019061073691906129a3565b6001600160a01b03166376d697608a6001600160a01b031663e7d015f26040518163ffffffff1660e01b8152600401602060405180830381865afa158015610782573d6000803e3d6000fd5b505050506040513d601f19601f820116820180604052508101906107a691906129a3565b8d156040518363ffffffff1660e01b81526004016107c59291906129fd565b602060405180830381865afa1580156107e2573d6000803e3d6000fd5b505050506040513d601f19601f8201168201806040525081019061080691906129e4565b60405160e088901b6001600160e01b03191681526001600160a01b039687166004820152948616602486015292151560448501529084166064840152909216608482015260a481019190915260c401602060405180830381865afa158015610872573d6000803e3d6000fd5b505050506040513d601f19601f8201168201806040525081019061089691906129e4565b925050505b9392505050565b60009081526020819052604090206001015490565b6108c0826108a2565b6108c98161202b565b6108d38383612035565b505050565b6001600160a01b038116331461094d5760405162461bcd60e51b815260206004820152602f60248201527f416363657373436f6e74726f6c3a2063616e206f6e6c792072656e6f756e636560448201526e103937b632b9903337b91039b2b63360891b60648201526084015b60405180910390fd5b61095782826120b9565b5050565b61096361211e565b600154600160a81b900460ff1615808015610989575060018054600160a01b900460ff16105b806109a95750303b1580156109a9575060018054600160a01b900460ff16145b610a0c5760405162461bcd60e51b815260206004820152602e60248201527f496e697469616c697a61626c653a20636f6e747261637420697320616c72656160448201526d191e481a5b9a5d1a585b1a5e995960921b6064820152608401610944565b6001805460ff60a01b1916600160a01b1790558015610a39576001805460ff60a81b1916600160a81b1790555b6001600160a01b038316610a4c57600080fd5b6001600160a01b038216610a5f57600080fd5b600280546001600160a01b038086166001600160a01b031992831617909255600380549285169290911691909117905580156108d3576001805460ff60a81b191681556040519081527f7f26b83ff96e1f2b6a682f133852f6798a09c465da95921460cefb38474024989060200160405180910390a1505050565b610ae261211e565b610aec600061217d565b565b600080846001600160a01b031663ac0b05a66040518163ffffffff1660e01b8152600401602060405180830381865afa158015610b2f573d6000803e3d6000fd5b505050506040513d601f19601f82011682018060405250810190610b5391906129a3565b90506000856001600160a01b031663c54dc3d66040518163ffffffff1660e01b8152600401602060405180830381865afa158015610b95573d6000803e3d6000fd5b505050506040513d601f19601f82011682018060405250810190610bb991906129a3565b9050610c1c60405180610140016040528060006001600160a01b0316815260200160008152602001600015158152602001600081526020016000815260200160008152602001600081526020016000815260200160008152602001600081525090565b6001600160a01b0380881682528515156040808401919091526000602084015280516343a4b4a560e11b8152815192861692638749694a926004808401939192918290030181865afa158015610c76573d6000803e3d6000fd5b505050506040513d601f19601f82011682018060405250810190610c9a91906129c0565b61010083015260e082015260025460405162b29b4b60e61b81526001600160a01b0390911690632ca6d2c090610cd490899060040161275d565b6040805180830381865afa158015610cf0573d6000803e3d6000fd5b505050506040513d601f19601f82011682018060405250810190610d1491906129c0565b60c083015260a082015260025460408051630799f55f60e01b815281516001600160a01b0390931692630799f55f926004808401939192918290030181865afa158015610d65573d6000803e3d6000fd5b505050506040513d601f19601f82011682018060405250810190610d8991906129c0565b8260600183608001828152508281525050506000876001600160a01b031663b2016bd46040518163ffffffff1660e01b8152600401602060405180830381865afa158015610ddb573d6000803e3d6000fd5b505050506040513d601f19601f82011682018060405250810190610dff91906129a3565b9050610ee2600360009054906101000a90046001600160a01b03166001600160a01b0316636dc7b0a16040518163ffffffff1660e01b8152600401602060405180830381865afa158015610e57573d6000803e3d6000fd5b505050506040513d601f19601f82011682018060405250810190610e7b91906129e4565b826001600160a01b031663313ce5676040518163ffffffff1660e01b8152600401602060405180830381865afa158015610eb9573d6000803e3d6000fd5b505050506040513d601f19601f82011682018060405250810190610edd9190612a28565b6121cf565b610120830152604051638050e32f60e01b81526001600160a01b03841690638050e32f90610f14908590600401612a4b565b602060405180830381865afa158015610f31573d6000803e3d6000fd5b505050506040513d601f19601f82011682018060405250810190610f5591906129e4565b98975050505050505050565b60606001600160a01b038216611241576000600460009054906101000a90046001600160a01b03166001600160a01b031663ec2c90166040518163ffffffff1660e01b8152600401600060405180830381865afa158015610fc6573d6000803e3d6000fd5b505050506040513d6000823e601f3d908101601f19168201604052610fee9190810190612b8c565b905060008080805b84518110156110b75784818151811061101157611011612d05565b60200260200101516020015193506000846001600160a01b0316633eeb530e8a6040518263ffffffff1660e01b815260040161104d919061275d565b600060405180830381865afa15801561106a573d6000803e3d6000fd5b505050506040513d6000823e601f3d908101601f191682016040526110929190810190612dff565b90508051836110a19190612eaf565b92505080806110af90612ec2565b915050610ff6565b50806000036110c9575050505061034c565b806001600160401b038111156110e1576110e1612acd565b60405190808252806020026020018201604052801561111a57816020015b611107612485565b8152602001906001900390816110ff5790505b50945060005b84518110156112375784818151811061113b5761113b612d05565b60200260200101516020015193506000846001600160a01b0316633eeb530e8a6040518263ffffffff1660e01b8152600401611177919061275d565b600060405180830381865afa158015611194573d6000803e3d6000fd5b505050506040513d6000823e601f3d908101601f191682016040526111bc9190810190612dff565b905060005b8151811015611222578181815181106111dc576111dc612d05565b60200260200101518886815181106111f6576111f6612d05565b6020026020010181905250848061120c90612ec2565b955050808061121a90612ec2565b9150506111c1565b5050808061122f90612ec2565b915050611120565b505050505061034c565b604051631f75a98760e11b81526001600160a01b03831690633eeb530e9061126d90869060040161275d565b600060405180830381865afa15801561128a573d6000803e3d6000fd5b505050506040513d6000823e601f3d908101601f1916820160405261089b9190810190612dff565b60006112bd8161202b565b6112c86000836121fc565b6112d18261217d565b6109576000336120b9565b600080836001600160a01b031663ac0b05a66040518163ffffffff1660e01b8152600401602060405180830381865afa15801561131d573d6000803e3d6000fd5b505050506040513d601f19601f8201168201806040525081019061134191906129a3565b905061134b612485565b60405163bc95baad60e01b81526001600160a01b03878116600483015260006024830152851515604483015283169063bc95baad9060640161018060405180830381865afa1580156113a1573d6000803e3d6000fd5b505050506040513d601f19601f820116820180604052508101906113c59190612edb565b90506000856001600160a01b031663f29ebf616040518163ffffffff1660e01b8152600401602060405180830381865afa158015611407573d6000803e3d6000fd5b505050506040513d601f19601f8201168201806040525081019061142b91906129a3565b604080516101e081018252600080825281830181905260608083018290526080830182905260a080840183905260c0840183905260e08401839052610100840183905261012084018390526101408401839052610160840183905261018084018381526101a085018490526101c08501929092528a1515602085015287015190526001600160a01b038a811683529251634151026360e01b8152939450909290918416906341510263906114e59085908890600401612f33565b600060405180830381865afa158015611502573d6000803e3d6000fd5b505050506040513d6000823e601f3d908101601f1916820160405261152a9190810190613033565b90508060028151811061153f5761153f612d05565b6020026020010151955050505050509392505050565b6001546001600160a01b031690565b6000918252602082815260408084206001600160a01b0393909316845291905290205460ff1690565b6000805160206132f28339815191526115a58161202b565b6115af83836108b7565b6108d3600033611ec5565b61160d604051806101200160405280600081526020016000815260200160008152602001600081526020016000815260200160008152602001600081526020016000151581526020016000151581525090565b6040805161014081018252600080825260208201819052918101829052606081018290526080810182905260a0810182905260c0810182905260e0810182905261010081018290526101208101919091526116906040518060a0016040528060008152602001600081526020016000815260200160008152602001600081525090565b60008490506000816001600160a01b031663f29ebf616040518163ffffffff1660e01b8152600401602060405180830381865afa1580156116d5573d6000803e3d6000fd5b505050506040513d601f19601f820116820180604052508101906116f991906129a3565b90506000826001600160a01b031663b894300d6040518163ffffffff1660e01b8152600401602060405180830381865afa15801561173b573d6000803e3d6000fd5b505050506040513d601f19601f8201168201806040525081019061175f91906129a3565b90506000816001600160a01b031663177927296040518163ffffffff1660e01b8152600401602060405180830381865afa1580156117a1573d6000803e3d6000fd5b505050506040513d601f19601f820116820180604052508101906117c591906130c3565b90506040518061012001604052806117df8351610fff1690565b81528251602090910190600c1c610fff168152602001611800612710612206565b8152825160181c610fff9081166020830152835160241c1660408201526060016118298361222b565b815260200161183783612249565b815260200161184c8351600f606c1b16151590565b151581526020016118638351600f60681b16151590565b15158152509650604051806101400160405280856001600160a01b031663e84254676040518163ffffffff1660e01b8152600401602060405180830381865afa1580156118b4573d6000803e3d6000fd5b505050506040513d601f19601f820116820180604052508101906118d89190612a28565b60ff168152602001846001600160a01b031663d87780688b60016040518363ffffffff1660e01b815260040161190f929190613104565b602060405180830381865afa15801561192c573d6000803e3d6000fd5b505050506040513d601f19601f8201168201806040525081019061195091906129e4565b8152602001846001600160a01b031663d87780688b60006040518363ffffffff1660e01b8152600401611984929190613104565b602060405180830381865afa1580156119a1573d6000803e3d6000fd5b505050506040513d601f19601f820116820180604052508101906119c591906129e4565b8152602001846001600160a01b031663d87780688b60046040518363ffffffff1660e01b81526004016119f9929190613104565b602060405180830381865afa158015611a16573d6000803e3d6000fd5b505050506040513d601f19601f82011682018060405250810190611a3a91906129e4565b815260200160008152602001856001600160a01b031663e7d015f26040518163ffffffff1660e01b8152600401602060405180830381865afa158015611a84573d6000803e3d6000fd5b505050506040513d601f19601f82011682018060405250810190611aa891906129a3565b6001600160a01b03168152602001856001600160a01b031663b2016bd46040518163ffffffff1660e01b8152600401602060405180830381865afa158015611af4573d6000803e3d6000fd5b505050506040513d601f19601f82011682018060405250810190611b1891906129a3565b6001600160a01b03168152602001856001600160a01b0316637b2fd1e56040518163ffffffff1660e01b8152600401602060405180830381865afa158015611b64573d6000803e3d6000fd5b505050506040513d601f19601f82011682018060405250810190611b8891906129a3565b6001600160a01b03168152602001856001600160a01b03166305ba9ae96040518163ffffffff1660e01b8152600401602060405180830381865afa158015611bd4573d6000803e3d6000fd5b505050506040513d601f19601f82011682018060405250810190611bf891906129a3565b6001600160a01b03168152602001856001600160a01b031663ac0b05a66040518163ffffffff1660e01b8152600401602060405180830381865afa158015611c44573d6000803e3d6000fd5b505050506040513d601f19601f82011682018060405250810190611c6891906129a3565b6001600160a01b039081169091526040805160a0810191829052631b0ef00d60e31b9091529197508190851663d8778068611ca88c600160a48601613104565b602060405180830381865afa158015611cc5573d6000803e3d6000fd5b505050506040513d601f19601f82011682018060405250810190611ce991906129e4565b8152602001846001600160a01b031663d87780688b60006040518363ffffffff1660e01b8152600401611d1d929190613104565b602060405180830381865afa158015611d3a573d6000803e3d6000fd5b505050506040513d601f19601f82011682018060405250810190611d5e91906129e4565b8152602001846001600160a01b031663d87780688b60036040518363ffffffff1660e01b8152600401611d92929190613104565b602060405180830381865afa158015611daf573d6000803e3d6000fd5b505050506040513d601f19601f82011682018060405250810190611dd391906129e4565b8152602001846001600160a01b031663d87780688b60046040518363ffffffff1660e01b8152600401611e07929190613104565b602060405180830381865afa158015611e24573d6000803e3d6000fd5b505050506040513d601f19601f82011682018060405250810190611e4891906129e4565b8152602001611eb7856001600160a01b031663f4ca4d1d6040518163ffffffff1660e01b8152600401602060405180830381865afa158015611e8e573d6000803e3d6000fd5b505050506040513d601f19601f82011682018060405250810190611eb291906129e4565b612206565b905296989597505050505050565b611ece826108a2565b611ed78161202b565b6108d383836120b9565b6060600460009054906101000a90046001600160a01b03166001600160a01b031663ec2c90166040518163ffffffff1660e01b8152600401600060405180830381865afa158015611f36573d6000803e3d6000fd5b505050506040513d6000823e601f3d908101601f19168201604052611f5e9190810190612b8c565b905090565b611f6b61211e565b6001600160a01b038116611fd05760405162461bcd60e51b815260206004820152602660248201527f4f776e61626c653a206e6577206f776e657220697320746865207a65726f206160448201526564647265737360d01b6064820152608401610944565b611fd98161217d565b50565b611fe53361217d565b611ff06000336121fc565b611ffb6000826121fc565b6120136000805160206132f2833981519152336121fc565b611fd96000805160206132f2833981519152826121fc565b611fd98133612269565b61203f8282611564565b610957576000828152602081815260408083206001600160a01b03851684529091529020805460ff191660011790556120753390565b6001600160a01b0316816001600160a01b0316837f2f8788117e7eff1d82e926ec794901d17c78024a50270940304540a733656f0d60405160405180910390a45050565b6120c38282611564565b15610957576000828152602081815260408083206001600160a01b0385168085529252808320805460ff1916905551339285917ff6391f5c32d9c69d2a47ea670b442974b53935d1edc7fd64eb21e047a839171b9190a45050565b33612127611555565b6001600160a01b031614610aec5760405162461bcd60e51b815260206004820181905260248201527f4f776e61626c653a2063616c6c6572206973206e6f7420746865206f776e65726044820152606401610944565b600180546001600160a01b038381166001600160a01b0319831681179093556040519116919082907f8be0079c531659141344cd1fd0a4f28419497f9722a3daafe3b4186f6b6457e090600090a35050565b60006121dc82600a613204565b6121e86012600a613213565b6121f2908561321f565b61089b9190613236565b6109578282612035565b600060015b60019091019061221c600a8261321f565b905082810361220b5750919050565b6000612236826122c2565b825161034c9190603c1c610fff1661321f565b6000612254826122c2565b825161034c919060481c63ffffffff1661321f565b6122738282611564565b61095757612280816122d8565b61228b8360206122ea565b60405160200161229c929190613258565b60408051601f198184030181529082905262461bcd60e51b8252610944916004016132c7565b805160009061034c9060701c60ff16600a613213565b606061034c6001600160a01b03831660145b606060006122f983600261321f565b612304906002612eaf565b6001600160401b0381111561231b5761231b612acd565b6040519080825280601f01601f191660200182016040528015612345576020820181803683370190505b509050600360fc1b8160008151811061236057612360612d05565b60200101906001600160f81b031916908160001a905350600f60fb1b8160018151811061238f5761238f612d05565b60200101906001600160f81b031916908160001a90535060006123b384600261321f565b6123be906001612eaf565b90505b6001811115612436576f181899199a1a9b1b9c1cb0b131b232b360811b85600f16601081106123f2576123f2612d05565b1a60f81b82828151811061240857612408612d05565b60200101906001600160f81b031916908160001a90535060049490941c9361242f816132da565b90506123c1565b50831561089b5760405162461bcd60e51b815260206004820181905260248201527f537472696e67733a20686578206c656e67746820696e73756666696369656e746044820152606401610944565b60405180610180016040528060006001600160a01b03168152602001600015158152602001600063ffffffff16815260200160006001600160d81b0316815260200160008152602001600081526020016000815260200160008152602001600081526020016000815260200160008152602001600081525090565b60006020828403121561251257600080fd5b81356001600160e01b03198116811461089b57600080fd5b6001600160a01b0381168114611fd957600080fd5b8015158114611fd957600080fd5b6000806040838503121561256057600080fd5b823561256b8161252a565b9150602083013561257b8161253f565b809150509250929050565b60008060006060848603121561259b57600080fd5b83356125a68161252a565b925060208401356125b68161252a565b915060408401356125c68161253f565b809150509250925092565b6000602082840312156125e357600080fd5b5035919050565b600080604083850312156125fd57600080fd5b82359150602083013561257b8161252a565b6000806040838503121561262257600080fd5b823561262d8161252a565b9150602083013561257b8161252a565b6001600160a01b03169052565b61265582825161263d565b6020810151612668602084018215159052565b506040810151612680604084018263ffffffff169052565b50606081015161269b60608401826001600160d81b03169052565b506080818101519083015260a0808201519083015260c0808201519083015260e0808201519083015261010080820151908301526101208082015190830152610140808201519083015261016090810151910152565b6020808252825182820181905260009190848201906040850190845b818110156127345761272083855161264a565b92840192610180929092019160010161270d565b50909695505050505050565b60006020828403121561275257600080fd5b813561089b8161252a565b6001600160a01b0391909116815260200190565b805182526020810151602083015260408101516040830152606081015160608301526080810151608083015260a08101516127af60a084018261263d565b5060c08101516127c260c084018261263d565b5060e08101516127d560e084018261263d565b50610100808201516127e98285018261263d565b5050610120808201516127fe8285018261263d565b50505050565b600061030082019050845182526020850151602083015260408501516040830152606085015160608301526080850151608083015260a085015160a083015260c085015160c083015260e0850151151560e08301526101008086015115158184015250612875610120830185612771565b8251610260830152602083015161028083015260408301516102a083015260608301516102c083015260808301516102e0830152949350505050565b60005b838110156128cc5781810151838201526020016128b4565b50506000910152565b600081518084526128ed8160208601602086016128b1565b601f01601f19169290920160200192915050565b60006020808301818452808551808352604092508286019150828160051b87010184880160005b8381101561299557603f19898403018552815160a0815181865261294e828701826128d5565b838b01516001600160a01b0316878c0152898401518a8801526060808501511515908801526080938401511515939096019290925250509386019390860190600101612928565b509098975050505050505050565b6000602082840312156129b557600080fd5b815161089b8161252a565b600080604083850312156129d357600080fd5b505080516020909101519092909150565b6000602082840312156129f657600080fd5b5051919050565b6001600160a01b039290921682521515602082015260400190565b8051612a238161252a565b919050565b600060208284031215612a3a57600080fd5b815160ff8116811461089b57600080fd5b600061014082019050612a5f82845161263d565b602083015160208301526040830151612a7c604084018215159052565b50606083015160608301526080830151608083015260a083015160a083015260c083015160c083015260e083015160e083015261010080840151818401525061012080840151818401525092915050565b634e487b7160e01b600052604160045260246000fd5b60405160a081016001600160401b0381118282101715612b0557612b05612acd565b60405290565b60405161018081016001600160401b0381118282101715612b0557612b05612acd565b604051601f8201601f191681016001600160401b0381118282101715612b5657612b56612acd565b604052919050565b60006001600160401b03821115612b7757612b77612acd565b5060051b60200190565b8051612a238161253f565b60006020808385031215612b9f57600080fd5b82516001600160401b0380821115612bb657600080fd5b818501915085601f830112612bca57600080fd5b8151612bdd612bd882612b5e565b612b2e565b81815260059190911b83018401908481019088831115612bfc57600080fd5b8585015b83811015612cf857805185811115612c1757600080fd5b8601601f1960a0828d0382011215612c2f5760008081fd5b612c37612ae3565b8983015188811115612c495760008081fd5b8301603f81018e13612c5b5760008081fd5b8a81015160408a821115612c7157612c71612acd565b612c818d86601f85011601612b2e565b94508185528f81838501011115612c985760008081fd5b612ca7828e87018386016128b1565b848452612cb5818701612a18565b8d8501526060945084860151818501525050506080612cd5818501612b81565b83830152612ce560a08501612b81565b9082015285525050918601918601612c00565b5098975050505050505050565b634e487b7160e01b600052603260045260246000fd5b805163ffffffff81168114612a2357600080fd5b80516001600160d81b0381168114612a2357600080fd5b60006101808284031215612d5957600080fd5b612d61612b0b565b9050612d6c82612a18565b8152612d7a60208301612b81565b6020820152612d8b60408301612d1b565b6040820152612d9c60608301612d2f565b60608201526080820151608082015260a082015160a082015260c082015160c082015260e082015160e082015261010080830151818301525061012080830151818301525061014080830151818301525061016080830151818301525092915050565b60006020808385031215612e1257600080fd5b82516001600160401b03811115612e2857600080fd5b8301601f81018513612e3957600080fd5b8051612e47612bd882612b5e565b8181526101809182028301840191848201919088841115612e6757600080fd5b938501935b83851015612e8d57612e7e8986612d46565b83529384019391850191612e6c565b50979650505050505050565b634e487b7160e01b600052601160045260246000fd5b8082018082111561034c5761034c612e99565b600060018201612ed457612ed4612e99565b5060010190565b60006101808284031215612eee57600080fd5b61089b8383612d46565b600081518084526020808501945080840160005b83811015612f2857815187529582019590820190600101612f0c565b509495945050505050565b60006101a0808352612f48818401865161263d565b60208501516101c0612f5d8186018315159052565b60408701516101e0868101919091526060880151151561020087015260808801519250612f8e61022087018461263d565b60a088015161024087015260c088015161026087015260e088015161028087015261010088015115156102a087015261012088015160ff9081166102c08801526101408901516001600160401b03166102e08801526101608901516103008801526101808901516103208801529388015190931661034086015286015161036085019290925250613023610380840182612ef8565b91505061089b602083018461264a565b6000602080838503121561304657600080fd5b82516001600160401b0381111561305c57600080fd5b8301601f8101851361306d57600080fd5b805161307b612bd882612b5e565b81815260059190911b8201830190838101908783111561309a57600080fd5b928401925b828410156130b85783518252928401929084019061309f565b979650505050505050565b6000602082840312156130d557600080fd5b604051602081016001600160401b03811182821017156130f7576130f7612acd565b6040529151825250919050565b6001600160a01b0392909216825260ff16602082015260400190565b600181815b8085111561315b57816000190482111561314157613141612e99565b8085161561314e57918102915b93841c9390800290613125565b509250929050565b6000826131725750600161034c565b8161317f5750600061034c565b8160018114613195576002811461319f576131bb565b600191505061034c565b60ff8411156131b0576131b0612e99565b50506001821b61034c565b5060208310610133831016604e8410600b84101617156131de575081810a61034c565b6131e88383613120565b80600019048211156131fc576131fc612e99565b029392505050565b600061089b60ff841683613163565b600061089b8383613163565b808202811582820484141761034c5761034c612e99565b60008261325357634e487b7160e01b600052601260045260246000fd5b500490565b76020b1b1b2b9b9a1b7b73a3937b61d1030b1b1b7bab73a1604d1b81526000835161328a8160178501602088016128b1565b7001034b99036b4b9b9b4b733903937b6329607d1b60179184019182015283516132bb8160288401602088016128b1565b01602801949350505050565b60208152600061089b60208301846128d5565b6000816132e9576132e9612e99565b50600019019056fe241ecf16d79d0f8dbfb92cbc07fe17840425976cf0667f022fe9877caa831b08a264697066735822122049ee3e7cf8e94ec4871cc7c12cc35aa734fb2ba7e2ef6d91526bd058dc5328e464736f6c63430008110033241ecf16d79d0f8dbfb92cbc07fe17840425976cf0667f022fe9877caa831b08",
  "linkReferences": {},
  "deployedLinkReferences": {}
}