{
  "_format": "hh-sol-artifact-1",
  "contractName": "MarketReader",
  "sourceName": "contracts/market/MarketReader.sol",
  "abi": [
    {
      "inputs": [
        {
          "internalType": "address",
          "name": "_f",
          "type": "address"
        }
      ],
      "stateMutability": "nonpayable",
      "type": "constructor"
    },
    {
      "anonymous": false,
      "inputs": [
        {
          "indexed": false,
          "internalType": "uint8",
          "name": "version",
          "type": "uint8"
        }
      ],
      "name": "Initialized",
      "type": "event"
    },
    {
      "anonymous": false,
      "inputs": [
        {
          "indexed": true,
          "internalType": "address",
          "name": "previousOwner",
          "type": "address"
        },
        {
          "indexed": true,
          "internalType": "address",
          "name": "newOwner",
          "type": "address"
        }
      ],
      "name": "OwnershipTransferred",
      "type": "event"
    },
    {
      "anonymous": false,
      "inputs": [
        {
          "indexed": true,
          "internalType": "bytes32",
          "name": "role",
          "type": "bytes32"
        },
        {
          "indexed": true,
          "internalType": "bytes32",
          "name": "previousAdminRole",
          "type": "bytes32"
        },
        {
          "indexed": true,
          "internalType": "bytes32",
          "name": "newAdminRole",
          "type": "bytes32"
        }
      ],
      "name": "RoleAdminChanged",
      "type": "event"
    },
    {
      "anonymous": false,
      "inputs": [
        {
          "indexed": true,
          "internalType": "bytes32",
          "name": "role",
          "type": "bytes32"
        },
        {
          "indexed": true,
          "internalType": "address",
          "name": "account",
          "type": "address"
        },
        {
          "indexed": true,
          "internalType": "address",
          "name": "sender",
          "type": "address"
        }
      ],
      "name": "RoleGranted",
      "type": "event"
    },
    {
      "anonymous": false,
      "inputs": [
        {
          "indexed": true,
          "internalType": "bytes32",
          "name": "role",
          "type": "bytes32"
        },
        {
          "indexed": true,
          "internalType": "address",
          "name": "account",
          "type": "address"
        },
        {
          "indexed": true,
          "internalType": "address",
          "name": "sender",
          "type": "address"
        }
      ],
      "name": "RoleRevoked",
      "type": "event"
    },
    {
      "inputs": [],
      "name": "DEFAULT_ADMIN_ROLE",
      "outputs": [
        {
          "internalType": "bytes32",
          "name": "",
          "type": "bytes32"
        }
      ],
      "stateMutability": "view",
      "type": "function"
    },
    {
      "inputs": [
        {
          "internalType": "address",
          "name": "market",
          "type": "address"
        },
        {
          "internalType": "address",
          "name": "account",
          "type": "address"
        },
        {
          "internalType": "bool",
          "name": "isLong",
          "type": "bool"
        }
      ],
      "name": "availableLiquidity",
      "outputs": [
        {
          "internalType": "uint256",
          "name": "",
          "type": "uint256"
        }
      ],
      "stateMutability": "view",
      "type": "function"
    },
    {
      "inputs": [],
      "name": "fac",
      "outputs": [
        {
          "internalType": "contract IMarketFactory",
          "name": "",
          "type": "address"
        }
      ],
      "stateMutability": "view",
      "type": "function"
    },
    {
      "inputs": [
        {
          "internalType": "address",
          "name": "account",
          "type": "address"
        },
        {
          "internalType": "address",
          "name": "market",
          "type": "address"
        },
        {
          "internalType": "bool",
          "name": "isLong",
          "type": "bool"
        }
      ],
      "name": "getFundingFee",
      "outputs": [
        {
          "internalType": "int256",
          "name": "",
          "type": "int256"
        }
      ],
      "stateMutability": "view",
      "type": "function"
    },
    {
      "inputs": [
        {
          "internalType": "address",
          "name": "_market",
          "type": "address"
        },
        {
          "internalType": "bool",
          "name": "_isLong",
          "type": "bool"
        }
      ],
      "name": "getFundingRate",
      "outputs": [
        {
          "internalType": "int256",
          "name": "",
          "type": "int256"
        },
        {
          "internalType": "int256",
          "name": "",
          "type": "int256"
        }
      ],
      "stateMutability": "view",
      "type": "function"
    },
    {
      "inputs": [
        {
          "internalType": "address",
          "name": "_marketAddr",
          "type": "address"
        }
      ],
      "name": "getMarket",
      "outputs": [
        {
          "components": [
            {
              "internalType": "uint256",
              "name": "minSlippage",
              "type": "uint256"
            },
            {
              "internalType": "uint256",
              "name": "maxSlippage",
              "type": "uint256"
            },
            {
              "internalType": "uint256",
              "name": "slippageDigits",
              "type": "uint256"
            },
            {
              "internalType": "uint256",
              "name": "minLev",
              "type": "uint256"
            },
            {
              "internalType": "uint256",
              "name": "maxLev",
              "type": "uint256"
            },
            {
              "internalType": "uint256",
              "name": "minCollateral",
              "type": "uint256"
            },
            {
              "internalType": "uint256",
              "name": "maxTradeAmount",
              "type": "uint256"
            },
            {
              "internalType": "bool",
              "name": "allowOpen",
              "type": "bool"
            },
            {
              "internalType": "bool",
              "name": "allowClose",
              "type": "bool"
            }
          ],
          "internalType": "struct IMarketReader.ValidOuts",
          "name": "validOuts",
          "type": "tuple"
        },
        {
          "components": [
            {
              "internalType": "uint256",
              "name": "tokenDigits",
              "type": "uint256"
            },
            {
              "internalType": "uint256",
              "name": "closeFeeRate",
              "type": "uint256"
            },
            {
              "internalType": "uint256",
              "name": "openFeeRate",
              "type": "uint256"
            },
            {
              "internalType": "uint256",
              "name": "liquidationFeeUsd",
              "type": "uint256"
            },
            {
              "internalType": "uint256",
              "name": "spread",
              "type": "uint256"
            },
            {
              "internalType": "address",
              "name": "indexToken",
              "type": "address"
            },
            {
              "internalType": "address",
              "name": "collateralToken",
              "type": "address"
            },
            {
              "internalType": "address",
              "name": "orderBookLong",
              "type": "address"
            },
            {
              "internalType": "address",
              "name": "orderBookShort",
              "type": "address"
            },
            {
              "internalType": "address",
              "name": "positionBook",
              "type": "address"
            }
          ],
          "internalType": "struct IMarketReader.MarketOuts",
          "name": "mktOuts",
          "type": "tuple"
        },
        {
          "components": [
            {
              "internalType": "uint256",
              "name": "closeFeeRate",
              "type": "uint256"
            },
            {
              "internalType": "uint256",
              "name": "openFeeRate",
              "type": "uint256"
            },
            {
              "internalType": "uint256",
              "name": "execFee",
              "type": "uint256"
            },
            {
              "internalType": "uint256",
              "name": "liquidateFee",
              "type": "uint256"
            },
            {
              "internalType": "uint256",
              "name": "digits",
              "type": "uint256"
            }
          ],
          "internalType": "struct IMarketReader.FeeOuts",
          "name": "feeOuts",
          "type": "tuple"
        }
      ],
      "stateMutability": "view",
      "type": "function"
    },
    {
      "inputs": [],
      "name": "getMarkets",
      "outputs": [
        {
          "components": [
            {
              "internalType": "string",
              "name": "name",
              "type": "string"
            },
            {
              "internalType": "address",
              "name": "addr",
              "type": "address"
            },
            {
              "internalType": "uint256",
              "name": "minPay",
              "type": "uint256"
            },
            {
              "internalType": "bool",
              "name": "allowOpen",
              "type": "bool"
            },
            {
              "internalType": "bool",
              "name": "allowClose",
              "type": "bool"
            }
          ],
          "internalType": "struct IMarketFactory.Outs[]",
          "name": "_outs",
          "type": "tuple[]"
        }
      ],
      "stateMutability": "view",
      "type": "function"
    },
    {
      "inputs": [
        {
          "internalType": "address",
          "name": "account",
          "type": "address"
        },
        {
          "internalType": "address",
          "name": "market",
          "type": "address"
        }
      ],
      "name": "getPositions",
      "outputs": [
        {
          "components": [
            {
              "internalType": "address",
              "name": "market",
              "type": "address"
            },
            {
              "internalType": "bool",
              "name": "isLong",
              "type": "bool"
            },
            {
              "internalType": "uint32",
              "name": "lastTime",
              "type": "uint32"
            },
            {
              "internalType": "uint216",
              "name": "extra3",
              "type": "uint216"
            },
            {
              "internalType": "uint256",
              "name": "size",
              "type": "uint256"
            },
            {
              "internalType": "uint256",
              "name": "collateral",
              "type": "uint256"
            },
            {
              "internalType": "uint256",
              "name": "averagePrice",
              "type": "uint256"
            },
            {
              "internalType": "int256",
              "name": "entryFundingRate",
              "type": "int256"
            },
            {
              "internalType": "int256",
              "name": "realisedPnl",
              "type": "int256"
            },
            {
              "internalType": "uint256",
              "name": "extra0",
              "type": "uint256"
            },
            {
              "internalType": "uint256",
              "name": "extra1",
              "type": "uint256"
            },
            {
              "internalType": "uint256",
              "name": "extra2",
              "type": "uint256"
            }
          ],
          "internalType": "struct Position.Props[]",
          "name": "_positions",
          "type": "tuple[]"
        }
      ],
      "stateMutability": "view",
      "type": "function"
    },
    {
      "inputs": [
        {
          "internalType": "bytes32",
          "name": "role",
          "type": "bytes32"
        }
      ],
      "name": "getRoleAdmin",
      "outputs": [
        {
          "internalType": "bytes32",
          "name": "",
          "type": "bytes32"
        }
      ],
      "stateMutability": "view",
      "type": "function"
    },
    {
      "inputs": [
        {
          "internalType": "address",
          "name": "_account",
          "type": "address"
        }
      ],
      "name": "grantControllerRoleByMarketManager",
      "outputs": [],
      "stateMutability": "nonpayable",
      "type": "function"
    },
    {
      "inputs": [
        {
          "internalType": "bytes32",
          "name": "role",
          "type": "bytes32"
        },
        {
          "internalType": "address",
          "name": "account",
          "type": "address"
        }
      ],
      "name": "grantRole",
      "outputs": [],
      "stateMutability": "nonpayable",
      "type": "function"
    },
    {
      "inputs": [
        {
          "internalType": "bytes32",
          "name": "role",
          "type": "bytes32"
        },
        {
          "internalType": "address",
          "name": "account",
          "type": "address"
        }
      ],
      "name": "hasRole",
      "outputs": [
        {
          "internalType": "bool",
          "name": "",
          "type": "bool"
        }
      ],
      "stateMutability": "view",
      "type": "function"
    },
    {
      "inputs": [
        {
          "internalType": "address",
          "name": "_marketRouter",
          "type": "address"
        },
        {
          "internalType": "address",
          "name": "_vaultRouter",
          "type": "address"
        }
      ],
      "name": "initialize",
      "outputs": [],
      "stateMutability": "nonpayable",
      "type": "function"
    },
    {
      "inputs": [
        {
          "internalType": "address",
          "name": "market",
          "type": "address"
        },
        {
          "internalType": "address",
          "name": "_account",
          "type": "address"
        },
        {
          "internalType": "bool",
          "name": "_isLong",
          "type": "bool"
        }
      ],
      "name": "isLiquidate",
      "outputs": [
        {
          "internalType": "uint256",
          "name": "_state",
          "type": "uint256"
        }
      ],
      "stateMutability": "view",
      "type": "function"
    },
    {
      "inputs": [],
      "name": "marketRouter",
      "outputs": [
        {
          "internalType": "contract IMarketRouter",
          "name": "",
          "type": "address"
        }
      ],
      "stateMutability": "view",
      "type": "function"
    },
    {
      "inputs": [],
      "name": "owner",
      "outputs": [
        {
          "internalType": "address",
          "name": "",
          "type": "address"
        }
      ],
      "stateMutability": "view",
      "type": "function"
    },
    {
      "inputs": [],
      "name": "renounceOwnership",
      "outputs": [],
      "stateMutability": "nonpayable",
      "type": "function"
    },
    {
      "inputs": [
        {
          "internalType": "bytes32",
          "name": "role",
          "type": "bytes32"
        },
        {
          "internalType": "address",
          "name": "account",
          "type": "address"
        }
      ],
      "name": "renounceRole",
      "outputs": [],
      "stateMutability": "nonpayable",
      "type": "function"
    },
    {
      "inputs": [
        {
          "internalType": "bytes32",
          "name": "role",
          "type": "bytes32"
        },
        {
          "internalType": "address",
          "name": "account",
          "type": "address"
        }
      ],
      "name": "revokeRole",
      "outputs": [],
      "stateMutability": "nonpayable",
      "type": "function"
    },
    {
      "inputs": [
        {
          "internalType": "bytes4",
          "name": "interfaceId",
          "type": "bytes4"
        }
      ],
      "name": "supportsInterface",
      "outputs": [
        {
          "internalType": "bool",
          "name": "",
          "type": "bool"
        }
      ],
      "stateMutability": "view",
      "type": "function"
    },
    {
      "inputs": [
        {
          "internalType": "address",
          "name": "to",
          "type": "address"
        }
      ],
      "name": "transferAdmin",
      "outputs": [],
      "stateMutability": "nonpayable",
      "type": "function"
    },
    {
      "inputs": [
        {
          "internalType": "address",
          "name": "newOwner",
          "type": "address"
        }
      ],
      "name": "transferOwnership",
      "outputs": [],
      "stateMutability": "nonpayable",
      "type": "function"
    },
    {
      "inputs": [],
      "name": "vaultRouter",
      "outputs": [
        {
          "internalType": "contract IVaultRouter",
          "name": "",
          "type": "address"
        }
      ],
      "stateMutability": "view",
      "type": "function"
    }
  ],
  "bytecode": "0x60806040523480156200001157600080fd5b5060405162003504380380620035048339810160408190526200003491620001ab565b8062000040336200007d565b6200005681620000cf60201b620020121760201c565b50600580546001600160a01b0319166001600160a01b0392909216919091179055620001dd565b600180546001600160a01b038381166001600160a01b0319831681179093556040519116919082907f8be0079c531659141344cd1fd0a4f28419497f9722a3daafe3b4186f6b6457e090600090a35050565b42600255620000de336200007d565b620000eb600033620000fb565b620000f8600082620000fb565b50565b6200010782826200010b565b5050565b6000828152602081815260408083206001600160a01b038516845290915290205460ff1662000107576000828152602081815260408083206001600160a01b03851684529091529020805460ff19166001179055620001673390565b6001600160a01b0316816001600160a01b0316837f2f8788117e7eff1d82e926ec794901d17c78024a50270940304540a733656f0d60405160405180910390a45050565b600060208284031215620001be57600080fd5b81516001600160a01b0381168114620001d657600080fd5b9392505050565b61331780620001ed6000396000f3fe608060405234801561001057600080fd5b506004361061014d5760003560e01c80637fe4a698116100c3578063d12dbde41161007c578063d12dbde4146102e8578063d37c441c146102fb578063d4dfadbf1461030e578063d547741f14610330578063ec2c901614610343578063f2fde38b1461035857600080fd5b80637fe4a6981461026f578063889be285146102825780638da5cb5b1461029557806391d14854146102ba578063a217fddf146102cd578063c3b31472146102d557600080fd5b806336568abe1161011557806336568abe146101fb578063485cc9551461020e578063715018a614610221578063735a288514610229578063739118a41461023c57806375829def1461025c57600080fd5b806301ffc9a71461015257806320981df41461017a57806323961001146101a2578063248a9ca3146101c35780632f2ff15d146101e6575b600080fd5b610165610160366004612506565b61036b565b60405190151581526020015b60405180910390f35b61018d610188366004612553565b6103a2565b60408051928352602083019190915201610171565b6101b56101b036600461258c565b610507565b604051908152602001610171565b6101b56101d13660046125d7565b60009081526020819052604090206001015490565b6101f96101f43660046125f0565b610826565b005b6101f96102093660046125f0565b610850565b6101f961021c366004612615565b6108d3565b6101f9610a52565b6101b561023736600461258c565b610a66565b61024f61024a366004612615565b610fb7565b60405161017191906126ec565b6101f961026a36600461273b565b6112fc565b6101f961027d36600461273b565b611326565b6101b561029036600461258c565b611350565b6001546001600160a01b03165b6040516001600160a01b039091168152602001610171565b6101656102c83660046125f0565b6115c9565b6101b5600081565b6005546102a2906001600160a01b031681565b6003546102a2906001600160a01b031681565b6004546102a2906001600160a01b031681565b61032161031c36600461273b565b6115f2565b604051610171939291906127fb565b6101f961033e3660046125f0565b611efd565b61034b611f22565b60405161017191906128f8565b6101f961036636600461273b565b611f99565b60006001600160e01b03198216637965db0b60e01b148061039c57506301ffc9a760e01b6001600160e01b03198316145b92915050565b6000806000846001600160a01b031663f29ebf616040518163ffffffff1660e01b8152600401602060405180830381865afa1580156103e5573d6000803e3d6000fd5b505050506040513d601f19601f82011682018060405250810190610409919061299a565b604051630826077d60e21b81526001600160a01b03878116600483015286151560248301529192506000918316906320981df490604401602060405180830381865afa15801561045d573d6000803e3d6000fd5b505050506040513d601f19601f8201168201806040525081019061048191906129b7565b6040516334f32e2560e01b81526001600160a01b03888116600483015287151560248301529192506000918416906334f32e2590604401602060405180830381865afa1580156104d5573d6000803e3d6000fd5b505050506040513d601f19601f820116820180604052508101906104f991906129b7565b919791965090945050505050565b6000808490506000816001600160a01b031663b894300d6040518163ffffffff1660e01b8152600401602060405180830381865afa15801561054d573d6000803e3d6000fd5b505050506040513d601f19601f82011682018060405250810190610571919061299a565b9050806001600160a01b0316631f21756a868887866001600160a01b031663ac0b05a66040518163ffffffff1660e01b8152600401602060405180830381865afa1580156105c3573d6000803e3d6000fd5b505050506040513d601f19601f820116820180604052508101906105e7919061299a565b876001600160a01b031663f29ebf616040518163ffffffff1660e01b8152600401602060405180830381865afa158015610625573d6000803e3d6000fd5b505050506040513d601f19601f82011682018060405250810190610649919061299a565b886001600160a01b031663741bef1a6040518163ffffffff1660e01b8152600401602060405180830381865afa158015610687573d6000803e3d6000fd5b505050506040513d601f19601f820116820180604052508101906106ab919061299a565b6001600160a01b03166376d697608a6001600160a01b031663e7d015f26040518163ffffffff1660e01b8152600401602060405180830381865afa1580156106f7573d6000803e3d6000fd5b505050506040513d601f19601f8201168201806040525081019061071b919061299a565b6040516001600160e01b031960e084901b1681526001600160a01b0390911660048201528d156024820152604401602060405180830381865afa158015610766573d6000803e3d6000fd5b505050506040513d601f19601f8201168201806040525081019061078a91906129b7565b60405160e088901b6001600160e01b03191681526001600160a01b039687166004820152948616602486015292151560448501529084166064840152909216608482015260a481019190915260c401602060405180830381865afa1580156107f6573d6000803e3d6000fd5b505050506040513d601f19601f8201168201806040525081019061081a91906129b7565b925050505b9392505050565b60008281526020819052604090206001015461084181612035565b61084b838361203f565b505050565b6001600160a01b03811633146108c55760405162461bcd60e51b815260206004820152602f60248201527f416363657373436f6e74726f6c3a2063616e206f6e6c792072656e6f756e636560448201526e103937b632b9903337b91039b2b63360891b60648201526084015b60405180910390fd5b6108cf82826120c3565b5050565b6108db612128565b600154600160a81b900460ff1615808015610901575060018054600160a01b900460ff16105b806109215750303b158015610921575060018054600160a01b900460ff16145b6109845760405162461bcd60e51b815260206004820152602e60248201527f496e697469616c697a61626c653a20636f6e747261637420697320616c72656160448201526d191e481a5b9a5d1a585b1a5e995960921b60648201526084016108bc565b6001805460ff60a01b1916600160a01b17905580156109b1576001805460ff60a81b1916600160a81b1790555b6001600160a01b0383166109c457600080fd5b6001600160a01b0382166109d757600080fd5b600380546001600160a01b038086166001600160a01b0319928316179092556004805492851692909116919091179055801561084b576001805460ff60a81b191681556040519081527f7f26b83ff96e1f2b6a682f133852f6798a09c465da95921460cefb38474024989060200160405180910390a1505050565b610a5a612128565b610a646000612182565b565b600080846001600160a01b031663d37c441c6040518163ffffffff1660e01b8152600401602060405180830381865afa158015610aa7573d6000803e3d6000fd5b505050506040513d601f19601f82011682018060405250810190610acb919061299a565b90506000816001600160a01b0316636dc7b0a16040518163ffffffff1660e01b8152600401602060405180830381865afa158015610b0d573d6000803e3d6000fd5b505050506040513d601f19601f82011682018060405250810190610b3191906129b7565b905060008111610b465760009250505061081f565b6000866001600160a01b031663ac0b05a66040518163ffffffff1660e01b8152600401602060405180830381865afa158015610b86573d6000803e3d6000fd5b505050506040513d601f19601f82011682018060405250810190610baa919061299a565b90506000876001600160a01b031663c54dc3d66040518163ffffffff1660e01b8152600401602060405180830381865afa158015610bec573d6000803e3d6000fd5b505050506040513d601f19601f82011682018060405250810190610c10919061299a565b9050610c7360405180610140016040528060006001600160a01b0316815260200160008152602001600015158152602001600081526020016000815260200160008152602001600081526020016000815260200160008152602001600081525090565b6001600160a01b03808a1682528715156040808401919091526000602084015280516343a4b4a560e11b8152815192861692638749694a926004808401939192918290030181865afa158015610ccd573d6000803e3d6000fd5b505050506040513d601f19601f82011682018060405250810190610cf191906129e0565b61010083015260e082015260035460405162b29b4b60e61b81526001600160a01b038a8116600483015290911690632ca6d2c0906024016040805180830381865afa158015610d44573d6000803e3d6000fd5b505050506040513d601f19601f82011682018060405250810190610d6891906129e0565b60c083015260a082015260035460408051630799f55f60e01b815281516001600160a01b0390931692630799f55f926004808401939192918290030181865afa158015610db9573d6000803e3d6000fd5b505050506040513d601f19601f82011682018060405250810190610ddd91906129e0565b8260600183608001828152508281525050506000896001600160a01b031663b2016bd46040518163ffffffff1660e01b8152600401602060405180830381865afa158015610e2f573d6000803e3d6000fd5b505050506040513d601f19601f82011682018060405250810190610e53919061299a565b9050610f36600460009054906101000a90046001600160a01b03166001600160a01b0316636dc7b0a16040518163ffffffff1660e01b8152600401602060405180830381865afa158015610eab573d6000803e3d6000fd5b505050506040513d601f19601f82011682018060405250810190610ecf91906129b7565b826001600160a01b031663313ce5676040518163ffffffff1660e01b8152600401602060405180830381865afa158015610f0d573d6000803e3d6000fd5b505050506040513d601f19601f82011682018060405250810190610f319190612a04565b6121d4565b610120830152604051638050e32f60e01b81526001600160a01b03841690638050e32f90610f68908590600401612a27565b602060405180830381865afa158015610f85573d6000803e3d6000fd5b505050506040513d601f19601f82011682018060405250810190610fa991906129b7565b9a9950505050505050505050565b60606001600160a01b03821661128e5760055460408051637616480b60e11b815290516000926001600160a01b03169163ec2c901691600480830192869291908290030181865afa158015611010573d6000803e3d6000fd5b505050506040513d6000823e601f3d908101601f191682016040526110389190810190612b6a565b905060008080805b84518110156111025784818151811061105b5761105b612ce4565b6020908102919091018101510151604051631f75a98760e11b81526001600160a01b038a81166004830152919550600091861690633eeb530e90602401600060405180830381865afa1580156110b5573d6000803e3d6000fd5b505050506040513d6000823e601f3d908101601f191682016040526110dd9190810190612dde565b90508051836110ec9190612e8f565b92505080806110fa90612ea2565b915050611040565b5080600003611114575050505061039c565b8067ffffffffffffffff81111561112d5761112d612aa7565b60405190808252806020026020018201604052801561116657816020015b61115361248b565b81526020019060019003908161114b5790505b50945060005b84518110156112845784818151811061118757611187612ce4565b6020908102919091018101510151604051631f75a98760e11b81526001600160a01b038a81166004830152919550600091861690633eeb530e90602401600060405180830381865afa1580156111e1573d6000803e3d6000fd5b505050506040513d6000823e601f3d908101601f191682016040526112099190810190612dde565b905060005b815181101561126f5781818151811061122957611229612ce4565b602002602001015188868151811061124357611243612ce4565b6020026020010181905250848061125990612ea2565b955050808061126790612ea2565b91505061120e565b5050808061127c90612ea2565b91505061116c565b505050505061039c565b604051631f75a98760e11b81526001600160a01b038481166004830152831690633eeb530e90602401600060405180830381865afa1580156112d4573d6000803e3d6000fd5b505050506040513d6000823e601f3d908101601f1916820160405261081f9190810190612dde565b600061130781612035565b611312600083612201565b61131b82612182565b6108cf6000336120c3565b7f8d1089725c0dc266707fa6207730fb801dcd03108bfed7a21099bd303651d2b761014d81612035565b600080836001600160a01b031663ac0b05a66040518163ffffffff1660e01b8152600401602060405180830381865afa158015611391573d6000803e3d6000fd5b505050506040513d601f19601f820116820180604052508101906113b5919061299a565b90506113bf61248b565b60405163bc95baad60e01b81526001600160a01b03878116600483015260006024830152851515604483015283169063bc95baad9060640161018060405180830381865afa158015611415573d6000803e3d6000fd5b505050506040513d601f19601f820116820180604052508101906114399190612ebb565b90506000856001600160a01b031663f29ebf616040518163ffffffff1660e01b8152600401602060405180830381865afa15801561147b573d6000803e3d6000fd5b505050506040513d601f19601f8201168201806040525081019061149f919061299a565b604080516101e081018252600080825281830181905260608083018290526080830182905260a080840183905260c0840183905260e08401839052610100840183905261012084018390526101408401839052610160840183905261018084018381526101a085018490526101c08501929092528a1515602085015287015190526001600160a01b038a811683529251634151026360e01b8152939450909290918416906341510263906115599085908890600401612f13565b600060405180830381865afa158015611576573d6000803e3d6000fd5b505050506040513d6000823e601f3d908101601f1916820160405261159e919081019061301b565b9050806002815181106115b3576115b3612ce4565b6020026020010151955050505050509392505050565b6000918252602082815260408084206001600160a01b0393909316845291905290205460ff1690565b611645604051806101200160405280600081526020016000815260200160008152602001600081526020016000815260200160008152602001600081526020016000151581526020016000151581525090565b6040805161014081018252600080825260208201819052918101829052606081018290526080810182905260a0810182905260c0810182905260e0810182905261010081018290526101208101919091526116c86040518060a0016040528060008152602001600081526020016000815260200160008152602001600081525090565b60008490506000816001600160a01b031663f29ebf616040518163ffffffff1660e01b8152600401602060405180830381865afa15801561170d573d6000803e3d6000fd5b505050506040513d601f19601f82011682018060405250810190611731919061299a565b90506000826001600160a01b031663b894300d6040518163ffffffff1660e01b8152600401602060405180830381865afa158015611773573d6000803e3d6000fd5b505050506040513d601f19601f82011682018060405250810190611797919061299a565b90506000816001600160a01b031663177927296040518163ffffffff1660e01b8152600401602060405180830381865afa1580156117d9573d6000803e3d6000fd5b505050506040513d601f19601f820116820180604052508101906117fd91906130ac565b90506040518061012001604052806118178351610fff1690565b81528251602090910190600c1c610fff16815260200161183861271061220b565b8152825160181c610fff9081166020830152835160241c16604082015260600161186183612230565b815260200161186f8361224e565b81526020016118848351600f606c1b16151590565b1515815260200161189b8351600f60681b16151590565b15158152509650604051806101400160405280856001600160a01b031663e84254676040518163ffffffff1660e01b8152600401602060405180830381865afa1580156118ec573d6000803e3d6000fd5b505050506040513d601f19601f820116820180604052508101906119109190612a04565b60ff168152602001846001600160a01b031663d87780688b60016040518363ffffffff1660e01b81526004016119479291906130ee565b602060405180830381865afa158015611964573d6000803e3d6000fd5b505050506040513d601f19601f8201168201806040525081019061198891906129b7565b8152602001846001600160a01b031663d87780688b60006040518363ffffffff1660e01b81526004016119bc9291906130ee565b602060405180830381865afa1580156119d9573d6000803e3d6000fd5b505050506040513d601f19601f820116820180604052508101906119fd91906129b7565b8152602001846001600160a01b031663d87780688b60046040518363ffffffff1660e01b8152600401611a319291906130ee565b602060405180830381865afa158015611a4e573d6000803e3d6000fd5b505050506040513d601f19601f82011682018060405250810190611a7291906129b7565b815260200160008152602001856001600160a01b031663e7d015f26040518163ffffffff1660e01b8152600401602060405180830381865afa158015611abc573d6000803e3d6000fd5b505050506040513d601f19601f82011682018060405250810190611ae0919061299a565b6001600160a01b03168152602001856001600160a01b031663b2016bd46040518163ffffffff1660e01b8152600401602060405180830381865afa158015611b2c573d6000803e3d6000fd5b505050506040513d601f19601f82011682018060405250810190611b50919061299a565b6001600160a01b03168152602001856001600160a01b0316637b2fd1e56040518163ffffffff1660e01b8152600401602060405180830381865afa158015611b9c573d6000803e3d6000fd5b505050506040513d601f19601f82011682018060405250810190611bc0919061299a565b6001600160a01b03168152602001856001600160a01b03166305ba9ae96040518163ffffffff1660e01b8152600401602060405180830381865afa158015611c0c573d6000803e3d6000fd5b505050506040513d601f19601f82011682018060405250810190611c30919061299a565b6001600160a01b03168152602001856001600160a01b031663ac0b05a66040518163ffffffff1660e01b8152600401602060405180830381865afa158015611c7c573d6000803e3d6000fd5b505050506040513d601f19601f82011682018060405250810190611ca0919061299a565b6001600160a01b039081169091526040805160a0810191829052631b0ef00d60e31b9091529197508190851663d8778068611ce08c600160a486016130ee565b602060405180830381865afa158015611cfd573d6000803e3d6000fd5b505050506040513d601f19601f82011682018060405250810190611d2191906129b7565b8152602001846001600160a01b031663d87780688b60006040518363ffffffff1660e01b8152600401611d559291906130ee565b602060405180830381865afa158015611d72573d6000803e3d6000fd5b505050506040513d601f19601f82011682018060405250810190611d9691906129b7565b8152602001846001600160a01b031663d87780688b60036040518363ffffffff1660e01b8152600401611dca9291906130ee565b602060405180830381865afa158015611de7573d6000803e3d6000fd5b505050506040513d601f19601f82011682018060405250810190611e0b91906129b7565b8152602001846001600160a01b031663d87780688b60046040518363ffffffff1660e01b8152600401611e3f9291906130ee565b602060405180830381865afa158015611e5c573d6000803e3d6000fd5b505050506040513d601f19601f82011682018060405250810190611e8091906129b7565b8152602001611eef856001600160a01b031663f4ca4d1d6040518163ffffffff1660e01b8152600401602060405180830381865afa158015611ec6573d6000803e3d6000fd5b505050506040513d601f19601f82011682018060405250810190611eea91906129b7565b61220b565b905296989597505050505050565b600082815260208190526040902060010154611f1881612035565b61084b83836120c3565b60055460408051637616480b60e11b815290516060926001600160a01b03169163ec2c90169160048083019260009291908290030181865afa158015611f6c573d6000803e3d6000fd5b505050506040513d6000823e601f3d908101601f19168201604052611f949190810190612b6a565b905090565b611fa1612128565b6001600160a01b0381166120065760405162461bcd60e51b815260206004820152602660248201527f4f776e61626c653a206e6577206f776e657220697320746865207a65726f206160448201526564647265737360d01b60648201526084016108bc565b61200f81612182565b50565b4260025561201f33612182565b61202a600033612201565b61200f600082612201565b61200f813361226e565b61204982826115c9565b6108cf576000828152602081815260408083206001600160a01b03851684529091529020805460ff1916600117905561207f3390565b6001600160a01b0316816001600160a01b0316837f2f8788117e7eff1d82e926ec794901d17c78024a50270940304540a733656f0d60405160405180910390a45050565b6120cd82826115c9565b156108cf576000828152602081815260408083206001600160a01b0385168085529252808320805460ff1916905551339285917ff6391f5c32d9c69d2a47ea670b442974b53935d1edc7fd64eb21e047a839171b9190a45050565b6001546001600160a01b03163314610a645760405162461bcd60e51b815260206004820181905260248201527f4f776e61626c653a2063616c6c6572206973206e6f7420746865206f776e657260448201526064016108bc565b600180546001600160a01b038381166001600160a01b0319831681179093556040519116919082907f8be0079c531659141344cd1fd0a4f28419497f9722a3daafe3b4186f6b6457e090600090a35050565b60006121e182600a6131ee565b6121ed6012600a6131fd565b6121f79085613209565b61081f9190613220565b6108cf828261203f565b600060015b600190910190612221600a82613209565b90508281036122105750919050565b600061223b826122c7565b825161039c9190603c1c610fff16613209565b6000612259826122c7565b825161039c919060481c63ffffffff16613209565b61227882826115c9565b6108cf57612285816122dd565b6122908360206122ef565b6040516020016122a1929190613242565b60408051601f198184030181529082905262461bcd60e51b82526108bc916004016132b7565b805160009061039c9060701c60ff16600a6131fd565b606061039c6001600160a01b03831660145b606060006122fe836002613209565b612309906002612e8f565b67ffffffffffffffff81111561232157612321612aa7565b6040519080825280601f01601f19166020018201604052801561234b576020820181803683370190505b509050600360fc1b8160008151811061236657612366612ce4565b60200101906001600160f81b031916908160001a905350600f60fb1b8160018151811061239557612395612ce4565b60200101906001600160f81b031916908160001a90535060006123b9846002613209565b6123c4906001612e8f565b90505b600181111561243c576f181899199a1a9b1b9c1cb0b131b232b360811b85600f16601081106123f8576123f8612ce4565b1a60f81b82828151811061240e5761240e612ce4565b60200101906001600160f81b031916908160001a90535060049490941c93612435816132ca565b90506123c7565b50831561081f5760405162461bcd60e51b815260206004820181905260248201527f537472696e67733a20686578206c656e67746820696e73756666696369656e7460448201526064016108bc565b60405180610180016040528060006001600160a01b03168152602001600015158152602001600063ffffffff16815260200160006001600160d81b0316815260200160008152602001600081526020016000815260200160008152602001600081526020016000815260200160008152602001600081525090565b60006020828403121561251857600080fd5b81356001600160e01b03198116811461081f57600080fd5b6001600160a01b038116811461200f57600080fd5b801515811461200f57600080fd5b6000806040838503121561256657600080fd5b823561257181612530565b9150602083013561258181612545565b809150509250929050565b6000806000606084860312156125a157600080fd5b83356125ac81612530565b925060208401356125bc81612530565b915060408401356125cc81612545565b809150509250925092565b6000602082840312156125e957600080fd5b5035919050565b6000806040838503121561260357600080fd5b82359150602083013561258181612530565b6000806040838503121561262857600080fd5b823561263381612530565b9150602083013561258181612530565b80516001600160a01b031682526020810151612663602084018215159052565b50604081015161267b604084018263ffffffff169052565b50606081015161269660608401826001600160d81b03169052565b506080818101519083015260a0808201519083015260c0808201519083015260e0808201519083015261010080820151908301526101208082015190830152610140808201519083015261016090810151910152565b6020808252825182820181905260009190848201906040850190845b8181101561272f5761271b838551612643565b928401926101809290920191600101612708565b50909695505050505050565b60006020828403121561274d57600080fd5b813561081f81612530565b805182526020810151602083015260408101516040830152606081015160608301526080810151608083015260a081015161279e60a08401826001600160a01b03169052565b5060c08101516127b960c08401826001600160a01b03169052565b5060e08101516127d460e08401826001600160a01b03169052565b50610100818101516001600160a01b03908116918401919091526101209182015116910152565b600061030082019050845182526020850151602083015260408501516040830152606085015160608301526080850151608083015260a085015160a083015260c085015160c083015260e0850151151560e0830152610100808601511515818401525061286c610120830185612758565b8251610260830152602083015161028083015260408301516102a083015260608301516102c083015260808301516102e0830152949350505050565b60005b838110156128c35781810151838201526020016128ab565b50506000910152565b600081518084526128e48160208601602086016128a8565b601f01601f19169290920160200192915050565b60006020808301818452808551808352604092508286019150828160051b87010184880160005b8381101561298c57603f19898403018552815160a08151818652612945828701826128cc565b838b01516001600160a01b0316878c0152898401518a880152606080850151151590880152608093840151151593909601929092525050938601939086019060010161291f565b509098975050505050505050565b6000602082840312156129ac57600080fd5b815161081f81612530565b6000602082840312156129c957600080fd5b5051919050565b80516129db81612530565b919050565b600080604083850312156129f357600080fd5b505080516020909101519092909150565b600060208284031215612a1657600080fd5b815160ff8116811461081f57600080fd5b81516001600160a01b031681526101408101602083015160208301526040830151612a56604084018215159052565b50606083015160608301526080830151608083015260a083015160a083015260c083015160c083015260e083015160e083015261010080840151818401525061012080840151818401525092915050565b634e487b7160e01b600052604160045260246000fd5b60405160a0810167ffffffffffffffff81118282101715612ae057612ae0612aa7565b60405290565b604051610180810167ffffffffffffffff81118282101715612ae057612ae0612aa7565b604051601f8201601f1916810167ffffffffffffffff81118282101715612b3357612b33612aa7565b604052919050565b600067ffffffffffffffff821115612b5557612b55612aa7565b5060051b60200190565b80516129db81612545565b60006020808385031215612b7d57600080fd5b825167ffffffffffffffff80821115612b9557600080fd5b818501915085601f830112612ba957600080fd5b8151612bbc612bb782612b3b565b612b0a565b81815260059190911b83018401908481019088831115612bdb57600080fd5b8585015b83811015612cd757805185811115612bf657600080fd5b8601601f1960a0828d0382011215612c0e5760008081fd5b612c16612abd565b8983015188811115612c285760008081fd5b8301603f81018e13612c3a5760008081fd5b8a81015160408a821115612c5057612c50612aa7565b612c608d86601f85011601612b0a565b94508185528f81838501011115612c775760008081fd5b612c86828e87018386016128a8565b848452612c948187016129d0565b8d8501526060945084860151818501525050506080612cb4818501612b5f565b83830152612cc460a08501612b5f565b9082015285525050918601918601612bdf565b5098975050505050505050565b634e487b7160e01b600052603260045260246000fd5b805163ffffffff811681146129db57600080fd5b80516001600160d81b03811681146129db57600080fd5b60006101808284031215612d3857600080fd5b612d40612ae6565b9050612d4b826129d0565b8152612d5960208301612b5f565b6020820152612d6a60408301612cfa565b6040820152612d7b60608301612d0e565b60608201526080820151608082015260a082015160a082015260c082015160c082015260e082015160e082015261010080830151818301525061012080830151818301525061014080830151818301525061016080830151818301525092915050565b60006020808385031215612df157600080fd5b825167ffffffffffffffff811115612e0857600080fd5b8301601f81018513612e1957600080fd5b8051612e27612bb782612b3b565b8181526101809182028301840191848201919088841115612e4757600080fd5b938501935b83851015612e6d57612e5e8986612d25565b83529384019391850191612e4c565b50979650505050505050565b634e487b7160e01b600052601160045260246000fd5b8082018082111561039c5761039c612e79565b600060018201612eb457612eb4612e79565b5060010190565b60006101808284031215612ece57600080fd5b61081f8383612d25565b600081518084526020808501945080840160005b83811015612f0857815187529582019590820190600101612eec565b509495945050505050565b60006101a0808352612f3081840186516001600160a01b03169052565b60208501516101c0612f458186018315159052565b60408701516101e0868101919091526060880151151561020087015260808801516001600160a01b031661022087015260a088015161024087015260c088015161026087015260e088015161028087015261010088015115156102a087015261012088015160ff9081166102c088015261014089015167ffffffffffffffff166102e0880152610160890151610300880152610180890151610320880152938801519093166103408601528601516103608501929092525061300b610380840182612ed8565b91505061081f6020830184612643565b6000602080838503121561302e57600080fd5b825167ffffffffffffffff81111561304557600080fd5b8301601f8101851361305657600080fd5b8051613064612bb782612b3b565b81815260059190911b8201830190838101908783111561308357600080fd5b928401925b828410156130a157835182529284019290840190613088565b979650505050505050565b6000602082840312156130be57600080fd5b6040516020810181811067ffffffffffffffff821117156130e1576130e1612aa7565b6040529151825250919050565b6001600160a01b0392909216825260ff16602082015260400190565b600181815b8085111561314557816000190482111561312b5761312b612e79565b8085161561313857918102915b93841c939080029061310f565b509250929050565b60008261315c5750600161039c565b816131695750600061039c565b816001811461317f5760028114613189576131a5565b600191505061039c565b60ff84111561319a5761319a612e79565b50506001821b61039c565b5060208310610133831016604e8410600b84101617156131c8575081810a61039c565b6131d2838361310a565b80600019048211156131e6576131e6612e79565b029392505050565b600061081f60ff84168361314d565b600061081f838361314d565b808202811582820484141761039c5761039c612e79565b60008261323d57634e487b7160e01b600052601260045260246000fd5b500490565b7f416363657373436f6e74726f6c3a206163636f756e742000000000000000000081526000835161327a8160178501602088016128a8565b7001034b99036b4b9b9b4b733903937b6329607d1b60179184019182015283516132ab8160288401602088016128a8565b01602801949350505050565b60208152600061081f60208301846128cc565b6000816132d9576132d9612e79565b50600019019056fea26469706673582212206b8d1356e0a14d66e29e830121200a7df0480c8e91b0e94d3574ca75ecbb4dd364736f6c63430008110033",
  "linkReferences": {},
  "deployedLinkReferences": {}
}