{
  "_format": "hh-sol-artifact-1",
  "contractName": "MarketRouter",
  "sourceName": "contracts/market/MarketRouter.sol",
  "abi": [
    {
      "anonymous": false,
      "inputs": [
        {
          "indexed": true,
          "internalType": "address",
          "name": "account",
          "type": "address"
        },
        {
          "indexed": false,
          "internalType": "bool",
          "name": "isLong",
          "type": "bool"
        },
        {
          "indexed": false,
          "internalType": "bool",
          "name": "isIncrease",
          "type": "bool"
        },
        {
          "indexed": false,
          "internalType": "uint256",
          "name": "orderID",
          "type": "uint256"
        },
        {
          "indexed": false,
          "internalType": "address",
          "name": "market",
          "type": "address"
        },
        {
          "indexed": false,
          "internalType": "uint8",
          "name": "reason",
          "type": "uint8"
        },
        {
          "indexed": false,
          "internalType": "string",
          "name": "reasonStr",
          "type": "string"
        },
        {
          "indexed": false,
          "internalType": "uint256",
          "name": "price",
          "type": "uint256"
        },
        {
          "indexed": false,
          "internalType": "int256",
          "name": "dPNL",
          "type": "int256"
        }
      ],
      "name": "DeleteOrder",
      "type": "event"
    },
    {
      "anonymous": false,
      "inputs": [
        {
          "indexed": false,
          "internalType": "uint8",
          "name": "version",
          "type": "uint8"
        }
      ],
      "name": "Initialized",
      "type": "event"
    },
    {
      "anonymous": false,
      "inputs": [
        {
          "indexed": true,
          "internalType": "address",
          "name": "account",
          "type": "address"
        },
        {
          "indexed": false,
          "internalType": "bool",
          "name": "isLong",
          "type": "bool"
        },
        {
          "indexed": false,
          "internalType": "bool",
          "name": "isIncrease",
          "type": "bool"
        },
        {
          "indexed": false,
          "internalType": "uint256",
          "name": "orderID",
          "type": "uint256"
        },
        {
          "indexed": false,
          "internalType": "address",
          "name": "market",
          "type": "address"
        },
        {
          "indexed": false,
          "internalType": "uint256",
          "name": "size",
          "type": "uint256"
        },
        {
          "indexed": false,
          "internalType": "uint256",
          "name": "collateral",
          "type": "uint256"
        },
        {
          "indexed": false,
          "internalType": "uint256",
          "name": "triggerPrice",
          "type": "uint256"
        },
        {
          "indexed": false,
          "internalType": "bool",
          "name": "triggerAbove",
          "type": "bool"
        },
        {
          "indexed": false,
          "internalType": "uint256",
          "name": "tp",
          "type": "uint256"
        },
        {
          "indexed": false,
          "internalType": "uint256",
          "name": "sl",
          "type": "uint256"
        },
        {
          "indexed": false,
          "internalType": "uint128",
          "name": "fromOrder",
          "type": "uint128"
        },
        {
          "indexed": false,
          "internalType": "bool",
          "name": "isKeepLev",
          "type": "bool"
        },
        {
          "components": [
            {
              "internalType": "address",
              "name": "_market",
              "type": "address"
            },
            {
              "internalType": "bool",
              "name": "_isLong",
              "type": "bool"
            },
            {
              "internalType": "uint256",
              "name": "_oraclePrice",
              "type": "uint256"
            },
            {
              "internalType": "bool",
              "name": "isOpen",
              "type": "bool"
            },
            {
              "internalType": "bool",
              "name": "isCreate",
              "type": "bool"
            },
            {
              "components": [
                {
                  "internalType": "uint8",
                  "name": "version",
                  "type": "uint8"
                },
                {
                  "internalType": "uint32",
                  "name": "updatedAtBlock",
                  "type": "uint32"
                },
                {
                  "internalType": "uint8",
                  "name": "triggerAbove",
                  "type": "uint8"
                },
                {
                  "internalType": "address",
                  "name": "account",
                  "type": "address"
                },
                {
                  "internalType": "uint48",
                  "name": "extra3",
                  "type": "uint48"
                },
                {
                  "internalType": "uint128",
                  "name": "collateral",
                  "type": "uint128"
                },
                {
                  "internalType": "uint128",
                  "name": "size",
                  "type": "uint128"
                },
                {
                  "internalType": "uint128",
                  "name": "price",
                  "type": "uint128"
                },
                {
                  "internalType": "uint128",
                  "name": "extra1",
                  "type": "uint128"
                },
                {
                  "internalType": "uint64",
                  "name": "orderID",
                  "type": "uint64"
                },
                {
                  "internalType": "uint64",
                  "name": "extra2",
                  "type": "uint64"
                },
                {
                  "internalType": "uint128",
                  "name": "extra0",
                  "type": "uint128"
                },
                {
                  "internalType": "bytes32",
                  "name": "refCode",
                  "type": "bytes32"
                }
              ],
              "internalType": "struct Order.Props",
              "name": "_order",
              "type": "tuple"
            },
            {
              "internalType": "uint256[]",
              "name": "inputs",
              "type": "uint256[]"
            }
          ],
          "indexed": false,
          "internalType": "struct MarketDataTypes.UpdateOrderInputs",
          "name": "params",
          "type": "tuple"
        }
      ],
      "name": "UpdateOrder",
      "type": "event"
    },
    {
      "anonymous": false,
      "inputs": [
        {
          "indexed": true,
          "internalType": "address",
          "name": "account",
          "type": "address"
        },
        {
          "indexed": false,
          "internalType": "uint256",
          "name": "collateralDelta",
          "type": "uint256"
        },
        {
          "indexed": false,
          "internalType": "int256",
          "name": "collateralDeltaAfter",
          "type": "int256"
        },
        {
          "indexed": false,
          "internalType": "uint256",
          "name": "sizeDelta",
          "type": "uint256"
        },
        {
          "indexed": false,
          "internalType": "bool",
          "name": "isLong",
          "type": "bool"
        },
        {
          "indexed": false,
          "internalType": "uint256",
          "name": "price",
          "type": "uint256"
        },
        {
          "indexed": false,
          "internalType": "int256",
          "name": "pnl",
          "type": "int256"
        },
        {
          "indexed": false,
          "internalType": "int256[]",
          "name": "fees",
          "type": "int256[]"
        },
        {
          "indexed": false,
          "internalType": "address",
          "name": "market",
          "type": "address"
        },
        {
          "indexed": false,
          "internalType": "address",
          "name": "collateralToken",
          "type": "address"
        },
        {
          "indexed": false,
          "internalType": "address",
          "name": "indexToken",
          "type": "address"
        },
        {
          "indexed": false,
          "internalType": "uint256",
          "name": "category",
          "type": "uint256"
        },
        {
          "indexed": false,
          "internalType": "uint64",
          "name": "fromOrder",
          "type": "uint64"
        }
      ],
      "name": "UpdatePosition",
      "type": "event"
    },
    {
      "inputs": [],
      "name": "DEFAULT_ADMIN_ROLE",
      "outputs": [
        {
          "internalType": "bytes32",
          "name": "",
          "type": "bytes32"
        }
      ],
      "stateMutability": "view",
      "type": "function"
    },
    {
      "inputs": [
        {
          "internalType": "address",
          "name": "newOwner",
          "type": "address"
        }
      ],
      "name": "_transferOwnership",
      "outputs": [],
      "stateMutability": "pure",
      "type": "function"
    },
    {
      "inputs": [
        {
          "internalType": "address",
          "name": "_market",
          "type": "address"
        },
        {
          "internalType": "address",
          "name": "",
          "type": "address"
        }
      ],
      "name": "addMarket",
      "outputs": [],
      "stateMutability": "nonpayable",
      "type": "function"
    },
    {
      "inputs": [
        {
          "internalType": "address[]",
          "name": "_markets",
          "type": "address[]"
        },
        {
          "internalType": "bool[]",
          "name": "_isIncreaseList",
          "type": "bool[]"
        },
        {
          "internalType": "uint256[]",
          "name": "_orderIDList",
          "type": "uint256[]"
        },
        {
          "internalType": "bool[]",
          "name": "_isLongList",
          "type": "bool[]"
        }
      ],
      "name": "cancelOrderList",
      "outputs": [],
      "stateMutability": "nonpayable",
      "type": "function"
    },
    {
      "inputs": [
        {
          "components": [
            {
              "internalType": "address",
              "name": "_market",
              "type": "address"
            },
            {
              "internalType": "bool",
              "name": "_isLong",
              "type": "bool"
            },
            {
              "internalType": "uint256",
              "name": "_oraclePrice",
              "type": "uint256"
            },
            {
              "internalType": "bool",
              "name": "isOpen",
              "type": "bool"
            },
            {
              "internalType": "address",
              "name": "_account",
              "type": "address"
            },
            {
              "internalType": "uint256",
              "name": "_sizeDelta",
              "type": "uint256"
            },
            {
              "internalType": "uint256",
              "name": "_price",
              "type": "uint256"
            },
            {
              "internalType": "uint256",
              "name": "_slippage",
              "type": "uint256"
            },
            {
              "internalType": "bool",
              "name": "_isExec",
              "type": "bool"
            },
            {
              "internalType": "uint8",
              "name": "liqState",
              "type": "uint8"
            },
            {
              "internalType": "uint64",
              "name": "_fromOrder",
              "type": "uint64"
            },
            {
              "internalType": "bytes32",
              "name": "_refCode",
              "type": "bytes32"
            },
            {
              "internalType": "uint256",
              "name": "collateralDelta",
              "type": "uint256"
            },
            {
              "internalType": "uint8",
              "name": "execNum",
              "type": "uint8"
            },
            {
              "internalType": "uint256[]",
              "name": "inputs",
              "type": "uint256[]"
            }
          ],
          "internalType": "struct MarketDataTypes.UpdatePositionInputs",
          "name": "_vars",
          "type": "tuple"
        }
      ],
      "name": "decreasePosition",
      "outputs": [],
      "stateMutability": "nonpayable",
      "type": "function"
    },
    {
      "inputs": [
        {
          "components": [
            {
              "components": [
                {
                  "internalType": "uint8",
                  "name": "version",
                  "type": "uint8"
                },
                {
                  "internalType": "uint32",
                  "name": "updatedAtBlock",
                  "type": "uint32"
                },
                {
                  "internalType": "uint8",
                  "name": "triggerAbove",
                  "type": "uint8"
                },
                {
                  "internalType": "address",
                  "name": "account",
                  "type": "address"
                },
                {
                  "internalType": "uint48",
                  "name": "extra3",
                  "type": "uint48"
                },
                {
                  "internalType": "uint128",
                  "name": "collateral",
                  "type": "uint128"
                },
                {
                  "internalType": "uint128",
                  "name": "size",
                  "type": "uint128"
                },
                {
                  "internalType": "uint128",
                  "name": "price",
                  "type": "uint128"
                },
                {
                  "internalType": "uint128",
                  "name": "extra1",
                  "type": "uint128"
                },
                {
                  "internalType": "uint64",
                  "name": "orderID",
                  "type": "uint64"
                },
                {
                  "internalType": "uint64",
                  "name": "extra2",
                  "type": "uint64"
                },
                {
                  "internalType": "uint128",
                  "name": "extra0",
                  "type": "uint128"
                },
                {
                  "internalType": "bytes32",
                  "name": "refCode",
                  "type": "bytes32"
                }
              ],
              "internalType": "struct Order.Props",
              "name": "order",
              "type": "tuple"
            },
            {
              "components": [
                {
                  "internalType": "address",
                  "name": "_market",
                  "type": "address"
                },
                {
                  "internalType": "bool",
                  "name": "_isLong",
                  "type": "bool"
                },
                {
                  "internalType": "uint256",
                  "name": "_oraclePrice",
                  "type": "uint256"
                },
                {
                  "internalType": "bool",
                  "name": "isOpen",
                  "type": "bool"
                },
                {
                  "internalType": "address",
                  "name": "_account",
                  "type": "address"
                },
                {
                  "internalType": "uint256",
                  "name": "_sizeDelta",
                  "type": "uint256"
                },
                {
                  "internalType": "uint256",
                  "name": "_price",
                  "type": "uint256"
                },
                {
                  "internalType": "uint256",
                  "name": "_slippage",
                  "type": "uint256"
                },
                {
                  "internalType": "bool",
                  "name": "_isExec",
                  "type": "bool"
                },
                {
                  "internalType": "uint8",
                  "name": "liqState",
                  "type": "uint8"
                },
                {
                  "internalType": "uint64",
                  "name": "_fromOrder",
                  "type": "uint64"
                },
                {
                  "internalType": "bytes32",
                  "name": "_refCode",
                  "type": "bytes32"
                },
                {
                  "internalType": "uint256",
                  "name": "collateralDelta",
                  "type": "uint256"
                },
                {
                  "internalType": "uint8",
                  "name": "execNum",
                  "type": "uint8"
                },
                {
                  "internalType": "uint256[]",
                  "name": "inputs",
                  "type": "uint256[]"
                }
              ],
              "internalType": "struct MarketDataTypes.UpdatePositionInputs",
              "name": "inputs",
              "type": "tuple"
            },
            {
              "internalType": "uint8",
              "name": "reason",
              "type": "uint8"
            },
            {
              "internalType": "string",
              "name": "reasonStr",
              "type": "string"
            },
            {
              "internalType": "int256",
              "name": "dPNL",
              "type": "int256"
            }
          ],
          "internalType": "struct MarketOrderCallBackIntl.DeleteOrderEvent",
          "name": "e",
          "type": "tuple"
        }
      ],
      "name": "deleteOrderCallback",
      "outputs": [],
      "stateMutability": "nonpayable",
      "type": "function"
    },
    {
      "inputs": [
        {
          "internalType": "address",
          "name": "account",
          "type": "address"
        }
      ],
      "name": "getAccountSize",
      "outputs": [
        {
          "internalType": "uint256",
          "name": "sizesL",
          "type": "uint256"
        },
        {
          "internalType": "uint256",
          "name": "sizesS",
          "type": "uint256"
        }
      ],
      "stateMutability": "view",
      "type": "function"
    },
    {
      "inputs": [],
      "name": "getGlobalPNL",
      "outputs": [
        {
          "internalType": "int256",
          "name": "pnl",
          "type": "int256"
        }
      ],
      "stateMutability": "view",
      "type": "function"
    },
    {
      "inputs": [],
      "name": "getGlobalSize",
      "outputs": [
        {
          "internalType": "uint256",
          "name": "sizesLong",
          "type": "uint256"
        },
        {
          "internalType": "uint256",
          "name": "sizesShort",
          "type": "uint256"
        }
      ],
      "stateMutability": "view",
      "type": "function"
    },
    {
      "inputs": [],
      "name": "getHooksCalls",
      "outputs": [
        {
          "components": [
            {
              "internalType": "bool",
              "name": "updatePosition",
              "type": "bool"
            },
            {
              "internalType": "bool",
              "name": "updateOrder",
              "type": "bool"
            },
            {
              "internalType": "bool",
              "name": "deleteOrder",
              "type": "bool"
            }
          ],
          "internalType": "struct MarketCallBackIntl.Calls",
          "name": "",
          "type": "tuple"
        }
      ],
      "stateMutability": "pure",
      "type": "function"
    },
    {
      "inputs": [],
      "name": "getMarkets",
      "outputs": [
        {
          "internalType": "address[]",
          "name": "",
          "type": "address[]"
        }
      ],
      "stateMutability": "view",
      "type": "function"
    },
    {
      "inputs": [
        {
          "internalType": "address",
          "name": "_account",
          "type": "address"
        }
      ],
      "name": "grantControllerRoleByMarketManager",
      "outputs": [],
      "stateMutability": "nonpayable",
      "type": "function"
    },
    {
      "inputs": [
        {
          "internalType": "bytes32",
          "name": "role",
          "type": "bytes32"
        },
        {
          "internalType": "address",
          "name": "account",
          "type": "address"
        }
      ],
      "name": "grantRole",
      "outputs": [],
      "stateMutability": "pure",
      "type": "function"
    },
    {
      "inputs": [],
      "name": "gv",
      "outputs": [
        {
          "internalType": "address",
          "name": "",
          "type": "address"
        }
      ],
      "stateMutability": "view",
      "type": "function"
    },
    {
      "inputs": [
        {
          "internalType": "bytes32",
          "name": "role",
          "type": "bytes32"
        },
        {
          "internalType": "address",
          "name": "account",
          "type": "address"
        }
      ],
      "name": "hasRole",
      "outputs": [
        {
          "internalType": "bool",
          "name": "",
          "type": "bool"
        }
      ],
      "stateMutability": "pure",
      "type": "function"
    },
    {
      "inputs": [
        {
          "components": [
            {
              "internalType": "address",
              "name": "_market",
              "type": "address"
            },
            {
              "internalType": "bool",
              "name": "_isLong",
              "type": "bool"
            },
            {
              "internalType": "uint256",
              "name": "_oraclePrice",
              "type": "uint256"
            },
            {
              "internalType": "bool",
              "name": "isOpen",
              "type": "bool"
            },
            {
              "internalType": "address",
              "name": "_account",
              "type": "address"
            },
            {
              "internalType": "uint256",
              "name": "_sizeDelta",
              "type": "uint256"
            },
            {
              "internalType": "uint256",
              "name": "_price",
              "type": "uint256"
            },
            {
              "internalType": "uint256",
              "name": "_slippage",
              "type": "uint256"
            },
            {
              "internalType": "bool",
              "name": "_isExec",
              "type": "bool"
            },
            {
              "internalType": "uint8",
              "name": "liqState",
              "type": "uint8"
            },
            {
              "internalType": "uint64",
              "name": "_fromOrder",
              "type": "uint64"
            },
            {
              "internalType": "bytes32",
              "name": "_refCode",
              "type": "bytes32"
            },
            {
              "internalType": "uint256",
              "name": "collateralDelta",
              "type": "uint256"
            },
            {
              "internalType": "uint8",
              "name": "execNum",
              "type": "uint8"
            },
            {
              "internalType": "uint256[]",
              "name": "inputs",
              "type": "uint256[]"
            }
          ],
          "internalType": "struct MarketDataTypes.UpdatePositionInputs",
          "name": "_inputs",
          "type": "tuple"
        }
      ],
      "name": "increasePosition",
      "outputs": [],
      "stateMutability": "nonpayable",
      "type": "function"
    },
    {
      "inputs": [
        {
          "internalType": "address",
          "name": "_f",
          "type": "address"
        },
        {
          "internalType": "address",
          "name": "_gv",
          "type": "address"
        },
        {
          "internalType": "address",
          "name": "vr",
          "type": "address"
        }
      ],
      "name": "initialize",
      "outputs": [],
      "stateMutability": "nonpayable",
      "type": "function"
    },
    {
      "inputs": [],
      "name": "isEnableMarketConvertToOrder",
      "outputs": [
        {
          "internalType": "bool",
          "name": "",
          "type": "bool"
        }
      ],
      "stateMutability": "view",
      "type": "function"
    },
    {
      "inputs": [
        {
          "internalType": "address",
          "name": "_market",
          "type": "address"
        }
      ],
      "name": "removeMarket",
      "outputs": [],
      "stateMutability": "nonpayable",
      "type": "function"
    },
    {
      "inputs": [
        {
          "internalType": "bytes32",
          "name": "role",
          "type": "bytes32"
        },
        {
          "internalType": "address",
          "name": "account",
          "type": "address"
        }
      ],
      "name": "revokeRole",
      "outputs": [],
      "stateMutability": "pure",
      "type": "function"
    },
    {
      "inputs": [
        {
          "internalType": "bool",
          "name": "_isEnableMarketConvertToOrder",
          "type": "bool"
        }
      ],
      "name": "setIsEnableMarketConvertToOrder",
      "outputs": [],
      "stateMutability": "nonpayable",
      "type": "function"
    },
    {
      "inputs": [
        {
          "internalType": "address",
          "name": "to",
          "type": "address"
        }
      ],
      "name": "transferAdmin",
      "outputs": [],
      "stateMutability": "nonpayable",
      "type": "function"
    },
    {
      "inputs": [
        {
          "internalType": "address",
          "name": "newOwner",
          "type": "address"
        }
      ],
      "name": "transferOwnership",
      "outputs": [],
      "stateMutability": "pure",
      "type": "function"
    },
    {
      "inputs": [
        {
          "components": [
            {
              "internalType": "address",
              "name": "_market",
              "type": "address"
            },
            {
              "internalType": "bool",
              "name": "_isLong",
              "type": "bool"
            },
            {
              "internalType": "uint256",
              "name": "_oraclePrice",
              "type": "uint256"
            },
            {
              "internalType": "bool",
              "name": "isOpen",
              "type": "bool"
            },
            {
              "internalType": "bool",
              "name": "isCreate",
              "type": "bool"
            },
            {
              "components": [
                {
                  "internalType": "uint8",
                  "name": "version",
                  "type": "uint8"
                },
                {
                  "internalType": "uint32",
                  "name": "updatedAtBlock",
                  "type": "uint32"
                },
                {
                  "internalType": "uint8",
                  "name": "triggerAbove",
                  "type": "uint8"
                },
                {
                  "internalType": "address",
                  "name": "account",
                  "type": "address"
                },
                {
                  "internalType": "uint48",
                  "name": "extra3",
                  "type": "uint48"
                },
                {
                  "internalType": "uint128",
                  "name": "collateral",
                  "type": "uint128"
                },
                {
                  "internalType": "uint128",
                  "name": "size",
                  "type": "uint128"
                },
                {
                  "internalType": "uint128",
                  "name": "price",
                  "type": "uint128"
                },
                {
                  "internalType": "uint128",
                  "name": "extra1",
                  "type": "uint128"
                },
                {
                  "internalType": "uint64",
                  "name": "orderID",
                  "type": "uint64"
                },
                {
                  "internalType": "uint64",
                  "name": "extra2",
                  "type": "uint64"
                },
                {
                  "internalType": "uint128",
                  "name": "extra0",
                  "type": "uint128"
                },
                {
                  "internalType": "bytes32",
                  "name": "refCode",
                  "type": "bytes32"
                }
              ],
              "internalType": "struct Order.Props",
              "name": "_order",
              "type": "tuple"
            },
            {
              "internalType": "uint256[]",
              "name": "inputs",
              "type": "uint256[]"
            }
          ],
          "internalType": "struct MarketDataTypes.UpdateOrderInputs",
          "name": "_vars",
          "type": "tuple"
        }
      ],
      "name": "updateOrder",
      "outputs": [],
      "stateMutability": "nonpayable",
      "type": "function"
    },
    {
      "inputs": [
        {
          "components": [
            {
              "internalType": "address",
              "name": "_market",
              "type": "address"
            },
            {
              "internalType": "bool",
              "name": "_isLong",
              "type": "bool"
            },
            {
              "internalType": "uint256",
              "name": "_oraclePrice",
              "type": "uint256"
            },
            {
              "internalType": "bool",
              "name": "isOpen",
              "type": "bool"
            },
            {
              "internalType": "bool",
              "name": "isCreate",
              "type": "bool"
            },
            {
              "components": [
                {
                  "internalType": "uint8",
                  "name": "version",
                  "type": "uint8"
                },
                {
                  "internalType": "uint32",
                  "name": "updatedAtBlock",
                  "type": "uint32"
                },
                {
                  "internalType": "uint8",
                  "name": "triggerAbove",
                  "type": "uint8"
                },
                {
                  "internalType": "address",
                  "name": "account",
                  "type": "address"
                },
                {
                  "internalType": "uint48",
                  "name": "extra3",
                  "type": "uint48"
                },
                {
                  "internalType": "uint128",
                  "name": "collateral",
                  "type": "uint128"
                },
                {
                  "internalType": "uint128",
                  "name": "size",
                  "type": "uint128"
                },
                {
                  "internalType": "uint128",
                  "name": "price",
                  "type": "uint128"
                },
                {
                  "internalType": "uint128",
                  "name": "extra1",
                  "type": "uint128"
                },
                {
                  "internalType": "uint64",
                  "name": "orderID",
                  "type": "uint64"
                },
                {
                  "internalType": "uint64",
                  "name": "extra2",
                  "type": "uint64"
                },
                {
                  "internalType": "uint128",
                  "name": "extra0",
                  "type": "uint128"
                },
                {
                  "internalType": "bytes32",
                  "name": "refCode",
                  "type": "bytes32"
                }
              ],
              "internalType": "struct Order.Props",
              "name": "_order",
              "type": "tuple"
            },
            {
              "internalType": "uint256[]",
              "name": "inputs",
              "type": "uint256[]"
            }
          ],
          "internalType": "struct MarketDataTypes.UpdateOrderInputs",
          "name": "_event",
          "type": "tuple"
        }
      ],
      "name": "updateOrderCallback",
      "outputs": [],
      "stateMutability": "nonpayable",
      "type": "function"
    },
    {
      "inputs": [
        {
          "internalType": "address",
          "name": "newA",
          "type": "address"
        }
      ],
      "name": "updatePositionBook",
      "outputs": [],
      "stateMutability": "nonpayable",
      "type": "function"
    },
    {
      "inputs": [
        {
          "components": [
            {
              "components": [
                {
                  "internalType": "address",
                  "name": "_market",
                  "type": "address"
                },
                {
                  "internalType": "bool",
                  "name": "_isLong",
                  "type": "bool"
                },
                {
                  "internalType": "uint256",
                  "name": "_oraclePrice",
                  "type": "uint256"
                },
                {
                  "internalType": "bool",
                  "name": "isOpen",
                  "type": "bool"
                },
                {
                  "internalType": "address",
                  "name": "_account",
                  "type": "address"
                },
                {
                  "internalType": "uint256",
                  "name": "_sizeDelta",
                  "type": "uint256"
                },
                {
                  "internalType": "uint256",
                  "name": "_price",
                  "type": "uint256"
                },
                {
                  "internalType": "uint256",
                  "name": "_slippage",
                  "type": "uint256"
                },
                {
                  "internalType": "bool",
                  "name": "_isExec",
                  "type": "bool"
                },
                {
                  "internalType": "uint8",
                  "name": "liqState",
                  "type": "uint8"
                },
                {
                  "internalType": "uint64",
                  "name": "_fromOrder",
                  "type": "uint64"
                },
                {
                  "internalType": "bytes32",
                  "name": "_refCode",
                  "type": "bytes32"
                },
                {
                  "internalType": "uint256",
                  "name": "collateralDelta",
                  "type": "uint256"
                },
                {
                  "internalType": "uint8",
                  "name": "execNum",
                  "type": "uint8"
                },
                {
                  "internalType": "uint256[]",
                  "name": "inputs",
                  "type": "uint256[]"
                }
              ],
              "internalType": "struct MarketDataTypes.UpdatePositionInputs",
              "name": "inputs",
              "type": "tuple"
            },
            {
              "components": [
                {
                  "internalType": "address",
                  "name": "market",
                  "type": "address"
                },
                {
                  "internalType": "bool",
                  "name": "isLong",
                  "type": "bool"
                },
                {
                  "internalType": "uint32",
                  "name": "lastTime",
                  "type": "uint32"
                },
                {
                  "internalType": "uint216",
                  "name": "extra3",
                  "type": "uint216"
                },
                {
                  "internalType": "uint256",
                  "name": "size",
                  "type": "uint256"
                },
                {
                  "internalType": "uint256",
                  "name": "collateral",
                  "type": "uint256"
                },
                {
                  "internalType": "uint256",
                  "name": "averagePrice",
                  "type": "uint256"
                },
                {
                  "internalType": "int256",
                  "name": "entryFundingRate",
                  "type": "int256"
                },
                {
                  "internalType": "int256",
                  "name": "realisedPnl",
                  "type": "int256"
                },
                {
                  "internalType": "uint256",
                  "name": "extra0",
                  "type": "uint256"
                },
                {
                  "internalType": "uint256",
                  "name": "extra1",
                  "type": "uint256"
                },
                {
                  "internalType": "uint256",
                  "name": "extra2",
                  "type": "uint256"
                }
              ],
              "internalType": "struct Position.Props",
              "name": "position",
              "type": "tuple"
            },
            {
              "internalType": "int256[]",
              "name": "fees",
              "type": "int256[]"
            },
            {
              "internalType": "address",
              "name": "collateralToken",
              "type": "address"
            },
            {
              "internalType": "address",
              "name": "indexToken",
              "type": "address"
            },
            {
              "internalType": "int256",
              "name": "collateralDeltaAfter",
              "type": "int256"
            }
          ],
          "internalType": "struct MarketPositionCallBackIntl.UpdatePositionEvent",
          "name": "_event",
          "type": "tuple"
        }
      ],
      "name": "updatePositionCallback",
      "outputs": [],
      "stateMutability": "nonpayable",
      "type": "function"
    },
    {
      "inputs": [
        {
          "components": [
            {
              "internalType": "address",
              "name": "_market",
              "type": "address"
            },
            {
              "internalType": "bool",
              "name": "_isLong",
              "type": "bool"
            },
            {
              "internalType": "uint256",
              "name": "_oraclePrice",
              "type": "uint256"
            },
            {
              "internalType": "bool",
              "name": "isOpen",
              "type": "bool"
            },
            {
              "internalType": "address",
              "name": "_account",
              "type": "address"
            },
            {
              "internalType": "uint256",
              "name": "_sizeDelta",
              "type": "uint256"
            },
            {
              "internalType": "uint256",
              "name": "_price",
              "type": "uint256"
            },
            {
              "internalType": "uint256",
              "name": "_slippage",
              "type": "uint256"
            },
            {
              "internalType": "bool",
              "name": "_isExec",
              "type": "bool"
            },
            {
              "internalType": "uint8",
              "name": "liqState",
              "type": "uint8"
            },
            {
              "internalType": "uint64",
              "name": "_fromOrder",
              "type": "uint64"
            },
            {
              "internalType": "bytes32",
              "name": "_refCode",
              "type": "bytes32"
            },
            {
              "internalType": "uint256",
              "name": "collateralDelta",
              "type": "uint256"
            },
            {
              "internalType": "uint8",
              "name": "execNum",
              "type": "uint8"
            },
            {
              "internalType": "uint256[]",
              "name": "inputs",
              "type": "uint256[]"
            }
          ],
          "internalType": "struct MarketDataTypes.UpdatePositionInputs",
          "name": "_inputs",
          "type": "tuple"
        }
      ],
      "name": "validateIncreasePosition",
      "outputs": [],
      "stateMutability": "view",
      "type": "function"
    },
    {
      "inputs": [],
      "name": "vaultRouter",
      "outputs": [
        {
          "internalType": "address",
          "name": "",
          "type": "address"
        }
      ],
      "stateMutability": "view",
      "type": "function"
    }
  ],
  "bytecode": "0x608060405234801561001057600080fd5b506001600255613b0a806100256000396000f3fe608060405234801561001057600080fd5b50600436106101cf5760003560e01c80638b4400f211610104578063cd6ebf66116100a2578063db91323611610071578063db91323614610420578063de1f443014610433578063ec2c901614610446578063f2fde38b146103fc57600080fd5b8063cd6ebf66146103e9578063d29d44ee146103fc578063d37c441c1461040d578063d547741f1461024757600080fd5b8063abed9618116100de578063abed96181461039d578063b038beb8146103b0578063c0c53b8b146103c3578063cce9a2f3146103d657600080fd5b80638b4400f21461035757806391d1485414610382578063a217fddf1461039557600080fd5b806340a542fe11610171578063612c39b71161014b578063612c39b7146102cf578063718cb58a1461032357806375829def146103365780637fe4a6981461034957600080fd5b806340a542fe1461027d5780634463b5bc14610290578063544781af146102bc57600080fd5b80632073b0ce116101ad5780632073b0ce1461021e5780632ca6d2c0146102345780632f2ff15d14610247578063332013a71461025957600080fd5b80630799f55f146101d45780630d918caa146101f65780631cfe58281461020b575b600080fd5b6101dc61045b565b604080519283526020830191909152015b60405180910390f35b610209610204366004612a01565b61051e565b005b610209610219366004612a01565b6106c2565b6102266109e8565b6040519081526020016101ed565b6101dc610242366004612a35565b610a98565b610209610255366004612a52565b5050565b60095461026d90600160a01b900460ff1681565b60405190151581526020016101ed565b61020961028b366004612b66565b610b67565b61020961029e366004612c3a565b60098054911515600160a01b0260ff60a01b19909216919091179055565b6102096102ca366004612cbb565b610cbc565b604080516060808201835260008083526020808401829052928401528251808201845260018082528184018181529185018181528551918252915115159381019390935251151592820192909252016101ed565b610209610331366004612f5b565b6110b8565b610209610344366004612a35565b61118c565b6102096101cf366004612a35565b60085461036a906001600160a01b031681565b6040516001600160a01b0390911681526020016101ed565b61026d610390366004612a52565b611197565b610226600081565b6102096103ab366004612a01565b6111a0565b6102096103be36600461301e565b61126e565b6102096103d13660046130ec565b61127f565b6102096103e436600461301e565b6113d2565b6102096103f7366004612a35565b61154a565b61020961040a366004612a35565b50565b60095461036a906001600160a01b031681565b61020961042e366004612a35565b6116cd565b610209610441366004613137565b611795565b61044e6118ed565b6040516101ed9190613165565b60008060005b61046b60046118fe565b51811015610519576000610480600483611912565b9050600080826001600160a01b0316638749694a6040518163ffffffff1660e01b81526004016040805180830381865afa1580156104c2573d6000803e3d6000fd5b505050506040513d601f19601f820116820180604052508101906104e691906131b2565b90925090506104f582876131ec565b955061050181866131ec565b94505050508080610511906131ff565b915050610461565b509091565b61052661191e565b600954600160a01b900460ff168015610543575060008160a00151115b156105565761055181611975565b6106b8565b805161056490600690611adf565b6105ac5760405162461bcd60e51b815260206004820152601460248201527313585c9ad95d149bdd5d195c8e885b585c9ad95d60621b60448201526064015b60405180910390fd5b6000816000015190506000816001600160a01b031663b2016bd46040518163ffffffff1660e01b8152600401602060405180830381865afa1580156105f5573d6000803e3d6000fd5b505050506040513d601f19601f820116820180604052508101906106199190613218565b905061064533846000015161063384876101800151611b01565b6001600160a01b038516929190611b7a565b336080840152610654836106c2565b8251604051631def7c1d60e11b81526001600160a01b0390911690633bdef83a90610683908690600401613270565b600060405180830381600087803b15801561069d57600080fd5b505af11580156106b1573d6000803e3d6000fd5b5050505050505b61040a6001600255565b80516001600160a01b03908116600090815260036020908152604080832054815161014081018352848152808401858152928101858152606082018690526080820186905260a080830187905260c0830187905260e083018790526101008301879052610120830196909652875187168252948701519092529185015115159092529091169061075061045b565b608080840191909152606083019190915283015161076d90610a98565b60c083015260a0820152604080516343a4b4a560e11b815281516001600160a01b03851692638749694a92600480820193918290030181865afa1580156107b8573d6000803e3d6000fd5b505050506040513d601f19601f820116820180604052508101906107dc91906131b2565b61010083015260e0820152825160408051632c805af560e21b815290516000926001600160a01b03169163b2016bd49160048083019260209291908290030181865afa158015610830573d6000803e3d6000fd5b505050506040513d601f19601f820116820180604052508101906108549190613218565b9050610937600960009054906101000a90046001600160a01b03166001600160a01b0316636dc7b0a16040518163ffffffff1660e01b8152600401602060405180830381865afa1580156108ac573d6000803e3d6000fd5b505050506040513d601f19601f820116820180604052508101906108d09190613387565b826001600160a01b031663313ce5676040518163ffffffff1660e01b8152600401602060405180830381865afa15801561090e573d6000803e3d6000fd5b505050506040513d601f19601f8201168201806040525081019061093291906133a0565b611bd4565b61012083015260085460405163028c7b5160e41b81526001600160a01b03909116906328c7b5109061096d9085906004016133bd565b602060405180830381865afa15801561098a573d6000803e3d6000fd5b505050506040513d601f19601f820116820180604052508101906109ae919061343d565b6109e25760405162461bcd60e51b815260206004820152600560248201526436b91d33bb60d91b60448201526064016105a3565b50505050565b6000805b6109f660066118fe565b51811015610a94576000610a0b600683611912565b90506000816001600160a01b03166393a98e6c6040518163ffffffff1660e01b8152600401602060405180830381865afa158015610a4d573d6000803e3d6000fd5b505050506040513d601f19601f82011682018060405250810190610a719190613387565b9050610a7d818561345a565b935050508080610a8c906131ff565b9150506109ec565b5090565b60008060005b610aa860046118fe565b51811015610b61576000610abd600483611912565b60405162b29b4b60e61b81526001600160a01b038781166004830152919250600091829190841690632ca6d2c0906024016040805180830381865afa158015610b0a573d6000803e3d6000fd5b505050506040513d601f19601f82011682018060405250810190610b2e91906131b2565b9092509050610b3d82876131ec565b9550610b4981866131ec565b94505050508080610b59906131ff565b915050610a9e565b50915091565b8051516001600160a01b03163314610b915760405162461bcd60e51b81526004016105a390613482565b610b9c600633611adf565b610bb85760405162461bcd60e51b81526004016105a3906134aa565b80516060015160019015610be357815160a00151600003610bdb57506002610c26565b506000610c26565b8151610120015160ff16600103610bfc57506004610c26565b8151610120015160ff16600203610c1557506005610c26565b815160a00151600003610c26575060035b815160808082015161018083015160a08087015190850151602080870151604080890151928b01516101000151818c01518a5160608e01519a8e0151610140909c015193516001600160a01b03909a169b7fd0abfef5eb2cd61e6fd56ea2b69e9867bc90e8589023c554bdade2287b28c9399b610cb09b96979694959394929390928f91906134d2565b60405180910390a25050565b610cc461191e565b82518451148015610cd6575081518351145b8015610ce3575080518251145b610d2f5760405162461bcd60e51b815260206004820152601a60248201527f4172726179206c656e6774687320646f206e6f74206d6174636800000000000060448201526064016105a3565b604080516001808252818301909252600091602080830190803683375050604080516001808252818301909252929350600092915060208083019080368337505060408051600180825281830190925292935060009291506020808301908036833701905050905060005b87518110156110aa57610dd0888281518110610db857610db8613597565b60200260200101516006611adf90919063ffffffff16565b610dec5760405162461bcd60e51b81526004016105a3906134aa565b6000610df98260016131ec565b90505b8851811015610f6257888181518110610e1757610e17613597565b60200260200101516001600160a01b0316898381518110610e3a57610e3a613597565b60200260200101516001600160a01b0316148015610e8d5750878181518110610e6557610e65613597565b60200260200101511515888381518110610e8157610e81613597565b60200260200101511515145b8015610eca5750868181518110610ea657610ea6613597565b6020026020010151878381518110610ec057610ec0613597565b6020026020010151145b8015610f0b5750858181518110610ee357610ee3613597565b60200260200101511515868381518110610eff57610eff613597565b60200260200101511515145b15610f505760405162461bcd60e51b8152602060048201526015602482015274111d5c1b1a58d85d19481bdc99195c88199bdd5b99605a1b60448201526064016105a3565b80610f5a816131ff565b915050610dfc565b50868181518110610f7557610f75613597565b602002602001015184600081518110610f9057610f90613597565b602002602001019015159081151581525050858181518110610fb457610fb4613597565b602002602001015183600081518110610fcf57610fcf613597565b602002602001018181525050848181518110610fed57610fed613597565b60200260200101518260008151811061100857611008613597565b60200260200101901515908115158152505087818151811061102c5761102c613597565b60200260200101516001600160a01b031663301f6fe9338686866040518563ffffffff1660e01b815260040161106594939291906135df565b600060405180830381600087803b15801561107f57600080fd5b505af1158015611093573d6000803e3d6000fd5b5050505080806110a2906131ff565b915050610d9a565b505050506109e26001600255565b6020810151516001600160a01b031633146110e55760405162461bcd60e51b81526004016105a390613482565b6110f0600633611adf565b61110c5760405162461bcd60e51b81526004016105a3906134aa565b80516060808201516020808501519081015181840151610120909501518251604080890151968901519481015160808a015191516001600160a01b03909716987f083f7516dcfe13a8bef8bcbbe89648ce92bfd7161733f88ba43e1049de6af1b4986111819896979196909391929190613679565b60405180910390a250565b600061025560003382565b60015b92915050565b6111a861191e565b600954600160a01b900460ff1680156111c5575060008160a00151115b156111d35761055181611975565b80516111e190600690611adf565b6111fd5760405162461bcd60e51b81526004016105a3906134aa565b336080820152805160405163157db2c360e31b81526001600160a01b039091169063abed961890611232908490600401613270565b600060405180830381600087803b15801561124c57600080fd5b505af1158015611260573d6000803e3d6000fd5b5050505061040a6001600255565b61127661191e565b6106b881611c01565b600054610100900460ff161580801561129f5750600054600160ff909116105b806112b95750303b1580156112b9575060005460ff166001145b61131c5760405162461bcd60e51b815260206004820152602e60248201527f496e697469616c697a61626c653a20636f6e747261637420697320616c72656160448201526d191e481a5b9a5d1a585b1a5e995960921b60648201526084016105a3565b6000805460ff19166001179055801561133f576000805461ff0019166101001790555b61134884611d9b565b600880546001600160a01b038086166001600160a01b031990921691909117909155600980546001600160a81b03191691841691909117600160a01b17905580156109e2576000805461ff0019169055604051600181527f7f26b83ff96e1f2b6a682f133852f6798a09c465da95921460cefb38474024989060200160405180910390a150505050565b80516001600160a01b031633146113fb5760405162461bcd60e51b81526004016105a390613482565b611406600633611adf565b6114225760405162461bcd60e51b81526004016105a3906134aa565b60a080820151606080820151602085015191850151610120840151865160c08601519686015160e08701516001600160a01b03909516977fc1a292b7363ad930d02501a9224823f3fc6d6433978aa670da66b24004eaac7197949593949293909261148c90611da2565b8a6060015161149c5760006114b0565b60a08b015161010001516001600160801b03165b8b606001516114c05760006114d4565b60a08c015161016001516001600160801b03165b8c606001516114f55760a08d015161016001516001600160801b03166114f8565b60005b8d606001516115195760a08e01516080015165ffffffffffff161515611530565b60008e60a0015161014001516001600160401b0316115b8e6040516111819d9c9b9a9998979695949392919061384d565b7f8d1089725c0dc266707fa6207730fb801dcd03108bfed7a21099bd303651d2b76001600160a01b03821661157e57600080fd5b3361158a600682611adf565b6115a65760405162461bcd60e51b81526004016105a3906134aa565b611613816001600160a01b031663ac0b05a66040518163ffffffff1660e01b8152600401602060405180830381865afa1580156115e7573d6000803e3d6000fd5b505050506040513d601f19601f8201168201806040525081019061160b9190613218565b600490611e2b565b506000816001600160a01b031663ac0b05a66040518163ffffffff1660e01b8152600401602060405180830381865afa158015611654573d6000803e3d6000fd5b505050506040513d601f19601f820116820180604052508101906116789190613218565b9050611685600482611e2b565b50611691600485611e40565b61169a57600080fd5b506001600160a01b0390811660009081526003602052604090208054919093166001600160a01b03199091161790915550565b7f8d1089725c0dc266707fa6207730fb801dcd03108bfed7a21099bd303651d2b76000826001600160a01b031663ac0b05a66040518163ffffffff1660e01b8152600401602060405180830381865afa15801561172e573d6000803e3d6000fd5b505050506040513d601f19601f820116820180604052508101906117529190613218565b905061175f600684611e2b565b5061176b600482611e2b565b5050506001600160a01b0316600090815260036020526040902080546001600160a01b0319169055565b7f8d1089725c0dc266707fa6207730fb801dcd03108bfed7a21099bd303651d2b760006117c28133611197565b9050801561181a5762093a80600154426117dc9190613907565b1061181a5760405162461bcd60e51b815260206004820152600e60248201526d1858c81d1a5b59481c185cdcd95960921b60448201526064016105a3565b6001600160a01b03841661182d57600080fd5b6000846001600160a01b031663ac0b05a66040518163ffffffff1660e01b8152600401602060405180830381865afa15801561186d573d6000803e3d6000fd5b505050506040513d601f19601f820116820180604052508101906118919190613218565b905061189e600686611e40565b6118a757600080fd5b6118b2600482611e40565b6118bb57600080fd5b6001600160a01b03948516600090815260036020526040902080546001600160a01b0319169190951617909355505050565b60606118f960066118fe565b905090565b6060600061190b83611e55565b9392505050565b600061190b8383611eb1565b600280540361196f5760405162461bcd60e51b815260206004820152601f60248201527f5265656e7472616e637947756172643a207265656e7472616e742063616c6c0060448201526064016105a3565b60028055565b61197d61262a565b606082015161198d908290611edb565b611998816001611f08565b60e08201516119a8908290611f41565b81516001600160a01b03168152602080830151151590820152600160808201526119d061266e565b606083015115156000036119f6576119f16119ea84611f59565b8290611f96565b611a53565b610180830151611a07908390611fb4565b611a1a611a1384611fcc565b829061200a565b611a2d611a2684612029565b8290612059565b611a40611a3984612078565b82906120b0565b611a53611a4c846120e4565b829061211c565b611a61836101800151612157565b6001600160801b031660a08083019190915260808401516001600160a01b03166060830152830151611a9290612157565b6001600160801b031660c080830191909152830151611ab090612157565b6001600160801b031660e082015261016083015161018082015260a08201819052611ada82611c01565b505050565b6001600160a01b0381166000908152600183016020526040812054151561190b565b600080836001600160a01b031663313ce5676040518163ffffffff1660e01b8152600401602060405180830381865afa158015611b42573d6000803e3d6000fd5b505050506040513d601f19601f82011682018060405250810190611b6691906133a0565b9050611b7283826121c0565b949350505050565b604080516001600160a01b0385811660248301528416604482015260648082018490528251808303909101815260849091019091526020810180516001600160e01b03166323b872dd60e01b1790526109e29085906121dc565b6000611be182600a6139fe565b611bed6012600a613a0d565b611bf79085613a19565b61190b9190613a46565b8051611c0f90600690611adf565b611c2b5760405162461bcd60e51b81526004016105a3906134aa565b611c34816122ae565b611c715760405162461bcd60e51b815260206004820152600e60248201526d696e76616c696420706172616d7360901b60448201526064016105a3565b60a081015133606091820152810151611c9990611c8d8361232c565b60a08401519190612358565b80606001518015611cab575080608001515b15611d3757600081600001516001600160a01b031663b2016bd46040518163ffffffff1660e01b8152600401602060405180830381865afa158015611cf4573d6000803e3d6000fd5b505050506040513d601f19601f82011682018060405250810190611d189190613218565b9050611d3533836000015161063384611d3087612397565b611b01565b505b805160405163160717d760e31b81526001600160a01b039091169063b038beb890611d66908490600401613a5a565b600060405180830381600087803b158015611d8057600080fd5b505af1158015611d94573d6000803e3d6000fd5b5050505050565b4260015550565b6000816040015160ff16600003611dfb5760405162461bcd60e51b815260206004820152601b60248201527f696e76616c6964206f7264657220747269676765722061626f7665000000000060448201526064016105a3565b60028260400151611e0c9190613a6d565b60ff16600103611e1e57506001919050565b506000919050565b919050565b600061190b836001600160a01b0384166123c5565b600061190b836001600160a01b0384166124b8565b606081600001805480602002602001604051908101604052809291908181526020018280548015611ea557602002820191906000526020600020905b815481526020019060010190808311611e91575b50505050509050919050565b6000826000018281548110611ec857611ec8613597565b9060005260206000200154905092915050565b60408051600380825260808201909252906020820160608036833750505060c08301521515606090910152565b80611f14576000611f17565b60015b60ff168260c00151600181518110611f3157611f31613597565b6020026020010181815250505050565b808260c00151600281518110611f3157611f31613597565b60006001826101c00151511015801561119a57506000826101c00151600081518110611f8757611f87613597565b60200260200101511192915050565b80611fa2576000611fa5565b60015b60ff1660809092019190915250565b808260c00151600081518110611f3157611f31613597565b60006001826101c00151511015611fe457600061119a565b816101c00151600081518110611ffc57611ffc613597565b602002602001015192915050565b61201381612157565b6001600160801b03166101009092019190915250565b60006002826101c0015151101561204157600061119a565b816101c00151600181518110611ffc57611ffc613597565b61206281612157565b6001600160801b03166101609092019190915250565b6000612086600260016131ec565b826101c00151511015801561119a57506000826101c00151600281518110611f8757611f87613597565b6000816120be5760006120c1565b60015b610140909301805167fffffffffffffff01660ff94909416939093179092525050565b60006120f2600360016131ec565b826101c00151511015801561119a57506000826101c00151600381518110611f8757611f87613597565b60008161212a57600061212d565b60015b610140909301805167ffffffffffffff0f16610ff060049590951b94909416939093179092525050565b60006001600160801b03821115610a945760405162461bcd60e51b815260206004820152602760248201527f53616665436173743a2076616c756520646f65736e27742066697420696e20316044820152663238206269747360c81b60648201526084016105a3565b60006121ce6012600a6139fe565b611bed60ff8416600a613a0d565b6000612231826040518060400160405280602081526020017f5361666545524332303a206c6f772d6c6576656c2063616c6c206661696c6564815250856001600160a01b03166125079092919063ffffffff16565b805190915015611ada578080602001905181019061224f919061343d565b611ada5760405162461bcd60e51b815260206004820152602a60248201527f5361666545524332303a204552433230206f7065726174696f6e20646964206e6044820152691bdd081cdd58d8d9595960b21b60648201526084016105a3565b6040810151600090156122c357506000919050565b60608201511515600003612324578160800151156123245760006122f68360a0015161016001516001600160801b031690565b111561230457506000919050565b60a082015161014001516001600160401b03161561232457506000919050565b506001919050565b600060028260c00151511015801561119a575060008260c00151600181518110611f8757611f87613597565b811561237a578061236a57600061236d565b60015b60ff166080840152505050565b80612386576000612389565b60015b60ff16610100840152505050565b600060018260c001515110156123ae57600061119a565b8160c00151600081518110611ffc57611ffc613597565b600081815260018301602052604081205480156124ae5760006123e9600183613907565b85549091506000906123fd90600190613907565b905081811461246257600086600001828154811061241d5761241d613597565b906000526020600020015490508087600001848154811061244057612440613597565b6000918252602080832090910192909255918252600188019052604090208390555b855486908061247357612473613a8f565b60019003818190600052602060002001600090559055856001016000868152602001908152602001600020600090556001935050505061119a565b600091505061119a565b60008181526001830160205260408120546124ff5750815460018181018455600084815260208082209093018490558454848252828601909352604090209190915561119a565b50600061119a565b6060611b72848460008585600080866001600160a01b0316858760405161252e9190613aa5565b60006040518083038185875af1925050503d806000811461256b576040519150601f19603f3d011682016040523d82523d6000602084013e612570565b606091505b50915091506125818783838761258c565b979650505050505050565b606083156125fb5782516000036125f4576001600160a01b0385163b6125f45760405162461bcd60e51b815260206004820152601d60248201527f416464726573733a2063616c6c20746f206e6f6e2d636f6e747261637400000060448201526064016105a3565b5081611b72565b611b7283838151156126105781518083602001fd5b8060405162461bcd60e51b81526004016105a39190613ac1565b6040805160e08101825260008082526020820181905291810182905260608101829052608081019190915260a0810161266161266e565b8152602001606081525090565b604080516101a081018252600080825260208201819052918101829052606081018290526080810182905260a0810182905260c0810182905260e08101829052610100810182905261012081018290526101408101829052610160810182905261018081019190915290565b634e487b7160e01b600052604160045260246000fd5b6040516101e081016001600160401b0381118282101715612713576127136126da565b60405290565b60405161018081016001600160401b0381118282101715612713576127136126da565b60405160c081016001600160401b0381118282101715612713576127136126da565b6040516101a081016001600160401b0381118282101715612713576127136126da565b60405160a081016001600160401b0381118282101715612713576127136126da565b60405160e081016001600160401b0381118282101715612713576127136126da565b604051601f8201601f191681016001600160401b03811182821017156127ed576127ed6126da565b604052919050565b6001600160a01b038116811461040a57600080fd5b8035611e26816127f5565b801515811461040a57600080fd5b8035611e2681612815565b60ff8116811461040a57600080fd5b8035611e268161282e565b80356001600160401b0381168114611e2657600080fd5b60006001600160401b03821115612878576128786126da565b5060051b60200190565b600082601f83011261289357600080fd5b813560206128a86128a38361285f565b6127c5565b82815260059290921b840181019181810190868411156128c757600080fd5b8286015b848110156128e257803583529183019183016128cb565b509695505050505050565b60006101e0828403121561290057600080fd5b6129086126f0565b90506129138261280a565b815261292160208301612823565b60208201526040820135604082015261293c60608301612823565b606082015261294d6080830161280a565b608082015260a082013560a082015260c082013560c082015260e082013560e082015261010061297e818401612823565b9082015261012061299083820161283d565b908201526101406129a2838201612848565b90820152610160828101359082015261018080830135908201526101a06129ca81840161283d565b908201526101c0828101356001600160401b038111156129e957600080fd5b6129f585828601612882565b82840152505092915050565b600060208284031215612a1357600080fd5b81356001600160401b03811115612a2957600080fd5b611b72848285016128ed565b600060208284031215612a4757600080fd5b813561190b816127f5565b60008060408385031215612a6557600080fd5b823591506020830135612a77816127f5565b809150509250929050565b803563ffffffff81168114611e2657600080fd5b80356001600160d81b0381168114611e2657600080fd5b60006101808284031215612ac057600080fd5b612ac8612719565b9050612ad38261280a565b8152612ae160208301612823565b6020820152612af260408301612a82565b6040820152612b0360608301612a96565b60608201526080820135608082015260a082013560a082015260c082013560c082015260e082013560e082015261010080830135818301525061012080830135818301525061014080830135818301525061016080830135818301525092915050565b600060208284031215612b7857600080fd5b81356001600160401b0380821115612b8f57600080fd5b908301906102208286031215612ba457600080fd5b612bac61273c565b823582811115612bbb57600080fd5b612bc7878286016128ed565b825250612bd78660208501612aad565b60208201526101a083013582811115612bef57600080fd5b612bfb87828601612882565b604083015250612c0e6101c0840161280a565b6060820152612c206101e0840161280a565b6080820152610200929092013560a0830152509392505050565b600060208284031215612c4c57600080fd5b813561190b81612815565b600082601f830112612c6857600080fd5b81356020612c786128a38361285f565b82815260059290921b84018101918181019086841115612c9757600080fd5b8286015b848110156128e2578035612cae81612815565b8352918301918301612c9b565b60008060008060808587031215612cd157600080fd5b84356001600160401b0380821115612ce857600080fd5b818701915087601f830112612cfc57600080fd5b81356020612d0c6128a38361285f565b82815260059290921b8401810191818101908b841115612d2b57600080fd5b948201945b83861015612d52578535612d43816127f5565b82529482019490820190612d30565b98505088013592505080821115612d6857600080fd5b612d7488838901612c57565b94506040870135915080821115612d8a57600080fd5b612d9688838901612882565b93506060870135915080821115612dac57600080fd5b50612db987828801612c57565b91505092959194509250565b803565ffffffffffff81168114611e2657600080fd5b80356001600160801b0381168114611e2657600080fd5b60006101a08284031215612e0557600080fd5b612e0d61275e565b9050612e188261283d565b8152612e2660208301612a82565b6020820152612e376040830161283d565b6040820152612e486060830161280a565b6060820152612e5960808301612dc5565b6080820152612e6a60a08301612ddb565b60a0820152612e7b60c08301612ddb565b60c0820152612e8c60e08301612ddb565b60e0820152610100612e9f818401612ddb565b90820152610120612eb1838201612848565b90820152610140612ec3838201612848565b90820152610160612ed5838201612ddb565b818301525061018080830135818301525092915050565b600082601f830112612efd57600080fd5b81356001600160401b03811115612f1657612f166126da565b612f29601f8201601f19166020016127c5565b818152846020838601011115612f3e57600080fd5b816020850160208301376000918101602001919091529392505050565b600060208284031215612f6d57600080fd5b81356001600160401b0380821115612f8457600080fd5b908301906102208286031215612f9957600080fd5b612fa1612781565b612fab8684612df2565b81526101a083013582811115612fc057600080fd5b612fcc878286016128ed565b602083015250612fdf6101c0840161283d565b60408201526101e083013582811115612ff757600080fd5b61300387828601612eec565b60608301525061020092909201356080830152509392505050565b60006020828403121561303057600080fd5b81356001600160401b038082111561304757600080fd5b90830190610260828603121561305c57600080fd5b6130646127a3565b61306d8361280a565b815261307b60208401612823565b60208201526040830135604082015261309660608401612823565b60608201526130a760808401612823565b60808201526130b98660a08501612df2565b60a0820152610240830135828111156130d157600080fd5b6130dd87828601612882565b60c08301525095945050505050565b60008060006060848603121561310157600080fd5b833561310c816127f5565b9250602084013561311c816127f5565b9150604084013561312c816127f5565b809150509250925092565b6000806040838503121561314a57600080fd5b8235613155816127f5565b91506020830135612a77816127f5565b6020808252825182820181905260009190848201906040850190845b818110156131a65783516001600160a01b031683529284019291840191600101613181565b50909695505050505050565b600080604083850312156131c557600080fd5b505080516020909101519092909150565b634e487b7160e01b600052601160045260246000fd5b8082018082111561119a5761119a6131d6565b600060018201613211576132116131d6565b5060010190565b60006020828403121561322a57600080fd5b815161190b816127f5565b600081518084526020808501945080840160005b8381101561326557815187529582019590820190600101613249565b509495945050505050565b6020815261328a6020820183516001600160a01b03169052565b6000602083015161329f604084018215159052565b506040830151606083015260608301516132bd608084018215159052565b5060808301516001600160a01b03811660a08401525060a083015160c083015260c083015160e083015260e083015161010081818501528085015191505061012061330b8185018315159052565b84015190506101406133218482018360ff169052565b840151905061016061333d848201836001600160401b03169052565b840151610180848101919091528401516101a08085019190915284015190506101c061336d8185018360ff169052565b8401516101e0848101529050611b72610200840182613235565b60006020828403121561339957600080fd5b5051919050565b6000602082840312156133b257600080fd5b815161190b8161282e565b81516001600160a01b0316815261014081016020830151602083015260408301516133ec604084018215159052565b50606083015160608301526080830151608083015260a083015160a083015260c083015160c083015260e083015160e083015261010080840151818401525061012080840151818401525092915050565b60006020828403121561344f57600080fd5b815161190b81612815565b808201828112600083128015821682158216171561347a5761347a6131d6565b505092915050565b6020808252600e908201526d34b73b30b634b21039b2b73232b960911b604082015260600190565b6020808252600e908201526d1a5b9d985b1a59081b585c9ad95d60921b604082015260600190565b60006101808083018f845260208f818601528e60408601528d151560608601528c60808601528b60a08601528260c08601528192508a518083526101a086019350818c01925060005b818110156135375783518552938201939282019260010161351b565b5050506001600160a01b03891660e08501525090506001600160a01b0386166101008301526001600160a01b03851661012083015260ff84166101408301526001600160401b0383166101608301529d9c50505050505050505050505050565b634e487b7160e01b600052603260045260246000fd5b600081518084526020808501945080840160005b838110156132655781511515875295820195908201906001016135c1565b6001600160a01b0385168152608060208201819052600090613603908301866135ad565b82810360408401526136158186613235565b9050828103606084015261258181856135ad565b60005b8381101561364457818101518382015260200161362c565b50506000910152565b60008151808452613665816020860160208601613629565b601f01601f19169290920160200192915050565b881515815287151560208201526001600160401b03871660408201526001600160a01b038616606082015260ff8516608082015261010060a082018190526000906136c68382018761364d565b60c0840195909552505060e001529695505050505050565b600061026060018060a01b0383511684526020830151151560208501526040830151604085015260608301511515606085015260808301511515608085015260a083015161373260a08601825160ff169052565b602081015163ffffffff1660c0860152604081015160ff1660e086015260608101516001600160a01b03811661010080880191909152608083015191506101206137858189018465ffffffffffff169052565b60a084015192506101406137a3818a01856001600160801b03169052565b60c085015193506101606137c1818b01866001600160801b03169052565b60e086015194506101806137df818c01876001600160801b03169052565b938601516001600160801b039081166101a08c0152928601516001600160401b039081166101c08c0152918601519091166101e08a015284015116610200880152909101516102208601525060c0830151610240850182905261384482860182613235565b95945050505050565b8d151581528c151560208201526001600160401b038c1660408201526001600160a01b038b16606082015260006101a06001600160801b038c1660808401526001600160801b038b1660a08401526001600160801b038a1660c084015288151560e084015287610100840152866101208401526138d66101408401876001600160801b03169052565b841515610160840152806101808401526138f2818401856136de565b9150509e9d5050505050505050505050505050565b8181038181111561119a5761119a6131d6565b600181815b8085111561395557816000190482111561393b5761393b6131d6565b8085161561394857918102915b93841c939080029061391f565b509250929050565b60008261396c5750600161119a565b816139795750600061119a565b816001811461398f5760028114613999576139b5565b600191505061119a565b60ff8411156139aa576139aa6131d6565b50506001821b61119a565b5060208310610133831016604e8410600b84101617156139d8575081810a61119a565b6139e2838361391a565b80600019048211156139f6576139f66131d6565b029392505050565b600061190b60ff84168361395d565b600061190b838361395d565b808202811582820484141761119a5761119a6131d6565b634e487b7160e01b600052601260045260246000fd5b600082613a5557613a55613a30565b500490565b60208152600061190b60208301846136de565b600060ff831680613a8057613a80613a30565b8060ff84160691505092915050565b634e487b7160e01b600052603160045260246000fd5b60008251613ab7818460208701613629565b9190910192915050565b60208152600061190b602083018461364d56fea26469706673582212206d083b22359e45ae1ffa3f470bf5a3a3fedf7e40e5f4b1e39e59701d0aee2a7a64736f6c63430008110033",
  "linkReferences": {},
  "deployedLinkReferences": {}
}