{
  "_format": "hh-sol-artifact-1",
  "contractName": "MarketRouter",
  "sourceName": "contracts/market/MarketRouter.sol",
  "abi": [
    {
      "anonymous": false,
      "inputs": [
        {
          "indexed": true,
          "internalType": "address",
          "name": "account",
          "type": "address"
        },
        {
          "indexed": false,
          "internalType": "bool",
          "name": "isLong",
          "type": "bool"
        },
        {
          "indexed": false,
          "internalType": "bool",
          "name": "isIncrease",
          "type": "bool"
        },
        {
          "indexed": false,
          "internalType": "uint256",
          "name": "orderID",
          "type": "uint256"
        },
        {
          "indexed": false,
          "internalType": "address",
          "name": "market",
          "type": "address"
        },
        {
          "indexed": false,
          "internalType": "uint8",
          "name": "reason",
          "type": "uint8"
        },
        {
          "indexed": false,
          "internalType": "string",
          "name": "reasonStr",
          "type": "string"
        },
        {
          "indexed": false,
          "internalType": "uint256",
          "name": "price",
          "type": "uint256"
        },
        {
          "indexed": false,
          "internalType": "int256",
          "name": "dPNL",
          "type": "int256"
        }
      ],
      "name": "DeleteOrder",
      "type": "event"
    },
    {
      "anonymous": false,
      "inputs": [
        {
          "indexed": false,
          "internalType": "uint8",
          "name": "version",
          "type": "uint8"
        }
      ],
      "name": "Initialized",
      "type": "event"
    },
    {
      "anonymous": false,
      "inputs": [
        {
          "indexed": true,
          "internalType": "address",
          "name": "previousOwner",
          "type": "address"
        },
        {
          "indexed": true,
          "internalType": "address",
          "name": "newOwner",
          "type": "address"
        }
      ],
      "name": "OwnershipTransferred",
      "type": "event"
    },
    {
      "anonymous": false,
      "inputs": [
        {
          "indexed": true,
          "internalType": "bytes32",
          "name": "role",
          "type": "bytes32"
        },
        {
          "indexed": true,
          "internalType": "bytes32",
          "name": "previousAdminRole",
          "type": "bytes32"
        },
        {
          "indexed": true,
          "internalType": "bytes32",
          "name": "newAdminRole",
          "type": "bytes32"
        }
      ],
      "name": "RoleAdminChanged",
      "type": "event"
    },
    {
      "anonymous": false,
      "inputs": [
        {
          "indexed": true,
          "internalType": "bytes32",
          "name": "role",
          "type": "bytes32"
        },
        {
          "indexed": true,
          "internalType": "address",
          "name": "account",
          "type": "address"
        },
        {
          "indexed": true,
          "internalType": "address",
          "name": "sender",
          "type": "address"
        }
      ],
      "name": "RoleGranted",
      "type": "event"
    },
    {
      "anonymous": false,
      "inputs": [
        {
          "indexed": true,
          "internalType": "bytes32",
          "name": "role",
          "type": "bytes32"
        },
        {
          "indexed": true,
          "internalType": "address",
          "name": "account",
          "type": "address"
        },
        {
          "indexed": true,
          "internalType": "address",
          "name": "sender",
          "type": "address"
        }
      ],
      "name": "RoleRevoked",
      "type": "event"
    },
    {
      "anonymous": false,
      "inputs": [
        {
          "indexed": true,
          "internalType": "address",
          "name": "account",
          "type": "address"
        },
        {
          "indexed": false,
          "internalType": "bool",
          "name": "isLong",
          "type": "bool"
        },
        {
          "indexed": false,
          "internalType": "bool",
          "name": "isIncrease",
          "type": "bool"
        },
        {
          "indexed": false,
          "internalType": "uint256",
          "name": "orderID",
          "type": "uint256"
        },
        {
          "indexed": false,
          "internalType": "address",
          "name": "market",
          "type": "address"
        },
        {
          "indexed": false,
          "internalType": "uint256",
          "name": "size",
          "type": "uint256"
        },
        {
          "indexed": false,
          "internalType": "uint256",
          "name": "collateral",
          "type": "uint256"
        },
        {
          "indexed": false,
          "internalType": "uint256",
          "name": "triggerPrice",
          "type": "uint256"
        },
        {
          "indexed": false,
          "internalType": "bool",
          "name": "triggerAbove",
          "type": "bool"
        },
        {
          "indexed": false,
          "internalType": "uint256",
          "name": "tp",
          "type": "uint256"
        },
        {
          "indexed": false,
          "internalType": "uint256",
          "name": "sl",
          "type": "uint256"
        },
        {
          "indexed": false,
          "internalType": "uint128",
          "name": "fromOrder",
          "type": "uint128"
        },
        {
          "indexed": false,
          "internalType": "bool",
          "name": "isKeepLev",
          "type": "bool"
        },
        {
          "components": [
            {
              "internalType": "address",
              "name": "_market",
              "type": "address"
            },
            {
              "internalType": "bool",
              "name": "_isLong",
              "type": "bool"
            },
            {
              "internalType": "uint256",
              "name": "_oraclePrice",
              "type": "uint256"
            },
            {
              "internalType": "bool",
              "name": "isOpen",
              "type": "bool"
            },
            {
              "internalType": "bool",
              "name": "isCreate",
              "type": "bool"
            },
            {
              "components": [
                {
                  "internalType": "uint8",
                  "name": "version",
                  "type": "uint8"
                },
                {
                  "internalType": "uint32",
                  "name": "updatedAtBlock",
                  "type": "uint32"
                },
                {
                  "internalType": "uint8",
                  "name": "triggerAbove",
                  "type": "uint8"
                },
                {
                  "internalType": "address",
                  "name": "account",
                  "type": "address"
                },
                {
                  "internalType": "uint48",
                  "name": "extra3",
                  "type": "uint48"
                },
                {
                  "internalType": "uint128",
                  "name": "collateral",
                  "type": "uint128"
                },
                {
                  "internalType": "uint128",
                  "name": "size",
                  "type": "uint128"
                },
                {
                  "internalType": "uint128",
                  "name": "price",
                  "type": "uint128"
                },
                {
                  "internalType": "uint128",
                  "name": "extra1",
                  "type": "uint128"
                },
                {
                  "internalType": "uint64",
                  "name": "orderID",
                  "type": "uint64"
                },
                {
                  "internalType": "uint64",
                  "name": "extra2",
                  "type": "uint64"
                },
                {
                  "internalType": "uint128",
                  "name": "extra0",
                  "type": "uint128"
                },
                {
                  "internalType": "bytes32",
                  "name": "refCode",
                  "type": "bytes32"
                }
              ],
              "internalType": "struct Order.Props",
              "name": "_order",
              "type": "tuple"
            },
            {
              "internalType": "uint256[]",
              "name": "inputs",
              "type": "uint256[]"
            }
          ],
          "indexed": false,
          "internalType": "struct MarketDataTypes.UpdateOrderInputs",
          "name": "params",
          "type": "tuple"
        }
      ],
      "name": "UpdateOrder",
      "type": "event"
    },
    {
      "anonymous": false,
      "inputs": [
        {
          "indexed": true,
          "internalType": "address",
          "name": "account",
          "type": "address"
        },
        {
          "indexed": false,
          "internalType": "uint256",
          "name": "collateralDelta",
          "type": "uint256"
        },
        {
          "indexed": false,
          "internalType": "int256",
          "name": "collateralDeltaAfter",
          "type": "int256"
        },
        {
          "indexed": false,
          "internalType": "uint256",
          "name": "sizeDelta",
          "type": "uint256"
        },
        {
          "indexed": false,
          "internalType": "bool",
          "name": "isLong",
          "type": "bool"
        },
        {
          "indexed": false,
          "internalType": "uint256",
          "name": "price",
          "type": "uint256"
        },
        {
          "indexed": false,
          "internalType": "int256",
          "name": "pnl",
          "type": "int256"
        },
        {
          "indexed": false,
          "internalType": "int256[]",
          "name": "fees",
          "type": "int256[]"
        },
        {
          "indexed": false,
          "internalType": "address",
          "name": "market",
          "type": "address"
        },
        {
          "indexed": false,
          "internalType": "address",
          "name": "collateralToken",
          "type": "address"
        },
        {
          "indexed": false,
          "internalType": "address",
          "name": "indexToken",
          "type": "address"
        },
        {
          "indexed": false,
          "internalType": "uint256",
          "name": "category",
          "type": "uint256"
        },
        {
          "indexed": false,
          "internalType": "uint64",
          "name": "fromOrder",
          "type": "uint64"
        }
      ],
      "name": "UpdatePosition",
      "type": "event"
    },
    {
      "inputs": [],
      "name": "DEFAULT_ADMIN_ROLE",
      "outputs": [
        {
          "internalType": "bytes32",
          "name": "",
          "type": "bytes32"
        }
      ],
      "stateMutability": "view",
      "type": "function"
    },
    {
      "inputs": [
        {
          "internalType": "address",
          "name": "_market",
          "type": "address"
        },
        {
          "internalType": "address",
          "name": "",
          "type": "address"
        }
      ],
      "name": "addMarket",
      "outputs": [],
      "stateMutability": "nonpayable",
      "type": "function"
    },
    {
      "inputs": [
        {
          "internalType": "address[]",
          "name": "_markets",
          "type": "address[]"
        },
        {
          "internalType": "bool[]",
          "name": "_isIncreaseList",
          "type": "bool[]"
        },
        {
          "internalType": "uint256[]",
          "name": "_orderIDList",
          "type": "uint256[]"
        },
        {
          "internalType": "bool[]",
          "name": "_isLongList",
          "type": "bool[]"
        }
      ],
      "name": "cancelOrderList",
      "outputs": [],
      "stateMutability": "nonpayable",
      "type": "function"
    },
    {
      "inputs": [
        {
          "components": [
            {
              "internalType": "address",
              "name": "_market",
              "type": "address"
            },
            {
              "internalType": "bool",
              "name": "_isLong",
              "type": "bool"
            },
            {
              "internalType": "uint256",
              "name": "_oraclePrice",
              "type": "uint256"
            },
            {
              "internalType": "bool",
              "name": "isOpen",
              "type": "bool"
            },
            {
              "internalType": "address",
              "name": "_account",
              "type": "address"
            },
            {
              "internalType": "uint256",
              "name": "_sizeDelta",
              "type": "uint256"
            },
            {
              "internalType": "uint256",
              "name": "_price",
              "type": "uint256"
            },
            {
              "internalType": "uint256",
              "name": "_slippage",
              "type": "uint256"
            },
            {
              "internalType": "bool",
              "name": "_isExec",
              "type": "bool"
            },
            {
              "internalType": "uint8",
              "name": "liqState",
              "type": "uint8"
            },
            {
              "internalType": "uint64",
              "name": "_fromOrder",
              "type": "uint64"
            },
            {
              "internalType": "bytes32",
              "name": "_refCode",
              "type": "bytes32"
            },
            {
              "internalType": "uint256",
              "name": "collateralDelta",
              "type": "uint256"
            },
            {
              "internalType": "uint8",
              "name": "execNum",
              "type": "uint8"
            },
            {
              "internalType": "uint256[]",
              "name": "inputs",
              "type": "uint256[]"
            }
          ],
          "internalType": "struct MarketDataTypes.UpdatePositionInputs",
          "name": "_vars",
          "type": "tuple"
        }
      ],
      "name": "decreasePosition",
      "outputs": [],
      "stateMutability": "nonpayable",
      "type": "function"
    },
    {
      "inputs": [
        {
          "components": [
            {
              "components": [
                {
                  "internalType": "uint8",
                  "name": "version",
                  "type": "uint8"
                },
                {
                  "internalType": "uint32",
                  "name": "updatedAtBlock",
                  "type": "uint32"
                },
                {
                  "internalType": "uint8",
                  "name": "triggerAbove",
                  "type": "uint8"
                },
                {
                  "internalType": "address",
                  "name": "account",
                  "type": "address"
                },
                {
                  "internalType": "uint48",
                  "name": "extra3",
                  "type": "uint48"
                },
                {
                  "internalType": "uint128",
                  "name": "collateral",
                  "type": "uint128"
                },
                {
                  "internalType": "uint128",
                  "name": "size",
                  "type": "uint128"
                },
                {
                  "internalType": "uint128",
                  "name": "price",
                  "type": "uint128"
                },
                {
                  "internalType": "uint128",
                  "name": "extra1",
                  "type": "uint128"
                },
                {
                  "internalType": "uint64",
                  "name": "orderID",
                  "type": "uint64"
                },
                {
                  "internalType": "uint64",
                  "name": "extra2",
                  "type": "uint64"
                },
                {
                  "internalType": "uint128",
                  "name": "extra0",
                  "type": "uint128"
                },
                {
                  "internalType": "bytes32",
                  "name": "refCode",
                  "type": "bytes32"
                }
              ],
              "internalType": "struct Order.Props",
              "name": "order",
              "type": "tuple"
            },
            {
              "components": [
                {
                  "internalType": "address",
                  "name": "_market",
                  "type": "address"
                },
                {
                  "internalType": "bool",
                  "name": "_isLong",
                  "type": "bool"
                },
                {
                  "internalType": "uint256",
                  "name": "_oraclePrice",
                  "type": "uint256"
                },
                {
                  "internalType": "bool",
                  "name": "isOpen",
                  "type": "bool"
                },
                {
                  "internalType": "address",
                  "name": "_account",
                  "type": "address"
                },
                {
                  "internalType": "uint256",
                  "name": "_sizeDelta",
                  "type": "uint256"
                },
                {
                  "internalType": "uint256",
                  "name": "_price",
                  "type": "uint256"
                },
                {
                  "internalType": "uint256",
                  "name": "_slippage",
                  "type": "uint256"
                },
                {
                  "internalType": "bool",
                  "name": "_isExec",
                  "type": "bool"
                },
                {
                  "internalType": "uint8",
                  "name": "liqState",
                  "type": "uint8"
                },
                {
                  "internalType": "uint64",
                  "name": "_fromOrder",
                  "type": "uint64"
                },
                {
                  "internalType": "bytes32",
                  "name": "_refCode",
                  "type": "bytes32"
                },
                {
                  "internalType": "uint256",
                  "name": "collateralDelta",
                  "type": "uint256"
                },
                {
                  "internalType": "uint8",
                  "name": "execNum",
                  "type": "uint8"
                },
                {
                  "internalType": "uint256[]",
                  "name": "inputs",
                  "type": "uint256[]"
                }
              ],
              "internalType": "struct MarketDataTypes.UpdatePositionInputs",
              "name": "inputs",
              "type": "tuple"
            },
            {
              "internalType": "uint8",
              "name": "reason",
              "type": "uint8"
            },
            {
              "internalType": "string",
              "name": "reasonStr",
              "type": "string"
            },
            {
              "internalType": "int256",
              "name": "dPNL",
              "type": "int256"
            }
          ],
          "internalType": "struct MarketOrderCallBackIntl.DeleteOrderEvent",
          "name": "e",
          "type": "tuple"
        }
      ],
      "name": "deleteOrderCallback",
      "outputs": [],
      "stateMutability": "nonpayable",
      "type": "function"
    },
    {
      "inputs": [
        {
          "internalType": "address",
          "name": "account",
          "type": "address"
        }
      ],
      "name": "getAccountSize",
      "outputs": [
        {
          "internalType": "uint256",
          "name": "sizesL",
          "type": "uint256"
        },
        {
          "internalType": "uint256",
          "name": "sizesS",
          "type": "uint256"
        }
      ],
      "stateMutability": "view",
      "type": "function"
    },
    {
      "inputs": [],
      "name": "getGlobalPNL",
      "outputs": [
        {
          "internalType": "int256",
          "name": "pnl",
          "type": "int256"
        }
      ],
      "stateMutability": "view",
      "type": "function"
    },
    {
      "inputs": [],
      "name": "getGlobalSize",
      "outputs": [
        {
          "internalType": "uint256",
          "name": "sizesLong",
          "type": "uint256"
        },
        {
          "internalType": "uint256",
          "name": "sizesShort",
          "type": "uint256"
        }
      ],
      "stateMutability": "view",
      "type": "function"
    },
    {
      "inputs": [],
      "name": "getHooksCalls",
      "outputs": [
        {
          "components": [
            {
              "internalType": "bool",
              "name": "updatePosition",
              "type": "bool"
            },
            {
              "internalType": "bool",
              "name": "updateOrder",
              "type": "bool"
            },
            {
              "internalType": "bool",
              "name": "deleteOrder",
              "type": "bool"
            }
          ],
          "internalType": "struct MarketCallBackIntl.Calls",
          "name": "",
          "type": "tuple"
        }
      ],
      "stateMutability": "pure",
      "type": "function"
    },
    {
      "inputs": [],
      "name": "getMarkets",
      "outputs": [
        {
          "internalType": "address[]",
          "name": "",
          "type": "address[]"
        }
      ],
      "stateMutability": "view",
      "type": "function"
    },
    {
      "inputs": [
        {
          "internalType": "bytes32",
          "name": "role",
          "type": "bytes32"
        }
      ],
      "name": "getRoleAdmin",
      "outputs": [
        {
          "internalType": "bytes32",
          "name": "",
          "type": "bytes32"
        }
      ],
      "stateMutability": "view",
      "type": "function"
    },
    {
      "inputs": [
        {
          "internalType": "address",
          "name": "_account",
          "type": "address"
        }
      ],
      "name": "grantControllerRoleByMarketManager",
      "outputs": [],
      "stateMutability": "nonpayable",
      "type": "function"
    },
    {
      "inputs": [
        {
          "internalType": "bytes32",
          "name": "role",
          "type": "bytes32"
        },
        {
          "internalType": "address",
          "name": "account",
          "type": "address"
        }
      ],
      "name": "grantRole",
      "outputs": [],
      "stateMutability": "nonpayable",
      "type": "function"
    },
    {
      "inputs": [],
      "name": "gv",
      "outputs": [
        {
          "internalType": "address",
          "name": "",
          "type": "address"
        }
      ],
      "stateMutability": "view",
      "type": "function"
    },
    {
      "inputs": [
        {
          "internalType": "bytes32",
          "name": "role",
          "type": "bytes32"
        },
        {
          "internalType": "address",
          "name": "account",
          "type": "address"
        }
      ],
      "name": "hasRole",
      "outputs": [
        {
          "internalType": "bool",
          "name": "",
          "type": "bool"
        }
      ],
      "stateMutability": "view",
      "type": "function"
    },
    {
      "inputs": [
        {
          "components": [
            {
              "internalType": "address",
              "name": "_market",
              "type": "address"
            },
            {
              "internalType": "bool",
              "name": "_isLong",
              "type": "bool"
            },
            {
              "internalType": "uint256",
              "name": "_oraclePrice",
              "type": "uint256"
            },
            {
              "internalType": "bool",
              "name": "isOpen",
              "type": "bool"
            },
            {
              "internalType": "address",
              "name": "_account",
              "type": "address"
            },
            {
              "internalType": "uint256",
              "name": "_sizeDelta",
              "type": "uint256"
            },
            {
              "internalType": "uint256",
              "name": "_price",
              "type": "uint256"
            },
            {
              "internalType": "uint256",
              "name": "_slippage",
              "type": "uint256"
            },
            {
              "internalType": "bool",
              "name": "_isExec",
              "type": "bool"
            },
            {
              "internalType": "uint8",
              "name": "liqState",
              "type": "uint8"
            },
            {
              "internalType": "uint64",
              "name": "_fromOrder",
              "type": "uint64"
            },
            {
              "internalType": "bytes32",
              "name": "_refCode",
              "type": "bytes32"
            },
            {
              "internalType": "uint256",
              "name": "collateralDelta",
              "type": "uint256"
            },
            {
              "internalType": "uint8",
              "name": "execNum",
              "type": "uint8"
            },
            {
              "internalType": "uint256[]",
              "name": "inputs",
              "type": "uint256[]"
            }
          ],
          "internalType": "struct MarketDataTypes.UpdatePositionInputs",
          "name": "_inputs",
          "type": "tuple"
        }
      ],
      "name": "increasePosition",
      "outputs": [],
      "stateMutability": "nonpayable",
      "type": "function"
    },
    {
      "inputs": [
        {
          "internalType": "address",
          "name": "_f",
          "type": "address"
        },
        {
          "internalType": "address",
          "name": "_gv",
          "type": "address"
        },
        {
          "internalType": "address",
          "name": "vr",
          "type": "address"
        }
      ],
      "name": "initialize",
      "outputs": [],
      "stateMutability": "nonpayable",
      "type": "function"
    },
    {
      "inputs": [],
      "name": "isEnableMarketConvertToOrder",
      "outputs": [
        {
          "internalType": "bool",
          "name": "",
          "type": "bool"
        }
      ],
      "stateMutability": "view",
      "type": "function"
    },
    {
      "inputs": [],
      "name": "owner",
      "outputs": [
        {
          "internalType": "address",
          "name": "",
          "type": "address"
        }
      ],
      "stateMutability": "view",
      "type": "function"
    },
    {
      "inputs": [
        {
          "internalType": "address",
          "name": "_market",
          "type": "address"
        }
      ],
      "name": "removeMarket",
      "outputs": [],
      "stateMutability": "nonpayable",
      "type": "function"
    },
    {
      "inputs": [],
      "name": "renounceOwnership",
      "outputs": [],
      "stateMutability": "nonpayable",
      "type": "function"
    },
    {
      "inputs": [
        {
          "internalType": "bytes32",
          "name": "role",
          "type": "bytes32"
        },
        {
          "internalType": "address",
          "name": "account",
          "type": "address"
        }
      ],
      "name": "renounceRole",
      "outputs": [],
      "stateMutability": "nonpayable",
      "type": "function"
    },
    {
      "inputs": [
        {
          "internalType": "bytes32",
          "name": "role",
          "type": "bytes32"
        },
        {
          "internalType": "address",
          "name": "account",
          "type": "address"
        }
      ],
      "name": "revokeRole",
      "outputs": [],
      "stateMutability": "nonpayable",
      "type": "function"
    },
    {
      "inputs": [
        {
          "internalType": "bool",
          "name": "_isEnableMarketConvertToOrder",
          "type": "bool"
        }
      ],
      "name": "setIsEnableMarketConvertToOrder",
      "outputs": [],
      "stateMutability": "nonpayable",
      "type": "function"
    },
    {
      "inputs": [
        {
          "internalType": "bytes4",
          "name": "interfaceId",
          "type": "bytes4"
        }
      ],
      "name": "supportsInterface",
      "outputs": [
        {
          "internalType": "bool",
          "name": "",
          "type": "bool"
        }
      ],
      "stateMutability": "view",
      "type": "function"
    },
    {
      "inputs": [
        {
          "internalType": "address",
          "name": "to",
          "type": "address"
        }
      ],
      "name": "transferAdmin",
      "outputs": [],
      "stateMutability": "nonpayable",
      "type": "function"
    },
    {
      "inputs": [
        {
          "internalType": "address",
          "name": "newOwner",
          "type": "address"
        }
      ],
      "name": "transferOwnership",
      "outputs": [],
      "stateMutability": "nonpayable",
      "type": "function"
    },
    {
      "inputs": [
        {
          "components": [
            {
              "internalType": "address",
              "name": "_market",
              "type": "address"
            },
            {
              "internalType": "bool",
              "name": "_isLong",
              "type": "bool"
            },
            {
              "internalType": "uint256",
              "name": "_oraclePrice",
              "type": "uint256"
            },
            {
              "internalType": "bool",
              "name": "isOpen",
              "type": "bool"
            },
            {
              "internalType": "bool",
              "name": "isCreate",
              "type": "bool"
            },
            {
              "components": [
                {
                  "internalType": "uint8",
                  "name": "version",
                  "type": "uint8"
                },
                {
                  "internalType": "uint32",
                  "name": "updatedAtBlock",
                  "type": "uint32"
                },
                {
                  "internalType": "uint8",
                  "name": "triggerAbove",
                  "type": "uint8"
                },
                {
                  "internalType": "address",
                  "name": "account",
                  "type": "address"
                },
                {
                  "internalType": "uint48",
                  "name": "extra3",
                  "type": "uint48"
                },
                {
                  "internalType": "uint128",
                  "name": "collateral",
                  "type": "uint128"
                },
                {
                  "internalType": "uint128",
                  "name": "size",
                  "type": "uint128"
                },
                {
                  "internalType": "uint128",
                  "name": "price",
                  "type": "uint128"
                },
                {
                  "internalType": "uint128",
                  "name": "extra1",
                  "type": "uint128"
                },
                {
                  "internalType": "uint64",
                  "name": "orderID",
                  "type": "uint64"
                },
                {
                  "internalType": "uint64",
                  "name": "extra2",
                  "type": "uint64"
                },
                {
                  "internalType": "uint128",
                  "name": "extra0",
                  "type": "uint128"
                },
                {
                  "internalType": "bytes32",
                  "name": "refCode",
                  "type": "bytes32"
                }
              ],
              "internalType": "struct Order.Props",
              "name": "_order",
              "type": "tuple"
            },
            {
              "internalType": "uint256[]",
              "name": "inputs",
              "type": "uint256[]"
            }
          ],
          "internalType": "struct MarketDataTypes.UpdateOrderInputs",
          "name": "_vars",
          "type": "tuple"
        }
      ],
      "name": "updateOrder",
      "outputs": [],
      "stateMutability": "nonpayable",
      "type": "function"
    },
    {
      "inputs": [
        {
          "components": [
            {
              "internalType": "address",
              "name": "_market",
              "type": "address"
            },
            {
              "internalType": "bool",
              "name": "_isLong",
              "type": "bool"
            },
            {
              "internalType": "uint256",
              "name": "_oraclePrice",
              "type": "uint256"
            },
            {
              "internalType": "bool",
              "name": "isOpen",
              "type": "bool"
            },
            {
              "internalType": "bool",
              "name": "isCreate",
              "type": "bool"
            },
            {
              "components": [
                {
                  "internalType": "uint8",
                  "name": "version",
                  "type": "uint8"
                },
                {
                  "internalType": "uint32",
                  "name": "updatedAtBlock",
                  "type": "uint32"
                },
                {
                  "internalType": "uint8",
                  "name": "triggerAbove",
                  "type": "uint8"
                },
                {
                  "internalType": "address",
                  "name": "account",
                  "type": "address"
                },
                {
                  "internalType": "uint48",
                  "name": "extra3",
                  "type": "uint48"
                },
                {
                  "internalType": "uint128",
                  "name": "collateral",
                  "type": "uint128"
                },
                {
                  "internalType": "uint128",
                  "name": "size",
                  "type": "uint128"
                },
                {
                  "internalType": "uint128",
                  "name": "price",
                  "type": "uint128"
                },
                {
                  "internalType": "uint128",
                  "name": "extra1",
                  "type": "uint128"
                },
                {
                  "internalType": "uint64",
                  "name": "orderID",
                  "type": "uint64"
                },
                {
                  "internalType": "uint64",
                  "name": "extra2",
                  "type": "uint64"
                },
                {
                  "internalType": "uint128",
                  "name": "extra0",
                  "type": "uint128"
                },
                {
                  "internalType": "bytes32",
                  "name": "refCode",
                  "type": "bytes32"
                }
              ],
              "internalType": "struct Order.Props",
              "name": "_order",
              "type": "tuple"
            },
            {
              "internalType": "uint256[]",
              "name": "inputs",
              "type": "uint256[]"
            }
          ],
          "internalType": "struct MarketDataTypes.UpdateOrderInputs",
          "name": "_event",
          "type": "tuple"
        }
      ],
      "name": "updateOrderCallback",
      "outputs": [],
      "stateMutability": "nonpayable",
      "type": "function"
    },
    {
      "inputs": [
        {
          "internalType": "address",
          "name": "newA",
          "type": "address"
        }
      ],
      "name": "updatePositionBook",
      "outputs": [],
      "stateMutability": "nonpayable",
      "type": "function"
    },
    {
      "inputs": [
        {
          "components": [
            {
              "components": [
                {
                  "internalType": "address",
                  "name": "_market",
                  "type": "address"
                },
                {
                  "internalType": "bool",
                  "name": "_isLong",
                  "type": "bool"
                },
                {
                  "internalType": "uint256",
                  "name": "_oraclePrice",
                  "type": "uint256"
                },
                {
                  "internalType": "bool",
                  "name": "isOpen",
                  "type": "bool"
                },
                {
                  "internalType": "address",
                  "name": "_account",
                  "type": "address"
                },
                {
                  "internalType": "uint256",
                  "name": "_sizeDelta",
                  "type": "uint256"
                },
                {
                  "internalType": "uint256",
                  "name": "_price",
                  "type": "uint256"
                },
                {
                  "internalType": "uint256",
                  "name": "_slippage",
                  "type": "uint256"
                },
                {
                  "internalType": "bool",
                  "name": "_isExec",
                  "type": "bool"
                },
                {
                  "internalType": "uint8",
                  "name": "liqState",
                  "type": "uint8"
                },
                {
                  "internalType": "uint64",
                  "name": "_fromOrder",
                  "type": "uint64"
                },
                {
                  "internalType": "bytes32",
                  "name": "_refCode",
                  "type": "bytes32"
                },
                {
                  "internalType": "uint256",
                  "name": "collateralDelta",
                  "type": "uint256"
                },
                {
                  "internalType": "uint8",
                  "name": "execNum",
                  "type": "uint8"
                },
                {
                  "internalType": "uint256[]",
                  "name": "inputs",
                  "type": "uint256[]"
                }
              ],
              "internalType": "struct MarketDataTypes.UpdatePositionInputs",
              "name": "inputs",
              "type": "tuple"
            },
            {
              "components": [
                {
                  "internalType": "address",
                  "name": "market",
                  "type": "address"
                },
                {
                  "internalType": "bool",
                  "name": "isLong",
                  "type": "bool"
                },
                {
                  "internalType": "uint32",
                  "name": "lastTime",
                  "type": "uint32"
                },
                {
                  "internalType": "uint216",
                  "name": "extra3",
                  "type": "uint216"
                },
                {
                  "internalType": "uint256",
                  "name": "size",
                  "type": "uint256"
                },
                {
                  "internalType": "uint256",
                  "name": "collateral",
                  "type": "uint256"
                },
                {
                  "internalType": "uint256",
                  "name": "averagePrice",
                  "type": "uint256"
                },
                {
                  "internalType": "int256",
                  "name": "entryFundingRate",
                  "type": "int256"
                },
                {
                  "internalType": "int256",
                  "name": "realisedPnl",
                  "type": "int256"
                },
                {
                  "internalType": "uint256",
                  "name": "extra0",
                  "type": "uint256"
                },
                {
                  "internalType": "uint256",
                  "name": "extra1",
                  "type": "uint256"
                },
                {
                  "internalType": "uint256",
                  "name": "extra2",
                  "type": "uint256"
                }
              ],
              "internalType": "struct Position.Props",
              "name": "position",
              "type": "tuple"
            },
            {
              "internalType": "int256[]",
              "name": "fees",
              "type": "int256[]"
            },
            {
              "internalType": "address",
              "name": "collateralToken",
              "type": "address"
            },
            {
              "internalType": "address",
              "name": "indexToken",
              "type": "address"
            },
            {
              "internalType": "int256",
              "name": "collateralDeltaAfter",
              "type": "int256"
            }
          ],
          "internalType": "struct MarketPositionCallBackIntl.UpdatePositionEvent",
          "name": "_event",
          "type": "tuple"
        }
      ],
      "name": "updatePositionCallback",
      "outputs": [],
      "stateMutability": "nonpayable",
      "type": "function"
    },
    {
      "inputs": [
        {
          "components": [
            {
              "internalType": "address",
              "name": "_market",
              "type": "address"
            },
            {
              "internalType": "bool",
              "name": "_isLong",
              "type": "bool"
            },
            {
              "internalType": "uint256",
              "name": "_oraclePrice",
              "type": "uint256"
            },
            {
              "internalType": "bool",
              "name": "isOpen",
              "type": "bool"
            },
            {
              "internalType": "address",
              "name": "_account",
              "type": "address"
            },
            {
              "internalType": "uint256",
              "name": "_sizeDelta",
              "type": "uint256"
            },
            {
              "internalType": "uint256",
              "name": "_price",
              "type": "uint256"
            },
            {
              "internalType": "uint256",
              "name": "_slippage",
              "type": "uint256"
            },
            {
              "internalType": "bool",
              "name": "_isExec",
              "type": "bool"
            },
            {
              "internalType": "uint8",
              "name": "liqState",
              "type": "uint8"
            },
            {
              "internalType": "uint64",
              "name": "_fromOrder",
              "type": "uint64"
            },
            {
              "internalType": "bytes32",
              "name": "_refCode",
              "type": "bytes32"
            },
            {
              "internalType": "uint256",
              "name": "collateralDelta",
              "type": "uint256"
            },
            {
              "internalType": "uint8",
              "name": "execNum",
              "type": "uint8"
            },
            {
              "internalType": "uint256[]",
              "name": "inputs",
              "type": "uint256[]"
            }
          ],
          "internalType": "struct MarketDataTypes.UpdatePositionInputs",
          "name": "_inputs",
          "type": "tuple"
        }
      ],
      "name": "validateIncreasePosition",
      "outputs": [],
      "stateMutability": "view",
      "type": "function"
    },
    {
      "inputs": [],
      "name": "vaultRouter",
      "outputs": [
        {
          "internalType": "address",
          "name": "",
          "type": "address"
        }
      ],
      "stateMutability": "view",
      "type": "function"
    }
  ],
  "bytecode": "0x60806040523480156200001157600080fd5b506200001d3362000028565b60016003556200007a565b600180546001600160a01b038381166001600160a01b0319831681179093556040519116919082907f8be0079c531659141344cd1fd0a4f28419497f9722a3daafe3b4186f6b6457e090600090a35050565b6141b7806200008a6000396000f3fe608060405234801561001057600080fd5b50600436106101fb5760003560e01c806375829def1161011a578063c0c53b8b116100ad578063d547741f1161007c578063d547741f1461048a578063db9132361461049d578063de1f4430146104b0578063ec2c9016146104c3578063f2fde38b146104d857600080fd5b8063c0c53b8b1461043e578063cce9a2f314610451578063cd6ebf6614610464578063d37c441c1461047757600080fd5b806391d14854116100e957806391d14854146103fd578063a217fddf14610410578063abed961814610418578063b038beb81461042b57600080fd5b806375829def1461039b5780637fe4a698146103ae5780638b4400f2146103c15780638da5cb5b146103ec57600080fd5b8063332013a711610192578063544781af11610161578063544781af14610319578063612c39b71461032c578063715018a614610380578063718cb58a1461038857600080fd5b8063332013a7146102cc57806336568abe146102e057806340a542fe146102f35780634463b5bc1461030657600080fd5b80632073b0ce116101ce5780632073b0ce1461026d578063248a9ca3146102835780632ca6d2c0146102a65780632f2ff15d146102b957600080fd5b806301ffc9a7146102005780630799f55f146102285780630d918caa146102455780631cfe58281461025a575b600080fd5b61021361020e366004612c6b565b6104eb565b60405190151581526020015b60405180910390f35b610230610522565b6040805192835260208301919091520161021f565b610258610253366004612fc1565b6105e5565b005b610258610268366004612fc1565b6107b1565b610275610ad7565b60405190815260200161021f565b610275610291366004612ff5565b60009081526020819052604090206001015490565b6102306102b436600461300e565b610b87565b6102586102c736600461302b565b610c56565b600a5461021390600160a01b900460ff1681565b6102586102ee36600461302b565b610c80565b61025861030136600461313f565b610cfe565b610258610314366004613213565b610e53565b610258610327366004613294565b610e8a565b6040805160608082018352600080835260208084018290529284015282518082018452600180825281840181815291850181815285519182529151151593810193909352511515928201929092520161021f565b610258611286565b610258610396366004613534565b61129a565b6102586103a936600461300e565b61136e565b6102586103bc36600461300e565b611398565b6009546103d4906001600160a01b031681565b6040516001600160a01b03909116815260200161021f565b6001546001600160a01b03166103d4565b61021361040b36600461302b565b6113b0565b610275600081565b610258610426366004612fc1565b6113d9565b6102586104393660046135f7565b6114cc565b61025861044c3660046136c5565b6114dd565b61025861045f3660046135f7565b611647565b61025861047236600461300e565b61179a565b600a546103d4906001600160a01b031681565b61025861049836600461302b565b611914565b6102586104ab36600461300e565b611939565b6102586104be366004613710565b6119f8565b6104cb611b56565b60405161021f919061373e565b6102586104e636600461300e565b611b67565b60006001600160e01b03198216637965db0b60e01b148061051c57506301ffc9a760e01b6001600160e01b03198316145b92915050565b60008060005b6105326005611bdd565b518110156105e0576000610547600583611bf1565b9050600080826001600160a01b0316638749694a6040518163ffffffff1660e01b81526004016040805180830381865afa158015610589573d6000803e3d6000fd5b505050506040513d601f19601f820116820180604052508101906105ad919061378b565b90925090506105bc82876137c5565b95506105c881866137c5565b945050505080806105d8906137d8565b915050610528565b509091565b6105ed611bfd565b600a54600160a01b900460ff16801561060a575060008160a00151115b1561061d5761061881611c56565b6107a4565b805161062b90600790611d95565b6106735760405162461bcd60e51b815260206004820152601460248201527313585c9ad95d149bdd5d195c8e885b585c9ad95d60621b60448201526064015b60405180910390fd5b61067c81611db7565b6106985760405162461bcd60e51b815260040161066a906137f1565b6000816000015190506000816001600160a01b031663b2016bd46040518163ffffffff1660e01b8152600401602060405180830381865afa1580156106e1573d6000803e3d6000fd5b505050506040513d601f19601f820116820180604052508101906107059190613819565b905061073133846000015161071f84876101800151611ddc565b6001600160a01b038516929190611e55565b336080840152610740836107b1565b8251604051631def7c1d60e11b81526001600160a01b0390911690633bdef83a9061076f908690600401613871565b600060405180830381600087803b15801561078957600080fd5b505af115801561079d573d6000803e3d6000fd5b5050505050505b6107ae6001600355565b50565b80516001600160a01b03908116600090815260046020908152604080832054815161014081018352848152808401858152928101858152606082018690526080820186905260a080830187905260c0830187905260e083018790526101008301879052610120830196909652875187168252948701519092529185015115159092529091169061083f610522565b608080840191909152606083019190915283015161085c90610b87565b60c083015260a0820152604080516343a4b4a560e11b815281516001600160a01b03851692638749694a92600480820193918290030181865afa1580156108a7573d6000803e3d6000fd5b505050506040513d601f19601f820116820180604052508101906108cb919061378b565b61010083015260e0820152825160408051632c805af560e21b815290516000926001600160a01b03169163b2016bd49160048083019260209291908290030181865afa15801561091f573d6000803e3d6000fd5b505050506040513d601f19601f820116820180604052508101906109439190613819565b9050610a26600a60009054906101000a90046001600160a01b03166001600160a01b0316636dc7b0a16040518163ffffffff1660e01b8152600401602060405180830381865afa15801561099b573d6000803e3d6000fd5b505050506040513d601f19601f820116820180604052508101906109bf9190613988565b826001600160a01b031663313ce5676040518163ffffffff1660e01b8152600401602060405180830381865afa1580156109fd573d6000803e3d6000fd5b505050506040513d601f19601f82011682018060405250810190610a2191906139a1565b611eaf565b61012083015260095460405163028c7b5160e41b81526001600160a01b03909116906328c7b51090610a5c9085906004016139be565b602060405180830381865afa158015610a79573d6000803e3d6000fd5b505050506040513d601f19601f82011682018060405250810190610a9d9190613a3e565b610ad15760405162461bcd60e51b815260206004820152600560248201526436b91d33bb60d91b604482015260640161066a565b50505050565b6000805b610ae56007611bdd565b51811015610b83576000610afa600783611bf1565b90506000816001600160a01b03166393a98e6c6040518163ffffffff1660e01b8152600401602060405180830381865afa158015610b3c573d6000803e3d6000fd5b505050506040513d601f19601f82011682018060405250810190610b609190613988565b9050610b6c8185613a5b565b935050508080610b7b906137d8565b915050610adb565b5090565b60008060005b610b976005611bdd565b51811015610c50576000610bac600583611bf1565b60405162b29b4b60e61b81526001600160a01b038781166004830152919250600091829190841690632ca6d2c0906024016040805180830381865afa158015610bf9573d6000803e3d6000fd5b505050506040513d601f19601f82011682018060405250810190610c1d919061378b565b9092509050610c2c82876137c5565b9550610c3881866137c5565b94505050508080610c48906137d8565b915050610b8d565b50915091565b600082815260208190526040902060010154610c7181611edc565b610c7b8383611ee6565b505050565b6001600160a01b0381163314610cf05760405162461bcd60e51b815260206004820152602f60248201527f416363657373436f6e74726f6c3a2063616e206f6e6c792072656e6f756e636560448201526e103937b632b9903337b91039b2b63360891b606482015260840161066a565b610cfa8282611f6a565b5050565b8051516001600160a01b03163314610d285760405162461bcd60e51b815260040161066a90613a83565b610d33600733611d95565b610d4f5760405162461bcd60e51b815260040161066a90613aab565b80516060015160019015610d7a57815160a00151600003610d7257506002610dbd565b506000610dbd565b8151610120015160ff16600103610d9357506004610dbd565b8151610120015160ff16600203610dac57506005610dbd565b815160a00151600003610dbd575060035b815160808082015161018083015160a08087015190850151602080870151604080890151928b01516101000151818c01518a5160608e01519a8e0151610140909c015193516001600160a01b03909a169b7fd0abfef5eb2cd61e6fd56ea2b69e9867bc90e8589023c554bdade2287b28c9399b610e479b96979694959394929390928f9190613ad3565b60405180910390a25050565b600080516020614162833981519152610e6b81611edc565b50600a8054911515600160a01b0260ff60a01b19909216919091179055565b610e92611bfd565b82518451148015610ea4575081518351145b8015610eb1575080518251145b610efd5760405162461bcd60e51b815260206004820152601a60248201527f4172726179206c656e6774687320646f206e6f74206d61746368000000000000604482015260640161066a565b604080516001808252818301909252600091602080830190803683375050604080516001808252818301909252929350600092915060208083019080368337505060408051600180825281830190925292935060009291506020808301908036833701905050905060005b875181101561127857610f9e888281518110610f8657610f86613b98565b60200260200101516007611d9590919063ffffffff16565b610fba5760405162461bcd60e51b815260040161066a90613aab565b6000610fc78260016137c5565b90505b885181101561113057888181518110610fe557610fe5613b98565b60200260200101516001600160a01b031689838151811061100857611008613b98565b60200260200101516001600160a01b031614801561105b575087818151811061103357611033613b98565b6020026020010151151588838151811061104f5761104f613b98565b60200260200101511515145b8015611098575086818151811061107457611074613b98565b602002602001015187838151811061108e5761108e613b98565b6020026020010151145b80156110d957508581815181106110b1576110b1613b98565b602002602001015115158683815181106110cd576110cd613b98565b60200260200101511515145b1561111e5760405162461bcd60e51b8152602060048201526015602482015274111d5c1b1a58d85d19481bdc99195c88199bdd5b99605a1b604482015260640161066a565b80611128816137d8565b915050610fca565b5086818151811061114357611143613b98565b60200260200101518460008151811061115e5761115e613b98565b60200260200101901515908115158152505085818151811061118257611182613b98565b60200260200101518360008151811061119d5761119d613b98565b6020026020010181815250508481815181106111bb576111bb613b98565b6020026020010151826000815181106111d6576111d6613b98565b6020026020010190151590811515815250508781815181106111fa576111fa613b98565b60200260200101516001600160a01b031663301f6fe9338686866040518563ffffffff1660e01b81526004016112339493929190613be0565b600060405180830381600087803b15801561124d57600080fd5b505af1158015611261573d6000803e3d6000fd5b505050508080611270906137d8565b915050610f68565b50505050610ad16001600355565b61128e611fcf565b6112986000612029565b565b6020810151516001600160a01b031633146112c75760405162461bcd60e51b815260040161066a90613a83565b6112d2600733611d95565b6112ee5760405162461bcd60e51b815260040161066a90613aab565b80516060808201516020808501519081015181840151610120909501518251604080890151968901519481015160808a015191516001600160a01b03909716987f083f7516dcfe13a8bef8bcbbe89648ce92bfd7161733f88ba43e1049de6af1b4986113639896979196909391929190613c7a565b60405180910390a250565b600061137981611edc565b61138460008361207b565b61138d82612029565b610cfa600033611f6a565b6000805160206141628339815191526101fb81611edc565b6000918252602082815260408084206001600160a01b0393909316845291905290205460ff1690565b6113e1611bfd565b600a54600160a01b900460ff1680156113fe575060008160a00151115b1561140c5761061881611c56565b805161141a90600790611d95565b6114365760405162461bcd60e51b815260040161066a90613aab565b61143f81611db7565b61145b5760405162461bcd60e51b815260040161066a906137f1565b336080820152805160405163157db2c360e31b81526001600160a01b039091169063abed961890611490908490600401613871565b600060405180830381600087803b1580156114aa57600080fd5b505af11580156114be573d6000803e3d6000fd5b505050506107ae6001600355565b6114d4611bfd565b6107a481612085565b600154600160a81b900460ff1615808015611503575060018054600160a01b900460ff16105b806115235750303b158015611523575060018054600160a01b900460ff16145b6115865760405162461bcd60e51b815260206004820152602e60248201527f496e697469616c697a61626c653a20636f6e747261637420697320616c72656160448201526d191e481a5b9a5d1a585b1a5e995960921b606482015260840161066a565b6001805460ff60a01b1916600160a01b17905580156115b3576001805460ff60a81b1916600160a81b1790555b6115bc846121fe565b600980546001600160a01b038086166001600160a01b031990921691909117909155600a80546001600160a81b03191691841691909117600160a01b1790558015610ad1576001805460ff60a81b191681556040519081527f7f26b83ff96e1f2b6a682f133852f6798a09c465da95921460cefb38474024989060200160405180910390a150505050565b80516001600160a01b031633146116705760405162461bcd60e51b815260040161066a90613a83565b61167b600733611d95565b6116975760405162461bcd60e51b815260040161066a90613aab565b60a080820151606080820151602085015191850151610120840151865160c08601519686015160e08701516001600160a01b03909516977fc1a292b7363ad930d02501a9224823f3fc6d6433978aa670da66b24004eaac7197949593949293909261170190612221565b8a60600151611711576000611725565b60a08b015161010001516001600160801b03165b8b60600151611735576000611749565b60a08c015161016001516001600160801b03165b8c6060015161176a5760a08d015161016001516001600160801b031661176d565b60005b60a08e01516080015165ffffffffffff1615158e6040516113639d9c9b9a99989796959493929190613e4e565b6000805160206141628339815191526117b281611edc565b6001600160a01b0382166117c557600080fd5b336117d1600782611d95565b6117ed5760405162461bcd60e51b815260040161066a90613aab565b61185a816001600160a01b031663ac0b05a66040518163ffffffff1660e01b8152600401602060405180830381865afa15801561182e573d6000803e3d6000fd5b505050506040513d601f19601f820116820180604052508101906118529190613819565b600590612298565b506000816001600160a01b031663ac0b05a66040518163ffffffff1660e01b8152600401602060405180830381865afa15801561189b573d6000803e3d6000fd5b505050506040513d601f19601f820116820180604052508101906118bf9190613819565b90506118cc600582612298565b506118d86005856122ad565b6118e157600080fd5b506001600160a01b0390811660009081526004602052604090208054919093166001600160a01b03199091161790915550565b60008281526020819052604090206001015461192f81611edc565b610c7b8383611f6a565b60008051602061416283398151915261195181611edc565b6000826001600160a01b031663ac0b05a66040518163ffffffff1660e01b8152600401602060405180830381865afa158015611991573d6000803e3d6000fd5b505050506040513d601f19601f820116820180604052508101906119b59190613819565b90506119c2600784612298565b506119ce600582612298565b5050506001600160a01b0316600090815260046020526040902080546001600160a01b0319169055565b600080516020614162833981519152611a1181336113b0565b611a8457611a206000336113b0565b15611a7a5762093a8060025442611a379190613f08565b10611a755760405162461bcd60e51b815260206004820152600e60248201526d1858c81d1a5b59481c185cdcd95960921b604482015260640161066a565b611a84565b611a8481336122c2565b6001600160a01b038316611a9757600080fd5b6000836001600160a01b031663ac0b05a66040518163ffffffff1660e01b8152600401602060405180830381865afa158015611ad7573d6000803e3d6000fd5b505050506040513d601f19601f82011682018060405250810190611afb9190613819565b9050611b086007856122ad565b611b1157600080fd5b611b1c6005826122ad565b611b2557600080fd5b6001600160a01b03938416600090815260046020526040902080546001600160a01b03191691909416179092555050565b6060611b626007611bdd565b905090565b611b6f611fcf565b6001600160a01b038116611bd45760405162461bcd60e51b815260206004820152602660248201527f4f776e61626c653a206e6577206f776e657220697320746865207a65726f206160448201526564647265737360d01b606482015260840161066a565b6107ae81612029565b60606000611bea8361231b565b9392505050565b6000611bea8383612377565b600260035403611c4f5760405162461bcd60e51b815260206004820152601f60248201527f5265656e7472616e637947756172643a207265656e7472616e742063616c6c00604482015260640161066a565b6002600355565b611c5e612bbb565b6060820151611c6e9082906123a1565b611c798160016123ce565b60e0820151611c89908290612407565b81516001600160a01b0316815260208083015115159082015260016080820152611cb1612bff565b60608301511515600003611cd757611cd2611ccb8461241f565b829061245c565b611d0e565b610180830151611ce890839061247a565b611cfb611cf484612492565b82906124d0565b611d0e611d07846124ef565b829061251f565b611d1c83610180015161253e565b6001600160801b031660a08083019190915260808401516001600160a01b03166060830152830151611d4d9061253e565b6001600160801b031660c080830191909152830151611d6b9061253e565b6001600160801b031660e082015261016083015161018082015260a08201819052610c7b82612085565b6001600160a01b03811660009081526001830160205260408120541515611bea565b60808101516000906001600160a01b0316611dd457506000919050565b506001919050565b600080836001600160a01b031663313ce5676040518163ffffffff1660e01b8152600401602060405180830381865afa158015611e1d573d6000803e3d6000fd5b505050506040513d601f19601f82011682018060405250810190611e4191906139a1565b9050611e4d83826125a7565b949350505050565b604080516001600160a01b0385811660248301528416604482015260648082018490528251808303909101815260849091019091526020810180516001600160e01b03166323b872dd60e01b179052610ad19085906125c3565b6000611ebc82600a613fff565b611ec86012600a61400e565b611ed2908561401a565b611bea9190614047565b6107ae81336122c2565b611ef082826113b0565b610cfa576000828152602081815260408083206001600160a01b03851684529091529020805460ff19166001179055611f263390565b6001600160a01b0316816001600160a01b0316837f2f8788117e7eff1d82e926ec794901d17c78024a50270940304540a733656f0d60405160405180910390a45050565b611f7482826113b0565b15610cfa576000828152602081815260408083206001600160a01b0385168085529252808320805460ff1916905551339285917ff6391f5c32d9c69d2a47ea670b442974b53935d1edc7fd64eb21e047a839171b9190a45050565b6001546001600160a01b031633146112985760405162461bcd60e51b815260206004820181905260248201527f4f776e61626c653a2063616c6c6572206973206e6f7420746865206f776e6572604482015260640161066a565b600180546001600160a01b038381166001600160a01b0319831681179093556040519116919082907f8be0079c531659141344cd1fd0a4f28419497f9722a3daafe3b4186f6b6457e090600090a35050565b610cfa8282611ee6565b805161209390600790611d95565b6120af5760405162461bcd60e51b815260040161066a90613aab565b6120b881612695565b6120d45760405162461bcd60e51b815260040161066a906137f1565b60a0810151336060918201528101516120fc906120f083612710565b60a0840151919061273c565b8060600151801561210e575080608001515b1561219a57600081600001516001600160a01b031663b2016bd46040518163ffffffff1660e01b8152600401602060405180830381865afa158015612157573d6000803e3d6000fd5b505050506040513d601f19601f8201168201806040525081019061217b9190613819565b905061219833836000015161071f846121938761277b565b611ddc565b505b805160405163160717d760e31b81526001600160a01b039091169063b038beb8906121c990849060040161405b565b600060405180830381600087803b1580156121e357600080fd5b505af11580156121f7573d6000803e3d6000fd5b5050505050565b4260025561220b33612029565b61221660003361207b565b6107ae60008261207b565b6000816040015160ff1660000361227a5760405162461bcd60e51b815260206004820152601b60248201527f696e76616c6964206f7264657220747269676765722061626f76650000000000604482015260640161066a565b6002826040015161228b919061406e565b60ff166001149050919050565b6000611bea836001600160a01b0384166127a9565b6000611bea836001600160a01b03841661289c565b6122cc82826113b0565b610cfa576122d9816128eb565b6122e48360206128fd565b6040516020016122f5929190614090565b60408051601f198184030181529082905262461bcd60e51b825261066a91600401614105565b60608160000180548060200260200160405190810160405280929190818152602001828054801561236b57602002820191906000526020600020905b815481526020019060010190808311612357575b50505050509050919050565b600082600001828154811061238e5761238e613b98565b9060005260206000200154905092915050565b60408051600380825260808201909252906020820160608036833750505060c08301521515606090910152565b806123da5760006123dd565b60015b60ff168260c001516001815181106123f7576123f7613b98565b6020026020010181815250505050565b808260c001516002815181106123f7576123f7613b98565b60006001826101c00151511015801561051c57506000826101c0015160008151811061244d5761244d613b98565b60200260200101511192915050565b8061246857600061246b565b60015b60ff1660809092019190915250565b808260c001516000815181106123f7576123f7613b98565b60006001826101c001515110156124aa57600061051c565b816101c001516000815181106124c2576124c2613b98565b602002602001015192915050565b6124d98161253e565b6001600160801b03166101009092019190915250565b60006002826101c0015151101561250757600061051c565b816101c001516001815181106124c2576124c2613b98565b6125288161253e565b6001600160801b03166101609092019190915250565b60006001600160801b03821115610b835760405162461bcd60e51b815260206004820152602760248201527f53616665436173743a2076616c756520646f65736e27742066697420696e20316044820152663238206269747360c81b606482015260840161066a565b60006125b56012600a613fff565b611ec860ff8416600a61400e565b6000612618826040518060400160405280602081526020017f5361666545524332303a206c6f772d6c6576656c2063616c6c206661696c6564815250856001600160a01b0316612a989092919063ffffffff16565b805190915015610c7b57808060200190518101906126369190613a3e565b610c7b5760405162461bcd60e51b815260206004820152602a60248201527f5361666545524332303a204552433230206f7065726174696f6e20646964206e6044820152691bdd081cdd58d8d9595960b21b606482015260840161066a565b6040810151600090156126aa57506000919050565b60608201511515600003611dd45781608001511561270b5760006126dd8360a0015161016001516001600160801b031690565b11156126eb57506000919050565b60a082015161014001516001600160401b03161561270b57506000919050565b611dd4565b600060028260c00151511015801561051c575060008260c0015160018151811061244d5761244d613b98565b811561275e578061274e576000612751565b60015b60ff166080840152505050565b8061276a57600061276d565b60015b60ff16610100840152505050565b600060018260c0015151101561279257600061051c565b8160c001516000815181106124c2576124c2613b98565b600081815260018301602052604081205480156128925760006127cd600183613f08565b85549091506000906127e190600190613f08565b905081811461284657600086600001828154811061280157612801613b98565b906000526020600020015490508087600001848154811061282457612824613b98565b6000918252602080832090910192909255918252600188019052604090208390555b855486908061285757612857614118565b60019003818190600052602060002001600090559055856001016000868152602001908152602001600020600090556001935050505061051c565b600091505061051c565b60008181526001830160205260408120546128e35750815460018181018455600084815260208082209093018490558454848252828601909352604090209190915561051c565b50600061051c565b606061051c6001600160a01b03831660145b6060600061290c83600261401a565b6129179060026137c5565b6001600160401b0381111561292e5761292e612c95565b6040519080825280601f01601f191660200182016040528015612958576020820181803683370190505b509050600360fc1b8160008151811061297357612973613b98565b60200101906001600160f81b031916908160001a905350600f60fb1b816001815181106129a2576129a2613b98565b60200101906001600160f81b031916908160001a90535060006129c684600261401a565b6129d19060016137c5565b90505b6001811115612a49576f181899199a1a9b1b9c1cb0b131b232b360811b85600f1660108110612a0557612a05613b98565b1a60f81b828281518110612a1b57612a1b613b98565b60200101906001600160f81b031916908160001a90535060049490941c93612a428161412e565b90506129d4565b508315611bea5760405162461bcd60e51b815260206004820181905260248201527f537472696e67733a20686578206c656e67746820696e73756666696369656e74604482015260640161066a565b6060611e4d848460008585600080866001600160a01b03168587604051612abf9190614145565b60006040518083038185875af1925050503d8060008114612afc576040519150601f19603f3d011682016040523d82523d6000602084013e612b01565b606091505b5091509150612b1287838387612b1d565b979650505050505050565b60608315612b8c578251600003612b85576001600160a01b0385163b612b855760405162461bcd60e51b815260206004820152601d60248201527f416464726573733a2063616c6c20746f206e6f6e2d636f6e7472616374000000604482015260640161066a565b5081611e4d565b611e4d8383815115612ba15781518083602001fd5b8060405162461bcd60e51b815260040161066a9190614105565b6040805160e08101825260008082526020820181905291810182905260608101829052608081019190915260a08101612bf2612bff565b8152602001606081525090565b604080516101a081018252600080825260208201819052918101829052606081018290526080810182905260a0810182905260c0810182905260e08101829052610100810182905261012081018290526101408101829052610160810182905261018081019190915290565b600060208284031215612c7d57600080fd5b81356001600160e01b031981168114611bea57600080fd5b634e487b7160e01b600052604160045260246000fd5b6040516101e081016001600160401b0381118282101715612cce57612cce612c95565b60405290565b60405161018081016001600160401b0381118282101715612cce57612cce612c95565b60405160c081016001600160401b0381118282101715612cce57612cce612c95565b6040516101a081016001600160401b0381118282101715612cce57612cce612c95565b60405160a081016001600160401b0381118282101715612cce57612cce612c95565b60405160e081016001600160401b0381118282101715612cce57612cce612c95565b604051601f8201601f191681016001600160401b0381118282101715612da857612da8612c95565b604052919050565b6001600160a01b03811681146107ae57600080fd5b8035612dd081612db0565b919050565b80151581146107ae57600080fd5b8035612dd081612dd5565b60ff811681146107ae57600080fd5b8035612dd081612dee565b80356001600160401b0381168114612dd057600080fd5b60006001600160401b03821115612e3857612e38612c95565b5060051b60200190565b600082601f830112612e5357600080fd5b81356020612e68612e6383612e1f565b612d80565b82815260059290921b84018101918181019086841115612e8757600080fd5b8286015b84811015612ea25780358352918301918301612e8b565b509695505050505050565b60006101e08284031215612ec057600080fd5b612ec8612cab565b9050612ed382612dc5565b8152612ee160208301612de3565b602082015260408201356040820152612efc60608301612de3565b6060820152612f0d60808301612dc5565b608082015260a082013560a082015260c082013560c082015260e082013560e0820152610100612f3e818401612de3565b90820152610120612f50838201612dfd565b90820152610140612f62838201612e08565b90820152610160828101359082015261018080830135908201526101a0612f8a818401612dfd565b908201526101c0828101356001600160401b03811115612fa957600080fd5b612fb585828601612e42565b82840152505092915050565b600060208284031215612fd357600080fd5b81356001600160401b03811115612fe957600080fd5b611e4d84828501612ead565b60006020828403121561300757600080fd5b5035919050565b60006020828403121561302057600080fd5b8135611bea81612db0565b6000806040838503121561303e57600080fd5b82359150602083013561305081612db0565b809150509250929050565b803563ffffffff81168114612dd057600080fd5b80356001600160d81b0381168114612dd057600080fd5b6000610180828403121561309957600080fd5b6130a1612cd4565b90506130ac82612dc5565b81526130ba60208301612de3565b60208201526130cb6040830161305b565b60408201526130dc6060830161306f565b60608201526080820135608082015260a082013560a082015260c082013560c082015260e082013560e082015261010080830135818301525061012080830135818301525061014080830135818301525061016080830135818301525092915050565b60006020828403121561315157600080fd5b81356001600160401b038082111561316857600080fd5b90830190610220828603121561317d57600080fd5b613185612cf7565b82358281111561319457600080fd5b6131a087828601612ead565b8252506131b08660208501613086565b60208201526101a0830135828111156131c857600080fd5b6131d487828601612e42565b6040830152506131e76101c08401612dc5565b60608201526131f96101e08401612dc5565b6080820152610200929092013560a0830152509392505050565b60006020828403121561322557600080fd5b8135611bea81612dd5565b600082601f83011261324157600080fd5b81356020613251612e6383612e1f565b82815260059290921b8401810191818101908684111561327057600080fd5b8286015b84811015612ea257803561328781612dd5565b8352918301918301613274565b600080600080608085870312156132aa57600080fd5b84356001600160401b03808211156132c157600080fd5b818701915087601f8301126132d557600080fd5b813560206132e5612e6383612e1f565b82815260059290921b8401810191818101908b84111561330457600080fd5b948201945b8386101561332b57853561331c81612db0565b82529482019490820190613309565b9850508801359250508082111561334157600080fd5b61334d88838901613230565b9450604087013591508082111561336357600080fd5b61336f88838901612e42565b9350606087013591508082111561338557600080fd5b5061339287828801613230565b91505092959194509250565b803565ffffffffffff81168114612dd057600080fd5b80356001600160801b0381168114612dd057600080fd5b60006101a082840312156133de57600080fd5b6133e6612d19565b90506133f182612dfd565b81526133ff6020830161305b565b602082015261341060408301612dfd565b604082015261342160608301612dc5565b60608201526134326080830161339e565b608082015261344360a083016133b4565b60a082015261345460c083016133b4565b60c082015261346560e083016133b4565b60e08201526101006134788184016133b4565b9082015261012061348a838201612e08565b9082015261014061349c838201612e08565b908201526101606134ae8382016133b4565b818301525061018080830135818301525092915050565b600082601f8301126134d657600080fd5b81356001600160401b038111156134ef576134ef612c95565b613502601f8201601f1916602001612d80565b81815284602083860101111561351757600080fd5b816020850160208301376000918101602001919091529392505050565b60006020828403121561354657600080fd5b81356001600160401b038082111561355d57600080fd5b90830190610220828603121561357257600080fd5b61357a612d3c565b61358486846133cb565b81526101a08301358281111561359957600080fd5b6135a587828601612ead565b6020830152506135b86101c08401612dfd565b60408201526101e0830135828111156135d057600080fd5b6135dc878286016134c5565b60608301525061020092909201356080830152509392505050565b60006020828403121561360957600080fd5b81356001600160401b038082111561362057600080fd5b90830190610260828603121561363557600080fd5b61363d612d5e565b61364683612dc5565b815261365460208401612de3565b60208201526040830135604082015261366f60608401612de3565b606082015261368060808401612de3565b60808201526136928660a085016133cb565b60a0820152610240830135828111156136aa57600080fd5b6136b687828601612e42565b60c08301525095945050505050565b6000806000606084860312156136da57600080fd5b83356136e581612db0565b925060208401356136f581612db0565b9150604084013561370581612db0565b809150509250925092565b6000806040838503121561372357600080fd5b823561372e81612db0565b9150602083013561305081612db0565b6020808252825182820181905260009190848201906040850190845b8181101561377f5783516001600160a01b03168352928401929184019160010161375a565b50909695505050505050565b6000806040838503121561379e57600080fd5b505080516020909101519092909150565b634e487b7160e01b600052601160045260246000fd5b8082018082111561051c5761051c6137af565b6000600182016137ea576137ea6137af565b5060010190565b6020808252600e908201526d696e76616c696420706172616d7360901b604082015260600190565b60006020828403121561382b57600080fd5b8151611bea81612db0565b600081518084526020808501945080840160005b838110156138665781518752958201959082019060010161384a565b509495945050505050565b6020815261388b6020820183516001600160a01b03169052565b600060208301516138a0604084018215159052565b506040830151606083015260608301516138be608084018215159052565b5060808301516001600160a01b03811660a08401525060a083015160c083015260c083015160e083015260e083015161010081818501528085015191505061012061390c8185018315159052565b84015190506101406139228482018360ff169052565b840151905061016061393e848201836001600160401b03169052565b840151610180848101919091528401516101a08085019190915284015190506101c061396e8185018360ff169052565b8401516101e0848101529050611e4d610200840182613836565b60006020828403121561399a57600080fd5b5051919050565b6000602082840312156139b357600080fd5b8151611bea81612dee565b81516001600160a01b0316815261014081016020830151602083015260408301516139ed604084018215159052565b50606083015160608301526080830151608083015260a083015160a083015260c083015160c083015260e083015160e083015261010080840151818401525061012080840151818401525092915050565b600060208284031215613a5057600080fd5b8151611bea81612dd5565b8082018281126000831280158216821582161715613a7b57613a7b6137af565b505092915050565b6020808252600e908201526d34b73b30b634b21039b2b73232b960911b604082015260600190565b6020808252600e908201526d1a5b9d985b1a59081b585c9ad95d60921b604082015260600190565b60006101808083018f845260208f818601528e60408601528d151560608601528c60808601528b60a08601528260c08601528192508a518083526101a086019350818c01925060005b81811015613b3857835185529382019392820192600101613b1c565b5050506001600160a01b03891660e08501525090506001600160a01b0386166101008301526001600160a01b03851661012083015260ff84166101408301526001600160401b0383166101608301529d9c50505050505050505050505050565b634e487b7160e01b600052603260045260246000fd5b600081518084526020808501945080840160005b83811015613866578151151587529582019590820190600101613bc2565b6001600160a01b0385168152608060208201819052600090613c0490830186613bae565b8281036040840152613c168186613836565b90508281036060840152612b128185613bae565b60005b83811015613c45578181015183820152602001613c2d565b50506000910152565b60008151808452613c66816020860160208601613c2a565b601f01601f19169290920160200192915050565b881515815287151560208201526001600160401b03871660408201526001600160a01b038616606082015260ff8516608082015261010060a08201819052600090613cc783820187613c4e565b60c0840195909552505060e001529695505050505050565b600061026060018060a01b0383511684526020830151151560208501526040830151604085015260608301511515606085015260808301511515608085015260a0830151613d3360a08601825160ff169052565b602081015163ffffffff1660c0860152604081015160ff1660e086015260608101516001600160a01b0381166101008088019190915260808301519150610120613d868189018465ffffffffffff169052565b60a08401519250610140613da4818a01856001600160801b03169052565b60c08501519350610160613dc2818b01866001600160801b03169052565b60e08601519450610180613de0818c01876001600160801b03169052565b938601516001600160801b039081166101a08c0152928601516001600160401b039081166101c08c0152918601519091166101e08a015284015116610200880152909101516102208601525060c08301516102408501829052613e4582860182613836565b95945050505050565b8d151581528c151560208201526001600160401b038c1660408201526001600160a01b038b16606082015260006101a06001600160801b038c1660808401526001600160801b038b1660a08401526001600160801b038a1660c084015288151560e08401528761010084015286610120840152613ed76101408401876001600160801b03169052565b84151561016084015280610180840152613ef381840185613cdf565b9150509e9d5050505050505050505050505050565b8181038181111561051c5761051c6137af565b600181815b80851115613f56578160001904821115613f3c57613f3c6137af565b80851615613f4957918102915b93841c9390800290613f20565b509250929050565b600082613f6d5750600161051c565b81613f7a5750600061051c565b8160018114613f905760028114613f9a57613fb6565b600191505061051c565b60ff841115613fab57613fab6137af565b50506001821b61051c565b5060208310610133831016604e8410600b8410161715613fd9575081810a61051c565b613fe38383613f1b565b8060001904821115613ff757613ff76137af565b029392505050565b6000611bea60ff841683613f5e565b6000611bea8383613f5e565b808202811582820484141761051c5761051c6137af565b634e487b7160e01b600052601260045260246000fd5b60008261405657614056614031565b500490565b602081526000611bea6020830184613cdf565b600060ff83168061408157614081614031565b8060ff84160691505092915050565b7f416363657373436f6e74726f6c3a206163636f756e74200000000000000000008152600083516140c8816017850160208801613c2a565b7001034b99036b4b9b9b4b733903937b6329607d1b60179184019182015283516140f9816028840160208801613c2a565b01602801949350505050565b602081526000611bea6020830184613c4e565b634e487b7160e01b600052603160045260246000fd5b60008161413d5761413d6137af565b506000190190565b60008251614157818460208701613c2a565b919091019291505056fe8d1089725c0dc266707fa6207730fb801dcd03108bfed7a21099bd303651d2b7a2646970667358221220583af564596a3e19cb57a6ad6a8fcdcbee7b303e136d04a06a2eeac879b8e24764736f6c63430008110033",
  "linkReferences": {},
  "deployedLinkReferences": {}
}