{
  "_format": "hh-sol-artifact-1",
  "contractName": "MarketRouter",
  "sourceName": "contracts/market/MarketRouter.sol",
  "abi": [
    {
      "anonymous": false,
      "inputs": [
        {
          "indexed": true,
          "internalType": "address",
          "name": "account",
          "type": "address"
        },
        {
          "indexed": false,
          "internalType": "bool",
          "name": "isLong",
          "type": "bool"
        },
        {
          "indexed": false,
          "internalType": "bool",
          "name": "isIncrease",
          "type": "bool"
        },
        {
          "indexed": false,
          "internalType": "uint256",
          "name": "orderID",
          "type": "uint256"
        },
        {
          "indexed": false,
          "internalType": "address",
          "name": "market",
          "type": "address"
        },
        {
          "indexed": false,
          "internalType": "uint8",
          "name": "reason",
          "type": "uint8"
        },
        {
          "indexed": false,
          "internalType": "string",
          "name": "reasonStr",
          "type": "string"
        },
        {
          "indexed": false,
          "internalType": "uint256",
          "name": "price",
          "type": "uint256"
        },
        {
          "indexed": false,
          "internalType": "int256",
          "name": "dPNL",
          "type": "int256"
        }
      ],
      "name": "DeleteOrder",
      "type": "event"
    },
    {
      "anonymous": false,
      "inputs": [
        {
          "indexed": false,
          "internalType": "uint8",
          "name": "version",
          "type": "uint8"
        }
      ],
      "name": "Initialized",
      "type": "event"
    },
    {
      "anonymous": false,
      "inputs": [
        {
          "indexed": true,
          "internalType": "address",
          "name": "previousOwner",
          "type": "address"
        },
        {
          "indexed": true,
          "internalType": "address",
          "name": "newOwner",
          "type": "address"
        }
      ],
      "name": "OwnershipTransferred",
      "type": "event"
    },
    {
      "anonymous": false,
      "inputs": [
        {
          "indexed": true,
          "internalType": "bytes32",
          "name": "role",
          "type": "bytes32"
        },
        {
          "indexed": true,
          "internalType": "bytes32",
          "name": "previousAdminRole",
          "type": "bytes32"
        },
        {
          "indexed": true,
          "internalType": "bytes32",
          "name": "newAdminRole",
          "type": "bytes32"
        }
      ],
      "name": "RoleAdminChanged",
      "type": "event"
    },
    {
      "anonymous": false,
      "inputs": [
        {
          "indexed": true,
          "internalType": "bytes32",
          "name": "role",
          "type": "bytes32"
        },
        {
          "indexed": true,
          "internalType": "address",
          "name": "account",
          "type": "address"
        },
        {
          "indexed": true,
          "internalType": "address",
          "name": "sender",
          "type": "address"
        }
      ],
      "name": "RoleGranted",
      "type": "event"
    },
    {
      "anonymous": false,
      "inputs": [
        {
          "indexed": true,
          "internalType": "bytes32",
          "name": "role",
          "type": "bytes32"
        },
        {
          "indexed": true,
          "internalType": "address",
          "name": "account",
          "type": "address"
        },
        {
          "indexed": true,
          "internalType": "address",
          "name": "sender",
          "type": "address"
        }
      ],
      "name": "RoleRevoked",
      "type": "event"
    },
    {
      "anonymous": false,
      "inputs": [
        {
          "indexed": true,
          "internalType": "address",
          "name": "account",
          "type": "address"
        },
        {
          "indexed": false,
          "internalType": "bool",
          "name": "isLong",
          "type": "bool"
        },
        {
          "indexed": false,
          "internalType": "bool",
          "name": "isIncrease",
          "type": "bool"
        },
        {
          "indexed": false,
          "internalType": "uint256",
          "name": "orderID",
          "type": "uint256"
        },
        {
          "indexed": false,
          "internalType": "address",
          "name": "market",
          "type": "address"
        },
        {
          "indexed": false,
          "internalType": "uint256",
          "name": "size",
          "type": "uint256"
        },
        {
          "indexed": false,
          "internalType": "uint256",
          "name": "collateral",
          "type": "uint256"
        },
        {
          "indexed": false,
          "internalType": "uint256",
          "name": "triggerPrice",
          "type": "uint256"
        },
        {
          "indexed": false,
          "internalType": "bool",
          "name": "triggerAbove",
          "type": "bool"
        },
        {
          "indexed": false,
          "internalType": "uint256",
          "name": "tp",
          "type": "uint256"
        },
        {
          "indexed": false,
          "internalType": "uint256",
          "name": "sl",
          "type": "uint256"
        },
        {
          "indexed": false,
          "internalType": "uint128",
          "name": "fromOrder",
          "type": "uint128"
        },
        {
          "indexed": false,
          "internalType": "bool",
          "name": "isKeepLev",
          "type": "bool"
        },
        {
          "components": [
            {
              "internalType": "address",
              "name": "_market",
              "type": "address"
            },
            {
              "internalType": "bool",
              "name": "_isLong",
              "type": "bool"
            },
            {
              "internalType": "uint256",
              "name": "_oraclePrice",
              "type": "uint256"
            },
            {
              "internalType": "bool",
              "name": "isOpen",
              "type": "bool"
            },
            {
              "internalType": "bool",
              "name": "isCreate",
              "type": "bool"
            },
            {
              "components": [
                {
                  "internalType": "uint8",
                  "name": "version",
                  "type": "uint8"
                },
                {
                  "internalType": "uint32",
                  "name": "updatedAtBlock",
                  "type": "uint32"
                },
                {
                  "internalType": "uint8",
                  "name": "triggerAbove",
                  "type": "uint8"
                },
                {
                  "internalType": "address",
                  "name": "account",
                  "type": "address"
                },
                {
                  "internalType": "uint48",
                  "name": "extra3",
                  "type": "uint48"
                },
                {
                  "internalType": "uint128",
                  "name": "collateral",
                  "type": "uint128"
                },
                {
                  "internalType": "uint128",
                  "name": "size",
                  "type": "uint128"
                },
                {
                  "internalType": "uint128",
                  "name": "price",
                  "type": "uint128"
                },
                {
                  "internalType": "uint128",
                  "name": "extra1",
                  "type": "uint128"
                },
                {
                  "internalType": "uint64",
                  "name": "orderID",
                  "type": "uint64"
                },
                {
                  "internalType": "uint64",
                  "name": "extra2",
                  "type": "uint64"
                },
                {
                  "internalType": "uint128",
                  "name": "extra0",
                  "type": "uint128"
                },
                {
                  "internalType": "bytes32",
                  "name": "refCode",
                  "type": "bytes32"
                }
              ],
              "internalType": "struct Order.Props",
              "name": "_order",
              "type": "tuple"
            },
            {
              "internalType": "uint256[]",
              "name": "inputs",
              "type": "uint256[]"
            }
          ],
          "indexed": false,
          "internalType": "struct MarketDataTypes.UpdateOrderInputs",
          "name": "params",
          "type": "tuple"
        }
      ],
      "name": "UpdateOrder",
      "type": "event"
    },
    {
      "anonymous": false,
      "inputs": [
        {
          "indexed": true,
          "internalType": "address",
          "name": "account",
          "type": "address"
        },
        {
          "indexed": false,
          "internalType": "uint256",
          "name": "collateralDelta",
          "type": "uint256"
        },
        {
          "indexed": false,
          "internalType": "int256",
          "name": "collateralDeltaAfter",
          "type": "int256"
        },
        {
          "indexed": false,
          "internalType": "uint256",
          "name": "sizeDelta",
          "type": "uint256"
        },
        {
          "indexed": false,
          "internalType": "bool",
          "name": "isLong",
          "type": "bool"
        },
        {
          "indexed": false,
          "internalType": "uint256",
          "name": "price",
          "type": "uint256"
        },
        {
          "indexed": false,
          "internalType": "int256",
          "name": "pnl",
          "type": "int256"
        },
        {
          "indexed": false,
          "internalType": "int256[]",
          "name": "fees",
          "type": "int256[]"
        },
        {
          "indexed": false,
          "internalType": "address",
          "name": "market",
          "type": "address"
        },
        {
          "indexed": false,
          "internalType": "address",
          "name": "collateralToken",
          "type": "address"
        },
        {
          "indexed": false,
          "internalType": "address",
          "name": "indexToken",
          "type": "address"
        },
        {
          "indexed": false,
          "internalType": "uint256",
          "name": "category",
          "type": "uint256"
        },
        {
          "indexed": false,
          "internalType": "uint64",
          "name": "fromOrder",
          "type": "uint64"
        }
      ],
      "name": "UpdatePosition",
      "type": "event"
    },
    {
      "inputs": [],
      "name": "DEFAULT_ADMIN_ROLE",
      "outputs": [
        {
          "internalType": "bytes32",
          "name": "",
          "type": "bytes32"
        }
      ],
      "stateMutability": "view",
      "type": "function"
    },
    {
      "inputs": [
        {
          "internalType": "address",
          "name": "_market",
          "type": "address"
        },
        {
          "internalType": "address",
          "name": "vault",
          "type": "address"
        }
      ],
      "name": "addMarket",
      "outputs": [],
      "stateMutability": "nonpayable",
      "type": "function"
    },
    {
      "inputs": [
        {
          "internalType": "address[]",
          "name": "_markets",
          "type": "address[]"
        },
        {
          "internalType": "bool[]",
          "name": "_isIncreaseList",
          "type": "bool[]"
        },
        {
          "internalType": "uint256[]",
          "name": "_orderIDList",
          "type": "uint256[]"
        },
        {
          "internalType": "bool[]",
          "name": "_isLongList",
          "type": "bool[]"
        }
      ],
      "name": "cancelOrderList",
      "outputs": [],
      "stateMutability": "nonpayable",
      "type": "function"
    },
    {
      "inputs": [
        {
          "components": [
            {
              "internalType": "address",
              "name": "_market",
              "type": "address"
            },
            {
              "internalType": "bool",
              "name": "_isLong",
              "type": "bool"
            },
            {
              "internalType": "uint256",
              "name": "_oraclePrice",
              "type": "uint256"
            },
            {
              "internalType": "bool",
              "name": "isOpen",
              "type": "bool"
            },
            {
              "internalType": "address",
              "name": "_account",
              "type": "address"
            },
            {
              "internalType": "uint256",
              "name": "_sizeDelta",
              "type": "uint256"
            },
            {
              "internalType": "uint256",
              "name": "_price",
              "type": "uint256"
            },
            {
              "internalType": "uint256",
              "name": "_slippage",
              "type": "uint256"
            },
            {
              "internalType": "bool",
              "name": "_isExec",
              "type": "bool"
            },
            {
              "internalType": "uint8",
              "name": "liqState",
              "type": "uint8"
            },
            {
              "internalType": "uint64",
              "name": "_fromOrder",
              "type": "uint64"
            },
            {
              "internalType": "bytes32",
              "name": "_refCode",
              "type": "bytes32"
            },
            {
              "internalType": "uint256",
              "name": "collateralDelta",
              "type": "uint256"
            },
            {
              "internalType": "uint8",
              "name": "execNum",
              "type": "uint8"
            },
            {
              "internalType": "uint256[]",
              "name": "inputs",
              "type": "uint256[]"
            }
          ],
          "internalType": "struct MarketDataTypes.UpdatePositionInputs",
          "name": "_vars",
          "type": "tuple"
        }
      ],
      "name": "decreasePosition",
      "outputs": [],
      "stateMutability": "nonpayable",
      "type": "function"
    },
    {
      "inputs": [
        {
          "components": [
            {
              "components": [
                {
                  "internalType": "uint8",
                  "name": "version",
                  "type": "uint8"
                },
                {
                  "internalType": "uint32",
                  "name": "updatedAtBlock",
                  "type": "uint32"
                },
                {
                  "internalType": "uint8",
                  "name": "triggerAbove",
                  "type": "uint8"
                },
                {
                  "internalType": "address",
                  "name": "account",
                  "type": "address"
                },
                {
                  "internalType": "uint48",
                  "name": "extra3",
                  "type": "uint48"
                },
                {
                  "internalType": "uint128",
                  "name": "collateral",
                  "type": "uint128"
                },
                {
                  "internalType": "uint128",
                  "name": "size",
                  "type": "uint128"
                },
                {
                  "internalType": "uint128",
                  "name": "price",
                  "type": "uint128"
                },
                {
                  "internalType": "uint128",
                  "name": "extra1",
                  "type": "uint128"
                },
                {
                  "internalType": "uint64",
                  "name": "orderID",
                  "type": "uint64"
                },
                {
                  "internalType": "uint64",
                  "name": "extra2",
                  "type": "uint64"
                },
                {
                  "internalType": "uint128",
                  "name": "extra0",
                  "type": "uint128"
                },
                {
                  "internalType": "bytes32",
                  "name": "refCode",
                  "type": "bytes32"
                }
              ],
              "internalType": "struct Order.Props",
              "name": "order",
              "type": "tuple"
            },
            {
              "components": [
                {
                  "internalType": "address",
                  "name": "_market",
                  "type": "address"
                },
                {
                  "internalType": "bool",
                  "name": "_isLong",
                  "type": "bool"
                },
                {
                  "internalType": "uint256",
                  "name": "_oraclePrice",
                  "type": "uint256"
                },
                {
                  "internalType": "bool",
                  "name": "isOpen",
                  "type": "bool"
                },
                {
                  "internalType": "address",
                  "name": "_account",
                  "type": "address"
                },
                {
                  "internalType": "uint256",
                  "name": "_sizeDelta",
                  "type": "uint256"
                },
                {
                  "internalType": "uint256",
                  "name": "_price",
                  "type": "uint256"
                },
                {
                  "internalType": "uint256",
                  "name": "_slippage",
                  "type": "uint256"
                },
                {
                  "internalType": "bool",
                  "name": "_isExec",
                  "type": "bool"
                },
                {
                  "internalType": "uint8",
                  "name": "liqState",
                  "type": "uint8"
                },
                {
                  "internalType": "uint64",
                  "name": "_fromOrder",
                  "type": "uint64"
                },
                {
                  "internalType": "bytes32",
                  "name": "_refCode",
                  "type": "bytes32"
                },
                {
                  "internalType": "uint256",
                  "name": "collateralDelta",
                  "type": "uint256"
                },
                {
                  "internalType": "uint8",
                  "name": "execNum",
                  "type": "uint8"
                },
                {
                  "internalType": "uint256[]",
                  "name": "inputs",
                  "type": "uint256[]"
                }
              ],
              "internalType": "struct MarketDataTypes.UpdatePositionInputs",
              "name": "inputs",
              "type": "tuple"
            },
            {
              "internalType": "uint8",
              "name": "reason",
              "type": "uint8"
            },
            {
              "internalType": "string",
              "name": "reasonStr",
              "type": "string"
            },
            {
              "internalType": "int256",
              "name": "dPNL",
              "type": "int256"
            }
          ],
          "internalType": "struct MarketOrderCallBackIntl.DeleteOrderEvent",
          "name": "e",
          "type": "tuple"
        }
      ],
      "name": "deleteOrderCallback",
      "outputs": [],
      "stateMutability": "nonpayable",
      "type": "function"
    },
    {
      "inputs": [
        {
          "internalType": "address",
          "name": "account",
          "type": "address"
        }
      ],
      "name": "getAccountSize",
      "outputs": [
        {
          "internalType": "uint256",
          "name": "sizesL",
          "type": "uint256"
        },
        {
          "internalType": "uint256",
          "name": "sizesS",
          "type": "uint256"
        }
      ],
      "stateMutability": "view",
      "type": "function"
    },
    {
      "inputs": [],
      "name": "getGlobalPNL",
      "outputs": [
        {
          "internalType": "int256",
          "name": "pnl",
          "type": "int256"
        }
      ],
      "stateMutability": "view",
      "type": "function"
    },
    {
      "inputs": [],
      "name": "getGlobalSize",
      "outputs": [
        {
          "internalType": "uint256",
          "name": "sizesLong",
          "type": "uint256"
        },
        {
          "internalType": "uint256",
          "name": "sizesShort",
          "type": "uint256"
        }
      ],
      "stateMutability": "view",
      "type": "function"
    },
    {
      "inputs": [],
      "name": "getHooksCalls",
      "outputs": [
        {
          "components": [
            {
              "internalType": "bool",
              "name": "updatePosition",
              "type": "bool"
            },
            {
              "internalType": "bool",
              "name": "updateOrder",
              "type": "bool"
            },
            {
              "internalType": "bool",
              "name": "deleteOrder",
              "type": "bool"
            }
          ],
          "internalType": "struct MarketCallBackIntl.Calls",
          "name": "",
          "type": "tuple"
        }
      ],
      "stateMutability": "pure",
      "type": "function"
    },
    {
      "inputs": [],
      "name": "getMarkets",
      "outputs": [
        {
          "internalType": "address[]",
          "name": "",
          "type": "address[]"
        }
      ],
      "stateMutability": "view",
      "type": "function"
    },
    {
      "inputs": [
        {
          "internalType": "bytes32",
          "name": "role",
          "type": "bytes32"
        }
      ],
      "name": "getRoleAdmin",
      "outputs": [
        {
          "internalType": "bytes32",
          "name": "",
          "type": "bytes32"
        }
      ],
      "stateMutability": "view",
      "type": "function"
    },
    {
      "inputs": [
        {
          "internalType": "bytes32",
          "name": "role",
          "type": "bytes32"
        },
        {
          "internalType": "address",
          "name": "account",
          "type": "address"
        }
      ],
      "name": "grantAndRevoke",
      "outputs": [],
      "stateMutability": "nonpayable",
      "type": "function"
    },
    {
      "inputs": [
        {
          "internalType": "address",
          "name": "_account",
          "type": "address"
        }
      ],
      "name": "grantControllerRoleByMarketManager",
      "outputs": [],
      "stateMutability": "nonpayable",
      "type": "function"
    },
    {
      "inputs": [
        {
          "internalType": "bytes32",
          "name": "role",
          "type": "bytes32"
        },
        {
          "internalType": "address",
          "name": "account",
          "type": "address"
        }
      ],
      "name": "grantRole",
      "outputs": [],
      "stateMutability": "nonpayable",
      "type": "function"
    },
    {
      "inputs": [],
      "name": "gv",
      "outputs": [
        {
          "internalType": "address",
          "name": "",
          "type": "address"
        }
      ],
      "stateMutability": "view",
      "type": "function"
    },
    {
      "inputs": [
        {
          "internalType": "bytes32",
          "name": "role",
          "type": "bytes32"
        },
        {
          "internalType": "address",
          "name": "account",
          "type": "address"
        }
      ],
      "name": "hasRole",
      "outputs": [
        {
          "internalType": "bool",
          "name": "",
          "type": "bool"
        }
      ],
      "stateMutability": "view",
      "type": "function"
    },
    {
      "inputs": [
        {
          "components": [
            {
              "internalType": "address",
              "name": "_market",
              "type": "address"
            },
            {
              "internalType": "bool",
              "name": "_isLong",
              "type": "bool"
            },
            {
              "internalType": "uint256",
              "name": "_oraclePrice",
              "type": "uint256"
            },
            {
              "internalType": "bool",
              "name": "isOpen",
              "type": "bool"
            },
            {
              "internalType": "address",
              "name": "_account",
              "type": "address"
            },
            {
              "internalType": "uint256",
              "name": "_sizeDelta",
              "type": "uint256"
            },
            {
              "internalType": "uint256",
              "name": "_price",
              "type": "uint256"
            },
            {
              "internalType": "uint256",
              "name": "_slippage",
              "type": "uint256"
            },
            {
              "internalType": "bool",
              "name": "_isExec",
              "type": "bool"
            },
            {
              "internalType": "uint8",
              "name": "liqState",
              "type": "uint8"
            },
            {
              "internalType": "uint64",
              "name": "_fromOrder",
              "type": "uint64"
            },
            {
              "internalType": "bytes32",
              "name": "_refCode",
              "type": "bytes32"
            },
            {
              "internalType": "uint256",
              "name": "collateralDelta",
              "type": "uint256"
            },
            {
              "internalType": "uint8",
              "name": "execNum",
              "type": "uint8"
            },
            {
              "internalType": "uint256[]",
              "name": "inputs",
              "type": "uint256[]"
            }
          ],
          "internalType": "struct MarketDataTypes.UpdatePositionInputs",
          "name": "_inputs",
          "type": "tuple"
        }
      ],
      "name": "increasePosition",
      "outputs": [],
      "stateMutability": "nonpayable",
      "type": "function"
    },
    {
      "inputs": [
        {
          "internalType": "address",
          "name": "_f",
          "type": "address"
        },
        {
          "internalType": "address",
          "name": "_gv",
          "type": "address"
        },
        {
          "internalType": "address",
          "name": "vr",
          "type": "address"
        }
      ],
      "name": "initialize",
      "outputs": [],
      "stateMutability": "nonpayable",
      "type": "function"
    },
    {
      "inputs": [],
      "name": "isEnableMarketConvertToOrder",
      "outputs": [
        {
          "internalType": "bool",
          "name": "",
          "type": "bool"
        }
      ],
      "stateMutability": "view",
      "type": "function"
    },
    {
      "inputs": [],
      "name": "owner",
      "outputs": [
        {
          "internalType": "address",
          "name": "",
          "type": "address"
        }
      ],
      "stateMutability": "view",
      "type": "function"
    },
    {
      "inputs": [
        {
          "internalType": "address",
          "name": "_market",
          "type": "address"
        }
      ],
      "name": "removeMarket",
      "outputs": [],
      "stateMutability": "nonpayable",
      "type": "function"
    },
    {
      "inputs": [],
      "name": "renounceOwnership",
      "outputs": [],
      "stateMutability": "nonpayable",
      "type": "function"
    },
    {
      "inputs": [
        {
          "internalType": "bytes32",
          "name": "role",
          "type": "bytes32"
        },
        {
          "internalType": "address",
          "name": "account",
          "type": "address"
        }
      ],
      "name": "renounceRole",
      "outputs": [],
      "stateMutability": "nonpayable",
      "type": "function"
    },
    {
      "inputs": [
        {
          "internalType": "bytes32",
          "name": "role",
          "type": "bytes32"
        },
        {
          "internalType": "address",
          "name": "account",
          "type": "address"
        }
      ],
      "name": "revokeRole",
      "outputs": [],
      "stateMutability": "nonpayable",
      "type": "function"
    },
    {
      "inputs": [
        {
          "internalType": "bool",
          "name": "_isEnableMarketConvertToOrder",
          "type": "bool"
        }
      ],
      "name": "setIsEnableMarketConvertToOrder",
      "outputs": [],
      "stateMutability": "nonpayable",
      "type": "function"
    },
    {
      "inputs": [
        {
          "internalType": "bytes4",
          "name": "interfaceId",
          "type": "bytes4"
        }
      ],
      "name": "supportsInterface",
      "outputs": [
        {
          "internalType": "bool",
          "name": "",
          "type": "bool"
        }
      ],
      "stateMutability": "view",
      "type": "function"
    },
    {
      "inputs": [
        {
          "internalType": "address",
          "name": "to",
          "type": "address"
        }
      ],
      "name": "transferAdmin",
      "outputs": [],
      "stateMutability": "nonpayable",
      "type": "function"
    },
    {
      "inputs": [
        {
          "internalType": "address",
          "name": "newOwner",
          "type": "address"
        }
      ],
      "name": "transferOwnership",
      "outputs": [],
      "stateMutability": "nonpayable",
      "type": "function"
    },
    {
      "inputs": [
        {
          "components": [
            {
              "internalType": "address",
              "name": "_market",
              "type": "address"
            },
            {
              "internalType": "bool",
              "name": "_isLong",
              "type": "bool"
            },
            {
              "internalType": "uint256",
              "name": "_oraclePrice",
              "type": "uint256"
            },
            {
              "internalType": "bool",
              "name": "isOpen",
              "type": "bool"
            },
            {
              "internalType": "bool",
              "name": "isCreate",
              "type": "bool"
            },
            {
              "components": [
                {
                  "internalType": "uint8",
                  "name": "version",
                  "type": "uint8"
                },
                {
                  "internalType": "uint32",
                  "name": "updatedAtBlock",
                  "type": "uint32"
                },
                {
                  "internalType": "uint8",
                  "name": "triggerAbove",
                  "type": "uint8"
                },
                {
                  "internalType": "address",
                  "name": "account",
                  "type": "address"
                },
                {
                  "internalType": "uint48",
                  "name": "extra3",
                  "type": "uint48"
                },
                {
                  "internalType": "uint128",
                  "name": "collateral",
                  "type": "uint128"
                },
                {
                  "internalType": "uint128",
                  "name": "size",
                  "type": "uint128"
                },
                {
                  "internalType": "uint128",
                  "name": "price",
                  "type": "uint128"
                },
                {
                  "internalType": "uint128",
                  "name": "extra1",
                  "type": "uint128"
                },
                {
                  "internalType": "uint64",
                  "name": "orderID",
                  "type": "uint64"
                },
                {
                  "internalType": "uint64",
                  "name": "extra2",
                  "type": "uint64"
                },
                {
                  "internalType": "uint128",
                  "name": "extra0",
                  "type": "uint128"
                },
                {
                  "internalType": "bytes32",
                  "name": "refCode",
                  "type": "bytes32"
                }
              ],
              "internalType": "struct Order.Props",
              "name": "_order",
              "type": "tuple"
            },
            {
              "internalType": "uint256[]",
              "name": "inputs",
              "type": "uint256[]"
            }
          ],
          "internalType": "struct MarketDataTypes.UpdateOrderInputs",
          "name": "_vars",
          "type": "tuple"
        }
      ],
      "name": "updateOrder",
      "outputs": [],
      "stateMutability": "nonpayable",
      "type": "function"
    },
    {
      "inputs": [
        {
          "components": [
            {
              "internalType": "address",
              "name": "_market",
              "type": "address"
            },
            {
              "internalType": "bool",
              "name": "_isLong",
              "type": "bool"
            },
            {
              "internalType": "uint256",
              "name": "_oraclePrice",
              "type": "uint256"
            },
            {
              "internalType": "bool",
              "name": "isOpen",
              "type": "bool"
            },
            {
              "internalType": "bool",
              "name": "isCreate",
              "type": "bool"
            },
            {
              "components": [
                {
                  "internalType": "uint8",
                  "name": "version",
                  "type": "uint8"
                },
                {
                  "internalType": "uint32",
                  "name": "updatedAtBlock",
                  "type": "uint32"
                },
                {
                  "internalType": "uint8",
                  "name": "triggerAbove",
                  "type": "uint8"
                },
                {
                  "internalType": "address",
                  "name": "account",
                  "type": "address"
                },
                {
                  "internalType": "uint48",
                  "name": "extra3",
                  "type": "uint48"
                },
                {
                  "internalType": "uint128",
                  "name": "collateral",
                  "type": "uint128"
                },
                {
                  "internalType": "uint128",
                  "name": "size",
                  "type": "uint128"
                },
                {
                  "internalType": "uint128",
                  "name": "price",
                  "type": "uint128"
                },
                {
                  "internalType": "uint128",
                  "name": "extra1",
                  "type": "uint128"
                },
                {
                  "internalType": "uint64",
                  "name": "orderID",
                  "type": "uint64"
                },
                {
                  "internalType": "uint64",
                  "name": "extra2",
                  "type": "uint64"
                },
                {
                  "internalType": "uint128",
                  "name": "extra0",
                  "type": "uint128"
                },
                {
                  "internalType": "bytes32",
                  "name": "refCode",
                  "type": "bytes32"
                }
              ],
              "internalType": "struct Order.Props",
              "name": "_order",
              "type": "tuple"
            },
            {
              "internalType": "uint256[]",
              "name": "inputs",
              "type": "uint256[]"
            }
          ],
          "internalType": "struct MarketDataTypes.UpdateOrderInputs",
          "name": "_event",
          "type": "tuple"
        }
      ],
      "name": "updateOrderCallback",
      "outputs": [],
      "stateMutability": "nonpayable",
      "type": "function"
    },
    {
      "inputs": [
        {
          "internalType": "address",
          "name": "newA",
          "type": "address"
        }
      ],
      "name": "updatePositionBook",
      "outputs": [],
      "stateMutability": "nonpayable",
      "type": "function"
    },
    {
      "inputs": [
        {
          "components": [
            {
              "components": [
                {
                  "internalType": "address",
                  "name": "_market",
                  "type": "address"
                },
                {
                  "internalType": "bool",
                  "name": "_isLong",
                  "type": "bool"
                },
                {
                  "internalType": "uint256",
                  "name": "_oraclePrice",
                  "type": "uint256"
                },
                {
                  "internalType": "bool",
                  "name": "isOpen",
                  "type": "bool"
                },
                {
                  "internalType": "address",
                  "name": "_account",
                  "type": "address"
                },
                {
                  "internalType": "uint256",
                  "name": "_sizeDelta",
                  "type": "uint256"
                },
                {
                  "internalType": "uint256",
                  "name": "_price",
                  "type": "uint256"
                },
                {
                  "internalType": "uint256",
                  "name": "_slippage",
                  "type": "uint256"
                },
                {
                  "internalType": "bool",
                  "name": "_isExec",
                  "type": "bool"
                },
                {
                  "internalType": "uint8",
                  "name": "liqState",
                  "type": "uint8"
                },
                {
                  "internalType": "uint64",
                  "name": "_fromOrder",
                  "type": "uint64"
                },
                {
                  "internalType": "bytes32",
                  "name": "_refCode",
                  "type": "bytes32"
                },
                {
                  "internalType": "uint256",
                  "name": "collateralDelta",
                  "type": "uint256"
                },
                {
                  "internalType": "uint8",
                  "name": "execNum",
                  "type": "uint8"
                },
                {
                  "internalType": "uint256[]",
                  "name": "inputs",
                  "type": "uint256[]"
                }
              ],
              "internalType": "struct MarketDataTypes.UpdatePositionInputs",
              "name": "inputs",
              "type": "tuple"
            },
            {
              "components": [
                {
                  "internalType": "address",
                  "name": "market",
                  "type": "address"
                },
                {
                  "internalType": "bool",
                  "name": "isLong",
                  "type": "bool"
                },
                {
                  "internalType": "uint32",
                  "name": "lastTime",
                  "type": "uint32"
                },
                {
                  "internalType": "uint216",
                  "name": "extra3",
                  "type": "uint216"
                },
                {
                  "internalType": "uint256",
                  "name": "size",
                  "type": "uint256"
                },
                {
                  "internalType": "uint256",
                  "name": "collateral",
                  "type": "uint256"
                },
                {
                  "internalType": "uint256",
                  "name": "averagePrice",
                  "type": "uint256"
                },
                {
                  "internalType": "int256",
                  "name": "entryFundingRate",
                  "type": "int256"
                },
                {
                  "internalType": "int256",
                  "name": "realisedPnl",
                  "type": "int256"
                },
                {
                  "internalType": "uint256",
                  "name": "extra0",
                  "type": "uint256"
                },
                {
                  "internalType": "uint256",
                  "name": "extra1",
                  "type": "uint256"
                },
                {
                  "internalType": "uint256",
                  "name": "extra2",
                  "type": "uint256"
                }
              ],
              "internalType": "struct Position.Props",
              "name": "position",
              "type": "tuple"
            },
            {
              "internalType": "int256[]",
              "name": "fees",
              "type": "int256[]"
            },
            {
              "internalType": "address",
              "name": "collateralToken",
              "type": "address"
            },
            {
              "internalType": "address",
              "name": "indexToken",
              "type": "address"
            },
            {
              "internalType": "int256",
              "name": "collateralDeltaAfter",
              "type": "int256"
            }
          ],
          "internalType": "struct MarketPositionCallBackIntl.UpdatePositionEvent",
          "name": "_event",
          "type": "tuple"
        }
      ],
      "name": "updatePositionCallback",
      "outputs": [],
      "stateMutability": "nonpayable",
      "type": "function"
    },
    {
      "inputs": [
        {
          "components": [
            {
              "internalType": "address",
              "name": "_market",
              "type": "address"
            },
            {
              "internalType": "bool",
              "name": "_isLong",
              "type": "bool"
            },
            {
              "internalType": "uint256",
              "name": "_oraclePrice",
              "type": "uint256"
            },
            {
              "internalType": "bool",
              "name": "isOpen",
              "type": "bool"
            },
            {
              "internalType": "address",
              "name": "_account",
              "type": "address"
            },
            {
              "internalType": "uint256",
              "name": "_sizeDelta",
              "type": "uint256"
            },
            {
              "internalType": "uint256",
              "name": "_price",
              "type": "uint256"
            },
            {
              "internalType": "uint256",
              "name": "_slippage",
              "type": "uint256"
            },
            {
              "internalType": "bool",
              "name": "_isExec",
              "type": "bool"
            },
            {
              "internalType": "uint8",
              "name": "liqState",
              "type": "uint8"
            },
            {
              "internalType": "uint64",
              "name": "_fromOrder",
              "type": "uint64"
            },
            {
              "internalType": "bytes32",
              "name": "_refCode",
              "type": "bytes32"
            },
            {
              "internalType": "uint256",
              "name": "collateralDelta",
              "type": "uint256"
            },
            {
              "internalType": "uint8",
              "name": "execNum",
              "type": "uint8"
            },
            {
              "internalType": "uint256[]",
              "name": "inputs",
              "type": "uint256[]"
            }
          ],
          "internalType": "struct MarketDataTypes.UpdatePositionInputs",
          "name": "_inputs",
          "type": "tuple"
        }
      ],
      "name": "validateIncreasePosition",
      "outputs": [],
      "stateMutability": "view",
      "type": "function"
    },
    {
      "inputs": [],
      "name": "vaultRouter",
      "outputs": [
        {
          "internalType": "address",
          "name": "",
          "type": "address"
        }
      ],
      "stateMutability": "view",
      "type": "function"
    }
  ],
  "bytecode": "0x60806040523480156200001157600080fd5b506200001d3362000028565b60016003556200007a565b600180546001600160a01b038381166001600160a01b0319831681179093556040519116919082907f8be0079c531659141344cd1fd0a4f28419497f9722a3daafe3b4186f6b6457e090600090a35050565b6141ce806200008a6000396000f3fe608060405234801561001057600080fd5b50600436106102065760003560e01c80637fe4a6981161011a578063c0c53b8b116100ad578063d547741f1161007c578063d547741f146104a8578063db913236146104bb578063de1f4430146104ce578063ec2c9016146104e1578063f2fde38b146104f657600080fd5b8063c0c53b8b1461045c578063cce9a2f31461046f578063cd6ebf6614610482578063d37c441c1461049557600080fd5b806399d5c1ec116100e957806399d5c1ec1461041b578063a217fddf1461042e578063abed961814610436578063b038beb81461044957600080fd5b80637fe4a698146103b95780638b4400f2146103cc5780638da5cb5b146103f757806391d148541461040857600080fd5b8063332013a71161019d578063544781af1161016c578063544781af14610324578063612c39b714610337578063715018a61461038b578063718cb58a1461039357806375829def146103a657600080fd5b8063332013a7146102d757806336568abe146102eb57806340a542fe146102fe5780634463b5bc1461031157600080fd5b80632073b0ce116101d95780632073b0ce14610278578063248a9ca31461028e5780632ca6d2c0146102b15780632f2ff15d146102c457600080fd5b806301ffc9a71461020b5780630799f55f146102335780630d918caa146102505780631cfe582814610265575b600080fd5b61021e610219366004612cd4565b610509565b60405190151581526020015b60405180910390f35b61023b610540565b6040805192835260208301919091520161022a565b61026361025e36600461302a565b610603565b005b61026361027336600461302a565b6107aa565b610280610ad0565b60405190815260200161022a565b61028061029c36600461305e565b60009081526020819052604090206001015490565b61023b6102bf366004613077565b610b80565b6102636102d2366004613094565b610c4f565b600a5461021e90600160a01b900460ff1681565b6102636102f9366004613094565b610c79565b61026361030c3660046131a8565b610cf7565b61026361031f36600461327c565b610e4c565b6102636103323660046132fd565b610e83565b6040805160608082018352600080835260208084018290529284015282518082018452600180825281840181815291850181815285519182529151151593810193909352511515928201929092520161022a565b61026361127f565b6102636103a136600461359d565b611293565b6102636103b4366004613077565b611367565b6102636103c7366004613077565b611391565b6009546103df906001600160a01b031681565b6040516001600160a01b03909116815260200161022a565b6001546001600160a01b03166103df565b61021e610416366004613094565b6113a9565b610263610429366004613094565b6113d2565b610280600081565b61026361044436600461302a565b611470565b610263610457366004613660565b61153e565b61026361046a36600461372e565b61154f565b61026361047d366004613660565b6116b9565b610263610490366004613077565b61180c565b600a546103df906001600160a01b031681565b6102636104b6366004613094565b611986565b6102636104c9366004613077565b6119ab565b6102636104dc366004613779565b611a6a565b6104e9611bbf565b60405161022a91906137a7565b610263610504366004613077565b611bd0565b60006001600160e01b03198216637965db0b60e01b148061053a57506301ffc9a760e01b6001600160e01b03198316145b92915050565b60008060005b6105506005611c46565b518110156105fe576000610565600583611c5a565b9050600080826001600160a01b0316638749694a6040518163ffffffff1660e01b81526004016040805180830381865afa1580156105a7573d6000803e3d6000fd5b505050506040513d601f19601f820116820180604052508101906105cb91906137f4565b90925090506105da828761382e565b95506105e6818661382e565b945050505080806105f690613841565b915050610546565b509091565b61060b611c66565b600a54600160a01b900460ff168015610628575060008160a00151115b1561063b5761063681611cbf565b61079d565b805161064990600790611dfe565b6106915760405162461bcd60e51b815260206004820152601460248201527313585c9ad95d149bdd5d195c8e885b585c9ad95d60621b60448201526064015b60405180910390fd5b6000816000015190506000816001600160a01b031663b2016bd46040518163ffffffff1660e01b8152600401602060405180830381865afa1580156106da573d6000803e3d6000fd5b505050506040513d601f19601f820116820180604052508101906106fe919061385a565b905061072a33846000015161071884876101800151611e20565b6001600160a01b038516929190611e99565b336080840152610739836107aa565b8251604051631def7c1d60e11b81526001600160a01b0390911690633bdef83a906107689086906004016138b2565b600060405180830381600087803b15801561078257600080fd5b505af1158015610796573d6000803e3d6000fd5b5050505050505b6107a76001600355565b50565b80516001600160a01b03908116600090815260046020908152604080832054815161014081018352848152808401858152928101858152606082018690526080820186905260a080830187905260c0830187905260e0830187905261010083018790526101208301969096528751871682529487015190925291850151151590925290911690610838610540565b608080840191909152606083019190915283015161085590610b80565b60c083015260a0820152604080516343a4b4a560e11b815281516001600160a01b03851692638749694a92600480820193918290030181865afa1580156108a0573d6000803e3d6000fd5b505050506040513d601f19601f820116820180604052508101906108c491906137f4565b61010083015260e0820152825160408051632c805af560e21b815290516000926001600160a01b03169163b2016bd49160048083019260209291908290030181865afa158015610918573d6000803e3d6000fd5b505050506040513d601f19601f8201168201806040525081019061093c919061385a565b9050610a1f600a60009054906101000a90046001600160a01b03166001600160a01b0316636dc7b0a16040518163ffffffff1660e01b8152600401602060405180830381865afa158015610994573d6000803e3d6000fd5b505050506040513d601f19601f820116820180604052508101906109b891906139c9565b826001600160a01b031663313ce5676040518163ffffffff1660e01b8152600401602060405180830381865afa1580156109f6573d6000803e3d6000fd5b505050506040513d601f19601f82011682018060405250810190610a1a91906139e2565b611ef3565b61012083015260095460405163028c7b5160e41b81526001600160a01b03909116906328c7b51090610a559085906004016139ff565b602060405180830381865afa158015610a72573d6000803e3d6000fd5b505050506040513d601f19601f82011682018060405250810190610a969190613a7f565b610aca5760405162461bcd60e51b815260206004820152600560248201526436b91d33bb60d91b6044820152606401610688565b50505050565b6000805b610ade6007611c46565b51811015610b7c576000610af3600783611c5a565b90506000816001600160a01b03166393a98e6c6040518163ffffffff1660e01b8152600401602060405180830381865afa158015610b35573d6000803e3d6000fd5b505050506040513d601f19601f82011682018060405250810190610b5991906139c9565b9050610b658185613a9c565b935050508080610b7490613841565b915050610ad4565b5090565b60008060005b610b906005611c46565b51811015610c49576000610ba5600583611c5a565b60405162b29b4b60e61b81526001600160a01b038781166004830152919250600091829190841690632ca6d2c0906024016040805180830381865afa158015610bf2573d6000803e3d6000fd5b505050506040513d601f19601f82011682018060405250810190610c1691906137f4565b9092509050610c25828761382e565b9550610c31818661382e565b94505050508080610c4190613841565b915050610b86565b50915091565b600082815260208190526040902060010154610c6a81611f20565b610c748383611f2a565b505050565b6001600160a01b0381163314610ce95760405162461bcd60e51b815260206004820152602f60248201527f416363657373436f6e74726f6c3a2063616e206f6e6c792072656e6f756e636560448201526e103937b632b9903337b91039b2b63360891b6064820152608401610688565b610cf38282611fae565b5050565b8051516001600160a01b03163314610d215760405162461bcd60e51b815260040161068890613ac4565b610d2c600733611dfe565b610d485760405162461bcd60e51b815260040161068890613aec565b80516060015160019015610d7357815160a00151600003610d6b57506002610db6565b506000610db6565b8151610120015160ff16600103610d8c57506004610db6565b8151610120015160ff16600203610da557506005610db6565b815160a00151600003610db6575060035b815160808082015161018083015160a08087015190850151602080870151604080890151928b01516101000151818c01518a5160608e01519a8e0151610140909c015193516001600160a01b03909a169b7fd0abfef5eb2cd61e6fd56ea2b69e9867bc90e8589023c554bdade2287b28c9399b610e409b96979694959394929390928f9190613b14565b60405180910390a25050565b600080516020614179833981519152610e6481611f20565b50600a8054911515600160a01b0260ff60a01b19909216919091179055565b610e8b611c66565b82518451148015610e9d575081518351145b8015610eaa575080518251145b610ef65760405162461bcd60e51b815260206004820152601a60248201527f4172726179206c656e6774687320646f206e6f74206d617463680000000000006044820152606401610688565b604080516001808252818301909252600091602080830190803683375050604080516001808252818301909252929350600092915060208083019080368337505060408051600180825281830190925292935060009291506020808301908036833701905050905060005b875181101561127157610f97888281518110610f7f57610f7f613bd9565b60200260200101516007611dfe90919063ffffffff16565b610fb35760405162461bcd60e51b815260040161068890613aec565b6000610fc082600161382e565b90505b885181101561112957888181518110610fde57610fde613bd9565b60200260200101516001600160a01b031689838151811061100157611001613bd9565b60200260200101516001600160a01b0316148015611054575087818151811061102c5761102c613bd9565b6020026020010151151588838151811061104857611048613bd9565b60200260200101511515145b8015611091575086818151811061106d5761106d613bd9565b602002602001015187838151811061108757611087613bd9565b6020026020010151145b80156110d257508581815181106110aa576110aa613bd9565b602002602001015115158683815181106110c6576110c6613bd9565b60200260200101511515145b156111175760405162461bcd60e51b8152602060048201526015602482015274111d5c1b1a58d85d19481bdc99195c88199bdd5b99605a1b6044820152606401610688565b8061112181613841565b915050610fc3565b5086818151811061113c5761113c613bd9565b60200260200101518460008151811061115757611157613bd9565b60200260200101901515908115158152505085818151811061117b5761117b613bd9565b60200260200101518360008151811061119657611196613bd9565b6020026020010181815250508481815181106111b4576111b4613bd9565b6020026020010151826000815181106111cf576111cf613bd9565b6020026020010190151590811515815250508781815181106111f3576111f3613bd9565b60200260200101516001600160a01b031663301f6fe9338686866040518563ffffffff1660e01b815260040161122c9493929190613c21565b600060405180830381600087803b15801561124657600080fd5b505af115801561125a573d6000803e3d6000fd5b50505050808061126990613841565b915050610f61565b50505050610aca6001600355565b611287612013565b611291600061206d565b565b6020810151516001600160a01b031633146112c05760405162461bcd60e51b815260040161068890613ac4565b6112cb600733611dfe565b6112e75760405162461bcd60e51b815260040161068890613aec565b80516060808201516020808501519081015181840151610120909501518251604080890151968901519481015160808a015191516001600160a01b03909716987f083f7516dcfe13a8bef8bcbbe89648ce92bfd7161733f88ba43e1049de6af1b49861135c9896979196909391929190613cbb565b60405180910390a250565b600061137281611f20565b61137d6000836120bf565b6113868261206d565b610cf3600033611fae565b60008051602061417983398151915261020681611f20565b6000918252602082815260408084206001600160a01b0393909316845291905290205460ff1690565b7f241ecf16d79d0f8dbfb92cbc07fe17840425976cf0667f022fe9877caa831b0860006113ff81336113a9565b9050801561145c5762015180600254426114199190613d20565b106114575760405162461bcd60e51b815260206004820152600e60248201526d1858c81d1a5b59481c185cdcd95960921b6044820152606401610688565b611466565b61146682336120c9565b610aca8484611f2a565b611478611c66565b600a54600160a01b900460ff168015611495575060008160a00151115b156114a35761063681611cbf565b80516114b190600790611dfe565b6114cd5760405162461bcd60e51b815260040161068890613aec565b336080820152805160405163157db2c360e31b81526001600160a01b039091169063abed9618906115029084906004016138b2565b600060405180830381600087803b15801561151c57600080fd5b505af1158015611530573d6000803e3d6000fd5b505050506107a76001600355565b611546611c66565b61079d81612122565b600154600160a81b900460ff1615808015611575575060018054600160a01b900460ff16105b806115955750303b158015611595575060018054600160a01b900460ff16145b6115f85760405162461bcd60e51b815260206004820152602e60248201527f496e697469616c697a61626c653a20636f6e747261637420697320616c72656160448201526d191e481a5b9a5d1a585b1a5e995960921b6064820152608401610688565b6001805460ff60a01b1916600160a01b1790558015611625576001805460ff60a81b1916600160a81b1790555b61162e846122bc565b600980546001600160a01b038086166001600160a01b031990921691909117909155600a80546001600160a81b03191691841691909117600160a01b1790558015610aca576001805460ff60a81b191681556040519081527f7f26b83ff96e1f2b6a682f133852f6798a09c465da95921460cefb38474024989060200160405180910390a150505050565b80516001600160a01b031633146116e25760405162461bcd60e51b815260040161068890613ac4565b6116ed600733611dfe565b6117095760405162461bcd60e51b815260040161068890613aec565b60a080820151606080820151602085015191850151610120840151865160c08601519686015160e08701516001600160a01b03909516977fc1a292b7363ad930d02501a9224823f3fc6d6433978aa670da66b24004eaac71979495939492939092611773906122df565b8a60600151611783576000611797565b60a08b015161010001516001600160801b03165b8b606001516117a75760006117bb565b60a08c015161016001516001600160801b03165b8c606001516117dc5760a08d015161016001516001600160801b03166117df565b60005b60a08e01516080015165ffffffffffff1615158e60405161135c9d9c9b9a99989796959493929190613ea2565b60008051602061417983398151915261182481611f20565b6001600160a01b03821661183757600080fd5b33611843600782611dfe565b61185f5760405162461bcd60e51b815260040161068890613aec565b6118cc816001600160a01b031663ac0b05a66040518163ffffffff1660e01b8152600401602060405180830381865afa1580156118a0573d6000803e3d6000fd5b505050506040513d601f19601f820116820180604052508101906118c4919061385a565b600590612357565b506000816001600160a01b031663ac0b05a66040518163ffffffff1660e01b8152600401602060405180830381865afa15801561190d573d6000803e3d6000fd5b505050506040513d601f19601f82011682018060405250810190611931919061385a565b905061193e600582612357565b5061194a60058561236c565b61195357600080fd5b506001600160a01b0390811660009081526004602052604090208054919093166001600160a01b03199091161790915550565b6000828152602081905260409020600101546119a181611f20565b610c748383611fae565b6000805160206141798339815191526119c381611f20565b6000826001600160a01b031663ac0b05a66040518163ffffffff1660e01b8152600401602060405180830381865afa158015611a03573d6000803e3d6000fd5b505050506040513d601f19601f82011682018060405250810190611a27919061385a565b9050611a34600784612357565b50611a40600582612357565b5050506001600160a01b0316600090815260046020526040902080546001600160a01b0319169055565b6000805160206141798339815191526000611a8581336113a9565b90508015611ae2576201518060025442611a9f9190613d20565b10611add5760405162461bcd60e51b815260206004820152600e60248201526d1858c81d1a5b59481c185cdcd95960921b6044820152606401610688565b611aec565b611aec82336120c9565b6001600160a01b038416611aff57600080fd5b6000846001600160a01b031663ac0b05a66040518163ffffffff1660e01b8152600401602060405180830381865afa158015611b3f573d6000803e3d6000fd5b505050506040513d601f19601f82011682018060405250810190611b63919061385a565b9050611b7060078661236c565b611b7957600080fd5b611b8460058261236c565b611b8d57600080fd5b6001600160a01b03948516600090815260046020526040902080546001600160a01b0319169190951617909355505050565b6060611bcb6007611c46565b905090565b611bd8612013565b6001600160a01b038116611c3d5760405162461bcd60e51b815260206004820152602660248201527f4f776e61626c653a206e6577206f776e657220697320746865207a65726f206160448201526564647265737360d01b6064820152608401610688565b6107a78161206d565b60606000611c5383612381565b9392505050565b6000611c5383836123dd565b600260035403611cb85760405162461bcd60e51b815260206004820152601f60248201527f5265656e7472616e637947756172643a207265656e7472616e742063616c6c006044820152606401610688565b6002600355565b611cc7612c24565b6060820151611cd7908290612407565b611ce2816001612434565b60e0820151611cf290829061246d565b81516001600160a01b0316815260208083015115159082015260016080820152611d1a612c68565b60608301511515600003611d4057611d3b611d3484612485565b82906124c2565b611d77565b610180830151611d519083906124e0565b611d64611d5d846124f8565b8290612536565b611d77611d7084612555565b8290612585565b611d858361018001516125a4565b6001600160801b031660a08083019190915260808401516001600160a01b03166060830152830151611db6906125a4565b6001600160801b031660c080830191909152830151611dd4906125a4565b6001600160801b031660e082015261016083015161018082015260a08201819052610c7482612122565b6001600160a01b03811660009081526001830160205260408120541515611c53565b600080836001600160a01b031663313ce5676040518163ffffffff1660e01b8152600401602060405180830381865afa158015611e61573d6000803e3d6000fd5b505050506040513d601f19601f82011682018060405250810190611e8591906139e2565b9050611e91838261260d565b949350505050565b604080516001600160a01b0385811660248301528416604482015260648082018490528251808303909101815260849091019091526020810180516001600160e01b03166323b872dd60e01b179052610aca908590612629565b6000611f0082600a614040565b611f0c6012600a61404f565b611f16908561405b565b611c539190614072565b6107a781336120c9565b611f3482826113a9565b610cf3576000828152602081815260408083206001600160a01b03851684529091529020805460ff19166001179055611f6a3390565b6001600160a01b0316816001600160a01b0316837f2f8788117e7eff1d82e926ec794901d17c78024a50270940304540a733656f0d60405160405180910390a45050565b611fb882826113a9565b15610cf3576000828152602081815260408083206001600160a01b0385168085529252808320805460ff1916905551339285917ff6391f5c32d9c69d2a47ea670b442974b53935d1edc7fd64eb21e047a839171b9190a45050565b6001546001600160a01b031633146112915760405162461bcd60e51b815260206004820181905260248201527f4f776e61626c653a2063616c6c6572206973206e6f7420746865206f776e65726044820152606401610688565b600180546001600160a01b038381166001600160a01b0319831681179093556040519116919082907f8be0079c531659141344cd1fd0a4f28419497f9722a3daafe3b4186f6b6457e090600090a35050565b610cf38282611f2a565b6120d382826113a9565b610cf3576120e0816126fb565b6120eb83602061270d565b6040516020016120fc929190614094565b60408051601f198184030181529082905262461bcd60e51b825261068891600401614109565b805161213090600790611dfe565b61214c5760405162461bcd60e51b815260040161068890613aec565b612155816128a8565b6121925760405162461bcd60e51b815260206004820152600e60248201526d696e76616c696420706172616d7360901b6044820152606401610688565b60a0810151336060918201528101516121ba906121ae83612926565b60a08401519190612952565b806060015180156121cc575080608001515b1561225857600081600001516001600160a01b031663b2016bd46040518163ffffffff1660e01b8152600401602060405180830381865afa158015612215573d6000803e3d6000fd5b505050506040513d601f19601f82011682018060405250810190612239919061385a565b90506122563383600001516107188461225187612991565b611e20565b505b805160405163160717d760e31b81526001600160a01b039091169063b038beb89061228790849060040161411c565b600060405180830381600087803b1580156122a157600080fd5b505af11580156122b5573d6000803e3d6000fd5b5050505050565b426002556122c93361206d565b6122d46000336120bf565b6107a76000826120bf565b6000816040015160ff166001036122f857506001919050565b816040015160ff1660020361230f57506000919050565b60405162461bcd60e51b815260206004820152601b60248201527f696e76616c6964206f7264657220747269676765722061626f766500000000006044820152606401610688565b6000611c53836001600160a01b0384166129bf565b6000611c53836001600160a01b038416612ab2565b6060816000018054806020026020016040519081016040528092919081815260200182805480156123d157602002820191906000526020600020905b8154815260200190600101908083116123bd575b50505050509050919050565b60008260000182815481106123f4576123f4613bd9565b9060005260206000200154905092915050565b60408051600380825260808201909252906020820160608036833750505060c08301521515606090910152565b80612440576000612443565b60015b60ff168260c0015160018151811061245d5761245d613bd9565b6020026020010181815250505050565b808260c0015160028151811061245d5761245d613bd9565b60006001826101c00151511015801561053a57506000826101c001516000815181106124b3576124b3613bd9565b60200260200101511192915050565b806124ce5760006124d1565b60015b60ff1660809092019190915250565b808260c0015160008151811061245d5761245d613bd9565b60006001826101c0015151101561251057600061053a565b816101c0015160008151811061252857612528613bd9565b602002602001015192915050565b61253f816125a4565b6001600160801b03166101009092019190915250565b60006002826101c0015151101561256d57600061053a565b816101c0015160018151811061252857612528613bd9565b61258e816125a4565b6001600160801b03166101609092019190915250565b60006001600160801b03821115610b7c5760405162461bcd60e51b815260206004820152602760248201527f53616665436173743a2076616c756520646f65736e27742066697420696e20316044820152663238206269747360c81b6064820152608401610688565b600061261b6012600a614040565b611f0c60ff8416600a61404f565b600061267e826040518060400160405280602081526020017f5361666545524332303a206c6f772d6c6576656c2063616c6c206661696c6564815250856001600160a01b0316612b019092919063ffffffff16565b805190915015610c74578080602001905181019061269c9190613a7f565b610c745760405162461bcd60e51b815260206004820152602a60248201527f5361666545524332303a204552433230206f7065726174696f6e20646964206e6044820152691bdd081cdd58d8d9595960b21b6064820152608401610688565b606061053a6001600160a01b03831660145b6060600061271c83600261405b565b61272790600261382e565b6001600160401b0381111561273e5761273e612cfe565b6040519080825280601f01601f191660200182016040528015612768576020820181803683370190505b509050600360fc1b8160008151811061278357612783613bd9565b60200101906001600160f81b031916908160001a905350600f60fb1b816001815181106127b2576127b2613bd9565b60200101906001600160f81b031916908160001a90535060006127d684600261405b565b6127e190600161382e565b90505b6001811115612859576f181899199a1a9b1b9c1cb0b131b232b360811b85600f166010811061281557612815613bd9565b1a60f81b82828151811061282b5761282b613bd9565b60200101906001600160f81b031916908160001a90535060049490941c936128528161412f565b90506127e4565b508315611c535760405162461bcd60e51b815260206004820181905260248201527f537472696e67733a20686578206c656e67746820696e73756666696369656e746044820152606401610688565b6040810151600090156128bd57506000919050565b6060820151151560000361291e5781608001511561291e5760006128f08360a0015161016001516001600160801b031690565b11156128fe57506000919050565b60a082015161014001516001600160401b03161561291e57506000919050565b506001919050565b600060028260c00151511015801561053a575060008260c001516001815181106124b3576124b3613bd9565b81156129745780612964576000612967565b60015b60ff166080840152505050565b80612980576000612983565b60015b60ff16610100840152505050565b600060018260c001515110156129a857600061053a565b8160c0015160008151811061252857612528613bd9565b60008181526001830160205260408120548015612aa85760006129e3600183613d20565b85549091506000906129f790600190613d20565b9050818114612a5c576000866000018281548110612a1757612a17613bd9565b9060005260206000200154905080876000018481548110612a3a57612a3a613bd9565b6000918252602080832090910192909255918252600188019052604090208390555b8554869080612a6d57612a6d614146565b60019003818190600052602060002001600090559055856001016000868152602001908152602001600020600090556001935050505061053a565b600091505061053a565b6000818152600183016020526040812054612af95750815460018181018455600084815260208082209093018490558454848252828601909352604090209190915561053a565b50600061053a565b6060611e91848460008585600080866001600160a01b03168587604051612b28919061415c565b60006040518083038185875af1925050503d8060008114612b65576040519150601f19603f3d011682016040523d82523d6000602084013e612b6a565b606091505b5091509150612b7b87838387612b86565b979650505050505050565b60608315612bf5578251600003612bee576001600160a01b0385163b612bee5760405162461bcd60e51b815260206004820152601d60248201527f416464726573733a2063616c6c20746f206e6f6e2d636f6e74726163740000006044820152606401610688565b5081611e91565b611e918383815115612c0a5781518083602001fd5b8060405162461bcd60e51b81526004016106889190614109565b6040805160e08101825260008082526020820181905291810182905260608101829052608081019190915260a08101612c5b612c68565b8152602001606081525090565b604080516101a081018252600080825260208201819052918101829052606081018290526080810182905260a0810182905260c0810182905260e08101829052610100810182905261012081018290526101408101829052610160810182905261018081019190915290565b600060208284031215612ce657600080fd5b81356001600160e01b031981168114611c5357600080fd5b634e487b7160e01b600052604160045260246000fd5b6040516101e081016001600160401b0381118282101715612d3757612d37612cfe565b60405290565b60405161018081016001600160401b0381118282101715612d3757612d37612cfe565b60405160c081016001600160401b0381118282101715612d3757612d37612cfe565b6040516101a081016001600160401b0381118282101715612d3757612d37612cfe565b60405160a081016001600160401b0381118282101715612d3757612d37612cfe565b60405160e081016001600160401b0381118282101715612d3757612d37612cfe565b604051601f8201601f191681016001600160401b0381118282101715612e1157612e11612cfe565b604052919050565b6001600160a01b03811681146107a757600080fd5b8035612e3981612e19565b919050565b80151581146107a757600080fd5b8035612e3981612e3e565b60ff811681146107a757600080fd5b8035612e3981612e57565b80356001600160401b0381168114612e3957600080fd5b60006001600160401b03821115612ea157612ea1612cfe565b5060051b60200190565b600082601f830112612ebc57600080fd5b81356020612ed1612ecc83612e88565b612de9565b82815260059290921b84018101918181019086841115612ef057600080fd5b8286015b84811015612f0b5780358352918301918301612ef4565b509695505050505050565b60006101e08284031215612f2957600080fd5b612f31612d14565b9050612f3c82612e2e565b8152612f4a60208301612e4c565b602082015260408201356040820152612f6560608301612e4c565b6060820152612f7660808301612e2e565b608082015260a082013560a082015260c082013560c082015260e082013560e0820152610100612fa7818401612e4c565b90820152610120612fb9838201612e66565b90820152610140612fcb838201612e71565b90820152610160828101359082015261018080830135908201526101a0612ff3818401612e66565b908201526101c0828101356001600160401b0381111561301257600080fd5b61301e85828601612eab565b82840152505092915050565b60006020828403121561303c57600080fd5b81356001600160401b0381111561305257600080fd5b611e9184828501612f16565b60006020828403121561307057600080fd5b5035919050565b60006020828403121561308957600080fd5b8135611c5381612e19565b600080604083850312156130a757600080fd5b8235915060208301356130b981612e19565b809150509250929050565b803563ffffffff81168114612e3957600080fd5b80356001600160d81b0381168114612e3957600080fd5b6000610180828403121561310257600080fd5b61310a612d3d565b905061311582612e2e565b815261312360208301612e4c565b6020820152613134604083016130c4565b6040820152613145606083016130d8565b60608201526080820135608082015260a082013560a082015260c082013560c082015260e082013560e082015261010080830135818301525061012080830135818301525061014080830135818301525061016080830135818301525092915050565b6000602082840312156131ba57600080fd5b81356001600160401b03808211156131d157600080fd5b9083019061022082860312156131e657600080fd5b6131ee612d60565b8235828111156131fd57600080fd5b61320987828601612f16565b82525061321986602085016130ef565b60208201526101a08301358281111561323157600080fd5b61323d87828601612eab565b6040830152506132506101c08401612e2e565b60608201526132626101e08401612e2e565b6080820152610200929092013560a0830152509392505050565b60006020828403121561328e57600080fd5b8135611c5381612e3e565b600082601f8301126132aa57600080fd5b813560206132ba612ecc83612e88565b82815260059290921b840181019181810190868411156132d957600080fd5b8286015b84811015612f0b5780356132f081612e3e565b83529183019183016132dd565b6000806000806080858703121561331357600080fd5b84356001600160401b038082111561332a57600080fd5b818701915087601f83011261333e57600080fd5b8135602061334e612ecc83612e88565b82815260059290921b8401810191818101908b84111561336d57600080fd5b948201945b8386101561339457853561338581612e19565b82529482019490820190613372565b985050880135925050808211156133aa57600080fd5b6133b688838901613299565b945060408701359150808211156133cc57600080fd5b6133d888838901612eab565b935060608701359150808211156133ee57600080fd5b506133fb87828801613299565b91505092959194509250565b803565ffffffffffff81168114612e3957600080fd5b80356001600160801b0381168114612e3957600080fd5b60006101a0828403121561344757600080fd5b61344f612d82565b905061345a82612e66565b8152613468602083016130c4565b602082015261347960408301612e66565b604082015261348a60608301612e2e565b606082015261349b60808301613407565b60808201526134ac60a0830161341d565b60a08201526134bd60c0830161341d565b60c08201526134ce60e0830161341d565b60e08201526101006134e181840161341d565b908201526101206134f3838201612e71565b90820152610140613505838201612e71565b9082015261016061351783820161341d565b818301525061018080830135818301525092915050565b600082601f83011261353f57600080fd5b81356001600160401b0381111561355857613558612cfe565b61356b601f8201601f1916602001612de9565b81815284602083860101111561358057600080fd5b816020850160208301376000918101602001919091529392505050565b6000602082840312156135af57600080fd5b81356001600160401b03808211156135c657600080fd5b9083019061022082860312156135db57600080fd5b6135e3612da5565b6135ed8684613434565b81526101a08301358281111561360257600080fd5b61360e87828601612f16565b6020830152506136216101c08401612e66565b60408201526101e08301358281111561363957600080fd5b6136458782860161352e565b60608301525061020092909201356080830152509392505050565b60006020828403121561367257600080fd5b81356001600160401b038082111561368957600080fd5b90830190610260828603121561369e57600080fd5b6136a6612dc7565b6136af83612e2e565b81526136bd60208401612e4c565b6020820152604083013560408201526136d860608401612e4c565b60608201526136e960808401612e4c565b60808201526136fb8660a08501613434565b60a08201526102408301358281111561371357600080fd5b61371f87828601612eab565b60c08301525095945050505050565b60008060006060848603121561374357600080fd5b833561374e81612e19565b9250602084013561375e81612e19565b9150604084013561376e81612e19565b809150509250925092565b6000806040838503121561378c57600080fd5b823561379781612e19565b915060208301356130b981612e19565b6020808252825182820181905260009190848201906040850190845b818110156137e85783516001600160a01b0316835292840192918401916001016137c3565b50909695505050505050565b6000806040838503121561380757600080fd5b505080516020909101519092909150565b634e487b7160e01b600052601160045260246000fd5b8082018082111561053a5761053a613818565b60006001820161385357613853613818565b5060010190565b60006020828403121561386c57600080fd5b8151611c5381612e19565b600081518084526020808501945080840160005b838110156138a75781518752958201959082019060010161388b565b509495945050505050565b602081526138cc6020820183516001600160a01b03169052565b600060208301516138e1604084018215159052565b506040830151606083015260608301516138ff608084018215159052565b5060808301516001600160a01b03811660a08401525060a083015160c083015260c083015160e083015260e083015161010081818501528085015191505061012061394d8185018315159052565b84015190506101406139638482018360ff169052565b840151905061016061397f848201836001600160401b03169052565b840151610180848101919091528401516101a08085019190915284015190506101c06139af8185018360ff169052565b8401516101e0848101529050611e91610200840182613877565b6000602082840312156139db57600080fd5b5051919050565b6000602082840312156139f457600080fd5b8151611c5381612e57565b81516001600160a01b031681526101408101602083015160208301526040830151613a2e604084018215159052565b50606083015160608301526080830151608083015260a083015160a083015260c083015160c083015260e083015160e083015261010080840151818401525061012080840151818401525092915050565b600060208284031215613a9157600080fd5b8151611c5381612e3e565b8082018281126000831280158216821582161715613abc57613abc613818565b505092915050565b6020808252600e908201526d34b73b30b634b21039b2b73232b960911b604082015260600190565b6020808252600e908201526d1a5b9d985b1a59081b585c9ad95d60921b604082015260600190565b60006101808083018f845260208f818601528e60408601528d151560608601528c60808601528b60a08601528260c08601528192508a518083526101a086019350818c01925060005b81811015613b7957835185529382019392820192600101613b5d565b5050506001600160a01b03891660e08501525090506001600160a01b0386166101008301526001600160a01b03851661012083015260ff84166101408301526001600160401b0383166101608301529d9c50505050505050505050505050565b634e487b7160e01b600052603260045260246000fd5b600081518084526020808501945080840160005b838110156138a7578151151587529582019590820190600101613c03565b6001600160a01b0385168152608060208201819052600090613c4590830186613bef565b8281036040840152613c578186613877565b90508281036060840152612b7b8185613bef565b60005b83811015613c86578181015183820152602001613c6e565b50506000910152565b60008151808452613ca7816020860160208601613c6b565b601f01601f19169290920160200192915050565b881515815287151560208201526001600160401b03871660408201526001600160a01b038616606082015260ff8516608082015261010060a08201819052600090613d0883820187613c8f565b60c0840195909552505060e001529695505050505050565b8181038181111561053a5761053a613818565b600061026060018060a01b0383511684526020830151151560208501526040830151604085015260608301511515606085015260808301511515608085015260a0830151613d8760a08601825160ff169052565b602081015163ffffffff1660c0860152604081015160ff1660e086015260608101516001600160a01b0381166101008088019190915260808301519150610120613dda8189018465ffffffffffff169052565b60a08401519250610140613df8818a01856001600160801b03169052565b60c08501519350610160613e16818b01866001600160801b03169052565b60e08601519450610180613e34818c01876001600160801b03169052565b938601516001600160801b039081166101a08c0152928601516001600160401b039081166101c08c0152918601519091166101e08a015284015116610200880152909101516102208601525060c08301516102408501829052613e9982860182613877565b95945050505050565b8d151581528c151560208201526001600160401b038c1660408201526001600160a01b038b16606082015260006101a06001600160801b038c1660808401526001600160801b038b1660a08401526001600160801b038a1660c084015288151560e08401528761010084015286610120840152613f2b6101408401876001600160801b03169052565b84151561016084015280610180840152613f4781840185613d33565b9150509e9d5050505050505050505050505050565b600181815b80851115613f97578160001904821115613f7d57613f7d613818565b80851615613f8a57918102915b93841c9390800290613f61565b509250929050565b600082613fae5750600161053a565b81613fbb5750600061053a565b8160018114613fd15760028114613fdb57613ff7565b600191505061053a565b60ff841115613fec57613fec613818565b50506001821b61053a565b5060208310610133831016604e8410600b841016171561401a575081810a61053a565b6140248383613f5c565b806000190482111561403857614038613818565b029392505050565b6000611c5360ff841683613f9f565b6000611c538383613f9f565b808202811582820484141761053a5761053a613818565b60008261408f57634e487b7160e01b600052601260045260246000fd5b500490565b7f416363657373436f6e74726f6c3a206163636f756e74200000000000000000008152600083516140cc816017850160208801613c6b565b7001034b99036b4b9b9b4b733903937b6329607d1b60179184019182015283516140fd816028840160208801613c6b565b01602801949350505050565b602081526000611c536020830184613c8f565b602081526000611c536020830184613d33565b60008161413e5761413e613818565b506000190190565b634e487b7160e01b600052603160045260246000fd5b6000825161416e818460208701613c6b565b919091019291505056fe8d1089725c0dc266707fa6207730fb801dcd03108bfed7a21099bd303651d2b7a2646970667358221220ca9c3a00c393b234c78406fd3d8dd348b40dee95387b3b994754debd3b44dc2064736f6c63430008110033",
  "linkReferences": {},
  "deployedLinkReferences": {}
}