{
  "_format": "hh-sol-artifact-1",
  "contractName": "MarketRouter",
  "sourceName": "contracts/market/MarketRouter.sol",
  "abi": [
    {
      "anonymous": false,
      "inputs": [
        {
          "indexed": true,
          "internalType": "address",
          "name": "account",
          "type": "address"
        },
        {
          "indexed": false,
          "internalType": "bool",
          "name": "isLong",
          "type": "bool"
        },
        {
          "indexed": false,
          "internalType": "bool",
          "name": "isIncrease",
          "type": "bool"
        },
        {
          "indexed": false,
          "internalType": "uint256",
          "name": "orderID",
          "type": "uint256"
        },
        {
          "indexed": false,
          "internalType": "address",
          "name": "market",
          "type": "address"
        },
        {
          "indexed": false,
          "internalType": "uint8",
          "name": "reason",
          "type": "uint8"
        },
        {
          "indexed": false,
          "internalType": "string",
          "name": "reasonStr",
          "type": "string"
        },
        {
          "indexed": false,
          "internalType": "uint256",
          "name": "price",
          "type": "uint256"
        },
        {
          "indexed": false,
          "internalType": "int256",
          "name": "dPNL",
          "type": "int256"
        }
      ],
      "name": "DeleteOrder",
      "type": "event"
    },
    {
      "anonymous": false,
      "inputs": [
        {
          "indexed": false,
          "internalType": "uint8",
          "name": "version",
          "type": "uint8"
        }
      ],
      "name": "Initialized",
      "type": "event"
    },
    {
      "anonymous": false,
      "inputs": [
        {
          "indexed": true,
          "internalType": "address",
          "name": "previousOwner",
          "type": "address"
        },
        {
          "indexed": true,
          "internalType": "address",
          "name": "newOwner",
          "type": "address"
        }
      ],
      "name": "OwnershipTransferred",
      "type": "event"
    },
    {
      "anonymous": false,
      "inputs": [
        {
          "indexed": true,
          "internalType": "bytes32",
          "name": "role",
          "type": "bytes32"
        },
        {
          "indexed": true,
          "internalType": "bytes32",
          "name": "previousAdminRole",
          "type": "bytes32"
        },
        {
          "indexed": true,
          "internalType": "bytes32",
          "name": "newAdminRole",
          "type": "bytes32"
        }
      ],
      "name": "RoleAdminChanged",
      "type": "event"
    },
    {
      "anonymous": false,
      "inputs": [
        {
          "indexed": true,
          "internalType": "bytes32",
          "name": "role",
          "type": "bytes32"
        },
        {
          "indexed": true,
          "internalType": "address",
          "name": "account",
          "type": "address"
        },
        {
          "indexed": true,
          "internalType": "address",
          "name": "sender",
          "type": "address"
        }
      ],
      "name": "RoleGranted",
      "type": "event"
    },
    {
      "anonymous": false,
      "inputs": [
        {
          "indexed": true,
          "internalType": "bytes32",
          "name": "role",
          "type": "bytes32"
        },
        {
          "indexed": true,
          "internalType": "address",
          "name": "account",
          "type": "address"
        },
        {
          "indexed": true,
          "internalType": "address",
          "name": "sender",
          "type": "address"
        }
      ],
      "name": "RoleRevoked",
      "type": "event"
    },
    {
      "anonymous": false,
      "inputs": [
        {
          "indexed": true,
          "internalType": "address",
          "name": "account",
          "type": "address"
        },
        {
          "indexed": false,
          "internalType": "bool",
          "name": "isLong",
          "type": "bool"
        },
        {
          "indexed": false,
          "internalType": "bool",
          "name": "isIncrease",
          "type": "bool"
        },
        {
          "indexed": false,
          "internalType": "uint256",
          "name": "orderID",
          "type": "uint256"
        },
        {
          "indexed": false,
          "internalType": "address",
          "name": "market",
          "type": "address"
        },
        {
          "indexed": false,
          "internalType": "uint256",
          "name": "size",
          "type": "uint256"
        },
        {
          "indexed": false,
          "internalType": "uint256",
          "name": "collateral",
          "type": "uint256"
        },
        {
          "indexed": false,
          "internalType": "uint256",
          "name": "triggerPrice",
          "type": "uint256"
        },
        {
          "indexed": false,
          "internalType": "bool",
          "name": "triggerAbove",
          "type": "bool"
        },
        {
          "indexed": false,
          "internalType": "uint256",
          "name": "tp",
          "type": "uint256"
        },
        {
          "indexed": false,
          "internalType": "uint256",
          "name": "sl",
          "type": "uint256"
        },
        {
          "indexed": false,
          "internalType": "uint128",
          "name": "fromOrder",
          "type": "uint128"
        },
        {
          "indexed": false,
          "internalType": "bool",
          "name": "isKeepLev",
          "type": "bool"
        },
        {
          "components": [
            {
              "internalType": "address",
              "name": "_market",
              "type": "address"
            },
            {
              "internalType": "bool",
              "name": "_isLong",
              "type": "bool"
            },
            {
              "internalType": "uint256",
              "name": "_oraclePrice",
              "type": "uint256"
            },
            {
              "internalType": "bool",
              "name": "isOpen",
              "type": "bool"
            },
            {
              "internalType": "bool",
              "name": "isCreate",
              "type": "bool"
            },
            {
              "components": [
                {
                  "internalType": "uint8",
                  "name": "version",
                  "type": "uint8"
                },
                {
                  "internalType": "uint32",
                  "name": "updatedAtBlock",
                  "type": "uint32"
                },
                {
                  "internalType": "uint8",
                  "name": "triggerAbove",
                  "type": "uint8"
                },
                {
                  "internalType": "address",
                  "name": "account",
                  "type": "address"
                },
                {
                  "internalType": "uint48",
                  "name": "extra3",
                  "type": "uint48"
                },
                {
                  "internalType": "uint128",
                  "name": "collateral",
                  "type": "uint128"
                },
                {
                  "internalType": "uint128",
                  "name": "size",
                  "type": "uint128"
                },
                {
                  "internalType": "uint128",
                  "name": "price",
                  "type": "uint128"
                },
                {
                  "internalType": "uint128",
                  "name": "extra1",
                  "type": "uint128"
                },
                {
                  "internalType": "uint64",
                  "name": "orderID",
                  "type": "uint64"
                },
                {
                  "internalType": "uint64",
                  "name": "extra2",
                  "type": "uint64"
                },
                {
                  "internalType": "uint128",
                  "name": "extra0",
                  "type": "uint128"
                },
                {
                  "internalType": "bytes32",
                  "name": "refCode",
                  "type": "bytes32"
                }
              ],
              "internalType": "struct Order.Props",
              "name": "_order",
              "type": "tuple"
            },
            {
              "internalType": "uint256[]",
              "name": "inputs",
              "type": "uint256[]"
            }
          ],
          "indexed": false,
          "internalType": "struct MarketDataTypes.UpdateOrderInputs",
          "name": "params",
          "type": "tuple"
        }
      ],
      "name": "UpdateOrder",
      "type": "event"
    },
    {
      "anonymous": false,
      "inputs": [
        {
          "indexed": true,
          "internalType": "address",
          "name": "account",
          "type": "address"
        },
        {
          "indexed": false,
          "internalType": "uint256",
          "name": "collateralDelta",
          "type": "uint256"
        },
        {
          "indexed": false,
          "internalType": "int256",
          "name": "collateralDeltaAfter",
          "type": "int256"
        },
        {
          "indexed": false,
          "internalType": "uint256",
          "name": "sizeDelta",
          "type": "uint256"
        },
        {
          "indexed": false,
          "internalType": "bool",
          "name": "isLong",
          "type": "bool"
        },
        {
          "indexed": false,
          "internalType": "uint256",
          "name": "price",
          "type": "uint256"
        },
        {
          "indexed": false,
          "internalType": "int256",
          "name": "pnl",
          "type": "int256"
        },
        {
          "indexed": false,
          "internalType": "int256[]",
          "name": "fees",
          "type": "int256[]"
        },
        {
          "indexed": false,
          "internalType": "address",
          "name": "market",
          "type": "address"
        },
        {
          "indexed": false,
          "internalType": "address",
          "name": "collateralToken",
          "type": "address"
        },
        {
          "indexed": false,
          "internalType": "address",
          "name": "indexToken",
          "type": "address"
        },
        {
          "indexed": false,
          "internalType": "uint256",
          "name": "category",
          "type": "uint256"
        },
        {
          "indexed": false,
          "internalType": "uint64",
          "name": "fromOrder",
          "type": "uint64"
        }
      ],
      "name": "UpdatePosition",
      "type": "event"
    },
    {
      "inputs": [],
      "name": "DEFAULT_ADMIN_ROLE",
      "outputs": [
        {
          "internalType": "bytes32",
          "name": "",
          "type": "bytes32"
        }
      ],
      "stateMutability": "view",
      "type": "function"
    },
    {
      "inputs": [
        {
          "internalType": "address",
          "name": "_market",
          "type": "address"
        },
        {
          "internalType": "address",
          "name": "vault",
          "type": "address"
        }
      ],
      "name": "addMarket",
      "outputs": [],
      "stateMutability": "nonpayable",
      "type": "function"
    },
    {
      "inputs": [
        {
          "internalType": "address[]",
          "name": "_markets",
          "type": "address[]"
        },
        {
          "internalType": "bool[]",
          "name": "_isIncreaseList",
          "type": "bool[]"
        },
        {
          "internalType": "uint256[]",
          "name": "_orderIDList",
          "type": "uint256[]"
        },
        {
          "internalType": "bool[]",
          "name": "_isLongList",
          "type": "bool[]"
        }
      ],
      "name": "cancelOrderList",
      "outputs": [],
      "stateMutability": "nonpayable",
      "type": "function"
    },
    {
      "inputs": [
        {
          "components": [
            {
              "internalType": "address",
              "name": "_market",
              "type": "address"
            },
            {
              "internalType": "bool",
              "name": "_isLong",
              "type": "bool"
            },
            {
              "internalType": "uint256",
              "name": "_oraclePrice",
              "type": "uint256"
            },
            {
              "internalType": "bool",
              "name": "isOpen",
              "type": "bool"
            },
            {
              "internalType": "address",
              "name": "_account",
              "type": "address"
            },
            {
              "internalType": "uint256",
              "name": "_sizeDelta",
              "type": "uint256"
            },
            {
              "internalType": "uint256",
              "name": "_price",
              "type": "uint256"
            },
            {
              "internalType": "uint256",
              "name": "_slippage",
              "type": "uint256"
            },
            {
              "internalType": "bool",
              "name": "_isExec",
              "type": "bool"
            },
            {
              "internalType": "uint8",
              "name": "liqState",
              "type": "uint8"
            },
            {
              "internalType": "uint64",
              "name": "_fromOrder",
              "type": "uint64"
            },
            {
              "internalType": "bytes32",
              "name": "_refCode",
              "type": "bytes32"
            },
            {
              "internalType": "uint256",
              "name": "collateralDelta",
              "type": "uint256"
            },
            {
              "internalType": "uint8",
              "name": "execNum",
              "type": "uint8"
            },
            {
              "internalType": "uint256[]",
              "name": "inputs",
              "type": "uint256[]"
            }
          ],
          "internalType": "struct MarketDataTypes.UpdatePositionInputs",
          "name": "_vars",
          "type": "tuple"
        }
      ],
      "name": "decreasePosition",
      "outputs": [],
      "stateMutability": "nonpayable",
      "type": "function"
    },
    {
      "inputs": [
        {
          "components": [
            {
              "components": [
                {
                  "internalType": "uint8",
                  "name": "version",
                  "type": "uint8"
                },
                {
                  "internalType": "uint32",
                  "name": "updatedAtBlock",
                  "type": "uint32"
                },
                {
                  "internalType": "uint8",
                  "name": "triggerAbove",
                  "type": "uint8"
                },
                {
                  "internalType": "address",
                  "name": "account",
                  "type": "address"
                },
                {
                  "internalType": "uint48",
                  "name": "extra3",
                  "type": "uint48"
                },
                {
                  "internalType": "uint128",
                  "name": "collateral",
                  "type": "uint128"
                },
                {
                  "internalType": "uint128",
                  "name": "size",
                  "type": "uint128"
                },
                {
                  "internalType": "uint128",
                  "name": "price",
                  "type": "uint128"
                },
                {
                  "internalType": "uint128",
                  "name": "extra1",
                  "type": "uint128"
                },
                {
                  "internalType": "uint64",
                  "name": "orderID",
                  "type": "uint64"
                },
                {
                  "internalType": "uint64",
                  "name": "extra2",
                  "type": "uint64"
                },
                {
                  "internalType": "uint128",
                  "name": "extra0",
                  "type": "uint128"
                },
                {
                  "internalType": "bytes32",
                  "name": "refCode",
                  "type": "bytes32"
                }
              ],
              "internalType": "struct Order.Props",
              "name": "order",
              "type": "tuple"
            },
            {
              "components": [
                {
                  "internalType": "address",
                  "name": "_market",
                  "type": "address"
                },
                {
                  "internalType": "bool",
                  "name": "_isLong",
                  "type": "bool"
                },
                {
                  "internalType": "uint256",
                  "name": "_oraclePrice",
                  "type": "uint256"
                },
                {
                  "internalType": "bool",
                  "name": "isOpen",
                  "type": "bool"
                },
                {
                  "internalType": "address",
                  "name": "_account",
                  "type": "address"
                },
                {
                  "internalType": "uint256",
                  "name": "_sizeDelta",
                  "type": "uint256"
                },
                {
                  "internalType": "uint256",
                  "name": "_price",
                  "type": "uint256"
                },
                {
                  "internalType": "uint256",
                  "name": "_slippage",
                  "type": "uint256"
                },
                {
                  "internalType": "bool",
                  "name": "_isExec",
                  "type": "bool"
                },
                {
                  "internalType": "uint8",
                  "name": "liqState",
                  "type": "uint8"
                },
                {
                  "internalType": "uint64",
                  "name": "_fromOrder",
                  "type": "uint64"
                },
                {
                  "internalType": "bytes32",
                  "name": "_refCode",
                  "type": "bytes32"
                },
                {
                  "internalType": "uint256",
                  "name": "collateralDelta",
                  "type": "uint256"
                },
                {
                  "internalType": "uint8",
                  "name": "execNum",
                  "type": "uint8"
                },
                {
                  "internalType": "uint256[]",
                  "name": "inputs",
                  "type": "uint256[]"
                }
              ],
              "internalType": "struct MarketDataTypes.UpdatePositionInputs",
              "name": "inputs",
              "type": "tuple"
            },
            {
              "internalType": "uint8",
              "name": "reason",
              "type": "uint8"
            },
            {
              "internalType": "string",
              "name": "reasonStr",
              "type": "string"
            },
            {
              "internalType": "int256",
              "name": "dPNL",
              "type": "int256"
            }
          ],
          "internalType": "struct MarketOrderCallBackIntl.DeleteOrderEvent",
          "name": "e",
          "type": "tuple"
        }
      ],
      "name": "deleteOrderCallback",
      "outputs": [],
      "stateMutability": "nonpayable",
      "type": "function"
    },
    {
      "inputs": [
        {
          "internalType": "address",
          "name": "account",
          "type": "address"
        }
      ],
      "name": "getAccountSize",
      "outputs": [
        {
          "internalType": "uint256",
          "name": "sizesL",
          "type": "uint256"
        },
        {
          "internalType": "uint256",
          "name": "sizesS",
          "type": "uint256"
        }
      ],
      "stateMutability": "view",
      "type": "function"
    },
    {
      "inputs": [],
      "name": "getGlobalPNL",
      "outputs": [
        {
          "internalType": "int256",
          "name": "pnl",
          "type": "int256"
        }
      ],
      "stateMutability": "view",
      "type": "function"
    },
    {
      "inputs": [],
      "name": "getGlobalSize",
      "outputs": [
        {
          "internalType": "uint256",
          "name": "sizesLong",
          "type": "uint256"
        },
        {
          "internalType": "uint256",
          "name": "sizesShort",
          "type": "uint256"
        }
      ],
      "stateMutability": "view",
      "type": "function"
    },
    {
      "inputs": [],
      "name": "getHooksCalls",
      "outputs": [
        {
          "components": [
            {
              "internalType": "bool",
              "name": "updatePosition",
              "type": "bool"
            },
            {
              "internalType": "bool",
              "name": "updateOrder",
              "type": "bool"
            },
            {
              "internalType": "bool",
              "name": "deleteOrder",
              "type": "bool"
            }
          ],
          "internalType": "struct MarketCallBackIntl.Calls",
          "name": "",
          "type": "tuple"
        }
      ],
      "stateMutability": "pure",
      "type": "function"
    },
    {
      "inputs": [],
      "name": "getMarkets",
      "outputs": [
        {
          "internalType": "address[]",
          "name": "",
          "type": "address[]"
        }
      ],
      "stateMutability": "view",
      "type": "function"
    },
    {
      "inputs": [
        {
          "internalType": "bytes32",
          "name": "role",
          "type": "bytes32"
        }
      ],
      "name": "getRoleAdmin",
      "outputs": [
        {
          "internalType": "bytes32",
          "name": "",
          "type": "bytes32"
        }
      ],
      "stateMutability": "view",
      "type": "function"
    },
    {
      "inputs": [
        {
          "internalType": "bytes32",
          "name": "role",
          "type": "bytes32"
        },
        {
          "internalType": "address",
          "name": "account",
          "type": "address"
        }
      ],
      "name": "grantAndRevoke",
      "outputs": [],
      "stateMutability": "nonpayable",
      "type": "function"
    },
    {
      "inputs": [
        {
          "internalType": "bytes32",
          "name": "role",
          "type": "bytes32"
        },
        {
          "internalType": "address",
          "name": "account",
          "type": "address"
        }
      ],
      "name": "grantRole",
      "outputs": [],
      "stateMutability": "nonpayable",
      "type": "function"
    },
    {
      "inputs": [],
      "name": "gv",
      "outputs": [
        {
          "internalType": "address",
          "name": "",
          "type": "address"
        }
      ],
      "stateMutability": "view",
      "type": "function"
    },
    {
      "inputs": [
        {
          "internalType": "bytes32",
          "name": "role",
          "type": "bytes32"
        },
        {
          "internalType": "address",
          "name": "account",
          "type": "address"
        }
      ],
      "name": "hasRole",
      "outputs": [
        {
          "internalType": "bool",
          "name": "",
          "type": "bool"
        }
      ],
      "stateMutability": "view",
      "type": "function"
    },
    {
      "inputs": [
        {
          "components": [
            {
              "internalType": "address",
              "name": "_market",
              "type": "address"
            },
            {
              "internalType": "bool",
              "name": "_isLong",
              "type": "bool"
            },
            {
              "internalType": "uint256",
              "name": "_oraclePrice",
              "type": "uint256"
            },
            {
              "internalType": "bool",
              "name": "isOpen",
              "type": "bool"
            },
            {
              "internalType": "address",
              "name": "_account",
              "type": "address"
            },
            {
              "internalType": "uint256",
              "name": "_sizeDelta",
              "type": "uint256"
            },
            {
              "internalType": "uint256",
              "name": "_price",
              "type": "uint256"
            },
            {
              "internalType": "uint256",
              "name": "_slippage",
              "type": "uint256"
            },
            {
              "internalType": "bool",
              "name": "_isExec",
              "type": "bool"
            },
            {
              "internalType": "uint8",
              "name": "liqState",
              "type": "uint8"
            },
            {
              "internalType": "uint64",
              "name": "_fromOrder",
              "type": "uint64"
            },
            {
              "internalType": "bytes32",
              "name": "_refCode",
              "type": "bytes32"
            },
            {
              "internalType": "uint256",
              "name": "collateralDelta",
              "type": "uint256"
            },
            {
              "internalType": "uint8",
              "name": "execNum",
              "type": "uint8"
            },
            {
              "internalType": "uint256[]",
              "name": "inputs",
              "type": "uint256[]"
            }
          ],
          "internalType": "struct MarketDataTypes.UpdatePositionInputs",
          "name": "_inputs",
          "type": "tuple"
        }
      ],
      "name": "increasePosition",
      "outputs": [],
      "stateMutability": "nonpayable",
      "type": "function"
    },
    {
      "inputs": [
        {
          "internalType": "address",
          "name": "_f",
          "type": "address"
        },
        {
          "internalType": "address",
          "name": "_gv",
          "type": "address"
        },
        {
          "internalType": "address",
          "name": "vr",
          "type": "address"
        }
      ],
      "name": "initialize",
      "outputs": [],
      "stateMutability": "nonpayable",
      "type": "function"
    },
    {
      "inputs": [],
      "name": "isEnableMarketConvertToOrder",
      "outputs": [
        {
          "internalType": "bool",
          "name": "",
          "type": "bool"
        }
      ],
      "stateMutability": "view",
      "type": "function"
    },
    {
      "inputs": [],
      "name": "owner",
      "outputs": [
        {
          "internalType": "address",
          "name": "",
          "type": "address"
        }
      ],
      "stateMutability": "view",
      "type": "function"
    },
    {
      "inputs": [
        {
          "internalType": "address",
          "name": "_market",
          "type": "address"
        }
      ],
      "name": "removeMarket",
      "outputs": [],
      "stateMutability": "nonpayable",
      "type": "function"
    },
    {
      "inputs": [],
      "name": "renounceOwnership",
      "outputs": [],
      "stateMutability": "nonpayable",
      "type": "function"
    },
    {
      "inputs": [
        {
          "internalType": "bytes32",
          "name": "role",
          "type": "bytes32"
        },
        {
          "internalType": "address",
          "name": "account",
          "type": "address"
        }
      ],
      "name": "renounceRole",
      "outputs": [],
      "stateMutability": "nonpayable",
      "type": "function"
    },
    {
      "inputs": [
        {
          "internalType": "bytes32",
          "name": "role",
          "type": "bytes32"
        },
        {
          "internalType": "address",
          "name": "account",
          "type": "address"
        }
      ],
      "name": "revokeRole",
      "outputs": [],
      "stateMutability": "nonpayable",
      "type": "function"
    },
    {
      "inputs": [
        {
          "internalType": "bool",
          "name": "_isEnableMarketConvertToOrder",
          "type": "bool"
        }
      ],
      "name": "setIsEnableMarketConvertToOrder",
      "outputs": [],
      "stateMutability": "nonpayable",
      "type": "function"
    },
    {
      "inputs": [
        {
          "internalType": "bytes4",
          "name": "interfaceId",
          "type": "bytes4"
        }
      ],
      "name": "supportsInterface",
      "outputs": [
        {
          "internalType": "bool",
          "name": "",
          "type": "bool"
        }
      ],
      "stateMutability": "view",
      "type": "function"
    },
    {
      "inputs": [
        {
          "internalType": "address",
          "name": "to",
          "type": "address"
        }
      ],
      "name": "transferAdmin",
      "outputs": [],
      "stateMutability": "nonpayable",
      "type": "function"
    },
    {
      "inputs": [
        {
          "internalType": "address",
          "name": "newOwner",
          "type": "address"
        }
      ],
      "name": "transferOwnership",
      "outputs": [],
      "stateMutability": "nonpayable",
      "type": "function"
    },
    {
      "inputs": [
        {
          "components": [
            {
              "internalType": "address",
              "name": "_market",
              "type": "address"
            },
            {
              "internalType": "bool",
              "name": "_isLong",
              "type": "bool"
            },
            {
              "internalType": "uint256",
              "name": "_oraclePrice",
              "type": "uint256"
            },
            {
              "internalType": "bool",
              "name": "isOpen",
              "type": "bool"
            },
            {
              "internalType": "bool",
              "name": "isCreate",
              "type": "bool"
            },
            {
              "components": [
                {
                  "internalType": "uint8",
                  "name": "version",
                  "type": "uint8"
                },
                {
                  "internalType": "uint32",
                  "name": "updatedAtBlock",
                  "type": "uint32"
                },
                {
                  "internalType": "uint8",
                  "name": "triggerAbove",
                  "type": "uint8"
                },
                {
                  "internalType": "address",
                  "name": "account",
                  "type": "address"
                },
                {
                  "internalType": "uint48",
                  "name": "extra3",
                  "type": "uint48"
                },
                {
                  "internalType": "uint128",
                  "name": "collateral",
                  "type": "uint128"
                },
                {
                  "internalType": "uint128",
                  "name": "size",
                  "type": "uint128"
                },
                {
                  "internalType": "uint128",
                  "name": "price",
                  "type": "uint128"
                },
                {
                  "internalType": "uint128",
                  "name": "extra1",
                  "type": "uint128"
                },
                {
                  "internalType": "uint64",
                  "name": "orderID",
                  "type": "uint64"
                },
                {
                  "internalType": "uint64",
                  "name": "extra2",
                  "type": "uint64"
                },
                {
                  "internalType": "uint128",
                  "name": "extra0",
                  "type": "uint128"
                },
                {
                  "internalType": "bytes32",
                  "name": "refCode",
                  "type": "bytes32"
                }
              ],
              "internalType": "struct Order.Props",
              "name": "_order",
              "type": "tuple"
            },
            {
              "internalType": "uint256[]",
              "name": "inputs",
              "type": "uint256[]"
            }
          ],
          "internalType": "struct MarketDataTypes.UpdateOrderInputs",
          "name": "_vars",
          "type": "tuple"
        }
      ],
      "name": "updateOrder",
      "outputs": [],
      "stateMutability": "nonpayable",
      "type": "function"
    },
    {
      "inputs": [
        {
          "components": [
            {
              "internalType": "address",
              "name": "_market",
              "type": "address"
            },
            {
              "internalType": "bool",
              "name": "_isLong",
              "type": "bool"
            },
            {
              "internalType": "uint256",
              "name": "_oraclePrice",
              "type": "uint256"
            },
            {
              "internalType": "bool",
              "name": "isOpen",
              "type": "bool"
            },
            {
              "internalType": "bool",
              "name": "isCreate",
              "type": "bool"
            },
            {
              "components": [
                {
                  "internalType": "uint8",
                  "name": "version",
                  "type": "uint8"
                },
                {
                  "internalType": "uint32",
                  "name": "updatedAtBlock",
                  "type": "uint32"
                },
                {
                  "internalType": "uint8",
                  "name": "triggerAbove",
                  "type": "uint8"
                },
                {
                  "internalType": "address",
                  "name": "account",
                  "type": "address"
                },
                {
                  "internalType": "uint48",
                  "name": "extra3",
                  "type": "uint48"
                },
                {
                  "internalType": "uint128",
                  "name": "collateral",
                  "type": "uint128"
                },
                {
                  "internalType": "uint128",
                  "name": "size",
                  "type": "uint128"
                },
                {
                  "internalType": "uint128",
                  "name": "price",
                  "type": "uint128"
                },
                {
                  "internalType": "uint128",
                  "name": "extra1",
                  "type": "uint128"
                },
                {
                  "internalType": "uint64",
                  "name": "orderID",
                  "type": "uint64"
                },
                {
                  "internalType": "uint64",
                  "name": "extra2",
                  "type": "uint64"
                },
                {
                  "internalType": "uint128",
                  "name": "extra0",
                  "type": "uint128"
                },
                {
                  "internalType": "bytes32",
                  "name": "refCode",
                  "type": "bytes32"
                }
              ],
              "internalType": "struct Order.Props",
              "name": "_order",
              "type": "tuple"
            },
            {
              "internalType": "uint256[]",
              "name": "inputs",
              "type": "uint256[]"
            }
          ],
          "internalType": "struct MarketDataTypes.UpdateOrderInputs",
          "name": "_event",
          "type": "tuple"
        }
      ],
      "name": "updateOrderCallback",
      "outputs": [],
      "stateMutability": "nonpayable",
      "type": "function"
    },
    {
      "inputs": [
        {
          "internalType": "address",
          "name": "newA",
          "type": "address"
        }
      ],
      "name": "updatePositionBook",
      "outputs": [],
      "stateMutability": "nonpayable",
      "type": "function"
    },
    {
      "inputs": [
        {
          "components": [
            {
              "components": [
                {
                  "internalType": "address",
                  "name": "_market",
                  "type": "address"
                },
                {
                  "internalType": "bool",
                  "name": "_isLong",
                  "type": "bool"
                },
                {
                  "internalType": "uint256",
                  "name": "_oraclePrice",
                  "type": "uint256"
                },
                {
                  "internalType": "bool",
                  "name": "isOpen",
                  "type": "bool"
                },
                {
                  "internalType": "address",
                  "name": "_account",
                  "type": "address"
                },
                {
                  "internalType": "uint256",
                  "name": "_sizeDelta",
                  "type": "uint256"
                },
                {
                  "internalType": "uint256",
                  "name": "_price",
                  "type": "uint256"
                },
                {
                  "internalType": "uint256",
                  "name": "_slippage",
                  "type": "uint256"
                },
                {
                  "internalType": "bool",
                  "name": "_isExec",
                  "type": "bool"
                },
                {
                  "internalType": "uint8",
                  "name": "liqState",
                  "type": "uint8"
                },
                {
                  "internalType": "uint64",
                  "name": "_fromOrder",
                  "type": "uint64"
                },
                {
                  "internalType": "bytes32",
                  "name": "_refCode",
                  "type": "bytes32"
                },
                {
                  "internalType": "uint256",
                  "name": "collateralDelta",
                  "type": "uint256"
                },
                {
                  "internalType": "uint8",
                  "name": "execNum",
                  "type": "uint8"
                },
                {
                  "internalType": "uint256[]",
                  "name": "inputs",
                  "type": "uint256[]"
                }
              ],
              "internalType": "struct MarketDataTypes.UpdatePositionInputs",
              "name": "inputs",
              "type": "tuple"
            },
            {
              "components": [
                {
                  "internalType": "address",
                  "name": "market",
                  "type": "address"
                },
                {
                  "internalType": "bool",
                  "name": "isLong",
                  "type": "bool"
                },
                {
                  "internalType": "uint32",
                  "name": "lastTime",
                  "type": "uint32"
                },
                {
                  "internalType": "uint216",
                  "name": "extra3",
                  "type": "uint216"
                },
                {
                  "internalType": "uint256",
                  "name": "size",
                  "type": "uint256"
                },
                {
                  "internalType": "uint256",
                  "name": "collateral",
                  "type": "uint256"
                },
                {
                  "internalType": "uint256",
                  "name": "averagePrice",
                  "type": "uint256"
                },
                {
                  "internalType": "int256",
                  "name": "entryFundingRate",
                  "type": "int256"
                },
                {
                  "internalType": "int256",
                  "name": "realisedPnl",
                  "type": "int256"
                },
                {
                  "internalType": "uint256",
                  "name": "extra0",
                  "type": "uint256"
                },
                {
                  "internalType": "uint256",
                  "name": "extra1",
                  "type": "uint256"
                },
                {
                  "internalType": "uint256",
                  "name": "extra2",
                  "type": "uint256"
                }
              ],
              "internalType": "struct Position.Props",
              "name": "position",
              "type": "tuple"
            },
            {
              "internalType": "int256[]",
              "name": "fees",
              "type": "int256[]"
            },
            {
              "internalType": "address",
              "name": "collateralToken",
              "type": "address"
            },
            {
              "internalType": "address",
              "name": "indexToken",
              "type": "address"
            },
            {
              "internalType": "int256",
              "name": "collateralDeltaAfter",
              "type": "int256"
            }
          ],
          "internalType": "struct MarketPositionCallBackIntl.UpdatePositionEvent",
          "name": "_event",
          "type": "tuple"
        }
      ],
      "name": "updatePositionCallback",
      "outputs": [],
      "stateMutability": "nonpayable",
      "type": "function"
    },
    {
      "inputs": [
        {
          "components": [
            {
              "internalType": "address",
              "name": "_market",
              "type": "address"
            },
            {
              "internalType": "bool",
              "name": "_isLong",
              "type": "bool"
            },
            {
              "internalType": "uint256",
              "name": "_oraclePrice",
              "type": "uint256"
            },
            {
              "internalType": "bool",
              "name": "isOpen",
              "type": "bool"
            },
            {
              "internalType": "address",
              "name": "_account",
              "type": "address"
            },
            {
              "internalType": "uint256",
              "name": "_sizeDelta",
              "type": "uint256"
            },
            {
              "internalType": "uint256",
              "name": "_price",
              "type": "uint256"
            },
            {
              "internalType": "uint256",
              "name": "_slippage",
              "type": "uint256"
            },
            {
              "internalType": "bool",
              "name": "_isExec",
              "type": "bool"
            },
            {
              "internalType": "uint8",
              "name": "liqState",
              "type": "uint8"
            },
            {
              "internalType": "uint64",
              "name": "_fromOrder",
              "type": "uint64"
            },
            {
              "internalType": "bytes32",
              "name": "_refCode",
              "type": "bytes32"
            },
            {
              "internalType": "uint256",
              "name": "collateralDelta",
              "type": "uint256"
            },
            {
              "internalType": "uint8",
              "name": "execNum",
              "type": "uint8"
            },
            {
              "internalType": "uint256[]",
              "name": "inputs",
              "type": "uint256[]"
            }
          ],
          "internalType": "struct MarketDataTypes.UpdatePositionInputs",
          "name": "_inputs",
          "type": "tuple"
        }
      ],
      "name": "validateIncreasePosition",
      "outputs": [],
      "stateMutability": "view",
      "type": "function"
    },
    {
      "inputs": [],
      "name": "vaultRouter",
      "outputs": [
        {
          "internalType": "address",
          "name": "",
          "type": "address"
        }
      ],
      "stateMutability": "view",
      "type": "function"
    }
  ],
  "bytecode": "0x60806040523480156200001157600080fd5b506200001d3362000028565b60016003556200007a565b600180546001600160a01b038381166001600160a01b0319831681179093556040519116919082907f8be0079c531659141344cd1fd0a4f28419497f9722a3daafe3b4186f6b6457e090600090a35050565b61416b806200008a6000396000f3fe608060405234801561001057600080fd5b506004361061018b5760003560e01c806301ffc9a7146101905780630799f55f146101b85780630d918caa146101d55780631cfe5828146101ea5780632073b0ce146101fd578063248a9ca3146102135780632ca6d2c0146102265780632f2ff15d14610239578063332013a71461024c57806336568abe1461026057806340a542fe146102735780634463b5bc14610286578063544781af14610299578063612c39b7146102ac578063715018a614610300578063718cb58a1461030857806375829def1461031b5780638b4400f21461032e5780638da5cb5b1461034e57806391d148541461035657806399d5c1ec14610369578063a217fddf1461037c578063abed961814610384578063b038beb814610397578063c0c53b8b146103aa578063cce9a2f3146103bd578063cd6ebf66146103d0578063d37c441c146103e3578063d547741f146103f6578063db91323614610409578063de1f44301461041c578063ec2c90161461042f578063f2fde38b14610444575b600080fd5b6101a361019e366004612c43565b610457565b60405190151581526020015b60405180910390f35b6101c061048e565b604080519283526020830191909152016101af565b6101e86101e3366004612f99565b610551565b005b6101e86101f8366004612f99565b6106f8565b610205610a14565b6040519081526020016101af565b610205610221366004612fcd565b610ac4565b6101c0610234366004612fe6565b610ad9565b6101e8610247366004613003565b610ba8565b600a546101a390600160a01b900460ff1681565b6101e861026e366004613003565b610bc9565b6101e8610281366004613117565b610c47565b6101e86102943660046131eb565b610d9c565b6101e86102a736600461326c565b610dd3565b604080516060808201835260008083526020808401829052928401528251808201845260018082528184018181529185018181528551918252915115159381019390935251151592820192909252016101af565b6101e86111cc565b6101e861031636600461350c565b6111e0565b6101e8610329366004612fe6565b6112b4565b600954610341906001600160a01b031681565b6040516101af91906135dc565b6103416112de565b6101a3610364366004613003565b6112ed565b6101e8610377366004613003565b611316565b610205600081565b6101e8610392366004612f99565b611393565b6101e86103a53660046135f0565b611461565b6101e86103b83660046136be565b611472565b6101e86103cb3660046135f0565b6115e3565b6101e86103de366004612fe6565b611729565b600a54610341906001600160a01b031681565b6101e8610404366004613003565b6118a3565b6101e8610417366004612fe6565b6118bf565b6101e861042a366004613709565b61197e565b610437611b13565b6040516101af9190613737565b6101e8610452366004612fe6565b611b24565b60006001600160e01b03198216637965db0b60e01b148061048857506301ffc9a760e01b6001600160e01b03198316145b92915050565b60008060005b61049e6005611b9a565b5181101561054c5760006104b3600583611bae565b9050600080826001600160a01b0316638749694a6040518163ffffffff1660e01b81526004016040805180830381865afa1580156104f5573d6000803e3d6000fd5b505050506040513d601f19601f820116820180604052508101906105199190613784565b909250905061052882876137be565b955061053481866137be565b94505050508080610544906137d1565b915050610494565b509091565b610559611bba565b600a54600160a01b900460ff168015610576575060008160a00151115b156105895761058481611c13565b6106eb565b805161059790600790611d52565b6105df5760405162461bcd60e51b815260206004820152601460248201527313585c9ad95d149bdd5d195c8e885b585c9ad95d60621b60448201526064015b60405180910390fd5b6000816000015190506000816001600160a01b031663b2016bd46040518163ffffffff1660e01b8152600401602060405180830381865afa158015610628573d6000803e3d6000fd5b505050506040513d601f19601f8201168201806040525081019061064c91906137ea565b905061067833846000015161066684876101800151611d67565b6001600160a01b038516929190611de0565b336080840152610687836106f8565b8251604051631def7c1d60e11b81526001600160a01b0390911690633bdef83a906106b690869060040161384f565b600060405180830381600087803b1580156106d057600080fd5b505af11580156106e4573d6000803e3d6000fd5b5050505050505b6106f56001600355565b50565b80516001600160a01b03908116600090815260046020908152604080832054815161014081018352848152808401858152928101858152606082018690526080820186905260a080830187905260c0830187905260e083018790526101008301879052610120830196909652875187168252948701519092529185015115159092529091169061078661048e565b6080830152606082015261079933610ad9565b60c083015260a0820152604080516343a4b4a560e11b815281516001600160a01b03851692638749694a92600480820193918290030181865afa1580156107e4573d6000803e3d6000fd5b505050506040513d601f19601f820116820180604052508101906108089190613784565b61010083015260e0820152825160408051632c805af560e21b815290516000926001600160a01b03169163b2016bd49160048083019260209291908290030181865afa15801561085c573d6000803e3d6000fd5b505050506040513d601f19601f8201168201806040525081019061088091906137ea565b9050610963600a60009054906101000a90046001600160a01b03166001600160a01b0316636dc7b0a16040518163ffffffff1660e01b8152600401602060405180830381865afa1580156108d8573d6000803e3d6000fd5b505050506040513d601f19601f820116820180604052508101906108fc9190613954565b826001600160a01b031663313ce5676040518163ffffffff1660e01b8152600401602060405180830381865afa15801561093a573d6000803e3d6000fd5b505050506040513d601f19601f8201168201806040525081019061095e919061396d565b611e3a565b61012083015260095460405163028c7b5160e41b81526001600160a01b03909116906328c7b5109061099990859060040161398a565b602060405180830381865afa1580156109b6573d6000803e3d6000fd5b505050506040513d601f19601f820116820180604052508101906109da9190613a0c565b610a0e5760405162461bcd60e51b815260206004820152600560248201526436b91d33bb60d91b60448201526064016105d6565b50505050565b6000805b610a226007611b9a565b51811015610ac0576000610a37600783611bae565b90506000816001600160a01b03166393a98e6c6040518163ffffffff1660e01b8152600401602060405180830381865afa158015610a79573d6000803e3d6000fd5b505050506040513d601f19601f82011682018060405250810190610a9d9190613954565b9050610aa98185613a29565b935050508080610ab8906137d1565b915050610a18565b5090565b60009081526020819052604090206001015490565b60008060005b610ae96005611b9a565b51811015610ba2576000610afe600583611bae565b9050600080826001600160a01b0316632ca6d2c0886040518263ffffffff1660e01b8152600401610b2f91906135dc565b6040805180830381865afa158015610b4b573d6000803e3d6000fd5b505050506040513d601f19601f82011682018060405250810190610b6f9190613784565b9092509050610b7e82876137be565b9550610b8a81866137be565b94505050508080610b9a906137d1565b915050610adf565b50915091565b610bb182610ac4565b610bba81611e67565b610bc48383611e71565b505050565b6001600160a01b0381163314610c395760405162461bcd60e51b815260206004820152602f60248201527f416363657373436f6e74726f6c3a2063616e206f6e6c792072656e6f756e636560448201526e103937b632b9903337b91039b2b63360891b60648201526084016105d6565b610c438282611ef5565b5050565b8051516001600160a01b03163314610c715760405162461bcd60e51b81526004016105d690613a51565b610c7c600733611d52565b610c985760405162461bcd60e51b81526004016105d690613a79565b80516060015160019015610cc357815160a00151600003610cbb57506002610d06565b506000610d06565b8151610120015160ff16600103610cdc57506004610d06565b8151610120015160ff16600203610cf557506005610d06565b815160a00151600003610d06575060035b815160808082015161018083015160a08087015190850151602080870151604080890151928b01516101000151818c01518a5160608e01519a8e0151610140909c015193516001600160a01b03909a169b7fd0abfef5eb2cd61e6fd56ea2b69e9867bc90e8589023c554bdade2287b28c9399b610d909b96979694959394929390928f9190613aa1565b60405180910390a25050565b600080516020614116833981519152610db481611e67565b50600a8054911515600160a01b0260ff60a01b19909216919091179055565b610ddb611bba565b82518451148015610ded575081518351145b8015610dfa575080518251145b610e435760405162461bcd60e51b815260206004820152601a602482015279082e4e4c2f240d8cadccee8d0e640c8de40dcdee840dac2e8c6d60331b60448201526064016105d6565b604080516001808252818301909252600091602080830190803683375050604080516001808252818301909252929350600092915060208083019080368337505060408051600180825281830190925292935060009291506020808301908036833701905050905060005b87518110156111be57610ee4888281518110610ecc57610ecc613b60565b60200260200101516007611d5290919063ffffffff16565b610f005760405162461bcd60e51b81526004016105d690613a79565b6000610f0d8260016137be565b90505b885181101561107657888181518110610f2b57610f2b613b60565b60200260200101516001600160a01b0316898381518110610f4e57610f4e613b60565b60200260200101516001600160a01b0316148015610fa15750878181518110610f7957610f79613b60565b60200260200101511515888381518110610f9557610f95613b60565b60200260200101511515145b8015610fde5750868181518110610fba57610fba613b60565b6020026020010151878381518110610fd457610fd4613b60565b6020026020010151145b801561101f5750858181518110610ff757610ff7613b60565b6020026020010151151586838151811061101357611013613b60565b60200260200101511515145b156110645760405162461bcd60e51b8152602060048201526015602482015274111d5c1b1a58d85d19481bdc99195c88199bdd5b99605a1b60448201526064016105d6565b8061106e816137d1565b915050610f10565b5086818151811061108957611089613b60565b6020026020010151846000815181106110a4576110a4613b60565b6020026020010190151590811515815250508581815181106110c8576110c8613b60565b6020026020010151836000815181106110e3576110e3613b60565b60200260200101818152505084818151811061110157611101613b60565b60200260200101518260008151811061111c5761111c613b60565b60200260200101901515908115158152505087818151811061114057611140613b60565b60200260200101516001600160a01b031663301f6fe9338686866040518563ffffffff1660e01b81526004016111799493929190613ba8565b600060405180830381600087803b15801561119357600080fd5b505af11580156111a7573d6000803e3d6000fd5b5050505080806111b6906137d1565b915050610eae565b50505050610a0e6001600355565b6111d4611f5a565b6111de6000611fb9565b565b6020810151516001600160a01b0316331461120d5760405162461bcd60e51b81526004016105d690613a51565b611218600733611d52565b6112345760405162461bcd60e51b81526004016105d690613a79565b80516060808201516020808501519081015181840151610120909501518251604080890151968901519481015160808a015191516001600160a01b03909716987f083f7516dcfe13a8bef8bcbbe89648ce92bfd7161733f88ba43e1049de6af1b4986112a99896979196909391929190613c42565b60405180910390a250565b60006112bf81611e67565b6112ca60008361200b565b6112d382611fb9565b610c43600033611ef5565b6001546001600160a01b031690565b6000918252602082815260408084206001600160a01b0393909316845291905290205460ff1690565b7f241ecf16d79d0f8dbfb92cbc07fe17840425976cf0667f022fe9877caa831b08600061134381336112ed565b9050801561137f57620151806002544261135d9190613ca7565b1061137a5760405162461bcd60e51b81526004016105d690613cba565b611389565b6113898233612015565b610a0e8484611e71565b61139b611bba565b600a54600160a01b900460ff1680156113b8575060008160a00151115b156113c65761058481611c13565b80516113d490600790611d52565b6113f05760405162461bcd60e51b81526004016105d690613a79565b336080820152805160405163157db2c360e31b81526001600160a01b039091169063abed96189061142590849060040161384f565b600060405180830381600087803b15801561143f57600080fd5b505af1158015611453573d6000803e3d6000fd5b505050506106f56001600355565b611469611bba565b6106eb8161206e565b600154600160a81b900460ff1615808015611498575060018054600160a01b900460ff16105b806114bf57506114a730612208565b1580156114bf575060018054600160a01b900460ff16145b6115225760405162461bcd60e51b815260206004820152602e60248201527f496e697469616c697a61626c653a20636f6e747261637420697320616c72656160448201526d191e481a5b9a5d1a585b1a5e995960921b60648201526084016105d6565b6001805460ff60a01b1916600160a01b179055801561154f576001805460ff60a81b1916600160a81b1790555b61155884612217565b600980546001600160a01b038086166001600160a01b031990921691909117909155600a80546001600160a81b03191691841691909117600160a01b1790558015610a0e576001805460ff60a81b191681556040519081527f7f26b83ff96e1f2b6a682f133852f6798a09c465da95921460cefb38474024989060200160405180910390a150505050565b80516001600160a01b0316331461160c5760405162461bcd60e51b81526004016105d690613a51565b611617600733611d52565b6116335760405162461bcd60e51b81526004016105d690613a79565b60a080820151606080820151602085015191850151610120840151865160c08601519686015160e08701516001600160a01b03909516977fc1a292b7363ad930d02501a9224823f3fc6d6433978aa670da66b24004eaac7197949593949293909261169d9061223a565b8a606001516116ad5760006116c1565b60a08b015161010001516001600160801b03165b8b606001516116d15760006116de565b6116de8c60a001516122b0565b8c606001516116f9576116f48d60a001516122b0565b6116fc565b60005b60a08e01516080015165ffffffffffff1615158e6040516112a99d9c9b9a99989796959493929190613e55565b60008051602061411683398151915261174181611e67565b6001600160a01b03821661175457600080fd5b33611760600782611d52565b61177c5760405162461bcd60e51b81526004016105d690613a79565b6117e9816001600160a01b031663ac0b05a66040518163ffffffff1660e01b8152600401602060405180830381865afa1580156117bd573d6000803e3d6000fd5b505050506040513d601f19601f820116820180604052508101906117e191906137ea565b6005906122c1565b506000816001600160a01b031663ac0b05a66040518163ffffffff1660e01b8152600401602060405180830381865afa15801561182a573d6000803e3d6000fd5b505050506040513d601f19601f8201168201806040525081019061184e91906137ea565b905061185b6005826122c1565b506118676005856122d6565b61187057600080fd5b506001600160a01b0390811660009081526004602052604090208054919093166001600160a01b03199091161790915550565b6118ac82610ac4565b6118b581611e67565b610bc48383611ef5565b6000805160206141168339815191526118d781611e67565b6000826001600160a01b031663ac0b05a66040518163ffffffff1660e01b8152600401602060405180830381865afa158015611917573d6000803e3d6000fd5b505050506040513d601f19601f8201168201806040525081019061193b91906137ea565b90506119486007846122c1565b506119546005826122c1565b5050506001600160a01b0316600090815260046020526040902080546001600160a01b0319169055565b600080516020614116833981519152600061199981336112ed565b905080156119d55762015180600254426119b39190613ca7565b106119d05760405162461bcd60e51b81526004016105d690613cba565b6119df565b6119df8233612015565b6001600160a01b0384166119f257600080fd5b6000846001600160a01b031663ac0b05a66040518163ffffffff1660e01b8152600401602060405180830381865afa158015611a32573d6000803e3d6000fd5b505050506040513d601f19601f82011682018060405250810190611a5691906137ea565b9050611a636007866122d6565b611a6c57600080fd5b611a776005826122d6565b611a8057600080fd5b6001600160a01b0385811660008181526004602081905260409182902080546001600160a01b031916868616179055600a5491516329f076a960e21b81529081019290925286831660248301529091169063a7c1daa490604401600060405180830381600087803b158015611af457600080fd5b505af1158015611b08573d6000803e3d6000fd5b505050505050505050565b6060611b1f6007611b9a565b905090565b611b2c611f5a565b6001600160a01b038116611b915760405162461bcd60e51b815260206004820152602660248201527f4f776e61626c653a206e6577206f776e657220697320746865207a65726f206160448201526564647265737360d01b60648201526084016105d6565b6106f581611fb9565b60606000611ba7836122eb565b9392505050565b6000611ba78383612347565b600260035403611c0c5760405162461bcd60e51b815260206004820152601f60248201527f5265656e7472616e637947756172643a207265656e7472616e742063616c6c0060448201526064016105d6565b6002600355565b611c1b612b93565b6060820151611c2b908290612371565b611c3681600161239e565b60e0820151611c469082906123d7565b81516001600160a01b0316815260208083015115159082015260016080820152611c6e612bd7565b60608301511515600003611c9457611c8f611c88846123ef565b829061242c565b611ccb565b610180830151611ca590839061244a565b611cb8611cb184612462565b82906124a0565b611ccb611cc4846124bf565b82906124ef565b611cd983610180015161250e565b6001600160801b031660a08083019190915260808401516001600160a01b03166060830152830151611d0a9061250e565b6001600160801b031660c080830191909152830151611d289061250e565b6001600160801b031660e082015261016083015161018082015260a08201819052610bc48261206e565b6000611ba7836001600160a01b038416612577565b600080836001600160a01b031663313ce5676040518163ffffffff1660e01b8152600401602060405180830381865afa158015611da8573d6000803e3d6000fd5b505050506040513d601f19601f82011682018060405250810190611dcc919061396d565b9050611dd8838261258f565b949350505050565b604080516001600160a01b0385811660248301528416604482015260648082018490528251808303909101815260849091019091526020810180516001600160e01b03166323b872dd60e01b179052610a0e9085906125ab565b6000611e4782600a613fe3565b611e536012600a613ff2565b611e5d9085613ffe565b611ba79190614015565b6106f58133612015565b611e7b82826112ed565b610c43576000828152602081815260408083206001600160a01b03851684529091529020805460ff19166001179055611eb13390565b6001600160a01b0316816001600160a01b0316837f2f8788117e7eff1d82e926ec794901d17c78024a50270940304540a733656f0d60405160405180910390a45050565b611eff82826112ed565b15610c43576000828152602081815260408083206001600160a01b0385168085529252808320805460ff1916905551339285917ff6391f5c32d9c69d2a47ea670b442974b53935d1edc7fd64eb21e047a839171b9190a45050565b33611f636112de565b6001600160a01b0316146111de5760405162461bcd60e51b815260206004820181905260248201527f4f776e61626c653a2063616c6c6572206973206e6f7420746865206f776e657260448201526064016105d6565b600180546001600160a01b038381166001600160a01b0319831681179093556040519116919082907f8be0079c531659141344cd1fd0a4f28419497f9722a3daafe3b4186f6b6457e090600090a35050565b610c438282611e71565b61201f82826112ed565b610c435761202c8161267d565b61203783602061268f565b604051602001612048929190614037565b60408051601f198184030181529082905262461bcd60e51b82526105d6916004016140a6565b805161207c90600790611d52565b6120985760405162461bcd60e51b81526004016105d690613a79565b6120a18161282a565b6120de5760405162461bcd60e51b815260206004820152600e60248201526d696e76616c696420706172616d7360901b60448201526064016105d6565b60a081015133606091820152810151612106906120fa8361289c565b60a084015191906128c8565b80606001518015612118575080608001515b156121a457600081600001516001600160a01b031663b2016bd46040518163ffffffff1660e01b8152600401602060405180830381865afa158015612161573d6000803e3d6000fd5b505050506040513d601f19601f8201168201806040525081019061218591906137ea565b90506121a23383600001516106668461219d87612907565b611d67565b505b805160405163160717d760e31b81526001600160a01b039091169063b038beb8906121d39084906004016140b9565b600060405180830381600087803b1580156121ed57600080fd5b505af1158015612201573d6000803e3d6000fd5b5050505050565b6001600160a01b03163b151590565b4260025561222433611fb9565b61222f60003361200b565b6106f560008261200b565b6000816040015160ff1660010361225357506001919050565b816040015160ff1660020361226a57506000919050565b60405162461bcd60e51b815260206004820152601b60248201527a696e76616c6964206f7264657220747269676765722061626f766560281b60448201526064016105d6565b61016001516001600160801b031690565b6000611ba7836001600160a01b038416612935565b6000611ba7836001600160a01b038416612a28565b60608160000180548060200260200160405190810160405280929190818152602001828054801561233b57602002820191906000526020600020905b815481526020019060010190808311612327575b50505050509050919050565b600082600001828154811061235e5761235e613b60565b9060005260206000200154905092915050565b60408051600380825260808201909252906020820160608036833750505060c08301521515606090910152565b806123aa5760006123ad565b60015b60ff168260c001516001815181106123c7576123c7613b60565b6020026020010181815250505050565b808260c001516002815181106123c7576123c7613b60565b60006001826101c00151511015801561048857506000826101c0015160008151811061241d5761241d613b60565b60200260200101511192915050565b8061243857600061243b565b60015b60ff1660809092019190915250565b808260c001516000815181106123c7576123c7613b60565b60006001826101c0015151101561247a576000610488565b816101c0015160008151811061249257612492613b60565b602002602001015192915050565b6124a98161250e565b6001600160801b03166101009092019190915250565b60006002826101c001515110156124d7576000610488565b816101c0015160018151811061249257612492613b60565b6124f88161250e565b6001600160801b03166101609092019190915250565b60006001600160801b03821115610ac05760405162461bcd60e51b815260206004820152602760248201527f53616665436173743a2076616c756520646f65736e27742066697420696e20316044820152663238206269747360c81b60648201526084016105d6565b60009081526001919091016020526040902054151590565b600061259d6012600a613fe3565b611e5360ff8416600a613ff2565b6000612600826040518060400160405280602081526020017f5361666545524332303a206c6f772d6c6576656c2063616c6c206661696c6564815250856001600160a01b0316612a729092919063ffffffff16565b805190915015610bc4578080602001905181019061261e9190613a0c565b610bc45760405162461bcd60e51b815260206004820152602a60248201527f5361666545524332303a204552433230206f7065726174696f6e20646964206e6044820152691bdd081cdd58d8d9595960b21b60648201526084016105d6565b60606104886001600160a01b03831660145b6060600061269e836002613ffe565b6126a99060026137be565b6001600160401b038111156126c0576126c0612c6d565b6040519080825280601f01601f1916602001820160405280156126ea576020820181803683370190505b509050600360fc1b8160008151811061270557612705613b60565b60200101906001600160f81b031916908160001a905350600f60fb1b8160018151811061273457612734613b60565b60200101906001600160f81b031916908160001a9053506000612758846002613ffe565b6127639060016137be565b90505b60018111156127db576f181899199a1a9b1b9c1cb0b131b232b360811b85600f166010811061279757612797613b60565b1a60f81b8282815181106127ad576127ad613b60565b60200101906001600160f81b031916908160001a90535060049490941c936127d4816140cc565b9050612766565b508315611ba75760405162461bcd60e51b815260206004820181905260248201527f537472696e67733a20686578206c656e67746820696e73756666696369656e7460448201526064016105d6565b60408101516000901561283f57506000919050565b60608201511515600003612894578160800151156128945760006128668360a001516122b0565b111561287457506000919050565b60a082015161014001516001600160401b03161561289457506000919050565b506001919050565b600060028260c001515110158015610488575060008260c0015160018151811061241d5761241d613b60565b81156128ea57806128da5760006128dd565b60015b60ff166080840152505050565b806128f65760006128f9565b60015b60ff16610100840152505050565b600060018260c0015151101561291e576000610488565b8160c0015160008151811061249257612492613b60565b60008181526001830160205260408120548015612a1e576000612959600183613ca7565b855490915060009061296d90600190613ca7565b90508181146129d257600086600001828154811061298d5761298d613b60565b90600052602060002001549050808760000184815481106129b0576129b0613b60565b6000918252602080832090910192909255918252600188019052604090208390555b85548690806129e3576129e36140e3565b600190038181906000526020600020016000905590558560010160008681526020019081526020016000206000905560019350505050610488565b6000915050610488565b6000612a348383612577565b612a6a57508154600181810184556000848152602080822090930184905584548482528286019093526040902091909155610488565b506000610488565b6060611dd8848460008585600080866001600160a01b03168587604051612a9991906140f9565b60006040518083038185875af1925050503d8060008114612ad6576040519150601f19603f3d011682016040523d82523d6000602084013e612adb565b606091505b5091509150612aec87838387612af7565b979650505050505050565b60608315612b64578251600003612b5d57612b1185612208565b612b5d5760405162461bcd60e51b815260206004820152601d60248201527f416464726573733a2063616c6c20746f206e6f6e2d636f6e747261637400000060448201526064016105d6565b5081611dd8565b611dd88383815115612b795781518083602001fd5b8060405162461bcd60e51b81526004016105d691906140a6565b6040805160e08101825260008082526020820181905291810182905260608101829052608081019190915260a08101612bca612bd7565b8152602001606081525090565b604080516101a081018252600080825260208201819052918101829052606081018290526080810182905260a0810182905260c0810182905260e08101829052610100810182905261012081018290526101408101829052610160810182905261018081019190915290565b600060208284031215612c5557600080fd5b81356001600160e01b031981168114611ba757600080fd5b634e487b7160e01b600052604160045260246000fd5b6040516101e081016001600160401b0381118282101715612ca657612ca6612c6d565b60405290565b60405161018081016001600160401b0381118282101715612ca657612ca6612c6d565b60405160c081016001600160401b0381118282101715612ca657612ca6612c6d565b6040516101a081016001600160401b0381118282101715612ca657612ca6612c6d565b60405160a081016001600160401b0381118282101715612ca657612ca6612c6d565b60405160e081016001600160401b0381118282101715612ca657612ca6612c6d565b604051601f8201601f191681016001600160401b0381118282101715612d8057612d80612c6d565b604052919050565b6001600160a01b03811681146106f557600080fd5b8035612da881612d88565b919050565b80151581146106f557600080fd5b8035612da881612dad565b60ff811681146106f557600080fd5b8035612da881612dc6565b80356001600160401b0381168114612da857600080fd5b60006001600160401b03821115612e1057612e10612c6d565b5060051b60200190565b600082601f830112612e2b57600080fd5b81356020612e40612e3b83612df7565b612d58565b82815260059290921b84018101918181019086841115612e5f57600080fd5b8286015b84811015612e7a5780358352918301918301612e63565b509695505050505050565b60006101e08284031215612e9857600080fd5b612ea0612c83565b9050612eab82612d9d565b8152612eb960208301612dbb565b602082015260408201356040820152612ed460608301612dbb565b6060820152612ee560808301612d9d565b608082015260a082013560a082015260c082013560c082015260e082013560e0820152610100612f16818401612dbb565b90820152610120612f28838201612dd5565b90820152610140612f3a838201612de0565b90820152610160828101359082015261018080830135908201526101a0612f62818401612dd5565b908201526101c0828101356001600160401b03811115612f8157600080fd5b612f8d85828601612e1a565b82840152505092915050565b600060208284031215612fab57600080fd5b81356001600160401b03811115612fc157600080fd5b611dd884828501612e85565b600060208284031215612fdf57600080fd5b5035919050565b600060208284031215612ff857600080fd5b8135611ba781612d88565b6000806040838503121561301657600080fd5b82359150602083013561302881612d88565b809150509250929050565b803563ffffffff81168114612da857600080fd5b80356001600160d81b0381168114612da857600080fd5b6000610180828403121561307157600080fd5b613079612cac565b905061308482612d9d565b815261309260208301612dbb565b60208201526130a360408301613033565b60408201526130b460608301613047565b60608201526080820135608082015260a082013560a082015260c082013560c082015260e082013560e082015261010080830135818301525061012080830135818301525061014080830135818301525061016080830135818301525092915050565b60006020828403121561312957600080fd5b81356001600160401b038082111561314057600080fd5b90830190610220828603121561315557600080fd5b61315d612ccf565b82358281111561316c57600080fd5b61317887828601612e85565b825250613188866020850161305e565b60208201526101a0830135828111156131a057600080fd5b6131ac87828601612e1a565b6040830152506131bf6101c08401612d9d565b60608201526131d16101e08401612d9d565b6080820152610200929092013560a0830152509392505050565b6000602082840312156131fd57600080fd5b8135611ba781612dad565b600082601f83011261321957600080fd5b81356020613229612e3b83612df7565b82815260059290921b8401810191818101908684111561324857600080fd5b8286015b84811015612e7a57803561325f81612dad565b835291830191830161324c565b6000806000806080858703121561328257600080fd5b84356001600160401b038082111561329957600080fd5b818701915087601f8301126132ad57600080fd5b813560206132bd612e3b83612df7565b82815260059290921b8401810191818101908b8411156132dc57600080fd5b948201945b838610156133035785356132f481612d88565b825294820194908201906132e1565b9850508801359250508082111561331957600080fd5b61332588838901613208565b9450604087013591508082111561333b57600080fd5b61334788838901612e1a565b9350606087013591508082111561335d57600080fd5b5061336a87828801613208565b91505092959194509250565b803565ffffffffffff81168114612da857600080fd5b80356001600160801b0381168114612da857600080fd5b60006101a082840312156133b657600080fd5b6133be612cf1565b90506133c982612dd5565b81526133d760208301613033565b60208201526133e860408301612dd5565b60408201526133f960608301612d9d565b606082015261340a60808301613376565b608082015261341b60a0830161338c565b60a082015261342c60c0830161338c565b60c082015261343d60e0830161338c565b60e082015261010061345081840161338c565b90820152610120613462838201612de0565b90820152610140613474838201612de0565b9082015261016061348683820161338c565b818301525061018080830135818301525092915050565b600082601f8301126134ae57600080fd5b81356001600160401b038111156134c7576134c7612c6d565b6134da601f8201601f1916602001612d58565b8181528460208386010111156134ef57600080fd5b816020850160208301376000918101602001919091529392505050565b60006020828403121561351e57600080fd5b81356001600160401b038082111561353557600080fd5b90830190610220828603121561354a57600080fd5b613552612d14565b61355c86846133a3565b81526101a08301358281111561357157600080fd5b61357d87828601612e85565b6020830152506135906101c08401612dd5565b60408201526101e0830135828111156135a857600080fd5b6135b48782860161349d565b60608301525061020092909201356080830152509392505050565b6001600160a01b03169052565b6001600160a01b0391909116815260200190565b60006020828403121561360257600080fd5b81356001600160401b038082111561361957600080fd5b90830190610260828603121561362e57600080fd5b613636612d36565b61363f83612d9d565b815261364d60208401612dbb565b60208201526040830135604082015261366860608401612dbb565b606082015261367960808401612dbb565b608082015261368b8660a085016133a3565b60a0820152610240830135828111156136a357600080fd5b6136af87828601612e1a565b60c08301525095945050505050565b6000806000606084860312156136d357600080fd5b83356136de81612d88565b925060208401356136ee81612d88565b915060408401356136fe81612d88565b809150509250925092565b6000806040838503121561371c57600080fd5b823561372781612d88565b9150602083013561302881612d88565b6020808252825182820181905260009190848201906040850190845b818110156137785783516001600160a01b031683529284019291840191600101613753565b50909695505050505050565b6000806040838503121561379757600080fd5b505080516020909101519092909150565b634e487b7160e01b600052601160045260246000fd5b80820180821115610488576104886137a8565b6000600182016137e3576137e36137a8565b5060010190565b6000602082840312156137fc57600080fd5b8151611ba781612d88565b6001600160401b03169052565b600081518084526020808501945080840160005b8381101561384457815187529582019590820190600101613828565b509495945050505050565b602081526138616020820183516135cf565b60006020830151613876604084018215159052565b50604083015160608301526060830151613894608084018215159052565b5060808301516138a760a08401826135cf565b5060a083015160c083015260c083015160e083015260e08301516101008181850152808501519150506101206138e08185018315159052565b84015190506101406138f68482018360ff169052565b840151905061016061390a84820183613807565b840151610180848101919091528401516101a08085019190915284015190506101c061393a8185018360ff169052565b8401516101e0848101529050611dd8610200840182613814565b60006020828403121561396657600080fd5b5051919050565b60006020828403121561397f57600080fd5b8151611ba781612dc6565b60006101408201905061399e8284516135cf565b6020830151602083015260408301516139bb604084018215159052565b50606083015160608301526080830151608083015260a083015160a083015260c083015160c083015260e083015160e083015261010080840151818401525061012080840151818401525092915050565b600060208284031215613a1e57600080fd5b8151611ba781612dad565b8082018281126000831280158216821582161715613a4957613a496137a8565b505092915050565b6020808252600e908201526d34b73b30b634b21039b2b73232b960911b604082015260600190565b6020808252600e908201526d1a5b9d985b1a59081b585c9ad95d60921b604082015260600190565b60006101808083018f845260208f818601528e60408601528d151560608601528c60808601528b60a08601528260c08601528192508a518083526101a086019350818c01925060005b81811015613b0657835185529382019392820192600101613aea565b5050505080915050613b1b60e08301886135cf565b613b296101008301876135cf565b613b376101208301866135cf565b60ff8416610140830152613b4f610160830184613807565b9d9c50505050505050505050505050565b634e487b7160e01b600052603260045260246000fd5b600081518084526020808501945080840160005b83811015613844578151151587529582019590820190600101613b8a565b6001600160a01b0385168152608060208201819052600090613bcc90830186613b76565b8281036040840152613bde8186613814565b90508281036060840152612aec8185613b76565b60005b83811015613c0d578181015183820152602001613bf5565b50506000910152565b60008151808452613c2e816020860160208601613bf2565b601f01601f19169290920160200192915050565b881515815287151560208201526001600160401b03871660408201526001600160a01b038616606082015260ff8516608082015261010060a08201819052600090613c8f83820187613c16565b60c0840195909552505060e001529695505050505050565b81810381811115610488576104886137a8565b6020808252600e908201526d1858c81d1a5b59481c185cdcd95960921b604082015260600190565b6001600160801b03169052565b600061026060018060a01b0383511684526020830151151560208501526040830151604085015260608301511515606085015260808301511515608085015260a0830151613d4360a08601825160ff169052565b602081015163ffffffff1660c0860152604081015160ff1660e08601526060810151610100613d74818801836135cf565b60808301519150610120613d918189018465ffffffffffff169052565b60a08401519250610140613da7818a0185613ce2565b60c08501519350610160613dbd818b0186613ce2565b60e08601519450610180613dd3818c0187613ce2565b848701519550613de76101a08c0187613ce2565b838701519550613dfb6101c08c0187613807565b828701519550613e0f6101e08c0187613807565b818701519550613e236102008c0187613ce2565b808701516102208c01525050505050505060c083015181610240860152613e4c82860182613814565b95945050505050565b8d151581528c151560208201526001600160401b038c16604082015260006101a0613e83606084018e6135cf565b613e90608084018d613ce2565b613e9d60a084018c613ce2565b613eaa60c084018b613ce2565b88151560e08401528761010084015286610120840152613ece610140840187613ce2565b84151561016084015280610180840152613eea81840185613cef565b9150509e9d5050505050505050505050505050565b600181815b80851115613f3a578160001904821115613f2057613f206137a8565b80851615613f2d57918102915b93841c9390800290613f04565b509250929050565b600082613f5157506001610488565b81613f5e57506000610488565b8160018114613f745760028114613f7e57613f9a565b6001915050610488565b60ff841115613f8f57613f8f6137a8565b50506001821b610488565b5060208310610133831016604e8410600b8410161715613fbd575081810a610488565b613fc78383613eff565b8060001904821115613fdb57613fdb6137a8565b029392505050565b6000611ba760ff841683613f42565b6000611ba78383613f42565b8082028115828204841417610488576104886137a8565b60008261403257634e487b7160e01b600052601260045260246000fd5b500490565b76020b1b1b2b9b9a1b7b73a3937b61d1030b1b1b7bab73a1604d1b815260008351614069816017850160208801613bf2565b7001034b99036b4b9b9b4b733903937b6329607d1b601791840191820152835161409a816028840160208801613bf2565b01602801949350505050565b602081526000611ba76020830184613c16565b602081526000611ba76020830184613cef565b6000816140db576140db6137a8565b506000190190565b634e487b7160e01b600052603160045260246000fd5b6000825161410b818460208701613bf2565b919091019291505056fe8d1089725c0dc266707fa6207730fb801dcd03108bfed7a21099bd303651d2b7a26469706673582212200ddae1b275e5067ad5190de0d6a78480c00cbed41948697efacf6e5c925256e164736f6c63430008110033",
  "linkReferences": {},
  "deployedLinkReferences": {}
}