{
  "_format": "hh-sol-artifact-1",
  "contractName": "MarketRouter",
  "sourceName": "contracts/market/MarketRouter.sol",
  "abi": [
    {
      "anonymous": false,
      "inputs": [
        {
          "indexed": true,
          "internalType": "address",
          "name": "account",
          "type": "address"
        },
        {
          "indexed": false,
          "internalType": "bool",
          "name": "isLong",
          "type": "bool"
        },
        {
          "indexed": false,
          "internalType": "bool",
          "name": "isIncrease",
          "type": "bool"
        },
        {
          "indexed": false,
          "internalType": "uint256",
          "name": "orderID",
          "type": "uint256"
        },
        {
          "indexed": false,
          "internalType": "address",
          "name": "market",
          "type": "address"
        },
        {
          "indexed": false,
          "internalType": "uint8",
          "name": "reason",
          "type": "uint8"
        },
        {
          "indexed": false,
          "internalType": "string",
          "name": "reasonStr",
          "type": "string"
        },
        {
          "indexed": false,
          "internalType": "uint256",
          "name": "price",
          "type": "uint256"
        },
        {
          "indexed": false,
          "internalType": "int256",
          "name": "dPNL",
          "type": "int256"
        }
      ],
      "name": "DeleteOrder",
      "type": "event"
    },
    {
      "anonymous": false,
      "inputs": [
        {
          "indexed": false,
          "internalType": "uint8",
          "name": "version",
          "type": "uint8"
        }
      ],
      "name": "Initialized",
      "type": "event"
    },
    {
      "anonymous": false,
      "inputs": [
        {
          "indexed": true,
          "internalType": "address",
          "name": "previousOwner",
          "type": "address"
        },
        {
          "indexed": true,
          "internalType": "address",
          "name": "newOwner",
          "type": "address"
        }
      ],
      "name": "OwnershipTransferred",
      "type": "event"
    },
    {
      "anonymous": false,
      "inputs": [
        {
          "indexed": true,
          "internalType": "bytes32",
          "name": "role",
          "type": "bytes32"
        },
        {
          "indexed": true,
          "internalType": "bytes32",
          "name": "previousAdminRole",
          "type": "bytes32"
        },
        {
          "indexed": true,
          "internalType": "bytes32",
          "name": "newAdminRole",
          "type": "bytes32"
        }
      ],
      "name": "RoleAdminChanged",
      "type": "event"
    },
    {
      "anonymous": false,
      "inputs": [
        {
          "indexed": true,
          "internalType": "bytes32",
          "name": "role",
          "type": "bytes32"
        },
        {
          "indexed": true,
          "internalType": "address",
          "name": "account",
          "type": "address"
        },
        {
          "indexed": true,
          "internalType": "address",
          "name": "sender",
          "type": "address"
        }
      ],
      "name": "RoleGranted",
      "type": "event"
    },
    {
      "anonymous": false,
      "inputs": [
        {
          "indexed": true,
          "internalType": "bytes32",
          "name": "role",
          "type": "bytes32"
        },
        {
          "indexed": true,
          "internalType": "address",
          "name": "account",
          "type": "address"
        },
        {
          "indexed": true,
          "internalType": "address",
          "name": "sender",
          "type": "address"
        }
      ],
      "name": "RoleRevoked",
      "type": "event"
    },
    {
      "anonymous": false,
      "inputs": [
        {
          "indexed": true,
          "internalType": "address",
          "name": "account",
          "type": "address"
        },
        {
          "indexed": false,
          "internalType": "bool",
          "name": "isLong",
          "type": "bool"
        },
        {
          "indexed": false,
          "internalType": "bool",
          "name": "isIncrease",
          "type": "bool"
        },
        {
          "indexed": false,
          "internalType": "uint256",
          "name": "orderID",
          "type": "uint256"
        },
        {
          "indexed": false,
          "internalType": "address",
          "name": "market",
          "type": "address"
        },
        {
          "indexed": false,
          "internalType": "uint256",
          "name": "size",
          "type": "uint256"
        },
        {
          "indexed": false,
          "internalType": "uint256",
          "name": "collateral",
          "type": "uint256"
        },
        {
          "indexed": false,
          "internalType": "uint256",
          "name": "triggerPrice",
          "type": "uint256"
        },
        {
          "indexed": false,
          "internalType": "bool",
          "name": "triggerAbove",
          "type": "bool"
        },
        {
          "indexed": false,
          "internalType": "uint256",
          "name": "tp",
          "type": "uint256"
        },
        {
          "indexed": false,
          "internalType": "uint256",
          "name": "sl",
          "type": "uint256"
        },
        {
          "indexed": false,
          "internalType": "uint128",
          "name": "fromOrder",
          "type": "uint128"
        },
        {
          "indexed": false,
          "internalType": "bool",
          "name": "isKeepLev",
          "type": "bool"
        },
        {
          "components": [
            {
              "internalType": "address",
              "name": "_market",
              "type": "address"
            },
            {
              "internalType": "bool",
              "name": "_isLong",
              "type": "bool"
            },
            {
              "internalType": "uint256",
              "name": "_oraclePrice",
              "type": "uint256"
            },
            {
              "internalType": "bool",
              "name": "isOpen",
              "type": "bool"
            },
            {
              "internalType": "bool",
              "name": "isCreate",
              "type": "bool"
            },
            {
              "components": [
                {
                  "internalType": "uint8",
                  "name": "version",
                  "type": "uint8"
                },
                {
                  "internalType": "uint32",
                  "name": "updatedAtBlock",
                  "type": "uint32"
                },
                {
                  "internalType": "uint8",
                  "name": "triggerAbove",
                  "type": "uint8"
                },
                {
                  "internalType": "address",
                  "name": "account",
                  "type": "address"
                },
                {
                  "internalType": "uint48",
                  "name": "extra3",
                  "type": "uint48"
                },
                {
                  "internalType": "uint128",
                  "name": "collateral",
                  "type": "uint128"
                },
                {
                  "internalType": "uint128",
                  "name": "size",
                  "type": "uint128"
                },
                {
                  "internalType": "uint128",
                  "name": "price",
                  "type": "uint128"
                },
                {
                  "internalType": "uint128",
                  "name": "extra1",
                  "type": "uint128"
                },
                {
                  "internalType": "uint64",
                  "name": "orderID",
                  "type": "uint64"
                },
                {
                  "internalType": "uint64",
                  "name": "extra2",
                  "type": "uint64"
                },
                {
                  "internalType": "uint128",
                  "name": "extra0",
                  "type": "uint128"
                },
                {
                  "internalType": "bytes32",
                  "name": "refCode",
                  "type": "bytes32"
                }
              ],
              "internalType": "struct Order.Props",
              "name": "_order",
              "type": "tuple"
            },
            {
              "internalType": "uint256[]",
              "name": "inputs",
              "type": "uint256[]"
            }
          ],
          "indexed": false,
          "internalType": "struct MarketDataTypes.UpdateOrderInputs",
          "name": "params",
          "type": "tuple"
        }
      ],
      "name": "UpdateOrder",
      "type": "event"
    },
    {
      "anonymous": false,
      "inputs": [
        {
          "indexed": true,
          "internalType": "address",
          "name": "account",
          "type": "address"
        },
        {
          "indexed": false,
          "internalType": "uint256",
          "name": "collateralDelta",
          "type": "uint256"
        },
        {
          "indexed": false,
          "internalType": "int256",
          "name": "collateralDeltaAfter",
          "type": "int256"
        },
        {
          "indexed": false,
          "internalType": "uint256",
          "name": "sizeDelta",
          "type": "uint256"
        },
        {
          "indexed": false,
          "internalType": "bool",
          "name": "isLong",
          "type": "bool"
        },
        {
          "indexed": false,
          "internalType": "uint256",
          "name": "price",
          "type": "uint256"
        },
        {
          "indexed": false,
          "internalType": "int256",
          "name": "pnl",
          "type": "int256"
        },
        {
          "indexed": false,
          "internalType": "int256[]",
          "name": "fees",
          "type": "int256[]"
        },
        {
          "indexed": false,
          "internalType": "address",
          "name": "market",
          "type": "address"
        },
        {
          "indexed": false,
          "internalType": "address",
          "name": "collateralToken",
          "type": "address"
        },
        {
          "indexed": false,
          "internalType": "address",
          "name": "indexToken",
          "type": "address"
        },
        {
          "indexed": false,
          "internalType": "uint256",
          "name": "category",
          "type": "uint256"
        },
        {
          "indexed": false,
          "internalType": "uint64",
          "name": "fromOrder",
          "type": "uint64"
        }
      ],
      "name": "UpdatePosition",
      "type": "event"
    },
    {
      "inputs": [],
      "name": "DEFAULT_ADMIN_ROLE",
      "outputs": [
        {
          "internalType": "bytes32",
          "name": "",
          "type": "bytes32"
        }
      ],
      "stateMutability": "view",
      "type": "function"
    },
    {
      "inputs": [
        {
          "internalType": "address",
          "name": "_market",
          "type": "address"
        }
      ],
      "name": "addMarket",
      "outputs": [],
      "stateMutability": "nonpayable",
      "type": "function"
    },
    {
      "inputs": [
        {
          "internalType": "address[]",
          "name": "_markets",
          "type": "address[]"
        },
        {
          "internalType": "bool[]",
          "name": "_isIncreaseList",
          "type": "bool[]"
        },
        {
          "internalType": "uint256[]",
          "name": "_orderIDList",
          "type": "uint256[]"
        },
        {
          "internalType": "bool[]",
          "name": "_isLongList",
          "type": "bool[]"
        }
      ],
      "name": "cancelOrderList",
      "outputs": [],
      "stateMutability": "nonpayable",
      "type": "function"
    },
    {
      "inputs": [
        {
          "components": [
            {
              "internalType": "address",
              "name": "_market",
              "type": "address"
            },
            {
              "internalType": "bool",
              "name": "_isLong",
              "type": "bool"
            },
            {
              "internalType": "uint256",
              "name": "_oraclePrice",
              "type": "uint256"
            },
            {
              "internalType": "bool",
              "name": "isOpen",
              "type": "bool"
            },
            {
              "internalType": "address",
              "name": "_account",
              "type": "address"
            },
            {
              "internalType": "uint256",
              "name": "_sizeDelta",
              "type": "uint256"
            },
            {
              "internalType": "uint256",
              "name": "_price",
              "type": "uint256"
            },
            {
              "internalType": "uint256",
              "name": "_slippage",
              "type": "uint256"
            },
            {
              "internalType": "bool",
              "name": "_isExec",
              "type": "bool"
            },
            {
              "internalType": "uint8",
              "name": "liqState",
              "type": "uint8"
            },
            {
              "internalType": "uint64",
              "name": "_fromOrder",
              "type": "uint64"
            },
            {
              "internalType": "bytes32",
              "name": "_refCode",
              "type": "bytes32"
            },
            {
              "internalType": "uint256",
              "name": "collateralDelta",
              "type": "uint256"
            },
            {
              "internalType": "uint8",
              "name": "execNum",
              "type": "uint8"
            },
            {
              "internalType": "uint256[]",
              "name": "inputs",
              "type": "uint256[]"
            }
          ],
          "internalType": "struct MarketDataTypes.UpdatePositionInputs",
          "name": "_vars",
          "type": "tuple"
        }
      ],
      "name": "decreasePosition",
      "outputs": [],
      "stateMutability": "nonpayable",
      "type": "function"
    },
    {
      "inputs": [
        {
          "components": [
            {
              "components": [
                {
                  "internalType": "uint8",
                  "name": "version",
                  "type": "uint8"
                },
                {
                  "internalType": "uint32",
                  "name": "updatedAtBlock",
                  "type": "uint32"
                },
                {
                  "internalType": "uint8",
                  "name": "triggerAbove",
                  "type": "uint8"
                },
                {
                  "internalType": "address",
                  "name": "account",
                  "type": "address"
                },
                {
                  "internalType": "uint48",
                  "name": "extra3",
                  "type": "uint48"
                },
                {
                  "internalType": "uint128",
                  "name": "collateral",
                  "type": "uint128"
                },
                {
                  "internalType": "uint128",
                  "name": "size",
                  "type": "uint128"
                },
                {
                  "internalType": "uint128",
                  "name": "price",
                  "type": "uint128"
                },
                {
                  "internalType": "uint128",
                  "name": "extra1",
                  "type": "uint128"
                },
                {
                  "internalType": "uint64",
                  "name": "orderID",
                  "type": "uint64"
                },
                {
                  "internalType": "uint64",
                  "name": "extra2",
                  "type": "uint64"
                },
                {
                  "internalType": "uint128",
                  "name": "extra0",
                  "type": "uint128"
                },
                {
                  "internalType": "bytes32",
                  "name": "refCode",
                  "type": "bytes32"
                }
              ],
              "internalType": "struct Order.Props",
              "name": "order",
              "type": "tuple"
            },
            {
              "components": [
                {
                  "internalType": "address",
                  "name": "_market",
                  "type": "address"
                },
                {
                  "internalType": "bool",
                  "name": "_isLong",
                  "type": "bool"
                },
                {
                  "internalType": "uint256",
                  "name": "_oraclePrice",
                  "type": "uint256"
                },
                {
                  "internalType": "bool",
                  "name": "isOpen",
                  "type": "bool"
                },
                {
                  "internalType": "address",
                  "name": "_account",
                  "type": "address"
                },
                {
                  "internalType": "uint256",
                  "name": "_sizeDelta",
                  "type": "uint256"
                },
                {
                  "internalType": "uint256",
                  "name": "_price",
                  "type": "uint256"
                },
                {
                  "internalType": "uint256",
                  "name": "_slippage",
                  "type": "uint256"
                },
                {
                  "internalType": "bool",
                  "name": "_isExec",
                  "type": "bool"
                },
                {
                  "internalType": "uint8",
                  "name": "liqState",
                  "type": "uint8"
                },
                {
                  "internalType": "uint64",
                  "name": "_fromOrder",
                  "type": "uint64"
                },
                {
                  "internalType": "bytes32",
                  "name": "_refCode",
                  "type": "bytes32"
                },
                {
                  "internalType": "uint256",
                  "name": "collateralDelta",
                  "type": "uint256"
                },
                {
                  "internalType": "uint8",
                  "name": "execNum",
                  "type": "uint8"
                },
                {
                  "internalType": "uint256[]",
                  "name": "inputs",
                  "type": "uint256[]"
                }
              ],
              "internalType": "struct MarketDataTypes.UpdatePositionInputs",
              "name": "inputs",
              "type": "tuple"
            },
            {
              "internalType": "uint8",
              "name": "reason",
              "type": "uint8"
            },
            {
              "internalType": "string",
              "name": "reasonStr",
              "type": "string"
            },
            {
              "internalType": "int256",
              "name": "dPNL",
              "type": "int256"
            }
          ],
          "internalType": "struct MarketOrderCallBackIntl.DeleteOrderEvent",
          "name": "e",
          "type": "tuple"
        }
      ],
      "name": "deleteOrderCallback",
      "outputs": [],
      "stateMutability": "nonpayable",
      "type": "function"
    },
    {
      "inputs": [
        {
          "internalType": "address",
          "name": "account",
          "type": "address"
        }
      ],
      "name": "getAccountSize",
      "outputs": [
        {
          "internalType": "uint256",
          "name": "sizesL",
          "type": "uint256"
        },
        {
          "internalType": "uint256",
          "name": "sizesS",
          "type": "uint256"
        }
      ],
      "stateMutability": "view",
      "type": "function"
    },
    {
      "inputs": [],
      "name": "getGlobalPNL",
      "outputs": [
        {
          "internalType": "int256",
          "name": "pnl",
          "type": "int256"
        }
      ],
      "stateMutability": "view",
      "type": "function"
    },
    {
      "inputs": [],
      "name": "getGlobalSize",
      "outputs": [
        {
          "internalType": "uint256",
          "name": "sizesLong",
          "type": "uint256"
        },
        {
          "internalType": "uint256",
          "name": "sizesShort",
          "type": "uint256"
        }
      ],
      "stateMutability": "view",
      "type": "function"
    },
    {
      "inputs": [],
      "name": "getHooksCalls",
      "outputs": [
        {
          "components": [
            {
              "internalType": "bool",
              "name": "updatePosition",
              "type": "bool"
            },
            {
              "internalType": "bool",
              "name": "updateOrder",
              "type": "bool"
            },
            {
              "internalType": "bool",
              "name": "deleteOrder",
              "type": "bool"
            }
          ],
          "internalType": "struct MarketCallBackIntl.Calls",
          "name": "",
          "type": "tuple"
        }
      ],
      "stateMutability": "pure",
      "type": "function"
    },
    {
      "inputs": [],
      "name": "getMarkets",
      "outputs": [
        {
          "internalType": "address[]",
          "name": "",
          "type": "address[]"
        }
      ],
      "stateMutability": "view",
      "type": "function"
    },
    {
      "inputs": [
        {
          "internalType": "bytes32",
          "name": "role",
          "type": "bytes32"
        }
      ],
      "name": "getRoleAdmin",
      "outputs": [
        {
          "internalType": "bytes32",
          "name": "",
          "type": "bytes32"
        }
      ],
      "stateMutability": "view",
      "type": "function"
    },
    {
      "inputs": [
        {
          "internalType": "bytes32",
          "name": "role",
          "type": "bytes32"
        },
        {
          "internalType": "address",
          "name": "account",
          "type": "address"
        }
      ],
      "name": "grantAndRevoke",
      "outputs": [],
      "stateMutability": "nonpayable",
      "type": "function"
    },
    {
      "inputs": [
        {
          "internalType": "bytes32",
          "name": "role",
          "type": "bytes32"
        },
        {
          "internalType": "address",
          "name": "account",
          "type": "address"
        }
      ],
      "name": "grantRole",
      "outputs": [],
      "stateMutability": "nonpayable",
      "type": "function"
    },
    {
      "inputs": [],
      "name": "gv",
      "outputs": [
        {
          "internalType": "address",
          "name": "",
          "type": "address"
        }
      ],
      "stateMutability": "view",
      "type": "function"
    },
    {
      "inputs": [
        {
          "internalType": "bytes32",
          "name": "role",
          "type": "bytes32"
        },
        {
          "internalType": "address",
          "name": "account",
          "type": "address"
        }
      ],
      "name": "hasRole",
      "outputs": [
        {
          "internalType": "bool",
          "name": "",
          "type": "bool"
        }
      ],
      "stateMutability": "view",
      "type": "function"
    },
    {
      "inputs": [
        {
          "components": [
            {
              "internalType": "address",
              "name": "_market",
              "type": "address"
            },
            {
              "internalType": "bool",
              "name": "_isLong",
              "type": "bool"
            },
            {
              "internalType": "uint256",
              "name": "_oraclePrice",
              "type": "uint256"
            },
            {
              "internalType": "bool",
              "name": "isOpen",
              "type": "bool"
            },
            {
              "internalType": "address",
              "name": "_account",
              "type": "address"
            },
            {
              "internalType": "uint256",
              "name": "_sizeDelta",
              "type": "uint256"
            },
            {
              "internalType": "uint256",
              "name": "_price",
              "type": "uint256"
            },
            {
              "internalType": "uint256",
              "name": "_slippage",
              "type": "uint256"
            },
            {
              "internalType": "bool",
              "name": "_isExec",
              "type": "bool"
            },
            {
              "internalType": "uint8",
              "name": "liqState",
              "type": "uint8"
            },
            {
              "internalType": "uint64",
              "name": "_fromOrder",
              "type": "uint64"
            },
            {
              "internalType": "bytes32",
              "name": "_refCode",
              "type": "bytes32"
            },
            {
              "internalType": "uint256",
              "name": "collateralDelta",
              "type": "uint256"
            },
            {
              "internalType": "uint8",
              "name": "execNum",
              "type": "uint8"
            },
            {
              "internalType": "uint256[]",
              "name": "inputs",
              "type": "uint256[]"
            }
          ],
          "internalType": "struct MarketDataTypes.UpdatePositionInputs",
          "name": "_inputs",
          "type": "tuple"
        }
      ],
      "name": "increasePosition",
      "outputs": [],
      "stateMutability": "nonpayable",
      "type": "function"
    },
    {
      "inputs": [
        {
          "internalType": "address",
          "name": "_f",
          "type": "address"
        },
        {
          "internalType": "address",
          "name": "_gv",
          "type": "address"
        },
        {
          "internalType": "address",
          "name": "vr",
          "type": "address"
        }
      ],
      "name": "initialize",
      "outputs": [],
      "stateMutability": "nonpayable",
      "type": "function"
    },
    {
      "inputs": [],
      "name": "isEnableMarketConvertToOrder",
      "outputs": [
        {
          "internalType": "bool",
          "name": "",
          "type": "bool"
        }
      ],
      "stateMutability": "view",
      "type": "function"
    },
    {
      "inputs": [],
      "name": "owner",
      "outputs": [
        {
          "internalType": "address",
          "name": "",
          "type": "address"
        }
      ],
      "stateMutability": "view",
      "type": "function"
    },
    {
      "inputs": [
        {
          "internalType": "address",
          "name": "_market",
          "type": "address"
        }
      ],
      "name": "removeMarket",
      "outputs": [],
      "stateMutability": "nonpayable",
      "type": "function"
    },
    {
      "inputs": [],
      "name": "renounceOwnership",
      "outputs": [],
      "stateMutability": "nonpayable",
      "type": "function"
    },
    {
      "inputs": [
        {
          "internalType": "bytes32",
          "name": "role",
          "type": "bytes32"
        },
        {
          "internalType": "address",
          "name": "account",
          "type": "address"
        }
      ],
      "name": "renounceRole",
      "outputs": [],
      "stateMutability": "nonpayable",
      "type": "function"
    },
    {
      "inputs": [
        {
          "internalType": "bytes32",
          "name": "role",
          "type": "bytes32"
        },
        {
          "internalType": "address",
          "name": "account",
          "type": "address"
        }
      ],
      "name": "revokeRole",
      "outputs": [],
      "stateMutability": "nonpayable",
      "type": "function"
    },
    {
      "inputs": [
        {
          "internalType": "bool",
          "name": "_isEnableMarketConvertToOrder",
          "type": "bool"
        }
      ],
      "name": "setIsEnableMarketConvertToOrder",
      "outputs": [],
      "stateMutability": "nonpayable",
      "type": "function"
    },
    {
      "inputs": [
        {
          "internalType": "bytes4",
          "name": "interfaceId",
          "type": "bytes4"
        }
      ],
      "name": "supportsInterface",
      "outputs": [
        {
          "internalType": "bool",
          "name": "",
          "type": "bool"
        }
      ],
      "stateMutability": "view",
      "type": "function"
    },
    {
      "inputs": [
        {
          "internalType": "address",
          "name": "to",
          "type": "address"
        }
      ],
      "name": "transferAdmin",
      "outputs": [],
      "stateMutability": "nonpayable",
      "type": "function"
    },
    {
      "inputs": [
        {
          "internalType": "address",
          "name": "newOwner",
          "type": "address"
        }
      ],
      "name": "transferOwnership",
      "outputs": [],
      "stateMutability": "nonpayable",
      "type": "function"
    },
    {
      "inputs": [
        {
          "components": [
            {
              "internalType": "address",
              "name": "_market",
              "type": "address"
            },
            {
              "internalType": "bool",
              "name": "_isLong",
              "type": "bool"
            },
            {
              "internalType": "uint256",
              "name": "_oraclePrice",
              "type": "uint256"
            },
            {
              "internalType": "bool",
              "name": "isOpen",
              "type": "bool"
            },
            {
              "internalType": "bool",
              "name": "isCreate",
              "type": "bool"
            },
            {
              "components": [
                {
                  "internalType": "uint8",
                  "name": "version",
                  "type": "uint8"
                },
                {
                  "internalType": "uint32",
                  "name": "updatedAtBlock",
                  "type": "uint32"
                },
                {
                  "internalType": "uint8",
                  "name": "triggerAbove",
                  "type": "uint8"
                },
                {
                  "internalType": "address",
                  "name": "account",
                  "type": "address"
                },
                {
                  "internalType": "uint48",
                  "name": "extra3",
                  "type": "uint48"
                },
                {
                  "internalType": "uint128",
                  "name": "collateral",
                  "type": "uint128"
                },
                {
                  "internalType": "uint128",
                  "name": "size",
                  "type": "uint128"
                },
                {
                  "internalType": "uint128",
                  "name": "price",
                  "type": "uint128"
                },
                {
                  "internalType": "uint128",
                  "name": "extra1",
                  "type": "uint128"
                },
                {
                  "internalType": "uint64",
                  "name": "orderID",
                  "type": "uint64"
                },
                {
                  "internalType": "uint64",
                  "name": "extra2",
                  "type": "uint64"
                },
                {
                  "internalType": "uint128",
                  "name": "extra0",
                  "type": "uint128"
                },
                {
                  "internalType": "bytes32",
                  "name": "refCode",
                  "type": "bytes32"
                }
              ],
              "internalType": "struct Order.Props",
              "name": "_order",
              "type": "tuple"
            },
            {
              "internalType": "uint256[]",
              "name": "inputs",
              "type": "uint256[]"
            }
          ],
          "internalType": "struct MarketDataTypes.UpdateOrderInputs",
          "name": "_vars",
          "type": "tuple"
        }
      ],
      "name": "updateOrder",
      "outputs": [],
      "stateMutability": "nonpayable",
      "type": "function"
    },
    {
      "inputs": [
        {
          "components": [
            {
              "internalType": "address",
              "name": "_market",
              "type": "address"
            },
            {
              "internalType": "bool",
              "name": "_isLong",
              "type": "bool"
            },
            {
              "internalType": "uint256",
              "name": "_oraclePrice",
              "type": "uint256"
            },
            {
              "internalType": "bool",
              "name": "isOpen",
              "type": "bool"
            },
            {
              "internalType": "bool",
              "name": "isCreate",
              "type": "bool"
            },
            {
              "components": [
                {
                  "internalType": "uint8",
                  "name": "version",
                  "type": "uint8"
                },
                {
                  "internalType": "uint32",
                  "name": "updatedAtBlock",
                  "type": "uint32"
                },
                {
                  "internalType": "uint8",
                  "name": "triggerAbove",
                  "type": "uint8"
                },
                {
                  "internalType": "address",
                  "name": "account",
                  "type": "address"
                },
                {
                  "internalType": "uint48",
                  "name": "extra3",
                  "type": "uint48"
                },
                {
                  "internalType": "uint128",
                  "name": "collateral",
                  "type": "uint128"
                },
                {
                  "internalType": "uint128",
                  "name": "size",
                  "type": "uint128"
                },
                {
                  "internalType": "uint128",
                  "name": "price",
                  "type": "uint128"
                },
                {
                  "internalType": "uint128",
                  "name": "extra1",
                  "type": "uint128"
                },
                {
                  "internalType": "uint64",
                  "name": "orderID",
                  "type": "uint64"
                },
                {
                  "internalType": "uint64",
                  "name": "extra2",
                  "type": "uint64"
                },
                {
                  "internalType": "uint128",
                  "name": "extra0",
                  "type": "uint128"
                },
                {
                  "internalType": "bytes32",
                  "name": "refCode",
                  "type": "bytes32"
                }
              ],
              "internalType": "struct Order.Props",
              "name": "_order",
              "type": "tuple"
            },
            {
              "internalType": "uint256[]",
              "name": "inputs",
              "type": "uint256[]"
            }
          ],
          "internalType": "struct MarketDataTypes.UpdateOrderInputs",
          "name": "_event",
          "type": "tuple"
        }
      ],
      "name": "updateOrderCallback",
      "outputs": [],
      "stateMutability": "nonpayable",
      "type": "function"
    },
    {
      "inputs": [
        {
          "internalType": "address",
          "name": "newA",
          "type": "address"
        }
      ],
      "name": "updatePositionBook",
      "outputs": [],
      "stateMutability": "nonpayable",
      "type": "function"
    },
    {
      "inputs": [
        {
          "components": [
            {
              "components": [
                {
                  "internalType": "address",
                  "name": "_market",
                  "type": "address"
                },
                {
                  "internalType": "bool",
                  "name": "_isLong",
                  "type": "bool"
                },
                {
                  "internalType": "uint256",
                  "name": "_oraclePrice",
                  "type": "uint256"
                },
                {
                  "internalType": "bool",
                  "name": "isOpen",
                  "type": "bool"
                },
                {
                  "internalType": "address",
                  "name": "_account",
                  "type": "address"
                },
                {
                  "internalType": "uint256",
                  "name": "_sizeDelta",
                  "type": "uint256"
                },
                {
                  "internalType": "uint256",
                  "name": "_price",
                  "type": "uint256"
                },
                {
                  "internalType": "uint256",
                  "name": "_slippage",
                  "type": "uint256"
                },
                {
                  "internalType": "bool",
                  "name": "_isExec",
                  "type": "bool"
                },
                {
                  "internalType": "uint8",
                  "name": "liqState",
                  "type": "uint8"
                },
                {
                  "internalType": "uint64",
                  "name": "_fromOrder",
                  "type": "uint64"
                },
                {
                  "internalType": "bytes32",
                  "name": "_refCode",
                  "type": "bytes32"
                },
                {
                  "internalType": "uint256",
                  "name": "collateralDelta",
                  "type": "uint256"
                },
                {
                  "internalType": "uint8",
                  "name": "execNum",
                  "type": "uint8"
                },
                {
                  "internalType": "uint256[]",
                  "name": "inputs",
                  "type": "uint256[]"
                }
              ],
              "internalType": "struct MarketDataTypes.UpdatePositionInputs",
              "name": "inputs",
              "type": "tuple"
            },
            {
              "components": [
                {
                  "internalType": "address",
                  "name": "market",
                  "type": "address"
                },
                {
                  "internalType": "bool",
                  "name": "isLong",
                  "type": "bool"
                },
                {
                  "internalType": "uint32",
                  "name": "lastTime",
                  "type": "uint32"
                },
                {
                  "internalType": "uint216",
                  "name": "extra3",
                  "type": "uint216"
                },
                {
                  "internalType": "uint256",
                  "name": "size",
                  "type": "uint256"
                },
                {
                  "internalType": "uint256",
                  "name": "collateral",
                  "type": "uint256"
                },
                {
                  "internalType": "uint256",
                  "name": "averagePrice",
                  "type": "uint256"
                },
                {
                  "internalType": "int256",
                  "name": "entryFundingRate",
                  "type": "int256"
                },
                {
                  "internalType": "int256",
                  "name": "realisedPnl",
                  "type": "int256"
                },
                {
                  "internalType": "uint256",
                  "name": "extra0",
                  "type": "uint256"
                },
                {
                  "internalType": "uint256",
                  "name": "extra1",
                  "type": "uint256"
                },
                {
                  "internalType": "uint256",
                  "name": "extra2",
                  "type": "uint256"
                }
              ],
              "internalType": "struct Position.Props",
              "name": "position",
              "type": "tuple"
            },
            {
              "internalType": "int256[]",
              "name": "fees",
              "type": "int256[]"
            },
            {
              "internalType": "address",
              "name": "collateralToken",
              "type": "address"
            },
            {
              "internalType": "address",
              "name": "indexToken",
              "type": "address"
            },
            {
              "internalType": "int256",
              "name": "collateralDeltaAfter",
              "type": "int256"
            }
          ],
          "internalType": "struct MarketPositionCallBackIntl.UpdatePositionEvent",
          "name": "_event",
          "type": "tuple"
        }
      ],
      "name": "updatePositionCallback",
      "outputs": [],
      "stateMutability": "nonpayable",
      "type": "function"
    },
    {
      "inputs": [
        {
          "components": [
            {
              "internalType": "address",
              "name": "_market",
              "type": "address"
            },
            {
              "internalType": "bool",
              "name": "_isLong",
              "type": "bool"
            },
            {
              "internalType": "uint256",
              "name": "_oraclePrice",
              "type": "uint256"
            },
            {
              "internalType": "bool",
              "name": "isOpen",
              "type": "bool"
            },
            {
              "internalType": "address",
              "name": "_account",
              "type": "address"
            },
            {
              "internalType": "uint256",
              "name": "_sizeDelta",
              "type": "uint256"
            },
            {
              "internalType": "uint256",
              "name": "_price",
              "type": "uint256"
            },
            {
              "internalType": "uint256",
              "name": "_slippage",
              "type": "uint256"
            },
            {
              "internalType": "bool",
              "name": "_isExec",
              "type": "bool"
            },
            {
              "internalType": "uint8",
              "name": "liqState",
              "type": "uint8"
            },
            {
              "internalType": "uint64",
              "name": "_fromOrder",
              "type": "uint64"
            },
            {
              "internalType": "bytes32",
              "name": "_refCode",
              "type": "bytes32"
            },
            {
              "internalType": "uint256",
              "name": "collateralDelta",
              "type": "uint256"
            },
            {
              "internalType": "uint8",
              "name": "execNum",
              "type": "uint8"
            },
            {
              "internalType": "uint256[]",
              "name": "inputs",
              "type": "uint256[]"
            }
          ],
          "internalType": "struct MarketDataTypes.UpdatePositionInputs",
          "name": "_inputs",
          "type": "tuple"
        }
      ],
      "name": "validateIncreasePosition",
      "outputs": [],
      "stateMutability": "view",
      "type": "function"
    },
    {
      "inputs": [],
      "name": "vaultRouter",
      "outputs": [
        {
          "internalType": "address",
          "name": "",
          "type": "address"
        }
      ],
      "stateMutability": "view",
      "type": "function"
    }
  ],
  "bytecode": "0x60806040523480156200001157600080fd5b506200001d3362000028565b60016002556200007a565b600180546001600160a01b038381166001600160a01b0319831681179093556040519116919082907f8be0079c531659141344cd1fd0a4f28419497f9722a3daafe3b4186f6b6457e090600090a35050565b6140b0806200008a6000396000f3fe608060405234801561001057600080fd5b506004361061018b5760003560e01c806301ffc9a7146101905780630799f55f146101b85780630d918caa146101d55780631cfe5828146101ea5780632073b0ce146101fd578063248a9ca3146102135780632ca6d2c0146102265780632f2ff15d14610239578063332013a71461024c57806336568abe1461026057806340a542fe146102735780634463b5bc14610286578063544781af14610299578063612c39b7146102ac578063715018a614610300578063718cb58a1461030857806375829def1461031b5780638b4400f21461032e5780638da5cb5b1461034e57806391d148541461035657806393e306331461036957806399d5c1ec1461037c578063a217fddf1461038f578063abed961814610397578063b038beb8146103aa578063c0c53b8b146103bd578063cce9a2f3146103d0578063cd6ebf66146103e3578063d37c441c146103f6578063d547741f14610409578063db9132361461041c578063ec2c90161461042f578063f2fde38b14610444575b600080fd5b6101a361019e366004612bbe565b610457565b60405190151581526020015b60405180910390f35b6101c061048e565b604080519283526020830191909152016101af565b6101e86101e3366004612f14565b610551565b005b6101e86101f8366004612f14565b6106f8565b610205610a14565b6040519081526020016101af565b610205610221366004612f48565b610ac4565b6101c0610234366004612f61565b610ad9565b6101e8610247366004612f7e565b610ba8565b6009546101a390600160a01b900460ff1681565b6101e861026e366004612f7e565b610bc9565b6101e8610281366004613092565b610c47565b6101e8610294366004613166565b610d9c565b6101e86102a73660046131e7565b610dd3565b604080516060808201835260008083526020808401829052928401528251808201845260018082528184018181529185018181528551918252915115159381019390935251151592820192909252016101af565b6101e86111cc565b6101e8610316366004613487565b6111e0565b6101e8610329366004612f61565b6112b4565b600854610341906001600160a01b031681565b6040516101af9190613557565b6103416112de565b6101a3610364366004612f7e565b6112ed565b6101e8610377366004612f61565b611316565b6101e861038a366004612f7e565b6113ef565b610205600081565b6101e86103a5366004612f14565b61141c565b6101e86103b836600461356b565b6114ea565b6101e86103cb366004613639565b6114fb565b6101e86103de36600461356b565b61166c565b6101e86103f1366004612f61565b6117b2565b600954610341906001600160a01b031681565b6101e8610417366004612f7e565b611924565b6101e861042a366004612f61565b611940565b6104376119ff565b6040516101af9190613684565b6101e8610452366004612f61565b611a10565b60006001600160e01b03198216637965db0b60e01b148061048857506301ffc9a760e01b6001600160e01b03198316145b92915050565b60008060005b61049e6004611a86565b5181101561054c5760006104b3600483611a9a565b9050600080826001600160a01b0316638749694a6040518163ffffffff1660e01b81526004016040805180830381865afa1580156104f5573d6000803e3d6000fd5b505050506040513d601f19601f8201168201806040525081019061051991906136d1565b9092509050610528828761370b565b9550610534818661370b565b945050505080806105449061371e565b915050610494565b509091565b610559611aa6565b600954600160a01b900460ff168015610576575060008160a00151115b156105895761058481611afd565b6106eb565b805161059790600690611c3c565b6105df5760405162461bcd60e51b815260206004820152601460248201527313585c9ad95d149bdd5d195c8e885b585c9ad95d60621b60448201526064015b60405180910390fd5b6000816000015190506000816001600160a01b031663b2016bd46040518163ffffffff1660e01b8152600401602060405180830381865afa158015610628573d6000803e3d6000fd5b505050506040513d601f19601f8201168201806040525081019061064c9190613737565b905061067833846000015161066684876101800151611c51565b6001600160a01b038516929190611cca565b336080840152610687836106f8565b8251604051631def7c1d60e11b81526001600160a01b0390911690633bdef83a906106b690869060040161379c565b600060405180830381600087803b1580156106d057600080fd5b505af11580156106e4573d6000803e3d6000fd5b5050505050505b6106f56001600255565b50565b80516001600160a01b03908116600090815260036020908152604080832054815161014081018352848152808401858152928101858152606082018690526080820186905260a080830187905260c0830187905260e083018790526101008301879052610120830196909652875187168252948701519092529185015115159092529091169061078661048e565b6080830152606082015261079933610ad9565b60c083015260a0820152604080516343a4b4a560e11b815281516001600160a01b03851692638749694a92600480820193918290030181865afa1580156107e4573d6000803e3d6000fd5b505050506040513d601f19601f8201168201806040525081019061080891906136d1565b61010083015260e0820152825160408051632c805af560e21b815290516000926001600160a01b03169163b2016bd49160048083019260209291908290030181865afa15801561085c573d6000803e3d6000fd5b505050506040513d601f19601f820116820180604052508101906108809190613737565b9050610963600960009054906101000a90046001600160a01b03166001600160a01b0316636dc7b0a16040518163ffffffff1660e01b8152600401602060405180830381865afa1580156108d8573d6000803e3d6000fd5b505050506040513d601f19601f820116820180604052508101906108fc91906138a1565b826001600160a01b031663313ce5676040518163ffffffff1660e01b8152600401602060405180830381865afa15801561093a573d6000803e3d6000fd5b505050506040513d601f19601f8201168201806040525081019061095e91906138ba565b611d24565b61012083015260085460405163028c7b5160e41b81526001600160a01b03909116906328c7b510906109999085906004016138d7565b602060405180830381865afa1580156109b6573d6000803e3d6000fd5b505050506040513d601f19601f820116820180604052508101906109da9190613959565b610a0e5760405162461bcd60e51b815260206004820152600560248201526436b91d33bb60d91b60448201526064016105d6565b50505050565b6000805b610a226006611a86565b51811015610ac0576000610a37600683611a9a565b90506000816001600160a01b03166393a98e6c6040518163ffffffff1660e01b8152600401602060405180830381865afa158015610a79573d6000803e3d6000fd5b505050506040513d601f19601f82011682018060405250810190610a9d91906138a1565b9050610aa98185613976565b935050508080610ab89061371e565b915050610a18565b5090565b60009081526020819052604090206001015490565b60008060005b610ae96004611a86565b51811015610ba2576000610afe600483611a9a565b9050600080826001600160a01b0316632ca6d2c0886040518263ffffffff1660e01b8152600401610b2f9190613557565b6040805180830381865afa158015610b4b573d6000803e3d6000fd5b505050506040513d601f19601f82011682018060405250810190610b6f91906136d1565b9092509050610b7e828761370b565b9550610b8a818661370b565b94505050508080610b9a9061371e565b915050610adf565b50915091565b610bb182610ac4565b610bba81611d51565b610bc48383611d5b565b505050565b6001600160a01b0381163314610c395760405162461bcd60e51b815260206004820152602f60248201527f416363657373436f6e74726f6c3a2063616e206f6e6c792072656e6f756e636560448201526e103937b632b9903337b91039b2b63360891b60648201526084016105d6565b610c438282611ddf565b5050565b8051516001600160a01b03163314610c715760405162461bcd60e51b81526004016105d69061399e565b610c7c600633611c3c565b610c985760405162461bcd60e51b81526004016105d6906139c6565b80516060015160019015610cc357815160a00151600003610cbb57506002610d06565b506000610d06565b8151610120015160ff16600103610cdc57506004610d06565b8151610120015160ff16600203610cf557506005610d06565b815160a00151600003610d06575060035b815160808082015161018083015160a08087015190850151602080870151604080890151928b01516101000151818c01518a5160608e01519a8e0151610140909c015193516001600160a01b03909a169b7fd0abfef5eb2cd61e6fd56ea2b69e9867bc90e8589023c554bdade2287b28c9399b610d909b96979694959394929390928f91906139ee565b60405180910390a25050565b60008051602061405b833981519152610db481611d51565b5060098054911515600160a01b0260ff60a01b19909216919091179055565b610ddb611aa6565b82518451148015610ded575081518351145b8015610dfa575080518251145b610e435760405162461bcd60e51b815260206004820152601a602482015279082e4e4c2f240d8cadccee8d0e640c8de40dcdee840dac2e8c6d60331b60448201526064016105d6565b604080516001808252818301909252600091602080830190803683375050604080516001808252818301909252929350600092915060208083019080368337505060408051600180825281830190925292935060009291506020808301908036833701905050905060005b87518110156111be57610ee4888281518110610ecc57610ecc613aad565b60200260200101516006611c3c90919063ffffffff16565b610f005760405162461bcd60e51b81526004016105d6906139c6565b6000610f0d82600161370b565b90505b885181101561107657888181518110610f2b57610f2b613aad565b60200260200101516001600160a01b0316898381518110610f4e57610f4e613aad565b60200260200101516001600160a01b0316148015610fa15750878181518110610f7957610f79613aad565b60200260200101511515888381518110610f9557610f95613aad565b60200260200101511515145b8015610fde5750868181518110610fba57610fba613aad565b6020026020010151878381518110610fd457610fd4613aad565b6020026020010151145b801561101f5750858181518110610ff757610ff7613aad565b6020026020010151151586838151811061101357611013613aad565b60200260200101511515145b156110645760405162461bcd60e51b8152602060048201526015602482015274111d5c1b1a58d85d19481bdc99195c88199bdd5b99605a1b60448201526064016105d6565b8061106e8161371e565b915050610f10565b5086818151811061108957611089613aad565b6020026020010151846000815181106110a4576110a4613aad565b6020026020010190151590811515815250508581815181106110c8576110c8613aad565b6020026020010151836000815181106110e3576110e3613aad565b60200260200101818152505084818151811061110157611101613aad565b60200260200101518260008151811061111c5761111c613aad565b60200260200101901515908115158152505087818151811061114057611140613aad565b60200260200101516001600160a01b031663301f6fe9338686866040518563ffffffff1660e01b81526004016111799493929190613af5565b600060405180830381600087803b15801561119357600080fd5b505af11580156111a7573d6000803e3d6000fd5b5050505080806111b69061371e565b915050610eae565b50505050610a0e6001600255565b6111d4611e44565b6111de6000611ea3565b565b6020810151516001600160a01b0316331461120d5760405162461bcd60e51b81526004016105d69061399e565b611218600633611c3c565b6112345760405162461bcd60e51b81526004016105d6906139c6565b80516060808201516020808501519081015181840151610120909501518251604080890151968901519481015160808a015191516001600160a01b03909716987f083f7516dcfe13a8bef8bcbbe89648ce92bfd7161733f88ba43e1049de6af1b4986112a99896979196909391929190613b8f565b60405180910390a250565b60006112bf81611d51565b6112ca600083611ef5565b6112d382611ea3565b610c43600033611ddf565b6001546001600160a01b031690565b6000918252602082815260408084206001600160a01b0393909316845291905290205460ff1690565b60008051602061405b83398151915261132e81611d51565b6001600160a01b03821661134157600080fd5b6000826001600160a01b031663ac0b05a66040518163ffffffff1660e01b8152600401602060405180830381865afa158015611381573d6000803e3d6000fd5b505050506040513d601f19601f820116820180604052508101906113a59190613737565b90506113b2600684611eff565b506113be600482611eff565b506001600160a01b03928316600090815260036020526040902080546001600160a01b031916919093161790915550565b60008051602061403b83398151915261140781611d51565b6114118383610ba8565b610bc4600033611924565b611424611aa6565b600954600160a01b900460ff168015611441575060008160a00151115b1561144f5761058481611afd565b805161145d90600690611c3c565b6114795760405162461bcd60e51b81526004016105d6906139c6565b336080820152805160405163157db2c360e31b81526001600160a01b039091169063abed9618906114ae90849060040161379c565b600060405180830381600087803b1580156114c857600080fd5b505af11580156114dc573d6000803e3d6000fd5b505050506106f56001600255565b6114f2611aa6565b6106eb81611f14565b600154600160a81b900460ff1615808015611521575060018054600160a01b900460ff16105b806115485750611530306120ae565b158015611548575060018054600160a01b900460ff16145b6115ab5760405162461bcd60e51b815260206004820152602e60248201527f496e697469616c697a61626c653a20636f6e747261637420697320616c72656160448201526d191e481a5b9a5d1a585b1a5e995960921b60648201526084016105d6565b6001805460ff60a01b1916600160a01b17905580156115d8576001805460ff60a81b1916600160a81b1790555b6115e1846120bd565b600880546001600160a01b038086166001600160a01b031990921691909117909155600980546001600160a81b03191691841691909117600160a01b1790558015610a0e576001805460ff60a81b191681556040519081527f7f26b83ff96e1f2b6a682f133852f6798a09c465da95921460cefb38474024989060200160405180910390a150505050565b80516001600160a01b031633146116955760405162461bcd60e51b81526004016105d69061399e565b6116a0600633611c3c565b6116bc5760405162461bcd60e51b81526004016105d6906139c6565b60a080820151606080820151602085015191850151610120840151865160c08601519686015160e08701516001600160a01b03909516977fc1a292b7363ad930d02501a9224823f3fc6d6433978aa670da66b24004eaac719794959394929390926117269061210c565b8a6060015161173657600061174a565b60a08b015161010001516001600160801b03165b8b6060015161175a576000611767565b6117678c60a00151612182565b8c606001516117825761177d8d60a00151612182565b611785565b60005b60a08e01516080015165ffffffffffff1615158e6040516112a99d9c9b9a99989796959493929190613d67565b60008051602061405b8339815191526117ca81611d51565b6001600160a01b0382166117dd57600080fd5b336117e9600682611c3c565b6118055760405162461bcd60e51b81526004016105d6906139c6565b611872816001600160a01b031663ac0b05a66040518163ffffffff1660e01b8152600401602060405180830381865afa158015611846573d6000803e3d6000fd5b505050506040513d601f19601f8201168201806040525081019061186a9190613737565b600490612193565b506000816001600160a01b031663ac0b05a66040518163ffffffff1660e01b8152600401602060405180830381865afa1580156118b3573d6000803e3d6000fd5b505050506040513d601f19601f820116820180604052508101906118d79190613737565b90506118e4600482612193565b506118f0600485611eff565b50506001600160a01b0390811660009081526003602052604090208054919093166001600160a01b03199091161790915550565b61192d82610ac4565b61193681611d51565b610bc48383611ddf565b60008051602061405b83398151915261195881611d51565b6000826001600160a01b031663ac0b05a66040518163ffffffff1660e01b8152600401602060405180830381865afa158015611998573d6000803e3d6000fd5b505050506040513d601f19601f820116820180604052508101906119bc9190613737565b90506119c9600684612193565b506119d5600482612193565b5050506001600160a01b0316600090815260036020526040902080546001600160a01b0319169055565b6060611a0b6006611a86565b905090565b611a18611e44565b6001600160a01b038116611a7d5760405162461bcd60e51b815260206004820152602660248201527f4f776e61626c653a206e6577206f776e657220697320746865207a65726f206160448201526564647265737360d01b60648201526084016105d6565b6106f581611ea3565b60606000611a93836121a8565b9392505050565b6000611a938383612204565b6002805403611af75760405162461bcd60e51b815260206004820152601f60248201527f5265656e7472616e637947756172643a207265656e7472616e742063616c6c0060448201526064016105d6565b60028055565b611b05612b0e565b6060820151611b1590829061222e565b611b2081600161225b565b60e0820151611b30908290612294565b81516001600160a01b0316815260208083015115159082015260016080820152611b58612b52565b60608301511515600003611b7e57611b79611b72846122ac565b82906122e9565b611bb5565b610180830151611b8f908390612307565b611ba2611b9b8461231f565b829061235d565b611bb5611bae8461237c565b82906123ac565b611bc38361018001516123cb565b6001600160801b031660a08083019190915260808401516001600160a01b03166060830152830151611bf4906123cb565b6001600160801b031660c080830191909152830151611c12906123cb565b6001600160801b031660e082015261016083015161018082015260a08201819052610bc482611f14565b6000611a93836001600160a01b038416612434565b600080836001600160a01b031663313ce5676040518163ffffffff1660e01b8152600401602060405180830381865afa158015611c92573d6000803e3d6000fd5b505050506040513d601f19601f82011682018060405250810190611cb691906138ba565b9050611cc2838261244c565b949350505050565b604080516001600160a01b0385811660248301528416604482015260648082018490528251808303909101815260849091019091526020810180516001600160e01b03166323b872dd60e01b179052610a0e908590612468565b6000611d3182600a613ef5565b611d3d6012600a613f04565b611d479085613f10565b611a939190613f27565b6106f5813361253a565b611d6582826112ed565b610c43576000828152602081815260408083206001600160a01b03851684529091529020805460ff19166001179055611d9b3390565b6001600160a01b0316816001600160a01b0316837f2f8788117e7eff1d82e926ec794901d17c78024a50270940304540a733656f0d60405160405180910390a45050565b611de982826112ed565b15610c43576000828152602081815260408083206001600160a01b0385168085529252808320805460ff1916905551339285917ff6391f5c32d9c69d2a47ea670b442974b53935d1edc7fd64eb21e047a839171b9190a45050565b33611e4d6112de565b6001600160a01b0316146111de5760405162461bcd60e51b815260206004820181905260248201527f4f776e61626c653a2063616c6c6572206973206e6f7420746865206f776e657260448201526064016105d6565b600180546001600160a01b038381166001600160a01b0319831681179093556040519116919082907f8be0079c531659141344cd1fd0a4f28419497f9722a3daafe3b4186f6b6457e090600090a35050565b610c438282611d5b565b6000611a93836001600160a01b038416612593565b8051611f2290600690611c3c565b611f3e5760405162461bcd60e51b81526004016105d6906139c6565b611f47816125dd565b611f845760405162461bcd60e51b815260206004820152600e60248201526d696e76616c696420706172616d7360901b60448201526064016105d6565b60a081015133606091820152810151611fac90611fa08361264f565b60a0840151919061267b565b80606001518015611fbe575080608001515b1561204a57600081600001516001600160a01b031663b2016bd46040518163ffffffff1660e01b8152600401602060405180830381865afa158015612007573d6000803e3d6000fd5b505050506040513d601f19601f8201168201806040525081019061202b9190613737565b905061204833836000015161066684612043876126ba565b611c51565b505b805160405163160717d760e31b81526001600160a01b039091169063b038beb890612079908490600401613f49565b600060405180830381600087803b15801561209357600080fd5b505af11580156120a7573d6000803e3d6000fd5b5050505050565b6001600160a01b03163b151590565b6120c633611ea3565b6120d1600033611ef5565b6120dc600082611ef5565b6120f460008051602061403b83398151915233611ef5565b6106f560008051602061403b83398151915282611ef5565b6000816040015160ff1660010361212557506001919050565b816040015160ff1660020361213c57506000919050565b60405162461bcd60e51b815260206004820152601b60248201527a696e76616c6964206f7264657220747269676765722061626f766560281b60448201526064016105d6565b61016001516001600160801b031690565b6000611a93836001600160a01b0384166126e8565b6060816000018054806020026020016040519081016040528092919081815260200182805480156121f857602002820191906000526020600020905b8154815260200190600101908083116121e4575b50505050509050919050565b600082600001828154811061221b5761221b613aad565b9060005260206000200154905092915050565b60408051600380825260808201909252906020820160608036833750505060c08301521515606090910152565b8061226757600061226a565b60015b60ff168260c0015160018151811061228457612284613aad565b6020026020010181815250505050565b808260c0015160028151811061228457612284613aad565b60006001826101c00151511015801561048857506000826101c001516000815181106122da576122da613aad565b60200260200101511192915050565b806122f55760006122f8565b60015b60ff1660809092019190915250565b808260c0015160008151811061228457612284613aad565b60006001826101c00151511015612337576000610488565b816101c0015160008151811061234f5761234f613aad565b602002602001015192915050565b612366816123cb565b6001600160801b03166101009092019190915250565b60006002826101c00151511015612394576000610488565b816101c0015160018151811061234f5761234f613aad565b6123b5816123cb565b6001600160801b03166101609092019190915250565b60006001600160801b03821115610ac05760405162461bcd60e51b815260206004820152602760248201527f53616665436173743a2076616c756520646f65736e27742066697420696e20316044820152663238206269747360c81b60648201526084016105d6565b60009081526001919091016020526040902054151590565b600061245a6012600a613ef5565b611d3d60ff8416600a613f04565b60006124bd826040518060400160405280602081526020017f5361666545524332303a206c6f772d6c6576656c2063616c6c206661696c6564815250856001600160a01b03166127db9092919063ffffffff16565b805190915015610bc457808060200190518101906124db9190613959565b610bc45760405162461bcd60e51b815260206004820152602a60248201527f5361666545524332303a204552433230206f7065726174696f6e20646964206e6044820152691bdd081cdd58d8d9595960b21b60648201526084016105d6565b61254482826112ed565b610c4357612551816127ea565b61255c8360206127fc565b60405160200161256d929190613f5c565b60408051601f198184030181529082905262461bcd60e51b82526105d691600401613fcb565b600061259f8383612434565b6125d557508154600181810184556000848152602080822090930184905584548482528286019093526040902091909155610488565b506000610488565b6040810151600090156125f257506000919050565b60608201511515600003612647578160800151156126475760006126198360a00151612182565b111561262757506000919050565b60a082015161014001516001600160401b03161561264757506000919050565b506001919050565b600060028260c001515110158015610488575060008260c001516001815181106122da576122da613aad565b811561269d578061268d576000612690565b60015b60ff166080840152505050565b806126a95760006126ac565b60015b60ff16610100840152505050565b600060018260c001515110156126d1576000610488565b8160c0015160008151811061234f5761234f613aad565b600081815260018301602052604081205480156127d157600061270c600183613fde565b855490915060009061272090600190613fde565b905081811461278557600086600001828154811061274057612740613aad565b906000526020600020015490508087600001848154811061276357612763613aad565b6000918252602080832090910192909255918252600188019052604090208390555b855486908061279657612796613ff1565b600190038181906000526020600020016000905590558560010160008681526020019081526020016000206000905560019350505050610488565b6000915050610488565b6060611cc28484600085612997565b60606104886001600160a01b03831660145b6060600061280b836002613f10565b61281690600261370b565b6001600160401b0381111561282d5761282d612be8565b6040519080825280601f01601f191660200182016040528015612857576020820181803683370190505b509050600360fc1b8160008151811061287257612872613aad565b60200101906001600160f81b031916908160001a905350600f60fb1b816001815181106128a1576128a1613aad565b60200101906001600160f81b031916908160001a90535060006128c5846002613f10565b6128d090600161370b565b90505b6001811115612948576f181899199a1a9b1b9c1cb0b131b232b360811b85600f166010811061290457612904613aad565b1a60f81b82828151811061291a5761291a613aad565b60200101906001600160f81b031916908160001a90535060049490941c9361294181614007565b90506128d3565b508315611a935760405162461bcd60e51b815260206004820181905260248201527f537472696e67733a20686578206c656e67746820696e73756666696369656e7460448201526064016105d6565b6060824710156129f85760405162461bcd60e51b815260206004820152602660248201527f416464726573733a20696e73756666696369656e742062616c616e636520666f6044820152651c8818d85b1b60d21b60648201526084016105d6565b600080866001600160a01b03168587604051612a14919061401e565b60006040518083038185875af1925050503d8060008114612a51576040519150601f19603f3d011682016040523d82523d6000602084013e612a56565b606091505b5091509150612a6787838387612a72565b979650505050505050565b60608315612adf578251600003612ad857612a8c856120ae565b612ad85760405162461bcd60e51b815260206004820152601d60248201527f416464726573733a2063616c6c20746f206e6f6e2d636f6e747261637400000060448201526064016105d6565b5081611cc2565b611cc28383815115612af45781518083602001fd5b8060405162461bcd60e51b81526004016105d69190613fcb565b6040805160e08101825260008082526020820181905291810182905260608101829052608081019190915260a08101612b45612b52565b8152602001606081525090565b604080516101a081018252600080825260208201819052918101829052606081018290526080810182905260a0810182905260c0810182905260e08101829052610100810182905261012081018290526101408101829052610160810182905261018081019190915290565b600060208284031215612bd057600080fd5b81356001600160e01b031981168114611a9357600080fd5b634e487b7160e01b600052604160045260246000fd5b6040516101e081016001600160401b0381118282101715612c2157612c21612be8565b60405290565b60405161018081016001600160401b0381118282101715612c2157612c21612be8565b60405160c081016001600160401b0381118282101715612c2157612c21612be8565b6040516101a081016001600160401b0381118282101715612c2157612c21612be8565b60405160a081016001600160401b0381118282101715612c2157612c21612be8565b60405160e081016001600160401b0381118282101715612c2157612c21612be8565b604051601f8201601f191681016001600160401b0381118282101715612cfb57612cfb612be8565b604052919050565b6001600160a01b03811681146106f557600080fd5b8035612d2381612d03565b919050565b80151581146106f557600080fd5b8035612d2381612d28565b60ff811681146106f557600080fd5b8035612d2381612d41565b80356001600160401b0381168114612d2357600080fd5b60006001600160401b03821115612d8b57612d8b612be8565b5060051b60200190565b600082601f830112612da657600080fd5b81356020612dbb612db683612d72565b612cd3565b82815260059290921b84018101918181019086841115612dda57600080fd5b8286015b84811015612df55780358352918301918301612dde565b509695505050505050565b60006101e08284031215612e1357600080fd5b612e1b612bfe565b9050612e2682612d18565b8152612e3460208301612d36565b602082015260408201356040820152612e4f60608301612d36565b6060820152612e6060808301612d18565b608082015260a082013560a082015260c082013560c082015260e082013560e0820152610100612e91818401612d36565b90820152610120612ea3838201612d50565b90820152610140612eb5838201612d5b565b90820152610160828101359082015261018080830135908201526101a0612edd818401612d50565b908201526101c0828101356001600160401b03811115612efc57600080fd5b612f0885828601612d95565b82840152505092915050565b600060208284031215612f2657600080fd5b81356001600160401b03811115612f3c57600080fd5b611cc284828501612e00565b600060208284031215612f5a57600080fd5b5035919050565b600060208284031215612f7357600080fd5b8135611a9381612d03565b60008060408385031215612f9157600080fd5b823591506020830135612fa381612d03565b809150509250929050565b803563ffffffff81168114612d2357600080fd5b80356001600160d81b0381168114612d2357600080fd5b60006101808284031215612fec57600080fd5b612ff4612c27565b9050612fff82612d18565b815261300d60208301612d36565b602082015261301e60408301612fae565b604082015261302f60608301612fc2565b60608201526080820135608082015260a082013560a082015260c082013560c082015260e082013560e082015261010080830135818301525061012080830135818301525061014080830135818301525061016080830135818301525092915050565b6000602082840312156130a457600080fd5b81356001600160401b03808211156130bb57600080fd5b9083019061022082860312156130d057600080fd5b6130d8612c4a565b8235828111156130e757600080fd5b6130f387828601612e00565b8252506131038660208501612fd9565b60208201526101a08301358281111561311b57600080fd5b61312787828601612d95565b60408301525061313a6101c08401612d18565b606082015261314c6101e08401612d18565b6080820152610200929092013560a0830152509392505050565b60006020828403121561317857600080fd5b8135611a9381612d28565b600082601f83011261319457600080fd5b813560206131a4612db683612d72565b82815260059290921b840181019181810190868411156131c357600080fd5b8286015b84811015612df55780356131da81612d28565b83529183019183016131c7565b600080600080608085870312156131fd57600080fd5b84356001600160401b038082111561321457600080fd5b818701915087601f83011261322857600080fd5b81356020613238612db683612d72565b82815260059290921b8401810191818101908b84111561325757600080fd5b948201945b8386101561327e57853561326f81612d03565b8252948201949082019061325c565b9850508801359250508082111561329457600080fd5b6132a088838901613183565b945060408701359150808211156132b657600080fd5b6132c288838901612d95565b935060608701359150808211156132d857600080fd5b506132e587828801613183565b91505092959194509250565b803565ffffffffffff81168114612d2357600080fd5b80356001600160801b0381168114612d2357600080fd5b60006101a0828403121561333157600080fd5b613339612c6c565b905061334482612d50565b815261335260208301612fae565b602082015261336360408301612d50565b604082015261337460608301612d18565b6060820152613385608083016132f1565b608082015261339660a08301613307565b60a08201526133a760c08301613307565b60c08201526133b860e08301613307565b60e08201526101006133cb818401613307565b908201526101206133dd838201612d5b565b908201526101406133ef838201612d5b565b90820152610160613401838201613307565b818301525061018080830135818301525092915050565b600082601f83011261342957600080fd5b81356001600160401b0381111561344257613442612be8565b613455601f8201601f1916602001612cd3565b81815284602083860101111561346a57600080fd5b816020850160208301376000918101602001919091529392505050565b60006020828403121561349957600080fd5b81356001600160401b03808211156134b057600080fd5b9083019061022082860312156134c557600080fd5b6134cd612c8f565b6134d7868461331e565b81526101a0830135828111156134ec57600080fd5b6134f887828601612e00565b60208301525061350b6101c08401612d50565b60408201526101e08301358281111561352357600080fd5b61352f87828601613418565b60608301525061020092909201356080830152509392505050565b6001600160a01b03169052565b6001600160a01b0391909116815260200190565b60006020828403121561357d57600080fd5b81356001600160401b038082111561359457600080fd5b9083019061026082860312156135a957600080fd5b6135b1612cb1565b6135ba83612d18565b81526135c860208401612d36565b6020820152604083013560408201526135e360608401612d36565b60608201526135f460808401612d36565b60808201526136068660a0850161331e565b60a08201526102408301358281111561361e57600080fd5b61362a87828601612d95565b60c08301525095945050505050565b60008060006060848603121561364e57600080fd5b833561365981612d03565b9250602084013561366981612d03565b9150604084013561367981612d03565b809150509250925092565b6020808252825182820181905260009190848201906040850190845b818110156136c55783516001600160a01b0316835292840192918401916001016136a0565b50909695505050505050565b600080604083850312156136e457600080fd5b505080516020909101519092909150565b634e487b7160e01b600052601160045260246000fd5b80820180821115610488576104886136f5565b600060018201613730576137306136f5565b5060010190565b60006020828403121561374957600080fd5b8151611a9381612d03565b6001600160401b03169052565b600081518084526020808501945080840160005b8381101561379157815187529582019590820190600101613775565b509495945050505050565b602081526137ae60208201835161354a565b600060208301516137c3604084018215159052565b506040830151606083015260608301516137e1608084018215159052565b5060808301516137f460a084018261354a565b5060a083015160c083015260c083015160e083015260e083015161010081818501528085015191505061012061382d8185018315159052565b84015190506101406138438482018360ff169052565b840151905061016061385784820183613754565b840151610180848101919091528401516101a08085019190915284015190506101c06138878185018360ff169052565b8401516101e0848101529050611cc2610200840182613761565b6000602082840312156138b357600080fd5b5051919050565b6000602082840312156138cc57600080fd5b8151611a9381612d41565b6000610140820190506138eb82845161354a565b602083015160208301526040830151613908604084018215159052565b50606083015160608301526080830151608083015260a083015160a083015260c083015160c083015260e083015160e083015261010080840151818401525061012080840151818401525092915050565b60006020828403121561396b57600080fd5b8151611a9381612d28565b8082018281126000831280158216821582161715613996576139966136f5565b505092915050565b6020808252600e908201526d34b73b30b634b21039b2b73232b960911b604082015260600190565b6020808252600e908201526d1a5b9d985b1a59081b585c9ad95d60921b604082015260600190565b60006101808083018f845260208f818601528e60408601528d151560608601528c60808601528b60a08601528260c08601528192508a518083526101a086019350818c01925060005b81811015613a5357835185529382019392820192600101613a37565b5050505080915050613a6860e083018861354a565b613a7661010083018761354a565b613a8461012083018661354a565b60ff8416610140830152613a9c610160830184613754565b9d9c50505050505050505050505050565b634e487b7160e01b600052603260045260246000fd5b600081518084526020808501945080840160005b83811015613791578151151587529582019590820190600101613ad7565b6001600160a01b0385168152608060208201819052600090613b1990830186613ac3565b8281036040840152613b2b8186613761565b90508281036060840152612a678185613ac3565b60005b83811015613b5a578181015183820152602001613b42565b50506000910152565b60008151808452613b7b816020860160208601613b3f565b601f01601f19169290920160200192915050565b881515815287151560208201526001600160401b03871660408201526001600160a01b038616606082015260ff8516608082015261010060a08201819052600090613bdc83820187613b63565b60c0840195909552505060e001529695505050505050565b6001600160801b03169052565b600061026060018060a01b0383511684526020830151151560208501526040830151604085015260608301511515606085015260808301511515608085015260a0830151613c5560a08601825160ff169052565b602081015163ffffffff1660c0860152604081015160ff1660e08601526060810151610100613c868188018361354a565b60808301519150610120613ca38189018465ffffffffffff169052565b60a08401519250610140613cb9818a0185613bf4565b60c08501519350610160613ccf818b0186613bf4565b60e08601519450610180613ce5818c0187613bf4565b848701519550613cf96101a08c0187613bf4565b838701519550613d0d6101c08c0187613754565b828701519550613d216101e08c0187613754565b818701519550613d356102008c0187613bf4565b808701516102208c01525050505050505060c083015181610240860152613d5e82860182613761565b95945050505050565b8d151581528c151560208201526001600160401b038c16604082015260006101a0613d95606084018e61354a565b613da2608084018d613bf4565b613daf60a084018c613bf4565b613dbc60c084018b613bf4565b88151560e08401528761010084015286610120840152613de0610140840187613bf4565b84151561016084015280610180840152613dfc81840185613c01565b9150509e9d5050505050505050505050505050565b600181815b80851115613e4c578160001904821115613e3257613e326136f5565b80851615613e3f57918102915b93841c9390800290613e16565b509250929050565b600082613e6357506001610488565b81613e7057506000610488565b8160018114613e865760028114613e9057613eac565b6001915050610488565b60ff841115613ea157613ea16136f5565b50506001821b610488565b5060208310610133831016604e8410600b8410161715613ecf575081810a610488565b613ed98383613e11565b8060001904821115613eed57613eed6136f5565b029392505050565b6000611a9360ff841683613e54565b6000611a938383613e54565b8082028115828204841417610488576104886136f5565b600082613f4457634e487b7160e01b600052601260045260246000fd5b500490565b602081526000611a936020830184613c01565b76020b1b1b2b9b9a1b7b73a3937b61d1030b1b1b7bab73a1604d1b815260008351613f8e816017850160208801613b3f565b7001034b99036b4b9b9b4b733903937b6329607d1b6017918401918201528351613fbf816028840160208801613b3f565b01602801949350505050565b602081526000611a936020830184613b63565b81810381811115610488576104886136f5565b634e487b7160e01b600052603160045260246000fd5b600081614016576140166136f5565b506000190190565b60008251614030818460208701613b3f565b919091019291505056fe241ecf16d79d0f8dbfb92cbc07fe17840425976cf0667f022fe9877caa831b088d1089725c0dc266707fa6207730fb801dcd03108bfed7a21099bd303651d2b7a26469706673582212208ecd1dcabcf5f0cb81e2e176e875ec65cda49bc62db64a6627292aad0b0777f464736f6c63430008110033",
  "linkReferences": {},
  "deployedLinkReferences": {}
}