{
  "_format": "hh-sol-artifact-1",
  "contractName": "MarketRouter",
  "sourceName": "contracts/market/MarketRouter.sol",
  "abi": [
    {
      "anonymous": false,
      "inputs": [
        {
          "indexed": true,
          "internalType": "address",
          "name": "account",
          "type": "address"
        },
        {
          "indexed": false,
          "internalType": "bool",
          "name": "isLong",
          "type": "bool"
        },
        {
          "indexed": false,
          "internalType": "bool",
          "name": "isIncrease",
          "type": "bool"
        },
        {
          "indexed": false,
          "internalType": "uint256",
          "name": "orderID",
          "type": "uint256"
        },
        {
          "indexed": false,
          "internalType": "address",
          "name": "market",
          "type": "address"
        },
        {
          "indexed": false,
          "internalType": "uint8",
          "name": "reason",
          "type": "uint8"
        },
        {
          "indexed": false,
          "internalType": "string",
          "name": "reasonStr",
          "type": "string"
        },
        {
          "indexed": false,
          "internalType": "uint256",
          "name": "price",
          "type": "uint256"
        },
        {
          "indexed": false,
          "internalType": "int256",
          "name": "dPNL",
          "type": "int256"
        }
      ],
      "name": "DeleteOrder",
      "type": "event"
    },
    {
      "anonymous": false,
      "inputs": [
        {
          "indexed": false,
          "internalType": "uint8",
          "name": "version",
          "type": "uint8"
        }
      ],
      "name": "Initialized",
      "type": "event"
    },
    {
      "anonymous": false,
      "inputs": [
        {
          "indexed": true,
          "internalType": "address",
          "name": "previousOwner",
          "type": "address"
        },
        {
          "indexed": true,
          "internalType": "address",
          "name": "newOwner",
          "type": "address"
        }
      ],
      "name": "OwnershipTransferred",
      "type": "event"
    },
    {
      "anonymous": false,
      "inputs": [
        {
          "indexed": true,
          "internalType": "bytes32",
          "name": "role",
          "type": "bytes32"
        },
        {
          "indexed": true,
          "internalType": "bytes32",
          "name": "previousAdminRole",
          "type": "bytes32"
        },
        {
          "indexed": true,
          "internalType": "bytes32",
          "name": "newAdminRole",
          "type": "bytes32"
        }
      ],
      "name": "RoleAdminChanged",
      "type": "event"
    },
    {
      "anonymous": false,
      "inputs": [
        {
          "indexed": true,
          "internalType": "bytes32",
          "name": "role",
          "type": "bytes32"
        },
        {
          "indexed": true,
          "internalType": "address",
          "name": "account",
          "type": "address"
        },
        {
          "indexed": true,
          "internalType": "address",
          "name": "sender",
          "type": "address"
        }
      ],
      "name": "RoleGranted",
      "type": "event"
    },
    {
      "anonymous": false,
      "inputs": [
        {
          "indexed": true,
          "internalType": "bytes32",
          "name": "role",
          "type": "bytes32"
        },
        {
          "indexed": true,
          "internalType": "address",
          "name": "account",
          "type": "address"
        },
        {
          "indexed": true,
          "internalType": "address",
          "name": "sender",
          "type": "address"
        }
      ],
      "name": "RoleRevoked",
      "type": "event"
    },
    {
      "anonymous": false,
      "inputs": [
        {
          "indexed": true,
          "internalType": "address",
          "name": "account",
          "type": "address"
        },
        {
          "indexed": false,
          "internalType": "bool",
          "name": "isLong",
          "type": "bool"
        },
        {
          "indexed": false,
          "internalType": "bool",
          "name": "isIncrease",
          "type": "bool"
        },
        {
          "indexed": false,
          "internalType": "uint256",
          "name": "orderID",
          "type": "uint256"
        },
        {
          "indexed": false,
          "internalType": "address",
          "name": "market",
          "type": "address"
        },
        {
          "indexed": false,
          "internalType": "uint256",
          "name": "size",
          "type": "uint256"
        },
        {
          "indexed": false,
          "internalType": "uint256",
          "name": "collateral",
          "type": "uint256"
        },
        {
          "indexed": false,
          "internalType": "uint256",
          "name": "triggerPrice",
          "type": "uint256"
        },
        {
          "indexed": false,
          "internalType": "bool",
          "name": "triggerAbove",
          "type": "bool"
        },
        {
          "indexed": false,
          "internalType": "uint256",
          "name": "tp",
          "type": "uint256"
        },
        {
          "indexed": false,
          "internalType": "uint256",
          "name": "sl",
          "type": "uint256"
        },
        {
          "indexed": false,
          "internalType": "uint128",
          "name": "fromOrder",
          "type": "uint128"
        },
        {
          "indexed": false,
          "internalType": "bool",
          "name": "isKeepLev",
          "type": "bool"
        },
        {
          "components": [
            {
              "internalType": "address",
              "name": "_market",
              "type": "address"
            },
            {
              "internalType": "bool",
              "name": "_isLong",
              "type": "bool"
            },
            {
              "internalType": "uint256",
              "name": "_oraclePrice",
              "type": "uint256"
            },
            {
              "internalType": "bool",
              "name": "isOpen",
              "type": "bool"
            },
            {
              "internalType": "bool",
              "name": "isCreate",
              "type": "bool"
            },
            {
              "components": [
                {
                  "internalType": "uint8",
                  "name": "version",
                  "type": "uint8"
                },
                {
                  "internalType": "uint32",
                  "name": "updatedAtBlock",
                  "type": "uint32"
                },
                {
                  "internalType": "uint8",
                  "name": "triggerAbove",
                  "type": "uint8"
                },
                {
                  "internalType": "address",
                  "name": "account",
                  "type": "address"
                },
                {
                  "internalType": "uint48",
                  "name": "extra3",
                  "type": "uint48"
                },
                {
                  "internalType": "uint128",
                  "name": "collateral",
                  "type": "uint128"
                },
                {
                  "internalType": "uint128",
                  "name": "size",
                  "type": "uint128"
                },
                {
                  "internalType": "uint128",
                  "name": "price",
                  "type": "uint128"
                },
                {
                  "internalType": "uint128",
                  "name": "extra1",
                  "type": "uint128"
                },
                {
                  "internalType": "uint64",
                  "name": "orderID",
                  "type": "uint64"
                },
                {
                  "internalType": "uint64",
                  "name": "extra2",
                  "type": "uint64"
                },
                {
                  "internalType": "uint128",
                  "name": "extra0",
                  "type": "uint128"
                },
                {
                  "internalType": "bytes32",
                  "name": "refCode",
                  "type": "bytes32"
                }
              ],
              "internalType": "struct Order.Props",
              "name": "_order",
              "type": "tuple"
            },
            {
              "internalType": "uint256[]",
              "name": "inputs",
              "type": "uint256[]"
            }
          ],
          "indexed": false,
          "internalType": "struct MarketDataTypes.UpdateOrderInputs",
          "name": "params",
          "type": "tuple"
        }
      ],
      "name": "UpdateOrder",
      "type": "event"
    },
    {
      "anonymous": false,
      "inputs": [
        {
          "indexed": true,
          "internalType": "address",
          "name": "account",
          "type": "address"
        },
        {
          "indexed": false,
          "internalType": "uint256",
          "name": "collateralDelta",
          "type": "uint256"
        },
        {
          "indexed": false,
          "internalType": "int256",
          "name": "collateralDeltaAfter",
          "type": "int256"
        },
        {
          "indexed": false,
          "internalType": "uint256",
          "name": "sizeDelta",
          "type": "uint256"
        },
        {
          "indexed": false,
          "internalType": "bool",
          "name": "isLong",
          "type": "bool"
        },
        {
          "indexed": false,
          "internalType": "uint256",
          "name": "price",
          "type": "uint256"
        },
        {
          "indexed": false,
          "internalType": "int256",
          "name": "pnl",
          "type": "int256"
        },
        {
          "indexed": false,
          "internalType": "int256[]",
          "name": "fees",
          "type": "int256[]"
        },
        {
          "indexed": false,
          "internalType": "address",
          "name": "market",
          "type": "address"
        },
        {
          "indexed": false,
          "internalType": "address",
          "name": "collateralToken",
          "type": "address"
        },
        {
          "indexed": false,
          "internalType": "address",
          "name": "indexToken",
          "type": "address"
        },
        {
          "indexed": false,
          "internalType": "uint256",
          "name": "category",
          "type": "uint256"
        },
        {
          "indexed": false,
          "internalType": "uint64",
          "name": "fromOrder",
          "type": "uint64"
        }
      ],
      "name": "UpdatePosition",
      "type": "event"
    },
    {
      "inputs": [],
      "name": "DEFAULT_ADMIN_ROLE",
      "outputs": [
        {
          "internalType": "bytes32",
          "name": "",
          "type": "bytes32"
        }
      ],
      "stateMutability": "view",
      "type": "function"
    },
    {
      "inputs": [
        {
          "internalType": "address",
          "name": "_market",
          "type": "address"
        },
        {
          "internalType": "address",
          "name": "",
          "type": "address"
        }
      ],
      "name": "addMarket",
      "outputs": [],
      "stateMutability": "nonpayable",
      "type": "function"
    },
    {
      "inputs": [
        {
          "internalType": "address[]",
          "name": "_markets",
          "type": "address[]"
        },
        {
          "internalType": "bool[]",
          "name": "_isIncreaseList",
          "type": "bool[]"
        },
        {
          "internalType": "uint256[]",
          "name": "_orderIDList",
          "type": "uint256[]"
        },
        {
          "internalType": "bool[]",
          "name": "_isLongList",
          "type": "bool[]"
        }
      ],
      "name": "cancelOrderList",
      "outputs": [],
      "stateMutability": "nonpayable",
      "type": "function"
    },
    {
      "inputs": [
        {
          "components": [
            {
              "internalType": "address",
              "name": "_market",
              "type": "address"
            },
            {
              "internalType": "bool",
              "name": "_isLong",
              "type": "bool"
            },
            {
              "internalType": "uint256",
              "name": "_oraclePrice",
              "type": "uint256"
            },
            {
              "internalType": "bool",
              "name": "isOpen",
              "type": "bool"
            },
            {
              "internalType": "address",
              "name": "_account",
              "type": "address"
            },
            {
              "internalType": "uint256",
              "name": "_sizeDelta",
              "type": "uint256"
            },
            {
              "internalType": "uint256",
              "name": "_price",
              "type": "uint256"
            },
            {
              "internalType": "uint256",
              "name": "_slippage",
              "type": "uint256"
            },
            {
              "internalType": "bool",
              "name": "_isExec",
              "type": "bool"
            },
            {
              "internalType": "uint8",
              "name": "liqState",
              "type": "uint8"
            },
            {
              "internalType": "uint64",
              "name": "_fromOrder",
              "type": "uint64"
            },
            {
              "internalType": "bytes32",
              "name": "_refCode",
              "type": "bytes32"
            },
            {
              "internalType": "uint256",
              "name": "collateralDelta",
              "type": "uint256"
            },
            {
              "internalType": "uint8",
              "name": "execNum",
              "type": "uint8"
            },
            {
              "internalType": "uint256[]",
              "name": "inputs",
              "type": "uint256[]"
            }
          ],
          "internalType": "struct MarketDataTypes.UpdatePositionInputs",
          "name": "_vars",
          "type": "tuple"
        }
      ],
      "name": "decreasePosition",
      "outputs": [],
      "stateMutability": "nonpayable",
      "type": "function"
    },
    {
      "inputs": [
        {
          "components": [
            {
              "components": [
                {
                  "internalType": "uint8",
                  "name": "version",
                  "type": "uint8"
                },
                {
                  "internalType": "uint32",
                  "name": "updatedAtBlock",
                  "type": "uint32"
                },
                {
                  "internalType": "uint8",
                  "name": "triggerAbove",
                  "type": "uint8"
                },
                {
                  "internalType": "address",
                  "name": "account",
                  "type": "address"
                },
                {
                  "internalType": "uint48",
                  "name": "extra3",
                  "type": "uint48"
                },
                {
                  "internalType": "uint128",
                  "name": "collateral",
                  "type": "uint128"
                },
                {
                  "internalType": "uint128",
                  "name": "size",
                  "type": "uint128"
                },
                {
                  "internalType": "uint128",
                  "name": "price",
                  "type": "uint128"
                },
                {
                  "internalType": "uint128",
                  "name": "extra1",
                  "type": "uint128"
                },
                {
                  "internalType": "uint64",
                  "name": "orderID",
                  "type": "uint64"
                },
                {
                  "internalType": "uint64",
                  "name": "extra2",
                  "type": "uint64"
                },
                {
                  "internalType": "uint128",
                  "name": "extra0",
                  "type": "uint128"
                },
                {
                  "internalType": "bytes32",
                  "name": "refCode",
                  "type": "bytes32"
                }
              ],
              "internalType": "struct Order.Props",
              "name": "order",
              "type": "tuple"
            },
            {
              "components": [
                {
                  "internalType": "address",
                  "name": "_market",
                  "type": "address"
                },
                {
                  "internalType": "bool",
                  "name": "_isLong",
                  "type": "bool"
                },
                {
                  "internalType": "uint256",
                  "name": "_oraclePrice",
                  "type": "uint256"
                },
                {
                  "internalType": "bool",
                  "name": "isOpen",
                  "type": "bool"
                },
                {
                  "internalType": "address",
                  "name": "_account",
                  "type": "address"
                },
                {
                  "internalType": "uint256",
                  "name": "_sizeDelta",
                  "type": "uint256"
                },
                {
                  "internalType": "uint256",
                  "name": "_price",
                  "type": "uint256"
                },
                {
                  "internalType": "uint256",
                  "name": "_slippage",
                  "type": "uint256"
                },
                {
                  "internalType": "bool",
                  "name": "_isExec",
                  "type": "bool"
                },
                {
                  "internalType": "uint8",
                  "name": "liqState",
                  "type": "uint8"
                },
                {
                  "internalType": "uint64",
                  "name": "_fromOrder",
                  "type": "uint64"
                },
                {
                  "internalType": "bytes32",
                  "name": "_refCode",
                  "type": "bytes32"
                },
                {
                  "internalType": "uint256",
                  "name": "collateralDelta",
                  "type": "uint256"
                },
                {
                  "internalType": "uint8",
                  "name": "execNum",
                  "type": "uint8"
                },
                {
                  "internalType": "uint256[]",
                  "name": "inputs",
                  "type": "uint256[]"
                }
              ],
              "internalType": "struct MarketDataTypes.UpdatePositionInputs",
              "name": "inputs",
              "type": "tuple"
            },
            {
              "internalType": "uint8",
              "name": "reason",
              "type": "uint8"
            },
            {
              "internalType": "string",
              "name": "reasonStr",
              "type": "string"
            },
            {
              "internalType": "int256",
              "name": "dPNL",
              "type": "int256"
            }
          ],
          "internalType": "struct MarketOrderCallBackIntl.DeleteOrderEvent",
          "name": "e",
          "type": "tuple"
        }
      ],
      "name": "deleteOrderCallback",
      "outputs": [],
      "stateMutability": "nonpayable",
      "type": "function"
    },
    {
      "inputs": [
        {
          "internalType": "address",
          "name": "account",
          "type": "address"
        }
      ],
      "name": "getAccountSize",
      "outputs": [
        {
          "internalType": "uint256",
          "name": "sizesL",
          "type": "uint256"
        },
        {
          "internalType": "uint256",
          "name": "sizesS",
          "type": "uint256"
        }
      ],
      "stateMutability": "view",
      "type": "function"
    },
    {
      "inputs": [],
      "name": "getGlobalPNL",
      "outputs": [
        {
          "internalType": "int256",
          "name": "pnl",
          "type": "int256"
        }
      ],
      "stateMutability": "view",
      "type": "function"
    },
    {
      "inputs": [],
      "name": "getGlobalSize",
      "outputs": [
        {
          "internalType": "uint256",
          "name": "sizesLong",
          "type": "uint256"
        },
        {
          "internalType": "uint256",
          "name": "sizesShort",
          "type": "uint256"
        }
      ],
      "stateMutability": "view",
      "type": "function"
    },
    {
      "inputs": [],
      "name": "getHooksCalls",
      "outputs": [
        {
          "components": [
            {
              "internalType": "bool",
              "name": "updatePosition",
              "type": "bool"
            },
            {
              "internalType": "bool",
              "name": "updateOrder",
              "type": "bool"
            },
            {
              "internalType": "bool",
              "name": "deleteOrder",
              "type": "bool"
            }
          ],
          "internalType": "struct MarketCallBackIntl.Calls",
          "name": "",
          "type": "tuple"
        }
      ],
      "stateMutability": "pure",
      "type": "function"
    },
    {
      "inputs": [],
      "name": "getMarkets",
      "outputs": [
        {
          "internalType": "address[]",
          "name": "",
          "type": "address[]"
        }
      ],
      "stateMutability": "view",
      "type": "function"
    },
    {
      "inputs": [
        {
          "internalType": "bytes32",
          "name": "role",
          "type": "bytes32"
        }
      ],
      "name": "getRoleAdmin",
      "outputs": [
        {
          "internalType": "bytes32",
          "name": "",
          "type": "bytes32"
        }
      ],
      "stateMutability": "view",
      "type": "function"
    },
    {
      "inputs": [
        {
          "internalType": "address",
          "name": "_account",
          "type": "address"
        }
      ],
      "name": "grantControllerRoleByMarketManager",
      "outputs": [],
      "stateMutability": "nonpayable",
      "type": "function"
    },
    {
      "inputs": [
        {
          "internalType": "bytes32",
          "name": "role",
          "type": "bytes32"
        },
        {
          "internalType": "address",
          "name": "account",
          "type": "address"
        }
      ],
      "name": "grantRole",
      "outputs": [],
      "stateMutability": "nonpayable",
      "type": "function"
    },
    {
      "inputs": [],
      "name": "gv",
      "outputs": [
        {
          "internalType": "address",
          "name": "",
          "type": "address"
        }
      ],
      "stateMutability": "view",
      "type": "function"
    },
    {
      "inputs": [
        {
          "internalType": "bytes32",
          "name": "role",
          "type": "bytes32"
        },
        {
          "internalType": "address",
          "name": "account",
          "type": "address"
        }
      ],
      "name": "hasRole",
      "outputs": [
        {
          "internalType": "bool",
          "name": "",
          "type": "bool"
        }
      ],
      "stateMutability": "view",
      "type": "function"
    },
    {
      "inputs": [
        {
          "components": [
            {
              "internalType": "address",
              "name": "_market",
              "type": "address"
            },
            {
              "internalType": "bool",
              "name": "_isLong",
              "type": "bool"
            },
            {
              "internalType": "uint256",
              "name": "_oraclePrice",
              "type": "uint256"
            },
            {
              "internalType": "bool",
              "name": "isOpen",
              "type": "bool"
            },
            {
              "internalType": "address",
              "name": "_account",
              "type": "address"
            },
            {
              "internalType": "uint256",
              "name": "_sizeDelta",
              "type": "uint256"
            },
            {
              "internalType": "uint256",
              "name": "_price",
              "type": "uint256"
            },
            {
              "internalType": "uint256",
              "name": "_slippage",
              "type": "uint256"
            },
            {
              "internalType": "bool",
              "name": "_isExec",
              "type": "bool"
            },
            {
              "internalType": "uint8",
              "name": "liqState",
              "type": "uint8"
            },
            {
              "internalType": "uint64",
              "name": "_fromOrder",
              "type": "uint64"
            },
            {
              "internalType": "bytes32",
              "name": "_refCode",
              "type": "bytes32"
            },
            {
              "internalType": "uint256",
              "name": "collateralDelta",
              "type": "uint256"
            },
            {
              "internalType": "uint8",
              "name": "execNum",
              "type": "uint8"
            },
            {
              "internalType": "uint256[]",
              "name": "inputs",
              "type": "uint256[]"
            }
          ],
          "internalType": "struct MarketDataTypes.UpdatePositionInputs",
          "name": "_inputs",
          "type": "tuple"
        }
      ],
      "name": "increasePosition",
      "outputs": [],
      "stateMutability": "nonpayable",
      "type": "function"
    },
    {
      "inputs": [
        {
          "internalType": "address",
          "name": "_f",
          "type": "address"
        },
        {
          "internalType": "address",
          "name": "_gv",
          "type": "address"
        },
        {
          "internalType": "address",
          "name": "vr",
          "type": "address"
        }
      ],
      "name": "initialize",
      "outputs": [],
      "stateMutability": "nonpayable",
      "type": "function"
    },
    {
      "inputs": [],
      "name": "isEnableMarketConvertToOrder",
      "outputs": [
        {
          "internalType": "bool",
          "name": "",
          "type": "bool"
        }
      ],
      "stateMutability": "view",
      "type": "function"
    },
    {
      "inputs": [],
      "name": "owner",
      "outputs": [
        {
          "internalType": "address",
          "name": "",
          "type": "address"
        }
      ],
      "stateMutability": "view",
      "type": "function"
    },
    {
      "inputs": [
        {
          "internalType": "address",
          "name": "_market",
          "type": "address"
        }
      ],
      "name": "removeMarket",
      "outputs": [],
      "stateMutability": "nonpayable",
      "type": "function"
    },
    {
      "inputs": [],
      "name": "renounceOwnership",
      "outputs": [],
      "stateMutability": "nonpayable",
      "type": "function"
    },
    {
      "inputs": [
        {
          "internalType": "bytes32",
          "name": "role",
          "type": "bytes32"
        },
        {
          "internalType": "address",
          "name": "account",
          "type": "address"
        }
      ],
      "name": "renounceRole",
      "outputs": [],
      "stateMutability": "nonpayable",
      "type": "function"
    },
    {
      "inputs": [
        {
          "internalType": "bytes32",
          "name": "role",
          "type": "bytes32"
        },
        {
          "internalType": "address",
          "name": "account",
          "type": "address"
        }
      ],
      "name": "revokeRole",
      "outputs": [],
      "stateMutability": "nonpayable",
      "type": "function"
    },
    {
      "inputs": [
        {
          "internalType": "bool",
          "name": "_isEnableMarketConvertToOrder",
          "type": "bool"
        }
      ],
      "name": "setIsEnableMarketConvertToOrder",
      "outputs": [],
      "stateMutability": "nonpayable",
      "type": "function"
    },
    {
      "inputs": [
        {
          "internalType": "bytes4",
          "name": "interfaceId",
          "type": "bytes4"
        }
      ],
      "name": "supportsInterface",
      "outputs": [
        {
          "internalType": "bool",
          "name": "",
          "type": "bool"
        }
      ],
      "stateMutability": "view",
      "type": "function"
    },
    {
      "inputs": [
        {
          "internalType": "address",
          "name": "to",
          "type": "address"
        }
      ],
      "name": "transferAdmin",
      "outputs": [],
      "stateMutability": "nonpayable",
      "type": "function"
    },
    {
      "inputs": [
        {
          "internalType": "address",
          "name": "newOwner",
          "type": "address"
        }
      ],
      "name": "transferOwnership",
      "outputs": [],
      "stateMutability": "nonpayable",
      "type": "function"
    },
    {
      "inputs": [
        {
          "components": [
            {
              "internalType": "address",
              "name": "_market",
              "type": "address"
            },
            {
              "internalType": "bool",
              "name": "_isLong",
              "type": "bool"
            },
            {
              "internalType": "uint256",
              "name": "_oraclePrice",
              "type": "uint256"
            },
            {
              "internalType": "bool",
              "name": "isOpen",
              "type": "bool"
            },
            {
              "internalType": "bool",
              "name": "isCreate",
              "type": "bool"
            },
            {
              "components": [
                {
                  "internalType": "uint8",
                  "name": "version",
                  "type": "uint8"
                },
                {
                  "internalType": "uint32",
                  "name": "updatedAtBlock",
                  "type": "uint32"
                },
                {
                  "internalType": "uint8",
                  "name": "triggerAbove",
                  "type": "uint8"
                },
                {
                  "internalType": "address",
                  "name": "account",
                  "type": "address"
                },
                {
                  "internalType": "uint48",
                  "name": "extra3",
                  "type": "uint48"
                },
                {
                  "internalType": "uint128",
                  "name": "collateral",
                  "type": "uint128"
                },
                {
                  "internalType": "uint128",
                  "name": "size",
                  "type": "uint128"
                },
                {
                  "internalType": "uint128",
                  "name": "price",
                  "type": "uint128"
                },
                {
                  "internalType": "uint128",
                  "name": "extra1",
                  "type": "uint128"
                },
                {
                  "internalType": "uint64",
                  "name": "orderID",
                  "type": "uint64"
                },
                {
                  "internalType": "uint64",
                  "name": "extra2",
                  "type": "uint64"
                },
                {
                  "internalType": "uint128",
                  "name": "extra0",
                  "type": "uint128"
                },
                {
                  "internalType": "bytes32",
                  "name": "refCode",
                  "type": "bytes32"
                }
              ],
              "internalType": "struct Order.Props",
              "name": "_order",
              "type": "tuple"
            },
            {
              "internalType": "uint256[]",
              "name": "inputs",
              "type": "uint256[]"
            }
          ],
          "internalType": "struct MarketDataTypes.UpdateOrderInputs",
          "name": "_vars",
          "type": "tuple"
        }
      ],
      "name": "updateOrder",
      "outputs": [],
      "stateMutability": "nonpayable",
      "type": "function"
    },
    {
      "inputs": [
        {
          "components": [
            {
              "internalType": "address",
              "name": "_market",
              "type": "address"
            },
            {
              "internalType": "bool",
              "name": "_isLong",
              "type": "bool"
            },
            {
              "internalType": "uint256",
              "name": "_oraclePrice",
              "type": "uint256"
            },
            {
              "internalType": "bool",
              "name": "isOpen",
              "type": "bool"
            },
            {
              "internalType": "bool",
              "name": "isCreate",
              "type": "bool"
            },
            {
              "components": [
                {
                  "internalType": "uint8",
                  "name": "version",
                  "type": "uint8"
                },
                {
                  "internalType": "uint32",
                  "name": "updatedAtBlock",
                  "type": "uint32"
                },
                {
                  "internalType": "uint8",
                  "name": "triggerAbove",
                  "type": "uint8"
                },
                {
                  "internalType": "address",
                  "name": "account",
                  "type": "address"
                },
                {
                  "internalType": "uint48",
                  "name": "extra3",
                  "type": "uint48"
                },
                {
                  "internalType": "uint128",
                  "name": "collateral",
                  "type": "uint128"
                },
                {
                  "internalType": "uint128",
                  "name": "size",
                  "type": "uint128"
                },
                {
                  "internalType": "uint128",
                  "name": "price",
                  "type": "uint128"
                },
                {
                  "internalType": "uint128",
                  "name": "extra1",
                  "type": "uint128"
                },
                {
                  "internalType": "uint64",
                  "name": "orderID",
                  "type": "uint64"
                },
                {
                  "internalType": "uint64",
                  "name": "extra2",
                  "type": "uint64"
                },
                {
                  "internalType": "uint128",
                  "name": "extra0",
                  "type": "uint128"
                },
                {
                  "internalType": "bytes32",
                  "name": "refCode",
                  "type": "bytes32"
                }
              ],
              "internalType": "struct Order.Props",
              "name": "_order",
              "type": "tuple"
            },
            {
              "internalType": "uint256[]",
              "name": "inputs",
              "type": "uint256[]"
            }
          ],
          "internalType": "struct MarketDataTypes.UpdateOrderInputs",
          "name": "_event",
          "type": "tuple"
        }
      ],
      "name": "updateOrderCallback",
      "outputs": [],
      "stateMutability": "nonpayable",
      "type": "function"
    },
    {
      "inputs": [
        {
          "internalType": "address",
          "name": "newA",
          "type": "address"
        }
      ],
      "name": "updatePositionBook",
      "outputs": [],
      "stateMutability": "nonpayable",
      "type": "function"
    },
    {
      "inputs": [
        {
          "components": [
            {
              "components": [
                {
                  "internalType": "address",
                  "name": "_market",
                  "type": "address"
                },
                {
                  "internalType": "bool",
                  "name": "_isLong",
                  "type": "bool"
                },
                {
                  "internalType": "uint256",
                  "name": "_oraclePrice",
                  "type": "uint256"
                },
                {
                  "internalType": "bool",
                  "name": "isOpen",
                  "type": "bool"
                },
                {
                  "internalType": "address",
                  "name": "_account",
                  "type": "address"
                },
                {
                  "internalType": "uint256",
                  "name": "_sizeDelta",
                  "type": "uint256"
                },
                {
                  "internalType": "uint256",
                  "name": "_price",
                  "type": "uint256"
                },
                {
                  "internalType": "uint256",
                  "name": "_slippage",
                  "type": "uint256"
                },
                {
                  "internalType": "bool",
                  "name": "_isExec",
                  "type": "bool"
                },
                {
                  "internalType": "uint8",
                  "name": "liqState",
                  "type": "uint8"
                },
                {
                  "internalType": "uint64",
                  "name": "_fromOrder",
                  "type": "uint64"
                },
                {
                  "internalType": "bytes32",
                  "name": "_refCode",
                  "type": "bytes32"
                },
                {
                  "internalType": "uint256",
                  "name": "collateralDelta",
                  "type": "uint256"
                },
                {
                  "internalType": "uint8",
                  "name": "execNum",
                  "type": "uint8"
                },
                {
                  "internalType": "uint256[]",
                  "name": "inputs",
                  "type": "uint256[]"
                }
              ],
              "internalType": "struct MarketDataTypes.UpdatePositionInputs",
              "name": "inputs",
              "type": "tuple"
            },
            {
              "components": [
                {
                  "internalType": "address",
                  "name": "market",
                  "type": "address"
                },
                {
                  "internalType": "bool",
                  "name": "isLong",
                  "type": "bool"
                },
                {
                  "internalType": "uint32",
                  "name": "lastTime",
                  "type": "uint32"
                },
                {
                  "internalType": "uint216",
                  "name": "extra3",
                  "type": "uint216"
                },
                {
                  "internalType": "uint256",
                  "name": "size",
                  "type": "uint256"
                },
                {
                  "internalType": "uint256",
                  "name": "collateral",
                  "type": "uint256"
                },
                {
                  "internalType": "uint256",
                  "name": "averagePrice",
                  "type": "uint256"
                },
                {
                  "internalType": "int256",
                  "name": "entryFundingRate",
                  "type": "int256"
                },
                {
                  "internalType": "int256",
                  "name": "realisedPnl",
                  "type": "int256"
                },
                {
                  "internalType": "uint256",
                  "name": "extra0",
                  "type": "uint256"
                },
                {
                  "internalType": "uint256",
                  "name": "extra1",
                  "type": "uint256"
                },
                {
                  "internalType": "uint256",
                  "name": "extra2",
                  "type": "uint256"
                }
              ],
              "internalType": "struct Position.Props",
              "name": "position",
              "type": "tuple"
            },
            {
              "internalType": "int256[]",
              "name": "fees",
              "type": "int256[]"
            },
            {
              "internalType": "address",
              "name": "collateralToken",
              "type": "address"
            },
            {
              "internalType": "address",
              "name": "indexToken",
              "type": "address"
            },
            {
              "internalType": "int256",
              "name": "collateralDeltaAfter",
              "type": "int256"
            }
          ],
          "internalType": "struct MarketPositionCallBackIntl.UpdatePositionEvent",
          "name": "_event",
          "type": "tuple"
        }
      ],
      "name": "updatePositionCallback",
      "outputs": [],
      "stateMutability": "nonpayable",
      "type": "function"
    },
    {
      "inputs": [
        {
          "components": [
            {
              "internalType": "address",
              "name": "_market",
              "type": "address"
            },
            {
              "internalType": "bool",
              "name": "_isLong",
              "type": "bool"
            },
            {
              "internalType": "uint256",
              "name": "_oraclePrice",
              "type": "uint256"
            },
            {
              "internalType": "bool",
              "name": "isOpen",
              "type": "bool"
            },
            {
              "internalType": "address",
              "name": "_account",
              "type": "address"
            },
            {
              "internalType": "uint256",
              "name": "_sizeDelta",
              "type": "uint256"
            },
            {
              "internalType": "uint256",
              "name": "_price",
              "type": "uint256"
            },
            {
              "internalType": "uint256",
              "name": "_slippage",
              "type": "uint256"
            },
            {
              "internalType": "bool",
              "name": "_isExec",
              "type": "bool"
            },
            {
              "internalType": "uint8",
              "name": "liqState",
              "type": "uint8"
            },
            {
              "internalType": "uint64",
              "name": "_fromOrder",
              "type": "uint64"
            },
            {
              "internalType": "bytes32",
              "name": "_refCode",
              "type": "bytes32"
            },
            {
              "internalType": "uint256",
              "name": "collateralDelta",
              "type": "uint256"
            },
            {
              "internalType": "uint8",
              "name": "execNum",
              "type": "uint8"
            },
            {
              "internalType": "uint256[]",
              "name": "inputs",
              "type": "uint256[]"
            }
          ],
          "internalType": "struct MarketDataTypes.UpdatePositionInputs",
          "name": "_inputs",
          "type": "tuple"
        }
      ],
      "name": "validateIncreasePosition",
      "outputs": [],
      "stateMutability": "view",
      "type": "function"
    },
    {
      "inputs": [],
      "name": "vaultRouter",
      "outputs": [
        {
          "internalType": "address",
          "name": "",
          "type": "address"
        }
      ],
      "stateMutability": "view",
      "type": "function"
    }
  ],
  "bytecode": "0x60806040523480156200001157600080fd5b506200001d3362000028565b60016003556200007a565b600180546001600160a01b038381166001600160a01b0319831681179093556040519116919082907f8be0079c531659141344cd1fd0a4f28419497f9722a3daafe3b4186f6b6457e090600090a35050565b61424d806200008a6000396000f3fe608060405234801561001057600080fd5b50600436106101fb5760003560e01c806375829def1161011a578063c0c53b8b116100ad578063d547741f1161007c578063d547741f1461048a578063db9132361461049d578063de1f4430146104b0578063ec2c9016146104c3578063f2fde38b146104d857600080fd5b8063c0c53b8b1461043e578063cce9a2f314610451578063cd6ebf6614610464578063d37c441c1461047757600080fd5b806391d14854116100e957806391d14854146103fd578063a217fddf14610410578063abed961814610418578063b038beb81461042b57600080fd5b806375829def1461039b5780637fe4a698146103ae5780638b4400f2146103c15780638da5cb5b146103ec57600080fd5b8063332013a711610192578063544781af11610161578063544781af14610319578063612c39b71461032c578063715018a614610380578063718cb58a1461038857600080fd5b8063332013a7146102cc57806336568abe146102e057806340a542fe146102f35780634463b5bc1461030657600080fd5b80632073b0ce116101ce5780632073b0ce1461026d578063248a9ca3146102835780632ca6d2c0146102a65780632f2ff15d146102b957600080fd5b806301ffc9a7146102005780630799f55f146102285780630d918caa146102455780631cfe58281461025a575b600080fd5b61021361020e366004612d2e565b6104eb565b60405190151581526020015b60405180910390f35b610230610522565b6040805192835260208301919091520161021f565b61025861025336600461307f565b6105e5565b005b61025861026836600461307f565b61078c565b610275610ab2565b60405190815260200161021f565b6102756102913660046130b3565b60009081526020819052604090206001015490565b6102306102b43660046130cc565b610b62565b6102586102c73660046130e9565b610c31565b600a5461021390600160a01b900460ff1681565b6102586102ee3660046130e9565b610c5b565b6102586103013660046131fd565b610cd9565b6102586103143660046132d1565b610e2e565b610258610327366004613352565b610e65565b6040805160608082018352600080835260208084018290529284015282518082018452600180825281840181815291850181815285519182529151151593810193909352511515928201929092520161021f565b610258611261565b6102586103963660046135f2565b611275565b6102586103a93660046130cc565b611349565b6102586103bc3660046130cc565b611373565b6009546103d4906001600160a01b031681565b6040516001600160a01b03909116815260200161021f565b6001546001600160a01b03166103d4565b61021361040b3660046130e9565b61138b565b610275600081565b61025861042636600461307f565b6113b4565b6102586104393660046136b5565b611482565b61025861044c366004613783565b611493565b61025861045f3660046136b5565b6115fd565b6102586104723660046130cc565b611750565b600a546103d4906001600160a01b031681565b6102586104983660046130e9565b6118ca565b6102586104ab3660046130cc565b6118ef565b6102586104be3660046137ce565b6119ae565b6104cb611b03565b60405161021f91906137fc565b6102586104e63660046130cc565b611b14565b60006001600160e01b03198216637965db0b60e01b148061051c57506301ffc9a760e01b6001600160e01b03198316145b92915050565b60008060005b6105326005611b8a565b518110156105e0576000610547600583611b9e565b9050600080826001600160a01b0316638749694a6040518163ffffffff1660e01b81526004016040805180830381865afa158015610589573d6000803e3d6000fd5b505050506040513d601f19601f820116820180604052508101906105ad9190613849565b90925090506105bc8287613883565b95506105c88186613883565b945050505080806105d890613896565b915050610528565b509091565b6105ed611baa565b600a54600160a01b900460ff16801561060a575060008160a00151115b1561061d5761061881611c03565b61077f565b805161062b90600790611d68565b6106735760405162461bcd60e51b815260206004820152601460248201527313585c9ad95d149bdd5d195c8e885b585c9ad95d60621b60448201526064015b60405180910390fd5b6000816000015190506000816001600160a01b031663b2016bd46040518163ffffffff1660e01b8152600401602060405180830381865afa1580156106bc573d6000803e3d6000fd5b505050506040513d601f19601f820116820180604052508101906106e091906138af565b905061070c3384600001516106fa84876101800151611d8a565b6001600160a01b038516929190611e03565b33608084015261071b8361078c565b8251604051631def7c1d60e11b81526001600160a01b0390911690633bdef83a9061074a908690600401613907565b600060405180830381600087803b15801561076457600080fd5b505af1158015610778573d6000803e3d6000fd5b5050505050505b6107896001600355565b50565b80516001600160a01b03908116600090815260046020908152604080832054815161014081018352848152808401858152928101858152606082018690526080820186905260a080830187905260c0830187905260e083018790526101008301879052610120830196909652875187168252948701519092529185015115159092529091169061081a610522565b608080840191909152606083019190915283015161083790610b62565b60c083015260a0820152604080516343a4b4a560e11b815281516001600160a01b03851692638749694a92600480820193918290030181865afa158015610882573d6000803e3d6000fd5b505050506040513d601f19601f820116820180604052508101906108a69190613849565b61010083015260e0820152825160408051632c805af560e21b815290516000926001600160a01b03169163b2016bd49160048083019260209291908290030181865afa1580156108fa573d6000803e3d6000fd5b505050506040513d601f19601f8201168201806040525081019061091e91906138af565b9050610a01600a60009054906101000a90046001600160a01b03166001600160a01b0316636dc7b0a16040518163ffffffff1660e01b8152600401602060405180830381865afa158015610976573d6000803e3d6000fd5b505050506040513d601f19601f8201168201806040525081019061099a9190613a1e565b826001600160a01b031663313ce5676040518163ffffffff1660e01b8152600401602060405180830381865afa1580156109d8573d6000803e3d6000fd5b505050506040513d601f19601f820116820180604052508101906109fc9190613a37565b611e5d565b61012083015260095460405163028c7b5160e41b81526001600160a01b03909116906328c7b51090610a37908590600401613a54565b602060405180830381865afa158015610a54573d6000803e3d6000fd5b505050506040513d601f19601f82011682018060405250810190610a789190613ad4565b610aac5760405162461bcd60e51b815260206004820152600560248201526436b91d33bb60d91b604482015260640161066a565b50505050565b6000805b610ac06007611b8a565b51811015610b5e576000610ad5600783611b9e565b90506000816001600160a01b03166393a98e6c6040518163ffffffff1660e01b8152600401602060405180830381865afa158015610b17573d6000803e3d6000fd5b505050506040513d601f19601f82011682018060405250810190610b3b9190613a1e565b9050610b478185613af1565b935050508080610b5690613896565b915050610ab6565b5090565b60008060005b610b726005611b8a565b51811015610c2b576000610b87600583611b9e565b60405162b29b4b60e61b81526001600160a01b038781166004830152919250600091829190841690632ca6d2c0906024016040805180830381865afa158015610bd4573d6000803e3d6000fd5b505050506040513d601f19601f82011682018060405250810190610bf89190613849565b9092509050610c078287613883565b9550610c138186613883565b94505050508080610c2390613896565b915050610b68565b50915091565b600082815260208190526040902060010154610c4c81611e8a565b610c568383611e94565b505050565b6001600160a01b0381163314610ccb5760405162461bcd60e51b815260206004820152602f60248201527f416363657373436f6e74726f6c3a2063616e206f6e6c792072656e6f756e636560448201526e103937b632b9903337b91039b2b63360891b606482015260840161066a565b610cd58282611f18565b5050565b8051516001600160a01b03163314610d035760405162461bcd60e51b815260040161066a90613b19565b610d0e600733611d68565b610d2a5760405162461bcd60e51b815260040161066a90613b41565b80516060015160019015610d5557815160a00151600003610d4d57506002610d98565b506000610d98565b8151610120015160ff16600103610d6e57506004610d98565b8151610120015160ff16600203610d8757506005610d98565b815160a00151600003610d98575060035b815160808082015161018083015160a08087015190850151602080870151604080890151928b01516101000151818c01518a5160608e01519a8e0151610140909c015193516001600160a01b03909a169b7fd0abfef5eb2cd61e6fd56ea2b69e9867bc90e8589023c554bdade2287b28c9399b610e229b96979694959394929390928f9190613b69565b60405180910390a25050565b6000805160206141f8833981519152610e4681611e8a565b50600a8054911515600160a01b0260ff60a01b19909216919091179055565b610e6d611baa565b82518451148015610e7f575081518351145b8015610e8c575080518251145b610ed85760405162461bcd60e51b815260206004820152601a60248201527f4172726179206c656e6774687320646f206e6f74206d61746368000000000000604482015260640161066a565b604080516001808252818301909252600091602080830190803683375050604080516001808252818301909252929350600092915060208083019080368337505060408051600180825281830190925292935060009291506020808301908036833701905050905060005b875181101561125357610f79888281518110610f6157610f61613c2e565b60200260200101516007611d6890919063ffffffff16565b610f955760405162461bcd60e51b815260040161066a90613b41565b6000610fa2826001613883565b90505b885181101561110b57888181518110610fc057610fc0613c2e565b60200260200101516001600160a01b0316898381518110610fe357610fe3613c2e565b60200260200101516001600160a01b0316148015611036575087818151811061100e5761100e613c2e565b6020026020010151151588838151811061102a5761102a613c2e565b60200260200101511515145b8015611073575086818151811061104f5761104f613c2e565b602002602001015187838151811061106957611069613c2e565b6020026020010151145b80156110b4575085818151811061108c5761108c613c2e565b602002602001015115158683815181106110a8576110a8613c2e565b60200260200101511515145b156110f95760405162461bcd60e51b8152602060048201526015602482015274111d5c1b1a58d85d19481bdc99195c88199bdd5b99605a1b604482015260640161066a565b8061110381613896565b915050610fa5565b5086818151811061111e5761111e613c2e565b60200260200101518460008151811061113957611139613c2e565b60200260200101901515908115158152505085818151811061115d5761115d613c2e565b60200260200101518360008151811061117857611178613c2e565b60200260200101818152505084818151811061119657611196613c2e565b6020026020010151826000815181106111b1576111b1613c2e565b6020026020010190151590811515815250508781815181106111d5576111d5613c2e565b60200260200101516001600160a01b031663301f6fe9338686866040518563ffffffff1660e01b815260040161120e9493929190613c76565b600060405180830381600087803b15801561122857600080fd5b505af115801561123c573d6000803e3d6000fd5b50505050808061124b90613896565b915050610f43565b50505050610aac6001600355565b611269611f7d565b6112736000611fd7565b565b6020810151516001600160a01b031633146112a25760405162461bcd60e51b815260040161066a90613b19565b6112ad600733611d68565b6112c95760405162461bcd60e51b815260040161066a90613b41565b80516060808201516020808501519081015181840151610120909501518251604080890151968901519481015160808a015191516001600160a01b03909716987f083f7516dcfe13a8bef8bcbbe89648ce92bfd7161733f88ba43e1049de6af1b49861133e9896979196909391929190613d10565b60405180910390a250565b600061135481611e8a565b61135f600083612029565b61136882611fd7565b610cd5600033611f18565b6000805160206141f88339815191526101fb81611e8a565b6000918252602082815260408084206001600160a01b0393909316845291905290205460ff1690565b6113bc611baa565b600a54600160a01b900460ff1680156113d9575060008160a00151115b156113e75761061881611c03565b80516113f590600790611d68565b6114115760405162461bcd60e51b815260040161066a90613b41565b336080820152805160405163157db2c360e31b81526001600160a01b039091169063abed961890611446908490600401613907565b600060405180830381600087803b15801561146057600080fd5b505af1158015611474573d6000803e3d6000fd5b505050506107896001600355565b61148a611baa565b61077f81612033565b600154600160a81b900460ff16158080156114b9575060018054600160a01b900460ff16105b806114d95750303b1580156114d9575060018054600160a01b900460ff16145b61153c5760405162461bcd60e51b815260206004820152602e60248201527f496e697469616c697a61626c653a20636f6e747261637420697320616c72656160448201526d191e481a5b9a5d1a585b1a5e995960921b606482015260840161066a565b6001805460ff60a01b1916600160a01b1790558015611569576001805460ff60a81b1916600160a81b1790555b611572846121cd565b600980546001600160a01b038086166001600160a01b031990921691909117909155600a80546001600160a81b03191691841691909117600160a01b1790558015610aac576001805460ff60a81b191681556040519081527f7f26b83ff96e1f2b6a682f133852f6798a09c465da95921460cefb38474024989060200160405180910390a150505050565b80516001600160a01b031633146116265760405162461bcd60e51b815260040161066a90613b19565b611631600733611d68565b61164d5760405162461bcd60e51b815260040161066a90613b41565b60a080820151606080820151602085015191850151610120840151865160c08601519686015160e08701516001600160a01b03909516977fc1a292b7363ad930d02501a9224823f3fc6d6433978aa670da66b24004eaac719794959394929390926116b7906121f0565b8a606001516116c75760006116db565b60a08b015161010001516001600160801b03165b8b606001516116eb5760006116ff565b60a08c015161016001516001600160801b03165b8c606001516117205760a08d015161016001516001600160801b0316611723565b60005b60a08e01516080015165ffffffffffff1615158e60405161133e9d9c9b9a99989796959493929190613ee4565b6000805160206141f883398151915261176881611e8a565b6001600160a01b03821661177b57600080fd5b33611787600782611d68565b6117a35760405162461bcd60e51b815260040161066a90613b41565b611810816001600160a01b031663ac0b05a66040518163ffffffff1660e01b8152600401602060405180830381865afa1580156117e4573d6000803e3d6000fd5b505050506040513d601f19601f8201168201806040525081019061180891906138af565b600590612279565b506000816001600160a01b031663ac0b05a66040518163ffffffff1660e01b8152600401602060405180830381865afa158015611851573d6000803e3d6000fd5b505050506040513d601f19601f8201168201806040525081019061187591906138af565b9050611882600582612279565b5061188e60058561228e565b61189757600080fd5b506001600160a01b0390811660009081526004602052604090208054919093166001600160a01b03199091161790915550565b6000828152602081905260409020600101546118e581611e8a565b610c568383611f18565b6000805160206141f883398151915261190781611e8a565b6000826001600160a01b031663ac0b05a66040518163ffffffff1660e01b8152600401602060405180830381865afa158015611947573d6000803e3d6000fd5b505050506040513d601f19601f8201168201806040525081019061196b91906138af565b9050611978600784612279565b50611984600582612279565b5050506001600160a01b0316600090815260046020526040902080546001600160a01b0319169055565b6000805160206141f883398151915260006119c9813361138b565b90508015611a265762015180600254426119e39190613f9e565b10611a215760405162461bcd60e51b815260206004820152600e60248201526d1858c81d1a5b59481c185cdcd95960921b604482015260640161066a565b611a30565b611a3082336122a3565b6001600160a01b038416611a4357600080fd5b6000846001600160a01b031663ac0b05a66040518163ffffffff1660e01b8152600401602060405180830381865afa158015611a83573d6000803e3d6000fd5b505050506040513d601f19601f82011682018060405250810190611aa791906138af565b9050611ab460078661228e565b611abd57600080fd5b611ac860058261228e565b611ad157600080fd5b6001600160a01b03948516600090815260046020526040902080546001600160a01b0319169190951617909355505050565b6060611b0f6007611b8a565b905090565b611b1c611f7d565b6001600160a01b038116611b815760405162461bcd60e51b815260206004820152602660248201527f4f776e61626c653a206e6577206f776e657220697320746865207a65726f206160448201526564647265737360d01b606482015260840161066a565b61078981611fd7565b60606000611b97836122fc565b9392505050565b6000611b978383612358565b600260035403611bfc5760405162461bcd60e51b815260206004820152601f60248201527f5265656e7472616e637947756172643a207265656e7472616e742063616c6c00604482015260640161066a565b6002600355565b611c0b612c7e565b6060820151611c1b908290612382565b611c268160016123af565b60e0820151611c369082906123e8565b81516001600160a01b0316815260208083015115159082015260016080820152611c5e612cc2565b60608301511515600003611c8457611c7f611c7884612400565b829061243d565b611ce1565b610180830151611c9590839061245b565b611ca8611ca184612473565b82906124b1565b611cbb611cb4846124d0565b8290612500565b611cce611cc78461251f565b8290612557565b611ce1611cda8461258b565b82906125c3565b611cef8361018001516125fe565b6001600160801b031660a08083019190915260808401516001600160a01b03166060830152830151611d20906125fe565b6001600160801b031660c080830191909152830151611d3e906125fe565b6001600160801b031660e082015261016083015161018082015260a08201819052610c5682612033565b6001600160a01b03811660009081526001830160205260408120541515611b97565b600080836001600160a01b031663313ce5676040518163ffffffff1660e01b8152600401602060405180830381865afa158015611dcb573d6000803e3d6000fd5b505050506040513d601f19601f82011682018060405250810190611def9190613a37565b9050611dfb8382612667565b949350505050565b604080516001600160a01b0385811660248301528416604482015260648082018490528251808303909101815260849091019091526020810180516001600160e01b03166323b872dd60e01b179052610aac908590612683565b6000611e6a82600a614095565b611e766012600a6140a4565b611e8090856140b0565b611b9791906140dd565b61078981336122a3565b611e9e828261138b565b610cd5576000828152602081815260408083206001600160a01b03851684529091529020805460ff19166001179055611ed43390565b6001600160a01b0316816001600160a01b0316837f2f8788117e7eff1d82e926ec794901d17c78024a50270940304540a733656f0d60405160405180910390a45050565b611f22828261138b565b15610cd5576000828152602081815260408083206001600160a01b0385168085529252808320805460ff1916905551339285917ff6391f5c32d9c69d2a47ea670b442974b53935d1edc7fd64eb21e047a839171b9190a45050565b6001546001600160a01b031633146112735760405162461bcd60e51b815260206004820181905260248201527f4f776e61626c653a2063616c6c6572206973206e6f7420746865206f776e6572604482015260640161066a565b600180546001600160a01b038381166001600160a01b0319831681179093556040519116919082907f8be0079c531659141344cd1fd0a4f28419497f9722a3daafe3b4186f6b6457e090600090a35050565b610cd58282611e94565b805161204190600790611d68565b61205d5760405162461bcd60e51b815260040161066a90613b41565b61206681612755565b6120a35760405162461bcd60e51b815260206004820152600e60248201526d696e76616c696420706172616d7360901b604482015260640161066a565b60a0810151336060918201528101516120cb906120bf836127d3565b60a084015191906127ff565b806060015180156120dd575080608001515b1561216957600081600001516001600160a01b031663b2016bd46040518163ffffffff1660e01b8152600401602060405180830381865afa158015612126573d6000803e3d6000fd5b505050506040513d601f19601f8201168201806040525081019061214a91906138af565b90506121673383600001516106fa846121628761283e565b611d8a565b505b805160405163160717d760e31b81526001600160a01b039091169063b038beb8906121989084906004016140f1565b600060405180830381600087803b1580156121b257600080fd5b505af11580156121c6573d6000803e3d6000fd5b5050505050565b426002556121da33611fd7565b6121e5600033612029565b610789600082612029565b6000816040015160ff166000036122495760405162461bcd60e51b815260206004820152601b60248201527f696e76616c6964206f7264657220747269676765722061626f76650000000000604482015260640161066a565b6002826040015161225a9190614104565b60ff1660010361226c57506001919050565b506000919050565b919050565b6000611b97836001600160a01b03841661286c565b6000611b97836001600160a01b03841661295f565b6122ad828261138b565b610cd5576122ba816129ae565b6122c58360206129c0565b6040516020016122d6929190614126565b60408051601f198184030181529082905262461bcd60e51b825261066a9160040161419b565b60608160000180548060200260200160405190810160405280929190818152602001828054801561234c57602002820191906000526020600020905b815481526020019060010190808311612338575b50505050509050919050565b600082600001828154811061236f5761236f613c2e565b9060005260206000200154905092915050565b60408051600380825260808201909252906020820160608036833750505060c08301521515606090910152565b806123bb5760006123be565b60015b60ff168260c001516001815181106123d8576123d8613c2e565b6020026020010181815250505050565b808260c001516002815181106123d8576123d8613c2e565b60006001826101c00151511015801561051c57506000826101c0015160008151811061242e5761242e613c2e565b60200260200101511192915050565b8061244957600061244c565b60015b60ff1660809092019190915250565b808260c001516000815181106123d8576123d8613c2e565b60006001826101c0015151101561248b57600061051c565b816101c001516000815181106124a3576124a3613c2e565b602002602001015192915050565b6124ba816125fe565b6001600160801b03166101009092019190915250565b60006002826101c001515110156124e857600061051c565b816101c001516001815181106124a3576124a3613c2e565b612509816125fe565b6001600160801b03166101609092019190915250565b600061252d60026001613883565b826101c00151511015801561051c57506000826101c0015160028151811061242e5761242e613c2e565b600081612565576000612568565b60015b610140909301805167fffffffffffffff01660ff94909416939093179092525050565b600061259960036001613883565b826101c00151511015801561051c57506000826101c0015160038151811061242e5761242e613c2e565b6000816125d15760006125d4565b60015b610140909301805167ffffffffffffff0f16610ff060049590951b94909416939093179092525050565b60006001600160801b03821115610b5e5760405162461bcd60e51b815260206004820152602760248201527f53616665436173743a2076616c756520646f65736e27742066697420696e20316044820152663238206269747360c81b606482015260840161066a565b60006126756012600a614095565b611e7660ff8416600a6140a4565b60006126d8826040518060400160405280602081526020017f5361666545524332303a206c6f772d6c6576656c2063616c6c206661696c6564815250856001600160a01b0316612b5b9092919063ffffffff16565b805190915015610c5657808060200190518101906126f69190613ad4565b610c565760405162461bcd60e51b815260206004820152602a60248201527f5361666545524332303a204552433230206f7065726174696f6e20646964206e6044820152691bdd081cdd58d8d9595960b21b606482015260840161066a565b60408101516000901561276a57506000919050565b606082015115156000036127cb578160800151156127cb57600061279d8360a0015161016001516001600160801b031690565b11156127ab57506000919050565b60a082015161014001516001600160401b0316156127cb57506000919050565b506001919050565b600060028260c00151511015801561051c575060008260c0015160018151811061242e5761242e613c2e565b81156128215780612811576000612814565b60015b60ff166080840152505050565b8061282d576000612830565b60015b60ff16610100840152505050565b600060018260c0015151101561285557600061051c565b8160c001516000815181106124a3576124a3613c2e565b60008181526001830160205260408120548015612955576000612890600183613f9e565b85549091506000906128a490600190613f9e565b90508181146129095760008660000182815481106128c4576128c4613c2e565b90600052602060002001549050808760000184815481106128e7576128e7613c2e565b6000918252602080832090910192909255918252600188019052604090208390555b855486908061291a5761291a6141ae565b60019003818190600052602060002001600090559055856001016000868152602001908152602001600020600090556001935050505061051c565b600091505061051c565b60008181526001830160205260408120546129a65750815460018181018455600084815260208082209093018490558454848252828601909352604090209190915561051c565b50600061051c565b606061051c6001600160a01b03831660145b606060006129cf8360026140b0565b6129da906002613883565b6001600160401b038111156129f1576129f1612d58565b6040519080825280601f01601f191660200182016040528015612a1b576020820181803683370190505b509050600360fc1b81600081518110612a3657612a36613c2e565b60200101906001600160f81b031916908160001a905350600f60fb1b81600181518110612a6557612a65613c2e565b60200101906001600160f81b031916908160001a9053506000612a898460026140b0565b612a94906001613883565b90505b6001811115612b0c576f181899199a1a9b1b9c1cb0b131b232b360811b85600f1660108110612ac857612ac8613c2e565b1a60f81b828281518110612ade57612ade613c2e565b60200101906001600160f81b031916908160001a90535060049490941c93612b05816141c4565b9050612a97565b508315611b975760405162461bcd60e51b815260206004820181905260248201527f537472696e67733a20686578206c656e67746820696e73756666696369656e74604482015260640161066a565b6060611dfb848460008585600080866001600160a01b03168587604051612b8291906141db565b60006040518083038185875af1925050503d8060008114612bbf576040519150601f19603f3d011682016040523d82523d6000602084013e612bc4565b606091505b5091509150612bd587838387612be0565b979650505050505050565b60608315612c4f578251600003612c48576001600160a01b0385163b612c485760405162461bcd60e51b815260206004820152601d60248201527f416464726573733a2063616c6c20746f206e6f6e2d636f6e7472616374000000604482015260640161066a565b5081611dfb565b611dfb8383815115612c645781518083602001fd5b8060405162461bcd60e51b815260040161066a919061419b565b6040805160e08101825260008082526020820181905291810182905260608101829052608081019190915260a08101612cb5612cc2565b8152602001606081525090565b604080516101a081018252600080825260208201819052918101829052606081018290526080810182905260a0810182905260c0810182905260e08101829052610100810182905261012081018290526101408101829052610160810182905261018081019190915290565b600060208284031215612d4057600080fd5b81356001600160e01b031981168114611b9757600080fd5b634e487b7160e01b600052604160045260246000fd5b6040516101e081016001600160401b0381118282101715612d9157612d91612d58565b60405290565b60405161018081016001600160401b0381118282101715612d9157612d91612d58565b60405160c081016001600160401b0381118282101715612d9157612d91612d58565b6040516101a081016001600160401b0381118282101715612d9157612d91612d58565b60405160a081016001600160401b0381118282101715612d9157612d91612d58565b60405160e081016001600160401b0381118282101715612d9157612d91612d58565b604051601f8201601f191681016001600160401b0381118282101715612e6b57612e6b612d58565b604052919050565b6001600160a01b038116811461078957600080fd5b803561227481612e73565b801515811461078957600080fd5b803561227481612e93565b60ff8116811461078957600080fd5b803561227481612eac565b80356001600160401b038116811461227457600080fd5b60006001600160401b03821115612ef657612ef6612d58565b5060051b60200190565b600082601f830112612f1157600080fd5b81356020612f26612f2183612edd565b612e43565b82815260059290921b84018101918181019086841115612f4557600080fd5b8286015b84811015612f605780358352918301918301612f49565b509695505050505050565b60006101e08284031215612f7e57600080fd5b612f86612d6e565b9050612f9182612e88565b8152612f9f60208301612ea1565b602082015260408201356040820152612fba60608301612ea1565b6060820152612fcb60808301612e88565b608082015260a082013560a082015260c082013560c082015260e082013560e0820152610100612ffc818401612ea1565b9082015261012061300e838201612ebb565b90820152610140613020838201612ec6565b90820152610160828101359082015261018080830135908201526101a0613048818401612ebb565b908201526101c0828101356001600160401b0381111561306757600080fd5b61307385828601612f00565b82840152505092915050565b60006020828403121561309157600080fd5b81356001600160401b038111156130a757600080fd5b611dfb84828501612f6b565b6000602082840312156130c557600080fd5b5035919050565b6000602082840312156130de57600080fd5b8135611b9781612e73565b600080604083850312156130fc57600080fd5b82359150602083013561310e81612e73565b809150509250929050565b803563ffffffff8116811461227457600080fd5b80356001600160d81b038116811461227457600080fd5b6000610180828403121561315757600080fd5b61315f612d97565b905061316a82612e88565b815261317860208301612ea1565b602082015261318960408301613119565b604082015261319a6060830161312d565b60608201526080820135608082015260a082013560a082015260c082013560c082015260e082013560e082015261010080830135818301525061012080830135818301525061014080830135818301525061016080830135818301525092915050565b60006020828403121561320f57600080fd5b81356001600160401b038082111561322657600080fd5b90830190610220828603121561323b57600080fd5b613243612dba565b82358281111561325257600080fd5b61325e87828601612f6b565b82525061326e8660208501613144565b60208201526101a08301358281111561328657600080fd5b61329287828601612f00565b6040830152506132a56101c08401612e88565b60608201526132b76101e08401612e88565b6080820152610200929092013560a0830152509392505050565b6000602082840312156132e357600080fd5b8135611b9781612e93565b600082601f8301126132ff57600080fd5b8135602061330f612f2183612edd565b82815260059290921b8401810191818101908684111561332e57600080fd5b8286015b84811015612f6057803561334581612e93565b8352918301918301613332565b6000806000806080858703121561336857600080fd5b84356001600160401b038082111561337f57600080fd5b818701915087601f83011261339357600080fd5b813560206133a3612f2183612edd565b82815260059290921b8401810191818101908b8411156133c257600080fd5b948201945b838610156133e95785356133da81612e73565b825294820194908201906133c7565b985050880135925050808211156133ff57600080fd5b61340b888389016132ee565b9450604087013591508082111561342157600080fd5b61342d88838901612f00565b9350606087013591508082111561344357600080fd5b50613450878288016132ee565b91505092959194509250565b803565ffffffffffff8116811461227457600080fd5b80356001600160801b038116811461227457600080fd5b60006101a0828403121561349c57600080fd5b6134a4612ddc565b90506134af82612ebb565b81526134bd60208301613119565b60208201526134ce60408301612ebb565b60408201526134df60608301612e88565b60608201526134f06080830161345c565b608082015261350160a08301613472565b60a082015261351260c08301613472565b60c082015261352360e08301613472565b60e0820152610100613536818401613472565b90820152610120613548838201612ec6565b9082015261014061355a838201612ec6565b9082015261016061356c838201613472565b818301525061018080830135818301525092915050565b600082601f83011261359457600080fd5b81356001600160401b038111156135ad576135ad612d58565b6135c0601f8201601f1916602001612e43565b8181528460208386010111156135d557600080fd5b816020850160208301376000918101602001919091529392505050565b60006020828403121561360457600080fd5b81356001600160401b038082111561361b57600080fd5b90830190610220828603121561363057600080fd5b613638612dff565b6136428684613489565b81526101a08301358281111561365757600080fd5b61366387828601612f6b565b6020830152506136766101c08401612ebb565b60408201526101e08301358281111561368e57600080fd5b61369a87828601613583565b60608301525061020092909201356080830152509392505050565b6000602082840312156136c757600080fd5b81356001600160401b03808211156136de57600080fd5b9083019061026082860312156136f357600080fd5b6136fb612e21565b61370483612e88565b815261371260208401612ea1565b60208201526040830135604082015261372d60608401612ea1565b606082015261373e60808401612ea1565b60808201526137508660a08501613489565b60a08201526102408301358281111561376857600080fd5b61377487828601612f00565b60c08301525095945050505050565b60008060006060848603121561379857600080fd5b83356137a381612e73565b925060208401356137b381612e73565b915060408401356137c381612e73565b809150509250925092565b600080604083850312156137e157600080fd5b82356137ec81612e73565b9150602083013561310e81612e73565b6020808252825182820181905260009190848201906040850190845b8181101561383d5783516001600160a01b031683529284019291840191600101613818565b50909695505050505050565b6000806040838503121561385c57600080fd5b505080516020909101519092909150565b634e487b7160e01b600052601160045260246000fd5b8082018082111561051c5761051c61386d565b6000600182016138a8576138a861386d565b5060010190565b6000602082840312156138c157600080fd5b8151611b9781612e73565b600081518084526020808501945080840160005b838110156138fc578151875295820195908201906001016138e0565b509495945050505050565b602081526139216020820183516001600160a01b03169052565b60006020830151613936604084018215159052565b50604083015160608301526060830151613954608084018215159052565b5060808301516001600160a01b03811660a08401525060a083015160c083015260c083015160e083015260e08301516101008181850152808501519150506101206139a28185018315159052565b84015190506101406139b88482018360ff169052565b84015190506101606139d4848201836001600160401b03169052565b840151610180848101919091528401516101a08085019190915284015190506101c0613a048185018360ff169052565b8401516101e0848101529050611dfb6102008401826138cc565b600060208284031215613a3057600080fd5b5051919050565b600060208284031215613a4957600080fd5b8151611b9781612eac565b81516001600160a01b031681526101408101602083015160208301526040830151613a83604084018215159052565b50606083015160608301526080830151608083015260a083015160a083015260c083015160c083015260e083015160e083015261010080840151818401525061012080840151818401525092915050565b600060208284031215613ae657600080fd5b8151611b9781612e93565b8082018281126000831280158216821582161715613b1157613b1161386d565b505092915050565b6020808252600e908201526d34b73b30b634b21039b2b73232b960911b604082015260600190565b6020808252600e908201526d1a5b9d985b1a59081b585c9ad95d60921b604082015260600190565b60006101808083018f845260208f818601528e60408601528d151560608601528c60808601528b60a08601528260c08601528192508a518083526101a086019350818c01925060005b81811015613bce57835185529382019392820192600101613bb2565b5050506001600160a01b03891660e08501525090506001600160a01b0386166101008301526001600160a01b03851661012083015260ff84166101408301526001600160401b0383166101608301529d9c50505050505050505050505050565b634e487b7160e01b600052603260045260246000fd5b600081518084526020808501945080840160005b838110156138fc578151151587529582019590820190600101613c58565b6001600160a01b0385168152608060208201819052600090613c9a90830186613c44565b8281036040840152613cac81866138cc565b90508281036060840152612bd58185613c44565b60005b83811015613cdb578181015183820152602001613cc3565b50506000910152565b60008151808452613cfc816020860160208601613cc0565b601f01601f19169290920160200192915050565b881515815287151560208201526001600160401b03871660408201526001600160a01b038616606082015260ff8516608082015261010060a08201819052600090613d5d83820187613ce4565b60c0840195909552505060e001529695505050505050565b600061026060018060a01b0383511684526020830151151560208501526040830151604085015260608301511515606085015260808301511515608085015260a0830151613dc960a08601825160ff169052565b602081015163ffffffff1660c0860152604081015160ff1660e086015260608101516001600160a01b0381166101008088019190915260808301519150610120613e1c8189018465ffffffffffff169052565b60a08401519250610140613e3a818a01856001600160801b03169052565b60c08501519350610160613e58818b01866001600160801b03169052565b60e08601519450610180613e76818c01876001600160801b03169052565b938601516001600160801b039081166101a08c0152928601516001600160401b039081166101c08c0152918601519091166101e08a015284015116610200880152909101516102208601525060c08301516102408501829052613edb828601826138cc565b95945050505050565b8d151581528c151560208201526001600160401b038c1660408201526001600160a01b038b16606082015260006101a06001600160801b038c1660808401526001600160801b038b1660a08401526001600160801b038a1660c084015288151560e08401528761010084015286610120840152613f6d6101408401876001600160801b03169052565b84151561016084015280610180840152613f8981840185613d75565b9150509e9d5050505050505050505050505050565b8181038181111561051c5761051c61386d565b600181815b80851115613fec578160001904821115613fd257613fd261386d565b80851615613fdf57918102915b93841c9390800290613fb6565b509250929050565b6000826140035750600161051c565b816140105750600061051c565b816001811461402657600281146140305761404c565b600191505061051c565b60ff8411156140415761404161386d565b50506001821b61051c565b5060208310610133831016604e8410600b841016171561406f575081810a61051c565b6140798383613fb1565b806000190482111561408d5761408d61386d565b029392505050565b6000611b9760ff841683613ff4565b6000611b978383613ff4565b808202811582820484141761051c5761051c61386d565b634e487b7160e01b600052601260045260246000fd5b6000826140ec576140ec6140c7565b500490565b602081526000611b976020830184613d75565b600060ff831680614117576141176140c7565b8060ff84160691505092915050565b7f416363657373436f6e74726f6c3a206163636f756e742000000000000000000081526000835161415e816017850160208801613cc0565b7001034b99036b4b9b9b4b733903937b6329607d1b601791840191820152835161418f816028840160208801613cc0565b01602801949350505050565b602081526000611b976020830184613ce4565b634e487b7160e01b600052603160045260246000fd5b6000816141d3576141d361386d565b506000190190565b600082516141ed818460208701613cc0565b919091019291505056fe8d1089725c0dc266707fa6207730fb801dcd03108bfed7a21099bd303651d2b7a264697066735822122096f34368bda9ca93deaaa2717b03f048ef8ce4433b355b3ca43b58fcf41ce5f564736f6c63430008110033",
  "linkReferences": {},
  "deployedLinkReferences": {}
}