{
  "_format": "hh-sol-artifact-1",
  "contractName": "OrderLiqStreamsUpkeep",
  "sourceName": "contracts/datastream/OrderLiqStreamsUpkeep.sol",
  "abi": [
    {
      "inputs": [
        {
          "internalType": "string",
          "name": "feedParamKey",
          "type": "string"
        },
        {
          "internalType": "string[]",
          "name": "feeds",
          "type": "string[]"
        },
        {
          "internalType": "string",
          "name": "timeParamKey",
          "type": "string"
        },
        {
          "internalType": "uint256",
          "name": "time",
          "type": "uint256"
        },
        {
          "internalType": "bytes",
          "name": "extraData",
          "type": "bytes"
        }
      ],
      "name": "StreamsLookup",
      "type": "error"
    },
    {
      "anonymous": false,
      "inputs": [
        {
          "indexed": false,
          "internalType": "uint8",
          "name": "version",
          "type": "uint8"
        }
      ],
      "name": "Initialized",
      "type": "event"
    },
    {
      "anonymous": false,
      "inputs": [
        {
          "indexed": true,
          "internalType": "bytes32",
          "name": "role",
          "type": "bytes32"
        },
        {
          "indexed": true,
          "internalType": "bytes32",
          "name": "previousAdminRole",
          "type": "bytes32"
        },
        {
          "indexed": true,
          "internalType": "bytes32",
          "name": "newAdminRole",
          "type": "bytes32"
        }
      ],
      "name": "RoleAdminChanged",
      "type": "event"
    },
    {
      "anonymous": false,
      "inputs": [
        {
          "indexed": true,
          "internalType": "bytes32",
          "name": "role",
          "type": "bytes32"
        },
        {
          "indexed": true,
          "internalType": "address",
          "name": "account",
          "type": "address"
        },
        {
          "indexed": true,
          "internalType": "address",
          "name": "sender",
          "type": "address"
        }
      ],
      "name": "RoleGranted",
      "type": "event"
    },
    {
      "anonymous": false,
      "inputs": [
        {
          "indexed": true,
          "internalType": "bytes32",
          "name": "role",
          "type": "bytes32"
        },
        {
          "indexed": true,
          "internalType": "address",
          "name": "account",
          "type": "address"
        },
        {
          "indexed": true,
          "internalType": "address",
          "name": "sender",
          "type": "address"
        }
      ],
      "name": "RoleRevoked",
      "type": "event"
    },
    {
      "anonymous": false,
      "inputs": [
        {
          "indexed": false,
          "internalType": "address",
          "name": "",
          "type": "address"
        }
      ],
      "name": "UDSTPrice",
      "type": "event"
    },
    {
      "anonymous": false,
      "inputs": [
        {
          "indexed": false,
          "internalType": "address",
          "name": "autoLiq",
          "type": "address"
        }
      ],
      "name": "UpdateAutoLiq",
      "type": "event"
    },
    {
      "anonymous": false,
      "inputs": [
        {
          "indexed": false,
          "internalType": "address",
          "name": "autoOrder",
          "type": "address"
        }
      ],
      "name": "UpdateAutoOrder",
      "type": "event"
    },
    {
      "anonymous": false,
      "inputs": [
        {
          "indexed": false,
          "internalType": "address",
          "name": "market",
          "type": "address"
        },
        {
          "indexed": false,
          "internalType": "string",
          "name": "feedId",
          "type": "string"
        }
      ],
      "name": "UpdateFeedId",
      "type": "event"
    },
    {
      "anonymous": false,
      "inputs": [
        {
          "indexed": false,
          "internalType": "address",
          "name": "source",
          "type": "address"
        },
        {
          "indexed": false,
          "internalType": "uint8",
          "name": "typee",
          "type": "uint8"
        }
      ],
      "name": "UpdateLogType",
      "type": "event"
    },
    {
      "anonymous": false,
      "inputs": [
        {
          "indexed": false,
          "internalType": "bool",
          "name": "b",
          "type": "bool"
        }
      ],
      "name": "UpdateShouldExec",
      "type": "event"
    },
    {
      "anonymous": false,
      "inputs": [
        {
          "indexed": false,
          "internalType": "address",
          "name": "market",
          "type": "address"
        },
        {
          "indexed": false,
          "internalType": "address",
          "name": "verifier",
          "type": "address"
        }
      ],
      "name": "UpdateVerifier",
      "type": "event"
    },
    {
      "inputs": [],
      "name": "DATASTREAMS_FEEDLABEL",
      "outputs": [
        {
          "internalType": "string",
          "name": "",
          "type": "string"
        }
      ],
      "stateMutability": "view",
      "type": "function"
    },
    {
      "inputs": [],
      "name": "DATASTREAMS_QUERYLABEL",
      "outputs": [
        {
          "internalType": "string",
          "name": "",
          "type": "string"
        }
      ],
      "stateMutability": "view",
      "type": "function"
    },
    {
      "inputs": [],
      "name": "DEFAULT_ADMIN_ROLE",
      "outputs": [
        {
          "internalType": "bytes32",
          "name": "",
          "type": "bytes32"
        }
      ],
      "stateMutability": "view",
      "type": "function"
    },
    {
      "inputs": [],
      "name": "autoLiq",
      "outputs": [
        {
          "internalType": "address",
          "name": "",
          "type": "address"
        }
      ],
      "stateMutability": "view",
      "type": "function"
    },
    {
      "inputs": [],
      "name": "autoOrder",
      "outputs": [
        {
          "internalType": "address",
          "name": "",
          "type": "address"
        }
      ],
      "stateMutability": "view",
      "type": "function"
    },
    {
      "inputs": [
        {
          "internalType": "bytes[]",
          "name": "signedReports",
          "type": "bytes[]"
        },
        {
          "internalType": "bytes",
          "name": "extraData",
          "type": "bytes"
        }
      ],
      "name": "checkCallback",
      "outputs": [
        {
          "internalType": "bool",
          "name": "upkeepNeeded",
          "type": "bool"
        },
        {
          "internalType": "bytes",
          "name": "performData",
          "type": "bytes"
        }
      ],
      "stateMutability": "view",
      "type": "function"
    },
    {
      "inputs": [
        {
          "internalType": "int192",
          "name": "priceOffChain",
          "type": "int192"
        },
        {
          "internalType": "address",
          "name": "market",
          "type": "address"
        }
      ],
      "name": "checkCallbackByPrice",
      "outputs": [
        {
          "internalType": "bool",
          "name": "upkeepNeeded",
          "type": "bool"
        },
        {
          "internalType": "bytes",
          "name": "performData",
          "type": "bytes"
        }
      ],
      "stateMutability": "view",
      "type": "function"
    },
    {
      "inputs": [
        {
          "internalType": "uint256",
          "name": "priceOffChain",
          "type": "uint256"
        },
        {
          "internalType": "address",
          "name": "market",
          "type": "address"
        }
      ],
      "name": "checkCallbackLiq",
      "outputs": [
        {
          "internalType": "bool",
          "name": "upkeepNeeded",
          "type": "bool"
        },
        {
          "internalType": "bytes",
          "name": "performData",
          "type": "bytes"
        }
      ],
      "stateMutability": "view",
      "type": "function"
    },
    {
      "inputs": [
        {
          "components": [
            {
              "internalType": "uint256",
              "name": "index",
              "type": "uint256"
            },
            {
              "internalType": "uint256",
              "name": "timestamp",
              "type": "uint256"
            },
            {
              "internalType": "bytes32",
              "name": "txHash",
              "type": "bytes32"
            },
            {
              "internalType": "uint256",
              "name": "blockNumber",
              "type": "uint256"
            },
            {
              "internalType": "bytes32",
              "name": "blockHash",
              "type": "bytes32"
            },
            {
              "internalType": "address",
              "name": "source",
              "type": "address"
            },
            {
              "internalType": "bytes32[]",
              "name": "topics",
              "type": "bytes32[]"
            },
            {
              "internalType": "bytes",
              "name": "data",
              "type": "bytes"
            }
          ],
          "internalType": "struct Log",
          "name": "log",
          "type": "tuple"
        },
        {
          "internalType": "bytes",
          "name": "checkData",
          "type": "bytes"
        }
      ],
      "name": "checkLog",
      "outputs": [
        {
          "internalType": "bool",
          "name": "",
          "type": "bool"
        },
        {
          "internalType": "bytes",
          "name": "",
          "type": "bytes"
        }
      ],
      "stateMutability": "nonpayable",
      "type": "function"
    },
    {
      "inputs": [
        {
          "internalType": "address",
          "name": "",
          "type": "address"
        }
      ],
      "name": "feedId",
      "outputs": [
        {
          "internalType": "string",
          "name": "",
          "type": "string"
        }
      ],
      "stateMutability": "view",
      "type": "function"
    },
    {
      "inputs": [
        {
          "internalType": "bytes32",
          "name": "role",
          "type": "bytes32"
        }
      ],
      "name": "getRoleAdmin",
      "outputs": [
        {
          "internalType": "bytes32",
          "name": "",
          "type": "bytes32"
        }
      ],
      "stateMutability": "view",
      "type": "function"
    },
    {
      "inputs": [
        {
          "internalType": "bytes32",
          "name": "role",
          "type": "bytes32"
        },
        {
          "internalType": "address",
          "name": "account",
          "type": "address"
        }
      ],
      "name": "grantRole",
      "outputs": [],
      "stateMutability": "nonpayable",
      "type": "function"
    },
    {
      "inputs": [
        {
          "internalType": "bytes32",
          "name": "role",
          "type": "bytes32"
        },
        {
          "internalType": "address",
          "name": "account",
          "type": "address"
        }
      ],
      "name": "hasRole",
      "outputs": [
        {
          "internalType": "bool",
          "name": "",
          "type": "bool"
        }
      ],
      "stateMutability": "view",
      "type": "function"
    },
    {
      "inputs": [
        {
          "internalType": "address[]",
          "name": "markets",
          "type": "address[]"
        },
        {
          "internalType": "address[]",
          "name": "verifiers",
          "type": "address[]"
        },
        {
          "internalType": "address[]",
          "name": "logTypeKey",
          "type": "address[]"
        },
        {
          "internalType": "uint256[]",
          "name": "logTypeVal",
          "type": "uint256[]"
        },
        {
          "internalType": "address[]",
          "name": "feedIdKey",
          "type": "address[]"
        },
        {
          "internalType": "string[]",
          "name": "feedIdVal",
          "type": "string[]"
        },
        {
          "internalType": "address",
          "name": "_autoLiq",
          "type": "address"
        },
        {
          "internalType": "address",
          "name": "_autoOrder",
          "type": "address"
        }
      ],
      "name": "initialize",
      "outputs": [],
      "stateMutability": "payable",
      "type": "function"
    },
    {
      "inputs": [
        {
          "internalType": "address",
          "name": "",
          "type": "address"
        }
      ],
      "name": "logType",
      "outputs": [
        {
          "internalType": "uint8",
          "name": "",
          "type": "uint8"
        }
      ],
      "stateMutability": "view",
      "type": "function"
    },
    {
      "inputs": [
        {
          "internalType": "address[]",
          "name": "markets",
          "type": "address[]"
        },
        {
          "internalType": "address[]",
          "name": "verifiers",
          "type": "address[]"
        },
        {
          "internalType": "address[]",
          "name": "logTypeKey",
          "type": "address[]"
        },
        {
          "internalType": "uint256[]",
          "name": "logTypeVal",
          "type": "uint256[]"
        },
        {
          "internalType": "address[]",
          "name": "feedIdKey",
          "type": "address[]"
        },
        {
          "internalType": "string[]",
          "name": "feedIdVal",
          "type": "string[]"
        },
        {
          "internalType": "address",
          "name": "_autoLiq",
          "type": "address"
        },
        {
          "internalType": "address",
          "name": "_autoOrder",
          "type": "address"
        }
      ],
      "name": "migrate",
      "outputs": [],
      "stateMutability": "nonpayable",
      "type": "function"
    },
    {
      "inputs": [
        {
          "internalType": "bytes",
          "name": "performData",
          "type": "bytes"
        }
      ],
      "name": "performUpkeep",
      "outputs": [],
      "stateMutability": "nonpayable",
      "type": "function"
    },
    {
      "inputs": [
        {
          "internalType": "bytes32",
          "name": "role",
          "type": "bytes32"
        },
        {
          "internalType": "address",
          "name": "account",
          "type": "address"
        }
      ],
      "name": "renounceRole",
      "outputs": [],
      "stateMutability": "nonpayable",
      "type": "function"
    },
    {
      "inputs": [
        {
          "internalType": "bytes32",
          "name": "role",
          "type": "bytes32"
        },
        {
          "internalType": "address",
          "name": "account",
          "type": "address"
        }
      ],
      "name": "revokeRole",
      "outputs": [],
      "stateMutability": "nonpayable",
      "type": "function"
    },
    {
      "inputs": [],
      "name": "sendETH",
      "outputs": [],
      "stateMutability": "payable",
      "type": "function"
    },
    {
      "inputs": [
        {
          "internalType": "address",
          "name": "_autoLiq",
          "type": "address"
        }
      ],
      "name": "setAutoLiq",
      "outputs": [],
      "stateMutability": "nonpayable",
      "type": "function"
    },
    {
      "inputs": [
        {
          "internalType": "address",
          "name": "_autoOrder",
          "type": "address"
        }
      ],
      "name": "setAutoOrder",
      "outputs": [],
      "stateMutability": "nonpayable",
      "type": "function"
    },
    {
      "inputs": [
        {
          "internalType": "address",
          "name": "market",
          "type": "address"
        },
        {
          "internalType": "string",
          "name": "fid",
          "type": "string"
        }
      ],
      "name": "setFeedId",
      "outputs": [],
      "stateMutability": "nonpayable",
      "type": "function"
    },
    {
      "inputs": [
        {
          "internalType": "address",
          "name": "source",
          "type": "address"
        },
        {
          "internalType": "uint8",
          "name": "_t",
          "type": "uint8"
        }
      ],
      "name": "setLogType",
      "outputs": [],
      "stateMutability": "nonpayable",
      "type": "function"
    },
    {
      "inputs": [
        {
          "internalType": "bool",
          "name": "b",
          "type": "bool"
        }
      ],
      "name": "setShouldExec",
      "outputs": [],
      "stateMutability": "nonpayable",
      "type": "function"
    },
    {
      "inputs": [
        {
          "internalType": "address",
          "name": "market",
          "type": "address"
        },
        {
          "internalType": "address",
          "name": "_verifier",
          "type": "address"
        }
      ],
      "name": "setVerifier",
      "outputs": [],
      "stateMutability": "nonpayable",
      "type": "function"
    },
    {
      "inputs": [],
      "name": "shouldExec",
      "outputs": [
        {
          "internalType": "bool",
          "name": "",
          "type": "bool"
        }
      ],
      "stateMutability": "view",
      "type": "function"
    },
    {
      "inputs": [
        {
          "internalType": "bytes4",
          "name": "interfaceId",
          "type": "bytes4"
        }
      ],
      "name": "supportsInterface",
      "outputs": [
        {
          "internalType": "bool",
          "name": "",
          "type": "bool"
        }
      ],
      "stateMutability": "view",
      "type": "function"
    },
    {
      "inputs": [
        {
          "internalType": "address",
          "name": "",
          "type": "address"
        }
      ],
      "name": "verifier",
      "outputs": [
        {
          "internalType": "contract IVerifierProxy",
          "name": "",
          "type": "address"
        }
      ],
      "stateMutability": "view",
      "type": "function"
    },
    {
      "inputs": [
        {
          "internalType": "address",
          "name": "token",
          "type": "address"
        },
        {
          "internalType": "address",
          "name": "receiver",
          "type": "address"
        },
        {
          "internalType": "uint256",
          "name": "amount",
          "type": "uint256"
        }
      ],
      "name": "withdraw",
      "outputs": [],
      "stateMutability": "nonpayable",
      "type": "function"
    },
    {
      "inputs": [
        {
          "internalType": "address",
          "name": "receiver",
          "type": "address"
        },
        {
          "internalType": "uint256",
          "name": "amount",
          "type": "uint256"
        }
      ],
      "name": "withdrawETH",
      "outputs": [],
      "stateMutability": "nonpayable",
      "type": "function"
    }
  ],
  "bytecode": "0x6080604052600480546001600160a01b031916737ce298ad682be6b8e74c2d3154a0ece3b2461a0b1790556005805474013ecd1eb4742823f4c9ea35504994764305ca32476001600160a81b031990911617905534801561005f57600080fd5b506154f38061006f6000396000f3fe6080604052600436106101d85760003560e01c806388ebd73211610102578063b95f4def11610095578063cd7978d711610064578063cd7978d7146105ca578063d285f6cc146105ea578063d547741f1461060a578063d9caed121461062a57600080fd5b8063b95f4def14610557578063c0ccbc9a1461056a578063ca42aeb71461058a578063ccad3c36146105aa57600080fd5b8063a217fddf116100d1578063a217fddf146104e7578063aa3ac435146104fc578063b4fbac761461051c578063b71624b51461053757600080fd5b806388ebd73214610445578063913810441461046557806391d14854146104855780639d2e151f146104a557600080fd5b806336568abe1161017a5780634782f779116101495780634782f779146103965780634b56a42e146103b65780635084faff146103d6578063809f3bc4146103f757600080fd5b806336568abe146103085780633ebb33e31461032857806340691db4146103485780634585e33b1461037657600080fd5b80631b83ca1e116101b65780631b83ca1e146102745780631d16d9a014610232578063248a9ca3146102a95780632f2ff15d146102e857600080fd5b806301ffc9a7146101dd57806305280e521461021257806308c9e24e14610234575b600080fd5b3480156101e957600080fd5b506101fd6101f8366004612eee565b61064a565b60405190151581526020015b60405180910390f35b34801561021e57600080fd5b5061023261022d366004612f3d565b610681565b005b34801561024057600080fd5b50610267604051806040016040528060078152602001666665656449447360c81b81525081565b6040516102099190612fc6565b34801561028057600080fd5b5061026760405180604001604052806009815260200168074696d657374616d760bc1b81525081565b3480156102b557600080fd5b506102da6102c4366004612fd9565b6000908152600160208190526040909120015490565b604051908152602001610209565b3480156102f457600080fd5b50610232610303366004612ff2565b6106f9565b34801561031457600080fd5b50610232610323366004612ff2565b610724565b34801561033457600080fd5b50610232610343366004613147565b6107a7565b34801561035457600080fd5b50610368610363366004613196565b610806565b6040516102099291906131f8565b34801561038257600080fd5b50610232610391366004613254565b610ac5565b3480156103a257600080fd5b506102326103b1366004613295565b610cd2565b3480156103c257600080fd5b506103686103d13660046132c1565b610d19565b3480156103e257600080fd5b506005546101fd90600160a01b900460ff1681565b34801561040357600080fd5b5061042d61041236600461335a565b6006602052600090815260409020546001600160a01b031681565b6040516001600160a01b039091168152602001610209565b34801561045157600080fd5b50610368610460366004612ff2565b610f7a565b34801561047157600080fd5b50610232610480366004613385565b610fa8565b34801561049157600080fd5b506101fd6104a0366004612ff2565b61100c565b3480156104b157600080fd5b506104d56104c036600461335a565b60036020526000908152604090205460ff1681565b60405160ff9091168152602001610209565b3480156104f357600080fd5b506102da600081565b34801561050857600080fd5b5061023261051736600461335a565b611037565b34801561052857600080fd5b506103686104603660046133b1565b34801561054357600080fd5b5060045461042d906001600160a01b031681565b61023261056536600461353b565b611090565b34801561057657600080fd5b5060055461042d906001600160a01b031681565b34801561059657600080fd5b506102326105a536600461366c565b6111bb565b3480156105b657600080fd5b506102326105c536600461335a565b611223565b3480156105d657600080fd5b506102676105e536600461335a565b61127c565b3480156105f657600080fd5b5061023261060536600461353b565b611316565b34801561061657600080fd5b50610232610625366004612ff2565b611331565b34801561063657600080fd5b5061023261064536600461369a565b611357565b60006001600160e01b03198216637965db0b60e01b148061067b57506301ffc9a760e01b6001600160e01b03198316145b92915050565b600061068c81611376565b6001600160a01b0383811660008181526006602090815260409182902080546001600160a01b031916948716948517905581519283528201929092527f728af3d16a5760405e27a082c98ab272e9f0a1d02f0085d41532a26093aedd9691015b60405180910390a1505050565b6000828152600160208190526040909120015461071581611376565b61071f8383611383565b505050565b6001600160a01b03811633146107995760405162461bcd60e51b815260206004820152602f60248201527f416363657373436f6e74726f6c3a2063616e206f6e6c792072656e6f756e636560448201526e103937b632b9903337b91039b2b63360891b60648201526084015b60405180910390fd5b6107a382826113ee565b5050565b60006107b281611376565b6001600160a01b03831660009081526002602052604090206107d48382613763565b507fa28e06d35a7354da560e7919800babeab57392253cd034d21627a239dbced00083836040516106ec929190613822565b604080516060818101835260008083526020830181905292820181905290838060200190518101906108389190613846565b6001600160a01b03168082526040805163344b6f7960e21b8152905163d12dbde4916004808201926020929091908290030181865afa15801561087f573d6000803e3d6000fd5b505050506040513d601f19601f820116820180604052508101906108a39190613846565b6001600160a01b03166108bc60c0870160a0880161335a565b6001600160a01b0316036108d6576003602082015261090d565b600360006108ea60c0880160a0890161335a565b6001600160a01b031681526020808201929092526040016000205460ff16908201525b604080516001808252818301909252600091816020015b606081526020019060019003908161092457505082516001600160a01b03166000908152600260205260409020805491925090610960906136db565b80601f016020809104026020016040519081016040528092919081815260200182805461098c906136db565b80156109d95780601f106109ae576101008083540402835291602001916109d9565b820191906000526020600020905b8154815290600101906020018083116109bc57829003601f168201915b5050505050816000815181106109f1576109f161386e565b6020908102919091010152610a0960e0870187613884565b8080601f0160208091040260200160405190810160405280939291908181526020018383808284376000920191909152505050506040808401919091528051808201825260078152666665656449447360c81b602080830191909152825180840184526009815268074696d657374616d760bc1b8183015292519192849290918a81013591610a9a918891016138ca565b60408051601f198184030181529082905263782af25160e11b82526107909594939291600401613904565b600080808080610ad7868801886139a5565b94509450945094509450600085600081518110610af657610af661386e565b6020908102919091018101516001600160a01b03808816600090815260069093526040832054919350610b2b91849116611455565b905060021960ff861601610c5257600554600160a01b900460ff1615610c4357600084806020019051810190610b619190613acf565b9050610b6c87611800565b6001600160a01b031663fcb51252886001600160a01b031663e7d015f26040518163ffffffff1660e01b8152600401602060405180830381865afa158015610bb8573d6000803e3d6000fd5b505050506040513d601f19601f82011682018060405250810190610bdc9190613846565b610be68a866118c5565b856040015163ffffffff16856040518563ffffffff1660e01b8152600401610c119493929190613c49565b600060405180830381600087803b158015610c2b57600080fd5b505af1925050508015610c3c575060015b5050610cc7565b610c4d86826119bb565b610cc7565b610c5c86826119bb565b600554600160a01b900460ff1615610cc757604051634585e33b60e01b81526001600160a01b03841690634585e33b90610c9a908790600401612fc6565b600060405180830381600087803b158015610cb457600080fd5b505af1925050508015610cc5575060015b505b505050505050505050565b6000610cdd81611376565b6040516001600160a01b0384169083156108fc029084906000818181858888f19350505050158015610d13573d6000803e3d6000fd5b50505050565b600060606000610d8187876000818110610d3557610d3561386e565b9050602002810190610d479190613884565b8080601f016020809104026020016040519081016040528093929190818152602001838380828437600092019190915250611b3792505050565b806020019051810190610d949190613ca1565b90506000610da485870187613d4b565b905060606000600360ff16836020015160ff1603610ee85760008360400151806020019051810190610dd69190613f89565b9050610de181611b5b565b96508615610ee257604080516001808252818301909252600091816020015b6040805160a081018252600080825260208083018290529282018190526060820181905260808201528252600019909201910181610e005790505090506040518060a0016040528083600001516001600160a01b031681526020018360a00151606001516001600160a01b031681526020018360a0015161012001516001600160401b031681526020018360600151151581526020018360200151151581525081600081518110610eb357610eb361386e565b602002602001018190525080604051602001610ecf9190614057565b6040516020818303038152906040529350505b50610f3d565b5060045460c084015183516001600160a01b0390921691610f099190611b96565b909650915085610f2f57610f258460c001518460000151611e64565b9096509150610f3d565b506005546001600160a01b03165b8251602080850151604051610f5c938e938e9391928891889101614093565b60405160208183030381529060405294505050505094509492505050565b60006060610f888484611b96565b909250905081610fa157610f9c8484611e64565b915091505b9250929050565b6000610fb381611376565b60058054831515600160a01b0260ff60a01b199091161790556040517f8879dc734190d71ccd856371617c2026576288a91926b1deebe793dd031a3d339061100090841515815260200190565b60405180910390a15050565b60009182526001602090815260408084206001600160a01b0393909316845291905290205460ff1690565b600061104281611376565b600480546001600160a01b0319166001600160a01b0384169081179091556040519081527fc7cd41fa4a5b4a34395495016a635ab28e75e5590c02cc91e9e7dfebe58e4b3390602001611000565b600054610100900460ff16158080156110b05750600054600160ff909116105b806110ca5750303b1580156110ca575060005460ff166001145b61112d5760405162461bcd60e51b815260206004820152602e60248201527f496e697469616c697a61626c653a20636f6e747261637420697320616c72656160448201526d191e481a5b9a5d1a585b1a5e995960921b6064820152608401610790565b6000805460ff191660011790558015611150576000805461ff0019166101001790555b61115b600033611383565b61116b89898989898989896120c3565b8015610cc7576000805461ff0019169055604051600181527f7f26b83ff96e1f2b6a682f133852f6798a09c465da95921460cefb38474024989060200160405180910390a1505050505050505050565b60006111c681611376565b6001600160a01b038316600081815260036020908152604091829020805460ff191660ff87169081179091558251938452908301527ff4c08ab273c970067b2eaf78cdef52958a36c883b60d987e50f1e2dad95fc5f591016106ec565b600061122e81611376565b600580546001600160a01b0319166001600160a01b0384169081179091556040519081527fc7cd41fa4a5b4a34395495016a635ab28e75e5590c02cc91e9e7dfebe58e4b3390602001611000565b60026020526000908152604090208054611295906136db565b80601f01602080910402602001604051908101604052809291908181526020018280546112c1906136db565b801561130e5780601f106112e35761010080835404028352916020019161130e565b820191906000526020600020905b8154815290600101906020018083116112f157829003601f168201915b505050505081565b600061132181611376565b610cc789898989898989896120c3565b6000828152600160208190526040909120015461134d81611376565b61071f83836113ee565b600061136281611376565b610d136001600160a01b0385168484612521565b6113808133612573565b50565b61138d828261100c565b6107a35760008281526001602081815260408084206001600160a01b0386168086529252808420805460ff19169093179092559051339285917f2f8788117e7eff1d82e926ec794901d17c78024a50270940304540a733656f0d9190a45050565b6113f8828261100c565b156107a35760008281526001602090815260408083206001600160a01b0385168085529252808320805460ff1916905551339285917ff6391f5c32d9c69d2a47ea670b442974b53935d1edc7fd64eb21e047a839171b9190a45050565b6040805160e081018252600080825260208201819052918101829052606081018290526080810182905260a0810182905260c08101919091526000838060200190518101906114a4919061421a565b9150506000836001600160a01b03166338416b5b6040518163ffffffff1660e01b8152600401602060405180830381865afa1580156114e7573d6000803e3d6000fd5b505050506040513d601f19601f8201168201806040525081019061150b9190613846565b90506000816001600160a01b0316633aa5ac076040518163ffffffff1660e01b8152600401602060405180830381865afa15801561154d573d6000803e3d6000fd5b505050506040513d601f19601f820116820180604052508101906115719190613846565b90506000826001600160a01b031663ea4b861b6040518163ffffffff1660e01b8152600401602060405180830381865afa1580156115b3573d6000803e3d6000fd5b505050506040513d601f19601f820116820180604052508101906115d79190613846565b90506000836001600160a01b031663e03dab1a3087856040518463ffffffff1660e01b815260040161160b9392919061425e565b60a0604051808303816000875af115801561162a573d6000803e3d6000fd5b505050506040513d601f19601f8201168201806040525081019061164e91906142ed565b505060208101516040516370a0823160e01b8152306004820152919250906001600160a01b038416906370a0823190602401602060405180830381865afa15801561169d573d6000803e3d6000fd5b505050506040513d601f19601f820116820180604052508101906116c1919061432b565b10156116d157505050505061067b565b602081015160405163095ea7b360e01b81526001600160a01b03858116600483015260248201929092529083169063095ea7b3906044016020604051808303816000875af1158015611727573d6000803e3d6000fd5b505050506040513d601f19601f8201168201806040525081019061174b9190614344565b50604080516001600160a01b03848116602083015289169163f7e83aee918b91016040516020818303038152906040526040518363ffffffff1660e01b8152600401611798929190614361565b6000604051808303816000875af19250505080156117d857506040513d6000823e601f3d908101601f191682016040526117d59190810190614386565b60015b156117f557808060200190518101906117f19190613ca1565b9650505b505050505092915050565b6000816001600160a01b031663741bef1a6040518163ffffffff1660e01b8152600401602060405180830381865afa158015611840573d6000803e3d6000fd5b505050506040513d601f19601f820116820180604052508101906118649190613846565b6001600160a01b0316633a849c216040518163ffffffff1660e01b8152600401602060405180830381865afa1580156118a1573d6000803e3d6000fd5b505050506040513d601f19601f8201168201806040525081019061067b9190613846565b60408051600180825281830190925260009182919060208083019080368337019050509050836001600160a01b031663e7d015f26040518163ffffffff1660e01b8152600401602060405180830381865afa158015611928573d6000803e3d6000fd5b505050506040513d601f19601f8201168201806040525081019061194c9190613846565b8160008151811061195f5761195f61386e565b6001600160a01b0392909216602092830291909101909101526040805160018082528183019092526000918160200160208202803683370190505090506119b2856119ad8660c001516125cc565b6125e6565b95945050505050565b60408051600180825281830190925260009160208083019080368337019050509050826001600160a01b031663e7d015f26040518163ffffffff1660e01b8152600401602060405180830381865afa158015611a1b573d6000803e3d6000fd5b505050506040513d601f19601f82011682018060405250810190611a3f9190613846565b81600081518110611a5257611a5261386e565b6001600160a01b039290921660209283029190910190910152604080516001808252818301909252600091816020016020820280368337019050509050611aa0846119ad8560c001516125cc565b81600081518110611ab357611ab361386e565b602002602001018181525050611ac884611800565b6001600160a01b031663782661bc8383866040015163ffffffff166040518463ffffffff1660e01b8152600401611b01939291906143f3565b600060405180830381600087803b158015611b1b57600080fd5b505af1925050508015611b2c575060015b15610d135750505050565b6060600082806020019051810190611b4f9190614453565b50919695505050505050565b600060028260c00151511015801561067b575060008260c00151600181518110611b8757611b8761386e565b60200260200101511192915050565b6000606060005b6002811015611e5c5760005b6002811015611e49576000611bc187878486146127c0565b9050600083600114611c3457866001600160a01b03166305ba9ae96040518163ffffffff1660e01b8152600401602060405180830381865afa158015611c0b573d6000803e3d6000fd5b505050506040513d601f19601f82011682018060405250810190611c2f9190613846565b611c96565b866001600160a01b0316637b2fd1e56040518163ffffffff1660e01b8152600401602060405180830381865afa158015611c72573d6000803e3d6000fd5b505050506040513d601f19601f82011682018060405250810190611c969190613846565b6040516314d102a960e01b81526000600482015261270f6024820152600185146044820152606481018490526001600160a01b0391909116906314d102a990608401600060405180830381865afa158015611cf5573d6000803e3d6000fd5b505050506040513d6000823e601f3d908101601f19168201604052611d1d91908101906144f6565b805190915015611e34576040805160018082528183019092526000916020808301908036833701905050905081600081518110611d5c57611d5c61386e565b60200260200101516060015182600081518110611d7b57611d7b61386e565b60200260200101516101200151604051602001611dc392919060609290921b6bffffffffffffffffffffffff1916825260c01b6001600160c01b0319166014820152601c0190565b6040516020818303038152906040528051906020012081600081518110611dec57611dec61386e565b602002602001018181525050600188866001148660011484604051602001611e179493929190614584565b604051602081830303815290604052965096505050505050610fa1565b50508080611e4190614604565b915050611ba9565b5080611e5481614604565b915050611b9d565b509250929050565b6040805160008082526001602080840182815260608086018752939593949386939192908501908036833701905050905060005b60028110156120b9576000866001600160a01b031663ac0b05a66040518163ffffffff1660e01b8152600401602060405180830381865afa158015611ee1573d6000803e3d6000fd5b505050506040513d601f19601f82011682018060405250810190611f059190613846565b604051638dd3fde360e01b81526000600482015261270f60248201526001841460448201526001600160a01b039190911690638dd3fde390606401600060405180830381865afa158015611f5d573d6000803e3d6000fd5b505050506040513d6000823e601f3d908101601f19168201604052611f85919081019061461d565b90506000611f95898985156127c0565b905060005b82518110156120a3576000611fcd848381518110611fba57611fba61386e565b60200260200101518b87600114866128d5565b9050801561209057838281518110611fe757611fe761386e565b6020026020010151866000815181106120025761200261386e565b60200260200101906001600160a01b031690816001600160a01b031681525050846001036120605760018a8789604051602001612041939291906146ab565b6040516020818303038152906040529850985050505050505050610fa1565b60018a888685815181106120765761207661386e565b6020026020010151604051602001612041939291906146e1565b508061209b81614604565b915050611f9a565b50505080806120b190614604565b915050611e98565b5050509250929050565b84518651146120d157600080fd5b82518451146120df57600080fd5b86518851146120ed57600080fd5b60005b88518110156122075787818151811061210b5761210b61386e565b6020026020010151600660008b84815181106121295761212961386e565b60200260200101516001600160a01b03166001600160a01b0316815260200190815260200160002060006101000a8154816001600160a01b0302191690836001600160a01b031602179055507f728af3d16a5760405e27a082c98ab272e9f0a1d02f0085d41532a26093aedd968982815181106121a8576121a861386e565b60200260200101518983815181106121c2576121c261386e565b60200260200101516040516121ed9291906001600160a01b0392831681529116602082015260400190565b60405180910390a1806121ff81614604565b9150506120f0565b5060005b8651811015612318578581815181106122265761222661386e565b6020026020010151600360008984815181106122445761224461386e565b60200260200101516001600160a01b03166001600160a01b0316815260200190815260200160002060006101000a81548160ff021916908360ff1602179055507ff4c08ab273c970067b2eaf78cdef52958a36c883b60d987e50f1e2dad95fc5f58782815181106122b7576122b761386e565b60200260200101518783815181106122d1576122d161386e565b60200260200101516040516122fe9291906001600160a01b0392909216825260ff16602082015260400190565b60405180910390a18061231081614604565b91505061220b565b5060005b8451811015612407578381815181106123375761233761386e565b6020026020010151600260008784815181106123555761235561386e565b60200260200101516001600160a01b03166001600160a01b0316815260200190815260200160002090816123899190613763565b507fa28e06d35a7354da560e7919800babeab57392253cd034d21627a239dbced0008582815181106123bd576123bd61386e565b60200260200101518583815181106123d7576123d761386e565b60200260200101516040516123ed929190613822565b60405180910390a1806123ff81614604565b91505061231c565b506001600160a01b0382166124645760405161242290612ee1565b604051809103906000f08015801561243e573d6000803e3d6000fd5b50600480546001600160a01b0319166001600160a01b0392909216919091179055612480565b600480546001600160a01b0319166001600160a01b0384161790555b600580546001600160a01b0319166001600160a01b0383811691909117909155600454604051911681527fc7cd41fa4a5b4a34395495016a635ab28e75e5590c02cc91e9e7dfebe58e4b339060200160405180910390a16005546040516001600160a01b0390911681527f625e1b8683fb2a45abc6d9d0d7cbdfce643aaa7da0b45daa6cd2af08581452ab9060200160405180910390a15050505050505050565b604080516001600160a01b038416602482015260448082018490528251808303909101815260649091019091526020810180516001600160e01b031663a9059cbb60e01b17905261071f908490612a43565b61257d828261100c565b6107a35761258a81612b15565b612595836020612b27565b6040516020016125a6929190614703565b60408051601f198184030181529082905262461bcd60e51b825261079091600401612fc6565b600061067b6001600160c01b03831664e8d4a51000614778565b6000806125f284612cc9565b6001600160a01b031663c54e44eb6040518163ffffffff1660e01b8152600401602060405180830381865afa15801561262f573d6000803e3d6000fd5b505050506040513d601f19601f820116820180604052508101906126539190613846565b9050600061266085612cc9565b604051634ee5a88d60e11b81526001600160a01b0384811660048301529190911690639dcb511a90602401602060405180830381865afa1580156126a8573d6000803e3d6000fd5b505050506040513d601f19601f820116820180604052508101906126cc9190613846565b90506000816001600160a01b03166350d25bcd6040518163ffffffff1660e01b8152600401602060405180830381865afa15801561270e573d6000803e3d6000fd5b505050506040513d601f19601f82011682018060405250810190612732919061432b565b905080826001600160a01b031663313ce5676040518163ffffffff1660e01b8152600401602060405180830381865afa158015612773573d6000803e3d6000fd5b505050506040513d601f19601f820116820180604052508101906127979190614797565b6127a290600a614890565b6127ac9087614778565b6127b6919061489f565b9695505050505050565b60006127cf836119ad866125cc565b905060006127dc84612cc9565b6001600160a01b03166376d69760856001600160a01b031663e7d015f26040518163ffffffff1660e01b8152600401602060405180830381865afa158015612828573d6000803e3d6000fd5b505050506040513d601f19601f8201168201806040525081019061284c9190613846565b6040516001600160e01b031960e084901b1681526001600160a01b0390911660048201528515156024820152604401602060405180830381865afa158015612898573d6000803e3d6000fd5b505050506040513d601f19601f820116820180604052508101906128bc919061432b565b9050808210831515036128cd578091505b509392505050565b60006128e084612d11565b6001600160a01b0316631f21756a868686886001600160a01b031663ac0b05a66040518163ffffffff1660e01b8152600401602060405180830381865afa15801561292f573d6000803e3d6000fd5b505050506040513d601f19601f820116820180604052508101906129539190613846565b896001600160a01b031663f29ebf616040518163ffffffff1660e01b8152600401602060405180830381865afa158015612991573d6000803e3d6000fd5b505050506040513d601f19601f820116820180604052508101906129b59190613846565b60405160e087901b6001600160e01b03191681526001600160a01b0395861660048201529385166024850152911515604484015283166064830152909116608482015260a4810185905260c401602060405180830381865afa158015612a1f573d6000803e3d6000fd5b505050506040513d601f19601f820116820180604052508101906119b2919061432b565b6000612a98826040518060400160405280602081526020017f5361666545524332303a206c6f772d6c6576656c2063616c6c206661696c6564815250856001600160a01b0316612d519092919063ffffffff16565b80519091501561071f5780806020019051810190612ab69190614344565b61071f5760405162461bcd60e51b815260206004820152602a60248201527f5361666545524332303a204552433230206f7065726174696f6e20646964206e6044820152691bdd081cdd58d8d9595960b21b6064820152608401610790565b606061067b6001600160a01b03831660145b60606000612b36836002614778565b612b419060026148c1565b6001600160401b03811115612b5857612b58613017565b6040519080825280601f01601f191660200182016040528015612b82576020820181803683370190505b509050600360fc1b81600081518110612b9d57612b9d61386e565b60200101906001600160f81b031916908160001a905350600f60fb1b81600181518110612bcc57612bcc61386e565b60200101906001600160f81b031916908160001a9053506000612bf0846002614778565b612bfb9060016148c1565b90505b6001811115612c73576f181899199a1a9b1b9c1cb0b131b232b360811b85600f1660108110612c2f57612c2f61386e565b1a60f81b828281518110612c4557612c4561386e565b60200101906001600160f81b031916908160001a90535060049490941c93612c6c816148d4565b9050612bfe565b508315612cc25760405162461bcd60e51b815260206004820181905260248201527f537472696e67733a20686578206c656e67746820696e73756666696369656e746044820152606401610790565b9392505050565b6000612cd482611800565b6001600160a01b031663add37b7b6040518163ffffffff1660e01b8152600401602060405180830381865afa1580156118a1573d6000803e3d6000fd5b6000816001600160a01b031663b894300d6040518163ffffffff1660e01b8152600401602060405180830381865afa1580156118a1573d6000803e3d6000fd5b6060612d608484600085612d68565b949350505050565b606082471015612dc95760405162461bcd60e51b815260206004820152602660248201527f416464726573733a20696e73756666696369656e742062616c616e636520666f6044820152651c8818d85b1b60d21b6064820152608401610790565b600080866001600160a01b03168587604051612de591906148eb565b60006040518083038185875af1925050503d8060008114612e22576040519150601f19603f3d011682016040523d82523d6000602084013e612e27565b606091505b5091509150612e3887838387612e43565b979650505050505050565b60608315612eb2578251600003612eab576001600160a01b0385163b612eab5760405162461bcd60e51b815260206004820152601d60248201527f416464726573733a2063616c6c20746f206e6f6e2d636f6e74726163740000006044820152606401610790565b5081612d60565b612d608383815115612ec75781518083602001fd5b8060405162461bcd60e51b81526004016107909190612fc6565b610bb68061490883390190565b600060208284031215612f0057600080fd5b81356001600160e01b031981168114612cc257600080fd5b6001600160a01b038116811461138057600080fd5b8035612f3881612f18565b919050565b60008060408385031215612f5057600080fd5b8235612f5b81612f18565b91506020830135612f6b81612f18565b809150509250929050565b60005b83811015612f91578181015183820152602001612f79565b50506000910152565b60008151808452612fb2816020860160208601612f76565b601f01601f19169290920160200192915050565b602081526000612cc26020830184612f9a565b600060208284031215612feb57600080fd5b5035919050565b6000806040838503121561300557600080fd5b823591506020830135612f6b81612f18565b634e487b7160e01b600052604160045260246000fd5b60405160a081016001600160401b038111828210171561304f5761304f613017565b60405290565b6040516101a081016001600160401b038111828210171561304f5761304f613017565b60405160e081016001600160401b038111828210171561304f5761304f613017565b604051601f8201601f191681016001600160401b03811182821017156130c2576130c2613017565b604052919050565b60006001600160401b038211156130e3576130e3613017565b50601f01601f191660200190565b600082601f83011261310257600080fd5b8135613115613110826130ca565b61309a565b81815284602083860101111561312a57600080fd5b816020850160208301376000918101602001919091529392505050565b6000806040838503121561315a57600080fd5b823561316581612f18565b915060208301356001600160401b0381111561318057600080fd5b61318c858286016130f1565b9150509250929050565b600080604083850312156131a957600080fd5b82356001600160401b03808211156131c057600080fd5b9084019061010082870312156131d557600080fd5b909250602084013590808211156131eb57600080fd5b5061318c858286016130f1565b8215158152604060208201526000612d606040830184612f9a565b60008083601f84011261322557600080fd5b5081356001600160401b0381111561323c57600080fd5b602083019150836020828501011115610fa157600080fd5b6000806020838503121561326757600080fd5b82356001600160401b0381111561327d57600080fd5b61328985828601613213565b90969095509350505050565b600080604083850312156132a857600080fd5b82356132b381612f18565b946020939093013593505050565b600080600080604085870312156132d757600080fd5b84356001600160401b03808211156132ee57600080fd5b818701915087601f83011261330257600080fd5b81358181111561331157600080fd5b8860208260051b850101111561332657600080fd5b60209283019650945090860135908082111561334157600080fd5b5061334e87828801613213565b95989497509550505050565b60006020828403121561336c57600080fd5b8135612cc281612f18565b801515811461138057600080fd5b60006020828403121561339757600080fd5b8135612cc281613377565b8060170b811461138057600080fd5b600080604083850312156133c457600080fd5b8235612f5b816133a2565b60006001600160401b038211156133e8576133e8613017565b5060051b60200190565b600082601f83011261340357600080fd5b81356020613413613110836133cf565b82815260059290921b8401810191818101908684111561343257600080fd5b8286015b8481101561345657803561344981612f18565b8352918301918301613436565b509695505050505050565b600082601f83011261347257600080fd5b81356020613482613110836133cf565b82815260059290921b840181019181810190868411156134a157600080fd5b8286015b8481101561345657803583529183019183016134a5565b600082601f8301126134cd57600080fd5b813560206134dd613110836133cf565b82815260059290921b840181019181810190868411156134fc57600080fd5b8286015b848110156134565780356001600160401b0381111561351f5760008081fd5b61352d8986838b01016130f1565b845250918301918301613500565b600080600080600080600080610100898b03121561355857600080fd5b88356001600160401b038082111561356f57600080fd5b61357b8c838d016133f2565b995060208b013591508082111561359157600080fd5b61359d8c838d016133f2565b985060408b01359150808211156135b357600080fd5b6135bf8c838d016133f2565b975060608b01359150808211156135d557600080fd5b6135e18c838d01613461565b965060808b01359150808211156135f757600080fd5b6136038c838d016133f2565b955060a08b013591508082111561361957600080fd5b506136268b828c016134bc565b93505061363560c08a01612f2d565b915061364360e08a01612f2d565b90509295985092959890939650565b60ff8116811461138057600080fd5b8035612f3881613652565b6000806040838503121561367f57600080fd5b823561368a81612f18565b91506020830135612f6b81613652565b6000806000606084860312156136af57600080fd5b83356136ba81612f18565b925060208401356136ca81612f18565b929592945050506040919091013590565b600181811c908216806136ef57607f821691505b60208210810361370f57634e487b7160e01b600052602260045260246000fd5b50919050565b601f82111561071f57600081815260208120601f850160051c8101602086101561373c5750805b601f850160051c820191505b8181101561375b57828155600101613748565b505050505050565b81516001600160401b0381111561377c5761377c613017565b6137908161378a84546136db565b84613715565b602080601f8311600181146137c557600084156137ad5750858301515b600019600386901b1c1916600185901b17855561375b565b600085815260208120601f198616915b828110156137f4578886015182559484019460019091019084016137d5565b50858210156138125787850151600019600388901b60f8161c191681555b5050505050600190811b01905550565b6001600160a01b0383168152604060208201819052600090612d6090830184612f9a565b60006020828403121561385857600080fd5b8151612cc281612f18565b8051612f3881612f18565b634e487b7160e01b600052603260045260246000fd5b6000808335601e1984360301811261389b57600080fd5b8301803591506001600160401b038211156138b557600080fd5b602001915036819003821315610fa157600080fd5b6020815260018060a01b03825116602082015260ff602083015116604082015260006040830151606080840152612d606080840182612f9a565b60a08152600061391760a0830188612f9a565b6020838203818501528188518084528284019150828160051b850101838b0160005b8381101561396757601f19878403018552613955838351612f9a565b94860194925090850190600101613939565b5050868103604088015261397b818b612f9a565b94505050505084606084015282810360808401526139998185612f9a565b98975050505050505050565b600080600080600060a086880312156139bd57600080fd5b85356001600160401b03808211156139d457600080fd5b818801915088601f8301126139e857600080fd5b813560206139f8613110836133cf565b82815260059290921b8401810191818101908c841115613a1757600080fd5b8286015b84811015613a4f57803586811115613a335760008081fd5b613a418f86838b01016130f1565b845250918301918301613a1b565b509950613a5f90508a8201612f2d565b97505050613a6f60408901613661565b94506060880135915080821115613a8557600080fd5b50613a92888289016130f1565b925050613aa160808701612f2d565b90509295509295909350565b80516001600160401b0381168114612f3857600080fd5b8051612f3881613377565b60006020808385031215613ae257600080fd5b82516001600160401b03811115613af857600080fd5b8301601f81018513613b0957600080fd5b8051613b17613110826133cf565b81815260a09182028301840191848201919088841115613b3657600080fd5b938501935b83851015613bbf5780858a031215613b535760008081fd5b613b5b61302d565b8551613b6681612f18565b815285870151613b7581612f18565b818801526040613b86878201613aad565b90820152606086810151613b9981613377565b90820152608086810151613bac81613377565b9082015283529384019391850191613b3b565b50979650505050505050565b600081518084526020808501945080840160005b83811015613c3e57815180516001600160a01b0390811689528482015116848901526040808201516001600160401b03169089015260608082015115159089015260809081015115159088015260a09096019590820190600101613bdf565b509495945050505050565b60018060a01b03851681528360208201528260408201526080606082015260006127b66080830184613bcb565b805163ffffffff81168114612f3857600080fd5b80516001600160c01b0381168114612f3857600080fd5b600060e08284031215613cb357600080fd5b60405160e081018181106001600160401b0382111715613cd557613cd5613017565b60405282518152613ce860208401613c76565b6020820152613cf960408401613c76565b6040820152613d0a60608401613c8a565b6060820152613d1b60808401613c8a565b6080820152613d2c60a08401613c76565b60a082015260c0830151613d3f816133a2565b60c08201529392505050565b600060208284031215613d5d57600080fd5b81356001600160401b0380821115613d7457600080fd5b9083019060608286031215613d8857600080fd5b604051606081018181108382111715613da357613da3613017565b6040528235613db181612f18565b81526020830135613dc181613652565b6020820152604083013582811115613dd857600080fd5b613de4878286016130f1565b60408301525095945050505050565b8051612f3881613652565b805165ffffffffffff81168114612f3857600080fd5b80516fffffffffffffffffffffffffffffffff81168114612f3857600080fd5b60006101a08284031215613e4757600080fd5b613e4f613055565b9050613e5a82613df3565b8152613e6860208301613c76565b6020820152613e7960408301613df3565b6040820152613e8a60608301613863565b6060820152613e9b60808301613dfe565b6080820152613eac60a08301613e14565b60a0820152613ebd60c08301613e14565b60c0820152613ece60e08301613e14565b60e0820152610100613ee1818401613e14565b90820152610120613ef3838201613aad565b90820152610140613f05838201613aad565b90820152610160613f17838201613e14565b818301525061018080830151818301525092915050565b600082601f830112613f3f57600080fd5b81516020613f4f613110836133cf565b82815260059290921b84018101918181019086841115613f6e57600080fd5b8286015b848110156134565780518352918301918301613f72565b600060208284031215613f9b57600080fd5b81516001600160401b0380821115613fb257600080fd5b908301906102608286031215613fc757600080fd5b613fcf613078565b613fd883613863565b8152613fe660208401613ac4565b60208201526040830151604082015261400160608401613ac4565b606082015261401260808401613ac4565b60808201526140248660a08501613e34565b60a08201526102408301518281111561403c57600080fd5b61404887828601613f2e565b60c08301525095945050505050565b602081526000612cc26020830184613bcb565b81835281816020850137506000828201602090810191909152601f909101601f19169091010190565b60a08082528101869052600060c0600588901b8301810190830189835b8a8110156141235785840360bf190183528135368d9003601e190181126140d657600080fd5b8c0160208181019135906001600160401b038211156140f457600080fd5b81360383131561410357600080fd5b61410e87838561406a565b965094850194939093019250506001016140b0565b5050506001600160a01b038716602084015260ff8616604084015282810360608401526141508186612f9a565b915050612e3860808301846001600160a01b03169052565b600082601f83011261417957600080fd5b604051606081018181106001600160401b038211171561419b5761419b613017565b6040528060608401858111156141b057600080fd5b845b818110156141ca5780518352602092830192016141b2565b509195945050505050565b600082601f8301126141e657600080fd5b81516141f4613110826130ca565b81815284602083860101111561420957600080fd5b612d60826020830160208701612f76565b6000806080838503121561422d57600080fd5b6142378484614168565b915060608301516001600160401b0381111561425257600080fd5b61318c858286016141d5565b600060018060a01b038086168352606060208401526142806060840186612f9a565b9150808416604084015250949350505050565b6000604082840312156142a557600080fd5b604051604081018181106001600160401b03821117156142c7576142c7613017565b806040525080915082516142da81612f18565b8152602092830151920191909152919050565b600080600060a0848603121561430257600080fd5b61430c8585614293565b925061431b8560408601614293565b9150608084015190509250925092565b60006020828403121561433d57600080fd5b5051919050565b60006020828403121561435657600080fd5b8151612cc281613377565b6040815260006143746040830185612f9a565b82810360208401526119b28185612f9a565b60006020828403121561439857600080fd5b81516001600160401b038111156143ae57600080fd5b612d60848285016141d5565b600081518084526020808501945080840160005b83811015613c3e5781516001600160a01b0316875295820195908201906001016143ce565b60608152600061440660608301866143ba565b82810360208481019190915285518083528682019282019060005b8181101561443d57845183529383019391830191600101614421565b5050809350505050826040830152949350505050565b600080600080600060e0868803121561446b57600080fd5b6144758787614168565b945060608601516001600160401b038082111561449157600080fd5b61449d89838a016141d5565b955060808801519150808211156144b357600080fd5b6144bf89838a01613f2e565b945060a08801519150808211156144d557600080fd5b506144e288828901613f2e565b92505060c086015190509295509295909350565b6000602080838503121561450957600080fd5b82516001600160401b0381111561451f57600080fd5b8301601f8101851361453057600080fd5b805161453e613110826133cf565b8181526101a0918202830184019184820191908884111561455e57600080fd5b938501935b83851015613bbf576145758986613e34565b83529384019391850191614563565b6001600160a01b0385168152831515602080830191909152831515604083015260806060830181905283519083018190526000918481019160a0850190845b818110156145df578451835293830193918301916001016145c3565b50909998505050505050505050565b634e487b7160e01b600052601160045260246000fd5b600060018201614616576146166145ee565b5060010190565b6000602080838503121561463057600080fd5b82516001600160401b0381111561464657600080fd5b8301601f8101851361465757600080fd5b8051614665613110826133cf565b81815260059190911b8201830190838101908783111561468457600080fd5b928401925b82841015612e3857835161469c81612f18565b82529284019290840190614689565b6001600160a01b03841681526060602082018190526000906146cf908301856143ba565b82810360408401526127b681856143ba565b600060018060a01b0380861683526060602084015261428060608401866143ba565b7f416363657373436f6e74726f6c3a206163636f756e742000000000000000000081526000835161473b816017850160208801612f76565b7001034b99036b4b9b9b4b733903937b6329607d1b601791840191820152835161476c816028840160208801612f76565b01602801949350505050565b6000816000190483118215151615614792576147926145ee565b500290565b6000602082840312156147a957600080fd5b8151612cc281613652565b600181815b80851115611e5c5781600019048211156147d5576147d56145ee565b808516156147e257918102915b93841c93908002906147b9565b6000826147fe5750600161067b565b8161480b5750600061067b565b8160018114614821576002811461482b57614847565b600191505061067b565b60ff84111561483c5761483c6145ee565b50506001821b61067b565b5060208310610133831016604e8410600b841016171561486a575081810a61067b565b61487483836147b4565b8060001904821115614888576148886145ee565b029392505050565b6000612cc260ff8416836147ef565b6000826148bc57634e487b7160e01b600052601260045260246000fd5b500490565b8082018082111561067b5761067b6145ee565b6000816148e3576148e36145ee565b506000190190565b600082516148fd818460208701612f76565b919091019291505056fe608060405234801561001057600080fd5b50610b96806100206000396000f3fe608060405234801561001057600080fd5b50600436106100365760003560e01c80634585e33b1461003b5780636e04ff0d14610050575b600080fd5b61004e6100493660046107e1565b61007a565b005b61006361005e3660046107e1565b610172565b604051610071929190610876565b60405180910390f35b600080600083806020019051810190610093919061096f565b925092509250600082511115610104576040516212ec5d60e81b81526001600160a01b038416906312ec5d00906100d1908590600190600401610a2a565b600060405180830381600087803b1580156100eb57600080fd5b505af11580156100ff573d6000803e3d6000fd5b505050505b80511561016c576040516212ec5d60e81b81526001600160a01b038416906312ec5d0090610139908490600090600401610a2a565b600060405180830381600087803b15801561015357600080fd5b505af1158015610167573d6000803e3d6000fd5b505050505b50505050565b6000606060008380602001905181019061018c9190610a4e565b9050600061019b8260016101ff565b905060006101aa8360006101ff565b9050805182516101ba9190610a88565b6000036101cd5760009450505050915091565b60018383836040516020016101e493929190610a9b565b60405160208183030381529060405294509450505050915091565b60606000836001600160a01b031663ac0b05a66040518163ffffffff1660e01b8152600401602060405180830381865afa158015610241573d6000803e3d6000fd5b505050506040513d601f19601f820116820180604052508101906102659190610a4e565b604051638dd3fde360e01b81526000600482015261270f602482015284151560448201526001600160a01b039190911690638dd3fde390606401600060405180830381865afa1580156102bc573d6000803e3d6000fd5b505050506040513d6000823e601f3d908101601f191682016040526102e49190810190610adb565b90506000815167ffffffffffffffff8111156103025761030261079a565b60405190808252806020026020018201604052801561032b578160200160208202803683370190505b5090506000805b835181101561059c576000876001600160a01b031663b894300d6040518163ffffffff1660e01b8152600401602060405180830381865afa15801561037b573d6000803e3d6000fd5b505050506040513d601f19601f8201168201806040525081019061039f9190610a4e565b6001600160a01b0316631f21756a8684815181106103bf576103bf610b18565b60200260200101518a8a8c6001600160a01b031663ac0b05a66040518163ffffffff1660e01b8152600401602060405180830381865afa158015610407573d6000803e3d6000fd5b505050506040513d601f19601f8201168201806040525081019061042b9190610a4e565b8d6001600160a01b031663f29ebf616040518163ffffffff1660e01b8152600401602060405180830381865afa158015610469573d6000803e3d6000fd5b505050506040513d601f19601f8201168201806040525081019061048d9190610a4e565b6104978f8f61064e565b60405160e088901b6001600160e01b03191681526001600160a01b039687166004820152948616602486015292151560448501529084166064840152909216608482015260a481019190915260c401602060405180830381865afa158015610503573d6000803e3d6000fd5b505050506040513d601f19601f820116820180604052508101906105279190610b2e565b905080600003610537575061058a565b84828151811061054957610549610b18565b602002602001015184848151811061056357610563610b18565b6001600160a01b03909216602092830291909101909101528261058581610b47565b935050505b8061059481610b47565b915050610332565b8167ffffffffffffffff8111156105b5576105b561079a565b6040519080825280602002602001820160405280156105de578160200160208202803683370190505b509450600090505b818110156106445782818151811061060057610600610b18565b602002602001015185828151811061061a5761061a610b18565b6001600160a01b03909216602092830291909101909101528061063c81610b47565b9150506105e6565b5050505092915050565b6000826001600160a01b031663741bef1a6040518163ffffffff1660e01b8152600401602060405180830381865afa15801561068e573d6000803e3d6000fd5b505050506040513d601f19601f820116820180604052508101906106b29190610a4e565b6001600160a01b03166376d69760846001600160a01b031663e7d015f26040518163ffffffff1660e01b8152600401602060405180830381865afa1580156106fe573d6000803e3d6000fd5b505050506040513d601f19601f820116820180604052508101906107229190610a4e565b6040516001600160e01b031960e084901b1681526001600160a01b03909116600482015284156024820152604401602060405180830381865afa15801561076d573d6000803e3d6000fd5b505050506040513d601f19601f820116820180604052508101906107919190610b2e565b90505b92915050565b634e487b7160e01b600052604160045260246000fd5b604051601f8201601f1916810167ffffffffffffffff811182821017156107d9576107d961079a565b604052919050565b600060208083850312156107f457600080fd5b823567ffffffffffffffff8082111561080c57600080fd5b818501915085601f83011261082057600080fd5b8135818111156108325761083261079a565b610844601f8201601f191685016107b0565b9150808252868482850101111561085a57600080fd5b8084840185840137600090820190930192909252509392505050565b821515815260006020604081840152835180604085015260005b818110156108ac57858101830151858201606001528201610890565b506000606082860101526060601f19601f830116850101925050509392505050565b6001600160a01b03811681146108e357600080fd5b50565b600082601f8301126108f757600080fd5b8151602067ffffffffffffffff8211156109135761091361079a565b8160051b6109228282016107b0565b928352848101820192828101908785111561093c57600080fd5b83870192505b84831015610964578251610955816108ce565b82529183019190830190610942565b979650505050505050565b60008060006060848603121561098457600080fd5b835161098f816108ce565b602085015190935067ffffffffffffffff808211156109ad57600080fd5b6109b9878388016108e6565b935060408601519150808211156109cf57600080fd5b506109dc868287016108e6565b9150509250925092565b600081518084526020808501945080840160005b83811015610a1f5781516001600160a01b0316875295820195908201906001016109fa565b509495945050505050565b604081526000610a3d60408301856109e6565b905082151560208301529392505050565b600060208284031215610a6057600080fd5b8151610a6b816108ce565b9392505050565b634e487b7160e01b600052601160045260246000fd5b8082018082111561079457610794610a72565b6001600160a01b0384168152606060208201819052600090610abf908301856109e6565b8281036040840152610ad181856109e6565b9695505050505050565b600060208284031215610aed57600080fd5b815167ffffffffffffffff811115610b0457600080fd5b610b10848285016108e6565b949350505050565b634e487b7160e01b600052603260045260246000fd5b600060208284031215610b4057600080fd5b5051919050565b600060018201610b5957610b59610a72565b506001019056fea26469706673582212200af44722c73043c0707365c918fdef0a07a27f8cd281868d029802152e983ed464736f6c63430008100033a2646970667358221220f331950fcd8da92cfba874459b7931ab1338031be0b140324441ac8942acd63564736f6c63430008100033",
  "linkReferences": {},
  "deployedLinkReferences": {}
}