{
  "_format": "hh-sol-artifact-1",
  "contractName": "Referral",
  "sourceName": "contracts/referral/Referral.sol",
  "abi": [
    {
      "anonymous": false,
      "inputs": [
        {
          "indexed": false,
          "internalType": "address",
          "name": "account",
          "type": "address"
        },
        {
          "indexed": false,
          "internalType": "uint256",
          "name": "sizeDelta",
          "type": "uint256"
        },
        {
          "indexed": false,
          "internalType": "uint256",
          "name": "marginFeeBasisPoints",
          "type": "uint256"
        },
        {
          "indexed": false,
          "internalType": "bytes32",
          "name": "referralCode",
          "type": "bytes32"
        },
        {
          "indexed": false,
          "internalType": "address",
          "name": "referrer",
          "type": "address"
        }
      ],
      "name": "DecreasePositionReferral",
      "type": "event"
    },
    {
      "anonymous": false,
      "inputs": [
        {
          "indexed": false,
          "internalType": "bytes32",
          "name": "code",
          "type": "bytes32"
        },
        {
          "indexed": false,
          "internalType": "address",
          "name": "newAccount",
          "type": "address"
        }
      ],
      "name": "GovSetCodeOwner",
      "type": "event"
    },
    {
      "anonymous": false,
      "inputs": [
        {
          "indexed": false,
          "internalType": "address",
          "name": "account",
          "type": "address"
        },
        {
          "indexed": false,
          "internalType": "uint256",
          "name": "sizeDelta",
          "type": "uint256"
        },
        {
          "indexed": false,
          "internalType": "uint256",
          "name": "marginFeeBasisPoints",
          "type": "uint256"
        },
        {
          "indexed": false,
          "internalType": "bytes32",
          "name": "referralCode",
          "type": "bytes32"
        },
        {
          "indexed": false,
          "internalType": "address",
          "name": "referrer",
          "type": "address"
        }
      ],
      "name": "IncreasePositionReferral",
      "type": "event"
    },
    {
      "anonymous": false,
      "inputs": [
        {
          "indexed": false,
          "internalType": "uint8",
          "name": "version",
          "type": "uint8"
        }
      ],
      "name": "Initialized",
      "type": "event"
    },
    {
      "anonymous": false,
      "inputs": [
        {
          "indexed": true,
          "internalType": "address",
          "name": "previousOwner",
          "type": "address"
        },
        {
          "indexed": true,
          "internalType": "address",
          "name": "newOwner",
          "type": "address"
        }
      ],
      "name": "OwnershipTransferred",
      "type": "event"
    },
    {
      "anonymous": false,
      "inputs": [
        {
          "indexed": false,
          "internalType": "address",
          "name": "account",
          "type": "address"
        },
        {
          "indexed": false,
          "internalType": "bytes32",
          "name": "code",
          "type": "bytes32"
        }
      ],
      "name": "RegisterCode",
      "type": "event"
    },
    {
      "anonymous": false,
      "inputs": [
        {
          "indexed": true,
          "internalType": "bytes32",
          "name": "role",
          "type": "bytes32"
        },
        {
          "indexed": true,
          "internalType": "bytes32",
          "name": "previousAdminRole",
          "type": "bytes32"
        },
        {
          "indexed": true,
          "internalType": "bytes32",
          "name": "newAdminRole",
          "type": "bytes32"
        }
      ],
      "name": "RoleAdminChanged",
      "type": "event"
    },
    {
      "anonymous": false,
      "inputs": [
        {
          "indexed": true,
          "internalType": "bytes32",
          "name": "role",
          "type": "bytes32"
        },
        {
          "indexed": true,
          "internalType": "address",
          "name": "account",
          "type": "address"
        },
        {
          "indexed": true,
          "internalType": "address",
          "name": "sender",
          "type": "address"
        }
      ],
      "name": "RoleGranted",
      "type": "event"
    },
    {
      "anonymous": false,
      "inputs": [
        {
          "indexed": true,
          "internalType": "bytes32",
          "name": "role",
          "type": "bytes32"
        },
        {
          "indexed": true,
          "internalType": "address",
          "name": "account",
          "type": "address"
        },
        {
          "indexed": true,
          "internalType": "address",
          "name": "sender",
          "type": "address"
        }
      ],
      "name": "RoleRevoked",
      "type": "event"
    },
    {
      "anonymous": false,
      "inputs": [
        {
          "indexed": false,
          "internalType": "address",
          "name": "account",
          "type": "address"
        },
        {
          "indexed": false,
          "internalType": "address",
          "name": "newAccount",
          "type": "address"
        },
        {
          "indexed": false,
          "internalType": "bytes32",
          "name": "code",
          "type": "bytes32"
        }
      ],
      "name": "SetCodeOwner",
      "type": "event"
    },
    {
      "anonymous": false,
      "inputs": [
        {
          "indexed": false,
          "internalType": "address",
          "name": "referrer",
          "type": "address"
        },
        {
          "indexed": false,
          "internalType": "uint256",
          "name": "discountShare",
          "type": "uint256"
        }
      ],
      "name": "SetReferrerDiscountShare",
      "type": "event"
    },
    {
      "anonymous": false,
      "inputs": [
        {
          "indexed": false,
          "internalType": "address",
          "name": "referrer",
          "type": "address"
        },
        {
          "indexed": false,
          "internalType": "uint256",
          "name": "tierId",
          "type": "uint256"
        }
      ],
      "name": "SetReferrerTier",
      "type": "event"
    },
    {
      "anonymous": false,
      "inputs": [
        {
          "indexed": false,
          "internalType": "uint256",
          "name": "tierId",
          "type": "uint256"
        },
        {
          "indexed": false,
          "internalType": "uint256",
          "name": "totalRebate",
          "type": "uint256"
        },
        {
          "indexed": false,
          "internalType": "uint256",
          "name": "discountShare",
          "type": "uint256"
        }
      ],
      "name": "SetTier",
      "type": "event"
    },
    {
      "anonymous": false,
      "inputs": [
        {
          "indexed": false,
          "internalType": "address",
          "name": "account",
          "type": "address"
        },
        {
          "indexed": false,
          "internalType": "bytes32",
          "name": "code",
          "type": "bytes32"
        }
      ],
      "name": "SetTraderReferralCode",
      "type": "event"
    },
    {
      "inputs": [],
      "name": "BASIS_POINTS",
      "outputs": [
        {
          "internalType": "uint256",
          "name": "",
          "type": "uint256"
        }
      ],
      "stateMutability": "view",
      "type": "function"
    },
    {
      "inputs": [],
      "name": "DEFAULT_ADMIN_ROLE",
      "outputs": [
        {
          "internalType": "bytes32",
          "name": "",
          "type": "bytes32"
        }
      ],
      "stateMutability": "view",
      "type": "function"
    },
    {
      "inputs": [],
      "name": "DEFAULT_CODE",
      "outputs": [
        {
          "internalType": "bytes32",
          "name": "",
          "type": "bytes32"
        }
      ],
      "stateMutability": "view",
      "type": "function"
    },
    {
      "inputs": [
        {
          "internalType": "bytes32",
          "name": "",
          "type": "bytes32"
        }
      ],
      "name": "codeOwners",
      "outputs": [
        {
          "internalType": "address",
          "name": "",
          "type": "address"
        }
      ],
      "stateMutability": "view",
      "type": "function"
    },
    {
      "inputs": [
        {
          "internalType": "bytes32[]",
          "name": "_codes",
          "type": "bytes32[]"
        }
      ],
      "name": "getCodeOwners",
      "outputs": [
        {
          "internalType": "address[]",
          "name": "",
          "type": "address[]"
        }
      ],
      "stateMutability": "view",
      "type": "function"
    },
    {
      "inputs": [],
      "name": "getHooksCalls",
      "outputs": [
        {
          "components": [
            {
              "internalType": "bool",
              "name": "updatePosition",
              "type": "bool"
            },
            {
              "internalType": "bool",
              "name": "updateOrder",
              "type": "bool"
            },
            {
              "internalType": "bool",
              "name": "deleteOrder",
              "type": "bool"
            }
          ],
          "internalType": "struct MarketCallBackIntl.Calls",
          "name": "",
          "type": "tuple"
        }
      ],
      "stateMutability": "pure",
      "type": "function"
    },
    {
      "inputs": [
        {
          "internalType": "bytes32",
          "name": "role",
          "type": "bytes32"
        }
      ],
      "name": "getRoleAdmin",
      "outputs": [
        {
          "internalType": "bytes32",
          "name": "",
          "type": "bytes32"
        }
      ],
      "stateMutability": "view",
      "type": "function"
    },
    {
      "inputs": [
        {
          "internalType": "address",
          "name": "_account",
          "type": "address"
        }
      ],
      "name": "getTraderReferralInfo",
      "outputs": [
        {
          "internalType": "bytes32",
          "name": "",
          "type": "bytes32"
        },
        {
          "internalType": "address",
          "name": "",
          "type": "address"
        }
      ],
      "stateMutability": "view",
      "type": "function"
    },
    {
      "inputs": [
        {
          "internalType": "bytes32",
          "name": "_code",
          "type": "bytes32"
        },
        {
          "internalType": "address",
          "name": "_newAccount",
          "type": "address"
        }
      ],
      "name": "govSetCodeOwner",
      "outputs": [],
      "stateMutability": "nonpayable",
      "type": "function"
    },
    {
      "inputs": [
        {
          "internalType": "bytes32",
          "name": "role",
          "type": "bytes32"
        },
        {
          "internalType": "address",
          "name": "account",
          "type": "address"
        }
      ],
      "name": "grantAndRevoke",
      "outputs": [],
      "stateMutability": "nonpayable",
      "type": "function"
    },
    {
      "inputs": [
        {
          "internalType": "address",
          "name": "_account",
          "type": "address"
        }
      ],
      "name": "grantControllerRoleByMarketManager",
      "outputs": [],
      "stateMutability": "nonpayable",
      "type": "function"
    },
    {
      "inputs": [
        {
          "internalType": "bytes32",
          "name": "role",
          "type": "bytes32"
        },
        {
          "internalType": "address",
          "name": "account",
          "type": "address"
        }
      ],
      "name": "grantRole",
      "outputs": [],
      "stateMutability": "nonpayable",
      "type": "function"
    },
    {
      "inputs": [
        {
          "internalType": "bytes32",
          "name": "role",
          "type": "bytes32"
        },
        {
          "internalType": "address",
          "name": "account",
          "type": "address"
        }
      ],
      "name": "hasRole",
      "outputs": [
        {
          "internalType": "bool",
          "name": "",
          "type": "bool"
        }
      ],
      "stateMutability": "view",
      "type": "function"
    },
    {
      "inputs": [],
      "name": "initialize",
      "outputs": [],
      "stateMutability": "nonpayable",
      "type": "function"
    },
    {
      "inputs": [],
      "name": "owner",
      "outputs": [
        {
          "internalType": "address",
          "name": "",
          "type": "address"
        }
      ],
      "stateMutability": "view",
      "type": "function"
    },
    {
      "inputs": [
        {
          "internalType": "address",
          "name": "",
          "type": "address"
        }
      ],
      "name": "referrerDiscountShares",
      "outputs": [
        {
          "internalType": "uint256",
          "name": "",
          "type": "uint256"
        }
      ],
      "stateMutability": "view",
      "type": "function"
    },
    {
      "inputs": [
        {
          "internalType": "address",
          "name": "",
          "type": "address"
        }
      ],
      "name": "referrerTiers",
      "outputs": [
        {
          "internalType": "uint256",
          "name": "",
          "type": "uint256"
        }
      ],
      "stateMutability": "view",
      "type": "function"
    },
    {
      "inputs": [
        {
          "internalType": "bytes32",
          "name": "_code",
          "type": "bytes32"
        }
      ],
      "name": "registerCode",
      "outputs": [],
      "stateMutability": "nonpayable",
      "type": "function"
    },
    {
      "inputs": [],
      "name": "renounceOwnership",
      "outputs": [],
      "stateMutability": "nonpayable",
      "type": "function"
    },
    {
      "inputs": [
        {
          "internalType": "bytes32",
          "name": "role",
          "type": "bytes32"
        },
        {
          "internalType": "address",
          "name": "account",
          "type": "address"
        }
      ],
      "name": "renounceRole",
      "outputs": [],
      "stateMutability": "nonpayable",
      "type": "function"
    },
    {
      "inputs": [
        {
          "internalType": "bytes32",
          "name": "role",
          "type": "bytes32"
        },
        {
          "internalType": "address",
          "name": "account",
          "type": "address"
        }
      ],
      "name": "revokeRole",
      "outputs": [],
      "stateMutability": "nonpayable",
      "type": "function"
    },
    {
      "inputs": [
        {
          "internalType": "bytes32",
          "name": "_code",
          "type": "bytes32"
        },
        {
          "internalType": "address",
          "name": "_newAccount",
          "type": "address"
        }
      ],
      "name": "setCodeOwner",
      "outputs": [],
      "stateMutability": "nonpayable",
      "type": "function"
    },
    {
      "inputs": [
        {
          "internalType": "address",
          "name": "_account",
          "type": "address"
        },
        {
          "internalType": "uint256",
          "name": "_discountShare",
          "type": "uint256"
        }
      ],
      "name": "setReferrerDiscountShare",
      "outputs": [],
      "stateMutability": "nonpayable",
      "type": "function"
    },
    {
      "inputs": [
        {
          "internalType": "address",
          "name": "_referrer",
          "type": "address"
        },
        {
          "internalType": "uint256",
          "name": "_tierId",
          "type": "uint256"
        }
      ],
      "name": "setReferrerTier",
      "outputs": [],
      "stateMutability": "nonpayable",
      "type": "function"
    },
    {
      "inputs": [
        {
          "internalType": "uint256",
          "name": "_tierId",
          "type": "uint256"
        },
        {
          "internalType": "uint256",
          "name": "_totalRebate",
          "type": "uint256"
        },
        {
          "internalType": "uint256",
          "name": "_discountShare",
          "type": "uint256"
        }
      ],
      "name": "setTier",
      "outputs": [],
      "stateMutability": "nonpayable",
      "type": "function"
    },
    {
      "inputs": [
        {
          "internalType": "address",
          "name": "_account",
          "type": "address"
        },
        {
          "internalType": "bytes32",
          "name": "_code",
          "type": "bytes32"
        }
      ],
      "name": "setTraderReferralCode",
      "outputs": [],
      "stateMutability": "nonpayable",
      "type": "function"
    },
    {
      "inputs": [
        {
          "internalType": "bytes32",
          "name": "_code",
          "type": "bytes32"
        }
      ],
      "name": "setTraderReferralCodeByUser",
      "outputs": [],
      "stateMutability": "nonpayable",
      "type": "function"
    },
    {
      "inputs": [
        {
          "internalType": "bytes4",
          "name": "interfaceId",
          "type": "bytes4"
        }
      ],
      "name": "supportsInterface",
      "outputs": [
        {
          "internalType": "bool",
          "name": "",
          "type": "bool"
        }
      ],
      "stateMutability": "view",
      "type": "function"
    },
    {
      "inputs": [
        {
          "internalType": "uint256",
          "name": "",
          "type": "uint256"
        }
      ],
      "name": "tiers",
      "outputs": [
        {
          "internalType": "uint256",
          "name": "totalRebate",
          "type": "uint256"
        },
        {
          "internalType": "uint256",
          "name": "discountShare",
          "type": "uint256"
        }
      ],
      "stateMutability": "view",
      "type": "function"
    },
    {
      "inputs": [
        {
          "internalType": "address",
          "name": "",
          "type": "address"
        }
      ],
      "name": "traderReferralCodes",
      "outputs": [
        {
          "internalType": "bytes32",
          "name": "",
          "type": "bytes32"
        }
      ],
      "stateMutability": "view",
      "type": "function"
    },
    {
      "inputs": [
        {
          "internalType": "address",
          "name": "to",
          "type": "address"
        }
      ],
      "name": "transferAdmin",
      "outputs": [],
      "stateMutability": "nonpayable",
      "type": "function"
    },
    {
      "inputs": [
        {
          "internalType": "address",
          "name": "newOwner",
          "type": "address"
        }
      ],
      "name": "transferOwnership",
      "outputs": [],
      "stateMutability": "nonpayable",
      "type": "function"
    },
    {
      "inputs": [
        {
          "components": [
            {
              "components": [
                {
                  "internalType": "address",
                  "name": "_market",
                  "type": "address"
                },
                {
                  "internalType": "bool",
                  "name": "_isLong",
                  "type": "bool"
                },
                {
                  "internalType": "uint256",
                  "name": "_oraclePrice",
                  "type": "uint256"
                },
                {
                  "internalType": "bool",
                  "name": "isOpen",
                  "type": "bool"
                },
                {
                  "internalType": "address",
                  "name": "_account",
                  "type": "address"
                },
                {
                  "internalType": "uint256",
                  "name": "_sizeDelta",
                  "type": "uint256"
                },
                {
                  "internalType": "uint256",
                  "name": "_price",
                  "type": "uint256"
                },
                {
                  "internalType": "uint256",
                  "name": "_slippage",
                  "type": "uint256"
                },
                {
                  "internalType": "bool",
                  "name": "_isExec",
                  "type": "bool"
                },
                {
                  "internalType": "uint8",
                  "name": "liqState",
                  "type": "uint8"
                },
                {
                  "internalType": "uint64",
                  "name": "_fromOrder",
                  "type": "uint64"
                },
                {
                  "internalType": "bytes32",
                  "name": "_refCode",
                  "type": "bytes32"
                },
                {
                  "internalType": "uint256",
                  "name": "collateralDelta",
                  "type": "uint256"
                },
                {
                  "internalType": "uint8",
                  "name": "execNum",
                  "type": "uint8"
                },
                {
                  "internalType": "uint256[]",
                  "name": "inputs",
                  "type": "uint256[]"
                }
              ],
              "internalType": "struct MarketDataTypes.UpdatePositionInputs",
              "name": "inputs",
              "type": "tuple"
            },
            {
              "components": [
                {
                  "internalType": "address",
                  "name": "market",
                  "type": "address"
                },
                {
                  "internalType": "bool",
                  "name": "isLong",
                  "type": "bool"
                },
                {
                  "internalType": "uint32",
                  "name": "lastTime",
                  "type": "uint32"
                },
                {
                  "internalType": "uint216",
                  "name": "extra3",
                  "type": "uint216"
                },
                {
                  "internalType": "uint256",
                  "name": "size",
                  "type": "uint256"
                },
                {
                  "internalType": "uint256",
                  "name": "collateral",
                  "type": "uint256"
                },
                {
                  "internalType": "uint256",
                  "name": "averagePrice",
                  "type": "uint256"
                },
                {
                  "internalType": "int256",
                  "name": "entryFundingRate",
                  "type": "int256"
                },
                {
                  "internalType": "int256",
                  "name": "realisedPnl",
                  "type": "int256"
                },
                {
                  "internalType": "uint256",
                  "name": "extra0",
                  "type": "uint256"
                },
                {
                  "internalType": "uint256",
                  "name": "extra1",
                  "type": "uint256"
                },
                {
                  "internalType": "uint256",
                  "name": "extra2",
                  "type": "uint256"
                }
              ],
              "internalType": "struct Position.Props",
              "name": "position",
              "type": "tuple"
            },
            {
              "internalType": "int256[]",
              "name": "fees",
              "type": "int256[]"
            },
            {
              "internalType": "address",
              "name": "collateralToken",
              "type": "address"
            },
            {
              "internalType": "address",
              "name": "indexToken",
              "type": "address"
            },
            {
              "internalType": "int256",
              "name": "collateralDeltaAfter",
              "type": "int256"
            }
          ],
          "internalType": "struct MarketPositionCallBackIntl.UpdatePositionEvent",
          "name": "_event",
          "type": "tuple"
        }
      ],
      "name": "updatePositionCallback",
      "outputs": [],
      "stateMutability": "nonpayable",
      "type": "function"
    }
  ],
  "bytecode": "0x608060405234801561001057600080fd5b5061001a3361001f565b610071565b600180546001600160a01b038381166001600160a01b0319831681179093556040519116919082907f8be0079c531659141344cd1fd0a4f28419497f9722a3daafe3b4186f6b6457e090600090a35050565b611d55806100806000396000f3fe608060405234801561001057600080fd5b50600436106101fb5760003560e01c8063766238db1161011a578063a217fddf116100ad578063dfcfa2501161007c578063dfcfa25014610507578063e1e01bf31461051a578063e1f1c4a71461052d578063ed84313414610536578063f2fde38b1461054957600080fd5b8063a217fddf146104a3578063c8b3c460146104ab578063d547741f146104d4578063d7897320146104e757600080fd5b806385725b58116100e957806385725b58146104385780638da5cb5b1461045857806391d148541461047d57806399d5c1ec1461049057600080fd5b8063766238db146103f75780637fe4a6981461040a5780638129fc1c1461041d578063836a01871461042557600080fd5b806340a542fe11610192578063612c39b711610161578063612c39b714610366578063715018a6146103bc57806371a6a790146103c457806375829def146103e457600080fd5b806340a542fe14610303578063534ef88314610316578063544210d81461034657806356b4b2ad1461035357600080fd5b80632f2ff15d116101ce5780632f2ff15d146102b557806336568abe146102ca57806336def2c8146102dd5780633fb8b323146102f057600080fd5b806301ffc9a714610200578063039af9eb146102285780631582a01814610264578063248a9ca314610292575b600080fd5b61021361020e36600461153b565b61055c565b60405190151581526020015b60405180910390f35b61024f610236366004611565565b6005602052600090815260409020805460019091015482565b6040805192835260208301919091520161021f565b61028461027236600461159a565b60046020526000908152604090205481565b60405190815260200161021f565b6102846102a0366004611565565b60009081526020819052604090206001015490565b6102c86102c33660046115b5565b610593565b005b6102c86102d83660046115b5565b6105bd565b6102c86102eb366004611565565b610640565b6102c86102fe3660046115e1565b610721565b6102c8610311366004611984565b610791565b61032961032436600461159a565b61090e565b604080519283526001600160a01b0390911660208301520161021f565b6102846264656960e81b81565b6102c86103613660046115e1565b610954565b60408051606080820183526000808352602080840182905292840181905283518083018552600180825281850183815291860192835285519081529051151593810193909352511515928201929092520161021f565b6102c8610975565b6102846103d236600461159a565b60036020526000908152604090205481565b6102c86103f236600461159a565b610989565b6102c86104053660046115e1565b6109b3565b6102c861041836600461159a565b610a6d565b6102c8610ac1565b6102c8610433366004611a59565b610c23565b61028461044636600461159a565b60076020526000908152604090205481565b6001546001600160a01b03165b6040516001600160a01b03909116815260200161021f565b61021361048b3660046115b5565b610d5b565b6102c861049e3660046115b5565b610d84565b610284600081565b6104656104b9366004611565565b6006602052600090815260409020546001600160a01b031681565b6102c86104e23660046115b5565b610e16565b6104fa6104f5366004611a85565b610e3b565b60405161021f9190611b16565b6102c86105153660046115b5565b610f1a565b6102c8610528366004611565565b610fad565b61028461271081565b6102c86105443660046115b5565b610fb7565b6102c861055736600461159a565b61109a565b60006001600160e01b03198216637965db0b60e01b148061058d57506301ffc9a760e01b6001600160e01b03198316145b92915050565b6000828152602081905260409020600101546105ae81611110565b6105b8838361111a565b505050565b6001600160a01b03811633146106325760405162461bcd60e51b815260206004820152602f60248201527f416363657373436f6e74726f6c3a2063616e206f6e6c792072656e6f756e636560448201526e103937b632b9903337b91039b2b63360891b60648201526084015b60405180910390fd5b61063c828261119e565b5050565b8061065d5760405162461bcd60e51b815260040161062990611b63565b6000818152600660205260409020546001600160a01b0316156106c25760405162461bcd60e51b815260206004820152601d60248201527f526566657272616c3a20636f646520616c7265616479206578697374730000006044820152606401610629565b60008181526006602090815260409182902080546001600160a01b0319163390811790915582519081529081018390527f04f82286a2a3b2ee5c8555de8304dfe2ea70991613213184b73a9e408d2d802991015b60405180910390a150565b610738600080516020611d00833981519152611110565b6001600160a01b038216600081815260046020908152604091829020849055815192835282018390527f7696855cdbb94bb5a44cb0a95caff6f29173aa1cbfba193834b12b90827ce2bc91015b60405180910390a15050565b6107ba7fcb58d6d985142a614029cdf01861b4fe094d5919a47e69b8310dc4093d9d6ad0611110565b6000806107ce83600001516080015161090e565b9092509050816108245750815161016001516000908152600660205260409020546001600160a01b03168061080257505050565b825160808101516101609091015161081a9190611203565b8251610160015191505b825160600151156108c0578251608081015160a09091015160408501517fc2414023ce7002ee98557d1e7be21e5559073336f2217ee5f9b2e50fd85f71ee929190600060ff168151811061087a5761087a611b9a565b602090810291909101810151604080516001600160a01b0395861681529283019390935281830152606081018690529184166080830152519081900360a00190a1505050565b8251608081015160a09091015160408501517f474c763ff84bf2c2039a6d9fea955ecd0f724030e3c365b91169c6a16fe751b7929190600160ff168151811061087a5761087a611b9a565b50565b6001600160a01b038116600090815260076020526040812054819081811561094a57506000818152600660205260409020546001600160a01b03165b9094909350915050565b61096b600080516020611d00833981519152611110565b61063c8282611203565b61097d611254565b61098760006112ae565b565b600061099481611110565b61099f600083611300565b6109a8826112ae565b61063c60003361119e565b6109ca600080516020611d00833981519152611110565b612710811115610a1c5760405162461bcd60e51b815260206004820152601f60248201527f526566657272616c3a20696e76616c696420646973636f756e745368617265006044820152606401610629565b6001600160a01b038216600081815260036020908152604091829020849055815192835282018390527fbd224f3917462b0fa80805fe3ec29be3a37f664955aad6224e5ece036224c4299101610785565b7f8d1089725c0dc266707fa6207730fb801dcd03108bfed7a21099bd303651d2b7610a9781611110565b61063c7fcb58d6d985142a614029cdf01861b4fe094d5919a47e69b8310dc4093d9d6ad08361111a565b600154600160a81b900460ff1615808015610ae7575060018054600160a01b900460ff16105b80610b075750303b158015610b07575060018054600160a01b900460ff16145b610b6a5760405162461bcd60e51b815260206004820152602e60248201527f496e697469616c697a61626c653a20636f6e747261637420697320616c72656160448201526d191e481a5b9a5d1a585b1a5e995960921b6064820152608401610629565b6001805460ff60a01b1916600160a01b1790558015610b97576001805460ff60a81b1916600160a81b1790555b610ba03361130a565b6264656960e81b60005260066020527fde1e4f22c0daf720ff22ad02f927876864de7c1cb91180aa6f578afdf6ac939a80546001600160a01b03191630179055801561090b576001805460ff60a81b191681556040519081527f7f26b83ff96e1f2b6a682f133852f6798a09c465da95921460cefb384740249890602001610716565b610c3a600080516020611d00833981519152611110565b612710821115610c8c5760405162461bcd60e51b815260206004820152601d60248201527f526566657272616c3a20696e76616c696420746f74616c5265626174650000006044820152606401610629565b612710811115610cde5760405162461bcd60e51b815260206004820152601f60248201527f526566657272616c3a20696e76616c696420646973636f756e745368617265006044820152606401610629565b600083815260056020818152604080842081518083018352878152808401878152958990529383528351815593516001909401939093558251868152908101859052918201839052907f4ebd23a492b2bd79586cb57cae40d7793408265f20320f68b478b971e696f4c7906060015b60405180910390a150505050565b6000918252602082815260408084206001600160a01b0393909316845291905290205460ff1690565b600080516020611d008339815191526000610d9f8133610d5b565b90508015610dfc576201518060025442610db99190611bc6565b10610df75760405162461bcd60e51b815260206004820152600e60248201526d1858c81d1a5b59481c185cdcd95960921b6044820152606401610629565b610e06565b610e06823361132d565b610e10848461111a565b50505050565b600082815260208190526040902060010154610e3181611110565b6105b8838361119e565b60606000825167ffffffffffffffff811115610e5957610e5961160b565b604051908082528060200260200182016040528015610e82578160200160208202803683370190505b50905060005b8351811015610f13576000848281518110610ea557610ea5611b9a565b602002602001015190506006600082815260200190815260200160002060009054906101000a90046001600160a01b0316838381518110610ee857610ee8611b9a565b6001600160a01b03909216602092830291909101909101525080610f0b81611bd9565b915050610e88565b5092915050565b610f31600080516020611d00833981519152611110565b81610f4e5760405162461bcd60e51b815260040161062990611b63565b60008281526006602090815260409182902080546001600160a01b0319166001600160a01b0385169081179091558251858152918201527f6431f88c655dd0e2b8d09b6405c007c515c66d67f2998e69c902873a8c8f3e979101610785565b61090b3382611203565b60008281526006602052604090205482906001600160a01b03163381146110165760405162461bcd60e51b81526020600482015260136024820152722932b332b93930b61d103337b93134b23232b760691b6044820152606401610629565b836110335760405162461bcd60e51b815260040161062990611b63565b60008481526006602090815260409182902080546001600160a01b0319166001600160a01b0387169081179091558251338152918201529081018590527f5640856798d41ce9ca0a109b54c20a06eb99ba9c36ab4547115dafb8473cf39790606001610d4d565b6110a2611254565b6001600160a01b0381166111075760405162461bcd60e51b815260206004820152602660248201527f4f776e61626c653a206e6577206f776e657220697320746865207a65726f206160448201526564647265737360d01b6064820152608401610629565b61090b816112ae565b61090b813361132d565b6111248282610d5b565b61063c576000828152602081815260408083206001600160a01b03851684529091529020805460ff1916600117905561115a3390565b6001600160a01b0316816001600160a01b0316837f2f8788117e7eff1d82e926ec794901d17c78024a50270940304540a733656f0d60405160405180910390a45050565b6111a88282610d5b565b1561063c576000828152602081815260408083206001600160a01b0385168085529252808320805460ff1916905551339285917ff6391f5c32d9c69d2a47ea670b442974b53935d1edc7fd64eb21e047a839171b9190a45050565b6001600160a01b038216600081815260076020908152604091829020849055815192835282018390527f43825f14567dda057e821be2e51a5aa79aa51f3907a647e3ed2bd486a01050f19101610785565b6001546001600160a01b031633146109875760405162461bcd60e51b815260206004820181905260248201527f4f776e61626c653a2063616c6c6572206973206e6f7420746865206f776e65726044820152606401610629565b600180546001600160a01b038381166001600160a01b0319831681179093556040519116919082907f8be0079c531659141344cd1fd0a4f28419497f9722a3daafe3b4186f6b6457e090600090a35050565b61063c828261111a565b42600255611317336112ae565b611322600033611300565b61090b600082611300565b6113378282610d5b565b61063c5761134481611386565b61134f836020611398565b604051602001611360929190611c16565b60408051601f198184030181529082905262461bcd60e51b825261062991600401611c8b565b606061058d6001600160a01b03831660145b606060006113a7836002611cbe565b6113b2906002611cd5565b67ffffffffffffffff8111156113ca576113ca61160b565b6040519080825280601f01601f1916602001820160405280156113f4576020820181803683370190505b509050600360fc1b8160008151811061140f5761140f611b9a565b60200101906001600160f81b031916908160001a905350600f60fb1b8160018151811061143e5761143e611b9a565b60200101906001600160f81b031916908160001a9053506000611462846002611cbe565b61146d906001611cd5565b90505b60018111156114e5576f181899199a1a9b1b9c1cb0b131b232b360811b85600f16601081106114a1576114a1611b9a565b1a60f81b8282815181106114b7576114b7611b9a565b60200101906001600160f81b031916908160001a90535060049490941c936114de81611ce8565b9050611470565b5083156115345760405162461bcd60e51b815260206004820181905260248201527f537472696e67733a20686578206c656e67746820696e73756666696369656e746044820152606401610629565b9392505050565b60006020828403121561154d57600080fd5b81356001600160e01b03198116811461153457600080fd5b60006020828403121561157757600080fd5b5035919050565b80356001600160a01b038116811461159557600080fd5b919050565b6000602082840312156115ac57600080fd5b6115348261157e565b600080604083850312156115c857600080fd5b823591506115d86020840161157e565b90509250929050565b600080604083850312156115f457600080fd5b6115fd8361157e565b946020939093013593505050565b634e487b7160e01b600052604160045260246000fd5b6040516101e0810167ffffffffffffffff811182821017156116455761164561160b565b60405290565b604051610180810167ffffffffffffffff811182821017156116455761164561160b565b60405160c0810167ffffffffffffffff811182821017156116455761164561160b565b604051601f8201601f1916810167ffffffffffffffff811182821017156116bb576116bb61160b565b604052919050565b8035801515811461159557600080fd5b803560ff8116811461159557600080fd5b803567ffffffffffffffff8116811461159557600080fd5b600067ffffffffffffffff8211156117165761171661160b565b5060051b60200190565b600082601f83011261173157600080fd5b81356020611746611741836116fc565b611692565b82815260059290921b8401810191818101908684111561176557600080fd5b8286015b848110156117805780358352918301918301611769565b509695505050505050565b60006101e0828403121561179e57600080fd5b6117a6611621565b90506117b18261157e565b81526117bf602083016116c3565b6020820152604082013560408201526117da606083016116c3565b60608201526117eb6080830161157e565b608082015260a082013560a082015260c082013560c082015260e082013560e082015261010061181c8184016116c3565b9082015261012061182e8382016116d3565b908201526101406118408382016116e4565b90820152610160828101359082015261018080830135908201526101a06118688184016116d3565b908201526101c08281013567ffffffffffffffff81111561188857600080fd5b61189485828601611720565b82840152505092915050565b803563ffffffff8116811461159557600080fd5b80356001600160d81b038116811461159557600080fd5b600061018082840312156118de57600080fd5b6118e661164b565b90506118f18261157e565b81526118ff602083016116c3565b6020820152611910604083016118a0565b6040820152611921606083016118b4565b60608201526080820135608082015260a082013560a082015260c082013560c082015260e082013560e082015261010080830135818301525061012080830135818301525061014080830135818301525061016080830135818301525092915050565b60006020828403121561199657600080fd5b813567ffffffffffffffff808211156119ae57600080fd5b9083019061022082860312156119c357600080fd5b6119cb61166f565b8235828111156119da57600080fd5b6119e68782860161178b565b8252506119f686602085016118cb565b60208201526101a083013582811115611a0e57600080fd5b611a1a87828601611720565b604083015250611a2d6101c0840161157e565b6060820152611a3f6101e0840161157e565b6080820152610200929092013560a0830152509392505050565b600080600060608486031215611a6e57600080fd5b505081359360208301359350604090920135919050565b60006020808385031215611a9857600080fd5b823567ffffffffffffffff811115611aaf57600080fd5b8301601f81018513611ac057600080fd5b8035611ace611741826116fc565b81815260059190911b82018301908381019087831115611aed57600080fd5b928401925b82841015611b0b57833582529284019290840190611af2565b979650505050505050565b6020808252825182820181905260009190848201906040850190845b81811015611b575783516001600160a01b031683529284019291840191600101611b32565b50909695505050505050565b60208082526017908201527f526566657272616c3a20696e76616c6964205f636f6465000000000000000000604082015260600190565b634e487b7160e01b600052603260045260246000fd5b634e487b7160e01b600052601160045260246000fd5b8181038181111561058d5761058d611bb0565b600060018201611beb57611beb611bb0565b5060010190565b60005b83811015611c0d578181015183820152602001611bf5565b50506000910152565b7f416363657373436f6e74726f6c3a206163636f756e7420000000000000000000815260008351611c4e816017850160208801611bf2565b7001034b99036b4b9b9b4b733903937b6329607d1b6017918401918201528351611c7f816028840160208801611bf2565b01602801949350505050565b6020815260008251806020840152611caa816040850160208701611bf2565b601f01601f19169190910160400192915050565b808202811582820484141761058d5761058d611bb0565b8082018082111561058d5761058d611bb0565b600081611cf757611cf7611bb0565b50600019019056fe241ecf16d79d0f8dbfb92cbc07fe17840425976cf0667f022fe9877caa831b08a26469706673582212200dd58b0b8b4bcac9ea89f880fb6cf7dde84fb7b1cef20c7d75d12f44d733fe6b64736f6c63430008110033",
  "linkReferences": {},
  "deployedLinkReferences": {}
}