{
  "_format": "hh-sol-artifact-1",
  "contractName": "Referral",
  "sourceName": "contracts/referral/Referral.sol",
  "abi": [
    {
      "anonymous": false,
      "inputs": [
        {
          "indexed": false,
          "internalType": "address",
          "name": "account",
          "type": "address"
        },
        {
          "indexed": false,
          "internalType": "uint256",
          "name": "sizeDelta",
          "type": "uint256"
        },
        {
          "indexed": false,
          "internalType": "uint256",
          "name": "marginFeeBasisPoints",
          "type": "uint256"
        },
        {
          "indexed": false,
          "internalType": "bytes32",
          "name": "referralCode",
          "type": "bytes32"
        },
        {
          "indexed": false,
          "internalType": "address",
          "name": "referrer",
          "type": "address"
        }
      ],
      "name": "DecreasePositionReferral",
      "type": "event"
    },
    {
      "anonymous": false,
      "inputs": [
        {
          "indexed": false,
          "internalType": "bytes32",
          "name": "code",
          "type": "bytes32"
        },
        {
          "indexed": false,
          "internalType": "address",
          "name": "newAccount",
          "type": "address"
        }
      ],
      "name": "GovSetCodeOwner",
      "type": "event"
    },
    {
      "anonymous": false,
      "inputs": [
        {
          "indexed": false,
          "internalType": "address",
          "name": "account",
          "type": "address"
        },
        {
          "indexed": false,
          "internalType": "uint256",
          "name": "sizeDelta",
          "type": "uint256"
        },
        {
          "indexed": false,
          "internalType": "uint256",
          "name": "marginFeeBasisPoints",
          "type": "uint256"
        },
        {
          "indexed": false,
          "internalType": "bytes32",
          "name": "referralCode",
          "type": "bytes32"
        },
        {
          "indexed": false,
          "internalType": "address",
          "name": "referrer",
          "type": "address"
        }
      ],
      "name": "IncreasePositionReferral",
      "type": "event"
    },
    {
      "anonymous": false,
      "inputs": [
        {
          "indexed": false,
          "internalType": "uint8",
          "name": "version",
          "type": "uint8"
        }
      ],
      "name": "Initialized",
      "type": "event"
    },
    {
      "anonymous": false,
      "inputs": [
        {
          "indexed": false,
          "internalType": "address",
          "name": "account",
          "type": "address"
        },
        {
          "indexed": false,
          "internalType": "bytes32",
          "name": "code",
          "type": "bytes32"
        }
      ],
      "name": "RegisterCode",
      "type": "event"
    },
    {
      "anonymous": false,
      "inputs": [
        {
          "indexed": false,
          "internalType": "address",
          "name": "account",
          "type": "address"
        },
        {
          "indexed": false,
          "internalType": "address",
          "name": "newAccount",
          "type": "address"
        },
        {
          "indexed": false,
          "internalType": "bytes32",
          "name": "code",
          "type": "bytes32"
        }
      ],
      "name": "SetCodeOwner",
      "type": "event"
    },
    {
      "anonymous": false,
      "inputs": [
        {
          "indexed": false,
          "internalType": "address",
          "name": "referrer",
          "type": "address"
        },
        {
          "indexed": false,
          "internalType": "uint256",
          "name": "discountShare",
          "type": "uint256"
        }
      ],
      "name": "SetReferrerDiscountShare",
      "type": "event"
    },
    {
      "anonymous": false,
      "inputs": [
        {
          "indexed": false,
          "internalType": "address",
          "name": "referrer",
          "type": "address"
        },
        {
          "indexed": false,
          "internalType": "uint256",
          "name": "tierId",
          "type": "uint256"
        }
      ],
      "name": "SetReferrerTier",
      "type": "event"
    },
    {
      "anonymous": false,
      "inputs": [
        {
          "indexed": false,
          "internalType": "uint256",
          "name": "tierId",
          "type": "uint256"
        },
        {
          "indexed": false,
          "internalType": "uint256",
          "name": "totalRebate",
          "type": "uint256"
        },
        {
          "indexed": false,
          "internalType": "uint256",
          "name": "discountShare",
          "type": "uint256"
        }
      ],
      "name": "SetTier",
      "type": "event"
    },
    {
      "anonymous": false,
      "inputs": [
        {
          "indexed": false,
          "internalType": "address",
          "name": "account",
          "type": "address"
        },
        {
          "indexed": false,
          "internalType": "bytes32",
          "name": "code",
          "type": "bytes32"
        }
      ],
      "name": "SetTraderReferralCode",
      "type": "event"
    },
    {
      "anonymous": false,
      "inputs": [
        {
          "indexed": false,
          "internalType": "address",
          "name": "account",
          "type": "address"
        },
        {
          "indexed": false,
          "internalType": "address",
          "name": "inviter",
          "type": "address"
        },
        {
          "indexed": false,
          "internalType": "bytes32",
          "name": "code",
          "type": "bytes32"
        }
      ],
      "name": "SetTraderReferralCode",
      "type": "event"
    },
    {
      "inputs": [],
      "name": "BASIS_POINTS",
      "outputs": [
        {
          "internalType": "uint256",
          "name": "",
          "type": "uint256"
        }
      ],
      "stateMutability": "view",
      "type": "function"
    },
    {
      "inputs": [],
      "name": "DEFAULT_ADMIN_ROLE",
      "outputs": [
        {
          "internalType": "bytes32",
          "name": "",
          "type": "bytes32"
        }
      ],
      "stateMutability": "view",
      "type": "function"
    },
    {
      "inputs": [],
      "name": "DEFAULT_CODE",
      "outputs": [
        {
          "internalType": "bytes32",
          "name": "",
          "type": "bytes32"
        }
      ],
      "stateMutability": "view",
      "type": "function"
    },
    {
      "inputs": [
        {
          "internalType": "address",
          "name": "newOwner",
          "type": "address"
        }
      ],
      "name": "_transferOwnership",
      "outputs": [],
      "stateMutability": "pure",
      "type": "function"
    },
    {
      "inputs": [
        {
          "internalType": "bytes32",
          "name": "",
          "type": "bytes32"
        }
      ],
      "name": "codeOwners",
      "outputs": [
        {
          "internalType": "address",
          "name": "",
          "type": "address"
        }
      ],
      "stateMutability": "view",
      "type": "function"
    },
    {
      "inputs": [
        {
          "internalType": "bytes32[]",
          "name": "_codes",
          "type": "bytes32[]"
        }
      ],
      "name": "getCodeOwners",
      "outputs": [
        {
          "internalType": "address[]",
          "name": "",
          "type": "address[]"
        }
      ],
      "stateMutability": "view",
      "type": "function"
    },
    {
      "inputs": [],
      "name": "getHooksCalls",
      "outputs": [
        {
          "components": [
            {
              "internalType": "bool",
              "name": "updatePosition",
              "type": "bool"
            },
            {
              "internalType": "bool",
              "name": "updateOrder",
              "type": "bool"
            },
            {
              "internalType": "bool",
              "name": "deleteOrder",
              "type": "bool"
            }
          ],
          "internalType": "struct MarketCallBackIntl.Calls",
          "name": "",
          "type": "tuple"
        }
      ],
      "stateMutability": "pure",
      "type": "function"
    },
    {
      "inputs": [
        {
          "internalType": "address",
          "name": "_account",
          "type": "address"
        }
      ],
      "name": "getTraderReferralInfo",
      "outputs": [
        {
          "internalType": "bytes32",
          "name": "",
          "type": "bytes32"
        },
        {
          "internalType": "address",
          "name": "",
          "type": "address"
        }
      ],
      "stateMutability": "view",
      "type": "function"
    },
    {
      "inputs": [
        {
          "internalType": "bytes32",
          "name": "_code",
          "type": "bytes32"
        },
        {
          "internalType": "address",
          "name": "_newAccount",
          "type": "address"
        }
      ],
      "name": "govSetCodeOwner",
      "outputs": [],
      "stateMutability": "nonpayable",
      "type": "function"
    },
    {
      "inputs": [
        {
          "internalType": "address",
          "name": "_account",
          "type": "address"
        }
      ],
      "name": "grantControllerRoleByMarketManager",
      "outputs": [],
      "stateMutability": "nonpayable",
      "type": "function"
    },
    {
      "inputs": [
        {
          "internalType": "bytes32",
          "name": "role",
          "type": "bytes32"
        },
        {
          "internalType": "address",
          "name": "account",
          "type": "address"
        }
      ],
      "name": "grantRole",
      "outputs": [],
      "stateMutability": "pure",
      "type": "function"
    },
    {
      "inputs": [
        {
          "internalType": "bytes32",
          "name": "role",
          "type": "bytes32"
        },
        {
          "internalType": "address",
          "name": "account",
          "type": "address"
        }
      ],
      "name": "hasRole",
      "outputs": [
        {
          "internalType": "bool",
          "name": "",
          "type": "bool"
        }
      ],
      "stateMutability": "pure",
      "type": "function"
    },
    {
      "inputs": [],
      "name": "initialize",
      "outputs": [],
      "stateMutability": "nonpayable",
      "type": "function"
    },
    {
      "inputs": [
        {
          "internalType": "address",
          "name": "",
          "type": "address"
        }
      ],
      "name": "referrerDiscountShares",
      "outputs": [
        {
          "internalType": "uint256",
          "name": "",
          "type": "uint256"
        }
      ],
      "stateMutability": "view",
      "type": "function"
    },
    {
      "inputs": [
        {
          "internalType": "address",
          "name": "",
          "type": "address"
        }
      ],
      "name": "referrerTiers",
      "outputs": [
        {
          "internalType": "uint256",
          "name": "",
          "type": "uint256"
        }
      ],
      "stateMutability": "view",
      "type": "function"
    },
    {
      "inputs": [
        {
          "internalType": "bytes32",
          "name": "_code",
          "type": "bytes32"
        }
      ],
      "name": "registerCode",
      "outputs": [],
      "stateMutability": "nonpayable",
      "type": "function"
    },
    {
      "inputs": [
        {
          "internalType": "bytes32",
          "name": "role",
          "type": "bytes32"
        },
        {
          "internalType": "address",
          "name": "account",
          "type": "address"
        }
      ],
      "name": "revokeRole",
      "outputs": [],
      "stateMutability": "pure",
      "type": "function"
    },
    {
      "inputs": [
        {
          "internalType": "bytes32",
          "name": "_code",
          "type": "bytes32"
        },
        {
          "internalType": "address",
          "name": "_newAccount",
          "type": "address"
        }
      ],
      "name": "setCodeOwner",
      "outputs": [],
      "stateMutability": "nonpayable",
      "type": "function"
    },
    {
      "inputs": [
        {
          "internalType": "address",
          "name": "_account",
          "type": "address"
        },
        {
          "internalType": "uint256",
          "name": "_discountShare",
          "type": "uint256"
        }
      ],
      "name": "setReferrerDiscountShare",
      "outputs": [],
      "stateMutability": "nonpayable",
      "type": "function"
    },
    {
      "inputs": [
        {
          "internalType": "address",
          "name": "_referrer",
          "type": "address"
        },
        {
          "internalType": "uint256",
          "name": "_tierId",
          "type": "uint256"
        }
      ],
      "name": "setReferrerTier",
      "outputs": [],
      "stateMutability": "nonpayable",
      "type": "function"
    },
    {
      "inputs": [
        {
          "internalType": "uint256",
          "name": "_tierId",
          "type": "uint256"
        },
        {
          "internalType": "uint256",
          "name": "_totalRebate",
          "type": "uint256"
        },
        {
          "internalType": "uint256",
          "name": "_discountShare",
          "type": "uint256"
        }
      ],
      "name": "setTier",
      "outputs": [],
      "stateMutability": "nonpayable",
      "type": "function"
    },
    {
      "inputs": [
        {
          "internalType": "address",
          "name": "_account",
          "type": "address"
        },
        {
          "internalType": "bytes32",
          "name": "_code",
          "type": "bytes32"
        }
      ],
      "name": "setTraderReferralCode",
      "outputs": [],
      "stateMutability": "nonpayable",
      "type": "function"
    },
    {
      "inputs": [
        {
          "internalType": "bytes32",
          "name": "_code",
          "type": "bytes32"
        }
      ],
      "name": "setTraderReferralCodeByUser",
      "outputs": [],
      "stateMutability": "nonpayable",
      "type": "function"
    },
    {
      "inputs": [
        {
          "internalType": "uint256",
          "name": "",
          "type": "uint256"
        }
      ],
      "name": "tiers",
      "outputs": [
        {
          "internalType": "uint256",
          "name": "totalRebate",
          "type": "uint256"
        },
        {
          "internalType": "uint256",
          "name": "discountShare",
          "type": "uint256"
        }
      ],
      "stateMutability": "view",
      "type": "function"
    },
    {
      "inputs": [
        {
          "internalType": "address",
          "name": "",
          "type": "address"
        }
      ],
      "name": "traderReferralCodes",
      "outputs": [
        {
          "internalType": "bytes32",
          "name": "",
          "type": "bytes32"
        }
      ],
      "stateMutability": "view",
      "type": "function"
    },
    {
      "inputs": [
        {
          "internalType": "address",
          "name": "to",
          "type": "address"
        }
      ],
      "name": "transferAdmin",
      "outputs": [],
      "stateMutability": "nonpayable",
      "type": "function"
    },
    {
      "inputs": [
        {
          "internalType": "address",
          "name": "newOwner",
          "type": "address"
        }
      ],
      "name": "transferOwnership",
      "outputs": [],
      "stateMutability": "pure",
      "type": "function"
    },
    {
      "inputs": [
        {
          "components": [
            {
              "components": [
                {
                  "internalType": "address",
                  "name": "_market",
                  "type": "address"
                },
                {
                  "internalType": "bool",
                  "name": "_isLong",
                  "type": "bool"
                },
                {
                  "internalType": "uint256",
                  "name": "_oraclePrice",
                  "type": "uint256"
                },
                {
                  "internalType": "bool",
                  "name": "isOpen",
                  "type": "bool"
                },
                {
                  "internalType": "address",
                  "name": "_account",
                  "type": "address"
                },
                {
                  "internalType": "uint256",
                  "name": "_sizeDelta",
                  "type": "uint256"
                },
                {
                  "internalType": "uint256",
                  "name": "_price",
                  "type": "uint256"
                },
                {
                  "internalType": "uint256",
                  "name": "_slippage",
                  "type": "uint256"
                },
                {
                  "internalType": "bool",
                  "name": "_isExec",
                  "type": "bool"
                },
                {
                  "internalType": "uint8",
                  "name": "liqState",
                  "type": "uint8"
                },
                {
                  "internalType": "uint64",
                  "name": "_fromOrder",
                  "type": "uint64"
                },
                {
                  "internalType": "bytes32",
                  "name": "_refCode",
                  "type": "bytes32"
                },
                {
                  "internalType": "uint256",
                  "name": "collateralDelta",
                  "type": "uint256"
                },
                {
                  "internalType": "uint8",
                  "name": "execNum",
                  "type": "uint8"
                },
                {
                  "internalType": "uint256[]",
                  "name": "inputs",
                  "type": "uint256[]"
                }
              ],
              "internalType": "struct MarketDataTypes.UpdatePositionInputs",
              "name": "inputs",
              "type": "tuple"
            },
            {
              "components": [
                {
                  "internalType": "address",
                  "name": "market",
                  "type": "address"
                },
                {
                  "internalType": "bool",
                  "name": "isLong",
                  "type": "bool"
                },
                {
                  "internalType": "uint32",
                  "name": "lastTime",
                  "type": "uint32"
                },
                {
                  "internalType": "uint216",
                  "name": "extra3",
                  "type": "uint216"
                },
                {
                  "internalType": "uint256",
                  "name": "size",
                  "type": "uint256"
                },
                {
                  "internalType": "uint256",
                  "name": "collateral",
                  "type": "uint256"
                },
                {
                  "internalType": "uint256",
                  "name": "averagePrice",
                  "type": "uint256"
                },
                {
                  "internalType": "int256",
                  "name": "entryFundingRate",
                  "type": "int256"
                },
                {
                  "internalType": "int256",
                  "name": "realisedPnl",
                  "type": "int256"
                },
                {
                  "internalType": "uint256",
                  "name": "extra0",
                  "type": "uint256"
                },
                {
                  "internalType": "uint256",
                  "name": "extra1",
                  "type": "uint256"
                },
                {
                  "internalType": "uint256",
                  "name": "extra2",
                  "type": "uint256"
                }
              ],
              "internalType": "struct Position.Props",
              "name": "position",
              "type": "tuple"
            },
            {
              "internalType": "int256[]",
              "name": "fees",
              "type": "int256[]"
            },
            {
              "internalType": "address",
              "name": "collateralToken",
              "type": "address"
            },
            {
              "internalType": "address",
              "name": "indexToken",
              "type": "address"
            },
            {
              "internalType": "int256",
              "name": "collateralDeltaAfter",
              "type": "int256"
            }
          ],
          "internalType": "struct MarketPositionCallBackIntl.UpdatePositionEvent",
          "name": "_event",
          "type": "tuple"
        }
      ],
      "name": "updatePositionCallback",
      "outputs": [],
      "stateMutability": "nonpayable",
      "type": "function"
    }
  ],
  "bytecode": "0x608060405234801561001057600080fd5b5061144d806100206000396000f3fe608060405234801561001057600080fd5b50600436106101c45760003560e01c80638129fc1c116100f9578063d547741f11610097578063e1e01bf311610071578063e1e01bf314610472578063e1f1c4a714610485578063ed8431341461048e578063f2fde38b1461042e57600080fd5b8063d547741f14610238578063d78973201461043f578063dfcfa2501461045f57600080fd5b806391d14854116100d357806391d14854146103bf578063a217fddf146103e5578063c8b3c460146103ed578063d29d44ee1461042e57600080fd5b80638129fc1c14610384578063836a01871461038c57806385725b581461039f57600080fd5b8063544210d81161016657806371a6a7901161014057806371a6a7901461032b57806375829def1461034b578063766238db1461035e5780637fe4a6981461037157600080fd5b8063544210d8146102b557806356b4b2ad146102c2578063612c39b7146102d557600080fd5b806336def2c8116101a257806336def2c81461024c5780633fb8b3231461025f57806340a542fe14610272578063534ef8831461028557600080fd5b8063039af9eb146101c95780631582a0181461020a5780632f2ff15d14610238575b600080fd5b6101f06101d7366004610d9e565b6004602052600090815260409020805460019091015482565b604080519283526020830191909152015b60405180910390f35b61022a610218366004610dd3565b60036020526000908152604090205481565b604051908152602001610201565b61024a610246366004610df5565b5050565b005b61024a61025a366004610d9e565b6104a1565b61024a61026d366004610e21565b61058b565b61024a6102803660046111c4565b6105e4565b610298610293366004610dd3565b610735565b604080519283526001600160a01b03909116602083015201610201565b61022a6264656960e81b81565b61024a6102d0366004610e21565b61077b565b604080516060808201835260008083526020808401829052928401819052835180830185526001808252818501838152918601928352855190815290511515938101939093525115159282019290925201610201565b61022a610339366004610dd3565b60026020526000908152604090205481565b61024a610359366004610dd3565b610785565b61024a61036c366004610e21565b610790565b61024a61037f366004610dd3565b61043c565b61024a610833565b61024a61039a366004611299565b61097e565b61022a6103ad366004610dd3565b60066020526000908152604090205481565b6103d56103cd366004610df5565b600192915050565b6040519015158152602001610201565b61022a600081565b6104166103fb366004610d9e565b6005602052600090815260409020546001600160a01b031681565b6040516001600160a01b039091168152602001610201565b61024a61043c366004610dd3565b50565b61045261044d3660046112c5565b610a9f565b6040516102019190611356565b61024a61046d366004610df5565b610b7e565b61024a610480366004610d9e565b610bfa565b61022a61271081565b61024a61049c366004610df5565b610c04565b806104c75760405162461bcd60e51b81526004016104be906113a3565b60405180910390fd5b6000818152600560205260409020546001600160a01b03161561052c5760405162461bcd60e51b815260206004820152601d60248201527f526566657272616c3a20636f646520616c72656164792065786973747300000060448201526064016104be565b60008181526005602090815260409182902080546001600160a01b0319163390811790915582519081529081018390527f04f82286a2a3b2ee5c8555de8304dfe2ea70991613213184b73a9e408d2d802991015b60405180910390a150565b6001600160a01b038216600081815260036020908152604091829020849055815192835282018390527f7696855cdbb94bb5a44cb0a95caff6f29173aa1cbfba193834b12b90827ce2bc91015b60405180910390a15050565b6000806105f8836000015160800151610735565b90925090508161064e5750815161016001516000908152600560205260409020546001600160a01b03168061062c57505050565b82516080810151610160909101516106449190610ce7565b8251610160015191505b825160600151156106ea578251608081015160a09091015160408501517fc2414023ce7002ee98557d1e7be21e5559073336f2217ee5f9b2e50fd85f71ee929190600060ff16815181106106a4576106a46113da565b602090810291909101810151604080516001600160a01b0395861681529283019390935281830152606081018690529184166080830152519081900360a00190a1505050565b8251608081015160a09091015160408501517f474c763ff84bf2c2039a6d9fea955ecd0f724030e3c365b91169c6a16fe751b7929190600160ff16815181106106a4576106a46113da565b6001600160a01b038116600090815260066020526040812054819081811561077157506000818152600560205260409020546001600160a01b03165b9094909350915050565b6102468282610ce7565b600061024660003382565b6127108111156107e25760405162461bcd60e51b815260206004820152601f60248201527f526566657272616c3a20696e76616c696420646973636f756e7453686172650060448201526064016104be565b6001600160a01b038216600081815260026020908152604091829020849055815192835282018390527fbd224f3917462b0fa80805fe3ec29be3a37f664955aad6224e5ece036224c42991016105d8565b600054610100900460ff16158080156108535750600054600160ff909116105b8061086d5750303b15801561086d575060005460ff166001145b6108d05760405162461bcd60e51b815260206004820152602e60248201527f496e697469616c697a61626c653a20636f6e747261637420697320616c72656160448201526d191e481a5b9a5d1a585b1a5e995960921b60648201526084016104be565b6000805460ff1916600117905580156108f3576000805461ff0019166101001790555b6108fc33610d97565b6264656960e81b60005260056020527f2b8c261ff979a40d55f054205971cf61f175ae6a4ce4ab496057a7ce1ecc9a8280546001600160a01b03191630179055801561043c576000805461ff0019169055604051600181527f7f26b83ff96e1f2b6a682f133852f6798a09c465da95921460cefb384740249890602001610580565b6127108211156109d05760405162461bcd60e51b815260206004820152601d60248201527f526566657272616c3a20696e76616c696420746f74616c52656261746500000060448201526064016104be565b612710811115610a225760405162461bcd60e51b815260206004820152601f60248201527f526566657272616c3a20696e76616c696420646973636f756e7453686172650060448201526064016104be565b600083815260046020818152604080842081518083018352878152808401878152958990529383528351815593516001909401939093558251868152908101859052918201839052907f4ebd23a492b2bd79586cb57cae40d7793408265f20320f68b478b971e696f4c7906060015b60405180910390a150505050565b60606000825167ffffffffffffffff811115610abd57610abd610e4b565b604051908082528060200260200182016040528015610ae6578160200160208202803683370190505b50905060005b8351811015610b77576000848281518110610b0957610b096113da565b602002602001015190506005600082815260200190815260200160002060009054906101000a90046001600160a01b0316838381518110610b4c57610b4c6113da565b6001600160a01b03909216602092830291909101909101525080610b6f816113f0565b915050610aec565b5092915050565b81610b9b5760405162461bcd60e51b81526004016104be906113a3565b60008281526005602090815260409182902080546001600160a01b0319166001600160a01b0385169081179091558251858152918201527f6431f88c655dd0e2b8d09b6405c007c515c66d67f2998e69c902873a8c8f3e9791016105d8565b61043c3382610ce7565b60008281526005602052604090205482906001600160a01b0316338114610c635760405162461bcd60e51b81526020600482015260136024820152722932b332b93930b61d103337b93134b23232b760691b60448201526064016104be565b83610c805760405162461bcd60e51b81526004016104be906113a3565b60008481526005602090815260409182902080546001600160a01b0319166001600160a01b0387169081179091558251338152918201529081018590527f5640856798d41ce9ca0a109b54c20a06eb99ba9c36ab4547115dafb8473cf39790606001610a91565b6001600160a01b038216600081815260066020908152604091829020849055815192835282018390527f43825f14567dda057e821be2e51a5aa79aa51f3907a647e3ed2bd486a01050f1910160405180910390a16000818152600560209081526040918290205482516001600160a01b038087168252909116918101919091529081018290527f85ead20f9d95a7f2553193e136366cc5a80cadcb6d5526267d8bb5c4239d2b32906060016105d8565b4260015550565b600060208284031215610db057600080fd5b5035919050565b80356001600160a01b0381168114610dce57600080fd5b919050565b600060208284031215610de557600080fd5b610dee82610db7565b9392505050565b60008060408385031215610e0857600080fd5b82359150610e1860208401610db7565b90509250929050565b60008060408385031215610e3457600080fd5b610e3d83610db7565b946020939093013593505050565b634e487b7160e01b600052604160045260246000fd5b6040516101e0810167ffffffffffffffff81118282101715610e8557610e85610e4b565b60405290565b604051610180810167ffffffffffffffff81118282101715610e8557610e85610e4b565b60405160c0810167ffffffffffffffff81118282101715610e8557610e85610e4b565b604051601f8201601f1916810167ffffffffffffffff81118282101715610efb57610efb610e4b565b604052919050565b80358015158114610dce57600080fd5b803560ff81168114610dce57600080fd5b803567ffffffffffffffff81168114610dce57600080fd5b600067ffffffffffffffff821115610f5657610f56610e4b565b5060051b60200190565b600082601f830112610f7157600080fd5b81356020610f86610f8183610f3c565b610ed2565b82815260059290921b84018101918181019086841115610fa557600080fd5b8286015b84811015610fc05780358352918301918301610fa9565b509695505050505050565b60006101e08284031215610fde57600080fd5b610fe6610e61565b9050610ff182610db7565b8152610fff60208301610f03565b60208201526040820135604082015261101a60608301610f03565b606082015261102b60808301610db7565b608082015260a082013560a082015260c082013560c082015260e082013560e082015261010061105c818401610f03565b9082015261012061106e838201610f13565b90820152610140611080838201610f24565b90820152610160828101359082015261018080830135908201526101a06110a8818401610f13565b908201526101c08281013567ffffffffffffffff8111156110c857600080fd5b6110d485828601610f60565b82840152505092915050565b803563ffffffff81168114610dce57600080fd5b80356001600160d81b0381168114610dce57600080fd5b6000610180828403121561111e57600080fd5b611126610e8b565b905061113182610db7565b815261113f60208301610f03565b6020820152611150604083016110e0565b6040820152611161606083016110f4565b60608201526080820135608082015260a082013560a082015260c082013560c082015260e082013560e082015261010080830135818301525061012080830135818301525061014080830135818301525061016080830135818301525092915050565b6000602082840312156111d657600080fd5b813567ffffffffffffffff808211156111ee57600080fd5b90830190610220828603121561120357600080fd5b61120b610eaf565b82358281111561121a57600080fd5b61122687828601610fcb565b825250611236866020850161110b565b60208201526101a08301358281111561124e57600080fd5b61125a87828601610f60565b60408301525061126d6101c08401610db7565b606082015261127f6101e08401610db7565b6080820152610200929092013560a0830152509392505050565b6000806000606084860312156112ae57600080fd5b505081359360208301359350604090920135919050565b600060208083850312156112d857600080fd5b823567ffffffffffffffff8111156112ef57600080fd5b8301601f8101851361130057600080fd5b803561130e610f8182610f3c565b81815260059190911b8201830190838101908783111561132d57600080fd5b928401925b8284101561134b57833582529284019290840190611332565b979650505050505050565b6020808252825182820181905260009190848201906040850190845b818110156113975783516001600160a01b031683529284019291840191600101611372565b50909695505050505050565b60208082526017908201527f526566657272616c3a20696e76616c6964205f636f6465000000000000000000604082015260600190565b634e487b7160e01b600052603260045260246000fd5b60006001820161141057634e487b7160e01b600052601160045260246000fd5b506001019056fea26469706673582212208d81cd315f64d8cb8b34c07a2f08711d505615d06d50edc7ac2300f9368a8a3a64736f6c63430008110033",
  "linkReferences": {},
  "deployedLinkReferences": {}
}