{
  "_format": "hh-sol-artifact-1",
  "contractName": "Referral",
  "sourceName": "contracts/referral/Referral.sol",
  "abi": [
    {
      "inputs": [],
      "stateMutability": "nonpayable",
      "type": "constructor"
    },
    {
      "anonymous": false,
      "inputs": [
        {
          "indexed": false,
          "internalType": "address",
          "name": "account",
          "type": "address"
        },
        {
          "indexed": false,
          "internalType": "uint256",
          "name": "sizeDelta",
          "type": "uint256"
        },
        {
          "indexed": false,
          "internalType": "uint256",
          "name": "marginFeeBasisPoints",
          "type": "uint256"
        },
        {
          "indexed": false,
          "internalType": "bytes32",
          "name": "referralCode",
          "type": "bytes32"
        },
        {
          "indexed": false,
          "internalType": "address",
          "name": "referrer",
          "type": "address"
        }
      ],
      "name": "DecreasePositionReferral",
      "type": "event"
    },
    {
      "anonymous": false,
      "inputs": [
        {
          "indexed": false,
          "internalType": "bytes32",
          "name": "code",
          "type": "bytes32"
        },
        {
          "indexed": false,
          "internalType": "address",
          "name": "newAccount",
          "type": "address"
        }
      ],
      "name": "GovSetCodeOwner",
      "type": "event"
    },
    {
      "anonymous": false,
      "inputs": [
        {
          "indexed": false,
          "internalType": "address",
          "name": "account",
          "type": "address"
        },
        {
          "indexed": false,
          "internalType": "uint256",
          "name": "sizeDelta",
          "type": "uint256"
        },
        {
          "indexed": false,
          "internalType": "uint256",
          "name": "marginFeeBasisPoints",
          "type": "uint256"
        },
        {
          "indexed": false,
          "internalType": "bytes32",
          "name": "referralCode",
          "type": "bytes32"
        },
        {
          "indexed": false,
          "internalType": "address",
          "name": "referrer",
          "type": "address"
        }
      ],
      "name": "IncreasePositionReferral",
      "type": "event"
    },
    {
      "anonymous": false,
      "inputs": [
        {
          "indexed": false,
          "internalType": "uint8",
          "name": "version",
          "type": "uint8"
        }
      ],
      "name": "Initialized",
      "type": "event"
    },
    {
      "anonymous": false,
      "inputs": [
        {
          "indexed": true,
          "internalType": "address",
          "name": "previousOwner",
          "type": "address"
        },
        {
          "indexed": true,
          "internalType": "address",
          "name": "newOwner",
          "type": "address"
        }
      ],
      "name": "OwnershipTransferred",
      "type": "event"
    },
    {
      "anonymous": false,
      "inputs": [
        {
          "indexed": false,
          "internalType": "address",
          "name": "account",
          "type": "address"
        },
        {
          "indexed": false,
          "internalType": "bytes32",
          "name": "code",
          "type": "bytes32"
        }
      ],
      "name": "RegisterCode",
      "type": "event"
    },
    {
      "anonymous": false,
      "inputs": [
        {
          "indexed": true,
          "internalType": "bytes32",
          "name": "role",
          "type": "bytes32"
        },
        {
          "indexed": true,
          "internalType": "bytes32",
          "name": "previousAdminRole",
          "type": "bytes32"
        },
        {
          "indexed": true,
          "internalType": "bytes32",
          "name": "newAdminRole",
          "type": "bytes32"
        }
      ],
      "name": "RoleAdminChanged",
      "type": "event"
    },
    {
      "anonymous": false,
      "inputs": [
        {
          "indexed": true,
          "internalType": "bytes32",
          "name": "role",
          "type": "bytes32"
        },
        {
          "indexed": true,
          "internalType": "address",
          "name": "account",
          "type": "address"
        },
        {
          "indexed": true,
          "internalType": "address",
          "name": "sender",
          "type": "address"
        }
      ],
      "name": "RoleGranted",
      "type": "event"
    },
    {
      "anonymous": false,
      "inputs": [
        {
          "indexed": true,
          "internalType": "bytes32",
          "name": "role",
          "type": "bytes32"
        },
        {
          "indexed": true,
          "internalType": "address",
          "name": "account",
          "type": "address"
        },
        {
          "indexed": true,
          "internalType": "address",
          "name": "sender",
          "type": "address"
        }
      ],
      "name": "RoleRevoked",
      "type": "event"
    },
    {
      "anonymous": false,
      "inputs": [
        {
          "indexed": false,
          "internalType": "address",
          "name": "account",
          "type": "address"
        },
        {
          "indexed": false,
          "internalType": "address",
          "name": "newAccount",
          "type": "address"
        },
        {
          "indexed": false,
          "internalType": "bytes32",
          "name": "code",
          "type": "bytes32"
        }
      ],
      "name": "SetCodeOwner",
      "type": "event"
    },
    {
      "anonymous": false,
      "inputs": [
        {
          "indexed": false,
          "internalType": "address",
          "name": "referrer",
          "type": "address"
        },
        {
          "indexed": false,
          "internalType": "uint256",
          "name": "discountShare",
          "type": "uint256"
        }
      ],
      "name": "SetReferrerDiscountShare",
      "type": "event"
    },
    {
      "anonymous": false,
      "inputs": [
        {
          "indexed": false,
          "internalType": "address",
          "name": "referrer",
          "type": "address"
        },
        {
          "indexed": false,
          "internalType": "uint256",
          "name": "tierId",
          "type": "uint256"
        }
      ],
      "name": "SetReferrerTier",
      "type": "event"
    },
    {
      "anonymous": false,
      "inputs": [
        {
          "indexed": false,
          "internalType": "uint256",
          "name": "tierId",
          "type": "uint256"
        },
        {
          "indexed": false,
          "internalType": "uint256",
          "name": "totalRebate",
          "type": "uint256"
        },
        {
          "indexed": false,
          "internalType": "uint256",
          "name": "discountShare",
          "type": "uint256"
        }
      ],
      "name": "SetTier",
      "type": "event"
    },
    {
      "anonymous": false,
      "inputs": [
        {
          "indexed": false,
          "internalType": "address",
          "name": "account",
          "type": "address"
        },
        {
          "indexed": false,
          "internalType": "bytes32",
          "name": "code",
          "type": "bytes32"
        }
      ],
      "name": "SetTraderReferralCode",
      "type": "event"
    },
    {
      "inputs": [],
      "name": "BASIS_POINTS",
      "outputs": [
        {
          "internalType": "uint256",
          "name": "",
          "type": "uint256"
        }
      ],
      "stateMutability": "view",
      "type": "function"
    },
    {
      "inputs": [],
      "name": "DEFAULT_ADMIN_ROLE",
      "outputs": [
        {
          "internalType": "bytes32",
          "name": "",
          "type": "bytes32"
        }
      ],
      "stateMutability": "view",
      "type": "function"
    },
    {
      "inputs": [],
      "name": "DEFAULT_CODE",
      "outputs": [
        {
          "internalType": "bytes32",
          "name": "",
          "type": "bytes32"
        }
      ],
      "stateMutability": "view",
      "type": "function"
    },
    {
      "inputs": [
        {
          "internalType": "bytes32",
          "name": "",
          "type": "bytes32"
        }
      ],
      "name": "codeOwners",
      "outputs": [
        {
          "internalType": "address",
          "name": "",
          "type": "address"
        }
      ],
      "stateMutability": "view",
      "type": "function"
    },
    {
      "inputs": [
        {
          "internalType": "bytes32[]",
          "name": "_codes",
          "type": "bytes32[]"
        }
      ],
      "name": "getCodeOwners",
      "outputs": [
        {
          "internalType": "address[]",
          "name": "",
          "type": "address[]"
        }
      ],
      "stateMutability": "view",
      "type": "function"
    },
    {
      "inputs": [],
      "name": "getHooksCalls",
      "outputs": [
        {
          "components": [
            {
              "internalType": "bool",
              "name": "updatePosition",
              "type": "bool"
            },
            {
              "internalType": "bool",
              "name": "updateOrder",
              "type": "bool"
            },
            {
              "internalType": "bool",
              "name": "deleteOrder",
              "type": "bool"
            }
          ],
          "internalType": "struct MarketCallBackIntl.Calls",
          "name": "",
          "type": "tuple"
        }
      ],
      "stateMutability": "pure",
      "type": "function"
    },
    {
      "inputs": [
        {
          "internalType": "bytes32",
          "name": "role",
          "type": "bytes32"
        }
      ],
      "name": "getRoleAdmin",
      "outputs": [
        {
          "internalType": "bytes32",
          "name": "",
          "type": "bytes32"
        }
      ],
      "stateMutability": "view",
      "type": "function"
    },
    {
      "inputs": [
        {
          "internalType": "address",
          "name": "_account",
          "type": "address"
        }
      ],
      "name": "getTraderReferralInfo",
      "outputs": [
        {
          "internalType": "bytes32",
          "name": "",
          "type": "bytes32"
        },
        {
          "internalType": "address",
          "name": "",
          "type": "address"
        }
      ],
      "stateMutability": "view",
      "type": "function"
    },
    {
      "inputs": [
        {
          "internalType": "bytes32",
          "name": "_code",
          "type": "bytes32"
        },
        {
          "internalType": "address",
          "name": "_newAccount",
          "type": "address"
        }
      ],
      "name": "govSetCodeOwner",
      "outputs": [],
      "stateMutability": "nonpayable",
      "type": "function"
    },
    {
      "inputs": [
        {
          "internalType": "bytes32",
          "name": "role",
          "type": "bytes32"
        },
        {
          "internalType": "address",
          "name": "account",
          "type": "address"
        }
      ],
      "name": "grantAndRevoke",
      "outputs": [],
      "stateMutability": "nonpayable",
      "type": "function"
    },
    {
      "inputs": [
        {
          "internalType": "bytes32",
          "name": "role",
          "type": "bytes32"
        },
        {
          "internalType": "address",
          "name": "account",
          "type": "address"
        }
      ],
      "name": "grantRole",
      "outputs": [],
      "stateMutability": "nonpayable",
      "type": "function"
    },
    {
      "inputs": [
        {
          "internalType": "bytes32",
          "name": "role",
          "type": "bytes32"
        },
        {
          "internalType": "address",
          "name": "account",
          "type": "address"
        }
      ],
      "name": "hasRole",
      "outputs": [
        {
          "internalType": "bool",
          "name": "",
          "type": "bool"
        }
      ],
      "stateMutability": "view",
      "type": "function"
    },
    {
      "inputs": [],
      "name": "owner",
      "outputs": [
        {
          "internalType": "address",
          "name": "",
          "type": "address"
        }
      ],
      "stateMutability": "view",
      "type": "function"
    },
    {
      "inputs": [
        {
          "internalType": "address",
          "name": "",
          "type": "address"
        }
      ],
      "name": "referrerDiscountShares",
      "outputs": [
        {
          "internalType": "uint256",
          "name": "",
          "type": "uint256"
        }
      ],
      "stateMutability": "view",
      "type": "function"
    },
    {
      "inputs": [
        {
          "internalType": "address",
          "name": "",
          "type": "address"
        }
      ],
      "name": "referrerTiers",
      "outputs": [
        {
          "internalType": "uint256",
          "name": "",
          "type": "uint256"
        }
      ],
      "stateMutability": "view",
      "type": "function"
    },
    {
      "inputs": [
        {
          "internalType": "bytes32",
          "name": "_code",
          "type": "bytes32"
        }
      ],
      "name": "registerCode",
      "outputs": [],
      "stateMutability": "nonpayable",
      "type": "function"
    },
    {
      "inputs": [],
      "name": "renounceOwnership",
      "outputs": [],
      "stateMutability": "nonpayable",
      "type": "function"
    },
    {
      "inputs": [
        {
          "internalType": "bytes32",
          "name": "role",
          "type": "bytes32"
        },
        {
          "internalType": "address",
          "name": "account",
          "type": "address"
        }
      ],
      "name": "renounceRole",
      "outputs": [],
      "stateMutability": "nonpayable",
      "type": "function"
    },
    {
      "inputs": [
        {
          "internalType": "bytes32",
          "name": "role",
          "type": "bytes32"
        },
        {
          "internalType": "address",
          "name": "account",
          "type": "address"
        }
      ],
      "name": "revokeRole",
      "outputs": [],
      "stateMutability": "nonpayable",
      "type": "function"
    },
    {
      "inputs": [
        {
          "internalType": "bytes32",
          "name": "_code",
          "type": "bytes32"
        },
        {
          "internalType": "address",
          "name": "_newAccount",
          "type": "address"
        }
      ],
      "name": "setCodeOwner",
      "outputs": [],
      "stateMutability": "nonpayable",
      "type": "function"
    },
    {
      "inputs": [
        {
          "internalType": "address",
          "name": "_account",
          "type": "address"
        },
        {
          "internalType": "uint256",
          "name": "_discountShare",
          "type": "uint256"
        }
      ],
      "name": "setReferrerDiscountShare",
      "outputs": [],
      "stateMutability": "nonpayable",
      "type": "function"
    },
    {
      "inputs": [
        {
          "internalType": "address",
          "name": "_referrer",
          "type": "address"
        },
        {
          "internalType": "uint256",
          "name": "_tierId",
          "type": "uint256"
        }
      ],
      "name": "setReferrerTier",
      "outputs": [],
      "stateMutability": "nonpayable",
      "type": "function"
    },
    {
      "inputs": [
        {
          "internalType": "uint256",
          "name": "_tierId",
          "type": "uint256"
        },
        {
          "internalType": "uint256",
          "name": "_totalRebate",
          "type": "uint256"
        },
        {
          "internalType": "uint256",
          "name": "_discountShare",
          "type": "uint256"
        }
      ],
      "name": "setTier",
      "outputs": [],
      "stateMutability": "nonpayable",
      "type": "function"
    },
    {
      "inputs": [
        {
          "internalType": "address",
          "name": "_account",
          "type": "address"
        },
        {
          "internalType": "bytes32",
          "name": "_code",
          "type": "bytes32"
        }
      ],
      "name": "setTraderReferralCode",
      "outputs": [],
      "stateMutability": "nonpayable",
      "type": "function"
    },
    {
      "inputs": [
        {
          "internalType": "bytes32",
          "name": "_code",
          "type": "bytes32"
        }
      ],
      "name": "setTraderReferralCodeByUser",
      "outputs": [],
      "stateMutability": "nonpayable",
      "type": "function"
    },
    {
      "inputs": [
        {
          "internalType": "bytes4",
          "name": "interfaceId",
          "type": "bytes4"
        }
      ],
      "name": "supportsInterface",
      "outputs": [
        {
          "internalType": "bool",
          "name": "",
          "type": "bool"
        }
      ],
      "stateMutability": "view",
      "type": "function"
    },
    {
      "inputs": [
        {
          "internalType": "uint256",
          "name": "",
          "type": "uint256"
        }
      ],
      "name": "tiers",
      "outputs": [
        {
          "internalType": "uint256",
          "name": "totalRebate",
          "type": "uint256"
        },
        {
          "internalType": "uint256",
          "name": "discountShare",
          "type": "uint256"
        }
      ],
      "stateMutability": "view",
      "type": "function"
    },
    {
      "inputs": [
        {
          "internalType": "address",
          "name": "",
          "type": "address"
        }
      ],
      "name": "traderReferralCodes",
      "outputs": [
        {
          "internalType": "bytes32",
          "name": "",
          "type": "bytes32"
        }
      ],
      "stateMutability": "view",
      "type": "function"
    },
    {
      "inputs": [
        {
          "internalType": "address",
          "name": "to",
          "type": "address"
        }
      ],
      "name": "transferAdmin",
      "outputs": [],
      "stateMutability": "nonpayable",
      "type": "function"
    },
    {
      "inputs": [
        {
          "internalType": "address",
          "name": "newOwner",
          "type": "address"
        }
      ],
      "name": "transferOwnership",
      "outputs": [],
      "stateMutability": "nonpayable",
      "type": "function"
    },
    {
      "inputs": [
        {
          "components": [
            {
              "components": [
                {
                  "internalType": "address",
                  "name": "_market",
                  "type": "address"
                },
                {
                  "internalType": "bool",
                  "name": "_isLong",
                  "type": "bool"
                },
                {
                  "internalType": "uint256",
                  "name": "_oraclePrice",
                  "type": "uint256"
                },
                {
                  "internalType": "bool",
                  "name": "isOpen",
                  "type": "bool"
                },
                {
                  "internalType": "address",
                  "name": "_account",
                  "type": "address"
                },
                {
                  "internalType": "uint256",
                  "name": "_sizeDelta",
                  "type": "uint256"
                },
                {
                  "internalType": "uint256",
                  "name": "_price",
                  "type": "uint256"
                },
                {
                  "internalType": "uint256",
                  "name": "_slippage",
                  "type": "uint256"
                },
                {
                  "internalType": "bool",
                  "name": "_isExec",
                  "type": "bool"
                },
                {
                  "internalType": "uint8",
                  "name": "liqState",
                  "type": "uint8"
                },
                {
                  "internalType": "uint64",
                  "name": "_fromOrder",
                  "type": "uint64"
                },
                {
                  "internalType": "bytes32",
                  "name": "_refCode",
                  "type": "bytes32"
                },
                {
                  "internalType": "uint256",
                  "name": "collateralDelta",
                  "type": "uint256"
                },
                {
                  "internalType": "uint8",
                  "name": "execNum",
                  "type": "uint8"
                },
                {
                  "internalType": "uint256[]",
                  "name": "inputs",
                  "type": "uint256[]"
                }
              ],
              "internalType": "struct MarketDataTypes.UpdatePositionInputs",
              "name": "inputs",
              "type": "tuple"
            },
            {
              "components": [
                {
                  "internalType": "address",
                  "name": "market",
                  "type": "address"
                },
                {
                  "internalType": "bool",
                  "name": "isLong",
                  "type": "bool"
                },
                {
                  "internalType": "uint32",
                  "name": "lastTime",
                  "type": "uint32"
                },
                {
                  "internalType": "uint216",
                  "name": "extra3",
                  "type": "uint216"
                },
                {
                  "internalType": "uint256",
                  "name": "size",
                  "type": "uint256"
                },
                {
                  "internalType": "uint256",
                  "name": "collateral",
                  "type": "uint256"
                },
                {
                  "internalType": "uint256",
                  "name": "averagePrice",
                  "type": "uint256"
                },
                {
                  "internalType": "int256",
                  "name": "entryFundingRate",
                  "type": "int256"
                },
                {
                  "internalType": "int256",
                  "name": "realisedPnl",
                  "type": "int256"
                },
                {
                  "internalType": "uint256",
                  "name": "extra0",
                  "type": "uint256"
                },
                {
                  "internalType": "uint256",
                  "name": "extra1",
                  "type": "uint256"
                },
                {
                  "internalType": "uint256",
                  "name": "extra2",
                  "type": "uint256"
                }
              ],
              "internalType": "struct Position.Props",
              "name": "position",
              "type": "tuple"
            },
            {
              "internalType": "int256[]",
              "name": "fees",
              "type": "int256[]"
            },
            {
              "internalType": "address",
              "name": "collateralToken",
              "type": "address"
            },
            {
              "internalType": "address",
              "name": "indexToken",
              "type": "address"
            },
            {
              "internalType": "int256",
              "name": "collateralDeltaAfter",
              "type": "int256"
            }
          ],
          "internalType": "struct MarketPositionCallBackIntl.UpdatePositionEvent",
          "name": "_event",
          "type": "tuple"
        }
      ],
      "name": "updatePositionCallback",
      "outputs": [],
      "stateMutability": "nonpayable",
      "type": "function"
    }
  ],
  "bytecode": "0x60806040523480156200001157600080fd5b5060006200001f336200007c565b6200003581620000ce60201b62000e3a1760201c565b506264656960e81b60005260066020527fde1e4f22c0daf720ff22ad02f927876864de7c1cb91180aa6f578afdf6ac939a80546001600160a01b03191630179055620001aa565b600180546001600160a01b038381166001600160a01b0319831681179093556040519116919082907f8be0079c531659141344cd1fd0a4f28419497f9722a3daafe3b4186f6b6457e090600090a35050565b42600255620000dd336200007c565b620000ea600033620000fa565b620000f7600082620000fa565b50565b6200010682826200010a565b5050565b6000828152602081815260408083206001600160a01b038516845290915290205460ff1662000106576000828152602081815260408083206001600160a01b03851684529091529020805460ff19166001179055620001663390565b6001600160a01b0316816001600160a01b0316837f2f8788117e7eff1d82e926ec794901d17c78024a50270940304540a733656f0d60405160405180910390a45050565b611ad180620001ba6000396000f3fe608060405234801561001057600080fd5b50600436106101755760003560e01c806301ffc9a71461017a578063039af9eb146101a25780631582a018146101de578063248a9ca31461020c5780632f2ff15d1461021f57806336568abe1461023457806336def2c8146102475780633fb8b3231461025a57806340a542fe1461026d578063534ef88314610280578063544210d8146102a157806356b4b2ad146102ae578063612c39b7146102c1578063715018a61461031757806371a6a7901461031f57806375829def1461033f578063766238db14610352578063836a01871461036557806385725b58146103785780638da5cb5b1461039857806391d14854146103b857806399d5c1ec146103cb578063a217fddf146103de578063c8b3c460146103e6578063d547741f1461040f578063d789732014610422578063dfcfa25014610442578063e1e01bf314610455578063e1f1c4a714610468578063ed84313414610471578063f2fde38b14610484575b600080fd5b61018d610188366004611265565b610497565b60405190151581526020015b60405180910390f35b6101c96101b036600461128f565b6005602052600090815260409020805460019091015482565b60408051928352602083019190915201610199565b6101fe6101ec3660046112c4565b60046020526000908152604090205481565b604051908152602001610199565b6101fe61021a36600461128f565b6104ce565b61023261022d3660046112df565b6104e3565b005b6102326102423660046112df565b610504565b61023261025536600461128f565b610587565b61023261026836600461130b565b610666565b61023261027b3660046116a7565b6106d6565b61029361028e3660046112c4565b610853565b60405161019992919061177b565b6101fe6264656960e81b81565b6102326102bc36600461130b565b610899565b604080516060808201835260008083526020808401829052928401819052835180830185526001808252818501838152918601928352855190815290511515938101939093525115159282019290925201610199565b6102326108ba565b6101fe61032d3660046112c4565b60036020526000908152604090205481565b61023261034d3660046112c4565b6108ce565b61023261036036600461130b565b6108f8565b610232610373366004611792565b61097e565b6101fe6103863660046112c4565b60076020526000908152604090205481565b6103a0610a86565b6040516001600160a01b039091168152602001610199565b61018d6103c63660046112df565b610a95565b6102326103d93660046112df565b610abe565b6101fe600081565b6103a06103f436600461128f565b6006602052600090815260409020546001600160a01b031681565b61023261041d3660046112df565b610b50565b6104356104303660046117be565b610b6c565b604051610199919061184e565b6102326104503660046112df565b610c4a565b61023261046336600461128f565b610cd7565b6101fe61271081565b61023261047f3660046112df565b610ce1565b6102326104923660046112c4565b610dc4565b60006001600160e01b03198216637965db0b60e01b14806104c857506301ffc9a760e01b6001600160e01b03198316145b92915050565b60009081526020819052604090206001015490565b6104ec826104ce565b6104f581610e5d565b6104ff8383610e67565b505050565b6001600160a01b03811633146105795760405162461bcd60e51b815260206004820152602f60248201527f416363657373436f6e74726f6c3a2063616e206f6e6c792072656e6f756e636560448201526e103937b632b9903337b91039b2b63360891b60648201526084015b60405180910390fd5b6105838282610eeb565b5050565b806105a45760405162461bcd60e51b81526004016105709061189b565b6000818152600660205260409020546001600160a01b0316156106095760405162461bcd60e51b815260206004820152601d60248201527f526566657272616c3a20636f646520616c7265616479206578697374730000006044820152606401610570565b6000818152600660205260409081902080546001600160a01b0319163390811790915590517f04f82286a2a3b2ee5c8555de8304dfe2ea70991613213184b73a9e408d2d80299161065b9184906118cc565b60405180910390a150565b61067d600080516020611a7c833981519152610e5d565b6001600160a01b03821660009081526004602052604090819020829055517f7696855cdbb94bb5a44cb0a95caff6f29173aa1cbfba193834b12b90827ce2bc906106ca90849084906118cc565b60405180910390a15050565b6106ff7fcb58d6d985142a614029cdf01861b4fe094d5919a47e69b8310dc4093d9d6ad0610e5d565b600080610713836000015160800151610853565b9092509050816107695750815161016001516000908152600660205260409020546001600160a01b03168061074757505050565b825160808101516101609091015161075f9190610f50565b8251610160015191505b82516060015115610805578251608081015160a09091015160408501517fc2414023ce7002ee98557d1e7be21e5559073336f2217ee5f9b2e50fd85f71ee929190600060ff16815181106107bf576107bf6118e5565b602090810291909101810151604080516001600160a01b0395861681529283019390935281830152606081018690529184166080830152519081900360a00190a1505050565b8251608081015160a09091015160408501517f474c763ff84bf2c2039a6d9fea955ecd0f724030e3c365b91169c6a16fe751b7929190600160ff16815181106107bf576107bf6118e5565b50565b6001600160a01b038116600090815260076020526040812054819081811561088f57506000818152600660205260409020546001600160a01b03165b9094909350915050565b6108b0600080516020611a7c833981519152610e5d565b6105838282610f50565b6108c2610f9d565b6108cc6000610ffc565b565b60006108d981610e5d565b6108e460008361104e565b6108ed82610ffc565b610583600033610eeb565b61090f600080516020611a7c833981519152610e5d565b6127108111156109315760405162461bcd60e51b8152600401610570906118fb565b6001600160a01b03821660009081526003602052604090819020829055517fbd224f3917462b0fa80805fe3ec29be3a37f664955aad6224e5ece036224c429906106ca90849084906118cc565b610995600080516020611a7c833981519152610e5d565b6127108211156109e75760405162461bcd60e51b815260206004820152601d60248201527f526566657272616c3a20696e76616c696420746f74616c5265626174650000006044820152606401610570565b612710811115610a095760405162461bcd60e51b8152600401610570906118fb565b600083815260056020818152604080842081518083018352878152808401878152958990529383528351815593516001909401939093558251868152908101859052918201839052907f4ebd23a492b2bd79586cb57cae40d7793408265f20320f68b478b971e696f4c7906060015b60405180910390a150505050565b6001546001600160a01b031690565b6000918252602082815260408084206001600160a01b0393909316845291905290205460ff1690565b600080516020611a7c8339815191526000610ad98133610a95565b90508015610b36576201518060025442610af39190611948565b10610b315760405162461bcd60e51b815260206004820152600e60248201526d1858c81d1a5b59481c185cdcd95960921b6044820152606401610570565b610b40565b610b408233611058565b610b4a8484610e67565b50505050565b610b59826104ce565b610b6281610e5d565b6104ff8383610eeb565b6060600082516001600160401b03811115610b8957610b89611335565b604051908082528060200260200182016040528015610bb2578160200160208202803683370190505b50905060005b8351811015610c43576000848281518110610bd557610bd56118e5565b602002602001015190506006600082815260200190815260200160002060009054906101000a90046001600160a01b0316838381518110610c1857610c186118e5565b6001600160a01b03909216602092830291909101909101525080610c3b8161195b565b915050610bb8565b5092915050565b610c61600080516020611a7c833981519152610e5d565b81610c7e5760405162461bcd60e51b81526004016105709061189b565b6000828152600660205260409081902080546001600160a01b0319166001600160a01b038416179055517f6431f88c655dd0e2b8d09b6405c007c515c66d67f2998e69c902873a8c8f3e97906106ca908490849061177b565b6108503382610f50565b60008281526006602052604090205482906001600160a01b0316338114610d405760405162461bcd60e51b81526020600482015260136024820152722932b332b93930b61d103337b93134b23232b760691b6044820152606401610570565b83610d5d5760405162461bcd60e51b81526004016105709061189b565b60008481526006602090815260409182902080546001600160a01b0319166001600160a01b0387169081179091558251338152918201529081018590527f5640856798d41ce9ca0a109b54c20a06eb99ba9c36ab4547115dafb8473cf39790606001610a78565b610dcc610f9d565b6001600160a01b038116610e315760405162461bcd60e51b815260206004820152602660248201527f4f776e61626c653a206e6577206f776e657220697320746865207a65726f206160448201526564647265737360d01b6064820152608401610570565b61085081610ffc565b42600255610e4733610ffc565b610e5260003361104e565b61085060008261104e565b6108508133611058565b610e718282610a95565b610583576000828152602081815260408083206001600160a01b03851684529091529020805460ff19166001179055610ea73390565b6001600160a01b0316816001600160a01b0316837f2f8788117e7eff1d82e926ec794901d17c78024a50270940304540a733656f0d60405160405180910390a45050565b610ef58282610a95565b15610583576000828152602081815260408083206001600160a01b0385168085529252808320805460ff1916905551339285917ff6391f5c32d9c69d2a47ea670b442974b53935d1edc7fd64eb21e047a839171b9190a45050565b6001600160a01b03821660009081526007602052604090819020829055517f43825f14567dda057e821be2e51a5aa79aa51f3907a647e3ed2bd486a01050f1906106ca90849084906118cc565b33610fa6610a86565b6001600160a01b0316146108cc5760405162461bcd60e51b815260206004820181905260248201527f4f776e61626c653a2063616c6c6572206973206e6f7420746865206f776e65726044820152606401610570565b600180546001600160a01b038381166001600160a01b0319831681179093556040519116919082907f8be0079c531659141344cd1fd0a4f28419497f9722a3daafe3b4186f6b6457e090600090a35050565b6105838282610e67565b6110628282610a95565b6105835761106f816110b1565b61107a8360206110c3565b60405160200161108b929190611998565b60408051601f198184030181529082905262461bcd60e51b825261057091600401611a07565b60606104c86001600160a01b03831660145b606060006110d2836002611a3a565b6110dd906002611a51565b6001600160401b038111156110f4576110f4611335565b6040519080825280601f01601f19166020018201604052801561111e576020820181803683370190505b509050600360fc1b81600081518110611139576111396118e5565b60200101906001600160f81b031916908160001a905350600f60fb1b81600181518110611168576111686118e5565b60200101906001600160f81b031916908160001a905350600061118c846002611a3a565b611197906001611a51565b90505b600181111561120f576f181899199a1a9b1b9c1cb0b131b232b360811b85600f16601081106111cb576111cb6118e5565b1a60f81b8282815181106111e1576111e16118e5565b60200101906001600160f81b031916908160001a90535060049490941c9361120881611a64565b905061119a565b50831561125e5760405162461bcd60e51b815260206004820181905260248201527f537472696e67733a20686578206c656e67746820696e73756666696369656e746044820152606401610570565b9392505050565b60006020828403121561127757600080fd5b81356001600160e01b03198116811461125e57600080fd5b6000602082840312156112a157600080fd5b5035919050565b80356001600160a01b03811681146112bf57600080fd5b919050565b6000602082840312156112d657600080fd5b61125e826112a8565b600080604083850312156112f257600080fd5b82359150611302602084016112a8565b90509250929050565b6000806040838503121561131e57600080fd5b611327836112a8565b946020939093013593505050565b634e487b7160e01b600052604160045260246000fd5b6040516101e081016001600160401b038111828210171561136e5761136e611335565b60405290565b60405161018081016001600160401b038111828210171561136e5761136e611335565b60405160c081016001600160401b038111828210171561136e5761136e611335565b604051601f8201601f191681016001600160401b03811182821017156113e1576113e1611335565b604052919050565b803580151581146112bf57600080fd5b803560ff811681146112bf57600080fd5b80356001600160401b03811681146112bf57600080fd5b60006001600160401b0382111561143a5761143a611335565b5060051b60200190565b600082601f83011261145557600080fd5b8135602061146a61146583611421565b6113b9565b82815260059290921b8401810191818101908684111561148957600080fd5b8286015b848110156114a4578035835291830191830161148d565b509695505050505050565b60006101e082840312156114c257600080fd5b6114ca61134b565b90506114d5826112a8565b81526114e3602083016113e9565b6020820152604082013560408201526114fe606083016113e9565b606082015261150f608083016112a8565b608082015260a082013560a082015260c082013560c082015260e082013560e08201526101006115408184016113e9565b908201526101206115528382016113f9565b9082015261014061156483820161140a565b90820152610160828101359082015261018080830135908201526101a061158c8184016113f9565b908201526101c0828101356001600160401b038111156115ab57600080fd5b6115b785828601611444565b82840152505092915050565b803563ffffffff811681146112bf57600080fd5b80356001600160d81b03811681146112bf57600080fd5b6000610180828403121561160157600080fd5b611609611374565b9050611614826112a8565b8152611622602083016113e9565b6020820152611633604083016115c3565b6040820152611644606083016115d7565b60608201526080820135608082015260a082013560a082015260c082013560c082015260e082013560e082015261010080830135818301525061012080830135818301525061014080830135818301525061016080830135818301525092915050565b6000602082840312156116b957600080fd5b81356001600160401b03808211156116d057600080fd5b9083019061022082860312156116e557600080fd5b6116ed611397565b8235828111156116fc57600080fd5b611708878286016114af565b82525061171886602085016115ee565b60208201526101a08301358281111561173057600080fd5b61173c87828601611444565b60408301525061174f6101c084016112a8565b60608201526117616101e084016112a8565b6080820152610200929092013560a0830152509392505050565b9182526001600160a01b0316602082015260400190565b6000806000606084860312156117a757600080fd5b505081359360208301359350604090920135919050565b600060208083850312156117d157600080fd5b82356001600160401b038111156117e757600080fd5b8301601f810185136117f857600080fd5b803561180661146582611421565b81815260059190911b8201830190838101908783111561182557600080fd5b928401925b828410156118435783358252928401929084019061182a565b979650505050505050565b6020808252825182820181905260009190848201906040850190845b8181101561188f5783516001600160a01b03168352928401929184019160010161186a565b50909695505050505050565b602080825260179082015276526566657272616c3a20696e76616c6964205f636f646560481b604082015260600190565b6001600160a01b03929092168252602082015260400190565b634e487b7160e01b600052603260045260246000fd5b6020808252601f908201527f526566657272616c3a20696e76616c696420646973636f756e74536861726500604082015260600190565b634e487b7160e01b600052601160045260246000fd5b818103818111156104c8576104c8611932565b60006001820161196d5761196d611932565b5060010190565b60005b8381101561198f578181015183820152602001611977565b50506000910152565b76020b1b1b2b9b9a1b7b73a3937b61d1030b1b1b7bab73a1604d1b8152600083516119ca816017850160208801611974565b7001034b99036b4b9b9b4b733903937b6329607d1b60179184019182015283516119fb816028840160208801611974565b01602801949350505050565b6020815260008251806020840152611a26816040850160208701611974565b601f01601f19169190910160400192915050565b80820281158282048414176104c8576104c8611932565b808201808211156104c8576104c8611932565b600081611a7357611a73611932565b50600019019056fe241ecf16d79d0f8dbfb92cbc07fe17840425976cf0667f022fe9877caa831b08a26469706673582212209416ef1e8ba78e1cf8a233ad68f5b871e7ef53f87a008100fad1ceccca3f58c764736f6c63430008110033",
  "linkReferences": {},
  "deployedLinkReferences": {}
}