{
  "_format": "hh-sol-artifact-1",
  "contractName": "Referral",
  "sourceName": "contracts/referral/Referral.sol",
  "abi": [
    {
      "inputs": [],
      "stateMutability": "nonpayable",
      "type": "constructor"
    },
    {
      "anonymous": false,
      "inputs": [
        {
          "indexed": false,
          "internalType": "address",
          "name": "account",
          "type": "address"
        },
        {
          "indexed": false,
          "internalType": "uint256",
          "name": "sizeDelta",
          "type": "uint256"
        },
        {
          "indexed": false,
          "internalType": "uint256",
          "name": "marginFeeBasisPoints",
          "type": "uint256"
        },
        {
          "indexed": false,
          "internalType": "bytes32",
          "name": "referralCode",
          "type": "bytes32"
        },
        {
          "indexed": false,
          "internalType": "address",
          "name": "referrer",
          "type": "address"
        }
      ],
      "name": "DecreasePositionReferral",
      "type": "event"
    },
    {
      "anonymous": false,
      "inputs": [
        {
          "indexed": false,
          "internalType": "bytes32",
          "name": "code",
          "type": "bytes32"
        },
        {
          "indexed": false,
          "internalType": "address",
          "name": "newAccount",
          "type": "address"
        }
      ],
      "name": "GovSetCodeOwner",
      "type": "event"
    },
    {
      "anonymous": false,
      "inputs": [
        {
          "indexed": false,
          "internalType": "address",
          "name": "account",
          "type": "address"
        },
        {
          "indexed": false,
          "internalType": "uint256",
          "name": "sizeDelta",
          "type": "uint256"
        },
        {
          "indexed": false,
          "internalType": "uint256",
          "name": "marginFeeBasisPoints",
          "type": "uint256"
        },
        {
          "indexed": false,
          "internalType": "bytes32",
          "name": "referralCode",
          "type": "bytes32"
        },
        {
          "indexed": false,
          "internalType": "address",
          "name": "referrer",
          "type": "address"
        }
      ],
      "name": "IncreasePositionReferral",
      "type": "event"
    },
    {
      "anonymous": false,
      "inputs": [
        {
          "indexed": false,
          "internalType": "uint8",
          "name": "version",
          "type": "uint8"
        }
      ],
      "name": "Initialized",
      "type": "event"
    },
    {
      "anonymous": false,
      "inputs": [
        {
          "indexed": true,
          "internalType": "address",
          "name": "previousOwner",
          "type": "address"
        },
        {
          "indexed": true,
          "internalType": "address",
          "name": "newOwner",
          "type": "address"
        }
      ],
      "name": "OwnershipTransferred",
      "type": "event"
    },
    {
      "anonymous": false,
      "inputs": [
        {
          "indexed": false,
          "internalType": "address",
          "name": "account",
          "type": "address"
        },
        {
          "indexed": false,
          "internalType": "bytes32",
          "name": "code",
          "type": "bytes32"
        }
      ],
      "name": "RegisterCode",
      "type": "event"
    },
    {
      "anonymous": false,
      "inputs": [
        {
          "indexed": true,
          "internalType": "bytes32",
          "name": "role",
          "type": "bytes32"
        },
        {
          "indexed": true,
          "internalType": "bytes32",
          "name": "previousAdminRole",
          "type": "bytes32"
        },
        {
          "indexed": true,
          "internalType": "bytes32",
          "name": "newAdminRole",
          "type": "bytes32"
        }
      ],
      "name": "RoleAdminChanged",
      "type": "event"
    },
    {
      "anonymous": false,
      "inputs": [
        {
          "indexed": true,
          "internalType": "bytes32",
          "name": "role",
          "type": "bytes32"
        },
        {
          "indexed": true,
          "internalType": "address",
          "name": "account",
          "type": "address"
        },
        {
          "indexed": true,
          "internalType": "address",
          "name": "sender",
          "type": "address"
        }
      ],
      "name": "RoleGranted",
      "type": "event"
    },
    {
      "anonymous": false,
      "inputs": [
        {
          "indexed": true,
          "internalType": "bytes32",
          "name": "role",
          "type": "bytes32"
        },
        {
          "indexed": true,
          "internalType": "address",
          "name": "account",
          "type": "address"
        },
        {
          "indexed": true,
          "internalType": "address",
          "name": "sender",
          "type": "address"
        }
      ],
      "name": "RoleRevoked",
      "type": "event"
    },
    {
      "anonymous": false,
      "inputs": [
        {
          "indexed": false,
          "internalType": "address",
          "name": "account",
          "type": "address"
        },
        {
          "indexed": false,
          "internalType": "address",
          "name": "newAccount",
          "type": "address"
        },
        {
          "indexed": false,
          "internalType": "bytes32",
          "name": "code",
          "type": "bytes32"
        }
      ],
      "name": "SetCodeOwner",
      "type": "event"
    },
    {
      "anonymous": false,
      "inputs": [
        {
          "indexed": false,
          "internalType": "address",
          "name": "referrer",
          "type": "address"
        },
        {
          "indexed": false,
          "internalType": "uint256",
          "name": "discountShare",
          "type": "uint256"
        }
      ],
      "name": "SetReferrerDiscountShare",
      "type": "event"
    },
    {
      "anonymous": false,
      "inputs": [
        {
          "indexed": false,
          "internalType": "address",
          "name": "referrer",
          "type": "address"
        },
        {
          "indexed": false,
          "internalType": "uint256",
          "name": "tierId",
          "type": "uint256"
        }
      ],
      "name": "SetReferrerTier",
      "type": "event"
    },
    {
      "anonymous": false,
      "inputs": [
        {
          "indexed": false,
          "internalType": "uint256",
          "name": "tierId",
          "type": "uint256"
        },
        {
          "indexed": false,
          "internalType": "uint256",
          "name": "totalRebate",
          "type": "uint256"
        },
        {
          "indexed": false,
          "internalType": "uint256",
          "name": "discountShare",
          "type": "uint256"
        }
      ],
      "name": "SetTier",
      "type": "event"
    },
    {
      "anonymous": false,
      "inputs": [
        {
          "indexed": false,
          "internalType": "address",
          "name": "account",
          "type": "address"
        },
        {
          "indexed": false,
          "internalType": "bytes32",
          "name": "code",
          "type": "bytes32"
        }
      ],
      "name": "SetTraderReferralCode",
      "type": "event"
    },
    {
      "inputs": [],
      "name": "BASIS_POINTS",
      "outputs": [
        {
          "internalType": "uint256",
          "name": "",
          "type": "uint256"
        }
      ],
      "stateMutability": "view",
      "type": "function"
    },
    {
      "inputs": [],
      "name": "DEFAULT_ADMIN_ROLE",
      "outputs": [
        {
          "internalType": "bytes32",
          "name": "",
          "type": "bytes32"
        }
      ],
      "stateMutability": "view",
      "type": "function"
    },
    {
      "inputs": [],
      "name": "DEFAULT_CODE",
      "outputs": [
        {
          "internalType": "bytes32",
          "name": "",
          "type": "bytes32"
        }
      ],
      "stateMutability": "view",
      "type": "function"
    },
    {
      "inputs": [
        {
          "internalType": "bytes32",
          "name": "",
          "type": "bytes32"
        }
      ],
      "name": "codeOwners",
      "outputs": [
        {
          "internalType": "address",
          "name": "",
          "type": "address"
        }
      ],
      "stateMutability": "view",
      "type": "function"
    },
    {
      "inputs": [
        {
          "internalType": "bytes32[]",
          "name": "_codes",
          "type": "bytes32[]"
        }
      ],
      "name": "getCodeOwners",
      "outputs": [
        {
          "internalType": "address[]",
          "name": "",
          "type": "address[]"
        }
      ],
      "stateMutability": "view",
      "type": "function"
    },
    {
      "inputs": [],
      "name": "getHooksCalls",
      "outputs": [
        {
          "components": [
            {
              "internalType": "bool",
              "name": "updatePosition",
              "type": "bool"
            },
            {
              "internalType": "bool",
              "name": "updateOrder",
              "type": "bool"
            },
            {
              "internalType": "bool",
              "name": "deleteOrder",
              "type": "bool"
            }
          ],
          "internalType": "struct MarketCallBackIntl.Calls",
          "name": "",
          "type": "tuple"
        }
      ],
      "stateMutability": "pure",
      "type": "function"
    },
    {
      "inputs": [
        {
          "internalType": "bytes32",
          "name": "role",
          "type": "bytes32"
        }
      ],
      "name": "getRoleAdmin",
      "outputs": [
        {
          "internalType": "bytes32",
          "name": "",
          "type": "bytes32"
        }
      ],
      "stateMutability": "view",
      "type": "function"
    },
    {
      "inputs": [
        {
          "internalType": "address",
          "name": "_account",
          "type": "address"
        }
      ],
      "name": "getTraderReferralInfo",
      "outputs": [
        {
          "internalType": "bytes32",
          "name": "",
          "type": "bytes32"
        },
        {
          "internalType": "address",
          "name": "",
          "type": "address"
        }
      ],
      "stateMutability": "view",
      "type": "function"
    },
    {
      "inputs": [
        {
          "internalType": "bytes32",
          "name": "_code",
          "type": "bytes32"
        },
        {
          "internalType": "address",
          "name": "_newAccount",
          "type": "address"
        }
      ],
      "name": "govSetCodeOwner",
      "outputs": [],
      "stateMutability": "nonpayable",
      "type": "function"
    },
    {
      "inputs": [
        {
          "internalType": "bytes32",
          "name": "role",
          "type": "bytes32"
        },
        {
          "internalType": "address",
          "name": "account",
          "type": "address"
        }
      ],
      "name": "grantAndRevoke",
      "outputs": [],
      "stateMutability": "nonpayable",
      "type": "function"
    },
    {
      "inputs": [
        {
          "internalType": "address",
          "name": "_account",
          "type": "address"
        }
      ],
      "name": "grantControllerRoleByMarketManager",
      "outputs": [],
      "stateMutability": "nonpayable",
      "type": "function"
    },
    {
      "inputs": [
        {
          "internalType": "bytes32",
          "name": "role",
          "type": "bytes32"
        },
        {
          "internalType": "address",
          "name": "account",
          "type": "address"
        }
      ],
      "name": "grantRole",
      "outputs": [],
      "stateMutability": "nonpayable",
      "type": "function"
    },
    {
      "inputs": [
        {
          "internalType": "bytes32",
          "name": "role",
          "type": "bytes32"
        },
        {
          "internalType": "address",
          "name": "account",
          "type": "address"
        }
      ],
      "name": "hasRole",
      "outputs": [
        {
          "internalType": "bool",
          "name": "",
          "type": "bool"
        }
      ],
      "stateMutability": "view",
      "type": "function"
    },
    {
      "inputs": [],
      "name": "owner",
      "outputs": [
        {
          "internalType": "address",
          "name": "",
          "type": "address"
        }
      ],
      "stateMutability": "view",
      "type": "function"
    },
    {
      "inputs": [
        {
          "internalType": "address",
          "name": "",
          "type": "address"
        }
      ],
      "name": "referrerDiscountShares",
      "outputs": [
        {
          "internalType": "uint256",
          "name": "",
          "type": "uint256"
        }
      ],
      "stateMutability": "view",
      "type": "function"
    },
    {
      "inputs": [
        {
          "internalType": "address",
          "name": "",
          "type": "address"
        }
      ],
      "name": "referrerTiers",
      "outputs": [
        {
          "internalType": "uint256",
          "name": "",
          "type": "uint256"
        }
      ],
      "stateMutability": "view",
      "type": "function"
    },
    {
      "inputs": [
        {
          "internalType": "bytes32",
          "name": "_code",
          "type": "bytes32"
        }
      ],
      "name": "registerCode",
      "outputs": [],
      "stateMutability": "nonpayable",
      "type": "function"
    },
    {
      "inputs": [],
      "name": "renounceOwnership",
      "outputs": [],
      "stateMutability": "nonpayable",
      "type": "function"
    },
    {
      "inputs": [
        {
          "internalType": "bytes32",
          "name": "role",
          "type": "bytes32"
        },
        {
          "internalType": "address",
          "name": "account",
          "type": "address"
        }
      ],
      "name": "renounceRole",
      "outputs": [],
      "stateMutability": "nonpayable",
      "type": "function"
    },
    {
      "inputs": [
        {
          "internalType": "bytes32",
          "name": "role",
          "type": "bytes32"
        },
        {
          "internalType": "address",
          "name": "account",
          "type": "address"
        }
      ],
      "name": "revokeRole",
      "outputs": [],
      "stateMutability": "nonpayable",
      "type": "function"
    },
    {
      "inputs": [
        {
          "internalType": "bytes32",
          "name": "_code",
          "type": "bytes32"
        },
        {
          "internalType": "address",
          "name": "_newAccount",
          "type": "address"
        }
      ],
      "name": "setCodeOwner",
      "outputs": [],
      "stateMutability": "nonpayable",
      "type": "function"
    },
    {
      "inputs": [
        {
          "internalType": "address",
          "name": "_account",
          "type": "address"
        },
        {
          "internalType": "uint256",
          "name": "_discountShare",
          "type": "uint256"
        }
      ],
      "name": "setReferrerDiscountShare",
      "outputs": [],
      "stateMutability": "nonpayable",
      "type": "function"
    },
    {
      "inputs": [
        {
          "internalType": "address",
          "name": "_referrer",
          "type": "address"
        },
        {
          "internalType": "uint256",
          "name": "_tierId",
          "type": "uint256"
        }
      ],
      "name": "setReferrerTier",
      "outputs": [],
      "stateMutability": "nonpayable",
      "type": "function"
    },
    {
      "inputs": [
        {
          "internalType": "uint256",
          "name": "_tierId",
          "type": "uint256"
        },
        {
          "internalType": "uint256",
          "name": "_totalRebate",
          "type": "uint256"
        },
        {
          "internalType": "uint256",
          "name": "_discountShare",
          "type": "uint256"
        }
      ],
      "name": "setTier",
      "outputs": [],
      "stateMutability": "nonpayable",
      "type": "function"
    },
    {
      "inputs": [
        {
          "internalType": "address",
          "name": "_account",
          "type": "address"
        },
        {
          "internalType": "bytes32",
          "name": "_code",
          "type": "bytes32"
        }
      ],
      "name": "setTraderReferralCode",
      "outputs": [],
      "stateMutability": "nonpayable",
      "type": "function"
    },
    {
      "inputs": [
        {
          "internalType": "bytes32",
          "name": "_code",
          "type": "bytes32"
        }
      ],
      "name": "setTraderReferralCodeByUser",
      "outputs": [],
      "stateMutability": "nonpayable",
      "type": "function"
    },
    {
      "inputs": [
        {
          "internalType": "bytes4",
          "name": "interfaceId",
          "type": "bytes4"
        }
      ],
      "name": "supportsInterface",
      "outputs": [
        {
          "internalType": "bool",
          "name": "",
          "type": "bool"
        }
      ],
      "stateMutability": "view",
      "type": "function"
    },
    {
      "inputs": [
        {
          "internalType": "uint256",
          "name": "",
          "type": "uint256"
        }
      ],
      "name": "tiers",
      "outputs": [
        {
          "internalType": "uint256",
          "name": "totalRebate",
          "type": "uint256"
        },
        {
          "internalType": "uint256",
          "name": "discountShare",
          "type": "uint256"
        }
      ],
      "stateMutability": "view",
      "type": "function"
    },
    {
      "inputs": [
        {
          "internalType": "address",
          "name": "",
          "type": "address"
        }
      ],
      "name": "traderReferralCodes",
      "outputs": [
        {
          "internalType": "bytes32",
          "name": "",
          "type": "bytes32"
        }
      ],
      "stateMutability": "view",
      "type": "function"
    },
    {
      "inputs": [
        {
          "internalType": "address",
          "name": "to",
          "type": "address"
        }
      ],
      "name": "transferAdmin",
      "outputs": [],
      "stateMutability": "nonpayable",
      "type": "function"
    },
    {
      "inputs": [
        {
          "internalType": "address",
          "name": "newOwner",
          "type": "address"
        }
      ],
      "name": "transferOwnership",
      "outputs": [],
      "stateMutability": "nonpayable",
      "type": "function"
    },
    {
      "inputs": [
        {
          "components": [
            {
              "components": [
                {
                  "internalType": "address",
                  "name": "_market",
                  "type": "address"
                },
                {
                  "internalType": "bool",
                  "name": "_isLong",
                  "type": "bool"
                },
                {
                  "internalType": "uint256",
                  "name": "_oraclePrice",
                  "type": "uint256"
                },
                {
                  "internalType": "bool",
                  "name": "isOpen",
                  "type": "bool"
                },
                {
                  "internalType": "address",
                  "name": "_account",
                  "type": "address"
                },
                {
                  "internalType": "uint256",
                  "name": "_sizeDelta",
                  "type": "uint256"
                },
                {
                  "internalType": "uint256",
                  "name": "_price",
                  "type": "uint256"
                },
                {
                  "internalType": "uint256",
                  "name": "_slippage",
                  "type": "uint256"
                },
                {
                  "internalType": "bool",
                  "name": "_isExec",
                  "type": "bool"
                },
                {
                  "internalType": "uint8",
                  "name": "liqState",
                  "type": "uint8"
                },
                {
                  "internalType": "uint64",
                  "name": "_fromOrder",
                  "type": "uint64"
                },
                {
                  "internalType": "bytes32",
                  "name": "_refCode",
                  "type": "bytes32"
                },
                {
                  "internalType": "uint256",
                  "name": "collateralDelta",
                  "type": "uint256"
                },
                {
                  "internalType": "uint8",
                  "name": "execNum",
                  "type": "uint8"
                },
                {
                  "internalType": "uint256[]",
                  "name": "inputs",
                  "type": "uint256[]"
                }
              ],
              "internalType": "struct MarketDataTypes.UpdatePositionInputs",
              "name": "inputs",
              "type": "tuple"
            },
            {
              "components": [
                {
                  "internalType": "address",
                  "name": "market",
                  "type": "address"
                },
                {
                  "internalType": "bool",
                  "name": "isLong",
                  "type": "bool"
                },
                {
                  "internalType": "uint32",
                  "name": "lastTime",
                  "type": "uint32"
                },
                {
                  "internalType": "uint216",
                  "name": "extra3",
                  "type": "uint216"
                },
                {
                  "internalType": "uint256",
                  "name": "size",
                  "type": "uint256"
                },
                {
                  "internalType": "uint256",
                  "name": "collateral",
                  "type": "uint256"
                },
                {
                  "internalType": "uint256",
                  "name": "averagePrice",
                  "type": "uint256"
                },
                {
                  "internalType": "int256",
                  "name": "entryFundingRate",
                  "type": "int256"
                },
                {
                  "internalType": "int256",
                  "name": "realisedPnl",
                  "type": "int256"
                },
                {
                  "internalType": "uint256",
                  "name": "extra0",
                  "type": "uint256"
                },
                {
                  "internalType": "uint256",
                  "name": "extra1",
                  "type": "uint256"
                },
                {
                  "internalType": "uint256",
                  "name": "extra2",
                  "type": "uint256"
                }
              ],
              "internalType": "struct Position.Props",
              "name": "position",
              "type": "tuple"
            },
            {
              "internalType": "int256[]",
              "name": "fees",
              "type": "int256[]"
            },
            {
              "internalType": "address",
              "name": "collateralToken",
              "type": "address"
            },
            {
              "internalType": "address",
              "name": "indexToken",
              "type": "address"
            },
            {
              "internalType": "int256",
              "name": "collateralDeltaAfter",
              "type": "int256"
            }
          ],
          "internalType": "struct MarketPositionCallBackIntl.UpdatePositionEvent",
          "name": "_event",
          "type": "tuple"
        }
      ],
      "name": "updatePositionCallback",
      "outputs": [],
      "stateMutability": "nonpayable",
      "type": "function"
    }
  ],
  "bytecode": "0x60806040523480156200001157600080fd5b5060006200001f336200007c565b6200003581620000ce60201b62000e881760201c565b506264656960e81b60005260066020527fde1e4f22c0daf720ff22ad02f927876864de7c1cb91180aa6f578afdf6ac939a80546001600160a01b03191630179055620001aa565b600180546001600160a01b038381166001600160a01b0319831681179093556040519116919082907f8be0079c531659141344cd1fd0a4f28419497f9722a3daafe3b4186f6b6457e090600090a35050565b42600255620000dd336200007c565b620000ea600033620000fa565b620000f7600082620000fa565b50565b6200010682826200010a565b5050565b6000828152602081815260408083206001600160a01b038516845290915290205460ff1662000106576000828152602081815260408083206001600160a01b03851684529091529020805460ff19166001179055620001663390565b6001600160a01b0316816001600160a01b0316837f2f8788117e7eff1d82e926ec794901d17c78024a50270940304540a733656f0d60405160405180910390a45050565b611b3f80620001ba6000396000f3fe608060405234801561001057600080fd5b50600436106101805760003560e01c806301ffc9a714610185578063039af9eb146101ad5780631582a018146101e9578063248a9ca3146102175780632f2ff15d1461022a57806336568abe1461023f57806336def2c8146102525780633fb8b3231461026557806340a542fe14610278578063534ef8831461028b578063544210d8146102ac57806356b4b2ad146102b9578063612c39b7146102cc578063715018a61461032257806371a6a7901461032a57806375829def1461034a578063766238db1461035d5780637fe4a69814610370578063836a01871461038357806385725b58146103965780638da5cb5b146103b657806391d14854146103d657806399d5c1ec146103e9578063a217fddf146103fc578063c8b3c46014610404578063d547741f1461042d578063d789732014610440578063dfcfa25014610460578063e1e01bf314610473578063e1f1c4a714610486578063ed8431341461048f578063f2fde38b146104a2575b600080fd5b6101986101933660046112b3565b6104b5565b60405190151581526020015b60405180910390f35b6101d46101bb3660046112dd565b6005602052600090815260409020805460019091015482565b604080519283526020830191909152016101a4565b6102096101f7366004611312565b60046020526000908152604090205481565b6040519081526020016101a4565b6102096102253660046112dd565b6104ec565b61023d61023836600461132d565b610501565b005b61023d61024d36600461132d565b610522565b61023d6102603660046112dd565b6105a5565b61023d610273366004611359565b610684565b61023d6102863660046116f5565b6106f4565b61029e610299366004611312565b61085f565b6040516101a49291906117c9565b6102096264656960e81b81565b61023d6102c7366004611359565b6108a5565b6040805160608082018352600080835260208084018290529284018190528351808301855260018082528185018381529186019283528551908152905115159381019390935251151592820192909252016101a4565b61023d6108c6565b610209610338366004611312565b60036020526000908152604090205481565b61023d610358366004611312565b6108da565b61023d61036b366004611359565b610904565b61023d61037e366004611312565b61098a565b61023d6103913660046117e0565b6109cc565b6102096103a4366004611312565b60076020526000908152604090205481565b6103be610ad4565b6040516001600160a01b0390911681526020016101a4565b6101986103e436600461132d565b610ae3565b61023d6103f736600461132d565b610b0c565b610209600081565b6103be6104123660046112dd565b6006602052600090815260409020546001600160a01b031681565b61023d61043b36600461132d565b610b9e565b61045361044e36600461180c565b610bba565b6040516101a4919061189c565b61023d61046e36600461132d565b610c98565b61023d6104813660046112dd565b610d25565b61020961271081565b61023d61049d36600461132d565b610d2f565b61023d6104b0366004611312565b610e12565b60006001600160e01b03198216637965db0b60e01b14806104e657506301ffc9a760e01b6001600160e01b03198316145b92915050565b60009081526020819052604090206001015490565b61050a826104ec565b61051381610eab565b61051d8383610eb5565b505050565b6001600160a01b03811633146105975760405162461bcd60e51b815260206004820152602f60248201527f416363657373436f6e74726f6c3a2063616e206f6e6c792072656e6f756e636560448201526e103937b632b9903337b91039b2b63360891b60648201526084015b60405180910390fd5b6105a18282610f39565b5050565b806105c25760405162461bcd60e51b815260040161058e906118e9565b6000818152600660205260409020546001600160a01b0316156106275760405162461bcd60e51b815260206004820152601d60248201527f526566657272616c3a20636f646520616c726561647920657869737473000000604482015260640161058e565b6000818152600660205260409081902080546001600160a01b0319163390811790915590517f04f82286a2a3b2ee5c8555de8304dfe2ea70991613213184b73a9e408d2d80299161067991849061191a565b60405180910390a150565b61069b600080516020611aea833981519152610eab565b6001600160a01b03821660009081526004602052604090819020829055517f7696855cdbb94bb5a44cb0a95caff6f29173aa1cbfba193834b12b90827ce2bc906106e8908490849061191a565b60405180910390a15050565b61070b600080516020611aca833981519152610eab565b60008061071f83600001516080015161085f565b9092509050816107755750815161016001516000908152600660205260409020546001600160a01b03168061075357505050565b825160808101516101609091015161076b9190610f9e565b8251610160015191505b82516060015115610811578251608081015160a09091015160408501517fc2414023ce7002ee98557d1e7be21e5559073336f2217ee5f9b2e50fd85f71ee929190600060ff16815181106107cb576107cb611933565b602090810291909101810151604080516001600160a01b0395861681529283019390935281830152606081018690529184166080830152519081900360a00190a1505050565b8251608081015160a09091015160408501517f474c763ff84bf2c2039a6d9fea955ecd0f724030e3c365b91169c6a16fe751b7929190600160ff16815181106107cb576107cb611933565b50565b6001600160a01b038116600090815260076020526040812054819081811561089b57506000818152600660205260409020546001600160a01b03165b9094909350915050565b6108bc600080516020611aea833981519152610eab565b6105a18282610f9e565b6108ce610feb565b6108d8600061104a565b565b60006108e581610eab565b6108f060008361109c565b6108f98261104a565b6105a1600033610f39565b61091b600080516020611aea833981519152610eab565b61271081111561093d5760405162461bcd60e51b815260040161058e90611949565b6001600160a01b03821660009081526003602052604090819020829055517fbd224f3917462b0fa80805fe3ec29be3a37f664955aad6224e5ece036224c429906106e8908490849061191a565b7f8d1089725c0dc266707fa6207730fb801dcd03108bfed7a21099bd303651d2b76109b481610eab565b6105a1600080516020611aca83398151915283610eb5565b6109e3600080516020611aea833981519152610eab565b612710821115610a355760405162461bcd60e51b815260206004820152601d60248201527f526566657272616c3a20696e76616c696420746f74616c526562617465000000604482015260640161058e565b612710811115610a575760405162461bcd60e51b815260040161058e90611949565b600083815260056020818152604080842081518083018352878152808401878152958990529383528351815593516001909401939093558251868152908101859052918201839052907f4ebd23a492b2bd79586cb57cae40d7793408265f20320f68b478b971e696f4c7906060015b60405180910390a150505050565b6001546001600160a01b031690565b6000918252602082815260408084206001600160a01b0393909316845291905290205460ff1690565b600080516020611aea8339815191526000610b278133610ae3565b90508015610b84576201518060025442610b419190611996565b10610b7f5760405162461bcd60e51b815260206004820152600e60248201526d1858c81d1a5b59481c185cdcd95960921b604482015260640161058e565b610b8e565b610b8e82336110a6565b610b988484610eb5565b50505050565b610ba7826104ec565b610bb081610eab565b61051d8383610f39565b6060600082516001600160401b03811115610bd757610bd7611383565b604051908082528060200260200182016040528015610c00578160200160208202803683370190505b50905060005b8351811015610c91576000848281518110610c2357610c23611933565b602002602001015190506006600082815260200190815260200160002060009054906101000a90046001600160a01b0316838381518110610c6657610c66611933565b6001600160a01b03909216602092830291909101909101525080610c89816119a9565b915050610c06565b5092915050565b610caf600080516020611aea833981519152610eab565b81610ccc5760405162461bcd60e51b815260040161058e906118e9565b6000828152600660205260409081902080546001600160a01b0319166001600160a01b038416179055517f6431f88c655dd0e2b8d09b6405c007c515c66d67f2998e69c902873a8c8f3e97906106e890849084906117c9565b61085c3382610f9e565b60008281526006602052604090205482906001600160a01b0316338114610d8e5760405162461bcd60e51b81526020600482015260136024820152722932b332b93930b61d103337b93134b23232b760691b604482015260640161058e565b83610dab5760405162461bcd60e51b815260040161058e906118e9565b60008481526006602090815260409182902080546001600160a01b0319166001600160a01b0387169081179091558251338152918201529081018590527f5640856798d41ce9ca0a109b54c20a06eb99ba9c36ab4547115dafb8473cf39790606001610ac6565b610e1a610feb565b6001600160a01b038116610e7f5760405162461bcd60e51b815260206004820152602660248201527f4f776e61626c653a206e6577206f776e657220697320746865207a65726f206160448201526564647265737360d01b606482015260840161058e565b61085c8161104a565b42600255610e953361104a565b610ea060003361109c565b61085c60008261109c565b61085c81336110a6565b610ebf8282610ae3565b6105a1576000828152602081815260408083206001600160a01b03851684529091529020805460ff19166001179055610ef53390565b6001600160a01b0316816001600160a01b0316837f2f8788117e7eff1d82e926ec794901d17c78024a50270940304540a733656f0d60405160405180910390a45050565b610f438282610ae3565b156105a1576000828152602081815260408083206001600160a01b0385168085529252808320805460ff1916905551339285917ff6391f5c32d9c69d2a47ea670b442974b53935d1edc7fd64eb21e047a839171b9190a45050565b6001600160a01b03821660009081526007602052604090819020829055517f43825f14567dda057e821be2e51a5aa79aa51f3907a647e3ed2bd486a01050f1906106e8908490849061191a565b33610ff4610ad4565b6001600160a01b0316146108d85760405162461bcd60e51b815260206004820181905260248201527f4f776e61626c653a2063616c6c6572206973206e6f7420746865206f776e6572604482015260640161058e565b600180546001600160a01b038381166001600160a01b0319831681179093556040519116919082907f8be0079c531659141344cd1fd0a4f28419497f9722a3daafe3b4186f6b6457e090600090a35050565b6105a18282610eb5565b6110b08282610ae3565b6105a1576110bd816110ff565b6110c8836020611111565b6040516020016110d99291906119e6565b60408051601f198184030181529082905262461bcd60e51b825261058e91600401611a55565b60606104e66001600160a01b03831660145b60606000611120836002611a88565b61112b906002611a9f565b6001600160401b0381111561114257611142611383565b6040519080825280601f01601f19166020018201604052801561116c576020820181803683370190505b509050600360fc1b8160008151811061118757611187611933565b60200101906001600160f81b031916908160001a905350600f60fb1b816001815181106111b6576111b6611933565b60200101906001600160f81b031916908160001a90535060006111da846002611a88565b6111e5906001611a9f565b90505b600181111561125d576f181899199a1a9b1b9c1cb0b131b232b360811b85600f166010811061121957611219611933565b1a60f81b82828151811061122f5761122f611933565b60200101906001600160f81b031916908160001a90535060049490941c9361125681611ab2565b90506111e8565b5083156112ac5760405162461bcd60e51b815260206004820181905260248201527f537472696e67733a20686578206c656e67746820696e73756666696369656e74604482015260640161058e565b9392505050565b6000602082840312156112c557600080fd5b81356001600160e01b0319811681146112ac57600080fd5b6000602082840312156112ef57600080fd5b5035919050565b80356001600160a01b038116811461130d57600080fd5b919050565b60006020828403121561132457600080fd5b6112ac826112f6565b6000806040838503121561134057600080fd5b82359150611350602084016112f6565b90509250929050565b6000806040838503121561136c57600080fd5b611375836112f6565b946020939093013593505050565b634e487b7160e01b600052604160045260246000fd5b6040516101e081016001600160401b03811182821017156113bc576113bc611383565b60405290565b60405161018081016001600160401b03811182821017156113bc576113bc611383565b60405160c081016001600160401b03811182821017156113bc576113bc611383565b604051601f8201601f191681016001600160401b038111828210171561142f5761142f611383565b604052919050565b8035801515811461130d57600080fd5b803560ff8116811461130d57600080fd5b80356001600160401b038116811461130d57600080fd5b60006001600160401b0382111561148857611488611383565b5060051b60200190565b600082601f8301126114a357600080fd5b813560206114b86114b38361146f565b611407565b82815260059290921b840181019181810190868411156114d757600080fd5b8286015b848110156114f257803583529183019183016114db565b509695505050505050565b60006101e0828403121561151057600080fd5b611518611399565b9050611523826112f6565b815261153160208301611437565b60208201526040820135604082015261154c60608301611437565b606082015261155d608083016112f6565b608082015260a082013560a082015260c082013560c082015260e082013560e082015261010061158e818401611437565b908201526101206115a0838201611447565b908201526101406115b2838201611458565b90820152610160828101359082015261018080830135908201526101a06115da818401611447565b908201526101c0828101356001600160401b038111156115f957600080fd5b61160585828601611492565b82840152505092915050565b803563ffffffff8116811461130d57600080fd5b80356001600160d81b038116811461130d57600080fd5b6000610180828403121561164f57600080fd5b6116576113c2565b9050611662826112f6565b815261167060208301611437565b602082015261168160408301611611565b604082015261169260608301611625565b60608201526080820135608082015260a082013560a082015260c082013560c082015260e082013560e082015261010080830135818301525061012080830135818301525061014080830135818301525061016080830135818301525092915050565b60006020828403121561170757600080fd5b81356001600160401b038082111561171e57600080fd5b90830190610220828603121561173357600080fd5b61173b6113e5565b82358281111561174a57600080fd5b611756878286016114fd565b825250611766866020850161163c565b60208201526101a08301358281111561177e57600080fd5b61178a87828601611492565b60408301525061179d6101c084016112f6565b60608201526117af6101e084016112f6565b6080820152610200929092013560a0830152509392505050565b9182526001600160a01b0316602082015260400190565b6000806000606084860312156117f557600080fd5b505081359360208301359350604090920135919050565b6000602080838503121561181f57600080fd5b82356001600160401b0381111561183557600080fd5b8301601f8101851361184657600080fd5b80356118546114b38261146f565b81815260059190911b8201830190838101908783111561187357600080fd5b928401925b8284101561189157833582529284019290840190611878565b979650505050505050565b6020808252825182820181905260009190848201906040850190845b818110156118dd5783516001600160a01b0316835292840192918401916001016118b8565b50909695505050505050565b602080825260179082015276526566657272616c3a20696e76616c6964205f636f646560481b604082015260600190565b6001600160a01b03929092168252602082015260400190565b634e487b7160e01b600052603260045260246000fd5b6020808252601f908201527f526566657272616c3a20696e76616c696420646973636f756e74536861726500604082015260600190565b634e487b7160e01b600052601160045260246000fd5b818103818111156104e6576104e6611980565b6000600182016119bb576119bb611980565b5060010190565b60005b838110156119dd5781810151838201526020016119c5565b50506000910152565b76020b1b1b2b9b9a1b7b73a3937b61d1030b1b1b7bab73a1604d1b815260008351611a188160178501602088016119c2565b7001034b99036b4b9b9b4b733903937b6329607d1b6017918401918201528351611a498160288401602088016119c2565b01602801949350505050565b6020815260008251806020840152611a748160408501602087016119c2565b601f01601f19169190910160400192915050565b80820281158282048414176104e6576104e6611980565b808201808211156104e6576104e6611980565b600081611ac157611ac1611980565b50600019019056fecb58d6d985142a614029cdf01861b4fe094d5919a47e69b8310dc4093d9d6ad0241ecf16d79d0f8dbfb92cbc07fe17840425976cf0667f022fe9877caa831b08a26469706673582212209e50cc5907406f82a04c1608ddf094bc4605fde8cafe5c03e0ff36f6f411c26164736f6c63430008110033",
  "linkReferences": {},
  "deployedLinkReferences": {}
}