{
  "_format": "hh-sol-artifact-1",
  "contractName": "Referral",
  "sourceName": "contracts/referral/Referral.sol",
  "abi": [
    {
      "anonymous": false,
      "inputs": [
        {
          "indexed": false,
          "internalType": "address",
          "name": "account",
          "type": "address"
        },
        {
          "indexed": false,
          "internalType": "uint256",
          "name": "sizeDelta",
          "type": "uint256"
        },
        {
          "indexed": false,
          "internalType": "uint256",
          "name": "marginFeeBasisPoints",
          "type": "uint256"
        },
        {
          "indexed": false,
          "internalType": "bytes32",
          "name": "referralCode",
          "type": "bytes32"
        },
        {
          "indexed": false,
          "internalType": "address",
          "name": "referrer",
          "type": "address"
        }
      ],
      "name": "DecreasePositionReferral",
      "type": "event"
    },
    {
      "anonymous": false,
      "inputs": [
        {
          "indexed": false,
          "internalType": "bytes32",
          "name": "code",
          "type": "bytes32"
        },
        {
          "indexed": false,
          "internalType": "address",
          "name": "newAccount",
          "type": "address"
        }
      ],
      "name": "GovSetCodeOwner",
      "type": "event"
    },
    {
      "anonymous": false,
      "inputs": [
        {
          "indexed": false,
          "internalType": "address",
          "name": "account",
          "type": "address"
        },
        {
          "indexed": false,
          "internalType": "uint256",
          "name": "sizeDelta",
          "type": "uint256"
        },
        {
          "indexed": false,
          "internalType": "uint256",
          "name": "marginFeeBasisPoints",
          "type": "uint256"
        },
        {
          "indexed": false,
          "internalType": "bytes32",
          "name": "referralCode",
          "type": "bytes32"
        },
        {
          "indexed": false,
          "internalType": "address",
          "name": "referrer",
          "type": "address"
        }
      ],
      "name": "IncreasePositionReferral",
      "type": "event"
    },
    {
      "anonymous": false,
      "inputs": [
        {
          "indexed": false,
          "internalType": "uint8",
          "name": "version",
          "type": "uint8"
        }
      ],
      "name": "Initialized",
      "type": "event"
    },
    {
      "anonymous": false,
      "inputs": [
        {
          "indexed": true,
          "internalType": "address",
          "name": "previousOwner",
          "type": "address"
        },
        {
          "indexed": true,
          "internalType": "address",
          "name": "newOwner",
          "type": "address"
        }
      ],
      "name": "OwnershipTransferred",
      "type": "event"
    },
    {
      "anonymous": false,
      "inputs": [
        {
          "indexed": false,
          "internalType": "address",
          "name": "account",
          "type": "address"
        },
        {
          "indexed": false,
          "internalType": "bytes32",
          "name": "code",
          "type": "bytes32"
        }
      ],
      "name": "RegisterCode",
      "type": "event"
    },
    {
      "anonymous": false,
      "inputs": [
        {
          "indexed": true,
          "internalType": "bytes32",
          "name": "role",
          "type": "bytes32"
        },
        {
          "indexed": true,
          "internalType": "bytes32",
          "name": "previousAdminRole",
          "type": "bytes32"
        },
        {
          "indexed": true,
          "internalType": "bytes32",
          "name": "newAdminRole",
          "type": "bytes32"
        }
      ],
      "name": "RoleAdminChanged",
      "type": "event"
    },
    {
      "anonymous": false,
      "inputs": [
        {
          "indexed": true,
          "internalType": "bytes32",
          "name": "role",
          "type": "bytes32"
        },
        {
          "indexed": true,
          "internalType": "address",
          "name": "account",
          "type": "address"
        },
        {
          "indexed": true,
          "internalType": "address",
          "name": "sender",
          "type": "address"
        }
      ],
      "name": "RoleGranted",
      "type": "event"
    },
    {
      "anonymous": false,
      "inputs": [
        {
          "indexed": true,
          "internalType": "bytes32",
          "name": "role",
          "type": "bytes32"
        },
        {
          "indexed": true,
          "internalType": "address",
          "name": "account",
          "type": "address"
        },
        {
          "indexed": true,
          "internalType": "address",
          "name": "sender",
          "type": "address"
        }
      ],
      "name": "RoleRevoked",
      "type": "event"
    },
    {
      "anonymous": false,
      "inputs": [
        {
          "indexed": false,
          "internalType": "address",
          "name": "account",
          "type": "address"
        },
        {
          "indexed": false,
          "internalType": "address",
          "name": "newAccount",
          "type": "address"
        },
        {
          "indexed": false,
          "internalType": "bytes32",
          "name": "code",
          "type": "bytes32"
        }
      ],
      "name": "SetCodeOwner",
      "type": "event"
    },
    {
      "anonymous": false,
      "inputs": [
        {
          "indexed": false,
          "internalType": "address",
          "name": "referrer",
          "type": "address"
        },
        {
          "indexed": false,
          "internalType": "uint256",
          "name": "discountShare",
          "type": "uint256"
        }
      ],
      "name": "SetReferrerDiscountShare",
      "type": "event"
    },
    {
      "anonymous": false,
      "inputs": [
        {
          "indexed": false,
          "internalType": "address",
          "name": "referrer",
          "type": "address"
        },
        {
          "indexed": false,
          "internalType": "uint256",
          "name": "tierId",
          "type": "uint256"
        }
      ],
      "name": "SetReferrerTier",
      "type": "event"
    },
    {
      "anonymous": false,
      "inputs": [
        {
          "indexed": false,
          "internalType": "uint256",
          "name": "tierId",
          "type": "uint256"
        },
        {
          "indexed": false,
          "internalType": "uint256",
          "name": "totalRebate",
          "type": "uint256"
        },
        {
          "indexed": false,
          "internalType": "uint256",
          "name": "discountShare",
          "type": "uint256"
        }
      ],
      "name": "SetTier",
      "type": "event"
    },
    {
      "anonymous": false,
      "inputs": [
        {
          "indexed": false,
          "internalType": "address",
          "name": "account",
          "type": "address"
        },
        {
          "indexed": false,
          "internalType": "bytes32",
          "name": "code",
          "type": "bytes32"
        }
      ],
      "name": "SetTraderReferralCode",
      "type": "event"
    },
    {
      "inputs": [],
      "name": "BASIS_POINTS",
      "outputs": [
        {
          "internalType": "uint256",
          "name": "",
          "type": "uint256"
        }
      ],
      "stateMutability": "view",
      "type": "function"
    },
    {
      "inputs": [],
      "name": "DEFAULT_ADMIN_ROLE",
      "outputs": [
        {
          "internalType": "bytes32",
          "name": "",
          "type": "bytes32"
        }
      ],
      "stateMutability": "view",
      "type": "function"
    },
    {
      "inputs": [],
      "name": "DEFAULT_CODE",
      "outputs": [
        {
          "internalType": "bytes32",
          "name": "",
          "type": "bytes32"
        }
      ],
      "stateMutability": "view",
      "type": "function"
    },
    {
      "inputs": [
        {
          "internalType": "bytes32",
          "name": "",
          "type": "bytes32"
        }
      ],
      "name": "codeOwners",
      "outputs": [
        {
          "internalType": "address",
          "name": "",
          "type": "address"
        }
      ],
      "stateMutability": "view",
      "type": "function"
    },
    {
      "inputs": [
        {
          "internalType": "bytes32[]",
          "name": "_codes",
          "type": "bytes32[]"
        }
      ],
      "name": "getCodeOwners",
      "outputs": [
        {
          "internalType": "address[]",
          "name": "",
          "type": "address[]"
        }
      ],
      "stateMutability": "view",
      "type": "function"
    },
    {
      "inputs": [],
      "name": "getHooksCalls",
      "outputs": [
        {
          "components": [
            {
              "internalType": "bool",
              "name": "updatePosition",
              "type": "bool"
            },
            {
              "internalType": "bool",
              "name": "updateOrder",
              "type": "bool"
            },
            {
              "internalType": "bool",
              "name": "deleteOrder",
              "type": "bool"
            }
          ],
          "internalType": "struct MarketCallBackIntl.Calls",
          "name": "",
          "type": "tuple"
        }
      ],
      "stateMutability": "pure",
      "type": "function"
    },
    {
      "inputs": [
        {
          "internalType": "bytes32",
          "name": "role",
          "type": "bytes32"
        }
      ],
      "name": "getRoleAdmin",
      "outputs": [
        {
          "internalType": "bytes32",
          "name": "",
          "type": "bytes32"
        }
      ],
      "stateMutability": "view",
      "type": "function"
    },
    {
      "inputs": [
        {
          "internalType": "address",
          "name": "_account",
          "type": "address"
        }
      ],
      "name": "getTraderReferralInfo",
      "outputs": [
        {
          "internalType": "bytes32",
          "name": "",
          "type": "bytes32"
        },
        {
          "internalType": "address",
          "name": "",
          "type": "address"
        }
      ],
      "stateMutability": "view",
      "type": "function"
    },
    {
      "inputs": [
        {
          "internalType": "bytes32",
          "name": "_code",
          "type": "bytes32"
        },
        {
          "internalType": "address",
          "name": "_newAccount",
          "type": "address"
        }
      ],
      "name": "govSetCodeOwner",
      "outputs": [],
      "stateMutability": "nonpayable",
      "type": "function"
    },
    {
      "inputs": [
        {
          "internalType": "bytes32",
          "name": "role",
          "type": "bytes32"
        },
        {
          "internalType": "address",
          "name": "account",
          "type": "address"
        }
      ],
      "name": "grantAndRevoke",
      "outputs": [],
      "stateMutability": "nonpayable",
      "type": "function"
    },
    {
      "inputs": [
        {
          "internalType": "address",
          "name": "_account",
          "type": "address"
        }
      ],
      "name": "grantControllerRoleByMarketManager",
      "outputs": [],
      "stateMutability": "nonpayable",
      "type": "function"
    },
    {
      "inputs": [
        {
          "internalType": "bytes32",
          "name": "role",
          "type": "bytes32"
        },
        {
          "internalType": "address",
          "name": "account",
          "type": "address"
        }
      ],
      "name": "grantRole",
      "outputs": [],
      "stateMutability": "nonpayable",
      "type": "function"
    },
    {
      "inputs": [
        {
          "internalType": "bytes32",
          "name": "role",
          "type": "bytes32"
        },
        {
          "internalType": "address",
          "name": "account",
          "type": "address"
        }
      ],
      "name": "hasRole",
      "outputs": [
        {
          "internalType": "bool",
          "name": "",
          "type": "bool"
        }
      ],
      "stateMutability": "view",
      "type": "function"
    },
    {
      "inputs": [],
      "name": "initialize",
      "outputs": [],
      "stateMutability": "nonpayable",
      "type": "function"
    },
    {
      "inputs": [],
      "name": "owner",
      "outputs": [
        {
          "internalType": "address",
          "name": "",
          "type": "address"
        }
      ],
      "stateMutability": "view",
      "type": "function"
    },
    {
      "inputs": [
        {
          "internalType": "address",
          "name": "",
          "type": "address"
        }
      ],
      "name": "referrerDiscountShares",
      "outputs": [
        {
          "internalType": "uint256",
          "name": "",
          "type": "uint256"
        }
      ],
      "stateMutability": "view",
      "type": "function"
    },
    {
      "inputs": [
        {
          "internalType": "address",
          "name": "",
          "type": "address"
        }
      ],
      "name": "referrerTiers",
      "outputs": [
        {
          "internalType": "uint256",
          "name": "",
          "type": "uint256"
        }
      ],
      "stateMutability": "view",
      "type": "function"
    },
    {
      "inputs": [
        {
          "internalType": "bytes32",
          "name": "_code",
          "type": "bytes32"
        }
      ],
      "name": "registerCode",
      "outputs": [],
      "stateMutability": "nonpayable",
      "type": "function"
    },
    {
      "inputs": [],
      "name": "renounceOwnership",
      "outputs": [],
      "stateMutability": "nonpayable",
      "type": "function"
    },
    {
      "inputs": [
        {
          "internalType": "bytes32",
          "name": "role",
          "type": "bytes32"
        },
        {
          "internalType": "address",
          "name": "account",
          "type": "address"
        }
      ],
      "name": "renounceRole",
      "outputs": [],
      "stateMutability": "nonpayable",
      "type": "function"
    },
    {
      "inputs": [
        {
          "internalType": "bytes32",
          "name": "role",
          "type": "bytes32"
        },
        {
          "internalType": "address",
          "name": "account",
          "type": "address"
        }
      ],
      "name": "revokeRole",
      "outputs": [],
      "stateMutability": "nonpayable",
      "type": "function"
    },
    {
      "inputs": [
        {
          "internalType": "bytes32",
          "name": "_code",
          "type": "bytes32"
        },
        {
          "internalType": "address",
          "name": "_newAccount",
          "type": "address"
        }
      ],
      "name": "setCodeOwner",
      "outputs": [],
      "stateMutability": "nonpayable",
      "type": "function"
    },
    {
      "inputs": [
        {
          "internalType": "address",
          "name": "_account",
          "type": "address"
        },
        {
          "internalType": "uint256",
          "name": "_discountShare",
          "type": "uint256"
        }
      ],
      "name": "setReferrerDiscountShare",
      "outputs": [],
      "stateMutability": "nonpayable",
      "type": "function"
    },
    {
      "inputs": [
        {
          "internalType": "address",
          "name": "_referrer",
          "type": "address"
        },
        {
          "internalType": "uint256",
          "name": "_tierId",
          "type": "uint256"
        }
      ],
      "name": "setReferrerTier",
      "outputs": [],
      "stateMutability": "nonpayable",
      "type": "function"
    },
    {
      "inputs": [
        {
          "internalType": "uint256",
          "name": "_tierId",
          "type": "uint256"
        },
        {
          "internalType": "uint256",
          "name": "_totalRebate",
          "type": "uint256"
        },
        {
          "internalType": "uint256",
          "name": "_discountShare",
          "type": "uint256"
        }
      ],
      "name": "setTier",
      "outputs": [],
      "stateMutability": "nonpayable",
      "type": "function"
    },
    {
      "inputs": [
        {
          "internalType": "address",
          "name": "_account",
          "type": "address"
        },
        {
          "internalType": "bytes32",
          "name": "_code",
          "type": "bytes32"
        }
      ],
      "name": "setTraderReferralCode",
      "outputs": [],
      "stateMutability": "nonpayable",
      "type": "function"
    },
    {
      "inputs": [
        {
          "internalType": "bytes32",
          "name": "_code",
          "type": "bytes32"
        }
      ],
      "name": "setTraderReferralCodeByUser",
      "outputs": [],
      "stateMutability": "nonpayable",
      "type": "function"
    },
    {
      "inputs": [
        {
          "internalType": "bytes4",
          "name": "interfaceId",
          "type": "bytes4"
        }
      ],
      "name": "supportsInterface",
      "outputs": [
        {
          "internalType": "bool",
          "name": "",
          "type": "bool"
        }
      ],
      "stateMutability": "view",
      "type": "function"
    },
    {
      "inputs": [
        {
          "internalType": "uint256",
          "name": "",
          "type": "uint256"
        }
      ],
      "name": "tiers",
      "outputs": [
        {
          "internalType": "uint256",
          "name": "totalRebate",
          "type": "uint256"
        },
        {
          "internalType": "uint256",
          "name": "discountShare",
          "type": "uint256"
        }
      ],
      "stateMutability": "view",
      "type": "function"
    },
    {
      "inputs": [
        {
          "internalType": "address",
          "name": "",
          "type": "address"
        }
      ],
      "name": "traderReferralCodes",
      "outputs": [
        {
          "internalType": "bytes32",
          "name": "",
          "type": "bytes32"
        }
      ],
      "stateMutability": "view",
      "type": "function"
    },
    {
      "inputs": [
        {
          "internalType": "address",
          "name": "to",
          "type": "address"
        }
      ],
      "name": "transferAdmin",
      "outputs": [],
      "stateMutability": "nonpayable",
      "type": "function"
    },
    {
      "inputs": [
        {
          "internalType": "address",
          "name": "newOwner",
          "type": "address"
        }
      ],
      "name": "transferOwnership",
      "outputs": [],
      "stateMutability": "nonpayable",
      "type": "function"
    },
    {
      "inputs": [
        {
          "components": [
            {
              "components": [
                {
                  "internalType": "address",
                  "name": "_market",
                  "type": "address"
                },
                {
                  "internalType": "bool",
                  "name": "_isLong",
                  "type": "bool"
                },
                {
                  "internalType": "uint256",
                  "name": "_oraclePrice",
                  "type": "uint256"
                },
                {
                  "internalType": "bool",
                  "name": "isOpen",
                  "type": "bool"
                },
                {
                  "internalType": "address",
                  "name": "_account",
                  "type": "address"
                },
                {
                  "internalType": "uint256",
                  "name": "_sizeDelta",
                  "type": "uint256"
                },
                {
                  "internalType": "uint256",
                  "name": "_price",
                  "type": "uint256"
                },
                {
                  "internalType": "uint256",
                  "name": "_slippage",
                  "type": "uint256"
                },
                {
                  "internalType": "bool",
                  "name": "_isExec",
                  "type": "bool"
                },
                {
                  "internalType": "uint8",
                  "name": "liqState",
                  "type": "uint8"
                },
                {
                  "internalType": "uint64",
                  "name": "_fromOrder",
                  "type": "uint64"
                },
                {
                  "internalType": "bytes32",
                  "name": "_refCode",
                  "type": "bytes32"
                },
                {
                  "internalType": "uint256",
                  "name": "collateralDelta",
                  "type": "uint256"
                },
                {
                  "internalType": "uint8",
                  "name": "execNum",
                  "type": "uint8"
                },
                {
                  "internalType": "uint256[]",
                  "name": "inputs",
                  "type": "uint256[]"
                }
              ],
              "internalType": "struct MarketDataTypes.UpdatePositionInputs",
              "name": "inputs",
              "type": "tuple"
            },
            {
              "components": [
                {
                  "internalType": "address",
                  "name": "market",
                  "type": "address"
                },
                {
                  "internalType": "bool",
                  "name": "isLong",
                  "type": "bool"
                },
                {
                  "internalType": "uint32",
                  "name": "lastTime",
                  "type": "uint32"
                },
                {
                  "internalType": "uint216",
                  "name": "extra3",
                  "type": "uint216"
                },
                {
                  "internalType": "uint256",
                  "name": "size",
                  "type": "uint256"
                },
                {
                  "internalType": "uint256",
                  "name": "collateral",
                  "type": "uint256"
                },
                {
                  "internalType": "uint256",
                  "name": "averagePrice",
                  "type": "uint256"
                },
                {
                  "internalType": "int256",
                  "name": "entryFundingRate",
                  "type": "int256"
                },
                {
                  "internalType": "int256",
                  "name": "realisedPnl",
                  "type": "int256"
                },
                {
                  "internalType": "uint256",
                  "name": "extra0",
                  "type": "uint256"
                },
                {
                  "internalType": "uint256",
                  "name": "extra1",
                  "type": "uint256"
                },
                {
                  "internalType": "uint256",
                  "name": "extra2",
                  "type": "uint256"
                }
              ],
              "internalType": "struct Position.Props",
              "name": "position",
              "type": "tuple"
            },
            {
              "internalType": "int256[]",
              "name": "fees",
              "type": "int256[]"
            },
            {
              "internalType": "address",
              "name": "collateralToken",
              "type": "address"
            },
            {
              "internalType": "address",
              "name": "indexToken",
              "type": "address"
            },
            {
              "internalType": "int256",
              "name": "collateralDeltaAfter",
              "type": "int256"
            }
          ],
          "internalType": "struct MarketPositionCallBackIntl.UpdatePositionEvent",
          "name": "_event",
          "type": "tuple"
        }
      ],
      "name": "updatePositionCallback",
      "outputs": [],
      "stateMutability": "nonpayable",
      "type": "function"
    }
  ],
  "bytecode": "0x608060405234801561001057600080fd5b5061001a3361001f565b610071565b600180546001600160a01b038381166001600160a01b0319831681179093556040519116919082907f8be0079c531659141344cd1fd0a4f28419497f9722a3daafe3b4186f6b6457e090600090a35050565b611cb4806100806000396000f3fe608060405234801561001057600080fd5b506004361061018b5760003560e01c806301ffc9a714610190578063039af9eb146101b85780631582a018146101f4578063248a9ca3146102225780632f2ff15d1461023557806336568abe1461024a57806336def2c81461025d5780633fb8b3231461027057806340a542fe14610283578063534ef88314610296578063544210d8146102b757806356b4b2ad146102c4578063612c39b7146102d7578063715018a61461032d57806371a6a7901461033557806375829def14610355578063766238db146103685780637fe4a6981461037b5780638129fc1c1461038e578063836a01871461039657806385725b58146103a95780638da5cb5b146103c957806391d14854146103e957806399d5c1ec146103fc578063a217fddf1461040f578063c8b3c46014610417578063d547741f14610440578063d789732014610453578063dfcfa25014610473578063e1e01bf314610486578063e1f1c4a714610499578063ed843134146104a2578063f2fde38b146104b5575b600080fd5b6101a361019e366004611428565b6104c8565b60405190151581526020015b60405180910390f35b6101df6101c6366004611452565b6005602052600090815260409020805460019091015482565b604080519283526020830191909152016101af565b610214610202366004611487565b60046020526000908152604090205481565b6040519081526020016101af565b610214610230366004611452565b6104ff565b6102486102433660046114a2565b610514565b005b6102486102583660046114a2565b610535565b61024861026b366004611452565b6105b8565b61024861027e3660046114ce565b610697565b61024861029136600461186a565b610707565b6102a96102a4366004611487565b610872565b6040516101af92919061193e565b6102146264656960e81b81565b6102486102d23660046114ce565b6108b8565b6040805160608082018352600080835260208084018290529284018190528351808301855260018082528185018381529186019283528551908152905115159381019390935251151592820192909252016101af565b6102486108d9565b610214610343366004611487565b60036020526000908152604090205481565b610248610363366004611487565b6108ed565b6102486103763660046114ce565b610917565b610248610389366004611487565b61099d565b6102486109df565b6102486103a4366004611955565b610b41565b6102146103b7366004611487565b60076020526000908152604090205481565b6103d1610c49565b6040516001600160a01b0390911681526020016101af565b6101a36103f73660046114a2565b610c58565b61024861040a3660046114a2565b610c81565b610214600081565b6103d1610425366004611452565b6006602052600090815260409020546001600160a01b031681565b61024861044e3660046114a2565b610d13565b610466610461366004611981565b610d2f565b6040516101af9190611a11565b6102486104813660046114a2565b610e0d565b610248610494366004611452565b610e9a565b61021461271081565b6102486104b03660046114a2565b610ea4565b6102486104c3366004611487565b610f87565b60006001600160e01b03198216637965db0b60e01b14806104f957506301ffc9a760e01b6001600160e01b03198316145b92915050565b60009081526020819052604090206001015490565b61051d826104ff565b61052681610ffd565b6105308383611007565b505050565b6001600160a01b03811633146105aa5760405162461bcd60e51b815260206004820152602f60248201527f416363657373436f6e74726f6c3a2063616e206f6e6c792072656e6f756e636560448201526e103937b632b9903337b91039b2b63360891b60648201526084015b60405180910390fd5b6105b4828261108b565b5050565b806105d55760405162461bcd60e51b81526004016105a190611a5e565b6000818152600660205260409020546001600160a01b03161561063a5760405162461bcd60e51b815260206004820152601d60248201527f526566657272616c3a20636f646520616c72656164792065786973747300000060448201526064016105a1565b6000818152600660205260409081902080546001600160a01b0319163390811790915590517f04f82286a2a3b2ee5c8555de8304dfe2ea70991613213184b73a9e408d2d80299161068c918490611a8f565b60405180910390a150565b6106ae600080516020611c5f833981519152610ffd565b6001600160a01b03821660009081526004602052604090819020829055517f7696855cdbb94bb5a44cb0a95caff6f29173aa1cbfba193834b12b90827ce2bc906106fb9084908490611a8f565b60405180910390a15050565b61071e600080516020611c3f833981519152610ffd565b600080610732836000015160800151610872565b9092509050816107885750815161016001516000908152600660205260409020546001600160a01b03168061076657505050565b825160808101516101609091015161077e91906110f0565b8251610160015191505b82516060015115610824578251608081015160a09091015160408501517fc2414023ce7002ee98557d1e7be21e5559073336f2217ee5f9b2e50fd85f71ee929190600060ff16815181106107de576107de611aa8565b602090810291909101810151604080516001600160a01b0395861681529283019390935281830152606081018690529184166080830152519081900360a00190a1505050565b8251608081015160a09091015160408501517f474c763ff84bf2c2039a6d9fea955ecd0f724030e3c365b91169c6a16fe751b7929190600160ff16815181106107de576107de611aa8565b50565b6001600160a01b03811660009081526007602052604081205481908181156108ae57506000818152600660205260409020546001600160a01b03165b9094909350915050565b6108cf600080516020611c5f833981519152610ffd565b6105b482826110f0565b6108e161113d565b6108eb600061119c565b565b60006108f881610ffd565b6109036000836111ee565b61090c8261119c565b6105b460003361108b565b61092e600080516020611c5f833981519152610ffd565b6127108111156109505760405162461bcd60e51b81526004016105a190611abe565b6001600160a01b03821660009081526003602052604090819020829055517fbd224f3917462b0fa80805fe3ec29be3a37f664955aad6224e5ece036224c429906106fb9084908490611a8f565b7f8d1089725c0dc266707fa6207730fb801dcd03108bfed7a21099bd303651d2b76109c781610ffd565b6105b4600080516020611c3f83398151915283611007565b600154600160a81b900460ff1615808015610a05575060018054600160a01b900460ff16105b80610a255750303b158015610a25575060018054600160a01b900460ff16145b610a885760405162461bcd60e51b815260206004820152602e60248201527f496e697469616c697a61626c653a20636f6e747261637420697320616c72656160448201526d191e481a5b9a5d1a585b1a5e995960921b60648201526084016105a1565b6001805460ff60a01b1916600160a01b1790558015610ab5576001805460ff60a81b1916600160a81b1790555b610abe336111f8565b6264656960e81b60005260066020527fde1e4f22c0daf720ff22ad02f927876864de7c1cb91180aa6f578afdf6ac939a80546001600160a01b03191630179055801561086f576001805460ff60a81b191681556040519081527f7f26b83ff96e1f2b6a682f133852f6798a09c465da95921460cefb38474024989060200161068c565b610b58600080516020611c5f833981519152610ffd565b612710821115610baa5760405162461bcd60e51b815260206004820152601d60248201527f526566657272616c3a20696e76616c696420746f74616c52656261746500000060448201526064016105a1565b612710811115610bcc5760405162461bcd60e51b81526004016105a190611abe565b600083815260056020818152604080842081518083018352878152808401878152958990529383528351815593516001909401939093558251868152908101859052918201839052907f4ebd23a492b2bd79586cb57cae40d7793408265f20320f68b478b971e696f4c7906060015b60405180910390a150505050565b6001546001600160a01b031690565b6000918252602082815260408084206001600160a01b0393909316845291905290205460ff1690565b600080516020611c5f8339815191526000610c9c8133610c58565b90508015610cf9576201518060025442610cb69190611b0b565b10610cf45760405162461bcd60e51b815260206004820152600e60248201526d1858c81d1a5b59481c185cdcd95960921b60448201526064016105a1565b610d03565b610d03823361121b565b610d0d8484611007565b50505050565b610d1c826104ff565b610d2581610ffd565b610530838361108b565b6060600082516001600160401b03811115610d4c57610d4c6114f8565b604051908082528060200260200182016040528015610d75578160200160208202803683370190505b50905060005b8351811015610e06576000848281518110610d9857610d98611aa8565b602002602001015190506006600082815260200190815260200160002060009054906101000a90046001600160a01b0316838381518110610ddb57610ddb611aa8565b6001600160a01b03909216602092830291909101909101525080610dfe81611b1e565b915050610d7b565b5092915050565b610e24600080516020611c5f833981519152610ffd565b81610e415760405162461bcd60e51b81526004016105a190611a5e565b6000828152600660205260409081902080546001600160a01b0319166001600160a01b038416179055517f6431f88c655dd0e2b8d09b6405c007c515c66d67f2998e69c902873a8c8f3e97906106fb908490849061193e565b61086f33826110f0565b60008281526006602052604090205482906001600160a01b0316338114610f035760405162461bcd60e51b81526020600482015260136024820152722932b332b93930b61d103337b93134b23232b760691b60448201526064016105a1565b83610f205760405162461bcd60e51b81526004016105a190611a5e565b60008481526006602090815260409182902080546001600160a01b0319166001600160a01b0387169081179091558251338152918201529081018590527f5640856798d41ce9ca0a109b54c20a06eb99ba9c36ab4547115dafb8473cf39790606001610c3b565b610f8f61113d565b6001600160a01b038116610ff45760405162461bcd60e51b815260206004820152602660248201527f4f776e61626c653a206e6577206f776e657220697320746865207a65726f206160448201526564647265737360d01b60648201526084016105a1565b61086f8161119c565b61086f813361121b565b6110118282610c58565b6105b4576000828152602081815260408083206001600160a01b03851684529091529020805460ff191660011790556110473390565b6001600160a01b0316816001600160a01b0316837f2f8788117e7eff1d82e926ec794901d17c78024a50270940304540a733656f0d60405160405180910390a45050565b6110958282610c58565b156105b4576000828152602081815260408083206001600160a01b0385168085529252808320805460ff1916905551339285917ff6391f5c32d9c69d2a47ea670b442974b53935d1edc7fd64eb21e047a839171b9190a45050565b6001600160a01b03821660009081526007602052604090819020829055517f43825f14567dda057e821be2e51a5aa79aa51f3907a647e3ed2bd486a01050f1906106fb9084908490611a8f565b33611146610c49565b6001600160a01b0316146108eb5760405162461bcd60e51b815260206004820181905260248201527f4f776e61626c653a2063616c6c6572206973206e6f7420746865206f776e657260448201526064016105a1565b600180546001600160a01b038381166001600160a01b0319831681179093556040519116919082907f8be0079c531659141344cd1fd0a4f28419497f9722a3daafe3b4186f6b6457e090600090a35050565b6105b48282611007565b426002556112053361119c565b6112106000336111ee565b61086f6000826111ee565b6112258282610c58565b6105b45761123281611274565b61123d836020611286565b60405160200161124e929190611b5b565b60408051601f198184030181529082905262461bcd60e51b82526105a191600401611bca565b60606104f96001600160a01b03831660145b60606000611295836002611bfd565b6112a0906002611c14565b6001600160401b038111156112b7576112b76114f8565b6040519080825280601f01601f1916602001820160405280156112e1576020820181803683370190505b509050600360fc1b816000815181106112fc576112fc611aa8565b60200101906001600160f81b031916908160001a905350600f60fb1b8160018151811061132b5761132b611aa8565b60200101906001600160f81b031916908160001a905350600061134f846002611bfd565b61135a906001611c14565b90505b60018111156113d2576f181899199a1a9b1b9c1cb0b131b232b360811b85600f166010811061138e5761138e611aa8565b1a60f81b8282815181106113a4576113a4611aa8565b60200101906001600160f81b031916908160001a90535060049490941c936113cb81611c27565b905061135d565b5083156114215760405162461bcd60e51b815260206004820181905260248201527f537472696e67733a20686578206c656e67746820696e73756666696369656e7460448201526064016105a1565b9392505050565b60006020828403121561143a57600080fd5b81356001600160e01b03198116811461142157600080fd5b60006020828403121561146457600080fd5b5035919050565b80356001600160a01b038116811461148257600080fd5b919050565b60006020828403121561149957600080fd5b6114218261146b565b600080604083850312156114b557600080fd5b823591506114c56020840161146b565b90509250929050565b600080604083850312156114e157600080fd5b6114ea8361146b565b946020939093013593505050565b634e487b7160e01b600052604160045260246000fd5b6040516101e081016001600160401b0381118282101715611531576115316114f8565b60405290565b60405161018081016001600160401b0381118282101715611531576115316114f8565b60405160c081016001600160401b0381118282101715611531576115316114f8565b604051601f8201601f191681016001600160401b03811182821017156115a4576115a46114f8565b604052919050565b8035801515811461148257600080fd5b803560ff8116811461148257600080fd5b80356001600160401b038116811461148257600080fd5b60006001600160401b038211156115fd576115fd6114f8565b5060051b60200190565b600082601f83011261161857600080fd5b8135602061162d611628836115e4565b61157c565b82815260059290921b8401810191818101908684111561164c57600080fd5b8286015b848110156116675780358352918301918301611650565b509695505050505050565b60006101e0828403121561168557600080fd5b61168d61150e565b90506116988261146b565b81526116a6602083016115ac565b6020820152604082013560408201526116c1606083016115ac565b60608201526116d26080830161146b565b608082015260a082013560a082015260c082013560c082015260e082013560e08201526101006117038184016115ac565b908201526101206117158382016115bc565b908201526101406117278382016115cd565b90820152610160828101359082015261018080830135908201526101a061174f8184016115bc565b908201526101c0828101356001600160401b0381111561176e57600080fd5b61177a85828601611607565b82840152505092915050565b803563ffffffff8116811461148257600080fd5b80356001600160d81b038116811461148257600080fd5b600061018082840312156117c457600080fd5b6117cc611537565b90506117d78261146b565b81526117e5602083016115ac565b60208201526117f660408301611786565b60408201526118076060830161179a565b60608201526080820135608082015260a082013560a082015260c082013560c082015260e082013560e082015261010080830135818301525061012080830135818301525061014080830135818301525061016080830135818301525092915050565b60006020828403121561187c57600080fd5b81356001600160401b038082111561189357600080fd5b9083019061022082860312156118a857600080fd5b6118b061155a565b8235828111156118bf57600080fd5b6118cb87828601611672565b8252506118db86602085016117b1565b60208201526101a0830135828111156118f357600080fd5b6118ff87828601611607565b6040830152506119126101c0840161146b565b60608201526119246101e0840161146b565b6080820152610200929092013560a0830152509392505050565b9182526001600160a01b0316602082015260400190565b60008060006060848603121561196a57600080fd5b505081359360208301359350604090920135919050565b6000602080838503121561199457600080fd5b82356001600160401b038111156119aa57600080fd5b8301601f810185136119bb57600080fd5b80356119c9611628826115e4565b81815260059190911b820183019083810190878311156119e857600080fd5b928401925b82841015611a06578335825292840192908401906119ed565b979650505050505050565b6020808252825182820181905260009190848201906040850190845b81811015611a525783516001600160a01b031683529284019291840191600101611a2d565b50909695505050505050565b602080825260179082015276526566657272616c3a20696e76616c6964205f636f646560481b604082015260600190565b6001600160a01b03929092168252602082015260400190565b634e487b7160e01b600052603260045260246000fd5b6020808252601f908201527f526566657272616c3a20696e76616c696420646973636f756e74536861726500604082015260600190565b634e487b7160e01b600052601160045260246000fd5b818103818111156104f9576104f9611af5565b600060018201611b3057611b30611af5565b5060010190565b60005b83811015611b52578181015183820152602001611b3a565b50506000910152565b76020b1b1b2b9b9a1b7b73a3937b61d1030b1b1b7bab73a1604d1b815260008351611b8d816017850160208801611b37565b7001034b99036b4b9b9b4b733903937b6329607d1b6017918401918201528351611bbe816028840160208801611b37565b01602801949350505050565b6020815260008251806020840152611be9816040850160208701611b37565b601f01601f19169190910160400192915050565b80820281158282048414176104f9576104f9611af5565b808201808211156104f9576104f9611af5565b600081611c3657611c36611af5565b50600019019056fecb58d6d985142a614029cdf01861b4fe094d5919a47e69b8310dc4093d9d6ad0241ecf16d79d0f8dbfb92cbc07fe17840425976cf0667f022fe9877caa831b08a26469706673582212205a875c6f83434ca36b691e71956472569308191e48951c4c4ef6044e6feb769364736f6c63430008110033",
  "linkReferences": {},
  "deployedLinkReferences": {}
}