{
  "_format": "hh-sol-artifact-1",
  "contractName": "Referral",
  "sourceName": "contracts/referral/Referral.sol",
  "abi": [
    {
      "anonymous": false,
      "inputs": [
        {
          "indexed": false,
          "internalType": "address",
          "name": "account",
          "type": "address"
        },
        {
          "indexed": false,
          "internalType": "uint256",
          "name": "sizeDelta",
          "type": "uint256"
        },
        {
          "indexed": false,
          "internalType": "uint256",
          "name": "marginFeeBasisPoints",
          "type": "uint256"
        },
        {
          "indexed": false,
          "internalType": "bytes32",
          "name": "referralCode",
          "type": "bytes32"
        },
        {
          "indexed": false,
          "internalType": "address",
          "name": "referrer",
          "type": "address"
        }
      ],
      "name": "DecreasePositionReferral",
      "type": "event"
    },
    {
      "anonymous": false,
      "inputs": [
        {
          "indexed": false,
          "internalType": "bytes32",
          "name": "code",
          "type": "bytes32"
        },
        {
          "indexed": false,
          "internalType": "address",
          "name": "newAccount",
          "type": "address"
        }
      ],
      "name": "GovSetCodeOwner",
      "type": "event"
    },
    {
      "anonymous": false,
      "inputs": [
        {
          "indexed": false,
          "internalType": "address",
          "name": "account",
          "type": "address"
        },
        {
          "indexed": false,
          "internalType": "uint256",
          "name": "sizeDelta",
          "type": "uint256"
        },
        {
          "indexed": false,
          "internalType": "uint256",
          "name": "marginFeeBasisPoints",
          "type": "uint256"
        },
        {
          "indexed": false,
          "internalType": "bytes32",
          "name": "referralCode",
          "type": "bytes32"
        },
        {
          "indexed": false,
          "internalType": "address",
          "name": "referrer",
          "type": "address"
        }
      ],
      "name": "IncreasePositionReferral",
      "type": "event"
    },
    {
      "anonymous": false,
      "inputs": [
        {
          "indexed": false,
          "internalType": "uint8",
          "name": "version",
          "type": "uint8"
        }
      ],
      "name": "Initialized",
      "type": "event"
    },
    {
      "anonymous": false,
      "inputs": [
        {
          "indexed": true,
          "internalType": "address",
          "name": "previousOwner",
          "type": "address"
        },
        {
          "indexed": true,
          "internalType": "address",
          "name": "newOwner",
          "type": "address"
        }
      ],
      "name": "OwnershipTransferred",
      "type": "event"
    },
    {
      "anonymous": false,
      "inputs": [
        {
          "indexed": false,
          "internalType": "address",
          "name": "account",
          "type": "address"
        },
        {
          "indexed": false,
          "internalType": "bytes32",
          "name": "code",
          "type": "bytes32"
        }
      ],
      "name": "RegisterCode",
      "type": "event"
    },
    {
      "anonymous": false,
      "inputs": [
        {
          "indexed": true,
          "internalType": "bytes32",
          "name": "role",
          "type": "bytes32"
        },
        {
          "indexed": true,
          "internalType": "bytes32",
          "name": "previousAdminRole",
          "type": "bytes32"
        },
        {
          "indexed": true,
          "internalType": "bytes32",
          "name": "newAdminRole",
          "type": "bytes32"
        }
      ],
      "name": "RoleAdminChanged",
      "type": "event"
    },
    {
      "anonymous": false,
      "inputs": [
        {
          "indexed": true,
          "internalType": "bytes32",
          "name": "role",
          "type": "bytes32"
        },
        {
          "indexed": true,
          "internalType": "address",
          "name": "account",
          "type": "address"
        },
        {
          "indexed": true,
          "internalType": "address",
          "name": "sender",
          "type": "address"
        }
      ],
      "name": "RoleGranted",
      "type": "event"
    },
    {
      "anonymous": false,
      "inputs": [
        {
          "indexed": true,
          "internalType": "bytes32",
          "name": "role",
          "type": "bytes32"
        },
        {
          "indexed": true,
          "internalType": "address",
          "name": "account",
          "type": "address"
        },
        {
          "indexed": true,
          "internalType": "address",
          "name": "sender",
          "type": "address"
        }
      ],
      "name": "RoleRevoked",
      "type": "event"
    },
    {
      "anonymous": false,
      "inputs": [
        {
          "indexed": false,
          "internalType": "address",
          "name": "account",
          "type": "address"
        },
        {
          "indexed": false,
          "internalType": "address",
          "name": "newAccount",
          "type": "address"
        },
        {
          "indexed": false,
          "internalType": "bytes32",
          "name": "code",
          "type": "bytes32"
        }
      ],
      "name": "SetCodeOwner",
      "type": "event"
    },
    {
      "anonymous": false,
      "inputs": [
        {
          "indexed": false,
          "internalType": "address",
          "name": "referrer",
          "type": "address"
        },
        {
          "indexed": false,
          "internalType": "uint256",
          "name": "discountShare",
          "type": "uint256"
        }
      ],
      "name": "SetReferrerDiscountShare",
      "type": "event"
    },
    {
      "anonymous": false,
      "inputs": [
        {
          "indexed": false,
          "internalType": "address",
          "name": "referrer",
          "type": "address"
        },
        {
          "indexed": false,
          "internalType": "uint256",
          "name": "tierId",
          "type": "uint256"
        }
      ],
      "name": "SetReferrerTier",
      "type": "event"
    },
    {
      "anonymous": false,
      "inputs": [
        {
          "indexed": false,
          "internalType": "uint256",
          "name": "tierId",
          "type": "uint256"
        },
        {
          "indexed": false,
          "internalType": "uint256",
          "name": "totalRebate",
          "type": "uint256"
        },
        {
          "indexed": false,
          "internalType": "uint256",
          "name": "discountShare",
          "type": "uint256"
        }
      ],
      "name": "SetTier",
      "type": "event"
    },
    {
      "anonymous": false,
      "inputs": [
        {
          "indexed": false,
          "internalType": "address",
          "name": "account",
          "type": "address"
        },
        {
          "indexed": false,
          "internalType": "bytes32",
          "name": "code",
          "type": "bytes32"
        }
      ],
      "name": "SetTraderReferralCode",
      "type": "event"
    },
    {
      "inputs": [],
      "name": "BASIS_POINTS",
      "outputs": [
        {
          "internalType": "uint256",
          "name": "",
          "type": "uint256"
        }
      ],
      "stateMutability": "view",
      "type": "function"
    },
    {
      "inputs": [],
      "name": "DEFAULT_ADMIN_ROLE",
      "outputs": [
        {
          "internalType": "bytes32",
          "name": "",
          "type": "bytes32"
        }
      ],
      "stateMutability": "view",
      "type": "function"
    },
    {
      "inputs": [],
      "name": "DEFAULT_CODE",
      "outputs": [
        {
          "internalType": "bytes32",
          "name": "",
          "type": "bytes32"
        }
      ],
      "stateMutability": "view",
      "type": "function"
    },
    {
      "inputs": [
        {
          "internalType": "bytes32",
          "name": "",
          "type": "bytes32"
        }
      ],
      "name": "codeOwners",
      "outputs": [
        {
          "internalType": "address",
          "name": "",
          "type": "address"
        }
      ],
      "stateMutability": "view",
      "type": "function"
    },
    {
      "inputs": [
        {
          "internalType": "bytes32[]",
          "name": "_codes",
          "type": "bytes32[]"
        }
      ],
      "name": "getCodeOwners",
      "outputs": [
        {
          "internalType": "address[]",
          "name": "",
          "type": "address[]"
        }
      ],
      "stateMutability": "view",
      "type": "function"
    },
    {
      "inputs": [],
      "name": "getHooksCalls",
      "outputs": [
        {
          "components": [
            {
              "internalType": "bool",
              "name": "updatePosition",
              "type": "bool"
            },
            {
              "internalType": "bool",
              "name": "updateOrder",
              "type": "bool"
            },
            {
              "internalType": "bool",
              "name": "deleteOrder",
              "type": "bool"
            }
          ],
          "internalType": "struct MarketCallBackIntl.Calls",
          "name": "",
          "type": "tuple"
        }
      ],
      "stateMutability": "pure",
      "type": "function"
    },
    {
      "inputs": [
        {
          "internalType": "bytes32",
          "name": "role",
          "type": "bytes32"
        }
      ],
      "name": "getRoleAdmin",
      "outputs": [
        {
          "internalType": "bytes32",
          "name": "",
          "type": "bytes32"
        }
      ],
      "stateMutability": "view",
      "type": "function"
    },
    {
      "inputs": [
        {
          "internalType": "address",
          "name": "_account",
          "type": "address"
        }
      ],
      "name": "getTraderReferralInfo",
      "outputs": [
        {
          "internalType": "bytes32",
          "name": "",
          "type": "bytes32"
        },
        {
          "internalType": "address",
          "name": "",
          "type": "address"
        }
      ],
      "stateMutability": "view",
      "type": "function"
    },
    {
      "inputs": [
        {
          "internalType": "bytes32",
          "name": "_code",
          "type": "bytes32"
        },
        {
          "internalType": "address",
          "name": "_newAccount",
          "type": "address"
        }
      ],
      "name": "govSetCodeOwner",
      "outputs": [],
      "stateMutability": "nonpayable",
      "type": "function"
    },
    {
      "inputs": [
        {
          "internalType": "address",
          "name": "_account",
          "type": "address"
        }
      ],
      "name": "grantControllerRoleByMarketManager",
      "outputs": [],
      "stateMutability": "nonpayable",
      "type": "function"
    },
    {
      "inputs": [
        {
          "internalType": "bytes32",
          "name": "role",
          "type": "bytes32"
        },
        {
          "internalType": "address",
          "name": "account",
          "type": "address"
        }
      ],
      "name": "grantRole",
      "outputs": [],
      "stateMutability": "nonpayable",
      "type": "function"
    },
    {
      "inputs": [
        {
          "internalType": "bytes32",
          "name": "role",
          "type": "bytes32"
        },
        {
          "internalType": "address",
          "name": "account",
          "type": "address"
        }
      ],
      "name": "hasRole",
      "outputs": [
        {
          "internalType": "bool",
          "name": "",
          "type": "bool"
        }
      ],
      "stateMutability": "view",
      "type": "function"
    },
    {
      "inputs": [],
      "name": "initialize",
      "outputs": [],
      "stateMutability": "nonpayable",
      "type": "function"
    },
    {
      "inputs": [],
      "name": "owner",
      "outputs": [
        {
          "internalType": "address",
          "name": "",
          "type": "address"
        }
      ],
      "stateMutability": "view",
      "type": "function"
    },
    {
      "inputs": [
        {
          "internalType": "address",
          "name": "",
          "type": "address"
        }
      ],
      "name": "referrerDiscountShares",
      "outputs": [
        {
          "internalType": "uint256",
          "name": "",
          "type": "uint256"
        }
      ],
      "stateMutability": "view",
      "type": "function"
    },
    {
      "inputs": [
        {
          "internalType": "address",
          "name": "",
          "type": "address"
        }
      ],
      "name": "referrerTiers",
      "outputs": [
        {
          "internalType": "uint256",
          "name": "",
          "type": "uint256"
        }
      ],
      "stateMutability": "view",
      "type": "function"
    },
    {
      "inputs": [
        {
          "internalType": "bytes32",
          "name": "_code",
          "type": "bytes32"
        }
      ],
      "name": "registerCode",
      "outputs": [],
      "stateMutability": "nonpayable",
      "type": "function"
    },
    {
      "inputs": [],
      "name": "renounceOwnership",
      "outputs": [],
      "stateMutability": "nonpayable",
      "type": "function"
    },
    {
      "inputs": [
        {
          "internalType": "bytes32",
          "name": "role",
          "type": "bytes32"
        },
        {
          "internalType": "address",
          "name": "account",
          "type": "address"
        }
      ],
      "name": "renounceRole",
      "outputs": [],
      "stateMutability": "nonpayable",
      "type": "function"
    },
    {
      "inputs": [
        {
          "internalType": "bytes32",
          "name": "role",
          "type": "bytes32"
        },
        {
          "internalType": "address",
          "name": "account",
          "type": "address"
        }
      ],
      "name": "revokeRole",
      "outputs": [],
      "stateMutability": "nonpayable",
      "type": "function"
    },
    {
      "inputs": [
        {
          "internalType": "bytes32",
          "name": "_code",
          "type": "bytes32"
        },
        {
          "internalType": "address",
          "name": "_newAccount",
          "type": "address"
        }
      ],
      "name": "setCodeOwner",
      "outputs": [],
      "stateMutability": "nonpayable",
      "type": "function"
    },
    {
      "inputs": [
        {
          "internalType": "address",
          "name": "_account",
          "type": "address"
        },
        {
          "internalType": "uint256",
          "name": "_discountShare",
          "type": "uint256"
        }
      ],
      "name": "setReferrerDiscountShare",
      "outputs": [],
      "stateMutability": "nonpayable",
      "type": "function"
    },
    {
      "inputs": [
        {
          "internalType": "address",
          "name": "_referrer",
          "type": "address"
        },
        {
          "internalType": "uint256",
          "name": "_tierId",
          "type": "uint256"
        }
      ],
      "name": "setReferrerTier",
      "outputs": [],
      "stateMutability": "nonpayable",
      "type": "function"
    },
    {
      "inputs": [
        {
          "internalType": "uint256",
          "name": "_tierId",
          "type": "uint256"
        },
        {
          "internalType": "uint256",
          "name": "_totalRebate",
          "type": "uint256"
        },
        {
          "internalType": "uint256",
          "name": "_discountShare",
          "type": "uint256"
        }
      ],
      "name": "setTier",
      "outputs": [],
      "stateMutability": "nonpayable",
      "type": "function"
    },
    {
      "inputs": [
        {
          "internalType": "address",
          "name": "_account",
          "type": "address"
        },
        {
          "internalType": "bytes32",
          "name": "_code",
          "type": "bytes32"
        }
      ],
      "name": "setTraderReferralCode",
      "outputs": [],
      "stateMutability": "nonpayable",
      "type": "function"
    },
    {
      "inputs": [
        {
          "internalType": "bytes32",
          "name": "_code",
          "type": "bytes32"
        }
      ],
      "name": "setTraderReferralCodeByUser",
      "outputs": [],
      "stateMutability": "nonpayable",
      "type": "function"
    },
    {
      "inputs": [
        {
          "internalType": "bytes4",
          "name": "interfaceId",
          "type": "bytes4"
        }
      ],
      "name": "supportsInterface",
      "outputs": [
        {
          "internalType": "bool",
          "name": "",
          "type": "bool"
        }
      ],
      "stateMutability": "view",
      "type": "function"
    },
    {
      "inputs": [
        {
          "internalType": "uint256",
          "name": "",
          "type": "uint256"
        }
      ],
      "name": "tiers",
      "outputs": [
        {
          "internalType": "uint256",
          "name": "totalRebate",
          "type": "uint256"
        },
        {
          "internalType": "uint256",
          "name": "discountShare",
          "type": "uint256"
        }
      ],
      "stateMutability": "view",
      "type": "function"
    },
    {
      "inputs": [
        {
          "internalType": "address",
          "name": "",
          "type": "address"
        }
      ],
      "name": "traderReferralCodes",
      "outputs": [
        {
          "internalType": "bytes32",
          "name": "",
          "type": "bytes32"
        }
      ],
      "stateMutability": "view",
      "type": "function"
    },
    {
      "inputs": [
        {
          "internalType": "address",
          "name": "to",
          "type": "address"
        }
      ],
      "name": "transferAdmin",
      "outputs": [],
      "stateMutability": "nonpayable",
      "type": "function"
    },
    {
      "inputs": [
        {
          "internalType": "address",
          "name": "newOwner",
          "type": "address"
        }
      ],
      "name": "transferOwnership",
      "outputs": [],
      "stateMutability": "nonpayable",
      "type": "function"
    },
    {
      "inputs": [
        {
          "components": [
            {
              "components": [
                {
                  "internalType": "address",
                  "name": "_market",
                  "type": "address"
                },
                {
                  "internalType": "bool",
                  "name": "_isLong",
                  "type": "bool"
                },
                {
                  "internalType": "uint256",
                  "name": "_oraclePrice",
                  "type": "uint256"
                },
                {
                  "internalType": "bool",
                  "name": "isOpen",
                  "type": "bool"
                },
                {
                  "internalType": "address",
                  "name": "_account",
                  "type": "address"
                },
                {
                  "internalType": "uint256",
                  "name": "_sizeDelta",
                  "type": "uint256"
                },
                {
                  "internalType": "uint256",
                  "name": "_price",
                  "type": "uint256"
                },
                {
                  "internalType": "uint256",
                  "name": "_slippage",
                  "type": "uint256"
                },
                {
                  "internalType": "bool",
                  "name": "_isExec",
                  "type": "bool"
                },
                {
                  "internalType": "uint8",
                  "name": "liqState",
                  "type": "uint8"
                },
                {
                  "internalType": "uint64",
                  "name": "_fromOrder",
                  "type": "uint64"
                },
                {
                  "internalType": "bytes32",
                  "name": "_refCode",
                  "type": "bytes32"
                },
                {
                  "internalType": "uint256",
                  "name": "collateralDelta",
                  "type": "uint256"
                },
                {
                  "internalType": "uint8",
                  "name": "execNum",
                  "type": "uint8"
                },
                {
                  "internalType": "uint256[]",
                  "name": "inputs",
                  "type": "uint256[]"
                }
              ],
              "internalType": "struct MarketDataTypes.UpdatePositionInputs",
              "name": "inputs",
              "type": "tuple"
            },
            {
              "components": [
                {
                  "internalType": "address",
                  "name": "market",
                  "type": "address"
                },
                {
                  "internalType": "bool",
                  "name": "isLong",
                  "type": "bool"
                },
                {
                  "internalType": "uint32",
                  "name": "lastTime",
                  "type": "uint32"
                },
                {
                  "internalType": "uint216",
                  "name": "extra3",
                  "type": "uint216"
                },
                {
                  "internalType": "uint256",
                  "name": "size",
                  "type": "uint256"
                },
                {
                  "internalType": "uint256",
                  "name": "collateral",
                  "type": "uint256"
                },
                {
                  "internalType": "uint256",
                  "name": "averagePrice",
                  "type": "uint256"
                },
                {
                  "internalType": "int256",
                  "name": "entryFundingRate",
                  "type": "int256"
                },
                {
                  "internalType": "int256",
                  "name": "realisedPnl",
                  "type": "int256"
                },
                {
                  "internalType": "uint256",
                  "name": "extra0",
                  "type": "uint256"
                },
                {
                  "internalType": "uint256",
                  "name": "extra1",
                  "type": "uint256"
                },
                {
                  "internalType": "uint256",
                  "name": "extra2",
                  "type": "uint256"
                }
              ],
              "internalType": "struct Position.Props",
              "name": "position",
              "type": "tuple"
            },
            {
              "internalType": "int256[]",
              "name": "fees",
              "type": "int256[]"
            },
            {
              "internalType": "address",
              "name": "collateralToken",
              "type": "address"
            },
            {
              "internalType": "address",
              "name": "indexToken",
              "type": "address"
            },
            {
              "internalType": "int256",
              "name": "collateralDeltaAfter",
              "type": "int256"
            }
          ],
          "internalType": "struct MarketPositionCallBackIntl.UpdatePositionEvent",
          "name": "_event",
          "type": "tuple"
        }
      ],
      "name": "updatePositionCallback",
      "outputs": [],
      "stateMutability": "nonpayable",
      "type": "function"
    }
  ],
  "bytecode": "0x608060405234801561001057600080fd5b5061001a3361001f565b610071565b600180546001600160a01b038381166001600160a01b0319831681179093556040519116919082907f8be0079c531659141344cd1fd0a4f28419497f9722a3daafe3b4186f6b6457e090600090a35050565b611c92806100806000396000f3fe608060405234801561001057600080fd5b50600436106101f05760003560e01c8063766238db1161010f578063c8b3c460116100a2578063e1e01bf311610071578063e1e01bf3146104fc578063e1f1c4a71461050f578063ed84313414610518578063f2fde38b1461052b57600080fd5b8063c8b3c4601461048d578063d547741f146104b6578063d7897320146104c9578063dfcfa250146104e957600080fd5b806385725b58116100de57806385725b581461042d5780638da5cb5b1461044d57806391d1485414610472578063a217fddf1461048557600080fd5b8063766238db146103ec5780637fe4a698146103ff5780638129fc1c14610412578063836a01871461041a57600080fd5b806340a542fe11610187578063612c39b711610156578063612c39b71461035b578063715018a6146103b157806371a6a790146103b957806375829def146103d957600080fd5b806340a542fe146102f8578063534ef8831461030b578063544210d81461033b57806356b4b2ad1461034857600080fd5b80632f2ff15d116101c35780632f2ff15d146102aa57806336568abe146102bf57806336def2c8146102d25780633fb8b323146102e557600080fd5b806301ffc9a7146101f5578063039af9eb1461021d5780631582a01814610259578063248a9ca314610287575b600080fd5b61020861020336600461148b565b61053e565b60405190151581526020015b60405180910390f35b61024461022b3660046114b5565b6005602052600090815260409020805460019091015482565b60408051928352602083019190915201610214565b6102796102673660046114ea565b60046020526000908152604090205481565b604051908152602001610214565b6102796102953660046114b5565b60009081526020819052604090206001015490565b6102bd6102b8366004611505565b610575565b005b6102bd6102cd366004611505565b61059f565b6102bd6102e03660046114b5565b610622565b6102bd6102f3366004611531565b610703565b6102bd6103063660046118d4565b610773565b61031e6103193660046114ea565b6108f0565b604080519283526001600160a01b03909116602083015201610214565b6102796264656960e81b81565b6102bd610356366004611531565b610936565b604080516060808201835260008083526020808401829052928401819052835180830185526001808252818501838152918601928352855190815290511515938101939093525115159282019290925201610214565b6102bd610957565b6102796103c73660046114ea565b60036020526000908152604090205481565b6102bd6103e73660046114ea565b61096b565b6102bd6103fa366004611531565b610995565b6102bd61040d3660046114ea565b610a4f565b6102bd610aa3565b6102bd6104283660046119a9565b610c05565b61027961043b3660046114ea565b60076020526000908152604090205481565b6001546001600160a01b03165b6040516001600160a01b039091168152602001610214565b610208610480366004611505565b610d3d565b610279600081565b61045a61049b3660046114b5565b6006602052600090815260409020546001600160a01b031681565b6102bd6104c4366004611505565b610d66565b6104dc6104d73660046119d5565b610d8b565b6040516102149190611a66565b6102bd6104f7366004611505565b610e6a565b6102bd61050a3660046114b5565b610efd565b61027961271081565b6102bd610526366004611505565b610f07565b6102bd6105393660046114ea565b610fea565b60006001600160e01b03198216637965db0b60e01b148061056f57506301ffc9a760e01b6001600160e01b03198316145b92915050565b60008281526020819052604090206001015461059081611060565b61059a838361106a565b505050565b6001600160a01b03811633146106145760405162461bcd60e51b815260206004820152602f60248201527f416363657373436f6e74726f6c3a2063616e206f6e6c792072656e6f756e636560448201526e103937b632b9903337b91039b2b63360891b60648201526084015b60405180910390fd5b61061e82826110ee565b5050565b8061063f5760405162461bcd60e51b815260040161060b90611ab3565b6000818152600660205260409020546001600160a01b0316156106a45760405162461bcd60e51b815260206004820152601d60248201527f526566657272616c3a20636f646520616c726561647920657869737473000000604482015260640161060b565b60008181526006602090815260409182902080546001600160a01b0319163390811790915582519081529081018390527f04f82286a2a3b2ee5c8555de8304dfe2ea70991613213184b73a9e408d2d802991015b60405180910390a150565b61071a600080516020611c3d833981519152611060565b6001600160a01b038216600081815260046020908152604091829020849055815192835282018390527f7696855cdbb94bb5a44cb0a95caff6f29173aa1cbfba193834b12b90827ce2bc91015b60405180910390a15050565b61079c7fcb58d6d985142a614029cdf01861b4fe094d5919a47e69b8310dc4093d9d6ad0611060565b6000806107b08360000151608001516108f0565b9092509050816108065750815161016001516000908152600660205260409020546001600160a01b0316806107e457505050565b82516080810151610160909101516107fc9190611153565b8251610160015191505b825160600151156108a2578251608081015160a09091015160408501517fc2414023ce7002ee98557d1e7be21e5559073336f2217ee5f9b2e50fd85f71ee929190600060ff168151811061085c5761085c611aea565b602090810291909101810151604080516001600160a01b0395861681529283019390935281830152606081018690529184166080830152519081900360a00190a1505050565b8251608081015160a09091015160408501517f474c763ff84bf2c2039a6d9fea955ecd0f724030e3c365b91169c6a16fe751b7929190600160ff168151811061085c5761085c611aea565b50565b6001600160a01b038116600090815260076020526040812054819081811561092c57506000818152600660205260409020546001600160a01b03165b9094909350915050565b61094d600080516020611c3d833981519152611060565b61061e8282611153565b61095f6111a4565b61096960006111fe565b565b600061097681611060565b610981600083611250565b61098a826111fe565b61061e6000336110ee565b6109ac600080516020611c3d833981519152611060565b6127108111156109fe5760405162461bcd60e51b815260206004820152601f60248201527f526566657272616c3a20696e76616c696420646973636f756e74536861726500604482015260640161060b565b6001600160a01b038216600081815260036020908152604091829020849055815192835282018390527fbd224f3917462b0fa80805fe3ec29be3a37f664955aad6224e5ece036224c4299101610767565b7f8d1089725c0dc266707fa6207730fb801dcd03108bfed7a21099bd303651d2b7610a7981611060565b61061e7fcb58d6d985142a614029cdf01861b4fe094d5919a47e69b8310dc4093d9d6ad08361106a565b600154600160a81b900460ff1615808015610ac9575060018054600160a01b900460ff16105b80610ae95750303b158015610ae9575060018054600160a01b900460ff16145b610b4c5760405162461bcd60e51b815260206004820152602e60248201527f496e697469616c697a61626c653a20636f6e747261637420697320616c72656160448201526d191e481a5b9a5d1a585b1a5e995960921b606482015260840161060b565b6001805460ff60a01b1916600160a01b1790558015610b79576001805460ff60a81b1916600160a81b1790555b610b823361125a565b6264656960e81b60005260066020527fde1e4f22c0daf720ff22ad02f927876864de7c1cb91180aa6f578afdf6ac939a80546001600160a01b0319163017905580156108ed576001805460ff60a81b191681556040519081527f7f26b83ff96e1f2b6a682f133852f6798a09c465da95921460cefb3847402498906020016106f8565b610c1c600080516020611c3d833981519152611060565b612710821115610c6e5760405162461bcd60e51b815260206004820152601d60248201527f526566657272616c3a20696e76616c696420746f74616c526562617465000000604482015260640161060b565b612710811115610cc05760405162461bcd60e51b815260206004820152601f60248201527f526566657272616c3a20696e76616c696420646973636f756e74536861726500604482015260640161060b565b600083815260056020818152604080842081518083018352878152808401878152958990529383528351815593516001909401939093558251868152908101859052918201839052907f4ebd23a492b2bd79586cb57cae40d7793408265f20320f68b478b971e696f4c7906060015b60405180910390a150505050565b6000918252602082815260408084206001600160a01b0393909316845291905290205460ff1690565b600082815260208190526040902060010154610d8181611060565b61059a83836110ee565b60606000825167ffffffffffffffff811115610da957610da961155b565b604051908082528060200260200182016040528015610dd2578160200160208202803683370190505b50905060005b8351811015610e63576000848281518110610df557610df5611aea565b602002602001015190506006600082815260200190815260200160002060009054906101000a90046001600160a01b0316838381518110610e3857610e38611aea565b6001600160a01b03909216602092830291909101909101525080610e5b81611b16565b915050610dd8565b5092915050565b610e81600080516020611c3d833981519152611060565b81610e9e5760405162461bcd60e51b815260040161060b90611ab3565b60008281526006602090815260409182902080546001600160a01b0319166001600160a01b0385169081179091558251858152918201527f6431f88c655dd0e2b8d09b6405c007c515c66d67f2998e69c902873a8c8f3e979101610767565b6108ed3382611153565b60008281526006602052604090205482906001600160a01b0316338114610f665760405162461bcd60e51b81526020600482015260136024820152722932b332b93930b61d103337b93134b23232b760691b604482015260640161060b565b83610f835760405162461bcd60e51b815260040161060b90611ab3565b60008481526006602090815260409182902080546001600160a01b0319166001600160a01b0387169081179091558251338152918201529081018590527f5640856798d41ce9ca0a109b54c20a06eb99ba9c36ab4547115dafb8473cf39790606001610d2f565b610ff26111a4565b6001600160a01b0381166110575760405162461bcd60e51b815260206004820152602660248201527f4f776e61626c653a206e6577206f776e657220697320746865207a65726f206160448201526564647265737360d01b606482015260840161060b565b6108ed816111fe565b6108ed813361127d565b6110748282610d3d565b61061e576000828152602081815260408083206001600160a01b03851684529091529020805460ff191660011790556110aa3390565b6001600160a01b0316816001600160a01b0316837f2f8788117e7eff1d82e926ec794901d17c78024a50270940304540a733656f0d60405160405180910390a45050565b6110f88282610d3d565b1561061e576000828152602081815260408083206001600160a01b0385168085529252808320805460ff1916905551339285917ff6391f5c32d9c69d2a47ea670b442974b53935d1edc7fd64eb21e047a839171b9190a45050565b6001600160a01b038216600081815260076020908152604091829020849055815192835282018390527f43825f14567dda057e821be2e51a5aa79aa51f3907a647e3ed2bd486a01050f19101610767565b6001546001600160a01b031633146109695760405162461bcd60e51b815260206004820181905260248201527f4f776e61626c653a2063616c6c6572206973206e6f7420746865206f776e6572604482015260640161060b565b600180546001600160a01b038381166001600160a01b0319831681179093556040519116919082907f8be0079c531659141344cd1fd0a4f28419497f9722a3daafe3b4186f6b6457e090600090a35050565b61061e828261106a565b42600255611267336111fe565b611272600033611250565b6108ed600082611250565b6112878282610d3d565b61061e57611294816112d6565b61129f8360206112e8565b6040516020016112b0929190611b53565b60408051601f198184030181529082905262461bcd60e51b825261060b91600401611bc8565b606061056f6001600160a01b03831660145b606060006112f7836002611bfb565b611302906002611c12565b67ffffffffffffffff81111561131a5761131a61155b565b6040519080825280601f01601f191660200182016040528015611344576020820181803683370190505b509050600360fc1b8160008151811061135f5761135f611aea565b60200101906001600160f81b031916908160001a905350600f60fb1b8160018151811061138e5761138e611aea565b60200101906001600160f81b031916908160001a90535060006113b2846002611bfb565b6113bd906001611c12565b90505b6001811115611435576f181899199a1a9b1b9c1cb0b131b232b360811b85600f16601081106113f1576113f1611aea565b1a60f81b82828151811061140757611407611aea565b60200101906001600160f81b031916908160001a90535060049490941c9361142e81611c25565b90506113c0565b5083156114845760405162461bcd60e51b815260206004820181905260248201527f537472696e67733a20686578206c656e67746820696e73756666696369656e74604482015260640161060b565b9392505050565b60006020828403121561149d57600080fd5b81356001600160e01b03198116811461148457600080fd5b6000602082840312156114c757600080fd5b5035919050565b80356001600160a01b03811681146114e557600080fd5b919050565b6000602082840312156114fc57600080fd5b611484826114ce565b6000806040838503121561151857600080fd5b82359150611528602084016114ce565b90509250929050565b6000806040838503121561154457600080fd5b61154d836114ce565b946020939093013593505050565b634e487b7160e01b600052604160045260246000fd5b6040516101e0810167ffffffffffffffff811182821017156115955761159561155b565b60405290565b604051610180810167ffffffffffffffff811182821017156115955761159561155b565b60405160c0810167ffffffffffffffff811182821017156115955761159561155b565b604051601f8201601f1916810167ffffffffffffffff8111828210171561160b5761160b61155b565b604052919050565b803580151581146114e557600080fd5b803560ff811681146114e557600080fd5b803567ffffffffffffffff811681146114e557600080fd5b600067ffffffffffffffff8211156116665761166661155b565b5060051b60200190565b600082601f83011261168157600080fd5b813560206116966116918361164c565b6115e2565b82815260059290921b840181019181810190868411156116b557600080fd5b8286015b848110156116d057803583529183019183016116b9565b509695505050505050565b60006101e082840312156116ee57600080fd5b6116f6611571565b9050611701826114ce565b815261170f60208301611613565b60208201526040820135604082015261172a60608301611613565b606082015261173b608083016114ce565b608082015260a082013560a082015260c082013560c082015260e082013560e082015261010061176c818401611613565b9082015261012061177e838201611623565b90820152610140611790838201611634565b90820152610160828101359082015261018080830135908201526101a06117b8818401611623565b908201526101c08281013567ffffffffffffffff8111156117d857600080fd5b6117e485828601611670565b82840152505092915050565b803563ffffffff811681146114e557600080fd5b80356001600160d81b03811681146114e557600080fd5b6000610180828403121561182e57600080fd5b61183661159b565b9050611841826114ce565b815261184f60208301611613565b6020820152611860604083016117f0565b604082015261187160608301611804565b60608201526080820135608082015260a082013560a082015260c082013560c082015260e082013560e082015261010080830135818301525061012080830135818301525061014080830135818301525061016080830135818301525092915050565b6000602082840312156118e657600080fd5b813567ffffffffffffffff808211156118fe57600080fd5b90830190610220828603121561191357600080fd5b61191b6115bf565b82358281111561192a57600080fd5b611936878286016116db565b825250611946866020850161181b565b60208201526101a08301358281111561195e57600080fd5b61196a87828601611670565b60408301525061197d6101c084016114ce565b606082015261198f6101e084016114ce565b6080820152610200929092013560a0830152509392505050565b6000806000606084860312156119be57600080fd5b505081359360208301359350604090920135919050565b600060208083850312156119e857600080fd5b823567ffffffffffffffff8111156119ff57600080fd5b8301601f81018513611a1057600080fd5b8035611a1e6116918261164c565b81815260059190911b82018301908381019087831115611a3d57600080fd5b928401925b82841015611a5b57833582529284019290840190611a42565b979650505050505050565b6020808252825182820181905260009190848201906040850190845b81811015611aa75783516001600160a01b031683529284019291840191600101611a82565b50909695505050505050565b60208082526017908201527f526566657272616c3a20696e76616c6964205f636f6465000000000000000000604082015260600190565b634e487b7160e01b600052603260045260246000fd5b634e487b7160e01b600052601160045260246000fd5b600060018201611b2857611b28611b00565b5060010190565b60005b83811015611b4a578181015183820152602001611b32565b50506000910152565b7f416363657373436f6e74726f6c3a206163636f756e7420000000000000000000815260008351611b8b816017850160208801611b2f565b7001034b99036b4b9b9b4b733903937b6329607d1b6017918401918201528351611bbc816028840160208801611b2f565b01602801949350505050565b6020815260008251806020840152611be7816040850160208701611b2f565b601f01601f19169190910160400192915050565b808202811582820484141761056f5761056f611b00565b8082018082111561056f5761056f611b00565b600081611c3457611c34611b00565b50600019019056fe241ecf16d79d0f8dbfb92cbc07fe17840425976cf0667f022fe9877caa831b08a2646970667358221220fad6fbbdb5ef775f1f46f14775f6ccff27462965e31dc38c0e515d501ebd8aa364736f6c63430008110033",
  "linkReferences": {},
  "deployedLinkReferences": {}
}