{
  "_format": "hh-sol-artifact-1",
  "contractName": "VaultReward",
  "sourceName": "contracts/vault/VaultReward.sol",
  "abi": [
    {
      "anonymous": false,
      "inputs": [
        {
          "indexed": false,
          "internalType": "address",
          "name": "account",
          "type": "address"
        },
        {
          "indexed": false,
          "internalType": "uint256",
          "name": "amount",
          "type": "uint256"
        }
      ],
      "name": "Harvest",
      "type": "event"
    },
    {
      "anonymous": false,
      "inputs": [
        {
          "indexed": false,
          "internalType": "uint8",
          "name": "version",
          "type": "uint8"
        }
      ],
      "name": "Initialized",
      "type": "event"
    },
    {
      "anonymous": false,
      "inputs": [
        {
          "indexed": false,
          "internalType": "uint256",
          "name": "supply",
          "type": "uint256"
        },
        {
          "indexed": false,
          "internalType": "uint256",
          "name": "cumulativeRewardPerToken",
          "type": "uint256"
        }
      ],
      "name": "LogUpdatePool",
      "type": "event"
    },
    {
      "anonymous": false,
      "inputs": [
        {
          "indexed": true,
          "internalType": "address",
          "name": "previousOwner",
          "type": "address"
        },
        {
          "indexed": true,
          "internalType": "address",
          "name": "newOwner",
          "type": "address"
        }
      ],
      "name": "OwnershipTransferred",
      "type": "event"
    },
    {
      "anonymous": false,
      "inputs": [
        {
          "indexed": true,
          "internalType": "bytes32",
          "name": "role",
          "type": "bytes32"
        },
        {
          "indexed": true,
          "internalType": "bytes32",
          "name": "previousAdminRole",
          "type": "bytes32"
        },
        {
          "indexed": true,
          "internalType": "bytes32",
          "name": "newAdminRole",
          "type": "bytes32"
        }
      ],
      "name": "RoleAdminChanged",
      "type": "event"
    },
    {
      "anonymous": false,
      "inputs": [
        {
          "indexed": true,
          "internalType": "bytes32",
          "name": "role",
          "type": "bytes32"
        },
        {
          "indexed": true,
          "internalType": "address",
          "name": "account",
          "type": "address"
        },
        {
          "indexed": true,
          "internalType": "address",
          "name": "sender",
          "type": "address"
        }
      ],
      "name": "RoleGranted",
      "type": "event"
    },
    {
      "anonymous": false,
      "inputs": [
        {
          "indexed": true,
          "internalType": "bytes32",
          "name": "role",
          "type": "bytes32"
        },
        {
          "indexed": true,
          "internalType": "address",
          "name": "account",
          "type": "address"
        },
        {
          "indexed": true,
          "internalType": "address",
          "name": "sender",
          "type": "address"
        }
      ],
      "name": "RoleRevoked",
      "type": "event"
    },
    {
      "inputs": [],
      "name": "DEFAULT_ADMIN_ROLE",
      "outputs": [
        {
          "internalType": "bytes32",
          "name": "",
          "type": "bytes32"
        }
      ],
      "stateMutability": "view",
      "type": "function"
    },
    {
      "inputs": [],
      "name": "PRECISION",
      "outputs": [
        {
          "internalType": "uint256",
          "name": "",
          "type": "uint256"
        }
      ],
      "stateMutability": "view",
      "type": "function"
    },
    {
      "inputs": [],
      "name": "apr",
      "outputs": [
        {
          "internalType": "uint256",
          "name": "",
          "type": "uint256"
        }
      ],
      "stateMutability": "view",
      "type": "function"
    },
    {
      "inputs": [
        {
          "internalType": "address",
          "name": "",
          "type": "address"
        }
      ],
      "name": "averageStakedAmounts",
      "outputs": [
        {
          "internalType": "uint256",
          "name": "",
          "type": "uint256"
        }
      ],
      "stateMutability": "view",
      "type": "function"
    },
    {
      "inputs": [
        {
          "internalType": "contract IERC4626",
          "name": "vault",
          "type": "address"
        },
        {
          "internalType": "address",
          "name": "to",
          "type": "address"
        },
        {
          "internalType": "uint256",
          "name": "amount",
          "type": "uint256"
        },
        {
          "internalType": "uint256",
          "name": "minSharesOut",
          "type": "uint256"
        }
      ],
      "name": "buy",
      "outputs": [
        {
          "internalType": "uint256",
          "name": "sharesOut",
          "type": "uint256"
        }
      ],
      "stateMutability": "nonpayable",
      "type": "function"
    },
    {
      "inputs": [
        {
          "internalType": "contract ICoreVault",
          "name": "vault",
          "type": "address"
        }
      ],
      "name": "buyLpFee",
      "outputs": [
        {
          "internalType": "uint256",
          "name": "",
          "type": "uint256"
        }
      ],
      "stateMutability": "view",
      "type": "function"
    },
    {
      "inputs": [],
      "name": "claimLPReward",
      "outputs": [],
      "stateMutability": "nonpayable",
      "type": "function"
    },
    {
      "inputs": [
        {
          "internalType": "address",
          "name": "_account",
          "type": "address"
        }
      ],
      "name": "claimable",
      "outputs": [
        {
          "internalType": "uint256",
          "name": "",
          "type": "uint256"
        }
      ],
      "stateMutability": "view",
      "type": "function"
    },
    {
      "inputs": [
        {
          "internalType": "address",
          "name": "",
          "type": "address"
        }
      ],
      "name": "claimableReward",
      "outputs": [
        {
          "internalType": "uint256",
          "name": "",
          "type": "uint256"
        }
      ],
      "stateMutability": "view",
      "type": "function"
    },
    {
      "inputs": [],
      "name": "coreVault",
      "outputs": [
        {
          "internalType": "contract ICoreVault",
          "name": "",
          "type": "address"
        }
      ],
      "stateMutability": "view",
      "type": "function"
    },
    {
      "inputs": [],
      "name": "cumulativeRewardPerToken",
      "outputs": [
        {
          "internalType": "uint256",
          "name": "",
          "type": "uint256"
        }
      ],
      "stateMutability": "view",
      "type": "function"
    },
    {
      "inputs": [],
      "name": "distributor",
      "outputs": [
        {
          "internalType": "address",
          "name": "",
          "type": "address"
        }
      ],
      "stateMutability": "view",
      "type": "function"
    },
    {
      "inputs": [],
      "name": "feeRouter",
      "outputs": [
        {
          "internalType": "contract IFeeRouter",
          "name": "",
          "type": "address"
        }
      ],
      "stateMutability": "view",
      "type": "function"
    },
    {
      "inputs": [],
      "name": "getAPR",
      "outputs": [
        {
          "internalType": "uint256",
          "name": "",
          "type": "uint256"
        }
      ],
      "stateMutability": "view",
      "type": "function"
    },
    {
      "inputs": [],
      "name": "getAUM",
      "outputs": [
        {
          "internalType": "uint256",
          "name": "",
          "type": "uint256"
        }
      ],
      "stateMutability": "view",
      "type": "function"
    },
    {
      "inputs": [],
      "name": "getLPPrice",
      "outputs": [
        {
          "internalType": "uint256",
          "name": "",
          "type": "uint256"
        }
      ],
      "stateMutability": "view",
      "type": "function"
    },
    {
      "inputs": [],
      "name": "getLPReward",
      "outputs": [
        {
          "internalType": "uint256",
          "name": "",
          "type": "uint256"
        }
      ],
      "stateMutability": "view",
      "type": "function"
    },
    {
      "inputs": [
        {
          "internalType": "bytes32",
          "name": "role",
          "type": "bytes32"
        }
      ],
      "name": "getRoleAdmin",
      "outputs": [
        {
          "internalType": "bytes32",
          "name": "",
          "type": "bytes32"
        }
      ],
      "stateMutability": "view",
      "type": "function"
    },
    {
      "inputs": [],
      "name": "getUSDBalance",
      "outputs": [
        {
          "internalType": "uint256",
          "name": "",
          "type": "uint256"
        }
      ],
      "stateMutability": "view",
      "type": "function"
    },
    {
      "inputs": [
        {
          "internalType": "bytes32",
          "name": "role",
          "type": "bytes32"
        },
        {
          "internalType": "address",
          "name": "account",
          "type": "address"
        }
      ],
      "name": "grantAndRevoke",
      "outputs": [],
      "stateMutability": "nonpayable",
      "type": "function"
    },
    {
      "inputs": [
        {
          "internalType": "address",
          "name": "_account",
          "type": "address"
        }
      ],
      "name": "grantControllerRoleByMarketManager",
      "outputs": [],
      "stateMutability": "nonpayable",
      "type": "function"
    },
    {
      "inputs": [
        {
          "internalType": "bytes32",
          "name": "role",
          "type": "bytes32"
        },
        {
          "internalType": "address",
          "name": "account",
          "type": "address"
        }
      ],
      "name": "grantRole",
      "outputs": [],
      "stateMutability": "nonpayable",
      "type": "function"
    },
    {
      "inputs": [
        {
          "internalType": "bytes32",
          "name": "role",
          "type": "bytes32"
        },
        {
          "internalType": "address",
          "name": "account",
          "type": "address"
        }
      ],
      "name": "hasRole",
      "outputs": [
        {
          "internalType": "bool",
          "name": "",
          "type": "bool"
        }
      ],
      "stateMutability": "view",
      "type": "function"
    },
    {
      "inputs": [
        {
          "internalType": "address",
          "name": "_coreVault",
          "type": "address"
        },
        {
          "internalType": "address",
          "name": "_vaultRouter",
          "type": "address"
        },
        {
          "internalType": "address",
          "name": "_feeRouter",
          "type": "address"
        },
        {
          "internalType": "address",
          "name": "_distributor",
          "type": "address"
        }
      ],
      "name": "initialize",
      "outputs": [],
      "stateMutability": "nonpayable",
      "type": "function"
    },
    {
      "inputs": [
        {
          "internalType": "address",
          "name": "",
          "type": "address"
        }
      ],
      "name": "lpEarnedRewards",
      "outputs": [
        {
          "internalType": "uint256",
          "name": "",
          "type": "uint256"
        }
      ],
      "stateMutability": "view",
      "type": "function"
    },
    {
      "inputs": [],
      "name": "owner",
      "outputs": [
        {
          "internalType": "address",
          "name": "",
          "type": "address"
        }
      ],
      "stateMutability": "view",
      "type": "function"
    },
    {
      "inputs": [],
      "name": "pendingRewards",
      "outputs": [
        {
          "internalType": "uint256",
          "name": "",
          "type": "uint256"
        }
      ],
      "stateMutability": "view",
      "type": "function"
    },
    {
      "inputs": [
        {
          "internalType": "uint256",
          "name": "assets",
          "type": "uint256"
        }
      ],
      "name": "previewDeposit",
      "outputs": [
        {
          "internalType": "uint256",
          "name": "",
          "type": "uint256"
        }
      ],
      "stateMutability": "view",
      "type": "function"
    },
    {
      "inputs": [
        {
          "internalType": "uint256",
          "name": "shares",
          "type": "uint256"
        }
      ],
      "name": "previewMint",
      "outputs": [
        {
          "internalType": "uint256",
          "name": "",
          "type": "uint256"
        }
      ],
      "stateMutability": "view",
      "type": "function"
    },
    {
      "inputs": [
        {
          "internalType": "uint256",
          "name": "shares",
          "type": "uint256"
        }
      ],
      "name": "previewRedeem",
      "outputs": [
        {
          "internalType": "uint256",
          "name": "",
          "type": "uint256"
        }
      ],
      "stateMutability": "view",
      "type": "function"
    },
    {
      "inputs": [
        {
          "internalType": "uint256",
          "name": "assets",
          "type": "uint256"
        }
      ],
      "name": "previewWithdraw",
      "outputs": [
        {
          "internalType": "uint256",
          "name": "",
          "type": "uint256"
        }
      ],
      "stateMutability": "view",
      "type": "function"
    },
    {
      "inputs": [
        {
          "internalType": "address",
          "name": "",
          "type": "address"
        }
      ],
      "name": "previousCumulatedRewardPerToken",
      "outputs": [
        {
          "internalType": "uint256",
          "name": "",
          "type": "uint256"
        }
      ],
      "stateMutability": "view",
      "type": "function"
    },
    {
      "inputs": [],
      "name": "priceDecimals",
      "outputs": [
        {
          "internalType": "uint256",
          "name": "",
          "type": "uint256"
        }
      ],
      "stateMutability": "view",
      "type": "function"
    },
    {
      "inputs": [],
      "name": "renounceOwnership",
      "outputs": [],
      "stateMutability": "nonpayable",
      "type": "function"
    },
    {
      "inputs": [
        {
          "internalType": "bytes32",
          "name": "role",
          "type": "bytes32"
        },
        {
          "internalType": "address",
          "name": "account",
          "type": "address"
        }
      ],
      "name": "renounceRole",
      "outputs": [],
      "stateMutability": "nonpayable",
      "type": "function"
    },
    {
      "inputs": [
        {
          "internalType": "bytes32",
          "name": "role",
          "type": "bytes32"
        },
        {
          "internalType": "address",
          "name": "account",
          "type": "address"
        }
      ],
      "name": "revokeRole",
      "outputs": [],
      "stateMutability": "nonpayable",
      "type": "function"
    },
    {
      "inputs": [],
      "name": "rewardToken",
      "outputs": [
        {
          "internalType": "address",
          "name": "",
          "type": "address"
        }
      ],
      "stateMutability": "view",
      "type": "function"
    },
    {
      "inputs": [
        {
          "internalType": "contract IERC4626",
          "name": "vault",
          "type": "address"
        },
        {
          "internalType": "address",
          "name": "to",
          "type": "address"
        },
        {
          "internalType": "uint256",
          "name": "shares",
          "type": "uint256"
        },
        {
          "internalType": "uint256",
          "name": "minAssetsOut",
          "type": "uint256"
        }
      ],
      "name": "sell",
      "outputs": [
        {
          "internalType": "uint256",
          "name": "assetOut",
          "type": "uint256"
        }
      ],
      "stateMutability": "nonpayable",
      "type": "function"
    },
    {
      "inputs": [
        {
          "internalType": "contract ICoreVault",
          "name": "vault",
          "type": "address"
        }
      ],
      "name": "sellLpFee",
      "outputs": [
        {
          "internalType": "uint256",
          "name": "",
          "type": "uint256"
        }
      ],
      "stateMutability": "view",
      "type": "function"
    },
    {
      "inputs": [
        {
          "internalType": "uint256",
          "name": "_apr",
          "type": "uint256"
        }
      ],
      "name": "setAPR",
      "outputs": [],
      "stateMutability": "nonpayable",
      "type": "function"
    },
    {
      "inputs": [
        {
          "internalType": "bytes4",
          "name": "interfaceId",
          "type": "bytes4"
        }
      ],
      "name": "supportsInterface",
      "outputs": [
        {
          "internalType": "bool",
          "name": "",
          "type": "bool"
        }
      ],
      "stateMutability": "view",
      "type": "function"
    },
    {
      "inputs": [],
      "name": "tokensPerInterval",
      "outputs": [
        {
          "internalType": "uint256",
          "name": "",
          "type": "uint256"
        }
      ],
      "stateMutability": "view",
      "type": "function"
    },
    {
      "inputs": [
        {
          "internalType": "address",
          "name": "to",
          "type": "address"
        }
      ],
      "name": "transferAdmin",
      "outputs": [],
      "stateMutability": "nonpayable",
      "type": "function"
    },
    {
      "inputs": [
        {
          "internalType": "address",
          "name": "newOwner",
          "type": "address"
        }
      ],
      "name": "transferOwnership",
      "outputs": [],
      "stateMutability": "nonpayable",
      "type": "function"
    },
    {
      "inputs": [],
      "name": "updateRewards",
      "outputs": [],
      "stateMutability": "nonpayable",
      "type": "function"
    },
    {
      "inputs": [
        {
          "internalType": "address",
          "name": "_account",
          "type": "address"
        }
      ],
      "name": "updateRewardsByAccount",
      "outputs": [],
      "stateMutability": "nonpayable",
      "type": "function"
    },
    {
      "inputs": [],
      "name": "vaultRouter",
      "outputs": [
        {
          "internalType": "contract IVaultRouter",
          "name": "",
          "type": "address"
        }
      ],
      "stateMutability": "view",
      "type": "function"
    }
  ],
  "bytecode": "0x608060405234801561001057600080fd5b5061001a33610024565b6001600355610076565b600180546001600160a01b038381166001600160a01b0319831681179093556040519116919082907f8be0079c531659141344cd1fd0a4f28419497f9722a3daafe3b4186f6b6457e090600090a35050565b612462806100856000396000f3fe608060405234801561001057600080fd5b50600436106102255760003560e01c806301ffc9a71461022a57806305300b28146102525780630a28a477146102685780631ee2b0b21461027b578063248a9ca3146102905780632f2ff15d146102a357806331de7d15146102b657806336568abe146102c95780633e158b0c146102dc578063402914f5146102e457806344a08411146102f75780634cdad5061461031757806357ded9c91461032a578063674ce1b5146103335780636dc7b0a114610353578063715018a61461035b57806375829def146103635780637fe4a69814610376578063854303cf146103895780638da5cb5b1461039c5780638f089d65146103a457806391d14854146103ac57806399d5c1ec146103bf578063a217fddf146103d2578063a3180217146103da578063a8d93627146103fa578063a9d424e214610402578063aaf5eb6814610415578063ae8bcdf814610428578063b3d7f6b914610448578063b77905ae1461045b578063bfe1092814610463578063c120105414610476578063c89d5b8b1461047e578063d37c441c14610486578063d53b26ee14610499578063d547741f146104ac578063e547bb91146104bf578063e9503425146104c7578063eb4fe818146104e7578063eded3fda146104fa578063ef8b30f714610502578063f29ebf6114610515578063f2fde38b14610528578063f5fc50761461053b578063f7c618c114610544578063f8c8765e1461054c575b600080fd5b61023d610238366004611fd6565b61055f565b60405190151581526020015b60405180910390f35b61025a610596565b604051908152602001610249565b61025a610276366004612000565b610608565b61028e61028936600461202e565b610677565b005b61025a61029e366004612000565b61096e565b61028e6102b136600461204b565b610983565b61025a6102c436600461207b565b6109a4565b61028e6102d736600461204b565b610a8a565b61028e610b08565b61025a6102f236600461202e565b610b26565b61025a61030536600461202e565b600a6020526000908152604090205481565b61025a610325366004612000565b610ce3565b61025a60095481565b600554610346906001600160a01b031681565b60405161024991906120c1565b61025a610d15565b61028e610d5f565b61028e61037136600461202e565b610d71565b61028e61038436600461202e565b610d9b565b61028e610397366004612000565b610dc5565b610346610df5565b61025a610e04565b61023d6103ba36600461204b565b610ea2565b61028e6103cd36600461204b565b610ecb565b61025a600081565b61025a6103e836600461202e565b600d6020526000908152604090205481565b61025a610f69565b61025a61041036600461207b565b610fb3565b61025a68327cb2734119d3b7a9601e1b81565b61025a61043636600461202e565b600b6020526000908152604090205481565b61025a610456366004612000565b611173565b61025a6111a5565b600854610346906001600160a01b031681565b61025a6112f9565b60095461025a565b600654610346906001600160a01b031681565b61025a6104a736600461202e565b611343565b61028e6104ba36600461204b565b611383565b61028e61139f565b61025a6104d536600461202e565b600c6020526000908152604090205481565b61025a6104f536600461202e565b6114db565b61025a61151b565b61025a610510366004612000565b611526565b600454610346906001600160a01b031681565b61028e61053636600461202e565b611558565b61025a60075481565b6103466115d1565b61028e61055a3660046120d5565b61163f565b60006001600160e01b03198216637965db0b60e01b148061059057506301ffc9a760e01b6001600160e01b03198316145b92915050565b6006546040805162a6016560e31b815290516000926001600160a01b0316916305300b289160048083019260209291908290030181865afa1580156105df573d6000803e3d6000fd5b505050506040513d601f19601f820116820180604052508101906106039190612131565b905090565b600554604051630a28a47760e01b8152600481018390526000916001600160a01b031690630a28a477906024015b602060405180830381865afa158015610653573d6000803e3d6000fd5b505050506040513d601f19601f820116820180604052508101906105909190612131565b6008546040805163e4fc6b6d60e01b815290516000926001600160a01b03169163e4fc6b6d916004808301926020929190829003018187875af11580156106c2573d6000803e3d6000fd5b505050506040513d601f19601f820116820180604052508101906106e69190612131565b90506000600560009054906101000a90046001600160a01b03166001600160a01b03166318160ddd6040518163ffffffff1660e01b8152600401602060405180830381865afa15801561073d573d6000803e3d6000fd5b505050506040513d601f19601f820116820180604052508101906107619190612131565b60075490915081158015906107765750600083115b156107e8578161079268327cb2734119d3b7a9601e1b85612160565b61079c9190612177565b6107a69082612199565b600781905560408051848152602081018390529192507f055418cabed8a0ec732dd9b1f84e69d3f33a8f9a70d721b7a6962a00c26a4572910160405180910390a15b806000036107f65750505050565b6001600160a01b0384161561096857600061081085611809565b6001600160a01b0386166000908152600a60205260408120549192509068327cb2734119d3b7a9601e1b9061084590856121ac565b61084f9084612160565b6108599190612177565b6001600160a01b0387166000908152600c602052604081205491925090610881908390612199565b6001600160a01b0388166000908152600c60209081526040808320849055600a9091529020859055905080158015906108c2575060006108c088611809565b115b15610964576001600160a01b0387166000908152600b60205260408120546108eb908490612199565b905061093e610904826108fe878761183a565b9061184d565b6001600160a01b038a166000908152600b6020908152604080832054600d909252909120546109389185916108fe9161183a565b90611859565b6001600160a01b0389166000908152600d6020908152604080832093909355600b905220555b5050505b50505050565b60009081526020819052604090206001015490565b61098c8261096e565b61099581611865565b61099f838361186f565b505050565b60006109ae6118f3565b6109b733610677565b604051635d043b2960e11b8152600481018490526001600160a01b0385811660248301819052604483015283919087169063ba087652906064016020604051808303816000875af1158015610a10573d6000803e3d6000fd5b505050506040513d601f19601f82011682018060405250810190610a349190612131565b9150811015610a785760405162461bcd60e51b815260206004820152600b60248201526a26b4b727baba22b93937b960a91b60448201526064015b60405180910390fd5b610a826001600355565b949350505050565b6001600160a01b0381163314610afa5760405162461bcd60e51b815260206004820152602f60248201527f416363657373436f6e74726f6c3a2063616e206f6e6c792072656e6f756e636560448201526e103937b632b9903337b91039b2b63360891b6064820152608401610a6f565b610b04828261194c565b5050565b610b106118f3565b610b1a6000610677565b610b246001600355565b565b600080610b3283611809565b905080600003610b595750506001600160a01b03166000908152600c602052604090205490565b600554604080516318160ddd60e01b815290516000926001600160a01b0316916318160ddd9160048083019260209291908290030181865afa158015610ba3573d6000803e3d6000fd5b505050506040513d601f19601f82011682018060405250810190610bc79190612131565b90506000610c5868327cb2734119d3b7a9601e1b600860009054906101000a90046001600160a01b03166001600160a01b031663eded3fda6040518163ffffffff1660e01b8152600401602060405180830381865afa158015610c2e573d6000803e3d6000fd5b505050506040513d601f19601f82011682018060405250810190610c529190612131565b9061183a565b90506000610c72610c69838561184d565b60075490611859565b6001600160a01b0387166000908152600a6020526040902054909150610cd990610cba9068327cb2734119d3b7a9601e1b906108fe90610cb39086906119b1565b889061183a565b6001600160a01b0388166000908152600c602052604090205490611859565b9695505050505050565b60055460405163266d6a8360e11b8152600481018390526000916001600160a01b031690634cdad50690602401610636565b60065460408051636dc7b0a160e01b815290516000926001600160a01b031691636dc7b0a19160048083019260209291908290030181865afa1580156105df573d6000803e3d6000fd5b610d676119bd565b610b246000611a1c565b6000610d7c81611865565b610d87600083611a6e565b610d9082611a1c565b610b0460003361194c565b7f8d1089725c0dc266707fa6207730fb801dcd03108bfed7a21099bd303651d2b761022581611865565b7fcb6bc1c12dd43bca8d7dd46d975f913325437d0dcd5978e99d515e4ad39b9772610def81611865565b50600955565b6001546001600160a01b031690565b6000610e366040518060400160405280600f81526020016e33b2ba26282932bbb0b9321f1f1f1f60891b815250611a78565b336000908152600b6020526040902054610e4f90611abb565b610e60610e5b33610b26565b611abb565b336000908152600b60205260408120549003610e7c5750600090565b336000908152600c6020908152604080832054600b9092529091205461060391906121ac565b6000918252602082815260408084206001600160a01b0393909316845291905290205460ff1690565b7f241ecf16d79d0f8dbfb92cbc07fe17840425976cf0667f022fe9877caa831b086000610ef88133610ea2565b90508015610f55576201518060025442610f1291906121ac565b10610f505760405162461bcd60e51b815260206004820152600e60248201526d1858c81d1a5b59481c185cdcd95960921b6044820152606401610a6f565b610f5f565b610f5f8233611b00565b610968848461186f565b6008546040805163a8d9362760e01b815290516000926001600160a01b03169163a8d936279160048083019260209291908290030181865afa1580156105df573d6000803e3d6000fd5b6000610fbd6118f3565b610fc633610677565b6000856001600160a01b03166338d52e0f6040518163ffffffff1660e01b8152600401602060405180830381865afa158015611006573d6000803e3d6000fd5b505050506040513d601f19601f8201168201806040525081019061102a91906121bf565b905061103881333087611b59565b60055460405163095ea7b360e01b81526001600160a01b038381169263095ea7b39261106c929091169088906004016121dc565b6020604051808303816000875af115801561108b573d6000803e3d6000fd5b505050506040513d601f19601f820116820180604052508101906110af91906121f5565b50604051636e553f6560e01b8152600481018590526001600160a01b038681166024830152849190881690636e553f65906044016020604051808303816000875af1158015611102573d6000803e3d6000fd5b505050506040513d601f19601f820116820180604052508101906111269190612131565b92508210156111685760405162461bcd60e51b815260206004820152600e60248201526d26b4b729b430b932b9a2b93937b960911b6044820152606401610a6f565b50610a826001600355565b60055460405163b3d7f6b960e01b8152600481018390526000916001600160a01b03169063b3d7f6b990602401610636565b600080600560009054906101000a90046001600160a01b03166001600160a01b03166301e1d1146040518163ffffffff1660e01b8152600401602060405180830381865afa1580156111fb573d6000803e3d6000fd5b505050506040513d601f19601f8201168201806040525081019061121f9190612131565b90506000600560009054906101000a90046001600160a01b03166001600160a01b03166318160ddd6040518163ffffffff1660e01b8152600401602060405180830381865afa158015611276573d6000803e3d6000fd5b505050506040513d601f19601f8201168201806040525081019061129a9190612131565b90508115806112a7575080155b156112d1576112b4610596565b6112bf90600a6122fb565b6112ca906001612160565b9250505090565b806112da610596565b6112e590600a6122fb565b6112ef9084612160565b6112ca9190612177565b60065460408051633048041560e21b815290516000926001600160a01b03169163c12010549160048083019260209291908290030181865afa1580156105df573d6000803e3d6000fd5b6000816001600160a01b0316636fd3acb46040518163ffffffff1660e01b8152600401602060405180830381865afa158015610653573d6000803e3d6000fd5b61138c8261096e565b61139581611865565b61099f838361194c565b6113a76118f3565b6005546040516370a0823160e01b81526000916001600160a01b0316906370a08231906113d89033906004016120c1565b602060405180830381865afa1580156113f5573d6000803e3d6000fd5b505050506040513d601f19601f820116820180604052508101906114199190612131565b116114525760405162461bcd60e51b81526020600482015260096024820152680796f756e2774204c560bc1b6044820152606401610a6f565b3361145c81610677565b6001600160a01b0381166000908152600c60205260408120805491905561149633826114866115d1565b6001600160a01b03169190611bc4565b7fc9695243a805adb74c91f28311176c65b417e842d5699893cef56d18bfa48cba33826040516114c79291906121dc565b60405180910390a15050610b246001600355565b6000816001600160a01b031663c7b8b46d6040518163ffffffff1660e01b8152600401602060405180830381865afa158015610653573d6000803e3d6000fd5b600061060333610b26565b60055460405163ef8b30f760e01b8152600481018390526000916001600160a01b03169063ef8b30f790602401610636565b6115606119bd565b6001600160a01b0381166115c55760405162461bcd60e51b815260206004820152602660248201527f4f776e61626c653a206e6577206f776e657220697320746865207a65726f206160448201526564647265737360d01b6064820152608401610a6f565b6115ce81611a1c565b50565b600554604080516338d52e0f60e01b815290516000926001600160a01b0316916338d52e0f9160048083019260209291908290030181865afa15801561161b573d6000803e3d6000fd5b505050506040513d601f19601f8201168201806040525081019061060391906121bf565b600154600160a81b900460ff1615808015611665575060018054600160a01b900460ff16105b8061168c575061167430611be3565b15801561168c575060018054600160a01b900460ff16145b6116ef5760405162461bcd60e51b815260206004820152602e60248201527f496e697469616c697a61626c653a20636f6e747261637420697320616c72656160448201526d191e481a5b9a5d1a585b1a5e995960921b6064820152608401610a6f565b6001805460ff60a01b1916600160a01b179055801561171c576001805460ff60a81b1916600160a81b1790555b6001600160a01b03851661172f57600080fd5b6001600160a01b03841661174257600080fd5b6001600160a01b03831661175557600080fd5b6001600160a01b03821661176857600080fd5b61177133611bf2565b600680546001600160a01b038087166001600160a01b031992831617909255600580548884169083161790556004805486841690831617905560088054928516929091169190911790558015611802576001805460ff60a81b191681556040519081527f7f26b83ff96e1f2b6a682f133852f6798a09c465da95921460cefb38474024989060200160405180910390a15b5050505050565b6005546040516370a0823160e01b81526000916001600160a01b0316906370a08231906106369085906004016120c1565b60006118468284612160565b9392505050565b60006118468284612177565b60006118468284612199565b6115ce8133611b00565b6118798282610ea2565b610b04576000828152602081815260408083206001600160a01b03851684529091529020805460ff191660011790556118af3390565b6001600160a01b0316816001600160a01b0316837f2f8788117e7eff1d82e926ec794901d17c78024a50270940304540a733656f0d60405160405180910390a45050565b6002600354036119455760405162461bcd60e51b815260206004820152601f60248201527f5265656e7472616e637947756172643a207265656e7472616e742063616c6c006044820152606401610a6f565b6002600355565b6119568282610ea2565b15610b04576000828152602081815260408083206001600160a01b0385168085529252808320805460ff1916905551339285917ff6391f5c32d9c69d2a47ea670b442974b53935d1edc7fd64eb21e047a839171b9190a45050565b600061184682846121ac565b336119c6610df5565b6001600160a01b031614610b245760405162461bcd60e51b815260206004820181905260248201527f4f776e61626c653a2063616c6c6572206973206e6f7420746865206f776e65726044820152606401610a6f565b600180546001600160a01b038381166001600160a01b0319831681179093556040519116919082907f8be0079c531659141344cd1fd0a4f28419497f9722a3daafe3b4186f6b6457e090600090a35050565b610b04828261186f565b6115ce81604051602401611a8c919061232b565b60408051601f198184030181529190526020810180516001600160e01b031663104c13eb60e21b179052611c15565b6115ce81604051602401611ad191815260200190565b60408051601f198184030181529190526020810180516001600160e01b031663f82c50f160e01b179052611c15565b611b0a8282610ea2565b610b0457611b1781611c36565b611b22836020611c48565b604051602001611b3392919061235e565b60408051601f198184030181529082905262461bcd60e51b8252610a6f9160040161232b565b6040516001600160a01b03808516602483015283166044820152606481018290526109689085906323b872dd60e01b906084015b60408051601f198184030181529190526020810180516001600160e01b03166001600160e01b031990931692909217909152611de3565b61099f8363a9059cbb60e01b8484604051602401611b8d9291906121dc565b6001600160a01b03163b151590565b42600255611bff33611a1c565b611c0a600033611a6e565b6115ce600082611a6e565b80516a636f6e736f6c652e6c6f67602083016000808483855afa5050505050565b60606105906001600160a01b03831660145b60606000611c57836002612160565b611c62906002612199565b6001600160401b03811115611c7957611c796123cd565b6040519080825280601f01601f191660200182016040528015611ca3576020820181803683370190505b509050600360fc1b81600081518110611cbe57611cbe6123e3565b60200101906001600160f81b031916908160001a905350600f60fb1b81600181518110611ced57611ced6123e3565b60200101906001600160f81b031916908160001a9053506000611d11846002612160565b611d1c906001612199565b90505b6001811115611d94576f181899199a1a9b1b9c1cb0b131b232b360811b85600f1660108110611d5057611d506123e3565b1a60f81b828281518110611d6657611d666123e3565b60200101906001600160f81b031916908160001a90535060049490941c93611d8d816123f9565b9050611d1f565b5083156118465760405162461bcd60e51b815260206004820181905260248201527f537472696e67733a20686578206c656e67746820696e73756666696369656e746044820152606401610a6f565b6000611e38826040518060400160405280602081526020017f5361666545524332303a206c6f772d6c6576656c2063616c6c206661696c6564815250856001600160a01b0316611eb59092919063ffffffff16565b80519091501561099f5780806020019051810190611e5691906121f5565b61099f5760405162461bcd60e51b815260206004820152602a60248201527f5361666545524332303a204552433230206f7065726174696f6e20646964206e6044820152691bdd081cdd58d8d9595960b21b6064820152608401610a6f565b6060610a82848460008585600080866001600160a01b03168587604051611edc9190612410565b60006040518083038185875af1925050503d8060008114611f19576040519150601f19603f3d011682016040523d82523d6000602084013e611f1e565b606091505b5091509150611f2f87838387611f3a565b979650505050505050565b60608315611fa7578251600003611fa057611f5485611be3565b611fa05760405162461bcd60e51b815260206004820152601d60248201527f416464726573733a2063616c6c20746f206e6f6e2d636f6e74726163740000006044820152606401610a6f565b5081610a82565b610a828383815115611fbc5781518083602001fd5b8060405162461bcd60e51b8152600401610a6f919061232b565b600060208284031215611fe857600080fd5b81356001600160e01b03198116811461184657600080fd5b60006020828403121561201257600080fd5b5035919050565b6001600160a01b03811681146115ce57600080fd5b60006020828403121561204057600080fd5b813561184681612019565b6000806040838503121561205e57600080fd5b82359150602083013561207081612019565b809150509250929050565b6000806000806080858703121561209157600080fd5b843561209c81612019565b935060208501356120ac81612019565b93969395505050506040820135916060013590565b6001600160a01b0391909116815260200190565b600080600080608085870312156120eb57600080fd5b84356120f681612019565b9350602085013561210681612019565b9250604085013561211681612019565b9150606085013561212681612019565b939692955090935050565b60006020828403121561214357600080fd5b5051919050565b634e487b7160e01b600052601160045260246000fd5b80820281158282048414176105905761059061214a565b60008261219457634e487b7160e01b600052601260045260246000fd5b500490565b808201808211156105905761059061214a565b818103818111156105905761059061214a565b6000602082840312156121d157600080fd5b815161184681612019565b6001600160a01b03929092168252602082015260400190565b60006020828403121561220757600080fd5b8151801515811461184657600080fd5b600181815b808511156122525781600019048211156122385761223861214a565b8085161561224557918102915b93841c939080029061221c565b509250929050565b60008261226957506001610590565b8161227657506000610590565b816001811461228c5760028114612296576122b2565b6001915050610590565b60ff8411156122a7576122a761214a565b50506001821b610590565b5060208310610133831016604e8410600b84101617156122d5575081810a610590565b6122df8383612217565b80600019048211156122f3576122f361214a565b029392505050565b6000611846838361225a565b60005b8381101561232257818101518382015260200161230a565b50506000910152565b602081526000825180602084015261234a816040850160208701612307565b601f01601f19169190910160400192915050565b76020b1b1b2b9b9a1b7b73a3937b61d1030b1b1b7bab73a1604d1b815260008351612390816017850160208801612307565b7001034b99036b4b9b9b4b733903937b6329607d1b60179184019182015283516123c1816028840160208801612307565b01602801949350505050565b634e487b7160e01b600052604160045260246000fd5b634e487b7160e01b600052603260045260246000fd5b6000816124085761240861214a565b506000190190565b60008251612422818460208701612307565b919091019291505056fea264697066735822122030909829658b0bf2d375d5059d7c5b3aa5021c75e0c56c33132b99220ee47e7864736f6c63430008110033",
  "linkReferences": {},
  "deployedLinkReferences": {}
}