{
    "_format": "hh-sol-artifact-1",
    "contractName": "VaultReward",
    "sourceName": "contracts/vault/VaultReward.sol",
    "abi": [
        {
            "anonymous": false,
            "inputs": [
                {
                    "indexed": false,
                    "internalType": "address",
                    "name": "account",
                    "type": "address"
                },
                {
                    "indexed": false,
                    "internalType": "uint256",
                    "name": "amount",
                    "type": "uint256"
                }
            ],
            "name": "Harvest",
            "type": "event"
        },
        {
            "anonymous": false,
            "inputs": [
                {
                    "indexed": false,
                    "internalType": "uint8",
                    "name": "version",
                    "type": "uint8"
                }
            ],
            "name": "Initialized",
            "type": "event"
        },
        {
            "anonymous": false,
            "inputs": [
                {
                    "indexed": false,
                    "internalType": "uint256",
                    "name": "supply",
                    "type": "uint256"
                },
                {
                    "indexed": false,
                    "internalType": "uint256",
                    "name": "cumulativeRewardPerToken",
                    "type": "uint256"
                }
            ],
            "name": "LogUpdatePool",
            "type": "event"
        },
        {
            "inputs": [],
            "name": "DEFAULT_ADMIN_ROLE",
            "outputs": [
                {
                    "internalType": "bytes32",
                    "name": "",
                    "type": "bytes32"
                }
            ],
            "stateMutability": "view",
            "type": "function"
        },
        {
            "inputs": [],
            "name": "PRECISION",
            "outputs": [
                {
                    "internalType": "uint256",
                    "name": "",
                    "type": "uint256"
                }
            ],
            "stateMutability": "view",
            "type": "function"
        },
        {
            "inputs": [
                {
                    "internalType": "address",
                    "name": "newOwner",
                    "type": "address"
                }
            ],
            "name": "_transferOwnership",
            "outputs": [],
            "stateMutability": "pure",
            "type": "function"
        },
        {
            "inputs": [],
            "name": "apr",
            "outputs": [
                {
                    "internalType": "uint256",
                    "name": "",
                    "type": "uint256"
                }
            ],
            "stateMutability": "view",
            "type": "function"
        },
        {
            "inputs": [
                {
                    "internalType": "address",
                    "name": "",
                    "type": "address"
                }
            ],
            "name": "averageStakedAmounts",
            "outputs": [
                {
                    "internalType": "uint256",
                    "name": "",
                    "type": "uint256"
                }
            ],
            "stateMutability": "view",
            "type": "function"
        },
        {
            "inputs": [
                {
                    "internalType": "contract IERC4626",
                    "name": "vault",
                    "type": "address"
                },
                {
                    "internalType": "address",
                    "name": "to",
                    "type": "address"
                },
                {
                    "internalType": "uint256",
                    "name": "amount",
                    "type": "uint256"
                },
                {
                    "internalType": "uint256",
                    "name": "minSharesOut",
                    "type": "uint256"
                }
            ],
            "name": "buy",
            "outputs": [
                {
                    "internalType": "uint256",
                    "name": "sharesOut",
                    "type": "uint256"
                }
            ],
            "stateMutability": "nonpayable",
            "type": "function"
        },
        {
            "inputs": [
                {
                    "internalType": "contract ICoreVault",
                    "name": "vault",
                    "type": "address"
                }
            ],
            "name": "buyLpFee",
            "outputs": [
                {
                    "internalType": "uint256",
                    "name": "",
                    "type": "uint256"
                }
            ],
            "stateMutability": "view",
            "type": "function"
        },
        {
            "inputs": [],
            "name": "claimLPReward",
            "outputs": [],
            "stateMutability": "nonpayable",
            "type": "function"
        },
        {
            "inputs": [
                {
                    "internalType": "address",
                    "name": "_account",
                    "type": "address"
                }
            ],
            "name": "claimable",
            "outputs": [
                {
                    "internalType": "uint256",
                    "name": "",
                    "type": "uint256"
                }
            ],
            "stateMutability": "view",
            "type": "function"
        },
        {
            "inputs": [
                {
                    "internalType": "address",
                    "name": "",
                    "type": "address"
                }
            ],
            "name": "claimableReward",
            "outputs": [
                {
                    "internalType": "uint256",
                    "name": "",
                    "type": "uint256"
                }
            ],
            "stateMutability": "view",
            "type": "function"
        },
        {
            "inputs": [],
            "name": "coreVault",
            "outputs": [
                {
                    "internalType": "contract ICoreVault",
                    "name": "",
                    "type": "address"
                }
            ],
            "stateMutability": "view",
            "type": "function"
        },
        {
            "inputs": [],
            "name": "cumulativeRewardPerToken",
            "outputs": [
                {
                    "internalType": "uint256",
                    "name": "",
                    "type": "uint256"
                }
            ],
            "stateMutability": "view",
            "type": "function"
        },
        {
            "inputs": [],
            "name": "distributor",
            "outputs": [
                {
                    "internalType": "address",
                    "name": "",
                    "type": "address"
                }
            ],
            "stateMutability": "view",
            "type": "function"
        },
        {
            "inputs": [],
            "name": "feeRouter",
            "outputs": [
                {
                    "internalType": "contract IFeeRouter",
                    "name": "",
                    "type": "address"
                }
            ],
            "stateMutability": "view",
            "type": "function"
        },
        {
            "inputs": [],
            "name": "getAPR",
            "outputs": [
                {
                    "internalType": "uint256",
                    "name": "",
                    "type": "uint256"
                }
            ],
            "stateMutability": "view",
            "type": "function"
        },
        {
            "inputs": [],
            "name": "getAUM",
            "outputs": [
                {
                    "internalType": "uint256",
                    "name": "",
                    "type": "uint256"
                }
            ],
            "stateMutability": "view",
            "type": "function"
        },
        {
            "inputs": [],
            "name": "getLPPrice",
            "outputs": [
                {
                    "internalType": "uint256",
                    "name": "",
                    "type": "uint256"
                }
            ],
            "stateMutability": "view",
            "type": "function"
        },
        {
            "inputs": [],
            "name": "getLPReward",
            "outputs": [
                {
                    "internalType": "uint256",
                    "name": "",
                    "type": "uint256"
                }
            ],
            "stateMutability": "view",
            "type": "function"
        },
        {
            "inputs": [],
            "name": "getUSDBalance",
            "outputs": [
                {
                    "internalType": "uint256",
                    "name": "",
                    "type": "uint256"
                }
            ],
            "stateMutability": "view",
            "type": "function"
        },
        {
            "inputs": [
                {
                    "internalType": "address",
                    "name": "_account",
                    "type": "address"
                }
            ],
            "name": "grantControllerRoleByMarketManager",
            "outputs": [],
            "stateMutability": "nonpayable",
            "type": "function"
        },
        {
            "inputs": [
                {
                    "internalType": "bytes32",
                    "name": "role",
                    "type": "bytes32"
                },
                {
                    "internalType": "address",
                    "name": "account",
                    "type": "address"
                }
            ],
            "name": "grantRole",
            "outputs": [],
            "stateMutability": "pure",
            "type": "function"
        },
        {
            "inputs": [
                {
                    "internalType": "bytes32",
                    "name": "role",
                    "type": "bytes32"
                },
                {
                    "internalType": "address",
                    "name": "account",
                    "type": "address"
                }
            ],
            "name": "hasRole",
            "outputs": [
                {
                    "internalType": "bool",
                    "name": "",
                    "type": "bool"
                }
            ],
            "stateMutability": "pure",
            "type": "function"
        },
        {
            "inputs": [
                {
                    "internalType": "address",
                    "name": "_coreVault",
                    "type": "address"
                },
                {
                    "internalType": "address",
                    "name": "_vaultRouter",
                    "type": "address"
                },
                {
                    "internalType": "address",
                    "name": "_feeRouter",
                    "type": "address"
                },
                {
                    "internalType": "address",
                    "name": "_distributor",
                    "type": "address"
                }
            ],
            "name": "initialize",
            "outputs": [],
            "stateMutability": "nonpayable",
            "type": "function"
        },
        {
            "inputs": [
                {
                    "internalType": "address",
                    "name": "",
                    "type": "address"
                }
            ],
            "name": "lpEarnedRewards",
            "outputs": [
                {
                    "internalType": "uint256",
                    "name": "",
                    "type": "uint256"
                }
            ],
            "stateMutability": "view",
            "type": "function"
        },
        {
            "inputs": [],
            "name": "pendingRewards",
            "outputs": [
                {
                    "internalType": "uint256",
                    "name": "",
                    "type": "uint256"
                }
            ],
            "stateMutability": "view",
            "type": "function"
        },
        {
            "inputs": [
                {
                    "internalType": "uint256",
                    "name": "assets",
                    "type": "uint256"
                }
            ],
            "name": "previewDeposit",
            "outputs": [
                {
                    "internalType": "uint256",
                    "name": "",
                    "type": "uint256"
                }
            ],
            "stateMutability": "view",
            "type": "function"
        },
        {
            "inputs": [
                {
                    "internalType": "uint256",
                    "name": "shares",
                    "type": "uint256"
                }
            ],
            "name": "previewMint",
            "outputs": [
                {
                    "internalType": "uint256",
                    "name": "",
                    "type": "uint256"
                }
            ],
            "stateMutability": "view",
            "type": "function"
        },
        {
            "inputs": [
                {
                    "internalType": "uint256",
                    "name": "shares",
                    "type": "uint256"
                }
            ],
            "name": "previewRedeem",
            "outputs": [
                {
                    "internalType": "uint256",
                    "name": "",
                    "type": "uint256"
                }
            ],
            "stateMutability": "view",
            "type": "function"
        },
        {
            "inputs": [
                {
                    "internalType": "uint256",
                    "name": "assets",
                    "type": "uint256"
                }
            ],
            "name": "previewWithdraw",
            "outputs": [
                {
                    "internalType": "uint256",
                    "name": "",
                    "type": "uint256"
                }
            ],
            "stateMutability": "view",
            "type": "function"
        },
        {
            "inputs": [
                {
                    "internalType": "address",
                    "name": "",
                    "type": "address"
                }
            ],
            "name": "previousCumulatedRewardPerToken",
            "outputs": [
                {
                    "internalType": "uint256",
                    "name": "",
                    "type": "uint256"
                }
            ],
            "stateMutability": "view",
            "type": "function"
        },
        {
            "inputs": [],
            "name": "priceDecimals",
            "outputs": [
                {
                    "internalType": "uint256",
                    "name": "",
                    "type": "uint256"
                }
            ],
            "stateMutability": "view",
            "type": "function"
        },
        {
            "inputs": [
                {
                    "internalType": "bytes32",
                    "name": "role",
                    "type": "bytes32"
                },
                {
                    "internalType": "address",
                    "name": "account",
                    "type": "address"
                }
            ],
            "name": "revokeRole",
            "outputs": [],
            "stateMutability": "pure",
            "type": "function"
        },
        {
            "inputs": [],
            "name": "rewardToken",
            "outputs": [
                {
                    "internalType": "address",
                    "name": "",
                    "type": "address"
                }
            ],
            "stateMutability": "view",
            "type": "function"
        },
        {
            "inputs": [
                {
                    "internalType": "contract IERC4626",
                    "name": "vault",
                    "type": "address"
                },
                {
                    "internalType": "address",
                    "name": "to",
                    "type": "address"
                },
                {
                    "internalType": "uint256",
                    "name": "shares",
                    "type": "uint256"
                },
                {
                    "internalType": "uint256",
                    "name": "minAssetsOut",
                    "type": "uint256"
                }
            ],
            "name": "sell",
            "outputs": [
                {
                    "internalType": "uint256",
                    "name": "assetOut",
                    "type": "uint256"
                }
            ],
            "stateMutability": "nonpayable",
            "type": "function"
        },
        {
            "inputs": [
                {
                    "internalType": "contract ICoreVault",
                    "name": "vault",
                    "type": "address"
                }
            ],
            "name": "sellLpFee",
            "outputs": [
                {
                    "internalType": "uint256",
                    "name": "",
                    "type": "uint256"
                }
            ],
            "stateMutability": "view",
            "type": "function"
        },
        {
            "inputs": [
                {
                    "internalType": "uint256",
                    "name": "_apr",
                    "type": "uint256"
                }
            ],
            "name": "setAPR",
            "outputs": [],
            "stateMutability": "nonpayable",
            "type": "function"
        },
        {
            "inputs": [],
            "name": "tokensPerInterval",
            "outputs": [
                {
                    "internalType": "uint256",
                    "name": "",
                    "type": "uint256"
                }
            ],
            "stateMutability": "view",
            "type": "function"
        },
        {
            "inputs": [
                {
                    "internalType": "address",
                    "name": "to",
                    "type": "address"
                }
            ],
            "name": "transferAdmin",
            "outputs": [],
            "stateMutability": "nonpayable",
            "type": "function"
        },
        {
            "inputs": [
                {
                    "internalType": "address",
                    "name": "newOwner",
                    "type": "address"
                }
            ],
            "name": "transferOwnership",
            "outputs": [],
            "stateMutability": "pure",
            "type": "function"
        },
        {
            "inputs": [],
            "name": "updateRewards",
            "outputs": [],
            "stateMutability": "nonpayable",
            "type": "function"
        },
        {
            "inputs": [
                {
                    "internalType": "address",
                    "name": "_account",
                    "type": "address"
                }
            ],
            "name": "updateRewardsByAccount",
            "outputs": [],
            "stateMutability": "nonpayable",
            "type": "function"
        },
        {
            "inputs": [],
            "name": "vaultRouter",
            "outputs": [
                {
                    "internalType": "contract IVaultRouter",
                    "name": "",
                    "type": "address"
                }
            ],
            "stateMutability": "view",
            "type": "function"
        }
    ],
    "bytecode": "0x608060405234801561001057600080fd5b506001600255611bd2806100256000396000f3fe608060405234801561001057600080fd5b506004361061025e5760003560e01c8063aaf5eb6811610146578063d547741f116100c3578063ef8b30f711610087578063ef8b30f7146104e6578063f29ebf61146104f9578063f2fde38b1461046c578063f5fc50761461050c578063f7c618c114610515578063f8c8765e1461051d57600080fd5b8063d547741f146102a6578063e547bb91146104a3578063e9503425146104ab578063eb4fe818146104cb578063eded3fda146104de57600080fd5b8063c12010541161010a578063c12010541461045c578063c89d5b8b14610464578063d29d44ee1461046c578063d37c441c1461047d578063d53b26ee1461049057600080fd5b8063aaf5eb68146103fa578063ae8bcdf81461040e578063b3d7f6b91461042e578063b77905ae14610441578063bfe109281461044957600080fd5b8063674ce1b5116101df5780638f089d65116101a35780638f089d651461038957806391d1485414610391578063a217fddf146103b7578063a3180217146103bf578063a8d93627146103df578063a9d424e2146103e757600080fd5b8063674ce1b5146103225780636dc7b0a11461034d57806375829def146103555780637fe4a69814610368578063854303cf1461037657600080fd5b80633e158b0c116102265780633e158b0c146102cb578063402914f5146102d357806344a08411146102e65780634cdad5061461030657806357ded9c91461031957600080fd5b806305300b28146102635780630a28a4771461027e5780631ee2b0b2146102915780632f2ff15d146102a657806331de7d15146102b8575b600080fd5b61026b610530565b6040519081526020015b60405180910390f35b61026b61028c36600461184f565b6105a2565b6102a461029f36600461187d565b610619565b005b6102a46102b436600461189a565b5050565b61026b6102c63660046118ca565b610912565b6102a4610a6f565b61026b6102e136600461187d565b610a8d565b61026b6102f436600461187d565b60096020526000908152604090205481565b61026b61031436600461184f565b610c57565b61026b60085481565b600454610335906001600160a01b031681565b6040516001600160a01b039091168152602001610275565b61026b610c8b565b6102a461036336600461187d565b610cd5565b6102a461025e36600461187d565b6102a461038436600461184f565b600855565b61026b610ce0565b6103a761039f36600461189a565b600192915050565b6040519015158152602001610275565b61026b600081565b61026b6103cd36600461187d565b600c6020526000908152604090205481565b61026b610d22565b61026b6103f53660046118ca565b610d6c565b61026b6c0c9f2c9cd04674edea4000000081565b61026b61041c36600461187d565b600a6020526000908152604090205481565b61026b61043c36600461184f565b610f25565b61026b610f59565b600754610335906001600160a01b031681565b61026b61109f565b60085461026b565b6102a461047a36600461187d565b50565b600554610335906001600160a01b031681565b61026b61049e36600461187d565b6110e9565b6102a4611129565b61026b6104b936600461187d565b600b6020526000908152604090205481565b61026b6104d936600461187d565b6111c0565b61026b611200565b61026b6104f436600461184f565b61120b565b600354610335906001600160a01b031681565b61026b60065481565b61033561123f565b6102a461052b366004611910565b6112b8565b6005546040805162a6016560e31b815290516000926001600160a01b0316916305300b289160048083019260209291908290030181865afa158015610579573d6000803e3d6000fd5b505050506040513d601f19601f8201168201806040525081019061059d919061196c565b905090565b60048054604051630a28a47760e01b81529182018390526000916001600160a01b0390911690630a28a477906024015b602060405180830381865afa1580156105ef573d6000803e3d6000fd5b505050506040513d601f19601f82011682018060405250810190610613919061196c565b92915050565b6007546040805163e4fc6b6d60e01b815290516000926001600160a01b03169163e4fc6b6d916004808301926020929190829003018187875af1158015610664573d6000803e3d6000fd5b505050506040513d601f19601f82011682018060405250810190610688919061196c565b90506000600460009054906101000a90046001600160a01b03166001600160a01b03166318160ddd6040518163ffffffff1660e01b8152600401602060405180830381865afa1580156106df573d6000803e3d6000fd5b505050506040513d601f19601f82011682018060405250810190610703919061196c565b60065490915081158015906107185750600083115b1561078b57816107356c0c9f2c9cd04674edea400000008561199b565b61073f91906119b2565b61074990826119d4565b600681905560408051848152602081018390529192507f055418cabed8a0ec732dd9b1f84e69d3f33a8f9a70d721b7a6962a00c26a4572910160405180910390a15b806000036107995750505050565b6001600160a01b0384161561090c5760006107b385611464565b6001600160a01b038616600090815260096020526040812054919250906c0c9f2c9cd04674edea40000000906107e990856119e7565b6107f3908461199b565b6107fd91906119b2565b6001600160a01b0387166000908152600b6020526040812054919250906108259083906119d4565b6001600160a01b0388166000908152600b6020908152604080832084905560099091529020859055905080158015906108665750600061086488611464565b115b15610908576001600160a01b0387166000908152600a602052604081205461088f9084906119d4565b90506108e26108a8826108a2878761149c565b906114af565b6001600160a01b038a166000908152600a6020908152604080832054600c909252909120546108dc9185916108a29161149c565b906114bb565b6001600160a01b0389166000908152600c6020908152604080832093909355600a905220555b5050505b50505050565b600061091c6114c7565b604051635d043b2960e11b8152600481018490526001600160a01b0385811660248301819052604483015283919087169063ba087652906064016020604051808303816000875af1158015610975573d6000803e3d6000fd5b505050506040513d601f19601f82011682018060405250810190610999919061196c565b91508110156109dd5760405162461bcd60e51b815260206004820152600b60248201526a26b4b727baba22b93937b960a91b60448201526064015b60405180910390fd5b600480546040516370a0823160e01b81526001600160a01b03878116938201939093529116906370a0823190602401602060405180830381865afa158015610a29573d6000803e3d6000fd5b505050506040513d601f19601f82011682018060405250810190610a4d919061196c565b600003610a5d57610a5d8461151e565b610a676001600255565b949350505050565b610a776114c7565b610a816000610619565b610a8b6001600255565b565b600080610a9983611464565b905080600003610ac05750506001600160a01b03166000908152600b602052604090205490565b6000600460009054906101000a90046001600160a01b03166001600160a01b03166318160ddd6040518163ffffffff1660e01b8152600401602060405180830381865afa158015610b15573d6000803e3d6000fd5b505050506040513d601f19601f82011682018060405250810190610b39919061196c565b90506000610bcb6c0c9f2c9cd04674edea40000000600760009054906101000a90046001600160a01b03166001600160a01b031663eded3fda6040518163ffffffff1660e01b8152600401602060405180830381865afa158015610ba1573d6000803e3d6000fd5b505050506040513d601f19601f82011682018060405250810190610bc5919061196c565b9061149c565b90506000610be5610bdc83856114af565b600654906114bb565b6001600160a01b038716600090815260096020526040902054909150610c4d90610c2e906c0c9f2c9cd04674edea40000000906108a290610c279086906115a7565b889061149c565b6001600160a01b0388166000908152600b6020526040902054906114bb565b9695505050505050565b6004805460405163266d6a8360e11b81529182018390526000916001600160a01b0390911690634cdad506906024016105d2565b60055460408051636dc7b0a160e01b815290516000926001600160a01b031691636dc7b0a19160048083019260209291908290030181865afa158015610579573d6000803e3d6000fd5b60006102b460003382565b336000908152600a60205260408120548103610cfc5750600090565b336000908152600b6020908152604080832054600a9092529091205461059d91906119e7565b6007546040805163a8d9362760e01b815290516000926001600160a01b03169163a8d936279160048083019260209291908290030181865afa158015610579573d6000803e3d6000fd5b6000610d766114c7565b6000856001600160a01b03166338d52e0f6040518163ffffffff1660e01b8152600401602060405180830381865afa158015610db6573d6000803e3d6000fd5b505050506040513d601f19601f82011682018060405250810190610dda91906119fa565b9050610de8813330876115b3565b6004805460405163095ea7b360e01b81526001600160a01b03918216928101929092526024820186905282169063095ea7b3906044016020604051808303816000875af1158015610e3d573d6000803e3d6000fd5b505050506040513d601f19601f82011682018060405250810190610e619190611a17565b50604051636e553f6560e01b8152600481018590526001600160a01b038681166024830152849190881690636e553f65906044016020604051808303816000875af1158015610eb4573d6000803e3d6000fd5b505050506040513d601f19601f82011682018060405250810190610ed8919061196c565b9250821015610f1a5760405162461bcd60e51b815260206004820152600e60248201526d26b4b729b430b932b9a2b93937b960911b60448201526064016109d4565b50610a676001600255565b6004805460405163b3d7f6b960e01b81529182018390526000916001600160a01b039091169063b3d7f6b9906024016105d2565b60048054604080516278744560e21b8152905160009384936001600160a01b0316926301e1d11492818301926020928290030181865afa158015610fa1573d6000803e3d6000fd5b505050506040513d601f19601f82011682018060405250810190610fc5919061196c565b90506000600460009054906101000a90046001600160a01b03166001600160a01b03166318160ddd6040518163ffffffff1660e01b8152600401602060405180830381865afa15801561101c573d6000803e3d6000fd5b505050506040513d601f19601f82011682018060405250810190611040919061196c565b905081158061104d575080155b156110775761105a610530565b61106590600a611b1d565b61107090600161199b565b9250505090565b80611080610530565b61108b90600a611b1d565b611095908461199b565b61107091906119b2565b60055460408051633048041560e21b815290516000926001600160a01b03169163c12010549160048083019260209291908290030181865afa158015610579573d6000803e3d6000fd5b6000816001600160a01b0316636fd3acb46040518163ffffffff1660e01b8152600401602060405180830381865afa1580156105ef573d6000803e3d6000fd5b6111316114c7565b600480546040516370a0823160e01b8152339281018390526001600160a01b03909116906370a0823190602401602060405180830381865afa15801561117b573d6000803e3d6000fd5b505050506040513d601f19601f8201168201806040525081019061119f919061196c565b6000036111ac5750610a81565b6111b53361151e565b50610a8b6001600255565b6000816001600160a01b031663c7b8b46d6040518163ffffffff1660e01b8152600401602060405180830381865afa1580156105ef573d6000803e3d6000fd5b600061059d33610a8d565b6004805460405163ef8b30f760e01b81529182018390526000916001600160a01b039091169063ef8b30f7906024016105d2565b6000600460009054906101000a90046001600160a01b03166001600160a01b03166338d52e0f6040518163ffffffff1660e01b8152600401602060405180830381865afa158015611294573d6000803e3d6000fd5b505050506040513d601f19601f8201168201806040525081019061059d91906119fa565b600054610100900460ff16158080156112d85750600054600160ff909116105b806112f25750303b1580156112f2575060005460ff166001145b6113555760405162461bcd60e51b815260206004820152602e60248201527f496e697469616c697a61626c653a20636f6e747261637420697320616c72656160448201526d191e481a5b9a5d1a585b1a5e995960921b60648201526084016109d4565b6000805460ff191660011790558015611378576000805461ff0019166101001790555b6001600160a01b03851661138b57600080fd5b6001600160a01b03841661139e57600080fd5b6001600160a01b0383166113b157600080fd5b6001600160a01b0382166113c457600080fd5b6113cd3361161e565b600580546001600160a01b038087166001600160a01b03199283161790925560048054888416908316179055600380548684169083161790556007805492851692909116919091179055801561145d576000805461ff0019169055604051600181527f7f26b83ff96e1f2b6a682f133852f6798a09c465da95921460cefb38474024989060200160405180910390a15b5050505050565b600480546040516370a0823160e01b81526001600160a01b0384811693820193909352600092909116906370a08231906024016105d2565b60006114a8828461199b565b9392505050565b60006114a882846119b2565b60006114a882846119d4565b60028054036115185760405162461bcd60e51b815260206004820152601f60248201527f5265656e7472616e637947756172643a207265656e7472616e742063616c6c0060448201526064016109d4565b60028055565b61152781610619565b6001600160a01b0381166000908152600b602052604081208054919055611561828261155161123f565b6001600160a01b03169190611625565b604080516001600160a01b0384168152602081018390527fc9695243a805adb74c91f28311176c65b417e842d5699893cef56d18bfa48cba910160405180910390a15050565b60006114a882846119e7565b6040516001600160a01b038085166024830152831660448201526064810182905261090c9085906323b872dd60e01b906084015b60408051601f198184030181529190526020810180516001600160e01b03166001600160e01b03199093169290921790915261165a565b4260015550565b6040516001600160a01b03831660248201526044810182905261165590849063a9059cbb60e01b906064016115e7565b505050565b60006116af826040518060400160405280602081526020017f5361666545524332303a206c6f772d6c6576656c2063616c6c206661696c6564815250856001600160a01b031661172c9092919063ffffffff16565b80519091501561165557808060200190518101906116cd9190611a17565b6116555760405162461bcd60e51b815260206004820152602a60248201527f5361666545524332303a204552433230206f7065726174696f6e20646964206e6044820152691bdd081cdd58d8d9595960b21b60648201526084016109d4565b6060610a67848460008585600080866001600160a01b031685876040516117539190611b4d565b60006040518083038185875af1925050503d8060008114611790576040519150601f19603f3d011682016040523d82523d6000602084013e611795565b606091505b50915091506117a6878383876117b1565b979650505050505050565b60608315611820578251600003611819576001600160a01b0385163b6118195760405162461bcd60e51b815260206004820152601d60248201527f416464726573733a2063616c6c20746f206e6f6e2d636f6e747261637400000060448201526064016109d4565b5081610a67565b610a6783838151156118355781518083602001fd5b8060405162461bcd60e51b81526004016109d49190611b69565b60006020828403121561186157600080fd5b5035919050565b6001600160a01b038116811461047a57600080fd5b60006020828403121561188f57600080fd5b81356114a881611868565b600080604083850312156118ad57600080fd5b8235915060208301356118bf81611868565b809150509250929050565b600080600080608085870312156118e057600080fd5b84356118eb81611868565b935060208501356118fb81611868565b93969395505050506040820135916060013590565b6000806000806080858703121561192657600080fd5b843561193181611868565b9350602085013561194181611868565b9250604085013561195181611868565b9150606085013561196181611868565b939692955090935050565b60006020828403121561197e57600080fd5b5051919050565b634e487b7160e01b600052601160045260246000fd5b808202811582820484141761061357610613611985565b6000826119cf57634e487b7160e01b600052601260045260246000fd5b500490565b8082018082111561061357610613611985565b8181038181111561061357610613611985565b600060208284031215611a0c57600080fd5b81516114a881611868565b600060208284031215611a2957600080fd5b815180151581146114a857600080fd5b600181815b80851115611a74578160001904821115611a5a57611a5a611985565b80851615611a6757918102915b93841c9390800290611a3e565b509250929050565b600082611a8b57506001610613565b81611a9857506000610613565b8160018114611aae5760028114611ab857611ad4565b6001915050610613565b60ff841115611ac957611ac9611985565b50506001821b610613565b5060208310610133831016604e8410600b8410161715611af7575081810a610613565b611b018383611a39565b8060001904821115611b1557611b15611985565b029392505050565b60006114a88383611a7c565b60005b83811015611b44578181015183820152602001611b2c565b50506000910152565b60008251611b5f818460208701611b29565b9190910192915050565b6020815260008251806020840152611b88816040850160208701611b29565b601f01601f1916919091016040019291505056fea264697066735822122005ae61e5131c87a73fff37a809cf8da7304d87c4f6b82b879dfbcbbf5f2e4e4864736f6c63430008110033",
    "linkReferences": {},
    "deployedLinkReferences": {}
}