{
  "_format": "hh-sol-artifact-1",
  "contractName": "VaultReward",
  "sourceName": "contracts/vault/VaultReward.sol",
  "abi": [
    {
      "anonymous": false,
      "inputs": [
        {
          "indexed": false,
          "internalType": "address",
          "name": "account",
          "type": "address"
        },
        {
          "indexed": false,
          "internalType": "uint256",
          "name": "amount",
          "type": "uint256"
        }
      ],
      "name": "Harvest",
      "type": "event"
    },
    {
      "anonymous": false,
      "inputs": [
        {
          "indexed": false,
          "internalType": "uint8",
          "name": "version",
          "type": "uint8"
        }
      ],
      "name": "Initialized",
      "type": "event"
    },
    {
      "anonymous": false,
      "inputs": [
        {
          "indexed": false,
          "internalType": "uint256",
          "name": "supply",
          "type": "uint256"
        },
        {
          "indexed": false,
          "internalType": "uint256",
          "name": "cumulativeRewardPerToken",
          "type": "uint256"
        }
      ],
      "name": "LogUpdatePool",
      "type": "event"
    },
    {
      "anonymous": false,
      "inputs": [
        {
          "indexed": true,
          "internalType": "address",
          "name": "previousOwner",
          "type": "address"
        },
        {
          "indexed": true,
          "internalType": "address",
          "name": "newOwner",
          "type": "address"
        }
      ],
      "name": "OwnershipTransferred",
      "type": "event"
    },
    {
      "anonymous": false,
      "inputs": [
        {
          "indexed": true,
          "internalType": "bytes32",
          "name": "role",
          "type": "bytes32"
        },
        {
          "indexed": true,
          "internalType": "bytes32",
          "name": "previousAdminRole",
          "type": "bytes32"
        },
        {
          "indexed": true,
          "internalType": "bytes32",
          "name": "newAdminRole",
          "type": "bytes32"
        }
      ],
      "name": "RoleAdminChanged",
      "type": "event"
    },
    {
      "anonymous": false,
      "inputs": [
        {
          "indexed": true,
          "internalType": "bytes32",
          "name": "role",
          "type": "bytes32"
        },
        {
          "indexed": true,
          "internalType": "address",
          "name": "account",
          "type": "address"
        },
        {
          "indexed": true,
          "internalType": "address",
          "name": "sender",
          "type": "address"
        }
      ],
      "name": "RoleGranted",
      "type": "event"
    },
    {
      "anonymous": false,
      "inputs": [
        {
          "indexed": true,
          "internalType": "bytes32",
          "name": "role",
          "type": "bytes32"
        },
        {
          "indexed": true,
          "internalType": "address",
          "name": "account",
          "type": "address"
        },
        {
          "indexed": true,
          "internalType": "address",
          "name": "sender",
          "type": "address"
        }
      ],
      "name": "RoleRevoked",
      "type": "event"
    },
    {
      "inputs": [],
      "name": "DEFAULT_ADMIN_ROLE",
      "outputs": [
        {
          "internalType": "bytes32",
          "name": "",
          "type": "bytes32"
        }
      ],
      "stateMutability": "view",
      "type": "function"
    },
    {
      "inputs": [],
      "name": "PRECISION",
      "outputs": [
        {
          "internalType": "uint256",
          "name": "",
          "type": "uint256"
        }
      ],
      "stateMutability": "view",
      "type": "function"
    },
    {
      "inputs": [],
      "name": "apr",
      "outputs": [
        {
          "internalType": "uint256",
          "name": "",
          "type": "uint256"
        }
      ],
      "stateMutability": "view",
      "type": "function"
    },
    {
      "inputs": [
        {
          "internalType": "address",
          "name": "",
          "type": "address"
        }
      ],
      "name": "averageStakedAmounts",
      "outputs": [
        {
          "internalType": "uint256",
          "name": "",
          "type": "uint256"
        }
      ],
      "stateMutability": "view",
      "type": "function"
    },
    {
      "inputs": [
        {
          "internalType": "contract IERC4626",
          "name": "vault",
          "type": "address"
        },
        {
          "internalType": "address",
          "name": "to",
          "type": "address"
        },
        {
          "internalType": "uint256",
          "name": "amount",
          "type": "uint256"
        },
        {
          "internalType": "uint256",
          "name": "minSharesOut",
          "type": "uint256"
        }
      ],
      "name": "buy",
      "outputs": [
        {
          "internalType": "uint256",
          "name": "sharesOut",
          "type": "uint256"
        }
      ],
      "stateMutability": "nonpayable",
      "type": "function"
    },
    {
      "inputs": [
        {
          "internalType": "contract ICoreVault",
          "name": "vault",
          "type": "address"
        }
      ],
      "name": "buyLpFee",
      "outputs": [
        {
          "internalType": "uint256",
          "name": "",
          "type": "uint256"
        }
      ],
      "stateMutability": "view",
      "type": "function"
    },
    {
      "inputs": [],
      "name": "claimLPReward",
      "outputs": [],
      "stateMutability": "nonpayable",
      "type": "function"
    },
    {
      "inputs": [
        {
          "internalType": "address",
          "name": "_account",
          "type": "address"
        }
      ],
      "name": "claimable",
      "outputs": [
        {
          "internalType": "uint256",
          "name": "",
          "type": "uint256"
        }
      ],
      "stateMutability": "view",
      "type": "function"
    },
    {
      "inputs": [
        {
          "internalType": "address",
          "name": "",
          "type": "address"
        }
      ],
      "name": "claimableReward",
      "outputs": [
        {
          "internalType": "uint256",
          "name": "",
          "type": "uint256"
        }
      ],
      "stateMutability": "view",
      "type": "function"
    },
    {
      "inputs": [],
      "name": "coreVault",
      "outputs": [
        {
          "internalType": "contract ICoreVault",
          "name": "",
          "type": "address"
        }
      ],
      "stateMutability": "view",
      "type": "function"
    },
    {
      "inputs": [],
      "name": "cumulativeRewardPerToken",
      "outputs": [
        {
          "internalType": "uint256",
          "name": "",
          "type": "uint256"
        }
      ],
      "stateMutability": "view",
      "type": "function"
    },
    {
      "inputs": [],
      "name": "distributor",
      "outputs": [
        {
          "internalType": "address",
          "name": "",
          "type": "address"
        }
      ],
      "stateMutability": "view",
      "type": "function"
    },
    {
      "inputs": [],
      "name": "feeRouter",
      "outputs": [
        {
          "internalType": "contract IFeeRouter",
          "name": "",
          "type": "address"
        }
      ],
      "stateMutability": "view",
      "type": "function"
    },
    {
      "inputs": [],
      "name": "getAPR",
      "outputs": [
        {
          "internalType": "uint256",
          "name": "",
          "type": "uint256"
        }
      ],
      "stateMutability": "view",
      "type": "function"
    },
    {
      "inputs": [],
      "name": "getAUM",
      "outputs": [
        {
          "internalType": "uint256",
          "name": "",
          "type": "uint256"
        }
      ],
      "stateMutability": "view",
      "type": "function"
    },
    {
      "inputs": [],
      "name": "getLPPrice",
      "outputs": [
        {
          "internalType": "uint256",
          "name": "",
          "type": "uint256"
        }
      ],
      "stateMutability": "view",
      "type": "function"
    },
    {
      "inputs": [],
      "name": "getLPReward",
      "outputs": [
        {
          "internalType": "uint256",
          "name": "",
          "type": "uint256"
        }
      ],
      "stateMutability": "view",
      "type": "function"
    },
    {
      "inputs": [
        {
          "internalType": "bytes32",
          "name": "role",
          "type": "bytes32"
        }
      ],
      "name": "getRoleAdmin",
      "outputs": [
        {
          "internalType": "bytes32",
          "name": "",
          "type": "bytes32"
        }
      ],
      "stateMutability": "view",
      "type": "function"
    },
    {
      "inputs": [],
      "name": "getUSDBalance",
      "outputs": [
        {
          "internalType": "uint256",
          "name": "",
          "type": "uint256"
        }
      ],
      "stateMutability": "view",
      "type": "function"
    },
    {
      "inputs": [
        {
          "internalType": "address",
          "name": "_account",
          "type": "address"
        }
      ],
      "name": "grantControllerRoleByMarketManager",
      "outputs": [],
      "stateMutability": "nonpayable",
      "type": "function"
    },
    {
      "inputs": [
        {
          "internalType": "bytes32",
          "name": "role",
          "type": "bytes32"
        },
        {
          "internalType": "address",
          "name": "account",
          "type": "address"
        }
      ],
      "name": "grantRole",
      "outputs": [],
      "stateMutability": "nonpayable",
      "type": "function"
    },
    {
      "inputs": [
        {
          "internalType": "bytes32",
          "name": "role",
          "type": "bytes32"
        },
        {
          "internalType": "address",
          "name": "account",
          "type": "address"
        }
      ],
      "name": "hasRole",
      "outputs": [
        {
          "internalType": "bool",
          "name": "",
          "type": "bool"
        }
      ],
      "stateMutability": "view",
      "type": "function"
    },
    {
      "inputs": [
        {
          "internalType": "address",
          "name": "_coreVault",
          "type": "address"
        },
        {
          "internalType": "address",
          "name": "_vaultRouter",
          "type": "address"
        },
        {
          "internalType": "address",
          "name": "_feeRouter",
          "type": "address"
        },
        {
          "internalType": "address",
          "name": "_distributor",
          "type": "address"
        }
      ],
      "name": "initialize",
      "outputs": [],
      "stateMutability": "nonpayable",
      "type": "function"
    },
    {
      "inputs": [
        {
          "internalType": "address",
          "name": "",
          "type": "address"
        }
      ],
      "name": "lpEarnedRewards",
      "outputs": [
        {
          "internalType": "uint256",
          "name": "",
          "type": "uint256"
        }
      ],
      "stateMutability": "view",
      "type": "function"
    },
    {
      "inputs": [],
      "name": "owner",
      "outputs": [
        {
          "internalType": "address",
          "name": "",
          "type": "address"
        }
      ],
      "stateMutability": "view",
      "type": "function"
    },
    {
      "inputs": [],
      "name": "pendingRewards",
      "outputs": [
        {
          "internalType": "uint256",
          "name": "",
          "type": "uint256"
        }
      ],
      "stateMutability": "view",
      "type": "function"
    },
    {
      "inputs": [
        {
          "internalType": "uint256",
          "name": "assets",
          "type": "uint256"
        }
      ],
      "name": "previewDeposit",
      "outputs": [
        {
          "internalType": "uint256",
          "name": "",
          "type": "uint256"
        }
      ],
      "stateMutability": "view",
      "type": "function"
    },
    {
      "inputs": [
        {
          "internalType": "uint256",
          "name": "shares",
          "type": "uint256"
        }
      ],
      "name": "previewMint",
      "outputs": [
        {
          "internalType": "uint256",
          "name": "",
          "type": "uint256"
        }
      ],
      "stateMutability": "view",
      "type": "function"
    },
    {
      "inputs": [
        {
          "internalType": "uint256",
          "name": "shares",
          "type": "uint256"
        }
      ],
      "name": "previewRedeem",
      "outputs": [
        {
          "internalType": "uint256",
          "name": "",
          "type": "uint256"
        }
      ],
      "stateMutability": "view",
      "type": "function"
    },
    {
      "inputs": [
        {
          "internalType": "uint256",
          "name": "assets",
          "type": "uint256"
        }
      ],
      "name": "previewWithdraw",
      "outputs": [
        {
          "internalType": "uint256",
          "name": "",
          "type": "uint256"
        }
      ],
      "stateMutability": "view",
      "type": "function"
    },
    {
      "inputs": [
        {
          "internalType": "address",
          "name": "",
          "type": "address"
        }
      ],
      "name": "previousCumulatedRewardPerToken",
      "outputs": [
        {
          "internalType": "uint256",
          "name": "",
          "type": "uint256"
        }
      ],
      "stateMutability": "view",
      "type": "function"
    },
    {
      "inputs": [],
      "name": "priceDecimals",
      "outputs": [
        {
          "internalType": "uint256",
          "name": "",
          "type": "uint256"
        }
      ],
      "stateMutability": "view",
      "type": "function"
    },
    {
      "inputs": [],
      "name": "renounceOwnership",
      "outputs": [],
      "stateMutability": "nonpayable",
      "type": "function"
    },
    {
      "inputs": [
        {
          "internalType": "bytes32",
          "name": "role",
          "type": "bytes32"
        },
        {
          "internalType": "address",
          "name": "account",
          "type": "address"
        }
      ],
      "name": "renounceRole",
      "outputs": [],
      "stateMutability": "nonpayable",
      "type": "function"
    },
    {
      "inputs": [
        {
          "internalType": "bytes32",
          "name": "role",
          "type": "bytes32"
        },
        {
          "internalType": "address",
          "name": "account",
          "type": "address"
        }
      ],
      "name": "revokeRole",
      "outputs": [],
      "stateMutability": "nonpayable",
      "type": "function"
    },
    {
      "inputs": [],
      "name": "rewardToken",
      "outputs": [
        {
          "internalType": "address",
          "name": "",
          "type": "address"
        }
      ],
      "stateMutability": "view",
      "type": "function"
    },
    {
      "inputs": [
        {
          "internalType": "contract IERC4626",
          "name": "vault",
          "type": "address"
        },
        {
          "internalType": "address",
          "name": "to",
          "type": "address"
        },
        {
          "internalType": "uint256",
          "name": "shares",
          "type": "uint256"
        },
        {
          "internalType": "uint256",
          "name": "minAssetsOut",
          "type": "uint256"
        }
      ],
      "name": "sell",
      "outputs": [
        {
          "internalType": "uint256",
          "name": "assetOut",
          "type": "uint256"
        }
      ],
      "stateMutability": "nonpayable",
      "type": "function"
    },
    {
      "inputs": [
        {
          "internalType": "contract ICoreVault",
          "name": "vault",
          "type": "address"
        }
      ],
      "name": "sellLpFee",
      "outputs": [
        {
          "internalType": "uint256",
          "name": "",
          "type": "uint256"
        }
      ],
      "stateMutability": "view",
      "type": "function"
    },
    {
      "inputs": [
        {
          "internalType": "uint256",
          "name": "_apr",
          "type": "uint256"
        }
      ],
      "name": "setAPR",
      "outputs": [],
      "stateMutability": "nonpayable",
      "type": "function"
    },
    {
      "inputs": [
        {
          "internalType": "bytes4",
          "name": "interfaceId",
          "type": "bytes4"
        }
      ],
      "name": "supportsInterface",
      "outputs": [
        {
          "internalType": "bool",
          "name": "",
          "type": "bool"
        }
      ],
      "stateMutability": "view",
      "type": "function"
    },
    {
      "inputs": [],
      "name": "tokensPerInterval",
      "outputs": [
        {
          "internalType": "uint256",
          "name": "",
          "type": "uint256"
        }
      ],
      "stateMutability": "view",
      "type": "function"
    },
    {
      "inputs": [
        {
          "internalType": "address",
          "name": "to",
          "type": "address"
        }
      ],
      "name": "transferAdmin",
      "outputs": [],
      "stateMutability": "nonpayable",
      "type": "function"
    },
    {
      "inputs": [
        {
          "internalType": "address",
          "name": "newOwner",
          "type": "address"
        }
      ],
      "name": "transferOwnership",
      "outputs": [],
      "stateMutability": "nonpayable",
      "type": "function"
    },
    {
      "inputs": [],
      "name": "updateRewards",
      "outputs": [],
      "stateMutability": "nonpayable",
      "type": "function"
    },
    {
      "inputs": [
        {
          "internalType": "address",
          "name": "_account",
          "type": "address"
        }
      ],
      "name": "updateRewardsByAccount",
      "outputs": [],
      "stateMutability": "nonpayable",
      "type": "function"
    },
    {
      "inputs": [],
      "name": "vaultRouter",
      "outputs": [
        {
          "internalType": "contract IVaultRouter",
          "name": "",
          "type": "address"
        }
      ],
      "stateMutability": "view",
      "type": "function"
    }
  ],
  "bytecode": "0x608060405234801561001057600080fd5b5061001a33610024565b6001600355610076565b600180546001600160a01b038381166001600160a01b0319831681179093556040519116919082907f8be0079c531659141344cd1fd0a4f28419497f9722a3daafe3b4186f6b6457e090600090a35050565b6122c0806100856000396000f3fe608060405234801561001057600080fd5b506004361061028a5760003560e01c8063a31802171161015c578063d53b26ee116100ce578063ef8b30f711610087578063ef8b30f714610579578063f29ebf611461058c578063f2fde38b1461059f578063f5fc5076146105b2578063f7c618c1146105bb578063f8c8765e146105c357600080fd5b8063d53b26ee14610510578063d547741f14610523578063e547bb9114610536578063e95034251461053e578063eb4fe8181461055e578063eded3fda1461057157600080fd5b8063b3d7f6b911610120578063b3d7f6b9146104bf578063b77905ae146104d2578063bfe10928146104da578063c1201054146104ed578063c89d5b8b146104f5578063d37c441c146104fd57600080fd5b8063a318021714610450578063a8d9362714610470578063a9d424e214610478578063aaf5eb681461048b578063ae8bcdf81461049f57600080fd5b80634cdad506116102005780637fe4a698116101b95780637fe4a698146103f6578063854303cf146104095780638da5cb5b1461041c5780638f089d651461042d57806391d1485414610435578063a217fddf1461044857600080fd5b80634cdad5061461038c57806357ded9c91461039f578063674ce1b5146103a85780636dc7b0a1146103d3578063715018a6146103db57806375829def146103e357600080fd5b80632f2ff15d116102525780632f2ff15d1461031857806331de7d151461032b57806336568abe1461033e5780633e158b0c14610351578063402914f51461035957806344a084111461036c57600080fd5b806301ffc9a71461028f57806305300b28146102b75780630a28a477146102cd5780631ee2b0b2146102e0578063248a9ca3146102f5575b600080fd5b6102a261029d366004611e5b565b6105d6565b60405190151581526020015b60405180910390f35b6102bf61060d565b6040519081526020016102ae565b6102bf6102db366004611e85565b61067f565b6102f36102ee366004611eb3565b6106ee565b005b6102bf610303366004611e85565b60009081526020819052604090206001015490565b6102f3610326366004611ed0565b6109e7565b6102bf610339366004611f00565b610a11565b6102f361034c366004611ed0565b610aee565b6102f3610b6c565b6102bf610367366004611eb3565b610b8a565b6102bf61037a366004611eb3565b600a6020526000908152604090205481565b6102bf61039a366004611e85565b610d49565b6102bf60095481565b6005546103bb906001600160a01b031681565b6040516001600160a01b0390911681526020016102ae565b6102bf610d7b565b6102f3610dc5565b6102f36103f1366004611eb3565b610dd7565b6102f3610404366004611eb3565b610e01565b6102f3610417366004611e85565b610e2b565b6001546001600160a01b03166103bb565b6102bf610e5b565b6102a2610443366004611ed0565b610e9d565b6102bf600081565b6102bf61045e366004611eb3565b600d6020526000908152604090205481565b6102bf610ec6565b6102bf610486366004611f00565b610f10565b6102bf6c0c9f2c9cd04674edea4000000081565b6102bf6104ad366004611eb3565b600b6020526000908152604090205481565b6102bf6104cd366004611e85565b6110c7565b6102bf6110f9565b6008546103bb906001600160a01b031681565b6102bf61124d565b6009546102bf565b6006546103bb906001600160a01b031681565b6102bf61051e366004611eb3565b611297565b6102f3610531366004611ed0565b6112d7565b6102f36112fc565b6102bf61054c366004611eb3565b600c6020526000908152604090205481565b6102bf61056c366004611eb3565b61130d565b6102bf61134d565b6102bf610587366004611e85565b611358565b6004546103bb906001600160a01b031681565b6102f36105ad366004611eb3565b61138a565b6102bf60075481565b6103bb611403565b6102f36105d1366004611f46565b611471565b60006001600160e01b03198216637965db0b60e01b148061060757506301ffc9a760e01b6001600160e01b03198316145b92915050565b6006546040805162a6016560e31b815290516000926001600160a01b0316916305300b289160048083019260209291908290030181865afa158015610656573d6000803e3d6000fd5b505050506040513d601f19601f8201168201806040525081019061067a9190611fa2565b905090565b600554604051630a28a47760e01b8152600481018390526000916001600160a01b031690630a28a477906024015b602060405180830381865afa1580156106ca573d6000803e3d6000fd5b505050506040513d601f19601f820116820180604052508101906106079190611fa2565b6008546040805163e4fc6b6d60e01b815290516000926001600160a01b03169163e4fc6b6d916004808301926020929190829003018187875af1158015610739573d6000803e3d6000fd5b505050506040513d601f19601f8201168201806040525081019061075d9190611fa2565b90506000600560009054906101000a90046001600160a01b03166001600160a01b03166318160ddd6040518163ffffffff1660e01b8152600401602060405180830381865afa1580156107b4573d6000803e3d6000fd5b505050506040513d601f19601f820116820180604052508101906107d89190611fa2565b60075490915081158015906107ed5750600083115b15610860578161080a6c0c9f2c9cd04674edea4000000085611fd1565b6108149190611fe8565b61081e908261200a565b600781905560408051848152602081018390529192507f055418cabed8a0ec732dd9b1f84e69d3f33a8f9a70d721b7a6962a00c26a4572910160405180910390a15b8060000361086e5750505050565b6001600160a01b038416156109e157600061088885611634565b6001600160a01b0386166000908152600a6020526040812054919250906c0c9f2c9cd04674edea40000000906108be908561201d565b6108c89084611fd1565b6108d29190611fe8565b6001600160a01b0387166000908152600c6020526040812054919250906108fa90839061200a565b6001600160a01b0388166000908152600c60209081526040808320849055600a90915290208590559050801580159061093b5750600061093988611634565b115b156109dd576001600160a01b0387166000908152600b602052604081205461096490849061200a565b90506109b761097d826109778787611667565b9061167a565b6001600160a01b038a166000908152600b6020908152604080832054600d909252909120546109b191859161097791611667565b90611686565b6001600160a01b0389166000908152600d6020908152604080832093909355600b905220555b5050505b50505050565b600082815260208190526040902060010154610a0281611692565b610a0c838361169c565b505050565b6000610a1b611720565b604051635d043b2960e11b8152600481018490526001600160a01b0385811660248301819052604483015283919087169063ba087652906064016020604051808303816000875af1158015610a74573d6000803e3d6000fd5b505050506040513d601f19601f82011682018060405250810190610a989190611fa2565b9150811015610adc5760405162461bcd60e51b815260206004820152600b60248201526a26b4b727baba22b93937b960a91b60448201526064015b60405180910390fd5b610ae66001600355565b949350505050565b6001600160a01b0381163314610b5e5760405162461bcd60e51b815260206004820152602f60248201527f416363657373436f6e74726f6c3a2063616e206f6e6c792072656e6f756e636560448201526e103937b632b9903337b91039b2b63360891b6064820152608401610ad3565b610b688282611779565b5050565b610b74611720565b610b7e60006106ee565b610b886001600355565b565b600080610b9683611634565b905080600003610bbd5750506001600160a01b03166000908152600c602052604090205490565b600554604080516318160ddd60e01b815290516000926001600160a01b0316916318160ddd9160048083019260209291908290030181865afa158015610c07573d6000803e3d6000fd5b505050506040513d601f19601f82011682018060405250810190610c2b9190611fa2565b90506000610cbd6c0c9f2c9cd04674edea40000000600860009054906101000a90046001600160a01b03166001600160a01b031663eded3fda6040518163ffffffff1660e01b8152600401602060405180830381865afa158015610c93573d6000803e3d6000fd5b505050506040513d601f19601f82011682018060405250810190610cb79190611fa2565b90611667565b90506000610cd7610cce838561167a565b60075490611686565b6001600160a01b0387166000908152600a6020526040902054909150610d3f90610d20906c0c9f2c9cd04674edea400000009061097790610d199086906117de565b8890611667565b6001600160a01b0388166000908152600c602052604090205490611686565b9695505050505050565b60055460405163266d6a8360e11b8152600481018390526000916001600160a01b031690634cdad506906024016106ad565b60065460408051636dc7b0a160e01b815290516000926001600160a01b031691636dc7b0a19160048083019260209291908290030181865afa158015610656573d6000803e3d6000fd5b610dcd6117ea565b610b886000611844565b6000610de281611692565b610ded600083611896565b610df682611844565b610b68600033611779565b7f8d1089725c0dc266707fa6207730fb801dcd03108bfed7a21099bd303651d2b761028a81611692565b7fcb6bc1c12dd43bca8d7dd46d975f913325437d0dcd5978e99d515e4ad39b9772610e5581611692565b50600955565b336000908152600b60205260408120548103610e775750600090565b336000908152600c6020908152604080832054600b9092529091205461067a919061201d565b6000918252602082815260408084206001600160a01b0393909316845291905290205460ff1690565b6008546040805163a8d9362760e01b815290516000926001600160a01b03169163a8d936279160048083019260209291908290030181865afa158015610656573d6000803e3d6000fd5b6000610f1a611720565b6000856001600160a01b03166338d52e0f6040518163ffffffff1660e01b8152600401602060405180830381865afa158015610f5a573d6000803e3d6000fd5b505050506040513d601f19601f82011682018060405250810190610f7e9190612030565b9050610f8c813330876118a0565b60055460405163095ea7b360e01b81526001600160a01b039182166004820152602481018690529082169063095ea7b3906044016020604051808303816000875af1158015610fdf573d6000803e3d6000fd5b505050506040513d601f19601f82011682018060405250810190611003919061204d565b50604051636e553f6560e01b8152600481018590526001600160a01b038681166024830152849190881690636e553f65906044016020604051808303816000875af1158015611056573d6000803e3d6000fd5b505050506040513d601f19601f8201168201806040525081019061107a9190611fa2565b92508210156110bc5760405162461bcd60e51b815260206004820152600e60248201526d26b4b729b430b932b9a2b93937b960911b6044820152606401610ad3565b50610ae66001600355565b60055460405163b3d7f6b960e01b8152600481018390526000916001600160a01b03169063b3d7f6b9906024016106ad565b600080600560009054906101000a90046001600160a01b03166001600160a01b03166301e1d1146040518163ffffffff1660e01b8152600401602060405180830381865afa15801561114f573d6000803e3d6000fd5b505050506040513d601f19601f820116820180604052508101906111739190611fa2565b90506000600560009054906101000a90046001600160a01b03166001600160a01b03166318160ddd6040518163ffffffff1660e01b8152600401602060405180830381865afa1580156111ca573d6000803e3d6000fd5b505050506040513d601f19601f820116820180604052508101906111ee9190611fa2565b90508115806111fb575080155b156112255761120861060d565b61121390600a612153565b61121e906001611fd1565b9250505090565b8061122e61060d565b61123990600a612153565b6112439084611fd1565b61121e9190611fe8565b60065460408051633048041560e21b815290516000926001600160a01b03169163c12010549160048083019260209291908290030181865afa158015610656573d6000803e3d6000fd5b6000816001600160a01b0316636fd3acb46040518163ffffffff1660e01b8152600401602060405180830381865afa1580156106ca573d6000803e3d6000fd5b6000828152602081905260409020600101546112f281611692565b610a0c8383611779565b611304611720565b610b7e3361190b565b6000816001600160a01b031663c7b8b46d6040518163ffffffff1660e01b8152600401602060405180830381865afa1580156106ca573d6000803e3d6000fd5b600061067a33610b8a565b60055460405163ef8b30f760e01b8152600481018390526000916001600160a01b03169063ef8b30f7906024016106ad565b6113926117ea565b6001600160a01b0381166113f75760405162461bcd60e51b815260206004820152602660248201527f4f776e61626c653a206e6577206f776e657220697320746865207a65726f206160448201526564647265737360d01b6064820152608401610ad3565b61140081611844565b50565b600554604080516338d52e0f60e01b815290516000926001600160a01b0316916338d52e0f9160048083019260209291908290030181865afa15801561144d573d6000803e3d6000fd5b505050506040513d601f19601f8201168201806040525081019061067a9190612030565b600154600160a81b900460ff1615808015611497575060018054600160a01b900460ff16105b806114b75750303b1580156114b7575060018054600160a01b900460ff16145b61151a5760405162461bcd60e51b815260206004820152602e60248201527f496e697469616c697a61626c653a20636f6e747261637420697320616c72656160448201526d191e481a5b9a5d1a585b1a5e995960921b6064820152608401610ad3565b6001805460ff60a01b1916600160a01b1790558015611547576001805460ff60a81b1916600160a81b1790555b6001600160a01b03851661155a57600080fd5b6001600160a01b03841661156d57600080fd5b6001600160a01b03831661158057600080fd5b6001600160a01b03821661159357600080fd5b61159c33611a0c565b600680546001600160a01b038087166001600160a01b03199283161790925560058054888416908316179055600480548684169083161790556008805492851692909116919091179055801561162d576001805460ff60a81b191681556040519081527f7f26b83ff96e1f2b6a682f133852f6798a09c465da95921460cefb38474024989060200160405180910390a15b5050505050565b6005546040516370a0823160e01b81526001600160a01b03838116600483015260009216906370a08231906024016106ad565b60006116738284611fd1565b9392505050565b60006116738284611fe8565b6000611673828461200a565b6114008133611a2f565b6116a68282610e9d565b610b68576000828152602081815260408083206001600160a01b03851684529091529020805460ff191660011790556116dc3390565b6001600160a01b0316816001600160a01b0316837f2f8788117e7eff1d82e926ec794901d17c78024a50270940304540a733656f0d60405160405180910390a45050565b6002600354036117725760405162461bcd60e51b815260206004820152601f60248201527f5265656e7472616e637947756172643a207265656e7472616e742063616c6c006044820152606401610ad3565b6002600355565b6117838282610e9d565b15610b68576000828152602081815260408083206001600160a01b0385168085529252808320805460ff1916905551339285917ff6391f5c32d9c69d2a47ea670b442974b53935d1edc7fd64eb21e047a839171b9190a45050565b6000611673828461201d565b6001546001600160a01b03163314610b885760405162461bcd60e51b815260206004820181905260248201527f4f776e61626c653a2063616c6c6572206973206e6f7420746865206f776e65726044820152606401610ad3565b600180546001600160a01b038381166001600160a01b0319831681179093556040519116919082907f8be0079c531659141344cd1fd0a4f28419497f9722a3daafe3b4186f6b6457e090600090a35050565b610b68828261169c565b6040516001600160a01b03808516602483015283166044820152606481018290526109e19085906323b872dd60e01b906084015b60408051601f198184030181529190526020810180516001600160e01b03166001600160e01b031990931692909217909152611a88565b6005546040516370a0823160e01b81526001600160a01b038381166004830152909116906370a0823190602401602060405180830381865afa158015611955573d6000803e3d6000fd5b505050506040513d601f19601f820116820180604052508101906119799190611fa2565b6000036119835750565b61198c816106ee565b6001600160a01b0381166000908152600c6020526040812080549190556119c682826119b6611403565b6001600160a01b03169190611b5a565b604080516001600160a01b0384168152602081018390527fc9695243a805adb74c91f28311176c65b417e842d5699893cef56d18bfa48cba910160405180910390a15050565b42600255611a1933611844565b611a24600033611896565b611400600082611896565b611a398282610e9d565b610b6857611a4681611b8a565b611a51836020611b9c565b604051602001611a62929190612183565b60408051601f198184030181529082905262461bcd60e51b8252610ad3916004016121f8565b6000611add826040518060400160405280602081526020017f5361666545524332303a206c6f772d6c6576656c2063616c6c206661696c6564815250856001600160a01b0316611d389092919063ffffffff16565b805190915015610a0c5780806020019051810190611afb919061204d565b610a0c5760405162461bcd60e51b815260206004820152602a60248201527f5361666545524332303a204552433230206f7065726174696f6e20646964206e6044820152691bdd081cdd58d8d9595960b21b6064820152608401610ad3565b6040516001600160a01b038316602482015260448101829052610a0c90849063a9059cbb60e01b906064016118d4565b60606106076001600160a01b03831660145b60606000611bab836002611fd1565b611bb690600261200a565b67ffffffffffffffff811115611bce57611bce61222b565b6040519080825280601f01601f191660200182016040528015611bf8576020820181803683370190505b509050600360fc1b81600081518110611c1357611c13612241565b60200101906001600160f81b031916908160001a905350600f60fb1b81600181518110611c4257611c42612241565b60200101906001600160f81b031916908160001a9053506000611c66846002611fd1565b611c7190600161200a565b90505b6001811115611ce9576f181899199a1a9b1b9c1cb0b131b232b360811b85600f1660108110611ca557611ca5612241565b1a60f81b828281518110611cbb57611cbb612241565b60200101906001600160f81b031916908160001a90535060049490941c93611ce281612257565b9050611c74565b5083156116735760405162461bcd60e51b815260206004820181905260248201527f537472696e67733a20686578206c656e67746820696e73756666696369656e746044820152606401610ad3565b6060610ae6848460008585600080866001600160a01b03168587604051611d5f919061226e565b60006040518083038185875af1925050503d8060008114611d9c576040519150601f19603f3d011682016040523d82523d6000602084013e611da1565b606091505b5091509150611db287838387611dbd565b979650505050505050565b60608315611e2c578251600003611e25576001600160a01b0385163b611e255760405162461bcd60e51b815260206004820152601d60248201527f416464726573733a2063616c6c20746f206e6f6e2d636f6e74726163740000006044820152606401610ad3565b5081610ae6565b610ae68383815115611e415781518083602001fd5b8060405162461bcd60e51b8152600401610ad391906121f8565b600060208284031215611e6d57600080fd5b81356001600160e01b03198116811461167357600080fd5b600060208284031215611e9757600080fd5b5035919050565b6001600160a01b038116811461140057600080fd5b600060208284031215611ec557600080fd5b813561167381611e9e565b60008060408385031215611ee357600080fd5b823591506020830135611ef581611e9e565b809150509250929050565b60008060008060808587031215611f1657600080fd5b8435611f2181611e9e565b93506020850135611f3181611e9e565b93969395505050506040820135916060013590565b60008060008060808587031215611f5c57600080fd5b8435611f6781611e9e565b93506020850135611f7781611e9e565b92506040850135611f8781611e9e565b91506060850135611f9781611e9e565b939692955090935050565b600060208284031215611fb457600080fd5b5051919050565b634e487b7160e01b600052601160045260246000fd5b808202811582820484141761060757610607611fbb565b60008261200557634e487b7160e01b600052601260045260246000fd5b500490565b8082018082111561060757610607611fbb565b8181038181111561060757610607611fbb565b60006020828403121561204257600080fd5b815161167381611e9e565b60006020828403121561205f57600080fd5b8151801515811461167357600080fd5b600181815b808511156120aa57816000190482111561209057612090611fbb565b8085161561209d57918102915b93841c9390800290612074565b509250929050565b6000826120c157506001610607565b816120ce57506000610607565b81600181146120e457600281146120ee5761210a565b6001915050610607565b60ff8411156120ff576120ff611fbb565b50506001821b610607565b5060208310610133831016604e8410600b841016171561212d575081810a610607565b612137838361206f565b806000190482111561214b5761214b611fbb565b029392505050565b600061167383836120b2565b60005b8381101561217a578181015183820152602001612162565b50506000910152565b7f416363657373436f6e74726f6c3a206163636f756e74200000000000000000008152600083516121bb81601785016020880161215f565b7001034b99036b4b9b9b4b733903937b6329607d1b60179184019182015283516121ec81602884016020880161215f565b01602801949350505050565b602081526000825180602084015261221781604085016020870161215f565b601f01601f19169190910160400192915050565b634e487b7160e01b600052604160045260246000fd5b634e487b7160e01b600052603260045260246000fd5b60008161226657612266611fbb565b506000190190565b6000825161228081846020870161215f565b919091019291505056fea2646970667358221220133d39f51af7e059479d6b33c253c792ae7d3b2eeddb9331546d02d86c3ee8d564736f6c63430008110033",
  "linkReferences": {},
  "deployedLinkReferences": {}
}