{
  "_format": "hh-sol-artifact-1",
  "contractName": "VaultReward",
  "sourceName": "contracts/vault/VaultReward.sol",
  "abi": [
    {
      "anonymous": false,
      "inputs": [
        {
          "indexed": false,
          "internalType": "address",
          "name": "account",
          "type": "address"
        },
        {
          "indexed": false,
          "internalType": "uint256",
          "name": "amount",
          "type": "uint256"
        }
      ],
      "name": "Harvest",
      "type": "event"
    },
    {
      "anonymous": false,
      "inputs": [
        {
          "indexed": false,
          "internalType": "uint8",
          "name": "version",
          "type": "uint8"
        }
      ],
      "name": "Initialized",
      "type": "event"
    },
    {
      "anonymous": false,
      "inputs": [
        {
          "indexed": false,
          "internalType": "uint256",
          "name": "supply",
          "type": "uint256"
        },
        {
          "indexed": false,
          "internalType": "uint256",
          "name": "cumulativeRewardPerToken",
          "type": "uint256"
        }
      ],
      "name": "LogUpdatePool",
      "type": "event"
    },
    {
      "anonymous": false,
      "inputs": [
        {
          "indexed": true,
          "internalType": "address",
          "name": "previousOwner",
          "type": "address"
        },
        {
          "indexed": true,
          "internalType": "address",
          "name": "newOwner",
          "type": "address"
        }
      ],
      "name": "OwnershipTransferred",
      "type": "event"
    },
    {
      "anonymous": false,
      "inputs": [
        {
          "indexed": true,
          "internalType": "bytes32",
          "name": "role",
          "type": "bytes32"
        },
        {
          "indexed": true,
          "internalType": "bytes32",
          "name": "previousAdminRole",
          "type": "bytes32"
        },
        {
          "indexed": true,
          "internalType": "bytes32",
          "name": "newAdminRole",
          "type": "bytes32"
        }
      ],
      "name": "RoleAdminChanged",
      "type": "event"
    },
    {
      "anonymous": false,
      "inputs": [
        {
          "indexed": true,
          "internalType": "bytes32",
          "name": "role",
          "type": "bytes32"
        },
        {
          "indexed": true,
          "internalType": "address",
          "name": "account",
          "type": "address"
        },
        {
          "indexed": true,
          "internalType": "address",
          "name": "sender",
          "type": "address"
        }
      ],
      "name": "RoleGranted",
      "type": "event"
    },
    {
      "anonymous": false,
      "inputs": [
        {
          "indexed": true,
          "internalType": "bytes32",
          "name": "role",
          "type": "bytes32"
        },
        {
          "indexed": true,
          "internalType": "address",
          "name": "account",
          "type": "address"
        },
        {
          "indexed": true,
          "internalType": "address",
          "name": "sender",
          "type": "address"
        }
      ],
      "name": "RoleRevoked",
      "type": "event"
    },
    {
      "inputs": [],
      "name": "DEFAULT_ADMIN_ROLE",
      "outputs": [
        {
          "internalType": "bytes32",
          "name": "",
          "type": "bytes32"
        }
      ],
      "stateMutability": "view",
      "type": "function"
    },
    {
      "inputs": [],
      "name": "PRECISION",
      "outputs": [
        {
          "internalType": "uint256",
          "name": "",
          "type": "uint256"
        }
      ],
      "stateMutability": "view",
      "type": "function"
    },
    {
      "inputs": [],
      "name": "apr",
      "outputs": [
        {
          "internalType": "uint256",
          "name": "",
          "type": "uint256"
        }
      ],
      "stateMutability": "view",
      "type": "function"
    },
    {
      "inputs": [
        {
          "internalType": "address",
          "name": "",
          "type": "address"
        }
      ],
      "name": "averageStakedAmounts",
      "outputs": [
        {
          "internalType": "uint256",
          "name": "",
          "type": "uint256"
        }
      ],
      "stateMutability": "view",
      "type": "function"
    },
    {
      "inputs": [
        {
          "internalType": "contract IERC4626",
          "name": "vault",
          "type": "address"
        },
        {
          "internalType": "address",
          "name": "to",
          "type": "address"
        },
        {
          "internalType": "uint256",
          "name": "amount",
          "type": "uint256"
        },
        {
          "internalType": "uint256",
          "name": "minSharesOut",
          "type": "uint256"
        }
      ],
      "name": "buy",
      "outputs": [
        {
          "internalType": "uint256",
          "name": "sharesOut",
          "type": "uint256"
        }
      ],
      "stateMutability": "nonpayable",
      "type": "function"
    },
    {
      "inputs": [
        {
          "internalType": "contract ICoreVault",
          "name": "vault",
          "type": "address"
        }
      ],
      "name": "buyLpFee",
      "outputs": [
        {
          "internalType": "uint256",
          "name": "",
          "type": "uint256"
        }
      ],
      "stateMutability": "view",
      "type": "function"
    },
    {
      "inputs": [],
      "name": "claimLPReward",
      "outputs": [],
      "stateMutability": "nonpayable",
      "type": "function"
    },
    {
      "inputs": [
        {
          "internalType": "address",
          "name": "_account",
          "type": "address"
        }
      ],
      "name": "claimable",
      "outputs": [
        {
          "internalType": "uint256",
          "name": "",
          "type": "uint256"
        }
      ],
      "stateMutability": "view",
      "type": "function"
    },
    {
      "inputs": [
        {
          "internalType": "address",
          "name": "",
          "type": "address"
        }
      ],
      "name": "claimableReward",
      "outputs": [
        {
          "internalType": "uint256",
          "name": "",
          "type": "uint256"
        }
      ],
      "stateMutability": "view",
      "type": "function"
    },
    {
      "inputs": [],
      "name": "coreVault",
      "outputs": [
        {
          "internalType": "contract ICoreVault",
          "name": "",
          "type": "address"
        }
      ],
      "stateMutability": "view",
      "type": "function"
    },
    {
      "inputs": [],
      "name": "cumulativeRewardPerToken",
      "outputs": [
        {
          "internalType": "uint256",
          "name": "",
          "type": "uint256"
        }
      ],
      "stateMutability": "view",
      "type": "function"
    },
    {
      "inputs": [],
      "name": "distributor",
      "outputs": [
        {
          "internalType": "address",
          "name": "",
          "type": "address"
        }
      ],
      "stateMutability": "view",
      "type": "function"
    },
    {
      "inputs": [],
      "name": "feeRouter",
      "outputs": [
        {
          "internalType": "contract IFeeRouter",
          "name": "",
          "type": "address"
        }
      ],
      "stateMutability": "view",
      "type": "function"
    },
    {
      "inputs": [],
      "name": "getAPR",
      "outputs": [
        {
          "internalType": "uint256",
          "name": "",
          "type": "uint256"
        }
      ],
      "stateMutability": "view",
      "type": "function"
    },
    {
      "inputs": [],
      "name": "getAUM",
      "outputs": [
        {
          "internalType": "uint256",
          "name": "",
          "type": "uint256"
        }
      ],
      "stateMutability": "view",
      "type": "function"
    },
    {
      "inputs": [],
      "name": "getLPPrice",
      "outputs": [
        {
          "internalType": "uint256",
          "name": "",
          "type": "uint256"
        }
      ],
      "stateMutability": "view",
      "type": "function"
    },
    {
      "inputs": [],
      "name": "getLPReward",
      "outputs": [
        {
          "internalType": "uint256",
          "name": "",
          "type": "uint256"
        }
      ],
      "stateMutability": "view",
      "type": "function"
    },
    {
      "inputs": [
        {
          "internalType": "bytes32",
          "name": "role",
          "type": "bytes32"
        }
      ],
      "name": "getRoleAdmin",
      "outputs": [
        {
          "internalType": "bytes32",
          "name": "",
          "type": "bytes32"
        }
      ],
      "stateMutability": "view",
      "type": "function"
    },
    {
      "inputs": [],
      "name": "getUSDBalance",
      "outputs": [
        {
          "internalType": "uint256",
          "name": "",
          "type": "uint256"
        }
      ],
      "stateMutability": "view",
      "type": "function"
    },
    {
      "inputs": [
        {
          "internalType": "bytes32",
          "name": "role",
          "type": "bytes32"
        },
        {
          "internalType": "address",
          "name": "account",
          "type": "address"
        }
      ],
      "name": "grantAndRevoke",
      "outputs": [],
      "stateMutability": "nonpayable",
      "type": "function"
    },
    {
      "inputs": [
        {
          "internalType": "address",
          "name": "_account",
          "type": "address"
        }
      ],
      "name": "grantControllerRoleByMarketManager",
      "outputs": [],
      "stateMutability": "nonpayable",
      "type": "function"
    },
    {
      "inputs": [
        {
          "internalType": "bytes32",
          "name": "role",
          "type": "bytes32"
        },
        {
          "internalType": "address",
          "name": "account",
          "type": "address"
        }
      ],
      "name": "grantRole",
      "outputs": [],
      "stateMutability": "nonpayable",
      "type": "function"
    },
    {
      "inputs": [
        {
          "internalType": "bytes32",
          "name": "role",
          "type": "bytes32"
        },
        {
          "internalType": "address",
          "name": "account",
          "type": "address"
        }
      ],
      "name": "hasRole",
      "outputs": [
        {
          "internalType": "bool",
          "name": "",
          "type": "bool"
        }
      ],
      "stateMutability": "view",
      "type": "function"
    },
    {
      "inputs": [
        {
          "internalType": "address",
          "name": "_coreVault",
          "type": "address"
        },
        {
          "internalType": "address",
          "name": "_vaultRouter",
          "type": "address"
        },
        {
          "internalType": "address",
          "name": "_feeRouter",
          "type": "address"
        },
        {
          "internalType": "address",
          "name": "_distributor",
          "type": "address"
        }
      ],
      "name": "initialize",
      "outputs": [],
      "stateMutability": "nonpayable",
      "type": "function"
    },
    {
      "inputs": [
        {
          "internalType": "address",
          "name": "",
          "type": "address"
        }
      ],
      "name": "lpEarnedRewards",
      "outputs": [
        {
          "internalType": "uint256",
          "name": "",
          "type": "uint256"
        }
      ],
      "stateMutability": "view",
      "type": "function"
    },
    {
      "inputs": [],
      "name": "owner",
      "outputs": [
        {
          "internalType": "address",
          "name": "",
          "type": "address"
        }
      ],
      "stateMutability": "view",
      "type": "function"
    },
    {
      "inputs": [],
      "name": "pendingRewards",
      "outputs": [
        {
          "internalType": "uint256",
          "name": "",
          "type": "uint256"
        }
      ],
      "stateMutability": "view",
      "type": "function"
    },
    {
      "inputs": [
        {
          "internalType": "uint256",
          "name": "assets",
          "type": "uint256"
        }
      ],
      "name": "previewDeposit",
      "outputs": [
        {
          "internalType": "uint256",
          "name": "",
          "type": "uint256"
        }
      ],
      "stateMutability": "view",
      "type": "function"
    },
    {
      "inputs": [
        {
          "internalType": "uint256",
          "name": "shares",
          "type": "uint256"
        }
      ],
      "name": "previewMint",
      "outputs": [
        {
          "internalType": "uint256",
          "name": "",
          "type": "uint256"
        }
      ],
      "stateMutability": "view",
      "type": "function"
    },
    {
      "inputs": [
        {
          "internalType": "uint256",
          "name": "shares",
          "type": "uint256"
        }
      ],
      "name": "previewRedeem",
      "outputs": [
        {
          "internalType": "uint256",
          "name": "",
          "type": "uint256"
        }
      ],
      "stateMutability": "view",
      "type": "function"
    },
    {
      "inputs": [
        {
          "internalType": "uint256",
          "name": "assets",
          "type": "uint256"
        }
      ],
      "name": "previewWithdraw",
      "outputs": [
        {
          "internalType": "uint256",
          "name": "",
          "type": "uint256"
        }
      ],
      "stateMutability": "view",
      "type": "function"
    },
    {
      "inputs": [
        {
          "internalType": "address",
          "name": "",
          "type": "address"
        }
      ],
      "name": "previousCumulatedRewardPerToken",
      "outputs": [
        {
          "internalType": "uint256",
          "name": "",
          "type": "uint256"
        }
      ],
      "stateMutability": "view",
      "type": "function"
    },
    {
      "inputs": [],
      "name": "priceDecimals",
      "outputs": [
        {
          "internalType": "uint256",
          "name": "",
          "type": "uint256"
        }
      ],
      "stateMutability": "view",
      "type": "function"
    },
    {
      "inputs": [],
      "name": "renounceOwnership",
      "outputs": [],
      "stateMutability": "nonpayable",
      "type": "function"
    },
    {
      "inputs": [
        {
          "internalType": "bytes32",
          "name": "role",
          "type": "bytes32"
        },
        {
          "internalType": "address",
          "name": "account",
          "type": "address"
        }
      ],
      "name": "renounceRole",
      "outputs": [],
      "stateMutability": "nonpayable",
      "type": "function"
    },
    {
      "inputs": [
        {
          "internalType": "bytes32",
          "name": "role",
          "type": "bytes32"
        },
        {
          "internalType": "address",
          "name": "account",
          "type": "address"
        }
      ],
      "name": "revokeRole",
      "outputs": [],
      "stateMutability": "nonpayable",
      "type": "function"
    },
    {
      "inputs": [],
      "name": "rewardToken",
      "outputs": [
        {
          "internalType": "address",
          "name": "",
          "type": "address"
        }
      ],
      "stateMutability": "view",
      "type": "function"
    },
    {
      "inputs": [
        {
          "internalType": "contract IERC4626",
          "name": "vault",
          "type": "address"
        },
        {
          "internalType": "address",
          "name": "to",
          "type": "address"
        },
        {
          "internalType": "uint256",
          "name": "shares",
          "type": "uint256"
        },
        {
          "internalType": "uint256",
          "name": "minAssetsOut",
          "type": "uint256"
        }
      ],
      "name": "sell",
      "outputs": [
        {
          "internalType": "uint256",
          "name": "assetOut",
          "type": "uint256"
        }
      ],
      "stateMutability": "nonpayable",
      "type": "function"
    },
    {
      "inputs": [
        {
          "internalType": "contract ICoreVault",
          "name": "vault",
          "type": "address"
        }
      ],
      "name": "sellLpFee",
      "outputs": [
        {
          "internalType": "uint256",
          "name": "",
          "type": "uint256"
        }
      ],
      "stateMutability": "view",
      "type": "function"
    },
    {
      "inputs": [
        {
          "internalType": "uint256",
          "name": "_apr",
          "type": "uint256"
        }
      ],
      "name": "setAPR",
      "outputs": [],
      "stateMutability": "nonpayable",
      "type": "function"
    },
    {
      "inputs": [
        {
          "internalType": "bytes4",
          "name": "interfaceId",
          "type": "bytes4"
        }
      ],
      "name": "supportsInterface",
      "outputs": [
        {
          "internalType": "bool",
          "name": "",
          "type": "bool"
        }
      ],
      "stateMutability": "view",
      "type": "function"
    },
    {
      "inputs": [],
      "name": "tokensPerInterval",
      "outputs": [
        {
          "internalType": "uint256",
          "name": "",
          "type": "uint256"
        }
      ],
      "stateMutability": "view",
      "type": "function"
    },
    {
      "inputs": [
        {
          "internalType": "address",
          "name": "to",
          "type": "address"
        }
      ],
      "name": "transferAdmin",
      "outputs": [],
      "stateMutability": "nonpayable",
      "type": "function"
    },
    {
      "inputs": [
        {
          "internalType": "address",
          "name": "newOwner",
          "type": "address"
        }
      ],
      "name": "transferOwnership",
      "outputs": [],
      "stateMutability": "nonpayable",
      "type": "function"
    },
    {
      "inputs": [],
      "name": "updateRewards",
      "outputs": [],
      "stateMutability": "nonpayable",
      "type": "function"
    },
    {
      "inputs": [
        {
          "internalType": "address",
          "name": "_account",
          "type": "address"
        }
      ],
      "name": "updateRewardsByAccount",
      "outputs": [],
      "stateMutability": "nonpayable",
      "type": "function"
    },
    {
      "inputs": [],
      "name": "vaultRouter",
      "outputs": [
        {
          "internalType": "contract IVaultRouter",
          "name": "",
          "type": "address"
        }
      ],
      "stateMutability": "view",
      "type": "function"
    }
  ],
  "bytecode": "0x608060405234801561001057600080fd5b5061001a33610024565b6001600355610076565b600180546001600160a01b038381166001600160a01b0319831681179093556040519116919082907f8be0079c531659141344cd1fd0a4f28419497f9722a3daafe3b4186f6b6457e090600090a35050565b6124b8806100856000396000f3fe608060405234801561001057600080fd5b50600436106102955760003560e01c8063a217fddf11610167578063d53b26ee116100ce578063ef8b30f711610087578063ef8b30f714610597578063f29ebf61146105aa578063f2fde38b146105bd578063f5fc5076146105d0578063f7c618c1146105d9578063f8c8765e146105e157600080fd5b8063d53b26ee1461052e578063d547741f14610541578063e547bb9114610554578063e95034251461055c578063eb4fe8181461057c578063eded3fda1461058f57600080fd5b8063b3d7f6b911610120578063b3d7f6b9146104dd578063b77905ae146104f0578063bfe10928146104f8578063c12010541461050b578063c89d5b8b14610513578063d37c441c1461051b57600080fd5b8063a217fddf14610466578063a31802171461046e578063a8d936271461048e578063a9d424e214610496578063aaf5eb68146104a9578063ae8bcdf8146104bd57600080fd5b80634cdad5061161020b5780637fe4a698116101c45780637fe4a69814610401578063854303cf146104145780638da5cb5b146104275780638f089d651461043857806391d148541461044057806399d5c1ec1461045357600080fd5b80634cdad5061461039757806357ded9c9146103aa578063674ce1b5146103b35780636dc7b0a1146103de578063715018a6146103e657806375829def146103ee57600080fd5b80632f2ff15d1161025d5780632f2ff15d1461032357806331de7d151461033657806336568abe146103495780633e158b0c1461035c578063402914f51461036457806344a084111461037757600080fd5b806301ffc9a71461029a57806305300b28146102c25780630a28a477146102d85780631ee2b0b2146102eb578063248a9ca314610300575b600080fd5b6102ad6102a8366004612053565b6105f4565b60405190151581526020015b60405180910390f35b6102ca61062b565b6040519081526020016102b9565b6102ca6102e636600461207d565b61069d565b6102fe6102f93660046120ab565b61070c565b005b6102ca61030e36600461207d565b60009081526020819052604090206001015490565b6102fe6103313660046120c8565b610a05565b6102ca6103443660046120f8565b610a2f565b6102fe6103573660046120c8565b610b15565b6102fe610b93565b6102ca6103723660046120ab565b610bb1565b6102ca6103853660046120ab565b600a6020526000908152604090205481565b6102ca6103a536600461207d565b610d70565b6102ca60095481565b6005546103c6906001600160a01b031681565b6040516001600160a01b0390911681526020016102b9565b6102ca610da2565b6102fe610dec565b6102fe6103fc3660046120ab565b610dfe565b6102fe61040f3660046120ab565b610e28565b6102fe61042236600461207d565b610e52565b6001546001600160a01b03166103c6565b6102ca610e82565b6102ad61044e3660046120c8565b610f20565b6102fe6104613660046120c8565b610f49565b6102ca600081565b6102ca61047c3660046120ab565b600d6020526000908152604090205481565b6102ca610fe7565b6102ca6104a43660046120f8565b611031565b6102ca6c0c9f2c9cd04674edea4000000081565b6102ca6104cb3660046120ab565b600b6020526000908152604090205481565b6102ca6104eb36600461207d565b6111f1565b6102ca611223565b6008546103c6906001600160a01b031681565b6102ca611377565b6009546102ca565b6006546103c6906001600160a01b031681565b6102ca61053c3660046120ab565b6113c1565b6102fe61054f3660046120c8565b611401565b6102fe611426565b6102ca61056a3660046120ab565b600c6020526000908152604090205481565b6102ca61058a3660046120ab565b61155d565b6102ca61159d565b6102ca6105a536600461207d565b6115a8565b6004546103c6906001600160a01b031681565b6102fe6105cb3660046120ab565b6115da565b6102ca60075481565b6103c6611653565b6102fe6105ef36600461213e565b6116c1565b60006001600160e01b03198216637965db0b60e01b148061062557506301ffc9a760e01b6001600160e01b03198316145b92915050565b6006546040805162a6016560e31b815290516000926001600160a01b0316916305300b289160048083019260209291908290030181865afa158015610674573d6000803e3d6000fd5b505050506040513d601f19601f82011682018060405250810190610698919061219a565b905090565b600554604051630a28a47760e01b8152600481018390526000916001600160a01b031690630a28a477906024015b602060405180830381865afa1580156106e8573d6000803e3d6000fd5b505050506040513d601f19601f82011682018060405250810190610625919061219a565b6008546040805163e4fc6b6d60e01b815290516000926001600160a01b03169163e4fc6b6d916004808301926020929190829003018187875af1158015610757573d6000803e3d6000fd5b505050506040513d601f19601f8201168201806040525081019061077b919061219a565b90506000600560009054906101000a90046001600160a01b03166001600160a01b03166318160ddd6040518163ffffffff1660e01b8152600401602060405180830381865afa1580156107d2573d6000803e3d6000fd5b505050506040513d601f19601f820116820180604052508101906107f6919061219a565b600754909150811580159061080b5750600083115b1561087e57816108286c0c9f2c9cd04674edea40000000856121c9565b61083291906121e0565b61083c9082612202565b600781905560408051848152602081018390529192507f055418cabed8a0ec732dd9b1f84e69d3f33a8f9a70d721b7a6962a00c26a4572910160405180910390a15b8060000361088c5750505050565b6001600160a01b038416156109ff5760006108a685611884565b6001600160a01b0386166000908152600a6020526040812054919250906c0c9f2c9cd04674edea40000000906108dc9085612215565b6108e690846121c9565b6108f091906121e0565b6001600160a01b0387166000908152600c602052604081205491925090610918908390612202565b6001600160a01b0388166000908152600c60209081526040808320849055600a9091529020859055905080158015906109595750600061095788611884565b115b156109fb576001600160a01b0387166000908152600b6020526040812054610982908490612202565b90506109d561099b8261099587876118b7565b906118ca565b6001600160a01b038a166000908152600b6020908152604080832054600d909252909120546109cf918591610995916118b7565b906118d6565b6001600160a01b0389166000908152600d6020908152604080832093909355600b905220555b5050505b50505050565b600082815260208190526040902060010154610a20816118e2565b610a2a83836118ec565b505050565b6000610a39611970565b610a423361070c565b604051635d043b2960e11b8152600481018490526001600160a01b0385811660248301819052604483015283919087169063ba087652906064016020604051808303816000875af1158015610a9b573d6000803e3d6000fd5b505050506040513d601f19601f82011682018060405250810190610abf919061219a565b9150811015610b035760405162461bcd60e51b815260206004820152600b60248201526a26b4b727baba22b93937b960a91b60448201526064015b60405180910390fd5b610b0d6001600355565b949350505050565b6001600160a01b0381163314610b855760405162461bcd60e51b815260206004820152602f60248201527f416363657373436f6e74726f6c3a2063616e206f6e6c792072656e6f756e636560448201526e103937b632b9903337b91039b2b63360891b6064820152608401610afa565b610b8f82826119c9565b5050565b610b9b611970565b610ba5600061070c565b610baf6001600355565b565b600080610bbd83611884565b905080600003610be45750506001600160a01b03166000908152600c602052604090205490565b600554604080516318160ddd60e01b815290516000926001600160a01b0316916318160ddd9160048083019260209291908290030181865afa158015610c2e573d6000803e3d6000fd5b505050506040513d601f19601f82011682018060405250810190610c52919061219a565b90506000610ce46c0c9f2c9cd04674edea40000000600860009054906101000a90046001600160a01b03166001600160a01b031663eded3fda6040518163ffffffff1660e01b8152600401602060405180830381865afa158015610cba573d6000803e3d6000fd5b505050506040513d601f19601f82011682018060405250810190610cde919061219a565b906118b7565b90506000610cfe610cf583856118ca565b600754906118d6565b6001600160a01b0387166000908152600a6020526040902054909150610d6690610d47906c0c9f2c9cd04674edea400000009061099590610d40908690611a2e565b88906118b7565b6001600160a01b0388166000908152600c6020526040902054906118d6565b9695505050505050565b60055460405163266d6a8360e11b8152600481018390526000916001600160a01b031690634cdad506906024016106cb565b60065460408051636dc7b0a160e01b815290516000926001600160a01b031691636dc7b0a19160048083019260209291908290030181865afa158015610674573d6000803e3d6000fd5b610df4611a3a565b610baf6000611a94565b6000610e09816118e2565b610e14600083611ae6565b610e1d82611a94565b610b8f6000336119c9565b7f8d1089725c0dc266707fa6207730fb801dcd03108bfed7a21099bd303651d2b7610295816118e2565b7fcb6bc1c12dd43bca8d7dd46d975f913325437d0dcd5978e99d515e4ad39b9772610e7c816118e2565b50600955565b6000610eb46040518060400160405280600f81526020016e33b2ba26282932bbb0b9321f1f1f1f60891b815250611af0565b336000908152600b6020526040902054610ecd90611b33565b610ede610ed933610bb1565b611b33565b336000908152600b60205260408120549003610efa5750600090565b336000908152600c6020908152604080832054600b909252909120546106989190612215565b6000918252602082815260408084206001600160a01b0393909316845291905290205460ff1690565b7f241ecf16d79d0f8dbfb92cbc07fe17840425976cf0667f022fe9877caa831b086000610f768133610f20565b90508015610fd3576201518060025442610f909190612215565b10610fce5760405162461bcd60e51b815260206004820152600e60248201526d1858c81d1a5b59481c185cdcd95960921b6044820152606401610afa565b610fdd565b610fdd8233611b78565b6109ff84846118ec565b6008546040805163a8d9362760e01b815290516000926001600160a01b03169163a8d936279160048083019260209291908290030181865afa158015610674573d6000803e3d6000fd5b600061103b611970565b6110443361070c565b6000856001600160a01b03166338d52e0f6040518163ffffffff1660e01b8152600401602060405180830381865afa158015611084573d6000803e3d6000fd5b505050506040513d601f19601f820116820180604052508101906110a89190612228565b90506110b681333087611bd1565b60055460405163095ea7b360e01b81526001600160a01b039182166004820152602481018690529082169063095ea7b3906044016020604051808303816000875af1158015611109573d6000803e3d6000fd5b505050506040513d601f19601f8201168201806040525081019061112d9190612245565b50604051636e553f6560e01b8152600481018590526001600160a01b038681166024830152849190881690636e553f65906044016020604051808303816000875af1158015611180573d6000803e3d6000fd5b505050506040513d601f19601f820116820180604052508101906111a4919061219a565b92508210156111e65760405162461bcd60e51b815260206004820152600e60248201526d26b4b729b430b932b9a2b93937b960911b6044820152606401610afa565b50610b0d6001600355565b60055460405163b3d7f6b960e01b8152600481018390526000916001600160a01b03169063b3d7f6b9906024016106cb565b600080600560009054906101000a90046001600160a01b03166001600160a01b03166301e1d1146040518163ffffffff1660e01b8152600401602060405180830381865afa158015611279573d6000803e3d6000fd5b505050506040513d601f19601f8201168201806040525081019061129d919061219a565b90506000600560009054906101000a90046001600160a01b03166001600160a01b03166318160ddd6040518163ffffffff1660e01b8152600401602060405180830381865afa1580156112f4573d6000803e3d6000fd5b505050506040513d601f19601f82011682018060405250810190611318919061219a565b9050811580611325575080155b1561134f5761133261062b565b61133d90600a61234b565b6113489060016121c9565b9250505090565b8061135861062b565b61136390600a61234b565b61136d90846121c9565b61134891906121e0565b60065460408051633048041560e21b815290516000926001600160a01b03169163c12010549160048083019260209291908290030181865afa158015610674573d6000803e3d6000fd5b6000816001600160a01b0316636fd3acb46040518163ffffffff1660e01b8152600401602060405180830381865afa1580156106e8573d6000803e3d6000fd5b60008281526020819052604090206001015461141c816118e2565b610a2a83836119c9565b61142e611970565b6005546040516370a0823160e01b81523360048201526000916001600160a01b0316906370a0823190602401602060405180830381865afa158015611477573d6000803e3d6000fd5b505050506040513d601f19601f8201168201806040525081019061149b919061219a565b116114d45760405162461bcd60e51b81526020600482015260096024820152680796f756e2774204c560bc1b6044820152606401610afa565b336114de8161070c565b6001600160a01b0381166000908152600c6020526040812080549190556115183382611508611653565b6001600160a01b03169190611c3c565b60408051338152602081018390527fc9695243a805adb74c91f28311176c65b417e842d5699893cef56d18bfa48cba910160405180910390a15050610baf6001600355565b6000816001600160a01b031663c7b8b46d6040518163ffffffff1660e01b8152600401602060405180830381865afa1580156106e8573d6000803e3d6000fd5b600061069833610bb1565b60055460405163ef8b30f760e01b8152600481018390526000916001600160a01b03169063ef8b30f7906024016106cb565b6115e2611a3a565b6001600160a01b0381166116475760405162461bcd60e51b815260206004820152602660248201527f4f776e61626c653a206e6577206f776e657220697320746865207a65726f206160448201526564647265737360d01b6064820152608401610afa565b61165081611a94565b50565b600554604080516338d52e0f60e01b815290516000926001600160a01b0316916338d52e0f9160048083019260209291908290030181865afa15801561169d573d6000803e3d6000fd5b505050506040513d601f19601f820116820180604052508101906106989190612228565b600154600160a81b900460ff16158080156116e7575060018054600160a01b900460ff16105b806117075750303b158015611707575060018054600160a01b900460ff16145b61176a5760405162461bcd60e51b815260206004820152602e60248201527f496e697469616c697a61626c653a20636f6e747261637420697320616c72656160448201526d191e481a5b9a5d1a585b1a5e995960921b6064820152608401610afa565b6001805460ff60a01b1916600160a01b1790558015611797576001805460ff60a81b1916600160a81b1790555b6001600160a01b0385166117aa57600080fd5b6001600160a01b0384166117bd57600080fd5b6001600160a01b0383166117d057600080fd5b6001600160a01b0382166117e357600080fd5b6117ec33611c6c565b600680546001600160a01b038087166001600160a01b03199283161790925560058054888416908316179055600480548684169083161790556008805492851692909116919091179055801561187d576001805460ff60a81b191681556040519081527f7f26b83ff96e1f2b6a682f133852f6798a09c465da95921460cefb38474024989060200160405180910390a15b5050505050565b6005546040516370a0823160e01b81526001600160a01b03838116600483015260009216906370a08231906024016106cb565b60006118c382846121c9565b9392505050565b60006118c382846121e0565b60006118c38284612202565b6116508133611b78565b6118f68282610f20565b610b8f576000828152602081815260408083206001600160a01b03851684529091529020805460ff1916600117905561192c3390565b6001600160a01b0316816001600160a01b0316837f2f8788117e7eff1d82e926ec794901d17c78024a50270940304540a733656f0d60405160405180910390a45050565b6002600354036119c25760405162461bcd60e51b815260206004820152601f60248201527f5265656e7472616e637947756172643a207265656e7472616e742063616c6c006044820152606401610afa565b6002600355565b6119d38282610f20565b15610b8f576000828152602081815260408083206001600160a01b0385168085529252808320805460ff1916905551339285917ff6391f5c32d9c69d2a47ea670b442974b53935d1edc7fd64eb21e047a839171b9190a45050565b60006118c38284612215565b6001546001600160a01b03163314610baf5760405162461bcd60e51b815260206004820181905260248201527f4f776e61626c653a2063616c6c6572206973206e6f7420746865206f776e65726044820152606401610afa565b600180546001600160a01b038381166001600160a01b0319831681179093556040519116919082907f8be0079c531659141344cd1fd0a4f28419497f9722a3daafe3b4186f6b6457e090600090a35050565b610b8f82826118ec565b61165081604051602401611b04919061237b565b60408051601f198184030181529190526020810180516001600160e01b031663104c13eb60e21b179052611c8f565b61165081604051602401611b4991815260200190565b60408051601f198184030181529190526020810180516001600160e01b031663f82c50f160e01b179052611c8f565b611b828282610f20565b610b8f57611b8f81611cb0565b611b9a836020611cc2565b604051602001611bab9291906123ae565b60408051601f198184030181529082905262461bcd60e51b8252610afa9160040161237b565b6040516001600160a01b03808516602483015283166044820152606481018290526109ff9085906323b872dd60e01b906084015b60408051601f198184030181529190526020810180516001600160e01b03166001600160e01b031990931692909217909152611e5e565b6040516001600160a01b038316602482015260448101829052610a2a90849063a9059cbb60e01b90606401611c05565b42600255611c7933611a94565b611c84600033611ae6565b611650600082611ae6565b80516a636f6e736f6c652e6c6f67602083016000808483855afa5050505050565b60606106256001600160a01b03831660145b60606000611cd18360026121c9565b611cdc906002612202565b67ffffffffffffffff811115611cf457611cf4612423565b6040519080825280601f01601f191660200182016040528015611d1e576020820181803683370190505b509050600360fc1b81600081518110611d3957611d39612439565b60200101906001600160f81b031916908160001a905350600f60fb1b81600181518110611d6857611d68612439565b60200101906001600160f81b031916908160001a9053506000611d8c8460026121c9565b611d97906001612202565b90505b6001811115611e0f576f181899199a1a9b1b9c1cb0b131b232b360811b85600f1660108110611dcb57611dcb612439565b1a60f81b828281518110611de157611de1612439565b60200101906001600160f81b031916908160001a90535060049490941c93611e088161244f565b9050611d9a565b5083156118c35760405162461bcd60e51b815260206004820181905260248201527f537472696e67733a20686578206c656e67746820696e73756666696369656e746044820152606401610afa565b6000611eb3826040518060400160405280602081526020017f5361666545524332303a206c6f772d6c6576656c2063616c6c206661696c6564815250856001600160a01b0316611f309092919063ffffffff16565b805190915015610a2a5780806020019051810190611ed19190612245565b610a2a5760405162461bcd60e51b815260206004820152602a60248201527f5361666545524332303a204552433230206f7065726174696f6e20646964206e6044820152691bdd081cdd58d8d9595960b21b6064820152608401610afa565b6060610b0d848460008585600080866001600160a01b03168587604051611f579190612466565b60006040518083038185875af1925050503d8060008114611f94576040519150601f19603f3d011682016040523d82523d6000602084013e611f99565b606091505b5091509150611faa87838387611fb5565b979650505050505050565b6060831561202457825160000361201d576001600160a01b0385163b61201d5760405162461bcd60e51b815260206004820152601d60248201527f416464726573733a2063616c6c20746f206e6f6e2d636f6e74726163740000006044820152606401610afa565b5081610b0d565b610b0d83838151156120395781518083602001fd5b8060405162461bcd60e51b8152600401610afa919061237b565b60006020828403121561206557600080fd5b81356001600160e01b0319811681146118c357600080fd5b60006020828403121561208f57600080fd5b5035919050565b6001600160a01b038116811461165057600080fd5b6000602082840312156120bd57600080fd5b81356118c381612096565b600080604083850312156120db57600080fd5b8235915060208301356120ed81612096565b809150509250929050565b6000806000806080858703121561210e57600080fd5b843561211981612096565b9350602085013561212981612096565b93969395505050506040820135916060013590565b6000806000806080858703121561215457600080fd5b843561215f81612096565b9350602085013561216f81612096565b9250604085013561217f81612096565b9150606085013561218f81612096565b939692955090935050565b6000602082840312156121ac57600080fd5b5051919050565b634e487b7160e01b600052601160045260246000fd5b8082028115828204841417610625576106256121b3565b6000826121fd57634e487b7160e01b600052601260045260246000fd5b500490565b80820180821115610625576106256121b3565b81810381811115610625576106256121b3565b60006020828403121561223a57600080fd5b81516118c381612096565b60006020828403121561225757600080fd5b815180151581146118c357600080fd5b600181815b808511156122a2578160001904821115612288576122886121b3565b8085161561229557918102915b93841c939080029061226c565b509250929050565b6000826122b957506001610625565b816122c657506000610625565b81600181146122dc57600281146122e657612302565b6001915050610625565b60ff8411156122f7576122f76121b3565b50506001821b610625565b5060208310610133831016604e8410600b8410161715612325575081810a610625565b61232f8383612267565b8060001904821115612343576123436121b3565b029392505050565b60006118c383836122aa565b60005b8381101561237257818101518382015260200161235a565b50506000910152565b602081526000825180602084015261239a816040850160208701612357565b601f01601f19169190910160400192915050565b7f416363657373436f6e74726f6c3a206163636f756e74200000000000000000008152600083516123e6816017850160208801612357565b7001034b99036b4b9b9b4b733903937b6329607d1b6017918401918201528351612417816028840160208801612357565b01602801949350505050565b634e487b7160e01b600052604160045260246000fd5b634e487b7160e01b600052603260045260246000fd5b60008161245e5761245e6121b3565b506000190190565b60008251612478818460208701612357565b919091019291505056fea26469706673582212206229ba7df73026a4ac59251f13a3f568d92e052317d722a225b92673fddf57f764736f6c63430008110033",
  "linkReferences": {},
  "deployedLinkReferences": {}
}