{
  "_format": "hh-sol-artifact-1",
  "contractName": "VaultReward",
  "sourceName": "contracts/vault/VaultReward.sol",
  "abi": [
    {
      "anonymous": false,
      "inputs": [
        {
          "indexed": false,
          "internalType": "address",
          "name": "account",
          "type": "address"
        },
        {
          "indexed": false,
          "internalType": "uint256",
          "name": "amount",
          "type": "uint256"
        }
      ],
      "name": "Harvest",
      "type": "event"
    },
    {
      "anonymous": false,
      "inputs": [
        {
          "indexed": false,
          "internalType": "uint8",
          "name": "version",
          "type": "uint8"
        }
      ],
      "name": "Initialized",
      "type": "event"
    },
    {
      "anonymous": false,
      "inputs": [
        {
          "indexed": false,
          "internalType": "uint256",
          "name": "supply",
          "type": "uint256"
        },
        {
          "indexed": false,
          "internalType": "uint256",
          "name": "cumulativeRewardPerToken",
          "type": "uint256"
        }
      ],
      "name": "LogUpdatePool",
      "type": "event"
    },
    {
      "anonymous": false,
      "inputs": [
        {
          "indexed": true,
          "internalType": "address",
          "name": "previousOwner",
          "type": "address"
        },
        {
          "indexed": true,
          "internalType": "address",
          "name": "newOwner",
          "type": "address"
        }
      ],
      "name": "OwnershipTransferred",
      "type": "event"
    },
    {
      "anonymous": false,
      "inputs": [
        {
          "indexed": true,
          "internalType": "bytes32",
          "name": "role",
          "type": "bytes32"
        },
        {
          "indexed": true,
          "internalType": "bytes32",
          "name": "previousAdminRole",
          "type": "bytes32"
        },
        {
          "indexed": true,
          "internalType": "bytes32",
          "name": "newAdminRole",
          "type": "bytes32"
        }
      ],
      "name": "RoleAdminChanged",
      "type": "event"
    },
    {
      "anonymous": false,
      "inputs": [
        {
          "indexed": true,
          "internalType": "bytes32",
          "name": "role",
          "type": "bytes32"
        },
        {
          "indexed": true,
          "internalType": "address",
          "name": "account",
          "type": "address"
        },
        {
          "indexed": true,
          "internalType": "address",
          "name": "sender",
          "type": "address"
        }
      ],
      "name": "RoleGranted",
      "type": "event"
    },
    {
      "anonymous": false,
      "inputs": [
        {
          "indexed": true,
          "internalType": "bytes32",
          "name": "role",
          "type": "bytes32"
        },
        {
          "indexed": true,
          "internalType": "address",
          "name": "account",
          "type": "address"
        },
        {
          "indexed": true,
          "internalType": "address",
          "name": "sender",
          "type": "address"
        }
      ],
      "name": "RoleRevoked",
      "type": "event"
    },
    {
      "inputs": [],
      "name": "DEFAULT_ADMIN_ROLE",
      "outputs": [
        {
          "internalType": "bytes32",
          "name": "",
          "type": "bytes32"
        }
      ],
      "stateMutability": "view",
      "type": "function"
    },
    {
      "inputs": [],
      "name": "PRECISION",
      "outputs": [
        {
          "internalType": "uint256",
          "name": "",
          "type": "uint256"
        }
      ],
      "stateMutability": "view",
      "type": "function"
    },
    {
      "inputs": [],
      "name": "apr",
      "outputs": [
        {
          "internalType": "uint256",
          "name": "",
          "type": "uint256"
        }
      ],
      "stateMutability": "view",
      "type": "function"
    },
    {
      "inputs": [
        {
          "internalType": "address",
          "name": "",
          "type": "address"
        }
      ],
      "name": "averageStakedAmounts",
      "outputs": [
        {
          "internalType": "uint256",
          "name": "",
          "type": "uint256"
        }
      ],
      "stateMutability": "view",
      "type": "function"
    },
    {
      "inputs": [
        {
          "internalType": "contract IERC4626",
          "name": "vault",
          "type": "address"
        },
        {
          "internalType": "address",
          "name": "to",
          "type": "address"
        },
        {
          "internalType": "uint256",
          "name": "amount",
          "type": "uint256"
        },
        {
          "internalType": "uint256",
          "name": "minSharesOut",
          "type": "uint256"
        }
      ],
      "name": "buy",
      "outputs": [
        {
          "internalType": "uint256",
          "name": "sharesOut",
          "type": "uint256"
        }
      ],
      "stateMutability": "nonpayable",
      "type": "function"
    },
    {
      "inputs": [
        {
          "internalType": "contract ICoreVault",
          "name": "vault",
          "type": "address"
        }
      ],
      "name": "buyLpFee",
      "outputs": [
        {
          "internalType": "uint256",
          "name": "",
          "type": "uint256"
        }
      ],
      "stateMutability": "view",
      "type": "function"
    },
    {
      "inputs": [],
      "name": "claimLPReward",
      "outputs": [],
      "stateMutability": "nonpayable",
      "type": "function"
    },
    {
      "inputs": [
        {
          "internalType": "address",
          "name": "_account",
          "type": "address"
        }
      ],
      "name": "claimable",
      "outputs": [
        {
          "internalType": "uint256",
          "name": "",
          "type": "uint256"
        }
      ],
      "stateMutability": "view",
      "type": "function"
    },
    {
      "inputs": [
        {
          "internalType": "address",
          "name": "",
          "type": "address"
        }
      ],
      "name": "claimableReward",
      "outputs": [
        {
          "internalType": "uint256",
          "name": "",
          "type": "uint256"
        }
      ],
      "stateMutability": "view",
      "type": "function"
    },
    {
      "inputs": [],
      "name": "coreVault",
      "outputs": [
        {
          "internalType": "contract ICoreVault",
          "name": "",
          "type": "address"
        }
      ],
      "stateMutability": "view",
      "type": "function"
    },
    {
      "inputs": [],
      "name": "cumulativeRewardPerToken",
      "outputs": [
        {
          "internalType": "uint256",
          "name": "",
          "type": "uint256"
        }
      ],
      "stateMutability": "view",
      "type": "function"
    },
    {
      "inputs": [],
      "name": "distributor",
      "outputs": [
        {
          "internalType": "address",
          "name": "",
          "type": "address"
        }
      ],
      "stateMutability": "view",
      "type": "function"
    },
    {
      "inputs": [],
      "name": "feeRouter",
      "outputs": [
        {
          "internalType": "contract IFeeRouter",
          "name": "",
          "type": "address"
        }
      ],
      "stateMutability": "view",
      "type": "function"
    },
    {
      "inputs": [],
      "name": "getAPR",
      "outputs": [
        {
          "internalType": "uint256",
          "name": "",
          "type": "uint256"
        }
      ],
      "stateMutability": "view",
      "type": "function"
    },
    {
      "inputs": [],
      "name": "getAUM",
      "outputs": [
        {
          "internalType": "uint256",
          "name": "",
          "type": "uint256"
        }
      ],
      "stateMutability": "view",
      "type": "function"
    },
    {
      "inputs": [],
      "name": "getLPPrice",
      "outputs": [
        {
          "internalType": "uint256",
          "name": "",
          "type": "uint256"
        }
      ],
      "stateMutability": "view",
      "type": "function"
    },
    {
      "inputs": [],
      "name": "getLPReward",
      "outputs": [
        {
          "internalType": "uint256",
          "name": "",
          "type": "uint256"
        }
      ],
      "stateMutability": "view",
      "type": "function"
    },
    {
      "inputs": [
        {
          "internalType": "bytes32",
          "name": "role",
          "type": "bytes32"
        }
      ],
      "name": "getRoleAdmin",
      "outputs": [
        {
          "internalType": "bytes32",
          "name": "",
          "type": "bytes32"
        }
      ],
      "stateMutability": "view",
      "type": "function"
    },
    {
      "inputs": [],
      "name": "getUSDBalance",
      "outputs": [
        {
          "internalType": "uint256",
          "name": "",
          "type": "uint256"
        }
      ],
      "stateMutability": "view",
      "type": "function"
    },
    {
      "inputs": [
        {
          "internalType": "bytes32",
          "name": "role",
          "type": "bytes32"
        },
        {
          "internalType": "address",
          "name": "account",
          "type": "address"
        }
      ],
      "name": "grantAndRevoke",
      "outputs": [],
      "stateMutability": "nonpayable",
      "type": "function"
    },
    {
      "inputs": [
        {
          "internalType": "bytes32",
          "name": "role",
          "type": "bytes32"
        },
        {
          "internalType": "address",
          "name": "account",
          "type": "address"
        }
      ],
      "name": "grantRole",
      "outputs": [],
      "stateMutability": "nonpayable",
      "type": "function"
    },
    {
      "inputs": [
        {
          "internalType": "bytes32",
          "name": "role",
          "type": "bytes32"
        },
        {
          "internalType": "address",
          "name": "account",
          "type": "address"
        }
      ],
      "name": "hasRole",
      "outputs": [
        {
          "internalType": "bool",
          "name": "",
          "type": "bool"
        }
      ],
      "stateMutability": "view",
      "type": "function"
    },
    {
      "inputs": [
        {
          "internalType": "address",
          "name": "_coreVault",
          "type": "address"
        },
        {
          "internalType": "address",
          "name": "_vaultRouter",
          "type": "address"
        },
        {
          "internalType": "address",
          "name": "_feeRouter",
          "type": "address"
        },
        {
          "internalType": "address",
          "name": "_distributor",
          "type": "address"
        }
      ],
      "name": "initialize",
      "outputs": [],
      "stateMutability": "nonpayable",
      "type": "function"
    },
    {
      "inputs": [
        {
          "internalType": "address",
          "name": "",
          "type": "address"
        }
      ],
      "name": "lpEarnedRewards",
      "outputs": [
        {
          "internalType": "uint256",
          "name": "",
          "type": "uint256"
        }
      ],
      "stateMutability": "view",
      "type": "function"
    },
    {
      "inputs": [],
      "name": "owner",
      "outputs": [
        {
          "internalType": "address",
          "name": "",
          "type": "address"
        }
      ],
      "stateMutability": "view",
      "type": "function"
    },
    {
      "inputs": [],
      "name": "pendingRewards",
      "outputs": [
        {
          "internalType": "uint256",
          "name": "",
          "type": "uint256"
        }
      ],
      "stateMutability": "view",
      "type": "function"
    },
    {
      "inputs": [
        {
          "internalType": "uint256",
          "name": "assets",
          "type": "uint256"
        }
      ],
      "name": "previewDeposit",
      "outputs": [
        {
          "internalType": "uint256",
          "name": "",
          "type": "uint256"
        }
      ],
      "stateMutability": "view",
      "type": "function"
    },
    {
      "inputs": [
        {
          "internalType": "uint256",
          "name": "shares",
          "type": "uint256"
        }
      ],
      "name": "previewMint",
      "outputs": [
        {
          "internalType": "uint256",
          "name": "",
          "type": "uint256"
        }
      ],
      "stateMutability": "view",
      "type": "function"
    },
    {
      "inputs": [
        {
          "internalType": "uint256",
          "name": "shares",
          "type": "uint256"
        }
      ],
      "name": "previewRedeem",
      "outputs": [
        {
          "internalType": "uint256",
          "name": "",
          "type": "uint256"
        }
      ],
      "stateMutability": "view",
      "type": "function"
    },
    {
      "inputs": [
        {
          "internalType": "uint256",
          "name": "assets",
          "type": "uint256"
        }
      ],
      "name": "previewWithdraw",
      "outputs": [
        {
          "internalType": "uint256",
          "name": "",
          "type": "uint256"
        }
      ],
      "stateMutability": "view",
      "type": "function"
    },
    {
      "inputs": [
        {
          "internalType": "address",
          "name": "",
          "type": "address"
        }
      ],
      "name": "previousCumulatedRewardPerToken",
      "outputs": [
        {
          "internalType": "uint256",
          "name": "",
          "type": "uint256"
        }
      ],
      "stateMutability": "view",
      "type": "function"
    },
    {
      "inputs": [],
      "name": "priceDecimals",
      "outputs": [
        {
          "internalType": "uint256",
          "name": "",
          "type": "uint256"
        }
      ],
      "stateMutability": "view",
      "type": "function"
    },
    {
      "inputs": [],
      "name": "renounceOwnership",
      "outputs": [],
      "stateMutability": "nonpayable",
      "type": "function"
    },
    {
      "inputs": [
        {
          "internalType": "bytes32",
          "name": "role",
          "type": "bytes32"
        },
        {
          "internalType": "address",
          "name": "account",
          "type": "address"
        }
      ],
      "name": "renounceRole",
      "outputs": [],
      "stateMutability": "nonpayable",
      "type": "function"
    },
    {
      "inputs": [
        {
          "internalType": "bytes32",
          "name": "role",
          "type": "bytes32"
        },
        {
          "internalType": "address",
          "name": "account",
          "type": "address"
        }
      ],
      "name": "revokeRole",
      "outputs": [],
      "stateMutability": "nonpayable",
      "type": "function"
    },
    {
      "inputs": [],
      "name": "rewardToken",
      "outputs": [
        {
          "internalType": "address",
          "name": "",
          "type": "address"
        }
      ],
      "stateMutability": "view",
      "type": "function"
    },
    {
      "inputs": [
        {
          "internalType": "contract IERC4626",
          "name": "vault",
          "type": "address"
        },
        {
          "internalType": "address",
          "name": "to",
          "type": "address"
        },
        {
          "internalType": "uint256",
          "name": "shares",
          "type": "uint256"
        },
        {
          "internalType": "uint256",
          "name": "minAssetsOut",
          "type": "uint256"
        }
      ],
      "name": "sell",
      "outputs": [
        {
          "internalType": "uint256",
          "name": "assetOut",
          "type": "uint256"
        }
      ],
      "stateMutability": "nonpayable",
      "type": "function"
    },
    {
      "inputs": [
        {
          "internalType": "contract ICoreVault",
          "name": "vault",
          "type": "address"
        }
      ],
      "name": "sellLpFee",
      "outputs": [
        {
          "internalType": "uint256",
          "name": "",
          "type": "uint256"
        }
      ],
      "stateMutability": "view",
      "type": "function"
    },
    {
      "inputs": [
        {
          "internalType": "uint256",
          "name": "_apr",
          "type": "uint256"
        }
      ],
      "name": "setAPR",
      "outputs": [],
      "stateMutability": "nonpayable",
      "type": "function"
    },
    {
      "inputs": [
        {
          "internalType": "bytes4",
          "name": "interfaceId",
          "type": "bytes4"
        }
      ],
      "name": "supportsInterface",
      "outputs": [
        {
          "internalType": "bool",
          "name": "",
          "type": "bool"
        }
      ],
      "stateMutability": "view",
      "type": "function"
    },
    {
      "inputs": [],
      "name": "tokensPerInterval",
      "outputs": [
        {
          "internalType": "uint256",
          "name": "",
          "type": "uint256"
        }
      ],
      "stateMutability": "view",
      "type": "function"
    },
    {
      "inputs": [
        {
          "internalType": "address",
          "name": "to",
          "type": "address"
        }
      ],
      "name": "transferAdmin",
      "outputs": [],
      "stateMutability": "nonpayable",
      "type": "function"
    },
    {
      "inputs": [
        {
          "internalType": "address",
          "name": "newOwner",
          "type": "address"
        }
      ],
      "name": "transferOwnership",
      "outputs": [],
      "stateMutability": "nonpayable",
      "type": "function"
    },
    {
      "inputs": [],
      "name": "updateRewards",
      "outputs": [],
      "stateMutability": "nonpayable",
      "type": "function"
    },
    {
      "inputs": [
        {
          "internalType": "address",
          "name": "_account",
          "type": "address"
        }
      ],
      "name": "updateRewardsByAccount",
      "outputs": [],
      "stateMutability": "nonpayable",
      "type": "function"
    },
    {
      "inputs": [],
      "name": "vaultRouter",
      "outputs": [
        {
          "internalType": "contract IVaultRouter",
          "name": "",
          "type": "address"
        }
      ],
      "stateMutability": "view",
      "type": "function"
    }
  ],
  "bytecode": "0x608060405234801561001057600080fd5b5061001a33610024565b6001600255610076565b600180546001600160a01b038381166001600160a01b0319831681179093556040519116919082907f8be0079c531659141344cd1fd0a4f28419497f9722a3daafe3b4186f6b6457e090600090a35050565b612403806100856000396000f3fe608060405234801561001057600080fd5b506004361061021a5760003560e01c806301ffc9a71461021f57806305300b28146102475780630a28a4771461025d5780631ee2b0b214610270578063248a9ca3146102855780632f2ff15d1461029857806331de7d15146102ab57806336568abe146102be5780633e158b0c146102d1578063402914f5146102d957806344a08411146102ec5780634cdad5061461030c57806357ded9c91461031f578063674ce1b5146103285780636dc7b0a114610348578063715018a61461035057806375829def14610358578063854303cf1461036b5780638da5cb5b1461037e5780638f089d651461038657806391d148541461038e57806399d5c1ec146103a1578063a217fddf146103b4578063a3180217146103bc578063a8d93627146103dc578063a9d424e2146103e4578063aaf5eb68146103f7578063ae8bcdf81461040a578063b3d7f6b91461042a578063b77905ae1461043d578063bfe1092814610445578063c120105414610458578063c89d5b8b14610460578063d37c441c14610468578063d53b26ee1461047b578063d547741f1461048e578063e547bb91146104a1578063e9503425146104a9578063eb4fe818146104c9578063eded3fda146104dc578063ef8b30f7146104e4578063f29ebf61146104f7578063f2fde38b1461050a578063f5fc50761461051d578063f7c618c114610526578063f8c8765e1461052e575b600080fd5b61023261022d366004611f57565b610541565b60405190151581526020015b60405180910390f35b61024f610578565b60405190815260200161023e565b61024f61026b366004611f81565b6105ea565b61028361027e366004611faf565b61065b565b005b61024f610293366004611f81565b610952565b6102836102a6366004611fcc565b610967565b61024f6102b9366004611ffc565b610988565b6102836102cc366004611fcc565b610a6e565b610283610aec565b61024f6102e7366004611faf565b610b0a565b61024f6102fa366004611faf565b60096020526000908152604090205481565b61024f61031a366004611f81565b610cd2565b61024f60085481565b60045461033b906001600160a01b031681565b60405161023e9190612042565b61024f610d06565b610283610d50565b610283610366366004611faf565b610d62565b610283610379366004611f81565b610d8c565b61033b610dbc565b61024f610dcb565b61023261039c366004611fcc565b610e69565b6102836103af366004611fcc565b610e92565b61024f600081565b61024f6103ca366004611faf565b600c6020526000908152604090205481565b61024f610ebf565b61024f6103f2366004611ffc565b610f09565b61024f68327cb2734119d3b7a9601e1b81565b61024f610418366004611faf565b600a6020526000908152604090205481565b61024f610438366004611f81565b6110c7565b61024f6110fb565b60075461033b906001600160a01b031681565b61024f611241565b60085461024f565b60055461033b906001600160a01b031681565b61024f610489366004611faf565b61128b565b61028361049c366004611fcc565b6112cb565b6102836112e7565b61024f6104b7366004611faf565b600b6020526000908152604090205481565b61024f6104d7366004611faf565b611424565b61024f611464565b61024f6104f2366004611f81565b61146f565b60035461033b906001600160a01b031681565b610283610518366004611faf565b6114a3565b61024f60065481565b61033b61151c565b61028361053c366004612056565b611595565b60006001600160e01b03198216637965db0b60e01b148061057257506301ffc9a760e01b6001600160e01b03198316145b92915050565b6005546040805162a6016560e31b815290516000926001600160a01b0316916305300b289160048083019260209291908290030181865afa1580156105c1573d6000803e3d6000fd5b505050506040513d601f19601f820116820180604052508101906105e591906120b2565b905090565b60048054604051630a28a47760e01b81529182018390526000916001600160a01b0390911690630a28a477906024015b602060405180830381865afa158015610637573d6000803e3d6000fd5b505050506040513d601f19601f8201168201806040525081019061057291906120b2565b6007546040805163e4fc6b6d60e01b815290516000926001600160a01b03169163e4fc6b6d916004808301926020929190829003018187875af11580156106a6573d6000803e3d6000fd5b505050506040513d601f19601f820116820180604052508101906106ca91906120b2565b90506000600460009054906101000a90046001600160a01b03166001600160a01b03166318160ddd6040518163ffffffff1660e01b8152600401602060405180830381865afa158015610721573d6000803e3d6000fd5b505050506040513d601f19601f8201168201806040525081019061074591906120b2565b600654909150811580159061075a5750600083115b156107cc578161077668327cb2734119d3b7a9601e1b856120e1565b61078091906120f8565b61078a908261211a565b600681905560408051848152602081018390529192507f055418cabed8a0ec732dd9b1f84e69d3f33a8f9a70d721b7a6962a00c26a4572910160405180910390a15b806000036107da5750505050565b6001600160a01b0384161561094c5760006107f48561175f565b6001600160a01b0386166000908152600960205260408120549192509068327cb2734119d3b7a9601e1b90610829908561212d565b61083390846120e1565b61083d91906120f8565b6001600160a01b0387166000908152600b60205260408120549192509061086590839061211a565b6001600160a01b0388166000908152600b6020908152604080832084905560099091529020859055905080158015906108a6575060006108a48861175f565b115b15610948576001600160a01b0387166000908152600a60205260408120546108cf90849061211a565b90506109226108e8826108e28787611791565b906117a4565b6001600160a01b038a166000908152600a6020908152604080832054600c9092529091205461091c9185916108e291611791565b906117b0565b6001600160a01b0389166000908152600c6020908152604080832093909355600a905220555b5050505b50505050565b60009081526020819052604090206001015490565b61097082610952565b610979816117bc565b61098383836117c6565b505050565b600061099261184a565b61099b3361065b565b604051635d043b2960e11b8152600481018490526001600160a01b0385811660248301819052604483015283919087169063ba087652906064016020604051808303816000875af11580156109f4573d6000803e3d6000fd5b505050506040513d601f19601f82011682018060405250810190610a1891906120b2565b9150811015610a5c5760405162461bcd60e51b815260206004820152600b60248201526a26b4b727baba22b93937b960a91b60448201526064015b60405180910390fd5b610a666001600255565b949350505050565b6001600160a01b0381163314610ade5760405162461bcd60e51b815260206004820152602f60248201527f416363657373436f6e74726f6c3a2063616e206f6e6c792072656e6f756e636560448201526e103937b632b9903337b91039b2b63360891b6064820152608401610a53565b610ae882826118a1565b5050565b610af461184a565b610afe600061065b565b610b086001600255565b565b600080610b168361175f565b905080600003610b3d5750506001600160a01b03166000908152600b602052604090205490565b6000600460009054906101000a90046001600160a01b03166001600160a01b03166318160ddd6040518163ffffffff1660e01b8152600401602060405180830381865afa158015610b92573d6000803e3d6000fd5b505050506040513d601f19601f82011682018060405250810190610bb691906120b2565b90506000610c4768327cb2734119d3b7a9601e1b600760009054906101000a90046001600160a01b03166001600160a01b031663eded3fda6040518163ffffffff1660e01b8152600401602060405180830381865afa158015610c1d573d6000803e3d6000fd5b505050506040513d601f19601f82011682018060405250810190610c4191906120b2565b90611791565b90506000610c61610c5883856117a4565b600654906117b0565b6001600160a01b038716600090815260096020526040902054909150610cc890610ca99068327cb2734119d3b7a9601e1b906108e290610ca2908690611906565b8890611791565b6001600160a01b0388166000908152600b6020526040902054906117b0565b9695505050505050565b6004805460405163266d6a8360e11b81529182018390526000916001600160a01b0390911690634cdad5069060240161061a565b60055460408051636dc7b0a160e01b815290516000926001600160a01b031691636dc7b0a19160048083019260209291908290030181865afa1580156105c1573d6000803e3d6000fd5b610d58611912565b610b086000611971565b6000610d6d816117bc565b610d786000836119c3565b610d8182611971565b610ae86000336118a1565b7fcb6bc1c12dd43bca8d7dd46d975f913325437d0dcd5978e99d515e4ad39b9772610db6816117bc565b50600855565b6001546001600160a01b031690565b6000610dfd6040518060400160405280600f81526020016e33b2ba26282932bbb0b9321f1f1f1f60891b8152506119cd565b336000908152600a6020526040902054610e1690611a10565b610e27610e2233610b0a565b611a10565b336000908152600a60205260408120549003610e435750600090565b336000908152600b6020908152604080832054600a909252909120546105e5919061212d565b6000918252602082815260408084206001600160a01b0393909316845291905290205460ff1690565b6000805160206123ae833981519152610eaa816117bc565b610eb48383610967565b6109836000336112cb565b6007546040805163a8d9362760e01b815290516000926001600160a01b03169163a8d936279160048083019260209291908290030181865afa1580156105c1573d6000803e3d6000fd5b6000610f1361184a565b610f1c3361065b565b6000856001600160a01b03166338d52e0f6040518163ffffffff1660e01b8152600401602060405180830381865afa158015610f5c573d6000803e3d6000fd5b505050506040513d601f19601f82011682018060405250810190610f809190612140565b9050610f8e81333087611a55565b6004805460405163095ea7b360e01b81526001600160a01b038085169363095ea7b393610fc09392169189910161215d565b6020604051808303816000875af1158015610fdf573d6000803e3d6000fd5b505050506040513d601f19601f820116820180604052508101906110039190612176565b50604051636e553f6560e01b8152600481018590526001600160a01b038681166024830152849190881690636e553f65906044016020604051808303816000875af1158015611056573d6000803e3d6000fd5b505050506040513d601f19601f8201168201806040525081019061107a91906120b2565b92508210156110bc5760405162461bcd60e51b815260206004820152600e60248201526d26b4b729b430b932b9a2b93937b960911b6044820152606401610a53565b50610a666001600255565b6004805460405163b3d7f6b960e01b81529182018390526000916001600160a01b039091169063b3d7f6b99060240161061a565b60048054604080516278744560e21b8152905160009384936001600160a01b0316926301e1d11492818301926020928290030181865afa158015611143573d6000803e3d6000fd5b505050506040513d601f19601f8201168201806040525081019061116791906120b2565b90506000600460009054906101000a90046001600160a01b03166001600160a01b03166318160ddd6040518163ffffffff1660e01b8152600401602060405180830381865afa1580156111be573d6000803e3d6000fd5b505050506040513d601f19601f820116820180604052508101906111e291906120b2565b90508115806111ef575080155b15611219576111fc610578565b61120790600a61227c565b6112129060016120e1565b9250505090565b80611222610578565b61122d90600a61227c565b61123790846120e1565b61121291906120f8565b60055460408051633048041560e21b815290516000926001600160a01b03169163c12010549160048083019260209291908290030181865afa1580156105c1573d6000803e3d6000fd5b6000816001600160a01b0316636fd3acb46040518163ffffffff1660e01b8152600401602060405180830381865afa158015610637573d6000803e3d6000fd5b6112d482610952565b6112dd816117bc565b61098383836118a1565b6112ef61184a565b600480546040516370a0823160e01b81526000926001600160a01b03909216916370a082319161132191339101612042565b602060405180830381865afa15801561133e573d6000803e3d6000fd5b505050506040513d601f19601f8201168201806040525081019061136291906120b2565b1161139b5760405162461bcd60e51b81526020600482015260096024820152680796f756e2774204c560bc1b6044820152606401610a53565b336113a58161065b565b6001600160a01b0381166000908152600b6020526040812080549190556113df33826113cf61151c565b6001600160a01b03169190611ac0565b7fc9695243a805adb74c91f28311176c65b417e842d5699893cef56d18bfa48cba338260405161141092919061215d565b60405180910390a15050610b086001600255565b6000816001600160a01b031663c7b8b46d6040518163ffffffff1660e01b8152600401602060405180830381865afa158015610637573d6000803e3d6000fd5b60006105e533610b0a565b6004805460405163ef8b30f760e01b81529182018390526000916001600160a01b039091169063ef8b30f79060240161061a565b6114ab611912565b6001600160a01b0381166115105760405162461bcd60e51b815260206004820152602660248201527f4f776e61626c653a206e6577206f776e657220697320746865207a65726f206160448201526564647265737360d01b6064820152608401610a53565b61151981611971565b50565b6000600460009054906101000a90046001600160a01b03166001600160a01b03166338d52e0f6040518163ffffffff1660e01b8152600401602060405180830381865afa158015611571573d6000803e3d6000fd5b505050506040513d601f19601f820116820180604052508101906105e59190612140565b600154600160a81b900460ff16158080156115bb575060018054600160a01b900460ff16105b806115e257506115ca30611adf565b1580156115e2575060018054600160a01b900460ff16145b6116455760405162461bcd60e51b815260206004820152602e60248201527f496e697469616c697a61626c653a20636f6e747261637420697320616c72656160448201526d191e481a5b9a5d1a585b1a5e995960921b6064820152608401610a53565b6001805460ff60a01b1916600160a01b1790558015611672576001805460ff60a81b1916600160a81b1790555b6001600160a01b03851661168557600080fd5b6001600160a01b03841661169857600080fd5b6001600160a01b0383166116ab57600080fd5b6001600160a01b0382166116be57600080fd5b6116c733611aee565b600580546001600160a01b038087166001600160a01b031992831617909255600480548884169083161790556003805486841690831617905560078054928516929091169190911790558015611758576001805460ff60a81b191681556040519081527f7f26b83ff96e1f2b6a682f133852f6798a09c465da95921460cefb38474024989060200160405180910390a15b5050505050565b600480546040516370a0823160e01b81526000926001600160a01b03909216916370a082319161061a91869101612042565b600061179d82846120e1565b9392505050565b600061179d82846120f8565b600061179d828461211a565b6115198133611b3d565b6117d08282610e69565b610ae8576000828152602081815260408083206001600160a01b03851684529091529020805460ff191660011790556118063390565b6001600160a01b0316816001600160a01b0316837f2f8788117e7eff1d82e926ec794901d17c78024a50270940304540a733656f0d60405160405180910390a45050565b600280540361189b5760405162461bcd60e51b815260206004820152601f60248201527f5265656e7472616e637947756172643a207265656e7472616e742063616c6c006044820152606401610a53565b60028055565b6118ab8282610e69565b15610ae8576000828152602081815260408083206001600160a01b0385168085529252808320805460ff1916905551339285917ff6391f5c32d9c69d2a47ea670b442974b53935d1edc7fd64eb21e047a839171b9190a45050565b600061179d828461212d565b3361191b610dbc565b6001600160a01b031614610b085760405162461bcd60e51b815260206004820181905260248201527f4f776e61626c653a2063616c6c6572206973206e6f7420746865206f776e65726044820152606401610a53565b600180546001600160a01b038381166001600160a01b0319831681179093556040519116919082907f8be0079c531659141344cd1fd0a4f28419497f9722a3daafe3b4186f6b6457e090600090a35050565b610ae882826117c6565b611519816040516024016119e191906122ac565b60408051601f198184030181529190526020810180516001600160e01b031663104c13eb60e21b179052611b96565b61151981604051602401611a2691815260200190565b60408051601f198184030181529190526020810180516001600160e01b031663f82c50f160e01b179052611b96565b6040516001600160a01b038085166024830152831660448201526064810182905261094c9085906323b872dd60e01b906084015b60408051601f198184030181529190526020810180516001600160e01b03166001600160e01b031990931692909217909152611bb7565b6109838363a9059cbb60e01b8484604051602401611a8992919061215d565b6001600160a01b03163b151590565b611af733611971565b611b026000336119c3565b611b0d6000826119c3565b611b256000805160206123ae833981519152336119c3565b6115196000805160206123ae833981519152826119c3565b611b478282610e69565b610ae857611b5481611c89565b611b5f836020611c9b565b604051602001611b709291906122df565b60408051601f198184030181529082905262461bcd60e51b8252610a53916004016122ac565b80516a636f6e736f6c652e6c6f67602083016000808483855afa5050505050565b6000611c0c826040518060400160405280602081526020017f5361666545524332303a206c6f772d6c6576656c2063616c6c206661696c6564815250856001600160a01b0316611e369092919063ffffffff16565b8051909150156109835780806020019051810190611c2a9190612176565b6109835760405162461bcd60e51b815260206004820152602a60248201527f5361666545524332303a204552433230206f7065726174696f6e20646964206e6044820152691bdd081cdd58d8d9595960b21b6064820152608401610a53565b60606105726001600160a01b03831660145b60606000611caa8360026120e1565b611cb590600261211a565b6001600160401b03811115611ccc57611ccc61234e565b6040519080825280601f01601f191660200182016040528015611cf6576020820181803683370190505b509050600360fc1b81600081518110611d1157611d11612364565b60200101906001600160f81b031916908160001a905350600f60fb1b81600181518110611d4057611d40612364565b60200101906001600160f81b031916908160001a9053506000611d648460026120e1565b611d6f90600161211a565b90505b6001811115611de7576f181899199a1a9b1b9c1cb0b131b232b360811b85600f1660108110611da357611da3612364565b1a60f81b828281518110611db957611db9612364565b60200101906001600160f81b031916908160001a90535060049490941c93611de08161237a565b9050611d72565b50831561179d5760405162461bcd60e51b815260206004820181905260248201527f537472696e67733a20686578206c656e67746820696e73756666696369656e746044820152606401610a53565b6060610a66848460008585600080866001600160a01b03168587604051611e5d9190612391565b60006040518083038185875af1925050503d8060008114611e9a576040519150601f19603f3d011682016040523d82523d6000602084013e611e9f565b606091505b5091509150611eb087838387611ebb565b979650505050505050565b60608315611f28578251600003611f2157611ed585611adf565b611f215760405162461bcd60e51b815260206004820152601d60248201527f416464726573733a2063616c6c20746f206e6f6e2d636f6e74726163740000006044820152606401610a53565b5081610a66565b610a668383815115611f3d5781518083602001fd5b8060405162461bcd60e51b8152600401610a5391906122ac565b600060208284031215611f6957600080fd5b81356001600160e01b03198116811461179d57600080fd5b600060208284031215611f9357600080fd5b5035919050565b6001600160a01b038116811461151957600080fd5b600060208284031215611fc157600080fd5b813561179d81611f9a565b60008060408385031215611fdf57600080fd5b823591506020830135611ff181611f9a565b809150509250929050565b6000806000806080858703121561201257600080fd5b843561201d81611f9a565b9350602085013561202d81611f9a565b93969395505050506040820135916060013590565b6001600160a01b0391909116815260200190565b6000806000806080858703121561206c57600080fd5b843561207781611f9a565b9350602085013561208781611f9a565b9250604085013561209781611f9a565b915060608501356120a781611f9a565b939692955090935050565b6000602082840312156120c457600080fd5b5051919050565b634e487b7160e01b600052601160045260246000fd5b8082028115828204841417610572576105726120cb565b60008261211557634e487b7160e01b600052601260045260246000fd5b500490565b80820180821115610572576105726120cb565b81810381811115610572576105726120cb565b60006020828403121561215257600080fd5b815161179d81611f9a565b6001600160a01b03929092168252602082015260400190565b60006020828403121561218857600080fd5b8151801515811461179d57600080fd5b600181815b808511156121d35781600019048211156121b9576121b96120cb565b808516156121c657918102915b93841c939080029061219d565b509250929050565b6000826121ea57506001610572565b816121f757506000610572565b816001811461220d576002811461221757612233565b6001915050610572565b60ff841115612228576122286120cb565b50506001821b610572565b5060208310610133831016604e8410600b8410161715612256575081810a610572565b6122608383612198565b8060001904821115612274576122746120cb565b029392505050565b600061179d83836121db565b60005b838110156122a357818101518382015260200161228b565b50506000910152565b60208152600082518060208401526122cb816040850160208701612288565b601f01601f19169190910160400192915050565b76020b1b1b2b9b9a1b7b73a3937b61d1030b1b1b7bab73a1604d1b815260008351612311816017850160208801612288565b7001034b99036b4b9b9b4b733903937b6329607d1b6017918401918201528351612342816028840160208801612288565b01602801949350505050565b634e487b7160e01b600052604160045260246000fd5b634e487b7160e01b600052603260045260246000fd5b600081612389576123896120cb565b506000190190565b600082516123a3818460208701612288565b919091019291505056fe241ecf16d79d0f8dbfb92cbc07fe17840425976cf0667f022fe9877caa831b08a2646970667358221220b179403ae5a2781eafa11d6a94b83c30b9ce5b1dab503018624c5134f42c138464736f6c63430008110033",
  "linkReferences": {},
  "deployedLinkReferences": {}
}