{
  "_format": "hh-sol-artifact-1",
  "contractName": "VaultReward",
  "sourceName": "contracts/vault/VaultReward.sol",
  "abi": [
    {
      "anonymous": false,
      "inputs": [
        {
          "indexed": false,
          "internalType": "address",
          "name": "account",
          "type": "address"
        },
        {
          "indexed": false,
          "internalType": "uint256",
          "name": "amount",
          "type": "uint256"
        }
      ],
      "name": "Harvest",
      "type": "event"
    },
    {
      "anonymous": false,
      "inputs": [
        {
          "indexed": false,
          "internalType": "uint8",
          "name": "version",
          "type": "uint8"
        }
      ],
      "name": "Initialized",
      "type": "event"
    },
    {
      "anonymous": false,
      "inputs": [
        {
          "indexed": false,
          "internalType": "uint256",
          "name": "supply",
          "type": "uint256"
        },
        {
          "indexed": false,
          "internalType": "uint256",
          "name": "cumulativeRewardPerToken",
          "type": "uint256"
        }
      ],
      "name": "LogUpdatePool",
      "type": "event"
    },
    {
      "anonymous": false,
      "inputs": [
        {
          "indexed": true,
          "internalType": "address",
          "name": "previousOwner",
          "type": "address"
        },
        {
          "indexed": true,
          "internalType": "address",
          "name": "newOwner",
          "type": "address"
        }
      ],
      "name": "OwnershipTransferred",
      "type": "event"
    },
    {
      "anonymous": false,
      "inputs": [
        {
          "indexed": true,
          "internalType": "bytes32",
          "name": "role",
          "type": "bytes32"
        },
        {
          "indexed": true,
          "internalType": "bytes32",
          "name": "previousAdminRole",
          "type": "bytes32"
        },
        {
          "indexed": true,
          "internalType": "bytes32",
          "name": "newAdminRole",
          "type": "bytes32"
        }
      ],
      "name": "RoleAdminChanged",
      "type": "event"
    },
    {
      "anonymous": false,
      "inputs": [
        {
          "indexed": true,
          "internalType": "bytes32",
          "name": "role",
          "type": "bytes32"
        },
        {
          "indexed": true,
          "internalType": "address",
          "name": "account",
          "type": "address"
        },
        {
          "indexed": true,
          "internalType": "address",
          "name": "sender",
          "type": "address"
        }
      ],
      "name": "RoleGranted",
      "type": "event"
    },
    {
      "anonymous": false,
      "inputs": [
        {
          "indexed": true,
          "internalType": "bytes32",
          "name": "role",
          "type": "bytes32"
        },
        {
          "indexed": true,
          "internalType": "address",
          "name": "account",
          "type": "address"
        },
        {
          "indexed": true,
          "internalType": "address",
          "name": "sender",
          "type": "address"
        }
      ],
      "name": "RoleRevoked",
      "type": "event"
    },
    {
      "inputs": [],
      "name": "DEFAULT_ADMIN_ROLE",
      "outputs": [
        {
          "internalType": "bytes32",
          "name": "",
          "type": "bytes32"
        }
      ],
      "stateMutability": "view",
      "type": "function"
    },
    {
      "inputs": [],
      "name": "PRECISION",
      "outputs": [
        {
          "internalType": "uint256",
          "name": "",
          "type": "uint256"
        }
      ],
      "stateMutability": "view",
      "type": "function"
    },
    {
      "inputs": [],
      "name": "apr",
      "outputs": [
        {
          "internalType": "uint256",
          "name": "",
          "type": "uint256"
        }
      ],
      "stateMutability": "view",
      "type": "function"
    },
    {
      "inputs": [
        {
          "internalType": "address",
          "name": "",
          "type": "address"
        }
      ],
      "name": "averageStakedAmounts",
      "outputs": [
        {
          "internalType": "uint256",
          "name": "",
          "type": "uint256"
        }
      ],
      "stateMutability": "view",
      "type": "function"
    },
    {
      "inputs": [
        {
          "internalType": "contract IERC4626",
          "name": "vault",
          "type": "address"
        },
        {
          "internalType": "address",
          "name": "to",
          "type": "address"
        },
        {
          "internalType": "uint256",
          "name": "amount",
          "type": "uint256"
        },
        {
          "internalType": "uint256",
          "name": "minSharesOut",
          "type": "uint256"
        }
      ],
      "name": "buy",
      "outputs": [
        {
          "internalType": "uint256",
          "name": "sharesOut",
          "type": "uint256"
        }
      ],
      "stateMutability": "nonpayable",
      "type": "function"
    },
    {
      "inputs": [
        {
          "internalType": "contract ICoreVault",
          "name": "vault",
          "type": "address"
        }
      ],
      "name": "buyLpFee",
      "outputs": [
        {
          "internalType": "uint256",
          "name": "",
          "type": "uint256"
        }
      ],
      "stateMutability": "view",
      "type": "function"
    },
    {
      "inputs": [],
      "name": "claimLPReward",
      "outputs": [],
      "stateMutability": "nonpayable",
      "type": "function"
    },
    {
      "inputs": [
        {
          "internalType": "address",
          "name": "_account",
          "type": "address"
        }
      ],
      "name": "claimable",
      "outputs": [
        {
          "internalType": "uint256",
          "name": "",
          "type": "uint256"
        }
      ],
      "stateMutability": "view",
      "type": "function"
    },
    {
      "inputs": [
        {
          "internalType": "address",
          "name": "",
          "type": "address"
        }
      ],
      "name": "claimableReward",
      "outputs": [
        {
          "internalType": "uint256",
          "name": "",
          "type": "uint256"
        }
      ],
      "stateMutability": "view",
      "type": "function"
    },
    {
      "inputs": [],
      "name": "coreVault",
      "outputs": [
        {
          "internalType": "contract ICoreVault",
          "name": "",
          "type": "address"
        }
      ],
      "stateMutability": "view",
      "type": "function"
    },
    {
      "inputs": [],
      "name": "cumulativeRewardPerToken",
      "outputs": [
        {
          "internalType": "uint256",
          "name": "",
          "type": "uint256"
        }
      ],
      "stateMutability": "view",
      "type": "function"
    },
    {
      "inputs": [],
      "name": "distributor",
      "outputs": [
        {
          "internalType": "address",
          "name": "",
          "type": "address"
        }
      ],
      "stateMutability": "view",
      "type": "function"
    },
    {
      "inputs": [],
      "name": "feeRouter",
      "outputs": [
        {
          "internalType": "contract IFeeRouter",
          "name": "",
          "type": "address"
        }
      ],
      "stateMutability": "view",
      "type": "function"
    },
    {
      "inputs": [],
      "name": "getAPR",
      "outputs": [
        {
          "internalType": "uint256",
          "name": "",
          "type": "uint256"
        }
      ],
      "stateMutability": "view",
      "type": "function"
    },
    {
      "inputs": [],
      "name": "getAUM",
      "outputs": [
        {
          "internalType": "uint256",
          "name": "",
          "type": "uint256"
        }
      ],
      "stateMutability": "view",
      "type": "function"
    },
    {
      "inputs": [],
      "name": "getLPPrice",
      "outputs": [
        {
          "internalType": "uint256",
          "name": "",
          "type": "uint256"
        }
      ],
      "stateMutability": "view",
      "type": "function"
    },
    {
      "inputs": [],
      "name": "getLPReward",
      "outputs": [
        {
          "internalType": "uint256",
          "name": "",
          "type": "uint256"
        }
      ],
      "stateMutability": "view",
      "type": "function"
    },
    {
      "inputs": [
        {
          "internalType": "bytes32",
          "name": "role",
          "type": "bytes32"
        }
      ],
      "name": "getRoleAdmin",
      "outputs": [
        {
          "internalType": "bytes32",
          "name": "",
          "type": "bytes32"
        }
      ],
      "stateMutability": "view",
      "type": "function"
    },
    {
      "inputs": [],
      "name": "getUSDBalance",
      "outputs": [
        {
          "internalType": "uint256",
          "name": "",
          "type": "uint256"
        }
      ],
      "stateMutability": "view",
      "type": "function"
    },
    {
      "inputs": [
        {
          "internalType": "address",
          "name": "_account",
          "type": "address"
        }
      ],
      "name": "grantControllerRoleByMarketManager",
      "outputs": [],
      "stateMutability": "nonpayable",
      "type": "function"
    },
    {
      "inputs": [
        {
          "internalType": "bytes32",
          "name": "role",
          "type": "bytes32"
        },
        {
          "internalType": "address",
          "name": "account",
          "type": "address"
        }
      ],
      "name": "grantRole",
      "outputs": [],
      "stateMutability": "nonpayable",
      "type": "function"
    },
    {
      "inputs": [
        {
          "internalType": "bytes32",
          "name": "role",
          "type": "bytes32"
        },
        {
          "internalType": "address",
          "name": "account",
          "type": "address"
        }
      ],
      "name": "hasRole",
      "outputs": [
        {
          "internalType": "bool",
          "name": "",
          "type": "bool"
        }
      ],
      "stateMutability": "view",
      "type": "function"
    },
    {
      "inputs": [
        {
          "internalType": "address",
          "name": "_coreVault",
          "type": "address"
        },
        {
          "internalType": "address",
          "name": "_vaultRouter",
          "type": "address"
        },
        {
          "internalType": "address",
          "name": "_feeRouter",
          "type": "address"
        },
        {
          "internalType": "address",
          "name": "_distributor",
          "type": "address"
        }
      ],
      "name": "initialize",
      "outputs": [],
      "stateMutability": "nonpayable",
      "type": "function"
    },
    {
      "inputs": [
        {
          "internalType": "address",
          "name": "",
          "type": "address"
        }
      ],
      "name": "lpEarnedRewards",
      "outputs": [
        {
          "internalType": "uint256",
          "name": "",
          "type": "uint256"
        }
      ],
      "stateMutability": "view",
      "type": "function"
    },
    {
      "inputs": [],
      "name": "owner",
      "outputs": [
        {
          "internalType": "address",
          "name": "",
          "type": "address"
        }
      ],
      "stateMutability": "view",
      "type": "function"
    },
    {
      "inputs": [],
      "name": "pendingRewards",
      "outputs": [
        {
          "internalType": "uint256",
          "name": "",
          "type": "uint256"
        }
      ],
      "stateMutability": "view",
      "type": "function"
    },
    {
      "inputs": [
        {
          "internalType": "uint256",
          "name": "assets",
          "type": "uint256"
        }
      ],
      "name": "previewDeposit",
      "outputs": [
        {
          "internalType": "uint256",
          "name": "",
          "type": "uint256"
        }
      ],
      "stateMutability": "view",
      "type": "function"
    },
    {
      "inputs": [
        {
          "internalType": "uint256",
          "name": "shares",
          "type": "uint256"
        }
      ],
      "name": "previewMint",
      "outputs": [
        {
          "internalType": "uint256",
          "name": "",
          "type": "uint256"
        }
      ],
      "stateMutability": "view",
      "type": "function"
    },
    {
      "inputs": [
        {
          "internalType": "uint256",
          "name": "shares",
          "type": "uint256"
        }
      ],
      "name": "previewRedeem",
      "outputs": [
        {
          "internalType": "uint256",
          "name": "",
          "type": "uint256"
        }
      ],
      "stateMutability": "view",
      "type": "function"
    },
    {
      "inputs": [
        {
          "internalType": "uint256",
          "name": "assets",
          "type": "uint256"
        }
      ],
      "name": "previewWithdraw",
      "outputs": [
        {
          "internalType": "uint256",
          "name": "",
          "type": "uint256"
        }
      ],
      "stateMutability": "view",
      "type": "function"
    },
    {
      "inputs": [
        {
          "internalType": "address",
          "name": "",
          "type": "address"
        }
      ],
      "name": "previousCumulatedRewardPerToken",
      "outputs": [
        {
          "internalType": "uint256",
          "name": "",
          "type": "uint256"
        }
      ],
      "stateMutability": "view",
      "type": "function"
    },
    {
      "inputs": [],
      "name": "priceDecimals",
      "outputs": [
        {
          "internalType": "uint256",
          "name": "",
          "type": "uint256"
        }
      ],
      "stateMutability": "view",
      "type": "function"
    },
    {
      "inputs": [],
      "name": "renounceOwnership",
      "outputs": [],
      "stateMutability": "nonpayable",
      "type": "function"
    },
    {
      "inputs": [
        {
          "internalType": "bytes32",
          "name": "role",
          "type": "bytes32"
        },
        {
          "internalType": "address",
          "name": "account",
          "type": "address"
        }
      ],
      "name": "renounceRole",
      "outputs": [],
      "stateMutability": "nonpayable",
      "type": "function"
    },
    {
      "inputs": [
        {
          "internalType": "bytes32",
          "name": "role",
          "type": "bytes32"
        },
        {
          "internalType": "address",
          "name": "account",
          "type": "address"
        }
      ],
      "name": "revokeRole",
      "outputs": [],
      "stateMutability": "nonpayable",
      "type": "function"
    },
    {
      "inputs": [],
      "name": "rewardToken",
      "outputs": [
        {
          "internalType": "address",
          "name": "",
          "type": "address"
        }
      ],
      "stateMutability": "view",
      "type": "function"
    },
    {
      "inputs": [
        {
          "internalType": "contract IERC4626",
          "name": "vault",
          "type": "address"
        },
        {
          "internalType": "address",
          "name": "to",
          "type": "address"
        },
        {
          "internalType": "uint256",
          "name": "shares",
          "type": "uint256"
        },
        {
          "internalType": "uint256",
          "name": "minAssetsOut",
          "type": "uint256"
        }
      ],
      "name": "sell",
      "outputs": [
        {
          "internalType": "uint256",
          "name": "assetOut",
          "type": "uint256"
        }
      ],
      "stateMutability": "nonpayable",
      "type": "function"
    },
    {
      "inputs": [
        {
          "internalType": "contract ICoreVault",
          "name": "vault",
          "type": "address"
        }
      ],
      "name": "sellLpFee",
      "outputs": [
        {
          "internalType": "uint256",
          "name": "",
          "type": "uint256"
        }
      ],
      "stateMutability": "view",
      "type": "function"
    },
    {
      "inputs": [
        {
          "internalType": "uint256",
          "name": "_apr",
          "type": "uint256"
        }
      ],
      "name": "setAPR",
      "outputs": [],
      "stateMutability": "nonpayable",
      "type": "function"
    },
    {
      "inputs": [
        {
          "internalType": "bytes4",
          "name": "interfaceId",
          "type": "bytes4"
        }
      ],
      "name": "supportsInterface",
      "outputs": [
        {
          "internalType": "bool",
          "name": "",
          "type": "bool"
        }
      ],
      "stateMutability": "view",
      "type": "function"
    },
    {
      "inputs": [],
      "name": "tokensPerInterval",
      "outputs": [
        {
          "internalType": "uint256",
          "name": "",
          "type": "uint256"
        }
      ],
      "stateMutability": "view",
      "type": "function"
    },
    {
      "inputs": [
        {
          "internalType": "address",
          "name": "to",
          "type": "address"
        }
      ],
      "name": "transferAdmin",
      "outputs": [],
      "stateMutability": "nonpayable",
      "type": "function"
    },
    {
      "inputs": [
        {
          "internalType": "address",
          "name": "newOwner",
          "type": "address"
        }
      ],
      "name": "transferOwnership",
      "outputs": [],
      "stateMutability": "nonpayable",
      "type": "function"
    },
    {
      "inputs": [],
      "name": "updateRewards",
      "outputs": [],
      "stateMutability": "nonpayable",
      "type": "function"
    },
    {
      "inputs": [
        {
          "internalType": "address",
          "name": "_account",
          "type": "address"
        }
      ],
      "name": "updateRewardsByAccount",
      "outputs": [],
      "stateMutability": "nonpayable",
      "type": "function"
    },
    {
      "inputs": [],
      "name": "vaultRouter",
      "outputs": [
        {
          "internalType": "contract IVaultRouter",
          "name": "",
          "type": "address"
        }
      ],
      "stateMutability": "view",
      "type": "function"
    }
  ],
  "bytecode": "0x608060405234801561001057600080fd5b5061001a33610024565b6001600355610076565b600180546001600160a01b038381166001600160a01b0319831681179093556040519116919082907f8be0079c531659141344cd1fd0a4f28419497f9722a3daafe3b4186f6b6457e090600090a35050565b6122f7806100856000396000f3fe608060405234801561001057600080fd5b506004361061028a5760003560e01c8063a31802171161015c578063d53b26ee116100ce578063ef8b30f711610087578063ef8b30f714610579578063f29ebf611461058c578063f2fde38b1461059f578063f5fc5076146105b2578063f7c618c1146105bb578063f8c8765e146105c357600080fd5b8063d53b26ee14610510578063d547741f14610523578063e547bb9114610536578063e95034251461053e578063eb4fe8181461055e578063eded3fda1461057157600080fd5b8063b3d7f6b911610120578063b3d7f6b9146104bf578063b77905ae146104d2578063bfe10928146104da578063c1201054146104ed578063c89d5b8b146104f5578063d37c441c146104fd57600080fd5b8063a318021714610450578063a8d9362714610470578063a9d424e214610478578063aaf5eb681461048b578063ae8bcdf81461049f57600080fd5b80634cdad506116102005780637fe4a698116101b95780637fe4a698146103f6578063854303cf146104095780638da5cb5b1461041c5780638f089d651461042d57806391d1485414610435578063a217fddf1461044857600080fd5b80634cdad5061461038c57806357ded9c91461039f578063674ce1b5146103a85780636dc7b0a1146103d3578063715018a6146103db57806375829def146103e357600080fd5b80632f2ff15d116102525780632f2ff15d1461031857806331de7d151461032b57806336568abe1461033e5780633e158b0c14610351578063402914f51461035957806344a084111461036c57600080fd5b806301ffc9a71461028f57806305300b28146102b75780630a28a477146102cd5780631ee2b0b2146102e0578063248a9ca3146102f5575b600080fd5b6102a261029d366004611e92565b6105d6565b60405190151581526020015b60405180910390f35b6102bf61060d565b6040519081526020016102ae565b6102bf6102db366004611ebc565b61067f565b6102f36102ee366004611eea565b6106ee565b005b6102bf610303366004611ebc565b60009081526020819052604090206001015490565b6102f3610326366004611f07565b6109e7565b6102bf610339366004611f37565b610a11565b6102f361034c366004611f07565b610af7565b6102f3610b75565b6102bf610367366004611eea565b610b93565b6102bf61037a366004611eea565b600a6020526000908152604090205481565b6102bf61039a366004611ebc565b610d52565b6102bf60095481565b6005546103bb906001600160a01b031681565b6040516001600160a01b0390911681526020016102ae565b6102bf610d84565b6102f3610dce565b6102f36103f1366004611eea565b610de0565b6102f3610404366004611eea565b610e0a565b6102f3610417366004611ebc565b610e34565b6001546001600160a01b03166103bb565b6102bf610e64565b6102a2610443366004611f07565b610ea6565b6102bf600081565b6102bf61045e366004611eea565b600d6020526000908152604090205481565b6102bf610ecf565b6102bf610486366004611f37565b610f19565b6102bf6c0c9f2c9cd04674edea4000000081565b6102bf6104ad366004611eea565b600b6020526000908152604090205481565b6102bf6104cd366004611ebc565b6110d9565b6102bf61110b565b6008546103bb906001600160a01b031681565b6102bf61125f565b6009546102bf565b6006546103bb906001600160a01b031681565b6102bf61051e366004611eea565b6112a9565b6102f3610531366004611f07565b6112e9565b6102f361130e565b6102bf61054c366004611eea565b600c6020526000908152604090205481565b6102bf61056c366004611eea565b611445565b6102bf611485565b6102bf610587366004611ebc565b611490565b6004546103bb906001600160a01b031681565b6102f36105ad366004611eea565b6114c2565b6102bf60075481565b6103bb61153b565b6102f36105d1366004611f7d565b6115a9565b60006001600160e01b03198216637965db0b60e01b148061060757506301ffc9a760e01b6001600160e01b03198316145b92915050565b6006546040805162a6016560e31b815290516000926001600160a01b0316916305300b289160048083019260209291908290030181865afa158015610656573d6000803e3d6000fd5b505050506040513d601f19601f8201168201806040525081019061067a9190611fd9565b905090565b600554604051630a28a47760e01b8152600481018390526000916001600160a01b031690630a28a477906024015b602060405180830381865afa1580156106ca573d6000803e3d6000fd5b505050506040513d601f19601f820116820180604052508101906106079190611fd9565b6008546040805163e4fc6b6d60e01b815290516000926001600160a01b03169163e4fc6b6d916004808301926020929190829003018187875af1158015610739573d6000803e3d6000fd5b505050506040513d601f19601f8201168201806040525081019061075d9190611fd9565b90506000600560009054906101000a90046001600160a01b03166001600160a01b03166318160ddd6040518163ffffffff1660e01b8152600401602060405180830381865afa1580156107b4573d6000803e3d6000fd5b505050506040513d601f19601f820116820180604052508101906107d89190611fd9565b60075490915081158015906107ed5750600083115b15610860578161080a6c0c9f2c9cd04674edea4000000085612008565b610814919061201f565b61081e9082612041565b600781905560408051848152602081018390529192507f055418cabed8a0ec732dd9b1f84e69d3f33a8f9a70d721b7a6962a00c26a4572910160405180910390a15b8060000361086e5750505050565b6001600160a01b038416156109e15760006108888561176c565b6001600160a01b0386166000908152600a6020526040812054919250906c0c9f2c9cd04674edea40000000906108be9085612054565b6108c89084612008565b6108d2919061201f565b6001600160a01b0387166000908152600c6020526040812054919250906108fa908390612041565b6001600160a01b0388166000908152600c60209081526040808320849055600a90915290208590559050801580159061093b575060006109398861176c565b115b156109dd576001600160a01b0387166000908152600b6020526040812054610964908490612041565b90506109b761097d82610977878761179f565b906117b2565b6001600160a01b038a166000908152600b6020908152604080832054600d909252909120546109b19185916109779161179f565b906117be565b6001600160a01b0389166000908152600d6020908152604080832093909355600b905220555b5050505b50505050565b600082815260208190526040902060010154610a02816117ca565b610a0c83836117d4565b505050565b6000610a1b611858565b610a24336106ee565b604051635d043b2960e11b8152600481018490526001600160a01b0385811660248301819052604483015283919087169063ba087652906064016020604051808303816000875af1158015610a7d573d6000803e3d6000fd5b505050506040513d601f19601f82011682018060405250810190610aa19190611fd9565b9150811015610ae55760405162461bcd60e51b815260206004820152600b60248201526a26b4b727baba22b93937b960a91b60448201526064015b60405180910390fd5b610aef6001600355565b949350505050565b6001600160a01b0381163314610b675760405162461bcd60e51b815260206004820152602f60248201527f416363657373436f6e74726f6c3a2063616e206f6e6c792072656e6f756e636560448201526e103937b632b9903337b91039b2b63360891b6064820152608401610adc565b610b7182826118b1565b5050565b610b7d611858565b610b8760006106ee565b610b916001600355565b565b600080610b9f8361176c565b905080600003610bc65750506001600160a01b03166000908152600c602052604090205490565b600554604080516318160ddd60e01b815290516000926001600160a01b0316916318160ddd9160048083019260209291908290030181865afa158015610c10573d6000803e3d6000fd5b505050506040513d601f19601f82011682018060405250810190610c349190611fd9565b90506000610cc66c0c9f2c9cd04674edea40000000600860009054906101000a90046001600160a01b03166001600160a01b031663eded3fda6040518163ffffffff1660e01b8152600401602060405180830381865afa158015610c9c573d6000803e3d6000fd5b505050506040513d601f19601f82011682018060405250810190610cc09190611fd9565b9061179f565b90506000610ce0610cd783856117b2565b600754906117be565b6001600160a01b0387166000908152600a6020526040902054909150610d4890610d29906c0c9f2c9cd04674edea400000009061097790610d22908690611916565b889061179f565b6001600160a01b0388166000908152600c6020526040902054906117be565b9695505050505050565b60055460405163266d6a8360e11b8152600481018390526000916001600160a01b031690634cdad506906024016106ad565b60065460408051636dc7b0a160e01b815290516000926001600160a01b031691636dc7b0a19160048083019260209291908290030181865afa158015610656573d6000803e3d6000fd5b610dd6611922565b610b91600061197c565b6000610deb816117ca565b610df66000836119ce565b610dff8261197c565b610b716000336118b1565b7f8d1089725c0dc266707fa6207730fb801dcd03108bfed7a21099bd303651d2b761028a816117ca565b7fcb6bc1c12dd43bca8d7dd46d975f913325437d0dcd5978e99d515e4ad39b9772610e5e816117ca565b50600955565b336000908152600b60205260408120548103610e805750600090565b336000908152600c6020908152604080832054600b9092529091205461067a9190612054565b6000918252602082815260408084206001600160a01b0393909316845291905290205460ff1690565b6008546040805163a8d9362760e01b815290516000926001600160a01b03169163a8d936279160048083019260209291908290030181865afa158015610656573d6000803e3d6000fd5b6000610f23611858565b610f2c336106ee565b6000856001600160a01b03166338d52e0f6040518163ffffffff1660e01b8152600401602060405180830381865afa158015610f6c573d6000803e3d6000fd5b505050506040513d601f19601f82011682018060405250810190610f909190612067565b9050610f9e813330876119d8565b60055460405163095ea7b360e01b81526001600160a01b039182166004820152602481018690529082169063095ea7b3906044016020604051808303816000875af1158015610ff1573d6000803e3d6000fd5b505050506040513d601f19601f820116820180604052508101906110159190612084565b50604051636e553f6560e01b8152600481018590526001600160a01b038681166024830152849190881690636e553f65906044016020604051808303816000875af1158015611068573d6000803e3d6000fd5b505050506040513d601f19601f8201168201806040525081019061108c9190611fd9565b92508210156110ce5760405162461bcd60e51b815260206004820152600e60248201526d26b4b729b430b932b9a2b93937b960911b6044820152606401610adc565b50610aef6001600355565b60055460405163b3d7f6b960e01b8152600481018390526000916001600160a01b03169063b3d7f6b9906024016106ad565b600080600560009054906101000a90046001600160a01b03166001600160a01b03166301e1d1146040518163ffffffff1660e01b8152600401602060405180830381865afa158015611161573d6000803e3d6000fd5b505050506040513d601f19601f820116820180604052508101906111859190611fd9565b90506000600560009054906101000a90046001600160a01b03166001600160a01b03166318160ddd6040518163ffffffff1660e01b8152600401602060405180830381865afa1580156111dc573d6000803e3d6000fd5b505050506040513d601f19601f820116820180604052508101906112009190611fd9565b905081158061120d575080155b156112375761121a61060d565b61122590600a61218a565b611230906001612008565b9250505090565b8061124061060d565b61124b90600a61218a565b6112559084612008565b611230919061201f565b60065460408051633048041560e21b815290516000926001600160a01b03169163c12010549160048083019260209291908290030181865afa158015610656573d6000803e3d6000fd5b6000816001600160a01b0316636fd3acb46040518163ffffffff1660e01b8152600401602060405180830381865afa1580156106ca573d6000803e3d6000fd5b600082815260208190526040902060010154611304816117ca565b610a0c83836118b1565b611316611858565b6005546040516370a0823160e01b81523360048201526000916001600160a01b0316906370a0823190602401602060405180830381865afa15801561135f573d6000803e3d6000fd5b505050506040513d601f19601f820116820180604052508101906113839190611fd9565b116113bc5760405162461bcd60e51b81526020600482015260096024820152680796f756e2774204c560bc1b6044820152606401610adc565b336113c6816106ee565b6001600160a01b0381166000908152600c60205260408120805491905561140033826113f061153b565b6001600160a01b03169190611a43565b60408051338152602081018390527fc9695243a805adb74c91f28311176c65b417e842d5699893cef56d18bfa48cba910160405180910390a15050610b916001600355565b6000816001600160a01b031663c7b8b46d6040518163ffffffff1660e01b8152600401602060405180830381865afa1580156106ca573d6000803e3d6000fd5b600061067a33610b93565b60055460405163ef8b30f760e01b8152600481018390526000916001600160a01b03169063ef8b30f7906024016106ad565b6114ca611922565b6001600160a01b03811661152f5760405162461bcd60e51b815260206004820152602660248201527f4f776e61626c653a206e6577206f776e657220697320746865207a65726f206160448201526564647265737360d01b6064820152608401610adc565b6115388161197c565b50565b600554604080516338d52e0f60e01b815290516000926001600160a01b0316916338d52e0f9160048083019260209291908290030181865afa158015611585573d6000803e3d6000fd5b505050506040513d601f19601f8201168201806040525081019061067a9190612067565b600154600160a81b900460ff16158080156115cf575060018054600160a01b900460ff16105b806115ef5750303b1580156115ef575060018054600160a01b900460ff16145b6116525760405162461bcd60e51b815260206004820152602e60248201527f496e697469616c697a61626c653a20636f6e747261637420697320616c72656160448201526d191e481a5b9a5d1a585b1a5e995960921b6064820152608401610adc565b6001805460ff60a01b1916600160a01b179055801561167f576001805460ff60a81b1916600160a81b1790555b6001600160a01b03851661169257600080fd5b6001600160a01b0384166116a557600080fd5b6001600160a01b0383166116b857600080fd5b6001600160a01b0382166116cb57600080fd5b6116d433611a73565b600680546001600160a01b038087166001600160a01b031992831617909255600580548884169083161790556004805486841690831617905560088054928516929091169190911790558015611765576001805460ff60a81b191681556040519081527f7f26b83ff96e1f2b6a682f133852f6798a09c465da95921460cefb38474024989060200160405180910390a15b5050505050565b6005546040516370a0823160e01b81526001600160a01b03838116600483015260009216906370a08231906024016106ad565b60006117ab8284612008565b9392505050565b60006117ab828461201f565b60006117ab8284612041565b6115388133611a96565b6117de8282610ea6565b610b71576000828152602081815260408083206001600160a01b03851684529091529020805460ff191660011790556118143390565b6001600160a01b0316816001600160a01b0316837f2f8788117e7eff1d82e926ec794901d17c78024a50270940304540a733656f0d60405160405180910390a45050565b6002600354036118aa5760405162461bcd60e51b815260206004820152601f60248201527f5265656e7472616e637947756172643a207265656e7472616e742063616c6c006044820152606401610adc565b6002600355565b6118bb8282610ea6565b15610b71576000828152602081815260408083206001600160a01b0385168085529252808320805460ff1916905551339285917ff6391f5c32d9c69d2a47ea670b442974b53935d1edc7fd64eb21e047a839171b9190a45050565b60006117ab8284612054565b6001546001600160a01b03163314610b915760405162461bcd60e51b815260206004820181905260248201527f4f776e61626c653a2063616c6c6572206973206e6f7420746865206f776e65726044820152606401610adc565b600180546001600160a01b038381166001600160a01b0319831681179093556040519116919082907f8be0079c531659141344cd1fd0a4f28419497f9722a3daafe3b4186f6b6457e090600090a35050565b610b7182826117d4565b6040516001600160a01b03808516602483015283166044820152606481018290526109e19085906323b872dd60e01b906084015b60408051601f198184030181529190526020810180516001600160e01b03166001600160e01b031990931692909217909152611aef565b6040516001600160a01b038316602482015260448101829052610a0c90849063a9059cbb60e01b90606401611a0c565b42600255611a803361197c565b611a8b6000336119ce565b6115386000826119ce565b611aa08282610ea6565b610b7157611aad81611bc1565b611ab8836020611bd3565b604051602001611ac99291906121ba565b60408051601f198184030181529082905262461bcd60e51b8252610adc9160040161222f565b6000611b44826040518060400160405280602081526020017f5361666545524332303a206c6f772d6c6576656c2063616c6c206661696c6564815250856001600160a01b0316611d6f9092919063ffffffff16565b805190915015610a0c5780806020019051810190611b629190612084565b610a0c5760405162461bcd60e51b815260206004820152602a60248201527f5361666545524332303a204552433230206f7065726174696f6e20646964206e6044820152691bdd081cdd58d8d9595960b21b6064820152608401610adc565b60606106076001600160a01b03831660145b60606000611be2836002612008565b611bed906002612041565b67ffffffffffffffff811115611c0557611c05612262565b6040519080825280601f01601f191660200182016040528015611c2f576020820181803683370190505b509050600360fc1b81600081518110611c4a57611c4a612278565b60200101906001600160f81b031916908160001a905350600f60fb1b81600181518110611c7957611c79612278565b60200101906001600160f81b031916908160001a9053506000611c9d846002612008565b611ca8906001612041565b90505b6001811115611d20576f181899199a1a9b1b9c1cb0b131b232b360811b85600f1660108110611cdc57611cdc612278565b1a60f81b828281518110611cf257611cf2612278565b60200101906001600160f81b031916908160001a90535060049490941c93611d198161228e565b9050611cab565b5083156117ab5760405162461bcd60e51b815260206004820181905260248201527f537472696e67733a20686578206c656e67746820696e73756666696369656e746044820152606401610adc565b6060610aef848460008585600080866001600160a01b03168587604051611d9691906122a5565b60006040518083038185875af1925050503d8060008114611dd3576040519150601f19603f3d011682016040523d82523d6000602084013e611dd8565b606091505b5091509150611de987838387611df4565b979650505050505050565b60608315611e63578251600003611e5c576001600160a01b0385163b611e5c5760405162461bcd60e51b815260206004820152601d60248201527f416464726573733a2063616c6c20746f206e6f6e2d636f6e74726163740000006044820152606401610adc565b5081610aef565b610aef8383815115611e785781518083602001fd5b8060405162461bcd60e51b8152600401610adc919061222f565b600060208284031215611ea457600080fd5b81356001600160e01b0319811681146117ab57600080fd5b600060208284031215611ece57600080fd5b5035919050565b6001600160a01b038116811461153857600080fd5b600060208284031215611efc57600080fd5b81356117ab81611ed5565b60008060408385031215611f1a57600080fd5b823591506020830135611f2c81611ed5565b809150509250929050565b60008060008060808587031215611f4d57600080fd5b8435611f5881611ed5565b93506020850135611f6881611ed5565b93969395505050506040820135916060013590565b60008060008060808587031215611f9357600080fd5b8435611f9e81611ed5565b93506020850135611fae81611ed5565b92506040850135611fbe81611ed5565b91506060850135611fce81611ed5565b939692955090935050565b600060208284031215611feb57600080fd5b5051919050565b634e487b7160e01b600052601160045260246000fd5b808202811582820484141761060757610607611ff2565b60008261203c57634e487b7160e01b600052601260045260246000fd5b500490565b8082018082111561060757610607611ff2565b8181038181111561060757610607611ff2565b60006020828403121561207957600080fd5b81516117ab81611ed5565b60006020828403121561209657600080fd5b815180151581146117ab57600080fd5b600181815b808511156120e15781600019048211156120c7576120c7611ff2565b808516156120d457918102915b93841c93908002906120ab565b509250929050565b6000826120f857506001610607565b8161210557506000610607565b816001811461211b576002811461212557612141565b6001915050610607565b60ff84111561213657612136611ff2565b50506001821b610607565b5060208310610133831016604e8410600b8410161715612164575081810a610607565b61216e83836120a6565b806000190482111561218257612182611ff2565b029392505050565b60006117ab83836120e9565b60005b838110156121b1578181015183820152602001612199565b50506000910152565b7f416363657373436f6e74726f6c3a206163636f756e74200000000000000000008152600083516121f2816017850160208801612196565b7001034b99036b4b9b9b4b733903937b6329607d1b6017918401918201528351612223816028840160208801612196565b01602801949350505050565b602081526000825180602084015261224e816040850160208701612196565b601f01601f19169190910160400192915050565b634e487b7160e01b600052604160045260246000fd5b634e487b7160e01b600052603260045260246000fd5b60008161229d5761229d611ff2565b506000190190565b600082516122b7818460208701612196565b919091019291505056fea2646970667358221220870497d83de849b3052dc7faa69e3405b38bd40698bcc92dc17ffd1d9cd2997a64736f6c63430008110033",
  "linkReferences": {},
  "deployedLinkReferences": {}
}