{
  "_format": "hh-sol-artifact-1",
  "contractName": "VaultReward",
  "sourceName": "contracts/vault/VaultReward.sol",
  "abi": [
    {
      "anonymous": false,
      "inputs": [
        {
          "indexed": false,
          "internalType": "address",
          "name": "account",
          "type": "address"
        },
        {
          "indexed": false,
          "internalType": "uint256",
          "name": "amount",
          "type": "uint256"
        }
      ],
      "name": "Harvest",
      "type": "event"
    },
    {
      "anonymous": false,
      "inputs": [
        {
          "indexed": false,
          "internalType": "uint8",
          "name": "version",
          "type": "uint8"
        }
      ],
      "name": "Initialized",
      "type": "event"
    },
    {
      "anonymous": false,
      "inputs": [
        {
          "indexed": false,
          "internalType": "uint256",
          "name": "supply",
          "type": "uint256"
        },
        {
          "indexed": false,
          "internalType": "uint256",
          "name": "cumulativeRewardPerToken",
          "type": "uint256"
        }
      ],
      "name": "LogUpdatePool",
      "type": "event"
    },
    {
      "anonymous": false,
      "inputs": [
        {
          "indexed": true,
          "internalType": "address",
          "name": "previousOwner",
          "type": "address"
        },
        {
          "indexed": true,
          "internalType": "address",
          "name": "newOwner",
          "type": "address"
        }
      ],
      "name": "OwnershipTransferred",
      "type": "event"
    },
    {
      "anonymous": false,
      "inputs": [
        {
          "indexed": true,
          "internalType": "bytes32",
          "name": "role",
          "type": "bytes32"
        },
        {
          "indexed": true,
          "internalType": "bytes32",
          "name": "previousAdminRole",
          "type": "bytes32"
        },
        {
          "indexed": true,
          "internalType": "bytes32",
          "name": "newAdminRole",
          "type": "bytes32"
        }
      ],
      "name": "RoleAdminChanged",
      "type": "event"
    },
    {
      "anonymous": false,
      "inputs": [
        {
          "indexed": true,
          "internalType": "bytes32",
          "name": "role",
          "type": "bytes32"
        },
        {
          "indexed": true,
          "internalType": "address",
          "name": "account",
          "type": "address"
        },
        {
          "indexed": true,
          "internalType": "address",
          "name": "sender",
          "type": "address"
        }
      ],
      "name": "RoleGranted",
      "type": "event"
    },
    {
      "anonymous": false,
      "inputs": [
        {
          "indexed": true,
          "internalType": "bytes32",
          "name": "role",
          "type": "bytes32"
        },
        {
          "indexed": true,
          "internalType": "address",
          "name": "account",
          "type": "address"
        },
        {
          "indexed": true,
          "internalType": "address",
          "name": "sender",
          "type": "address"
        }
      ],
      "name": "RoleRevoked",
      "type": "event"
    },
    {
      "inputs": [],
      "name": "DEFAULT_ADMIN_ROLE",
      "outputs": [
        {
          "internalType": "bytes32",
          "name": "",
          "type": "bytes32"
        }
      ],
      "stateMutability": "view",
      "type": "function"
    },
    {
      "inputs": [],
      "name": "PRECISION",
      "outputs": [
        {
          "internalType": "uint256",
          "name": "",
          "type": "uint256"
        }
      ],
      "stateMutability": "view",
      "type": "function"
    },
    {
      "inputs": [],
      "name": "apr",
      "outputs": [
        {
          "internalType": "uint256",
          "name": "",
          "type": "uint256"
        }
      ],
      "stateMutability": "view",
      "type": "function"
    },
    {
      "inputs": [
        {
          "internalType": "address",
          "name": "",
          "type": "address"
        }
      ],
      "name": "averageStakedAmounts",
      "outputs": [
        {
          "internalType": "uint256",
          "name": "",
          "type": "uint256"
        }
      ],
      "stateMutability": "view",
      "type": "function"
    },
    {
      "inputs": [
        {
          "internalType": "contract IERC4626",
          "name": "vault",
          "type": "address"
        },
        {
          "internalType": "address",
          "name": "to",
          "type": "address"
        },
        {
          "internalType": "uint256",
          "name": "amount",
          "type": "uint256"
        },
        {
          "internalType": "uint256",
          "name": "minSharesOut",
          "type": "uint256"
        }
      ],
      "name": "buy",
      "outputs": [
        {
          "internalType": "uint256",
          "name": "sharesOut",
          "type": "uint256"
        }
      ],
      "stateMutability": "nonpayable",
      "type": "function"
    },
    {
      "inputs": [
        {
          "internalType": "contract ICoreVault",
          "name": "vault",
          "type": "address"
        }
      ],
      "name": "buyLpFee",
      "outputs": [
        {
          "internalType": "uint256",
          "name": "",
          "type": "uint256"
        }
      ],
      "stateMutability": "view",
      "type": "function"
    },
    {
      "inputs": [],
      "name": "claimLPReward",
      "outputs": [],
      "stateMutability": "nonpayable",
      "type": "function"
    },
    {
      "inputs": [
        {
          "internalType": "address",
          "name": "_account",
          "type": "address"
        }
      ],
      "name": "claimable",
      "outputs": [
        {
          "internalType": "uint256",
          "name": "",
          "type": "uint256"
        }
      ],
      "stateMutability": "view",
      "type": "function"
    },
    {
      "inputs": [
        {
          "internalType": "address",
          "name": "",
          "type": "address"
        }
      ],
      "name": "claimableReward",
      "outputs": [
        {
          "internalType": "uint256",
          "name": "",
          "type": "uint256"
        }
      ],
      "stateMutability": "view",
      "type": "function"
    },
    {
      "inputs": [],
      "name": "coreVault",
      "outputs": [
        {
          "internalType": "contract ICoreVault",
          "name": "",
          "type": "address"
        }
      ],
      "stateMutability": "view",
      "type": "function"
    },
    {
      "inputs": [],
      "name": "cumulativeRewardPerToken",
      "outputs": [
        {
          "internalType": "uint256",
          "name": "",
          "type": "uint256"
        }
      ],
      "stateMutability": "view",
      "type": "function"
    },
    {
      "inputs": [],
      "name": "distributor",
      "outputs": [
        {
          "internalType": "address",
          "name": "",
          "type": "address"
        }
      ],
      "stateMutability": "view",
      "type": "function"
    },
    {
      "inputs": [],
      "name": "feeRouter",
      "outputs": [
        {
          "internalType": "contract IFeeRouter",
          "name": "",
          "type": "address"
        }
      ],
      "stateMutability": "view",
      "type": "function"
    },
    {
      "inputs": [],
      "name": "getAPR",
      "outputs": [
        {
          "internalType": "uint256",
          "name": "",
          "type": "uint256"
        }
      ],
      "stateMutability": "view",
      "type": "function"
    },
    {
      "inputs": [],
      "name": "getAUM",
      "outputs": [
        {
          "internalType": "uint256",
          "name": "",
          "type": "uint256"
        }
      ],
      "stateMutability": "view",
      "type": "function"
    },
    {
      "inputs": [],
      "name": "getLPPrice",
      "outputs": [
        {
          "internalType": "uint256",
          "name": "",
          "type": "uint256"
        }
      ],
      "stateMutability": "view",
      "type": "function"
    },
    {
      "inputs": [],
      "name": "getLPReward",
      "outputs": [
        {
          "internalType": "uint256",
          "name": "",
          "type": "uint256"
        }
      ],
      "stateMutability": "view",
      "type": "function"
    },
    {
      "inputs": [
        {
          "internalType": "bytes32",
          "name": "role",
          "type": "bytes32"
        }
      ],
      "name": "getRoleAdmin",
      "outputs": [
        {
          "internalType": "bytes32",
          "name": "",
          "type": "bytes32"
        }
      ],
      "stateMutability": "view",
      "type": "function"
    },
    {
      "inputs": [],
      "name": "getUSDBalance",
      "outputs": [
        {
          "internalType": "uint256",
          "name": "",
          "type": "uint256"
        }
      ],
      "stateMutability": "view",
      "type": "function"
    },
    {
      "inputs": [
        {
          "internalType": "bytes32",
          "name": "role",
          "type": "bytes32"
        },
        {
          "internalType": "address",
          "name": "account",
          "type": "address"
        }
      ],
      "name": "grantAndRevoke",
      "outputs": [],
      "stateMutability": "nonpayable",
      "type": "function"
    },
    {
      "inputs": [
        {
          "internalType": "bytes32",
          "name": "role",
          "type": "bytes32"
        },
        {
          "internalType": "address",
          "name": "account",
          "type": "address"
        }
      ],
      "name": "grantRole",
      "outputs": [],
      "stateMutability": "nonpayable",
      "type": "function"
    },
    {
      "inputs": [
        {
          "internalType": "bytes32",
          "name": "role",
          "type": "bytes32"
        },
        {
          "internalType": "address",
          "name": "account",
          "type": "address"
        }
      ],
      "name": "hasRole",
      "outputs": [
        {
          "internalType": "bool",
          "name": "",
          "type": "bool"
        }
      ],
      "stateMutability": "view",
      "type": "function"
    },
    {
      "inputs": [
        {
          "internalType": "address",
          "name": "_coreVault",
          "type": "address"
        },
        {
          "internalType": "address",
          "name": "_vaultRouter",
          "type": "address"
        },
        {
          "internalType": "address",
          "name": "_feeRouter",
          "type": "address"
        },
        {
          "internalType": "address",
          "name": "_distributor",
          "type": "address"
        }
      ],
      "name": "initialize",
      "outputs": [],
      "stateMutability": "nonpayable",
      "type": "function"
    },
    {
      "inputs": [
        {
          "internalType": "address",
          "name": "",
          "type": "address"
        }
      ],
      "name": "lpEarnedRewards",
      "outputs": [
        {
          "internalType": "uint256",
          "name": "",
          "type": "uint256"
        }
      ],
      "stateMutability": "view",
      "type": "function"
    },
    {
      "inputs": [],
      "name": "owner",
      "outputs": [
        {
          "internalType": "address",
          "name": "",
          "type": "address"
        }
      ],
      "stateMutability": "view",
      "type": "function"
    },
    {
      "inputs": [],
      "name": "pendingRewards",
      "outputs": [
        {
          "internalType": "uint256",
          "name": "",
          "type": "uint256"
        }
      ],
      "stateMutability": "view",
      "type": "function"
    },
    {
      "inputs": [
        {
          "internalType": "uint256",
          "name": "assets",
          "type": "uint256"
        }
      ],
      "name": "previewDeposit",
      "outputs": [
        {
          "internalType": "uint256",
          "name": "",
          "type": "uint256"
        }
      ],
      "stateMutability": "view",
      "type": "function"
    },
    {
      "inputs": [
        {
          "internalType": "uint256",
          "name": "shares",
          "type": "uint256"
        }
      ],
      "name": "previewMint",
      "outputs": [
        {
          "internalType": "uint256",
          "name": "",
          "type": "uint256"
        }
      ],
      "stateMutability": "view",
      "type": "function"
    },
    {
      "inputs": [
        {
          "internalType": "uint256",
          "name": "shares",
          "type": "uint256"
        }
      ],
      "name": "previewRedeem",
      "outputs": [
        {
          "internalType": "uint256",
          "name": "",
          "type": "uint256"
        }
      ],
      "stateMutability": "view",
      "type": "function"
    },
    {
      "inputs": [
        {
          "internalType": "uint256",
          "name": "assets",
          "type": "uint256"
        }
      ],
      "name": "previewWithdraw",
      "outputs": [
        {
          "internalType": "uint256",
          "name": "",
          "type": "uint256"
        }
      ],
      "stateMutability": "view",
      "type": "function"
    },
    {
      "inputs": [
        {
          "internalType": "address",
          "name": "",
          "type": "address"
        }
      ],
      "name": "previousCumulatedRewardPerToken",
      "outputs": [
        {
          "internalType": "uint256",
          "name": "",
          "type": "uint256"
        }
      ],
      "stateMutability": "view",
      "type": "function"
    },
    {
      "inputs": [],
      "name": "priceDecimals",
      "outputs": [
        {
          "internalType": "uint256",
          "name": "",
          "type": "uint256"
        }
      ],
      "stateMutability": "view",
      "type": "function"
    },
    {
      "inputs": [],
      "name": "renounceOwnership",
      "outputs": [],
      "stateMutability": "nonpayable",
      "type": "function"
    },
    {
      "inputs": [
        {
          "internalType": "bytes32",
          "name": "role",
          "type": "bytes32"
        },
        {
          "internalType": "address",
          "name": "account",
          "type": "address"
        }
      ],
      "name": "renounceRole",
      "outputs": [],
      "stateMutability": "nonpayable",
      "type": "function"
    },
    {
      "inputs": [
        {
          "internalType": "bytes32",
          "name": "role",
          "type": "bytes32"
        },
        {
          "internalType": "address",
          "name": "account",
          "type": "address"
        }
      ],
      "name": "revokeRole",
      "outputs": [],
      "stateMutability": "nonpayable",
      "type": "function"
    },
    {
      "inputs": [],
      "name": "rewardToken",
      "outputs": [
        {
          "internalType": "address",
          "name": "",
          "type": "address"
        }
      ],
      "stateMutability": "view",
      "type": "function"
    },
    {
      "inputs": [
        {
          "internalType": "contract IERC4626",
          "name": "vault",
          "type": "address"
        },
        {
          "internalType": "address",
          "name": "to",
          "type": "address"
        },
        {
          "internalType": "uint256",
          "name": "shares",
          "type": "uint256"
        },
        {
          "internalType": "uint256",
          "name": "minAssetsOut",
          "type": "uint256"
        }
      ],
      "name": "sell",
      "outputs": [
        {
          "internalType": "uint256",
          "name": "assetOut",
          "type": "uint256"
        }
      ],
      "stateMutability": "nonpayable",
      "type": "function"
    },
    {
      "inputs": [
        {
          "internalType": "contract ICoreVault",
          "name": "vault",
          "type": "address"
        }
      ],
      "name": "sellLpFee",
      "outputs": [
        {
          "internalType": "uint256",
          "name": "",
          "type": "uint256"
        }
      ],
      "stateMutability": "view",
      "type": "function"
    },
    {
      "inputs": [
        {
          "internalType": "uint256",
          "name": "_apr",
          "type": "uint256"
        }
      ],
      "name": "setAPR",
      "outputs": [],
      "stateMutability": "nonpayable",
      "type": "function"
    },
    {
      "inputs": [
        {
          "internalType": "bytes4",
          "name": "interfaceId",
          "type": "bytes4"
        }
      ],
      "name": "supportsInterface",
      "outputs": [
        {
          "internalType": "bool",
          "name": "",
          "type": "bool"
        }
      ],
      "stateMutability": "view",
      "type": "function"
    },
    {
      "inputs": [],
      "name": "tokensPerInterval",
      "outputs": [
        {
          "internalType": "uint256",
          "name": "",
          "type": "uint256"
        }
      ],
      "stateMutability": "view",
      "type": "function"
    },
    {
      "inputs": [
        {
          "internalType": "address",
          "name": "to",
          "type": "address"
        }
      ],
      "name": "transferAdmin",
      "outputs": [],
      "stateMutability": "nonpayable",
      "type": "function"
    },
    {
      "inputs": [
        {
          "internalType": "address",
          "name": "newOwner",
          "type": "address"
        }
      ],
      "name": "transferOwnership",
      "outputs": [],
      "stateMutability": "nonpayable",
      "type": "function"
    },
    {
      "inputs": [],
      "name": "updateRewards",
      "outputs": [],
      "stateMutability": "nonpayable",
      "type": "function"
    },
    {
      "inputs": [
        {
          "internalType": "address",
          "name": "_account",
          "type": "address"
        }
      ],
      "name": "updateRewardsByAccount",
      "outputs": [],
      "stateMutability": "nonpayable",
      "type": "function"
    },
    {
      "inputs": [],
      "name": "vaultRouter",
      "outputs": [
        {
          "internalType": "contract IVaultRouter",
          "name": "",
          "type": "address"
        }
      ],
      "stateMutability": "view",
      "type": "function"
    }
  ],
  "bytecode": "0x608060405234801561001057600080fd5b5061001a33610024565b6001600355610076565b600180546001600160a01b038381166001600160a01b0319831681179093556040519116919082907f8be0079c531659141344cd1fd0a4f28419497f9722a3daafe3b4186f6b6457e090600090a35050565b61241a806100856000396000f3fe608060405234801561001057600080fd5b506004361061021a5760003560e01c806301ffc9a71461021f57806305300b28146102475780630a28a4771461025d5780631ee2b0b214610270578063248a9ca3146102855780632f2ff15d1461029857806331de7d15146102ab57806336568abe146102be5780633e158b0c146102d1578063402914f5146102d957806344a08411146102ec5780634cdad5061461030c57806357ded9c91461031f578063674ce1b5146103285780636dc7b0a114610348578063715018a61461035057806375829def14610358578063854303cf1461036b5780638da5cb5b1461037e5780638f089d651461038657806391d148541461038e57806399d5c1ec146103a1578063a217fddf146103b4578063a3180217146103bc578063a8d93627146103dc578063a9d424e2146103e4578063aaf5eb68146103f7578063ae8bcdf81461040a578063b3d7f6b91461042a578063b77905ae1461043d578063bfe1092814610445578063c120105414610458578063c89d5b8b14610460578063d37c441c14610468578063d53b26ee1461047b578063d547741f1461048e578063e547bb91146104a1578063e9503425146104a9578063eb4fe818146104c9578063eded3fda146104dc578063ef8b30f7146104e4578063f29ebf61146104f7578063f2fde38b1461050a578063f5fc50761461051d578063f7c618c114610526578063f8c8765e1461052e575b600080fd5b61023261022d366004611f8e565b610541565b60405190151581526020015b60405180910390f35b61024f610578565b60405190815260200161023e565b61024f61026b366004611fb8565b6105ea565b61028361027e366004611fe6565b610659565b005b61024f610293366004611fb8565b610950565b6102836102a6366004612003565b610965565b61024f6102b9366004612033565b610986565b6102836102cc366004612003565b610a6c565b610283610aea565b61024f6102e7366004611fe6565b610b08565b61024f6102fa366004611fe6565b600a6020526000908152604090205481565b61024f61031a366004611fb8565b610cc5565b61024f60095481565b60055461033b906001600160a01b031681565b60405161023e9190612079565b61024f610cf7565b610283610d41565b610283610366366004611fe6565b610d53565b610283610379366004611fb8565b610d7d565b61033b610dad565b61024f610dbc565b61023261039c366004612003565b610e5a565b6102836103af366004612003565b610e83565b61024f600081565b61024f6103ca366004611fe6565b600d6020526000908152604090205481565b61024f610f21565b61024f6103f2366004612033565b610f6b565b61024f68327cb2734119d3b7a9601e1b81565b61024f610418366004611fe6565b600b6020526000908152604090205481565b61024f610438366004611fb8565b61112b565b61024f61115d565b60085461033b906001600160a01b031681565b61024f6112b1565b60095461024f565b60065461033b906001600160a01b031681565b61024f610489366004611fe6565b6112fb565b61028361049c366004612003565b61133b565b610283611357565b61024f6104b7366004611fe6565b600c6020526000908152604090205481565b61024f6104d7366004611fe6565b611493565b61024f6114d3565b61024f6104f2366004611fb8565b6114de565b60045461033b906001600160a01b031681565b610283610518366004611fe6565b611510565b61024f60075481565b61033b611589565b61028361053c36600461208d565b6115f7565b60006001600160e01b03198216637965db0b60e01b148061057257506301ffc9a760e01b6001600160e01b03198316145b92915050565b6006546040805162a6016560e31b815290516000926001600160a01b0316916305300b289160048083019260209291908290030181865afa1580156105c1573d6000803e3d6000fd5b505050506040513d601f19601f820116820180604052508101906105e591906120e9565b905090565b600554604051630a28a47760e01b8152600481018390526000916001600160a01b031690630a28a477906024015b602060405180830381865afa158015610635573d6000803e3d6000fd5b505050506040513d601f19601f8201168201806040525081019061057291906120e9565b6008546040805163e4fc6b6d60e01b815290516000926001600160a01b03169163e4fc6b6d916004808301926020929190829003018187875af11580156106a4573d6000803e3d6000fd5b505050506040513d601f19601f820116820180604052508101906106c891906120e9565b90506000600560009054906101000a90046001600160a01b03166001600160a01b03166318160ddd6040518163ffffffff1660e01b8152600401602060405180830381865afa15801561071f573d6000803e3d6000fd5b505050506040513d601f19601f8201168201806040525081019061074391906120e9565b60075490915081158015906107585750600083115b156107ca578161077468327cb2734119d3b7a9601e1b85612118565b61077e919061212f565b6107889082612151565b600781905560408051848152602081018390529192507f055418cabed8a0ec732dd9b1f84e69d3f33a8f9a70d721b7a6962a00c26a4572910160405180910390a15b806000036107d85750505050565b6001600160a01b0384161561094a5760006107f2856117c1565b6001600160a01b0386166000908152600a60205260408120549192509068327cb2734119d3b7a9601e1b906108279085612164565b6108319084612118565b61083b919061212f565b6001600160a01b0387166000908152600c602052604081205491925090610863908390612151565b6001600160a01b0388166000908152600c60209081526040808320849055600a9091529020859055905080158015906108a4575060006108a2886117c1565b115b15610946576001600160a01b0387166000908152600b60205260408120546108cd908490612151565b90506109206108e6826108e087876117f2565b90611805565b6001600160a01b038a166000908152600b6020908152604080832054600d9092529091205461091a9185916108e0916117f2565b90611811565b6001600160a01b0389166000908152600d6020908152604080832093909355600b905220555b5050505b50505050565b60009081526020819052604090206001015490565b61096e82610950565b6109778161181d565b6109818383611827565b505050565b60006109906118ab565b61099933610659565b604051635d043b2960e11b8152600481018490526001600160a01b0385811660248301819052604483015283919087169063ba087652906064016020604051808303816000875af11580156109f2573d6000803e3d6000fd5b505050506040513d601f19601f82011682018060405250810190610a1691906120e9565b9150811015610a5a5760405162461bcd60e51b815260206004820152600b60248201526a26b4b727baba22b93937b960a91b60448201526064015b60405180910390fd5b610a646001600355565b949350505050565b6001600160a01b0381163314610adc5760405162461bcd60e51b815260206004820152602f60248201527f416363657373436f6e74726f6c3a2063616e206f6e6c792072656e6f756e636560448201526e103937b632b9903337b91039b2b63360891b6064820152608401610a51565b610ae68282611904565b5050565b610af26118ab565b610afc6000610659565b610b066001600355565b565b600080610b14836117c1565b905080600003610b3b5750506001600160a01b03166000908152600c602052604090205490565b600554604080516318160ddd60e01b815290516000926001600160a01b0316916318160ddd9160048083019260209291908290030181865afa158015610b85573d6000803e3d6000fd5b505050506040513d601f19601f82011682018060405250810190610ba991906120e9565b90506000610c3a68327cb2734119d3b7a9601e1b600860009054906101000a90046001600160a01b03166001600160a01b031663eded3fda6040518163ffffffff1660e01b8152600401602060405180830381865afa158015610c10573d6000803e3d6000fd5b505050506040513d601f19601f82011682018060405250810190610c3491906120e9565b906117f2565b90506000610c54610c4b8385611805565b60075490611811565b6001600160a01b0387166000908152600a6020526040902054909150610cbb90610c9c9068327cb2734119d3b7a9601e1b906108e090610c95908690611969565b88906117f2565b6001600160a01b0388166000908152600c602052604090205490611811565b9695505050505050565b60055460405163266d6a8360e11b8152600481018390526000916001600160a01b031690634cdad50690602401610618565b60065460408051636dc7b0a160e01b815290516000926001600160a01b031691636dc7b0a19160048083019260209291908290030181865afa1580156105c1573d6000803e3d6000fd5b610d49611975565b610b0660006119d4565b6000610d5e8161181d565b610d69600083611a26565b610d72826119d4565b610ae6600033611904565b7fcb6bc1c12dd43bca8d7dd46d975f913325437d0dcd5978e99d515e4ad39b9772610da78161181d565b50600955565b6001546001600160a01b031690565b6000610dee6040518060400160405280600f81526020016e33b2ba26282932bbb0b9321f1f1f1f60891b815250611a30565b336000908152600b6020526040902054610e0790611a73565b610e18610e1333610b08565b611a73565b336000908152600b60205260408120549003610e345750600090565b336000908152600c6020908152604080832054600b909252909120546105e59190612164565b6000918252602082815260408084206001600160a01b0393909316845291905290205460ff1690565b7f241ecf16d79d0f8dbfb92cbc07fe17840425976cf0667f022fe9877caa831b086000610eb08133610e5a565b90508015610f0d576201518060025442610eca9190612164565b10610f085760405162461bcd60e51b815260206004820152600e60248201526d1858c81d1a5b59481c185cdcd95960921b6044820152606401610a51565b610f17565b610f178233611ab8565b61094a8484611827565b6008546040805163a8d9362760e01b815290516000926001600160a01b03169163a8d936279160048083019260209291908290030181865afa1580156105c1573d6000803e3d6000fd5b6000610f756118ab565b610f7e33610659565b6000856001600160a01b03166338d52e0f6040518163ffffffff1660e01b8152600401602060405180830381865afa158015610fbe573d6000803e3d6000fd5b505050506040513d601f19601f82011682018060405250810190610fe29190612177565b9050610ff081333087611b11565b60055460405163095ea7b360e01b81526001600160a01b038381169263095ea7b39261102492909116908890600401612194565b6020604051808303816000875af1158015611043573d6000803e3d6000fd5b505050506040513d601f19601f8201168201806040525081019061106791906121ad565b50604051636e553f6560e01b8152600481018590526001600160a01b038681166024830152849190881690636e553f65906044016020604051808303816000875af11580156110ba573d6000803e3d6000fd5b505050506040513d601f19601f820116820180604052508101906110de91906120e9565b92508210156111205760405162461bcd60e51b815260206004820152600e60248201526d26b4b729b430b932b9a2b93937b960911b6044820152606401610a51565b50610a646001600355565b60055460405163b3d7f6b960e01b8152600481018390526000916001600160a01b03169063b3d7f6b990602401610618565b600080600560009054906101000a90046001600160a01b03166001600160a01b03166301e1d1146040518163ffffffff1660e01b8152600401602060405180830381865afa1580156111b3573d6000803e3d6000fd5b505050506040513d601f19601f820116820180604052508101906111d791906120e9565b90506000600560009054906101000a90046001600160a01b03166001600160a01b03166318160ddd6040518163ffffffff1660e01b8152600401602060405180830381865afa15801561122e573d6000803e3d6000fd5b505050506040513d601f19601f8201168201806040525081019061125291906120e9565b905081158061125f575080155b156112895761126c610578565b61127790600a6122b3565b611282906001612118565b9250505090565b80611292610578565b61129d90600a6122b3565b6112a79084612118565b611282919061212f565b60065460408051633048041560e21b815290516000926001600160a01b03169163c12010549160048083019260209291908290030181865afa1580156105c1573d6000803e3d6000fd5b6000816001600160a01b0316636fd3acb46040518163ffffffff1660e01b8152600401602060405180830381865afa158015610635573d6000803e3d6000fd5b61134482610950565b61134d8161181d565b6109818383611904565b61135f6118ab565b6005546040516370a0823160e01b81526000916001600160a01b0316906370a0823190611390903390600401612079565b602060405180830381865afa1580156113ad573d6000803e3d6000fd5b505050506040513d601f19601f820116820180604052508101906113d191906120e9565b1161140a5760405162461bcd60e51b81526020600482015260096024820152680796f756e2774204c560bc1b6044820152606401610a51565b3361141481610659565b6001600160a01b0381166000908152600c60205260408120805491905561144e338261143e611589565b6001600160a01b03169190611b7c565b7fc9695243a805adb74c91f28311176c65b417e842d5699893cef56d18bfa48cba338260405161147f929190612194565b60405180910390a15050610b066001600355565b6000816001600160a01b031663c7b8b46d6040518163ffffffff1660e01b8152600401602060405180830381865afa158015610635573d6000803e3d6000fd5b60006105e533610b08565b60055460405163ef8b30f760e01b8152600481018390526000916001600160a01b03169063ef8b30f790602401610618565b611518611975565b6001600160a01b03811661157d5760405162461bcd60e51b815260206004820152602660248201527f4f776e61626c653a206e6577206f776e657220697320746865207a65726f206160448201526564647265737360d01b6064820152608401610a51565b611586816119d4565b50565b600554604080516338d52e0f60e01b815290516000926001600160a01b0316916338d52e0f9160048083019260209291908290030181865afa1580156115d3573d6000803e3d6000fd5b505050506040513d601f19601f820116820180604052508101906105e59190612177565b600154600160a81b900460ff161580801561161d575060018054600160a01b900460ff16105b80611644575061162c30611b9b565b158015611644575060018054600160a01b900460ff16145b6116a75760405162461bcd60e51b815260206004820152602e60248201527f496e697469616c697a61626c653a20636f6e747261637420697320616c72656160448201526d191e481a5b9a5d1a585b1a5e995960921b6064820152608401610a51565b6001805460ff60a01b1916600160a01b17905580156116d4576001805460ff60a81b1916600160a81b1790555b6001600160a01b0385166116e757600080fd5b6001600160a01b0384166116fa57600080fd5b6001600160a01b03831661170d57600080fd5b6001600160a01b03821661172057600080fd5b61172933611baa565b600680546001600160a01b038087166001600160a01b0319928316179092556005805488841690831617905560048054868416908316179055600880549285169290911691909117905580156117ba576001805460ff60a81b191681556040519081527f7f26b83ff96e1f2b6a682f133852f6798a09c465da95921460cefb38474024989060200160405180910390a15b5050505050565b6005546040516370a0823160e01b81526000916001600160a01b0316906370a0823190610618908590600401612079565b60006117fe8284612118565b9392505050565b60006117fe828461212f565b60006117fe8284612151565b6115868133611ab8565b6118318282610e5a565b610ae6576000828152602081815260408083206001600160a01b03851684529091529020805460ff191660011790556118673390565b6001600160a01b0316816001600160a01b0316837f2f8788117e7eff1d82e926ec794901d17c78024a50270940304540a733656f0d60405160405180910390a45050565b6002600354036118fd5760405162461bcd60e51b815260206004820152601f60248201527f5265656e7472616e637947756172643a207265656e7472616e742063616c6c006044820152606401610a51565b6002600355565b61190e8282610e5a565b15610ae6576000828152602081815260408083206001600160a01b0385168085529252808320805460ff1916905551339285917ff6391f5c32d9c69d2a47ea670b442974b53935d1edc7fd64eb21e047a839171b9190a45050565b60006117fe8284612164565b3361197e610dad565b6001600160a01b031614610b065760405162461bcd60e51b815260206004820181905260248201527f4f776e61626c653a2063616c6c6572206973206e6f7420746865206f776e65726044820152606401610a51565b600180546001600160a01b038381166001600160a01b0319831681179093556040519116919082907f8be0079c531659141344cd1fd0a4f28419497f9722a3daafe3b4186f6b6457e090600090a35050565b610ae68282611827565b61158681604051602401611a4491906122e3565b60408051601f198184030181529190526020810180516001600160e01b031663104c13eb60e21b179052611bcd565b61158681604051602401611a8991815260200190565b60408051601f198184030181529190526020810180516001600160e01b031663f82c50f160e01b179052611bcd565b611ac28282610e5a565b610ae657611acf81611bee565b611ada836020611c00565b604051602001611aeb929190612316565b60408051601f198184030181529082905262461bcd60e51b8252610a51916004016122e3565b6040516001600160a01b038085166024830152831660448201526064810182905261094a9085906323b872dd60e01b906084015b60408051601f198184030181529190526020810180516001600160e01b03166001600160e01b031990931692909217909152611d9b565b6109818363a9059cbb60e01b8484604051602401611b45929190612194565b6001600160a01b03163b151590565b42600255611bb7336119d4565b611bc2600033611a26565b611586600082611a26565b80516a636f6e736f6c652e6c6f67602083016000808483855afa5050505050565b60606105726001600160a01b03831660145b60606000611c0f836002612118565b611c1a906002612151565b6001600160401b03811115611c3157611c31612385565b6040519080825280601f01601f191660200182016040528015611c5b576020820181803683370190505b509050600360fc1b81600081518110611c7657611c7661239b565b60200101906001600160f81b031916908160001a905350600f60fb1b81600181518110611ca557611ca561239b565b60200101906001600160f81b031916908160001a9053506000611cc9846002612118565b611cd4906001612151565b90505b6001811115611d4c576f181899199a1a9b1b9c1cb0b131b232b360811b85600f1660108110611d0857611d0861239b565b1a60f81b828281518110611d1e57611d1e61239b565b60200101906001600160f81b031916908160001a90535060049490941c93611d45816123b1565b9050611cd7565b5083156117fe5760405162461bcd60e51b815260206004820181905260248201527f537472696e67733a20686578206c656e67746820696e73756666696369656e746044820152606401610a51565b6000611df0826040518060400160405280602081526020017f5361666545524332303a206c6f772d6c6576656c2063616c6c206661696c6564815250856001600160a01b0316611e6d9092919063ffffffff16565b8051909150156109815780806020019051810190611e0e91906121ad565b6109815760405162461bcd60e51b815260206004820152602a60248201527f5361666545524332303a204552433230206f7065726174696f6e20646964206e6044820152691bdd081cdd58d8d9595960b21b6064820152608401610a51565b6060610a64848460008585600080866001600160a01b03168587604051611e9491906123c8565b60006040518083038185875af1925050503d8060008114611ed1576040519150601f19603f3d011682016040523d82523d6000602084013e611ed6565b606091505b5091509150611ee787838387611ef2565b979650505050505050565b60608315611f5f578251600003611f5857611f0c85611b9b565b611f585760405162461bcd60e51b815260206004820152601d60248201527f416464726573733a2063616c6c20746f206e6f6e2d636f6e74726163740000006044820152606401610a51565b5081610a64565b610a648383815115611f745781518083602001fd5b8060405162461bcd60e51b8152600401610a5191906122e3565b600060208284031215611fa057600080fd5b81356001600160e01b0319811681146117fe57600080fd5b600060208284031215611fca57600080fd5b5035919050565b6001600160a01b038116811461158657600080fd5b600060208284031215611ff857600080fd5b81356117fe81611fd1565b6000806040838503121561201657600080fd5b82359150602083013561202881611fd1565b809150509250929050565b6000806000806080858703121561204957600080fd5b843561205481611fd1565b9350602085013561206481611fd1565b93969395505050506040820135916060013590565b6001600160a01b0391909116815260200190565b600080600080608085870312156120a357600080fd5b84356120ae81611fd1565b935060208501356120be81611fd1565b925060408501356120ce81611fd1565b915060608501356120de81611fd1565b939692955090935050565b6000602082840312156120fb57600080fd5b5051919050565b634e487b7160e01b600052601160045260246000fd5b808202811582820484141761057257610572612102565b60008261214c57634e487b7160e01b600052601260045260246000fd5b500490565b8082018082111561057257610572612102565b8181038181111561057257610572612102565b60006020828403121561218957600080fd5b81516117fe81611fd1565b6001600160a01b03929092168252602082015260400190565b6000602082840312156121bf57600080fd5b815180151581146117fe57600080fd5b600181815b8085111561220a5781600019048211156121f0576121f0612102565b808516156121fd57918102915b93841c93908002906121d4565b509250929050565b60008261222157506001610572565b8161222e57506000610572565b8160018114612244576002811461224e5761226a565b6001915050610572565b60ff84111561225f5761225f612102565b50506001821b610572565b5060208310610133831016604e8410600b841016171561228d575081810a610572565b61229783836121cf565b80600019048211156122ab576122ab612102565b029392505050565b60006117fe8383612212565b60005b838110156122da5781810151838201526020016122c2565b50506000910152565b60208152600082518060208401526123028160408501602087016122bf565b601f01601f19169190910160400192915050565b76020b1b1b2b9b9a1b7b73a3937b61d1030b1b1b7bab73a1604d1b8152600083516123488160178501602088016122bf565b7001034b99036b4b9b9b4b733903937b6329607d1b60179184019182015283516123798160288401602088016122bf565b01602801949350505050565b634e487b7160e01b600052604160045260246000fd5b634e487b7160e01b600052603260045260246000fd5b6000816123c0576123c0612102565b506000190190565b600082516123da8184602087016122bf565b919091019291505056fea264697066735822122038f30e481ae2e1ee6fff5d71e19a2a960916bd27a3662f9b583beb33d47b888364736f6c63430008110033",
  "linkReferences": {},
  "deployedLinkReferences": {}
}