{
  "_format": "hh-sol-artifact-1",
  "contractName": "BatchTransfer",
  "sourceName": "contracts/vault/BatchTransfer.sol",
  "abi": [
    {
      "inputs": [
        {
          "internalType": "address[]",
          "name": "accounts",
          "type": "address[]"
        },
        {
          "internalType": "uint256[]",
          "name": "amounts",
          "type": "uint256[]"
        },
        {
          "internalType": "address",
          "name": "token",
          "type": "address"
        }
      ],
      "name": "batchTransfer",
      "outputs": [],
      "stateMutability": "nonpayable",
      "type": "function"
    }
  ],
  "bytecode": "0x608060405234801561001057600080fd5b50610629806100206000396000f3fe608060405234801561001057600080fd5b506004361061002b5760003560e01c8063bb0a64b614610030575b600080fd5b61004361003e366004610471565b610045565b005b3360005b84518110156100ac576100a48286838151811061006857610068610541565b602002602001015186848151811061008257610082610541565b6020026020010151866001600160a01b03166100b3909392919063ffffffff16565b600101610049565b5050505050565b604080516001600160a01b0385811660248301528416604482015260648082018490528251808303909101815260849091019091526020810180516001600160e01b03166323b872dd60e01b17905261010d908590610113565b50505050565b6000610168826040518060400160405280602081526020017f5361666545524332303a206c6f772d6c6576656c2063616c6c206661696c6564815250856001600160a01b03166101ef9092919063ffffffff16565b8051909150156101ea57808060200190518101906101869190610557565b6101ea5760405162461bcd60e51b815260206004820152602a60248201527f5361666545524332303a204552433230206f7065726174696f6e20646964206e6044820152691bdd081cdd58d8d9595960b21b60648201526084015b60405180910390fd5b505050565b60606101fe8484600085610206565b949350505050565b6060824710156102675760405162461bcd60e51b815260206004820152602660248201527f416464726573733a20696e73756666696369656e742062616c616e636520666f6044820152651c8818d85b1b60d21b60648201526084016101e1565b600080866001600160a01b0316858760405161028391906105a4565b60006040518083038185875af1925050503d80600081146102c0576040519150601f19603f3d011682016040523d82523d6000602084013e6102c5565b606091505b50915091506102d6878383876102e1565b979650505050505050565b60608315610350578251600003610349576001600160a01b0385163b6103495760405162461bcd60e51b815260206004820152601d60248201527f416464726573733a2063616c6c20746f206e6f6e2d636f6e747261637400000060448201526064016101e1565b50816101fe565b6101fe83838151156103655781518083602001fd5b8060405162461bcd60e51b81526004016101e191906105c0565b634e487b7160e01b600052604160045260246000fd5b604051601f8201601f1916810167ffffffffffffffff811182821017156103be576103be61037f565b604052919050565b600067ffffffffffffffff8211156103e0576103e061037f565b5060051b60200190565b80356001600160a01b038116811461040157600080fd5b919050565b600082601f83011261041757600080fd5b8135602061042c610427836103c6565b610395565b82815260059290921b8401810191818101908684111561044b57600080fd5b8286015b84811015610466578035835291830191830161044f565b509695505050505050565b60008060006060848603121561048657600080fd5b833567ffffffffffffffff8082111561049e57600080fd5b818601915086601f8301126104b257600080fd5b813560206104c2610427836103c6565b82815260059290921b8401810191818101908a8411156104e157600080fd5b948201945b83861015610506576104f7866103ea565b825294820194908201906104e6565b9750508701359250508082111561051c57600080fd5b5061052986828701610406565b925050610538604085016103ea565b90509250925092565b634e487b7160e01b600052603260045260246000fd5b60006020828403121561056957600080fd5b8151801515811461057957600080fd5b9392505050565b60005b8381101561059b578181015183820152602001610583565b50506000910152565b600082516105b6818460208701610580565b9190910192915050565b60208152600082518060208401526105df816040850160208701610580565b601f01601f1916919091016040019291505056fea26469706673582212202725fa5a69a17a336d0725b945766c6dfe0ece7d4438a002263f857e34d870a464736f6c63430008110033",
  "linkReferences": {},
  "deployedLinkReferences": {}
}