{
  "_format": "hh-sol-artifact-1",
  "contractName": "BatchTransfer",
  "sourceName": "contracts/vault/BatchTransfer.sol",
  "abi": [
    {
      "inputs": [
        {
          "internalType": "address[]",
          "name": "accounts",
          "type": "address[]"
        },
        {
          "internalType": "uint256[]",
          "name": "amounts",
          "type": "uint256[]"
        },
        {
          "internalType": "address",
          "name": "token",
          "type": "address"
        }
      ],
      "name": "batchTransfer",
      "outputs": [],
      "stateMutability": "nonpayable",
      "type": "function"
    }
  ],
  "bytecode": "0x608060405234801561001057600080fd5b5061062c806100206000396000f3fe608060405234801561001057600080fd5b506004361061002b5760003560e01c8063bb0a64b614610030575b600080fd5b61004361003e366004610474565b610045565b005b3360005b84518110156100ac576100a48286838151811061006857610068610544565b602002602001015186848151811061008257610082610544565b6020026020010151866001600160a01b03166100b3909392919063ffffffff16565b600101610049565b5050505050565b604080516001600160a01b0385811660248301528416604482015260648082018490528251808303909101815260849091019091526020810180516001600160e01b03166323b872dd60e01b17905261010d908590610113565b50505050565b6000610168826040518060400160405280602081526020017f5361666545524332303a206c6f772d6c6576656c2063616c6c206661696c6564815250856001600160a01b03166101f29092919063ffffffff16565b9050805160001480610189575080806020019051810190610189919061055a565b6101ed5760405162461bcd60e51b815260206004820152602a60248201527f5361666545524332303a204552433230206f7065726174696f6e20646964206e6044820152691bdd081cdd58d8d9595960b21b60648201526084015b60405180910390fd5b505050565b60606102018484600085610209565b949350505050565b60608247101561026a5760405162461bcd60e51b815260206004820152602660248201527f416464726573733a20696e73756666696369656e742062616c616e636520666f6044820152651c8818d85b1b60d21b60648201526084016101e4565b600080866001600160a01b0316858760405161028691906105a7565b60006040518083038185875af1925050503d80600081146102c3576040519150601f19603f3d011682016040523d82523d6000602084013e6102c8565b606091505b50915091506102d9878383876102e4565b979650505050505050565b6060831561035357825160000361034c576001600160a01b0385163b61034c5760405162461bcd60e51b815260206004820152601d60248201527f416464726573733a2063616c6c20746f206e6f6e2d636f6e747261637400000060448201526064016101e4565b5081610201565b61020183838151156103685781518083602001fd5b8060405162461bcd60e51b81526004016101e491906105c3565b634e487b7160e01b600052604160045260246000fd5b604051601f8201601f1916810167ffffffffffffffff811182821017156103c1576103c1610382565b604052919050565b600067ffffffffffffffff8211156103e3576103e3610382565b5060051b60200190565b80356001600160a01b038116811461040457600080fd5b919050565b600082601f83011261041a57600080fd5b8135602061042f61042a836103c9565b610398565b82815260059290921b8401810191818101908684111561044e57600080fd5b8286015b848110156104695780358352918301918301610452565b509695505050505050565b60008060006060848603121561048957600080fd5b833567ffffffffffffffff808211156104a157600080fd5b818601915086601f8301126104b557600080fd5b813560206104c561042a836103c9565b82815260059290921b8401810191818101908a8411156104e457600080fd5b948201945b83861015610509576104fa866103ed565b825294820194908201906104e9565b9750508701359250508082111561051f57600080fd5b5061052c86828701610409565b92505061053b604085016103ed565b90509250925092565b634e487b7160e01b600052603260045260246000fd5b60006020828403121561056c57600080fd5b8151801515811461057c57600080fd5b9392505050565b60005b8381101561059e578181015183820152602001610586565b50506000910152565b600082516105b9818460208701610583565b9190910192915050565b60208152600082518060208401526105e2816040850160208701610583565b601f01601f1916919091016040019291505056fea26469706673582212206be792750482f07f20f3994994f1b7e01c386efbb13454fe857ab5907b485b5d64736f6c63430008110033",
  "linkReferences": {},
  "deployedLinkReferences": {}
}