{
  "_format": "hh-sol-artifact-1",
  "contractName": "VaultMarket",
  "sourceName": "contracts/vault/MockMarket.sol",
  "abi": [
    {
      "inputs": [],
      "name": "getPNL",
      "outputs": [
        {
          "internalType": "uint256",
          "name": "",
          "type": "uint256"
        }
      ],
      "stateMutability": "view",
      "type": "function"
    },
    {
      "inputs": [
        {
          "internalType": "uint256",
          "name": "_pnl",
          "type": "uint256"
        }
      ],
      "name": "setPNL",
      "outputs": [],
      "stateMutability": "nonpayable",
      "type": "function"
    }
  ],
  "bytecode": "0x6080604052606460005534801561001557600080fd5b5060ac806100246000396000f3fe6080604052348015600f57600080fd5b506004361060325760003560e01c8063498ed75214603757806393a98e6c146049575b600080fd5b60476042366004605e565b600055565b005b60005460405190815260200160405180910390f35b600060208284031215606f57600080fd5b503591905056fea264697066735822122079417600502839207b5697aa5dc97b765cfe79f3a4ec87d136030d43f72d687164736f6c63430008110033",
  "linkReferences": {},
  "deployedLinkReferences": {}
}