{
  "_format": "hh-sol-artifact-1",
  "contractName": "RewardDistributor",
  "sourceName": "contracts/vault/RewardDistributor.sol",
  "abi": [
    {
      "anonymous": false,
      "inputs": [
        {
          "indexed": false,
          "internalType": "uint256",
          "name": "amount",
          "type": "uint256"
        }
      ],
      "name": "Distribute",
      "type": "event"
    },
    {
      "anonymous": false,
      "inputs": [
        {
          "indexed": false,
          "internalType": "uint8",
          "name": "version",
          "type": "uint8"
        }
      ],
      "name": "Initialized",
      "type": "event"
    },
    {
      "anonymous": false,
      "inputs": [
        {
          "indexed": false,
          "internalType": "uint256",
          "name": "amount",
          "type": "uint256"
        }
      ],
      "name": "TokensPerIntervalChange",
      "type": "event"
    },
    {
      "inputs": [],
      "name": "DEFAULT_ADMIN_ROLE",
      "outputs": [
        {
          "internalType": "bytes32",
          "name": "",
          "type": "bytes32"
        }
      ],
      "stateMutability": "view",
      "type": "function"
    },
    {
      "inputs": [
        {
          "internalType": "address",
          "name": "newOwner",
          "type": "address"
        }
      ],
      "name": "_transferOwnership",
      "outputs": [],
      "stateMutability": "pure",
      "type": "function"
    },
    {
      "inputs": [],
      "name": "distribute",
      "outputs": [
        {
          "internalType": "uint256",
          "name": "",
          "type": "uint256"
        }
      ],
      "stateMutability": "nonpayable",
      "type": "function"
    },
    {
      "inputs": [
        {
          "internalType": "address",
          "name": "_account",
          "type": "address"
        }
      ],
      "name": "grantControllerRoleByMarketManager",
      "outputs": [],
      "stateMutability": "nonpayable",
      "type": "function"
    },
    {
      "inputs": [
        {
          "internalType": "bytes32",
          "name": "role",
          "type": "bytes32"
        },
        {
          "internalType": "address",
          "name": "account",
          "type": "address"
        }
      ],
      "name": "grantRole",
      "outputs": [],
      "stateMutability": "pure",
      "type": "function"
    },
    {
      "inputs": [
        {
          "internalType": "bytes32",
          "name": "role",
          "type": "bytes32"
        },
        {
          "internalType": "address",
          "name": "account",
          "type": "address"
        }
      ],
      "name": "hasRole",
      "outputs": [
        {
          "internalType": "bool",
          "name": "",
          "type": "bool"
        }
      ],
      "stateMutability": "pure",
      "type": "function"
    },
    {
      "inputs": [
        {
          "internalType": "address",
          "name": "_rewardToken",
          "type": "address"
        },
        {
          "internalType": "address",
          "name": "_rewardTracker",
          "type": "address"
        }
      ],
      "name": "initialize",
      "outputs": [],
      "stateMutability": "nonpayable",
      "type": "function"
    },
    {
      "inputs": [],
      "name": "lastDistributionTime",
      "outputs": [
        {
          "internalType": "uint256",
          "name": "",
          "type": "uint256"
        }
      ],
      "stateMutability": "view",
      "type": "function"
    },
    {
      "inputs": [],
      "name": "pendingRewards",
      "outputs": [
        {
          "internalType": "uint256",
          "name": "",
          "type": "uint256"
        }
      ],
      "stateMutability": "view",
      "type": "function"
    },
    {
      "inputs": [
        {
          "internalType": "bytes32",
          "name": "role",
          "type": "bytes32"
        },
        {
          "internalType": "address",
          "name": "account",
          "type": "address"
        }
      ],
      "name": "revokeRole",
      "outputs": [],
      "stateMutability": "pure",
      "type": "function"
    },
    {
      "inputs": [],
      "name": "rewardToken",
      "outputs": [
        {
          "internalType": "address",
          "name": "",
          "type": "address"
        }
      ],
      "stateMutability": "view",
      "type": "function"
    },
    {
      "inputs": [],
      "name": "rewardTracker",
      "outputs": [
        {
          "internalType": "address",
          "name": "",
          "type": "address"
        }
      ],
      "stateMutability": "view",
      "type": "function"
    },
    {
      "inputs": [
        {
          "internalType": "uint256",
          "name": "_amount",
          "type": "uint256"
        }
      ],
      "name": "setTokensPerInterval",
      "outputs": [],
      "stateMutability": "nonpayable",
      "type": "function"
    },
    {
      "inputs": [],
      "name": "tokensPerInterval",
      "outputs": [
        {
          "internalType": "uint256",
          "name": "",
          "type": "uint256"
        }
      ],
      "stateMutability": "view",
      "type": "function"
    },
    {
      "inputs": [
        {
          "internalType": "address",
          "name": "to",
          "type": "address"
        }
      ],
      "name": "transferAdmin",
      "outputs": [],
      "stateMutability": "nonpayable",
      "type": "function"
    },
    {
      "inputs": [
        {
          "internalType": "address",
          "name": "newOwner",
          "type": "address"
        }
      ],
      "name": "transferOwnership",
      "outputs": [],
      "stateMutability": "pure",
      "type": "function"
    },
    {
      "inputs": [],
      "name": "updateLastDistributionTime",
      "outputs": [],
      "stateMutability": "nonpayable",
      "type": "function"
    },
    {
      "inputs": [
        {
          "internalType": "address",
          "name": "_token",
          "type": "address"
        },
        {
          "internalType": "address",
          "name": "_account",
          "type": "address"
        },
        {
          "internalType": "uint256",
          "name": "_amount",
          "type": "uint256"
        }
      ],
      "name": "withdrawToken",
      "outputs": [],
      "stateMutability": "nonpayable",
      "type": "function"
    }
  ],
  "bytecode": "0x608060405234801561001057600080fd5b50610b13806100206000396000f3fe608060405234801561001057600080fd5b50600436106101165760003560e01c806391d14854116100a2578063d547741f11610071578063d547741f14610143578063e4fc6b6d14610223578063eded3fda1461022b578063f2fde38b14610212578063f7c618c11461023357600080fd5b806391d14854146101de578063a217fddf14610201578063a8d9362714610209578063d29d44ee1461021257600080fd5b8063485cc955116100e9578063485cc9551461015e5780636bcb411a1461017157806375829def146101a157806375b17350146101b45780637fe4a698146101cb57600080fd5b806301e336671461011b57806318e20a03146101305780632f2ff15d146101435780633ae6d6eb14610155575b600080fd5b61012e610129366004610922565b610246565b005b61012e61013e36600461095e565b61025f565b61012e610151366004610977565b5050565b61012e42600455565b61012e61016c3660046109a3565b610333565b600554610184906001600160a01b031681565b6040516001600160a01b0390911681526020015b60405180910390f35b61012e6101af3660046109cd565b6104a1565b6101bd60045481565b604051908152602001610198565b61012e6101d93660046109cd565b610220565b6101f16101ec366004610977565b6104ac565b6040519015158152602001610198565b6101bd600081565b6101bd60035481565b61012e6102203660046109cd565b50565b6101bd6104b5565b6101bd610611565b600254610184906001600160a01b031681565b61025a6001600160a01b0384168383610648565b505050565b7fcb6bc1c12dd43bca8d7dd46d975f913325437d0dcd5978e99d515e4ad39b977260045460000361028f57426004555b600560009054906101000a90046001600160a01b03166001600160a01b0316633e158b0c6040518163ffffffff1660e01b8152600401600060405180830381600087803b1580156102df57600080fd5b505af11580156102f3573d6000803e3d6000fd5b5050506003839055506040518281527f98dc76c39aa5a5dcb749f8750a65db3dfa1e14bcc1591a9c16a7420e5da748f89060200160405180910390a15050565b600054610100900460ff16158080156103535750600054600160ff909116105b8061036d5750303b15801561036d575060005460ff166001145b6103d55760405162461bcd60e51b815260206004820152602e60248201527f496e697469616c697a61626c653a20636f6e747261637420697320616c72656160448201526d191e481a5b9a5d1a585b1a5e995960921b60648201526084015b60405180910390fd5b6000805460ff1916600117905580156103f8576000805461ff0019166101001790555b6104013361069a565b6001600160a01b03831661041457600080fd5b6001600160a01b03821661042757600080fd5b600280546001600160a01b038086166001600160a01b0319928316179092556005805492851692909116919091179055801561025a576000805461ff0019169055604051600181527f7f26b83ff96e1f2b6a682f133852f6798a09c465da95921460cefb38474024989060200160405180910390a1505050565b600061015160003382565b60015b92915050565b6005546000906001600160a01b031633146105205760405162461bcd60e51b815260206004820152602560248201527f5265776172644469737472696275746f723a20696e76616c6964206d73672e7360448201526432b73232b960d91b60648201526084016103cc565b600061052a610611565b90508060000361053c57600091505090565b4260049081556002546040516370a0823160e01b815230928101929092526000916001600160a01b03909116906370a0823190602401602060405180830381865afa15801561058f573d6000803e3d6000fd5b505050506040513d601f19601f820116820180604052508101906105b391906109ef565b9050808211156105c1578091505b6002546105d8906001600160a01b03163384610648565b6040518281527f4def474aca53bf221d07d9ab0f675b3f6d8d2494b8427271bcf43c018ef1eead9060200160405180910390a150905090565b600060045442036106225750600090565b6000600454426106329190610a1e565b9050806003546106429190610a31565b91505090565b604080516001600160a01b038416602482015260448082018490528251808303909101815260649091019091526020810180516001600160e01b031663a9059cbb60e01b17905261025a9084906106a1565b4260015550565b60006106f6826040518060400160405280602081526020017f5361666545524332303a206c6f772d6c6576656c2063616c6c206661696c6564815250856001600160a01b03166107769092919063ffffffff16565b90508051600014806107175750808060200190518101906107179190610a48565b61025a5760405162461bcd60e51b815260206004820152602a60248201527f5361666545524332303a204552433230206f7065726174696f6e20646964206e6044820152691bdd081cdd58d8d9595960b21b60648201526084016103cc565b6060610785848460008561078d565b949350505050565b6060824710156107ee5760405162461bcd60e51b815260206004820152602660248201527f416464726573733a20696e73756666696369656e742062616c616e636520666f6044820152651c8818d85b1b60d21b60648201526084016103cc565b600080866001600160a01b0316858760405161080a9190610a8e565b60006040518083038185875af1925050503d8060008114610847576040519150601f19603f3d011682016040523d82523d6000602084013e61084c565b606091505b509150915061085d87838387610868565b979650505050505050565b606083156108d75782516000036108d0576001600160a01b0385163b6108d05760405162461bcd60e51b815260206004820152601d60248201527f416464726573733a2063616c6c20746f206e6f6e2d636f6e747261637400000060448201526064016103cc565b5081610785565b61078583838151156108ec5781518083602001fd5b8060405162461bcd60e51b81526004016103cc9190610aaa565b80356001600160a01b038116811461091d57600080fd5b919050565b60008060006060848603121561093757600080fd5b61094084610906565b925061094e60208501610906565b9150604084013590509250925092565b60006020828403121561097057600080fd5b5035919050565b6000806040838503121561098a57600080fd5b8235915061099a60208401610906565b90509250929050565b600080604083850312156109b657600080fd5b6109bf83610906565b915061099a60208401610906565b6000602082840312156109df57600080fd5b6109e882610906565b9392505050565b600060208284031215610a0157600080fd5b5051919050565b634e487b7160e01b600052601160045260246000fd5b818103818111156104af576104af610a08565b80820281158282048414176104af576104af610a08565b600060208284031215610a5a57600080fd5b815180151581146109e857600080fd5b60005b83811015610a85578181015183820152602001610a6d565b50506000910152565b60008251610aa0818460208701610a6a565b9190910192915050565b6020815260008251806020840152610ac9816040850160208701610a6a565b601f01601f1916919091016040019291505056fea264697066735822122012f85ce14022ef2d551d3d28b884ec273546dbee0c8676e03501bc1950b0a03964736f6c63430008110033",
  "linkReferences": {},
  "deployedLinkReferences": {}
}