{
  "_format": "hh-sol-artifact-1",
  "contractName": "RewardDistributor",
  "sourceName": "contracts/vault/RewardDistributor.sol",
  "abi": [
    {
      "anonymous": false,
      "inputs": [
        {
          "indexed": false,
          "internalType": "uint256",
          "name": "amount",
          "type": "uint256"
        }
      ],
      "name": "Distribute",
      "type": "event"
    },
    {
      "anonymous": false,
      "inputs": [
        {
          "indexed": false,
          "internalType": "uint8",
          "name": "version",
          "type": "uint8"
        }
      ],
      "name": "Initialized",
      "type": "event"
    },
    {
      "anonymous": false,
      "inputs": [
        {
          "indexed": true,
          "internalType": "address",
          "name": "previousOwner",
          "type": "address"
        },
        {
          "indexed": true,
          "internalType": "address",
          "name": "newOwner",
          "type": "address"
        }
      ],
      "name": "OwnershipTransferred",
      "type": "event"
    },
    {
      "anonymous": false,
      "inputs": [
        {
          "indexed": true,
          "internalType": "bytes32",
          "name": "role",
          "type": "bytes32"
        },
        {
          "indexed": true,
          "internalType": "bytes32",
          "name": "previousAdminRole",
          "type": "bytes32"
        },
        {
          "indexed": true,
          "internalType": "bytes32",
          "name": "newAdminRole",
          "type": "bytes32"
        }
      ],
      "name": "RoleAdminChanged",
      "type": "event"
    },
    {
      "anonymous": false,
      "inputs": [
        {
          "indexed": true,
          "internalType": "bytes32",
          "name": "role",
          "type": "bytes32"
        },
        {
          "indexed": true,
          "internalType": "address",
          "name": "account",
          "type": "address"
        },
        {
          "indexed": true,
          "internalType": "address",
          "name": "sender",
          "type": "address"
        }
      ],
      "name": "RoleGranted",
      "type": "event"
    },
    {
      "anonymous": false,
      "inputs": [
        {
          "indexed": true,
          "internalType": "bytes32",
          "name": "role",
          "type": "bytes32"
        },
        {
          "indexed": true,
          "internalType": "address",
          "name": "account",
          "type": "address"
        },
        {
          "indexed": true,
          "internalType": "address",
          "name": "sender",
          "type": "address"
        }
      ],
      "name": "RoleRevoked",
      "type": "event"
    },
    {
      "anonymous": false,
      "inputs": [
        {
          "indexed": false,
          "internalType": "uint256",
          "name": "amount",
          "type": "uint256"
        }
      ],
      "name": "TokensPerIntervalChange",
      "type": "event"
    },
    {
      "inputs": [],
      "name": "DEFAULT_ADMIN_ROLE",
      "outputs": [
        {
          "internalType": "bytes32",
          "name": "",
          "type": "bytes32"
        }
      ],
      "stateMutability": "view",
      "type": "function"
    },
    {
      "inputs": [],
      "name": "distribute",
      "outputs": [
        {
          "internalType": "uint256",
          "name": "",
          "type": "uint256"
        }
      ],
      "stateMutability": "nonpayable",
      "type": "function"
    },
    {
      "inputs": [
        {
          "internalType": "bytes32",
          "name": "role",
          "type": "bytes32"
        }
      ],
      "name": "getRoleAdmin",
      "outputs": [
        {
          "internalType": "bytes32",
          "name": "",
          "type": "bytes32"
        }
      ],
      "stateMutability": "view",
      "type": "function"
    },
    {
      "inputs": [
        {
          "internalType": "address",
          "name": "_account",
          "type": "address"
        }
      ],
      "name": "grantControllerRoleByMarketManager",
      "outputs": [],
      "stateMutability": "nonpayable",
      "type": "function"
    },
    {
      "inputs": [
        {
          "internalType": "bytes32",
          "name": "role",
          "type": "bytes32"
        },
        {
          "internalType": "address",
          "name": "account",
          "type": "address"
        }
      ],
      "name": "grantRole",
      "outputs": [],
      "stateMutability": "nonpayable",
      "type": "function"
    },
    {
      "inputs": [
        {
          "internalType": "bytes32",
          "name": "role",
          "type": "bytes32"
        },
        {
          "internalType": "address",
          "name": "account",
          "type": "address"
        }
      ],
      "name": "hasRole",
      "outputs": [
        {
          "internalType": "bool",
          "name": "",
          "type": "bool"
        }
      ],
      "stateMutability": "view",
      "type": "function"
    },
    {
      "inputs": [
        {
          "internalType": "address",
          "name": "_rewardToken",
          "type": "address"
        },
        {
          "internalType": "address",
          "name": "_rewardTracker",
          "type": "address"
        }
      ],
      "name": "initialize",
      "outputs": [],
      "stateMutability": "nonpayable",
      "type": "function"
    },
    {
      "inputs": [],
      "name": "lastDistributionTime",
      "outputs": [
        {
          "internalType": "uint256",
          "name": "",
          "type": "uint256"
        }
      ],
      "stateMutability": "view",
      "type": "function"
    },
    {
      "inputs": [],
      "name": "owner",
      "outputs": [
        {
          "internalType": "address",
          "name": "",
          "type": "address"
        }
      ],
      "stateMutability": "view",
      "type": "function"
    },
    {
      "inputs": [],
      "name": "pendingRewards",
      "outputs": [
        {
          "internalType": "uint256",
          "name": "",
          "type": "uint256"
        }
      ],
      "stateMutability": "view",
      "type": "function"
    },
    {
      "inputs": [],
      "name": "renounceOwnership",
      "outputs": [],
      "stateMutability": "nonpayable",
      "type": "function"
    },
    {
      "inputs": [
        {
          "internalType": "bytes32",
          "name": "role",
          "type": "bytes32"
        },
        {
          "internalType": "address",
          "name": "account",
          "type": "address"
        }
      ],
      "name": "renounceRole",
      "outputs": [],
      "stateMutability": "nonpayable",
      "type": "function"
    },
    {
      "inputs": [
        {
          "internalType": "bytes32",
          "name": "role",
          "type": "bytes32"
        },
        {
          "internalType": "address",
          "name": "account",
          "type": "address"
        }
      ],
      "name": "revokeRole",
      "outputs": [],
      "stateMutability": "nonpayable",
      "type": "function"
    },
    {
      "inputs": [],
      "name": "rewardToken",
      "outputs": [
        {
          "internalType": "address",
          "name": "",
          "type": "address"
        }
      ],
      "stateMutability": "view",
      "type": "function"
    },
    {
      "inputs": [],
      "name": "rewardTracker",
      "outputs": [
        {
          "internalType": "address",
          "name": "",
          "type": "address"
        }
      ],
      "stateMutability": "view",
      "type": "function"
    },
    {
      "inputs": [
        {
          "internalType": "uint256",
          "name": "_amount",
          "type": "uint256"
        }
      ],
      "name": "setTokensPerInterval",
      "outputs": [],
      "stateMutability": "nonpayable",
      "type": "function"
    },
    {
      "inputs": [
        {
          "internalType": "bytes4",
          "name": "interfaceId",
          "type": "bytes4"
        }
      ],
      "name": "supportsInterface",
      "outputs": [
        {
          "internalType": "bool",
          "name": "",
          "type": "bool"
        }
      ],
      "stateMutability": "view",
      "type": "function"
    },
    {
      "inputs": [],
      "name": "tokensPerInterval",
      "outputs": [
        {
          "internalType": "uint256",
          "name": "",
          "type": "uint256"
        }
      ],
      "stateMutability": "view",
      "type": "function"
    },
    {
      "inputs": [
        {
          "internalType": "address",
          "name": "to",
          "type": "address"
        }
      ],
      "name": "transferAdmin",
      "outputs": [],
      "stateMutability": "nonpayable",
      "type": "function"
    },
    {
      "inputs": [
        {
          "internalType": "address",
          "name": "newOwner",
          "type": "address"
        }
      ],
      "name": "transferOwnership",
      "outputs": [],
      "stateMutability": "nonpayable",
      "type": "function"
    },
    {
      "inputs": [],
      "name": "updateLastDistributionTime",
      "outputs": [],
      "stateMutability": "nonpayable",
      "type": "function"
    },
    {
      "inputs": [
        {
          "internalType": "address",
          "name": "_token",
          "type": "address"
        },
        {
          "internalType": "address",
          "name": "_account",
          "type": "address"
        },
        {
          "internalType": "uint256",
          "name": "_amount",
          "type": "uint256"
        }
      ],
      "name": "withdrawToken",
      "outputs": [],
      "stateMutability": "nonpayable",
      "type": "function"
    }
  ],
  "bytecode": "0x608060405234801561001057600080fd5b5061001a3361001f565b610071565b600180546001600160a01b038381166001600160a01b0319831681179093556040519116919082907f8be0079c531659141344cd1fd0a4f28419497f9722a3daafe3b4186f6b6457e090600090a35050565b6112dd806100806000396000f3fe608060405234801561001057600080fd5b50600436106101425760003560e01c806375b17350116100b8578063a8d936271161007c578063a8d9362714610297578063d547741f146102a0578063e4fc6b6d146102b3578063eded3fda146102bb578063f2fde38b146102c3578063f7c618c1146102d657600080fd5b806375b173501461024f5780637fe4a698146102585780638da5cb5b1461026b57806391d148541461027c578063a217fddf1461028f57600080fd5b806336568abe1161010a57806336568abe146101db5780633ae6d6eb146101ee578063485cc955146101f65780636bcb411a14610209578063715018a61461023457806375829def1461023c57600080fd5b806301e336671461014757806301ffc9a71461015c57806318e20a0314610184578063248a9ca3146101975780632f2ff15d146101c8575b600080fd5b61015a610155366004610ffe565b6102e9565b005b61016f61016a36600461103a565b61032b565b60405190151581526020015b60405180910390f35b61015a610192366004611064565b610362565b6101ba6101a5366004611064565b60009081526020819052604090206001015490565b60405190815260200161017b565b61015a6101d636600461107d565b61043f565b61015a6101e936600461107d565b610464565b61015a6104e7565b61015a6102043660046110a9565b610518565b60065461021c906001600160a01b031681565b6040516001600160a01b03909116815260200161017b565b61015a610698565b61015a61024a3660046110d3565b6106ac565b6101ba60055481565b61015a6102663660046110d3565b6106d6565b6001546001600160a01b031661021c565b61016f61028a36600461107d565b610700565b6101ba600081565b6101ba60045481565b61015a6102ae36600461107d565b610729565b6101ba61074e565b6101ba6108a4565b61015a6102d13660046110d3565b6108db565b60035461021c906001600160a01b031681565b6103127f241ecf16d79d0f8dbfb92cbc07fe17840425976cf0667f022fe9877caa831b08610954565b6103266001600160a01b038416838361095e565b505050565b60006001600160e01b03198216637965db0b60e01b148061035c57506301ffc9a760e01b6001600160e01b03198316145b92915050565b7fcb6bc1c12dd43bca8d7dd46d975f913325437d0dcd5978e99d515e4ad39b977261038c81610954565b60055460000361039b57426005555b600660009054906101000a90046001600160a01b03166001600160a01b0316633e158b0c6040518163ffffffff1660e01b8152600401600060405180830381600087803b1580156103eb57600080fd5b505af11580156103ff573d6000803e3d6000fd5b5050506004839055506040518281527f98dc76c39aa5a5dcb749f8750a65db3dfa1e14bcc1591a9c16a7420e5da748f89060200160405180910390a15050565b60008281526020819052604090206001015461045a81610954565b61032683836109b0565b6001600160a01b03811633146104d95760405162461bcd60e51b815260206004820152602f60248201527f416363657373436f6e74726f6c3a2063616e206f6e6c792072656e6f756e636560448201526e103937b632b9903337b91039b2b63360891b60648201526084015b60405180910390fd5b6104e38282610a34565b5050565b7fcb6bc1c12dd43bca8d7dd46d975f913325437d0dcd5978e99d515e4ad39b977261051181610954565b5042600555565b600154600160a81b900460ff161580801561053e575060018054600160a01b900460ff16105b8061055e5750303b15801561055e575060018054600160a01b900460ff16145b6105c15760405162461bcd60e51b815260206004820152602e60248201527f496e697469616c697a61626c653a20636f6e747261637420697320616c72656160448201526d191e481a5b9a5d1a585b1a5e995960921b60648201526084016104d0565b6001805460ff60a01b1916600160a01b17905580156105ee576001805460ff60a81b1916600160a81b1790555b6105f733610a99565b6001600160a01b03831661060a57600080fd5b6001600160a01b03821661061d57600080fd5b600380546001600160a01b038086166001600160a01b03199283161790925560068054928516929091169190911790558015610326576001805460ff60a81b191681556040519081527f7f26b83ff96e1f2b6a682f133852f6798a09c465da95921460cefb38474024989060200160405180910390a1505050565b6106a0610abc565b6106aa6000610b16565b565b60006106b781610954565b6106c2600083610b68565b6106cb82610b16565b6104e3600033610a34565b7f8d1089725c0dc266707fa6207730fb801dcd03108bfed7a21099bd303651d2b761014281610954565b6000918252602082815260408084206001600160a01b0393909316845291905290205460ff1690565b60008281526020819052604090206001015461074481610954565b6103268383610a34565b6006546000906001600160a01b031633146107b95760405162461bcd60e51b815260206004820152602560248201527f5265776172644469737472696275746f723a20696e76616c6964206d73672e7360448201526432b73232b960d91b60648201526084016104d0565b60006107c36108a4565b9050806000036107d557600091505090565b426005556003546040516370a0823160e01b81523060048201526000916001600160a01b0316906370a0823190602401602060405180830381865afa158015610822573d6000803e3d6000fd5b505050506040513d601f19601f8201168201806040525081019061084691906110ee565b905080821115610854578091505b60035461086b906001600160a01b0316338461095e565b6040518281527f4def474aca53bf221d07d9ab0f675b3f6d8d2494b8427271bcf43c018ef1eead9060200160405180910390a150905090565b600060055442036108b55750600090565b6000600554426108c5919061111d565b9050806004546108d59190611130565b91505090565b6108e3610abc565b6001600160a01b0381166109485760405162461bcd60e51b815260206004820152602660248201527f4f776e61626c653a206e6577206f776e657220697320746865207a65726f206160448201526564647265737360d01b60648201526084016104d0565b61095181610b16565b50565b6109518133610b72565b604080516001600160a01b038416602482015260448082018490528251808303909101815260649091019091526020810180516001600160e01b031663a9059cbb60e01b179052610326908490610bcb565b6109ba8282610700565b6104e3576000828152602081815260408083206001600160a01b03851684529091529020805460ff191660011790556109f03390565b6001600160a01b0316816001600160a01b0316837f2f8788117e7eff1d82e926ec794901d17c78024a50270940304540a733656f0d60405160405180910390a45050565b610a3e8282610700565b156104e3576000828152602081815260408083206001600160a01b0385168085529252808320805460ff1916905551339285917ff6391f5c32d9c69d2a47ea670b442974b53935d1edc7fd64eb21e047a839171b9190a45050565b42600255610aa633610b16565b610ab1600033610b68565b610951600082610b68565b6001546001600160a01b031633146106aa5760405162461bcd60e51b815260206004820181905260248201527f4f776e61626c653a2063616c6c6572206973206e6f7420746865206f776e657260448201526064016104d0565b600180546001600160a01b038381166001600160a01b0319831681179093556040519116919082907f8be0079c531659141344cd1fd0a4f28419497f9722a3daafe3b4186f6b6457e090600090a35050565b6104e382826109b0565b610b7c8282610700565b6104e357610b8981610c9d565b610b94836020610caf565b604051602001610ba592919061116b565b60408051601f198184030181529082905262461bcd60e51b82526104d0916004016111e0565b6000610c20826040518060400160405280602081526020017f5361666545524332303a206c6f772d6c6576656c2063616c6c206661696c6564815250856001600160a01b0316610e529092919063ffffffff16565b8051909150156103265780806020019051810190610c3e9190611213565b6103265760405162461bcd60e51b815260206004820152602a60248201527f5361666545524332303a204552433230206f7065726174696f6e20646964206e6044820152691bdd081cdd58d8d9595960b21b60648201526084016104d0565b606061035c6001600160a01b03831660145b60606000610cbe836002611130565b610cc9906002611235565b67ffffffffffffffff811115610ce157610ce1611248565b6040519080825280601f01601f191660200182016040528015610d0b576020820181803683370190505b509050600360fc1b81600081518110610d2657610d2661125e565b60200101906001600160f81b031916908160001a905350600f60fb1b81600181518110610d5557610d5561125e565b60200101906001600160f81b031916908160001a9053506000610d79846002611130565b610d84906001611235565b90505b6001811115610dfc576f181899199a1a9b1b9c1cb0b131b232b360811b85600f1660108110610db857610db861125e565b1a60f81b828281518110610dce57610dce61125e565b60200101906001600160f81b031916908160001a90535060049490941c93610df581611274565b9050610d87565b508315610e4b5760405162461bcd60e51b815260206004820181905260248201527f537472696e67733a20686578206c656e67746820696e73756666696369656e7460448201526064016104d0565b9392505050565b6060610e618484600085610e69565b949350505050565b606082471015610eca5760405162461bcd60e51b815260206004820152602660248201527f416464726573733a20696e73756666696369656e742062616c616e636520666f6044820152651c8818d85b1b60d21b60648201526084016104d0565b600080866001600160a01b03168587604051610ee6919061128b565b60006040518083038185875af1925050503d8060008114610f23576040519150601f19603f3d011682016040523d82523d6000602084013e610f28565b606091505b5091509150610f3987838387610f44565b979650505050505050565b60608315610fb3578251600003610fac576001600160a01b0385163b610fac5760405162461bcd60e51b815260206004820152601d60248201527f416464726573733a2063616c6c20746f206e6f6e2d636f6e747261637400000060448201526064016104d0565b5081610e61565b610e618383815115610fc85781518083602001fd5b8060405162461bcd60e51b81526004016104d091906111e0565b80356001600160a01b0381168114610ff957600080fd5b919050565b60008060006060848603121561101357600080fd5b61101c84610fe2565b925061102a60208501610fe2565b9150604084013590509250925092565b60006020828403121561104c57600080fd5b81356001600160e01b031981168114610e4b57600080fd5b60006020828403121561107657600080fd5b5035919050565b6000806040838503121561109057600080fd5b823591506110a060208401610fe2565b90509250929050565b600080604083850312156110bc57600080fd5b6110c583610fe2565b91506110a060208401610fe2565b6000602082840312156110e557600080fd5b610e4b82610fe2565b60006020828403121561110057600080fd5b5051919050565b634e487b7160e01b600052601160045260246000fd5b8181038181111561035c5761035c611107565b808202811582820484141761035c5761035c611107565b60005b8381101561116257818101518382015260200161114a565b50506000910152565b7f416363657373436f6e74726f6c3a206163636f756e74200000000000000000008152600083516111a3816017850160208801611147565b7001034b99036b4b9b9b4b733903937b6329607d1b60179184019182015283516111d4816028840160208801611147565b01602801949350505050565b60208152600082518060208401526111ff816040850160208701611147565b601f01601f19169190910160400192915050565b60006020828403121561122557600080fd5b81518015158114610e4b57600080fd5b8082018082111561035c5761035c611107565b634e487b7160e01b600052604160045260246000fd5b634e487b7160e01b600052603260045260246000fd5b60008161128357611283611107565b506000190190565b6000825161129d818460208701611147565b919091019291505056fea26469706673582212204431332b3154e148e23c5d27bb82ad687f12c92123fb8c562850a0ef8bbd27df64736f6c63430008110033",
  "linkReferences": {},
  "deployedLinkReferences": {}
}