{
  "_format": "hh-sol-artifact-1",
  "contractName": "VaultReward",
  "sourceName": "contracts/vault/VaultReward.sol",
  "abi": [
    {
      "anonymous": false,
      "inputs": [
        {
          "indexed": false,
          "internalType": "address",
          "name": "account",
          "type": "address"
        },
        {
          "indexed": false,
          "internalType": "uint256",
          "name": "amount",
          "type": "uint256"
        }
      ],
      "name": "Harvest",
      "type": "event"
    },
    {
      "anonymous": false,
      "inputs": [
        {
          "indexed": false,
          "internalType": "uint8",
          "name": "version",
          "type": "uint8"
        }
      ],
      "name": "Initialized",
      "type": "event"
    },
    {
      "anonymous": false,
      "inputs": [
        {
          "indexed": false,
          "internalType": "uint256",
          "name": "supply",
          "type": "uint256"
        },
        {
          "indexed": false,
          "internalType": "uint256",
          "name": "cumulativeRewardPerToken",
          "type": "uint256"
        }
      ],
      "name": "LogUpdatePool",
      "type": "event"
    },
    {
      "inputs": [],
      "name": "DEFAULT_ADMIN_ROLE",
      "outputs": [
        {
          "internalType": "bytes32",
          "name": "",
          "type": "bytes32"
        }
      ],
      "stateMutability": "view",
      "type": "function"
    },
    {
      "inputs": [],
      "name": "PRECISION",
      "outputs": [
        {
          "internalType": "uint256",
          "name": "",
          "type": "uint256"
        }
      ],
      "stateMutability": "view",
      "type": "function"
    },
    {
      "inputs": [
        {
          "internalType": "address",
          "name": "newOwner",
          "type": "address"
        }
      ],
      "name": "_transferOwnership",
      "outputs": [],
      "stateMutability": "pure",
      "type": "function"
    },
    {
      "inputs": [],
      "name": "apr",
      "outputs": [
        {
          "internalType": "uint256",
          "name": "",
          "type": "uint256"
        }
      ],
      "stateMutability": "view",
      "type": "function"
    },
    {
      "inputs": [
        {
          "internalType": "address",
          "name": "",
          "type": "address"
        }
      ],
      "name": "averageStakedAmounts",
      "outputs": [
        {
          "internalType": "uint256",
          "name": "",
          "type": "uint256"
        }
      ],
      "stateMutability": "view",
      "type": "function"
    },
    {
      "inputs": [
        {
          "internalType": "contract IERC4626",
          "name": "vault",
          "type": "address"
        },
        {
          "internalType": "address",
          "name": "to",
          "type": "address"
        },
        {
          "internalType": "uint256",
          "name": "amount",
          "type": "uint256"
        },
        {
          "internalType": "uint256",
          "name": "minSharesOut",
          "type": "uint256"
        }
      ],
      "name": "buy",
      "outputs": [
        {
          "internalType": "uint256",
          "name": "sharesOut",
          "type": "uint256"
        }
      ],
      "stateMutability": "nonpayable",
      "type": "function"
    },
    {
      "inputs": [
        {
          "internalType": "contract ICoreVault",
          "name": "vault",
          "type": "address"
        }
      ],
      "name": "buyLpFee",
      "outputs": [
        {
          "internalType": "uint256",
          "name": "",
          "type": "uint256"
        }
      ],
      "stateMutability": "view",
      "type": "function"
    },
    {
      "inputs": [],
      "name": "claimLPReward",
      "outputs": [],
      "stateMutability": "nonpayable",
      "type": "function"
    },
    {
      "inputs": [
        {
          "internalType": "address",
          "name": "_account",
          "type": "address"
        }
      ],
      "name": "claimable",
      "outputs": [
        {
          "internalType": "uint256",
          "name": "",
          "type": "uint256"
        }
      ],
      "stateMutability": "view",
      "type": "function"
    },
    {
      "inputs": [
        {
          "internalType": "address",
          "name": "",
          "type": "address"
        }
      ],
      "name": "claimableReward",
      "outputs": [
        {
          "internalType": "uint256",
          "name": "",
          "type": "uint256"
        }
      ],
      "stateMutability": "view",
      "type": "function"
    },
    {
      "inputs": [],
      "name": "coreVault",
      "outputs": [
        {
          "internalType": "contract ICoreVault",
          "name": "",
          "type": "address"
        }
      ],
      "stateMutability": "view",
      "type": "function"
    },
    {
      "inputs": [],
      "name": "cumulativeRewardPerToken",
      "outputs": [
        {
          "internalType": "uint256",
          "name": "",
          "type": "uint256"
        }
      ],
      "stateMutability": "view",
      "type": "function"
    },
    {
      "inputs": [],
      "name": "distributor",
      "outputs": [
        {
          "internalType": "address",
          "name": "",
          "type": "address"
        }
      ],
      "stateMutability": "view",
      "type": "function"
    },
    {
      "inputs": [],
      "name": "feeRouter",
      "outputs": [
        {
          "internalType": "contract IFeeRouter",
          "name": "",
          "type": "address"
        }
      ],
      "stateMutability": "view",
      "type": "function"
    },
    {
      "inputs": [],
      "name": "getAPR",
      "outputs": [
        {
          "internalType": "uint256",
          "name": "",
          "type": "uint256"
        }
      ],
      "stateMutability": "view",
      "type": "function"
    },
    {
      "inputs": [],
      "name": "getAUM",
      "outputs": [
        {
          "internalType": "uint256",
          "name": "",
          "type": "uint256"
        }
      ],
      "stateMutability": "view",
      "type": "function"
    },
    {
      "inputs": [],
      "name": "getLPPrice",
      "outputs": [
        {
          "internalType": "uint256",
          "name": "",
          "type": "uint256"
        }
      ],
      "stateMutability": "view",
      "type": "function"
    },
    {
      "inputs": [],
      "name": "getLPReward",
      "outputs": [
        {
          "internalType": "uint256",
          "name": "",
          "type": "uint256"
        }
      ],
      "stateMutability": "view",
      "type": "function"
    },
    {
      "inputs": [],
      "name": "getUSDBalance",
      "outputs": [
        {
          "internalType": "uint256",
          "name": "",
          "type": "uint256"
        }
      ],
      "stateMutability": "view",
      "type": "function"
    },
    {
      "inputs": [
        {
          "internalType": "address",
          "name": "_account",
          "type": "address"
        }
      ],
      "name": "grantControllerRoleByMarketManager",
      "outputs": [],
      "stateMutability": "nonpayable",
      "type": "function"
    },
    {
      "inputs": [
        {
          "internalType": "bytes32",
          "name": "role",
          "type": "bytes32"
        },
        {
          "internalType": "address",
          "name": "account",
          "type": "address"
        }
      ],
      "name": "grantRole",
      "outputs": [],
      "stateMutability": "pure",
      "type": "function"
    },
    {
      "inputs": [
        {
          "internalType": "bytes32",
          "name": "role",
          "type": "bytes32"
        },
        {
          "internalType": "address",
          "name": "account",
          "type": "address"
        }
      ],
      "name": "hasRole",
      "outputs": [
        {
          "internalType": "bool",
          "name": "",
          "type": "bool"
        }
      ],
      "stateMutability": "pure",
      "type": "function"
    },
    {
      "inputs": [
        {
          "internalType": "address",
          "name": "_coreVault",
          "type": "address"
        },
        {
          "internalType": "address",
          "name": "_vaultRouter",
          "type": "address"
        },
        {
          "internalType": "address",
          "name": "_feeRouter",
          "type": "address"
        },
        {
          "internalType": "address",
          "name": "_distributor",
          "type": "address"
        }
      ],
      "name": "initialize",
      "outputs": [],
      "stateMutability": "nonpayable",
      "type": "function"
    },
    {
      "inputs": [
        {
          "internalType": "address",
          "name": "",
          "type": "address"
        }
      ],
      "name": "lpEarnedRewards",
      "outputs": [
        {
          "internalType": "uint256",
          "name": "",
          "type": "uint256"
        }
      ],
      "stateMutability": "view",
      "type": "function"
    },
    {
      "inputs": [],
      "name": "pendingRewards",
      "outputs": [
        {
          "internalType": "uint256",
          "name": "",
          "type": "uint256"
        }
      ],
      "stateMutability": "view",
      "type": "function"
    },
    {
      "inputs": [
        {
          "internalType": "uint256",
          "name": "assets",
          "type": "uint256"
        }
      ],
      "name": "previewDeposit",
      "outputs": [
        {
          "internalType": "uint256",
          "name": "",
          "type": "uint256"
        }
      ],
      "stateMutability": "view",
      "type": "function"
    },
    {
      "inputs": [
        {
          "internalType": "uint256",
          "name": "shares",
          "type": "uint256"
        }
      ],
      "name": "previewMint",
      "outputs": [
        {
          "internalType": "uint256",
          "name": "",
          "type": "uint256"
        }
      ],
      "stateMutability": "view",
      "type": "function"
    },
    {
      "inputs": [
        {
          "internalType": "uint256",
          "name": "shares",
          "type": "uint256"
        }
      ],
      "name": "previewRedeem",
      "outputs": [
        {
          "internalType": "uint256",
          "name": "",
          "type": "uint256"
        }
      ],
      "stateMutability": "view",
      "type": "function"
    },
    {
      "inputs": [
        {
          "internalType": "uint256",
          "name": "assets",
          "type": "uint256"
        }
      ],
      "name": "previewWithdraw",
      "outputs": [
        {
          "internalType": "uint256",
          "name": "",
          "type": "uint256"
        }
      ],
      "stateMutability": "view",
      "type": "function"
    },
    {
      "inputs": [
        {
          "internalType": "address",
          "name": "",
          "type": "address"
        }
      ],
      "name": "previousCumulatedRewardPerToken",
      "outputs": [
        {
          "internalType": "uint256",
          "name": "",
          "type": "uint256"
        }
      ],
      "stateMutability": "view",
      "type": "function"
    },
    {
      "inputs": [],
      "name": "priceDecimals",
      "outputs": [
        {
          "internalType": "uint256",
          "name": "",
          "type": "uint256"
        }
      ],
      "stateMutability": "view",
      "type": "function"
    },
    {
      "inputs": [
        {
          "internalType": "bytes32",
          "name": "role",
          "type": "bytes32"
        },
        {
          "internalType": "address",
          "name": "account",
          "type": "address"
        }
      ],
      "name": "revokeRole",
      "outputs": [],
      "stateMutability": "pure",
      "type": "function"
    },
    {
      "inputs": [],
      "name": "rewardToken",
      "outputs": [
        {
          "internalType": "address",
          "name": "",
          "type": "address"
        }
      ],
      "stateMutability": "view",
      "type": "function"
    },
    {
      "inputs": [
        {
          "internalType": "contract IERC4626",
          "name": "vault",
          "type": "address"
        },
        {
          "internalType": "address",
          "name": "to",
          "type": "address"
        },
        {
          "internalType": "uint256",
          "name": "shares",
          "type": "uint256"
        },
        {
          "internalType": "uint256",
          "name": "minAssetsOut",
          "type": "uint256"
        }
      ],
      "name": "sell",
      "outputs": [
        {
          "internalType": "uint256",
          "name": "assetOut",
          "type": "uint256"
        }
      ],
      "stateMutability": "nonpayable",
      "type": "function"
    },
    {
      "inputs": [
        {
          "internalType": "contract ICoreVault",
          "name": "vault",
          "type": "address"
        }
      ],
      "name": "sellLpFee",
      "outputs": [
        {
          "internalType": "uint256",
          "name": "",
          "type": "uint256"
        }
      ],
      "stateMutability": "view",
      "type": "function"
    },
    {
      "inputs": [
        {
          "internalType": "uint256",
          "name": "_apr",
          "type": "uint256"
        }
      ],
      "name": "setAPR",
      "outputs": [],
      "stateMutability": "nonpayable",
      "type": "function"
    },
    {
      "inputs": [],
      "name": "tokensPerInterval",
      "outputs": [
        {
          "internalType": "uint256",
          "name": "",
          "type": "uint256"
        }
      ],
      "stateMutability": "view",
      "type": "function"
    },
    {
      "inputs": [
        {
          "internalType": "address",
          "name": "to",
          "type": "address"
        }
      ],
      "name": "transferAdmin",
      "outputs": [],
      "stateMutability": "nonpayable",
      "type": "function"
    },
    {
      "inputs": [
        {
          "internalType": "address",
          "name": "newOwner",
          "type": "address"
        }
      ],
      "name": "transferOwnership",
      "outputs": [],
      "stateMutability": "pure",
      "type": "function"
    },
    {
      "inputs": [],
      "name": "updateRewards",
      "outputs": [],
      "stateMutability": "nonpayable",
      "type": "function"
    },
    {
      "inputs": [
        {
          "internalType": "address",
          "name": "_account",
          "type": "address"
        }
      ],
      "name": "updateRewardsByAccount",
      "outputs": [],
      "stateMutability": "nonpayable",
      "type": "function"
    },
    {
      "inputs": [],
      "name": "vaultRouter",
      "outputs": [
        {
          "internalType": "contract IVaultRouter",
          "name": "",
          "type": "address"
        }
      ],
      "stateMutability": "view",
      "type": "function"
    }
  ],
  "bytecode": "0x608060405234801561001057600080fd5b506001600255611bda806100256000396000f3fe608060405234801561001057600080fd5b506004361061025e5760003560e01c8063aaf5eb6811610146578063d547741f116100c3578063ef8b30f711610087578063ef8b30f7146104eb578063f29ebf61146104fe578063f2fde38b14610471578063f5fc507614610511578063f7c618c11461051a578063f8c8765e1461052257600080fd5b8063d547741f146102a6578063e547bb91146104a8578063e9503425146104b0578063eb4fe818146104d0578063eded3fda146104e357600080fd5b8063c12010541161010a578063c120105414610461578063c89d5b8b14610469578063d29d44ee14610471578063d37c441c14610482578063d53b26ee1461049557600080fd5b8063aaf5eb68146103ff578063ae8bcdf814610413578063b3d7f6b914610433578063b77905ae14610446578063bfe109281461044e57600080fd5b8063674ce1b5116101df5780638f089d65116101a35780638f089d651461038e57806391d1485414610396578063a217fddf146103bc578063a3180217146103c4578063a8d93627146103e4578063a9d424e2146103ec57600080fd5b8063674ce1b5146103225780636dc7b0a11461034d57806375829def146103555780637fe4a69814610368578063854303cf1461037b57600080fd5b80633e158b0c116102265780633e158b0c146102cb578063402914f5146102d357806344a08411146102e65780634cdad5061461030657806357ded9c91461031957600080fd5b806305300b28146102635780630a28a4771461027e5780631ee2b0b2146102915780632f2ff15d146102a657806331de7d15146102b8575b600080fd5b61026b610535565b6040519081526020015b60405180910390f35b61026b61028c366004611857565b6105a7565b6102a461029f366004611885565b61061e565b005b6102a46102b43660046118a2565b5050565b61026b6102c63660046118d2565b610917565b6102a4610a74565b61026b6102e1366004611885565b610a92565b61026b6102f4366004611885565b60096020526000908152604090205481565b61026b610314366004611857565b610c5c565b61026b60085481565b600454610335906001600160a01b031681565b6040516001600160a01b039091168152602001610275565b61026b610c90565b6102a4610363366004611885565b610cda565b6102a4610376366004611885565b61047f565b6102a4610389366004611857565b600855565b61026b610ce5565b6103ac6103a43660046118a2565b600192915050565b6040519015158152602001610275565b61026b600081565b61026b6103d2366004611885565b600c6020526000908152604090205481565b61026b610d27565b61026b6103fa3660046118d2565b610d71565b61026b6c0c9f2c9cd04674edea4000000081565b61026b610421366004611885565b600a6020526000908152604090205481565b61026b610441366004611857565b610f2a565b61026b610f5e565b600754610335906001600160a01b031681565b61026b6110a4565b60085461026b565b6102a461047f366004611885565b50565b600554610335906001600160a01b031681565b61026b6104a3366004611885565b6110ee565b6102a461112e565b61026b6104be366004611885565b600b6020526000908152604090205481565b61026b6104de366004611885565b6111c5565b61026b611205565b61026b6104f9366004611857565b611210565b600354610335906001600160a01b031681565b61026b60065481565b610335611244565b6102a4610530366004611918565b6112bd565b6005546040805162a6016560e31b815290516000926001600160a01b0316916305300b289160048083019260209291908290030181865afa15801561057e573d6000803e3d6000fd5b505050506040513d601f19601f820116820180604052508101906105a29190611974565b905090565b60048054604051630a28a47760e01b81529182018390526000916001600160a01b0390911690630a28a477906024015b602060405180830381865afa1580156105f4573d6000803e3d6000fd5b505050506040513d601f19601f820116820180604052508101906106189190611974565b92915050565b6007546040805163e4fc6b6d60e01b815290516000926001600160a01b03169163e4fc6b6d916004808301926020929190829003018187875af1158015610669573d6000803e3d6000fd5b505050506040513d601f19601f8201168201806040525081019061068d9190611974565b90506000600460009054906101000a90046001600160a01b03166001600160a01b03166318160ddd6040518163ffffffff1660e01b8152600401602060405180830381865afa1580156106e4573d6000803e3d6000fd5b505050506040513d601f19601f820116820180604052508101906107089190611974565b600654909150811580159061071d5750600083115b15610790578161073a6c0c9f2c9cd04674edea40000000856119a3565b61074491906119ba565b61074e90826119dc565b600681905560408051848152602081018390529192507f055418cabed8a0ec732dd9b1f84e69d3f33a8f9a70d721b7a6962a00c26a4572910160405180910390a15b8060000361079e5750505050565b6001600160a01b038416156109115760006107b885611469565b6001600160a01b038616600090815260096020526040812054919250906c0c9f2c9cd04674edea40000000906107ee90856119ef565b6107f890846119a3565b61080291906119ba565b6001600160a01b0387166000908152600b60205260408120549192509061082a9083906119dc565b6001600160a01b0388166000908152600b60209081526040808320849055600990915290208590559050801580159061086b5750600061086988611469565b115b1561090d576001600160a01b0387166000908152600a60205260408120546108949084906119dc565b90506108e76108ad826108a787876114a1565b906114b4565b6001600160a01b038a166000908152600a6020908152604080832054600c909252909120546108e19185916108a7916114a1565b906114c0565b6001600160a01b0389166000908152600c6020908152604080832093909355600a905220555b5050505b50505050565b60006109216114cc565b604051635d043b2960e11b8152600481018490526001600160a01b0385811660248301819052604483015283919087169063ba087652906064016020604051808303816000875af115801561097a573d6000803e3d6000fd5b505050506040513d601f19601f8201168201806040525081019061099e9190611974565b91508110156109e25760405162461bcd60e51b815260206004820152600b60248201526a26b4b727baba22b93937b960a91b60448201526064015b60405180910390fd5b600480546040516370a0823160e01b81526001600160a01b03878116938201939093529116906370a0823190602401602060405180830381865afa158015610a2e573d6000803e3d6000fd5b505050506040513d601f19601f82011682018060405250810190610a529190611974565b600003610a6257610a6284611523565b610a6c6001600255565b949350505050565b610a7c6114cc565b610a86600061061e565b610a906001600255565b565b600080610a9e83611469565b905080600003610ac55750506001600160a01b03166000908152600b602052604090205490565b6000600460009054906101000a90046001600160a01b03166001600160a01b03166318160ddd6040518163ffffffff1660e01b8152600401602060405180830381865afa158015610b1a573d6000803e3d6000fd5b505050506040513d601f19601f82011682018060405250810190610b3e9190611974565b90506000610bd06c0c9f2c9cd04674edea40000000600760009054906101000a90046001600160a01b03166001600160a01b031663eded3fda6040518163ffffffff1660e01b8152600401602060405180830381865afa158015610ba6573d6000803e3d6000fd5b505050506040513d601f19601f82011682018060405250810190610bca9190611974565b906114a1565b90506000610bea610be183856114b4565b600654906114c0565b6001600160a01b038716600090815260096020526040902054909150610c5290610c33906c0c9f2c9cd04674edea40000000906108a790610c2c9086906115ac565b88906114a1565b6001600160a01b0388166000908152600b6020526040902054906114c0565b9695505050505050565b6004805460405163266d6a8360e11b81529182018390526000916001600160a01b0390911690634cdad506906024016105d7565b60055460408051636dc7b0a160e01b815290516000926001600160a01b031691636dc7b0a19160048083019260209291908290030181865afa15801561057e573d6000803e3d6000fd5b60006102b460003382565b336000908152600a60205260408120548103610d015750600090565b336000908152600b6020908152604080832054600a909252909120546105a291906119ef565b6007546040805163a8d9362760e01b815290516000926001600160a01b03169163a8d936279160048083019260209291908290030181865afa15801561057e573d6000803e3d6000fd5b6000610d7b6114cc565b6000856001600160a01b03166338d52e0f6040518163ffffffff1660e01b8152600401602060405180830381865afa158015610dbb573d6000803e3d6000fd5b505050506040513d601f19601f82011682018060405250810190610ddf9190611a02565b9050610ded813330876115b8565b6004805460405163095ea7b360e01b81526001600160a01b03918216928101929092526024820186905282169063095ea7b3906044016020604051808303816000875af1158015610e42573d6000803e3d6000fd5b505050506040513d601f19601f82011682018060405250810190610e669190611a1f565b50604051636e553f6560e01b8152600481018590526001600160a01b038681166024830152849190881690636e553f65906044016020604051808303816000875af1158015610eb9573d6000803e3d6000fd5b505050506040513d601f19601f82011682018060405250810190610edd9190611974565b9250821015610f1f5760405162461bcd60e51b815260206004820152600e60248201526d26b4b729b430b932b9a2b93937b960911b60448201526064016109d9565b50610a6c6001600255565b6004805460405163b3d7f6b960e01b81529182018390526000916001600160a01b039091169063b3d7f6b9906024016105d7565b60048054604080516278744560e21b8152905160009384936001600160a01b0316926301e1d11492818301926020928290030181865afa158015610fa6573d6000803e3d6000fd5b505050506040513d601f19601f82011682018060405250810190610fca9190611974565b90506000600460009054906101000a90046001600160a01b03166001600160a01b03166318160ddd6040518163ffffffff1660e01b8152600401602060405180830381865afa158015611021573d6000803e3d6000fd5b505050506040513d601f19601f820116820180604052508101906110459190611974565b9050811580611052575080155b1561107c5761105f610535565b61106a90600a611b25565b6110759060016119a3565b9250505090565b80611085610535565b61109090600a611b25565b61109a90846119a3565b61107591906119ba565b60055460408051633048041560e21b815290516000926001600160a01b03169163c12010549160048083019260209291908290030181865afa15801561057e573d6000803e3d6000fd5b6000816001600160a01b0316636fd3acb46040518163ffffffff1660e01b8152600401602060405180830381865afa1580156105f4573d6000803e3d6000fd5b6111366114cc565b600480546040516370a0823160e01b8152339281018390526001600160a01b03909116906370a0823190602401602060405180830381865afa158015611180573d6000803e3d6000fd5b505050506040513d601f19601f820116820180604052508101906111a49190611974565b6000036111b15750610a86565b6111ba33611523565b50610a906001600255565b6000816001600160a01b031663c7b8b46d6040518163ffffffff1660e01b8152600401602060405180830381865afa1580156105f4573d6000803e3d6000fd5b60006105a233610a92565b6004805460405163ef8b30f760e01b81529182018390526000916001600160a01b039091169063ef8b30f7906024016105d7565b6000600460009054906101000a90046001600160a01b03166001600160a01b03166338d52e0f6040518163ffffffff1660e01b8152600401602060405180830381865afa158015611299573d6000803e3d6000fd5b505050506040513d601f19601f820116820180604052508101906105a29190611a02565b600054610100900460ff16158080156112dd5750600054600160ff909116105b806112f75750303b1580156112f7575060005460ff166001145b61135a5760405162461bcd60e51b815260206004820152602e60248201527f496e697469616c697a61626c653a20636f6e747261637420697320616c72656160448201526d191e481a5b9a5d1a585b1a5e995960921b60648201526084016109d9565b6000805460ff19166001179055801561137d576000805461ff0019166101001790555b6001600160a01b03851661139057600080fd5b6001600160a01b0384166113a357600080fd5b6001600160a01b0383166113b657600080fd5b6001600160a01b0382166113c957600080fd5b6113d233611623565b600580546001600160a01b038087166001600160a01b031992831617909255600480548884169083161790556003805486841690831617905560078054928516929091169190911790558015611462576000805461ff0019169055604051600181527f7f26b83ff96e1f2b6a682f133852f6798a09c465da95921460cefb38474024989060200160405180910390a15b5050505050565b600480546040516370a0823160e01b81526001600160a01b0384811693820193909352600092909116906370a08231906024016105d7565b60006114ad82846119a3565b9392505050565b60006114ad82846119ba565b60006114ad82846119dc565b600280540361151d5760405162461bcd60e51b815260206004820152601f60248201527f5265656e7472616e637947756172643a207265656e7472616e742063616c6c0060448201526064016109d9565b60028055565b61152c8161061e565b6001600160a01b0381166000908152600b6020526040812080549190556115668282611556611244565b6001600160a01b0316919061162a565b604080516001600160a01b0384168152602081018390527fc9695243a805adb74c91f28311176c65b417e842d5699893cef56d18bfa48cba910160405180910390a15050565b60006114ad82846119ef565b6040516001600160a01b03808516602483015283166044820152606481018290526109119085906323b872dd60e01b906084015b60408051601f198184030181529190526020810180516001600160e01b03166001600160e01b03199093169290921790915261165f565b4260015550565b6040516001600160a01b03831660248201526044810182905261165a90849063a9059cbb60e01b906064016115ec565b505050565b60006116b4826040518060400160405280602081526020017f5361666545524332303a206c6f772d6c6576656c2063616c6c206661696c6564815250856001600160a01b03166117349092919063ffffffff16565b90508051600014806116d55750808060200190518101906116d59190611a1f565b61165a5760405162461bcd60e51b815260206004820152602a60248201527f5361666545524332303a204552433230206f7065726174696f6e20646964206e6044820152691bdd081cdd58d8d9595960b21b60648201526084016109d9565b6060610a6c848460008585600080866001600160a01b0316858760405161175b9190611b55565b60006040518083038185875af1925050503d8060008114611798576040519150601f19603f3d011682016040523d82523d6000602084013e61179d565b606091505b50915091506117ae878383876117b9565b979650505050505050565b60608315611828578251600003611821576001600160a01b0385163b6118215760405162461bcd60e51b815260206004820152601d60248201527f416464726573733a2063616c6c20746f206e6f6e2d636f6e747261637400000060448201526064016109d9565b5081610a6c565b610a6c838381511561183d5781518083602001fd5b8060405162461bcd60e51b81526004016109d99190611b71565b60006020828403121561186957600080fd5b5035919050565b6001600160a01b038116811461047f57600080fd5b60006020828403121561189757600080fd5b81356114ad81611870565b600080604083850312156118b557600080fd5b8235915060208301356118c781611870565b809150509250929050565b600080600080608085870312156118e857600080fd5b84356118f381611870565b9350602085013561190381611870565b93969395505050506040820135916060013590565b6000806000806080858703121561192e57600080fd5b843561193981611870565b9350602085013561194981611870565b9250604085013561195981611870565b9150606085013561196981611870565b939692955090935050565b60006020828403121561198657600080fd5b5051919050565b634e487b7160e01b600052601160045260246000fd5b80820281158282048414176106185761061861198d565b6000826119d757634e487b7160e01b600052601260045260246000fd5b500490565b808201808211156106185761061861198d565b818103818111156106185761061861198d565b600060208284031215611a1457600080fd5b81516114ad81611870565b600060208284031215611a3157600080fd5b815180151581146114ad57600080fd5b600181815b80851115611a7c578160001904821115611a6257611a6261198d565b80851615611a6f57918102915b93841c9390800290611a46565b509250929050565b600082611a9357506001610618565b81611aa057506000610618565b8160018114611ab65760028114611ac057611adc565b6001915050610618565b60ff841115611ad157611ad161198d565b50506001821b610618565b5060208310610133831016604e8410600b8410161715611aff575081810a610618565b611b098383611a41565b8060001904821115611b1d57611b1d61198d565b029392505050565b60006114ad8383611a84565b60005b83811015611b4c578181015183820152602001611b34565b50506000910152565b60008251611b67818460208701611b31565b9190910192915050565b6020815260008251806020840152611b90816040850160208701611b31565b601f01601f1916919091016040019291505056fea2646970667358221220c96270a08576ea68ecd181d47adec9af7db29ef6ba6ed590a9f70cd60ed38ee264736f6c63430008110033",
  "linkReferences": {},
  "deployedLinkReferences": {}
}