{
  "_format": "hh-sol-artifact-1",
  "contractName": "AutoManager",
  "sourceName": "contracts/am/AutoManager.sol",
  "abi": [
    {
      "inputs": [
        {
          "internalType": "address",
          "name": "token",
          "type": "address"
        }
      ],
      "stateMutability": "nonpayable",
      "type": "constructor"
    },
    {
      "anonymous": false,
      "inputs": [
        {
          "indexed": false,
          "internalType": "uint256",
          "name": "id",
          "type": "uint256"
        }
      ],
      "name": "AddAutoMation",
      "type": "event"
    },
    {
      "anonymous": false,
      "inputs": [
        {
          "indexed": true,
          "internalType": "address",
          "name": "previousOwner",
          "type": "address"
        },
        {
          "indexed": true,
          "internalType": "address",
          "name": "newOwner",
          "type": "address"
        }
      ],
      "name": "OwnershipTransferred",
      "type": "event"
    },
    {
      "anonymous": false,
      "inputs": [
        {
          "indexed": false,
          "internalType": "uint256",
          "name": "id",
          "type": "uint256"
        }
      ],
      "name": "RemoveAutoMation",
      "type": "event"
    },
    {
      "inputs": [],
      "name": "MIN_ADD_FUNDS",
      "outputs": [
        {
          "internalType": "uint256",
          "name": "",
          "type": "uint256"
        }
      ],
      "stateMutability": "view",
      "type": "function"
    },
    {
      "inputs": [
        {
          "internalType": "uint256",
          "name": "id",
          "type": "uint256"
        },
        {
          "internalType": "address",
          "name": "registry",
          "type": "address"
        },
        {
          "internalType": "uint96",
          "name": "minAdd",
          "type": "uint96"
        }
      ],
      "name": "addAutoMation",
      "outputs": [],
      "stateMutability": "nonpayable",
      "type": "function"
    },
    {
      "inputs": [
        {
          "internalType": "bytes",
          "name": "checkData",
          "type": "bytes"
        }
      ],
      "name": "checkUpkeep",
      "outputs": [
        {
          "internalType": "bool",
          "name": "upkeepNeeded",
          "type": "bool"
        },
        {
          "internalType": "bytes",
          "name": "performData",
          "type": "bytes"
        }
      ],
      "stateMutability": "view",
      "type": "function"
    },
    {
      "inputs": [],
      "name": "execLimit",
      "outputs": [
        {
          "internalType": "uint8",
          "name": "",
          "type": "uint8"
        }
      ],
      "stateMutability": "view",
      "type": "function"
    },
    {
      "inputs": [],
      "name": "getIds",
      "outputs": [
        {
          "internalType": "uint256[]",
          "name": "",
          "type": "uint256[]"
        }
      ],
      "stateMutability": "view",
      "type": "function"
    },
    {
      "inputs": [],
      "name": "length",
      "outputs": [
        {
          "internalType": "uint256",
          "name": "",
          "type": "uint256"
        }
      ],
      "stateMutability": "view",
      "type": "function"
    },
    {
      "inputs": [],
      "name": "linkToken",
      "outputs": [
        {
          "internalType": "address",
          "name": "",
          "type": "address"
        }
      ],
      "stateMutability": "view",
      "type": "function"
    },
    {
      "inputs": [
        {
          "internalType": "uint256",
          "name": "",
          "type": "uint256"
        }
      ],
      "name": "minAddFunds",
      "outputs": [
        {
          "internalType": "uint96",
          "name": "",
          "type": "uint96"
        }
      ],
      "stateMutability": "view",
      "type": "function"
    },
    {
      "inputs": [],
      "name": "multiplier",
      "outputs": [
        {
          "internalType": "uint8",
          "name": "",
          "type": "uint8"
        }
      ],
      "stateMutability": "view",
      "type": "function"
    },
    {
      "inputs": [],
      "name": "owner",
      "outputs": [
        {
          "internalType": "address",
          "name": "",
          "type": "address"
        }
      ],
      "stateMutability": "view",
      "type": "function"
    },
    {
      "inputs": [
        {
          "internalType": "bytes",
          "name": "performData",
          "type": "bytes"
        }
      ],
      "name": "performUpkeep",
      "outputs": [],
      "stateMutability": "nonpayable",
      "type": "function"
    },
    {
      "inputs": [
        {
          "internalType": "uint256",
          "name": "",
          "type": "uint256"
        }
      ],
      "name": "registries",
      "outputs": [
        {
          "internalType": "address",
          "name": "",
          "type": "address"
        }
      ],
      "stateMutability": "view",
      "type": "function"
    },
    {
      "inputs": [
        {
          "internalType": "uint256",
          "name": "id",
          "type": "uint256"
        }
      ],
      "name": "removeAutoMation",
      "outputs": [],
      "stateMutability": "nonpayable",
      "type": "function"
    },
    {
      "inputs": [],
      "name": "renounceOwnership",
      "outputs": [],
      "stateMutability": "nonpayable",
      "type": "function"
    },
    {
      "inputs": [
        {
          "internalType": "uint8",
          "name": "limit",
          "type": "uint8"
        }
      ],
      "name": "setLimit",
      "outputs": [],
      "stateMutability": "nonpayable",
      "type": "function"
    },
    {
      "inputs": [
        {
          "internalType": "address",
          "name": "token",
          "type": "address"
        }
      ],
      "name": "setLinkToken",
      "outputs": [],
      "stateMutability": "nonpayable",
      "type": "function"
    },
    {
      "inputs": [
        {
          "internalType": "uint256",
          "name": "id",
          "type": "uint256"
        },
        {
          "internalType": "uint96",
          "name": "minAdd",
          "type": "uint96"
        }
      ],
      "name": "setMinAddFunds",
      "outputs": [],
      "stateMutability": "nonpayable",
      "type": "function"
    },
    {
      "inputs": [
        {
          "internalType": "uint8",
          "name": "mul",
          "type": "uint8"
        }
      ],
      "name": "setMultiplier",
      "outputs": [],
      "stateMutability": "nonpayable",
      "type": "function"
    },
    {
      "inputs": [
        {
          "internalType": "address",
          "name": "newOwner",
          "type": "address"
        }
      ],
      "name": "transferOwnership",
      "outputs": [],
      "stateMutability": "nonpayable",
      "type": "function"
    },
    {
      "inputs": [
        {
          "internalType": "address",
          "name": "to",
          "type": "address"
        },
        {
          "internalType": "uint256",
          "name": "amount",
          "type": "uint256"
        }
      ],
      "name": "withdraw",
      "outputs": [],
      "stateMutability": "nonpayable",
      "type": "function"
    }
  ],
  "bytecode": "0x60806040526000805461ffff60a01b191661320160a01b17905534801561002557600080fd5b5060405162001a7038038062001a708339810160408190526100469161010e565b61004f336100be565b6001600160a01b0381166100995760405162461bcd60e51b815260206004820152600d60248201526c34b73b30b634b2103a37b5b2b760991b604482015260640160405180910390fd5b600180546001600160a01b0319166001600160a01b039290921691909117905561013e565b600080546001600160a01b038381166001600160a01b0319831681178455604051919092169283917f8be0079c531659141344cd1fd0a4f28419497f9722a3daafe3b4186f6b6457e09190a35050565b60006020828403121561012057600080fd5b81516001600160a01b038116811461013757600080fd5b9392505050565b611922806200014e6000396000f3fe608060405234801561001057600080fd5b506004361061012c5760003560e01c80637265d1d8116100ad578063d890a41111610071578063d890a411146102c7578063ed7bc087146102da578063f2fde38b146102ed578063f3fef3a314610300578063ff3f19b51461031357600080fd5b80637265d1d81461023b57806383d993ce1461027c5780638d54365a1461028f5780638da5cb5b146102a35780639c24ea40146102b457600080fd5b80634585e33b116100f45780634585e33b146101ab57806357970e93146101be5780636347c900146101e95780636e04ff0d14610212578063715018a61461023357600080fd5b80631b3ed722146101315780631df314281461015c5780631f7b6d32146101715780632b105663146101875780633d2a74ae1461019c575b600080fd5b60005461014590600160a01b900460ff1681565b60405160ff90911681526020015b60405180910390f35b61016f61016a3660046112e3565b610326565b005b6101796104ee565b604051908152602001610153565b61018f6104ff565b6040516101539190611325565b610179670de0b6b3a764000081565b61016f6101b9366004611369565b61050b565b6001546101d1906001600160a01b031681565b6040516001600160a01b039091168152602001610153565b6101d16101f73660046113db565b6004602052600090815260409020546001600160a01b031681565b610225610220366004611369565b6106cc565b604051610153929190611444565b61016f61089f565b6102646102493660046113db565b6005602052600090815260409020546001600160601b031681565b6040516001600160601b039091168152602001610153565b61016f61028a36600461145f565b6108b3565b60005461014590600160a81b900460ff1681565b6000546001600160a01b03166101d1565b61016f6102c2366004611482565b610923565b61016f6102d536600461149f565b610993565b61016f6102e83660046113db565b610a68565b61016f6102fb366004611482565b610b32565b61016f61030e3660046114cf565b610bab565b61016f61032136600461145f565b610bce565b61032e610c39565b826000036103705760405162461bcd60e51b815260206004820152600a6024820152691a5b9d985b1a59081a5960b21b60448201526064015b60405180910390fd5b670de0b6b3a7640000816001600160601b031610156103c15760405162461bcd60e51b815260206004820152600d60248201526c696e76616c69642076616c756560981b6044820152606401610367565b6001600160a01b03821661040a5760405162461bcd60e51b815260206004820152601060248201526f696e76616c696420726567697374727960801b6044820152606401610367565b610415600284610c93565b156104625760405162461bcd60e51b815260206004820152601860248201527f6175746f6d6174696f6e20616c726561647920657869737400000000000000006044820152606401610367565b61046d600284610cb0565b50600083815260056020908152604080832080546001600160601b0319166001600160601b038616179055600482529182902080546001600160a01b0319166001600160a01b03861617905590518481527fdb1816ba7c958d1dbf13e9aa8f756f1a91000f321b5f94e63ddd191e34670e32910160405180910390a1505050565b60006104fa6002610cbc565b905090565b60606104fa6002610cc6565b60006105198284018461156c565b9050805160000361055b5760405162461bcd60e51b815260206004820152600c60248201526b69647320697320656d70747960a01b6044820152606401610367565b60005b81518110156106c657600082828151811061057b5761057b611612565b60200260200101519050600061059082610cda565b905080156106b15760008281526004602081815260408084205460015460059093529381902054905163095ea7b360e01b81526001600160a01b039485169381018490526001600160601b0390911660248201529192169063095ea7b3906044016020604051808303816000875af1158015610610573d6000803e3d6000fd5b505050506040513d601f19601f82011682018060405250810190610634919061163d565b506000838152600560205260409081902054905163948108f760e01b8152600481018590526001600160601b0390911660248201526001600160a01b0382169063948108f790604401600060405180830381600087803b15801561069757600080fd5b505af11580156106ab573d6000803e3d6000fd5b50505050505b505080806106be9061166e565b91505061055e565b50505050565b6000606060006106dc6002610cc6565b90506000815167ffffffffffffffff8111156106fa576106fa6114fb565b604051908082528060200260200182016040528015610723578160200160208202803683370190505b5090506000805b8351811080156107455750600054600160a81b900460ff1682105b156107bc57600084828151811061075e5761075e611612565b60200260200101519050600061077382610cda565b905080156107a7578185858151811061078e5761078e611612565b6020908102919091010152836107a38161166e565b9450505b505080806107b49061166e565b91505061072a565b50806000036107d15760009450505050610898565b60008167ffffffffffffffff8111156107ec576107ec6114fb565b604051908082528060200260200182016040528015610815578160200160208202803683370190505b50905060005b8281101561086c5783818151811061083557610835611612565b602002602001015182828151811061084f5761084f611612565b6020908102919091010152806108648161166e565b91505061081b565b508060405160200161087e9190611325565b604051602081830303815290604052945060019550505050505b9250929050565b6108a7610c39565b6108b16000610e06565b565b6108bb610c39565b60008160ff16116109035760405162461bcd60e51b815260206004820152601260248201527134b73b30b634b21036bab63a34b83634b2b960711b6044820152606401610367565b6000805460ff909216600160a01b0260ff60a01b19909216919091179055565b61092b610c39565b6001600160a01b0381166109715760405162461bcd60e51b815260206004820152600d60248201526c34b73b30b634b2103a37b5b2b760991b6044820152606401610367565b600180546001600160a01b0319166001600160a01b0392909216919091179055565b61099b610c39565b6109a6600283610c93565b6109e95760405162461bcd60e51b8152602060048201526014602482015273185d5d1bdb585d1a5bdb881b9bdd08195e1a5cdd60621b6044820152606401610367565b670de0b6b3a7640000816001600160601b03161015610a3a5760405162461bcd60e51b815260206004820152600d60248201526c696e76616c69642076616c756560981b6044820152606401610367565b60009182526005602052604090912080546001600160601b0319166001600160601b03909216919091179055565b610a70610c39565b610a7b600282610c93565b610abe5760405162461bcd60e51b8152602060048201526014602482015273185d5d1bdb585d1a5bdb881b9bdd08195e1a5cdd60621b6044820152606401610367565b610ac9600282610e56565b50600081815260056020908152604080832080546001600160601b0319169055600482529182902080546001600160a01b031916905590518281527f85f0009f4941297161aef5205aa1aa7cf0471aa75785494355015564302c7fe5910160405180910390a150565b610b3a610c39565b6001600160a01b038116610b9f5760405162461bcd60e51b815260206004820152602660248201527f4f776e61626c653a206e6577206f776e657220697320746865207a65726f206160448201526564647265737360d01b6064820152608401610367565b610ba881610e06565b50565b610bb3610c39565b600154610bca906001600160a01b03168383610e62565b5050565b610bd6610c39565b60008160ff1611610c195760405162461bcd60e51b815260206004820152600d60248201526c1a5b9d985b1a59081b1a5b5a5d609a1b6044820152606401610367565b6000805460ff909216600160a81b0260ff60a81b19909216919091179055565b6000546001600160a01b031633146108b15760405162461bcd60e51b815260206004820181905260248201527f4f776e61626c653a2063616c6c6572206973206e6f7420746865206f776e65726044820152606401610367565b600081815260018301602052604081205415155b90505b92915050565b6000610ca78383610eb9565b6000610caa825490565b60606000610cd383610f08565b9392505050565b6000818152600460208190526040808320549051632d95ef2760e21b81529182018490526001600160a01b0316908290829063b657bc9c90602401602060405180830381865afa158015610d32573d6000803e3d6000fd5b505050506040513d601f19601f82011682018060405250810190610d569190611692565b6040516363e1d0cd60e11b8152600481018690529091506000906001600160a01b0384169063c7c3a19a90602401600060405180830381865afa158015610da1573d6000803e3d6000fd5b505050506040513d6000823e601f3d908101601f19168201604052610dc9919081019061174a565b600054909150610de390600160a01b900460ff1683611869565b6001600160601b031681606001516001600160601b031611159350505050919050565b600080546001600160a01b038381166001600160a01b0319831681178455604051919092169283917f8be0079c531659141344cd1fd0a4f28419497f9722a3daafe3b4186f6b6457e09190a35050565b6000610ca78383610f64565b604080516001600160a01b038416602482015260448082018490528251808303909101815260649091019091526020810180516001600160e01b031663a9059cbb60e01b179052610eb4908490611057565b505050565b6000818152600183016020526040812054610f0057508154600181810184556000848152602080822090930184905584548482528286019093526040902091909155610caa565b506000610caa565b606081600001805480602002602001604051908101604052809291908181526020018280548015610f5857602002820191906000526020600020905b815481526020019060010190808311610f44575b50505050509050919050565b6000818152600183016020526040812054801561104d576000610f88600183611894565b8554909150600090610f9c90600190611894565b9050818114611001576000866000018281548110610fbc57610fbc611612565b9060005260206000200154905080876000018481548110610fdf57610fdf611612565b6000918252602080832090910192909255918252600188019052604090208390555b8554869080611012576110126118a7565b600190038181906000526020600020016000905590558560010160008681526020019081526020016000206000905560019350505050610caa565b6000915050610caa565b60006110ac826040518060400160405280602081526020017f5361666545524332303a206c6f772d6c6576656c2063616c6c206661696c6564815250856001600160a01b03166111299092919063ffffffff16565b805190915015610eb457808060200190518101906110ca919061163d565b610eb45760405162461bcd60e51b815260206004820152602a60248201527f5361666545524332303a204552433230206f7065726174696f6e20646964206e6044820152691bdd081cdd58d8d9595960b21b6064820152608401610367565b60606111388484600085611140565b949350505050565b6060824710156111a15760405162461bcd60e51b815260206004820152602660248201527f416464726573733a20696e73756666696369656e742062616c616e636520666f6044820152651c8818d85b1b60d21b6064820152608401610367565b600080866001600160a01b031685876040516111bd91906118bd565b60006040518083038185875af1925050503d80600081146111fa576040519150601f19603f3d011682016040523d82523d6000602084013e6111ff565b606091505b50915091506112108783838761121b565b979650505050505050565b6060831561128a578251600003611283576001600160a01b0385163b6112835760405162461bcd60e51b815260206004820152601d60248201527f416464726573733a2063616c6c20746f206e6f6e2d636f6e74726163740000006044820152606401610367565b5081611138565b611138838381511561129f5781518083602001fd5b8060405162461bcd60e51b815260040161036791906118d9565b6001600160a01b0381168114610ba857600080fd5b6001600160601b0381168114610ba857600080fd5b6000806000606084860312156112f857600080fd5b83359250602084013561130a816112b9565b9150604084013561131a816112ce565b809150509250925092565b6020808252825182820181905260009190848201906040850190845b8181101561135d57835183529284019291840191600101611341565b50909695505050505050565b6000806020838503121561137c57600080fd5b823567ffffffffffffffff8082111561139457600080fd5b818501915085601f8301126113a857600080fd5b8135818111156113b757600080fd5b8660208285010111156113c957600080fd5b60209290920196919550909350505050565b6000602082840312156113ed57600080fd5b5035919050565b60005b8381101561140f5781810151838201526020016113f7565b50506000910152565b600081518084526114308160208601602086016113f4565b601f01601f19169290920160200192915050565b82151581526040602082015260006111386040830184611418565b60006020828403121561147157600080fd5b813560ff81168114610cd357600080fd5b60006020828403121561149457600080fd5b8135610cd3816112b9565b600080604083850312156114b257600080fd5b8235915060208301356114c4816112ce565b809150509250929050565b600080604083850312156114e257600080fd5b82356114ed816112b9565b946020939093013593505050565b634e487b7160e01b600052604160045260246000fd5b604051610140810167ffffffffffffffff81118282101715611535576115356114fb565b60405290565b604051601f8201601f1916810167ffffffffffffffff81118282101715611564576115646114fb565b604052919050565b6000602080838503121561157f57600080fd5b823567ffffffffffffffff8082111561159757600080fd5b818501915085601f8301126115ab57600080fd5b8135818111156115bd576115bd6114fb565b8060051b91506115ce84830161153b565b81815291830184019184810190888411156115e857600080fd5b938501935b83851015611606578435825293850193908501906115ed565b98975050505050505050565b634e487b7160e01b600052603260045260246000fd5b8051801515811461163857600080fd5b919050565b60006020828403121561164f57600080fd5b610ca782611628565b634e487b7160e01b600052601160045260246000fd5b60006001820161168057611680611658565b5060010190565b8051611638816112ce565b6000602082840312156116a457600080fd5b8151610cd3816112ce565b8051611638816112b9565b805163ffffffff8116811461163857600080fd5b600082601f8301126116df57600080fd5b815167ffffffffffffffff8111156116f9576116f96114fb565b61170c601f8201601f191660200161153b565b81815284602083860101111561172157600080fd5b6111388260208301602087016113f4565b805167ffffffffffffffff8116811461163857600080fd5b60006020828403121561175c57600080fd5b815167ffffffffffffffff8082111561177457600080fd5b90830190610140828603121561178957600080fd5b611791611511565b61179a836116af565b81526117a8602084016116ba565b60208201526040830151828111156117bf57600080fd5b6117cb878286016116ce565b6040830152506117dd60608401611687565b60608201526117ee608084016116af565b60808201526117ff60a08401611732565b60a082015261181060c084016116ba565b60c082015261182160e08401611687565b60e0820152610100611834818501611628565b90820152610120838101518381111561184c57600080fd5b611858888287016116ce565b918301919091525095945050505050565b6001600160601b0381811683821602808216919082811461188c5761188c611658565b505092915050565b81810381811115610caa57610caa611658565b634e487b7160e01b600052603160045260246000fd5b600082516118cf8184602087016113f4565b9190910192915050565b602081526000610ca7602083018461141856fea2646970667358221220f5507bf1dd063b9720638deddc68b591484d3c134fabc871dbd3c29bd42393bc64736f6c63430008110033",
  "linkReferences": {},
  "deployedLinkReferences": {}
}