{
  "_format": "hh-sol-artifact-1",
  "contractName": "GlobalValid",
  "sourceName": "contracts/market/GlobalValid.sol",
  "abi": [
    {
      "inputs": [],
      "stateMutability": "nonpayable",
      "type": "constructor"
    },
    {
      "anonymous": false,
      "inputs": [
        {
          "indexed": false,
          "internalType": "uint8",
          "name": "version",
          "type": "uint8"
        }
      ],
      "name": "Initialized",
      "type": "event"
    },
    {
      "anonymous": false,
      "inputs": [
        {
          "indexed": true,
          "internalType": "address",
          "name": "previousOwner",
          "type": "address"
        },
        {
          "indexed": true,
          "internalType": "address",
          "name": "newOwner",
          "type": "address"
        }
      ],
      "name": "OwnershipTransferred",
      "type": "event"
    },
    {
      "anonymous": false,
      "inputs": [
        {
          "indexed": true,
          "internalType": "bytes32",
          "name": "role",
          "type": "bytes32"
        },
        {
          "indexed": true,
          "internalType": "bytes32",
          "name": "previousAdminRole",
          "type": "bytes32"
        },
        {
          "indexed": true,
          "internalType": "bytes32",
          "name": "newAdminRole",
          "type": "bytes32"
        }
      ],
      "name": "RoleAdminChanged",
      "type": "event"
    },
    {
      "anonymous": false,
      "inputs": [
        {
          "indexed": true,
          "internalType": "bytes32",
          "name": "role",
          "type": "bytes32"
        },
        {
          "indexed": true,
          "internalType": "address",
          "name": "account",
          "type": "address"
        },
        {
          "indexed": true,
          "internalType": "address",
          "name": "sender",
          "type": "address"
        }
      ],
      "name": "RoleGranted",
      "type": "event"
    },
    {
      "anonymous": false,
      "inputs": [
        {
          "indexed": true,
          "internalType": "bytes32",
          "name": "role",
          "type": "bytes32"
        },
        {
          "indexed": true,
          "internalType": "address",
          "name": "account",
          "type": "address"
        },
        {
          "indexed": true,
          "internalType": "address",
          "name": "sender",
          "type": "address"
        }
      ],
      "name": "RoleRevoked",
      "type": "event"
    },
    {
      "inputs": [],
      "name": "BASIS_POINTS_DIVISOR",
      "outputs": [
        {
          "internalType": "uint256",
          "name": "",
          "type": "uint256"
        }
      ],
      "stateMutability": "view",
      "type": "function"
    },
    {
      "inputs": [],
      "name": "DEFAULT_ADMIN_ROLE",
      "outputs": [
        {
          "internalType": "bytes32",
          "name": "",
          "type": "bytes32"
        }
      ],
      "stateMutability": "view",
      "type": "function"
    },
    {
      "inputs": [
        {
          "components": [
            {
              "internalType": "address",
              "name": "market",
              "type": "address"
            },
            {
              "internalType": "uint256",
              "name": "sizeDelta",
              "type": "uint256"
            },
            {
              "internalType": "bool",
              "name": "isLong",
              "type": "bool"
            },
            {
              "internalType": "uint256",
              "name": "globalLongSizes",
              "type": "uint256"
            },
            {
              "internalType": "uint256",
              "name": "globalShortSizes",
              "type": "uint256"
            },
            {
              "internalType": "uint256",
              "name": "userLongSizes",
              "type": "uint256"
            },
            {
              "internalType": "uint256",
              "name": "userShortSizes",
              "type": "uint256"
            },
            {
              "internalType": "uint256",
              "name": "marketLongSizes",
              "type": "uint256"
            },
            {
              "internalType": "uint256",
              "name": "marketShortSizes",
              "type": "uint256"
            },
            {
              "internalType": "uint256",
              "name": "aum",
              "type": "uint256"
            }
          ],
          "internalType": "struct GlobalDataTypes.ValidParams",
          "name": "params",
          "type": "tuple"
        }
      ],
      "name": "getMaxIncreasePositionSize",
      "outputs": [
        {
          "internalType": "uint256",
          "name": "",
          "type": "uint256"
        }
      ],
      "stateMutability": "view",
      "type": "function"
    },
    {
      "inputs": [
        {
          "internalType": "bytes32",
          "name": "role",
          "type": "bytes32"
        }
      ],
      "name": "getRoleAdmin",
      "outputs": [
        {
          "internalType": "bytes32",
          "name": "",
          "type": "bytes32"
        }
      ],
      "stateMutability": "view",
      "type": "function"
    },
    {
      "inputs": [
        {
          "internalType": "address",
          "name": "_account",
          "type": "address"
        }
      ],
      "name": "grantControllerRoleByMarketManager",
      "outputs": [],
      "stateMutability": "nonpayable",
      "type": "function"
    },
    {
      "inputs": [
        {
          "internalType": "bytes32",
          "name": "role",
          "type": "bytes32"
        },
        {
          "internalType": "address",
          "name": "account",
          "type": "address"
        }
      ],
      "name": "grantRole",
      "outputs": [],
      "stateMutability": "nonpayable",
      "type": "function"
    },
    {
      "inputs": [
        {
          "internalType": "bytes32",
          "name": "role",
          "type": "bytes32"
        },
        {
          "internalType": "address",
          "name": "account",
          "type": "address"
        }
      ],
      "name": "hasRole",
      "outputs": [
        {
          "internalType": "bool",
          "name": "",
          "type": "bool"
        }
      ],
      "stateMutability": "view",
      "type": "function"
    },
    {
      "inputs": [
        {
          "components": [
            {
              "internalType": "address",
              "name": "market",
              "type": "address"
            },
            {
              "internalType": "uint256",
              "name": "sizeDelta",
              "type": "uint256"
            },
            {
              "internalType": "bool",
              "name": "isLong",
              "type": "bool"
            },
            {
              "internalType": "uint256",
              "name": "globalLongSizes",
              "type": "uint256"
            },
            {
              "internalType": "uint256",
              "name": "globalShortSizes",
              "type": "uint256"
            },
            {
              "internalType": "uint256",
              "name": "userLongSizes",
              "type": "uint256"
            },
            {
              "internalType": "uint256",
              "name": "userShortSizes",
              "type": "uint256"
            },
            {
              "internalType": "uint256",
              "name": "marketLongSizes",
              "type": "uint256"
            },
            {
              "internalType": "uint256",
              "name": "marketShortSizes",
              "type": "uint256"
            },
            {
              "internalType": "uint256",
              "name": "aum",
              "type": "uint256"
            }
          ],
          "internalType": "struct GlobalDataTypes.ValidParams",
          "name": "params",
          "type": "tuple"
        }
      ],
      "name": "isIncreasePosition",
      "outputs": [
        {
          "internalType": "bool",
          "name": "",
          "type": "bool"
        }
      ],
      "stateMutability": "view",
      "type": "function"
    },
    {
      "inputs": [
        {
          "internalType": "address",
          "name": "",
          "type": "address"
        }
      ],
      "name": "maxMarketSizeLimit",
      "outputs": [
        {
          "internalType": "uint256",
          "name": "",
          "type": "uint256"
        }
      ],
      "stateMutability": "view",
      "type": "function"
    },
    {
      "inputs": [],
      "name": "maxNetSizeLimit",
      "outputs": [
        {
          "internalType": "uint256",
          "name": "",
          "type": "uint256"
        }
      ],
      "stateMutability": "view",
      "type": "function"
    },
    {
      "inputs": [],
      "name": "maxSizeLimit",
      "outputs": [
        {
          "internalType": "uint256",
          "name": "",
          "type": "uint256"
        }
      ],
      "stateMutability": "view",
      "type": "function"
    },
    {
      "inputs": [],
      "name": "maxUserNetSizeLimit",
      "outputs": [
        {
          "internalType": "uint256",
          "name": "",
          "type": "uint256"
        }
      ],
      "stateMutability": "view",
      "type": "function"
    },
    {
      "inputs": [],
      "name": "owner",
      "outputs": [
        {
          "internalType": "address",
          "name": "",
          "type": "address"
        }
      ],
      "stateMutability": "view",
      "type": "function"
    },
    {
      "inputs": [],
      "name": "renounceOwnership",
      "outputs": [],
      "stateMutability": "nonpayable",
      "type": "function"
    },
    {
      "inputs": [
        {
          "internalType": "bytes32",
          "name": "role",
          "type": "bytes32"
        },
        {
          "internalType": "address",
          "name": "account",
          "type": "address"
        }
      ],
      "name": "renounceRole",
      "outputs": [],
      "stateMutability": "nonpayable",
      "type": "function"
    },
    {
      "inputs": [
        {
          "internalType": "bytes32",
          "name": "role",
          "type": "bytes32"
        },
        {
          "internalType": "address",
          "name": "account",
          "type": "address"
        }
      ],
      "name": "revokeRole",
      "outputs": [],
      "stateMutability": "nonpayable",
      "type": "function"
    },
    {
      "inputs": [
        {
          "internalType": "address",
          "name": "market",
          "type": "address"
        },
        {
          "internalType": "uint256",
          "name": "limit",
          "type": "uint256"
        }
      ],
      "name": "setMaxMarketSizeLimit",
      "outputs": [],
      "stateMutability": "nonpayable",
      "type": "function"
    },
    {
      "inputs": [
        {
          "internalType": "uint256",
          "name": "limit",
          "type": "uint256"
        }
      ],
      "name": "setMaxNetSizeLimit",
      "outputs": [],
      "stateMutability": "nonpayable",
      "type": "function"
    },
    {
      "inputs": [
        {
          "internalType": "uint256",
          "name": "limit",
          "type": "uint256"
        }
      ],
      "name": "setMaxSizeLimit",
      "outputs": [],
      "stateMutability": "nonpayable",
      "type": "function"
    },
    {
      "inputs": [
        {
          "internalType": "uint256",
          "name": "limit",
          "type": "uint256"
        }
      ],
      "name": "setMaxUserNetSizeLimit",
      "outputs": [],
      "stateMutability": "nonpayable",
      "type": "function"
    },
    {
      "inputs": [
        {
          "internalType": "bytes4",
          "name": "interfaceId",
          "type": "bytes4"
        }
      ],
      "name": "supportsInterface",
      "outputs": [
        {
          "internalType": "bool",
          "name": "",
          "type": "bool"
        }
      ],
      "stateMutability": "view",
      "type": "function"
    },
    {
      "inputs": [
        {
          "internalType": "address",
          "name": "to",
          "type": "address"
        }
      ],
      "name": "transferAdmin",
      "outputs": [],
      "stateMutability": "nonpayable",
      "type": "function"
    },
    {
      "inputs": [
        {
          "internalType": "address",
          "name": "newOwner",
          "type": "address"
        }
      ],
      "name": "transferOwnership",
      "outputs": [],
      "stateMutability": "nonpayable",
      "type": "function"
    }
  ],
  "bytecode": "0x60806040526127106003556127106004556127106005553480156200002357600080fd5b503362000030816200004d565b62000046816200009f60201b620008431760201c565b506200017b565b600180546001600160a01b038381166001600160a01b0319831681179093556040519116919082907f8be0079c531659141344cd1fd0a4f28419497f9722a3daafe3b4186f6b6457e090600090a35050565b42600255620000ae336200004d565b620000bb600033620000cb565b620000c8600082620000cb565b50565b620000d78282620000db565b5050565b6000828152602081815260408083206001600160a01b038516845290915290205460ff16620000d7576000828152602081815260408083206001600160a01b03851684529091529020805460ff19166001179055620001373390565b6001600160a01b0316816001600160a01b0316837f2f8788117e7eff1d82e926ec794901d17c78024a50270940304540a733656f0d60405160405180910390a45050565b6111ed806200018b6000396000f3fe608060405234801561001057600080fd5b506004361061014d5760003560e01c8063715018a6116100c35780639835b9af1161007c5780639835b9af146102c0578063a217fddf146102c9578063c6cc354f146102d1578063d547741f146102da578063f075fd0f146102ed578063f2fde38b1461030057600080fd5b8063715018a61461025157806375829def146102595780637fe4a6981461026c5780638050e32f1461027f5780638da5cb5b1461029257806391d14854146102ad57600080fd5b80632f2ff15d116101155780632f2ff15d146101dc57806336568abe146101ef57806345e589781461020257806345f304fd1461020b57806366447cb41461022b5780636b2feea21461023e57600080fd5b806301ffc9a714610152578063126082cf1461017a578063248a9ca31461019157806328c7b510146101b45780632e3d1499146101c7575b600080fd5b610165610160366004610e11565b610313565b60405190151581526020015b60405180910390f35b61018361271081565b604051908152602001610171565b61018361019f366004610e3b565b60009081526020819052604090206001015490565b6101656101c2366004610ece565b61034a565b6101da6101d5366004610f63565b61037b565b005b6101da6101ea366004610f8d565b61049f565b6101da6101fd366004610f8d565b6104c9565b61018360055481565b610183610219366004610fb9565b60066020526000908152604090205481565b6101da610239366004610e3b565b610547565b6101da61024c366004610e3b565b6105dd565b6101da610673565b6101da610267366004610fb9565b610687565b6101da61027a366004610fb9565b6106b1565b61018361028d366004610ece565b6106db565b6001546040516001600160a01b039091168152602001610171565b6101656102bb366004610f8d565b6106e6565b61018360035481565b610183600081565b61018360045481565b6101da6102e8366004610f8d565b61070f565b6101da6102fb366004610e3b565b610734565b6101da61030e366004610fb9565b6107ca565b60006001600160e01b03198216637965db0b60e01b148061034457506301ffc9a760e01b6001600160e01b03198316145b92915050565b6000816020015160000361036057506001919050565b600061036b83610866565b6020909301519092101592915050565b600080516020611198833981519152600061039681336106e6565b905080156103db5762015180600254426103b09190610fea565b106103d65760405162461bcd60e51b81526004016103cd90610ffd565b60405180910390fd5b6103e5565b6103e58233610947565b6001600160a01b0384166104315760405162461bcd60e51b815260206004820152601360248201527211db1bd8985b15985b1a590e885b585c9ad95d606a1b60448201526064016103cd565b600083116104815760405162461bcd60e51b815260206004820152601760248201527f476c6f62616c56616c69643a2173697a65206c696d697400000000000000000060448201526064016103cd565b50506001600160a01b03909116600090815260066020526040902055565b6000828152602081905260409020600101546104ba816109a0565b6104c483836109aa565b505050565b6001600160a01b03811633146105395760405162461bcd60e51b815260206004820152602f60248201527f416363657373436f6e74726f6c3a2063616e206f6e6c792072656e6f756e636560448201526e103937b632b9903337b91039b2b63360891b60648201526084016103cd565b6105438282610a2e565b5050565b600080516020611198833981519152600061056281336106e6565b9050801561059e57620151806002544261057c9190610fea565b106105995760405162461bcd60e51b81526004016103cd90610ffd565b6105a8565b6105a88233610947565b6000831180156105ba57506127108311155b6105d65760405162461bcd60e51b81526004016103cd90611025565b5050600355565b60008051602061119883398151915260006105f881336106e6565b905080156106345762015180600254426106129190610fea565b1061062f5760405162461bcd60e51b81526004016103cd90610ffd565b61063e565b61063e8233610947565b60008311801561065057506127108311155b61066c5760405162461bcd60e51b81526004016103cd90611025565b5050600455565b61067b610a93565b6106856000610aed565b565b6000610692816109a0565b61069d600083610b3f565b6106a682610aed565b610543600033610a2e565b7f8d1089725c0dc266707fa6207730fb801dcd03108bfed7a21099bd303651d2b761014d816109a0565b600061034482610866565b6000918252602082815260408084206001600160a01b0393909316845291905290205460ff1690565b60008281526020819052604090206001015461072a816109a0565b6104c48383610a2e565b600080516020611198833981519152600061074f81336106e6565b9050801561078b5762015180600254426107699190610fea565b106107865760405162461bcd60e51b81526004016103cd90610ffd565b610795565b6107958233610947565b6000831180156107a757506127108311155b6107c35760405162461bcd60e51b81526004016103cd90611025565b5050600555565b6107d2610a93565b6001600160a01b0381166108375760405162461bcd60e51b815260206004820152602660248201527f4f776e61626c653a206e6577206f776e657220697320746865207a65726f206160448201526564647265737360d01b60648201526084016103cd565b61084081610aed565b50565b4260025561085033610aed565b61085b600033610b3f565b610840600082610b3f565b600080610886836060015184608001518561012001518660400151610b49565b9050806000036108995750600092915050565b60006108b8846060015185608001518661012001518760400151610ba3565b9050806000036108cc575060009392505050565b818110156108d8578091505b6108f58460a001518560c001518661012001518760400151610bf2565b905080600003610909575060009392505050565b81811015610915578091505b610932846000015185604001518660e00151876101000151610c17565b905081811015610940578091505b5092915050565b61095182826106e6565b6105435761095e81610c5c565b610969836020610c6e565b60405160200161097a929190611076565b60408051601f198184030181529082905262461bcd60e51b82526103cd916004016110eb565b6108408133610947565b6109b482826106e6565b610543576000828152602081815260408083206001600160a01b03851684529091529020805460ff191660011790556109ea3390565b6001600160a01b0316816001600160a01b0316837f2f8788117e7eff1d82e926ec794901d17c78024a50270940304540a733656f0d60405160405180910390a45050565b610a3882826106e6565b15610543576000828152602081815260408083206001600160a01b0385168085529252808320805460ff1916905551339285917ff6391f5c32d9c69d2a47ea670b442974b53935d1edc7fd64eb21e047a839171b9190a45050565b6001546001600160a01b031633146106855760405162461bcd60e51b815260206004820181905260248201527f4f776e61626c653a2063616c6c6572206973206e6f7420746865206f776e657260448201526064016103cd565b600180546001600160a01b038381166001600160a01b0319831681179093556040519116919082907f8be0079c531659141344cd1fd0a4f28419497f9722a3daafe3b4186f6b6457e090600090a35050565b61054382826109aa565b60008082610b575784610b59565b855b9050600061271060035486610b6e919061111e565b610b789190611135565b9050808210610b8c57600092505050610b9b565b610b968282610fea565b925050505b949350505050565b60008082610bb15784610bb3565b855b9050600061271060045486610bc8919061111e565b610bd29190611135565b905083610be857610be38782611157565b610b78565b610b788682611157565b60008082610c005784610c02565b855b9050600061271060055486610bc8919061111e565b6001600160a01b0384166000908152600660205260408120548185610c3c5783610c3e565b845b9050818110610c5257600092505050610b9b565b610b968183610fea565b60606103446001600160a01b03831660145b60606000610c7d83600261111e565b610c88906002611157565b67ffffffffffffffff811115610ca057610ca0610e54565b6040519080825280601f01601f191660200182016040528015610cca576020820181803683370190505b509050600360fc1b81600081518110610ce557610ce561116a565b60200101906001600160f81b031916908160001a905350600f60fb1b81600181518110610d1457610d1461116a565b60200101906001600160f81b031916908160001a9053506000610d3884600261111e565b610d43906001611157565b90505b6001811115610dbb576f181899199a1a9b1b9c1cb0b131b232b360811b85600f1660108110610d7757610d7761116a565b1a60f81b828281518110610d8d57610d8d61116a565b60200101906001600160f81b031916908160001a90535060049490941c93610db481611180565b9050610d46565b508315610e0a5760405162461bcd60e51b815260206004820181905260248201527f537472696e67733a20686578206c656e67746820696e73756666696369656e7460448201526064016103cd565b9392505050565b600060208284031215610e2357600080fd5b81356001600160e01b031981168114610e0a57600080fd5b600060208284031215610e4d57600080fd5b5035919050565b634e487b7160e01b600052604160045260246000fd5b604051610140810167ffffffffffffffff81118282101715610e9c57634e487b7160e01b600052604160045260246000fd5b60405290565b80356001600160a01b0381168114610eb957600080fd5b919050565b80358015158114610eb957600080fd5b60006101408284031215610ee157600080fd5b610ee9610e6a565b610ef283610ea2565b815260208301356020820152610f0a60408401610ebe565b6040820152606083013560608201526080830135608082015260a083013560a082015260c083013560c082015260e083013560e08201526101008084013581830152506101208084013581830152508091505092915050565b60008060408385031215610f7657600080fd5b610f7f83610ea2565b946020939093013593505050565b60008060408385031215610fa057600080fd5b82359150610fb060208401610ea2565b90509250929050565b600060208284031215610fcb57600080fd5b610e0a82610ea2565b634e487b7160e01b600052601160045260246000fd5b8181038181111561034457610344610fd4565b6020808252600e908201526d1858c81d1a5b59481c185cdcd95960921b604082015260600190565b602080825260139082015272476c6f62616c56616c69643a21706172616d7360681b604082015260600190565b60005b8381101561106d578181015183820152602001611055565b50506000910152565b7f416363657373436f6e74726f6c3a206163636f756e74200000000000000000008152600083516110ae816017850160208801611052565b7001034b99036b4b9b9b4b733903937b6329607d1b60179184019182015283516110df816028840160208801611052565b01602801949350505050565b602081526000825180602084015261110a816040850160208701611052565b601f01601f19169190910160400192915050565b808202811582820484141761034457610344610fd4565b60008261115257634e487b7160e01b600052601260045260246000fd5b500490565b8082018082111561034457610344610fd4565b634e487b7160e01b600052603260045260246000fd5b60008161118f5761118f610fd4565b50600019019056fe275a642cf55cb12407e505ec86398168f240e88df6e66d1649bd09de9071c5dba26469706673582212204052fdeea711369bedf91d178677e201f11e1979fb0cb2ef9f71202984a0b96e64736f6c63430008110033",
  "linkReferences": {},
  "deployedLinkReferences": {}
}