{
  "_format": "hh-sol-artifact-1",
  "contractName": "GlobalValid",
  "sourceName": "contracts/market/GlobalValid.sol",
  "abi": [
    {
      "inputs": [],
      "stateMutability": "nonpayable",
      "type": "constructor"
    },
    {
      "anonymous": false,
      "inputs": [
        {
          "indexed": false,
          "internalType": "uint8",
          "name": "version",
          "type": "uint8"
        }
      ],
      "name": "Initialized",
      "type": "event"
    },
    {
      "inputs": [],
      "name": "BASIS_POINTS_DIVISOR",
      "outputs": [
        {
          "internalType": "uint256",
          "name": "",
          "type": "uint256"
        }
      ],
      "stateMutability": "view",
      "type": "function"
    },
    {
      "inputs": [],
      "name": "DEFAULT_ADMIN_ROLE",
      "outputs": [
        {
          "internalType": "bytes32",
          "name": "",
          "type": "bytes32"
        }
      ],
      "stateMutability": "view",
      "type": "function"
    },
    {
      "inputs": [
        {
          "internalType": "address",
          "name": "newOwner",
          "type": "address"
        }
      ],
      "name": "_transferOwnership",
      "outputs": [],
      "stateMutability": "pure",
      "type": "function"
    },
    {
      "inputs": [
        {
          "components": [
            {
              "internalType": "address",
              "name": "market",
              "type": "address"
            },
            {
              "internalType": "uint256",
              "name": "sizeDelta",
              "type": "uint256"
            },
            {
              "internalType": "bool",
              "name": "isLong",
              "type": "bool"
            },
            {
              "internalType": "uint256",
              "name": "globalLongSizes",
              "type": "uint256"
            },
            {
              "internalType": "uint256",
              "name": "globalShortSizes",
              "type": "uint256"
            },
            {
              "internalType": "uint256",
              "name": "userLongSizes",
              "type": "uint256"
            },
            {
              "internalType": "uint256",
              "name": "userShortSizes",
              "type": "uint256"
            },
            {
              "internalType": "uint256",
              "name": "marketLongSizes",
              "type": "uint256"
            },
            {
              "internalType": "uint256",
              "name": "marketShortSizes",
              "type": "uint256"
            },
            {
              "internalType": "uint256",
              "name": "aum",
              "type": "uint256"
            }
          ],
          "internalType": "struct GlobalDataTypes.ValidParams",
          "name": "params",
          "type": "tuple"
        }
      ],
      "name": "getMaxIncreasePositionSize",
      "outputs": [
        {
          "internalType": "uint256",
          "name": "",
          "type": "uint256"
        }
      ],
      "stateMutability": "view",
      "type": "function"
    },
    {
      "inputs": [
        {
          "internalType": "address",
          "name": "_account",
          "type": "address"
        }
      ],
      "name": "grantControllerRoleByMarketManager",
      "outputs": [],
      "stateMutability": "nonpayable",
      "type": "function"
    },
    {
      "inputs": [
        {
          "internalType": "bytes32",
          "name": "role",
          "type": "bytes32"
        },
        {
          "internalType": "address",
          "name": "account",
          "type": "address"
        }
      ],
      "name": "grantRole",
      "outputs": [],
      "stateMutability": "pure",
      "type": "function"
    },
    {
      "inputs": [
        {
          "internalType": "bytes32",
          "name": "role",
          "type": "bytes32"
        },
        {
          "internalType": "address",
          "name": "account",
          "type": "address"
        }
      ],
      "name": "hasRole",
      "outputs": [
        {
          "internalType": "bool",
          "name": "",
          "type": "bool"
        }
      ],
      "stateMutability": "pure",
      "type": "function"
    },
    {
      "inputs": [
        {
          "components": [
            {
              "internalType": "address",
              "name": "market",
              "type": "address"
            },
            {
              "internalType": "uint256",
              "name": "sizeDelta",
              "type": "uint256"
            },
            {
              "internalType": "bool",
              "name": "isLong",
              "type": "bool"
            },
            {
              "internalType": "uint256",
              "name": "globalLongSizes",
              "type": "uint256"
            },
            {
              "internalType": "uint256",
              "name": "globalShortSizes",
              "type": "uint256"
            },
            {
              "internalType": "uint256",
              "name": "userLongSizes",
              "type": "uint256"
            },
            {
              "internalType": "uint256",
              "name": "userShortSizes",
              "type": "uint256"
            },
            {
              "internalType": "uint256",
              "name": "marketLongSizes",
              "type": "uint256"
            },
            {
              "internalType": "uint256",
              "name": "marketShortSizes",
              "type": "uint256"
            },
            {
              "internalType": "uint256",
              "name": "aum",
              "type": "uint256"
            }
          ],
          "internalType": "struct GlobalDataTypes.ValidParams",
          "name": "params",
          "type": "tuple"
        }
      ],
      "name": "isIncreasePosition",
      "outputs": [
        {
          "internalType": "bool",
          "name": "",
          "type": "bool"
        }
      ],
      "stateMutability": "view",
      "type": "function"
    },
    {
      "inputs": [
        {
          "internalType": "address",
          "name": "",
          "type": "address"
        }
      ],
      "name": "maxMarketSizeLimit",
      "outputs": [
        {
          "internalType": "uint256",
          "name": "",
          "type": "uint256"
        }
      ],
      "stateMutability": "view",
      "type": "function"
    },
    {
      "inputs": [],
      "name": "maxNetSizeLimit",
      "outputs": [
        {
          "internalType": "uint256",
          "name": "",
          "type": "uint256"
        }
      ],
      "stateMutability": "view",
      "type": "function"
    },
    {
      "inputs": [],
      "name": "maxSizeLimit",
      "outputs": [
        {
          "internalType": "uint256",
          "name": "",
          "type": "uint256"
        }
      ],
      "stateMutability": "view",
      "type": "function"
    },
    {
      "inputs": [],
      "name": "maxUserNetSizeLimit",
      "outputs": [
        {
          "internalType": "uint256",
          "name": "",
          "type": "uint256"
        }
      ],
      "stateMutability": "view",
      "type": "function"
    },
    {
      "inputs": [
        {
          "internalType": "bytes32",
          "name": "role",
          "type": "bytes32"
        },
        {
          "internalType": "address",
          "name": "account",
          "type": "address"
        }
      ],
      "name": "revokeRole",
      "outputs": [],
      "stateMutability": "pure",
      "type": "function"
    },
    {
      "inputs": [
        {
          "internalType": "address",
          "name": "market",
          "type": "address"
        },
        {
          "internalType": "uint256",
          "name": "limit",
          "type": "uint256"
        }
      ],
      "name": "setMaxMarketSizeLimit",
      "outputs": [],
      "stateMutability": "nonpayable",
      "type": "function"
    },
    {
      "inputs": [
        {
          "internalType": "uint256",
          "name": "limit",
          "type": "uint256"
        }
      ],
      "name": "setMaxNetSizeLimit",
      "outputs": [],
      "stateMutability": "nonpayable",
      "type": "function"
    },
    {
      "inputs": [
        {
          "internalType": "uint256",
          "name": "limit",
          "type": "uint256"
        }
      ],
      "name": "setMaxSizeLimit",
      "outputs": [],
      "stateMutability": "nonpayable",
      "type": "function"
    },
    {
      "inputs": [
        {
          "internalType": "uint256",
          "name": "limit",
          "type": "uint256"
        }
      ],
      "name": "setMaxUserNetSizeLimit",
      "outputs": [],
      "stateMutability": "nonpayable",
      "type": "function"
    },
    {
      "inputs": [
        {
          "internalType": "address",
          "name": "to",
          "type": "address"
        }
      ],
      "name": "transferAdmin",
      "outputs": [],
      "stateMutability": "nonpayable",
      "type": "function"
    },
    {
      "inputs": [
        {
          "internalType": "address",
          "name": "newOwner",
          "type": "address"
        }
      ],
      "name": "transferOwnership",
      "outputs": [],
      "stateMutability": "pure",
      "type": "function"
    }
  ],
  "bytecode": "0x608060405261271060025561271060035561271060045534801561002257600080fd5b50336100378161003d60201b61044b1760201c565b5061004b565b426001556100483381565b50565b6108c88061005a6000396000f3fe608060405234801561001057600080fd5b50600436106101215760003560e01c80637fe4a698116100ad578063c6cc354f11610071578063c6cc354f1461023b578063d29d44ee14610244578063d547741f1461017a578063f075fd0f14610255578063f2fde38b1461024457600080fd5b80637fe4a698146101ee5780638050e32f1461020157806391d14854146102145780639835b9af1461022a578063a217fddf1461023357600080fd5b806345e58978116100f457806345e589781461018c57806345f304fd1461019557806366447cb4146101b55780636b2feea2146101c857806375829def146101db57600080fd5b8063126082cf1461012657806328c7b510146101425780632e3d1499146101655780632f2ff15d1461017a575b600080fd5b61012f61271081565b6040519081526020015b60405180910390f35b6101556101503660046106aa565b610268565b6040519015158152602001610139565b61017861017336600461073f565b610299565b005b610178610188366004610769565b5050565b61012f60045481565b61012f6101a3366004610795565b60056020526000908152604090205481565b6101786101c33660046107b7565b610366565b6101786101d63660046107b7565b6103a9565b6101786101e9366004610795565b6103ec565b6101786101fc366004610795565b610252565b61012f61020f3660046106aa565b6103f7565b610155610222366004610769565b600192915050565b61012f60025481565b61012f600081565b61012f60035481565b610178610252366004610795565b50565b6101786102633660046107b7565b610408565b6000816020015160000361027e57506001919050565b600061028983610452565b6020909301519092101592915050565b6000805160206108738339815191526001600160a01b0383166102f95760405162461bcd60e51b815260206004820152601360248201527211db1bd8985b15985b1a590e885b585c9ad95d606a1b60448201526064015b60405180910390fd5b600082116103495760405162461bcd60e51b815260206004820152601760248201527f476c6f62616c56616c69643a2173697a65206c696d697400000000000000000060448201526064016102f0565b506001600160a01b03909116600090815260056020526040902055565b60008051602061087383398151915260008211801561038757506127108211155b6103a35760405162461bcd60e51b81526004016102f0906107d0565b50600255565b6000805160206108738339815191526000821180156103ca57506127108211155b6103e65760405162461bcd60e51b81526004016102f0906107d0565b50600355565b600061018860003382565b600061040282610452565b92915050565b60008051602061087383398151915260008211801561042957506127108211155b6104455760405162461bcd60e51b81526004016102f0906107d0565b50600455565b4260015550565b600080610472836060015184608001518561012001518660400151610533565b9050806000036104855750600092915050565b60006104a484606001518560800151866101200151876040015161058d565b9050806000036104b8575060009392505050565b818110156104c4578091505b6104e18460a001518560c0015186610120015187604001516105dc565b9050806000036104f5575060009392505050565b81811015610501578091505b61051e846000015185604001518660e00151876101000151610601565b90508181101561052c578091505b5092915050565b600080826105415784610543565b855b90506000612710600254866105589190610813565b610562919061082a565b905080821061057657600092505050610585565b610580828261084c565b925050505b949350505050565b6000808261059b578461059d565b855b90506000612710600354866105b29190610813565b6105bc919061082a565b9050836105d2576105cd878261085f565b610562565b610562868261085f565b600080826105ea57846105ec565b855b90506000612710600454866105b29190610813565b6001600160a01b03841660009081526005602052604081205481856106265783610628565b845b905081811061063c57600092505050610585565b610580818361084c565b604051610140810167ffffffffffffffff8111828210171561067857634e487b7160e01b600052604160045260246000fd5b60405290565b80356001600160a01b038116811461069557600080fd5b919050565b8035801515811461069557600080fd5b600061014082840312156106bd57600080fd5b6106c5610646565b6106ce8361067e565b8152602083013560208201526106e66040840161069a565b6040820152606083013560608201526080830135608082015260a083013560a082015260c083013560c082015260e083013560e08201526101008084013581830152506101208084013581830152508091505092915050565b6000806040838503121561075257600080fd5b61075b8361067e565b946020939093013593505050565b6000806040838503121561077c57600080fd5b8235915061078c6020840161067e565b90509250929050565b6000602082840312156107a757600080fd5b6107b08261067e565b9392505050565b6000602082840312156107c957600080fd5b5035919050565b602080825260139082015272476c6f62616c56616c69643a21706172616d7360681b604082015260600190565b634e487b7160e01b600052601160045260246000fd5b8082028115828204841417610402576104026107fd565b60008261084757634e487b7160e01b600052601260045260246000fd5b500490565b81810381811115610402576104026107fd565b80820180821115610402576104026107fd56fe275a642cf55cb12407e505ec86398168f240e88df6e66d1649bd09de9071c5dba26469706673582212201bc076c288038832c76c31e661a4185a0f61c7e804211af309e1cf0ce3b97ada64736f6c63430008110033",
  "linkReferences": {},
  "deployedLinkReferences": {}
}