{
  "_format": "hh-sol-artifact-1",
  "contractName": "AutoPriceV2",
  "sourceName": "contracts/am/price.sol",
  "abi": [
    {
      "inputs": [
        {
          "internalType": "address",
          "name": "token",
          "type": "address"
        },
        {
          "internalType": "address",
          "name": "oracle",
          "type": "address"
        },
        {
          "internalType": "uint256",
          "name": "fees",
          "type": "uint256"
        }
      ],
      "stateMutability": "nonpayable",
      "type": "constructor"
    },
    {
      "anonymous": false,
      "inputs": [
        {
          "indexed": true,
          "internalType": "bytes32",
          "name": "id",
          "type": "bytes32"
        }
      ],
      "name": "ChainlinkCancelled",
      "type": "event"
    },
    {
      "anonymous": false,
      "inputs": [
        {
          "indexed": true,
          "internalType": "bytes32",
          "name": "id",
          "type": "bytes32"
        }
      ],
      "name": "ChainlinkFulfilled",
      "type": "event"
    },
    {
      "anonymous": false,
      "inputs": [
        {
          "indexed": true,
          "internalType": "bytes32",
          "name": "id",
          "type": "bytes32"
        }
      ],
      "name": "ChainlinkRequested",
      "type": "event"
    },
    {
      "anonymous": false,
      "inputs": [
        {
          "indexed": true,
          "internalType": "address",
          "name": "from",
          "type": "address"
        },
        {
          "indexed": true,
          "internalType": "address",
          "name": "to",
          "type": "address"
        }
      ],
      "name": "OwnershipTransferRequested",
      "type": "event"
    },
    {
      "anonymous": false,
      "inputs": [
        {
          "indexed": true,
          "internalType": "address",
          "name": "from",
          "type": "address"
        },
        {
          "indexed": true,
          "internalType": "address",
          "name": "to",
          "type": "address"
        }
      ],
      "name": "OwnershipTransferred",
      "type": "event"
    },
    {
      "anonymous": false,
      "inputs": [
        {
          "indexed": true,
          "internalType": "bytes32",
          "name": "requestId",
          "type": "bytes32"
        },
        {
          "indexed": false,
          "internalType": "uint256",
          "name": "volume",
          "type": "uint256"
        }
      ],
      "name": "RequestPrice",
      "type": "event"
    },
    {
      "inputs": [],
      "name": "BASIS_POINTS_DIVISOR",
      "outputs": [
        {
          "internalType": "uint256",
          "name": "",
          "type": "uint256"
        }
      ],
      "stateMutability": "view",
      "type": "function"
    },
    {
      "inputs": [],
      "name": "acceptOwnership",
      "outputs": [],
      "stateMutability": "nonpayable",
      "type": "function"
    },
    {
      "inputs": [
        {
          "internalType": "address",
          "name": "token",
          "type": "address"
        },
        {
          "internalType": "string",
          "name": "url",
          "type": "string"
        },
        {
          "internalType": "string",
          "name": "path",
          "type": "string"
        }
      ],
      "name": "addToken",
      "outputs": [],
      "stateMutability": "nonpayable",
      "type": "function"
    },
    {
      "inputs": [],
      "name": "apiOracle",
      "outputs": [
        {
          "internalType": "address",
          "name": "",
          "type": "address"
        }
      ],
      "stateMutability": "view",
      "type": "function"
    },
    {
      "inputs": [],
      "name": "chainPriceFeed",
      "outputs": [
        {
          "internalType": "address",
          "name": "",
          "type": "address"
        }
      ],
      "stateMutability": "view",
      "type": "function"
    },
    {
      "inputs": [
        {
          "internalType": "bytes",
          "name": "",
          "type": "bytes"
        }
      ],
      "name": "checkUpkeep",
      "outputs": [
        {
          "internalType": "bool",
          "name": "upkeepNeeded",
          "type": "bool"
        },
        {
          "internalType": "bytes",
          "name": "performData",
          "type": "bytes"
        }
      ],
      "stateMutability": "view",
      "type": "function"
    },
    {
      "inputs": [],
      "name": "diff_limit",
      "outputs": [
        {
          "internalType": "uint256",
          "name": "",
          "type": "uint256"
        }
      ],
      "stateMutability": "view",
      "type": "function"
    },
    {
      "inputs": [],
      "name": "fastPriceFeed",
      "outputs": [
        {
          "internalType": "address",
          "name": "",
          "type": "address"
        }
      ],
      "stateMutability": "view",
      "type": "function"
    },
    {
      "inputs": [],
      "name": "fee",
      "outputs": [
        {
          "internalType": "uint256",
          "name": "",
          "type": "uint256"
        }
      ],
      "stateMutability": "view",
      "type": "function"
    },
    {
      "inputs": [
        {
          "internalType": "bytes32",
          "name": "_requestId",
          "type": "bytes32"
        },
        {
          "internalType": "uint256",
          "name": "_price",
          "type": "uint256"
        }
      ],
      "name": "fulfill",
      "outputs": [],
      "stateMutability": "nonpayable",
      "type": "function"
    },
    {
      "inputs": [],
      "name": "jobId",
      "outputs": [
        {
          "internalType": "bytes32",
          "name": "",
          "type": "bytes32"
        }
      ],
      "stateMutability": "view",
      "type": "function"
    },
    {
      "inputs": [
        {
          "internalType": "address",
          "name": "",
          "type": "address"
        }
      ],
      "name": "lastUpdatedBlock",
      "outputs": [
        {
          "internalType": "uint256",
          "name": "",
          "type": "uint256"
        }
      ],
      "stateMutability": "view",
      "type": "function"
    },
    {
      "inputs": [],
      "name": "linkToken",
      "outputs": [
        {
          "internalType": "address",
          "name": "",
          "type": "address"
        }
      ],
      "stateMutability": "view",
      "type": "function"
    },
    {
      "inputs": [],
      "name": "minBlockInterval",
      "outputs": [
        {
          "internalType": "uint256",
          "name": "",
          "type": "uint256"
        }
      ],
      "stateMutability": "view",
      "type": "function"
    },
    {
      "inputs": [],
      "name": "owner",
      "outputs": [
        {
          "internalType": "address",
          "name": "",
          "type": "address"
        }
      ],
      "stateMutability": "view",
      "type": "function"
    },
    {
      "inputs": [
        {
          "internalType": "bytes",
          "name": "performData",
          "type": "bytes"
        }
      ],
      "name": "performUpkeep",
      "outputs": [],
      "stateMutability": "nonpayable",
      "type": "function"
    },
    {
      "inputs": [
        {
          "internalType": "address",
          "name": "",
          "type": "address"
        }
      ],
      "name": "prices",
      "outputs": [
        {
          "internalType": "uint256",
          "name": "",
          "type": "uint256"
        }
      ],
      "stateMutability": "view",
      "type": "function"
    },
    {
      "inputs": [
        {
          "internalType": "address",
          "name": "token",
          "type": "address"
        }
      ],
      "name": "removeToken",
      "outputs": [],
      "stateMutability": "nonpayable",
      "type": "function"
    },
    {
      "inputs": [
        {
          "internalType": "string",
          "name": "url",
          "type": "string"
        },
        {
          "internalType": "string",
          "name": "path",
          "type": "string"
        }
      ],
      "name": "requestPrice",
      "outputs": [
        {
          "internalType": "bytes32",
          "name": "requestId",
          "type": "bytes32"
        }
      ],
      "stateMutability": "nonpayable",
      "type": "function"
    },
    {
      "inputs": [
        {
          "internalType": "bytes32",
          "name": "",
          "type": "bytes32"
        }
      ],
      "name": "requestToken",
      "outputs": [
        {
          "internalType": "address",
          "name": "",
          "type": "address"
        }
      ],
      "stateMutability": "view",
      "type": "function"
    },
    {
      "inputs": [
        {
          "internalType": "address",
          "name": "oracle",
          "type": "address"
        }
      ],
      "name": "setAPIOracle",
      "outputs": [],
      "stateMutability": "nonpayable",
      "type": "function"
    },
    {
      "inputs": [
        {
          "internalType": "address",
          "name": "feed",
          "type": "address"
        }
      ],
      "name": "setFastPriceFeed",
      "outputs": [],
      "stateMutability": "nonpayable",
      "type": "function"
    },
    {
      "inputs": [
        {
          "internalType": "uint256",
          "name": "fees",
          "type": "uint256"
        }
      ],
      "name": "setFee",
      "outputs": [],
      "stateMutability": "nonpayable",
      "type": "function"
    },
    {
      "inputs": [
        {
          "internalType": "address",
          "name": "token",
          "type": "address"
        }
      ],
      "name": "setLinkToken",
      "outputs": [],
      "stateMutability": "nonpayable",
      "type": "function"
    },
    {
      "inputs": [
        {
          "internalType": "uint256",
          "name": "interval",
          "type": "uint256"
        }
      ],
      "name": "setMinBlockInterval",
      "outputs": [],
      "stateMutability": "nonpayable",
      "type": "function"
    },
    {
      "inputs": [
        {
          "internalType": "address",
          "name": "to",
          "type": "address"
        }
      ],
      "name": "transferOwnership",
      "outputs": [],
      "stateMutability": "nonpayable",
      "type": "function"
    },
    {
      "inputs": [
        {
          "internalType": "address",
          "name": "",
          "type": "address"
        }
      ],
      "name": "urls",
      "outputs": [
        {
          "internalType": "string",
          "name": "url",
          "type": "string"
        },
        {
          "internalType": "string",
          "name": "path",
          "type": "string"
        }
      ],
      "stateMutability": "view",
      "type": "function"
    },
    {
      "inputs": [],
      "name": "withdrawLink",
      "outputs": [],
      "stateMutability": "nonpayable",
      "type": "function"
    }
  ],
  "bytecode": "0x60806040526001600455600a6008553480156200001b57600080fd5b506040516200290b3803806200290b8339810160408190526200003e916200037b565b3380600081620000955760405162461bcd60e51b815260206004820152601860248201527f43616e6e6f7420736574206f776e657220746f207a65726f000000000000000060448201526064015b60405180910390fd5b600680546001600160a01b0319166001600160a01b0384811691909117909155811615620000c857620000c881620000fb565b505050620000dc83620001a760201b60201c565b620000e7826200022c565b620000f281620002b1565b505050620003bc565b336001600160a01b03821603620001555760405162461bcd60e51b815260206004820152601760248201527f43616e6e6f74207472616e7366657220746f2073656c6600000000000000000060448201526064016200008c565b600780546001600160a01b0319166001600160a01b03838116918217909255600654604051919216907fed8889f560326eb138920d842192f0eb3dd22b4f139c87a2c57538e05bae127890600090a350565b620001b162000300565b6001600160a01b038116620001fe5760405162461bcd60e51b815260206004820152601260248201527134b73b30b634b2103634b735903a37b5b2b760711b60448201526064016200008c565b600b80546001600160a01b0383166001600160a01b0319918216811790925560028054909116909117905550565b6200023662000300565b6001600160a01b038116620002835760405162461bcd60e51b8152602060048201526012602482015271696e76616c696420415049204f7261636c6560701b60448201526064016200008c565b600c80546001600160a01b0383166001600160a01b0319918216811790925560038054909116909117905550565b620002bb62000300565b60008111620002fb5760405162461bcd60e51b815260206004820152600b60248201526a696e76616c69642066656560a81b60448201526064016200008c565b600d55565b6006546001600160a01b031633146200035c5760405162461bcd60e51b815260206004820152601660248201527f4f6e6c792063616c6c61626c65206279206f776e65720000000000000000000060448201526064016200008c565b565b80516001600160a01b03811681146200037657600080fd5b919050565b6000806000606084860312156200039157600080fd5b6200039c846200035e565b9250620003ac602085016200035e565b9150604084015190509250925092565b61253f80620003cc6000396000f3fe608060405234801561001057600080fd5b50600436106101c45760003560e01c80638da5cb5b116100f9578063cfed246b11610097578063ddca3f4311610071578063ddca3f43146103e8578063e73c2019146103f1578063ee71d95c14610404578063f2fde38b1461041757600080fd5b8063cfed246b14610394578063d6a153f1146103b4578063d888e614146103c757600080fd5b80639c24ea40116100d35780639c24ea401461033e578063add37b7b14610351578063b3606b5614610364578063c2939d971461036d57600080fd5b80638da5cb5b146103125780638dc654a2146103235780638f3fbe6e1461032b57600080fd5b80634585e33b116101665780635fa7b584116101405780635fa7b584146102c357806369fe0e2d146102d65780636e04ff0d146102e957806379ba50971461030a57600080fd5b80634585e33b1461027457806357970e93146102875780635c20fed11461029a57600080fd5b80632536fee7116101a25780632536fee7146102035780632faffd8d146102235780633a849c21146102365780634357855e1461026157600080fd5b806302997dd0146101c9578063126082cf146101e5578063171e7721146101ee575b600080fd5b6101d260085481565b6040519081526020015b60405180910390f35b6101d261271081565b6102016101fc366004611da5565b61042a565b005b6101d2610211366004611da5565b60146020526000908152604090205481565b6101d2610231366004611e64565b610571565b600954610249906001600160a01b031681565b6040516001600160a01b0390911681526020016101dc565b61020161026f366004611ec7565b610644565b610201610282366004611ee9565b6108c2565b600b54610249906001600160a01b031681565b6102496102a8366004611f5a565b6012602052600090815260409020546001600160a01b031681565b6102016102d1366004611da5565b610a71565b6102016102e4366004611f5a565b610b18565b6102fc6102f7366004611ee9565b610b63565b6040516101dc929190611fb9565b610201610bef565b6006546001600160a01b0316610249565b610201610c9d565b600c54610249906001600160a01b031681565b61020161034c366004611da5565b610dde565b600a54610249906001600160a01b031681565b6101d260135481565b6101d27f636139383336366363373331343935376238633031326337326630356165656281565b6101d26103a2366004611da5565b60116020526000908152604090205481565b6102016103c2366004611f5a565b610e5e565b6103da6103d5366004611da5565b610e6b565b6040516101dc929190611fd4565b6101d2600d5481565b6102016103ff366004611ff9565b610f97565b610201610412366004611da5565b61104c565b610201610425366004611da5565b6110cc565b6104326110dd565b6001600160a01b0381166104865760405162461bcd60e51b81526020600482015260166024820152751a5b9d985b1a590819985cdd141c9a58d9481999595960521b60448201526064015b60405180910390fd5b600980546001600160a01b0319166001600160a01b0383169081179091556040805163add37b7b60e01b8152905163add37b7b916004808201926020929091908290030181865afa1580156104df573d6000803e3d6000fd5b505050506040513d601f19601f82011682018060405250810190610503919061206e565b600a80546001600160a01b0319166001600160a01b0392909216918217905561056e5760405162461bcd60e51b815260206004820152601760248201527f696e76616c696420636861696e50726963652066656564000000000000000000604482015260640161047d565b50565b6000806105a67f6361393833363663633733313439353762386330313263373266303561656562306321abc2af60e11b611132565b60408051808201909152600381526219d95d60ea1b60208201529091506105cf90829086611157565b6040805180820190915260048152630e0c2e8d60e31b60208201526105f690829085611157565b60408051808201909152600581526474696d657360d81b60208201526c0c9f2c9cd04674edea400000009061062d9083908361117a565b61063982600d54611198565b925050505b92915050565b60008281526005602052604090205482906001600160a01b031633146106bd5760405162461bcd60e51b815260206004820152602860248201527f536f75726365206d75737420626520746865206f7261636c65206f6620746865604482015267081c995c5d595cdd60c21b606482015260840161047d565b60008181526005602052604080822080546001600160a01b03191690555182917f7cc135e0cebb02c3480ae5d74d377283180a2601f8f644edf7987b009316c63a91a2600082116107405760405162461bcd60e51b815260206004820152600d60248201526c696e76616c696420707269636560981b604482015260640161047d565b60008381526012602052604080822054815160018082528184019093526001600160a01b039091169291816020016020820280368337505060408051600180825281830190925292935060009291506020808301908036833701905050905082826000815181106107b3576107b361208b565b60200260200101906001600160a01b031690816001600160a01b03168152505084816000815181106107e7576107e761208b565b6020908102919091010152600954604051631e09986f60e21b81526001600160a01b039091169063782661bc90610826908590859042906004016120a1565b600060405180830381600087803b15801561084057600080fd5b505af1158015610854573d6000803e3d6000fd5b5050505061086283866111b9565b6000868152601260205260409081902080546001600160a01b03191690555186907f9a8cbabab41362fe534ea197eab0af0bfb16b084f9213b1f15ef6337d97dec15906108b29088815260200190565b60405180910390a2505050505050565b60006108d082840184611da5565b9050600060106000836001600160a01b03166001600160a01b031681526020019081526020016000206040518060400160405290816000820180546109149061212e565b80601f01602080910402602001604051908101604052809291908181526020018280546109409061212e565b801561098d5780601f106109625761010080835404028352916020019161098d565b820191906000526020600020905b81548152906001019060200180831161097057829003601f168201915b505050505081526020016001820180546109a69061212e565b80601f01602080910402602001604051908101604052809291908181526020018280546109d29061212e565b8015610a1f5780601f106109f457610100808354040283529160200191610a1f565b820191906000526020600020905b815481529060010190602001808311610a0257829003601f168201915b50505050508152505090506000610a3e82600001518360200151610571565b600090815260126020526040902080546001600160a01b0319166001600160a01b03949094169390931790925550505050565b610a796110dd565b6001600160a01b038116610abf5760405162461bcd60e51b815260206004820152600d60248201526c34b73b30b634b2103a37b5b2b760991b604482015260640161047d565b610aca600e82611238565b506001600160a01b038116600090815260106020526040812090610aee8282611d02565b610afc600183016000611d02565b50506001600160a01b0316600090815260116020526040812055565b610b206110dd565b60008111610b5e5760405162461bcd60e51b815260206004820152600b60248201526a696e76616c69642066656560a81b604482015260640161047d565b600d55565b600060606000610b73600e61124d565b905060005b81811015610be1576000610b8d600e83611257565b9050610b9881611263565b15610bce57604080516001600160a01b038316602082015201604051602081830303815290604052935060019450505050610be8565b5080610bd981612178565b915050610b78565b5060009250505b9250929050565b6007546001600160a01b03163314610c425760405162461bcd60e51b815260206004820152601660248201527526bab9ba10313290383937b837b9b2b21037bbb732b960511b604482015260640161047d565b600680546001600160a01b0319808216339081179093556007805490911690556040516001600160a01b03909116919082907f8be0079c531659141344cd1fd0a4f28419497f9722a3daafe3b4186f6b6457e090600090a350565b610ca56110dd565b6000610cb96002546001600160a01b031690565b6040516370a0823160e01b81523060048201529091506001600160a01b0382169063a9059cbb90339083906370a0823190602401602060405180830381865afa158015610d0a573d6000803e3d6000fd5b505050506040513d601f19601f82011682018060405250810190610d2e9190612191565b6040516001600160e01b031960e085901b1681526001600160a01b03909216600483015260248201526044016020604051808303816000875af1158015610d79573d6000803e3d6000fd5b505050506040513d601f19601f82011682018060405250810190610d9d91906121aa565b61056e5760405162461bcd60e51b81526020600482015260126024820152712ab730b13632903a37903a3930b739b332b960711b604482015260640161047d565b610de66110dd565b6001600160a01b038116610e315760405162461bcd60e51b815260206004820152601260248201527134b73b30b634b2103634b735903a37b5b2b760711b604482015260640161047d565b600b80546001600160a01b03929092166001600160a01b0319928316811790915560028054909216179055565b610e666110dd565b601355565b601060205260009081526040902080548190610e869061212e565b80601f0160208091040260200160405190810160405280929190818152602001828054610eb29061212e565b8015610eff5780601f10610ed457610100808354040283529160200191610eff565b820191906000526020600020905b815481529060010190602001808311610ee257829003601f168201915b505050505090806001018054610f149061212e565b80601f0160208091040260200160405190810160405280929190818152602001828054610f409061212e565b8015610f8d5780601f10610f6257610100808354040283529160200191610f8d565b820191906000526020600020905b815481529060010190602001808311610f7057829003601f168201915b5050505050905082565b610f9f6110dd565b6001600160a01b038316610fe55760405162461bcd60e51b815260206004820152600d60248201526c34b73b30b634b2103a37b5b2b760991b604482015260640161047d565b610ff0600e84611387565b5060408051808201825283815260208082018490526001600160a01b03861660009081526010909152919091208151829190819061102e908261221a565b5060208201516001820190611043908261221a565b50505050505050565b6110546110dd565b6001600160a01b03811661109f5760405162461bcd60e51b8152602060048201526012602482015271696e76616c696420415049204f7261636c6560701b604482015260640161047d565b600c80546001600160a01b03929092166001600160a01b0319928316811790915560038054909216179055565b6110d46110dd565b61056e8161139c565b6006546001600160a01b031633146111305760405162461bcd60e51b815260206004820152601660248201527527b7363c9031b0b63630b1363290313c9037bbb732b960511b604482015260640161047d565b565b61113a611d3c565b611142611d3c565b61114e81868686611446565b95945050505050565b6080830151611166908361148c565b6080830151611175908261148c565b505050565b6080830151611189908361148c565b608083015161117590826114a3565b6003546000906111b2906001600160a01b03168484611506565b9392505050565b6111c282611599565b61120e5760405162461bcd60e51b815260206004820152601f60248201527f6d696e426c6f636b496e74657276616c206e6f74207965742070617373656400604482015260640161047d565b6001600160a01b039091166000908152601160209081526040808320939093556014905220439055565b60006111b2836001600160a01b0384166115e7565b600061063e825490565b60006111b283836116e1565b60006001600160a01b03821661127b57506000919050565b61128482611599565b61129057506000919050565b60095460405163cfed246b60e01b81526001600160a01b038481166004830152600092169063cfed246b90602401602060405180830381865afa1580156112db573d6000803e3d6000fd5b505050506040513d601f19601f820116820180604052508101906112ff9190612191565b9050806000036113125750600192915050565b600080818311611343578261271061132a82856122d9565b61133491906122ec565b61133e9190612319565b611365565b8161271061135182866122d9565b61135b91906122ec565b6113659190612319565b905060085481101561137c57506000949350505050565b506001949350505050565b60006111b2836001600160a01b03841661170b565b336001600160a01b038216036113f45760405162461bcd60e51b815260206004820152601760248201527f43616e6e6f74207472616e7366657220746f2073656c66000000000000000000604482015260640161047d565b600780546001600160a01b0319166001600160a01b03838116918217909255600654604051919216907fed8889f560326eb138920d842192f0eb3dd22b4f139c87a2c57538e05bae127890600090a350565b61144e611d3c565b61145e856080015161010061175a565b50508284526001600160a01b03821660208501526001600160e01b031981166040850152835b949350505050565b61149982600383516117bf565b61117582826118cc565b67ffffffffffffffff198112156114c2576114be82826118f3565b5050565b6001600160401b038113156114db576114be8282611935565b600081126114ef576114be826000836117bf565b6114be8260016115018460001961232d565b6117bf565b60045460009061151781600161234d565b600455835160408086015160808701515191516000936320214ca360e11b9361154f9386938493923092918a91600191602401612360565b60408051601f198184030181529190526020810180516001600160e01b03166001600160e01b031990931692909217909152905061158f86838684611958565b9695505050505050565b601354600090156115df576013546001600160a01b0383166000908152601460205260409020546115ca90436122d9565b106115d757506001919050565b506000919050565b506001919050565b600081815260018301602052604081205480156116d057600061160b6001836122d9565b855490915060009061161f906001906122d9565b905081811461168457600086600001828154811061163f5761163f61208b565b90600052602060002001549050808760000184815481106116625761166261208b565b6000918252602080832090910192909255918252600188019052604090208390555b8554869080611695576116956123c8565b60019003818190600052602060002001600090559055856001016000868152602001908152602001600020600090556001935050505061063e565b600091505061063e565b5092915050565b60008260000182815481106116f8576116f861208b565b9060005260206000200154905092915050565b60008181526001830160205260408120546117525750815460018181018455600084815260208082209093018490558454848252828601909352604090209190915561063e565b50600061063e565b60408051808201909152606081526000602082015261177a6020836123de565b156117a25761178a6020836123de565b6117959060206122d9565b61179f908361234d565b91505b506020828101829052604080518085526000815290920101905290565b6017816001600160401b0316116117e9576117e38360e0600585901b168317611ab6565b50505050565b60ff816001600160401b0316116118255761180f836018611fe0600586901b1617611ab6565b506117e3836001600160401b0383166001611adb565b61ffff816001600160401b0316116118625761184c836019611fe0600586901b1617611ab6565b506117e3836001600160401b0383166002611adb565b63ffffffff816001600160401b0316116118a15761188b83601a611fe0600586901b1617611ab6565b506117e3836001600160401b0383166004611adb565b6118b683601b611fe0600586901b1617611ab6565b506117e3836001600160401b0383166008611adb565b6040805180820190915260608152600060208201526111b283846000015151848551611b01565b6118fe8260c3611ab6565b506114be8261190f8360001961232d565b60405160200161192191815260200190565b604051602081830303815290604052611beb565b6119408260c2611ab6565b506114be828260405160200161192191815260200190565b6040516bffffffffffffffffffffffff193060601b1660208201526034810184905260009060540160408051808303601f1901815282825280516020918201206000818152600590925291812080546001600160a01b0319166001600160a01b038a1617905590925082917fb5e6e01e79f91267dc17b4e6314d5d4d03593d2ceee0fbb452b750bd70ea5af99190a2600254604051630200057560e51b81526001600160a01b0390911690634000aea090611a1b908890879087906004016123f2565b6020604051808303816000875af1158015611a3a573d6000803e3d6000fd5b505050506040513d601f19601f82011682018060405250810190611a5e91906121aa565b6114845760405162461bcd60e51b815260206004820152602360248201527f756e61626c6520746f207472616e73666572416e6443616c6c20746f206f7261604482015262636c6560e81b606482015260840161047d565b6040805180820190915260608152600060208201526111b28384600001515184611bf8565b604080518082019091526060815260006020820152611484848560000151518585611c53565b6040805180820190915260608152600060208201528251821115611b2457600080fd5b6020850151611b33838661234d565b1115611b6657611b6685611b5687602001518786611b51919061234d565b611cd4565b611b619060026122ec565b611ceb565b600080865180518760208301019350808887011115611b855787860182525b505050602084015b60208410611bc55780518252611ba460208361234d565b9150611bb160208261234d565b9050611bbe6020856122d9565b9350611b8d565b51815160001960208690036101000a019081169019919091161790525083949350505050565b61149982600283516117bf565b60408051808201909152606081526000602082015283602001518310611c2d57611c2d8485602001516002611b6191906122ec565b8351805160208583010184815350808503611c49576001810182525b5093949350505050565b6040805180820190915260608152600060208201526020850151611c77858461234d565b1115611c8b57611c8b85611b56868561234d565b60006001611c9b846101006124fd565b611ca591906122d9565b9050855183868201018583198251161781525080518487011115611cc95783860181525b509495945050505050565b600081831115611ce557508161063e565b50919050565b8151611cf7838361175a565b506117e383826118cc565b508054611d0e9061212e565b6000825580601f10611d1e575050565b601f01602090049060005260206000209081019061056e9190611d77565b6040805160a0810182526000808252602080830182905282840182905260608084018390528451808601909552845283015290608082015290565b5b80821115611d8c5760008155600101611d78565b5090565b6001600160a01b038116811461056e57600080fd5b600060208284031215611db757600080fd5b81356111b281611d90565b634e487b7160e01b600052604160045260246000fd5b600082601f830112611de957600080fd5b81356001600160401b0380821115611e0357611e03611dc2565b604051601f8301601f19908116603f01168101908282118183101715611e2b57611e2b611dc2565b81604052838152866020858801011115611e4457600080fd5b836020870160208301376000602085830101528094505050505092915050565b60008060408385031215611e7757600080fd5b82356001600160401b0380821115611e8e57600080fd5b611e9a86838701611dd8565b93506020850135915080821115611eb057600080fd5b50611ebd85828601611dd8565b9150509250929050565b60008060408385031215611eda57600080fd5b50508035926020909101359150565b60008060208385031215611efc57600080fd5b82356001600160401b0380821115611f1357600080fd5b818501915085601f830112611f2757600080fd5b813581811115611f3657600080fd5b866020828501011115611f4857600080fd5b60209290920196919550909350505050565b600060208284031215611f6c57600080fd5b5035919050565b6000815180845260005b81811015611f9957602081850181015186830182015201611f7d565b506000602082860101526020601f19601f83011685010191505092915050565b82151581526040602082015260006114846040830184611f73565b604081526000611fe76040830185611f73565b828103602084015261114e8185611f73565b60008060006060848603121561200e57600080fd5b833561201981611d90565b925060208401356001600160401b038082111561203557600080fd5b61204187838801611dd8565b9350604086013591508082111561205757600080fd5b5061206486828701611dd8565b9150509250925092565b60006020828403121561208057600080fd5b81516111b281611d90565b634e487b7160e01b600052603260045260246000fd5b606080825284519082018190526000906020906080840190828801845b828110156120e35781516001600160a01b0316845292840192908401906001016120be565b5050508381038285015285518082528683019183019060005b81811015612118578351835292840192918401916001016120fc565b5050809350505050826040830152949350505050565b600181811c9082168061214257607f821691505b602082108103611ce557634e487b7160e01b600052602260045260246000fd5b634e487b7160e01b600052601160045260246000fd5b60006001820161218a5761218a612162565b5060010190565b6000602082840312156121a357600080fd5b5051919050565b6000602082840312156121bc57600080fd5b815180151581146111b257600080fd5b601f82111561117557600081815260208120601f850160051c810160208610156121f35750805b601f850160051c820191505b81811015612212578281556001016121ff565b505050505050565b81516001600160401b0381111561223357612233611dc2565b61224781612241845461212e565b846121cc565b602080601f83116001811461227c57600084156122645750858301515b600019600386901b1c1916600185901b178555612212565b600085815260208120601f198616915b828110156122ab5788860151825594840194600190910190840161228c565b50858210156122c95787850151600019600388901b60f8161c191681555b5050505050600190811b01905550565b8181038181111561063e5761063e612162565b808202811582820484141761063e5761063e612162565b634e487b7160e01b600052601260045260246000fd5b60008261232857612328612303565b500490565b81810360008312801583831316838312821617156116da576116da612162565b8082018082111561063e5761063e612162565b6001600160a01b0389811682526020820189905260408201889052861660608201526001600160e01b03198516608082015260a0810184905260c0810183905261010060e082018190526000906123b983820185611f73565b9b9a5050505050505050505050565b634e487b7160e01b600052603160045260246000fd5b6000826123ed576123ed612303565b500690565b60018060a01b038416815282602082015260606040820152600061114e6060830184611f73565b600181815b8085111561245457816000190482111561243a5761243a612162565b8085161561244757918102915b93841c939080029061241e565b509250929050565b60008261246b5750600161063e565b816124785750600061063e565b816001811461248e5760028114612498576124b4565b600191505061063e565b60ff8411156124a9576124a9612162565b50506001821b61063e565b5060208310610133831016604e8410600b84101617156124d7575081810a61063e565b6124e18383612419565b80600019048211156124f5576124f5612162565b029392505050565b60006111b2838361245c56fea264697066735822122039b4d373d2a4d3d0afef9b0bf58b45adb7937eeb4c869e36b8e5e1df9bf17ee164736f6c63430008110033",
  "linkReferences": {},
  "deployedLinkReferences": {}
}