{
  "_format": "hh-sol-artifact-1",
  "contractName": "FeeVault",
  "sourceName": "contracts/fee/FeeVault.sol",
  "abi": [
    {
      "inputs": [],
      "stateMutability": "nonpayable",
      "type": "constructor"
    },
    {
      "anonymous": false,
      "inputs": [
        {
          "indexed": false,
          "internalType": "uint8",
          "name": "version",
          "type": "uint8"
        }
      ],
      "name": "Initialized",
      "type": "event"
    },
    {
      "anonymous": false,
      "inputs": [
        {
          "indexed": true,
          "internalType": "address",
          "name": "previousOwner",
          "type": "address"
        },
        {
          "indexed": true,
          "internalType": "address",
          "name": "newOwner",
          "type": "address"
        }
      ],
      "name": "OwnershipTransferred",
      "type": "event"
    },
    {
      "anonymous": false,
      "inputs": [
        {
          "indexed": true,
          "internalType": "bytes32",
          "name": "role",
          "type": "bytes32"
        },
        {
          "indexed": true,
          "internalType": "bytes32",
          "name": "previousAdminRole",
          "type": "bytes32"
        },
        {
          "indexed": true,
          "internalType": "bytes32",
          "name": "newAdminRole",
          "type": "bytes32"
        }
      ],
      "name": "RoleAdminChanged",
      "type": "event"
    },
    {
      "anonymous": false,
      "inputs": [
        {
          "indexed": true,
          "internalType": "bytes32",
          "name": "role",
          "type": "bytes32"
        },
        {
          "indexed": true,
          "internalType": "address",
          "name": "account",
          "type": "address"
        },
        {
          "indexed": true,
          "internalType": "address",
          "name": "sender",
          "type": "address"
        }
      ],
      "name": "RoleGranted",
      "type": "event"
    },
    {
      "anonymous": false,
      "inputs": [
        {
          "indexed": true,
          "internalType": "bytes32",
          "name": "role",
          "type": "bytes32"
        },
        {
          "indexed": true,
          "internalType": "address",
          "name": "account",
          "type": "address"
        },
        {
          "indexed": true,
          "internalType": "address",
          "name": "sender",
          "type": "address"
        }
      ],
      "name": "RoleRevoked",
      "type": "event"
    },
    {
      "anonymous": false,
      "inputs": [
        {
          "indexed": true,
          "internalType": "address",
          "name": "market",
          "type": "address"
        },
        {
          "indexed": false,
          "internalType": "int256",
          "name": "longRate",
          "type": "int256"
        },
        {
          "indexed": false,
          "internalType": "int256",
          "name": "shortRate",
          "type": "int256"
        }
      ],
      "name": "UpdateCumulativeFundRate",
      "type": "event"
    },
    {
      "anonymous": false,
      "inputs": [
        {
          "indexed": true,
          "internalType": "address",
          "name": "market",
          "type": "address"
        },
        {
          "indexed": false,
          "internalType": "int256",
          "name": "longRate",
          "type": "int256"
        },
        {
          "indexed": false,
          "internalType": "int256",
          "name": "shortRate",
          "type": "int256"
        }
      ],
      "name": "UpdateFundRate",
      "type": "event"
    },
    {
      "anonymous": false,
      "inputs": [
        {
          "indexed": true,
          "internalType": "address",
          "name": "market",
          "type": "address"
        },
        {
          "indexed": false,
          "internalType": "uint256",
          "name": "timestamp",
          "type": "uint256"
        }
      ],
      "name": "UpdateLastFundTime",
      "type": "event"
    },
    {
      "anonymous": false,
      "inputs": [
        {
          "indexed": true,
          "internalType": "address",
          "name": "token",
          "type": "address"
        },
        {
          "indexed": true,
          "internalType": "address",
          "name": "to",
          "type": "address"
        },
        {
          "indexed": false,
          "internalType": "uint256",
          "name": "amount",
          "type": "uint256"
        }
      ],
      "name": "Withdraw",
      "type": "event"
    },
    {
      "inputs": [],
      "name": "DEFAULT_ADMIN_ROLE",
      "outputs": [
        {
          "internalType": "bytes32",
          "name": "",
          "type": "bytes32"
        }
      ],
      "stateMutability": "view",
      "type": "function"
    },
    {
      "inputs": [
        {
          "internalType": "address",
          "name": "",
          "type": "address"
        },
        {
          "internalType": "bool",
          "name": "",
          "type": "bool"
        }
      ],
      "name": "cumulativeFundingRates",
      "outputs": [
        {
          "internalType": "int256",
          "name": "",
          "type": "int256"
        }
      ],
      "stateMutability": "view",
      "type": "function"
    },
    {
      "inputs": [
        {
          "internalType": "address",
          "name": "",
          "type": "address"
        },
        {
          "internalType": "bool",
          "name": "",
          "type": "bool"
        }
      ],
      "name": "fundingRates",
      "outputs": [
        {
          "internalType": "int256",
          "name": "",
          "type": "int256"
        }
      ],
      "stateMutability": "view",
      "type": "function"
    },
    {
      "inputs": [
        {
          "internalType": "bytes32",
          "name": "role",
          "type": "bytes32"
        }
      ],
      "name": "getRoleAdmin",
      "outputs": [
        {
          "internalType": "bytes32",
          "name": "",
          "type": "bytes32"
        }
      ],
      "stateMutability": "view",
      "type": "function"
    },
    {
      "inputs": [
        {
          "internalType": "address",
          "name": "_account",
          "type": "address"
        }
      ],
      "name": "grantControllerRoleByMarketManager",
      "outputs": [],
      "stateMutability": "nonpayable",
      "type": "function"
    },
    {
      "inputs": [
        {
          "internalType": "bytes32",
          "name": "role",
          "type": "bytes32"
        },
        {
          "internalType": "address",
          "name": "account",
          "type": "address"
        }
      ],
      "name": "grantRole",
      "outputs": [],
      "stateMutability": "nonpayable",
      "type": "function"
    },
    {
      "inputs": [
        {
          "internalType": "bytes32",
          "name": "role",
          "type": "bytes32"
        },
        {
          "internalType": "address",
          "name": "account",
          "type": "address"
        }
      ],
      "name": "hasRole",
      "outputs": [
        {
          "internalType": "bool",
          "name": "",
          "type": "bool"
        }
      ],
      "stateMutability": "view",
      "type": "function"
    },
    {
      "inputs": [
        {
          "internalType": "address",
          "name": "",
          "type": "address"
        }
      ],
      "name": "lastFundingTimes",
      "outputs": [
        {
          "internalType": "uint256",
          "name": "",
          "type": "uint256"
        }
      ],
      "stateMutability": "view",
      "type": "function"
    },
    {
      "inputs": [],
      "name": "owner",
      "outputs": [
        {
          "internalType": "address",
          "name": "",
          "type": "address"
        }
      ],
      "stateMutability": "view",
      "type": "function"
    },
    {
      "inputs": [],
      "name": "renounceOwnership",
      "outputs": [],
      "stateMutability": "nonpayable",
      "type": "function"
    },
    {
      "inputs": [
        {
          "internalType": "bytes32",
          "name": "role",
          "type": "bytes32"
        },
        {
          "internalType": "address",
          "name": "account",
          "type": "address"
        }
      ],
      "name": "renounceRole",
      "outputs": [],
      "stateMutability": "nonpayable",
      "type": "function"
    },
    {
      "inputs": [
        {
          "internalType": "bytes32",
          "name": "role",
          "type": "bytes32"
        },
        {
          "internalType": "address",
          "name": "account",
          "type": "address"
        }
      ],
      "name": "revokeRole",
      "outputs": [],
      "stateMutability": "nonpayable",
      "type": "function"
    },
    {
      "inputs": [
        {
          "internalType": "bytes4",
          "name": "interfaceId",
          "type": "bytes4"
        }
      ],
      "name": "supportsInterface",
      "outputs": [
        {
          "internalType": "bool",
          "name": "",
          "type": "bool"
        }
      ],
      "stateMutability": "view",
      "type": "function"
    },
    {
      "inputs": [
        {
          "internalType": "address",
          "name": "to",
          "type": "address"
        }
      ],
      "name": "transferAdmin",
      "outputs": [],
      "stateMutability": "nonpayable",
      "type": "function"
    },
    {
      "inputs": [
        {
          "internalType": "address",
          "name": "newOwner",
          "type": "address"
        }
      ],
      "name": "transferOwnership",
      "outputs": [],
      "stateMutability": "nonpayable",
      "type": "function"
    },
    {
      "inputs": [
        {
          "internalType": "address",
          "name": "market",
          "type": "address"
        },
        {
          "internalType": "int256",
          "name": "longRate",
          "type": "int256"
        },
        {
          "internalType": "int256",
          "name": "shortRate",
          "type": "int256"
        },
        {
          "internalType": "int256",
          "name": "nextLongRate",
          "type": "int256"
        },
        {
          "internalType": "int256",
          "name": "nextShortRate",
          "type": "int256"
        },
        {
          "internalType": "uint256",
          "name": "timestamp",
          "type": "uint256"
        }
      ],
      "name": "updateGlobalFundingRate",
      "outputs": [],
      "stateMutability": "nonpayable",
      "type": "function"
    },
    {
      "inputs": [
        {
          "internalType": "address",
          "name": "token",
          "type": "address"
        },
        {
          "internalType": "address",
          "name": "to",
          "type": "address"
        },
        {
          "internalType": "uint256",
          "name": "amount",
          "type": "uint256"
        }
      ],
      "name": "withdraw",
      "outputs": [],
      "stateMutability": "nonpayable",
      "type": "function"
    }
  ],
  "bytecode": "0x60806040523480156200001157600080fd5b50336200001e816200003b565b62000034816200008d60201b620007041760201c565b5062000169565b600180546001600160a01b038381166001600160a01b0319831681179093556040519116919082907f8be0079c531659141344cd1fd0a4f28419497f9722a3daafe3b4186f6b6457e090600090a35050565b426002556200009c336200003b565b620000a9600033620000b9565b620000b6600082620000b9565b50565b620000c58282620000c9565b5050565b6000828152602081815260408083206001600160a01b038516845290915290205460ff16620000c5576000828152602081815260408083206001600160a01b03851684529091529020805460ff19166001179055620001253390565b6001600160a01b0316816001600160a01b0316837f2f8788117e7eff1d82e926ec794901d17c78024a50270940304540a733656f0d60405160405180910390a45050565b6110e980620001796000396000f3fe608060405234801561001057600080fd5b506004361061010b5760003560e01c80638da5cb5b116100a2578063d547741f11610071578063d547741f14610233578063d8f897c314610246578063d9caed1214610266578063f2fde38b14610279578063ffb3bf631461028c57600080fd5b80638da5cb5b146101ea57806391d1485414610205578063a217fddf14610218578063b21bf2d31461022057600080fd5b806336568abe116100de57806336568abe146101a9578063715018a6146101bc57806375829def146101c45780637fe4a698146101d757600080fd5b806301ffc9a714610110578063248a9ca3146101385780632f2ff15d1461016957806334f32e251461017e575b600080fd5b61012361011e366004610d92565b6102b7565b60405190151581526020015b60405180910390f35b61015b610146366004610dbc565b60009081526020819052604090206001015490565b60405190815260200161012f565b61017c610177366004610df1565b6102ee565b005b61015b61018c366004610e2b565b600360209081526000928352604080842090915290825290205481565b61017c6101b7366004610df1565b610318565b61017c61039b565b61017c6101d2366004610e62565b6103af565b61017c6101e5366004610e62565b6103d9565b6001546040516001600160a01b03909116815260200161012f565b610123610213366004610df1565b610403565b61015b600081565b61017c61022e366004610e7d565b61042c565b61017c610241366004610df1565b6105d5565b61015b610254366004610e62565b60056020526000908152604090205481565b61017c610274366004610ec7565b6105fa565b61017c610287366004610e62565b61068b565b61015b61029a366004610e2b565b600460209081526000928352604080842090915290825290205481565b60006001600160e01b03198216637965db0b60e01b14806102e857506301ffc9a760e01b6001600160e01b03198316145b92915050565b60008281526020819052604090206001015461030981610727565b6103138383610731565b505050565b6001600160a01b038116331461038d5760405162461bcd60e51b815260206004820152602f60248201527f416363657373436f6e74726f6c3a2063616e206f6e6c792072656e6f756e636560448201526e103937b632b9903337b91039b2b63360891b60648201526084015b60405180910390fd5b61039782826107b5565b5050565b6103a361081a565b6103ad6000610874565b565b60006103ba81610727565b6103c56000836108c6565b6103ce82610874565b6103976000336107b5565b7f8d1089725c0dc266707fa6207730fb801dcd03108bfed7a21099bd303651d2b761010b81610727565b6000918252602082815260408084206001600160a01b0393909316845291905290205460ff1690565b6104557fcb58d6d985142a614029cdf01861b4fe094d5919a47e69b8310dc4093d9d6ad0610727565b6001600160a01b03861660009081526003602090815260408083206001845290915281208054859290610489908490610f19565b90915550506001600160a01b038616600081815260046020908152604080832060018452825280832089905592825260038152828220828052905290812080548492906104d7908490610f19565b90915550506001600160a01b03861660008181526004602090815260408083208380528252808320889055838352600582529182902084905581518681529081018590527f8443bb2c5478a5a1a0d0294d9cb68cced1b042d44c3731e3b9eccdceed780c0f910160405180910390a260408051868152602081018690526001600160a01b038816917f0b38483e50f5e8ebdf33d9591738f769234451b7cdaf8330d163814e1f9a99ed910160405180910390a2856001600160a01b03167ff4c93da2430243fd9f81b963f6e5e31d6f4389344d58aa8c5d7be7e77417f9a3826040516105c591815260200190565b60405180910390a2505050505050565b6000828152602081905260409020600101546105f081610727565b61031383836107b5565b7f5d8e12c39142ff96d79d04d15d1ba1269e4fe57bb9d26f43523628b34ba108ec61062481610727565b6106386001600160a01b03851684846108d0565b826001600160a01b0316846001600160a01b03167f9b1bfa7fa9ee420a16e124f794c35ac9f90472acc99140eb2f6447c714cad8eb8460405161067d91815260200190565b60405180910390a350505050565b61069361081a565b6001600160a01b0381166106f85760405162461bcd60e51b815260206004820152602660248201527f4f776e61626c653a206e6577206f776e657220697320746865207a65726f206160448201526564647265737360d01b6064820152608401610384565b61070181610874565b50565b4260025561071133610874565b61071c6000336108c6565b6107016000826108c6565b6107018133610922565b61073b8282610403565b610397576000828152602081815260408083206001600160a01b03851684529091529020805460ff191660011790556107713390565b6001600160a01b0316816001600160a01b0316837f2f8788117e7eff1d82e926ec794901d17c78024a50270940304540a733656f0d60405160405180910390a45050565b6107bf8282610403565b15610397576000828152602081815260408083206001600160a01b0385168085529252808320805460ff1916905551339285917ff6391f5c32d9c69d2a47ea670b442974b53935d1edc7fd64eb21e047a839171b9190a45050565b6001546001600160a01b031633146103ad5760405162461bcd60e51b815260206004820181905260248201527f4f776e61626c653a2063616c6c6572206973206e6f7420746865206f776e65726044820152606401610384565b600180546001600160a01b038381166001600160a01b0319831681179093556040519116919082907f8be0079c531659141344cd1fd0a4f28419497f9722a3daafe3b4186f6b6457e090600090a35050565b6103978282610731565b604080516001600160a01b038416602482015260448082018490528251808303909101815260649091019091526020810180516001600160e01b031663a9059cbb60e01b17905261031390849061097b565b61092c8282610403565b6103975761093981610a4d565b610944836020610a5f565b604051602001610955929190610f65565b60408051601f198184030181529082905262461bcd60e51b825261038491600401610fda565b60006109d0826040518060400160405280602081526020017f5361666545524332303a206c6f772d6c6576656c2063616c6c206661696c6564815250856001600160a01b0316610c029092919063ffffffff16565b80519091501561031357808060200190518101906109ee919061100d565b6103135760405162461bcd60e51b815260206004820152602a60248201527f5361666545524332303a204552433230206f7065726174696f6e20646964206e6044820152691bdd081cdd58d8d9595960b21b6064820152608401610384565b60606102e86001600160a01b03831660145b60606000610a6e83600261102a565b610a79906002611041565b67ffffffffffffffff811115610a9157610a91611054565b6040519080825280601f01601f191660200182016040528015610abb576020820181803683370190505b509050600360fc1b81600081518110610ad657610ad661106a565b60200101906001600160f81b031916908160001a905350600f60fb1b81600181518110610b0557610b0561106a565b60200101906001600160f81b031916908160001a9053506000610b2984600261102a565b610b34906001611041565b90505b6001811115610bac576f181899199a1a9b1b9c1cb0b131b232b360811b85600f1660108110610b6857610b6861106a565b1a60f81b828281518110610b7e57610b7e61106a565b60200101906001600160f81b031916908160001a90535060049490941c93610ba581611080565b9050610b37565b508315610bfb5760405162461bcd60e51b815260206004820181905260248201527f537472696e67733a20686578206c656e67746820696e73756666696369656e746044820152606401610384565b9392505050565b6060610c118484600085610c19565b949350505050565b606082471015610c7a5760405162461bcd60e51b815260206004820152602660248201527f416464726573733a20696e73756666696369656e742062616c616e636520666f6044820152651c8818d85b1b60d21b6064820152608401610384565b600080866001600160a01b03168587604051610c969190611097565b60006040518083038185875af1925050503d8060008114610cd3576040519150601f19603f3d011682016040523d82523d6000602084013e610cd8565b606091505b5091509150610ce987838387610cf4565b979650505050505050565b60608315610d63578251600003610d5c576001600160a01b0385163b610d5c5760405162461bcd60e51b815260206004820152601d60248201527f416464726573733a2063616c6c20746f206e6f6e2d636f6e74726163740000006044820152606401610384565b5081610c11565b610c118383815115610d785781518083602001fd5b8060405162461bcd60e51b81526004016103849190610fda565b600060208284031215610da457600080fd5b81356001600160e01b031981168114610bfb57600080fd5b600060208284031215610dce57600080fd5b5035919050565b80356001600160a01b0381168114610dec57600080fd5b919050565b60008060408385031215610e0457600080fd5b82359150610e1460208401610dd5565b90509250929050565b801515811461070157600080fd5b60008060408385031215610e3e57600080fd5b610e4783610dd5565b91506020830135610e5781610e1d565b809150509250929050565b600060208284031215610e7457600080fd5b610bfb82610dd5565b60008060008060008060c08789031215610e9657600080fd5b610e9f87610dd5565b9860208801359850604088013597606081013597506080810135965060a00135945092505050565b600080600060608486031215610edc57600080fd5b610ee584610dd5565b9250610ef360208501610dd5565b9150604084013590509250925092565b634e487b7160e01b600052601160045260246000fd5b8082018281126000831280158216821582161715610f3957610f39610f03565b505092915050565b60005b83811015610f5c578181015183820152602001610f44565b50506000910152565b7f416363657373436f6e74726f6c3a206163636f756e7420000000000000000000815260008351610f9d816017850160208801610f41565b7001034b99036b4b9b9b4b733903937b6329607d1b6017918401918201528351610fce816028840160208801610f41565b01602801949350505050565b6020815260008251806020840152610ff9816040850160208701610f41565b601f01601f19169190910160400192915050565b60006020828403121561101f57600080fd5b8151610bfb81610e1d565b80820281158282048414176102e8576102e8610f03565b808201808211156102e8576102e8610f03565b634e487b7160e01b600052604160045260246000fd5b634e487b7160e01b600052603260045260246000fd5b60008161108f5761108f610f03565b506000190190565b600082516110a9818460208701610f41565b919091019291505056fea26469706673582212203900448fb1759b308666746b233980205499e1a56fbf0e049d95baa3062481d464736f6c63430008110033",
  "linkReferences": {},
  "deployedLinkReferences": {}
}