{
  "_format": "hh-sol-artifact-1",
  "contractName": "FeeVault",
  "sourceName": "contracts/fee/FeeVault.sol",
  "abi": [
    {
      "inputs": [],
      "stateMutability": "nonpayable",
      "type": "constructor"
    },
    {
      "anonymous": false,
      "inputs": [
        {
          "indexed": false,
          "internalType": "uint8",
          "name": "version",
          "type": "uint8"
        }
      ],
      "name": "Initialized",
      "type": "event"
    },
    {
      "anonymous": false,
      "inputs": [
        {
          "indexed": true,
          "internalType": "address",
          "name": "market",
          "type": "address"
        },
        {
          "indexed": false,
          "internalType": "int256",
          "name": "longRate",
          "type": "int256"
        },
        {
          "indexed": false,
          "internalType": "int256",
          "name": "shortRate",
          "type": "int256"
        }
      ],
      "name": "UpdateCumulativeFundRate",
      "type": "event"
    },
    {
      "anonymous": false,
      "inputs": [
        {
          "indexed": true,
          "internalType": "address",
          "name": "market",
          "type": "address"
        },
        {
          "indexed": false,
          "internalType": "int256",
          "name": "longRate",
          "type": "int256"
        },
        {
          "indexed": false,
          "internalType": "int256",
          "name": "shortRate",
          "type": "int256"
        }
      ],
      "name": "UpdateFundRate",
      "type": "event"
    },
    {
      "anonymous": false,
      "inputs": [
        {
          "indexed": true,
          "internalType": "address",
          "name": "market",
          "type": "address"
        },
        {
          "indexed": false,
          "internalType": "uint256",
          "name": "timestamp",
          "type": "uint256"
        }
      ],
      "name": "UpdateLastFundTime",
      "type": "event"
    },
    {
      "anonymous": false,
      "inputs": [
        {
          "indexed": true,
          "internalType": "address",
          "name": "token",
          "type": "address"
        },
        {
          "indexed": true,
          "internalType": "address",
          "name": "to",
          "type": "address"
        },
        {
          "indexed": false,
          "internalType": "uint256",
          "name": "amount",
          "type": "uint256"
        }
      ],
      "name": "Withdraw",
      "type": "event"
    },
    {
      "inputs": [],
      "name": "DEFAULT_ADMIN_ROLE",
      "outputs": [
        {
          "internalType": "bytes32",
          "name": "",
          "type": "bytes32"
        }
      ],
      "stateMutability": "view",
      "type": "function"
    },
    {
      "inputs": [
        {
          "internalType": "address",
          "name": "newOwner",
          "type": "address"
        }
      ],
      "name": "_transferOwnership",
      "outputs": [],
      "stateMutability": "pure",
      "type": "function"
    },
    {
      "inputs": [
        {
          "internalType": "address",
          "name": "",
          "type": "address"
        },
        {
          "internalType": "bool",
          "name": "",
          "type": "bool"
        }
      ],
      "name": "cumulativeFundingRates",
      "outputs": [
        {
          "internalType": "int256",
          "name": "",
          "type": "int256"
        }
      ],
      "stateMutability": "view",
      "type": "function"
    },
    {
      "inputs": [
        {
          "internalType": "address",
          "name": "",
          "type": "address"
        },
        {
          "internalType": "bool",
          "name": "",
          "type": "bool"
        }
      ],
      "name": "fundingRates",
      "outputs": [
        {
          "internalType": "int256",
          "name": "",
          "type": "int256"
        }
      ],
      "stateMutability": "view",
      "type": "function"
    },
    {
      "inputs": [
        {
          "internalType": "address",
          "name": "_account",
          "type": "address"
        }
      ],
      "name": "grantControllerRoleByMarketManager",
      "outputs": [],
      "stateMutability": "nonpayable",
      "type": "function"
    },
    {
      "inputs": [
        {
          "internalType": "bytes32",
          "name": "role",
          "type": "bytes32"
        },
        {
          "internalType": "address",
          "name": "account",
          "type": "address"
        }
      ],
      "name": "grantRole",
      "outputs": [],
      "stateMutability": "pure",
      "type": "function"
    },
    {
      "inputs": [
        {
          "internalType": "bytes32",
          "name": "role",
          "type": "bytes32"
        },
        {
          "internalType": "address",
          "name": "account",
          "type": "address"
        }
      ],
      "name": "hasRole",
      "outputs": [
        {
          "internalType": "bool",
          "name": "",
          "type": "bool"
        }
      ],
      "stateMutability": "pure",
      "type": "function"
    },
    {
      "inputs": [
        {
          "internalType": "address",
          "name": "",
          "type": "address"
        }
      ],
      "name": "lastFundingTimes",
      "outputs": [
        {
          "internalType": "uint256",
          "name": "",
          "type": "uint256"
        }
      ],
      "stateMutability": "view",
      "type": "function"
    },
    {
      "inputs": [
        {
          "internalType": "bytes32",
          "name": "role",
          "type": "bytes32"
        },
        {
          "internalType": "address",
          "name": "account",
          "type": "address"
        }
      ],
      "name": "revokeRole",
      "outputs": [],
      "stateMutability": "pure",
      "type": "function"
    },
    {
      "inputs": [
        {
          "internalType": "address",
          "name": "to",
          "type": "address"
        }
      ],
      "name": "transferAdmin",
      "outputs": [],
      "stateMutability": "nonpayable",
      "type": "function"
    },
    {
      "inputs": [
        {
          "internalType": "address",
          "name": "newOwner",
          "type": "address"
        }
      ],
      "name": "transferOwnership",
      "outputs": [],
      "stateMutability": "pure",
      "type": "function"
    },
    {
      "inputs": [
        {
          "internalType": "address",
          "name": "market",
          "type": "address"
        },
        {
          "internalType": "int256",
          "name": "longRate",
          "type": "int256"
        },
        {
          "internalType": "int256",
          "name": "shortRate",
          "type": "int256"
        },
        {
          "internalType": "int256",
          "name": "nextLongRate",
          "type": "int256"
        },
        {
          "internalType": "int256",
          "name": "nextShortRate",
          "type": "int256"
        },
        {
          "internalType": "uint256",
          "name": "timestamp",
          "type": "uint256"
        }
      ],
      "name": "updateGlobalFundingRate",
      "outputs": [],
      "stateMutability": "nonpayable",
      "type": "function"
    },
    {
      "inputs": [
        {
          "internalType": "address",
          "name": "token",
          "type": "address"
        },
        {
          "internalType": "address",
          "name": "to",
          "type": "address"
        },
        {
          "internalType": "uint256",
          "name": "amount",
          "type": "uint256"
        }
      ],
      "name": "withdraw",
      "outputs": [],
      "stateMutability": "nonpayable",
      "type": "function"
    }
  ],
  "bytecode": "0x608060405234801561001057600080fd5b50336100258161002b60201b61040f1760201c565b50610039565b426001556100363381565b50565b610908806100486000396000f3fe608060405234801561001057600080fd5b50600436106100cf5760003560e01c8063b21bf2d31161008c578063d8f897c311610066578063d8f897c31461019e578063d9caed12146101be578063f2fde38b1461018d578063ffb3bf63146101d157600080fd5b8063b21bf2d31461017a578063d29d44ee1461018d578063d547741f146100d457600080fd5b80632f2ff15d146100d457806334f32e25146100e857806375829def146101265780637fe4a6981461013957806391d148541461014c578063a217fddf14610172575b600080fd5b6100e66100e23660046106f3565b5050565b005b6101136100f636600461072d565b600260209081526000928352604080842090915290825290205481565b6040519081526020015b60405180910390f35b6100e6610134366004610764565b6101fc565b6100e6610147366004610764565b61019b565b61016261015a3660046106f3565b600192915050565b604051901515815260200161011d565b610113600081565b6100e6610188366004610786565b610207565b6100e661019b366004610764565b50565b6101136101ac366004610764565b60046020526000908152604090205481565b6100e66101cc3660046107d0565b610387565b6101136101df36600461072d565b600360209081526000928352604080842090915290825290205481565b60006100e260003382565b6001600160a01b0386166000908152600260209081526040808320600184529091528120805485929061023b90849061080c565b90915550506001600160a01b0386166000818152600360209081526040808320600184528252808320899055928252600281528282208280529052908120805484929061028990849061080c565b90915550506001600160a01b03861660008181526003602090815260408083208380528252808320889055838352600482529182902084905581518681529081018590527f8443bb2c5478a5a1a0d0294d9cb68cced1b042d44c3731e3b9eccdceed780c0f910160405180910390a260408051868152602081018690526001600160a01b038816917f0b38483e50f5e8ebdf33d9591738f769234451b7cdaf8330d163814e1f9a99ed910160405180910390a2856001600160a01b03167ff4c93da2430243fd9f81b963f6e5e31d6f4389344d58aa8c5d7be7e77417f9a38260405161037791815260200190565b60405180910390a2505050505050565b7f5d8e12c39142ff96d79d04d15d1ba1269e4fe57bb9d26f43523628b34ba108ec6103bc6001600160a01b0385168484610416565b826001600160a01b0316846001600160a01b03167f9b1bfa7fa9ee420a16e124f794c35ac9f90472acc99140eb2f6447c714cad8eb8460405161040191815260200190565b60405180910390a350505050565b4260015550565b604080516001600160a01b038416602482015260448082018490528251808303909101815260649091019091526020810180516001600160e01b031663a9059cbb60e01b17905261046890849061046d565b505050565b60006104c2826040518060400160405280602081526020017f5361666545524332303a206c6f772d6c6576656c2063616c6c206661696c6564815250856001600160a01b03166105479092919063ffffffff16565b90508051600014806104e35750808060200190518101906104e39190610842565b6104685760405162461bcd60e51b815260206004820152602a60248201527f5361666545524332303a204552433230206f7065726174696f6e20646964206e6044820152691bdd081cdd58d8d9595960b21b60648201526084015b60405180910390fd5b6060610556848460008561055e565b949350505050565b6060824710156105bf5760405162461bcd60e51b815260206004820152602660248201527f416464726573733a20696e73756666696369656e742062616c616e636520666f6044820152651c8818d85b1b60d21b606482015260840161053e565b600080866001600160a01b031685876040516105db9190610883565b60006040518083038185875af1925050503d8060008114610618576040519150601f19603f3d011682016040523d82523d6000602084013e61061d565b606091505b509150915061062e87838387610639565b979650505050505050565b606083156106a85782516000036106a1576001600160a01b0385163b6106a15760405162461bcd60e51b815260206004820152601d60248201527f416464726573733a2063616c6c20746f206e6f6e2d636f6e7472616374000000604482015260640161053e565b5081610556565b61055683838151156106bd5781518083602001fd5b8060405162461bcd60e51b815260040161053e919061089f565b80356001600160a01b03811681146106ee57600080fd5b919050565b6000806040838503121561070657600080fd5b82359150610716602084016106d7565b90509250929050565b801515811461019b57600080fd5b6000806040838503121561074057600080fd5b610749836106d7565b915060208301356107598161071f565b809150509250929050565b60006020828403121561077657600080fd5b61077f826106d7565b9392505050565b60008060008060008060c0878903121561079f57600080fd5b6107a8876106d7565b9860208801359850604088013597606081013597506080810135965060a00135945092505050565b6000806000606084860312156107e557600080fd5b6107ee846106d7565b92506107fc602085016106d7565b9150604084013590509250925092565b808201828112600083128015821682158216171561083a57634e487b7160e01b600052601160045260246000fd5b505092915050565b60006020828403121561085457600080fd5b815161077f8161071f565b60005b8381101561087a578181015183820152602001610862565b50506000910152565b6000825161089581846020870161085f565b9190910192915050565b60208152600082518060208401526108be81604085016020870161085f565b601f01601f1916919091016040019291505056fea264697066735822122047868e310ebabbc541786c1562b11306b736dbbc3b89738d0eb58ec05e277eed64736f6c63430008110033",
  "linkReferences": {},
  "deployedLinkReferences": {}
}