{
  "_format": "hh-sol-artifact-1",
  "contractName": "OrderBook",
  "sourceName": "contracts/order/OrderBook.sol",
  "abi": [
    {
      "inputs": [
        {
          "internalType": "address",
          "name": "_f",
          "type": "address"
        }
      ],
      "stateMutability": "nonpayable",
      "type": "constructor"
    },
    {
      "anonymous": false,
      "inputs": [
        {
          "indexed": false,
          "internalType": "uint8",
          "name": "version",
          "type": "uint8"
        }
      ],
      "name": "Initialized",
      "type": "event"
    },
    {
      "inputs": [],
      "name": "DEFAULT_ADMIN_ROLE",
      "outputs": [
        {
          "internalType": "bytes32",
          "name": "",
          "type": "bytes32"
        }
      ],
      "stateMutability": "view",
      "type": "function"
    },
    {
      "inputs": [
        {
          "internalType": "address",
          "name": "newOwner",
          "type": "address"
        }
      ],
      "name": "_transferOwnership",
      "outputs": [],
      "stateMutability": "pure",
      "type": "function"
    },
    {
      "inputs": [
        {
          "components": [
            {
              "internalType": "address",
              "name": "_market",
              "type": "address"
            },
            {
              "internalType": "bool",
              "name": "_isLong",
              "type": "bool"
            },
            {
              "internalType": "uint256",
              "name": "_oraclePrice",
              "type": "uint256"
            },
            {
              "internalType": "bool",
              "name": "isOpen",
              "type": "bool"
            },
            {
              "internalType": "bool",
              "name": "isCreate",
              "type": "bool"
            },
            {
              "components": [
                {
                  "internalType": "uint8",
                  "name": "version",
                  "type": "uint8"
                },
                {
                  "internalType": "uint32",
                  "name": "updatedAtBlock",
                  "type": "uint32"
                },
                {
                  "internalType": "uint8",
                  "name": "triggerAbove",
                  "type": "uint8"
                },
                {
                  "internalType": "address",
                  "name": "account",
                  "type": "address"
                },
                {
                  "internalType": "uint48",
                  "name": "extra3",
                  "type": "uint48"
                },
                {
                  "internalType": "uint128",
                  "name": "collateral",
                  "type": "uint128"
                },
                {
                  "internalType": "uint128",
                  "name": "size",
                  "type": "uint128"
                },
                {
                  "internalType": "uint128",
                  "name": "price",
                  "type": "uint128"
                },
                {
                  "internalType": "uint128",
                  "name": "extra1",
                  "type": "uint128"
                },
                {
                  "internalType": "uint64",
                  "name": "orderID",
                  "type": "uint64"
                },
                {
                  "internalType": "uint64",
                  "name": "extra2",
                  "type": "uint64"
                },
                {
                  "internalType": "uint128",
                  "name": "extra0",
                  "type": "uint128"
                },
                {
                  "internalType": "bytes32",
                  "name": "refCode",
                  "type": "bytes32"
                }
              ],
              "internalType": "struct Order.Props",
              "name": "_order",
              "type": "tuple"
            },
            {
              "internalType": "uint256[]",
              "name": "inputs",
              "type": "uint256[]"
            }
          ],
          "internalType": "struct MarketDataTypes.UpdateOrderInputs[]",
          "name": "_vars",
          "type": "tuple[]"
        }
      ],
      "name": "add",
      "outputs": [
        {
          "components": [
            {
              "internalType": "uint8",
              "name": "version",
              "type": "uint8"
            },
            {
              "internalType": "uint32",
              "name": "updatedAtBlock",
              "type": "uint32"
            },
            {
              "internalType": "uint8",
              "name": "triggerAbove",
              "type": "uint8"
            },
            {
              "internalType": "address",
              "name": "account",
              "type": "address"
            },
            {
              "internalType": "uint48",
              "name": "extra3",
              "type": "uint48"
            },
            {
              "internalType": "uint128",
              "name": "collateral",
              "type": "uint128"
            },
            {
              "internalType": "uint128",
              "name": "size",
              "type": "uint128"
            },
            {
              "internalType": "uint128",
              "name": "price",
              "type": "uint128"
            },
            {
              "internalType": "uint128",
              "name": "extra1",
              "type": "uint128"
            },
            {
              "internalType": "uint64",
              "name": "orderID",
              "type": "uint64"
            },
            {
              "internalType": "uint64",
              "name": "extra2",
              "type": "uint64"
            },
            {
              "internalType": "uint128",
              "name": "extra0",
              "type": "uint128"
            },
            {
              "internalType": "bytes32",
              "name": "refCode",
              "type": "bytes32"
            }
          ],
          "internalType": "struct Order.Props[]",
          "name": "_orders",
          "type": "tuple[]"
        }
      ],
      "stateMutability": "nonpayable",
      "type": "function"
    },
    {
      "inputs": [],
      "name": "closeStore",
      "outputs": [
        {
          "internalType": "contract IOrderStore",
          "name": "",
          "type": "address"
        }
      ],
      "stateMutability": "view",
      "type": "function"
    },
    {
      "inputs": [
        {
          "internalType": "uint256",
          "name": "start",
          "type": "uint256"
        },
        {
          "internalType": "uint256",
          "name": "end",
          "type": "uint256"
        },
        {
          "internalType": "bool",
          "name": "isOpen",
          "type": "bool"
        },
        {
          "internalType": "uint256",
          "name": "_oraclePrice",
          "type": "uint256"
        }
      ],
      "name": "getExecutableOrdersByPrice",
      "outputs": [
        {
          "components": [
            {
              "internalType": "uint8",
              "name": "version",
              "type": "uint8"
            },
            {
              "internalType": "uint32",
              "name": "updatedAtBlock",
              "type": "uint32"
            },
            {
              "internalType": "uint8",
              "name": "triggerAbove",
              "type": "uint8"
            },
            {
              "internalType": "address",
              "name": "account",
              "type": "address"
            },
            {
              "internalType": "uint48",
              "name": "extra3",
              "type": "uint48"
            },
            {
              "internalType": "uint128",
              "name": "collateral",
              "type": "uint128"
            },
            {
              "internalType": "uint128",
              "name": "size",
              "type": "uint128"
            },
            {
              "internalType": "uint128",
              "name": "price",
              "type": "uint128"
            },
            {
              "internalType": "uint128",
              "name": "extra1",
              "type": "uint128"
            },
            {
              "internalType": "uint64",
              "name": "orderID",
              "type": "uint64"
            },
            {
              "internalType": "uint64",
              "name": "extra2",
              "type": "uint64"
            },
            {
              "internalType": "uint128",
              "name": "extra0",
              "type": "uint128"
            },
            {
              "internalType": "bytes32",
              "name": "refCode",
              "type": "bytes32"
            }
          ],
          "internalType": "struct Order.Props[]",
          "name": "_orders",
          "type": "tuple[]"
        }
      ],
      "stateMutability": "view",
      "type": "function"
    },
    {
      "inputs": [
        {
          "internalType": "address",
          "name": "_account",
          "type": "address"
        }
      ],
      "name": "grantControllerRoleByMarketManager",
      "outputs": [],
      "stateMutability": "nonpayable",
      "type": "function"
    },
    {
      "inputs": [
        {
          "internalType": "bytes32",
          "name": "role",
          "type": "bytes32"
        },
        {
          "internalType": "address",
          "name": "account",
          "type": "address"
        }
      ],
      "name": "grantRole",
      "outputs": [],
      "stateMutability": "pure",
      "type": "function"
    },
    {
      "inputs": [
        {
          "internalType": "bytes32",
          "name": "role",
          "type": "bytes32"
        },
        {
          "internalType": "address",
          "name": "account",
          "type": "address"
        }
      ],
      "name": "hasRole",
      "outputs": [
        {
          "internalType": "bool",
          "name": "",
          "type": "bool"
        }
      ],
      "stateMutability": "pure",
      "type": "function"
    },
    {
      "inputs": [
        {
          "internalType": "bool",
          "name": "_isLong",
          "type": "bool"
        },
        {
          "internalType": "address",
          "name": "_openStore",
          "type": "address"
        },
        {
          "internalType": "address",
          "name": "_closeStore",
          "type": "address"
        }
      ],
      "name": "initialize",
      "outputs": [],
      "stateMutability": "nonpayable",
      "type": "function"
    },
    {
      "inputs": [],
      "name": "isLong",
      "outputs": [
        {
          "internalType": "bool",
          "name": "",
          "type": "bool"
        }
      ],
      "stateMutability": "view",
      "type": "function"
    },
    {
      "inputs": [],
      "name": "openStore",
      "outputs": [
        {
          "internalType": "contract IOrderStore",
          "name": "",
          "type": "address"
        }
      ],
      "stateMutability": "view",
      "type": "function"
    },
    {
      "inputs": [
        {
          "internalType": "bytes32",
          "name": "key",
          "type": "bytes32"
        },
        {
          "internalType": "bool",
          "name": "isOpen",
          "type": "bool"
        }
      ],
      "name": "remove",
      "outputs": [
        {
          "components": [
            {
              "internalType": "uint8",
              "name": "version",
              "type": "uint8"
            },
            {
              "internalType": "uint32",
              "name": "updatedAtBlock",
              "type": "uint32"
            },
            {
              "internalType": "uint8",
              "name": "triggerAbove",
              "type": "uint8"
            },
            {
              "internalType": "address",
              "name": "account",
              "type": "address"
            },
            {
              "internalType": "uint48",
              "name": "extra3",
              "type": "uint48"
            },
            {
              "internalType": "uint128",
              "name": "collateral",
              "type": "uint128"
            },
            {
              "internalType": "uint128",
              "name": "size",
              "type": "uint128"
            },
            {
              "internalType": "uint128",
              "name": "price",
              "type": "uint128"
            },
            {
              "internalType": "uint128",
              "name": "extra1",
              "type": "uint128"
            },
            {
              "internalType": "uint64",
              "name": "orderID",
              "type": "uint64"
            },
            {
              "internalType": "uint64",
              "name": "extra2",
              "type": "uint64"
            },
            {
              "internalType": "uint128",
              "name": "extra0",
              "type": "uint128"
            },
            {
              "internalType": "bytes32",
              "name": "refCode",
              "type": "bytes32"
            }
          ],
          "internalType": "struct Order.Props[]",
          "name": "_orders",
          "type": "tuple[]"
        }
      ],
      "stateMutability": "nonpayable",
      "type": "function"
    },
    {
      "inputs": [
        {
          "internalType": "address",
          "name": "account",
          "type": "address"
        },
        {
          "internalType": "uint256",
          "name": "orderID",
          "type": "uint256"
        },
        {
          "internalType": "bool",
          "name": "isOpen",
          "type": "bool"
        }
      ],
      "name": "remove",
      "outputs": [
        {
          "components": [
            {
              "internalType": "uint8",
              "name": "version",
              "type": "uint8"
            },
            {
              "internalType": "uint32",
              "name": "updatedAtBlock",
              "type": "uint32"
            },
            {
              "internalType": "uint8",
              "name": "triggerAbove",
              "type": "uint8"
            },
            {
              "internalType": "address",
              "name": "account",
              "type": "address"
            },
            {
              "internalType": "uint48",
              "name": "extra3",
              "type": "uint48"
            },
            {
              "internalType": "uint128",
              "name": "collateral",
              "type": "uint128"
            },
            {
              "internalType": "uint128",
              "name": "size",
              "type": "uint128"
            },
            {
              "internalType": "uint128",
              "name": "price",
              "type": "uint128"
            },
            {
              "internalType": "uint128",
              "name": "extra1",
              "type": "uint128"
            },
            {
              "internalType": "uint64",
              "name": "orderID",
              "type": "uint64"
            },
            {
              "internalType": "uint64",
              "name": "extra2",
              "type": "uint64"
            },
            {
              "internalType": "uint128",
              "name": "extra0",
              "type": "uint128"
            },
            {
              "internalType": "bytes32",
              "name": "refCode",
              "type": "bytes32"
            }
          ],
          "internalType": "struct Order.Props[]",
          "name": "_orders",
          "type": "tuple[]"
        }
      ],
      "stateMutability": "nonpayable",
      "type": "function"
    },
    {
      "inputs": [
        {
          "internalType": "bool",
          "name": "isOpen",
          "type": "bool"
        },
        {
          "internalType": "address",
          "name": "account",
          "type": "address"
        }
      ],
      "name": "removeByAccount",
      "outputs": [
        {
          "components": [
            {
              "internalType": "uint8",
              "name": "version",
              "type": "uint8"
            },
            {
              "internalType": "uint32",
              "name": "updatedAtBlock",
              "type": "uint32"
            },
            {
              "internalType": "uint8",
              "name": "triggerAbove",
              "type": "uint8"
            },
            {
              "internalType": "address",
              "name": "account",
              "type": "address"
            },
            {
              "internalType": "uint48",
              "name": "extra3",
              "type": "uint48"
            },
            {
              "internalType": "uint128",
              "name": "collateral",
              "type": "uint128"
            },
            {
              "internalType": "uint128",
              "name": "size",
              "type": "uint128"
            },
            {
              "internalType": "uint128",
              "name": "price",
              "type": "uint128"
            },
            {
              "internalType": "uint128",
              "name": "extra1",
              "type": "uint128"
            },
            {
              "internalType": "uint64",
              "name": "orderID",
              "type": "uint64"
            },
            {
              "internalType": "uint64",
              "name": "extra2",
              "type": "uint64"
            },
            {
              "internalType": "uint128",
              "name": "extra0",
              "type": "uint128"
            },
            {
              "internalType": "bytes32",
              "name": "refCode",
              "type": "bytes32"
            }
          ],
          "internalType": "struct Order.Props[]",
          "name": "_orders",
          "type": "tuple[]"
        }
      ],
      "stateMutability": "nonpayable",
      "type": "function"
    },
    {
      "inputs": [
        {
          "internalType": "bytes32",
          "name": "role",
          "type": "bytes32"
        },
        {
          "internalType": "address",
          "name": "account",
          "type": "address"
        }
      ],
      "name": "revokeRole",
      "outputs": [],
      "stateMutability": "pure",
      "type": "function"
    },
    {
      "inputs": [
        {
          "internalType": "address",
          "name": "to",
          "type": "address"
        }
      ],
      "name": "transferAdmin",
      "outputs": [],
      "stateMutability": "nonpayable",
      "type": "function"
    },
    {
      "inputs": [
        {
          "internalType": "address",
          "name": "newOwner",
          "type": "address"
        }
      ],
      "name": "transferOwnership",
      "outputs": [],
      "stateMutability": "pure",
      "type": "function"
    },
    {
      "inputs": [
        {
          "components": [
            {
              "internalType": "address",
              "name": "_market",
              "type": "address"
            },
            {
              "internalType": "bool",
              "name": "_isLong",
              "type": "bool"
            },
            {
              "internalType": "uint256",
              "name": "_oraclePrice",
              "type": "uint256"
            },
            {
              "internalType": "bool",
              "name": "isOpen",
              "type": "bool"
            },
            {
              "internalType": "bool",
              "name": "isCreate",
              "type": "bool"
            },
            {
              "components": [
                {
                  "internalType": "uint8",
                  "name": "version",
                  "type": "uint8"
                },
                {
                  "internalType": "uint32",
                  "name": "updatedAtBlock",
                  "type": "uint32"
                },
                {
                  "internalType": "uint8",
                  "name": "triggerAbove",
                  "type": "uint8"
                },
                {
                  "internalType": "address",
                  "name": "account",
                  "type": "address"
                },
                {
                  "internalType": "uint48",
                  "name": "extra3",
                  "type": "uint48"
                },
                {
                  "internalType": "uint128",
                  "name": "collateral",
                  "type": "uint128"
                },
                {
                  "internalType": "uint128",
                  "name": "size",
                  "type": "uint128"
                },
                {
                  "internalType": "uint128",
                  "name": "price",
                  "type": "uint128"
                },
                {
                  "internalType": "uint128",
                  "name": "extra1",
                  "type": "uint128"
                },
                {
                  "internalType": "uint64",
                  "name": "orderID",
                  "type": "uint64"
                },
                {
                  "internalType": "uint64",
                  "name": "extra2",
                  "type": "uint64"
                },
                {
                  "internalType": "uint128",
                  "name": "extra0",
                  "type": "uint128"
                },
                {
                  "internalType": "bytes32",
                  "name": "refCode",
                  "type": "bytes32"
                }
              ],
              "internalType": "struct Order.Props",
              "name": "_order",
              "type": "tuple"
            },
            {
              "internalType": "uint256[]",
              "name": "inputs",
              "type": "uint256[]"
            }
          ],
          "internalType": "struct MarketDataTypes.UpdateOrderInputs",
          "name": "_vars",
          "type": "tuple"
        }
      ],
      "name": "update",
      "outputs": [
        {
          "components": [
            {
              "internalType": "uint8",
              "name": "version",
              "type": "uint8"
            },
            {
              "internalType": "uint32",
              "name": "updatedAtBlock",
              "type": "uint32"
            },
            {
              "internalType": "uint8",
              "name": "triggerAbove",
              "type": "uint8"
            },
            {
              "internalType": "address",
              "name": "account",
              "type": "address"
            },
            {
              "internalType": "uint48",
              "name": "extra3",
              "type": "uint48"
            },
            {
              "internalType": "uint128",
              "name": "collateral",
              "type": "uint128"
            },
            {
              "internalType": "uint128",
              "name": "size",
              "type": "uint128"
            },
            {
              "internalType": "uint128",
              "name": "price",
              "type": "uint128"
            },
            {
              "internalType": "uint128",
              "name": "extra1",
              "type": "uint128"
            },
            {
              "internalType": "uint64",
              "name": "orderID",
              "type": "uint64"
            },
            {
              "internalType": "uint64",
              "name": "extra2",
              "type": "uint64"
            },
            {
              "internalType": "uint128",
              "name": "extra0",
              "type": "uint128"
            },
            {
              "internalType": "bytes32",
              "name": "refCode",
              "type": "bytes32"
            }
          ],
          "internalType": "struct Order.Props",
          "name": "_order",
          "type": "tuple"
        }
      ],
      "stateMutability": "nonpayable",
      "type": "function"
    }
  ],
  "bytecode": "0x60806040523480156200001157600080fd5b506040516200246b3803806200246b833981016040819052620000349162000062565b806200004b816200005360201b6200122b1760201c565b505062000094565b426001556200005f3381565b50565b6000602082840312156200007557600080fd5b81516001600160a01b03811681146200008d57600080fd5b9392505050565b6123c780620000a46000396000f3fe608060405234801561001057600080fd5b50600436106101165760003560e01c80637fe4a698116100a2578063b398a84211610071578063b398a84214610265578063d29d44ee14610278578063d547741f14610188578063e254542214610289578063f2fde38b1461027857600080fd5b80637fe4a698146102135780638f5492061461022657806391d1485414610239578063a217fddf1461024f57600080fd5b806345824d67116100e957806345824d671461019c5780636d078566146101af5780637380adf0146101da57806375829def146101ed5780637e1dcaf71461020057600080fd5b80630c3167391461011b57806314d102a914610144578063202a61a1146101645780632f2ff15d14610188575b600080fd5b61012e610129366004611c68565b61029c565b60405161013b9190611dc6565b60405180910390f35b610157610152366004611dd5565b6105b0565b60405161013b9190611e14565b60035461017890600160a01b900460ff1681565b604051901515815260200161013b565b61019a610196366004611e63565b5050565b005b6101576101aa366004611e93565b6108e7565b6003546101c2906001600160a01b031681565b6040516001600160a01b03909116815260200161013b565b6101576101e8366004611eb8565b610b52565b61019a6101fb366004611ee6565b610c01565b6002546101c2906001600160a01b031681565b61019a610221366004611ee6565b610286565b610157610234366004611f0a565b610c0c565b610178610247366004611e63565b600192915050565b610257600081565b60405190815260200161013b565b610157610273366004611f4c565b610d02565b61019a610286366004611ee6565b50565b61019a610297366004611ffc565b61102c565b6102a461186b565b60006102b38360a00151611232565b9050600083606001516102d1576003546001600160a01b03166102de565b6002546001600160a01b03165b604051637b58815360e11b8152600481018490529091506001600160a01b0382169063f6b102a690602401602060405180830381865afa158015610326573d6000803e3d6000fd5b505050506040513d601f19601f8201168201806040525081019061034a919061203c565b61039b5760405162461bcd60e51b815260206004820152601a60248201527f4f72646572426f6f6b3a696e76616c6964206f726465724b657900000000000060448201526064015b60405180910390fd5b6040516309c3f1e960e41b8152600481018390526001600160a01b03821690639c3f1e90906024016101a060405180830381865afa1580156103e1573d6000803e3d6000fd5b505050506040513d601f19601f820116820180604052508101906104059190612195565b805190935060ff1660011461045c5760405162461bcd60e51b815260206004820152601760248201527f4f72646572426f6f6b3a77726f6e672076657273696f6e0000000000000000006044820152606401610392565b60a084015160e0908101516001600160801b03169084015260608401516104a5576104a06104998560a001516080015165ffffffffffff16151590565b849061126d565b6104e1565b6104c46104bd8560a001516101400151600f16151590565b849061128b565b60a084015161014001516104e19060041c600f16151584906112bf565b6104eb84846112fa565b925083606001511561053d5761051a6105138560a0015161010001516001600160801b031690565b84906113a7565b61053d6105368560a0015161016001516001600160801b031690565b84906113c6565b61054b8385606001516113e5565b6040516309775f1d60e31b81526001600160a01b03821690634bbaf8e890610577908690600401611dc6565b600060405180830381600087803b15801561059157600080fd5b505af11580156105a5573d6000803e3d6000fd5b505050505050919050565b60606005826105f45760405162461bcd60e51b815260206004820152601060248201526f6f7261636c655072696365207a65726f60801b6044820152606401610392565b60008461060c576003546001600160a01b0316610619565b6002546001600160a01b03165b60405163b4d1cbad60e01b815260048101899052602481018890529091506000906001600160a01b0383169063b4d1cbad90604401600060405180830381865afa15801561066b573d6000803e3d6000fd5b505050506040513d6000823e601f3d908101601f1916820160405261069391908101906121b2565b8051909150600090815b8181101561077f5760008482815181106106b9576106b9612242565b602002602001015190506000866001600160a01b0316639c3f1e90836040518263ffffffff1660e01b81526004016106f391815260200190565b6101a060405180830381865afa158015610711573d6000803e3d6000fd5b505050506040513d601f19601f820116820180604052508101906107359190612195565b9050610741818b611501565b801561074c57508115155b8061075c575061075c818c61153f565b156107755784600101945087851061077557505061077f565b505060010161069d565b50816001600160401b03811115610798576107986118d7565b6040519080825280602002602001820160405280156107d157816020015b6107be61186b565b8152602001906001900390816107b65790505b5095506000805b828110156108d85760008582815181106107f4576107f4612242565b602002602001015190506000876001600160a01b0316639c3f1e90836040518263ffffffff1660e01b815260040161082e91815260200190565b6101a060405180830381865afa15801561084c573d6000803e3d6000fd5b505050506040513d601f19601f820116820180604052508101906108709190612195565b905061087c818c611501565b801561088757508115155b806108975750610897818d61153f565b156108ce57808a85815181106108af576108af612242565b60200260200101819052508360010193508884106108ce5750506108d8565b50506001016107d8565b50505050505050949350505050565b6060600082610901576003546001600160a01b031661090e565b6002546001600160a01b03165b9050821515600003610a8e576040516309c3f1e960e41b815260048101859052600090610990906001600160a01b03841690639c3f1e90906024016101a060405180830381865afa158015610967573d6000803e3d6000fd5b505050506040513d601f19601f8201168201806040525081019061098b9190612195565b611571565b90508061099e5760016109a1565b60025b60ff166001600160401b038111156109bb576109bb6118d7565b6040519080825280602002602001820160405280156109f457816020015b6109e161186b565b8152602001906001900390816109d95790505b5092508015610a88576040516395bc267360e01b8152600481018290526001600160a01b038316906395bc2673906024016101a0604051808303816000875af1158015610a45573d6000803e3d6000fd5b505050506040513d601f19601f82011682018060405250810190610a699190612195565b83600181518110610a7c57610a7c612242565b60200260200101819052505b50610ac1565b60408051600180825281830190925290816020015b610aab61186b565b815260200190600190039081610aa35790505091505b6040516395bc267360e01b8152600481018590526001600160a01b038216906395bc2673906024016101a0604051808303816000875af1158015610b09573d6000803e3d6000fd5b505050506040513d601f19601f82011682018060405250810190610b2d9190612195565b82600081518110610b4057610b40612242565b60200260200101819052505092915050565b60606001600160a01b03821615610bfb5782610b79576003546001600160a01b0316610b86565b6002546001600160a01b03165b604051631c1b6fcd60e01b81526001600160a01b0384811660048301529190911690631c1b6fcd906024016000604051808303816000875af1158015610bd0573d6000803e3d6000fd5b505050506040513d6000823e601f3d908101601f19168201604052610bf89190810190612258565b90505b92915050565b600061019660003382565b604080516001808252818301909252606091816020015b610c2b61186b565b815260200190600190039081610c2357905050905081610c56576003546001600160a01b0316610c63565b6002546001600160a01b03165b6001600160a01b03166395bc2673610c7b8686611582565b6040518263ffffffff1660e01b8152600401610c9991815260200190565b6101a0604051808303816000875af1158015610cb9573d6000803e3d6000fd5b505050506040513d601f19601f82011682018060405250810190610cdd9190612195565b81600081518110610cf057610cf0612242565b60200260200101819052509392505050565b8051606090806001600160401b03811115610d1f57610d1f6118d7565b604051908082528060200260200182016040528015610d5857816020015b610d4561186b565b815260200190600190039081610d3d5790505b50915060005b81811015610ea1576000848281518110610d7a57610d7a612242565b602090810291909101015160a00151600181528551909150859083908110610da457610da4612242565b602002602001015160600151610dc5576003546001600160a01b0316610dd2565b6002546001600160a01b03165b6060820151604051637859f28160e11b81526001600160a01b03918216600482015291169063f0b3e502906024016020604051808303816000875af1158015610e1f573d6000803e3d6000fd5b505050506040513d601f19601f82011682018060405250810190610e4391906122f2565b6001600160401b03166101208201528451610e7890869084908110610e6a57610e6a612242565b6020026020010151826112fa565b905080848381518110610e8d57610e8d612242565b602090810291909101015250600101610d5e565b5080600203610f2c57610ef682600181518110610ec057610ec0612242565b6020026020010151610120015183600081518110610ee057610ee0612242565b60200260200101516115b590919063ffffffff16565b610f2c82600081518110610f0c57610f0c612242565b6020026020010151610120015183600181518110610ee057610ee0612242565b60005b81811015611025576000838281518110610f4b57610f4b612242565b60200260200101519050610f7c81868481518110610f6b57610f6b612242565b6020026020010151606001516113e5565b848281518110610f8e57610f8e612242565b602002602001015160600151610faf576003546001600160a01b0316610fbc565b6002546001600160a01b03165b6001600160a01b0316632597382b826040518263ffffffff1660e01b8152600401610fe79190611dc6565b600060405180830381600087803b15801561100157600080fd5b505af1158015611015573d6000803e3d6000fd5b5050505081600101915050610f2f565b5050919050565b600054610100900460ff161580801561104c5750600054600160ff909116105b806110665750303b158015611066575060005460ff166001145b6110c95760405162461bcd60e51b815260206004820152602e60248201527f496e697469616c697a61626c653a20636f6e747261637420697320616c72656160448201526d191e481a5b9a5d1a585b1a5e995960921b6064820152608401610392565b6000805460ff1916600117905580156110ec576000805461ff0019166101001790555b60038054851515600160a01b0260ff60a01b19909116179055600280546001600160a01b0385166001600160a01b0319909116811790915560405163d53a822f60e01b815263d53a822f9061114b908790600401901515815260200190565b600060405180830381600087803b15801561116557600080fd5b505af1925050508015611176575060015b50600380546001600160a01b0319166001600160a01b03841690811790915560405163d53a822f60e01b8152851515600482015263d53a822f90602401600060405180830381600087803b1580156111cd57600080fd5b505af19250505080156111de575060015b508015611225576000805461ff0019169055604051600181527f7f26b83ff96e1f2b6a682f133852f6798a09c465da95921460cefb38474024989060200160405180910390a15b50505050565b4260015550565b6000816060015182610120015160405160200161125092919061230b565b604051602081830303815290604052805190602001209050919050565b8061127957600061127c565b60015b60ff1660809092019190915250565b60008161129957600061129c565b60015b610140909301805167fffffffffffffff01660ff94909416939093179092525050565b6000816112cd5760006112d0565b60015b610140909301805167ffffffffffffff0f16610ff060049590951b94909416939093179092525050565b61130261186b565b61130b836115c7565b1561133a576020830151606084015161132a9184911515901514611602565b611335826001611620565b6113a1565b82606001511561135557602083015161133590839015611602565b8260a001516040015160ff1660000361138e576113358260e001516001600160801b03168460400151108361160290919063ffffffff16565b60a083015160409081015160ff16908301525b50919050565b6113b081611669565b6001600160801b03166101009092019190915250565b6113cf81611669565b6001600160801b03166101609092019190915250565b801561145857600354611403908390600160a01b900460ff166116d6565b60008260a001516001600160801b0316116114585760405162461bcd60e51b815260206004820152601560248201527413d08e9a5b9d985b1a590818dbdb1b185d195c985b605a1b6044820152606401610392565b60608201516001600160a01b03166114b25760405162461bcd60e51b815260206004820152601960248201527f4f72646572426f6f6b3a696e76616c6964206163636f756e74000000000000006044820152606401610392565b816040015160ff166000036101965760405162461bcd60e51b815260206004820152601560248201527413d08e9d1c9a59d9d95c8818589bdd99481a5b9a5d605a1b6044820152606401610392565b600061150c836117e2565b15611528575060e08201516001600160801b0316811015610bfb565b5060e08201516001600160801b0316811115610bfb565b6000811561155c5750608082015165ffffffffffff161515610bfb565b505061010001516001600160801b0316151590565b6000610bfb82606001518361014001515b6000828260405160200161159792919061230b565b60405160208183030381529060405280519060200120905092915050565b6001600160401b031661014090910152565b600060028260c001515110158015610bfb575060008260c001516001815181106115f3576115f3612242565b60200260200101511192915050565b8061160e576002611611565b60015b60ff1660409092019190915250565b816040015160ff166001148061163d5750816040015160ff166002145b61164657600080fd5b80156101965760028260400181815161165f919061233a565b60ff169052505050565b60006001600160801b038211156116d25760405162461bcd60e51b815260206004820152602760248201527f53616665436173743a2076616c756520646f65736e27742066697420696e20316044820152663238206269747360c81b6064820152608401610392565b5090565b60006116ed8361010001516001600160801b031690565b111561175c578015158260e001516001600160801b03166117198461010001516001600160801b031690565b111461175c5760405162461bcd60e51b81526020600482015260126024820152714f72646572426f6f6b3a74703c707269636560701b6044820152606401610392565b60006117738361016001516001600160801b031690565b1115610196578015156117918361016001516001600160801b031690565b60e08401516001600160801b031611146101965760405162461bcd60e51b81526020600482015260126024820152714f72646572426f6f6b3a736c3e707269636560701b6044820152606401610392565b6000816040015160ff1660000361183b5760405162461bcd60e51b815260206004820152601b60248201527f696e76616c6964206f7264657220747269676765722061626f766500000000006044820152606401610392565b6002826040015161184c9190612361565b60ff1660010361185e57506001919050565b506000919050565b919050565b604080516101a081018252600080825260208201819052918101829052606081018290526080810182905260a0810182905260c0810182905260e08101829052610100810182905261012081018290526101408101829052610160810182905261018081019190915290565b634e487b7160e01b600052604160045260246000fd5b6040516101a081016001600160401b0381118282101715611910576119106118d7565b60405290565b60405160e081016001600160401b0381118282101715611910576119106118d7565b604051601f8201601f191681016001600160401b0381118282101715611960576119606118d7565b604052919050565b6001600160a01b038116811461028657600080fd5b803561186681611968565b801515811461028657600080fd5b803561186681611988565b60ff8116811461028657600080fd5b8035611866816119a1565b63ffffffff8116811461028657600080fd5b8035611866816119bb565b65ffffffffffff8116811461028657600080fd5b8035611866816119d8565b6001600160801b038116811461028657600080fd5b8035611866816119f7565b6001600160401b038116811461028657600080fd5b803561186681611a17565b60006101a08284031215611a4a57600080fd5b611a526118ed565b9050611a5d826119b0565b8152611a6b602083016119cd565b6020820152611a7c604083016119b0565b6040820152611a8d6060830161197d565b6060820152611a9e608083016119ec565b6080820152611aaf60a08301611a0c565b60a0820152611ac060c08301611a0c565b60c0820152611ad160e08301611a0c565b60e0820152610100611ae4818401611a0c565b90820152610120611af6838201611a2c565b90820152610140611b08838201611a2c565b90820152610160611b1a838201611a0c565b818301525061018080830135818301525092915050565b60006001600160401b03821115611b4a57611b4a6118d7565b5060051b60200190565b600082601f830112611b6557600080fd5b81356020611b7a611b7583611b31565b611938565b82815260059290921b84018101918181019086841115611b9957600080fd5b8286015b84811015611bb45780358352918301918301611b9d565b509695505050505050565b60006102608284031215611bd257600080fd5b611bda611916565b9050611be58261197d565b8152611bf360208301611996565b602082015260408201356040820152611c0e60608301611996565b6060820152611c1f60808301611996565b6080820152611c318360a08401611a37565b60a08201526102408201356001600160401b03811115611c5057600080fd5b611c5c84828501611b54565b60c08301525092915050565b600060208284031215611c7a57600080fd5b81356001600160401b03811115611c9057600080fd5b611c9c84828501611bbf565b949350505050565b805160ff1682526020810151611cc2602084018263ffffffff169052565b506040810151611cd7604084018260ff169052565b506060810151611cf260608401826001600160a01b03169052565b506080810151611d0c608084018265ffffffffffff169052565b5060a0810151611d2760a08401826001600160801b03169052565b5060c0810151611d4260c08401826001600160801b03169052565b5060e0810151611d5d60e08401826001600160801b03169052565b50610100818101516001600160801b038116848301525050610120818101516001600160401b038116848301525050610140818101516001600160401b038116848301525050610160818101516001600160801b03811684830152505061018090810151910152565b6101a08101610bfb8284611ca4565b60008060008060808587031215611deb57600080fd5b84359350602085013592506040850135611e0481611988565b9396929550929360600135925050565b6020808252825182820181905260009190848201906040850190845b81811015611e5757611e43838551611ca4565b928401926101a09290920191600101611e30565b50909695505050505050565b60008060408385031215611e7657600080fd5b823591506020830135611e8881611968565b809150509250929050565b60008060408385031215611ea657600080fd5b823591506020830135611e8881611988565b60008060408385031215611ecb57600080fd5b8235611ed681611988565b91506020830135611e8881611968565b600060208284031215611ef857600080fd5b8135611f0381611968565b9392505050565b600080600060608486031215611f1f57600080fd5b8335611f2a81611968565b9250602084013591506040840135611f4181611988565b809150509250925092565b60006020808385031215611f5f57600080fd5b82356001600160401b0380821115611f7657600080fd5b818501915085601f830112611f8a57600080fd5b8135611f98611b7582611b31565b81815260059190911b83018401908481019088831115611fb757600080fd5b8585015b83811015611fef57803585811115611fd35760008081fd5b611fe18b89838a0101611bbf565b845250918601918601611fbb565b5098975050505050505050565b60008060006060848603121561201157600080fd5b833561201c81611988565b9250602084013561202c81611968565b91506040840135611f4181611968565b60006020828403121561204e57600080fd5b8151611f0381611988565b8051611866816119a1565b8051611866816119bb565b805161186681611968565b8051611866816119d8565b8051611866816119f7565b805161186681611a17565b60006101a082840312156120ae57600080fd5b6120b66118ed565b90506120c182612059565b81526120cf60208301612064565b60208201526120e060408301612059565b60408201526120f16060830161206f565b60608201526121026080830161207a565b608082015261211360a08301612085565b60a082015261212460c08301612085565b60c082015261213560e08301612085565b60e0820152610100612148818401612085565b9082015261012061215a838201612090565b9082015261014061216c838201612090565b9082015261016061217e838201612085565b818301525061018080830151818301525092915050565b60006101a082840312156121a857600080fd5b611f03838361209b565b600060208083850312156121c557600080fd5b82516001600160401b038111156121db57600080fd5b8301601f810185136121ec57600080fd5b80516121fa611b7582611b31565b81815260059190911b8201830190838101908783111561221957600080fd5b928401925b828410156122375783518252928401929084019061221e565b979650505050505050565b634e487b7160e01b600052603260045260246000fd5b6000602080838503121561226b57600080fd5b82516001600160401b0381111561228157600080fd5b8301601f8101851361229257600080fd5b80516122a0611b7582611b31565b8181526101a091820283018401918482019190888411156122c057600080fd5b938501935b838510156122e6576122d7898661209b565b835293840193918501916122c5565b50979650505050505050565b60006020828403121561230457600080fd5b5051919050565b60609290921b6bffffffffffffffffffffffff1916825260c01b6001600160c01b0319166014820152601c0190565b60ff8181168382160190811115610bfb57634e487b7160e01b600052601160045260246000fd5b600060ff83168061238257634e487b7160e01b600052601260045260246000fd5b8060ff8416069150509291505056fea26469706673582212206c212b1ee639336744277c393bbdd82567a0749da2b7a2b32880a91d4000c1b464736f6c63430008110033",
  "linkReferences": {},
  "deployedLinkReferences": {}
}