{
  "_format": "hh-sol-artifact-1",
  "contractName": "OrderBook",
  "sourceName": "contracts/order/OrderBook.sol",
  "abi": [
    {
      "inputs": [
        {
          "internalType": "address",
          "name": "_f",
          "type": "address"
        }
      ],
      "stateMutability": "nonpayable",
      "type": "constructor"
    },
    {
      "anonymous": false,
      "inputs": [
        {
          "indexed": false,
          "internalType": "uint8",
          "name": "version",
          "type": "uint8"
        }
      ],
      "name": "Initialized",
      "type": "event"
    },
    {
      "anonymous": false,
      "inputs": [
        {
          "indexed": true,
          "internalType": "address",
          "name": "previousOwner",
          "type": "address"
        },
        {
          "indexed": true,
          "internalType": "address",
          "name": "newOwner",
          "type": "address"
        }
      ],
      "name": "OwnershipTransferred",
      "type": "event"
    },
    {
      "anonymous": false,
      "inputs": [
        {
          "indexed": true,
          "internalType": "bytes32",
          "name": "role",
          "type": "bytes32"
        },
        {
          "indexed": true,
          "internalType": "bytes32",
          "name": "previousAdminRole",
          "type": "bytes32"
        },
        {
          "indexed": true,
          "internalType": "bytes32",
          "name": "newAdminRole",
          "type": "bytes32"
        }
      ],
      "name": "RoleAdminChanged",
      "type": "event"
    },
    {
      "anonymous": false,
      "inputs": [
        {
          "indexed": true,
          "internalType": "bytes32",
          "name": "role",
          "type": "bytes32"
        },
        {
          "indexed": true,
          "internalType": "address",
          "name": "account",
          "type": "address"
        },
        {
          "indexed": true,
          "internalType": "address",
          "name": "sender",
          "type": "address"
        }
      ],
      "name": "RoleGranted",
      "type": "event"
    },
    {
      "anonymous": false,
      "inputs": [
        {
          "indexed": true,
          "internalType": "bytes32",
          "name": "role",
          "type": "bytes32"
        },
        {
          "indexed": true,
          "internalType": "address",
          "name": "account",
          "type": "address"
        },
        {
          "indexed": true,
          "internalType": "address",
          "name": "sender",
          "type": "address"
        }
      ],
      "name": "RoleRevoked",
      "type": "event"
    },
    {
      "inputs": [],
      "name": "DEFAULT_ADMIN_ROLE",
      "outputs": [
        {
          "internalType": "bytes32",
          "name": "",
          "type": "bytes32"
        }
      ],
      "stateMutability": "view",
      "type": "function"
    },
    {
      "inputs": [
        {
          "components": [
            {
              "internalType": "address",
              "name": "_market",
              "type": "address"
            },
            {
              "internalType": "bool",
              "name": "_isLong",
              "type": "bool"
            },
            {
              "internalType": "uint256",
              "name": "_oraclePrice",
              "type": "uint256"
            },
            {
              "internalType": "bool",
              "name": "isOpen",
              "type": "bool"
            },
            {
              "internalType": "bool",
              "name": "isCreate",
              "type": "bool"
            },
            {
              "components": [
                {
                  "internalType": "uint8",
                  "name": "version",
                  "type": "uint8"
                },
                {
                  "internalType": "uint32",
                  "name": "updatedAtBlock",
                  "type": "uint32"
                },
                {
                  "internalType": "uint8",
                  "name": "triggerAbove",
                  "type": "uint8"
                },
                {
                  "internalType": "address",
                  "name": "account",
                  "type": "address"
                },
                {
                  "internalType": "uint48",
                  "name": "extra3",
                  "type": "uint48"
                },
                {
                  "internalType": "uint128",
                  "name": "collateral",
                  "type": "uint128"
                },
                {
                  "internalType": "uint128",
                  "name": "size",
                  "type": "uint128"
                },
                {
                  "internalType": "uint128",
                  "name": "price",
                  "type": "uint128"
                },
                {
                  "internalType": "uint128",
                  "name": "extra1",
                  "type": "uint128"
                },
                {
                  "internalType": "uint64",
                  "name": "orderID",
                  "type": "uint64"
                },
                {
                  "internalType": "uint64",
                  "name": "extra2",
                  "type": "uint64"
                },
                {
                  "internalType": "uint128",
                  "name": "extra0",
                  "type": "uint128"
                },
                {
                  "internalType": "bytes32",
                  "name": "refCode",
                  "type": "bytes32"
                }
              ],
              "internalType": "struct Order.Props",
              "name": "_order",
              "type": "tuple"
            },
            {
              "internalType": "uint256[]",
              "name": "inputs",
              "type": "uint256[]"
            }
          ],
          "internalType": "struct MarketDataTypes.UpdateOrderInputs[]",
          "name": "_vars",
          "type": "tuple[]"
        }
      ],
      "name": "add",
      "outputs": [
        {
          "components": [
            {
              "internalType": "uint8",
              "name": "version",
              "type": "uint8"
            },
            {
              "internalType": "uint32",
              "name": "updatedAtBlock",
              "type": "uint32"
            },
            {
              "internalType": "uint8",
              "name": "triggerAbove",
              "type": "uint8"
            },
            {
              "internalType": "address",
              "name": "account",
              "type": "address"
            },
            {
              "internalType": "uint48",
              "name": "extra3",
              "type": "uint48"
            },
            {
              "internalType": "uint128",
              "name": "collateral",
              "type": "uint128"
            },
            {
              "internalType": "uint128",
              "name": "size",
              "type": "uint128"
            },
            {
              "internalType": "uint128",
              "name": "price",
              "type": "uint128"
            },
            {
              "internalType": "uint128",
              "name": "extra1",
              "type": "uint128"
            },
            {
              "internalType": "uint64",
              "name": "orderID",
              "type": "uint64"
            },
            {
              "internalType": "uint64",
              "name": "extra2",
              "type": "uint64"
            },
            {
              "internalType": "uint128",
              "name": "extra0",
              "type": "uint128"
            },
            {
              "internalType": "bytes32",
              "name": "refCode",
              "type": "bytes32"
            }
          ],
          "internalType": "struct Order.Props[]",
          "name": "_orders",
          "type": "tuple[]"
        }
      ],
      "stateMutability": "nonpayable",
      "type": "function"
    },
    {
      "inputs": [],
      "name": "closeStore",
      "outputs": [
        {
          "internalType": "contract IOrderStore",
          "name": "",
          "type": "address"
        }
      ],
      "stateMutability": "view",
      "type": "function"
    },
    {
      "inputs": [
        {
          "internalType": "uint256",
          "name": "start",
          "type": "uint256"
        },
        {
          "internalType": "uint256",
          "name": "end",
          "type": "uint256"
        },
        {
          "internalType": "bool",
          "name": "isOpen",
          "type": "bool"
        },
        {
          "internalType": "uint256",
          "name": "_oraclePrice",
          "type": "uint256"
        }
      ],
      "name": "getExecutableOrdersByPrice",
      "outputs": [
        {
          "components": [
            {
              "internalType": "uint8",
              "name": "version",
              "type": "uint8"
            },
            {
              "internalType": "uint32",
              "name": "updatedAtBlock",
              "type": "uint32"
            },
            {
              "internalType": "uint8",
              "name": "triggerAbove",
              "type": "uint8"
            },
            {
              "internalType": "address",
              "name": "account",
              "type": "address"
            },
            {
              "internalType": "uint48",
              "name": "extra3",
              "type": "uint48"
            },
            {
              "internalType": "uint128",
              "name": "collateral",
              "type": "uint128"
            },
            {
              "internalType": "uint128",
              "name": "size",
              "type": "uint128"
            },
            {
              "internalType": "uint128",
              "name": "price",
              "type": "uint128"
            },
            {
              "internalType": "uint128",
              "name": "extra1",
              "type": "uint128"
            },
            {
              "internalType": "uint64",
              "name": "orderID",
              "type": "uint64"
            },
            {
              "internalType": "uint64",
              "name": "extra2",
              "type": "uint64"
            },
            {
              "internalType": "uint128",
              "name": "extra0",
              "type": "uint128"
            },
            {
              "internalType": "bytes32",
              "name": "refCode",
              "type": "bytes32"
            }
          ],
          "internalType": "struct Order.Props[]",
          "name": "_orders",
          "type": "tuple[]"
        }
      ],
      "stateMutability": "view",
      "type": "function"
    },
    {
      "inputs": [
        {
          "internalType": "bytes32",
          "name": "role",
          "type": "bytes32"
        }
      ],
      "name": "getRoleAdmin",
      "outputs": [
        {
          "internalType": "bytes32",
          "name": "",
          "type": "bytes32"
        }
      ],
      "stateMutability": "view",
      "type": "function"
    },
    {
      "inputs": [
        {
          "internalType": "address",
          "name": "_account",
          "type": "address"
        }
      ],
      "name": "grantControllerRoleByMarketManager",
      "outputs": [],
      "stateMutability": "nonpayable",
      "type": "function"
    },
    {
      "inputs": [
        {
          "internalType": "bytes32",
          "name": "role",
          "type": "bytes32"
        },
        {
          "internalType": "address",
          "name": "account",
          "type": "address"
        }
      ],
      "name": "grantRole",
      "outputs": [],
      "stateMutability": "nonpayable",
      "type": "function"
    },
    {
      "inputs": [
        {
          "internalType": "bytes32",
          "name": "role",
          "type": "bytes32"
        },
        {
          "internalType": "address",
          "name": "account",
          "type": "address"
        }
      ],
      "name": "hasRole",
      "outputs": [
        {
          "internalType": "bool",
          "name": "",
          "type": "bool"
        }
      ],
      "stateMutability": "view",
      "type": "function"
    },
    {
      "inputs": [
        {
          "internalType": "bool",
          "name": "_isLong",
          "type": "bool"
        },
        {
          "internalType": "address",
          "name": "_openStore",
          "type": "address"
        },
        {
          "internalType": "address",
          "name": "_closeStore",
          "type": "address"
        }
      ],
      "name": "initialize",
      "outputs": [],
      "stateMutability": "nonpayable",
      "type": "function"
    },
    {
      "inputs": [],
      "name": "isLong",
      "outputs": [
        {
          "internalType": "bool",
          "name": "",
          "type": "bool"
        }
      ],
      "stateMutability": "view",
      "type": "function"
    },
    {
      "inputs": [],
      "name": "openStore",
      "outputs": [
        {
          "internalType": "contract IOrderStore",
          "name": "",
          "type": "address"
        }
      ],
      "stateMutability": "view",
      "type": "function"
    },
    {
      "inputs": [],
      "name": "owner",
      "outputs": [
        {
          "internalType": "address",
          "name": "",
          "type": "address"
        }
      ],
      "stateMutability": "view",
      "type": "function"
    },
    {
      "inputs": [
        {
          "internalType": "bytes32",
          "name": "key",
          "type": "bytes32"
        },
        {
          "internalType": "bool",
          "name": "isOpen",
          "type": "bool"
        }
      ],
      "name": "remove",
      "outputs": [
        {
          "components": [
            {
              "internalType": "uint8",
              "name": "version",
              "type": "uint8"
            },
            {
              "internalType": "uint32",
              "name": "updatedAtBlock",
              "type": "uint32"
            },
            {
              "internalType": "uint8",
              "name": "triggerAbove",
              "type": "uint8"
            },
            {
              "internalType": "address",
              "name": "account",
              "type": "address"
            },
            {
              "internalType": "uint48",
              "name": "extra3",
              "type": "uint48"
            },
            {
              "internalType": "uint128",
              "name": "collateral",
              "type": "uint128"
            },
            {
              "internalType": "uint128",
              "name": "size",
              "type": "uint128"
            },
            {
              "internalType": "uint128",
              "name": "price",
              "type": "uint128"
            },
            {
              "internalType": "uint128",
              "name": "extra1",
              "type": "uint128"
            },
            {
              "internalType": "uint64",
              "name": "orderID",
              "type": "uint64"
            },
            {
              "internalType": "uint64",
              "name": "extra2",
              "type": "uint64"
            },
            {
              "internalType": "uint128",
              "name": "extra0",
              "type": "uint128"
            },
            {
              "internalType": "bytes32",
              "name": "refCode",
              "type": "bytes32"
            }
          ],
          "internalType": "struct Order.Props[]",
          "name": "_orders",
          "type": "tuple[]"
        }
      ],
      "stateMutability": "nonpayable",
      "type": "function"
    },
    {
      "inputs": [
        {
          "internalType": "address",
          "name": "account",
          "type": "address"
        },
        {
          "internalType": "uint256",
          "name": "orderID",
          "type": "uint256"
        },
        {
          "internalType": "bool",
          "name": "isOpen",
          "type": "bool"
        }
      ],
      "name": "remove",
      "outputs": [
        {
          "components": [
            {
              "internalType": "uint8",
              "name": "version",
              "type": "uint8"
            },
            {
              "internalType": "uint32",
              "name": "updatedAtBlock",
              "type": "uint32"
            },
            {
              "internalType": "uint8",
              "name": "triggerAbove",
              "type": "uint8"
            },
            {
              "internalType": "address",
              "name": "account",
              "type": "address"
            },
            {
              "internalType": "uint48",
              "name": "extra3",
              "type": "uint48"
            },
            {
              "internalType": "uint128",
              "name": "collateral",
              "type": "uint128"
            },
            {
              "internalType": "uint128",
              "name": "size",
              "type": "uint128"
            },
            {
              "internalType": "uint128",
              "name": "price",
              "type": "uint128"
            },
            {
              "internalType": "uint128",
              "name": "extra1",
              "type": "uint128"
            },
            {
              "internalType": "uint64",
              "name": "orderID",
              "type": "uint64"
            },
            {
              "internalType": "uint64",
              "name": "extra2",
              "type": "uint64"
            },
            {
              "internalType": "uint128",
              "name": "extra0",
              "type": "uint128"
            },
            {
              "internalType": "bytes32",
              "name": "refCode",
              "type": "bytes32"
            }
          ],
          "internalType": "struct Order.Props[]",
          "name": "_orders",
          "type": "tuple[]"
        }
      ],
      "stateMutability": "nonpayable",
      "type": "function"
    },
    {
      "inputs": [
        {
          "internalType": "bool",
          "name": "isOpen",
          "type": "bool"
        },
        {
          "internalType": "address",
          "name": "account",
          "type": "address"
        }
      ],
      "name": "removeByAccount",
      "outputs": [
        {
          "components": [
            {
              "internalType": "uint8",
              "name": "version",
              "type": "uint8"
            },
            {
              "internalType": "uint32",
              "name": "updatedAtBlock",
              "type": "uint32"
            },
            {
              "internalType": "uint8",
              "name": "triggerAbove",
              "type": "uint8"
            },
            {
              "internalType": "address",
              "name": "account",
              "type": "address"
            },
            {
              "internalType": "uint48",
              "name": "extra3",
              "type": "uint48"
            },
            {
              "internalType": "uint128",
              "name": "collateral",
              "type": "uint128"
            },
            {
              "internalType": "uint128",
              "name": "size",
              "type": "uint128"
            },
            {
              "internalType": "uint128",
              "name": "price",
              "type": "uint128"
            },
            {
              "internalType": "uint128",
              "name": "extra1",
              "type": "uint128"
            },
            {
              "internalType": "uint64",
              "name": "orderID",
              "type": "uint64"
            },
            {
              "internalType": "uint64",
              "name": "extra2",
              "type": "uint64"
            },
            {
              "internalType": "uint128",
              "name": "extra0",
              "type": "uint128"
            },
            {
              "internalType": "bytes32",
              "name": "refCode",
              "type": "bytes32"
            }
          ],
          "internalType": "struct Order.Props[]",
          "name": "_orders",
          "type": "tuple[]"
        }
      ],
      "stateMutability": "nonpayable",
      "type": "function"
    },
    {
      "inputs": [],
      "name": "renounceOwnership",
      "outputs": [],
      "stateMutability": "nonpayable",
      "type": "function"
    },
    {
      "inputs": [
        {
          "internalType": "bytes32",
          "name": "role",
          "type": "bytes32"
        },
        {
          "internalType": "address",
          "name": "account",
          "type": "address"
        }
      ],
      "name": "renounceRole",
      "outputs": [],
      "stateMutability": "nonpayable",
      "type": "function"
    },
    {
      "inputs": [
        {
          "internalType": "bytes32",
          "name": "role",
          "type": "bytes32"
        },
        {
          "internalType": "address",
          "name": "account",
          "type": "address"
        }
      ],
      "name": "revokeRole",
      "outputs": [],
      "stateMutability": "nonpayable",
      "type": "function"
    },
    {
      "inputs": [
        {
          "internalType": "bytes4",
          "name": "interfaceId",
          "type": "bytes4"
        }
      ],
      "name": "supportsInterface",
      "outputs": [
        {
          "internalType": "bool",
          "name": "",
          "type": "bool"
        }
      ],
      "stateMutability": "view",
      "type": "function"
    },
    {
      "inputs": [
        {
          "internalType": "address",
          "name": "to",
          "type": "address"
        }
      ],
      "name": "transferAdmin",
      "outputs": [],
      "stateMutability": "nonpayable",
      "type": "function"
    },
    {
      "inputs": [
        {
          "internalType": "address",
          "name": "newOwner",
          "type": "address"
        }
      ],
      "name": "transferOwnership",
      "outputs": [],
      "stateMutability": "nonpayable",
      "type": "function"
    },
    {
      "inputs": [
        {
          "components": [
            {
              "internalType": "address",
              "name": "_market",
              "type": "address"
            },
            {
              "internalType": "bool",
              "name": "_isLong",
              "type": "bool"
            },
            {
              "internalType": "uint256",
              "name": "_oraclePrice",
              "type": "uint256"
            },
            {
              "internalType": "bool",
              "name": "isOpen",
              "type": "bool"
            },
            {
              "internalType": "bool",
              "name": "isCreate",
              "type": "bool"
            },
            {
              "components": [
                {
                  "internalType": "uint8",
                  "name": "version",
                  "type": "uint8"
                },
                {
                  "internalType": "uint32",
                  "name": "updatedAtBlock",
                  "type": "uint32"
                },
                {
                  "internalType": "uint8",
                  "name": "triggerAbove",
                  "type": "uint8"
                },
                {
                  "internalType": "address",
                  "name": "account",
                  "type": "address"
                },
                {
                  "internalType": "uint48",
                  "name": "extra3",
                  "type": "uint48"
                },
                {
                  "internalType": "uint128",
                  "name": "collateral",
                  "type": "uint128"
                },
                {
                  "internalType": "uint128",
                  "name": "size",
                  "type": "uint128"
                },
                {
                  "internalType": "uint128",
                  "name": "price",
                  "type": "uint128"
                },
                {
                  "internalType": "uint128",
                  "name": "extra1",
                  "type": "uint128"
                },
                {
                  "internalType": "uint64",
                  "name": "orderID",
                  "type": "uint64"
                },
                {
                  "internalType": "uint64",
                  "name": "extra2",
                  "type": "uint64"
                },
                {
                  "internalType": "uint128",
                  "name": "extra0",
                  "type": "uint128"
                },
                {
                  "internalType": "bytes32",
                  "name": "refCode",
                  "type": "bytes32"
                }
              ],
              "internalType": "struct Order.Props",
              "name": "_order",
              "type": "tuple"
            },
            {
              "internalType": "uint256[]",
              "name": "inputs",
              "type": "uint256[]"
            }
          ],
          "internalType": "struct MarketDataTypes.UpdateOrderInputs",
          "name": "_vars",
          "type": "tuple"
        }
      ],
      "name": "update",
      "outputs": [
        {
          "components": [
            {
              "internalType": "uint8",
              "name": "version",
              "type": "uint8"
            },
            {
              "internalType": "uint32",
              "name": "updatedAtBlock",
              "type": "uint32"
            },
            {
              "internalType": "uint8",
              "name": "triggerAbove",
              "type": "uint8"
            },
            {
              "internalType": "address",
              "name": "account",
              "type": "address"
            },
            {
              "internalType": "uint48",
              "name": "extra3",
              "type": "uint48"
            },
            {
              "internalType": "uint128",
              "name": "collateral",
              "type": "uint128"
            },
            {
              "internalType": "uint128",
              "name": "size",
              "type": "uint128"
            },
            {
              "internalType": "uint128",
              "name": "price",
              "type": "uint128"
            },
            {
              "internalType": "uint128",
              "name": "extra1",
              "type": "uint128"
            },
            {
              "internalType": "uint64",
              "name": "orderID",
              "type": "uint64"
            },
            {
              "internalType": "uint64",
              "name": "extra2",
              "type": "uint64"
            },
            {
              "internalType": "uint128",
              "name": "extra0",
              "type": "uint128"
            },
            {
              "internalType": "bytes32",
              "name": "refCode",
              "type": "bytes32"
            }
          ],
          "internalType": "struct Order.Props",
          "name": "_order",
          "type": "tuple"
        }
      ],
      "stateMutability": "nonpayable",
      "type": "function"
    }
  ],
  "bytecode": "0x60806040523480156200001157600080fd5b5060405162002d1838038062002d1883398101604081905262000034916200018c565b8062000040336200005e565b6200005681620000b060201b620014e11760201c565b5050620001be565b600180546001600160a01b038381166001600160a01b0319831681179093556040519116919082907f8be0079c531659141344cd1fd0a4f28419497f9722a3daafe3b4186f6b6457e090600090a35050565b42600255620000bf336200005e565b620000cc600033620000dc565b620000d9600082620000dc565b50565b620000e88282620000ec565b5050565b6000828152602081815260408083206001600160a01b038516845290915290205460ff16620000e8576000828152602081815260408083206001600160a01b03851684529091529020805460ff19166001179055620001483390565b6001600160a01b0316816001600160a01b0316837f2f8788117e7eff1d82e926ec794901d17c78024a50270940304540a733656f0d60405160405180910390a45050565b6000602082840312156200019f57600080fd5b81516001600160a01b0381168114620001b757600080fd5b9392505050565b612b4a80620001ce6000396000f3fe608060405234801561001057600080fd5b50600436106101425760003560e01c806375829def116100b857806391d148541161007c57806391d14854146102d2578063a217fddf146102e5578063b398a842146102ed578063d547741f14610300578063e254542214610313578063f2fde38b1461032657600080fd5b806375829def146102755780637e1dcaf7146102885780637fe4a6981461029b5780638da5cb5b146102ae5780638f549206146102bf57600080fd5b80632f2ff15d1161010a5780632f2ff15d146101f457806336568abe1461020957806345824d671461021c5780636d0785661461022f578063715018a61461025a5780637380adf01461026257600080fd5b806301ffc9a7146101475780630c3167391461016f57806314d102a91461018f578063202a61a1146101af578063248a9ca3146101c3575b600080fd5b61015a610155366004611ee9565b610339565b60405190151581526020015b60405180910390f35b61018261017d3660046122a4565b610370565b6040516101669190612402565b6101a261019d366004612411565b61062e565b6040516101669190612450565b60045461015a90600160a01b900460ff1681565b6101e66101d136600461249f565b60009081526020819052604090206001015490565b604051908152602001610166565b6102076102023660046124b8565b610965565b005b6102076102173660046124b8565b61098f565b6101a261022a3660046124e8565b610a0d565b600454610242906001600160a01b031681565b6040516001600160a01b039091168152602001610166565b610207610c8f565b6101a261027036600461250d565b610ca3565b61020761028336600461253b565b610d67565b600354610242906001600160a01b031681565b6102076102a936600461253b565b610d91565b6001546001600160a01b0316610242565b6101a26102cd366004612558565b610dbb565b61015a6102e03660046124b8565b610ec8565b6101e6600081565b6101a26102fb36600461259a565b610ef1565b61020761030e3660046124b8565b611232565b61020761032136600461264a565b611257565b61020761033436600461253b565b611468565b60006001600160e01b03198216637965db0b60e01b148061036a57506301ffc9a760e01b6001600160e01b03198316145b92915050565b610378611e7d565b61038f600080516020612af5833981519152611504565b600061039e8360a0015161150e565b9050600083606001516103bc576004546001600160a01b03166103c9565b6003546001600160a01b03165b604051637b58815360e11b8152600481018490529091506001600160a01b0382169063f6b102a690602401602060405180830381865afa158015610411573d6000803e3d6000fd5b505050506040513d601f19601f82011682018060405250810190610435919061268a565b6104865760405162461bcd60e51b815260206004820152601a60248201527f4f72646572426f6f6b3a696e76616c6964206f726465724b657900000000000060448201526064015b60405180910390fd5b6040516309c3f1e960e41b8152600481018390526001600160a01b03821690639c3f1e90906024016101a060405180830381865afa1580156104cc573d6000803e3d6000fd5b505050506040513d601f19601f820116820180604052508101906104f091906127e3565b805190935060ff166001146105475760405162461bcd60e51b815260206004820152601760248201527f4f72646572426f6f6b3a77726f6e672076657273696f6e000000000000000000604482015260640161047d565b60a084015160e0908101516001600160801b0316908401526105698484611549565b92508360600151156105bb576105986105918560a0015161010001516001600160801b031690565b84906115f5565b6105bb6105b48560a0015161016001516001600160801b031690565b8490611614565b6105c9838560600151611633565b6040516309775f1d60e31b81526001600160a01b03821690634bbaf8e8906105f5908690600401612402565b600060405180830381600087803b15801561060f57600080fd5b505af1158015610623573d6000803e3d6000fd5b505050505050919050565b60606005826106725760405162461bcd60e51b815260206004820152601060248201526f6f7261636c655072696365207a65726f60801b604482015260640161047d565b60008461068a576004546001600160a01b0316610697565b6003546001600160a01b03165b60405163b4d1cbad60e01b815260048101899052602481018890529091506000906001600160a01b0383169063b4d1cbad90604401600060405180830381865afa1580156106e9573d6000803e3d6000fd5b505050506040513d6000823e601f3d908101601f191682016040526107119190810190612800565b8051909150600090815b818110156107fd57600084828151811061073757610737612890565b602002602001015190506000866001600160a01b0316639c3f1e90836040518263ffffffff1660e01b815260040161077191815260200190565b6101a060405180830381865afa15801561078f573d6000803e3d6000fd5b505050506040513d601f19601f820116820180604052508101906107b391906127e3565b90506107bf818b61174f565b80156107ca57508115155b806107da57506107da818c61178d565b156107f3578460010194508785106107f35750506107fd565b505060010161071b565b50816001600160401b0381111561081657610816611f13565b60405190808252806020026020018201604052801561084f57816020015b61083c611e7d565b8152602001906001900390816108345790505b5095506000805b8281101561095657600085828151811061087257610872612890565b602002602001015190506000876001600160a01b0316639c3f1e90836040518263ffffffff1660e01b81526004016108ac91815260200190565b6101a060405180830381865afa1580156108ca573d6000803e3d6000fd5b505050506040513d601f19601f820116820180604052508101906108ee91906127e3565b90506108fa818c61174f565b801561090557508115155b806109155750610915818d61178d565b1561094c57808a858151811061092d5761092d612890565b602002602001018190525083600101935088841061094c575050610956565b5050600101610856565b50505050505050949350505050565b60008281526020819052604090206001015461098081611504565b61098a83836117bf565b505050565b6001600160a01b03811633146109ff5760405162461bcd60e51b815260206004820152602f60248201527f416363657373436f6e74726f6c3a2063616e206f6e6c792072656e6f756e636560448201526e103937b632b9903337b91039b2b63360891b606482015260840161047d565b610a098282611843565b5050565b6060610a26600080516020612af5833981519152611504565b600082610a3e576004546001600160a01b0316610a4b565b6003546001600160a01b03165b9050821515600003610bcb576040516309c3f1e960e41b815260048101859052600090610acd906001600160a01b03841690639c3f1e90906024016101a060405180830381865afa158015610aa4573d6000803e3d6000fd5b505050506040513d601f19601f82011682018060405250810190610ac891906127e3565b6118a8565b905080610adb576001610ade565b60025b60ff166001600160401b03811115610af857610af8611f13565b604051908082528060200260200182016040528015610b3157816020015b610b1e611e7d565b815260200190600190039081610b165790505b5092508015610bc5576040516395bc267360e01b8152600481018290526001600160a01b038316906395bc2673906024016101a0604051808303816000875af1158015610b82573d6000803e3d6000fd5b505050506040513d601f19601f82011682018060405250810190610ba691906127e3565b83600181518110610bb957610bb9612890565b60200260200101819052505b50610bfe565b60408051600180825281830190925290816020015b610be8611e7d565b815260200190600190039081610be05790505091505b6040516395bc267360e01b8152600481018590526001600160a01b038216906395bc2673906024016101a0604051808303816000875af1158015610c46573d6000803e3d6000fd5b505050506040513d601f19601f82011682018060405250810190610c6a91906127e3565b82600081518110610c7d57610c7d612890565b60200260200101819052505092915050565b610c976118bd565b610ca16000611917565b565b6060610cbc600080516020612af5833981519152611504565b6001600160a01b0382161561036a5782610ce1576004546001600160a01b0316610cee565b6003546001600160a01b03165b604051631c1b6fcd60e01b81526001600160a01b0384811660048301529190911690631c1b6fcd906024016000604051808303816000875af1158015610d38573d6000803e3d6000fd5b505050506040513d6000823e601f3d908101601f19168201604052610d6091908101906128a6565b9392505050565b6000610d7281611504565b610d7d600083611969565b610d8682611917565b610a09600033611843565b7f8d1089725c0dc266707fa6207730fb801dcd03108bfed7a21099bd303651d2b761014281611504565b6060610dd4600080516020612af5833981519152611504565b60408051600180825281830190925290816020015b610df1611e7d565b815260200190600190039081610de957905050905081610e1c576004546001600160a01b0316610e29565b6003546001600160a01b03165b6001600160a01b03166395bc2673610e418686611973565b6040518263ffffffff1660e01b8152600401610e5f91815260200190565b6101a0604051808303816000875af1158015610e7f573d6000803e3d6000fd5b505050506040513d601f19601f82011682018060405250810190610ea391906127e3565b81600081518110610eb657610eb6612890565b60200260200101819052509392505050565b6000918252602082815260408084206001600160a01b0393909316845291905290205460ff1690565b6060610f0a600080516020612af5833981519152611504565b81516001600160401b03811115610f2357610f23611f13565b604051908082528060200260200182016040528015610f5c57816020015b610f49611e7d565b815260200190600190039081610f415790505b50905060005b82518110156110a6576000838281518110610f7f57610f7f612890565b602090810291909101015160a00151600181528451909150849083908110610fa957610fa9612890565b602002602001015160600151610fca576004546001600160a01b0316610fd7565b6003546001600160a01b03165b6060820151604051637859f28160e11b81526001600160a01b03918216600482015291169063f0b3e502906024016020604051808303816000875af1158015611024573d6000803e3d6000fd5b505050506040513d601f19601f820116820180604052508101906110489190612940565b6001600160401b0316610120820152835161107d9085908490811061106f5761106f612890565b602002602001015182611549565b90508083838151811061109257611092612890565b602090810291909101015250600101610f62565b508051600203611132576110fc816001815181106110c6576110c6612890565b60200260200101516101200151826000815181106110e6576110e6612890565b60200260200101516119a690919063ffffffff16565b6111328160008151811061111257611112612890565b60200260200101516101200151826001815181106110e6576110e6612890565b60005b815181101561122c57600082828151811061115257611152612890565b602002602001015190506111838185848151811061117257611172612890565b602002602001015160600151611633565b83828151811061119557611195612890565b6020026020010151606001516111b6576004546001600160a01b03166111c3565b6003546001600160a01b03165b6001600160a01b0316632597382b826040518263ffffffff1660e01b81526004016111ee9190612402565b600060405180830381600087803b15801561120857600080fd5b505af115801561121c573d6000803e3d6000fd5b5050505081600101915050611135565b50919050565b60008281526020819052604090206001015461124d81611504565b61098a8383611843565b600154600160a81b900460ff161580801561127d575060018054600160a01b900460ff16105b8061129d5750303b15801561129d575060018054600160a01b900460ff16145b6113005760405162461bcd60e51b815260206004820152602e60248201527f496e697469616c697a61626c653a20636f6e747261637420697320616c72656160448201526d191e481a5b9a5d1a585b1a5e995960921b606482015260840161047d565b6001805460ff60a01b1916600160a01b179055801561132d576001805460ff60a81b1916600160a81b1790555b6004805460ff60a01b1916600160a01b861515908102919091178255600380546001600160a01b0319166001600160a01b03871690811790915560405163d53a822f60e01b8152928301919091529063d53a822f90602401600060405180830381600087803b15801561139f57600080fd5b505af19250505080156113b0575060015b50600480546001600160a01b0319166001600160a01b038416908117825560405163d53a822f60e01b8152861515928101929092529063d53a822f90602401600060405180830381600087803b15801561140957600080fd5b505af192505050801561141a575060015b508015611462576001805460ff60a81b191681556040519081527f7f26b83ff96e1f2b6a682f133852f6798a09c465da95921460cefb38474024989060200160405180910390a15b50505050565b6114706118bd565b6001600160a01b0381166114d55760405162461bcd60e51b815260206004820152602660248201527f4f776e61626c653a206e6577206f776e657220697320746865207a65726f206160448201526564647265737360d01b606482015260840161047d565b6114de81611917565b50565b426002556114ee33611917565b6114f9600033611969565b6114de600082611969565b6114de81336119b8565b6000816060015182610120015160405160200161152c929190612959565b604051602081830303815290604052805190602001209050919050565b611551611e7d565b61155a83611a11565b1561158957602083015160608401516115799184911515901514611a4c565b611584826001611a6a565b61122c565b8260600151156115a457602083015161158490839015611a4c565b8260a001516040015160ff166000036115dd576115848260e001516001600160801b031684604001511083611a4c90919063ffffffff16565b60a083015160409081015160ff169083015250919050565b6115fe81611ab3565b6001600160801b03166101009092019190915250565b61161d81611ab3565b6001600160801b03166101609092019190915250565b80156116a657600454611651908390600160a01b900460ff16611b20565b60008260a001516001600160801b0316116116a65760405162461bcd60e51b815260206004820152601560248201527413d08e9a5b9d985b1a590818dbdb1b185d195c985b605a1b604482015260640161047d565b60608201516001600160a01b03166117005760405162461bcd60e51b815260206004820152601960248201527f4f72646572426f6f6b3a696e76616c6964206163636f756e7400000000000000604482015260640161047d565b816040015160ff16600003610a095760405162461bcd60e51b815260206004820152601560248201527413d08e9d1c9a59d9d95c8818589bdd99481a5b9a5d605a1b604482015260640161047d565b600061175a83611c2c565b15611776575060e08201516001600160801b031681101561036a565b5060e08201516001600160801b031681111561036a565b600081156117aa5750608082015165ffffffffffff16151561036a565b505061010001516001600160801b0316151590565b6117c98282610ec8565b610a09576000828152602081815260408083206001600160a01b03851684529091529020805460ff191660011790556117ff3390565b6001600160a01b0316816001600160a01b0316837f2f8788117e7eff1d82e926ec794901d17c78024a50270940304540a733656f0d60405160405180910390a45050565b61184d8282610ec8565b15610a09576000828152602081815260408083206001600160a01b0385168085529252808320805460ff1916905551339285917ff6391f5c32d9c69d2a47ea670b442974b53935d1edc7fd64eb21e047a839171b9190a45050565b600061036a8260600151836101400151611973565b6001546001600160a01b03163314610ca15760405162461bcd60e51b815260206004820181905260248201527f4f776e61626c653a2063616c6c6572206973206e6f7420746865206f776e6572604482015260640161047d565b600180546001600160a01b038381166001600160a01b0319831681179093556040519116919082907f8be0079c531659141344cd1fd0a4f28419497f9722a3daafe3b4186f6b6457e090600090a35050565b610a0982826117bf565b60008282604051602001611988929190612959565b60405160208183030381529060405280519060200120905092915050565b6001600160401b031661014090910152565b6119c28282610ec8565b610a09576119cf81611cd0565b6119da836020611ce2565b6040516020016119eb9291906129ac565b60408051601f198184030181529082905262461bcd60e51b825261047d91600401612a21565b600060028260c00151511015801561036a575060008260c00151600181518110611a3d57611a3d612890565b60200260200101511192915050565b80611a58576002611a5b565b60015b60ff1660409092019190915250565b816040015160ff1660011480611a875750816040015160ff166002145b611a9057600080fd5b8015610a0957600282604001818151611aa99190612a6a565b60ff169052505050565b60006001600160801b03821115611b1c5760405162461bcd60e51b815260206004820152602760248201527f53616665436173743a2076616c756520646f65736e27742066697420696e20316044820152663238206269747360c81b606482015260840161047d565b5090565b6000611b378361010001516001600160801b031690565b1115611ba6578015158260e001516001600160801b0316611b638461010001516001600160801b031690565b1114611ba65760405162461bcd60e51b81526020600482015260126024820152714f72646572426f6f6b3a74703c707269636560701b604482015260640161047d565b6000611bbd8361016001516001600160801b031690565b1115610a0957801515611bdb8361016001516001600160801b031690565b60e08401516001600160801b03161114610a095760405162461bcd60e51b81526020600482015260126024820152714f72646572426f6f6b3a736c3e707269636560701b604482015260640161047d565b6000816040015160ff16600003611c855760405162461bcd60e51b815260206004820152601b60248201527f696e76616c6964206f7264657220747269676765722061626f76650000000000604482015260640161047d565b60028260400151611c969190612a83565b60ff16600103611ca857506001919050565b60028260400151611cb99190612a83565b60ff16600003611ccb57506000919050565b919050565b606061036a6001600160a01b03831660145b60606000611cf1836002612ab3565b611cfc906002612aca565b6001600160401b03811115611d1357611d13611f13565b6040519080825280601f01601f191660200182016040528015611d3d576020820181803683370190505b509050600360fc1b81600081518110611d5857611d58612890565b60200101906001600160f81b031916908160001a905350600f60fb1b81600181518110611d8757611d87612890565b60200101906001600160f81b031916908160001a9053506000611dab846002612ab3565b611db6906001612aca565b90505b6001811115611e2e576f181899199a1a9b1b9c1cb0b131b232b360811b85600f1660108110611dea57611dea612890565b1a60f81b828281518110611e0057611e00612890565b60200101906001600160f81b031916908160001a90535060049490941c93611e2781612add565b9050611db9565b508315610d605760405162461bcd60e51b815260206004820181905260248201527f537472696e67733a20686578206c656e67746820696e73756666696369656e74604482015260640161047d565b604080516101a081018252600080825260208201819052918101829052606081018290526080810182905260a0810182905260c0810182905260e08101829052610100810182905261012081018290526101408101829052610160810182905261018081019190915290565b600060208284031215611efb57600080fd5b81356001600160e01b031981168114610d6057600080fd5b634e487b7160e01b600052604160045260246000fd5b6040516101a081016001600160401b0381118282101715611f4c57611f4c611f13565b60405290565b60405160e081016001600160401b0381118282101715611f4c57611f4c611f13565b604051601f8201601f191681016001600160401b0381118282101715611f9c57611f9c611f13565b604052919050565b6001600160a01b03811681146114de57600080fd5b8035611ccb81611fa4565b80151581146114de57600080fd5b8035611ccb81611fc4565b60ff811681146114de57600080fd5b8035611ccb81611fdd565b63ffffffff811681146114de57600080fd5b8035611ccb81611ff7565b65ffffffffffff811681146114de57600080fd5b8035611ccb81612014565b6001600160801b03811681146114de57600080fd5b8035611ccb81612033565b6001600160401b03811681146114de57600080fd5b8035611ccb81612053565b60006101a0828403121561208657600080fd5b61208e611f29565b905061209982611fec565b81526120a760208301612009565b60208201526120b860408301611fec565b60408201526120c960608301611fb9565b60608201526120da60808301612028565b60808201526120eb60a08301612048565b60a08201526120fc60c08301612048565b60c082015261210d60e08301612048565b60e0820152610100612120818401612048565b90820152610120612132838201612068565b90820152610140612144838201612068565b90820152610160612156838201612048565b818301525061018080830135818301525092915050565b60006001600160401b0382111561218657612186611f13565b5060051b60200190565b600082601f8301126121a157600080fd5b813560206121b66121b18361216d565b611f74565b82815260059290921b840181019181810190868411156121d557600080fd5b8286015b848110156121f057803583529183019183016121d9565b509695505050505050565b6000610260828403121561220e57600080fd5b612216611f52565b905061222182611fb9565b815261222f60208301611fd2565b60208201526040820135604082015261224a60608301611fd2565b606082015261225b60808301611fd2565b608082015261226d8360a08401612073565b60a08201526102408201356001600160401b0381111561228c57600080fd5b61229884828501612190565b60c08301525092915050565b6000602082840312156122b657600080fd5b81356001600160401b038111156122cc57600080fd5b6122d8848285016121fb565b949350505050565b805160ff16825260208101516122fe602084018263ffffffff169052565b506040810151612313604084018260ff169052565b50606081015161232e60608401826001600160a01b03169052565b506080810151612348608084018265ffffffffffff169052565b5060a081015161236360a08401826001600160801b03169052565b5060c081015161237e60c08401826001600160801b03169052565b5060e081015161239960e08401826001600160801b03169052565b50610100818101516001600160801b038116848301525050610120818101516001600160401b038116848301525050610140818101516001600160401b038116848301525050610160818101516001600160801b03811684830152505061018090810151910152565b6101a0810161036a82846122e0565b6000806000806080858703121561242757600080fd5b8435935060208501359250604085013561244081611fc4565b9396929550929360600135925050565b6020808252825182820181905260009190848201906040850190845b818110156124935761247f8385516122e0565b928401926101a0929092019160010161246c565b50909695505050505050565b6000602082840312156124b157600080fd5b5035919050565b600080604083850312156124cb57600080fd5b8235915060208301356124dd81611fa4565b809150509250929050565b600080604083850312156124fb57600080fd5b8235915060208301356124dd81611fc4565b6000806040838503121561252057600080fd5b823561252b81611fc4565b915060208301356124dd81611fa4565b60006020828403121561254d57600080fd5b8135610d6081611fa4565b60008060006060848603121561256d57600080fd5b833561257881611fa4565b925060208401359150604084013561258f81611fc4565b809150509250925092565b600060208083850312156125ad57600080fd5b82356001600160401b03808211156125c457600080fd5b818501915085601f8301126125d857600080fd5b81356125e66121b18261216d565b81815260059190911b8301840190848101908883111561260557600080fd5b8585015b8381101561263d578035858111156126215760008081fd5b61262f8b89838a01016121fb565b845250918601918601612609565b5098975050505050505050565b60008060006060848603121561265f57600080fd5b833561266a81611fc4565b9250602084013561267a81611fa4565b9150604084013561258f81611fa4565b60006020828403121561269c57600080fd5b8151610d6081611fc4565b8051611ccb81611fdd565b8051611ccb81611ff7565b8051611ccb81611fa4565b8051611ccb81612014565b8051611ccb81612033565b8051611ccb81612053565b60006101a082840312156126fc57600080fd5b612704611f29565b905061270f826126a7565b815261271d602083016126b2565b602082015261272e604083016126a7565b604082015261273f606083016126bd565b6060820152612750608083016126c8565b608082015261276160a083016126d3565b60a082015261277260c083016126d3565b60c082015261278360e083016126d3565b60e08201526101006127968184016126d3565b908201526101206127a88382016126de565b908201526101406127ba8382016126de565b908201526101606127cc8382016126d3565b818301525061018080830151818301525092915050565b60006101a082840312156127f657600080fd5b610d6083836126e9565b6000602080838503121561281357600080fd5b82516001600160401b0381111561282957600080fd5b8301601f8101851361283a57600080fd5b80516128486121b18261216d565b81815260059190911b8201830190838101908783111561286757600080fd5b928401925b828410156128855783518252928401929084019061286c565b979650505050505050565b634e487b7160e01b600052603260045260246000fd5b600060208083850312156128b957600080fd5b82516001600160401b038111156128cf57600080fd5b8301601f810185136128e057600080fd5b80516128ee6121b18261216d565b8181526101a0918202830184019184820191908884111561290e57600080fd5b938501935b838510156129345761292589866126e9565b83529384019391850191612913565b50979650505050505050565b60006020828403121561295257600080fd5b5051919050565b60609290921b6bffffffffffffffffffffffff1916825260c01b6001600160c01b0319166014820152601c0190565b60005b838110156129a357818101518382015260200161298b565b50506000910152565b7f416363657373436f6e74726f6c3a206163636f756e74200000000000000000008152600083516129e4816017850160208801612988565b7001034b99036b4b9b9b4b733903937b6329607d1b6017918401918201528351612a15816028840160208801612988565b01602801949350505050565b6020815260008251806020840152612a40816040850160208701612988565b601f01601f19169190910160400192915050565b634e487b7160e01b600052601160045260246000fd5b60ff818116838216019081111561036a5761036a612a54565b600060ff831680612aa457634e487b7160e01b600052601260045260246000fd5b8060ff84160691505092915050565b808202811582820484141761036a5761036a612a54565b8082018082111561036a5761036a612a54565b600081612aec57612aec612a54565b50600019019056fecb58d6d985142a614029cdf01861b4fe094d5919a47e69b8310dc4093d9d6ad0a2646970667358221220ffa4bb2c1076a3f6438f813e2da03cbd44f2baa4de02d22c2f11d368d2222e9864736f6c63430008110033",
  "linkReferences": {},
  "deployedLinkReferences": {}
}