{
  "_format": "hh-sol-artifact-1",
  "contractName": "OrderBook",
  "sourceName": "contracts/order/OrderBook.sol",
  "abi": [
    {
      "inputs": [
        {
          "internalType": "address",
          "name": "_f",
          "type": "address"
        }
      ],
      "stateMutability": "nonpayable",
      "type": "constructor"
    },
    {
      "anonymous": false,
      "inputs": [
        {
          "indexed": false,
          "internalType": "uint8",
          "name": "version",
          "type": "uint8"
        }
      ],
      "name": "Initialized",
      "type": "event"
    },
    {
      "anonymous": false,
      "inputs": [
        {
          "indexed": true,
          "internalType": "address",
          "name": "previousOwner",
          "type": "address"
        },
        {
          "indexed": true,
          "internalType": "address",
          "name": "newOwner",
          "type": "address"
        }
      ],
      "name": "OwnershipTransferred",
      "type": "event"
    },
    {
      "anonymous": false,
      "inputs": [
        {
          "indexed": true,
          "internalType": "bytes32",
          "name": "role",
          "type": "bytes32"
        },
        {
          "indexed": true,
          "internalType": "bytes32",
          "name": "previousAdminRole",
          "type": "bytes32"
        },
        {
          "indexed": true,
          "internalType": "bytes32",
          "name": "newAdminRole",
          "type": "bytes32"
        }
      ],
      "name": "RoleAdminChanged",
      "type": "event"
    },
    {
      "anonymous": false,
      "inputs": [
        {
          "indexed": true,
          "internalType": "bytes32",
          "name": "role",
          "type": "bytes32"
        },
        {
          "indexed": true,
          "internalType": "address",
          "name": "account",
          "type": "address"
        },
        {
          "indexed": true,
          "internalType": "address",
          "name": "sender",
          "type": "address"
        }
      ],
      "name": "RoleGranted",
      "type": "event"
    },
    {
      "anonymous": false,
      "inputs": [
        {
          "indexed": true,
          "internalType": "bytes32",
          "name": "role",
          "type": "bytes32"
        },
        {
          "indexed": true,
          "internalType": "address",
          "name": "account",
          "type": "address"
        },
        {
          "indexed": true,
          "internalType": "address",
          "name": "sender",
          "type": "address"
        }
      ],
      "name": "RoleRevoked",
      "type": "event"
    },
    {
      "inputs": [],
      "name": "DEFAULT_ADMIN_ROLE",
      "outputs": [
        {
          "internalType": "bytes32",
          "name": "",
          "type": "bytes32"
        }
      ],
      "stateMutability": "view",
      "type": "function"
    },
    {
      "inputs": [
        {
          "components": [
            {
              "internalType": "address",
              "name": "_market",
              "type": "address"
            },
            {
              "internalType": "bool",
              "name": "_isLong",
              "type": "bool"
            },
            {
              "internalType": "uint256",
              "name": "_oraclePrice",
              "type": "uint256"
            },
            {
              "internalType": "bool",
              "name": "isOpen",
              "type": "bool"
            },
            {
              "internalType": "bool",
              "name": "isCreate",
              "type": "bool"
            },
            {
              "components": [
                {
                  "internalType": "uint8",
                  "name": "version",
                  "type": "uint8"
                },
                {
                  "internalType": "uint32",
                  "name": "updatedAtBlock",
                  "type": "uint32"
                },
                {
                  "internalType": "uint8",
                  "name": "triggerAbove",
                  "type": "uint8"
                },
                {
                  "internalType": "address",
                  "name": "account",
                  "type": "address"
                },
                {
                  "internalType": "uint48",
                  "name": "extra3",
                  "type": "uint48"
                },
                {
                  "internalType": "uint128",
                  "name": "collateral",
                  "type": "uint128"
                },
                {
                  "internalType": "uint128",
                  "name": "size",
                  "type": "uint128"
                },
                {
                  "internalType": "uint128",
                  "name": "price",
                  "type": "uint128"
                },
                {
                  "internalType": "uint128",
                  "name": "extra1",
                  "type": "uint128"
                },
                {
                  "internalType": "uint64",
                  "name": "orderID",
                  "type": "uint64"
                },
                {
                  "internalType": "uint64",
                  "name": "extra2",
                  "type": "uint64"
                },
                {
                  "internalType": "uint128",
                  "name": "extra0",
                  "type": "uint128"
                },
                {
                  "internalType": "bytes32",
                  "name": "refCode",
                  "type": "bytes32"
                }
              ],
              "internalType": "struct Order.Props",
              "name": "_order",
              "type": "tuple"
            },
            {
              "internalType": "uint256[]",
              "name": "inputs",
              "type": "uint256[]"
            }
          ],
          "internalType": "struct MarketDataTypes.UpdateOrderInputs[]",
          "name": "_vars",
          "type": "tuple[]"
        }
      ],
      "name": "add",
      "outputs": [
        {
          "components": [
            {
              "internalType": "uint8",
              "name": "version",
              "type": "uint8"
            },
            {
              "internalType": "uint32",
              "name": "updatedAtBlock",
              "type": "uint32"
            },
            {
              "internalType": "uint8",
              "name": "triggerAbove",
              "type": "uint8"
            },
            {
              "internalType": "address",
              "name": "account",
              "type": "address"
            },
            {
              "internalType": "uint48",
              "name": "extra3",
              "type": "uint48"
            },
            {
              "internalType": "uint128",
              "name": "collateral",
              "type": "uint128"
            },
            {
              "internalType": "uint128",
              "name": "size",
              "type": "uint128"
            },
            {
              "internalType": "uint128",
              "name": "price",
              "type": "uint128"
            },
            {
              "internalType": "uint128",
              "name": "extra1",
              "type": "uint128"
            },
            {
              "internalType": "uint64",
              "name": "orderID",
              "type": "uint64"
            },
            {
              "internalType": "uint64",
              "name": "extra2",
              "type": "uint64"
            },
            {
              "internalType": "uint128",
              "name": "extra0",
              "type": "uint128"
            },
            {
              "internalType": "bytes32",
              "name": "refCode",
              "type": "bytes32"
            }
          ],
          "internalType": "struct Order.Props[]",
          "name": "_orders",
          "type": "tuple[]"
        }
      ],
      "stateMutability": "nonpayable",
      "type": "function"
    },
    {
      "inputs": [],
      "name": "closeStore",
      "outputs": [
        {
          "internalType": "contract IOrderStore",
          "name": "",
          "type": "address"
        }
      ],
      "stateMutability": "view",
      "type": "function"
    },
    {
      "inputs": [
        {
          "internalType": "uint256",
          "name": "start",
          "type": "uint256"
        },
        {
          "internalType": "uint256",
          "name": "end",
          "type": "uint256"
        },
        {
          "internalType": "bool",
          "name": "isOpen",
          "type": "bool"
        },
        {
          "internalType": "uint256",
          "name": "_oraclePrice",
          "type": "uint256"
        }
      ],
      "name": "getExecutableOrdersByPrice",
      "outputs": [
        {
          "components": [
            {
              "internalType": "uint8",
              "name": "version",
              "type": "uint8"
            },
            {
              "internalType": "uint32",
              "name": "updatedAtBlock",
              "type": "uint32"
            },
            {
              "internalType": "uint8",
              "name": "triggerAbove",
              "type": "uint8"
            },
            {
              "internalType": "address",
              "name": "account",
              "type": "address"
            },
            {
              "internalType": "uint48",
              "name": "extra3",
              "type": "uint48"
            },
            {
              "internalType": "uint128",
              "name": "collateral",
              "type": "uint128"
            },
            {
              "internalType": "uint128",
              "name": "size",
              "type": "uint128"
            },
            {
              "internalType": "uint128",
              "name": "price",
              "type": "uint128"
            },
            {
              "internalType": "uint128",
              "name": "extra1",
              "type": "uint128"
            },
            {
              "internalType": "uint64",
              "name": "orderID",
              "type": "uint64"
            },
            {
              "internalType": "uint64",
              "name": "extra2",
              "type": "uint64"
            },
            {
              "internalType": "uint128",
              "name": "extra0",
              "type": "uint128"
            },
            {
              "internalType": "bytes32",
              "name": "refCode",
              "type": "bytes32"
            }
          ],
          "internalType": "struct Order.Props[]",
          "name": "_orders",
          "type": "tuple[]"
        }
      ],
      "stateMutability": "view",
      "type": "function"
    },
    {
      "inputs": [
        {
          "internalType": "bytes32",
          "name": "role",
          "type": "bytes32"
        }
      ],
      "name": "getRoleAdmin",
      "outputs": [
        {
          "internalType": "bytes32",
          "name": "",
          "type": "bytes32"
        }
      ],
      "stateMutability": "view",
      "type": "function"
    },
    {
      "inputs": [
        {
          "internalType": "address",
          "name": "_account",
          "type": "address"
        }
      ],
      "name": "grantControllerRoleByMarketManager",
      "outputs": [],
      "stateMutability": "nonpayable",
      "type": "function"
    },
    {
      "inputs": [
        {
          "internalType": "bytes32",
          "name": "role",
          "type": "bytes32"
        },
        {
          "internalType": "address",
          "name": "account",
          "type": "address"
        }
      ],
      "name": "grantRole",
      "outputs": [],
      "stateMutability": "nonpayable",
      "type": "function"
    },
    {
      "inputs": [
        {
          "internalType": "bytes32",
          "name": "role",
          "type": "bytes32"
        },
        {
          "internalType": "address",
          "name": "account",
          "type": "address"
        }
      ],
      "name": "hasRole",
      "outputs": [
        {
          "internalType": "bool",
          "name": "",
          "type": "bool"
        }
      ],
      "stateMutability": "view",
      "type": "function"
    },
    {
      "inputs": [
        {
          "internalType": "bool",
          "name": "_isLong",
          "type": "bool"
        },
        {
          "internalType": "address",
          "name": "_openStore",
          "type": "address"
        },
        {
          "internalType": "address",
          "name": "_closeStore",
          "type": "address"
        }
      ],
      "name": "initialize",
      "outputs": [],
      "stateMutability": "nonpayable",
      "type": "function"
    },
    {
      "inputs": [],
      "name": "isLong",
      "outputs": [
        {
          "internalType": "bool",
          "name": "",
          "type": "bool"
        }
      ],
      "stateMutability": "view",
      "type": "function"
    },
    {
      "inputs": [],
      "name": "openStore",
      "outputs": [
        {
          "internalType": "contract IOrderStore",
          "name": "",
          "type": "address"
        }
      ],
      "stateMutability": "view",
      "type": "function"
    },
    {
      "inputs": [],
      "name": "owner",
      "outputs": [
        {
          "internalType": "address",
          "name": "",
          "type": "address"
        }
      ],
      "stateMutability": "view",
      "type": "function"
    },
    {
      "inputs": [
        {
          "internalType": "bytes32",
          "name": "key",
          "type": "bytes32"
        },
        {
          "internalType": "bool",
          "name": "isOpen",
          "type": "bool"
        }
      ],
      "name": "remove",
      "outputs": [
        {
          "components": [
            {
              "internalType": "uint8",
              "name": "version",
              "type": "uint8"
            },
            {
              "internalType": "uint32",
              "name": "updatedAtBlock",
              "type": "uint32"
            },
            {
              "internalType": "uint8",
              "name": "triggerAbove",
              "type": "uint8"
            },
            {
              "internalType": "address",
              "name": "account",
              "type": "address"
            },
            {
              "internalType": "uint48",
              "name": "extra3",
              "type": "uint48"
            },
            {
              "internalType": "uint128",
              "name": "collateral",
              "type": "uint128"
            },
            {
              "internalType": "uint128",
              "name": "size",
              "type": "uint128"
            },
            {
              "internalType": "uint128",
              "name": "price",
              "type": "uint128"
            },
            {
              "internalType": "uint128",
              "name": "extra1",
              "type": "uint128"
            },
            {
              "internalType": "uint64",
              "name": "orderID",
              "type": "uint64"
            },
            {
              "internalType": "uint64",
              "name": "extra2",
              "type": "uint64"
            },
            {
              "internalType": "uint128",
              "name": "extra0",
              "type": "uint128"
            },
            {
              "internalType": "bytes32",
              "name": "refCode",
              "type": "bytes32"
            }
          ],
          "internalType": "struct Order.Props[]",
          "name": "_orders",
          "type": "tuple[]"
        }
      ],
      "stateMutability": "nonpayable",
      "type": "function"
    },
    {
      "inputs": [
        {
          "internalType": "address",
          "name": "account",
          "type": "address"
        },
        {
          "internalType": "uint256",
          "name": "orderID",
          "type": "uint256"
        },
        {
          "internalType": "bool",
          "name": "isOpen",
          "type": "bool"
        }
      ],
      "name": "remove",
      "outputs": [
        {
          "components": [
            {
              "internalType": "uint8",
              "name": "version",
              "type": "uint8"
            },
            {
              "internalType": "uint32",
              "name": "updatedAtBlock",
              "type": "uint32"
            },
            {
              "internalType": "uint8",
              "name": "triggerAbove",
              "type": "uint8"
            },
            {
              "internalType": "address",
              "name": "account",
              "type": "address"
            },
            {
              "internalType": "uint48",
              "name": "extra3",
              "type": "uint48"
            },
            {
              "internalType": "uint128",
              "name": "collateral",
              "type": "uint128"
            },
            {
              "internalType": "uint128",
              "name": "size",
              "type": "uint128"
            },
            {
              "internalType": "uint128",
              "name": "price",
              "type": "uint128"
            },
            {
              "internalType": "uint128",
              "name": "extra1",
              "type": "uint128"
            },
            {
              "internalType": "uint64",
              "name": "orderID",
              "type": "uint64"
            },
            {
              "internalType": "uint64",
              "name": "extra2",
              "type": "uint64"
            },
            {
              "internalType": "uint128",
              "name": "extra0",
              "type": "uint128"
            },
            {
              "internalType": "bytes32",
              "name": "refCode",
              "type": "bytes32"
            }
          ],
          "internalType": "struct Order.Props[]",
          "name": "_orders",
          "type": "tuple[]"
        }
      ],
      "stateMutability": "nonpayable",
      "type": "function"
    },
    {
      "inputs": [
        {
          "internalType": "bool",
          "name": "isOpen",
          "type": "bool"
        },
        {
          "internalType": "address",
          "name": "account",
          "type": "address"
        }
      ],
      "name": "removeByAccount",
      "outputs": [
        {
          "components": [
            {
              "internalType": "uint8",
              "name": "version",
              "type": "uint8"
            },
            {
              "internalType": "uint32",
              "name": "updatedAtBlock",
              "type": "uint32"
            },
            {
              "internalType": "uint8",
              "name": "triggerAbove",
              "type": "uint8"
            },
            {
              "internalType": "address",
              "name": "account",
              "type": "address"
            },
            {
              "internalType": "uint48",
              "name": "extra3",
              "type": "uint48"
            },
            {
              "internalType": "uint128",
              "name": "collateral",
              "type": "uint128"
            },
            {
              "internalType": "uint128",
              "name": "size",
              "type": "uint128"
            },
            {
              "internalType": "uint128",
              "name": "price",
              "type": "uint128"
            },
            {
              "internalType": "uint128",
              "name": "extra1",
              "type": "uint128"
            },
            {
              "internalType": "uint64",
              "name": "orderID",
              "type": "uint64"
            },
            {
              "internalType": "uint64",
              "name": "extra2",
              "type": "uint64"
            },
            {
              "internalType": "uint128",
              "name": "extra0",
              "type": "uint128"
            },
            {
              "internalType": "bytes32",
              "name": "refCode",
              "type": "bytes32"
            }
          ],
          "internalType": "struct Order.Props[]",
          "name": "_orders",
          "type": "tuple[]"
        }
      ],
      "stateMutability": "nonpayable",
      "type": "function"
    },
    {
      "inputs": [],
      "name": "renounceOwnership",
      "outputs": [],
      "stateMutability": "nonpayable",
      "type": "function"
    },
    {
      "inputs": [
        {
          "internalType": "bytes32",
          "name": "role",
          "type": "bytes32"
        },
        {
          "internalType": "address",
          "name": "account",
          "type": "address"
        }
      ],
      "name": "renounceRole",
      "outputs": [],
      "stateMutability": "nonpayable",
      "type": "function"
    },
    {
      "inputs": [
        {
          "internalType": "bytes32",
          "name": "role",
          "type": "bytes32"
        },
        {
          "internalType": "address",
          "name": "account",
          "type": "address"
        }
      ],
      "name": "revokeRole",
      "outputs": [],
      "stateMutability": "nonpayable",
      "type": "function"
    },
    {
      "inputs": [
        {
          "internalType": "bytes4",
          "name": "interfaceId",
          "type": "bytes4"
        }
      ],
      "name": "supportsInterface",
      "outputs": [
        {
          "internalType": "bool",
          "name": "",
          "type": "bool"
        }
      ],
      "stateMutability": "view",
      "type": "function"
    },
    {
      "inputs": [
        {
          "internalType": "address",
          "name": "to",
          "type": "address"
        }
      ],
      "name": "transferAdmin",
      "outputs": [],
      "stateMutability": "nonpayable",
      "type": "function"
    },
    {
      "inputs": [
        {
          "internalType": "address",
          "name": "newOwner",
          "type": "address"
        }
      ],
      "name": "transferOwnership",
      "outputs": [],
      "stateMutability": "nonpayable",
      "type": "function"
    },
    {
      "inputs": [
        {
          "components": [
            {
              "internalType": "address",
              "name": "_market",
              "type": "address"
            },
            {
              "internalType": "bool",
              "name": "_isLong",
              "type": "bool"
            },
            {
              "internalType": "uint256",
              "name": "_oraclePrice",
              "type": "uint256"
            },
            {
              "internalType": "bool",
              "name": "isOpen",
              "type": "bool"
            },
            {
              "internalType": "bool",
              "name": "isCreate",
              "type": "bool"
            },
            {
              "components": [
                {
                  "internalType": "uint8",
                  "name": "version",
                  "type": "uint8"
                },
                {
                  "internalType": "uint32",
                  "name": "updatedAtBlock",
                  "type": "uint32"
                },
                {
                  "internalType": "uint8",
                  "name": "triggerAbove",
                  "type": "uint8"
                },
                {
                  "internalType": "address",
                  "name": "account",
                  "type": "address"
                },
                {
                  "internalType": "uint48",
                  "name": "extra3",
                  "type": "uint48"
                },
                {
                  "internalType": "uint128",
                  "name": "collateral",
                  "type": "uint128"
                },
                {
                  "internalType": "uint128",
                  "name": "size",
                  "type": "uint128"
                },
                {
                  "internalType": "uint128",
                  "name": "price",
                  "type": "uint128"
                },
                {
                  "internalType": "uint128",
                  "name": "extra1",
                  "type": "uint128"
                },
                {
                  "internalType": "uint64",
                  "name": "orderID",
                  "type": "uint64"
                },
                {
                  "internalType": "uint64",
                  "name": "extra2",
                  "type": "uint64"
                },
                {
                  "internalType": "uint128",
                  "name": "extra0",
                  "type": "uint128"
                },
                {
                  "internalType": "bytes32",
                  "name": "refCode",
                  "type": "bytes32"
                }
              ],
              "internalType": "struct Order.Props",
              "name": "_order",
              "type": "tuple"
            },
            {
              "internalType": "uint256[]",
              "name": "inputs",
              "type": "uint256[]"
            }
          ],
          "internalType": "struct MarketDataTypes.UpdateOrderInputs",
          "name": "_vars",
          "type": "tuple"
        }
      ],
      "name": "update",
      "outputs": [
        {
          "components": [
            {
              "internalType": "uint8",
              "name": "version",
              "type": "uint8"
            },
            {
              "internalType": "uint32",
              "name": "updatedAtBlock",
              "type": "uint32"
            },
            {
              "internalType": "uint8",
              "name": "triggerAbove",
              "type": "uint8"
            },
            {
              "internalType": "address",
              "name": "account",
              "type": "address"
            },
            {
              "internalType": "uint48",
              "name": "extra3",
              "type": "uint48"
            },
            {
              "internalType": "uint128",
              "name": "collateral",
              "type": "uint128"
            },
            {
              "internalType": "uint128",
              "name": "size",
              "type": "uint128"
            },
            {
              "internalType": "uint128",
              "name": "price",
              "type": "uint128"
            },
            {
              "internalType": "uint128",
              "name": "extra1",
              "type": "uint128"
            },
            {
              "internalType": "uint64",
              "name": "orderID",
              "type": "uint64"
            },
            {
              "internalType": "uint64",
              "name": "extra2",
              "type": "uint64"
            },
            {
              "internalType": "uint128",
              "name": "extra0",
              "type": "uint128"
            },
            {
              "internalType": "bytes32",
              "name": "refCode",
              "type": "bytes32"
            }
          ],
          "internalType": "struct Order.Props",
          "name": "_order",
          "type": "tuple"
        }
      ],
      "stateMutability": "nonpayable",
      "type": "function"
    }
  ],
  "bytecode": "0x60806040523480156200001157600080fd5b5060405162002df738038062002df783398101604081905262000034916200018c565b8062000040336200005e565b6200005681620000b060201b6200154d1760201c565b5050620001be565b600180546001600160a01b038381166001600160a01b0319831681179093556040519116919082907f8be0079c531659141344cd1fd0a4f28419497f9722a3daafe3b4186f6b6457e090600090a35050565b42600255620000bf336200005e565b620000cc600033620000dc565b620000d9600082620000dc565b50565b620000e88282620000ec565b5050565b6000828152602081815260408083206001600160a01b038516845290915290205460ff16620000e8576000828152602081815260408083206001600160a01b03851684529091529020805460ff19166001179055620001483390565b6001600160a01b0316816001600160a01b0316837f2f8788117e7eff1d82e926ec794901d17c78024a50270940304540a733656f0d60405160405180910390a45050565b6000602082840312156200019f57600080fd5b81516001600160a01b0381168114620001b757600080fd5b9392505050565b612c2980620001ce6000396000f3fe608060405234801561001057600080fd5b50600436106101425760003560e01c806375829def116100b857806391d148541161007c57806391d14854146102d2578063a217fddf146102e5578063b398a842146102ed578063d547741f14610300578063e254542214610313578063f2fde38b1461032657600080fd5b806375829def146102755780637e1dcaf7146102885780637fe4a6981461029b5780638da5cb5b146102ae5780638f549206146102bf57600080fd5b80632f2ff15d1161010a5780632f2ff15d146101f457806336568abe1461020957806345824d671461021c5780636d0785661461022f578063715018a61461025a5780637380adf01461026257600080fd5b806301ffc9a7146101475780630c3167391461016f57806314d102a91461018f578063202a61a1146101af578063248a9ca3146101c3575b600080fd5b61015a610155366004611fc8565b610339565b60405190151581526020015b60405180910390f35b61018261017d366004612383565b610370565b60405161016691906124e1565b6101a261019d3660046124f0565b61069b565b604051610166919061252f565b60045461015a90600160a01b900460ff1681565b6101e66101d136600461257e565b60009081526020819052604090206001015490565b604051908152602001610166565b610207610202366004612597565b6109d2565b005b610207610217366004612597565b6109fc565b6101a261022a3660046125c7565b610a7a565b600454610242906001600160a01b031681565b6040516001600160a01b039091168152602001610166565b610207610cfc565b6101a26102703660046125ec565b610d10565b61020761028336600461261a565b610dd4565b600354610242906001600160a01b031681565b6102076102a936600461261a565b610dfe565b6001546001600160a01b0316610242565b6101a26102cd366004612637565b610e28565b61015a6102e0366004612597565b610f35565b6101e6600081565b6101a26102fb366004612679565b610f5e565b61020761030e366004612597565b61129e565b610207610321366004612729565b6112c3565b61020761033436600461261a565b6114d4565b60006001600160e01b03198216637965db0b60e01b148061036a57506301ffc9a760e01b6001600160e01b03198316145b92915050565b610378611f5c565b61038f600080516020612bd4833981519152611570565b600061039e8360a0015161157a565b9050600083606001516103bc576004546001600160a01b03166103c9565b6003546001600160a01b03165b604051637b58815360e11b8152600481018490529091506001600160a01b0382169063f6b102a690602401602060405180830381865afa158015610411573d6000803e3d6000fd5b505050506040513d601f19601f820116820180604052508101906104359190612769565b6104865760405162461bcd60e51b815260206004820152601a60248201527f4f72646572426f6f6b3a696e76616c6964206f726465724b657900000000000060448201526064015b60405180910390fd5b6040516309c3f1e960e41b8152600481018390526001600160a01b03821690639c3f1e90906024016101a060405180830381865afa1580156104cc573d6000803e3d6000fd5b505050506040513d601f19601f820116820180604052508101906104f091906128c2565b805190935060ff166001146105475760405162461bcd60e51b815260206004820152601760248201527f4f72646572426f6f6b3a77726f6e672076657273696f6e000000000000000000604482015260640161047d565b60a084015160e0908101516001600160801b03169084015260608401516105905761058b6105848560a001516080015165ffffffffffff16151590565b84906115b5565b6105cc565b6105af6105a88560a001516101400151600f16151590565b84906115d3565b60a084015161014001516105cc9060041c600f1615158490611607565b6105d68484611642565b9250836060015115610628576106056105fe8560a0015161010001516001600160801b031690565b84906116ef565b6106286106218560a0015161016001516001600160801b031690565b849061170e565b61063683856060015161172d565b6040516309775f1d60e31b81526001600160a01b03821690634bbaf8e8906106629086906004016124e1565b600060405180830381600087803b15801561067c57600080fd5b505af1158015610690573d6000803e3d6000fd5b505050505050919050565b60606005826106df5760405162461bcd60e51b815260206004820152601060248201526f6f7261636c655072696365207a65726f60801b604482015260640161047d565b6000846106f7576004546001600160a01b0316610704565b6003546001600160a01b03165b60405163b4d1cbad60e01b815260048101899052602481018890529091506000906001600160a01b0383169063b4d1cbad90604401600060405180830381865afa158015610756573d6000803e3d6000fd5b505050506040513d6000823e601f3d908101601f1916820160405261077e91908101906128df565b8051909150600090815b8181101561086a5760008482815181106107a4576107a461296f565b602002602001015190506000866001600160a01b0316639c3f1e90836040518263ffffffff1660e01b81526004016107de91815260200190565b6101a060405180830381865afa1580156107fc573d6000803e3d6000fd5b505050506040513d601f19601f8201168201806040525081019061082091906128c2565b905061082c818b611849565b801561083757508115155b806108475750610847818c611887565b156108605784600101945087851061086057505061086a565b5050600101610788565b50816001600160401b0381111561088357610883611ff2565b6040519080825280602002602001820160405280156108bc57816020015b6108a9611f5c565b8152602001906001900390816108a15790505b5095506000805b828110156109c35760008582815181106108df576108df61296f565b602002602001015190506000876001600160a01b0316639c3f1e90836040518263ffffffff1660e01b815260040161091991815260200190565b6101a060405180830381865afa158015610937573d6000803e3d6000fd5b505050506040513d601f19601f8201168201806040525081019061095b91906128c2565b9050610967818c611849565b801561097257508115155b806109825750610982818d611887565b156109b957808a858151811061099a5761099a61296f565b60200260200101819052508360010193508884106109b95750506109c3565b50506001016108c3565b50505050505050949350505050565b6000828152602081905260409020600101546109ed81611570565b6109f783836118b9565b505050565b6001600160a01b0381163314610a6c5760405162461bcd60e51b815260206004820152602f60248201527f416363657373436f6e74726f6c3a2063616e206f6e6c792072656e6f756e636560448201526e103937b632b9903337b91039b2b63360891b606482015260840161047d565b610a76828261193d565b5050565b6060610a93600080516020612bd4833981519152611570565b600082610aab576004546001600160a01b0316610ab8565b6003546001600160a01b03165b9050821515600003610c38576040516309c3f1e960e41b815260048101859052600090610b3a906001600160a01b03841690639c3f1e90906024016101a060405180830381865afa158015610b11573d6000803e3d6000fd5b505050506040513d601f19601f82011682018060405250810190610b3591906128c2565b6119a2565b905080610b48576001610b4b565b60025b60ff166001600160401b03811115610b6557610b65611ff2565b604051908082528060200260200182016040528015610b9e57816020015b610b8b611f5c565b815260200190600190039081610b835790505b5092508015610c32576040516395bc267360e01b8152600481018290526001600160a01b038316906395bc2673906024016101a0604051808303816000875af1158015610bef573d6000803e3d6000fd5b505050506040513d601f19601f82011682018060405250810190610c1391906128c2565b83600181518110610c2657610c2661296f565b60200260200101819052505b50610c6b565b60408051600180825281830190925290816020015b610c55611f5c565b815260200190600190039081610c4d5790505091505b6040516395bc267360e01b8152600481018590526001600160a01b038216906395bc2673906024016101a0604051808303816000875af1158015610cb3573d6000803e3d6000fd5b505050506040513d601f19601f82011682018060405250810190610cd791906128c2565b82600081518110610cea57610cea61296f565b60200260200101819052505092915050565b610d046119b7565b610d0e6000611a11565b565b6060610d29600080516020612bd4833981519152611570565b6001600160a01b0382161561036a5782610d4e576004546001600160a01b0316610d5b565b6003546001600160a01b03165b604051631c1b6fcd60e01b81526001600160a01b0384811660048301529190911690631c1b6fcd906024016000604051808303816000875af1158015610da5573d6000803e3d6000fd5b505050506040513d6000823e601f3d908101601f19168201604052610dcd9190810190612985565b9392505050565b6000610ddf81611570565b610dea600083611a63565b610df382611a11565b610a7660003361193d565b7f8d1089725c0dc266707fa6207730fb801dcd03108bfed7a21099bd303651d2b761014281611570565b6060610e41600080516020612bd4833981519152611570565b60408051600180825281830190925290816020015b610e5e611f5c565b815260200190600190039081610e5657905050905081610e89576004546001600160a01b0316610e96565b6003546001600160a01b03165b6001600160a01b03166395bc2673610eae8686611a6d565b6040518263ffffffff1660e01b8152600401610ecc91815260200190565b6101a0604051808303816000875af1158015610eec573d6000803e3d6000fd5b505050506040513d601f19601f82011682018060405250810190610f1091906128c2565b81600081518110610f2357610f2361296f565b60200260200101819052509392505050565b6000918252602082815260408084206001600160a01b0393909316845291905290205460ff1690565b6060610f77600080516020612bd4833981519152611570565b8151806001600160401b03811115610f9157610f91611ff2565b604051908082528060200260200182016040528015610fca57816020015b610fb7611f5c565b815260200190600190039081610faf5790505b50915060005b81811015611113576000848281518110610fec57610fec61296f565b602090810291909101015160a001516001815285519091508590839081106110165761101661296f565b602002602001015160600151611037576004546001600160a01b0316611044565b6003546001600160a01b03165b6060820151604051637859f28160e11b81526001600160a01b03918216600482015291169063f0b3e502906024016020604051808303816000875af1158015611091573d6000803e3d6000fd5b505050506040513d601f19601f820116820180604052508101906110b59190612a1f565b6001600160401b031661012082015284516110ea908690849081106110dc576110dc61296f565b602002602001015182611642565b9050808483815181106110ff576110ff61296f565b602090810291909101015250600101610fd0565b508060020361119e57611168826001815181106111325761113261296f565b60200260200101516101200151836000815181106111525761115261296f565b6020026020010151611aa090919063ffffffff16565b61119e8260008151811061117e5761117e61296f565b60200260200101516101200151836001815181106111525761115261296f565b60005b818110156112975760008382815181106111bd576111bd61296f565b602002602001015190506111ee818684815181106111dd576111dd61296f565b60200260200101516060015161172d565b8482815181106112005761120061296f565b602002602001015160600151611221576004546001600160a01b031661122e565b6003546001600160a01b03165b6001600160a01b0316632597382b826040518263ffffffff1660e01b815260040161125991906124e1565b600060405180830381600087803b15801561127357600080fd5b505af1158015611287573d6000803e3d6000fd5b50505050816001019150506111a1565b5050919050565b6000828152602081905260409020600101546112b981611570565b6109f7838361193d565b600154600160a81b900460ff16158080156112e9575060018054600160a01b900460ff16105b806113095750303b158015611309575060018054600160a01b900460ff16145b61136c5760405162461bcd60e51b815260206004820152602e60248201527f496e697469616c697a61626c653a20636f6e747261637420697320616c72656160448201526d191e481a5b9a5d1a585b1a5e995960921b606482015260840161047d565b6001805460ff60a01b1916600160a01b1790558015611399576001805460ff60a81b1916600160a81b1790555b6004805460ff60a01b1916600160a01b861515908102919091178255600380546001600160a01b0319166001600160a01b03871690811790915560405163d53a822f60e01b8152928301919091529063d53a822f90602401600060405180830381600087803b15801561140b57600080fd5b505af192505050801561141c575060015b50600480546001600160a01b0319166001600160a01b038416908117825560405163d53a822f60e01b8152861515928101929092529063d53a822f90602401600060405180830381600087803b15801561147557600080fd5b505af1925050508015611486575060015b5080156114ce576001805460ff60a81b191681556040519081527f7f26b83ff96e1f2b6a682f133852f6798a09c465da95921460cefb38474024989060200160405180910390a15b50505050565b6114dc6119b7565b6001600160a01b0381166115415760405162461bcd60e51b815260206004820152602660248201527f4f776e61626c653a206e6577206f776e657220697320746865207a65726f206160448201526564647265737360d01b606482015260840161047d565b61154a81611a11565b50565b4260025561155a33611a11565b611565600033611a63565b61154a600082611a63565b61154a8133611ab2565b60008160600151826101200151604051602001611598929190612a38565b604051602081830303815290604052805190602001209050919050565b806115c15760006115c4565b60015b60ff1660809092019190915250565b6000816115e15760006115e4565b60015b610140909301805167fffffffffffffff01660ff94909416939093179092525050565b600081611615576000611618565b60015b610140909301805167ffffffffffffff0f16610ff060049590951b94909416939093179092525050565b61164a611f5c565b61165383611b0b565b1561168257602083015160608401516116729184911515901514611b46565b61167d826001611b64565b6116e9565b82606001511561169d57602083015161167d90839015611b46565b8260a001516040015160ff166000036116d65761167d8260e001516001600160801b031684604001511083611b4690919063ffffffff16565b60a083015160409081015160ff16908301525b50919050565b6116f881611bad565b6001600160801b03166101009092019190915250565b61171781611bad565b6001600160801b03166101609092019190915250565b80156117a05760045461174b908390600160a01b900460ff16611c1a565b60008260a001516001600160801b0316116117a05760405162461bcd60e51b815260206004820152601560248201527413d08e9a5b9d985b1a590818dbdb1b185d195c985b605a1b604482015260640161047d565b60608201516001600160a01b03166117fa5760405162461bcd60e51b815260206004820152601960248201527f4f72646572426f6f6b3a696e76616c6964206163636f756e7400000000000000604482015260640161047d565b816040015160ff16600003610a765760405162461bcd60e51b815260206004820152601560248201527413d08e9d1c9a59d9d95c8818589bdd99481a5b9a5d605a1b604482015260640161047d565b600061185483611d26565b15611870575060e08201516001600160801b031681101561036a565b5060e08201516001600160801b031681111561036a565b600081156118a45750608082015165ffffffffffff16151561036a565b505061010001516001600160801b0316151590565b6118c38282610f35565b610a76576000828152602081815260408083206001600160a01b03851684529091529020805460ff191660011790556118f93390565b6001600160a01b0316816001600160a01b0316837f2f8788117e7eff1d82e926ec794901d17c78024a50270940304540a733656f0d60405160405180910390a45050565b6119478282610f35565b15610a76576000828152602081815260408083206001600160a01b0385168085529252808320805460ff1916905551339285917ff6391f5c32d9c69d2a47ea670b442974b53935d1edc7fd64eb21e047a839171b9190a45050565b600061036a8260600151836101400151611a6d565b6001546001600160a01b03163314610d0e5760405162461bcd60e51b815260206004820181905260248201527f4f776e61626c653a2063616c6c6572206973206e6f7420746865206f776e6572604482015260640161047d565b600180546001600160a01b038381166001600160a01b0319831681179093556040519116919082907f8be0079c531659141344cd1fd0a4f28419497f9722a3daafe3b4186f6b6457e090600090a35050565b610a7682826118b9565b60008282604051602001611a82929190612a38565b60405160208183030381529060405280519060200120905092915050565b6001600160401b031661014090910152565b611abc8282610f35565b610a7657611ac981611daf565b611ad4836020611dc1565b604051602001611ae5929190612a8b565b60408051601f198184030181529082905262461bcd60e51b825261047d91600401612b00565b600060028260c00151511015801561036a575060008260c00151600181518110611b3757611b3761296f565b60200260200101511192915050565b80611b52576002611b55565b60015b60ff1660409092019190915250565b816040015160ff1660011480611b815750816040015160ff166002145b611b8a57600080fd5b8015610a7657600282604001818151611ba39190612b49565b60ff169052505050565b60006001600160801b03821115611c165760405162461bcd60e51b815260206004820152602760248201527f53616665436173743a2076616c756520646f65736e27742066697420696e20316044820152663238206269747360c81b606482015260840161047d565b5090565b6000611c318361010001516001600160801b031690565b1115611ca0578015158260e001516001600160801b0316611c5d8461010001516001600160801b031690565b1114611ca05760405162461bcd60e51b81526020600482015260126024820152714f72646572426f6f6b3a74703c707269636560701b604482015260640161047d565b6000611cb78361016001516001600160801b031690565b1115610a7657801515611cd58361016001516001600160801b031690565b60e08401516001600160801b03161114610a765760405162461bcd60e51b81526020600482015260126024820152714f72646572426f6f6b3a736c3e707269636560701b604482015260640161047d565b6000816040015160ff16600003611d7f5760405162461bcd60e51b815260206004820152601b60248201527f696e76616c6964206f7264657220747269676765722061626f76650000000000604482015260640161047d565b60028260400151611d909190612b62565b60ff16600103611da257506001919050565b506000919050565b919050565b606061036a6001600160a01b03831660145b60606000611dd0836002612b92565b611ddb906002612ba9565b6001600160401b03811115611df257611df2611ff2565b6040519080825280601f01601f191660200182016040528015611e1c576020820181803683370190505b509050600360fc1b81600081518110611e3757611e3761296f565b60200101906001600160f81b031916908160001a905350600f60fb1b81600181518110611e6657611e6661296f565b60200101906001600160f81b031916908160001a9053506000611e8a846002612b92565b611e95906001612ba9565b90505b6001811115611f0d576f181899199a1a9b1b9c1cb0b131b232b360811b85600f1660108110611ec957611ec961296f565b1a60f81b828281518110611edf57611edf61296f565b60200101906001600160f81b031916908160001a90535060049490941c93611f0681612bbc565b9050611e98565b508315610dcd5760405162461bcd60e51b815260206004820181905260248201527f537472696e67733a20686578206c656e67746820696e73756666696369656e74604482015260640161047d565b604080516101a081018252600080825260208201819052918101829052606081018290526080810182905260a0810182905260c0810182905260e08101829052610100810182905261012081018290526101408101829052610160810182905261018081019190915290565b600060208284031215611fda57600080fd5b81356001600160e01b031981168114610dcd57600080fd5b634e487b7160e01b600052604160045260246000fd5b6040516101a081016001600160401b038111828210171561202b5761202b611ff2565b60405290565b60405160e081016001600160401b038111828210171561202b5761202b611ff2565b604051601f8201601f191681016001600160401b038111828210171561207b5761207b611ff2565b604052919050565b6001600160a01b038116811461154a57600080fd5b8035611daa81612083565b801515811461154a57600080fd5b8035611daa816120a3565b60ff8116811461154a57600080fd5b8035611daa816120bc565b63ffffffff8116811461154a57600080fd5b8035611daa816120d6565b65ffffffffffff8116811461154a57600080fd5b8035611daa816120f3565b6001600160801b038116811461154a57600080fd5b8035611daa81612112565b6001600160401b038116811461154a57600080fd5b8035611daa81612132565b60006101a0828403121561216557600080fd5b61216d612008565b9050612178826120cb565b8152612186602083016120e8565b6020820152612197604083016120cb565b60408201526121a860608301612098565b60608201526121b960808301612107565b60808201526121ca60a08301612127565b60a08201526121db60c08301612127565b60c08201526121ec60e08301612127565b60e08201526101006121ff818401612127565b90820152610120612211838201612147565b90820152610140612223838201612147565b90820152610160612235838201612127565b818301525061018080830135818301525092915050565b60006001600160401b0382111561226557612265611ff2565b5060051b60200190565b600082601f83011261228057600080fd5b813560206122956122908361224c565b612053565b82815260059290921b840181019181810190868411156122b457600080fd5b8286015b848110156122cf57803583529183019183016122b8565b509695505050505050565b600061026082840312156122ed57600080fd5b6122f5612031565b905061230082612098565b815261230e602083016120b1565b602082015260408201356040820152612329606083016120b1565b606082015261233a608083016120b1565b608082015261234c8360a08401612152565b60a08201526102408201356001600160401b0381111561236b57600080fd5b6123778482850161226f565b60c08301525092915050565b60006020828403121561239557600080fd5b81356001600160401b038111156123ab57600080fd5b6123b7848285016122da565b949350505050565b805160ff16825260208101516123dd602084018263ffffffff169052565b5060408101516123f2604084018260ff169052565b50606081015161240d60608401826001600160a01b03169052565b506080810151612427608084018265ffffffffffff169052565b5060a081015161244260a08401826001600160801b03169052565b5060c081015161245d60c08401826001600160801b03169052565b5060e081015161247860e08401826001600160801b03169052565b50610100818101516001600160801b038116848301525050610120818101516001600160401b038116848301525050610140818101516001600160401b038116848301525050610160818101516001600160801b03811684830152505061018090810151910152565b6101a0810161036a82846123bf565b6000806000806080858703121561250657600080fd5b8435935060208501359250604085013561251f816120a3565b9396929550929360600135925050565b6020808252825182820181905260009190848201906040850190845b818110156125725761255e8385516123bf565b928401926101a0929092019160010161254b565b50909695505050505050565b60006020828403121561259057600080fd5b5035919050565b600080604083850312156125aa57600080fd5b8235915060208301356125bc81612083565b809150509250929050565b600080604083850312156125da57600080fd5b8235915060208301356125bc816120a3565b600080604083850312156125ff57600080fd5b823561260a816120a3565b915060208301356125bc81612083565b60006020828403121561262c57600080fd5b8135610dcd81612083565b60008060006060848603121561264c57600080fd5b833561265781612083565b925060208401359150604084013561266e816120a3565b809150509250925092565b6000602080838503121561268c57600080fd5b82356001600160401b03808211156126a357600080fd5b818501915085601f8301126126b757600080fd5b81356126c56122908261224c565b81815260059190911b830184019084810190888311156126e457600080fd5b8585015b8381101561271c578035858111156127005760008081fd5b61270e8b89838a01016122da565b8452509186019186016126e8565b5098975050505050505050565b60008060006060848603121561273e57600080fd5b8335612749816120a3565b9250602084013561275981612083565b9150604084013561266e81612083565b60006020828403121561277b57600080fd5b8151610dcd816120a3565b8051611daa816120bc565b8051611daa816120d6565b8051611daa81612083565b8051611daa816120f3565b8051611daa81612112565b8051611daa81612132565b60006101a082840312156127db57600080fd5b6127e3612008565b90506127ee82612786565b81526127fc60208301612791565b602082015261280d60408301612786565b604082015261281e6060830161279c565b606082015261282f608083016127a7565b608082015261284060a083016127b2565b60a082015261285160c083016127b2565b60c082015261286260e083016127b2565b60e08201526101006128758184016127b2565b908201526101206128878382016127bd565b908201526101406128998382016127bd565b908201526101606128ab8382016127b2565b818301525061018080830151818301525092915050565b60006101a082840312156128d557600080fd5b610dcd83836127c8565b600060208083850312156128f257600080fd5b82516001600160401b0381111561290857600080fd5b8301601f8101851361291957600080fd5b80516129276122908261224c565b81815260059190911b8201830190838101908783111561294657600080fd5b928401925b828410156129645783518252928401929084019061294b565b979650505050505050565b634e487b7160e01b600052603260045260246000fd5b6000602080838503121561299857600080fd5b82516001600160401b038111156129ae57600080fd5b8301601f810185136129bf57600080fd5b80516129cd6122908261224c565b8181526101a091820283018401918482019190888411156129ed57600080fd5b938501935b83851015612a1357612a0489866127c8565b835293840193918501916129f2565b50979650505050505050565b600060208284031215612a3157600080fd5b5051919050565b60609290921b6bffffffffffffffffffffffff1916825260c01b6001600160c01b0319166014820152601c0190565b60005b83811015612a82578181015183820152602001612a6a565b50506000910152565b7f416363657373436f6e74726f6c3a206163636f756e7420000000000000000000815260008351612ac3816017850160208801612a67565b7001034b99036b4b9b9b4b733903937b6329607d1b6017918401918201528351612af4816028840160208801612a67565b01602801949350505050565b6020815260008251806020840152612b1f816040850160208701612a67565b601f01601f19169190910160400192915050565b634e487b7160e01b600052601160045260246000fd5b60ff818116838216019081111561036a5761036a612b33565b600060ff831680612b8357634e487b7160e01b600052601260045260246000fd5b8060ff84160691505092915050565b808202811582820484141761036a5761036a612b33565b8082018082111561036a5761036a612b33565b600081612bcb57612bcb612b33565b50600019019056fecb58d6d985142a614029cdf01861b4fe094d5919a47e69b8310dc4093d9d6ad0a2646970667358221220c31940e7c8cfa1aa5abb06e42f383368831ab39a4f754ee5014b2608d643c25964736f6c63430008110033",
  "linkReferences": {},
  "deployedLinkReferences": {}
}