{
  "_format": "hh-sol-artifact-1",
  "contractName": "FastPriceFeed",
  "sourceName": "contracts/oracle/FastPriceFeed.sol",
  "abi": [
    {
      "anonymous": false,
      "inputs": [
        {
          "indexed": false,
          "internalType": "uint8",
          "name": "version",
          "type": "uint8"
        }
      ],
      "name": "Initialized",
      "type": "event"
    },
    {
      "anonymous": false,
      "inputs": [
        {
          "indexed": false,
          "internalType": "address",
          "name": "token",
          "type": "address"
        },
        {
          "indexed": false,
          "internalType": "uint256",
          "name": "refPrice",
          "type": "uint256"
        },
        {
          "indexed": false,
          "internalType": "uint256",
          "name": "fastPrice",
          "type": "uint256"
        },
        {
          "indexed": false,
          "internalType": "uint256",
          "name": "cumulativeRefDelta",
          "type": "uint256"
        },
        {
          "indexed": false,
          "internalType": "uint256",
          "name": "cumulativeFastDelta",
          "type": "uint256"
        }
      ],
      "name": "MaxCumulativeDeltaDiffExceeded",
      "type": "event"
    },
    {
      "anonymous": false,
      "inputs": [
        {
          "indexed": false,
          "internalType": "address",
          "name": "token",
          "type": "address"
        },
        {
          "indexed": false,
          "internalType": "uint256",
          "name": "refPrice",
          "type": "uint256"
        },
        {
          "indexed": false,
          "internalType": "uint256",
          "name": "fastPrice",
          "type": "uint256"
        },
        {
          "indexed": false,
          "internalType": "uint256",
          "name": "cumulativeRefDelta",
          "type": "uint256"
        },
        {
          "indexed": false,
          "internalType": "uint256",
          "name": "cumulativeFastDelta",
          "type": "uint256"
        }
      ],
      "name": "PriceData",
      "type": "event"
    },
    {
      "anonymous": false,
      "inputs": [
        {
          "indexed": false,
          "internalType": "address",
          "name": "feed",
          "type": "address"
        },
        {
          "indexed": true,
          "internalType": "address",
          "name": "token",
          "type": "address"
        },
        {
          "indexed": false,
          "internalType": "uint256",
          "name": "price",
          "type": "uint256"
        }
      ],
      "name": "UpdatePrice",
      "type": "event"
    },
    {
      "inputs": [],
      "name": "BASIS_POINTS_DIVISOR",
      "outputs": [
        {
          "internalType": "uint256",
          "name": "",
          "type": "uint256"
        }
      ],
      "stateMutability": "view",
      "type": "function"
    },
    {
      "inputs": [],
      "name": "BITMASK_32",
      "outputs": [
        {
          "internalType": "uint256",
          "name": "",
          "type": "uint256"
        }
      ],
      "stateMutability": "view",
      "type": "function"
    },
    {
      "inputs": [],
      "name": "CUMULATIVE_DELTA_PRECISION",
      "outputs": [
        {
          "internalType": "uint256",
          "name": "",
          "type": "uint256"
        }
      ],
      "stateMutability": "view",
      "type": "function"
    },
    {
      "inputs": [],
      "name": "DEFAULT_ADMIN_ROLE",
      "outputs": [
        {
          "internalType": "bytes32",
          "name": "",
          "type": "bytes32"
        }
      ],
      "stateMutability": "view",
      "type": "function"
    },
    {
      "inputs": [],
      "name": "MAX_CUMULATIVE_FAST_DELTA",
      "outputs": [
        {
          "internalType": "uint256",
          "name": "",
          "type": "uint256"
        }
      ],
      "stateMutability": "view",
      "type": "function"
    },
    {
      "inputs": [],
      "name": "MAX_CUMULATIVE_REF_DELTA",
      "outputs": [
        {
          "internalType": "uint256",
          "name": "",
          "type": "uint256"
        }
      ],
      "stateMutability": "view",
      "type": "function"
    },
    {
      "inputs": [],
      "name": "MAX_PRICE_DURATION",
      "outputs": [
        {
          "internalType": "uint256",
          "name": "",
          "type": "uint256"
        }
      ],
      "stateMutability": "view",
      "type": "function"
    },
    {
      "inputs": [],
      "name": "MAX_REF_PRICE",
      "outputs": [
        {
          "internalType": "uint256",
          "name": "",
          "type": "uint256"
        }
      ],
      "stateMutability": "view",
      "type": "function"
    },
    {
      "inputs": [],
      "name": "PRICE_PRECISION",
      "outputs": [
        {
          "internalType": "uint256",
          "name": "",
          "type": "uint256"
        }
      ],
      "stateMutability": "view",
      "type": "function"
    },
    {
      "inputs": [
        {
          "internalType": "address",
          "name": "newOwner",
          "type": "address"
        }
      ],
      "name": "_transferOwnership",
      "outputs": [],
      "stateMutability": "pure",
      "type": "function"
    },
    {
      "inputs": [],
      "name": "chainPriceFeed",
      "outputs": [
        {
          "internalType": "address",
          "name": "",
          "type": "address"
        }
      ],
      "stateMutability": "view",
      "type": "function"
    },
    {
      "inputs": [
        {
          "internalType": "address",
          "name": "_token",
          "type": "address"
        }
      ],
      "name": "favorFastPrice",
      "outputs": [
        {
          "internalType": "bool",
          "name": "",
          "type": "bool"
        }
      ],
      "stateMutability": "view",
      "type": "function"
    },
    {
      "inputs": [
        {
          "internalType": "address",
          "name": "_token",
          "type": "address"
        },
        {
          "internalType": "uint256",
          "name": "_refPrice",
          "type": "uint256"
        },
        {
          "internalType": "bool",
          "name": "_maximise",
          "type": "bool"
        }
      ],
      "name": "getPrice",
      "outputs": [
        {
          "internalType": "uint256",
          "name": "",
          "type": "uint256"
        }
      ],
      "stateMutability": "view",
      "type": "function"
    },
    {
      "inputs": [
        {
          "internalType": "address",
          "name": "_token",
          "type": "address"
        }
      ],
      "name": "getPriceData",
      "outputs": [
        {
          "internalType": "uint256",
          "name": "",
          "type": "uint256"
        },
        {
          "internalType": "uint256",
          "name": "",
          "type": "uint256"
        },
        {
          "internalType": "uint256",
          "name": "",
          "type": "uint256"
        },
        {
          "internalType": "uint256",
          "name": "",
          "type": "uint256"
        }
      ],
      "stateMutability": "view",
      "type": "function"
    },
    {
      "inputs": [
        {
          "internalType": "address",
          "name": "_account",
          "type": "address"
        }
      ],
      "name": "grantControllerRoleByMarketManager",
      "outputs": [],
      "stateMutability": "nonpayable",
      "type": "function"
    },
    {
      "inputs": [
        {
          "internalType": "bytes32",
          "name": "role",
          "type": "bytes32"
        },
        {
          "internalType": "address",
          "name": "account",
          "type": "address"
        }
      ],
      "name": "grantRole",
      "outputs": [],
      "stateMutability": "pure",
      "type": "function"
    },
    {
      "inputs": [
        {
          "internalType": "bytes32",
          "name": "role",
          "type": "bytes32"
        },
        {
          "internalType": "address",
          "name": "account",
          "type": "address"
        }
      ],
      "name": "hasRole",
      "outputs": [
        {
          "internalType": "bool",
          "name": "",
          "type": "bool"
        }
      ],
      "stateMutability": "pure",
      "type": "function"
    },
    {
      "inputs": [
        {
          "internalType": "uint256",
          "name": "_priceDuration",
          "type": "uint256"
        },
        {
          "internalType": "uint256",
          "name": "_maxPriceUpdateDelay",
          "type": "uint256"
        },
        {
          "internalType": "uint256",
          "name": "_minBlockInterval",
          "type": "uint256"
        },
        {
          "internalType": "uint256",
          "name": "_maxDeviationBasisPoints",
          "type": "uint256"
        },
        {
          "internalType": "uint256",
          "name": "_maxTimeDeviation",
          "type": "uint256"
        },
        {
          "internalType": "uint256",
          "name": "_priceDataInterval",
          "type": "uint256"
        },
        {
          "internalType": "bool",
          "name": "_fastPriceIsSpreadEnabled",
          "type": "bool"
        },
        {
          "internalType": "address",
          "name": "_chainPriceFeed",
          "type": "address"
        }
      ],
      "name": "initialize",
      "outputs": [],
      "stateMutability": "nonpayable",
      "type": "function"
    },
    {
      "inputs": [],
      "name": "isSpreadEnablede",
      "outputs": [
        {
          "internalType": "bool",
          "name": "",
          "type": "bool"
        }
      ],
      "stateMutability": "view",
      "type": "function"
    },
    {
      "inputs": [],
      "name": "lastUpdatedAt",
      "outputs": [
        {
          "internalType": "uint256",
          "name": "",
          "type": "uint256"
        }
      ],
      "stateMutability": "view",
      "type": "function"
    },
    {
      "inputs": [
        {
          "internalType": "address",
          "name": "",
          "type": "address"
        }
      ],
      "name": "lastUpdatedAtBlock",
      "outputs": [
        {
          "internalType": "uint256",
          "name": "",
          "type": "uint256"
        }
      ],
      "stateMutability": "view",
      "type": "function"
    },
    {
      "inputs": [],
      "name": "lastUpdatedBlock",
      "outputs": [
        {
          "internalType": "uint256",
          "name": "",
          "type": "uint256"
        }
      ],
      "stateMutability": "view",
      "type": "function"
    },
    {
      "inputs": [
        {
          "internalType": "address",
          "name": "",
          "type": "address"
        }
      ],
      "name": "maxCumulativeDeltaDiffs",
      "outputs": [
        {
          "internalType": "uint256",
          "name": "",
          "type": "uint256"
        }
      ],
      "stateMutability": "view",
      "type": "function"
    },
    {
      "inputs": [],
      "name": "maxDeviationBasisPoints",
      "outputs": [
        {
          "internalType": "uint256",
          "name": "",
          "type": "uint256"
        }
      ],
      "stateMutability": "view",
      "type": "function"
    },
    {
      "inputs": [],
      "name": "maxPriceUpdateDelay",
      "outputs": [
        {
          "internalType": "uint256",
          "name": "",
          "type": "uint256"
        }
      ],
      "stateMutability": "view",
      "type": "function"
    },
    {
      "inputs": [],
      "name": "maxTimeDeviation",
      "outputs": [
        {
          "internalType": "uint256",
          "name": "",
          "type": "uint256"
        }
      ],
      "stateMutability": "view",
      "type": "function"
    },
    {
      "inputs": [],
      "name": "minBlockInterval",
      "outputs": [
        {
          "internalType": "uint256",
          "name": "",
          "type": "uint256"
        }
      ],
      "stateMutability": "view",
      "type": "function"
    },
    {
      "inputs": [
        {
          "internalType": "address",
          "name": "",
          "type": "address"
        }
      ],
      "name": "priceData",
      "outputs": [
        {
          "internalType": "uint160",
          "name": "refPrice",
          "type": "uint160"
        },
        {
          "internalType": "uint32",
          "name": "refTime",
          "type": "uint32"
        },
        {
          "internalType": "uint32",
          "name": "cumulativeRefDelta",
          "type": "uint32"
        },
        {
          "internalType": "uint32",
          "name": "cumulativeFastDelta",
          "type": "uint32"
        }
      ],
      "stateMutability": "view",
      "type": "function"
    },
    {
      "inputs": [],
      "name": "priceDataInterval",
      "outputs": [
        {
          "internalType": "uint256",
          "name": "",
          "type": "uint256"
        }
      ],
      "stateMutability": "view",
      "type": "function"
    },
    {
      "inputs": [],
      "name": "priceDuration",
      "outputs": [
        {
          "internalType": "uint256",
          "name": "",
          "type": "uint256"
        }
      ],
      "stateMutability": "view",
      "type": "function"
    },
    {
      "inputs": [
        {
          "internalType": "address",
          "name": "",
          "type": "address"
        }
      ],
      "name": "prices",
      "outputs": [
        {
          "internalType": "uint256",
          "name": "",
          "type": "uint256"
        }
      ],
      "stateMutability": "view",
      "type": "function"
    },
    {
      "inputs": [
        {
          "internalType": "bytes32",
          "name": "role",
          "type": "bytes32"
        },
        {
          "internalType": "address",
          "name": "account",
          "type": "address"
        }
      ],
      "name": "revokeRole",
      "outputs": [],
      "stateMutability": "pure",
      "type": "function"
    },
    {
      "inputs": [
        {
          "internalType": "uint256[]",
          "name": "_priceBitArray",
          "type": "uint256[]"
        },
        {
          "internalType": "uint256",
          "name": "_timestamp",
          "type": "uint256"
        }
      ],
      "name": "setCompactedPrices",
      "outputs": [],
      "stateMutability": "nonpayable",
      "type": "function"
    },
    {
      "inputs": [
        {
          "internalType": "bool",
          "name": "_enabled",
          "type": "bool"
        }
      ],
      "name": "setIsSpreadEnabled",
      "outputs": [],
      "stateMutability": "nonpayable",
      "type": "function"
    },
    {
      "inputs": [
        {
          "internalType": "uint256",
          "name": "_lastUpdatedAt",
          "type": "uint256"
        }
      ],
      "name": "setLastUpdatedAt",
      "outputs": [],
      "stateMutability": "nonpayable",
      "type": "function"
    },
    {
      "inputs": [
        {
          "internalType": "address[]",
          "name": "_tokens",
          "type": "address[]"
        },
        {
          "internalType": "uint256[]",
          "name": "_maxCumulativeDeltaDiffs",
          "type": "uint256[]"
        }
      ],
      "name": "setMaxCumulativeDeltaDiffs",
      "outputs": [],
      "stateMutability": "nonpayable",
      "type": "function"
    },
    {
      "inputs": [
        {
          "internalType": "uint256",
          "name": "_maxDeviationBasisPoints",
          "type": "uint256"
        }
      ],
      "name": "setMaxDeviationBasisPoints",
      "outputs": [],
      "stateMutability": "nonpayable",
      "type": "function"
    },
    {
      "inputs": [
        {
          "internalType": "uint256",
          "name": "_delay",
          "type": "uint256"
        }
      ],
      "name": "setMaxPriceUpdateDelay",
      "outputs": [],
      "stateMutability": "nonpayable",
      "type": "function"
    },
    {
      "inputs": [
        {
          "internalType": "uint256",
          "name": "_deviation",
          "type": "uint256"
        }
      ],
      "name": "setMaxTimeDeviation",
      "outputs": [],
      "stateMutability": "nonpayable",
      "type": "function"
    },
    {
      "inputs": [
        {
          "internalType": "uint256",
          "name": "_interval",
          "type": "uint256"
        }
      ],
      "name": "setMinBlockInterval",
      "outputs": [],
      "stateMutability": "nonpayable",
      "type": "function"
    },
    {
      "inputs": [
        {
          "internalType": "uint256",
          "name": "_priceDataInterval",
          "type": "uint256"
        }
      ],
      "name": "setPriceDataInterval",
      "outputs": [],
      "stateMutability": "nonpayable",
      "type": "function"
    },
    {
      "inputs": [
        {
          "internalType": "uint256",
          "name": "_duration",
          "type": "uint256"
        }
      ],
      "name": "setPriceDuration",
      "outputs": [],
      "stateMutability": "nonpayable",
      "type": "function"
    },
    {
      "inputs": [
        {
          "internalType": "address",
          "name": "_feed",
          "type": "address"
        }
      ],
      "name": "setPriceFeed",
      "outputs": [],
      "stateMutability": "nonpayable",
      "type": "function"
    },
    {
      "inputs": [
        {
          "internalType": "address[]",
          "name": "_tokens",
          "type": "address[]"
        },
        {
          "internalType": "uint256[]",
          "name": "_prices",
          "type": "uint256[]"
        },
        {
          "internalType": "uint256",
          "name": "_timestamp",
          "type": "uint256"
        }
      ],
      "name": "setPrices",
      "outputs": [],
      "stateMutability": "nonpayable",
      "type": "function"
    },
    {
      "inputs": [
        {
          "internalType": "address",
          "name": "token",
          "type": "address"
        },
        {
          "internalType": "uint256",
          "name": "price",
          "type": "uint256"
        },
        {
          "internalType": "uint256",
          "name": "timestamp",
          "type": "uint256"
        },
        {
          "components": [
            {
              "internalType": "address",
              "name": "market",
              "type": "address"
            },
            {
              "internalType": "address",
              "name": "account",
              "type": "address"
            },
            {
              "internalType": "uint64",
              "name": "orderID",
              "type": "uint64"
            },
            {
              "internalType": "bool",
              "name": "isIncrease",
              "type": "bool"
            },
            {
              "internalType": "bool",
              "name": "isLong",
              "type": "bool"
            }
          ],
          "internalType": "struct IMarket.OrderExec[]",
          "name": "orders",
          "type": "tuple[]"
        }
      ],
      "name": "setPricesAndExecute",
      "outputs": [],
      "stateMutability": "nonpayable",
      "type": "function"
    },
    {
      "inputs": [
        {
          "internalType": "uint256",
          "name": "_priceBits",
          "type": "uint256"
        },
        {
          "internalType": "uint256",
          "name": "_timestamp",
          "type": "uint256"
        }
      ],
      "name": "setPricesWithBits",
      "outputs": [],
      "stateMutability": "nonpayable",
      "type": "function"
    },
    {
      "inputs": [
        {
          "internalType": "uint256",
          "name": "_point",
          "type": "uint256"
        }
      ],
      "name": "setSpreadBasisPointsIfChainError",
      "outputs": [],
      "stateMutability": "nonpayable",
      "type": "function"
    },
    {
      "inputs": [
        {
          "internalType": "uint256",
          "name": "_point",
          "type": "uint256"
        }
      ],
      "name": "setSpreadBasisPointsIfInactive",
      "outputs": [],
      "stateMutability": "nonpayable",
      "type": "function"
    },
    {
      "inputs": [
        {
          "internalType": "address[]",
          "name": "_tokens",
          "type": "address[]"
        },
        {
          "internalType": "uint256[]",
          "name": "_tokenPrecisions",
          "type": "uint256[]"
        }
      ],
      "name": "setTokens",
      "outputs": [],
      "stateMutability": "nonpayable",
      "type": "function"
    },
    {
      "inputs": [],
      "name": "spreadBasisPointsIfChainError",
      "outputs": [
        {
          "internalType": "uint256",
          "name": "",
          "type": "uint256"
        }
      ],
      "stateMutability": "view",
      "type": "function"
    },
    {
      "inputs": [],
      "name": "spreadBasisPointsIfInactive",
      "outputs": [
        {
          "internalType": "uint256",
          "name": "",
          "type": "uint256"
        }
      ],
      "stateMutability": "view",
      "type": "function"
    },
    {
      "inputs": [
        {
          "internalType": "uint256",
          "name": "",
          "type": "uint256"
        }
      ],
      "name": "tokenPrecisions",
      "outputs": [
        {
          "internalType": "uint256",
          "name": "",
          "type": "uint256"
        }
      ],
      "stateMutability": "view",
      "type": "function"
    },
    {
      "inputs": [
        {
          "internalType": "uint256",
          "name": "",
          "type": "uint256"
        }
      ],
      "name": "tokens",
      "outputs": [
        {
          "internalType": "address",
          "name": "",
          "type": "address"
        }
      ],
      "stateMutability": "view",
      "type": "function"
    },
    {
      "inputs": [
        {
          "internalType": "address",
          "name": "to",
          "type": "address"
        }
      ],
      "name": "transferAdmin",
      "outputs": [],
      "stateMutability": "nonpayable",
      "type": "function"
    },
    {
      "inputs": [
        {
          "internalType": "address",
          "name": "newOwner",
          "type": "address"
        }
      ],
      "name": "transferOwnership",
      "outputs": [],
      "stateMutability": "pure",
      "type": "function"
    },
    {
      "inputs": [
        {
          "internalType": "uint256",
          "name": "",
          "type": "uint256"
        }
      ],
      "name": "updatedAt",
      "outputs": [
        {
          "internalType": "uint256",
          "name": "",
          "type": "uint256"
        }
      ],
      "stateMutability": "view",
      "type": "function"
    }
  ],
  "bytecode": "0x608060405234801561001057600080fd5b50612819806100206000396000f3fe608060405234801561001057600080fd5b50600436106103785760003560e01c806382553aad116101d3578063cab44b7611610104578063dfb481c9116100a2578063f2fde38b1161007c578063f2fde38b14610762578063f90ce5ba146107b9578063f931ac30146107c2578063fcb51252146107cf57600080fd5b8063dfb481c914610799578063e64559ad146107a2578063e68a22c0146107ab57600080fd5b8063d29d44ee116100de578063d29d44ee14610762578063d547741f1461040e578063d6a153f114610773578063de0d1b941461078657600080fd5b8063cab44b761461069e578063ce98dfa814610721578063cfed246b1461074257600080fd5b8063a374242511610171578063b3606b561161014b578063b3606b561461065c578063b70c7b7014610665578063c818faec14610678578063c8390a481461068b57600080fd5b8063a37424251461061b578063a6eca8961461063b578063add37b7b1461064457600080fd5b806395082d25116101ad57806395082d25146105d55780639875f760146105e9578063a217fddf14610609578063a2b47c161461061157600080fd5b806382553aad1461059c5780638b7677f4146105af57806391d14854146105c257600080fd5b80634f64b2be116102ad57806374bfed891161024b578063782661bc11610225578063782661bc146105635780637fe4a698146105765780637fece36814610589578063807c9782146103ae57600080fd5b806374bfed891461053457806375829def1461053d578063776d16c11461055057600080fd5b80636c56fd05116102875780636c56fd051461049f578063715c7536146104c257806372279ba1146104cb578063724e78da146104fe57600080fd5b80634f64b2be1461046257806354aea1271461048d578063668d3d651461049657600080fd5b80632e9cd94b1161031a57806344c23193116102f457806344c23193146104295780634bd66c1c146103ae5780634c0e31c81461043c5780634d11fb4a1461044f57600080fd5b80632e9cd94b146103fb5780632f2ff15d1461040e5780633aa08f861461042057600080fd5b8063126082cf11610356578063126082cf146103b957806314dd2dce146103c25780631512656d146103d557806317835d1c146103e857600080fd5b806303cd25711461037d57806303f4d7dc146103995780630604ddea146103ae575b600080fd5b61038660055481565b6040519081526020015b60405180910390f35b6103ac6103a7366004611f01565b6107e2565b005b61038663ffffffff81565b61038661271081565b6103ac6103d0366004611f45565b600355565b6103ac6103e3366004611f88565b61095c565b6103ac6103f6366004611ff9565b610b3a565b6103ac610409366004611f45565b600b55565b6103ac61041c36600461201b565b5050565b610386600a5481565b6103ac610437366004611f45565b610b44565b6103ac61044a3660046120af565b610bc9565b61038661045d366004611f45565b610c64565b610475610470366004611f45565b610c85565b6040516001600160a01b039091168152602001610390565b61038660035481565b61038661070881565b6104b26104ad366004612112565b610caf565b6040519015158152602001610390565b610386600c5481565b6104de6104d9366004612112565b610d1f565b604080519485526020850193909352918301526060820152608001610390565b6103ac61050c366004612112565b600280546001600160a01b0390921661010002610100600160a81b0319909216919091179055565b61038660075481565b6103ac61054b366004612112565b610d89565b6103ac61055e366004611f45565b600a55565b6103ac61057136600461212f565b610d94565b6103ac610584366004612112565b610770565b61038661059736600461219b565b610e21565b6103ac6105aa366004611f45565b600c55565b6103ac6105bd366004611f45565b600655565b6104b26105d036600461201b565b610f84565b6103866c0c9f2c9cd04674edea4000000081565b6103866105f7366004612112565b60136020526000908152604090205481565b610386600081565b6103866298968081565b610386610629366004612112565b600f6020526000908152604090205481565b61038660085481565b6002546104759061010090046001600160a01b031681565b61038660095481565b6103ac610673366004611f45565b600755565b610386610686366004611f45565b610f8d565b6103ac6106993660046120af565b610f9d565b6106eb6106ac366004612112565b600e602052600090815260409020546001600160a01b0381169063ffffffff600160a01b8204811691600160c01b8104821691600160e01b9091041684565b604080516001600160a01b03909516855263ffffffff938416602086015291831691840191909152166060820152608001610390565b6103ac61072f3660046121d9565b6002805460ff1916911515919091179055565b610386610750366004612112565b600d6020526000908152604090205481565b6103ac610770366004612112565b50565b6103ac610781366004611f45565b600955565b6103ac610794366004611f45565b600855565b610386600b5481565b61038660065481565b6103866001600160a01b0381565b61038660045481565b6002546104b29060ff1681565b6103ac6107dd366004612209565b611036565b60006107ed826113de565b905080156109575760025461010090046001600160a01b031660005b845181101561095457600085828151811061082657610826612329565b6020026020010151905060005b600881101561093f5760008161084a856008612355565b610854919061236c565b601054909150811061086a575050505050505050565b6000610877836020612355565b905083811c63ffffffff166000601085610892896008612355565b61089c919061236c565b815481106108ac576108ac612329565b60009182526020822001546001600160a01b031691506011866108d08a6008612355565b6108da919061236c565b815481106108ea576108ea612329565b600091825260208220015491508161090f6c0c9f2c9cd04674edea4000000086612355565b610919919061237f565b905061092683828c611560565b5050505050508080610937906123a1565b915050610833565b5050808061094c906123a1565b915050610809565b50505b505050565b600054610100900460ff161580801561097c5750600054600160ff909116105b806109965750303b158015610996575060005460ff166001145b6109fe5760405162461bcd60e51b815260206004820152602e60248201527f496e697469616c697a61626c653a20636f6e747261637420697320616c72656160448201526d191e481a5b9a5d1a585b1a5e995960921b60648201526084015b60405180910390fd5b6000805460ff191660011790558015610a21576000805461ff0019166101001790555b610a2a3361182e565b610708891115610a8a5760405162461bcd60e51b815260206004820152602560248201527f466173745072696365466565643a20696e76616c6964205f707269636544757260448201526430ba34b7b760d91b60648201526084016109f5565b600589905560068890556009879055600c869055600a859055600b8490556002805460ff19168415151790556001600160a01b038216610ac957600080fd5b60028054610100600160a81b0319166101006001600160a01b038516021790558015610b2f576000805461ff0019169055604051600181527f7f26b83ff96e1f2b6a682f133852f6798a09c465da95921460cefb38474024989060200160405180910390a15b505050505050505050565b61041c8282611835565b7f241ecf16d79d0f8dbfb92cbc07fe17840425976cf0667f022fe9877caa831b08610708821115610bc35760405162461bcd60e51b8152602060048201526024808201527f466173745072696365466565643a20696e76616c6964207072696365447572616044820152633a34b7b760e11b60648201526084016109f5565b50600555565b7f241ecf16d79d0f8dbfb92cbc07fe17840425976cf0667f022fe9877caa831b0860005b8351811015610c5e576000848281518110610c0a57610c0a612329565b60200260200101519050838281518110610c2657610c26612329565b6020908102919091018101516001600160a01b039092166000908152600f909152604090205580610c56816123a1565b915050610bed565b50505050565b60118181548110610c7457600080fd5b600091825260209091200154905081565b60108181548110610c9557600080fd5b6000918252602090912001546001600160a01b0316905081565b60025460009060ff1615610cc557506000919050565b600080610cd184610d1f565b9350935050508181118015610d0657506001600160a01b0384166000908152600f6020526040902054610d0483836123ba565b115b15610d15575060009392505050565b5060019392505050565b6001600160a01b039081166000908152600e60209081526040918290208251608081018452905493841680825263ffffffff600160a01b86048116938301849052600160c01b86048116948301859052600160e01b90950490941660609091018190529293909290565b600061041c60003382565b6000610d9f826113de565b90508015610c5e5760025461010090046001600160a01b031660005b8551811015610e19576000868281518110610dd857610dd8612329565b60200260200101519050610e0681878481518110610df857610df8612329565b602002602001015185611560565b5080610e11816123a1565b915050610dbb565b505050505050565b6000600654600354610e33919061236c565b421115610e81578115610e6e57612710600854612710610e53919061236c565b610e5d9085612355565b610e67919061237f565b9050610f7d565b612710600854612710610e5391906123ba565b600554600354610e91919061236c565b421115610ec4578115610eb157612710600754612710610e53919061236c565b612710600754612710610e5391906123ba565b6001600160a01b0384166000908152600d602052604081205490819003610eee5783915050610f7d565b6000818511610f0657610f0185836123ba565b610f10565b610f1082866123ba565b905084610f1f61271083612355565b610f29919061237f565b90506000610f3687610caf565b1580610f435750600c5482115b90508015610f77578415610f6a57828611610f5e5782610f60565b855b9350505050610f7d565b828610610f5e5782610f60565b50909150505b9392505050565b60015b92915050565b60128181548110610c7457600080fd5b7f241ecf16d79d0f8dbfb92cbc07fe17840425976cf0667f022fe9877caa831b08815183511461100f5760405162461bcd60e51b815260206004820152601e60248201527f466173745072696365466565643a20696e76616c6964206c656e67746873000060448201526064016109f5565b8251611022906010906020860190611d2d565b508151610c5e906011906020850190611d92565b61103f826113de565b506110608484600260019054906101000a90046001600160a01b0316611560565b60005b815181101561095457600082828151811061108057611080612329565b60200260200101516000015190506000816001600160a01b031663a26404548585815181106110b1576110b1612329565b6020026020010151608001518686815181106110cf576110cf612329565b6020026020010151606001516040518363ffffffff1660e01b815260040161110592919091151582521515602082015260400190565b602060405180830381865afa158015611122573d6000803e3d6000fd5b505050506040513d601f19601f8201168201806040525081019061114691906123cd565b905060006111d585858151811061115f5761115f612329565b60200260200101516020015186868151811061117d5761117d612329565b602090810291909101810151604090810151815160609490941b6bffffffffffffffffffffffff19168484015260c01b6001600160c01b03191660348401528051601c818503018152603c9093019052815191012090565b6040516309c3f1e960e41b8152600481018290529091506000906001600160a01b03841690639c3f1e90906024016101a060405180830381865afa158015611221573d6000803e3d6000fd5b505050506040513d601f19601f820116820180604052508101906112459190612452565b604080516101e08101825260008082526020820181905291810182905260608082018390526080820183905260a0820183905260c0820183905260e08201839052610100820183905261012082018390526101408201839052610160820183905261018082018390526101a08201929092526101c08101919091529091506112f38787815181106112d8576112d8612329565b6020026020010151606001518261192c90919063ffffffff16565b6113668288888151811061130957611309612329565b60200260200101516000015189898151811061132757611327612329565b6020026020010151608001518a8a8151811061134557611345612329565b60200260200101516060015160018661195a9095949392919063ffffffff16565b6040516304b789db60e21b81526001600160a01b038616906312de276c906113949085908590600401612687565b600060405180830381600087803b1580156113ae57600080fd5b505af11580156113c2573d6000803e3d6000fd5b50505050505050505080806113d6906123a1565b915050611063565b6009546000901561145e576009546004546113f990436123ba565b101561145e5760405162461bcd60e51b815260206004820152602e60248201527f466173745072696365466565643a206d696e426c6f636b496e74657276616c2060448201526d1b9bdd081e595d081c185cdcd95960921b60648201526084016109f5565b600a5461146b81426123ba565b83116114cf5760405162461bcd60e51b815260206004820152602d60248201527f466173745072696365466565643a205f74696d657374616d702062656c6f772060448201526c616c6c6f7765642072616e676560981b60648201526084016109f5565b6114d9814261236c565b831061153f5760405162461bcd60e51b815260206004820152602f60248201527f466173745072696365466565643a205f74696d657374616d702065786365656460448201526e7320616c6c6f7765642072616e676560881b60648201526084016109f5565b6003548310156115525750600092915050565b505060035543600455600190565b6001600160a01b038116156117ca576040516302c68be360e31b81526001600160a01b038481166004830152600091908316906316345f1890602401602060405180830381865afa1580156115b9573d6000803e3d6000fd5b505050506040513d601f19601f820116820180604052508101906115dd91906127ca565b6001600160a01b0385166000908152600d602052604081205491925080808061160589610d1f565b935093509350935060008411156116d257600084871161162e5761162987866123ba565b611638565b61163885886123ba565b905060008987116116525761164d878b6123ba565b61165c565b61165c8a886123ba565b9050600b544261166c919061237f565b600b54611679908761237f565b146116875760009350600092505b856116956298968084612355565b61169f919061237f565b6116a9908561236c565b9350866116b96298968083612355565b6116c3919061237f565b6116cd908461236c565b925050505b818111801561170157506001600160a01b0389166000908152600f60205260409020546116ff83836123ba565b115b1561175f57604080516001600160a01b038b1681526020810188905290810186905260608101839052608081018290527fe582322b389ad06b2bbf619cd6da3f16a288ec873ea0fa6df4d72f3d9480b4479060a00160405180910390a15b61176b89878484611a96565b604080516001600160a01b038b1681526020810188905290810186905260608101839052608081018290527f23b9387f81fca646aac1dc4487ede045c65f5f7445482906565f01e05afdb3a89060a00160405180910390a15050505050505b6001600160a01b0383166000818152601360209081526040808320429055600d82529182902085905581513381529081018590527f769c880b4ecaf9ff271685d367fa4e4d091bab5879cf19c9ab777391e44f1c0f910160405180910390a2505050565b4260015550565b6000611840826113de565b905080156109575760025461010090046001600160a01b031660005b6008811015610954576010548190811061187857505050505050565b6000611885836020612355565b6010805491925088831c63ffffffff169160009190869081106118aa576118aa612329565b6000918252602082200154601180546001600160a01b03909216935090879081106118d7576118d7612329565b60009182526020822001549150816118fc6c0c9f2c9cd04674edea4000000086612355565b611906919061237f565b905061191383828a611560565b5050505050508080611924906123a1565b91505061185c565b60408051600480825260a0820190925290602082016080803683375050506101c08301521515606090910152565b6001600160a01b038085168752831515602088015260c0808701516001600160801b0390811660a0808b019190915260e08901518216928a0192909252610180808901516101608b01528415156101008b01526101208901516001600160401b03166101408b0152606089015190931660808a01529087015116908701528115611a55576119fd6119f68661010001516001600160801b031690565b8790611c58565b611a1c611a158661016001516001600160801b031690565b8790611c81565b611a37611a30866101400151600f16151590565b8790611c9a565b610140850151611a509060041c600f1615158790611cc4565b610e19565b611a74611a6d866080015165ffffffffffff16151590565b8790611cee565b50608085015165ffffffffffff16610e19576000610180870152505050505050565b6001600160a01b038310611aec5760405162461bcd60e51b815260206004820152601f60248201527f466173745072696365466565643a20696e76616c69642072656650726963650060448201526064016109f5565b63ffffffff8210611b515760405162461bcd60e51b815260206004820152602960248201527f466173745072696365466565643a20696e76616c69642063756d756c617469766044820152686552656644656c746160b81b60648201526084016109f5565b63ffffffff8110611bb75760405162461bcd60e51b815260206004820152602a60248201527f466173745072696365466565643a20696e76616c69642063756d756c61746976604482015269654661737444656c746160b01b60648201526084016109f5565b604080516080810182526001600160a01b03948516815263ffffffff4281166020808401918252958216838501908152948216606084019081529787166000908152600e90965292909420905181549251935196518516600160e01b026001600160e01b03978616600160c01b02979097166001600160c01b0394909516600160a01b026001600160c01b0319909316951694909417171617919091179055565b80826101c00151600081518110611c7157611c71612329565b6020026020010181815250505050565b80826101c00151600181518110611c7157611c71612329565b80611ca6576000611ca9565b60015b60ff16826101c00151600281518110611c7157611c71612329565b80611cd0576000611cd3565b60015b60ff16826101c00151600381518110611c7157611c71612329565b600081611cfc576000611cff565b60015b60ff16836101c00151600081518110611d1a57611d1a612329565b6020026020010181815250905092915050565b828054828255906000526020600020908101928215611d82579160200282015b82811115611d8257825182546001600160a01b0319166001600160a01b03909116178255602090920191600190910190611d4d565b50611d8e929150611dcd565b5090565b828054828255906000526020600020908101928215611d82579160200282015b82811115611d82578251825591602001919060010190611db2565b5b80821115611d8e5760008155600101611dce565b634e487b7160e01b600052604160045260246000fd5b60405160a081016001600160401b0381118282101715611e1a57611e1a611de2565b60405290565b6040516101a081016001600160401b0381118282101715611e1a57611e1a611de2565b604051601f8201601f191681016001600160401b0381118282101715611e6b57611e6b611de2565b604052919050565b60006001600160401b03821115611e8c57611e8c611de2565b5060051b60200190565b600082601f830112611ea757600080fd5b81356020611ebc611eb783611e73565b611e43565b82815260059290921b84018101918181019086841115611edb57600080fd5b8286015b84811015611ef65780358352918301918301611edf565b509695505050505050565b60008060408385031215611f1457600080fd5b82356001600160401b03811115611f2a57600080fd5b611f3685828601611e96565b95602094909401359450505050565b600060208284031215611f5757600080fd5b5035919050565b80358015158114611f6e57600080fd5b919050565b6001600160a01b038116811461077057600080fd5b600080600080600080600080610100898b031215611fa557600080fd5b883597506020890135965060408901359550606089013594506080890135935060a08901359250611fd860c08a01611f5e565b915060e0890135611fe881611f73565b809150509295985092959890939650565b6000806040838503121561200c57600080fd5b50508035926020909101359150565b6000806040838503121561202e57600080fd5b82359150602083013561204081611f73565b809150509250929050565b600082601f83011261205c57600080fd5b8135602061206c611eb783611e73565b82815260059290921b8401810191818101908684111561208b57600080fd5b8286015b84811015611ef65780356120a281611f73565b835291830191830161208f565b600080604083850312156120c257600080fd5b82356001600160401b03808211156120d957600080fd5b6120e58683870161204b565b935060208501359150808211156120fb57600080fd5b5061210885828601611e96565b9150509250929050565b60006020828403121561212457600080fd5b8135610f7d81611f73565b60008060006060848603121561214457600080fd5b83356001600160401b038082111561215b57600080fd5b6121678783880161204b565b9450602086013591508082111561217d57600080fd5b5061218a86828701611e96565b925050604084013590509250925092565b6000806000606084860312156121b057600080fd5b83356121bb81611f73565b9250602084013591506121d060408501611f5e565b90509250925092565b6000602082840312156121eb57600080fd5b610f7d82611f5e565b6001600160401b038116811461077057600080fd5b6000806000806080858703121561221f57600080fd5b843561222a81611f73565b9350602085810135935060408087013593506060808801356001600160401b0381111561225657600080fd5b8801601f81018a1361226757600080fd5b8035612275611eb782611e73565b81815260a0918202830186019186820191908d84111561229457600080fd5b938701935b838510156123175780858f0312156122b15760008081fd5b6122b9611df8565b85356122c481611f73565b8152858901356122d381611f73565b818a0152858801356122e4816121f4565b818901526122f3868801611f5e565b8782015261230360808701611f5e565b608082015283529384019391870191612299565b50999c989b5096995050505050505050565b634e487b7160e01b600052603260045260246000fd5b634e487b7160e01b600052601160045260246000fd5b8082028115828204841417610f8757610f8761233f565b80820180821115610f8757610f8761233f565b60008261239c57634e487b7160e01b600052601260045260246000fd5b500490565b6000600182016123b3576123b361233f565b5060010190565b81810381811115610f8757610f8761233f565b6000602082840312156123df57600080fd5b8151610f7d81611f73565b805160ff81168114611f6e57600080fd5b805163ffffffff81168114611f6e57600080fd5b8051611f6e81611f73565b805165ffffffffffff81168114611f6e57600080fd5b80516001600160801b0381168114611f6e57600080fd5b8051611f6e816121f4565b60006101a0828403121561246557600080fd5b61246d611e20565b612476836123ea565b8152612484602084016123fb565b6020820152612495604084016123ea565b60408201526124a66060840161240f565b60608201526124b76080840161241a565b60808201526124c860a08401612430565b60a08201526124d960c08401612430565b60c08201526124ea60e08401612430565b60e08201526101006124fd818501612430565b9082015261012061250f848201612447565b90820152610140612521848201612447565b90820152610160612533848201612430565b90820152610180928301519281019290925250919050565b600081518084526020808501945080840160005b8381101561257b5781518752958201959082019060010161255f565b509495945050505050565b80516001600160a01b0316825260006101e060208301516125ab602086018215159052565b506040830151604085015260608301516125c9606086018215159052565b5060808301516125e460808601826001600160a01b03169052565b5060a083015160a085015260c083015160c085015260e083015160e0850152610100808401516126178287018215159052565b50506101208381015160ff90811691860191909152610140808501516001600160401b031690860152610160808501519086015261018080850151908601526101a080850151909116908501526101c08084015181860183905261267d8387018261254b565b9695505050505050565b825160ff16815260006101c060208501516126aa602085018263ffffffff169052565b5060408501516126bf604085018260ff169052565b5060608501516126da60608501826001600160a01b03169052565b5060808501516126f4608085018265ffffffffffff169052565b5060a085015161270f60a08501826001600160801b03169052565b5060c085015161272a60c08501826001600160801b03169052565b5060e085015161274560e08501826001600160801b03169052565b50610100858101516001600160801b038116858301525050610120858101516001600160401b038116858301525050610140858101516001600160401b038116858301525050610160858101516001600160801b038116858301525050610180808601518185015250806101a08401526127c181840185612586565b95945050505050565b6000602082840312156127dc57600080fd5b505191905056fea2646970667358221220e65fa73215dffb1ce5c93b983885b2189eb29d9546cea502632229294be6009264736f6c63430008110033",
  "linkReferences": {},
  "deployedLinkReferences": {}
}