{
  "_format": "hh-sol-artifact-1",
  "contractName": "FastPriceFeed",
  "sourceName": "contracts/oracle/FastPriceFeed.sol",
  "abi": [
    {
      "anonymous": false,
      "inputs": [
        {
          "indexed": false,
          "internalType": "uint8",
          "name": "version",
          "type": "uint8"
        }
      ],
      "name": "Initialized",
      "type": "event"
    },
    {
      "anonymous": false,
      "inputs": [
        {
          "indexed": false,
          "internalType": "address",
          "name": "token",
          "type": "address"
        },
        {
          "indexed": false,
          "internalType": "uint256",
          "name": "refPrice",
          "type": "uint256"
        },
        {
          "indexed": false,
          "internalType": "uint256",
          "name": "fastPrice",
          "type": "uint256"
        },
        {
          "indexed": false,
          "internalType": "uint256",
          "name": "cumulativeRefDelta",
          "type": "uint256"
        },
        {
          "indexed": false,
          "internalType": "uint256",
          "name": "cumulativeFastDelta",
          "type": "uint256"
        }
      ],
      "name": "MaxCumulativeDeltaDiffExceeded",
      "type": "event"
    },
    {
      "anonymous": false,
      "inputs": [
        {
          "indexed": true,
          "internalType": "address",
          "name": "previousOwner",
          "type": "address"
        },
        {
          "indexed": true,
          "internalType": "address",
          "name": "newOwner",
          "type": "address"
        }
      ],
      "name": "OwnershipTransferred",
      "type": "event"
    },
    {
      "anonymous": false,
      "inputs": [
        {
          "indexed": false,
          "internalType": "address",
          "name": "token",
          "type": "address"
        },
        {
          "indexed": false,
          "internalType": "uint256",
          "name": "refPrice",
          "type": "uint256"
        },
        {
          "indexed": false,
          "internalType": "uint256",
          "name": "fastPrice",
          "type": "uint256"
        },
        {
          "indexed": false,
          "internalType": "uint256",
          "name": "cumulativeRefDelta",
          "type": "uint256"
        },
        {
          "indexed": false,
          "internalType": "uint256",
          "name": "cumulativeFastDelta",
          "type": "uint256"
        }
      ],
      "name": "PriceData",
      "type": "event"
    },
    {
      "anonymous": false,
      "inputs": [
        {
          "indexed": true,
          "internalType": "bytes32",
          "name": "role",
          "type": "bytes32"
        },
        {
          "indexed": true,
          "internalType": "bytes32",
          "name": "previousAdminRole",
          "type": "bytes32"
        },
        {
          "indexed": true,
          "internalType": "bytes32",
          "name": "newAdminRole",
          "type": "bytes32"
        }
      ],
      "name": "RoleAdminChanged",
      "type": "event"
    },
    {
      "anonymous": false,
      "inputs": [
        {
          "indexed": true,
          "internalType": "bytes32",
          "name": "role",
          "type": "bytes32"
        },
        {
          "indexed": true,
          "internalType": "address",
          "name": "account",
          "type": "address"
        },
        {
          "indexed": true,
          "internalType": "address",
          "name": "sender",
          "type": "address"
        }
      ],
      "name": "RoleGranted",
      "type": "event"
    },
    {
      "anonymous": false,
      "inputs": [
        {
          "indexed": true,
          "internalType": "bytes32",
          "name": "role",
          "type": "bytes32"
        },
        {
          "indexed": true,
          "internalType": "address",
          "name": "account",
          "type": "address"
        },
        {
          "indexed": true,
          "internalType": "address",
          "name": "sender",
          "type": "address"
        }
      ],
      "name": "RoleRevoked",
      "type": "event"
    },
    {
      "anonymous": false,
      "inputs": [
        {
          "indexed": false,
          "internalType": "address",
          "name": "feed",
          "type": "address"
        },
        {
          "indexed": true,
          "internalType": "address",
          "name": "token",
          "type": "address"
        },
        {
          "indexed": false,
          "internalType": "uint256",
          "name": "price",
          "type": "uint256"
        }
      ],
      "name": "UpdatePrice",
      "type": "event"
    },
    {
      "inputs": [],
      "name": "BASIS_POINTS_DIVISOR",
      "outputs": [
        {
          "internalType": "uint256",
          "name": "",
          "type": "uint256"
        }
      ],
      "stateMutability": "view",
      "type": "function"
    },
    {
      "inputs": [],
      "name": "BITMASK_32",
      "outputs": [
        {
          "internalType": "uint256",
          "name": "",
          "type": "uint256"
        }
      ],
      "stateMutability": "view",
      "type": "function"
    },
    {
      "inputs": [],
      "name": "CUMULATIVE_DELTA_PRECISION",
      "outputs": [
        {
          "internalType": "uint256",
          "name": "",
          "type": "uint256"
        }
      ],
      "stateMutability": "view",
      "type": "function"
    },
    {
      "inputs": [],
      "name": "DEFAULT_ADMIN_ROLE",
      "outputs": [
        {
          "internalType": "bytes32",
          "name": "",
          "type": "bytes32"
        }
      ],
      "stateMutability": "view",
      "type": "function"
    },
    {
      "inputs": [],
      "name": "MAX_CUMULATIVE_FAST_DELTA",
      "outputs": [
        {
          "internalType": "uint256",
          "name": "",
          "type": "uint256"
        }
      ],
      "stateMutability": "view",
      "type": "function"
    },
    {
      "inputs": [],
      "name": "MAX_CUMULATIVE_REF_DELTA",
      "outputs": [
        {
          "internalType": "uint256",
          "name": "",
          "type": "uint256"
        }
      ],
      "stateMutability": "view",
      "type": "function"
    },
    {
      "inputs": [],
      "name": "MAX_PRICE_DURATION",
      "outputs": [
        {
          "internalType": "uint256",
          "name": "",
          "type": "uint256"
        }
      ],
      "stateMutability": "view",
      "type": "function"
    },
    {
      "inputs": [],
      "name": "MAX_REF_PRICE",
      "outputs": [
        {
          "internalType": "uint256",
          "name": "",
          "type": "uint256"
        }
      ],
      "stateMutability": "view",
      "type": "function"
    },
    {
      "inputs": [],
      "name": "PRICE_PRECISION",
      "outputs": [
        {
          "internalType": "uint256",
          "name": "",
          "type": "uint256"
        }
      ],
      "stateMutability": "view",
      "type": "function"
    },
    {
      "inputs": [],
      "name": "chainPriceFeed",
      "outputs": [
        {
          "internalType": "address",
          "name": "",
          "type": "address"
        }
      ],
      "stateMutability": "view",
      "type": "function"
    },
    {
      "inputs": [
        {
          "internalType": "address",
          "name": "_token",
          "type": "address"
        }
      ],
      "name": "favorFastPrice",
      "outputs": [
        {
          "internalType": "bool",
          "name": "",
          "type": "bool"
        }
      ],
      "stateMutability": "view",
      "type": "function"
    },
    {
      "inputs": [
        {
          "internalType": "address",
          "name": "_token",
          "type": "address"
        },
        {
          "internalType": "uint256",
          "name": "_refPrice",
          "type": "uint256"
        },
        {
          "internalType": "bool",
          "name": "_maximise",
          "type": "bool"
        }
      ],
      "name": "getPrice",
      "outputs": [
        {
          "internalType": "uint256",
          "name": "",
          "type": "uint256"
        }
      ],
      "stateMutability": "view",
      "type": "function"
    },
    {
      "inputs": [
        {
          "internalType": "address",
          "name": "_token",
          "type": "address"
        }
      ],
      "name": "getPriceData",
      "outputs": [
        {
          "internalType": "uint256",
          "name": "",
          "type": "uint256"
        },
        {
          "internalType": "uint256",
          "name": "",
          "type": "uint256"
        },
        {
          "internalType": "uint256",
          "name": "",
          "type": "uint256"
        },
        {
          "internalType": "uint256",
          "name": "",
          "type": "uint256"
        }
      ],
      "stateMutability": "view",
      "type": "function"
    },
    {
      "inputs": [
        {
          "internalType": "bytes32",
          "name": "role",
          "type": "bytes32"
        }
      ],
      "name": "getRoleAdmin",
      "outputs": [
        {
          "internalType": "bytes32",
          "name": "",
          "type": "bytes32"
        }
      ],
      "stateMutability": "view",
      "type": "function"
    },
    {
      "inputs": [
        {
          "internalType": "address",
          "name": "_account",
          "type": "address"
        }
      ],
      "name": "grantControllerRoleByMarketManager",
      "outputs": [],
      "stateMutability": "nonpayable",
      "type": "function"
    },
    {
      "inputs": [
        {
          "internalType": "bytes32",
          "name": "role",
          "type": "bytes32"
        },
        {
          "internalType": "address",
          "name": "account",
          "type": "address"
        }
      ],
      "name": "grantRole",
      "outputs": [],
      "stateMutability": "nonpayable",
      "type": "function"
    },
    {
      "inputs": [
        {
          "internalType": "bytes32",
          "name": "role",
          "type": "bytes32"
        },
        {
          "internalType": "address",
          "name": "account",
          "type": "address"
        }
      ],
      "name": "hasRole",
      "outputs": [
        {
          "internalType": "bool",
          "name": "",
          "type": "bool"
        }
      ],
      "stateMutability": "view",
      "type": "function"
    },
    {
      "inputs": [
        {
          "internalType": "uint256",
          "name": "_priceDuration",
          "type": "uint256"
        },
        {
          "internalType": "uint256",
          "name": "_maxPriceUpdateDelay",
          "type": "uint256"
        },
        {
          "internalType": "uint256",
          "name": "_minBlockInterval",
          "type": "uint256"
        },
        {
          "internalType": "uint256",
          "name": "_maxDeviationBasisPoints",
          "type": "uint256"
        },
        {
          "internalType": "uint256",
          "name": "_maxTimeDeviation",
          "type": "uint256"
        },
        {
          "internalType": "uint256",
          "name": "_priceDataInterval",
          "type": "uint256"
        },
        {
          "internalType": "bool",
          "name": "_fastPriceIsSpreadEnabled",
          "type": "bool"
        },
        {
          "internalType": "address",
          "name": "_chainPriceFeed",
          "type": "address"
        }
      ],
      "name": "initialize",
      "outputs": [],
      "stateMutability": "nonpayable",
      "type": "function"
    },
    {
      "inputs": [],
      "name": "isSpreadEnablede",
      "outputs": [
        {
          "internalType": "bool",
          "name": "",
          "type": "bool"
        }
      ],
      "stateMutability": "view",
      "type": "function"
    },
    {
      "inputs": [],
      "name": "lastUpdatedAt",
      "outputs": [
        {
          "internalType": "uint256",
          "name": "",
          "type": "uint256"
        }
      ],
      "stateMutability": "view",
      "type": "function"
    },
    {
      "inputs": [
        {
          "internalType": "address",
          "name": "",
          "type": "address"
        }
      ],
      "name": "lastUpdatedAtBlock",
      "outputs": [
        {
          "internalType": "uint256",
          "name": "",
          "type": "uint256"
        }
      ],
      "stateMutability": "view",
      "type": "function"
    },
    {
      "inputs": [],
      "name": "lastUpdatedBlock",
      "outputs": [
        {
          "internalType": "uint256",
          "name": "",
          "type": "uint256"
        }
      ],
      "stateMutability": "view",
      "type": "function"
    },
    {
      "inputs": [
        {
          "internalType": "address",
          "name": "",
          "type": "address"
        }
      ],
      "name": "maxCumulativeDeltaDiffs",
      "outputs": [
        {
          "internalType": "uint256",
          "name": "",
          "type": "uint256"
        }
      ],
      "stateMutability": "view",
      "type": "function"
    },
    {
      "inputs": [],
      "name": "maxDeviationBasisPoints",
      "outputs": [
        {
          "internalType": "uint256",
          "name": "",
          "type": "uint256"
        }
      ],
      "stateMutability": "view",
      "type": "function"
    },
    {
      "inputs": [],
      "name": "maxPriceUpdateDelay",
      "outputs": [
        {
          "internalType": "uint256",
          "name": "",
          "type": "uint256"
        }
      ],
      "stateMutability": "view",
      "type": "function"
    },
    {
      "inputs": [],
      "name": "maxTimeDeviation",
      "outputs": [
        {
          "internalType": "uint256",
          "name": "",
          "type": "uint256"
        }
      ],
      "stateMutability": "view",
      "type": "function"
    },
    {
      "inputs": [],
      "name": "minBlockInterval",
      "outputs": [
        {
          "internalType": "uint256",
          "name": "",
          "type": "uint256"
        }
      ],
      "stateMutability": "view",
      "type": "function"
    },
    {
      "inputs": [],
      "name": "owner",
      "outputs": [
        {
          "internalType": "address",
          "name": "",
          "type": "address"
        }
      ],
      "stateMutability": "view",
      "type": "function"
    },
    {
      "inputs": [
        {
          "internalType": "address",
          "name": "",
          "type": "address"
        }
      ],
      "name": "priceData",
      "outputs": [
        {
          "internalType": "uint160",
          "name": "refPrice",
          "type": "uint160"
        },
        {
          "internalType": "uint32",
          "name": "refTime",
          "type": "uint32"
        },
        {
          "internalType": "uint32",
          "name": "cumulativeRefDelta",
          "type": "uint32"
        },
        {
          "internalType": "uint32",
          "name": "cumulativeFastDelta",
          "type": "uint32"
        }
      ],
      "stateMutability": "view",
      "type": "function"
    },
    {
      "inputs": [],
      "name": "priceDataInterval",
      "outputs": [
        {
          "internalType": "uint256",
          "name": "",
          "type": "uint256"
        }
      ],
      "stateMutability": "view",
      "type": "function"
    },
    {
      "inputs": [],
      "name": "priceDuration",
      "outputs": [
        {
          "internalType": "uint256",
          "name": "",
          "type": "uint256"
        }
      ],
      "stateMutability": "view",
      "type": "function"
    },
    {
      "inputs": [
        {
          "internalType": "address",
          "name": "",
          "type": "address"
        }
      ],
      "name": "prices",
      "outputs": [
        {
          "internalType": "uint256",
          "name": "",
          "type": "uint256"
        }
      ],
      "stateMutability": "view",
      "type": "function"
    },
    {
      "inputs": [],
      "name": "renounceOwnership",
      "outputs": [],
      "stateMutability": "nonpayable",
      "type": "function"
    },
    {
      "inputs": [
        {
          "internalType": "bytes32",
          "name": "role",
          "type": "bytes32"
        },
        {
          "internalType": "address",
          "name": "account",
          "type": "address"
        }
      ],
      "name": "renounceRole",
      "outputs": [],
      "stateMutability": "nonpayable",
      "type": "function"
    },
    {
      "inputs": [
        {
          "internalType": "bytes32",
          "name": "role",
          "type": "bytes32"
        },
        {
          "internalType": "address",
          "name": "account",
          "type": "address"
        }
      ],
      "name": "revokeRole",
      "outputs": [],
      "stateMutability": "nonpayable",
      "type": "function"
    },
    {
      "inputs": [
        {
          "internalType": "uint256[]",
          "name": "_priceBitArray",
          "type": "uint256[]"
        },
        {
          "internalType": "uint256",
          "name": "_timestamp",
          "type": "uint256"
        }
      ],
      "name": "setCompactedPrices",
      "outputs": [],
      "stateMutability": "nonpayable",
      "type": "function"
    },
    {
      "inputs": [
        {
          "internalType": "bool",
          "name": "_enabled",
          "type": "bool"
        }
      ],
      "name": "setIsSpreadEnabled",
      "outputs": [],
      "stateMutability": "nonpayable",
      "type": "function"
    },
    {
      "inputs": [
        {
          "internalType": "uint256",
          "name": "_lastUpdatedAt",
          "type": "uint256"
        }
      ],
      "name": "setLastUpdatedAt",
      "outputs": [],
      "stateMutability": "nonpayable",
      "type": "function"
    },
    {
      "inputs": [
        {
          "internalType": "address[]",
          "name": "_tokens",
          "type": "address[]"
        },
        {
          "internalType": "uint256[]",
          "name": "_maxCumulativeDeltaDiffs",
          "type": "uint256[]"
        }
      ],
      "name": "setMaxCumulativeDeltaDiffs",
      "outputs": [],
      "stateMutability": "nonpayable",
      "type": "function"
    },
    {
      "inputs": [
        {
          "internalType": "uint256",
          "name": "_maxDeviationBasisPoints",
          "type": "uint256"
        }
      ],
      "name": "setMaxDeviationBasisPoints",
      "outputs": [],
      "stateMutability": "nonpayable",
      "type": "function"
    },
    {
      "inputs": [
        {
          "internalType": "uint256",
          "name": "_delay",
          "type": "uint256"
        }
      ],
      "name": "setMaxPriceUpdateDelay",
      "outputs": [],
      "stateMutability": "nonpayable",
      "type": "function"
    },
    {
      "inputs": [
        {
          "internalType": "uint256",
          "name": "_deviation",
          "type": "uint256"
        }
      ],
      "name": "setMaxTimeDeviation",
      "outputs": [],
      "stateMutability": "nonpayable",
      "type": "function"
    },
    {
      "inputs": [
        {
          "internalType": "uint256",
          "name": "_interval",
          "type": "uint256"
        }
      ],
      "name": "setMinBlockInterval",
      "outputs": [],
      "stateMutability": "nonpayable",
      "type": "function"
    },
    {
      "inputs": [
        {
          "internalType": "uint256",
          "name": "_priceDataInterval",
          "type": "uint256"
        }
      ],
      "name": "setPriceDataInterval",
      "outputs": [],
      "stateMutability": "nonpayable",
      "type": "function"
    },
    {
      "inputs": [
        {
          "internalType": "uint256",
          "name": "_duration",
          "type": "uint256"
        }
      ],
      "name": "setPriceDuration",
      "outputs": [],
      "stateMutability": "nonpayable",
      "type": "function"
    },
    {
      "inputs": [
        {
          "internalType": "address",
          "name": "_feed",
          "type": "address"
        }
      ],
      "name": "setPriceFeed",
      "outputs": [],
      "stateMutability": "nonpayable",
      "type": "function"
    },
    {
      "inputs": [
        {
          "internalType": "address[]",
          "name": "_tokens",
          "type": "address[]"
        },
        {
          "internalType": "uint256[]",
          "name": "_prices",
          "type": "uint256[]"
        },
        {
          "internalType": "uint256",
          "name": "_timestamp",
          "type": "uint256"
        }
      ],
      "name": "setPrices",
      "outputs": [],
      "stateMutability": "nonpayable",
      "type": "function"
    },
    {
      "inputs": [
        {
          "internalType": "address",
          "name": "token",
          "type": "address"
        },
        {
          "internalType": "uint256",
          "name": "price",
          "type": "uint256"
        },
        {
          "internalType": "uint256",
          "name": "timestamp",
          "type": "uint256"
        },
        {
          "components": [
            {
              "internalType": "address",
              "name": "market",
              "type": "address"
            },
            {
              "internalType": "address",
              "name": "account",
              "type": "address"
            },
            {
              "internalType": "uint64",
              "name": "orderID",
              "type": "uint64"
            },
            {
              "internalType": "bool",
              "name": "isIncrease",
              "type": "bool"
            },
            {
              "internalType": "bool",
              "name": "isLong",
              "type": "bool"
            }
          ],
          "internalType": "struct IMarket.OrderExec[]",
          "name": "orders",
          "type": "tuple[]"
        }
      ],
      "name": "setPricesAndExecute",
      "outputs": [],
      "stateMutability": "nonpayable",
      "type": "function"
    },
    {
      "inputs": [
        {
          "internalType": "uint256",
          "name": "_priceBits",
          "type": "uint256"
        },
        {
          "internalType": "uint256",
          "name": "_timestamp",
          "type": "uint256"
        }
      ],
      "name": "setPricesWithBits",
      "outputs": [],
      "stateMutability": "nonpayable",
      "type": "function"
    },
    {
      "inputs": [
        {
          "internalType": "uint256",
          "name": "_point",
          "type": "uint256"
        }
      ],
      "name": "setSpreadBasisPointsIfChainError",
      "outputs": [],
      "stateMutability": "nonpayable",
      "type": "function"
    },
    {
      "inputs": [
        {
          "internalType": "uint256",
          "name": "_point",
          "type": "uint256"
        }
      ],
      "name": "setSpreadBasisPointsIfInactive",
      "outputs": [],
      "stateMutability": "nonpayable",
      "type": "function"
    },
    {
      "inputs": [
        {
          "internalType": "address[]",
          "name": "_tokens",
          "type": "address[]"
        },
        {
          "internalType": "uint256[]",
          "name": "_tokenPrecisions",
          "type": "uint256[]"
        }
      ],
      "name": "setTokens",
      "outputs": [],
      "stateMutability": "nonpayable",
      "type": "function"
    },
    {
      "inputs": [],
      "name": "spreadBasisPointsIfChainError",
      "outputs": [
        {
          "internalType": "uint256",
          "name": "",
          "type": "uint256"
        }
      ],
      "stateMutability": "view",
      "type": "function"
    },
    {
      "inputs": [],
      "name": "spreadBasisPointsIfInactive",
      "outputs": [
        {
          "internalType": "uint256",
          "name": "",
          "type": "uint256"
        }
      ],
      "stateMutability": "view",
      "type": "function"
    },
    {
      "inputs": [
        {
          "internalType": "bytes4",
          "name": "interfaceId",
          "type": "bytes4"
        }
      ],
      "name": "supportsInterface",
      "outputs": [
        {
          "internalType": "bool",
          "name": "",
          "type": "bool"
        }
      ],
      "stateMutability": "view",
      "type": "function"
    },
    {
      "inputs": [
        {
          "internalType": "uint256",
          "name": "",
          "type": "uint256"
        }
      ],
      "name": "tokenPrecisions",
      "outputs": [
        {
          "internalType": "uint256",
          "name": "",
          "type": "uint256"
        }
      ],
      "stateMutability": "view",
      "type": "function"
    },
    {
      "inputs": [
        {
          "internalType": "uint256",
          "name": "",
          "type": "uint256"
        }
      ],
      "name": "tokens",
      "outputs": [
        {
          "internalType": "address",
          "name": "",
          "type": "address"
        }
      ],
      "stateMutability": "view",
      "type": "function"
    },
    {
      "inputs": [
        {
          "internalType": "address",
          "name": "to",
          "type": "address"
        }
      ],
      "name": "transferAdmin",
      "outputs": [],
      "stateMutability": "nonpayable",
      "type": "function"
    },
    {
      "inputs": [
        {
          "internalType": "address",
          "name": "newOwner",
          "type": "address"
        }
      ],
      "name": "transferOwnership",
      "outputs": [],
      "stateMutability": "nonpayable",
      "type": "function"
    },
    {
      "inputs": [
        {
          "internalType": "uint256",
          "name": "",
          "type": "uint256"
        }
      ],
      "name": "updatedAt",
      "outputs": [
        {
          "internalType": "uint256",
          "name": "",
          "type": "uint256"
        }
      ],
      "stateMutability": "view",
      "type": "function"
    }
  ],
  "bytecode": "0x60806040523480156200001157600080fd5b506200001d3362000023565b62000075565b600180546001600160a01b038381166001600160a01b0319831681179093556040519116919082907f8be0079c531659141344cd1fd0a4f28419497f9722a3daafe3b4186f6b6457e090600090a35050565b6134c080620000856000396000f3fe608060405234801561001057600080fd5b50600436106103a45760003560e01c80637fece368116101e9578063c818faec1161010f578063de0d1b94116100ad578063f2fde38b1161007c578063f2fde38b14610819578063f90ce5ba1461082c578063f931ac3014610835578063fcb512521461084257600080fd5b8063de0d1b94146107e6578063dfb481c9146107f9578063e64559ad14610802578063e68a22c01461080b57600080fd5b8063ce98dfa8116100e9578063ce98dfa81461078d578063cfed246b146107a0578063d547741f146107c0578063d6a153f1146107d357600080fd5b8063c818faec146106e4578063c8390a48146106f7578063cab44b761461070a57600080fd5b80639875f76011610187578063a6eca89611610156578063a6eca896146106a7578063add37b7b146106b0578063b3606b56146106c8578063b70c7b70146106d157600080fd5b80639875f76014610655578063a217fddf14610675578063a2b47c161461067d578063a37424251461068757600080fd5b80638b7677f4116101c35780638b7677f41461060a5780638da5cb5b1461061d57806391d148541461062e57806395082d251461064157600080fd5b80637fece368146105e4578063807c9782146103fd57806382553aad146105f757600080fd5b80634c0e31c8116102ce578063715c75361161026c57806375829def1161023b57806375829def14610598578063776d16c1146105ab578063782661bc146105be5780637fe4a698146105d157600080fd5b8063715c75361461054057806372279ba114610549578063724e78da1461057c57806374bfed891461058f57600080fd5b806354aea127116102a857806354aea12714610513578063668d3d651461051c5780636c56fd0514610525578063715018a61461053857600080fd5b80634c0e31c8146104c25780634d11fb4a146104d55780634f64b2be146104e857600080fd5b806317835d1c1161034657806336568abe1161031557806336568abe146104935780633aa08f86146104a657806344c23193146104af5780634bd66c1c146103fd57600080fd5b806317835d1c14610437578063248a9ca31461044a5780632e9cd94b1461046d5780632f2ff15d1461048057600080fd5b80630604ddea116103825780630604ddea146103fd578063126082cf1461040857806314dd2dce146104115780631512656d1461042457600080fd5b806301ffc9a7146103a957806303cd2571146103d157806303f4d7dc146103e8575b600080fd5b6103bc6103b7366004612914565b610855565b60405190151581526020015b60405180910390f35b6103da60065481565b6040519081526020016103c8565b6103fb6103f6366004612a5d565b61088c565b005b6103da63ffffffff81565b6103da61271081565b6103fb61041f366004612aa1565b610a28565b6103fb610432366004612ae4565b610a99565b6103fb610445366004612b55565b610c94565b6103da610458366004612aa1565b60009081526020819052604090206001015490565b6103fb61047b366004612aa1565b610cbf565b6103fb61048e366004612b77565b610d27565b6103fb6104a1366004612b77565b610d4c565b6103da600b5481565b6103fb6104bd366004612aa1565b610dc6565b6103fb6104d0366004612c0b565b610e8c565b6103da6104e3366004612aa1565b610f61565b6104fb6104f6366004612aa1565b610f82565b6040516001600160a01b0390911681526020016103c8565b6103da60045481565b6103da61070881565b6103bc610533366004612c6e565b610fac565b6103fb61101c565b6103da600d5481565b61055c610557366004612c6e565b611030565b6040805194855260208501939093529183015260608201526080016103c8565b6103fb61058a366004612c6e565b61109a565b6103da60085481565b6103fb6105a6366004612c6e565b611125565b6103fb6105b9366004612aa1565b61114f565b6103fb6105cc366004612c8b565b6111b7565b6103fb6105df366004612c6e565b611266565b6103da6105f2366004612cf7565b611290565b6103fb610605366004612aa1565b6113f3565b6103fb610618366004612aa1565b61145b565b6001546001600160a01b03166104fb565b6103bc61063c366004612b77565b6114c3565b6103da6c0c9f2c9cd04674edea4000000081565b6103da610663366004612c6e565b60146020526000908152604090205481565b6103da600081565b6103da6298968081565b6103da610695366004612c6e565b60106020526000908152604090205481565b6103da60095481565b6003546104fb9061010090046001600160a01b031681565b6103da600a5481565b6103fb6106df366004612aa1565b6114ec565b6103da6106f2366004612aa1565b611554565b6103fb610705366004612c0b565b611564565b610757610718366004612c6e565b600f602052600090815260409020546001600160a01b0381169063ffffffff600160a01b8204811691600160c01b8104821691600160e01b9091041684565b604080516001600160a01b03909516855263ffffffff9384166020860152918316918401919091521660608201526080016103c8565b6103fb61079b366004612d35565b61163d565b6103da6107ae366004612c6e565b600e6020526000908152604090205481565b6103fb6107ce366004612b77565b6116b3565b6103fb6107e1366004612aa1565b6116d8565b6103fb6107f4366004612aa1565b611740565b6103da600c5481565b6103da60075481565b6103da6001600160a01b0381565b6103fb610827366004612c6e565b6117a8565b6103da60055481565b6003546103bc9060ff1681565b6103fb610850366004612d65565b611821565b60006001600160e01b03198216637965db0b60e01b148061088657506301ffc9a760e01b6001600160e01b03198316145b92915050565b6108a460008051602061344b833981519152336114c3565b6108ad57600080fd5b60006108b882611bea565b90508015610a225760035461010090046001600160a01b031660005b8451811015610a1f5760008582815181106108f1576108f1612e85565b6020026020010151905060005b6008811015610a0a57600081610915856008612eb1565b61091f9190612ec8565b6011549091508110610935575050505050505050565b6000610942836020612eb1565b905083811c63ffffffff16600060118561095d896008612eb1565b6109679190612ec8565b8154811061097757610977612e85565b60009182526020822001546001600160a01b0316915060128661099b8a6008612eb1565b6109a59190612ec8565b815481106109b5576109b5612e85565b60009182526020822001549150816109da6c0c9f2c9cd04674edea4000000086612eb1565b6109e49190612edb565b90506109f183828c611d6c565b5050505050508080610a0290612efd565b9150506108fe565b50508080610a1790612efd565b9150506108d4565b50505b505b5050565b60008051602061346b8339815191526000610a4381336114c3565b90508015610a88576201518060025442610a5d9190612f16565b10610a835760405162461bcd60e51b8152600401610a7a90612f29565b60405180910390fd5b610a92565b610a92823361203a565b5050600455565b600154600160a81b900460ff1615808015610abf575060018054600160a01b900460ff16105b80610adf5750303b158015610adf575060018054600160a01b900460ff16145b610b425760405162461bcd60e51b815260206004820152602e60248201527f496e697469616c697a61626c653a20636f6e747261637420697320616c72656160448201526d191e481a5b9a5d1a585b1a5e995960921b6064820152608401610a7a565b6001805460ff60a01b1916600160a01b1790558015610b6f576001805460ff60a81b1916600160a81b1790555b610b7833612093565b610708891115610bd85760405162461bcd60e51b815260206004820152602560248201527f466173745072696365466565643a20696e76616c6964205f707269636544757260448201526430ba34b7b760d91b6064820152608401610a7a565b60068990556007889055600a879055600d869055600b859055600c8490556003805460ff19168415151790556001600160a01b038216610c1757600080fd5b60038054610100600160a81b0319166101006001600160a01b03851602179055610c426000336120b6565b8015610c89576001805460ff60a81b191681556040519081527f7f26b83ff96e1f2b6a682f133852f6798a09c465da95921460cefb38474024989060200160405180910390a15b505050505050505050565b610cac60008051602061344b833981519152336114c3565b610cb557600080fd5b610a24828261213a565b60008051602061346b8339815191526000610cda81336114c3565b90508015610d16576201518060025442610cf49190612f16565b10610d115760405162461bcd60e51b8152600401610a7a90612f29565b610d20565b610d20823361203a565b5050600c55565b600082815260208190526040902060010154610d4281612231565b610a2283836120b6565b6001600160a01b0381163314610dbc5760405162461bcd60e51b815260206004820152602f60248201527f416363657373436f6e74726f6c3a2063616e206f6e6c792072656e6f756e636560448201526e103937b632b9903337b91039b2b63360891b6064820152608401610a7a565b610a24828261223b565b60008051602061346b8339815191526000610de181336114c3565b90508015610e1d576201518060025442610dfb9190612f16565b10610e185760405162461bcd60e51b8152600401610a7a90612f29565b610e27565b610e27823361203a565b610708831115610e855760405162461bcd60e51b8152602060048201526024808201527f466173745072696365466565643a20696e76616c6964207072696365447572616044820152633a34b7b760e11b6064820152608401610a7a565b5050600655565b60008051602061346b8339815191526000610ea781336114c3565b90508015610ee3576201518060025442610ec19190612f16565b10610ede5760405162461bcd60e51b8152600401610a7a90612f29565b610eed565b610eed823361203a565b60005b8451811015610a1f576000858281518110610f0d57610f0d612e85565b60200260200101519050848281518110610f2957610f29612e85565b6020908102919091018101516001600160a01b0390921660009081526010909152604090205580610f5981612efd565b915050610ef0565b60128181548110610f7157600080fd5b600091825260209091200154905081565b60118181548110610f9257600080fd5b6000918252602090912001546001600160a01b0316905081565b60035460009060ff1615610fc257506000919050565b600080610fce84611030565b935093505050818111801561100357506001600160a01b0384166000908152601060205260409020546110018383612f16565b115b15611012575060009392505050565b5060019392505050565b6110246122a0565b61102e60006122fa565b565b6001600160a01b039081166000908152600f60209081526040918290208251608081018452905493841680825263ffffffff600160a01b86048116938301849052600160c01b86048116948301859052600160e01b90950490941660609091018190529293909290565b60008051602061346b83398151915260006110b581336114c3565b905080156110f15762015180600254426110cf9190612f16565b106110ec5760405162461bcd60e51b8152600401610a7a90612f29565b6110fb565b6110fb823361203a565b5050600380546001600160a01b0390921661010002610100600160a81b0319909216919091179055565b600061113081612231565b61113b60008361234c565b611144826122fa565b610a2460003361223b565b60008051602061346b833981519152600061116a81336114c3565b905080156111a65762015180600254426111849190612f16565b106111a15760405162461bcd60e51b8152600401610a7a90612f29565b6111b0565b6111b0823361203a565b5050600b55565b6111cf60008051602061344b833981519152336114c3565b6111d857600080fd5b60006111e382611bea565b905080156112605760035461010090046001600160a01b031660005b855181101561125d57600086828151811061121c5761121c612e85565b6020026020010151905061124a8187848151811061123c5761123c612e85565b602002602001015185611d6c565b508061125581612efd565b9150506111ff565b50505b50505050565b7f8d1089725c0dc266707fa6207730fb801dcd03108bfed7a21099bd303651d2b76103a481612231565b60006007546004546112a29190612ec8565b4211156112f05781156112dd576127106009546127106112c29190612ec8565b6112cc9085612eb1565b6112d69190612edb565b90506113ec565b6127106009546127106112c29190612f16565b6006546004546113009190612ec8565b421115611333578115611320576127106008546127106112c29190612ec8565b6127106008546127106112c29190612f16565b6001600160a01b0384166000908152600e60205260408120549081900361135d57839150506113ec565b6000818511611375576113708583612f16565b61137f565b61137f8286612f16565b90508461138e61271083612eb1565b6113989190612edb565b905060006113a587610fac565b15806113b25750600d5482115b905080156113e65784156113d9578286116113cd57826113cf565b855b93505050506113ec565b8286106113cd57826113cf565b50909150505b9392505050565b60008051602061346b833981519152600061140e81336114c3565b9050801561144a5762015180600254426114289190612f16565b106114455760405162461bcd60e51b8152600401610a7a90612f29565b611454565b611454823361203a565b5050600d55565b60008051602061346b833981519152600061147681336114c3565b905080156114b25762015180600254426114909190612f16565b106114ad5760405162461bcd60e51b8152600401610a7a90612f29565b6114bc565b6114bc823361203a565b5050600755565b6000918252602082815260408084206001600160a01b0393909316845291905290205460ff1690565b60008051602061346b833981519152600061150781336114c3565b905080156115435762015180600254426115219190612f16565b1061153e5760405162461bcd60e51b8152600401610a7a90612f29565b61154d565b61154d823361203a565b5050600855565b60138181548110610f7157600080fd5b60008051602061346b833981519152600061157f81336114c3565b905080156115bb5762015180600254426115999190612f16565b106115b65760405162461bcd60e51b8152600401610a7a90612f29565b6115c5565b6115c5823361203a565b82518451146116165760405162461bcd60e51b815260206004820152601e60248201527f466173745072696365466565643a20696e76616c6964206c656e6774687300006044820152606401610a7a565b835161162990601190602087019061285f565b508251610a1f9060129060208601906128c4565b60008051602061346b833981519152600061165881336114c3565b905080156116945762015180600254426116729190612f16565b1061168f5760405162461bcd60e51b8152600401610a7a90612f29565b61169e565b61169e823361203a565b50506003805460ff1916911515919091179055565b6000828152602081905260409020600101546116ce81612231565b610a22838361223b565b60008051602061346b83398151915260006116f381336114c3565b9050801561172f57620151806002544261170d9190612f16565b1061172a5760405162461bcd60e51b8152600401610a7a90612f29565b611739565b611739823361203a565b5050600a55565b60008051602061346b833981519152600061175b81336114c3565b905080156117975762015180600254426117759190612f16565b106117925760405162461bcd60e51b8152600401610a7a90612f29565b6117a1565b6117a1823361203a565b5050600955565b6117b06122a0565b6001600160a01b0381166118155760405162461bcd60e51b815260206004820152602660248201527f4f776e61626c653a206e6577206f776e657220697320746865207a65726f206160448201526564647265737360d01b6064820152608401610a7a565b61181e816122fa565b50565b61183960008051602061344b833981519152336114c3565b61184257600080fd5b61184b82611bea565b5061186c8484600360019054906101000a90046001600160a01b0316611d6c565b60005b8151811015610a1f57600082828151811061188c5761188c612e85565b60200260200101516000015190506000816001600160a01b031663a26404548585815181106118bd576118bd612e85565b6020026020010151608001518686815181106118db576118db612e85565b6020026020010151606001516040518363ffffffff1660e01b815260040161191192919091151582521515602082015260400190565b602060405180830381865afa15801561192e573d6000803e3d6000fd5b505050506040513d601f19601f820116820180604052508101906119529190612f51565b905060006119e185858151811061196b5761196b612e85565b60200260200101516020015186868151811061198957611989612e85565b602090810291909101810151604090810151815160609490941b6bffffffffffffffffffffffff19168484015260c01b6001600160c01b03191660348401528051601c818503018152603c9093019052815191012090565b6040516309c3f1e960e41b8152600481018290529091506000906001600160a01b03841690639c3f1e90906024016101a060405180830381865afa158015611a2d573d6000803e3d6000fd5b505050506040513d601f19601f82011682018060405250810190611a519190612fd6565b604080516101e08101825260008082526020820181905291810182905260608082018390526080820183905260a0820183905260c0820183905260e08201839052610100820183905261012082018390526101408201839052610160820183905261018082018390526101a08201929092526101c0810191909152909150611aff878781518110611ae457611ae4612e85565b6020026020010151606001518261235690919063ffffffff16565b611b7282888881518110611b1557611b15612e85565b602002602001015160000151898981518110611b3357611b33612e85565b6020026020010151608001518a8a81518110611b5157611b51612e85565b6020026020010151606001516001866123839095949392919063ffffffff16565b6040516304b789db60e21b81526001600160a01b038616906312de276c90611ba0908590859060040161320b565b600060405180830381600087803b158015611bba57600080fd5b505af1158015611bce573d6000803e3d6000fd5b5050505050505050508080611be290612efd565b91505061186f565b600a5460009015611c6a57600a54600554611c059043612f16565b1015611c6a5760405162461bcd60e51b815260206004820152602e60248201527f466173745072696365466565643a206d696e426c6f636b496e74657276616c2060448201526d1b9bdd081e595d081c185cdcd95960921b6064820152608401610a7a565b600b54611c778142612f16565b8311611cdb5760405162461bcd60e51b815260206004820152602d60248201527f466173745072696365466565643a205f74696d657374616d702062656c6f772060448201526c616c6c6f7765642072616e676560981b6064820152608401610a7a565b611ce58142612ec8565b8310611d4b5760405162461bcd60e51b815260206004820152602f60248201527f466173745072696365466565643a205f74696d657374616d702065786365656460448201526e7320616c6c6f7765642072616e676560881b6064820152608401610a7a565b600454831015611d5e5750600092915050565b505060045543600555600190565b6001600160a01b03811615611fd6576040516302c68be360e31b81526001600160a01b038481166004830152600091908316906316345f1890602401602060405180830381865afa158015611dc5573d6000803e3d6000fd5b505050506040513d601f19601f82011682018060405250810190611de9919061334e565b6001600160a01b0385166000908152600e6020526040812054919250808080611e1189611030565b93509350935093506000841115611ede576000848711611e3a57611e358786612f16565b611e44565b611e448588612f16565b90506000898711611e5e57611e59878b612f16565b611e68565b611e688a88612f16565b9050600c5442611e789190612edb565b600c54611e859087612edb565b14611e935760009350600092505b85611ea16298968084612eb1565b611eab9190612edb565b611eb59085612ec8565b935086611ec56298968083612eb1565b611ecf9190612edb565b611ed99084612ec8565b925050505b8181118015611f0d57506001600160a01b038916600090815260106020526040902054611f0b8383612f16565b115b15611f6b57604080516001600160a01b038b1681526020810188905290810186905260608101839052608081018290527fe582322b389ad06b2bbf619cd6da3f16a288ec873ea0fa6df4d72f3d9480b4479060a00160405180910390a15b611f778987848461246f565b604080516001600160a01b038b1681526020810188905290810186905260608101839052608081018290527f23b9387f81fca646aac1dc4487ede045c65f5f7445482906565f01e05afdb3a89060a00160405180910390a15050505050505b6001600160a01b0383166000818152601460209081526040808320429055600e82529182902085905581513381529081018590527f769c880b4ecaf9ff271685d367fa4e4d091bab5879cf19c9ab777391e44f1c0f910160405180910390a2505050565b61204482826114c3565b610a245761205181612631565b61205c836020612643565b60405160200161206d92919061338b565b60408051601f198184030181529082905262461bcd60e51b8252610a7a91600401613400565b426002556120a0336122fa565b6120ab60003361234c565b61181e60008261234c565b6120c082826114c3565b610a24576000828152602081815260408083206001600160a01b03851684529091529020805460ff191660011790556120f63390565b6001600160a01b0316816001600160a01b0316837f2f8788117e7eff1d82e926ec794901d17c78024a50270940304540a733656f0d60405160405180910390a45050565b600061214582611bea565b90508015610a225760035461010090046001600160a01b031660005b6008811015610a1f576011548190811061217d57505050505050565b600061218a836020612eb1565b6011805491925088831c63ffffffff169160009190869081106121af576121af612e85565b6000918252602082200154601280546001600160a01b03909216935090879081106121dc576121dc612e85565b60009182526020822001549150816122016c0c9f2c9cd04674edea4000000086612eb1565b61220b9190612edb565b905061221883828a611d6c565b505050505050808061222990612efd565b915050612161565b61181e813361203a565b61224582826114c3565b15610a24576000828152602081815260408083206001600160a01b0385168085529252808320805460ff1916905551339285917ff6391f5c32d9c69d2a47ea670b442974b53935d1edc7fd64eb21e047a839171b9190a45050565b6001546001600160a01b0316331461102e5760405162461bcd60e51b815260206004820181905260248201527f4f776e61626c653a2063616c6c6572206973206e6f7420746865206f776e65726044820152606401610a7a565b600180546001600160a01b038381166001600160a01b0319831681179093556040519116919082907f8be0079c531659141344cd1fd0a4f28419497f9722a3daafe3b4186f6b6457e090600090a35050565b610a2482826120b6565b60408051600280825260608201835290916020830190803683375050506101c08301521515606090910152565b6001600160a01b038085168752831515602088015260c0808701516001600160801b0390811660a0808b019190915260e08901518216928a0192909252610180808901516101608b01528415156101008b01526101208901516001600160401b03166101408b0152606089015190931660808a0152908701511690870152811561244857612425866124208761010001516001600160801b031690565b6127de565b6124438661243e8761016001516001600160801b031690565b612807565b61125d565b61246686612461876080015165ffffffffffff16151590565b612820565b50505050505050565b6001600160a01b0383106124c55760405162461bcd60e51b815260206004820152601f60248201527f466173745072696365466565643a20696e76616c6964207265665072696365006044820152606401610a7a565b63ffffffff821061252a5760405162461bcd60e51b815260206004820152602960248201527f466173745072696365466565643a20696e76616c69642063756d756c617469766044820152686552656644656c746160b81b6064820152608401610a7a565b63ffffffff81106125905760405162461bcd60e51b815260206004820152602a60248201527f466173745072696365466565643a20696e76616c69642063756d756c61746976604482015269654661737444656c746160b01b6064820152608401610a7a565b604080516080810182526001600160a01b03948516815263ffffffff4281166020808401918252958216838501908152948216606084019081529787166000908152600f90965292909420905181549251935196518516600160e01b026001600160e01b03978616600160c01b02979097166001600160c01b0394909516600160a01b026001600160c01b0319909316951694909417171617919091179055565b60606108866001600160a01b03831660145b60606000612652836002612eb1565b61265d906002612ec8565b6001600160401b038111156126745761267461293e565b6040519080825280601f01601f19166020018201604052801561269e576020820181803683370190505b509050600360fc1b816000815181106126b9576126b9612e85565b60200101906001600160f81b031916908160001a905350600f60fb1b816001815181106126e8576126e8612e85565b60200101906001600160f81b031916908160001a905350600061270c846002612eb1565b612717906001612ec8565b90505b600181111561278f576f181899199a1a9b1b9c1cb0b131b232b360811b85600f166010811061274b5761274b612e85565b1a60f81b82828151811061276157612761612e85565b60200101906001600160f81b031916908160001a90535060049490941c9361278881613433565b905061271a565b5083156113ec5760405162461bcd60e51b815260206004820181905260248201527f537472696e67733a20686578206c656e67746820696e73756666696369656e746044820152606401610a7a565b80826101c001516000815181106127f7576127f7612e85565b6020026020010181815250505050565b80826101c001516001815181106127f7576127f7612e85565b60008161282e576000612831565b60015b60ff16836101c0015160008151811061284c5761284c612e85565b6020026020010181815250905092915050565b8280548282559060005260206000209081019282156128b4579160200282015b828111156128b457825182546001600160a01b0319166001600160a01b0390911617825560209092019160019091019061287f565b506128c09291506128ff565b5090565b8280548282559060005260206000209081019282156128b4579160200282015b828111156128b45782518255916020019190600101906128e4565b5b808211156128c05760008155600101612900565b60006020828403121561292657600080fd5b81356001600160e01b0319811681146113ec57600080fd5b634e487b7160e01b600052604160045260246000fd5b60405160a081016001600160401b03811182821017156129765761297661293e565b60405290565b6040516101a081016001600160401b03811182821017156129765761297661293e565b604051601f8201601f191681016001600160401b03811182821017156129c7576129c761293e565b604052919050565b60006001600160401b038211156129e8576129e861293e565b5060051b60200190565b600082601f830112612a0357600080fd5b81356020612a18612a13836129cf565b61299f565b82815260059290921b84018101918181019086841115612a3757600080fd5b8286015b84811015612a525780358352918301918301612a3b565b509695505050505050565b60008060408385031215612a7057600080fd5b82356001600160401b03811115612a8657600080fd5b612a92858286016129f2565b95602094909401359450505050565b600060208284031215612ab357600080fd5b5035919050565b80358015158114612aca57600080fd5b919050565b6001600160a01b038116811461181e57600080fd5b600080600080600080600080610100898b031215612b0157600080fd5b883597506020890135965060408901359550606089013594506080890135935060a08901359250612b3460c08a01612aba565b915060e0890135612b4481612acf565b809150509295985092959890939650565b60008060408385031215612b6857600080fd5b50508035926020909101359150565b60008060408385031215612b8a57600080fd5b823591506020830135612b9c81612acf565b809150509250929050565b600082601f830112612bb857600080fd5b81356020612bc8612a13836129cf565b82815260059290921b84018101918181019086841115612be757600080fd5b8286015b84811015612a52578035612bfe81612acf565b8352918301918301612beb565b60008060408385031215612c1e57600080fd5b82356001600160401b0380821115612c3557600080fd5b612c4186838701612ba7565b93506020850135915080821115612c5757600080fd5b50612c64858286016129f2565b9150509250929050565b600060208284031215612c8057600080fd5b81356113ec81612acf565b600080600060608486031215612ca057600080fd5b83356001600160401b0380821115612cb757600080fd5b612cc387838801612ba7565b94506020860135915080821115612cd957600080fd5b50612ce6868287016129f2565b925050604084013590509250925092565b600080600060608486031215612d0c57600080fd5b8335612d1781612acf565b925060208401359150612d2c60408501612aba565b90509250925092565b600060208284031215612d4757600080fd5b6113ec82612aba565b6001600160401b038116811461181e57600080fd5b60008060008060808587031215612d7b57600080fd5b8435612d8681612acf565b9350602085810135935060408087013593506060808801356001600160401b03811115612db257600080fd5b8801601f81018a13612dc357600080fd5b8035612dd1612a13826129cf565b81815260a0918202830186019186820191908d841115612df057600080fd5b938701935b83851015612e735780858f031215612e0d5760008081fd5b612e15612954565b8535612e2081612acf565b815285890135612e2f81612acf565b818a015285880135612e4081612d50565b81890152612e4f868801612aba565b87820152612e5f60808701612aba565b608082015283529384019391870191612df5565b50999c989b5096995050505050505050565b634e487b7160e01b600052603260045260246000fd5b634e487b7160e01b600052601160045260246000fd5b808202811582820484141761088657610886612e9b565b8082018082111561088657610886612e9b565b600082612ef857634e487b7160e01b600052601260045260246000fd5b500490565b600060018201612f0f57612f0f612e9b565b5060010190565b8181038181111561088657610886612e9b565b6020808252600e908201526d1858c81d1a5b59481c185cdcd95960921b604082015260600190565b600060208284031215612f6357600080fd5b81516113ec81612acf565b805160ff81168114612aca57600080fd5b805163ffffffff81168114612aca57600080fd5b8051612aca81612acf565b805165ffffffffffff81168114612aca57600080fd5b80516001600160801b0381168114612aca57600080fd5b8051612aca81612d50565b60006101a08284031215612fe957600080fd5b612ff161297c565b612ffa83612f6e565b815261300860208401612f7f565b602082015261301960408401612f6e565b604082015261302a60608401612f93565b606082015261303b60808401612f9e565b608082015261304c60a08401612fb4565b60a082015261305d60c08401612fb4565b60c082015261306e60e08401612fb4565b60e0820152610100613081818501612fb4565b90820152610120613093848201612fcb565b908201526101406130a5848201612fcb565b908201526101606130b7848201612fb4565b90820152610180928301519281019290925250919050565b600081518084526020808501945080840160005b838110156130ff578151875295820195908201906001016130e3565b509495945050505050565b80516001600160a01b0316825260006101e0602083015161312f602086018215159052565b5060408301516040850152606083015161314d606086018215159052565b50608083015161316860808601826001600160a01b03169052565b5060a083015160a085015260c083015160c085015260e083015160e08501526101008084015161319b8287018215159052565b50506101208381015160ff90811691860191909152610140808501516001600160401b031690860152610160808501519086015261018080850151908601526101a080850151909116908501526101c080840151818601839052613201838701826130cf565b9695505050505050565b825160ff16815260006101c0602085015161322e602085018263ffffffff169052565b506040850151613243604085018260ff169052565b50606085015161325e60608501826001600160a01b03169052565b506080850151613278608085018265ffffffffffff169052565b5060a085015161329360a08501826001600160801b03169052565b5060c08501516132ae60c08501826001600160801b03169052565b5060e08501516132c960e08501826001600160801b03169052565b50610100858101516001600160801b038116858301525050610120858101516001600160401b038116858301525050610140858101516001600160401b038116858301525050610160858101516001600160801b038116858301525050610180808601518185015250806101a08401526133458184018561310a565b95945050505050565b60006020828403121561336057600080fd5b5051919050565b60005b8381101561338257818101518382015260200161336a565b50506000910152565b7f416363657373436f6e74726f6c3a206163636f756e74200000000000000000008152600083516133c3816017850160208801613367565b7001034b99036b4b9b9b4b733903937b6329607d1b60179184019182015283516133f4816028840160208801613367565b01602801949350505050565b602081526000825180602084015261341f816040850160208701613367565b601f01601f19169190910160400192915050565b60008161344257613442612e9b565b50600019019056fef7650eb8b2f3fb3c9b995a8ee2fc3c04ed07f1c4efe01998177b109698c67517241ecf16d79d0f8dbfb92cbc07fe17840425976cf0667f022fe9877caa831b08a26469706673582212204e0ab13264b048a38e75ad323f0539b08b517962dc6029e088dd93235e72673f64736f6c63430008110033",
  "linkReferences": {},
  "deployedLinkReferences": {}
}