{
  "_format": "hh-sol-artifact-1",
  "contractName": "FastPriceFeed",
  "sourceName": "contracts/oracle/FastPriceFeed.sol",
  "abi": [
    {
      "inputs": [
        {
          "internalType": "uint256",
          "name": "_priceDuration",
          "type": "uint256"
        },
        {
          "internalType": "uint256",
          "name": "_maxPriceUpdateDelay",
          "type": "uint256"
        },
        {
          "internalType": "uint256",
          "name": "_minBlockInterval",
          "type": "uint256"
        },
        {
          "internalType": "uint256",
          "name": "_maxDeviationBasisPoints",
          "type": "uint256"
        }
      ],
      "stateMutability": "nonpayable",
      "type": "constructor"
    },
    {
      "anonymous": false,
      "inputs": [
        {
          "indexed": false,
          "internalType": "uint8",
          "name": "version",
          "type": "uint8"
        }
      ],
      "name": "Initialized",
      "type": "event"
    },
    {
      "anonymous": false,
      "inputs": [
        {
          "indexed": false,
          "internalType": "address",
          "name": "token",
          "type": "address"
        },
        {
          "indexed": false,
          "internalType": "uint256",
          "name": "refPrice",
          "type": "uint256"
        },
        {
          "indexed": false,
          "internalType": "uint256",
          "name": "fastPrice",
          "type": "uint256"
        },
        {
          "indexed": false,
          "internalType": "uint256",
          "name": "cumulativeRefDelta",
          "type": "uint256"
        },
        {
          "indexed": false,
          "internalType": "uint256",
          "name": "cumulativeFastDelta",
          "type": "uint256"
        }
      ],
      "name": "MaxCumulativeDeltaDiffExceeded",
      "type": "event"
    },
    {
      "anonymous": false,
      "inputs": [
        {
          "indexed": true,
          "internalType": "address",
          "name": "previousOwner",
          "type": "address"
        },
        {
          "indexed": true,
          "internalType": "address",
          "name": "newOwner",
          "type": "address"
        }
      ],
      "name": "OwnershipTransferred",
      "type": "event"
    },
    {
      "anonymous": false,
      "inputs": [
        {
          "indexed": false,
          "internalType": "address",
          "name": "token",
          "type": "address"
        },
        {
          "indexed": false,
          "internalType": "uint256",
          "name": "refPrice",
          "type": "uint256"
        },
        {
          "indexed": false,
          "internalType": "uint256",
          "name": "fastPrice",
          "type": "uint256"
        },
        {
          "indexed": false,
          "internalType": "uint256",
          "name": "cumulativeRefDelta",
          "type": "uint256"
        },
        {
          "indexed": false,
          "internalType": "uint256",
          "name": "cumulativeFastDelta",
          "type": "uint256"
        }
      ],
      "name": "PriceData",
      "type": "event"
    },
    {
      "anonymous": false,
      "inputs": [
        {
          "indexed": true,
          "internalType": "bytes32",
          "name": "role",
          "type": "bytes32"
        },
        {
          "indexed": true,
          "internalType": "bytes32",
          "name": "previousAdminRole",
          "type": "bytes32"
        },
        {
          "indexed": true,
          "internalType": "bytes32",
          "name": "newAdminRole",
          "type": "bytes32"
        }
      ],
      "name": "RoleAdminChanged",
      "type": "event"
    },
    {
      "anonymous": false,
      "inputs": [
        {
          "indexed": true,
          "internalType": "bytes32",
          "name": "role",
          "type": "bytes32"
        },
        {
          "indexed": true,
          "internalType": "address",
          "name": "account",
          "type": "address"
        },
        {
          "indexed": true,
          "internalType": "address",
          "name": "sender",
          "type": "address"
        }
      ],
      "name": "RoleGranted",
      "type": "event"
    },
    {
      "anonymous": false,
      "inputs": [
        {
          "indexed": true,
          "internalType": "bytes32",
          "name": "role",
          "type": "bytes32"
        },
        {
          "indexed": true,
          "internalType": "address",
          "name": "account",
          "type": "address"
        },
        {
          "indexed": true,
          "internalType": "address",
          "name": "sender",
          "type": "address"
        }
      ],
      "name": "RoleRevoked",
      "type": "event"
    },
    {
      "anonymous": false,
      "inputs": [
        {
          "indexed": false,
          "internalType": "address",
          "name": "feed",
          "type": "address"
        },
        {
          "indexed": true,
          "internalType": "address",
          "name": "token",
          "type": "address"
        },
        {
          "indexed": false,
          "internalType": "uint256",
          "name": "price",
          "type": "uint256"
        }
      ],
      "name": "UpdatePrice",
      "type": "event"
    },
    {
      "inputs": [],
      "name": "BASIS_POINTS_DIVISOR",
      "outputs": [
        {
          "internalType": "uint256",
          "name": "",
          "type": "uint256"
        }
      ],
      "stateMutability": "view",
      "type": "function"
    },
    {
      "inputs": [],
      "name": "BITMASK_32",
      "outputs": [
        {
          "internalType": "uint256",
          "name": "",
          "type": "uint256"
        }
      ],
      "stateMutability": "view",
      "type": "function"
    },
    {
      "inputs": [],
      "name": "CUMULATIVE_DELTA_PRECISION",
      "outputs": [
        {
          "internalType": "uint256",
          "name": "",
          "type": "uint256"
        }
      ],
      "stateMutability": "view",
      "type": "function"
    },
    {
      "inputs": [],
      "name": "DEFAULT_ADMIN_ROLE",
      "outputs": [
        {
          "internalType": "bytes32",
          "name": "",
          "type": "bytes32"
        }
      ],
      "stateMutability": "view",
      "type": "function"
    },
    {
      "inputs": [],
      "name": "MAX_CUMULATIVE_FAST_DELTA",
      "outputs": [
        {
          "internalType": "uint256",
          "name": "",
          "type": "uint256"
        }
      ],
      "stateMutability": "view",
      "type": "function"
    },
    {
      "inputs": [],
      "name": "MAX_CUMULATIVE_REF_DELTA",
      "outputs": [
        {
          "internalType": "uint256",
          "name": "",
          "type": "uint256"
        }
      ],
      "stateMutability": "view",
      "type": "function"
    },
    {
      "inputs": [],
      "name": "MAX_PRICE_DURATION",
      "outputs": [
        {
          "internalType": "uint256",
          "name": "",
          "type": "uint256"
        }
      ],
      "stateMutability": "view",
      "type": "function"
    },
    {
      "inputs": [],
      "name": "MAX_REF_PRICE",
      "outputs": [
        {
          "internalType": "uint256",
          "name": "",
          "type": "uint256"
        }
      ],
      "stateMutability": "view",
      "type": "function"
    },
    {
      "inputs": [],
      "name": "PRICE_PRECISION",
      "outputs": [
        {
          "internalType": "uint256",
          "name": "",
          "type": "uint256"
        }
      ],
      "stateMutability": "view",
      "type": "function"
    },
    {
      "inputs": [],
      "name": "chainPriceFeed",
      "outputs": [
        {
          "internalType": "address",
          "name": "",
          "type": "address"
        }
      ],
      "stateMutability": "view",
      "type": "function"
    },
    {
      "inputs": [
        {
          "internalType": "address",
          "name": "_token",
          "type": "address"
        }
      ],
      "name": "favorFastPrice",
      "outputs": [
        {
          "internalType": "bool",
          "name": "",
          "type": "bool"
        }
      ],
      "stateMutability": "view",
      "type": "function"
    },
    {
      "inputs": [
        {
          "internalType": "address",
          "name": "_token",
          "type": "address"
        },
        {
          "internalType": "uint256",
          "name": "_refPrice",
          "type": "uint256"
        },
        {
          "internalType": "bool",
          "name": "_maximise",
          "type": "bool"
        }
      ],
      "name": "getPrice",
      "outputs": [
        {
          "internalType": "uint256",
          "name": "",
          "type": "uint256"
        }
      ],
      "stateMutability": "view",
      "type": "function"
    },
    {
      "inputs": [
        {
          "internalType": "address",
          "name": "_token",
          "type": "address"
        }
      ],
      "name": "getPriceData",
      "outputs": [
        {
          "internalType": "uint256",
          "name": "",
          "type": "uint256"
        },
        {
          "internalType": "uint256",
          "name": "",
          "type": "uint256"
        },
        {
          "internalType": "uint256",
          "name": "",
          "type": "uint256"
        },
        {
          "internalType": "uint256",
          "name": "",
          "type": "uint256"
        }
      ],
      "stateMutability": "view",
      "type": "function"
    },
    {
      "inputs": [
        {
          "internalType": "bytes32",
          "name": "role",
          "type": "bytes32"
        }
      ],
      "name": "getRoleAdmin",
      "outputs": [
        {
          "internalType": "bytes32",
          "name": "",
          "type": "bytes32"
        }
      ],
      "stateMutability": "view",
      "type": "function"
    },
    {
      "inputs": [
        {
          "internalType": "address",
          "name": "_account",
          "type": "address"
        }
      ],
      "name": "grantControllerRoleByMarketManager",
      "outputs": [],
      "stateMutability": "nonpayable",
      "type": "function"
    },
    {
      "inputs": [
        {
          "internalType": "bytes32",
          "name": "role",
          "type": "bytes32"
        },
        {
          "internalType": "address",
          "name": "account",
          "type": "address"
        }
      ],
      "name": "grantRole",
      "outputs": [],
      "stateMutability": "nonpayable",
      "type": "function"
    },
    {
      "inputs": [
        {
          "internalType": "bytes32",
          "name": "role",
          "type": "bytes32"
        },
        {
          "internalType": "address",
          "name": "account",
          "type": "address"
        }
      ],
      "name": "hasRole",
      "outputs": [
        {
          "internalType": "bool",
          "name": "",
          "type": "bool"
        }
      ],
      "stateMutability": "view",
      "type": "function"
    },
    {
      "inputs": [],
      "name": "isSpreadEnablede",
      "outputs": [
        {
          "internalType": "bool",
          "name": "",
          "type": "bool"
        }
      ],
      "stateMutability": "view",
      "type": "function"
    },
    {
      "inputs": [],
      "name": "lastUpdatedAt",
      "outputs": [
        {
          "internalType": "uint256",
          "name": "",
          "type": "uint256"
        }
      ],
      "stateMutability": "view",
      "type": "function"
    },
    {
      "inputs": [],
      "name": "lastUpdatedBlock",
      "outputs": [
        {
          "internalType": "uint256",
          "name": "",
          "type": "uint256"
        }
      ],
      "stateMutability": "view",
      "type": "function"
    },
    {
      "inputs": [
        {
          "internalType": "address",
          "name": "",
          "type": "address"
        }
      ],
      "name": "maxCumulativeDeltaDiffs",
      "outputs": [
        {
          "internalType": "uint256",
          "name": "",
          "type": "uint256"
        }
      ],
      "stateMutability": "view",
      "type": "function"
    },
    {
      "inputs": [],
      "name": "maxDeviationBasisPoints",
      "outputs": [
        {
          "internalType": "uint256",
          "name": "",
          "type": "uint256"
        }
      ],
      "stateMutability": "view",
      "type": "function"
    },
    {
      "inputs": [],
      "name": "maxPriceUpdateDelay",
      "outputs": [
        {
          "internalType": "uint256",
          "name": "",
          "type": "uint256"
        }
      ],
      "stateMutability": "view",
      "type": "function"
    },
    {
      "inputs": [],
      "name": "maxTimeDeviation",
      "outputs": [
        {
          "internalType": "uint256",
          "name": "",
          "type": "uint256"
        }
      ],
      "stateMutability": "view",
      "type": "function"
    },
    {
      "inputs": [],
      "name": "minBlockInterval",
      "outputs": [
        {
          "internalType": "uint256",
          "name": "",
          "type": "uint256"
        }
      ],
      "stateMutability": "view",
      "type": "function"
    },
    {
      "inputs": [],
      "name": "owner",
      "outputs": [
        {
          "internalType": "address",
          "name": "",
          "type": "address"
        }
      ],
      "stateMutability": "view",
      "type": "function"
    },
    {
      "inputs": [
        {
          "internalType": "address",
          "name": "",
          "type": "address"
        }
      ],
      "name": "priceData",
      "outputs": [
        {
          "internalType": "uint160",
          "name": "refPrice",
          "type": "uint160"
        },
        {
          "internalType": "uint32",
          "name": "refTime",
          "type": "uint32"
        },
        {
          "internalType": "uint32",
          "name": "cumulativeRefDelta",
          "type": "uint32"
        },
        {
          "internalType": "uint32",
          "name": "cumulativeFastDelta",
          "type": "uint32"
        }
      ],
      "stateMutability": "view",
      "type": "function"
    },
    {
      "inputs": [],
      "name": "priceDataInterval",
      "outputs": [
        {
          "internalType": "uint256",
          "name": "",
          "type": "uint256"
        }
      ],
      "stateMutability": "view",
      "type": "function"
    },
    {
      "inputs": [],
      "name": "priceDuration",
      "outputs": [
        {
          "internalType": "uint256",
          "name": "",
          "type": "uint256"
        }
      ],
      "stateMutability": "view",
      "type": "function"
    },
    {
      "inputs": [
        {
          "internalType": "address",
          "name": "",
          "type": "address"
        }
      ],
      "name": "prices",
      "outputs": [
        {
          "internalType": "uint256",
          "name": "",
          "type": "uint256"
        }
      ],
      "stateMutability": "view",
      "type": "function"
    },
    {
      "inputs": [],
      "name": "renounceOwnership",
      "outputs": [],
      "stateMutability": "nonpayable",
      "type": "function"
    },
    {
      "inputs": [
        {
          "internalType": "bytes32",
          "name": "role",
          "type": "bytes32"
        },
        {
          "internalType": "address",
          "name": "account",
          "type": "address"
        }
      ],
      "name": "renounceRole",
      "outputs": [],
      "stateMutability": "nonpayable",
      "type": "function"
    },
    {
      "inputs": [
        {
          "internalType": "bytes32",
          "name": "role",
          "type": "bytes32"
        },
        {
          "internalType": "address",
          "name": "account",
          "type": "address"
        }
      ],
      "name": "revokeRole",
      "outputs": [],
      "stateMutability": "nonpayable",
      "type": "function"
    },
    {
      "inputs": [
        {
          "internalType": "uint256[]",
          "name": "_priceBitArray",
          "type": "uint256[]"
        },
        {
          "internalType": "uint256",
          "name": "_timestamp",
          "type": "uint256"
        }
      ],
      "name": "setCompactedPrices",
      "outputs": [],
      "stateMutability": "nonpayable",
      "type": "function"
    },
    {
      "inputs": [
        {
          "internalType": "bool",
          "name": "_enabled",
          "type": "bool"
        }
      ],
      "name": "setIsSpreadEnabled",
      "outputs": [],
      "stateMutability": "nonpayable",
      "type": "function"
    },
    {
      "inputs": [
        {
          "internalType": "uint256",
          "name": "_lastUpdatedAt",
          "type": "uint256"
        }
      ],
      "name": "setLastUpdatedAt",
      "outputs": [],
      "stateMutability": "nonpayable",
      "type": "function"
    },
    {
      "inputs": [
        {
          "internalType": "address[]",
          "name": "_tokens",
          "type": "address[]"
        },
        {
          "internalType": "uint256[]",
          "name": "_maxCumulativeDeltaDiffs",
          "type": "uint256[]"
        }
      ],
      "name": "setMaxCumulativeDeltaDiffs",
      "outputs": [],
      "stateMutability": "nonpayable",
      "type": "function"
    },
    {
      "inputs": [
        {
          "internalType": "uint256",
          "name": "_maxDeviationBasisPoints",
          "type": "uint256"
        }
      ],
      "name": "setMaxDeviationBasisPoints",
      "outputs": [],
      "stateMutability": "nonpayable",
      "type": "function"
    },
    {
      "inputs": [
        {
          "internalType": "uint256",
          "name": "_delay",
          "type": "uint256"
        }
      ],
      "name": "setMaxPriceUpdateDelay",
      "outputs": [],
      "stateMutability": "nonpayable",
      "type": "function"
    },
    {
      "inputs": [
        {
          "internalType": "uint256",
          "name": "_deviation",
          "type": "uint256"
        }
      ],
      "name": "setMaxTimeDeviation",
      "outputs": [],
      "stateMutability": "nonpayable",
      "type": "function"
    },
    {
      "inputs": [
        {
          "internalType": "uint256",
          "name": "_interval",
          "type": "uint256"
        }
      ],
      "name": "setMinBlockInterval",
      "outputs": [],
      "stateMutability": "nonpayable",
      "type": "function"
    },
    {
      "inputs": [
        {
          "internalType": "uint256",
          "name": "_priceDataInterval",
          "type": "uint256"
        }
      ],
      "name": "setPriceDataInterval",
      "outputs": [],
      "stateMutability": "nonpayable",
      "type": "function"
    },
    {
      "inputs": [
        {
          "internalType": "uint256",
          "name": "_duration",
          "type": "uint256"
        }
      ],
      "name": "setPriceDuration",
      "outputs": [],
      "stateMutability": "nonpayable",
      "type": "function"
    },
    {
      "inputs": [
        {
          "internalType": "address",
          "name": "_feed",
          "type": "address"
        }
      ],
      "name": "setPriceFeed",
      "outputs": [],
      "stateMutability": "nonpayable",
      "type": "function"
    },
    {
      "inputs": [
        {
          "internalType": "address[]",
          "name": "_tokens",
          "type": "address[]"
        },
        {
          "internalType": "uint256[]",
          "name": "_prices",
          "type": "uint256[]"
        },
        {
          "internalType": "uint256",
          "name": "_timestamp",
          "type": "uint256"
        }
      ],
      "name": "setPrices",
      "outputs": [],
      "stateMutability": "nonpayable",
      "type": "function"
    },
    {
      "inputs": [
        {
          "internalType": "address",
          "name": "token",
          "type": "address"
        },
        {
          "internalType": "uint256",
          "name": "price",
          "type": "uint256"
        },
        {
          "internalType": "uint256",
          "name": "timestamp",
          "type": "uint256"
        },
        {
          "components": [
            {
              "internalType": "address",
              "name": "market",
              "type": "address"
            },
            {
              "internalType": "address",
              "name": "account",
              "type": "address"
            },
            {
              "internalType": "uint64",
              "name": "orderID",
              "type": "uint64"
            },
            {
              "internalType": "bool",
              "name": "isIncrease",
              "type": "bool"
            },
            {
              "internalType": "bool",
              "name": "isLong",
              "type": "bool"
            }
          ],
          "internalType": "struct IMarket.OrderExec[]",
          "name": "orders",
          "type": "tuple[]"
        }
      ],
      "name": "setPricesAndExecute",
      "outputs": [],
      "stateMutability": "nonpayable",
      "type": "function"
    },
    {
      "inputs": [
        {
          "internalType": "uint256",
          "name": "_priceBits",
          "type": "uint256"
        },
        {
          "internalType": "uint256",
          "name": "_timestamp",
          "type": "uint256"
        }
      ],
      "name": "setPricesWithBits",
      "outputs": [],
      "stateMutability": "nonpayable",
      "type": "function"
    },
    {
      "inputs": [
        {
          "internalType": "uint256",
          "name": "_point",
          "type": "uint256"
        }
      ],
      "name": "setSpreadBasisPointsIfChainError",
      "outputs": [],
      "stateMutability": "nonpayable",
      "type": "function"
    },
    {
      "inputs": [
        {
          "internalType": "uint256",
          "name": "_point",
          "type": "uint256"
        }
      ],
      "name": "setSpreadBasisPointsIfInactive",
      "outputs": [],
      "stateMutability": "nonpayable",
      "type": "function"
    },
    {
      "inputs": [
        {
          "internalType": "address[]",
          "name": "_tokens",
          "type": "address[]"
        },
        {
          "internalType": "uint256[]",
          "name": "_tokenPrecisions",
          "type": "uint256[]"
        }
      ],
      "name": "setTokens",
      "outputs": [],
      "stateMutability": "nonpayable",
      "type": "function"
    },
    {
      "inputs": [],
      "name": "spreadBasisPointsIfChainError",
      "outputs": [
        {
          "internalType": "uint256",
          "name": "",
          "type": "uint256"
        }
      ],
      "stateMutability": "view",
      "type": "function"
    },
    {
      "inputs": [],
      "name": "spreadBasisPointsIfInactive",
      "outputs": [
        {
          "internalType": "uint256",
          "name": "",
          "type": "uint256"
        }
      ],
      "stateMutability": "view",
      "type": "function"
    },
    {
      "inputs": [
        {
          "internalType": "bytes4",
          "name": "interfaceId",
          "type": "bytes4"
        }
      ],
      "name": "supportsInterface",
      "outputs": [
        {
          "internalType": "bool",
          "name": "",
          "type": "bool"
        }
      ],
      "stateMutability": "view",
      "type": "function"
    },
    {
      "inputs": [
        {
          "internalType": "uint256",
          "name": "",
          "type": "uint256"
        }
      ],
      "name": "tokenPrecisions",
      "outputs": [
        {
          "internalType": "uint256",
          "name": "",
          "type": "uint256"
        }
      ],
      "stateMutability": "view",
      "type": "function"
    },
    {
      "inputs": [
        {
          "internalType": "uint256",
          "name": "",
          "type": "uint256"
        }
      ],
      "name": "tokens",
      "outputs": [
        {
          "internalType": "address",
          "name": "",
          "type": "address"
        }
      ],
      "stateMutability": "view",
      "type": "function"
    },
    {
      "inputs": [
        {
          "internalType": "address",
          "name": "to",
          "type": "address"
        }
      ],
      "name": "transferAdmin",
      "outputs": [],
      "stateMutability": "nonpayable",
      "type": "function"
    },
    {
      "inputs": [
        {
          "internalType": "address",
          "name": "newOwner",
          "type": "address"
        }
      ],
      "name": "transferOwnership",
      "outputs": [],
      "stateMutability": "nonpayable",
      "type": "function"
    }
  ],
  "bytecode": "0x60806040523480156200001157600080fd5b506040516200342c3803806200342c833981016040819052620000349162000212565b336200004081620000e7565b62000056816200013960201b620019781760201c565b50610708841115620000bc5760405162461bcd60e51b815260206004820152602560248201527f466173745072696365466565643a20696e76616c6964205f707269636544757260448201526430ba34b7b760d91b606482015260840160405180910390fd5b60068490556007839055600a829055600d819055620000dd60003362000165565b5050505062000249565b600180546001600160a01b038381166001600160a01b0319831681179093556040519116919082907f8be0079c531659141344cd1fd0a4f28419497f9722a3daafe3b4186f6b6457e090600090a35050565b426002556200014833620000e7565b6200015560003362000206565b6200016260008262000206565b50565b6000828152602081815260408083206001600160a01b038516845290915290205460ff1662000202576000828152602081815260408083206001600160a01b03851684529091529020805460ff19166001179055620001c13390565b6001600160a01b0316816001600160a01b0316837f2f8788117e7eff1d82e926ec794901d17c78024a50270940304540a733656f0d60405160405180910390a45b5050565b62000202828262000165565b600080600080608085870312156200022957600080fd5b505082516020840151604085015160609095015191969095509092509050565b6131d380620002596000396000f3fe608060405234801561001057600080fd5b50600436106103835760003560e01c80637fe4a698116101de578063b70c7b701161010f578063de0d1b94116100ad578063f2fde38b1161007c578063f2fde38b146107b2578063f90ce5ba146107c5578063f931ac30146107ce578063fcb51252146107db57600080fd5b8063de0d1b941461077f578063dfb481c914610792578063e64559ad1461079b578063e68a22c0146107a457600080fd5b8063ce98dfa8116100e9578063ce98dfa814610726578063cfed246b14610739578063d547741f14610759578063d6a153f11461076c57600080fd5b8063b70c7b701461067d578063c8390a4814610690578063cab44b76146106a357600080fd5b806395082d251161017c578063a374242511610156578063a374242514610633578063a6eca89614610653578063add37b7b1461065c578063b3606b561461067457600080fd5b806395082d251461060d578063a217fddf14610621578063a2b47c161461062957600080fd5b806382553aad116101b857806382553aad146105c35780638b7677f4146105d65780638da5cb5b146105e957806391d14854146105fa57600080fd5b80637fe4a6981461059d5780637fece368146105b0578063807c9782146103dc57600080fd5b80634c0e31c8116102b8578063715c75361161025657806374bfed891161023057806374bfed891461055b57806375829def14610564578063776d16c114610577578063782661bc1461058a57600080fd5b8063715c75361461050c57806372279ba114610515578063724e78da1461054857600080fd5b806354aea1271161029257806354aea127146104df578063668d3d65146104e85780636c56fd05146104f1578063715018a61461050457600080fd5b80634c0e31c81461048e5780634d11fb4a146104a15780634f64b2be146104b457600080fd5b8063248a9ca31161032557806336568abe116102ff57806336568abe1461045f5780633aa08f861461047257806344c231931461047b5780634bd66c1c146103dc57600080fd5b8063248a9ca3146104165780632e9cd94b146104395780632f2ff15d1461044c57600080fd5b80630604ddea116103615780630604ddea146103dc578063126082cf146103e757806314dd2dce146103f057806317835d1c1461040357600080fd5b806301ffc9a71461038857806303cd2571146103b057806303f4d7dc146103c7575b600080fd5b61039b610396366004612698565b6107ee565b60405190151581526020015b60405180910390f35b6103b960065481565b6040519081526020016103a7565b6103da6103d53660046127e1565b610825565b005b6103b963ffffffff81565b6103b961271081565b6103da6103fe366004612825565b6109c1565b6103da61041136600461283e565b610a32565b6103b9610424366004612825565b60009081526020819052604090206001015490565b6103da610447366004612825565b610a5d565b6103da61045a366004612875565b610ac5565b6103da61046d366004612875565b610aea565b6103b9600b5481565b6103da610489366004612825565b610b64565b6103da61049c366004612909565b610c2a565b6103b96104af366004612825565b610cff565b6104c76104c2366004612825565b610d20565b6040516001600160a01b0390911681526020016103a7565b6103b960045481565b6103b961070881565b61039b6104ff36600461296c565b610d4a565b6103da610dba565b6103b9600d5481565b61052861052336600461296c565b610dce565b6040805194855260208501939093529183015260608201526080016103a7565b6103da61055636600461296c565b610e38565b6103b960085481565b6103da61057236600461296c565b610ec3565b6103da610585366004612825565b610eed565b6103da610598366004612989565b610f55565b6103da6105ab36600461296c565b611004565b6103b96105be366004612a0a565b61102e565b6103da6105d1366004612825565b611191565b6103da6105e4366004612825565b6111f9565b6001546001600160a01b03166104c7565b61039b610608366004612875565b611261565b6103b96c0c9f2c9cd04674edea4000000081565b6103b9600081565b6103b96298968081565b6103b961064136600461296c565b60106020526000908152604090205481565b6103b960095481565b6003546104c79061010090046001600160a01b031681565b6103b9600a5481565b6103da61068b366004612825565b61128a565b6103da61069e366004612909565b6112f2565b6106f06106b136600461296c565b600f602052600090815260409020546001600160a01b0381169063ffffffff600160a01b8204811691600160c01b8104821691600160e01b9091041684565b604080516001600160a01b03909516855263ffffffff9384166020860152918316918401919091521660608201526080016103a7565b6103da610734366004612a48565b6113cb565b6103b961074736600461296c565b600e6020526000908152604090205481565b6103da610767366004612875565b611441565b6103da61077a366004612825565b611466565b6103da61078d366004612825565b6114ce565b6103b9600c5481565b6103b960075481565b6103b96001600160a01b0381565b6103da6107c036600461296c565b611536565b6103b960055481565b60035461039b9060ff1681565b6103da6107e9366004612a78565b6115af565b60006001600160e01b03198216637965db0b60e01b148061081f57506301ffc9a760e01b6001600160e01b03198316145b92915050565b61083d60008051602061315e83398151915233611261565b61084657600080fd5b60006108518261199b565b905080156109bb5760035461010090046001600160a01b031660005b84518110156109b857600085828151811061088a5761088a612b98565b6020026020010151905060005b60088110156109a3576000816108ae856008612bc4565b6108b89190612bdb565b60115490915081106108ce575050505050505050565b60006108db836020612bc4565b905083811c63ffffffff1660006011856108f6896008612bc4565b6109009190612bdb565b8154811061091057610910612b98565b60009182526020822001546001600160a01b031691506012866109348a6008612bc4565b61093e9190612bdb565b8154811061094e5761094e612b98565b60009182526020822001549150816109736c0c9f2c9cd04674edea4000000086612bc4565b61097d9190612bee565b905061098a83828c611b1d565b505050505050808061099b90612c10565b915050610897565b505080806109b090612c10565b91505061086d565b50505b505b5050565b60008051602061317e83398151915260006109dc8133611261565b90508015610a215762015180600254426109f69190612c29565b10610a1c5760405162461bcd60e51b8152600401610a1390612c3c565b60405180910390fd5b610a2b565b610a2b8233611de1565b5050600455565b610a4a60008051602061315e83398151915233611261565b610a5357600080fd5b6109bd8282611e3a565b60008051602061317e8339815191526000610a788133611261565b90508015610ab4576201518060025442610a929190612c29565b10610aaf5760405162461bcd60e51b8152600401610a1390612c3c565b610abe565b610abe8233611de1565b5050600c55565b600082815260208190526040902060010154610ae081611f31565b6109bb8383611f3b565b6001600160a01b0381163314610b5a5760405162461bcd60e51b815260206004820152602f60248201527f416363657373436f6e74726f6c3a2063616e206f6e6c792072656e6f756e636560448201526e103937b632b9903337b91039b2b63360891b6064820152608401610a13565b6109bd8282611fbf565b60008051602061317e8339815191526000610b7f8133611261565b90508015610bbb576201518060025442610b999190612c29565b10610bb65760405162461bcd60e51b8152600401610a1390612c3c565b610bc5565b610bc58233611de1565b610708831115610c235760405162461bcd60e51b8152602060048201526024808201527f466173745072696365466565643a20696e76616c6964207072696365447572616044820152633a34b7b760e11b6064820152608401610a13565b5050600655565b60008051602061317e8339815191526000610c458133611261565b90508015610c81576201518060025442610c5f9190612c29565b10610c7c5760405162461bcd60e51b8152600401610a1390612c3c565b610c8b565b610c8b8233611de1565b60005b84518110156109b8576000858281518110610cab57610cab612b98565b60200260200101519050848281518110610cc757610cc7612b98565b6020908102919091018101516001600160a01b0390921660009081526010909152604090205580610cf781612c10565b915050610c8e565b60128181548110610d0f57600080fd5b600091825260209091200154905081565b60118181548110610d3057600080fd5b6000918252602090912001546001600160a01b0316905081565b60035460009060ff1615610d6057506000919050565b600080610d6c84610dce565b9350935050508181118015610da157506001600160a01b038416600090815260106020526040902054610d9f8383612c29565b115b15610db0575060009392505050565b5060019392505050565b610dc2612024565b610dcc600061207e565b565b6001600160a01b039081166000908152600f60209081526040918290208251608081018452905493841680825263ffffffff600160a01b86048116938301849052600160c01b86048116948301859052600160e01b90950490941660609091018190529293909290565b60008051602061317e8339815191526000610e538133611261565b90508015610e8f576201518060025442610e6d9190612c29565b10610e8a5760405162461bcd60e51b8152600401610a1390612c3c565b610e99565b610e998233611de1565b5050600380546001600160a01b0390921661010002610100600160a81b0319909216919091179055565b6000610ece81611f31565b610ed96000836120d0565b610ee28261207e565b6109bd600033611fbf565b60008051602061317e8339815191526000610f088133611261565b90508015610f44576201518060025442610f229190612c29565b10610f3f5760405162461bcd60e51b8152600401610a1390612c3c565b610f4e565b610f4e8233611de1565b5050600b55565b610f6d60008051602061315e83398151915233611261565b610f7657600080fd5b6000610f818261199b565b90508015610ffe5760035461010090046001600160a01b031660005b8551811015610ffb576000868281518110610fba57610fba612b98565b60200260200101519050610fe881878481518110610fda57610fda612b98565b602002602001015185611b1d565b5080610ff381612c10565b915050610f9d565b50505b50505050565b7f8d1089725c0dc266707fa6207730fb801dcd03108bfed7a21099bd303651d2b761038381611f31565b60006007546004546110409190612bdb565b42111561108e57811561107b576127106009546127106110609190612bdb565b61106a9085612bc4565b6110749190612bee565b905061118a565b6127106009546127106110609190612c29565b60065460045461109e9190612bdb565b4211156110d15781156110be576127106008546127106110609190612bdb565b6127106008546127106110609190612c29565b6001600160a01b0384166000908152600e6020526040812054908190036110fb578391505061118a565b60008185116111135761110e8583612c29565b61111d565b61111d8286612c29565b90508461112c61271083612bc4565b6111369190612bee565b9050600061114387610d4a565b15806111505750600d5482115b905080156111845784156111775782861161116b578261116d565b855b935050505061118a565b82861061116b578261116d565b50909150505b9392505050565b60008051602061317e83398151915260006111ac8133611261565b905080156111e85762015180600254426111c69190612c29565b106111e35760405162461bcd60e51b8152600401610a1390612c3c565b6111f2565b6111f28233611de1565b5050600d55565b60008051602061317e83398151915260006112148133611261565b9050801561125057620151806002544261122e9190612c29565b1061124b5760405162461bcd60e51b8152600401610a1390612c3c565b61125a565b61125a8233611de1565b5050600755565b6000918252602082815260408084206001600160a01b0393909316845291905290205460ff1690565b60008051602061317e83398151915260006112a58133611261565b905080156112e15762015180600254426112bf9190612c29565b106112dc5760405162461bcd60e51b8152600401610a1390612c3c565b6112eb565b6112eb8233611de1565b5050600855565b60008051602061317e833981519152600061130d8133611261565b905080156113495762015180600254426113279190612c29565b106113445760405162461bcd60e51b8152600401610a1390612c3c565b611353565b6113538233611de1565b82518451146113a45760405162461bcd60e51b815260206004820152601e60248201527f466173745072696365466565643a20696e76616c6964206c656e6774687300006044820152606401610a13565b83516113b79060119060208701906125e3565b5082516109b8906012906020860190612648565b60008051602061317e83398151915260006113e68133611261565b905080156114225762015180600254426114009190612c29565b1061141d5760405162461bcd60e51b8152600401610a1390612c3c565b61142c565b61142c8233611de1565b50506003805460ff1916911515919091179055565b60008281526020819052604090206001015461145c81611f31565b6109bb8383611fbf565b60008051602061317e83398151915260006114818133611261565b905080156114bd57620151806002544261149b9190612c29565b106114b85760405162461bcd60e51b8152600401610a1390612c3c565b6114c7565b6114c78233611de1565b5050600a55565b60008051602061317e83398151915260006114e98133611261565b905080156115255762015180600254426115039190612c29565b106115205760405162461bcd60e51b8152600401610a1390612c3c565b61152f565b61152f8233611de1565b5050600955565b61153e612024565b6001600160a01b0381166115a35760405162461bcd60e51b815260206004820152602660248201527f4f776e61626c653a206e6577206f776e657220697320746865207a65726f206160448201526564647265737360d01b6064820152608401610a13565b6115ac8161207e565b50565b6115c760008051602061315e83398151915233611261565b6115d057600080fd5b6115d98261199b565b506115fa8484600360019054906101000a90046001600160a01b0316611b1d565b60005b81518110156109b857600082828151811061161a5761161a612b98565b60200260200101516000015190506000816001600160a01b031663a264045485858151811061164b5761164b612b98565b60200260200101516080015186868151811061166957611669612b98565b6020026020010151606001516040518363ffffffff1660e01b815260040161169f92919091151582521515602082015260400190565b602060405180830381865afa1580156116bc573d6000803e3d6000fd5b505050506040513d601f19601f820116820180604052508101906116e09190612c64565b9050600061176f8585815181106116f9576116f9612b98565b60200260200101516020015186868151811061171757611717612b98565b602090810291909101810151604090810151815160609490941b6bffffffffffffffffffffffff19168484015260c01b6001600160c01b03191660348401528051601c818503018152603c9093019052815191012090565b6040516309c3f1e960e41b8152600481018290529091506000906001600160a01b03841690639c3f1e90906024016101a060405180830381865afa1580156117bb573d6000803e3d6000fd5b505050506040513d601f19601f820116820180604052508101906117df9190612ce9565b604080516101e08101825260008082526020820181905291810182905260608082018390526080820183905260a0820183905260c0820183905260e08201839052610100820183905261012082018390526101408201839052610160820183905261018082018390526101a08201929092526101c081019190915290915061188d87878151811061187257611872612b98565b602002602001015160600151826120da90919063ffffffff16565b611900828888815181106118a3576118a3612b98565b6020026020010151600001518989815181106118c1576118c1612b98565b6020026020010151608001518a8a815181106118df576118df612b98565b6020026020010151606001516001866121079095949392919063ffffffff16565b6040516304b789db60e21b81526001600160a01b038616906312de276c9061192e9085908590600401612f1e565b600060405180830381600087803b15801561194857600080fd5b505af115801561195c573d6000803e3d6000fd5b505050505050505050808061197090612c10565b9150506115fd565b426002556119853361207e565b6119906000336120d0565b6115ac6000826120d0565b600a5460009015611a1b57600a546005546119b69043612c29565b1015611a1b5760405162461bcd60e51b815260206004820152602e60248201527f466173745072696365466565643a206d696e426c6f636b496e74657276616c2060448201526d1b9bdd081e595d081c185cdcd95960921b6064820152608401610a13565b600b54611a288142612c29565b8311611a8c5760405162461bcd60e51b815260206004820152602d60248201527f466173745072696365466565643a205f74696d657374616d702062656c6f772060448201526c616c6c6f7765642072616e676560981b6064820152608401610a13565b611a968142612bdb565b8310611afc5760405162461bcd60e51b815260206004820152602f60248201527f466173745072696365466565643a205f74696d657374616d702065786365656460448201526e7320616c6c6f7765642072616e676560881b6064820152608401610a13565b600454831015611b0f5750600092915050565b505060045543600555600190565b6001600160a01b03811615611d87576040516302c68be360e31b81526001600160a01b038481166004830152600091908316906316345f1890602401602060405180830381865afa158015611b76573d6000803e3d6000fd5b505050506040513d601f19601f82011682018060405250810190611b9a9190613061565b6001600160a01b0385166000908152600e6020526040812054919250808080611bc289610dce565b93509350935093506000841115611c8f576000848711611beb57611be68786612c29565b611bf5565b611bf58588612c29565b90506000898711611c0f57611c0a878b612c29565b611c19565b611c198a88612c29565b9050600c5442611c299190612bee565b600c54611c369087612bee565b14611c445760009350600092505b85611c526298968084612bc4565b611c5c9190612bee565b611c669085612bdb565b935086611c766298968083612bc4565b611c809190612bee565b611c8a9084612bdb565b925050505b8181118015611cbe57506001600160a01b038916600090815260106020526040902054611cbc8383612c29565b115b15611d1c57604080516001600160a01b038b1681526020810188905290810186905260608101839052608081018290527fe582322b389ad06b2bbf619cd6da3f16a288ec873ea0fa6df4d72f3d9480b4479060a00160405180910390a15b611d28898784846121f3565b604080516001600160a01b038b1681526020810188905290810186905260608101839052608081018290527f23b9387f81fca646aac1dc4487ede045c65f5f7445482906565f01e05afdb3a89060a00160405180910390a15050505050505b6001600160a01b0383166000818152600e602090815260409182902085905581513381529081018590527f769c880b4ecaf9ff271685d367fa4e4d091bab5879cf19c9ab777391e44f1c0f910160405180910390a2505050565b611deb8282611261565b6109bd57611df8816123b5565b611e038360206123c7565b604051602001611e1492919061309e565b60408051601f198184030181529082905262461bcd60e51b8252610a1391600401613113565b6000611e458261199b565b905080156109bb5760035461010090046001600160a01b031660005b60088110156109b85760115481908110611e7d57505050505050565b6000611e8a836020612bc4565b6011805491925088831c63ffffffff16916000919086908110611eaf57611eaf612b98565b6000918252602082200154601280546001600160a01b0390921693509087908110611edc57611edc612b98565b6000918252602082200154915081611f016c0c9f2c9cd04674edea4000000086612bc4565b611f0b9190612bee565b9050611f1883828a611b1d565b5050505050508080611f2990612c10565b915050611e61565b6115ac8133611de1565b611f458282611261565b6109bd576000828152602081815260408083206001600160a01b03851684529091529020805460ff19166001179055611f7b3390565b6001600160a01b0316816001600160a01b0316837f2f8788117e7eff1d82e926ec794901d17c78024a50270940304540a733656f0d60405160405180910390a45050565b611fc98282611261565b156109bd576000828152602081815260408083206001600160a01b0385168085529252808320805460ff1916905551339285917ff6391f5c32d9c69d2a47ea670b442974b53935d1edc7fd64eb21e047a839171b9190a45050565b6001546001600160a01b03163314610dcc5760405162461bcd60e51b815260206004820181905260248201527f4f776e61626c653a2063616c6c6572206973206e6f7420746865206f776e65726044820152606401610a13565b600180546001600160a01b038381166001600160a01b0319831681179093556040519116919082907f8be0079c531659141344cd1fd0a4f28419497f9722a3daafe3b4186f6b6457e090600090a35050565b6109bd8282611f3b565b60408051600280825260608201835290916020830190803683375050506101c08301521515606090910152565b6001600160a01b038085168752831515602088015260c0808701516001600160801b0390811660a0808b019190915260e08901518216928a0192909252610180808901516101608b01528415156101008b01526101208901516001600160401b03166101408b0152606089015190931660808a015290870151169087015281156121cc576121a9866121a48761010001516001600160801b031690565b612562565b6121c7866121c28761016001516001600160801b031690565b61258b565b610ffb565b6121ea866121e5876080015165ffffffffffff16151590565b6125a4565b50505050505050565b6001600160a01b0383106122495760405162461bcd60e51b815260206004820152601f60248201527f466173745072696365466565643a20696e76616c6964207265665072696365006044820152606401610a13565b63ffffffff82106122ae5760405162461bcd60e51b815260206004820152602960248201527f466173745072696365466565643a20696e76616c69642063756d756c617469766044820152686552656644656c746160b81b6064820152608401610a13565b63ffffffff81106123145760405162461bcd60e51b815260206004820152602a60248201527f466173745072696365466565643a20696e76616c69642063756d756c61746976604482015269654661737444656c746160b01b6064820152608401610a13565b604080516080810182526001600160a01b03948516815263ffffffff4281166020808401918252958216838501908152948216606084019081529787166000908152600f90965292909420905181549251935196518516600160e01b026001600160e01b03978616600160c01b02979097166001600160c01b0394909516600160a01b026001600160c01b0319909316951694909417171617919091179055565b606061081f6001600160a01b03831660145b606060006123d6836002612bc4565b6123e1906002612bdb565b6001600160401b038111156123f8576123f86126c2565b6040519080825280601f01601f191660200182016040528015612422576020820181803683370190505b509050600360fc1b8160008151811061243d5761243d612b98565b60200101906001600160f81b031916908160001a905350600f60fb1b8160018151811061246c5761246c612b98565b60200101906001600160f81b031916908160001a9053506000612490846002612bc4565b61249b906001612bdb565b90505b6001811115612513576f181899199a1a9b1b9c1cb0b131b232b360811b85600f16601081106124cf576124cf612b98565b1a60f81b8282815181106124e5576124e5612b98565b60200101906001600160f81b031916908160001a90535060049490941c9361250c81613146565b905061249e565b50831561118a5760405162461bcd60e51b815260206004820181905260248201527f537472696e67733a20686578206c656e67746820696e73756666696369656e746044820152606401610a13565b80826101c0015160008151811061257b5761257b612b98565b6020026020010181815250505050565b80826101c0015160018151811061257b5761257b612b98565b6000816125b25760006125b5565b60015b60ff16836101c001516000815181106125d0576125d0612b98565b6020026020010181815250905092915050565b828054828255906000526020600020908101928215612638579160200282015b8281111561263857825182546001600160a01b0319166001600160a01b03909116178255602090920191600190910190612603565b50612644929150612683565b5090565b828054828255906000526020600020908101928215612638579160200282015b82811115612638578251825591602001919060010190612668565b5b808211156126445760008155600101612684565b6000602082840312156126aa57600080fd5b81356001600160e01b03198116811461118a57600080fd5b634e487b7160e01b600052604160045260246000fd5b60405160a081016001600160401b03811182821017156126fa576126fa6126c2565b60405290565b6040516101a081016001600160401b03811182821017156126fa576126fa6126c2565b604051601f8201601f191681016001600160401b038111828210171561274b5761274b6126c2565b604052919050565b60006001600160401b0382111561276c5761276c6126c2565b5060051b60200190565b600082601f83011261278757600080fd5b8135602061279c61279783612753565b612723565b82815260059290921b840181019181810190868411156127bb57600080fd5b8286015b848110156127d657803583529183019183016127bf565b509695505050505050565b600080604083850312156127f457600080fd5b82356001600160401b0381111561280a57600080fd5b61281685828601612776565b95602094909401359450505050565b60006020828403121561283757600080fd5b5035919050565b6000806040838503121561285157600080fd5b50508035926020909101359150565b6001600160a01b03811681146115ac57600080fd5b6000806040838503121561288857600080fd5b82359150602083013561289a81612860565b809150509250929050565b600082601f8301126128b657600080fd5b813560206128c661279783612753565b82815260059290921b840181019181810190868411156128e557600080fd5b8286015b848110156127d65780356128fc81612860565b83529183019183016128e9565b6000806040838503121561291c57600080fd5b82356001600160401b038082111561293357600080fd5b61293f868387016128a5565b9350602085013591508082111561295557600080fd5b5061296285828601612776565b9150509250929050565b60006020828403121561297e57600080fd5b813561118a81612860565b60008060006060848603121561299e57600080fd5b83356001600160401b03808211156129b557600080fd5b6129c1878388016128a5565b945060208601359150808211156129d757600080fd5b506129e486828701612776565b925050604084013590509250925092565b80358015158114612a0557600080fd5b919050565b600080600060608486031215612a1f57600080fd5b8335612a2a81612860565b925060208401359150612a3f604085016129f5565b90509250925092565b600060208284031215612a5a57600080fd5b61118a826129f5565b6001600160401b03811681146115ac57600080fd5b60008060008060808587031215612a8e57600080fd5b8435612a9981612860565b9350602085810135935060408087013593506060808801356001600160401b03811115612ac557600080fd5b8801601f81018a13612ad657600080fd5b8035612ae461279782612753565b81815260a0918202830186019186820191908d841115612b0357600080fd5b938701935b83851015612b865780858f031215612b205760008081fd5b612b286126d8565b8535612b3381612860565b815285890135612b4281612860565b818a015285880135612b5381612a63565b81890152612b628688016129f5565b87820152612b72608087016129f5565b608082015283529384019391870191612b08565b50999c989b5096995050505050505050565b634e487b7160e01b600052603260045260246000fd5b634e487b7160e01b600052601160045260246000fd5b808202811582820484141761081f5761081f612bae565b8082018082111561081f5761081f612bae565b600082612c0b57634e487b7160e01b600052601260045260246000fd5b500490565b600060018201612c2257612c22612bae565b5060010190565b8181038181111561081f5761081f612bae565b6020808252600e908201526d1858c81d1a5b59481c185cdcd95960921b604082015260600190565b600060208284031215612c7657600080fd5b815161118a81612860565b805160ff81168114612a0557600080fd5b805163ffffffff81168114612a0557600080fd5b8051612a0581612860565b805165ffffffffffff81168114612a0557600080fd5b80516001600160801b0381168114612a0557600080fd5b8051612a0581612a63565b60006101a08284031215612cfc57600080fd5b612d04612700565b612d0d83612c81565b8152612d1b60208401612c92565b6020820152612d2c60408401612c81565b6040820152612d3d60608401612ca6565b6060820152612d4e60808401612cb1565b6080820152612d5f60a08401612cc7565b60a0820152612d7060c08401612cc7565b60c0820152612d8160e08401612cc7565b60e0820152610100612d94818501612cc7565b90820152610120612da6848201612cde565b90820152610140612db8848201612cde565b90820152610160612dca848201612cc7565b90820152610180928301519281019290925250919050565b600081518084526020808501945080840160005b83811015612e1257815187529582019590820190600101612df6565b509495945050505050565b80516001600160a01b0316825260006101e06020830151612e42602086018215159052565b50604083015160408501526060830151612e60606086018215159052565b506080830151612e7b60808601826001600160a01b03169052565b5060a083015160a085015260c083015160c085015260e083015160e085015261010080840151612eae8287018215159052565b50506101208381015160ff90811691860191909152610140808501516001600160401b031690860152610160808501519086015261018080850151908601526101a080850151909116908501526101c080840151818601839052612f1483870182612de2565b9695505050505050565b825160ff16815260006101c06020850151612f41602085018263ffffffff169052565b506040850151612f56604085018260ff169052565b506060850151612f7160608501826001600160a01b03169052565b506080850151612f8b608085018265ffffffffffff169052565b5060a0850151612fa660a08501826001600160801b03169052565b5060c0850151612fc160c08501826001600160801b03169052565b5060e0850151612fdc60e08501826001600160801b03169052565b50610100858101516001600160801b038116858301525050610120858101516001600160401b038116858301525050610140858101516001600160401b038116858301525050610160858101516001600160801b038116858301525050610180808601518185015250806101a084015261305881840185612e1d565b95945050505050565b60006020828403121561307357600080fd5b5051919050565b60005b8381101561309557818101518382015260200161307d565b50506000910152565b7f416363657373436f6e74726f6c3a206163636f756e74200000000000000000008152600083516130d681601785016020880161307a565b7001034b99036b4b9b9b4b733903937b6329607d1b601791840191820152835161310781602884016020880161307a565b01602801949350505050565b602081526000825180602084015261313281604085016020870161307a565b601f01601f19169190910160400192915050565b60008161315557613155612bae565b50600019019056fef7650eb8b2f3fb3c9b995a8ee2fc3c04ed07f1c4efe01998177b109698c67517241ecf16d79d0f8dbfb92cbc07fe17840425976cf0667f022fe9877caa831b08a26469706673582212204cb3952bc7d36fa6402ff402844d55b1606685a767051c17340dcb14f364ead664736f6c63430008110033",
  "linkReferences": {},
  "deployedLinkReferences": {}
}