{
  "_format": "hh-sol-artifact-1",
  "contractName": "CoreVault",
  "sourceName": "contracts/vault/CoreVault.sol",
  "abi": [
    {
      "anonymous": false,
      "inputs": [
        {
          "indexed": true,
          "internalType": "address",
          "name": "owner",
          "type": "address"
        },
        {
          "indexed": true,
          "internalType": "address",
          "name": "spender",
          "type": "address"
        },
        {
          "indexed": false,
          "internalType": "uint256",
          "name": "value",
          "type": "uint256"
        }
      ],
      "name": "Approval",
      "type": "event"
    },
    {
      "anonymous": false,
      "inputs": [
        {
          "indexed": false,
          "internalType": "uint256",
          "name": "duration",
          "type": "uint256"
        }
      ],
      "name": "CoolDownDurationUpdated",
      "type": "event"
    },
    {
      "anonymous": false,
      "inputs": [
        {
          "indexed": true,
          "internalType": "address",
          "name": "sender",
          "type": "address"
        },
        {
          "indexed": true,
          "internalType": "address",
          "name": "owner",
          "type": "address"
        },
        {
          "indexed": false,
          "internalType": "uint256",
          "name": "assets",
          "type": "uint256"
        },
        {
          "indexed": false,
          "internalType": "uint256",
          "name": "shares",
          "type": "uint256"
        }
      ],
      "name": "Deposit",
      "type": "event"
    },
    {
      "anonymous": false,
      "inputs": [
        {
          "indexed": true,
          "internalType": "address",
          "name": "sender",
          "type": "address"
        },
        {
          "indexed": true,
          "internalType": "address",
          "name": "owner",
          "type": "address"
        },
        {
          "indexed": false,
          "internalType": "uint256",
          "name": "assets",
          "type": "uint256"
        },
        {
          "indexed": false,
          "internalType": "uint256",
          "name": "shares",
          "type": "uint256"
        },
        {
          "indexed": false,
          "internalType": "uint256",
          "name": "fee",
          "type": "uint256"
        }
      ],
      "name": "DepositAsset",
      "type": "event"
    },
    {
      "anonymous": false,
      "inputs": [
        {
          "indexed": false,
          "internalType": "uint8",
          "name": "version",
          "type": "uint8"
        }
      ],
      "name": "Initialized",
      "type": "event"
    },
    {
      "anonymous": false,
      "inputs": [
        {
          "indexed": false,
          "internalType": "bool",
          "name": "isBuy",
          "type": "bool"
        },
        {
          "indexed": false,
          "internalType": "uint256",
          "name": "fee",
          "type": "uint256"
        }
      ],
      "name": "LPFeeUpdated",
      "type": "event"
    },
    {
      "anonymous": false,
      "inputs": [
        {
          "indexed": false,
          "internalType": "bool",
          "name": "isFreeze",
          "type": "bool"
        }
      ],
      "name": "LogIsFreeze",
      "type": "event"
    },
    {
      "anonymous": false,
      "inputs": [
        {
          "indexed": true,
          "internalType": "address",
          "name": "previousOwner",
          "type": "address"
        },
        {
          "indexed": true,
          "internalType": "address",
          "name": "newOwner",
          "type": "address"
        }
      ],
      "name": "OwnershipTransferred",
      "type": "event"
    },
    {
      "anonymous": false,
      "inputs": [
        {
          "indexed": true,
          "internalType": "bytes32",
          "name": "role",
          "type": "bytes32"
        },
        {
          "indexed": true,
          "internalType": "bytes32",
          "name": "previousAdminRole",
          "type": "bytes32"
        },
        {
          "indexed": true,
          "internalType": "bytes32",
          "name": "newAdminRole",
          "type": "bytes32"
        }
      ],
      "name": "RoleAdminChanged",
      "type": "event"
    },
    {
      "anonymous": false,
      "inputs": [
        {
          "indexed": true,
          "internalType": "bytes32",
          "name": "role",
          "type": "bytes32"
        },
        {
          "indexed": true,
          "internalType": "address",
          "name": "account",
          "type": "address"
        },
        {
          "indexed": true,
          "internalType": "address",
          "name": "sender",
          "type": "address"
        }
      ],
      "name": "RoleGranted",
      "type": "event"
    },
    {
      "anonymous": false,
      "inputs": [
        {
          "indexed": true,
          "internalType": "bytes32",
          "name": "role",
          "type": "bytes32"
        },
        {
          "indexed": true,
          "internalType": "address",
          "name": "account",
          "type": "address"
        },
        {
          "indexed": true,
          "internalType": "address",
          "name": "sender",
          "type": "address"
        }
      ],
      "name": "RoleRevoked",
      "type": "event"
    },
    {
      "anonymous": false,
      "inputs": [
        {
          "indexed": true,
          "internalType": "address",
          "name": "from",
          "type": "address"
        },
        {
          "indexed": true,
          "internalType": "address",
          "name": "to",
          "type": "address"
        },
        {
          "indexed": false,
          "internalType": "uint256",
          "name": "value",
          "type": "uint256"
        }
      ],
      "name": "Transfer",
      "type": "event"
    },
    {
      "anonymous": false,
      "inputs": [
        {
          "indexed": true,
          "internalType": "address",
          "name": "sender",
          "type": "address"
        },
        {
          "indexed": true,
          "internalType": "address",
          "name": "receiver",
          "type": "address"
        },
        {
          "indexed": true,
          "internalType": "address",
          "name": "owner",
          "type": "address"
        },
        {
          "indexed": false,
          "internalType": "uint256",
          "name": "assets",
          "type": "uint256"
        },
        {
          "indexed": false,
          "internalType": "uint256",
          "name": "shares",
          "type": "uint256"
        }
      ],
      "name": "Withdraw",
      "type": "event"
    },
    {
      "anonymous": false,
      "inputs": [
        {
          "indexed": true,
          "internalType": "address",
          "name": "sender",
          "type": "address"
        },
        {
          "indexed": true,
          "internalType": "address",
          "name": "receiver",
          "type": "address"
        },
        {
          "indexed": true,
          "internalType": "address",
          "name": "owner",
          "type": "address"
        },
        {
          "indexed": false,
          "internalType": "uint256",
          "name": "assets",
          "type": "uint256"
        },
        {
          "indexed": false,
          "internalType": "uint256",
          "name": "shares",
          "type": "uint256"
        },
        {
          "indexed": false,
          "internalType": "uint256",
          "name": "fee",
          "type": "uint256"
        }
      ],
      "name": "WithdrawAsset",
      "type": "event"
    },
    {
      "inputs": [],
      "name": "DEFAULT_ADMIN_ROLE",
      "outputs": [
        {
          "internalType": "bytes32",
          "name": "",
          "type": "bytes32"
        }
      ],
      "stateMutability": "view",
      "type": "function"
    },
    {
      "inputs": [],
      "name": "FEE_RATE_PRECISION",
      "outputs": [
        {
          "internalType": "uint256",
          "name": "",
          "type": "uint256"
        }
      ],
      "stateMutability": "view",
      "type": "function"
    },
    {
      "inputs": [
        {
          "internalType": "address",
          "name": "owner",
          "type": "address"
        },
        {
          "internalType": "address",
          "name": "spender",
          "type": "address"
        }
      ],
      "name": "allowance",
      "outputs": [
        {
          "internalType": "uint256",
          "name": "",
          "type": "uint256"
        }
      ],
      "stateMutability": "view",
      "type": "function"
    },
    {
      "inputs": [
        {
          "internalType": "address",
          "name": "spender",
          "type": "address"
        },
        {
          "internalType": "uint256",
          "name": "amount",
          "type": "uint256"
        }
      ],
      "name": "approve",
      "outputs": [
        {
          "internalType": "bool",
          "name": "",
          "type": "bool"
        }
      ],
      "stateMutability": "nonpayable",
      "type": "function"
    },
    {
      "inputs": [],
      "name": "asset",
      "outputs": [
        {
          "internalType": "address",
          "name": "",
          "type": "address"
        }
      ],
      "stateMutability": "view",
      "type": "function"
    },
    {
      "inputs": [
        {
          "internalType": "address",
          "name": "account",
          "type": "address"
        }
      ],
      "name": "balanceOf",
      "outputs": [
        {
          "internalType": "uint256",
          "name": "",
          "type": "uint256"
        }
      ],
      "stateMutability": "view",
      "type": "function"
    },
    {
      "inputs": [],
      "name": "buyLpFee",
      "outputs": [
        {
          "internalType": "uint256",
          "name": "",
          "type": "uint256"
        }
      ],
      "stateMutability": "view",
      "type": "function"
    },
    {
      "inputs": [
        {
          "internalType": "bool",
          "name": "isBuy",
          "type": "bool"
        },
        {
          "internalType": "uint256",
          "name": "amount",
          "type": "uint256"
        }
      ],
      "name": "computationalCosts",
      "outputs": [
        {
          "internalType": "uint256",
          "name": "",
          "type": "uint256"
        }
      ],
      "stateMutability": "view",
      "type": "function"
    },
    {
      "inputs": [
        {
          "internalType": "uint256",
          "name": "shares",
          "type": "uint256"
        }
      ],
      "name": "convertToAssets",
      "outputs": [
        {
          "internalType": "uint256",
          "name": "assets",
          "type": "uint256"
        }
      ],
      "stateMutability": "view",
      "type": "function"
    },
    {
      "inputs": [
        {
          "internalType": "uint256",
          "name": "assets",
          "type": "uint256"
        }
      ],
      "name": "convertToShares",
      "outputs": [
        {
          "internalType": "uint256",
          "name": "shares",
          "type": "uint256"
        }
      ],
      "stateMutability": "view",
      "type": "function"
    },
    {
      "inputs": [],
      "name": "cooldownDuration",
      "outputs": [
        {
          "internalType": "uint256",
          "name": "",
          "type": "uint256"
        }
      ],
      "stateMutability": "view",
      "type": "function"
    },
    {
      "inputs": [],
      "name": "decimals",
      "outputs": [
        {
          "internalType": "uint8",
          "name": "",
          "type": "uint8"
        }
      ],
      "stateMutability": "view",
      "type": "function"
    },
    {
      "inputs": [
        {
          "internalType": "address",
          "name": "spender",
          "type": "address"
        },
        {
          "internalType": "uint256",
          "name": "subtractedValue",
          "type": "uint256"
        }
      ],
      "name": "decreaseAllowance",
      "outputs": [
        {
          "internalType": "bool",
          "name": "",
          "type": "bool"
        }
      ],
      "stateMutability": "nonpayable",
      "type": "function"
    },
    {
      "inputs": [
        {
          "internalType": "uint256",
          "name": "assets",
          "type": "uint256"
        },
        {
          "internalType": "address",
          "name": "receiver",
          "type": "address"
        }
      ],
      "name": "deposit",
      "outputs": [
        {
          "internalType": "uint256",
          "name": "",
          "type": "uint256"
        }
      ],
      "stateMutability": "nonpayable",
      "type": "function"
    },
    {
      "inputs": [],
      "name": "feeRouter",
      "outputs": [
        {
          "internalType": "contract IFeeRouter",
          "name": "",
          "type": "address"
        }
      ],
      "stateMutability": "view",
      "type": "function"
    },
    {
      "inputs": [
        {
          "internalType": "bool",
          "name": "isBuy",
          "type": "bool"
        }
      ],
      "name": "getLPFee",
      "outputs": [
        {
          "internalType": "uint256",
          "name": "",
          "type": "uint256"
        }
      ],
      "stateMutability": "view",
      "type": "function"
    },
    {
      "inputs": [
        {
          "internalType": "bytes32",
          "name": "role",
          "type": "bytes32"
        }
      ],
      "name": "getRoleAdmin",
      "outputs": [
        {
          "internalType": "bytes32",
          "name": "",
          "type": "bytes32"
        }
      ],
      "stateMutability": "view",
      "type": "function"
    },
    {
      "inputs": [
        {
          "internalType": "address",
          "name": "_account",
          "type": "address"
        }
      ],
      "name": "grantControllerRoleByMarketManager",
      "outputs": [],
      "stateMutability": "nonpayable",
      "type": "function"
    },
    {
      "inputs": [
        {
          "internalType": "bytes32",
          "name": "role",
          "type": "bytes32"
        },
        {
          "internalType": "address",
          "name": "account",
          "type": "address"
        }
      ],
      "name": "grantRole",
      "outputs": [],
      "stateMutability": "nonpayable",
      "type": "function"
    },
    {
      "inputs": [
        {
          "internalType": "bytes32",
          "name": "role",
          "type": "bytes32"
        },
        {
          "internalType": "address",
          "name": "account",
          "type": "address"
        }
      ],
      "name": "hasRole",
      "outputs": [
        {
          "internalType": "bool",
          "name": "",
          "type": "bool"
        }
      ],
      "stateMutability": "view",
      "type": "function"
    },
    {
      "inputs": [
        {
          "internalType": "address",
          "name": "spender",
          "type": "address"
        },
        {
          "internalType": "uint256",
          "name": "addedValue",
          "type": "uint256"
        }
      ],
      "name": "increaseAllowance",
      "outputs": [
        {
          "internalType": "bool",
          "name": "",
          "type": "bool"
        }
      ],
      "stateMutability": "nonpayable",
      "type": "function"
    },
    {
      "inputs": [
        {
          "internalType": "address",
          "name": "_asset",
          "type": "address"
        },
        {
          "internalType": "string",
          "name": "_name",
          "type": "string"
        },
        {
          "internalType": "string",
          "name": "_symbol",
          "type": "string"
        },
        {
          "internalType": "address",
          "name": "_vaultRouter",
          "type": "address"
        },
        {
          "internalType": "address",
          "name": "_feeRouter",
          "type": "address"
        },
        {
          "internalType": "address",
          "name": "_vaultReward",
          "type": "address"
        }
      ],
      "name": "initialize",
      "outputs": [],
      "stateMutability": "nonpayable",
      "type": "function"
    },
    {
      "inputs": [],
      "name": "isFreeze",
      "outputs": [
        {
          "internalType": "bool",
          "name": "",
          "type": "bool"
        }
      ],
      "stateMutability": "view",
      "type": "function"
    },
    {
      "inputs": [
        {
          "internalType": "address",
          "name": "",
          "type": "address"
        }
      ],
      "name": "lastDepositAt",
      "outputs": [
        {
          "internalType": "uint256",
          "name": "",
          "type": "uint256"
        }
      ],
      "stateMutability": "view",
      "type": "function"
    },
    {
      "inputs": [
        {
          "internalType": "address",
          "name": "",
          "type": "address"
        }
      ],
      "name": "maxDeposit",
      "outputs": [
        {
          "internalType": "uint256",
          "name": "",
          "type": "uint256"
        }
      ],
      "stateMutability": "view",
      "type": "function"
    },
    {
      "inputs": [
        {
          "internalType": "address",
          "name": "",
          "type": "address"
        }
      ],
      "name": "maxMint",
      "outputs": [
        {
          "internalType": "uint256",
          "name": "",
          "type": "uint256"
        }
      ],
      "stateMutability": "view",
      "type": "function"
    },
    {
      "inputs": [
        {
          "internalType": "address",
          "name": "owner",
          "type": "address"
        }
      ],
      "name": "maxRedeem",
      "outputs": [
        {
          "internalType": "uint256",
          "name": "",
          "type": "uint256"
        }
      ],
      "stateMutability": "view",
      "type": "function"
    },
    {
      "inputs": [
        {
          "internalType": "address",
          "name": "owner",
          "type": "address"
        }
      ],
      "name": "maxWithdraw",
      "outputs": [
        {
          "internalType": "uint256",
          "name": "",
          "type": "uint256"
        }
      ],
      "stateMutability": "view",
      "type": "function"
    },
    {
      "inputs": [
        {
          "internalType": "uint256",
          "name": "shares",
          "type": "uint256"
        },
        {
          "internalType": "address",
          "name": "receiver",
          "type": "address"
        }
      ],
      "name": "mint",
      "outputs": [
        {
          "internalType": "uint256",
          "name": "",
          "type": "uint256"
        }
      ],
      "stateMutability": "nonpayable",
      "type": "function"
    },
    {
      "inputs": [],
      "name": "name",
      "outputs": [
        {
          "internalType": "string",
          "name": "",
          "type": "string"
        }
      ],
      "stateMutability": "view",
      "type": "function"
    },
    {
      "inputs": [],
      "name": "owner",
      "outputs": [
        {
          "internalType": "address",
          "name": "",
          "type": "address"
        }
      ],
      "stateMutability": "view",
      "type": "function"
    },
    {
      "inputs": [
        {
          "internalType": "uint256",
          "name": "assets",
          "type": "uint256"
        }
      ],
      "name": "previewDeposit",
      "outputs": [
        {
          "internalType": "uint256",
          "name": "",
          "type": "uint256"
        }
      ],
      "stateMutability": "view",
      "type": "function"
    },
    {
      "inputs": [
        {
          "internalType": "uint256",
          "name": "shares",
          "type": "uint256"
        }
      ],
      "name": "previewMint",
      "outputs": [
        {
          "internalType": "uint256",
          "name": "",
          "type": "uint256"
        }
      ],
      "stateMutability": "view",
      "type": "function"
    },
    {
      "inputs": [
        {
          "internalType": "uint256",
          "name": "shares",
          "type": "uint256"
        }
      ],
      "name": "previewRedeem",
      "outputs": [
        {
          "internalType": "uint256",
          "name": "",
          "type": "uint256"
        }
      ],
      "stateMutability": "view",
      "type": "function"
    },
    {
      "inputs": [
        {
          "internalType": "uint256",
          "name": "assets",
          "type": "uint256"
        }
      ],
      "name": "previewWithdraw",
      "outputs": [
        {
          "internalType": "uint256",
          "name": "",
          "type": "uint256"
        }
      ],
      "stateMutability": "view",
      "type": "function"
    },
    {
      "inputs": [
        {
          "internalType": "uint256",
          "name": "shares",
          "type": "uint256"
        },
        {
          "internalType": "address",
          "name": "receiver",
          "type": "address"
        },
        {
          "internalType": "address",
          "name": "owner",
          "type": "address"
        }
      ],
      "name": "redeem",
      "outputs": [
        {
          "internalType": "uint256",
          "name": "",
          "type": "uint256"
        }
      ],
      "stateMutability": "nonpayable",
      "type": "function"
    },
    {
      "inputs": [],
      "name": "renounceOwnership",
      "outputs": [],
      "stateMutability": "nonpayable",
      "type": "function"
    },
    {
      "inputs": [
        {
          "internalType": "bytes32",
          "name": "role",
          "type": "bytes32"
        },
        {
          "internalType": "address",
          "name": "account",
          "type": "address"
        }
      ],
      "name": "renounceRole",
      "outputs": [],
      "stateMutability": "nonpayable",
      "type": "function"
    },
    {
      "inputs": [
        {
          "internalType": "bytes32",
          "name": "role",
          "type": "bytes32"
        },
        {
          "internalType": "address",
          "name": "account",
          "type": "address"
        }
      ],
      "name": "revokeRole",
      "outputs": [],
      "stateMutability": "nonpayable",
      "type": "function"
    },
    {
      "inputs": [],
      "name": "sellLpFee",
      "outputs": [
        {
          "internalType": "uint256",
          "name": "",
          "type": "uint256"
        }
      ],
      "stateMutability": "view",
      "type": "function"
    },
    {
      "inputs": [
        {
          "internalType": "uint256",
          "name": "_duration",
          "type": "uint256"
        }
      ],
      "name": "setCooldownDuration",
      "outputs": [],
      "stateMutability": "nonpayable",
      "type": "function"
    },
    {
      "inputs": [
        {
          "internalType": "address",
          "name": "_feeRouter",
          "type": "address"
        }
      ],
      "name": "setFeeRouter",
      "outputs": [],
      "stateMutability": "nonpayable",
      "type": "function"
    },
    {
      "inputs": [
        {
          "internalType": "bool",
          "name": "f",
          "type": "bool"
        }
      ],
      "name": "setIsFreeze",
      "outputs": [],
      "stateMutability": "nonpayable",
      "type": "function"
    },
    {
      "inputs": [
        {
          "internalType": "bool",
          "name": "isBuy",
          "type": "bool"
        },
        {
          "internalType": "uint256",
          "name": "fee",
          "type": "uint256"
        }
      ],
      "name": "setLpFee",
      "outputs": [],
      "stateMutability": "nonpayable",
      "type": "function"
    },
    {
      "inputs": [
        {
          "internalType": "address",
          "name": "_vaultRouter",
          "type": "address"
        }
      ],
      "name": "setVaultRouter",
      "outputs": [],
      "stateMutability": "nonpayable",
      "type": "function"
    },
    {
      "inputs": [
        {
          "internalType": "bytes4",
          "name": "interfaceId",
          "type": "bytes4"
        }
      ],
      "name": "supportsInterface",
      "outputs": [
        {
          "internalType": "bool",
          "name": "",
          "type": "bool"
        }
      ],
      "stateMutability": "view",
      "type": "function"
    },
    {
      "inputs": [],
      "name": "symbol",
      "outputs": [
        {
          "internalType": "string",
          "name": "",
          "type": "string"
        }
      ],
      "stateMutability": "view",
      "type": "function"
    },
    {
      "inputs": [],
      "name": "totalAssets",
      "outputs": [
        {
          "internalType": "uint256",
          "name": "",
          "type": "uint256"
        }
      ],
      "stateMutability": "view",
      "type": "function"
    },
    {
      "inputs": [],
      "name": "totalSupply",
      "outputs": [
        {
          "internalType": "uint256",
          "name": "",
          "type": "uint256"
        }
      ],
      "stateMutability": "view",
      "type": "function"
    },
    {
      "inputs": [
        {
          "internalType": "address",
          "name": "to",
          "type": "address"
        },
        {
          "internalType": "uint256",
          "name": "amount",
          "type": "uint256"
        }
      ],
      "name": "transfer",
      "outputs": [
        {
          "internalType": "bool",
          "name": "",
          "type": "bool"
        }
      ],
      "stateMutability": "nonpayable",
      "type": "function"
    },
    {
      "inputs": [
        {
          "internalType": "address",
          "name": "to",
          "type": "address"
        }
      ],
      "name": "transferAdmin",
      "outputs": [],
      "stateMutability": "nonpayable",
      "type": "function"
    },
    {
      "inputs": [
        {
          "internalType": "address",
          "name": "from",
          "type": "address"
        },
        {
          "internalType": "address",
          "name": "to",
          "type": "address"
        },
        {
          "internalType": "uint256",
          "name": "amount",
          "type": "uint256"
        }
      ],
      "name": "transferFrom",
      "outputs": [
        {
          "internalType": "bool",
          "name": "",
          "type": "bool"
        }
      ],
      "stateMutability": "nonpayable",
      "type": "function"
    },
    {
      "inputs": [
        {
          "internalType": "address",
          "name": "to",
          "type": "address"
        },
        {
          "internalType": "uint256",
          "name": "amount",
          "type": "uint256"
        }
      ],
      "name": "transferOutAssets",
      "outputs": [],
      "stateMutability": "nonpayable",
      "type": "function"
    },
    {
      "inputs": [
        {
          "internalType": "address",
          "name": "newOwner",
          "type": "address"
        }
      ],
      "name": "transferOwnership",
      "outputs": [],
      "stateMutability": "nonpayable",
      "type": "function"
    },
    {
      "inputs": [],
      "name": "vaultReward",
      "outputs": [
        {
          "internalType": "address",
          "name": "",
          "type": "address"
        }
      ],
      "stateMutability": "view",
      "type": "function"
    },
    {
      "inputs": [],
      "name": "vaultRouter",
      "outputs": [
        {
          "internalType": "contract IVaultRouter",
          "name": "",
          "type": "address"
        }
      ],
      "stateMutability": "view",
      "type": "function"
    },
    {
      "inputs": [
        {
          "internalType": "uint256",
          "name": "assets",
          "type": "uint256"
        },
        {
          "internalType": "address",
          "name": "receiver",
          "type": "address"
        },
        {
          "internalType": "address",
          "name": "owner",
          "type": "address"
        }
      ],
      "name": "withdraw",
      "outputs": [
        {
          "internalType": "uint256",
          "name": "",
          "type": "uint256"
        }
      ],
      "stateMutability": "nonpayable",
      "type": "function"
    }
  ],
  "bytecode": "0x60806040526009805460ff60a01b1916905534801561001d57600080fd5b506100273361002c565b61007e565b600780546001600160a01b038381166001600160a01b0319831681179093556040519116919082907f8be0079c531659141344cd1fd0a4f28419497f9722a3daafe3b4186f6b6457e090600090a35050565b61326e806200008e6000396000f3fe608060405234801561001057600080fd5b50600436106103835760003560e01c80637fe4a698116101de578063c31295d41161010f578063d547741f116100ad578063ef8b30f71161007c578063ef8b30f7146106fa578063f29ebf6114610788578063f2fde38b1461079b578063f4ca4d1d146107ae57600080fd5b8063d547741f1461073c578063d905777e1461074f578063db8d8fc614610762578063dd62ed3e1461077557600080fd5b8063c6e6f592116100e9578063c6e6f592146106fa578063c7b8b46d1461070d578063ce96cb7714610716578063d37c441c1461072957600080fd5b8063c31295d4146106b2578063c4cc8bbb146106d2578063c63d75b6146106e557600080fd5b8063a457c2d71161017c578063b460af9411610156578063b460af9414610665578063ba08765214610678578063c154d6ca1461068b578063c267ada41461069f57600080fd5b8063a457c2d71461062c578063a9059cbb1461063f578063b3d7f6b91461065257600080fd5b806394bf804d116101b857806394bf804d146105f657806395d89b4114610609578063966be07514610611578063a217fddf1461062457600080fd5b80637fe4a698146105bf5780638da5cb5b146105d257806391d14854146105e357600080fd5b806335269315116102b85780634cdad5061161025657806370a082311161023057806370a0823114610568578063715018a61461059157806375829def14610599578063780e72ff146105ac57600080fd5b80634cdad506146103db5780636e553f651461054c5780636fd3acb41461055f57600080fd5b806339509351116102925780633950935114610500578063402d267d1461051357806345be08da146105265780634b313b811461053957600080fd5b806335269315146104bf57806336568abe146104c857806338d52e0f146104db57600080fd5b806318160ddd116103255780632e7e8415116102ff5780632e7e8415146104675780632f2ff15d1461047a578063313ce5671461048d578063315c1e08146104ac57600080fd5b806318160ddd1461042957806323b872dd14610431578063248a9ca31461044457600080fd5b806307a2d13a1161036157806307a2d13a146103db578063095ea7b3146103ee5780630a28a477146104015780630c3b0df21461041457600080fd5b806301e1d1141461038857806301ffc9a7146103a357806306fdde03146103c6575b600080fd5b6103906107b6565b6040519081526020015b60405180910390f35b6103b66103b1366004612a24565b610829565b604051901515815260200161039a565b6103ce610860565b60405161039a9190612a72565b6103906103e9366004612aa5565b6108f2565b6103b66103fc366004612ada565b6108ff565b61039061040f366004612aa5565b610917565b610427610422366004612ada565b610924565b005b600254610390565b6103b661043f366004612b04565b61095b565b610390610452366004612aa5565b60009081526006602052604090206001015490565b610390610475366004612b4e565b610981565b610427610488366004612b6b565b610998565b600554600160a01b900460ff1660405160ff909116815260200161039a565b6103906104ba366004612b97565b6109c2565b610390600c5481565b6104276104d6366004612b6b565b610a0d565b6005546001600160a01b03165b6040516001600160a01b03909116815260200161039a565b6103b661050e366004612ada565b610a8c565b610390610521366004612bb5565b610aae565b610427610534366004612b97565b610acc565b600f546104e8906001600160a01b031681565b61039061055a366004612b6b565b610b3a565b610390600d5481565b610390610576366004612bb5565b6001600160a01b031660009081526020819052604090205490565b610427610bad565b6104276105a7366004612bb5565b610bc1565b6104276105ba366004612bb5565b610beb565b6104276105cd366004612bb5565b610c98565b6007546001600160a01b03166104e8565b6103b66105f1366004612b6b565b610cc2565b610390610604366004612b6b565b610ced565b6103ce610d07565b61042761061f366004612aa5565b610d16565b610390600081565b6103b661063a366004612ada565b610d69565b6103b661064d366004612ada565b610def565b610390610660366004612aa5565b610dfd565b610390610673366004612bd0565b610e0a565b610390610686366004612bd0565b610e86565b6009546103b690600160a01b900460ff1681565b6104276106ad366004612bb5565b610efa565b6103906106c0366004612bb5565b600b6020526000908152604090205481565b6104276106e0366004612b4e565b610f33565b6103906106f3366004612bb5565b5060001990565b610390610708366004612aa5565b610fa9565b610390600e5481565b610390610724366004612bb5565b610fb6565b6009546104e8906001600160a01b031681565b61042761074a366004612b6b565b610fda565b61039061075d366004612bb5565b610fff565b610427610770366004612caf565b61101d565b610390610783366004612d54565b611223565b600a546104e8906001600160a01b031681565b6104276107a9366004612bb5565b61124e565b6103906112c4565b60095460408051636dc7b0a160e01b815290516000926001600160a01b031691636dc7b0a19160048083019260209291908290030181865afa158015610800573d6000803e3d6000fd5b505050506040513d601f19601f820116820180604052508101906108249190612d7e565b905090565b60006001600160e01b03198216637965db0b60e01b148061085a57506301ffc9a760e01b6001600160e01b03198316145b92915050565b60606003805461086f90612d97565b80601f016020809104026020016040519081016040528092919081815260200182805461089b90612d97565b80156108e85780601f106108bd576101008083540402835291602001916108e8565b820191906000526020600020905b8154815290600101906020018083116108cb57829003601f168201915b5050505050905090565b600061085a8260006112d3565b60003361090d818585611355565b5060019392505050565b600061085a826001611479565b61093b6000805160206131f98339815191526114be565b6109576109506005546001600160a01b031690565b83836114c8565b5050565b60003361096985828561152b565b6109748585856115a5565b60019150505b9392505050565b60008161099057600e5461085a565b5050600d5490565b6000828152600660205260409020600101546109b3816114be565b6109bd8383611754565b505050565b600082156109f4576109d66008600a612ecb565b600d546109e39084612ed7565b6109ed9190612f04565b905061085a565b610a006008600a612ecb565b600e546109e39084612ed7565b6001600160a01b0381163314610a825760405162461bcd60e51b815260206004820152602f60248201527f416363657373436f6e74726f6c3a2063616e206f6e6c792072656e6f756e636560448201526e103937b632b9903337b91039b2b63360891b60648201526084015b60405180910390fd5b61095782826117da565b60003361090d818585610a9f8383611223565b610aa99190612f26565b611355565b6000610ab8611841565b610ac357600061085a565b60001992915050565b610ae36000805160206132198339815191526114be565b81610af35780600e819055610afa565b80600d8190555b50604080518315158152602081018390527f7f7f1bc207db1b3f896247af386fe2184613f48428c0d500cbc9f4d0ac5acfab910160405180910390a15050565b6000610b4582610aae565b831115610b945760405162461bcd60e51b815260206004820152601e60248201527f455243343632363a206465706f736974206d6f7265207468616e206d617800006044820152606401610a79565b6000610b9f84610fa9565b905061097a3384868461185b565b610bb56119fd565b610bbf6000611a57565b565b6000610bcc816114be565b610bd7600083611aa9565b610be082611a57565b6109576000336117da565b610c026000805160206132198339815191526114be565b6009546001600160a01b031615610c3857600954610c38906000805160206131f9833981519152906001600160a01b03166117da565b600980546001600160a01b0319166001600160a01b038316179055610c6b6000805160206131f983398151915282611754565b610c957f92de27771f92d6942691d73358b3a4673e4880de8356f8f2cf452be87e02d36382611754565b50565b7f8d1089725c0dc266707fa6207730fb801dcd03108bfed7a21099bd303651d2b7610383816114be565b60009182526006602090815260408084206001600160a01b0393909316845291905290205460ff1690565b600080610cf984610dfd565b905061097a3384838761185b565b60606004805461086f90612d97565b610d2d6000805160206132198339815191526114be565b600c8190556040518181527f57309e54eb3c050199477e2c187a12eec0088a1f1722c43a9178d621edf39e98906020015b60405180910390a150565b60003381610d778286611223565b905083811015610dd75760405162461bcd60e51b815260206004820152602560248201527f45524332303a2064656372656173656420616c6c6f77616e63652062656c6f77604482015264207a65726f60d81b6064820152608401610a79565b610de48286868403611355565b506001949350505050565b60003361090d8185856115a5565b600061085a8260016112d3565b6000610e1582610fb6565b841115610e645760405162461bcd60e51b815260206004820152601f60248201527f455243343632363a207769746864726177206d6f7265207468616e206d6178006044820152606401610a79565b6000610e6f85610917565b9050610e7e3385858885611ab3565b949350505050565b6000610e9182610fff565b841115610ee05760405162461bcd60e51b815260206004820152601d60248201527f455243343632363a2072656465656d206d6f7265207468616e206d61780000006044820152606401610a79565b6000610eeb856108f2565b9050610e7e3385858489611ab3565b610f116000805160206132198339815191526114be565b600a80546001600160a01b0319166001600160a01b0392909216919091179055565b610f5c7f92de27771f92d6942691d73358b3a4673e4880de8356f8f2cf452be87e02d3636114be565b60098054821515600160a01b0260ff60a01b199091161790556040517f304980e7a98cd251f25e85dbe838e498ece26e6aeba1e9912871343633eea86c90610d5e90831515815260200190565b600061085a826000611479565b6001600160a01b03811660009081526020819052604081205461085a9060006112d3565b600082815260066020526040902060010154610ff5816114be565b6109bd83836117da565b6001600160a01b03811660009081526020819052604081205461085a565b600754600160a81b900460ff161580801561104557506007546001600160a01b90910460ff16105b806110665750303b1580156110665750600754600160a01b900460ff166001145b6110c95760405162461bcd60e51b815260206004820152602e60248201527f496e697469616c697a61626c653a20636f6e747261637420697320616c72656160448201526d191e481a5b9a5d1a585b1a5e995960921b6064820152608401610a79565b6007805460ff60a01b1916600160a01b17905580156110f6576007805460ff60a81b1916600160a81b1790555b6111008686611c7a565b61110987611c93565b61111233611cf1565b600980546001600160a01b0319166001600160a01b0386161790556111456000805160206131f983398151915285611754565b61116f7f92de27771f92d6942691d73358b3a4673e4880de8356f8f2cf452be87e02d36385611754565b600a80546001600160a01b0319166001600160a01b038516178155610384600c5560649061119f90600890612ecb565b6111aa906001612ed7565b6111b49190612f04565b600e55600f80546001600160a01b0319166001600160a01b038416179055801561121a576007805460ff60a81b19169055604051600181527f7f26b83ff96e1f2b6a682f133852f6798a09c465da95921460cefb38474024989060200160405180910390a15b50505050505050565b6001600160a01b03918216600090815260016020908152604080832093909416825291909152205490565b6112566119fd565b6001600160a01b0381166112bb5760405162461bcd60e51b815260206004820152602660248201527f4f776e61626c653a206e6577206f776e657220697320746865207a65726f206160448201526564647265737360d01b6064820152608401610a79565b610c9581611a57565b6112d06008600a612ecb565b81565b60006112df8383611d14565b9050600060018360028111156112f7576112f7612f39565b149050801561134157600d5461130f6008600a612ecb565b6113199190612f4f565b6113256008600a612ecb565b61132f9084612ed7565b6113399190612f04565b91505061085a565b61134b81836109c2565b6113399083612f4f565b6001600160a01b0383166113b75760405162461bcd60e51b8152602060048201526024808201527f45524332303a20617070726f76652066726f6d20746865207a65726f206164646044820152637265737360e01b6064820152608401610a79565b6001600160a01b0382166114185760405162461bcd60e51b815260206004820152602260248201527f45524332303a20617070726f766520746f20746865207a65726f206164647265604482015261737360f01b6064820152608401610a79565b6001600160a01b0383811660008181526001602090815260408083209487168084529482529182902085905590518481527f8c5be1e5ebec7d5bd14f71427d1e84f3dd0314c0f7b2291e5b200ac8c7c3b925910160405180910390a3505050565b60006114858383611d47565b905060008083600281111561149c5761149c612f39565b14905080156114af5761134b81836109c2565b600e5461130f6008600a612ecb565b610c958133611d79565b6040516001600160a01b0383166024820152604481018290526109bd90849063a9059cbb60e01b906064015b60408051601f198184030181529190526020810180516001600160e01b03166001600160e01b031990931692909217909152611dd2565b60006115378484611223565b9050600019811461159f57818110156115925760405162461bcd60e51b815260206004820152601d60248201527f45524332303a20696e73756666696369656e7420616c6c6f77616e63650000006044820152606401610a79565b61159f8484848403611355565b50505050565b6001600160a01b0383166116095760405162461bcd60e51b815260206004820152602560248201527f45524332303a207472616e736665722066726f6d20746865207a65726f206164604482015264647265737360d81b6064820152608401610a79565b6001600160a01b03821661166b5760405162461bcd60e51b815260206004820152602360248201527f45524332303a207472616e7366657220746f20746865207a65726f206164647260448201526265737360e81b6064820152608401610a79565b611676838383611ea4565b6001600160a01b038316600090815260208190526040902054818110156116ee5760405162461bcd60e51b815260206004820152602660248201527f45524332303a207472616e7366657220616d6f756e7420657863656564732062604482015265616c616e636560d01b6064820152608401610a79565b6001600160a01b03848116600081815260208181526040808320878703905593871680835291849020805487019055925185815290927fddf252ad1be2c89b69c2b068fc378daa952ba7f163c4a11628f55a4df523b3ef910160405180910390a361159f565b61175e8282610cc2565b6109575760008281526006602090815260408083206001600160a01b03851684529091529020805460ff191660011790556117963390565b6001600160a01b0316816001600160a01b0316837f2f8788117e7eff1d82e926ec794901d17c78024a50270940304540a733656f0d60405160405180910390a45050565b6117e48282610cc2565b156109575760008281526006602090815260408083206001600160a01b0385168085529252808320805460ff1916905551339285917ff6391f5c32d9c69d2a47ea670b442974b53935d1edc7fd64eb21e047a839171b9190a45050565b60008061184c6107b6565b11806108245750506002541590565b600954600160a01b900460ff16156118a45760405162461bcd60e51b815260206004820152600c60248201526b7661756c743a667265657a6560a01b6044820152606401610a79565b600f546001600160a01b031633146118ee5760405162461bcd60e51b815260206004820152600d60248201526c1858d8d95cdcc819195a5b9959609a1b6044820152606401610a79565b6001600160a01b0383166000908152600b60205260408120429055611914826001611d14565b9050600081841161192e576119298483612f4f565b611938565b6119388285612f4f565b90506000828511611949578261194b565b845b905061195660025490565b6000036119795761196a60006103e8611fe6565b6119766103e885612f4f565b93505b6119858787838761205b565b6119a38661199b6005546001600160a01b031690565b8460016120d9565b60408051868152602081018690529081018390526001600160a01b0380881691908916907f502b1539e5ec91b2596d2d64d20b1f89c28d2e11fc7d74961c930cd221669e329060600160405180910390a350505050505050565b6007546001600160a01b03163314610bbf5760405162461bcd60e51b815260206004820181905260248201527f4f776e61626c653a2063616c6c6572206973206e6f7420746865206f776e65726044820152606401610a79565b600780546001600160a01b038381166001600160a01b0319831681179093556040519116919082907f8be0079c531659141344cd1fd0a4f28419497f9722a3daafe3b4186f6b6457e090600090a35050565b6109578282611754565b600954600160a01b900460ff1615611afc5760405162461bcd60e51b815260206004820152600c60248201526b7661756c743a667265657a6560a01b6044820152606401610a79565b600f546001600160a01b03163314611b465760405162461bcd60e51b815260206004820152600d60248201526c1858d8d95cdcc819195a5b9959609a1b6044820152606401610a79565b6001600160a01b0383166000908152600b6020526040902054600c54611b6c9190612f26565b4211611bab5760405162461bcd60e51b815260206004820152600e60248201526d3b30bab63a1d31b7b7b63237bbb760911b6044820152606401610a79565b6000611bb8826000611d14565b9050828111600081611bca5782611bcc565b845b9050611bdb88888884886122b7565b600082611bf157611bec8487612f4f565b611bfb565b611bfb8685612f4f565b9050611c1b87611c136005546001600160a01b031690565b8360006120d9565b60408051878152602081018790529081018290526001600160a01b03808916918a8216918c16907fbd93a9fa352132d84f0041011cee9c7891c834f670c204950c0310d49be30edf9060600160405180910390a4505050505050505050565b6003611c868382612fb0565b5060046109bd8282612fb0565b600080611c9f83612363565b9150915081611caf576012611cb1565b805b600580546001600160a01b039095166001600160a01b031960ff93909316600160a01b02929092166001600160a81b031990951694909417179092555050565b42600855611cfe33611a57565b611d09600033611aa9565b610c95600082611aa9565b600080611d2060025490565b90508015611d4157611d3c611d336107b6565b8590838661243f565b610e7e565b83610e7e565b600080611d5360025490565b9050831580611d60575080155b611d4157611d3c81611d706107b6565b8691908661243f565b611d838282610cc2565b61095757611d908161249c565b611d9b8360206124ae565b604051602001611dac929190613070565b60408051601f198184030181529082905262461bcd60e51b8252610a7991600401612a72565b6000611e27826040518060400160405280602081526020017f5361666545524332303a206c6f772d6c6576656c2063616c6c206661696c6564815250856001600160a01b031661264a9092919063ffffffff16565b8051909150156109bd5780806020019051810190611e4591906130e5565b6109bd5760405162461bcd60e51b815260206004820152602a60248201527f5361666545524332303a204552433230206f7065726174696f6e20646964206e6044820152691bdd081cdd58d8d9595960b21b6064820152608401610a79565b6001600160a01b038316611f1257600f54604051630f71585960e11b81526001600160a01b03848116600483015290911690631ee2b0b290602401600060405180830381600087803b158015611ef957600080fd5b505af1158015611f0d573d6000803e3d6000fd5b505050505b6001600160a01b038216611f8057600f54604051630f71585960e11b81526001600160a01b03858116600483015290911690631ee2b0b290602401600060405180830381600087803b158015611f6757600080fd5b505af1158015611f7b573d6000803e3d6000fd5b505050505b6001600160a01b0383161580611f9d57506001600160a01b038216155b15611fa757505050565b60405162461bcd60e51b81526020600482015260146024820152731d1c985b9cd9995c881b9bdd08185b1b1bddd95960621b6044820152606401610a79565b611ff260008383611ea4565b80600260008282546120049190612f26565b90915550506001600160a01b038216600081815260208181526040808320805486019055518481527fddf252ad1be2c89b69c2b068fc378daa952ba7f163c4a11628f55a4df523b3ef910160405180910390a35050565b600554612073906001600160a01b0316853085612659565b61207d8382611fe6565b826001600160a01b0316846001600160a01b03167fdcbc1c05240f31ff3ad067ef1ee35ce4997762752e3a095284754544f4c709d784846040516120cb929190918252602082015260400190565b60405180910390a350505050565b811561159f576000816120ed5760066120f0565b60055b905060006120ff826001613102565b60ff1667ffffffffffffffff81111561211a5761211a612c0c565b604051908082528060200260200182016040528015612143578160200160208202803683370190505b50600a5460405163095ea7b360e01b81526001600160a01b0391821660048201526024810187905291925086169063095ea7b3906044016020604051808303816000875af1158015612199573d6000803e3d6000fd5b505050506040513d601f19601f820116820180604052508101906121bd91906130e5565b5061222984866001600160a01b031663313ce5676040518163ffffffff1660e01b8152600401602060405180830381865afa158015612200573d6000803e3d6000fd5b505050506040513d601f19601f82011682018060405250810190612224919061311b565b612691565b818360ff168151811061223e5761223e61313e565b6020908102919091010152600a5460405163e50f19ef60e01b81526001600160a01b039091169063e50f19ef9061227d90899089908690600401613154565b600060405180830381600087803b15801561229757600080fd5b505af11580156122ab573d6000803e3d6000fd5b50505050505050505050565b826001600160a01b0316856001600160a01b0316146122db576122db83868361152b565b6122e583826126be565b6005546122fc906001600160a01b031685846114c8565b826001600160a01b0316846001600160a01b0316866001600160a01b03167ffbde797d201c681b91056529119e0b02407c7bb96a4a2c75c01fc9667232c8db8585604051612354929190918252602082015260400190565b60405180910390a45050505050565b60408051600481526024810182526020810180516001600160e01b031663313ce56760e01b17905290516000918291829182916001600160a01b038716916123aa916131b6565b600060405180830381855afa9150503d80600081146123e5576040519150601f19603f3d011682016040523d82523d6000602084013e6123ea565b606091505b50915091508180156123fe57506020815110155b15612432576000818060200190518101906124199190612d7e565b905060ff8111612430576001969095509350505050565b505b5060009485945092505050565b60008061244d8686866127fc565b9050600183600281111561246357612463612f39565b14801561248057506000848061247b5761247b612eee565b868809115b1561249357612490600182612f26565b90505b95945050505050565b606061085a6001600160a01b03831660145b606060006124bd836002612ed7565b6124c8906002612f26565b67ffffffffffffffff8111156124e0576124e0612c0c565b6040519080825280601f01601f19166020018201604052801561250a576020820181803683370190505b509050600360fc1b816000815181106125255761252561313e565b60200101906001600160f81b031916908160001a905350600f60fb1b816001815181106125545761255461313e565b60200101906001600160f81b031916908160001a9053506000612578846002612ed7565b612583906001612f26565b90505b60018111156125fb576f181899199a1a9b1b9c1cb0b131b232b360811b85600f16601081106125b7576125b761313e565b1a60f81b8282815181106125cd576125cd61313e565b60200101906001600160f81b031916908160001a90535060049490941c936125f4816131d2565b9050612586565b50831561097a5760405162461bcd60e51b815260206004820181905260248201527f537472696e67733a20686578206c656e67746820696e73756666696369656e746044820152606401610a79565b6060610e7e84846000856128ab565b6040516001600160a01b038085166024830152831660448201526064810182905261159f9085906323b872dd60e01b906084016114f4565b600061269e82600a6131e9565b6126aa6012600a612ecb565b6126b49085612ed7565b61097a9190612f04565b6001600160a01b03821661271e5760405162461bcd60e51b815260206004820152602160248201527f45524332303a206275726e2066726f6d20746865207a65726f206164647265736044820152607360f81b6064820152608401610a79565b61272a82600083611ea4565b6001600160a01b0382166000908152602081905260409020548181101561279e5760405162461bcd60e51b815260206004820152602260248201527f45524332303a206275726e20616d6f756e7420657863656564732062616c616e604482015261636560f01b6064820152608401610a79565b6001600160a01b0383166000818152602081815260408083208686039055600280548790039055518581529192917fddf252ad1be2c89b69c2b068fc378daa952ba7f163c4a11628f55a4df523b3ef910160405180910390a3505050565b60008080600019858709858702925082811083820303915050806000036128365783828161282c5761282c612eee565b049250505061097a565b80841161284257600080fd5b60008486880960026001871981018816978890046003810283188082028403028082028403028082028403028082028403028082028403029081029092039091026000889003889004909101858311909403939093029303949094049190911702949350505050565b60608247101561290c5760405162461bcd60e51b815260206004820152602660248201527f416464726573733a20696e73756666696369656e742062616c616e636520666f6044820152651c8818d85b1b60d21b6064820152608401610a79565b600080866001600160a01b0316858760405161292891906131b6565b60006040518083038185875af1925050503d8060008114612965576040519150601f19603f3d011682016040523d82523d6000602084013e61296a565b606091505b509150915061297b87838387612986565b979650505050505050565b606083156129f55782516000036129ee576001600160a01b0385163b6129ee5760405162461bcd60e51b815260206004820152601d60248201527f416464726573733a2063616c6c20746f206e6f6e2d636f6e74726163740000006044820152606401610a79565b5081610e7e565b610e7e8383815115612a0a5781518083602001fd5b8060405162461bcd60e51b8152600401610a799190612a72565b600060208284031215612a3657600080fd5b81356001600160e01b03198116811461097a57600080fd5b60005b83811015612a69578181015183820152602001612a51565b50506000910152565b6020815260008251806020840152612a91816040850160208701612a4e565b601f01601f19169190910160400192915050565b600060208284031215612ab757600080fd5b5035919050565b80356001600160a01b0381168114612ad557600080fd5b919050565b60008060408385031215612aed57600080fd5b612af683612abe565b946020939093013593505050565b600080600060608486031215612b1957600080fd5b612b2284612abe565b9250612b3060208501612abe565b9150604084013590509250925092565b8015158114610c9557600080fd5b600060208284031215612b6057600080fd5b813561097a81612b40565b60008060408385031215612b7e57600080fd5b82359150612b8e60208401612abe565b90509250929050565b60008060408385031215612baa57600080fd5b8235612af681612b40565b600060208284031215612bc757600080fd5b61097a82612abe565b600080600060608486031215612be557600080fd5b83359250612bf560208501612abe565b9150612c0360408501612abe565b90509250925092565b634e487b7160e01b600052604160045260246000fd5b600082601f830112612c3357600080fd5b813567ffffffffffffffff80821115612c4e57612c4e612c0c565b604051601f8301601f19908116603f01168101908282118183101715612c7657612c76612c0c565b81604052838152866020858801011115612c8f57600080fd5b836020870160208301376000602085830101528094505050505092915050565b60008060008060008060c08789031215612cc857600080fd5b612cd187612abe565b9550602087013567ffffffffffffffff80821115612cee57600080fd5b612cfa8a838b01612c22565b96506040890135915080821115612d1057600080fd5b50612d1d89828a01612c22565b945050612d2c60608801612abe565b9250612d3a60808801612abe565b9150612d4860a08801612abe565b90509295509295509295565b60008060408385031215612d6757600080fd5b612d7083612abe565b9150612b8e60208401612abe565b600060208284031215612d9057600080fd5b5051919050565b600181811c90821680612dab57607f821691505b602082108103612dcb57634e487b7160e01b600052602260045260246000fd5b50919050565b634e487b7160e01b600052601160045260246000fd5b600181815b80851115612e22578160001904821115612e0857612e08612dd1565b80851615612e1557918102915b93841c9390800290612dec565b509250929050565b600082612e395750600161085a565b81612e465750600061085a565b8160018114612e5c5760028114612e6657612e82565b600191505061085a565b60ff841115612e7757612e77612dd1565b50506001821b61085a565b5060208310610133831016604e8410600b8410161715612ea5575081810a61085a565b612eaf8383612de7565b8060001904821115612ec357612ec3612dd1565b029392505050565b600061097a8383612e2a565b808202811582820484141761085a5761085a612dd1565b634e487b7160e01b600052601260045260246000fd5b600082612f2157634e487b7160e01b600052601260045260246000fd5b500490565b8082018082111561085a5761085a612dd1565b634e487b7160e01b600052602160045260246000fd5b8181038181111561085a5761085a612dd1565b601f8211156109bd57600081815260208120601f850160051c81016020861015612f895750805b601f850160051c820191505b81811015612fa857828155600101612f95565b505050505050565b815167ffffffffffffffff811115612fca57612fca612c0c565b612fde81612fd88454612d97565b84612f62565b602080601f8311600181146130135760008415612ffb5750858301515b600019600386901b1c1916600185901b178555612fa8565b600085815260208120601f198616915b8281101561304257888601518255948401946001909101908401613023565b50858210156130605787850151600019600388901b60f8161c191681555b5050505050600190811b01905550565b7f416363657373436f6e74726f6c3a206163636f756e74200000000000000000008152600083516130a8816017850160208801612a4e565b7001034b99036b4b9b9b4b733903937b6329607d1b60179184019182015283516130d9816028840160208801612a4e565b01602801949350505050565b6000602082840312156130f757600080fd5b815161097a81612b40565b60ff818116838216019081111561085a5761085a612dd1565b60006020828403121561312d57600080fd5b815160ff8116811461097a57600080fd5b634e487b7160e01b600052603260045260246000fd5b6001600160a01b0384811682528316602080830191909152606060408301819052835190830181905260009184810191608085019190845b818110156131a85784518452938201939282019260010161318c565b509198975050505050505050565b600082516131c8818460208701612a4e565b9190910192915050565b6000816131e1576131e1612dd1565b506000190190565b600061097a60ff841683612e2a56fecb58d6d985142a614029cdf01861b4fe094d5919a47e69b8310dc4093d9d6ad0241ecf16d79d0f8dbfb92cbc07fe17840425976cf0667f022fe9877caa831b08a26469706673582212208fb4aa36a7a2d0214d2ee230d01b210d75d6e5521df02723c166c48540c85fea64736f6c63430008110033",
  "linkReferences": {},
  "deployedLinkReferences": {}
}