{
  "_format": "hh-sol-artifact-1",
  "contractName": "CoreVault",
  "sourceName": "contracts/vault/CoreVault.sol",
  "abi": [
    {
      "anonymous": false,
      "inputs": [
        {
          "indexed": false,
          "internalType": "bool",
          "name": "allow",
          "type": "bool"
        }
      ],
      "name": "AllowBuy",
      "type": "event"
    },
    {
      "anonymous": false,
      "inputs": [
        {
          "indexed": true,
          "internalType": "address",
          "name": "owner",
          "type": "address"
        },
        {
          "indexed": true,
          "internalType": "address",
          "name": "spender",
          "type": "address"
        },
        {
          "indexed": false,
          "internalType": "uint256",
          "name": "value",
          "type": "uint256"
        }
      ],
      "name": "Approval",
      "type": "event"
    },
    {
      "anonymous": false,
      "inputs": [
        {
          "indexed": false,
          "internalType": "uint256",
          "name": "duration",
          "type": "uint256"
        }
      ],
      "name": "CoolDownDurationUpdated",
      "type": "event"
    },
    {
      "anonymous": false,
      "inputs": [
        {
          "indexed": true,
          "internalType": "address",
          "name": "sender",
          "type": "address"
        },
        {
          "indexed": true,
          "internalType": "address",
          "name": "owner",
          "type": "address"
        },
        {
          "indexed": false,
          "internalType": "uint256",
          "name": "assets",
          "type": "uint256"
        },
        {
          "indexed": false,
          "internalType": "uint256",
          "name": "shares",
          "type": "uint256"
        }
      ],
      "name": "Deposit",
      "type": "event"
    },
    {
      "anonymous": false,
      "inputs": [
        {
          "indexed": true,
          "internalType": "address",
          "name": "sender",
          "type": "address"
        },
        {
          "indexed": true,
          "internalType": "address",
          "name": "owner",
          "type": "address"
        },
        {
          "indexed": false,
          "internalType": "uint256",
          "name": "assets",
          "type": "uint256"
        },
        {
          "indexed": false,
          "internalType": "uint256",
          "name": "shares",
          "type": "uint256"
        },
        {
          "indexed": false,
          "internalType": "uint256",
          "name": "fee",
          "type": "uint256"
        }
      ],
      "name": "DepositAsset",
      "type": "event"
    },
    {
      "anonymous": false,
      "inputs": [
        {
          "indexed": false,
          "internalType": "uint8",
          "name": "version",
          "type": "uint8"
        }
      ],
      "name": "Initialized",
      "type": "event"
    },
    {
      "anonymous": false,
      "inputs": [
        {
          "indexed": false,
          "internalType": "bool",
          "name": "isBuy",
          "type": "bool"
        },
        {
          "indexed": false,
          "internalType": "uint256",
          "name": "fee",
          "type": "uint256"
        }
      ],
      "name": "LPFeeUpdated",
      "type": "event"
    },
    {
      "anonymous": false,
      "inputs": [
        {
          "indexed": false,
          "internalType": "bool",
          "name": "isFreeze",
          "type": "bool"
        }
      ],
      "name": "LogIsFreeze",
      "type": "event"
    },
    {
      "anonymous": false,
      "inputs": [
        {
          "indexed": true,
          "internalType": "address",
          "name": "previousOwner",
          "type": "address"
        },
        {
          "indexed": true,
          "internalType": "address",
          "name": "newOwner",
          "type": "address"
        }
      ],
      "name": "OwnershipTransferred",
      "type": "event"
    },
    {
      "anonymous": false,
      "inputs": [
        {
          "indexed": true,
          "internalType": "bytes32",
          "name": "role",
          "type": "bytes32"
        },
        {
          "indexed": true,
          "internalType": "bytes32",
          "name": "previousAdminRole",
          "type": "bytes32"
        },
        {
          "indexed": true,
          "internalType": "bytes32",
          "name": "newAdminRole",
          "type": "bytes32"
        }
      ],
      "name": "RoleAdminChanged",
      "type": "event"
    },
    {
      "anonymous": false,
      "inputs": [
        {
          "indexed": true,
          "internalType": "bytes32",
          "name": "role",
          "type": "bytes32"
        },
        {
          "indexed": true,
          "internalType": "address",
          "name": "account",
          "type": "address"
        },
        {
          "indexed": true,
          "internalType": "address",
          "name": "sender",
          "type": "address"
        }
      ],
      "name": "RoleGranted",
      "type": "event"
    },
    {
      "anonymous": false,
      "inputs": [
        {
          "indexed": true,
          "internalType": "bytes32",
          "name": "role",
          "type": "bytes32"
        },
        {
          "indexed": true,
          "internalType": "address",
          "name": "account",
          "type": "address"
        },
        {
          "indexed": true,
          "internalType": "address",
          "name": "sender",
          "type": "address"
        }
      ],
      "name": "RoleRevoked",
      "type": "event"
    },
    {
      "anonymous": false,
      "inputs": [
        {
          "indexed": true,
          "internalType": "address",
          "name": "from",
          "type": "address"
        },
        {
          "indexed": true,
          "internalType": "address",
          "name": "to",
          "type": "address"
        },
        {
          "indexed": false,
          "internalType": "uint256",
          "name": "value",
          "type": "uint256"
        }
      ],
      "name": "Transfer",
      "type": "event"
    },
    {
      "anonymous": false,
      "inputs": [
        {
          "indexed": true,
          "internalType": "address",
          "name": "sender",
          "type": "address"
        },
        {
          "indexed": true,
          "internalType": "address",
          "name": "receiver",
          "type": "address"
        },
        {
          "indexed": true,
          "internalType": "address",
          "name": "owner",
          "type": "address"
        },
        {
          "indexed": false,
          "internalType": "uint256",
          "name": "assets",
          "type": "uint256"
        },
        {
          "indexed": false,
          "internalType": "uint256",
          "name": "shares",
          "type": "uint256"
        }
      ],
      "name": "Withdraw",
      "type": "event"
    },
    {
      "anonymous": false,
      "inputs": [
        {
          "indexed": true,
          "internalType": "address",
          "name": "sender",
          "type": "address"
        },
        {
          "indexed": true,
          "internalType": "address",
          "name": "receiver",
          "type": "address"
        },
        {
          "indexed": true,
          "internalType": "address",
          "name": "owner",
          "type": "address"
        },
        {
          "indexed": false,
          "internalType": "uint256",
          "name": "assets",
          "type": "uint256"
        },
        {
          "indexed": false,
          "internalType": "uint256",
          "name": "shares",
          "type": "uint256"
        },
        {
          "indexed": false,
          "internalType": "uint256",
          "name": "fee",
          "type": "uint256"
        }
      ],
      "name": "WithdrawAsset",
      "type": "event"
    },
    {
      "inputs": [],
      "name": "DEFAULT_ADMIN_ROLE",
      "outputs": [
        {
          "internalType": "bytes32",
          "name": "",
          "type": "bytes32"
        }
      ],
      "stateMutability": "view",
      "type": "function"
    },
    {
      "inputs": [],
      "name": "FEE_RATE_PRECISION",
      "outputs": [
        {
          "internalType": "uint256",
          "name": "",
          "type": "uint256"
        }
      ],
      "stateMutability": "view",
      "type": "function"
    },
    {
      "inputs": [],
      "name": "allowBuy",
      "outputs": [
        {
          "internalType": "bool",
          "name": "",
          "type": "bool"
        }
      ],
      "stateMutability": "view",
      "type": "function"
    },
    {
      "inputs": [
        {
          "internalType": "address",
          "name": "owner",
          "type": "address"
        },
        {
          "internalType": "address",
          "name": "spender",
          "type": "address"
        }
      ],
      "name": "allowance",
      "outputs": [
        {
          "internalType": "uint256",
          "name": "",
          "type": "uint256"
        }
      ],
      "stateMutability": "view",
      "type": "function"
    },
    {
      "inputs": [
        {
          "internalType": "address",
          "name": "spender",
          "type": "address"
        },
        {
          "internalType": "uint256",
          "name": "amount",
          "type": "uint256"
        }
      ],
      "name": "approve",
      "outputs": [
        {
          "internalType": "bool",
          "name": "",
          "type": "bool"
        }
      ],
      "stateMutability": "nonpayable",
      "type": "function"
    },
    {
      "inputs": [],
      "name": "asset",
      "outputs": [
        {
          "internalType": "address",
          "name": "",
          "type": "address"
        }
      ],
      "stateMutability": "view",
      "type": "function"
    },
    {
      "inputs": [
        {
          "internalType": "address",
          "name": "account",
          "type": "address"
        }
      ],
      "name": "balanceOf",
      "outputs": [
        {
          "internalType": "uint256",
          "name": "",
          "type": "uint256"
        }
      ],
      "stateMutability": "view",
      "type": "function"
    },
    {
      "inputs": [],
      "name": "buyLpFee",
      "outputs": [
        {
          "internalType": "uint256",
          "name": "",
          "type": "uint256"
        }
      ],
      "stateMutability": "view",
      "type": "function"
    },
    {
      "inputs": [
        {
          "internalType": "bool",
          "name": "isBuy",
          "type": "bool"
        },
        {
          "internalType": "uint256",
          "name": "amount",
          "type": "uint256"
        }
      ],
      "name": "computationalCosts",
      "outputs": [
        {
          "internalType": "uint256",
          "name": "",
          "type": "uint256"
        }
      ],
      "stateMutability": "view",
      "type": "function"
    },
    {
      "inputs": [
        {
          "internalType": "uint256",
          "name": "shares",
          "type": "uint256"
        }
      ],
      "name": "convertToAssets",
      "outputs": [
        {
          "internalType": "uint256",
          "name": "assets",
          "type": "uint256"
        }
      ],
      "stateMutability": "view",
      "type": "function"
    },
    {
      "inputs": [
        {
          "internalType": "uint256",
          "name": "assets",
          "type": "uint256"
        }
      ],
      "name": "convertToShares",
      "outputs": [
        {
          "internalType": "uint256",
          "name": "shares",
          "type": "uint256"
        }
      ],
      "stateMutability": "view",
      "type": "function"
    },
    {
      "inputs": [],
      "name": "cooldownDuration",
      "outputs": [
        {
          "internalType": "uint256",
          "name": "",
          "type": "uint256"
        }
      ],
      "stateMutability": "view",
      "type": "function"
    },
    {
      "inputs": [],
      "name": "decimals",
      "outputs": [
        {
          "internalType": "uint8",
          "name": "",
          "type": "uint8"
        }
      ],
      "stateMutability": "view",
      "type": "function"
    },
    {
      "inputs": [
        {
          "internalType": "address",
          "name": "spender",
          "type": "address"
        },
        {
          "internalType": "uint256",
          "name": "subtractedValue",
          "type": "uint256"
        }
      ],
      "name": "decreaseAllowance",
      "outputs": [
        {
          "internalType": "bool",
          "name": "",
          "type": "bool"
        }
      ],
      "stateMutability": "nonpayable",
      "type": "function"
    },
    {
      "inputs": [
        {
          "internalType": "uint256",
          "name": "assets",
          "type": "uint256"
        },
        {
          "internalType": "address",
          "name": "receiver",
          "type": "address"
        }
      ],
      "name": "deposit",
      "outputs": [
        {
          "internalType": "uint256",
          "name": "",
          "type": "uint256"
        }
      ],
      "stateMutability": "nonpayable",
      "type": "function"
    },
    {
      "inputs": [],
      "name": "feeRouter",
      "outputs": [
        {
          "internalType": "contract IFeeRouter",
          "name": "",
          "type": "address"
        }
      ],
      "stateMutability": "view",
      "type": "function"
    },
    {
      "inputs": [
        {
          "internalType": "bool",
          "name": "isBuy",
          "type": "bool"
        }
      ],
      "name": "getLPFee",
      "outputs": [
        {
          "internalType": "uint256",
          "name": "",
          "type": "uint256"
        }
      ],
      "stateMutability": "view",
      "type": "function"
    },
    {
      "inputs": [
        {
          "internalType": "bytes32",
          "name": "role",
          "type": "bytes32"
        }
      ],
      "name": "getRoleAdmin",
      "outputs": [
        {
          "internalType": "bytes32",
          "name": "",
          "type": "bytes32"
        }
      ],
      "stateMutability": "view",
      "type": "function"
    },
    {
      "inputs": [
        {
          "internalType": "address",
          "name": "_account",
          "type": "address"
        }
      ],
      "name": "grantControllerRoleByMarketManager",
      "outputs": [],
      "stateMutability": "nonpayable",
      "type": "function"
    },
    {
      "inputs": [
        {
          "internalType": "bytes32",
          "name": "role",
          "type": "bytes32"
        },
        {
          "internalType": "address",
          "name": "account",
          "type": "address"
        }
      ],
      "name": "grantRole",
      "outputs": [],
      "stateMutability": "nonpayable",
      "type": "function"
    },
    {
      "inputs": [
        {
          "internalType": "bytes32",
          "name": "role",
          "type": "bytes32"
        },
        {
          "internalType": "address",
          "name": "account",
          "type": "address"
        }
      ],
      "name": "hasRole",
      "outputs": [
        {
          "internalType": "bool",
          "name": "",
          "type": "bool"
        }
      ],
      "stateMutability": "view",
      "type": "function"
    },
    {
      "inputs": [
        {
          "internalType": "address",
          "name": "spender",
          "type": "address"
        },
        {
          "internalType": "uint256",
          "name": "addedValue",
          "type": "uint256"
        }
      ],
      "name": "increaseAllowance",
      "outputs": [
        {
          "internalType": "bool",
          "name": "",
          "type": "bool"
        }
      ],
      "stateMutability": "nonpayable",
      "type": "function"
    },
    {
      "inputs": [
        {
          "internalType": "address",
          "name": "_asset",
          "type": "address"
        },
        {
          "internalType": "string",
          "name": "_name",
          "type": "string"
        },
        {
          "internalType": "string",
          "name": "_symbol",
          "type": "string"
        },
        {
          "internalType": "address",
          "name": "_vaultRouter",
          "type": "address"
        },
        {
          "internalType": "address",
          "name": "_feeRouter",
          "type": "address"
        },
        {
          "internalType": "address",
          "name": "_vaultReward",
          "type": "address"
        }
      ],
      "name": "initialize",
      "outputs": [],
      "stateMutability": "nonpayable",
      "type": "function"
    },
    {
      "inputs": [],
      "name": "isFreeze",
      "outputs": [
        {
          "internalType": "bool",
          "name": "",
          "type": "bool"
        }
      ],
      "stateMutability": "view",
      "type": "function"
    },
    {
      "inputs": [
        {
          "internalType": "address",
          "name": "",
          "type": "address"
        }
      ],
      "name": "lastDepositAt",
      "outputs": [
        {
          "internalType": "uint256",
          "name": "",
          "type": "uint256"
        }
      ],
      "stateMutability": "view",
      "type": "function"
    },
    {
      "inputs": [
        {
          "internalType": "address",
          "name": "",
          "type": "address"
        }
      ],
      "name": "maxDeposit",
      "outputs": [
        {
          "internalType": "uint256",
          "name": "",
          "type": "uint256"
        }
      ],
      "stateMutability": "view",
      "type": "function"
    },
    {
      "inputs": [
        {
          "internalType": "address",
          "name": "",
          "type": "address"
        }
      ],
      "name": "maxMint",
      "outputs": [
        {
          "internalType": "uint256",
          "name": "",
          "type": "uint256"
        }
      ],
      "stateMutability": "view",
      "type": "function"
    },
    {
      "inputs": [
        {
          "internalType": "address",
          "name": "owner",
          "type": "address"
        }
      ],
      "name": "maxRedeem",
      "outputs": [
        {
          "internalType": "uint256",
          "name": "",
          "type": "uint256"
        }
      ],
      "stateMutability": "view",
      "type": "function"
    },
    {
      "inputs": [
        {
          "internalType": "address",
          "name": "owner",
          "type": "address"
        }
      ],
      "name": "maxWithdraw",
      "outputs": [
        {
          "internalType": "uint256",
          "name": "",
          "type": "uint256"
        }
      ],
      "stateMutability": "view",
      "type": "function"
    },
    {
      "inputs": [
        {
          "internalType": "uint256",
          "name": "shares",
          "type": "uint256"
        },
        {
          "internalType": "address",
          "name": "receiver",
          "type": "address"
        }
      ],
      "name": "mint",
      "outputs": [
        {
          "internalType": "uint256",
          "name": "",
          "type": "uint256"
        }
      ],
      "stateMutability": "nonpayable",
      "type": "function"
    },
    {
      "inputs": [],
      "name": "name",
      "outputs": [
        {
          "internalType": "string",
          "name": "",
          "type": "string"
        }
      ],
      "stateMutability": "view",
      "type": "function"
    },
    {
      "inputs": [],
      "name": "owner",
      "outputs": [
        {
          "internalType": "address",
          "name": "",
          "type": "address"
        }
      ],
      "stateMutability": "view",
      "type": "function"
    },
    {
      "inputs": [
        {
          "internalType": "uint256",
          "name": "assets",
          "type": "uint256"
        }
      ],
      "name": "previewDeposit",
      "outputs": [
        {
          "internalType": "uint256",
          "name": "",
          "type": "uint256"
        }
      ],
      "stateMutability": "view",
      "type": "function"
    },
    {
      "inputs": [
        {
          "internalType": "uint256",
          "name": "shares",
          "type": "uint256"
        }
      ],
      "name": "previewMint",
      "outputs": [
        {
          "internalType": "uint256",
          "name": "",
          "type": "uint256"
        }
      ],
      "stateMutability": "view",
      "type": "function"
    },
    {
      "inputs": [
        {
          "internalType": "uint256",
          "name": "shares",
          "type": "uint256"
        }
      ],
      "name": "previewRedeem",
      "outputs": [
        {
          "internalType": "uint256",
          "name": "",
          "type": "uint256"
        }
      ],
      "stateMutability": "view",
      "type": "function"
    },
    {
      "inputs": [
        {
          "internalType": "uint256",
          "name": "assets",
          "type": "uint256"
        }
      ],
      "name": "previewWithdraw",
      "outputs": [
        {
          "internalType": "uint256",
          "name": "",
          "type": "uint256"
        }
      ],
      "stateMutability": "view",
      "type": "function"
    },
    {
      "inputs": [
        {
          "internalType": "uint256",
          "name": "shares",
          "type": "uint256"
        },
        {
          "internalType": "address",
          "name": "receiver",
          "type": "address"
        },
        {
          "internalType": "address",
          "name": "owner",
          "type": "address"
        }
      ],
      "name": "redeem",
      "outputs": [
        {
          "internalType": "uint256",
          "name": "",
          "type": "uint256"
        }
      ],
      "stateMutability": "nonpayable",
      "type": "function"
    },
    {
      "inputs": [],
      "name": "renounceOwnership",
      "outputs": [],
      "stateMutability": "nonpayable",
      "type": "function"
    },
    {
      "inputs": [
        {
          "internalType": "bytes32",
          "name": "role",
          "type": "bytes32"
        },
        {
          "internalType": "address",
          "name": "account",
          "type": "address"
        }
      ],
      "name": "renounceRole",
      "outputs": [],
      "stateMutability": "nonpayable",
      "type": "function"
    },
    {
      "inputs": [
        {
          "internalType": "bytes32",
          "name": "role",
          "type": "bytes32"
        },
        {
          "internalType": "address",
          "name": "account",
          "type": "address"
        }
      ],
      "name": "revokeRole",
      "outputs": [],
      "stateMutability": "nonpayable",
      "type": "function"
    },
    {
      "inputs": [],
      "name": "sellLpFee",
      "outputs": [
        {
          "internalType": "uint256",
          "name": "",
          "type": "uint256"
        }
      ],
      "stateMutability": "view",
      "type": "function"
    },
    {
      "inputs": [
        {
          "internalType": "bool",
          "name": "allow",
          "type": "bool"
        }
      ],
      "name": "setAllowBuy",
      "outputs": [],
      "stateMutability": "nonpayable",
      "type": "function"
    },
    {
      "inputs": [
        {
          "internalType": "uint256",
          "name": "_duration",
          "type": "uint256"
        }
      ],
      "name": "setCooldownDuration",
      "outputs": [],
      "stateMutability": "nonpayable",
      "type": "function"
    },
    {
      "inputs": [
        {
          "internalType": "address",
          "name": "_feeRouter",
          "type": "address"
        }
      ],
      "name": "setFeeRouter",
      "outputs": [],
      "stateMutability": "nonpayable",
      "type": "function"
    },
    {
      "inputs": [
        {
          "internalType": "bool",
          "name": "f",
          "type": "bool"
        }
      ],
      "name": "setIsFreeze",
      "outputs": [],
      "stateMutability": "nonpayable",
      "type": "function"
    },
    {
      "inputs": [
        {
          "internalType": "bool",
          "name": "isBuy",
          "type": "bool"
        },
        {
          "internalType": "uint256",
          "name": "fee",
          "type": "uint256"
        }
      ],
      "name": "setLpFee",
      "outputs": [],
      "stateMutability": "nonpayable",
      "type": "function"
    },
    {
      "inputs": [
        {
          "internalType": "address",
          "name": "_vaultRouter",
          "type": "address"
        }
      ],
      "name": "setVaultRouter",
      "outputs": [],
      "stateMutability": "nonpayable",
      "type": "function"
    },
    {
      "inputs": [
        {
          "internalType": "bytes4",
          "name": "interfaceId",
          "type": "bytes4"
        }
      ],
      "name": "supportsInterface",
      "outputs": [
        {
          "internalType": "bool",
          "name": "",
          "type": "bool"
        }
      ],
      "stateMutability": "view",
      "type": "function"
    },
    {
      "inputs": [],
      "name": "symbol",
      "outputs": [
        {
          "internalType": "string",
          "name": "",
          "type": "string"
        }
      ],
      "stateMutability": "view",
      "type": "function"
    },
    {
      "inputs": [],
      "name": "totalAssets",
      "outputs": [
        {
          "internalType": "uint256",
          "name": "",
          "type": "uint256"
        }
      ],
      "stateMutability": "view",
      "type": "function"
    },
    {
      "inputs": [],
      "name": "totalSupply",
      "outputs": [
        {
          "internalType": "uint256",
          "name": "",
          "type": "uint256"
        }
      ],
      "stateMutability": "view",
      "type": "function"
    },
    {
      "inputs": [
        {
          "internalType": "address",
          "name": "to",
          "type": "address"
        },
        {
          "internalType": "uint256",
          "name": "amount",
          "type": "uint256"
        }
      ],
      "name": "transfer",
      "outputs": [
        {
          "internalType": "bool",
          "name": "",
          "type": "bool"
        }
      ],
      "stateMutability": "nonpayable",
      "type": "function"
    },
    {
      "inputs": [
        {
          "internalType": "address",
          "name": "to",
          "type": "address"
        }
      ],
      "name": "transferAdmin",
      "outputs": [],
      "stateMutability": "nonpayable",
      "type": "function"
    },
    {
      "inputs": [
        {
          "internalType": "address",
          "name": "from",
          "type": "address"
        },
        {
          "internalType": "address",
          "name": "to",
          "type": "address"
        },
        {
          "internalType": "uint256",
          "name": "amount",
          "type": "uint256"
        }
      ],
      "name": "transferFrom",
      "outputs": [
        {
          "internalType": "bool",
          "name": "",
          "type": "bool"
        }
      ],
      "stateMutability": "nonpayable",
      "type": "function"
    },
    {
      "inputs": [
        {
          "internalType": "address",
          "name": "to",
          "type": "address"
        },
        {
          "internalType": "uint256",
          "name": "amount",
          "type": "uint256"
        }
      ],
      "name": "transferOutAssets",
      "outputs": [],
      "stateMutability": "nonpayable",
      "type": "function"
    },
    {
      "inputs": [
        {
          "internalType": "address",
          "name": "newOwner",
          "type": "address"
        }
      ],
      "name": "transferOwnership",
      "outputs": [],
      "stateMutability": "nonpayable",
      "type": "function"
    },
    {
      "inputs": [],
      "name": "vaultReward",
      "outputs": [
        {
          "internalType": "address",
          "name": "",
          "type": "address"
        }
      ],
      "stateMutability": "view",
      "type": "function"
    },
    {
      "inputs": [],
      "name": "vaultRouter",
      "outputs": [
        {
          "internalType": "contract IVaultRouter",
          "name": "",
          "type": "address"
        }
      ],
      "stateMutability": "view",
      "type": "function"
    },
    {
      "inputs": [
        {
          "internalType": "uint256",
          "name": "assets",
          "type": "uint256"
        },
        {
          "internalType": "address",
          "name": "receiver",
          "type": "address"
        },
        {
          "internalType": "address",
          "name": "owner",
          "type": "address"
        }
      ],
      "name": "withdraw",
      "outputs": [
        {
          "internalType": "uint256",
          "name": "",
          "type": "uint256"
        }
      ],
      "stateMutability": "nonpayable",
      "type": "function"
    }
  ],
  "bytecode": "0x60806040526009805460ff60a01b1916905534801561001d57600080fd5b506100273361002c565b61007e565b600780546001600160a01b038381166001600160a01b0319831681179093556040519116919082907f8be0079c531659141344cd1fd0a4f28419497f9722a3daafe3b4186f6b6457e090600090a35050565b61333f806200008e6000396000f3fe608060405234801561001057600080fd5b50600436106103995760003560e01c80638da5cb5b116101e9578063c4cc8bbb1161010f578063d6046836116100ad578063ef8b30f71161007c578063ef8b30f714610724578063f29ebf61146107c5578063f2fde38b146107d8578063f4ca4d1d146107eb57600080fd5b8063d604683614610779578063d905777e1461078c578063db8d8fc61461079f578063dd62ed3e146107b257600080fd5b8063c7b8b46d116100e9578063c7b8b46d14610737578063ce96cb7714610740578063d37c441c14610753578063d547741f1461076657600080fd5b8063c4cc8bbb146106fc578063c63d75b61461070f578063c6e6f5921461072457600080fd5b8063a9059cbb11610187578063ba08765211610156578063ba087652146106a2578063c154d6ca146106b5578063c267ada4146106c9578063c31295d4146106dc57600080fd5b8063a9059cbb14610655578063ab7cb21114610668578063b3d7f6b91461067c578063b460af941461068f57600080fd5b806395d89b41116101c357806395d89b411461061f578063966be07514610627578063a217fddf1461063a578063a457c2d71461064257600080fd5b80638da5cb5b146105e857806391d14854146105f957806394bf804d1461060c57600080fd5b806335269315116102ce5780634cdad5061161026c578063715018a61161023b578063715018a6146105a757806375829def146105af578063780e72ff146105c25780637fe4a698146105d557600080fd5b80634cdad506146103f15780636e553f65146105625780636fd3acb41461057557806370a082311461057e57600080fd5b806339509351116102a85780633950935114610516578063402d267d1461052957806345be08da1461053c5780634b313b811461054f57600080fd5b806335269315146104d557806336568abe146104de57806338d52e0f146104f157600080fd5b806318160ddd1161033b5780632e7e8415116103155780632e7e84151461047d5780632f2ff15d14610490578063313ce567146104a3578063315c1e08146104c257600080fd5b806318160ddd1461043f57806323b872dd14610447578063248a9ca31461045a57600080fd5b806307a2d13a1161037757806307a2d13a146103f1578063095ea7b3146104045780630a28a477146104175780630c3b0df21461042a57600080fd5b806301e1d1141461039e57806301ffc9a7146103b957806306fdde03146103dc575b600080fd5b6103a66107f3565b6040519081526020015b60405180910390f35b6103cc6103c7366004612b15565b610866565b60405190151581526020016103b0565b6103e461089d565b6040516103b09190612b63565b6103a66103ff366004612b96565b61092f565b6103cc610412366004612bcb565b61093c565b6103a6610425366004612b96565b610954565b61043d610438366004612bcb565b610961565b005b6002546103a6565b6103cc610455366004612bf5565b610998565b6103a6610468366004612b96565b60009081526006602052604090206001015490565b6103a661048b366004612c3f565b6109be565b61043d61049e366004612c5c565b6109d5565b600554600160a01b900460ff1660405160ff90911681526020016103b0565b6103a66104d0366004612c88565b6109ff565b6103a6600c5481565b61043d6104ec366004612c5c565b610a4a565b6005546001600160a01b03165b6040516001600160a01b0390911681526020016103b0565b6103cc610524366004612bcb565b610ac9565b6103a6610537366004612ca6565b610aeb565b61043d61054a366004612c88565b610b09565b600f546104fe906001600160a01b031681565b6103a6610570366004612c5c565b610b8a565b6103a6600d5481565b6103a661058c366004612ca6565b6001600160a01b031660009081526020819052604090205490565b61043d610bfd565b61043d6105bd366004612ca6565b610c11565b61043d6105d0366004612ca6565b610c3b565b61043d6105e3366004612ca6565b610cd9565b6007546001600160a01b03166104fe565b6103cc610607366004612c5c565b610d03565b6103a661061a366004612c5c565b610d2e565b6103e4610d48565b61043d610635366004612b96565b610d57565b6103a6600081565b6103cc610650366004612bcb565b610dbc565b6103cc610663366004612bcb565b610e42565b600f546103cc90600160a01b900460ff1681565b6103a661068a366004612b96565b610e50565b6103a661069d366004612cc1565b610e5d565b6103a66106b0366004612cc1565b610ed9565b6009546103cc90600160a01b900460ff1681565b61043d6106d7366004612ca6565b610f4d565b6103a66106ea366004612ca6565b600b6020526000908152604090205481565b61043d61070a366004612c3f565b610f7b565b6103a661071d366004612ca6565b5060001990565b6103a6610732366004612b96565b610ff1565b6103a6600e5481565b6103a661074e366004612ca6565b610ffe565b6009546104fe906001600160a01b031681565b61043d610774366004612c5c565b611022565b61043d610787366004612c3f565b611047565b6103a661079a366004612ca6565b61109f565b61043d6107ad366004612da0565b6110bd565b6103a66107c0366004612e45565b6112c3565b600a546104fe906001600160a01b031681565b61043d6107e6366004612ca6565b6112ee565b6103a6611367565b60095460408051636dc7b0a160e01b815290516000926001600160a01b031691636dc7b0a19160048083019260209291908290030181865afa15801561083d573d6000803e3d6000fd5b505050506040513d601f19601f820116820180604052508101906108619190612e6f565b905090565b60006001600160e01b03198216637965db0b60e01b148061089757506301ffc9a760e01b6001600160e01b03198316145b92915050565b6060600380546108ac90612e88565b80601f01602080910402602001604051908101604052809291908181526020018280546108d890612e88565b80156109255780601f106108fa57610100808354040283529160200191610925565b820191906000526020600020905b81548152906001019060200180831161090857829003601f168201915b5050505050905090565b6000610897826000611376565b60003361094a8185856113f8565b5060019392505050565b600061089782600161151c565b6109786000805160206132ea833981519152611561565b61099461098d6005546001600160a01b031690565b838361156b565b5050565b6000336109a68582856115ce565b6109b1858585611648565b60019150505b9392505050565b6000816109cd57600e54610897565b5050600d5490565b6000828152600660205260409020600101546109f081611561565b6109fa83836117f7565b505050565b60008215610a3157610a136008600a612fbc565b600d54610a209084612fc8565b610a2a9190612ff5565b9050610897565b610a3d6008600a612fbc565b600e54610a209084612fc8565b6001600160a01b0381163314610abf5760405162461bcd60e51b815260206004820152602f60248201527f416363657373436f6e74726f6c3a2063616e206f6e6c792072656e6f756e636560448201526e103937b632b9903337b91039b2b63360891b60648201526084015b60405180910390fd5b610994828261187d565b60003361094a818585610adc83836112c3565b610ae69190613017565b6113f8565b6000610af56118e4565b610b00576000610897565b60001992915050565b610b327f241ecf16d79d0f8dbfb92cbc07fe17840425976cf0667f022fe9877caa831b08611561565b81610b425780600e819055610b49565b80600d8190555b50604080518315158152602081018390527f7f7f1bc207db1b3f896247af386fe2184613f48428c0d500cbc9f4d0ac5acfab91015b60405180910390a15050565b6000610b9582610aeb565b831115610be45760405162461bcd60e51b815260206004820152601e60248201527f455243343632363a206465706f736974206d6f7265207468616e206d617800006044820152606401610ab6565b6000610bef84610ff1565b90506109b7338486846118fe565b610c05611aee565b610c0f6000611b48565b565b6000610c1c81611561565b610c27600083611b9a565b610c3082611b48565b61099460003361187d565b6000610c4681611561565b6009546001600160a01b031615610c7c57600954610c7c906000805160206132ea833981519152906001600160a01b031661187d565b600980546001600160a01b0319166001600160a01b038416179055610caf6000805160206132ea833981519152836117f7565b6109947f92de27771f92d6942691d73358b3a4673e4880de8356f8f2cf452be87e02d363836117f7565b7f8d1089725c0dc266707fa6207730fb801dcd03108bfed7a21099bd303651d2b761039981611561565b60009182526006602090815260408084206001600160a01b0393909316845291905290205460ff1690565b600080610d3a84610e50565b90506109b7338483876118fe565b6060600480546108ac90612e88565b610d807f241ecf16d79d0f8dbfb92cbc07fe17840425976cf0667f022fe9877caa831b08611561565b600c8190556040518181527f57309e54eb3c050199477e2c187a12eec0088a1f1722c43a9178d621edf39e98906020015b60405180910390a150565b60003381610dca82866112c3565b905083811015610e2a5760405162461bcd60e51b815260206004820152602560248201527f45524332303a2064656372656173656420616c6c6f77616e63652062656c6f77604482015264207a65726f60d81b6064820152608401610ab6565b610e3782868684036113f8565b506001949350505050565b60003361094a818585611648565b6000610897826001611376565b6000610e6882610ffe565b841115610eb75760405162461bcd60e51b815260206004820152601f60248201527f455243343632363a207769746864726177206d6f7265207468616e206d6178006044820152606401610ab6565b6000610ec285610954565b9050610ed13385858885611ba4565b949350505050565b6000610ee48261109f565b841115610f335760405162461bcd60e51b815260206004820152601d60248201527f455243343632363a2072656465656d206d6f7265207468616e206d61780000006044820152606401610ab6565b6000610f3e8561092f565b9050610ed13385858489611ba4565b6000610f5881611561565b50600a80546001600160a01b0319166001600160a01b0392909216919091179055565b610fa47f92de27771f92d6942691d73358b3a4673e4880de8356f8f2cf452be87e02d363611561565b60098054821515600160a01b0260ff60a01b199091161790556040517f304980e7a98cd251f25e85dbe838e498ece26e6aeba1e9912871343633eea86c90610db190831515815260200190565b600061089782600061151c565b6001600160a01b038116600090815260208190526040812054610897906000611376565b60008281526006602052604090206001015461103d81611561565b6109fa838361187d565b600061105281611561565b600f8054831515600160a01b0260ff60a01b199091161790556040517fdd7a4735eff73e5c23c7ecb08e4570dbef82f73381c1ec5483a685fb83da7c7790610b7e90841515815260200190565b6001600160a01b038116600090815260208190526040812054610897565b600754600160a81b900460ff16158080156110e557506007546001600160a01b90910460ff16105b806111065750303b1580156111065750600754600160a01b900460ff166001145b6111695760405162461bcd60e51b815260206004820152602e60248201527f496e697469616c697a61626c653a20636f6e747261637420697320616c72656160448201526d191e481a5b9a5d1a585b1a5e995960921b6064820152608401610ab6565b6007805460ff60a01b1916600160a01b1790558015611196576007805460ff60a81b1916600160a81b1790555b6111a08686611d6b565b6111a987611d84565b6111b233611de2565b600980546001600160a01b0319166001600160a01b0386161790556111e56000805160206132ea833981519152856117f7565b61120f7f92de27771f92d6942691d73358b3a4673e4880de8356f8f2cf452be87e02d363856117f7565b600a80546001600160a01b0319166001600160a01b038516178155610384600c5560649061123f90600890612fbc565b61124a906001612fc8565b6112549190612ff5565b600e55600f80546001600160a01b0319166001600160a01b03841617905580156112ba576007805460ff60a81b19169055604051600181527f7f26b83ff96e1f2b6a682f133852f6798a09c465da95921460cefb38474024989060200160405180910390a15b50505050505050565b6001600160a01b03918216600090815260016020908152604080832093909416825291909152205490565b6112f6611aee565b6001600160a01b03811661135b5760405162461bcd60e51b815260206004820152602660248201527f4f776e61626c653a206e6577206f776e657220697320746865207a65726f206160448201526564647265737360d01b6064820152608401610ab6565b61136481611b48565b50565b6113736008600a612fbc565b81565b60006113828383611e05565b90506000600183600281111561139a5761139a61302a565b14905080156113e457600d546113b26008600a612fbc565b6113bc9190613040565b6113c86008600a612fbc565b6113d29084612fc8565b6113dc9190612ff5565b915050610897565b6113ee81836109ff565b6113dc9083613040565b6001600160a01b03831661145a5760405162461bcd60e51b8152602060048201526024808201527f45524332303a20617070726f76652066726f6d20746865207a65726f206164646044820152637265737360e01b6064820152608401610ab6565b6001600160a01b0382166114bb5760405162461bcd60e51b815260206004820152602260248201527f45524332303a20617070726f766520746f20746865207a65726f206164647265604482015261737360f01b6064820152608401610ab6565b6001600160a01b0383811660008181526001602090815260408083209487168084529482529182902085905590518481527f8c5be1e5ebec7d5bd14f71427d1e84f3dd0314c0f7b2291e5b200ac8c7c3b925910160405180910390a3505050565b60006115288383611e38565b905060008083600281111561153f5761153f61302a565b1490508015611552576113ee81836109ff565b600e546113b26008600a612fbc565b6113648133611e6a565b6040516001600160a01b0383166024820152604481018290526109fa90849063a9059cbb60e01b906064015b60408051601f198184030181529190526020810180516001600160e01b03166001600160e01b031990931692909217909152611ec3565b60006115da84846112c3565b9050600019811461164257818110156116355760405162461bcd60e51b815260206004820152601d60248201527f45524332303a20696e73756666696369656e7420616c6c6f77616e63650000006044820152606401610ab6565b61164284848484036113f8565b50505050565b6001600160a01b0383166116ac5760405162461bcd60e51b815260206004820152602560248201527f45524332303a207472616e736665722066726f6d20746865207a65726f206164604482015264647265737360d81b6064820152608401610ab6565b6001600160a01b03821661170e5760405162461bcd60e51b815260206004820152602360248201527f45524332303a207472616e7366657220746f20746865207a65726f206164647260448201526265737360e81b6064820152608401610ab6565b611719838383611f95565b6001600160a01b038316600090815260208190526040902054818110156117915760405162461bcd60e51b815260206004820152602660248201527f45524332303a207472616e7366657220616d6f756e7420657863656564732062604482015265616c616e636560d01b6064820152608401610ab6565b6001600160a01b03848116600081815260208181526040808320878703905593871680835291849020805487019055925185815290927fddf252ad1be2c89b69c2b068fc378daa952ba7f163c4a11628f55a4df523b3ef910160405180910390a3611642565b6118018282610d03565b6109945760008281526006602090815260408083206001600160a01b03851684529091529020805460ff191660011790556118393390565b6001600160a01b0316816001600160a01b0316837f2f8788117e7eff1d82e926ec794901d17c78024a50270940304540a733656f0d60405160405180910390a45050565b6118878282610d03565b156109945760008281526006602090815260408083206001600160a01b0385168085529252808320805460ff1916905551339285917ff6391f5c32d9c69d2a47ea670b442974b53935d1edc7fd64eb21e047a839171b9190a45050565b6000806118ef6107f3565b11806108615750506002541590565b600f54600160a01b900460ff1661194c5760405162461bcd60e51b8152602060048201526012602482015271189d5e481a5cc81b9bdd08185b1b1bddd95960721b6044820152606401610ab6565b600954600160a01b900460ff16156119955760405162461bcd60e51b815260206004820152600c60248201526b7661756c743a667265657a6560a01b6044820152606401610ab6565b600f546001600160a01b031633146119df5760405162461bcd60e51b815260206004820152600d60248201526c1858d8d95cdcc819195a5b9959609a1b6044820152606401610ab6565b6001600160a01b0383166000908152600b60205260408120429055611a05826001611e05565b90506000818411611a1f57611a1a8483613040565b611a29565b611a298285613040565b90506000828511611a3a5782611a3c565b845b9050611a4760025490565b600003611a6a57611a5b60006103e86120d7565b611a676103e885613040565b93505b611a768787838761214c565b611a9486611a8c6005546001600160a01b031690565b8460016121ca565b60408051868152602081018690529081018390526001600160a01b0380881691908916907f502b1539e5ec91b2596d2d64d20b1f89c28d2e11fc7d74961c930cd221669e329060600160405180910390a350505050505050565b6007546001600160a01b03163314610c0f5760405162461bcd60e51b815260206004820181905260248201527f4f776e61626c653a2063616c6c6572206973206e6f7420746865206f776e65726044820152606401610ab6565b600780546001600160a01b038381166001600160a01b0319831681179093556040519116919082907f8be0079c531659141344cd1fd0a4f28419497f9722a3daafe3b4186f6b6457e090600090a35050565b61099482826117f7565b600954600160a01b900460ff1615611bed5760405162461bcd60e51b815260206004820152600c60248201526b7661756c743a667265657a6560a01b6044820152606401610ab6565b600f546001600160a01b03163314611c375760405162461bcd60e51b815260206004820152600d60248201526c1858d8d95cdcc819195a5b9959609a1b6044820152606401610ab6565b6001600160a01b0383166000908152600b6020526040902054600c54611c5d9190613017565b4211611c9c5760405162461bcd60e51b815260206004820152600e60248201526d3b30bab63a1d31b7b7b63237bbb760911b6044820152606401610ab6565b6000611ca9826000611e05565b9050828111600081611cbb5782611cbd565b845b9050611ccc88888884886123a8565b600082611ce257611cdd8487613040565b611cec565b611cec8685613040565b9050611d0c87611d046005546001600160a01b031690565b8360006121ca565b60408051878152602081018790529081018290526001600160a01b03808916918a8216918c16907fbd93a9fa352132d84f0041011cee9c7891c834f670c204950c0310d49be30edf9060600160405180910390a4505050505050505050565b6003611d7783826130a1565b5060046109fa82826130a1565b600080611d9083612454565b9150915081611da0576012611da2565b805b600580546001600160a01b039095166001600160a01b031960ff93909316600160a01b02929092166001600160a81b031990951694909417179092555050565b42600855611def33611b48565b611dfa600033611b9a565b611364600082611b9a565b600080611e1160025490565b90508015611e3257611e2d611e246107f3565b85908386612530565b610ed1565b83610ed1565b600080611e4460025490565b9050831580611e51575080155b611e3257611e2d81611e616107f3565b86919086612530565b611e748282610d03565b61099457611e818161258d565b611e8c83602061259f565b604051602001611e9d929190613161565b60408051601f198184030181529082905262461bcd60e51b8252610ab691600401612b63565b6000611f18826040518060400160405280602081526020017f5361666545524332303a206c6f772d6c6576656c2063616c6c206661696c6564815250856001600160a01b031661273b9092919063ffffffff16565b8051909150156109fa5780806020019051810190611f3691906131d6565b6109fa5760405162461bcd60e51b815260206004820152602a60248201527f5361666545524332303a204552433230206f7065726174696f6e20646964206e6044820152691bdd081cdd58d8d9595960b21b6064820152608401610ab6565b6001600160a01b03831661200357600f54604051630f71585960e11b81526001600160a01b03848116600483015290911690631ee2b0b290602401600060405180830381600087803b158015611fea57600080fd5b505af1158015611ffe573d6000803e3d6000fd5b505050505b6001600160a01b03821661207157600f54604051630f71585960e11b81526001600160a01b03858116600483015290911690631ee2b0b290602401600060405180830381600087803b15801561205857600080fd5b505af115801561206c573d6000803e3d6000fd5b505050505b6001600160a01b038316158061208e57506001600160a01b038216155b1561209857505050565b60405162461bcd60e51b81526020600482015260146024820152731d1c985b9cd9995c881b9bdd08185b1b1bddd95960621b6044820152606401610ab6565b6120e360008383611f95565b80600260008282546120f59190613017565b90915550506001600160a01b038216600081815260208181526040808320805486019055518481527fddf252ad1be2c89b69c2b068fc378daa952ba7f163c4a11628f55a4df523b3ef910160405180910390a35050565b600554612164906001600160a01b031685308561274a565b61216e83826120d7565b826001600160a01b0316846001600160a01b03167fdcbc1c05240f31ff3ad067ef1ee35ce4997762752e3a095284754544f4c709d784846040516121bc929190918252602082015260400190565b60405180910390a350505050565b8115611642576000816121de5760066121e1565b60055b905060006121f08260016131f3565b60ff1667ffffffffffffffff81111561220b5761220b612cfd565b604051908082528060200260200182016040528015612234578160200160208202803683370190505b50600a5460405163095ea7b360e01b81526001600160a01b0391821660048201526024810187905291925086169063095ea7b3906044016020604051808303816000875af115801561228a573d6000803e3d6000fd5b505050506040513d601f19601f820116820180604052508101906122ae91906131d6565b5061231a84866001600160a01b031663313ce5676040518163ffffffff1660e01b8152600401602060405180830381865afa1580156122f1573d6000803e3d6000fd5b505050506040513d601f19601f82011682018060405250810190612315919061320c565b612782565b818360ff168151811061232f5761232f61322f565b6020908102919091010152600a5460405163e50f19ef60e01b81526001600160a01b039091169063e50f19ef9061236e90899089908690600401613245565b600060405180830381600087803b15801561238857600080fd5b505af115801561239c573d6000803e3d6000fd5b50505050505050505050565b826001600160a01b0316856001600160a01b0316146123cc576123cc8386836115ce565b6123d683826127af565b6005546123ed906001600160a01b0316858461156b565b826001600160a01b0316846001600160a01b0316866001600160a01b03167ffbde797d201c681b91056529119e0b02407c7bb96a4a2c75c01fc9667232c8db8585604051612445929190918252602082015260400190565b60405180910390a45050505050565b60408051600481526024810182526020810180516001600160e01b031663313ce56760e01b17905290516000918291829182916001600160a01b0387169161249b916132a7565b600060405180830381855afa9150503d80600081146124d6576040519150601f19603f3d011682016040523d82523d6000602084013e6124db565b606091505b50915091508180156124ef57506020815110155b156125235760008180602001905181019061250a9190612e6f565b905060ff8111612521576001969095509350505050565b505b5060009485945092505050565b60008061253e8686866128ed565b905060018360028111156125545761255461302a565b14801561257157506000848061256c5761256c612fdf565b868809115b1561258457612581600182613017565b90505b95945050505050565b60606108976001600160a01b03831660145b606060006125ae836002612fc8565b6125b9906002613017565b67ffffffffffffffff8111156125d1576125d1612cfd565b6040519080825280601f01601f1916602001820160405280156125fb576020820181803683370190505b509050600360fc1b816000815181106126165761261661322f565b60200101906001600160f81b031916908160001a905350600f60fb1b816001815181106126455761264561322f565b60200101906001600160f81b031916908160001a9053506000612669846002612fc8565b612674906001613017565b90505b60018111156126ec576f181899199a1a9b1b9c1cb0b131b232b360811b85600f16601081106126a8576126a861322f565b1a60f81b8282815181106126be576126be61322f565b60200101906001600160f81b031916908160001a90535060049490941c936126e5816132c3565b9050612677565b5083156109b75760405162461bcd60e51b815260206004820181905260248201527f537472696e67733a20686578206c656e67746820696e73756666696369656e746044820152606401610ab6565b6060610ed1848460008561299c565b6040516001600160a01b03808516602483015283166044820152606481018290526116429085906323b872dd60e01b90608401611597565b600061278f82600a6132da565b61279b6012600a612fbc565b6127a59085612fc8565b6109b79190612ff5565b6001600160a01b03821661280f5760405162461bcd60e51b815260206004820152602160248201527f45524332303a206275726e2066726f6d20746865207a65726f206164647265736044820152607360f81b6064820152608401610ab6565b61281b82600083611f95565b6001600160a01b0382166000908152602081905260409020548181101561288f5760405162461bcd60e51b815260206004820152602260248201527f45524332303a206275726e20616d6f756e7420657863656564732062616c616e604482015261636560f01b6064820152608401610ab6565b6001600160a01b0383166000818152602081815260408083208686039055600280548790039055518581529192917fddf252ad1be2c89b69c2b068fc378daa952ba7f163c4a11628f55a4df523b3ef910160405180910390a3505050565b60008080600019858709858702925082811083820303915050806000036129275783828161291d5761291d612fdf565b04925050506109b7565b80841161293357600080fd5b60008486880960026001871981018816978890046003810283188082028403028082028403028082028403028082028403028082028403029081029092039091026000889003889004909101858311909403939093029303949094049190911702949350505050565b6060824710156129fd5760405162461bcd60e51b815260206004820152602660248201527f416464726573733a20696e73756666696369656e742062616c616e636520666f6044820152651c8818d85b1b60d21b6064820152608401610ab6565b600080866001600160a01b03168587604051612a1991906132a7565b60006040518083038185875af1925050503d8060008114612a56576040519150601f19603f3d011682016040523d82523d6000602084013e612a5b565b606091505b5091509150612a6c87838387612a77565b979650505050505050565b60608315612ae6578251600003612adf576001600160a01b0385163b612adf5760405162461bcd60e51b815260206004820152601d60248201527f416464726573733a2063616c6c20746f206e6f6e2d636f6e74726163740000006044820152606401610ab6565b5081610ed1565b610ed18383815115612afb5781518083602001fd5b8060405162461bcd60e51b8152600401610ab69190612b63565b600060208284031215612b2757600080fd5b81356001600160e01b0319811681146109b757600080fd5b60005b83811015612b5a578181015183820152602001612b42565b50506000910152565b6020815260008251806020840152612b82816040850160208701612b3f565b601f01601f19169190910160400192915050565b600060208284031215612ba857600080fd5b5035919050565b80356001600160a01b0381168114612bc657600080fd5b919050565b60008060408385031215612bde57600080fd5b612be783612baf565b946020939093013593505050565b600080600060608486031215612c0a57600080fd5b612c1384612baf565b9250612c2160208501612baf565b9150604084013590509250925092565b801515811461136457600080fd5b600060208284031215612c5157600080fd5b81356109b781612c31565b60008060408385031215612c6f57600080fd5b82359150612c7f60208401612baf565b90509250929050565b60008060408385031215612c9b57600080fd5b8235612be781612c31565b600060208284031215612cb857600080fd5b6109b782612baf565b600080600060608486031215612cd657600080fd5b83359250612ce660208501612baf565b9150612cf460408501612baf565b90509250925092565b634e487b7160e01b600052604160045260246000fd5b600082601f830112612d2457600080fd5b813567ffffffffffffffff80821115612d3f57612d3f612cfd565b604051601f8301601f19908116603f01168101908282118183101715612d6757612d67612cfd565b81604052838152866020858801011115612d8057600080fd5b836020870160208301376000602085830101528094505050505092915050565b60008060008060008060c08789031215612db957600080fd5b612dc287612baf565b9550602087013567ffffffffffffffff80821115612ddf57600080fd5b612deb8a838b01612d13565b96506040890135915080821115612e0157600080fd5b50612e0e89828a01612d13565b945050612e1d60608801612baf565b9250612e2b60808801612baf565b9150612e3960a08801612baf565b90509295509295509295565b60008060408385031215612e5857600080fd5b612e6183612baf565b9150612c7f60208401612baf565b600060208284031215612e8157600080fd5b5051919050565b600181811c90821680612e9c57607f821691505b602082108103612ebc57634e487b7160e01b600052602260045260246000fd5b50919050565b634e487b7160e01b600052601160045260246000fd5b600181815b80851115612f13578160001904821115612ef957612ef9612ec2565b80851615612f0657918102915b93841c9390800290612edd565b509250929050565b600082612f2a57506001610897565b81612f3757506000610897565b8160018114612f4d5760028114612f5757612f73565b6001915050610897565b60ff841115612f6857612f68612ec2565b50506001821b610897565b5060208310610133831016604e8410600b8410161715612f96575081810a610897565b612fa08383612ed8565b8060001904821115612fb457612fb4612ec2565b029392505050565b60006109b78383612f1b565b808202811582820484141761089757610897612ec2565b634e487b7160e01b600052601260045260246000fd5b60008261301257634e487b7160e01b600052601260045260246000fd5b500490565b8082018082111561089757610897612ec2565b634e487b7160e01b600052602160045260246000fd5b8181038181111561089757610897612ec2565b601f8211156109fa57600081815260208120601f850160051c8101602086101561307a5750805b601f850160051c820191505b8181101561309957828155600101613086565b505050505050565b815167ffffffffffffffff8111156130bb576130bb612cfd565b6130cf816130c98454612e88565b84613053565b602080601f83116001811461310457600084156130ec5750858301515b600019600386901b1c1916600185901b178555613099565b600085815260208120601f198616915b8281101561313357888601518255948401946001909101908401613114565b50858210156131515787850151600019600388901b60f8161c191681555b5050505050600190811b01905550565b7f416363657373436f6e74726f6c3a206163636f756e7420000000000000000000815260008351613199816017850160208801612b3f565b7001034b99036b4b9b9b4b733903937b6329607d1b60179184019182015283516131ca816028840160208801612b3f565b01602801949350505050565b6000602082840312156131e857600080fd5b81516109b781612c31565b60ff818116838216019081111561089757610897612ec2565b60006020828403121561321e57600080fd5b815160ff811681146109b757600080fd5b634e487b7160e01b600052603260045260246000fd5b6001600160a01b0384811682528316602080830191909152606060408301819052835190830181905260009184810191608085019190845b818110156132995784518452938201939282019260010161327d565b509198975050505050505050565b600082516132b9818460208701612b3f565b9190910192915050565b6000816132d2576132d2612ec2565b506000190190565b60006109b760ff841683612f1b56fecb58d6d985142a614029cdf01861b4fe094d5919a47e69b8310dc4093d9d6ad0a2646970667358221220a120951bfae503a87e646c796f56154907f7eae6fb5a8054f415716e0bbb95c464736f6c63430008110033",
  "linkReferences": {},
  "deployedLinkReferences": {}
}