{
  "_format": "hh-sol-artifact-1",
  "contractName": "CoreVault",
  "sourceName": "contracts/vault/CoreVault.sol",
  "abi": [
    {
      "anonymous": false,
      "inputs": [
        {
          "indexed": true,
          "internalType": "address",
          "name": "owner",
          "type": "address"
        },
        {
          "indexed": true,
          "internalType": "address",
          "name": "spender",
          "type": "address"
        },
        {
          "indexed": false,
          "internalType": "uint256",
          "name": "value",
          "type": "uint256"
        }
      ],
      "name": "Approval",
      "type": "event"
    },
    {
      "anonymous": false,
      "inputs": [
        {
          "indexed": false,
          "internalType": "uint256",
          "name": "duration",
          "type": "uint256"
        }
      ],
      "name": "CoolDownDurationUpdated",
      "type": "event"
    },
    {
      "anonymous": false,
      "inputs": [
        {
          "indexed": true,
          "internalType": "address",
          "name": "sender",
          "type": "address"
        },
        {
          "indexed": true,
          "internalType": "address",
          "name": "owner",
          "type": "address"
        },
        {
          "indexed": false,
          "internalType": "uint256",
          "name": "assets",
          "type": "uint256"
        },
        {
          "indexed": false,
          "internalType": "uint256",
          "name": "shares",
          "type": "uint256"
        }
      ],
      "name": "Deposit",
      "type": "event"
    },
    {
      "anonymous": false,
      "inputs": [
        {
          "indexed": true,
          "internalType": "address",
          "name": "sender",
          "type": "address"
        },
        {
          "indexed": true,
          "internalType": "address",
          "name": "owner",
          "type": "address"
        },
        {
          "indexed": false,
          "internalType": "uint256",
          "name": "assets",
          "type": "uint256"
        },
        {
          "indexed": false,
          "internalType": "uint256",
          "name": "shares",
          "type": "uint256"
        },
        {
          "indexed": false,
          "internalType": "uint256",
          "name": "fee",
          "type": "uint256"
        }
      ],
      "name": "DepositAsset",
      "type": "event"
    },
    {
      "anonymous": false,
      "inputs": [
        {
          "indexed": false,
          "internalType": "uint8",
          "name": "version",
          "type": "uint8"
        }
      ],
      "name": "Initialized",
      "type": "event"
    },
    {
      "anonymous": false,
      "inputs": [
        {
          "indexed": false,
          "internalType": "bool",
          "name": "isBuy",
          "type": "bool"
        },
        {
          "indexed": false,
          "internalType": "uint256",
          "name": "fee",
          "type": "uint256"
        }
      ],
      "name": "LPFeeUpdated",
      "type": "event"
    },
    {
      "anonymous": false,
      "inputs": [
        {
          "indexed": false,
          "internalType": "bool",
          "name": "isFreeze",
          "type": "bool"
        }
      ],
      "name": "LogIsFreeze",
      "type": "event"
    },
    {
      "anonymous": false,
      "inputs": [
        {
          "indexed": true,
          "internalType": "address",
          "name": "previousOwner",
          "type": "address"
        },
        {
          "indexed": true,
          "internalType": "address",
          "name": "newOwner",
          "type": "address"
        }
      ],
      "name": "OwnershipTransferred",
      "type": "event"
    },
    {
      "anonymous": false,
      "inputs": [
        {
          "indexed": true,
          "internalType": "bytes32",
          "name": "role",
          "type": "bytes32"
        },
        {
          "indexed": true,
          "internalType": "bytes32",
          "name": "previousAdminRole",
          "type": "bytes32"
        },
        {
          "indexed": true,
          "internalType": "bytes32",
          "name": "newAdminRole",
          "type": "bytes32"
        }
      ],
      "name": "RoleAdminChanged",
      "type": "event"
    },
    {
      "anonymous": false,
      "inputs": [
        {
          "indexed": true,
          "internalType": "bytes32",
          "name": "role",
          "type": "bytes32"
        },
        {
          "indexed": true,
          "internalType": "address",
          "name": "account",
          "type": "address"
        },
        {
          "indexed": true,
          "internalType": "address",
          "name": "sender",
          "type": "address"
        }
      ],
      "name": "RoleGranted",
      "type": "event"
    },
    {
      "anonymous": false,
      "inputs": [
        {
          "indexed": true,
          "internalType": "bytes32",
          "name": "role",
          "type": "bytes32"
        },
        {
          "indexed": true,
          "internalType": "address",
          "name": "account",
          "type": "address"
        },
        {
          "indexed": true,
          "internalType": "address",
          "name": "sender",
          "type": "address"
        }
      ],
      "name": "RoleRevoked",
      "type": "event"
    },
    {
      "anonymous": false,
      "inputs": [
        {
          "indexed": true,
          "internalType": "address",
          "name": "from",
          "type": "address"
        },
        {
          "indexed": true,
          "internalType": "address",
          "name": "to",
          "type": "address"
        },
        {
          "indexed": false,
          "internalType": "uint256",
          "name": "value",
          "type": "uint256"
        }
      ],
      "name": "Transfer",
      "type": "event"
    },
    {
      "anonymous": false,
      "inputs": [
        {
          "indexed": true,
          "internalType": "address",
          "name": "sender",
          "type": "address"
        },
        {
          "indexed": true,
          "internalType": "address",
          "name": "receiver",
          "type": "address"
        },
        {
          "indexed": true,
          "internalType": "address",
          "name": "owner",
          "type": "address"
        },
        {
          "indexed": false,
          "internalType": "uint256",
          "name": "assets",
          "type": "uint256"
        },
        {
          "indexed": false,
          "internalType": "uint256",
          "name": "shares",
          "type": "uint256"
        }
      ],
      "name": "Withdraw",
      "type": "event"
    },
    {
      "anonymous": false,
      "inputs": [
        {
          "indexed": true,
          "internalType": "address",
          "name": "sender",
          "type": "address"
        },
        {
          "indexed": true,
          "internalType": "address",
          "name": "receiver",
          "type": "address"
        },
        {
          "indexed": true,
          "internalType": "address",
          "name": "owner",
          "type": "address"
        },
        {
          "indexed": false,
          "internalType": "uint256",
          "name": "assets",
          "type": "uint256"
        },
        {
          "indexed": false,
          "internalType": "uint256",
          "name": "shares",
          "type": "uint256"
        },
        {
          "indexed": false,
          "internalType": "uint256",
          "name": "fee",
          "type": "uint256"
        }
      ],
      "name": "WithdrawAsset",
      "type": "event"
    },
    {
      "inputs": [],
      "name": "DEFAULT_ADMIN_ROLE",
      "outputs": [
        {
          "internalType": "bytes32",
          "name": "",
          "type": "bytes32"
        }
      ],
      "stateMutability": "view",
      "type": "function"
    },
    {
      "inputs": [],
      "name": "FEE_RATE_PRECISION",
      "outputs": [
        {
          "internalType": "uint256",
          "name": "",
          "type": "uint256"
        }
      ],
      "stateMutability": "view",
      "type": "function"
    },
    {
      "inputs": [
        {
          "internalType": "address",
          "name": "owner",
          "type": "address"
        },
        {
          "internalType": "address",
          "name": "spender",
          "type": "address"
        }
      ],
      "name": "allowance",
      "outputs": [
        {
          "internalType": "uint256",
          "name": "",
          "type": "uint256"
        }
      ],
      "stateMutability": "view",
      "type": "function"
    },
    {
      "inputs": [
        {
          "internalType": "address",
          "name": "spender",
          "type": "address"
        },
        {
          "internalType": "uint256",
          "name": "amount",
          "type": "uint256"
        }
      ],
      "name": "approve",
      "outputs": [
        {
          "internalType": "bool",
          "name": "",
          "type": "bool"
        }
      ],
      "stateMutability": "nonpayable",
      "type": "function"
    },
    {
      "inputs": [],
      "name": "asset",
      "outputs": [
        {
          "internalType": "address",
          "name": "",
          "type": "address"
        }
      ],
      "stateMutability": "view",
      "type": "function"
    },
    {
      "inputs": [
        {
          "internalType": "address",
          "name": "account",
          "type": "address"
        }
      ],
      "name": "balanceOf",
      "outputs": [
        {
          "internalType": "uint256",
          "name": "",
          "type": "uint256"
        }
      ],
      "stateMutability": "view",
      "type": "function"
    },
    {
      "inputs": [],
      "name": "buyLpFee",
      "outputs": [
        {
          "internalType": "uint256",
          "name": "",
          "type": "uint256"
        }
      ],
      "stateMutability": "view",
      "type": "function"
    },
    {
      "inputs": [
        {
          "internalType": "bool",
          "name": "isBuy",
          "type": "bool"
        },
        {
          "internalType": "uint256",
          "name": "amount",
          "type": "uint256"
        }
      ],
      "name": "computationalCosts",
      "outputs": [
        {
          "internalType": "uint256",
          "name": "",
          "type": "uint256"
        }
      ],
      "stateMutability": "view",
      "type": "function"
    },
    {
      "inputs": [
        {
          "internalType": "uint256",
          "name": "shares",
          "type": "uint256"
        }
      ],
      "name": "convertToAssets",
      "outputs": [
        {
          "internalType": "uint256",
          "name": "assets",
          "type": "uint256"
        }
      ],
      "stateMutability": "view",
      "type": "function"
    },
    {
      "inputs": [
        {
          "internalType": "uint256",
          "name": "assets",
          "type": "uint256"
        }
      ],
      "name": "convertToShares",
      "outputs": [
        {
          "internalType": "uint256",
          "name": "shares",
          "type": "uint256"
        }
      ],
      "stateMutability": "view",
      "type": "function"
    },
    {
      "inputs": [],
      "name": "cooldownDuration",
      "outputs": [
        {
          "internalType": "uint256",
          "name": "",
          "type": "uint256"
        }
      ],
      "stateMutability": "view",
      "type": "function"
    },
    {
      "inputs": [],
      "name": "decimals",
      "outputs": [
        {
          "internalType": "uint8",
          "name": "",
          "type": "uint8"
        }
      ],
      "stateMutability": "view",
      "type": "function"
    },
    {
      "inputs": [
        {
          "internalType": "address",
          "name": "spender",
          "type": "address"
        },
        {
          "internalType": "uint256",
          "name": "subtractedValue",
          "type": "uint256"
        }
      ],
      "name": "decreaseAllowance",
      "outputs": [
        {
          "internalType": "bool",
          "name": "",
          "type": "bool"
        }
      ],
      "stateMutability": "nonpayable",
      "type": "function"
    },
    {
      "inputs": [
        {
          "internalType": "uint256",
          "name": "assets",
          "type": "uint256"
        },
        {
          "internalType": "address",
          "name": "receiver",
          "type": "address"
        }
      ],
      "name": "deposit",
      "outputs": [
        {
          "internalType": "uint256",
          "name": "",
          "type": "uint256"
        }
      ],
      "stateMutability": "nonpayable",
      "type": "function"
    },
    {
      "inputs": [],
      "name": "feeRouter",
      "outputs": [
        {
          "internalType": "contract IFeeRouter",
          "name": "",
          "type": "address"
        }
      ],
      "stateMutability": "view",
      "type": "function"
    },
    {
      "inputs": [
        {
          "internalType": "bool",
          "name": "isBuy",
          "type": "bool"
        }
      ],
      "name": "getLPFee",
      "outputs": [
        {
          "internalType": "uint256",
          "name": "",
          "type": "uint256"
        }
      ],
      "stateMutability": "view",
      "type": "function"
    },
    {
      "inputs": [
        {
          "internalType": "bytes32",
          "name": "role",
          "type": "bytes32"
        }
      ],
      "name": "getRoleAdmin",
      "outputs": [
        {
          "internalType": "bytes32",
          "name": "",
          "type": "bytes32"
        }
      ],
      "stateMutability": "view",
      "type": "function"
    },
    {
      "inputs": [
        {
          "internalType": "address",
          "name": "_account",
          "type": "address"
        }
      ],
      "name": "grantControllerRoleByMarketManager",
      "outputs": [],
      "stateMutability": "nonpayable",
      "type": "function"
    },
    {
      "inputs": [
        {
          "internalType": "bytes32",
          "name": "role",
          "type": "bytes32"
        },
        {
          "internalType": "address",
          "name": "account",
          "type": "address"
        }
      ],
      "name": "grantRole",
      "outputs": [],
      "stateMutability": "nonpayable",
      "type": "function"
    },
    {
      "inputs": [
        {
          "internalType": "bytes32",
          "name": "role",
          "type": "bytes32"
        },
        {
          "internalType": "address",
          "name": "account",
          "type": "address"
        }
      ],
      "name": "hasRole",
      "outputs": [
        {
          "internalType": "bool",
          "name": "",
          "type": "bool"
        }
      ],
      "stateMutability": "view",
      "type": "function"
    },
    {
      "inputs": [
        {
          "internalType": "address",
          "name": "spender",
          "type": "address"
        },
        {
          "internalType": "uint256",
          "name": "addedValue",
          "type": "uint256"
        }
      ],
      "name": "increaseAllowance",
      "outputs": [
        {
          "internalType": "bool",
          "name": "",
          "type": "bool"
        }
      ],
      "stateMutability": "nonpayable",
      "type": "function"
    },
    {
      "inputs": [
        {
          "internalType": "address",
          "name": "_asset",
          "type": "address"
        },
        {
          "internalType": "string",
          "name": "_name",
          "type": "string"
        },
        {
          "internalType": "string",
          "name": "_symbol",
          "type": "string"
        },
        {
          "internalType": "address",
          "name": "_vaultRouter",
          "type": "address"
        },
        {
          "internalType": "address",
          "name": "_feeRouter",
          "type": "address"
        },
        {
          "internalType": "address",
          "name": "_vaultReward",
          "type": "address"
        }
      ],
      "name": "initialize",
      "outputs": [],
      "stateMutability": "nonpayable",
      "type": "function"
    },
    {
      "inputs": [],
      "name": "isFreeze",
      "outputs": [
        {
          "internalType": "bool",
          "name": "",
          "type": "bool"
        }
      ],
      "stateMutability": "view",
      "type": "function"
    },
    {
      "inputs": [
        {
          "internalType": "address",
          "name": "",
          "type": "address"
        }
      ],
      "name": "lastDepositAt",
      "outputs": [
        {
          "internalType": "uint256",
          "name": "",
          "type": "uint256"
        }
      ],
      "stateMutability": "view",
      "type": "function"
    },
    {
      "inputs": [
        {
          "internalType": "address",
          "name": "",
          "type": "address"
        }
      ],
      "name": "maxDeposit",
      "outputs": [
        {
          "internalType": "uint256",
          "name": "",
          "type": "uint256"
        }
      ],
      "stateMutability": "view",
      "type": "function"
    },
    {
      "inputs": [
        {
          "internalType": "address",
          "name": "",
          "type": "address"
        }
      ],
      "name": "maxMint",
      "outputs": [
        {
          "internalType": "uint256",
          "name": "",
          "type": "uint256"
        }
      ],
      "stateMutability": "view",
      "type": "function"
    },
    {
      "inputs": [
        {
          "internalType": "address",
          "name": "owner",
          "type": "address"
        }
      ],
      "name": "maxRedeem",
      "outputs": [
        {
          "internalType": "uint256",
          "name": "",
          "type": "uint256"
        }
      ],
      "stateMutability": "view",
      "type": "function"
    },
    {
      "inputs": [
        {
          "internalType": "address",
          "name": "owner",
          "type": "address"
        }
      ],
      "name": "maxWithdraw",
      "outputs": [
        {
          "internalType": "uint256",
          "name": "",
          "type": "uint256"
        }
      ],
      "stateMutability": "view",
      "type": "function"
    },
    {
      "inputs": [
        {
          "internalType": "uint256",
          "name": "shares",
          "type": "uint256"
        },
        {
          "internalType": "address",
          "name": "receiver",
          "type": "address"
        }
      ],
      "name": "mint",
      "outputs": [
        {
          "internalType": "uint256",
          "name": "",
          "type": "uint256"
        }
      ],
      "stateMutability": "nonpayable",
      "type": "function"
    },
    {
      "inputs": [],
      "name": "name",
      "outputs": [
        {
          "internalType": "string",
          "name": "",
          "type": "string"
        }
      ],
      "stateMutability": "view",
      "type": "function"
    },
    {
      "inputs": [],
      "name": "owner",
      "outputs": [
        {
          "internalType": "address",
          "name": "",
          "type": "address"
        }
      ],
      "stateMutability": "view",
      "type": "function"
    },
    {
      "inputs": [
        {
          "internalType": "uint256",
          "name": "assets",
          "type": "uint256"
        }
      ],
      "name": "previewDeposit",
      "outputs": [
        {
          "internalType": "uint256",
          "name": "",
          "type": "uint256"
        }
      ],
      "stateMutability": "view",
      "type": "function"
    },
    {
      "inputs": [
        {
          "internalType": "uint256",
          "name": "shares",
          "type": "uint256"
        }
      ],
      "name": "previewMint",
      "outputs": [
        {
          "internalType": "uint256",
          "name": "",
          "type": "uint256"
        }
      ],
      "stateMutability": "view",
      "type": "function"
    },
    {
      "inputs": [
        {
          "internalType": "uint256",
          "name": "shares",
          "type": "uint256"
        }
      ],
      "name": "previewRedeem",
      "outputs": [
        {
          "internalType": "uint256",
          "name": "",
          "type": "uint256"
        }
      ],
      "stateMutability": "view",
      "type": "function"
    },
    {
      "inputs": [
        {
          "internalType": "uint256",
          "name": "assets",
          "type": "uint256"
        }
      ],
      "name": "previewWithdraw",
      "outputs": [
        {
          "internalType": "uint256",
          "name": "",
          "type": "uint256"
        }
      ],
      "stateMutability": "view",
      "type": "function"
    },
    {
      "inputs": [
        {
          "internalType": "uint256",
          "name": "shares",
          "type": "uint256"
        },
        {
          "internalType": "address",
          "name": "receiver",
          "type": "address"
        },
        {
          "internalType": "address",
          "name": "owner",
          "type": "address"
        }
      ],
      "name": "redeem",
      "outputs": [
        {
          "internalType": "uint256",
          "name": "",
          "type": "uint256"
        }
      ],
      "stateMutability": "nonpayable",
      "type": "function"
    },
    {
      "inputs": [],
      "name": "renounceOwnership",
      "outputs": [],
      "stateMutability": "nonpayable",
      "type": "function"
    },
    {
      "inputs": [
        {
          "internalType": "bytes32",
          "name": "role",
          "type": "bytes32"
        },
        {
          "internalType": "address",
          "name": "account",
          "type": "address"
        }
      ],
      "name": "renounceRole",
      "outputs": [],
      "stateMutability": "nonpayable",
      "type": "function"
    },
    {
      "inputs": [
        {
          "internalType": "bytes32",
          "name": "role",
          "type": "bytes32"
        },
        {
          "internalType": "address",
          "name": "account",
          "type": "address"
        }
      ],
      "name": "revokeRole",
      "outputs": [],
      "stateMutability": "nonpayable",
      "type": "function"
    },
    {
      "inputs": [],
      "name": "sellLpFee",
      "outputs": [
        {
          "internalType": "uint256",
          "name": "",
          "type": "uint256"
        }
      ],
      "stateMutability": "view",
      "type": "function"
    },
    {
      "inputs": [
        {
          "internalType": "uint256",
          "name": "_duration",
          "type": "uint256"
        }
      ],
      "name": "setCooldownDuration",
      "outputs": [],
      "stateMutability": "nonpayable",
      "type": "function"
    },
    {
      "inputs": [
        {
          "internalType": "bool",
          "name": "f",
          "type": "bool"
        }
      ],
      "name": "setIsFreeze",
      "outputs": [],
      "stateMutability": "nonpayable",
      "type": "function"
    },
    {
      "inputs": [
        {
          "internalType": "bool",
          "name": "isBuy",
          "type": "bool"
        },
        {
          "internalType": "uint256",
          "name": "fee",
          "type": "uint256"
        }
      ],
      "name": "setLpFee",
      "outputs": [],
      "stateMutability": "nonpayable",
      "type": "function"
    },
    {
      "inputs": [
        {
          "internalType": "address",
          "name": "_vaultRouter",
          "type": "address"
        }
      ],
      "name": "setVaultRouter",
      "outputs": [],
      "stateMutability": "nonpayable",
      "type": "function"
    },
    {
      "inputs": [
        {
          "internalType": "bytes4",
          "name": "interfaceId",
          "type": "bytes4"
        }
      ],
      "name": "supportsInterface",
      "outputs": [
        {
          "internalType": "bool",
          "name": "",
          "type": "bool"
        }
      ],
      "stateMutability": "view",
      "type": "function"
    },
    {
      "inputs": [],
      "name": "symbol",
      "outputs": [
        {
          "internalType": "string",
          "name": "",
          "type": "string"
        }
      ],
      "stateMutability": "view",
      "type": "function"
    },
    {
      "inputs": [],
      "name": "totalAssets",
      "outputs": [
        {
          "internalType": "uint256",
          "name": "",
          "type": "uint256"
        }
      ],
      "stateMutability": "view",
      "type": "function"
    },
    {
      "inputs": [],
      "name": "totalSupply",
      "outputs": [
        {
          "internalType": "uint256",
          "name": "",
          "type": "uint256"
        }
      ],
      "stateMutability": "view",
      "type": "function"
    },
    {
      "inputs": [
        {
          "internalType": "address",
          "name": "to",
          "type": "address"
        },
        {
          "internalType": "uint256",
          "name": "amount",
          "type": "uint256"
        }
      ],
      "name": "transfer",
      "outputs": [
        {
          "internalType": "bool",
          "name": "",
          "type": "bool"
        }
      ],
      "stateMutability": "nonpayable",
      "type": "function"
    },
    {
      "inputs": [
        {
          "internalType": "address",
          "name": "to",
          "type": "address"
        }
      ],
      "name": "transferAdmin",
      "outputs": [],
      "stateMutability": "nonpayable",
      "type": "function"
    },
    {
      "inputs": [
        {
          "internalType": "address",
          "name": "from",
          "type": "address"
        },
        {
          "internalType": "address",
          "name": "to",
          "type": "address"
        },
        {
          "internalType": "uint256",
          "name": "amount",
          "type": "uint256"
        }
      ],
      "name": "transferFrom",
      "outputs": [
        {
          "internalType": "bool",
          "name": "",
          "type": "bool"
        }
      ],
      "stateMutability": "nonpayable",
      "type": "function"
    },
    {
      "inputs": [
        {
          "internalType": "address",
          "name": "to",
          "type": "address"
        },
        {
          "internalType": "uint256",
          "name": "amount",
          "type": "uint256"
        }
      ],
      "name": "transferOutAssets",
      "outputs": [],
      "stateMutability": "nonpayable",
      "type": "function"
    },
    {
      "inputs": [
        {
          "internalType": "address",
          "name": "newOwner",
          "type": "address"
        }
      ],
      "name": "transferOwnership",
      "outputs": [],
      "stateMutability": "nonpayable",
      "type": "function"
    },
    {
      "inputs": [],
      "name": "vaultReward",
      "outputs": [
        {
          "internalType": "address",
          "name": "",
          "type": "address"
        }
      ],
      "stateMutability": "view",
      "type": "function"
    },
    {
      "inputs": [],
      "name": "vaultRouter",
      "outputs": [
        {
          "internalType": "contract IVaultRouter",
          "name": "",
          "type": "address"
        }
      ],
      "stateMutability": "view",
      "type": "function"
    },
    {
      "inputs": [
        {
          "internalType": "uint256",
          "name": "assets",
          "type": "uint256"
        },
        {
          "internalType": "address",
          "name": "receiver",
          "type": "address"
        },
        {
          "internalType": "address",
          "name": "owner",
          "type": "address"
        }
      ],
      "name": "withdraw",
      "outputs": [
        {
          "internalType": "uint256",
          "name": "",
          "type": "uint256"
        }
      ],
      "stateMutability": "nonpayable",
      "type": "function"
    }
  ],
  "bytecode": "0x60806040526009805460ff60a01b1916905534801561001d57600080fd5b506100273361002c565b61007e565b600780546001600160a01b038381166001600160a01b0319831681179093556040519116919082907f8be0079c531659141344cd1fd0a4f28419497f9722a3daafe3b4186f6b6457e090600090a35050565b61322d806200008e6000396000f3fe608060405234801561001057600080fd5b50600436106103785760003560e01c80637fe4a698116101d3578063c4cc8bbb11610104578063d905777e116100a2578063ef8b30f71161007c578063ef8b30f7146106dc578063f29ebf611461076a578063f2fde38b1461077d578063f4ca4d1d1461079057600080fd5b8063d905777e14610731578063db8d8fc614610744578063dd62ed3e1461075757600080fd5b8063c7b8b46d116100de578063c7b8b46d146106ef578063ce96cb77146106f8578063d37c441c1461070b578063d547741f1461071e57600080fd5b8063c4cc8bbb146106b4578063c63d75b6146106c7578063c6e6f592146106dc57600080fd5b8063a457c2d711610171578063b460af941161014b578063b460af941461065a578063ba0876521461066d578063c154d6ca14610680578063c31295d41461069457600080fd5b8063a457c2d714610621578063a9059cbb14610634578063b3d7f6b91461064757600080fd5b806394bf804d116101ad57806394bf804d146105eb57806395d89b41146105fe578063966be07514610606578063a217fddf1461061957600080fd5b80637fe4a698146105b45780638da5cb5b146105c757806391d14854146105d857600080fd5b806335269315116102ad5780634cdad5061161024b57806370a082311161022557806370a082311461055d578063715018a61461058657806375829def1461058e578063780e72ff146105a157600080fd5b80634cdad506146103d05780636e553f65146105415780636fd3acb41461055457600080fd5b8063395093511161028757806339509351146104f5578063402d267d1461050857806345be08da1461051b5780634b313b811461052e57600080fd5b806335269315146104b457806336568abe146104bd57806338d52e0f146104d057600080fd5b806318160ddd1161031a5780632e7e8415116102f45780632e7e84151461045c5780632f2ff15d1461046f578063313ce56714610482578063315c1e08146104a157600080fd5b806318160ddd1461041e57806323b872dd14610426578063248a9ca31461043957600080fd5b806307a2d13a1161035657806307a2d13a146103d0578063095ea7b3146103e35780630a28a477146103f65780630c3b0df21461040957600080fd5b806301e1d1141461037d57806301ffc9a71461039857806306fdde03146103bb575b600080fd5b610385610798565b6040519081526020015b60405180910390f35b6103ab6103a6366004612a03565b61080b565b604051901515815260200161038f565b6103c3610842565b60405161038f9190612a51565b6103856103de366004612a84565b6108d4565b6103ab6103f1366004612ab9565b6108e1565b610385610404366004612a84565b6108f9565b61041c610417366004612ab9565b610906565b005b600254610385565b6103ab610434366004612ae3565b61093d565b610385610447366004612a84565b60009081526006602052604090206001015490565b61038561046a366004612b2d565b610963565b61041c61047d366004612b4a565b61097a565b600554600160a01b900460ff1660405160ff909116815260200161038f565b6103856104af366004612b76565b6109a4565b610385600c5481565b61041c6104cb366004612b4a565b6109ef565b6005546001600160a01b03165b6040516001600160a01b03909116815260200161038f565b6103ab610503366004612ab9565b610a6e565b610385610516366004612b94565b610a90565b61041c610529366004612b76565b610aae565b600f546104dd906001600160a01b031681565b61038561054f366004612b4a565b610b2e565b610385600d5481565b61038561056b366004612b94565b6001600160a01b031660009081526020819052604090205490565b61041c610ba1565b61041c61059c366004612b94565b610bb5565b61041c6105af366004612b94565b610bdf565b61041c6105c2366004612b94565b610c9e565b6007546001600160a01b03166104dd565b6103ab6105e6366004612b4a565b610cc8565b6103856105f9366004612b4a565b610cf3565b6103c3610d0d565b61041c610614366004612a84565b610d1c565b610385600081565b6103ab61062f366004612ab9565b610d81565b6103ab610642366004612ab9565b610e07565b610385610655366004612a84565b610e15565b610385610668366004612baf565b610e22565b61038561067b366004612baf565b610e9e565b6009546103ab90600160a01b900460ff1681565b6103856106a2366004612b94565b600b6020526000908152604090205481565b61041c6106c2366004612b2d565b610f12565b6103856106d5366004612b94565b5060001990565b6103856106ea366004612a84565b610f88565b610385600e5481565b610385610706366004612b94565b610f95565b6009546104dd906001600160a01b031681565b61041c61072c366004612b4a565b610fb9565b61038561073f366004612b94565b610fde565b61041c610752366004612c8e565b610ffc565b610385610765366004612d33565b611202565b600a546104dd906001600160a01b031681565b61041c61078b366004612b94565b61122d565b6103856112a3565b60095460408051636dc7b0a160e01b815290516000926001600160a01b031691636dc7b0a19160048083019260209291908290030181865afa1580156107e2573d6000803e3d6000fd5b505050506040513d601f19601f820116820180604052508101906108069190612d5d565b905090565b60006001600160e01b03198216637965db0b60e01b148061083c57506301ffc9a760e01b6001600160e01b03198316145b92915050565b60606003805461085190612d76565b80601f016020809104026020016040519081016040528092919081815260200182805461087d90612d76565b80156108ca5780601f1061089f576101008083540402835291602001916108ca565b820191906000526020600020905b8154815290600101906020018083116108ad57829003601f168201915b5050505050905090565b600061083c8260006112b2565b6000336108ef818585611334565b5060019392505050565b600061083c826001611458565b61091d6000805160206131d883398151915261149d565b6109396109326005546001600160a01b031690565b83836114a7565b5050565b60003361094b85828561150a565b610956858585611584565b60019150505b9392505050565b60008161097257600e5461083c565b5050600d5490565b6000828152600660205260409020600101546109958161149d565b61099f8383611733565b505050565b600082156109d6576109b86008600a612eaa565b600d546109c59084612eb6565b6109cf9190612ee3565b905061083c565b6109e26008600a612eaa565b600e546109c59084612eb6565b6001600160a01b0381163314610a645760405162461bcd60e51b815260206004820152602f60248201527f416363657373436f6e74726f6c3a2063616e206f6e6c792072656e6f756e636560448201526e103937b632b9903337b91039b2b63360891b60648201526084015b60405180910390fd5b61093982826117b9565b6000336108ef818585610a818383611202565b610a8b9190612f05565b611334565b6000610a9a611820565b610aa557600061083c565b60001992915050565b610ad77f241ecf16d79d0f8dbfb92cbc07fe17840425976cf0667f022fe9877caa831b0861149d565b81610ae75780600e819055610aee565b80600d8190555b50604080518315158152602081018390527f7f7f1bc207db1b3f896247af386fe2184613f48428c0d500cbc9f4d0ac5acfab910160405180910390a15050565b6000610b3982610a90565b831115610b885760405162461bcd60e51b815260206004820152601e60248201527f455243343632363a206465706f736974206d6f7265207468616e206d617800006044820152606401610a5b565b6000610b9384610f88565b905061095c3384868461183a565b610ba96119dc565b610bb36000611a36565b565b6000610bc08161149d565b610bcb600083611a88565b610bd482611a36565b6109396000336117b9565b610c087f241ecf16d79d0f8dbfb92cbc07fe17840425976cf0667f022fe9877caa831b0861149d565b6009546001600160a01b031615610c3e57600954610c3e906000805160206131d8833981519152906001600160a01b03166117b9565b600980546001600160a01b0319166001600160a01b038316179055610c716000805160206131d883398151915282611733565b610c9b7f92de27771f92d6942691d73358b3a4673e4880de8356f8f2cf452be87e02d36382611733565b50565b7f8d1089725c0dc266707fa6207730fb801dcd03108bfed7a21099bd303651d2b76103788161149d565b60009182526006602090815260408084206001600160a01b0393909316845291905290205460ff1690565b600080610cff84610e15565b905061095c3384838761183a565b60606004805461085190612d76565b610d457f241ecf16d79d0f8dbfb92cbc07fe17840425976cf0667f022fe9877caa831b0861149d565b600c8190556040518181527f57309e54eb3c050199477e2c187a12eec0088a1f1722c43a9178d621edf39e98906020015b60405180910390a150565b60003381610d8f8286611202565b905083811015610def5760405162461bcd60e51b815260206004820152602560248201527f45524332303a2064656372656173656420616c6c6f77616e63652062656c6f77604482015264207a65726f60d81b6064820152608401610a5b565b610dfc8286868403611334565b506001949350505050565b6000336108ef818585611584565b600061083c8260016112b2565b6000610e2d82610f95565b841115610e7c5760405162461bcd60e51b815260206004820152601f60248201527f455243343632363a207769746864726177206d6f7265207468616e206d6178006044820152606401610a5b565b6000610e87856108f9565b9050610e963385858885611a92565b949350505050565b6000610ea982610fde565b841115610ef85760405162461bcd60e51b815260206004820152601d60248201527f455243343632363a2072656465656d206d6f7265207468616e206d61780000006044820152606401610a5b565b6000610f03856108d4565b9050610e963385858489611a92565b610f3b7f92de27771f92d6942691d73358b3a4673e4880de8356f8f2cf452be87e02d36361149d565b60098054821515600160a01b0260ff60a01b199091161790556040517f304980e7a98cd251f25e85dbe838e498ece26e6aeba1e9912871343633eea86c90610d7690831515815260200190565b600061083c826000611458565b6001600160a01b03811660009081526020819052604081205461083c9060006112b2565b600082815260066020526040902060010154610fd48161149d565b61099f83836117b9565b6001600160a01b03811660009081526020819052604081205461083c565b600754600160a81b900460ff161580801561102457506007546001600160a01b90910460ff16105b806110455750303b1580156110455750600754600160a01b900460ff166001145b6110a85760405162461bcd60e51b815260206004820152602e60248201527f496e697469616c697a61626c653a20636f6e747261637420697320616c72656160448201526d191e481a5b9a5d1a585b1a5e995960921b6064820152608401610a5b565b6007805460ff60a01b1916600160a01b17905580156110d5576007805460ff60a81b1916600160a81b1790555b6110df8686611c59565b6110e887611c72565b6110f133611cd0565b600980546001600160a01b0319166001600160a01b0386161790556111246000805160206131d883398151915285611733565b61114e7f92de27771f92d6942691d73358b3a4673e4880de8356f8f2cf452be87e02d36385611733565b600a80546001600160a01b0319166001600160a01b038516178155610384600c5560649061117e90600890612eaa565b611189906001612eb6565b6111939190612ee3565b600e55600f80546001600160a01b0319166001600160a01b03841617905580156111f9576007805460ff60a81b19169055604051600181527f7f26b83ff96e1f2b6a682f133852f6798a09c465da95921460cefb38474024989060200160405180910390a15b50505050505050565b6001600160a01b03918216600090815260016020908152604080832093909416825291909152205490565b6112356119dc565b6001600160a01b03811661129a5760405162461bcd60e51b815260206004820152602660248201527f4f776e61626c653a206e6577206f776e657220697320746865207a65726f206160448201526564647265737360d01b6064820152608401610a5b565b610c9b81611a36565b6112af6008600a612eaa565b81565b60006112be8383611cf3565b9050600060018360028111156112d6576112d6612f18565b149050801561132057600d546112ee6008600a612eaa565b6112f89190612f2e565b6113046008600a612eaa565b61130e9084612eb6565b6113189190612ee3565b91505061083c565b61132a81836109a4565b6113189083612f2e565b6001600160a01b0383166113965760405162461bcd60e51b8152602060048201526024808201527f45524332303a20617070726f76652066726f6d20746865207a65726f206164646044820152637265737360e01b6064820152608401610a5b565b6001600160a01b0382166113f75760405162461bcd60e51b815260206004820152602260248201527f45524332303a20617070726f766520746f20746865207a65726f206164647265604482015261737360f01b6064820152608401610a5b565b6001600160a01b0383811660008181526001602090815260408083209487168084529482529182902085905590518481527f8c5be1e5ebec7d5bd14f71427d1e84f3dd0314c0f7b2291e5b200ac8c7c3b925910160405180910390a3505050565b60006114648383611d26565b905060008083600281111561147b5761147b612f18565b149050801561148e5761132a81836109a4565b600e546112ee6008600a612eaa565b610c9b8133611d58565b6040516001600160a01b03831660248201526044810182905261099f90849063a9059cbb60e01b906064015b60408051601f198184030181529190526020810180516001600160e01b03166001600160e01b031990931692909217909152611db1565b60006115168484611202565b9050600019811461157e57818110156115715760405162461bcd60e51b815260206004820152601d60248201527f45524332303a20696e73756666696369656e7420616c6c6f77616e63650000006044820152606401610a5b565b61157e8484848403611334565b50505050565b6001600160a01b0383166115e85760405162461bcd60e51b815260206004820152602560248201527f45524332303a207472616e736665722066726f6d20746865207a65726f206164604482015264647265737360d81b6064820152608401610a5b565b6001600160a01b03821661164a5760405162461bcd60e51b815260206004820152602360248201527f45524332303a207472616e7366657220746f20746865207a65726f206164647260448201526265737360e81b6064820152608401610a5b565b611655838383611e83565b6001600160a01b038316600090815260208190526040902054818110156116cd5760405162461bcd60e51b815260206004820152602660248201527f45524332303a207472616e7366657220616d6f756e7420657863656564732062604482015265616c616e636560d01b6064820152608401610a5b565b6001600160a01b03848116600081815260208181526040808320878703905593871680835291849020805487019055925185815290927fddf252ad1be2c89b69c2b068fc378daa952ba7f163c4a11628f55a4df523b3ef910160405180910390a361157e565b61173d8282610cc8565b6109395760008281526006602090815260408083206001600160a01b03851684529091529020805460ff191660011790556117753390565b6001600160a01b0316816001600160a01b0316837f2f8788117e7eff1d82e926ec794901d17c78024a50270940304540a733656f0d60405160405180910390a45050565b6117c38282610cc8565b156109395760008281526006602090815260408083206001600160a01b0385168085529252808320805460ff1916905551339285917ff6391f5c32d9c69d2a47ea670b442974b53935d1edc7fd64eb21e047a839171b9190a45050565b60008061182b610798565b11806108065750506002541590565b600954600160a01b900460ff16156118835760405162461bcd60e51b815260206004820152600c60248201526b7661756c743a667265657a6560a01b6044820152606401610a5b565b600f546001600160a01b031633146118cd5760405162461bcd60e51b815260206004820152600d60248201526c1858d8d95cdcc819195a5b9959609a1b6044820152606401610a5b565b6001600160a01b0383166000908152600b602052604081204290556118f3826001611cf3565b9050600081841161190d576119088483612f2e565b611917565b6119178285612f2e565b90506000828511611928578261192a565b845b905061193560025490565b6000036119585761194960006103e8611fc5565b6119556103e885612f2e565b93505b6119648787838761203a565b6119828661197a6005546001600160a01b031690565b8460016120b8565b60408051868152602081018690529081018390526001600160a01b0380881691908916907f502b1539e5ec91b2596d2d64d20b1f89c28d2e11fc7d74961c930cd221669e329060600160405180910390a350505050505050565b6007546001600160a01b03163314610bb35760405162461bcd60e51b815260206004820181905260248201527f4f776e61626c653a2063616c6c6572206973206e6f7420746865206f776e65726044820152606401610a5b565b600780546001600160a01b038381166001600160a01b0319831681179093556040519116919082907f8be0079c531659141344cd1fd0a4f28419497f9722a3daafe3b4186f6b6457e090600090a35050565b6109398282611733565b600954600160a01b900460ff1615611adb5760405162461bcd60e51b815260206004820152600c60248201526b7661756c743a667265657a6560a01b6044820152606401610a5b565b600f546001600160a01b03163314611b255760405162461bcd60e51b815260206004820152600d60248201526c1858d8d95cdcc819195a5b9959609a1b6044820152606401610a5b565b6001600160a01b0383166000908152600b6020526040902054600c54611b4b9190612f05565b4211611b8a5760405162461bcd60e51b815260206004820152600e60248201526d3b30bab63a1d31b7b7b63237bbb760911b6044820152606401610a5b565b6000611b97826000611cf3565b9050828111600081611ba95782611bab565b845b9050611bba8888888488612296565b600082611bd057611bcb8487612f2e565b611bda565b611bda8685612f2e565b9050611bfa87611bf26005546001600160a01b031690565b8360006120b8565b60408051878152602081018790529081018290526001600160a01b03808916918a8216918c16907fbd93a9fa352132d84f0041011cee9c7891c834f670c204950c0310d49be30edf9060600160405180910390a4505050505050505050565b6003611c658382612f8f565b50600461099f8282612f8f565b600080611c7e83612342565b9150915081611c8e576012611c90565b805b600580546001600160a01b039095166001600160a01b031960ff93909316600160a01b02929092166001600160a81b031990951694909417179092555050565b42600855611cdd33611a36565b611ce8600033611a88565b610c9b600082611a88565b600080611cff60025490565b90508015611d2057611d1b611d12610798565b8590838661241e565b610e96565b83610e96565b600080611d3260025490565b9050831580611d3f575080155b611d2057611d1b81611d4f610798565b8691908661241e565b611d628282610cc8565b61093957611d6f8161247b565b611d7a83602061248d565b604051602001611d8b92919061304f565b60408051601f198184030181529082905262461bcd60e51b8252610a5b91600401612a51565b6000611e06826040518060400160405280602081526020017f5361666545524332303a206c6f772d6c6576656c2063616c6c206661696c6564815250856001600160a01b03166126299092919063ffffffff16565b80519091501561099f5780806020019051810190611e2491906130c4565b61099f5760405162461bcd60e51b815260206004820152602a60248201527f5361666545524332303a204552433230206f7065726174696f6e20646964206e6044820152691bdd081cdd58d8d9595960b21b6064820152608401610a5b565b6001600160a01b038316611ef157600f54604051630f71585960e11b81526001600160a01b03848116600483015290911690631ee2b0b290602401600060405180830381600087803b158015611ed857600080fd5b505af1158015611eec573d6000803e3d6000fd5b505050505b6001600160a01b038216611f5f57600f54604051630f71585960e11b81526001600160a01b03858116600483015290911690631ee2b0b290602401600060405180830381600087803b158015611f4657600080fd5b505af1158015611f5a573d6000803e3d6000fd5b505050505b6001600160a01b0383161580611f7c57506001600160a01b038216155b15611f8657505050565b60405162461bcd60e51b81526020600482015260146024820152731d1c985b9cd9995c881b9bdd08185b1b1bddd95960621b6044820152606401610a5b565b611fd160008383611e83565b8060026000828254611fe39190612f05565b90915550506001600160a01b038216600081815260208181526040808320805486019055518481527fddf252ad1be2c89b69c2b068fc378daa952ba7f163c4a11628f55a4df523b3ef910160405180910390a35050565b600554612052906001600160a01b0316853085612638565b61205c8382611fc5565b826001600160a01b0316846001600160a01b03167fdcbc1c05240f31ff3ad067ef1ee35ce4997762752e3a095284754544f4c709d784846040516120aa929190918252602082015260400190565b60405180910390a350505050565b811561157e576000816120cc5760066120cf565b60055b905060006120de8260016130e1565b60ff1667ffffffffffffffff8111156120f9576120f9612beb565b604051908082528060200260200182016040528015612122578160200160208202803683370190505b50600a5460405163095ea7b360e01b81526001600160a01b0391821660048201526024810187905291925086169063095ea7b3906044016020604051808303816000875af1158015612178573d6000803e3d6000fd5b505050506040513d601f19601f8201168201806040525081019061219c91906130c4565b5061220884866001600160a01b031663313ce5676040518163ffffffff1660e01b8152600401602060405180830381865afa1580156121df573d6000803e3d6000fd5b505050506040513d601f19601f8201168201806040525081019061220391906130fa565b612670565b818360ff168151811061221d5761221d61311d565b6020908102919091010152600a5460405163e50f19ef60e01b81526001600160a01b039091169063e50f19ef9061225c90899089908690600401613133565b600060405180830381600087803b15801561227657600080fd5b505af115801561228a573d6000803e3d6000fd5b50505050505050505050565b826001600160a01b0316856001600160a01b0316146122ba576122ba83868361150a565b6122c4838261269d565b6005546122db906001600160a01b031685846114a7565b826001600160a01b0316846001600160a01b0316866001600160a01b03167ffbde797d201c681b91056529119e0b02407c7bb96a4a2c75c01fc9667232c8db8585604051612333929190918252602082015260400190565b60405180910390a45050505050565b60408051600481526024810182526020810180516001600160e01b031663313ce56760e01b17905290516000918291829182916001600160a01b0387169161238991613195565b600060405180830381855afa9150503d80600081146123c4576040519150601f19603f3d011682016040523d82523d6000602084013e6123c9565b606091505b50915091508180156123dd57506020815110155b15612411576000818060200190518101906123f89190612d5d565b905060ff811161240f576001969095509350505050565b505b5060009485945092505050565b60008061242c8686866127db565b9050600183600281111561244257612442612f18565b14801561245f57506000848061245a5761245a612ecd565b868809115b156124725761246f600182612f05565b90505b95945050505050565b606061083c6001600160a01b03831660145b6060600061249c836002612eb6565b6124a7906002612f05565b67ffffffffffffffff8111156124bf576124bf612beb565b6040519080825280601f01601f1916602001820160405280156124e9576020820181803683370190505b509050600360fc1b816000815181106125045761250461311d565b60200101906001600160f81b031916908160001a905350600f60fb1b816001815181106125335761253361311d565b60200101906001600160f81b031916908160001a9053506000612557846002612eb6565b612562906001612f05565b90505b60018111156125da576f181899199a1a9b1b9c1cb0b131b232b360811b85600f16601081106125965761259661311d565b1a60f81b8282815181106125ac576125ac61311d565b60200101906001600160f81b031916908160001a90535060049490941c936125d3816131b1565b9050612565565b50831561095c5760405162461bcd60e51b815260206004820181905260248201527f537472696e67733a20686578206c656e67746820696e73756666696369656e746044820152606401610a5b565b6060610e96848460008561288a565b6040516001600160a01b038085166024830152831660448201526064810182905261157e9085906323b872dd60e01b906084016114d3565b600061267d82600a6131c8565b6126896012600a612eaa565b6126939085612eb6565b61095c9190612ee3565b6001600160a01b0382166126fd5760405162461bcd60e51b815260206004820152602160248201527f45524332303a206275726e2066726f6d20746865207a65726f206164647265736044820152607360f81b6064820152608401610a5b565b61270982600083611e83565b6001600160a01b0382166000908152602081905260409020548181101561277d5760405162461bcd60e51b815260206004820152602260248201527f45524332303a206275726e20616d6f756e7420657863656564732062616c616e604482015261636560f01b6064820152608401610a5b565b6001600160a01b0383166000818152602081815260408083208686039055600280548790039055518581529192917fddf252ad1be2c89b69c2b068fc378daa952ba7f163c4a11628f55a4df523b3ef910160405180910390a3505050565b60008080600019858709858702925082811083820303915050806000036128155783828161280b5761280b612ecd565b049250505061095c565b80841161282157600080fd5b60008486880960026001871981018816978890046003810283188082028403028082028403028082028403028082028403028082028403029081029092039091026000889003889004909101858311909403939093029303949094049190911702949350505050565b6060824710156128eb5760405162461bcd60e51b815260206004820152602660248201527f416464726573733a20696e73756666696369656e742062616c616e636520666f6044820152651c8818d85b1b60d21b6064820152608401610a5b565b600080866001600160a01b031685876040516129079190613195565b60006040518083038185875af1925050503d8060008114612944576040519150601f19603f3d011682016040523d82523d6000602084013e612949565b606091505b509150915061295a87838387612965565b979650505050505050565b606083156129d45782516000036129cd576001600160a01b0385163b6129cd5760405162461bcd60e51b815260206004820152601d60248201527f416464726573733a2063616c6c20746f206e6f6e2d636f6e74726163740000006044820152606401610a5b565b5081610e96565b610e9683838151156129e95781518083602001fd5b8060405162461bcd60e51b8152600401610a5b9190612a51565b600060208284031215612a1557600080fd5b81356001600160e01b03198116811461095c57600080fd5b60005b83811015612a48578181015183820152602001612a30565b50506000910152565b6020815260008251806020840152612a70816040850160208701612a2d565b601f01601f19169190910160400192915050565b600060208284031215612a9657600080fd5b5035919050565b80356001600160a01b0381168114612ab457600080fd5b919050565b60008060408385031215612acc57600080fd5b612ad583612a9d565b946020939093013593505050565b600080600060608486031215612af857600080fd5b612b0184612a9d565b9250612b0f60208501612a9d565b9150604084013590509250925092565b8015158114610c9b57600080fd5b600060208284031215612b3f57600080fd5b813561095c81612b1f565b60008060408385031215612b5d57600080fd5b82359150612b6d60208401612a9d565b90509250929050565b60008060408385031215612b8957600080fd5b8235612ad581612b1f565b600060208284031215612ba657600080fd5b61095c82612a9d565b600080600060608486031215612bc457600080fd5b83359250612bd460208501612a9d565b9150612be260408501612a9d565b90509250925092565b634e487b7160e01b600052604160045260246000fd5b600082601f830112612c1257600080fd5b813567ffffffffffffffff80821115612c2d57612c2d612beb565b604051601f8301601f19908116603f01168101908282118183101715612c5557612c55612beb565b81604052838152866020858801011115612c6e57600080fd5b836020870160208301376000602085830101528094505050505092915050565b60008060008060008060c08789031215612ca757600080fd5b612cb087612a9d565b9550602087013567ffffffffffffffff80821115612ccd57600080fd5b612cd98a838b01612c01565b96506040890135915080821115612cef57600080fd5b50612cfc89828a01612c01565b945050612d0b60608801612a9d565b9250612d1960808801612a9d565b9150612d2760a08801612a9d565b90509295509295509295565b60008060408385031215612d4657600080fd5b612d4f83612a9d565b9150612b6d60208401612a9d565b600060208284031215612d6f57600080fd5b5051919050565b600181811c90821680612d8a57607f821691505b602082108103612daa57634e487b7160e01b600052602260045260246000fd5b50919050565b634e487b7160e01b600052601160045260246000fd5b600181815b80851115612e01578160001904821115612de757612de7612db0565b80851615612df457918102915b93841c9390800290612dcb565b509250929050565b600082612e185750600161083c565b81612e255750600061083c565b8160018114612e3b5760028114612e4557612e61565b600191505061083c565b60ff841115612e5657612e56612db0565b50506001821b61083c565b5060208310610133831016604e8410600b8410161715612e84575081810a61083c565b612e8e8383612dc6565b8060001904821115612ea257612ea2612db0565b029392505050565b600061095c8383612e09565b808202811582820484141761083c5761083c612db0565b634e487b7160e01b600052601260045260246000fd5b600082612f0057634e487b7160e01b600052601260045260246000fd5b500490565b8082018082111561083c5761083c612db0565b634e487b7160e01b600052602160045260246000fd5b8181038181111561083c5761083c612db0565b601f82111561099f57600081815260208120601f850160051c81016020861015612f685750805b601f850160051c820191505b81811015612f8757828155600101612f74565b505050505050565b815167ffffffffffffffff811115612fa957612fa9612beb565b612fbd81612fb78454612d76565b84612f41565b602080601f831160018114612ff25760008415612fda5750858301515b600019600386901b1c1916600185901b178555612f87565b600085815260208120601f198616915b8281101561302157888601518255948401946001909101908401613002565b508582101561303f5787850151600019600388901b60f8161c191681555b5050505050600190811b01905550565b7f416363657373436f6e74726f6c3a206163636f756e7420000000000000000000815260008351613087816017850160208801612a2d565b7001034b99036b4b9b9b4b733903937b6329607d1b60179184019182015283516130b8816028840160208801612a2d565b01602801949350505050565b6000602082840312156130d657600080fd5b815161095c81612b1f565b60ff818116838216019081111561083c5761083c612db0565b60006020828403121561310c57600080fd5b815160ff8116811461095c57600080fd5b634e487b7160e01b600052603260045260246000fd5b6001600160a01b0384811682528316602080830191909152606060408301819052835190830181905260009184810191608085019190845b818110156131875784518452938201939282019260010161316b565b509198975050505050505050565b600082516131a7818460208701612a2d565b9190910192915050565b6000816131c0576131c0612db0565b506000190190565b600061095c60ff841683612e0956fecb58d6d985142a614029cdf01861b4fe094d5919a47e69b8310dc4093d9d6ad0a2646970667358221220c38c1ca067deecc900d65d106b6a4ad9459331e04638534a84c5727bf4c68f8b64736f6c63430008110033",
  "linkReferences": {},
  "deployedLinkReferences": {}
}