{
  "_format": "hh-sol-artifact-1",
  "contractName": "CoreVault",
  "sourceName": "contracts/vault/CoreVault.sol",
  "abi": [
    {
      "anonymous": false,
      "inputs": [
        {
          "indexed": false,
          "internalType": "bool",
          "name": "allow",
          "type": "bool"
        }
      ],
      "name": "AllowBuy",
      "type": "event"
    },
    {
      "anonymous": false,
      "inputs": [
        {
          "indexed": true,
          "internalType": "address",
          "name": "owner",
          "type": "address"
        },
        {
          "indexed": true,
          "internalType": "address",
          "name": "spender",
          "type": "address"
        },
        {
          "indexed": false,
          "internalType": "uint256",
          "name": "value",
          "type": "uint256"
        }
      ],
      "name": "Approval",
      "type": "event"
    },
    {
      "anonymous": false,
      "inputs": [
        {
          "indexed": false,
          "internalType": "uint256",
          "name": "duration",
          "type": "uint256"
        }
      ],
      "name": "CoolDownDurationUpdated",
      "type": "event"
    },
    {
      "anonymous": false,
      "inputs": [
        {
          "indexed": true,
          "internalType": "address",
          "name": "sender",
          "type": "address"
        },
        {
          "indexed": true,
          "internalType": "address",
          "name": "owner",
          "type": "address"
        },
        {
          "indexed": false,
          "internalType": "uint256",
          "name": "assets",
          "type": "uint256"
        },
        {
          "indexed": false,
          "internalType": "uint256",
          "name": "shares",
          "type": "uint256"
        }
      ],
      "name": "Deposit",
      "type": "event"
    },
    {
      "anonymous": false,
      "inputs": [
        {
          "indexed": true,
          "internalType": "address",
          "name": "sender",
          "type": "address"
        },
        {
          "indexed": true,
          "internalType": "address",
          "name": "owner",
          "type": "address"
        },
        {
          "indexed": false,
          "internalType": "uint256",
          "name": "assets",
          "type": "uint256"
        },
        {
          "indexed": false,
          "internalType": "uint256",
          "name": "shares",
          "type": "uint256"
        },
        {
          "indexed": false,
          "internalType": "uint256",
          "name": "fee",
          "type": "uint256"
        }
      ],
      "name": "DepositAsset",
      "type": "event"
    },
    {
      "anonymous": false,
      "inputs": [
        {
          "indexed": false,
          "internalType": "uint8",
          "name": "version",
          "type": "uint8"
        }
      ],
      "name": "Initialized",
      "type": "event"
    },
    {
      "anonymous": false,
      "inputs": [
        {
          "indexed": false,
          "internalType": "bool",
          "name": "isBuy",
          "type": "bool"
        },
        {
          "indexed": false,
          "internalType": "uint256",
          "name": "fee",
          "type": "uint256"
        }
      ],
      "name": "LPFeeUpdated",
      "type": "event"
    },
    {
      "anonymous": false,
      "inputs": [
        {
          "indexed": false,
          "internalType": "bool",
          "name": "isFreeze",
          "type": "bool"
        }
      ],
      "name": "LogIsFreeze",
      "type": "event"
    },
    {
      "anonymous": false,
      "inputs": [
        {
          "indexed": true,
          "internalType": "address",
          "name": "from",
          "type": "address"
        },
        {
          "indexed": true,
          "internalType": "address",
          "name": "to",
          "type": "address"
        },
        {
          "indexed": false,
          "internalType": "uint256",
          "name": "value",
          "type": "uint256"
        }
      ],
      "name": "Transfer",
      "type": "event"
    },
    {
      "anonymous": false,
      "inputs": [
        {
          "indexed": true,
          "internalType": "address",
          "name": "sender",
          "type": "address"
        },
        {
          "indexed": true,
          "internalType": "address",
          "name": "receiver",
          "type": "address"
        },
        {
          "indexed": true,
          "internalType": "address",
          "name": "owner",
          "type": "address"
        },
        {
          "indexed": false,
          "internalType": "uint256",
          "name": "assets",
          "type": "uint256"
        },
        {
          "indexed": false,
          "internalType": "uint256",
          "name": "shares",
          "type": "uint256"
        }
      ],
      "name": "Withdraw",
      "type": "event"
    },
    {
      "anonymous": false,
      "inputs": [
        {
          "indexed": true,
          "internalType": "address",
          "name": "sender",
          "type": "address"
        },
        {
          "indexed": true,
          "internalType": "address",
          "name": "receiver",
          "type": "address"
        },
        {
          "indexed": true,
          "internalType": "address",
          "name": "owner",
          "type": "address"
        },
        {
          "indexed": false,
          "internalType": "uint256",
          "name": "assets",
          "type": "uint256"
        },
        {
          "indexed": false,
          "internalType": "uint256",
          "name": "shares",
          "type": "uint256"
        },
        {
          "indexed": false,
          "internalType": "uint256",
          "name": "fee",
          "type": "uint256"
        }
      ],
      "name": "WithdrawAsset",
      "type": "event"
    },
    {
      "inputs": [],
      "name": "DEFAULT_ADMIN_ROLE",
      "outputs": [
        {
          "internalType": "bytes32",
          "name": "",
          "type": "bytes32"
        }
      ],
      "stateMutability": "view",
      "type": "function"
    },
    {
      "inputs": [],
      "name": "FEE_RATE_PRECISION",
      "outputs": [
        {
          "internalType": "uint256",
          "name": "",
          "type": "uint256"
        }
      ],
      "stateMutability": "view",
      "type": "function"
    },
    {
      "inputs": [
        {
          "internalType": "address",
          "name": "newOwner",
          "type": "address"
        }
      ],
      "name": "_transferOwnership",
      "outputs": [],
      "stateMutability": "pure",
      "type": "function"
    },
    {
      "inputs": [],
      "name": "allowBuy",
      "outputs": [
        {
          "internalType": "bool",
          "name": "",
          "type": "bool"
        }
      ],
      "stateMutability": "view",
      "type": "function"
    },
    {
      "inputs": [
        {
          "internalType": "address",
          "name": "owner",
          "type": "address"
        },
        {
          "internalType": "address",
          "name": "spender",
          "type": "address"
        }
      ],
      "name": "allowance",
      "outputs": [
        {
          "internalType": "uint256",
          "name": "",
          "type": "uint256"
        }
      ],
      "stateMutability": "view",
      "type": "function"
    },
    {
      "inputs": [
        {
          "internalType": "address",
          "name": "spender",
          "type": "address"
        },
        {
          "internalType": "uint256",
          "name": "amount",
          "type": "uint256"
        }
      ],
      "name": "approve",
      "outputs": [
        {
          "internalType": "bool",
          "name": "",
          "type": "bool"
        }
      ],
      "stateMutability": "nonpayable",
      "type": "function"
    },
    {
      "inputs": [],
      "name": "asset",
      "outputs": [
        {
          "internalType": "address",
          "name": "",
          "type": "address"
        }
      ],
      "stateMutability": "view",
      "type": "function"
    },
    {
      "inputs": [
        {
          "internalType": "address",
          "name": "account",
          "type": "address"
        }
      ],
      "name": "balanceOf",
      "outputs": [
        {
          "internalType": "uint256",
          "name": "",
          "type": "uint256"
        }
      ],
      "stateMutability": "view",
      "type": "function"
    },
    {
      "inputs": [],
      "name": "buyLpFee",
      "outputs": [
        {
          "internalType": "uint256",
          "name": "",
          "type": "uint256"
        }
      ],
      "stateMutability": "view",
      "type": "function"
    },
    {
      "inputs": [
        {
          "internalType": "bool",
          "name": "isBuy",
          "type": "bool"
        },
        {
          "internalType": "uint256",
          "name": "amount",
          "type": "uint256"
        }
      ],
      "name": "computationalCosts",
      "outputs": [
        {
          "internalType": "uint256",
          "name": "",
          "type": "uint256"
        }
      ],
      "stateMutability": "view",
      "type": "function"
    },
    {
      "inputs": [
        {
          "internalType": "uint256",
          "name": "shares",
          "type": "uint256"
        }
      ],
      "name": "convertToAssets",
      "outputs": [
        {
          "internalType": "uint256",
          "name": "assets",
          "type": "uint256"
        }
      ],
      "stateMutability": "view",
      "type": "function"
    },
    {
      "inputs": [
        {
          "internalType": "uint256",
          "name": "assets",
          "type": "uint256"
        }
      ],
      "name": "convertToShares",
      "outputs": [
        {
          "internalType": "uint256",
          "name": "shares",
          "type": "uint256"
        }
      ],
      "stateMutability": "view",
      "type": "function"
    },
    {
      "inputs": [],
      "name": "cooldownDuration",
      "outputs": [
        {
          "internalType": "uint256",
          "name": "",
          "type": "uint256"
        }
      ],
      "stateMutability": "view",
      "type": "function"
    },
    {
      "inputs": [],
      "name": "decimals",
      "outputs": [
        {
          "internalType": "uint8",
          "name": "",
          "type": "uint8"
        }
      ],
      "stateMutability": "view",
      "type": "function"
    },
    {
      "inputs": [
        {
          "internalType": "address",
          "name": "spender",
          "type": "address"
        },
        {
          "internalType": "uint256",
          "name": "subtractedValue",
          "type": "uint256"
        }
      ],
      "name": "decreaseAllowance",
      "outputs": [
        {
          "internalType": "bool",
          "name": "",
          "type": "bool"
        }
      ],
      "stateMutability": "nonpayable",
      "type": "function"
    },
    {
      "inputs": [
        {
          "internalType": "uint256",
          "name": "assets",
          "type": "uint256"
        },
        {
          "internalType": "address",
          "name": "receiver",
          "type": "address"
        }
      ],
      "name": "deposit",
      "outputs": [
        {
          "internalType": "uint256",
          "name": "",
          "type": "uint256"
        }
      ],
      "stateMutability": "nonpayable",
      "type": "function"
    },
    {
      "inputs": [],
      "name": "feeRouter",
      "outputs": [
        {
          "internalType": "contract IFeeRouter",
          "name": "",
          "type": "address"
        }
      ],
      "stateMutability": "view",
      "type": "function"
    },
    {
      "inputs": [
        {
          "internalType": "bool",
          "name": "isBuy",
          "type": "bool"
        }
      ],
      "name": "getLPFee",
      "outputs": [
        {
          "internalType": "uint256",
          "name": "",
          "type": "uint256"
        }
      ],
      "stateMutability": "view",
      "type": "function"
    },
    {
      "inputs": [
        {
          "internalType": "address",
          "name": "_account",
          "type": "address"
        }
      ],
      "name": "grantControllerRoleByMarketManager",
      "outputs": [],
      "stateMutability": "nonpayable",
      "type": "function"
    },
    {
      "inputs": [
        {
          "internalType": "bytes32",
          "name": "role",
          "type": "bytes32"
        },
        {
          "internalType": "address",
          "name": "account",
          "type": "address"
        }
      ],
      "name": "grantRole",
      "outputs": [],
      "stateMutability": "pure",
      "type": "function"
    },
    {
      "inputs": [
        {
          "internalType": "bytes32",
          "name": "role",
          "type": "bytes32"
        },
        {
          "internalType": "address",
          "name": "account",
          "type": "address"
        }
      ],
      "name": "hasRole",
      "outputs": [
        {
          "internalType": "bool",
          "name": "",
          "type": "bool"
        }
      ],
      "stateMutability": "pure",
      "type": "function"
    },
    {
      "inputs": [
        {
          "internalType": "address",
          "name": "spender",
          "type": "address"
        },
        {
          "internalType": "uint256",
          "name": "addedValue",
          "type": "uint256"
        }
      ],
      "name": "increaseAllowance",
      "outputs": [
        {
          "internalType": "bool",
          "name": "",
          "type": "bool"
        }
      ],
      "stateMutability": "nonpayable",
      "type": "function"
    },
    {
      "inputs": [
        {
          "internalType": "address",
          "name": "_asset",
          "type": "address"
        },
        {
          "internalType": "string",
          "name": "_name",
          "type": "string"
        },
        {
          "internalType": "string",
          "name": "_symbol",
          "type": "string"
        },
        {
          "internalType": "address",
          "name": "_vaultRouter",
          "type": "address"
        },
        {
          "internalType": "address",
          "name": "_feeRouter",
          "type": "address"
        },
        {
          "internalType": "address",
          "name": "_vaultReward",
          "type": "address"
        }
      ],
      "name": "initialize",
      "outputs": [],
      "stateMutability": "nonpayable",
      "type": "function"
    },
    {
      "inputs": [],
      "name": "isFreeze",
      "outputs": [
        {
          "internalType": "bool",
          "name": "",
          "type": "bool"
        }
      ],
      "stateMutability": "view",
      "type": "function"
    },
    {
      "inputs": [
        {
          "internalType": "address",
          "name": "",
          "type": "address"
        }
      ],
      "name": "lastDepositAt",
      "outputs": [
        {
          "internalType": "uint256",
          "name": "",
          "type": "uint256"
        }
      ],
      "stateMutability": "view",
      "type": "function"
    },
    {
      "inputs": [
        {
          "internalType": "address",
          "name": "",
          "type": "address"
        }
      ],
      "name": "maxDeposit",
      "outputs": [
        {
          "internalType": "uint256",
          "name": "",
          "type": "uint256"
        }
      ],
      "stateMutability": "view",
      "type": "function"
    },
    {
      "inputs": [
        {
          "internalType": "address",
          "name": "",
          "type": "address"
        }
      ],
      "name": "maxMint",
      "outputs": [
        {
          "internalType": "uint256",
          "name": "",
          "type": "uint256"
        }
      ],
      "stateMutability": "view",
      "type": "function"
    },
    {
      "inputs": [
        {
          "internalType": "address",
          "name": "owner",
          "type": "address"
        }
      ],
      "name": "maxRedeem",
      "outputs": [
        {
          "internalType": "uint256",
          "name": "",
          "type": "uint256"
        }
      ],
      "stateMutability": "view",
      "type": "function"
    },
    {
      "inputs": [
        {
          "internalType": "address",
          "name": "owner",
          "type": "address"
        }
      ],
      "name": "maxWithdraw",
      "outputs": [
        {
          "internalType": "uint256",
          "name": "",
          "type": "uint256"
        }
      ],
      "stateMutability": "view",
      "type": "function"
    },
    {
      "inputs": [
        {
          "internalType": "uint256",
          "name": "shares",
          "type": "uint256"
        },
        {
          "internalType": "address",
          "name": "receiver",
          "type": "address"
        }
      ],
      "name": "mint",
      "outputs": [
        {
          "internalType": "uint256",
          "name": "",
          "type": "uint256"
        }
      ],
      "stateMutability": "nonpayable",
      "type": "function"
    },
    {
      "inputs": [],
      "name": "name",
      "outputs": [
        {
          "internalType": "string",
          "name": "",
          "type": "string"
        }
      ],
      "stateMutability": "view",
      "type": "function"
    },
    {
      "inputs": [
        {
          "internalType": "uint256",
          "name": "assets",
          "type": "uint256"
        }
      ],
      "name": "previewDeposit",
      "outputs": [
        {
          "internalType": "uint256",
          "name": "",
          "type": "uint256"
        }
      ],
      "stateMutability": "view",
      "type": "function"
    },
    {
      "inputs": [
        {
          "internalType": "uint256",
          "name": "shares",
          "type": "uint256"
        }
      ],
      "name": "previewMint",
      "outputs": [
        {
          "internalType": "uint256",
          "name": "",
          "type": "uint256"
        }
      ],
      "stateMutability": "view",
      "type": "function"
    },
    {
      "inputs": [
        {
          "internalType": "uint256",
          "name": "shares",
          "type": "uint256"
        }
      ],
      "name": "previewRedeem",
      "outputs": [
        {
          "internalType": "uint256",
          "name": "",
          "type": "uint256"
        }
      ],
      "stateMutability": "view",
      "type": "function"
    },
    {
      "inputs": [
        {
          "internalType": "uint256",
          "name": "assets",
          "type": "uint256"
        }
      ],
      "name": "previewWithdraw",
      "outputs": [
        {
          "internalType": "uint256",
          "name": "",
          "type": "uint256"
        }
      ],
      "stateMutability": "view",
      "type": "function"
    },
    {
      "inputs": [
        {
          "internalType": "uint256",
          "name": "shares",
          "type": "uint256"
        },
        {
          "internalType": "address",
          "name": "receiver",
          "type": "address"
        },
        {
          "internalType": "address",
          "name": "owner",
          "type": "address"
        }
      ],
      "name": "redeem",
      "outputs": [
        {
          "internalType": "uint256",
          "name": "",
          "type": "uint256"
        }
      ],
      "stateMutability": "nonpayable",
      "type": "function"
    },
    {
      "inputs": [
        {
          "internalType": "bytes32",
          "name": "role",
          "type": "bytes32"
        },
        {
          "internalType": "address",
          "name": "account",
          "type": "address"
        }
      ],
      "name": "revokeRole",
      "outputs": [],
      "stateMutability": "pure",
      "type": "function"
    },
    {
      "inputs": [],
      "name": "sellLpFee",
      "outputs": [
        {
          "internalType": "uint256",
          "name": "",
          "type": "uint256"
        }
      ],
      "stateMutability": "view",
      "type": "function"
    },
    {
      "inputs": [
        {
          "internalType": "bool",
          "name": "allow",
          "type": "bool"
        }
      ],
      "name": "setAllowBuy",
      "outputs": [],
      "stateMutability": "nonpayable",
      "type": "function"
    },
    {
      "inputs": [
        {
          "internalType": "uint256",
          "name": "_duration",
          "type": "uint256"
        }
      ],
      "name": "setCooldownDuration",
      "outputs": [],
      "stateMutability": "nonpayable",
      "type": "function"
    },
    {
      "inputs": [
        {
          "internalType": "address",
          "name": "_feeRouter",
          "type": "address"
        }
      ],
      "name": "setFeeRouter",
      "outputs": [],
      "stateMutability": "nonpayable",
      "type": "function"
    },
    {
      "inputs": [
        {
          "internalType": "bool",
          "name": "f",
          "type": "bool"
        }
      ],
      "name": "setIsFreeze",
      "outputs": [],
      "stateMutability": "nonpayable",
      "type": "function"
    },
    {
      "inputs": [
        {
          "internalType": "bool",
          "name": "isBuy",
          "type": "bool"
        },
        {
          "internalType": "uint256",
          "name": "fee",
          "type": "uint256"
        }
      ],
      "name": "setLpFee",
      "outputs": [],
      "stateMutability": "nonpayable",
      "type": "function"
    },
    {
      "inputs": [
        {
          "internalType": "address",
          "name": "_vaultRouter",
          "type": "address"
        }
      ],
      "name": "setVaultRouter",
      "outputs": [],
      "stateMutability": "nonpayable",
      "type": "function"
    },
    {
      "inputs": [],
      "name": "symbol",
      "outputs": [
        {
          "internalType": "string",
          "name": "",
          "type": "string"
        }
      ],
      "stateMutability": "view",
      "type": "function"
    },
    {
      "inputs": [],
      "name": "totalAssets",
      "outputs": [
        {
          "internalType": "uint256",
          "name": "",
          "type": "uint256"
        }
      ],
      "stateMutability": "view",
      "type": "function"
    },
    {
      "inputs": [],
      "name": "totalSupply",
      "outputs": [
        {
          "internalType": "uint256",
          "name": "",
          "type": "uint256"
        }
      ],
      "stateMutability": "view",
      "type": "function"
    },
    {
      "inputs": [
        {
          "internalType": "address",
          "name": "to",
          "type": "address"
        },
        {
          "internalType": "uint256",
          "name": "amount",
          "type": "uint256"
        }
      ],
      "name": "transfer",
      "outputs": [
        {
          "internalType": "bool",
          "name": "",
          "type": "bool"
        }
      ],
      "stateMutability": "nonpayable",
      "type": "function"
    },
    {
      "inputs": [
        {
          "internalType": "address",
          "name": "to",
          "type": "address"
        }
      ],
      "name": "transferAdmin",
      "outputs": [],
      "stateMutability": "nonpayable",
      "type": "function"
    },
    {
      "inputs": [
        {
          "internalType": "address",
          "name": "from",
          "type": "address"
        },
        {
          "internalType": "address",
          "name": "to",
          "type": "address"
        },
        {
          "internalType": "uint256",
          "name": "amount",
          "type": "uint256"
        }
      ],
      "name": "transferFrom",
      "outputs": [
        {
          "internalType": "bool",
          "name": "",
          "type": "bool"
        }
      ],
      "stateMutability": "nonpayable",
      "type": "function"
    },
    {
      "inputs": [
        {
          "internalType": "address",
          "name": "to",
          "type": "address"
        },
        {
          "internalType": "uint256",
          "name": "amount",
          "type": "uint256"
        }
      ],
      "name": "transferOutAssets",
      "outputs": [],
      "stateMutability": "nonpayable",
      "type": "function"
    },
    {
      "inputs": [
        {
          "internalType": "address",
          "name": "newOwner",
          "type": "address"
        }
      ],
      "name": "transferOwnership",
      "outputs": [],
      "stateMutability": "pure",
      "type": "function"
    },
    {
      "inputs": [],
      "name": "vaultReward",
      "outputs": [
        {
          "internalType": "address",
          "name": "",
          "type": "address"
        }
      ],
      "stateMutability": "view",
      "type": "function"
    },
    {
      "inputs": [],
      "name": "vaultRouter",
      "outputs": [
        {
          "internalType": "contract IVaultRouter",
          "name": "",
          "type": "address"
        }
      ],
      "stateMutability": "view",
      "type": "function"
    },
    {
      "inputs": [
        {
          "internalType": "uint256",
          "name": "assets",
          "type": "uint256"
        },
        {
          "internalType": "address",
          "name": "receiver",
          "type": "address"
        },
        {
          "internalType": "address",
          "name": "owner",
          "type": "address"
        }
      ],
      "name": "withdraw",
      "outputs": [
        {
          "internalType": "uint256",
          "name": "",
          "type": "uint256"
        }
      ],
      "stateMutability": "nonpayable",
      "type": "function"
    }
  ],
  "bytecode": "0x60806040526008805460ff60a01b1916905534801561001d57600080fd5b50612ab18061002d6000396000f3fe608060405234801561001057600080fd5b506004361061035d5760003560e01c806395d89b41116101d3578063c6e6f59211610104578063d905777e116100a2578063ef8b30f71161007c578063ef8b30f7146106a5578063f29ebf6114610744578063f2fde38b146106d4578063f4ca4d1d1461075757600080fd5b8063d905777e1461070b578063db8d8fc61461071e578063dd62ed3e1461073157600080fd5b8063d29d44ee116100de578063d29d44ee146106d4578063d37c441c146106e5578063d547741f1461041e578063d6046836146106f857600080fd5b8063c6e6f592146106a5578063c7b8b46d146106b8578063ce96cb77146106c157600080fd5b8063b460af9411610171578063c267ada41161014b578063c267ada41461062d578063c31295d41461065d578063c4cc8bbb1461067d578063c63d75b61461069057600080fd5b8063b460af94146105f3578063ba08765214610606578063c154d6ca1461061957600080fd5b8063a457c2d7116101ad578063a457c2d7146105a6578063a9059cbb146105b9578063ab7cb211146105cc578063b3d7f6b9146105e057600080fd5b806395d89b4114610583578063966be0751461058b578063a217fddf1461059e57600080fd5b806338d52e0f116102ad5780636fd3acb41161024b578063780e72ff11610225578063780e72ff146105345780637fe4a6981461054757806391d148541461055a57806394bf804d1461057057600080fd5b80636fd3acb4146104ef57806370a08231146104f857806375829def1461052157600080fd5b806345be08da1161028757806345be08da146104b65780634b313b81146104c95780634cdad506146103925780636e553f65146104dc57600080fd5b806338d52e0f1461046b5780633950935114610490578063402d267d146104a357600080fd5b806318160ddd1161031a5780632f2ff15d116102f45780632f2ff15d1461041e578063313ce56714610430578063315c1e081461044f578063352693151461046257600080fd5b806318160ddd146103f057806323b872dd146103f85780632e7e84151461040b57600080fd5b806301e1d1141461036257806306fdde031461037d57806307a2d13a14610392578063095ea7b3146103a55780630a28a477146103c85780630c3b0df2146103db575b600080fd5b61036a61075f565b6040519081526020015b60405180910390f35b6103856107d2565b6040516103749190612381565b61036a6103a03660046123b4565b610864565b6103b86103b33660046123e9565b610877565b6040519015158152602001610374565b61036a6103d63660046123b4565b61088f565b6103ee6103e93660046123e9565b61089c565b005b60035461036a565b6103b8610406366004612413565b6108b8565b61036a61041936600461245d565b6108de565b6103ee61042c36600461247a565b5050565b600654600160a01b900460ff1660405160ff9091168152602001610374565b61036a61045d3660046124a6565b6108f5565b61036a600b5481565b6006546001600160a01b03165b6040516001600160a01b039091168152602001610374565b6103b861049e3660046123e9565b610940565b61036a6104b13660046124c4565b610962565b6103ee6104c43660046124a6565b610980565b600e54610478906001600160a01b031681565b61036a6104ea36600461247a565b6109d8565b61036a600c5481565b61036a6105063660046124c4565b6001600160a01b031660009081526001602052604090205490565b6103ee61052f3660046124c4565b610a50565b6103ee6105423660046124c4565b610a5b565b6103ee6105553660046124c4565b6106e2565b6103b861056836600461247a565b600192915050565b61036a61057e36600461247a565b610a7c565b610385610a96565b6103ee6105993660046123b4565b610aa5565b61036a600081565b6103b86105b43660046123e9565b610ae1565b6103b86105c73660046123e9565b610b67565b600e546103b890600160a01b900460ff1681565b61036a6105ee3660046123b4565b610b75565b61036a6106013660046124df565b610b82565b61036a6106143660046124df565b610bfe565b6008546103b890600160a01b900460ff1681565b6103ee61063b3660046124c4565b600980546001600160a01b0319166001600160a01b0392909216919091179055565b61036a61066b3660046124c4565b600a6020526000908152604090205481565b6103ee61068b36600461245d565b610c72565b61036a61069e3660046124c4565b5060001990565b61036a6106b33660046123b4565b610cbf565b61036a600d5481565b61036a6106cf3660046124c4565b610ccc565b6103ee6106e23660046124c4565b50565b600854610478906001600160a01b031681565b6103ee61070636600461245d565b610cf0565b61036a6107193660046124c4565b610d40565b6103ee61072c3660046125be565b610d5e565b61036a61073f366004612663565b610f06565b600954610478906001600160a01b031681565b61036a610f31565b60085460408051636dc7b0a160e01b815290516000926001600160a01b031691636dc7b0a19160048083019260209291908290030181865afa1580156107a9573d6000803e3d6000fd5b505050506040513d601f19601f820116820180604052508101906107cd919061268d565b905090565b6060600480546107e1906126a6565b80601f016020809104026020016040519081016040528092919081815260200182805461080d906126a6565b801561085a5780601f1061082f5761010080835404028352916020019161085a565b820191906000526020600020905b81548152906001019060200180831161083d57829003601f168201915b5050505050905090565b6000610871826000610f40565b92915050565b600033610885818585610fc2565b5060019392505050565b60006108718260016110e6565b61042c6108b16006546001600160a01b031690565b838361112b565b6000336108c6858285611193565b6108d185858561120d565b60019150505b9392505050565b6000816108ed57600d54610871565b5050600c5490565b60008215610927576109096008600a6127da565b600c5461091690846127e6565b6109209190612813565b9050610871565b6109336008600a6127da565b600d5461091690846127e6565b6000336108858185856109538383610f06565b61095d9190612835565b610fc2565b600061096c6113c3565b610977576000610871565b60001992915050565b816109905780600d819055610997565b80600c8190555b50604080518315158152602081018390527f7f7f1bc207db1b3f896247af386fe2184613f48428c0d500cbc9f4d0ac5acfab91015b60405180910390a15050565b60006109e382610962565b831115610a375760405162461bcd60e51b815260206004820152601e60248201527f455243343632363a206465706f736974206d6f7265207468616e206d6178000060448201526064015b60405180910390fd5b6000610a4284610cbf565b90506108d7338486846113dd565b600061042c60003382565b6000600880546001600160a01b0319166001600160a01b0384161790555050565b600080610a8884610b75565b90506108d7338483876113dd565b6060600580546107e1906126a6565b600b8190556040518181527f57309e54eb3c050199477e2c187a12eec0088a1f1722c43a9178d621edf39e98906020015b60405180910390a150565b60003381610aef8286610f06565b905083811015610b4f5760405162461bcd60e51b815260206004820152602560248201527f45524332303a2064656372656173656420616c6c6f77616e63652062656c6f77604482015264207a65726f60d81b6064820152608401610a2e565b610b5c8286868403610fc2565b506001949350505050565b60003361088581858561120d565b6000610871826001610f40565b6000610b8d82610ccc565b841115610bdc5760405162461bcd60e51b815260206004820152601f60248201527f455243343632363a207769746864726177206d6f7265207468616e206d6178006044820152606401610a2e565b6000610be78561088f565b9050610bf633858588856115cd565b949350505050565b6000610c0982610d40565b841115610c585760405162461bcd60e51b815260206004820152601d60248201527f455243343632363a2072656465656d206d6f7265207468616e206d61780000006044820152606401610a2e565b6000610c6385610864565b9050610bf633858584896115cd565b60088054821515600160a01b0260ff60a01b199091161790556040517f304980e7a98cd251f25e85dbe838e498ece26e6aeba1e9912871343633eea86c90610ad690831515815260200190565b60006108718260006110e6565b6001600160a01b038116600090815260016020526040812054610871906000610f40565b600e8054821515600160a01b0260ff60a01b199091161790556040516000907fdd7a4735eff73e5c23c7ecb08e4570dbef82f73381c1ec5483a685fb83da7c77906109cc90841515815260200190565b6001600160a01b038116600090815260016020526040812054610871565b600054610100900460ff1615808015610d7e5750600054600160ff909116105b80610d985750303b158015610d98575060005460ff166001145b610dfb5760405162461bcd60e51b815260206004820152602e60248201527f496e697469616c697a61626c653a20636f6e747261637420697320616c72656160448201526d191e481a5b9a5d1a585b1a5e995960921b6064820152608401610a2e565b6000805460ff191660011790558015610e1e576000805461ff0019166101001790555b610e288686611794565b610e31876117ad565b610e3a3361180b565b600880546001600160a01b0319166001600160a01b038616179055600980546001600160a01b0319166001600160a01b038516179055610384600b556064610e846008600a6127da565b610e8f9060016127e6565b610e999190612813565b600d55600e80546001600160a01b0319166001600160a01b0384161790558015610efd576000805461ff0019169055604051600181527f7f26b83ff96e1f2b6a682f133852f6798a09c465da95921460cefb38474024989060200160405180910390a15b50505050505050565b6001600160a01b03918216600090815260026020908152604080832093909416825291909152205490565b610f3d6008600a6127da565b81565b6000610f4c8383611812565b905060006001836002811115610f6457610f64612848565b1490508015610fae57600c54610f7c6008600a6127da565b610f86919061285e565b610f926008600a6127da565b610f9c90846127e6565b610fa69190612813565b915050610871565b610fb881836108f5565b610fa6908361285e565b6001600160a01b0383166110245760405162461bcd60e51b8152602060048201526024808201527f45524332303a20617070726f76652066726f6d20746865207a65726f206164646044820152637265737360e01b6064820152608401610a2e565b6001600160a01b0382166110855760405162461bcd60e51b815260206004820152602260248201527f45524332303a20617070726f766520746f20746865207a65726f206164647265604482015261737360f01b6064820152608401610a2e565b6001600160a01b0383811660008181526002602090815260408083209487168084529482529182902085905590518481527f8c5be1e5ebec7d5bd14f71427d1e84f3dd0314c0f7b2291e5b200ac8c7c3b925910160405180910390a3505050565b60006110f28383611845565b905060008083600281111561110957611109612848565b149050801561111c57610fb881836108f5565b600d54610f7c6008600a6127da565b6040516001600160a01b03831660248201526044810182905261118e90849063a9059cbb60e01b906064015b60408051601f198184030181529190526020810180516001600160e01b03166001600160e01b031990931692909217909152611877565b505050565b600061119f8484610f06565b9050600019811461120757818110156111fa5760405162461bcd60e51b815260206004820152601d60248201527f45524332303a20696e73756666696369656e7420616c6c6f77616e63650000006044820152606401610a2e565b6112078484848403610fc2565b50505050565b6001600160a01b0383166112715760405162461bcd60e51b815260206004820152602560248201527f45524332303a207472616e736665722066726f6d20746865207a65726f206164604482015264647265737360d81b6064820152608401610a2e565b6001600160a01b0382166112d35760405162461bcd60e51b815260206004820152602360248201527f45524332303a207472616e7366657220746f20746865207a65726f206164647260448201526265737360e81b6064820152608401610a2e565b6112de83838361194c565b6001600160a01b038316600090815260016020526040902054818110156113565760405162461bcd60e51b815260206004820152602660248201527f45524332303a207472616e7366657220616d6f756e7420657863656564732062604482015265616c616e636560d01b6064820152608401610a2e565b6001600160a01b0380851660008181526001602052604080822086860390559286168082529083902080548601905591517fddf252ad1be2c89b69c2b068fc378daa952ba7f163c4a11628f55a4df523b3ef906113b69086815260200190565b60405180910390a3611207565b6000806113ce61075f565b11806107cd5750506003541590565b600e54600160a01b900460ff1661142b5760405162461bcd60e51b8152602060048201526012602482015271189d5e481a5cc81b9bdd08185b1b1bddd95960721b6044820152606401610a2e565b600854600160a01b900460ff16156114745760405162461bcd60e51b815260206004820152600c60248201526b7661756c743a667265657a6560a01b6044820152606401610a2e565b600e546001600160a01b031633146114be5760405162461bcd60e51b815260206004820152600d60248201526c1858d8d95cdcc819195a5b9959609a1b6044820152606401610a2e565b6001600160a01b0383166000908152600a602052604081204290556114e4826001611812565b905060008184116114fe576114f9848361285e565b611508565b611508828561285e565b90506000828511611519578261151b565b845b905061152660035490565b6000036115495761153a60006103e8611a8e565b6115466103e88561285e565b93505b61155587878387611b05565b6115738661156b6006546001600160a01b031690565b846001611b83565b60408051868152602081018690529081018390526001600160a01b0380881691908916907f502b1539e5ec91b2596d2d64d20b1f89c28d2e11fc7d74961c930cd221669e329060600160405180910390a350505050505050565b600854600160a01b900460ff16156116165760405162461bcd60e51b815260206004820152600c60248201526b7661756c743a667265657a6560a01b6044820152606401610a2e565b600e546001600160a01b031633146116605760405162461bcd60e51b815260206004820152600d60248201526c1858d8d95cdcc819195a5b9959609a1b6044820152606401610a2e565b6001600160a01b0383166000908152600a6020526040902054600b546116869190612835565b42116116c55760405162461bcd60e51b815260206004820152600e60248201526d3b30bab63a1d31b7b7b63237bbb760911b6044820152606401610a2e565b60006116d2826000611812565b90508281116000816116e457826116e6565b845b90506116f58888888488611d61565b60008261170b57611706848761285e565b611715565b611715868561285e565b90506117358761172d6006546001600160a01b031690565b836000611b83565b60408051878152602081018790529081018290526001600160a01b03808916918a8216918c16907fbd93a9fa352132d84f0041011cee9c7891c834f670c204950c0310d49be30edf9060600160405180910390a4505050505050505050565b60046117a083826128bf565b50600561118e82826128bf565b6000806117b983611e0d565b91509150816117c95760126117cb565b805b600680546001600160a01b039095166001600160a01b031960ff93909316600160a01b02929092166001600160a81b031990951694909417179092555050565b4260075550565b60008061181e60035490565b9050801561183f5761183a61183161075f565b85908386611ee9565b610bf6565b83610bf6565b60008061185160035490565b905083158061185e575080155b61183f5761183a8161186e61075f565b86919086611ee9565b60006118cc826040518060400160405280602081526020017f5361666545524332303a206c6f772d6c6576656c2063616c6c206661696c6564815250856001600160a01b0316611f469092919063ffffffff16565b90508051600014806118ed5750808060200190518101906118ed919061297f565b61118e5760405162461bcd60e51b815260206004820152602a60248201527f5361666545524332303a204552433230206f7065726174696f6e20646964206e6044820152691bdd081cdd58d8d9595960b21b6064820152608401610a2e565b6001600160a01b0383166119ba57600e54604051630f71585960e11b81526001600160a01b03848116600483015290911690631ee2b0b290602401600060405180830381600087803b1580156119a157600080fd5b505af11580156119b5573d6000803e3d6000fd5b505050505b6001600160a01b038216611a2857600e54604051630f71585960e11b81526001600160a01b03858116600483015290911690631ee2b0b290602401600060405180830381600087803b158015611a0f57600080fd5b505af1158015611a23573d6000803e3d6000fd5b505050505b6001600160a01b0383161580611a4557506001600160a01b038216155b15611a4f57505050565b60405162461bcd60e51b81526020600482015260146024820152731d1c985b9cd9995c881b9bdd08185b1b1bddd95960621b6044820152606401610a2e565b611a9a6000838361194c565b8060036000828254611aac9190612835565b90915550506001600160a01b0382166000818152600160209081526040808320805486019055518481527fddf252ad1be2c89b69c2b068fc378daa952ba7f163c4a11628f55a4df523b3ef910160405180910390a35050565b600654611b1d906001600160a01b0316853085611f55565b611b278382611a8e565b826001600160a01b0316846001600160a01b03167fdcbc1c05240f31ff3ad067ef1ee35ce4997762752e3a095284754544f4c709d78484604051611b75929190918252602082015260400190565b60405180910390a350505050565b811561120757600081611b97576006611b9a565b60055b90506000611ba982600161299c565b60ff1667ffffffffffffffff811115611bc457611bc461251b565b604051908082528060200260200182016040528015611bed578160200160208202803683370190505b5060095460405163095ea7b360e01b81526001600160a01b0391821660048201526024810187905291925086169063095ea7b3906044016020604051808303816000875af1158015611c43573d6000803e3d6000fd5b505050506040513d601f19601f82011682018060405250810190611c67919061297f565b50611cd384866001600160a01b031663313ce5676040518163ffffffff1660e01b8152600401602060405180830381865afa158015611caa573d6000803e3d6000fd5b505050506040513d601f19601f82011682018060405250810190611cce91906129b5565b611f8d565b818360ff1681518110611ce857611ce86129d8565b602090810291909101015260095460405163e50f19ef60e01b81526001600160a01b039091169063e50f19ef90611d27908990899086906004016129ee565b600060405180830381600087803b158015611d4157600080fd5b505af1158015611d55573d6000803e3d6000fd5b50505050505050505050565b826001600160a01b0316856001600160a01b031614611d8557611d85838683611193565b611d8f8382611fba565b600654611da6906001600160a01b0316858461112b565b826001600160a01b0316846001600160a01b0316866001600160a01b03167ffbde797d201c681b91056529119e0b02407c7bb96a4a2c75c01fc9667232c8db8585604051611dfe929190918252602082015260400190565b60405180910390a45050505050565b60408051600481526024810182526020810180516001600160e01b031663313ce56760e01b17905290516000918291829182916001600160a01b03871691611e5491612a50565b600060405180830381855afa9150503d8060008114611e8f576040519150601f19603f3d011682016040523d82523d6000602084013e611e94565b606091505b5091509150818015611ea857506020815110155b15611edc57600081806020019051810190611ec3919061268d565b905060ff8111611eda576001969095509350505050565b505b5060009485945092505050565b600080611ef78686866120fa565b90506001836002811115611f0d57611f0d612848565b148015611f2a575060008480611f2557611f256127fd565b868809115b15611f3d57611f3a600182612835565b90505b95945050505050565b6060610bf684846000856121e4565b6040516001600160a01b03808516602483015283166044820152606481018290526112079085906323b872dd60e01b90608401611157565b6000611f9a82600a612a6c565b611fa66012600a6127da565b611fb090856127e6565b6108d79190612813565b6001600160a01b03821661201a5760405162461bcd60e51b815260206004820152602160248201527f45524332303a206275726e2066726f6d20746865207a65726f206164647265736044820152607360f81b6064820152608401610a2e565b6120268260008361194c565b6001600160a01b0382166000908152600160205260409020548181101561209a5760405162461bcd60e51b815260206004820152602260248201527f45524332303a206275726e20616d6f756e7420657863656564732062616c616e604482015261636560f01b6064820152608401610a2e565b6001600160a01b03831660008181526001602090815260408083208686039055600380548790039055518581529192917fddf252ad1be2c89b69c2b068fc378daa952ba7f163c4a11628f55a4df523b3ef910160405180910390a3505050565b60008080600019858709858702925082811083820303915050806000036121345783828161212a5761212a6127fd565b04925050506108d7565b80841161217b5760405162461bcd60e51b81526020600482015260156024820152744d6174683a206d756c446976206f766572666c6f7760581b6044820152606401610a2e565b60008486880960026001871981018816978890046003810283188082028403028082028403028082028403028082028403028082028403029081029092039091026000889003889004909101858311909403939093029303949094049190911702949350505050565b6060824710156122455760405162461bcd60e51b815260206004820152602660248201527f416464726573733a20696e73756666696369656e742062616c616e636520666f6044820152651c8818d85b1b60d21b6064820152608401610a2e565b600080866001600160a01b031685876040516122619190612a50565b60006040518083038185875af1925050503d806000811461229e576040519150601f19603f3d011682016040523d82523d6000602084013e6122a3565b606091505b50915091506122b4878383876122bf565b979650505050505050565b6060831561232e578251600003612327576001600160a01b0385163b6123275760405162461bcd60e51b815260206004820152601d60248201527f416464726573733a2063616c6c20746f206e6f6e2d636f6e74726163740000006044820152606401610a2e565b5081610bf6565b610bf683838151156123435781518083602001fd5b8060405162461bcd60e51b8152600401610a2e9190612381565b60005b83811015612378578181015183820152602001612360565b50506000910152565b60208152600082518060208401526123a081604085016020870161235d565b601f01601f19169190910160400192915050565b6000602082840312156123c657600080fd5b5035919050565b80356001600160a01b03811681146123e457600080fd5b919050565b600080604083850312156123fc57600080fd5b612405836123cd565b946020939093013593505050565b60008060006060848603121561242857600080fd5b612431846123cd565b925061243f602085016123cd565b9150604084013590509250925092565b80151581146106e257600080fd5b60006020828403121561246f57600080fd5b81356108d78161244f565b6000806040838503121561248d57600080fd5b8235915061249d602084016123cd565b90509250929050565b600080604083850312156124b957600080fd5b82356124058161244f565b6000602082840312156124d657600080fd5b6108d7826123cd565b6000806000606084860312156124f457600080fd5b83359250612504602085016123cd565b9150612512604085016123cd565b90509250925092565b634e487b7160e01b600052604160045260246000fd5b600082601f83011261254257600080fd5b813567ffffffffffffffff8082111561255d5761255d61251b565b604051601f8301601f19908116603f011681019082821181831017156125855761258561251b565b8160405283815286602085880101111561259e57600080fd5b836020870160208301376000602085830101528094505050505092915050565b60008060008060008060c087890312156125d757600080fd5b6125e0876123cd565b9550602087013567ffffffffffffffff808211156125fd57600080fd5b6126098a838b01612531565b9650604089013591508082111561261f57600080fd5b5061262c89828a01612531565b94505061263b606088016123cd565b9250612649608088016123cd565b915061265760a088016123cd565b90509295509295509295565b6000806040838503121561267657600080fd5b61267f836123cd565b915061249d602084016123cd565b60006020828403121561269f57600080fd5b5051919050565b600181811c908216806126ba57607f821691505b6020821081036126da57634e487b7160e01b600052602260045260246000fd5b50919050565b634e487b7160e01b600052601160045260246000fd5b600181815b80851115612731578160001904821115612717576127176126e0565b8085161561272457918102915b93841c93908002906126fb565b509250929050565b60008261274857506001610871565b8161275557506000610871565b816001811461276b576002811461277557612791565b6001915050610871565b60ff841115612786576127866126e0565b50506001821b610871565b5060208310610133831016604e8410600b84101617156127b4575081810a610871565b6127be83836126f6565b80600019048211156127d2576127d26126e0565b029392505050565b60006108d78383612739565b8082028115828204841417610871576108716126e0565b634e487b7160e01b600052601260045260246000fd5b60008261283057634e487b7160e01b600052601260045260246000fd5b500490565b80820180821115610871576108716126e0565b634e487b7160e01b600052602160045260246000fd5b81810381811115610871576108716126e0565b601f82111561118e57600081815260208120601f850160051c810160208610156128985750805b601f850160051c820191505b818110156128b7578281556001016128a4565b505050505050565b815167ffffffffffffffff8111156128d9576128d961251b565b6128ed816128e784546126a6565b84612871565b602080601f831160018114612922576000841561290a5750858301515b600019600386901b1c1916600185901b1785556128b7565b600085815260208120601f198616915b8281101561295157888601518255948401946001909101908401612932565b508582101561296f5787850151600019600388901b60f8161c191681555b5050505050600190811b01905550565b60006020828403121561299157600080fd5b81516108d78161244f565b60ff8181168382160190811115610871576108716126e0565b6000602082840312156129c757600080fd5b815160ff811681146108d757600080fd5b634e487b7160e01b600052603260045260246000fd5b6001600160a01b0384811682528316602080830191909152606060408301819052835190830181905260009184810191608085019190845b81811015612a4257845184529382019392820192600101612a26565b509198975050505050505050565b60008251612a6281846020870161235d565b9190910192915050565b60006108d760ff84168361273956fea264697066735822122037059ecb090de72e924dfcf25808d860be4b596499b1dd04f34771c245282d5464736f6c63430008110033",
  "linkReferences": {},
  "deployedLinkReferences": {}
}