{
  "_format": "hh-sol-artifact-1",
  "contractName": "FundFeeTest",
  "sourceName": "contracts/fee/FundFeeTest.sol",
  "abi": [
    {
      "anonymous": false,
      "inputs": [
        {
          "indexed": true,
          "internalType": "address",
          "name": "market",
          "type": "address"
        },
        {
          "indexed": false,
          "internalType": "uint256",
          "name": "amount",
          "type": "uint256"
        },
        {
          "indexed": false,
          "internalType": "uint256",
          "name": "lossBefore",
          "type": "uint256"
        },
        {
          "indexed": false,
          "internalType": "uint256",
          "name": "lossAfter",
          "type": "uint256"
        }
      ],
      "name": "AddNegativeFeeLoss",
      "type": "event"
    },
    {
      "anonymous": false,
      "inputs": [
        {
          "indexed": true,
          "internalType": "address",
          "name": "market",
          "type": "address"
        },
        {
          "indexed": false,
          "internalType": "uint256",
          "name": "deductAmount",
          "type": "uint256"
        },
        {
          "indexed": false,
          "internalType": "uint256",
          "name": "lossBefore",
          "type": "uint256"
        },
        {
          "indexed": false,
          "internalType": "uint256",
          "name": "lossAfter",
          "type": "uint256"
        }
      ],
      "name": "AddPositiveFeeLoss",
      "type": "event"
    },
    {
      "anonymous": false,
      "inputs": [
        {
          "indexed": true,
          "internalType": "uint256",
          "name": "startTime",
          "type": "uint256"
        },
        {
          "indexed": true,
          "internalType": "uint256",
          "name": "endTime",
          "type": "uint256"
        }
      ],
      "name": "AddSkipTime",
      "type": "event"
    },
    {
      "anonymous": false,
      "inputs": [
        {
          "indexed": false,
          "internalType": "uint8",
          "name": "version",
          "type": "uint8"
        }
      ],
      "name": "Initialized",
      "type": "event"
    },
    {
      "anonymous": false,
      "inputs": [
        {
          "indexed": true,
          "internalType": "address",
          "name": "previousOwner",
          "type": "address"
        },
        {
          "indexed": true,
          "internalType": "address",
          "name": "newOwner",
          "type": "address"
        }
      ],
      "name": "OwnershipTransferred",
      "type": "event"
    },
    {
      "anonymous": false,
      "inputs": [
        {
          "indexed": true,
          "internalType": "bytes32",
          "name": "role",
          "type": "bytes32"
        },
        {
          "indexed": true,
          "internalType": "bytes32",
          "name": "previousAdminRole",
          "type": "bytes32"
        },
        {
          "indexed": true,
          "internalType": "bytes32",
          "name": "newAdminRole",
          "type": "bytes32"
        }
      ],
      "name": "RoleAdminChanged",
      "type": "event"
    },
    {
      "anonymous": false,
      "inputs": [
        {
          "indexed": true,
          "internalType": "bytes32",
          "name": "role",
          "type": "bytes32"
        },
        {
          "indexed": true,
          "internalType": "address",
          "name": "account",
          "type": "address"
        },
        {
          "indexed": true,
          "internalType": "address",
          "name": "sender",
          "type": "address"
        }
      ],
      "name": "RoleGranted",
      "type": "event"
    },
    {
      "anonymous": false,
      "inputs": [
        {
          "indexed": true,
          "internalType": "bytes32",
          "name": "role",
          "type": "bytes32"
        },
        {
          "indexed": true,
          "internalType": "address",
          "name": "account",
          "type": "address"
        },
        {
          "indexed": true,
          "internalType": "address",
          "name": "sender",
          "type": "address"
        }
      ],
      "name": "RoleRevoked",
      "type": "event"
    },
    {
      "anonymous": false,
      "inputs": [
        {
          "indexed": false,
          "internalType": "address",
          "name": "market",
          "type": "address"
        },
        {
          "indexed": false,
          "internalType": "uint256",
          "name": "updatedAt",
          "type": "uint256"
        }
      ],
      "name": "SetUpdateAt",
      "type": "event"
    },
    {
      "anonymous": false,
      "inputs": [
        {
          "indexed": false,
          "internalType": "address",
          "name": "market",
          "type": "address"
        },
        {
          "indexed": false,
          "internalType": "uint256",
          "name": "ts",
          "type": "uint256"
        }
      ],
      "name": "TimeStampChanged",
      "type": "event"
    },
    {
      "anonymous": false,
      "inputs": [
        {
          "indexed": true,
          "internalType": "address",
          "name": "market",
          "type": "address"
        },
        {
          "indexed": false,
          "internalType": "int256",
          "name": "longRate",
          "type": "int256"
        },
        {
          "indexed": false,
          "internalType": "int256",
          "name": "shortRate",
          "type": "int256"
        }
      ],
      "name": "UpdateCalFundRates",
      "type": "event"
    },
    {
      "anonymous": false,
      "inputs": [
        {
          "indexed": true,
          "internalType": "address",
          "name": "market",
          "type": "address"
        },
        {
          "indexed": false,
          "internalType": "uint256",
          "name": "interval",
          "type": "uint256"
        }
      ],
      "name": "UpdateCalInterval",
      "type": "event"
    },
    {
      "anonymous": false,
      "inputs": [
        {
          "indexed": false,
          "internalType": "uint256",
          "name": "index",
          "type": "uint256"
        },
        {
          "indexed": false,
          "internalType": "uint256",
          "name": "oldFRate",
          "type": "uint256"
        },
        {
          "indexed": false,
          "internalType": "uint256",
          "name": "newFRate",
          "type": "uint256"
        }
      ],
      "name": "UpdateConfig",
      "type": "event"
    },
    {
      "anonymous": false,
      "inputs": [
        {
          "indexed": true,
          "internalType": "address",
          "name": "market",
          "type": "address"
        },
        {
          "indexed": false,
          "internalType": "uint256",
          "name": "interval",
          "type": "uint256"
        }
      ],
      "name": "UpdateFundInterval",
      "type": "event"
    },
    {
      "anonymous": false,
      "inputs": [
        {
          "indexed": true,
          "internalType": "address",
          "name": "market",
          "type": "address"
        },
        {
          "indexed": false,
          "internalType": "uint256",
          "name": "longRate",
          "type": "uint256"
        },
        {
          "indexed": false,
          "internalType": "uint256",
          "name": "shortRate",
          "type": "uint256"
        }
      ],
      "name": "UpdateLastCalRate",
      "type": "event"
    },
    {
      "anonymous": false,
      "inputs": [
        {
          "indexed": true,
          "internalType": "address",
          "name": "market",
          "type": "address"
        },
        {
          "indexed": false,
          "internalType": "uint256",
          "name": "timestamp",
          "type": "uint256"
        }
      ],
      "name": "UpdateLastCalTime",
      "type": "event"
    },
    {
      "inputs": [],
      "name": "DEFAULT_ADMIN_ROLE",
      "outputs": [
        {
          "internalType": "bytes32",
          "name": "",
          "type": "bytes32"
        }
      ],
      "stateMutability": "view",
      "type": "function"
    },
    {
      "inputs": [],
      "name": "FEERATEPRECISION",
      "outputs": [
        {
          "internalType": "uint256",
          "name": "",
          "type": "uint256"
        }
      ],
      "stateMutability": "view",
      "type": "function"
    },
    {
      "inputs": [],
      "name": "TestTimeStamp",
      "outputs": [
        {
          "internalType": "uint256",
          "name": "",
          "type": "uint256"
        }
      ],
      "stateMutability": "view",
      "type": "function"
    },
    {
      "inputs": [
        {
          "internalType": "address",
          "name": "market",
          "type": "address"
        },
        {
          "internalType": "uint256",
          "name": "a",
          "type": "uint256"
        }
      ],
      "name": "addFeeLoss",
      "outputs": [],
      "stateMutability": "nonpayable",
      "type": "function"
    },
    {
      "inputs": [
        {
          "internalType": "uint256",
          "name": "start",
          "type": "uint256"
        },
        {
          "internalType": "uint256",
          "name": "end",
          "type": "uint256"
        }
      ],
      "name": "addSkipTime",
      "outputs": [],
      "stateMutability": "nonpayable",
      "type": "function"
    },
    {
      "inputs": [
        {
          "internalType": "address",
          "name": "",
          "type": "address"
        },
        {
          "internalType": "bool",
          "name": "",
          "type": "bool"
        }
      ],
      "name": "calFundingRates",
      "outputs": [
        {
          "internalType": "int256",
          "name": "",
          "type": "int256"
        }
      ],
      "stateMutability": "view",
      "type": "function"
    },
    {
      "inputs": [
        {
          "internalType": "address",
          "name": "",
          "type": "address"
        }
      ],
      "name": "calIntervals",
      "outputs": [
        {
          "internalType": "uint256",
          "name": "",
          "type": "uint256"
        }
      ],
      "stateMutability": "view",
      "type": "function"
    },
    {
      "inputs": [
        {
          "internalType": "uint256",
          "name": "",
          "type": "uint256"
        }
      ],
      "name": "configs",
      "outputs": [
        {
          "internalType": "uint256",
          "name": "",
          "type": "uint256"
        }
      ],
      "stateMutability": "view",
      "type": "function"
    },
    {
      "inputs": [],
      "name": "fRateFactor",
      "outputs": [
        {
          "internalType": "uint256",
          "name": "",
          "type": "uint256"
        }
      ],
      "stateMutability": "view",
      "type": "function"
    },
    {
      "inputs": [],
      "name": "feeVault",
      "outputs": [
        {
          "internalType": "address",
          "name": "",
          "type": "address"
        }
      ],
      "stateMutability": "view",
      "type": "function"
    },
    {
      "inputs": [
        {
          "internalType": "address",
          "name": "",
          "type": "address"
        }
      ],
      "name": "fundFeeLoss",
      "outputs": [
        {
          "internalType": "uint256",
          "name": "",
          "type": "uint256"
        }
      ],
      "stateMutability": "view",
      "type": "function"
    },
    {
      "inputs": [
        {
          "internalType": "address",
          "name": "market",
          "type": "address"
        }
      ],
      "name": "fundingFeeLoss",
      "outputs": [
        {
          "internalType": "uint256",
          "name": "",
          "type": "uint256"
        }
      ],
      "stateMutability": "view",
      "type": "function"
    },
    {
      "inputs": [],
      "name": "fundingFeeLossOffLimit",
      "outputs": [
        {
          "internalType": "uint256",
          "name": "",
          "type": "uint256"
        }
      ],
      "stateMutability": "view",
      "type": "function"
    },
    {
      "inputs": [
        {
          "internalType": "address",
          "name": "",
          "type": "address"
        }
      ],
      "name": "fundingIntervals",
      "outputs": [
        {
          "internalType": "uint256",
          "name": "",
          "type": "uint256"
        }
      ],
      "stateMutability": "view",
      "type": "function"
    },
    {
      "inputs": [
        {
          "internalType": "address",
          "name": "market",
          "type": "address"
        }
      ],
      "name": "getCalFundingRates",
      "outputs": [
        {
          "internalType": "int256",
          "name": "",
          "type": "int256"
        },
        {
          "internalType": "int256",
          "name": "",
          "type": "int256"
        }
      ],
      "stateMutability": "view",
      "type": "function"
    },
    {
      "inputs": [
        {
          "internalType": "address",
          "name": "market",
          "type": "address"
        },
        {
          "internalType": "uint256",
          "name": "size",
          "type": "uint256"
        },
        {
          "internalType": "int256",
          "name": "entryFundingRate",
          "type": "int256"
        },
        {
          "internalType": "bool",
          "name": "isLong",
          "type": "bool"
        }
      ],
      "name": "getFundingFee",
      "outputs": [
        {
          "internalType": "int256",
          "name": "",
          "type": "int256"
        }
      ],
      "stateMutability": "view",
      "type": "function"
    },
    {
      "inputs": [
        {
          "internalType": "address",
          "name": "market",
          "type": "address"
        },
        {
          "internalType": "bool",
          "name": "isLong",
          "type": "bool"
        }
      ],
      "name": "getFundingRate",
      "outputs": [
        {
          "internalType": "int256",
          "name": "",
          "type": "int256"
        }
      ],
      "stateMutability": "view",
      "type": "function"
    },
    {
      "inputs": [],
      "name": "getGlobalOpenInterest",
      "outputs": [
        {
          "internalType": "uint256",
          "name": "_globalSize",
          "type": "uint256"
        }
      ],
      "stateMutability": "view",
      "type": "function"
    },
    {
      "inputs": [
        {
          "internalType": "address",
          "name": "market",
          "type": "address"
        },
        {
          "internalType": "uint256",
          "name": "longSize",
          "type": "uint256"
        },
        {
          "internalType": "uint256",
          "name": "shortSize",
          "type": "uint256"
        }
      ],
      "name": "getNextFundingRate",
      "outputs": [],
      "stateMutability": "nonpayable",
      "type": "function"
    },
    {
      "inputs": [
        {
          "internalType": "bytes32",
          "name": "role",
          "type": "bytes32"
        }
      ],
      "name": "getRoleAdmin",
      "outputs": [
        {
          "internalType": "bytes32",
          "name": "",
          "type": "bytes32"
        }
      ],
      "stateMutability": "view",
      "type": "function"
    },
    {
      "inputs": [],
      "name": "getSkipTime",
      "outputs": [
        {
          "internalType": "uint256",
          "name": "totalSkip",
          "type": "uint256"
        }
      ],
      "stateMutability": "view",
      "type": "function"
    },
    {
      "inputs": [
        {
          "internalType": "address",
          "name": "_account",
          "type": "address"
        }
      ],
      "name": "grantControllerRoleByMarketManager",
      "outputs": [],
      "stateMutability": "nonpayable",
      "type": "function"
    },
    {
      "inputs": [
        {
          "internalType": "bytes32",
          "name": "role",
          "type": "bytes32"
        },
        {
          "internalType": "address",
          "name": "account",
          "type": "address"
        }
      ],
      "name": "grantRole",
      "outputs": [],
      "stateMutability": "nonpayable",
      "type": "function"
    },
    {
      "inputs": [
        {
          "internalType": "bytes32",
          "name": "role",
          "type": "bytes32"
        },
        {
          "internalType": "address",
          "name": "account",
          "type": "address"
        }
      ],
      "name": "hasRole",
      "outputs": [
        {
          "internalType": "bool",
          "name": "",
          "type": "bool"
        }
      ],
      "stateMutability": "view",
      "type": "function"
    },
    {
      "inputs": [
        {
          "internalType": "address",
          "name": "_feeVault",
          "type": "address"
        }
      ],
      "name": "initialize",
      "outputs": [],
      "stateMutability": "nonpayable",
      "type": "function"
    },
    {
      "inputs": [
        {
          "internalType": "address",
          "name": "",
          "type": "address"
        },
        {
          "internalType": "bool",
          "name": "",
          "type": "bool"
        }
      ],
      "name": "lastCalRate",
      "outputs": [
        {
          "internalType": "uint256",
          "name": "",
          "type": "uint256"
        }
      ],
      "stateMutability": "view",
      "type": "function"
    },
    {
      "inputs": [
        {
          "internalType": "address",
          "name": "",
          "type": "address"
        }
      ],
      "name": "lastCalTimes",
      "outputs": [
        {
          "internalType": "uint256",
          "name": "",
          "type": "uint256"
        }
      ],
      "stateMutability": "view",
      "type": "function"
    },
    {
      "inputs": [],
      "name": "marketReader",
      "outputs": [
        {
          "internalType": "address",
          "name": "",
          "type": "address"
        }
      ],
      "stateMutability": "view",
      "type": "function"
    },
    {
      "inputs": [],
      "name": "maxFRate",
      "outputs": [
        {
          "internalType": "uint256",
          "name": "",
          "type": "uint256"
        }
      ],
      "stateMutability": "view",
      "type": "function"
    },
    {
      "inputs": [],
      "name": "maxFRatePerDay",
      "outputs": [
        {
          "internalType": "uint256",
          "name": "",
          "type": "uint256"
        }
      ],
      "stateMutability": "view",
      "type": "function"
    },
    {
      "inputs": [],
      "name": "minCFRate",
      "outputs": [
        {
          "internalType": "uint256",
          "name": "",
          "type": "uint256"
        }
      ],
      "stateMutability": "view",
      "type": "function"
    },
    {
      "inputs": [],
      "name": "minFRate",
      "outputs": [
        {
          "internalType": "uint256",
          "name": "",
          "type": "uint256"
        }
      ],
      "stateMutability": "view",
      "type": "function"
    },
    {
      "inputs": [],
      "name": "minFundingInterval",
      "outputs": [
        {
          "internalType": "uint256",
          "name": "",
          "type": "uint256"
        }
      ],
      "stateMutability": "view",
      "type": "function"
    },
    {
      "inputs": [],
      "name": "minRateLimit",
      "outputs": [
        {
          "internalType": "uint256",
          "name": "",
          "type": "uint256"
        }
      ],
      "stateMutability": "view",
      "type": "function"
    },
    {
      "inputs": [],
      "name": "minorityFRate",
      "outputs": [
        {
          "internalType": "uint256",
          "name": "",
          "type": "uint256"
        }
      ],
      "stateMutability": "view",
      "type": "function"
    },
    {
      "inputs": [],
      "name": "owner",
      "outputs": [
        {
          "internalType": "address",
          "name": "",
          "type": "address"
        }
      ],
      "stateMutability": "view",
      "type": "function"
    },
    {
      "inputs": [],
      "name": "renounceOwnership",
      "outputs": [],
      "stateMutability": "nonpayable",
      "type": "function"
    },
    {
      "inputs": [
        {
          "internalType": "bytes32",
          "name": "role",
          "type": "bytes32"
        },
        {
          "internalType": "address",
          "name": "account",
          "type": "address"
        }
      ],
      "name": "renounceRole",
      "outputs": [],
      "stateMutability": "nonpayable",
      "type": "function"
    },
    {
      "inputs": [
        {
          "internalType": "address",
          "name": "market",
          "type": "address"
        },
        {
          "internalType": "uint256",
          "name": "updatedAt",
          "type": "uint256"
        }
      ],
      "name": "resetCalFundRate",
      "outputs": [],
      "stateMutability": "nonpayable",
      "type": "function"
    },
    {
      "inputs": [
        {
          "internalType": "address",
          "name": "market",
          "type": "address"
        },
        {
          "internalType": "uint256",
          "name": "amount",
          "type": "uint256"
        }
      ],
      "name": "resetFeeLoss",
      "outputs": [],
      "stateMutability": "nonpayable",
      "type": "function"
    },
    {
      "inputs": [
        {
          "internalType": "bytes32",
          "name": "role",
          "type": "bytes32"
        },
        {
          "internalType": "address",
          "name": "account",
          "type": "address"
        }
      ],
      "name": "revokeRole",
      "outputs": [],
      "stateMutability": "nonpayable",
      "type": "function"
    },
    {
      "inputs": [
        {
          "internalType": "address[]",
          "name": "markets",
          "type": "address[]"
        },
        {
          "internalType": "uint256[]",
          "name": "intervals",
          "type": "uint256[]"
        }
      ],
      "name": "setCalInterval",
      "outputs": [],
      "stateMutability": "nonpayable",
      "type": "function"
    },
    {
      "inputs": [
        {
          "internalType": "uint256",
          "name": "_idx",
          "type": "uint256"
        },
        {
          "internalType": "uint256",
          "name": "_val",
          "type": "uint256"
        }
      ],
      "name": "setConfig",
      "outputs": [],
      "stateMutability": "nonpayable",
      "type": "function"
    },
    {
      "inputs": [
        {
          "internalType": "uint256[]",
          "name": "_newCfgs",
          "type": "uint256[]"
        }
      ],
      "name": "setConfigs",
      "outputs": [],
      "stateMutability": "nonpayable",
      "type": "function"
    },
    {
      "inputs": [
        {
          "internalType": "uint256",
          "name": "x",
          "type": "uint256"
        }
      ],
      "name": "setFRateFactor",
      "outputs": [],
      "stateMutability": "nonpayable",
      "type": "function"
    },
    {
      "inputs": [
        {
          "internalType": "uint256",
          "name": "limit",
          "type": "uint256"
        }
      ],
      "name": "setFundingFeeLossOffLimit",
      "outputs": [],
      "stateMutability": "nonpayable",
      "type": "function"
    },
    {
      "inputs": [
        {
          "internalType": "address[]",
          "name": "markets",
          "type": "address[]"
        },
        {
          "internalType": "uint256[]",
          "name": "intervals",
          "type": "uint256[]"
        }
      ],
      "name": "setFundingInterval",
      "outputs": [],
      "stateMutability": "nonpayable",
      "type": "function"
    },
    {
      "inputs": [
        {
          "internalType": "address[]",
          "name": "markets",
          "type": "address[]"
        },
        {
          "internalType": "uint256[]",
          "name": "intervals",
          "type": "uint256[]"
        }
      ],
      "name": "setFundingInterval_init",
      "outputs": [],
      "stateMutability": "nonpayable",
      "type": "function"
    },
    {
      "inputs": [
        {
          "internalType": "address",
          "name": "_marketReader",
          "type": "address"
        }
      ],
      "name": "setMarketReader",
      "outputs": [],
      "stateMutability": "nonpayable",
      "type": "function"
    },
    {
      "inputs": [
        {
          "internalType": "uint256",
          "name": "x",
          "type": "uint256"
        }
      ],
      "name": "setMaxFRate",
      "outputs": [],
      "stateMutability": "nonpayable",
      "type": "function"
    },
    {
      "inputs": [
        {
          "internalType": "uint256",
          "name": "x",
          "type": "uint256"
        }
      ],
      "name": "setMaxFRatePerDay",
      "outputs": [],
      "stateMutability": "nonpayable",
      "type": "function"
    },
    {
      "inputs": [
        {
          "internalType": "uint256",
          "name": "limit",
          "type": "uint256"
        }
      ],
      "name": "setMinCFRate",
      "outputs": [],
      "stateMutability": "nonpayable",
      "type": "function"
    },
    {
      "inputs": [
        {
          "internalType": "uint256",
          "name": "limit",
          "type": "uint256"
        }
      ],
      "name": "setMinFRate",
      "outputs": [],
      "stateMutability": "nonpayable",
      "type": "function"
    },
    {
      "inputs": [
        {
          "internalType": "uint256",
          "name": "x",
          "type": "uint256"
        }
      ],
      "name": "setMinFundingInterval",
      "outputs": [],
      "stateMutability": "nonpayable",
      "type": "function"
    },
    {
      "inputs": [
        {
          "internalType": "uint256",
          "name": "limit",
          "type": "uint256"
        }
      ],
      "name": "setMinRateLimit",
      "outputs": [],
      "stateMutability": "nonpayable",
      "type": "function"
    },
    {
      "inputs": [
        {
          "internalType": "uint256",
          "name": "limit",
          "type": "uint256"
        }
      ],
      "name": "setMinorityFRate",
      "outputs": [],
      "stateMutability": "nonpayable",
      "type": "function"
    },
    {
      "inputs": [
        {
          "internalType": "address",
          "name": "market",
          "type": "address"
        },
        {
          "internalType": "uint256",
          "name": "ts",
          "type": "uint256"
        }
      ],
      "name": "setTimeStamp",
      "outputs": [],
      "stateMutability": "nonpayable",
      "type": "function"
    },
    {
      "inputs": [
        {
          "internalType": "uint256[]",
          "name": "updatedAts",
          "type": "uint256[]"
        },
        {
          "internalType": "address[]",
          "name": "markets",
          "type": "address[]"
        }
      ],
      "name": "setUpdateAt",
      "outputs": [],
      "stateMutability": "nonpayable",
      "type": "function"
    },
    {
      "inputs": [
        {
          "internalType": "bytes4",
          "name": "interfaceId",
          "type": "bytes4"
        }
      ],
      "name": "supportsInterface",
      "outputs": [
        {
          "internalType": "bool",
          "name": "",
          "type": "bool"
        }
      ],
      "stateMutability": "view",
      "type": "function"
    },
    {
      "inputs": [
        {
          "internalType": "address",
          "name": "to",
          "type": "address"
        }
      ],
      "name": "transferAdmin",
      "outputs": [],
      "stateMutability": "nonpayable",
      "type": "function"
    },
    {
      "inputs": [
        {
          "internalType": "address",
          "name": "newOwner",
          "type": "address"
        }
      ],
      "name": "transferOwnership",
      "outputs": [],
      "stateMutability": "nonpayable",
      "type": "function"
    },
    {
      "inputs": [
        {
          "internalType": "address",
          "name": "market",
          "type": "address"
        },
        {
          "internalType": "uint256",
          "name": "longSize",
          "type": "uint256"
        },
        {
          "internalType": "uint256",
          "name": "shortSize",
          "type": "uint256"
        }
      ],
      "name": "updateCumulativeFundingRate",
      "outputs": [],
      "stateMutability": "nonpayable",
      "type": "function"
    },
    {
      "inputs": [
        {
          "internalType": "address",
          "name": "market",
          "type": "address"
        },
        {
          "internalType": "int256",
          "name": "cumLongRateDelta",
          "type": "int256"
        },
        {
          "internalType": "int256",
          "name": "cumShortRateDelta",
          "type": "int256"
        },
        {
          "internalType": "uint256",
          "name": "roundedTime",
          "type": "uint256"
        }
      ],
      "name": "updateGlobalCalRate",
      "outputs": [],
      "stateMutability": "nonpayable",
      "type": "function"
    },
    {
      "inputs": [
        {
          "internalType": "address",
          "name": "market",
          "type": "address"
        },
        {
          "internalType": "int256",
          "name": "longRate",
          "type": "int256"
        },
        {
          "internalType": "int256",
          "name": "shortRate",
          "type": "int256"
        },
        {
          "internalType": "int256",
          "name": "nextLongRate",
          "type": "int256"
        },
        {
          "internalType": "int256",
          "name": "nextShortRate",
          "type": "int256"
        },
        {
          "internalType": "uint256",
          "name": "timestamp",
          "type": "uint256"
        }
      ],
      "name": "updateGlobalFundingRate",
      "outputs": [],
      "stateMutability": "nonpayable",
      "type": "function"
    }
  ],
  "bytecode": "0x60806040523480156200001157600080fd5b506200001d3362000023565b62000075565b600180546001600160a01b038381166001600160a01b0319831681179093556040519116919082907f8be0079c531659141344cd1fd0a4f28419497f9722a3daafe3b4186f6b6457e090600090a35050565b61434980620000856000396000f3fe608060405234801561001057600080fd5b50600436106103cf5760003560e01c80637fe4a698116101ff578063bac8d9e81161011a578063d4681d1a116100ad578063e25fefde1161007c578063e25fefde14610896578063e56fa59d14610764578063f2fde38b146108a9578063fc0fd354146108bc57600080fd5b8063d4681d1a1461083d578063d547741f1461085d578063d6f5066b14610870578063dc5ac9951461088357600080fd5b8063c4d66de8116100e9578063c4d66de814610804578063c6f83ad114610817578063c831ba2a146104f0578063c9e8985d1461082a57600080fd5b8063bac8d9e8146107ce578063bc3d3a8b146107d6578063bf63a0a0146107e9578063c418b11c146107f157600080fd5b806395d608a211610192578063a217fddf11610161578063a217fddf14610777578063b21bf2d31461077f578063b2b26b0614610792578063b8749703146107bb57600080fd5b806395d608a2146107415780639ac5d5b2146107495780639bed226a1461075c5780639f36dde01461076457600080fd5b80638ac89fc2116101ce5780638ac89fc2146107025780638da5cb5b1461070a5780638f18af9a1461071b57806391d148541461072e57600080fd5b80637fe4a698146106c1578063801341a6146106d45780638698a9bd146106e757806389bff77f146106fa57600080fd5b80634fd5ce02116102ef5780636eb5e43c1161028257806375829def1161025157806375829def14610668578063759997e81461067b57806376239a671461068e57806378c225ce146106a157600080fd5b80636eb5e43c1461063a578063715018a61461064d57806372d004cf1461065557806374d57cef1461066057600080fd5b80635b7c1137116102be5780635b7c1137146105be5780636094ee2b146105d15780636725684f146105fc5780636b0eba041461062757600080fd5b80634fd5ce021461056557806350d16a29146105785780635645d8771461058b5780635a7fdf16146105ab57600080fd5b806327d3fbf3116103675780633ae7f2de116103365780633ae7f2de1461050b5780633d884a9b14610514578063478222c2146105275780634fd39bee1461055257600080fd5b806327d3fbf3146104d55780632f2ff15d146104dd57806331021f47146104f057806336568abe146104f857600080fd5b80631d36a50e116103a35780631d36a50e1461043a5780631e34c5851461048c57806320981df41461049f578063248a9ca3146104b257600080fd5b806298fa22146103d457806301ffc9a7146103fa578063054aaca11461041d5780631131cf8614610432575b600080fd5b6103e76103e236600461366b565b6108dc565b6040519081526020015b60405180910390f35b61040d610408366004613684565b6108fd565b60405190151581526020016103f1565b61043061042b3660046136c3565b610934565b005b6103e7610a60565b6104776104483660046136f8565b6001600160a01b0316600090815260096020908152604080832060018452909152808220548280529120549091565b604080519283526020830191909152016103f1565b61043061049a366004613715565b610a86565b6103e76104ad366004613745565b610aab565b6103e76104c036600461366b565b60009081526020819052604090206001015490565b6103e7610b2c565b6104306104eb36600461377e565b610b37565b6103e7610b61565b61043061050636600461377e565b610b6c565b6103e7600c5481565b6104306105223660046137a3565b610be6565b60035461053a906001600160a01b031681565b6040516001600160a01b0390911681526020016103f1565b61043061056036600461366b565b610c52565b6104306105733660046137cf565b610c78565b61043061058636600461366b565b610caa565b6103e76105993660046136f8565b60056020526000908152604090205481565b6104306105b936600461366b565b610ccb565b6104306105cc3660046136f8565b610cec565b6103e76105df366004613745565b600960209081526000928352604080842090915290825290205481565b6103e761060a366004613745565b600b60209081526000928352604080842090915290825290205481565b6104306106353660046137a3565b610d25565b6104306106483660046139b5565b610d61565b610430610f65565b6103e76305f5e10081565b6103e7610f79565b6104306106763660046136f8565b610f84565b610430610689366004613a19565b610fae565b61043061069c366004613a19565b6110c5565b6103e76106af3660046136f8565b60086020526000908152604090205481565b6104306106cf3660046136f8565b611460565b6104306106e236600461366b565b61148a565b6104306106f5366004613a73565b6114ab565b6103e7611511565b6103e761151b565b6001546001600160a01b031661053a565b6103e7610729366004613aa8565b611526565b61040d61073c36600461377e565b6115b7565b6103e76115e0565b610430610757366004613a19565b6115eb565b6103e76117a7565b61043061077236600461366b565b6117b2565b6103e7600081565b61043061078d366004613af2565b611813565b6103e76107a03660046136f8565b6001600160a01b03166000908152600a602052604090205490565b6104306107c936600461366b565b611887565b6103e76118a8565b6104306107e4366004613715565b611a4a565b6103e7611ace565b60045461053a906001600160a01b031681565b6104306108123660046136f8565b611ad9565b6104306108253660046136c3565b611d32565b6104306108383660046137a3565b611d69565b6103e761084b3660046136f8565b60076020526000908152604090205481565b61043061086b36600461377e565b611d73565b61043061087e3660046137a3565b611d98565b61043061089136600461366b565b611e4b565b6104306108a436600461366b565b611e6c565b6104306108b73660046136f8565b611e8d565b6103e76108ca3660046136f8565b600a6020526000908152604090205481565b600681815481106108ec57600080fd5b600091825260209091200154905081565b60006001600160e01b03198216637965db0b60e01b148061092e57506301ffc9a760e01b6001600160e01b03198316145b92915050565b6000610949848484610944611f03565b611f2b565b509050600061096c85858585602001516109628a611fa7565b6109449190613b54565b915050600080826101a0015112156109b957610995826101a0015161099090613b67565b612016565b6040516020016109a59190613ba7565b6040516020818303038152906040526109c7565b6109c7826101a00151612016565b90506000808361018001511215610a0e576109ea83610180015161099090613b67565b6040516020016109fa9190613ba7565b604051602081830303815290604052610a1c565b610a1c836101800151612016565b90508181604051602001610a31929190613bd0565b60408051601f198184030181529082905262461bcd60e51b8252610a5791600401613c20565b60405180910390fd5b60006006805b81548110610a7657610a76613c53565b9060005260206000200154905090565b610a9d6000805160206142f48339815191526120a9565b610aa782826120b3565b5050565b6003546040516001624c409d60e01b031981526001600160a01b0384811660048301528315156024830152600092169063ffb3bf6390604401602060405180830381865afa158015610b01573d6000803e3d6000fd5b505050506040513d601f19601f82011682018060405250810190610b259190613c69565b9392505050565b600060066007610a66565b600082815260208190526040902060010154610b52816120a9565b610b5c838361213d565b505050565b600060066004610a66565b6001600160a01b0381163314610bdc5760405162461bcd60e51b815260206004820152602f60248201527f416363657373436f6e74726f6c3a2063616e206f6e6c792072656e6f756e636560448201526e103937b632b9903337b91039b2b63360891b6064820152608401610a57565b610aa782826121c1565b7322b147a9e4e513d39775504eb7db3d674d53d5dd3314610c0657600080fd5b600c819055604080516001600160a01b0384168152602081018390527f7a49cad95adb5b1379825d171f94f4c78225f55642294b3b979db608f187b32991015b60405180910390a15050565b610c696000805160206142f48339815191526120a9565b610c7560035b826120b3565b50565b7322b147a9e4e513d39775504eb7db3d674d53d5dd3314610c9857600080fd5b610ca484848484612226565b50505050565b610cc16000805160206142f48339815191526120a9565b610c756001610c6f565b610ce26000805160206142f48339815191526120a9565b610c756008610c6f565b610d036000805160206142f48339815191526120a9565b600480546001600160a01b0319166001600160a01b0392909216919091179055565b7322b147a9e4e513d39775504eb7db3d674d53d5dd3314610d4557600080fd5b6001600160a01b039091166000908152600a6020526040902055565b610d786000805160206142f48339815191526120a9565b8051825114610dbb5760405162461bcd60e51b815260206004820152600f60248201526e0dad2e6dac2e8c6d040d8cadccee8d608b1b6044820152606401610a57565b60005b8151811015610b5c57828181518110610dd957610dd9613c53565b602002602001015160086000848481518110610df757610df7613c53565b60200260200101516001600160a01b03166001600160a01b0316815260200190815260200160002081905550600360009054906101000a90046001600160a01b03166001600160a01b031663b21bf2d3838381518110610e5957610e59613c53565b6020026020010151600080600080898881518110610e7957610e79613c53565b60200260200101516040518763ffffffff1660e01b8152600401610ea296959493929190613c82565b600060405180830381600087803b158015610ebc57600080fd5b505af1158015610ed0573d6000803e3d6000fd5b505050507f4d67f7d80a18414610613bcd82c005df45389ac7808cbd04b6ea464d60a3eb12828281518110610f0757610f07613c53565b6020026020010151848381518110610f2157610f21613c53565b6020026020010151604051610f4b9291906001600160a01b03929092168252602082015260400190565b60405180910390a180610f5d81613cb5565b915050610dbe565b610f6d6122e3565b610f77600061233d565b565b600060066003610a66565b6000610f8f816120a9565b610f9a60008361238f565b610fa38261233d565b610aa76000336121c1565b610fc56000805160206142f48339815191526120a9565b60005b8251811015610b5c576000610fdb610a60565b610fe3610a60565b848481518110610ff557610ff5613c53565b60200260200101516110079190613ce4565b6110119190613cf8565b9050806005600086858151811061102a5761102a613c53565b60200260200101516001600160a01b03166001600160a01b031681526020019081526020016000208190555083828151811061106857611068613c53565b60200260200101516001600160a01b03167f014f9b627a46d0881111664e681522272907a49b31cc3f24613bdad2c551825c826040516110aa91815260200190565b60405180910390a250806110bd81613cb5565b915050610fc8565b6110dc6000805160206142f48339815191526120a9565b805182511461111e5760405162461bcd60e51b815260206004820152600e60248201526d696e76616c696420706172616d7360901b6044820152606401610a57565b600080611129611f03565b905060005b84518110156114595760006001600160a01b031685828151811061115457611154613c53565b60200260200101516001600160a01b03160361116f57600080fd5b611177610a60565b84828151811061118957611189613c53565b6020026020010151101561119c57600080fd5b6111a4610a60565b6111ac610a60565b8583815181106111be576111be613c53565b60200260200101516111d09190613ce4565b6111da9190613cf8565b925082610e1014806111ed575082611c20145b806111f9575082613840145b80611205575082617080145b156113ef57600061121861708084613ce4565b61122490617080613cf8565b61122e9084613d0f565b905060006005600088858151811061124857611248613c53565b60200260200101516001600160a01b03166001600160a01b0316815260200190815260200160002054905060008582116112825781611284565b855b90508083106112dc576112b88885815181106112a2576112a2613c53565b60200260200101516001600160a01b0316612399565b6112c187612016565b6112ca83612016565b604051602001610a3193929190613d22565b8784815181106112ee576112ee613c53565b60200260200101516001600160a01b0316633f70d4426040518163ffffffff1660e01b8152600401600060405180830381600087803b15801561133057600080fd5b505af1158015611344573d6000803e3d6000fd5b5050505085600560008a878151811061135f5761135f613c53565b60200260200101516001600160a01b03166001600160a01b031681526020019081526020016000208190555087848151811061139d5761139d613c53565b60200260200101516001600160a01b03167f014f9b627a46d0881111664e681522272907a49b31cc3f24613bdad2c551825c876040516113df91815260200190565b60405180910390a2505050611447565b60405162461bcd60e51b815260206004820152602760248201527f696e74657276616c2063616e206265206f6e6c79205b312c20322c20342c20386044820152665d20686f75727360c81b6064820152608401610a57565b8061145181613cb5565b91505061112e565b5050505050565b7f8d1089725c0dc266707fa6207730fb801dcd03108bfed7a21099bd303651d2b76103cf816120a9565b6114a16000805160206142f48339815191526120a9565b610c756009610c6f565b6114c26000805160206142f48339815191526120a9565b600a8151146114d057600080fd5b60005b8151811015610aa7576114ff818383815181106114f2576114f2613c53565b60200260200101516120b3565b8061150981613cb5565b9150506114d3565b6000600681610a66565b600060066001610a66565b6003546040516334f32e2560e01b81526001600160a01b038681166004830152831515602483015260009283929116906334f32e2590604401602060405180830381865afa15801561157c573d6000803e3d6000fd5b505050506040513d601f19601f820116820180604052508101906115a09190613c69565b90506115ad8585836123af565b9695505050505050565b6000918252602082815260408084206001600160a01b0393909316845291905290205460ff1690565b600060066002610a66565b6116026000805160206142f48339815191526120a9565b80518251146116445760405162461bcd60e51b815260206004820152600e60248201526d696e76616c696420706172616d7360901b6044820152606401610a57565b6000805b8351811015610ca45760006001600160a01b031684828151811061166e5761166e613c53565b60200260200101516001600160a01b03160361168957600080fd5b611691610a60565b8382815181106116a3576116a3613c53565b602002602001015110156116b657600080fd5b6116be610a60565b6116c6610a60565b8483815181106116d8576116d8613c53565b60200260200101516116ea9190613ce4565b6116f49190613cf8565b9150816007600086848151811061170d5761170d613c53565b60200260200101516001600160a01b03166001600160a01b031681526020019081526020016000208190555083818151811061174b5761174b613c53565b60200260200101516001600160a01b03167f1b8e6b844a5201ce0d37b6d92b871ff8ee5aede9e47593abc68ce8b2d1d25b888360405161178d91815260200190565b60405180910390a28061179f81613cb5565b915050611648565b600060066008610a66565b6117c96000805160206142f48339815191526120a9565b600081116118095760405162461bcd60e51b815260206004820152600d60248201526c1a5b9d985b1a59081b1a5b5a5d609a1b6044820152606401610a57565b610c756004610c6f565b60035460405163b21bf2d360e01b81526001600160a01b039091169063b21bf2d39061184d90899089908990899089908990600401613c82565b600060405180830381600087803b15801561186757600080fd5b505af115801561187b573d6000803e3d6000fd5b50505050505050505050565b61189e6000805160206142f48339815191526120a9565b610c756002610c6f565b6004805460408051637616480b60e11b815290516000936001600160a01b03909316928492849263ec2c90169282810192869291908290030181865afa1580156118f6573d6000803e3d6000fd5b505050506040513d6000823e601f3d908101601f1916820160405261191e9190810190613e03565b905060005b8151811015611a4457826001600160a01b031663d37c441c6040518163ffffffff1660e01b8152600401602060405180830381865afa15801561196a573d6000803e3d6000fd5b505050506040513d601f19601f8201168201806040525081019061198e9190613f78565b6001600160a01b0316632b8a00128383815181106119ae576119ae613c53565b6020026020010151602001516040518263ffffffff1660e01b81526004016119e591906001600160a01b0391909116815260200190565b602060405180830381865afa158015611a02573d6000803e3d6000fd5b505050506040513d601f19601f82011682018060405250810190611a269190613c69565b611a309085613b54565b935080611a3c81613cb5565b915050611923565b50505090565b611a616000805160206142f48339815191526120a9565b611a6b8282613d0f565b6006600081548110611a7f57611a7f613c53565b906000526020600020016000828254611a989190613b54565b9091555050604051819083907fbb67e50fdd1f174a20c4f1e0e5b9ab3984685f30623b89b69ba068a11ce913b690600090a35050565b600060066009610a66565b600154600160a81b900460ff1615808015611aff575060018054600160a01b900460ff16105b80611b1f5750303b158015611b1f575060018054600160a01b900460ff16145b611b825760405162461bcd60e51b815260206004820152602e60248201527f496e697469616c697a61626c653a20636f6e747261637420697320616c72656160448201526d191e481a5b9a5d1a585b1a5e995960921b6064820152608401610a57565b6001805460ff60a01b1916600160a01b1790558015611baf576001805460ff60a81b1916600160a81b1790555b6001600160a01b038216611bf85760405162461bcd60e51b815260206004820152601060248201526f1a5b9d985b1a590819995955985d5b1d60821b6044820152606401610a57565b611c01336123dc565b6040805160c8808252611920820190925290602082016119008036833750508151611c33926006925060200190613554565b506305f5e1006006600181548110611c4d57611c4d613c53565b6000918252602090912001556305f5e1006006600281548110611c7257611c72613c53565b6000918252602090912001556104e26006600481548110611c9557611c95613c53565b600091825260209091200155600380546001600160a01b0319166001600160a01b038416179055611cd46000805160206142f48339815191523361213d565b611ce16006610e106120b3565b611cef6009629896806120b3565b8015610aa7576001805460ff60a81b191681556040519081527f7f26b83ff96e1f2b6a682f133852f6798a09c465da95921460cefb384740249890602001610c46565b611d5b7fcb58d6d985142a614029cdf01861b4fe094d5919a47e69b8310dc4093d9d6ad06120a9565b611459838383610944611f03565b610aa782826123ff565b600082815260208190526040902060010154611d8e816120a9565b610b5c83836121c1565b611dc17fcb58d6d985142a614029cdf01861b4fe094d5919a47e69b8310dc4093d9d6ad06120a9565b6001600160a01b0382166000908152600a60205260408120805491839190611de98385613b54565b90915550506001600160a01b0383166000818152600a60209081526040918290205482518681529182018590528183015290517ff92e4260a5a0861b750596d87de06d7f097df50397fa2af2d7d33d9c6d8674589181900360600190a2505050565b611e626000805160206142f48339815191526120a9565b610c756007610c6f565b611e836000805160206142f48339815191526120a9565b610c756006610c6f565b611e956122e3565b6001600160a01b038116611efa5760405162461bcd60e51b815260206004820152602660248201527f4f776e61626c653a206e6577206f776e657220697320746865207a65726f206160448201526564647265737360d01b6064820152608401610a57565b610c758161233d565b6000600c5460001480611f1a57506307c3d6fe4310155b15611f2457504290565b50600c5490565b611f3361359b565b611f3b6135e7565b611f468686866124ba565b9150600080600080611f6a89898989611f5d6117a7565b611f65611ace565b6125e8565b93509350935093508015611f8357611f8383838c61289c565b608084015115611f9857611f9886858c612952565b50919250505094509492505050565b60035460405163d8f897c360e01b81526001600160a01b038381166004830152600092169063d8f897c390602401602060405180830381865afa158015611ff2573d6000803e3d6000fd5b505050506040513d601f19601f8201168201806040525081019061092e9190613c69565b60606000612023836129e7565b600101905060008167ffffffffffffffff8111156120435761204361380a565b6040519080825280601f01601f19166020018201604052801561206d576020820181803683370190505b5090508181016020015b600019016f181899199a1a9b1b9c1cb0b131b232b360811b600a86061a8153600a850494508461207757509392505050565b610c758133612abf565b6000600683815481106120c8576120c8613c53565b9060005260206000200154905081600684815481106120e9576120e9613c53565b600091825260209182902001919091556040805185815291820183905281018390527f7ee20b53ffb80d74dc08be0adedf33c8fa93e5b44eb347a27eedd30c3d6bc35c9060600160405180910390a1505050565b61214782826115b7565b610aa7576000828152602081815260408083206001600160a01b03851684529091529020805460ff1916600117905561217d3390565b6001600160a01b0316816001600160a01b0316837f2f8788117e7eff1d82e926ec794901d17c78024a50270940304540a733656f0d60405160405180910390a45050565b6121cb82826115b7565b15610aa7576000828152602081815260408083206001600160a01b0385168085529252808320805460ff1916905551339285917ff6391f5c32d9c69d2a47ea670b442974b53935d1edc7fd64eb21e047a839171b9190a45050565b6001600160a01b0384166000818152600960209081526040808320600184528252808320879055828052808320869055838352600882529182902084905581518681529081018590527f18c1e75c2355914e05f0e3d65be88099e2489e17f7a307d0adc3a22239b4667f910160405180910390a2836001600160a01b03167f5e6f1d9aee6db6f0c00c16081ad195c05424762f100ab07c4fdbe9fde1d42a6c826040516122d591815260200190565b60405180910390a250505050565b6001546001600160a01b03163314610f775760405162461bcd60e51b815260206004820181905260248201527f4f776e61626c653a2063616c6c6572206973206e6f7420746865206f776e65726044820152606401610a57565b600180546001600160a01b038381166001600160a01b0319831681179093556040519116919082907f8be0079c531659141344cd1fd0a4f28419497f9722a3daafe3b4186f6b6457e090600090a35050565b610aa7828261213d565b606061092e6001600160a01b0383166014612af2565b60006305f5e1006123c08484613f95565b6123ca9086613fbc565b6123d49190613fec565b949350505050565b426002556123e93361233d565b6123f460003361238f565b610c7560008261238f565b6001600160a01b0382166000818152600960209081526040808320600184528252808320839055828052808320839055838352600882528083208590558051838152918201929092527f18c1e75c2355914e05f0e3d65be88099e2489e17f7a307d0adc3a22239b4667f910160405180910390a2816001600160a01b03167f5e6f1d9aee6db6f0c00c16081ad195c05424762f100ab07c4fdbe9fde1d42a6c826040516124ae91815260200190565b60405180910390a25050565b6124c261359b565b6001600160a01b038416600081815260076020908152604080832054855283835260058252808320548583015292825260089052819020549082015261250784611fa7565b60608201526001600160a01b0384166000818152600a602090815260408083205461010086015292825260098152828220600183528082528383205460e08601528280529052205460c0820152600680546125d7918591859190600390811061257257612572613c53565b60009182526020909120015460068054600490811061259357612593613c53565b90600052602060002001546125a789612c8e565b6125b28a8a8a612d8f565b6006805460079081106125c7576125c7613c53565b9060005260206000200154612dac565b608083015260a08201529392505050565b6125f06135e7565b6125f861359b565b6126006135e7565b600061260b87612df9565b935061261887858a612e44565b905080156127fc5761262a8785612eab565b15612646576126398785612edf565b612646848b8b8989612f72565b612651878986613019565b1561269057612660878561304c565b60005b846060015181101561268e5761267c858c8c8a8a612f72565b8061268681613cb5565b915050612663565b505b836040516020016127329190815181526020808301519082015260408083015190820152606080830151908201526080808301519082015260a0808301519082015260c0808301519082015260e08083015190820152610100808301519082015261012080830151908201526101408083015190820152610160808301519082015261018080830151908201526101a091820151918101919091526101c00190565b604051602081830303815290604052806020019051810190612754919061401a565b9150866040516020016127c79190600061012082019050825182526020830151602083015260408301516040830152606083015160608301526080830151608083015260a083015160a083015260c083015160c083015260e083015160e083015261010080840151818401525092915050565b6040516020818303038152906040528060200190518101906127e991906140d1565b6000610120860181905261010086015292505b6128078789866130a8565b1561288f576080840151875161281d9190613cf8565b8460a00181815161282e9190613b54565b905250608084015160a088015161284d9161284891613cf8565b6130eb565b846101200181815161285f919061414c565b905250608080850151908801516128799161284891613cf8565b846101000181815161288b919061414c565b9052505b9650965096509692505050565b6128bc8183600001518561010001516128b59190613d0f565b8451613159565b6003546101408301516101608401516101a085015161018086015160a087015160405163b21bf2d360e01b81526001600160a01b039096169563b21bf2d395612912958995919490939192909190600401613c82565b600060405180830381600087803b15801561292c57600080fd5b505af1158015612940573d6000803e3d6000fd5b50505050610b5c818360a001516123ff565b60a0830180516001600160a01b0383166000818152600b6020908152604080832060018452825280832094909455608088018051838052928590209290925593519051835191825293810193909352917f8bfe8b5c73740b3875e694ce9425829dc01970e61b7edbe2b3c2d379328bab72910160405180910390a2610b5c818361012001518461010001518560a00151612226565b60008072184f03e93ff9f4daa797ed6e38ed64bf6a1f0160401b8310612a265772184f03e93ff9f4daa797ed6e38ed64bf6a1f0160401b830492506040015b6d04ee2d6d415b85acef81000000008310612a52576d04ee2d6d415b85acef8100000000830492506020015b662386f26fc100008310612a7057662386f26fc10000830492506010015b6305f5e1008310612a88576305f5e100830492506008015b6127108310612a9c57612710830492506004015b60648310612aae576064830492506002015b600a831061092e5760010192915050565b612ac982826115b7565b610aa757612ad681612399565b612ae1836020612af2565b604051602001610a31929190614174565b60606000612b01836002613cf8565b612b0c906002613b54565b67ffffffffffffffff811115612b2457612b2461380a565b6040519080825280601f01601f191660200182016040528015612b4e576020820181803683370190505b509050600360fc1b81600081518110612b6957612b69613c53565b60200101906001600160f81b031916908160001a905350600f60fb1b81600181518110612b9857612b98613c53565b60200101906001600160f81b031916908160001a9053506000612bbc846002613cf8565b612bc7906001613b54565b90505b6001811115612c3f576f181899199a1a9b1b9c1cb0b131b232b360811b85600f1660108110612bfb57612bfb613c53565b1a60f81b828281518110612c1157612c11613c53565b60200101906001600160f81b031916908160001a90535060049490941c93612c38816141e9565b9050612bca565b508315610b255760405162461bcd60e51b815260206004820181905260248201527f537472696e67733a20686578206c656e67746820696e73756666696369656e746044820152606401610a57565b6004546000906001600160a01b031681612ca66118a8565b90506000826001600160a01b031663d37c441c6040518163ffffffff1660e01b8152600401602060405180830381865afa158015612ce8573d6000803e3d6000fd5b505050506040513d601f19601f82011682018060405250810190612d0c9190613f78565b6001600160a01b0316636dc7b0a16040518163ffffffff1660e01b8152600401602060405180830381865afa158015612d49573d6000803e3d6000fd5b505050506040513d601f19601f82011682018060405250810190612d6d9190613c69565b90506000612d7a866131d2565b90506115ad8383612d8961151b565b846131df565b60006123d48383612d9f876131d2565b612da76115e0565b613235565b6000808615612dbb5786612dbd565b845b965086841115612dcb578693505b85841015612dd7578593505b87891015612de6578284612de9565b83835b9150915097509795505050505050565b612e016135e7565b81516020830151612e129190613ce4565b602082015260e082015161012082015260c082015161010080830191909152604083015160a083015290910151815290565b60008260a00151600003612e78576020840151612e618184613ce4565b612e6b9190613cf8565b60a0840152506001610b25565b8260a00151821015612e8c57506000610b25565b8184602001518560600151612ea19190613b54565b1115949350505050565b81516060830151604084015160009291612ec491613d0f565b612ece9190613ce4565b604083018190521515905092915050565b81602001518260600151612ef39190613b54565b60a082015260408101516020820151612f1e91612f0f91613d0f565b8360a001516128489190613cf8565b8260e00151612f2d919061414c565b61012082015260408101516020820151612f5991612f4a91613d0f565b83608001516128489190613cf8565b8260c00151612f68919061414c565b6101009091015250565b6000612f89866101200151876101000151856132e6565b9050612fa886610120015187610100015183858a600001518a8a613306565b60c089015261016088015261014087018190526101a087018051612fcd90839061414c565b90525061016086015161018087018051612fe890839061414c565b90525060c0860151865111612ffe57600061300f565b60c0860151865161300f9190613d0f565b9095525050505050565b600083602001518260a00151846130309190613d0f565b61303a9190613ce4565b60608301819052151590509392505050565b806060015182602001516130609190613cf8565b8160a0018181516130719190613b54565b905250602081015160a083015161308b9161284891613cf8565b61012082015260208101516080830151612f689161284891613cf8565b60008160a001518310156130be57506000610b25565b835160a08301516130cf9085613d0f565b6130d99190613ce4565b60808301819052151590509392505050565b60006001600160ff1b038211156131555760405162461bcd60e51b815260206004820152602860248201527f53616665436173743a2076616c756520646f65736e27742066697420696e2061604482015267371034b73a191a9b60c11b6064820152608401610a57565b5090565b6001600160a01b0383166000818152600a6020908152604091829020548251868152918201529081018390527f46688c57894e3513fd67b19c1f09ffe6b4a24062d8d29e580ba554fe4384c0e09060600160405180910390a26001600160a01b039092166000908152600a602052604090209190915550565b600061092e826007613430565b600080610e106305f5e10060188782886131f9898d613cf8565b6132039190613cf8565b61320d9190613cf8565b6132179190613ce4565b6132219190613ce4565b61322b9190613ce4565b6115ad9190613ce4565b600080613242868661345a565b9050600081156115ad5760006132588789613b54565b9050806132696305f5e10085613cf8565b6132739190613ce4565b9150610e10601860646305f5e1008961328d6002886142e4565b6132979190613cf8565b6132a19190613ce4565b6132ab9190613ce4565b6132b59190613ce4565b6132bf9190613ce4565b91506305f5e1006132d08684613cf8565b6132da9190613ce4565b98975050505050505050565b60006132fa6132f5858561347e565b61349b565b90506123d481836134ed565b60008060008060008611801561331c5750600085115b9050898b126133a657613331868a8a8a613503565b915061333c896130eb565b935080156133a15761334d856130eb565b61335a6305f5e1006130eb565b613363846130eb565b61336d9190613fbc565b85613377896130eb565b6133819190613fbc565b61338b9190613f95565b61339490613b67565b61339e9190613fec565b92505b613422565b6133b2858a8a8a613503565b91506133bd896130eb565b92508015613422576133ce866130eb565b6133db6305f5e1006130eb565b6133e4846130eb565b6133ee9190613fbc565b846133f8886130eb565b6134029190613fbc565b61340c9190613f95565b61341590613b67565b61341f9190613fec565b93505b509750975097945050505050565b6001600160a01b0382166000908152602082905260408120549081900361092e5750610e1061092e565b60008183106134745761346d8284613d0f565b905061092e565b61346d8383613d0f565b60008183126134915761346d8284613f95565b61346d8383613f95565b6000808212156131555760405162461bcd60e51b815260206004820181905260248201527f53616665436173743a2076616c7565206d75737420626520706f7369746976656044820152606401610a57565b60008183116134fc5781610b25565b5090919050565b600061353c61351760026305f5e1006142e4565b846135228789613cf8565b61352c9190613cf8565b6135369190613ce4565b83613545565b95945050505050565b60008183106134fc5781610b25565b82805482825590600052602060002090810192821561358f579160200282015b8281111561358f578251825591602001919060010190613574565b50613155929150613656565b6040518061012001604052806000815260200160008152602001600081526020016000815260200160008152602001600081526020016000815260200160008152602001600081525090565b604051806101c0016040528060008152602001600081526020016000815260200160008152602001600081526020016000815260200160008152602001600081526020016000815260200160008152602001600081526020016000815260200160008152602001600081525090565b5b808211156131555760008155600101613657565b60006020828403121561367d57600080fd5b5035919050565b60006020828403121561369657600080fd5b81356001600160e01b031981168114610b2557600080fd5b6001600160a01b0381168114610c7557600080fd5b6000806000606084860312156136d857600080fd5b83356136e3816136ae565b95602085013595506040909401359392505050565b60006020828403121561370a57600080fd5b8135610b25816136ae565b6000806040838503121561372857600080fd5b50508035926020909101359150565b8015158114610c7557600080fd5b6000806040838503121561375857600080fd5b8235613763816136ae565b9150602083013561377381613737565b809150509250929050565b6000806040838503121561379157600080fd5b823591506020830135613773816136ae565b600080604083850312156137b657600080fd5b82356137c1816136ae565b946020939093013593505050565b600080600080608085870312156137e557600080fd5b84356137f0816136ae565b966020860135965060408601359560600135945092505050565b634e487b7160e01b600052604160045260246000fd5b60405160a0810167ffffffffffffffff811182821017156138435761384361380a565b60405290565b6040516101c0810167ffffffffffffffff811182821017156138435761384361380a565b604051610120810167ffffffffffffffff811182821017156138435761384361380a565b604051601f8201601f1916810167ffffffffffffffff811182821017156138ba576138ba61380a565b604052919050565b600067ffffffffffffffff8211156138dc576138dc61380a565b5060051b60200190565b600082601f8301126138f757600080fd5b8135602061390c613907836138c2565b613891565b82815260059290921b8401810191818101908684111561392b57600080fd5b8286015b84811015613946578035835291830191830161392f565b509695505050505050565b600082601f83011261396257600080fd5b81356020613972613907836138c2565b82815260059290921b8401810191818101908684111561399157600080fd5b8286015b848110156139465780356139a8816136ae565b8352918301918301613995565b600080604083850312156139c857600080fd5b823567ffffffffffffffff808211156139e057600080fd5b6139ec868387016138e6565b93506020850135915080821115613a0257600080fd5b50613a0f85828601613951565b9150509250929050565b60008060408385031215613a2c57600080fd5b823567ffffffffffffffff80821115613a4457600080fd5b613a5086838701613951565b93506020850135915080821115613a6657600080fd5b50613a0f858286016138e6565b600060208284031215613a8557600080fd5b813567ffffffffffffffff811115613a9c57600080fd5b6123d4848285016138e6565b60008060008060808587031215613abe57600080fd5b8435613ac9816136ae565b935060208501359250604085013591506060850135613ae781613737565b939692955090935050565b60008060008060008060c08789031215613b0b57600080fd5b8635613b16816136ae565b9860208801359850604088013597606081013597506080810135965060a00135945092505050565b634e487b7160e01b600052601160045260246000fd5b8082018082111561092e5761092e613b3e565b6000600160ff1b8201613b7c57613b7c613b3e565b5060000390565b60005b83811015613b9e578181015183820152602001613b86565b50506000910152565b602d60f81b815260008251613bc3816001850160208701613b83565b9190910160010192915050565b600061232360f01b8083528451613bee816002860160208901613b83565b80840190508160028201528451613c0c816004840160208901613b83565b016004810191909152600601949350505050565b6020815260008251806020840152613c3f816040850160208701613b83565b601f01601f19169190910160400192915050565b634e487b7160e01b600052603260045260246000fd5b600060208284031215613c7b57600080fd5b5051919050565b6001600160a01b03969096168652602086019490945260408501929092526060840152608083015260a082015260c00190565b600060018201613cc757613cc7613b3e565b5060010190565b634e487b7160e01b600052601260045260246000fd5b600082613cf357613cf3613cce565b500490565b808202811582820484141761092e5761092e613b3e565b8181038181111561092e5761092e613b3e565b60008451613d34818460208901613b83565b7f277320696e74657276616c2063616e2062652073657420746f200000000000009083019081528451613d6e81601a840160208901613b83565b7f2c20627574206f6e6c79206166746572205b382c2031362c2032345d206f2763601a92909101918201526f03637b1b59030b7321034b7103a3432960851b603a8201528351613dc581604a840160208801613b83565b68207365636f6e64732160b81b604a929091019182015260530195945050505050565b8051613df3816136ae565b919050565b8051613df381613737565b60006020808385031215613e1657600080fd5b825167ffffffffffffffff80821115613e2e57600080fd5b818501915085601f830112613e4257600080fd5b8151613e50613907826138c2565b81815260059190911b83018401908481019088831115613e6f57600080fd5b8585015b83811015613f6b57805185811115613e8a57600080fd5b8601601f1960a0828d0382011215613ea25760008081fd5b613eaa613820565b8983015188811115613ebc5760008081fd5b8301603f81018e13613ece5760008081fd5b8a81015160408a821115613ee457613ee461380a565b613ef48d86601f85011601613891565b94508185528f81838501011115613f0b5760008081fd5b613f1a828e8701838601613b83565b848452613f28818701613de8565b8d8501526060945084860151818501525050506080613f48818501613df8565b83830152613f5860a08501613df8565b9082015285525050918601918601613e73565b5098975050505050505050565b600060208284031215613f8a57600080fd5b8151610b25816136ae565b8181036000831280158383131683831282161715613fb557613fb5613b3e565b5092915050565b80820260008212600160ff1b84141615613fd857613fd8613b3e565b818105831482151761092e5761092e613b3e565b600082613ffb57613ffb613cce565b600160ff1b82146000198414161561401557614015613b3e565b500590565b60006101c0828403121561402d57600080fd5b614035613849565b825181526020830151602082015260408301516040820152606083015160608201526080830151608082015260a083015160a082015260c083015160c082015260e083015160e08201526101008084015181830152506101208084015181830152506101408084015181830152506101608084015181830152506101808084015181830152506101a08084015181830152508091505092915050565b600061012082840312156140e457600080fd5b6140ec61386d565b825181526020830151602082015260408301516040820152606083015160608201526080830151608082015260a083015160a082015260c083015160c082015260e083015160e08201526101008084015181830152508091505092915050565b808201828112600083128015821682158216171561416c5761416c613b3e565b505092915050565b7f416363657373436f6e74726f6c3a206163636f756e74200000000000000000008152600083516141ac816017850160208801613b83565b7001034b99036b4b9b9b4b733903937b6329607d1b60179184019182015283516141dd816028840160208801613b83565b01602801949350505050565b6000816141f8576141f8613b3e565b506000190190565b600181815b8085111561423b57816000190482111561422157614221613b3e565b8085161561422e57918102915b93841c9390800290614205565b509250929050565b6000826142525750600161092e565b8161425f5750600061092e565b8160018114614275576002811461427f5761429b565b600191505061092e565b60ff84111561429057614290613b3e565b50506001821b61092e565b5060208310610133831016604e8410600b84101617156142be575081810a61092e565b6142c88383614200565b80600019048211156142dc576142dc613b3e565b029392505050565b6000610b2560ff84168361424356fe241ecf16d79d0f8dbfb92cbc07fe17840425976cf0667f022fe9877caa831b08a2646970667358221220af5b6f19df558a69660f189725883d20b073b5afa2541eed677dd68708394b8c64736f6c63430008110033",
  "linkReferences": {},
  "deployedLinkReferences": {}
}