{
  "_format": "hh-sol-artifact-1",
  "contractName": "FundFeeTest",
  "sourceName": "contracts/fee/FundFeeTest.sol",
  "abi": [
    {
      "inputs": [
        {
          "internalType": "address",
          "name": "_feeVault",
          "type": "address"
        }
      ],
      "stateMutability": "nonpayable",
      "type": "constructor"
    },
    {
      "anonymous": false,
      "inputs": [
        {
          "indexed": true,
          "internalType": "uint256",
          "name": "startTime",
          "type": "uint256"
        },
        {
          "indexed": true,
          "internalType": "uint256",
          "name": "endTime",
          "type": "uint256"
        }
      ],
      "name": "AddSkipTime",
      "type": "event"
    },
    {
      "anonymous": false,
      "inputs": [
        {
          "indexed": false,
          "internalType": "uint8",
          "name": "version",
          "type": "uint8"
        }
      ],
      "name": "Initialized",
      "type": "event"
    },
    {
      "anonymous": false,
      "inputs": [
        {
          "indexed": true,
          "internalType": "address",
          "name": "previousOwner",
          "type": "address"
        },
        {
          "indexed": true,
          "internalType": "address",
          "name": "newOwner",
          "type": "address"
        }
      ],
      "name": "OwnershipTransferred",
      "type": "event"
    },
    {
      "anonymous": false,
      "inputs": [
        {
          "indexed": true,
          "internalType": "bytes32",
          "name": "role",
          "type": "bytes32"
        },
        {
          "indexed": true,
          "internalType": "bytes32",
          "name": "previousAdminRole",
          "type": "bytes32"
        },
        {
          "indexed": true,
          "internalType": "bytes32",
          "name": "newAdminRole",
          "type": "bytes32"
        }
      ],
      "name": "RoleAdminChanged",
      "type": "event"
    },
    {
      "anonymous": false,
      "inputs": [
        {
          "indexed": true,
          "internalType": "bytes32",
          "name": "role",
          "type": "bytes32"
        },
        {
          "indexed": true,
          "internalType": "address",
          "name": "account",
          "type": "address"
        },
        {
          "indexed": true,
          "internalType": "address",
          "name": "sender",
          "type": "address"
        }
      ],
      "name": "RoleGranted",
      "type": "event"
    },
    {
      "anonymous": false,
      "inputs": [
        {
          "indexed": true,
          "internalType": "bytes32",
          "name": "role",
          "type": "bytes32"
        },
        {
          "indexed": true,
          "internalType": "address",
          "name": "account",
          "type": "address"
        },
        {
          "indexed": true,
          "internalType": "address",
          "name": "sender",
          "type": "address"
        }
      ],
      "name": "RoleRevoked",
      "type": "event"
    },
    {
      "anonymous": false,
      "inputs": [
        {
          "indexed": true,
          "internalType": "address",
          "name": "market",
          "type": "address"
        },
        {
          "indexed": false,
          "internalType": "uint256",
          "name": "interval",
          "type": "uint256"
        }
      ],
      "name": "UpdateFundInterval",
      "type": "event"
    },
    {
      "anonymous": false,
      "inputs": [
        {
          "indexed": true,
          "internalType": "uint256",
          "name": "oldLimit",
          "type": "uint256"
        },
        {
          "indexed": false,
          "internalType": "uint256",
          "name": "newLimit",
          "type": "uint256"
        }
      ],
      "name": "UpdateMinRateLimit",
      "type": "event"
    },
    {
      "anonymous": false,
      "inputs": [
        {
          "indexed": false,
          "internalType": "uint256",
          "name": "oldFRate",
          "type": "uint256"
        },
        {
          "indexed": false,
          "internalType": "uint256",
          "name": "newFRate",
          "type": "uint256"
        }
      ],
      "name": "UpdateMinorityFRate",
      "type": "event"
    },
    {
      "inputs": [],
      "name": "BASIS_INTERVAL_HOU",
      "outputs": [
        {
          "internalType": "uint256",
          "name": "",
          "type": "uint256"
        }
      ],
      "stateMutability": "view",
      "type": "function"
    },
    {
      "inputs": [],
      "name": "DEFAULT_ADMIN_ROLE",
      "outputs": [
        {
          "internalType": "bytes32",
          "name": "",
          "type": "bytes32"
        }
      ],
      "stateMutability": "view",
      "type": "function"
    },
    {
      "inputs": [],
      "name": "DEFAULT_RATE_DIVISOR",
      "outputs": [
        {
          "internalType": "uint256",
          "name": "",
          "type": "uint256"
        }
      ],
      "stateMutability": "view",
      "type": "function"
    },
    {
      "inputs": [],
      "name": "FEE_RATE_PRECISION",
      "outputs": [
        {
          "internalType": "uint256",
          "name": "",
          "type": "uint256"
        }
      ],
      "stateMutability": "view",
      "type": "function"
    },
    {
      "inputs": [],
      "name": "MIN_FUNDING_INTERVAL",
      "outputs": [
        {
          "internalType": "uint256",
          "name": "",
          "type": "uint256"
        }
      ],
      "stateMutability": "view",
      "type": "function"
    },
    {
      "inputs": [],
      "name": "TestTimeStamp",
      "outputs": [
        {
          "internalType": "uint256",
          "name": "",
          "type": "uint256"
        }
      ],
      "stateMutability": "view",
      "type": "function"
    },
    {
      "inputs": [
        {
          "internalType": "uint256",
          "name": "start",
          "type": "uint256"
        },
        {
          "internalType": "uint256",
          "name": "end",
          "type": "uint256"
        }
      ],
      "name": "addSkipTime",
      "outputs": [],
      "stateMutability": "nonpayable",
      "type": "function"
    },
    {
      "inputs": [],
      "name": "blankSlot",
      "outputs": [
        {
          "internalType": "address",
          "name": "",
          "type": "address"
        }
      ],
      "stateMutability": "view",
      "type": "function"
    },
    {
      "inputs": [],
      "name": "fRateFactor",
      "outputs": [
        {
          "internalType": "uint256",
          "name": "",
          "type": "uint256"
        }
      ],
      "stateMutability": "view",
      "type": "function"
    },
    {
      "inputs": [],
      "name": "feeVault",
      "outputs": [
        {
          "internalType": "address",
          "name": "",
          "type": "address"
        }
      ],
      "stateMutability": "view",
      "type": "function"
    },
    {
      "inputs": [
        {
          "internalType": "address",
          "name": "",
          "type": "address"
        }
      ],
      "name": "fundingIntervals",
      "outputs": [
        {
          "internalType": "uint256",
          "name": "",
          "type": "uint256"
        }
      ],
      "stateMutability": "view",
      "type": "function"
    },
    {
      "inputs": [
        {
          "internalType": "address",
          "name": "market",
          "type": "address"
        },
        {
          "internalType": "uint256",
          "name": "size",
          "type": "uint256"
        },
        {
          "internalType": "int256",
          "name": "entryFundingRate",
          "type": "int256"
        },
        {
          "internalType": "bool",
          "name": "isLong",
          "type": "bool"
        }
      ],
      "name": "getFundingFee",
      "outputs": [
        {
          "internalType": "int256",
          "name": "",
          "type": "int256"
        }
      ],
      "stateMutability": "view",
      "type": "function"
    },
    {
      "inputs": [
        {
          "internalType": "address",
          "name": "market",
          "type": "address"
        },
        {
          "internalType": "bool",
          "name": "isLong",
          "type": "bool"
        }
      ],
      "name": "getFundingRate",
      "outputs": [
        {
          "internalType": "int256",
          "name": "",
          "type": "int256"
        }
      ],
      "stateMutability": "view",
      "type": "function"
    },
    {
      "inputs": [],
      "name": "getGlobalOpenInterest",
      "outputs": [
        {
          "internalType": "uint256",
          "name": "_globalSize",
          "type": "uint256"
        }
      ],
      "stateMutability": "view",
      "type": "function"
    },
    {
      "inputs": [
        {
          "internalType": "address",
          "name": "market",
          "type": "address"
        },
        {
          "internalType": "uint256",
          "name": "longSize",
          "type": "uint256"
        },
        {
          "internalType": "uint256",
          "name": "shortSize",
          "type": "uint256"
        }
      ],
      "name": "getNextFundingRate",
      "outputs": [
        {
          "internalType": "int256",
          "name": "",
          "type": "int256"
        },
        {
          "internalType": "int256",
          "name": "",
          "type": "int256"
        }
      ],
      "stateMutability": "view",
      "type": "function"
    },
    {
      "inputs": [
        {
          "internalType": "bytes32",
          "name": "role",
          "type": "bytes32"
        }
      ],
      "name": "getRoleAdmin",
      "outputs": [
        {
          "internalType": "bytes32",
          "name": "",
          "type": "bytes32"
        }
      ],
      "stateMutability": "view",
      "type": "function"
    },
    {
      "inputs": [
        {
          "internalType": "address",
          "name": "_account",
          "type": "address"
        }
      ],
      "name": "grantControllerRoleByMarketManager",
      "outputs": [],
      "stateMutability": "nonpayable",
      "type": "function"
    },
    {
      "inputs": [
        {
          "internalType": "bytes32",
          "name": "role",
          "type": "bytes32"
        },
        {
          "internalType": "address",
          "name": "account",
          "type": "address"
        }
      ],
      "name": "grantRole",
      "outputs": [],
      "stateMutability": "nonpayable",
      "type": "function"
    },
    {
      "inputs": [
        {
          "internalType": "bytes32",
          "name": "role",
          "type": "bytes32"
        },
        {
          "internalType": "address",
          "name": "account",
          "type": "address"
        }
      ],
      "name": "hasRole",
      "outputs": [
        {
          "internalType": "bool",
          "name": "",
          "type": "bool"
        }
      ],
      "stateMutability": "view",
      "type": "function"
    },
    {
      "inputs": [],
      "name": "marketReader",
      "outputs": [
        {
          "internalType": "address",
          "name": "",
          "type": "address"
        }
      ],
      "stateMutability": "view",
      "type": "function"
    },
    {
      "inputs": [],
      "name": "maxFRate",
      "outputs": [
        {
          "internalType": "uint256",
          "name": "",
          "type": "uint256"
        }
      ],
      "stateMutability": "view",
      "type": "function"
    },
    {
      "inputs": [],
      "name": "maxFRatePerDay",
      "outputs": [
        {
          "internalType": "uint256",
          "name": "",
          "type": "uint256"
        }
      ],
      "stateMutability": "view",
      "type": "function"
    },
    {
      "inputs": [],
      "name": "minRateLimit",
      "outputs": [
        {
          "internalType": "uint256",
          "name": "",
          "type": "uint256"
        }
      ],
      "stateMutability": "view",
      "type": "function"
    },
    {
      "inputs": [],
      "name": "minorityFRate",
      "outputs": [
        {
          "internalType": "uint256",
          "name": "",
          "type": "uint256"
        }
      ],
      "stateMutability": "view",
      "type": "function"
    },
    {
      "inputs": [],
      "name": "owner",
      "outputs": [
        {
          "internalType": "address",
          "name": "",
          "type": "address"
        }
      ],
      "stateMutability": "view",
      "type": "function"
    },
    {
      "inputs": [],
      "name": "renounceOwnership",
      "outputs": [],
      "stateMutability": "nonpayable",
      "type": "function"
    },
    {
      "inputs": [
        {
          "internalType": "bytes32",
          "name": "role",
          "type": "bytes32"
        },
        {
          "internalType": "address",
          "name": "account",
          "type": "address"
        }
      ],
      "name": "renounceRole",
      "outputs": [],
      "stateMutability": "nonpayable",
      "type": "function"
    },
    {
      "inputs": [
        {
          "internalType": "bytes32",
          "name": "role",
          "type": "bytes32"
        },
        {
          "internalType": "address",
          "name": "account",
          "type": "address"
        }
      ],
      "name": "revokeRole",
      "outputs": [],
      "stateMutability": "nonpayable",
      "type": "function"
    },
    {
      "inputs": [
        {
          "internalType": "uint256",
          "name": "x",
          "type": "uint256"
        }
      ],
      "name": "setFRateFactor",
      "outputs": [],
      "stateMutability": "nonpayable",
      "type": "function"
    },
    {
      "inputs": [
        {
          "internalType": "address[]",
          "name": "markets",
          "type": "address[]"
        },
        {
          "internalType": "uint256[]",
          "name": "intervals",
          "type": "uint256[]"
        }
      ],
      "name": "setFundingInterval",
      "outputs": [],
      "stateMutability": "nonpayable",
      "type": "function"
    },
    {
      "inputs": [
        {
          "internalType": "address",
          "name": "_marketReader",
          "type": "address"
        }
      ],
      "name": "setMarketReader",
      "outputs": [],
      "stateMutability": "nonpayable",
      "type": "function"
    },
    {
      "inputs": [
        {
          "internalType": "uint256",
          "name": "x",
          "type": "uint256"
        }
      ],
      "name": "setMaxFRate",
      "outputs": [],
      "stateMutability": "nonpayable",
      "type": "function"
    },
    {
      "inputs": [
        {
          "internalType": "uint256",
          "name": "x",
          "type": "uint256"
        }
      ],
      "name": "setMaxFRatePerDay",
      "outputs": [],
      "stateMutability": "nonpayable",
      "type": "function"
    },
    {
      "inputs": [
        {
          "internalType": "uint256",
          "name": "limit",
          "type": "uint256"
        }
      ],
      "name": "setMinRateLimit",
      "outputs": [],
      "stateMutability": "nonpayable",
      "type": "function"
    },
    {
      "inputs": [
        {
          "internalType": "uint256",
          "name": "rate",
          "type": "uint256"
        }
      ],
      "name": "setMinorityFRate",
      "outputs": [],
      "stateMutability": "nonpayable",
      "type": "function"
    },
    {
      "inputs": [
        {
          "internalType": "uint256",
          "name": "ts",
          "type": "uint256"
        }
      ],
      "name": "setTimeStamp",
      "outputs": [],
      "stateMutability": "nonpayable",
      "type": "function"
    },
    {
      "inputs": [
        {
          "internalType": "uint256",
          "name": "",
          "type": "uint256"
        }
      ],
      "name": "skipTimes",
      "outputs": [
        {
          "internalType": "uint256",
          "name": "start",
          "type": "uint256"
        },
        {
          "internalType": "uint256",
          "name": "end",
          "type": "uint256"
        }
      ],
      "stateMutability": "view",
      "type": "function"
    },
    {
      "inputs": [
        {
          "internalType": "bytes4",
          "name": "interfaceId",
          "type": "bytes4"
        }
      ],
      "name": "supportsInterface",
      "outputs": [
        {
          "internalType": "bool",
          "name": "",
          "type": "bool"
        }
      ],
      "stateMutability": "view",
      "type": "function"
    },
    {
      "inputs": [
        {
          "internalType": "address",
          "name": "to",
          "type": "address"
        }
      ],
      "name": "transferAdmin",
      "outputs": [],
      "stateMutability": "nonpayable",
      "type": "function"
    },
    {
      "inputs": [
        {
          "internalType": "address",
          "name": "newOwner",
          "type": "address"
        }
      ],
      "name": "transferOwnership",
      "outputs": [],
      "stateMutability": "nonpayable",
      "type": "function"
    },
    {
      "inputs": [
        {
          "internalType": "address",
          "name": "market",
          "type": "address"
        },
        {
          "internalType": "uint256",
          "name": "longSize",
          "type": "uint256"
        },
        {
          "internalType": "uint256",
          "name": "shortSize",
          "type": "uint256"
        }
      ],
      "name": "updateCumulativeFundingRate",
      "outputs": [],
      "stateMutability": "nonpayable",
      "type": "function"
    }
  ],
  "bytecode": "0x60a060405261411a60045560006005556305f5e1006009556305f5e100600a556000600b553480156200003157600080fd5b50604051620025d7380380620025d7833981016040819052620000549162000232565b8033620000618162000107565b62000077816200015960201b6200102c1760201c565b506001600160a01b038116620000c65760405162461bcd60e51b815260206004820152601060248201526f1a5b9d985b1a590819995955985d5b1d60821b604482015260640160405180910390fd5b6001600160a01b038116608052620000ff7f241ecf16d79d0f8dbfb92cbc07fe17840425976cf0667f022fe9877caa831b083362000185565b505062000264565b600180546001600160a01b038381166001600160a01b0319831681179093556040519116919082907f8be0079c531659141344cd1fd0a4f28419497f9722a3daafe3b4186f6b6457e090600090a35050565b42600255620001683362000107565b6200017560003362000226565b6200018260008262000226565b50565b6000828152602081815260408083206001600160a01b038516845290915290205460ff1662000222576000828152602081815260408083206001600160a01b03851684529091529020805460ff19166001179055620001e13390565b6001600160a01b0316816001600160a01b0316837f2f8788117e7eff1d82e926ec794901d17c78024a50270940304540a733656f0d60405160405180910390a45b5050565b62000222828262000185565b6000602082840312156200024557600080fd5b81516001600160a01b03811681146200025d57600080fd5b9392505050565b60805161233b6200029c600039600081816103510152818161064901528181610a20015281816112fd01526113d4015261233b6000f3fe608060405234801561001057600080fd5b50600436106102535760003560e01c806376239a6711610146578063bac8d9e8116100c3578063c831ba2a11610087578063c831ba2a146104ff578063d547741f14610508578063dc5ac9951461051b578063e56fa59d1461052e578063f2fde38b14610541578063f4ca4d1d1461055457600080fd5b8063bac8d9e8146104b5578063bc3d3a8b146104bd578063c1b3cb0f146104d0578063c418b11c146104d9578063c6f83ad1146104ec57600080fd5b80638f18af9a1161010a5780638f18af9a1461046b57806391d148541461047e57806395d608a214610491578063a217fddf1461049a578063b8749703146104a257600080fd5b806376239a67146104185780637fe4a6981461042b57806387a1cd091461043e5780638ac89fc2146104515780638da5cb5b1461045a57600080fd5b8063478222c2116101d45780635b7c1137116101985780635b7c1137146103d9578063705da24c146103ec578063715018a6146103f457806374d57cef146103fc57806375829def1461040557600080fd5b8063478222c21461034c5780634fd39bee1461038b57806350d16a291461039e5780635645d877146103b15780635a58ca45146103d157600080fd5b8063248a9ca31161021b578063248a9ca3146102f157806327d3fbf3146103145780632f2ff15d1461031d57806336568abe146103305780633ae7f2de1461034357600080fd5b806301ffc9a714610258578063021453f414610280578063054aaca1146102a857806313e43bc6146102bb57806320981df4146102d0575b600080fd5b61026b610266366004611ad5565b61055f565b60405190151581526020015b60405180910390f35b61029361028e366004611aff565b610596565b60408051928352602083019190915201610277565b6102936102b6366004611b2d565b6105c4565b6102ce6102c9366004611aff565b6105f7565b005b6102e36102de366004611b70565b61061c565b604051908152602001610277565b6102e36102ff366004611aff565b60009081526020819052604090206001015490565b6102e360055481565b6102ce61032b366004611ba9565b6106bd565b6102ce61033e366004611ba9565b6106e7565b6102e3600c5481565b6103737f000000000000000000000000000000000000000000000000000000000000000081565b6040516001600160a01b039091168152602001610277565b6102ce610399366004611aff565b61076a565b6102ce6103ac366004611aff565b610786565b6102e36103bf366004611bce565b60066020526000908152604090205481565b6102e3606481565b6102ce6103e7366004611bce565b6107a2565b6102e3601881565b6102ce6107db565b6102e3600b5481565b6102ce610413366004611bce565b6107ef565b6102ce610426366004611cea565b610819565b6102ce610439366004611bce565b6109ca565b600354610373906001600160a01b031681565b6102e360095481565b6001546001600160a01b0316610373565b6102e3610479366004611dac565b6109f4565b61026b61048c366004611ba9565b610ab3565b6102e3600a5481565b6102e3600081565b6102ce6104b0366004611aff565b610adc565b6102e3610af8565b6102ce6104cb366004611df6565b610c99565b6102e3610e1081565b600854610373906001600160a01b031681565b6102ce6104fa366004611b2d565b610d99565b6102e360045481565b6102ce610516366004611ba9565b610e9a565b6102ce610529366004611aff565b610ebf565b6102ce61053c366004611aff565b610f1b565b6102ce61054f366004611bce565b610fb3565b6102e36305f5e10081565b60006001600160e01b03198216637965db0b60e01b148061059057506301ffc9a760e01b6001600160e01b03198316145b92915050565b600781815481106105a657600080fd5b60009182526020909120600290910201805460019091015490915082565b6000806000806105d587878761104f565b915091506000806105e78985856110a6565b909a909950975050505050505050565b7322b147a9e4e513d39775504eb7db3d674d53d5dd331461061757600080fd5b600c55565b6040516001624c409d60e01b031981526001600160a01b03838116600483015282151560248301526000917f00000000000000000000000000000000000000000000000000000000000000009091169063ffb3bf6390604401602060405180830381865afa158015610692573d6000803e3d6000fd5b505050506040513d601f19601f820116820180604052508101906106b69190611e18565b9392505050565b6000828152602081905260409020600101546106d8816110e1565b6106e283836110eb565b505050565b6001600160a01b038116331461075c5760405162461bcd60e51b815260206004820152602f60248201527f416363657373436f6e74726f6c3a2063616e206f6e6c792072656e6f756e636560448201526e103937b632b9903337b91039b2b63360891b60648201526084015b60405180910390fd5b610766828261116f565b5050565b6107816000805160206122e68339815191526110e1565b600b55565b61079d6000805160206122e68339815191526110e1565b600955565b6107b96000805160206122e68339815191526110e1565b600880546001600160a01b0319166001600160a01b0392909216919091179055565b6107e36111d4565b6107ed600061122e565b565b60006107fa816110e1565b610805600083611280565b61080e8261122e565b61076660003361116f565b6108306000805160206122e68339815191526110e1565b80518251146108725760405162461bcd60e51b815260206004820152600e60248201526d696e76616c696420706172616d7360901b6044820152606401610753565b6000805b83518110156109c45760006001600160a01b031684828151811061089c5761089c611e31565b60200260200101516001600160a01b0316036108b757600080fd5b610e108382815181106108cc576108cc611e31565b602002602001015110156108df57600080fd5b610e10808483815181106108f5576108f5611e31565b60200260200101516109079190611e73565b6109119190611e87565b9150816006600086848151811061092a5761092a611e31565b60200260200101516001600160a01b03166001600160a01b031681526020019081526020016000208190555083818151811061096857610968611e31565b60200260200101516001600160a01b03167f014f9b627a46d0881111664e681522272907a49b31cc3f24613bdad2c551825c836040516109aa91815260200190565b60405180910390a2806109bc81611e9e565b915050610876565b50505050565b7f8d1089725c0dc266707fa6207730fb801dcd03108bfed7a21099bd303651d2b7610253816110e1565b6040516334f32e2560e01b81526001600160a01b038581166004830152821515602483015260009182917f000000000000000000000000000000000000000000000000000000000000000016906334f32e2590604401602060405180830381865afa158015610a67573d6000803e3d6000fd5b505050506040513d601f19601f82011682018060405250810190610a8b9190611e18565b90506305f5e10080610a9e87878561128a565b610aa89190611eb7565b979650505050505050565b6000918252602082815260408084206001600160a01b0393909316845291905290205460ff1690565b610af36000805160206122e68339815191526110e1565b600a55565b60085460408051637616480b60e11b815290516000926001600160a01b0316918391839163ec2c901691600480830192869291908290030181865afa158015610b45573d6000803e3d6000fd5b505050506040513d6000823e601f3d908101601f19168201604052610b6d9190810190611f24565b905060005b8151811015610c9357826001600160a01b031663d37c441c6040518163ffffffff1660e01b8152600401602060405180830381865afa158015610bb9573d6000803e3d6000fd5b505050506040513d601f19601f82011682018060405250810190610bdd9190612099565b6001600160a01b0316632b8a0012838381518110610bfd57610bfd611e31565b6020026020010151602001516040518263ffffffff1660e01b8152600401610c3491906001600160a01b0391909116815260200190565b602060405180830381865afa158015610c51573d6000803e3d6000fd5b505050506040513d601f19601f82011682018060405250810190610c759190611e18565b610c7f90856120b6565b935080610c8b81611e9e565b915050610b72565b50505090565b610cb06000805160206122e68339815191526110e1565b81811015610cf15760405162461bcd60e51b815260206004820152600e60248201526d696e76616c696420706172616d7360901b6044820152606401610753565b6040805180820182528381526020810183815260078054600181018255600091825283517fa66cc928b5edb82af9bd49922954155ab7b0942694bea4ce44661d9a8736c68860029092029182015591517fa66cc928b5edb82af9bd49922954155ab7b0942694bea4ce44661d9a8736c6899092019190915591519091839185917fbb67e50fdd1f174a20c4f1e0e5b9ab3984685f30623b89b69ba068a11ce913b691a3505050565b610dc27fcb58d6d985142a614029cdf01861b4fe094d5919a47e69b8310dc4093d9d6ad06110e1565b6000610dcd846112ac565b90506000610dda856112db565b905080600003610e1b578182610dee61136a565b610df89190611e73565b610e029190611e87565b9050610e148560008060008086611392565b5050505050565b610e2d8183610e2861136a565b611438565b1515600003610e3d575050505050565b600080610e4b87878761104f565b91509150600080610e5d8985856110a6565b915091508586610e6b61136a565b610e759190611e73565b610e7f9190611e87565b9450610e8f89858585858a611392565b505050505050505050565b600082815260208190526040902060010154610eb5816110e1565b6106e2838361116f565b610ed66000805160206122e68339815191526110e1565b600580549082905560408051828152602081018490527fcc6508f1ccefe81f3ad53a268646f4f599087ddb280e426c89bc1d597a03d412910160405180910390a15050565b610f326000805160206122e68339815191526110e1565b60008111610f725760405162461bcd60e51b815260206004820152600d60248201526c1a5b9d985b1a59081b1a5b5a5d609a1b6044820152606401610753565b600480549082905560405182815281907f3260736e52fceaa012d37fa304cc1487de94003f4f3abd03f22617f6105cd83a9060200160405180910390a25050565b610fbb6111d4565b6001600160a01b0381166110205760405162461bcd60e51b815260206004820152602660248201527f4f776e61626c653a206e6577206f776e657220697320746865207a65726f206160448201526564647265737360d01b6064820152608401610753565b6110298161122e565b50565b426002556110393361122e565b611044600033611280565b611029600082611280565b6000806000806110828686600b5461106660045490565b61106f8c61144f565b61107a8d8d8d611555565b600554611575565b9150915061108f826115d4565b611098826115d4565b935093505050935093915050565b6000806110d584846110b7886112ac565b6110c0896112db565b6110c861136a565b6110d0611642565b6116fd565b91509150935093915050565b611029813361175d565b6110f58282610ab3565b610766576000828152602081815260408083206001600160a01b03851684529091529020805460ff1916600117905561112b3390565b6001600160a01b0316816001600160a01b0316837f2f8788117e7eff1d82e926ec794901d17c78024a50270940304540a733656f0d60405160405180910390a45050565b6111798282610ab3565b15610766576000828152602081815260408083206001600160a01b0385168085529252808320805460ff1916905551339285917ff6391f5c32d9c69d2a47ea670b442974b53935d1edc7fd64eb21e047a839171b9190a45050565b6001546001600160a01b031633146107ed5760405162461bcd60e51b815260206004820181905260248201527f4f776e61626c653a2063616c6c6572206973206e6f7420746865206f776e65726044820152606401610753565b600180546001600160a01b038381166001600160a01b0319831681179093556040519116919082907f8be0079c531659141344cd1fd0a4f28419497f9722a3daafe3b4186f6b6457e090600090a35050565b61076682826110eb565b60008061129784846120c9565b90506112a381866120f0565b95945050505050565b6001600160a01b03811660009081526006602052604081205480156112d15792915050565b50610e1092915050565b60405163d8f897c360e01b81526001600160a01b0382811660048301526000917f00000000000000000000000000000000000000000000000000000000000000009091169063d8f897c390602401602060405180830381865afa158015611346573d6000803e3d6000fd5b505050506040513d601f19601f820116820180604052508101906105909190611e18565b6000600c546000148061138157506307c931d24310155b1561138b57504290565b50600c5490565b60405163b21bf2d360e01b81526001600160a01b0387811660048301526024820187905260448201869052606482018590526084820184905260a482018390527f0000000000000000000000000000000000000000000000000000000000000000169063b21bf2d39060c401600060405180830381600087803b15801561141857600080fd5b505af115801561142c573d6000803e3d6000fd5b50505050505050505050565b60008161144584866120b6565b1115949350505050565b6008546000906001600160a01b031681611467610af8565b90506000826001600160a01b031663d37c441c6040518163ffffffff1660e01b8152600401602060405180830381865afa1580156114a9573d6000803e3d6000fd5b505050506040513d601f19601f820116820180604052508101906114cd9190612099565b6001600160a01b0316636dc7b0a16040518163ffffffff1660e01b8152600401602060405180830381865afa15801561150a573d6000803e3d6000fd5b505050506040513d601f19601f8201168201806040525081019061152e9190611e18565b9050600061153b866112ac565b905061154b8383600954846117b6565b9695505050505050565b600061156d8383611565876112ac565b600a5461180c565b949350505050565b6000808584116115895750849050806115c8565b86156115955786611597565b845b9650868411156115a5578693505b858410156115b1578593505b878910156115c05782846115c3565b83835b915091505b97509795505050505050565b60006001600160ff1b0382111561163e5760405162461bcd60e51b815260206004820152602860248201527f53616665436173743a2076616c756520646f65736e27742066697420696e2061604482015267371034b73a191a9b60c11b6064820152608401610753565b5090565b60075460009081036116515790565b60005b60075481101561163e576007818154811061167157611671611e31565b9060005260206000209060020201600101544211156116eb576007818154811061169d5761169d611e31565b906000526020600020906002020160000154600782815481106116c2576116c2611e31565b9060005260206000209060020201600101546116de9190612120565b6116e890836120b6565b91505b806116f581611e9e565b915050611654565b60008061170b858786611438565b151560000361171f57506000905080611752565b600061172d868887876118bd565b9050600061173b8a836118f7565b905060006117498a846118f7565b91945090925050505b965096945050505050565b6117678282610ab3565b6107665761177481611903565b61177f836020611915565b604051602001611790929190612133565b60408051601f198184030181529082905262461bcd60e51b8252610753916004016121a8565b600080610e106305f5e10060188782886117d0898d611e87565b6117da9190611e87565b6117e49190611e87565b6117ee9190611e73565b6117f89190611e73565b6118029190611e73565b61154b9190611e73565b6000806118198686611ab1565b90506000811561154b57600061182f87896120b6565b9050806118406305f5e10085611e87565b61184a9190611e73565b9150610e10601860646305f5e100896118646002886122bf565b61186e9190611e87565b6118789190611e73565b6118829190611e73565b61188c9190611e73565b6118969190611e73565b91506305f5e1006118a78684611e87565b6118b19190611e73565b98975050505050505050565b600080841180156118ce5750600083115b6118d757600080fd5b83826118e38786612120565b6118ed9190612120565b6112a39190611e73565b60006106b682846120f0565b60606105906001600160a01b03831660145b60606000611924836002611e87565b61192f9060026120b6565b67ffffffffffffffff81111561194757611947611beb565b6040519080825280601f01601f191660200182016040528015611971576020820181803683370190505b509050600360fc1b8160008151811061198c5761198c611e31565b60200101906001600160f81b031916908160001a905350600f60fb1b816001815181106119bb576119bb611e31565b60200101906001600160f81b031916908160001a90535060006119df846002611e87565b6119ea9060016120b6565b90505b6001811115611a62576f181899199a1a9b1b9c1cb0b131b232b360811b85600f1660108110611a1e57611a1e611e31565b1a60f81b828281518110611a3457611a34611e31565b60200101906001600160f81b031916908160001a90535060049490941c93611a5b816122ce565b90506119ed565b5083156106b65760405162461bcd60e51b815260206004820181905260248201527f537472696e67733a20686578206c656e67746820696e73756666696369656e746044820152606401610753565b6000818310611acb57611ac48284612120565b9050610590565b611ac48383612120565b600060208284031215611ae757600080fd5b81356001600160e01b0319811681146106b657600080fd5b600060208284031215611b1157600080fd5b5035919050565b6001600160a01b038116811461102957600080fd5b600080600060608486031215611b4257600080fd5b8335611b4d81611b18565b95602085013595506040909401359392505050565b801515811461102957600080fd5b60008060408385031215611b8357600080fd5b8235611b8e81611b18565b91506020830135611b9e81611b62565b809150509250929050565b60008060408385031215611bbc57600080fd5b823591506020830135611b9e81611b18565b600060208284031215611be057600080fd5b81356106b681611b18565b634e487b7160e01b600052604160045260246000fd5b60405160a0810167ffffffffffffffff81118282101715611c2457611c24611beb565b60405290565b604051601f8201601f1916810167ffffffffffffffff81118282101715611c5357611c53611beb565b604052919050565b600067ffffffffffffffff821115611c7557611c75611beb565b5060051b60200190565b600082601f830112611c9057600080fd5b81356020611ca5611ca083611c5b565b611c2a565b82815260059290921b84018101918181019086841115611cc457600080fd5b8286015b84811015611cdf5780358352918301918301611cc8565b509695505050505050565b60008060408385031215611cfd57600080fd5b823567ffffffffffffffff80821115611d1557600080fd5b818501915085601f830112611d2957600080fd5b81356020611d39611ca083611c5b565b82815260059290921b84018101918181019089841115611d5857600080fd5b948201945b83861015611d7f578535611d7081611b18565b82529482019490820190611d5d565b96505086013592505080821115611d9557600080fd5b50611da285828601611c7f565b9150509250929050565b60008060008060808587031215611dc257600080fd5b8435611dcd81611b18565b935060208501359250604085013591506060850135611deb81611b62565b939692955090935050565b60008060408385031215611e0957600080fd5b50508035926020909101359150565b600060208284031215611e2a57600080fd5b5051919050565b634e487b7160e01b600052603260045260246000fd5b634e487b7160e01b600052601260045260246000fd5b634e487b7160e01b600052601160045260246000fd5b600082611e8257611e82611e47565b500490565b808202811582820484141761059057610590611e5d565b600060018201611eb057611eb0611e5d565b5060010190565b600082611ec657611ec6611e47565b600160ff1b821460001984141615611ee057611ee0611e5d565b500590565b60005b83811015611f00578181015183820152602001611ee8565b50506000910152565b8051611f1481611b18565b919050565b8051611f1481611b62565b60006020808385031215611f3757600080fd5b825167ffffffffffffffff80821115611f4f57600080fd5b818501915085601f830112611f6357600080fd5b8151611f71611ca082611c5b565b81815260059190911b83018401908481019088831115611f9057600080fd5b8585015b8381101561208c57805185811115611fab57600080fd5b8601601f1960a0828d0382011215611fc35760008081fd5b611fcb611c01565b8983015188811115611fdd5760008081fd5b8301603f81018e13611fef5760008081fd5b8a81015160408a82111561200557612005611beb565b6120158d86601f85011601611c2a565b94508185528f8183850101111561202c5760008081fd5b61203b828e8701838601611ee5565b848452612049818701611f09565b8d8501526060945084860151818501525050506080612069818501611f19565b8383015261207960a08501611f19565b9082015285525050918601918601611f94565b5098975050505050505050565b6000602082840312156120ab57600080fd5b81516106b681611b18565b8082018082111561059057610590611e5d565b81810360008312801583831316838312821617156120e9576120e9611e5d565b5092915050565b80820260008212600160ff1b8414161561210c5761210c611e5d565b818105831482151761059057610590611e5d565b8181038181111561059057610590611e5d565b7f416363657373436f6e74726f6c3a206163636f756e742000000000000000000081526000835161216b816017850160208801611ee5565b7001034b99036b4b9b9b4b733903937b6329607d1b601791840191820152835161219c816028840160208801611ee5565b01602801949350505050565b60208152600082518060208401526121c7816040850160208701611ee5565b601f01601f19169190910160400192915050565b600181815b808511156122165781600019048211156121fc576121fc611e5d565b8085161561220957918102915b93841c93908002906121e0565b509250929050565b60008261222d57506001610590565b8161223a57506000610590565b8160018114612250576002811461225a57612276565b6001915050610590565b60ff84111561226b5761226b611e5d565b50506001821b610590565b5060208310610133831016604e8410600b8410161715612299575081810a610590565b6122a383836121db565b80600019048211156122b7576122b7611e5d565b029392505050565b60006106b660ff84168361221e565b6000816122dd576122dd611e5d565b50600019019056fe241ecf16d79d0f8dbfb92cbc07fe17840425976cf0667f022fe9877caa831b08a2646970667358221220bd43fb3b30f52fe5432ffde7aacbca60fbd4d773729601efebe32ab3b19d22a464736f6c63430008110033",
  "linkReferences": {},
  "deployedLinkReferences": {}
}