{
  "_format": "hh-sol-artifact-1",
  "contractName": "FundFeeTest",
  "sourceName": "contracts/fee/FundFeeTest.sol",
  "abi": [
    {
      "anonymous": false,
      "inputs": [
        {
          "indexed": true,
          "internalType": "address",
          "name": "market",
          "type": "address"
        },
        {
          "indexed": false,
          "internalType": "uint256",
          "name": "amount",
          "type": "uint256"
        },
        {
          "indexed": false,
          "internalType": "uint256",
          "name": "lossBefore",
          "type": "uint256"
        },
        {
          "indexed": false,
          "internalType": "uint256",
          "name": "lossAfter",
          "type": "uint256"
        }
      ],
      "name": "AddNegativeFeeLoss",
      "type": "event"
    },
    {
      "anonymous": false,
      "inputs": [
        {
          "indexed": true,
          "internalType": "address",
          "name": "market",
          "type": "address"
        },
        {
          "indexed": false,
          "internalType": "uint256",
          "name": "deductAmount",
          "type": "uint256"
        },
        {
          "indexed": false,
          "internalType": "uint256",
          "name": "lossBefore",
          "type": "uint256"
        },
        {
          "indexed": false,
          "internalType": "uint256",
          "name": "lossAfter",
          "type": "uint256"
        }
      ],
      "name": "AddPositiveFeeLoss",
      "type": "event"
    },
    {
      "anonymous": false,
      "inputs": [
        {
          "indexed": true,
          "internalType": "uint256",
          "name": "startTime",
          "type": "uint256"
        },
        {
          "indexed": true,
          "internalType": "uint256",
          "name": "endTime",
          "type": "uint256"
        }
      ],
      "name": "AddSkipTime",
      "type": "event"
    },
    {
      "anonymous": false,
      "inputs": [
        {
          "indexed": false,
          "internalType": "uint8",
          "name": "version",
          "type": "uint8"
        }
      ],
      "name": "Initialized",
      "type": "event"
    },
    {
      "anonymous": false,
      "inputs": [
        {
          "indexed": true,
          "internalType": "address",
          "name": "previousOwner",
          "type": "address"
        },
        {
          "indexed": true,
          "internalType": "address",
          "name": "newOwner",
          "type": "address"
        }
      ],
      "name": "OwnershipTransferred",
      "type": "event"
    },
    {
      "anonymous": false,
      "inputs": [
        {
          "indexed": true,
          "internalType": "bytes32",
          "name": "role",
          "type": "bytes32"
        },
        {
          "indexed": true,
          "internalType": "bytes32",
          "name": "previousAdminRole",
          "type": "bytes32"
        },
        {
          "indexed": true,
          "internalType": "bytes32",
          "name": "newAdminRole",
          "type": "bytes32"
        }
      ],
      "name": "RoleAdminChanged",
      "type": "event"
    },
    {
      "anonymous": false,
      "inputs": [
        {
          "indexed": true,
          "internalType": "bytes32",
          "name": "role",
          "type": "bytes32"
        },
        {
          "indexed": true,
          "internalType": "address",
          "name": "account",
          "type": "address"
        },
        {
          "indexed": true,
          "internalType": "address",
          "name": "sender",
          "type": "address"
        }
      ],
      "name": "RoleGranted",
      "type": "event"
    },
    {
      "anonymous": false,
      "inputs": [
        {
          "indexed": true,
          "internalType": "bytes32",
          "name": "role",
          "type": "bytes32"
        },
        {
          "indexed": true,
          "internalType": "address",
          "name": "account",
          "type": "address"
        },
        {
          "indexed": true,
          "internalType": "address",
          "name": "sender",
          "type": "address"
        }
      ],
      "name": "RoleRevoked",
      "type": "event"
    },
    {
      "anonymous": false,
      "inputs": [
        {
          "indexed": false,
          "internalType": "address",
          "name": "market",
          "type": "address"
        },
        {
          "indexed": false,
          "internalType": "uint256",
          "name": "updatedAt",
          "type": "uint256"
        }
      ],
      "name": "SetUpdateAt",
      "type": "event"
    },
    {
      "anonymous": false,
      "inputs": [
        {
          "indexed": false,
          "internalType": "address",
          "name": "market",
          "type": "address"
        },
        {
          "indexed": false,
          "internalType": "uint256",
          "name": "ts",
          "type": "uint256"
        }
      ],
      "name": "TimeStampChanged",
      "type": "event"
    },
    {
      "anonymous": false,
      "inputs": [
        {
          "indexed": true,
          "internalType": "address",
          "name": "market",
          "type": "address"
        },
        {
          "indexed": false,
          "internalType": "int256",
          "name": "longRate",
          "type": "int256"
        },
        {
          "indexed": false,
          "internalType": "int256",
          "name": "shortRate",
          "type": "int256"
        }
      ],
      "name": "UpdateCalFundRates",
      "type": "event"
    },
    {
      "anonymous": false,
      "inputs": [
        {
          "indexed": true,
          "internalType": "address",
          "name": "market",
          "type": "address"
        },
        {
          "indexed": false,
          "internalType": "uint256",
          "name": "interval",
          "type": "uint256"
        }
      ],
      "name": "UpdateCalInterval",
      "type": "event"
    },
    {
      "anonymous": false,
      "inputs": [
        {
          "indexed": false,
          "internalType": "uint256",
          "name": "index",
          "type": "uint256"
        },
        {
          "indexed": false,
          "internalType": "uint256",
          "name": "oldFRate",
          "type": "uint256"
        },
        {
          "indexed": false,
          "internalType": "uint256",
          "name": "newFRate",
          "type": "uint256"
        }
      ],
      "name": "UpdateConfig",
      "type": "event"
    },
    {
      "anonymous": false,
      "inputs": [
        {
          "indexed": true,
          "internalType": "address",
          "name": "market",
          "type": "address"
        },
        {
          "indexed": false,
          "internalType": "uint256",
          "name": "interval",
          "type": "uint256"
        }
      ],
      "name": "UpdateFundInterval",
      "type": "event"
    },
    {
      "anonymous": false,
      "inputs": [
        {
          "indexed": true,
          "internalType": "address",
          "name": "market",
          "type": "address"
        },
        {
          "indexed": false,
          "internalType": "uint256",
          "name": "longRate",
          "type": "uint256"
        },
        {
          "indexed": false,
          "internalType": "uint256",
          "name": "shortRate",
          "type": "uint256"
        }
      ],
      "name": "UpdateLastCalRate",
      "type": "event"
    },
    {
      "anonymous": false,
      "inputs": [
        {
          "indexed": true,
          "internalType": "address",
          "name": "market",
          "type": "address"
        },
        {
          "indexed": false,
          "internalType": "uint256",
          "name": "timestamp",
          "type": "uint256"
        }
      ],
      "name": "UpdateLastCalTime",
      "type": "event"
    },
    {
      "inputs": [],
      "name": "DEFAULT_ADMIN_ROLE",
      "outputs": [
        {
          "internalType": "bytes32",
          "name": "",
          "type": "bytes32"
        }
      ],
      "stateMutability": "view",
      "type": "function"
    },
    {
      "inputs": [],
      "name": "FEERATEPRECISION",
      "outputs": [
        {
          "internalType": "uint256",
          "name": "",
          "type": "uint256"
        }
      ],
      "stateMutability": "view",
      "type": "function"
    },
    {
      "inputs": [],
      "name": "TestTimeStamp",
      "outputs": [
        {
          "internalType": "uint256",
          "name": "",
          "type": "uint256"
        }
      ],
      "stateMutability": "view",
      "type": "function"
    },
    {
      "inputs": [
        {
          "internalType": "address",
          "name": "market",
          "type": "address"
        },
        {
          "internalType": "uint256",
          "name": "a",
          "type": "uint256"
        }
      ],
      "name": "addFeeLoss",
      "outputs": [],
      "stateMutability": "nonpayable",
      "type": "function"
    },
    {
      "inputs": [
        {
          "internalType": "uint256",
          "name": "start",
          "type": "uint256"
        },
        {
          "internalType": "uint256",
          "name": "end",
          "type": "uint256"
        }
      ],
      "name": "addSkipTime",
      "outputs": [],
      "stateMutability": "nonpayable",
      "type": "function"
    },
    {
      "inputs": [
        {
          "internalType": "address",
          "name": "",
          "type": "address"
        },
        {
          "internalType": "bool",
          "name": "",
          "type": "bool"
        }
      ],
      "name": "calFundingRates",
      "outputs": [
        {
          "internalType": "int256",
          "name": "",
          "type": "int256"
        }
      ],
      "stateMutability": "view",
      "type": "function"
    },
    {
      "inputs": [
        {
          "internalType": "address",
          "name": "",
          "type": "address"
        }
      ],
      "name": "calIntervals",
      "outputs": [
        {
          "internalType": "uint256",
          "name": "",
          "type": "uint256"
        }
      ],
      "stateMutability": "view",
      "type": "function"
    },
    {
      "inputs": [
        {
          "internalType": "uint256",
          "name": "",
          "type": "uint256"
        }
      ],
      "name": "configs",
      "outputs": [
        {
          "internalType": "uint256",
          "name": "",
          "type": "uint256"
        }
      ],
      "stateMutability": "view",
      "type": "function"
    },
    {
      "inputs": [],
      "name": "fRateFactor",
      "outputs": [
        {
          "internalType": "uint256",
          "name": "",
          "type": "uint256"
        }
      ],
      "stateMutability": "view",
      "type": "function"
    },
    {
      "inputs": [],
      "name": "feeVault",
      "outputs": [
        {
          "internalType": "address",
          "name": "",
          "type": "address"
        }
      ],
      "stateMutability": "view",
      "type": "function"
    },
    {
      "inputs": [
        {
          "internalType": "address",
          "name": "",
          "type": "address"
        }
      ],
      "name": "fundFeeLoss",
      "outputs": [
        {
          "internalType": "uint256",
          "name": "",
          "type": "uint256"
        }
      ],
      "stateMutability": "view",
      "type": "function"
    },
    {
      "inputs": [
        {
          "internalType": "address",
          "name": "market",
          "type": "address"
        }
      ],
      "name": "fundingFeeLoss",
      "outputs": [
        {
          "internalType": "uint256",
          "name": "",
          "type": "uint256"
        }
      ],
      "stateMutability": "view",
      "type": "function"
    },
    {
      "inputs": [],
      "name": "fundingFeeLossOffLimit",
      "outputs": [
        {
          "internalType": "uint256",
          "name": "",
          "type": "uint256"
        }
      ],
      "stateMutability": "view",
      "type": "function"
    },
    {
      "inputs": [
        {
          "internalType": "address",
          "name": "",
          "type": "address"
        }
      ],
      "name": "fundingIntervals",
      "outputs": [
        {
          "internalType": "uint256",
          "name": "",
          "type": "uint256"
        }
      ],
      "stateMutability": "view",
      "type": "function"
    },
    {
      "inputs": [
        {
          "internalType": "address",
          "name": "market",
          "type": "address"
        }
      ],
      "name": "getCalFundingRates",
      "outputs": [
        {
          "internalType": "int256",
          "name": "",
          "type": "int256"
        },
        {
          "internalType": "int256",
          "name": "",
          "type": "int256"
        }
      ],
      "stateMutability": "view",
      "type": "function"
    },
    {
      "inputs": [
        {
          "internalType": "address",
          "name": "market",
          "type": "address"
        },
        {
          "internalType": "uint256",
          "name": "size",
          "type": "uint256"
        },
        {
          "internalType": "int256",
          "name": "entryFundingRate",
          "type": "int256"
        },
        {
          "internalType": "bool",
          "name": "isLong",
          "type": "bool"
        }
      ],
      "name": "getFundingFee",
      "outputs": [
        {
          "internalType": "int256",
          "name": "",
          "type": "int256"
        }
      ],
      "stateMutability": "view",
      "type": "function"
    },
    {
      "inputs": [
        {
          "internalType": "address",
          "name": "market",
          "type": "address"
        },
        {
          "internalType": "bool",
          "name": "isLong",
          "type": "bool"
        }
      ],
      "name": "getFundingRate",
      "outputs": [
        {
          "internalType": "int256",
          "name": "",
          "type": "int256"
        }
      ],
      "stateMutability": "view",
      "type": "function"
    },
    {
      "inputs": [],
      "name": "getGlobalOpenInterest",
      "outputs": [
        {
          "internalType": "uint256",
          "name": "_globalSize",
          "type": "uint256"
        }
      ],
      "stateMutability": "view",
      "type": "function"
    },
    {
      "inputs": [
        {
          "internalType": "address",
          "name": "market",
          "type": "address"
        },
        {
          "internalType": "uint256",
          "name": "longSize",
          "type": "uint256"
        },
        {
          "internalType": "uint256",
          "name": "shortSize",
          "type": "uint256"
        }
      ],
      "name": "getNextFundingRate",
      "outputs": [],
      "stateMutability": "nonpayable",
      "type": "function"
    },
    {
      "inputs": [
        {
          "internalType": "bytes32",
          "name": "role",
          "type": "bytes32"
        }
      ],
      "name": "getRoleAdmin",
      "outputs": [
        {
          "internalType": "bytes32",
          "name": "",
          "type": "bytes32"
        }
      ],
      "stateMutability": "view",
      "type": "function"
    },
    {
      "inputs": [],
      "name": "getSkipTime",
      "outputs": [
        {
          "internalType": "uint256",
          "name": "totalSkip",
          "type": "uint256"
        }
      ],
      "stateMutability": "view",
      "type": "function"
    },
    {
      "inputs": [
        {
          "internalType": "address",
          "name": "_account",
          "type": "address"
        }
      ],
      "name": "grantControllerRoleByMarketManager",
      "outputs": [],
      "stateMutability": "nonpayable",
      "type": "function"
    },
    {
      "inputs": [
        {
          "internalType": "bytes32",
          "name": "role",
          "type": "bytes32"
        },
        {
          "internalType": "address",
          "name": "account",
          "type": "address"
        }
      ],
      "name": "grantRole",
      "outputs": [],
      "stateMutability": "nonpayable",
      "type": "function"
    },
    {
      "inputs": [
        {
          "internalType": "bytes32",
          "name": "role",
          "type": "bytes32"
        },
        {
          "internalType": "address",
          "name": "account",
          "type": "address"
        }
      ],
      "name": "hasRole",
      "outputs": [
        {
          "internalType": "bool",
          "name": "",
          "type": "bool"
        }
      ],
      "stateMutability": "view",
      "type": "function"
    },
    {
      "inputs": [
        {
          "internalType": "address",
          "name": "_feeVault",
          "type": "address"
        }
      ],
      "name": "initialize",
      "outputs": [],
      "stateMutability": "nonpayable",
      "type": "function"
    },
    {
      "inputs": [
        {
          "internalType": "address",
          "name": "",
          "type": "address"
        },
        {
          "internalType": "bool",
          "name": "",
          "type": "bool"
        }
      ],
      "name": "lastCalRate",
      "outputs": [
        {
          "internalType": "uint256",
          "name": "",
          "type": "uint256"
        }
      ],
      "stateMutability": "view",
      "type": "function"
    },
    {
      "inputs": [
        {
          "internalType": "address",
          "name": "",
          "type": "address"
        }
      ],
      "name": "lastCalTimes",
      "outputs": [
        {
          "internalType": "uint256",
          "name": "",
          "type": "uint256"
        }
      ],
      "stateMutability": "view",
      "type": "function"
    },
    {
      "inputs": [],
      "name": "marketReader",
      "outputs": [
        {
          "internalType": "address",
          "name": "",
          "type": "address"
        }
      ],
      "stateMutability": "view",
      "type": "function"
    },
    {
      "inputs": [],
      "name": "maxFRate",
      "outputs": [
        {
          "internalType": "uint256",
          "name": "",
          "type": "uint256"
        }
      ],
      "stateMutability": "view",
      "type": "function"
    },
    {
      "inputs": [],
      "name": "maxFRatePerDay",
      "outputs": [
        {
          "internalType": "uint256",
          "name": "",
          "type": "uint256"
        }
      ],
      "stateMutability": "view",
      "type": "function"
    },
    {
      "inputs": [],
      "name": "minCFRate",
      "outputs": [
        {
          "internalType": "uint256",
          "name": "",
          "type": "uint256"
        }
      ],
      "stateMutability": "view",
      "type": "function"
    },
    {
      "inputs": [],
      "name": "minFRate",
      "outputs": [
        {
          "internalType": "uint256",
          "name": "",
          "type": "uint256"
        }
      ],
      "stateMutability": "view",
      "type": "function"
    },
    {
      "inputs": [],
      "name": "minFundingInterval",
      "outputs": [
        {
          "internalType": "uint256",
          "name": "",
          "type": "uint256"
        }
      ],
      "stateMutability": "view",
      "type": "function"
    },
    {
      "inputs": [],
      "name": "minRateLimit",
      "outputs": [
        {
          "internalType": "uint256",
          "name": "",
          "type": "uint256"
        }
      ],
      "stateMutability": "view",
      "type": "function"
    },
    {
      "inputs": [],
      "name": "minorityFRate",
      "outputs": [
        {
          "internalType": "uint256",
          "name": "",
          "type": "uint256"
        }
      ],
      "stateMutability": "view",
      "type": "function"
    },
    {
      "inputs": [],
      "name": "owner",
      "outputs": [
        {
          "internalType": "address",
          "name": "",
          "type": "address"
        }
      ],
      "stateMutability": "view",
      "type": "function"
    },
    {
      "inputs": [],
      "name": "renounceOwnership",
      "outputs": [],
      "stateMutability": "nonpayable",
      "type": "function"
    },
    {
      "inputs": [
        {
          "internalType": "bytes32",
          "name": "role",
          "type": "bytes32"
        },
        {
          "internalType": "address",
          "name": "account",
          "type": "address"
        }
      ],
      "name": "renounceRole",
      "outputs": [],
      "stateMutability": "nonpayable",
      "type": "function"
    },
    {
      "inputs": [
        {
          "internalType": "address",
          "name": "market",
          "type": "address"
        },
        {
          "internalType": "uint256",
          "name": "amount",
          "type": "uint256"
        }
      ],
      "name": "resetFeeLoss",
      "outputs": [],
      "stateMutability": "nonpayable",
      "type": "function"
    },
    {
      "inputs": [
        {
          "internalType": "bytes32",
          "name": "role",
          "type": "bytes32"
        },
        {
          "internalType": "address",
          "name": "account",
          "type": "address"
        }
      ],
      "name": "revokeRole",
      "outputs": [],
      "stateMutability": "nonpayable",
      "type": "function"
    },
    {
      "inputs": [
        {
          "internalType": "address[]",
          "name": "markets",
          "type": "address[]"
        },
        {
          "internalType": "uint256[]",
          "name": "intervals",
          "type": "uint256[]"
        }
      ],
      "name": "setCalInterval",
      "outputs": [],
      "stateMutability": "nonpayable",
      "type": "function"
    },
    {
      "inputs": [
        {
          "internalType": "uint256",
          "name": "_idx",
          "type": "uint256"
        },
        {
          "internalType": "uint256",
          "name": "_val",
          "type": "uint256"
        }
      ],
      "name": "setConfig",
      "outputs": [],
      "stateMutability": "nonpayable",
      "type": "function"
    },
    {
      "inputs": [
        {
          "internalType": "uint256[]",
          "name": "_newCfgs",
          "type": "uint256[]"
        }
      ],
      "name": "setConfigs",
      "outputs": [],
      "stateMutability": "nonpayable",
      "type": "function"
    },
    {
      "inputs": [
        {
          "internalType": "uint256",
          "name": "x",
          "type": "uint256"
        }
      ],
      "name": "setFRateFactor",
      "outputs": [],
      "stateMutability": "nonpayable",
      "type": "function"
    },
    {
      "inputs": [
        {
          "internalType": "uint256",
          "name": "limit",
          "type": "uint256"
        }
      ],
      "name": "setFundingFeeLossOffLimit",
      "outputs": [],
      "stateMutability": "nonpayable",
      "type": "function"
    },
    {
      "inputs": [
        {
          "internalType": "address[]",
          "name": "markets",
          "type": "address[]"
        },
        {
          "internalType": "uint256[]",
          "name": "intervals",
          "type": "uint256[]"
        }
      ],
      "name": "setFundingInterval",
      "outputs": [],
      "stateMutability": "nonpayable",
      "type": "function"
    },
    {
      "inputs": [
        {
          "internalType": "address[]",
          "name": "markets",
          "type": "address[]"
        },
        {
          "internalType": "uint256[]",
          "name": "intervals",
          "type": "uint256[]"
        }
      ],
      "name": "setFundingInterval_init",
      "outputs": [],
      "stateMutability": "nonpayable",
      "type": "function"
    },
    {
      "inputs": [
        {
          "internalType": "address",
          "name": "_marketReader",
          "type": "address"
        }
      ],
      "name": "setMarketReader",
      "outputs": [],
      "stateMutability": "nonpayable",
      "type": "function"
    },
    {
      "inputs": [
        {
          "internalType": "uint256",
          "name": "x",
          "type": "uint256"
        }
      ],
      "name": "setMaxFRate",
      "outputs": [],
      "stateMutability": "nonpayable",
      "type": "function"
    },
    {
      "inputs": [
        {
          "internalType": "uint256",
          "name": "x",
          "type": "uint256"
        }
      ],
      "name": "setMaxFRatePerDay",
      "outputs": [],
      "stateMutability": "nonpayable",
      "type": "function"
    },
    {
      "inputs": [
        {
          "internalType": "uint256",
          "name": "limit",
          "type": "uint256"
        }
      ],
      "name": "setMinCFRate",
      "outputs": [],
      "stateMutability": "nonpayable",
      "type": "function"
    },
    {
      "inputs": [
        {
          "internalType": "uint256",
          "name": "limit",
          "type": "uint256"
        }
      ],
      "name": "setMinFRate",
      "outputs": [],
      "stateMutability": "nonpayable",
      "type": "function"
    },
    {
      "inputs": [
        {
          "internalType": "uint256",
          "name": "x",
          "type": "uint256"
        }
      ],
      "name": "setMinFundingInterval",
      "outputs": [],
      "stateMutability": "nonpayable",
      "type": "function"
    },
    {
      "inputs": [
        {
          "internalType": "uint256",
          "name": "limit",
          "type": "uint256"
        }
      ],
      "name": "setMinRateLimit",
      "outputs": [],
      "stateMutability": "nonpayable",
      "type": "function"
    },
    {
      "inputs": [
        {
          "internalType": "uint256",
          "name": "limit",
          "type": "uint256"
        }
      ],
      "name": "setMinorityFRate",
      "outputs": [],
      "stateMutability": "nonpayable",
      "type": "function"
    },
    {
      "inputs": [
        {
          "internalType": "address",
          "name": "market",
          "type": "address"
        },
        {
          "internalType": "uint256",
          "name": "ts",
          "type": "uint256"
        }
      ],
      "name": "setTimeStamp",
      "outputs": [],
      "stateMutability": "nonpayable",
      "type": "function"
    },
    {
      "inputs": [
        {
          "internalType": "uint256[]",
          "name": "updatedAts",
          "type": "uint256[]"
        },
        {
          "internalType": "address[]",
          "name": "markets",
          "type": "address[]"
        }
      ],
      "name": "setUpdateAt",
      "outputs": [],
      "stateMutability": "nonpayable",
      "type": "function"
    },
    {
      "inputs": [
        {
          "internalType": "bytes4",
          "name": "interfaceId",
          "type": "bytes4"
        }
      ],
      "name": "supportsInterface",
      "outputs": [
        {
          "internalType": "bool",
          "name": "",
          "type": "bool"
        }
      ],
      "stateMutability": "view",
      "type": "function"
    },
    {
      "inputs": [
        {
          "internalType": "address",
          "name": "to",
          "type": "address"
        }
      ],
      "name": "transferAdmin",
      "outputs": [],
      "stateMutability": "nonpayable",
      "type": "function"
    },
    {
      "inputs": [
        {
          "internalType": "address",
          "name": "newOwner",
          "type": "address"
        }
      ],
      "name": "transferOwnership",
      "outputs": [],
      "stateMutability": "nonpayable",
      "type": "function"
    },
    {
      "inputs": [
        {
          "internalType": "address",
          "name": "market",
          "type": "address"
        },
        {
          "internalType": "uint256",
          "name": "longSize",
          "type": "uint256"
        },
        {
          "internalType": "uint256",
          "name": "shortSize",
          "type": "uint256"
        }
      ],
      "name": "updateCumulativeFundingRate",
      "outputs": [],
      "stateMutability": "nonpayable",
      "type": "function"
    },
    {
      "inputs": [
        {
          "internalType": "address",
          "name": "market",
          "type": "address"
        },
        {
          "internalType": "int256",
          "name": "cumLongRateDelta",
          "type": "int256"
        },
        {
          "internalType": "int256",
          "name": "cumShortRateDelta",
          "type": "int256"
        },
        {
          "internalType": "uint256",
          "name": "roundedTime",
          "type": "uint256"
        }
      ],
      "name": "updateGlobalCalRate",
      "outputs": [],
      "stateMutability": "nonpayable",
      "type": "function"
    },
    {
      "inputs": [
        {
          "internalType": "address",
          "name": "market",
          "type": "address"
        },
        {
          "internalType": "int256",
          "name": "longRate",
          "type": "int256"
        },
        {
          "internalType": "int256",
          "name": "shortRate",
          "type": "int256"
        },
        {
          "internalType": "int256",
          "name": "nextLongRate",
          "type": "int256"
        },
        {
          "internalType": "int256",
          "name": "nextShortRate",
          "type": "int256"
        },
        {
          "internalType": "uint256",
          "name": "timestamp",
          "type": "uint256"
        }
      ],
      "name": "updateGlobalFundingRate",
      "outputs": [],
      "stateMutability": "nonpayable",
      "type": "function"
    }
  ],
  "bytecode": "0x60806040523480156200001157600080fd5b506200001d3362000023565b62000075565b600180546001600160a01b038381166001600160a01b0319831681179093556040519116919082907f8be0079c531659141344cd1fd0a4f28419497f9722a3daafe3b4186f6b6457e090600090a35050565b61433980620000856000396000f3fe608060405234801561001057600080fd5b50600436106103c45760003560e01c806378c225ce116101ff578063b87497031161011a578063d4681d1a116100ad578063e25fefde1161007c578063e25fefde14610878578063e56fa59d14610759578063f2fde38b1461088b578063fc0fd3541461089e57600080fd5b8063d4681d1a1461081f578063d547741f1461083f578063d6f5066b14610852578063dc5ac9951461086557600080fd5b8063c418b11c116100e9578063c418b11c146107e6578063c4d66de8146107f9578063c6f83ad11461080c578063c831ba2a146104e557600080fd5b8063b8749703146107b0578063bac8d9e8146107c3578063bc3d3a8b146107cb578063bf63a0a0146107de57600080fd5b806391d14854116101925780639f36dde0116101615780639f36dde014610759578063a217fddf1461076c578063b21bf2d314610774578063b2b26b061461078757600080fd5b806391d148541461072357806395d608a2146107365780639ac5d5b21461073e5780639bed226a1461075157600080fd5b806389bff77f116101ce57806389bff77f146106ef5780638ac89fc2146106f75780638da5cb5b146106ff5780638f18af9a1461071057600080fd5b806378c225ce146106965780637fe4a698146106b6578063801341a6146106c95780638698a9bd146106dc57600080fd5b80634fd39bee116102ef5780636b0eba041161028257806374d57cef1161025157806374d57cef1461065557806375829def1461065d578063759997e81461067057806376239a671461068357600080fd5b80636b0eba041461061c5780636eb5e43c1461062f578063715018a61461064257806372d004cf1461064a57600080fd5b80635a7fdf16116102be5780635a7fdf16146105a05780635b7c1137146105b35780636094ee2b146105c65780636725684f146105f157600080fd5b80634fd39bee146105475780634fd5ce021461055a57806350d16a291461056d5780635645d8771461058057600080fd5b8063248a9ca31161036757806336568abe1161033657806336568abe146104ed5780633ae7f2de146105005780633d884a9b14610509578063478222c21461051c57600080fd5b8063248a9ca3146104a757806327d3fbf3146104ca5780632f2ff15d146104d257806331021f47146104e557600080fd5b80631131cf86116103a35780631131cf86146104275780631d36a50e1461042f5780631e34c5851461048157806320981df41461049457600080fd5b806298fa22146103c957806301ffc9a7146103ef578063054aaca114610412575b600080fd5b6103dc6103d736600461365b565b6108be565b6040519081526020015b60405180910390f35b6104026103fd366004613674565b6108df565b60405190151581526020016103e6565b6104256104203660046136b3565b610916565b005b6103dc610a42565b61046c61043d3660046136e8565b6001600160a01b0316600090815260096020908152604080832060018452909152808220548280529120549091565b604080519283526020830191909152016103e6565b61042561048f366004613705565b610a68565b6103dc6104a2366004613735565b610a8d565b6103dc6104b536600461365b565b60009081526020819052604090206001015490565b6103dc610b0e565b6104256104e036600461376e565b610b19565b6103dc610b43565b6104256104fb36600461376e565b610b4e565b6103dc600c5481565b610425610517366004613793565b610bc8565b60035461052f906001600160a01b031681565b6040516001600160a01b0390911681526020016103e6565b61042561055536600461365b565b610c34565b6104256105683660046137bf565b610c5a565b61042561057b36600461365b565b610c8c565b6103dc61058e3660046136e8565b60056020526000908152604090205481565b6104256105ae36600461365b565b610cad565b6104256105c13660046136e8565b610cce565b6103dc6105d4366004613735565b600960209081526000928352604080842090915290825290205481565b6103dc6105ff366004613735565b600b60209081526000928352604080842090915290825290205481565b61042561062a366004613793565b610d07565b61042561063d3660046139a5565b610d43565b610425610f47565b6103dc6305f5e10081565b6103dc610f5b565b61042561066b3660046136e8565b610f66565b61042561067e366004613a09565b610f90565b610425610691366004613a09565b6110a7565b6103dc6106a43660046136e8565b60086020526000908152604090205481565b6104256106c43660046136e8565b611442565b6104256106d736600461365b565b61146c565b6104256106ea366004613a63565b61148d565b6103dc6114f3565b6103dc6114fd565b6001546001600160a01b031661052f565b6103dc61071e366004613a98565b611508565b61040261073136600461376e565b611599565b6103dc6115c2565b61042561074c366004613a09565b6115cd565b6103dc611789565b61042561076736600461365b565b611794565b6103dc600081565b610425610782366004613ae2565b6117f5565b6103dc6107953660046136e8565b6001600160a01b03166000908152600a602052604090205490565b6104256107be36600461365b565b611869565b6103dc61188a565b6104256107d9366004613705565b611a2c565b6103dc611ab0565b60045461052f906001600160a01b031681565b6104256108073660046136e8565b611abb565b61042561081a3660046136b3565b611d14565b6103dc61082d3660046136e8565b60076020526000908152604090205481565b61042561084d36600461376e565b611d4b565b610425610860366004613793565b611d70565b61042561087336600461365b565b611e23565b61042561088636600461365b565b611e44565b6104256108993660046136e8565b611e65565b6103dc6108ac3660046136e8565b600a6020526000908152604090205481565b600681815481106108ce57600080fd5b600091825260209091200154905081565b60006001600160e01b03198216637965db0b60e01b148061091057506301ffc9a760e01b6001600160e01b03198316145b92915050565b600061092b848484610926611edb565b611f03565b509050600061094e85858585602001516109448a611f7f565b6109269190613b44565b915050600080826101a00151121561099b57610977826101a0015161097290613b57565b611fee565b6040516020016109879190613b97565b6040516020818303038152906040526109a9565b6109a9826101a00151611fee565b905060008083610180015112156109f0576109cc83610180015161097290613b57565b6040516020016109dc9190613b97565b6040516020818303038152906040526109fe565b6109fe836101800151611fee565b90508181604051602001610a13929190613bc0565b60408051601f198184030181529082905262461bcd60e51b8252610a3991600401613c10565b60405180910390fd5b60006006805b81548110610a5857610a58613c43565b9060005260206000200154905090565b610a7f6000805160206142e4833981519152612081565b610a89828261208b565b5050565b6003546040516001624c409d60e01b031981526001600160a01b0384811660048301528315156024830152600092169063ffb3bf6390604401602060405180830381865afa158015610ae3573d6000803e3d6000fd5b505050506040513d601f19601f82011682018060405250810190610b079190613c59565b9392505050565b600060066007610a48565b600082815260208190526040902060010154610b3481612081565b610b3e8383612115565b505050565b600060066004610a48565b6001600160a01b0381163314610bbe5760405162461bcd60e51b815260206004820152602f60248201527f416363657373436f6e74726f6c3a2063616e206f6e6c792072656e6f756e636560448201526e103937b632b9903337b91039b2b63360891b6064820152608401610a39565b610a898282612199565b7322b147a9e4e513d39775504eb7db3d674d53d5dd3314610be857600080fd5b600c819055604080516001600160a01b0384168152602081018390527f7a49cad95adb5b1379825d171f94f4c78225f55642294b3b979db608f187b32991015b60405180910390a15050565b610c4b6000805160206142e4833981519152612081565b610c5760035b8261208b565b50565b7322b147a9e4e513d39775504eb7db3d674d53d5dd3314610c7a57600080fd5b610c86848484846121fe565b50505050565b610ca36000805160206142e4833981519152612081565b610c576001610c51565b610cc46000805160206142e4833981519152612081565b610c576008610c51565b610ce56000805160206142e4833981519152612081565b600480546001600160a01b0319166001600160a01b0392909216919091179055565b7322b147a9e4e513d39775504eb7db3d674d53d5dd3314610d2757600080fd5b6001600160a01b039091166000908152600a6020526040902055565b610d5a6000805160206142e4833981519152612081565b8051825114610d9d5760405162461bcd60e51b815260206004820152600f60248201526e0dad2e6dac2e8c6d040d8cadccee8d608b1b6044820152606401610a39565b60005b8151811015610b3e57828181518110610dbb57610dbb613c43565b602002602001015160086000848481518110610dd957610dd9613c43565b60200260200101516001600160a01b03166001600160a01b0316815260200190815260200160002081905550600360009054906101000a90046001600160a01b03166001600160a01b031663b21bf2d3838381518110610e3b57610e3b613c43565b6020026020010151600080600080898881518110610e5b57610e5b613c43565b60200260200101516040518763ffffffff1660e01b8152600401610e8496959493929190613c72565b600060405180830381600087803b158015610e9e57600080fd5b505af1158015610eb2573d6000803e3d6000fd5b505050507f4d67f7d80a18414610613bcd82c005df45389ac7808cbd04b6ea464d60a3eb12828281518110610ee957610ee9613c43565b6020026020010151848381518110610f0357610f03613c43565b6020026020010151604051610f2d9291906001600160a01b03929092168252602082015260400190565b60405180910390a180610f3f81613ca5565b915050610da0565b610f4f6122bb565b610f596000612315565b565b600060066003610a48565b6000610f7181612081565b610f7c600083612367565b610f8582612315565b610a89600033612199565b610fa76000805160206142e4833981519152612081565b60005b8251811015610b3e576000610fbd610a42565b610fc5610a42565b848481518110610fd757610fd7613c43565b6020026020010151610fe99190613cd4565b610ff39190613ce8565b9050806005600086858151811061100c5761100c613c43565b60200260200101516001600160a01b03166001600160a01b031681526020019081526020016000208190555083828151811061104a5761104a613c43565b60200260200101516001600160a01b03167f014f9b627a46d0881111664e681522272907a49b31cc3f24613bdad2c551825c8260405161108c91815260200190565b60405180910390a2508061109f81613ca5565b915050610faa565b6110be6000805160206142e4833981519152612081565b80518251146111005760405162461bcd60e51b815260206004820152600e60248201526d696e76616c696420706172616d7360901b6044820152606401610a39565b60008061110b611edb565b905060005b845181101561143b5760006001600160a01b031685828151811061113657611136613c43565b60200260200101516001600160a01b03160361115157600080fd5b611159610a42565b84828151811061116b5761116b613c43565b6020026020010151101561117e57600080fd5b611186610a42565b61118e610a42565b8583815181106111a0576111a0613c43565b60200260200101516111b29190613cd4565b6111bc9190613ce8565b925082610e1014806111cf575082611c20145b806111db575082613840145b806111e7575082617080145b156113d15760006111fa61708084613cd4565b61120690617080613ce8565b6112109084613cff565b905060006005600088858151811061122a5761122a613c43565b60200260200101516001600160a01b03166001600160a01b0316815260200190815260200160002054905060008582116112645781611266565b855b90508083106112be5761129a88858151811061128457611284613c43565b60200260200101516001600160a01b0316612371565b6112a387611fee565b6112ac83611fee565b604051602001610a1393929190613d12565b8784815181106112d0576112d0613c43565b60200260200101516001600160a01b0316633f70d4426040518163ffffffff1660e01b8152600401600060405180830381600087803b15801561131257600080fd5b505af1158015611326573d6000803e3d6000fd5b5050505085600560008a878151811061134157611341613c43565b60200260200101516001600160a01b03166001600160a01b031681526020019081526020016000208190555087848151811061137f5761137f613c43565b60200260200101516001600160a01b03167f014f9b627a46d0881111664e681522272907a49b31cc3f24613bdad2c551825c876040516113c191815260200190565b60405180910390a2505050611429565b60405162461bcd60e51b815260206004820152602760248201527f696e74657276616c2063616e206265206f6e6c79205b312c20322c20342c20386044820152665d20686f75727360c81b6064820152608401610a39565b8061143381613ca5565b915050611110565b5050505050565b7f8d1089725c0dc266707fa6207730fb801dcd03108bfed7a21099bd303651d2b76103c481612081565b6114836000805160206142e4833981519152612081565b610c576009610c51565b6114a46000805160206142e4833981519152612081565b600a8151146114b257600080fd5b60005b8151811015610a89576114e1818383815181106114d4576114d4613c43565b602002602001015161208b565b806114eb81613ca5565b9150506114b5565b6000600681610a48565b600060066001610a48565b6003546040516334f32e2560e01b81526001600160a01b038681166004830152831515602483015260009283929116906334f32e2590604401602060405180830381865afa15801561155e573d6000803e3d6000fd5b505050506040513d601f19601f820116820180604052508101906115829190613c59565b905061158f858583612387565b9695505050505050565b6000918252602082815260408084206001600160a01b0393909316845291905290205460ff1690565b600060066002610a48565b6115e46000805160206142e4833981519152612081565b80518251146116265760405162461bcd60e51b815260206004820152600e60248201526d696e76616c696420706172616d7360901b6044820152606401610a39565b6000805b8351811015610c865760006001600160a01b031684828151811061165057611650613c43565b60200260200101516001600160a01b03160361166b57600080fd5b611673610a42565b83828151811061168557611685613c43565b6020026020010151101561169857600080fd5b6116a0610a42565b6116a8610a42565b8483815181106116ba576116ba613c43565b60200260200101516116cc9190613cd4565b6116d69190613ce8565b915081600760008684815181106116ef576116ef613c43565b60200260200101516001600160a01b03166001600160a01b031681526020019081526020016000208190555083818151811061172d5761172d613c43565b60200260200101516001600160a01b03167f1b8e6b844a5201ce0d37b6d92b871ff8ee5aede9e47593abc68ce8b2d1d25b888360405161176f91815260200190565b60405180910390a28061178181613ca5565b91505061162a565b600060066008610a48565b6117ab6000805160206142e4833981519152612081565b600081116117eb5760405162461bcd60e51b815260206004820152600d60248201526c1a5b9d985b1a59081b1a5b5a5d609a1b6044820152606401610a39565b610c576004610c51565b60035460405163b21bf2d360e01b81526001600160a01b039091169063b21bf2d39061182f90899089908990899089908990600401613c72565b600060405180830381600087803b15801561184957600080fd5b505af115801561185d573d6000803e3d6000fd5b50505050505050505050565b6118806000805160206142e4833981519152612081565b610c576002610c51565b6004805460408051637616480b60e11b815290516000936001600160a01b03909316928492849263ec2c90169282810192869291908290030181865afa1580156118d8573d6000803e3d6000fd5b505050506040513d6000823e601f3d908101601f191682016040526119009190810190613df3565b905060005b8151811015611a2657826001600160a01b031663d37c441c6040518163ffffffff1660e01b8152600401602060405180830381865afa15801561194c573d6000803e3d6000fd5b505050506040513d601f19601f820116820180604052508101906119709190613f68565b6001600160a01b0316632b8a001283838151811061199057611990613c43565b6020026020010151602001516040518263ffffffff1660e01b81526004016119c791906001600160a01b0391909116815260200190565b602060405180830381865afa1580156119e4573d6000803e3d6000fd5b505050506040513d601f19601f82011682018060405250810190611a089190613c59565b611a129085613b44565b935080611a1e81613ca5565b915050611905565b50505090565b611a436000805160206142e4833981519152612081565b611a4d8282613cff565b6006600081548110611a6157611a61613c43565b906000526020600020016000828254611a7a9190613b44565b9091555050604051819083907fbb67e50fdd1f174a20c4f1e0e5b9ab3984685f30623b89b69ba068a11ce913b690600090a35050565b600060066009610a48565b600154600160a81b900460ff1615808015611ae1575060018054600160a01b900460ff16105b80611b015750303b158015611b01575060018054600160a01b900460ff16145b611b645760405162461bcd60e51b815260206004820152602e60248201527f496e697469616c697a61626c653a20636f6e747261637420697320616c72656160448201526d191e481a5b9a5d1a585b1a5e995960921b6064820152608401610a39565b6001805460ff60a01b1916600160a01b1790558015611b91576001805460ff60a81b1916600160a81b1790555b6001600160a01b038216611bda5760405162461bcd60e51b815260206004820152601060248201526f1a5b9d985b1a590819995955985d5b1d60821b6044820152606401610a39565b611be3336123b4565b6040805160c8808252611920820190925290602082016119008036833750508151611c15926006925060200190613544565b506305f5e1006006600181548110611c2f57611c2f613c43565b6000918252602090912001556305f5e1006006600281548110611c5457611c54613c43565b6000918252602090912001556104e26006600481548110611c7757611c77613c43565b600091825260209091200155600380546001600160a01b0319166001600160a01b038416179055611cb66000805160206142e483398151915233612115565b611cc36006610e1061208b565b611cd160096298968061208b565b8015610a89576001805460ff60a81b191681556040519081527f7f26b83ff96e1f2b6a682f133852f6798a09c465da95921460cefb384740249890602001610c28565b611d3d7fcb58d6d985142a614029cdf01861b4fe094d5919a47e69b8310dc4093d9d6ad0612081565b61143b838383610926611edb565b600082815260208190526040902060010154611d6681612081565b610b3e8383612199565b611d997fcb58d6d985142a614029cdf01861b4fe094d5919a47e69b8310dc4093d9d6ad0612081565b6001600160a01b0382166000908152600a60205260408120805491839190611dc18385613b44565b90915550506001600160a01b0383166000818152600a60209081526040918290205482518681529182018590528183015290517ff92e4260a5a0861b750596d87de06d7f097df50397fa2af2d7d33d9c6d8674589181900360600190a2505050565b611e3a6000805160206142e4833981519152612081565b610c576007610c51565b611e5b6000805160206142e4833981519152612081565b610c576006610c51565b611e6d6122bb565b6001600160a01b038116611ed25760405162461bcd60e51b815260206004820152602660248201527f4f776e61626c653a206e6577206f776e657220697320746865207a65726f206160448201526564647265737360d01b6064820152608401610a39565b610c5781612315565b6000600c5460001480611ef257506307c3d6fe4310155b15611efc57504290565b50600c5490565b611f0b61358b565b611f136135d7565b611f1e8686866123d7565b9150600080600080611f4289898989611f35611789565b611f3d611ab0565b61251d565b93509350935093508015611f5b57611f5b83838c6127d1565b608084015115611f7057611f7086858c612887565b50919250505094509492505050565b60035460405163d8f897c360e01b81526001600160a01b038381166004830152600092169063d8f897c390602401602060405180830381865afa158015611fca573d6000803e3d6000fd5b505050506040513d601f19601f820116820180604052508101906109109190613c59565b60606000611ffb8361291c565b600101905060008167ffffffffffffffff81111561201b5761201b6137fa565b6040519080825280601f01601f191660200182016040528015612045576020820181803683370190505b5090508181016020015b600019016f181899199a1a9b1b9c1cb0b131b232b360811b600a86061a8153600a850494508461204f57509392505050565b610c5781336129f4565b6000600683815481106120a0576120a0613c43565b9060005260206000200154905081600684815481106120c1576120c1613c43565b600091825260209182902001919091556040805185815291820183905281018390527f7ee20b53ffb80d74dc08be0adedf33c8fa93e5b44eb347a27eedd30c3d6bc35c9060600160405180910390a1505050565b61211f8282611599565b610a89576000828152602081815260408083206001600160a01b03851684529091529020805460ff191660011790556121553390565b6001600160a01b0316816001600160a01b0316837f2f8788117e7eff1d82e926ec794901d17c78024a50270940304540a733656f0d60405160405180910390a45050565b6121a38282611599565b15610a89576000828152602081815260408083206001600160a01b0385168085529252808320805460ff1916905551339285917ff6391f5c32d9c69d2a47ea670b442974b53935d1edc7fd64eb21e047a839171b9190a45050565b6001600160a01b0384166000818152600960209081526040808320600184528252808320879055828052808320869055838352600882529182902084905581518681529081018590527f18c1e75c2355914e05f0e3d65be88099e2489e17f7a307d0adc3a22239b4667f910160405180910390a2836001600160a01b03167f5e6f1d9aee6db6f0c00c16081ad195c05424762f100ab07c4fdbe9fde1d42a6c826040516122ad91815260200190565b60405180910390a250505050565b6001546001600160a01b03163314610f595760405162461bcd60e51b815260206004820181905260248201527f4f776e61626c653a2063616c6c6572206973206e6f7420746865206f776e65726044820152606401610a39565b600180546001600160a01b038381166001600160a01b0319831681179093556040519116919082907f8be0079c531659141344cd1fd0a4f28419497f9722a3daafe3b4186f6b6457e090600090a35050565b610a898282612115565b60606109106001600160a01b0383166014612a27565b60006305f5e1006123988484613f85565b6123a29086613fac565b6123ac9190613fdc565b949350505050565b426002556123c133612315565b6123cc600033612367565b610c57600082612367565b6123df61358b565b6001600160a01b038416600081815260076020908152604080832054855283835260058252808320548583015292825260089052819020549082015261242484611f7f565b606082018190526040820151101561244157606081015160408201525b6001600160a01b0384166000818152600a602090815260408083205461010086015292825260098152828220600183528082528383205460e08601528280529052205460c08201526006805461250c91859185919060039081106124a7576124a7613c43565b6000918252602090912001546006805460049081106124c8576124c8613c43565b90600052602060002001546124dc89612bc3565b6124e78a8a8a612cc4565b6006805460079081106124fc576124fc613c43565b9060005260206000200154612ce1565b608083015260a08201529392505050565b6125256135d7565b61252d61358b565b6125356135d7565b600061254087612d2e565b935061254d87858a612d79565b905080156127315761255f8785612de0565b1561257b5761256e8785612e14565b61257b848b8b8989612ea7565b612586878986612f4e565b156125c5576125958785612f81565b60005b84606001518110156125c3576125b1858c8c8a8a612ea7565b806125bb81613ca5565b915050612598565b505b836040516020016126679190815181526020808301519082015260408083015190820152606080830151908201526080808301519082015260a0808301519082015260c0808301519082015260e08083015190820152610100808301519082015261012080830151908201526101408083015190820152610160808301519082015261018080830151908201526101a091820151918101919091526101c00190565b604051602081830303815290604052806020019051810190612689919061400a565b9150866040516020016126fc9190600061012082019050825182526020830151602083015260408301516040830152606083015160608301526080830151608083015260a083015160a083015260c083015160c083015260e083015160e083015261010080840151818401525092915050565b60405160208183030381529060405280602001905181019061271e91906140c1565b6000610120860181905261010086015292505b61273c878986612fdd565b156127c457608084015187516127529190613ce8565b8460a0018181516127639190613b44565b905250608084015160a08801516127829161277d91613ce8565b613020565b8461012001818151612794919061413c565b905250608080850151908801516127ae9161277d91613ce8565b84610100018181516127c0919061413c565b9052505b9650965096509692505050565b6127f18183600001518561010001516127ea9190613cff565b845161308e565b6003546101408301516101608401516101a085015161018086015160a087015160405163b21bf2d360e01b81526001600160a01b039096169563b21bf2d395612847958995919490939192909190600401613c72565b600060405180830381600087803b15801561286157600080fd5b505af1158015612875573d6000803e3d6000fd5b50505050610b3e818360a00151613107565b60a0830180516001600160a01b0383166000818152600b6020908152604080832060018452825280832094909455608088018051838052928590209290925593519051835191825293810193909352917f8bfe8b5c73740b3875e694ce9425829dc01970e61b7edbe2b3c2d379328bab72910160405180910390a2610b3e818361012001518461010001518560a001516121fe565b60008072184f03e93ff9f4daa797ed6e38ed64bf6a1f0160401b831061295b5772184f03e93ff9f4daa797ed6e38ed64bf6a1f0160401b830492506040015b6d04ee2d6d415b85acef81000000008310612987576d04ee2d6d415b85acef8100000000830492506020015b662386f26fc1000083106129a557662386f26fc10000830492506010015b6305f5e10083106129bd576305f5e100830492506008015b61271083106129d157612710830492506004015b606483106129e3576064830492506002015b600a83106109105760010192915050565b6129fe8282611599565b610a8957612a0b81612371565b612a16836020612a27565b604051602001610a13929190614164565b60606000612a36836002613ce8565b612a41906002613b44565b67ffffffffffffffff811115612a5957612a596137fa565b6040519080825280601f01601f191660200182016040528015612a83576020820181803683370190505b509050600360fc1b81600081518110612a9e57612a9e613c43565b60200101906001600160f81b031916908160001a905350600f60fb1b81600181518110612acd57612acd613c43565b60200101906001600160f81b031916908160001a9053506000612af1846002613ce8565b612afc906001613b44565b90505b6001811115612b74576f181899199a1a9b1b9c1cb0b131b232b360811b85600f1660108110612b3057612b30613c43565b1a60f81b828281518110612b4657612b46613c43565b60200101906001600160f81b031916908160001a90535060049490941c93612b6d816141d9565b9050612aff565b508315610b075760405162461bcd60e51b815260206004820181905260248201527f537472696e67733a20686578206c656e67746820696e73756666696369656e746044820152606401610a39565b6004546000906001600160a01b031681612bdb61188a565b90506000826001600160a01b031663d37c441c6040518163ffffffff1660e01b8152600401602060405180830381865afa158015612c1d573d6000803e3d6000fd5b505050506040513d601f19601f82011682018060405250810190612c419190613f68565b6001600160a01b0316636dc7b0a16040518163ffffffff1660e01b8152600401602060405180830381865afa158015612c7e573d6000803e3d6000fd5b505050506040513d601f19601f82011682018060405250810190612ca29190613c59565b90506000612caf866131c2565b905061158f8383612cbe6114fd565b846131cf565b60006123ac8383612cd4876131c2565b612cdc6115c2565b613225565b6000808615612cf05786612cf2565b845b965086841115612d00578693505b85841015612d0c578593505b87891015612d1b578284612d1e565b83835b9150915097509795505050505050565b612d366135d7565b81516020830151612d479190613cd4565b602082015260e082015161012082015260c082015161010080830191909152604083015160a083015290910151815290565b60008260a00151600003612dad576020840151612d968184613cd4565b612da09190613ce8565b60a0840152506001610b07565b8260a00151821015612dc157506000610b07565b8184602001518560600151612dd69190613b44565b1115949350505050565b81516060830151604084015160009291612df991613cff565b612e039190613cd4565b604083018190521515905092915050565b81602001518260600151612e289190613b44565b60a082015260408101516020820151612e5391612e4491613cff565b8360a0015161277d9190613ce8565b8260e00151612e62919061413c565b61012082015260408101516020820151612e8e91612e7f91613cff565b836080015161277d9190613ce8565b8260c00151612e9d919061413c565b6101009091015250565b6000612ebe866101200151876101000151856132d6565b9050612edd86610120015187610100015183858a600001518a8a6132f6565b60c089015261016088015261014087018190526101a087018051612f0290839061413c565b90525061016086015161018087018051612f1d90839061413c565b90525060c0860151865111612f33576000612f44565b60c08601518651612f449190613cff565b9095525050505050565b600083602001518260a0015184612f659190613cff565b612f6f9190613cd4565b60608301819052151590509392505050565b80606001518260200151612f959190613ce8565b8160a001818151612fa69190613b44565b905250602081015160a0830151612fc09161277d91613ce8565b61012082015260208101516080830151612e9d9161277d91613ce8565b60008160a00151831015612ff357506000610b07565b835160a08301516130049085613cff565b61300e9190613cd4565b60808301819052151590509392505050565b60006001600160ff1b0382111561308a5760405162461bcd60e51b815260206004820152602860248201527f53616665436173743a2076616c756520646f65736e27742066697420696e2061604482015267371034b73a191a9b60c11b6064820152608401610a39565b5090565b6001600160a01b0383166000818152600a6020908152604091829020548251868152918201529081018390527f46688c57894e3513fd67b19c1f09ffe6b4a24062d8d29e580ba554fe4384c0e09060600160405180910390a26001600160a01b039092166000908152600a602052604090209190915550565b6001600160a01b0382166000818152600960209081526040808320600184528252808320839055828052808320839055838352600882528083208590558051838152918201929092527f18c1e75c2355914e05f0e3d65be88099e2489e17f7a307d0adc3a22239b4667f910160405180910390a2816001600160a01b03167f5e6f1d9aee6db6f0c00c16081ad195c05424762f100ab07c4fdbe9fde1d42a6c826040516131b691815260200190565b60405180910390a25050565b6000610910826007613420565b600080610e106305f5e10060188782886131e9898d613ce8565b6131f39190613ce8565b6131fd9190613ce8565b6132079190613cd4565b6132119190613cd4565b61321b9190613cd4565b61158f9190613cd4565b600080613232868661344a565b90506000811561158f5760006132488789613b44565b9050806132596305f5e10085613ce8565b6132639190613cd4565b9150610e10601860646305f5e1008961327d6002886142d4565b6132879190613ce8565b6132919190613cd4565b61329b9190613cd4565b6132a59190613cd4565b6132af9190613cd4565b91506305f5e1006132c08684613ce8565b6132ca9190613cd4565b98975050505050505050565b60006132ea6132e5858561346e565b61348b565b90506123ac81836134dd565b60008060008060008611801561330c5750600085115b9050898b1261339657613321868a8a8a6134f3565b915061332c89613020565b935080156133915761333d85613020565b61334a6305f5e100613020565b61335384613020565b61335d9190613fac565b8561336789613020565b6133719190613fac565b61337b9190613f85565b61338490613b57565b61338e9190613fdc565b92505b613412565b6133a2858a8a8a6134f3565b91506133ad89613020565b92508015613412576133be86613020565b6133cb6305f5e100613020565b6133d484613020565b6133de9190613fac565b846133e888613020565b6133f29190613fac565b6133fc9190613f85565b61340590613b57565b61340f9190613fdc565b93505b509750975097945050505050565b6001600160a01b038216600090815260208290526040812054908190036109105750610e10610910565b60008183106134645761345d8284613cff565b9050610910565b61345d8383613cff565b60008183126134815761345d8284613f85565b61345d8383613f85565b60008082121561308a5760405162461bcd60e51b815260206004820181905260248201527f53616665436173743a2076616c7565206d75737420626520706f7369746976656044820152606401610a39565b60008183116134ec5781610b07565b5090919050565b600061352c61350760026305f5e1006142d4565b846135128789613ce8565b61351c9190613ce8565b6135269190613cd4565b83613535565b95945050505050565b60008183106134ec5781610b07565b82805482825590600052602060002090810192821561357f579160200282015b8281111561357f578251825591602001919060010190613564565b5061308a929150613646565b6040518061012001604052806000815260200160008152602001600081526020016000815260200160008152602001600081526020016000815260200160008152602001600081525090565b604051806101c0016040528060008152602001600081526020016000815260200160008152602001600081526020016000815260200160008152602001600081526020016000815260200160008152602001600081526020016000815260200160008152602001600081525090565b5b8082111561308a5760008155600101613647565b60006020828403121561366d57600080fd5b5035919050565b60006020828403121561368657600080fd5b81356001600160e01b031981168114610b0757600080fd5b6001600160a01b0381168114610c5757600080fd5b6000806000606084860312156136c857600080fd5b83356136d38161369e565b95602085013595506040909401359392505050565b6000602082840312156136fa57600080fd5b8135610b078161369e565b6000806040838503121561371857600080fd5b50508035926020909101359150565b8015158114610c5757600080fd5b6000806040838503121561374857600080fd5b82356137538161369e565b9150602083013561376381613727565b809150509250929050565b6000806040838503121561378157600080fd5b8235915060208301356137638161369e565b600080604083850312156137a657600080fd5b82356137b18161369e565b946020939093013593505050565b600080600080608085870312156137d557600080fd5b84356137e08161369e565b966020860135965060408601359560600135945092505050565b634e487b7160e01b600052604160045260246000fd5b60405160a0810167ffffffffffffffff81118282101715613833576138336137fa565b60405290565b6040516101c0810167ffffffffffffffff81118282101715613833576138336137fa565b604051610120810167ffffffffffffffff81118282101715613833576138336137fa565b604051601f8201601f1916810167ffffffffffffffff811182821017156138aa576138aa6137fa565b604052919050565b600067ffffffffffffffff8211156138cc576138cc6137fa565b5060051b60200190565b600082601f8301126138e757600080fd5b813560206138fc6138f7836138b2565b613881565b82815260059290921b8401810191818101908684111561391b57600080fd5b8286015b84811015613936578035835291830191830161391f565b509695505050505050565b600082601f83011261395257600080fd5b813560206139626138f7836138b2565b82815260059290921b8401810191818101908684111561398157600080fd5b8286015b848110156139365780356139988161369e565b8352918301918301613985565b600080604083850312156139b857600080fd5b823567ffffffffffffffff808211156139d057600080fd5b6139dc868387016138d6565b935060208501359150808211156139f257600080fd5b506139ff85828601613941565b9150509250929050565b60008060408385031215613a1c57600080fd5b823567ffffffffffffffff80821115613a3457600080fd5b613a4086838701613941565b93506020850135915080821115613a5657600080fd5b506139ff858286016138d6565b600060208284031215613a7557600080fd5b813567ffffffffffffffff811115613a8c57600080fd5b6123ac848285016138d6565b60008060008060808587031215613aae57600080fd5b8435613ab98161369e565b935060208501359250604085013591506060850135613ad781613727565b939692955090935050565b60008060008060008060c08789031215613afb57600080fd5b8635613b068161369e565b9860208801359850604088013597606081013597506080810135965060a00135945092505050565b634e487b7160e01b600052601160045260246000fd5b8082018082111561091057610910613b2e565b6000600160ff1b8201613b6c57613b6c613b2e565b5060000390565b60005b83811015613b8e578181015183820152602001613b76565b50506000910152565b602d60f81b815260008251613bb3816001850160208701613b73565b9190910160010192915050565b600061232360f01b8083528451613bde816002860160208901613b73565b80840190508160028201528451613bfc816004840160208901613b73565b016004810191909152600601949350505050565b6020815260008251806020840152613c2f816040850160208701613b73565b601f01601f19169190910160400192915050565b634e487b7160e01b600052603260045260246000fd5b600060208284031215613c6b57600080fd5b5051919050565b6001600160a01b03969096168652602086019490945260408501929092526060840152608083015260a082015260c00190565b600060018201613cb757613cb7613b2e565b5060010190565b634e487b7160e01b600052601260045260246000fd5b600082613ce357613ce3613cbe565b500490565b808202811582820484141761091057610910613b2e565b8181038181111561091057610910613b2e565b60008451613d24818460208901613b73565b7f277320696e74657276616c2063616e2062652073657420746f200000000000009083019081528451613d5e81601a840160208901613b73565b7f2c20627574206f6e6c79206166746572205b382c2031362c2032345d206f2763601a92909101918201526f03637b1b59030b7321034b7103a3432960851b603a8201528351613db581604a840160208801613b73565b68207365636f6e64732160b81b604a929091019182015260530195945050505050565b8051613de38161369e565b919050565b8051613de381613727565b60006020808385031215613e0657600080fd5b825167ffffffffffffffff80821115613e1e57600080fd5b818501915085601f830112613e3257600080fd5b8151613e406138f7826138b2565b81815260059190911b83018401908481019088831115613e5f57600080fd5b8585015b83811015613f5b57805185811115613e7a57600080fd5b8601601f1960a0828d0382011215613e925760008081fd5b613e9a613810565b8983015188811115613eac5760008081fd5b8301603f81018e13613ebe5760008081fd5b8a81015160408a821115613ed457613ed46137fa565b613ee48d86601f85011601613881565b94508185528f81838501011115613efb5760008081fd5b613f0a828e8701838601613b73565b848452613f18818701613dd8565b8d8501526060945084860151818501525050506080613f38818501613de8565b83830152613f4860a08501613de8565b9082015285525050918601918601613e63565b5098975050505050505050565b600060208284031215613f7a57600080fd5b8151610b078161369e565b8181036000831280158383131683831282161715613fa557613fa5613b2e565b5092915050565b80820260008212600160ff1b84141615613fc857613fc8613b2e565b818105831482151761091057610910613b2e565b600082613feb57613feb613cbe565b600160ff1b82146000198414161561400557614005613b2e565b500590565b60006101c0828403121561401d57600080fd5b614025613839565b825181526020830151602082015260408301516040820152606083015160608201526080830151608082015260a083015160a082015260c083015160c082015260e083015160e08201526101008084015181830152506101208084015181830152506101408084015181830152506101608084015181830152506101808084015181830152506101a08084015181830152508091505092915050565b600061012082840312156140d457600080fd5b6140dc61385d565b825181526020830151602082015260408301516040820152606083015160608201526080830151608082015260a083015160a082015260c083015160c082015260e083015160e08201526101008084015181830152508091505092915050565b808201828112600083128015821682158216171561415c5761415c613b2e565b505092915050565b7f416363657373436f6e74726f6c3a206163636f756e742000000000000000000081526000835161419c816017850160208801613b73565b7001034b99036b4b9b9b4b733903937b6329607d1b60179184019182015283516141cd816028840160208801613b73565b01602801949350505050565b6000816141e8576141e8613b2e565b506000190190565b600181815b8085111561422b57816000190482111561421157614211613b2e565b8085161561421e57918102915b93841c93908002906141f5565b509250929050565b60008261424257506001610910565b8161424f57506000610910565b8160018114614265576002811461426f5761428b565b6001915050610910565b60ff84111561428057614280613b2e565b50506001821b610910565b5060208310610133831016604e8410600b84101617156142ae575081810a610910565b6142b883836141f0565b80600019048211156142cc576142cc613b2e565b029392505050565b6000610b0760ff84168361423356fe241ecf16d79d0f8dbfb92cbc07fe17840425976cf0667f022fe9877caa831b08a264697066735822122036ebc5a92e5a2ff653e65842d1e6b92611eb5516aef18bbbb985182110bedaef64736f6c63430008110033",
  "linkReferences": {},
  "deployedLinkReferences": {}
}