{
  "_format": "hh-sol-artifact-1",
  "contractName": "AutoLiq",
  "sourceName": "contracts/am/AutoLiq.sol",
  "abi": [
    {
      "inputs": [
        {
          "internalType": "bytes",
          "name": "checkData",
          "type": "bytes"
        }
      ],
      "name": "checkUpkeep",
      "outputs": [
        {
          "internalType": "bool",
          "name": "upkeepNeeded",
          "type": "bool"
        },
        {
          "internalType": "bytes",
          "name": "performData",
          "type": "bytes"
        }
      ],
      "stateMutability": "view",
      "type": "function"
    },
    {
      "inputs": [
        {
          "internalType": "bytes",
          "name": "performData",
          "type": "bytes"
        }
      ],
      "name": "performUpkeep",
      "outputs": [],
      "stateMutability": "nonpayable",
      "type": "function"
    }
  ],
  "bytecode": "0x608060405234801561001057600080fd5b50610b96806100206000396000f3fe608060405234801561001057600080fd5b50600436106100365760003560e01c80634585e33b1461003b5780636e04ff0d14610050575b600080fd5b61004e6100493660046107e1565b61007a565b005b61006361005e3660046107e1565b610172565b604051610071929190610876565b60405180910390f35b600080600083806020019051810190610093919061096f565b925092509250600082511115610104576040516212ec5d60e81b81526001600160a01b038416906312ec5d00906100d1908590600190600401610a2a565b600060405180830381600087803b1580156100eb57600080fd5b505af11580156100ff573d6000803e3d6000fd5b505050505b80511561016c576040516212ec5d60e81b81526001600160a01b038416906312ec5d0090610139908490600090600401610a2a565b600060405180830381600087803b15801561015357600080fd5b505af1158015610167573d6000803e3d6000fd5b505050505b50505050565b6000606060008380602001905181019061018c9190610a4e565b9050600061019b8260016101ff565b905060006101aa8360006101ff565b9050805182516101ba9190610a88565b6000036101cd5760009450505050915091565b60018383836040516020016101e493929190610a9b565b60405160208183030381529060405294509450505050915091565b60606000836001600160a01b031663ac0b05a66040518163ffffffff1660e01b8152600401602060405180830381865afa158015610241573d6000803e3d6000fd5b505050506040513d601f19601f820116820180604052508101906102659190610a4e565b604051638dd3fde360e01b81526000600482015261270f602482015284151560448201526001600160a01b039190911690638dd3fde390606401600060405180830381865afa1580156102bc573d6000803e3d6000fd5b505050506040513d6000823e601f3d908101601f191682016040526102e49190810190610adb565b90506000815167ffffffffffffffff8111156103025761030261079a565b60405190808252806020026020018201604052801561032b578160200160208202803683370190505b5090506000805b835181101561059c576000876001600160a01b031663b894300d6040518163ffffffff1660e01b8152600401602060405180830381865afa15801561037b573d6000803e3d6000fd5b505050506040513d601f19601f8201168201806040525081019061039f9190610a4e565b6001600160a01b0316631f21756a8684815181106103bf576103bf610b18565b60200260200101518a8a8c6001600160a01b031663ac0b05a66040518163ffffffff1660e01b8152600401602060405180830381865afa158015610407573d6000803e3d6000fd5b505050506040513d601f19601f8201168201806040525081019061042b9190610a4e565b8d6001600160a01b031663f29ebf616040518163ffffffff1660e01b8152600401602060405180830381865afa158015610469573d6000803e3d6000fd5b505050506040513d601f19601f8201168201806040525081019061048d9190610a4e565b6104978f8f61064e565b60405160e088901b6001600160e01b03191681526001600160a01b039687166004820152948616602486015292151560448501529084166064840152909216608482015260a481019190915260c401602060405180830381865afa158015610503573d6000803e3d6000fd5b505050506040513d601f19601f820116820180604052508101906105279190610b2e565b905080600003610537575061058a565b84828151811061054957610549610b18565b602002602001015184848151811061056357610563610b18565b6001600160a01b03909216602092830291909101909101528261058581610b47565b935050505b8061059481610b47565b915050610332565b8167ffffffffffffffff8111156105b5576105b561079a565b6040519080825280602002602001820160405280156105de578160200160208202803683370190505b509450600090505b818110156106445782818151811061060057610600610b18565b602002602001015185828151811061061a5761061a610b18565b6001600160a01b03909216602092830291909101909101528061063c81610b47565b9150506105e6565b5050505092915050565b6000826001600160a01b031663741bef1a6040518163ffffffff1660e01b8152600401602060405180830381865afa15801561068e573d6000803e3d6000fd5b505050506040513d601f19601f820116820180604052508101906106b29190610a4e565b6001600160a01b03166376d69760846001600160a01b031663e7d015f26040518163ffffffff1660e01b8152600401602060405180830381865afa1580156106fe573d6000803e3d6000fd5b505050506040513d601f19601f820116820180604052508101906107229190610a4e565b6040516001600160e01b031960e084901b1681526001600160a01b03909116600482015284156024820152604401602060405180830381865afa15801561076d573d6000803e3d6000fd5b505050506040513d601f19601f820116820180604052508101906107919190610b2e565b90505b92915050565b634e487b7160e01b600052604160045260246000fd5b604051601f8201601f1916810167ffffffffffffffff811182821017156107d9576107d961079a565b604052919050565b600060208083850312156107f457600080fd5b823567ffffffffffffffff8082111561080c57600080fd5b818501915085601f83011261082057600080fd5b8135818111156108325761083261079a565b610844601f8201601f191685016107b0565b9150808252868482850101111561085a57600080fd5b8084840185840137600090820190930192909252509392505050565b821515815260006020604081840152835180604085015260005b818110156108ac57858101830151858201606001528201610890565b506000606082860101526060601f19601f830116850101925050509392505050565b6001600160a01b03811681146108e357600080fd5b50565b600082601f8301126108f757600080fd5b8151602067ffffffffffffffff8211156109135761091361079a565b8160051b6109228282016107b0565b928352848101820192828101908785111561093c57600080fd5b83870192505b84831015610964578251610955816108ce565b82529183019190830190610942565b979650505050505050565b60008060006060848603121561098457600080fd5b835161098f816108ce565b602085015190935067ffffffffffffffff808211156109ad57600080fd5b6109b9878388016108e6565b935060408601519150808211156109cf57600080fd5b506109dc868287016108e6565b9150509250925092565b600081518084526020808501945080840160005b83811015610a1f5781516001600160a01b0316875295820195908201906001016109fa565b509495945050505050565b604081526000610a3d60408301856109e6565b905082151560208301529392505050565b600060208284031215610a6057600080fd5b8151610a6b816108ce565b9392505050565b634e487b7160e01b600052601160045260246000fd5b8082018082111561079457610794610a72565b6001600160a01b0384168152606060208201819052600090610abf908301856109e6565b8281036040840152610ad181856109e6565b9695505050505050565b600060208284031215610aed57600080fd5b815167ffffffffffffffff811115610b0457600080fd5b610b10848285016108e6565b949350505050565b634e487b7160e01b600052603260045260246000fd5b600060208284031215610b4057600080fd5b5051919050565b600060018201610b5957610b59610a72565b506001019056fea2646970667358221220d71eb45a44a03aac4a6037ca230cd2a61309cbfed1c78cca63a2d5c4b742807b64736f6c63430008110033",
  "linkReferences": {},
  "deployedLinkReferences": {}
}