{
  "_format": "hh-sol-artifact-1",
  "contractName": "OrderStore",
  "sourceName": "contracts/order/OrderStore.sol",
  "abi": [
    {
      "inputs": [
        {
          "internalType": "address",
          "name": "_f",
          "type": "address"
        }
      ],
      "stateMutability": "nonpayable",
      "type": "constructor"
    },
    {
      "anonymous": false,
      "inputs": [
        {
          "indexed": false,
          "internalType": "uint8",
          "name": "version",
          "type": "uint8"
        }
      ],
      "name": "Initialized",
      "type": "event"
    },
    {
      "inputs": [],
      "name": "DEFAULT_ADMIN_ROLE",
      "outputs": [
        {
          "internalType": "bytes32",
          "name": "",
          "type": "bytes32"
        }
      ],
      "stateMutability": "view",
      "type": "function"
    },
    {
      "inputs": [
        {
          "internalType": "address",
          "name": "newOwner",
          "type": "address"
        }
      ],
      "name": "_transferOwnership",
      "outputs": [],
      "stateMutability": "pure",
      "type": "function"
    },
    {
      "inputs": [
        {
          "components": [
            {
              "internalType": "uint8",
              "name": "version",
              "type": "uint8"
            },
            {
              "internalType": "uint32",
              "name": "updatedAtBlock",
              "type": "uint32"
            },
            {
              "internalType": "uint8",
              "name": "triggerAbove",
              "type": "uint8"
            },
            {
              "internalType": "address",
              "name": "account",
              "type": "address"
            },
            {
              "internalType": "uint48",
              "name": "extra3",
              "type": "uint48"
            },
            {
              "internalType": "uint128",
              "name": "collateral",
              "type": "uint128"
            },
            {
              "internalType": "uint128",
              "name": "size",
              "type": "uint128"
            },
            {
              "internalType": "uint128",
              "name": "price",
              "type": "uint128"
            },
            {
              "internalType": "uint128",
              "name": "extra1",
              "type": "uint128"
            },
            {
              "internalType": "uint64",
              "name": "orderID",
              "type": "uint64"
            },
            {
              "internalType": "uint64",
              "name": "extra2",
              "type": "uint64"
            },
            {
              "internalType": "uint128",
              "name": "extra0",
              "type": "uint128"
            },
            {
              "internalType": "bytes32",
              "name": "refCode",
              "type": "bytes32"
            }
          ],
          "internalType": "struct Order.Props",
          "name": "order",
          "type": "tuple"
        }
      ],
      "name": "add",
      "outputs": [],
      "stateMutability": "nonpayable",
      "type": "function"
    },
    {
      "inputs": [
        {
          "internalType": "bytes32",
          "name": "key",
          "type": "bytes32"
        }
      ],
      "name": "containsKey",
      "outputs": [
        {
          "internalType": "bool",
          "name": "",
          "type": "bool"
        }
      ],
      "stateMutability": "view",
      "type": "function"
    },
    {
      "inputs": [
        {
          "internalType": "address",
          "name": "account",
          "type": "address"
        }
      ],
      "name": "delByAccount",
      "outputs": [
        {
          "components": [
            {
              "internalType": "uint8",
              "name": "version",
              "type": "uint8"
            },
            {
              "internalType": "uint32",
              "name": "updatedAtBlock",
              "type": "uint32"
            },
            {
              "internalType": "uint8",
              "name": "triggerAbove",
              "type": "uint8"
            },
            {
              "internalType": "address",
              "name": "account",
              "type": "address"
            },
            {
              "internalType": "uint48",
              "name": "extra3",
              "type": "uint48"
            },
            {
              "internalType": "uint128",
              "name": "collateral",
              "type": "uint128"
            },
            {
              "internalType": "uint128",
              "name": "size",
              "type": "uint128"
            },
            {
              "internalType": "uint128",
              "name": "price",
              "type": "uint128"
            },
            {
              "internalType": "uint128",
              "name": "extra1",
              "type": "uint128"
            },
            {
              "internalType": "uint64",
              "name": "orderID",
              "type": "uint64"
            },
            {
              "internalType": "uint64",
              "name": "extra2",
              "type": "uint64"
            },
            {
              "internalType": "uint128",
              "name": "extra0",
              "type": "uint128"
            },
            {
              "internalType": "bytes32",
              "name": "refCode",
              "type": "bytes32"
            }
          ],
          "internalType": "struct Order.Props[]",
          "name": "_orders",
          "type": "tuple[]"
        }
      ],
      "stateMutability": "nonpayable",
      "type": "function"
    },
    {
      "inputs": [
        {
          "internalType": "address",
          "name": "_acc",
          "type": "address"
        }
      ],
      "name": "generateID",
      "outputs": [
        {
          "internalType": "uint256",
          "name": "retVal",
          "type": "uint256"
        }
      ],
      "stateMutability": "nonpayable",
      "type": "function"
    },
    {
      "inputs": [
        {
          "internalType": "uint256",
          "name": "index",
          "type": "uint256"
        }
      ],
      "name": "getByIndex",
      "outputs": [
        {
          "components": [
            {
              "internalType": "uint8",
              "name": "version",
              "type": "uint8"
            },
            {
              "internalType": "uint32",
              "name": "updatedAtBlock",
              "type": "uint32"
            },
            {
              "internalType": "uint8",
              "name": "triggerAbove",
              "type": "uint8"
            },
            {
              "internalType": "address",
              "name": "account",
              "type": "address"
            },
            {
              "internalType": "uint48",
              "name": "extra3",
              "type": "uint48"
            },
            {
              "internalType": "uint128",
              "name": "collateral",
              "type": "uint128"
            },
            {
              "internalType": "uint128",
              "name": "size",
              "type": "uint128"
            },
            {
              "internalType": "uint128",
              "name": "price",
              "type": "uint128"
            },
            {
              "internalType": "uint128",
              "name": "extra1",
              "type": "uint128"
            },
            {
              "internalType": "uint64",
              "name": "orderID",
              "type": "uint64"
            },
            {
              "internalType": "uint64",
              "name": "extra2",
              "type": "uint64"
            },
            {
              "internalType": "uint128",
              "name": "extra0",
              "type": "uint128"
            },
            {
              "internalType": "bytes32",
              "name": "refCode",
              "type": "bytes32"
            }
          ],
          "internalType": "struct Order.Props",
          "name": "",
          "type": "tuple"
        }
      ],
      "stateMutability": "view",
      "type": "function"
    },
    {
      "inputs": [],
      "name": "getCount",
      "outputs": [
        {
          "internalType": "uint256",
          "name": "",
          "type": "uint256"
        }
      ],
      "stateMutability": "view",
      "type": "function"
    },
    {
      "inputs": [
        {
          "internalType": "uint256",
          "name": "_index",
          "type": "uint256"
        }
      ],
      "name": "getKey",
      "outputs": [
        {
          "internalType": "bytes32",
          "name": "",
          "type": "bytes32"
        }
      ],
      "stateMutability": "view",
      "type": "function"
    },
    {
      "inputs": [
        {
          "internalType": "uint256",
          "name": "start",
          "type": "uint256"
        },
        {
          "internalType": "uint256",
          "name": "end",
          "type": "uint256"
        }
      ],
      "name": "getKeys",
      "outputs": [
        {
          "internalType": "bytes32[]",
          "name": "",
          "type": "bytes32[]"
        }
      ],
      "stateMutability": "view",
      "type": "function"
    },
    {
      "inputs": [
        {
          "internalType": "address",
          "name": "account",
          "type": "address"
        }
      ],
      "name": "getOrderByAccount",
      "outputs": [
        {
          "components": [
            {
              "internalType": "uint8",
              "name": "version",
              "type": "uint8"
            },
            {
              "internalType": "uint32",
              "name": "updatedAtBlock",
              "type": "uint32"
            },
            {
              "internalType": "uint8",
              "name": "triggerAbove",
              "type": "uint8"
            },
            {
              "internalType": "address",
              "name": "account",
              "type": "address"
            },
            {
              "internalType": "uint48",
              "name": "extra3",
              "type": "uint48"
            },
            {
              "internalType": "uint128",
              "name": "collateral",
              "type": "uint128"
            },
            {
              "internalType": "uint128",
              "name": "size",
              "type": "uint128"
            },
            {
              "internalType": "uint128",
              "name": "price",
              "type": "uint128"
            },
            {
              "internalType": "uint128",
              "name": "extra1",
              "type": "uint128"
            },
            {
              "internalType": "uint64",
              "name": "orderID",
              "type": "uint64"
            },
            {
              "internalType": "uint64",
              "name": "extra2",
              "type": "uint64"
            },
            {
              "internalType": "uint128",
              "name": "extra0",
              "type": "uint128"
            },
            {
              "internalType": "bytes32",
              "name": "refCode",
              "type": "bytes32"
            }
          ],
          "internalType": "struct Order.Props[]",
          "name": "_orders",
          "type": "tuple[]"
        }
      ],
      "stateMutability": "view",
      "type": "function"
    },
    {
      "inputs": [
        {
          "internalType": "address",
          "name": "_account",
          "type": "address"
        }
      ],
      "name": "grantControllerRoleByMarketManager",
      "outputs": [],
      "stateMutability": "nonpayable",
      "type": "function"
    },
    {
      "inputs": [
        {
          "internalType": "bytes32",
          "name": "role",
          "type": "bytes32"
        },
        {
          "internalType": "address",
          "name": "account",
          "type": "address"
        }
      ],
      "name": "grantRole",
      "outputs": [],
      "stateMutability": "pure",
      "type": "function"
    },
    {
      "inputs": [
        {
          "internalType": "bytes32",
          "name": "role",
          "type": "bytes32"
        },
        {
          "internalType": "address",
          "name": "account",
          "type": "address"
        }
      ],
      "name": "hasRole",
      "outputs": [
        {
          "internalType": "bool",
          "name": "",
          "type": "bool"
        }
      ],
      "stateMutability": "pure",
      "type": "function"
    },
    {
      "inputs": [
        {
          "internalType": "bool",
          "name": "_isLong",
          "type": "bool"
        }
      ],
      "name": "initialize",
      "outputs": [],
      "stateMutability": "nonpayable",
      "type": "function"
    },
    {
      "inputs": [],
      "name": "isLong",
      "outputs": [
        {
          "internalType": "bool",
          "name": "",
          "type": "bool"
        }
      ],
      "stateMutability": "view",
      "type": "function"
    },
    {
      "inputs": [
        {
          "internalType": "address",
          "name": "",
          "type": "address"
        }
      ],
      "name": "orderNum",
      "outputs": [
        {
          "internalType": "uint256",
          "name": "",
          "type": "uint256"
        }
      ],
      "stateMutability": "view",
      "type": "function"
    },
    {
      "inputs": [
        {
          "internalType": "bytes32",
          "name": "",
          "type": "bytes32"
        }
      ],
      "name": "orders",
      "outputs": [
        {
          "internalType": "uint8",
          "name": "version",
          "type": "uint8"
        },
        {
          "internalType": "uint32",
          "name": "updatedAtBlock",
          "type": "uint32"
        },
        {
          "internalType": "uint8",
          "name": "triggerAbove",
          "type": "uint8"
        },
        {
          "internalType": "address",
          "name": "account",
          "type": "address"
        },
        {
          "internalType": "uint48",
          "name": "extra3",
          "type": "uint48"
        },
        {
          "internalType": "uint128",
          "name": "collateral",
          "type": "uint128"
        },
        {
          "internalType": "uint128",
          "name": "size",
          "type": "uint128"
        },
        {
          "internalType": "uint128",
          "name": "price",
          "type": "uint128"
        },
        {
          "internalType": "uint128",
          "name": "extra1",
          "type": "uint128"
        },
        {
          "internalType": "uint64",
          "name": "orderID",
          "type": "uint64"
        },
        {
          "internalType": "uint64",
          "name": "extra2",
          "type": "uint64"
        },
        {
          "internalType": "uint128",
          "name": "extra0",
          "type": "uint128"
        },
        {
          "internalType": "bytes32",
          "name": "refCode",
          "type": "bytes32"
        }
      ],
      "stateMutability": "view",
      "type": "function"
    },
    {
      "inputs": [
        {
          "internalType": "address",
          "name": "",
          "type": "address"
        }
      ],
      "name": "ordersIndex",
      "outputs": [
        {
          "internalType": "uint256",
          "name": "",
          "type": "uint256"
        }
      ],
      "stateMutability": "view",
      "type": "function"
    },
    {
      "inputs": [
        {
          "internalType": "bytes32",
          "name": "key",
          "type": "bytes32"
        }
      ],
      "name": "remove",
      "outputs": [
        {
          "components": [
            {
              "internalType": "uint8",
              "name": "version",
              "type": "uint8"
            },
            {
              "internalType": "uint32",
              "name": "updatedAtBlock",
              "type": "uint32"
            },
            {
              "internalType": "uint8",
              "name": "triggerAbove",
              "type": "uint8"
            },
            {
              "internalType": "address",
              "name": "account",
              "type": "address"
            },
            {
              "internalType": "uint48",
              "name": "extra3",
              "type": "uint48"
            },
            {
              "internalType": "uint128",
              "name": "collateral",
              "type": "uint128"
            },
            {
              "internalType": "uint128",
              "name": "size",
              "type": "uint128"
            },
            {
              "internalType": "uint128",
              "name": "price",
              "type": "uint128"
            },
            {
              "internalType": "uint128",
              "name": "extra1",
              "type": "uint128"
            },
            {
              "internalType": "uint64",
              "name": "orderID",
              "type": "uint64"
            },
            {
              "internalType": "uint64",
              "name": "extra2",
              "type": "uint64"
            },
            {
              "internalType": "uint128",
              "name": "extra0",
              "type": "uint128"
            },
            {
              "internalType": "bytes32",
              "name": "refCode",
              "type": "bytes32"
            }
          ],
          "internalType": "struct Order.Props",
          "name": "order",
          "type": "tuple"
        }
      ],
      "stateMutability": "nonpayable",
      "type": "function"
    },
    {
      "inputs": [
        {
          "internalType": "bytes32",
          "name": "role",
          "type": "bytes32"
        },
        {
          "internalType": "address",
          "name": "account",
          "type": "address"
        }
      ],
      "name": "revokeRole",
      "outputs": [],
      "stateMutability": "pure",
      "type": "function"
    },
    {
      "inputs": [
        {
          "components": [
            {
              "internalType": "uint8",
              "name": "version",
              "type": "uint8"
            },
            {
              "internalType": "uint32",
              "name": "updatedAtBlock",
              "type": "uint32"
            },
            {
              "internalType": "uint8",
              "name": "triggerAbove",
              "type": "uint8"
            },
            {
              "internalType": "address",
              "name": "account",
              "type": "address"
            },
            {
              "internalType": "uint48",
              "name": "extra3",
              "type": "uint48"
            },
            {
              "internalType": "uint128",
              "name": "collateral",
              "type": "uint128"
            },
            {
              "internalType": "uint128",
              "name": "size",
              "type": "uint128"
            },
            {
              "internalType": "uint128",
              "name": "price",
              "type": "uint128"
            },
            {
              "internalType": "uint128",
              "name": "extra1",
              "type": "uint128"
            },
            {
              "internalType": "uint64",
              "name": "orderID",
              "type": "uint64"
            },
            {
              "internalType": "uint64",
              "name": "extra2",
              "type": "uint64"
            },
            {
              "internalType": "uint128",
              "name": "extra0",
              "type": "uint128"
            },
            {
              "internalType": "bytes32",
              "name": "refCode",
              "type": "bytes32"
            }
          ],
          "internalType": "struct Order.Props",
          "name": "order",
          "type": "tuple"
        }
      ],
      "name": "set",
      "outputs": [],
      "stateMutability": "nonpayable",
      "type": "function"
    },
    {
      "inputs": [
        {
          "internalType": "address",
          "name": "to",
          "type": "address"
        }
      ],
      "name": "transferAdmin",
      "outputs": [],
      "stateMutability": "nonpayable",
      "type": "function"
    },
    {
      "inputs": [
        {
          "internalType": "address",
          "name": "newOwner",
          "type": "address"
        }
      ],
      "name": "transferOwnership",
      "outputs": [],
      "stateMutability": "pure",
      "type": "function"
    }
  ],
  "bytecode": "0x60806040523480156200001157600080fd5b506040516200193d3803806200193d833981016040819052620000349162000062565b806200004b816200005360201b62000df71760201c565b505062000094565b426001556200005f3381565b50565b6000602082840312156200007557600080fd5b81516001600160a01b03811681146200008d57600080fd5b9392505050565b61189980620000a46000396000f3fe608060405234801561001057600080fd5b50600436106101585760003560e01c806395bc2673116100c3578063d29d44ee1161007c578063d29d44ee14610443578063d53a822f14610454578063d547741f146101eb578063f0b3e50214610467578063f2fde38b14610443578063f6b102a61461047a57600080fd5b806395bc2673146102975780639c3f1e90146102aa578063a217fddf14610400578063a87d942c14610408578063b4d1cbad14610410578063bb5b27e11461043057600080fd5b80634bbaf8e8116101155780634bbaf8e8146101fd5780635b8d9775146102105780636a19ffba1461023e57806375829def1461025e5780637fe4a6981461027157806391d148541461028457600080fd5b80630fb400e81461015d5780631c1b6fcd14610186578063202a61a1146101995780632597382b146101b65780632d883a73146101cb5780632f2ff15d146101eb575b600080fd5b61017061016b3660046113d7565b61048d565b60405161017d9190611514565b60405180910390f35b6101706101943660046113d7565b610689565b6002546101a69060ff1681565b604051901515815260200161017d565b6101c96101c4366004611619565b6107d1565b005b6101de6101d9366004611712565b6109ab565b60405161017d919061172b565b6101c96101f936600461173a565b5050565b6101c961020b366004611619565b610ab1565b61023061021e3660046113d7565b60066020526000908152604090205481565b60405190815260200161017d565b61023061024c3660046113d7565b60076020526000908152604090205481565b6101c961026c3660046113d7565b610c18565b6101c961027f3660046113d7565b610451565b6101a661029236600461173a565b610c23565b6101de6102a5366004611712565b610c2c565b6103636102b8366004611712565b60036020819052600091825260409091208054600182015460028301549383015460049093015460ff80841695610100850463ffffffff1695600160281b860490921694600160301b81046001600160a01b031694600160d01b90910465ffffffffffff16936001600160801b0380831694600160801b9384900482169482811694908190048316936001600160401b0380841694600160401b85049091169392909204909116908d565b6040805160ff9e8f16815263ffffffff909d1660208e01529c909a169b8b019b909b526001600160a01b0390971660608a015265ffffffffffff90951660808901526001600160801b0393841660a089015291831660c0880152821660e087015281166101008601526001600160401b0391821661012086015291166101408401529092166101608201526101808101919091526101a00161017d565b610230600081565b610230610c55565b61042361041e366004611766565b610c66565b60405161017d9190611788565b61023061043e366004611712565b610c7b565b6101c96104513660046113d7565b50565b6101c96104623660046117c0565b610c88565b6102306104753660046113d7565b610da3565b6101a6610488366004611712565b610dea565b6001600160a01b0381166000908152600860205260408120606091906104b290610dfe565b905060006104bf82610e0b565b9050806001600160401b038111156104d9576104d9611563565b60405190808252806020026020018201604052801561051257816020015b6104ff611322565b8152602001906001900390816104f75790505b508251909350600090815b818110801561052b57508383105b1561067f576000858281518110610544576105446117e2565b60200260200101519050610562816004610e7990919063ffffffff16565b156106765760008181526003602081815260409283902083516101a081018552815460ff808216835261010080830463ffffffff1695840195909552600160281b82041695820195909552600160301b85046001600160a01b03166060820152600160d01b90940465ffffffffffff16608085015260018101546001600160801b0380821660a0870152600160801b91829004811660c0870152600283015480821660e0880152829004811693860193909352928101546001600160401b03808216610120870152600160401b82041661014086015292909204166101608301526004015461018082015287518190899087908110610663576106636117e2565b6020026020010181905250846001019450505b5060010161051d565b5050505050919050565b6001600160a01b0381166000908152600860205260408120606091906106ae90610dfe565b905060006106bb82610e0b565b8251909150816001600160401b038111156106d8576106d8611563565b60405190808252806020026020018201604052801561071157816020015b6106fe611322565b8152602001906001900390816106f65790505b5093506000805b828110801561072657508382105b1561079e57600085828151811061073f5761073f6117e2565b6020026020010151905061075d816004610e7990919063ffffffff16565b1561079557600061076d82610e91565b905080888581518110610782576107826117e2565b6020908102919091010152506001909201915b50600101610718565b506001600160a01b03861660009081526008602052604081209081816107c4828261138e565b5050505050505050919050565b4263ffffffff16602082015260006107e882611007565b600081815260036020818152604092839020865181549288015194880151606089015160808a015165ffffffffffff16600160d01b026001600160d01b036001600160a01b03909216600160301b026601000000000000600160d01b031960ff948516600160281b021665010000000000600160d01b031963ffffffff9a8b1661010090810264ffffffffff19909a169690971695909517979097179390931695909517919091171692909217815560a087015160c08801516001600160801b03908116600160801b90810292821692909217600184015560e0890151938901518116820293811693909317600283015561012088015193820180546101408a01516101608b015186169093026001600160401b03938416600160401b026001600160801b0319929092169390961692909217919091179092169290921790556101808501516004918201559192506109449190839061106c16565b5060608201516001600160a01b0316600090815260076020526040812080546001929061097290849061180e565b909155506109a6905061098483611007565b60608401516001600160a01b031660009081526008602052604090209061106c565b505050565b6109b3611322565b600360006109c2600485611078565b8152602080820192909252604090810160002081516101a081018352815460ff808216835261010080830463ffffffff1696840196909652600160281b82041693820193909352600160301b83046001600160a01b03166060820152600160d01b90920465ffffffffffff16608083015260018101546001600160801b0380821660a0850152600160801b91829004811660c0850152600283015480821660e086015282900481169484019490945260038201546001600160401b03808216610120860152600160401b8204166101408501520490921661016082015260049091015461018082015292915050565b6000610abc82611007565b4263ffffffff16602084015290506000908152600360208181526040928390208451815492860151948601516060870151608088015160ff93841664ffffffffff199096169590951761010063ffffffff90981688021765010000000000600160d01b031916600160281b93909216929092026601000000000000600160d01b03191617600160301b6001600160a01b0390921691909102176001600160d01b0316600160d01b65ffffffffffff9093169290920291909117815560a084015160c08501516001600160801b03918216600160801b918316820217600184015560e086015194860151948216948216810294909417600283015561012085015192820180546101408701516101608801516001600160401b039687166001600160801b031990931692909217600160401b9690911695909502949094178216939091169093029190911790915561018090910151600490910155565b60006101f960003382565b60015b92915050565b610c34611322565b610c3f600483610e79565b15610c5057610c4d82610e91565b90505b919050565b6000610c616004611084565b905090565b6060610c746004848461108e565b9392505050565b6000610c26600483611078565b600054610100900460ff1615808015610ca85750600054600160ff909116105b80610cc25750303b158015610cc2575060005460ff166001145b610d295760405162461bcd60e51b815260206004820152602e60248201527f496e697469616c697a61626c653a20636f6e747261637420697320616c72656160448201526d191e481a5b9a5d1a585b1a5e995960921b606482015260840160405180910390fd5b6000805460ff191660011790558015610d4c576000805461ff0019166101001790555b6002805460ff191683151517905580156101f9576000805461ff0019169055604051600181527f7f26b83ff96e1f2b6a682f133852f6798a09c465da95921460cefb38474024989060200160405180910390a15050565b6001600160a01b03811660009081526006602052604081205490819003610dc8575060015b6001600160a01b03909116600090815260066020526040902060018201905590565b6000610c26600483610e79565b4260015550565b60606000610c748361114e565b8051600090815b81811015610e72576000848281518110610e2e57610e2e6117e2565b60200260200101519050610e4c816004610e7990919063ffffffff16565b15610e5f5783610e5b81611821565b9450505b5080610e6a81611821565b915050610e12565b5050919050565b60008181526001830160205260408120541515610c74565b610e99611322565b50600081815260036020818152604080842081516101a081018352815460ff808216835261010080830463ffffffff1684880152600160281b830490911683860152600160301b82046001600160a01b031660608401819052600160d01b90920465ffffffffffff1660808401526001808501546001600160801b0380821660a0870152600160801b91829004811660c0870152600287015480821660e0880152829004811693860193909352978501546001600160401b03808216610120870152600160401b820416610140860152979097041661016083015260049092015461018082015290855260079092528320805491939091610f9b90849061183a565b9091555050600082815260036020819052604082208281556001810183905560028101839055908101829055600490810191909155610fda90836111aa565b5060608101516001600160a01b0316600090815260086020526040902061100190836111aa565b50919050565b6000816060015182610120015160405160200161104f92919060609290921b6bffffffffffffffffffffffff1916825260c01b6001600160c01b0319166014820152601c0190565b604051602081830303815290604052805190602001209050919050565b6000610c7483836111b6565b6000610c748383611205565b6000610c26825490565b6060600061109b85611084565b9050808311156110a9578092505b60006110b5858561183a565b6001600160401b038111156110cc576110cc611563565b6040519080825280602002602001820160405280156110f5578160200160208202803683370190505b509050845b848110156111445761110c8782611078565b82611117888461183a565b81518110611127576111276117e2565b60209081029190910101528061113c81611821565b9150506110fa565b5095945050505050565b60608160000180548060200260200160405190810160405280929190818152602001828054801561119e57602002820191906000526020600020905b81548152602001906001019080831161118a575b50505050509050919050565b6000610c74838361122f565b60008181526001830160205260408120546111fd57508154600181810184556000848152602080822090930184905584548482528286019093526040902091909155610c26565b506000610c26565b600082600001828154811061121c5761121c6117e2565b9060005260206000200154905092915050565b6000818152600183016020526040812054801561131857600061125360018361183a565b85549091506000906112679060019061183a565b90508181146112cc576000866000018281548110611287576112876117e2565b90600052602060002001549050808760000184815481106112aa576112aa6117e2565b6000918252602080832090910192909255918252600188019052604090208390555b85548690806112dd576112dd61184d565b600190038181906000526020600020016000905590558560010160008681526020019081526020016000206000905560019350505050610c26565b6000915050610c26565b604080516101a081018252600080825260208201819052918101829052606081018290526080810182905260a0810182905260c0810182905260e08101829052610100810182905261012081018290526101408101829052610160810182905261018081019190915290565b508054600082559060005260206000209081019061045191905b808211156113bc57600081556001016113a8565b5090565b80356001600160a01b0381168114610c5057600080fd5b6000602082840312156113e957600080fd5b610c74826113c0565b805160ff1682526020810151611410602084018263ffffffff169052565b506040810151611425604084018260ff169052565b50606081015161144060608401826001600160a01b03169052565b50608081015161145a608084018265ffffffffffff169052565b5060a081015161147560a08401826001600160801b03169052565b5060c081015161149060c08401826001600160801b03169052565b5060e08101516114ab60e08401826001600160801b03169052565b50610100818101516001600160801b038116848301525050610120818101516001600160401b038116848301525050610140818101516001600160401b038116848301525050610160818101516001600160801b03811684830152505061018090810151910152565b6020808252825182820181905260009190848201906040850190845b81811015611557576115438385516113f2565b928401926101a09290920191600101611530565b50909695505050505050565b634e487b7160e01b600052604160045260246000fd5b6040516101a081016001600160401b03811182821017156115aa57634e487b7160e01b600052604160045260246000fd5b60405290565b803560ff81168114610c5057600080fd5b803563ffffffff81168114610c5057600080fd5b803565ffffffffffff81168114610c5057600080fd5b80356001600160801b0381168114610c5057600080fd5b80356001600160401b0381168114610c5057600080fd5b60006101a0828403121561162c57600080fd5b611634611579565b61163d836115b0565b815261164b602084016115c1565b602082015261165c604084016115b0565b604082015261166d606084016113c0565b606082015261167e608084016115d5565b608082015261168f60a084016115eb565b60a08201526116a060c084016115eb565b60c08201526116b160e084016115eb565b60e08201526101006116c48185016115eb565b908201526101206116d6848201611602565b908201526101406116e8848201611602565b908201526101606116fa8482016115eb565b90820152610180928301359281019290925250919050565b60006020828403121561172457600080fd5b5035919050565b6101a08101610c2682846113f2565b6000806040838503121561174d57600080fd5b8235915061175d602084016113c0565b90509250929050565b6000806040838503121561177957600080fd5b50508035926020909101359150565b6020808252825182820181905260009190848201906040850190845b81811015611557578351835292840192918401916001016117a4565b6000602082840312156117d257600080fd5b81358015158114610c7457600080fd5b634e487b7160e01b600052603260045260246000fd5b634e487b7160e01b600052601160045260246000fd5b80820180821115610c2657610c266117f8565b600060018201611833576118336117f8565b5060010190565b81810381811115610c2657610c266117f8565b634e487b7160e01b600052603160045260246000fdfea2646970667358221220bf37deb2af865e6f6ddf3df52b410c05671747ef586064ee9bd210de835d187c64736f6c63430008110033",
  "linkReferences": {},
  "deployedLinkReferences": {}
}