{
  "_format": "hh-sol-artifact-1",
  "contractName": "OrderStore",
  "sourceName": "contracts/order/OrderStore.sol",
  "abi": [
    {
      "inputs": [
        {
          "internalType": "address",
          "name": "_f",
          "type": "address"
        }
      ],
      "stateMutability": "nonpayable",
      "type": "constructor"
    },
    {
      "anonymous": false,
      "inputs": [
        {
          "indexed": false,
          "internalType": "uint8",
          "name": "version",
          "type": "uint8"
        }
      ],
      "name": "Initialized",
      "type": "event"
    },
    {
      "anonymous": false,
      "inputs": [
        {
          "indexed": true,
          "internalType": "address",
          "name": "previousOwner",
          "type": "address"
        },
        {
          "indexed": true,
          "internalType": "address",
          "name": "newOwner",
          "type": "address"
        }
      ],
      "name": "OwnershipTransferred",
      "type": "event"
    },
    {
      "anonymous": false,
      "inputs": [
        {
          "indexed": true,
          "internalType": "bytes32",
          "name": "role",
          "type": "bytes32"
        },
        {
          "indexed": true,
          "internalType": "bytes32",
          "name": "previousAdminRole",
          "type": "bytes32"
        },
        {
          "indexed": true,
          "internalType": "bytes32",
          "name": "newAdminRole",
          "type": "bytes32"
        }
      ],
      "name": "RoleAdminChanged",
      "type": "event"
    },
    {
      "anonymous": false,
      "inputs": [
        {
          "indexed": true,
          "internalType": "bytes32",
          "name": "role",
          "type": "bytes32"
        },
        {
          "indexed": true,
          "internalType": "address",
          "name": "account",
          "type": "address"
        },
        {
          "indexed": true,
          "internalType": "address",
          "name": "sender",
          "type": "address"
        }
      ],
      "name": "RoleGranted",
      "type": "event"
    },
    {
      "anonymous": false,
      "inputs": [
        {
          "indexed": true,
          "internalType": "bytes32",
          "name": "role",
          "type": "bytes32"
        },
        {
          "indexed": true,
          "internalType": "address",
          "name": "account",
          "type": "address"
        },
        {
          "indexed": true,
          "internalType": "address",
          "name": "sender",
          "type": "address"
        }
      ],
      "name": "RoleRevoked",
      "type": "event"
    },
    {
      "inputs": [],
      "name": "DEFAULT_ADMIN_ROLE",
      "outputs": [
        {
          "internalType": "bytes32",
          "name": "",
          "type": "bytes32"
        }
      ],
      "stateMutability": "view",
      "type": "function"
    },
    {
      "inputs": [
        {
          "components": [
            {
              "internalType": "uint8",
              "name": "version",
              "type": "uint8"
            },
            {
              "internalType": "uint32",
              "name": "updatedAtBlock",
              "type": "uint32"
            },
            {
              "internalType": "uint8",
              "name": "triggerAbove",
              "type": "uint8"
            },
            {
              "internalType": "address",
              "name": "account",
              "type": "address"
            },
            {
              "internalType": "uint48",
              "name": "extra3",
              "type": "uint48"
            },
            {
              "internalType": "uint128",
              "name": "collateral",
              "type": "uint128"
            },
            {
              "internalType": "uint128",
              "name": "size",
              "type": "uint128"
            },
            {
              "internalType": "uint128",
              "name": "price",
              "type": "uint128"
            },
            {
              "internalType": "uint128",
              "name": "extra1",
              "type": "uint128"
            },
            {
              "internalType": "uint64",
              "name": "orderID",
              "type": "uint64"
            },
            {
              "internalType": "uint64",
              "name": "extra2",
              "type": "uint64"
            },
            {
              "internalType": "uint128",
              "name": "extra0",
              "type": "uint128"
            },
            {
              "internalType": "bytes32",
              "name": "refCode",
              "type": "bytes32"
            }
          ],
          "internalType": "struct Order.Props",
          "name": "order",
          "type": "tuple"
        }
      ],
      "name": "add",
      "outputs": [],
      "stateMutability": "nonpayable",
      "type": "function"
    },
    {
      "inputs": [
        {
          "internalType": "bytes32",
          "name": "key",
          "type": "bytes32"
        }
      ],
      "name": "containsKey",
      "outputs": [
        {
          "internalType": "bool",
          "name": "",
          "type": "bool"
        }
      ],
      "stateMutability": "view",
      "type": "function"
    },
    {
      "inputs": [
        {
          "internalType": "address",
          "name": "account",
          "type": "address"
        }
      ],
      "name": "delByAccount",
      "outputs": [
        {
          "components": [
            {
              "internalType": "uint8",
              "name": "version",
              "type": "uint8"
            },
            {
              "internalType": "uint32",
              "name": "updatedAtBlock",
              "type": "uint32"
            },
            {
              "internalType": "uint8",
              "name": "triggerAbove",
              "type": "uint8"
            },
            {
              "internalType": "address",
              "name": "account",
              "type": "address"
            },
            {
              "internalType": "uint48",
              "name": "extra3",
              "type": "uint48"
            },
            {
              "internalType": "uint128",
              "name": "collateral",
              "type": "uint128"
            },
            {
              "internalType": "uint128",
              "name": "size",
              "type": "uint128"
            },
            {
              "internalType": "uint128",
              "name": "price",
              "type": "uint128"
            },
            {
              "internalType": "uint128",
              "name": "extra1",
              "type": "uint128"
            },
            {
              "internalType": "uint64",
              "name": "orderID",
              "type": "uint64"
            },
            {
              "internalType": "uint64",
              "name": "extra2",
              "type": "uint64"
            },
            {
              "internalType": "uint128",
              "name": "extra0",
              "type": "uint128"
            },
            {
              "internalType": "bytes32",
              "name": "refCode",
              "type": "bytes32"
            }
          ],
          "internalType": "struct Order.Props[]",
          "name": "_orders",
          "type": "tuple[]"
        }
      ],
      "stateMutability": "nonpayable",
      "type": "function"
    },
    {
      "inputs": [
        {
          "internalType": "address",
          "name": "_acc",
          "type": "address"
        }
      ],
      "name": "generateID",
      "outputs": [
        {
          "internalType": "uint256",
          "name": "retVal",
          "type": "uint256"
        }
      ],
      "stateMutability": "nonpayable",
      "type": "function"
    },
    {
      "inputs": [
        {
          "internalType": "uint256",
          "name": "index",
          "type": "uint256"
        }
      ],
      "name": "getByIndex",
      "outputs": [
        {
          "components": [
            {
              "internalType": "uint8",
              "name": "version",
              "type": "uint8"
            },
            {
              "internalType": "uint32",
              "name": "updatedAtBlock",
              "type": "uint32"
            },
            {
              "internalType": "uint8",
              "name": "triggerAbove",
              "type": "uint8"
            },
            {
              "internalType": "address",
              "name": "account",
              "type": "address"
            },
            {
              "internalType": "uint48",
              "name": "extra3",
              "type": "uint48"
            },
            {
              "internalType": "uint128",
              "name": "collateral",
              "type": "uint128"
            },
            {
              "internalType": "uint128",
              "name": "size",
              "type": "uint128"
            },
            {
              "internalType": "uint128",
              "name": "price",
              "type": "uint128"
            },
            {
              "internalType": "uint128",
              "name": "extra1",
              "type": "uint128"
            },
            {
              "internalType": "uint64",
              "name": "orderID",
              "type": "uint64"
            },
            {
              "internalType": "uint64",
              "name": "extra2",
              "type": "uint64"
            },
            {
              "internalType": "uint128",
              "name": "extra0",
              "type": "uint128"
            },
            {
              "internalType": "bytes32",
              "name": "refCode",
              "type": "bytes32"
            }
          ],
          "internalType": "struct Order.Props",
          "name": "",
          "type": "tuple"
        }
      ],
      "stateMutability": "view",
      "type": "function"
    },
    {
      "inputs": [],
      "name": "getCount",
      "outputs": [
        {
          "internalType": "uint256",
          "name": "",
          "type": "uint256"
        }
      ],
      "stateMutability": "view",
      "type": "function"
    },
    {
      "inputs": [
        {
          "internalType": "uint256",
          "name": "_index",
          "type": "uint256"
        }
      ],
      "name": "getKey",
      "outputs": [
        {
          "internalType": "bytes32",
          "name": "",
          "type": "bytes32"
        }
      ],
      "stateMutability": "view",
      "type": "function"
    },
    {
      "inputs": [
        {
          "internalType": "uint256",
          "name": "start",
          "type": "uint256"
        },
        {
          "internalType": "uint256",
          "name": "end",
          "type": "uint256"
        }
      ],
      "name": "getKeys",
      "outputs": [
        {
          "internalType": "bytes32[]",
          "name": "",
          "type": "bytes32[]"
        }
      ],
      "stateMutability": "view",
      "type": "function"
    },
    {
      "inputs": [
        {
          "internalType": "address",
          "name": "account",
          "type": "address"
        }
      ],
      "name": "getOrderByAccount",
      "outputs": [
        {
          "components": [
            {
              "internalType": "uint8",
              "name": "version",
              "type": "uint8"
            },
            {
              "internalType": "uint32",
              "name": "updatedAtBlock",
              "type": "uint32"
            },
            {
              "internalType": "uint8",
              "name": "triggerAbove",
              "type": "uint8"
            },
            {
              "internalType": "address",
              "name": "account",
              "type": "address"
            },
            {
              "internalType": "uint48",
              "name": "extra3",
              "type": "uint48"
            },
            {
              "internalType": "uint128",
              "name": "collateral",
              "type": "uint128"
            },
            {
              "internalType": "uint128",
              "name": "size",
              "type": "uint128"
            },
            {
              "internalType": "uint128",
              "name": "price",
              "type": "uint128"
            },
            {
              "internalType": "uint128",
              "name": "extra1",
              "type": "uint128"
            },
            {
              "internalType": "uint64",
              "name": "orderID",
              "type": "uint64"
            },
            {
              "internalType": "uint64",
              "name": "extra2",
              "type": "uint64"
            },
            {
              "internalType": "uint128",
              "name": "extra0",
              "type": "uint128"
            },
            {
              "internalType": "bytes32",
              "name": "refCode",
              "type": "bytes32"
            }
          ],
          "internalType": "struct Order.Props[]",
          "name": "_orders",
          "type": "tuple[]"
        }
      ],
      "stateMutability": "view",
      "type": "function"
    },
    {
      "inputs": [
        {
          "internalType": "bytes32",
          "name": "role",
          "type": "bytes32"
        }
      ],
      "name": "getRoleAdmin",
      "outputs": [
        {
          "internalType": "bytes32",
          "name": "",
          "type": "bytes32"
        }
      ],
      "stateMutability": "view",
      "type": "function"
    },
    {
      "inputs": [
        {
          "internalType": "address",
          "name": "_account",
          "type": "address"
        }
      ],
      "name": "grantControllerRoleByMarketManager",
      "outputs": [],
      "stateMutability": "nonpayable",
      "type": "function"
    },
    {
      "inputs": [
        {
          "internalType": "bytes32",
          "name": "role",
          "type": "bytes32"
        },
        {
          "internalType": "address",
          "name": "account",
          "type": "address"
        }
      ],
      "name": "grantRole",
      "outputs": [],
      "stateMutability": "nonpayable",
      "type": "function"
    },
    {
      "inputs": [
        {
          "internalType": "bytes32",
          "name": "role",
          "type": "bytes32"
        },
        {
          "internalType": "address",
          "name": "account",
          "type": "address"
        }
      ],
      "name": "hasRole",
      "outputs": [
        {
          "internalType": "bool",
          "name": "",
          "type": "bool"
        }
      ],
      "stateMutability": "view",
      "type": "function"
    },
    {
      "inputs": [
        {
          "internalType": "bool",
          "name": "_isLong",
          "type": "bool"
        }
      ],
      "name": "initialize",
      "outputs": [],
      "stateMutability": "nonpayable",
      "type": "function"
    },
    {
      "inputs": [],
      "name": "isLong",
      "outputs": [
        {
          "internalType": "bool",
          "name": "",
          "type": "bool"
        }
      ],
      "stateMutability": "view",
      "type": "function"
    },
    {
      "inputs": [
        {
          "internalType": "address",
          "name": "",
          "type": "address"
        }
      ],
      "name": "orderNum",
      "outputs": [
        {
          "internalType": "uint256",
          "name": "",
          "type": "uint256"
        }
      ],
      "stateMutability": "view",
      "type": "function"
    },
    {
      "inputs": [
        {
          "internalType": "bytes32",
          "name": "",
          "type": "bytes32"
        }
      ],
      "name": "orders",
      "outputs": [
        {
          "internalType": "uint8",
          "name": "version",
          "type": "uint8"
        },
        {
          "internalType": "uint32",
          "name": "updatedAtBlock",
          "type": "uint32"
        },
        {
          "internalType": "uint8",
          "name": "triggerAbove",
          "type": "uint8"
        },
        {
          "internalType": "address",
          "name": "account",
          "type": "address"
        },
        {
          "internalType": "uint48",
          "name": "extra3",
          "type": "uint48"
        },
        {
          "internalType": "uint128",
          "name": "collateral",
          "type": "uint128"
        },
        {
          "internalType": "uint128",
          "name": "size",
          "type": "uint128"
        },
        {
          "internalType": "uint128",
          "name": "price",
          "type": "uint128"
        },
        {
          "internalType": "uint128",
          "name": "extra1",
          "type": "uint128"
        },
        {
          "internalType": "uint64",
          "name": "orderID",
          "type": "uint64"
        },
        {
          "internalType": "uint64",
          "name": "extra2",
          "type": "uint64"
        },
        {
          "internalType": "uint128",
          "name": "extra0",
          "type": "uint128"
        },
        {
          "internalType": "bytes32",
          "name": "refCode",
          "type": "bytes32"
        }
      ],
      "stateMutability": "view",
      "type": "function"
    },
    {
      "inputs": [
        {
          "internalType": "address",
          "name": "",
          "type": "address"
        }
      ],
      "name": "ordersIndex",
      "outputs": [
        {
          "internalType": "uint256",
          "name": "",
          "type": "uint256"
        }
      ],
      "stateMutability": "view",
      "type": "function"
    },
    {
      "inputs": [],
      "name": "owner",
      "outputs": [
        {
          "internalType": "address",
          "name": "",
          "type": "address"
        }
      ],
      "stateMutability": "view",
      "type": "function"
    },
    {
      "inputs": [
        {
          "internalType": "bytes32",
          "name": "key",
          "type": "bytes32"
        }
      ],
      "name": "remove",
      "outputs": [
        {
          "components": [
            {
              "internalType": "uint8",
              "name": "version",
              "type": "uint8"
            },
            {
              "internalType": "uint32",
              "name": "updatedAtBlock",
              "type": "uint32"
            },
            {
              "internalType": "uint8",
              "name": "triggerAbove",
              "type": "uint8"
            },
            {
              "internalType": "address",
              "name": "account",
              "type": "address"
            },
            {
              "internalType": "uint48",
              "name": "extra3",
              "type": "uint48"
            },
            {
              "internalType": "uint128",
              "name": "collateral",
              "type": "uint128"
            },
            {
              "internalType": "uint128",
              "name": "size",
              "type": "uint128"
            },
            {
              "internalType": "uint128",
              "name": "price",
              "type": "uint128"
            },
            {
              "internalType": "uint128",
              "name": "extra1",
              "type": "uint128"
            },
            {
              "internalType": "uint64",
              "name": "orderID",
              "type": "uint64"
            },
            {
              "internalType": "uint64",
              "name": "extra2",
              "type": "uint64"
            },
            {
              "internalType": "uint128",
              "name": "extra0",
              "type": "uint128"
            },
            {
              "internalType": "bytes32",
              "name": "refCode",
              "type": "bytes32"
            }
          ],
          "internalType": "struct Order.Props",
          "name": "order",
          "type": "tuple"
        }
      ],
      "stateMutability": "nonpayable",
      "type": "function"
    },
    {
      "inputs": [],
      "name": "renounceOwnership",
      "outputs": [],
      "stateMutability": "nonpayable",
      "type": "function"
    },
    {
      "inputs": [
        {
          "internalType": "bytes32",
          "name": "role",
          "type": "bytes32"
        },
        {
          "internalType": "address",
          "name": "account",
          "type": "address"
        }
      ],
      "name": "renounceRole",
      "outputs": [],
      "stateMutability": "nonpayable",
      "type": "function"
    },
    {
      "inputs": [
        {
          "internalType": "bytes32",
          "name": "role",
          "type": "bytes32"
        },
        {
          "internalType": "address",
          "name": "account",
          "type": "address"
        }
      ],
      "name": "revokeRole",
      "outputs": [],
      "stateMutability": "nonpayable",
      "type": "function"
    },
    {
      "inputs": [
        {
          "components": [
            {
              "internalType": "uint8",
              "name": "version",
              "type": "uint8"
            },
            {
              "internalType": "uint32",
              "name": "updatedAtBlock",
              "type": "uint32"
            },
            {
              "internalType": "uint8",
              "name": "triggerAbove",
              "type": "uint8"
            },
            {
              "internalType": "address",
              "name": "account",
              "type": "address"
            },
            {
              "internalType": "uint48",
              "name": "extra3",
              "type": "uint48"
            },
            {
              "internalType": "uint128",
              "name": "collateral",
              "type": "uint128"
            },
            {
              "internalType": "uint128",
              "name": "size",
              "type": "uint128"
            },
            {
              "internalType": "uint128",
              "name": "price",
              "type": "uint128"
            },
            {
              "internalType": "uint128",
              "name": "extra1",
              "type": "uint128"
            },
            {
              "internalType": "uint64",
              "name": "orderID",
              "type": "uint64"
            },
            {
              "internalType": "uint64",
              "name": "extra2",
              "type": "uint64"
            },
            {
              "internalType": "uint128",
              "name": "extra0",
              "type": "uint128"
            },
            {
              "internalType": "bytes32",
              "name": "refCode",
              "type": "bytes32"
            }
          ],
          "internalType": "struct Order.Props",
          "name": "order",
          "type": "tuple"
        }
      ],
      "name": "set",
      "outputs": [],
      "stateMutability": "nonpayable",
      "type": "function"
    },
    {
      "inputs": [
        {
          "internalType": "bytes4",
          "name": "interfaceId",
          "type": "bytes4"
        }
      ],
      "name": "supportsInterface",
      "outputs": [
        {
          "internalType": "bool",
          "name": "",
          "type": "bool"
        }
      ],
      "stateMutability": "view",
      "type": "function"
    },
    {
      "inputs": [
        {
          "internalType": "address",
          "name": "to",
          "type": "address"
        }
      ],
      "name": "transferAdmin",
      "outputs": [],
      "stateMutability": "nonpayable",
      "type": "function"
    },
    {
      "inputs": [
        {
          "internalType": "address",
          "name": "newOwner",
          "type": "address"
        }
      ],
      "name": "transferOwnership",
      "outputs": [],
      "stateMutability": "nonpayable",
      "type": "function"
    }
  ],
  "bytecode": "0x60806040523480156200001157600080fd5b50604051620022db380380620022db83398101604081905262000034916200018c565b8062000040336200005e565b6200005681620000b060201b6200115f1760201c565b5050620001be565b600180546001600160a01b038381166001600160a01b0319831681179093556040519116919082907f8be0079c531659141344cd1fd0a4f28419497f9722a3daafe3b4186f6b6457e090600090a35050565b42600255620000bf336200005e565b620000cc600033620000dc565b620000d9600082620000dc565b50565b620000e88282620000ec565b5050565b6000828152602081815260408083206001600160a01b038516845290915290205460ff16620000e8576000828152602081815260408083206001600160a01b03851684529091529020805460ff19166001179055620001483390565b6001600160a01b0316816001600160a01b0316837f2f8788117e7eff1d82e926ec794901d17c78024a50270940304540a733656f0d60405160405180910390a45050565b6000602082840312156200019f57600080fd5b81516001600160a01b0381168114620001b757600080fd5b9392505050565b61210d80620001ce6000396000f3fe608060405234801561001057600080fd5b50600436106101c45760003560e01c80637fe4a698116100f9578063b4d1cbad11610097578063d547741f11610071578063d547741f1461052b578063f0b3e5021461053e578063f2fde38b14610551578063f6b102a61461056457600080fd5b8063b4d1cbad146104e5578063bb5b27e114610505578063d53a822f1461051857600080fd5b806395bc2673116100d357806395bc26731461036c5780639c3f1e901461037f578063a217fddf146104d5578063a87d942c146104dd57600080fd5b80637fe4a6981461032b5780638da5cb5b1461033e57806391d148541461035957600080fd5b80632f2ff15d116101665780635b8d9775116101405780635b8d9775146102d05780636a19ffba146102f0578063715018a61461031057806375829def1461031857600080fd5b80632f2ff15d1461029757806336568abe146102aa5780634bbaf8e8146102bd57600080fd5b8063202a61a1116101a2578063202a61a114610224578063248a9ca3146102315780632597382b146102625780632d883a731461027757600080fd5b806301ffc9a7146101c95780630fb400e8146101f15780631c1b6fcd14610211575b600080fd5b6101dc6101d7366004611af0565b610577565b60405190151581526020015b60405180910390f35b6102046101ff366004611b31565b6105ae565b6040516101e89190611c6e565b61020461021f366004611b31565b6107a8565b6003546101dc9060ff1681565b61025461023f366004611cbd565b60009081526020819052604090206001015490565b6040519081526020016101e8565b610275610270366004611d8c565b610905565b005b61028a610285366004611cbd565b610af7565b6040516101e89190611e85565b6102756102a5366004611e94565b610bfd565b6102756102b8366004611e94565b610c22565b6102756102cb366004611d8c565b610ca5565b6102546102de366004611b31565b60076020526000908152604090205481565b6102546102fe366004611b31565b60086020526000908152604090205481565b610275610e21565b610275610326366004611b31565b610e35565b610275610339366004611b31565b610e5f565b6001546040516001600160a01b0390911681526020016101e8565b6101dc610367366004611e94565b610e89565b61028a61037a366004611cbd565b610eb2565b61043861038d366004611cbd565b60046020819052600091825260409091208054600182015460028301546003840154939094015460ff80841695610100850463ffffffff1695600160281b860490921694600160301b81046001600160a01b031694600160d01b90910465ffffffffffff16936001600160801b0380831694600160801b9384900482169482811694908190048316936001600160401b0380841694600160401b85049091169392909204909116908d565b6040805160ff9e8f16815263ffffffff909d1660208e01529c909a169b8b019b909b526001600160a01b0390971660608a015265ffffffffffff90951660808901526001600160801b0393841660a089015291831660c0880152821660e087015281166101008601526001600160401b0391821661012086015291166101408401529092166101608201526101808101919091526101a0016101e8565b610254600081565b610254610ef2565b6104f86104f3366004611ec0565b610f03565b6040516101e89190611ee2565b610254610513366004611cbd565b610f18565b610275610526366004611f1a565b610f25565b610275610539366004611e94565b611053565b61025461054c366004611b31565b611078565b61027561055f366004611b31565b6110d9565b6101dc610572366004611cbd565b611152565b60006001600160e01b03198216637965db0b60e01b14806105a857506301ffc9a760e01b6001600160e01b03198316145b92915050565b6001600160a01b0381166000908152600960205260408120606091906105d390611182565b905060006105e08261118f565b9050806001600160401b038111156105fa576105fa611cd6565b60405190808252806020026020018201604052801561063357816020015b610620611a52565b8152602001906001900390816106185790505b508251909350600090815b818110801561064c57508383105b1561079e57600085828151811061066557610665611f3c565b602002602001015190506106838160056111fd90919063ffffffff16565b156107955760008181526004602081815260409283902083516101a081018552815460ff808216835261010080830463ffffffff1695840195909552600160281b82041695820195909552600160301b85046001600160a01b03166060820152600160d01b90940465ffffffffffff16608085015260018101546001600160801b0380821660a0870152600160801b91829004811660c0870152600283015480821660e088015282900481169386019390935260038201546001600160401b03808216610120880152600160401b8204166101408701520490911661016084015201546101808201528751819089908790811061078257610782611f3c565b6020026020010181905250846001019450505b5060010161063e565b5050505050919050565b60606107c16000805160206120b8833981519152611215565b6001600160a01b03821660009081526009602052604081206107e290611182565b905060006107ef8261118f565b8251909150816001600160401b0381111561080c5761080c611cd6565b60405190808252806020026020018201604052801561084557816020015b610832611a52565b81526020019060019003908161082a5790505b5093506000805b828110801561085a57508382105b156108d257600085828151811061087357610873611f3c565b602002602001015190506108918160056111fd90919063ffffffff16565b156108c95760006108a18261121f565b9050808885815181106108b6576108b6611f3c565b6020908102919091010152506001909201915b5060010161084c565b506001600160a01b03861660009081526009602052604081209081816108f88282611abe565b5050505050505050919050565b61091c6000805160206120b8833981519152611215565b4263ffffffff166020820152600061093382611392565b600081815260046020818152604092839020865181549288015194880151606089015160808a015165ffffffffffff16600160d01b026001600160d01b036001600160a01b03909216600160301b026601000000000000600160d01b031960ff948516600160281b021665010000000000600160d01b031963ffffffff9a8b1661010090810264ffffffffff19909a169690971695909517979097179390931695909517919091171692909217815560a087015160c08801516001600160801b03908116600160801b90810292821692909217600184015560e089015193890151811682029381169390931760028301556101208801516003830180546101408b01516101608c015187169094026001600160401b03948516600160401b026001600160801b03199290921694909316939093179290921790931692909217909155610180860151910155909150610a909060059083906113f716565b5060608201516001600160a01b03166000908152600860205260408120805460019290610abe908490611f68565b90915550610af29050610ad083611392565b60608401516001600160a01b03166000908152600960205260409020906113f7565b505050565b610aff611a52565b60046000610b0e600585611403565b8152602080820192909252604090810160002081516101a081018352815460ff808216835261010080830463ffffffff1696840196909652600160281b82041693820193909352600160301b83046001600160a01b03166060820152600160d01b90920465ffffffffffff16608083015260018101546001600160801b0380821660a0850152600160801b91829004811660c0850152600283015480821660e086015282900481169484019490945260038201546001600160401b03808216610120860152600160401b8204166101408501520490921661016082015260049091015461018082015292915050565b600082815260208190526040902060010154610c1881611215565b610af2838361140f565b6001600160a01b0381163314610c975760405162461bcd60e51b815260206004820152602f60248201527f416363657373436f6e74726f6c3a2063616e206f6e6c792072656e6f756e636560448201526e103937b632b9903337b91039b2b63360891b60648201526084015b60405180910390fd5b610ca18282611493565b5050565b610cbc6000805160206120b8833981519152611215565b6000610cc782611392565b4263ffffffff16602084015290506000908152600460208181526040928390208451815492860151948601516060870151608088015160ff93841664ffffffffff199096169590951761010063ffffffff90981688021765010000000000600160d01b031916600160281b93909216929092026601000000000000600160d01b03191617600160301b6001600160a01b0390921691909102176001600160d01b0316600160d01b65ffffffffffff9093169290920291909117815560a084015160c08501516001600160801b03918216600160801b918316820217600184015560e08601519486015194821694821681029490941760028301556101208501516003830180546101408801516101608901516001600160401b039485166001600160801b031990931692909217600160401b9490911693909302929092178316919092169094029390931790925561018090920151910155565b610e296114f8565b610e336000611552565b565b6000610e4081611215565b610e4b6000836115a4565b610e5482611552565b610ca1600033611493565b7f8d1089725c0dc266707fa6207730fb801dcd03108bfed7a21099bd303651d2b76101c481611215565b6000918252602082815260408084206001600160a01b0393909316845291905290205460ff1690565b610eba611a52565b610ed16000805160206120b8833981519152611215565b610edc6005836111fd565b15610eed57610eea8261121f565b90505b919050565b6000610efe60056115ae565b905090565b6060610f11600584846115b8565b9392505050565b60006105a8600583611403565b600154600160a81b900460ff1615808015610f4b575060018054600160a01b900460ff16105b80610f6b5750303b158015610f6b575060018054600160a01b900460ff16145b610fce5760405162461bcd60e51b815260206004820152602e60248201527f496e697469616c697a61626c653a20636f6e747261637420697320616c72656160448201526d191e481a5b9a5d1a585b1a5e995960921b6064820152608401610c8e565b6001805460ff60a01b1916600160a01b1790558015610ffb576001805460ff60a81b1916600160a81b1790555b6003805460ff19168315151790558015610ca1576001805460ff60a81b191681556040519081527f7f26b83ff96e1f2b6a682f133852f6798a09c465da95921460cefb38474024989060200160405180910390a15050565b60008281526020819052604090206001015461106e81611215565b610af28383611493565b60006110916000805160206120b8833981519152611215565b506001600160a01b038116600090815260076020526040812054908190036110b7575060015b6001600160a01b03909116600090815260076020526040902060018201905590565b6110e16114f8565b6001600160a01b0381166111465760405162461bcd60e51b815260206004820152602660248201527f4f776e61626c653a206e6577206f776e657220697320746865207a65726f206160448201526564647265737360d01b6064820152608401610c8e565b61114f81611552565b50565b60006105a86005836111fd565b4260025561116c33611552565b6111776000336115a4565b61114f6000826115a4565b60606000610f1183611678565b8051600090815b818110156111f65760008482815181106111b2576111b2611f3c565b602002602001015190506111d08160056111fd90919063ffffffff16565b156111e357836111df81611f7b565b9450505b50806111ee81611f7b565b915050611196565b5050919050565b60008181526001830160205260408120541515610f11565b61114f81336116d4565b611227611a52565b50600081815260046020818152604080842081516101a081018352815460ff808216835261010080830463ffffffff1684880152600160281b830490911683860152600160301b82046001600160a01b031660608401819052600160d01b90920465ffffffffffff1660808401526001808501546001600160801b0380821660a0870152600160801b91829004811660c0870152600287015480821660e088015282900481169386019390935260038601546001600160401b03808216610120880152600160401b8204166101408701520490911661016084015292909501546101808201529385526008909252832080549293919290919061132b908490611f94565b909155505060008281526004602081905260408220828155600181018390556002810183905560038101839055015561136560058361172d565b5060608101516001600160a01b0316600090815260096020526040902061138c908361172d565b50919050565b600081606001518261012001516040516020016113da92919060609290921b6bffffffffffffffffffffffff1916825260c01b6001600160c01b0319166014820152601c0190565b604051602081830303815290604052805190602001209050919050565b6000610f118383611739565b6000610f118383611788565b6114198282610e89565b610ca1576000828152602081815260408083206001600160a01b03851684529091529020805460ff1916600117905561144f3390565b6001600160a01b0316816001600160a01b0316837f2f8788117e7eff1d82e926ec794901d17c78024a50270940304540a733656f0d60405160405180910390a45050565b61149d8282610e89565b15610ca1576000828152602081815260408083206001600160a01b0385168085529252808320805460ff1916905551339285917ff6391f5c32d9c69d2a47ea670b442974b53935d1edc7fd64eb21e047a839171b9190a45050565b6001546001600160a01b03163314610e335760405162461bcd60e51b815260206004820181905260248201527f4f776e61626c653a2063616c6c6572206973206e6f7420746865206f776e65726044820152606401610c8e565b600180546001600160a01b038381166001600160a01b0319831681179093556040519116919082907f8be0079c531659141344cd1fd0a4f28419497f9722a3daafe3b4186f6b6457e090600090a35050565b610ca1828261140f565b60006105a8825490565b606060006115c5856115ae565b9050808311156115d3578092505b60006115df8585611f94565b6001600160401b038111156115f6576115f6611cd6565b60405190808252806020026020018201604052801561161f578160200160208202803683370190505b509050845b8481101561166e576116368782611403565b826116418884611f94565b8151811061165157611651611f3c565b60209081029190910101528061166681611f7b565b915050611624565b5095945050505050565b6060816000018054806020026020016040519081016040528092919081815260200182805480156116c857602002820191906000526020600020905b8154815260200190600101908083116116b4575b50505050509050919050565b6116de8282610e89565b610ca1576116eb816117b2565b6116f68360206117c4565b604051602001611707929190611fcb565b60408051601f198184030181529082905262461bcd60e51b8252610c8e91600401612040565b6000610f11838361195f565b6000818152600183016020526040812054611780575081546001818101845560008481526020808220909301849055845484825282860190935260409020919091556105a8565b5060006105a8565b600082600001828154811061179f5761179f611f3c565b9060005260206000200154905092915050565b60606105a86001600160a01b03831660145b606060006117d3836002612073565b6117de906002611f68565b6001600160401b038111156117f5576117f5611cd6565b6040519080825280601f01601f19166020018201604052801561181f576020820181803683370190505b509050600360fc1b8160008151811061183a5761183a611f3c565b60200101906001600160f81b031916908160001a905350600f60fb1b8160018151811061186957611869611f3c565b60200101906001600160f81b031916908160001a905350600061188d846002612073565b611898906001611f68565b90505b6001811115611910576f181899199a1a9b1b9c1cb0b131b232b360811b85600f16601081106118cc576118cc611f3c565b1a60f81b8282815181106118e2576118e2611f3c565b60200101906001600160f81b031916908160001a90535060049490941c936119098161208a565b905061189b565b508315610f115760405162461bcd60e51b815260206004820181905260248201527f537472696e67733a20686578206c656e67746820696e73756666696369656e746044820152606401610c8e565b60008181526001830160205260408120548015611a48576000611983600183611f94565b855490915060009061199790600190611f94565b90508181146119fc5760008660000182815481106119b7576119b7611f3c565b90600052602060002001549050808760000184815481106119da576119da611f3c565b6000918252602080832090910192909255918252600188019052604090208390555b8554869080611a0d57611a0d6120a1565b6001900381819060005260206000200160009055905585600101600086815260200190815260200160002060009055600193505050506105a8565b60009150506105a8565b604080516101a081018252600080825260208201819052918101829052606081018290526080810182905260a0810182905260c0810182905260e08101829052610100810182905261012081018290526101408101829052610160810182905261018081019190915290565b508054600082559060005260206000209081019061114f91905b80821115611aec5760008155600101611ad8565b5090565b600060208284031215611b0257600080fd5b81356001600160e01b031981168114610f1157600080fd5b80356001600160a01b0381168114610eed57600080fd5b600060208284031215611b4357600080fd5b610f1182611b1a565b805160ff1682526020810151611b6a602084018263ffffffff169052565b506040810151611b7f604084018260ff169052565b506060810151611b9a60608401826001600160a01b03169052565b506080810151611bb4608084018265ffffffffffff169052565b5060a0810151611bcf60a08401826001600160801b03169052565b5060c0810151611bea60c08401826001600160801b03169052565b5060e0810151611c0560e08401826001600160801b03169052565b50610100818101516001600160801b038116848301525050610120818101516001600160401b038116848301525050610140818101516001600160401b038116848301525050610160818101516001600160801b03811684830152505061018090810151910152565b6020808252825182820181905260009190848201906040850190845b81811015611cb157611c9d838551611b4c565b928401926101a09290920191600101611c8a565b50909695505050505050565b600060208284031215611ccf57600080fd5b5035919050565b634e487b7160e01b600052604160045260246000fd5b6040516101a081016001600160401b0381118282101715611d1d57634e487b7160e01b600052604160045260246000fd5b60405290565b803560ff81168114610eed57600080fd5b803563ffffffff81168114610eed57600080fd5b803565ffffffffffff81168114610eed57600080fd5b80356001600160801b0381168114610eed57600080fd5b80356001600160401b0381168114610eed57600080fd5b60006101a08284031215611d9f57600080fd5b611da7611cec565b611db083611d23565b8152611dbe60208401611d34565b6020820152611dcf60408401611d23565b6040820152611de060608401611b1a565b6060820152611df160808401611d48565b6080820152611e0260a08401611d5e565b60a0820152611e1360c08401611d5e565b60c0820152611e2460e08401611d5e565b60e0820152610100611e37818501611d5e565b90820152610120611e49848201611d75565b90820152610140611e5b848201611d75565b90820152610160611e6d848201611d5e565b90820152610180928301359281019290925250919050565b6101a081016105a88284611b4c565b60008060408385031215611ea757600080fd5b82359150611eb760208401611b1a565b90509250929050565b60008060408385031215611ed357600080fd5b50508035926020909101359150565b6020808252825182820181905260009190848201906040850190845b81811015611cb157835183529284019291840191600101611efe565b600060208284031215611f2c57600080fd5b81358015158114610f1157600080fd5b634e487b7160e01b600052603260045260246000fd5b634e487b7160e01b600052601160045260246000fd5b808201808211156105a8576105a8611f52565b600060018201611f8d57611f8d611f52565b5060010190565b818103818111156105a8576105a8611f52565b60005b83811015611fc2578181015183820152602001611faa565b50506000910152565b7f416363657373436f6e74726f6c3a206163636f756e7420000000000000000000815260008351612003816017850160208801611fa7565b7001034b99036b4b9b9b4b733903937b6329607d1b6017918401918201528351612034816028840160208801611fa7565b01602801949350505050565b602081526000825180602084015261205f816040850160208701611fa7565b601f01601f19169190910160400192915050565b80820281158282048414176105a8576105a8611f52565b60008161209957612099611f52565b506000190190565b634e487b7160e01b600052603160045260246000fdfecb58d6d985142a614029cdf01861b4fe094d5919a47e69b8310dc4093d9d6ad0a26469706673582212200a6be772c80a677b5b2b313c6fcc93802d35cef7531a8e21fb4ce1afedf9c60a64736f6c63430008110033",
  "linkReferences": {},
  "deployedLinkReferences": {}
}