{
  "_format": "hh-sol-artifact-1",
  "contractName": "VaultRouter",
  "sourceName": "contracts/vault/VaultRouter.sol",
  "abi": [
    {
      "anonymous": false,
      "inputs": [
        {
          "indexed": true,
          "internalType": "address",
          "name": "market",
          "type": "address"
        },
        {
          "indexed": false,
          "internalType": "uint256",
          "name": "amount",
          "type": "uint256"
        },
        {
          "indexed": false,
          "internalType": "uint256",
          "name": "totalFundsUsed",
          "type": "uint256"
        }
      ],
      "name": "FundsUsedUpdated",
      "type": "event"
    },
    {
      "anonymous": false,
      "inputs": [
        {
          "indexed": false,
          "internalType": "uint8",
          "name": "version",
          "type": "uint8"
        }
      ],
      "name": "Initialized",
      "type": "event"
    },
    {
      "anonymous": false,
      "inputs": [
        {
          "indexed": false,
          "internalType": "bool",
          "name": "isFreeze",
          "type": "bool"
        },
        {
          "indexed": false,
          "internalType": "uint256",
          "name": "freezeType",
          "type": "uint256"
        }
      ],
      "name": "LogIsFreeze",
      "type": "event"
    },
    {
      "anonymous": false,
      "inputs": [
        {
          "indexed": false,
          "internalType": "address",
          "name": "market",
          "type": "address"
        },
        {
          "indexed": false,
          "internalType": "address",
          "name": "vault",
          "type": "address"
        }
      ],
      "name": "MarketRemoved",
      "type": "event"
    },
    {
      "anonymous": false,
      "inputs": [
        {
          "indexed": false,
          "internalType": "address",
          "name": "market",
          "type": "address"
        },
        {
          "indexed": false,
          "internalType": "address",
          "name": "vault",
          "type": "address"
        }
      ],
      "name": "MarketSetted",
      "type": "event"
    },
    {
      "anonymous": false,
      "inputs": [
        {
          "indexed": true,
          "internalType": "address",
          "name": "previousOwner",
          "type": "address"
        },
        {
          "indexed": true,
          "internalType": "address",
          "name": "newOwner",
          "type": "address"
        }
      ],
      "name": "OwnershipTransferred",
      "type": "event"
    },
    {
      "anonymous": false,
      "inputs": [
        {
          "indexed": true,
          "internalType": "bytes32",
          "name": "role",
          "type": "bytes32"
        },
        {
          "indexed": true,
          "internalType": "bytes32",
          "name": "previousAdminRole",
          "type": "bytes32"
        },
        {
          "indexed": true,
          "internalType": "bytes32",
          "name": "newAdminRole",
          "type": "bytes32"
        }
      ],
      "name": "RoleAdminChanged",
      "type": "event"
    },
    {
      "anonymous": false,
      "inputs": [
        {
          "indexed": true,
          "internalType": "bytes32",
          "name": "role",
          "type": "bytes32"
        },
        {
          "indexed": true,
          "internalType": "address",
          "name": "account",
          "type": "address"
        },
        {
          "indexed": true,
          "internalType": "address",
          "name": "sender",
          "type": "address"
        }
      ],
      "name": "RoleGranted",
      "type": "event"
    },
    {
      "anonymous": false,
      "inputs": [
        {
          "indexed": true,
          "internalType": "bytes32",
          "name": "role",
          "type": "bytes32"
        },
        {
          "indexed": true,
          "internalType": "address",
          "name": "account",
          "type": "address"
        },
        {
          "indexed": true,
          "internalType": "address",
          "name": "sender",
          "type": "address"
        }
      ],
      "name": "RoleRevoked",
      "type": "event"
    },
    {
      "inputs": [],
      "name": "DEFAULT_ADMIN_ROLE",
      "outputs": [
        {
          "internalType": "bytes32",
          "name": "",
          "type": "bytes32"
        }
      ],
      "stateMutability": "view",
      "type": "function"
    },
    {
      "inputs": [
        {
          "internalType": "uint256",
          "name": "amount",
          "type": "uint256"
        }
      ],
      "name": "borrowFromVault",
      "outputs": [],
      "stateMutability": "nonpayable",
      "type": "function"
    },
    {
      "inputs": [
        {
          "internalType": "contract ICoreVault",
          "name": "vault",
          "type": "address"
        }
      ],
      "name": "buyLpFee",
      "outputs": [
        {
          "internalType": "uint256",
          "name": "",
          "type": "uint256"
        }
      ],
      "stateMutability": "view",
      "type": "function"
    },
    {
      "inputs": [],
      "name": "coreVault",
      "outputs": [
        {
          "internalType": "contract ICoreVault",
          "name": "",
          "type": "address"
        }
      ],
      "stateMutability": "view",
      "type": "function"
    },
    {
      "inputs": [],
      "name": "feeRouter",
      "outputs": [
        {
          "internalType": "contract IFeeRouter",
          "name": "",
          "type": "address"
        }
      ],
      "stateMutability": "view",
      "type": "function"
    },
    {
      "inputs": [
        {
          "internalType": "address",
          "name": "",
          "type": "address"
        }
      ],
      "name": "fundsUsed",
      "outputs": [
        {
          "internalType": "uint256",
          "name": "",
          "type": "uint256"
        }
      ],
      "stateMutability": "view",
      "type": "function"
    },
    {
      "inputs": [],
      "name": "getAUM",
      "outputs": [
        {
          "internalType": "uint256",
          "name": "",
          "type": "uint256"
        }
      ],
      "stateMutability": "view",
      "type": "function"
    },
    {
      "inputs": [],
      "name": "getGlobalPnl",
      "outputs": [
        {
          "internalType": "int256",
          "name": "",
          "type": "int256"
        }
      ],
      "stateMutability": "view",
      "type": "function"
    },
    {
      "inputs": [
        {
          "internalType": "bytes32",
          "name": "role",
          "type": "bytes32"
        }
      ],
      "name": "getRoleAdmin",
      "outputs": [
        {
          "internalType": "bytes32",
          "name": "",
          "type": "bytes32"
        }
      ],
      "stateMutability": "view",
      "type": "function"
    },
    {
      "inputs": [],
      "name": "getUSDBalance",
      "outputs": [
        {
          "internalType": "uint256",
          "name": "",
          "type": "uint256"
        }
      ],
      "stateMutability": "view",
      "type": "function"
    },
    {
      "inputs": [
        {
          "internalType": "address",
          "name": "_account",
          "type": "address"
        }
      ],
      "name": "grantControllerRoleByMarketManager",
      "outputs": [],
      "stateMutability": "nonpayable",
      "type": "function"
    },
    {
      "inputs": [
        {
          "internalType": "bytes32",
          "name": "role",
          "type": "bytes32"
        },
        {
          "internalType": "address",
          "name": "account",
          "type": "address"
        }
      ],
      "name": "grantRole",
      "outputs": [],
      "stateMutability": "nonpayable",
      "type": "function"
    },
    {
      "inputs": [
        {
          "internalType": "bytes32",
          "name": "role",
          "type": "bytes32"
        },
        {
          "internalType": "address",
          "name": "account",
          "type": "address"
        }
      ],
      "name": "hasRole",
      "outputs": [
        {
          "internalType": "bool",
          "name": "",
          "type": "bool"
        }
      ],
      "stateMutability": "view",
      "type": "function"
    },
    {
      "inputs": [
        {
          "internalType": "address",
          "name": "_coreVault",
          "type": "address"
        },
        {
          "internalType": "address",
          "name": "_feeRouter",
          "type": "address"
        }
      ],
      "name": "initialize",
      "outputs": [],
      "stateMutability": "nonpayable",
      "type": "function"
    },
    {
      "inputs": [],
      "name": "isFreezeAccouting",
      "outputs": [
        {
          "internalType": "bool",
          "name": "",
          "type": "bool"
        }
      ],
      "stateMutability": "view",
      "type": "function"
    },
    {
      "inputs": [],
      "name": "isFreezeTransfer",
      "outputs": [
        {
          "internalType": "bool",
          "name": "",
          "type": "bool"
        }
      ],
      "stateMutability": "view",
      "type": "function"
    },
    {
      "inputs": [
        {
          "internalType": "address",
          "name": "",
          "type": "address"
        }
      ],
      "name": "marketVaults",
      "outputs": [
        {
          "internalType": "contract ICoreVault",
          "name": "",
          "type": "address"
        }
      ],
      "stateMutability": "view",
      "type": "function"
    },
    {
      "inputs": [],
      "name": "owner",
      "outputs": [
        {
          "internalType": "address",
          "name": "",
          "type": "address"
        }
      ],
      "stateMutability": "view",
      "type": "function"
    },
    {
      "inputs": [],
      "name": "priceDecimals",
      "outputs": [
        {
          "internalType": "uint256",
          "name": "",
          "type": "uint256"
        }
      ],
      "stateMutability": "pure",
      "type": "function"
    },
    {
      "inputs": [
        {
          "internalType": "address",
          "name": "market",
          "type": "address"
        }
      ],
      "name": "removeMarket",
      "outputs": [],
      "stateMutability": "nonpayable",
      "type": "function"
    },
    {
      "inputs": [],
      "name": "renounceOwnership",
      "outputs": [],
      "stateMutability": "nonpayable",
      "type": "function"
    },
    {
      "inputs": [
        {
          "internalType": "bytes32",
          "name": "role",
          "type": "bytes32"
        },
        {
          "internalType": "address",
          "name": "account",
          "type": "address"
        }
      ],
      "name": "renounceRole",
      "outputs": [],
      "stateMutability": "nonpayable",
      "type": "function"
    },
    {
      "inputs": [
        {
          "internalType": "uint256",
          "name": "amount",
          "type": "uint256"
        }
      ],
      "name": "repayToVault",
      "outputs": [],
      "stateMutability": "nonpayable",
      "type": "function"
    },
    {
      "inputs": [
        {
          "internalType": "bytes32",
          "name": "role",
          "type": "bytes32"
        },
        {
          "internalType": "address",
          "name": "account",
          "type": "address"
        }
      ],
      "name": "revokeRole",
      "outputs": [],
      "stateMutability": "nonpayable",
      "type": "function"
    },
    {
      "inputs": [
        {
          "internalType": "contract ICoreVault",
          "name": "vault",
          "type": "address"
        }
      ],
      "name": "sellLpFee",
      "outputs": [
        {
          "internalType": "uint256",
          "name": "",
          "type": "uint256"
        }
      ],
      "stateMutability": "view",
      "type": "function"
    },
    {
      "inputs": [
        {
          "internalType": "bool",
          "name": "f",
          "type": "bool"
        },
        {
          "internalType": "uint256",
          "name": "freezeType",
          "type": "uint256"
        }
      ],
      "name": "setIsFreeze",
      "outputs": [],
      "stateMutability": "nonpayable",
      "type": "function"
    },
    {
      "inputs": [
        {
          "internalType": "address",
          "name": "market",
          "type": "address"
        },
        {
          "internalType": "address",
          "name": "vault",
          "type": "address"
        }
      ],
      "name": "setMarket",
      "outputs": [],
      "stateMutability": "nonpayable",
      "type": "function"
    },
    {
      "inputs": [
        {
          "internalType": "bytes4",
          "name": "interfaceId",
          "type": "bytes4"
        }
      ],
      "name": "supportsInterface",
      "outputs": [
        {
          "internalType": "bool",
          "name": "",
          "type": "bool"
        }
      ],
      "stateMutability": "view",
      "type": "function"
    },
    {
      "inputs": [],
      "name": "totalFundsUsed",
      "outputs": [
        {
          "internalType": "uint256",
          "name": "",
          "type": "uint256"
        }
      ],
      "stateMutability": "view",
      "type": "function"
    },
    {
      "inputs": [
        {
          "internalType": "address",
          "name": "to",
          "type": "address"
        }
      ],
      "name": "transferAdmin",
      "outputs": [],
      "stateMutability": "nonpayable",
      "type": "function"
    },
    {
      "inputs": [
        {
          "internalType": "address",
          "name": "to",
          "type": "address"
        },
        {
          "internalType": "uint256",
          "name": "amount",
          "type": "uint256"
        }
      ],
      "name": "transferFromVault",
      "outputs": [],
      "stateMutability": "nonpayable",
      "type": "function"
    },
    {
      "inputs": [
        {
          "internalType": "address",
          "name": "newOwner",
          "type": "address"
        }
      ],
      "name": "transferOwnership",
      "outputs": [],
      "stateMutability": "nonpayable",
      "type": "function"
    },
    {
      "inputs": [
        {
          "internalType": "address",
          "name": "account",
          "type": "address"
        },
        {
          "internalType": "uint256",
          "name": "amount",
          "type": "uint256"
        }
      ],
      "name": "transferToVault",
      "outputs": [],
      "stateMutability": "nonpayable",
      "type": "function"
    },
    {
      "inputs": [
        {
          "internalType": "contract ICoreVault",
          "name": "",
          "type": "address"
        }
      ],
      "name": "vaultMarkets",
      "outputs": [
        {
          "internalType": "address",
          "name": "",
          "type": "address"
        }
      ],
      "stateMutability": "view",
      "type": "function"
    }
  ],
  "bytecode": "0x6080604052600a805460ff19908116909155600f8054909116905534801561002657600080fd5b506100303361003a565b600160035561008c565b600180546001600160a01b038381166001600160a01b0319831681179093556040519116919082907f8be0079c531659141344cd1fd0a4f28419497f9722a3daafe3b4186f6b6457e090600090a35050565b611d6a8061009b6000396000f3fe608060405234801561001057600080fd5b50600436106102065760003560e01c806389a71faa1161011a578063c6aee618116100ad578063db9132361161007c578063db91323614610459578063e108262f1461046c578063eb4fe8181461047f578063f29ebf6114610492578063f2fde38b146104a557600080fd5b8063c6aee6181461040d578063d53b26ee14610420578063d547741f14610433578063da8ddc741461044657600080fd5b8063a217fddf116100e9578063a217fddf146103dd578063a59e73e8146103e5578063a7c1daa4146103f2578063c12010541461040557600080fd5b806389a71faa1461037d5780638da5cb5b1461039057806391d14854146103a157806392106cbb146103b457600080fd5b806336568abe1161019d5780636dc7b0a11161016c5780636dc7b0a11461033f5780636f2a14c514610347578063715018a61461034f57806375829def146103575780637fe4a6981461036a57600080fd5b806336568abe146102c5578063485cc955146102d857806361b314cb146102eb578063674ce1b51461032c57600080fd5b8063290f5e49116101d9578063290f5e49146102705780632b8a0012146102855780632f2ff15d146102a55780633001a9a2146102b857600080fd5b806301ffc9a71461020b57806305300b281461023357806311a2ad4914610244578063248a9ca31461024d575b600080fd5b61021e61021936600461194c565b6104b8565b60405190151581526020015b60405180910390f35b60085b60405190815260200161022a565b610236600b5481565b61023661025b366004611976565b60009081526020819052604090206001015490565b61028361027e36600461199d565b6104ef565b005b6102366102933660046119de565b600c6020526000908152604090205481565b6102836102b33660046119fb565b6105f5565b600f5461021e9060ff1681565b6102836102d33660046119fb565b61061f565b6102836102e6366004611a2b565b6106a2565b6103146102f93660046119de565b600e602052600090815260409020546001600160a01b031681565b6040516001600160a01b03909116815260200161022a565b600554610314906001600160a01b031681565b6102366107fd565b61023661084e565b61028361090a565b6102836103653660046119de565b61091e565b6102836103783660046119de565b610948565b61028361038b366004611a59565b610972565b6001546001600160a01b0316610314565b61021e6103af3660046119fb565b610a33565b6103146103c23660046119de565b600d602052600090815260409020546001600160a01b031681565b610236600081565b600a5461021e9060ff1681565b610283610400366004611a2b565b610a5c565b610236610b4f565b61028361041b366004611976565b610c77565b61023661042e3660046119de565b610cf7565b6102836104413660046119fb565b610d64565b610283610454366004611a59565b610d89565b6102836104673660046119de565b610e3e565b61028361047a366004611976565b610f38565b61023661048d3660046119de565b610f8e565b600454610314906001600160a01b031681565b6102836104b33660046119de565b610fbe565b60006001600160e01b03198216637965db0b60e01b14806104e957506301ffc9a760e01b6001600160e01b03198316145b92915050565b6105187f92de27771f92d6942691d73358b3a4673e4880de8356f8f2cf452be87e02d363611034565b806000036105845760055460405163c4cc8bbb60e01b815283151560048201526001600160a01b039091169063c4cc8bbb90602401600060405180830381600087803b15801561056757600080fd5b505af115801561057b573d6000803e3d6000fd5b505050506105b6565b8060010361059f57600a805460ff19168315151790556105b6565b806002036105b657600f805460ff19168315151790555b604080518315158152602081018390527f32a2e913e263febe3421a6e85924137ecf50c1aaec4f37b3deec772651f21fcd910160405180910390a15050565b60008281526020819052604090206001015461061081611034565b61061a838361103e565b505050565b6001600160a01b03811633146106945760405162461bcd60e51b815260206004820152602f60248201527f416363657373436f6e74726f6c3a2063616e206f6e6c792072656e6f756e636560448201526e103937b632b9903337b91039b2b63360891b60648201526084015b60405180910390fd5b61069e82826110c2565b5050565b600154600160a81b900460ff16158080156106c8575060018054600160a01b900460ff16105b806106e85750303b1580156106e8575060018054600160a01b900460ff16145b61074b5760405162461bcd60e51b815260206004820152602e60248201527f496e697469616c697a61626c653a20636f6e747261637420697320616c72656160448201526d191e481a5b9a5d1a585b1a5e995960921b606482015260840161068b565b6001805460ff60a01b1916600160a01b1790558015610778576001805460ff60a81b1916600160a81b1790555b61078133611127565b600580546001600160a01b038086166001600160a01b0319928316179092556004805492851692909116919091179055801561061a576001805460ff60a81b191681556040519081527f7f26b83ff96e1f2b6a682f133852f6798a09c465da95921460cefb3847402498906020015b60405180910390a1505050565b60008061080861084e565b90506000610814610b4f565b90506000808313156108315761082a8383611a8d565b9050610847565b61083a83611aa0565b6108449083611abc565b90505b9392505050565b60008061085b600661114a565b90506000805b82518110156109035782818151811061087c5761087c611acf565b60200260200101516001600160a01b03166393a98e6c6040518163ffffffff1660e01b8152600401602060405180830381865afa1580156108c1573d6000803e3d6000fd5b505050506040513d601f19601f820116820180604052508101906108e59190611ae5565b6108ef9083611afe565b9150806108fb81611b26565b915050610861565b5092915050565b610912611157565b61091c60006111b1565b565b600061092981611034565b610934600083611203565b61093d826111b1565b61069e6000336110c2565b7f8d1089725c0dc266707fa6207730fb801dcd03108bfed7a21099bd303651d2b761020681611034565b610989600080516020611d15833981519152611034565b600a5460ff16156109ac5760405162461bcd60e51b815260040161068b90611b3f565b336000908152600d60209081526040918290205482516338d52e0f60e01b815292516001600160a01b039091169261061a9284926338d52e0f9260048082019392918290030181865afa158015610a07573d6000803e3d6000fd5b505050506040513d601f19601f82011682018060405250810190610a2b9190611b6b565b84838561120d565b6000918252602082815260408084206001600160a01b0393909316845291905290205460ff1690565b7fde57aa0116fb656e0ab30962f03bb7a49dccfb8fac7bf6a5cf94d0d56d0e7337610a8681611034565b6005546001600160a01b03169150610a9f60068461126d565b610aa857600080fd5b6001600160a01b038084166000818152600d6020908152604080832080549588166001600160a01b031996871681179091558352600e90915290208054909216179055610af660088361126d565b50610b0f600080516020611d158339815191528461103e565b604080516001600160a01b038086168252841660208201527f4dd2648b8febf05ec183e673f430b81feb098c55a6622cae1d6ab6a495b38c7591016107f0565b600080610b5c600861114a565b90506000805b8251811015610903576000838281518110610b7f57610b7f611acf565b60200260200101519050806001600160a01b03166338d52e0f6040518163ffffffff1660e01b8152600401602060405180830381865afa158015610bc7573d6000803e3d6000fd5b505050506040513d601f19601f82011682018060405250810190610beb9190611b6b565b6040516370a0823160e01b81526001600160a01b03838116600483015291909116906370a0823190602401602060405180830381865afa158015610c33573d6000803e3d6000fd5b505050506040513d601f19601f82011682018060405250810190610c579190611ae5565b610c619084611abc565b9250508080610c6f90611b26565b915050610b62565b610c82600633611282565b610c9e5760405162461bcd60e51b815260040161068b90611b88565b600f5460ff1615610cc15760405162461bcd60e51b815260040161068b90611b3f565b610ccc600633611282565b610ce85760405162461bcd60e51b815260040161068b90611b88565b610cf4338260016112a4565b50565b604051632e7e841560e01b8152600160048201526000906001600160a01b03831690632e7e8415906024015b602060405180830381865afa158015610d40573d6000803e3d6000fd5b505050506040513d601f19601f820116820180604052508101906104e99190611ae5565b600082815260208190526040902060010154610d7f81611034565b61061a83836110c2565b610da0600080516020611d15833981519152611034565b600a5460ff1615610dc35760405162461bcd60e51b815260040161068b90611b3f565b336000908152600d60205260409081902054905163061d86f960e11b81526001600160a01b03848116600483015260248201849052909116908190630c3b0df290604401600060405180830381600087803b158015610e2157600080fd5b505af1158015610e35573d6000803e3d6000fd5b50505050505050565b7fcb6bc1c12dd43bca8d7dd46d975f913325437d0dcd5978e99d515e4ad39b9772610e6881611034565b610e7360068361139b565b506001600160a01b038083166000908152600d602052604090205416610e9a60088261139b565b506001600160a01b038084166000818152600d6020818152604080842080549096168452600e8252832080546001600160a01b03199081169091559390925290528154169055610ef8600080516020611d15833981519152846110c2565b604080516001600160a01b038086168252831660208201527fe53458cf1e128fd9dd751ec85180c9b93f69b6b6add116d5238cb46f90268d6791016107f0565b610f43600633611282565b610f5f5760405162461bcd60e51b815260040161068b90611b88565b600f5460ff1615610f825760405162461bcd60e51b815260040161068b90611b3f565b610cf4338260006112a4565b604051632e7e841560e01b8152600060048201819052906001600160a01b03831690632e7e841590602401610d23565b610fc6611157565b6001600160a01b03811661102b5760405162461bcd60e51b815260206004820152602660248201527f4f776e61626c653a206e6577206f776e657220697320746865207a65726f206160448201526564647265737360d01b606482015260840161068b565b610cf4816111b1565b610cf481336113b0565b6110488282610a33565b61069e576000828152602081815260408083206001600160a01b03851684529091529020805460ff1916600117905561107e3390565b6001600160a01b0316816001600160a01b0316837f2f8788117e7eff1d82e926ec794901d17c78024a50270940304540a733656f0d60405160405180910390a45050565b6110cc8282610a33565b1561069e576000828152602081815260408083206001600160a01b0385168085529252808320805460ff1916905551339285917ff6391f5c32d9c69d2a47ea670b442974b53935d1edc7fd64eb21e047a839171b9190a45050565b42600255611134336111b1565b61113f600033611203565b610cf4600082611203565b6060600061084783611409565b6001546001600160a01b0316331461091c5760405162461bcd60e51b815260206004820181905260248201527f4f776e61626c653a2063616c6c6572206973206e6f7420746865206f776e6572604482015260640161068b565b600180546001600160a01b038381166001600160a01b0319831681179093556040519116919082907f8be0079c531659141344cd1fd0a4f28419497f9722a3daafe3b4186f6b6457e090600090a35050565b61069e828261103e565b604080516001600160a01b0385811660248301528416604482015260648082018490528251808303909101815260849091019091526020810180516001600160e01b03166323b872dd60e01b179052611267908590611465565b50505050565b6000610847836001600160a01b038416611537565b6001600160a01b03811660009081526001830160205260408120541515610847565b80156112f457600082600b546112ba9190611abc565b6001600160a01b0385166000908152600c60205260408120805492935085929091906112e7908490611abc565b9091555050600b5561133b565b6001600160a01b0383166000908152600c60205260408120805484929061131c908490611a8d565b9250508190555081600b60008282546113359190611a8d565b90915550505b6001600160a01b0383166000818152600c60205260409081902054600b5491517f128f29b8f021c76a97203bea2d9fa18e1a05034b92c6232990dd75a7e447f6499261138e928252602082015260400190565b60405180910390a2505050565b6000610847836001600160a01b038416611586565b6113ba8282610a33565b61069e576113c781611679565b6113d283602061168b565b6040516020016113e3929190611bd9565b60408051601f198184030181529082905262461bcd60e51b825261068b91600401611c4e565b60608160000180548060200260200160405190810160405280929190818152602001828054801561145957602002820191906000526020600020905b815481526020019060010190808311611445575b50505050509050919050565b60006114ba826040518060400160405280602081526020017f5361666545524332303a206c6f772d6c6576656c2063616c6c206661696c6564815250856001600160a01b03166118279092919063ffffffff16565b80519091501561061a57808060200190518101906114d89190611c81565b61061a5760405162461bcd60e51b815260206004820152602a60248201527f5361666545524332303a204552433230206f7065726174696f6e20646964206e6044820152691bdd081cdd58d8d9595960b21b606482015260840161068b565b600081815260018301602052604081205461157e575081546001818101845560008481526020808220909301849055845484825282860190935260409020919091556104e9565b5060006104e9565b6000818152600183016020526040812054801561166f5760006115aa600183611a8d565b85549091506000906115be90600190611a8d565b90508181146116235760008660000182815481106115de576115de611acf565b906000526020600020015490508087600001848154811061160157611601611acf565b6000918252602080832090910192909255918252600188019052604090208390555b855486908061163457611634611c9e565b6001900381819060005260206000200160009055905585600101600086815260200190815260200160002060009055600193505050506104e9565b60009150506104e9565b60606104e96001600160a01b03831660145b6060600061169a836002611cb4565b6116a5906002611abc565b67ffffffffffffffff8111156116bd576116bd611ccb565b6040519080825280601f01601f1916602001820160405280156116e7576020820181803683370190505b509050600360fc1b8160008151811061170257611702611acf565b60200101906001600160f81b031916908160001a905350600f60fb1b8160018151811061173157611731611acf565b60200101906001600160f81b031916908160001a9053506000611755846002611cb4565b611760906001611abc565b90505b60018111156117d8576f181899199a1a9b1b9c1cb0b131b232b360811b85600f166010811061179457611794611acf565b1a60f81b8282815181106117aa576117aa611acf565b60200101906001600160f81b031916908160001a90535060049490941c936117d181611ce1565b9050611763565b5083156108475760405162461bcd60e51b815260206004820181905260248201527f537472696e67733a20686578206c656e67746820696e73756666696369656e74604482015260640161068b565b6060610844848460008585600080866001600160a01b0316858760405161184e9190611cf8565b60006040518083038185875af1925050503d806000811461188b576040519150601f19603f3d011682016040523d82523d6000602084013e611890565b606091505b50915091506118a1878383876118ae565b925050505b949350505050565b6060831561191d578251600003611916576001600160a01b0385163b6119165760405162461bcd60e51b815260206004820152601d60248201527f416464726573733a2063616c6c20746f206e6f6e2d636f6e7472616374000000604482015260640161068b565b50816118a6565b6118a683838151156119325781518083602001fd5b8060405162461bcd60e51b815260040161068b9190611c4e565b60006020828403121561195e57600080fd5b81356001600160e01b03198116811461084757600080fd5b60006020828403121561198857600080fd5b5035919050565b8015158114610cf457600080fd5b600080604083850312156119b057600080fd5b82356119bb8161198f565b946020939093013593505050565b6001600160a01b0381168114610cf457600080fd5b6000602082840312156119f057600080fd5b8135610847816119c9565b60008060408385031215611a0e57600080fd5b823591506020830135611a20816119c9565b809150509250929050565b60008060408385031215611a3e57600080fd5b8235611a49816119c9565b91506020830135611a20816119c9565b60008060408385031215611a6c57600080fd5b82356119bb816119c9565b634e487b7160e01b600052601160045260246000fd5b818103818111156104e9576104e9611a77565b6000600160ff1b8201611ab557611ab5611a77565b5060000390565b808201808211156104e9576104e9611a77565b634e487b7160e01b600052603260045260246000fd5b600060208284031215611af757600080fd5b5051919050565b8082018281126000831280158216821582161715611b1e57611b1e611a77565b505092915050565b600060018201611b3857611b38611a77565b5060010190565b6020808252601290820152715661756c74526f757465723a667265657a6560701b604082015260600190565b600060208284031215611b7d57600080fd5b8151610847816119c9565b60208082526013908201527215985d5b1d149bdd5d195c8e885b585c9ad95d606a1b604082015260600190565b60005b83811015611bd0578181015183820152602001611bb8565b50506000910152565b7f416363657373436f6e74726f6c3a206163636f756e7420000000000000000000815260008351611c11816017850160208801611bb5565b7001034b99036b4b9b9b4b733903937b6329607d1b6017918401918201528351611c42816028840160208801611bb5565b01602801949350505050565b6020815260008251806020840152611c6d816040850160208701611bb5565b601f01601f19169190910160400192915050565b600060208284031215611c9357600080fd5b81516108478161198f565b634e487b7160e01b600052603160045260246000fd5b80820281158282048414176104e9576104e9611a77565b634e487b7160e01b600052604160045260246000fd5b600081611cf057611cf0611a77565b506000190190565b60008251611d0a818460208701611bb5565b919091019291505056fecb58d6d985142a614029cdf01861b4fe094d5919a47e69b8310dc4093d9d6ad0a2646970667358221220edcea736a94ea6c0dea36da24e152b39a66d71e2a6be4f9759acc1c1027c496b64736f6c63430008110033",
  "linkReferences": {},
  "deployedLinkReferences": {}
}