{
  "_format": "hh-sol-artifact-1",
  "contractName": "VaultRouter",
  "sourceName": "contracts/vault/VaultRouter.sol",
  "abi": [
    {
      "anonymous": false,
      "inputs": [
        {
          "indexed": true,
          "internalType": "address",
          "name": "market",
          "type": "address"
        },
        {
          "indexed": false,
          "internalType": "uint256",
          "name": "amount",
          "type": "uint256"
        },
        {
          "indexed": false,
          "internalType": "uint256",
          "name": "totalFundsUsed",
          "type": "uint256"
        }
      ],
      "name": "FundsUsedUpdated",
      "type": "event"
    },
    {
      "anonymous": false,
      "inputs": [
        {
          "indexed": false,
          "internalType": "uint8",
          "name": "version",
          "type": "uint8"
        }
      ],
      "name": "Initialized",
      "type": "event"
    },
    {
      "anonymous": false,
      "inputs": [
        {
          "indexed": false,
          "internalType": "bool",
          "name": "isFreeze",
          "type": "bool"
        },
        {
          "indexed": false,
          "internalType": "uint256",
          "name": "freezeType",
          "type": "uint256"
        }
      ],
      "name": "LogIsFreeze",
      "type": "event"
    },
    {
      "anonymous": false,
      "inputs": [
        {
          "indexed": false,
          "internalType": "address",
          "name": "market",
          "type": "address"
        },
        {
          "indexed": false,
          "internalType": "address",
          "name": "vault",
          "type": "address"
        }
      ],
      "name": "MarketRemoved",
      "type": "event"
    },
    {
      "anonymous": false,
      "inputs": [
        {
          "indexed": false,
          "internalType": "address",
          "name": "market",
          "type": "address"
        },
        {
          "indexed": false,
          "internalType": "address",
          "name": "vault",
          "type": "address"
        }
      ],
      "name": "MarketSetted",
      "type": "event"
    },
    {
      "inputs": [],
      "name": "DEFAULT_ADMIN_ROLE",
      "outputs": [
        {
          "internalType": "bytes32",
          "name": "",
          "type": "bytes32"
        }
      ],
      "stateMutability": "view",
      "type": "function"
    },
    {
      "inputs": [
        {
          "internalType": "address",
          "name": "newOwner",
          "type": "address"
        }
      ],
      "name": "_transferOwnership",
      "outputs": [],
      "stateMutability": "pure",
      "type": "function"
    },
    {
      "inputs": [
        {
          "internalType": "uint256",
          "name": "amount",
          "type": "uint256"
        }
      ],
      "name": "borrowFromVault",
      "outputs": [],
      "stateMutability": "nonpayable",
      "type": "function"
    },
    {
      "inputs": [
        {
          "internalType": "contract ICoreVault",
          "name": "vault",
          "type": "address"
        }
      ],
      "name": "buyLpFee",
      "outputs": [
        {
          "internalType": "uint256",
          "name": "",
          "type": "uint256"
        }
      ],
      "stateMutability": "view",
      "type": "function"
    },
    {
      "inputs": [],
      "name": "coreVault",
      "outputs": [
        {
          "internalType": "contract ICoreVault",
          "name": "",
          "type": "address"
        }
      ],
      "stateMutability": "view",
      "type": "function"
    },
    {
      "inputs": [],
      "name": "feeRouter",
      "outputs": [
        {
          "internalType": "contract IFeeRouter",
          "name": "",
          "type": "address"
        }
      ],
      "stateMutability": "view",
      "type": "function"
    },
    {
      "inputs": [
        {
          "internalType": "address",
          "name": "",
          "type": "address"
        }
      ],
      "name": "fundsUsed",
      "outputs": [
        {
          "internalType": "uint256",
          "name": "",
          "type": "uint256"
        }
      ],
      "stateMutability": "view",
      "type": "function"
    },
    {
      "inputs": [],
      "name": "getAUM",
      "outputs": [
        {
          "internalType": "uint256",
          "name": "",
          "type": "uint256"
        }
      ],
      "stateMutability": "view",
      "type": "function"
    },
    {
      "inputs": [],
      "name": "getGlobalPnl",
      "outputs": [
        {
          "internalType": "int256",
          "name": "",
          "type": "int256"
        }
      ],
      "stateMutability": "view",
      "type": "function"
    },
    {
      "inputs": [],
      "name": "getUSDBalance",
      "outputs": [
        {
          "internalType": "uint256",
          "name": "",
          "type": "uint256"
        }
      ],
      "stateMutability": "view",
      "type": "function"
    },
    {
      "inputs": [
        {
          "internalType": "address",
          "name": "_account",
          "type": "address"
        }
      ],
      "name": "grantControllerRoleByMarketManager",
      "outputs": [],
      "stateMutability": "nonpayable",
      "type": "function"
    },
    {
      "inputs": [
        {
          "internalType": "bytes32",
          "name": "role",
          "type": "bytes32"
        },
        {
          "internalType": "address",
          "name": "account",
          "type": "address"
        }
      ],
      "name": "grantRole",
      "outputs": [],
      "stateMutability": "pure",
      "type": "function"
    },
    {
      "inputs": [
        {
          "internalType": "bytes32",
          "name": "role",
          "type": "bytes32"
        },
        {
          "internalType": "address",
          "name": "account",
          "type": "address"
        }
      ],
      "name": "hasRole",
      "outputs": [
        {
          "internalType": "bool",
          "name": "",
          "type": "bool"
        }
      ],
      "stateMutability": "pure",
      "type": "function"
    },
    {
      "inputs": [
        {
          "internalType": "address",
          "name": "_coreVault",
          "type": "address"
        },
        {
          "internalType": "address",
          "name": "_feeRouter",
          "type": "address"
        }
      ],
      "name": "initialize",
      "outputs": [],
      "stateMutability": "nonpayable",
      "type": "function"
    },
    {
      "inputs": [],
      "name": "isFreezeAccouting",
      "outputs": [
        {
          "internalType": "bool",
          "name": "",
          "type": "bool"
        }
      ],
      "stateMutability": "view",
      "type": "function"
    },
    {
      "inputs": [],
      "name": "isFreezeTransfer",
      "outputs": [
        {
          "internalType": "bool",
          "name": "",
          "type": "bool"
        }
      ],
      "stateMutability": "view",
      "type": "function"
    },
    {
      "inputs": [
        {
          "internalType": "address",
          "name": "",
          "type": "address"
        }
      ],
      "name": "marketVaults",
      "outputs": [
        {
          "internalType": "contract ICoreVault",
          "name": "",
          "type": "address"
        }
      ],
      "stateMutability": "view",
      "type": "function"
    },
    {
      "inputs": [],
      "name": "priceDecimals",
      "outputs": [
        {
          "internalType": "uint256",
          "name": "",
          "type": "uint256"
        }
      ],
      "stateMutability": "pure",
      "type": "function"
    },
    {
      "inputs": [
        {
          "internalType": "address",
          "name": "market",
          "type": "address"
        }
      ],
      "name": "removeMarket",
      "outputs": [],
      "stateMutability": "nonpayable",
      "type": "function"
    },
    {
      "inputs": [
        {
          "internalType": "uint256",
          "name": "amount",
          "type": "uint256"
        }
      ],
      "name": "repayToVault",
      "outputs": [],
      "stateMutability": "nonpayable",
      "type": "function"
    },
    {
      "inputs": [
        {
          "internalType": "bytes32",
          "name": "role",
          "type": "bytes32"
        },
        {
          "internalType": "address",
          "name": "account",
          "type": "address"
        }
      ],
      "name": "revokeRole",
      "outputs": [],
      "stateMutability": "pure",
      "type": "function"
    },
    {
      "inputs": [
        {
          "internalType": "contract ICoreVault",
          "name": "vault",
          "type": "address"
        }
      ],
      "name": "sellLpFee",
      "outputs": [
        {
          "internalType": "uint256",
          "name": "",
          "type": "uint256"
        }
      ],
      "stateMutability": "view",
      "type": "function"
    },
    {
      "inputs": [
        {
          "internalType": "bool",
          "name": "f",
          "type": "bool"
        },
        {
          "internalType": "uint256",
          "name": "freezeType",
          "type": "uint256"
        }
      ],
      "name": "setIsFreeze",
      "outputs": [],
      "stateMutability": "nonpayable",
      "type": "function"
    },
    {
      "inputs": [
        {
          "internalType": "address",
          "name": "market",
          "type": "address"
        },
        {
          "internalType": "address",
          "name": "vault",
          "type": "address"
        }
      ],
      "name": "setMarket",
      "outputs": [],
      "stateMutability": "nonpayable",
      "type": "function"
    },
    {
      "inputs": [],
      "name": "totalFundsUsed",
      "outputs": [
        {
          "internalType": "uint256",
          "name": "",
          "type": "uint256"
        }
      ],
      "stateMutability": "view",
      "type": "function"
    },
    {
      "inputs": [
        {
          "internalType": "address",
          "name": "to",
          "type": "address"
        }
      ],
      "name": "transferAdmin",
      "outputs": [],
      "stateMutability": "nonpayable",
      "type": "function"
    },
    {
      "inputs": [
        {
          "internalType": "address",
          "name": "to",
          "type": "address"
        },
        {
          "internalType": "uint256",
          "name": "amount",
          "type": "uint256"
        }
      ],
      "name": "transferFromVault",
      "outputs": [],
      "stateMutability": "nonpayable",
      "type": "function"
    },
    {
      "inputs": [
        {
          "internalType": "address",
          "name": "newOwner",
          "type": "address"
        }
      ],
      "name": "transferOwnership",
      "outputs": [],
      "stateMutability": "pure",
      "type": "function"
    },
    {
      "inputs": [
        {
          "internalType": "address",
          "name": "account",
          "type": "address"
        },
        {
          "internalType": "uint256",
          "name": "amount",
          "type": "uint256"
        }
      ],
      "name": "transferToVault",
      "outputs": [],
      "stateMutability": "nonpayable",
      "type": "function"
    },
    {
      "inputs": [
        {
          "internalType": "contract ICoreVault",
          "name": "",
          "type": "address"
        }
      ],
      "name": "vaultMarkets",
      "outputs": [
        {
          "internalType": "address",
          "name": "",
          "type": "address"
        }
      ],
      "stateMutability": "view",
      "type": "function"
    }
  ],
  "bytecode": "0x60806040526009805460ff19908116909155600e8054909116905534801561002657600080fd5b5060016002556115518061003b6000396000f3fe608060405234801561001057600080fd5b50600436106101da5760003560e01c806392106cbb11610104578063d53b26ee116100a2578063e108262f11610071578063e108262f146103db578063eb4fe818146103ee578063f29ebf6114610401578063f2fde38b1461039157600080fd5b8063d53b26ee146103a2578063d547741f14610233578063da8ddc74146103b5578063db913236146103c857600080fd5b8063a7c1daa4116100de578063a7c1daa414610363578063c120105414610376578063c6aee6181461037e578063d29d44ee1461039157600080fd5b806392106cbb14610325578063a217fddf1461034e578063a59e73e81461035657600080fd5b806361b314cb1161017c57806375829def1161014b57806375829def146102d95780637fe4a698146102ec57806389a71faa146102ff57806391d148541461031257600080fd5b806361b314cb14610275578063674ce1b5146102b65780636dc7b0a1146102c95780636f2a14c5146102d157600080fd5b80632b8a0012116101b85780632b8a0012146102135780632f2ff15d146102335780633001a9a214610245578063485cc9551461026257600080fd5b806305300b28146101df57806311a2ad49146101f5578063290f5e49146101fe575b600080fd5b60085b6040519081526020015b60405180910390f35b6101e2600a5481565b61021161020c366004611244565b610414565b005b6101e2610221366004611285565b600b6020526000908152604090205481565b6102116102413660046112a2565b5050565b600e546102529060ff1681565b60405190151581526020016101ec565b6102116102703660046112d2565b6104f2565b61029e610283366004611285565b600d602052600090815260409020546001600160a01b031681565b6040516001600160a01b0390911681526020016101ec565b60045461029e906001600160a01b031681565b6101e261063c565b6101e261068d565b6102116102e7366004611285565b610749565b6102116102fa366004611285565b61039f565b61021161030d366004611300565b610754565b6102526103203660046112a2565b6107fe565b61029e610333366004611285565b600c602052600090815260409020546001600160a01b031681565b6101e2600081565b6009546102529060ff1681565b6102116103713660046112d2565b610807565b6101e26108d8565b61021161038c36600461131e565b610a00565b61021161039f366004611285565b50565b6101e26103b0366004611285565b610a7d565b6102116103c3366004611300565b610aea565b6102116103d6366004611285565b610b88565b6102116103e936600461131e565b610c61565b6101e26103fc366004611285565b610cb7565b60035461029e906001600160a01b031681565b80600003610481576004805460405163c4cc8bbb60e01b8152841515928101929092526001600160a01b03169063c4cc8bbb90602401600060405180830381600087803b15801561046457600080fd5b505af1158015610478573d6000803e3d6000fd5b505050506104b3565b8060010361049c576009805460ff19168315151790556104b3565b806002036104b357600e805460ff19168315151790555b604080518315158152602081018390527f32a2e913e263febe3421a6e85924137ecf50c1aaec4f37b3deec772651f21fcd910160405180910390a15050565b600054610100900460ff16158080156105125750600054600160ff909116105b8061052c5750303b15801561052c575060005460ff166001145b6105945760405162461bcd60e51b815260206004820152602e60248201527f496e697469616c697a61626c653a20636f6e747261637420697320616c72656160448201526d191e481a5b9a5d1a585b1a5e995960921b60648201526084015b60405180910390fd5b6000805460ff1916600117905580156105b7576000805461ff0019166101001790555b6105c033610ce7565b600480546001600160a01b038086166001600160a01b03199283161790925560038054928516929091169190911790558015610637576000805461ff0019169055604051600181527f7f26b83ff96e1f2b6a682f133852f6798a09c465da95921460cefb3847402498906020015b60405180910390a15b505050565b60008061064761068d565b905060006106536108d8565b905060008083131561067057610669838361134d565b9050610686565b61067983611360565b610683908361137c565b90505b9392505050565b60008061069a6005610cee565b90506000805b8251811015610742578281815181106106bb576106bb61138f565b60200260200101516001600160a01b03166393a98e6c6040518163ffffffff1660e01b8152600401602060405180830381865afa158015610700573d6000803e3d6000fd5b505050506040513d601f19601f8201168201806040525081019061072491906113a5565b61072e90836113be565b91508061073a816113e6565b9150506106a0565b5092915050565b600061024160003382565b60095460ff16156107775760405162461bcd60e51b815260040161058b906113ff565b336000908152600c60209081526040918290205482516338d52e0f60e01b815292516001600160a01b03909116926106379284926338d52e0f9260048082019392918290030181865afa1580156107d2573d6000803e3d6000fd5b505050506040513d601f19601f820116820180604052508101906107f6919061142b565b848385610cfb565b60015b92915050565b506004546001600160a01b03167fde57aa0116fb656e0ab30962f03bb7a49dccfb8fac7bf6a5cf94d0d56d0e7337610840600584610d5b565b61084957600080fd5b6001600160a01b038084166000818152600c6020908152604080832080549588166001600160a01b031996871681179091558352600d90915290208054909216179055610897600783610d5b565b50604080516001600160a01b038086168252841660208201527f4dd2648b8febf05ec183e673f430b81feb098c55a6622cae1d6ab6a495b38c75910161062e565b6000806108e56007610cee565b90506000805b82518110156107425760008382815181106109085761090861138f565b60200260200101519050806001600160a01b03166338d52e0f6040518163ffffffff1660e01b8152600401602060405180830381865afa158015610950573d6000803e3d6000fd5b505050506040513d601f19601f82011682018060405250810190610974919061142b565b6040516370a0823160e01b81526001600160a01b03838116600483015291909116906370a0823190602401602060405180830381865afa1580156109bc573d6000803e3d6000fd5b505050506040513d601f19601f820116820180604052508101906109e091906113a5565b6109ea908461137c565b92505080806109f8906113e6565b9150506108eb565b610a0b600533610d70565b610a275760405162461bcd60e51b815260040161058b90611448565b600e5460ff1615610a4a5760405162461bcd60e51b815260040161058b906113ff565b610a55600533610d70565b610a715760405162461bcd60e51b815260040161058b90611448565b61039f33826001610d92565b604051632e7e841560e01b8152600160048201526000906001600160a01b03831690632e7e8415906024015b602060405180830381865afa158015610ac6573d6000803e3d6000fd5b505050506040513d601f19601f8201168201806040525081019061080191906113a5565b60095460ff1615610b0d5760405162461bcd60e51b815260040161058b906113ff565b336000908152600c60205260409081902054905163061d86f960e11b81526001600160a01b03848116600483015260248201849052909116908190630c3b0df290604401600060405180830381600087803b158015610b6b57600080fd5b505af1158015610b7f573d6000803e3d6000fd5b50505050505050565b7fcb6bc1c12dd43bca8d7dd46d975f913325437d0dcd5978e99d515e4ad39b9772610bb4600583610e89565b506001600160a01b038083166000908152600c602052604090205416610bdb600782610e89565b506001600160a01b038084166000818152600c6020818152604080842080549096168452600d8252832080546001600160a01b03199081169091559390925290528154169055604080516001600160a01b038086168252831660208201527fe53458cf1e128fd9dd751ec85180c9b93f69b6b6add116d5238cb46f90268d67910161062e565b610c6c600533610d70565b610c885760405162461bcd60e51b815260040161058b90611448565b600e5460ff1615610cab5760405162461bcd60e51b815260040161058b906113ff565b61039f33826000610d92565b604051632e7e841560e01b8152600060048201819052906001600160a01b03831690632e7e841590602401610aa9565b4260015550565b6060600061068683610e9e565b604080516001600160a01b0385811660248301528416604482015260648082018490528251808303909101815260849091019091526020810180516001600160e01b03166323b872dd60e01b179052610d55908590610efa565b50505050565b6000610686836001600160a01b038416610fcf565b6001600160a01b03811660009081526001830160205260408120541515610686565b8015610de257600082600a54610da8919061137c565b6001600160a01b0385166000908152600b6020526040812080549293508592909190610dd590849061137c565b9091555050600a55610e29565b6001600160a01b0383166000908152600b602052604081208054849290610e0a90849061134d565b9250508190555081600a6000828254610e23919061134d565b90915550505b6001600160a01b0383166000818152600b60205260409081902054600a5491517f128f29b8f021c76a97203bea2d9fa18e1a05034b92c6232990dd75a7e447f64992610e7c928252602082015260400190565b60405180910390a2505050565b6000610686836001600160a01b03841661101e565b606081600001805480602002602001604051908101604052809291908181526020018280548015610eee57602002820191906000526020600020905b815481526020019060010190808311610eda575b50505050509050919050565b6000610f4f826040518060400160405280602081526020017f5361666545524332303a206c6f772d6c6576656c2063616c6c206661696c6564815250856001600160a01b03166111119092919063ffffffff16565b9050805160001480610f70575080806020019051810190610f709190611475565b6106375760405162461bcd60e51b815260206004820152602a60248201527f5361666545524332303a204552433230206f7065726174696f6e20646964206e6044820152691bdd081cdd58d8d9595960b21b606482015260840161058b565b600081815260018301602052604081205461101657508154600181810184556000848152602080822090930184905584548482528286019093526040902091909155610801565b506000610801565b6000818152600183016020526040812054801561110757600061104260018361134d565b85549091506000906110569060019061134d565b90508181146110bb5760008660000182815481106110765761107661138f565b90600052602060002001549050808760000184815481106110995761109961138f565b6000918252602080832090910192909255918252600188019052604090208390555b85548690806110cc576110cc611492565b600190038181906000526020600020016000905590558560010160008681526020019081526020016000206000905560019350505050610801565b6000915050610801565b6060610683848460008585600080866001600160a01b0316858760405161113891906114cc565b60006040518083038185875af1925050503d8060008114611175576040519150601f19603f3d011682016040523d82523d6000602084013e61117a565b606091505b509150915061118b87838387611198565b925050505b949350505050565b60608315611207578251600003611200576001600160a01b0385163b6112005760405162461bcd60e51b815260206004820152601d60248201527f416464726573733a2063616c6c20746f206e6f6e2d636f6e7472616374000000604482015260640161058b565b5081611190565b611190838381511561121c5781518083602001fd5b8060405162461bcd60e51b815260040161058b91906114e8565b801515811461039f57600080fd5b6000806040838503121561125757600080fd5b823561126281611236565b946020939093013593505050565b6001600160a01b038116811461039f57600080fd5b60006020828403121561129757600080fd5b813561068681611270565b600080604083850312156112b557600080fd5b8235915060208301356112c781611270565b809150509250929050565b600080604083850312156112e557600080fd5b82356112f081611270565b915060208301356112c781611270565b6000806040838503121561131357600080fd5b823561126281611270565b60006020828403121561133057600080fd5b5035919050565b634e487b7160e01b600052601160045260246000fd5b8181038181111561080157610801611337565b6000600160ff1b820161137557611375611337565b5060000390565b8082018082111561080157610801611337565b634e487b7160e01b600052603260045260246000fd5b6000602082840312156113b757600080fd5b5051919050565b80820182811260008312801582168215821617156113de576113de611337565b505092915050565b6000600182016113f8576113f8611337565b5060010190565b6020808252601290820152715661756c74526f757465723a667265657a6560701b604082015260600190565b60006020828403121561143d57600080fd5b815161068681611270565b60208082526013908201527215985d5b1d149bdd5d195c8e885b585c9ad95d606a1b604082015260600190565b60006020828403121561148757600080fd5b815161068681611236565b634e487b7160e01b600052603160045260246000fd5b60005b838110156114c35781810151838201526020016114ab565b50506000910152565b600082516114de8184602087016114a8565b9190910192915050565b60208152600082518060208401526115078160408501602087016114a8565b601f01601f1916919091016040019291505056fea26469706673582212203c6528eeef4f1912a6f3dcbb71505c0b3a9e3e1aafdfbef96b2649e3e244e0f264736f6c63430008110033",
  "linkReferences": {},
  "deployedLinkReferences": {}
}