{
  "_format": "hh-sol-artifact-1",
  "contractName": "MarketValid",
  "sourceName": "contracts/market/MarketValid.sol",
  "abi": [
    {
      "inputs": [
        {
          "internalType": "address",
          "name": "_f",
          "type": "address"
        }
      ],
      "stateMutability": "nonpayable",
      "type": "constructor"
    },
    {
      "anonymous": false,
      "inputs": [
        {
          "indexed": false,
          "internalType": "uint8",
          "name": "version",
          "type": "uint8"
        }
      ],
      "name": "Initialized",
      "type": "event"
    },
    {
      "anonymous": false,
      "inputs": [
        {
          "indexed": true,
          "internalType": "address",
          "name": "previousOwner",
          "type": "address"
        },
        {
          "indexed": true,
          "internalType": "address",
          "name": "newOwner",
          "type": "address"
        }
      ],
      "name": "OwnershipTransferred",
      "type": "event"
    },
    {
      "anonymous": false,
      "inputs": [
        {
          "indexed": true,
          "internalType": "bytes32",
          "name": "role",
          "type": "bytes32"
        },
        {
          "indexed": true,
          "internalType": "bytes32",
          "name": "previousAdminRole",
          "type": "bytes32"
        },
        {
          "indexed": true,
          "internalType": "bytes32",
          "name": "newAdminRole",
          "type": "bytes32"
        }
      ],
      "name": "RoleAdminChanged",
      "type": "event"
    },
    {
      "anonymous": false,
      "inputs": [
        {
          "indexed": true,
          "internalType": "bytes32",
          "name": "role",
          "type": "bytes32"
        },
        {
          "indexed": true,
          "internalType": "address",
          "name": "account",
          "type": "address"
        },
        {
          "indexed": true,
          "internalType": "address",
          "name": "sender",
          "type": "address"
        }
      ],
      "name": "RoleGranted",
      "type": "event"
    },
    {
      "anonymous": false,
      "inputs": [
        {
          "indexed": true,
          "internalType": "bytes32",
          "name": "role",
          "type": "bytes32"
        },
        {
          "indexed": true,
          "internalType": "address",
          "name": "account",
          "type": "address"
        },
        {
          "indexed": true,
          "internalType": "address",
          "name": "sender",
          "type": "address"
        }
      ],
      "name": "RoleRevoked",
      "type": "event"
    },
    {
      "inputs": [],
      "name": "DEFAULT_ADMIN_ROLE",
      "outputs": [
        {
          "internalType": "bytes32",
          "name": "",
          "type": "bytes32"
        }
      ],
      "stateMutability": "view",
      "type": "function"
    },
    {
      "inputs": [],
      "name": "conf",
      "outputs": [
        {
          "internalType": "uint256",
          "name": "data",
          "type": "uint256"
        }
      ],
      "stateMutability": "view",
      "type": "function"
    },
    {
      "inputs": [
        {
          "internalType": "uint256",
          "name": "decrOrderCount",
          "type": "uint256"
        }
      ],
      "name": "getDecreaseOrderValidation",
      "outputs": [
        {
          "internalType": "bool",
          "name": "isValid",
          "type": "bool"
        }
      ],
      "stateMutability": "view",
      "type": "function"
    },
    {
      "inputs": [
        {
          "internalType": "bytes32",
          "name": "role",
          "type": "bytes32"
        }
      ],
      "name": "getRoleAdmin",
      "outputs": [
        {
          "internalType": "bytes32",
          "name": "",
          "type": "bytes32"
        }
      ],
      "stateMutability": "view",
      "type": "function"
    },
    {
      "inputs": [
        {
          "internalType": "address",
          "name": "_account",
          "type": "address"
        }
      ],
      "name": "grantControllerRoleByMarketManager",
      "outputs": [],
      "stateMutability": "nonpayable",
      "type": "function"
    },
    {
      "inputs": [
        {
          "internalType": "bytes32",
          "name": "role",
          "type": "bytes32"
        },
        {
          "internalType": "address",
          "name": "account",
          "type": "address"
        }
      ],
      "name": "grantRole",
      "outputs": [],
      "stateMutability": "nonpayable",
      "type": "function"
    },
    {
      "inputs": [
        {
          "internalType": "bytes32",
          "name": "role",
          "type": "bytes32"
        },
        {
          "internalType": "address",
          "name": "account",
          "type": "address"
        }
      ],
      "name": "hasRole",
      "outputs": [
        {
          "internalType": "bool",
          "name": "",
          "type": "bool"
        }
      ],
      "stateMutability": "view",
      "type": "function"
    },
    {
      "inputs": [
        {
          "internalType": "address",
          "name": "_account",
          "type": "address"
        },
        {
          "internalType": "address",
          "name": "_market",
          "type": "address"
        },
        {
          "internalType": "bool",
          "name": "_isLong",
          "type": "bool"
        },
        {
          "internalType": "contract IPositionBook",
          "name": "positionBook",
          "type": "address"
        },
        {
          "internalType": "contract IFeeRouter",
          "name": "feeRouter",
          "type": "address"
        },
        {
          "internalType": "uint256",
          "name": "markPrice",
          "type": "uint256"
        }
      ],
      "name": "isLiquidate",
      "outputs": [
        {
          "internalType": "uint256",
          "name": "_state",
          "type": "uint256"
        }
      ],
      "stateMutability": "view",
      "type": "function"
    },
    {
      "inputs": [],
      "name": "owner",
      "outputs": [
        {
          "internalType": "address",
          "name": "",
          "type": "address"
        }
      ],
      "stateMutability": "view",
      "type": "function"
    },
    {
      "inputs": [],
      "name": "renounceOwnership",
      "outputs": [],
      "stateMutability": "nonpayable",
      "type": "function"
    },
    {
      "inputs": [
        {
          "internalType": "bytes32",
          "name": "role",
          "type": "bytes32"
        },
        {
          "internalType": "address",
          "name": "account",
          "type": "address"
        }
      ],
      "name": "renounceRole",
      "outputs": [],
      "stateMutability": "nonpayable",
      "type": "function"
    },
    {
      "inputs": [
        {
          "internalType": "bytes32",
          "name": "role",
          "type": "bytes32"
        },
        {
          "internalType": "address",
          "name": "account",
          "type": "address"
        }
      ],
      "name": "revokeRole",
      "outputs": [],
      "stateMutability": "nonpayable",
      "type": "function"
    },
    {
      "inputs": [
        {
          "internalType": "uint256",
          "name": "_minSlippage",
          "type": "uint256"
        },
        {
          "internalType": "uint256",
          "name": "_maxSlippage",
          "type": "uint256"
        },
        {
          "internalType": "uint256",
          "name": "_minLeverage",
          "type": "uint256"
        },
        {
          "internalType": "uint256",
          "name": "_maxLeverage",
          "type": "uint256"
        },
        {
          "internalType": "uint256",
          "name": "_maxTradeAmount",
          "type": "uint256"
        },
        {
          "internalType": "uint256",
          "name": "_minPay",
          "type": "uint256"
        },
        {
          "internalType": "uint256",
          "name": "_minCollateral",
          "type": "uint256"
        },
        {
          "internalType": "bool",
          "name": "_allowOpen",
          "type": "bool"
        },
        {
          "internalType": "bool",
          "name": "_allowClose",
          "type": "bool"
        },
        {
          "internalType": "uint256",
          "name": "",
          "type": "uint256"
        }
      ],
      "name": "setConf",
      "outputs": [],
      "stateMutability": "nonpayable",
      "type": "function"
    },
    {
      "inputs": [
        {
          "internalType": "uint256",
          "name": "_data",
          "type": "uint256"
        }
      ],
      "name": "setConfData",
      "outputs": [],
      "stateMutability": "nonpayable",
      "type": "function"
    },
    {
      "inputs": [
        {
          "internalType": "bytes4",
          "name": "interfaceId",
          "type": "bytes4"
        }
      ],
      "name": "supportsInterface",
      "outputs": [
        {
          "internalType": "bool",
          "name": "",
          "type": "bool"
        }
      ],
      "stateMutability": "view",
      "type": "function"
    },
    {
      "inputs": [
        {
          "internalType": "address",
          "name": "to",
          "type": "address"
        }
      ],
      "name": "transferAdmin",
      "outputs": [],
      "stateMutability": "nonpayable",
      "type": "function"
    },
    {
      "inputs": [
        {
          "internalType": "address",
          "name": "newOwner",
          "type": "address"
        }
      ],
      "name": "transferOwnership",
      "outputs": [],
      "stateMutability": "nonpayable",
      "type": "function"
    },
    {
      "inputs": [
        {
          "internalType": "uint256",
          "name": "busType",
          "type": "uint256"
        },
        {
          "internalType": "uint256",
          "name": "_collateral",
          "type": "uint256"
        },
        {
          "internalType": "uint256",
          "name": "_collateralDelta",
          "type": "uint256"
        },
        {
          "internalType": "uint256",
          "name": "_size",
          "type": "uint256"
        },
        {
          "internalType": "uint256",
          "name": "_sizeDelta",
          "type": "uint256"
        },
        {
          "internalType": "int256",
          "name": "_fees",
          "type": "int256"
        }
      ],
      "name": "validCollateralDelta",
      "outputs": [],
      "stateMutability": "view",
      "type": "function"
    },
    {
      "inputs": [
        {
          "internalType": "uint256",
          "name": "_collateral",
          "type": "uint256"
        },
        {
          "internalType": "uint256",
          "name": "_collateralDelta",
          "type": "uint256"
        },
        {
          "internalType": "uint256",
          "name": "_size",
          "type": "uint256"
        },
        {
          "internalType": "uint256",
          "name": "_sizeDelta",
          "type": "uint256"
        },
        {
          "internalType": "int256",
          "name": "fees",
          "type": "int256"
        },
        {
          "internalType": "uint256",
          "name": "decrOrderCount",
          "type": "uint256"
        }
      ],
      "name": "validDecreaseOrder",
      "outputs": [],
      "stateMutability": "view",
      "type": "function"
    },
    {
      "inputs": [
        {
          "components": [
            {
              "internalType": "address",
              "name": "_market",
              "type": "address"
            },
            {
              "internalType": "bool",
              "name": "_isLong",
              "type": "bool"
            },
            {
              "internalType": "uint256",
              "name": "_oraclePrice",
              "type": "uint256"
            },
            {
              "internalType": "bool",
              "name": "isOpen",
              "type": "bool"
            },
            {
              "internalType": "bool",
              "name": "isCreate",
              "type": "bool"
            },
            {
              "components": [
                {
                  "internalType": "uint8",
                  "name": "version",
                  "type": "uint8"
                },
                {
                  "internalType": "uint32",
                  "name": "updatedAtBlock",
                  "type": "uint32"
                },
                {
                  "internalType": "uint8",
                  "name": "triggerAbove",
                  "type": "uint8"
                },
                {
                  "internalType": "address",
                  "name": "account",
                  "type": "address"
                },
                {
                  "internalType": "uint48",
                  "name": "extra3",
                  "type": "uint48"
                },
                {
                  "internalType": "uint128",
                  "name": "collateral",
                  "type": "uint128"
                },
                {
                  "internalType": "uint128",
                  "name": "size",
                  "type": "uint128"
                },
                {
                  "internalType": "uint128",
                  "name": "price",
                  "type": "uint128"
                },
                {
                  "internalType": "uint128",
                  "name": "extra1",
                  "type": "uint128"
                },
                {
                  "internalType": "uint64",
                  "name": "orderID",
                  "type": "uint64"
                },
                {
                  "internalType": "uint64",
                  "name": "extra2",
                  "type": "uint64"
                },
                {
                  "internalType": "uint128",
                  "name": "extra0",
                  "type": "uint128"
                },
                {
                  "internalType": "bytes32",
                  "name": "refCode",
                  "type": "bytes32"
                }
              ],
              "internalType": "struct Order.Props",
              "name": "_order",
              "type": "tuple"
            },
            {
              "internalType": "uint256[]",
              "name": "inputs",
              "type": "uint256[]"
            }
          ],
          "internalType": "struct MarketDataTypes.UpdateOrderInputs",
          "name": "_vars",
          "type": "tuple"
        },
        {
          "internalType": "int256",
          "name": "fees",
          "type": "int256"
        }
      ],
      "name": "validIncreaseOrder",
      "outputs": [],
      "stateMutability": "view",
      "type": "function"
    },
    {
      "inputs": [
        {
          "internalType": "uint256",
          "name": "newSize",
          "type": "uint256"
        },
        {
          "internalType": "uint256",
          "name": "newCollateral",
          "type": "uint256"
        }
      ],
      "name": "validLev",
      "outputs": [],
      "stateMutability": "view",
      "type": "function"
    },
    {
      "inputs": [
        {
          "internalType": "bool",
          "name": "_isLong",
          "type": "bool"
        },
        {
          "internalType": "uint256",
          "name": "_price",
          "type": "uint256"
        },
        {
          "internalType": "bool",
          "name": "_isIncrease",
          "type": "bool"
        },
        {
          "internalType": "bool",
          "name": "_isExec",
          "type": "bool"
        },
        {
          "internalType": "uint256",
          "name": "_markPrice",
          "type": "uint256"
        }
      ],
      "name": "validMarkPrice",
      "outputs": [],
      "stateMutability": "pure",
      "type": "function"
    },
    {
      "inputs": [
        {
          "internalType": "uint256",
          "name": "_pay",
          "type": "uint256"
        }
      ],
      "name": "validPay",
      "outputs": [],
      "stateMutability": "view",
      "type": "function"
    },
    {
      "inputs": [
        {
          "components": [
            {
              "internalType": "address",
              "name": "_market",
              "type": "address"
            },
            {
              "internalType": "bool",
              "name": "_isLong",
              "type": "bool"
            },
            {
              "internalType": "uint256",
              "name": "_oraclePrice",
              "type": "uint256"
            },
            {
              "internalType": "bool",
              "name": "isOpen",
              "type": "bool"
            },
            {
              "internalType": "address",
              "name": "_account",
              "type": "address"
            },
            {
              "internalType": "uint256",
              "name": "_sizeDelta",
              "type": "uint256"
            },
            {
              "internalType": "uint256",
              "name": "_price",
              "type": "uint256"
            },
            {
              "internalType": "uint256",
              "name": "_slippage",
              "type": "uint256"
            },
            {
              "internalType": "bool",
              "name": "_isExec",
              "type": "bool"
            },
            {
              "internalType": "uint8",
              "name": "liqState",
              "type": "uint8"
            },
            {
              "internalType": "uint64",
              "name": "_fromOrder",
              "type": "uint64"
            },
            {
              "internalType": "bytes32",
              "name": "_refCode",
              "type": "bytes32"
            },
            {
              "internalType": "uint256",
              "name": "collateralDelta",
              "type": "uint256"
            },
            {
              "internalType": "uint8",
              "name": "execNum",
              "type": "uint8"
            },
            {
              "internalType": "uint256[]",
              "name": "inputs",
              "type": "uint256[]"
            }
          ],
          "internalType": "struct MarketDataTypes.UpdatePositionInputs",
          "name": "_params",
          "type": "tuple"
        },
        {
          "components": [
            {
              "internalType": "address",
              "name": "market",
              "type": "address"
            },
            {
              "internalType": "bool",
              "name": "isLong",
              "type": "bool"
            },
            {
              "internalType": "uint32",
              "name": "lastTime",
              "type": "uint32"
            },
            {
              "internalType": "uint216",
              "name": "extra3",
              "type": "uint216"
            },
            {
              "internalType": "uint256",
              "name": "size",
              "type": "uint256"
            },
            {
              "internalType": "uint256",
              "name": "collateral",
              "type": "uint256"
            },
            {
              "internalType": "uint256",
              "name": "averagePrice",
              "type": "uint256"
            },
            {
              "internalType": "int256",
              "name": "entryFundingRate",
              "type": "int256"
            },
            {
              "internalType": "int256",
              "name": "realisedPnl",
              "type": "int256"
            },
            {
              "internalType": "uint256",
              "name": "extra0",
              "type": "uint256"
            },
            {
              "internalType": "uint256",
              "name": "extra1",
              "type": "uint256"
            },
            {
              "internalType": "uint256",
              "name": "extra2",
              "type": "uint256"
            }
          ],
          "internalType": "struct Position.Props",
          "name": "_position",
          "type": "tuple"
        },
        {
          "internalType": "int256[]",
          "name": "_fees",
          "type": "int256[]"
        }
      ],
      "name": "validPosition",
      "outputs": [],
      "stateMutability": "view",
      "type": "function"
    },
    {
      "inputs": [
        {
          "internalType": "uint256",
          "name": "_size",
          "type": "uint256"
        },
        {
          "internalType": "uint256",
          "name": "_sizeDelta",
          "type": "uint256"
        },
        {
          "internalType": "bool",
          "name": "_isIncrease",
          "type": "bool"
        }
      ],
      "name": "validSize",
      "outputs": [],
      "stateMutability": "pure",
      "type": "function"
    },
    {
      "inputs": [
        {
          "components": [
            {
              "internalType": "address",
              "name": "_market",
              "type": "address"
            },
            {
              "internalType": "bool",
              "name": "_isLong",
              "type": "bool"
            },
            {
              "internalType": "uint256",
              "name": "_oraclePrice",
              "type": "uint256"
            },
            {
              "internalType": "bool",
              "name": "isOpen",
              "type": "bool"
            },
            {
              "internalType": "address",
              "name": "_account",
              "type": "address"
            },
            {
              "internalType": "uint256",
              "name": "_sizeDelta",
              "type": "uint256"
            },
            {
              "internalType": "uint256",
              "name": "_price",
              "type": "uint256"
            },
            {
              "internalType": "uint256",
              "name": "_slippage",
              "type": "uint256"
            },
            {
              "internalType": "bool",
              "name": "_isExec",
              "type": "bool"
            },
            {
              "internalType": "uint8",
              "name": "liqState",
              "type": "uint8"
            },
            {
              "internalType": "uint64",
              "name": "_fromOrder",
              "type": "uint64"
            },
            {
              "internalType": "bytes32",
              "name": "_refCode",
              "type": "bytes32"
            },
            {
              "internalType": "uint256",
              "name": "collateralDelta",
              "type": "uint256"
            },
            {
              "internalType": "uint8",
              "name": "execNum",
              "type": "uint8"
            },
            {
              "internalType": "uint256[]",
              "name": "inputs",
              "type": "uint256[]"
            }
          ],
          "internalType": "struct MarketDataTypes.UpdatePositionInputs",
          "name": "_inputs",
          "type": "tuple"
        }
      ],
      "name": "validSlippagePrice",
      "outputs": [],
      "stateMutability": "view",
      "type": "function"
    },
    {
      "inputs": [
        {
          "internalType": "int256",
          "name": "pnl",
          "type": "int256"
        },
        {
          "internalType": "int256",
          "name": "fees",
          "type": "int256"
        },
        {
          "internalType": "int256",
          "name": "liquidateFee",
          "type": "int256"
        },
        {
          "internalType": "int256",
          "name": "collateral",
          "type": "int256"
        },
        {
          "internalType": "uint256",
          "name": "size",
          "type": "uint256"
        },
        {
          "internalType": "bool",
          "name": "_raise",
          "type": "bool"
        }
      ],
      "name": "validateLiquidation",
      "outputs": [
        {
          "internalType": "uint8",
          "name": "",
          "type": "uint8"
        }
      ],
      "stateMutability": "view",
      "type": "function"
    }
  ],
  "bytecode": "0x60806040523480156200001157600080fd5b5060405162002d9e38038062002d9e83398101604081905262000034916200018c565b8062000040336200005e565b6200005681620000b060201b620013b51760201c565b5050620001be565b600180546001600160a01b038381166001600160a01b0319831681179093556040519116919082907f8be0079c531659141344cd1fd0a4f28419497f9722a3daafe3b4186f6b6457e090600090a35050565b42600255620000bf336200005e565b620000cc600033620000dc565b620000d9600082620000dc565b50565b620000e88282620000ec565b5050565b6000828152602081815260408083206001600160a01b038516845290915290205460ff16620000e8576000828152602081815260408083206001600160a01b03851684529091529020805460ff19166001179055620001483390565b6001600160a01b0316816001600160a01b0316837f2f8788117e7eff1d82e926ec794901d17c78024a50270940304540a733656f0d60405160405180910390a45050565b6000602082840312156200019f57600080fd5b81516001600160a01b0381168114620001b757600080fd5b9392505050565b612bd080620001ce6000396000f3fe608060405234801561001057600080fd5b50600436106101a95760003560e01c8063715018a6116100f9578063d04093d511610097578063e82956c011610071578063e82956c014610381578063f2fde38b14610394578063f77a91a8146103a7578063fc54d91d146103cc57600080fd5b8063d04093d514610348578063d547741f1461035b578063e4eacaf41461036e57600080fd5b80638da5cb5b116100d35780638da5cb5b146102ff5780638e98ec8d1461031a57806391d148541461032d578063a217fddf1461034057600080fd5b8063715018a6146102d157806375829def146102d95780637fe4a698146102ec57600080fd5b8063248a9ca31161016657806336568abe1161014057806336568abe1461028557806352916b9c14610298578063592b1e2a146102ab5780636debc3b3146102be57600080fd5b8063248a9ca31461023c5780632b5a30181461025f5780632f2ff15d1461027257600080fd5b8063015fc613146101ae57806301b8fd7c146101c357806301ffc9a7146101d6578063142d2497146101fe57806317792729146102115780631f21756a14610229575b600080fd5b6101c16101bc366004611c07565b6103df565b005b6101c16101d1366004611c20565b61044f565b6101e96101e4366004611c63565b610501565b60405190151581526020015b60405180910390f35b6101c161020c366004611f67565b610538565b60035461021b9081565b6040519081526020016101f5565b61021b610237366004611fa3565b61061c565b61021b61024a366004611c07565b60009081526020819052604090206001015490565b6101c161026d36600461201c565b61087c565b6101c161028036600461203e565b610911565b6101c161029336600461203e565b61093b565b6101c16102a636600461206e565b6109b5565b6101c16102b936600461220d565b610aae565b6101c16102cc3660046122e3565b610b41565b6101c1610b8e565b6101c16102e736600461231c565b610ba2565b6101c16102fa36600461231c565b610bcc565b6001546040516001600160a01b0390911681526020016101f5565b6101c1610328366004611c07565b610bf6565b6101e961033b36600461203e565b610c9f565b61021b600081565b6101c1610356366004612339565b610cc8565b6101c161036936600461203e565b610de9565b6101c161037c366004611c20565b610e0e565b6101e961038f366004611c07565b610f9d565b6101c16103a236600461231c565b610fcb565b6103ba6103b53660046123c1565b611041565b60405160ff90911681526020016101f5565b6101c16103da366004612436565b61128a565b604080516020810190915260035481526103f8906113d8565b81111561044c5760405162461bcd60e51b815260206004820152601e60248201527f4d61726b657456616c69643a7061793e4d61785472616465416d6f756e74000060448201526064015b60405180910390fd5b50565b61045a816001612571565b60408051602081019091526003548152610473906113f8565b10156104c15760405162461bcd60e51b815260206004820152601760248201527f4d6178206f72646572733a636f6e666967206c696d69740000000000000000006044820152606401610443565b6104cd84846000610b41565b604080516020810190915260035490819052600f60841b16156104f9576104f960038787878787610e0e565b505050505050565b60006001600160e01b03198216637965db0b60e01b148061053257506301ffc9a760e01b6001600160e01b03198316145b92915050565b604080516020810190915260035490819052600c1c610fff168160e00151111561057b57604080516020810190915260035490819052600c1c610fff1660e08201525b60008160600151151582602001511515036105c7576127108260e001518360c001516105a79190612584565b6105b1919061259b565b8260c001516105c09190612571565b90506105fa565b6127108260e001518360c001516105de9190612584565b6105e8919061259b565b8260c001516105f791906125bd565b90505b610618826020015182846060015185610100015186604001516109b5565b5050565b60405163bc95baad60e01b81526001600160a01b038781166004830152602482018390528515156044830152600091829186169063bc95baad9060640161018060405180830381865afa158015610677573d6000803e3d6000fd5b505050506040513d601f19601f8201168201806040525081019061069b91906125fc565b905080608001516000036106b3576000915050610872565b604080516101e08101825260008082526020820181905291810182905260608082018390526080820183905260a0820183905260c0820183905260e08201839052610100820183905261012082018390526101408201839052610160820183905261018082018390526101a082018390526101c082015290610736908290611413565b60408082018590526001600160a01b03808b16608080850191909152600161010085018190528a151560208601529085015160a0808601919091528501516101808501528a821684526101208401529051634151026360e01b81526000918716906341510263906107ad9085908790600401612796565b600060405180830381865afa1580156107ca573d6000803e3d6000fd5b505050506040513d6000823e601f3d908101601f191682016040526107f2919081019061289d565b9050610869836101000151826002815181106108105761081061292d565b60200260200101518360018151811061082b5761082b61292d565b602002602001015161083d9190612943565b836004815181106108505761085061292d565b60200260200101518660a0015187608001516000611041565b60ff1693505050505b9695505050505050565b811580610887575080155b15610890575050565b600061089c828461259b565b60408051602081019091526003548082529192509060241c610fff168211806108cc5750805160181c610fff1682105b1561090b5760405162461bcd60e51b815260206004820152600f60248201526e26b0b935b2ba2b30b634b21d2632bb60891b6044820152606401610443565b50505050565b60008281526020819052604090206001015461092c81611440565b610936838361144a565b505050565b6001600160a01b03811633146109ab5760405162461bcd60e51b815260206004820152602f60248201527f416363657373436f6e74726f6c3a2063616e206f6e6c792072656e6f756e636560448201526e103937b632b9903337b91039b2b63360891b6064820152608401610443565b61061882826114ce565b60008411610a055760405162461bcd60e51b815260206004820152601c60248201527f4d61726b657456616c69643a696e707574207072696365207a65726f000000006044820152606401610443565b60008111610a4b5760405162461bcd60e51b81526020600482015260136024820152724d61726b657456616c69643a216f7261636c6560681b6044820152606401610443565b81610aa7578415158315151481851114610aa75760405162461bcd60e51b815260206004820152601c60248201527f4d61726b657456616c69643a2166726f6e742d656e64207072696365000000006044820152606401610443565b5050505050565b610af98260a0015160e001516001600160801b0316610adc8460a0015161010001516001600160801b031690565b60a085015161016001516001600160801b03168560200151611533565b610b1760008360a0015160c001516001600160801b03166001610b41565b61061860016000610b27856115df565b60008660a0015160c001516001600160801b031686610e0e565b80151560000361093657818310156109365760405162461bcd60e51b815260206004820152601060248201526f4d61726b657456616c69643a53697a6560801b6044820152606401610443565b610b9661161b565b610ba06000611675565b565b6000610bad81611440565b610bb86000836116c7565b610bc182611675565b6106186000336114ce565b7f8d1089725c0dc266707fa6207730fb801dcd03108bfed7a21099bd303651d2b76101a981611440565b7f8d1089725c0dc266707fa6207730fb801dcd03108bfed7a21099bd303651d2b76000610c238133610c9f565b90508015610c80576201518060025442610c3d91906125bd565b10610c7b5760405162461bcd60e51b815260206004820152600e60248201526d1858c81d1a5b59481c185cdcd95960921b6044820152606401610443565b610c8a565b610c8a82336116d1565b50506040805160208101909152819052600355565b6000918252602082815260408084206001600160a01b0393909316845291905290205460ff1690565b7f8d1089725c0dc266707fa6207730fb801dcd03108bfed7a21099bd303651d2b76000610cf58133610c9f565b90508015610d52576201518060025442610d0f91906125bd565b10610d4d5760405162461bcd60e51b815260206004820152600e60248201526d1858c81d1a5b59481c185cdcd95960921b6044820152606401610443565b610d5c565b610d5c82336116d1565b60408051602081019091526003548152610d76818b61172a565b610d80818c61177f565b610d8a818e6117d3565b610d94818d61181e565b610d9e818a611870565b610da881896118d0565b610db28188611927565b610dbc818761197f565b610dc681866119a9565b805160ff60701b1916600960711b17815251600355505050505050505050505050565b600082815260208190526040902060010154610e0481611440565b61093683836114ce565b6040805160208101909152600354808252600f606c1b16158015610e33575060028711155b80610e4e57508051600f60681b16158015610e4e5750600287115b15610e9b5760405162461bcd60e51b815260206004820152601860248201527f4d61726b657456616c69643a4d61726b6574436c6f73656400000000000000006044820152606401610443565b600287118015610eaa57508383145b15610eb557506104f9565b600060038810610ece57610ec986886125bd565b610ed8565b610ed88688612571565b9050876003148015610ee8575080155b15610ef45750506104f9565b60028811610f2c576000831315610f1657610f0f83826125bd565b9050610f2c565b610f1f8361296b565b610f299082612571565b90505b86158015610f3a5750876001145b8015610f4d5750610f4a826119d3565b86105b15610f935760405162461bcd60e51b815260206004820152601660248201527513585c9ad95d15985b1a590e90dbdb1b185d195c985b60521b6044820152606401610443565b5050505050505050565b6000610faa826001612571565b60408051602081019091526003548152610fc3906113f8565b101592915050565b610fd361161b565b6001600160a01b0381166110385760405162461bcd60e51b815260206004820152602660248201527f4f776e61626c653a206e6577206f776e657220697320746865207a65726f206160448201526564647265737360d01b6064820152608401610443565b61044c81611675565b6000808712801561105b575060006110598886612943565b125b156110c25781156110ba5760405162461bcd60e51b8152602060048201526024808201527f4d61726b657456616c69643a6c6f737365732065786365656420636f6c6c6174604482015263195c985b60e21b6064820152608401610443565b506001610872565b8360008812156110d9576110d68886612943565b90505b8681121561114557821561113b5760405162461bcd60e51b815260206004820152602360248201527f4d61726b657456616c69643a20666565732065786365656420636f6c6c6174656044820152621c985b60ea1b6064820152608401610443565b6001915050610872565b61114f8688612943565b8112156111bc57821561113b5760405162461bcd60e51b815260206004820152602f60248201527f4d61726b657456616c69643a206c69717569646174696f6e206665657320657860448201526e18d959590818dbdb1b185d195c985b608a1b6064820152608401610443565b6111c861271085612584565b6040805160208101909152600354908190526127109060241c610fff1660008a136111f45760006111f6565b895b6112009085612987565b61120a9190612584565b6112149190612584565b101561127c5782156112725760405162461bcd60e51b815260206004820152602160248201527f4d61726b657456616c69643a206d61784c6576657261676520657863656564656044820152601960fa1b6064820152608401610443565b6002915050610872565b506000979650505050505050565b6112a182608001518460a001518560600151610b41565b8260600151156112f9576112b98361018001516103df565b6112f46000846101800151116112d05760026112d3565b60015b60ff168360a0015185610180015185608001518760a0015161037c876119f1565b611342565b81608001518360a00151146113425761134260008461018001511161131f5760046112d3565b600360ff168360a0015185610180015185608001518760a0015161037c876119f1565b60008360a0015111801561135c575061012083015160ff16155b156109365760008360400151116113ac5760405162461bcd60e51b8152602060048201526014602482015273696e76616c6964206f7261636c6520707269636560601b6044820152606401610443565b61093683610538565b426002556113c233611675565b6113cd6000336116c7565b61044c6000826116c7565b60006113e382611a3d565b8251610532919060481c63ffffffff16612584565b805160781c610fff16600081900361140e5750600a5b919050565b60408051600280825260608201835290916020830190803683375050506101c08301521515606090910152565b61044c81336116d1565b6114548282610c9f565b610618576000828152602081815260408083206001600160a01b03851684529091529020805460ff1916600117905561148a3390565b6001600160a01b0316816001600160a01b0316837f2f8788117e7eff1d82e926ec794901d17c78024a50270940304540a733656f0d60405160405180910390a45050565b6114d88282610c9f565b15610618576000828152602081815260408083206001600160a01b0385168085529252808320805460ff1916905551339285917ff6391f5c32d9c69d2a47ea670b442974b53935d1edc7fd64eb21e047a839171b9190a45050565b82156115895783831181151514158061154b57508383145b156115895760405162461bcd60e51b815260206004820152600e60248201526d04d61726b657456616c69643a54760941b6044820152606401610443565b811561090b578015158285111415806115a157508382145b1561090b5760405162461bcd60e51b815260206004820152600e60248201526d13585c9ad95d15985b1a590e94db60921b6044820152606401610443565b600060018260c001515110156115f6576000610532565b8160c0015160008151811061160d5761160d61292d565b602002602001015192915050565b6001546001600160a01b03163314610ba05760405162461bcd60e51b815260206004820181905260248201527f4f776e61626c653a2063616c6c6572206973206e6f7420746865206f776e65726044820152606401610443565b600180546001600160a01b038381166001600160a01b0319831681179093556040519116919082907f8be0079c531659141344cd1fd0a4f28419497f9722a3daafe3b4186f6b6457e090600090a35050565b610618828261144a565b6116db8282610c9f565b610618576116e881611a53565b6116f3836020611a65565b6040516020016117049291906129d2565b60408051601f198184030181529082905262461bcd60e51b825261044391600401612a47565b6110008111156117695760405162461bcd60e51b815260206004820152600a6024820152696d6c20746f6f2062696760b01b6044820152606401610443565b815165fff000000000191660249190911b179052565b6110008111156117be5760405162461bcd60e51b815260206004820152600a6024820152696d6c20746f6f2062696760b01b6044820152606401610443565b8151640fff000000191660189190911b179052565b6110008111156118125760405162461bcd60e51b815260206004820152600a602482015269737020746f6f2062696760b01b6044820152606401610443565b8151610fff1916179052565b61100081111561185d5760405162461bcd60e51b815260206004820152600a6024820152696d7320746f6f2062696760b01b6044820152606401610443565b815162fff0001916600c9190911b179052565b6401000000008111156118b35760405162461bcd60e51b815260206004820152600b60248201526a6d746120746f6f2062696760a81b6044820152606401610443565b81516cffffffff000000000000000000191660489190911b179052565b61100081111561190f5760405162461bcd60e51b815260206004820152600a6024820152696d7020746f6f2062696760b01b6044820152606401610443565b8151670fff000000000000191660309190911b179052565b6110008111156119665760405162461bcd60e51b815260206004820152600a6024820152696d6320746f6f2062696760b01b6044820152606401610443565b815168fff0000000000000001916603c9190911b179052565b606c8161198d576000611990565b60015b8351600f606c1b191660ff9190911690911b1790915250565b6068816119b75760006119ba565b60015b8351600f60681b191660ff9190911690911b1790915250565b60006119de82611a3d565b8251610532919060301c610fff16612584565b6000805b8251811015611a3757828181518110611a1057611a1061292d565b602002602001015182611a239190612943565b915080611a2f81612a7a565b9150506119f5565b50919050565b80516000906105329060701c60ff16600a612b77565b60606105326001600160a01b03831660145b60606000611a74836002612584565b611a7f906002612571565b6001600160401b03811115611a9657611a96611c8d565b6040519080825280601f01601f191660200182016040528015611ac0576020820181803683370190505b509050600360fc1b81600081518110611adb57611adb61292d565b60200101906001600160f81b031916908160001a905350600f60fb1b81600181518110611b0a57611b0a61292d565b60200101906001600160f81b031916908160001a9053506000611b2e846002612584565b611b39906001612571565b90505b6001811115611bb1576f181899199a1a9b1b9c1cb0b131b232b360811b85600f1660108110611b6d57611b6d61292d565b1a60f81b828281518110611b8357611b8361292d565b60200101906001600160f81b031916908160001a90535060049490941c93611baa81612b83565b9050611b3c565b508315611c005760405162461bcd60e51b815260206004820181905260248201527f537472696e67733a20686578206c656e67746820696e73756666696369656e746044820152606401610443565b9392505050565b600060208284031215611c1957600080fd5b5035919050565b60008060008060008060c08789031215611c3957600080fd5b505084359660208601359650604086013595606081013595506080810135945060a0013592509050565b600060208284031215611c7557600080fd5b81356001600160e01b031981168114611c0057600080fd5b634e487b7160e01b600052604160045260246000fd5b6040516101e081016001600160401b0381118282101715611cc657611cc6611c8d565b60405290565b6040516101a081016001600160401b0381118282101715611cc657611cc6611c8d565b60405160e081016001600160401b0381118282101715611cc657611cc6611c8d565b60405161018081016001600160401b0381118282101715611cc657611cc6611c8d565b604051601f8201601f191681016001600160401b0381118282101715611d5c57611d5c611c8d565b604052919050565b6001600160a01b038116811461044c57600080fd5b803561140e81611d64565b801515811461044c57600080fd5b803561140e81611d84565b803560ff8116811461140e57600080fd5b80356001600160401b038116811461140e57600080fd5b60006001600160401b03821115611dde57611dde611c8d565b5060051b60200190565b600082601f830112611df957600080fd5b81356020611e0e611e0983611dc5565b611d34565b82815260059290921b84018101918181019086841115611e2d57600080fd5b8286015b84811015611e485780358352918301918301611e31565b509695505050505050565b60006101e08284031215611e6657600080fd5b611e6e611ca3565b9050611e7982611d79565b8152611e8760208301611d92565b602082015260408201356040820152611ea260608301611d92565b6060820152611eb360808301611d79565b608082015260a082013560a082015260c082013560c082015260e082013560e0820152610100611ee4818401611d92565b90820152610120611ef6838201611d9d565b90820152610140611f08838201611dae565b90820152610160828101359082015261018080830135908201526101a0611f30818401611d9d565b908201526101c0828101356001600160401b03811115611f4f57600080fd5b611f5b85828601611de8565b82840152505092915050565b600060208284031215611f7957600080fd5b81356001600160401b03811115611f8f57600080fd5b611f9b84828501611e53565b949350505050565b60008060008060008060c08789031215611fbc57600080fd5b8635611fc781611d64565b95506020870135611fd781611d64565b94506040870135611fe781611d84565b93506060870135611ff781611d64565b9250608087013561200781611d64565b8092505060a087013590509295509295509295565b6000806040838503121561202f57600080fd5b50508035926020909101359150565b6000806040838503121561205157600080fd5b82359150602083013561206381611d64565b809150509250929050565b600080600080600060a0868803121561208657600080fd5b853561209181611d84565b94506020860135935060408601356120a881611d84565b925060608601356120b881611d84565b949793965091946080013592915050565b63ffffffff8116811461044c57600080fd5b803561140e816120c9565b803565ffffffffffff8116811461140e57600080fd5b80356001600160801b038116811461140e57600080fd5b60006101a0828403121561212657600080fd5b61212e611ccc565b905061213982611d9d565b8152612147602083016120db565b602082015261215860408301611d9d565b604082015261216960608301611d79565b606082015261217a608083016120e6565b608082015261218b60a083016120fc565b60a082015261219c60c083016120fc565b60c08201526121ad60e083016120fc565b60e08201526101006121c08184016120fc565b908201526101206121d2838201611dae565b908201526101406121e4838201611dae565b908201526101606121f68382016120fc565b818301525061018080830135818301525092915050565b6000806040838503121561222057600080fd5b82356001600160401b038082111561223757600080fd5b90840190610260828703121561224c57600080fd5b612254611cef565b61225d83611d79565b815261226b60208401611d92565b60208201526040830135604082015261228660608401611d92565b606082015261229760808401611d92565b60808201526122a98760a08501612113565b60a0820152610240830135828111156122c157600080fd5b6122cd88828601611de8565b60c0830152509660209590950135955050505050565b6000806000606084860312156122f857600080fd5b8335925060208401359150604084013561231181611d84565b809150509250925092565b60006020828403121561232e57600080fd5b8135611c0081611d64565b6000806000806000806000806000806101408b8d03121561235957600080fd5b8a35995060208b0135985060408b0135975060608b0135965060808b0135955060a08b0135945060c08b0135935060e08b013561239581611d84565b92506101008b01356123a681611d84565b809250506101208b013590509295989b9194979a5092959850565b60008060008060008060c087890312156123da57600080fd5b863595506020870135945060408701359350606087013592506080870135915060a087013561240881611d84565b809150509295509295509295565b6001600160d81b038116811461044c57600080fd5b803561140e81612416565b60008060008385036101c081121561244d57600080fd5b84356001600160401b038082111561246457600080fd5b61247088838901611e53565b9550610180915081601f198401121561248857600080fd5b612490611d11565b925061249e60208801611d79565b83526124ac60408801611d92565b60208401526124bd606088016120db565b60408401526124ce6080880161242b565b606084015260a0870135608084015260c087013560a084015260e087013560c08401526101008088013560e0850152610120808901358286015261014091508189013581860152506101608089013582860152838901358186015250508294506101a087013592508083111561254357600080fd5b505061255186828701611de8565b9150509250925092565b634e487b7160e01b600052601160045260246000fd5b808201808211156105325761053261255b565b80820281158282048414176105325761053261255b565b6000826125b857634e487b7160e01b600052601260045260246000fd5b500490565b818103818111156105325761053261255b565b805161140e81611d64565b805161140e81611d84565b805161140e816120c9565b805161140e81612416565b6000610180828403121561260f57600080fd5b612617611d11565b612620836125d0565b815261262e602084016125db565b602082015261263f604084016125e6565b6040820152612650606084016125f1565b60608201526080838101519082015260a0808401519082015260c0808401519082015260e08084015190820152610100808401519082015261012080840151908201526101408084015190820152610160928301519281019290925250919050565b600081518084526020808501945080840160005b838110156126e2578151875295820195908201906001016126c6565b509495945050505050565b80516001600160a01b03168252602081015161270d602084018215159052565b506040810151612725604084018263ffffffff169052565b50606081015161274060608401826001600160d81b03169052565b506080818101519083015260a0808201519083015260c0808201519083015260e0808201519083015261010080820151908301526101208082015190830152610140808201519083015261016090810151910152565b60006101a08083526127b381840186516001600160a01b03169052565b60208501516101c06127c88186018315159052565b60408701516101e0868101919091526060880151151561020087015260808801516001600160a01b031661022087015260a088015161024087015260c088015161026087015260e088015161028087015261010088015115156102a087015261012088015160ff9081166102c08801526101408901516001600160401b03166102e0880152610160890151610300880152610180890151610320880152938801519093166103408601528601516103608501929092525061288d6103808401826126b2565b915050611c0060208301846126ed565b600060208083850312156128b057600080fd5b82516001600160401b038111156128c657600080fd5b8301601f810185136128d757600080fd5b80516128e5611e0982611dc5565b81815260059190911b8201830190838101908783111561290457600080fd5b928401925b8284101561292257835182529284019290840190612909565b979650505050505050565b634e487b7160e01b600052603260045260246000fd5b80820182811260008312801582168215821617156129635761296361255b565b505092915050565b6000600160ff1b82016129805761298061255b565b5060000390565b81810360008312801583831316838312821617156129a7576129a761255b565b5092915050565b60005b838110156129c95781810151838201526020016129b1565b50506000910152565b7f416363657373436f6e74726f6c3a206163636f756e7420000000000000000000815260008351612a0a8160178501602088016129ae565b7001034b99036b4b9b9b4b733903937b6329607d1b6017918401918201528351612a3b8160288401602088016129ae565b01602801949350505050565b6020815260008251806020840152612a668160408501602087016129ae565b601f01601f19169190910160400192915050565b600060018201612a8c57612a8c61255b565b5060010190565b600181815b80851115612ace578160001904821115612ab457612ab461255b565b80851615612ac157918102915b93841c9390800290612a98565b509250929050565b600082612ae557506001610532565b81612af257506000610532565b8160018114612b085760028114612b1257612b2e565b6001915050610532565b60ff841115612b2357612b2361255b565b50506001821b610532565b5060208310610133831016604e8410600b8410161715612b51575081810a610532565b612b5b8383612a93565b8060001904821115612b6f57612b6f61255b565b029392505050565b6000611c008383612ad6565b600081612b9257612b9261255b565b50600019019056fea26469706673582212206ba669c20f770811209d5adba839d0e3b90ec7184162bf1b81ddcb5c85c81e4364736f6c63430008110033",
  "linkReferences": {},
  "deployedLinkReferences": {}
}