{
  "_format": "hh-sol-artifact-1",
  "contractName": "MarketValid",
  "sourceName": "contracts/market/MarketValid.sol",
  "abi": [
    {
      "inputs": [
        {
          "internalType": "address",
          "name": "_f",
          "type": "address"
        }
      ],
      "stateMutability": "nonpayable",
      "type": "constructor"
    },
    {
      "anonymous": false,
      "inputs": [
        {
          "indexed": false,
          "internalType": "uint8",
          "name": "version",
          "type": "uint8"
        }
      ],
      "name": "Initialized",
      "type": "event"
    },
    {
      "inputs": [],
      "name": "DEFAULT_ADMIN_ROLE",
      "outputs": [
        {
          "internalType": "bytes32",
          "name": "",
          "type": "bytes32"
        }
      ],
      "stateMutability": "view",
      "type": "function"
    },
    {
      "inputs": [
        {
          "internalType": "address",
          "name": "newOwner",
          "type": "address"
        }
      ],
      "name": "_transferOwnership",
      "outputs": [],
      "stateMutability": "pure",
      "type": "function"
    },
    {
      "inputs": [],
      "name": "conf",
      "outputs": [
        {
          "internalType": "uint256",
          "name": "data",
          "type": "uint256"
        }
      ],
      "stateMutability": "view",
      "type": "function"
    },
    {
      "inputs": [
        {
          "internalType": "uint256",
          "name": "decrOrderCount",
          "type": "uint256"
        }
      ],
      "name": "getDecreaseOrderValidation",
      "outputs": [
        {
          "internalType": "bool",
          "name": "isValid",
          "type": "bool"
        }
      ],
      "stateMutability": "view",
      "type": "function"
    },
    {
      "inputs": [
        {
          "internalType": "address",
          "name": "_account",
          "type": "address"
        }
      ],
      "name": "grantControllerRoleByMarketManager",
      "outputs": [],
      "stateMutability": "nonpayable",
      "type": "function"
    },
    {
      "inputs": [
        {
          "internalType": "bytes32",
          "name": "role",
          "type": "bytes32"
        },
        {
          "internalType": "address",
          "name": "account",
          "type": "address"
        }
      ],
      "name": "grantRole",
      "outputs": [],
      "stateMutability": "pure",
      "type": "function"
    },
    {
      "inputs": [
        {
          "internalType": "bytes32",
          "name": "role",
          "type": "bytes32"
        },
        {
          "internalType": "address",
          "name": "account",
          "type": "address"
        }
      ],
      "name": "hasRole",
      "outputs": [
        {
          "internalType": "bool",
          "name": "",
          "type": "bool"
        }
      ],
      "stateMutability": "pure",
      "type": "function"
    },
    {
      "inputs": [
        {
          "internalType": "address",
          "name": "_account",
          "type": "address"
        },
        {
          "internalType": "address",
          "name": "_market",
          "type": "address"
        },
        {
          "internalType": "bool",
          "name": "_isLong",
          "type": "bool"
        },
        {
          "internalType": "contract IPositionBook",
          "name": "positionBook",
          "type": "address"
        },
        {
          "internalType": "contract IFeeRouter",
          "name": "feeRouter",
          "type": "address"
        },
        {
          "internalType": "uint256",
          "name": "markPrice",
          "type": "uint256"
        }
      ],
      "name": "isLiquidate",
      "outputs": [
        {
          "internalType": "uint256",
          "name": "_state",
          "type": "uint256"
        }
      ],
      "stateMutability": "view",
      "type": "function"
    },
    {
      "inputs": [
        {
          "internalType": "bytes32",
          "name": "role",
          "type": "bytes32"
        },
        {
          "internalType": "address",
          "name": "account",
          "type": "address"
        }
      ],
      "name": "revokeRole",
      "outputs": [],
      "stateMutability": "pure",
      "type": "function"
    },
    {
      "inputs": [
        {
          "internalType": "uint256",
          "name": "_minSlippage",
          "type": "uint256"
        },
        {
          "internalType": "uint256",
          "name": "_maxSlippage",
          "type": "uint256"
        },
        {
          "internalType": "uint256",
          "name": "_minLeverage",
          "type": "uint256"
        },
        {
          "internalType": "uint256",
          "name": "_maxLeverage",
          "type": "uint256"
        },
        {
          "internalType": "uint256",
          "name": "_maxTradeAmount",
          "type": "uint256"
        },
        {
          "internalType": "uint256",
          "name": "_minPay",
          "type": "uint256"
        },
        {
          "internalType": "uint256",
          "name": "_minCollateral",
          "type": "uint256"
        },
        {
          "internalType": "bool",
          "name": "_allowOpen",
          "type": "bool"
        },
        {
          "internalType": "bool",
          "name": "_allowClose",
          "type": "bool"
        },
        {
          "internalType": "uint256",
          "name": "",
          "type": "uint256"
        }
      ],
      "name": "setConf",
      "outputs": [],
      "stateMutability": "nonpayable",
      "type": "function"
    },
    {
      "inputs": [
        {
          "internalType": "uint256",
          "name": "_data",
          "type": "uint256"
        }
      ],
      "name": "setConfData",
      "outputs": [],
      "stateMutability": "nonpayable",
      "type": "function"
    },
    {
      "inputs": [
        {
          "internalType": "address",
          "name": "to",
          "type": "address"
        }
      ],
      "name": "transferAdmin",
      "outputs": [],
      "stateMutability": "nonpayable",
      "type": "function"
    },
    {
      "inputs": [
        {
          "internalType": "address",
          "name": "newOwner",
          "type": "address"
        }
      ],
      "name": "transferOwnership",
      "outputs": [],
      "stateMutability": "pure",
      "type": "function"
    },
    {
      "inputs": [
        {
          "internalType": "uint256",
          "name": "busType",
          "type": "uint256"
        },
        {
          "internalType": "uint256",
          "name": "_collateral",
          "type": "uint256"
        },
        {
          "internalType": "uint256",
          "name": "_collateralDelta",
          "type": "uint256"
        },
        {
          "internalType": "uint256",
          "name": "_size",
          "type": "uint256"
        },
        {
          "internalType": "uint256",
          "name": "_sizeDelta",
          "type": "uint256"
        },
        {
          "internalType": "int256",
          "name": "_fees",
          "type": "int256"
        }
      ],
      "name": "validCollateralDelta",
      "outputs": [],
      "stateMutability": "view",
      "type": "function"
    },
    {
      "inputs": [
        {
          "internalType": "uint256",
          "name": "_collateral",
          "type": "uint256"
        },
        {
          "internalType": "uint256",
          "name": "_collateralDelta",
          "type": "uint256"
        },
        {
          "internalType": "uint256",
          "name": "_size",
          "type": "uint256"
        },
        {
          "internalType": "uint256",
          "name": "_sizeDelta",
          "type": "uint256"
        },
        {
          "internalType": "int256",
          "name": "fees",
          "type": "int256"
        },
        {
          "internalType": "uint256",
          "name": "decrOrderCount",
          "type": "uint256"
        }
      ],
      "name": "validDecreaseOrder",
      "outputs": [],
      "stateMutability": "view",
      "type": "function"
    },
    {
      "inputs": [
        {
          "components": [
            {
              "internalType": "address",
              "name": "_market",
              "type": "address"
            },
            {
              "internalType": "bool",
              "name": "_isLong",
              "type": "bool"
            },
            {
              "internalType": "uint256",
              "name": "_oraclePrice",
              "type": "uint256"
            },
            {
              "internalType": "bool",
              "name": "isOpen",
              "type": "bool"
            },
            {
              "internalType": "bool",
              "name": "isCreate",
              "type": "bool"
            },
            {
              "components": [
                {
                  "internalType": "uint8",
                  "name": "version",
                  "type": "uint8"
                },
                {
                  "internalType": "uint32",
                  "name": "updatedAtBlock",
                  "type": "uint32"
                },
                {
                  "internalType": "uint8",
                  "name": "triggerAbove",
                  "type": "uint8"
                },
                {
                  "internalType": "address",
                  "name": "account",
                  "type": "address"
                },
                {
                  "internalType": "uint48",
                  "name": "extra3",
                  "type": "uint48"
                },
                {
                  "internalType": "uint128",
                  "name": "collateral",
                  "type": "uint128"
                },
                {
                  "internalType": "uint128",
                  "name": "size",
                  "type": "uint128"
                },
                {
                  "internalType": "uint128",
                  "name": "price",
                  "type": "uint128"
                },
                {
                  "internalType": "uint128",
                  "name": "extra1",
                  "type": "uint128"
                },
                {
                  "internalType": "uint64",
                  "name": "orderID",
                  "type": "uint64"
                },
                {
                  "internalType": "uint64",
                  "name": "extra2",
                  "type": "uint64"
                },
                {
                  "internalType": "uint128",
                  "name": "extra0",
                  "type": "uint128"
                },
                {
                  "internalType": "bytes32",
                  "name": "refCode",
                  "type": "bytes32"
                }
              ],
              "internalType": "struct Order.Props",
              "name": "_order",
              "type": "tuple"
            },
            {
              "internalType": "uint256[]",
              "name": "inputs",
              "type": "uint256[]"
            }
          ],
          "internalType": "struct MarketDataTypes.UpdateOrderInputs",
          "name": "_vars",
          "type": "tuple"
        },
        {
          "internalType": "int256",
          "name": "fees",
          "type": "int256"
        }
      ],
      "name": "validIncreaseOrder",
      "outputs": [],
      "stateMutability": "view",
      "type": "function"
    },
    {
      "inputs": [
        {
          "internalType": "uint256",
          "name": "newSize",
          "type": "uint256"
        },
        {
          "internalType": "uint256",
          "name": "newCollateral",
          "type": "uint256"
        }
      ],
      "name": "validLev",
      "outputs": [],
      "stateMutability": "view",
      "type": "function"
    },
    {
      "inputs": [
        {
          "internalType": "bool",
          "name": "_isLong",
          "type": "bool"
        },
        {
          "internalType": "uint256",
          "name": "_price",
          "type": "uint256"
        },
        {
          "internalType": "bool",
          "name": "_isIncrease",
          "type": "bool"
        },
        {
          "internalType": "bool",
          "name": "_isExec",
          "type": "bool"
        },
        {
          "internalType": "uint256",
          "name": "_markPrice",
          "type": "uint256"
        }
      ],
      "name": "validMarkPrice",
      "outputs": [],
      "stateMutability": "pure",
      "type": "function"
    },
    {
      "inputs": [
        {
          "internalType": "uint256",
          "name": "_pay",
          "type": "uint256"
        }
      ],
      "name": "validPay",
      "outputs": [],
      "stateMutability": "view",
      "type": "function"
    },
    {
      "inputs": [
        {
          "components": [
            {
              "internalType": "address",
              "name": "_market",
              "type": "address"
            },
            {
              "internalType": "bool",
              "name": "_isLong",
              "type": "bool"
            },
            {
              "internalType": "uint256",
              "name": "_oraclePrice",
              "type": "uint256"
            },
            {
              "internalType": "bool",
              "name": "isOpen",
              "type": "bool"
            },
            {
              "internalType": "address",
              "name": "_account",
              "type": "address"
            },
            {
              "internalType": "uint256",
              "name": "_sizeDelta",
              "type": "uint256"
            },
            {
              "internalType": "uint256",
              "name": "_price",
              "type": "uint256"
            },
            {
              "internalType": "uint256",
              "name": "_slippage",
              "type": "uint256"
            },
            {
              "internalType": "bool",
              "name": "_isExec",
              "type": "bool"
            },
            {
              "internalType": "uint8",
              "name": "liqState",
              "type": "uint8"
            },
            {
              "internalType": "uint64",
              "name": "_fromOrder",
              "type": "uint64"
            },
            {
              "internalType": "bytes32",
              "name": "_refCode",
              "type": "bytes32"
            },
            {
              "internalType": "uint256",
              "name": "collateralDelta",
              "type": "uint256"
            },
            {
              "internalType": "uint8",
              "name": "execNum",
              "type": "uint8"
            },
            {
              "internalType": "uint256[]",
              "name": "inputs",
              "type": "uint256[]"
            }
          ],
          "internalType": "struct MarketDataTypes.UpdatePositionInputs",
          "name": "_params",
          "type": "tuple"
        },
        {
          "components": [
            {
              "internalType": "address",
              "name": "market",
              "type": "address"
            },
            {
              "internalType": "bool",
              "name": "isLong",
              "type": "bool"
            },
            {
              "internalType": "uint32",
              "name": "lastTime",
              "type": "uint32"
            },
            {
              "internalType": "uint216",
              "name": "extra3",
              "type": "uint216"
            },
            {
              "internalType": "uint256",
              "name": "size",
              "type": "uint256"
            },
            {
              "internalType": "uint256",
              "name": "collateral",
              "type": "uint256"
            },
            {
              "internalType": "uint256",
              "name": "averagePrice",
              "type": "uint256"
            },
            {
              "internalType": "int256",
              "name": "entryFundingRate",
              "type": "int256"
            },
            {
              "internalType": "int256",
              "name": "realisedPnl",
              "type": "int256"
            },
            {
              "internalType": "uint256",
              "name": "extra0",
              "type": "uint256"
            },
            {
              "internalType": "uint256",
              "name": "extra1",
              "type": "uint256"
            },
            {
              "internalType": "uint256",
              "name": "extra2",
              "type": "uint256"
            }
          ],
          "internalType": "struct Position.Props",
          "name": "_position",
          "type": "tuple"
        },
        {
          "internalType": "int256[]",
          "name": "_fees",
          "type": "int256[]"
        }
      ],
      "name": "validPosition",
      "outputs": [],
      "stateMutability": "view",
      "type": "function"
    },
    {
      "inputs": [
        {
          "internalType": "uint256",
          "name": "_size",
          "type": "uint256"
        },
        {
          "internalType": "uint256",
          "name": "_sizeDelta",
          "type": "uint256"
        },
        {
          "internalType": "bool",
          "name": "_isIncrease",
          "type": "bool"
        }
      ],
      "name": "validSize",
      "outputs": [],
      "stateMutability": "pure",
      "type": "function"
    },
    {
      "inputs": [
        {
          "components": [
            {
              "internalType": "address",
              "name": "_market",
              "type": "address"
            },
            {
              "internalType": "bool",
              "name": "_isLong",
              "type": "bool"
            },
            {
              "internalType": "uint256",
              "name": "_oraclePrice",
              "type": "uint256"
            },
            {
              "internalType": "bool",
              "name": "isOpen",
              "type": "bool"
            },
            {
              "internalType": "address",
              "name": "_account",
              "type": "address"
            },
            {
              "internalType": "uint256",
              "name": "_sizeDelta",
              "type": "uint256"
            },
            {
              "internalType": "uint256",
              "name": "_price",
              "type": "uint256"
            },
            {
              "internalType": "uint256",
              "name": "_slippage",
              "type": "uint256"
            },
            {
              "internalType": "bool",
              "name": "_isExec",
              "type": "bool"
            },
            {
              "internalType": "uint8",
              "name": "liqState",
              "type": "uint8"
            },
            {
              "internalType": "uint64",
              "name": "_fromOrder",
              "type": "uint64"
            },
            {
              "internalType": "bytes32",
              "name": "_refCode",
              "type": "bytes32"
            },
            {
              "internalType": "uint256",
              "name": "collateralDelta",
              "type": "uint256"
            },
            {
              "internalType": "uint8",
              "name": "execNum",
              "type": "uint8"
            },
            {
              "internalType": "uint256[]",
              "name": "inputs",
              "type": "uint256[]"
            }
          ],
          "internalType": "struct MarketDataTypes.UpdatePositionInputs",
          "name": "_inputs",
          "type": "tuple"
        }
      ],
      "name": "validSlippagePrice",
      "outputs": [],
      "stateMutability": "view",
      "type": "function"
    },
    {
      "inputs": [
        {
          "internalType": "int256",
          "name": "pnl",
          "type": "int256"
        },
        {
          "internalType": "int256",
          "name": "fees",
          "type": "int256"
        },
        {
          "internalType": "int256",
          "name": "liquidateFee",
          "type": "int256"
        },
        {
          "internalType": "int256",
          "name": "collateral",
          "type": "int256"
        },
        {
          "internalType": "uint256",
          "name": "size",
          "type": "uint256"
        },
        {
          "internalType": "bool",
          "name": "_raise",
          "type": "bool"
        }
      ],
      "name": "validateLiquidation",
      "outputs": [
        {
          "internalType": "uint8",
          "name": "",
          "type": "uint8"
        }
      ],
      "stateMutability": "view",
      "type": "function"
    }
  ],
  "bytecode": "0x60806040523480156200001157600080fd5b50604051620023bc380380620023bc833981016040819052620000349162000062565b806200004b816200005360201b62000fd41760201c565b505062000094565b426001556200005f3381565b50565b6000602082840312156200007557600080fd5b81516001600160a01b03811681146200008d57600080fd5b9392505050565b61231880620000a46000396000f3fe608060405234801561001057600080fd5b506004361061014d5760003560e01c80637fe4a698116100c3578063d547741f1161007c578063d547741f146101d0578063e4eacaf4146102b1578063e82956c0146102c4578063f2fde38b146102a0578063f77a91a8146102d7578063fc54d91d146102fc57600080fd5b80637fe4a6981461022e5780638e98ec8d1461024157806391d1485414610262578063a217fddf14610285578063d04093d51461028d578063d29d44ee146102a057600080fd5b80632b5a3018116101155780632b5a3018146101bd5780632f2ff15d146101d057806352916b9c146101e2578063592b1e2a146101f55780636debc3b31461020857806375829def1461021b57600080fd5b8063015fc6131461015257806301b8fd7c14610167578063142d24971461017a578063177927291461018d5780631f21756a146101aa575b600080fd5b610165610160366004611455565b61030f565b005b61016561017536600461146e565b61037c565b61016561018836600461178b565b61042e565b6002546101979081565b6040519081526020015b60405180910390f35b6101976101b83660046117c7565b61050e565b6101656101cb366004611840565b61076e565b6101656101de366004611862565b5050565b6101656101f0366004611892565b610803565b610165610203366004611a31565b6108fc565b610165610216366004611b07565b61098f565b610165610229366004611b40565b6109e1565b61016561023c366004611b40565b6102ae565b61016561024f366004611455565b6040805160208101909152819052600255565b610275610270366004611862565b6109ec565b60405190151581526020016101a1565b610197600081565b61016561029b366004611b64565b6109f5565b6101656102ae366004611b40565b50565b6101656102bf36600461146e565b610aa3565b6102756102d2366004611455565b610c32565b6102ea6102e5366004611bec565b610c60565b60405160ff90911681526020016101a1565b61016561030a366004611c61565b610ea9565b6040805160208101909152600254815261032890610fdb565b8111156102ae5760405162461bcd60e51b815260206004820152601e60248201527f4d61726b657456616c69643a7061793e4d61785472616465416d6f756e74000060448201526064015b60405180910390fd5b610387816001611d9c565b604080516020810190915260025481526103a090610ffb565b10156103ee5760405162461bcd60e51b815260206004820152601760248201527f4d6178206f72646572733a636f6e666967206c696d69740000000000000000006044820152606401610373565b6103fa8484600061098f565b604080516020810190915260025490819052600f60841b16156104265761042660038787878787610aa3565b505050505050565b604080516020810190915260025490819052600c1c610fff168160e00151111561047157604080516020810190915260025490819052600c1c610fff1660e08201525b60008160600151151582602001511515036104bd576127108260e001518360c0015161049d9190611daf565b6104a79190611dc6565b8260c001516104b69190611d9c565b90506104f0565b6127108260e001518360c001516104d49190611daf565b6104de9190611dc6565b8260c001516104ed9190611de8565b90505b6101de82602001518284606001518561010001518660400151610803565b60405163bc95baad60e01b81526001600160a01b038781166004830152602482018390528515156044830152600091829186169063bc95baad9060640161018060405180830381865afa158015610569573d6000803e3d6000fd5b505050506040513d601f19601f8201168201806040525081019061058d9190611e27565b905080608001516000036105a5576000915050610764565b604080516101e08101825260008082526020820181905291810182905260608082018390526080820183905260a0820183905260c0820183905260e08201839052610100820183905261012082018390526101408201839052610160820183905261018082018390526101a082018390526101c082015290610628908290611016565b60408082018590526001600160a01b03808b16608080850191909152600161010085018190528a151560208601529085015160a0808601919091528501516101808501528a821684526101208401529051634151026360e01b815260009187169063415102639061069f9085908790600401611fc1565b600060405180830381865afa1580156106bc573d6000803e3d6000fd5b505050506040513d6000823e601f3d908101601f191682016040526106e491908101906120c8565b905061075b8361010001518260028151811061070257610702612158565b60200260200101518360018151811061071d5761071d612158565b602002602001015161072f919061216e565b8360048151811061074257610742612158565b60200260200101518660a0015187608001516000610c60565b60ff1693505050505b9695505050505050565b811580610779575080155b15610782575050565b600061078e8284611dc6565b60408051602081019091526002548082529192509060241c610fff168211806107be5750805160181c610fff1682105b156107fd5760405162461bcd60e51b815260206004820152600f60248201526e26b0b935b2ba2b30b634b21d2632bb60891b6044820152606401610373565b50505050565b600084116108535760405162461bcd60e51b815260206004820152601c60248201527f4d61726b657456616c69643a696e707574207072696365207a65726f000000006044820152606401610373565b600081116108995760405162461bcd60e51b81526020600482015260136024820152724d61726b657456616c69643a216f7261636c6560681b6044820152606401610373565b816108f55784151583151514818511146108f55760405162461bcd60e51b815260206004820152601c60248201527f4d61726b657456616c69643a2166726f6e742d656e64207072696365000000006044820152606401610373565b5050505050565b6109478260a0015160e001516001600160801b031661092a8460a0015161010001516001600160801b031690565b60a085015161016001516001600160801b03168560200151611044565b61096560008360a0015160c001516001600160801b0316600161098f565b6101de60016000610975856110f0565b60008660a0015160c001516001600160801b031686610aa3565b8015156000036109dc57818310156109dc5760405162461bcd60e51b815260206004820152601060248201526f4d61726b657456616c69643a53697a6560801b6044820152606401610373565b505050565b60006101de60003382565b60015b92915050565b604080516020810190915260025481527f8d1089725c0dc266707fa6207730fb801dcd03108bfed7a21099bd303651d2b790610a31818a61112c565b610a3b818b611181565b610a45818d6111d5565b610a4f818c611220565b610a598189611272565b610a6381886112d2565b610a6d8187611329565b610a778186611381565b610a8181856113ab565b805160ff60701b1916600960711b178152516002555050505050505050505050565b6040805160208101909152600254808252600f606c1b16158015610ac8575060028711155b80610ae357508051600f60681b16158015610ae35750600287115b15610b305760405162461bcd60e51b815260206004820152601860248201527f4d61726b657456616c69643a4d61726b6574436c6f73656400000000000000006044820152606401610373565b600287118015610b3f57508383145b15610b4a5750610426565b600060038810610b6357610b5e8688611de8565b610b6d565b610b6d8688611d9c565b9050876003148015610b7d575080155b15610b89575050610426565b60028811610bc1576000831315610bab57610ba48382611de8565b9050610bc1565b610bb483612196565b610bbe9082611d9c565b90505b86158015610bcf5750876001145b8015610be25750610bdf826113d5565b86105b15610c285760405162461bcd60e51b815260206004820152601660248201527513585c9ad95d15985b1a590e90dbdb1b185d195c985b60521b6044820152606401610373565b5050505050505050565b6000610c3f826001611d9c565b60408051602081019091526002548152610c5890610ffb565b101592915050565b60008087128015610c7a57506000610c78888661216e565b125b15610ce1578115610cd95760405162461bcd60e51b8152602060048201526024808201527f4d61726b657456616c69643a6c6f737365732065786365656420636f6c6c6174604482015263195c985b60e21b6064820152608401610373565b506001610764565b836000881215610cf857610cf5888661216e565b90505b86811215610d64578215610d5a5760405162461bcd60e51b815260206004820152602360248201527f4d61726b657456616c69643a20666565732065786365656420636f6c6c6174656044820152621c985b60ea1b6064820152608401610373565b6001915050610764565b610d6e868861216e565b811215610ddb578215610d5a5760405162461bcd60e51b815260206004820152602f60248201527f4d61726b657456616c69643a206c69717569646174696f6e206665657320657860448201526e18d959590818dbdb1b185d195c985b608a1b6064820152608401610373565b610de761271085611daf565b6040805160208101909152600254908190526127109060241c610fff1660008a13610e13576000610e15565b895b610e1f90856121b2565b610e299190611daf565b610e339190611daf565b1015610e9b578215610e915760405162461bcd60e51b815260206004820152602160248201527f4d61726b657456616c69643a206d61784c6576657261676520657863656564656044820152601960fa1b6064820152608401610373565b6002915050610764565b506000979650505050505050565b610ec082608001518460a00151856060015161098f565b826060015115610f1857610ed883610180015161030f565b610f13600084610180015111610eef576002610ef2565b60015b60ff168360a0015185610180015185608001518760a001516102bf876113f3565b610f61565b81608001518360a0015114610f6157610f61600084610180015111610f3e576004610ef2565b600360ff168360a0015185610180015185608001518760a001516102bf876113f3565b60008360a00151118015610f7b575061012083015160ff16155b156109dc576000836040015111610fcb5760405162461bcd60e51b8152602060048201526014602482015273696e76616c6964206f7261636c6520707269636560601b6044820152606401610373565b6109dc8361042e565b4260015550565b6000610fe68261143f565b82516109ef919060481c63ffffffff16611daf565b805160781c610fff1660008190036110115750600a5b919050565b60408051600480825260a0820190925290602082016080803683375050506101c08301521515606090910152565b821561109a5783831181151514158061105c57508383145b1561109a5760405162461bcd60e51b815260206004820152600e60248201526d04d61726b657456616c69643a54760941b6044820152606401610373565b81156107fd578015158285111415806110b257508382145b156107fd5760405162461bcd60e51b815260206004820152600e60248201526d13585c9ad95d15985b1a590e94db60921b6044820152606401610373565b600060018260c001515110156111075760006109ef565b8160c0015160008151811061111e5761111e612158565b602002602001015192915050565b61100081111561116b5760405162461bcd60e51b815260206004820152600a6024820152696d6c20746f6f2062696760b01b6044820152606401610373565b815165fff000000000191660249190911b179052565b6110008111156111c05760405162461bcd60e51b815260206004820152600a6024820152696d6c20746f6f2062696760b01b6044820152606401610373565b8151640fff000000191660189190911b179052565b6110008111156112145760405162461bcd60e51b815260206004820152600a602482015269737020746f6f2062696760b01b6044820152606401610373565b8151610fff1916179052565b61100081111561125f5760405162461bcd60e51b815260206004820152600a6024820152696d7320746f6f2062696760b01b6044820152606401610373565b815162fff0001916600c9190911b179052565b6401000000008111156112b55760405162461bcd60e51b815260206004820152600b60248201526a6d746120746f6f2062696760a81b6044820152606401610373565b81516cffffffff000000000000000000191660489190911b179052565b6110008111156113115760405162461bcd60e51b815260206004820152600a6024820152696d7020746f6f2062696760b01b6044820152606401610373565b8151670fff000000000000191660309190911b179052565b6110008111156113685760405162461bcd60e51b815260206004820152600a6024820152696d6320746f6f2062696760b01b6044820152606401610373565b815168fff0000000000000001916603c9190911b179052565b606c8161138f576000611392565b60015b8351600f606c1b191660ff9190911690911b1790915250565b6068816113b95760006113bc565b60015b8351600f60681b191660ff9190911690911b1790915250565b60006113e08261143f565b82516109ef919060301c610fff16611daf565b6000805b82518110156114395782818151811061141257611412612158565b602002602001015182611425919061216e565b915080611431816121d9565b9150506113f7565b50919050565b80516000906109ef9060701c60ff16600a6122d6565b60006020828403121561146757600080fd5b5035919050565b60008060008060008060c0878903121561148757600080fd5b505084359660208601359650604086013595606081013595506080810135945060a0013592509050565b634e487b7160e01b600052604160045260246000fd5b6040516101e081016001600160401b03811182821017156114ea576114ea6114b1565b60405290565b6040516101a081016001600160401b03811182821017156114ea576114ea6114b1565b60405160e081016001600160401b03811182821017156114ea576114ea6114b1565b60405161018081016001600160401b03811182821017156114ea576114ea6114b1565b604051601f8201601f191681016001600160401b0381118282101715611580576115806114b1565b604052919050565b6001600160a01b03811681146102ae57600080fd5b803561101181611588565b80151581146102ae57600080fd5b8035611011816115a8565b803560ff8116811461101157600080fd5b80356001600160401b038116811461101157600080fd5b60006001600160401b03821115611602576116026114b1565b5060051b60200190565b600082601f83011261161d57600080fd5b8135602061163261162d836115e9565b611558565b82815260059290921b8401810191818101908684111561165157600080fd5b8286015b8481101561166c5780358352918301918301611655565b509695505050505050565b60006101e0828403121561168a57600080fd5b6116926114c7565b905061169d8261159d565b81526116ab602083016115b6565b6020820152604082013560408201526116c6606083016115b6565b60608201526116d76080830161159d565b608082015260a082013560a082015260c082013560c082015260e082013560e08201526101006117088184016115b6565b9082015261012061171a8382016115c1565b9082015261014061172c8382016115d2565b90820152610160828101359082015261018080830135908201526101a06117548184016115c1565b908201526101c0828101356001600160401b0381111561177357600080fd5b61177f8582860161160c565b82840152505092915050565b60006020828403121561179d57600080fd5b81356001600160401b038111156117b357600080fd5b6117bf84828501611677565b949350505050565b60008060008060008060c087890312156117e057600080fd5b86356117eb81611588565b955060208701356117fb81611588565b9450604087013561180b816115a8565b9350606087013561181b81611588565b9250608087013561182b81611588565b8092505060a087013590509295509295509295565b6000806040838503121561185357600080fd5b50508035926020909101359150565b6000806040838503121561187557600080fd5b82359150602083013561188781611588565b809150509250929050565b600080600080600060a086880312156118aa57600080fd5b85356118b5816115a8565b94506020860135935060408601356118cc816115a8565b925060608601356118dc816115a8565b949793965091946080013592915050565b63ffffffff811681146102ae57600080fd5b8035611011816118ed565b803565ffffffffffff8116811461101157600080fd5b80356001600160801b038116811461101157600080fd5b60006101a0828403121561194a57600080fd5b6119526114f0565b905061195d826115c1565b815261196b602083016118ff565b602082015261197c604083016115c1565b604082015261198d6060830161159d565b606082015261199e6080830161190a565b60808201526119af60a08301611920565b60a08201526119c060c08301611920565b60c08201526119d160e08301611920565b60e08201526101006119e4818401611920565b908201526101206119f68382016115d2565b90820152610140611a088382016115d2565b90820152610160611a1a838201611920565b818301525061018080830135818301525092915050565b60008060408385031215611a4457600080fd5b82356001600160401b0380821115611a5b57600080fd5b908401906102608287031215611a7057600080fd5b611a78611513565b611a818361159d565b8152611a8f602084016115b6565b602082015260408301356040820152611aaa606084016115b6565b6060820152611abb608084016115b6565b6080820152611acd8760a08501611937565b60a082015261024083013582811115611ae557600080fd5b611af18882860161160c565b60c0830152509660209590950135955050505050565b600080600060608486031215611b1c57600080fd5b83359250602084013591506040840135611b35816115a8565b809150509250925092565b600060208284031215611b5257600080fd5b8135611b5d81611588565b9392505050565b6000806000806000806000806000806101408b8d031215611b8457600080fd5b8a35995060208b0135985060408b0135975060608b0135965060808b0135955060a08b0135945060c08b0135935060e08b0135611bc0816115a8565b92506101008b0135611bd1816115a8565b809250506101208b013590509295989b9194979a5092959850565b60008060008060008060c08789031215611c0557600080fd5b863595506020870135945060408701359350606087013592506080870135915060a0870135611c33816115a8565b809150509295509295509295565b6001600160d81b03811681146102ae57600080fd5b803561101181611c41565b60008060008385036101c0811215611c7857600080fd5b84356001600160401b0380821115611c8f57600080fd5b611c9b88838901611677565b9550610180915081601f1984011215611cb357600080fd5b611cbb611535565b9250611cc96020880161159d565b8352611cd7604088016115b6565b6020840152611ce8606088016118ff565b6040840152611cf960808801611c56565b606084015260a0870135608084015260c087013560a084015260e087013560c08401526101008088013560e0850152610120808901358286015261014091508189013581860152506101608089013582860152838901358186015250508294506101a0870135925080831115611d6e57600080fd5b5050611d7c8682870161160c565b9150509250925092565b634e487b7160e01b600052601160045260246000fd5b808201808211156109ef576109ef611d86565b80820281158282048414176109ef576109ef611d86565b600082611de357634e487b7160e01b600052601260045260246000fd5b500490565b818103818111156109ef576109ef611d86565b805161101181611588565b8051611011816115a8565b8051611011816118ed565b805161101181611c41565b60006101808284031215611e3a57600080fd5b611e42611535565b611e4b83611dfb565b8152611e5960208401611e06565b6020820152611e6a60408401611e11565b6040820152611e7b60608401611e1c565b60608201526080838101519082015260a0808401519082015260c0808401519082015260e08084015190820152610100808401519082015261012080840151908201526101408084015190820152610160928301519281019290925250919050565b600081518084526020808501945080840160005b83811015611f0d57815187529582019590820190600101611ef1565b509495945050505050565b80516001600160a01b031682526020810151611f38602084018215159052565b506040810151611f50604084018263ffffffff169052565b506060810151611f6b60608401826001600160d81b03169052565b506080818101519083015260a0808201519083015260c0808201519083015260e0808201519083015261010080820151908301526101208082015190830152610140808201519083015261016090810151910152565b60006101a0808352611fde81840186516001600160a01b03169052565b60208501516101c0611ff38186018315159052565b60408701516101e0868101919091526060880151151561020087015260808801516001600160a01b031661022087015260a088015161024087015260c088015161026087015260e088015161028087015261010088015115156102a087015261012088015160ff9081166102c08801526101408901516001600160401b03166102e088015261016089015161030088015261018089015161032088015293880151909316610340860152860151610360850192909252506120b8610380840182611edd565b915050611b5d6020830184611f18565b600060208083850312156120db57600080fd5b82516001600160401b038111156120f157600080fd5b8301601f8101851361210257600080fd5b805161211061162d826115e9565b81815260059190911b8201830190838101908783111561212f57600080fd5b928401925b8284101561214d57835182529284019290840190612134565b979650505050505050565b634e487b7160e01b600052603260045260246000fd5b808201828112600083128015821682158216171561218e5761218e611d86565b505092915050565b6000600160ff1b82016121ab576121ab611d86565b5060000390565b81810360008312801583831316838312821617156121d2576121d2611d86565b5092915050565b6000600182016121eb576121eb611d86565b5060010190565b600181815b8085111561222d57816000190482111561221357612213611d86565b8085161561222057918102915b93841c93908002906121f7565b509250929050565b600082612244575060016109ef565b81612251575060006109ef565b816001811461226757600281146122715761228d565b60019150506109ef565b60ff84111561228257612282611d86565b50506001821b6109ef565b5060208310610133831016604e8410600b84101617156122b0575081810a6109ef565b6122ba83836121f2565b80600019048211156122ce576122ce611d86565b029392505050565b6000611b5d838361223556fea264697066735822122061b5ba23b60f58b2b41388a8bf4e1ce81b51ad685bf1370759bef0e39d4c826b64736f6c63430008110033",
  "linkReferences": {},
  "deployedLinkReferences": {}
}