{
  "_format": "hh-sol-artifact-1",
  "contractName": "PositionBook",
  "sourceName": "contracts/position/PositionBook.sol",
  "abi": [
    {
      "inputs": [
        {
          "internalType": "address",
          "name": "factoty",
          "type": "address"
        }
      ],
      "stateMutability": "nonpayable",
      "type": "constructor"
    },
    {
      "anonymous": false,
      "inputs": [
        {
          "indexed": false,
          "internalType": "uint8",
          "name": "version",
          "type": "uint8"
        }
      ],
      "name": "Initialized",
      "type": "event"
    },
    {
      "anonymous": false,
      "inputs": [
        {
          "indexed": true,
          "internalType": "address",
          "name": "previousOwner",
          "type": "address"
        },
        {
          "indexed": true,
          "internalType": "address",
          "name": "newOwner",
          "type": "address"
        }
      ],
      "name": "OwnershipTransferred",
      "type": "event"
    },
    {
      "anonymous": false,
      "inputs": [
        {
          "indexed": true,
          "internalType": "bytes32",
          "name": "role",
          "type": "bytes32"
        },
        {
          "indexed": true,
          "internalType": "bytes32",
          "name": "previousAdminRole",
          "type": "bytes32"
        },
        {
          "indexed": true,
          "internalType": "bytes32",
          "name": "newAdminRole",
          "type": "bytes32"
        }
      ],
      "name": "RoleAdminChanged",
      "type": "event"
    },
    {
      "anonymous": false,
      "inputs": [
        {
          "indexed": true,
          "internalType": "bytes32",
          "name": "role",
          "type": "bytes32"
        },
        {
          "indexed": true,
          "internalType": "address",
          "name": "account",
          "type": "address"
        },
        {
          "indexed": true,
          "internalType": "address",
          "name": "sender",
          "type": "address"
        }
      ],
      "name": "RoleGranted",
      "type": "event"
    },
    {
      "anonymous": false,
      "inputs": [
        {
          "indexed": true,
          "internalType": "bytes32",
          "name": "role",
          "type": "bytes32"
        },
        {
          "indexed": true,
          "internalType": "address",
          "name": "account",
          "type": "address"
        },
        {
          "indexed": true,
          "internalType": "address",
          "name": "sender",
          "type": "address"
        }
      ],
      "name": "RoleRevoked",
      "type": "event"
    },
    {
      "inputs": [],
      "name": "DEFAULT_ADMIN_ROLE",
      "outputs": [
        {
          "internalType": "bytes32",
          "name": "",
          "type": "bytes32"
        }
      ],
      "stateMutability": "view",
      "type": "function"
    },
    {
      "inputs": [
        {
          "internalType": "address",
          "name": "account",
          "type": "address"
        },
        {
          "internalType": "uint256",
          "name": "collateralDelta",
          "type": "uint256"
        },
        {
          "internalType": "bool",
          "name": "isLong",
          "type": "bool"
        }
      ],
      "name": "decreaseCollateralFromCancelInvalidOrder",
      "outputs": [
        {
          "internalType": "uint256",
          "name": "",
          "type": "uint256"
        }
      ],
      "stateMutability": "nonpayable",
      "type": "function"
    },
    {
      "inputs": [
        {
          "internalType": "address",
          "name": "account",
          "type": "address"
        },
        {
          "internalType": "uint256",
          "name": "collateralDelta",
          "type": "uint256"
        },
        {
          "internalType": "uint256",
          "name": "sizeDelta",
          "type": "uint256"
        },
        {
          "internalType": "int256",
          "name": "fundingRate",
          "type": "int256"
        },
        {
          "internalType": "bool",
          "name": "isLong",
          "type": "bool"
        }
      ],
      "name": "decreasePosition",
      "outputs": [
        {
          "components": [
            {
              "internalType": "address",
              "name": "market",
              "type": "address"
            },
            {
              "internalType": "bool",
              "name": "isLong",
              "type": "bool"
            },
            {
              "internalType": "uint32",
              "name": "lastTime",
              "type": "uint32"
            },
            {
              "internalType": "uint216",
              "name": "extra3",
              "type": "uint216"
            },
            {
              "internalType": "uint256",
              "name": "size",
              "type": "uint256"
            },
            {
              "internalType": "uint256",
              "name": "collateral",
              "type": "uint256"
            },
            {
              "internalType": "uint256",
              "name": "averagePrice",
              "type": "uint256"
            },
            {
              "internalType": "int256",
              "name": "entryFundingRate",
              "type": "int256"
            },
            {
              "internalType": "int256",
              "name": "realisedPnl",
              "type": "int256"
            },
            {
              "internalType": "uint256",
              "name": "extra0",
              "type": "uint256"
            },
            {
              "internalType": "uint256",
              "name": "extra1",
              "type": "uint256"
            },
            {
              "internalType": "uint256",
              "name": "extra2",
              "type": "uint256"
            }
          ],
          "internalType": "struct Position.Props",
          "name": "result",
          "type": "tuple"
        }
      ],
      "stateMutability": "nonpayable",
      "type": "function"
    },
    {
      "inputs": [
        {
          "internalType": "address",
          "name": "account",
          "type": "address"
        }
      ],
      "name": "getAccountSize",
      "outputs": [
        {
          "internalType": "uint256",
          "name": "",
          "type": "uint256"
        },
        {
          "internalType": "uint256",
          "name": "",
          "type": "uint256"
        }
      ],
      "stateMutability": "view",
      "type": "function"
    },
    {
      "inputs": [
        {
          "internalType": "uint256",
          "name": "longPrice",
          "type": "uint256"
        },
        {
          "internalType": "uint256",
          "name": "shortPrice",
          "type": "uint256"
        }
      ],
      "name": "getMarketPNL",
      "outputs": [
        {
          "internalType": "int256",
          "name": "",
          "type": "int256"
        }
      ],
      "stateMutability": "view",
      "type": "function"
    },
    {
      "inputs": [],
      "name": "getMarketSizes",
      "outputs": [
        {
          "internalType": "uint256",
          "name": "",
          "type": "uint256"
        },
        {
          "internalType": "uint256",
          "name": "",
          "type": "uint256"
        }
      ],
      "stateMutability": "view",
      "type": "function"
    },
    {
      "inputs": [
        {
          "internalType": "address",
          "name": "account",
          "type": "address"
        },
        {
          "internalType": "uint256",
          "name": "sizeDelta",
          "type": "uint256"
        },
        {
          "internalType": "uint256",
          "name": "markPrice",
          "type": "uint256"
        },
        {
          "internalType": "bool",
          "name": "isLong",
          "type": "bool"
        }
      ],
      "name": "getPNL",
      "outputs": [
        {
          "internalType": "int256",
          "name": "",
          "type": "int256"
        }
      ],
      "stateMutability": "view",
      "type": "function"
    },
    {
      "inputs": [
        {
          "internalType": "address",
          "name": "account",
          "type": "address"
        },
        {
          "internalType": "uint256",
          "name": "markPrice",
          "type": "uint256"
        },
        {
          "internalType": "bool",
          "name": "isLong",
          "type": "bool"
        }
      ],
      "name": "getPosition",
      "outputs": [
        {
          "components": [
            {
              "internalType": "address",
              "name": "market",
              "type": "address"
            },
            {
              "internalType": "bool",
              "name": "isLong",
              "type": "bool"
            },
            {
              "internalType": "uint32",
              "name": "lastTime",
              "type": "uint32"
            },
            {
              "internalType": "uint216",
              "name": "extra3",
              "type": "uint216"
            },
            {
              "internalType": "uint256",
              "name": "size",
              "type": "uint256"
            },
            {
              "internalType": "uint256",
              "name": "collateral",
              "type": "uint256"
            },
            {
              "internalType": "uint256",
              "name": "averagePrice",
              "type": "uint256"
            },
            {
              "internalType": "int256",
              "name": "entryFundingRate",
              "type": "int256"
            },
            {
              "internalType": "int256",
              "name": "realisedPnl",
              "type": "int256"
            },
            {
              "internalType": "uint256",
              "name": "extra0",
              "type": "uint256"
            },
            {
              "internalType": "uint256",
              "name": "extra1",
              "type": "uint256"
            },
            {
              "internalType": "uint256",
              "name": "extra2",
              "type": "uint256"
            }
          ],
          "internalType": "struct Position.Props",
          "name": "",
          "type": "tuple"
        }
      ],
      "stateMutability": "view",
      "type": "function"
    },
    {
      "inputs": [
        {
          "internalType": "bool",
          "name": "isLong",
          "type": "bool"
        }
      ],
      "name": "getPositionCount",
      "outputs": [
        {
          "internalType": "uint256",
          "name": "",
          "type": "uint256"
        }
      ],
      "stateMutability": "view",
      "type": "function"
    },
    {
      "inputs": [
        {
          "internalType": "uint256",
          "name": "start",
          "type": "uint256"
        },
        {
          "internalType": "uint256",
          "name": "end",
          "type": "uint256"
        },
        {
          "internalType": "bool",
          "name": "isLong",
          "type": "bool"
        }
      ],
      "name": "getPositionKeys",
      "outputs": [
        {
          "internalType": "address[]",
          "name": "",
          "type": "address[]"
        }
      ],
      "stateMutability": "view",
      "type": "function"
    },
    {
      "inputs": [
        {
          "internalType": "address",
          "name": "account",
          "type": "address"
        }
      ],
      "name": "getPositions",
      "outputs": [
        {
          "components": [
            {
              "internalType": "address",
              "name": "market",
              "type": "address"
            },
            {
              "internalType": "bool",
              "name": "isLong",
              "type": "bool"
            },
            {
              "internalType": "uint32",
              "name": "lastTime",
              "type": "uint32"
            },
            {
              "internalType": "uint216",
              "name": "extra3",
              "type": "uint216"
            },
            {
              "internalType": "uint256",
              "name": "size",
              "type": "uint256"
            },
            {
              "internalType": "uint256",
              "name": "collateral",
              "type": "uint256"
            },
            {
              "internalType": "uint256",
              "name": "averagePrice",
              "type": "uint256"
            },
            {
              "internalType": "int256",
              "name": "entryFundingRate",
              "type": "int256"
            },
            {
              "internalType": "int256",
              "name": "realisedPnl",
              "type": "int256"
            },
            {
              "internalType": "uint256",
              "name": "extra0",
              "type": "uint256"
            },
            {
              "internalType": "uint256",
              "name": "extra1",
              "type": "uint256"
            },
            {
              "internalType": "uint256",
              "name": "extra2",
              "type": "uint256"
            }
          ],
          "internalType": "struct Position.Props[]",
          "name": "",
          "type": "tuple[]"
        }
      ],
      "stateMutability": "view",
      "type": "function"
    },
    {
      "inputs": [
        {
          "internalType": "bytes32",
          "name": "role",
          "type": "bytes32"
        }
      ],
      "name": "getRoleAdmin",
      "outputs": [
        {
          "internalType": "bytes32",
          "name": "",
          "type": "bytes32"
        }
      ],
      "stateMutability": "view",
      "type": "function"
    },
    {
      "inputs": [
        {
          "internalType": "address",
          "name": "_account",
          "type": "address"
        }
      ],
      "name": "grantControllerRoleByMarketManager",
      "outputs": [],
      "stateMutability": "nonpayable",
      "type": "function"
    },
    {
      "inputs": [
        {
          "internalType": "bytes32",
          "name": "role",
          "type": "bytes32"
        },
        {
          "internalType": "address",
          "name": "account",
          "type": "address"
        }
      ],
      "name": "grantRole",
      "outputs": [],
      "stateMutability": "nonpayable",
      "type": "function"
    },
    {
      "inputs": [
        {
          "internalType": "bytes32",
          "name": "role",
          "type": "bytes32"
        },
        {
          "internalType": "address",
          "name": "account",
          "type": "address"
        }
      ],
      "name": "hasRole",
      "outputs": [
        {
          "internalType": "bool",
          "name": "",
          "type": "bool"
        }
      ],
      "stateMutability": "view",
      "type": "function"
    },
    {
      "inputs": [
        {
          "internalType": "address",
          "name": "account",
          "type": "address"
        },
        {
          "internalType": "int256",
          "name": "collateralDelta",
          "type": "int256"
        },
        {
          "internalType": "uint256",
          "name": "sizeDelta",
          "type": "uint256"
        },
        {
          "internalType": "uint256",
          "name": "markPrice",
          "type": "uint256"
        },
        {
          "internalType": "int256",
          "name": "fundingRate",
          "type": "int256"
        },
        {
          "internalType": "bool",
          "name": "isLong",
          "type": "bool"
        }
      ],
      "name": "increasePosition",
      "outputs": [
        {
          "components": [
            {
              "internalType": "address",
              "name": "market",
              "type": "address"
            },
            {
              "internalType": "bool",
              "name": "isLong",
              "type": "bool"
            },
            {
              "internalType": "uint32",
              "name": "lastTime",
              "type": "uint32"
            },
            {
              "internalType": "uint216",
              "name": "extra3",
              "type": "uint216"
            },
            {
              "internalType": "uint256",
              "name": "size",
              "type": "uint256"
            },
            {
              "internalType": "uint256",
              "name": "collateral",
              "type": "uint256"
            },
            {
              "internalType": "uint256",
              "name": "averagePrice",
              "type": "uint256"
            },
            {
              "internalType": "int256",
              "name": "entryFundingRate",
              "type": "int256"
            },
            {
              "internalType": "int256",
              "name": "realisedPnl",
              "type": "int256"
            },
            {
              "internalType": "uint256",
              "name": "extra0",
              "type": "uint256"
            },
            {
              "internalType": "uint256",
              "name": "extra1",
              "type": "uint256"
            },
            {
              "internalType": "uint256",
              "name": "extra2",
              "type": "uint256"
            }
          ],
          "internalType": "struct Position.Props",
          "name": "result",
          "type": "tuple"
        }
      ],
      "stateMutability": "nonpayable",
      "type": "function"
    },
    {
      "inputs": [
        {
          "internalType": "address",
          "name": "marketAddr",
          "type": "address"
        }
      ],
      "name": "initialize",
      "outputs": [],
      "stateMutability": "nonpayable",
      "type": "function"
    },
    {
      "inputs": [
        {
          "internalType": "address",
          "name": "account",
          "type": "address"
        },
        {
          "internalType": "uint256",
          "name": "markPrice",
          "type": "uint256"
        },
        {
          "internalType": "bool",
          "name": "isLong",
          "type": "bool"
        }
      ],
      "name": "liquidatePosition",
      "outputs": [
        {
          "components": [
            {
              "internalType": "address",
              "name": "market",
              "type": "address"
            },
            {
              "internalType": "bool",
              "name": "isLong",
              "type": "bool"
            },
            {
              "internalType": "uint32",
              "name": "lastTime",
              "type": "uint32"
            },
            {
              "internalType": "uint216",
              "name": "extra3",
              "type": "uint216"
            },
            {
              "internalType": "uint256",
              "name": "size",
              "type": "uint256"
            },
            {
              "internalType": "uint256",
              "name": "collateral",
              "type": "uint256"
            },
            {
              "internalType": "uint256",
              "name": "averagePrice",
              "type": "uint256"
            },
            {
              "internalType": "int256",
              "name": "entryFundingRate",
              "type": "int256"
            },
            {
              "internalType": "int256",
              "name": "realisedPnl",
              "type": "int256"
            },
            {
              "internalType": "uint256",
              "name": "extra0",
              "type": "uint256"
            },
            {
              "internalType": "uint256",
              "name": "extra1",
              "type": "uint256"
            },
            {
              "internalType": "uint256",
              "name": "extra2",
              "type": "uint256"
            }
          ],
          "internalType": "struct Position.Props",
          "name": "result",
          "type": "tuple"
        }
      ],
      "stateMutability": "nonpayable",
      "type": "function"
    },
    {
      "inputs": [],
      "name": "longStore",
      "outputs": [
        {
          "internalType": "contract PositionStore",
          "name": "",
          "type": "address"
        }
      ],
      "stateMutability": "view",
      "type": "function"
    },
    {
      "inputs": [],
      "name": "market",
      "outputs": [
        {
          "internalType": "address",
          "name": "",
          "type": "address"
        }
      ],
      "stateMutability": "view",
      "type": "function"
    },
    {
      "inputs": [],
      "name": "owner",
      "outputs": [
        {
          "internalType": "address",
          "name": "",
          "type": "address"
        }
      ],
      "stateMutability": "view",
      "type": "function"
    },
    {
      "inputs": [],
      "name": "renounceOwnership",
      "outputs": [],
      "stateMutability": "nonpayable",
      "type": "function"
    },
    {
      "inputs": [
        {
          "internalType": "bytes32",
          "name": "role",
          "type": "bytes32"
        },
        {
          "internalType": "address",
          "name": "account",
          "type": "address"
        }
      ],
      "name": "renounceRole",
      "outputs": [],
      "stateMutability": "nonpayable",
      "type": "function"
    },
    {
      "inputs": [
        {
          "internalType": "bytes32",
          "name": "role",
          "type": "bytes32"
        },
        {
          "internalType": "address",
          "name": "account",
          "type": "address"
        }
      ],
      "name": "revokeRole",
      "outputs": [],
      "stateMutability": "nonpayable",
      "type": "function"
    },
    {
      "inputs": [],
      "name": "shortStore",
      "outputs": [
        {
          "internalType": "contract PositionStore",
          "name": "",
          "type": "address"
        }
      ],
      "stateMutability": "view",
      "type": "function"
    },
    {
      "inputs": [
        {
          "internalType": "bytes4",
          "name": "interfaceId",
          "type": "bytes4"
        }
      ],
      "name": "supportsInterface",
      "outputs": [
        {
          "internalType": "bool",
          "name": "",
          "type": "bool"
        }
      ],
      "stateMutability": "view",
      "type": "function"
    },
    {
      "inputs": [
        {
          "internalType": "address",
          "name": "to",
          "type": "address"
        }
      ],
      "name": "transferAdmin",
      "outputs": [],
      "stateMutability": "nonpayable",
      "type": "function"
    },
    {
      "inputs": [
        {
          "internalType": "address",
          "name": "newOwner",
          "type": "address"
        }
      ],
      "name": "transferOwnership",
      "outputs": [],
      "stateMutability": "nonpayable",
      "type": "function"
    }
  ],
  "bytecode": "0x60806040523480156200001157600080fd5b506040516200427d3803806200427d833981016040819052620000349162000295565b8062000040336200015c565b6200005681620001ae60201b62000f031760201c565b50806001604051620000689062000287565b6001600160a01b03909216825215156020820152604001604051809103906000f0801580156200009c573d6000803e3d6000fd5b50600460006101000a8154816001600160a01b0302191690836001600160a01b03160217905550806000604051620000d49062000287565b6001600160a01b03909216825215156020820152604001604051809103906000f08015801562000108573d6000803e3d6000fd5b50600580546001600160a01b0319166001600160a01b0392909216919091179055620001557f241ecf16d79d0f8dbfb92cbc07fe17840425976cf0667f022fe9877caa831b0833620001da565b50620002c7565b600180546001600160a01b038381166001600160a01b0319831681179093556040519116919082907f8be0079c531659141344cd1fd0a4f28419497f9722a3daafe3b4186f6b6457e090600090a35050565b42600255620001bd336200015c565b620001ca6000336200027b565b620001d76000826200027b565b50565b6000828152602081815260408083206001600160a01b038516845290915290205460ff1662000277576000828152602081815260408083206001600160a01b03851684529091529020805460ff19166001179055620002363390565b6001600160a01b0316816001600160a01b0316837f2f8788117e7eff1d82e926ec794901d17c78024a50270940304540a733656f0d60405160405180910390a45b5050565b620002778282620001da565b611a53806200282a83390190565b600060208284031215620002a857600080fd5b81516001600160a01b0381168114620002c057600080fd5b9392505050565b61255380620002d76000396000f3fe608060405234801561001057600080fd5b50600436106101c45760003560e01c80638da5cb5b116100f9578063c4d66de811610097578063e62c0edf11610071578063e62c0edf146103f7578063f115e8b51461040a578063f2fde38b1461041d578063f3ec823d1461043057600080fd5b8063c4d66de8146103be578063d547741f146103d1578063dd16feac146103e457600080fd5b8063a1838612116100d3578063a183861214610370578063a217fddf14610383578063b444f8ea1461038b578063bc95baad1461039e57600080fd5b80638da5cb5b1461032c5780638dd3fde31461033d57806391d148541461035d57600080fd5b80633eeb530e116101665780637fe4a698116101405780637fe4a698146102eb57806380f55605146102fe5780638749694a146103115780638b3c1af61461031957600080fd5b80633eeb530e146102b0578063715018a6146102d057806375829def146102d857600080fd5b8063248a9ca3116101a2578063248a9ca31461023d5780632ca6d2c0146102605780632f2ff15d1461028857806336568abe1461029d57600080fd5b806301ffc9a7146101c957806314605472146101f15780631aa2e3901461021c575b600080fd5b6101dc6101d7366004611cdd565b610443565b60405190151581526020015b60405180910390f35b600554610204906001600160a01b031681565b6040516001600160a01b0390911681526020016101e8565b61022f61022a366004611d07565b61047a565b6040519081526020016101e8565b61022f61024b366004611d29565b60009081526020819052604090206001015490565b61027361026e366004611d57565b6104a7565b604080519283526020830191909152016101e8565b61029b610296366004611d74565b6104db565b005b61029b6102ab366004611d74565b610505565b6102c36102be366004611d57565b610588565b6040516101e89190611e4d565b61029b6106a9565b61029b6102e6366004611d57565b6106bd565b61029b6102f9366004611d57565b6106e7565b600354610204906001600160a01b031681565b610273610711565b61022f610327366004611eaa565b6107fd565b6001546001600160a01b0316610204565b61035061034b366004611ec7565b61088e565b6040516101e89190611f00565b6101dc61036b366004611d74565b61091d565b600454610204906001600160a01b031681565b61022f600081565b61022f610399366004611f41565b610946565b6103b16103ac366004611f41565b6109bb565b6040516101e89190611f78565b61029b6103cc366004611d57565b6109d0565b61029b6103df366004611d74565b610b72565b6103b16103f2366004611f41565b610b97565b6103b1610405366004611f87565b610c92565b6103b1610418366004611fdd565b610cbe565b61029b61042b366004611d57565b610e0f565b61022f61043e36600461203b565b610e88565b60006001600160e01b03198216637965db0b60e01b148061047457506301ffc9a760e01b6001600160e01b03198316145b92915050565b600080610488846001610f26565b9050610495836000610f26565b61049f908261209b565b949350505050565b60008060006104b7846001610f6e565b905060006104c6856000610f6e565b60809283015192015191959194509092505050565b6000828152602081905260409020600101546104f68161100a565b6105008383611014565b505050565b6001600160a01b038116331461057a5760405162461bcd60e51b815260206004820152602f60248201527f416363657373436f6e74726f6c3a2063616e206f6e6c792072656e6f756e636560448201526e103937b632b9903337b91039b2b63360891b60648201526084015b60405180910390fd5b6105848282611098565b5050565b6060600061059983600060016110fd565b905060006105a9846000806110fd565b9050600080836080015111156105c757806105c3816120c3565b9150505b6080820151156105df57806105db816120c3565b9150505b60008167ffffffffffffffff8111156105fa576105fa6120dc565b60405190808252806020026020018201604052801561063357816020015b610620611c62565b8152602001906001900390816106185790505b50905081156106a05760808401516000925015610677578381838151811061065d5761065d6120f2565b60200260200101819052508180610673906120c3565b9250505b6080830151156106a05782818381518110610694576106946120f2565b60200260200101819052505b95945050505050565b6106b1611165565b6106bb60006111bf565b565b60006106c88161100a565b6106d3600083611211565b6106dc826111bf565b610584600033611098565b7f8d1089725c0dc266707fa6207730fb801dcd03108bfed7a21099bd303651d2b76101c48161100a565b6004805460408051630f7114df60e11b8152905160009384936001600160a01b031692631ee229be92818301926020928290030181865afa15801561075a573d6000803e3d6000fd5b505050506040513d601f19601f8201168201806040525081019061077e9190612108565b600560009054906101000a90046001600160a01b03166001600160a01b0316631ee229be6040518163ffffffff1660e01b8152600401602060405180830381865afa1580156107d1573d6000803e3d6000fd5b505050506040513d601f19601f820116820180604052508101906107f59190612108565b915091509091565b60008082610816576005546001600160a01b0316610823565b6004546001600160a01b03165b9050806001600160a01b031663816834766040518163ffffffff1660e01b8152600401602060405180830381865afa158015610863573d6000803e3d6000fd5b505050506040513d601f19601f820116820180604052508101906108879190612108565b9392505050565b6060838310156108eb5760405162461bcd60e51b815260206004820152602260248201527f706f736974696f6e426f6f6b3a20696e76616c69642072616e676520706172616044820152616d7360f01b6064820152608401610571565b600082610903576005546001600160a01b0316610910565b6004546001600160a01b03165b90506106a081868661121b565b6000918252602082815260408084206001600160a01b0393909316845291905290205460ff1690565b600061095f6000805160206124fe83398151915261100a565b600061096b8584610f6e565b90508060a00151841115610981578060a0015193505b610989611c62565b61099b868660008560e0015188611321565b90508060a001518260a001516109b19190612121565b9695505050505050565b6109c3611c62565b60006106a08585856110fd565b600154600160a81b900460ff16158080156109f6575060018054600160a01b900460ff16105b80610a165750303b158015610a16575060018054600160a01b900460ff16145b610a795760405162461bcd60e51b815260206004820152602e60248201527f496e697469616c697a61626c653a20636f6e747261637420697320616c72656160448201526d191e481a5b9a5d1a585b1a5e995960921b6064820152608401610571565b6001805460ff60a01b1916600160a01b1790558015610aa6576001805460ff60a81b1916600160a81b1790555b6001600160a01b038216610af55760405162461bcd60e51b8152602060048201526016602482015275696e76616c6964206d61726b6574206164647265737360501b6044820152606401610571565b600380546001600160a01b0319166001600160a01b038416179055610b286000805160206124fe83398151915283611014565b8015610584576001805460ff60a81b191681556040519081527f7f26b83ff96e1f2b6a682f133852f6798a09c465da95921460cefb38474024989060200160405180910390a15050565b600082815260208190526040902060010154610b8d8161100a565b6105008383611098565b610b9f611c62565b610bb66000805160206124fe83398151915261100a565b6000610bc28584610f6e565b9050610bd18160800151151590565b610c2b5760405162461bcd60e51b815260206004820152602560248201527f706f736974696f6e426f6f6b3a20706f736974696f6e20646f6573206e6f7420604482015264195e1a5cdd60da1b6064820152608401610571565b8315610c6357600080610c3e83876114fb565b91509150600082610c5757610c5282612134565b610c59565b815b6101008601525050505b610c77858260a00151836080015186611517565b6080808201519083015260a090810151908201529392505050565b610c9a611c62565b610cb16000805160206124fe83398151915261100a565b6109b18686868686611321565b610cc6611c62565b610cdd6000805160206124fe83398151915261100a565b6000610ce98884610f6e565b90508060800151600003610cff5760c081018590525b60008160800151118015610d135750600086115b15610d6757600080610d2583886114fb565b9092509050610d3783898984866115c2565b60c0840152600082610d5157610d4c82612134565b610d53565b815b61010086015250505060c080820151908301525b610d8787610d788360a0015161163e565b610d82919061209b565b6116ac565b60a082015260e081018490526080810151610da3908790612150565b6080820152821515602082015263ffffffff42166040820152610dc5816116fe565b610de15760405162461bcd60e51b815260040161057190612163565b610df18884898989600187611734565b6080808201519083015260a090810151908201529695505050505050565b610e17611165565b6001600160a01b038116610e7c5760405162461bcd60e51b815260206004820152602660248201527f4f776e61626c653a206e6577206f776e657220697320746865207a65726f206160448201526564647265737360d01b6064820152608401610571565b610e85816111bf565b50565b600080610e958684610f6e565b90508060800151600003610ead57600091505061049f565b600080610eba83876114fb565b9150915086600014610ee2576080830151610ed5828961219a565b610edf91906121b1565b90505b81610ef557610ef081612134565b610ef7565b805b98975050505050505050565b42600255610f10336111bf565b610f1b600033611211565b610e85600082611211565b600080610f32836117da565b90508060800151600003610f4a576000915050610474565b600080610f5783876114fb565b91509150816106a057610f6981612134565b6109b1565b610f76611c62565b600082610f8e576005546001600160a01b0316610f9b565b6004546001600160a01b03165b6040516330af0bbf60e21b81526001600160a01b0386811660048301529192509082169063c2bc2efc9060240161018060405180830381865afa158015610fe6573d6000803e3d6000fd5b505050506040513d601f19601f8201168201806040525081019061049f9190612274565b610e85813361186c565b61101e828261091d565b610584576000828152602081815260408083206001600160a01b03851684529091529020805460ff191660011790556110543390565b6001600160a01b0316816001600160a01b0316837f2f8788117e7eff1d82e926ec794901d17c78024a50270940304540a733656f0d60405160405180910390a45050565b6110a2828261091d565b15610584576000828152602081815260408083206001600160a01b0385168085529252808320805460ff1916905551339285917ff6391f5c32d9c69d2a47ea670b442974b53935d1edc7fd64eb21e047a839171b9190a45050565b611105611c62565b60006111118584610f6e565b905083600003611122579050610887565b60808101511561049f5760008061113983876114fb565b915091506000826111525761114d82612134565b611154565b815b610100850152505050949350505050565b6001546001600160a01b031633146106bb5760405162461bcd60e51b815260206004820181905260248201527f4f776e61626c653a2063616c6c6572206973206e6f7420746865206f776e65726044820152606401610571565b600180546001600160a01b038381166001600160a01b0319831681179093556040519116919082907f8be0079c531659141344cd1fd0a4f28419497f9722a3daafe3b4186f6b6457e090600090a35050565b6105848282611014565b60606000846001600160a01b031663816834766040518163ffffffff1660e01b8152600401602060405180830381865afa15801561125d573d6000803e3d6000fd5b505050506040513d601f19601f820116820180604052508101906112819190612108565b9050806000036112a1575050604080516000815260208101909152610887565b808311156112ad578092505b604051637f497d9760e01b815260048101859052602481018490526001600160a01b03861690637f497d9790604401600060405180830381865afa1580156112f9573d6000803e3d6000fd5b505050506040513d6000823e601f3d908101601f191682016040526106a0919081019061232a565b611329611c62565b60006113358784610f6e565b90504263ffffffff16816040015163ffffffff16036113865760405162461bcd60e51b815260206004820152600d60248201526c70623a73616d6520626c6f636b60981b6044820152606401610571565b61138f816116fe565b6113ab5760405162461bcd60e51b815260040161057190612163565b858160a0015110156113ff5760405162461bcd60e51b815260206004820181905260248201527f706f736974696f6e426f6f6b3a20696e76616c696420636f6c6c61746572616c6044820152606401610571565b84816080015110156114535760405162461bcd60e51b815260206004820152601a60248201527f706f736974696f6e426f6f6b3a20696e76616c69642073697a650000000000006044820152606401610571565b848160800151146114e55760e081018490526080810151611475908690612121565b608082015260a081015161148a908790612121565b60a0820152611498816116fe565b6114b45760405162461bcd60e51b815260040161057190612163565b6114cc87846114c28961163e565b8860008087611734565b6080808201519083015260a080820151908301526114f1565b6114f187878786611517565b5095945050505050565b600080808061150a86866118c5565b9097909650945050505050565b60006115306115258561163e565b84600085600061194c565b905060008261154a576005546001600160a01b0316611557565b6004546001600160a01b03165b6040516305a02ac360e31b81529091506001600160a01b03821690632d0156189061158890899086906004016123d0565b600060405180830381600087803b1580156115a257600080fd5b505af11580156115b6573d6000803e3d6000fd5b50505050505050505050565b6000808587608001516115d59190612150565b9050600087602001511561160857836115f7576115f28583612121565b611601565b6116018583612150565b9050611629565b8361161c576116178583612150565b611626565b6116268583612121565b90505b80611634838861219a565b610ef791906121b1565b60006001600160ff1b038211156116a85760405162461bcd60e51b815260206004820152602860248201527f53616665436173743a2076616c756520646f65736e27742066697420696e2061604482015267371034b73a191a9b60c11b6064820152608401610571565b5090565b6000808212156116a85760405162461bcd60e51b815260206004820181905260248201527f53616665436173743a2076616c7565206d75737420626520706f7369746976656044820152606401610571565b6000816080015160000361171457506000919050565b8160a001518260800151101561172c57506000919050565b506001919050565b60006117438686868a8761194c565b905060008761175d576005546001600160a01b031661176a565b6004546001600160a01b03165b60405163b7ed135760e01b81529091506001600160a01b0382169063b7ed13579061179d908c90879087906004016123ee565b600060405180830381600087803b1580156117b757600080fd5b505af11580156117cb573d6000803e3d6000fd5b50505050505050505050505050565b6117e2611c62565b6000826117fa576005546001600160a01b0316611807565b6004546001600160a01b03165b9050806001600160a01b0316639027b59e6040518163ffffffff1660e01b815260040161018060405180830381865afa158015611848573d6000803e3d6000fd5b505050506040513d601f19601f820116820180604052508101906108879190612274565b611876828261091d565b6105845761188381611a55565b61188e836020611a67565b60405160200161189f92919061243e565b60408051601f198184030181529082905262461bcd60e51b8252610571916004016124b3565b6000806000838560c00151116118e95760c08501516118e49085612121565b6118f9565b838560c001516118f99190612121565b905060008560c00151828760800151611912919061219a565b61191c91906121b1565b90506000866020015115611937575060c08601518511611941565b858760c001511190505b969095509350505050565b611954611c62565b600061195f846117da565b90508215611a19576000611974828888611c03565b9050606481116119c65760405162461bcd60e51b815260206004820152601a60248201527f70623a696e76616c696420676c6f62616c20706f736974696f6e0000000000006044820152606401610571565b60c082018190526080820180518891906119e1908390612150565b90525060a08201516119f8908990610d789061163e565b60a083015250831515602082015263ffffffff4216604082015290506106a0565b8581608001818151611a2b9190612121565b905250611a37876116ac565b8160a001818151611a489190612121565b9052509695505050505050565b60606104746001600160a01b03831660145b60606000611a7683600261219a565b611a81906002612150565b67ffffffffffffffff811115611a9957611a996120dc565b6040519080825280601f01601f191660200182016040528015611ac3576020820181803683370190505b509050600360fc1b81600081518110611ade57611ade6120f2565b60200101906001600160f81b031916908160001a905350600f60fb1b81600181518110611b0d57611b0d6120f2565b60200101906001600160f81b031916908160001a9053506000611b3184600261219a565b611b3c906001612150565b90505b6001811115611bb4576f181899199a1a9b1b9c1cb0b131b232b360811b85600f1660108110611b7057611b706120f2565b1a60f81b828281518110611b8657611b866120f2565b60200101906001600160f81b031916908160001a90535060049490941c93611bad816124e6565b9050611b3f565b5083156108875760405162461bcd60e51b815260206004820181905260248201527f537472696e67733a20686578206c656e67746820696e73756666696369656e746044820152606401610571565b60008360800151600003611c18575080610887565b60008460800151118015611c2c5750600083115b15611c5857600080611c3e86856114fb565b9092509050611c5086868684866115c2565b60c087015250505b50505060c0015190565b60405180610180016040528060006001600160a01b03168152602001600015158152602001600063ffffffff16815260200160006001600160d81b0316815260200160008152602001600081526020016000815260200160008152602001600081526020016000815260200160008152602001600081525090565b600060208284031215611cef57600080fd5b81356001600160e01b03198116811461088757600080fd5b60008060408385031215611d1a57600080fd5b50508035926020909101359150565b600060208284031215611d3b57600080fd5b5035919050565b6001600160a01b0381168114610e8557600080fd5b600060208284031215611d6957600080fd5b813561088781611d42565b60008060408385031215611d8757600080fd5b823591506020830135611d9981611d42565b809150509250929050565b80516001600160a01b031682526020810151611dc4602084018215159052565b506040810151611ddc604084018263ffffffff169052565b506060810151611df760608401826001600160d81b03169052565b506080818101519083015260a0808201519083015260c0808201519083015260e0808201519083015261010080820151908301526101208082015190830152610140808201519083015261016090810151910152565b6020808252825182820181905260009190848201906040850190845b81811015611e9057611e7c838551611da4565b928401926101809290920191600101611e69565b50909695505050505050565b8015158114610e8557600080fd5b600060208284031215611ebc57600080fd5b813561088781611e9c565b600080600060608486031215611edc57600080fd5b83359250602084013591506040840135611ef581611e9c565b809150509250925092565b6020808252825182820181905260009190848201906040850190845b81811015611e905783516001600160a01b031683529284019291840191600101611f1c565b600080600060608486031215611f5657600080fd5b8335611f6181611d42565b9250602084013591506040840135611ef581611e9c565b61018081016104748284611da4565b600080600080600060a08688031215611f9f57600080fd5b8535611faa81611d42565b94506020860135935060408601359250606086013591506080860135611fcf81611e9c565b809150509295509295909350565b60008060008060008060c08789031215611ff657600080fd5b863561200181611d42565b95506020870135945060408701359350606087013592506080870135915060a087013561202d81611e9c565b809150509295509295509295565b6000806000806080858703121561205157600080fd5b843561205c81611d42565b93506020850135925060408501359150606085013561207a81611e9c565b939692955090935050565b634e487b7160e01b600052601160045260246000fd5b80820182811260008312801582168215821617156120bb576120bb612085565b505092915050565b6000600182016120d5576120d5612085565b5060010190565b634e487b7160e01b600052604160045260246000fd5b634e487b7160e01b600052603260045260246000fd5b60006020828403121561211a57600080fd5b5051919050565b8181038181111561047457610474612085565b6000600160ff1b820161214957612149612085565b5060000390565b8082018082111561047457610474612085565b6020808252601e908201527f706f736974696f6e426f6f6b3a20696e76616c696420706f736974696f6e0000604082015260600190565b808202811582820484141761047457610474612085565b6000826121ce57634e487b7160e01b600052601260045260246000fd5b500490565b604051610180810167ffffffffffffffff811182821017156121f7576121f76120dc565b60405290565b604051601f8201601f1916810167ffffffffffffffff81118282101715612226576122266120dc565b604052919050565b805161223981611d42565b919050565b805161223981611e9c565b805163ffffffff8116811461223957600080fd5b80516001600160d81b038116811461223957600080fd5b6000610180828403121561228757600080fd5b61228f6121d3565b6122988361222e565b81526122a66020840161223e565b60208201526122b760408401612249565b60408201526122c86060840161225d565b60608201526080838101519082015260a0808401519082015260c0808401519082015260e08084015190820152610100808401519082015261012080840151908201526101408084015190820152610160928301519281019290925250919050565b6000602080838503121561233d57600080fd5b825167ffffffffffffffff8082111561235557600080fd5b818501915085601f83011261236957600080fd5b81518181111561237b5761237b6120dc565b8060051b915061238c8483016121fd565b81815291830184019184810190888411156123a657600080fd5b938501935b83851015610ef757845192506123c083611d42565b82825293850193908501906123ab565b6001600160a01b03831681526101a081016108876020830184611da4565b6001600160a01b0384168152610320810161240c6020830185611da4565b61049f6101a0830184611da4565b60005b8381101561243557818101518382015260200161241d565b50506000910152565b7f416363657373436f6e74726f6c3a206163636f756e742000000000000000000081526000835161247681601785016020880161241a565b7001034b99036b4b9b9b4b733903937b6329607d1b60179184019182015283516124a781602884016020880161241a565b01602801949350505050565b60208152600082518060208401526124d281604085016020870161241a565b601f01601f19169190910160400192915050565b6000816124f5576124f5612085565b50600019019056fecb58d6d985142a614029cdf01861b4fe094d5919a47e69b8310dc4093d9d6ad0a264697066735822122095f243e59fc17682d24b7c616b486ca2f12497860bacdf41726ca279a4efc0b164736f6c6343000811003360a06040523480156200001157600080fd5b5060405162001a5338038062001a538339810160408190526200003491620001d2565b816200004033620000a7565b6200005681620000f960201b62000b801760201c565b50600380546001600160a01b031916339081179091558115156080526200009f907fcb58d6d985142a614029cdf01861b4fe094d5919a47e69b8310dc4093d9d6ad09062000125565b505062000220565b600180546001600160a01b038381166001600160a01b0319831681179093556040519116919082907f8be0079c531659141344cd1fd0a4f28419497f9722a3daafe3b4186f6b6457e090600090a35050565b426002556200010833620000a7565b62000115600033620001c6565b62000122600082620001c6565b50565b6000828152602081815260408083206001600160a01b038516845290915290205460ff16620001c2576000828152602081815260408083206001600160a01b03851684529091529020805460ff19166001179055620001813390565b6001600160a01b0316816001600160a01b0316837f2f8788117e7eff1d82e926ec794901d17c78024a50270940304540a733656f0d60405160405180910390a45b5050565b620001c2828262000125565b60008060408385031215620001e657600080fd5b82516001600160a01b0381168114620001fe57600080fd5b602084015190925080151581146200021557600080fd5b809150509250929050565b6080516118176200023c600039600061019101526118176000f3fe608060405234801561001057600080fd5b506004361061014d5760003560e01c80637fe4a698116100c3578063a217fddf1161007c578063a217fddf146102da578063ac0b05a6146102e2578063b7ed1357146102f5578063c2bc2efc14610308578063d547741f1461031b578063f2fde38b1461032e57600080fd5b80637fe4a6981461025f57806381683476146102725780638d49701d1461027a5780638da5cb5b1461028d5780639027b59e146102b257806391d14854146102c757600080fd5b80632f2ff15d116101155780632f2ff15d146101eb57806336568abe146101fe5780635dbe47e814610211578063715018a61461022457806375829def1461022c5780637f497d971461023f57600080fd5b806301ffc9a7146101525780631ee229be1461017a578063202a61a11461018c578063248a9ca3146101b35780632d015618146101d6575b600080fd5b61016561016036600461126a565b610341565b60405190151581526020015b60405180910390f35b6009545b604051908152602001610171565b6101657f000000000000000000000000000000000000000000000000000000000000000081565b61017e6101c1366004611294565b60009081526020819052604090206001015490565b6101e96101e43660046112db565b610378565b005b6101e96101f9366004611312565b61065a565b6101e961020c366004611312565b610684565b61016561021f366004611342565b610702565b6101e961070f565b6101e961023a366004611342565b610723565b61025261024d36600461135f565b61074d565b6040516101719190611381565b6101e961026d366004611342565b610762565b61017e61078c565b6101e9610288366004611342565b61079d565b6001546001600160a01b03165b6040516001600160a01b039091168152602001610171565b6102ba6108a9565b60405161017191906113ce565b6101656102d5366004611312565b610949565b61017e600081565b60035461029a906001600160a01b031681565b6101e9610303366004611485565b610972565b6102ba610316366004611342565b610a1b565b6101e9610329366004611312565b610ae2565b6101e961033c366004611342565b610b07565b60006001600160e01b03198216637965db0b60e01b148061037257506301ffc9a760e01b6001600160e01b03198316145b92915050565b61038f6000805160206117c2833981519152610ba3565b600061039c600584610bad565b9050806103f05760405162461bcd60e51b815260206004820152601760248201527f706f736974696f6e20646f6573206e6f7420657869737400000000000000000060448201526064015b60405180910390fd5b8160076103fd828261151c565b905050600060046000856001600160a01b03166001600160a01b03168152602001908152602001600020604051806101800160405290816000820160009054906101000a90046001600160a01b03166001600160a01b03166001600160a01b031681526020016000820160149054906101000a900460ff161515151581526020016000820160159054906101000a900463ffffffff1663ffffffff1663ffffffff1681526020016001820160009054906101000a90046001600160d81b03166001600160d81b03166001600160d81b0316815260200160028201548152602001600382015481526020016004820154815260200160058201548152602001600682015481526020016007820154815260200160088201548152602001600982015481525050905060046000856001600160a01b03166001600160a01b03168152602001908152602001600020600080820160006101000a8154906001600160a01b0302191690556000820160146101000a81549060ff02191690556000820160156101000a81549063ffffffff02191690556001820160006101000a8154906001600160d81b0302191690556002820160009055600382016000905560048201600090556005820160009055600682016000905560078201600090556008820160009055600982016000905550506105ff846005610bcf90919063ffffffff16565b50836001600160a01b03167f20b3ac24c835264e655c493af7b3db37ff78a0f358627f0de89832abc7e1deca82608001518360a0015160405161064c929190918252602082015260400190565b60405180910390a250505050565b60008281526020819052604090206001015461067581610ba3565b61067f8383610be4565b505050565b6001600160a01b03811633146106f45760405162461bcd60e51b815260206004820152602f60248201527f416363657373436f6e74726f6c3a2063616e206f6e6c792072656e6f756e636560448201526e103937b632b9903337b91039b2b63360891b60648201526084016103e7565b6106fe8282610c68565b5050565b6000610372600583610bad565b610717610ccd565b6107216000610d27565b565b600061072e81610ba3565b610739600083610d79565b61074282610d27565b6106fe600033610c68565b606061075b60058484610d83565b9392505050565b7f8d1089725c0dc266707fa6207730fb801dcd03108bfed7a21099bd303651d2b761014d81610ba3565b60006107986005610e51565b905090565b6107c67f241ecf16d79d0f8dbfb92cbc07fe17840425976cf0667f022fe9877caa831b08610ba3565b6001600160a01b03811661080e5760405162461bcd60e51b815260206004820152600f60248201526e696e76616c6964206164647265737360881b60448201526064016103e7565b6003546001600160a01b03166108326000805160206117c283398151915282610c68565b600380546001600160a01b0319166001600160a01b0384161790556108656000805160206117c283398151915283610be4565b816001600160a01b0316816001600160a01b03167f2ee38693e6d151b09b65fa20e0e55d8947aeee23c1fa70257ea61af59a8dd2f060405160405180910390a35050565b6108b16111ef565b5060408051610180810182526007546001600160a01b0381168252600160a01b810460ff1615156020830152600160a81b900463ffffffff16918101919091526008546001600160d81b031660608201526009546080820152600a5460a0820152600b5460c0820152600c5460e0820152600d54610100820152600e54610120820152600f5461014082015260105461016082015290565b6000918252602082815260408084206001600160a01b0393909316845291905290205460ff1690565b6109896000805160206117c2833981519152610ba3565b806007610996828261151c565b50506001600160a01b038316600090815260046020526040902082906109bc828261151c565b506109ca9050600584610e5b565b50604080516080840135815260a084013560208201526001600160a01b038516917f0d77a4156ff764dade22a2cd25a68a83ff04b20df143bba5d162a6a980702623910160405180910390a2505050565b610a236111ef565b506001600160a01b0390811660009081526004602081815260409283902083516101808101855281549586168152600160a01b860460ff16151592810192909252600160a81b90940463ffffffff169281019290925260018301546001600160d81b0316606083015260028301546080830152600383015460a083015282015460c0820152600582015460e082015260068201546101008201526007820154610120820152600882015461014082015260099091015461016082015290565b600082815260208190526040902060010154610afd81610ba3565b61067f8383610c68565b610b0f610ccd565b6001600160a01b038116610b745760405162461bcd60e51b815260206004820152602660248201527f4f776e61626c653a206e6577206f776e657220697320746865207a65726f206160448201526564647265737360d01b60648201526084016103e7565b610b7d81610d27565b50565b42600255610b8d33610d27565b610b98600033610d79565b610b7d600082610d79565b610b7d8133610e70565b6001600160a01b0381166000908152600183016020526040812054151561075b565b600061075b836001600160a01b038416610ec9565b610bee8282610949565b6106fe576000828152602081815260408083206001600160a01b03851684529091529020805460ff19166001179055610c243390565b6001600160a01b0316816001600160a01b0316837f2f8788117e7eff1d82e926ec794901d17c78024a50270940304540a733656f0d60405160405180910390a45050565b610c728282610949565b156106fe576000828152602081815260408083206001600160a01b0385168085529252808320805460ff1916905551339285917ff6391f5c32d9c69d2a47ea670b442974b53935d1edc7fd64eb21e047a839171b9190a45050565b6001546001600160a01b031633146107215760405162461bcd60e51b815260206004820181905260248201527f4f776e61626c653a2063616c6c6572206973206e6f7420746865206f776e657260448201526064016103e7565b600180546001600160a01b038381166001600160a01b0319831681179093556040519116919082907f8be0079c531659141344cd1fd0a4f28419497f9722a3daafe3b4186f6b6457e090600090a35050565b6106fe8282610be4565b60606000610d9085610e51565b905080831115610d9e578092505b6000610daa8585611646565b67ffffffffffffffff811115610dc257610dc2611659565b604051908082528060200260200182016040528015610deb578160200160208202803683370190505b509050845b84811015610e4757610e028782610fbc565b82610e0d8884611646565b81518110610e1d57610e1d61166f565b6001600160a01b039092166020928302919091019091015280610e3f81611685565b915050610df0565b5095945050505050565b6000610372825490565b600061075b836001600160a01b038416610fc8565b610e7a8282610949565b6106fe57610e8781611017565b610e92836020611029565b604051602001610ea39291906116c2565b60408051601f198184030181529082905262461bcd60e51b82526103e791600401611737565b60008181526001830160205260408120548015610fb2576000610eed600183611646565b8554909150600090610f0190600190611646565b9050818114610f66576000866000018281548110610f2157610f2161166f565b9060005260206000200154905080876000018481548110610f4457610f4461166f565b6000918252602080832090910192909255918252600188019052604090208390555b8554869080610f7757610f7761176a565b600190038181906000526020600020016000905590558560010160008681526020019081526020016000206000905560019350505050610372565b6000915050610372565b600061075b83836111c5565b600081815260018301602052604081205461100f57508154600181810184556000848152602080822090930184905584548482528286019093526040902091909155610372565b506000610372565b60606103726001600160a01b03831660145b60606000611038836002611780565b611043906002611797565b67ffffffffffffffff81111561105b5761105b611659565b6040519080825280601f01601f191660200182016040528015611085576020820181803683370190505b509050600360fc1b816000815181106110a0576110a061166f565b60200101906001600160f81b031916908160001a905350600f60fb1b816001815181106110cf576110cf61166f565b60200101906001600160f81b031916908160001a90535060006110f3846002611780565b6110fe906001611797565b90505b6001811115611176576f181899199a1a9b1b9c1cb0b131b232b360811b85600f16601081106111325761113261166f565b1a60f81b8282815181106111485761114861166f565b60200101906001600160f81b031916908160001a90535060049490941c9361116f816117aa565b9050611101565b50831561075b5760405162461bcd60e51b815260206004820181905260248201527f537472696e67733a20686578206c656e67746820696e73756666696369656e7460448201526064016103e7565b60008260000182815481106111dc576111dc61166f565b9060005260206000200154905092915050565b60405180610180016040528060006001600160a01b03168152602001600015158152602001600063ffffffff16815260200160006001600160d81b0316815260200160008152602001600081526020016000815260200160008152602001600081526020016000815260200160008152602001600081525090565b60006020828403121561127c57600080fd5b81356001600160e01b03198116811461075b57600080fd5b6000602082840312156112a657600080fd5b5035919050565b6001600160a01b0381168114610b7d57600080fd5b600061018082840312156112d557600080fd5b50919050565b6000806101a083850312156112ef57600080fd5b82356112fa816112ad565b915061130984602085016112c2565b90509250929050565b6000806040838503121561132557600080fd5b823591506020830135611337816112ad565b809150509250929050565b60006020828403121561135457600080fd5b813561075b816112ad565b6000806040838503121561137257600080fd5b50508035926020909101359150565b6020808252825182820181905260009190848201906040850190845b818110156113c25783516001600160a01b03168352928401929184019160010161139d565b50909695505050505050565b81516001600160a01b03168152610180810160208301516113f3602084018215159052565b50604083015161140b604084018263ffffffff169052565b50606083015161142660608401826001600160d81b03169052565b506080830151608083015260a083015160a083015260c083015160c083015260e083015160e083015261010080840151818401525061012080840151818401525061014080840151818401525061016080840151818401525092915050565b6000806000610320848603121561149b57600080fd5b83356114a6816112ad565b92506114b585602086016112c2565b91506114c5856101a086016112c2565b90509250925092565b60008135610372816112ad565b60008135801515811461037257600080fd5b6000813563ffffffff8116811461037257600080fd5b600081356001600160d81b038116811461037257600080fd5b611545611528836114ce565b82546001600160a01b0319166001600160a01b0391909116178255565b611572611554602084016114db565b82805460ff60a01b191691151560a01b60ff60a01b16919091179055565b6115a5611581604084016114ed565b82805463ffffffff60a81b191660a89290921b63ffffffff60a81b16919091179055565b6115d86115b460608401611503565b6001830180546001600160d81b0319166001600160d81b0392909216919091179055565b6080820135600282015560a0820135600382015560c0820135600482015560e0820135600582015561010082013560068201556101208201356007820155610140820135600882015561016082013560098201555050565b634e487b7160e01b600052601160045260246000fd5b8181038181111561037257610372611630565b634e487b7160e01b600052604160045260246000fd5b634e487b7160e01b600052603260045260246000fd5b60006001820161169757611697611630565b5060010190565b60005b838110156116b95781810151838201526020016116a1565b50506000910152565b7f416363657373436f6e74726f6c3a206163636f756e74200000000000000000008152600083516116fa81601785016020880161169e565b7001034b99036b4b9b9b4b733903937b6329607d1b601791840191820152835161172b81602884016020880161169e565b01602801949350505050565b602081526000825180602084015261175681604085016020870161169e565b601f01601f19169190910160400192915050565b634e487b7160e01b600052603160045260246000fd5b808202811582820484141761037257610372611630565b8082018082111561037257610372611630565b6000816117b9576117b9611630565b50600019019056fecb58d6d985142a614029cdf01861b4fe094d5919a47e69b8310dc4093d9d6ad0a26469706673582212203adb9a7d6d0adb40f51d979d45c9d88e13bf25ffd15cc7d7b7e7ad8838059b5b64736f6c63430008110033",
  "linkReferences": {},
  "deployedLinkReferences": {}
}