{
  "_format": "hh-sol-artifact-1",
  "contractName": "PositionBook",
  "sourceName": "contracts/position/PositionBook.sol",
  "abi": [
    {
      "inputs": [
        {
          "internalType": "address",
          "name": "factoty",
          "type": "address"
        }
      ],
      "stateMutability": "nonpayable",
      "type": "constructor"
    },
    {
      "anonymous": false,
      "inputs": [
        {
          "indexed": false,
          "internalType": "uint8",
          "name": "version",
          "type": "uint8"
        }
      ],
      "name": "Initialized",
      "type": "event"
    },
    {
      "inputs": [],
      "name": "DEFAULT_ADMIN_ROLE",
      "outputs": [
        {
          "internalType": "bytes32",
          "name": "",
          "type": "bytes32"
        }
      ],
      "stateMutability": "view",
      "type": "function"
    },
    {
      "inputs": [
        {
          "internalType": "address",
          "name": "newOwner",
          "type": "address"
        }
      ],
      "name": "_transferOwnership",
      "outputs": [],
      "stateMutability": "pure",
      "type": "function"
    },
    {
      "inputs": [
        {
          "internalType": "address",
          "name": "account",
          "type": "address"
        },
        {
          "internalType": "uint256",
          "name": "collateralDelta",
          "type": "uint256"
        },
        {
          "internalType": "bool",
          "name": "isLong",
          "type": "bool"
        }
      ],
      "name": "decreaseCollateralFromCancelInvalidOrder",
      "outputs": [
        {
          "internalType": "uint256",
          "name": "",
          "type": "uint256"
        }
      ],
      "stateMutability": "nonpayable",
      "type": "function"
    },
    {
      "inputs": [
        {
          "internalType": "address",
          "name": "account",
          "type": "address"
        },
        {
          "internalType": "uint256",
          "name": "collateralDelta",
          "type": "uint256"
        },
        {
          "internalType": "uint256",
          "name": "sizeDelta",
          "type": "uint256"
        },
        {
          "internalType": "int256",
          "name": "fundingRate",
          "type": "int256"
        },
        {
          "internalType": "bool",
          "name": "isLong",
          "type": "bool"
        }
      ],
      "name": "decreasePosition",
      "outputs": [
        {
          "components": [
            {
              "internalType": "address",
              "name": "market",
              "type": "address"
            },
            {
              "internalType": "bool",
              "name": "isLong",
              "type": "bool"
            },
            {
              "internalType": "uint32",
              "name": "lastTime",
              "type": "uint32"
            },
            {
              "internalType": "uint216",
              "name": "extra3",
              "type": "uint216"
            },
            {
              "internalType": "uint256",
              "name": "size",
              "type": "uint256"
            },
            {
              "internalType": "uint256",
              "name": "collateral",
              "type": "uint256"
            },
            {
              "internalType": "uint256",
              "name": "averagePrice",
              "type": "uint256"
            },
            {
              "internalType": "int256",
              "name": "entryFundingRate",
              "type": "int256"
            },
            {
              "internalType": "int256",
              "name": "realisedPnl",
              "type": "int256"
            },
            {
              "internalType": "uint256",
              "name": "extra0",
              "type": "uint256"
            },
            {
              "internalType": "uint256",
              "name": "extra1",
              "type": "uint256"
            },
            {
              "internalType": "uint256",
              "name": "extra2",
              "type": "uint256"
            }
          ],
          "internalType": "struct Position.Props",
          "name": "result",
          "type": "tuple"
        }
      ],
      "stateMutability": "nonpayable",
      "type": "function"
    },
    {
      "inputs": [
        {
          "internalType": "address",
          "name": "account",
          "type": "address"
        }
      ],
      "name": "getAccountSize",
      "outputs": [
        {
          "internalType": "uint256",
          "name": "",
          "type": "uint256"
        },
        {
          "internalType": "uint256",
          "name": "",
          "type": "uint256"
        }
      ],
      "stateMutability": "view",
      "type": "function"
    },
    {
      "inputs": [
        {
          "internalType": "uint256",
          "name": "longPrice",
          "type": "uint256"
        },
        {
          "internalType": "uint256",
          "name": "shortPrice",
          "type": "uint256"
        }
      ],
      "name": "getMarketPNL",
      "outputs": [
        {
          "internalType": "int256",
          "name": "",
          "type": "int256"
        }
      ],
      "stateMutability": "view",
      "type": "function"
    },
    {
      "inputs": [],
      "name": "getMarketSizes",
      "outputs": [
        {
          "internalType": "uint256",
          "name": "",
          "type": "uint256"
        },
        {
          "internalType": "uint256",
          "name": "",
          "type": "uint256"
        }
      ],
      "stateMutability": "view",
      "type": "function"
    },
    {
      "inputs": [
        {
          "internalType": "address",
          "name": "account",
          "type": "address"
        },
        {
          "internalType": "uint256",
          "name": "sizeDelta",
          "type": "uint256"
        },
        {
          "internalType": "uint256",
          "name": "markPrice",
          "type": "uint256"
        },
        {
          "internalType": "bool",
          "name": "isLong",
          "type": "bool"
        }
      ],
      "name": "getPNL",
      "outputs": [
        {
          "internalType": "int256",
          "name": "",
          "type": "int256"
        }
      ],
      "stateMutability": "view",
      "type": "function"
    },
    {
      "inputs": [
        {
          "internalType": "address",
          "name": "account",
          "type": "address"
        },
        {
          "internalType": "uint256",
          "name": "markPrice",
          "type": "uint256"
        },
        {
          "internalType": "bool",
          "name": "isLong",
          "type": "bool"
        }
      ],
      "name": "getPosition",
      "outputs": [
        {
          "components": [
            {
              "internalType": "address",
              "name": "market",
              "type": "address"
            },
            {
              "internalType": "bool",
              "name": "isLong",
              "type": "bool"
            },
            {
              "internalType": "uint32",
              "name": "lastTime",
              "type": "uint32"
            },
            {
              "internalType": "uint216",
              "name": "extra3",
              "type": "uint216"
            },
            {
              "internalType": "uint256",
              "name": "size",
              "type": "uint256"
            },
            {
              "internalType": "uint256",
              "name": "collateral",
              "type": "uint256"
            },
            {
              "internalType": "uint256",
              "name": "averagePrice",
              "type": "uint256"
            },
            {
              "internalType": "int256",
              "name": "entryFundingRate",
              "type": "int256"
            },
            {
              "internalType": "int256",
              "name": "realisedPnl",
              "type": "int256"
            },
            {
              "internalType": "uint256",
              "name": "extra0",
              "type": "uint256"
            },
            {
              "internalType": "uint256",
              "name": "extra1",
              "type": "uint256"
            },
            {
              "internalType": "uint256",
              "name": "extra2",
              "type": "uint256"
            }
          ],
          "internalType": "struct Position.Props",
          "name": "",
          "type": "tuple"
        }
      ],
      "stateMutability": "view",
      "type": "function"
    },
    {
      "inputs": [
        {
          "internalType": "bool",
          "name": "isLong",
          "type": "bool"
        }
      ],
      "name": "getPositionCount",
      "outputs": [
        {
          "internalType": "uint256",
          "name": "",
          "type": "uint256"
        }
      ],
      "stateMutability": "view",
      "type": "function"
    },
    {
      "inputs": [
        {
          "internalType": "uint256",
          "name": "start",
          "type": "uint256"
        },
        {
          "internalType": "uint256",
          "name": "end",
          "type": "uint256"
        },
        {
          "internalType": "bool",
          "name": "isLong",
          "type": "bool"
        }
      ],
      "name": "getPositionKeys",
      "outputs": [
        {
          "internalType": "address[]",
          "name": "",
          "type": "address[]"
        }
      ],
      "stateMutability": "view",
      "type": "function"
    },
    {
      "inputs": [
        {
          "internalType": "address",
          "name": "account",
          "type": "address"
        }
      ],
      "name": "getPositions",
      "outputs": [
        {
          "components": [
            {
              "internalType": "address",
              "name": "market",
              "type": "address"
            },
            {
              "internalType": "bool",
              "name": "isLong",
              "type": "bool"
            },
            {
              "internalType": "uint32",
              "name": "lastTime",
              "type": "uint32"
            },
            {
              "internalType": "uint216",
              "name": "extra3",
              "type": "uint216"
            },
            {
              "internalType": "uint256",
              "name": "size",
              "type": "uint256"
            },
            {
              "internalType": "uint256",
              "name": "collateral",
              "type": "uint256"
            },
            {
              "internalType": "uint256",
              "name": "averagePrice",
              "type": "uint256"
            },
            {
              "internalType": "int256",
              "name": "entryFundingRate",
              "type": "int256"
            },
            {
              "internalType": "int256",
              "name": "realisedPnl",
              "type": "int256"
            },
            {
              "internalType": "uint256",
              "name": "extra0",
              "type": "uint256"
            },
            {
              "internalType": "uint256",
              "name": "extra1",
              "type": "uint256"
            },
            {
              "internalType": "uint256",
              "name": "extra2",
              "type": "uint256"
            }
          ],
          "internalType": "struct Position.Props[]",
          "name": "",
          "type": "tuple[]"
        }
      ],
      "stateMutability": "view",
      "type": "function"
    },
    {
      "inputs": [
        {
          "internalType": "address",
          "name": "_account",
          "type": "address"
        }
      ],
      "name": "grantControllerRoleByMarketManager",
      "outputs": [],
      "stateMutability": "nonpayable",
      "type": "function"
    },
    {
      "inputs": [
        {
          "internalType": "bytes32",
          "name": "role",
          "type": "bytes32"
        },
        {
          "internalType": "address",
          "name": "account",
          "type": "address"
        }
      ],
      "name": "grantRole",
      "outputs": [],
      "stateMutability": "pure",
      "type": "function"
    },
    {
      "inputs": [
        {
          "internalType": "bytes32",
          "name": "role",
          "type": "bytes32"
        },
        {
          "internalType": "address",
          "name": "account",
          "type": "address"
        }
      ],
      "name": "hasRole",
      "outputs": [
        {
          "internalType": "bool",
          "name": "",
          "type": "bool"
        }
      ],
      "stateMutability": "pure",
      "type": "function"
    },
    {
      "inputs": [
        {
          "internalType": "address",
          "name": "account",
          "type": "address"
        },
        {
          "internalType": "int256",
          "name": "collateralDelta",
          "type": "int256"
        },
        {
          "internalType": "uint256",
          "name": "sizeDelta",
          "type": "uint256"
        },
        {
          "internalType": "uint256",
          "name": "markPrice",
          "type": "uint256"
        },
        {
          "internalType": "int256",
          "name": "fundingRate",
          "type": "int256"
        },
        {
          "internalType": "bool",
          "name": "isLong",
          "type": "bool"
        }
      ],
      "name": "increasePosition",
      "outputs": [
        {
          "components": [
            {
              "internalType": "address",
              "name": "market",
              "type": "address"
            },
            {
              "internalType": "bool",
              "name": "isLong",
              "type": "bool"
            },
            {
              "internalType": "uint32",
              "name": "lastTime",
              "type": "uint32"
            },
            {
              "internalType": "uint216",
              "name": "extra3",
              "type": "uint216"
            },
            {
              "internalType": "uint256",
              "name": "size",
              "type": "uint256"
            },
            {
              "internalType": "uint256",
              "name": "collateral",
              "type": "uint256"
            },
            {
              "internalType": "uint256",
              "name": "averagePrice",
              "type": "uint256"
            },
            {
              "internalType": "int256",
              "name": "entryFundingRate",
              "type": "int256"
            },
            {
              "internalType": "int256",
              "name": "realisedPnl",
              "type": "int256"
            },
            {
              "internalType": "uint256",
              "name": "extra0",
              "type": "uint256"
            },
            {
              "internalType": "uint256",
              "name": "extra1",
              "type": "uint256"
            },
            {
              "internalType": "uint256",
              "name": "extra2",
              "type": "uint256"
            }
          ],
          "internalType": "struct Position.Props",
          "name": "result",
          "type": "tuple"
        }
      ],
      "stateMutability": "nonpayable",
      "type": "function"
    },
    {
      "inputs": [
        {
          "internalType": "address",
          "name": "marketAddr",
          "type": "address"
        }
      ],
      "name": "initialize",
      "outputs": [],
      "stateMutability": "nonpayable",
      "type": "function"
    },
    {
      "inputs": [
        {
          "internalType": "address",
          "name": "account",
          "type": "address"
        },
        {
          "internalType": "uint256",
          "name": "markPrice",
          "type": "uint256"
        },
        {
          "internalType": "bool",
          "name": "isLong",
          "type": "bool"
        }
      ],
      "name": "liquidatePosition",
      "outputs": [
        {
          "components": [
            {
              "internalType": "address",
              "name": "market",
              "type": "address"
            },
            {
              "internalType": "bool",
              "name": "isLong",
              "type": "bool"
            },
            {
              "internalType": "uint32",
              "name": "lastTime",
              "type": "uint32"
            },
            {
              "internalType": "uint216",
              "name": "extra3",
              "type": "uint216"
            },
            {
              "internalType": "uint256",
              "name": "size",
              "type": "uint256"
            },
            {
              "internalType": "uint256",
              "name": "collateral",
              "type": "uint256"
            },
            {
              "internalType": "uint256",
              "name": "averagePrice",
              "type": "uint256"
            },
            {
              "internalType": "int256",
              "name": "entryFundingRate",
              "type": "int256"
            },
            {
              "internalType": "int256",
              "name": "realisedPnl",
              "type": "int256"
            },
            {
              "internalType": "uint256",
              "name": "extra0",
              "type": "uint256"
            },
            {
              "internalType": "uint256",
              "name": "extra1",
              "type": "uint256"
            },
            {
              "internalType": "uint256",
              "name": "extra2",
              "type": "uint256"
            }
          ],
          "internalType": "struct Position.Props",
          "name": "result",
          "type": "tuple"
        }
      ],
      "stateMutability": "nonpayable",
      "type": "function"
    },
    {
      "inputs": [],
      "name": "longStore",
      "outputs": [
        {
          "internalType": "contract PositionStore",
          "name": "",
          "type": "address"
        }
      ],
      "stateMutability": "view",
      "type": "function"
    },
    {
      "inputs": [],
      "name": "market",
      "outputs": [
        {
          "internalType": "address",
          "name": "",
          "type": "address"
        }
      ],
      "stateMutability": "view",
      "type": "function"
    },
    {
      "inputs": [
        {
          "internalType": "bytes32",
          "name": "role",
          "type": "bytes32"
        },
        {
          "internalType": "address",
          "name": "account",
          "type": "address"
        }
      ],
      "name": "revokeRole",
      "outputs": [],
      "stateMutability": "pure",
      "type": "function"
    },
    {
      "inputs": [],
      "name": "shortStore",
      "outputs": [
        {
          "internalType": "contract PositionStore",
          "name": "",
          "type": "address"
        }
      ],
      "stateMutability": "view",
      "type": "function"
    },
    {
      "inputs": [
        {
          "internalType": "address",
          "name": "to",
          "type": "address"
        }
      ],
      "name": "transferAdmin",
      "outputs": [],
      "stateMutability": "nonpayable",
      "type": "function"
    },
    {
      "inputs": [
        {
          "internalType": "address",
          "name": "newOwner",
          "type": "address"
        }
      ],
      "name": "transferOwnership",
      "outputs": [],
      "stateMutability": "pure",
      "type": "function"
    }
  ],
  "bytecode": "0x60806040523480156200001157600080fd5b5060405162002ede38038062002ede833981016040819052620000349162000142565b806200004b816200012560201b62000b981760201c565b508060016040516200005d9062000134565b6001600160a01b03909216825215156020820152604001604051809103906000f08015801562000091573d6000803e3d6000fd5b50600360006101000a8154816001600160a01b0302191690836001600160a01b03160217905550806000604051620000c99062000134565b6001600160a01b03909216825215156020820152604001604051809103906000f080158015620000fd573d6000803e3d6000fd5b50600480546001600160a01b0319166001600160a01b03929092169190911790555062000174565b42600155620001313381565b50565b6110788062001e6683390190565b6000602082840312156200015557600080fd5b81516001600160a01b03811681146200016d57600080fd5b9392505050565b611ce280620001846000396000f3fe608060405234801561001057600080fd5b50600436106101585760003560e01c8063a1838612116100c3578063d547741f1161007c578063d547741f146101d6578063dd16feac14610316578063e62c0edf14610329578063f115e8b51461033c578063f2fde38b14610305578063f3ec823d1461034f57600080fd5b8063a1838612146102a4578063a217fddf146102b7578063b444f8ea146102bf578063bc95baad146102d2578063c4d66de8146102f2578063d29d44ee1461030557600080fd5b80637fe4a698116101155780637fe4a6981461021d57806380f55605146102305780638749694a146102435780638b3c1af61461024b5780638dd3fde31461025e57806391d148541461027e57600080fd5b8063146054721461015d5780631aa2e3901461018d5780632ca6d2c0146101ae5780632f2ff15d146101d65780633eeb530e146101ea57806375829def1461020a575b600080fd5b600454610170906001600160a01b031681565b6040516001600160a01b0390911681526020015b60405180910390f35b6101a061019b3660046115b2565b610362565b604051908152602001610184565b6101c16101bc3660046115e9565b610391565b60408051928352602083019190915201610184565b6101e86101e4366004611606565b5050565b005b6101fd6101f83660046115e9565b6103c5565b60405161018491906116df565b6101e86102183660046115e9565b6104e6565b6101e861022b3660046115e9565b610313565b600254610170906001600160a01b031681565b6101c16104f1565b6101a061025936600461173c565b6105de565b61027161026c366004611759565b61066f565b6040516101849190611792565b61029461028c366004611606565b600192915050565b6040519015158152602001610184565b600354610170906001600160a01b031681565b6101a0600081565b6101a06102cd3660046117d3565b610703565b6102e56102e03660046117d3565b610760565b604051610184919061180a565b6101e86103003660046115e9565b610775565b6101e86103133660046115e9565b50565b6102e56103243660046117d3565b6108e8565b6102e5610337366004611819565b6109cc565b6102e561034a36600461186f565b6109e1565b6101a061035d3660046118cd565b610b1b565b600080610370846001610b9f565b905061037d836000610b9f565b610387908261192d565b9150505b92915050565b60008060006103a1846001610be7565b905060006103b0856000610be7565b60809283015192015191959194509092505050565b606060006103d68360006001610c83565b905060006103e684600080610c83565b905060008083608001511115610404578061040081611955565b9150505b60808201511561041c578061041881611955565b9150505b60008167ffffffffffffffff8111156104375761043761196e565b60405190808252806020026020018201604052801561047057816020015b61045d611537565b8152602001906001900390816104555790505b50905081156104dd57608084015160009250156104b4578381838151811061049a5761049a611984565b602002602001018190525081806104b090611955565b9250505b6080830151156104dd57828183815181106104d1576104d1611984565b60200260200101819052505b95945050505050565b60006101e460003382565b600080600360009054906101000a90046001600160a01b03166001600160a01b0316631ee229be6040518163ffffffff1660e01b8152600401602060405180830381865afa158015610547573d6000803e3d6000fd5b505050506040513d601f19601f8201168201806040525081019061056b919061199a565b6004805460408051630f7114df60e11b815290516001600160a01b0390921692631ee229be9282820192602092908290030181865afa1580156105b2573d6000803e3d6000fd5b505050506040513d601f19601f820116820180604052508101906105d6919061199a565b915091509091565b600080826105f7576004546001600160a01b0316610604565b6003546001600160a01b03165b9050806001600160a01b031663816834766040518163ffffffff1660e01b8152600401602060405180830381865afa158015610644573d6000803e3d6000fd5b505050506040513d601f19601f82011682018060405250810190610668919061199a565b9392505050565b6060838310156106d15760405162461bcd60e51b815260206004820152602260248201527f706f736974696f6e426f6f6b3a20696e76616c69642072616e676520706172616044820152616d7360f01b60648201526084015b60405180910390fd5b6000826106e9576004546001600160a01b03166106f6565b6003546001600160a01b03165b90506104dd818686610ceb565b6000806107108584610be7565b90508060a00151841115610726578060a0015193505b61072e611537565b610740868660008560e0015188610df1565b90508060a001518260a0015161075691906119b3565b9695505050505050565b610768611537565b60006104dd858585610c83565b600054610100900460ff16158080156107955750600054600160ff909116105b806107af5750303b1580156107af575060005460ff166001145b6108125760405162461bcd60e51b815260206004820152602e60248201527f496e697469616c697a61626c653a20636f6e747261637420697320616c72656160448201526d191e481a5b9a5d1a585b1a5e995960921b60648201526084016106c8565b6000805460ff191660011790558015610835576000805461ff0019166101001790555b6001600160a01b0382166108845760405162461bcd60e51b8152602060048201526016602482015275696e76616c6964206d61726b6574206164647265737360501b60448201526064016106c8565b600280546001600160a01b0319166001600160a01b03841617905580156101e4576000805461ff0019169055604051600181527f7f26b83ff96e1f2b6a682f133852f6798a09c465da95921460cefb38474024989060200160405180910390a15050565b6108f0611537565b60006108fc8584610be7565b905061090b8160800151151590565b6109655760405162461bcd60e51b815260206004820152602560248201527f706f736974696f6e426f6f6b3a20706f736974696f6e20646f6573206e6f7420604482015264195e1a5cdd60da1b60648201526084016106c8565b831561099d576000806109788387610fcb565b915091506000826109915761098c826119c6565b610993565b815b6101008601525050505b6109b1858260a00151836080015186610fe7565b6080808201519083015260a090810151908201529392505050565b6109d4611537565b6107568686868686610df1565b6109e9611537565b60006109f58884610be7565b90508060800151600003610a0b5760c081018590525b60008160800151118015610a1f5750600086115b15610a7357600080610a318388610fcb565b9092509050610a438389898486611092565b60c0840152600082610a5d57610a58826119c6565b610a5f565b815b61010086015250505060c080820151908301525b610a9387610a848360a0015161111a565b610a8e919061192d565b611188565b60a082015260e081018490526080810151610aaf9087906119e2565b6080820152821515602082015263ffffffff42166040820152610ad1816111da565b610aed5760405162461bcd60e51b81526004016106c8906119f5565b610afd8884898989600187611210565b6080808201519083015260a090810151908201529695505050505050565b600080610b288684610be7565b90508060800151600003610b40576000915050610b90565b600080610b4d8387610fcb565b9150915086600014610b75576080830151610b688289611a2c565b610b729190611a43565b90505b81610b8857610b83816119c6565b610b8a565b805b93505050505b949350505050565b4260015550565b600080610bab836112b6565b90508060800151600003610bc357600091505061038b565b600080610bd08387610fcb565b91509150816104dd57610be2816119c6565b610756565b610bef611537565b600082610c07576004546001600160a01b0316610c14565b6003546001600160a01b03165b6040516330af0bbf60e21b81526001600160a01b0386811660048301529192509082169063c2bc2efc9060240161018060405180830381865afa158015610c5f573d6000803e3d6000fd5b505050506040513d601f19601f820116820180604052508101906103879190611b06565b610c8b611537565b6000610c978584610be7565b905083600003610ca8579050610668565b608081015115610b9057600080610cbf8387610fcb565b91509150600082610cd857610cd3826119c6565b610cda565b815b610100850152505050949350505050565b60606000846001600160a01b031663816834766040518163ffffffff1660e01b8152600401602060405180830381865afa158015610d2d573d6000803e3d6000fd5b505050506040513d601f19601f82011682018060405250810190610d51919061199a565b905080600003610d71575050604080516000815260208101909152610668565b80831115610d7d578092505b604051637f497d9760e01b815260048101859052602481018490526001600160a01b03861690637f497d9790604401600060405180830381865afa158015610dc9573d6000803e3d6000fd5b505050506040513d6000823e601f3d908101601f191682016040526104dd9190810190611bbc565b610df9611537565b6000610e058784610be7565b90504263ffffffff16816040015163ffffffff1603610e565760405162461bcd60e51b815260206004820152600d60248201526c70623a73616d6520626c6f636b60981b60448201526064016106c8565b610e5f816111da565b610e7b5760405162461bcd60e51b81526004016106c8906119f5565b858160a001511015610ecf5760405162461bcd60e51b815260206004820181905260248201527f706f736974696f6e426f6f6b3a20696e76616c696420636f6c6c61746572616c60448201526064016106c8565b8481608001511015610f235760405162461bcd60e51b815260206004820152601a60248201527f706f736974696f6e426f6f6b3a20696e76616c69642073697a6500000000000060448201526064016106c8565b84816080015114610fb55760e081018490526080810151610f459086906119b3565b608082015260a0810151610f5a9087906119b3565b60a0820152610f68816111da565b610f845760405162461bcd60e51b81526004016106c8906119f5565b610f9c8784610f928961111a565b8860008087611210565b6080808201519083015260a08082015190830152610fc1565b610fc187878786610fe7565b5095945050505050565b6000808080610fda8686611348565b9097909650945050505050565b6000611000610ff58561111a565b8460008560006113cf565b905060008261101a576004546001600160a01b0316611027565b6003546001600160a01b03165b6040516305a02ac360e31b81529091506001600160a01b03821690632d015618906110589089908690600401611c62565b600060405180830381600087803b15801561107257600080fd5b505af1158015611086573d6000803e3d6000fd5b50505050505050505050565b6000808587608001516110a591906119e2565b905060008760200151156110d857836110c7576110c285836119b3565b6110d1565b6110d185836119e2565b90506110f9565b836110ec576110e785836119e2565b6110f6565b6110f685836119b3565b90505b806111048388611a2c565b61110e9190611a43565b98975050505050505050565b60006001600160ff1b038211156111845760405162461bcd60e51b815260206004820152602860248201527f53616665436173743a2076616c756520646f65736e27742066697420696e2061604482015267371034b73a191a9b60c11b60648201526084016106c8565b5090565b6000808212156111845760405162461bcd60e51b815260206004820181905260248201527f53616665436173743a2076616c7565206d75737420626520706f73697469766560448201526064016106c8565b600081608001516000036111f057506000919050565b8160a001518260800151101561120857506000919050565b506001919050565b600061121f8686868a876113cf565b9050600087611239576004546001600160a01b0316611246565b6003546001600160a01b03165b60405163b7ed135760e01b81529091506001600160a01b0382169063b7ed135790611279908c9087908790600401611c80565b600060405180830381600087803b15801561129357600080fd5b505af11580156112a7573d6000803e3d6000fd5b50505050505050505050505050565b6112be611537565b6000826112d6576004546001600160a01b03166112e3565b6003546001600160a01b03165b9050806001600160a01b0316639027b59e6040518163ffffffff1660e01b815260040161018060405180830381865afa158015611324573d6000803e3d6000fd5b505050506040513d601f19601f820116820180604052508101906106689190611b06565b6000806000838560c001511161136c5760c085015161136790856119b3565b61137c565b838560c0015161137c91906119b3565b905060008560c001518287608001516113959190611a2c565b61139f9190611a43565b905060008660200151156113ba575060c086015185116113c4565b858760c001511190505b969095509350505050565b6113d7611537565b60006113e2846112b6565b9050821561149c5760006113f78288886114d8565b9050606481116114495760405162461bcd60e51b815260206004820152601a60248201527f70623a696e76616c696420676c6f62616c20706f736974696f6e00000000000060448201526064016106c8565b60c082018190526080820180518891906114649083906119e2565b90525060a082015161147b908990610a849061111a565b60a083015250831515602082015263ffffffff4216604082015290506104dd565b85816080018181516114ae91906119b3565b9052506114ba87611188565b8160a0018181516114cb91906119b3565b9052509695505050505050565b600083608001516000036114ed575080610668565b600084608001511180156115015750600083115b1561152d576000806115138685610fcb565b90925090506115258686868486611092565b60c087015250505b50505060c0015190565b60405180610180016040528060006001600160a01b03168152602001600015158152602001600063ffffffff16815260200160006001600160d81b0316815260200160008152602001600081526020016000815260200160008152602001600081526020016000815260200160008152602001600081525090565b600080604083850312156115c557600080fd5b50508035926020909101359150565b6001600160a01b038116811461031357600080fd5b6000602082840312156115fb57600080fd5b8135610668816115d4565b6000806040838503121561161957600080fd5b82359150602083013561162b816115d4565b809150509250929050565b80516001600160a01b031682526020810151611656602084018215159052565b50604081015161166e604084018263ffffffff169052565b50606081015161168960608401826001600160d81b03169052565b506080818101519083015260a0808201519083015260c0808201519083015260e0808201519083015261010080820151908301526101208082015190830152610140808201519083015261016090810151910152565b6020808252825182820181905260009190848201906040850190845b818110156117225761170e838551611636565b9284019261018092909201916001016116fb565b50909695505050505050565b801515811461031357600080fd5b60006020828403121561174e57600080fd5b81356106688161172e565b60008060006060848603121561176e57600080fd5b833592506020840135915060408401356117878161172e565b809150509250925092565b6020808252825182820181905260009190848201906040850190845b818110156117225783516001600160a01b0316835292840192918401916001016117ae565b6000806000606084860312156117e857600080fd5b83356117f3816115d4565b92506020840135915060408401356117878161172e565b610180810161038b8284611636565b600080600080600060a0868803121561183157600080fd5b853561183c816115d4565b945060208601359350604086013592506060860135915060808601356118618161172e565b809150509295509295909350565b60008060008060008060c0878903121561188857600080fd5b8635611893816115d4565b95506020870135945060408701359350606087013592506080870135915060a08701356118bf8161172e565b809150509295509295509295565b600080600080608085870312156118e357600080fd5b84356118ee816115d4565b93506020850135925060408501359150606085013561190c8161172e565b939692955090935050565b634e487b7160e01b600052601160045260246000fd5b808201828112600083128015821682158216171561194d5761194d611917565b505092915050565b60006001820161196757611967611917565b5060010190565b634e487b7160e01b600052604160045260246000fd5b634e487b7160e01b600052603260045260246000fd5b6000602082840312156119ac57600080fd5b5051919050565b8181038181111561038b5761038b611917565b6000600160ff1b82016119db576119db611917565b5060000390565b8082018082111561038b5761038b611917565b6020808252601e908201527f706f736974696f6e426f6f6b3a20696e76616c696420706f736974696f6e0000604082015260600190565b808202811582820484141761038b5761038b611917565b600082611a6057634e487b7160e01b600052601260045260246000fd5b500490565b604051610180810167ffffffffffffffff81118282101715611a8957611a8961196e565b60405290565b604051601f8201601f1916810167ffffffffffffffff81118282101715611ab857611ab861196e565b604052919050565b8051611acb816115d4565b919050565b8051611acb8161172e565b805163ffffffff81168114611acb57600080fd5b80516001600160d81b0381168114611acb57600080fd5b60006101808284031215611b1957600080fd5b611b21611a65565b611b2a83611ac0565b8152611b3860208401611ad0565b6020820152611b4960408401611adb565b6040820152611b5a60608401611aef565b60608201526080838101519082015260a0808401519082015260c0808401519082015260e08084015190820152610100808401519082015261012080840151908201526101408084015190820152610160928301519281019290925250919050565b60006020808385031215611bcf57600080fd5b825167ffffffffffffffff80821115611be757600080fd5b818501915085601f830112611bfb57600080fd5b815181811115611c0d57611c0d61196e565b8060051b9150611c1e848301611a8f565b8181529183018401918481019088841115611c3857600080fd5b938501935b8385101561110e5784519250611c52836115d4565b8282529385019390850190611c3d565b6001600160a01b03831681526101a081016106686020830184611636565b6001600160a01b03841681526103208101611c9e6020830185611636565b610b906101a083018461163656fea264697066735822122037b8d9b39fc7c47a8fb35cbf34632ce188ce954cdab50c3ed7bdab8a7ce2246f64736f6c6343000811003360a060405234801561001057600080fd5b5060405161107838038061107883398101604081905261002f91610071565b816100438161006360201b6108461760201c565b50600280546001600160a01b0319163317905580151560805250506100bc565b4260015561006e3381565b50565b6000806040838503121561008457600080fd5b82516001600160a01b038116811461009b57600080fd5b602084015190925080151581146100b157600080fd5b809150509250929050565b608051610fa16100d760003960006101420152610fa16000f3fe608060405234801561001057600080fd5b50600436106101215760003560e01c80638d49701d116100ad578063b7ed135711610071578063b7ed13571461026d578063c2bc2efc14610280578063d29d44ee14610293578063d547741f14610189578063f2fde38b1461029357600080fd5b80638d49701d146101fc5780639027b59e1461020f57806391d1485414610224578063a217fddf1461023a578063ac0b05a61461024257600080fd5b80635dbe47e8116100f45780635dbe47e81461019b57806375829def146101ae5780637f497d97146101c15780637fe4a698146101e157806381683476146101f457600080fd5b80631ee229be14610126578063202a61a11461013d5780632d015618146101745780632f2ff15d14610189575b600080fd5b6008545b6040519081526020015b60405180910390f35b6101647f000000000000000000000000000000000000000000000000000000000000000081565b6040519015158152602001610134565b610187610182366004610b92565b6102a4565b005b610187610197366004610bc9565b5050565b6101646101a9366004610bf9565b61056f565b6101876101bc366004610bf9565b610582565b6101d46101cf366004610c16565b61058d565b6040516101349190610c38565b6101876101ef366004610bf9565b6102a1565b61012a6105a2565b61018761020a366004610bf9565b6105b3565b61021761064d565b6040516101349190610c85565b610164610232366004610bc9565b600192915050565b61012a600081565b600254610255906001600160a01b031681565b6040516001600160a01b039091168152602001610134565b61018761027b366004610d3c565b6106ed565b61021761028e366004610bf9565b61077f565b6101876102a1366004610bf9565b50565b60006102b160048461084d565b9050806103055760405162461bcd60e51b815260206004820152601760248201527f706f736974696f6e20646f6573206e6f7420657869737400000000000000000060448201526064015b60405180910390fd5b8160066103128282610dd3565b905050600060036000856001600160a01b03166001600160a01b03168152602001908152602001600020604051806101800160405290816000820160009054906101000a90046001600160a01b03166001600160a01b03166001600160a01b031681526020016000820160149054906101000a900460ff161515151581526020016000820160159054906101000a900463ffffffff1663ffffffff1663ffffffff1681526020016001820160009054906101000a90046001600160d81b03166001600160d81b03166001600160d81b0316815260200160028201548152602001600382015481526020016004820154815260200160058201548152602001600682015481526020016007820154815260200160088201548152602001600982015481525050905060036000856001600160a01b03166001600160a01b03168152602001908152602001600020600080820160006101000a8154906001600160a01b0302191690556000820160146101000a81549060ff02191690556000820160156101000a81549063ffffffff02191690556001820160006101000a8154906001600160d81b03021916905560028201600090556003820160009055600482016000905560058201600090556006820160009055600782016000905560088201600090556009820160009055505061051484600461086f90919063ffffffff16565b50836001600160a01b03167f20b3ac24c835264e655c493af7b3db37ff78a0f358627f0de89832abc7e1deca82608001518360a00151604051610561929190918252602082015260400190565b60405180910390a250505050565b600061057c60048361084d565b92915050565b600061019760003382565b606061059b60048484610884565b9392505050565b60006105ae6004610952565b905090565b6001600160a01b0381166105fb5760405162461bcd60e51b815260206004820152600f60248201526e696e76616c6964206164647265737360881b60448201526064016102fc565b600280546001600160a01b038381166001600160a01b0319831681179093556040519116919082907f2ee38693e6d151b09b65fa20e0e55d8947aeee23c1fa70257ea61af59a8dd2f090600090a35050565b610655610ae9565b5060408051610180810182526006546001600160a01b0381168252600160a01b810460ff1615156020830152600160a81b900463ffffffff16918101919091526007546001600160d81b03166060820152600854608082015260095460a0820152600a5460c0820152600b5460e0820152600c54610100820152600d54610120820152600e54610140820152600f5461016082015290565b8060066106fa8282610dd3565b50506001600160a01b038316600090815260036020526040902082906107208282610dd3565b5061072e905060048461095c565b50604080516080840135815260a084013560208201526001600160a01b038516917f0d77a4156ff764dade22a2cd25a68a83ff04b20df143bba5d162a6a980702623910160405180910390a2505050565b610787610ae9565b506001600160a01b0390811660009081526003602081815260409283902083516101808101855281549586168152600160a01b860460ff16151592810192909252600160a81b90940463ffffffff169281019290925260018301546001600160d81b031660608301526002830154608083015282015460a0820152600482015460c0820152600582015460e082015260068201546101008201526007820154610120820152600882015461014082015260099091015461016082015290565b4260015550565b6001600160a01b0381166000908152600183016020526040812054151561059b565b600061059b836001600160a01b038416610971565b6060600061089185610952565b90508083111561089f578092505b60006108ab8585610efd565b67ffffffffffffffff8111156108c3576108c3610f10565b6040519080825280602002602001820160405280156108ec578160200160208202803683370190505b509050845b84811015610948576109038782610a64565b8261090e8884610efd565b8151811061091e5761091e610f26565b6001600160a01b03909216602092830291909101909101528061094081610f3c565b9150506108f1565b5095945050505050565b600061057c825490565b600061059b836001600160a01b038416610a70565b60008181526001830160205260408120548015610a5a576000610995600183610efd565b85549091506000906109a990600190610efd565b9050818114610a0e5760008660000182815481106109c9576109c9610f26565b90600052602060002001549050808760000184815481106109ec576109ec610f26565b6000918252602080832090910192909255918252600188019052604090208390555b8554869080610a1f57610a1f610f55565b60019003818190600052602060002001600090559055856001016000868152602001908152602001600020600090556001935050505061057c565b600091505061057c565b600061059b8383610abf565b6000818152600183016020526040812054610ab75750815460018181018455600084815260208082209093018490558454848252828601909352604090209190915561057c565b50600061057c565b6000826000018281548110610ad657610ad6610f26565b9060005260206000200154905092915050565b60405180610180016040528060006001600160a01b03168152602001600015158152602001600063ffffffff16815260200160006001600160d81b0316815260200160008152602001600081526020016000815260200160008152602001600081526020016000815260200160008152602001600081525090565b6001600160a01b03811681146102a157600080fd5b60006101808284031215610b8c57600080fd5b50919050565b6000806101a08385031215610ba657600080fd5b8235610bb181610b64565b9150610bc08460208501610b79565b90509250929050565b60008060408385031215610bdc57600080fd5b823591506020830135610bee81610b64565b809150509250929050565b600060208284031215610c0b57600080fd5b813561059b81610b64565b60008060408385031215610c2957600080fd5b50508035926020909101359150565b6020808252825182820181905260009190848201906040850190845b81811015610c795783516001600160a01b031683529284019291840191600101610c54565b50909695505050505050565b81516001600160a01b0316815261018081016020830151610caa602084018215159052565b506040830151610cc2604084018263ffffffff169052565b506060830151610cdd60608401826001600160d81b03169052565b506080830151608083015260a083015160a083015260c083015160c083015260e083015160e083015261010080840151818401525061012080840151818401525061014080840151818401525061016080840151818401525092915050565b60008060006103208486031215610d5257600080fd5b8335610d5d81610b64565b9250610d6c8560208601610b79565b9150610d7c856101a08601610b79565b90509250925092565b6000813561057c81610b64565b60008135801515811461057c57600080fd5b6000813563ffffffff8116811461057c57600080fd5b600081356001600160d81b038116811461057c57600080fd5b610dfc610ddf83610d85565b82546001600160a01b0319166001600160a01b0391909116178255565b610e29610e0b60208401610d92565b82805460ff60a01b191691151560a01b60ff60a01b16919091179055565b610e5c610e3860408401610da4565b82805463ffffffff60a81b191660a89290921b63ffffffff60a81b16919091179055565b610e8f610e6b60608401610dba565b6001830180546001600160d81b0319166001600160d81b0392909216919091179055565b6080820135600282015560a0820135600382015560c0820135600482015560e0820135600582015561010082013560068201556101208201356007820155610140820135600882015561016082013560098201555050565b634e487b7160e01b600052601160045260246000fd5b8181038181111561057c5761057c610ee7565b634e487b7160e01b600052604160045260246000fd5b634e487b7160e01b600052603260045260246000fd5b600060018201610f4e57610f4e610ee7565b5060010190565b634e487b7160e01b600052603160045260246000fdfea26469706673582212208eb6e32ab191e4016bd18fc4950a91f86ee4c1827d9059c2ee591a8371de19ca64736f6c63430008110033",
  "linkReferences": {},
  "deployedLinkReferences": {}
}