{
  "_format": "hh-sol-artifact-1",
  "contractName": "MarketFactory",
  "sourceName": "contracts/market/MarketFactory.sol",
  "abi": [
    {
      "inputs": [],
      "stateMutability": "nonpayable",
      "type": "constructor"
    },
    {
      "anonymous": false,
      "inputs": [
        {
          "indexed": true,
          "internalType": "address",
          "name": "market",
          "type": "address"
        },
        {
          "indexed": false,
          "internalType": "address",
          "name": "marketValid",
          "type": "address"
        },
        {
          "indexed": false,
          "internalType": "address",
          "name": "orderBookLong",
          "type": "address"
        },
        {
          "indexed": false,
          "internalType": "address",
          "name": "orderBookShort",
          "type": "address"
        }
      ],
      "name": "Create",
      "type": "event"
    },
    {
      "anonymous": false,
      "inputs": [
        {
          "indexed": false,
          "internalType": "uint8",
          "name": "version",
          "type": "uint8"
        }
      ],
      "name": "Initialized",
      "type": "event"
    },
    {
      "anonymous": false,
      "inputs": [
        {
          "indexed": true,
          "internalType": "address",
          "name": "previousOwner",
          "type": "address"
        },
        {
          "indexed": true,
          "internalType": "address",
          "name": "newOwner",
          "type": "address"
        }
      ],
      "name": "OwnershipTransferred",
      "type": "event"
    },
    {
      "anonymous": false,
      "inputs": [
        {
          "indexed": true,
          "internalType": "bytes32",
          "name": "role",
          "type": "bytes32"
        },
        {
          "indexed": true,
          "internalType": "bytes32",
          "name": "previousAdminRole",
          "type": "bytes32"
        },
        {
          "indexed": true,
          "internalType": "bytes32",
          "name": "newAdminRole",
          "type": "bytes32"
        }
      ],
      "name": "RoleAdminChanged",
      "type": "event"
    },
    {
      "anonymous": false,
      "inputs": [
        {
          "indexed": true,
          "internalType": "bytes32",
          "name": "role",
          "type": "bytes32"
        },
        {
          "indexed": true,
          "internalType": "address",
          "name": "account",
          "type": "address"
        },
        {
          "indexed": true,
          "internalType": "address",
          "name": "sender",
          "type": "address"
        }
      ],
      "name": "RoleGranted",
      "type": "event"
    },
    {
      "anonymous": false,
      "inputs": [
        {
          "indexed": true,
          "internalType": "bytes32",
          "name": "role",
          "type": "bytes32"
        },
        {
          "indexed": true,
          "internalType": "address",
          "name": "account",
          "type": "address"
        },
        {
          "indexed": true,
          "internalType": "address",
          "name": "sender",
          "type": "address"
        }
      ],
      "name": "RoleRevoked",
      "type": "event"
    },
    {
      "inputs": [],
      "name": "DEFAULT_ADMIN_ROLE",
      "outputs": [
        {
          "internalType": "bytes32",
          "name": "",
          "type": "bytes32"
        }
      ],
      "stateMutability": "view",
      "type": "function"
    },
    {
      "inputs": [],
      "name": "allMarketsLength",
      "outputs": [
        {
          "internalType": "uint256",
          "name": "",
          "type": "uint256"
        }
      ],
      "stateMutability": "view",
      "type": "function"
    },
    {
      "inputs": [
        {
          "components": [
            {
              "internalType": "string",
              "name": "_name",
              "type": "string"
            },
            {
              "internalType": "address",
              "name": "_marketAddress",
              "type": "address"
            },
            {
              "internalType": "address[]",
              "name": "addrs",
              "type": "address[]"
            },
            {
              "internalType": "address",
              "name": "_openStoreLong",
              "type": "address"
            },
            {
              "internalType": "address",
              "name": "_closeStoreLong",
              "type": "address"
            },
            {
              "internalType": "address",
              "name": "_openStoreShort",
              "type": "address"
            },
            {
              "internalType": "address",
              "name": "_closeStoreShort",
              "type": "address"
            },
            {
              "internalType": "uint256",
              "name": "_minSlippage",
              "type": "uint256"
            },
            {
              "internalType": "uint256",
              "name": "_maxSlippage",
              "type": "uint256"
            },
            {
              "internalType": "uint256",
              "name": "_minLeverage",
              "type": "uint256"
            },
            {
              "internalType": "uint256",
              "name": "_maxLeverage",
              "type": "uint256"
            },
            {
              "internalType": "uint256",
              "name": "_maxTradeAmount",
              "type": "uint256"
            },
            {
              "internalType": "uint256",
              "name": "_minPay",
              "type": "uint256"
            },
            {
              "internalType": "uint256",
              "name": "_minCollateral",
              "type": "uint256"
            },
            {
              "internalType": "bool",
              "name": "_allowOpen",
              "type": "bool"
            },
            {
              "internalType": "bool",
              "name": "_allowClose",
              "type": "bool"
            },
            {
              "internalType": "uint256",
              "name": "_tokenDigits",
              "type": "uint256"
            }
          ],
          "internalType": "struct IMarketFactory.CreateInputs",
          "name": "_inputs",
          "type": "tuple"
        }
      ],
      "name": "create",
      "outputs": [],
      "stateMutability": "nonpayable",
      "type": "function"
    },
    {
      "inputs": [
        {
          "internalType": "address",
          "name": "_marketAddr",
          "type": "address"
        }
      ],
      "name": "getMarket",
      "outputs": [
        {
          "components": [
            {
              "internalType": "string",
              "name": "name",
              "type": "string"
            },
            {
              "internalType": "address",
              "name": "addr",
              "type": "address"
            },
            {
              "components": [
                {
                  "internalType": "string",
                  "name": "_name",
                  "type": "string"
                },
                {
                  "internalType": "address",
                  "name": "_marketAddress",
                  "type": "address"
                },
                {
                  "internalType": "address[]",
                  "name": "addrs",
                  "type": "address[]"
                },
                {
                  "internalType": "address",
                  "name": "_openStoreLong",
                  "type": "address"
                },
                {
                  "internalType": "address",
                  "name": "_closeStoreLong",
                  "type": "address"
                },
                {
                  "internalType": "address",
                  "name": "_openStoreShort",
                  "type": "address"
                },
                {
                  "internalType": "address",
                  "name": "_closeStoreShort",
                  "type": "address"
                },
                {
                  "internalType": "uint256",
                  "name": "_minSlippage",
                  "type": "uint256"
                },
                {
                  "internalType": "uint256",
                  "name": "_maxSlippage",
                  "type": "uint256"
                },
                {
                  "internalType": "uint256",
                  "name": "_minLeverage",
                  "type": "uint256"
                },
                {
                  "internalType": "uint256",
                  "name": "_maxLeverage",
                  "type": "uint256"
                },
                {
                  "internalType": "uint256",
                  "name": "_maxTradeAmount",
                  "type": "uint256"
                },
                {
                  "internalType": "uint256",
                  "name": "_minPay",
                  "type": "uint256"
                },
                {
                  "internalType": "uint256",
                  "name": "_minCollateral",
                  "type": "uint256"
                },
                {
                  "internalType": "bool",
                  "name": "_allowOpen",
                  "type": "bool"
                },
                {
                  "internalType": "bool",
                  "name": "_allowClose",
                  "type": "bool"
                },
                {
                  "internalType": "uint256",
                  "name": "_tokenDigits",
                  "type": "uint256"
                }
              ],
              "internalType": "struct IMarketFactory.CreateInputs",
              "name": "inputs",
              "type": "tuple"
            }
          ],
          "internalType": "struct IMarketFactory.Props",
          "name": "",
          "type": "tuple"
        }
      ],
      "stateMutability": "view",
      "type": "function"
    },
    {
      "inputs": [],
      "name": "getMarkets",
      "outputs": [
        {
          "components": [
            {
              "internalType": "string",
              "name": "name",
              "type": "string"
            },
            {
              "internalType": "address",
              "name": "addr",
              "type": "address"
            },
            {
              "internalType": "uint256",
              "name": "minPay",
              "type": "uint256"
            },
            {
              "internalType": "bool",
              "name": "allowOpen",
              "type": "bool"
            },
            {
              "internalType": "bool",
              "name": "allowClose",
              "type": "bool"
            }
          ],
          "internalType": "struct IMarketFactory.Outs[]",
          "name": "_outs",
          "type": "tuple[]"
        }
      ],
      "stateMutability": "view",
      "type": "function"
    },
    {
      "inputs": [
        {
          "internalType": "bytes32",
          "name": "role",
          "type": "bytes32"
        }
      ],
      "name": "getRoleAdmin",
      "outputs": [
        {
          "internalType": "bytes32",
          "name": "",
          "type": "bytes32"
        }
      ],
      "stateMutability": "view",
      "type": "function"
    },
    {
      "inputs": [
        {
          "internalType": "address",
          "name": "_account",
          "type": "address"
        }
      ],
      "name": "grantControllerRoleByMarketManager",
      "outputs": [],
      "stateMutability": "nonpayable",
      "type": "function"
    },
    {
      "inputs": [
        {
          "internalType": "bytes32",
          "name": "role",
          "type": "bytes32"
        },
        {
          "internalType": "address",
          "name": "account",
          "type": "address"
        }
      ],
      "name": "grantRole",
      "outputs": [],
      "stateMutability": "nonpayable",
      "type": "function"
    },
    {
      "inputs": [
        {
          "internalType": "bytes32",
          "name": "role",
          "type": "bytes32"
        },
        {
          "internalType": "address",
          "name": "account",
          "type": "address"
        }
      ],
      "name": "hasRole",
      "outputs": [
        {
          "internalType": "bool",
          "name": "",
          "type": "bool"
        }
      ],
      "stateMutability": "view",
      "type": "function"
    },
    {
      "inputs": [
        {
          "internalType": "uint256",
          "name": "",
          "type": "uint256"
        }
      ],
      "name": "markets",
      "outputs": [
        {
          "internalType": "string",
          "name": "name",
          "type": "string"
        },
        {
          "internalType": "address",
          "name": "addr",
          "type": "address"
        },
        {
          "components": [
            {
              "internalType": "string",
              "name": "_name",
              "type": "string"
            },
            {
              "internalType": "address",
              "name": "_marketAddress",
              "type": "address"
            },
            {
              "internalType": "address[]",
              "name": "addrs",
              "type": "address[]"
            },
            {
              "internalType": "address",
              "name": "_openStoreLong",
              "type": "address"
            },
            {
              "internalType": "address",
              "name": "_closeStoreLong",
              "type": "address"
            },
            {
              "internalType": "address",
              "name": "_openStoreShort",
              "type": "address"
            },
            {
              "internalType": "address",
              "name": "_closeStoreShort",
              "type": "address"
            },
            {
              "internalType": "uint256",
              "name": "_minSlippage",
              "type": "uint256"
            },
            {
              "internalType": "uint256",
              "name": "_maxSlippage",
              "type": "uint256"
            },
            {
              "internalType": "uint256",
              "name": "_minLeverage",
              "type": "uint256"
            },
            {
              "internalType": "uint256",
              "name": "_maxLeverage",
              "type": "uint256"
            },
            {
              "internalType": "uint256",
              "name": "_maxTradeAmount",
              "type": "uint256"
            },
            {
              "internalType": "uint256",
              "name": "_minPay",
              "type": "uint256"
            },
            {
              "internalType": "uint256",
              "name": "_minCollateral",
              "type": "uint256"
            },
            {
              "internalType": "bool",
              "name": "_allowOpen",
              "type": "bool"
            },
            {
              "internalType": "bool",
              "name": "_allowClose",
              "type": "bool"
            },
            {
              "internalType": "uint256",
              "name": "_tokenDigits",
              "type": "uint256"
            }
          ],
          "internalType": "struct IMarketFactory.CreateInputs",
          "name": "inputs",
          "type": "tuple"
        }
      ],
      "stateMutability": "view",
      "type": "function"
    },
    {
      "inputs": [],
      "name": "owner",
      "outputs": [
        {
          "internalType": "address",
          "name": "",
          "type": "address"
        }
      ],
      "stateMutability": "view",
      "type": "function"
    },
    {
      "inputs": [
        {
          "internalType": "address",
          "name": "_addr",
          "type": "address"
        }
      ],
      "name": "remove",
      "outputs": [],
      "stateMutability": "nonpayable",
      "type": "function"
    },
    {
      "inputs": [],
      "name": "renounceOwnership",
      "outputs": [],
      "stateMutability": "nonpayable",
      "type": "function"
    },
    {
      "inputs": [
        {
          "internalType": "bytes32",
          "name": "role",
          "type": "bytes32"
        },
        {
          "internalType": "address",
          "name": "account",
          "type": "address"
        }
      ],
      "name": "renounceRole",
      "outputs": [],
      "stateMutability": "nonpayable",
      "type": "function"
    },
    {
      "inputs": [
        {
          "internalType": "bytes32",
          "name": "role",
          "type": "bytes32"
        },
        {
          "internalType": "address",
          "name": "account",
          "type": "address"
        }
      ],
      "name": "revokeRole",
      "outputs": [],
      "stateMutability": "nonpayable",
      "type": "function"
    },
    {
      "inputs": [
        {
          "internalType": "bytes4",
          "name": "interfaceId",
          "type": "bytes4"
        }
      ],
      "name": "supportsInterface",
      "outputs": [
        {
          "internalType": "bool",
          "name": "",
          "type": "bool"
        }
      ],
      "stateMutability": "view",
      "type": "function"
    },
    {
      "inputs": [
        {
          "internalType": "address",
          "name": "to",
          "type": "address"
        }
      ],
      "name": "transferAdmin",
      "outputs": [],
      "stateMutability": "nonpayable",
      "type": "function"
    },
    {
      "inputs": [
        {
          "internalType": "address",
          "name": "newOwner",
          "type": "address"
        }
      ],
      "name": "transferOwnership",
      "outputs": [],
      "stateMutability": "nonpayable",
      "type": "function"
    }
  ],
  "bytecode": "0x60806040523480156200001157600080fd5b50336200001e816200003b565b62000034816200008d60201b62001ef01760201c565b5062000169565b600180546001600160a01b038381166001600160a01b0319831681179093556040519116919082907f8be0079c531659141344cd1fd0a4f28419497f9722a3daafe3b4186f6b6457e090600090a35050565b426002556200009c336200003b565b620000a9600033620000b9565b620000b6600082620000b9565b50565b620000c58282620000c9565b5050565b6000828152602081815260408083206001600160a01b038516845290915290205460ff16620000c5576000828152602081815260408083206001600160a01b03851684529091529020805460ff19166001179055620001253390565b6001600160a01b0316816001600160a01b0316837f2f8788117e7eff1d82e926ec794901d17c78024a50270940304540a733656f0d60405160405180910390a45050565b6130a780620001796000396000f3fe608060405234801561001057600080fd5b50600436106101165760003560e01c806388dd46a1116100a2578063b1283e7711610071578063b1283e771461022e578063d4dfadbf14610250578063d547741f14610270578063ec2c901614610283578063f2fde38b1461029857600080fd5b806388dd46a1146101f05780638da5cb5b146101f857806391d1485414610213578063a217fddf1461022657600080fd5b80632f2ff15d116100e95780632f2ff15d1461019c57806336568abe146101af578063715018a6146101c257806375829def146101ca5780637fe4a698146101dd57600080fd5b806301ffc9a71461011b5780631d532fed14610143578063248a9ca31461015857806329092d0e14610189575b600080fd5b61012e6101293660046124eb565b6102ab565b60405190151581526020015b60405180910390f35b6101566101513660046126b4565b6102e2565b005b61017b61016636600461281e565b60009081526020819052604090206001015490565b60405190815260200161013a565b610156610197366004612837565b610e03565b6101566101aa366004612854565b611212565b6101566101bd366004612854565b611237565b6101566112b5565b6101566101d8366004612837565b6112c9565b6101566101eb366004612837565b6112f3565b60035461017b565b6001546040516001600160a01b03909116815260200161013a565b61012e610221366004612854565b61131d565b61017b600081565b61024161023c36600461281e565b611346565b60405161013a93929190612a4b565b61026361025e366004612837565b6115da565b60405161013a9190612a89565b61015661027e366004612854565b61196f565b61028b611994565b60405161013a9190612ae1565b6101566102a6366004612837565b611e77565b60006001600160e01b03198216637965db0b60e01b14806102dc57506301ffc9a760e01b6001600160e01b03198316145b92915050565b7f8d1089725c0dc266707fa6207730fb801dcd03108bfed7a21099bd303651d2b7600061030f813361131d565b905080156103715762093a80600254426103299190612b99565b1061036c5760405162461bcd60e51b815260206004820152600e60248201526d1858c81d1a5b59481c185cdcd95960921b60448201526064015b60405180910390fd5b61037b565b61037b8233611f13565b6000836040015160038151811061039457610394612bac565b602090810291909101015160e08501516101008601516101208701516101408801516101608901516101808a01516101a08b01516101c08c01516101e08d015160405163d04093d560e01b81526004810199909952602489019790975260448801959095526064870193909352608486019190915260a485015260c4840152151560e4830152151561010482015260126101248201529091506001600160a01b0382169063d04093d59061014401600060405180830381600087803b15801561045c57600080fd5b505af1158015610470573d6000803e3d6000fd5b505050506000846040015160018151811061048d5761048d612bac565b60209081029190910101516060860151608087015160405163712a2a1160e11b8152600160048201526001600160a01b039283166024820152908216604482015291925082169063e254542290606401600060405180830381600087803b1580156104f757600080fd5b505af115801561050b573d6000803e3d6000fd5b505050506000856040015160028151811061052857610528612bac565b602090810291909101015160a087015160c088015160405163712a2a1160e11b8152600060048201526001600160a01b039283166024820152908216604482015291925082169063e254542290606401600060405180830381600087803b15801561059257600080fd5b505af11580156105a6573d6000803e3d6000fd5b5050505085604001516000815181106105c1576105c1612bac565b6020908102919091018101519087015160405163189acdbd60e31b81526001600160a01b03918216600482015291169063c4d66de890602401600060405180830381600087803b15801561061457600080fd5b505af1158015610628573d6000803e3d6000fd5b505050602087015160408089015189519151633233efe560e01b81526001600160a01b039093169350633233efe5926106649290600401612bc2565b600060405180830381600087803b15801561067e57600080fd5b505af1158015610692573d6000803e3d6000fd5b5050505061069e6122fe565b865181526020808801516001600160a01b03169082015260038054600181018255600091909152815182916012027fc2575a0e9e593c00f959f8c92f12db2869c3395a3b0502d05e2516446f71f85b019081906106fb9082612c6f565b5060208201516001820180546001600160a01b0319166001600160a01b03909216919091179055604082015180516002830190819061073a9082612c6f565b506020828101516001830180546001600160a01b0319166001600160a01b039092169190911790556040830151805161077992600285019201906123dd565b5060608201516003820180546001600160a01b03199081166001600160a01b03938416179091556080840151600484018054831691841691909117905560a0840151600584018054831691841691909117905560c0840151600684018054909216921691909117905560e08201516007820155610100808301516008830155610120830151600980840191909155610140840151600a840155610160840151600b840155610180840151600c8401556101a0840151600d8401556101c0840151600e840180546101e087015161ffff1990911692151561ff001916929092179115159093021790915561020090920151600f9091015560408a01518051909350909150811061088a5761088a612bac565b60209081029190910181015190880151604051630de1f44360e41b81526001600160a01b0391821660048201526000602482015291169063de1f443090604401600060405180830381600087803b1580156108e457600080fd5b505af11580156108f8573d6000803e3d6000fd5b5050506060880151604051632f2ff15d60e01b815260008051602061305283398151915260048201526001600160a01b0386811660248301529091169150632f2ff15d90604401600060405180830381600087803b15801561095957600080fd5b505af115801561096d573d6000803e3d6000fd5b5050506080880151604051632f2ff15d60e01b815260008051602061305283398151915260048201526001600160a01b0386811660248301529091169150632f2ff15d90604401600060405180830381600087803b1580156109ce57600080fd5b505af11580156109e2573d6000803e3d6000fd5b50505060a0880151604051632f2ff15d60e01b815260008051602061305283398151915260048201526001600160a01b0385811660248301529091169150632f2ff15d90604401600060405180830381600087803b158015610a4357600080fd5b505af1158015610a57573d6000803e3d6000fd5b50505060c0880151604051632f2ff15d60e01b815260008051602061305283398151915260048201526001600160a01b0385811660248301529091169150632f2ff15d90604401600060405180830381600087803b158015610ab857600080fd5b505af1158015610acc573d6000803e3d6000fd5b505050508660400151600181518110610ae757610ae7612bac565b60200260200101516001600160a01b0316632f2ff15d60008051602061305283398151915289602001516040518363ffffffff1660e01b8152600401610b409291909182526001600160a01b0316602082015260400190565b600060405180830381600087803b158015610b5a57600080fd5b505af1158015610b6e573d6000803e3d6000fd5b505050508660400151600281518110610b8957610b89612bac565b60200260200101516001600160a01b0316632f2ff15d60008051602061305283398151915289602001516040518363ffffffff1660e01b8152600401610be29291909182526001600160a01b0316602082015260400190565b600060405180830381600087803b158015610bfc57600080fd5b505af1158015610c10573d6000803e3d6000fd5b505050508660400151600081518110610c2b57610c2b612bac565b60200260200101516001600160a01b0316632f2ff15d60008051602061305283398151915289602001516040518363ffffffff1660e01b8152600401610c849291909182526001600160a01b0316602082015260400190565b600060405180830381600087803b158015610c9e57600080fd5b505af1158015610cb2573d6000803e3d6000fd5b5050505086602001516001600160a01b0316632f2ff15d6000805160206130528339815191528960400151600981518110610cef57610cef612bac565b60200260200101516040518363ffffffff1660e01b8152600401610d269291909182526001600160a01b0316602082015260400190565b600060405180830381600087803b158015610d4057600080fd5b505af1158015610d54573d6000803e3d6000fd5b505050508660400151600881518110610d6f57610d6f612bac565b60200260200101516001600160a01b0316632f2ff15d60008051602061305283398151915289602001516040518363ffffffff1660e01b8152600401610dc89291909182526001600160a01b0316602082015260400190565b600060405180830381600087803b158015610de257600080fd5b505af1158015610df6573d6000803e3d6000fd5b5050505050505050505050565b7f8d1089725c0dc266707fa6207730fb801dcd03108bfed7a21099bd303651d2b7610e2d81611f6c565b60005b60035481101561120d57826001600160a01b031660038281548110610e5757610e57612bac565b60009182526020909120600160129092020101546001600160a01b0316036111fb57600354610e8890600190612b99565b81101561105d5760038054610e9f90600190612b99565b81548110610eaf57610eaf612bac565b906000526020600020906012020160038281548110610ed057610ed0612bac565b6000918252602090912060129091020180610eeb8382612d2f565b5060018281015490820180546001600160a01b0319166001600160a01b03909216919091179055600280830190820180610f258382612d2f565b5060018281015490820180546001600160a01b0319166001600160a01b0390921691909117905560028083018054610f609284019190612442565b5060038281015490820180546001600160a01b03199081166001600160a01b0393841617909155600480850154908401805483169184169190911790556005808501549084018054831691841691909117905560068085015490840180549092169216919091179055600780830154908201556008808301549082015560098083015490820155600a8083015490820155600b8083015490820155600c8083015490820155600d8083015490820155600e8083018054918301805460ff938416151560ff19821681178355925461010090819004909416151590930261ff001990921661ffff1990931692909217179055600f9182015491015550505b60006003828154811061107257611072612bac565b906000526020600020906012020160020160020160098154811061109857611098612bac565b600091825260209091200154604051636dc8991b60e11b81526001600160a01b0386811660048301529091169150819063db91323690602401600060405180830381600087803b1580156110eb57600080fd5b505af11580156110ff573d6000803e3d6000fd5b50505050600380548061111457611114612e0a565b600082815260208120600019909201916012830201906111348282612482565b6001820180546001600160a01b03191690556002820160006111568282612482565b6001820180546001600160a01b03191690556111766002830160006124bc565b506003810180546001600160a01b0319908116909155600482018054821690556005820180548216905560068201805490911690556000600782018190556008820181905560098201819055600a8201819055600b8201819055600c8201819055600d8201819055600e8201805461ffff19169055600f909101555050905550505050565b8061120581612e20565b915050610e30565b505050565b60008281526020819052604090206001015461122d81611f6c565b61120d8383611f76565b6001600160a01b03811633146112a75760405162461bcd60e51b815260206004820152602f60248201527f416363657373436f6e74726f6c3a2063616e206f6e6c792072656e6f756e636560448201526e103937b632b9903337b91039b2b63360891b6064820152608401610363565b6112b18282611ffa565b5050565b6112bd61205f565b6112c760006120b9565b565b60006112d481611f6c565b6112df60008361210b565b6112e8826120b9565b6112b1600033611ffa565b7f8d1089725c0dc266707fa6207730fb801dcd03108bfed7a21099bd303651d2b761011681611f6c565b6000918252602082815260408084206001600160a01b0393909316845291905290205460ff1690565b6003818154811061135657600080fd5b906000526020600020906012020160009150905080600001805461137990612be7565b80601f01602080910402602001604051908101604052809291908181526020018280546113a590612be7565b80156113f25780601f106113c7576101008083540402835291602001916113f2565b820191906000526020600020905b8154815290600101906020018083116113d557829003601f168201915b5050505050908060010160009054906101000a90046001600160a01b031690806002016040518061022001604052908160008201805461143190612be7565b80601f016020809104026020016040519081016040528092919081815260200182805461145d90612be7565b80156114aa5780601f1061147f576101008083540402835291602001916114aa565b820191906000526020600020905b81548152906001019060200180831161148d57829003601f168201915b505050918352505060018201546001600160a01b0316602080830191909152600283018054604080518285028101850182528281529401939283018282801561151c57602002820191906000526020600020905b81546001600160a01b031681526001909101906020018083116114fe575b505050918352505060038201546001600160a01b0390811660208301526004830154811660408301526005830154811660608301526006830154166080820152600782015460a0820152600882015460c0820152600982015460e0820152600a82015461010080830191909152600b830154610120830152600c830154610140830152600d830154610160830152600e83015460ff80821615156101808501529190041615156101a0820152600f909101546101c090910152905083565b6115e26122fe565b60006003805480602002602001604051908101604052809291908181526020016000905b828210156118af578382906000526020600020906012020160405180606001604052908160008201805461163990612be7565b80601f016020809104026020016040519081016040528092919081815260200182805461166590612be7565b80156116b25780601f10611687576101008083540402835291602001916116b2565b820191906000526020600020905b81548152906001019060200180831161169557829003601f168201915b505050918352505060018201546001600160a01b03166020820152604080516102208101825260028401805492909301929091829082906116f290612be7565b80601f016020809104026020016040519081016040528092919081815260200182805461171e90612be7565b801561176b5780601f106117405761010080835404028352916020019161176b565b820191906000526020600020905b81548152906001019060200180831161174e57829003601f168201915b505050918352505060018201546001600160a01b031660208083019190915260028301805460408051828502810185018252828152940193928301828280156117dd57602002820191906000526020600020905b81546001600160a01b031681526001909101906020018083116117bf575b505050918352505060038201546001600160a01b0390811660208084019190915260048401548216604084015260058401548216606084015260068401549091166080830152600783015460a0830152600883015460c0830152600983015460e0830152600a83015461010080840191909152600b840154610120840152600c840154610140840152600d840154610160840152600e84015460ff80821615156101808601529190041615156101a0830152600f909201546101c0909101529152918352506001929092019101611606565b50505050905060005b81518110156119335760008282815181106118d5576118d5612bac565b60200260200101519050846001600160a01b031681602001516001600160a01b0316036119205782828151811061190e5761190e612bac565b60200260200101519350505050919050565b508061192b81612e20565b9150506118b8565b5060405162461bcd60e51b815260206004820152601060248201526f1b585c9ad95d081b9bdd08199bdd5b9960821b6044820152606401610363565b60008281526020819052604090206001015461198a81611f6c565b61120d8383611ffa565b606060006003805480602002602001604051908101604052809291908181526020016000905b82821015611c6357838290600052602060002090601202016040518060600160405290816000820180546119ed90612be7565b80601f0160208091040260200160405190810160405280929190818152602001828054611a1990612be7565b8015611a665780601f10611a3b57610100808354040283529160200191611a66565b820191906000526020600020905b815481529060010190602001808311611a4957829003601f168201915b505050918352505060018201546001600160a01b0316602082015260408051610220810182526002840180549290930192909182908290611aa690612be7565b80601f0160208091040260200160405190810160405280929190818152602001828054611ad290612be7565b8015611b1f5780601f10611af457610100808354040283529160200191611b1f565b820191906000526020600020905b815481529060010190602001808311611b0257829003601f168201915b505050918352505060018201546001600160a01b03166020808301919091526002830180546040805182850281018501825282815294019392830182828015611b9157602002820191906000526020600020905b81546001600160a01b03168152600190910190602001808311611b73575b505050918352505060038201546001600160a01b0390811660208084019190915260048401548216604084015260058401548216606084015260068401549091166080830152600783015460a0830152600883015460c0830152600983015460e0830152600a83015461010080840191909152600b840154610120840152600c840154610140840152600d840154610160840152600e84015460ff80821615156101808601529190041615156101a0830152600f909201546101c09091015291529183525060019290920191016119ba565b505082519293508291505067ffffffffffffffff811115611c8657611c86612515565b604051908082528060200260200182016040528015611ce057816020015b6040805160a08101825260608082526000602080840182905293830181905290820181905260808201528252600019909201910181611ca45790505b50925060005b81811015611e71576000838281518110611d0257611d02612bac565b602002602001015190506000816020015190506000816001600160a01b031663b894300d6040518163ffffffff1660e01b8152600401602060405180830381865afa158015611d55573d6000803e3d6000fd5b505050506040513d601f19601f82011682018060405250810190611d799190612e39565b6001600160a01b031663177927296040518163ffffffff1660e01b8152600401602060405180830381865afa158015611db6573d6000803e3d6000fd5b505050506040513d601f19601f82011682018060405250810190611dda9190612e56565b90506040518060a001604052808460000151815260200184602001516001600160a01b03168152602001611e0d83612115565b8152602001611e228351600f606c1b16151590565b15158152602001611e398351600f60681b16151590565b1515815250878581518110611e5057611e50612bac565b60200260200101819052505050508080611e6990612e20565b915050611ce6565b50505090565b611e7f61205f565b6001600160a01b038116611ee45760405162461bcd60e51b815260206004820152602660248201527f4f776e61626c653a206e6577206f776e657220697320746865207a65726f206160448201526564647265737360d01b6064820152608401610363565b611eed816120b9565b50565b42600255611efd336120b9565b611f0860003361210b565b611eed60008261210b565b611f1d828261131d565b6112b157611f2a81612133565b611f35836020612145565b604051602001611f46929190612e98565b60408051601f198184030181529082905262461bcd60e51b825261036391600401612f0d565b611eed8133611f13565b611f80828261131d565b6112b1576000828152602081815260408083206001600160a01b03851684529091529020805460ff19166001179055611fb63390565b6001600160a01b0316816001600160a01b0316837f2f8788117e7eff1d82e926ec794901d17c78024a50270940304540a733656f0d60405160405180910390a45050565b612004828261131d565b156112b1576000828152602081815260408083206001600160a01b0385168085529252808320805460ff1916905551339285917ff6391f5c32d9c69d2a47ea670b442974b53935d1edc7fd64eb21e047a839171b9190a45050565b6001546001600160a01b031633146112c75760405162461bcd60e51b815260206004820181905260248201527f4f776e61626c653a2063616c6c6572206973206e6f7420746865206f776e65726044820152606401610363565b600180546001600160a01b038381166001600160a01b0319831681179093556040519116919082907f8be0079c531659141344cd1fd0a4f28419497f9722a3daafe3b4186f6b6457e090600090a35050565b6112b18282611f76565b6000612120826122e8565b82516102dc919060301c610fff16612f20565b60606102dc6001600160a01b03831660145b60606000612154836002612f20565b61215f906002612f37565b67ffffffffffffffff81111561217757612177612515565b6040519080825280601f01601f1916602001820160405280156121a1576020820181803683370190505b509050600360fc1b816000815181106121bc576121bc612bac565b60200101906001600160f81b031916908160001a905350600f60fb1b816001815181106121eb576121eb612bac565b60200101906001600160f81b031916908160001a905350600061220f846002612f20565b61221a906001612f37565b90505b6001811115612292576f181899199a1a9b1b9c1cb0b131b232b360811b85600f166010811061224e5761224e612bac565b1a60f81b82828151811061226457612264612bac565b60200101906001600160f81b031916908160001a90535060049490941c9361228b81612f4a565b905061221d565b5083156122e15760405162461bcd60e51b815260206004820181905260248201527f537472696e67733a20686578206c656e67746820696e73756666696369656e746044820152606401610363565b9392505050565b80516000906102dc9060701c60ff16600a613045565b60405180606001604052806060815260200160006001600160a01b031681526020016123d86040518061022001604052806060815260200160006001600160a01b031681526020016060815260200160006001600160a01b0316815260200160006001600160a01b0316815260200160006001600160a01b0316815260200160006001600160a01b0316815260200160008152602001600081526020016000815260200160008152602001600081526020016000815260200160008152602001600015158152602001600015158152602001600081525090565b905290565b828054828255906000526020600020908101928215612432579160200282015b8281111561243257825182546001600160a01b0319166001600160a01b039091161782556020909201916001909101906123fd565b5061243e9291506124d6565b5090565b8280548282559060005260206000209081019282156124325760005260206000209182015b82811115612432578254825591600101919060010190612467565b50805461248e90612be7565b6000825580601f1061249e575050565b601f016020900490600052602060002090810190611eed91906124d6565b5080546000825590600052602060002090810190611eed91905b5b8082111561243e57600081556001016124d7565b6000602082840312156124fd57600080fd5b81356001600160e01b0319811681146122e157600080fd5b634e487b7160e01b600052604160045260246000fd5b604051610220810167ffffffffffffffff8111828210171561254f5761254f612515565b60405290565b604051601f8201601f1916810167ffffffffffffffff8111828210171561257e5761257e612515565b604052919050565b600082601f83011261259757600080fd5b813567ffffffffffffffff8111156125b1576125b1612515565b6125c4601f8201601f1916602001612555565b8181528460208386010111156125d957600080fd5b816020850160208301376000918101602001919091529392505050565b6001600160a01b0381168114611eed57600080fd5b8035612616816125f6565b919050565b600082601f83011261262c57600080fd5b8135602067ffffffffffffffff82111561264857612648612515565b8160051b612657828201612555565b928352848101820192828101908785111561267157600080fd5b83870192505b8483101561269957823561268a816125f6565b82529183019190830190612677565b979650505050505050565b8035801515811461261657600080fd5b6000602082840312156126c657600080fd5b813567ffffffffffffffff808211156126de57600080fd5b9083019061022082860312156126f357600080fd5b6126fb61252b565b82358281111561270a57600080fd5b61271687828601612586565b8252506127256020840161260b565b602082015260408301358281111561273c57600080fd5b6127488782860161261b565b60408301525061275a6060840161260b565b606082015261276b6080840161260b565b608082015261277c60a0840161260b565b60a082015261278d60c0840161260b565b60c082015260e08381013590820152610100808401359082015261012080840135908201526101408084013590820152610160808401359082015261018080840135908201526101a080840135908201526101c091506127ee8284016126a4565b828201526101e091506128028284016126a4565b9181019190915261020091820135918101919091529392505050565b60006020828403121561283057600080fd5b5035919050565b60006020828403121561284957600080fd5b81356122e1816125f6565b6000806040838503121561286757600080fd5b823591506020830135612879816125f6565b809150509250929050565b60005b8381101561289f578181015183820152602001612887565b50506000910152565b600081518084526128c0816020860160208601612884565b601f01601f19169290920160200192915050565b600081518084526020808501945080840160005b8381101561290d5781516001600160a01b0316875295820195908201906001016128e8565b509495945050505050565b6000610220825181855261292e828601826128a8565b915050602083015161294b60208601826001600160a01b03169052565b506040830151848203604086015261296382826128d4565b915050606083015161298060608601826001600160a01b03169052565b50608083015161299b60808601826001600160a01b03169052565b5060a08301516129b660a08601826001600160a01b03169052565b5060c08301516129d160c08601826001600160a01b03169052565b5060e08381015190850152610100808401519085015261012080840151908501526101408084015190850152610160808401519085015261018080840151908501526101a080840151908501526101c0808401511515908501526101e0808401511515908501526102009283015192909301919091525090565b606081526000612a5e60608301866128a8565b6001600160a01b03851660208401528281036040840152612a7f8185612918565b9695505050505050565b602081526000825160606020840152612aa560808401826128a8565b60208501516001600160a01b0316604085810191909152850151848203601f19016060860152909150612ad88282612918565b95945050505050565b60006020808301818452808551808352604092508286019150828160051b87010184880160005b83811015612b7557603f19898403018552815160a08151818652612b2e828701826128a8565b838b01516001600160a01b0316878c0152898401518a8801526060808501511515908801526080938401511515939096019290925250509386019390860190600101612b08565b509098975050505050505050565b634e487b7160e01b600052601160045260246000fd5b818103818111156102dc576102dc612b83565b634e487b7160e01b600052603260045260246000fd5b604081526000612bd560408301856128d4565b8281036020840152612ad881856128a8565b600181811c90821680612bfb57607f821691505b602082108103612c1b57634e487b7160e01b600052602260045260246000fd5b50919050565b601f82111561120d57600081815260208120601f850160051c81016020861015612c485750805b601f850160051c820191505b81811015612c6757828155600101612c54565b505050505050565b815167ffffffffffffffff811115612c8957612c89612515565b612c9d81612c978454612be7565b84612c21565b602080601f831160018114612cd25760008415612cba5750858301515b600019600386901b1c1916600185901b178555612c67565b600085815260208120601f198616915b82811015612d0157888601518255948401946001909101908401612ce2565b5085821015612d1f5787850151600019600388901b60f8161c191681555b5050505050600190811b01905550565b818103612d3a575050565b612d448254612be7565b67ffffffffffffffff811115612d5c57612d5c612515565b612d6a81612c978454612be7565b6000601f821160018114612d9e5760008315612d865750848201545b600019600385901b1c1916600184901b178455612e03565b600085815260209020601f19841690600086815260209020845b83811015612dd85782860154825560019586019590910190602001612db8565b5085831015612df65781850154600019600388901b60f8161c191681555b50505060018360011b0184555b5050505050565b634e487b7160e01b600052603160045260246000fd5b600060018201612e3257612e32612b83565b5060010190565b600060208284031215612e4b57600080fd5b81516122e1816125f6565b600060208284031215612e6857600080fd5b6040516020810181811067ffffffffffffffff82111715612e8b57612e8b612515565b6040529151825250919050565b7f416363657373436f6e74726f6c3a206163636f756e7420000000000000000000815260008351612ed0816017850160208801612884565b7001034b99036b4b9b9b4b733903937b6329607d1b6017918401918201528351612f01816028840160208801612884565b01602801949350505050565b6020815260006122e160208301846128a8565b80820281158282048414176102dc576102dc612b83565b808201808211156102dc576102dc612b83565b600081612f5957612f59612b83565b506000190190565b600181815b80851115612f9c578160001904821115612f8257612f82612b83565b80851615612f8f57918102915b93841c9390800290612f66565b509250929050565b600082612fb3575060016102dc565b81612fc0575060006102dc565b8160018114612fd65760028114612fe057612ffc565b60019150506102dc565b60ff841115612ff157612ff1612b83565b50506001821b6102dc565b5060208310610133831016604e8410600b841016171561301f575081810a6102dc565b6130298383612f61565b806000190482111561303d5761303d612b83565b029392505050565b60006122e18383612fa456fecb58d6d985142a614029cdf01861b4fe094d5919a47e69b8310dc4093d9d6ad0a2646970667358221220593a959bd9fb5a10fba79df00f4fac767a5f562b9bb0dd45b10339825cc6683464736f6c63430008110033",
  "linkReferences": {},
  "deployedLinkReferences": {}
}