{
  "_format": "hh-sol-artifact-1",
  "contractName": "MarketFactory",
  "sourceName": "contracts/market/MarketFactory.sol",
  "abi": [
    {
      "inputs": [],
      "stateMutability": "nonpayable",
      "type": "constructor"
    },
    {
      "anonymous": false,
      "inputs": [
        {
          "indexed": true,
          "internalType": "address",
          "name": "market",
          "type": "address"
        },
        {
          "indexed": false,
          "internalType": "address",
          "name": "marketValid",
          "type": "address"
        },
        {
          "indexed": false,
          "internalType": "address",
          "name": "orderBookLong",
          "type": "address"
        },
        {
          "indexed": false,
          "internalType": "address",
          "name": "orderBookShort",
          "type": "address"
        }
      ],
      "name": "Create",
      "type": "event"
    },
    {
      "anonymous": false,
      "inputs": [
        {
          "indexed": false,
          "internalType": "uint8",
          "name": "version",
          "type": "uint8"
        }
      ],
      "name": "Initialized",
      "type": "event"
    },
    {
      "inputs": [],
      "name": "DEFAULT_ADMIN_ROLE",
      "outputs": [
        {
          "internalType": "bytes32",
          "name": "",
          "type": "bytes32"
        }
      ],
      "stateMutability": "view",
      "type": "function"
    },
    {
      "inputs": [
        {
          "internalType": "address",
          "name": "newOwner",
          "type": "address"
        }
      ],
      "name": "_transferOwnership",
      "outputs": [],
      "stateMutability": "pure",
      "type": "function"
    },
    {
      "inputs": [],
      "name": "allMarketsLength",
      "outputs": [
        {
          "internalType": "uint256",
          "name": "",
          "type": "uint256"
        }
      ],
      "stateMutability": "view",
      "type": "function"
    },
    {
      "inputs": [
        {
          "components": [
            {
              "internalType": "string",
              "name": "_name",
              "type": "string"
            },
            {
              "internalType": "address",
              "name": "_marketAddress",
              "type": "address"
            },
            {
              "internalType": "address[]",
              "name": "addrs",
              "type": "address[]"
            },
            {
              "internalType": "address",
              "name": "_openStoreLong",
              "type": "address"
            },
            {
              "internalType": "address",
              "name": "_closeStoreLong",
              "type": "address"
            },
            {
              "internalType": "address",
              "name": "_openStoreShort",
              "type": "address"
            },
            {
              "internalType": "address",
              "name": "_closeStoreShort",
              "type": "address"
            },
            {
              "internalType": "uint256",
              "name": "_minSlippage",
              "type": "uint256"
            },
            {
              "internalType": "uint256",
              "name": "_maxSlippage",
              "type": "uint256"
            },
            {
              "internalType": "uint256",
              "name": "_minLeverage",
              "type": "uint256"
            },
            {
              "internalType": "uint256",
              "name": "_maxLeverage",
              "type": "uint256"
            },
            {
              "internalType": "uint256",
              "name": "_maxTradeAmount",
              "type": "uint256"
            },
            {
              "internalType": "uint256",
              "name": "_minPay",
              "type": "uint256"
            },
            {
              "internalType": "uint256",
              "name": "_minCollateral",
              "type": "uint256"
            },
            {
              "internalType": "bool",
              "name": "_allowOpen",
              "type": "bool"
            },
            {
              "internalType": "bool",
              "name": "_allowClose",
              "type": "bool"
            },
            {
              "internalType": "uint256",
              "name": "_tokenDigits",
              "type": "uint256"
            }
          ],
          "internalType": "struct IMarketFactory.CreateInputs",
          "name": "_inputs",
          "type": "tuple"
        }
      ],
      "name": "create",
      "outputs": [],
      "stateMutability": "nonpayable",
      "type": "function"
    },
    {
      "inputs": [
        {
          "internalType": "address",
          "name": "_marketAddr",
          "type": "address"
        }
      ],
      "name": "getMarket",
      "outputs": [
        {
          "components": [
            {
              "internalType": "string",
              "name": "name",
              "type": "string"
            },
            {
              "internalType": "address",
              "name": "addr",
              "type": "address"
            },
            {
              "components": [
                {
                  "internalType": "string",
                  "name": "_name",
                  "type": "string"
                },
                {
                  "internalType": "address",
                  "name": "_marketAddress",
                  "type": "address"
                },
                {
                  "internalType": "address[]",
                  "name": "addrs",
                  "type": "address[]"
                },
                {
                  "internalType": "address",
                  "name": "_openStoreLong",
                  "type": "address"
                },
                {
                  "internalType": "address",
                  "name": "_closeStoreLong",
                  "type": "address"
                },
                {
                  "internalType": "address",
                  "name": "_openStoreShort",
                  "type": "address"
                },
                {
                  "internalType": "address",
                  "name": "_closeStoreShort",
                  "type": "address"
                },
                {
                  "internalType": "uint256",
                  "name": "_minSlippage",
                  "type": "uint256"
                },
                {
                  "internalType": "uint256",
                  "name": "_maxSlippage",
                  "type": "uint256"
                },
                {
                  "internalType": "uint256",
                  "name": "_minLeverage",
                  "type": "uint256"
                },
                {
                  "internalType": "uint256",
                  "name": "_maxLeverage",
                  "type": "uint256"
                },
                {
                  "internalType": "uint256",
                  "name": "_maxTradeAmount",
                  "type": "uint256"
                },
                {
                  "internalType": "uint256",
                  "name": "_minPay",
                  "type": "uint256"
                },
                {
                  "internalType": "uint256",
                  "name": "_minCollateral",
                  "type": "uint256"
                },
                {
                  "internalType": "bool",
                  "name": "_allowOpen",
                  "type": "bool"
                },
                {
                  "internalType": "bool",
                  "name": "_allowClose",
                  "type": "bool"
                },
                {
                  "internalType": "uint256",
                  "name": "_tokenDigits",
                  "type": "uint256"
                }
              ],
              "internalType": "struct IMarketFactory.CreateInputs",
              "name": "inputs",
              "type": "tuple"
            }
          ],
          "internalType": "struct IMarketFactory.Props",
          "name": "",
          "type": "tuple"
        }
      ],
      "stateMutability": "view",
      "type": "function"
    },
    {
      "inputs": [],
      "name": "getMarkets",
      "outputs": [
        {
          "components": [
            {
              "internalType": "string",
              "name": "name",
              "type": "string"
            },
            {
              "internalType": "address",
              "name": "addr",
              "type": "address"
            },
            {
              "internalType": "uint256",
              "name": "minPay",
              "type": "uint256"
            },
            {
              "internalType": "bool",
              "name": "allowOpen",
              "type": "bool"
            },
            {
              "internalType": "bool",
              "name": "allowClose",
              "type": "bool"
            }
          ],
          "internalType": "struct IMarketFactory.Outs[]",
          "name": "_outs",
          "type": "tuple[]"
        }
      ],
      "stateMutability": "view",
      "type": "function"
    },
    {
      "inputs": [
        {
          "internalType": "address",
          "name": "_account",
          "type": "address"
        }
      ],
      "name": "grantControllerRoleByMarketManager",
      "outputs": [],
      "stateMutability": "nonpayable",
      "type": "function"
    },
    {
      "inputs": [
        {
          "internalType": "bytes32",
          "name": "role",
          "type": "bytes32"
        },
        {
          "internalType": "address",
          "name": "account",
          "type": "address"
        }
      ],
      "name": "grantRole",
      "outputs": [],
      "stateMutability": "pure",
      "type": "function"
    },
    {
      "inputs": [
        {
          "internalType": "bytes32",
          "name": "role",
          "type": "bytes32"
        },
        {
          "internalType": "address",
          "name": "account",
          "type": "address"
        }
      ],
      "name": "hasRole",
      "outputs": [
        {
          "internalType": "bool",
          "name": "",
          "type": "bool"
        }
      ],
      "stateMutability": "pure",
      "type": "function"
    },
    {
      "inputs": [
        {
          "internalType": "uint256",
          "name": "",
          "type": "uint256"
        }
      ],
      "name": "markets",
      "outputs": [
        {
          "internalType": "string",
          "name": "name",
          "type": "string"
        },
        {
          "internalType": "address",
          "name": "addr",
          "type": "address"
        },
        {
          "components": [
            {
              "internalType": "string",
              "name": "_name",
              "type": "string"
            },
            {
              "internalType": "address",
              "name": "_marketAddress",
              "type": "address"
            },
            {
              "internalType": "address[]",
              "name": "addrs",
              "type": "address[]"
            },
            {
              "internalType": "address",
              "name": "_openStoreLong",
              "type": "address"
            },
            {
              "internalType": "address",
              "name": "_closeStoreLong",
              "type": "address"
            },
            {
              "internalType": "address",
              "name": "_openStoreShort",
              "type": "address"
            },
            {
              "internalType": "address",
              "name": "_closeStoreShort",
              "type": "address"
            },
            {
              "internalType": "uint256",
              "name": "_minSlippage",
              "type": "uint256"
            },
            {
              "internalType": "uint256",
              "name": "_maxSlippage",
              "type": "uint256"
            },
            {
              "internalType": "uint256",
              "name": "_minLeverage",
              "type": "uint256"
            },
            {
              "internalType": "uint256",
              "name": "_maxLeverage",
              "type": "uint256"
            },
            {
              "internalType": "uint256",
              "name": "_maxTradeAmount",
              "type": "uint256"
            },
            {
              "internalType": "uint256",
              "name": "_minPay",
              "type": "uint256"
            },
            {
              "internalType": "uint256",
              "name": "_minCollateral",
              "type": "uint256"
            },
            {
              "internalType": "bool",
              "name": "_allowOpen",
              "type": "bool"
            },
            {
              "internalType": "bool",
              "name": "_allowClose",
              "type": "bool"
            },
            {
              "internalType": "uint256",
              "name": "_tokenDigits",
              "type": "uint256"
            }
          ],
          "internalType": "struct IMarketFactory.CreateInputs",
          "name": "inputs",
          "type": "tuple"
        }
      ],
      "stateMutability": "view",
      "type": "function"
    },
    {
      "inputs": [
        {
          "internalType": "address",
          "name": "_addr",
          "type": "address"
        }
      ],
      "name": "remove",
      "outputs": [],
      "stateMutability": "nonpayable",
      "type": "function"
    },
    {
      "inputs": [
        {
          "internalType": "bytes32",
          "name": "role",
          "type": "bytes32"
        },
        {
          "internalType": "address",
          "name": "account",
          "type": "address"
        }
      ],
      "name": "revokeRole",
      "outputs": [],
      "stateMutability": "pure",
      "type": "function"
    },
    {
      "inputs": [
        {
          "internalType": "address",
          "name": "to",
          "type": "address"
        }
      ],
      "name": "transferAdmin",
      "outputs": [],
      "stateMutability": "nonpayable",
      "type": "function"
    },
    {
      "inputs": [
        {
          "internalType": "address",
          "name": "newOwner",
          "type": "address"
        }
      ],
      "name": "transferOwnership",
      "outputs": [],
      "stateMutability": "pure",
      "type": "function"
    }
  ],
  "bytecode": "0x60806040523480156200001157600080fd5b503362000029816200003060201b62001bb91760201c565b506200003f565b426001556200003c3381565b50565b6128be806200004f6000396000f3fe608060405234801561001057600080fd5b50600436106100ea5760003560e01c8063a217fddf1161008c578063d4dfadbf11610066578063d4dfadbf146101c4578063d547741f14610117578063ec2c9016146101e4578063f2fde38b146101b357600080fd5b8063a217fddf14610189578063b1283e7714610191578063d29d44ee146101b357600080fd5b806375829def116100c857806375829def146101295780637fe4a6981461013c57806388dd46a11461014f57806391d148541461016657600080fd5b80631d532fed146100ef57806329092d0e146101045780632f2ff15d14610117575b600080fd5b6101026100fd366004611f80565b6101f9565b005b6101026101123660046120ea565b610c8f565b61010261012536600461210e565b5050565b6101026101373660046120ea565b611095565b61010261014a3660046120ea565b6101c1565b6002545b6040519081526020015b60405180910390f35b61017961017436600461210e565b6110a0565b604051901515815260200161015d565b610153600081565b6101a461019f36600461213e565b6110a9565b60405161015d93929190612314565b6101026101c13660046120ea565b50565b6101d76101d23660046120ea565b61133d565b60405161015d9190612352565b6101ec6116d6565b60405161015d91906123aa565b7f8d1089725c0dc266707fa6207730fb801dcd03108bfed7a21099bd303651d2b7600082604001516003815181106102335761023361244c565b602090810291909101015160e08401516101008501516101208601516101408701516101608801516101808901516101a08a01516101c08b01516101e08c015160405163d04093d560e01b81526004810199909952602489019790975260448801959095526064870193909352608486019190915260a485015260c4840152151560e4830152151561010482015260126101248201529091506001600160a01b0382169063d04093d59061014401600060405180830381600087803b1580156102fb57600080fd5b505af115801561030f573d6000803e3d6000fd5b505050506000836040015160018151811061032c5761032c61244c565b60209081029190910101516060850151608086015160405163712a2a1160e11b8152600160048201526001600160a01b039283166024820152908216604482015291925082169063e254542290606401600060405180830381600087803b15801561039657600080fd5b505af11580156103aa573d6000803e3d6000fd5b50505050600084604001516002815181106103c7576103c761244c565b602090810291909101015160a086015160c087015160405163712a2a1160e11b8152600060048201526001600160a01b039283166024820152908216604482015291925082169063e254542290606401600060405180830381600087803b15801561043157600080fd5b505af1158015610445573d6000803e3d6000fd5b5050505084604001516000815181106104605761046061244c565b6020908102919091018101519086015160405163189acdbd60e31b81526001600160a01b03918216600482015291169063c4d66de890602401600060405180830381600087803b1580156104b357600080fd5b505af11580156104c7573d6000803e3d6000fd5b505050602086015160408088015188519151633233efe560e01b81526001600160a01b039093169350633233efe5926105039290600401612462565b600060405180830381600087803b15801561051d57600080fd5b505af1158015610531573d6000803e3d6000fd5b5050505061053d611bf4565b855181526020808701516001600160a01b03169082015260028054600181018255600091909152815182916012027f405787fa12a823e0f2b7631cc41b3ba8828b3321ca811111fa75cd3aa3bb5ace0190819061059a908261250f565b5060208201516001820180546001600160a01b0319166001600160a01b0390921691909117905560408201518051600283019081906105d9908261250f565b506020828101516001830180546001600160a01b0319166001600160a01b03909216919091179055604083015180516106189260028501920190611cd3565b5060608201516003820180546001600160a01b03199081166001600160a01b03938416179091556080840151600484018054831691841691909117905560a0840151600584018054831691841691909117905560c0840151600684018054909216921691909117905560e08201516007820155610100808301516008830155610120830151600980840191909155610140840151600a840155610160840151600b840155610180840151600c8401556101a0840151600d8401556101c0840151600e840180546101e087015161ffff1990911692151561ff001916929092179115159093021790915561020090920151600f909101556040890151805190935090915081106107295761072961244c565b60209081029190910181015190870151604051630de1f44360e41b81526001600160a01b0391821660048201526000602482015291169063de1f443090604401600060405180830381600087803b15801561078357600080fd5b505af1158015610797573d6000803e3d6000fd5b5050506060870151604051632f2ff15d60e01b815260008051602061286983398151915260048201526001600160a01b0386811660248301529091169150632f2ff15d9060440160006040518083038186803b1580156107f657600080fd5b505afa15801561080a573d6000803e3d6000fd5b5050506080870151604051632f2ff15d60e01b815260008051602061286983398151915260048201526001600160a01b0386811660248301529091169150632f2ff15d9060440160006040518083038186803b15801561086957600080fd5b505afa15801561087d573d6000803e3d6000fd5b50505060a0870151604051632f2ff15d60e01b815260008051602061286983398151915260048201526001600160a01b0385811660248301529091169150632f2ff15d9060440160006040518083038186803b1580156108dc57600080fd5b505afa1580156108f0573d6000803e3d6000fd5b50505060c0870151604051632f2ff15d60e01b815260008051602061286983398151915260048201526001600160a01b0385811660248301529091169150632f2ff15d9060440160006040518083038186803b15801561094f57600080fd5b505afa158015610963573d6000803e3d6000fd5b50505050856040015160018151811061097e5761097e61244c565b60200260200101516001600160a01b0316632f2ff15d60008051602061286983398151915288602001516040518363ffffffff1660e01b81526004016109d79291909182526001600160a01b0316602082015260400190565b60006040518083038186803b1580156109ef57600080fd5b505afa158015610a03573d6000803e3d6000fd5b505050508560400151600281518110610a1e57610a1e61244c565b60200260200101516001600160a01b0316632f2ff15d60008051602061286983398151915288602001516040518363ffffffff1660e01b8152600401610a779291909182526001600160a01b0316602082015260400190565b60006040518083038186803b158015610a8f57600080fd5b505afa158015610aa3573d6000803e3d6000fd5b505050508560400151600081518110610abe57610abe61244c565b60200260200101516001600160a01b0316632f2ff15d60008051602061286983398151915288602001516040518363ffffffff1660e01b8152600401610b179291909182526001600160a01b0316602082015260400190565b60006040518083038186803b158015610b2f57600080fd5b505afa158015610b43573d6000803e3d6000fd5b5050505085602001516001600160a01b0316632f2ff15d6000805160206128698339815191528860400151600981518110610b8057610b8061244c565b60200260200101516040518363ffffffff1660e01b8152600401610bb79291909182526001600160a01b0316602082015260400190565b60006040518083038186803b158015610bcf57600080fd5b505afa158015610be3573d6000803e3d6000fd5b505050508560400151600881518110610bfe57610bfe61244c565b60200260200101516001600160a01b0316632f2ff15d60008051602061286983398151915288602001516040518363ffffffff1660e01b8152600401610c579291909182526001600160a01b0316602082015260400190565b60006040518083038186803b158015610c6f57600080fd5b505afa158015610c83573d6000803e3d6000fd5b50505050505050505050565b7f8d1089725c0dc266707fa6207730fb801dcd03108bfed7a21099bd303651d2b760005b60025481101561109057826001600160a01b031660028281548110610cda57610cda61244c565b60009182526020909120600160129092020101546001600160a01b03160361107e57600254610d0b906001906125e5565b811015610ee05760028054610d22906001906125e5565b81548110610d3257610d3261244c565b906000526020600020906012020160028281548110610d5357610d5361244c565b6000918252602090912060129091020180610d6e83826125f8565b5060018281015490820180546001600160a01b0319166001600160a01b03909216919091179055600280830190820180610da883826125f8565b5060018281015490820180546001600160a01b0319166001600160a01b0390921691909117905560028083018054610de39284019190611d38565b5060038281015490820180546001600160a01b03199081166001600160a01b0393841617909155600480850154908401805483169184169190911790556005808501549084018054831691841691909117905560068085015490840180549092169216919091179055600780830154908201556008808301549082015560098083015490820155600a8083015490820155600b8083015490820155600c8083015490820155600d8083015490820155600e8083018054918301805460ff938416151560ff19821681178355925461010090819004909416151590930261ff001990921661ffff1990931692909217179055600f9182015491015550505b600060028281548110610ef557610ef561244c565b9060005260206000209060120201600201600201600981548110610f1b57610f1b61244c565b600091825260209091200154604051636dc8991b60e11b81526001600160a01b0386811660048301529091169150819063db91323690602401600060405180830381600087803b158015610f6e57600080fd5b505af1158015610f82573d6000803e3d6000fd5b505050506002805480610f9757610f976126d3565b60008281526020812060001990920191601283020190610fb78282611d78565b6001820180546001600160a01b0319169055600282016000610fd98282611d78565b6001820180546001600160a01b0319169055610ff9600283016000611db2565b506003810180546001600160a01b0319908116909155600482018054821690556005820180548216905560068201805490911690556000600782018190556008820181905560098201819055600a8201819055600b8201819055600c8201819055600d8201819055600e8201805461ffff19169055600f909101555050905550505050565b80611088816126e9565b915050610cb3565b505050565b600061012560003382565b60015b92915050565b600281815481106110b957600080fd5b90600052602060002090601202016000915090508060000180546110dc90612487565b80601f016020809104026020016040519081016040528092919081815260200182805461110890612487565b80156111555780601f1061112a57610100808354040283529160200191611155565b820191906000526020600020905b81548152906001019060200180831161113857829003601f168201915b5050505050908060010160009054906101000a90046001600160a01b031690806002016040518061022001604052908160008201805461119490612487565b80601f01602080910402602001604051908101604052809291908181526020018280546111c090612487565b801561120d5780601f106111e25761010080835404028352916020019161120d565b820191906000526020600020905b8154815290600101906020018083116111f057829003601f168201915b505050918352505060018201546001600160a01b0316602080830191909152600283018054604080518285028101850182528281529401939283018282801561127f57602002820191906000526020600020905b81546001600160a01b03168152600190910190602001808311611261575b505050918352505060038201546001600160a01b0390811660208301526004830154811660408301526005830154811660608301526006830154166080820152600782015460a0820152600882015460c0820152600982015460e0820152600a82015461010080830191909152600b830154610120830152600c830154610140830152600d830154610160830152600e83015460ff80821615156101808501529190041615156101a0820152600f909101546101c090910152905083565b611345611bf4565b60006002805480602002602001604051908101604052809291908181526020016000905b82821015611612578382906000526020600020906012020160405180606001604052908160008201805461139c90612487565b80601f01602080910402602001604051908101604052809291908181526020018280546113c890612487565b80156114155780601f106113ea57610100808354040283529160200191611415565b820191906000526020600020905b8154815290600101906020018083116113f857829003601f168201915b505050918352505060018201546001600160a01b031660208201526040805161022081018252600284018054929093019290918290829061145590612487565b80601f016020809104026020016040519081016040528092919081815260200182805461148190612487565b80156114ce5780601f106114a3576101008083540402835291602001916114ce565b820191906000526020600020905b8154815290600101906020018083116114b157829003601f168201915b505050918352505060018201546001600160a01b0316602080830191909152600283018054604080518285028101850182528281529401939283018282801561154057602002820191906000526020600020905b81546001600160a01b03168152600190910190602001808311611522575b505050918352505060038201546001600160a01b0390811660208084019190915260048401548216604084015260058401548216606084015260068401549091166080830152600783015460a0830152600883015460c0830152600983015460e0830152600a83015461010080840191909152600b840154610120840152600c840154610140840152600d840154610160840152600e84015460ff80821615156101808601529190041615156101a0830152600f909201546101c0909101529152918352506001929092019101611369565b50505050905060005b81518110156116965760008282815181106116385761163861244c565b60200260200101519050846001600160a01b031681602001516001600160a01b031603611683578282815181106116715761167161244c565b60200260200101519350505050919050565b508061168e816126e9565b91505061161b565b5060405162461bcd60e51b815260206004820152601060248201526f1b585c9ad95d081b9bdd08199bdd5b9960821b604482015260640160405180910390fd5b606060006002805480602002602001604051908101604052809291908181526020016000905b828210156119a5578382906000526020600020906012020160405180606001604052908160008201805461172f90612487565b80601f016020809104026020016040519081016040528092919081815260200182805461175b90612487565b80156117a85780601f1061177d576101008083540402835291602001916117a8565b820191906000526020600020905b81548152906001019060200180831161178b57829003601f168201915b505050918352505060018201546001600160a01b03166020820152604080516102208101825260028401805492909301929091829082906117e890612487565b80601f016020809104026020016040519081016040528092919081815260200182805461181490612487565b80156118615780601f1061183657610100808354040283529160200191611861565b820191906000526020600020905b81548152906001019060200180831161184457829003601f168201915b505050918352505060018201546001600160a01b031660208083019190915260028301805460408051828502810185018252828152940193928301828280156118d357602002820191906000526020600020905b81546001600160a01b031681526001909101906020018083116118b5575b505050918352505060038201546001600160a01b0390811660208084019190915260048401548216604084015260058401548216606084015260068401549091166080830152600783015460a0830152600883015460c0830152600983015460e0830152600a83015461010080840191909152600b840154610120840152600c840154610140840152600d840154610160840152600e84015460ff80821615156101808601529190041615156101a0830152600f909201546101c09091015291529183525060019290920191016116fc565b505082519293508291505067ffffffffffffffff8111156119c8576119c8611de1565b604051908082528060200260200182016040528015611a2257816020015b6040805160a081018252606080825260006020808401829052938301819052908201819052608082015282526000199092019101816119e65790505b50925060005b81811015611bb3576000838281518110611a4457611a4461244c565b602002602001015190506000816020015190506000816001600160a01b031663b894300d6040518163ffffffff1660e01b8152600401602060405180830381865afa158015611a97573d6000803e3d6000fd5b505050506040513d601f19601f82011682018060405250810190611abb9190612702565b6001600160a01b031663177927296040518163ffffffff1660e01b8152600401602060405180830381865afa158015611af8573d6000803e3d6000fd5b505050506040513d601f19601f82011682018060405250810190611b1c919061271f565b90506040518060a001604052808460000151815260200184602001516001600160a01b03168152602001611b4f83611bc0565b8152602001611b648351600f606c1b16151590565b15158152602001611b7b8351600f60681b16151590565b1515815250878581518110611b9257611b9261244c565b60200260200101819052505050508080611bab906126e9565b915050611a28565b50505090565b4260015550565b6000611bcb82611bde565b82516110a3919060301c610fff16612761565b80516000906110a39060701c60ff16600a61285c565b60405180606001604052806060815260200160006001600160a01b03168152602001611cce6040518061022001604052806060815260200160006001600160a01b031681526020016060815260200160006001600160a01b0316815260200160006001600160a01b0316815260200160006001600160a01b0316815260200160006001600160a01b0316815260200160008152602001600081526020016000815260200160008152602001600081526020016000815260200160008152602001600015158152602001600015158152602001600081525090565b905290565b828054828255906000526020600020908101928215611d28579160200282015b82811115611d2857825182546001600160a01b0319166001600160a01b03909116178255602090920191600190910190611cf3565b50611d34929150611dcc565b5090565b828054828255906000526020600020908101928215611d285760005260206000209182015b82811115611d28578254825591600101919060010190611d5d565b508054611d8490612487565b6000825580601f10611d94575050565b601f0160209004906000526020600020908101906101c19190611dcc565b50805460008255906000526020600020908101906101c191905b5b80821115611d345760008155600101611dcd565b634e487b7160e01b600052604160045260246000fd5b604051610220810167ffffffffffffffff81118282101715611e1b57611e1b611de1565b60405290565b604051601f8201601f1916810167ffffffffffffffff81118282101715611e4a57611e4a611de1565b604052919050565b600082601f830112611e6357600080fd5b813567ffffffffffffffff811115611e7d57611e7d611de1565b611e90601f8201601f1916602001611e21565b818152846020838601011115611ea557600080fd5b816020850160208301376000918101602001919091529392505050565b6001600160a01b03811681146101c157600080fd5b8035611ee281611ec2565b919050565b600082601f830112611ef857600080fd5b8135602067ffffffffffffffff821115611f1457611f14611de1565b8160051b611f23828201611e21565b9283528481018201928281019087851115611f3d57600080fd5b83870192505b84831015611f65578235611f5681611ec2565b82529183019190830190611f43565b979650505050505050565b80358015158114611ee257600080fd5b600060208284031215611f9257600080fd5b813567ffffffffffffffff80821115611faa57600080fd5b908301906102208286031215611fbf57600080fd5b611fc7611df7565b823582811115611fd657600080fd5b611fe287828601611e52565b825250611ff160208401611ed7565b602082015260408301358281111561200857600080fd5b61201487828601611ee7565b60408301525061202660608401611ed7565b606082015261203760808401611ed7565b608082015261204860a08401611ed7565b60a082015261205960c08401611ed7565b60c082015260e08381013590820152610100808401359082015261012080840135908201526101408084013590820152610160808401359082015261018080840135908201526101a080840135908201526101c091506120ba828401611f70565b828201526101e091506120ce828401611f70565b9181019190915261020091820135918101919091529392505050565b6000602082840312156120fc57600080fd5b813561210781611ec2565b9392505050565b6000806040838503121561212157600080fd5b82359150602083013561213381611ec2565b809150509250929050565b60006020828403121561215057600080fd5b5035919050565b6000815180845260005b8181101561217d57602081850181015186830182015201612161565b506000602082860101526020601f19601f83011685010191505092915050565b600081518084526020808501945080840160005b838110156121d65781516001600160a01b0316875295820195908201906001016121b1565b509495945050505050565b600061022082518185526121f782860182612157565b915050602083015161221460208601826001600160a01b03169052565b506040830151848203604086015261222c828261219d565b915050606083015161224960608601826001600160a01b03169052565b50608083015161226460808601826001600160a01b03169052565b5060a083015161227f60a08601826001600160a01b03169052565b5060c083015161229a60c08601826001600160a01b03169052565b5060e08381015190850152610100808401519085015261012080840151908501526101408084015190850152610160808401519085015261018080840151908501526101a080840151908501526101c0808401511515908501526101e0808401511515908501526102009283015192909301919091525090565b6060815260006123276060830186612157565b6001600160a01b0385166020840152828103604084015261234881856121e1565b9695505050505050565b60208152600082516060602084015261236e6080840182612157565b60208501516001600160a01b0316604085810191909152850151848203601f190160608601529091506123a182826121e1565b95945050505050565b60006020808301818452808551808352604092508286019150828160051b87010184880160005b8381101561243e57603f19898403018552815160a081518186526123f782870182612157565b838b01516001600160a01b0316878c0152898401518a88015260608085015115159088015260809384015115159390960192909252505093860193908601906001016123d1565b509098975050505050505050565b634e487b7160e01b600052603260045260246000fd5b604081526000612475604083018561219d565b82810360208401526123a18185612157565b600181811c9082168061249b57607f821691505b6020821081036124bb57634e487b7160e01b600052602260045260246000fd5b50919050565b601f82111561109057600081815260208120601f850160051c810160208610156124e85750805b601f850160051c820191505b81811015612507578281556001016124f4565b505050505050565b815167ffffffffffffffff81111561252957612529611de1565b61253d816125378454612487565b846124c1565b602080601f831160018114612572576000841561255a5750858301515b600019600386901b1c1916600185901b178555612507565b600085815260208120601f198616915b828110156125a157888601518255948401946001909101908401612582565b50858210156125bf5787850151600019600388901b60f8161c191681555b5050505050600190811b01905550565b634e487b7160e01b600052601160045260246000fd5b818103818111156110a3576110a36125cf565b818103612603575050565b61260d8254612487565b67ffffffffffffffff81111561262557612625611de1565b612633816125378454612487565b6000601f821160018114612667576000831561264f5750848201545b600019600385901b1c1916600184901b1784556126cc565b600085815260209020601f19841690600086815260209020845b838110156126a15782860154825560019586019590910190602001612681565b50858310156126bf5781850154600019600388901b60f8161c191681555b50505060018360011b0184555b5050505050565b634e487b7160e01b600052603160045260246000fd5b6000600182016126fb576126fb6125cf565b5060010190565b60006020828403121561271457600080fd5b815161210781611ec2565b60006020828403121561273157600080fd5b6040516020810181811067ffffffffffffffff8211171561275457612754611de1565b6040529151825250919050565b80820281158282048414176110a3576110a36125cf565b600181815b808511156127b3578160001904821115612799576127996125cf565b808516156127a657918102915b93841c939080029061277d565b509250929050565b6000826127ca575060016110a3565b816127d7575060006110a3565b81600181146127ed57600281146127f757612813565b60019150506110a3565b60ff841115612808576128086125cf565b50506001821b6110a3565b5060208310610133831016604e8410600b8410161715612836575081810a6110a3565b6128408383612778565b8060001904821115612854576128546125cf565b029392505050565b600061210783836127bb56fecb58d6d985142a614029cdf01861b4fe094d5919a47e69b8310dc4093d9d6ad0a2646970667358221220fa4c146fff1779e4bb2260fabf6592eb0a998a629ac905de8fca7b8b4eb57fd464736f6c63430008110033",
  "linkReferences": {},
  "deployedLinkReferences": {}
}