{
  "_format": "hh-sol-artifact-1",
  "contractName": "USDC",
  "sourceName": "contracts/vault/USDC.sol",
  "abi": [
    {
      "inputs": [
        {
          "internalType": "string",
          "name": "_name",
          "type": "string"
        },
        {
          "internalType": "string",
          "name": "_symbol",
          "type": "string"
        },
        {
          "internalType": "uint256",
          "name": "initialSupply",
          "type": "uint256"
        }
      ],
      "stateMutability": "nonpayable",
      "type": "constructor"
    },
    {
      "anonymous": false,
      "inputs": [
        {
          "indexed": true,
          "internalType": "address",
          "name": "owner",
          "type": "address"
        },
        {
          "indexed": true,
          "internalType": "address",
          "name": "spender",
          "type": "address"
        },
        {
          "indexed": false,
          "internalType": "uint256",
          "name": "value",
          "type": "uint256"
        }
      ],
      "name": "Approval",
      "type": "event"
    },
    {
      "anonymous": false,
      "inputs": [
        {
          "indexed": true,
          "internalType": "bytes32",
          "name": "role",
          "type": "bytes32"
        },
        {
          "indexed": true,
          "internalType": "bytes32",
          "name": "previousAdminRole",
          "type": "bytes32"
        },
        {
          "indexed": true,
          "internalType": "bytes32",
          "name": "newAdminRole",
          "type": "bytes32"
        }
      ],
      "name": "RoleAdminChanged",
      "type": "event"
    },
    {
      "anonymous": false,
      "inputs": [
        {
          "indexed": true,
          "internalType": "bytes32",
          "name": "role",
          "type": "bytes32"
        },
        {
          "indexed": true,
          "internalType": "address",
          "name": "account",
          "type": "address"
        },
        {
          "indexed": true,
          "internalType": "address",
          "name": "sender",
          "type": "address"
        }
      ],
      "name": "RoleGranted",
      "type": "event"
    },
    {
      "anonymous": false,
      "inputs": [
        {
          "indexed": true,
          "internalType": "bytes32",
          "name": "role",
          "type": "bytes32"
        },
        {
          "indexed": true,
          "internalType": "address",
          "name": "account",
          "type": "address"
        },
        {
          "indexed": true,
          "internalType": "address",
          "name": "sender",
          "type": "address"
        }
      ],
      "name": "RoleRevoked",
      "type": "event"
    },
    {
      "anonymous": false,
      "inputs": [
        {
          "indexed": true,
          "internalType": "address",
          "name": "from",
          "type": "address"
        },
        {
          "indexed": true,
          "internalType": "address",
          "name": "to",
          "type": "address"
        },
        {
          "indexed": false,
          "internalType": "uint256",
          "name": "value",
          "type": "uint256"
        }
      ],
      "name": "Transfer",
      "type": "event"
    },
    {
      "inputs": [],
      "name": "DEFAULT_ADMIN_ROLE",
      "outputs": [
        {
          "internalType": "bytes32",
          "name": "",
          "type": "bytes32"
        }
      ],
      "stateMutability": "view",
      "type": "function"
    },
    {
      "inputs": [],
      "name": "DOMAIN_SEPARATOR",
      "outputs": [
        {
          "internalType": "bytes32",
          "name": "",
          "type": "bytes32"
        }
      ],
      "stateMutability": "view",
      "type": "function"
    },
    {
      "inputs": [],
      "name": "MINTER_ROLE",
      "outputs": [
        {
          "internalType": "bytes32",
          "name": "",
          "type": "bytes32"
        }
      ],
      "stateMutability": "view",
      "type": "function"
    },
    {
      "inputs": [
        {
          "internalType": "address",
          "name": "owner",
          "type": "address"
        },
        {
          "internalType": "address",
          "name": "spender",
          "type": "address"
        }
      ],
      "name": "allowance",
      "outputs": [
        {
          "internalType": "uint256",
          "name": "",
          "type": "uint256"
        }
      ],
      "stateMutability": "view",
      "type": "function"
    },
    {
      "inputs": [
        {
          "internalType": "address",
          "name": "spender",
          "type": "address"
        },
        {
          "internalType": "uint256",
          "name": "amount",
          "type": "uint256"
        }
      ],
      "name": "approve",
      "outputs": [
        {
          "internalType": "bool",
          "name": "",
          "type": "bool"
        }
      ],
      "stateMutability": "nonpayable",
      "type": "function"
    },
    {
      "inputs": [
        {
          "internalType": "address",
          "name": "account",
          "type": "address"
        }
      ],
      "name": "balanceOf",
      "outputs": [
        {
          "internalType": "uint256",
          "name": "",
          "type": "uint256"
        }
      ],
      "stateMutability": "view",
      "type": "function"
    },
    {
      "inputs": [
        {
          "internalType": "address[]",
          "name": "tos",
          "type": "address[]"
        },
        {
          "internalType": "uint256",
          "name": "amount",
          "type": "uint256"
        }
      ],
      "name": "batchMint",
      "outputs": [],
      "stateMutability": "nonpayable",
      "type": "function"
    },
    {
      "inputs": [
        {
          "internalType": "uint256",
          "name": "amount",
          "type": "uint256"
        }
      ],
      "name": "burn",
      "outputs": [],
      "stateMutability": "nonpayable",
      "type": "function"
    },
    {
      "inputs": [
        {
          "internalType": "address",
          "name": "to",
          "type": "address"
        },
        {
          "internalType": "uint256",
          "name": "amount",
          "type": "uint256"
        }
      ],
      "name": "burn",
      "outputs": [],
      "stateMutability": "nonpayable",
      "type": "function"
    },
    {
      "inputs": [
        {
          "internalType": "address",
          "name": "account",
          "type": "address"
        },
        {
          "internalType": "uint256",
          "name": "amount",
          "type": "uint256"
        }
      ],
      "name": "burnFrom",
      "outputs": [],
      "stateMutability": "nonpayable",
      "type": "function"
    },
    {
      "inputs": [],
      "name": "decimals",
      "outputs": [
        {
          "internalType": "uint8",
          "name": "",
          "type": "uint8"
        }
      ],
      "stateMutability": "view",
      "type": "function"
    },
    {
      "inputs": [
        {
          "internalType": "address",
          "name": "spender",
          "type": "address"
        },
        {
          "internalType": "uint256",
          "name": "subtractedValue",
          "type": "uint256"
        }
      ],
      "name": "decreaseAllowance",
      "outputs": [
        {
          "internalType": "bool",
          "name": "",
          "type": "bool"
        }
      ],
      "stateMutability": "nonpayable",
      "type": "function"
    },
    {
      "inputs": [],
      "name": "faucet",
      "outputs": [],
      "stateMutability": "nonpayable",
      "type": "function"
    },
    {
      "inputs": [
        {
          "internalType": "bytes32",
          "name": "role",
          "type": "bytes32"
        }
      ],
      "name": "getRoleAdmin",
      "outputs": [
        {
          "internalType": "bytes32",
          "name": "",
          "type": "bytes32"
        }
      ],
      "stateMutability": "view",
      "type": "function"
    },
    {
      "inputs": [
        {
          "internalType": "bytes32",
          "name": "role",
          "type": "bytes32"
        },
        {
          "internalType": "address",
          "name": "account",
          "type": "address"
        }
      ],
      "name": "grantRole",
      "outputs": [],
      "stateMutability": "nonpayable",
      "type": "function"
    },
    {
      "inputs": [
        {
          "internalType": "bytes32",
          "name": "role",
          "type": "bytes32"
        },
        {
          "internalType": "address",
          "name": "account",
          "type": "address"
        }
      ],
      "name": "hasRole",
      "outputs": [
        {
          "internalType": "bool",
          "name": "",
          "type": "bool"
        }
      ],
      "stateMutability": "view",
      "type": "function"
    },
    {
      "inputs": [
        {
          "internalType": "address",
          "name": "spender",
          "type": "address"
        },
        {
          "internalType": "uint256",
          "name": "addedValue",
          "type": "uint256"
        }
      ],
      "name": "increaseAllowance",
      "outputs": [
        {
          "internalType": "bool",
          "name": "",
          "type": "bool"
        }
      ],
      "stateMutability": "nonpayable",
      "type": "function"
    },
    {
      "inputs": [
        {
          "internalType": "address",
          "name": "",
          "type": "address"
        }
      ],
      "name": "lastFaucetAt",
      "outputs": [
        {
          "internalType": "uint256",
          "name": "",
          "type": "uint256"
        }
      ],
      "stateMutability": "view",
      "type": "function"
    },
    {
      "inputs": [
        {
          "internalType": "address",
          "name": "to",
          "type": "address"
        },
        {
          "internalType": "uint256",
          "name": "amount",
          "type": "uint256"
        }
      ],
      "name": "mint",
      "outputs": [],
      "stateMutability": "nonpayable",
      "type": "function"
    },
    {
      "inputs": [],
      "name": "name",
      "outputs": [
        {
          "internalType": "string",
          "name": "",
          "type": "string"
        }
      ],
      "stateMutability": "view",
      "type": "function"
    },
    {
      "inputs": [
        {
          "internalType": "address",
          "name": "owner",
          "type": "address"
        }
      ],
      "name": "nonces",
      "outputs": [
        {
          "internalType": "uint256",
          "name": "",
          "type": "uint256"
        }
      ],
      "stateMutability": "view",
      "type": "function"
    },
    {
      "inputs": [
        {
          "internalType": "address",
          "name": "owner",
          "type": "address"
        },
        {
          "internalType": "address",
          "name": "spender",
          "type": "address"
        },
        {
          "internalType": "uint256",
          "name": "value",
          "type": "uint256"
        },
        {
          "internalType": "uint256",
          "name": "deadline",
          "type": "uint256"
        },
        {
          "internalType": "uint8",
          "name": "v",
          "type": "uint8"
        },
        {
          "internalType": "bytes32",
          "name": "r",
          "type": "bytes32"
        },
        {
          "internalType": "bytes32",
          "name": "s",
          "type": "bytes32"
        }
      ],
      "name": "permit",
      "outputs": [],
      "stateMutability": "nonpayable",
      "type": "function"
    },
    {
      "inputs": [
        {
          "internalType": "bytes32",
          "name": "role",
          "type": "bytes32"
        },
        {
          "internalType": "address",
          "name": "account",
          "type": "address"
        }
      ],
      "name": "renounceRole",
      "outputs": [],
      "stateMutability": "nonpayable",
      "type": "function"
    },
    {
      "inputs": [
        {
          "internalType": "bytes32",
          "name": "role",
          "type": "bytes32"
        },
        {
          "internalType": "address",
          "name": "account",
          "type": "address"
        }
      ],
      "name": "revokeRole",
      "outputs": [],
      "stateMutability": "nonpayable",
      "type": "function"
    },
    {
      "inputs": [
        {
          "internalType": "bytes4",
          "name": "interfaceId",
          "type": "bytes4"
        }
      ],
      "name": "supportsInterface",
      "outputs": [
        {
          "internalType": "bool",
          "name": "",
          "type": "bool"
        }
      ],
      "stateMutability": "view",
      "type": "function"
    },
    {
      "inputs": [],
      "name": "symbol",
      "outputs": [
        {
          "internalType": "string",
          "name": "",
          "type": "string"
        }
      ],
      "stateMutability": "view",
      "type": "function"
    },
    {
      "inputs": [],
      "name": "totalSupply",
      "outputs": [
        {
          "internalType": "uint256",
          "name": "",
          "type": "uint256"
        }
      ],
      "stateMutability": "view",
      "type": "function"
    },
    {
      "inputs": [
        {
          "internalType": "address",
          "name": "to",
          "type": "address"
        },
        {
          "internalType": "uint256",
          "name": "amount",
          "type": "uint256"
        }
      ],
      "name": "transfer",
      "outputs": [
        {
          "internalType": "bool",
          "name": "",
          "type": "bool"
        }
      ],
      "stateMutability": "nonpayable",
      "type": "function"
    },
    {
      "inputs": [
        {
          "internalType": "address",
          "name": "from",
          "type": "address"
        },
        {
          "internalType": "address",
          "name": "to",
          "type": "address"
        },
        {
          "internalType": "uint256",
          "name": "amount",
          "type": "uint256"
        }
      ],
      "name": "transferFrom",
      "outputs": [
        {
          "internalType": "bool",
          "name": "",
          "type": "bool"
        }
      ],
      "stateMutability": "nonpayable",
      "type": "function"
    }
  ],
  "bytecode": "0x6101406040523480156200001257600080fd5b50604051620020173803806200201783398101604081905262000035916200039a565b6040805180820190915260018152603160f81b602082015283908190818560036200006183826200049b565b5060046200007082826200049b565b5050825160209384012082519284019290922060e08390526101008190524660a0818152604080517f8b73c3c69bb8fe3d512ecc4cf759cc79239f7b179b0ffacaa9a75d522b39400f818901819052818301979097526060810194909452608080850193909352308483018190528151808603909301835260c0948501909152815191909601209052929092526101205250620001109050338262000152565b6200011d60003362000219565b620001497f9f2df0fed2c77648de5860a4cc508cd0818c85b8b8a1ab4ceeef8d981c8956a63362000219565b50505062000589565b6001600160a01b038216620001ad5760405162461bcd60e51b815260206004820152601f60248201527f45524332303a206d696e7420746f20746865207a65726f206164647265737300604482015260640160405180910390fd5b8060026000828254620001c1919062000567565b90915550506001600160a01b038216600081815260208181526040808320805486019055518481527fddf252ad1be2c89b69c2b068fc378daa952ba7f163c4a11628f55a4df523b3ef910160405180910390a35b5050565b620002258282620002a8565b620002155760008281526005602090815260408083206001600160a01b03851684529091529020805460ff191660011790556200025f3390565b6001600160a01b0316816001600160a01b0316837f2f8788117e7eff1d82e926ec794901d17c78024a50270940304540a733656f0d60405160405180910390a45050565b505050565b60008281526005602090815260408083206001600160a01b038516845290915290205460ff165b92915050565b634e487b7160e01b600052604160045260246000fd5b600082601f830112620002fd57600080fd5b81516001600160401b03808211156200031a576200031a620002d5565b604051601f8301601f19908116603f01168101908282118183101715620003455762000345620002d5565b816040528381526020925086838588010111156200036257600080fd5b600091505b8382101562000386578582018301518183018401529082019062000367565b600093810190920192909252949350505050565b600080600060608486031215620003b057600080fd5b83516001600160401b0380821115620003c857600080fd5b620003d687838801620002eb565b94506020860151915080821115620003ed57600080fd5b50620003fc86828701620002eb565b925050604084015190509250925092565b600181811c908216806200042257607f821691505b6020821081036200044357634e487b7160e01b600052602260045260246000fd5b50919050565b601f821115620002a357600081815260208120601f850160051c81016020861015620004725750805b601f850160051c820191505b8181101562000493578281556001016200047e565b505050505050565b81516001600160401b03811115620004b757620004b7620002d5565b620004cf81620004c884546200040d565b8462000449565b602080601f831160018114620005075760008415620004ee5750858301515b600019600386901b1c1916600185901b17855562000493565b600085815260208120601f198616915b82811015620005385788860151825594840194600190910190840162000517565b5085821015620005575787850151600019600388901b60f8161c191681555b5050505050600190811b01905550565b80820180821115620002cf57634e487b7160e01b600052601160045260246000fd5b60805160a05160c05160e0516101005161012051611a3e620005d96000396000610e3301526000610e8201526000610e5d01526000610db601526000610de001526000610e0a0152611a3e6000f3fe608060405234801561001057600080fd5b50600436106101cf5760003560e01c806370a0823111610104578063a217fddf116100a2578063d539139311610071578063d5391393146103d5578063d547741f146103fc578063dd62ed3e1461040f578063de5f72fd1461042257600080fd5b8063a217fddf14610394578063a457c2d71461039c578063a9059cbb146103af578063d505accf146103c257600080fd5b806383b74baa116100de57806383b74baa1461035357806391d148541461036657806395d89b41146103795780639dc29fac1461038157600080fd5b806370a082311461030457806379cc67901461032d5780637ecebe001461034057600080fd5b80632f2ff15d1161017157806336568abe1161014b57806336568abe146102b857806339509351146102cb57806340c10f19146102de57806342966c68146102f157600080fd5b80632f2ff15d1461028c578063313ce567146102a15780633644e515146102b057600080fd5b806318160ddd116101ad57806318160ddd1461022457806323b872dd14610236578063248a9ca3146102495780632681616e1461026c57600080fd5b806301ffc9a7146101d457806306fdde03146101fc578063095ea7b314610211575b600080fd5b6101e76101e23660046115e2565b61042a565b60405190151581526020015b60405180910390f35b610204610461565b6040516101f39190611630565b6101e761021f36600461167f565b6104f3565b6002545b6040519081526020016101f3565b6101e76102443660046116a9565b61050b565b6102286102573660046116e5565b60009081526005602052604090206001015490565b61022861027a3660046116fe565b60086020526000908152604090205481565b61029f61029a366004611719565b61052f565b005b604051600681526020016101f3565b610228610559565b61029f6102c6366004611719565b610568565b6101e76102d936600461167f565b6105eb565b61029f6102ec36600461167f565b61060d565b61029f6102ff3660046116e5565b610617565b6102286103123660046116fe565b6001600160a01b031660009081526020819052604090205490565b61029f61033b36600461167f565b610624565b61022861034e3660046116fe565b610639565b61029f61036136600461175b565b610657565b6101e7610374366004611719565b61069e565b6102046106c9565b61029f61038f36600461167f565b6106d8565b610228600081565b6101e76103aa36600461167f565b61070c565b6101e76103bd36600461167f565b610787565b61029f6103d0366004611826565b610795565b6102287f9f2df0fed2c77648de5860a4cc508cd0818c85b8b8a1ab4ceeef8d981c8956a681565b61029f61040a366004611719565b6108f9565b61022861041d366004611899565b61091e565b61029f610949565b60006001600160e01b03198216637965db0b60e01b148061045b57506301ffc9a760e01b6001600160e01b03198316145b92915050565b606060038054610470906118c3565b80601f016020809104026020016040519081016040528092919081815260200182805461049c906118c3565b80156104e95780601f106104be576101008083540402835291602001916104e9565b820191906000526020600020905b8154815290600101906020018083116104cc57829003601f168201915b5050505050905090565b6000336105018185856109d7565b5060019392505050565b600033610519858285610afb565b610524858585610b75565b506001949350505050565b60008281526005602052604090206001015461054a81610d19565b6105548383610d23565b505050565b6000610563610da9565b905090565b6001600160a01b03811633146105dd5760405162461bcd60e51b815260206004820152602f60248201527f416363657373436f6e74726f6c3a2063616e206f6e6c792072656e6f756e636560448201526e103937b632b9903337b91039b2b63360891b60648201526084015b60405180910390fd5b6105e78282610ed0565b5050565b6000336105018185856105fe838361091e565b610608919061190d565b6109d7565b6105e78282610f37565b6106213382610ff6565b50565b61062f823383610afb565b6105e78282610ff6565b6001600160a01b03811660009081526006602052604081205461045b565b60005b825181101561055457600083828151811061067757610677611920565b6020026020010151905061068b8184610f37565b508061069681611936565b91505061065a565b60009182526005602090815260408084206001600160a01b0393909316845291905290205460ff1690565b606060048054610470906118c3565b7f9f2df0fed2c77648de5860a4cc508cd0818c85b8b8a1ab4ceeef8d981c8956a661070281610d19565b6105548383610ff6565b6000338161071a828661091e565b90508381101561077a5760405162461bcd60e51b815260206004820152602560248201527f45524332303a2064656372656173656420616c6c6f77616e63652062656c6f77604482015264207a65726f60d81b60648201526084016105d4565b61052482868684036109d7565b600033610501818585610b75565b834211156107e55760405162461bcd60e51b815260206004820152601d60248201527f45524332305065726d69743a206578706972656420646561646c696e6500000060448201526064016105d4565b60007f6e71edae12b1b97f4d1f60370fef10105fa2faae0126114a169c64845d6126c98888886108148c611128565b6040805160208101969096526001600160a01b0394851690860152929091166060840152608083015260a082015260c0810186905260e001604051602081830303815290604052805190602001209050600061086f82611150565b9050600061087f8287878761119e565b9050896001600160a01b0316816001600160a01b0316146108e25760405162461bcd60e51b815260206004820152601e60248201527f45524332305065726d69743a20696e76616c6964207369676e6174757265000060448201526064016105d4565b6108ed8a8a8a6109d7565b50505050505050505050565b60008281526005602052604090206001015461091481610d19565b6105548383610ed0565b6001600160a01b03918216600090815260016020908152604080832093909416825291909152205490565b3360009081526008602052604090205442906109679061708061190d565b106109b45760405162461bcd60e51b815260206004820152601c60248201527f636f6f6c646f776e206475726174696f6e206e6f74207061737365640000000060448201526064016105d4565b3360008181526008602052604090204290556109d5906402540be400610f37565b565b6001600160a01b038316610a395760405162461bcd60e51b8152602060048201526024808201527f45524332303a20617070726f76652066726f6d20746865207a65726f206164646044820152637265737360e01b60648201526084016105d4565b6001600160a01b038216610a9a5760405162461bcd60e51b815260206004820152602260248201527f45524332303a20617070726f766520746f20746865207a65726f206164647265604482015261737360f01b60648201526084016105d4565b6001600160a01b0383811660008181526001602090815260408083209487168084529482529182902085905590518481527f8c5be1e5ebec7d5bd14f71427d1e84f3dd0314c0f7b2291e5b200ac8c7c3b925910160405180910390a3505050565b6000610b07848461091e565b90506000198114610b6f5781811015610b625760405162461bcd60e51b815260206004820152601d60248201527f45524332303a20696e73756666696369656e7420616c6c6f77616e636500000060448201526064016105d4565b610b6f84848484036109d7565b50505050565b6001600160a01b038316610bd95760405162461bcd60e51b815260206004820152602560248201527f45524332303a207472616e736665722066726f6d20746865207a65726f206164604482015264647265737360d81b60648201526084016105d4565b6001600160a01b038216610c3b5760405162461bcd60e51b815260206004820152602360248201527f45524332303a207472616e7366657220746f20746865207a65726f206164647260448201526265737360e81b60648201526084016105d4565b6001600160a01b03831660009081526020819052604090205481811015610cb35760405162461bcd60e51b815260206004820152602660248201527f45524332303a207472616e7366657220616d6f756e7420657863656564732062604482015265616c616e636560d01b60648201526084016105d4565b6001600160a01b03848116600081815260208181526040808320878703905593871680835291849020805487019055925185815290927fddf252ad1be2c89b69c2b068fc378daa952ba7f163c4a11628f55a4df523b3ef910160405180910390a3610b6f565b61062181336111c6565b610d2d828261069e565b6105e75760008281526005602090815260408083206001600160a01b03851684529091529020805460ff19166001179055610d653390565b6001600160a01b0316816001600160a01b0316837f2f8788117e7eff1d82e926ec794901d17c78024a50270940304540a733656f0d60405160405180910390a45050565b6000306001600160a01b037f000000000000000000000000000000000000000000000000000000000000000016148015610e0257507f000000000000000000000000000000000000000000000000000000000000000046145b15610e2c57507f000000000000000000000000000000000000000000000000000000000000000090565b50604080517f00000000000000000000000000000000000000000000000000000000000000006020808301919091527f0000000000000000000000000000000000000000000000000000000000000000828401527f000000000000000000000000000000000000000000000000000000000000000060608301524660808301523060a0808401919091528351808403909101815260c0909201909252805191012090565b610eda828261069e565b156105e75760008281526005602090815260408083206001600160a01b0385168085529252808320805460ff1916905551339285917ff6391f5c32d9c69d2a47ea670b442974b53935d1edc7fd64eb21e047a839171b9190a45050565b6001600160a01b038216610f8d5760405162461bcd60e51b815260206004820152601f60248201527f45524332303a206d696e7420746f20746865207a65726f20616464726573730060448201526064016105d4565b8060026000828254610f9f919061190d565b90915550506001600160a01b038216600081815260208181526040808320805486019055518481527fddf252ad1be2c89b69c2b068fc378daa952ba7f163c4a11628f55a4df523b3ef910160405180910390a35050565b6001600160a01b0382166110565760405162461bcd60e51b815260206004820152602160248201527f45524332303a206275726e2066726f6d20746865207a65726f206164647265736044820152607360f81b60648201526084016105d4565b6001600160a01b038216600090815260208190526040902054818110156110ca5760405162461bcd60e51b815260206004820152602260248201527f45524332303a206275726e20616d6f756e7420657863656564732062616c616e604482015261636560f01b60648201526084016105d4565b6001600160a01b0383166000818152602081815260408083208686039055600280548790039055518581529192917fddf252ad1be2c89b69c2b068fc378daa952ba7f163c4a11628f55a4df523b3ef910160405180910390a3505050565b6001600160a01b03811660009081526006602052604090208054600181018255905b50919050565b600061045b61115d610da9565b8360405161190160f01b6020820152602281018390526042810182905260009060620160405160208183030381529060405280519060200120905092915050565b60008060006111af8787878761121f565b915091506111bc816112e3565b5095945050505050565b6111d0828261069e565b6105e7576111dd8161142d565b6111e883602061143f565b6040516020016111f992919061194f565b60408051601f198184030181529082905262461bcd60e51b82526105d491600401611630565b6000807f7fffffffffffffffffffffffffffffff5d576e7357a4501ddfe92f46681b20a083111561125657506000905060036112da565b6040805160008082526020820180845289905260ff881692820192909252606081018690526080810185905260019060a0016020604051602081039080840390855afa1580156112aa573d6000803e3d6000fd5b5050604051601f1901519150506001600160a01b0381166112d3576000600192509250506112da565b9150600090505b94509492505050565b60008160048111156112f7576112f76119c4565b036112ff5750565b6001816004811115611313576113136119c4565b036113605760405162461bcd60e51b815260206004820152601860248201527f45434453413a20696e76616c6964207369676e6174757265000000000000000060448201526064016105d4565b6002816004811115611374576113746119c4565b036113c15760405162461bcd60e51b815260206004820152601f60248201527f45434453413a20696e76616c6964207369676e6174757265206c656e6774680060448201526064016105d4565b60038160048111156113d5576113d56119c4565b036106215760405162461bcd60e51b815260206004820152602260248201527f45434453413a20696e76616c6964207369676e6174757265202773272076616c604482015261756560f01b60648201526084016105d4565b606061045b6001600160a01b03831660145b6060600061144e8360026119da565b61145990600261190d565b67ffffffffffffffff81111561147157611471611745565b6040519080825280601f01601f19166020018201604052801561149b576020820181803683370190505b509050600360fc1b816000815181106114b6576114b6611920565b60200101906001600160f81b031916908160001a905350600f60fb1b816001815181106114e5576114e5611920565b60200101906001600160f81b031916908160001a90535060006115098460026119da565b61151490600161190d565b90505b600181111561158c576f181899199a1a9b1b9c1cb0b131b232b360811b85600f166010811061154857611548611920565b1a60f81b82828151811061155e5761155e611920565b60200101906001600160f81b031916908160001a90535060049490941c93611585816119f1565b9050611517565b5083156115db5760405162461bcd60e51b815260206004820181905260248201527f537472696e67733a20686578206c656e67746820696e73756666696369656e7460448201526064016105d4565b9392505050565b6000602082840312156115f457600080fd5b81356001600160e01b0319811681146115db57600080fd5b60005b8381101561162757818101518382015260200161160f565b50506000910152565b602081526000825180602084015261164f81604085016020870161160c565b601f01601f19169190910160400192915050565b80356001600160a01b038116811461167a57600080fd5b919050565b6000806040838503121561169257600080fd5b61169b83611663565b946020939093013593505050565b6000806000606084860312156116be57600080fd5b6116c784611663565b92506116d560208501611663565b9150604084013590509250925092565b6000602082840312156116f757600080fd5b5035919050565b60006020828403121561171057600080fd5b6115db82611663565b6000806040838503121561172c57600080fd5b8235915061173c60208401611663565b90509250929050565b634e487b7160e01b600052604160045260246000fd5b6000806040838503121561176e57600080fd5b823567ffffffffffffffff8082111561178657600080fd5b818501915085601f83011261179a57600080fd5b81356020828211156117ae576117ae611745565b8160051b604051601f19603f830116810181811086821117156117d3576117d3611745565b6040529283528183019350848101820192898411156117f157600080fd5b948201945b838610156118165761180786611663565b855294820194938201936117f6565b9997909101359750505050505050565b600080600080600080600060e0888a03121561184157600080fd5b61184a88611663565b965061185860208901611663565b95506040880135945060608801359350608088013560ff8116811461187c57600080fd5b9699959850939692959460a0840135945060c09093013592915050565b600080604083850312156118ac57600080fd5b6118b583611663565b915061173c60208401611663565b600181811c908216806118d757607f821691505b60208210810361114a57634e487b7160e01b600052602260045260246000fd5b634e487b7160e01b600052601160045260246000fd5b8082018082111561045b5761045b6118f7565b634e487b7160e01b600052603260045260246000fd5b600060018201611948576119486118f7565b5060010190565b7f416363657373436f6e74726f6c3a206163636f756e742000000000000000000081526000835161198781601785016020880161160c565b7001034b99036b4b9b9b4b733903937b6329607d1b60179184019182015283516119b881602884016020880161160c565b01602801949350505050565b634e487b7160e01b600052602160045260246000fd5b808202811582820484141761045b5761045b6118f7565b600081611a0057611a006118f7565b50600019019056fea2646970667358221220dbae22e38cba3f0f2feac4b2fc802fa07f2ec7f4412daaae03aefbadf405fc9d64736f6c63430008110033",
  "linkReferences": {},
  "deployedLinkReferences": {}
}