{
  "_format": "hh-sol-artifact-1",
  "contractName": "VaultFeeRouter",
  "sourceName": "contracts/vault/MockFeeRouter.sol",
  "abi": [
    {
      "inputs": [
        {
          "internalType": "address",
          "name": "account",
          "type": "address"
        },
        {
          "internalType": "address",
          "name": "token",
          "type": "address"
        },
        {
          "internalType": "int256[]",
          "name": "fees",
          "type": "int256[]"
        }
      ],
      "name": "collectFees",
      "outputs": [],
      "stateMutability": "nonpayable",
      "type": "function"
    }
  ],
  "bytecode": "0x608060405234801561001057600080fd5b5061028a806100206000396000f3fe608060405234801561001057600080fd5b506004361061002b5760003560e01c8063e50f19ef14610030575b600080fd5b61004361003e366004610125565b610045565b005b6100836040518060400160405280601781526020017f63616c6c696e67206d6f636b2066656520726f75746572000000000000000000815250610088565b505050565b6100cb8160405160240161009c9190610206565b60408051601f198184030181529190526020810180516001600160e01b031663104c13eb60e21b1790526100ce565b50565b6100cb8160006a636f6e736f6c652e6c6f679050600080835160208501845afa505050565b80356001600160a01b038116811461010a57600080fd5b919050565b634e487b7160e01b600052604160045260246000fd5b60008060006060848603121561013a57600080fd5b610143846100f3565b925060206101528186016100f3565b9250604085013567ffffffffffffffff8082111561016f57600080fd5b818701915087601f83011261018357600080fd5b8135818111156101955761019561010f565b8060051b604051601f19603f830116810181811085821117156101ba576101ba61010f565b60405291825284820192508381018501918a8311156101d857600080fd5b938501935b828510156101f6578435845293850193928501926101dd565b8096505050505050509250925092565b600060208083528351808285015260005b8181101561023357858101830151858201604001528201610217565b506000604082860101526040601f19601f830116850101925050509291505056fea2646970667358221220d975ab37f0b0b4670fd6032e42941e8b91ac192dc7314d85e9dab39278b7420c64736f6c63430008110033",
  "linkReferences": {},
  "deployedLinkReferences": {}
}