{
  "_format": "hh-sol-artifact-1",
  "contractName": "PositionStoreV2",
  "sourceName": "contracts/position/PositionStoreV2.sol",
  "abi": [
    {
      "anonymous": false,
      "inputs": [
        {
          "indexed": false,
          "internalType": "uint8",
          "name": "version",
          "type": "uint8"
        }
      ],
      "name": "Initialized",
      "type": "event"
    },
    {
      "anonymous": false,
      "inputs": [
        {
          "indexed": true,
          "internalType": "address",
          "name": "migrateFrom",
          "type": "address"
        },
        {
          "indexed": false,
          "internalType": "uint256",
          "name": "start",
          "type": "uint256"
        },
        {
          "indexed": false,
          "internalType": "uint256",
          "name": "end",
          "type": "uint256"
        }
      ],
      "name": "MigratePositions",
      "type": "event"
    },
    {
      "anonymous": false,
      "inputs": [
        {
          "indexed": true,
          "internalType": "address",
          "name": "previousOwner",
          "type": "address"
        },
        {
          "indexed": true,
          "internalType": "address",
          "name": "newOwner",
          "type": "address"
        }
      ],
      "name": "OwnershipTransferred",
      "type": "event"
    },
    {
      "anonymous": false,
      "inputs": [
        {
          "indexed": false,
          "internalType": "address",
          "name": "positionbook",
          "type": "address"
        },
        {
          "indexed": false,
          "internalType": "bool",
          "name": "isLong",
          "type": "bool"
        },
        {
          "indexed": false,
          "internalType": "address",
          "name": "oldStore",
          "type": "address"
        }
      ],
      "name": "PositionStoreV2Initialized",
      "type": "event"
    },
    {
      "anonymous": false,
      "inputs": [
        {
          "indexed": true,
          "internalType": "address",
          "name": "account",
          "type": "address"
        },
        {
          "indexed": false,
          "internalType": "uint256",
          "name": "size",
          "type": "uint256"
        },
        {
          "indexed": false,
          "internalType": "uint256",
          "name": "collateral",
          "type": "uint256"
        }
      ],
      "name": "RemovePosition",
      "type": "event"
    },
    {
      "anonymous": false,
      "inputs": [
        {
          "indexed": true,
          "internalType": "bytes32",
          "name": "role",
          "type": "bytes32"
        },
        {
          "indexed": true,
          "internalType": "bytes32",
          "name": "previousAdminRole",
          "type": "bytes32"
        },
        {
          "indexed": true,
          "internalType": "bytes32",
          "name": "newAdminRole",
          "type": "bytes32"
        }
      ],
      "name": "RoleAdminChanged",
      "type": "event"
    },
    {
      "anonymous": false,
      "inputs": [
        {
          "indexed": true,
          "internalType": "bytes32",
          "name": "role",
          "type": "bytes32"
        },
        {
          "indexed": true,
          "internalType": "address",
          "name": "account",
          "type": "address"
        },
        {
          "indexed": true,
          "internalType": "address",
          "name": "sender",
          "type": "address"
        }
      ],
      "name": "RoleGranted",
      "type": "event"
    },
    {
      "anonymous": false,
      "inputs": [
        {
          "indexed": true,
          "internalType": "bytes32",
          "name": "role",
          "type": "bytes32"
        },
        {
          "indexed": true,
          "internalType": "address",
          "name": "account",
          "type": "address"
        },
        {
          "indexed": true,
          "internalType": "address",
          "name": "sender",
          "type": "address"
        }
      ],
      "name": "RoleRevoked",
      "type": "event"
    },
    {
      "anonymous": false,
      "inputs": [
        {
          "indexed": true,
          "internalType": "address",
          "name": "account",
          "type": "address"
        },
        {
          "indexed": false,
          "internalType": "uint256",
          "name": "size",
          "type": "uint256"
        },
        {
          "indexed": false,
          "internalType": "uint256",
          "name": "collateral",
          "type": "uint256"
        }
      ],
      "name": "UpdatePosition",
      "type": "event"
    },
    {
      "inputs": [],
      "name": "DEFAULT_ADMIN_ROLE",
      "outputs": [
        {
          "internalType": "bytes32",
          "name": "",
          "type": "bytes32"
        }
      ],
      "stateMutability": "view",
      "type": "function"
    },
    {
      "inputs": [
        {
          "internalType": "address",
          "name": "account",
          "type": "address"
        }
      ],
      "name": "contains",
      "outputs": [
        {
          "internalType": "bool",
          "name": "",
          "type": "bool"
        }
      ],
      "stateMutability": "view",
      "type": "function"
    },
    {
      "inputs": [
        {
          "internalType": "address",
          "name": "account",
          "type": "address"
        }
      ],
      "name": "get",
      "outputs": [
        {
          "components": [
            {
              "internalType": "address",
              "name": "market",
              "type": "address"
            },
            {
              "internalType": "bool",
              "name": "isLong",
              "type": "bool"
            },
            {
              "internalType": "uint32",
              "name": "lastTime",
              "type": "uint32"
            },
            {
              "internalType": "uint216",
              "name": "extra3",
              "type": "uint216"
            },
            {
              "internalType": "uint256",
              "name": "size",
              "type": "uint256"
            },
            {
              "internalType": "uint256",
              "name": "collateral",
              "type": "uint256"
            },
            {
              "internalType": "uint256",
              "name": "averagePrice",
              "type": "uint256"
            },
            {
              "internalType": "int256",
              "name": "entryFundingRate",
              "type": "int256"
            },
            {
              "internalType": "int256",
              "name": "realisedPnl",
              "type": "int256"
            },
            {
              "internalType": "uint256",
              "name": "extra0",
              "type": "uint256"
            },
            {
              "internalType": "uint256",
              "name": "extra1",
              "type": "uint256"
            },
            {
              "internalType": "uint256",
              "name": "extra2",
              "type": "uint256"
            }
          ],
          "internalType": "struct Position.Props",
          "name": "",
          "type": "tuple"
        }
      ],
      "stateMutability": "view",
      "type": "function"
    },
    {
      "inputs": [],
      "name": "getGlobalPosition",
      "outputs": [
        {
          "components": [
            {
              "internalType": "address",
              "name": "market",
              "type": "address"
            },
            {
              "internalType": "bool",
              "name": "isLong",
              "type": "bool"
            },
            {
              "internalType": "uint32",
              "name": "lastTime",
              "type": "uint32"
            },
            {
              "internalType": "uint216",
              "name": "extra3",
              "type": "uint216"
            },
            {
              "internalType": "uint256",
              "name": "size",
              "type": "uint256"
            },
            {
              "internalType": "uint256",
              "name": "collateral",
              "type": "uint256"
            },
            {
              "internalType": "uint256",
              "name": "averagePrice",
              "type": "uint256"
            },
            {
              "internalType": "int256",
              "name": "entryFundingRate",
              "type": "int256"
            },
            {
              "internalType": "int256",
              "name": "realisedPnl",
              "type": "int256"
            },
            {
              "internalType": "uint256",
              "name": "extra0",
              "type": "uint256"
            },
            {
              "internalType": "uint256",
              "name": "extra1",
              "type": "uint256"
            },
            {
              "internalType": "uint256",
              "name": "extra2",
              "type": "uint256"
            }
          ],
          "internalType": "struct Position.Props",
          "name": "",
          "type": "tuple"
        }
      ],
      "stateMutability": "view",
      "type": "function"
    },
    {
      "inputs": [],
      "name": "getPositionCount",
      "outputs": [
        {
          "internalType": "uint256",
          "name": "",
          "type": "uint256"
        }
      ],
      "stateMutability": "view",
      "type": "function"
    },
    {
      "inputs": [
        {
          "internalType": "uint256",
          "name": "start",
          "type": "uint256"
        },
        {
          "internalType": "uint256",
          "name": "end",
          "type": "uint256"
        }
      ],
      "name": "getPositionKeys",
      "outputs": [
        {
          "internalType": "address[]",
          "name": "",
          "type": "address[]"
        }
      ],
      "stateMutability": "view",
      "type": "function"
    },
    {
      "inputs": [
        {
          "internalType": "bytes32",
          "name": "role",
          "type": "bytes32"
        }
      ],
      "name": "getRoleAdmin",
      "outputs": [
        {
          "internalType": "bytes32",
          "name": "",
          "type": "bytes32"
        }
      ],
      "stateMutability": "view",
      "type": "function"
    },
    {
      "inputs": [],
      "name": "globalSize",
      "outputs": [
        {
          "internalType": "uint256",
          "name": "",
          "type": "uint256"
        }
      ],
      "stateMutability": "view",
      "type": "function"
    },
    {
      "inputs": [
        {
          "internalType": "address",
          "name": "_account",
          "type": "address"
        }
      ],
      "name": "grantControllerRoleByMarketManager",
      "outputs": [],
      "stateMutability": "nonpayable",
      "type": "function"
    },
    {
      "inputs": [
        {
          "internalType": "bytes32",
          "name": "role",
          "type": "bytes32"
        },
        {
          "internalType": "address",
          "name": "account",
          "type": "address"
        }
      ],
      "name": "grantRole",
      "outputs": [],
      "stateMutability": "nonpayable",
      "type": "function"
    },
    {
      "inputs": [
        {
          "internalType": "bytes32",
          "name": "role",
          "type": "bytes32"
        },
        {
          "internalType": "address",
          "name": "account",
          "type": "address"
        }
      ],
      "name": "hasRole",
      "outputs": [
        {
          "internalType": "bool",
          "name": "",
          "type": "bool"
        }
      ],
      "stateMutability": "view",
      "type": "function"
    },
    {
      "inputs": [
        {
          "internalType": "address",
          "name": "_oldPositionStore",
          "type": "address"
        },
        {
          "internalType": "address",
          "name": "_positionBook",
          "type": "address"
        }
      ],
      "name": "initialize",
      "outputs": [],
      "stateMutability": "nonpayable",
      "type": "function"
    },
    {
      "inputs": [],
      "name": "isLong",
      "outputs": [
        {
          "internalType": "bool",
          "name": "",
          "type": "bool"
        }
      ],
      "stateMutability": "view",
      "type": "function"
    },
    {
      "inputs": [
        {
          "internalType": "uint256",
          "name": "start",
          "type": "uint256"
        },
        {
          "internalType": "uint256",
          "name": "end",
          "type": "uint256"
        }
      ],
      "name": "migrate",
      "outputs": [],
      "stateMutability": "nonpayable",
      "type": "function"
    },
    {
      "inputs": [],
      "name": "oldPositionStore",
      "outputs": [
        {
          "internalType": "address",
          "name": "",
          "type": "address"
        }
      ],
      "stateMutability": "view",
      "type": "function"
    },
    {
      "inputs": [],
      "name": "owner",
      "outputs": [
        {
          "internalType": "address",
          "name": "",
          "type": "address"
        }
      ],
      "stateMutability": "view",
      "type": "function"
    },
    {
      "inputs": [
        {
          "internalType": "address",
          "name": "account",
          "type": "address"
        },
        {
          "components": [
            {
              "internalType": "address",
              "name": "market",
              "type": "address"
            },
            {
              "internalType": "bool",
              "name": "isLong",
              "type": "bool"
            },
            {
              "internalType": "uint32",
              "name": "lastTime",
              "type": "uint32"
            },
            {
              "internalType": "uint216",
              "name": "extra3",
              "type": "uint216"
            },
            {
              "internalType": "uint256",
              "name": "size",
              "type": "uint256"
            },
            {
              "internalType": "uint256",
              "name": "collateral",
              "type": "uint256"
            },
            {
              "internalType": "uint256",
              "name": "averagePrice",
              "type": "uint256"
            },
            {
              "internalType": "int256",
              "name": "entryFundingRate",
              "type": "int256"
            },
            {
              "internalType": "int256",
              "name": "realisedPnl",
              "type": "int256"
            },
            {
              "internalType": "uint256",
              "name": "extra0",
              "type": "uint256"
            },
            {
              "internalType": "uint256",
              "name": "extra1",
              "type": "uint256"
            },
            {
              "internalType": "uint256",
              "name": "extra2",
              "type": "uint256"
            }
          ],
          "internalType": "struct Position.Props",
          "name": "globalPosition",
          "type": "tuple"
        }
      ],
      "name": "remove",
      "outputs": [],
      "stateMutability": "nonpayable",
      "type": "function"
    },
    {
      "inputs": [],
      "name": "renounceOwnership",
      "outputs": [],
      "stateMutability": "nonpayable",
      "type": "function"
    },
    {
      "inputs": [
        {
          "internalType": "bytes32",
          "name": "role",
          "type": "bytes32"
        },
        {
          "internalType": "address",
          "name": "account",
          "type": "address"
        }
      ],
      "name": "renounceRole",
      "outputs": [],
      "stateMutability": "nonpayable",
      "type": "function"
    },
    {
      "inputs": [
        {
          "internalType": "bytes32",
          "name": "role",
          "type": "bytes32"
        },
        {
          "internalType": "address",
          "name": "account",
          "type": "address"
        }
      ],
      "name": "revokeRole",
      "outputs": [],
      "stateMutability": "nonpayable",
      "type": "function"
    },
    {
      "inputs": [
        {
          "internalType": "address",
          "name": "account",
          "type": "address"
        },
        {
          "components": [
            {
              "internalType": "address",
              "name": "market",
              "type": "address"
            },
            {
              "internalType": "bool",
              "name": "isLong",
              "type": "bool"
            },
            {
              "internalType": "uint32",
              "name": "lastTime",
              "type": "uint32"
            },
            {
              "internalType": "uint216",
              "name": "extra3",
              "type": "uint216"
            },
            {
              "internalType": "uint256",
              "name": "size",
              "type": "uint256"
            },
            {
              "internalType": "uint256",
              "name": "collateral",
              "type": "uint256"
            },
            {
              "internalType": "uint256",
              "name": "averagePrice",
              "type": "uint256"
            },
            {
              "internalType": "int256",
              "name": "entryFundingRate",
              "type": "int256"
            },
            {
              "internalType": "int256",
              "name": "realisedPnl",
              "type": "int256"
            },
            {
              "internalType": "uint256",
              "name": "extra0",
              "type": "uint256"
            },
            {
              "internalType": "uint256",
              "name": "extra1",
              "type": "uint256"
            },
            {
              "internalType": "uint256",
              "name": "extra2",
              "type": "uint256"
            }
          ],
          "internalType": "struct Position.Props",
          "name": "position",
          "type": "tuple"
        },
        {
          "components": [
            {
              "internalType": "address",
              "name": "market",
              "type": "address"
            },
            {
              "internalType": "bool",
              "name": "isLong",
              "type": "bool"
            },
            {
              "internalType": "uint32",
              "name": "lastTime",
              "type": "uint32"
            },
            {
              "internalType": "uint216",
              "name": "extra3",
              "type": "uint216"
            },
            {
              "internalType": "uint256",
              "name": "size",
              "type": "uint256"
            },
            {
              "internalType": "uint256",
              "name": "collateral",
              "type": "uint256"
            },
            {
              "internalType": "uint256",
              "name": "averagePrice",
              "type": "uint256"
            },
            {
              "internalType": "int256",
              "name": "entryFundingRate",
              "type": "int256"
            },
            {
              "internalType": "int256",
              "name": "realisedPnl",
              "type": "int256"
            },
            {
              "internalType": "uint256",
              "name": "extra0",
              "type": "uint256"
            },
            {
              "internalType": "uint256",
              "name": "extra1",
              "type": "uint256"
            },
            {
              "internalType": "uint256",
              "name": "extra2",
              "type": "uint256"
            }
          ],
          "internalType": "struct Position.Props",
          "name": "globalPosition",
          "type": "tuple"
        }
      ],
      "name": "set",
      "outputs": [],
      "stateMutability": "nonpayable",
      "type": "function"
    },
    {
      "inputs": [
        {
          "internalType": "bytes4",
          "name": "interfaceId",
          "type": "bytes4"
        }
      ],
      "name": "supportsInterface",
      "outputs": [
        {
          "internalType": "bool",
          "name": "",
          "type": "bool"
        }
      ],
      "stateMutability": "view",
      "type": "function"
    },
    {
      "inputs": [
        {
          "internalType": "address",
          "name": "to",
          "type": "address"
        }
      ],
      "name": "transferAdmin",
      "outputs": [],
      "stateMutability": "nonpayable",
      "type": "function"
    },
    {
      "inputs": [
        {
          "internalType": "address",
          "name": "newOwner",
          "type": "address"
        }
      ],
      "name": "transferOwnership",
      "outputs": [],
      "stateMutability": "nonpayable",
      "type": "function"
    }
  ],
  "bytecode": "0x608060405234801561001057600080fd5b5061001a3361001f565b610071565b600180546001600160a01b038381166001600160a01b0319831681179093556040519116919082907f8be0079c531659141344cd1fd0a4f28419497f9722a3daafe3b4186f6b6457e090600090a35050565b612091806100806000396000f3fe608060405234801561001057600080fd5b50600436106101585760003560e01c806375829def116100c357806391d148541161007c57806391d14854146102e2578063a217fddf146102f5578063b7ed1357146102fd578063c2bc2efc14610310578063d547741f14610323578063f2fde38b1461033657600080fd5b806375829def1461026e5780637f497d97146102815780637fe4a698146102a157806381683476146102b45780638da5cb5b146102bc5780639027b59e146102cd57600080fd5b806336568abe1161011557806336568abe146101ef5780633e54bacb14610202578063485cc955146102155780634efab042146102285780635dbe47e814610253578063715018a61461026657600080fd5b806301ffc9a71461015d5780631ee229be14610185578063202a61a114610197578063248a9ca3146101a45780632d015618146101c75780632f2ff15d146101dc575b600080fd5b61017061016b366004611891565b610349565b60405190151581526020015b60405180910390f35b6009545b60405190815260200161017c565b6003546101709060ff1681565b6101896101b23660046118bb565b60009081526020819052604090206001015490565b6101da6101d5366004611902565b610380565b005b6101da6101ea366004611939565b610674565b6101da6101fd366004611939565b61069e565b6101da610210366004611969565b61071c565b6101da61022336600461198b565b610beb565b60115461023b906001600160a01b031681565b6040516001600160a01b03909116815260200161017c565b6101706102613660046119b9565b610e23565b6101da610e30565b6101da61027c3660046119b9565b610e44565b61029461028f366004611969565b610e6e565b60405161017c91906119d6565b6101da6102af3660046119b9565b610e83565b610189610ead565b6001546001600160a01b031661023b565b6102d5610ebe565b60405161017c9190611a23565b6101706102f0366004611939565b610f5e565b610189600081565b6101da61030b366004611ada565b610f87565b6102d561031e3660046119b9565b611042565b6101da610331366004611939565b611109565b6101da6103443660046119b9565b61112e565b60006001600160e01b03198216637965db0b60e01b148061037a57506301ffc9a760e01b6001600160e01b03198316145b92915050565b6103a97fcb58d6d985142a614029cdf01861b4fe094d5919a47e69b8310dc4093d9d6ad06111a7565b60006103b66005846111b1565b90508061040a5760405162461bcd60e51b815260206004820152601760248201527f706f736974696f6e20646f6573206e6f7420657869737400000000000000000060448201526064015b60405180910390fd5b8160076104178282611b8c565b905050600060046000856001600160a01b03166001600160a01b03168152602001908152602001600020604051806101800160405290816000820160009054906101000a90046001600160a01b03166001600160a01b03166001600160a01b031681526020016000820160149054906101000a900460ff161515151581526020016000820160159054906101000a900463ffffffff1663ffffffff1663ffffffff1681526020016001820160009054906101000a90046001600160d81b03166001600160d81b03166001600160d81b0316815260200160028201548152602001600382015481526020016004820154815260200160058201548152602001600682015481526020016007820154815260200160088201548152602001600982015481525050905060046000856001600160a01b03166001600160a01b03168152602001908152602001600020600080820160006101000a8154906001600160a01b0302191690556000820160146101000a81549060ff02191690556000820160156101000a81549063ffffffff02191690556001820160006101000a8154906001600160d81b0302191690556002820160009055600382016000905560048201600090556005820160009055600682016000905560078201600090556008820160009055600982016000905550506106198460056111d390919063ffffffff16565b50836001600160a01b03167f20b3ac24c835264e655c493af7b3db37ff78a0f358627f0de89832abc7e1deca82608001518360a00151604051610666929190918252602082015260400190565b60405180910390a250505050565b60008281526020819052604090206001015461068f816111a7565b61069983836111e8565b505050565b6001600160a01b038116331461070e5760405162461bcd60e51b815260206004820152602f60248201527f416363657373436f6e74726f6c3a2063616e206f6e6c792072656e6f756e636560448201526e103937b632b9903337b91039b2b63360891b6064820152608401610401565b610718828261126c565b5050565b6000610727816111a7565b601154604051637f497d9760e01b815260048101859052602481018490526001600160a01b03909116906000908290637f497d9790604401600060405180830381865afa15801561077c573d6000803e3d6000fd5b505050506040513d6000823e601f3d908101601f191682016040526107a49190810190611d21565b9050816001600160a01b0316639027b59e6040518163ffffffff1660e01b815260040161018060405180830381865afa1580156107e5573d6000803e3d6000fd5b505050506040513d601f19601f820116820180604052508101906108099190611df4565b8051600780546020840151604085015163ffffffff16600160a81b0263ffffffff60a81b19911515600160a01b026001600160a81b03199093166001600160a01b039095169490941791909117169190911790556060810151600880546001600160d81b039092166001600160d81b0319909216919091179055608081015160095560a0810151600a5560c0810151600b5560e0810151600c55610100810151600d55610120810151600e55610140810151600f5561016001516010556000805b8251811015610ad55760008382815181106108e7576108e7611eaa565b60209081029190910101516040516330af0bbf60e21b81526001600160a01b03808316600483015291925060009187169063c2bc2efc9060240161018060405180830381865afa15801561093f573d6000803e3d6000fd5b505050506040513d601f19601f820116820180604052508101906109639190611df4565b6001600160a01b0383811660009081526004602081815260409283902085518154928701519487015195166001600160a81b031990921691909117600160a01b931515939093029290921763ffffffff60a81b1916600160a81b63ffffffff9485160217825560608401516001830180546001600160d81b0319166001600160d81b039092169190911790556080840151600283015560a0840151600383015560c08401519082015560e0830151600580830191909155610100840151600683015561012084015160078301556101408401516008830155610160840151600990920191909155919250610a5a919084906112d116565b506080810151610a6a9085611ed6565b9350816001600160a01b03167f0d77a4156ff764dade22a2cd25a68a83ff04b20df143bba5d162a6a98070262382608001518360a00151604051610ab8929190918252602082015260400190565b60405180910390a250508080610acd90611ee9565b9150506108ca565b506009548114610b275760405162461bcd60e51b815260206004820152601960248201527f6d6967726174696f6e2073697a6520646f6573206d61746368000000000000006044820152606401610401565b610b2f610ead565b836001600160a01b031663816834766040518163ffffffff1660e01b8152600401602060405180830381865afa158015610b6d573d6000803e3d6000fd5b505050506040513d601f19601f82011682018060405250810190610b919190611f02565b14610b9b57600080fd5b60115460408051888152602081018890526001600160a01b03909216917f3aa0cc68900a51ae3ff7d219e3de8c619d53584ccd442af0ba1636cb78fc42d7910160405180910390a2505050505050565b600154600160a81b900460ff1615808015610c11575060018054600160a01b900460ff16105b80610c315750303b158015610c31575060018054600160a01b900460ff16145b610c945760405162461bcd60e51b815260206004820152602e60248201527f496e697469616c697a61626c653a20636f6e747261637420697320616c72656160448201526d191e481a5b9a5d1a585b1a5e995960921b6064820152608401610401565b6001805460ff60a01b1916600160a01b1790558015610cc1576001805460ff60a81b1916600160a81b1790555b610cca336112e6565b601180546001600160a01b0319166001600160a01b0385169081179091556040805163202a61a160e01b8152905163202a61a1916004808201926020929091908290030181865afa158015610d23573d6000803e3d6000fd5b505050506040513d601f19601f82011682018060405250810190610d479190611f1b565b6003805460ff1916911515919091179055610d827fcb58d6d985142a614029cdf01861b4fe094d5919a47e69b8310dc4093d9d6ad0836111e8565b600354601154604080516001600160a01b03868116825260ff909416151560208201529290911682820152517fc3f74e23ed9c93c3a26c292a1fd4756463ce8a3d6c4d09ab27155e53332f3d6f9181900360600190a18015610699576001805460ff60a81b191681556040519081527f7f26b83ff96e1f2b6a682f133852f6798a09c465da95921460cefb38474024989060200160405180910390a1505050565b600061037a6005836111b1565b610e38611309565b610e426000611363565b565b6000610e4f816111a7565b610e5a6000836113b5565b610e6382611363565b61071860003361126c565b6060610e7c600584846113bf565b9392505050565b7f8d1089725c0dc266707fa6207730fb801dcd03108bfed7a21099bd303651d2b7610158816111a7565b6000610eb9600561148d565b905090565b610ec6611816565b5060408051610180810182526007546001600160a01b0381168252600160a01b810460ff1615156020830152600160a81b900463ffffffff16918101919091526008546001600160d81b031660608201526009546080820152600a5460a0820152600b5460c0820152600c5460e0820152600d54610100820152600e54610120820152600f5461014082015260105461016082015290565b6000918252602082815260408084206001600160a01b0393909316845291905290205460ff1690565b610fb07fcb58d6d985142a614029cdf01861b4fe094d5919a47e69b8310dc4093d9d6ad06111a7565b806007610fbd8282611b8c565b50506001600160a01b03831660009081526004602052604090208290610fe38282611b8c565b50610ff190506005846112d1565b50604080516080840135815260a084013560208201526001600160a01b038516917f0d77a4156ff764dade22a2cd25a68a83ff04b20df143bba5d162a6a980702623910160405180910390a2505050565b61104a611816565b506001600160a01b0390811660009081526004602081815260409283902083516101808101855281549586168152600160a01b860460ff16151592810192909252600160a81b90940463ffffffff169281019290925260018301546001600160d81b0316606083015260028301546080830152600383015460a083015282015460c0820152600582015460e082015260068201546101008201526007820154610120820152600882015461014082015260099091015461016082015290565b600082815260208190526040902060010154611124816111a7565b610699838361126c565b611136611309565b6001600160a01b03811661119b5760405162461bcd60e51b815260206004820152602660248201527f4f776e61626c653a206e6577206f776e657220697320746865207a65726f206160448201526564647265737360d01b6064820152608401610401565b6111a481611363565b50565b6111a48133611497565b6001600160a01b03811660009081526001830160205260408120541515610e7c565b6000610e7c836001600160a01b0384166114f0565b6111f28282610f5e565b610718576000828152602081815260408083206001600160a01b03851684529091529020805460ff191660011790556112283390565b6001600160a01b0316816001600160a01b0316837f2f8788117e7eff1d82e926ec794901d17c78024a50270940304540a733656f0d60405160405180910390a45050565b6112768282610f5e565b15610718576000828152602081815260408083206001600160a01b0385168085529252808320805460ff1916905551339285917ff6391f5c32d9c69d2a47ea670b442974b53935d1edc7fd64eb21e047a839171b9190a45050565b6000610e7c836001600160a01b0384166115e3565b426002556112f333611363565b6112fe6000336113b5565b6111a46000826113b5565b6001546001600160a01b03163314610e425760405162461bcd60e51b815260206004820181905260248201527f4f776e61626c653a2063616c6c6572206973206e6f7420746865206f776e65726044820152606401610401565b600180546001600160a01b038381166001600160a01b0319831681179093556040519116919082907f8be0079c531659141344cd1fd0a4f28419497f9722a3daafe3b4186f6b6457e090600090a35050565b61071882826111e8565b606060006113cc8561148d565b9050808311156113da578092505b60006113e68585611f38565b67ffffffffffffffff8111156113fe576113fe611ca0565b604051908082528060200260200182016040528015611427578160200160208202803683370190505b509050845b848110156114835761143e8782611632565b826114498884611f38565b8151811061145957611459611eaa565b6001600160a01b03909216602092830291909101909101528061147b81611ee9565b91505061142c565b5095945050505050565b600061037a825490565b6114a18282610f5e565b610718576114ae8161163e565b6114b9836020611650565b6040516020016114ca929190611f6f565b60408051601f198184030181529082905262461bcd60e51b825261040191600401611fe4565b600081815260018301602052604081205480156115d9576000611514600183611f38565b855490915060009061152890600190611f38565b905081811461158d57600086600001828154811061154857611548611eaa565b906000526020600020015490508087600001848154811061156b5761156b611eaa565b6000918252602080832090910192909255918252600188019052604090208390555b855486908061159e5761159e612017565b60019003818190600052602060002001600090559055856001016000868152602001908152602001600020600090556001935050505061037a565b600091505061037a565b600081815260018301602052604081205461162a5750815460018181018455600084815260208082209093018490558454848252828601909352604090209190915561037a565b50600061037a565b6000610e7c83836117ec565b606061037a6001600160a01b03831660145b6060600061165f83600261202d565b61166a906002611ed6565b67ffffffffffffffff81111561168257611682611ca0565b6040519080825280601f01601f1916602001820160405280156116ac576020820181803683370190505b509050600360fc1b816000815181106116c7576116c7611eaa565b60200101906001600160f81b031916908160001a905350600f60fb1b816001815181106116f6576116f6611eaa565b60200101906001600160f81b031916908160001a905350600061171a84600261202d565b611725906001611ed6565b90505b600181111561179d576f181899199a1a9b1b9c1cb0b131b232b360811b85600f166010811061175957611759611eaa565b1a60f81b82828151811061176f5761176f611eaa565b60200101906001600160f81b031916908160001a90535060049490941c9361179681612044565b9050611728565b508315610e7c5760405162461bcd60e51b815260206004820181905260248201527f537472696e67733a20686578206c656e67746820696e73756666696369656e746044820152606401610401565b600082600001828154811061180357611803611eaa565b9060005260206000200154905092915050565b60405180610180016040528060006001600160a01b03168152602001600015158152602001600063ffffffff16815260200160006001600160d81b0316815260200160008152602001600081526020016000815260200160008152602001600081526020016000815260200160008152602001600081525090565b6000602082840312156118a357600080fd5b81356001600160e01b031981168114610e7c57600080fd5b6000602082840312156118cd57600080fd5b5035919050565b6001600160a01b03811681146111a457600080fd5b600061018082840312156118fc57600080fd5b50919050565b6000806101a0838503121561191657600080fd5b8235611921816118d4565b915061193084602085016118e9565b90509250929050565b6000806040838503121561194c57600080fd5b82359150602083013561195e816118d4565b809150509250929050565b6000806040838503121561197c57600080fd5b50508035926020909101359150565b6000806040838503121561199e57600080fd5b82356119a9816118d4565b9150602083013561195e816118d4565b6000602082840312156119cb57600080fd5b8135610e7c816118d4565b6020808252825182820181905260009190848201906040850190845b81811015611a175783516001600160a01b0316835292840192918401916001016119f2565b50909695505050505050565b81516001600160a01b0316815261018081016020830151611a48602084018215159052565b506040830151611a60604084018263ffffffff169052565b506060830151611a7b60608401826001600160d81b03169052565b506080830151608083015260a083015160a083015260c083015160c083015260e083015160e083015261010080840151818401525061012080840151818401525061014080840151818401525061016080840151818401525092915050565b60008060006103208486031215611af057600080fd5b8335611afb816118d4565b9250611b0a85602086016118e9565b9150611b1a856101a086016118e9565b90509250925092565b6000813561037a816118d4565b80151581146111a457600080fd5b6000813561037a81611b30565b63ffffffff811681146111a457600080fd5b6000813561037a81611b4b565b6001600160d81b03811681146111a457600080fd5b6000813561037a81611b6a565b611bb5611b9883611b23565b82546001600160a01b0319166001600160a01b0391909116178255565b611be2611bc460208401611b3e565b82805460ff60a01b191691151560a01b60ff60a01b16919091179055565b611c15611bf160408401611b5d565b82805463ffffffff60a81b191660a89290921b63ffffffff60a81b16919091179055565b611c48611c2460608401611b7f565b6001830180546001600160d81b0319166001600160d81b0392909216919091179055565b6080820135600282015560a0820135600382015560c0820135600482015560e0820135600582015561010082013560068201556101208201356007820155610140820135600882015561016082013560098201555050565b634e487b7160e01b600052604160045260246000fd5b604051610180810167ffffffffffffffff81118282101715611cda57611cda611ca0565b60405290565b604051601f8201601f1916810167ffffffffffffffff81118282101715611d0957611d09611ca0565b604052919050565b8051611d1c816118d4565b919050565b60006020808385031215611d3457600080fd5b825167ffffffffffffffff80821115611d4c57600080fd5b818501915085601f830112611d6057600080fd5b815181811115611d7257611d72611ca0565b8060051b9150611d83848301611ce0565b8181529183018401918481019088841115611d9d57600080fd5b938501935b83851015611dc75784519250611db7836118d4565b8282529385019390850190611da2565b98975050505050505050565b8051611d1c81611b30565b8051611d1c81611b4b565b8051611d1c81611b6a565b60006101808284031215611e0757600080fd5b611e0f611cb6565b611e1883611d11565b8152611e2660208401611dd3565b6020820152611e3760408401611dde565b6040820152611e4860608401611de9565b60608201526080838101519082015260a0808401519082015260c0808401519082015260e08084015190820152610100808401519082015261012080840151908201526101408084015190820152610160928301519281019290925250919050565b634e487b7160e01b600052603260045260246000fd5b634e487b7160e01b600052601160045260246000fd5b8082018082111561037a5761037a611ec0565b600060018201611efb57611efb611ec0565b5060010190565b600060208284031215611f1457600080fd5b5051919050565b600060208284031215611f2d57600080fd5b8151610e7c81611b30565b8181038181111561037a5761037a611ec0565b60005b83811015611f66578181015183820152602001611f4e565b50506000910152565b7f416363657373436f6e74726f6c3a206163636f756e7420000000000000000000815260008351611fa7816017850160208801611f4b565b7001034b99036b4b9b9b4b733903937b6329607d1b6017918401918201528351611fd8816028840160208801611f4b565b01602801949350505050565b6020815260008251806020840152612003816040850160208701611f4b565b601f01601f19169190910160400192915050565b634e487b7160e01b600052603160045260246000fd5b808202811582820484141761037a5761037a611ec0565b60008161205357612053611ec0565b50600019019056fea2646970667358221220e0dde300c23723e6c1234e2a378ee539306f03cff2ff6730a1bf680d6fa3d66464736f6c63430008110033",
  "linkReferences": {},
  "deployedLinkReferences": {}
}