{
  "_format": "hh-sol-artifact-1",
  "contractName": "PositionStoreV2Deployment",
  "sourceName": "contracts/position/PositionStoreV2.sol",
  "abi": [
    {
      "anonymous": false,
      "inputs": [
        {
          "indexed": false,
          "internalType": "uint8",
          "name": "version",
          "type": "uint8"
        }
      ],
      "name": "Initialized",
      "type": "event"
    },
    {
      "anonymous": false,
      "inputs": [
        {
          "indexed": true,
          "internalType": "address",
          "name": "migrateFrom",
          "type": "address"
        },
        {
          "indexed": false,
          "internalType": "uint256",
          "name": "start",
          "type": "uint256"
        },
        {
          "indexed": false,
          "internalType": "uint256",
          "name": "end",
          "type": "uint256"
        }
      ],
      "name": "MigratePositions",
      "type": "event"
    },
    {
      "anonymous": false,
      "inputs": [
        {
          "indexed": false,
          "internalType": "address",
          "name": "positionbook",
          "type": "address"
        },
        {
          "indexed": false,
          "internalType": "bool",
          "name": "isLong",
          "type": "bool"
        },
        {
          "indexed": false,
          "internalType": "address",
          "name": "oldStore",
          "type": "address"
        }
      ],
      "name": "PositionStoreV2Initialized",
      "type": "event"
    },
    {
      "anonymous": false,
      "inputs": [
        {
          "indexed": true,
          "internalType": "address",
          "name": "account",
          "type": "address"
        },
        {
          "indexed": false,
          "internalType": "uint256",
          "name": "size",
          "type": "uint256"
        },
        {
          "indexed": false,
          "internalType": "uint256",
          "name": "collateral",
          "type": "uint256"
        }
      ],
      "name": "RemovePosition",
      "type": "event"
    },
    {
      "anonymous": false,
      "inputs": [
        {
          "indexed": true,
          "internalType": "address",
          "name": "account",
          "type": "address"
        },
        {
          "indexed": false,
          "internalType": "uint256",
          "name": "size",
          "type": "uint256"
        },
        {
          "indexed": false,
          "internalType": "uint256",
          "name": "collateral",
          "type": "uint256"
        }
      ],
      "name": "UpdatePosition",
      "type": "event"
    },
    {
      "inputs": [],
      "name": "DEFAULT_ADMIN_ROLE",
      "outputs": [
        {
          "internalType": "bytes32",
          "name": "",
          "type": "bytes32"
        }
      ],
      "stateMutability": "view",
      "type": "function"
    },
    {
      "inputs": [
        {
          "internalType": "address",
          "name": "newOwner",
          "type": "address"
        }
      ],
      "name": "_transferOwnership",
      "outputs": [],
      "stateMutability": "pure",
      "type": "function"
    },
    {
      "inputs": [
        {
          "internalType": "address",
          "name": "account",
          "type": "address"
        }
      ],
      "name": "contains",
      "outputs": [
        {
          "internalType": "bool",
          "name": "",
          "type": "bool"
        }
      ],
      "stateMutability": "view",
      "type": "function"
    },
    {
      "inputs": [
        {
          "internalType": "address",
          "name": "account",
          "type": "address"
        }
      ],
      "name": "get",
      "outputs": [
        {
          "components": [
            {
              "internalType": "address",
              "name": "market",
              "type": "address"
            },
            {
              "internalType": "bool",
              "name": "isLong",
              "type": "bool"
            },
            {
              "internalType": "uint32",
              "name": "lastTime",
              "type": "uint32"
            },
            {
              "internalType": "uint216",
              "name": "extra3",
              "type": "uint216"
            },
            {
              "internalType": "uint256",
              "name": "size",
              "type": "uint256"
            },
            {
              "internalType": "uint256",
              "name": "collateral",
              "type": "uint256"
            },
            {
              "internalType": "uint256",
              "name": "averagePrice",
              "type": "uint256"
            },
            {
              "internalType": "int256",
              "name": "entryFundingRate",
              "type": "int256"
            },
            {
              "internalType": "int256",
              "name": "realisedPnl",
              "type": "int256"
            },
            {
              "internalType": "uint256",
              "name": "extra0",
              "type": "uint256"
            },
            {
              "internalType": "uint256",
              "name": "extra1",
              "type": "uint256"
            },
            {
              "internalType": "uint256",
              "name": "extra2",
              "type": "uint256"
            }
          ],
          "internalType": "struct Position.Props",
          "name": "",
          "type": "tuple"
        }
      ],
      "stateMutability": "view",
      "type": "function"
    },
    {
      "inputs": [],
      "name": "getGlobalPosition",
      "outputs": [
        {
          "components": [
            {
              "internalType": "address",
              "name": "market",
              "type": "address"
            },
            {
              "internalType": "bool",
              "name": "isLong",
              "type": "bool"
            },
            {
              "internalType": "uint32",
              "name": "lastTime",
              "type": "uint32"
            },
            {
              "internalType": "uint216",
              "name": "extra3",
              "type": "uint216"
            },
            {
              "internalType": "uint256",
              "name": "size",
              "type": "uint256"
            },
            {
              "internalType": "uint256",
              "name": "collateral",
              "type": "uint256"
            },
            {
              "internalType": "uint256",
              "name": "averagePrice",
              "type": "uint256"
            },
            {
              "internalType": "int256",
              "name": "entryFundingRate",
              "type": "int256"
            },
            {
              "internalType": "int256",
              "name": "realisedPnl",
              "type": "int256"
            },
            {
              "internalType": "uint256",
              "name": "extra0",
              "type": "uint256"
            },
            {
              "internalType": "uint256",
              "name": "extra1",
              "type": "uint256"
            },
            {
              "internalType": "uint256",
              "name": "extra2",
              "type": "uint256"
            }
          ],
          "internalType": "struct Position.Props",
          "name": "",
          "type": "tuple"
        }
      ],
      "stateMutability": "view",
      "type": "function"
    },
    {
      "inputs": [],
      "name": "getPositionCount",
      "outputs": [
        {
          "internalType": "uint256",
          "name": "",
          "type": "uint256"
        }
      ],
      "stateMutability": "view",
      "type": "function"
    },
    {
      "inputs": [
        {
          "internalType": "uint256",
          "name": "start",
          "type": "uint256"
        },
        {
          "internalType": "uint256",
          "name": "end",
          "type": "uint256"
        }
      ],
      "name": "getPositionKeys",
      "outputs": [
        {
          "internalType": "address[]",
          "name": "",
          "type": "address[]"
        }
      ],
      "stateMutability": "view",
      "type": "function"
    },
    {
      "inputs": [],
      "name": "globalSize",
      "outputs": [
        {
          "internalType": "uint256",
          "name": "",
          "type": "uint256"
        }
      ],
      "stateMutability": "view",
      "type": "function"
    },
    {
      "inputs": [
        {
          "internalType": "address",
          "name": "_account",
          "type": "address"
        }
      ],
      "name": "grantControllerRoleByMarketManager",
      "outputs": [],
      "stateMutability": "nonpayable",
      "type": "function"
    },
    {
      "inputs": [
        {
          "internalType": "bytes32",
          "name": "role",
          "type": "bytes32"
        },
        {
          "internalType": "address",
          "name": "account",
          "type": "address"
        }
      ],
      "name": "grantRole",
      "outputs": [],
      "stateMutability": "pure",
      "type": "function"
    },
    {
      "inputs": [
        {
          "internalType": "bytes32",
          "name": "role",
          "type": "bytes32"
        },
        {
          "internalType": "address",
          "name": "account",
          "type": "address"
        }
      ],
      "name": "hasRole",
      "outputs": [
        {
          "internalType": "bool",
          "name": "",
          "type": "bool"
        }
      ],
      "stateMutability": "pure",
      "type": "function"
    },
    {
      "inputs": [
        {
          "internalType": "address",
          "name": "_oldPositionStore",
          "type": "address"
        },
        {
          "internalType": "address",
          "name": "_positionBook",
          "type": "address"
        }
      ],
      "name": "initialize",
      "outputs": [],
      "stateMutability": "nonpayable",
      "type": "function"
    },
    {
      "inputs": [
        {
          "internalType": "bool",
          "name": "islong",
          "type": "bool"
        }
      ],
      "name": "initialize",
      "outputs": [],
      "stateMutability": "nonpayable",
      "type": "function"
    },
    {
      "inputs": [],
      "name": "isLong",
      "outputs": [
        {
          "internalType": "bool",
          "name": "",
          "type": "bool"
        }
      ],
      "stateMutability": "view",
      "type": "function"
    },
    {
      "inputs": [
        {
          "internalType": "uint256",
          "name": "start",
          "type": "uint256"
        },
        {
          "internalType": "uint256",
          "name": "end",
          "type": "uint256"
        }
      ],
      "name": "migrate",
      "outputs": [],
      "stateMutability": "nonpayable",
      "type": "function"
    },
    {
      "inputs": [],
      "name": "oldPositionStore",
      "outputs": [
        {
          "internalType": "address",
          "name": "",
          "type": "address"
        }
      ],
      "stateMutability": "view",
      "type": "function"
    },
    {
      "inputs": [
        {
          "internalType": "address",
          "name": "account",
          "type": "address"
        },
        {
          "components": [
            {
              "internalType": "address",
              "name": "market",
              "type": "address"
            },
            {
              "internalType": "bool",
              "name": "isLong",
              "type": "bool"
            },
            {
              "internalType": "uint32",
              "name": "lastTime",
              "type": "uint32"
            },
            {
              "internalType": "uint216",
              "name": "extra3",
              "type": "uint216"
            },
            {
              "internalType": "uint256",
              "name": "size",
              "type": "uint256"
            },
            {
              "internalType": "uint256",
              "name": "collateral",
              "type": "uint256"
            },
            {
              "internalType": "uint256",
              "name": "averagePrice",
              "type": "uint256"
            },
            {
              "internalType": "int256",
              "name": "entryFundingRate",
              "type": "int256"
            },
            {
              "internalType": "int256",
              "name": "realisedPnl",
              "type": "int256"
            },
            {
              "internalType": "uint256",
              "name": "extra0",
              "type": "uint256"
            },
            {
              "internalType": "uint256",
              "name": "extra1",
              "type": "uint256"
            },
            {
              "internalType": "uint256",
              "name": "extra2",
              "type": "uint256"
            }
          ],
          "internalType": "struct Position.Props",
          "name": "globalPosition",
          "type": "tuple"
        }
      ],
      "name": "remove",
      "outputs": [],
      "stateMutability": "nonpayable",
      "type": "function"
    },
    {
      "inputs": [
        {
          "internalType": "bytes32",
          "name": "role",
          "type": "bytes32"
        },
        {
          "internalType": "address",
          "name": "account",
          "type": "address"
        }
      ],
      "name": "revokeRole",
      "outputs": [],
      "stateMutability": "pure",
      "type": "function"
    },
    {
      "inputs": [
        {
          "internalType": "address",
          "name": "account",
          "type": "address"
        },
        {
          "components": [
            {
              "internalType": "address",
              "name": "market",
              "type": "address"
            },
            {
              "internalType": "bool",
              "name": "isLong",
              "type": "bool"
            },
            {
              "internalType": "uint32",
              "name": "lastTime",
              "type": "uint32"
            },
            {
              "internalType": "uint216",
              "name": "extra3",
              "type": "uint216"
            },
            {
              "internalType": "uint256",
              "name": "size",
              "type": "uint256"
            },
            {
              "internalType": "uint256",
              "name": "collateral",
              "type": "uint256"
            },
            {
              "internalType": "uint256",
              "name": "averagePrice",
              "type": "uint256"
            },
            {
              "internalType": "int256",
              "name": "entryFundingRate",
              "type": "int256"
            },
            {
              "internalType": "int256",
              "name": "realisedPnl",
              "type": "int256"
            },
            {
              "internalType": "uint256",
              "name": "extra0",
              "type": "uint256"
            },
            {
              "internalType": "uint256",
              "name": "extra1",
              "type": "uint256"
            },
            {
              "internalType": "uint256",
              "name": "extra2",
              "type": "uint256"
            }
          ],
          "internalType": "struct Position.Props",
          "name": "position",
          "type": "tuple"
        },
        {
          "components": [
            {
              "internalType": "address",
              "name": "market",
              "type": "address"
            },
            {
              "internalType": "bool",
              "name": "isLong",
              "type": "bool"
            },
            {
              "internalType": "uint32",
              "name": "lastTime",
              "type": "uint32"
            },
            {
              "internalType": "uint216",
              "name": "extra3",
              "type": "uint216"
            },
            {
              "internalType": "uint256",
              "name": "size",
              "type": "uint256"
            },
            {
              "internalType": "uint256",
              "name": "collateral",
              "type": "uint256"
            },
            {
              "internalType": "uint256",
              "name": "averagePrice",
              "type": "uint256"
            },
            {
              "internalType": "int256",
              "name": "entryFundingRate",
              "type": "int256"
            },
            {
              "internalType": "int256",
              "name": "realisedPnl",
              "type": "int256"
            },
            {
              "internalType": "uint256",
              "name": "extra0",
              "type": "uint256"
            },
            {
              "internalType": "uint256",
              "name": "extra1",
              "type": "uint256"
            },
            {
              "internalType": "uint256",
              "name": "extra2",
              "type": "uint256"
            }
          ],
          "internalType": "struct Position.Props",
          "name": "globalPosition",
          "type": "tuple"
        }
      ],
      "name": "set",
      "outputs": [],
      "stateMutability": "nonpayable",
      "type": "function"
    },
    {
      "inputs": [
        {
          "internalType": "address",
          "name": "to",
          "type": "address"
        }
      ],
      "name": "transferAdmin",
      "outputs": [],
      "stateMutability": "nonpayable",
      "type": "function"
    },
    {
      "inputs": [
        {
          "internalType": "address",
          "name": "newOwner",
          "type": "address"
        }
      ],
      "name": "transferOwnership",
      "outputs": [],
      "stateMutability": "pure",
      "type": "function"
    }
  ],
  "bytecode": "0x608060405234801561001057600080fd5b50611956806100206000396000f3fe608060405234801561001057600080fd5b50600436106101375760003560e01c80637fe4a698116100b8578063b7ed13571161007c578063b7ed13571461027c578063c2bc2efc1461028f578063d29d44ee146102a2578063d53a822f146102b3578063d547741f14610185578063f2fde38b146102a257600080fd5b80637fe4a6981461022e57806381683476146102415780639027b59e1461024957806391d148541461025e578063a217fddf1461027457600080fd5b8063485cc955116100ff578063485cc955146101aa5780634efab042146101bd5780635dbe47e8146101e857806375829def146101fb5780637f497d971461020e57600080fd5b80631ee229be1461013c578063202a61a1146101535780632d015618146101705780632f2ff15d146101855780633e54bacb14610197575b600080fd5b6008545b6040519081526020015b60405180910390f35b6002546101609060ff1681565b604051901515815260200161014a565b61018361017e366004611256565b6102c6565b005b61018361019336600461128d565b5050565b6101836101a53660046112bd565b610591565b6101836101b83660046112df565b610a55565b6010546101d0906001600160a01b031681565b6040516001600160a01b03909116815260200161014a565b6101606101f636600461130d565b610c02565b61018361020936600461130d565b610c15565b61022161021c3660046112bd565b610c20565b60405161014a919061132a565b61018361023c36600461130d565b6102b0565b610140610c35565b610251610c46565b60405161014a9190611377565b61016061026c36600461128d565b600192915050565b610140600081565b61018361028a36600461142e565b610ce6565b61025161029d36600461130d565b610d78565b6101836102b036600461130d565b50565b6101836102c1366004611485565b610e3f565b60006102d3600484610f0f565b9050806103275760405162461bcd60e51b815260206004820152601760248201527f706f736974696f6e20646f6573206e6f7420657869737400000000000000000060448201526064015b60405180910390fd5b81600661033482826114fd565b905050600060036000856001600160a01b03166001600160a01b03168152602001908152602001600020604051806101800160405290816000820160009054906101000a90046001600160a01b03166001600160a01b03166001600160a01b031681526020016000820160149054906101000a900460ff161515151581526020016000820160159054906101000a900463ffffffff1663ffffffff1663ffffffff1681526020016001820160009054906101000a90046001600160d81b03166001600160d81b03166001600160d81b0316815260200160028201548152602001600382015481526020016004820154815260200160058201548152602001600682015481526020016007820154815260200160088201548152602001600982015481525050905060036000856001600160a01b03166001600160a01b03168152602001908152602001600020600080820160006101000a8154906001600160a01b0302191690556000820160146101000a81549060ff02191690556000820160156101000a81549063ffffffff02191690556001820160006101000a8154906001600160d81b030219169055600282016000905560038201600090556004820160009055600582016000905560068201600090556007820160009055600882016000905560098201600090555050610536846004610f3190919063ffffffff16565b50836001600160a01b03167f20b3ac24c835264e655c493af7b3db37ff78a0f358627f0de89832abc7e1deca82608001518360a00151604051610583929190918252602082015260400190565b60405180910390a250505050565b601054604051637f497d9760e01b815260048101849052602481018390526000916001600160a01b03169082908290637f497d9790604401600060405180830381865afa1580156105e6573d6000803e3d6000fd5b505050506040513d6000823e601f3d908101601f1916820160405261060e9190810190611692565b9050816001600160a01b0316639027b59e6040518163ffffffff1660e01b815260040161018060405180830381865afa15801561064f573d6000803e3d6000fd5b505050506040513d601f19601f820116820180604052508101906106739190611765565b8051600680546020840151604085015163ffffffff16600160a81b0263ffffffff60a81b19911515600160a01b026001600160a81b03199093166001600160a01b039095169490941791909117169190911790556060810151600780546001600160d81b039092166001600160d81b0319909216919091179055608081015160085560a081015160095560c0810151600a5560e0810151600b55610100810151600c55610120810151600d55610140810151600e556101600151600f556000805b825181101561093f5760008382815181106107515761075161181b565b60209081029190910101516040516330af0bbf60e21b81526001600160a01b03808316600483015291925060009187169063c2bc2efc9060240161018060405180830381865afa1580156107a9573d6000803e3d6000fd5b505050506040513d601f19601f820116820180604052508101906107cd9190611765565b6001600160a01b0383811660009081526003602081815260409283902085518154928701519487015195166001600160a81b031990921691909117600160a01b931515939093029290921763ffffffff60a81b1916600160a81b63ffffffff9485160217825560608401516001830180546001600160d81b0319166001600160d81b039092169190911790556080840151600283015560a08401519082015560c083015160048083019190915560e084015160058301556101008401516006830155610120840151600783015561014084015160088301556101608401516009909201919091559192506108c491908490610f4616565b5060808101516108d49085611847565b9350816001600160a01b03167f0d77a4156ff764dade22a2cd25a68a83ff04b20df143bba5d162a6a98070262382608001518360a00151604051610922929190918252602082015260400190565b60405180910390a2505080806109379061185a565b915050610734565b5060085481146109915760405162461bcd60e51b815260206004820152601960248201527f6d6967726174696f6e2073697a6520646f6573206d6174636800000000000000604482015260640161031e565b610999610c35565b836001600160a01b031663816834766040518163ffffffff1660e01b8152600401602060405180830381865afa1580156109d7573d6000803e3d6000fd5b505050506040513d601f19601f820116820180604052508101906109fb9190611873565b14610a0557600080fd5b60105460408051888152602081018890526001600160a01b03909216917f3aa0cc68900a51ae3ff7d219e3de8c619d53584ccd442af0ba1636cb78fc42d7910160405180910390a2505050505050565b600054610100900460ff1615808015610a755750600054600160ff909116105b80610a8f5750303b158015610a8f575060005460ff166001145b610aab5760405162461bcd60e51b815260040161031e9061188c565b6000805460ff191660011790558015610ace576000805461ff0019166101001790555b610ad733610f5b565b601080546001600160a01b0319166001600160a01b0385169081179091556040805163202a61a160e01b8152905163202a61a1916004808201926020929091908290030181865afa158015610b30573d6000803e3d6000fd5b505050506040513d601f19601f82011682018060405250810190610b5491906118da565b6002805460ff19169115159182179055601054604080516001600160a01b03868116825260ff909416151560208201529290911682820152517fc3f74e23ed9c93c3a26c292a1fd4756463ce8a3d6c4d09ab27155e53332f3d6f9181900360600190a18015610bfd576000805461ff0019169055604051600181527f7f26b83ff96e1f2b6a682f133852f6798a09c465da95921460cefb38474024989060200160405180910390a15b505050565b6000610c0f600483610f0f565b92915050565b600061019360003382565b6060610c2e60048484610f62565b9392505050565b6000610c416004611030565b905090565b610c4e6111ad565b5060408051610180810182526006546001600160a01b0381168252600160a01b810460ff1615156020830152600160a81b900463ffffffff16918101919091526007546001600160d81b03166060820152600854608082015260095460a0820152600a5460c0820152600b5460e0820152600c54610100820152600d54610120820152600e54610140820152600f5461016082015290565b806006610cf382826114fd565b50506001600160a01b03831660009081526003602052604090208290610d1982826114fd565b50610d279050600484610f46565b50604080516080840135815260a084013560208201526001600160a01b038516917f0d77a4156ff764dade22a2cd25a68a83ff04b20df143bba5d162a6a980702623910160405180910390a2505050565b610d806111ad565b506001600160a01b0390811660009081526003602081815260409283902083516101808101855281549586168152600160a01b860460ff16151592810192909252600160a81b90940463ffffffff169281019290925260018301546001600160d81b031660608301526002830154608083015282015460a0820152600482015460c0820152600582015460e082015260068201546101008201526007820154610120820152600882015461014082015260099091015461016082015290565b600054610100900460ff1615808015610e5f5750600054600160ff909116105b80610e795750303b158015610e79575060005460ff166001145b610e955760405162461bcd60e51b815260040161031e9061188c565b6000805460ff191660011790558015610eb8576000805461ff0019166101001790555b6002805460ff19168315151790558015610193576000805461ff0019169055604051600181527f7f26b83ff96e1f2b6a682f133852f6798a09c465da95921460cefb38474024989060200160405180910390a15050565b6001600160a01b03811660009081526001830160205260408120541515610c2e565b6000610c2e836001600160a01b03841661103a565b6000610c2e836001600160a01b03841661112d565b4260015550565b60606000610f6f85611030565b905080831115610f7d578092505b6000610f8985856118f7565b67ffffffffffffffff811115610fa157610fa1611611565b604051908082528060200260200182016040528015610fca578160200160208202803683370190505b509050845b8481101561102657610fe1878261117c565b82610fec88846118f7565b81518110610ffc57610ffc61181b565b6001600160a01b03909216602092830291909101909101528061101e8161185a565b915050610fcf565b5095945050505050565b6000610c0f825490565b6000818152600183016020526040812054801561112357600061105e6001836118f7565b8554909150600090611072906001906118f7565b90508181146110d75760008660000182815481106110925761109261181b565b90600052602060002001549050808760000184815481106110b5576110b561181b565b6000918252602080832090910192909255918252600188019052604090208390555b85548690806110e8576110e861190a565b600190038181906000526020600020016000905590558560010160008681526020019081526020016000206000905560019350505050610c0f565b6000915050610c0f565b600081815260018301602052604081205461117457508154600181810184556000848152602080822090930184905584548482528286019093526040902091909155610c0f565b506000610c0f565b6000610c2e8383600082600001828154811061119a5761119a61181b565b9060005260206000200154905092915050565b60405180610180016040528060006001600160a01b03168152602001600015158152602001600063ffffffff16815260200160006001600160d81b0316815260200160008152602001600081526020016000815260200160008152602001600081526020016000815260200160008152602001600081525090565b6001600160a01b03811681146102b057600080fd5b6000610180828403121561125057600080fd5b50919050565b6000806101a0838503121561126a57600080fd5b823561127581611228565b9150611284846020850161123d565b90509250929050565b600080604083850312156112a057600080fd5b8235915060208301356112b281611228565b809150509250929050565b600080604083850312156112d057600080fd5b50508035926020909101359150565b600080604083850312156112f257600080fd5b82356112fd81611228565b915060208301356112b281611228565b60006020828403121561131f57600080fd5b8135610c2e81611228565b6020808252825182820181905260009190848201906040850190845b8181101561136b5783516001600160a01b031683529284019291840191600101611346565b50909695505050505050565b81516001600160a01b031681526101808101602083015161139c602084018215159052565b5060408301516113b4604084018263ffffffff169052565b5060608301516113cf60608401826001600160d81b03169052565b506080830151608083015260a083015160a083015260c083015160c083015260e083015160e083015261010080840151818401525061012080840151818401525061014080840151818401525061016080840151818401525092915050565b6000806000610320848603121561144457600080fd5b833561144f81611228565b925061145e856020860161123d565b915061146e856101a0860161123d565b90509250925092565b80151581146102b057600080fd5b60006020828403121561149757600080fd5b8135610c2e81611477565b60008135610c0f81611228565b60008135610c0f81611477565b63ffffffff811681146102b057600080fd5b60008135610c0f816114bc565b6001600160d81b03811681146102b057600080fd5b60008135610c0f816114db565b611526611509836114a2565b82546001600160a01b0319166001600160a01b0391909116178255565b611553611535602084016114af565b82805460ff60a01b191691151560a01b60ff60a01b16919091179055565b611586611562604084016114ce565b82805463ffffffff60a81b191660a89290921b63ffffffff60a81b16919091179055565b6115b9611595606084016114f0565b6001830180546001600160d81b0319166001600160d81b0392909216919091179055565b6080820135600282015560a0820135600382015560c0820135600482015560e0820135600582015561010082013560068201556101208201356007820155610140820135600882015561016082013560098201555050565b634e487b7160e01b600052604160045260246000fd5b604051610180810167ffffffffffffffff8111828210171561164b5761164b611611565b60405290565b604051601f8201601f1916810167ffffffffffffffff8111828210171561167a5761167a611611565b604052919050565b805161168d81611228565b919050565b600060208083850312156116a557600080fd5b825167ffffffffffffffff808211156116bd57600080fd5b818501915085601f8301126116d157600080fd5b8151818111156116e3576116e3611611565b8060051b91506116f4848301611651565b818152918301840191848101908884111561170e57600080fd5b938501935b83851015611738578451925061172883611228565b8282529385019390850190611713565b98975050505050505050565b805161168d81611477565b805161168d816114bc565b805161168d816114db565b6000610180828403121561177857600080fd5b611780611627565b61178983611682565b815261179760208401611744565b60208201526117a86040840161174f565b60408201526117b96060840161175a565b60608201526080838101519082015260a0808401519082015260c0808401519082015260e08084015190820152610100808401519082015261012080840151908201526101408084015190820152610160928301519281019290925250919050565b634e487b7160e01b600052603260045260246000fd5b634e487b7160e01b600052601160045260246000fd5b80820180821115610c0f57610c0f611831565b60006001820161186c5761186c611831565b5060010190565b60006020828403121561188557600080fd5b5051919050565b6020808252602e908201527f496e697469616c697a61626c653a20636f6e747261637420697320616c72656160408201526d191e481a5b9a5d1a585b1a5e995960921b606082015260800190565b6000602082840312156118ec57600080fd5b8151610c2e81611477565b81810381811115610c0f57610c0f611831565b634e487b7160e01b600052603160045260246000fdfea264697066735822122070d6d7e1ec36cff17a9d29c2a2b3c23f10b83da15ddc53fe3fec81c6fa8f98cc64736f6c63430008110033",
  "linkReferences": {},
  "deployedLinkReferences": {}
}