{
  "_format": "hh-sol-artifact-1",
  "contractName": "PositionStoreV2",
  "sourceName": "contracts/position/PositionStoreV2.sol",
  "abi": [
    {
      "anonymous": false,
      "inputs": [
        {
          "indexed": false,
          "internalType": "uint8",
          "name": "version",
          "type": "uint8"
        }
      ],
      "name": "Initialized",
      "type": "event"
    },
    {
      "anonymous": false,
      "inputs": [
        {
          "indexed": true,
          "internalType": "address",
          "name": "migrateFrom",
          "type": "address"
        },
        {
          "indexed": false,
          "internalType": "uint256",
          "name": "start",
          "type": "uint256"
        },
        {
          "indexed": false,
          "internalType": "uint256",
          "name": "end",
          "type": "uint256"
        }
      ],
      "name": "MigratePositions",
      "type": "event"
    },
    {
      "anonymous": false,
      "inputs": [
        {
          "indexed": false,
          "internalType": "address",
          "name": "positionbook",
          "type": "address"
        },
        {
          "indexed": false,
          "internalType": "bool",
          "name": "isLong",
          "type": "bool"
        },
        {
          "indexed": false,
          "internalType": "address",
          "name": "oldStore",
          "type": "address"
        }
      ],
      "name": "PositionStoreV2Initialized",
      "type": "event"
    },
    {
      "anonymous": false,
      "inputs": [
        {
          "indexed": true,
          "internalType": "address",
          "name": "account",
          "type": "address"
        },
        {
          "indexed": false,
          "internalType": "uint256",
          "name": "size",
          "type": "uint256"
        },
        {
          "indexed": false,
          "internalType": "uint256",
          "name": "collateral",
          "type": "uint256"
        }
      ],
      "name": "RemovePosition",
      "type": "event"
    },
    {
      "anonymous": false,
      "inputs": [
        {
          "indexed": true,
          "internalType": "address",
          "name": "account",
          "type": "address"
        },
        {
          "indexed": false,
          "internalType": "uint256",
          "name": "size",
          "type": "uint256"
        },
        {
          "indexed": false,
          "internalType": "uint256",
          "name": "collateral",
          "type": "uint256"
        }
      ],
      "name": "UpdatePosition",
      "type": "event"
    },
    {
      "inputs": [],
      "name": "DEFAULT_ADMIN_ROLE",
      "outputs": [
        {
          "internalType": "bytes32",
          "name": "",
          "type": "bytes32"
        }
      ],
      "stateMutability": "view",
      "type": "function"
    },
    {
      "inputs": [
        {
          "internalType": "address",
          "name": "newOwner",
          "type": "address"
        }
      ],
      "name": "_transferOwnership",
      "outputs": [],
      "stateMutability": "pure",
      "type": "function"
    },
    {
      "inputs": [
        {
          "internalType": "address",
          "name": "account",
          "type": "address"
        }
      ],
      "name": "contains",
      "outputs": [
        {
          "internalType": "bool",
          "name": "",
          "type": "bool"
        }
      ],
      "stateMutability": "view",
      "type": "function"
    },
    {
      "inputs": [
        {
          "internalType": "address",
          "name": "account",
          "type": "address"
        }
      ],
      "name": "get",
      "outputs": [
        {
          "components": [
            {
              "internalType": "address",
              "name": "market",
              "type": "address"
            },
            {
              "internalType": "bool",
              "name": "isLong",
              "type": "bool"
            },
            {
              "internalType": "uint32",
              "name": "lastTime",
              "type": "uint32"
            },
            {
              "internalType": "uint216",
              "name": "extra3",
              "type": "uint216"
            },
            {
              "internalType": "uint256",
              "name": "size",
              "type": "uint256"
            },
            {
              "internalType": "uint256",
              "name": "collateral",
              "type": "uint256"
            },
            {
              "internalType": "uint256",
              "name": "averagePrice",
              "type": "uint256"
            },
            {
              "internalType": "int256",
              "name": "entryFundingRate",
              "type": "int256"
            },
            {
              "internalType": "int256",
              "name": "realisedPnl",
              "type": "int256"
            },
            {
              "internalType": "uint256",
              "name": "extra0",
              "type": "uint256"
            },
            {
              "internalType": "uint256",
              "name": "extra1",
              "type": "uint256"
            },
            {
              "internalType": "uint256",
              "name": "extra2",
              "type": "uint256"
            }
          ],
          "internalType": "struct Position.Props",
          "name": "",
          "type": "tuple"
        }
      ],
      "stateMutability": "view",
      "type": "function"
    },
    {
      "inputs": [],
      "name": "getGlobalPosition",
      "outputs": [
        {
          "components": [
            {
              "internalType": "address",
              "name": "market",
              "type": "address"
            },
            {
              "internalType": "bool",
              "name": "isLong",
              "type": "bool"
            },
            {
              "internalType": "uint32",
              "name": "lastTime",
              "type": "uint32"
            },
            {
              "internalType": "uint216",
              "name": "extra3",
              "type": "uint216"
            },
            {
              "internalType": "uint256",
              "name": "size",
              "type": "uint256"
            },
            {
              "internalType": "uint256",
              "name": "collateral",
              "type": "uint256"
            },
            {
              "internalType": "uint256",
              "name": "averagePrice",
              "type": "uint256"
            },
            {
              "internalType": "int256",
              "name": "entryFundingRate",
              "type": "int256"
            },
            {
              "internalType": "int256",
              "name": "realisedPnl",
              "type": "int256"
            },
            {
              "internalType": "uint256",
              "name": "extra0",
              "type": "uint256"
            },
            {
              "internalType": "uint256",
              "name": "extra1",
              "type": "uint256"
            },
            {
              "internalType": "uint256",
              "name": "extra2",
              "type": "uint256"
            }
          ],
          "internalType": "struct Position.Props",
          "name": "",
          "type": "tuple"
        }
      ],
      "stateMutability": "view",
      "type": "function"
    },
    {
      "inputs": [],
      "name": "getPositionCount",
      "outputs": [
        {
          "internalType": "uint256",
          "name": "",
          "type": "uint256"
        }
      ],
      "stateMutability": "view",
      "type": "function"
    },
    {
      "inputs": [
        {
          "internalType": "uint256",
          "name": "start",
          "type": "uint256"
        },
        {
          "internalType": "uint256",
          "name": "end",
          "type": "uint256"
        }
      ],
      "name": "getPositionKeys",
      "outputs": [
        {
          "internalType": "address[]",
          "name": "",
          "type": "address[]"
        }
      ],
      "stateMutability": "view",
      "type": "function"
    },
    {
      "inputs": [],
      "name": "globalSize",
      "outputs": [
        {
          "internalType": "uint256",
          "name": "",
          "type": "uint256"
        }
      ],
      "stateMutability": "view",
      "type": "function"
    },
    {
      "inputs": [
        {
          "internalType": "address",
          "name": "_account",
          "type": "address"
        }
      ],
      "name": "grantControllerRoleByMarketManager",
      "outputs": [],
      "stateMutability": "nonpayable",
      "type": "function"
    },
    {
      "inputs": [
        {
          "internalType": "bytes32",
          "name": "role",
          "type": "bytes32"
        },
        {
          "internalType": "address",
          "name": "account",
          "type": "address"
        }
      ],
      "name": "grantRole",
      "outputs": [],
      "stateMutability": "pure",
      "type": "function"
    },
    {
      "inputs": [
        {
          "internalType": "bytes32",
          "name": "role",
          "type": "bytes32"
        },
        {
          "internalType": "address",
          "name": "account",
          "type": "address"
        }
      ],
      "name": "hasRole",
      "outputs": [
        {
          "internalType": "bool",
          "name": "",
          "type": "bool"
        }
      ],
      "stateMutability": "pure",
      "type": "function"
    },
    {
      "inputs": [
        {
          "internalType": "address",
          "name": "_oldPositionStore",
          "type": "address"
        },
        {
          "internalType": "address",
          "name": "_positionBook",
          "type": "address"
        }
      ],
      "name": "initialize",
      "outputs": [],
      "stateMutability": "nonpayable",
      "type": "function"
    },
    {
      "inputs": [],
      "name": "isLong",
      "outputs": [
        {
          "internalType": "bool",
          "name": "",
          "type": "bool"
        }
      ],
      "stateMutability": "view",
      "type": "function"
    },
    {
      "inputs": [
        {
          "internalType": "uint256",
          "name": "start",
          "type": "uint256"
        },
        {
          "internalType": "uint256",
          "name": "end",
          "type": "uint256"
        }
      ],
      "name": "migrate",
      "outputs": [],
      "stateMutability": "nonpayable",
      "type": "function"
    },
    {
      "inputs": [],
      "name": "oldPositionStore",
      "outputs": [
        {
          "internalType": "address",
          "name": "",
          "type": "address"
        }
      ],
      "stateMutability": "view",
      "type": "function"
    },
    {
      "inputs": [
        {
          "internalType": "address",
          "name": "account",
          "type": "address"
        },
        {
          "components": [
            {
              "internalType": "address",
              "name": "market",
              "type": "address"
            },
            {
              "internalType": "bool",
              "name": "isLong",
              "type": "bool"
            },
            {
              "internalType": "uint32",
              "name": "lastTime",
              "type": "uint32"
            },
            {
              "internalType": "uint216",
              "name": "extra3",
              "type": "uint216"
            },
            {
              "internalType": "uint256",
              "name": "size",
              "type": "uint256"
            },
            {
              "internalType": "uint256",
              "name": "collateral",
              "type": "uint256"
            },
            {
              "internalType": "uint256",
              "name": "averagePrice",
              "type": "uint256"
            },
            {
              "internalType": "int256",
              "name": "entryFundingRate",
              "type": "int256"
            },
            {
              "internalType": "int256",
              "name": "realisedPnl",
              "type": "int256"
            },
            {
              "internalType": "uint256",
              "name": "extra0",
              "type": "uint256"
            },
            {
              "internalType": "uint256",
              "name": "extra1",
              "type": "uint256"
            },
            {
              "internalType": "uint256",
              "name": "extra2",
              "type": "uint256"
            }
          ],
          "internalType": "struct Position.Props",
          "name": "globalPosition",
          "type": "tuple"
        }
      ],
      "name": "remove",
      "outputs": [],
      "stateMutability": "nonpayable",
      "type": "function"
    },
    {
      "inputs": [
        {
          "internalType": "bytes32",
          "name": "role",
          "type": "bytes32"
        },
        {
          "internalType": "address",
          "name": "account",
          "type": "address"
        }
      ],
      "name": "revokeRole",
      "outputs": [],
      "stateMutability": "pure",
      "type": "function"
    },
    {
      "inputs": [
        {
          "internalType": "address",
          "name": "account",
          "type": "address"
        },
        {
          "components": [
            {
              "internalType": "address",
              "name": "market",
              "type": "address"
            },
            {
              "internalType": "bool",
              "name": "isLong",
              "type": "bool"
            },
            {
              "internalType": "uint32",
              "name": "lastTime",
              "type": "uint32"
            },
            {
              "internalType": "uint216",
              "name": "extra3",
              "type": "uint216"
            },
            {
              "internalType": "uint256",
              "name": "size",
              "type": "uint256"
            },
            {
              "internalType": "uint256",
              "name": "collateral",
              "type": "uint256"
            },
            {
              "internalType": "uint256",
              "name": "averagePrice",
              "type": "uint256"
            },
            {
              "internalType": "int256",
              "name": "entryFundingRate",
              "type": "int256"
            },
            {
              "internalType": "int256",
              "name": "realisedPnl",
              "type": "int256"
            },
            {
              "internalType": "uint256",
              "name": "extra0",
              "type": "uint256"
            },
            {
              "internalType": "uint256",
              "name": "extra1",
              "type": "uint256"
            },
            {
              "internalType": "uint256",
              "name": "extra2",
              "type": "uint256"
            }
          ],
          "internalType": "struct Position.Props",
          "name": "position",
          "type": "tuple"
        },
        {
          "components": [
            {
              "internalType": "address",
              "name": "market",
              "type": "address"
            },
            {
              "internalType": "bool",
              "name": "isLong",
              "type": "bool"
            },
            {
              "internalType": "uint32",
              "name": "lastTime",
              "type": "uint32"
            },
            {
              "internalType": "uint216",
              "name": "extra3",
              "type": "uint216"
            },
            {
              "internalType": "uint256",
              "name": "size",
              "type": "uint256"
            },
            {
              "internalType": "uint256",
              "name": "collateral",
              "type": "uint256"
            },
            {
              "internalType": "uint256",
              "name": "averagePrice",
              "type": "uint256"
            },
            {
              "internalType": "int256",
              "name": "entryFundingRate",
              "type": "int256"
            },
            {
              "internalType": "int256",
              "name": "realisedPnl",
              "type": "int256"
            },
            {
              "internalType": "uint256",
              "name": "extra0",
              "type": "uint256"
            },
            {
              "internalType": "uint256",
              "name": "extra1",
              "type": "uint256"
            },
            {
              "internalType": "uint256",
              "name": "extra2",
              "type": "uint256"
            }
          ],
          "internalType": "struct Position.Props",
          "name": "globalPosition",
          "type": "tuple"
        }
      ],
      "name": "set",
      "outputs": [],
      "stateMutability": "nonpayable",
      "type": "function"
    },
    {
      "inputs": [
        {
          "internalType": "address",
          "name": "to",
          "type": "address"
        }
      ],
      "name": "transferAdmin",
      "outputs": [],
      "stateMutability": "nonpayable",
      "type": "function"
    },
    {
      "inputs": [
        {
          "internalType": "address",
          "name": "newOwner",
          "type": "address"
        }
      ],
      "name": "transferOwnership",
      "outputs": [],
      "stateMutability": "pure",
      "type": "function"
    }
  ],
  "bytecode": "0x608060405234801561001057600080fd5b50611844806100206000396000f3fe608060405234801561001057600080fd5b506004361061012c5760003560e01c80637fe4a698116100ad578063b7ed135711610071578063b7ed135714610271578063c2bc2efc14610284578063d29d44ee14610297578063d547741f1461017a578063f2fde38b1461029757600080fd5b80637fe4a6981461022357806381683476146102365780639027b59e1461023e57806391d1485414610253578063a217fddf1461026957600080fd5b8063485cc955116100f4578063485cc9551461019f5780634efab042146101b25780635dbe47e8146101dd57806375829def146101f05780637f497d971461020357600080fd5b80631ee229be14610131578063202a61a1146101485780632d015618146101655780632f2ff15d1461017a5780633e54bacb1461018c575b600080fd5b6008545b6040519081526020015b60405180910390f35b6002546101559060ff1681565b604051901515815260200161013f565b6101786101733660046111af565b6102a8565b005b6101786101883660046111e6565b5050565b61017861019a366004611216565b610573565b6101786101ad366004611238565b610a37565b6010546101c5906001600160a01b031681565b6040516001600160a01b03909116815260200161013f565b6101556101eb366004611266565b610c2b565b6101786101fe366004611266565b610c3e565b610216610211366004611216565b610c49565b60405161013f9190611283565b610178610231366004611266565b6102a5565b610135610c5e565b610246610c6f565b60405161013f91906112d0565b6101556102613660046111e6565b600192915050565b610135600081565b61017861027f366004611387565b610d0f565b610246610292366004611266565b610da1565b6101786102a5366004611266565b50565b60006102b5600484610e68565b9050806103095760405162461bcd60e51b815260206004820152601760248201527f706f736974696f6e20646f6573206e6f7420657869737400000000000000000060448201526064015b60405180910390fd5b8160066103168282611439565b905050600060036000856001600160a01b03166001600160a01b03168152602001908152602001600020604051806101800160405290816000820160009054906101000a90046001600160a01b03166001600160a01b03166001600160a01b031681526020016000820160149054906101000a900460ff161515151581526020016000820160159054906101000a900463ffffffff1663ffffffff1663ffffffff1681526020016001820160009054906101000a90046001600160d81b03166001600160d81b03166001600160d81b0316815260200160028201548152602001600382015481526020016004820154815260200160058201548152602001600682015481526020016007820154815260200160088201548152602001600982015481525050905060036000856001600160a01b03166001600160a01b03168152602001908152602001600020600080820160006101000a8154906001600160a01b0302191690556000820160146101000a81549060ff02191690556000820160156101000a81549063ffffffff02191690556001820160006101000a8154906001600160d81b030219169055600282016000905560038201600090556004820160009055600582016000905560068201600090556007820160009055600882016000905560098201600090555050610518846004610e8a90919063ffffffff16565b50836001600160a01b03167f20b3ac24c835264e655c493af7b3db37ff78a0f358627f0de89832abc7e1deca82608001518360a00151604051610565929190918252602082015260400190565b60405180910390a250505050565b601054604051637f497d9760e01b815260048101849052602481018390526000916001600160a01b03169082908290637f497d9790604401600060405180830381865afa1580156105c8573d6000803e3d6000fd5b505050506040513d6000823e601f3d908101601f191682016040526105f091908101906115ce565b9050816001600160a01b0316639027b59e6040518163ffffffff1660e01b815260040161018060405180830381865afa158015610631573d6000803e3d6000fd5b505050506040513d601f19601f8201168201806040525081019061065591906116a1565b8051600680546020840151604085015163ffffffff16600160a81b0263ffffffff60a81b19911515600160a01b026001600160a81b03199093166001600160a01b039095169490941791909117169190911790556060810151600780546001600160d81b039092166001600160d81b0319909216919091179055608081015160085560a081015160095560c0810151600a5560e0810151600b55610100810151600c55610120810151600d55610140810151600e556101600151600f556000805b825181101561092157600083828151811061073357610733611757565b60209081029190910101516040516330af0bbf60e21b81526001600160a01b03808316600483015291925060009187169063c2bc2efc9060240161018060405180830381865afa15801561078b573d6000803e3d6000fd5b505050506040513d601f19601f820116820180604052508101906107af91906116a1565b6001600160a01b0383811660009081526003602081815260409283902085518154928701519487015195166001600160a81b031990921691909117600160a01b931515939093029290921763ffffffff60a81b1916600160a81b63ffffffff9485160217825560608401516001830180546001600160d81b0319166001600160d81b039092169190911790556080840151600283015560a08401519082015560c083015160048083019190915560e084015160058301556101008401516006830155610120840151600783015561014084015160088301556101608401516009909201919091559192506108a691908490610e9f16565b5060808101516108b69085611783565b9350816001600160a01b03167f0d77a4156ff764dade22a2cd25a68a83ff04b20df143bba5d162a6a98070262382608001518360a00151604051610904929190918252602082015260400190565b60405180910390a25050808061091990611796565b915050610716565b5060085481146109735760405162461bcd60e51b815260206004820152601960248201527f6d6967726174696f6e2073697a6520646f6573206d61746368000000000000006044820152606401610300565b61097b610c5e565b836001600160a01b031663816834766040518163ffffffff1660e01b8152600401602060405180830381865afa1580156109b9573d6000803e3d6000fd5b505050506040513d601f19601f820116820180604052508101906109dd91906117af565b146109e757600080fd5b60105460408051888152602081018890526001600160a01b03909216917f3aa0cc68900a51ae3ff7d219e3de8c619d53584ccd442af0ba1636cb78fc42d7910160405180910390a2505050505050565b600054610100900460ff1615808015610a575750600054600160ff909116105b80610a715750303b158015610a71575060005460ff166001145b610ad45760405162461bcd60e51b815260206004820152602e60248201527f496e697469616c697a61626c653a20636f6e747261637420697320616c72656160448201526d191e481a5b9a5d1a585b1a5e995960921b6064820152608401610300565b6000805460ff191660011790558015610af7576000805461ff0019166101001790555b610b0033610eb4565b601080546001600160a01b0319166001600160a01b0385169081179091556040805163202a61a160e01b8152905163202a61a1916004808201926020929091908290030181865afa158015610b59573d6000803e3d6000fd5b505050506040513d601f19601f82011682018060405250810190610b7d91906117c8565b6002805460ff19169115159182179055601054604080516001600160a01b03868116825260ff909416151560208201529290911682820152517fc3f74e23ed9c93c3a26c292a1fd4756463ce8a3d6c4d09ab27155e53332f3d6f9181900360600190a18015610c26576000805461ff0019169055604051600181527f7f26b83ff96e1f2b6a682f133852f6798a09c465da95921460cefb38474024989060200160405180910390a15b505050565b6000610c38600483610e68565b92915050565b600061018860003382565b6060610c5760048484610ebb565b9392505050565b6000610c6a6004610f89565b905090565b610c77611106565b5060408051610180810182526006546001600160a01b0381168252600160a01b810460ff1615156020830152600160a81b900463ffffffff16918101919091526007546001600160d81b03166060820152600854608082015260095460a0820152600a5460c0820152600b5460e0820152600c54610100820152600d54610120820152600e54610140820152600f5461016082015290565b806006610d1c8282611439565b50506001600160a01b03831660009081526003602052604090208290610d428282611439565b50610d509050600484610e9f565b50604080516080840135815260a084013560208201526001600160a01b038516917f0d77a4156ff764dade22a2cd25a68a83ff04b20df143bba5d162a6a980702623910160405180910390a2505050565b610da9611106565b506001600160a01b0390811660009081526003602081815260409283902083516101808101855281549586168152600160a01b860460ff16151592810192909252600160a81b90940463ffffffff169281019290925260018301546001600160d81b031660608301526002830154608083015282015460a0820152600482015460c0820152600582015460e082015260068201546101008201526007820154610120820152600882015461014082015260099091015461016082015290565b6001600160a01b03811660009081526001830160205260408120541515610c57565b6000610c57836001600160a01b038416610f93565b6000610c57836001600160a01b038416611086565b4260015550565b60606000610ec885610f89565b905080831115610ed6578092505b6000610ee285856117e5565b67ffffffffffffffff811115610efa57610efa61154d565b604051908082528060200260200182016040528015610f23578160200160208202803683370190505b509050845b84811015610f7f57610f3a87826110d5565b82610f4588846117e5565b81518110610f5557610f55611757565b6001600160a01b039092166020928302919091019091015280610f7781611796565b915050610f28565b5095945050505050565b6000610c38825490565b6000818152600183016020526040812054801561107c576000610fb76001836117e5565b8554909150600090610fcb906001906117e5565b9050818114611030576000866000018281548110610feb57610feb611757565b906000526020600020015490508087600001848154811061100e5761100e611757565b6000918252602080832090910192909255918252600188019052604090208390555b8554869080611041576110416117f8565b600190038181906000526020600020016000905590558560010160008681526020019081526020016000206000905560019350505050610c38565b6000915050610c38565b60008181526001830160205260408120546110cd57508154600181810184556000848152602080822090930184905584548482528286019093526040902091909155610c38565b506000610c38565b6000610c57838360008260000182815481106110f3576110f3611757565b9060005260206000200154905092915050565b60405180610180016040528060006001600160a01b03168152602001600015158152602001600063ffffffff16815260200160006001600160d81b0316815260200160008152602001600081526020016000815260200160008152602001600081526020016000815260200160008152602001600081525090565b6001600160a01b03811681146102a557600080fd5b600061018082840312156111a957600080fd5b50919050565b6000806101a083850312156111c357600080fd5b82356111ce81611181565b91506111dd8460208501611196565b90509250929050565b600080604083850312156111f957600080fd5b82359150602083013561120b81611181565b809150509250929050565b6000806040838503121561122957600080fd5b50508035926020909101359150565b6000806040838503121561124b57600080fd5b823561125681611181565b9150602083013561120b81611181565b60006020828403121561127857600080fd5b8135610c5781611181565b6020808252825182820181905260009190848201906040850190845b818110156112c45783516001600160a01b03168352928401929184019160010161129f565b50909695505050505050565b81516001600160a01b03168152610180810160208301516112f5602084018215159052565b50604083015161130d604084018263ffffffff169052565b50606083015161132860608401826001600160d81b03169052565b506080830151608083015260a083015160a083015260c083015160c083015260e083015160e083015261010080840151818401525061012080840151818401525061014080840151818401525061016080840151818401525092915050565b6000806000610320848603121561139d57600080fd5b83356113a881611181565b92506113b78560208601611196565b91506113c7856101a08601611196565b90509250925092565b60008135610c3881611181565b80151581146102a557600080fd5b60008135610c38816113dd565b63ffffffff811681146102a557600080fd5b60008135610c38816113f8565b6001600160d81b03811681146102a557600080fd5b60008135610c3881611417565b611462611445836113d0565b82546001600160a01b0319166001600160a01b0391909116178255565b61148f611471602084016113eb565b82805460ff60a01b191691151560a01b60ff60a01b16919091179055565b6114c261149e6040840161140a565b82805463ffffffff60a81b191660a89290921b63ffffffff60a81b16919091179055565b6114f56114d16060840161142c565b6001830180546001600160d81b0319166001600160d81b0392909216919091179055565b6080820135600282015560a0820135600382015560c0820135600482015560e0820135600582015561010082013560068201556101208201356007820155610140820135600882015561016082013560098201555050565b634e487b7160e01b600052604160045260246000fd5b604051610180810167ffffffffffffffff811182821017156115875761158761154d565b60405290565b604051601f8201601f1916810167ffffffffffffffff811182821017156115b6576115b661154d565b604052919050565b80516115c981611181565b919050565b600060208083850312156115e157600080fd5b825167ffffffffffffffff808211156115f957600080fd5b818501915085601f83011261160d57600080fd5b81518181111561161f5761161f61154d565b8060051b915061163084830161158d565b818152918301840191848101908884111561164a57600080fd5b938501935b83851015611674578451925061166483611181565b828252938501939085019061164f565b98975050505050505050565b80516115c9816113dd565b80516115c9816113f8565b80516115c981611417565b600061018082840312156116b457600080fd5b6116bc611563565b6116c5836115be565b81526116d360208401611680565b60208201526116e46040840161168b565b60408201526116f560608401611696565b60608201526080838101519082015260a0808401519082015260c0808401519082015260e08084015190820152610100808401519082015261012080840151908201526101408084015190820152610160928301519281019290925250919050565b634e487b7160e01b600052603260045260246000fd5b634e487b7160e01b600052601160045260246000fd5b80820180821115610c3857610c3861176d565b6000600182016117a8576117a861176d565b5060010190565b6000602082840312156117c157600080fd5b5051919050565b6000602082840312156117da57600080fd5b8151610c57816113dd565b81810381811115610c3857610c3861176d565b634e487b7160e01b600052603160045260246000fdfea26469706673582212205329b6fa51a58aee1d8f229ec1bf00d2dc78c412d7c803992847af1dd79416d464736f6c63430008110033",
  "linkReferences": {},
  "deployedLinkReferences": {}
}