{
  "_format": "hh-sol-artifact-1",
  "contractName": "Market",
  "sourceName": "contracts/market/Market.sol",
  "abi": [
    {
      "inputs": [
        {
          "internalType": "address",
          "name": "_f",
          "type": "address"
        }
      ],
      "stateMutability": "nonpayable",
      "type": "constructor"
    },
    {
      "anonymous": false,
      "inputs": [
        {
          "indexed": false,
          "internalType": "uint8",
          "name": "version",
          "type": "uint8"
        }
      ],
      "name": "Initialized",
      "type": "event"
    },
    {
      "stateMutability": "payable",
      "type": "fallback"
    },
    {
      "inputs": [],
      "name": "DEFAULT_ADMIN_ROLE",
      "outputs": [
        {
          "internalType": "bytes32",
          "name": "",
          "type": "bytes32"
        }
      ],
      "stateMutability": "view",
      "type": "function"
    },
    {
      "inputs": [],
      "name": "USDDecimals",
      "outputs": [
        {
          "internalType": "uint8",
          "name": "",
          "type": "uint8"
        }
      ],
      "stateMutability": "pure",
      "type": "function"
    },
    {
      "inputs": [
        {
          "internalType": "address",
          "name": "newOwner",
          "type": "address"
        }
      ],
      "name": "_transferOwnership",
      "outputs": [],
      "stateMutability": "pure",
      "type": "function"
    },
    {
      "inputs": [
        {
          "internalType": "address",
          "name": "_addr",
          "type": "address"
        }
      ],
      "name": "addPlugin",
      "outputs": [],
      "stateMutability": "nonpayable",
      "type": "function"
    },
    {
      "inputs": [],
      "name": "collateralToken",
      "outputs": [
        {
          "internalType": "address",
          "name": "",
          "type": "address"
        }
      ],
      "stateMutability": "view",
      "type": "function"
    },
    {
      "inputs": [],
      "name": "collateralTokenDigits",
      "outputs": [
        {
          "internalType": "uint8",
          "name": "",
          "type": "uint8"
        }
      ],
      "stateMutability": "view",
      "type": "function"
    },
    {
      "inputs": [
        {
          "components": [
            {
              "internalType": "address",
              "name": "_market",
              "type": "address"
            },
            {
              "internalType": "bool",
              "name": "_isLong",
              "type": "bool"
            },
            {
              "internalType": "uint256",
              "name": "_oraclePrice",
              "type": "uint256"
            },
            {
              "internalType": "bool",
              "name": "isOpen",
              "type": "bool"
            },
            {
              "internalType": "address",
              "name": "_account",
              "type": "address"
            },
            {
              "internalType": "uint256",
              "name": "_sizeDelta",
              "type": "uint256"
            },
            {
              "internalType": "uint256",
              "name": "_price",
              "type": "uint256"
            },
            {
              "internalType": "uint256",
              "name": "_slippage",
              "type": "uint256"
            },
            {
              "internalType": "bool",
              "name": "_isExec",
              "type": "bool"
            },
            {
              "internalType": "uint8",
              "name": "liqState",
              "type": "uint8"
            },
            {
              "internalType": "uint64",
              "name": "_fromOrder",
              "type": "uint64"
            },
            {
              "internalType": "bytes32",
              "name": "_refCode",
              "type": "bytes32"
            },
            {
              "internalType": "uint256",
              "name": "collateralDelta",
              "type": "uint256"
            },
            {
              "internalType": "uint8",
              "name": "execNum",
              "type": "uint8"
            },
            {
              "internalType": "uint256[]",
              "name": "inputs",
              "type": "uint256[]"
            }
          ],
          "internalType": "struct MarketDataTypes.UpdatePositionInputs",
          "name": "",
          "type": "tuple"
        }
      ],
      "name": "decreasePosition",
      "outputs": [],
      "stateMutability": "nonpayable",
      "type": "function"
    },
    {
      "inputs": [
        {
          "components": [
            {
              "internalType": "uint8",
              "name": "version",
              "type": "uint8"
            },
            {
              "internalType": "uint32",
              "name": "updatedAtBlock",
              "type": "uint32"
            },
            {
              "internalType": "uint8",
              "name": "triggerAbove",
              "type": "uint8"
            },
            {
              "internalType": "address",
              "name": "account",
              "type": "address"
            },
            {
              "internalType": "uint48",
              "name": "extra3",
              "type": "uint48"
            },
            {
              "internalType": "uint128",
              "name": "collateral",
              "type": "uint128"
            },
            {
              "internalType": "uint128",
              "name": "size",
              "type": "uint128"
            },
            {
              "internalType": "uint128",
              "name": "price",
              "type": "uint128"
            },
            {
              "internalType": "uint128",
              "name": "extra1",
              "type": "uint128"
            },
            {
              "internalType": "uint64",
              "name": "orderID",
              "type": "uint64"
            },
            {
              "internalType": "uint64",
              "name": "extra2",
              "type": "uint64"
            },
            {
              "internalType": "uint128",
              "name": "extra0",
              "type": "uint128"
            },
            {
              "internalType": "bytes32",
              "name": "refCode",
              "type": "bytes32"
            }
          ],
          "internalType": "struct Order.Props",
          "name": "exeOrder",
          "type": "tuple"
        },
        {
          "components": [
            {
              "internalType": "address",
              "name": "_market",
              "type": "address"
            },
            {
              "internalType": "bool",
              "name": "_isLong",
              "type": "bool"
            },
            {
              "internalType": "uint256",
              "name": "_oraclePrice",
              "type": "uint256"
            },
            {
              "internalType": "bool",
              "name": "isOpen",
              "type": "bool"
            },
            {
              "internalType": "address",
              "name": "_account",
              "type": "address"
            },
            {
              "internalType": "uint256",
              "name": "_sizeDelta",
              "type": "uint256"
            },
            {
              "internalType": "uint256",
              "name": "_price",
              "type": "uint256"
            },
            {
              "internalType": "uint256",
              "name": "_slippage",
              "type": "uint256"
            },
            {
              "internalType": "bool",
              "name": "_isExec",
              "type": "bool"
            },
            {
              "internalType": "uint8",
              "name": "liqState",
              "type": "uint8"
            },
            {
              "internalType": "uint64",
              "name": "_fromOrder",
              "type": "uint64"
            },
            {
              "internalType": "bytes32",
              "name": "_refCode",
              "type": "bytes32"
            },
            {
              "internalType": "uint256",
              "name": "collateralDelta",
              "type": "uint256"
            },
            {
              "internalType": "uint8",
              "name": "execNum",
              "type": "uint8"
            },
            {
              "internalType": "uint256[]",
              "name": "inputs",
              "type": "uint256[]"
            }
          ],
          "internalType": "struct MarketDataTypes.UpdatePositionInputs",
          "name": "_params",
          "type": "tuple"
        }
      ],
      "name": "execOrderKey",
      "outputs": [],
      "stateMutability": "nonpayable",
      "type": "function"
    },
    {
      "inputs": [],
      "name": "feeRouter",
      "outputs": [
        {
          "internalType": "contract IFeeRouter",
          "name": "",
          "type": "address"
        }
      ],
      "stateMutability": "view",
      "type": "function"
    },
    {
      "inputs": [],
      "name": "getPNL",
      "outputs": [
        {
          "internalType": "int256",
          "name": "pnl",
          "type": "int256"
        }
      ],
      "stateMutability": "view",
      "type": "function"
    },
    {
      "inputs": [
        {
          "internalType": "address",
          "name": "account",
          "type": "address"
        }
      ],
      "name": "getPositions",
      "outputs": [
        {
          "components": [
            {
              "internalType": "address",
              "name": "market",
              "type": "address"
            },
            {
              "internalType": "bool",
              "name": "isLong",
              "type": "bool"
            },
            {
              "internalType": "uint32",
              "name": "lastTime",
              "type": "uint32"
            },
            {
              "internalType": "uint216",
              "name": "extra3",
              "type": "uint216"
            },
            {
              "internalType": "uint256",
              "name": "size",
              "type": "uint256"
            },
            {
              "internalType": "uint256",
              "name": "collateral",
              "type": "uint256"
            },
            {
              "internalType": "uint256",
              "name": "averagePrice",
              "type": "uint256"
            },
            {
              "internalType": "int256",
              "name": "entryFundingRate",
              "type": "int256"
            },
            {
              "internalType": "int256",
              "name": "realisedPnl",
              "type": "int256"
            },
            {
              "internalType": "uint256",
              "name": "extra0",
              "type": "uint256"
            },
            {
              "internalType": "uint256",
              "name": "extra1",
              "type": "uint256"
            },
            {
              "internalType": "uint256",
              "name": "extra2",
              "type": "uint256"
            }
          ],
          "internalType": "struct Position.Props[]",
          "name": "_poss",
          "type": "tuple[]"
        }
      ],
      "stateMutability": "view",
      "type": "function"
    },
    {
      "inputs": [],
      "name": "globalValid",
      "outputs": [
        {
          "internalType": "address",
          "name": "",
          "type": "address"
        }
      ],
      "stateMutability": "view",
      "type": "function"
    },
    {
      "inputs": [
        {
          "internalType": "address",
          "name": "_account",
          "type": "address"
        }
      ],
      "name": "grantControllerRoleByMarketManager",
      "outputs": [],
      "stateMutability": "nonpayable",
      "type": "function"
    },
    {
      "inputs": [
        {
          "internalType": "bytes32",
          "name": "role",
          "type": "bytes32"
        },
        {
          "internalType": "address",
          "name": "account",
          "type": "address"
        }
      ],
      "name": "grantRole",
      "outputs": [],
      "stateMutability": "pure",
      "type": "function"
    },
    {
      "inputs": [
        {
          "internalType": "bytes32",
          "name": "role",
          "type": "bytes32"
        },
        {
          "internalType": "address",
          "name": "account",
          "type": "address"
        }
      ],
      "name": "hasRole",
      "outputs": [
        {
          "internalType": "bool",
          "name": "",
          "type": "bool"
        }
      ],
      "stateMutability": "pure",
      "type": "function"
    },
    {
      "inputs": [
        {
          "components": [
            {
              "internalType": "address",
              "name": "_market",
              "type": "address"
            },
            {
              "internalType": "bool",
              "name": "_isLong",
              "type": "bool"
            },
            {
              "internalType": "uint256",
              "name": "_oraclePrice",
              "type": "uint256"
            },
            {
              "internalType": "bool",
              "name": "isOpen",
              "type": "bool"
            },
            {
              "internalType": "address",
              "name": "_account",
              "type": "address"
            },
            {
              "internalType": "uint256",
              "name": "_sizeDelta",
              "type": "uint256"
            },
            {
              "internalType": "uint256",
              "name": "_price",
              "type": "uint256"
            },
            {
              "internalType": "uint256",
              "name": "_slippage",
              "type": "uint256"
            },
            {
              "internalType": "bool",
              "name": "_isExec",
              "type": "bool"
            },
            {
              "internalType": "uint8",
              "name": "liqState",
              "type": "uint8"
            },
            {
              "internalType": "uint64",
              "name": "_fromOrder",
              "type": "uint64"
            },
            {
              "internalType": "bytes32",
              "name": "_refCode",
              "type": "bytes32"
            },
            {
              "internalType": "uint256",
              "name": "collateralDelta",
              "type": "uint256"
            },
            {
              "internalType": "uint8",
              "name": "execNum",
              "type": "uint8"
            },
            {
              "internalType": "uint256[]",
              "name": "inputs",
              "type": "uint256[]"
            }
          ],
          "internalType": "struct MarketDataTypes.UpdatePositionInputs",
          "name": "",
          "type": "tuple"
        }
      ],
      "name": "increasePositionWithOrders",
      "outputs": [],
      "stateMutability": "nonpayable",
      "type": "function"
    },
    {
      "inputs": [],
      "name": "indexToken",
      "outputs": [
        {
          "internalType": "address",
          "name": "",
          "type": "address"
        }
      ],
      "stateMutability": "view",
      "type": "function"
    },
    {
      "inputs": [
        {
          "internalType": "address[]",
          "name": "addrs",
          "type": "address[]"
        },
        {
          "internalType": "string",
          "name": "_name",
          "type": "string"
        }
      ],
      "name": "initialize",
      "outputs": [],
      "stateMutability": "nonpayable",
      "type": "function"
    },
    {
      "inputs": [
        {
          "internalType": "address[]",
          "name": "",
          "type": "address[]"
        },
        {
          "internalType": "bool",
          "name": "",
          "type": "bool"
        }
      ],
      "name": "liquidatePositions",
      "outputs": [],
      "stateMutability": "nonpayable",
      "type": "function"
    },
    {
      "inputs": [],
      "name": "marketRouter",
      "outputs": [
        {
          "internalType": "address",
          "name": "",
          "type": "address"
        }
      ],
      "stateMutability": "view",
      "type": "function"
    },
    {
      "inputs": [],
      "name": "marketValid",
      "outputs": [
        {
          "internalType": "address",
          "name": "",
          "type": "address"
        }
      ],
      "stateMutability": "view",
      "type": "function"
    },
    {
      "inputs": [],
      "name": "name",
      "outputs": [
        {
          "internalType": "string",
          "name": "",
          "type": "string"
        }
      ],
      "stateMutability": "view",
      "type": "function"
    },
    {
      "inputs": [],
      "name": "orderBookLong",
      "outputs": [
        {
          "internalType": "contract IOrderBook",
          "name": "",
          "type": "address"
        }
      ],
      "stateMutability": "view",
      "type": "function"
    },
    {
      "inputs": [],
      "name": "orderBookShort",
      "outputs": [
        {
          "internalType": "contract IOrderBook",
          "name": "",
          "type": "address"
        }
      ],
      "stateMutability": "view",
      "type": "function"
    },
    {
      "inputs": [],
      "name": "orderMgr",
      "outputs": [
        {
          "internalType": "address",
          "name": "",
          "type": "address"
        }
      ],
      "stateMutability": "view",
      "type": "function"
    },
    {
      "inputs": [
        {
          "internalType": "bool",
          "name": "isLong",
          "type": "bool"
        },
        {
          "internalType": "bool",
          "name": "isOpen",
          "type": "bool"
        }
      ],
      "name": "orderStore",
      "outputs": [
        {
          "internalType": "contract IOrderStore",
          "name": "",
          "type": "address"
        }
      ],
      "stateMutability": "view",
      "type": "function"
    },
    {
      "inputs": [],
      "name": "pluginGasLimit",
      "outputs": [
        {
          "internalType": "uint256",
          "name": "",
          "type": "uint256"
        }
      ],
      "stateMutability": "view",
      "type": "function"
    },
    {
      "inputs": [
        {
          "internalType": "uint256",
          "name": "",
          "type": "uint256"
        }
      ],
      "name": "plugins",
      "outputs": [
        {
          "internalType": "address",
          "name": "",
          "type": "address"
        }
      ],
      "stateMutability": "view",
      "type": "function"
    },
    {
      "inputs": [],
      "name": "positionAddMgr",
      "outputs": [
        {
          "internalType": "address",
          "name": "",
          "type": "address"
        }
      ],
      "stateMutability": "view",
      "type": "function"
    },
    {
      "inputs": [],
      "name": "positionBook",
      "outputs": [
        {
          "internalType": "contract IPositionBook",
          "name": "",
          "type": "address"
        }
      ],
      "stateMutability": "view",
      "type": "function"
    },
    {
      "inputs": [],
      "name": "positionStoreLong",
      "outputs": [
        {
          "internalType": "address",
          "name": "",
          "type": "address"
        }
      ],
      "stateMutability": "view",
      "type": "function"
    },
    {
      "inputs": [],
      "name": "positionStoreShort",
      "outputs": [
        {
          "internalType": "address",
          "name": "",
          "type": "address"
        }
      ],
      "stateMutability": "view",
      "type": "function"
    },
    {
      "inputs": [],
      "name": "positionSubMgr",
      "outputs": [
        {
          "internalType": "address",
          "name": "",
          "type": "address"
        }
      ],
      "stateMutability": "view",
      "type": "function"
    },
    {
      "inputs": [],
      "name": "priceFeed",
      "outputs": [
        {
          "internalType": "address",
          "name": "",
          "type": "address"
        }
      ],
      "stateMutability": "view",
      "type": "function"
    },
    {
      "inputs": [
        {
          "internalType": "address",
          "name": "_addr",
          "type": "address"
        }
      ],
      "name": "removePlugin",
      "outputs": [],
      "stateMutability": "nonpayable",
      "type": "function"
    },
    {
      "inputs": [
        {
          "internalType": "bytes32",
          "name": "role",
          "type": "bytes32"
        },
        {
          "internalType": "address",
          "name": "account",
          "type": "address"
        }
      ],
      "name": "revokeRole",
      "outputs": [],
      "stateMutability": "pure",
      "type": "function"
    },
    {
      "inputs": [
        {
          "internalType": "address",
          "name": "_newMv",
          "type": "address"
        }
      ],
      "name": "setMarketValid",
      "outputs": [],
      "stateMutability": "nonpayable",
      "type": "function"
    },
    {
      "inputs": [
        {
          "internalType": "address",
          "name": "obl",
          "type": "address"
        },
        {
          "internalType": "address",
          "name": "obs",
          "type": "address"
        }
      ],
      "name": "setOrderBooks",
      "outputs": [],
      "stateMutability": "nonpayable",
      "type": "function"
    },
    {
      "inputs": [
        {
          "internalType": "address",
          "name": "_m",
          "type": "address"
        }
      ],
      "name": "setOrderMgr",
      "outputs": [],
      "stateMutability": "nonpayable",
      "type": "function"
    },
    {
      "inputs": [
        {
          "internalType": "address",
          "name": "pb",
          "type": "address"
        }
      ],
      "name": "setPositionBook",
      "outputs": [],
      "stateMutability": "nonpayable",
      "type": "function"
    },
    {
      "inputs": [
        {
          "internalType": "address",
          "name": "_m",
          "type": "address"
        },
        {
          "internalType": "bool",
          "name": "add",
          "type": "bool"
        }
      ],
      "name": "setPositionMgr",
      "outputs": [],
      "stateMutability": "nonpayable",
      "type": "function"
    },
    {
      "inputs": [
        {
          "internalType": "address",
          "name": "to",
          "type": "address"
        }
      ],
      "name": "transferAdmin",
      "outputs": [],
      "stateMutability": "nonpayable",
      "type": "function"
    },
    {
      "inputs": [
        {
          "internalType": "address",
          "name": "newOwner",
          "type": "address"
        }
      ],
      "name": "transferOwnership",
      "outputs": [],
      "stateMutability": "pure",
      "type": "function"
    },
    {
      "inputs": [],
      "name": "updateCumulativeFundingRate",
      "outputs": [],
      "stateMutability": "nonpayable",
      "type": "function"
    },
    {
      "inputs": [],
      "name": "vaultRouter",
      "outputs": [
        {
          "internalType": "address",
          "name": "",
          "type": "address"
        }
      ],
      "stateMutability": "view",
      "type": "function"
    },
    {
      "stateMutability": "payable",
      "type": "receive"
    }
  ],
  "bytecode": "0x60806040523480156200001157600080fd5b50604051620038da380380620038da83398101604081905262000034916200006a565b80600160468190555062000053816200005b60201b620021361760201c565b50506200009c565b42604855620000673381565b50565b6000602082840312156200007d57600080fd5b81516001600160a01b03811681146200009557600080fd5b9392505050565b61382e80620000ac6000396000f3fe6080604052600436106102765760003560e01c806391d148541161014f578063c54dc3d6116100c1578063d8867fc81161007a578063d8867fc8146107fb578063e7d015f21461081b578063e84254671461083b578063f0a317eb1461084f578063f29ebf611461086f578063f2fde38b1461079d57610280565b8063c54dc3d61461075d578063d12dbde41461077d578063d29d44ee1461079d578063d37c441c146107bb578063d49ff78d146107db578063d547741f1461041157610280565b8063a4d95b6411610113578063a4d95b6414610691578063abed9618146106b1578063ac0b05a6146106d1578063b2016bd4146106f1578063b21dc9cb14610711578063b894300d1461073d57610280565b806391d14854146105d257806393a98e6c14610602578063a0cbf50c14610617578063a217fddf14610637578063a26404541461064c57610280565b80633bdef83a116101e857806375829def116101ac57806375829def146105125780637b2fd1e5146105325780637fe4a698146105525780638a6ca35d146105725780638d49701d146105925780638dcbb54d146105b257610280565b80633bdef83a146104705780633eeb530e146104905780633f70d442146104bd57806345ccf5c5146104d2578063741bef1a146104f257610280565b806312ec5d001161023a57806312ec5d00146103b15780631afd89c7146103d15780632b0b0662146103f15780632f2ff15d146104115780633233efe51461043057806339955ed71461045057610280565b806303deb029146102ed57806305ba9ae91461031757806306fdde031461034f57806307e875451461037157806312de276c1461039157610280565b3661028057600080fd5b600f5460408051602036601f81018290048202830182019093528282526102eb936001600160a01b03169260009181908401838280828437600092019190915250506040805180820190915260078152663ab735b737bbb760c91b602082015291506001905061088f565b005b3480156102f957600080fd5b50610304620a2c2a81565b6040519081526020015b60405180910390f35b34801561032357600080fd5b50600654610337906001600160a01b031681565b6040516001600160a01b03909116815260200161030e565b34801561035b57600080fd5b50610364610966565b60405161030e9190612613565b34801561037d57600080fd5b50600a54610337906001600160a01b031681565b34801561039d57600080fd5b506102eb6103ac366004612936565b6109f4565b3480156103bd57600080fd5b506102eb6103cc366004612ace565b610c74565b3480156103dd57600080fd5b506102eb6103ec366004612b1f565b610cea565b3480156103fd57600080fd5b506102eb61040c366004612b4d565b610d55565b34801561041d57600080fd5b506102eb61042c366004612b6a565b5050565b34801561043c57600080fd5b506102eb61044b366004612bb6565b610d9a565b34801561045c57600080fd5b506102eb61046b366004612b4d565b61171f565b34801561047c57600080fd5b506102eb61048b366004612c57565b61184c565b34801561049c57600080fd5b506104b06104ab366004612b4d565b6118cd565b60405161030e9190612c93565b3480156104c957600080fd5b506102eb611991565b3480156104de57600080fd5b50600b54610337906001600160a01b031681565b3480156104fe57600080fd5b50600954610337906001600160a01b031681565b34801561051e57600080fd5b506102eb61052d366004612b4d565b6119af565b34801561053e57600080fd5b50600554610337906001600160a01b031681565b34801561055e57600080fd5b506102eb61056d366004612b4d565b6107b8565b34801561057e57600080fd5b50600e54610337906001600160a01b031681565b34801561059e57600080fd5b506102eb6105ad366004612b4d565b6119ba565b3480156105be57600080fd5b506102eb6105cd366004612d66565b611caf565b3480156105de57600080fd5b506105f26105ed366004612b6a565b611cfa565b604051901515815260200161030e565b34801561060e57600080fd5b50610304611d03565b34801561062357600080fd5b50600f54610337906001600160a01b031681565b34801561064357600080fd5b50610304600081565b34801561065857600080fd5b50610337610667366004612d94565b9015156000908152600760209081526040808320931515835292905220546001600160a01b031690565b34801561069d57600080fd5b506102eb6106ac366004612b4d565b611e88565b3480156106bd57600080fd5b506102eb6106cc366004612c57565b611f8f565b3480156106dd57600080fd5b50600354610337906001600160a01b031681565b3480156106fd57600080fd5b50600454610337906001600160a01b031681565b34801561071d57600080fd5b5060135461072b9060ff1681565b60405160ff909116815260200161030e565b34801561074957600080fd5b50600054610337906001600160a01b031681565b34801561076957600080fd5b50600154610337906001600160a01b031681565b34801561078957600080fd5b50601054610337906001600160a01b031681565b3480156107a957600080fd5b506102eb6107b8366004612b4d565b50565b3480156107c757600080fd5b50600c54610337906001600160a01b031681565b3480156107e757600080fd5b50600d54610337906001600160a01b031681565b34801561080757600080fd5b506102eb610816366004612b4d565b612003565b34801561082757600080fd5b50600254610337906001600160a01b031681565b34801561084757600080fd5b50601261072b565b34801561085b57600080fd5b5061033761086a366004612db2565b61210c565b34801561087b57600080fd5b50600854610337906001600160a01b031681565b606060006060866001600160a01b0316866040516108ad9190612dcb565b600060405180830381855af49150503d80600081146108e8576040519150601f19603f3d011682016040523d82523d6000602084013e6108ed565b606091505b5090925090508161095c5760448151101561090a57849250610933565b600481019050808060200190518101906109249190612de7565b92508251600003610933578492505b831561095c578260405162461bcd60e51b81526004016109539190612613565b60405180910390fd5b5094509492505050565b6011805461097390612e5d565b80601f016020809104026020016040519081016040528092919081815260200182805461099f90612e5d565b80156109ec5780601f106109c1576101008083540402835291602001916109ec565b820191906000526020600020905b8154815290600101906020018083116109cf57829003601f168201915b505050505081565b600080610ab48360600151610a1457600e546001600160a01b0316610a21565b600d546001600160a01b03165b60405180610100016040528060dd81526020016136fc60dd9139805190602001208686604051602401610a55929190612fcd565b604051602081830303815290604052906001600160e01b0319166020820180516001600160e01b0383818316178352505050506040518060400160405280600c81526020016b657865634f726465724b657960a01b815250600061088f565b9150915080610c6e5760408051600180825281830190925260009160208083019080368337019050509050610ae88561213d565b81600081518110610afb57610afb613107565b6020908102919091010152604080516001808252818301909252600091816020016020820280368337019050509050846020015181600081518110610b4257610b42613107565b91151560209283029190910190910152604080516001808252818301909252600091816020016020820280368337019050509050856060015181600081518110610b8e57610b8e613107565b91151560209283029190910190910152604080516001808252818301909252600091816020015b6060815260200190600190039081610bb55790505090508581600081518110610be057610be0613107565b6020908102919091010152600f54604051610c67916001600160a01b031690610c1390879087908790879060240161314f565b60408051601f19818403018152918152602080830180516001600160e01b0316632b031ea960e21b1790528151808301909252600e82526d39bcb9a1b0b731b2b627b93232b960911b90820152600161088f565b5050505050505b50505050565b600e5460408051602036601f8101829004820283018201909352828252610c6e936001600160a01b03169260009181908401838280828437600092019190915250506040805180820190915260128152716c6971756964617465506f736974696f6e7360701b602082015291506001905061088f565b6000805160206137d98339815191526001600160a01b038316610d0c57600080fd5b8115610d3457600d80546001600160a01b0385166001600160a01b0319909116179055505050565b600e80546001600160a01b0319166001600160a01b0385161790555b505050565b6000805160206137d98339815191526001600160a01b038216610d7757600080fd5b50600f80546001600160a01b0319166001600160a01b0392909216919091179055565b604754610100900460ff1615808015610dba5750604754600160ff909116105b80610dd45750303b158015610dd4575060475460ff166001145b610e375760405162461bcd60e51b815260206004820152602e60248201527f496e697469616c697a61626c653a20636f6e747261637420697320616c72656160448201526d191e481a5b9a5d1a585b1a5e995960921b6064820152608401610953565b6047805460ff191660011790558015610e5a576047805461ff0019166101001790555b6011610e668382613260565b5082600081518110610e7a57610e7a613107565b6020026020010151600360006101000a8154816001600160a01b0302191690836001600160a01b0316021790555082600181518110610ebb57610ebb613107565b6020026020010151600560006101000a8154816001600160a01b0302191690836001600160a01b0316021790555082600281518110610efc57610efc613107565b6020026020010151600660006101000a8154816001600160a01b0302191690836001600160a01b0316021790555082600381518110610f3d57610f3d613107565b60200260200101516000806101000a8154816001600160a01b0302191690836001600160a01b0316021790555082600481518110610f7d57610f7d613107565b6020026020010151600960006101000a8154816001600160a01b0302191690836001600160a01b0316021790555082600581518110610fbe57610fbe613107565b6020026020010151600e60006101000a8154816001600160a01b0302191690836001600160a01b0316021790555082600681518110610fff57610fff613107565b6020026020010151600d60006101000a8154816001600160a01b0302191690836001600160a01b031602179055508260078151811061104057611040613107565b6020026020010151600260006101000a8154816001600160a01b0302191690836001600160a01b031602179055508260088151811061108157611081613107565b6020026020010151600860006101000a8154816001600160a01b0302191690836001600160a01b03160217905550826009815181106110c2576110c2613107565b6020026020010151601060006101000a8154816001600160a01b0302191690836001600160a01b0316021790555082600a8151811061110357611103613107565b6020026020010151600c60006101000a8154816001600160a01b0302191690836001600160a01b0316021790555082600b8151811061114457611144613107565b6020026020010151600460006101000a8154816001600160a01b0302191690836001600160a01b0316021790555082600c8151811061118557611185613107565b6020026020010151600160006101000a8154816001600160a01b0302191690836001600160a01b0316021790555082600d815181106111c6576111c6613107565b602090810291909101810151600f80546001600160a01b0319166001600160a01b0392831617905560055460408051637e1dcaf760e01b815290519190921692637e1dcaf792600480820193918290030181865afa15801561122c573d6000803e3d6000fd5b505050506040513d601f19601f82011682018060405250810190611250919061331f565b60016000527fb39221ace053465ec3453ce2b36430bd138b997ecea25c1043da0c366812b82860209081527f7e3f8087768dd46afafd904b64320d27e506312b937487e59f767c7732ae8f6e80546001600160a01b0319166001600160a01b0393841617905560055460408051633683c2b360e11b815290519190931692636d0785669260048083019391928290030181865afa1580156112f5573d6000803e3d6000fd5b505050506040513d601f19601f82011682018060405250810190611319919061331f565b600080527fb39221ace053465ec3453ce2b36430bd138b997ecea25c1043da0c366812b82860209081527fdab972c909d3e9becdfd720143424fd6fe2ef53f3b2f9c4b45f582e7e83b39bb80546001600160a01b0319166001600160a01b0393841617905560065460408051637e1dcaf760e01b815290519190931692637e1dcaf79260048083019391928290030181865afa1580156113bd573d6000803e3d6000fd5b505050506040513d601f19601f820116820180604052508101906113e1919061331f565b60016000527f6d5257204ebe7d88fd91ae87941cb2dd9d8062b64ae5a2bd2d28ec40b9fbf6df60209081527ffa778a20fba1b88d7c7b188dc1c4eb115a1fb0693025fb44b92eb4ffe9dbb68e80546001600160a01b0319166001600160a01b0393841617905560065460408051633683c2b360e11b815290519190931692636d0785669260048083019391928290030181865afa158015611486573d6000803e3d6000fd5b505050506040513d601f19601f820116820180604052508101906114aa919061331f565b600080527f6d5257204ebe7d88fd91ae87941cb2dd9d8062b64ae5a2bd2d28ec40b9fbf6df60209081527fc65916d663d52b0a18b63681e34ad6e3e8bb58d57f662b8e7e045ab09fab038580546001600160a01b0319166001600160a01b03938416179055600480546040805163313ce56760e01b81529051919094169363313ce56793818401939092918290030181865afa15801561154e573d6000803e3d6000fd5b505050506040513d601f19601f82011682018060405250810190611572919061333c565b6013805460ff191660ff92909216919091179055600354604080516350c1c30960e11b815290516001600160a01b039092169163a1838612916004808201926020929091908290030181865afa1580156115d0573d6000803e3d6000fd5b505050506040513d601f19601f820116820180604052508101906115f4919061331f565b600a80546001600160a01b0319166001600160a01b0392831617905560035460408051630a302a3960e11b81529051919092169163146054729160048083019260209291908290030181865afa158015611652573d6000803e3d6000fd5b505050506040513d601f19601f82011682018060405250810190611676919061331f565b600b80546001600160a01b03199081166001600160a01b0393841617909155601054601280546001810182556000919091527fbb8a6a4669ba250d26cd7a459eca9d215f8307e33aebe50379bc5a3617ec34440180549190931691161790558015610d50576047805461ff0019169055604051600181527f7f26b83ff96e1f2b6a682f133852f6798a09c465da95921460cefb38474024989060200160405180910390a1505050565b6000805160206137d98339815191526001600160a01b03821661174157600080fd5b6000546001600160a01b03161561182957816001600160a01b0316638e98ec8d60008054906101000a90046001600160a01b03166001600160a01b031663177927296040518163ffffffff1660e01b8152600401602060405180830381865afa1580156117b2573d6000803e3d6000fd5b505050506040513d601f19601f820116820180604052508101906117d69190613364565b5160405160e083901b6001600160e01b03191681526004810191909152602401600060405180830381600087803b15801561181057600080fd5b505af1158015611824573d6000803e3d6000fd5b505050505b50600080546001600160a01b0319166001600160a01b0392909216919091179055565b600d5460408051602036601f8101829004820283018201909352828252610d50936001600160a01b031692600091819084018382808284376000920191909152505060408051808201909152601a81527f696e637265617365506f736974696f6e576974684f7264657273000000000000602082015291506001905061088f565b600354604051631f75a98760e11b81526001600160a01b0383811660048301526060921690633eeb530e90602401600060405180830381865afa158015611918573d6000803e3d6000fd5b505050506040513d6000823e601f3d908101601f1916820160405261194091908101906133d2565b905060005b815181101561198b573082828151811061196157611961613107565b60209081029190910101516001600160a01b0390911690528061198381613520565b915050611945565b50919050565b6003546008546119ad916001600160a01b0390811691166121a2565b565b600061042c60003382565b6000805160206137d98339815191526001600160a01b0382166119dc57600080fd5b816001600160a01b031663a18386126040518163ffffffff1660e01b8152600401602060405180830381865afa158015611a1a573d6000803e3d6000fd5b505050506040513d601f19601f82011682018060405250810190611a3e919061331f565b6001600160a01b0316600360009054906101000a90046001600160a01b03166001600160a01b031663a18386126040518163ffffffff1660e01b8152600401602060405180830381865afa158015611a9a573d6000803e3d6000fd5b505050506040513d601f19601f82011682018060405250810190611abe919061331f565b6001600160a01b031614611b045760405162461bcd60e51b815260206004820152600d60248201526c696e76616c69642073746f726560981b6044820152606401610953565b816001600160a01b031663146054726040518163ffffffff1660e01b8152600401602060405180830381865afa158015611b42573d6000803e3d6000fd5b505050506040513d601f19601f82011682018060405250810190611b66919061331f565b6001600160a01b0316600360009054906101000a90046001600160a01b03166001600160a01b031663146054726040518163ffffffff1660e01b8152600401602060405180830381865afa158015611bc2573d6000803e3d6000fd5b505050506040513d601f19601f82011682018060405250810190611be6919061331f565b6001600160a01b031614611c2c5760405162461bcd60e51b815260206004820152600d60248201526c696e76616c69642073746f726560981b6044820152606401610953565b6010546040516366b75fb360e11b81526001600160a01b0384811660048301529091169063cd6ebf6690602401600060405180830381600087803b158015611c7357600080fd5b505af1158015611c87573d6000803e3d6000fd5b5050600380546001600160a01b0319166001600160a01b039590951694909417909355505050565b6000805160206137d98339815191526001600160a01b038316611cd157600080fd5b6001600160a01b038216611ce457600080fd5b611cef600184612278565b610d50600083612278565b60015b92915050565b6009546002546040516303b6b4bb60e51b81526001600160a01b03918216600482015260006024820181905292839216906376d6976090604401602060405180830381865afa158015611d5a573d6000803e3d6000fd5b505050506040513d601f19601f82011682018060405250810190611d7e9190613539565b6009546002546040516303b6b4bb60e51b81526001600160a01b039182166004820152600160248201529293506000929116906376d6976090604401602060405180830381865afa158015611dd7573d6000803e3d6000fd5b505050506040513d601f19601f82011682018060405250810190611dfb9190613539565b6003546040516301aa2e3960e41b81526004810185905260248101839052919250611e81916001600160a01b0390911690631aa2e39090604401602060405180830381865afa158015611e52573d6000803e3d6000fd5b505050506040513d601f19601f82011682018060405250810190611e769190613539565b60135460ff1661258c565b9250505090565b60005b60125481101561042c57816001600160a01b031660128281548110611eb257611eb2613107565b6000918252602090912001546001600160a01b031603611f7d5760128054611edc90600190613552565b81548110611eec57611eec613107565b600091825260209091200154601280546001600160a01b039092169183908110611f1857611f18613107565b9060005260206000200160006101000a8154816001600160a01b0302191690836001600160a01b031602179055506012805480611f5757611f57613565565b600082815260209020810160001990810180546001600160a01b03191690550190555050565b80611f8781613520565b915050611e8b565b600e5460408051602036601f8101829004820283018201909352828252610d50936001600160a01b031692600091819084018382808284376000920191909152505060408051808201909152601081526f3232b1b932b0b9b2a837b9b4ba34b7b760811b602082015291506001905061088f565b7f241ecf16d79d0f8dbfb92cbc07fe17840425976cf0667f022fe9877caa831b0860005b6012548110156120b857826001600160a01b03166012828154811061204e5761204e613107565b6000918252602090912001546001600160a01b0316036120a65760405162461bcd60e51b81526020600482015260136024820152724d61726b65743a73616d65206164647265737360681b6044820152606401610953565b806120b081613520565b915050612027565b5050601280546001810182556000919091527fbb8a6a4669ba250d26cd7a459eca9d215f8307e33aebe50379bc5a3617ec34440180546001600160a01b0319166001600160a01b0392909216919091179055565b6012818154811061211c57600080fd5b6000918252602090912001546001600160a01b0316905081565b4260485550565b6000816060015182610120015160405160200161218592919060609290921b6bffffffffffffffffffffffff1916825260c01b6001600160c01b0319166014820152601c0190565b604051602081830303815290604052805190602001209050919050565b600080836001600160a01b0316638749694a6040518163ffffffff1660e01b81526004016040805180830381865afa1580156121e2573d6000803e3d6000fd5b505050506040513d601f19601f82011682018060405250810190612206919061357b565b60405163c6f83ad160e01b8152306004820152602481018390526044810182905291935091506001600160a01b0384169063c6f83ad190606401600060405180830381600087803b15801561225a57600080fd5b505af115801561226e573d6000803e3d6000fd5b5050505050505050565b80821561240557806001600160a01b031663e254542284600560009054906101000a90046001600160a01b03166001600160a01b0316637e1dcaf76040518163ffffffff1660e01b8152600401602060405180830381865afa1580156122e2573d6000803e3d6000fd5b505050506040513d601f19601f82011682018060405250810190612306919061331f565b600560009054906101000a90046001600160a01b03166001600160a01b0316636d0785666040518163ffffffff1660e01b8152600401602060405180830381865afa158015612359573d6000803e3d6000fd5b505050506040513d601f19601f8201168201806040525081019061237d919061331f565b6040516001600160e01b031960e086901b16815292151560048401526001600160a01b039182166024840152166044820152606401600060405180830381600087803b1580156123cc57600080fd5b505af11580156123e0573d6000803e3d6000fd5b5050600580546001600160a01b0319166001600160a01b03851617905550610d509050565b806001600160a01b031663e254542284600660009054906101000a90046001600160a01b03166001600160a01b0316637e1dcaf76040518163ffffffff1660e01b8152600401602060405180830381865afa158015612468573d6000803e3d6000fd5b505050506040513d601f19601f8201168201806040525081019061248c919061331f565b600660009054906101000a90046001600160a01b03166001600160a01b0316636d0785666040518163ffffffff1660e01b8152600401602060405180830381865afa1580156124df573d6000803e3d6000fd5b505050506040513d601f19601f82011682018060405250810190612503919061331f565b6040516001600160e01b031960e086901b16815292151560048401526001600160a01b039182166024840152166044820152606401600060405180830381600087803b15801561255257600080fd5b505af1158015612566573d6000803e3d6000fd5b5050600680546001600160a01b0385166001600160a01b03199091161790555050505050565b600061259a6012600a613683565b6125a860ff8416600a613683565b6125b2908561368f565b6125bc91906136bf565b9392505050565b60005b838110156125de5781810151838201526020016125c6565b50506000910152565b600081518084526125ff8160208601602086016125c3565b601f01601f19169290920160200192915050565b6020815260006125bc60208301846125e7565b634e487b7160e01b600052604160045260246000fd5b6040516101e081016001600160401b038111828210171561265f5761265f612626565b60405290565b6040516101a081016001600160401b038111828210171561265f5761265f612626565b60405161018081016001600160401b038111828210171561265f5761265f612626565b604051601f8201601f191681016001600160401b03811182821017156126d3576126d3612626565b604052919050565b60ff811681146107b857600080fd5b80356126f5816126db565b919050565b63ffffffff811681146107b857600080fd5b80356126f5816126fa565b6001600160a01b03811681146107b857600080fd5b80356126f581612717565b803565ffffffffffff811681146126f557600080fd5b80356001600160801b03811681146126f557600080fd5b80356001600160401b03811681146126f557600080fd5b80151581146107b857600080fd5b80356126f58161277b565b60006001600160401b038211156127ad576127ad612626565b5060051b60200190565b600082601f8301126127c857600080fd5b813560206127dd6127d883612794565b6126ab565b82815260059290921b840181019181810190868411156127fc57600080fd5b8286015b848110156128175780358352918301918301612800565b509695505050505050565b60006101e0828403121561283557600080fd5b61283d61263c565b90506128488261272c565b815261285660208301612789565b60208201526040820135604082015261287160608301612789565b60608201526128826080830161272c565b608082015260a082013560a082015260c082013560c082015260e082013560e08201526101006128b3818401612789565b908201526101206128c58382016126ea565b908201526101406128d7838201612764565b90820152610160828101359082015261018080830135908201526101a06128ff8184016126ea565b908201526101c0828101356001600160401b0381111561291e57600080fd5b61292a858286016127b7565b82840152505092915050565b6000808284036101c081121561294b57600080fd5b6101a08082121561295b57600080fd5b612963612665565b915061296e856126ea565b825261297c6020860161270c565b602083015261298d604086016126ea565b604083015261299e6060860161272c565b60608301526129af60808601612737565b60808301526129c060a0860161274d565b60a08301526129d160c0860161274d565b60c08301526129e260e0860161274d565b60e08301526101006129f581870161274d565b90830152610120612a07868201612764565b90830152610140612a19868201612764565b90830152610160612a2b86820161274d565b9083015261018085810135908301529092508301356001600160401b03811115612a5457600080fd5b612a6085828601612822565b9150509250929050565b600082601f830112612a7b57600080fd5b81356020612a8b6127d883612794565b82815260059290921b84018101918181019086841115612aaa57600080fd5b8286015b84811015612817578035612ac181612717565b8352918301918301612aae565b60008060408385031215612ae157600080fd5b82356001600160401b03811115612af757600080fd5b612b0385828601612a6a565b9250506020830135612b148161277b565b809150509250929050565b60008060408385031215612b3257600080fd5b8235612b3d81612717565b91506020830135612b148161277b565b600060208284031215612b5f57600080fd5b81356125bc81612717565b60008060408385031215612b7d57600080fd5b823591506020830135612b1481612717565b60006001600160401b03821115612ba857612ba8612626565b50601f01601f191660200190565b60008060408385031215612bc957600080fd5b82356001600160401b0380821115612be057600080fd5b612bec86838701612a6a565b93506020850135915080821115612c0257600080fd5b508301601f81018513612c1457600080fd5b8035612c226127d882612b8f565b818152866020838501011115612c3757600080fd5b816020840160208301376000602083830101528093505050509250929050565b600060208284031215612c6957600080fd5b81356001600160401b03811115612c7f57600080fd5b612c8b84828501612822565b949350505050565b602080825282518282018190526000919060409081850190868401855b82811015612d5957815180516001600160a01b03168552868101511515878601528581015163ffffffff16868601526060808201516001600160d81b0316908601526080808201519086015260a0808201519086015260c0808201519086015260e0808201519086015261010080820151908601526101208082015190860152610140808201519086015261016090810151908501526101809093019290850190600101612cb0565b5091979650505050505050565b60008060408385031215612d7957600080fd5b8235612d8481612717565b91506020830135612b1481612717565b60008060408385031215612da757600080fd5b8235612b3d8161277b565b600060208284031215612dc457600080fd5b5035919050565b60008251612ddd8184602087016125c3565b9190910192915050565b600060208284031215612df957600080fd5b81516001600160401b03811115612e0f57600080fd5b8201601f81018413612e2057600080fd5b8051612e2e6127d882612b8f565b818152856020838501011115612e4357600080fd5b612e548260208301602086016125c3565b95945050505050565b600181811c90821680612e7157607f821691505b60208210810361198b57634e487b7160e01b600052602260045260246000fd5b600081518084526020808501945080840160005b83811015612ec157815187529582019590820190600101612ea5565b509495945050505050565b80516001600160a01b0316825260006101e06020830151612ef1602086018215159052565b50604083015160408501526060830151612f0f606086018215159052565b506080830151612f2a60808601826001600160a01b03169052565b5060a083015160a085015260c083015160c085015260e083015160e085015261010080840151612f5d8287018215159052565b50506101208381015160ff90811691860191909152610140808501516001600160401b031690860152610160808501519086015261018080850151908601526101a080850151909116908501526101c080840151818601839052612fc383870182612e91565b9695505050505050565b825160ff16815260006101c06020850151612ff0602085018263ffffffff169052565b506040850151613005604085018260ff169052565b50606085015161302060608501826001600160a01b03169052565b50608085015161303a608085018265ffffffffffff169052565b5060a085015161305560a08501826001600160801b03169052565b5060c085015161307060c08501826001600160801b03169052565b5060e085015161308b60e08501826001600160801b03169052565b50610100858101516001600160801b038116858301525050610120858101516001600160401b038116858301525050610140858101516001600160401b038116858301525050610160858101516001600160801b038116858301525050610180808601518185015250806101a0840152612e5481840185612ecc565b634e487b7160e01b600052603260045260246000fd5b600081518084526020808501945080840160005b83811015612ec1578151151587529582019590820190600101613131565b6080808252855190820181905260009060209060a0840190828901845b828110156131885781518452928401929084019060010161316c565b5050508381038285015261319c818861311d565b905083810360408501526131b0818761311d565b905083810360608501528085518083528383019150838160051b84010184880160005b8381101561320157601f198684030185526131ef8383516125e7565b948701949250908601906001016131d3565b50909b9a5050505050505050505050565b601f821115610d5057600081815260208120601f850160051c810160208610156132395750805b601f850160051c820191505b8181101561325857828155600101613245565b505050505050565b81516001600160401b0381111561327957613279612626565b61328d816132878454612e5d565b84613212565b602080601f8311600181146132c257600084156132aa5750858301515b600019600386901b1c1916600185901b178555613258565b600085815260208120601f198616915b828110156132f1578886015182559484019460019091019084016132d2565b508582101561330f5787850151600019600388901b60f8161c191681555b5050505050600190811b01905550565b60006020828403121561333157600080fd5b81516125bc81612717565b60006020828403121561334e57600080fd5b81516125bc816126db565b80516126f581612717565b60006020828403121561337657600080fd5b604051602081018181106001600160401b038211171561339857613398612626565b6040529151825250919050565b80516126f58161277b565b80516126f5816126fa565b80516001600160d81b03811681146126f557600080fd5b600060208083850312156133e557600080fd5b82516001600160401b038111156133fb57600080fd5b8301601f8101851361340c57600080fd5b805161341a6127d882612794565b818152610180918202830184019184820191908884111561343a57600080fd5b938501935b838510156134fe5780858a0312156134575760008081fd5b61345f612688565b61346886613359565b81526134758787016133a5565b8782015260406134868188016133b0565b9082015260606134978782016133bb565b908201526080868101519082015260a0808701519082015260c0808701519082015260e0808701519082015261010080870151908201526101208087015190820152610140808701519082015261016080870151908201528352938401939185019161343f565b50979650505050505050565b634e487b7160e01b600052601160045260246000fd5b6000600182016135325761353261350a565b5060010190565b60006020828403121561354b57600080fd5b5051919050565b81810381811115611cfd57611cfd61350a565b634e487b7160e01b600052603160045260246000fd5b6000806040838503121561358e57600080fd5b505080516020909101519092909150565b600181815b808511156135da5781600019048211156135c0576135c061350a565b808516156135cd57918102915b93841c93908002906135a4565b509250929050565b6000826135f157506001611cfd565b816135fe57506000611cfd565b8160018114613614576002811461361e5761363a565b6001915050611cfd565b60ff84111561362f5761362f61350a565b50506001821b611cfd565b5060208310610133831016604e8410600b841016171561365d575081810a611cfd565b613667838361359f565b806000190482111561367b5761367b61350a565b029392505050565b60006125bc83836135e2565b80820260008212600160ff1b841416156136ab576136ab61350a565b8181058314821517611cfd57611cfd61350a565b6000826136dc57634e487b7160e01b600052601260045260246000fd5b600160ff1b8214600019841416156136f6576136f661350a565b50059056fe657865634f726465724b6579282875696e74382c75696e7433322c75696e74382c616464726573732c75696e7434382c75696e743132382c75696e743132382c75696e743132382c75696e743132382c75696e7436342c75696e7436342c75696e743132382c62797465733332292c28616464726573732c626f6f6c2c75696e743235362c626f6f6c2c616464726573732c75696e743235362c75696e743235362c75696e743235362c626f6f6c2c75696e74382c75696e7436342c627974657333322c75696e743235362c75696e74382c75696e743235365b5d29298d1089725c0dc266707fa6207730fb801dcd03108bfed7a21099bd303651d2b7a2646970667358221220d60572046e20f2739106f7939f04fa662d1b51868504aad2f4969fbe24bde9ec64736f6c63430008110033",
  "linkReferences": {},
  "deployedLinkReferences": {}
}