{
  "_format": "hh-sol-artifact-1",
  "contractName": "FundFee",
  "sourceName": "contracts/fee/FundFee.sol",
  "abi": [
    {
      "inputs": [
        {
          "internalType": "address",
          "name": "vault",
          "type": "address"
        }
      ],
      "stateMutability": "nonpayable",
      "type": "constructor"
    },
    {
      "anonymous": false,
      "inputs": [
        {
          "indexed": true,
          "internalType": "uint256",
          "name": "startTime",
          "type": "uint256"
        },
        {
          "indexed": true,
          "internalType": "uint256",
          "name": "endTime",
          "type": "uint256"
        }
      ],
      "name": "AddSkipTime",
      "type": "event"
    },
    {
      "anonymous": false,
      "inputs": [
        {
          "indexed": false,
          "internalType": "uint8",
          "name": "version",
          "type": "uint8"
        }
      ],
      "name": "Initialized",
      "type": "event"
    },
    {
      "anonymous": false,
      "inputs": [
        {
          "indexed": true,
          "internalType": "address",
          "name": "previousOwner",
          "type": "address"
        },
        {
          "indexed": true,
          "internalType": "address",
          "name": "newOwner",
          "type": "address"
        }
      ],
      "name": "OwnershipTransferred",
      "type": "event"
    },
    {
      "anonymous": false,
      "inputs": [
        {
          "indexed": true,
          "internalType": "bytes32",
          "name": "role",
          "type": "bytes32"
        },
        {
          "indexed": true,
          "internalType": "bytes32",
          "name": "previousAdminRole",
          "type": "bytes32"
        },
        {
          "indexed": true,
          "internalType": "bytes32",
          "name": "newAdminRole",
          "type": "bytes32"
        }
      ],
      "name": "RoleAdminChanged",
      "type": "event"
    },
    {
      "anonymous": false,
      "inputs": [
        {
          "indexed": true,
          "internalType": "bytes32",
          "name": "role",
          "type": "bytes32"
        },
        {
          "indexed": true,
          "internalType": "address",
          "name": "account",
          "type": "address"
        },
        {
          "indexed": true,
          "internalType": "address",
          "name": "sender",
          "type": "address"
        }
      ],
      "name": "RoleGranted",
      "type": "event"
    },
    {
      "anonymous": false,
      "inputs": [
        {
          "indexed": true,
          "internalType": "bytes32",
          "name": "role",
          "type": "bytes32"
        },
        {
          "indexed": true,
          "internalType": "address",
          "name": "account",
          "type": "address"
        },
        {
          "indexed": true,
          "internalType": "address",
          "name": "sender",
          "type": "address"
        }
      ],
      "name": "RoleRevoked",
      "type": "event"
    },
    {
      "anonymous": false,
      "inputs": [
        {
          "indexed": true,
          "internalType": "address",
          "name": "market",
          "type": "address"
        },
        {
          "indexed": false,
          "internalType": "uint256",
          "name": "interval",
          "type": "uint256"
        }
      ],
      "name": "UpdateFundInterval",
      "type": "event"
    },
    {
      "anonymous": false,
      "inputs": [
        {
          "indexed": true,
          "internalType": "uint256",
          "name": "oldLimit",
          "type": "uint256"
        },
        {
          "indexed": false,
          "internalType": "uint256",
          "name": "newLimit",
          "type": "uint256"
        }
      ],
      "name": "UpdateMinRateLimit",
      "type": "event"
    },
    {
      "anonymous": false,
      "inputs": [
        {
          "indexed": false,
          "internalType": "uint256",
          "name": "oldFRate",
          "type": "uint256"
        },
        {
          "indexed": false,
          "internalType": "uint256",
          "name": "newFRate",
          "type": "uint256"
        }
      ],
      "name": "UpdateMinorityFRate",
      "type": "event"
    },
    {
      "inputs": [],
      "name": "BASIS_INTERVAL_HOU",
      "outputs": [
        {
          "internalType": "uint256",
          "name": "",
          "type": "uint256"
        }
      ],
      "stateMutability": "view",
      "type": "function"
    },
    {
      "inputs": [],
      "name": "DEFAULT_ADMIN_ROLE",
      "outputs": [
        {
          "internalType": "bytes32",
          "name": "",
          "type": "bytes32"
        }
      ],
      "stateMutability": "view",
      "type": "function"
    },
    {
      "inputs": [],
      "name": "DEFAULT_RATE_DIVISOR",
      "outputs": [
        {
          "internalType": "uint256",
          "name": "",
          "type": "uint256"
        }
      ],
      "stateMutability": "view",
      "type": "function"
    },
    {
      "inputs": [],
      "name": "FEE_RATE_PRECISION",
      "outputs": [
        {
          "internalType": "uint256",
          "name": "",
          "type": "uint256"
        }
      ],
      "stateMutability": "view",
      "type": "function"
    },
    {
      "inputs": [],
      "name": "MIN_FUNDING_INTERVAL",
      "outputs": [
        {
          "internalType": "uint256",
          "name": "",
          "type": "uint256"
        }
      ],
      "stateMutability": "view",
      "type": "function"
    },
    {
      "inputs": [
        {
          "internalType": "uint256",
          "name": "start",
          "type": "uint256"
        },
        {
          "internalType": "uint256",
          "name": "end",
          "type": "uint256"
        }
      ],
      "name": "addSkipTime",
      "outputs": [],
      "stateMutability": "nonpayable",
      "type": "function"
    },
    {
      "inputs": [],
      "name": "blankSlot",
      "outputs": [
        {
          "internalType": "address",
          "name": "",
          "type": "address"
        }
      ],
      "stateMutability": "view",
      "type": "function"
    },
    {
      "inputs": [],
      "name": "feeVault",
      "outputs": [
        {
          "internalType": "address",
          "name": "",
          "type": "address"
        }
      ],
      "stateMutability": "view",
      "type": "function"
    },
    {
      "inputs": [
        {
          "internalType": "address",
          "name": "",
          "type": "address"
        }
      ],
      "name": "fundingIntervals",
      "outputs": [
        {
          "internalType": "uint256",
          "name": "",
          "type": "uint256"
        }
      ],
      "stateMutability": "view",
      "type": "function"
    },
    {
      "inputs": [
        {
          "internalType": "address",
          "name": "market",
          "type": "address"
        },
        {
          "internalType": "uint256",
          "name": "size",
          "type": "uint256"
        },
        {
          "internalType": "int256",
          "name": "entryFundingRate",
          "type": "int256"
        },
        {
          "internalType": "bool",
          "name": "isLong",
          "type": "bool"
        }
      ],
      "name": "getFundingFee",
      "outputs": [
        {
          "internalType": "int256",
          "name": "",
          "type": "int256"
        }
      ],
      "stateMutability": "view",
      "type": "function"
    },
    {
      "inputs": [
        {
          "internalType": "address",
          "name": "market",
          "type": "address"
        },
        {
          "internalType": "bool",
          "name": "isLong",
          "type": "bool"
        }
      ],
      "name": "getFundingRate",
      "outputs": [
        {
          "internalType": "int256",
          "name": "",
          "type": "int256"
        }
      ],
      "stateMutability": "view",
      "type": "function"
    },
    {
      "inputs": [
        {
          "internalType": "address",
          "name": "market",
          "type": "address"
        },
        {
          "internalType": "uint256",
          "name": "longSize",
          "type": "uint256"
        },
        {
          "internalType": "uint256",
          "name": "shortSize",
          "type": "uint256"
        }
      ],
      "name": "getNextFundingRate",
      "outputs": [
        {
          "internalType": "int256",
          "name": "",
          "type": "int256"
        },
        {
          "internalType": "int256",
          "name": "",
          "type": "int256"
        }
      ],
      "stateMutability": "view",
      "type": "function"
    },
    {
      "inputs": [
        {
          "internalType": "bytes32",
          "name": "role",
          "type": "bytes32"
        }
      ],
      "name": "getRoleAdmin",
      "outputs": [
        {
          "internalType": "bytes32",
          "name": "",
          "type": "bytes32"
        }
      ],
      "stateMutability": "view",
      "type": "function"
    },
    {
      "inputs": [
        {
          "internalType": "address",
          "name": "_account",
          "type": "address"
        }
      ],
      "name": "grantControllerRoleByMarketManager",
      "outputs": [],
      "stateMutability": "nonpayable",
      "type": "function"
    },
    {
      "inputs": [
        {
          "internalType": "bytes32",
          "name": "role",
          "type": "bytes32"
        },
        {
          "internalType": "address",
          "name": "account",
          "type": "address"
        }
      ],
      "name": "grantRole",
      "outputs": [],
      "stateMutability": "nonpayable",
      "type": "function"
    },
    {
      "inputs": [
        {
          "internalType": "bytes32",
          "name": "role",
          "type": "bytes32"
        },
        {
          "internalType": "address",
          "name": "account",
          "type": "address"
        }
      ],
      "name": "hasRole",
      "outputs": [
        {
          "internalType": "bool",
          "name": "",
          "type": "bool"
        }
      ],
      "stateMutability": "view",
      "type": "function"
    },
    {
      "inputs": [],
      "name": "minRateLimit",
      "outputs": [
        {
          "internalType": "uint256",
          "name": "",
          "type": "uint256"
        }
      ],
      "stateMutability": "view",
      "type": "function"
    },
    {
      "inputs": [],
      "name": "minorityFRate",
      "outputs": [
        {
          "internalType": "uint256",
          "name": "",
          "type": "uint256"
        }
      ],
      "stateMutability": "view",
      "type": "function"
    },
    {
      "inputs": [],
      "name": "owner",
      "outputs": [
        {
          "internalType": "address",
          "name": "",
          "type": "address"
        }
      ],
      "stateMutability": "view",
      "type": "function"
    },
    {
      "inputs": [],
      "name": "renounceOwnership",
      "outputs": [],
      "stateMutability": "nonpayable",
      "type": "function"
    },
    {
      "inputs": [
        {
          "internalType": "bytes32",
          "name": "role",
          "type": "bytes32"
        },
        {
          "internalType": "address",
          "name": "account",
          "type": "address"
        }
      ],
      "name": "renounceRole",
      "outputs": [],
      "stateMutability": "nonpayable",
      "type": "function"
    },
    {
      "inputs": [
        {
          "internalType": "bytes32",
          "name": "role",
          "type": "bytes32"
        },
        {
          "internalType": "address",
          "name": "account",
          "type": "address"
        }
      ],
      "name": "revokeRole",
      "outputs": [],
      "stateMutability": "nonpayable",
      "type": "function"
    },
    {
      "inputs": [
        {
          "internalType": "address[]",
          "name": "markets",
          "type": "address[]"
        },
        {
          "internalType": "uint256[]",
          "name": "intervals",
          "type": "uint256[]"
        }
      ],
      "name": "setFundingInterval",
      "outputs": [],
      "stateMutability": "nonpayable",
      "type": "function"
    },
    {
      "inputs": [
        {
          "internalType": "uint256",
          "name": "limit",
          "type": "uint256"
        }
      ],
      "name": "setMinRateLimit",
      "outputs": [],
      "stateMutability": "nonpayable",
      "type": "function"
    },
    {
      "inputs": [
        {
          "internalType": "uint256",
          "name": "rate",
          "type": "uint256"
        }
      ],
      "name": "setMinorityFRate",
      "outputs": [],
      "stateMutability": "nonpayable",
      "type": "function"
    },
    {
      "inputs": [
        {
          "internalType": "uint256",
          "name": "",
          "type": "uint256"
        }
      ],
      "name": "skipTimes",
      "outputs": [
        {
          "internalType": "uint256",
          "name": "start",
          "type": "uint256"
        },
        {
          "internalType": "uint256",
          "name": "end",
          "type": "uint256"
        }
      ],
      "stateMutability": "view",
      "type": "function"
    },
    {
      "inputs": [
        {
          "internalType": "bytes4",
          "name": "interfaceId",
          "type": "bytes4"
        }
      ],
      "name": "supportsInterface",
      "outputs": [
        {
          "internalType": "bool",
          "name": "",
          "type": "bool"
        }
      ],
      "stateMutability": "view",
      "type": "function"
    },
    {
      "inputs": [
        {
          "internalType": "address",
          "name": "to",
          "type": "address"
        }
      ],
      "name": "transferAdmin",
      "outputs": [],
      "stateMutability": "nonpayable",
      "type": "function"
    },
    {
      "inputs": [
        {
          "internalType": "address",
          "name": "newOwner",
          "type": "address"
        }
      ],
      "name": "transferOwnership",
      "outputs": [],
      "stateMutability": "nonpayable",
      "type": "function"
    },
    {
      "inputs": [
        {
          "internalType": "address",
          "name": "market",
          "type": "address"
        },
        {
          "internalType": "uint256",
          "name": "longSize",
          "type": "uint256"
        },
        {
          "internalType": "uint256",
          "name": "shortSize",
          "type": "uint256"
        }
      ],
      "name": "updateCumulativeFundingRate",
      "outputs": [],
      "stateMutability": "nonpayable",
      "type": "function"
    }
  ],
  "bytecode": "0x60a060405261082360045560006005553480156200001c57600080fd5b5060405162001e2538038062001e258339810160408190526200003f916200021b565b336200004b81620000f0565b62000061816200014260201b62000cc21760201c565b506001600160a01b038116620000b05760405162461bcd60e51b815260206004820152601060248201526f1a5b9d985b1a590819995955985d5b1d60821b604482015260640160405180910390fd5b6001600160a01b038116608052620000e97f241ecf16d79d0f8dbfb92cbc07fe17840425976cf0667f022fe9877caa831b08336200016e565b506200024d565b600180546001600160a01b038381166001600160a01b0319831681179093556040519116919082907f8be0079c531659141344cd1fd0a4f28419497f9722a3daafe3b4186f6b6457e090600090a35050565b426002556200015133620000f0565b6200015e6000336200020f565b6200016b6000826200020f565b50565b6000828152602081815260408083206001600160a01b038516845290915290205460ff166200020b576000828152602081815260408083206001600160a01b03851684529091529020805460ff19166001179055620001ca3390565b6001600160a01b0316816001600160a01b0316837f2f8788117e7eff1d82e926ec794901d17c78024a50270940304540a733656f0d60405160405180910390a45b5050565b6200020b82826200016e565b6000602082840312156200022e57600080fd5b81516001600160a01b03811681146200024657600080fd5b9392505050565b608051611ba062000285600039600081816102bc0152818161050e015281816108840152818161101601526110c50152611ba06000f3fe608060405234801561001057600080fd5b50600436106101da5760003560e01c80637fe4a69811610104578063c1b3cb0f116100a2578063dc5ac99511610071578063dc5ac99514610404578063e56fa59d14610417578063f2fde38b1461042a578063f4ca4d1d1461043d57600080fd5b8063c1b3cb0f146103cc578063c6f83ad1146103d5578063c831ba2a146103e8578063d547741f146103f157600080fd5b80638f18af9a116100de5780638f18af9a1461038b57806391d148541461039e578063a217fddf146103b1578063bc3d3a8b146103b957600080fd5b80637fe4a6981461035457806387a1cd09146103675780638da5cb5b1461037a57600080fd5b806336568abe1161017c578063705da24c1161014b578063705da24c1461031e578063715018a61461032657806375829def1461032e57806376239a671461034157600080fd5b806336568abe146102a4578063478222c2146102b75780635645d877146102f65780635a58ca451461031657600080fd5b806320981df4116101b857806320981df414610242578063248a9ca31461026357806327d3fbf3146102865780632f2ff15d1461028f57600080fd5b806301ffc9a7146101df578063021453f414610207578063054aaca11461022f575b600080fd5b6101f26101ed366004611519565b610448565b60405190151581526020015b60405180910390f35b61021a610215366004611543565b61047f565b604080519283526020830191909152016101fe565b61021a61023d366004611578565b6104ad565b6102556102503660046115bb565b6104e1565b6040519081526020016101fe565b610255610271366004611543565b60009081526020819052604090206001015490565b61025560055481565b6102a261029d3660046115ee565b610582565b005b6102a26102b23660046115ee565b6105ac565b6102de7f000000000000000000000000000000000000000000000000000000000000000081565b6040516001600160a01b0390911681526020016101fe565b610255610304366004611611565b60066020526000908152604090205481565b610255606481565b610255601881565b6102a261062f565b6102a261033c366004611611565b610643565b6102a261034f366004611702565b61066d565b6102a2610362366004611611565b61081e565b6003546102de906001600160a01b031681565b6001546001600160a01b03166102de565b6102556103993660046117c2565b610848565b6101f26103ac3660046115ee565b61091b565b610255600081565b6102a26103c7366004611808565b610944565b610255610e1081565b6102a26103e3366004611578565b610a44565b61025560045481565b6102a26103ff3660046115ee565b610b30565b6102a2610412366004611543565b610b55565b6102a2610425366004611543565b610bb1565b6102a2610438366004611611565b610c49565b6102556305f5e10081565b60006001600160e01b03198216637965db0b60e01b148061047957506301ffc9a760e01b6001600160e01b03198316145b92915050565b6007818154811061048f57600080fd5b60009182526020909120600290910201805460019091015490915082565b6000806000806104bd8686610ce5565b915091506000806104cf898585610d4e565b9096509450505050505b935093915050565b6040516001624c409d60e01b031981526001600160a01b03838116600483015282151560248301526000917f00000000000000000000000000000000000000000000000000000000000000009091169063ffb3bf6390604401602060405180830381865afa158015610557573d6000803e3d6000fd5b505050506040513d601f19601f8201168201806040525081019061057b919061182a565b9392505050565b60008281526020819052604090206001015461059d81610de8565b6105a78383610df2565b505050565b6001600160a01b03811633146106215760405162461bcd60e51b815260206004820152602f60248201527f416363657373436f6e74726f6c3a2063616e206f6e6c792072656e6f756e636560448201526e103937b632b9903337b91039b2b63360891b60648201526084015b60405180910390fd5b61062b8282610e76565b5050565b610637610edb565b6106416000610f35565b565b600061064e81610de8565b610659600083610f87565b61066282610f35565b61062b600033610e76565b610684600080516020611b4b833981519152610de8565b80518251146106c65760405162461bcd60e51b815260206004820152600e60248201526d696e76616c696420706172616d7360901b6044820152606401610618565b6000805b83518110156108185760006001600160a01b03168482815181106106f0576106f0611843565b60200260200101516001600160a01b03160361070b57600080fd5b610e1083828151811061072057610720611843565b6020026020010151101561073357600080fd5b610e108084838151811061074957610749611843565b602002602001015161075b9190611885565b6107659190611899565b9150816006600086848151811061077e5761077e611843565b60200260200101516001600160a01b03166001600160a01b03168152602001908152602001600020819055508381815181106107bc576107bc611843565b60200260200101516001600160a01b03167f014f9b627a46d0881111664e681522272907a49b31cc3f24613bdad2c551825c836040516107fe91815260200190565b60405180910390a280610810816118b0565b9150506106ca565b50505050565b7f8d1089725c0dc266707fa6207730fb801dcd03108bfed7a21099bd303651d2b76101da81610de8565b60008360000361085a57506000610913565b6040516334f32e2560e01b81526001600160a01b03868116600483015283151560248301526000917f0000000000000000000000000000000000000000000000000000000000000000909116906334f32e2590604401602060405180830381865afa1580156108cd573d6000803e3d6000fd5b505050506040513d601f19601f820116820180604052508101906108f1919061182a565b90506305f5e10080610904878785610f91565b61090e91906118c9565b925050505b949350505050565b6000918252602082815260408084206001600160a01b0393909316845291905290205460ff1690565b61095b600080516020611b4b833981519152610de8565b8181101561099c5760405162461bcd60e51b815260206004820152600e60248201526d696e76616c696420706172616d7360901b6044820152606401610618565b6040805180820182528381526020810183815260078054600181018255600091825283517fa66cc928b5edb82af9bd49922954155ab7b0942694bea4ce44661d9a8736c68860029092029182015591517fa66cc928b5edb82af9bd49922954155ab7b0942694bea4ce44661d9a8736c6899092019190915591519091839185917fbb67e50fdd1f174a20c4f1e0e5b9ab3984685f30623b89b69ba068a11ce913b691a3505050565b610a6d7fcb58d6d985142a614029cdf01861b4fe094d5919a47e69b8310dc4093d9d6ad0610de8565b6000610a7884610fc5565b90506000610a8585610ff4565b905080600003610abd5781610a9a8142611885565b610aa49190611899565b9050610ab68560008060008086611083565b5050505050565b42610ac883836118f7565b1115610ad5575050505050565b600080610ae28686610ce5565b91509150600080610af4898585610d4e565b915091508586610b014290565b610b0b9190611885565b610b159190611899565b9450610b2589858585858a611083565b505050505050505050565b600082815260208190526040902060010154610b4b81610de8565b6105a78383610e76565b610b6c600080516020611b4b833981519152610de8565b600580549082905560408051828152602081018490527fcc6508f1ccefe81f3ad53a268646f4f599087ddb280e426c89bc1d597a03d412910160405180910390a15050565b610bc8600080516020611b4b833981519152610de8565b60008111610c085760405162461bcd60e51b815260206004820152600d60248201526c1a5b9d985b1a59081b1a5b5a5d609a1b6044820152606401610618565b600480549082905560405182815281907f3260736e52fceaa012d37fa304cc1487de94003f4f3abd03f22617f6105cd83a9060200160405180910390a25050565b610c51610edb565b6001600160a01b038116610cb65760405162461bcd60e51b815260206004820152602660248201527f4f776e61626c653a206e6577206f776e657220697320746865207a65726f206160448201526564647265737360d01b6064820152608401610618565b610cbf81610f35565b50565b42600255610ccf33610f35565b610cda600033610f87565b610cbf600082610f87565b6000806000610cf48585611129565b90506000610d01826111e9565b90506004548203610d18579250829150610d479050565b848610610d365780610d2b6005546111e9565b935093505050610d47565b610d416005546111e9565b93509150505b9250929050565b6000806000610d5c86610fc5565b90506000610d6987610ff4565b905042610d7683836118f7565b1115610d8a576000809350935050506104d9565b6000610d94611257565b90506000610e1082610da6854261190a565b610db0919061190a565b610dba9190611885565b90506000610dc8828a61191d565b90506000610dd6838a61191d565b919b919a509098505050505050505050565b610cbf8133611312565b610dfc828261091b565b61062b576000828152602081815260408083206001600160a01b03851684529091529020805460ff19166001179055610e323390565b6001600160a01b0316816001600160a01b0316837f2f8788117e7eff1d82e926ec794901d17c78024a50270940304540a733656f0d60405160405180910390a45050565b610e80828261091b565b1561062b576000828152602081815260408083206001600160a01b0385168085529252808320805460ff1916905551339285917ff6391f5c32d9c69d2a47ea670b442974b53935d1edc7fd64eb21e047a839171b9190a45050565b6001546001600160a01b031633146106415760405162461bcd60e51b815260206004820181905260248201527f4f776e61626c653a2063616c6c6572206973206e6f7420746865206f776e65726044820152606401610618565b600180546001600160a01b038381166001600160a01b0319831681179093556040519116919082907f8be0079c531659141344cd1fd0a4f28419497f9722a3daafe3b4186f6b6457e090600090a35050565b61062b8282610df2565b600080610f9e848461194d565b905080600003610fb257600091505061057b565b610fbc818661191d565b95945050505050565b6001600160a01b0381166000908152600660205260408120548015610fea5792915050565b50610e1092915050565b60405163d8f897c360e01b81526001600160a01b0382811660048301526000917f00000000000000000000000000000000000000000000000000000000000000009091169063d8f897c390602401602060405180830381865afa15801561105f573d6000803e3d6000fd5b505050506040513d601f19601f82011682018060405250810190610479919061182a565b60405163b21bf2d360e01b81526001600160a01b0387811660048301526024820187905260448201869052606482018590526084820184905260a482018390527f0000000000000000000000000000000000000000000000000000000000000000169063b21bf2d39060c401600060405180830381600087803b15801561110957600080fd5b505af115801561111d573d6000803e3d6000fd5b50505050505050505050565b600082158015611137575081155b156111455750600454610479565b600082841061115f57611158838561190a565b905061116c565b611169848461190a565b90505b600081156111d357600061118085876118f7565b9050806111916305f5e10085611899565b61119b9190611885565b9150601860646305f5e1006111b1600286611a58565b6111bb9190611885565b6111c59190611885565b6111cf9190611885565b9150505b6004548110156109135760045492505050610479565b60006001600160ff1b038211156112535760405162461bcd60e51b815260206004820152602860248201527f53616665436173743a2076616c756520646f65736e27742066697420696e2061604482015267371034b73a191a9b60c11b6064820152608401610618565b5090565b60075460009081036112665790565b60005b600754811015611253576007818154811061128657611286611843565b90600052602060002090600202016001015442111561130057600781815481106112b2576112b2611843565b906000526020600020906002020160000154600782815481106112d7576112d7611843565b9060005260206000209060020201600101546112f3919061190a565b6112fd90836118f7565b91505b8061130a816118b0565b915050611269565b61131c828261091b565b61062b576113298161136b565b61133483602061137d565b604051602001611345929190611a8b565b60408051601f198184030181529082905262461bcd60e51b825261061891600401611b00565b60606104796001600160a01b03831660145b6060600061138c836002611899565b6113979060026118f7565b67ffffffffffffffff8111156113af576113af61162c565b6040519080825280601f01601f1916602001820160405280156113d9576020820181803683370190505b509050600360fc1b816000815181106113f4576113f4611843565b60200101906001600160f81b031916908160001a905350600f60fb1b8160018151811061142357611423611843565b60200101906001600160f81b031916908160001a9053506000611447846002611899565b6114529060016118f7565b90505b60018111156114ca576f181899199a1a9b1b9c1cb0b131b232b360811b85600f166010811061148657611486611843565b1a60f81b82828151811061149c5761149c611843565b60200101906001600160f81b031916908160001a90535060049490941c936114c381611b33565b9050611455565b50831561057b5760405162461bcd60e51b815260206004820181905260248201527f537472696e67733a20686578206c656e67746820696e73756666696369656e746044820152606401610618565b60006020828403121561152b57600080fd5b81356001600160e01b03198116811461057b57600080fd5b60006020828403121561155557600080fd5b5035919050565b80356001600160a01b038116811461157357600080fd5b919050565b60008060006060848603121561158d57600080fd5b6115968461155c565b95602085013595506040909401359392505050565b8035801515811461157357600080fd5b600080604083850312156115ce57600080fd5b6115d78361155c565b91506115e5602084016115ab565b90509250929050565b6000806040838503121561160157600080fd5b823591506115e56020840161155c565b60006020828403121561162357600080fd5b61057b8261155c565b634e487b7160e01b600052604160045260246000fd5b604051601f8201601f1916810167ffffffffffffffff8111828210171561166b5761166b61162c565b604052919050565b600067ffffffffffffffff82111561168d5761168d61162c565b5060051b60200190565b600082601f8301126116a857600080fd5b813560206116bd6116b883611673565b611642565b82815260059290921b840181019181810190868411156116dc57600080fd5b8286015b848110156116f757803583529183019183016116e0565b509695505050505050565b6000806040838503121561171557600080fd5b823567ffffffffffffffff8082111561172d57600080fd5b818501915085601f83011261174157600080fd5b813560206117516116b883611673565b82815260059290921b8401810191818101908984111561177057600080fd5b948201945b83861015611795576117868661155c565b82529482019490820190611775565b965050860135925050808211156117ab57600080fd5b506117b885828601611697565b9150509250929050565b600080600080608085870312156117d857600080fd5b6117e18561155c565b935060208501359250604085013591506117fd606086016115ab565b905092959194509250565b6000806040838503121561181b57600080fd5b50508035926020909101359150565b60006020828403121561183c57600080fd5b5051919050565b634e487b7160e01b600052603260045260246000fd5b634e487b7160e01b600052601260045260246000fd5b634e487b7160e01b600052601160045260246000fd5b60008261189457611894611859565b500490565b80820281158282048414176104795761047961186f565b6000600182016118c2576118c261186f565b5060010190565b6000826118d8576118d8611859565b600160ff1b8214600019841416156118f2576118f261186f565b500590565b808201808211156104795761047961186f565b818103818111156104795761047961186f565b80820260008212600160ff1b841416156119395761193961186f565b81810583148215176104795761047961186f565b818103600083128015838313168383128216171561196d5761196d61186f565b5092915050565b600181815b808511156119af5781600019048211156119955761199561186f565b808516156119a257918102915b93841c9390800290611979565b509250929050565b6000826119c657506001610479565b816119d357506000610479565b81600181146119e957600281146119f357611a0f565b6001915050610479565b60ff841115611a0457611a0461186f565b50506001821b610479565b5060208310610133831016604e8410600b8410161715611a32575081810a610479565b611a3c8383611974565b8060001904821115611a5057611a5061186f565b029392505050565b600061057b60ff8416836119b7565b60005b83811015611a82578181015183820152602001611a6a565b50506000910152565b7f416363657373436f6e74726f6c3a206163636f756e7420000000000000000000815260008351611ac3816017850160208801611a67565b7001034b99036b4b9b9b4b733903937b6329607d1b6017918401918201528351611af4816028840160208801611a67565b01602801949350505050565b6020815260008251806020840152611b1f816040850160208701611a67565b601f01601f19169190910160400192915050565b600081611b4257611b4261186f565b50600019019056fe241ecf16d79d0f8dbfb92cbc07fe17840425976cf0667f022fe9877caa831b08a26469706673582212202b603a375f74c93dac98d042c7e1ff062a19ecb332ad5cdc55278f12f066bb1e64736f6c63430008110033",
  "linkReferences": {},
  "deployedLinkReferences": {}
}