{
  "_format": "hh-sol-artifact-1",
  "contractName": "FundFee",
  "sourceName": "contracts/fee/FundFee.sol",
  "abi": [
    {
      "inputs": [
        {
          "internalType": "address",
          "name": "_feeVault",
          "type": "address"
        }
      ],
      "stateMutability": "nonpayable",
      "type": "constructor"
    },
    {
      "anonymous": false,
      "inputs": [
        {
          "indexed": true,
          "internalType": "uint256",
          "name": "startTime",
          "type": "uint256"
        },
        {
          "indexed": true,
          "internalType": "uint256",
          "name": "endTime",
          "type": "uint256"
        }
      ],
      "name": "AddSkipTime",
      "type": "event"
    },
    {
      "anonymous": false,
      "inputs": [
        {
          "indexed": false,
          "internalType": "uint8",
          "name": "version",
          "type": "uint8"
        }
      ],
      "name": "Initialized",
      "type": "event"
    },
    {
      "anonymous": false,
      "inputs": [
        {
          "indexed": true,
          "internalType": "address",
          "name": "previousOwner",
          "type": "address"
        },
        {
          "indexed": true,
          "internalType": "address",
          "name": "newOwner",
          "type": "address"
        }
      ],
      "name": "OwnershipTransferred",
      "type": "event"
    },
    {
      "anonymous": false,
      "inputs": [
        {
          "indexed": true,
          "internalType": "bytes32",
          "name": "role",
          "type": "bytes32"
        },
        {
          "indexed": true,
          "internalType": "bytes32",
          "name": "previousAdminRole",
          "type": "bytes32"
        },
        {
          "indexed": true,
          "internalType": "bytes32",
          "name": "newAdminRole",
          "type": "bytes32"
        }
      ],
      "name": "RoleAdminChanged",
      "type": "event"
    },
    {
      "anonymous": false,
      "inputs": [
        {
          "indexed": true,
          "internalType": "bytes32",
          "name": "role",
          "type": "bytes32"
        },
        {
          "indexed": true,
          "internalType": "address",
          "name": "account",
          "type": "address"
        },
        {
          "indexed": true,
          "internalType": "address",
          "name": "sender",
          "type": "address"
        }
      ],
      "name": "RoleGranted",
      "type": "event"
    },
    {
      "anonymous": false,
      "inputs": [
        {
          "indexed": true,
          "internalType": "bytes32",
          "name": "role",
          "type": "bytes32"
        },
        {
          "indexed": true,
          "internalType": "address",
          "name": "account",
          "type": "address"
        },
        {
          "indexed": true,
          "internalType": "address",
          "name": "sender",
          "type": "address"
        }
      ],
      "name": "RoleRevoked",
      "type": "event"
    },
    {
      "anonymous": false,
      "inputs": [
        {
          "indexed": true,
          "internalType": "address",
          "name": "market",
          "type": "address"
        },
        {
          "indexed": false,
          "internalType": "uint256",
          "name": "interval",
          "type": "uint256"
        }
      ],
      "name": "UpdateFundInterval",
      "type": "event"
    },
    {
      "anonymous": false,
      "inputs": [
        {
          "indexed": true,
          "internalType": "uint256",
          "name": "oldLimit",
          "type": "uint256"
        },
        {
          "indexed": false,
          "internalType": "uint256",
          "name": "newLimit",
          "type": "uint256"
        }
      ],
      "name": "UpdateMinRateLimit",
      "type": "event"
    },
    {
      "anonymous": false,
      "inputs": [
        {
          "indexed": false,
          "internalType": "uint256",
          "name": "oldFRate",
          "type": "uint256"
        },
        {
          "indexed": false,
          "internalType": "uint256",
          "name": "newFRate",
          "type": "uint256"
        }
      ],
      "name": "UpdateMinorityFRate",
      "type": "event"
    },
    {
      "inputs": [],
      "name": "BASIS_INTERVAL_HOU",
      "outputs": [
        {
          "internalType": "uint256",
          "name": "",
          "type": "uint256"
        }
      ],
      "stateMutability": "view",
      "type": "function"
    },
    {
      "inputs": [],
      "name": "DEFAULT_ADMIN_ROLE",
      "outputs": [
        {
          "internalType": "bytes32",
          "name": "",
          "type": "bytes32"
        }
      ],
      "stateMutability": "view",
      "type": "function"
    },
    {
      "inputs": [],
      "name": "DEFAULT_RATE_DIVISOR",
      "outputs": [
        {
          "internalType": "uint256",
          "name": "",
          "type": "uint256"
        }
      ],
      "stateMutability": "view",
      "type": "function"
    },
    {
      "inputs": [],
      "name": "FEE_RATE_PRECISION",
      "outputs": [
        {
          "internalType": "uint256",
          "name": "",
          "type": "uint256"
        }
      ],
      "stateMutability": "view",
      "type": "function"
    },
    {
      "inputs": [],
      "name": "MIN_FUNDING_INTERVAL",
      "outputs": [
        {
          "internalType": "uint256",
          "name": "",
          "type": "uint256"
        }
      ],
      "stateMutability": "view",
      "type": "function"
    },
    {
      "inputs": [
        {
          "internalType": "uint256",
          "name": "start",
          "type": "uint256"
        },
        {
          "internalType": "uint256",
          "name": "end",
          "type": "uint256"
        }
      ],
      "name": "addSkipTime",
      "outputs": [],
      "stateMutability": "nonpayable",
      "type": "function"
    },
    {
      "inputs": [],
      "name": "blankSlot",
      "outputs": [
        {
          "internalType": "address",
          "name": "",
          "type": "address"
        }
      ],
      "stateMutability": "view",
      "type": "function"
    },
    {
      "inputs": [],
      "name": "fRateFactor",
      "outputs": [
        {
          "internalType": "uint256",
          "name": "",
          "type": "uint256"
        }
      ],
      "stateMutability": "view",
      "type": "function"
    },
    {
      "inputs": [],
      "name": "feeVault",
      "outputs": [
        {
          "internalType": "address",
          "name": "",
          "type": "address"
        }
      ],
      "stateMutability": "view",
      "type": "function"
    },
    {
      "inputs": [
        {
          "internalType": "address",
          "name": "",
          "type": "address"
        }
      ],
      "name": "fundingIntervals",
      "outputs": [
        {
          "internalType": "uint256",
          "name": "",
          "type": "uint256"
        }
      ],
      "stateMutability": "view",
      "type": "function"
    },
    {
      "inputs": [
        {
          "internalType": "address",
          "name": "market",
          "type": "address"
        },
        {
          "internalType": "uint256",
          "name": "size",
          "type": "uint256"
        },
        {
          "internalType": "int256",
          "name": "entryFundingRate",
          "type": "int256"
        },
        {
          "internalType": "bool",
          "name": "isLong",
          "type": "bool"
        }
      ],
      "name": "getFundingFee",
      "outputs": [
        {
          "internalType": "int256",
          "name": "",
          "type": "int256"
        }
      ],
      "stateMutability": "view",
      "type": "function"
    },
    {
      "inputs": [
        {
          "internalType": "address",
          "name": "market",
          "type": "address"
        },
        {
          "internalType": "bool",
          "name": "isLong",
          "type": "bool"
        }
      ],
      "name": "getFundingRate",
      "outputs": [
        {
          "internalType": "int256",
          "name": "",
          "type": "int256"
        }
      ],
      "stateMutability": "view",
      "type": "function"
    },
    {
      "inputs": [],
      "name": "getGlobalOpenInterest",
      "outputs": [
        {
          "internalType": "uint256",
          "name": "_globalSize",
          "type": "uint256"
        }
      ],
      "stateMutability": "view",
      "type": "function"
    },
    {
      "inputs": [
        {
          "internalType": "address",
          "name": "market",
          "type": "address"
        },
        {
          "internalType": "uint256",
          "name": "longSize",
          "type": "uint256"
        },
        {
          "internalType": "uint256",
          "name": "shortSize",
          "type": "uint256"
        }
      ],
      "name": "getNextFundingRate",
      "outputs": [
        {
          "internalType": "int256",
          "name": "",
          "type": "int256"
        },
        {
          "internalType": "int256",
          "name": "",
          "type": "int256"
        }
      ],
      "stateMutability": "view",
      "type": "function"
    },
    {
      "inputs": [
        {
          "internalType": "bytes32",
          "name": "role",
          "type": "bytes32"
        }
      ],
      "name": "getRoleAdmin",
      "outputs": [
        {
          "internalType": "bytes32",
          "name": "",
          "type": "bytes32"
        }
      ],
      "stateMutability": "view",
      "type": "function"
    },
    {
      "inputs": [
        {
          "internalType": "address",
          "name": "_account",
          "type": "address"
        }
      ],
      "name": "grantControllerRoleByMarketManager",
      "outputs": [],
      "stateMutability": "nonpayable",
      "type": "function"
    },
    {
      "inputs": [
        {
          "internalType": "bytes32",
          "name": "role",
          "type": "bytes32"
        },
        {
          "internalType": "address",
          "name": "account",
          "type": "address"
        }
      ],
      "name": "grantRole",
      "outputs": [],
      "stateMutability": "nonpayable",
      "type": "function"
    },
    {
      "inputs": [
        {
          "internalType": "bytes32",
          "name": "role",
          "type": "bytes32"
        },
        {
          "internalType": "address",
          "name": "account",
          "type": "address"
        }
      ],
      "name": "hasRole",
      "outputs": [
        {
          "internalType": "bool",
          "name": "",
          "type": "bool"
        }
      ],
      "stateMutability": "view",
      "type": "function"
    },
    {
      "inputs": [],
      "name": "marketReader",
      "outputs": [
        {
          "internalType": "address",
          "name": "",
          "type": "address"
        }
      ],
      "stateMutability": "view",
      "type": "function"
    },
    {
      "inputs": [],
      "name": "maxFRate",
      "outputs": [
        {
          "internalType": "uint256",
          "name": "",
          "type": "uint256"
        }
      ],
      "stateMutability": "view",
      "type": "function"
    },
    {
      "inputs": [],
      "name": "maxFRatePerDay",
      "outputs": [
        {
          "internalType": "uint256",
          "name": "",
          "type": "uint256"
        }
      ],
      "stateMutability": "view",
      "type": "function"
    },
    {
      "inputs": [],
      "name": "minRateLimit",
      "outputs": [
        {
          "internalType": "uint256",
          "name": "",
          "type": "uint256"
        }
      ],
      "stateMutability": "view",
      "type": "function"
    },
    {
      "inputs": [],
      "name": "minorityFRate",
      "outputs": [
        {
          "internalType": "uint256",
          "name": "",
          "type": "uint256"
        }
      ],
      "stateMutability": "view",
      "type": "function"
    },
    {
      "inputs": [],
      "name": "owner",
      "outputs": [
        {
          "internalType": "address",
          "name": "",
          "type": "address"
        }
      ],
      "stateMutability": "view",
      "type": "function"
    },
    {
      "inputs": [],
      "name": "renounceOwnership",
      "outputs": [],
      "stateMutability": "nonpayable",
      "type": "function"
    },
    {
      "inputs": [
        {
          "internalType": "bytes32",
          "name": "role",
          "type": "bytes32"
        },
        {
          "internalType": "address",
          "name": "account",
          "type": "address"
        }
      ],
      "name": "renounceRole",
      "outputs": [],
      "stateMutability": "nonpayable",
      "type": "function"
    },
    {
      "inputs": [
        {
          "internalType": "bytes32",
          "name": "role",
          "type": "bytes32"
        },
        {
          "internalType": "address",
          "name": "account",
          "type": "address"
        }
      ],
      "name": "revokeRole",
      "outputs": [],
      "stateMutability": "nonpayable",
      "type": "function"
    },
    {
      "inputs": [
        {
          "internalType": "uint256",
          "name": "x",
          "type": "uint256"
        }
      ],
      "name": "setFRateFactor",
      "outputs": [],
      "stateMutability": "nonpayable",
      "type": "function"
    },
    {
      "inputs": [
        {
          "internalType": "address[]",
          "name": "markets",
          "type": "address[]"
        },
        {
          "internalType": "uint256[]",
          "name": "intervals",
          "type": "uint256[]"
        }
      ],
      "name": "setFundingInterval",
      "outputs": [],
      "stateMutability": "nonpayable",
      "type": "function"
    },
    {
      "inputs": [
        {
          "internalType": "address",
          "name": "_marketReader",
          "type": "address"
        }
      ],
      "name": "setMarketReader",
      "outputs": [],
      "stateMutability": "nonpayable",
      "type": "function"
    },
    {
      "inputs": [
        {
          "internalType": "uint256",
          "name": "x",
          "type": "uint256"
        }
      ],
      "name": "setMaxFRate",
      "outputs": [],
      "stateMutability": "nonpayable",
      "type": "function"
    },
    {
      "inputs": [
        {
          "internalType": "uint256",
          "name": "x",
          "type": "uint256"
        }
      ],
      "name": "setMaxFRatePerDay",
      "outputs": [],
      "stateMutability": "nonpayable",
      "type": "function"
    },
    {
      "inputs": [
        {
          "internalType": "uint256",
          "name": "limit",
          "type": "uint256"
        }
      ],
      "name": "setMinRateLimit",
      "outputs": [],
      "stateMutability": "nonpayable",
      "type": "function"
    },
    {
      "inputs": [
        {
          "internalType": "uint256",
          "name": "rate",
          "type": "uint256"
        }
      ],
      "name": "setMinorityFRate",
      "outputs": [],
      "stateMutability": "nonpayable",
      "type": "function"
    },
    {
      "inputs": [
        {
          "internalType": "uint256",
          "name": "",
          "type": "uint256"
        }
      ],
      "name": "skipTimes",
      "outputs": [
        {
          "internalType": "uint256",
          "name": "start",
          "type": "uint256"
        },
        {
          "internalType": "uint256",
          "name": "end",
          "type": "uint256"
        }
      ],
      "stateMutability": "view",
      "type": "function"
    },
    {
      "inputs": [
        {
          "internalType": "bytes4",
          "name": "interfaceId",
          "type": "bytes4"
        }
      ],
      "name": "supportsInterface",
      "outputs": [
        {
          "internalType": "bool",
          "name": "",
          "type": "bool"
        }
      ],
      "stateMutability": "view",
      "type": "function"
    },
    {
      "inputs": [
        {
          "internalType": "address",
          "name": "to",
          "type": "address"
        }
      ],
      "name": "transferAdmin",
      "outputs": [],
      "stateMutability": "nonpayable",
      "type": "function"
    },
    {
      "inputs": [
        {
          "internalType": "address",
          "name": "newOwner",
          "type": "address"
        }
      ],
      "name": "transferOwnership",
      "outputs": [],
      "stateMutability": "nonpayable",
      "type": "function"
    },
    {
      "inputs": [
        {
          "internalType": "address",
          "name": "market",
          "type": "address"
        },
        {
          "internalType": "uint256",
          "name": "longSize",
          "type": "uint256"
        },
        {
          "internalType": "uint256",
          "name": "shortSize",
          "type": "uint256"
        }
      ],
      "name": "updateCumulativeFundingRate",
      "outputs": [],
      "stateMutability": "nonpayable",
      "type": "function"
    }
  ],
  "bytecode": "0x60a060405261411a60045560006005556305f5e1006009556305f5e100600a556000600b553480156200003157600080fd5b506040516200253e3803806200253e833981016040819052620000549162000230565b33620000608162000105565b62000076816200015760201b62000fc41760201c565b506001600160a01b038116620000c55760405162461bcd60e51b815260206004820152601060248201526f1a5b9d985b1a590819995955985d5b1d60821b604482015260640160405180910390fd5b6001600160a01b038116608052620000fe7f241ecf16d79d0f8dbfb92cbc07fe17840425976cf0667f022fe9877caa831b083362000183565b5062000262565b600180546001600160a01b038381166001600160a01b0319831681179093556040519116919082907f8be0079c531659141344cd1fd0a4f28419497f9722a3daafe3b4186f6b6457e090600090a35050565b42600255620001663362000105565b6200017360003362000224565b6200018060008262000224565b50565b6000828152602081815260408083206001600160a01b038516845290915290205460ff1662000220576000828152602081815260408083206001600160a01b03851684529091529020805460ff19166001179055620001df3390565b6001600160a01b0316816001600160a01b0316837f2f8788117e7eff1d82e926ec794901d17c78024a50270940304540a733656f0d60405160405180910390a45b5050565b62000220828262000183565b6000602082840312156200024357600080fd5b81516001600160a01b03811681146200025b57600080fd5b9392505050565b6080516122a46200029a6000396000818161031f015281816105f2015281816109c90152818161128e015261133d01526122a46000f3fe608060405234801561001057600080fd5b506004361061023d5760003560e01c80637fe4a6981161013b578063bc3d3a8b116100b8578063d547741f1161007c578063d547741f146104d6578063dc5ac995146104e9578063e56fa59d146104fc578063f2fde38b1461050f578063f4ca4d1d1461052257600080fd5b8063bc3d3a8b1461048b578063c1b3cb0f1461049e578063c418b11c146104a7578063c6f83ad1146104ba578063c831ba2a146104cd57600080fd5b806391d14854116100ff57806391d148541461044c57806395d608a21461045f578063a217fddf14610468578063b874970314610470578063bac8d9e81461048357600080fd5b80637fe4a698146103f957806387a1cd091461040c5780638ac89fc21461041f5780638da5cb5b146104285780638f18af9a1461043957600080fd5b80634fd39bee116101c9578063705da24c1161018d578063705da24c146103ba578063715018a6146103c257806374d57cef146103ca57806375829def146103d357806376239a67146103e657600080fd5b80634fd39bee1461035957806350d16a291461036c5780635645d8771461037f5780635a58ca451461039f5780635b7c1137146103a757600080fd5b8063248a9ca311610210578063248a9ca3146102c657806327d3fbf3146102e95780632f2ff15d146102f257806336568abe14610307578063478222c21461031a57600080fd5b806301ffc9a714610242578063021453f41461026a578063054aaca11461029257806320981df4146102a5575b600080fd5b610255610250366004611a3e565b61052d565b60405190151581526020015b60405180910390f35b61027d610278366004611a68565b610564565b60408051928352602083019190915201610261565b61027d6102a0366004611a96565b610592565b6102b86102b3366004611ad9565b6105c5565b604051908152602001610261565b6102b86102d4366004611a68565b60009081526020819052604090206001015490565b6102b860055481565b610305610300366004611b12565b610666565b005b610305610315366004611b12565b610690565b6103417f000000000000000000000000000000000000000000000000000000000000000081565b6040516001600160a01b039091168152602001610261565b610305610367366004611a68565b610713565b61030561037a366004611a68565b61072f565b6102b861038d366004611b37565b60066020526000908152604090205481565b6102b8606481565b6103056103b5366004611b37565b61074b565b6102b8601881565b610305610784565b6102b8600b5481565b6103056103e1366004611b37565b610798565b6103056103f4366004611c53565b6107c2565b610305610407366004611b37565b610973565b600354610341906001600160a01b031681565b6102b860095481565b6001546001600160a01b0316610341565b6102b8610447366004611d15565b61099d565b61025561045a366004611b12565b610a5c565b6102b8600a5481565b6102b8600081565b61030561047e366004611a68565b610a85565b6102b8610aa1565b610305610499366004611d5f565b610c42565b6102b8610e1081565b600854610341906001600160a01b031681565b6103056104c8366004611a96565b610d42565b6102b860045481565b6103056104e4366004611b12565b610e32565b6103056104f7366004611a68565b610e57565b61030561050a366004611a68565b610eb3565b61030561051d366004611b37565b610f4b565b6102b86305f5e10081565b60006001600160e01b03198216637965db0b60e01b148061055e57506301ffc9a760e01b6001600160e01b03198316145b92915050565b6007818154811061057457600080fd5b60009182526020909120600290910201805460019091015490915082565b6000806000806105a3878787610fe7565b915091506000806105b589858561103e565b909a909950975050505050505050565b6040516001624c409d60e01b031981526001600160a01b03838116600483015282151560248301526000917f00000000000000000000000000000000000000000000000000000000000000009091169063ffb3bf6390604401602060405180830381865afa15801561063b573d6000803e3d6000fd5b505050506040513d601f19601f8201168201806040525081019061065f9190611d81565b9392505050565b60008281526020819052604090206001015461068181611072565b61068b838361107c565b505050565b6001600160a01b03811633146107055760405162461bcd60e51b815260206004820152602f60248201527f416363657373436f6e74726f6c3a2063616e206f6e6c792072656e6f756e636560448201526e103937b632b9903337b91039b2b63360891b60648201526084015b60405180910390fd5b61070f8282611100565b5050565b61072a60008051602061224f833981519152611072565b600b55565b61074660008051602061224f833981519152611072565b600955565b61076260008051602061224f833981519152611072565b600880546001600160a01b0319166001600160a01b0392909216919091179055565b61078c611165565b61079660006111bf565b565b60006107a381611072565b6107ae600083611211565b6107b7826111bf565b61070f600033611100565b6107d960008051602061224f833981519152611072565b805182511461081b5760405162461bcd60e51b815260206004820152600e60248201526d696e76616c696420706172616d7360901b60448201526064016106fc565b6000805b835181101561096d5760006001600160a01b031684828151811061084557610845611d9a565b60200260200101516001600160a01b03160361086057600080fd5b610e1083828151811061087557610875611d9a565b6020026020010151101561088857600080fd5b610e108084838151811061089e5761089e611d9a565b60200260200101516108b09190611ddc565b6108ba9190611df0565b915081600660008684815181106108d3576108d3611d9a565b60200260200101516001600160a01b03166001600160a01b031681526020019081526020016000208190555083818151811061091157610911611d9a565b60200260200101516001600160a01b03167f014f9b627a46d0881111664e681522272907a49b31cc3f24613bdad2c551825c8360405161095391815260200190565b60405180910390a28061096581611e07565b91505061081f565b50505050565b7f8d1089725c0dc266707fa6207730fb801dcd03108bfed7a21099bd303651d2b761023d81611072565b6040516334f32e2560e01b81526001600160a01b038581166004830152821515602483015260009182917f000000000000000000000000000000000000000000000000000000000000000016906334f32e2590604401602060405180830381865afa158015610a10573d6000803e3d6000fd5b505050506040513d601f19601f82011682018060405250810190610a349190611d81565b90506305f5e10080610a4787878561121b565b610a519190611e20565b979650505050505050565b6000918252602082815260408084206001600160a01b0393909316845291905290205460ff1690565b610a9c60008051602061224f833981519152611072565b600a55565b60085460408051637616480b60e11b815290516000926001600160a01b0316918391839163ec2c901691600480830192869291908290030181865afa158015610aee573d6000803e3d6000fd5b505050506040513d6000823e601f3d908101601f19168201604052610b169190810190611e8d565b905060005b8151811015610c3c57826001600160a01b031663d37c441c6040518163ffffffff1660e01b8152600401602060405180830381865afa158015610b62573d6000803e3d6000fd5b505050506040513d601f19601f82011682018060405250810190610b869190612002565b6001600160a01b0316632b8a0012838381518110610ba657610ba6611d9a565b6020026020010151602001516040518263ffffffff1660e01b8152600401610bdd91906001600160a01b0391909116815260200190565b602060405180830381865afa158015610bfa573d6000803e3d6000fd5b505050506040513d601f19601f82011682018060405250810190610c1e9190611d81565b610c28908561201f565b935080610c3481611e07565b915050610b1b565b50505090565b610c5960008051602061224f833981519152611072565b81811015610c9a5760405162461bcd60e51b815260206004820152600e60248201526d696e76616c696420706172616d7360901b60448201526064016106fc565b6040805180820182528381526020810183815260078054600181018255600091825283517fa66cc928b5edb82af9bd49922954155ab7b0942694bea4ce44661d9a8736c68860029092029182015591517fa66cc928b5edb82af9bd49922954155ab7b0942694bea4ce44661d9a8736c6899092019190915591519091839185917fbb67e50fdd1f174a20c4f1e0e5b9ab3984685f30623b89b69ba068a11ce913b691a3505050565b610d6b7fcb58d6d985142a614029cdf01861b4fe094d5919a47e69b8310dc4093d9d6ad0611072565b6000610d768461123d565b90506000610d838561126c565b905080600003610dbb5781610d988142611ddc565b610da29190611df0565b9050610db485600080600080866112fb565b5050505050565b610dc68183426113a1565b1515600003610dd6575050505050565b600080610de4878787610fe7565b91509150600080610df689858561103e565b915091508586610e034290565b610e0d9190611ddc565b610e179190611df0565b9450610e2789858585858a6112fb565b505050505050505050565b600082815260208190526040902060010154610e4d81611072565b61068b8383611100565b610e6e60008051602061224f833981519152611072565b600580549082905560408051828152602081018490527fcc6508f1ccefe81f3ad53a268646f4f599087ddb280e426c89bc1d597a03d412910160405180910390a15050565b610eca60008051602061224f833981519152611072565b60008111610f0a5760405162461bcd60e51b815260206004820152600d60248201526c1a5b9d985b1a59081b1a5b5a5d609a1b60448201526064016106fc565b600480549082905560405182815281907f3260736e52fceaa012d37fa304cc1487de94003f4f3abd03f22617f6105cd83a9060200160405180910390a25050565b610f53611165565b6001600160a01b038116610fb85760405162461bcd60e51b815260206004820152602660248201527f4f776e61626c653a206e6577206f776e657220697320746865207a65726f206160448201526564647265737360d01b60648201526084016106fc565b610fc1816111bf565b50565b42600255610fd1336111bf565b610fdc600033611211565b610fc1600082611211565b60008060008061101a8686600b54610ffe60045490565b6110078c6113b8565b6110128d8d8d6114be565b6005546114de565b915091506110278261153d565b6110308261153d565b935093505050935093915050565b600080611066848461104f8861123d565b6110588961126c565b426110616115ab565b611666565b91509150935093915050565b610fc181336116c6565b6110868282610a5c565b61070f576000828152602081815260408083206001600160a01b03851684529091529020805460ff191660011790556110bc3390565b6001600160a01b0316816001600160a01b0316837f2f8788117e7eff1d82e926ec794901d17c78024a50270940304540a733656f0d60405160405180910390a45050565b61110a8282610a5c565b1561070f576000828152602081815260408083206001600160a01b0385168085529252808320805460ff1916905551339285917ff6391f5c32d9c69d2a47ea670b442974b53935d1edc7fd64eb21e047a839171b9190a45050565b6001546001600160a01b031633146107965760405162461bcd60e51b815260206004820181905260248201527f4f776e61626c653a2063616c6c6572206973206e6f7420746865206f776e657260448201526064016106fc565b600180546001600160a01b038381166001600160a01b0319831681179093556040519116919082907f8be0079c531659141344cd1fd0a4f28419497f9722a3daafe3b4186f6b6457e090600090a35050565b61070f828261107c565b6000806112288484612032565b90506112348186612059565b95945050505050565b6001600160a01b03811660009081526006602052604081205480156112625792915050565b50610e1092915050565b60405163d8f897c360e01b81526001600160a01b0382811660048301526000917f00000000000000000000000000000000000000000000000000000000000000009091169063d8f897c390602401602060405180830381865afa1580156112d7573d6000803e3d6000fd5b505050506040513d601f19601f8201168201806040525081019061055e9190611d81565b60405163b21bf2d360e01b81526001600160a01b0387811660048301526024820187905260448201869052606482018590526084820184905260a482018390527f0000000000000000000000000000000000000000000000000000000000000000169063b21bf2d39060c401600060405180830381600087803b15801561138157600080fd5b505af1158015611395573d6000803e3d6000fd5b50505050505050505050565b6000816113ae848661201f565b1115949350505050565b6008546000906001600160a01b0316816113d0610aa1565b90506000826001600160a01b031663d37c441c6040518163ffffffff1660e01b8152600401602060405180830381865afa158015611412573d6000803e3d6000fd5b505050506040513d601f19601f820116820180604052508101906114369190612002565b6001600160a01b0316636dc7b0a16040518163ffffffff1660e01b8152600401602060405180830381865afa158015611473573d6000803e3d6000fd5b505050506040513d601f19601f820116820180604052508101906114979190611d81565b905060006114a48661123d565b90506114b483836009548461171f565b9695505050505050565b60006114d683836114ce8761123d565b600a54611775565b949350505050565b6000808584116114f2575084905080611531565b86156114fe5786611500565b845b96508684111561150e578693505b8584101561151a578593505b8789101561152957828461152c565b83835b915091505b97509795505050505050565b60006001600160ff1b038211156115a75760405162461bcd60e51b815260206004820152602860248201527f53616665436173743a2076616c756520646f65736e27742066697420696e2061604482015267371034b73a191a9b60c11b60648201526084016106fc565b5090565b60075460009081036115ba5790565b60005b6007548110156115a757600781815481106115da576115da611d9a565b906000526020600020906002020160010154421115611654576007818154811061160657611606611d9a565b9060005260206000209060020201600001546007828154811061162b5761162b611d9a565b9060005260206000209060020201600101546116479190612089565b611651908361201f565b91505b8061165e81611e07565b9150506115bd565b6000806116748587866113a1565b1515600003611688575060009050806116bb565b600061169686888787611826565b905060006116a48a83611860565b905060006116b28a84611860565b91945090925050505b965096945050505050565b6116d08282610a5c565b61070f576116dd8161186c565b6116e883602061187e565b6040516020016116f992919061209c565b60408051601f198184030181529082905262461bcd60e51b82526106fc91600401612111565b600080610e106305f5e1006018878288611739898d611df0565b6117439190611df0565b61174d9190611df0565b6117579190611ddc565b6117619190611ddc565b61176b9190611ddc565b6114b49190611ddc565b6000806117828686611a1a565b9050600081156114b4576000611798878961201f565b9050806117a96305f5e10085611df0565b6117b39190611ddc565b9150610e10601860646305f5e100896117cd600288612228565b6117d79190611df0565b6117e19190611ddc565b6117eb9190611ddc565b6117f59190611ddc565b6117ff9190611ddc565b91506305f5e1006118108684611df0565b61181a9190611ddc565b98975050505050505050565b600080841180156118375750600083115b61184057600080fd5b838261184c8786612089565b6118569190612089565b6112349190611ddc565b600061065f8284612059565b606061055e6001600160a01b03831660145b6060600061188d836002611df0565b61189890600261201f565b67ffffffffffffffff8111156118b0576118b0611b54565b6040519080825280601f01601f1916602001820160405280156118da576020820181803683370190505b509050600360fc1b816000815181106118f5576118f5611d9a565b60200101906001600160f81b031916908160001a905350600f60fb1b8160018151811061192457611924611d9a565b60200101906001600160f81b031916908160001a9053506000611948846002611df0565b61195390600161201f565b90505b60018111156119cb576f181899199a1a9b1b9c1cb0b131b232b360811b85600f166010811061198757611987611d9a565b1a60f81b82828151811061199d5761199d611d9a565b60200101906001600160f81b031916908160001a90535060049490941c936119c481612237565b9050611956565b50831561065f5760405162461bcd60e51b815260206004820181905260248201527f537472696e67733a20686578206c656e67746820696e73756666696369656e7460448201526064016106fc565b6000818310611a3457611a2d8284612089565b905061055e565b611a2d8383612089565b600060208284031215611a5057600080fd5b81356001600160e01b03198116811461065f57600080fd5b600060208284031215611a7a57600080fd5b5035919050565b6001600160a01b0381168114610fc157600080fd5b600080600060608486031215611aab57600080fd5b8335611ab681611a81565b95602085013595506040909401359392505050565b8015158114610fc157600080fd5b60008060408385031215611aec57600080fd5b8235611af781611a81565b91506020830135611b0781611acb565b809150509250929050565b60008060408385031215611b2557600080fd5b823591506020830135611b0781611a81565b600060208284031215611b4957600080fd5b813561065f81611a81565b634e487b7160e01b600052604160045260246000fd5b60405160a0810167ffffffffffffffff81118282101715611b8d57611b8d611b54565b60405290565b604051601f8201601f1916810167ffffffffffffffff81118282101715611bbc57611bbc611b54565b604052919050565b600067ffffffffffffffff821115611bde57611bde611b54565b5060051b60200190565b600082601f830112611bf957600080fd5b81356020611c0e611c0983611bc4565b611b93565b82815260059290921b84018101918181019086841115611c2d57600080fd5b8286015b84811015611c485780358352918301918301611c31565b509695505050505050565b60008060408385031215611c6657600080fd5b823567ffffffffffffffff80821115611c7e57600080fd5b818501915085601f830112611c9257600080fd5b81356020611ca2611c0983611bc4565b82815260059290921b84018101918181019089841115611cc157600080fd5b948201945b83861015611ce8578535611cd981611a81565b82529482019490820190611cc6565b96505086013592505080821115611cfe57600080fd5b50611d0b85828601611be8565b9150509250929050565b60008060008060808587031215611d2b57600080fd5b8435611d3681611a81565b935060208501359250604085013591506060850135611d5481611acb565b939692955090935050565b60008060408385031215611d7257600080fd5b50508035926020909101359150565b600060208284031215611d9357600080fd5b5051919050565b634e487b7160e01b600052603260045260246000fd5b634e487b7160e01b600052601260045260246000fd5b634e487b7160e01b600052601160045260246000fd5b600082611deb57611deb611db0565b500490565b808202811582820484141761055e5761055e611dc6565b600060018201611e1957611e19611dc6565b5060010190565b600082611e2f57611e2f611db0565b600160ff1b821460001984141615611e4957611e49611dc6565b500590565b60005b83811015611e69578181015183820152602001611e51565b50506000910152565b8051611e7d81611a81565b919050565b8051611e7d81611acb565b60006020808385031215611ea057600080fd5b825167ffffffffffffffff80821115611eb857600080fd5b818501915085601f830112611ecc57600080fd5b8151611eda611c0982611bc4565b81815260059190911b83018401908481019088831115611ef957600080fd5b8585015b83811015611ff557805185811115611f1457600080fd5b8601601f1960a0828d0382011215611f2c5760008081fd5b611f34611b6a565b8983015188811115611f465760008081fd5b8301603f81018e13611f585760008081fd5b8a81015160408a821115611f6e57611f6e611b54565b611f7e8d86601f85011601611b93565b94508185528f81838501011115611f955760008081fd5b611fa4828e8701838601611e4e565b848452611fb2818701611e72565b8d8501526060945084860151818501525050506080611fd2818501611e82565b83830152611fe260a08501611e82565b9082015285525050918601918601611efd565b5098975050505050505050565b60006020828403121561201457600080fd5b815161065f81611a81565b8082018082111561055e5761055e611dc6565b818103600083128015838313168383128216171561205257612052611dc6565b5092915050565b80820260008212600160ff1b8414161561207557612075611dc6565b818105831482151761055e5761055e611dc6565b8181038181111561055e5761055e611dc6565b7f416363657373436f6e74726f6c3a206163636f756e74200000000000000000008152600083516120d4816017850160208801611e4e565b7001034b99036b4b9b9b4b733903937b6329607d1b6017918401918201528351612105816028840160208801611e4e565b01602801949350505050565b6020815260008251806020840152612130816040850160208701611e4e565b601f01601f19169190910160400192915050565b600181815b8085111561217f57816000190482111561216557612165611dc6565b8085161561217257918102915b93841c9390800290612149565b509250929050565b6000826121965750600161055e565b816121a35750600061055e565b81600181146121b957600281146121c3576121df565b600191505061055e565b60ff8411156121d4576121d4611dc6565b50506001821b61055e565b5060208310610133831016604e8410600b8410161715612202575081810a61055e565b61220c8383612144565b806000190482111561222057612220611dc6565b029392505050565b600061065f60ff841683612187565b60008161224657612246611dc6565b50600019019056fe241ecf16d79d0f8dbfb92cbc07fe17840425976cf0667f022fe9877caa831b08a2646970667358221220401e4334bf69cd60c19e6ae9929b6424bab1c842d7429ea958ea9f621b44642564736f6c63430008110033",
  "linkReferences": {},
  "deployedLinkReferences": {}
}