{
  "_format": "hh-sol-artifact-1",
  "contractName": "FundFee",
  "sourceName": "contracts/fee/FundFee.sol",
  "abi": [
    {
      "inputs": [
        {
          "internalType": "address",
          "name": "_feeVault",
          "type": "address"
        }
      ],
      "stateMutability": "nonpayable",
      "type": "constructor"
    },
    {
      "anonymous": false,
      "inputs": [
        {
          "indexed": true,
          "internalType": "uint256",
          "name": "startTime",
          "type": "uint256"
        },
        {
          "indexed": true,
          "internalType": "uint256",
          "name": "endTime",
          "type": "uint256"
        }
      ],
      "name": "AddSkipTime",
      "type": "event"
    },
    {
      "anonymous": false,
      "inputs": [
        {
          "indexed": false,
          "internalType": "uint8",
          "name": "version",
          "type": "uint8"
        }
      ],
      "name": "Initialized",
      "type": "event"
    },
    {
      "anonymous": false,
      "inputs": [
        {
          "indexed": true,
          "internalType": "address",
          "name": "previousOwner",
          "type": "address"
        },
        {
          "indexed": true,
          "internalType": "address",
          "name": "newOwner",
          "type": "address"
        }
      ],
      "name": "OwnershipTransferred",
      "type": "event"
    },
    {
      "anonymous": false,
      "inputs": [
        {
          "indexed": true,
          "internalType": "bytes32",
          "name": "role",
          "type": "bytes32"
        },
        {
          "indexed": true,
          "internalType": "bytes32",
          "name": "previousAdminRole",
          "type": "bytes32"
        },
        {
          "indexed": true,
          "internalType": "bytes32",
          "name": "newAdminRole",
          "type": "bytes32"
        }
      ],
      "name": "RoleAdminChanged",
      "type": "event"
    },
    {
      "anonymous": false,
      "inputs": [
        {
          "indexed": true,
          "internalType": "bytes32",
          "name": "role",
          "type": "bytes32"
        },
        {
          "indexed": true,
          "internalType": "address",
          "name": "account",
          "type": "address"
        },
        {
          "indexed": true,
          "internalType": "address",
          "name": "sender",
          "type": "address"
        }
      ],
      "name": "RoleGranted",
      "type": "event"
    },
    {
      "anonymous": false,
      "inputs": [
        {
          "indexed": true,
          "internalType": "bytes32",
          "name": "role",
          "type": "bytes32"
        },
        {
          "indexed": true,
          "internalType": "address",
          "name": "account",
          "type": "address"
        },
        {
          "indexed": true,
          "internalType": "address",
          "name": "sender",
          "type": "address"
        }
      ],
      "name": "RoleRevoked",
      "type": "event"
    },
    {
      "anonymous": false,
      "inputs": [
        {
          "indexed": true,
          "internalType": "address",
          "name": "market",
          "type": "address"
        },
        {
          "indexed": false,
          "internalType": "uint256",
          "name": "interval",
          "type": "uint256"
        }
      ],
      "name": "UpdateFundInterval",
      "type": "event"
    },
    {
      "anonymous": false,
      "inputs": [
        {
          "indexed": true,
          "internalType": "uint256",
          "name": "oldLimit",
          "type": "uint256"
        },
        {
          "indexed": false,
          "internalType": "uint256",
          "name": "newLimit",
          "type": "uint256"
        }
      ],
      "name": "UpdateMinRateLimit",
      "type": "event"
    },
    {
      "anonymous": false,
      "inputs": [
        {
          "indexed": false,
          "internalType": "uint256",
          "name": "oldFRate",
          "type": "uint256"
        },
        {
          "indexed": false,
          "internalType": "uint256",
          "name": "newFRate",
          "type": "uint256"
        }
      ],
      "name": "UpdateMinorityFRate",
      "type": "event"
    },
    {
      "inputs": [],
      "name": "BASIS_INTERVAL_HOU",
      "outputs": [
        {
          "internalType": "uint256",
          "name": "",
          "type": "uint256"
        }
      ],
      "stateMutability": "view",
      "type": "function"
    },
    {
      "inputs": [],
      "name": "DEFAULT_ADMIN_ROLE",
      "outputs": [
        {
          "internalType": "bytes32",
          "name": "",
          "type": "bytes32"
        }
      ],
      "stateMutability": "view",
      "type": "function"
    },
    {
      "inputs": [],
      "name": "DEFAULT_RATE_DIVISOR",
      "outputs": [
        {
          "internalType": "uint256",
          "name": "",
          "type": "uint256"
        }
      ],
      "stateMutability": "view",
      "type": "function"
    },
    {
      "inputs": [],
      "name": "FEE_RATE_PRECISION",
      "outputs": [
        {
          "internalType": "uint256",
          "name": "",
          "type": "uint256"
        }
      ],
      "stateMutability": "view",
      "type": "function"
    },
    {
      "inputs": [],
      "name": "MIN_FUNDING_INTERVAL",
      "outputs": [
        {
          "internalType": "uint256",
          "name": "",
          "type": "uint256"
        }
      ],
      "stateMutability": "view",
      "type": "function"
    },
    {
      "inputs": [
        {
          "internalType": "uint256",
          "name": "start",
          "type": "uint256"
        },
        {
          "internalType": "uint256",
          "name": "end",
          "type": "uint256"
        }
      ],
      "name": "addSkipTime",
      "outputs": [],
      "stateMutability": "nonpayable",
      "type": "function"
    },
    {
      "inputs": [],
      "name": "blankSlot",
      "outputs": [
        {
          "internalType": "address",
          "name": "",
          "type": "address"
        }
      ],
      "stateMutability": "view",
      "type": "function"
    },
    {
      "inputs": [],
      "name": "fRateFactor",
      "outputs": [
        {
          "internalType": "uint256",
          "name": "",
          "type": "uint256"
        }
      ],
      "stateMutability": "view",
      "type": "function"
    },
    {
      "inputs": [],
      "name": "feeVault",
      "outputs": [
        {
          "internalType": "address",
          "name": "",
          "type": "address"
        }
      ],
      "stateMutability": "view",
      "type": "function"
    },
    {
      "inputs": [
        {
          "internalType": "address",
          "name": "",
          "type": "address"
        }
      ],
      "name": "fundingIntervals",
      "outputs": [
        {
          "internalType": "uint256",
          "name": "",
          "type": "uint256"
        }
      ],
      "stateMutability": "view",
      "type": "function"
    },
    {
      "inputs": [
        {
          "internalType": "address",
          "name": "market",
          "type": "address"
        },
        {
          "internalType": "uint256",
          "name": "size",
          "type": "uint256"
        },
        {
          "internalType": "int256",
          "name": "entryFundingRate",
          "type": "int256"
        },
        {
          "internalType": "bool",
          "name": "isLong",
          "type": "bool"
        }
      ],
      "name": "getFundingFee",
      "outputs": [
        {
          "internalType": "int256",
          "name": "",
          "type": "int256"
        }
      ],
      "stateMutability": "view",
      "type": "function"
    },
    {
      "inputs": [
        {
          "internalType": "address",
          "name": "market",
          "type": "address"
        },
        {
          "internalType": "bool",
          "name": "isLong",
          "type": "bool"
        }
      ],
      "name": "getFundingRate",
      "outputs": [
        {
          "internalType": "int256",
          "name": "",
          "type": "int256"
        }
      ],
      "stateMutability": "view",
      "type": "function"
    },
    {
      "inputs": [],
      "name": "getGlobalOpenInterest",
      "outputs": [
        {
          "internalType": "uint256",
          "name": "_globalSize",
          "type": "uint256"
        }
      ],
      "stateMutability": "view",
      "type": "function"
    },
    {
      "inputs": [
        {
          "internalType": "address",
          "name": "market",
          "type": "address"
        },
        {
          "internalType": "uint256",
          "name": "longSize",
          "type": "uint256"
        },
        {
          "internalType": "uint256",
          "name": "shortSize",
          "type": "uint256"
        }
      ],
      "name": "getNextFundingRate",
      "outputs": [
        {
          "internalType": "int256",
          "name": "",
          "type": "int256"
        },
        {
          "internalType": "int256",
          "name": "",
          "type": "int256"
        }
      ],
      "stateMutability": "view",
      "type": "function"
    },
    {
      "inputs": [
        {
          "internalType": "bytes32",
          "name": "role",
          "type": "bytes32"
        }
      ],
      "name": "getRoleAdmin",
      "outputs": [
        {
          "internalType": "bytes32",
          "name": "",
          "type": "bytes32"
        }
      ],
      "stateMutability": "view",
      "type": "function"
    },
    {
      "inputs": [
        {
          "internalType": "address",
          "name": "_account",
          "type": "address"
        }
      ],
      "name": "grantControllerRoleByMarketManager",
      "outputs": [],
      "stateMutability": "nonpayable",
      "type": "function"
    },
    {
      "inputs": [
        {
          "internalType": "bytes32",
          "name": "role",
          "type": "bytes32"
        },
        {
          "internalType": "address",
          "name": "account",
          "type": "address"
        }
      ],
      "name": "grantRole",
      "outputs": [],
      "stateMutability": "nonpayable",
      "type": "function"
    },
    {
      "inputs": [
        {
          "internalType": "bytes32",
          "name": "role",
          "type": "bytes32"
        },
        {
          "internalType": "address",
          "name": "account",
          "type": "address"
        }
      ],
      "name": "hasRole",
      "outputs": [
        {
          "internalType": "bool",
          "name": "",
          "type": "bool"
        }
      ],
      "stateMutability": "view",
      "type": "function"
    },
    {
      "inputs": [],
      "name": "marketReader",
      "outputs": [
        {
          "internalType": "address",
          "name": "",
          "type": "address"
        }
      ],
      "stateMutability": "view",
      "type": "function"
    },
    {
      "inputs": [],
      "name": "maxFRate",
      "outputs": [
        {
          "internalType": "uint256",
          "name": "",
          "type": "uint256"
        }
      ],
      "stateMutability": "view",
      "type": "function"
    },
    {
      "inputs": [],
      "name": "maxFRatePerDay",
      "outputs": [
        {
          "internalType": "uint256",
          "name": "",
          "type": "uint256"
        }
      ],
      "stateMutability": "view",
      "type": "function"
    },
    {
      "inputs": [],
      "name": "minRateLimit",
      "outputs": [
        {
          "internalType": "uint256",
          "name": "",
          "type": "uint256"
        }
      ],
      "stateMutability": "view",
      "type": "function"
    },
    {
      "inputs": [],
      "name": "minorityFRate",
      "outputs": [
        {
          "internalType": "uint256",
          "name": "",
          "type": "uint256"
        }
      ],
      "stateMutability": "view",
      "type": "function"
    },
    {
      "inputs": [],
      "name": "owner",
      "outputs": [
        {
          "internalType": "address",
          "name": "",
          "type": "address"
        }
      ],
      "stateMutability": "view",
      "type": "function"
    },
    {
      "inputs": [],
      "name": "renounceOwnership",
      "outputs": [],
      "stateMutability": "nonpayable",
      "type": "function"
    },
    {
      "inputs": [
        {
          "internalType": "bytes32",
          "name": "role",
          "type": "bytes32"
        },
        {
          "internalType": "address",
          "name": "account",
          "type": "address"
        }
      ],
      "name": "renounceRole",
      "outputs": [],
      "stateMutability": "nonpayable",
      "type": "function"
    },
    {
      "inputs": [
        {
          "internalType": "bytes32",
          "name": "role",
          "type": "bytes32"
        },
        {
          "internalType": "address",
          "name": "account",
          "type": "address"
        }
      ],
      "name": "revokeRole",
      "outputs": [],
      "stateMutability": "nonpayable",
      "type": "function"
    },
    {
      "inputs": [
        {
          "internalType": "uint256",
          "name": "x",
          "type": "uint256"
        }
      ],
      "name": "setFRateFactor",
      "outputs": [],
      "stateMutability": "nonpayable",
      "type": "function"
    },
    {
      "inputs": [
        {
          "internalType": "address[]",
          "name": "markets",
          "type": "address[]"
        },
        {
          "internalType": "uint256[]",
          "name": "intervals",
          "type": "uint256[]"
        }
      ],
      "name": "setFundingInterval",
      "outputs": [],
      "stateMutability": "nonpayable",
      "type": "function"
    },
    {
      "inputs": [
        {
          "internalType": "address",
          "name": "_marketReader",
          "type": "address"
        }
      ],
      "name": "setMarketReader",
      "outputs": [],
      "stateMutability": "nonpayable",
      "type": "function"
    },
    {
      "inputs": [
        {
          "internalType": "uint256",
          "name": "x",
          "type": "uint256"
        }
      ],
      "name": "setMaxFRate",
      "outputs": [],
      "stateMutability": "nonpayable",
      "type": "function"
    },
    {
      "inputs": [
        {
          "internalType": "uint256",
          "name": "x",
          "type": "uint256"
        }
      ],
      "name": "setMaxFRatePerDay",
      "outputs": [],
      "stateMutability": "nonpayable",
      "type": "function"
    },
    {
      "inputs": [
        {
          "internalType": "uint256",
          "name": "limit",
          "type": "uint256"
        }
      ],
      "name": "setMinRateLimit",
      "outputs": [],
      "stateMutability": "nonpayable",
      "type": "function"
    },
    {
      "inputs": [
        {
          "internalType": "uint256",
          "name": "rate",
          "type": "uint256"
        }
      ],
      "name": "setMinorityFRate",
      "outputs": [],
      "stateMutability": "nonpayable",
      "type": "function"
    },
    {
      "inputs": [
        {
          "internalType": "uint256",
          "name": "",
          "type": "uint256"
        }
      ],
      "name": "skipTimes",
      "outputs": [
        {
          "internalType": "uint256",
          "name": "start",
          "type": "uint256"
        },
        {
          "internalType": "uint256",
          "name": "end",
          "type": "uint256"
        }
      ],
      "stateMutability": "view",
      "type": "function"
    },
    {
      "inputs": [
        {
          "internalType": "bytes4",
          "name": "interfaceId",
          "type": "bytes4"
        }
      ],
      "name": "supportsInterface",
      "outputs": [
        {
          "internalType": "bool",
          "name": "",
          "type": "bool"
        }
      ],
      "stateMutability": "view",
      "type": "function"
    },
    {
      "inputs": [
        {
          "internalType": "address",
          "name": "to",
          "type": "address"
        }
      ],
      "name": "transferAdmin",
      "outputs": [],
      "stateMutability": "nonpayable",
      "type": "function"
    },
    {
      "inputs": [
        {
          "internalType": "address",
          "name": "newOwner",
          "type": "address"
        }
      ],
      "name": "transferOwnership",
      "outputs": [],
      "stateMutability": "nonpayable",
      "type": "function"
    },
    {
      "inputs": [
        {
          "internalType": "address",
          "name": "market",
          "type": "address"
        },
        {
          "internalType": "uint256",
          "name": "longSize",
          "type": "uint256"
        },
        {
          "internalType": "uint256",
          "name": "shortSize",
          "type": "uint256"
        }
      ],
      "name": "updateCumulativeFundingRate",
      "outputs": [],
      "stateMutability": "nonpayable",
      "type": "function"
    }
  ],
  "bytecode": "0x60a060405261411a60045560006005556305f5e1006009556305f5e100600a556000600b553480156200003157600080fd5b506040516200250238038062002502833981016040819052620000549162000230565b33620000608162000105565b62000076816200015760201b62000fd71760201c565b506001600160a01b038116620000c55760405162461bcd60e51b815260206004820152601060248201526f1a5b9d985b1a590819995955985d5b1d60821b604482015260640160405180910390fd5b6001600160a01b038116608052620000fe7f241ecf16d79d0f8dbfb92cbc07fe17840425976cf0667f022fe9877caa831b083362000183565b5062000262565b600180546001600160a01b038381166001600160a01b0319831681179093556040519116919082907f8be0079c531659141344cd1fd0a4f28419497f9722a3daafe3b4186f6b6457e090600090a35050565b42600255620001663362000105565b6200017360003362000224565b6200018060008262000224565b50565b6000828152602081815260408083206001600160a01b038516845290915290205460ff1662000220576000828152602081815260408083206001600160a01b03851684529091529020805460ff19166001179055620001df3390565b6001600160a01b0316816001600160a01b0316837f2f8788117e7eff1d82e926ec794901d17c78024a50270940304540a733656f0d60405160405180910390a45b5050565b62000220828262000183565b6000602082840312156200024357600080fd5b81516001600160a01b03811681146200025b57600080fd5b9392505050565b6080516122686200029a6000396000818161031f015281816105f4015281816109db01528181611358015261140701526122686000f3fe608060405234801561001057600080fd5b506004361061023d5760003560e01c80637fe4a6981161013b578063bc3d3a8b116100b8578063d547741f1161007c578063d547741f146104d6578063dc5ac995146104e9578063e56fa59d146104fc578063f2fde38b1461050f578063f4ca4d1d1461052257600080fd5b8063bc3d3a8b1461048b578063c1b3cb0f1461049e578063c418b11c146104a7578063c6f83ad1146104ba578063c831ba2a146104cd57600080fd5b806391d14854116100ff57806391d148541461044c57806395d608a21461045f578063a217fddf14610468578063b874970314610470578063bac8d9e81461048357600080fd5b80637fe4a698146103f957806387a1cd091461040c5780638ac89fc21461041f5780638da5cb5b146104285780638f18af9a1461043957600080fd5b80634fd39bee116101c9578063705da24c1161018d578063705da24c146103ba578063715018a6146103c257806374d57cef146103ca57806375829def146103d357806376239a67146103e657600080fd5b80634fd39bee1461035957806350d16a291461036c5780635645d8771461037f5780635a58ca451461039f5780635b7c1137146103a757600080fd5b8063248a9ca311610210578063248a9ca3146102c657806327d3fbf3146102e95780632f2ff15d146102f257806336568abe14610307578063478222c21461031a57600080fd5b806301ffc9a714610242578063021453f41461026a578063054aaca11461029257806320981df4146102a5575b600080fd5b610255610250366004611a02565b61052d565b60405190151581526020015b60405180910390f35b61027d610278366004611a2c565b610564565b60408051928352602083019190915201610261565b61027d6102a0366004611a5a565b610592565b6102b86102b3366004611a9d565b6105c7565b604051908152602001610261565b6102b86102d4366004611a2c565b60009081526020819052604090206001015490565b6102b860055481565b610305610300366004611ad6565b610668565b005b610305610315366004611ad6565b610692565b6103417f000000000000000000000000000000000000000000000000000000000000000081565b6040516001600160a01b039091168152602001610261565b610305610367366004611a2c565b610715565b61030561037a366004611a2c565b610731565b6102b861038d366004611afb565b60066020526000908152604090205481565b6102b8606481565b6103056103b5366004611afb565b61074d565b6102b8601881565b610305610786565b6102b8600b5481565b6103056103e1366004611afb565b61079a565b6103056103f4366004611c17565b6107c4565b610305610407366004611afb565b610975565b600354610341906001600160a01b031681565b6102b860095481565b6001546001600160a01b0316610341565b6102b8610447366004611cd9565b61099f565b61025561045a366004611ad6565b610a72565b6102b8600a5481565b6102b8600081565b61030561047e366004611a2c565b610a9b565b6102b8610ab7565b610305610499366004611d23565b610c58565b6102b8610e1081565b600854610341906001600160a01b031681565b6103056104c8366004611a5a565b610d58565b6102b860045481565b6103056104e4366004611ad6565b610e45565b6103056104f7366004611a2c565b610e6a565b61030561050a366004611a2c565b610ec6565b61030561051d366004611afb565b610f5e565b6102b86305f5e10081565b60006001600160e01b03198216637965db0b60e01b148061055e57506301ffc9a760e01b6001600160e01b03198316145b92915050565b6007818154811061057457600080fd5b60009182526020909120600290910201805460019091015490915082565b6000806000806105a3878787610ffa565b915091506000806105b5898585611090565b9096509450505050505b935093915050565b6040516001624c409d60e01b031981526001600160a01b03838116600483015282151560248301526000917f00000000000000000000000000000000000000000000000000000000000000009091169063ffb3bf6390604401602060405180830381865afa15801561063d573d6000803e3d6000fd5b505050506040513d601f19601f820116820180604052508101906106619190611d45565b9392505050565b6000828152602081905260409020600101546106838161112a565b61068d8383611134565b505050565b6001600160a01b03811633146107075760405162461bcd60e51b815260206004820152602f60248201527f416363657373436f6e74726f6c3a2063616e206f6e6c792072656e6f756e636560448201526e103937b632b9903337b91039b2b63360891b60648201526084015b60405180910390fd5b61071182826111b8565b5050565b61072c60008051602061221383398151915261112a565b600b55565b61074860008051602061221383398151915261112a565b600955565b61076460008051602061221383398151915261112a565b600880546001600160a01b0319166001600160a01b0392909216919091179055565b61078e61121d565b6107986000611277565b565b60006107a58161112a565b6107b06000836112c9565b6107b982611277565b6107116000336111b8565b6107db60008051602061221383398151915261112a565b805182511461081d5760405162461bcd60e51b815260206004820152600e60248201526d696e76616c696420706172616d7360901b60448201526064016106fe565b6000805b835181101561096f5760006001600160a01b031684828151811061084757610847611d5e565b60200260200101516001600160a01b03160361086257600080fd5b610e1083828151811061087757610877611d5e565b6020026020010151101561088a57600080fd5b610e10808483815181106108a0576108a0611d5e565b60200260200101516108b29190611da0565b6108bc9190611db4565b915081600660008684815181106108d5576108d5611d5e565b60200260200101516001600160a01b03166001600160a01b031681526020019081526020016000208190555083818151811061091357610913611d5e565b60200260200101516001600160a01b03167f014f9b627a46d0881111664e681522272907a49b31cc3f24613bdad2c551825c8360405161095591815260200190565b60405180910390a28061096781611dcb565b915050610821565b50505050565b7f8d1089725c0dc266707fa6207730fb801dcd03108bfed7a21099bd303651d2b761023d8161112a565b6000836000036109b157506000610a6a565b6040516334f32e2560e01b81526001600160a01b03868116600483015283151560248301526000917f0000000000000000000000000000000000000000000000000000000000000000909116906334f32e2590604401602060405180830381865afa158015610a24573d6000803e3d6000fd5b505050506040513d601f19601f82011682018060405250810190610a489190611d45565b90506305f5e10080610a5b8787856112d3565b610a659190611de4565b925050505b949350505050565b6000918252602082815260408084206001600160a01b0393909316845291905290205460ff1690565b610ab260008051602061221383398151915261112a565b600a55565b60085460408051637616480b60e11b815290516000926001600160a01b0316918391839163ec2c901691600480830192869291908290030181865afa158015610b04573d6000803e3d6000fd5b505050506040513d6000823e601f3d908101601f19168201604052610b2c9190810190611e51565b905060005b8151811015610c5257826001600160a01b031663d37c441c6040518163ffffffff1660e01b8152600401602060405180830381865afa158015610b78573d6000803e3d6000fd5b505050506040513d601f19601f82011682018060405250810190610b9c9190611fc6565b6001600160a01b0316632b8a0012838381518110610bbc57610bbc611d5e565b6020026020010151602001516040518263ffffffff1660e01b8152600401610bf391906001600160a01b0391909116815260200190565b602060405180830381865afa158015610c10573d6000803e3d6000fd5b505050506040513d601f19601f82011682018060405250810190610c349190611d45565b610c3e9085611fe3565b935080610c4a81611dcb565b915050610b31565b50505090565b610c6f60008051602061221383398151915261112a565b81811015610cb05760405162461bcd60e51b815260206004820152600e60248201526d696e76616c696420706172616d7360901b60448201526064016106fe565b6040805180820182528381526020810183815260078054600181018255600091825283517fa66cc928b5edb82af9bd49922954155ab7b0942694bea4ce44661d9a8736c68860029092029182015591517fa66cc928b5edb82af9bd49922954155ab7b0942694bea4ce44661d9a8736c6899092019190915591519091839185917fbb67e50fdd1f174a20c4f1e0e5b9ab3984685f30623b89b69ba068a11ce913b691a3505050565b610d817fcb58d6d985142a614029cdf01861b4fe094d5919a47e69b8310dc4093d9d6ad061112a565b6000610d8c84611307565b90506000610d9985611336565b905080600003610dd15781610dae8142611da0565b610db89190611db4565b9050610dca85600080600080866113c5565b5050505050565b42610ddc8383611fe3565b1115610de9575050505050565b600080610df7878787610ffa565b91509150600080610e09898585611090565b915091508586610e164290565b610e209190611da0565b610e2a9190611db4565b9450610e3a89858585858a6113c5565b505050505050505050565b600082815260208190526040902060010154610e608161112a565b61068d83836111b8565b610e8160008051602061221383398151915261112a565b600580549082905560408051828152602081018490527fcc6508f1ccefe81f3ad53a268646f4f599087ddb280e426c89bc1d597a03d412910160405180910390a15050565b610edd60008051602061221383398151915261112a565b60008111610f1d5760405162461bcd60e51b815260206004820152600d60248201526c1a5b9d985b1a59081b1a5b5a5d609a1b60448201526064016106fe565b600480549082905560405182815281907f3260736e52fceaa012d37fa304cc1487de94003f4f3abd03f22617f6105cd83a9060200160405180910390a25050565b610f6661121d565b6001600160a01b038116610fcb5760405162461bcd60e51b815260206004820152602660248201527f4f776e61626c653a206e6577206f776e657220697320746865207a65726f206160448201526564647265737360d01b60648201526084016106fe565b610fd481611277565b50565b42600255610fe433611277565b610fef6000336112c9565b610fd46000826112c9565b60008060006110088661146b565b9050600061101e61101987876115f5565b6116d2565b90508181131561102b5750805b80600061103760045490565b9050611042816116d2565b8303611056575093508392506105bf915050565b86881061107657816110696005546116d2565b95509550505050506105bf565b6110816005546116d2565b99919850909650505050505050565b600080600061109e86611307565b905060006110ab87611336565b9050426110b88383611fe3565b11156110cc576000809350935050506105bf565b60006110d6611740565b90506000610e10826110e88542611ff6565b6110f29190611ff6565b6110fc9190611da0565b9050600061110a828a612009565b90506000611118838a612009565b919b919a509098505050505050505050565b610fd481336117fb565b61113e8282610a72565b610711576000828152602081815260408083206001600160a01b03851684529091529020805460ff191660011790556111743390565b6001600160a01b0316816001600160a01b0316837f2f8788117e7eff1d82e926ec794901d17c78024a50270940304540a733656f0d60405160405180910390a45050565b6111c28282610a72565b15610711576000828152602081815260408083206001600160a01b0385168085529252808320805460ff1916905551339285917ff6391f5c32d9c69d2a47ea670b442974b53935d1edc7fd64eb21e047a839171b9190a45050565b6001546001600160a01b031633146107985760405162461bcd60e51b815260206004820181905260248201527f4f776e61626c653a2063616c6c6572206973206e6f7420746865206f776e657260448201526064016106fe565b600180546001600160a01b038381166001600160a01b0319831681179093556040519116919082907f8be0079c531659141344cd1fd0a4f28419497f9722a3daafe3b4186f6b6457e090600090a35050565b6107118282611134565b6000806112e08484612039565b9050806000036112f4576000915050610661565b6112fe8186612009565b95945050505050565b6001600160a01b038116600090815260066020526040812054801561132c5792915050565b50610e1092915050565b60405163d8f897c360e01b81526001600160a01b0382811660048301526000917f00000000000000000000000000000000000000000000000000000000000000009091169063d8f897c390602401602060405180830381865afa1580156113a1573d6000803e3d6000fd5b505050506040513d601f19601f8201168201806040525081019061055e9190611d45565b60405163b21bf2d360e01b81526001600160a01b0387811660048301526024820187905260448201869052606482018590526084820184905260a482018390527f0000000000000000000000000000000000000000000000000000000000000000169063b21bf2d39060c401600060405180830381600087803b15801561144b57600080fd5b505af115801561145f573d6000803e3d6000fd5b50505050505050505050565b600b54600090156114815761055e600b546116d2565b6008546001600160a01b03166000611497610ab7565b90506000826001600160a01b031663d37c441c6040518163ffffffff1660e01b8152600401602060405180830381865afa1580156114d9573d6000803e3d6000fd5b505050506040513d601f19601f820116820180604052508101906114fd9190611fc6565b6001600160a01b0316636dc7b0a16040518163ffffffff1660e01b8152600401602060405180830381865afa15801561153a573d6000803e3d6000fd5b505050506040513d601f19601f8201168201806040525081019061155e9190611d45565b9050600061156b86611307565b90506000610e106305f5e1006018856305f5e100600954878a61158e9190611db4565b6115989190611db4565b6115a29190611db4565b6115ac9190611da0565b6115b69190611da0565b6115c09190611da0565b6115ca9190611da0565b90506004548110156115ec576115e16004546116d2565b979650505050505050565b6115e1816116d2565b600082158015611603575081155b15611611575060045461055e565b600082841061162b576116248385611ff6565b9050611638565b6116358484611ff6565b90505b6000811561169f57600061164c8587611fe3565b90508061165d6305f5e10085611db4565b6116679190611da0565b9150601860646305f5e10061167d600286612144565b6116879190611da0565b6116919190611da0565b61169b9190611da0565b9150505b6004548110156116b5576004549250505061055e565b6305f5e100600a54826116c89190611db4565b6112fe9190611da0565b60006001600160ff1b0382111561173c5760405162461bcd60e51b815260206004820152602860248201527f53616665436173743a2076616c756520646f65736e27742066697420696e2061604482015267371034b73a191a9b60c11b60648201526084016106fe565b5090565b600754600090810361174f5790565b60005b60075481101561173c576007818154811061176f5761176f611d5e565b9060005260206000209060020201600101544211156117e9576007818154811061179b5761179b611d5e565b906000526020600020906002020160000154600782815481106117c0576117c0611d5e565b9060005260206000209060020201600101546117dc9190611ff6565b6117e69083611fe3565b91505b806117f381611dcb565b915050611752565b6118058282610a72565b6107115761181281611854565b61181d836020611866565b60405160200161182e929190612153565b60408051601f198184030181529082905262461bcd60e51b82526106fe916004016121c8565b606061055e6001600160a01b03831660145b60606000611875836002611db4565b611880906002611fe3565b67ffffffffffffffff81111561189857611898611b18565b6040519080825280601f01601f1916602001820160405280156118c2576020820181803683370190505b509050600360fc1b816000815181106118dd576118dd611d5e565b60200101906001600160f81b031916908160001a905350600f60fb1b8160018151811061190c5761190c611d5e565b60200101906001600160f81b031916908160001a9053506000611930846002611db4565b61193b906001611fe3565b90505b60018111156119b3576f181899199a1a9b1b9c1cb0b131b232b360811b85600f166010811061196f5761196f611d5e565b1a60f81b82828151811061198557611985611d5e565b60200101906001600160f81b031916908160001a90535060049490941c936119ac816121fb565b905061193e565b5083156106615760405162461bcd60e51b815260206004820181905260248201527f537472696e67733a20686578206c656e67746820696e73756666696369656e7460448201526064016106fe565b600060208284031215611a1457600080fd5b81356001600160e01b03198116811461066157600080fd5b600060208284031215611a3e57600080fd5b5035919050565b6001600160a01b0381168114610fd457600080fd5b600080600060608486031215611a6f57600080fd5b8335611a7a81611a45565b95602085013595506040909401359392505050565b8015158114610fd457600080fd5b60008060408385031215611ab057600080fd5b8235611abb81611a45565b91506020830135611acb81611a8f565b809150509250929050565b60008060408385031215611ae957600080fd5b823591506020830135611acb81611a45565b600060208284031215611b0d57600080fd5b813561066181611a45565b634e487b7160e01b600052604160045260246000fd5b60405160a0810167ffffffffffffffff81118282101715611b5157611b51611b18565b60405290565b604051601f8201601f1916810167ffffffffffffffff81118282101715611b8057611b80611b18565b604052919050565b600067ffffffffffffffff821115611ba257611ba2611b18565b5060051b60200190565b600082601f830112611bbd57600080fd5b81356020611bd2611bcd83611b88565b611b57565b82815260059290921b84018101918181019086841115611bf157600080fd5b8286015b84811015611c0c5780358352918301918301611bf5565b509695505050505050565b60008060408385031215611c2a57600080fd5b823567ffffffffffffffff80821115611c4257600080fd5b818501915085601f830112611c5657600080fd5b81356020611c66611bcd83611b88565b82815260059290921b84018101918181019089841115611c8557600080fd5b948201945b83861015611cac578535611c9d81611a45565b82529482019490820190611c8a565b96505086013592505080821115611cc257600080fd5b50611ccf85828601611bac565b9150509250929050565b60008060008060808587031215611cef57600080fd5b8435611cfa81611a45565b935060208501359250604085013591506060850135611d1881611a8f565b939692955090935050565b60008060408385031215611d3657600080fd5b50508035926020909101359150565b600060208284031215611d5757600080fd5b5051919050565b634e487b7160e01b600052603260045260246000fd5b634e487b7160e01b600052601260045260246000fd5b634e487b7160e01b600052601160045260246000fd5b600082611daf57611daf611d74565b500490565b808202811582820484141761055e5761055e611d8a565b600060018201611ddd57611ddd611d8a565b5060010190565b600082611df357611df3611d74565b600160ff1b821460001984141615611e0d57611e0d611d8a565b500590565b60005b83811015611e2d578181015183820152602001611e15565b50506000910152565b8051611e4181611a45565b919050565b8051611e4181611a8f565b60006020808385031215611e6457600080fd5b825167ffffffffffffffff80821115611e7c57600080fd5b818501915085601f830112611e9057600080fd5b8151611e9e611bcd82611b88565b81815260059190911b83018401908481019088831115611ebd57600080fd5b8585015b83811015611fb957805185811115611ed857600080fd5b8601601f1960a0828d0382011215611ef05760008081fd5b611ef8611b2e565b8983015188811115611f0a5760008081fd5b8301603f81018e13611f1c5760008081fd5b8a81015160408a821115611f3257611f32611b18565b611f428d86601f85011601611b57565b94508185528f81838501011115611f595760008081fd5b611f68828e8701838601611e12565b848452611f76818701611e36565b8d8501526060945084860151818501525050506080611f96818501611e46565b83830152611fa660a08501611e46565b9082015285525050918601918601611ec1565b5098975050505050505050565b600060208284031215611fd857600080fd5b815161066181611a45565b8082018082111561055e5761055e611d8a565b8181038181111561055e5761055e611d8a565b80820260008212600160ff1b8414161561202557612025611d8a565b818105831482151761055e5761055e611d8a565b818103600083128015838313168383128216171561205957612059611d8a565b5092915050565b600181815b8085111561209b57816000190482111561208157612081611d8a565b8085161561208e57918102915b93841c9390800290612065565b509250929050565b6000826120b25750600161055e565b816120bf5750600061055e565b81600181146120d557600281146120df576120fb565b600191505061055e565b60ff8411156120f0576120f0611d8a565b50506001821b61055e565b5060208310610133831016604e8410600b841016171561211e575081810a61055e565b6121288383612060565b806000190482111561213c5761213c611d8a565b029392505050565b600061066160ff8416836120a3565b7f416363657373436f6e74726f6c3a206163636f756e742000000000000000000081526000835161218b816017850160208801611e12565b7001034b99036b4b9b9b4b733903937b6329607d1b60179184019182015283516121bc816028840160208801611e12565b01602801949350505050565b60208152600082518060208401526121e7816040850160208701611e12565b601f01601f19169190910160400192915050565b60008161220a5761220a611d8a565b50600019019056fe241ecf16d79d0f8dbfb92cbc07fe17840425976cf0667f022fe9877caa831b08a264697066735822122009835ce986a918d98d49ca3e233da0cdd545abbda752216cf87475a209a8570664736f6c63430008110033",
  "linkReferences": {},
  "deployedLinkReferences": {}
}