{
  "_format": "hh-sol-artifact-1",
  "contractName": "MockFeeRouter",
  "sourceName": "contracts/mocker/MockFeeRouter.sol",
  "abi": [
    {
      "inputs": [
        {
          "internalType": "address",
          "name": "",
          "type": "address"
        },
        {
          "internalType": "bool",
          "name": "",
          "type": "bool"
        }
      ],
      "name": "cumulativeFundingRates",
      "outputs": [
        {
          "internalType": "int256",
          "name": "",
          "type": "int256"
        }
      ],
      "stateMutability": "view",
      "type": "function"
    },
    {
      "inputs": [
        {
          "internalType": "address",
          "name": "_market",
          "type": "address"
        },
        {
          "internalType": "uint256",
          "name": "_sizeDelta",
          "type": "uint256"
        }
      ],
      "name": "getCloseFee",
      "outputs": [
        {
          "internalType": "uint256",
          "name": "",
          "type": "uint256"
        }
      ],
      "stateMutability": "view",
      "type": "function"
    },
    {
      "inputs": [
        {
          "internalType": "address",
          "name": "_account",
          "type": "address"
        },
        {
          "internalType": "address",
          "name": "_market",
          "type": "address"
        },
        {
          "internalType": "bool",
          "name": "_isLong",
          "type": "bool"
        }
      ],
      "name": "getCollateralFees",
      "outputs": [
        {
          "internalType": "int256",
          "name": "",
          "type": "int256"
        }
      ],
      "stateMutability": "view",
      "type": "function"
    },
    {
      "inputs": [
        {
          "internalType": "address",
          "name": "_market",
          "type": "address"
        }
      ],
      "name": "getExecFee",
      "outputs": [
        {
          "internalType": "uint256",
          "name": "",
          "type": "uint256"
        }
      ],
      "stateMutability": "view",
      "type": "function"
    },
    {
      "inputs": [
        {
          "internalType": "address",
          "name": "_account",
          "type": "address"
        },
        {
          "internalType": "address",
          "name": "_market",
          "type": "address"
        },
        {
          "internalType": "bool",
          "name": "_isLong",
          "type": "bool"
        },
        {
          "internalType": "uint256",
          "name": "_size",
          "type": "uint256"
        },
        {
          "internalType": "bool",
          "name": "_isExec",
          "type": "bool"
        },
        {
          "internalType": "bool",
          "name": "_isOpen",
          "type": "bool"
        }
      ],
      "name": "getFees",
      "outputs": [
        {
          "internalType": "int256",
          "name": "",
          "type": "int256"
        }
      ],
      "stateMutability": "view",
      "type": "function"
    },
    {
      "inputs": [
        {
          "internalType": "address",
          "name": "_account",
          "type": "address"
        },
        {
          "internalType": "address",
          "name": "_market",
          "type": "address"
        },
        {
          "internalType": "bool",
          "name": "_isLong",
          "type": "bool"
        }
      ],
      "name": "getFundingFee",
      "outputs": [
        {
          "internalType": "int256",
          "name": "",
          "type": "int256"
        }
      ],
      "stateMutability": "view",
      "type": "function"
    },
    {
      "inputs": [
        {
          "internalType": "address",
          "name": "_market",
          "type": "address"
        }
      ],
      "name": "getLiquidateFee",
      "outputs": [
        {
          "internalType": "uint256",
          "name": "",
          "type": "uint256"
        }
      ],
      "stateMutability": "view",
      "type": "function"
    },
    {
      "inputs": [
        {
          "internalType": "address",
          "name": "_account",
          "type": "address"
        },
        {
          "internalType": "address",
          "name": "_market",
          "type": "address"
        },
        {
          "internalType": "bool",
          "name": "_isLong",
          "type": "bool"
        },
        {
          "internalType": "uint256",
          "name": "_size",
          "type": "uint256"
        }
      ],
      "name": "getLiquidateFees",
      "outputs": [
        {
          "internalType": "int256",
          "name": "",
          "type": "int256"
        }
      ],
      "stateMutability": "view",
      "type": "function"
    },
    {
      "inputs": [
        {
          "internalType": "address",
          "name": "_market",
          "type": "address"
        },
        {
          "internalType": "uint256",
          "name": "_sizeDelta",
          "type": "uint256"
        }
      ],
      "name": "getOpenFee",
      "outputs": [
        {
          "internalType": "uint256",
          "name": "",
          "type": "uint256"
        }
      ],
      "stateMutability": "view",
      "type": "function"
    },
    {
      "inputs": [
        {
          "internalType": "address",
          "name": "market",
          "type": "address"
        },
        {
          "internalType": "bool",
          "name": "isLong",
          "type": "bool"
        },
        {
          "internalType": "int256",
          "name": "rate",
          "type": "int256"
        }
      ],
      "name": "setCumulativeFundingRates",
      "outputs": [],
      "stateMutability": "nonpayable",
      "type": "function"
    },
    {
      "inputs": [
        {
          "internalType": "uint256",
          "name": "_execFee",
          "type": "uint256"
        },
        {
          "internalType": "uint256",
          "name": "_liquidateFee",
          "type": "uint256"
        }
      ],
      "name": "setExecAndLiquidateFees",
      "outputs": [],
      "stateMutability": "nonpayable",
      "type": "function"
    },
    {
      "inputs": [
        {
          "internalType": "int256",
          "name": "_fee",
          "type": "int256"
        }
      ],
      "name": "setFundFee",
      "outputs": [],
      "stateMutability": "nonpayable",
      "type": "function"
    },
    {
      "inputs": [
        {
          "internalType": "uint256",
          "name": "_openFeeRate",
          "type": "uint256"
        },
        {
          "internalType": "uint256",
          "name": "_closeFeeRate",
          "type": "uint256"
        }
      ],
      "name": "setOpenCloseFeeRate",
      "outputs": [],
      "stateMutability": "nonpayable",
      "type": "function"
    },
    {
      "inputs": [
        {
          "internalType": "address",
          "name": "market",
          "type": "address"
        }
      ],
      "name": "updateCumulativeFundingRate",
      "outputs": [],
      "stateMutability": "nonpayable",
      "type": "function"
    }
  ],
  "bytecode": "0x6080604052620186a060005534801561001757600080fd5b5061066d806100276000396000f3fe608060405234801561001057600080fd5b50600436106100ea5760003560e01c80635d88f2461161008c5780638dfc0f34116100665780638dfc0f34146101ec5780639cfd59cd146101ff578063ddb3d1a714610212578063fbbf57f91461022a57600080fd5b80635d88f246146101ae57806382d84fac146101c1578063889be285146101d457600080fd5b80631cdedb76116100c85780631cdedb761461013e5780632a45ab841461015757806334f32e251461017057806347a994e91461019b57600080fd5b806309d39897146100ef578063114300fc1461011657806313f1e7361461012b575b600080fd5b6101046100fd366004610399565b5060015490565b60405190815260200160405180910390f35b610104610124366004610399565b5060025490565b61013c610139366004610399565b50565b005b61013c61014c3660046103bb565b600191909155600255565b61013c6101653660046103bb565b600391909155600455565b61010461017e3660046103ed565b600560209081526000928352604080842090915290825290205481565b6101046101a9366004610420565b610260565b6101046101bc36600461048d565b6102da565b6101046101cf36600461048d565b61032b565b6101046101e23660046104b7565b6000549392505050565b61013c6101fa3660046104fa565b600055565b61010461020d366004610513565b610351565b6101046102203660046104b7565b5050600054919050565b61013c61023836600461055e565b6001600160a01b03909216600090815260056020908152604080832093151583529290522055565b6000806000831561028657610275888761032b565b61027f90826105b0565b90506102ad565b61029088876102da565b61029a90826105b0565b6000549091506102aa90836105c3565b91505b84156102c3576001546102c090836105c3565b91505b6102cd81836105c3565b9998505050505050505050565b6000816000036102ec57506000610325565b60045460006305f5e10061030083826105eb565b61030a90866105fe565b6103149190610615565b905061032081856105eb565b925050505b92915050565b60008160000361033d57506000610325565b60035460006305f5e10061030083826105eb565b60008061036386868686600080610260565b90506002548161037391906105c3565b9695505050505050565b80356001600160a01b038116811461039457600080fd5b919050565b6000602082840312156103ab57600080fd5b6103b48261037d565b9392505050565b600080604083850312156103ce57600080fd5b50508035926020909101359150565b8035801515811461039457600080fd5b6000806040838503121561040057600080fd5b6104098361037d565b9150610417602084016103dd565b90509250929050565b60008060008060008060c0878903121561043957600080fd5b6104428761037d565b95506104506020880161037d565b945061045e604088016103dd565b935060608701359250610473608088016103dd565b915061048160a088016103dd565b90509295509295509295565b600080604083850312156104a057600080fd5b6104a98361037d565b946020939093013593505050565b6000806000606084860312156104cc57600080fd5b6104d58461037d565b92506104e36020850161037d565b91506104f1604085016103dd565b90509250925092565b60006020828403121561050c57600080fd5b5035919050565b6000806000806080858703121561052957600080fd5b6105328561037d565b93506105406020860161037d565b925061054e604086016103dd565b9396929550929360600135925050565b60008060006060848603121561057357600080fd5b61057c8461037d565b925061058a602085016103dd565b9150604084013590509250925092565b634e487b7160e01b600052601160045260246000fd5b808201808211156103255761032561059a565b80820182811260008312801582168215821617156105e3576105e361059a565b505092915050565b818103818111156103255761032561059a565b80820281158282048414176103255761032561059a565b60008261063257634e487b7160e01b600052601260045260246000fd5b50049056fea264697066735822122030b0eba96adab60c72a9ea643335e6a00e272495e7f62e1020e783a09d351f4e64736f6c63430008110033",
  "linkReferences": {},
  "deployedLinkReferences": {}
}