{
  "_format": "hh-sol-artifact-1",
  "contractName": "Ac",
  "sourceName": "contracts/ac/Ac.sol",
  "abi": [
    {
      "inputs": [
        {
          "internalType": "address",
          "name": "_f",
          "type": "address"
        }
      ],
      "stateMutability": "nonpayable",
      "type": "constructor"
    },
    {
      "anonymous": false,
      "inputs": [
        {
          "indexed": false,
          "internalType": "uint8",
          "name": "version",
          "type": "uint8"
        }
      ],
      "name": "Initialized",
      "type": "event"
    },
    {
      "anonymous": false,
      "inputs": [
        {
          "indexed": true,
          "internalType": "address",
          "name": "previousOwner",
          "type": "address"
        },
        {
          "indexed": true,
          "internalType": "address",
          "name": "newOwner",
          "type": "address"
        }
      ],
      "name": "OwnershipTransferred",
      "type": "event"
    },
    {
      "anonymous": false,
      "inputs": [
        {
          "indexed": true,
          "internalType": "bytes32",
          "name": "role",
          "type": "bytes32"
        },
        {
          "indexed": true,
          "internalType": "bytes32",
          "name": "previousAdminRole",
          "type": "bytes32"
        },
        {
          "indexed": true,
          "internalType": "bytes32",
          "name": "newAdminRole",
          "type": "bytes32"
        }
      ],
      "name": "RoleAdminChanged",
      "type": "event"
    },
    {
      "anonymous": false,
      "inputs": [
        {
          "indexed": true,
          "internalType": "bytes32",
          "name": "role",
          "type": "bytes32"
        },
        {
          "indexed": true,
          "internalType": "address",
          "name": "account",
          "type": "address"
        },
        {
          "indexed": true,
          "internalType": "address",
          "name": "sender",
          "type": "address"
        }
      ],
      "name": "RoleGranted",
      "type": "event"
    },
    {
      "anonymous": false,
      "inputs": [
        {
          "indexed": true,
          "internalType": "bytes32",
          "name": "role",
          "type": "bytes32"
        },
        {
          "indexed": true,
          "internalType": "address",
          "name": "account",
          "type": "address"
        },
        {
          "indexed": true,
          "internalType": "address",
          "name": "sender",
          "type": "address"
        }
      ],
      "name": "RoleRevoked",
      "type": "event"
    },
    {
      "inputs": [],
      "name": "DEFAULT_ADMIN_ROLE",
      "outputs": [
        {
          "internalType": "bytes32",
          "name": "",
          "type": "bytes32"
        }
      ],
      "stateMutability": "view",
      "type": "function"
    },
    {
      "inputs": [
        {
          "internalType": "bytes32",
          "name": "role",
          "type": "bytes32"
        }
      ],
      "name": "getRoleAdmin",
      "outputs": [
        {
          "internalType": "bytes32",
          "name": "",
          "type": "bytes32"
        }
      ],
      "stateMutability": "view",
      "type": "function"
    },
    {
      "inputs": [
        {
          "internalType": "address",
          "name": "_account",
          "type": "address"
        }
      ],
      "name": "grantControllerRoleByMarketManager",
      "outputs": [],
      "stateMutability": "nonpayable",
      "type": "function"
    },
    {
      "inputs": [
        {
          "internalType": "bytes32",
          "name": "role",
          "type": "bytes32"
        },
        {
          "internalType": "address",
          "name": "account",
          "type": "address"
        }
      ],
      "name": "grantRole",
      "outputs": [],
      "stateMutability": "nonpayable",
      "type": "function"
    },
    {
      "inputs": [
        {
          "internalType": "bytes32",
          "name": "role",
          "type": "bytes32"
        },
        {
          "internalType": "address",
          "name": "account",
          "type": "address"
        }
      ],
      "name": "hasRole",
      "outputs": [
        {
          "internalType": "bool",
          "name": "",
          "type": "bool"
        }
      ],
      "stateMutability": "view",
      "type": "function"
    },
    {
      "inputs": [],
      "name": "owner",
      "outputs": [
        {
          "internalType": "address",
          "name": "",
          "type": "address"
        }
      ],
      "stateMutability": "view",
      "type": "function"
    },
    {
      "inputs": [],
      "name": "renounceOwnership",
      "outputs": [],
      "stateMutability": "nonpayable",
      "type": "function"
    },
    {
      "inputs": [
        {
          "internalType": "bytes32",
          "name": "role",
          "type": "bytes32"
        },
        {
          "internalType": "address",
          "name": "account",
          "type": "address"
        }
      ],
      "name": "renounceRole",
      "outputs": [],
      "stateMutability": "nonpayable",
      "type": "function"
    },
    {
      "inputs": [
        {
          "internalType": "bytes32",
          "name": "role",
          "type": "bytes32"
        },
        {
          "internalType": "address",
          "name": "account",
          "type": "address"
        }
      ],
      "name": "revokeRole",
      "outputs": [],
      "stateMutability": "nonpayable",
      "type": "function"
    },
    {
      "inputs": [
        {
          "internalType": "bytes4",
          "name": "interfaceId",
          "type": "bytes4"
        }
      ],
      "name": "supportsInterface",
      "outputs": [
        {
          "internalType": "bool",
          "name": "",
          "type": "bool"
        }
      ],
      "stateMutability": "view",
      "type": "function"
    },
    {
      "inputs": [
        {
          "internalType": "address",
          "name": "to",
          "type": "address"
        }
      ],
      "name": "transferAdmin",
      "outputs": [],
      "stateMutability": "nonpayable",
      "type": "function"
    },
    {
      "inputs": [
        {
          "internalType": "address",
          "name": "newOwner",
          "type": "address"
        }
      ],
      "name": "transferOwnership",
      "outputs": [],
      "stateMutability": "nonpayable",
      "type": "function"
    }
  ],
  "bytecode": "0x608060405234801561001057600080fd5b50604051610b90380380610b9083398101604081905261002f91610175565b61003833610051565b61004b816100a360201b6103d71760201c565b506101a5565b600180546001600160a01b038381166001600160a01b0319831681179093556040519116919082907f8be0079c531659141344cd1fd0a4f28419497f9722a3daafe3b4186f6b6457e090600090a35050565b426002556100b033610051565b6100bb6000336100c9565b6100c66000826100c9565b50565b6100d382826100d7565b5050565b6000828152602081815260408083206001600160a01b038516845290915290205460ff166100d3576000828152602081815260408083206001600160a01b03851684529091529020805460ff191660011790556101313390565b6001600160a01b0316816001600160a01b0316837f2f8788117e7eff1d82e926ec794901d17c78024a50270940304540a733656f0d60405160405180910390a45050565b60006020828403121561018757600080fd5b81516001600160a01b038116811461019e57600080fd5b9392505050565b6109dc806101b46000396000f3fe608060405234801561001057600080fd5b50600436106100b45760003560e01c80637fe4a698116100715780637fe4a698146101555780638da5cb5b1461016857806391d1485414610183578063a217fddf14610196578063d547741f1461019e578063f2fde38b146101b157600080fd5b806301ffc9a7146100b9578063248a9ca3146100e15780632f2ff15d1461011257806336568abe14610127578063715018a61461013a57806375829def14610142575b600080fd5b6100cc6100c73660046107b1565b6101c4565b60405190151581526020015b60405180910390f35b6101046100ef3660046107db565b60009081526020819052604090206001015490565b6040519081526020016100d8565b610125610120366004610810565b6101fb565b005b610125610135366004610810565b610225565b6101256102a8565b61012561015036600461083c565b6102bc565b61012561016336600461083c565b6102e6565b6001546040516001600160a01b0390911681526020016100d8565b6100cc610191366004610810565b610310565b610104600081565b6101256101ac366004610810565b610339565b6101256101bf36600461083c565b61035e565b60006001600160e01b03198216637965db0b60e01b14806101f557506301ffc9a760e01b6001600160e01b03198316145b92915050565b600082815260208190526040902060010154610216816103fa565b6102208383610404565b505050565b6001600160a01b038116331461029a5760405162461bcd60e51b815260206004820152602f60248201527f416363657373436f6e74726f6c3a2063616e206f6e6c792072656e6f756e636560448201526e103937b632b9903337b91039b2b63360891b60648201526084015b60405180910390fd5b6102a48282610488565b5050565b6102b06104ed565b6102ba6000610547565b565b60006102c7816103fa565b6102d2600083610599565b6102db82610547565b6102a4600033610488565b7f8d1089725c0dc266707fa6207730fb801dcd03108bfed7a21099bd303651d2b76100b4816103fa565b6000918252602082815260408084206001600160a01b0393909316845291905290205460ff1690565b600082815260208190526040902060010154610354816103fa565b6102208383610488565b6103666104ed565b6001600160a01b0381166103cb5760405162461bcd60e51b815260206004820152602660248201527f4f776e61626c653a206e6577206f776e657220697320746865207a65726f206160448201526564647265737360d01b6064820152608401610291565b6103d481610547565b50565b426002556103e433610547565b6103ef600033610599565b6103d4600082610599565b6103d481336105a3565b61040e8282610310565b6102a4576000828152602081815260408083206001600160a01b03851684529091529020805460ff191660011790556104443390565b6001600160a01b0316816001600160a01b0316837f2f8788117e7eff1d82e926ec794901d17c78024a50270940304540a733656f0d60405160405180910390a45050565b6104928282610310565b156102a4576000828152602081815260408083206001600160a01b0385168085529252808320805460ff1916905551339285917ff6391f5c32d9c69d2a47ea670b442974b53935d1edc7fd64eb21e047a839171b9190a45050565b6001546001600160a01b031633146102ba5760405162461bcd60e51b815260206004820181905260248201527f4f776e61626c653a2063616c6c6572206973206e6f7420746865206f776e65726044820152606401610291565b600180546001600160a01b038381166001600160a01b0319831681179093556040519116919082907f8be0079c531659141344cd1fd0a4f28419497f9722a3daafe3b4186f6b6457e090600090a35050565b6102a48282610404565b6105ad8282610310565b6102a4576105ba816105fc565b6105c583602061060e565b6040516020016105d692919061087b565b60408051601f198184030181529082905262461bcd60e51b8252610291916004016108f0565b60606101f56001600160a01b03831660145b6060600061061d836002610939565b610628906002610950565b67ffffffffffffffff81111561064057610640610963565b6040519080825280601f01601f19166020018201604052801561066a576020820181803683370190505b509050600360fc1b8160008151811061068557610685610979565b60200101906001600160f81b031916908160001a905350600f60fb1b816001815181106106b4576106b4610979565b60200101906001600160f81b031916908160001a90535060006106d8846002610939565b6106e3906001610950565b90505b600181111561075b576f181899199a1a9b1b9c1cb0b131b232b360811b85600f166010811061071757610717610979565b1a60f81b82828151811061072d5761072d610979565b60200101906001600160f81b031916908160001a90535060049490941c936107548161098f565b90506106e6565b5083156107aa5760405162461bcd60e51b815260206004820181905260248201527f537472696e67733a20686578206c656e67746820696e73756666696369656e746044820152606401610291565b9392505050565b6000602082840312156107c357600080fd5b81356001600160e01b0319811681146107aa57600080fd5b6000602082840312156107ed57600080fd5b5035919050565b80356001600160a01b038116811461080b57600080fd5b919050565b6000806040838503121561082357600080fd5b82359150610833602084016107f4565b90509250929050565b60006020828403121561084e57600080fd5b6107aa826107f4565b60005b8381101561087257818101518382015260200161085a565b50506000910152565b7f416363657373436f6e74726f6c3a206163636f756e74200000000000000000008152600083516108b3816017850160208801610857565b7001034b99036b4b9b9b4b733903937b6329607d1b60179184019182015283516108e4816028840160208801610857565b01602801949350505050565b602081526000825180602084015261090f816040850160208701610857565b601f01601f19169190910160400192915050565b634e487b7160e01b600052601160045260246000fd5b80820281158282048414176101f5576101f5610923565b808201808211156101f5576101f5610923565b634e487b7160e01b600052604160045260246000fd5b634e487b7160e01b600052603260045260246000fd5b60008161099e5761099e610923565b50600019019056fea26469706673582212205a9a92923a754f4b516d3f1d5489bad4e777575b0ffcd2f9906dc51899aaeb5d64736f6c63430008110033",
  "linkReferences": {},
  "deployedLinkReferences": {}
}