{
  "_format": "hh-sol-artifact-1",
  "contractName": "PositionStore",
  "sourceName": "contracts/position/PositionStore.sol",
  "abi": [
    {
      "inputs": [
        {
          "internalType": "address",
          "name": "factory",
          "type": "address"
        },
        {
          "internalType": "bool",
          "name": "islong",
          "type": "bool"
        }
      ],
      "stateMutability": "nonpayable",
      "type": "constructor"
    },
    {
      "anonymous": false,
      "inputs": [
        {
          "indexed": false,
          "internalType": "uint8",
          "name": "version",
          "type": "uint8"
        }
      ],
      "name": "Initialized",
      "type": "event"
    },
    {
      "anonymous": false,
      "inputs": [
        {
          "indexed": true,
          "internalType": "address",
          "name": "previousOwner",
          "type": "address"
        },
        {
          "indexed": true,
          "internalType": "address",
          "name": "newOwner",
          "type": "address"
        }
      ],
      "name": "OwnershipTransferred",
      "type": "event"
    },
    {
      "anonymous": false,
      "inputs": [
        {
          "indexed": true,
          "internalType": "address",
          "name": "account",
          "type": "address"
        },
        {
          "indexed": false,
          "internalType": "uint256",
          "name": "size",
          "type": "uint256"
        },
        {
          "indexed": false,
          "internalType": "uint256",
          "name": "collateral",
          "type": "uint256"
        }
      ],
      "name": "RemovePosition",
      "type": "event"
    },
    {
      "anonymous": false,
      "inputs": [
        {
          "indexed": true,
          "internalType": "bytes32",
          "name": "role",
          "type": "bytes32"
        },
        {
          "indexed": true,
          "internalType": "bytes32",
          "name": "previousAdminRole",
          "type": "bytes32"
        },
        {
          "indexed": true,
          "internalType": "bytes32",
          "name": "newAdminRole",
          "type": "bytes32"
        }
      ],
      "name": "RoleAdminChanged",
      "type": "event"
    },
    {
      "anonymous": false,
      "inputs": [
        {
          "indexed": true,
          "internalType": "bytes32",
          "name": "role",
          "type": "bytes32"
        },
        {
          "indexed": true,
          "internalType": "address",
          "name": "account",
          "type": "address"
        },
        {
          "indexed": true,
          "internalType": "address",
          "name": "sender",
          "type": "address"
        }
      ],
      "name": "RoleGranted",
      "type": "event"
    },
    {
      "anonymous": false,
      "inputs": [
        {
          "indexed": true,
          "internalType": "bytes32",
          "name": "role",
          "type": "bytes32"
        },
        {
          "indexed": true,
          "internalType": "address",
          "name": "account",
          "type": "address"
        },
        {
          "indexed": true,
          "internalType": "address",
          "name": "sender",
          "type": "address"
        }
      ],
      "name": "RoleRevoked",
      "type": "event"
    },
    {
      "anonymous": false,
      "inputs": [
        {
          "indexed": true,
          "internalType": "address",
          "name": "account",
          "type": "address"
        },
        {
          "indexed": false,
          "internalType": "uint256",
          "name": "size",
          "type": "uint256"
        },
        {
          "indexed": false,
          "internalType": "uint256",
          "name": "collateral",
          "type": "uint256"
        }
      ],
      "name": "UpdatePosition",
      "type": "event"
    },
    {
      "anonymous": false,
      "inputs": [
        {
          "indexed": true,
          "internalType": "address",
          "name": "oldAddress",
          "type": "address"
        },
        {
          "indexed": true,
          "internalType": "address",
          "name": "newAddress",
          "type": "address"
        }
      ],
      "name": "UpdatePositionBook",
      "type": "event"
    },
    {
      "inputs": [],
      "name": "DEFAULT_ADMIN_ROLE",
      "outputs": [
        {
          "internalType": "bytes32",
          "name": "",
          "type": "bytes32"
        }
      ],
      "stateMutability": "view",
      "type": "function"
    },
    {
      "inputs": [
        {
          "internalType": "address",
          "name": "account",
          "type": "address"
        }
      ],
      "name": "contains",
      "outputs": [
        {
          "internalType": "bool",
          "name": "",
          "type": "bool"
        }
      ],
      "stateMutability": "view",
      "type": "function"
    },
    {
      "inputs": [
        {
          "internalType": "address",
          "name": "account",
          "type": "address"
        }
      ],
      "name": "get",
      "outputs": [
        {
          "components": [
            {
              "internalType": "address",
              "name": "market",
              "type": "address"
            },
            {
              "internalType": "bool",
              "name": "isLong",
              "type": "bool"
            },
            {
              "internalType": "uint32",
              "name": "lastTime",
              "type": "uint32"
            },
            {
              "internalType": "uint216",
              "name": "extra3",
              "type": "uint216"
            },
            {
              "internalType": "uint256",
              "name": "size",
              "type": "uint256"
            },
            {
              "internalType": "uint256",
              "name": "collateral",
              "type": "uint256"
            },
            {
              "internalType": "uint256",
              "name": "averagePrice",
              "type": "uint256"
            },
            {
              "internalType": "int256",
              "name": "entryFundingRate",
              "type": "int256"
            },
            {
              "internalType": "int256",
              "name": "realisedPnl",
              "type": "int256"
            },
            {
              "internalType": "uint256",
              "name": "extra0",
              "type": "uint256"
            },
            {
              "internalType": "uint256",
              "name": "extra1",
              "type": "uint256"
            },
            {
              "internalType": "uint256",
              "name": "extra2",
              "type": "uint256"
            }
          ],
          "internalType": "struct Position.Props",
          "name": "",
          "type": "tuple"
        }
      ],
      "stateMutability": "view",
      "type": "function"
    },
    {
      "inputs": [],
      "name": "getGlobalPosition",
      "outputs": [
        {
          "components": [
            {
              "internalType": "address",
              "name": "market",
              "type": "address"
            },
            {
              "internalType": "bool",
              "name": "isLong",
              "type": "bool"
            },
            {
              "internalType": "uint32",
              "name": "lastTime",
              "type": "uint32"
            },
            {
              "internalType": "uint216",
              "name": "extra3",
              "type": "uint216"
            },
            {
              "internalType": "uint256",
              "name": "size",
              "type": "uint256"
            },
            {
              "internalType": "uint256",
              "name": "collateral",
              "type": "uint256"
            },
            {
              "internalType": "uint256",
              "name": "averagePrice",
              "type": "uint256"
            },
            {
              "internalType": "int256",
              "name": "entryFundingRate",
              "type": "int256"
            },
            {
              "internalType": "int256",
              "name": "realisedPnl",
              "type": "int256"
            },
            {
              "internalType": "uint256",
              "name": "extra0",
              "type": "uint256"
            },
            {
              "internalType": "uint256",
              "name": "extra1",
              "type": "uint256"
            },
            {
              "internalType": "uint256",
              "name": "extra2",
              "type": "uint256"
            }
          ],
          "internalType": "struct Position.Props",
          "name": "",
          "type": "tuple"
        }
      ],
      "stateMutability": "view",
      "type": "function"
    },
    {
      "inputs": [],
      "name": "getPositionCount",
      "outputs": [
        {
          "internalType": "uint256",
          "name": "",
          "type": "uint256"
        }
      ],
      "stateMutability": "view",
      "type": "function"
    },
    {
      "inputs": [
        {
          "internalType": "uint256",
          "name": "start",
          "type": "uint256"
        },
        {
          "internalType": "uint256",
          "name": "end",
          "type": "uint256"
        }
      ],
      "name": "getPositionKeys",
      "outputs": [
        {
          "internalType": "address[]",
          "name": "",
          "type": "address[]"
        }
      ],
      "stateMutability": "view",
      "type": "function"
    },
    {
      "inputs": [
        {
          "internalType": "bytes32",
          "name": "role",
          "type": "bytes32"
        }
      ],
      "name": "getRoleAdmin",
      "outputs": [
        {
          "internalType": "bytes32",
          "name": "",
          "type": "bytes32"
        }
      ],
      "stateMutability": "view",
      "type": "function"
    },
    {
      "inputs": [],
      "name": "globalSize",
      "outputs": [
        {
          "internalType": "uint256",
          "name": "",
          "type": "uint256"
        }
      ],
      "stateMutability": "view",
      "type": "function"
    },
    {
      "inputs": [
        {
          "internalType": "address",
          "name": "_account",
          "type": "address"
        }
      ],
      "name": "grantControllerRoleByMarketManager",
      "outputs": [],
      "stateMutability": "nonpayable",
      "type": "function"
    },
    {
      "inputs": [
        {
          "internalType": "bytes32",
          "name": "role",
          "type": "bytes32"
        },
        {
          "internalType": "address",
          "name": "account",
          "type": "address"
        }
      ],
      "name": "grantRole",
      "outputs": [],
      "stateMutability": "nonpayable",
      "type": "function"
    },
    {
      "inputs": [
        {
          "internalType": "bytes32",
          "name": "role",
          "type": "bytes32"
        },
        {
          "internalType": "address",
          "name": "account",
          "type": "address"
        }
      ],
      "name": "hasRole",
      "outputs": [
        {
          "internalType": "bool",
          "name": "",
          "type": "bool"
        }
      ],
      "stateMutability": "view",
      "type": "function"
    },
    {
      "inputs": [],
      "name": "isLong",
      "outputs": [
        {
          "internalType": "bool",
          "name": "",
          "type": "bool"
        }
      ],
      "stateMutability": "view",
      "type": "function"
    },
    {
      "inputs": [],
      "name": "owner",
      "outputs": [
        {
          "internalType": "address",
          "name": "",
          "type": "address"
        }
      ],
      "stateMutability": "view",
      "type": "function"
    },
    {
      "inputs": [],
      "name": "positionBook",
      "outputs": [
        {
          "internalType": "address",
          "name": "",
          "type": "address"
        }
      ],
      "stateMutability": "view",
      "type": "function"
    },
    {
      "inputs": [
        {
          "internalType": "address",
          "name": "account",
          "type": "address"
        },
        {
          "components": [
            {
              "internalType": "address",
              "name": "market",
              "type": "address"
            },
            {
              "internalType": "bool",
              "name": "isLong",
              "type": "bool"
            },
            {
              "internalType": "uint32",
              "name": "lastTime",
              "type": "uint32"
            },
            {
              "internalType": "uint216",
              "name": "extra3",
              "type": "uint216"
            },
            {
              "internalType": "uint256",
              "name": "size",
              "type": "uint256"
            },
            {
              "internalType": "uint256",
              "name": "collateral",
              "type": "uint256"
            },
            {
              "internalType": "uint256",
              "name": "averagePrice",
              "type": "uint256"
            },
            {
              "internalType": "int256",
              "name": "entryFundingRate",
              "type": "int256"
            },
            {
              "internalType": "int256",
              "name": "realisedPnl",
              "type": "int256"
            },
            {
              "internalType": "uint256",
              "name": "extra0",
              "type": "uint256"
            },
            {
              "internalType": "uint256",
              "name": "extra1",
              "type": "uint256"
            },
            {
              "internalType": "uint256",
              "name": "extra2",
              "type": "uint256"
            }
          ],
          "internalType": "struct Position.Props",
          "name": "globalPosition",
          "type": "tuple"
        }
      ],
      "name": "remove",
      "outputs": [],
      "stateMutability": "nonpayable",
      "type": "function"
    },
    {
      "inputs": [],
      "name": "renounceOwnership",
      "outputs": [],
      "stateMutability": "nonpayable",
      "type": "function"
    },
    {
      "inputs": [
        {
          "internalType": "bytes32",
          "name": "role",
          "type": "bytes32"
        },
        {
          "internalType": "address",
          "name": "account",
          "type": "address"
        }
      ],
      "name": "renounceRole",
      "outputs": [],
      "stateMutability": "nonpayable",
      "type": "function"
    },
    {
      "inputs": [
        {
          "internalType": "bytes32",
          "name": "role",
          "type": "bytes32"
        },
        {
          "internalType": "address",
          "name": "account",
          "type": "address"
        }
      ],
      "name": "revokeRole",
      "outputs": [],
      "stateMutability": "nonpayable",
      "type": "function"
    },
    {
      "inputs": [
        {
          "internalType": "address",
          "name": "account",
          "type": "address"
        },
        {
          "components": [
            {
              "internalType": "address",
              "name": "market",
              "type": "address"
            },
            {
              "internalType": "bool",
              "name": "isLong",
              "type": "bool"
            },
            {
              "internalType": "uint32",
              "name": "lastTime",
              "type": "uint32"
            },
            {
              "internalType": "uint216",
              "name": "extra3",
              "type": "uint216"
            },
            {
              "internalType": "uint256",
              "name": "size",
              "type": "uint256"
            },
            {
              "internalType": "uint256",
              "name": "collateral",
              "type": "uint256"
            },
            {
              "internalType": "uint256",
              "name": "averagePrice",
              "type": "uint256"
            },
            {
              "internalType": "int256",
              "name": "entryFundingRate",
              "type": "int256"
            },
            {
              "internalType": "int256",
              "name": "realisedPnl",
              "type": "int256"
            },
            {
              "internalType": "uint256",
              "name": "extra0",
              "type": "uint256"
            },
            {
              "internalType": "uint256",
              "name": "extra1",
              "type": "uint256"
            },
            {
              "internalType": "uint256",
              "name": "extra2",
              "type": "uint256"
            }
          ],
          "internalType": "struct Position.Props",
          "name": "position",
          "type": "tuple"
        },
        {
          "components": [
            {
              "internalType": "address",
              "name": "market",
              "type": "address"
            },
            {
              "internalType": "bool",
              "name": "isLong",
              "type": "bool"
            },
            {
              "internalType": "uint32",
              "name": "lastTime",
              "type": "uint32"
            },
            {
              "internalType": "uint216",
              "name": "extra3",
              "type": "uint216"
            },
            {
              "internalType": "uint256",
              "name": "size",
              "type": "uint256"
            },
            {
              "internalType": "uint256",
              "name": "collateral",
              "type": "uint256"
            },
            {
              "internalType": "uint256",
              "name": "averagePrice",
              "type": "uint256"
            },
            {
              "internalType": "int256",
              "name": "entryFundingRate",
              "type": "int256"
            },
            {
              "internalType": "int256",
              "name": "realisedPnl",
              "type": "int256"
            },
            {
              "internalType": "uint256",
              "name": "extra0",
              "type": "uint256"
            },
            {
              "internalType": "uint256",
              "name": "extra1",
              "type": "uint256"
            },
            {
              "internalType": "uint256",
              "name": "extra2",
              "type": "uint256"
            }
          ],
          "internalType": "struct Position.Props",
          "name": "globalPosition",
          "type": "tuple"
        }
      ],
      "name": "set",
      "outputs": [],
      "stateMutability": "nonpayable",
      "type": "function"
    },
    {
      "inputs": [
        {
          "internalType": "address",
          "name": "pb",
          "type": "address"
        }
      ],
      "name": "setPositionBook",
      "outputs": [],
      "stateMutability": "nonpayable",
      "type": "function"
    },
    {
      "inputs": [
        {
          "internalType": "bytes4",
          "name": "interfaceId",
          "type": "bytes4"
        }
      ],
      "name": "supportsInterface",
      "outputs": [
        {
          "internalType": "bool",
          "name": "",
          "type": "bool"
        }
      ],
      "stateMutability": "view",
      "type": "function"
    },
    {
      "inputs": [
        {
          "internalType": "address",
          "name": "to",
          "type": "address"
        }
      ],
      "name": "transferAdmin",
      "outputs": [],
      "stateMutability": "nonpayable",
      "type": "function"
    },
    {
      "inputs": [
        {
          "internalType": "address",
          "name": "newOwner",
          "type": "address"
        }
      ],
      "name": "transferOwnership",
      "outputs": [],
      "stateMutability": "nonpayable",
      "type": "function"
    }
  ],
  "bytecode": "0x60a06040523480156200001157600080fd5b5060405162001a5338038062001a538339810160408190526200003491620001d2565b816200004033620000a7565b6200005681620000f960201b62000b801760201c565b50600380546001600160a01b031916339081179091558115156080526200009f907fcb58d6d985142a614029cdf01861b4fe094d5919a47e69b8310dc4093d9d6ad09062000125565b505062000220565b600180546001600160a01b038381166001600160a01b0319831681179093556040519116919082907f8be0079c531659141344cd1fd0a4f28419497f9722a3daafe3b4186f6b6457e090600090a35050565b426002556200010833620000a7565b62000115600033620001c6565b62000122600082620001c6565b50565b6000828152602081815260408083206001600160a01b038516845290915290205460ff16620001c2576000828152602081815260408083206001600160a01b03851684529091529020805460ff19166001179055620001813390565b6001600160a01b0316816001600160a01b0316837f2f8788117e7eff1d82e926ec794901d17c78024a50270940304540a733656f0d60405160405180910390a45b5050565b620001c2828262000125565b60008060408385031215620001e657600080fd5b82516001600160a01b0381168114620001fe57600080fd5b602084015190925080151581146200021557600080fd5b809150509250929050565b6080516118176200023c600039600061019101526118176000f3fe608060405234801561001057600080fd5b506004361061014d5760003560e01c80637fe4a698116100c3578063a217fddf1161007c578063a217fddf146102da578063ac0b05a6146102e2578063b7ed1357146102f5578063c2bc2efc14610308578063d547741f1461031b578063f2fde38b1461032e57600080fd5b80637fe4a6981461025f57806381683476146102725780638d49701d1461027a5780638da5cb5b1461028d5780639027b59e146102b257806391d14854146102c757600080fd5b80632f2ff15d116101155780632f2ff15d146101eb57806336568abe146101fe5780635dbe47e814610211578063715018a61461022457806375829def1461022c5780637f497d971461023f57600080fd5b806301ffc9a7146101525780631ee229be1461017a578063202a61a11461018c578063248a9ca3146101b35780632d015618146101d6575b600080fd5b61016561016036600461126a565b610341565b60405190151581526020015b60405180910390f35b6009545b604051908152602001610171565b6101657f000000000000000000000000000000000000000000000000000000000000000081565b61017e6101c1366004611294565b60009081526020819052604090206001015490565b6101e96101e43660046112db565b610378565b005b6101e96101f9366004611312565b61065a565b6101e961020c366004611312565b610684565b61016561021f366004611342565b610702565b6101e961070f565b6101e961023a366004611342565b610723565b61025261024d36600461135f565b61074d565b6040516101719190611381565b6101e961026d366004611342565b610762565b61017e61078c565b6101e9610288366004611342565b61079d565b6001546001600160a01b03165b6040516001600160a01b039091168152602001610171565b6102ba6108a9565b60405161017191906113ce565b6101656102d5366004611312565b610949565b61017e600081565b60035461029a906001600160a01b031681565b6101e9610303366004611485565b610972565b6102ba610316366004611342565b610a1b565b6101e9610329366004611312565b610ae2565b6101e961033c366004611342565b610b07565b60006001600160e01b03198216637965db0b60e01b148061037257506301ffc9a760e01b6001600160e01b03198316145b92915050565b61038f6000805160206117c2833981519152610ba3565b600061039c600584610bad565b9050806103f05760405162461bcd60e51b815260206004820152601760248201527f706f736974696f6e20646f6573206e6f7420657869737400000000000000000060448201526064015b60405180910390fd5b8160076103fd828261151c565b905050600060046000856001600160a01b03166001600160a01b03168152602001908152602001600020604051806101800160405290816000820160009054906101000a90046001600160a01b03166001600160a01b03166001600160a01b031681526020016000820160149054906101000a900460ff161515151581526020016000820160159054906101000a900463ffffffff1663ffffffff1663ffffffff1681526020016001820160009054906101000a90046001600160d81b03166001600160d81b03166001600160d81b0316815260200160028201548152602001600382015481526020016004820154815260200160058201548152602001600682015481526020016007820154815260200160088201548152602001600982015481525050905060046000856001600160a01b03166001600160a01b03168152602001908152602001600020600080820160006101000a8154906001600160a01b0302191690556000820160146101000a81549060ff02191690556000820160156101000a81549063ffffffff02191690556001820160006101000a8154906001600160d81b0302191690556002820160009055600382016000905560048201600090556005820160009055600682016000905560078201600090556008820160009055600982016000905550506105ff846005610bcf90919063ffffffff16565b50836001600160a01b03167f20b3ac24c835264e655c493af7b3db37ff78a0f358627f0de89832abc7e1deca82608001518360a0015160405161064c929190918252602082015260400190565b60405180910390a250505050565b60008281526020819052604090206001015461067581610ba3565b61067f8383610be4565b505050565b6001600160a01b03811633146106f45760405162461bcd60e51b815260206004820152602f60248201527f416363657373436f6e74726f6c3a2063616e206f6e6c792072656e6f756e636560448201526e103937b632b9903337b91039b2b63360891b60648201526084016103e7565b6106fe8282610c68565b5050565b6000610372600583610bad565b610717610ccd565b6107216000610d27565b565b600061072e81610ba3565b610739600083610d79565b61074282610d27565b6106fe600033610c68565b606061075b60058484610d83565b9392505050565b7f8d1089725c0dc266707fa6207730fb801dcd03108bfed7a21099bd303651d2b761014d81610ba3565b60006107986005610e51565b905090565b6107c67f241ecf16d79d0f8dbfb92cbc07fe17840425976cf0667f022fe9877caa831b08610ba3565b6001600160a01b03811661080e5760405162461bcd60e51b815260206004820152600f60248201526e696e76616c6964206164647265737360881b60448201526064016103e7565b6003546001600160a01b03166108326000805160206117c283398151915282610c68565b600380546001600160a01b0319166001600160a01b0384161790556108656000805160206117c283398151915283610be4565b816001600160a01b0316816001600160a01b03167f2ee38693e6d151b09b65fa20e0e55d8947aeee23c1fa70257ea61af59a8dd2f060405160405180910390a35050565b6108b16111ef565b5060408051610180810182526007546001600160a01b0381168252600160a01b810460ff1615156020830152600160a81b900463ffffffff16918101919091526008546001600160d81b031660608201526009546080820152600a5460a0820152600b5460c0820152600c5460e0820152600d54610100820152600e54610120820152600f5461014082015260105461016082015290565b6000918252602082815260408084206001600160a01b0393909316845291905290205460ff1690565b6109896000805160206117c2833981519152610ba3565b806007610996828261151c565b50506001600160a01b038316600090815260046020526040902082906109bc828261151c565b506109ca9050600584610e5b565b50604080516080840135815260a084013560208201526001600160a01b038516917f0d77a4156ff764dade22a2cd25a68a83ff04b20df143bba5d162a6a980702623910160405180910390a2505050565b610a236111ef565b506001600160a01b0390811660009081526004602081815260409283902083516101808101855281549586168152600160a01b860460ff16151592810192909252600160a81b90940463ffffffff169281019290925260018301546001600160d81b0316606083015260028301546080830152600383015460a083015282015460c0820152600582015460e082015260068201546101008201526007820154610120820152600882015461014082015260099091015461016082015290565b600082815260208190526040902060010154610afd81610ba3565b61067f8383610c68565b610b0f610ccd565b6001600160a01b038116610b745760405162461bcd60e51b815260206004820152602660248201527f4f776e61626c653a206e6577206f776e657220697320746865207a65726f206160448201526564647265737360d01b60648201526084016103e7565b610b7d81610d27565b50565b42600255610b8d33610d27565b610b98600033610d79565b610b7d600082610d79565b610b7d8133610e70565b6001600160a01b0381166000908152600183016020526040812054151561075b565b600061075b836001600160a01b038416610ec9565b610bee8282610949565b6106fe576000828152602081815260408083206001600160a01b03851684529091529020805460ff19166001179055610c243390565b6001600160a01b0316816001600160a01b0316837f2f8788117e7eff1d82e926ec794901d17c78024a50270940304540a733656f0d60405160405180910390a45050565b610c728282610949565b156106fe576000828152602081815260408083206001600160a01b0385168085529252808320805460ff1916905551339285917ff6391f5c32d9c69d2a47ea670b442974b53935d1edc7fd64eb21e047a839171b9190a45050565b6001546001600160a01b031633146107215760405162461bcd60e51b815260206004820181905260248201527f4f776e61626c653a2063616c6c6572206973206e6f7420746865206f776e657260448201526064016103e7565b600180546001600160a01b038381166001600160a01b0319831681179093556040519116919082907f8be0079c531659141344cd1fd0a4f28419497f9722a3daafe3b4186f6b6457e090600090a35050565b6106fe8282610be4565b60606000610d9085610e51565b905080831115610d9e578092505b6000610daa8585611646565b67ffffffffffffffff811115610dc257610dc2611659565b604051908082528060200260200182016040528015610deb578160200160208202803683370190505b509050845b84811015610e4757610e028782610fbc565b82610e0d8884611646565b81518110610e1d57610e1d61166f565b6001600160a01b039092166020928302919091019091015280610e3f81611685565b915050610df0565b5095945050505050565b6000610372825490565b600061075b836001600160a01b038416610fc8565b610e7a8282610949565b6106fe57610e8781611017565b610e92836020611029565b604051602001610ea39291906116c2565b60408051601f198184030181529082905262461bcd60e51b82526103e791600401611737565b60008181526001830160205260408120548015610fb2576000610eed600183611646565b8554909150600090610f0190600190611646565b9050818114610f66576000866000018281548110610f2157610f2161166f565b9060005260206000200154905080876000018481548110610f4457610f4461166f565b6000918252602080832090910192909255918252600188019052604090208390555b8554869080610f7757610f7761176a565b600190038181906000526020600020016000905590558560010160008681526020019081526020016000206000905560019350505050610372565b6000915050610372565b600061075b83836111c5565b600081815260018301602052604081205461100f57508154600181810184556000848152602080822090930184905584548482528286019093526040902091909155610372565b506000610372565b60606103726001600160a01b03831660145b60606000611038836002611780565b611043906002611797565b67ffffffffffffffff81111561105b5761105b611659565b6040519080825280601f01601f191660200182016040528015611085576020820181803683370190505b509050600360fc1b816000815181106110a0576110a061166f565b60200101906001600160f81b031916908160001a905350600f60fb1b816001815181106110cf576110cf61166f565b60200101906001600160f81b031916908160001a90535060006110f3846002611780565b6110fe906001611797565b90505b6001811115611176576f181899199a1a9b1b9c1cb0b131b232b360811b85600f16601081106111325761113261166f565b1a60f81b8282815181106111485761114861166f565b60200101906001600160f81b031916908160001a90535060049490941c9361116f816117aa565b9050611101565b50831561075b5760405162461bcd60e51b815260206004820181905260248201527f537472696e67733a20686578206c656e67746820696e73756666696369656e7460448201526064016103e7565b60008260000182815481106111dc576111dc61166f565b9060005260206000200154905092915050565b60405180610180016040528060006001600160a01b03168152602001600015158152602001600063ffffffff16815260200160006001600160d81b0316815260200160008152602001600081526020016000815260200160008152602001600081526020016000815260200160008152602001600081525090565b60006020828403121561127c57600080fd5b81356001600160e01b03198116811461075b57600080fd5b6000602082840312156112a657600080fd5b5035919050565b6001600160a01b0381168114610b7d57600080fd5b600061018082840312156112d557600080fd5b50919050565b6000806101a083850312156112ef57600080fd5b82356112fa816112ad565b915061130984602085016112c2565b90509250929050565b6000806040838503121561132557600080fd5b823591506020830135611337816112ad565b809150509250929050565b60006020828403121561135457600080fd5b813561075b816112ad565b6000806040838503121561137257600080fd5b50508035926020909101359150565b6020808252825182820181905260009190848201906040850190845b818110156113c25783516001600160a01b03168352928401929184019160010161139d565b50909695505050505050565b81516001600160a01b03168152610180810160208301516113f3602084018215159052565b50604083015161140b604084018263ffffffff169052565b50606083015161142660608401826001600160d81b03169052565b506080830151608083015260a083015160a083015260c083015160c083015260e083015160e083015261010080840151818401525061012080840151818401525061014080840151818401525061016080840151818401525092915050565b6000806000610320848603121561149b57600080fd5b83356114a6816112ad565b92506114b585602086016112c2565b91506114c5856101a086016112c2565b90509250925092565b60008135610372816112ad565b60008135801515811461037257600080fd5b6000813563ffffffff8116811461037257600080fd5b600081356001600160d81b038116811461037257600080fd5b611545611528836114ce565b82546001600160a01b0319166001600160a01b0391909116178255565b611572611554602084016114db565b82805460ff60a01b191691151560a01b60ff60a01b16919091179055565b6115a5611581604084016114ed565b82805463ffffffff60a81b191660a89290921b63ffffffff60a81b16919091179055565b6115d86115b460608401611503565b6001830180546001600160d81b0319166001600160d81b0392909216919091179055565b6080820135600282015560a0820135600382015560c0820135600482015560e0820135600582015561010082013560068201556101208201356007820155610140820135600882015561016082013560098201555050565b634e487b7160e01b600052601160045260246000fd5b8181038181111561037257610372611630565b634e487b7160e01b600052604160045260246000fd5b634e487b7160e01b600052603260045260246000fd5b60006001820161169757611697611630565b5060010190565b60005b838110156116b95781810151838201526020016116a1565b50506000910152565b7f416363657373436f6e74726f6c3a206163636f756e74200000000000000000008152600083516116fa81601785016020880161169e565b7001034b99036b4b9b9b4b733903937b6329607d1b601791840191820152835161172b81602884016020880161169e565b01602801949350505050565b602081526000825180602084015261175681604085016020870161169e565b601f01601f19169190910160400192915050565b634e487b7160e01b600052603160045260246000fd5b808202811582820484141761037257610372611630565b8082018082111561037257610372611630565b6000816117b9576117b9611630565b50600019019056fecb58d6d985142a614029cdf01861b4fe094d5919a47e69b8310dc4093d9d6ad0a26469706673582212208fc99aed335ea731bf7b7e0893cddff0b92391ba5c5b7b041291b98a5f56f9ca64736f6c63430008110033",
  "linkReferences": {},
  "deployedLinkReferences": {}
}