{
  "_format": "hh-sol-artifact-1",
  "contractName": "PositionStore",
  "sourceName": "contracts/position/PositionStore.sol",
  "abi": [
    {
      "inputs": [
        {
          "internalType": "address",
          "name": "factory",
          "type": "address"
        },
        {
          "internalType": "bool",
          "name": "islong",
          "type": "bool"
        }
      ],
      "stateMutability": "nonpayable",
      "type": "constructor"
    },
    {
      "anonymous": false,
      "inputs": [
        {
          "indexed": false,
          "internalType": "uint8",
          "name": "version",
          "type": "uint8"
        }
      ],
      "name": "Initialized",
      "type": "event"
    },
    {
      "anonymous": false,
      "inputs": [
        {
          "indexed": true,
          "internalType": "address",
          "name": "account",
          "type": "address"
        },
        {
          "indexed": false,
          "internalType": "uint256",
          "name": "size",
          "type": "uint256"
        },
        {
          "indexed": false,
          "internalType": "uint256",
          "name": "collateral",
          "type": "uint256"
        }
      ],
      "name": "RemovePosition",
      "type": "event"
    },
    {
      "anonymous": false,
      "inputs": [
        {
          "indexed": true,
          "internalType": "address",
          "name": "account",
          "type": "address"
        },
        {
          "indexed": false,
          "internalType": "uint256",
          "name": "size",
          "type": "uint256"
        },
        {
          "indexed": false,
          "internalType": "uint256",
          "name": "collateral",
          "type": "uint256"
        }
      ],
      "name": "UpdatePosition",
      "type": "event"
    },
    {
      "anonymous": false,
      "inputs": [
        {
          "indexed": true,
          "internalType": "address",
          "name": "oldAddress",
          "type": "address"
        },
        {
          "indexed": true,
          "internalType": "address",
          "name": "newAddress",
          "type": "address"
        }
      ],
      "name": "UpdatePositionBook",
      "type": "event"
    },
    {
      "inputs": [],
      "name": "DEFAULT_ADMIN_ROLE",
      "outputs": [
        {
          "internalType": "bytes32",
          "name": "",
          "type": "bytes32"
        }
      ],
      "stateMutability": "view",
      "type": "function"
    },
    {
      "inputs": [
        {
          "internalType": "address",
          "name": "newOwner",
          "type": "address"
        }
      ],
      "name": "_transferOwnership",
      "outputs": [],
      "stateMutability": "pure",
      "type": "function"
    },
    {
      "inputs": [
        {
          "internalType": "address",
          "name": "account",
          "type": "address"
        }
      ],
      "name": "contains",
      "outputs": [
        {
          "internalType": "bool",
          "name": "",
          "type": "bool"
        }
      ],
      "stateMutability": "view",
      "type": "function"
    },
    {
      "inputs": [
        {
          "internalType": "address",
          "name": "account",
          "type": "address"
        }
      ],
      "name": "get",
      "outputs": [
        {
          "components": [
            {
              "internalType": "address",
              "name": "market",
              "type": "address"
            },
            {
              "internalType": "bool",
              "name": "isLong",
              "type": "bool"
            },
            {
              "internalType": "uint32",
              "name": "lastTime",
              "type": "uint32"
            },
            {
              "internalType": "uint216",
              "name": "extra3",
              "type": "uint216"
            },
            {
              "internalType": "uint256",
              "name": "size",
              "type": "uint256"
            },
            {
              "internalType": "uint256",
              "name": "collateral",
              "type": "uint256"
            },
            {
              "internalType": "uint256",
              "name": "averagePrice",
              "type": "uint256"
            },
            {
              "internalType": "int256",
              "name": "entryFundingRate",
              "type": "int256"
            },
            {
              "internalType": "int256",
              "name": "realisedPnl",
              "type": "int256"
            },
            {
              "internalType": "uint256",
              "name": "extra0",
              "type": "uint256"
            },
            {
              "internalType": "uint256",
              "name": "extra1",
              "type": "uint256"
            },
            {
              "internalType": "uint256",
              "name": "extra2",
              "type": "uint256"
            }
          ],
          "internalType": "struct Position.Props",
          "name": "",
          "type": "tuple"
        }
      ],
      "stateMutability": "view",
      "type": "function"
    },
    {
      "inputs": [],
      "name": "getGlobalPosition",
      "outputs": [
        {
          "components": [
            {
              "internalType": "address",
              "name": "market",
              "type": "address"
            },
            {
              "internalType": "bool",
              "name": "isLong",
              "type": "bool"
            },
            {
              "internalType": "uint32",
              "name": "lastTime",
              "type": "uint32"
            },
            {
              "internalType": "uint216",
              "name": "extra3",
              "type": "uint216"
            },
            {
              "internalType": "uint256",
              "name": "size",
              "type": "uint256"
            },
            {
              "internalType": "uint256",
              "name": "collateral",
              "type": "uint256"
            },
            {
              "internalType": "uint256",
              "name": "averagePrice",
              "type": "uint256"
            },
            {
              "internalType": "int256",
              "name": "entryFundingRate",
              "type": "int256"
            },
            {
              "internalType": "int256",
              "name": "realisedPnl",
              "type": "int256"
            },
            {
              "internalType": "uint256",
              "name": "extra0",
              "type": "uint256"
            },
            {
              "internalType": "uint256",
              "name": "extra1",
              "type": "uint256"
            },
            {
              "internalType": "uint256",
              "name": "extra2",
              "type": "uint256"
            }
          ],
          "internalType": "struct Position.Props",
          "name": "",
          "type": "tuple"
        }
      ],
      "stateMutability": "view",
      "type": "function"
    },
    {
      "inputs": [],
      "name": "getPositionCount",
      "outputs": [
        {
          "internalType": "uint256",
          "name": "",
          "type": "uint256"
        }
      ],
      "stateMutability": "view",
      "type": "function"
    },
    {
      "inputs": [
        {
          "internalType": "uint256",
          "name": "start",
          "type": "uint256"
        },
        {
          "internalType": "uint256",
          "name": "end",
          "type": "uint256"
        }
      ],
      "name": "getPositionKeys",
      "outputs": [
        {
          "internalType": "address[]",
          "name": "",
          "type": "address[]"
        }
      ],
      "stateMutability": "view",
      "type": "function"
    },
    {
      "inputs": [],
      "name": "globalSize",
      "outputs": [
        {
          "internalType": "uint256",
          "name": "",
          "type": "uint256"
        }
      ],
      "stateMutability": "view",
      "type": "function"
    },
    {
      "inputs": [
        {
          "internalType": "address",
          "name": "_account",
          "type": "address"
        }
      ],
      "name": "grantControllerRoleByMarketManager",
      "outputs": [],
      "stateMutability": "nonpayable",
      "type": "function"
    },
    {
      "inputs": [
        {
          "internalType": "bytes32",
          "name": "role",
          "type": "bytes32"
        },
        {
          "internalType": "address",
          "name": "account",
          "type": "address"
        }
      ],
      "name": "grantRole",
      "outputs": [],
      "stateMutability": "pure",
      "type": "function"
    },
    {
      "inputs": [
        {
          "internalType": "bytes32",
          "name": "role",
          "type": "bytes32"
        },
        {
          "internalType": "address",
          "name": "account",
          "type": "address"
        }
      ],
      "name": "hasRole",
      "outputs": [
        {
          "internalType": "bool",
          "name": "",
          "type": "bool"
        }
      ],
      "stateMutability": "pure",
      "type": "function"
    },
    {
      "inputs": [],
      "name": "isLong",
      "outputs": [
        {
          "internalType": "bool",
          "name": "",
          "type": "bool"
        }
      ],
      "stateMutability": "view",
      "type": "function"
    },
    {
      "inputs": [],
      "name": "positionBook",
      "outputs": [
        {
          "internalType": "address",
          "name": "",
          "type": "address"
        }
      ],
      "stateMutability": "view",
      "type": "function"
    },
    {
      "inputs": [
        {
          "internalType": "address",
          "name": "account",
          "type": "address"
        },
        {
          "components": [
            {
              "internalType": "address",
              "name": "market",
              "type": "address"
            },
            {
              "internalType": "bool",
              "name": "isLong",
              "type": "bool"
            },
            {
              "internalType": "uint32",
              "name": "lastTime",
              "type": "uint32"
            },
            {
              "internalType": "uint216",
              "name": "extra3",
              "type": "uint216"
            },
            {
              "internalType": "uint256",
              "name": "size",
              "type": "uint256"
            },
            {
              "internalType": "uint256",
              "name": "collateral",
              "type": "uint256"
            },
            {
              "internalType": "uint256",
              "name": "averagePrice",
              "type": "uint256"
            },
            {
              "internalType": "int256",
              "name": "entryFundingRate",
              "type": "int256"
            },
            {
              "internalType": "int256",
              "name": "realisedPnl",
              "type": "int256"
            },
            {
              "internalType": "uint256",
              "name": "extra0",
              "type": "uint256"
            },
            {
              "internalType": "uint256",
              "name": "extra1",
              "type": "uint256"
            },
            {
              "internalType": "uint256",
              "name": "extra2",
              "type": "uint256"
            }
          ],
          "internalType": "struct Position.Props",
          "name": "globalPosition",
          "type": "tuple"
        }
      ],
      "name": "remove",
      "outputs": [],
      "stateMutability": "nonpayable",
      "type": "function"
    },
    {
      "inputs": [
        {
          "internalType": "bytes32",
          "name": "role",
          "type": "bytes32"
        },
        {
          "internalType": "address",
          "name": "account",
          "type": "address"
        }
      ],
      "name": "revokeRole",
      "outputs": [],
      "stateMutability": "pure",
      "type": "function"
    },
    {
      "inputs": [
        {
          "internalType": "address",
          "name": "account",
          "type": "address"
        },
        {
          "components": [
            {
              "internalType": "address",
              "name": "market",
              "type": "address"
            },
            {
              "internalType": "bool",
              "name": "isLong",
              "type": "bool"
            },
            {
              "internalType": "uint32",
              "name": "lastTime",
              "type": "uint32"
            },
            {
              "internalType": "uint216",
              "name": "extra3",
              "type": "uint216"
            },
            {
              "internalType": "uint256",
              "name": "size",
              "type": "uint256"
            },
            {
              "internalType": "uint256",
              "name": "collateral",
              "type": "uint256"
            },
            {
              "internalType": "uint256",
              "name": "averagePrice",
              "type": "uint256"
            },
            {
              "internalType": "int256",
              "name": "entryFundingRate",
              "type": "int256"
            },
            {
              "internalType": "int256",
              "name": "realisedPnl",
              "type": "int256"
            },
            {
              "internalType": "uint256",
              "name": "extra0",
              "type": "uint256"
            },
            {
              "internalType": "uint256",
              "name": "extra1",
              "type": "uint256"
            },
            {
              "internalType": "uint256",
              "name": "extra2",
              "type": "uint256"
            }
          ],
          "internalType": "struct Position.Props",
          "name": "position",
          "type": "tuple"
        },
        {
          "components": [
            {
              "internalType": "address",
              "name": "market",
              "type": "address"
            },
            {
              "internalType": "bool",
              "name": "isLong",
              "type": "bool"
            },
            {
              "internalType": "uint32",
              "name": "lastTime",
              "type": "uint32"
            },
            {
              "internalType": "uint216",
              "name": "extra3",
              "type": "uint216"
            },
            {
              "internalType": "uint256",
              "name": "size",
              "type": "uint256"
            },
            {
              "internalType": "uint256",
              "name": "collateral",
              "type": "uint256"
            },
            {
              "internalType": "uint256",
              "name": "averagePrice",
              "type": "uint256"
            },
            {
              "internalType": "int256",
              "name": "entryFundingRate",
              "type": "int256"
            },
            {
              "internalType": "int256",
              "name": "realisedPnl",
              "type": "int256"
            },
            {
              "internalType": "uint256",
              "name": "extra0",
              "type": "uint256"
            },
            {
              "internalType": "uint256",
              "name": "extra1",
              "type": "uint256"
            },
            {
              "internalType": "uint256",
              "name": "extra2",
              "type": "uint256"
            }
          ],
          "internalType": "struct Position.Props",
          "name": "globalPosition",
          "type": "tuple"
        }
      ],
      "name": "set",
      "outputs": [],
      "stateMutability": "nonpayable",
      "type": "function"
    },
    {
      "inputs": [
        {
          "internalType": "address",
          "name": "pb",
          "type": "address"
        }
      ],
      "name": "setPositionBook",
      "outputs": [],
      "stateMutability": "nonpayable",
      "type": "function"
    },
    {
      "inputs": [
        {
          "internalType": "address",
          "name": "to",
          "type": "address"
        }
      ],
      "name": "transferAdmin",
      "outputs": [],
      "stateMutability": "nonpayable",
      "type": "function"
    },
    {
      "inputs": [
        {
          "internalType": "address",
          "name": "newOwner",
          "type": "address"
        }
      ],
      "name": "transferOwnership",
      "outputs": [],
      "stateMutability": "pure",
      "type": "function"
    }
  ],
  "bytecode": "0x60a060405234801561001057600080fd5b5060405161107838038061107883398101604081905261002f91610071565b816100438161006360201b6108461760201c565b50600280546001600160a01b0319163317905580151560805250506100bc565b4260015561006e3381565b50565b6000806040838503121561008457600080fd5b82516001600160a01b038116811461009b57600080fd5b602084015190925080151581146100b157600080fd5b809150509250929050565b608051610fa16100d760003960006101420152610fa16000f3fe608060405234801561001057600080fd5b50600436106101215760003560e01c80638d49701d116100ad578063b7ed135711610071578063b7ed13571461026d578063c2bc2efc14610280578063d29d44ee14610293578063d547741f14610189578063f2fde38b1461029357600080fd5b80638d49701d146101fc5780639027b59e1461020f57806391d1485414610224578063a217fddf1461023a578063ac0b05a61461024257600080fd5b80635dbe47e8116100f45780635dbe47e81461019b57806375829def146101ae5780637f497d97146101c15780637fe4a698146101e157806381683476146101f457600080fd5b80631ee229be14610126578063202a61a11461013d5780632d015618146101745780632f2ff15d14610189575b600080fd5b6008545b6040519081526020015b60405180910390f35b6101647f000000000000000000000000000000000000000000000000000000000000000081565b6040519015158152602001610134565b610187610182366004610b92565b6102a4565b005b610187610197366004610bc9565b5050565b6101646101a9366004610bf9565b61056f565b6101876101bc366004610bf9565b610582565b6101d46101cf366004610c16565b61058d565b6040516101349190610c38565b6101876101ef366004610bf9565b6102a1565b61012a6105a2565b61018761020a366004610bf9565b6105b3565b61021761064d565b6040516101349190610c85565b610164610232366004610bc9565b600192915050565b61012a600081565b600254610255906001600160a01b031681565b6040516001600160a01b039091168152602001610134565b61018761027b366004610d3c565b6106ed565b61021761028e366004610bf9565b61077f565b6101876102a1366004610bf9565b50565b60006102b160048461084d565b9050806103055760405162461bcd60e51b815260206004820152601760248201527f706f736974696f6e20646f6573206e6f7420657869737400000000000000000060448201526064015b60405180910390fd5b8160066103128282610dd3565b905050600060036000856001600160a01b03166001600160a01b03168152602001908152602001600020604051806101800160405290816000820160009054906101000a90046001600160a01b03166001600160a01b03166001600160a01b031681526020016000820160149054906101000a900460ff161515151581526020016000820160159054906101000a900463ffffffff1663ffffffff1663ffffffff1681526020016001820160009054906101000a90046001600160d81b03166001600160d81b03166001600160d81b0316815260200160028201548152602001600382015481526020016004820154815260200160058201548152602001600682015481526020016007820154815260200160088201548152602001600982015481525050905060036000856001600160a01b03166001600160a01b03168152602001908152602001600020600080820160006101000a8154906001600160a01b0302191690556000820160146101000a81549060ff02191690556000820160156101000a81549063ffffffff02191690556001820160006101000a8154906001600160d81b03021916905560028201600090556003820160009055600482016000905560058201600090556006820160009055600782016000905560088201600090556009820160009055505061051484600461086f90919063ffffffff16565b50836001600160a01b03167f20b3ac24c835264e655c493af7b3db37ff78a0f358627f0de89832abc7e1deca82608001518360a00151604051610561929190918252602082015260400190565b60405180910390a250505050565b600061057c60048361084d565b92915050565b600061019760003382565b606061059b60048484610884565b9392505050565b60006105ae6004610952565b905090565b6001600160a01b0381166105fb5760405162461bcd60e51b815260206004820152600f60248201526e696e76616c6964206164647265737360881b60448201526064016102fc565b600280546001600160a01b038381166001600160a01b0319831681179093556040519116919082907f2ee38693e6d151b09b65fa20e0e55d8947aeee23c1fa70257ea61af59a8dd2f090600090a35050565b610655610ae9565b5060408051610180810182526006546001600160a01b0381168252600160a01b810460ff1615156020830152600160a81b900463ffffffff16918101919091526007546001600160d81b03166060820152600854608082015260095460a0820152600a5460c0820152600b5460e0820152600c54610100820152600d54610120820152600e54610140820152600f5461016082015290565b8060066106fa8282610dd3565b50506001600160a01b038316600090815260036020526040902082906107208282610dd3565b5061072e905060048461095c565b50604080516080840135815260a084013560208201526001600160a01b038516917f0d77a4156ff764dade22a2cd25a68a83ff04b20df143bba5d162a6a980702623910160405180910390a2505050565b610787610ae9565b506001600160a01b0390811660009081526003602081815260409283902083516101808101855281549586168152600160a01b860460ff16151592810192909252600160a81b90940463ffffffff169281019290925260018301546001600160d81b031660608301526002830154608083015282015460a0820152600482015460c0820152600582015460e082015260068201546101008201526007820154610120820152600882015461014082015260099091015461016082015290565b4260015550565b6001600160a01b0381166000908152600183016020526040812054151561059b565b600061059b836001600160a01b038416610971565b6060600061089185610952565b90508083111561089f578092505b60006108ab8585610efd565b67ffffffffffffffff8111156108c3576108c3610f10565b6040519080825280602002602001820160405280156108ec578160200160208202803683370190505b509050845b84811015610948576109038782610a64565b8261090e8884610efd565b8151811061091e5761091e610f26565b6001600160a01b03909216602092830291909101909101528061094081610f3c565b9150506108f1565b5095945050505050565b600061057c825490565b600061059b836001600160a01b038416610a70565b60008181526001830160205260408120548015610a5a576000610995600183610efd565b85549091506000906109a990600190610efd565b9050818114610a0e5760008660000182815481106109c9576109c9610f26565b90600052602060002001549050808760000184815481106109ec576109ec610f26565b6000918252602080832090910192909255918252600188019052604090208390555b8554869080610a1f57610a1f610f55565b60019003818190600052602060002001600090559055856001016000868152602001908152602001600020600090556001935050505061057c565b600091505061057c565b600061059b8383610abf565b6000818152600183016020526040812054610ab75750815460018181018455600084815260208082209093018490558454848252828601909352604090209190915561057c565b50600061057c565b6000826000018281548110610ad657610ad6610f26565b9060005260206000200154905092915050565b60405180610180016040528060006001600160a01b03168152602001600015158152602001600063ffffffff16815260200160006001600160d81b0316815260200160008152602001600081526020016000815260200160008152602001600081526020016000815260200160008152602001600081525090565b6001600160a01b03811681146102a157600080fd5b60006101808284031215610b8c57600080fd5b50919050565b6000806101a08385031215610ba657600080fd5b8235610bb181610b64565b9150610bc08460208501610b79565b90509250929050565b60008060408385031215610bdc57600080fd5b823591506020830135610bee81610b64565b809150509250929050565b600060208284031215610c0b57600080fd5b813561059b81610b64565b60008060408385031215610c2957600080fd5b50508035926020909101359150565b6020808252825182820181905260009190848201906040850190845b81811015610c795783516001600160a01b031683529284019291840191600101610c54565b50909695505050505050565b81516001600160a01b0316815261018081016020830151610caa602084018215159052565b506040830151610cc2604084018263ffffffff169052565b506060830151610cdd60608401826001600160d81b03169052565b506080830151608083015260a083015160a083015260c083015160c083015260e083015160e083015261010080840151818401525061012080840151818401525061014080840151818401525061016080840151818401525092915050565b60008060006103208486031215610d5257600080fd5b8335610d5d81610b64565b9250610d6c8560208601610b79565b9150610d7c856101a08601610b79565b90509250925092565b6000813561057c81610b64565b60008135801515811461057c57600080fd5b6000813563ffffffff8116811461057c57600080fd5b600081356001600160d81b038116811461057c57600080fd5b610dfc610ddf83610d85565b82546001600160a01b0319166001600160a01b0391909116178255565b610e29610e0b60208401610d92565b82805460ff60a01b191691151560a01b60ff60a01b16919091179055565b610e5c610e3860408401610da4565b82805463ffffffff60a81b191660a89290921b63ffffffff60a81b16919091179055565b610e8f610e6b60608401610dba565b6001830180546001600160d81b0319166001600160d81b0392909216919091179055565b6080820135600282015560a0820135600382015560c0820135600482015560e0820135600582015561010082013560068201556101208201356007820155610140820135600882015561016082013560098201555050565b634e487b7160e01b600052601160045260246000fd5b8181038181111561057c5761057c610ee7565b634e487b7160e01b600052604160045260246000fd5b634e487b7160e01b600052603260045260246000fd5b600060018201610f4e57610f4e610ee7565b5060010190565b634e487b7160e01b600052603160045260246000fdfea26469706673582212208eb6e32ab191e4016bd18fc4950a91f86ee4c1827d9059c2ee591a8371de19ca64736f6c63430008110033",
  "linkReferences": {},
  "deployedLinkReferences": {}
}