{
  "_format": "hh-sol-artifact-1",
  "contractName": "ChainPriceFeedMock",
  "sourceName": "contracts/mocker/MockChainPriceFeed.sol",
  "abi": [
    {
      "inputs": [],
      "name": "fastPrice",
      "outputs": [
        {
          "internalType": "address",
          "name": "",
          "type": "address"
        }
      ],
      "stateMutability": "view",
      "type": "function"
    },
    {
      "inputs": [
        {
          "internalType": "address",
          "name": "_token",
          "type": "address"
        },
        {
          "internalType": "bool",
          "name": "_maximise",
          "type": "bool"
        }
      ],
      "name": "getPrice",
      "outputs": [
        {
          "internalType": "uint256",
          "name": "",
          "type": "uint256"
        }
      ],
      "stateMutability": "view",
      "type": "function"
    },
    {
      "inputs": [
        {
          "internalType": "address",
          "name": "feed",
          "type": "address"
        }
      ],
      "name": "setFastPrice",
      "outputs": [],
      "stateMutability": "nonpayable",
      "type": "function"
    }
  ],
  "bytecode": "0x608060405234801561001057600080fd5b50610201806100206000396000f3fe608060405234801561001057600080fd5b50600436106100415760003560e01c806376d6976014610046578063d800fca81461006c578063fafd26f314610097575b600080fd5b61005961005436600461015b565b6100c9565b6040519081526020015b60405180910390f35b60005461007f906001600160a01b031681565b6040516001600160a01b039091168152602001610063565b6100c76100a5366004610197565b600080546001600160a01b0319166001600160a01b0392909216919091179055565b005b6000805460405163cfed246b60e01b81526001600160a01b0385811660048301529091169063cfed246b90602401602060405180830381865afa158015610114573d6000803e3d6000fd5b505050506040513d601f19601f8201168201806040525081019061013891906101b2565b9392505050565b80356001600160a01b038116811461015657600080fd5b919050565b6000806040838503121561016e57600080fd5b6101778361013f565b91506020830135801515811461018c57600080fd5b809150509250929050565b6000602082840312156101a957600080fd5b6101388261013f565b6000602082840312156101c457600080fd5b505191905056fea2646970667358221220f0049d24f6f62fda29de8e81438177032c69c926b9a6cb1d54935041ce619d4a64736f6c63430008110033",
  "linkReferences": {},
  "deployedLinkReferences": {}
}