{
  "_format": "hh-sol-artifact-1",
  "contractName": "MockMarket",
  "sourceName": "contracts/mocker/MockMarket.sol",
  "abi": [
    {
      "inputs": [],
      "name": "PositionBook",
      "outputs": [
        {
          "internalType": "address",
          "name": "",
          "type": "address"
        }
      ],
      "stateMutability": "view",
      "type": "function"
    },
    {
      "inputs": [],
      "name": "indexToken",
      "outputs": [
        {
          "internalType": "address",
          "name": "",
          "type": "address"
        }
      ],
      "stateMutability": "view",
      "type": "function"
    },
    {
      "inputs": [],
      "name": "positionBook",
      "outputs": [
        {
          "internalType": "contract IPositionBook",
          "name": "",
          "type": "address"
        }
      ],
      "stateMutability": "nonpayable",
      "type": "function"
    },
    {
      "inputs": [
        {
          "internalType": "address",
          "name": "book",
          "type": "address"
        }
      ],
      "name": "setPositionBook",
      "outputs": [],
      "stateMutability": "nonpayable",
      "type": "function"
    }
  ],
  "bytecode": "0x608060405234801561001057600080fd5b50610121806100206000396000f3fe6080604052348015600f57600080fd5b506004361060465760003560e01c80634320917414604b5780638d49701d146079578063ac0b05a61460a8578063e7d015f21460b8575b600080fd5b600054605d906001600160a01b031681565b6040516001600160a01b03909116815260200160405180910390f35b60a6608436600460bd565b600080546001600160a01b0319166001600160a01b0392909216919091179055565b005b6000546001600160a01b0316605d565b30605d565b60006020828403121560ce57600080fd5b81356001600160a01b038116811460e457600080fd5b939250505056fea26469706673582212206782a63d92ce8225dead4c9be5e04fdfd0bfe50894815b1d188cd327ae65a57e64736f6c63430008110033",
  "linkReferences": {},
  "deployedLinkReferences": {}
}