{
  "_format": "hh-sol-artifact-1",
  "contractName": "FeeRouter",
  "sourceName": "contracts/fee/FeeRouter.sol",
  "abi": [
    {
      "anonymous": false,
      "inputs": [
        {
          "indexed": false,
          "internalType": "uint8",
          "name": "version",
          "type": "uint8"
        }
      ],
      "name": "Initialized",
      "type": "event"
    },
    {
      "anonymous": false,
      "inputs": [
        {
          "indexed": true,
          "internalType": "address",
          "name": "account",
          "type": "address"
        },
        {
          "indexed": true,
          "internalType": "address",
          "name": "market",
          "type": "address"
        },
        {
          "indexed": false,
          "internalType": "int256[]",
          "name": "fees",
          "type": "int256[]"
        },
        {
          "indexed": false,
          "internalType": "uint256",
          "name": "amount",
          "type": "uint256"
        }
      ],
      "name": "UpdateFee",
      "type": "event"
    },
    {
      "anonymous": false,
      "inputs": [
        {
          "indexed": true,
          "internalType": "address",
          "name": "market",
          "type": "address"
        },
        {
          "indexed": false,
          "internalType": "uint8",
          "name": "kind",
          "type": "uint8"
        },
        {
          "indexed": false,
          "internalType": "uint256",
          "name": "oldFeeOrRate",
          "type": "uint256"
        },
        {
          "indexed": false,
          "internalType": "uint256",
          "name": "feeOrRate",
          "type": "uint256"
        }
      ],
      "name": "UpdateFeeAndRates",
      "type": "event"
    },
    {
      "anonymous": false,
      "inputs": [
        {
          "indexed": true,
          "internalType": "address",
          "name": "account",
          "type": "address"
        },
        {
          "indexed": true,
          "internalType": "address",
          "name": "market",
          "type": "address"
        },
        {
          "indexed": false,
          "internalType": "int256[]",
          "name": "fees",
          "type": "int256[]"
        },
        {
          "indexed": false,
          "internalType": "uint256",
          "name": "amount",
          "type": "uint256"
        }
      ],
      "name": "UpdatePayoutFee",
      "type": "event"
    },
    {
      "inputs": [],
      "name": "DEFAULT_ADMIN_ROLE",
      "outputs": [
        {
          "internalType": "bytes32",
          "name": "",
          "type": "bytes32"
        }
      ],
      "stateMutability": "view",
      "type": "function"
    },
    {
      "inputs": [],
      "name": "FEE_RATE_PRECISION",
      "outputs": [
        {
          "internalType": "uint256",
          "name": "",
          "type": "uint256"
        }
      ],
      "stateMutability": "view",
      "type": "function"
    },
    {
      "inputs": [
        {
          "internalType": "address",
          "name": "newOwner",
          "type": "address"
        }
      ],
      "name": "_transferOwnership",
      "outputs": [],
      "stateMutability": "pure",
      "type": "function"
    },
    {
      "inputs": [
        {
          "internalType": "address",
          "name": "account",
          "type": "address"
        },
        {
          "internalType": "address",
          "name": "token",
          "type": "address"
        },
        {
          "internalType": "int256[]",
          "name": "fees",
          "type": "int256[]"
        },
        {
          "internalType": "uint256",
          "name": "fundfeeLoss",
          "type": "uint256"
        }
      ],
      "name": "collectFees",
      "outputs": [],
      "stateMutability": "nonpayable",
      "type": "function"
    },
    {
      "inputs": [
        {
          "internalType": "address",
          "name": "account",
          "type": "address"
        },
        {
          "internalType": "address",
          "name": "token",
          "type": "address"
        },
        {
          "internalType": "int256[]",
          "name": "fees",
          "type": "int256[]"
        }
      ],
      "name": "collectFees",
      "outputs": [],
      "stateMutability": "nonpayable",
      "type": "function"
    },
    {
      "inputs": [
        {
          "internalType": "address",
          "name": "market",
          "type": "address"
        },
        {
          "internalType": "bool",
          "name": "isLong",
          "type": "bool"
        }
      ],
      "name": "cumulativeFundingRates",
      "outputs": [
        {
          "internalType": "int256",
          "name": "",
          "type": "int256"
        }
      ],
      "stateMutability": "view",
      "type": "function"
    },
    {
      "inputs": [],
      "name": "factory",
      "outputs": [
        {
          "internalType": "address",
          "name": "",
          "type": "address"
        }
      ],
      "stateMutability": "view",
      "type": "function"
    },
    {
      "inputs": [
        {
          "internalType": "address",
          "name": "",
          "type": "address"
        },
        {
          "internalType": "uint8",
          "name": "",
          "type": "uint8"
        }
      ],
      "name": "feeAndRates",
      "outputs": [
        {
          "internalType": "uint256",
          "name": "",
          "type": "uint256"
        }
      ],
      "stateMutability": "view",
      "type": "function"
    },
    {
      "inputs": [],
      "name": "feeVault",
      "outputs": [
        {
          "internalType": "address",
          "name": "",
          "type": "address"
        }
      ],
      "stateMutability": "view",
      "type": "function"
    },
    {
      "inputs": [],
      "name": "fundFee",
      "outputs": [
        {
          "internalType": "address",
          "name": "",
          "type": "address"
        }
      ],
      "stateMutability": "view",
      "type": "function"
    },
    {
      "inputs": [
        {
          "internalType": "address",
          "name": "market",
          "type": "address"
        }
      ],
      "name": "getExecFee",
      "outputs": [
        {
          "internalType": "uint256",
          "name": "",
          "type": "uint256"
        }
      ],
      "stateMutability": "view",
      "type": "function"
    },
    {
      "inputs": [
        {
          "components": [
            {
              "internalType": "address",
              "name": "_market",
              "type": "address"
            },
            {
              "internalType": "bool",
              "name": "_isLong",
              "type": "bool"
            },
            {
              "internalType": "uint256",
              "name": "_oraclePrice",
              "type": "uint256"
            },
            {
              "internalType": "bool",
              "name": "isOpen",
              "type": "bool"
            },
            {
              "internalType": "address",
              "name": "_account",
              "type": "address"
            },
            {
              "internalType": "uint256",
              "name": "_sizeDelta",
              "type": "uint256"
            },
            {
              "internalType": "uint256",
              "name": "_price",
              "type": "uint256"
            },
            {
              "internalType": "uint256",
              "name": "_slippage",
              "type": "uint256"
            },
            {
              "internalType": "bool",
              "name": "_isExec",
              "type": "bool"
            },
            {
              "internalType": "uint8",
              "name": "liqState",
              "type": "uint8"
            },
            {
              "internalType": "uint64",
              "name": "_fromOrder",
              "type": "uint64"
            },
            {
              "internalType": "bytes32",
              "name": "_refCode",
              "type": "bytes32"
            },
            {
              "internalType": "uint256",
              "name": "collateralDelta",
              "type": "uint256"
            },
            {
              "internalType": "uint8",
              "name": "execNum",
              "type": "uint8"
            },
            {
              "internalType": "uint256[]",
              "name": "inputs",
              "type": "uint256[]"
            }
          ],
          "internalType": "struct MarketDataTypes.UpdatePositionInputs",
          "name": "params",
          "type": "tuple"
        },
        {
          "components": [
            {
              "internalType": "address",
              "name": "market",
              "type": "address"
            },
            {
              "internalType": "bool",
              "name": "isLong",
              "type": "bool"
            },
            {
              "internalType": "uint32",
              "name": "lastTime",
              "type": "uint32"
            },
            {
              "internalType": "uint216",
              "name": "extra3",
              "type": "uint216"
            },
            {
              "internalType": "uint256",
              "name": "size",
              "type": "uint256"
            },
            {
              "internalType": "uint256",
              "name": "collateral",
              "type": "uint256"
            },
            {
              "internalType": "uint256",
              "name": "averagePrice",
              "type": "uint256"
            },
            {
              "internalType": "int256",
              "name": "entryFundingRate",
              "type": "int256"
            },
            {
              "internalType": "int256",
              "name": "realisedPnl",
              "type": "int256"
            },
            {
              "internalType": "uint256",
              "name": "extra0",
              "type": "uint256"
            },
            {
              "internalType": "uint256",
              "name": "extra1",
              "type": "uint256"
            },
            {
              "internalType": "uint256",
              "name": "extra2",
              "type": "uint256"
            }
          ],
          "internalType": "struct Position.Props",
          "name": "position",
          "type": "tuple"
        }
      ],
      "name": "getFees",
      "outputs": [
        {
          "internalType": "int256[]",
          "name": "fees",
          "type": "int256[]"
        }
      ],
      "stateMutability": "view",
      "type": "function"
    },
    {
      "inputs": [
        {
          "internalType": "address",
          "name": "market",
          "type": "address"
        },
        {
          "internalType": "bool",
          "name": "isLong",
          "type": "bool"
        }
      ],
      "name": "getFundingRate",
      "outputs": [
        {
          "internalType": "int256",
          "name": "",
          "type": "int256"
        }
      ],
      "stateMutability": "view",
      "type": "function"
    },
    {
      "inputs": [
        {
          "components": [
            {
              "internalType": "address",
              "name": "_market",
              "type": "address"
            },
            {
              "internalType": "bool",
              "name": "_isLong",
              "type": "bool"
            },
            {
              "internalType": "uint256",
              "name": "_oraclePrice",
              "type": "uint256"
            },
            {
              "internalType": "bool",
              "name": "isOpen",
              "type": "bool"
            },
            {
              "internalType": "bool",
              "name": "isCreate",
              "type": "bool"
            },
            {
              "components": [
                {
                  "internalType": "uint8",
                  "name": "version",
                  "type": "uint8"
                },
                {
                  "internalType": "uint32",
                  "name": "updatedAtBlock",
                  "type": "uint32"
                },
                {
                  "internalType": "uint8",
                  "name": "triggerAbove",
                  "type": "uint8"
                },
                {
                  "internalType": "address",
                  "name": "account",
                  "type": "address"
                },
                {
                  "internalType": "uint48",
                  "name": "extra3",
                  "type": "uint48"
                },
                {
                  "internalType": "uint128",
                  "name": "collateral",
                  "type": "uint128"
                },
                {
                  "internalType": "uint128",
                  "name": "size",
                  "type": "uint128"
                },
                {
                  "internalType": "uint128",
                  "name": "price",
                  "type": "uint128"
                },
                {
                  "internalType": "uint128",
                  "name": "extra1",
                  "type": "uint128"
                },
                {
                  "internalType": "uint64",
                  "name": "orderID",
                  "type": "uint64"
                },
                {
                  "internalType": "uint64",
                  "name": "extra2",
                  "type": "uint64"
                },
                {
                  "internalType": "uint128",
                  "name": "extra0",
                  "type": "uint128"
                },
                {
                  "internalType": "bytes32",
                  "name": "refCode",
                  "type": "bytes32"
                }
              ],
              "internalType": "struct Order.Props",
              "name": "_order",
              "type": "tuple"
            },
            {
              "internalType": "uint256[]",
              "name": "inputs",
              "type": "uint256[]"
            }
          ],
          "internalType": "struct MarketDataTypes.UpdateOrderInputs",
          "name": "params",
          "type": "tuple"
        }
      ],
      "name": "getOrderFees",
      "outputs": [
        {
          "internalType": "int256",
          "name": "fees",
          "type": "int256"
        }
      ],
      "stateMutability": "view",
      "type": "function"
    },
    {
      "inputs": [
        {
          "internalType": "address",
          "name": "_account",
          "type": "address"
        }
      ],
      "name": "grantControllerRoleByMarketManager",
      "outputs": [],
      "stateMutability": "nonpayable",
      "type": "function"
    },
    {
      "inputs": [
        {
          "internalType": "bytes32",
          "name": "role",
          "type": "bytes32"
        },
        {
          "internalType": "address",
          "name": "account",
          "type": "address"
        }
      ],
      "name": "grantRole",
      "outputs": [],
      "stateMutability": "pure",
      "type": "function"
    },
    {
      "inputs": [
        {
          "internalType": "bytes32",
          "name": "role",
          "type": "bytes32"
        },
        {
          "internalType": "address",
          "name": "account",
          "type": "address"
        }
      ],
      "name": "hasRole",
      "outputs": [
        {
          "internalType": "bool",
          "name": "",
          "type": "bool"
        }
      ],
      "stateMutability": "pure",
      "type": "function"
    },
    {
      "inputs": [
        {
          "internalType": "address",
          "name": "_factory",
          "type": "address"
        },
        {
          "internalType": "address",
          "name": "vault",
          "type": "address"
        },
        {
          "internalType": "address",
          "name": "fundingFee",
          "type": "address"
        }
      ],
      "name": "initialize",
      "outputs": [],
      "stateMutability": "nonpayable",
      "type": "function"
    },
    {
      "inputs": [
        {
          "internalType": "address",
          "name": "market",
          "type": "address"
        },
        {
          "internalType": "uint8",
          "name": "_len",
          "type": "uint8"
        }
      ],
      "name": "migrateFeeAndRates",
      "outputs": [],
      "stateMutability": "nonpayable",
      "type": "function"
    },
    {
      "inputs": [
        {
          "internalType": "address",
          "name": "account",
          "type": "address"
        },
        {
          "internalType": "address",
          "name": "token",
          "type": "address"
        },
        {
          "internalType": "int256[]",
          "name": "fees",
          "type": "int256[]"
        },
        {
          "internalType": "uint256",
          "name": "feesTotal",
          "type": "uint256"
        }
      ],
      "name": "payoutFees",
      "outputs": [],
      "stateMutability": "nonpayable",
      "type": "function"
    },
    {
      "inputs": [
        {
          "internalType": "bytes32",
          "name": "role",
          "type": "bytes32"
        },
        {
          "internalType": "address",
          "name": "account",
          "type": "address"
        }
      ],
      "name": "revokeRole",
      "outputs": [],
      "stateMutability": "pure",
      "type": "function"
    },
    {
      "inputs": [
        {
          "internalType": "address",
          "name": "market",
          "type": "address"
        },
        {
          "internalType": "uint256[]",
          "name": "rates",
          "type": "uint256[]"
        }
      ],
      "name": "setFeeAndRates",
      "outputs": [],
      "stateMutability": "nonpayable",
      "type": "function"
    },
    {
      "inputs": [
        {
          "internalType": "address",
          "name": "vault",
          "type": "address"
        }
      ],
      "name": "setFeeVault",
      "outputs": [],
      "stateMutability": "nonpayable",
      "type": "function"
    },
    {
      "inputs": [
        {
          "internalType": "address",
          "name": "fundingFee",
          "type": "address"
        }
      ],
      "name": "setFundFee",
      "outputs": [],
      "stateMutability": "nonpayable",
      "type": "function"
    },
    {
      "inputs": [
        {
          "internalType": "address",
          "name": "to",
          "type": "address"
        }
      ],
      "name": "transferAdmin",
      "outputs": [],
      "stateMutability": "nonpayable",
      "type": "function"
    },
    {
      "inputs": [
        {
          "internalType": "address",
          "name": "newOwner",
          "type": "address"
        }
      ],
      "name": "transferOwnership",
      "outputs": [],
      "stateMutability": "pure",
      "type": "function"
    },
    {
      "inputs": [
        {
          "internalType": "address",
          "name": "market",
          "type": "address"
        },
        {
          "internalType": "uint256",
          "name": "longSize",
          "type": "uint256"
        },
        {
          "internalType": "uint256",
          "name": "shortSize",
          "type": "uint256"
        }
      ],
      "name": "updateCumulativeFundingRate",
      "outputs": [],
      "stateMutability": "nonpayable",
      "type": "function"
    },
    {
      "inputs": [
        {
          "internalType": "address",
          "name": "token",
          "type": "address"
        },
        {
          "internalType": "address",
          "name": "to",
          "type": "address"
        },
        {
          "internalType": "uint256",
          "name": "amount",
          "type": "uint256"
        }
      ],
      "name": "withdraw",
      "outputs": [],
      "stateMutability": "nonpayable",
      "type": "function"
    }
  ],
  "bytecode": "0x608060405234801561001057600080fd5b50612423806100206000396000f3fe608060405234801561001057600080fd5b50600436106101c45760003560e01c8063a217fddf116100f9578063d29d44ee11610097578063d9caed1211610071578063d9caed12146103f7578063e50f19ef1461040a578063f2fde38b146103bb578063f4ca4d1d1461041d57600080fd5b8063d29d44ee146103bb578063d547741f14610239578063d8778068146103cc57600080fd5b8063c45a0155116100d3578063c45a01551461036f578063c6f83ad114610382578063c8830bf514610395578063c9cf9f3a146103a857600080fd5b8063a217fddf14610341578063a591f97f14610349578063c0c53b8b1461035c57600080fd5b8063478222c2116101665780637dd49023116101405780637dd49023146102e25780637fe4a698146102f557806391d1485414610308578063966ace281461032e57600080fd5b8063478222c2146102a95780635bac2f60146102bc57806375829def146102cf57600080fd5b80632f2ff15d116101a25780632f2ff15d1461023957806333abd0281461024b57806334f32e2514610276578063415102631461028957600080fd5b806309d39897146101c95780631a6ca8091461021157806320981df414610226575b600080fd5b6101fe6101d73660046116d3565b6001600160a01b031660009081526005602090815260408083206003845290915290205490565b6040519081526020015b60405180910390f35b61022461021f366004611877565b610425565b005b6101fe6102343660046118f9565b610599565b610224610247366004611932565b5050565b60035461025e906001600160a01b031681565b6040516001600160a01b039091168152602001610208565b6101fe6102843660046118f9565b61061a565b61029c610297366004611a63565b610655565b6040516102089190611bec565b60025461025e906001600160a01b031681565b6102246102ca366004611bff565b61067e565b6102246102dd3660046116d3565b610816565b6102246102f0366004611c2b565b610821565b6102246103033660046116d3565b6103c9565b61031e610316366004611932565b600192915050565b6040519015158152602001610208565b61022461033c366004611877565b61097c565b6101fe600081565b6102246103573660046116d3565b6109b6565b61022461036a366004611c7a565b610a22565b60045461025e906001600160a01b031681565b610224610390366004611cc5565b610c4d565b6101fe6103a3366004611e21565b610d05565b6102246103b63660046116d3565b610d86565b6102246103c93660046116d3565b50565b6101fe6103da366004611bff565b600560209081526000928352604080842090915290825290205481565b610224610405366004611eef565b610df2565b610224610418366004611f30565b610e86565b6101fe610ec6565b61042e33610ed5565b80610437575060015b61045c5760405162461bcd60e51b815260040161045390611f91565b60405180910390fd5b6002546040516370a0823160e01b81526001600160a01b0391821660048201526000918516906370a0823190602401602060405180830381865afa1580156104a8573d6000803e3d6000fd5b505050506040513d601f19601f820116820180604052508101906104cc9190611fc8565b9050818111156104d95750805b600254604051636ce5768960e11b81526001600160a01b038681166004830152336024830152604482018490529091169063d9caed1290606401600060405180830381600087803b15801561052d57600080fd5b505af1158015610541573d6000803e3d6000fd5b50505050336001600160a01b0316856001600160a01b03167f66f918a5780b532a6d1d0d9d5b8bb0e9b5180775146dd5c853b36d345b9d1043858460405161058a929190611fe1565b60405180910390a35050505050565b600354604051630826077d60e21b81526001600160a01b038481166004830152831515602483015260009216906320981df4906044015b602060405180830381865afa1580156105ed573d6000803e3d6000fd5b505050506040513d601f19601f820116820180604052508101906106119190611fc8565b90505b92915050565b6002546040516334f32e2560e01b81526001600160a01b038481166004830152831515602483015260009216906334f32e25906044016105d0565b6060610611836106778560000151866020015186608001518760e00151610ff3565b6005611083565b7f8d1089725c0dc266707fa6207730fb801dcd03108bfed7a21099bd303651d2b76000836001600160a01b031663f29ebf616040518163ffffffff1660e01b81526004016020604051808303816000875af11580156106e1573d6000803e3d6000fd5b505050506040513d601f19601f820116820180604052508101906107059190612003565b905060005b8360ff168160ff16101561080f57604051631b0ef00d60e31b81526001600160a01b03868116600483015260ff831660248301526000919084169063d877806890604401602060405180830381865afa15801561076b573d6000803e3d6000fd5b505050506040513d601f19601f8201168201806040525081019061078f9190611fc8565b6001600160a01b038716600081815260056020908152604080832060ff88168085529083529281902085905580519283529082018490528101839052919250907f8e26fb53d63c548677b068d08742bea435b6ecb7911ab3c5ad68fbccddeaf5fe9060600160405180910390a2508061080781612036565b91505061070a565b5050505050565b600061024760003382565b7f8d1089725c0dc266707fa6207730fb801dcd03108bfed7a21099bd303651d2b760008251116108845760405162461bcd60e51b815260206004820152600e60248201526d696e76616c696420706172616d7360901b6044820152606401610453565b60005b82518160ff161015610976576000838260ff16815181106108aa576108aa612055565b60200260200101519050838260ff16815181106108c9576108c9612055565b6020908102919091018101516001600160a01b038716600081815260058452604080822060ff88168084529552902091909155855190917f8e26fb53d63c548677b068d08742bea435b6ecb7911ab3c5ad68fbccddeaf5fe9185918591899190811061093757610937612055565b6020908102919091018101516040805160ff90951685529184019290925282015260600160405180910390a2508061096e81612036565b915050610887565b50505050565b61098533610ed5565b8061098e575060015b6109aa5760405162461bcd60e51b815260040161045390611f91565b61097684848484611234565b6001600160a01b038116610a005760405162461bcd60e51b81526020600482015260116024820152701a5b9d985b1a5908199959481d985d5b1d607a1b6044820152606401610453565b600280546001600160a01b0319166001600160a01b0392909216919091179055565b600054610100900460ff1615808015610a425750600054600160ff909116105b80610a5c5750303b158015610a5c575060005460ff166001145b610abf5760405162461bcd60e51b815260206004820152602e60248201527f496e697469616c697a61626c653a20636f6e747261637420697320616c72656160448201526d191e481a5b9a5d1a585b1a5e995960921b6064820152608401610453565b6000805460ff191660011790558015610ae2576000805461ff0019166101001790555b6001600160a01b038416610b2a5760405162461bcd60e51b815260206004820152600f60248201526e696e76616c6964206164647265737360881b6044820152606401610453565b6001600160a01b038316610b745760405162461bcd60e51b81526020600482015260116024820152701a5b9d985b1a5908199959481d985d5b1d607a1b6044820152606401610453565b6001600160a01b038216610bbc5760405162461bcd60e51b815260206004820152600f60248201526e696e76616c69642066756e6446656560881b6044820152606401610453565b610bc584611379565b600480546001600160a01b038087166001600160a01b0319928316179092556002805486841690831617905560038054928516929091169190911790558015610976576000805461ff0019169055604051600181527f7f26b83ff96e1f2b6a682f133852f6798a09c465da95921460cefb38474024989060200160405180910390a150505050565b610c5633610ed5565b610c935760405162461bcd60e51b815260206004820152600e60248201526d1a5b9d985b1a59081b585c9ad95d60921b6044820152606401610453565b60035460405163c6f83ad160e01b81526001600160a01b03858116600483015260248201859052604482018490529091169063c6f83ad190606401600060405180830381600087803b158015610ce857600080fd5b505af1158015610cfc573d6000803e3d6000fd5b50505050505050565b600080826060015115610d1a57506000610d1e565b5060015b6000610d4284600001518560a0015160c001516001600160801b0316846005611380565b84516001600160a01b0316600090815260056020908152604080832060038452909152902054909150610d7d610d78828461206b565b611415565b95945050505050565b6003546001600160a01b0316610dd05760405162461bcd60e51b815260206004820152600f60248201526e696e76616c69642066756e6446656560881b6044820152606401610453565b600380546001600160a01b0319166001600160a01b0392909216919091179055565b600254604051636ce5768960e11b81526001600160a01b0385811660048301528481166024830152604482018490527f5d8e12c39142ff96d79d04d15d1ba1269e4fe57bb9d26f43523628b34ba108ec92169063d9caed1290606401600060405180830381600087803b158015610e6857600080fd5b505af1158015610e7c573d6000803e3d6000fd5b5050505050505050565b610e8f33610ed5565b80610e98575060015b610eb45760405162461bcd60e51b815260040161045390611f91565b610ec18383836000611234565b505050565b610ed26008600a612162565b81565b6004805460408051637616480b60e11b8152905160009384936001600160a01b03169263ec2c9016928183019286928290030181865afa158015610f1d573d6000803e3d6000fd5b505050506040513d6000823e601f3d908101601f19168201604052610f4591908101906121a8565b805190915060005b81811015610fe857828181518110610f6757610f67612055565b6020026020010151602001516001600160a01b0316856001600160a01b031603610fd657828181518110610f9d57610f9d612055565b60200260200101516060015180610d7d5750828181518110610fc157610fc1612055565b60200260200101516080015195945050505050565b80610fe08161231c565b915050610f4d565b506000949350505050565b60035460405163478c57cd60e11b81526001600160a01b038681166004830152602482018590526044820184905285151560648301526000921690638f18af9a90608401602060405180830381865afa158015611054573d6000803e3d6000fd5b505050506040513d601f19601f820116820180604052508101906110789190611fc8565b90505b949350505050565b60408051600c8082526101a0820190925260609160208201610180803683370190505084519091508382600260ff16815181106110c2576110c2612055565b602090810291909101015260a08501511580156110e3575061018085015115155b156110ee575061122d565b8460600151156111335760a085015161110c90829060005b86611380565b82600060ff168151811061112257611122612055565b6020026020010181815250506111c0565b60a08501516111459082906001611106565b82600160ff168151811061115b5761115b612055565b60200260200101818152505084610120015160ff166001036111c0576001600160a01b038116600090815260208481526040808320600480855292529091205483519091829185919081106111b2576111b2612055565b602002602001018181525050505b6101a085015160ff161561122b576001600160a01b038116600090815260208481526040808320600384529091529020546101a08601516112049060ff1682612335565b90508083600360ff168151811061121d5761121d612055565b602002602001018181525050505b505b9392505050565b604051636eb1769f60e11b81523360048201523060248201526000906001600160a01b0385169063dd62ed3e90604401602060405180830381865afa158015611281573d6000803e3d6000fd5b505050506040513d601f19601f820116820180604052508101906112a59190611fc8565b905080156112c9576002546112c9906001600160a01b038681169133911684611483565b81156113345760035460405163d6f5066b60e01b8152336004820152602481018490526001600160a01b039091169063d6f5066b90604401600060405180830381600087803b15801561131b57600080fd5b505af115801561132f573d6000803e3d6000fd5b505050505b336001600160a01b0316856001600160a01b03167f51b85031527a935663233d62a057687d039b9fbcd79c55e46a5b24510159336f858460405161058a929190611fe1565b4260015550565b6000836000036113925750600061107b565b6001600160a01b03851660009081526020838152604080832060ff87168452909152812054908190036113c55750620186a05b60006113d36008600a612162565b826113e06008600a612162565b6113ea919061234c565b6113f49088612335565b6113fe919061235f565b905061140a818761234c565b979650505050505050565b60006001600160ff1b0382111561147f5760405162461bcd60e51b815260206004820152602860248201527f53616665436173743a2076616c756520646f65736e27742066697420696e2061604482015267371034b73a191a9b60c11b6064820152608401610453565b5090565b604080516001600160a01b038581166024830152848116604483015260648083018590528351808403909101815260849092018352602080830180516001600160e01b03166323b872dd60e01b17905283518085019094528084527f5361666545524332303a206c6f772d6c6576656c2063616c6c206661696c6564908401526109769287929160009161151b91851690849061159b565b905080516000148061153c57508080602001905181019061153c9190612381565b610ec15760405162461bcd60e51b815260206004820152602a60248201527f5361666545524332303a204552433230206f7065726174696f6e20646964206e6044820152691bdd081cdd58d8d9595960b21b6064820152608401610453565b606061107b848460008585600080866001600160a01b031685876040516115c2919061239e565b60006040518083038185875af1925050503d80600081146115ff576040519150601f19603f3d011682016040523d82523d6000602084013e611604565b606091505b509150915061140a878383876060831561167f578251600003611678576001600160a01b0385163b6116785760405162461bcd60e51b815260206004820152601d60248201527f416464726573733a2063616c6c20746f206e6f6e2d636f6e74726163740000006044820152606401610453565b508161107b565b61107b83838151156116945781518083602001fd5b8060405162461bcd60e51b815260040161045391906123ba565b6001600160a01b03811681146103c957600080fd5b80356116ce816116ae565b919050565b6000602082840312156116e557600080fd5b813561122d816116ae565b634e487b7160e01b600052604160045260246000fd5b60405161018081016001600160401b0381118282101715611729576117296116f0565b60405290565b6040516101e081016001600160401b0381118282101715611729576117296116f0565b6040516101a081016001600160401b0381118282101715611729576117296116f0565b60405160e081016001600160401b0381118282101715611729576117296116f0565b60405160a081016001600160401b0381118282101715611729576117296116f0565b604051601f8201601f191681016001600160401b03811182821017156117e1576117e16116f0565b604052919050565b60006001600160401b03821115611802576118026116f0565b5060051b60200190565b600082601f83011261181d57600080fd5b8135602061183261182d836117e9565b6117b9565b82815260059290921b8401810191818101908684111561185157600080fd5b8286015b8481101561186c5780358352918301918301611855565b509695505050505050565b6000806000806080858703121561188d57600080fd5b8435611898816116ae565b935060208501356118a8816116ae565b925060408501356001600160401b038111156118c357600080fd5b6118cf8782880161180c565b949793965093946060013593505050565b80151581146103c957600080fd5b80356116ce816118e0565b6000806040838503121561190c57600080fd5b8235611917816116ae565b91506020830135611927816118e0565b809150509250929050565b6000806040838503121561194557600080fd5b823591506020830135611927816116ae565b803560ff811681146116ce57600080fd5b80356001600160401b03811681146116ce57600080fd5b803563ffffffff811681146116ce57600080fd5b80356001600160d81b03811681146116ce57600080fd5b600061018082840312156119bd57600080fd5b6119c5611706565b90506119d0826116c3565b81526119de602083016118ee565b60208201526119ef6040830161197f565b6040820152611a0060608301611993565b60608201526080820135608082015260a082013560a082015260c082013560c082015260e082013560e082015261010080830135818301525061012080830135818301525061014080830135818301525061016080830135818301525092915050565b6000806101a0808486031215611a7857600080fd5b83356001600160401b0380821115611a8f57600080fd5b908501906101e08288031215611aa457600080fd5b611aac61172f565b611ab5836116c3565b8152611ac3602084016118ee565b602082015260408301356040820152611ade606084016118ee565b6060820152611aef608084016116c3565b608082015260a083013560a082015260c083013560c082015260e083013560e0820152610100611b208185016118ee565b90820152610120611b32848201611957565b90820152610140611b44848201611968565b9082015261016083810135908201526101808084013590820152611b69848401611957565b848201526101c093508383013582811115611b8357600080fd5b611b8f8982860161180c565b858301525080955050505050611ba884602085016119aa565b90509250929050565b600081518084526020808501945080840160005b83811015611be157815187529582019590820190600101611bc5565b509495945050505050565b6020815260006106116020830184611bb1565b60008060408385031215611c1257600080fd5b8235611c1d816116ae565b9150611ba860208401611957565b60008060408385031215611c3e57600080fd5b8235611c49816116ae565b915060208301356001600160401b03811115611c6457600080fd5b611c708582860161180c565b9150509250929050565b600080600060608486031215611c8f57600080fd5b8335611c9a816116ae565b92506020840135611caa816116ae565b91506040840135611cba816116ae565b809150509250925092565b600080600060608486031215611cda57600080fd5b8335611ce5816116ae565b95602085013595506040909401359392505050565b803565ffffffffffff811681146116ce57600080fd5b80356001600160801b03811681146116ce57600080fd5b60006101a08284031215611d3a57600080fd5b611d42611752565b9050611d4d82611957565b8152611d5b6020830161197f565b6020820152611d6c60408301611957565b6040820152611d7d606083016116c3565b6060820152611d8e60808301611cfa565b6080820152611d9f60a08301611d10565b60a0820152611db060c08301611d10565b60c0820152611dc160e08301611d10565b60e0820152610100611dd4818401611d10565b90820152610120611de6838201611968565b90820152610140611df8838201611968565b90820152610160611e0a838201611d10565b818301525061018080830135818301525092915050565b600060208284031215611e3357600080fd5b81356001600160401b0380821115611e4a57600080fd5b908301906102608286031215611e5f57600080fd5b611e67611775565b611e70836116c3565b8152611e7e602084016118ee565b602082015260408301356040820152611e99606084016118ee565b6060820152611eaa608084016118ee565b6080820152611ebc8660a08501611d27565b60a082015261024083013582811115611ed457600080fd5b611ee08782860161180c565b60c08301525095945050505050565b600080600060608486031215611f0457600080fd5b8335611f0f816116ae565b92506020840135611f1f816116ae565b929592945050506040919091013590565b600080600060608486031215611f4557600080fd5b8335611f50816116ae565b92506020840135611f60816116ae565b915060408401356001600160401b03811115611f7b57600080fd5b611f878682870161180c565b9150509250925092565b60208082526018908201527f666565526f757465723a206163636573732064656e6965640000000000000000604082015260600190565b600060208284031215611fda57600080fd5b5051919050565b604081526000611ff46040830185611bb1565b90508260208301529392505050565b60006020828403121561201557600080fd5b815161122d816116ae565b634e487b7160e01b600052601160045260246000fd5b600060ff821660ff810361204c5761204c612020565b60010192915050565b634e487b7160e01b600052603260045260246000fd5b8082018082111561061457610614612020565b600181815b808511156120b957816000190482111561209f5761209f612020565b808516156120ac57918102915b93841c9390800290612083565b509250929050565b6000826120d057506001610614565b816120dd57506000610614565b81600181146120f357600281146120fd57612119565b6001915050610614565b60ff84111561210e5761210e612020565b50506001821b610614565b5060208310610133831016604e8410600b841016171561213c575081810a610614565b612146838361207e565b806000190482111561215a5761215a612020565b029392505050565b600061061183836120c1565b60005b83811015612189578181015183820152602001612171565b50506000910152565b80516116ce816116ae565b80516116ce816118e0565b600060208083850312156121bb57600080fd5b82516001600160401b03808211156121d257600080fd5b818501915085601f8301126121e657600080fd5b81516121f461182d826117e9565b81815260059190911b8301840190848101908883111561221357600080fd5b8585015b8381101561230f5780518581111561222e57600080fd5b8601601f1960a0828d03820112156122465760008081fd5b61224e611797565b89830151888111156122605760008081fd5b8301603f81018e136122725760008081fd5b8a81015160408a821115612288576122886116f0565b6122988d86601f850116016117b9565b94508185528f818385010111156122af5760008081fd5b6122be828e870183860161216e565b8484526122cc818701612192565b8d85015260609450848601518185015250505060806122ec81850161219d565b838301526122fc60a0850161219d565b9082015285525050918601918601612217565b5098975050505050505050565b60006001820161232e5761232e612020565b5060010190565b808202811582820484141761061457610614612020565b8181038181111561061457610614612020565b60008261237c57634e487b7160e01b600052601260045260246000fd5b500490565b60006020828403121561239357600080fd5b815161122d816118e0565b600082516123b081846020870161216e565b9190910192915050565b60208152600082518060208401526123d981604085016020870161216e565b601f01601f1916919091016040019291505056fea2646970667358221220725d89f86a811f46cfb4db3b3903d959b2d94c9fd11c569da3228074dd93ac6d64736f6c63430008110033",
  "linkReferences": {},
  "deployedLinkReferences": {}
}