{
  "_format": "hh-sol-artifact-1",
  "contractName": "AutoOrderMock",
  "sourceName": "contracts/am/AutoOrder.sol",
  "abi": [
    {
      "inputs": [
        {
          "internalType": "address",
          "name": "marketAddr",
          "type": "address"
        },
        {
          "internalType": "bool",
          "name": "isOpen",
          "type": "bool"
        },
        {
          "internalType": "bool",
          "name": "islong",
          "type": "bool"
        }
      ],
      "stateMutability": "nonpayable",
      "type": "constructor"
    },
    {
      "anonymous": false,
      "inputs": [
        {
          "indexed": true,
          "internalType": "address",
          "name": "previousOwner",
          "type": "address"
        },
        {
          "indexed": true,
          "internalType": "address",
          "name": "newOwner",
          "type": "address"
        }
      ],
      "name": "OwnershipTransferred",
      "type": "event"
    },
    {
      "inputs": [
        {
          "internalType": "uint256",
          "name": "lower",
          "type": "uint256"
        },
        {
          "internalType": "uint256",
          "name": "upper",
          "type": "uint256"
        }
      ],
      "name": "checkIndex",
      "outputs": [
        {
          "components": [
            {
              "internalType": "uint8",
              "name": "version",
              "type": "uint8"
            },
            {
              "internalType": "uint32",
              "name": "updatedAtBlock",
              "type": "uint32"
            },
            {
              "internalType": "uint8",
              "name": "triggerAbove",
              "type": "uint8"
            },
            {
              "internalType": "address",
              "name": "account",
              "type": "address"
            },
            {
              "internalType": "uint48",
              "name": "extra3",
              "type": "uint48"
            },
            {
              "internalType": "uint128",
              "name": "collateral",
              "type": "uint128"
            },
            {
              "internalType": "uint128",
              "name": "size",
              "type": "uint128"
            },
            {
              "internalType": "uint128",
              "name": "price",
              "type": "uint128"
            },
            {
              "internalType": "uint128",
              "name": "extra1",
              "type": "uint128"
            },
            {
              "internalType": "uint64",
              "name": "orderID",
              "type": "uint64"
            },
            {
              "internalType": "uint64",
              "name": "extra2",
              "type": "uint64"
            },
            {
              "internalType": "uint128",
              "name": "extra0",
              "type": "uint128"
            },
            {
              "internalType": "bytes32",
              "name": "refCode",
              "type": "bytes32"
            }
          ],
          "internalType": "struct Order.Props[]",
          "name": "ordersForReturn",
          "type": "tuple[]"
        }
      ],
      "stateMutability": "view",
      "type": "function"
    },
    {
      "inputs": [
        {
          "internalType": "bytes",
          "name": "checkData",
          "type": "bytes"
        }
      ],
      "name": "checkUpkeep",
      "outputs": [
        {
          "internalType": "bool",
          "name": "upkeepNeeded",
          "type": "bool"
        },
        {
          "internalType": "bytes",
          "name": "performData",
          "type": "bytes"
        }
      ],
      "stateMutability": "view",
      "type": "function"
    },
    {
      "inputs": [],
      "name": "indexToken",
      "outputs": [
        {
          "internalType": "address",
          "name": "",
          "type": "address"
        }
      ],
      "stateMutability": "view",
      "type": "function"
    },
    {
      "inputs": [],
      "name": "isIncrease",
      "outputs": [
        {
          "internalType": "bool",
          "name": "",
          "type": "bool"
        }
      ],
      "stateMutability": "view",
      "type": "function"
    },
    {
      "inputs": [],
      "name": "isLong",
      "outputs": [
        {
          "internalType": "bool",
          "name": "",
          "type": "bool"
        }
      ],
      "stateMutability": "view",
      "type": "function"
    },
    {
      "inputs": [],
      "name": "market",
      "outputs": [
        {
          "internalType": "address",
          "name": "",
          "type": "address"
        }
      ],
      "stateMutability": "view",
      "type": "function"
    },
    {
      "inputs": [],
      "name": "oracle",
      "outputs": [
        {
          "internalType": "address",
          "name": "",
          "type": "address"
        }
      ],
      "stateMutability": "view",
      "type": "function"
    },
    {
      "inputs": [],
      "name": "orderBook",
      "outputs": [
        {
          "internalType": "address",
          "name": "",
          "type": "address"
        }
      ],
      "stateMutability": "view",
      "type": "function"
    },
    {
      "inputs": [],
      "name": "orderLimit",
      "outputs": [
        {
          "internalType": "uint256",
          "name": "",
          "type": "uint256"
        }
      ],
      "stateMutability": "view",
      "type": "function"
    },
    {
      "inputs": [],
      "name": "owner",
      "outputs": [
        {
          "internalType": "address",
          "name": "",
          "type": "address"
        }
      ],
      "stateMutability": "view",
      "type": "function"
    },
    {
      "inputs": [
        {
          "internalType": "uint256",
          "name": "lower",
          "type": "uint256"
        },
        {
          "internalType": "uint256",
          "name": "upper",
          "type": "uint256"
        }
      ],
      "name": "performIndex",
      "outputs": [],
      "stateMutability": "nonpayable",
      "type": "function"
    },
    {
      "inputs": [
        {
          "internalType": "bytes",
          "name": "performData",
          "type": "bytes"
        }
      ],
      "name": "performUpkeep",
      "outputs": [],
      "stateMutability": "nonpayable",
      "type": "function"
    },
    {
      "inputs": [],
      "name": "renounceOwnership",
      "outputs": [],
      "stateMutability": "nonpayable",
      "type": "function"
    },
    {
      "inputs": [
        {
          "internalType": "uint256",
          "name": "limit",
          "type": "uint256"
        }
      ],
      "name": "setLimit",
      "outputs": [],
      "stateMutability": "nonpayable",
      "type": "function"
    },
    {
      "inputs": [
        {
          "internalType": "address",
          "name": "m",
          "type": "address"
        }
      ],
      "name": "setMarket",
      "outputs": [],
      "stateMutability": "nonpayable",
      "type": "function"
    },
    {
      "inputs": [
        {
          "internalType": "address",
          "name": "newOwner",
          "type": "address"
        }
      ],
      "name": "transferOwnership",
      "outputs": [],
      "stateMutability": "nonpayable",
      "type": "function"
    },
    {
      "inputs": [
        {
          "internalType": "address",
          "name": "token",
          "type": "address"
        },
        {
          "internalType": "address",
          "name": "to",
          "type": "address"
        },
        {
          "internalType": "uint256",
          "name": "amount",
          "type": "uint256"
        }
      ],
      "name": "withdraw",
      "outputs": [],
      "stateMutability": "nonpayable",
      "type": "function"
    }
  ],
  "bytecode": "0x6080604052600580553480156200001557600080fd5b50604051620024dd380380620024dd83398101604081905262000038916200039a565b82828282828262000049336200031b565b6001600160a01b038316620000955760405162461bcd60e51b815260206004820152600e60248201526d1a5b9d985b1a59081b585c9ad95d60921b604482015260640160405180910390fd5b600180546001600160a01b0319166001600160a01b0385169081179091556004805461ffff60a01b1916600160a01b8515150260ff60a81b191617600160a81b8415150217815560408051633a0df78d60e11b8152905163741bef1a928281019260209291908290030181865afa15801562000115573d6000803e3d6000fd5b505050506040513d601f19601f820116820180604052508101906200013b9190620003e6565b600480546001600160a01b0319166001600160a01b03928316178155600154604080516373e80af960e11b81529051919093169263e7d015f292818101926020929091908290030181865afa15801562000199573d6000803e3d6000fd5b505050506040513d601f19601f82011682018060405250810190620001bf9190620003e6565b600280546001600160a01b0319166001600160a01b0392909216919091179055600454600160a81b900460ff166200027157600160009054906101000a90046001600160a01b03166001600160a01b03166305ba9ae96040518163ffffffff1660e01b8152600401602060405180830381865afa15801562000245573d6000803e3d6000fd5b505050506040513d601f19601f820116820180604052508101906200026b9190620003e6565b620002eb565b600160009054906101000a90046001600160a01b03166001600160a01b0316637b2fd1e56040518163ffffffff1660e01b8152600401602060405180830381865afa158015620002c5573d6000803e3d6000fd5b505050506040513d601f19601f82011682018060405250810190620002eb9190620003e6565b600380546001600160a01b0319166001600160a01b0392909216919091179055506200040d975050505050505050565b600080546001600160a01b038381166001600160a01b0319831681178455604051919092169283917f8be0079c531659141344cd1fd0a4f28419497f9722a3daafe3b4186f6b6457e09190a35050565b6001600160a01b03811681146200038157600080fd5b50565b805180151581146200039557600080fd5b919050565b600080600060608486031215620003b057600080fd5b8351620003bd816200036b565b9250620003cd6020850162000384565b9150620003dd6040850162000384565b90509250925092565b600060208284031215620003f957600080fd5b815162000406816200036b565b9392505050565b6120c0806200041d6000396000f3fe608060405234801561001057600080fd5b506004361061010b5760003560e01c806375c303c9116100a25780638c8f7e57116100715780638c8f7e57146102385780638da5cb5b1461024c578063d9caed121461025d578063e7d015f214610270578063f2fde38b1461028357600080fd5b806375c303c9146101d0578063776af5ba146101e75780637dc0d1d01461021257806380f556051461022557600080fd5b80634585e33b116100de5780634585e33b146101815780636dcea85f146101945780636e04ff0d146101a7578063715018a6146101c857600080fd5b8063202a61a11461011057806327ea6f2b14610139578063289e4f671461014e5780633246b4a61461016e575b600080fd5b60045461012490600160a81b900460ff1681565b60405190151581526020015b60405180910390f35b61014c6101473660046117bf565b610296565b005b61016161015c3660046117d8565b6102e8565b604051610130919061191c565b61014c61017c3660046117d8565b61052a565b61014c61018f3660046119da565b61060f565b61014c6101a2366004611a83565b610634565b6101ba6101b53660046119da565b610881565b604051610130929190611af0565b61014c610931565b6101d960055481565b604051908152602001610130565b6003546101fa906001600160a01b031681565b6040516001600160a01b039091168152602001610130565b6004546101fa906001600160a01b031681565b6001546101fa906001600160a01b031681565b60045461012490600160a01b900460ff1681565b6000546001600160a01b03166101fa565b61014c61026b366004611b0b565b610945565b6002546101fa906001600160a01b031681565b61014c610291366004611a83565b610966565b61029e6109df565b600081116102e35760405162461bcd60e51b815260206004820152600d60248201526c1a5b9d985b1a59081b1a5b5a5d609a1b60448201526064015b60405180910390fd5b600555565b6003546004546060916000916001600160a01b03909116906314d102a99086908690600160a01b900460ff1661031c610a39565b6040516001600160e01b031960e087901b16815260048101949094526024840192909252151560448301526064820152608401600060405180830381865afa15801561036c573d6000803e3d6000fd5b505050506040513d6000823e601f3d908101601f191682016040526103949190810190611ce2565b90506000805b82518110156103ec576103c58382815181106103b8576103b8611d81565b6020026020010151610ad5565b15156000036103da576103d782611d97565b91505b806103e481611d97565b91505061039a565b50806001600160401b038111156104055761040561196b565b60405190808252806020026020018201604052801561049c57816020015b604080516101a08101825260008082526020808301829052928201819052606082018190526080820181905260a0820181905260c0820181905260e08201819052610100820181905261012082018190526101408201819052610160820181905261018082015282526000199092019101816104235790505b5092506000805b8351811015610520576104c18482815181106103b8576103b8611d81565b151560000361050e578381815181106104dc576104dc611d81565b60200260200101518583815181106104f6576104f6611d81565b60200260200101819052508161050b90611d97565b91505b8061051881611d97565b9150506104a3565b5050505092915050565b6003546004546000916001600160a01b0316906314d102a99085908590600160a01b900460ff16610559610a39565b6040516001600160e01b031960e087901b16815260048101949094526024840192909252151560448301526064820152608401600060405180830381865afa1580156105a9573d6000803e3d6000fd5b505050506040513d6000823e601f3d908101601f191682016040526105d19190810190611ce2565b905060005b8151811015610609576106018282815181106105f4576105f4611d81565b6020026020010151610e33565b6001016105d6565b50505050565b6000818060200190518101906106259190611dbe565b905061063081611080565b5050565b61063c6109df565b600180546001600160a01b0319166001600160a01b03831690811790915560408051633a0df78d60e11b8152905163741bef1a916004808201926020929091908290030181865afa158015610695573d6000803e3d6000fd5b505050506040513d601f19601f820116820180604052508101906106b99190611e43565b600480546001600160a01b0319166001600160a01b03928316178155600154604080516373e80af960e11b81529051919093169263e7d015f292818101926020929091908290030181865afa158015610716573d6000803e3d6000fd5b505050506040513d601f19601f8201168201806040525081019061073a9190611e43565b600280546001600160a01b0319166001600160a01b0392909216919091179055600454600160a81b900460ff166107e757600160009054906101000a90046001600160a01b03166001600160a01b03166305ba9ae96040518163ffffffff1660e01b8152600401602060405180830381865afa1580156107be573d6000803e3d6000fd5b505050506040513d601f19601f820116820180604052508101906107e29190611e43565b61085e565b600160009054906101000a90046001600160a01b03166001600160a01b0316637b2fd1e56040518163ffffffff1660e01b8152600401602060405180830381865afa15801561083a573d6000803e3d6000fd5b505050506040513d601f19601f8201168201806040525081019061085e9190611e43565b600380546001600160a01b0319166001600160a01b039290921691909117905550565b600060606000808480602001905181019061089c9190611e60565b915091508181116108e05760405162461bcd60e51b815260206004820152600e60248201526d696e76616c696420706172616d7360901b60448201526064016102da565b60006108ec8383611228565b905080516000036109035760009450505050915091565b806040516020016109149190611e84565b604051602081830303815290604052935060019450505050915091565b6109396109df565b6109436000611249565b565b61094d6109df565b6109616001600160a01b0384168383611299565b505050565b61096e6109df565b6001600160a01b0381166109d35760405162461bcd60e51b815260206004820152602660248201527f4f776e61626c653a206e6577206f776e657220697320746865207a65726f206160448201526564647265737360d01b60648201526084016102da565b6109dc81611249565b50565b6000546001600160a01b031633146109435760405162461bcd60e51b815260206004820181905260248201527f4f776e61626c653a2063616c6c6572206973206e6f7420746865206f776e657260448201526064016102da565b600480546002546040516303b6b4bb60e51b81526001600160a01b0391821693810193909352600160a01b820460ff9081161515600160a81b84049190911615151460248401526000929116906376d6976090604401602060405180830381865afa158015610aac573d6000803e3d6000fd5b505050506040513d601f19601f82011682018060405250810190610ad09190611ebc565b905090565b6001546040805163b894300d60e01b815290516000926001600160a01b0316918391839163b894300d9160048083019260209291908290030181865afa158015610b23573d6000803e3d6000fd5b505050506040513d601f19601f82011682018060405250810190610b479190611e43565b90506000816001600160a01b0316631f21756a8660600151600160009054906101000a90046001600160a01b0316600460159054906101000a900460ff16876001600160a01b031663ac0b05a66040518163ffffffff1660e01b8152600401602060405180830381865afa158015610bc3573d6000803e3d6000fd5b505050506040513d601f19601f82011682018060405250810190610be79190611e43565b886001600160a01b031663f29ebf616040518163ffffffff1660e01b8152600401602060405180830381865afa158015610c25573d6000803e3d6000fd5b505050506040513d601f19601f82011682018060405250810190610c499190611e43565b896001600160a01b031663741bef1a6040518163ffffffff1660e01b8152600401602060405180830381865afa158015610c87573d6000803e3d6000fd5b505050506040513d601f19601f82011682018060405250810190610cab9190611e43565b6001600160a01b03166376d697608b6001600160a01b031663e7d015f26040518163ffffffff1660e01b8152600401602060405180830381865afa158015610cf7573d6000803e3d6000fd5b505050506040513d601f19601f82011682018060405250810190610d1b9190611e43565b600480546040516001600160e01b031960e086901b1681526001600160a01b039093169183019190915260ff600160a81b90910416156024820152604401602060405180830381865afa158015610d76573d6000803e3d6000fd5b505050506040513d601f19601f82011682018060405250810190610d9a9190611ebc565b60405160e088901b6001600160e01b03191681526001600160a01b039687166004820152948616602486015292151560448501529084166064840152909216608482015260a481019190915260c401602060405180830381865afa158015610e06573d6000803e3d6000fd5b505050506040513d601f19601f82011682018060405250810190610e2a9190611ebc565b11949350505050565b604080516101e08101825260008082526020820181905291810182905260608082018390526080820183905260a0820183905260c0820183905260e08201839052610100820183905261012082018390526101408201839052610160820183905261018082018390526101a08201929092526101c0810191909152600454610ec6908290600160a01b900460ff166112eb565b600180546001600160a01b03908116835260045460ff600160a81b820481161515602086015260c0808701516001600160801b0390811660a08089019190915260e0890151821692880192909252610180808901516101608901526101008801969096526101208801516001600160401b03166101408801526060880151909416608087015286015190921692840192909252600160a01b9091041615610fde57610f86610f7f8361010001516001600160801b031690565b8290611319565b610fa5610f9e8361016001516001600160801b031690565b8290611342565b610fc0610fb9836101400151600f16151590565b829061135b565b610140820151610fd99060041c600f1615158290611385565b611018565b610ffd610ff6836080015165ffffffffffff16151590565b82906113af565b50608082015165ffffffffffff166110185760006101808201525b6001546040516304b789db60e21b81526001600160a01b03909116906312de276c9061104a9085908590600401611f10565b600060405180830381600087803b15801561106457600080fd5b505af1158015611078573d6000803e3d6000fd5b505050505050565b6003546004546001600160a01b0390911690600090600160a01b900460ff1661110a57816001600160a01b0316636d0785666040518163ffffffff1660e01b8152600401602060405180830381865afa1580156110e1573d6000803e3d6000fd5b505050506040513d601f19601f820116820180604052508101906111059190611e43565b61116c565b816001600160a01b0316637e1dcaf76040518163ffffffff1660e01b8152600401602060405180830381865afa158015611148573d6000803e3d6000fd5b505050506040513d601f19601f8201168201806040525081019061116c9190611e43565b835190915060005b8181101561122157600085828151811061119057611190611d81565b602002602001015190506000846001600160a01b0316639c3f1e90836040518263ffffffff1660e01b81526004016111ca91815260200190565b6101a060405180830381865afa1580156111e8573d6000803e3d6000fd5b505050506040513d601f19601f8201168201806040525081019061120c919061201c565b905061121781610e33565b5050600101611174565b5050505050565b60606000611234610a39565b90506112418484836113ee565b949350505050565b600080546001600160a01b038381166001600160a01b0319831681178455604051919092169283917f8be0079c531659141344cd1fd0a4f28419497f9722a3daafe3b4186f6b6457e09190a35050565b604080516001600160a01b038416602482015260448082018490528251808303909101815260649091019091526020810180516001600160e01b031663a9059cbb60e01b179052610961908490611562565b60408051600480825260a0820190925290602082016080803683375050506101c08301521515606090910152565b80826101c0015160008151811061133257611332611d81565b6020026020010181815250505050565b80826101c0015160018151811061133257611332611d81565b8061136757600061136a565b60015b60ff16826101c0015160028151811061133257611332611d81565b80611391576000611394565b60015b60ff16826101c0015160038151811061133257611332611d81565b6000816113bd5760006113c0565b60015b60ff16836101c001516000815181106113db576113db611d81565b6020026020010181815250905092915050565b600354600480546040516314d102a960e01b815291820186905260248201859052600160a01b900460ff1615156044820152606481018390526060916000916001600160a01b03909116906314d102a990608401600060405180830381865afa15801561145f573d6000803e3d6000fd5b505050506040513d6000823e601f3d908101601f191682016040526114879190810190611ce2565b90508051600003611498575061155b565b60006005548251116114ab5781516114af565b6005545b9050806001600160401b038111156114c9576114c961196b565b6040519080825280602002602001820160405280156114f2578160200160208202803683370190505b50925060005b8181101561155757600083828151811061151457611514611d81565b6020026020010151905061152781611637565b85838151811061153957611539611d81565b6020908102919091010152508061154f81611d97565b9150506114f8565b5050505b9392505050565b60006115b7826040518060400160405280602081526020017f5361666545524332303a206c6f772d6c6576656c2063616c6c206661696c6564815250856001600160a01b031661169c9092919063ffffffff16565b90508051600014806115d85750808060200190518101906115d89190612039565b6109615760405162461bcd60e51b815260206004820152602a60248201527f5361666545524332303a204552433230206f7065726174696f6e20646964206e6044820152691bdd081cdd58d8d9595960b21b60648201526084016102da565b6000816060015182610120015160405160200161167f92919060609290921b6bffffffffffffffffffffffff1916825260c01b6001600160c01b0319166014820152601c0190565b604051602081830303815290604052805190602001209050919050565b6060611241848460008585600080866001600160a01b031685876040516116c3919061205b565b60006040518083038185875af1925050503d8060008114611700576040519150601f19603f3d011682016040523d82523d6000602084013e611705565b606091505b509150915061171687838387611721565b979650505050505050565b60608315611790578251600003611789576001600160a01b0385163b6117895760405162461bcd60e51b815260206004820152601d60248201527f416464726573733a2063616c6c20746f206e6f6e2d636f6e747261637400000060448201526064016102da565b5081611241565b61124183838151156117a55781518083602001fd5b8060405162461bcd60e51b81526004016102da9190612077565b6000602082840312156117d157600080fd5b5035919050565b600080604083850312156117eb57600080fd5b50508035926020909101359150565b805160ff1682526020810151611818602084018263ffffffff169052565b50604081015161182d604084018260ff169052565b50606081015161184860608401826001600160a01b03169052565b506080810151611862608084018265ffffffffffff169052565b5060a081015161187d60a08401826001600160801b03169052565b5060c081015161189860c08401826001600160801b03169052565b5060e08101516118b360e08401826001600160801b03169052565b50610100818101516001600160801b038116848301525050610120818101516001600160401b038116848301525050610140818101516001600160401b038116848301525050610160818101516001600160801b03811684830152505061018090810151910152565b6020808252825182820181905260009190848201906040850190845b8181101561195f5761194b8385516117fa565b928401926101a09290920191600101611938565b50909695505050505050565b634e487b7160e01b600052604160045260246000fd5b6040516101a081016001600160401b03811182821017156119a4576119a461196b565b60405290565b604051601f8201601f191681016001600160401b03811182821017156119d2576119d261196b565b604052919050565b600060208083850312156119ed57600080fd5b82356001600160401b0380821115611a0457600080fd5b818501915085601f830112611a1857600080fd5b813581811115611a2a57611a2a61196b565b611a3c601f8201601f191685016119aa565b91508082528684828501011115611a5257600080fd5b8084840185840137600090820190930192909252509392505050565b6001600160a01b03811681146109dc57600080fd5b600060208284031215611a9557600080fd5b813561155b81611a6e565b60005b83811015611abb578181015183820152602001611aa3565b50506000910152565b60008151808452611adc816020860160208601611aa0565b601f01601f19169290920160200192915050565b82151581526040602082015260006112416040830184611ac4565b600080600060608486031215611b2057600080fd5b8335611b2b81611a6e565b92506020840135611b3b81611a6e565b929592945050506040919091013590565b60006001600160401b03821115611b6557611b6561196b565b5060051b60200190565b805160ff81168114611b8057600080fd5b919050565b805163ffffffff81168114611b8057600080fd5b8051611b8081611a6e565b805165ffffffffffff81168114611b8057600080fd5b80516001600160801b0381168114611b8057600080fd5b80516001600160401b0381168114611b8057600080fd5b60006101a08284031215611bfb57600080fd5b611c03611981565b9050611c0e82611b6f565b8152611c1c60208301611b85565b6020820152611c2d60408301611b6f565b6040820152611c3e60608301611b99565b6060820152611c4f60808301611ba4565b6080820152611c6060a08301611bba565b60a0820152611c7160c08301611bba565b60c0820152611c8260e08301611bba565b60e0820152610100611c95818401611bba565b90820152610120611ca7838201611bd1565b90820152610140611cb9838201611bd1565b90820152610160611ccb838201611bba565b818301525061018080830151818301525092915050565b60006020808385031215611cf557600080fd5b82516001600160401b03811115611d0b57600080fd5b8301601f81018513611d1c57600080fd5b8051611d2f611d2a82611b4c565b6119aa565b8181526101a09182028301840191848201919088841115611d4f57600080fd5b938501935b83851015611d7557611d668986611be8565b83529384019391850191611d54565b50979650505050505050565b634e487b7160e01b600052603260045260246000fd5b600060018201611db757634e487b7160e01b600052601160045260246000fd5b5060010190565b60006020808385031215611dd157600080fd5b82516001600160401b03811115611de757600080fd5b8301601f81018513611df857600080fd5b8051611e06611d2a82611b4c565b81815260059190911b82018301908381019087831115611e2557600080fd5b928401925b8284101561171657835182529284019290840190611e2a565b600060208284031215611e5557600080fd5b815161155b81611a6e565b60008060408385031215611e7357600080fd5b505080516020909101519092909150565b6020808252825182820181905260009190848201906040850190845b8181101561195f57835183529284019291840191600101611ea0565b600060208284031215611ece57600080fd5b5051919050565b600081518084526020808501945080840160005b83811015611f0557815187529582019590820190600101611ee9565b509495945050505050565b60006101c0611f1f83866117fa565b6101a08181850152611f3c82850186516001600160a01b03169052565b60208501516101e0611f518187018315159052565b60408701516102008701526060870151151561022087015260808701516001600160a01b031661024087015260a087015161026087015260c087015161028087015260e08701516102a087015261010087015115156102c087015261012087015160ff9081166102e08801526101408801516001600160401b03166103008801526101608801516103208801526101808801516103408801529287015190921661036086015250908401516103808401919091526120136103a0840182611ed5565b95945050505050565b60006101a0828403121561202f57600080fd5b61155b8383611be8565b60006020828403121561204b57600080fd5b8151801515811461155b57600080fd5b6000825161206d818460208701611aa0565b9190910192915050565b60208152600061155b6020830184611ac456fea26469706673582212205efa63dd39b2df6a0ca0a6d001903670ca8fe786dcc967150d6700771bee754964736f6c63430008110033",
  "linkReferences": {},
  "deployedLinkReferences": {}
}