{
  "_format": "hh-sol-artifact-1",
  "contractName": "AutoOrderMock",
  "sourceName": "contracts/am/AutoOrder.sol",
  "abi": [
    {
      "inputs": [
        {
          "internalType": "address",
          "name": "marketAddr",
          "type": "address"
        },
        {
          "internalType": "bool",
          "name": "isOpen",
          "type": "bool"
        },
        {
          "internalType": "bool",
          "name": "islong",
          "type": "bool"
        }
      ],
      "stateMutability": "nonpayable",
      "type": "constructor"
    },
    {
      "anonymous": false,
      "inputs": [
        {
          "indexed": true,
          "internalType": "address",
          "name": "previousOwner",
          "type": "address"
        },
        {
          "indexed": true,
          "internalType": "address",
          "name": "newOwner",
          "type": "address"
        }
      ],
      "name": "OwnershipTransferred",
      "type": "event"
    },
    {
      "inputs": [
        {
          "internalType": "uint256",
          "name": "lower",
          "type": "uint256"
        },
        {
          "internalType": "uint256",
          "name": "upper",
          "type": "uint256"
        }
      ],
      "name": "checkIndex",
      "outputs": [
        {
          "components": [
            {
              "internalType": "uint8",
              "name": "version",
              "type": "uint8"
            },
            {
              "internalType": "uint32",
              "name": "updatedAtBlock",
              "type": "uint32"
            },
            {
              "internalType": "uint8",
              "name": "triggerAbove",
              "type": "uint8"
            },
            {
              "internalType": "address",
              "name": "account",
              "type": "address"
            },
            {
              "internalType": "uint48",
              "name": "extra3",
              "type": "uint48"
            },
            {
              "internalType": "uint128",
              "name": "collateral",
              "type": "uint128"
            },
            {
              "internalType": "uint128",
              "name": "size",
              "type": "uint128"
            },
            {
              "internalType": "uint128",
              "name": "price",
              "type": "uint128"
            },
            {
              "internalType": "uint128",
              "name": "extra1",
              "type": "uint128"
            },
            {
              "internalType": "uint64",
              "name": "orderID",
              "type": "uint64"
            },
            {
              "internalType": "uint64",
              "name": "extra2",
              "type": "uint64"
            },
            {
              "internalType": "uint128",
              "name": "extra0",
              "type": "uint128"
            },
            {
              "internalType": "bytes32",
              "name": "refCode",
              "type": "bytes32"
            }
          ],
          "internalType": "struct Order.Props[]",
          "name": "ordersForReturn",
          "type": "tuple[]"
        }
      ],
      "stateMutability": "view",
      "type": "function"
    },
    {
      "inputs": [
        {
          "internalType": "bytes",
          "name": "checkData",
          "type": "bytes"
        }
      ],
      "name": "checkUpkeep",
      "outputs": [
        {
          "internalType": "bool",
          "name": "upkeepNeeded",
          "type": "bool"
        },
        {
          "internalType": "bytes",
          "name": "performData",
          "type": "bytes"
        }
      ],
      "stateMutability": "view",
      "type": "function"
    },
    {
      "inputs": [],
      "name": "indexToken",
      "outputs": [
        {
          "internalType": "address",
          "name": "",
          "type": "address"
        }
      ],
      "stateMutability": "view",
      "type": "function"
    },
    {
      "inputs": [],
      "name": "isIncrease",
      "outputs": [
        {
          "internalType": "bool",
          "name": "",
          "type": "bool"
        }
      ],
      "stateMutability": "view",
      "type": "function"
    },
    {
      "inputs": [],
      "name": "isLong",
      "outputs": [
        {
          "internalType": "bool",
          "name": "",
          "type": "bool"
        }
      ],
      "stateMutability": "view",
      "type": "function"
    },
    {
      "inputs": [],
      "name": "market",
      "outputs": [
        {
          "internalType": "address",
          "name": "",
          "type": "address"
        }
      ],
      "stateMutability": "view",
      "type": "function"
    },
    {
      "inputs": [],
      "name": "oracle",
      "outputs": [
        {
          "internalType": "address",
          "name": "",
          "type": "address"
        }
      ],
      "stateMutability": "view",
      "type": "function"
    },
    {
      "inputs": [],
      "name": "orderBook",
      "outputs": [
        {
          "internalType": "address",
          "name": "",
          "type": "address"
        }
      ],
      "stateMutability": "view",
      "type": "function"
    },
    {
      "inputs": [],
      "name": "orderLimit",
      "outputs": [
        {
          "internalType": "uint256",
          "name": "",
          "type": "uint256"
        }
      ],
      "stateMutability": "view",
      "type": "function"
    },
    {
      "inputs": [],
      "name": "owner",
      "outputs": [
        {
          "internalType": "address",
          "name": "",
          "type": "address"
        }
      ],
      "stateMutability": "view",
      "type": "function"
    },
    {
      "inputs": [
        {
          "internalType": "uint256",
          "name": "lower",
          "type": "uint256"
        },
        {
          "internalType": "uint256",
          "name": "upper",
          "type": "uint256"
        }
      ],
      "name": "performIndex",
      "outputs": [],
      "stateMutability": "nonpayable",
      "type": "function"
    },
    {
      "inputs": [
        {
          "internalType": "bytes",
          "name": "performData",
          "type": "bytes"
        }
      ],
      "name": "performUpkeep",
      "outputs": [],
      "stateMutability": "nonpayable",
      "type": "function"
    },
    {
      "inputs": [],
      "name": "renounceOwnership",
      "outputs": [],
      "stateMutability": "nonpayable",
      "type": "function"
    },
    {
      "inputs": [
        {
          "internalType": "uint256",
          "name": "limit",
          "type": "uint256"
        }
      ],
      "name": "setLimit",
      "outputs": [],
      "stateMutability": "nonpayable",
      "type": "function"
    },
    {
      "inputs": [
        {
          "internalType": "address",
          "name": "m",
          "type": "address"
        }
      ],
      "name": "setMarket",
      "outputs": [],
      "stateMutability": "nonpayable",
      "type": "function"
    },
    {
      "inputs": [
        {
          "internalType": "address",
          "name": "newOwner",
          "type": "address"
        }
      ],
      "name": "transferOwnership",
      "outputs": [],
      "stateMutability": "nonpayable",
      "type": "function"
    },
    {
      "inputs": [
        {
          "internalType": "address",
          "name": "token",
          "type": "address"
        },
        {
          "internalType": "address",
          "name": "to",
          "type": "address"
        },
        {
          "internalType": "uint256",
          "name": "amount",
          "type": "uint256"
        }
      ],
      "name": "withdraw",
      "outputs": [],
      "stateMutability": "nonpayable",
      "type": "function"
    }
  ],
  "bytecode": "0x6080604052600580553480156200001557600080fd5b50604051620024383803806200243883398101604081905262000038916200039a565b82828282828262000049336200031b565b6001600160a01b038316620000955760405162461bcd60e51b815260206004820152600e60248201526d1a5b9d985b1a59081b585c9ad95d60921b604482015260640160405180910390fd5b600180546001600160a01b0319166001600160a01b0385169081179091556004805461ffff60a01b1916600160a01b8515150260ff60a81b191617600160a81b8415150217815560408051633a0df78d60e11b8152905163741bef1a928281019260209291908290030181865afa15801562000115573d6000803e3d6000fd5b505050506040513d601f19601f820116820180604052508101906200013b9190620003e6565b600480546001600160a01b0319166001600160a01b03928316178155600154604080516373e80af960e11b81529051919093169263e7d015f292818101926020929091908290030181865afa15801562000199573d6000803e3d6000fd5b505050506040513d601f19601f82011682018060405250810190620001bf9190620003e6565b600280546001600160a01b0319166001600160a01b0392909216919091179055600454600160a81b900460ff166200027157600160009054906101000a90046001600160a01b03166001600160a01b03166305ba9ae96040518163ffffffff1660e01b8152600401602060405180830381865afa15801562000245573d6000803e3d6000fd5b505050506040513d601f19601f820116820180604052508101906200026b9190620003e6565b620002eb565b600160009054906101000a90046001600160a01b03166001600160a01b0316637b2fd1e56040518163ffffffff1660e01b8152600401602060405180830381865afa158015620002c5573d6000803e3d6000fd5b505050506040513d601f19601f82011682018060405250810190620002eb9190620003e6565b600380546001600160a01b0319166001600160a01b0392909216919091179055506200040d975050505050505050565b600080546001600160a01b038381166001600160a01b0319831681178455604051919092169283917f8be0079c531659141344cd1fd0a4f28419497f9722a3daafe3b4186f6b6457e09190a35050565b6001600160a01b03811681146200038157600080fd5b50565b805180151581146200039557600080fd5b919050565b600080600060608486031215620003b057600080fd5b8351620003bd816200036b565b9250620003cd6020850162000384565b9150620003dd6040850162000384565b90509250925092565b600060208284031215620003f957600080fd5b815162000406816200036b565b9392505050565b61201b806200041d6000396000f3fe608060405234801561001057600080fd5b506004361061010b5760003560e01c806375c303c9116100a25780638c8f7e57116100715780638c8f7e57146102385780638da5cb5b1461024c578063d9caed121461025d578063e7d015f214610270578063f2fde38b1461028357600080fd5b806375c303c9146101d0578063776af5ba146101e75780637dc0d1d01461021257806380f556051461022557600080fd5b80634585e33b116100de5780634585e33b146101815780636dcea85f146101945780636e04ff0d146101a7578063715018a6146101c857600080fd5b8063202a61a11461011057806327ea6f2b14610139578063289e4f671461014e5780633246b4a61461016e575b600080fd5b60045461012490600160a81b900460ff1681565b60405190151581526020015b60405180910390f35b61014c61014736600461171a565b610296565b005b61016161015c366004611733565b6102e8565b6040516101309190611877565b61014c61017c366004611733565b61052a565b61014c61018f366004611935565b61060f565b61014c6101a23660046119de565b610634565b6101ba6101b5366004611935565b610881565b604051610130929190611a4b565b61014c610931565b6101d960055481565b604051908152602001610130565b6003546101fa906001600160a01b031681565b6040516001600160a01b039091168152602001610130565b6004546101fa906001600160a01b031681565b6001546101fa906001600160a01b031681565b60045461012490600160a01b900460ff1681565b6000546001600160a01b03166101fa565b61014c61026b366004611a66565b610945565b6002546101fa906001600160a01b031681565b61014c6102913660046119de565b610966565b61029e6109df565b600081116102e35760405162461bcd60e51b815260206004820152600d60248201526c1a5b9d985b1a59081b1a5b5a5d609a1b60448201526064015b60405180910390fd5b600555565b6003546004546060916000916001600160a01b03909116906314d102a99086908690600160a01b900460ff1661031c610a39565b6040516001600160e01b031960e087901b16815260048101949094526024840192909252151560448301526064820152608401600060405180830381865afa15801561036c573d6000803e3d6000fd5b505050506040513d6000823e601f3d908101601f191682016040526103949190810190611c3d565b90506000805b82518110156103ec576103c58382815181106103b8576103b8611cdc565b6020026020010151610ad5565b15156000036103da576103d782611cf2565b91505b806103e481611cf2565b91505061039a565b50806001600160401b03811115610405576104056118c6565b60405190808252806020026020018201604052801561049c57816020015b604080516101a08101825260008082526020808301829052928201819052606082018190526080820181905260a0820181905260c0820181905260e08201819052610100820181905261012082018190526101408201819052610160820181905261018082015282526000199092019101816104235790505b5092506000805b8351811015610520576104c18482815181106103b8576103b8611cdc565b151560000361050e578381815181106104dc576104dc611cdc565b60200260200101518583815181106104f6576104f6611cdc565b60200260200101819052508161050b90611cf2565b91505b8061051881611cf2565b9150506104a3565b5050505092915050565b6003546004546000916001600160a01b0316906314d102a99085908590600160a01b900460ff16610559610a39565b6040516001600160e01b031960e087901b16815260048101949094526024840192909252151560448301526064820152608401600060405180830381865afa1580156105a9573d6000803e3d6000fd5b505050506040513d6000823e601f3d908101601f191682016040526105d19190810190611c3d565b905060005b8151811015610609576106018282815181106105f4576105f4611cdc565b6020026020010151610e33565b6001016105d6565b50505050565b6000818060200190518101906106259190611d19565b905061063081611033565b5050565b61063c6109df565b600180546001600160a01b0319166001600160a01b03831690811790915560408051633a0df78d60e11b8152905163741bef1a916004808201926020929091908290030181865afa158015610695573d6000803e3d6000fd5b505050506040513d601f19601f820116820180604052508101906106b99190611d9e565b600480546001600160a01b0319166001600160a01b03928316178155600154604080516373e80af960e11b81529051919093169263e7d015f292818101926020929091908290030181865afa158015610716573d6000803e3d6000fd5b505050506040513d601f19601f8201168201806040525081019061073a9190611d9e565b600280546001600160a01b0319166001600160a01b0392909216919091179055600454600160a81b900460ff166107e757600160009054906101000a90046001600160a01b03166001600160a01b03166305ba9ae96040518163ffffffff1660e01b8152600401602060405180830381865afa1580156107be573d6000803e3d6000fd5b505050506040513d601f19601f820116820180604052508101906107e29190611d9e565b61085e565b600160009054906101000a90046001600160a01b03166001600160a01b0316637b2fd1e56040518163ffffffff1660e01b8152600401602060405180830381865afa15801561083a573d6000803e3d6000fd5b505050506040513d601f19601f8201168201806040525081019061085e9190611d9e565b600380546001600160a01b0319166001600160a01b039290921691909117905550565b600060606000808480602001905181019061089c9190611dbb565b915091508181116108e05760405162461bcd60e51b815260206004820152600e60248201526d696e76616c696420706172616d7360901b60448201526064016102da565b60006108ec83836111db565b905080516000036109035760009450505050915091565b806040516020016109149190611ddf565b604051602081830303815290604052935060019450505050915091565b6109396109df565b61094360006111fc565b565b61094d6109df565b6109616001600160a01b038416838361124c565b505050565b61096e6109df565b6001600160a01b0381166109d35760405162461bcd60e51b815260206004820152602660248201527f4f776e61626c653a206e6577206f776e657220697320746865207a65726f206160448201526564647265737360d01b60648201526084016102da565b6109dc816111fc565b50565b6000546001600160a01b031633146109435760405162461bcd60e51b815260206004820181905260248201527f4f776e61626c653a2063616c6c6572206973206e6f7420746865206f776e657260448201526064016102da565b600480546002546040516303b6b4bb60e51b81526001600160a01b0391821693810193909352600160a01b820460ff9081161515600160a81b84049190911615151460248401526000929116906376d6976090604401602060405180830381865afa158015610aac573d6000803e3d6000fd5b505050506040513d601f19601f82011682018060405250810190610ad09190611e17565b905090565b6001546040805163b894300d60e01b815290516000926001600160a01b0316918391839163b894300d9160048083019260209291908290030181865afa158015610b23573d6000803e3d6000fd5b505050506040513d601f19601f82011682018060405250810190610b479190611d9e565b90506000816001600160a01b0316631f21756a8660600151600160009054906101000a90046001600160a01b0316600460159054906101000a900460ff16876001600160a01b031663ac0b05a66040518163ffffffff1660e01b8152600401602060405180830381865afa158015610bc3573d6000803e3d6000fd5b505050506040513d601f19601f82011682018060405250810190610be79190611d9e565b886001600160a01b031663f29ebf616040518163ffffffff1660e01b8152600401602060405180830381865afa158015610c25573d6000803e3d6000fd5b505050506040513d601f19601f82011682018060405250810190610c499190611d9e565b896001600160a01b031663741bef1a6040518163ffffffff1660e01b8152600401602060405180830381865afa158015610c87573d6000803e3d6000fd5b505050506040513d601f19601f82011682018060405250810190610cab9190611d9e565b6001600160a01b03166376d697608b6001600160a01b031663e7d015f26040518163ffffffff1660e01b8152600401602060405180830381865afa158015610cf7573d6000803e3d6000fd5b505050506040513d601f19601f82011682018060405250810190610d1b9190611d9e565b600480546040516001600160e01b031960e086901b1681526001600160a01b039093169183019190915260ff600160a81b90910416156024820152604401602060405180830381865afa158015610d76573d6000803e3d6000fd5b505050506040513d601f19601f82011682018060405250810190610d9a9190611e17565b60405160e088901b6001600160e01b03191681526001600160a01b039687166004820152948616602486015292151560448501529084166064840152909216608482015260a481019190915260c401602060405180830381865afa158015610e06573d6000803e3d6000fd5b505050506040513d601f19601f82011682018060405250810190610e2a9190611e17565b11949350505050565b604080516101e08101825260008082526020820181905291810182905260608082018390526080820183905260a0820183905260c0820183905260e08201839052610100820183905261012082018390526101408201839052610160820183905261018082018390526101a08201929092526101c0810191909152600454610ec6908290600160a01b900460ff1661129e565b600180546001600160a01b03908116835260045460ff600160a81b820481161515602086015260c0808701516001600160801b0390811660a08089019190915260e0890151821692880192909252610180808901516101608901526101008801969096526101208801516001600160401b03166101408801526060880151909416608087015286015190921692840192909252600160a01b9091041615610faa57610f86610f7f8361010001516001600160801b031690565b82906112cb565b610fa5610f9e8361016001516001600160801b031690565b82906112f4565b610fcb565b610fc9610fc2836080015165ffffffffffff16151590565b829061130d565b505b6001546040516304b789db60e21b81526001600160a01b03909116906312de276c90610ffd9085908590600401611e6b565b600060405180830381600087803b15801561101757600080fd5b505af115801561102b573d6000803e3d6000fd5b505050505050565b6003546004546001600160a01b0390911690600090600160a01b900460ff166110bd57816001600160a01b0316636d0785666040518163ffffffff1660e01b8152600401602060405180830381865afa158015611094573d6000803e3d6000fd5b505050506040513d601f19601f820116820180604052508101906110b89190611d9e565b61111f565b816001600160a01b0316637e1dcaf76040518163ffffffff1660e01b8152600401602060405180830381865afa1580156110fb573d6000803e3d6000fd5b505050506040513d601f19601f8201168201806040525081019061111f9190611d9e565b835190915060005b818110156111d457600085828151811061114357611143611cdc565b602002602001015190506000846001600160a01b0316639c3f1e90836040518263ffffffff1660e01b815260040161117d91815260200190565b6101a060405180830381865afa15801561119b573d6000803e3d6000fd5b505050506040513d601f19601f820116820180604052508101906111bf9190611f77565b90506111ca81610e33565b5050600101611127565b5050505050565b606060006111e7610a39565b90506111f484848361134c565b949350505050565b600080546001600160a01b038381166001600160a01b0319831681178455604051919092169283917f8be0079c531659141344cd1fd0a4f28419497f9722a3daafe3b4186f6b6457e09190a35050565b604080516001600160a01b038416602482015260448082018490528251808303909101815260649091019091526020810180516001600160e01b031663a9059cbb60e01b1790526109619084906114c0565b60408051600280825260608201835290916020830190803683375050506101c08301521515606090910152565b80826101c001516000815181106112e4576112e4611cdc565b6020026020010181815250505050565b80826101c001516001815181106112e4576112e4611cdc565b60008161131b57600061131e565b60015b60ff16836101c0015160008151811061133957611339611cdc565b6020026020010181815250905092915050565b600354600480546040516314d102a960e01b815291820186905260248201859052600160a01b900460ff1615156044820152606481018390526060916000916001600160a01b03909116906314d102a990608401600060405180830381865afa1580156113bd573d6000803e3d6000fd5b505050506040513d6000823e601f3d908101601f191682016040526113e59190810190611c3d565b905080516000036113f657506114b9565b600060055482511161140957815161140d565b6005545b9050806001600160401b03811115611427576114276118c6565b604051908082528060200260200182016040528015611450578160200160208202803683370190505b50925060005b818110156114b557600083828151811061147257611472611cdc565b6020026020010151905061148581611592565b85838151811061149757611497611cdc565b602090810291909101015250806114ad81611cf2565b915050611456565b5050505b9392505050565b6000611515826040518060400160405280602081526020017f5361666545524332303a206c6f772d6c6576656c2063616c6c206661696c6564815250856001600160a01b03166115f79092919063ffffffff16565b80519091501561096157808060200190518101906115339190611f94565b6109615760405162461bcd60e51b815260206004820152602a60248201527f5361666545524332303a204552433230206f7065726174696f6e20646964206e6044820152691bdd081cdd58d8d9595960b21b60648201526084016102da565b600081606001518261012001516040516020016115da92919060609290921b6bffffffffffffffffffffffff1916825260c01b6001600160c01b0319166014820152601c0190565b604051602081830303815290604052805190602001209050919050565b60606111f4848460008585600080866001600160a01b0316858760405161161e9190611fb6565b60006040518083038185875af1925050503d806000811461165b576040519150601f19603f3d011682016040523d82523d6000602084013e611660565b606091505b50915091506116718783838761167c565b979650505050505050565b606083156116eb5782516000036116e4576001600160a01b0385163b6116e45760405162461bcd60e51b815260206004820152601d60248201527f416464726573733a2063616c6c20746f206e6f6e2d636f6e747261637400000060448201526064016102da565b50816111f4565b6111f483838151156117005781518083602001fd5b8060405162461bcd60e51b81526004016102da9190611fd2565b60006020828403121561172c57600080fd5b5035919050565b6000806040838503121561174657600080fd5b50508035926020909101359150565b805160ff1682526020810151611773602084018263ffffffff169052565b506040810151611788604084018260ff169052565b5060608101516117a360608401826001600160a01b03169052565b5060808101516117bd608084018265ffffffffffff169052565b5060a08101516117d860a08401826001600160801b03169052565b5060c08101516117f360c08401826001600160801b03169052565b5060e081015161180e60e08401826001600160801b03169052565b50610100818101516001600160801b038116848301525050610120818101516001600160401b038116848301525050610140818101516001600160401b038116848301525050610160818101516001600160801b03811684830152505061018090810151910152565b6020808252825182820181905260009190848201906040850190845b818110156118ba576118a6838551611755565b928401926101a09290920191600101611893565b50909695505050505050565b634e487b7160e01b600052604160045260246000fd5b6040516101a081016001600160401b03811182821017156118ff576118ff6118c6565b60405290565b604051601f8201601f191681016001600160401b038111828210171561192d5761192d6118c6565b604052919050565b6000602080838503121561194857600080fd5b82356001600160401b038082111561195f57600080fd5b818501915085601f83011261197357600080fd5b813581811115611985576119856118c6565b611997601f8201601f19168501611905565b915080825286848285010111156119ad57600080fd5b8084840185840137600090820190930192909252509392505050565b6001600160a01b03811681146109dc57600080fd5b6000602082840312156119f057600080fd5b81356114b9816119c9565b60005b83811015611a165781810151838201526020016119fe565b50506000910152565b60008151808452611a378160208601602086016119fb565b601f01601f19169290920160200192915050565b82151581526040602082015260006111f46040830184611a1f565b600080600060608486031215611a7b57600080fd5b8335611a86816119c9565b92506020840135611a96816119c9565b929592945050506040919091013590565b60006001600160401b03821115611ac057611ac06118c6565b5060051b60200190565b805160ff81168114611adb57600080fd5b919050565b805163ffffffff81168114611adb57600080fd5b8051611adb816119c9565b805165ffffffffffff81168114611adb57600080fd5b80516001600160801b0381168114611adb57600080fd5b80516001600160401b0381168114611adb57600080fd5b60006101a08284031215611b5657600080fd5b611b5e6118dc565b9050611b6982611aca565b8152611b7760208301611ae0565b6020820152611b8860408301611aca565b6040820152611b9960608301611af4565b6060820152611baa60808301611aff565b6080820152611bbb60a08301611b15565b60a0820152611bcc60c08301611b15565b60c0820152611bdd60e08301611b15565b60e0820152610100611bf0818401611b15565b90820152610120611c02838201611b2c565b90820152610140611c14838201611b2c565b90820152610160611c26838201611b15565b818301525061018080830151818301525092915050565b60006020808385031215611c5057600080fd5b82516001600160401b03811115611c6657600080fd5b8301601f81018513611c7757600080fd5b8051611c8a611c8582611aa7565b611905565b8181526101a09182028301840191848201919088841115611caa57600080fd5b938501935b83851015611cd057611cc18986611b43565b83529384019391850191611caf565b50979650505050505050565b634e487b7160e01b600052603260045260246000fd5b600060018201611d1257634e487b7160e01b600052601160045260246000fd5b5060010190565b60006020808385031215611d2c57600080fd5b82516001600160401b03811115611d4257600080fd5b8301601f81018513611d5357600080fd5b8051611d61611c8582611aa7565b81815260059190911b82018301908381019087831115611d8057600080fd5b928401925b8284101561167157835182529284019290840190611d85565b600060208284031215611db057600080fd5b81516114b9816119c9565b60008060408385031215611dce57600080fd5b505080516020909101519092909150565b6020808252825182820181905260009190848201906040850190845b818110156118ba57835183529284019291840191600101611dfb565b600060208284031215611e2957600080fd5b5051919050565b600081518084526020808501945080840160005b83811015611e6057815187529582019590820190600101611e44565b509495945050505050565b60006101c0611e7a8386611755565b6101a08181850152611e9782850186516001600160a01b03169052565b60208501516101e0611eac8187018315159052565b60408701516102008701526060870151151561022087015260808701516001600160a01b031661024087015260a087015161026087015260c087015161028087015260e08701516102a087015261010087015115156102c087015261012087015160ff9081166102e08801526101408801516001600160401b0316610300880152610160880151610320880152610180880151610340880152928701519092166103608601525090840151610380840191909152611f6e6103a0840182611e30565b95945050505050565b60006101a08284031215611f8a57600080fd5b6114b98383611b43565b600060208284031215611fa657600080fd5b815180151581146114b957600080fd5b60008251611fc88184602087016119fb565b9190910192915050565b6020815260006114b96020830184611a1f56fea2646970667358221220628a0a72c55867ac9697387226309ae27f89ea015be9e28aa9c1a97562b2aa2964736f6c63430008110033",
  "linkReferences": {},
  "deployedLinkReferences": {}
}