{
  "_format": "hh-sol-artifact-1",
  "contractName": "AutoOrderV2",
  "sourceName": "contracts/am/AutoOrderV2.sol",
  "abi": [
    {
      "anonymous": false,
      "inputs": [
        {
          "indexed": true,
          "internalType": "address",
          "name": "previousOwner",
          "type": "address"
        },
        {
          "indexed": true,
          "internalType": "address",
          "name": "newOwner",
          "type": "address"
        }
      ],
      "name": "OwnershipTransferred",
      "type": "event"
    },
    {
      "inputs": [
        {
          "internalType": "bytes",
          "name": "checkData",
          "type": "bytes"
        }
      ],
      "name": "checkUpkeep",
      "outputs": [
        {
          "internalType": "bool",
          "name": "upkeepNeeded",
          "type": "bool"
        },
        {
          "internalType": "bytes",
          "name": "performData",
          "type": "bytes"
        }
      ],
      "stateMutability": "view",
      "type": "function"
    },
    {
      "inputs": [],
      "name": "owner",
      "outputs": [
        {
          "internalType": "address",
          "name": "",
          "type": "address"
        }
      ],
      "stateMutability": "view",
      "type": "function"
    },
    {
      "inputs": [
        {
          "internalType": "bytes",
          "name": "performData",
          "type": "bytes"
        }
      ],
      "name": "performUpkeep",
      "outputs": [],
      "stateMutability": "nonpayable",
      "type": "function"
    },
    {
      "inputs": [],
      "name": "renounceOwnership",
      "outputs": [],
      "stateMutability": "nonpayable",
      "type": "function"
    },
    {
      "inputs": [
        {
          "internalType": "address",
          "name": "newOwner",
          "type": "address"
        }
      ],
      "name": "transferOwnership",
      "outputs": [],
      "stateMutability": "nonpayable",
      "type": "function"
    }
  ],
  "bytecode": "0x608060405234801561001057600080fd5b5061001a3361001f565b61006f565b600080546001600160a01b038381166001600160a01b0319831681178455604051919092169283917f8be0079c531659141344cd1fd0a4f28419497f9722a3daafe3b4186f6b6457e09190a35050565b6117058061007e6000396000f3fe608060405234801561001057600080fd5b50600436106100575760003560e01c80634585e33b1461005c5780636e04ff0d14610071578063715018a61461009b5780638da5cb5b146100a3578063f2fde38b146100be575b600080fd5b61006f61006a366004610ec8565b6100d1565b005b61008461007f366004610ec8565b61010f565b604051610092929190610f5d565b60405180910390f35b61006f6101de565b6000546040516001600160a01b039091168152602001610092565b61006f6100cc366004610fca565b6101f2565b600080600080848060200190518101906100eb9190611027565b93509350935093506101088484846101028861026b565b8561040e565b5050505050565b6000606060008060008060008780602001905181019061012f91906110f1565b9450945094509450945081811161017e5760405162461bcd60e51b815260206004820152600e60248201526d696e76616c696420706172616d7360901b60448201526064015b60405180910390fd5b600061018d86868686866105c9565b905080516000036101a75760009750505050505050915091565b858585836040516020016101be9493929190611149565b604051602081830303815290604052965060019750505050505050915091565b6101e66107b3565b6101f0600061080d565b565b6101fa6107b3565b6001600160a01b03811661025f5760405162461bcd60e51b815260206004820152602660248201527f4f776e61626c653a206e6577206f776e657220697320746865207a65726f206160448201526564647265737360d01b6064820152608401610175565b6102688161080d565b50565b6000816001600160a01b031663741bef1a6040518163ffffffff1660e01b8152600401602060405180830381865afa1580156102ab573d6000803e3d6000fd5b505050506040513d601f19601f820116820180604052508101906102cf91906111be565b6001600160a01b0316633a849c216040518163ffffffff1660e01b8152600401602060405180830381865afa15801561030c573d6000803e3d6000fd5b505050506040513d601f19601f8201168201806040525081019061033091906111be565b6001600160a01b0316639875f760836001600160a01b031663e7d015f26040518163ffffffff1660e01b8152600401602060405180830381865afa15801561037c573d6000803e3d6000fd5b505050506040513d601f19601f820116820180604052508101906103a091906111be565b6040516001600160e01b031960e084901b1681526001600160a01b039091166004820152602401602060405180830381865afa1580156103e4573d6000803e3d6000fd5b505050506040513d601f19601f8201168201806040525081019061040891906111db565b92915050565b604051632899011560e21b8152841515600482015283151560248201526000906001600160a01b0387169063a264045490604401602060405180830381865afa15801561045f573d6000803e3d6000fd5b505050506040513d601f19601f8201168201806040525081019061048391906111be565b825190915060005b818110156105bf5760008482815181106104a7576104a76111f4565b602002602001015190506000846001600160a01b0316639c3f1e90836040518263ffffffff1660e01b81526004016104e191815260200190565b6101a060405180830381865afa1580156104ff573d6000803e3d6000fd5b505050506040513d601f19601f82011682018060405250810190610523919061136e565b602081015190915063ffffffff1687116000036105415750506105af565b896001600160a01b03166312de276c8261055d8b8e8e8761085d565b6040518363ffffffff1660e01b815260040161057a9291906114c8565b600060405180830381600087803b15801561059457600080fd5b505af11580156105a8573d6000803e3d6000fd5b5050505050505b6105b88161160d565b905061048b565b5050505050505050565b60608183111561062f5760405162461bcd60e51b815260206004820152602b60248201527f4c6f7765722073686f756c64206265206c657373207468616e206f722065717560448201526a30b6103a37903ab83832b960a91b6064820152608401610175565b600061063c8787876108f9565b90506000866106ac57876001600160a01b03166305ba9ae96040518163ffffffff1660e01b8152600401602060405180830381865afa158015610683573d6000803e3d6000fd5b505050506040513d601f19601f820116820180604052508101906106a791906111be565b61070e565b876001600160a01b0316637b2fd1e56040518163ffffffff1660e01b8152600401602060405180830381865afa1580156106ea573d6000803e3d6000fd5b505050506040513d601f19601f8201168201806040525081019061070e91906111be565b6040516314d102a960e01b815260048101879052602481018690528715156044820152606481018490526001600160a01b0391909116906314d102a990608401600060405180830381865afa15801561076b573d6000803e3d6000fd5b505050506040513d6000823e601f3d908101601f191682016040526107939190810190611634565b90506107a7816107a28a61026b565b610a41565b98975050505050505050565b6000546001600160a01b031633146101f05760405162461bcd60e51b815260206004820181905260248201527f4f776e61626c653a2063616c6c6572206973206e6f7420746865206f776e65726044820152606401610175565b600080546001600160a01b038381166001600160a01b0319831681178455604051919092169283917f8be0079c531659141344cd1fd0a4f28419497f9722a3daafe3b4186f6b6457e09190a35050565b604080516101e08101825260008082526020820181905291810182905260608082018390526080820183905260a0820183905260c0820183905260e08201839052610100820183905261012082018390526101408201839052610160820183905261018082018390526101a08201929092526101c08101919091526108e28186610bb1565b6108f181838686896001610bdf565b949350505050565b6000836001600160a01b031663741bef1a6040518163ffffffff1660e01b8152600401602060405180830381865afa158015610939573d6000803e3d6000fd5b505050506040513d601f19601f8201168201806040525081019061095d91906111be565b6001600160a01b03166376d69760856001600160a01b031663e7d015f26040518163ffffffff1660e01b8152600401602060405180830381865afa1580156109a9573d6000803e3d6000fd5b505050506040513d601f19601f820116820180604052508101906109cd91906111be565b6040516001600160e01b031960e084901b1681526001600160a01b039091166004820152851515851515146024820152604401602060405180830381865afa158015610a1d573d6000803e3d6000fd5b505050506040513d601f19601f820116820180604052508101906108f191906111db565b60608251600003610a615750604080516000815260208101909152610408565b82516000805b82811015610abc57610a9e868281518110610a8457610a846111f4565b6020026020010151866020919091015163ffffffff161090565b15610aaa578160010191505b80610ab48161160d565b915050610a67565b508067ffffffffffffffff811115610ad657610ad6610e57565b604051908082528060200260200182016040528015610aff578160200160208202803683370190505b5092506000805b83811015610ba7576000878281518110610b2257610b226111f4565b60200260200101519050610b5b888381518110610b4157610b416111f4565b6020026020010151886020919091015163ffffffff161090565b15610b9457610b6981610d1d565b868481518110610b7b57610b7b6111f4565b602090810291909101015282610b908161160d565b9350505b5080610b9f8161160d565b915050610b06565b5050505092915050565b60408051600480825260a0820190925290602082016080803683375050506101c08301521515606090910152565b6001600160a01b038085168752831515602088015260c0808701516001600160801b0390811660a0808b019190915260e08901518216928a0192909252610180808901516101608b01528415156101008b015261012089015167ffffffffffffffff166101408b0152606089015190931660808a01529087015116908701528115610cdb57610c83610c7c8661010001516001600160801b031690565b8790610d82565b610ca2610c9b8661016001516001600160801b031690565b8790610dab565b610cbd610cb6866101400151600f16151590565b8790610dc4565b610140850151610cd69060041c600f1615158790610dee565b610d15565b610cfa610cf3866080015165ffffffffffff16151590565b8790610e18565b50608085015165ffffffffffff16610d155760006101808701525b505050505050565b60008160600151826101200151604051602001610d6592919060609290921b6bffffffffffffffffffffffff1916825260c01b6001600160c01b0319166014820152601c0190565b604051602081830303815290604052805190602001209050919050565b80826101c00151600081518110610d9b57610d9b6111f4565b6020026020010181815250505050565b80826101c00151600181518110610d9b57610d9b6111f4565b80610dd0576000610dd3565b60015b60ff16826101c00151600281518110610d9b57610d9b6111f4565b80610dfa576000610dfd565b60015b60ff16826101c00151600381518110610d9b57610d9b6111f4565b600081610e26576000610e29565b60015b60ff16836101c00151600081518110610e4457610e446111f4565b6020026020010181815250905092915050565b634e487b7160e01b600052604160045260246000fd5b6040516101a0810167ffffffffffffffff81118282101715610e9157610e91610e57565b60405290565b604051601f8201601f1916810167ffffffffffffffff81118282101715610ec057610ec0610e57565b604052919050565b60006020808385031215610edb57600080fd5b823567ffffffffffffffff80821115610ef357600080fd5b818501915085601f830112610f0757600080fd5b813581811115610f1957610f19610e57565b610f2b601f8201601f19168501610e97565b91508082528684828501011115610f4157600080fd5b8084840185840137600090820190930192909252509392505050565b821515815260006020604081840152835180604085015260005b81811015610f9357858101830151858201606001528201610f77565b506000606082860101526060601f19601f830116850101925050509392505050565b6001600160a01b038116811461026857600080fd5b600060208284031215610fdc57600080fd5b8135610fe781610fb5565b9392505050565b80518015158114610ffe57600080fd5b919050565b600067ffffffffffffffff82111561101d5761101d610e57565b5060051b60200190565b6000806000806080858703121561103d57600080fd5b845161104881610fb5565b93506020611057868201610fee565b935061106560408701610fee565b9250606086015167ffffffffffffffff81111561108157600080fd5b8601601f8101881361109257600080fd5b80516110a56110a082611003565b610e97565b81815260059190911b8201830190838101908a8311156110c457600080fd5b928401925b828410156110e2578351825292840192908401906110c9565b979a9699509497505050505050565b600080600080600060a0868803121561110957600080fd5b855161111481610fb5565b945061112260208701610fee565b935061113060408701610fee565b6060870151608090970151959894975095949392505050565b6001600160a01b0385168152831515602080830191909152831515604083015260806060830181905283519083018190526000918481019160a0850190845b818110156111a457845183529383019391830191600101611188565b50909998505050505050505050565b8051610ffe81610fb5565b6000602082840312156111d057600080fd5b8151610fe781610fb5565b6000602082840312156111ed57600080fd5b5051919050565b634e487b7160e01b600052603260045260246000fd5b805160ff81168114610ffe57600080fd5b805163ffffffff81168114610ffe57600080fd5b805165ffffffffffff81168114610ffe57600080fd5b80516001600160801b0381168114610ffe57600080fd5b805167ffffffffffffffff81168114610ffe57600080fd5b60006101a0828403121561128757600080fd5b61128f610e6d565b905061129a8261120a565b81526112a86020830161121b565b60208201526112b96040830161120a565b60408201526112ca606083016111b3565b60608201526112db6080830161122f565b60808201526112ec60a08301611245565b60a08201526112fd60c08301611245565b60c082015261130e60e08301611245565b60e0820152610100611321818401611245565b9082015261012061133383820161125c565b9082015261014061134583820161125c565b90820152610160611357838201611245565b818301525061018080830151818301525092915050565b60006101a0828403121561138157600080fd5b610fe78383611274565b600081518084526020808501945080840160005b838110156113bb5781518752958201959082019060010161139f565b509495945050505050565b80516001600160a01b0316825260006101e060208301516113eb602086018215159052565b50604083015160408501526060830151611409606086018215159052565b50608083015161142460808601826001600160a01b03169052565b5060a083015160a085015260c083015160c085015260e083015160e0850152610100808401516114578287018215159052565b50506101208381015160ff908116918601919091526101408085015167ffffffffffffffff1690860152610160808501519086015261018080850151908601526101a080850151909116908501526101c0808401518186018390526114be8387018261138b565b9695505050505050565b825160ff16815260006101c060208501516114eb602085018263ffffffff169052565b506040850151611500604085018260ff169052565b50606085015161151b60608501826001600160a01b03169052565b506080850151611535608085018265ffffffffffff169052565b5060a085015161155060a08501826001600160801b03169052565b5060c085015161156b60c08501826001600160801b03169052565b5060e085015161158660e08501826001600160801b03169052565b50610100858101516001600160801b0381168583015250506101208581015167ffffffffffffffff81168583015250506101408581015167ffffffffffffffff8116858301525050610160858101516001600160801b038116858301525050610180808601518185015250806101a0840152611604818401856113c6565b95945050505050565b60006001820161162d57634e487b7160e01b600052601160045260246000fd5b5060010190565b6000602080838503121561164757600080fd5b825167ffffffffffffffff81111561165e57600080fd5b8301601f8101851361166f57600080fd5b805161167d6110a082611003565b8181526101a0918202830184019184820191908884111561169d57600080fd5b938501935b838510156116c3576116b48986611274565b835293840193918501916116a2565b5097965050505050505056fea2646970667358221220ac0edb25cde79b39589f46c2187bd221ede20f5b3804de9a3b80a3920e16c5e964736f6c63430008110033",
  "linkReferences": {},
  "deployedLinkReferences": {}
}