{
  "_format": "hh-sol-artifact-1",
  "contractName": "AutoOrderV2",
  "sourceName": "contracts/am/AutoOrderV2.sol",
  "abi": [
    {
      "anonymous": false,
      "inputs": [
        {
          "indexed": true,
          "internalType": "address",
          "name": "previousOwner",
          "type": "address"
        },
        {
          "indexed": true,
          "internalType": "address",
          "name": "newOwner",
          "type": "address"
        }
      ],
      "name": "OwnershipTransferred",
      "type": "event"
    },
    {
      "inputs": [
        {
          "internalType": "bytes",
          "name": "checkData",
          "type": "bytes"
        }
      ],
      "name": "checkUpkeep",
      "outputs": [
        {
          "internalType": "bool",
          "name": "upkeepNeeded",
          "type": "bool"
        },
        {
          "internalType": "bytes",
          "name": "performData",
          "type": "bytes"
        }
      ],
      "stateMutability": "view",
      "type": "function"
    },
    {
      "inputs": [],
      "name": "owner",
      "outputs": [
        {
          "internalType": "address",
          "name": "",
          "type": "address"
        }
      ],
      "stateMutability": "view",
      "type": "function"
    },
    {
      "inputs": [
        {
          "internalType": "bytes",
          "name": "performData",
          "type": "bytes"
        }
      ],
      "name": "performUpkeep",
      "outputs": [],
      "stateMutability": "nonpayable",
      "type": "function"
    },
    {
      "inputs": [],
      "name": "renounceOwnership",
      "outputs": [],
      "stateMutability": "nonpayable",
      "type": "function"
    },
    {
      "inputs": [
        {
          "internalType": "address",
          "name": "newOwner",
          "type": "address"
        }
      ],
      "name": "transferOwnership",
      "outputs": [],
      "stateMutability": "nonpayable",
      "type": "function"
    }
  ],
  "bytecode": "0x608060405234801561001057600080fd5b5061001a3361001f565b61006f565b600080546001600160a01b038381166001600160a01b0319831681178455604051919092169283917f8be0079c531659141344cd1fd0a4f28419497f9722a3daafe3b4186f6b6457e09190a35050565b6116458061007e6000396000f3fe608060405234801561001057600080fd5b50600436106100575760003560e01c80634585e33b1461005c5780636e04ff0d14610071578063715018a61461009b5780638da5cb5b146100a3578063f2fde38b146100be575b600080fd5b61006f61006a366004610e08565b6100d1565b005b61008461007f366004610e08565b61010f565b604051610092929190610e9d565b60405180910390f35b61006f6101de565b6000546040516001600160a01b039091168152602001610092565b61006f6100cc366004610f0a565b6101f2565b600080600080848060200190518101906100eb9190610f67565b93509350935093506101088484846101028861026b565b8561040e565b5050505050565b6000606060008060008060008780602001905181019061012f9190611031565b9450945094509450945081811161017e5760405162461bcd60e51b815260206004820152600e60248201526d696e76616c696420706172616d7360901b60448201526064015b60405180910390fd5b600061018d86868686866105c3565b905080516000036101a75760009750505050505050915091565b858585836040516020016101be9493929190611089565b604051602081830303815290604052965060019750505050505050915091565b6101e66107ad565b6101f06000610807565b565b6101fa6107ad565b6001600160a01b03811661025f5760405162461bcd60e51b815260206004820152602660248201527f4f776e61626c653a206e6577206f776e657220697320746865207a65726f206160448201526564647265737360d01b6064820152608401610175565b61026881610807565b50565b6000816001600160a01b031663741bef1a6040518163ffffffff1660e01b8152600401602060405180830381865afa1580156102ab573d6000803e3d6000fd5b505050506040513d601f19601f820116820180604052508101906102cf91906110fe565b6001600160a01b0316633a849c216040518163ffffffff1660e01b8152600401602060405180830381865afa15801561030c573d6000803e3d6000fd5b505050506040513d601f19601f8201168201806040525081019061033091906110fe565b6001600160a01b0316639875f760836001600160a01b031663e7d015f26040518163ffffffff1660e01b8152600401602060405180830381865afa15801561037c573d6000803e3d6000fd5b505050506040513d601f19601f820116820180604052508101906103a091906110fe565b6040516001600160e01b031960e084901b1681526001600160a01b039091166004820152602401602060405180830381865afa1580156103e4573d6000803e3d6000fd5b505050506040513d601f19601f82011682018060405250810190610408919061111b565b92915050565b604051632899011560e21b8152841515600482015283151560248201526000906001600160a01b0387169063a264045490604401602060405180830381865afa15801561045f573d6000803e3d6000fd5b505050506040513d601f19601f8201168201806040525081019061048391906110fe565b825190915060005b818110156105b95760008482815181106104a7576104a7611134565b602002602001015190506000846001600160a01b0316639c3f1e90836040518263ffffffff1660e01b81526004016104e191815260200190565b6101a060405180830381865afa1580156104ff573d6000803e3d6000fd5b505050506040513d601f19601f8201168201806040525081019061052391906112ae565b602081015190915063ffffffff16871160000361054157505061048b565b896001600160a01b03166312de276c8261055d8b8e8e87610857565b6040518363ffffffff1660e01b815260040161057a929190611408565b600060405180830381600087803b15801561059457600080fd5b505af11580156105a8573d6000803e3d6000fd5b50505050826001019250505061048b565b5050505050505050565b6060818311156106295760405162461bcd60e51b815260206004820152602b60248201527f4c6f7765722073686f756c64206265206c657373207468616e206f722065717560448201526a30b6103a37903ab83832b960a91b6064820152608401610175565b60006106368787876109cc565b90506000866106a657876001600160a01b03166305ba9ae96040518163ffffffff1660e01b8152600401602060405180830381865afa15801561067d573d6000803e3d6000fd5b505050506040513d601f19601f820116820180604052508101906106a191906110fe565b610708565b876001600160a01b0316637b2fd1e56040518163ffffffff1660e01b8152600401602060405180830381865afa1580156106e4573d6000803e3d6000fd5b505050506040513d601f19601f8201168201806040525081019061070891906110fe565b6040516314d102a960e01b815260048101879052602481018690528715156044820152606481018490526001600160a01b0391909116906314d102a990608401600060405180830381865afa158015610765573d6000803e3d6000fd5b505050506040513d6000823e601f3d908101601f1916820160405261078d919081019061154d565b90506107a18161079c8a61026b565b610b14565b98975050505050505050565b6000546001600160a01b031633146101f05760405162461bcd60e51b815260206004820181905260248201527f4f776e61626c653a2063616c6c6572206973206e6f7420746865206f776e65726044820152606401610175565b600080546001600160a01b038381166001600160a01b0319831681178455604051919092169283917f8be0079c531659141344cd1fd0a4f28419497f9722a3daafe3b4186f6b6457e09190a35050565b604080516101e08101825260008082526020820181905291810182905260608082018390526080820183905260a0820183905260c0820183905260e08201839052610100820183905261012082018390526101408201839052610160820183905261018082018390526101a08201929092526101c08101919091526108dc8186610c84565b6001600160a01b038085168252831515602083015260c0808401516001600160801b0390811660a08086019190915260e086015182169285019290925261018080860151610160860152600161010086015261012086015167ffffffffffffffff166101408601526060860151909316608085015290840151169082015284156109a35761097f6109788361010001516001600160801b031690565b8290610cb1565b61099e6109978361016001516001600160801b031690565b8290610cda565b6109c4565b6109c26109bb836080015165ffffffffffff16151590565b8290610cf3565b505b949350505050565b6000836001600160a01b031663741bef1a6040518163ffffffff1660e01b8152600401602060405180830381865afa158015610a0c573d6000803e3d6000fd5b505050506040513d601f19601f82011682018060405250810190610a3091906110fe565b6001600160a01b03166376d69760856001600160a01b031663e7d015f26040518163ffffffff1660e01b8152600401602060405180830381865afa158015610a7c573d6000803e3d6000fd5b505050506040513d601f19601f82011682018060405250810190610aa091906110fe565b6040516001600160e01b031960e084901b1681526001600160a01b039091166004820152851515851515146024820152604401602060405180830381865afa158015610af0573d6000803e3d6000fd5b505050506040513d601f19601f820116820180604052508101906109c4919061111b565b60608251600003610b345750604080516000815260208101909152610408565b82516000805b82811015610b8f57610b71868281518110610b5757610b57611134565b6020026020010151866020919091015163ffffffff161090565b15610b7d578160010191505b80610b87816115e8565b915050610b3a565b508067ffffffffffffffff811115610ba957610ba9610d97565b604051908082528060200260200182016040528015610bd2578160200160208202803683370190505b5092506000805b83811015610c7a576000878281518110610bf557610bf5611134565b60200260200101519050610c2e888381518110610c1457610c14611134565b6020026020010151886020919091015163ffffffff161090565b15610c6757610c3c81610d32565b868481518110610c4e57610c4e611134565b602090810291909101015282610c63816115e8565b9350505b5080610c72816115e8565b915050610bd9565b5050505092915050565b60408051600280825260608201835290916020830190803683375050506101c08301521515606090910152565b80826101c00151600081518110610cca57610cca611134565b6020026020010181815250505050565b80826101c00151600181518110610cca57610cca611134565b600081610d01576000610d04565b60015b60ff16836101c00151600081518110610d1f57610d1f611134565b6020026020010181815250905092915050565b60008160600151826101200151604051602001610d7a92919060609290921b6bffffffffffffffffffffffff1916825260c01b6001600160c01b0319166014820152601c0190565b604051602081830303815290604052805190602001209050919050565b634e487b7160e01b600052604160045260246000fd5b6040516101a0810167ffffffffffffffff81118282101715610dd157610dd1610d97565b60405290565b604051601f8201601f1916810167ffffffffffffffff81118282101715610e0057610e00610d97565b604052919050565b60006020808385031215610e1b57600080fd5b823567ffffffffffffffff80821115610e3357600080fd5b818501915085601f830112610e4757600080fd5b813581811115610e5957610e59610d97565b610e6b601f8201601f19168501610dd7565b91508082528684828501011115610e8157600080fd5b8084840185840137600090820190930192909252509392505050565b821515815260006020604081840152835180604085015260005b81811015610ed357858101830151858201606001528201610eb7565b506000606082860101526060601f19601f830116850101925050509392505050565b6001600160a01b038116811461026857600080fd5b600060208284031215610f1c57600080fd5b8135610f2781610ef5565b9392505050565b80518015158114610f3e57600080fd5b919050565b600067ffffffffffffffff821115610f5d57610f5d610d97565b5060051b60200190565b60008060008060808587031215610f7d57600080fd5b8451610f8881610ef5565b93506020610f97868201610f2e565b9350610fa560408701610f2e565b9250606086015167ffffffffffffffff811115610fc157600080fd5b8601601f81018813610fd257600080fd5b8051610fe5610fe082610f43565b610dd7565b81815260059190911b8201830190838101908a83111561100457600080fd5b928401925b8284101561102257835182529284019290840190611009565b979a9699509497505050505050565b600080600080600060a0868803121561104957600080fd5b855161105481610ef5565b945061106260208701610f2e565b935061107060408701610f2e565b6060870151608090970151959894975095949392505050565b6001600160a01b0385168152831515602080830191909152831515604083015260806060830181905283519083018190526000918481019160a0850190845b818110156110e4578451835293830193918301916001016110c8565b50909998505050505050505050565b8051610f3e81610ef5565b60006020828403121561111057600080fd5b8151610f2781610ef5565b60006020828403121561112d57600080fd5b5051919050565b634e487b7160e01b600052603260045260246000fd5b805160ff81168114610f3e57600080fd5b805163ffffffff81168114610f3e57600080fd5b805165ffffffffffff81168114610f3e57600080fd5b80516001600160801b0381168114610f3e57600080fd5b805167ffffffffffffffff81168114610f3e57600080fd5b60006101a082840312156111c757600080fd5b6111cf610dad565b90506111da8261114a565b81526111e86020830161115b565b60208201526111f96040830161114a565b604082015261120a606083016110f3565b606082015261121b6080830161116f565b608082015261122c60a08301611185565b60a082015261123d60c08301611185565b60c082015261124e60e08301611185565b60e0820152610100611261818401611185565b9082015261012061127383820161119c565b9082015261014061128583820161119c565b90820152610160611297838201611185565b818301525061018080830151818301525092915050565b60006101a082840312156112c157600080fd5b610f2783836111b4565b600081518084526020808501945080840160005b838110156112fb578151875295820195908201906001016112df565b509495945050505050565b80516001600160a01b0316825260006101e0602083015161132b602086018215159052565b50604083015160408501526060830151611349606086018215159052565b50608083015161136460808601826001600160a01b03169052565b5060a083015160a085015260c083015160c085015260e083015160e0850152610100808401516113978287018215159052565b50506101208381015160ff908116918601919091526101408085015167ffffffffffffffff1690860152610160808501519086015261018080850151908601526101a080850151909116908501526101c0808401518186018390526113fe838701826112cb565b9695505050505050565b825160ff16815260006101c0602085015161142b602085018263ffffffff169052565b506040850151611440604085018260ff169052565b50606085015161145b60608501826001600160a01b03169052565b506080850151611475608085018265ffffffffffff169052565b5060a085015161149060a08501826001600160801b03169052565b5060c08501516114ab60c08501826001600160801b03169052565b5060e08501516114c660e08501826001600160801b03169052565b50610100858101516001600160801b0381168583015250506101208581015167ffffffffffffffff81168583015250506101408581015167ffffffffffffffff8116858301525050610160858101516001600160801b038116858301525050610180808601518185015250806101a084015261154481840185611306565b95945050505050565b6000602080838503121561156057600080fd5b825167ffffffffffffffff81111561157757600080fd5b8301601f8101851361158857600080fd5b8051611596610fe082610f43565b8181526101a091820283018401918482019190888411156115b657600080fd5b938501935b838510156115dc576115cd89866111b4565b835293840193918501916115bb565b50979650505050505050565b60006001820161160857634e487b7160e01b600052601160045260246000fd5b506001019056fea26469706673582212202fdcc381bdd57b58eb85c6ca6fd45b19a350780e1d39e8650a11adb2ba6e7a6464736f6c63430008110033",
  "linkReferences": {},
  "deployedLinkReferences": {}
}