{
  "_format": "hh-sol-artifact-1",
  "contractName": "AutoOrderMgr",
  "sourceName": "contracts/am/AutoOrderMgr.sol",
  "abi": [
    {
      "anonymous": false,
      "inputs": [
        {
          "indexed": false,
          "internalType": "uint8",
          "name": "version",
          "type": "uint8"
        }
      ],
      "name": "Initialized",
      "type": "event"
    },
    {
      "anonymous": false,
      "inputs": [
        {
          "indexed": true,
          "internalType": "address",
          "name": "previousOwner",
          "type": "address"
        },
        {
          "indexed": true,
          "internalType": "address",
          "name": "newOwner",
          "type": "address"
        }
      ],
      "name": "OwnershipTransferred",
      "type": "event"
    },
    {
      "anonymous": false,
      "inputs": [
        {
          "indexed": true,
          "internalType": "bytes32",
          "name": "role",
          "type": "bytes32"
        },
        {
          "indexed": true,
          "internalType": "bytes32",
          "name": "previousAdminRole",
          "type": "bytes32"
        },
        {
          "indexed": true,
          "internalType": "bytes32",
          "name": "newAdminRole",
          "type": "bytes32"
        }
      ],
      "name": "RoleAdminChanged",
      "type": "event"
    },
    {
      "anonymous": false,
      "inputs": [
        {
          "indexed": true,
          "internalType": "bytes32",
          "name": "role",
          "type": "bytes32"
        },
        {
          "indexed": true,
          "internalType": "address",
          "name": "account",
          "type": "address"
        },
        {
          "indexed": true,
          "internalType": "address",
          "name": "sender",
          "type": "address"
        }
      ],
      "name": "RoleGranted",
      "type": "event"
    },
    {
      "anonymous": false,
      "inputs": [
        {
          "indexed": true,
          "internalType": "bytes32",
          "name": "role",
          "type": "bytes32"
        },
        {
          "indexed": true,
          "internalType": "address",
          "name": "account",
          "type": "address"
        },
        {
          "indexed": true,
          "internalType": "address",
          "name": "sender",
          "type": "address"
        }
      ],
      "name": "RoleRevoked",
      "type": "event"
    },
    {
      "inputs": [],
      "name": "DEFAULT_ADMIN_ROLE",
      "outputs": [
        {
          "internalType": "bytes32",
          "name": "",
          "type": "bytes32"
        }
      ],
      "stateMutability": "view",
      "type": "function"
    },
    {
      "inputs": [
        {
          "internalType": "address[]",
          "name": "_autoOrders",
          "type": "address[]"
        }
      ],
      "name": "addAutoOrders",
      "outputs": [],
      "stateMutability": "nonpayable",
      "type": "function"
    },
    {
      "inputs": [],
      "name": "checkLmt",
      "outputs": [
        {
          "internalType": "uint256",
          "name": "",
          "type": "uint256"
        }
      ],
      "stateMutability": "view",
      "type": "function"
    },
    {
      "inputs": [],
      "name": "fastPrice",
      "outputs": [
        {
          "internalType": "address",
          "name": "",
          "type": "address"
        }
      ],
      "stateMutability": "view",
      "type": "function"
    },
    {
      "inputs": [],
      "name": "getAutoOrders",
      "outputs": [
        {
          "internalType": "address[]",
          "name": "rets",
          "type": "address[]"
        }
      ],
      "stateMutability": "view",
      "type": "function"
    },
    {
      "inputs": [
        {
          "internalType": "bytes32",
          "name": "role",
          "type": "bytes32"
        }
      ],
      "name": "getRoleAdmin",
      "outputs": [
        {
          "internalType": "bytes32",
          "name": "",
          "type": "bytes32"
        }
      ],
      "stateMutability": "view",
      "type": "function"
    },
    {
      "inputs": [
        {
          "internalType": "address",
          "name": "_account",
          "type": "address"
        }
      ],
      "name": "grantControllerRoleByMarketManager",
      "outputs": [],
      "stateMutability": "nonpayable",
      "type": "function"
    },
    {
      "inputs": [
        {
          "internalType": "bytes32",
          "name": "role",
          "type": "bytes32"
        },
        {
          "internalType": "address",
          "name": "account",
          "type": "address"
        }
      ],
      "name": "grantRole",
      "outputs": [],
      "stateMutability": "nonpayable",
      "type": "function"
    },
    {
      "inputs": [
        {
          "internalType": "bytes32",
          "name": "role",
          "type": "bytes32"
        },
        {
          "internalType": "address",
          "name": "account",
          "type": "address"
        }
      ],
      "name": "hasRole",
      "outputs": [
        {
          "internalType": "bool",
          "name": "",
          "type": "bool"
        }
      ],
      "stateMutability": "view",
      "type": "function"
    },
    {
      "inputs": [],
      "name": "owner",
      "outputs": [
        {
          "internalType": "address",
          "name": "",
          "type": "address"
        }
      ],
      "stateMutability": "view",
      "type": "function"
    },
    {
      "inputs": [],
      "name": "renounceOwnership",
      "outputs": [],
      "stateMutability": "nonpayable",
      "type": "function"
    },
    {
      "inputs": [
        {
          "internalType": "bytes32",
          "name": "role",
          "type": "bytes32"
        },
        {
          "internalType": "address",
          "name": "account",
          "type": "address"
        }
      ],
      "name": "renounceRole",
      "outputs": [],
      "stateMutability": "nonpayable",
      "type": "function"
    },
    {
      "inputs": [
        {
          "internalType": "bytes32",
          "name": "role",
          "type": "bytes32"
        },
        {
          "internalType": "address",
          "name": "account",
          "type": "address"
        }
      ],
      "name": "revokeRole",
      "outputs": [],
      "stateMutability": "nonpayable",
      "type": "function"
    },
    {
      "inputs": [
        {
          "internalType": "uint256",
          "name": "x",
          "type": "uint256"
        }
      ],
      "name": "setCheckLmt",
      "outputs": [],
      "stateMutability": "nonpayable",
      "type": "function"
    },
    {
      "inputs": [
        {
          "internalType": "address[]",
          "name": "_tokens",
          "type": "address[]"
        },
        {
          "internalType": "uint256[]",
          "name": "_prices",
          "type": "uint256[]"
        },
        {
          "internalType": "uint256",
          "name": "timestamp",
          "type": "uint256"
        },
        {
          "internalType": "address",
          "name": "",
          "type": "address"
        }
      ],
      "name": "setPricesAndExecute",
      "outputs": [],
      "stateMutability": "nonpayable",
      "type": "function"
    },
    {
      "inputs": [
        {
          "internalType": "bytes4",
          "name": "interfaceId",
          "type": "bytes4"
        }
      ],
      "name": "supportsInterface",
      "outputs": [
        {
          "internalType": "bool",
          "name": "",
          "type": "bool"
        }
      ],
      "stateMutability": "view",
      "type": "function"
    },
    {
      "inputs": [
        {
          "internalType": "address",
          "name": "to",
          "type": "address"
        }
      ],
      "name": "transferAdmin",
      "outputs": [],
      "stateMutability": "nonpayable",
      "type": "function"
    },
    {
      "inputs": [
        {
          "internalType": "address",
          "name": "newOwner",
          "type": "address"
        }
      ],
      "name": "transferOwnership",
      "outputs": [],
      "stateMutability": "nonpayable",
      "type": "function"
    }
  ],
  "bytecode": "0x608060405261271060065534801561001657600080fd5b5061002033610025565b610077565b600180546001600160a01b038381166001600160a01b0319831681179093556040519116919082907f8be0079c531659141344cd1fd0a4f28419497f9722a3daafe3b4186f6b6457e090600090a35050565b61110e806100866000396000f3fe608060405234801561001057600080fd5b50600436106101165760003560e01c80638da5cb5b116100a2578063cd34504e11610071578063cd34504e1461023b578063d547741f1461024e578063d800fca814610261578063e203ebd714610274578063f2fde38b1461028757600080fd5b80638da5cb5b146101f257806391d1485414610217578063a217fddf1461022a578063c8ee59e91461023257600080fd5b80635aad5084116100e95780635aad50841461019c578063715018a6146101b157806375829def146101b95780637ba9a86a146101cc5780637fe4a698146101df57600080fd5b806301ffc9a71461011b578063248a9ca3146101435780632f2ff15d1461017457806336568abe14610189575b600080fd5b61012e610129366004610c0d565b61029a565b60405190151581526020015b60405180910390f35b610166610151366004610c37565b60009081526020819052604090206001015490565b60405190815260200161013a565b610187610182366004610c75565b6102d1565b005b610187610197366004610c75565b6102fb565b6101a461037e565b60405161013a9190610ce9565b61018761038f565b6101876101c7366004610cfc565b6103a3565b6101876101da366004610c37565b6103cd565b6101876101ed366004610cfc565b6103fb565b6001546001600160a01b03165b6040516001600160a01b03909116815260200161013a565b61012e610225366004610c75565b610425565b610166600081565b61016660065481565b610187610249366004610df8565b61044e565b61018761025c366004610c75565b6104c3565b6003546101ff906001600160a01b031681565b610187610282366004610e35565b6104e8565b610187610295366004610cfc565b6106da565b60006001600160e01b03198216637965db0b60e01b14806102cb57506301ffc9a760e01b6001600160e01b03198316145b92915050565b6000828152602081905260409020600101546102ec81610753565b6102f6838361075d565b505050565b6001600160a01b03811633146103705760405162461bcd60e51b815260206004820152602f60248201527f416363657373436f6e74726f6c3a2063616e206f6e6c792072656e6f756e636560448201526e103937b632b9903337b91039b2b63360891b60648201526084015b60405180910390fd5b61037a82826107e1565b5050565b606061038a6004610846565b905090565b61039761085a565b6103a160006108b4565b565b60006103ae81610753565b6103b9600083610906565b6103c2826108b4565b61037a6000336107e1565b6103f67f241ecf16d79d0f8dbfb92cbc07fe17840425976cf0667f022fe9877caa831b08610753565b600655565b7f8d1089725c0dc266707fa6207730fb801dcd03108bfed7a21099bd303651d2b761011681610753565b6000918252602082815260408084206001600160a01b0393909316845291905290205460ff1690565b6104777f241ecf16d79d0f8dbfb92cbc07fe17840425976cf0667f022fe9877caa831b08610753565b60005b815181101561037a576104b082828151811061049857610498610f09565b6020026020010151600461091090919063ffffffff16565b50806104bb81610f35565b91505061047a565b6000828152602081905260409020600101546104de81610753565b6102f683836107e1565b6105127ff7650eb8b2f3fb3c9b995a8ee2fc3c04ed07f1c4efe01998177b109698c6751733610425565b61051b57600080fd5b60065484516001148015610530575083516001145b61053957600080fd5b600354604051631e09986f60e21b81526001600160a01b039091169063782661bc9061056d90889088908890600401610f4e565b600060405180830381600087803b15801561058757600080fd5b505af115801561059b573d6000803e3d6000fd5b505050506000856000815181106105b4576105b4610f09565b6020026020010151905060005b6105cb6004610846565b518110156106d15760006105e0600483610925565b9050826001600160a01b0316816001600160a01b031663e7d015f26040518163ffffffff1660e01b81526004016020604051808303816000875af115801561062c573d6000803e3d6000fd5b505050506040513d601f19601f820116820180604052508101906106509190610fae565b6001600160a01b03161461066457506105c1565b6040516319235a5360e11b815260006004820152602481018590526001600160a01b03821690633246b4a690604401600060405180830381600087803b1580156106ad57600080fd5b505af11580156106c1573d6000803e3d6000fd5b50505050816001019150506105c1565b50505050505050565b6106e261085a565b6001600160a01b0381166107475760405162461bcd60e51b815260206004820152602660248201527f4f776e61626c653a206e6577206f776e657220697320746865207a65726f206160448201526564647265737360d01b6064820152608401610367565b610750816108b4565b50565b6107508133610931565b6107678282610425565b61037a576000828152602081815260408083206001600160a01b03851684529091529020805460ff1916600117905561079d3390565b6001600160a01b0316816001600160a01b0316837f2f8788117e7eff1d82e926ec794901d17c78024a50270940304540a733656f0d60405160405180910390a45050565b6107eb8282610425565b1561037a576000828152602081815260408083206001600160a01b0385168085529252808320805460ff1916905551339285917ff6391f5c32d9c69d2a47ea670b442974b53935d1edc7fd64eb21e047a839171b9190a45050565b606060006108538361098a565b9392505050565b6001546001600160a01b031633146103a15760405162461bcd60e51b815260206004820181905260248201527f4f776e61626c653a2063616c6c6572206973206e6f7420746865206f776e65726044820152606401610367565b600180546001600160a01b038381166001600160a01b0319831681179093556040519116919082907f8be0079c531659141344cd1fd0a4f28419497f9722a3daafe3b4186f6b6457e090600090a35050565b61037a828261075d565b6000610853836001600160a01b0384166109e6565b60006108538383610a35565b61093b8282610425565b61037a5761094881610a5f565b610953836020610a71565b604051602001610964929190610fef565b60408051601f198184030181529082905262461bcd60e51b825261036791600401611064565b6060816000018054806020026020016040519081016040528092919081815260200182805480156109da57602002820191906000526020600020905b8154815260200190600101908083116109c6575b50505050509050919050565b6000818152600183016020526040812054610a2d575081546001818101845560008481526020808220909301849055845484825282860190935260409020919091556102cb565b5060006102cb565b6000826000018281548110610a4c57610a4c610f09565b9060005260206000200154905092915050565b60606102cb6001600160a01b03831660145b60606000610a80836002611097565b610a8b9060026110ae565b67ffffffffffffffff811115610aa357610aa3610d19565b6040519080825280601f01601f191660200182016040528015610acd576020820181803683370190505b509050600360fc1b81600081518110610ae857610ae8610f09565b60200101906001600160f81b031916908160001a905350600f60fb1b81600181518110610b1757610b17610f09565b60200101906001600160f81b031916908160001a9053506000610b3b846002611097565b610b469060016110ae565b90505b6001811115610bbe576f181899199a1a9b1b9c1cb0b131b232b360811b85600f1660108110610b7a57610b7a610f09565b1a60f81b828281518110610b9057610b90610f09565b60200101906001600160f81b031916908160001a90535060049490941c93610bb7816110c1565b9050610b49565b5083156108535760405162461bcd60e51b815260206004820181905260248201527f537472696e67733a20686578206c656e67746820696e73756666696369656e746044820152606401610367565b600060208284031215610c1f57600080fd5b81356001600160e01b03198116811461085357600080fd5b600060208284031215610c4957600080fd5b5035919050565b6001600160a01b038116811461075057600080fd5b8035610c7081610c50565b919050565b60008060408385031215610c8857600080fd5b823591506020830135610c9a81610c50565b809150509250929050565b600081518084526020808501945080840160005b83811015610cde5781516001600160a01b031687529582019590820190600101610cb9565b509495945050505050565b6020815260006108536020830184610ca5565b600060208284031215610d0e57600080fd5b813561085381610c50565b634e487b7160e01b600052604160045260246000fd5b604051601f8201601f1916810167ffffffffffffffff81118282101715610d5857610d58610d19565b604052919050565b600067ffffffffffffffff821115610d7a57610d7a610d19565b5060051b60200190565b600082601f830112610d9557600080fd5b81356020610daa610da583610d60565b610d2f565b82815260059290921b84018101918181019086841115610dc957600080fd5b8286015b84811015610ded578035610de081610c50565b8352918301918301610dcd565b509695505050505050565b600060208284031215610e0a57600080fd5b813567ffffffffffffffff811115610e2157600080fd5b610e2d84828501610d84565b949350505050565b60008060008060808587031215610e4b57600080fd5b843567ffffffffffffffff80821115610e6357600080fd5b610e6f88838901610d84565b9550602091508187013581811115610e8657600080fd5b87019050601f81018813610e9957600080fd5b8035610ea7610da582610d60565b81815260059190911b8201830190838101908a831115610ec657600080fd5b928401925b82841015610ee457833582529284019290840190610ecb565b965050505060408601359250610efe905060608601610c65565b905092959194509250565b634e487b7160e01b600052603260045260246000fd5b634e487b7160e01b600052601160045260246000fd5b600060018201610f4757610f47610f1f565b5060010190565b606081526000610f616060830186610ca5565b82810360208481019190915285518083528682019282019060005b81811015610f9857845183529383019391830191600101610f7c565b5050809350505050826040830152949350505050565b600060208284031215610fc057600080fd5b815161085381610c50565b60005b83811015610fe6578181015183820152602001610fce565b50506000910152565b7f416363657373436f6e74726f6c3a206163636f756e7420000000000000000000815260008351611027816017850160208801610fcb565b7001034b99036b4b9b9b4b733903937b6329607d1b6017918401918201528351611058816028840160208801610fcb565b01602801949350505050565b6020815260008251806020840152611083816040850160208701610fcb565b601f01601f19169190910160400192915050565b80820281158282048414176102cb576102cb610f1f565b808201808211156102cb576102cb610f1f565b6000816110d0576110d0610f1f565b50600019019056fea2646970667358221220380d86a0ed9614de3a8429b97e693ce091657408863ae6acaaa179ffb08bfc5b64736f6c63430008110033",
  "linkReferences": {},
  "deployedLinkReferences": {}
}