{
  "_format": "hh-sol-artifact-1",
  "contractName": "AutoOrderMgr",
  "sourceName": "contracts/am/AutoOrderMgr.sol",
  "abi": [
    {
      "anonymous": false,
      "inputs": [
        {
          "indexed": false,
          "internalType": "uint8",
          "name": "version",
          "type": "uint8"
        }
      ],
      "name": "Initialized",
      "type": "event"
    },
    {
      "inputs": [],
      "name": "DEFAULT_ADMIN_ROLE",
      "outputs": [
        {
          "internalType": "bytes32",
          "name": "",
          "type": "bytes32"
        }
      ],
      "stateMutability": "view",
      "type": "function"
    },
    {
      "inputs": [
        {
          "internalType": "address",
          "name": "newOwner",
          "type": "address"
        }
      ],
      "name": "_transferOwnership",
      "outputs": [],
      "stateMutability": "pure",
      "type": "function"
    },
    {
      "inputs": [
        {
          "internalType": "address[]",
          "name": "_autoOrders",
          "type": "address[]"
        }
      ],
      "name": "addAutoOrders",
      "outputs": [],
      "stateMutability": "nonpayable",
      "type": "function"
    },
    {
      "inputs": [],
      "name": "checkLmt",
      "outputs": [
        {
          "internalType": "uint256",
          "name": "",
          "type": "uint256"
        }
      ],
      "stateMutability": "view",
      "type": "function"
    },
    {
      "inputs": [],
      "name": "fastPrice",
      "outputs": [
        {
          "internalType": "address",
          "name": "",
          "type": "address"
        }
      ],
      "stateMutability": "view",
      "type": "function"
    },
    {
      "inputs": [],
      "name": "getAutoOrders",
      "outputs": [
        {
          "internalType": "address[]",
          "name": "rets",
          "type": "address[]"
        }
      ],
      "stateMutability": "view",
      "type": "function"
    },
    {
      "inputs": [
        {
          "internalType": "address",
          "name": "_account",
          "type": "address"
        }
      ],
      "name": "grantControllerRoleByMarketManager",
      "outputs": [],
      "stateMutability": "nonpayable",
      "type": "function"
    },
    {
      "inputs": [
        {
          "internalType": "bytes32",
          "name": "role",
          "type": "bytes32"
        },
        {
          "internalType": "address",
          "name": "account",
          "type": "address"
        }
      ],
      "name": "grantRole",
      "outputs": [],
      "stateMutability": "pure",
      "type": "function"
    },
    {
      "inputs": [
        {
          "internalType": "bytes32",
          "name": "role",
          "type": "bytes32"
        },
        {
          "internalType": "address",
          "name": "account",
          "type": "address"
        }
      ],
      "name": "hasRole",
      "outputs": [
        {
          "internalType": "bool",
          "name": "",
          "type": "bool"
        }
      ],
      "stateMutability": "pure",
      "type": "function"
    },
    {
      "inputs": [
        {
          "internalType": "bytes32",
          "name": "role",
          "type": "bytes32"
        },
        {
          "internalType": "address",
          "name": "account",
          "type": "address"
        }
      ],
      "name": "revokeRole",
      "outputs": [],
      "stateMutability": "pure",
      "type": "function"
    },
    {
      "inputs": [
        {
          "internalType": "uint256",
          "name": "x",
          "type": "uint256"
        }
      ],
      "name": "setCheckLmt",
      "outputs": [],
      "stateMutability": "nonpayable",
      "type": "function"
    },
    {
      "inputs": [
        {
          "internalType": "address[]",
          "name": "_tokens",
          "type": "address[]"
        },
        {
          "internalType": "uint256[]",
          "name": "_prices",
          "type": "uint256[]"
        },
        {
          "internalType": "uint256",
          "name": "timestamp",
          "type": "uint256"
        },
        {
          "internalType": "address",
          "name": "",
          "type": "address"
        }
      ],
      "name": "setPricesAndExecute",
      "outputs": [],
      "stateMutability": "nonpayable",
      "type": "function"
    },
    {
      "inputs": [
        {
          "internalType": "address",
          "name": "to",
          "type": "address"
        }
      ],
      "name": "transferAdmin",
      "outputs": [],
      "stateMutability": "nonpayable",
      "type": "function"
    },
    {
      "inputs": [
        {
          "internalType": "address",
          "name": "newOwner",
          "type": "address"
        }
      ],
      "name": "transferOwnership",
      "outputs": [],
      "stateMutability": "pure",
      "type": "function"
    }
  ],
  "bytecode": "0x608060405261271060055534801561001657600080fd5b506108fa806100266000396000f3fe608060405234801561001057600080fd5b50600436106100ea5760003560e01c8063c8ee59e91161008c578063d547741f11610066578063d547741f146100ef578063d800fca8146101c0578063e203ebd7146101eb578063f2fde38b146101af57600080fd5b8063c8ee59e914610193578063cd34504e1461019c578063d29d44ee146101af57600080fd5b80637ba9a86a116100c85780637ba9a86a146101345780637fe4a6981461014757806391d148541461015a578063a217fddf1461017d57600080fd5b80632f2ff15d146100ef5780635aad50841461010357806375829def14610121575b600080fd5b6101016100fd36600461055d565b5050565b005b61010b6101fe565b60405161011891906105d1565b60405180910390f35b61010161012f3660046105e4565b61020f565b610101610142366004610601565b600555565b6101016101553660046105e4565b6101bd565b61016d61016836600461055d565b61021a565b6040519015158152602001610118565b610185600081565b604051908152602001610118565b61018560055481565b6101016101aa3660046106f9565b610223565b6101016101bd3660046105e4565b50565b6002546101d3906001600160a01b031681565b6040516001600160a01b039091168152602001610118565b6101016101f9366004610736565b61026f565b606061020a600361042e565b905090565b60006100fd60003382565b60015b92915050565b60005b81518110156100fd5761025c8282815181106102445761024461080a565b6020026020010151600361044290919063ffffffff16565b508061026781610820565b915050610226565b60055484516001148015610284575083516001145b61028d57600080fd5b600254604051631e09986f60e21b81526001600160a01b039091169063782661bc906102c190889088908890600401610847565b600060405180830381600087803b1580156102db57600080fd5b505af11580156102ef573d6000803e3d6000fd5b505050506000856000815181106103085761030861080a565b6020026020010151905060005b61031f600361042e565b51811015610425576000610334600383610457565b9050826001600160a01b0316816001600160a01b031663e7d015f26040518163ffffffff1660e01b81526004016020604051808303816000875af1158015610380573d6000803e3d6000fd5b505050506040513d601f19601f820116820180604052508101906103a491906108a7565b6001600160a01b0316146103b85750610315565b6040516319235a5360e11b815260006004820152602481018590526001600160a01b03821690633246b4a690604401600060405180830381600087803b15801561040157600080fd5b505af1158015610415573d6000803e3d6000fd5b5050505081600101915050610315565b50505050505050565b6060600061043b83610463565b9392505050565b600061043b836001600160a01b0384166104bf565b600061043b838361050e565b6060816000018054806020026020016040519081016040528092919081815260200182805480156104b357602002820191906000526020600020905b81548152602001906001019080831161049f575b50505050509050919050565b60008181526001830160205260408120546105065750815460018181018455600084815260208082209093018490558454848252828601909352604090209190915561021d565b50600061021d565b60008260000182815481106105255761052561080a565b9060005260206000200154905092915050565b6001600160a01b03811681146101bd57600080fd5b803561055881610538565b919050565b6000806040838503121561057057600080fd5b82359150602083013561058281610538565b809150509250929050565b600081518084526020808501945080840160005b838110156105c65781516001600160a01b0316875295820195908201906001016105a1565b509495945050505050565b60208152600061043b602083018461058d565b6000602082840312156105f657600080fd5b813561043b81610538565b60006020828403121561061357600080fd5b5035919050565b634e487b7160e01b600052604160045260246000fd5b604051601f8201601f1916810167ffffffffffffffff811182821017156106595761065961061a565b604052919050565b600067ffffffffffffffff82111561067b5761067b61061a565b5060051b60200190565b600082601f83011261069657600080fd5b813560206106ab6106a683610661565b610630565b82815260059290921b840181019181810190868411156106ca57600080fd5b8286015b848110156106ee5780356106e181610538565b83529183019183016106ce565b509695505050505050565b60006020828403121561070b57600080fd5b813567ffffffffffffffff81111561072257600080fd5b61072e84828501610685565b949350505050565b6000806000806080858703121561074c57600080fd5b843567ffffffffffffffff8082111561076457600080fd5b61077088838901610685565b955060209150818701358181111561078757600080fd5b87019050601f8101881361079a57600080fd5b80356107a86106a682610661565b81815260059190911b8201830190838101908a8311156107c757600080fd5b928401925b828410156107e5578335825292840192908401906107cc565b9650505050604086013592506107ff90506060860161054d565b905092959194509250565b634e487b7160e01b600052603260045260246000fd5b60006001820161084057634e487b7160e01b600052601160045260246000fd5b5060010190565b60608152600061085a606083018661058d565b82810360208481019190915285518083528682019282019060005b8181101561089157845183529383019391830191600101610875565b5050809350505050826040830152949350505050565b6000602082840312156108b957600080fd5b815161043b8161053856fea26469706673582212203c761b4e5feecb4b40e1f78d69ddb18f83c081df0be0b593bae45c3cc725232164736f6c63430008110033",
  "linkReferences": {},
  "deployedLinkReferences": {}
}