{
  "_format": "hh-sol-artifact-1",
  "contractName": "OrderMgr",
  "sourceName": "contracts/market/OrderMgr.sol",
  "abi": [
    {
      "inputs": [],
      "stateMutability": "nonpayable",
      "type": "constructor"
    },
    {
      "anonymous": false,
      "inputs": [
        {
          "indexed": false,
          "internalType": "uint8",
          "name": "version",
          "type": "uint8"
        }
      ],
      "name": "Initialized",
      "type": "event"
    },
    {
      "anonymous": false,
      "inputs": [
        {
          "indexed": true,
          "internalType": "address",
          "name": "previousOwner",
          "type": "address"
        },
        {
          "indexed": true,
          "internalType": "address",
          "name": "newOwner",
          "type": "address"
        }
      ],
      "name": "OwnershipTransferred",
      "type": "event"
    },
    {
      "anonymous": false,
      "inputs": [
        {
          "indexed": true,
          "internalType": "bytes32",
          "name": "role",
          "type": "bytes32"
        },
        {
          "indexed": true,
          "internalType": "bytes32",
          "name": "previousAdminRole",
          "type": "bytes32"
        },
        {
          "indexed": true,
          "internalType": "bytes32",
          "name": "newAdminRole",
          "type": "bytes32"
        }
      ],
      "name": "RoleAdminChanged",
      "type": "event"
    },
    {
      "anonymous": false,
      "inputs": [
        {
          "indexed": true,
          "internalType": "bytes32",
          "name": "role",
          "type": "bytes32"
        },
        {
          "indexed": true,
          "internalType": "address",
          "name": "account",
          "type": "address"
        },
        {
          "indexed": true,
          "internalType": "address",
          "name": "sender",
          "type": "address"
        }
      ],
      "name": "RoleGranted",
      "type": "event"
    },
    {
      "anonymous": false,
      "inputs": [
        {
          "indexed": true,
          "internalType": "bytes32",
          "name": "role",
          "type": "bytes32"
        },
        {
          "indexed": true,
          "internalType": "address",
          "name": "account",
          "type": "address"
        },
        {
          "indexed": true,
          "internalType": "address",
          "name": "sender",
          "type": "address"
        }
      ],
      "name": "RoleRevoked",
      "type": "event"
    },
    {
      "inputs": [],
      "name": "DEFAULT_ADMIN_ROLE",
      "outputs": [
        {
          "internalType": "bytes32",
          "name": "",
          "type": "bytes32"
        }
      ],
      "stateMutability": "view",
      "type": "function"
    },
    {
      "inputs": [
        {
          "internalType": "address",
          "name": "_account",
          "type": "address"
        },
        {
          "internalType": "bool[]",
          "name": "_isIncreaseList",
          "type": "bool[]"
        },
        {
          "internalType": "uint256[]",
          "name": "_orderIDList",
          "type": "uint256[]"
        },
        {
          "internalType": "bool[]",
          "name": "_isLongList",
          "type": "bool[]"
        }
      ],
      "name": "cancelOrderList",
      "outputs": [],
      "stateMutability": "nonpayable",
      "type": "function"
    },
    {
      "inputs": [],
      "name": "collateralToken",
      "outputs": [
        {
          "internalType": "address",
          "name": "",
          "type": "address"
        }
      ],
      "stateMutability": "view",
      "type": "function"
    },
    {
      "inputs": [],
      "name": "collateralTokenDigits",
      "outputs": [
        {
          "internalType": "uint8",
          "name": "",
          "type": "uint8"
        }
      ],
      "stateMutability": "view",
      "type": "function"
    },
    {
      "inputs": [],
      "name": "feeRouter",
      "outputs": [
        {
          "internalType": "contract IFeeRouter",
          "name": "",
          "type": "address"
        }
      ],
      "stateMutability": "view",
      "type": "function"
    },
    {
      "inputs": [
        {
          "internalType": "bytes32",
          "name": "role",
          "type": "bytes32"
        }
      ],
      "name": "getRoleAdmin",
      "outputs": [
        {
          "internalType": "bytes32",
          "name": "",
          "type": "bytes32"
        }
      ],
      "stateMutability": "view",
      "type": "function"
    },
    {
      "inputs": [],
      "name": "globalValid",
      "outputs": [
        {
          "internalType": "address",
          "name": "",
          "type": "address"
        }
      ],
      "stateMutability": "view",
      "type": "function"
    },
    {
      "inputs": [
        {
          "internalType": "address",
          "name": "_account",
          "type": "address"
        }
      ],
      "name": "grantControllerRoleByMarketManager",
      "outputs": [],
      "stateMutability": "nonpayable",
      "type": "function"
    },
    {
      "inputs": [
        {
          "internalType": "bytes32",
          "name": "role",
          "type": "bytes32"
        },
        {
          "internalType": "address",
          "name": "account",
          "type": "address"
        }
      ],
      "name": "grantRole",
      "outputs": [],
      "stateMutability": "nonpayable",
      "type": "function"
    },
    {
      "inputs": [
        {
          "internalType": "bytes32",
          "name": "role",
          "type": "bytes32"
        },
        {
          "internalType": "address",
          "name": "account",
          "type": "address"
        }
      ],
      "name": "hasRole",
      "outputs": [
        {
          "internalType": "bool",
          "name": "",
          "type": "bool"
        }
      ],
      "stateMutability": "view",
      "type": "function"
    },
    {
      "inputs": [],
      "name": "indexToken",
      "outputs": [
        {
          "internalType": "address",
          "name": "",
          "type": "address"
        }
      ],
      "stateMutability": "view",
      "type": "function"
    },
    {
      "inputs": [],
      "name": "marketRouter",
      "outputs": [
        {
          "internalType": "address",
          "name": "",
          "type": "address"
        }
      ],
      "stateMutability": "view",
      "type": "function"
    },
    {
      "inputs": [],
      "name": "marketValid",
      "outputs": [
        {
          "internalType": "address",
          "name": "",
          "type": "address"
        }
      ],
      "stateMutability": "view",
      "type": "function"
    },
    {
      "inputs": [],
      "name": "name",
      "outputs": [
        {
          "internalType": "string",
          "name": "",
          "type": "string"
        }
      ],
      "stateMutability": "view",
      "type": "function"
    },
    {
      "inputs": [],
      "name": "orderBookLong",
      "outputs": [
        {
          "internalType": "contract IOrderBook",
          "name": "",
          "type": "address"
        }
      ],
      "stateMutability": "view",
      "type": "function"
    },
    {
      "inputs": [],
      "name": "orderBookShort",
      "outputs": [
        {
          "internalType": "contract IOrderBook",
          "name": "",
          "type": "address"
        }
      ],
      "stateMutability": "view",
      "type": "function"
    },
    {
      "inputs": [],
      "name": "orderMgr",
      "outputs": [
        {
          "internalType": "address",
          "name": "",
          "type": "address"
        }
      ],
      "stateMutability": "view",
      "type": "function"
    },
    {
      "inputs": [
        {
          "internalType": "bool",
          "name": "isLong",
          "type": "bool"
        },
        {
          "internalType": "bool",
          "name": "isOpen",
          "type": "bool"
        }
      ],
      "name": "orderStore",
      "outputs": [
        {
          "internalType": "contract IOrderStore",
          "name": "",
          "type": "address"
        }
      ],
      "stateMutability": "view",
      "type": "function"
    },
    {
      "inputs": [],
      "name": "owner",
      "outputs": [
        {
          "internalType": "address",
          "name": "",
          "type": "address"
        }
      ],
      "stateMutability": "view",
      "type": "function"
    },
    {
      "inputs": [],
      "name": "pluginGasLimit",
      "outputs": [
        {
          "internalType": "uint256",
          "name": "",
          "type": "uint256"
        }
      ],
      "stateMutability": "view",
      "type": "function"
    },
    {
      "inputs": [
        {
          "internalType": "uint256",
          "name": "",
          "type": "uint256"
        }
      ],
      "name": "plugins",
      "outputs": [
        {
          "internalType": "address",
          "name": "",
          "type": "address"
        }
      ],
      "stateMutability": "view",
      "type": "function"
    },
    {
      "inputs": [],
      "name": "positionAddMgr",
      "outputs": [
        {
          "internalType": "address",
          "name": "",
          "type": "address"
        }
      ],
      "stateMutability": "view",
      "type": "function"
    },
    {
      "inputs": [],
      "name": "positionBook",
      "outputs": [
        {
          "internalType": "contract IPositionBook",
          "name": "",
          "type": "address"
        }
      ],
      "stateMutability": "view",
      "type": "function"
    },
    {
      "inputs": [],
      "name": "positionStoreLong",
      "outputs": [
        {
          "internalType": "address",
          "name": "",
          "type": "address"
        }
      ],
      "stateMutability": "view",
      "type": "function"
    },
    {
      "inputs": [],
      "name": "positionStoreShort",
      "outputs": [
        {
          "internalType": "address",
          "name": "",
          "type": "address"
        }
      ],
      "stateMutability": "view",
      "type": "function"
    },
    {
      "inputs": [],
      "name": "positionSubMgr",
      "outputs": [
        {
          "internalType": "address",
          "name": "",
          "type": "address"
        }
      ],
      "stateMutability": "view",
      "type": "function"
    },
    {
      "inputs": [],
      "name": "priceFeed",
      "outputs": [
        {
          "internalType": "address",
          "name": "",
          "type": "address"
        }
      ],
      "stateMutability": "view",
      "type": "function"
    },
    {
      "inputs": [],
      "name": "renounceOwnership",
      "outputs": [],
      "stateMutability": "nonpayable",
      "type": "function"
    },
    {
      "inputs": [
        {
          "internalType": "bytes32",
          "name": "role",
          "type": "bytes32"
        },
        {
          "internalType": "address",
          "name": "account",
          "type": "address"
        }
      ],
      "name": "renounceRole",
      "outputs": [],
      "stateMutability": "nonpayable",
      "type": "function"
    },
    {
      "inputs": [
        {
          "internalType": "bytes32",
          "name": "role",
          "type": "bytes32"
        },
        {
          "internalType": "address",
          "name": "account",
          "type": "address"
        }
      ],
      "name": "revokeRole",
      "outputs": [],
      "stateMutability": "nonpayable",
      "type": "function"
    },
    {
      "inputs": [
        {
          "internalType": "address[]",
          "name": "addrs",
          "type": "address[]"
        }
      ],
      "name": "setContracts",
      "outputs": [],
      "stateMutability": "nonpayable",
      "type": "function"
    },
    {
      "inputs": [
        {
          "internalType": "bytes4",
          "name": "interfaceId",
          "type": "bytes4"
        }
      ],
      "name": "supportsInterface",
      "outputs": [
        {
          "internalType": "bool",
          "name": "",
          "type": "bool"
        }
      ],
      "stateMutability": "view",
      "type": "function"
    },
    {
      "inputs": [
        {
          "internalType": "bytes32[]",
          "name": "_orderKey",
          "type": "bytes32[]"
        },
        {
          "internalType": "bool[]",
          "name": "_isLong",
          "type": "bool[]"
        },
        {
          "internalType": "bool[]",
          "name": "_isIncrease",
          "type": "bool[]"
        },
        {
          "internalType": "string[]",
          "name": "reasons",
          "type": "string[]"
        }
      ],
      "name": "sysCancelOrder",
      "outputs": [],
      "stateMutability": "nonpayable",
      "type": "function"
    },
    {
      "inputs": [
        {
          "internalType": "address",
          "name": "to",
          "type": "address"
        }
      ],
      "name": "transferAdmin",
      "outputs": [],
      "stateMutability": "nonpayable",
      "type": "function"
    },
    {
      "inputs": [
        {
          "internalType": "address",
          "name": "newOwner",
          "type": "address"
        }
      ],
      "name": "transferOwnership",
      "outputs": [],
      "stateMutability": "nonpayable",
      "type": "function"
    },
    {
      "inputs": [
        {
          "components": [
            {
              "internalType": "address",
              "name": "_market",
              "type": "address"
            },
            {
              "internalType": "bool",
              "name": "_isLong",
              "type": "bool"
            },
            {
              "internalType": "uint256",
              "name": "_oraclePrice",
              "type": "uint256"
            },
            {
              "internalType": "bool",
              "name": "isOpen",
              "type": "bool"
            },
            {
              "internalType": "bool",
              "name": "isCreate",
              "type": "bool"
            },
            {
              "components": [
                {
                  "internalType": "uint8",
                  "name": "version",
                  "type": "uint8"
                },
                {
                  "internalType": "uint32",
                  "name": "updatedAtBlock",
                  "type": "uint32"
                },
                {
                  "internalType": "uint8",
                  "name": "triggerAbove",
                  "type": "uint8"
                },
                {
                  "internalType": "address",
                  "name": "account",
                  "type": "address"
                },
                {
                  "internalType": "uint48",
                  "name": "extra3",
                  "type": "uint48"
                },
                {
                  "internalType": "uint128",
                  "name": "collateral",
                  "type": "uint128"
                },
                {
                  "internalType": "uint128",
                  "name": "size",
                  "type": "uint128"
                },
                {
                  "internalType": "uint128",
                  "name": "price",
                  "type": "uint128"
                },
                {
                  "internalType": "uint128",
                  "name": "extra1",
                  "type": "uint128"
                },
                {
                  "internalType": "uint64",
                  "name": "orderID",
                  "type": "uint64"
                },
                {
                  "internalType": "uint64",
                  "name": "extra2",
                  "type": "uint64"
                },
                {
                  "internalType": "uint128",
                  "name": "extra0",
                  "type": "uint128"
                },
                {
                  "internalType": "bytes32",
                  "name": "refCode",
                  "type": "bytes32"
                }
              ],
              "internalType": "struct Order.Props",
              "name": "_order",
              "type": "tuple"
            },
            {
              "internalType": "uint256[]",
              "name": "inputs",
              "type": "uint256[]"
            }
          ],
          "internalType": "struct MarketDataTypes.UpdateOrderInputs",
          "name": "_vars",
          "type": "tuple"
        }
      ],
      "name": "updateOrder",
      "outputs": [],
      "stateMutability": "nonpayable",
      "type": "function"
    },
    {
      "inputs": [],
      "name": "vaultRouter",
      "outputs": [
        {
          "internalType": "address",
          "name": "",
          "type": "address"
        }
      ],
      "stateMutability": "view",
      "type": "function"
    }
  ],
  "bytecode": "0x60806040523480156200001157600080fd5b5060016046556000620000243362000041565b6200003a816200009360201b620019811760201c565b5062000173565b604880546001600160a01b038381166001600160a01b0319831681179093556040519116919082907f8be0079c531659141344cd1fd0a4f28419497f9722a3daafe3b4186f6b6457e090600090a35050565b42604955620000a23362000041565b620000af600033620000bf565b620000bc600082620000bf565b50565b620000cb8282620000cf565b5050565b60008281526047602090815260408083206001600160a01b038516845290915290205460ff16620000cb5760008281526047602090815260408083206001600160a01b03851684529091529020805460ff191660011790556200012f3390565b6001600160a01b0316816001600160a01b0316837f2f8788117e7eff1d82e926ec794901d17c78024a50270940304540a733656f0d60405160405180910390a45050565b613f7f80620001836000396000f3fe608060405234801561001057600080fd5b50600436106102275760003560e01c806398277cd811610130578063b894300d116100b8578063d547741f1161007c578063d547741f146104eb578063e7d015f2146104fe578063f0a317eb14610511578063f29ebf6114610524578063f2fde38b1461053757600080fd5b8063b894300d1461048c578063c54dc3d61461049f578063d12dbde4146104b2578063d37c441c146104c5578063d49ff78d146104d857600080fd5b8063ac0b05a6116100ff578063ac0b05a614610421578063ac0c7aa414610434578063b038beb814610447578063b2016bd41461045a578063b21dc9cb1461046d57600080fd5b806398277cd8146103bb578063a0cbf50c146103ce578063a217fddf146103e1578063a2640454146103e957600080fd5b806345ccf5c5116101b35780637b2fd1e5116101825780637b2fd1e51461035e5780637fe4a698146103715780638a6ca35d146103845780638da5cb5b1461039757806391d14854146103a857600080fd5b806345ccf5c51461031d578063715018a614610330578063741bef1a1461033857806375829def1461034b57600080fd5b806307e87545116101fa57806307e87545146102ac578063248a9ca3146102bf5780632f2ff15d146102e2578063301f6fe9146102f757806336568abe1461030a57600080fd5b806301ffc9a71461022c57806303deb0291461025457806305ba9ae91461026c57806306fdde0314610297575b600080fd5b61023f61023a366004612c8a565b61054a565b60405190151581526020015b60405180910390f35b61025e620a2c2a81565b60405190815260200161024b565b60065461027f906001600160a01b031681565b6040516001600160a01b03909116815260200161024b565b61029f610581565b60405161024b9190612d04565b600a5461027f906001600160a01b031681565b61025e6102cd366004612d17565b60009081526047602052604090206001015490565b6102f56102f0366004612d55565b61060f565b005b6102f5610305366004612f44565b610639565b6102f5610318366004612d55565b610916565b600b5461027f906001600160a01b031681565b6102f5610994565b60095461027f906001600160a01b031681565b6102f5610359366004612fde565b6109a8565b60055461027f906001600160a01b031681565b6102f561037f366004612fde565b6109d2565b600e5461027f906001600160a01b031681565b6048546001600160a01b031661027f565b61023f6103b6366004612d55565b6109fc565b6102f56103c9366004612ffb565b610a27565b600f5461027f906001600160a01b031681565b61025e600081565b61027f6103f7366004613089565b9015156000908152600760209081526040808320931515835292905220546001600160a01b031690565b60035461027f906001600160a01b031681565b6102f561044236600461319a565b610cb3565b6102f561045536600461341f565b6110a9565b60045461027f906001600160a01b031681565b60135461047a9060ff1681565b60405160ff909116815260200161024b565b60005461027f906001600160a01b031681565b60015461027f906001600160a01b031681565b60105461027f906001600160a01b031681565b600c5461027f906001600160a01b031681565b600d5461027f906001600160a01b031681565b6102f56104f9366004612d55565b6118b9565b60025461027f906001600160a01b031681565b61027f61051f366004612d17565b6118de565b60085461027f906001600160a01b031681565b6102f5610545366004612fde565b611908565b60006001600160e01b03198216637965db0b60e01b148061057b57506301ffc9a760e01b6001600160e01b03198316145b92915050565b6011805461058e906134ed565b80601f01602080910402602001604051908101604052809291908181526020018280546105ba906134ed565b80156106075780601f106105dc57610100808354040283529160200191610607565b820191906000526020600020905b8154815290600101906020018083116105ea57829003601f168201915b505050505081565b60008281526047602052604090206001015461062a816119a4565b61063483836119ae565b505050565b81518351146106875760405162461bcd60e51b815260206004820152601560248201527409ee4c8cae49acee474d2dce0eae840d8cadccee8d605b1b60448201526064015b60405180910390fd5b81518151146106d05760405162461bcd60e51b815260206004820152601560248201527409ee4c8cae49acee474d2dce0eae840d8cadccee8d605b1b604482015260640161067e565b81516000805b828110156108e65760008482815181106106f2576106f2613527565b602002602001015161070f576006546001600160a01b031661071c565b6005546001600160a01b03165b6001600160a01b0316638f5492068988858151811061073d5761073d613527565b60200260200101518a868151811061075757610757613527565b60209081029190910101516040516001600160e01b031960e086901b1681526001600160a01b0390931660048401526024830191909152151560448201526064016000604051808303816000875af11580156107b7573d6000803e3d6000fd5b505050506040513d6000823e601f3d908101601f191682016040526107df9190810190613679565b905060005b81518110156108d3578181815181106107ff576107ff613527565b602002602001015161012001516001600160401b0316600003156108c3576108b66040518060c0016040528084848151811061083d5761083d613527565b6020026020010151815260200188868151811061085c5761085c613527565b6020026020010151151581526020018a868151811061087d5761087d613527565b60200260200101511515815260200160001515815260200160001515815260200160405180602001604052806000815250815250611a34565b6108c0908561371d565b93505b6108cc81613730565b90506107e4565b5050806108df90613730565b90506106d6565b50806000036108f6575050610910565b60045461090d906001600160a01b0316878361203e565b50505b50505050565b6001600160a01b03811633146109865760405162461bcd60e51b815260206004820152602f60248201527f416363657373436f6e74726f6c3a2063616e206f6e6c792072656e6f756e636560448201526e103937b632b9903337b91039b2b63360891b606482015260840161067e565b61099082826120a8565b5050565b61099c61210f565b6109a66000612169565b565b60006109b3816119a4565b6109be6000836121bb565b6109c782612169565b6109906000336120a8565b7f8d1089725c0dc266707fa6207730fb801dcd03108bfed7a21099bd303651d2b7610227816119a4565b60009182526047602090815260408084206001600160a01b0393909316845291905290205460ff1690565b80600081518110610a3a57610a3a613527565b6020026020010151600360006101000a8154816001600160a01b0302191690836001600160a01b0316021790555080600181518110610a7b57610a7b613527565b6020026020010151600560006101000a8154816001600160a01b0302191690836001600160a01b0316021790555080600281518110610abc57610abc613527565b6020026020010151600660006101000a8154816001600160a01b0302191690836001600160a01b0316021790555080600381518110610afd57610afd613527565b60200260200101516000806101000a8154816001600160a01b0302191690836001600160a01b0316021790555080600581518110610b3d57610b3d613527565b6020026020010151600e60006101000a8154816001600160a01b0302191690836001600160a01b0316021790555080600681518110610b7e57610b7e613527565b6020026020010151600d60006101000a8154816001600160a01b0302191690836001600160a01b0316021790555080600781518110610bbf57610bbf613527565b6020026020010151600860006101000a8154816001600160a01b0302191690836001600160a01b0316021790555080600881518110610c0057610c00613527565b6020026020010151600c60006101000a8154816001600160a01b0302191690836001600160a01b0316021790555080600981518110610c4157610c41613527565b6020026020010151600160006101000a8154816001600160a01b0302191690836001600160a01b0316021790555080600a81518110610c8257610c82613527565b6020026020010151600f60006101000a8154816001600160a01b0302191690836001600160a01b0316021790555050565b8251845114610cc157600080fd5b8251825114610ccf57600080fd5b60005b84518110156110a2576000801b858281518110610cf157610cf1613527565b6020026020010151031561109057610d21828281518110610d1457610d14613527565b60200260200101516121c5565b15611090576000848281518110610d3a57610d3a613527565b6020026020010151610d57576006546001600160a01b0316610d64565b6005546001600160a01b03165b9050838281518110610d7857610d78613527565b6020026020010151610deb57806001600160a01b0316636d0785666040518163ffffffff1660e01b8152600401602060405180830381865afa158015610dc2573d6000803e3d6000fd5b505050506040513d601f19601f82011682018060405250810190610de69190613749565b610e4d565b806001600160a01b0316637e1dcaf76040518163ffffffff1660e01b8152600401602060405180830381865afa158015610e29573d6000803e3d6000fd5b505050506040513d601f19601f82011682018060405250810190610e4d9190613749565b6001600160a01b031663f6b102a6878481518110610e6d57610e6d613527565b60200260200101516040518263ffffffff1660e01b8152600401610e9391815260200190565b602060405180830381865afa158015610eb0573d6000803e3d6000fd5b505050506040513d601f19601f82011682018060405250810190610ed49190613771565b1515600003610ee35750611090565b6000816001600160a01b03166345824d67888581518110610f0657610f06613527565b6020026020010151878681518110610f2057610f20613527565b60200260200101516040518363ffffffff1660e01b8152600401610f509291909182521515602082015260400190565b6000604051808303816000875af1158015610f6f573d6000803e3d6000fd5b505050506040513d6000823e601f3d908101601f19168201604052610f979190810190613679565b905060005b815181101561108c57818181518110610fb757610fb7613527565b602002602001015161012001516001600160401b03166000031561107a576110786040518060c00160405280848481518110610ff557610ff5613527565b6020026020010151815260200189878151811061101457611014613527565b60200260200101511515815260200188878151811061103557611035613527565b60200260200101511515815260200160011515815260200160011515815260200187878151811061106857611068613527565b6020026020010151815250611a34565b505b8061108481613730565b915050610f9c565b5050505b8061109a81613730565b915050610cd2565b5050505050565b806060015180156110bb575080608001515b15611129576000546001600160a01b031663015fc6136110da8361221b565b6040518263ffffffff1660e01b81526004016110f891815260200190565b60006040518083038186803b15801561111057600080fd5b505afa158015611124573d6000803e3d6000fd5b505050505b611140816060015115158260200151151514612257565b604082015261114e816122dd565b1561123f578060200151151581606001511515036111d7576111bc61271061117583612318565b8360a0015160e001516001600160801b0316611191919061378e565b61119b91906137a5565b8260a0015160e001516001600160801b03166111b7919061371d565b612346565b60a08201516001600160801b0390911660e09091015261123f565b6112286127106111e683612318565b8360a0015160e001516001600160801b0316611202919061378e565b61120c91906137a5565b8260a0015160e001516001600160801b03166111b791906137c7565b60a08201516001600160801b0390911660e0909101525b6000816020015161125b576006546001600160a01b0316611268565b6005546001600160a01b03165b90508160800151801561127c575081606001515b156113725760005460085460405163c8830bf560e01b81526001600160a01b039283169263592b1e2a92869291169063c8830bf5906112bf9084906004016139aa565b602060405180830381865afa1580156112dc573d6000803e3d6000fd5b505050506040513d601f19601f8201168201806040525081019061130091906139bd565b6040518363ffffffff1660e01b815260040161131d9291906139d6565b60006040518083038186803b15801561133557600080fd5b505afa158015611349573d6000803e3d6000fd5b505050506113596111b78361221b565b60a0808401516001600160801b03909216910152611646565b8160800151801561138557508160600151155b156116465760035460a0830151606001516040808501516020860151915163bc95baad60e01b81526001600160a01b03938416600482015260248101919091529015156044820152600092919091169063bc95baad9060640161018060405180830381865afa1580156113fc573d6000803e3d6000fd5b505050506040513d601f19601f820116820180604052508101906114209190613a0f565b905061145d6111b760008560a001516080015165ffffffffffff161183608001518660a0015160c001516001600160801b03168560a001516123b3565b60a0808501516001600160801b039092169101526114836000546001600160a01b031690565b60a0808301518582015191820151608085015160c09093015160085460405163c8830bf560e01b81526001600160a01b03968716966301b8fd7c966001600160801b03909516949392169063c8830bf5906114e2908c906004016139aa565b602060405180830381865afa1580156114ff573d6000803e3d6000fd5b505050506040513d601f19601f8201168201806040525081019061152391906139bd565b61155a8a602001518b606001519015156000908152600760209081526040808320931515835292905220546001600160a01b031690565b60a08b01516060015160405163350cffdd60e11b81526001600160a01b039182166004820152911690636a19ffba90602401602060405180830381865afa1580156115a9573d6000803e3d6000fd5b505050506040513d601f19601f820116820180604052508101906115cd91906139bd565b6040516001600160e01b031960e089901b1681526004810196909652602486019490945260448501929092526001600160801b03166064840152608483015260a482015260c40160006040518083038186803b15801561162c57600080fd5b505afa158015611640573d6000803e3d6000fd5b50505050505b604080516001808252818301909252600091816020015b6116ff6040805160e08082018352600080835260208084018290528385018290526060808501839052608080860184905286516101a081018852848152928301849052958201839052810182905293840181905260a084810182905260c0850182905291840181905261010084018190526101208401819052610140840181905261016084018190526101808401529091908201908152602001606081525090565b81526020019060019003908161165d579050509050828160008151811061172857611728613527565b602002602001018190525082608001516117b157604051630c31673960e01b81526001600160a01b03831690630c316739906117689086906004016139aa565b6101a0604051808303816000875af1158015611788573d6000803e3d6000fd5b505050506040513d601f19601f820116820180604052508101906117ac9190613ac5565b61183f565b6040516359cc542160e11b81526001600160a01b0383169063b398a842906117dd908490600401613ae2565b6000604051808303816000875af11580156117fc573d6000803e3d6000fd5b505050506040513d6000823e601f3d908101601f191682016040526118249190810190613679565b60008151811061183657611836613527565b60200260200101515b60a08401526012805460408051602080840282018101909252828152610634938793620a2c2a9383018282801561189f57602002820191906000526020600020905b81546001600160a01b03168152600190910190602001808311611881575b50506004546001600160a01b031692503091506123e39050565b6000828152604760205260409020600101546118d4816119a4565b61063483836120a8565b601281815481106118ee57600080fd5b6000918252602090912001546001600160a01b0316905081565b61191061210f565b6001600160a01b0381166119755760405162461bcd60e51b815260206004820152602660248201527f4f776e61626c653a206e6577206f776e657220697320746865207a65726f206160448201526564647265737360d01b606482015260840161067e565b61197e81612169565b50565b4260495561198e33612169565b6119996000336121bb565b61197e6000826121bb565b61197e8133612630565b6119b882826109fc565b6109905760008281526047602090815260408083206001600160a01b03851684529091529020805460ff191660011790556119f03390565b6001600160a01b0316816001600160a01b0316837f2f8788117e7eff1d82e926ec794901d17c78024a50270940304540a733656f0d60405160405180910390a45050565b6000808260800151611a47576000611ab3565b6008546040516309d3989760e01b81523060048201526001600160a01b03909116906309d3989790602401602060405180830381865afa158015611a8f573d6000803e3d6000fd5b505050506040513d601f19601f82011682018060405250810190611ab391906139bd565b600480546040805163313ce56760e01b81529051939450600093611b2c9386936001600160a01b03169263313ce56792818301926020928290030181865afa158015611b03573d6000803e3d6000fd5b505050506040513d601f19601f82011682018060405250810190611b279190613b44565b612689565b905083604001518015611b4d5750835160a001516001600160801b03168211155b15611cf0578115611c88576004805460085460405163095ea7b360e01b81526001600160a01b039182169381019390935260248301849052169063095ea7b3906044016020604051808303816000875af1158015611baf573d6000803e3d6000fd5b505050506040513d601f19601f82011682018060405250810190611bd39190613771565b5060408051600480825260a08201909252600091602082016080803683370190505090508281600381518110611c0b57611c0b613527565b60209081029190910101526008548551606001516004805460405163e50f19ef60e01b81526001600160a01b039485169463e50f19ef94611c5494909390911691879101613b61565b600060405180830381600087803b158015611c6e57600080fd5b505af1158015611c82573d6000803e3d6000fd5b50505050505b836060015115611ccf576004548451606081015160a090910151611cca926001600160a01b03169190611cc59086906001600160801b03166137c7565b61203e565b611ecb565b835160a00151611ce99083906001600160801b03166137c7565b9250611ecb565b6040840151158015611d03575083608001515b15611ecb576003548451606001516020860151604051635a227c7560e11b81526001600160a01b039283166004820152602481018690529015156044820152600092919091169063b444f8ea906064016020604051808303816000875af1158015611d72573d6000803e3d6000fd5b505050506040513d601f19601f82011682018060405250810190611d9691906139bd565b60408051600480825260a0820190925291925060009190602082016080803683370190505090508181600381518110611dd157611dd1613527565b60209081029190910101526004805460085460405163095ea7b360e01b81526001600160a01b039182169381019390935260248301869052169063095ea7b3906044016020604051808303816000875af1158015611e33573d6000803e3d6000fd5b505050506040513d601f19601f82011682018060405250810190611e579190613771565b506008548651606001516004805460405163e50f19ef60e01b81526001600160a01b039485169463e50f19ef94611e9694909390911691879101613b61565b600060405180830381600087803b158015611eb057600080fd5b505af1158015611ec4573d6000803e3d6000fd5b5050505050505b604080516101e0810182526000602080830182815293830182905260608084018390526080840183905260a0840183905260c0840183905260e08401839052610100840183905261012084018390526101408401839052610160840183905261018084018390526101a08401929092526101c08301919091523082528601511515909152611f596001612257565b6040808301919091528581015115156060830152805160a0810182528651815260208101839052608087015161203692820190611f97576005611f9a565b60065b6007811115611fab57611fab613bc3565b60ff1681526020018760a0015181526020016000815250620a2c2a601280548060200260200160405190810160405280929190818152602001828054801561201c57602002820191906000526020600020905b81546001600160a01b03168152600190910190602001808311611ffe575b50506004546001600160a01b031692503091506126b99050565b505050919050565b8060000361204b57505050565b600083905061209282856001600160a01b031663313ce5676040518163ffffffff1660e01b8152600401602060405180830381865afa158015611b03573d6000803e3d6000fd5b91506109106001600160a01b038216848461283d565b6120b282826109fc565b156109905760008281526047602090815260408083206001600160a01b0385168085529252808320805460ff1916905551339285917ff6391f5c32d9c69d2a47ea670b442974b53935d1edc7fd64eb21e047a839171b9190a45050565b6048546001600160a01b031633146109a65760405162461bcd60e51b815260206004820181905260248201527f4f776e61626c653a2063616c6c6572206973206e6f7420746865206f776e6572604482015260640161067e565b604880546001600160a01b038381166001600160a01b0319831681179093556040519116919082907f8be0079c531659141344cd1fd0a4f28419497f9722a3daafe3b4186f6b6457e090600090a35050565b61099082826119ae565b6000612206826040518060400160405280601b81526020017f506f736974696f6e4164644d67723a7472696767657261626f7665000000000081525061288f565b1561221357506000919050565b506001919050565b600060018260c0015151101561223257600061057b565b8160c0015160008151811061224957612249613527565b602002602001015192915050565b6009546002546040516303b6b4bb60e51b81526001600160a01b0391821660048201528315156024820152600092919091169081906376d6976090604401602060405180830381865afa1580156122b2573d6000803e3d6000fd5b505050506040513d601f19601f820116820180604052508101906122d691906139bd565b9392505050565b600060028260c00151511015801561057b575060008260c0015160018151811061230957612309613527565b60200260200101511192915050565b600060038260c0015151101561232f57600061057b565b8160c0015160028151811061224957612249613527565b60006001600160801b038211156123af5760405162461bcd60e51b815260206004820152602760248201527f53616665436173743a2076616c756520646f65736e27742066697420696e20316044820152663238206269747360c81b606482015260840161067e565b5090565b600084156123d757836123c6848461378e565b6123d091906137a5565b90506123db565b5060005b949350505050565b6040516370a0823160e01b81526001600160a01b038281166004830152600091908416906370a0823190602401602060405180830381865afa15801561242d573d6000803e3d6000fd5b505050506040513d601f19601f8201168201806040525081019061245191906139bd565b905060005b84518110156125675784818151811061247157612471613527565b60200260200101516001600160a01b031663612c39b76040518163ffffffff1660e01b8152600401606060405180830381865afa1580156124b6573d6000803e3d6000fd5b505050506040513d601f19601f820116820180604052508101906124da9190613bd9565b6020015115612555578481815181106124f5576124f5613527565b60200260200101516001600160a01b031663cce9a2f3886040518263ffffffff1660e01b815260040161252891906139aa565b600060405180830381600087803b15801561254257600080fd5b505af1925050508015612553575060015b505b8061255f81613730565b915050612456565b506040516370a0823160e01b81526001600160a01b038381166004830152600091908516906370a0823190602401602060405180830381865afa1580156125b2573d6000803e3d6000fd5b505050506040513d601f19601f820116820180604052508101906125d691906139bd565b90508181146126275760405162461bcd60e51b815260206004820152601b60248201527f455243323020746f6b656e2062616c616e6365206368616e6765640000000000604482015260640161067e565b50505050505050565b61263a82826109fc565b61099057612647816128e8565b6126528360206128fa565b604051602001612663929190613c4a565b60408051601f198184030181529082905262461bcd60e51b825261067e91600401612d04565b60006126976012600a613da3565b6126a560ff8416600a613db2565b6126af908561378e565b6122d691906137a5565b6040516370a0823160e01b81526001600160a01b038281166004830152600091908416906370a0823190602401602060405180830381865afa158015612703573d6000803e3d6000fd5b505050506040513d601f19601f8201168201806040525081019061272791906139bd565b905060005b84518110156125675784818151811061274757612747613527565b60200260200101516001600160a01b031663612c39b76040518163ffffffff1660e01b8152600401606060405180830381865afa15801561278c573d6000803e3d6000fd5b505050506040513d601f19601f820116820180604052508101906127b09190613bd9565b604001511561282b578481815181106127cb576127cb613527565b60200260200101516001600160a01b031663718cb58a886040518263ffffffff1660e01b81526004016127fe9190613dbe565b600060405180830381600087803b15801561281857600080fd5b505af1925050508015612829575060015b505b8061283581613730565b91505061272c565b604080516001600160a01b038416602482015260448082018490528251808303909101815260649091019091526020810180516001600160e01b031663a9059cbb60e01b179052610634908490612a95565b6000816040516020016128a29190613f16565b60405160208183030381529060405280519060200120836040516020016128c99190613f16565b6040516020818303038152906040528051906020012014905092915050565b606061057b6001600160a01b03831660145b6060600061290983600261378e565b61291490600261371d565b6001600160401b0381111561292b5761292b612d85565b6040519080825280601f01601f191660200182016040528015612955576020820181803683370190505b509050600360fc1b8160008151811061297057612970613527565b60200101906001600160f81b031916908160001a905350600f60fb1b8160018151811061299f5761299f613527565b60200101906001600160f81b031916908160001a90535060006129c384600261378e565b6129ce90600161371d565b90505b6001811115612a46576f181899199a1a9b1b9c1cb0b131b232b360811b85600f1660108110612a0257612a02613527565b1a60f81b828281518110612a1857612a18613527565b60200101906001600160f81b031916908160001a90535060049490941c93612a3f81613f32565b90506129d1565b5083156122d65760405162461bcd60e51b815260206004820181905260248201527f537472696e67733a20686578206c656e67746820696e73756666696369656e74604482015260640161067e565b6000612aea826040518060400160405280602081526020017f5361666545524332303a206c6f772d6c6576656c2063616c6c206661696c6564815250856001600160a01b0316612b679092919063ffffffff16565b8051909150156106345780806020019051810190612b089190613771565b6106345760405162461bcd60e51b815260206004820152602a60248201527f5361666545524332303a204552433230206f7065726174696f6e20646964206e6044820152691bdd081cdd58d8d9595960b21b606482015260840161067e565b60606123db848460008585600080866001600160a01b03168587604051612b8e9190613f16565b60006040518083038185875af1925050503d8060008114612bcb576040519150601f19603f3d011682016040523d82523d6000602084013e612bd0565b606091505b5091509150612be187838387612bec565b979650505050505050565b60608315612c5b578251600003612c54576001600160a01b0385163b612c545760405162461bcd60e51b815260206004820152601d60248201527f416464726573733a2063616c6c20746f206e6f6e2d636f6e7472616374000000604482015260640161067e565b50816123db565b6123db8383815115612c705781518083602001fd5b8060405162461bcd60e51b815260040161067e9190612d04565b600060208284031215612c9c57600080fd5b81356001600160e01b0319811681146122d657600080fd5b60005b83811015612ccf578181015183820152602001612cb7565b50506000910152565b60008151808452612cf0816020860160208601612cb4565b601f01601f19169290920160200192915050565b6020815260006122d66020830184612cd8565b600060208284031215612d2957600080fd5b5035919050565b6001600160a01b038116811461197e57600080fd5b8035612d5081612d30565b919050565b60008060408385031215612d6857600080fd5b823591506020830135612d7a81612d30565b809150509250929050565b634e487b7160e01b600052604160045260246000fd5b6040516101a081016001600160401b0381118282101715612dbe57612dbe612d85565b60405290565b60405160e081016001600160401b0381118282101715612dbe57612dbe612d85565b60405161018081016001600160401b0381118282101715612dbe57612dbe612d85565b604051601f8201601f191681016001600160401b0381118282101715612e3157612e31612d85565b604052919050565b60006001600160401b03821115612e5257612e52612d85565b5060051b60200190565b801515811461197e57600080fd5b8035612d5081612e5c565b600082601f830112612e8657600080fd5b81356020612e9b612e9683612e39565b612e09565b82815260059290921b84018101918181019086841115612eba57600080fd5b8286015b84811015612ede578035612ed181612e5c565b8352918301918301612ebe565b509695505050505050565b600082601f830112612efa57600080fd5b81356020612f0a612e9683612e39565b82815260059290921b84018101918181019086841115612f2957600080fd5b8286015b84811015612ede5780358352918301918301612f2d565b60008060008060808587031215612f5a57600080fd5b8435612f6581612d30565b935060208501356001600160401b0380821115612f8157600080fd5b612f8d88838901612e75565b94506040870135915080821115612fa357600080fd5b612faf88838901612ee9565b93506060870135915080821115612fc557600080fd5b50612fd287828801612e75565b91505092959194509250565b600060208284031215612ff057600080fd5b81356122d681612d30565b6000602080838503121561300e57600080fd5b82356001600160401b0381111561302457600080fd5b8301601f8101851361303557600080fd5b8035613043612e9682612e39565b81815260059190911b8201830190838101908783111561306257600080fd5b928401925b82841015612be157833561307a81612d30565b82529284019290840190613067565b6000806040838503121561309c57600080fd5b82356130a781612e5c565b91506020830135612d7a81612e5c565b6000601f83818401126130c957600080fd5b823560206130d9612e9683612e39565b82815260059290921b850181019181810190878411156130f857600080fd5b8287015b8481101561318e5780356001600160401b038082111561311c5760008081fd5b818a0191508a603f8301126131315760008081fd5b8582013560408282111561314757613147612d85565b613158828b01601f19168901612e09565b92508183528c8183860101111561316f5760008081fd5b81818501898501375060009082018701528452509183019183016130fc565b50979650505050505050565b600080600080608085870312156131b057600080fd5b84356001600160401b03808211156131c757600080fd5b818701915087601f8301126131db57600080fd5b813560206131eb612e9683612e39565b82815260059290921b8401810191818101908b84111561320a57600080fd5b948201945b838610156132285785358252948201949082019061320f565b9850508801359250508082111561323e57600080fd5b61324a88838901612e75565b9450604087013591508082111561326057600080fd5b61326c88838901612e75565b9350606087013591508082111561328257600080fd5b50612fd2878288016130b7565b60ff8116811461197e57600080fd5b8035612d508161328f565b63ffffffff8116811461197e57600080fd5b8035612d50816132a9565b65ffffffffffff8116811461197e57600080fd5b8035612d50816132c6565b6001600160801b038116811461197e57600080fd5b8035612d50816132e5565b6001600160401b038116811461197e57600080fd5b8035612d5081613305565b60006101a0828403121561333857600080fd5b613340612d9b565b905061334b8261329e565b8152613359602083016132bb565b602082015261336a6040830161329e565b604082015261337b60608301612d45565b606082015261338c608083016132da565b608082015261339d60a083016132fa565b60a08201526133ae60c083016132fa565b60c08201526133bf60e083016132fa565b60e08201526101006133d28184016132fa565b908201526101206133e483820161331a565b908201526101406133f683820161331a565b908201526101606134088382016132fa565b818301525061018080830135818301525092915050565b60006020828403121561343157600080fd5b81356001600160401b038082111561344857600080fd5b90830190610260828603121561345d57600080fd5b613465612dc4565b61346e83612d45565b815261347c60208401612e6a565b60208201526040830135604082015261349760608401612e6a565b60608201526134a860808401612e6a565b60808201526134ba8660a08501613325565b60a0820152610240830135828111156134d257600080fd5b6134de87828601612ee9565b60c08301525095945050505050565b600181811c9082168061350157607f821691505b60208210810361352157634e487b7160e01b600052602260045260246000fd5b50919050565b634e487b7160e01b600052603260045260246000fd5b8051612d508161328f565b8051612d50816132a9565b8051612d5081612d30565b8051612d50816132c6565b8051612d50816132e5565b8051612d5081613305565b60006101a0828403121561359257600080fd5b61359a612d9b565b90506135a58261353d565b81526135b360208301613548565b60208201526135c46040830161353d565b60408201526135d560608301613553565b60608201526135e66080830161355e565b60808201526135f760a08301613569565b60a082015261360860c08301613569565b60c082015261361960e08301613569565b60e082015261010061362c818401613569565b9082015261012061363e838201613574565b90820152610140613650838201613574565b90820152610160613662838201613569565b818301525061018080830151818301525092915050565b6000602080838503121561368c57600080fd5b82516001600160401b038111156136a257600080fd5b8301601f810185136136b357600080fd5b80516136c1612e9682612e39565b8181526101a091820283018401918482019190888411156136e157600080fd5b938501935b8385101561318e576136f8898661357f565b835293840193918501916136e6565b634e487b7160e01b600052601160045260246000fd5b8082018082111561057b5761057b613707565b60006001820161374257613742613707565b5060010190565b60006020828403121561375b57600080fd5b81516122d681612d30565b8051612d5081612e5c565b60006020828403121561378357600080fd5b81516122d681612e5c565b808202811582820484141761057b5761057b613707565b6000826137c257634e487b7160e01b600052601260045260246000fd5b500490565b8181038181111561057b5761057b613707565b805160ff16825260208101516137f8602084018263ffffffff169052565b50604081015161380d604084018260ff169052565b50606081015161382860608401826001600160a01b03169052565b506080810151613842608084018265ffffffffffff169052565b5060a081015161385d60a08401826001600160801b03169052565b5060c081015161387860c08401826001600160801b03169052565b5060e081015161389360e08401826001600160801b03169052565b50610100818101516001600160801b038116848301525050610120818101516001600160401b038116848301525050610140818101516001600160401b038116848301525050610160818101516001600160801b03811684830152505061018090810151910152565b600081518084526020808501945080840160005b8381101561392c57815187529582019590820190600101613910565b509495945050505050565b600061026060018060a01b0383511684526020830151151560208501526040830151604085015260608301511515606085015260808301511515608085015260a083015161398860a08601826137da565b5060c0830151816102408601526139a1828601826138fc565b95945050505050565b6020815260006122d66020830184613937565b6000602082840312156139cf57600080fd5b5051919050565b6040815260006139e96040830185613937565b90508260208301529392505050565b80516001600160d81b0381168114612d5057600080fd5b60006101808284031215613a2257600080fd5b613a2a612de6565b613a3383613553565b8152613a4160208401613766565b6020820152613a5260408401613548565b6040820152613a63606084016139f8565b60608201526080838101519082015260a0808401519082015260c0808401519082015260e08084015190820152610100808401519082015261012080840151908201526101408084015190820152610160928301519281019290925250919050565b60006101a08284031215613ad857600080fd5b6122d6838361357f565b6000602080830181845280855180835260408601915060408160051b870101925083870160005b82811015613b3757603f19888603018452613b25858351613937565b94509285019290850190600101613b09565b5092979650505050505050565b600060208284031215613b5657600080fd5b81516122d68161328f565b6001600160a01b0384811682528316602080830191909152606060408301819052835190830181905260009184810191608085019190845b81811015613bb557845184529382019392820192600101613b99565b509198975050505050505050565b634e487b7160e01b600052602160045260246000fd5b600060608284031215613beb57600080fd5b604051606081018181106001600160401b0382111715613c0d57613c0d612d85565b6040528251613c1b81612e5c565b81526020830151613c2b81612e5c565b60208201526040830151613c3e81612e5c565b60408201529392505050565b7f416363657373436f6e74726f6c3a206163636f756e7420000000000000000000815260008351613c82816017850160208801612cb4565b7001034b99036b4b9b9b4b733903937b6329607d1b6017918401918201528351613cb3816028840160208801612cb4565b01602801949350505050565b600181815b80851115613cfa578160001904821115613ce057613ce0613707565b80851615613ced57918102915b93841c9390800290613cc4565b509250929050565b600082613d115750600161057b565b81613d1e5750600061057b565b8160018114613d345760028114613d3e57613d5a565b600191505061057b565b60ff841115613d4f57613d4f613707565b50506001821b61057b565b5060208310610133831016604e8410600b8410161715613d7d575081810a61057b565b613d878383613cbf565b8060001904821115613d9b57613d9b613707565b029392505050565b60006122d660ff841683613d02565b60006122d68383613d02565b60208152613dd06020820183516137da565b600060208301516102206101c08181860152613df9610240860184516001600160a01b03169052565b602083015115156102608601526040830151610280860152606083015115156102a086015260808301516001600160a01b03166102c086015260a08301516102e086015260c083015161030086015260e0830151610320860152610100830151151561034086015261012083015160ff9081166103608701526101408401516001600160401b03166103808701526101608401516103a08701526101808401516103c08701526101a0840151166103e0860152909101516101e06104008501819052909190613ecc6104208601846138fc565b92506040860151613ee18287018260ff169052565b50506060850151848303601f1901610200860152613eff8382612cd8565b925050608085015181850152508091505092915050565b60008251613f28818460208701612cb4565b9190910192915050565b600081613f4157613f41613707565b50600019019056fea2646970667358221220ff3afeade5717af1e6baf3529a7adeb967269f1ddf857129d435ad5f5bdad31564736f6c63430008110033",
  "linkReferences": {},
  "deployedLinkReferences": {}
}