{
  "_format": "hh-sol-artifact-1",
  "contractName": "OrderMgr",
  "sourceName": "contracts/market/OrderMgr.sol",
  "abi": [
    {
      "inputs": [],
      "stateMutability": "nonpayable",
      "type": "constructor"
    },
    {
      "anonymous": false,
      "inputs": [
        {
          "indexed": false,
          "internalType": "uint8",
          "name": "version",
          "type": "uint8"
        }
      ],
      "name": "Initialized",
      "type": "event"
    },
    {
      "inputs": [],
      "name": "DEFAULT_ADMIN_ROLE",
      "outputs": [
        {
          "internalType": "bytes32",
          "name": "",
          "type": "bytes32"
        }
      ],
      "stateMutability": "view",
      "type": "function"
    },
    {
      "inputs": [
        {
          "internalType": "address",
          "name": "newOwner",
          "type": "address"
        }
      ],
      "name": "_transferOwnership",
      "outputs": [],
      "stateMutability": "pure",
      "type": "function"
    },
    {
      "inputs": [
        {
          "internalType": "address",
          "name": "_account",
          "type": "address"
        },
        {
          "internalType": "bool[]",
          "name": "_isIncreaseList",
          "type": "bool[]"
        },
        {
          "internalType": "uint256[]",
          "name": "_orderIDList",
          "type": "uint256[]"
        },
        {
          "internalType": "bool[]",
          "name": "_isLongList",
          "type": "bool[]"
        }
      ],
      "name": "cancelOrderList",
      "outputs": [],
      "stateMutability": "nonpayable",
      "type": "function"
    },
    {
      "inputs": [],
      "name": "collateralToken",
      "outputs": [
        {
          "internalType": "address",
          "name": "",
          "type": "address"
        }
      ],
      "stateMutability": "view",
      "type": "function"
    },
    {
      "inputs": [],
      "name": "collateralTokenDigits",
      "outputs": [
        {
          "internalType": "uint8",
          "name": "",
          "type": "uint8"
        }
      ],
      "stateMutability": "view",
      "type": "function"
    },
    {
      "inputs": [],
      "name": "feeRouter",
      "outputs": [
        {
          "internalType": "contract IFeeRouter",
          "name": "",
          "type": "address"
        }
      ],
      "stateMutability": "view",
      "type": "function"
    },
    {
      "inputs": [],
      "name": "globalValid",
      "outputs": [
        {
          "internalType": "address",
          "name": "",
          "type": "address"
        }
      ],
      "stateMutability": "view",
      "type": "function"
    },
    {
      "inputs": [
        {
          "internalType": "address",
          "name": "_account",
          "type": "address"
        }
      ],
      "name": "grantControllerRoleByMarketManager",
      "outputs": [],
      "stateMutability": "nonpayable",
      "type": "function"
    },
    {
      "inputs": [
        {
          "internalType": "bytes32",
          "name": "role",
          "type": "bytes32"
        },
        {
          "internalType": "address",
          "name": "account",
          "type": "address"
        }
      ],
      "name": "grantRole",
      "outputs": [],
      "stateMutability": "pure",
      "type": "function"
    },
    {
      "inputs": [
        {
          "internalType": "bytes32",
          "name": "role",
          "type": "bytes32"
        },
        {
          "internalType": "address",
          "name": "account",
          "type": "address"
        }
      ],
      "name": "hasRole",
      "outputs": [
        {
          "internalType": "bool",
          "name": "",
          "type": "bool"
        }
      ],
      "stateMutability": "pure",
      "type": "function"
    },
    {
      "inputs": [],
      "name": "indexToken",
      "outputs": [
        {
          "internalType": "address",
          "name": "",
          "type": "address"
        }
      ],
      "stateMutability": "view",
      "type": "function"
    },
    {
      "inputs": [],
      "name": "marketRouter",
      "outputs": [
        {
          "internalType": "address",
          "name": "",
          "type": "address"
        }
      ],
      "stateMutability": "view",
      "type": "function"
    },
    {
      "inputs": [],
      "name": "marketValid",
      "outputs": [
        {
          "internalType": "address",
          "name": "",
          "type": "address"
        }
      ],
      "stateMutability": "view",
      "type": "function"
    },
    {
      "inputs": [],
      "name": "name",
      "outputs": [
        {
          "internalType": "string",
          "name": "",
          "type": "string"
        }
      ],
      "stateMutability": "view",
      "type": "function"
    },
    {
      "inputs": [],
      "name": "orderBookLong",
      "outputs": [
        {
          "internalType": "contract IOrderBook",
          "name": "",
          "type": "address"
        }
      ],
      "stateMutability": "view",
      "type": "function"
    },
    {
      "inputs": [],
      "name": "orderBookShort",
      "outputs": [
        {
          "internalType": "contract IOrderBook",
          "name": "",
          "type": "address"
        }
      ],
      "stateMutability": "view",
      "type": "function"
    },
    {
      "inputs": [],
      "name": "orderMgr",
      "outputs": [
        {
          "internalType": "address",
          "name": "",
          "type": "address"
        }
      ],
      "stateMutability": "view",
      "type": "function"
    },
    {
      "inputs": [
        {
          "internalType": "bool",
          "name": "isLong",
          "type": "bool"
        },
        {
          "internalType": "bool",
          "name": "isOpen",
          "type": "bool"
        }
      ],
      "name": "orderStore",
      "outputs": [
        {
          "internalType": "contract IOrderStore",
          "name": "",
          "type": "address"
        }
      ],
      "stateMutability": "view",
      "type": "function"
    },
    {
      "inputs": [],
      "name": "pluginGasLimit",
      "outputs": [
        {
          "internalType": "uint256",
          "name": "",
          "type": "uint256"
        }
      ],
      "stateMutability": "view",
      "type": "function"
    },
    {
      "inputs": [
        {
          "internalType": "uint256",
          "name": "",
          "type": "uint256"
        }
      ],
      "name": "plugins",
      "outputs": [
        {
          "internalType": "address",
          "name": "",
          "type": "address"
        }
      ],
      "stateMutability": "view",
      "type": "function"
    },
    {
      "inputs": [],
      "name": "positionAddMgr",
      "outputs": [
        {
          "internalType": "address",
          "name": "",
          "type": "address"
        }
      ],
      "stateMutability": "view",
      "type": "function"
    },
    {
      "inputs": [],
      "name": "positionBook",
      "outputs": [
        {
          "internalType": "contract IPositionBook",
          "name": "",
          "type": "address"
        }
      ],
      "stateMutability": "view",
      "type": "function"
    },
    {
      "inputs": [],
      "name": "positionStoreLong",
      "outputs": [
        {
          "internalType": "address",
          "name": "",
          "type": "address"
        }
      ],
      "stateMutability": "view",
      "type": "function"
    },
    {
      "inputs": [],
      "name": "positionStoreShort",
      "outputs": [
        {
          "internalType": "address",
          "name": "",
          "type": "address"
        }
      ],
      "stateMutability": "view",
      "type": "function"
    },
    {
      "inputs": [],
      "name": "positionSubMgr",
      "outputs": [
        {
          "internalType": "address",
          "name": "",
          "type": "address"
        }
      ],
      "stateMutability": "view",
      "type": "function"
    },
    {
      "inputs": [],
      "name": "priceFeed",
      "outputs": [
        {
          "internalType": "address",
          "name": "",
          "type": "address"
        }
      ],
      "stateMutability": "view",
      "type": "function"
    },
    {
      "inputs": [
        {
          "internalType": "bytes32",
          "name": "role",
          "type": "bytes32"
        },
        {
          "internalType": "address",
          "name": "account",
          "type": "address"
        }
      ],
      "name": "revokeRole",
      "outputs": [],
      "stateMutability": "pure",
      "type": "function"
    },
    {
      "inputs": [
        {
          "internalType": "address[]",
          "name": "addrs",
          "type": "address[]"
        }
      ],
      "name": "setContracts",
      "outputs": [],
      "stateMutability": "nonpayable",
      "type": "function"
    },
    {
      "inputs": [
        {
          "internalType": "address",
          "name": "_f",
          "type": "address"
        }
      ],
      "name": "setFeeRouter",
      "outputs": [],
      "stateMutability": "nonpayable",
      "type": "function"
    },
    {
      "inputs": [
        {
          "internalType": "address",
          "name": "pb",
          "type": "address"
        }
      ],
      "name": "setPositionBookV2",
      "outputs": [],
      "stateMutability": "nonpayable",
      "type": "function"
    },
    {
      "inputs": [
        {
          "internalType": "bytes32[]",
          "name": "_orderKey",
          "type": "bytes32[]"
        },
        {
          "internalType": "bool[]",
          "name": "_isLong",
          "type": "bool[]"
        },
        {
          "internalType": "bool[]",
          "name": "_isIncrease",
          "type": "bool[]"
        },
        {
          "internalType": "string[]",
          "name": "reasons",
          "type": "string[]"
        }
      ],
      "name": "sysCancelOrder",
      "outputs": [],
      "stateMutability": "nonpayable",
      "type": "function"
    },
    {
      "inputs": [
        {
          "internalType": "address",
          "name": "to",
          "type": "address"
        }
      ],
      "name": "transferAdmin",
      "outputs": [],
      "stateMutability": "nonpayable",
      "type": "function"
    },
    {
      "inputs": [
        {
          "internalType": "address",
          "name": "newOwner",
          "type": "address"
        }
      ],
      "name": "transferOwnership",
      "outputs": [],
      "stateMutability": "pure",
      "type": "function"
    },
    {
      "inputs": [
        {
          "components": [
            {
              "internalType": "address",
              "name": "_market",
              "type": "address"
            },
            {
              "internalType": "bool",
              "name": "_isLong",
              "type": "bool"
            },
            {
              "internalType": "uint256",
              "name": "_oraclePrice",
              "type": "uint256"
            },
            {
              "internalType": "bool",
              "name": "isOpen",
              "type": "bool"
            },
            {
              "internalType": "bool",
              "name": "isCreate",
              "type": "bool"
            },
            {
              "components": [
                {
                  "internalType": "uint8",
                  "name": "version",
                  "type": "uint8"
                },
                {
                  "internalType": "uint32",
                  "name": "updatedAtBlock",
                  "type": "uint32"
                },
                {
                  "internalType": "uint8",
                  "name": "triggerAbove",
                  "type": "uint8"
                },
                {
                  "internalType": "address",
                  "name": "account",
                  "type": "address"
                },
                {
                  "internalType": "uint48",
                  "name": "extra3",
                  "type": "uint48"
                },
                {
                  "internalType": "uint128",
                  "name": "collateral",
                  "type": "uint128"
                },
                {
                  "internalType": "uint128",
                  "name": "size",
                  "type": "uint128"
                },
                {
                  "internalType": "uint128",
                  "name": "price",
                  "type": "uint128"
                },
                {
                  "internalType": "uint128",
                  "name": "extra1",
                  "type": "uint128"
                },
                {
                  "internalType": "uint64",
                  "name": "orderID",
                  "type": "uint64"
                },
                {
                  "internalType": "uint64",
                  "name": "extra2",
                  "type": "uint64"
                },
                {
                  "internalType": "uint128",
                  "name": "extra0",
                  "type": "uint128"
                },
                {
                  "internalType": "bytes32",
                  "name": "refCode",
                  "type": "bytes32"
                }
              ],
              "internalType": "struct Order.Props",
              "name": "_order",
              "type": "tuple"
            },
            {
              "internalType": "uint256[]",
              "name": "inputs",
              "type": "uint256[]"
            }
          ],
          "internalType": "struct MarketDataTypes.UpdateOrderInputs",
          "name": "_vars",
          "type": "tuple"
        }
      ],
      "name": "updateOrder",
      "outputs": [],
      "stateMutability": "nonpayable",
      "type": "function"
    },
    {
      "inputs": [],
      "name": "vaultRouter",
      "outputs": [
        {
          "internalType": "address",
          "name": "",
          "type": "address"
        }
      ],
      "stateMutability": "view",
      "type": "function"
    }
  ],
  "bytecode": "0x60806040523480156200001157600080fd5b506000600160468190555062000032816200003960201b620017d41760201c565b5062000048565b42604855620000453381565b50565b61395080620000586000396000f3fe608060405234801561001057600080fd5b50600436106102115760003560e01c8063a264045411610125578063d12dbde4116100ad578063d547741f1161007c578063d547741f14610286578063e7d015f2146104c6578063f0a317eb146104d9578063f29ebf61146104ec578063f2fde38b1461048f57600080fd5b8063d12dbde41461047c578063d29d44ee1461048f578063d37c441c146104a0578063d49ff78d146104b357600080fd5b8063b2016bd4116100f4578063b2016bd4146103f4578063b21dc9cb14610407578063b894300d14610426578063c267ada414610439578063c54dc3d61461046957600080fd5b8063a264045414610383578063ac0b05a6146103bb578063ac0c7aa4146103ce578063b038beb8146103e157600080fd5b8063741bef1a116101a85780638a6ca35d116101775780638a6ca35d1461031f57806391d148541461033257806398277cd814610355578063a0cbf50c14610368578063a217fddf1461037b57600080fd5b8063741bef1a146102d357806375829def146102e65780637b2fd1e5146102f95780637fe4a6981461030c57600080fd5b80632f2ff15d116101e45780632f2ff15d14610286578063301f6fe91461029a57806345ccf5c5146102ad5780635fb52b95146102c057600080fd5b806303deb0291461021657806305ba9ae91461023357806306fdde031461025e57806307e8754514610273575b600080fd5b610220620a2c2a81565b6040519081526020015b60405180910390f35b600654610246906001600160a01b031681565b6040516001600160a01b03909116815260200161022a565b6102666104ff565b60405161022a9190612761565b600a54610246906001600160a01b031681565b610298610294366004612799565b5050565b005b6102986102a8366004612988565b61058d565b600b54610246906001600160a01b031681565b6102986102ce366004612a22565b61086a565b600954610246906001600160a01b031681565b6102986102f4366004612a22565b6108ff565b600554610246906001600160a01b031681565b61029861031a366004612a22565b61049d565b600e54610246906001600160a01b031681565b610345610340366004612799565b61090a565b604051901515815260200161022a565b610298610363366004612a3f565b610913565b600f54610246906001600160a01b031681565b610220600081565b610246610391366004612acd565b9015156000908152600760209081526040808320931515835292905220546001600160a01b031690565b600354610246906001600160a01b031681565b6102986103dc366004612bde565b610b9f565b6102986103ef366004612e63565b610f95565b600454610246906001600160a01b031681565b6013546104149060ff1681565b60405160ff909116815260200161022a565b600054610246906001600160a01b031681565b610298610447366004612a22565b600880546001600160a01b0319166001600160a01b0392909216919091179055565b600154610246906001600160a01b031681565b601054610246906001600160a01b031681565b61029861049d366004612a22565b50565b600c54610246906001600160a01b031681565b600d54610246906001600160a01b031681565b600254610246906001600160a01b031681565b6102466104e7366004612f31565b6117aa565b600854610246906001600160a01b031681565b6011805461050c90612f4a565b80601f016020809104026020016040519081016040528092919081815260200182805461053890612f4a565b80156105855780601f1061055a57610100808354040283529160200191610585565b820191906000526020600020905b81548152906001019060200180831161056857829003601f168201915b505050505081565b81518351146105db5760405162461bcd60e51b815260206004820152601560248201527409ee4c8cae49acee474d2dce0eae840d8cadccee8d605b1b60448201526064015b60405180910390fd5b81518151146106245760405162461bcd60e51b815260206004820152601560248201527409ee4c8cae49acee474d2dce0eae840d8cadccee8d605b1b60448201526064016105d2565b81516000805b8281101561083a57600084828151811061064657610646612f84565b6020026020010151610663576006546001600160a01b0316610670565b6005546001600160a01b03165b6001600160a01b0316638f5492068988858151811061069157610691612f84565b60200260200101518a86815181106106ab576106ab612f84565b60209081029190910101516040516001600160e01b031960e086901b1681526001600160a01b0390931660048401526024830191909152151560448201526064016000604051808303816000875af115801561070b573d6000803e3d6000fd5b505050506040513d6000823e601f3d908101601f1916820160405261073391908101906130d6565b905060005b81518110156108275781818151811061075357610753612f84565b602002602001015161012001516001600160401b0316600003156108175761080a6040518060c0016040528084848151811061079157610791612f84565b602002602001015181526020018886815181106107b0576107b0612f84565b6020026020010151151581526020018a86815181106107d1576107d1612f84565b602002602001015115158152602001600015158152602001600015158152602001604051806020016040528060008152508152506117db565b610814908561317a565b93505b6108208161318d565b9050610738565b5050806108339061318d565b905061062a565b508060000361084a575050610864565b600454610861906001600160a01b03168783611de5565b50505b50505050565b6001600160a01b03811661087d57600080fd5b6010546040516366b75fb360e11b81526001600160a01b0383811660048301529091169063cd6ebf6690602401600060405180830381600087803b1580156108c457600080fd5b505af11580156108d8573d6000803e3d6000fd5b5050600380546001600160a01b0319166001600160a01b0394909416939093179092555050565b600061029460003382565b60015b92915050565b8060008151811061092657610926612f84565b6020026020010151600360006101000a8154816001600160a01b0302191690836001600160a01b031602179055508060018151811061096757610967612f84565b6020026020010151600560006101000a8154816001600160a01b0302191690836001600160a01b03160217905550806002815181106109a8576109a8612f84565b6020026020010151600660006101000a8154816001600160a01b0302191690836001600160a01b03160217905550806003815181106109e9576109e9612f84565b60200260200101516000806101000a8154816001600160a01b0302191690836001600160a01b0316021790555080600581518110610a2957610a29612f84565b6020026020010151600e60006101000a8154816001600160a01b0302191690836001600160a01b0316021790555080600681518110610a6a57610a6a612f84565b6020026020010151600d60006101000a8154816001600160a01b0302191690836001600160a01b0316021790555080600781518110610aab57610aab612f84565b6020026020010151600860006101000a8154816001600160a01b0302191690836001600160a01b0316021790555080600881518110610aec57610aec612f84565b6020026020010151600c60006101000a8154816001600160a01b0302191690836001600160a01b0316021790555080600981518110610b2d57610b2d612f84565b6020026020010151600160006101000a8154816001600160a01b0302191690836001600160a01b0316021790555080600a81518110610b6e57610b6e612f84565b6020026020010151600f60006101000a8154816001600160a01b0302191690836001600160a01b0316021790555050565b8251845114610bad57600080fd5b8251825114610bbb57600080fd5b60005b8451811015610f8e576000801b858281518110610bdd57610bdd612f84565b60200260200101510315610f7c57610c0d828281518110610c0057610c00612f84565b6020026020010151611e4f565b15610f7c576000848281518110610c2657610c26612f84565b6020026020010151610c43576006546001600160a01b0316610c50565b6005546001600160a01b03165b9050838281518110610c6457610c64612f84565b6020026020010151610cd757806001600160a01b0316636d0785666040518163ffffffff1660e01b8152600401602060405180830381865afa158015610cae573d6000803e3d6000fd5b505050506040513d601f19601f82011682018060405250810190610cd291906131a6565b610d39565b806001600160a01b0316637e1dcaf76040518163ffffffff1660e01b8152600401602060405180830381865afa158015610d15573d6000803e3d6000fd5b505050506040513d601f19601f82011682018060405250810190610d3991906131a6565b6001600160a01b031663f6b102a6878481518110610d5957610d59612f84565b60200260200101516040518263ffffffff1660e01b8152600401610d7f91815260200190565b602060405180830381865afa158015610d9c573d6000803e3d6000fd5b505050506040513d601f19601f82011682018060405250810190610dc091906131ce565b1515600003610dcf5750610f7c565b6000816001600160a01b03166345824d67888581518110610df257610df2612f84565b6020026020010151878681518110610e0c57610e0c612f84565b60200260200101516040518363ffffffff1660e01b8152600401610e3c9291909182521515602082015260400190565b6000604051808303816000875af1158015610e5b573d6000803e3d6000fd5b505050506040513d6000823e601f3d908101601f19168201604052610e8391908101906130d6565b905060005b8151811015610f7857818181518110610ea357610ea3612f84565b602002602001015161012001516001600160401b031660000315610f6657610f646040518060c00160405280848481518110610ee157610ee1612f84565b60200260200101518152602001898781518110610f0057610f00612f84565b602002602001015115158152602001888781518110610f2157610f21612f84565b602002602001015115158152602001600115158152602001600115158152602001878781518110610f5457610f54612f84565b60200260200101518152506117db565b505b80610f708161318d565b915050610e88565b5050505b80610f868161318d565b915050610bbe565b5050505050565b80606001518015610fa7575080608001515b15611015576000546001600160a01b031663015fc613610fc683611ea5565b6040518263ffffffff1660e01b8152600401610fe491815260200190565b60006040518083038186803b158015610ffc57600080fd5b505afa158015611010573d6000803e3d6000fd5b505050505b61102c816060015115158260200151151514611ee1565b604082015261103a81611f67565b1561112b578060200151151581606001511515036110c3576110a861271061106183611fa2565b8360a0015160e001516001600160801b031661107d91906131eb565b6110879190613202565b8260a0015160e001516001600160801b03166110a3919061317a565b611fd0565b60a08201516001600160801b0390911660e09091015261112b565b6111146127106110d283611fa2565b8360a0015160e001516001600160801b03166110ee91906131eb565b6110f89190613202565b8260a0015160e001516001600160801b03166110a39190613224565b60a08201516001600160801b0390911660e0909101525b60008160200151611147576006546001600160a01b0316611154565b6005546001600160a01b03165b905081608001518015611168575081606001515b1561125e5760005460085460405163c8830bf560e01b81526001600160a01b039283169263592b1e2a92869291169063c8830bf5906111ab908490600401613407565b602060405180830381865afa1580156111c8573d6000803e3d6000fd5b505050506040513d601f19601f820116820180604052508101906111ec919061341a565b6040518363ffffffff1660e01b8152600401611209929190613433565b60006040518083038186803b15801561122157600080fd5b505afa158015611235573d6000803e3d6000fd5b505050506112456110a383611ea5565b60a0808401516001600160801b03909216910152611532565b8160800151801561127157508160600151155b156115325760035460a0830151606001516040808501516020860151915163bc95baad60e01b81526001600160a01b03938416600482015260248101919091529015156044820152600092919091169063bc95baad9060640161018060405180830381865afa1580156112e8573d6000803e3d6000fd5b505050506040513d601f19601f8201168201806040525081019061130c919061346c565b90506113496110a360008560a001516080015165ffffffffffff161183608001518660a0015160c001516001600160801b03168560a0015161203d565b60a0808501516001600160801b0390921691015261136f6000546001600160a01b031690565b60a0808301518582015191820151608085015160c09093015160085460405163c8830bf560e01b81526001600160a01b03968716966301b8fd7c966001600160801b03909516949392169063c8830bf5906113ce908c90600401613407565b602060405180830381865afa1580156113eb573d6000803e3d6000fd5b505050506040513d601f19601f8201168201806040525081019061140f919061341a565b6114468a602001518b606001519015156000908152600760209081526040808320931515835292905220546001600160a01b031690565b60a08b01516060015160405163350cffdd60e11b81526001600160a01b039182166004820152911690636a19ffba90602401602060405180830381865afa158015611495573d6000803e3d6000fd5b505050506040513d601f19601f820116820180604052508101906114b9919061341a565b6040516001600160e01b031960e089901b1681526004810196909652602486019490945260448501929092526001600160801b03166064840152608483015260a482015260c40160006040518083038186803b15801561151857600080fd5b505afa15801561152c573d6000803e3d6000fd5b50505050505b604080516001808252818301909252600091816020015b6115eb6040805160e08082018352600080835260208084018290528385018290526060808501839052608080860184905286516101a081018852848152928301849052958201839052810182905293840181905260a084810182905260c0850182905291840181905261010084018190526101208401819052610140840181905261016084018190526101808401529091908201908152602001606081525090565b815260200190600190039081611549579050509050828160008151811061161457611614612f84565b6020026020010181905250826080015161169d57604051630c31673960e01b81526001600160a01b03831690630c31673990611654908690600401613407565b6101a0604051808303816000875af1158015611674573d6000803e3d6000fd5b505050506040513d601f19601f820116820180604052508101906116989190613522565b61172b565b6040516359cc542160e11b81526001600160a01b0383169063b398a842906116c990849060040161353f565b6000604051808303816000875af11580156116e8573d6000803e3d6000fd5b505050506040513d6000823e601f3d908101601f1916820160405261171091908101906130d6565b60008151811061172257611722612f84565b60200260200101515b60a084015260128054604080516020808402820181019092528281526117a5938793620a2c2a9383018282801561178b57602002820191906000526020600020905b81546001600160a01b0316815260019091019060200180831161176d575b50506004546001600160a01b0316925030915061206d9050565b505050565b601281815481106117ba57600080fd5b6000918252602090912001546001600160a01b0316905081565b4260485550565b60008082608001516117ee57600061185a565b6008546040516309d3989760e01b81523060048201526001600160a01b03909116906309d3989790602401602060405180830381865afa158015611836573d6000803e3d6000fd5b505050506040513d601f19601f8201168201806040525081019061185a919061341a565b600480546040805163313ce56760e01b815290519394506000936118d39386936001600160a01b03169263313ce56792818301926020928290030181865afa1580156118aa573d6000803e3d6000fd5b505050506040513d601f19601f820116820180604052508101906118ce91906135a1565b6122ba565b9050836040015180156118f45750835160a001516001600160801b03168211155b15611a97578115611a2f576004805460085460405163095ea7b360e01b81526001600160a01b039182169381019390935260248301849052169063095ea7b3906044016020604051808303816000875af1158015611956573d6000803e3d6000fd5b505050506040513d601f19601f8201168201806040525081019061197a91906131ce565b5060408051600480825260a082019092526000916020820160808036833701905050905082816003815181106119b2576119b2612f84565b60209081029190910101526008548551606001516004805460405163e50f19ef60e01b81526001600160a01b039485169463e50f19ef946119fb949093909116918791016135be565b600060405180830381600087803b158015611a1557600080fd5b505af1158015611a29573d6000803e3d6000fd5b50505050505b836060015115611a76576004548451606081015160a090910151611a71926001600160a01b03169190611a6c9086906001600160801b0316613224565b611de5565b611c72565b835160a00151611a909083906001600160801b0316613224565b9250611c72565b6040840151158015611aaa575083608001515b15611c72576003548451606001516020860151604051635a227c7560e11b81526001600160a01b039283166004820152602481018690529015156044820152600092919091169063b444f8ea906064016020604051808303816000875af1158015611b19573d6000803e3d6000fd5b505050506040513d601f19601f82011682018060405250810190611b3d919061341a565b60408051600480825260a0820190925291925060009190602082016080803683370190505090508181600381518110611b7857611b78612f84565b60209081029190910101526004805460085460405163095ea7b360e01b81526001600160a01b039182169381019390935260248301869052169063095ea7b3906044016020604051808303816000875af1158015611bda573d6000803e3d6000fd5b505050506040513d601f19601f82011682018060405250810190611bfe91906131ce565b506008548651606001516004805460405163e50f19ef60e01b81526001600160a01b039485169463e50f19ef94611c3d949093909116918791016135be565b600060405180830381600087803b158015611c5757600080fd5b505af1158015611c6b573d6000803e3d6000fd5b5050505050505b604080516101e0810182526000602080830182815293830182905260608084018390526080840183905260a0840183905260c0840183905260e08401839052610100840183905261012084018390526101408401839052610160840183905261018084018390526101a08401929092526101c08301919091523082528601511515909152611d006001611ee1565b6040808301919091528581015115156060830152805160a08101825286518152602081018390526080870151611ddd92820190611d3e576005611d41565b60065b6007811115611d5257611d52613620565b60ff1681526020018760a0015181526020016000815250620a2c2a6012805480602002602001604051908101604052809291908181526020018280548015611dc357602002820191906000526020600020905b81546001600160a01b03168152600190910190602001808311611da5575b50506004546001600160a01b031692503091506122ea9050565b505050919050565b80600003611df257505050565b6000839050611e3982856001600160a01b031663313ce5676040518163ffffffff1660e01b8152600401602060405180830381865afa1580156118aa573d6000803e3d6000fd5b91506108646001600160a01b038216848461246e565b6000611e90826040518060400160405280601b81526020017f506f736974696f6e4164644d67723a7472696767657261626f766500000000008152506124c0565b15611e9d57506000919050565b506001919050565b600060018260c00151511015611ebc57600061090d565b8160c00151600081518110611ed357611ed3612f84565b602002602001015192915050565b6009546002546040516303b6b4bb60e51b81526001600160a01b0391821660048201528315156024820152600092919091169081906376d6976090604401602060405180830381865afa158015611f3c573d6000803e3d6000fd5b505050506040513d601f19601f82011682018060405250810190611f60919061341a565b9392505050565b600060028260c00151511015801561090d575060008260c00151600181518110611f9357611f93612f84565b60200260200101511192915050565b600060038260c00151511015611fb957600061090d565b8160c00151600281518110611ed357611ed3612f84565b60006001600160801b038211156120395760405162461bcd60e51b815260206004820152602760248201527f53616665436173743a2076616c756520646f65736e27742066697420696e20316044820152663238206269747360c81b60648201526084016105d2565b5090565b60008415612061578361205084846131eb565b61205a9190613202565b9050612065565b5060005b949350505050565b6040516370a0823160e01b81526001600160a01b038281166004830152600091908416906370a0823190602401602060405180830381865afa1580156120b7573d6000803e3d6000fd5b505050506040513d601f19601f820116820180604052508101906120db919061341a565b905060005b84518110156121f1578481815181106120fb576120fb612f84565b60200260200101516001600160a01b031663612c39b76040518163ffffffff1660e01b8152600401606060405180830381865afa158015612140573d6000803e3d6000fd5b505050506040513d601f19601f820116820180604052508101906121649190613636565b60200151156121df5784818151811061217f5761217f612f84565b60200260200101516001600160a01b031663cce9a2f3886040518263ffffffff1660e01b81526004016121b29190613407565b600060405180830381600087803b1580156121cc57600080fd5b505af19250505080156121dd575060015b505b806121e98161318d565b9150506120e0565b506040516370a0823160e01b81526001600160a01b038381166004830152600091908516906370a0823190602401602060405180830381865afa15801561223c573d6000803e3d6000fd5b505050506040513d601f19601f82011682018060405250810190612260919061341a565b90508181146122b15760405162461bcd60e51b815260206004820152601b60248201527f455243323020746f6b656e2062616c616e6365206368616e676564000000000060448201526064016105d2565b50505050505050565b60006122c86012600a61378b565b6122d660ff8416600a61379a565b6122e090856131eb565b611f609190613202565b6040516370a0823160e01b81526001600160a01b038281166004830152600091908416906370a0823190602401602060405180830381865afa158015612334573d6000803e3d6000fd5b505050506040513d601f19601f82011682018060405250810190612358919061341a565b905060005b84518110156121f15784818151811061237857612378612f84565b60200260200101516001600160a01b031663612c39b76040518163ffffffff1660e01b8152600401606060405180830381865afa1580156123bd573d6000803e3d6000fd5b505050506040513d601f19601f820116820180604052508101906123e19190613636565b604001511561245c578481815181106123fc576123fc612f84565b60200260200101516001600160a01b031663718cb58a886040518263ffffffff1660e01b815260040161242f91906137a6565b600060405180830381600087803b15801561244957600080fd5b505af192505050801561245a575060015b505b806124668161318d565b91505061235d565b604080516001600160a01b038416602482015260448082018490528251808303909101815260649091019091526020810180516001600160e01b031663a9059cbb60e01b1790526117a5908490612519565b6000816040516020016124d391906138fe565b60405160208183030381529060405280519060200120836040516020016124fa91906138fe565b6040516020818303038152906040528051906020012014905092915050565b600061256e826040518060400160405280602081526020017f5361666545524332303a206c6f772d6c6576656c2063616c6c206661696c6564815250856001600160a01b03166125ee9092919063ffffffff16565b905080516000148061258f57508080602001905181019061258f91906131ce565b6117a55760405162461bcd60e51b815260206004820152602a60248201527f5361666545524332303a204552433230206f7065726174696f6e20646964206e6044820152691bdd081cdd58d8d9595960b21b60648201526084016105d2565b6060612065848460008585600080866001600160a01b0316858760405161261591906138fe565b60006040518083038185875af1925050503d8060008114612652576040519150601f19603f3d011682016040523d82523d6000602084013e612657565b606091505b509150915061266887838387612673565b979650505050505050565b606083156126e25782516000036126db576001600160a01b0385163b6126db5760405162461bcd60e51b815260206004820152601d60248201527f416464726573733a2063616c6c20746f206e6f6e2d636f6e747261637400000060448201526064016105d2565b5081612065565b61206583838151156126f75781518083602001fd5b8060405162461bcd60e51b81526004016105d29190612761565b60005b8381101561272c578181015183820152602001612714565b50506000910152565b6000815180845261274d816020860160208601612711565b601f01601f19169290920160200192915050565b602081526000611f606020830184612735565b6001600160a01b038116811461049d57600080fd5b803561279481612774565b919050565b600080604083850312156127ac57600080fd5b8235915060208301356127be81612774565b809150509250929050565b634e487b7160e01b600052604160045260246000fd5b6040516101a081016001600160401b0381118282101715612802576128026127c9565b60405290565b60405160e081016001600160401b0381118282101715612802576128026127c9565b60405161018081016001600160401b0381118282101715612802576128026127c9565b604051601f8201601f191681016001600160401b0381118282101715612875576128756127c9565b604052919050565b60006001600160401b03821115612896576128966127c9565b5060051b60200190565b801515811461049d57600080fd5b8035612794816128a0565b600082601f8301126128ca57600080fd5b813560206128df6128da8361287d565b61284d565b82815260059290921b840181019181810190868411156128fe57600080fd5b8286015b84811015612922578035612915816128a0565b8352918301918301612902565b509695505050505050565b600082601f83011261293e57600080fd5b8135602061294e6128da8361287d565b82815260059290921b8401810191818101908684111561296d57600080fd5b8286015b848110156129225780358352918301918301612971565b6000806000806080858703121561299e57600080fd5b84356129a981612774565b935060208501356001600160401b03808211156129c557600080fd5b6129d1888389016128b9565b945060408701359150808211156129e757600080fd5b6129f38883890161292d565b93506060870135915080821115612a0957600080fd5b50612a16878288016128b9565b91505092959194509250565b600060208284031215612a3457600080fd5b8135611f6081612774565b60006020808385031215612a5257600080fd5b82356001600160401b03811115612a6857600080fd5b8301601f81018513612a7957600080fd5b8035612a876128da8261287d565b81815260059190911b82018301908381019087831115612aa657600080fd5b928401925b82841015612668578335612abe81612774565b82529284019290840190612aab565b60008060408385031215612ae057600080fd5b8235612aeb816128a0565b915060208301356127be816128a0565b6000601f8381840112612b0d57600080fd5b82356020612b1d6128da8361287d565b82815260059290921b85018101918181019087841115612b3c57600080fd5b8287015b84811015612bd25780356001600160401b0380821115612b605760008081fd5b818a0191508a603f830112612b755760008081fd5b85820135604082821115612b8b57612b8b6127c9565b612b9c828b01601f1916890161284d565b92508183528c81838601011115612bb35760008081fd5b8181850189850137506000908201870152845250918301918301612b40565b50979650505050505050565b60008060008060808587031215612bf457600080fd5b84356001600160401b0380821115612c0b57600080fd5b818701915087601f830112612c1f57600080fd5b81356020612c2f6128da8361287d565b82815260059290921b8401810191818101908b841115612c4e57600080fd5b948201945b83861015612c6c57853582529482019490820190612c53565b98505088013592505080821115612c8257600080fd5b612c8e888389016128b9565b94506040870135915080821115612ca457600080fd5b612cb0888389016128b9565b93506060870135915080821115612cc657600080fd5b50612a1687828801612afb565b60ff8116811461049d57600080fd5b803561279481612cd3565b63ffffffff8116811461049d57600080fd5b803561279481612ced565b65ffffffffffff8116811461049d57600080fd5b803561279481612d0a565b6001600160801b038116811461049d57600080fd5b803561279481612d29565b6001600160401b038116811461049d57600080fd5b803561279481612d49565b60006101a08284031215612d7c57600080fd5b612d846127df565b9050612d8f82612ce2565b8152612d9d60208301612cff565b6020820152612dae60408301612ce2565b6040820152612dbf60608301612789565b6060820152612dd060808301612d1e565b6080820152612de160a08301612d3e565b60a0820152612df260c08301612d3e565b60c0820152612e0360e08301612d3e565b60e0820152610100612e16818401612d3e565b90820152610120612e28838201612d5e565b90820152610140612e3a838201612d5e565b90820152610160612e4c838201612d3e565b818301525061018080830135818301525092915050565b600060208284031215612e7557600080fd5b81356001600160401b0380821115612e8c57600080fd5b908301906102608286031215612ea157600080fd5b612ea9612808565b612eb283612789565b8152612ec0602084016128ae565b602082015260408301356040820152612edb606084016128ae565b6060820152612eec608084016128ae565b6080820152612efe8660a08501612d69565b60a082015261024083013582811115612f1657600080fd5b612f228782860161292d565b60c08301525095945050505050565b600060208284031215612f4357600080fd5b5035919050565b600181811c90821680612f5e57607f821691505b602082108103612f7e57634e487b7160e01b600052602260045260246000fd5b50919050565b634e487b7160e01b600052603260045260246000fd5b805161279481612cd3565b805161279481612ced565b805161279481612774565b805161279481612d0a565b805161279481612d29565b805161279481612d49565b60006101a08284031215612fef57600080fd5b612ff76127df565b905061300282612f9a565b815261301060208301612fa5565b602082015261302160408301612f9a565b604082015261303260608301612fb0565b606082015261304360808301612fbb565b608082015261305460a08301612fc6565b60a082015261306560c08301612fc6565b60c082015261307660e08301612fc6565b60e0820152610100613089818401612fc6565b9082015261012061309b838201612fd1565b908201526101406130ad838201612fd1565b908201526101606130bf838201612fc6565b818301525061018080830151818301525092915050565b600060208083850312156130e957600080fd5b82516001600160401b038111156130ff57600080fd5b8301601f8101851361311057600080fd5b805161311e6128da8261287d565b8181526101a0918202830184019184820191908884111561313e57600080fd5b938501935b83851015612bd2576131558986612fdc565b83529384019391850191613143565b634e487b7160e01b600052601160045260246000fd5b8082018082111561090d5761090d613164565b60006001820161319f5761319f613164565b5060010190565b6000602082840312156131b857600080fd5b8151611f6081612774565b8051612794816128a0565b6000602082840312156131e057600080fd5b8151611f60816128a0565b808202811582820484141761090d5761090d613164565b60008261321f57634e487b7160e01b600052601260045260246000fd5b500490565b8181038181111561090d5761090d613164565b805160ff1682526020810151613255602084018263ffffffff169052565b50604081015161326a604084018260ff169052565b50606081015161328560608401826001600160a01b03169052565b50608081015161329f608084018265ffffffffffff169052565b5060a08101516132ba60a08401826001600160801b03169052565b5060c08101516132d560c08401826001600160801b03169052565b5060e08101516132f060e08401826001600160801b03169052565b50610100818101516001600160801b038116848301525050610120818101516001600160401b038116848301525050610140818101516001600160401b038116848301525050610160818101516001600160801b03811684830152505061018090810151910152565b600081518084526020808501945080840160005b838110156133895781518752958201959082019060010161336d565b509495945050505050565b600061026060018060a01b0383511684526020830151151560208501526040830151604085015260608301511515606085015260808301511515608085015260a08301516133e560a0860182613237565b5060c0830151816102408601526133fe82860182613359565b95945050505050565b602081526000611f606020830184613394565b60006020828403121561342c57600080fd5b5051919050565b6040815260006134466040830185613394565b90508260208301529392505050565b80516001600160d81b038116811461279457600080fd5b6000610180828403121561347f57600080fd5b61348761282a565b61349083612fb0565b815261349e602084016131c3565b60208201526134af60408401612fa5565b60408201526134c060608401613455565b60608201526080838101519082015260a0808401519082015260c0808401519082015260e08084015190820152610100808401519082015261012080840151908201526101408084015190820152610160928301519281019290925250919050565b60006101a0828403121561353557600080fd5b611f608383612fdc565b6000602080830181845280855180835260408601915060408160051b870101925083870160005b8281101561359457603f19888603018452613582858351613394565b94509285019290850190600101613566565b5092979650505050505050565b6000602082840312156135b357600080fd5b8151611f6081612cd3565b6001600160a01b0384811682528316602080830191909152606060408301819052835190830181905260009184810191608085019190845b81811015613612578451845293820193928201926001016135f6565b509198975050505050505050565b634e487b7160e01b600052602160045260246000fd5b60006060828403121561364857600080fd5b604051606081018181106001600160401b038211171561366a5761366a6127c9565b6040528251613678816128a0565b81526020830151613688816128a0565b6020820152604083015161369b816128a0565b60408201529392505050565b600181815b808511156136e25781600019048211156136c8576136c8613164565b808516156136d557918102915b93841c93908002906136ac565b509250929050565b6000826136f95750600161090d565b816137065750600061090d565b816001811461371c576002811461372657613742565b600191505061090d565b60ff84111561373757613737613164565b50506001821b61090d565b5060208310610133831016604e8410600b8410161715613765575081810a61090d565b61376f83836136a7565b806000190482111561378357613783613164565b029392505050565b6000611f6060ff8416836136ea565b6000611f6083836136ea565b602081526137b8602082018351613237565b600060208301516102206101c081818601526137e1610240860184516001600160a01b03169052565b602083015115156102608601526040830151610280860152606083015115156102a086015260808301516001600160a01b03166102c086015260a08301516102e086015260c083015161030086015260e0830151610320860152610100830151151561034086015261012083015160ff9081166103608701526101408401516001600160401b03166103808701526101608401516103a08701526101808401516103c08701526101a0840151166103e0860152909101516101e061040085018190529091906138b4610420860184613359565b925060408601516138c98287018260ff169052565b50506060850151848303601f19016102008601526138e78382612735565b925050608085015181850152508091505092915050565b60008251613910818460208701612711565b919091019291505056fea26469706673582212206ddb22cb353cffa9252ce55a4995d9f4294f690978314f8bb6026adcf6a3e1c764736f6c63430008110033",
  "linkReferences": {},
  "deployedLinkReferences": {}
}