{
  "_format": "hh-sol-artifact-1",
  "contractName": "OrderMgr",
  "sourceName": "contracts/market/OrderMgr.sol",
  "abi": [
    {
      "inputs": [],
      "stateMutability": "nonpayable",
      "type": "constructor"
    },
    {
      "anonymous": false,
      "inputs": [
        {
          "indexed": false,
          "internalType": "uint8",
          "name": "version",
          "type": "uint8"
        }
      ],
      "name": "Initialized",
      "type": "event"
    },
    {
      "anonymous": false,
      "inputs": [
        {
          "indexed": true,
          "internalType": "address",
          "name": "previousOwner",
          "type": "address"
        },
        {
          "indexed": true,
          "internalType": "address",
          "name": "newOwner",
          "type": "address"
        }
      ],
      "name": "OwnershipTransferred",
      "type": "event"
    },
    {
      "anonymous": false,
      "inputs": [
        {
          "indexed": true,
          "internalType": "bytes32",
          "name": "role",
          "type": "bytes32"
        },
        {
          "indexed": true,
          "internalType": "bytes32",
          "name": "previousAdminRole",
          "type": "bytes32"
        },
        {
          "indexed": true,
          "internalType": "bytes32",
          "name": "newAdminRole",
          "type": "bytes32"
        }
      ],
      "name": "RoleAdminChanged",
      "type": "event"
    },
    {
      "anonymous": false,
      "inputs": [
        {
          "indexed": true,
          "internalType": "bytes32",
          "name": "role",
          "type": "bytes32"
        },
        {
          "indexed": true,
          "internalType": "address",
          "name": "account",
          "type": "address"
        },
        {
          "indexed": true,
          "internalType": "address",
          "name": "sender",
          "type": "address"
        }
      ],
      "name": "RoleGranted",
      "type": "event"
    },
    {
      "anonymous": false,
      "inputs": [
        {
          "indexed": true,
          "internalType": "bytes32",
          "name": "role",
          "type": "bytes32"
        },
        {
          "indexed": true,
          "internalType": "address",
          "name": "account",
          "type": "address"
        },
        {
          "indexed": true,
          "internalType": "address",
          "name": "sender",
          "type": "address"
        }
      ],
      "name": "RoleRevoked",
      "type": "event"
    },
    {
      "inputs": [],
      "name": "DEFAULT_ADMIN_ROLE",
      "outputs": [
        {
          "internalType": "bytes32",
          "name": "",
          "type": "bytes32"
        }
      ],
      "stateMutability": "view",
      "type": "function"
    },
    {
      "inputs": [
        {
          "internalType": "address",
          "name": "_account",
          "type": "address"
        },
        {
          "internalType": "bool[]",
          "name": "_isIncreaseList",
          "type": "bool[]"
        },
        {
          "internalType": "uint256[]",
          "name": "_orderIDList",
          "type": "uint256[]"
        },
        {
          "internalType": "bool[]",
          "name": "_isLongList",
          "type": "bool[]"
        }
      ],
      "name": "cancelOrderList",
      "outputs": [],
      "stateMutability": "nonpayable",
      "type": "function"
    },
    {
      "inputs": [],
      "name": "collateralToken",
      "outputs": [
        {
          "internalType": "address",
          "name": "",
          "type": "address"
        }
      ],
      "stateMutability": "view",
      "type": "function"
    },
    {
      "inputs": [],
      "name": "collateralTokenDigits",
      "outputs": [
        {
          "internalType": "uint8",
          "name": "",
          "type": "uint8"
        }
      ],
      "stateMutability": "view",
      "type": "function"
    },
    {
      "inputs": [],
      "name": "feeRouter",
      "outputs": [
        {
          "internalType": "contract IFeeRouter",
          "name": "",
          "type": "address"
        }
      ],
      "stateMutability": "view",
      "type": "function"
    },
    {
      "inputs": [
        {
          "internalType": "bytes32",
          "name": "role",
          "type": "bytes32"
        }
      ],
      "name": "getRoleAdmin",
      "outputs": [
        {
          "internalType": "bytes32",
          "name": "",
          "type": "bytes32"
        }
      ],
      "stateMutability": "view",
      "type": "function"
    },
    {
      "inputs": [],
      "name": "globalValid",
      "outputs": [
        {
          "internalType": "address",
          "name": "",
          "type": "address"
        }
      ],
      "stateMutability": "view",
      "type": "function"
    },
    {
      "inputs": [
        {
          "internalType": "address",
          "name": "_account",
          "type": "address"
        }
      ],
      "name": "grantControllerRoleByMarketManager",
      "outputs": [],
      "stateMutability": "nonpayable",
      "type": "function"
    },
    {
      "inputs": [
        {
          "internalType": "bytes32",
          "name": "role",
          "type": "bytes32"
        },
        {
          "internalType": "address",
          "name": "account",
          "type": "address"
        }
      ],
      "name": "grantRole",
      "outputs": [],
      "stateMutability": "nonpayable",
      "type": "function"
    },
    {
      "inputs": [
        {
          "internalType": "bytes32",
          "name": "role",
          "type": "bytes32"
        },
        {
          "internalType": "address",
          "name": "account",
          "type": "address"
        }
      ],
      "name": "hasRole",
      "outputs": [
        {
          "internalType": "bool",
          "name": "",
          "type": "bool"
        }
      ],
      "stateMutability": "view",
      "type": "function"
    },
    {
      "inputs": [],
      "name": "indexToken",
      "outputs": [
        {
          "internalType": "address",
          "name": "",
          "type": "address"
        }
      ],
      "stateMutability": "view",
      "type": "function"
    },
    {
      "inputs": [],
      "name": "marketRouter",
      "outputs": [
        {
          "internalType": "address",
          "name": "",
          "type": "address"
        }
      ],
      "stateMutability": "view",
      "type": "function"
    },
    {
      "inputs": [],
      "name": "marketValid",
      "outputs": [
        {
          "internalType": "address",
          "name": "",
          "type": "address"
        }
      ],
      "stateMutability": "view",
      "type": "function"
    },
    {
      "inputs": [],
      "name": "name",
      "outputs": [
        {
          "internalType": "string",
          "name": "",
          "type": "string"
        }
      ],
      "stateMutability": "view",
      "type": "function"
    },
    {
      "inputs": [],
      "name": "orderBookLong",
      "outputs": [
        {
          "internalType": "contract IOrderBook",
          "name": "",
          "type": "address"
        }
      ],
      "stateMutability": "view",
      "type": "function"
    },
    {
      "inputs": [],
      "name": "orderBookShort",
      "outputs": [
        {
          "internalType": "contract IOrderBook",
          "name": "",
          "type": "address"
        }
      ],
      "stateMutability": "view",
      "type": "function"
    },
    {
      "inputs": [],
      "name": "orderMgr",
      "outputs": [
        {
          "internalType": "address",
          "name": "",
          "type": "address"
        }
      ],
      "stateMutability": "view",
      "type": "function"
    },
    {
      "inputs": [
        {
          "internalType": "bool",
          "name": "isLong",
          "type": "bool"
        },
        {
          "internalType": "bool",
          "name": "isOpen",
          "type": "bool"
        }
      ],
      "name": "orderStore",
      "outputs": [
        {
          "internalType": "contract IOrderStore",
          "name": "",
          "type": "address"
        }
      ],
      "stateMutability": "view",
      "type": "function"
    },
    {
      "inputs": [],
      "name": "owner",
      "outputs": [
        {
          "internalType": "address",
          "name": "",
          "type": "address"
        }
      ],
      "stateMutability": "view",
      "type": "function"
    },
    {
      "inputs": [],
      "name": "pluginGasLimit",
      "outputs": [
        {
          "internalType": "uint256",
          "name": "",
          "type": "uint256"
        }
      ],
      "stateMutability": "view",
      "type": "function"
    },
    {
      "inputs": [
        {
          "internalType": "uint256",
          "name": "",
          "type": "uint256"
        }
      ],
      "name": "plugins",
      "outputs": [
        {
          "internalType": "address",
          "name": "",
          "type": "address"
        }
      ],
      "stateMutability": "view",
      "type": "function"
    },
    {
      "inputs": [],
      "name": "positionAddMgr",
      "outputs": [
        {
          "internalType": "address",
          "name": "",
          "type": "address"
        }
      ],
      "stateMutability": "view",
      "type": "function"
    },
    {
      "inputs": [],
      "name": "positionBook",
      "outputs": [
        {
          "internalType": "contract IPositionBook",
          "name": "",
          "type": "address"
        }
      ],
      "stateMutability": "view",
      "type": "function"
    },
    {
      "inputs": [],
      "name": "positionStoreLong",
      "outputs": [
        {
          "internalType": "address",
          "name": "",
          "type": "address"
        }
      ],
      "stateMutability": "view",
      "type": "function"
    },
    {
      "inputs": [],
      "name": "positionStoreShort",
      "outputs": [
        {
          "internalType": "address",
          "name": "",
          "type": "address"
        }
      ],
      "stateMutability": "view",
      "type": "function"
    },
    {
      "inputs": [],
      "name": "positionSubMgr",
      "outputs": [
        {
          "internalType": "address",
          "name": "",
          "type": "address"
        }
      ],
      "stateMutability": "view",
      "type": "function"
    },
    {
      "inputs": [],
      "name": "priceFeed",
      "outputs": [
        {
          "internalType": "address",
          "name": "",
          "type": "address"
        }
      ],
      "stateMutability": "view",
      "type": "function"
    },
    {
      "inputs": [],
      "name": "renounceOwnership",
      "outputs": [],
      "stateMutability": "nonpayable",
      "type": "function"
    },
    {
      "inputs": [
        {
          "internalType": "bytes32",
          "name": "role",
          "type": "bytes32"
        },
        {
          "internalType": "address",
          "name": "account",
          "type": "address"
        }
      ],
      "name": "renounceRole",
      "outputs": [],
      "stateMutability": "nonpayable",
      "type": "function"
    },
    {
      "inputs": [
        {
          "internalType": "bytes32",
          "name": "role",
          "type": "bytes32"
        },
        {
          "internalType": "address",
          "name": "account",
          "type": "address"
        }
      ],
      "name": "revokeRole",
      "outputs": [],
      "stateMutability": "nonpayable",
      "type": "function"
    },
    {
      "inputs": [
        {
          "internalType": "address[]",
          "name": "addrs",
          "type": "address[]"
        }
      ],
      "name": "setContracts",
      "outputs": [],
      "stateMutability": "nonpayable",
      "type": "function"
    },
    {
      "inputs": [
        {
          "internalType": "address",
          "name": "_f",
          "type": "address"
        }
      ],
      "name": "setFeeRouter",
      "outputs": [],
      "stateMutability": "nonpayable",
      "type": "function"
    },
    {
      "inputs": [
        {
          "internalType": "bytes4",
          "name": "interfaceId",
          "type": "bytes4"
        }
      ],
      "name": "supportsInterface",
      "outputs": [
        {
          "internalType": "bool",
          "name": "",
          "type": "bool"
        }
      ],
      "stateMutability": "view",
      "type": "function"
    },
    {
      "inputs": [
        {
          "internalType": "bytes32[]",
          "name": "_orderKey",
          "type": "bytes32[]"
        },
        {
          "internalType": "bool[]",
          "name": "_isLong",
          "type": "bool[]"
        },
        {
          "internalType": "bool[]",
          "name": "_isIncrease",
          "type": "bool[]"
        },
        {
          "internalType": "string[]",
          "name": "reasons",
          "type": "string[]"
        }
      ],
      "name": "sysCancelOrder",
      "outputs": [],
      "stateMutability": "nonpayable",
      "type": "function"
    },
    {
      "inputs": [
        {
          "internalType": "address",
          "name": "to",
          "type": "address"
        }
      ],
      "name": "transferAdmin",
      "outputs": [],
      "stateMutability": "nonpayable",
      "type": "function"
    },
    {
      "inputs": [
        {
          "internalType": "address",
          "name": "newOwner",
          "type": "address"
        }
      ],
      "name": "transferOwnership",
      "outputs": [],
      "stateMutability": "nonpayable",
      "type": "function"
    },
    {
      "inputs": [
        {
          "components": [
            {
              "internalType": "address",
              "name": "_market",
              "type": "address"
            },
            {
              "internalType": "bool",
              "name": "_isLong",
              "type": "bool"
            },
            {
              "internalType": "uint256",
              "name": "_oraclePrice",
              "type": "uint256"
            },
            {
              "internalType": "bool",
              "name": "isOpen",
              "type": "bool"
            },
            {
              "internalType": "bool",
              "name": "isCreate",
              "type": "bool"
            },
            {
              "components": [
                {
                  "internalType": "uint8",
                  "name": "version",
                  "type": "uint8"
                },
                {
                  "internalType": "uint32",
                  "name": "updatedAtBlock",
                  "type": "uint32"
                },
                {
                  "internalType": "uint8",
                  "name": "triggerAbove",
                  "type": "uint8"
                },
                {
                  "internalType": "address",
                  "name": "account",
                  "type": "address"
                },
                {
                  "internalType": "uint48",
                  "name": "extra3",
                  "type": "uint48"
                },
                {
                  "internalType": "uint128",
                  "name": "collateral",
                  "type": "uint128"
                },
                {
                  "internalType": "uint128",
                  "name": "size",
                  "type": "uint128"
                },
                {
                  "internalType": "uint128",
                  "name": "price",
                  "type": "uint128"
                },
                {
                  "internalType": "uint128",
                  "name": "extra1",
                  "type": "uint128"
                },
                {
                  "internalType": "uint64",
                  "name": "orderID",
                  "type": "uint64"
                },
                {
                  "internalType": "uint64",
                  "name": "extra2",
                  "type": "uint64"
                },
                {
                  "internalType": "uint128",
                  "name": "extra0",
                  "type": "uint128"
                },
                {
                  "internalType": "bytes32",
                  "name": "refCode",
                  "type": "bytes32"
                }
              ],
              "internalType": "struct Order.Props",
              "name": "_order",
              "type": "tuple"
            },
            {
              "internalType": "uint256[]",
              "name": "inputs",
              "type": "uint256[]"
            }
          ],
          "internalType": "struct MarketDataTypes.UpdateOrderInputs",
          "name": "_vars",
          "type": "tuple"
        }
      ],
      "name": "updateOrder",
      "outputs": [],
      "stateMutability": "nonpayable",
      "type": "function"
    },
    {
      "inputs": [],
      "name": "vaultRouter",
      "outputs": [
        {
          "internalType": "address",
          "name": "",
          "type": "address"
        }
      ],
      "stateMutability": "view",
      "type": "function"
    }
  ],
  "bytecode": "0x60806040523480156200001157600080fd5b5060016046556000620000243362000041565b6200003a816200009360201b620019bc1760201c565b5062000173565b604880546001600160a01b038381166001600160a01b0319831681179093556040519116919082907f8be0079c531659141344cd1fd0a4f28419497f9722a3daafe3b4186f6b6457e090600090a35050565b42604955620000a23362000041565b620000af600033620000bf565b620000bc600082620000bf565b50565b620000cb8282620000cf565b5050565b60008281526047602090815260408083206001600160a01b038516845290915290205460ff16620000cb5760008281526047602090815260408083206001600160a01b03851684529091529020805460ff191660011790556200012f3390565b6001600160a01b0316816001600160a01b0316837f2f8788117e7eff1d82e926ec794901d17c78024a50270940304540a733656f0d60405160405180910390a45050565b613fba80620001836000396000f3fe608060405234801561001057600080fd5b50600436106102325760003560e01c8063a0cbf50c11610130578063c267ada4116100b8578063d547741f1161007c578063d547741f14610526578063e7d015f214610539578063f0a317eb1461054c578063f29ebf611461055f578063f2fde38b1461057257600080fd5b8063c267ada4146104aa578063c54dc3d6146104da578063d12dbde4146104ed578063d37c441c14610500578063d49ff78d1461051357600080fd5b8063ac0c7aa4116100ff578063ac0c7aa41461043f578063b038beb814610452578063b2016bd414610465578063b21dc9cb14610478578063b894300d1461049757600080fd5b8063a0cbf50c146103d9578063a217fddf146103ec578063a2640454146103f4578063ac0b05a61461042c57600080fd5b806345ccf5c5116101be5780637fe4a698116101825780637fe4a6981461037c5780638a6ca35d1461038f5780638da5cb5b146103a257806391d14854146103b357806398277cd8146103c657600080fd5b806345ccf5c514610328578063715018a61461033b578063741bef1a1461034357806375829def146103565780637b2fd1e51461036957600080fd5b806307e875451161020557806307e87545146102b7578063248a9ca3146102ca5780632f2ff15d146102ed578063301f6fe91461030257806336568abe1461031557600080fd5b806301ffc9a71461023757806303deb0291461025f57806305ba9ae91461027757806306fdde03146102a2575b600080fd5b61024a610245366004612cc5565b610585565b60405190151581526020015b60405180910390f35b610269620a2c2a81565b604051908152602001610256565b60065461028a906001600160a01b031681565b6040516001600160a01b039091168152602001610256565b6102aa6105bc565b6040516102569190612d3f565b600a5461028a906001600160a01b031681565b6102696102d8366004612d52565b60009081526047602052604090206001015490565b6103006102fb366004612d90565b61064a565b005b610300610310366004612f7f565b610674565b610300610323366004612d90565b610951565b600b5461028a906001600160a01b031681565b6103006109cf565b60095461028a906001600160a01b031681565b610300610364366004613019565b6109e3565b60055461028a906001600160a01b031681565b61030061038a366004613019565b610a0d565b600e5461028a906001600160a01b031681565b6048546001600160a01b031661028a565b61024a6103c1366004612d90565b610a37565b6103006103d4366004613036565b610a62565b600f5461028a906001600160a01b031681565b610269600081565b61028a6104023660046130c4565b9015156000908152600760209081526040808320931515835292905220546001600160a01b031690565b60035461028a906001600160a01b031681565b61030061044d3660046131d5565b610cee565b61030061046036600461345a565b6110e4565b60045461028a906001600160a01b031681565b6013546104859060ff1681565b60405160ff9091168152602001610256565b60005461028a906001600160a01b031681565b6103006104b8366004613019565b600880546001600160a01b0319166001600160a01b0392909216919091179055565b60015461028a906001600160a01b031681565b60105461028a906001600160a01b031681565b600c5461028a906001600160a01b031681565b600d5461028a906001600160a01b031681565b610300610534366004612d90565b6118f4565b60025461028a906001600160a01b031681565b61028a61055a366004612d52565b611919565b60085461028a906001600160a01b031681565b610300610580366004613019565b611943565b60006001600160e01b03198216637965db0b60e01b14806105b657506301ffc9a760e01b6001600160e01b03198316145b92915050565b601180546105c990613528565b80601f01602080910402602001604051908101604052809291908181526020018280546105f590613528565b80156106425780601f1061061757610100808354040283529160200191610642565b820191906000526020600020905b81548152906001019060200180831161062557829003601f168201915b505050505081565b600082815260476020526040902060010154610665816119df565b61066f83836119e9565b505050565b81518351146106c25760405162461bcd60e51b815260206004820152601560248201527409ee4c8cae49acee474d2dce0eae840d8cadccee8d605b1b60448201526064015b60405180910390fd5b815181511461070b5760405162461bcd60e51b815260206004820152601560248201527409ee4c8cae49acee474d2dce0eae840d8cadccee8d605b1b60448201526064016106b9565b81516000805b8281101561092157600084828151811061072d5761072d613562565b602002602001015161074a576006546001600160a01b0316610757565b6005546001600160a01b03165b6001600160a01b0316638f5492068988858151811061077857610778613562565b60200260200101518a868151811061079257610792613562565b60209081029190910101516040516001600160e01b031960e086901b1681526001600160a01b0390931660048401526024830191909152151560448201526064016000604051808303816000875af11580156107f2573d6000803e3d6000fd5b505050506040513d6000823e601f3d908101601f1916820160405261081a91908101906136b4565b905060005b815181101561090e5781818151811061083a5761083a613562565b602002602001015161012001516001600160401b0316600003156108fe576108f16040518060c0016040528084848151811061087857610878613562565b6020026020010151815260200188868151811061089757610897613562565b6020026020010151151581526020018a86815181106108b8576108b8613562565b60200260200101511515815260200160001515815260200160001515815260200160405180602001604052806000815250815250611a6f565b6108fb9085613758565b93505b6109078161376b565b905061081f565b50508061091a9061376b565b9050610711565b508060000361093157505061094b565b600454610948906001600160a01b03168783612079565b50505b50505050565b6001600160a01b03811633146109c15760405162461bcd60e51b815260206004820152602f60248201527f416363657373436f6e74726f6c3a2063616e206f6e6c792072656e6f756e636560448201526e103937b632b9903337b91039b2b63360891b60648201526084016106b9565b6109cb82826120e3565b5050565b6109d761214a565b6109e160006121a4565b565b60006109ee816119df565b6109f96000836121f6565b610a02826121a4565b6109cb6000336120e3565b7f8d1089725c0dc266707fa6207730fb801dcd03108bfed7a21099bd303651d2b7610232816119df565b60009182526047602090815260408084206001600160a01b0393909316845291905290205460ff1690565b80600081518110610a7557610a75613562565b6020026020010151600360006101000a8154816001600160a01b0302191690836001600160a01b0316021790555080600181518110610ab657610ab6613562565b6020026020010151600560006101000a8154816001600160a01b0302191690836001600160a01b0316021790555080600281518110610af757610af7613562565b6020026020010151600660006101000a8154816001600160a01b0302191690836001600160a01b0316021790555080600381518110610b3857610b38613562565b60200260200101516000806101000a8154816001600160a01b0302191690836001600160a01b0316021790555080600581518110610b7857610b78613562565b6020026020010151600e60006101000a8154816001600160a01b0302191690836001600160a01b0316021790555080600681518110610bb957610bb9613562565b6020026020010151600d60006101000a8154816001600160a01b0302191690836001600160a01b0316021790555080600781518110610bfa57610bfa613562565b6020026020010151600860006101000a8154816001600160a01b0302191690836001600160a01b0316021790555080600881518110610c3b57610c3b613562565b6020026020010151600c60006101000a8154816001600160a01b0302191690836001600160a01b0316021790555080600981518110610c7c57610c7c613562565b6020026020010151600160006101000a8154816001600160a01b0302191690836001600160a01b0316021790555080600a81518110610cbd57610cbd613562565b6020026020010151600f60006101000a8154816001600160a01b0302191690836001600160a01b0316021790555050565b8251845114610cfc57600080fd5b8251825114610d0a57600080fd5b60005b84518110156110dd576000801b858281518110610d2c57610d2c613562565b602002602001015103156110cb57610d5c828281518110610d4f57610d4f613562565b6020026020010151612200565b156110cb576000848281518110610d7557610d75613562565b6020026020010151610d92576006546001600160a01b0316610d9f565b6005546001600160a01b03165b9050838281518110610db357610db3613562565b6020026020010151610e2657806001600160a01b0316636d0785666040518163ffffffff1660e01b8152600401602060405180830381865afa158015610dfd573d6000803e3d6000fd5b505050506040513d601f19601f82011682018060405250810190610e219190613784565b610e88565b806001600160a01b0316637e1dcaf76040518163ffffffff1660e01b8152600401602060405180830381865afa158015610e64573d6000803e3d6000fd5b505050506040513d601f19601f82011682018060405250810190610e889190613784565b6001600160a01b031663f6b102a6878481518110610ea857610ea8613562565b60200260200101516040518263ffffffff1660e01b8152600401610ece91815260200190565b602060405180830381865afa158015610eeb573d6000803e3d6000fd5b505050506040513d601f19601f82011682018060405250810190610f0f91906137ac565b1515600003610f1e57506110cb565b6000816001600160a01b03166345824d67888581518110610f4157610f41613562565b6020026020010151878681518110610f5b57610f5b613562565b60200260200101516040518363ffffffff1660e01b8152600401610f8b9291909182521515602082015260400190565b6000604051808303816000875af1158015610faa573d6000803e3d6000fd5b505050506040513d6000823e601f3d908101601f19168201604052610fd291908101906136b4565b905060005b81518110156110c757818181518110610ff257610ff2613562565b602002602001015161012001516001600160401b0316600003156110b5576110b36040518060c0016040528084848151811061103057611030613562565b6020026020010151815260200189878151811061104f5761104f613562565b60200260200101511515815260200188878151811061107057611070613562565b6020026020010151151581526020016001151581526020016001151581526020018787815181106110a3576110a3613562565b6020026020010151815250611a6f565b505b806110bf8161376b565b915050610fd7565b5050505b806110d58161376b565b915050610d0d565b5050505050565b806060015180156110f6575080608001515b15611164576000546001600160a01b031663015fc61361111583612256565b6040518263ffffffff1660e01b815260040161113391815260200190565b60006040518083038186803b15801561114b57600080fd5b505afa15801561115f573d6000803e3d6000fd5b505050505b61117b816060015115158260200151151514612292565b604082015261118981612318565b1561127a57806020015115158160600151151503611212576111f76127106111b083612353565b8360a0015160e001516001600160801b03166111cc91906137c9565b6111d691906137e0565b8260a0015160e001516001600160801b03166111f29190613758565b612381565b60a08201516001600160801b0390911660e09091015261127a565b61126361271061122183612353565b8360a0015160e001516001600160801b031661123d91906137c9565b61124791906137e0565b8260a0015160e001516001600160801b03166111f29190613802565b60a08201516001600160801b0390911660e0909101525b60008160200151611296576006546001600160a01b03166112a3565b6005546001600160a01b03165b9050816080015180156112b7575081606001515b156113ad5760005460085460405163c8830bf560e01b81526001600160a01b039283169263592b1e2a92869291169063c8830bf5906112fa9084906004016139e5565b602060405180830381865afa158015611317573d6000803e3d6000fd5b505050506040513d601f19601f8201168201806040525081019061133b91906139f8565b6040518363ffffffff1660e01b8152600401611358929190613a11565b60006040518083038186803b15801561137057600080fd5b505afa158015611384573d6000803e3d6000fd5b505050506113946111f283612256565b60a0808401516001600160801b03909216910152611681565b816080015180156113c057508160600151155b156116815760035460a0830151606001516040808501516020860151915163bc95baad60e01b81526001600160a01b03938416600482015260248101919091529015156044820152600092919091169063bc95baad9060640161018060405180830381865afa158015611437573d6000803e3d6000fd5b505050506040513d601f19601f8201168201806040525081019061145b9190613a4a565b90506114986111f260008560a001516080015165ffffffffffff161183608001518660a0015160c001516001600160801b03168560a001516123ee565b60a0808501516001600160801b039092169101526114be6000546001600160a01b031690565b60a0808301518582015191820151608085015160c09093015160085460405163c8830bf560e01b81526001600160a01b03968716966301b8fd7c966001600160801b03909516949392169063c8830bf59061151d908c906004016139e5565b602060405180830381865afa15801561153a573d6000803e3d6000fd5b505050506040513d601f19601f8201168201806040525081019061155e91906139f8565b6115958a602001518b606001519015156000908152600760209081526040808320931515835292905220546001600160a01b031690565b60a08b01516060015160405163350cffdd60e11b81526001600160a01b039182166004820152911690636a19ffba90602401602060405180830381865afa1580156115e4573d6000803e3d6000fd5b505050506040513d601f19601f8201168201806040525081019061160891906139f8565b6040516001600160e01b031960e089901b1681526004810196909652602486019490945260448501929092526001600160801b03166064840152608483015260a482015260c40160006040518083038186803b15801561166757600080fd5b505afa15801561167b573d6000803e3d6000fd5b50505050505b604080516001808252818301909252600091816020015b61173a6040805160e08082018352600080835260208084018290528385018290526060808501839052608080860184905286516101a081018852848152928301849052958201839052810182905293840181905260a084810182905260c0850182905291840181905261010084018190526101208401819052610140840181905261016084018190526101808401529091908201908152602001606081525090565b815260200190600190039081611698579050509050828160008151811061176357611763613562565b602002602001018190525082608001516117ec57604051630c31673960e01b81526001600160a01b03831690630c316739906117a39086906004016139e5565b6101a0604051808303816000875af11580156117c3573d6000803e3d6000fd5b505050506040513d601f19601f820116820180604052508101906117e79190613b00565b61187a565b6040516359cc542160e11b81526001600160a01b0383169063b398a84290611818908490600401613b1d565b6000604051808303816000875af1158015611837573d6000803e3d6000fd5b505050506040513d6000823e601f3d908101601f1916820160405261185f91908101906136b4565b60008151811061187157611871613562565b60200260200101515b60a0840152601280546040805160208084028201810190925282815261066f938793620a2c2a938301828280156118da57602002820191906000526020600020905b81546001600160a01b031681526001909101906020018083116118bc575b50506004546001600160a01b0316925030915061241e9050565b60008281526047602052604090206001015461190f816119df565b61066f83836120e3565b6012818154811061192957600080fd5b6000918252602090912001546001600160a01b0316905081565b61194b61214a565b6001600160a01b0381166119b05760405162461bcd60e51b815260206004820152602660248201527f4f776e61626c653a206e6577206f776e657220697320746865207a65726f206160448201526564647265737360d01b60648201526084016106b9565b6119b9816121a4565b50565b426049556119c9336121a4565b6119d46000336121f6565b6119b96000826121f6565b6119b9813361266b565b6119f38282610a37565b6109cb5760008281526047602090815260408083206001600160a01b03851684529091529020805460ff19166001179055611a2b3390565b6001600160a01b0316816001600160a01b0316837f2f8788117e7eff1d82e926ec794901d17c78024a50270940304540a733656f0d60405160405180910390a45050565b6000808260800151611a82576000611aee565b6008546040516309d3989760e01b81523060048201526001600160a01b03909116906309d3989790602401602060405180830381865afa158015611aca573d6000803e3d6000fd5b505050506040513d601f19601f82011682018060405250810190611aee91906139f8565b600480546040805163313ce56760e01b81529051939450600093611b679386936001600160a01b03169263313ce56792818301926020928290030181865afa158015611b3e573d6000803e3d6000fd5b505050506040513d601f19601f82011682018060405250810190611b629190613b7f565b6126c4565b905083604001518015611b885750835160a001516001600160801b03168211155b15611d2b578115611cc3576004805460085460405163095ea7b360e01b81526001600160a01b039182169381019390935260248301849052169063095ea7b3906044016020604051808303816000875af1158015611bea573d6000803e3d6000fd5b505050506040513d601f19601f82011682018060405250810190611c0e91906137ac565b5060408051600480825260a08201909252600091602082016080803683370190505090508281600381518110611c4657611c46613562565b60209081029190910101526008548551606001516004805460405163e50f19ef60e01b81526001600160a01b039485169463e50f19ef94611c8f94909390911691879101613b9c565b600060405180830381600087803b158015611ca957600080fd5b505af1158015611cbd573d6000803e3d6000fd5b50505050505b836060015115611d0a576004548451606081015160a090910151611d05926001600160a01b03169190611d009086906001600160801b0316613802565b612079565b611f06565b835160a00151611d249083906001600160801b0316613802565b9250611f06565b6040840151158015611d3e575083608001515b15611f06576003548451606001516020860151604051635a227c7560e11b81526001600160a01b039283166004820152602481018690529015156044820152600092919091169063b444f8ea906064016020604051808303816000875af1158015611dad573d6000803e3d6000fd5b505050506040513d601f19601f82011682018060405250810190611dd191906139f8565b60408051600480825260a0820190925291925060009190602082016080803683370190505090508181600381518110611e0c57611e0c613562565b60209081029190910101526004805460085460405163095ea7b360e01b81526001600160a01b039182169381019390935260248301869052169063095ea7b3906044016020604051808303816000875af1158015611e6e573d6000803e3d6000fd5b505050506040513d601f19601f82011682018060405250810190611e9291906137ac565b506008548651606001516004805460405163e50f19ef60e01b81526001600160a01b039485169463e50f19ef94611ed194909390911691879101613b9c565b600060405180830381600087803b158015611eeb57600080fd5b505af1158015611eff573d6000803e3d6000fd5b5050505050505b604080516101e0810182526000602080830182815293830182905260608084018390526080840183905260a0840183905260c0840183905260e08401839052610100840183905261012084018390526101408401839052610160840183905261018084018390526101a08401929092526101c08301919091523082528601511515909152611f946001612292565b6040808301919091528581015115156060830152805160a0810182528651815260208101839052608087015161207192820190611fd2576005611fd5565b60065b6007811115611fe657611fe6613bfe565b60ff1681526020018760a0015181526020016000815250620a2c2a601280548060200260200160405190810160405280929190818152602001828054801561205757602002820191906000526020600020905b81546001600160a01b03168152600190910190602001808311612039575b50506004546001600160a01b031692503091506126f49050565b505050919050565b8060000361208657505050565b60008390506120cd82856001600160a01b031663313ce5676040518163ffffffff1660e01b8152600401602060405180830381865afa158015611b3e573d6000803e3d6000fd5b915061094b6001600160a01b0382168484612878565b6120ed8282610a37565b156109cb5760008281526047602090815260408083206001600160a01b0385168085529252808320805460ff1916905551339285917ff6391f5c32d9c69d2a47ea670b442974b53935d1edc7fd64eb21e047a839171b9190a45050565b6048546001600160a01b031633146109e15760405162461bcd60e51b815260206004820181905260248201527f4f776e61626c653a2063616c6c6572206973206e6f7420746865206f776e657260448201526064016106b9565b604880546001600160a01b038381166001600160a01b0319831681179093556040519116919082907f8be0079c531659141344cd1fd0a4f28419497f9722a3daafe3b4186f6b6457e090600090a35050565b6109cb82826119e9565b6000612241826040518060400160405280601b81526020017f506f736974696f6e4164644d67723a7472696767657261626f766500000000008152506128ca565b1561224e57506000919050565b506001919050565b600060018260c0015151101561226d5760006105b6565b8160c0015160008151811061228457612284613562565b602002602001015192915050565b6009546002546040516303b6b4bb60e51b81526001600160a01b0391821660048201528315156024820152600092919091169081906376d6976090604401602060405180830381865afa1580156122ed573d6000803e3d6000fd5b505050506040513d601f19601f8201168201806040525081019061231191906139f8565b9392505050565b600060028260c0015151101580156105b6575060008260c0015160018151811061234457612344613562565b60200260200101511192915050565b600060038260c0015151101561236a5760006105b6565b8160c0015160028151811061228457612284613562565b60006001600160801b038211156123ea5760405162461bcd60e51b815260206004820152602760248201527f53616665436173743a2076616c756520646f65736e27742066697420696e20316044820152663238206269747360c81b60648201526084016106b9565b5090565b60008415612412578361240184846137c9565b61240b91906137e0565b9050612416565b5060005b949350505050565b6040516370a0823160e01b81526001600160a01b038281166004830152600091908416906370a0823190602401602060405180830381865afa158015612468573d6000803e3d6000fd5b505050506040513d601f19601f8201168201806040525081019061248c91906139f8565b905060005b84518110156125a2578481815181106124ac576124ac613562565b60200260200101516001600160a01b031663612c39b76040518163ffffffff1660e01b8152600401606060405180830381865afa1580156124f1573d6000803e3d6000fd5b505050506040513d601f19601f820116820180604052508101906125159190613c14565b60200151156125905784818151811061253057612530613562565b60200260200101516001600160a01b031663cce9a2f3886040518263ffffffff1660e01b815260040161256391906139e5565b600060405180830381600087803b15801561257d57600080fd5b505af192505050801561258e575060015b505b8061259a8161376b565b915050612491565b506040516370a0823160e01b81526001600160a01b038381166004830152600091908516906370a0823190602401602060405180830381865afa1580156125ed573d6000803e3d6000fd5b505050506040513d601f19601f8201168201806040525081019061261191906139f8565b90508181146126625760405162461bcd60e51b815260206004820152601b60248201527f455243323020746f6b656e2062616c616e6365206368616e676564000000000060448201526064016106b9565b50505050505050565b6126758282610a37565b6109cb5761268281612923565b61268d836020612935565b60405160200161269e929190613c85565b60408051601f198184030181529082905262461bcd60e51b82526106b991600401612d3f565b60006126d26012600a613dde565b6126e060ff8416600a613ded565b6126ea90856137c9565b61231191906137e0565b6040516370a0823160e01b81526001600160a01b038281166004830152600091908416906370a0823190602401602060405180830381865afa15801561273e573d6000803e3d6000fd5b505050506040513d601f19601f8201168201806040525081019061276291906139f8565b905060005b84518110156125a25784818151811061278257612782613562565b60200260200101516001600160a01b031663612c39b76040518163ffffffff1660e01b8152600401606060405180830381865afa1580156127c7573d6000803e3d6000fd5b505050506040513d601f19601f820116820180604052508101906127eb9190613c14565b60400151156128665784818151811061280657612806613562565b60200260200101516001600160a01b031663718cb58a886040518263ffffffff1660e01b81526004016128399190613df9565b600060405180830381600087803b15801561285357600080fd5b505af1925050508015612864575060015b505b806128708161376b565b915050612767565b604080516001600160a01b038416602482015260448082018490528251808303909101815260649091019091526020810180516001600160e01b031663a9059cbb60e01b17905261066f908490612ad0565b6000816040516020016128dd9190613f51565b60405160208183030381529060405280519060200120836040516020016129049190613f51565b6040516020818303038152906040528051906020012014905092915050565b60606105b66001600160a01b03831660145b606060006129448360026137c9565b61294f906002613758565b6001600160401b0381111561296657612966612dc0565b6040519080825280601f01601f191660200182016040528015612990576020820181803683370190505b509050600360fc1b816000815181106129ab576129ab613562565b60200101906001600160f81b031916908160001a905350600f60fb1b816001815181106129da576129da613562565b60200101906001600160f81b031916908160001a90535060006129fe8460026137c9565b612a09906001613758565b90505b6001811115612a81576f181899199a1a9b1b9c1cb0b131b232b360811b85600f1660108110612a3d57612a3d613562565b1a60f81b828281518110612a5357612a53613562565b60200101906001600160f81b031916908160001a90535060049490941c93612a7a81613f6d565b9050612a0c565b5083156123115760405162461bcd60e51b815260206004820181905260248201527f537472696e67733a20686578206c656e67746820696e73756666696369656e7460448201526064016106b9565b6000612b25826040518060400160405280602081526020017f5361666545524332303a206c6f772d6c6576656c2063616c6c206661696c6564815250856001600160a01b0316612ba29092919063ffffffff16565b80519091501561066f5780806020019051810190612b4391906137ac565b61066f5760405162461bcd60e51b815260206004820152602a60248201527f5361666545524332303a204552433230206f7065726174696f6e20646964206e6044820152691bdd081cdd58d8d9595960b21b60648201526084016106b9565b6060612416848460008585600080866001600160a01b03168587604051612bc99190613f51565b60006040518083038185875af1925050503d8060008114612c06576040519150601f19603f3d011682016040523d82523d6000602084013e612c0b565b606091505b5091509150612c1c87838387612c27565b979650505050505050565b60608315612c96578251600003612c8f576001600160a01b0385163b612c8f5760405162461bcd60e51b815260206004820152601d60248201527f416464726573733a2063616c6c20746f206e6f6e2d636f6e747261637400000060448201526064016106b9565b5081612416565b6124168383815115612cab5781518083602001fd5b8060405162461bcd60e51b81526004016106b99190612d3f565b600060208284031215612cd757600080fd5b81356001600160e01b03198116811461231157600080fd5b60005b83811015612d0a578181015183820152602001612cf2565b50506000910152565b60008151808452612d2b816020860160208601612cef565b601f01601f19169290920160200192915050565b6020815260006123116020830184612d13565b600060208284031215612d6457600080fd5b5035919050565b6001600160a01b03811681146119b957600080fd5b8035612d8b81612d6b565b919050565b60008060408385031215612da357600080fd5b823591506020830135612db581612d6b565b809150509250929050565b634e487b7160e01b600052604160045260246000fd5b6040516101a081016001600160401b0381118282101715612df957612df9612dc0565b60405290565b60405160e081016001600160401b0381118282101715612df957612df9612dc0565b60405161018081016001600160401b0381118282101715612df957612df9612dc0565b604051601f8201601f191681016001600160401b0381118282101715612e6c57612e6c612dc0565b604052919050565b60006001600160401b03821115612e8d57612e8d612dc0565b5060051b60200190565b80151581146119b957600080fd5b8035612d8b81612e97565b600082601f830112612ec157600080fd5b81356020612ed6612ed183612e74565b612e44565b82815260059290921b84018101918181019086841115612ef557600080fd5b8286015b84811015612f19578035612f0c81612e97565b8352918301918301612ef9565b509695505050505050565b600082601f830112612f3557600080fd5b81356020612f45612ed183612e74565b82815260059290921b84018101918181019086841115612f6457600080fd5b8286015b84811015612f195780358352918301918301612f68565b60008060008060808587031215612f9557600080fd5b8435612fa081612d6b565b935060208501356001600160401b0380821115612fbc57600080fd5b612fc888838901612eb0565b94506040870135915080821115612fde57600080fd5b612fea88838901612f24565b9350606087013591508082111561300057600080fd5b5061300d87828801612eb0565b91505092959194509250565b60006020828403121561302b57600080fd5b813561231181612d6b565b6000602080838503121561304957600080fd5b82356001600160401b0381111561305f57600080fd5b8301601f8101851361307057600080fd5b803561307e612ed182612e74565b81815260059190911b8201830190838101908783111561309d57600080fd5b928401925b82841015612c1c5783356130b581612d6b565b825292840192908401906130a2565b600080604083850312156130d757600080fd5b82356130e281612e97565b91506020830135612db581612e97565b6000601f838184011261310457600080fd5b82356020613114612ed183612e74565b82815260059290921b8501810191818101908784111561313357600080fd5b8287015b848110156131c95780356001600160401b03808211156131575760008081fd5b818a0191508a603f83011261316c5760008081fd5b8582013560408282111561318257613182612dc0565b613193828b01601f19168901612e44565b92508183528c818386010111156131aa5760008081fd5b8181850189850137506000908201870152845250918301918301613137565b50979650505050505050565b600080600080608085870312156131eb57600080fd5b84356001600160401b038082111561320257600080fd5b818701915087601f83011261321657600080fd5b81356020613226612ed183612e74565b82815260059290921b8401810191818101908b84111561324557600080fd5b948201945b838610156132635785358252948201949082019061324a565b9850508801359250508082111561327957600080fd5b61328588838901612eb0565b9450604087013591508082111561329b57600080fd5b6132a788838901612eb0565b935060608701359150808211156132bd57600080fd5b5061300d878288016130f2565b60ff811681146119b957600080fd5b8035612d8b816132ca565b63ffffffff811681146119b957600080fd5b8035612d8b816132e4565b65ffffffffffff811681146119b957600080fd5b8035612d8b81613301565b6001600160801b03811681146119b957600080fd5b8035612d8b81613320565b6001600160401b03811681146119b957600080fd5b8035612d8b81613340565b60006101a0828403121561337357600080fd5b61337b612dd6565b9050613386826132d9565b8152613394602083016132f6565b60208201526133a5604083016132d9565b60408201526133b660608301612d80565b60608201526133c760808301613315565b60808201526133d860a08301613335565b60a08201526133e960c08301613335565b60c08201526133fa60e08301613335565b60e082015261010061340d818401613335565b9082015261012061341f838201613355565b90820152610140613431838201613355565b90820152610160613443838201613335565b818301525061018080830135818301525092915050565b60006020828403121561346c57600080fd5b81356001600160401b038082111561348357600080fd5b90830190610260828603121561349857600080fd5b6134a0612dff565b6134a983612d80565b81526134b760208401612ea5565b6020820152604083013560408201526134d260608401612ea5565b60608201526134e360808401612ea5565b60808201526134f58660a08501613360565b60a08201526102408301358281111561350d57600080fd5b61351987828601612f24565b60c08301525095945050505050565b600181811c9082168061353c57607f821691505b60208210810361355c57634e487b7160e01b600052602260045260246000fd5b50919050565b634e487b7160e01b600052603260045260246000fd5b8051612d8b816132ca565b8051612d8b816132e4565b8051612d8b81612d6b565b8051612d8b81613301565b8051612d8b81613320565b8051612d8b81613340565b60006101a082840312156135cd57600080fd5b6135d5612dd6565b90506135e082613578565b81526135ee60208301613583565b60208201526135ff60408301613578565b60408201526136106060830161358e565b606082015261362160808301613599565b608082015261363260a083016135a4565b60a082015261364360c083016135a4565b60c082015261365460e083016135a4565b60e08201526101006136678184016135a4565b908201526101206136798382016135af565b9082015261014061368b8382016135af565b9082015261016061369d8382016135a4565b818301525061018080830151818301525092915050565b600060208083850312156136c757600080fd5b82516001600160401b038111156136dd57600080fd5b8301601f810185136136ee57600080fd5b80516136fc612ed182612e74565b8181526101a0918202830184019184820191908884111561371c57600080fd5b938501935b838510156131c95761373389866135ba565b83529384019391850191613721565b634e487b7160e01b600052601160045260246000fd5b808201808211156105b6576105b6613742565b60006001820161377d5761377d613742565b5060010190565b60006020828403121561379657600080fd5b815161231181612d6b565b8051612d8b81612e97565b6000602082840312156137be57600080fd5b815161231181612e97565b80820281158282048414176105b6576105b6613742565b6000826137fd57634e487b7160e01b600052601260045260246000fd5b500490565b818103818111156105b6576105b6613742565b805160ff1682526020810151613833602084018263ffffffff169052565b506040810151613848604084018260ff169052565b50606081015161386360608401826001600160a01b03169052565b50608081015161387d608084018265ffffffffffff169052565b5060a081015161389860a08401826001600160801b03169052565b5060c08101516138b360c08401826001600160801b03169052565b5060e08101516138ce60e08401826001600160801b03169052565b50610100818101516001600160801b038116848301525050610120818101516001600160401b038116848301525050610140818101516001600160401b038116848301525050610160818101516001600160801b03811684830152505061018090810151910152565b600081518084526020808501945080840160005b838110156139675781518752958201959082019060010161394b565b509495945050505050565b600061026060018060a01b0383511684526020830151151560208501526040830151604085015260608301511515606085015260808301511515608085015260a08301516139c360a0860182613815565b5060c0830151816102408601526139dc82860182613937565b95945050505050565b6020815260006123116020830184613972565b600060208284031215613a0a57600080fd5b5051919050565b604081526000613a246040830185613972565b90508260208301529392505050565b80516001600160d81b0381168114612d8b57600080fd5b60006101808284031215613a5d57600080fd5b613a65612e21565b613a6e8361358e565b8152613a7c602084016137a1565b6020820152613a8d60408401613583565b6040820152613a9e60608401613a33565b60608201526080838101519082015260a0808401519082015260c0808401519082015260e08084015190820152610100808401519082015261012080840151908201526101408084015190820152610160928301519281019290925250919050565b60006101a08284031215613b1357600080fd5b61231183836135ba565b6000602080830181845280855180835260408601915060408160051b870101925083870160005b82811015613b7257603f19888603018452613b60858351613972565b94509285019290850190600101613b44565b5092979650505050505050565b600060208284031215613b9157600080fd5b8151612311816132ca565b6001600160a01b0384811682528316602080830191909152606060408301819052835190830181905260009184810191608085019190845b81811015613bf057845184529382019392820192600101613bd4565b509198975050505050505050565b634e487b7160e01b600052602160045260246000fd5b600060608284031215613c2657600080fd5b604051606081018181106001600160401b0382111715613c4857613c48612dc0565b6040528251613c5681612e97565b81526020830151613c6681612e97565b60208201526040830151613c7981612e97565b60408201529392505050565b7f416363657373436f6e74726f6c3a206163636f756e7420000000000000000000815260008351613cbd816017850160208801612cef565b7001034b99036b4b9b9b4b733903937b6329607d1b6017918401918201528351613cee816028840160208801612cef565b01602801949350505050565b600181815b80851115613d35578160001904821115613d1b57613d1b613742565b80851615613d2857918102915b93841c9390800290613cff565b509250929050565b600082613d4c575060016105b6565b81613d59575060006105b6565b8160018114613d6f5760028114613d7957613d95565b60019150506105b6565b60ff841115613d8a57613d8a613742565b50506001821b6105b6565b5060208310610133831016604e8410600b8410161715613db8575081810a6105b6565b613dc28383613cfa565b8060001904821115613dd657613dd6613742565b029392505050565b600061231160ff841683613d3d565b60006123118383613d3d565b60208152613e0b602082018351613815565b600060208301516102206101c08181860152613e34610240860184516001600160a01b03169052565b602083015115156102608601526040830151610280860152606083015115156102a086015260808301516001600160a01b03166102c086015260a08301516102e086015260c083015161030086015260e0830151610320860152610100830151151561034086015261012083015160ff9081166103608701526101408401516001600160401b03166103808701526101608401516103a08701526101808401516103c08701526101a0840151166103e0860152909101516101e06104008501819052909190613f07610420860184613937565b92506040860151613f1c8287018260ff169052565b50506060850151848303601f1901610200860152613f3a8382612d13565b925050608085015181850152508091505092915050565b60008251613f63818460208701612cef565b9190910192915050565b600081613f7c57613f7c613742565b50600019019056fea26469706673582212209f2c607d2df2e3d1e022aec0be71325b18bf10904ad06e1b2df9eb2b1127cd7764736f6c63430008110033",
  "linkReferences": {},
  "deployedLinkReferences": {}
}