{
  "_format": "hh-sol-artifact-1",
  "contractName": "OrderMgr",
  "sourceName": "contracts/market/OrderMgr.sol",
  "abi": [
    {
      "inputs": [],
      "stateMutability": "nonpayable",
      "type": "constructor"
    },
    {
      "anonymous": false,
      "inputs": [
        {
          "indexed": false,
          "internalType": "uint8",
          "name": "version",
          "type": "uint8"
        }
      ],
      "name": "Initialized",
      "type": "event"
    },
    {
      "anonymous": false,
      "inputs": [
        {
          "indexed": true,
          "internalType": "address",
          "name": "previousOwner",
          "type": "address"
        },
        {
          "indexed": true,
          "internalType": "address",
          "name": "newOwner",
          "type": "address"
        }
      ],
      "name": "OwnershipTransferred",
      "type": "event"
    },
    {
      "anonymous": false,
      "inputs": [
        {
          "indexed": true,
          "internalType": "bytes32",
          "name": "role",
          "type": "bytes32"
        },
        {
          "indexed": true,
          "internalType": "bytes32",
          "name": "previousAdminRole",
          "type": "bytes32"
        },
        {
          "indexed": true,
          "internalType": "bytes32",
          "name": "newAdminRole",
          "type": "bytes32"
        }
      ],
      "name": "RoleAdminChanged",
      "type": "event"
    },
    {
      "anonymous": false,
      "inputs": [
        {
          "indexed": true,
          "internalType": "bytes32",
          "name": "role",
          "type": "bytes32"
        },
        {
          "indexed": true,
          "internalType": "address",
          "name": "account",
          "type": "address"
        },
        {
          "indexed": true,
          "internalType": "address",
          "name": "sender",
          "type": "address"
        }
      ],
      "name": "RoleGranted",
      "type": "event"
    },
    {
      "anonymous": false,
      "inputs": [
        {
          "indexed": true,
          "internalType": "bytes32",
          "name": "role",
          "type": "bytes32"
        },
        {
          "indexed": true,
          "internalType": "address",
          "name": "account",
          "type": "address"
        },
        {
          "indexed": true,
          "internalType": "address",
          "name": "sender",
          "type": "address"
        }
      ],
      "name": "RoleRevoked",
      "type": "event"
    },
    {
      "inputs": [],
      "name": "DEFAULT_ADMIN_ROLE",
      "outputs": [
        {
          "internalType": "bytes32",
          "name": "",
          "type": "bytes32"
        }
      ],
      "stateMutability": "view",
      "type": "function"
    },
    {
      "inputs": [
        {
          "internalType": "address",
          "name": "_account",
          "type": "address"
        },
        {
          "internalType": "bool[]",
          "name": "_isIncreaseList",
          "type": "bool[]"
        },
        {
          "internalType": "uint256[]",
          "name": "_orderIDList",
          "type": "uint256[]"
        },
        {
          "internalType": "bool[]",
          "name": "_isLongList",
          "type": "bool[]"
        }
      ],
      "name": "cancelOrderList",
      "outputs": [],
      "stateMutability": "nonpayable",
      "type": "function"
    },
    {
      "inputs": [],
      "name": "collateralToken",
      "outputs": [
        {
          "internalType": "address",
          "name": "",
          "type": "address"
        }
      ],
      "stateMutability": "view",
      "type": "function"
    },
    {
      "inputs": [],
      "name": "collateralTokenDigits",
      "outputs": [
        {
          "internalType": "uint8",
          "name": "",
          "type": "uint8"
        }
      ],
      "stateMutability": "view",
      "type": "function"
    },
    {
      "inputs": [],
      "name": "feeRouter",
      "outputs": [
        {
          "internalType": "contract IFeeRouter",
          "name": "",
          "type": "address"
        }
      ],
      "stateMutability": "view",
      "type": "function"
    },
    {
      "inputs": [
        {
          "internalType": "bytes32",
          "name": "role",
          "type": "bytes32"
        }
      ],
      "name": "getRoleAdmin",
      "outputs": [
        {
          "internalType": "bytes32",
          "name": "",
          "type": "bytes32"
        }
      ],
      "stateMutability": "view",
      "type": "function"
    },
    {
      "inputs": [],
      "name": "globalValid",
      "outputs": [
        {
          "internalType": "address",
          "name": "",
          "type": "address"
        }
      ],
      "stateMutability": "view",
      "type": "function"
    },
    {
      "inputs": [
        {
          "internalType": "address",
          "name": "_account",
          "type": "address"
        }
      ],
      "name": "grantControllerRoleByMarketManager",
      "outputs": [],
      "stateMutability": "nonpayable",
      "type": "function"
    },
    {
      "inputs": [
        {
          "internalType": "bytes32",
          "name": "role",
          "type": "bytes32"
        },
        {
          "internalType": "address",
          "name": "account",
          "type": "address"
        }
      ],
      "name": "grantRole",
      "outputs": [],
      "stateMutability": "nonpayable",
      "type": "function"
    },
    {
      "inputs": [
        {
          "internalType": "bytes32",
          "name": "role",
          "type": "bytes32"
        },
        {
          "internalType": "address",
          "name": "account",
          "type": "address"
        }
      ],
      "name": "hasRole",
      "outputs": [
        {
          "internalType": "bool",
          "name": "",
          "type": "bool"
        }
      ],
      "stateMutability": "view",
      "type": "function"
    },
    {
      "inputs": [],
      "name": "indexToken",
      "outputs": [
        {
          "internalType": "address",
          "name": "",
          "type": "address"
        }
      ],
      "stateMutability": "view",
      "type": "function"
    },
    {
      "inputs": [],
      "name": "marketRouter",
      "outputs": [
        {
          "internalType": "address",
          "name": "",
          "type": "address"
        }
      ],
      "stateMutability": "view",
      "type": "function"
    },
    {
      "inputs": [],
      "name": "marketValid",
      "outputs": [
        {
          "internalType": "address",
          "name": "",
          "type": "address"
        }
      ],
      "stateMutability": "view",
      "type": "function"
    },
    {
      "inputs": [],
      "name": "name",
      "outputs": [
        {
          "internalType": "string",
          "name": "",
          "type": "string"
        }
      ],
      "stateMutability": "view",
      "type": "function"
    },
    {
      "inputs": [],
      "name": "orderBookLong",
      "outputs": [
        {
          "internalType": "contract IOrderBook",
          "name": "",
          "type": "address"
        }
      ],
      "stateMutability": "view",
      "type": "function"
    },
    {
      "inputs": [],
      "name": "orderBookShort",
      "outputs": [
        {
          "internalType": "contract IOrderBook",
          "name": "",
          "type": "address"
        }
      ],
      "stateMutability": "view",
      "type": "function"
    },
    {
      "inputs": [],
      "name": "orderMgr",
      "outputs": [
        {
          "internalType": "address",
          "name": "",
          "type": "address"
        }
      ],
      "stateMutability": "view",
      "type": "function"
    },
    {
      "inputs": [
        {
          "internalType": "bool",
          "name": "isLong",
          "type": "bool"
        },
        {
          "internalType": "bool",
          "name": "isOpen",
          "type": "bool"
        }
      ],
      "name": "orderStore",
      "outputs": [
        {
          "internalType": "contract IOrderStore",
          "name": "",
          "type": "address"
        }
      ],
      "stateMutability": "view",
      "type": "function"
    },
    {
      "inputs": [],
      "name": "owner",
      "outputs": [
        {
          "internalType": "address",
          "name": "",
          "type": "address"
        }
      ],
      "stateMutability": "view",
      "type": "function"
    },
    {
      "inputs": [],
      "name": "pluginGasLimit",
      "outputs": [
        {
          "internalType": "uint256",
          "name": "",
          "type": "uint256"
        }
      ],
      "stateMutability": "view",
      "type": "function"
    },
    {
      "inputs": [
        {
          "internalType": "uint256",
          "name": "",
          "type": "uint256"
        }
      ],
      "name": "plugins",
      "outputs": [
        {
          "internalType": "address",
          "name": "",
          "type": "address"
        }
      ],
      "stateMutability": "view",
      "type": "function"
    },
    {
      "inputs": [],
      "name": "positionAddMgr",
      "outputs": [
        {
          "internalType": "address",
          "name": "",
          "type": "address"
        }
      ],
      "stateMutability": "view",
      "type": "function"
    },
    {
      "inputs": [],
      "name": "positionBook",
      "outputs": [
        {
          "internalType": "contract IPositionBook",
          "name": "",
          "type": "address"
        }
      ],
      "stateMutability": "view",
      "type": "function"
    },
    {
      "inputs": [],
      "name": "positionStoreLong",
      "outputs": [
        {
          "internalType": "address",
          "name": "",
          "type": "address"
        }
      ],
      "stateMutability": "view",
      "type": "function"
    },
    {
      "inputs": [],
      "name": "positionStoreShort",
      "outputs": [
        {
          "internalType": "address",
          "name": "",
          "type": "address"
        }
      ],
      "stateMutability": "view",
      "type": "function"
    },
    {
      "inputs": [],
      "name": "positionSubMgr",
      "outputs": [
        {
          "internalType": "address",
          "name": "",
          "type": "address"
        }
      ],
      "stateMutability": "view",
      "type": "function"
    },
    {
      "inputs": [],
      "name": "priceFeed",
      "outputs": [
        {
          "internalType": "address",
          "name": "",
          "type": "address"
        }
      ],
      "stateMutability": "view",
      "type": "function"
    },
    {
      "inputs": [],
      "name": "renounceOwnership",
      "outputs": [],
      "stateMutability": "nonpayable",
      "type": "function"
    },
    {
      "inputs": [
        {
          "internalType": "bytes32",
          "name": "role",
          "type": "bytes32"
        },
        {
          "internalType": "address",
          "name": "account",
          "type": "address"
        }
      ],
      "name": "renounceRole",
      "outputs": [],
      "stateMutability": "nonpayable",
      "type": "function"
    },
    {
      "inputs": [
        {
          "internalType": "bytes32",
          "name": "role",
          "type": "bytes32"
        },
        {
          "internalType": "address",
          "name": "account",
          "type": "address"
        }
      ],
      "name": "revokeRole",
      "outputs": [],
      "stateMutability": "nonpayable",
      "type": "function"
    },
    {
      "inputs": [
        {
          "internalType": "address[]",
          "name": "addrs",
          "type": "address[]"
        }
      ],
      "name": "setContracts",
      "outputs": [],
      "stateMutability": "nonpayable",
      "type": "function"
    },
    {
      "inputs": [
        {
          "internalType": "address",
          "name": "_f",
          "type": "address"
        }
      ],
      "name": "setFeeRouter",
      "outputs": [],
      "stateMutability": "nonpayable",
      "type": "function"
    },
    {
      "inputs": [
        {
          "internalType": "address",
          "name": "pb",
          "type": "address"
        }
      ],
      "name": "setPositionBookV2",
      "outputs": [],
      "stateMutability": "nonpayable",
      "type": "function"
    },
    {
      "inputs": [
        {
          "internalType": "bytes4",
          "name": "interfaceId",
          "type": "bytes4"
        }
      ],
      "name": "supportsInterface",
      "outputs": [
        {
          "internalType": "bool",
          "name": "",
          "type": "bool"
        }
      ],
      "stateMutability": "view",
      "type": "function"
    },
    {
      "inputs": [
        {
          "internalType": "bytes32[]",
          "name": "_orderKey",
          "type": "bytes32[]"
        },
        {
          "internalType": "bool[]",
          "name": "_isLong",
          "type": "bool[]"
        },
        {
          "internalType": "bool[]",
          "name": "_isIncrease",
          "type": "bool[]"
        },
        {
          "internalType": "string[]",
          "name": "reasons",
          "type": "string[]"
        }
      ],
      "name": "sysCancelOrder",
      "outputs": [],
      "stateMutability": "nonpayable",
      "type": "function"
    },
    {
      "inputs": [
        {
          "internalType": "address",
          "name": "to",
          "type": "address"
        }
      ],
      "name": "transferAdmin",
      "outputs": [],
      "stateMutability": "nonpayable",
      "type": "function"
    },
    {
      "inputs": [
        {
          "internalType": "address",
          "name": "newOwner",
          "type": "address"
        }
      ],
      "name": "transferOwnership",
      "outputs": [],
      "stateMutability": "nonpayable",
      "type": "function"
    },
    {
      "inputs": [
        {
          "components": [
            {
              "internalType": "address",
              "name": "_market",
              "type": "address"
            },
            {
              "internalType": "bool",
              "name": "_isLong",
              "type": "bool"
            },
            {
              "internalType": "uint256",
              "name": "_oraclePrice",
              "type": "uint256"
            },
            {
              "internalType": "bool",
              "name": "isOpen",
              "type": "bool"
            },
            {
              "internalType": "bool",
              "name": "isCreate",
              "type": "bool"
            },
            {
              "components": [
                {
                  "internalType": "uint8",
                  "name": "version",
                  "type": "uint8"
                },
                {
                  "internalType": "uint32",
                  "name": "updatedAtBlock",
                  "type": "uint32"
                },
                {
                  "internalType": "uint8",
                  "name": "triggerAbove",
                  "type": "uint8"
                },
                {
                  "internalType": "address",
                  "name": "account",
                  "type": "address"
                },
                {
                  "internalType": "uint48",
                  "name": "extra3",
                  "type": "uint48"
                },
                {
                  "internalType": "uint128",
                  "name": "collateral",
                  "type": "uint128"
                },
                {
                  "internalType": "uint128",
                  "name": "size",
                  "type": "uint128"
                },
                {
                  "internalType": "uint128",
                  "name": "price",
                  "type": "uint128"
                },
                {
                  "internalType": "uint128",
                  "name": "extra1",
                  "type": "uint128"
                },
                {
                  "internalType": "uint64",
                  "name": "orderID",
                  "type": "uint64"
                },
                {
                  "internalType": "uint64",
                  "name": "extra2",
                  "type": "uint64"
                },
                {
                  "internalType": "uint128",
                  "name": "extra0",
                  "type": "uint128"
                },
                {
                  "internalType": "bytes32",
                  "name": "refCode",
                  "type": "bytes32"
                }
              ],
              "internalType": "struct Order.Props",
              "name": "_order",
              "type": "tuple"
            },
            {
              "internalType": "uint256[]",
              "name": "inputs",
              "type": "uint256[]"
            }
          ],
          "internalType": "struct MarketDataTypes.UpdateOrderInputs",
          "name": "_vars",
          "type": "tuple"
        }
      ],
      "name": "updateOrder",
      "outputs": [],
      "stateMutability": "nonpayable",
      "type": "function"
    },
    {
      "inputs": [],
      "name": "vaultRouter",
      "outputs": [
        {
          "internalType": "address",
          "name": "",
          "type": "address"
        }
      ],
      "stateMutability": "view",
      "type": "function"
    }
  ],
  "bytecode": "0x60806040523480156200001157600080fd5b5060016046556000620000243362000041565b6200003a816200009360201b62001a6f1760201c565b5062000173565b604880546001600160a01b038381166001600160a01b0319831681179093556040519116919082907f8be0079c531659141344cd1fd0a4f28419497f9722a3daafe3b4186f6b6457e090600090a35050565b42604955620000a23362000041565b620000af600033620000bf565b620000bc600082620000bf565b50565b620000cb8282620000cf565b5050565b60008281526047602090815260408083206001600160a01b038516845290915290205460ff16620000cb5760008281526047602090815260408083206001600160a01b03851684529091529020805460ff191660011790556200012f3390565b6001600160a01b0316816001600160a01b0316837f2f8788117e7eff1d82e926ec794901d17c78024a50270940304540a733656f0d60405160405180910390a45050565b61406d80620001836000396000f3fe608060405234801561001057600080fd5b506004361061023d5760003560e01c806398277cd81161013b578063c267ada4116100b8578063d547741f1161007c578063d547741f14610544578063e7d015f214610557578063f0a317eb1461056a578063f29ebf611461057d578063f2fde38b1461059057600080fd5b8063c267ada4146104c8578063c54dc3d6146104f8578063d12dbde41461050b578063d37c441c1461051e578063d49ff78d1461053157600080fd5b8063ac0c7aa4116100ff578063ac0c7aa41461045d578063b038beb814610470578063b2016bd414610483578063b21dc9cb14610496578063b894300d146104b557600080fd5b806398277cd8146103e4578063a0cbf50c146103f7578063a217fddf1461040a578063a264045414610412578063ac0b05a61461044a57600080fd5b806345ccf5c5116101c95780637b2fd1e51161018d5780637b2fd1e5146103875780637fe4a6981461039a5780638a6ca35d146103ad5780638da5cb5b146103c057806391d14854146103d157600080fd5b806345ccf5c5146103335780635fb52b9514610346578063715018a614610359578063741bef1a1461036157806375829def1461037457600080fd5b806307e875451161021057806307e87545146102c2578063248a9ca3146102d55780632f2ff15d146102f8578063301f6fe91461030d57806336568abe1461032057600080fd5b806301ffc9a71461024257806303deb0291461026a57806305ba9ae91461028257806306fdde03146102ad575b600080fd5b610255610250366004612d78565b6105a3565b60405190151581526020015b60405180910390f35b610274620a2c2a81565b604051908152602001610261565b600654610295906001600160a01b031681565b6040516001600160a01b039091168152602001610261565b6102b56105da565b6040516102619190612df2565b600a54610295906001600160a01b031681565b6102746102e3366004612e05565b60009081526047602052604090206001015490565b61030b610306366004612e43565b610668565b005b61030b61031b366004613032565b610692565b61030b61032e366004612e43565b61096f565b600b54610295906001600160a01b031681565b61030b6103543660046130cc565b6109ed565b61030b610a82565b600954610295906001600160a01b031681565b61030b6103823660046130cc565b610a96565b600554610295906001600160a01b031681565b61030b6103a83660046130cc565b610ac0565b600e54610295906001600160a01b031681565b6048546001600160a01b0316610295565b6102556103df366004612e43565b610aea565b61030b6103f23660046130e9565b610b15565b600f54610295906001600160a01b031681565b610274600081565b610295610420366004613177565b9015156000908152600760209081526040808320931515835292905220546001600160a01b031690565b600354610295906001600160a01b031681565b61030b61046b366004613288565b610da1565b61030b61047e36600461350d565b611197565b600454610295906001600160a01b031681565b6013546104a39060ff1681565b60405160ff9091168152602001610261565b600054610295906001600160a01b031681565b61030b6104d63660046130cc565b600880546001600160a01b0319166001600160a01b0392909216919091179055565b600154610295906001600160a01b031681565b601054610295906001600160a01b031681565b600c54610295906001600160a01b031681565b600d54610295906001600160a01b031681565b61030b610552366004612e43565b6119a7565b600254610295906001600160a01b031681565b610295610578366004612e05565b6119cc565b600854610295906001600160a01b031681565b61030b61059e3660046130cc565b6119f6565b60006001600160e01b03198216637965db0b60e01b14806105d457506301ffc9a760e01b6001600160e01b03198316145b92915050565b601180546105e7906135db565b80601f0160208091040260200160405190810160405280929190818152602001828054610613906135db565b80156106605780601f1061063557610100808354040283529160200191610660565b820191906000526020600020905b81548152906001019060200180831161064357829003601f168201915b505050505081565b60008281526047602052604090206001015461068381611a92565b61068d8383611a9c565b505050565b81518351146106e05760405162461bcd60e51b815260206004820152601560248201527409ee4c8cae49acee474d2dce0eae840d8cadccee8d605b1b60448201526064015b60405180910390fd5b81518151146107295760405162461bcd60e51b815260206004820152601560248201527409ee4c8cae49acee474d2dce0eae840d8cadccee8d605b1b60448201526064016106d7565b81516000805b8281101561093f57600084828151811061074b5761074b613615565b6020026020010151610768576006546001600160a01b0316610775565b6005546001600160a01b03165b6001600160a01b0316638f5492068988858151811061079657610796613615565b60200260200101518a86815181106107b0576107b0613615565b60209081029190910101516040516001600160e01b031960e086901b1681526001600160a01b0390931660048401526024830191909152151560448201526064016000604051808303816000875af1158015610810573d6000803e3d6000fd5b505050506040513d6000823e601f3d908101601f191682016040526108389190810190613767565b905060005b815181101561092c5781818151811061085857610858613615565b602002602001015161012001516001600160401b03166000031561091c5761090f6040518060c0016040528084848151811061089657610896613615565b602002602001015181526020018886815181106108b5576108b5613615565b6020026020010151151581526020018a86815181106108d6576108d6613615565b60200260200101511515815260200160001515815260200160001515815260200160405180602001604052806000815250815250611b22565b610919908561380b565b93505b6109258161381e565b905061083d565b5050806109389061381e565b905061072f565b508060000361094f575050610969565b600454610966906001600160a01b0316878361212c565b50505b50505050565b6001600160a01b03811633146109df5760405162461bcd60e51b815260206004820152602f60248201527f416363657373436f6e74726f6c3a2063616e206f6e6c792072656e6f756e636560448201526e103937b632b9903337b91039b2b63360891b60648201526084016106d7565b6109e98282612196565b5050565b6001600160a01b038116610a0057600080fd5b6010546040516366b75fb360e11b81526001600160a01b0383811660048301529091169063cd6ebf6690602401600060405180830381600087803b158015610a4757600080fd5b505af1158015610a5b573d6000803e3d6000fd5b5050600380546001600160a01b0319166001600160a01b0394909416939093179092555050565b610a8a6121fd565b610a946000612257565b565b6000610aa181611a92565b610aac6000836122a9565b610ab582612257565b6109e9600033612196565b7f8d1089725c0dc266707fa6207730fb801dcd03108bfed7a21099bd303651d2b761023d81611a92565b60009182526047602090815260408084206001600160a01b0393909316845291905290205460ff1690565b80600081518110610b2857610b28613615565b6020026020010151600360006101000a8154816001600160a01b0302191690836001600160a01b0316021790555080600181518110610b6957610b69613615565b6020026020010151600560006101000a8154816001600160a01b0302191690836001600160a01b0316021790555080600281518110610baa57610baa613615565b6020026020010151600660006101000a8154816001600160a01b0302191690836001600160a01b0316021790555080600381518110610beb57610beb613615565b60200260200101516000806101000a8154816001600160a01b0302191690836001600160a01b0316021790555080600581518110610c2b57610c2b613615565b6020026020010151600e60006101000a8154816001600160a01b0302191690836001600160a01b0316021790555080600681518110610c6c57610c6c613615565b6020026020010151600d60006101000a8154816001600160a01b0302191690836001600160a01b0316021790555080600781518110610cad57610cad613615565b6020026020010151600860006101000a8154816001600160a01b0302191690836001600160a01b0316021790555080600881518110610cee57610cee613615565b6020026020010151600c60006101000a8154816001600160a01b0302191690836001600160a01b0316021790555080600981518110610d2f57610d2f613615565b6020026020010151600160006101000a8154816001600160a01b0302191690836001600160a01b0316021790555080600a81518110610d7057610d70613615565b6020026020010151600f60006101000a8154816001600160a01b0302191690836001600160a01b0316021790555050565b8251845114610daf57600080fd5b8251825114610dbd57600080fd5b60005b8451811015611190576000801b858281518110610ddf57610ddf613615565b6020026020010151031561117e57610e0f828281518110610e0257610e02613615565b60200260200101516122b3565b1561117e576000848281518110610e2857610e28613615565b6020026020010151610e45576006546001600160a01b0316610e52565b6005546001600160a01b03165b9050838281518110610e6657610e66613615565b6020026020010151610ed957806001600160a01b0316636d0785666040518163ffffffff1660e01b8152600401602060405180830381865afa158015610eb0573d6000803e3d6000fd5b505050506040513d601f19601f82011682018060405250810190610ed49190613837565b610f3b565b806001600160a01b0316637e1dcaf76040518163ffffffff1660e01b8152600401602060405180830381865afa158015610f17573d6000803e3d6000fd5b505050506040513d601f19601f82011682018060405250810190610f3b9190613837565b6001600160a01b031663f6b102a6878481518110610f5b57610f5b613615565b60200260200101516040518263ffffffff1660e01b8152600401610f8191815260200190565b602060405180830381865afa158015610f9e573d6000803e3d6000fd5b505050506040513d601f19601f82011682018060405250810190610fc2919061385f565b1515600003610fd1575061117e565b6000816001600160a01b03166345824d67888581518110610ff457610ff4613615565b602002602001015187868151811061100e5761100e613615565b60200260200101516040518363ffffffff1660e01b815260040161103e9291909182521515602082015260400190565b6000604051808303816000875af115801561105d573d6000803e3d6000fd5b505050506040513d6000823e601f3d908101601f191682016040526110859190810190613767565b905060005b815181101561117a578181815181106110a5576110a5613615565b602002602001015161012001516001600160401b031660000315611168576111666040518060c001604052808484815181106110e3576110e3613615565b6020026020010151815260200189878151811061110257611102613615565b60200260200101511515815260200188878151811061112357611123613615565b60200260200101511515815260200160011515815260200160011515815260200187878151811061115657611156613615565b6020026020010151815250611b22565b505b806111728161381e565b91505061108a565b5050505b806111888161381e565b915050610dc0565b5050505050565b806060015180156111a9575080608001515b15611217576000546001600160a01b031663015fc6136111c883612309565b6040518263ffffffff1660e01b81526004016111e691815260200190565b60006040518083038186803b1580156111fe57600080fd5b505afa158015611212573d6000803e3d6000fd5b505050505b61122e816060015115158260200151151514612345565b604082015261123c816123cb565b1561132d578060200151151581606001511515036112c5576112aa61271061126383612406565b8360a0015160e001516001600160801b031661127f919061387c565b6112899190613893565b8260a0015160e001516001600160801b03166112a5919061380b565b612434565b60a08201516001600160801b0390911660e09091015261132d565b6113166127106112d483612406565b8360a0015160e001516001600160801b03166112f0919061387c565b6112fa9190613893565b8260a0015160e001516001600160801b03166112a591906138b5565b60a08201516001600160801b0390911660e0909101525b60008160200151611349576006546001600160a01b0316611356565b6005546001600160a01b03165b90508160800151801561136a575081606001515b156114605760005460085460405163c8830bf560e01b81526001600160a01b039283169263592b1e2a92869291169063c8830bf5906113ad908490600401613a98565b602060405180830381865afa1580156113ca573d6000803e3d6000fd5b505050506040513d601f19601f820116820180604052508101906113ee9190613aab565b6040518363ffffffff1660e01b815260040161140b929190613ac4565b60006040518083038186803b15801561142357600080fd5b505afa158015611437573d6000803e3d6000fd5b505050506114476112a583612309565b60a0808401516001600160801b03909216910152611734565b8160800151801561147357508160600151155b156117345760035460a0830151606001516040808501516020860151915163bc95baad60e01b81526001600160a01b03938416600482015260248101919091529015156044820152600092919091169063bc95baad9060640161018060405180830381865afa1580156114ea573d6000803e3d6000fd5b505050506040513d601f19601f8201168201806040525081019061150e9190613afd565b905061154b6112a560008560a001516080015165ffffffffffff161183608001518660a0015160c001516001600160801b03168560a001516124a1565b60a0808501516001600160801b039092169101526115716000546001600160a01b031690565b60a0808301518582015191820151608085015160c09093015160085460405163c8830bf560e01b81526001600160a01b03968716966301b8fd7c966001600160801b03909516949392169063c8830bf5906115d0908c90600401613a98565b602060405180830381865afa1580156115ed573d6000803e3d6000fd5b505050506040513d601f19601f820116820180604052508101906116119190613aab565b6116488a602001518b606001519015156000908152600760209081526040808320931515835292905220546001600160a01b031690565b60a08b01516060015160405163350cffdd60e11b81526001600160a01b039182166004820152911690636a19ffba90602401602060405180830381865afa158015611697573d6000803e3d6000fd5b505050506040513d601f19601f820116820180604052508101906116bb9190613aab565b6040516001600160e01b031960e089901b1681526004810196909652602486019490945260448501929092526001600160801b03166064840152608483015260a482015260c40160006040518083038186803b15801561171a57600080fd5b505afa15801561172e573d6000803e3d6000fd5b50505050505b604080516001808252818301909252600091816020015b6117ed6040805160e08082018352600080835260208084018290528385018290526060808501839052608080860184905286516101a081018852848152928301849052958201839052810182905293840181905260a084810182905260c0850182905291840181905261010084018190526101208401819052610140840181905261016084018190526101808401529091908201908152602001606081525090565b81526020019060019003908161174b579050509050828160008151811061181657611816613615565b6020026020010181905250826080015161189f57604051630c31673960e01b81526001600160a01b03831690630c31673990611856908690600401613a98565b6101a0604051808303816000875af1158015611876573d6000803e3d6000fd5b505050506040513d601f19601f8201168201806040525081019061189a9190613bb3565b61192d565b6040516359cc542160e11b81526001600160a01b0383169063b398a842906118cb908490600401613bd0565b6000604051808303816000875af11580156118ea573d6000803e3d6000fd5b505050506040513d6000823e601f3d908101601f191682016040526119129190810190613767565b60008151811061192457611924613615565b60200260200101515b60a0840152601280546040805160208084028201810190925282815261068d938793620a2c2a9383018282801561198d57602002820191906000526020600020905b81546001600160a01b0316815260019091019060200180831161196f575b50506004546001600160a01b031692503091506124d19050565b6000828152604760205260409020600101546119c281611a92565b61068d8383612196565b601281815481106119dc57600080fd5b6000918252602090912001546001600160a01b0316905081565b6119fe6121fd565b6001600160a01b038116611a635760405162461bcd60e51b815260206004820152602660248201527f4f776e61626c653a206e6577206f776e657220697320746865207a65726f206160448201526564647265737360d01b60648201526084016106d7565b611a6c81612257565b50565b42604955611a7c33612257565b611a876000336122a9565b611a6c6000826122a9565b611a6c813361271e565b611aa68282610aea565b6109e95760008281526047602090815260408083206001600160a01b03851684529091529020805460ff19166001179055611ade3390565b6001600160a01b0316816001600160a01b0316837f2f8788117e7eff1d82e926ec794901d17c78024a50270940304540a733656f0d60405160405180910390a45050565b6000808260800151611b35576000611ba1565b6008546040516309d3989760e01b81523060048201526001600160a01b03909116906309d3989790602401602060405180830381865afa158015611b7d573d6000803e3d6000fd5b505050506040513d601f19601f82011682018060405250810190611ba19190613aab565b600480546040805163313ce56760e01b81529051939450600093611c1a9386936001600160a01b03169263313ce56792818301926020928290030181865afa158015611bf1573d6000803e3d6000fd5b505050506040513d601f19601f82011682018060405250810190611c159190613c32565b612777565b905083604001518015611c3b5750835160a001516001600160801b03168211155b15611dde578115611d76576004805460085460405163095ea7b360e01b81526001600160a01b039182169381019390935260248301849052169063095ea7b3906044016020604051808303816000875af1158015611c9d573d6000803e3d6000fd5b505050506040513d601f19601f82011682018060405250810190611cc1919061385f565b5060408051600480825260a08201909252600091602082016080803683370190505090508281600381518110611cf957611cf9613615565b60209081029190910101526008548551606001516004805460405163e50f19ef60e01b81526001600160a01b039485169463e50f19ef94611d4294909390911691879101613c4f565b600060405180830381600087803b158015611d5c57600080fd5b505af1158015611d70573d6000803e3d6000fd5b50505050505b836060015115611dbd576004548451606081015160a090910151611db8926001600160a01b03169190611db39086906001600160801b03166138b5565b61212c565b611fb9565b835160a00151611dd79083906001600160801b03166138b5565b9250611fb9565b6040840151158015611df1575083608001515b15611fb9576003548451606001516020860151604051635a227c7560e11b81526001600160a01b039283166004820152602481018690529015156044820152600092919091169063b444f8ea906064016020604051808303816000875af1158015611e60573d6000803e3d6000fd5b505050506040513d601f19601f82011682018060405250810190611e849190613aab565b60408051600480825260a0820190925291925060009190602082016080803683370190505090508181600381518110611ebf57611ebf613615565b60209081029190910101526004805460085460405163095ea7b360e01b81526001600160a01b039182169381019390935260248301869052169063095ea7b3906044016020604051808303816000875af1158015611f21573d6000803e3d6000fd5b505050506040513d601f19601f82011682018060405250810190611f45919061385f565b506008548651606001516004805460405163e50f19ef60e01b81526001600160a01b039485169463e50f19ef94611f8494909390911691879101613c4f565b600060405180830381600087803b158015611f9e57600080fd5b505af1158015611fb2573d6000803e3d6000fd5b5050505050505b604080516101e0810182526000602080830182815293830182905260608084018390526080840183905260a0840183905260c0840183905260e08401839052610100840183905261012084018390526101408401839052610160840183905261018084018390526101a08401929092526101c083019190915230825286015115159091526120476001612345565b6040808301919091528581015115156060830152805160a0810182528651815260208101839052608087015161212492820190612085576005612088565b60065b600781111561209957612099613cb1565b60ff1681526020018760a0015181526020016000815250620a2c2a601280548060200260200160405190810160405280929190818152602001828054801561210a57602002820191906000526020600020905b81546001600160a01b031681526001909101906020018083116120ec575b50506004546001600160a01b031692503091506127a79050565b505050919050565b8060000361213957505050565b600083905061218082856001600160a01b031663313ce5676040518163ffffffff1660e01b8152600401602060405180830381865afa158015611bf1573d6000803e3d6000fd5b91506109696001600160a01b038216848461292b565b6121a08282610aea565b156109e95760008281526047602090815260408083206001600160a01b0385168085529252808320805460ff1916905551339285917ff6391f5c32d9c69d2a47ea670b442974b53935d1edc7fd64eb21e047a839171b9190a45050565b6048546001600160a01b03163314610a945760405162461bcd60e51b815260206004820181905260248201527f4f776e61626c653a2063616c6c6572206973206e6f7420746865206f776e657260448201526064016106d7565b604880546001600160a01b038381166001600160a01b0319831681179093556040519116919082907f8be0079c531659141344cd1fd0a4f28419497f9722a3daafe3b4186f6b6457e090600090a35050565b6109e98282611a9c565b60006122f4826040518060400160405280601b81526020017f506f736974696f6e4164644d67723a7472696767657261626f7665000000000081525061297d565b1561230157506000919050565b506001919050565b600060018260c001515110156123205760006105d4565b8160c0015160008151811061233757612337613615565b602002602001015192915050565b6009546002546040516303b6b4bb60e51b81526001600160a01b0391821660048201528315156024820152600092919091169081906376d6976090604401602060405180830381865afa1580156123a0573d6000803e3d6000fd5b505050506040513d601f19601f820116820180604052508101906123c49190613aab565b9392505050565b600060028260c0015151101580156105d4575060008260c001516001815181106123f7576123f7613615565b60200260200101511192915050565b600060038260c0015151101561241d5760006105d4565b8160c0015160028151811061233757612337613615565b60006001600160801b0382111561249d5760405162461bcd60e51b815260206004820152602760248201527f53616665436173743a2076616c756520646f65736e27742066697420696e20316044820152663238206269747360c81b60648201526084016106d7565b5090565b600084156124c557836124b4848461387c565b6124be9190613893565b90506124c9565b5060005b949350505050565b6040516370a0823160e01b81526001600160a01b038281166004830152600091908416906370a0823190602401602060405180830381865afa15801561251b573d6000803e3d6000fd5b505050506040513d601f19601f8201168201806040525081019061253f9190613aab565b905060005b84518110156126555784818151811061255f5761255f613615565b60200260200101516001600160a01b031663612c39b76040518163ffffffff1660e01b8152600401606060405180830381865afa1580156125a4573d6000803e3d6000fd5b505050506040513d601f19601f820116820180604052508101906125c89190613cc7565b6020015115612643578481815181106125e3576125e3613615565b60200260200101516001600160a01b031663cce9a2f3886040518263ffffffff1660e01b81526004016126169190613a98565b600060405180830381600087803b15801561263057600080fd5b505af1925050508015612641575060015b505b8061264d8161381e565b915050612544565b506040516370a0823160e01b81526001600160a01b038381166004830152600091908516906370a0823190602401602060405180830381865afa1580156126a0573d6000803e3d6000fd5b505050506040513d601f19601f820116820180604052508101906126c49190613aab565b90508181146127155760405162461bcd60e51b815260206004820152601b60248201527f455243323020746f6b656e2062616c616e6365206368616e676564000000000060448201526064016106d7565b50505050505050565b6127288282610aea565b6109e957612735816129d6565b6127408360206129e8565b604051602001612751929190613d38565b60408051601f198184030181529082905262461bcd60e51b82526106d791600401612df2565b60006127856012600a613e91565b61279360ff8416600a613ea0565b61279d908561387c565b6123c49190613893565b6040516370a0823160e01b81526001600160a01b038281166004830152600091908416906370a0823190602401602060405180830381865afa1580156127f1573d6000803e3d6000fd5b505050506040513d601f19601f820116820180604052508101906128159190613aab565b905060005b84518110156126555784818151811061283557612835613615565b60200260200101516001600160a01b031663612c39b76040518163ffffffff1660e01b8152600401606060405180830381865afa15801561287a573d6000803e3d6000fd5b505050506040513d601f19601f8201168201806040525081019061289e9190613cc7565b6040015115612919578481815181106128b9576128b9613615565b60200260200101516001600160a01b031663718cb58a886040518263ffffffff1660e01b81526004016128ec9190613eac565b600060405180830381600087803b15801561290657600080fd5b505af1925050508015612917575060015b505b806129238161381e565b91505061281a565b604080516001600160a01b038416602482015260448082018490528251808303909101815260649091019091526020810180516001600160e01b031663a9059cbb60e01b17905261068d908490612b83565b6000816040516020016129909190614004565b60405160208183030381529060405280519060200120836040516020016129b79190614004565b6040516020818303038152906040528051906020012014905092915050565b60606105d46001600160a01b03831660145b606060006129f783600261387c565b612a0290600261380b565b6001600160401b03811115612a1957612a19612e73565b6040519080825280601f01601f191660200182016040528015612a43576020820181803683370190505b509050600360fc1b81600081518110612a5e57612a5e613615565b60200101906001600160f81b031916908160001a905350600f60fb1b81600181518110612a8d57612a8d613615565b60200101906001600160f81b031916908160001a9053506000612ab184600261387c565b612abc90600161380b565b90505b6001811115612b34576f181899199a1a9b1b9c1cb0b131b232b360811b85600f1660108110612af057612af0613615565b1a60f81b828281518110612b0657612b06613615565b60200101906001600160f81b031916908160001a90535060049490941c93612b2d81614020565b9050612abf565b5083156123c45760405162461bcd60e51b815260206004820181905260248201527f537472696e67733a20686578206c656e67746820696e73756666696369656e7460448201526064016106d7565b6000612bd8826040518060400160405280602081526020017f5361666545524332303a206c6f772d6c6576656c2063616c6c206661696c6564815250856001600160a01b0316612c559092919063ffffffff16565b80519091501561068d5780806020019051810190612bf6919061385f565b61068d5760405162461bcd60e51b815260206004820152602a60248201527f5361666545524332303a204552433230206f7065726174696f6e20646964206e6044820152691bdd081cdd58d8d9595960b21b60648201526084016106d7565b60606124c9848460008585600080866001600160a01b03168587604051612c7c9190614004565b60006040518083038185875af1925050503d8060008114612cb9576040519150601f19603f3d011682016040523d82523d6000602084013e612cbe565b606091505b5091509150612ccf87838387612cda565b979650505050505050565b60608315612d49578251600003612d42576001600160a01b0385163b612d425760405162461bcd60e51b815260206004820152601d60248201527f416464726573733a2063616c6c20746f206e6f6e2d636f6e747261637400000060448201526064016106d7565b50816124c9565b6124c98383815115612d5e5781518083602001fd5b8060405162461bcd60e51b81526004016106d79190612df2565b600060208284031215612d8a57600080fd5b81356001600160e01b0319811681146123c457600080fd5b60005b83811015612dbd578181015183820152602001612da5565b50506000910152565b60008151808452612dde816020860160208601612da2565b601f01601f19169290920160200192915050565b6020815260006123c46020830184612dc6565b600060208284031215612e1757600080fd5b5035919050565b6001600160a01b0381168114611a6c57600080fd5b8035612e3e81612e1e565b919050565b60008060408385031215612e5657600080fd5b823591506020830135612e6881612e1e565b809150509250929050565b634e487b7160e01b600052604160045260246000fd5b6040516101a081016001600160401b0381118282101715612eac57612eac612e73565b60405290565b60405160e081016001600160401b0381118282101715612eac57612eac612e73565b60405161018081016001600160401b0381118282101715612eac57612eac612e73565b604051601f8201601f191681016001600160401b0381118282101715612f1f57612f1f612e73565b604052919050565b60006001600160401b03821115612f4057612f40612e73565b5060051b60200190565b8015158114611a6c57600080fd5b8035612e3e81612f4a565b600082601f830112612f7457600080fd5b81356020612f89612f8483612f27565b612ef7565b82815260059290921b84018101918181019086841115612fa857600080fd5b8286015b84811015612fcc578035612fbf81612f4a565b8352918301918301612fac565b509695505050505050565b600082601f830112612fe857600080fd5b81356020612ff8612f8483612f27565b82815260059290921b8401810191818101908684111561301757600080fd5b8286015b84811015612fcc578035835291830191830161301b565b6000806000806080858703121561304857600080fd5b843561305381612e1e565b935060208501356001600160401b038082111561306f57600080fd5b61307b88838901612f63565b9450604087013591508082111561309157600080fd5b61309d88838901612fd7565b935060608701359150808211156130b357600080fd5b506130c087828801612f63565b91505092959194509250565b6000602082840312156130de57600080fd5b81356123c481612e1e565b600060208083850312156130fc57600080fd5b82356001600160401b0381111561311257600080fd5b8301601f8101851361312357600080fd5b8035613131612f8482612f27565b81815260059190911b8201830190838101908783111561315057600080fd5b928401925b82841015612ccf57833561316881612e1e565b82529284019290840190613155565b6000806040838503121561318a57600080fd5b823561319581612f4a565b91506020830135612e6881612f4a565b6000601f83818401126131b757600080fd5b823560206131c7612f8483612f27565b82815260059290921b850181019181810190878411156131e657600080fd5b8287015b8481101561327c5780356001600160401b038082111561320a5760008081fd5b818a0191508a603f83011261321f5760008081fd5b8582013560408282111561323557613235612e73565b613246828b01601f19168901612ef7565b92508183528c8183860101111561325d5760008081fd5b81818501898501375060009082018701528452509183019183016131ea565b50979650505050505050565b6000806000806080858703121561329e57600080fd5b84356001600160401b03808211156132b557600080fd5b818701915087601f8301126132c957600080fd5b813560206132d9612f8483612f27565b82815260059290921b8401810191818101908b8411156132f857600080fd5b948201945b83861015613316578535825294820194908201906132fd565b9850508801359250508082111561332c57600080fd5b61333888838901612f63565b9450604087013591508082111561334e57600080fd5b61335a88838901612f63565b9350606087013591508082111561337057600080fd5b506130c0878288016131a5565b60ff81168114611a6c57600080fd5b8035612e3e8161337d565b63ffffffff81168114611a6c57600080fd5b8035612e3e81613397565b65ffffffffffff81168114611a6c57600080fd5b8035612e3e816133b4565b6001600160801b0381168114611a6c57600080fd5b8035612e3e816133d3565b6001600160401b0381168114611a6c57600080fd5b8035612e3e816133f3565b60006101a0828403121561342657600080fd5b61342e612e89565b90506134398261338c565b8152613447602083016133a9565b60208201526134586040830161338c565b604082015261346960608301612e33565b606082015261347a608083016133c8565b608082015261348b60a083016133e8565b60a082015261349c60c083016133e8565b60c08201526134ad60e083016133e8565b60e08201526101006134c08184016133e8565b908201526101206134d2838201613408565b908201526101406134e4838201613408565b908201526101606134f68382016133e8565b818301525061018080830135818301525092915050565b60006020828403121561351f57600080fd5b81356001600160401b038082111561353657600080fd5b90830190610260828603121561354b57600080fd5b613553612eb2565b61355c83612e33565b815261356a60208401612f58565b60208201526040830135604082015261358560608401612f58565b606082015261359660808401612f58565b60808201526135a88660a08501613413565b60a0820152610240830135828111156135c057600080fd5b6135cc87828601612fd7565b60c08301525095945050505050565b600181811c908216806135ef57607f821691505b60208210810361360f57634e487b7160e01b600052602260045260246000fd5b50919050565b634e487b7160e01b600052603260045260246000fd5b8051612e3e8161337d565b8051612e3e81613397565b8051612e3e81612e1e565b8051612e3e816133b4565b8051612e3e816133d3565b8051612e3e816133f3565b60006101a0828403121561368057600080fd5b613688612e89565b90506136938261362b565b81526136a160208301613636565b60208201526136b26040830161362b565b60408201526136c360608301613641565b60608201526136d46080830161364c565b60808201526136e560a08301613657565b60a08201526136f660c08301613657565b60c082015261370760e08301613657565b60e082015261010061371a818401613657565b9082015261012061372c838201613662565b9082015261014061373e838201613662565b90820152610160613750838201613657565b818301525061018080830151818301525092915050565b6000602080838503121561377a57600080fd5b82516001600160401b0381111561379057600080fd5b8301601f810185136137a157600080fd5b80516137af612f8482612f27565b8181526101a091820283018401918482019190888411156137cf57600080fd5b938501935b8385101561327c576137e6898661366d565b835293840193918501916137d4565b634e487b7160e01b600052601160045260246000fd5b808201808211156105d4576105d46137f5565b600060018201613830576138306137f5565b5060010190565b60006020828403121561384957600080fd5b81516123c481612e1e565b8051612e3e81612f4a565b60006020828403121561387157600080fd5b81516123c481612f4a565b80820281158282048414176105d4576105d46137f5565b6000826138b057634e487b7160e01b600052601260045260246000fd5b500490565b818103818111156105d4576105d46137f5565b805160ff16825260208101516138e6602084018263ffffffff169052565b5060408101516138fb604084018260ff169052565b50606081015161391660608401826001600160a01b03169052565b506080810151613930608084018265ffffffffffff169052565b5060a081015161394b60a08401826001600160801b03169052565b5060c081015161396660c08401826001600160801b03169052565b5060e081015161398160e08401826001600160801b03169052565b50610100818101516001600160801b038116848301525050610120818101516001600160401b038116848301525050610140818101516001600160401b038116848301525050610160818101516001600160801b03811684830152505061018090810151910152565b600081518084526020808501945080840160005b83811015613a1a578151875295820195908201906001016139fe565b509495945050505050565b600061026060018060a01b0383511684526020830151151560208501526040830151604085015260608301511515606085015260808301511515608085015260a0830151613a7660a08601826138c8565b5060c083015181610240860152613a8f828601826139ea565b95945050505050565b6020815260006123c46020830184613a25565b600060208284031215613abd57600080fd5b5051919050565b604081526000613ad76040830185613a25565b90508260208301529392505050565b80516001600160d81b0381168114612e3e57600080fd5b60006101808284031215613b1057600080fd5b613b18612ed4565b613b2183613641565b8152613b2f60208401613854565b6020820152613b4060408401613636565b6040820152613b5160608401613ae6565b60608201526080838101519082015260a0808401519082015260c0808401519082015260e08084015190820152610100808401519082015261012080840151908201526101408084015190820152610160928301519281019290925250919050565b60006101a08284031215613bc657600080fd5b6123c4838361366d565b6000602080830181845280855180835260408601915060408160051b870101925083870160005b82811015613c2557603f19888603018452613c13858351613a25565b94509285019290850190600101613bf7565b5092979650505050505050565b600060208284031215613c4457600080fd5b81516123c48161337d565b6001600160a01b0384811682528316602080830191909152606060408301819052835190830181905260009184810191608085019190845b81811015613ca357845184529382019392820192600101613c87565b509198975050505050505050565b634e487b7160e01b600052602160045260246000fd5b600060608284031215613cd957600080fd5b604051606081018181106001600160401b0382111715613cfb57613cfb612e73565b6040528251613d0981612f4a565b81526020830151613d1981612f4a565b60208201526040830151613d2c81612f4a565b60408201529392505050565b7f416363657373436f6e74726f6c3a206163636f756e7420000000000000000000815260008351613d70816017850160208801612da2565b7001034b99036b4b9b9b4b733903937b6329607d1b6017918401918201528351613da1816028840160208801612da2565b01602801949350505050565b600181815b80851115613de8578160001904821115613dce57613dce6137f5565b80851615613ddb57918102915b93841c9390800290613db2565b509250929050565b600082613dff575060016105d4565b81613e0c575060006105d4565b8160018114613e225760028114613e2c57613e48565b60019150506105d4565b60ff841115613e3d57613e3d6137f5565b50506001821b6105d4565b5060208310610133831016604e8410600b8410161715613e6b575081810a6105d4565b613e758383613dad565b8060001904821115613e8957613e896137f5565b029392505050565b60006123c460ff841683613df0565b60006123c48383613df0565b60208152613ebe6020820183516138c8565b600060208301516102206101c08181860152613ee7610240860184516001600160a01b03169052565b602083015115156102608601526040830151610280860152606083015115156102a086015260808301516001600160a01b03166102c086015260a08301516102e086015260c083015161030086015260e0830151610320860152610100830151151561034086015261012083015160ff9081166103608701526101408401516001600160401b03166103808701526101608401516103a08701526101808401516103c08701526101a0840151166103e0860152909101516101e06104008501819052909190613fba6104208601846139ea565b92506040860151613fcf8287018260ff169052565b50506060850151848303601f1901610200860152613fed8382612dc6565b925050608085015181850152508091505092915050565b60008251614016818460208701612da2565b9190910192915050565b60008161402f5761402f6137f5565b50600019019056fea2646970667358221220dbb53e3586e504829c28b38474295324e0bc590c1bc668d6664e9853a776af3e64736f6c63430008110033",
  "linkReferences": {},
  "deployedLinkReferences": {}
}