{
  "_format": "hh-sol-artifact-1",
  "contractName": "MockVaultRouter",
  "sourceName": "contracts/mocker/MockVaultRouter.sol",
  "abi": [
    {
      "inputs": [],
      "name": "USDBalance",
      "outputs": [
        {
          "internalType": "uint256",
          "name": "",
          "type": "uint256"
        }
      ],
      "stateMutability": "view",
      "type": "function"
    },
    {
      "inputs": [
        {
          "internalType": "address",
          "name": "_market",
          "type": "address"
        },
        {
          "internalType": "uint256",
          "name": "_amount",
          "type": "uint256"
        }
      ],
      "name": "borrowFromVault",
      "outputs": [],
      "stateMutability": "nonpayable",
      "type": "function"
    },
    {
      "inputs": [],
      "name": "fundLimit",
      "outputs": [
        {
          "internalType": "uint256",
          "name": "",
          "type": "uint256"
        }
      ],
      "stateMutability": "view",
      "type": "function"
    },
    {
      "inputs": [
        {
          "internalType": "address",
          "name": "",
          "type": "address"
        }
      ],
      "name": "fundsUsed",
      "outputs": [
        {
          "internalType": "uint256",
          "name": "",
          "type": "uint256"
        }
      ],
      "stateMutability": "view",
      "type": "function"
    },
    {
      "inputs": [],
      "name": "getUSDBalance",
      "outputs": [
        {
          "internalType": "uint256",
          "name": "",
          "type": "uint256"
        }
      ],
      "stateMutability": "view",
      "type": "function"
    },
    {
      "inputs": [
        {
          "internalType": "address",
          "name": "_market",
          "type": "address"
        },
        {
          "internalType": "uint256",
          "name": "_amount",
          "type": "uint256"
        }
      ],
      "name": "repayToVault",
      "outputs": [],
      "stateMutability": "nonpayable",
      "type": "function"
    },
    {
      "inputs": [
        {
          "internalType": "uint256",
          "name": "_limit",
          "type": "uint256"
        }
      ],
      "name": "setFundLimit",
      "outputs": [],
      "stateMutability": "nonpayable",
      "type": "function"
    },
    {
      "inputs": [
        {
          "internalType": "uint256",
          "name": "_balance",
          "type": "uint256"
        }
      ],
      "name": "setUSDBalance",
      "outputs": [],
      "stateMutability": "nonpayable",
      "type": "function"
    }
  ],
  "bytecode": "0x608060405234801561001057600080fd5b506102b3806100206000396000f3fe608060405234801561001057600080fd5b50600436106100885760003560e01c8063d666fe081161005b578063d666fe08146100e5578063e44eb396146100ee578063fa867f0114610101578063fce0e5ae1461011457600080fd5b806307021bdd1461008d5780632b8a0012146100a85780632c7550c3146100c8578063c1201054146100dd575b600080fd5b61009660015481565b60405190815260200160405180910390f35b6100966100b63660046101d6565b60026020526000908152604090205481565b6100db6100d63660046101f8565b610127565b005b600154610096565b61009660005481565b6100db6100fc366004610222565b600055565b6100db61010f366004610222565b600155565b6100db6101223660046101f8565b61016b565b6001600160a01b03821660009081526002602052604090205461014b908290610251565b6001600160a01b0390921660009081526002602052604090209190915550565b6001600160a01b03821660009081526002602052604090205461018f90829061026a565b6001600160a01b03831660009081526002602052604081208290555410156101b657600080fd5b5050565b80356001600160a01b03811681146101d157600080fd5b919050565b6000602082840312156101e857600080fd5b6101f1826101ba565b9392505050565b6000806040838503121561020b57600080fd5b610214836101ba565b946020939093013593505050565b60006020828403121561023457600080fd5b5035919050565b634e487b7160e01b600052601160045260246000fd5b818103818111156102645761026461023b565b92915050565b808201808211156102645761026461023b56fea2646970667358221220fd3408beba6badd152eff583093ca9ab5776f2bf88e0367b625fe5b207ad1f4064736f6c63430008110033",
  "linkReferences": {},
  "deployedLinkReferences": {}
}