{
  "_format": "hh-sol-artifact-1",
  "contractName": "PositionSubMgr",
  "sourceName": "contracts/market/PositionSubMgr.sol",
  "abi": [
    {
      "inputs": [],
      "stateMutability": "nonpayable",
      "type": "constructor"
    },
    {
      "anonymous": false,
      "inputs": [
        {
          "indexed": false,
          "internalType": "uint8",
          "name": "version",
          "type": "uint8"
        }
      ],
      "name": "Initialized",
      "type": "event"
    },
    {
      "anonymous": false,
      "inputs": [
        {
          "indexed": true,
          "internalType": "address",
          "name": "previousOwner",
          "type": "address"
        },
        {
          "indexed": true,
          "internalType": "address",
          "name": "newOwner",
          "type": "address"
        }
      ],
      "name": "OwnershipTransferred",
      "type": "event"
    },
    {
      "anonymous": false,
      "inputs": [
        {
          "indexed": true,
          "internalType": "bytes32",
          "name": "role",
          "type": "bytes32"
        },
        {
          "indexed": true,
          "internalType": "bytes32",
          "name": "previousAdminRole",
          "type": "bytes32"
        },
        {
          "indexed": true,
          "internalType": "bytes32",
          "name": "newAdminRole",
          "type": "bytes32"
        }
      ],
      "name": "RoleAdminChanged",
      "type": "event"
    },
    {
      "anonymous": false,
      "inputs": [
        {
          "indexed": true,
          "internalType": "bytes32",
          "name": "role",
          "type": "bytes32"
        },
        {
          "indexed": true,
          "internalType": "address",
          "name": "account",
          "type": "address"
        },
        {
          "indexed": true,
          "internalType": "address",
          "name": "sender",
          "type": "address"
        }
      ],
      "name": "RoleGranted",
      "type": "event"
    },
    {
      "anonymous": false,
      "inputs": [
        {
          "indexed": true,
          "internalType": "bytes32",
          "name": "role",
          "type": "bytes32"
        },
        {
          "indexed": true,
          "internalType": "address",
          "name": "account",
          "type": "address"
        },
        {
          "indexed": true,
          "internalType": "address",
          "name": "sender",
          "type": "address"
        }
      ],
      "name": "RoleRevoked",
      "type": "event"
    },
    {
      "inputs": [],
      "name": "DEFAULT_ADMIN_ROLE",
      "outputs": [
        {
          "internalType": "bytes32",
          "name": "",
          "type": "bytes32"
        }
      ],
      "stateMutability": "view",
      "type": "function"
    },
    {
      "inputs": [],
      "name": "collateralToken",
      "outputs": [
        {
          "internalType": "address",
          "name": "",
          "type": "address"
        }
      ],
      "stateMutability": "view",
      "type": "function"
    },
    {
      "inputs": [],
      "name": "collateralTokenDigits",
      "outputs": [
        {
          "internalType": "uint8",
          "name": "",
          "type": "uint8"
        }
      ],
      "stateMutability": "view",
      "type": "function"
    },
    {
      "inputs": [
        {
          "components": [
            {
              "internalType": "address",
              "name": "_market",
              "type": "address"
            },
            {
              "internalType": "bool",
              "name": "_isLong",
              "type": "bool"
            },
            {
              "internalType": "uint256",
              "name": "_oraclePrice",
              "type": "uint256"
            },
            {
              "internalType": "bool",
              "name": "isOpen",
              "type": "bool"
            },
            {
              "internalType": "address",
              "name": "_account",
              "type": "address"
            },
            {
              "internalType": "uint256",
              "name": "_sizeDelta",
              "type": "uint256"
            },
            {
              "internalType": "uint256",
              "name": "_price",
              "type": "uint256"
            },
            {
              "internalType": "uint256",
              "name": "_slippage",
              "type": "uint256"
            },
            {
              "internalType": "bool",
              "name": "_isExec",
              "type": "bool"
            },
            {
              "internalType": "uint8",
              "name": "liqState",
              "type": "uint8"
            },
            {
              "internalType": "uint64",
              "name": "_fromOrder",
              "type": "uint64"
            },
            {
              "internalType": "bytes32",
              "name": "_refCode",
              "type": "bytes32"
            },
            {
              "internalType": "uint256",
              "name": "collateralDelta",
              "type": "uint256"
            },
            {
              "internalType": "uint8",
              "name": "execNum",
              "type": "uint8"
            },
            {
              "internalType": "uint256[]",
              "name": "inputs",
              "type": "uint256[]"
            }
          ],
          "internalType": "struct MarketDataTypes.UpdatePositionInputs",
          "name": "_vars",
          "type": "tuple"
        }
      ],
      "name": "decreasePosition",
      "outputs": [],
      "stateMutability": "nonpayable",
      "type": "function"
    },
    {
      "inputs": [
        {
          "components": [
            {
              "internalType": "uint8",
              "name": "version",
              "type": "uint8"
            },
            {
              "internalType": "uint32",
              "name": "updatedAtBlock",
              "type": "uint32"
            },
            {
              "internalType": "uint8",
              "name": "triggerAbove",
              "type": "uint8"
            },
            {
              "internalType": "address",
              "name": "account",
              "type": "address"
            },
            {
              "internalType": "uint48",
              "name": "extra3",
              "type": "uint48"
            },
            {
              "internalType": "uint128",
              "name": "collateral",
              "type": "uint128"
            },
            {
              "internalType": "uint128",
              "name": "size",
              "type": "uint128"
            },
            {
              "internalType": "uint128",
              "name": "price",
              "type": "uint128"
            },
            {
              "internalType": "uint128",
              "name": "extra1",
              "type": "uint128"
            },
            {
              "internalType": "uint64",
              "name": "orderID",
              "type": "uint64"
            },
            {
              "internalType": "uint64",
              "name": "extra2",
              "type": "uint64"
            },
            {
              "internalType": "uint128",
              "name": "extra0",
              "type": "uint128"
            },
            {
              "internalType": "bytes32",
              "name": "refCode",
              "type": "bytes32"
            }
          ],
          "internalType": "struct Order.Props",
          "name": "order",
          "type": "tuple"
        },
        {
          "components": [
            {
              "internalType": "address",
              "name": "_market",
              "type": "address"
            },
            {
              "internalType": "bool",
              "name": "_isLong",
              "type": "bool"
            },
            {
              "internalType": "uint256",
              "name": "_oraclePrice",
              "type": "uint256"
            },
            {
              "internalType": "bool",
              "name": "isOpen",
              "type": "bool"
            },
            {
              "internalType": "address",
              "name": "_account",
              "type": "address"
            },
            {
              "internalType": "uint256",
              "name": "_sizeDelta",
              "type": "uint256"
            },
            {
              "internalType": "uint256",
              "name": "_price",
              "type": "uint256"
            },
            {
              "internalType": "uint256",
              "name": "_slippage",
              "type": "uint256"
            },
            {
              "internalType": "bool",
              "name": "_isExec",
              "type": "bool"
            },
            {
              "internalType": "uint8",
              "name": "liqState",
              "type": "uint8"
            },
            {
              "internalType": "uint64",
              "name": "_fromOrder",
              "type": "uint64"
            },
            {
              "internalType": "bytes32",
              "name": "_refCode",
              "type": "bytes32"
            },
            {
              "internalType": "uint256",
              "name": "collateralDelta",
              "type": "uint256"
            },
            {
              "internalType": "uint8",
              "name": "execNum",
              "type": "uint8"
            },
            {
              "internalType": "uint256[]",
              "name": "inputs",
              "type": "uint256[]"
            }
          ],
          "internalType": "struct MarketDataTypes.UpdatePositionInputs",
          "name": "_params",
          "type": "tuple"
        }
      ],
      "name": "execOrderKey",
      "outputs": [],
      "stateMutability": "nonpayable",
      "type": "function"
    },
    {
      "inputs": [],
      "name": "feeRouter",
      "outputs": [
        {
          "internalType": "contract IFeeRouter",
          "name": "",
          "type": "address"
        }
      ],
      "stateMutability": "view",
      "type": "function"
    },
    {
      "inputs": [
        {
          "internalType": "bytes32",
          "name": "role",
          "type": "bytes32"
        }
      ],
      "name": "getRoleAdmin",
      "outputs": [
        {
          "internalType": "bytes32",
          "name": "",
          "type": "bytes32"
        }
      ],
      "stateMutability": "view",
      "type": "function"
    },
    {
      "inputs": [],
      "name": "globalValid",
      "outputs": [
        {
          "internalType": "address",
          "name": "",
          "type": "address"
        }
      ],
      "stateMutability": "view",
      "type": "function"
    },
    {
      "inputs": [
        {
          "internalType": "address",
          "name": "_account",
          "type": "address"
        }
      ],
      "name": "grantControllerRoleByMarketManager",
      "outputs": [],
      "stateMutability": "nonpayable",
      "type": "function"
    },
    {
      "inputs": [
        {
          "internalType": "bytes32",
          "name": "role",
          "type": "bytes32"
        },
        {
          "internalType": "address",
          "name": "account",
          "type": "address"
        }
      ],
      "name": "grantRole",
      "outputs": [],
      "stateMutability": "nonpayable",
      "type": "function"
    },
    {
      "inputs": [
        {
          "internalType": "bytes32",
          "name": "role",
          "type": "bytes32"
        },
        {
          "internalType": "address",
          "name": "account",
          "type": "address"
        }
      ],
      "name": "hasRole",
      "outputs": [
        {
          "internalType": "bool",
          "name": "",
          "type": "bool"
        }
      ],
      "stateMutability": "view",
      "type": "function"
    },
    {
      "inputs": [],
      "name": "indexToken",
      "outputs": [
        {
          "internalType": "address",
          "name": "",
          "type": "address"
        }
      ],
      "stateMutability": "view",
      "type": "function"
    },
    {
      "inputs": [
        {
          "internalType": "address[]",
          "name": "accounts",
          "type": "address[]"
        },
        {
          "internalType": "bool",
          "name": "_isLong",
          "type": "bool"
        }
      ],
      "name": "liquidatePositions",
      "outputs": [],
      "stateMutability": "nonpayable",
      "type": "function"
    },
    {
      "inputs": [],
      "name": "marketRouter",
      "outputs": [
        {
          "internalType": "address",
          "name": "",
          "type": "address"
        }
      ],
      "stateMutability": "view",
      "type": "function"
    },
    {
      "inputs": [],
      "name": "marketValid",
      "outputs": [
        {
          "internalType": "address",
          "name": "",
          "type": "address"
        }
      ],
      "stateMutability": "view",
      "type": "function"
    },
    {
      "inputs": [],
      "name": "name",
      "outputs": [
        {
          "internalType": "string",
          "name": "",
          "type": "string"
        }
      ],
      "stateMutability": "view",
      "type": "function"
    },
    {
      "inputs": [],
      "name": "orderBookLong",
      "outputs": [
        {
          "internalType": "contract IOrderBook",
          "name": "",
          "type": "address"
        }
      ],
      "stateMutability": "view",
      "type": "function"
    },
    {
      "inputs": [],
      "name": "orderBookShort",
      "outputs": [
        {
          "internalType": "contract IOrderBook",
          "name": "",
          "type": "address"
        }
      ],
      "stateMutability": "view",
      "type": "function"
    },
    {
      "inputs": [],
      "name": "orderMgr",
      "outputs": [
        {
          "internalType": "address",
          "name": "",
          "type": "address"
        }
      ],
      "stateMutability": "view",
      "type": "function"
    },
    {
      "inputs": [
        {
          "internalType": "bool",
          "name": "isLong",
          "type": "bool"
        },
        {
          "internalType": "bool",
          "name": "isOpen",
          "type": "bool"
        }
      ],
      "name": "orderStore",
      "outputs": [
        {
          "internalType": "contract IOrderStore",
          "name": "",
          "type": "address"
        }
      ],
      "stateMutability": "view",
      "type": "function"
    },
    {
      "inputs": [],
      "name": "owner",
      "outputs": [
        {
          "internalType": "address",
          "name": "",
          "type": "address"
        }
      ],
      "stateMutability": "view",
      "type": "function"
    },
    {
      "inputs": [],
      "name": "pluginGasLimit",
      "outputs": [
        {
          "internalType": "uint256",
          "name": "",
          "type": "uint256"
        }
      ],
      "stateMutability": "view",
      "type": "function"
    },
    {
      "inputs": [
        {
          "internalType": "uint256",
          "name": "",
          "type": "uint256"
        }
      ],
      "name": "plugins",
      "outputs": [
        {
          "internalType": "address",
          "name": "",
          "type": "address"
        }
      ],
      "stateMutability": "view",
      "type": "function"
    },
    {
      "inputs": [],
      "name": "positionAddMgr",
      "outputs": [
        {
          "internalType": "address",
          "name": "",
          "type": "address"
        }
      ],
      "stateMutability": "view",
      "type": "function"
    },
    {
      "inputs": [],
      "name": "positionBook",
      "outputs": [
        {
          "internalType": "contract IPositionBook",
          "name": "",
          "type": "address"
        }
      ],
      "stateMutability": "view",
      "type": "function"
    },
    {
      "inputs": [],
      "name": "positionStoreLong",
      "outputs": [
        {
          "internalType": "address",
          "name": "",
          "type": "address"
        }
      ],
      "stateMutability": "view",
      "type": "function"
    },
    {
      "inputs": [],
      "name": "positionStoreShort",
      "outputs": [
        {
          "internalType": "address",
          "name": "",
          "type": "address"
        }
      ],
      "stateMutability": "view",
      "type": "function"
    },
    {
      "inputs": [],
      "name": "positionSubMgr",
      "outputs": [
        {
          "internalType": "address",
          "name": "",
          "type": "address"
        }
      ],
      "stateMutability": "view",
      "type": "function"
    },
    {
      "inputs": [],
      "name": "priceFeed",
      "outputs": [
        {
          "internalType": "address",
          "name": "",
          "type": "address"
        }
      ],
      "stateMutability": "view",
      "type": "function"
    },
    {
      "inputs": [],
      "name": "renounceOwnership",
      "outputs": [],
      "stateMutability": "nonpayable",
      "type": "function"
    },
    {
      "inputs": [
        {
          "internalType": "bytes32",
          "name": "role",
          "type": "bytes32"
        },
        {
          "internalType": "address",
          "name": "account",
          "type": "address"
        }
      ],
      "name": "renounceRole",
      "outputs": [],
      "stateMutability": "nonpayable",
      "type": "function"
    },
    {
      "inputs": [
        {
          "internalType": "bytes32",
          "name": "role",
          "type": "bytes32"
        },
        {
          "internalType": "address",
          "name": "account",
          "type": "address"
        }
      ],
      "name": "revokeRole",
      "outputs": [],
      "stateMutability": "nonpayable",
      "type": "function"
    },
    {
      "inputs": [
        {
          "internalType": "bytes4",
          "name": "interfaceId",
          "type": "bytes4"
        }
      ],
      "name": "supportsInterface",
      "outputs": [
        {
          "internalType": "bool",
          "name": "",
          "type": "bool"
        }
      ],
      "stateMutability": "view",
      "type": "function"
    },
    {
      "inputs": [
        {
          "internalType": "address",
          "name": "to",
          "type": "address"
        }
      ],
      "name": "transferAdmin",
      "outputs": [],
      "stateMutability": "nonpayable",
      "type": "function"
    },
    {
      "inputs": [
        {
          "internalType": "address",
          "name": "newOwner",
          "type": "address"
        }
      ],
      "name": "transferOwnership",
      "outputs": [],
      "stateMutability": "nonpayable",
      "type": "function"
    },
    {
      "inputs": [],
      "name": "vaultRouter",
      "outputs": [
        {
          "internalType": "address",
          "name": "",
          "type": "address"
        }
      ],
      "stateMutability": "view",
      "type": "function"
    }
  ],
  "bytecode": "0x60806040523480156200001157600080fd5b5060016046556000620000243362000041565b6200003a816200009360201b62000a681760201c565b5062000173565b604880546001600160a01b038381166001600160a01b0319831681179093556040519116919082907f8be0079c531659141344cd1fd0a4f28419497f9722a3daafe3b4186f6b6457e090600090a35050565b42604955620000a23362000041565b620000af600033620000bf565b620000bc600082620000bf565b50565b620000cb8282620000cf565b5050565b60008281526047602090815260408083206001600160a01b038516845290915290205460ff16620000cb5760008281526047602090815260408083206001600160a01b03851684529091529020805460ff191660011790556200012f3390565b6001600160a01b0316816001600160a01b0316837f2f8788117e7eff1d82e926ec794901d17c78024a50270940304540a733656f0d60405160405180910390a45050565b61434780620001836000396000f3fe608060405234801561001057600080fd5b506004361061021c5760003560e01c806391d1485411610125578063c54dc3d6116100ad578063d547741f1161007c578063d547741f146104cd578063e7d015f2146104e0578063f0a317eb146104f3578063f29ebf6114610506578063f2fde38b1461051957600080fd5b8063c54dc3d614610481578063d12dbde414610494578063d37c441c146104a7578063d49ff78d146104ba57600080fd5b8063abed9618116100f4578063abed961814610416578063ac0b05a614610429578063b2016bd41461043c578063b21dc9cb1461044f578063b894300d1461046e57600080fd5b806391d14854146103b0578063a0cbf50c146103c3578063a217fddf146103d6578063a2640454146103de57600080fd5b806336568abe116101a857806375829def1161017757806375829def146103535780637b2fd1e5146103665780637fe4a698146103795780638a6ca35d1461038c5780638da5cb5b1461039f57600080fd5b806336568abe1461031257806345ccf5c514610325578063715018a614610338578063741bef1a1461034057600080fd5b806307e87545116101ef57806307e87545146102a157806312de276c146102b457806312ec5d00146102c9578063248a9ca3146102dc5780632f2ff15d146102ff57600080fd5b806301ffc9a71461022157806303deb0291461024957806305ba9ae91461026157806306fdde031461028c575b600080fd5b61023461022f366004613064565b61052c565b60405190151581526020015b60405180910390f35b610253620a2c2a81565b604051908152602001610240565b600654610274906001600160a01b031681565b6040516001600160a01b039091168152602001610240565b610294610563565b60405161024091906130de565b600a54610274906001600160a01b031681565b6102c76102c2366004613417565b6105f1565b005b6102c76102d736600461354b565b610671565b6102536102ea3660046135f6565b60009081526047602052604090206001015490565b6102c761030d36600461360f565b6106b5565b6102c761032036600461360f565b6106df565b600b54610274906001600160a01b031681565b6102c7610759565b600954610274906001600160a01b031681565b6102c761036136600461363f565b61076d565b600554610274906001600160a01b031681565b6102c761038736600461363f565b610797565b600e54610274906001600160a01b031681565b6048546001600160a01b0316610274565b6102346103be36600461360f565b6107c1565b600f54610274906001600160a01b031681565b610253600081565b6102746103ec36600461365c565b9015156000908152600760209081526040808320931515835292905220546001600160a01b031690565b6102c761042436600461368a565b6107ec565b600354610274906001600160a01b031681565b600454610274906001600160a01b031681565b60135461045c9060ff1681565b60405160ff9091168152602001610240565b600054610274906001600160a01b031681565b600154610274906001600160a01b031681565b601054610274906001600160a01b031681565b600c54610274906001600160a01b031681565b600d54610274906001600160a01b031681565b6102c76104db36600461360f565b6109a0565b600254610274906001600160a01b031681565b6102746105013660046135f6565b6109c5565b600854610274906001600160a01b031681565b6102c761052736600461363f565b6109ef565b60006001600160e01b03198216637965db0b60e01b148061055d57506301ffc9a760e01b6001600160e01b03198316145b92915050565b60118054610570906136be565b80601f016020809104026020016040519081016040528092919081815260200182805461059c906136be565b80156105e95780601f106105be576101008083540402835291602001916105e9565b820191906000526020600020905b8154815290600101906020018083116105cc57829003601f168201915b505050505081565b6105fa82610a8b565b6060810151156106515760405162461bcd60e51b815260206004820152601d60248201527f506f736974696f6e5375624d67723a696e76616c69642069734f70656e00000060448201526064015b60405180910390fd5b61066382606001518260200151610b2b565b61066d8282610c12565b5050565b815160005b818110156106af576000848281518110610692576106926136f2565b602002602001015190506106a6818561102f565b50600101610676565b50505050565b6000828152604760205260409020600101546106d081611273565b6106da838361127d565b505050565b6001600160a01b038116331461074f5760405162461bcd60e51b815260206004820152602f60248201527f416363657373436f6e74726f6c3a2063616e206f6e6c792072656e6f756e636560448201526e103937b632b9903337b91039b2b63360891b6064820152608401610648565b61066d8282611303565b61076161136a565b61076b60006113c4565b565b600061077881611273565b610783600083611416565b61078c826113c4565b61066d600033611303565b7f8d1089725c0dc266707fa6207730fb801dcd03108bfed7a21099bd303651d2b761021c81611273565b60009182526047602090815260408084206001600160a01b0393909316845291905290205460ff1690565b6060810151156108365760405162461bcd60e51b81526020600482015260156024820152742837b9b4ba34b7b729bab126b3b91d34b9a7b832b760591b6044820152606401610648565b80610100015115801561085557506101408101516001600160401b0316155b6108af5760405162461bcd60e51b815260206004820152602560248201527f506f736974696f6e5375624d67723a77726f6e67206973657865632f66726f6d60448201526437b93232b960d91b6064820152608401610648565b8060e001516000036108c357601e60e08201525b6108d08160200151611420565b604082810182905260035460808401516020850151925163bc95baad60e01b81526001600160a01b0391821660048201526024810194909452911515604484015260009291169063bc95baad9060640161018060405180830381865afa15801561093e573d6000803e3d6000fd5b505050506040513d601f19601f820116820180604052508101906109629190613740565b60a0830151909150156109965761098f61097b8361149c565b82608001518460a001518460a001516114d9565b6101808301525b61066d8282611509565b6000828152604760205260409020600101546109bb81611273565b6106da8383611303565b601281815481106109d557600080fd5b6000918252602090912001546001600160a01b0316905081565b6109f761136a565b6001600160a01b038116610a5c5760405162461bcd60e51b815260206004820152602660248201527f4f776e61626c653a206e6577206f776e657220697320746865207a65726f206160448201526564647265737360d01b6064820152608401610648565b610a65816113c4565b50565b42604955610a75336113c4565b610a80600033611416565b610a65600082611416565b60608101516001600160a01b0316610ad95760405162461bcd60e51b8152602060048201526011602482015270696e76616c6964206f72646572206b657960781b6044820152606401610648565b8061012001516001600160401b0316600003610a655760405162461bcd60e51b8152602060048201526011602482015270696e76616c6964206f72646572206b657960781b6044820152606401610648565b6000546003546008546001600160a01b0392831692631f21756a9286923092879281169116610b5983611420565b6040518763ffffffff1660e01b8152600401610b7a969594939291906137f6565b602060405180830381865afa158015610b97573d6000803e3d6000fd5b505050506040513d601f19601f82011682018060405250810190610bbb9190613831565b1561066d5760405162461bcd60e51b815260206004820152602160248201527f506f736974696f6e5375624d67723a706f736974696f6e20756e646572206c696044820152607160f81b6064820152608401610648565b610c1f8160200151611420565b604082810182905260035460608501516020850151925163bc95baad60e01b81526001600160a01b0391821660048201526024810194909452911515604484015260009291169063bc95baad9060640161018060405180830381865afa158015610c8d573d6000803e3d6000fd5b505050506040513d601f19601f82011682018060405250810190610cb19190613740565b905060008260200151610ccf576006546001600160a01b0316610cdc565b6005546001600160a01b03165b6001600160a01b03166345824d67610cf386611e06565b6040516001600160e01b031960e084901b1681526004810191909152600060248201526044016000604051808303816000875af1158015610d38573d6000803e3d6000fd5b505050506040513d6000823e601f3d908101601f19168201604052610d609190810190613876565b905060006001600160a01b031681600081518110610d8057610d806136f2565b6020026020010151606001516001600160a01b031603610de25760405162461bcd60e51b815260206004820152601760248201527f506f736974696f6e5375624d67723a216163636f756e740000000000000000006044820152606401610648565b60005b8151811015611024576000828281518110610e0257610e026136f2565b6020026020010151905080606001516001600160a01b031660006001600160a01b031603610e305750611012565b610f3d6040518060a0016040528083815260200187815260200184600014610e59576004610e5c565b60035b6007811115610e6d57610e6d6139f1565b60ff168152604080516020818101835260008252830152018415610e92576000610ec6565b610e9f8760800151611e6b565b610eac8960a00151611e6b565b886101000151610ebc9190613a1d565b610ec69190613a63565b815250620a2c2a6012805480602002602001604051908101604052809291908181526020018280548015610f2357602002820191906000526020600020905b81546001600160a01b03168152600190910190602001808311610f05575b50506004546001600160a01b03169250309150611ed99050565b81600003611010576001856101a001818151610f599190613a91565b60ff169052506040850151610f6f908290612126565b610f7a876000612164565b610fb9576040518060400160405280601b81526020017f506f736974696f6e4164644d67723a7472696767657261626f76650000000000815250610ff0565b6040518060400160405280601e81526020017f506f736974696f6e5375624d67723a6d61726b657420736c69707061676500008152505b9061100e5760405162461bcd60e51b815260040161064891906130de565b505b505b8061101c81613aaa565b915050610de5565b506106af8383611509565b604080516101e08101825260008082526020820181905291810182905260608082018390526080820183905260a0820183905260c0820183905260e08201839052610100820183905261012082018390526101408201839052610160820183905261018082018390526101a082018390526101c0820152906110b2908290612196565b6110bb82611420565b60408281018290526001600160a01b0385811660808501819052600161010086015285151560208601819052600354935163bc95baad60e01b815260048101929092526024820194909452604481019390935260009291169063bc95baad9060640161018060405180830381865afa15801561113b573d6000803e3d6000fd5b505050506040513d601f19601f8201168201806040525081019061115f9190613740565b608081015160a080850191909152810151610180840152308352905061118d6000546001600160a01b031690565b6003546008546040858101519051630f90bab560e11b81526001600160a01b0394851694631f21756a946111d1948b9430948c9493841693909216916004016137f6565b602060405180830381865afa1580156111ee573d6000803e3d6000fd5b505050506040513d601f19601f820116820180604052508101906112129190613831565b60ff1661012083018190526112695760405162461bcd60e51b815260206004820152601c60248201527f506f736974696f6e5375624d67723a73686f756c64276e74206c6971000000006044820152606401610648565b6106af8282611509565b610a6581336121c3565b61128782826107c1565b61066d5760008281526047602090815260408083206001600160a01b03851684529091529020805460ff191660011790556112bf3390565b6001600160a01b0316816001600160a01b0316837f2f8788117e7eff1d82e926ec794901d17c78024a50270940304540a733656f0d60405160405180910390a45050565b61130d82826107c1565b1561066d5760008281526047602090815260408083206001600160a01b0385168085529252808320805460ff1916905551339285917ff6391f5c32d9c69d2a47ea670b442974b53935d1edc7fd64eb21e047a839171b9190a45050565b6048546001600160a01b0316331461076b5760405162461bcd60e51b815260206004820181905260248201527f4f776e61626c653a2063616c6c6572206973206e6f7420746865206f776e65726044820152606401610648565b604880546001600160a01b038381166001600160a01b0319831681179093556040519116919082907f8be0079c531659141344cd1fd0a4f28419497f9722a3daafe3b4186f6b6457e090600090a35050565b61066d828261127d565b6009546002546040516303b6b4bb60e51b81526001600160a01b0391821660048201528315602482015260009291909116906376d6976090604401602060405180830381865afa158015611478573d6000803e3d6000fd5b505050506040513d601f19601f8201168201806040525081019061055d9190613831565b60006001826101c00151511015801561055d57506000826101c001516000815181106114ca576114ca6136f2565b60200260200101511192915050565b600084156114fd57836114ec8484613ac3565b6114f69190613ada565b9050611501565b5060005b949350505050565b60808101511580611525575060808201516001600160a01b0316155b1561152e575050565b60035460085461154a916001600160a01b03908116911661221c565b60a0820151608082015114801561176d5761012083015160029060ff166001036115765750600161158a565b83610120015160ff1660020361158a575060075b600084602001516115a6576006546001600160a01b03166115b3565b6005546001600160a01b03165b60808601516040516307380adf60e41b81526000600482018190526001600160a01b03928316602483015292935090831690637380adf0906044016000604051808303816000875af115801561160d573d6000803e3d6000fd5b505050506040513d6000823e601f3d908101601f191682016040526116359190810190613876565b905060005b8151811015611768576000828281518110611657576116576136f2565b6020026020010151905060006001600160a01b031681606001516001600160a01b0316036116855750611756565b6001886101a0018181516116999190613a91565b60ff169052506040805160a081018252828152602081018a90526117549181018760078111156116cb576116cb6139f1565b60ff16815260408051602081810183526000808352818501929092529282015260128054825181850281018501909352808352620a2c2a93830182828015610f23576020028201919060005260206000209081546001600160a01b03168152600190910190602001808311610f055750506004546001600160a01b03169250309150611ed99050565b505b8061176081613aaa565b91505061163a565b505050505b308352600854604051634151026360e01b81526000916001600160a01b0316906341510263906117a39087908790600401613cc9565b600060405180830381865afa1580156117c0573d6000803e3d6000fd5b505050506040513d6000823e601f3d908101601f191682016040526117e89190810190613ced565b905060006117fe6000546001600160a01b031690565b90508460a0015160000361189b5760a0840151610180860151608086015160405163393ab2bd60e21b815260048082015260248101939093526044830191909152606482015260006084820181905260a48201526001600160a01b0382169063e4eacaf49060c40160006040518083038186803b15801561187e57600080fd5b505afa158015611892573d6000803e3d6000fd5b505050506118fc565b60405163fc54d91d60e01b81526001600160a01b0382169063fc54d91d906118cb90889088908790600401613d72565b60006040518083038186803b1580156118e357600080fd5b505afa1580156118f7573d6000803e3d6000fd5b505050505b60a0850151600090156119a157600354608087015160a08801516040808a015160208b0151915163f3ec823d60e01b81526001600160a01b039485166004820152602481019390935260448301521515606482015291169063f3ec823d90608401602060405180830381865afa15801561197a573d6000803e3d6000fd5b505050506040513d601f19601f8201168201806040525081019061199e9190613831565b90505b610100850181905260006119b4846122f2565b905060006119c48888858561233e565b5060085460208a01516040516334f32e2560e01b815230600482015290151560248201529192506000916001600160a01b03909116906334f32e2590604401602060405180830381865afa158015611a20573d6000803e3d6000fd5b505050506040513d601f19601f82011682018060405250810190611a449190613831565b600c5460a08b0151600480546040805163313ce56760e01b815290519596506001600160a01b039485169563e108262f95611ace959493169263313ce567928082019260209290918290030181865afa158015611aa5573d6000803e3d6000fd5b505050506040513d601f19601f82011682018060405250810190611ac99190613da8565b6124cf565b6040518263ffffffff1660e01b8152600401611aec91815260200190565b600060405180830381600087803b158015611b0657600080fd5b505af1158015611b1a573d6000803e3d6000fd5b505060035460808c0151600093506001600160a01b03909116915063e62c0edf908a611b5557858c60a00151611b509190613dc5565b611b5b565b8b60a001515b60a08e015160208f01516040516001600160e01b031960e087901b1681526001600160a01b03909416600485015260248401929092526044830152606482018690521515608482015260a401610180604051808303816000875af1158015611bc7573d6000803e3d6000fd5b505050506040513d601f19601f82011682018060405250810190611beb9190613740565b9050611bff6000546001600160a01b031690565b608082015160a083015160405163056b460360e31b8152600481019290925260248201526001600160a01b039190911690632b5a30189060440160006040518083038186803b158015611c5157600080fd5b505afa158015611c65573d6000803e3d6000fd5b5050505089610120015160ff166001141580611c8a575089610120015160ff16600214155b8015611c9e575088608001518a60a0015114155b15611cb557611cb58a608001518b60200151610b2b565b60085460808b01516004805460405163e50f19ef60e01b81526001600160a01b039485169463e50f19ef94611cf2949093909116918d9101613dd8565b600060405180830381600087803b158015611d0c57600080fd5b505af1158015611d20573d6000803e3d6000fd5b50506040805160c0810182528d8152602081018d90529081018a90526004546001600160a01b039081166060830152600254166080820152611dfa9250905060a081018a611d7d57858c60a00151611d789190613dc5565b611d83565b8b60a001515b815250620a2c2a6012805480602002602001604051908101604052809291908181526020018280548015611de057602002820191906000526020600020905b81546001600160a01b03168152600190910190602001808311611dc2575b50506004546001600160a01b031692503091506125069050565b50505050505050505050565b60008160600151826101200151604051602001611e4e92919060609290921b6bffffffffffffffffffffffff1916825260c01b6001600160c01b0319166014820152601c0190565b604051602081830303815290604052805190602001209050919050565b60006001600160ff1b03821115611ed55760405162461bcd60e51b815260206004820152602860248201527f53616665436173743a2076616c756520646f65736e27742066697420696e2061604482015267371034b73a191a9b60c11b6064820152608401610648565b5090565b6040516370a0823160e01b81526001600160a01b038281166004830152600091908416906370a0823190602401602060405180830381865afa158015611f23573d6000803e3d6000fd5b505050506040513d601f19601f82011682018060405250810190611f479190613831565b905060005b845181101561205d57848181518110611f6757611f676136f2565b60200260200101516001600160a01b031663612c39b76040518163ffffffff1660e01b8152600401606060405180830381865afa158015611fac573d6000803e3d6000fd5b505050506040513d601f19601f82011682018060405250810190611fd09190613e0d565b604001511561204b57848181518110611feb57611feb6136f2565b60200260200101516001600160a01b031663718cb58a886040518263ffffffff1660e01b815260040161201e9190613e7e565b600060405180830381600087803b15801561203857600080fd5b505af1925050508015612049575060015b505b8061205581613aaa565b915050611f4c565b506040516370a0823160e01b81526001600160a01b038381166004830152600091908516906370a0823190602401602060405180830381865afa1580156120a8573d6000803e3d6000fd5b505050506040513d601f19601f820116820180604052508101906120cc9190613831565b905081811461211d5760405162461bcd60e51b815260206004820152601b60248201527f455243323020746f6b656e2062616c616e6365206368616e67656400000000006044820152606401610648565b50505050505050565b600061213183612687565b1561214d575060e08201516001600160801b031681101561055d565b5060e08201516001600160801b031681111561055d565b600081156121815750608082015165ffffffffffff16151561055d565b505061010001516001600160801b0316151590565b60408051600280825260608201835290916020830190803683375050506101c08301521515606090910152565b6121cd82826107c1565b61066d576121da8161272b565b6121e583602061273d565b6040516020016121f692919061400b565b60408051601f198184030181529082905262461bcd60e51b8252610648916004016130de565b600080836001600160a01b0316638749694a6040518163ffffffff1660e01b81526004016040805180830381865afa15801561225c573d6000803e3d6000fd5b505050506040513d601f19601f820116820180604052508101906122809190614080565b60405163c6f83ad160e01b8152306004820152602481018390526044810182905291935091506001600160a01b0384169063c6f83ad190606401600060405180830381600087803b1580156122d457600080fd5b505af11580156122e8573d6000803e3d6000fd5b5050505050505050565b6000805b825181101561233857828181518110612311576123116136f2565b60200260200101518261232491906140a4565b91508061233081613aaa565b9150506122f6565b50919050565b60045460009081906001600160a01b0316808261235c8888886128d8565b905060008113156124405760006123bc61237583612947565b600480546040805163313ce56760e01b815290516001600160a01b039092169263313ce5679282820192602092908290030181865afa158015611aa5573d6000803e3d6000fd5b6004805460085460405163095ea7b360e01b81526001600160a01b039182169381019390935260248301849052929350919091169063095ea7b3906044016020604051808303816000875af1158015612419573d6000803e3d6000fd5b505050506040513d601f19601f8201168201806040525081019061243d91906140cc565b50505b600061244c8989612999565b905060008113156124665761246183826129d9565b61248e565b61248e8430612474846140e9565b601354600c5460ff909116906001600160a01b0316612acc565b61249a8a8a8a8a612bab565b95506124a88a8a8a8a612ce1565b945060008513156124c2576124c2848b6080015187612dd4565b5050505094509492505050565b60006124dd6012600a6141e9565b6124eb60ff8416600a6141f8565b6124f59085613ac3565b6124ff9190613ada565b9392505050565b6040516370a0823160e01b81526001600160a01b038281166004830152600091908416906370a0823190602401602060405180830381865afa158015612550573d6000803e3d6000fd5b505050506040513d601f19601f820116820180604052508101906125749190613831565b905060005b845181101561205d57848181518110612594576125946136f2565b60200260200101516001600160a01b031663612c39b76040518163ffffffff1660e01b8152600401606060405180830381865afa1580156125d9573d6000803e3d6000fd5b505050506040513d601f19601f820116820180604052508101906125fd9190613e0d565b511561267557848181518110612615576126156136f2565b60200260200101516001600160a01b03166340a542fe886040518263ffffffff1660e01b81526004016126489190614204565b600060405180830381600087803b15801561266257600080fd5b505af1925050508015612673575060015b505b8061267f81613aaa565b915050612579565b6000816040015160ff166000036126e05760405162461bcd60e51b815260206004820152601b60248201527f696e76616c6964206f7264657220747269676765722061626f766500000000006044820152606401610648565b600282604001516126f19190614289565b60ff1660010361270357506001919050565b600282604001516127149190614289565b60ff1660000361272657506000919050565b919050565b606061055d6001600160a01b03831660145b6060600061274c836002613ac3565b6127579060026142ab565b6001600160401b0381111561276e5761276e6130f1565b6040519080825280601f01601f191660200182016040528015612798576020820181803683370190505b509050600360fc1b816000815181106127b3576127b36136f2565b60200101906001600160f81b031916908160001a905350600f60fb1b816001815181106127e2576127e26136f2565b60200101906001600160f81b031916908160001a9053506000612806846002613ac3565b6128119060016142ab565b90505b6001811115612889576f181899199a1a9b1b9c1cb0b131b232b360811b85600f1660108110612845576128456136f2565b1a60f81b82828151811061285b5761285b6136f2565b60200101906001600160f81b031916908160001a90535060049490941c93612882816142be565b9050612814565b5083156124ff5760405162461bcd60e51b815260206004820181905260248201527f537472696e67733a20686578206c656e67746820696e73756666696369656e746044820152606401610648565b6000826128e88560a00151611e6b565b6128f291906140a4565b821315612940576000836129098660a00151611e6b565b61291391906140a4565b131561293857826129278560a00151611e6b565b61293191906140a4565b90506124ff565b5060006124ff565b5092915050565b600080821215611ed55760405162461bcd60e51b815260206004820181905260248201527f53616665436173743a2076616c7565206d75737420626520706f7369746976656044820152606401610648565b600080826129aa8560a00151611e6b565b6129b491906140a4565b136129cd576129c68360a00151611e6b565b905061055d565b6124ff82600019613a1d565b6013546129ea90829060ff166124cf565b600c5460405163095ea7b360e01b81526001600160a01b0391821660048201526024810183905291925083169063095ea7b3906044016020604051808303816000875af1158015612a3f573d6000803e3d6000fd5b505050506040513d601f19601f82011682018060405250810190612a6391906140cc565b50600c546040516344d38fd560e11b8152306004820152602481018390526001600160a01b03909116906389a71faa90604401600060405180830381600087803b158015612ab057600080fd5b505af1158015612ac4573d6000803e3d6000fd5b505050505050565b6001600160a01b038416612b225760405162461bcd60e51b815260206004820152601a60248201527f7661756c7457697468647261773a21757365724163636f756e740000000000006044820152606401610648565b6000831315612ba457806001600160a01b031663da8ddc7485612b4586866124cf565b6040516001600160e01b031960e085901b1681526001600160a01b0390921660048301526024820152604401600060405180830381600087803b158015612b8b57600080fd5b505af1158015612b9f573d6000803e3d6000fd5b505050505b5050505050565b60a08401516080840151600091148015612bcb5760a08501516101808701525b600086610120015160ff161180612bdf5750805b15612bee576000915050611501565b60008385612bff8860a00151611e6b565b612c0991906140a4565b612c1391906142d5565b13612c22576000915050611501565b60008385612c34896101800151611e6b565b612c3e91906140a4565b612c4891906142d5565b1315612c6b578561018001518560a00151612c639190613dc5565b915050611501565b60008385612c7d896101800151611e6b565b612c8791906140a4565b612c9191906142d5565b1215612cc257612c638385612ca98860a00151611e6b565b612cb391906140a4565b612cbd91906142d5565b612947565b8561018001518560a00151612cd79190613dc5565b9695505050505050565b60a08401516080840151600091148015612d015760a08501516101808701525b60008385612d128860a00151611e6b565b612d1c91906140a4565b612d2691906142d5565b13612d35576000915050611501565b60008385612d47896101800151611e6b565b612d5191906140a4565b612d5b91906142d5565b1315612d85578284612d71886101800151611e6b565b612d7b91906140a4565b612c6391906142d5565b60008385612d97896101800151611e6b565b612da191906140a4565b612dab91906142d5565b1215612dbb576000915050611501565b83612dca876101800151611e6b565b612cd791906140a4565b80600003612de157505050565b6000839050612e2882856001600160a01b031663313ce5676040518163ffffffff1660e01b8152600401602060405180830381865afa158015611aa5573d6000803e3d6000fd5b604080516001600160a01b03868116602483015260448083018590528351808403909101815260649092018352602080830180516001600160e01b031663a9059cbb60e01b17905283518085019094528084527f5361666545524332303a206c6f772d6c6576656c2063616c6c206661696c6564908401529294506106af92841691869186916106da918591600090612ec49084908490612f41565b8051909150156106da5780806020019051810190612ee291906140cc565b6106da5760405162461bcd60e51b815260206004820152602a60248201527f5361666545524332303a204552433230206f7065726174696f6e20646964206e6044820152691bdd081cdd58d8d9595960b21b6064820152608401610648565b6060611501848460008585600080866001600160a01b03168587604051612f6891906142f5565b60006040518083038185875af1925050503d8060008114612fa5576040519150601f19603f3d011682016040523d82523d6000602084013e612faa565b606091505b5091509150612fbb87838387612fc6565b979650505050505050565b6060831561303557825160000361302e576001600160a01b0385163b61302e5760405162461bcd60e51b815260206004820152601d60248201527f416464726573733a2063616c6c20746f206e6f6e2d636f6e74726163740000006044820152606401610648565b5081611501565b611501838381511561304a5781518083602001fd5b8060405162461bcd60e51b815260040161064891906130de565b60006020828403121561307657600080fd5b81356001600160e01b0319811681146124ff57600080fd5b60005b838110156130a9578181015183820152602001613091565b50506000910152565b600081518084526130ca81602086016020860161308e565b601f01601f19169290920160200192915050565b6020815260006124ff60208301846130b2565b634e487b7160e01b600052604160045260246000fd5b6040516101e081016001600160401b038111828210171561312a5761312a6130f1565b60405290565b6040516101a081016001600160401b038111828210171561312a5761312a6130f1565b60405161018081016001600160401b038111828210171561312a5761312a6130f1565b604051601f8201601f191681016001600160401b038111828210171561319e5761319e6130f1565b604052919050565b60ff81168114610a6557600080fd5b8035612726816131a6565b63ffffffff81168114610a6557600080fd5b8035612726816131c0565b6001600160a01b0381168114610a6557600080fd5b8035612726816131dd565b65ffffffffffff81168114610a6557600080fd5b8035612726816131fd565b6001600160801b0381168114610a6557600080fd5b80356127268161321c565b6001600160401b0381168114610a6557600080fd5b80356127268161323c565b8015158114610a6557600080fd5b80356127268161325c565b60006001600160401b0382111561328e5761328e6130f1565b5060051b60200190565b600082601f8301126132a957600080fd5b813560206132be6132b983613275565b613176565b82815260059290921b840181019181810190868411156132dd57600080fd5b8286015b848110156132f857803583529183019183016132e1565b509695505050505050565b60006101e0828403121561331657600080fd5b61331e613107565b9050613329826131f2565b81526133376020830161326a565b6020820152604082013560408201526133526060830161326a565b6060820152613363608083016131f2565b608082015260a082013560a082015260c082013560c082015260e082013560e082015261010061339481840161326a565b908201526101206133a68382016131b5565b908201526101406133b8838201613251565b90820152610160828101359082015261018080830135908201526101a06133e08184016131b5565b908201526101c0828101356001600160401b038111156133ff57600080fd5b61340b85828601613298565b82840152505092915050565b6000808284036101c081121561342c57600080fd5b6101a08082121561343c57600080fd5b613444613130565b915061344f856131b5565b825261345d602086016131d2565b602083015261346e604086016131b5565b604083015261347f606086016131f2565b606083015261349060808601613211565b60808301526134a160a08601613231565b60a08301526134b260c08601613231565b60c08301526134c360e08601613231565b60e08301526101006134d6818701613231565b908301526101206134e8868201613251565b908301526101406134fa868201613251565b9083015261016061350c868201613231565b9083015261018085810135908301529092508301356001600160401b0381111561353557600080fd5b61354185828601613303565b9150509250929050565b6000806040838503121561355e57600080fd5b82356001600160401b0381111561357457600080fd5b8301601f8101851361358557600080fd5b803560206135956132b983613275565b82815260059290921b830181019181810190888411156135b457600080fd5b938201935b838510156135db5784356135cc816131dd565b825293820193908201906135b9565b95506135ea905086820161326a565b93505050509250929050565b60006020828403121561360857600080fd5b5035919050565b6000806040838503121561362257600080fd5b823591506020830135613634816131dd565b809150509250929050565b60006020828403121561365157600080fd5b81356124ff816131dd565b6000806040838503121561366f57600080fd5b823561367a8161325c565b915060208301356136348161325c565b60006020828403121561369c57600080fd5b81356001600160401b038111156136b257600080fd5b61150184828501613303565b600181811c908216806136d257607f821691505b60208210810361233857634e487b7160e01b600052602260045260246000fd5b634e487b7160e01b600052603260045260246000fd5b8051612726816131dd565b80516127268161325c565b8051612726816131c0565b80516001600160d81b038116811461272657600080fd5b6000610180828403121561375357600080fd5b61375b613153565b61376483613708565b815261377260208401613713565b60208201526137836040840161371e565b604082015261379460608401613729565b60608201526080838101519082015260a0808401519082015260c0808401519082015260e08084015190820152610100808401519082015261012080840151908201526101408084015190820152610160928301519281019290925250919050565b6001600160a01b039687168152948616602086015292151560408501529084166060840152909216608082015260a081019190915260c00190565b60006020828403121561384357600080fd5b5051919050565b8051612726816131a6565b8051612726816131fd565b80516127268161321c565b80516127268161323c565b6000602080838503121561388957600080fd5b82516001600160401b0381111561389f57600080fd5b8301601f810185136138b057600080fd5b80516138be6132b982613275565b8181526101a091820283018401918482019190888411156138de57600080fd5b938501935b838510156139e55780858a0312156138fb5760008081fd5b613903613130565b61390c8661384a565b815261391987870161371e565b87820152604061392a81880161384a565b90820152606061393b878201613708565b90820152608061394c878201613855565b9082015260a061395d878201613860565b9082015260c061396e878201613860565b9082015260e061397f878201613860565b90820152610100613991878201613860565b908201526101206139a387820161386b565b908201526101406139b587820161386b565b908201526101606139c7878201613860565b908201526101808681015190820152835293840193918501916138e3565b50979650505050505050565b634e487b7160e01b600052602160045260246000fd5b634e487b7160e01b600052601160045260246000fd5b80820260008212600160ff1b84141615613a3957613a39613a07565b818105831482151761055d5761055d613a07565b634e487b7160e01b600052601260045260246000fd5b600082613a7257613a72613a4d565b600160ff1b821460001984141615613a8c57613a8c613a07565b500590565b60ff818116838216019081111561055d5761055d613a07565b600060018201613abc57613abc613a07565b5060010190565b808202811582820484141761055d5761055d613a07565b600082613ae957613ae9613a4d565b500490565b600081518084526020808501945080840160005b83811015613b1e57815187529582019590820190600101613b02565b509495945050505050565b80516001600160a01b0316825260006101e06020830151613b4e602086018215159052565b50604083015160408501526060830151613b6c606086018215159052565b506080830151613b8760808601826001600160a01b03169052565b5060a083015160a085015260c083015160c085015260e083015160e085015261010080840151613bba8287018215159052565b50506101208381015160ff90811691860191909152610140808501516001600160401b031690860152610160808501519086015261018080850151908601526101a080850151909116908501526101c080840151818601839052612cd783870182613aee565b80516001600160a01b031682526020810151613c40602084018215159052565b506040810151613c58604084018263ffffffff169052565b506060810151613c7360608401826001600160d81b03169052565b506080818101519083015260a0808201519083015260c0808201519083015260e0808201519083015261010080820151908301526101208082015190830152610140808201519083015261016090810151910152565b60006101a0808352613cdd81840186613b29565b9150506124ff6020830184613c20565b60006020808385031215613d0057600080fd5b82516001600160401b03811115613d1657600080fd5b8301601f81018513613d2757600080fd5b8051613d356132b982613275565b81815260059190911b82018301908381019087831115613d5457600080fd5b928401925b82841015612fbb57835182529284019290840190613d59565b60006101c0808352613d8681840187613b29565b9050613d956020840186613c20565b8281036101a0840152612cd78185613aee565b600060208284031215613dba57600080fd5b81516124ff816131a6565b8181038181111561055d5761055d613a07565b6001600160a01b03848116825283166020820152606060408201819052600090613e0490830184613aee565b95945050505050565b600060608284031215613e1f57600080fd5b604051606081018181106001600160401b0382111715613e4157613e416130f1565b6040528251613e4f8161325c565b81526020830151613e5f8161325c565b60208201526040830151613e728161325c565b60408201529392505050565b6020815260008251613e9660208401825160ff169052565b602081015163ffffffff8116604085015250604081015160ff811660608501525060608101516001600160a01b038116608085015250608081015165ffffffffffff811660a08501525060a08101516001600160801b03811660c08501525060c08101516001600160801b03811660e08501525060e0810151610100613f26818601836001600160801b03169052565b8201519050610120613f42858201836001600160801b03169052565b8201519050610140613f5e858201836001600160401b03169052565b8201519050610160613f7a858201836001600160401b03169052565b8201519050610180613f96858201836001600160801b03169052565b808301516101a08601525050506020830151610220806101c0850152613fc0610240850183613b29565b91506040850151613fd76101e086018260ff169052565b506060850151848303601f1901610200860152613ff483826130b2565b925050608085015181850152508091505092915050565b7f416363657373436f6e74726f6c3a206163636f756e742000000000000000000081526000835161404381601785016020880161308e565b7001034b99036b4b9b9b4b733903937b6329607d1b601791840191820152835161407481602884016020880161308e565b01602801949350505050565b6000806040838503121561409357600080fd5b505080516020909101519092909150565b80820182811260008312801582168215821617156140c4576140c4613a07565b505092915050565b6000602082840312156140de57600080fd5b81516124ff8161325c565b6000600160ff1b82016140fe576140fe613a07565b5060000390565b600181815b8085111561414057816000190482111561412657614126613a07565b8085161561413357918102915b93841c939080029061410a565b509250929050565b6000826141575750600161055d565b816141645750600061055d565b816001811461417a5760028114614184576141a0565b600191505061055d565b60ff84111561419557614195613a07565b50506001821b61055d565b5060208310610133831016604e8410600b84101617156141c3575081810a61055d565b6141cd8383614105565b80600019048211156141e1576141e1613a07565b029392505050565b60006124ff60ff841683614148565b60006124ff8383614148565b6020815260008251610220806020850152614223610240850183613b29565b915060208501516142376040860182613c20565b506040850151848303601f19016101c08601526142548382613aee565b60608701516001600160a01b039081166101e088015260808801511661020087015260a0909601519190940152509192915050565b600060ff83168061429c5761429c613a4d565b8060ff84160691505092915050565b8082018082111561055d5761055d613a07565b6000816142cd576142cd613a07565b506000190190565b818103600083128015838313168383128216171561294057612940613a07565b6000825161430781846020870161308e565b919091019291505056fea26469706673582212203ff5e2658608e5b9c84a5fbd3ddbb24d93c1dc1a65970589a6d51e32b651068564736f6c63430008110033",
  "linkReferences": {},
  "deployedLinkReferences": {}
}