{
  "_format": "hh-sol-artifact-1",
  "contractName": "PositionSubMgr",
  "sourceName": "contracts/market/PositionSubMgr.sol",
  "abi": [
    {
      "inputs": [],
      "stateMutability": "nonpayable",
      "type": "constructor"
    },
    {
      "inputs": [],
      "name": "TotalFeesLtZero",
      "type": "error"
    },
    {
      "anonymous": false,
      "inputs": [
        {
          "indexed": false,
          "internalType": "uint8",
          "name": "version",
          "type": "uint8"
        }
      ],
      "name": "Initialized",
      "type": "event"
    },
    {
      "anonymous": false,
      "inputs": [
        {
          "indexed": true,
          "internalType": "address",
          "name": "previousOwner",
          "type": "address"
        },
        {
          "indexed": true,
          "internalType": "address",
          "name": "newOwner",
          "type": "address"
        }
      ],
      "name": "OwnershipTransferred",
      "type": "event"
    },
    {
      "anonymous": false,
      "inputs": [
        {
          "indexed": true,
          "internalType": "bytes32",
          "name": "role",
          "type": "bytes32"
        },
        {
          "indexed": true,
          "internalType": "bytes32",
          "name": "previousAdminRole",
          "type": "bytes32"
        },
        {
          "indexed": true,
          "internalType": "bytes32",
          "name": "newAdminRole",
          "type": "bytes32"
        }
      ],
      "name": "RoleAdminChanged",
      "type": "event"
    },
    {
      "anonymous": false,
      "inputs": [
        {
          "indexed": true,
          "internalType": "bytes32",
          "name": "role",
          "type": "bytes32"
        },
        {
          "indexed": true,
          "internalType": "address",
          "name": "account",
          "type": "address"
        },
        {
          "indexed": true,
          "internalType": "address",
          "name": "sender",
          "type": "address"
        }
      ],
      "name": "RoleGranted",
      "type": "event"
    },
    {
      "anonymous": false,
      "inputs": [
        {
          "indexed": true,
          "internalType": "bytes32",
          "name": "role",
          "type": "bytes32"
        },
        {
          "indexed": true,
          "internalType": "address",
          "name": "account",
          "type": "address"
        },
        {
          "indexed": true,
          "internalType": "address",
          "name": "sender",
          "type": "address"
        }
      ],
      "name": "RoleRevoked",
      "type": "event"
    },
    {
      "inputs": [],
      "name": "DEFAULT_ADMIN_ROLE",
      "outputs": [
        {
          "internalType": "bytes32",
          "name": "",
          "type": "bytes32"
        }
      ],
      "stateMutability": "view",
      "type": "function"
    },
    {
      "inputs": [],
      "name": "collateralToken",
      "outputs": [
        {
          "internalType": "address",
          "name": "",
          "type": "address"
        }
      ],
      "stateMutability": "view",
      "type": "function"
    },
    {
      "inputs": [],
      "name": "collateralTokenDigits",
      "outputs": [
        {
          "internalType": "uint8",
          "name": "",
          "type": "uint8"
        }
      ],
      "stateMutability": "view",
      "type": "function"
    },
    {
      "inputs": [
        {
          "components": [
            {
              "internalType": "address",
              "name": "_market",
              "type": "address"
            },
            {
              "internalType": "bool",
              "name": "_isLong",
              "type": "bool"
            },
            {
              "internalType": "uint256",
              "name": "_oraclePrice",
              "type": "uint256"
            },
            {
              "internalType": "bool",
              "name": "isOpen",
              "type": "bool"
            },
            {
              "internalType": "address",
              "name": "_account",
              "type": "address"
            },
            {
              "internalType": "uint256",
              "name": "_sizeDelta",
              "type": "uint256"
            },
            {
              "internalType": "uint256",
              "name": "_price",
              "type": "uint256"
            },
            {
              "internalType": "uint256",
              "name": "_slippage",
              "type": "uint256"
            },
            {
              "internalType": "bool",
              "name": "_isExec",
              "type": "bool"
            },
            {
              "internalType": "uint8",
              "name": "liqState",
              "type": "uint8"
            },
            {
              "internalType": "uint64",
              "name": "_fromOrder",
              "type": "uint64"
            },
            {
              "internalType": "bytes32",
              "name": "_refCode",
              "type": "bytes32"
            },
            {
              "internalType": "uint256",
              "name": "collateralDelta",
              "type": "uint256"
            },
            {
              "internalType": "uint8",
              "name": "execNum",
              "type": "uint8"
            },
            {
              "internalType": "uint256[]",
              "name": "inputs",
              "type": "uint256[]"
            }
          ],
          "internalType": "struct MarketDataTypes.UpdatePositionInputs",
          "name": "_vars",
          "type": "tuple"
        }
      ],
      "name": "decreasePosition",
      "outputs": [],
      "stateMutability": "nonpayable",
      "type": "function"
    },
    {
      "inputs": [
        {
          "components": [
            {
              "internalType": "uint8",
              "name": "version",
              "type": "uint8"
            },
            {
              "internalType": "uint32",
              "name": "updatedAtBlock",
              "type": "uint32"
            },
            {
              "internalType": "uint8",
              "name": "triggerAbove",
              "type": "uint8"
            },
            {
              "internalType": "address",
              "name": "account",
              "type": "address"
            },
            {
              "internalType": "uint48",
              "name": "extra3",
              "type": "uint48"
            },
            {
              "internalType": "uint128",
              "name": "collateral",
              "type": "uint128"
            },
            {
              "internalType": "uint128",
              "name": "size",
              "type": "uint128"
            },
            {
              "internalType": "uint128",
              "name": "price",
              "type": "uint128"
            },
            {
              "internalType": "uint128",
              "name": "extra1",
              "type": "uint128"
            },
            {
              "internalType": "uint64",
              "name": "orderID",
              "type": "uint64"
            },
            {
              "internalType": "uint64",
              "name": "extra2",
              "type": "uint64"
            },
            {
              "internalType": "uint128",
              "name": "extra0",
              "type": "uint128"
            },
            {
              "internalType": "bytes32",
              "name": "refCode",
              "type": "bytes32"
            }
          ],
          "internalType": "struct Order.Props",
          "name": "order",
          "type": "tuple"
        },
        {
          "components": [
            {
              "internalType": "address",
              "name": "_market",
              "type": "address"
            },
            {
              "internalType": "bool",
              "name": "_isLong",
              "type": "bool"
            },
            {
              "internalType": "uint256",
              "name": "_oraclePrice",
              "type": "uint256"
            },
            {
              "internalType": "bool",
              "name": "isOpen",
              "type": "bool"
            },
            {
              "internalType": "address",
              "name": "_account",
              "type": "address"
            },
            {
              "internalType": "uint256",
              "name": "_sizeDelta",
              "type": "uint256"
            },
            {
              "internalType": "uint256",
              "name": "_price",
              "type": "uint256"
            },
            {
              "internalType": "uint256",
              "name": "_slippage",
              "type": "uint256"
            },
            {
              "internalType": "bool",
              "name": "_isExec",
              "type": "bool"
            },
            {
              "internalType": "uint8",
              "name": "liqState",
              "type": "uint8"
            },
            {
              "internalType": "uint64",
              "name": "_fromOrder",
              "type": "uint64"
            },
            {
              "internalType": "bytes32",
              "name": "_refCode",
              "type": "bytes32"
            },
            {
              "internalType": "uint256",
              "name": "collateralDelta",
              "type": "uint256"
            },
            {
              "internalType": "uint8",
              "name": "execNum",
              "type": "uint8"
            },
            {
              "internalType": "uint256[]",
              "name": "inputs",
              "type": "uint256[]"
            }
          ],
          "internalType": "struct MarketDataTypes.UpdatePositionInputs",
          "name": "_params",
          "type": "tuple"
        }
      ],
      "name": "execOrderKey",
      "outputs": [],
      "stateMutability": "nonpayable",
      "type": "function"
    },
    {
      "inputs": [],
      "name": "feeRouter",
      "outputs": [
        {
          "internalType": "contract IFeeRouter",
          "name": "",
          "type": "address"
        }
      ],
      "stateMutability": "view",
      "type": "function"
    },
    {
      "inputs": [
        {
          "internalType": "bytes32",
          "name": "role",
          "type": "bytes32"
        }
      ],
      "name": "getRoleAdmin",
      "outputs": [
        {
          "internalType": "bytes32",
          "name": "",
          "type": "bytes32"
        }
      ],
      "stateMutability": "view",
      "type": "function"
    },
    {
      "inputs": [],
      "name": "globalValid",
      "outputs": [
        {
          "internalType": "address",
          "name": "",
          "type": "address"
        }
      ],
      "stateMutability": "view",
      "type": "function"
    },
    {
      "inputs": [
        {
          "internalType": "address",
          "name": "_account",
          "type": "address"
        }
      ],
      "name": "grantControllerRoleByMarketManager",
      "outputs": [],
      "stateMutability": "nonpayable",
      "type": "function"
    },
    {
      "inputs": [
        {
          "internalType": "bytes32",
          "name": "role",
          "type": "bytes32"
        },
        {
          "internalType": "address",
          "name": "account",
          "type": "address"
        }
      ],
      "name": "grantRole",
      "outputs": [],
      "stateMutability": "nonpayable",
      "type": "function"
    },
    {
      "inputs": [
        {
          "internalType": "bytes32",
          "name": "role",
          "type": "bytes32"
        },
        {
          "internalType": "address",
          "name": "account",
          "type": "address"
        }
      ],
      "name": "hasRole",
      "outputs": [
        {
          "internalType": "bool",
          "name": "",
          "type": "bool"
        }
      ],
      "stateMutability": "view",
      "type": "function"
    },
    {
      "inputs": [],
      "name": "indexToken",
      "outputs": [
        {
          "internalType": "address",
          "name": "",
          "type": "address"
        }
      ],
      "stateMutability": "view",
      "type": "function"
    },
    {
      "inputs": [
        {
          "internalType": "address[]",
          "name": "accounts",
          "type": "address[]"
        },
        {
          "internalType": "bool",
          "name": "_isLong",
          "type": "bool"
        }
      ],
      "name": "liquidatePositions",
      "outputs": [],
      "stateMutability": "nonpayable",
      "type": "function"
    },
    {
      "inputs": [],
      "name": "marketRouter",
      "outputs": [
        {
          "internalType": "address",
          "name": "",
          "type": "address"
        }
      ],
      "stateMutability": "view",
      "type": "function"
    },
    {
      "inputs": [],
      "name": "marketValid",
      "outputs": [
        {
          "internalType": "address",
          "name": "",
          "type": "address"
        }
      ],
      "stateMutability": "view",
      "type": "function"
    },
    {
      "inputs": [],
      "name": "name",
      "outputs": [
        {
          "internalType": "string",
          "name": "",
          "type": "string"
        }
      ],
      "stateMutability": "view",
      "type": "function"
    },
    {
      "inputs": [],
      "name": "orderBookLong",
      "outputs": [
        {
          "internalType": "contract IOrderBook",
          "name": "",
          "type": "address"
        }
      ],
      "stateMutability": "view",
      "type": "function"
    },
    {
      "inputs": [],
      "name": "orderBookShort",
      "outputs": [
        {
          "internalType": "contract IOrderBook",
          "name": "",
          "type": "address"
        }
      ],
      "stateMutability": "view",
      "type": "function"
    },
    {
      "inputs": [],
      "name": "orderMgr",
      "outputs": [
        {
          "internalType": "address",
          "name": "",
          "type": "address"
        }
      ],
      "stateMutability": "view",
      "type": "function"
    },
    {
      "inputs": [
        {
          "internalType": "bool",
          "name": "isLong",
          "type": "bool"
        },
        {
          "internalType": "bool",
          "name": "isOpen",
          "type": "bool"
        }
      ],
      "name": "orderStore",
      "outputs": [
        {
          "internalType": "contract IOrderStore",
          "name": "",
          "type": "address"
        }
      ],
      "stateMutability": "view",
      "type": "function"
    },
    {
      "inputs": [],
      "name": "owner",
      "outputs": [
        {
          "internalType": "address",
          "name": "",
          "type": "address"
        }
      ],
      "stateMutability": "view",
      "type": "function"
    },
    {
      "inputs": [],
      "name": "pluginGasLimit",
      "outputs": [
        {
          "internalType": "uint256",
          "name": "",
          "type": "uint256"
        }
      ],
      "stateMutability": "view",
      "type": "function"
    },
    {
      "inputs": [
        {
          "internalType": "uint256",
          "name": "",
          "type": "uint256"
        }
      ],
      "name": "plugins",
      "outputs": [
        {
          "internalType": "address",
          "name": "",
          "type": "address"
        }
      ],
      "stateMutability": "view",
      "type": "function"
    },
    {
      "inputs": [],
      "name": "positionAddMgr",
      "outputs": [
        {
          "internalType": "address",
          "name": "",
          "type": "address"
        }
      ],
      "stateMutability": "view",
      "type": "function"
    },
    {
      "inputs": [],
      "name": "positionBook",
      "outputs": [
        {
          "internalType": "contract IPositionBook",
          "name": "",
          "type": "address"
        }
      ],
      "stateMutability": "view",
      "type": "function"
    },
    {
      "inputs": [],
      "name": "positionStoreLong",
      "outputs": [
        {
          "internalType": "address",
          "name": "",
          "type": "address"
        }
      ],
      "stateMutability": "view",
      "type": "function"
    },
    {
      "inputs": [],
      "name": "positionStoreShort",
      "outputs": [
        {
          "internalType": "address",
          "name": "",
          "type": "address"
        }
      ],
      "stateMutability": "view",
      "type": "function"
    },
    {
      "inputs": [],
      "name": "positionSubMgr",
      "outputs": [
        {
          "internalType": "address",
          "name": "",
          "type": "address"
        }
      ],
      "stateMutability": "view",
      "type": "function"
    },
    {
      "inputs": [],
      "name": "priceFeed",
      "outputs": [
        {
          "internalType": "address",
          "name": "",
          "type": "address"
        }
      ],
      "stateMutability": "view",
      "type": "function"
    },
    {
      "inputs": [],
      "name": "renounceOwnership",
      "outputs": [],
      "stateMutability": "nonpayable",
      "type": "function"
    },
    {
      "inputs": [
        {
          "internalType": "bytes32",
          "name": "role",
          "type": "bytes32"
        },
        {
          "internalType": "address",
          "name": "account",
          "type": "address"
        }
      ],
      "name": "renounceRole",
      "outputs": [],
      "stateMutability": "nonpayable",
      "type": "function"
    },
    {
      "inputs": [
        {
          "internalType": "bytes32",
          "name": "role",
          "type": "bytes32"
        },
        {
          "internalType": "address",
          "name": "account",
          "type": "address"
        }
      ],
      "name": "revokeRole",
      "outputs": [],
      "stateMutability": "nonpayable",
      "type": "function"
    },
    {
      "inputs": [
        {
          "internalType": "bytes4",
          "name": "interfaceId",
          "type": "bytes4"
        }
      ],
      "name": "supportsInterface",
      "outputs": [
        {
          "internalType": "bool",
          "name": "",
          "type": "bool"
        }
      ],
      "stateMutability": "view",
      "type": "function"
    },
    {
      "inputs": [
        {
          "internalType": "address",
          "name": "to",
          "type": "address"
        }
      ],
      "name": "transferAdmin",
      "outputs": [],
      "stateMutability": "nonpayable",
      "type": "function"
    },
    {
      "inputs": [
        {
          "internalType": "address",
          "name": "newOwner",
          "type": "address"
        }
      ],
      "name": "transferOwnership",
      "outputs": [],
      "stateMutability": "nonpayable",
      "type": "function"
    },
    {
      "inputs": [],
      "name": "vaultRouter",
      "outputs": [
        {
          "internalType": "address",
          "name": "",
          "type": "address"
        }
      ],
      "stateMutability": "view",
      "type": "function"
    }
  ],
  "bytecode": "0x60806040523480156200001157600080fd5b5060016046556000620000243362000041565b6200003a816200009360201b62000a681760201c565b5062000173565b604880546001600160a01b038381166001600160a01b0319831681179093556040519116919082907f8be0079c531659141344cd1fd0a4f28419497f9722a3daafe3b4186f6b6457e090600090a35050565b42604955620000a23362000041565b620000af600033620000bf565b620000bc600082620000bf565b50565b620000cb8282620000cf565b5050565b60008281526047602090815260408083206001600160a01b038516845290915290205460ff16620000cb5760008281526047602090815260408083206001600160a01b03851684529091529020805460ff191660011790556200012f3390565b6001600160a01b0316816001600160a01b0316837f2f8788117e7eff1d82e926ec794901d17c78024a50270940304540a733656f0d60405160405180910390a45050565b6147da80620001836000396000f3fe608060405234801561001057600080fd5b506004361061021c5760003560e01c806391d1485411610125578063c54dc3d6116100ad578063d547741f1161007c578063d547741f146104cd578063e7d015f2146104e0578063f0a317eb146104f3578063f29ebf6114610506578063f2fde38b1461051957600080fd5b8063c54dc3d614610481578063d12dbde414610494578063d37c441c146104a7578063d49ff78d146104ba57600080fd5b8063abed9618116100f4578063abed961814610416578063ac0b05a614610429578063b2016bd41461043c578063b21dc9cb1461044f578063b894300d1461046e57600080fd5b806391d14854146103b0578063a0cbf50c146103c3578063a217fddf146103d6578063a2640454146103de57600080fd5b806336568abe116101a857806375829def1161017757806375829def146103535780637b2fd1e5146103665780637fe4a698146103795780638a6ca35d1461038c5780638da5cb5b1461039f57600080fd5b806336568abe1461031257806345ccf5c514610325578063715018a614610338578063741bef1a1461034057600080fd5b806307e87545116101ef57806307e87545146102a157806312de276c146102b457806312ec5d00146102c9578063248a9ca3146102dc5780632f2ff15d146102ff57600080fd5b806301ffc9a71461022157806303deb0291461024957806305ba9ae91461026157806306fdde031461028c575b600080fd5b61023461022f3660046134e8565b61052c565b60405190151581526020015b60405180910390f35b610253620a2c2a81565b604051908152602001610240565b600654610274906001600160a01b031681565b6040516001600160a01b039091168152602001610240565b610294610563565b6040516102409190613562565b600a54610274906001600160a01b031681565b6102c76102c236600461389b565b6105f1565b005b6102c76102d73660046139cf565b610671565b6102536102ea366004613a7a565b60009081526047602052604090206001015490565b6102c761030d366004613a93565b6106b5565b6102c7610320366004613a93565b6106df565b600b54610274906001600160a01b031681565b6102c7610759565b600954610274906001600160a01b031681565b6102c7610361366004613ac3565b61076d565b600554610274906001600160a01b031681565b6102c7610387366004613ac3565b610797565b600e54610274906001600160a01b031681565b6048546001600160a01b0316610274565b6102346103be366004613a93565b6107c1565b600f54610274906001600160a01b031681565b610253600081565b6102746103ec366004613ae0565b9015156000908152600760209081526040808320931515835292905220546001600160a01b031690565b6102c7610424366004613b0e565b6107ec565b600354610274906001600160a01b031681565b600454610274906001600160a01b031681565b60135461045c9060ff1681565b60405160ff9091168152602001610240565b600054610274906001600160a01b031681565b600154610274906001600160a01b031681565b601054610274906001600160a01b031681565b600c54610274906001600160a01b031681565b600d54610274906001600160a01b031681565b6102c76104db366004613a93565b6109a0565b600254610274906001600160a01b031681565b610274610501366004613a7a565b6109c5565b600854610274906001600160a01b031681565b6102c7610527366004613ac3565b6109ef565b60006001600160e01b03198216637965db0b60e01b148061055d57506301ffc9a760e01b6001600160e01b03198316145b92915050565b6011805461057090613b42565b80601f016020809104026020016040519081016040528092919081815260200182805461059c90613b42565b80156105e95780601f106105be576101008083540402835291602001916105e9565b820191906000526020600020905b8154815290600101906020018083116105cc57829003601f168201915b505050505081565b6105fa82610a8b565b6060810151156106515760405162461bcd60e51b815260206004820152601d60248201527f506f736974696f6e5375624d67723a696e76616c69642069734f70656e00000060448201526064015b60405180910390fd5b61066382606001518260200151610b2b565b61066d8282610c12565b5050565b815160005b818110156106af57600084828151811061069257610692613b76565b602002602001015190506106a6818561107f565b50600101610676565b50505050565b6000828152604760205260409020600101546106d0816112c3565b6106da83836112cd565b505050565b6001600160a01b038116331461074f5760405162461bcd60e51b815260206004820152602f60248201527f416363657373436f6e74726f6c3a2063616e206f6e6c792072656e6f756e636560448201526e103937b632b9903337b91039b2b63360891b6064820152608401610648565b61066d8282611353565b6107616113ba565b61076b6000611414565b565b6000610778816112c3565b610783600083611466565b61078c82611414565b61066d600033611353565b7f8d1089725c0dc266707fa6207730fb801dcd03108bfed7a21099bd303651d2b761021c816112c3565b60009182526047602090815260408084206001600160a01b0393909316845291905290205460ff1690565b6060810151156108365760405162461bcd60e51b81526020600482015260156024820152742837b9b4ba34b7b729bab126b3b91d34b9a7b832b760591b6044820152606401610648565b80610100015115801561085557506101408101516001600160401b0316155b6108af5760405162461bcd60e51b815260206004820152602560248201527f506f736974696f6e5375624d67723a77726f6e67206973657865632f66726f6d60448201526437b93232b960d91b6064820152608401610648565b8060e001516000036108c357601e60e08201525b6108d08160200151611470565b604082810182905260035460808401516020850151925163bc95baad60e01b81526001600160a01b0391821660048201526024810194909452911515604484015260009291169063bc95baad9060640161018060405180830381865afa15801561093e573d6000803e3d6000fd5b505050506040513d601f19601f820116820180604052508101906109629190613bc4565b60a0830151909150156109965761098f61097b836114ec565b82608001518460a001518460a00151611529565b6101808301525b61066d8282611559565b6000828152604760205260409020600101546109bb816112c3565b6106da8383611353565b601281815481106109d557600080fd5b6000918252602090912001546001600160a01b0316905081565b6109f76113ba565b6001600160a01b038116610a5c5760405162461bcd60e51b815260206004820152602660248201527f4f776e61626c653a206e6577206f776e657220697320746865207a65726f206160448201526564647265737360d01b6064820152608401610648565b610a6581611414565b50565b42604955610a7533611414565b610a80600033611466565b610a65600082611466565b60608101516001600160a01b0316610ad95760405162461bcd60e51b8152602060048201526011602482015270696e76616c6964206f72646572206b657960781b6044820152606401610648565b8061012001516001600160401b0316600003610a655760405162461bcd60e51b8152602060048201526011602482015270696e76616c6964206f72646572206b657960781b6044820152606401610648565b6000546003546008546001600160a01b0392831692631f21756a9286923092879281169116610b5983611470565b6040518763ffffffff1660e01b8152600401610b7a96959493929190613c7a565b602060405180830381865afa158015610b97573d6000803e3d6000fd5b505050506040513d601f19601f82011682018060405250810190610bbb9190613cb5565b1561066d5760405162461bcd60e51b815260206004820152602160248201527f506f736974696f6e5375624d67723a706f736974696f6e20756e646572206c696044820152607160f81b6064820152608401610648565b610c1f8160200151611470565b604082810182905260035460608501516020850151925163bc95baad60e01b81526001600160a01b0391821660048201526024810194909452911515604484015260009291169063bc95baad9060640161018060405180830381865afa158015610c8d573d6000803e3d6000fd5b505050506040513d601f19601f82011682018060405250810190610cb19190613bc4565b60c08401519091506001600160801b031615610d0357610cfc610cdf846080015165ffffffffffff16151590565b82608001518560c001516001600160801b03168460a00151611529565b6101808301525b60008260200151610d1f576006546001600160a01b0316610d2c565b6005546001600160a01b03165b6001600160a01b03166345824d67610d4386611e30565b6040516001600160e01b031960e084901b1681526004810191909152600060248201526044016000604051808303816000875af1158015610d88573d6000803e3d6000fd5b505050506040513d6000823e601f3d908101601f19168201604052610db09190810190613cfa565b905060006001600160a01b031681600081518110610dd057610dd0613b76565b6020026020010151606001516001600160a01b031603610e325760405162461bcd60e51b815260206004820152601760248201527f506f736974696f6e5375624d67723a216163636f756e740000000000000000006044820152606401610648565b60005b8151811015611074576000828281518110610e5257610e52613b76565b6020026020010151905080606001516001600160a01b031660006001600160a01b031603610e805750611062565b610f8d6040518060a0016040528083815260200187815260200184600014610ea9576004610eac565b60035b6007811115610ebd57610ebd613e75565b60ff168152604080516020818101835260008252830152018415610ee2576000610f16565b610eef8760800151611e95565b610efc8960a00151611e95565b886101000151610f0c9190613ea1565b610f169190613ee7565b815250620a2c2a6012805480602002602001604051908101604052809291908181526020018280548015610f7357602002820191906000526020600020905b81546001600160a01b03168152600190910190602001808311610f55575b50506004546001600160a01b03169250309150611f039050565b81600003611060576001856101a001818151610fa99190613f15565b60ff169052506040850151610fbf908290612150565b610fca87600061218e565b611009576040518060400160405280601b81526020017f506f736974696f6e4164644d67723a7472696767657261626f76650000000000815250611040565b6040518060400160405280601e81526020017f506f736974696f6e5375624d67723a6d61726b657420736c69707061676500008152505b9061105e5760405162461bcd60e51b81526004016106489190613562565b505b505b8061106c81613f2e565b915050610e35565b506106af8383611559565b604080516101e08101825260008082526020820181905291810182905260608082018390526080820183905260a0820183905260c0820183905260e08201839052610100820183905261012082018390526101408201839052610160820183905261018082018390526101a082018390526101c0820152906111029082906121c0565b61110b82611470565b60408281018290526001600160a01b0385811660808501819052600161010086015285151560208601819052600354935163bc95baad60e01b815260048101929092526024820194909452604481019390935260009291169063bc95baad9060640161018060405180830381865afa15801561118b573d6000803e3d6000fd5b505050506040513d601f19601f820116820180604052508101906111af9190613bc4565b608081015160a08085019190915281015161018084015230835290506111dd6000546001600160a01b031690565b6003546008546040858101519051630f90bab560e11b81526001600160a01b0394851694631f21756a94611221948b9430948c949384169390921691600401613c7a565b602060405180830381865afa15801561123e573d6000803e3d6000fd5b505050506040513d601f19601f820116820180604052508101906112629190613cb5565b60ff1661012083018190526112b95760405162461bcd60e51b815260206004820152601c60248201527f506f736974696f6e5375624d67723a73686f756c64276e74206c6971000000006044820152606401610648565b6106af8282611559565b610a6581336121ee565b6112d782826107c1565b61066d5760008281526047602090815260408083206001600160a01b03851684529091529020805460ff1916600117905561130f3390565b6001600160a01b0316816001600160a01b0316837f2f8788117e7eff1d82e926ec794901d17c78024a50270940304540a733656f0d60405160405180910390a45050565b61135d82826107c1565b1561066d5760008281526047602090815260408083206001600160a01b0385168085529252808320805460ff1916905551339285917ff6391f5c32d9c69d2a47ea670b442974b53935d1edc7fd64eb21e047a839171b9190a45050565b6048546001600160a01b0316331461076b5760405162461bcd60e51b815260206004820181905260248201527f4f776e61626c653a2063616c6c6572206973206e6f7420746865206f776e65726044820152606401610648565b604880546001600160a01b038381166001600160a01b0319831681179093556040519116919082907f8be0079c531659141344cd1fd0a4f28419497f9722a3daafe3b4186f6b6457e090600090a35050565b61066d82826112cd565b6009546002546040516303b6b4bb60e51b81526001600160a01b0391821660048201528315602482015260009291909116906376d6976090604401602060405180830381865afa1580156114c8573d6000803e3d6000fd5b505050506040513d601f19601f8201168201806040525081019061055d9190613cb5565b60006001826101c00151511015801561055d57506000826101c0015160008151811061151a5761151a613b76565b60200260200101511192915050565b6000841561154d578361153c8484613f47565b6115469190613f5e565b9050611551565b5060005b949350505050565b60808101511580611575575060808201516001600160a01b0316155b1561157e575050565b60035460085461159a916001600160a01b039081169116612247565b60a082015160808201511480156117bd5761012083015160029060ff166001036115c6575060016115da565b83610120015160ff166002036115da575060075b600084602001516115f6576006546001600160a01b0316611603565b6005546001600160a01b03165b60808601516040516307380adf60e41b81526000600482018190526001600160a01b03928316602483015292935090831690637380adf0906044016000604051808303816000875af115801561165d573d6000803e3d6000fd5b505050506040513d6000823e601f3d908101601f191682016040526116859190810190613cfa565b905060005b81518110156117b85760008282815181106116a7576116a7613b76565b6020026020010151905060006001600160a01b031681606001516001600160a01b0316036116d557506117a6565b6001886101a0018181516116e99190613f15565b60ff169052506040805160a081018252828152602081018a90526117a491810187600781111561171b5761171b613e75565b60ff16815260408051602081810183526000808352818501929092529282015260128054825181850281018501909352808352620a2c2a93830182828015610f73576020028201919060005260206000209081546001600160a01b03168152600190910190602001808311610f555750506004546001600160a01b03169250309150611f039050565b505b806117b081613f2e565b91505061168a565b505050505b308352600854604051634151026360e01b81526000916001600160a01b0316906341510263906117f3908790879060040161414d565b600060405180830381865afa158015611810573d6000803e3d6000fd5b505050506040513d6000823e601f3d908101601f191682016040526118389190810190614171565b9050600061184e6000546001600160a01b031690565b90508460a001516000036118eb5760a0840151610180860151608086015160405163393ab2bd60e21b815260048082015260248101939093526044830191909152606482015260006084820181905260a48201526001600160a01b0382169063e4eacaf49060c40160006040518083038186803b1580156118ce57600080fd5b505afa1580156118e2573d6000803e3d6000fd5b5050505061194c565b60405163fc54d91d60e01b81526001600160a01b0382169063fc54d91d9061191b908890889087906004016141f6565b60006040518083038186803b15801561193357600080fd5b505afa158015611947573d6000803e3d6000fd5b505050505b60a0850151600090156119f157600354608087015160a08801516040808a015160208b0151915163f3ec823d60e01b81526001600160a01b039485166004820152602481019390935260448301521515606482015291169063f3ec823d90608401602060405180830381865afa1580156119ca573d6000803e3d6000fd5b505050506040513d601f19601f820116820180604052508101906119ee9190613cb5565b90505b61010085018190526000611a078787848761231d565b60085460208901516040516334f32e2560e01b815230600482015290151560248201529192506000916001600160a01b03909116906334f32e2590604401602060405180830381865afa158015611a62573d6000803e3d6000fd5b505050506040513d601f19601f82011682018060405250810190611a869190613cb5565b905060008260400151118015611aa0575060008260800151135b15611b4d57600354608089810151908401516040808c015160208d0151915163f115e8b560e01b81526001600160a01b039485166004820152602481019390935260006044840152606483015260848201859052151560a482015291169063f115e8b59060c401610180604051808303816000875af1158015611b27573d6000803e3d6000fd5b505050506040513d601f19601f82011682018060405250810190611b4b9190613bc4565b505b600c5460a0890151600480546040805163313ce56760e01b815290516001600160a01b039586169563e108262f95611bd49590949091169263313ce56792818301926020928290030181865afa158015611bab573d6000803e3d6000fd5b505050506040513d601f19601f82011682018060405250810190611bcf919061422c565b6125ec565b6040518263ffffffff1660e01b8152600401611bf291815260200190565b600060405180830381600087803b158015611c0c57600080fd5b505af1158015611c20573d6000803e3d6000fd5b505060035460808b015160c086015160a08d015160208e015160405163e62c0edf60e01b81526001600160a01b039485166004820152602481019390935260448301919091526064820187905215156084820152600094509116915063e62c0edf9060a401610180604051808303816000875af1158015611ca5573d6000803e3d6000fd5b505050506040513d601f19601f82011682018060405250810190611cc99190613bc4565b9050611cdd6000546001600160a01b031690565b608082015160a083015160405163056b460360e31b8152600481019290925260248201526001600160a01b039190911690632b5a30189060440160006040518083038186803b158015611d2f57600080fd5b505afa158015611d43573d6000803e3d6000fd5b50505050611d5a888a61262390919063ffffffff16565b15611d7157611d7189608001518a60200151610b2b565b6040805160c0810182528a815260208082018b90528183018990526004546001600160a01b03908116606084015260025416608083015260a0868101519083015260128054845181840281018401909552808552611e2594620a2c2a9390929190830182828015611e0b57602002820191906000526020600020905b81546001600160a01b03168152600190910190602001808311611ded575b50506004546001600160a01b0316925030915061265d9050565b505050505050505050565b60008160600151826101200151604051602001611e7892919060609290921b6bffffffffffffffffffffffff1916825260c01b6001600160c01b0319166014820152601c0190565b604051602081830303815290604052805190602001209050919050565b60006001600160ff1b03821115611eff5760405162461bcd60e51b815260206004820152602860248201527f53616665436173743a2076616c756520646f65736e27742066697420696e2061604482015267371034b73a191a9b60c11b6064820152608401610648565b5090565b6040516370a0823160e01b81526001600160a01b038281166004830152600091908416906370a0823190602401602060405180830381865afa158015611f4d573d6000803e3d6000fd5b505050506040513d601f19601f82011682018060405250810190611f719190613cb5565b905060005b845181101561208757848181518110611f9157611f91613b76565b60200260200101516001600160a01b031663612c39b76040518163ffffffff1660e01b8152600401606060405180830381865afa158015611fd6573d6000803e3d6000fd5b505050506040513d601f19601f82011682018060405250810190611ffa9190614249565b60400151156120755784818151811061201557612015613b76565b60200260200101516001600160a01b031663718cb58a886040518263ffffffff1660e01b815260040161204891906142ba565b600060405180830381600087803b15801561206257600080fd5b505af1925050508015612073575060015b505b8061207f81613f2e565b915050611f76565b506040516370a0823160e01b81526001600160a01b038381166004830152600091908516906370a0823190602401602060405180830381865afa1580156120d2573d6000803e3d6000fd5b505050506040513d601f19601f820116820180604052508101906120f69190613cb5565b90508181146121475760405162461bcd60e51b815260206004820152601b60248201527f455243323020746f6b656e2062616c616e6365206368616e67656400000000006044820152606401610648565b50505050505050565b600061215b836127de565b15612177575060e08201516001600160801b031681101561055d565b5060e08201516001600160801b031681111561055d565b600081156121ab5750608082015165ffffffffffff16151561055d565b505061010001516001600160801b0316151590565b60408051600480825260a0820190925290602082016080803683375050506101c08301521515606090910152565b6121f882826107c1565b61066d5761220581612867565b612210836020612879565b604051602001612221929190614447565b60408051601f198184030181529082905262461bcd60e51b825261064891600401613562565b600080836001600160a01b0316638749694a6040518163ffffffff1660e01b81526004016040805180830381865afa158015612287573d6000803e3d6000fd5b505050506040513d601f19601f820116820180604052508101906122ab91906144bc565b60405163c6f83ad160e01b8152306004820152602481018390526044810182905291935091506001600160a01b0384169063c6f83ad190606401600060405180830381600087803b1580156122ff57600080fd5b505af1158015612313573d6000803e3d6000fd5b5050505050505050565b61235d6040518060e00160405280600081526020016000815260200160008152602001600081526020016000815260200160008152602001600081525090565b61236985858585612a14565b9050600061238461237d8660a00151611e95565b8585612b8d565b60045483519192506001600160a01b0316908190600090612411908213156123bf5785516123ba906123b5906144e0565b612c3d565b6123ca565b85516123ca90612c3d565b600480546040805163313ce56760e01b815290516001600160a01b039092169263313ce5679282820192602092908290030181865afa158015611bab573d6000803e3d6000fd5b905060008560000151126125075760085460405163095ea7b360e01b81526001600160a01b039182166004820152602481018390529083169063095ea7b3906044016020604051808303816000875af1158015612472573d6000803e3d6000fd5b505050506040513d601f19601f8201168201806040525081019061249691906144fc565b5060085460808a01516040516312cd59c560e31b81526001600160a01b039092169163966ace28916124d09187908b908a90600401614519565b600060405180830381600087803b1580156124ea57600080fd5b505af11580156124fe573d6000803e3d6000fd5b50505050612573565b60085460808a0151604051631a6ca80960e01b81526001600160a01b0390921691631a6ca809916125409187908b908790600401614519565b600060405180830381600087803b15801561255a57600080fd5b505af115801561256e573d6000803e3d6000fd5b505050505b6000856020015113156125935761258e828660200151612c8f565b6125c0565b6125c0833087602001516125a6906144e0565b601354600c5460ff909116906001600160a01b0316612d82565b6000856060015113156125e0576125e0838a608001518760600151612e5c565b50505050949350505050565b60006125fa6012600a61463a565b61260860ff8416600a614649565b6126129085613f47565b61261c9190613f5e565b9392505050565b600082610120015160ff166001141580612646575082610120015160ff16600214155b801561261c5750506080015160a090910151141590565b6040516370a0823160e01b81526001600160a01b038281166004830152600091908416906370a0823190602401602060405180830381865afa1580156126a7573d6000803e3d6000fd5b505050506040513d601f19601f820116820180604052508101906126cb9190613cb5565b905060005b8451811015612087578481815181106126eb576126eb613b76565b60200260200101516001600160a01b031663612c39b76040518163ffffffff1660e01b8152600401606060405180830381865afa158015612730573d6000803e3d6000fd5b505050506040513d601f19601f820116820180604052508101906127549190614249565b51156127cc5784818151811061276c5761276c613b76565b60200260200101516001600160a01b03166340a542fe886040518263ffffffff1660e01b815260040161279f9190614655565b600060405180830381600087803b1580156127b957600080fd5b505af19250505080156127ca575060015b505b806127d681613f2e565b9150506126d0565b6000816040015160ff166000036128375760405162461bcd60e51b815260206004820152601b60248201527f696e76616c6964206f7264657220747269676765722061626f766500000000006044820152606401610648565b6002826040015161284891906146da565b60ff1660010361285a57506001919050565b506000919050565b919050565b606061055d6001600160a01b03831660145b60606000612888836002613f47565b6128939060026146fc565b6001600160401b038111156128aa576128aa613575565b6040519080825280601f01601f1916602001820160405280156128d4576020820181803683370190505b509050600360fc1b816000815181106128ef576128ef613b76565b60200101906001600160f81b031916908160001a905350600f60fb1b8160018151811061291e5761291e613b76565b60200101906001600160f81b031916908160001a9053506000612942846002613f47565b61294d9060016146fc565b90505b60018111156129c5576f181899199a1a9b1b9c1cb0b131b232b360811b85600f166010811061298157612981613b76565b1a60f81b82828151811061299757612997613b76565b60200101906001600160f81b031916908160001a90535060049490941c936129be8161470f565b9050612950565b50831561261c5760405162461bcd60e51b815260206004820181905260248201527f537472696e67733a20686578206c656e67746820696e73756666696369656e746044820152606401610648565b612a546040518060e00160405280600081526020016000815260200160008152602001600081526020016000815260200160008152602001600081525090565b600080612a6084612ec6565b915091506000612a6f82612fcb565b90506000831315612a9757828760a001818151612a8c91906146fc565b905250608084018390525b82612aa3888884613017565b612aad9190614726565b845260a0870151612ac790612ac190611e95565b87613079565b6020850152612ad8888888846130a1565b6040850152612ae988888884613191565b606085015260a0880151608088015103612b2657612b0683612c3d565b8760a001818151612b17919061474d565b90525060a08701516101808901525b83604001518760a00151612b3a919061474d565b60c085015260a0880151608088015114612b6f578360800151612b608560c00151611e95565b612b6a9190614726565b612b7c565b612b7c8760a00151611e95565b60a085015250919695505050505050565b60008082600260ff1681518110612ba657612ba6613b76565b6020026020010151905060008486856001600c811115612bc857612bc8613e75565b60ff1681518110612bdb57612bdb613b76565b6020026020010151612bec906144e0565b612bf69190614760565b612c009190614760565b9050600082138015612c1157508082135b15612c3457612c21816000613283565b612c2b9083614726565b9250505061261c565b50509392505050565b600080821215611eff5760405162461bcd60e51b815260206004820181905260248201527f53616665436173743a2076616c7565206d75737420626520706f7369746976656044820152606401610648565b601354612ca090829060ff166125ec565b600c5460405163095ea7b360e01b81526001600160a01b0391821660048201526024810183905291925083169063095ea7b3906044016020604051808303816000875af1158015612cf5573d6000803e3d6000fd5b505050506040513d601f19601f82011682018060405250810190612d1991906144fc565b50600c546040516344d38fd560e11b8152306004820152602481018390526001600160a01b03909116906389a71faa90604401600060405180830381600087803b158015612d6657600080fd5b505af1158015612d7a573d6000803e3d6000fd5b505050505050565b6001600160a01b038416612dd85760405162461bcd60e51b815260206004820152601a60248201527f7661756c7457697468647261773a21757365724163636f756e740000000000006044820152606401610648565b6000831315612e5557806001600160a01b031663da8ddc7485612dfb86866125ec565b6040516001600160e01b031960e085901b1681526001600160a01b0390921660048301526024820152604401600060405180830381600087803b158015612e4157600080fd5b505af1158015611e25573d6000803e3d6000fd5b5050505050565b80600003612e6957505050565b6000839050612eb082856001600160a01b031663313ce5676040518163ffffffff1660e01b8152600401602060405180830381865afa158015611bab573d6000803e3d6000fd5b91506106af6001600160a01b0382168484613292565b600060608183600260ff1681518110612ee157612ee1613b76565b6020026020010151905060008112612efc5750600093915050565b83516001600160401b03811115612f1557612f15613575565b604051908082528060200260200182016040528015612f3e578160200160208202803683370190505b50915060005b8451811015612f9657848181518110612f5f57612f5f613b76565b6020026020010151838281518110612f7957612f79613b76565b602090810291909101015280612f8e81613f2e565b915050612f44565b50600082600260ff1681518110612faf57612faf613b76565b6020908102919091010152612fc3816144e0565b925050915091565b6000805b825181101561301157828181518110612fea57612fea613b76565b602002602001015182612ffd9190614760565b91508061300981613f2e565b915050612fcf565b50919050565b600080836130288660a00151611e95565b6130329190614760565b9050600083121561305657604051630d56a7db60e01b815260040160405180910390fd5b60008113156130715761306981846132e4565b91505061261c565b509392505050565b6000806130868385614760565b131561309a57613095826144e0565b61261c565b5090919050565b60a084015160808401516000911480156130c15760a08501516101808701525b600086610120015160ff1611806130d55750805b156130e4576000915050611551565b600083856130f58860a00151611e95565b6130ff9190614760565b6131099190614726565b13613118576000915050611551565b6000838561312a896101800151611e95565b6131349190614760565b61313e9190614726565b12156131725761316a83856131568860a00151611e95565b6131609190614760565b6123b59190614726565b915050611551565b8561018001518560a00151613187919061474d565b9695505050505050565b60a084015160808401516000911480156131b15760a08501516101808701525b600083856131c28860a00151611e95565b6131cc9190614760565b6131d69190614726565b136131e5576000915050611551565b600083856131f7896101800151611e95565b6132019190614760565b61320b9190614726565b1315613235578284613221886101800151611e95565b61322b9190614760565b61316a9190614726565b60008385613247896101800151611e95565b6132519190614760565b61325b9190614726565b1361326a576000915050611551565b83613279876101800151611e95565b6131879190614760565b600081831361309a578161261c565b604080516001600160a01b038416602482015260448082018490528251808303909101815260649091019091526020810180516001600160e01b031663a9059cbb60e01b1790526106da9084906132f3565b600081831261309a578161261c565b6000613348826040518060400160405280602081526020017f5361666545524332303a206c6f772d6c6576656c2063616c6c206661696c6564815250856001600160a01b03166133c59092919063ffffffff16565b8051909150156106da578080602001905181019061336691906144fc565b6106da5760405162461bcd60e51b815260206004820152602a60248201527f5361666545524332303a204552433230206f7065726174696f6e20646964206e6044820152691bdd081cdd58d8d9595960b21b6064820152608401610648565b6060611551848460008585600080866001600160a01b031685876040516133ec9190614788565b60006040518083038185875af1925050503d8060008114613429576040519150601f19603f3d011682016040523d82523d6000602084013e61342e565b606091505b509150915061343f8783838761344a565b979650505050505050565b606083156134b95782516000036134b2576001600160a01b0385163b6134b25760405162461bcd60e51b815260206004820152601d60248201527f416464726573733a2063616c6c20746f206e6f6e2d636f6e74726163740000006044820152606401610648565b5081611551565b61155183838151156134ce5781518083602001fd5b8060405162461bcd60e51b81526004016106489190613562565b6000602082840312156134fa57600080fd5b81356001600160e01b03198116811461261c57600080fd5b60005b8381101561352d578181015183820152602001613515565b50506000910152565b6000815180845261354e816020860160208601613512565b601f01601f19169290920160200192915050565b60208152600061261c6020830184613536565b634e487b7160e01b600052604160045260246000fd5b6040516101e081016001600160401b03811182821017156135ae576135ae613575565b60405290565b6040516101a081016001600160401b03811182821017156135ae576135ae613575565b60405161018081016001600160401b03811182821017156135ae576135ae613575565b604051601f8201601f191681016001600160401b038111828210171561362257613622613575565b604052919050565b60ff81168114610a6557600080fd5b80356128628161362a565b63ffffffff81168114610a6557600080fd5b803561286281613644565b6001600160a01b0381168114610a6557600080fd5b803561286281613661565b65ffffffffffff81168114610a6557600080fd5b803561286281613681565b6001600160801b0381168114610a6557600080fd5b8035612862816136a0565b6001600160401b0381168114610a6557600080fd5b8035612862816136c0565b8015158114610a6557600080fd5b8035612862816136e0565b60006001600160401b0382111561371257613712613575565b5060051b60200190565b600082601f83011261372d57600080fd5b8135602061374261373d836136f9565b6135fa565b82815260059290921b8401810191818101908684111561376157600080fd5b8286015b8481101561377c5780358352918301918301613765565b509695505050505050565b60006101e0828403121561379a57600080fd5b6137a261358b565b90506137ad82613676565b81526137bb602083016136ee565b6020820152604082013560408201526137d6606083016136ee565b60608201526137e760808301613676565b608082015260a082013560a082015260c082013560c082015260e082013560e08201526101006138188184016136ee565b9082015261012061382a838201613639565b9082015261014061383c8382016136d5565b90820152610160828101359082015261018080830135908201526101a0613864818401613639565b908201526101c0828101356001600160401b0381111561388357600080fd5b61388f8582860161371c565b82840152505092915050565b6000808284036101c08112156138b057600080fd5b6101a0808212156138c057600080fd5b6138c86135b4565b91506138d385613639565b82526138e160208601613656565b60208301526138f260408601613639565b604083015261390360608601613676565b606083015261391460808601613695565b608083015261392560a086016136b5565b60a083015261393660c086016136b5565b60c083015261394760e086016136b5565b60e083015261010061395a8187016136b5565b9083015261012061396c8682016136d5565b9083015261014061397e8682016136d5565b908301526101606139908682016136b5565b9083015261018085810135908301529092508301356001600160401b038111156139b957600080fd5b6139c585828601613787565b9150509250929050565b600080604083850312156139e257600080fd5b82356001600160401b038111156139f857600080fd5b8301601f81018513613a0957600080fd5b80356020613a1961373d836136f9565b82815260059290921b83018101918181019088841115613a3857600080fd5b938201935b83851015613a5f578435613a5081613661565b82529382019390820190613a3d565b9550613a6e90508682016136ee565b93505050509250929050565b600060208284031215613a8c57600080fd5b5035919050565b60008060408385031215613aa657600080fd5b823591506020830135613ab881613661565b809150509250929050565b600060208284031215613ad557600080fd5b813561261c81613661565b60008060408385031215613af357600080fd5b8235613afe816136e0565b91506020830135613ab8816136e0565b600060208284031215613b2057600080fd5b81356001600160401b03811115613b3657600080fd5b61155184828501613787565b600181811c90821680613b5657607f821691505b60208210810361301157634e487b7160e01b600052602260045260246000fd5b634e487b7160e01b600052603260045260246000fd5b805161286281613661565b8051612862816136e0565b805161286281613644565b80516001600160d81b038116811461286257600080fd5b60006101808284031215613bd757600080fd5b613bdf6135d7565b613be883613b8c565b8152613bf660208401613b97565b6020820152613c0760408401613ba2565b6040820152613c1860608401613bad565b60608201526080838101519082015260a0808401519082015260c0808401519082015260e08084015190820152610100808401519082015261012080840151908201526101408084015190820152610160928301519281019290925250919050565b6001600160a01b039687168152948616602086015292151560408501529084166060840152909216608082015260a081019190915260c00190565b600060208284031215613cc757600080fd5b5051919050565b80516128628161362a565b805161286281613681565b8051612862816136a0565b8051612862816136c0565b60006020808385031215613d0d57600080fd5b82516001600160401b03811115613d2357600080fd5b8301601f81018513613d3457600080fd5b8051613d4261373d826136f9565b8181526101a09182028301840191848201919088841115613d6257600080fd5b938501935b83851015613e695780858a031215613d7f5760008081fd5b613d876135b4565b613d9086613cce565b8152613d9d878701613ba2565b878201526040613dae818801613cce565b908201526060613dbf878201613b8c565b908201526080613dd0878201613cd9565b9082015260a0613de1878201613ce4565b9082015260c0613df2878201613ce4565b9082015260e0613e03878201613ce4565b90820152610100613e15878201613ce4565b90820152610120613e27878201613cef565b90820152610140613e39878201613cef565b90820152610160613e4b878201613ce4565b90820152610180868101519082015283529384019391850191613d67565b50979650505050505050565b634e487b7160e01b600052602160045260246000fd5b634e487b7160e01b600052601160045260246000fd5b80820260008212600160ff1b84141615613ebd57613ebd613e8b565b818105831482151761055d5761055d613e8b565b634e487b7160e01b600052601260045260246000fd5b600082613ef657613ef6613ed1565b600160ff1b821460001984141615613f1057613f10613e8b565b500590565b60ff818116838216019081111561055d5761055d613e8b565b600060018201613f4057613f40613e8b565b5060010190565b808202811582820484141761055d5761055d613e8b565b600082613f6d57613f6d613ed1565b500490565b600081518084526020808501945080840160005b83811015613fa257815187529582019590820190600101613f86565b509495945050505050565b80516001600160a01b0316825260006101e06020830151613fd2602086018215159052565b50604083015160408501526060830151613ff0606086018215159052565b50608083015161400b60808601826001600160a01b03169052565b5060a083015160a085015260c083015160c085015260e083015160e08501526101008084015161403e8287018215159052565b50506101208381015160ff90811691860191909152610140808501516001600160401b031690860152610160808501519086015261018080850151908601526101a080850151909116908501526101c08084015181860183905261318783870182613f72565b80516001600160a01b0316825260208101516140c4602084018215159052565b5060408101516140dc604084018263ffffffff169052565b5060608101516140f760608401826001600160d81b03169052565b506080818101519083015260a0808201519083015260c0808201519083015260e0808201519083015261010080820151908301526101208082015190830152610140808201519083015261016090810151910152565b60006101a080835261416181840186613fad565b91505061261c60208301846140a4565b6000602080838503121561418457600080fd5b82516001600160401b0381111561419a57600080fd5b8301601f810185136141ab57600080fd5b80516141b961373d826136f9565b81815260059190911b820183019083810190878311156141d857600080fd5b928401925b8284101561343f578351825292840192908401906141dd565b60006101c080835261420a81840187613fad565b905061421960208401866140a4565b8281036101a08401526131878185613f72565b60006020828403121561423e57600080fd5b815161261c8161362a565b60006060828403121561425b57600080fd5b604051606081018181106001600160401b038211171561427d5761427d613575565b604052825161428b816136e0565b8152602083015161429b816136e0565b602082015260408301516142ae816136e0565b60408201529392505050565b60208152600082516142d260208401825160ff169052565b602081015163ffffffff8116604085015250604081015160ff811660608501525060608101516001600160a01b038116608085015250608081015165ffffffffffff811660a08501525060a08101516001600160801b03811660c08501525060c08101516001600160801b03811660e08501525060e0810151610100614362818601836001600160801b03169052565b820151905061012061437e858201836001600160801b03169052565b820151905061014061439a858201836001600160401b03169052565b82015190506101606143b6858201836001600160401b03169052565b82015190506101806143d2858201836001600160801b03169052565b808301516101a08601525050506020830151610220806101c08501526143fc610240850183613fad565b915060408501516144136101e086018260ff169052565b506060850151848303601f19016102008601526144308382613536565b925050608085015181850152508091505092915050565b7f416363657373436f6e74726f6c3a206163636f756e742000000000000000000081526000835161447f816017850160208801613512565b7001034b99036b4b9b9b4b733903937b6329607d1b60179184019182015283516144b0816028840160208801613512565b01602801949350505050565b600080604083850312156144cf57600080fd5b505080516020909101519092909150565b6000600160ff1b82016144f5576144f5613e8b565b5060000390565b60006020828403121561450e57600080fd5b815161261c816136e0565b6001600160a01b0385811682528416602082015260806040820181905260009061454590830185613f72565b905082606083015295945050505050565b600181815b8085111561459157816000190482111561457757614577613e8b565b8085161561458457918102915b93841c939080029061455b565b509250929050565b6000826145a85750600161055d565b816145b55750600061055d565b81600181146145cb57600281146145d5576145f1565b600191505061055d565b60ff8411156145e6576145e6613e8b565b50506001821b61055d565b5060208310610133831016604e8410600b8410161715614614575081810a61055d565b61461e8383614556565b806000190482111561463257614632613e8b565b029392505050565b600061261c60ff841683614599565b600061261c8383614599565b6020815260008251610220806020850152614674610240850183613fad565b9150602085015161468860408601826140a4565b506040850151848303601f19016101c08601526146a58382613f72565b60608701516001600160a01b039081166101e088015260808801511661020087015260a0909601519190940152509192915050565b600060ff8316806146ed576146ed613ed1565b8060ff84160691505092915050565b8082018082111561055d5761055d613e8b565b60008161471e5761471e613e8b565b506000190190565b818103600083128015838313168383128216171561474657614746613e8b565b5092915050565b8181038181111561055d5761055d613e8b565b808201828112600083128015821682158216171561478057614780613e8b565b505092915050565b6000825161479a818460208701613512565b919091019291505056fea26469706673582212203a7efd16ca298e70fb7032aabcfc01d883cb805d4b362548673fe4c40104de7464736f6c63430008110033",
  "linkReferences": {},
  "deployedLinkReferences": {}
}