{
  "_format": "hh-sol-artifact-1",
  "contractName": "PositionSubMgr",
  "sourceName": "contracts/market/PositionSubMgr.sol",
  "abi": [
    {
      "inputs": [],
      "stateMutability": "nonpayable",
      "type": "constructor"
    },
    {
      "inputs": [],
      "name": "TotalFeesLtZero",
      "type": "error"
    },
    {
      "anonymous": false,
      "inputs": [
        {
          "indexed": false,
          "internalType": "uint8",
          "name": "version",
          "type": "uint8"
        }
      ],
      "name": "Initialized",
      "type": "event"
    },
    {
      "inputs": [],
      "name": "DEFAULT_ADMIN_ROLE",
      "outputs": [
        {
          "internalType": "bytes32",
          "name": "",
          "type": "bytes32"
        }
      ],
      "stateMutability": "view",
      "type": "function"
    },
    {
      "inputs": [
        {
          "internalType": "address",
          "name": "newOwner",
          "type": "address"
        }
      ],
      "name": "_transferOwnership",
      "outputs": [],
      "stateMutability": "pure",
      "type": "function"
    },
    {
      "inputs": [],
      "name": "collateralToken",
      "outputs": [
        {
          "internalType": "address",
          "name": "",
          "type": "address"
        }
      ],
      "stateMutability": "view",
      "type": "function"
    },
    {
      "inputs": [],
      "name": "collateralTokenDigits",
      "outputs": [
        {
          "internalType": "uint8",
          "name": "",
          "type": "uint8"
        }
      ],
      "stateMutability": "view",
      "type": "function"
    },
    {
      "inputs": [
        {
          "components": [
            {
              "internalType": "address",
              "name": "_market",
              "type": "address"
            },
            {
              "internalType": "bool",
              "name": "_isLong",
              "type": "bool"
            },
            {
              "internalType": "uint256",
              "name": "_oraclePrice",
              "type": "uint256"
            },
            {
              "internalType": "bool",
              "name": "isOpen",
              "type": "bool"
            },
            {
              "internalType": "address",
              "name": "_account",
              "type": "address"
            },
            {
              "internalType": "uint256",
              "name": "_sizeDelta",
              "type": "uint256"
            },
            {
              "internalType": "uint256",
              "name": "_price",
              "type": "uint256"
            },
            {
              "internalType": "uint256",
              "name": "_slippage",
              "type": "uint256"
            },
            {
              "internalType": "bool",
              "name": "_isExec",
              "type": "bool"
            },
            {
              "internalType": "uint8",
              "name": "liqState",
              "type": "uint8"
            },
            {
              "internalType": "uint64",
              "name": "_fromOrder",
              "type": "uint64"
            },
            {
              "internalType": "bytes32",
              "name": "_refCode",
              "type": "bytes32"
            },
            {
              "internalType": "uint256",
              "name": "collateralDelta",
              "type": "uint256"
            },
            {
              "internalType": "uint8",
              "name": "execNum",
              "type": "uint8"
            },
            {
              "internalType": "uint256[]",
              "name": "inputs",
              "type": "uint256[]"
            }
          ],
          "internalType": "struct MarketDataTypes.UpdatePositionInputs",
          "name": "_vars",
          "type": "tuple"
        }
      ],
      "name": "decreasePosition",
      "outputs": [],
      "stateMutability": "nonpayable",
      "type": "function"
    },
    {
      "inputs": [
        {
          "components": [
            {
              "internalType": "uint8",
              "name": "version",
              "type": "uint8"
            },
            {
              "internalType": "uint32",
              "name": "updatedAtBlock",
              "type": "uint32"
            },
            {
              "internalType": "uint8",
              "name": "triggerAbove",
              "type": "uint8"
            },
            {
              "internalType": "address",
              "name": "account",
              "type": "address"
            },
            {
              "internalType": "uint48",
              "name": "extra3",
              "type": "uint48"
            },
            {
              "internalType": "uint128",
              "name": "collateral",
              "type": "uint128"
            },
            {
              "internalType": "uint128",
              "name": "size",
              "type": "uint128"
            },
            {
              "internalType": "uint128",
              "name": "price",
              "type": "uint128"
            },
            {
              "internalType": "uint128",
              "name": "extra1",
              "type": "uint128"
            },
            {
              "internalType": "uint64",
              "name": "orderID",
              "type": "uint64"
            },
            {
              "internalType": "uint64",
              "name": "extra2",
              "type": "uint64"
            },
            {
              "internalType": "uint128",
              "name": "extra0",
              "type": "uint128"
            },
            {
              "internalType": "bytes32",
              "name": "refCode",
              "type": "bytes32"
            }
          ],
          "internalType": "struct Order.Props",
          "name": "order",
          "type": "tuple"
        },
        {
          "components": [
            {
              "internalType": "address",
              "name": "_market",
              "type": "address"
            },
            {
              "internalType": "bool",
              "name": "_isLong",
              "type": "bool"
            },
            {
              "internalType": "uint256",
              "name": "_oraclePrice",
              "type": "uint256"
            },
            {
              "internalType": "bool",
              "name": "isOpen",
              "type": "bool"
            },
            {
              "internalType": "address",
              "name": "_account",
              "type": "address"
            },
            {
              "internalType": "uint256",
              "name": "_sizeDelta",
              "type": "uint256"
            },
            {
              "internalType": "uint256",
              "name": "_price",
              "type": "uint256"
            },
            {
              "internalType": "uint256",
              "name": "_slippage",
              "type": "uint256"
            },
            {
              "internalType": "bool",
              "name": "_isExec",
              "type": "bool"
            },
            {
              "internalType": "uint8",
              "name": "liqState",
              "type": "uint8"
            },
            {
              "internalType": "uint64",
              "name": "_fromOrder",
              "type": "uint64"
            },
            {
              "internalType": "bytes32",
              "name": "_refCode",
              "type": "bytes32"
            },
            {
              "internalType": "uint256",
              "name": "collateralDelta",
              "type": "uint256"
            },
            {
              "internalType": "uint8",
              "name": "execNum",
              "type": "uint8"
            },
            {
              "internalType": "uint256[]",
              "name": "inputs",
              "type": "uint256[]"
            }
          ],
          "internalType": "struct MarketDataTypes.UpdatePositionInputs",
          "name": "_params",
          "type": "tuple"
        }
      ],
      "name": "execOrderKey",
      "outputs": [],
      "stateMutability": "nonpayable",
      "type": "function"
    },
    {
      "inputs": [],
      "name": "feeRouter",
      "outputs": [
        {
          "internalType": "contract IFeeRouter",
          "name": "",
          "type": "address"
        }
      ],
      "stateMutability": "view",
      "type": "function"
    },
    {
      "inputs": [],
      "name": "globalValid",
      "outputs": [
        {
          "internalType": "address",
          "name": "",
          "type": "address"
        }
      ],
      "stateMutability": "view",
      "type": "function"
    },
    {
      "inputs": [
        {
          "internalType": "address",
          "name": "_account",
          "type": "address"
        }
      ],
      "name": "grantControllerRoleByMarketManager",
      "outputs": [],
      "stateMutability": "nonpayable",
      "type": "function"
    },
    {
      "inputs": [
        {
          "internalType": "bytes32",
          "name": "role",
          "type": "bytes32"
        },
        {
          "internalType": "address",
          "name": "account",
          "type": "address"
        }
      ],
      "name": "grantRole",
      "outputs": [],
      "stateMutability": "pure",
      "type": "function"
    },
    {
      "inputs": [
        {
          "internalType": "bytes32",
          "name": "role",
          "type": "bytes32"
        },
        {
          "internalType": "address",
          "name": "account",
          "type": "address"
        }
      ],
      "name": "hasRole",
      "outputs": [
        {
          "internalType": "bool",
          "name": "",
          "type": "bool"
        }
      ],
      "stateMutability": "pure",
      "type": "function"
    },
    {
      "inputs": [],
      "name": "indexToken",
      "outputs": [
        {
          "internalType": "address",
          "name": "",
          "type": "address"
        }
      ],
      "stateMutability": "view",
      "type": "function"
    },
    {
      "inputs": [
        {
          "internalType": "address[]",
          "name": "accounts",
          "type": "address[]"
        },
        {
          "internalType": "bool",
          "name": "_isLong",
          "type": "bool"
        }
      ],
      "name": "liquidatePositions",
      "outputs": [],
      "stateMutability": "nonpayable",
      "type": "function"
    },
    {
      "inputs": [],
      "name": "marketRouter",
      "outputs": [
        {
          "internalType": "address",
          "name": "",
          "type": "address"
        }
      ],
      "stateMutability": "view",
      "type": "function"
    },
    {
      "inputs": [],
      "name": "marketValid",
      "outputs": [
        {
          "internalType": "address",
          "name": "",
          "type": "address"
        }
      ],
      "stateMutability": "view",
      "type": "function"
    },
    {
      "inputs": [],
      "name": "name",
      "outputs": [
        {
          "internalType": "string",
          "name": "",
          "type": "string"
        }
      ],
      "stateMutability": "view",
      "type": "function"
    },
    {
      "inputs": [],
      "name": "orderBookLong",
      "outputs": [
        {
          "internalType": "contract IOrderBook",
          "name": "",
          "type": "address"
        }
      ],
      "stateMutability": "view",
      "type": "function"
    },
    {
      "inputs": [],
      "name": "orderBookShort",
      "outputs": [
        {
          "internalType": "contract IOrderBook",
          "name": "",
          "type": "address"
        }
      ],
      "stateMutability": "view",
      "type": "function"
    },
    {
      "inputs": [],
      "name": "orderMgr",
      "outputs": [
        {
          "internalType": "address",
          "name": "",
          "type": "address"
        }
      ],
      "stateMutability": "view",
      "type": "function"
    },
    {
      "inputs": [
        {
          "internalType": "bool",
          "name": "isLong",
          "type": "bool"
        },
        {
          "internalType": "bool",
          "name": "isOpen",
          "type": "bool"
        }
      ],
      "name": "orderStore",
      "outputs": [
        {
          "internalType": "contract IOrderStore",
          "name": "",
          "type": "address"
        }
      ],
      "stateMutability": "view",
      "type": "function"
    },
    {
      "inputs": [],
      "name": "pluginGasLimit",
      "outputs": [
        {
          "internalType": "uint256",
          "name": "",
          "type": "uint256"
        }
      ],
      "stateMutability": "view",
      "type": "function"
    },
    {
      "inputs": [
        {
          "internalType": "uint256",
          "name": "",
          "type": "uint256"
        }
      ],
      "name": "plugins",
      "outputs": [
        {
          "internalType": "address",
          "name": "",
          "type": "address"
        }
      ],
      "stateMutability": "view",
      "type": "function"
    },
    {
      "inputs": [],
      "name": "positionAddMgr",
      "outputs": [
        {
          "internalType": "address",
          "name": "",
          "type": "address"
        }
      ],
      "stateMutability": "view",
      "type": "function"
    },
    {
      "inputs": [],
      "name": "positionBook",
      "outputs": [
        {
          "internalType": "contract IPositionBook",
          "name": "",
          "type": "address"
        }
      ],
      "stateMutability": "view",
      "type": "function"
    },
    {
      "inputs": [],
      "name": "positionStoreLong",
      "outputs": [
        {
          "internalType": "address",
          "name": "",
          "type": "address"
        }
      ],
      "stateMutability": "view",
      "type": "function"
    },
    {
      "inputs": [],
      "name": "positionStoreShort",
      "outputs": [
        {
          "internalType": "address",
          "name": "",
          "type": "address"
        }
      ],
      "stateMutability": "view",
      "type": "function"
    },
    {
      "inputs": [],
      "name": "positionSubMgr",
      "outputs": [
        {
          "internalType": "address",
          "name": "",
          "type": "address"
        }
      ],
      "stateMutability": "view",
      "type": "function"
    },
    {
      "inputs": [],
      "name": "priceFeed",
      "outputs": [
        {
          "internalType": "address",
          "name": "",
          "type": "address"
        }
      ],
      "stateMutability": "view",
      "type": "function"
    },
    {
      "inputs": [
        {
          "internalType": "bytes32",
          "name": "role",
          "type": "bytes32"
        },
        {
          "internalType": "address",
          "name": "account",
          "type": "address"
        }
      ],
      "name": "revokeRole",
      "outputs": [],
      "stateMutability": "pure",
      "type": "function"
    },
    {
      "inputs": [
        {
          "internalType": "address",
          "name": "to",
          "type": "address"
        }
      ],
      "name": "transferAdmin",
      "outputs": [],
      "stateMutability": "nonpayable",
      "type": "function"
    },
    {
      "inputs": [
        {
          "internalType": "address",
          "name": "newOwner",
          "type": "address"
        }
      ],
      "name": "transferOwnership",
      "outputs": [],
      "stateMutability": "pure",
      "type": "function"
    },
    {
      "inputs": [],
      "name": "vaultRouter",
      "outputs": [
        {
          "internalType": "address",
          "name": "",
          "type": "address"
        }
      ],
      "stateMutability": "view",
      "type": "function"
    }
  ],
  "bytecode": "0x60806040523480156200001157600080fd5b506000600160468190555062000032816200003960201b620007c81760201c565b5062000048565b42604855620000453381565b50565b6140bd80620000586000396000f3fe608060405234801561001057600080fd5b50600436106101f05760003560e01c8063a26404541161010f578063d29d44ee116100a2578063e7d015f211610071578063e7d015f21461044f578063f0a317eb14610462578063f29ebf6114610475578063f2fde38b1461041857600080fd5b8063d29d44ee14610418578063d37c441c14610429578063d49ff78d1461043c578063d547741f1461028d57600080fd5b8063b21dc9cb116100de578063b21dc9cb146103c0578063b894300d146103df578063c54dc3d6146103f2578063d12dbde41461040557600080fd5b8063a26404541461034f578063abed961814610387578063ac0b05a61461039a578063b2016bd4146103ad57600080fd5b8063741bef1a116101875780638a6ca35d116101565780638a6ca35d146102fe57806391d1485414610311578063a0cbf50c14610334578063a217fddf1461034757600080fd5b8063741bef1a146102b257806375829def146102c55780637b2fd1e5146102d85780637fe4a698146102eb57600080fd5b806312de276c116101c357806312de276c1461026557806312ec5d001461027a5780632f2ff15d1461028d57806345ccf5c51461029f57600080fd5b806303deb029146101f557806305ba9ae91461021257806306fdde031461023d57806307e8754514610252575b600080fd5b6101ff620a2c2a81565b6040519081526020015b60405180910390f35b600654610225906001600160a01b031681565b6040516001600160a01b039091168152602001610209565b610245610488565b6040516102099190612ed1565b600a54610225906001600160a01b031681565b61027861027336600461320a565b610516565b005b61027861028836600461333e565b610592565b61027861029b3660046133e9565b5050565b600b54610225906001600160a01b031681565b600954610225906001600160a01b031681565b6102786102d3366004613419565b6105d6565b600554610225906001600160a01b031681565b6102786102f9366004613419565b610426565b600e54610225906001600160a01b031681565b61032461031f3660046133e9565b6105e1565b6040519015158152602001610209565b600f54610225906001600160a01b031681565b6101ff600081565b61022561035d366004613436565b9015156000908152600760209081526040808320931515835292905220546001600160a01b031690565b610278610395366004613464565b6105ea565b600354610225906001600160a01b031681565b600454610225906001600160a01b031681565b6013546103cd9060ff1681565b60405160ff9091168152602001610209565b600054610225906001600160a01b031681565b600154610225906001600160a01b031681565b601054610225906001600160a01b031681565b610278610426366004613419565b50565b600c54610225906001600160a01b031681565b600d54610225906001600160a01b031681565b600254610225906001600160a01b031681565b610225610470366004613498565b61079e565b600854610225906001600160a01b031681565b60118054610495906134b1565b80601f01602080910402602001604051908101604052809291908181526020018280546104c1906134b1565b801561050e5780601f106104e35761010080835404028352916020019161050e565b820191906000526020600020905b8154815290600101906020018083116104f157829003601f168201915b505050505081565b61051f826107cf565b6060810151156105765760405162461bcd60e51b815260206004820152601d60248201527f506f736974696f6e5375624d67723a696e76616c69642069734f70656e00000060448201526064015b60405180910390fd5b6105888260600151826020015161086f565b61029b8282610956565b815160005b818110156105d05760008482815181106105b3576105b36134e5565b602002602001015190506105c78185610dc3565b50600101610597565b50505050565b600061029b60003382565b60015b92915050565b6060810151156106345760405162461bcd60e51b81526020600482015260156024820152742837b9b4ba34b7b729bab126b3b91d34b9a7b832b760591b604482015260640161056d565b80610100015115801561065357506101408101516001600160401b0316155b6106ad5760405162461bcd60e51b815260206004820152602560248201527f506f736974696f6e5375624d67723a77726f6e67206973657865632f66726f6d60448201526437b93232b960d91b606482015260840161056d565b8060e001516000036106c157601e60e08201525b6106ce8160200151611007565b604082810182905260035460808401516020850151925163bc95baad60e01b81526001600160a01b0391821660048201526024810194909452911515604484015260009291169063bc95baad9060640161018060405180830381865afa15801561073c573d6000803e3d6000fd5b505050506040513d601f19601f820116820180604052508101906107609190613533565b60a0830151909150156107945761078d61077983611083565b82608001518460a001518460a001516110c0565b6101808301525b61029b82826110f0565b601281815481106107ae57600080fd5b6000918252602090912001546001600160a01b0316905081565b4260485550565b60608101516001600160a01b031661081d5760405162461bcd60e51b8152602060048201526011602482015270696e76616c6964206f72646572206b657960781b604482015260640161056d565b8061012001516001600160401b03166000036104265760405162461bcd60e51b8152602060048201526011602482015270696e76616c6964206f72646572206b657960781b604482015260640161056d565b6000546003546008546001600160a01b0392831692631f21756a928692309287928116911661089d83611007565b6040518763ffffffff1660e01b81526004016108be969594939291906135e9565b602060405180830381865afa1580156108db573d6000803e3d6000fd5b505050506040513d601f19601f820116820180604052508101906108ff9190613624565b1561029b5760405162461bcd60e51b815260206004820152602160248201527f506f736974696f6e5375624d67723a706f736974696f6e20756e646572206c696044820152607160f81b606482015260840161056d565b6109638160200151611007565b604082810182905260035460608501516020850151925163bc95baad60e01b81526001600160a01b0391821660048201526024810194909452911515604484015260009291169063bc95baad9060640161018060405180830381865afa1580156109d1573d6000803e3d6000fd5b505050506040513d601f19601f820116820180604052508101906109f59190613533565b60c08401519091506001600160801b031615610a4757610a40610a23846080015165ffffffffffff16151590565b82608001518560c001516001600160801b03168460a001516110c0565b6101808301525b60008260200151610a63576006546001600160a01b0316610a70565b6005546001600160a01b03165b6001600160a01b03166345824d67610a87866119c7565b6040516001600160e01b031960e084901b1681526004810191909152600060248201526044016000604051808303816000875af1158015610acc573d6000803e3d6000fd5b505050506040513d6000823e601f3d908101601f19168201604052610af49190810190613669565b905060006001600160a01b031681600081518110610b1457610b146134e5565b6020026020010151606001516001600160a01b031603610b765760405162461bcd60e51b815260206004820152601760248201527f506f736974696f6e5375624d67723a216163636f756e74000000000000000000604482015260640161056d565b60005b8151811015610db8576000828281518110610b9657610b966134e5565b6020026020010151905080606001516001600160a01b031660006001600160a01b031603610bc45750610da6565b610cd16040518060a0016040528083815260200187815260200184600014610bed576004610bf0565b60035b6007811115610c0157610c016137e4565b60ff168152604080516020818101835260008252830152018415610c26576000610c5a565b610c338760800151611a2c565b610c408960a00151611a2c565b886101000151610c509190613810565b610c5a9190613856565b815250620a2c2a6012805480602002602001604051908101604052809291908181526020018280548015610cb757602002820191906000526020600020905b81546001600160a01b03168152600190910190602001808311610c99575b50506004546001600160a01b03169250309150611a9a9050565b81600003610da4576001856101a001818151610ced9190613884565b60ff169052506040850151610d03908290611ce7565b610d0e876000611d25565b610d4d576040518060400160405280601b81526020017f506f736974696f6e4164644d67723a7472696767657261626f76650000000000815250610d84565b6040518060400160405280601e81526020017f506f736974696f6e5375624d67723a6d61726b657420736c69707061676500008152505b90610da25760405162461bcd60e51b815260040161056d9190612ed1565b505b505b80610db08161389d565b915050610b79565b506105d083836110f0565b604080516101e08101825260008082526020820181905291810182905260608082018390526080820183905260a0820183905260c0820183905260e08201839052610100820183905261012082018390526101408201839052610160820183905261018082018390526101a082018390526101c082015290610e46908290611d57565b610e4f82611007565b60408281018290526001600160a01b0385811660808501819052600161010086015285151560208601819052600354935163bc95baad60e01b815260048101929092526024820194909452604481019390935260009291169063bc95baad9060640161018060405180830381865afa158015610ecf573d6000803e3d6000fd5b505050506040513d601f19601f82011682018060405250810190610ef39190613533565b608081015160a0808501919091528101516101808401523083529050610f216000546001600160a01b031690565b6003546008546040858101519051630f90bab560e11b81526001600160a01b0394851694631f21756a94610f65948b9430948c9493841693909216916004016135e9565b602060405180830381865afa158015610f82573d6000803e3d6000fd5b505050506040513d601f19601f82011682018060405250810190610fa69190613624565b60ff166101208301819052610ffd5760405162461bcd60e51b815260206004820152601c60248201527f506f736974696f6e5375624d67723a73686f756c64276e74206c697100000000604482015260640161056d565b6105d082826110f0565b6009546002546040516303b6b4bb60e51b81526001600160a01b0391821660048201528315602482015260009291909116906376d6976090604401602060405180830381865afa15801561105f573d6000803e3d6000fd5b505050506040513d601f19601f820116820180604052508101906105e49190613624565b60006001826101c0015151101580156105e457506000826101c001516000815181106110b1576110b16134e5565b60200260200101511192915050565b600084156110e457836110d384846138b6565b6110dd91906138cd565b90506110e8565b5060005b949350505050565b6080810151158061110c575060808201516001600160a01b0316155b15611115575050565b600354600854611131916001600160a01b039081169116611d85565b60a082015160808201511480156113545761012083015160029060ff1660010361115d57506001611171565b83610120015160ff16600203611171575060075b6000846020015161118d576006546001600160a01b031661119a565b6005546001600160a01b03165b60808601516040516307380adf60e41b81526000600482018190526001600160a01b03928316602483015292935090831690637380adf0906044016000604051808303816000875af11580156111f4573d6000803e3d6000fd5b505050506040513d6000823e601f3d908101601f1916820160405261121c9190810190613669565b905060005b815181101561134f57600082828151811061123e5761123e6134e5565b6020026020010151905060006001600160a01b031681606001516001600160a01b03160361126c575061133d565b6001886101a0018181516112809190613884565b60ff169052506040805160a081018252828152602081018a905261133b9181018760078111156112b2576112b26137e4565b60ff16815260408051602081810183526000808352818501929092529282015260128054825181850281018501909352808352620a2c2a93830182828015610cb7576020028201919060005260206000209081546001600160a01b03168152600190910190602001808311610c995750506004546001600160a01b03169250309150611a9a9050565b505b806113478161389d565b915050611221565b505050505b308352600854604051634151026360e01b81526000916001600160a01b03169063415102639061138a9087908790600401613abc565b600060405180830381865afa1580156113a7573d6000803e3d6000fd5b505050506040513d6000823e601f3d908101601f191682016040526113cf9190810190613ae0565b905060006113e56000546001600160a01b031690565b90508460a001516000036114825760a0840151610180860151608086015160405163393ab2bd60e21b815260048082015260248101939093526044830191909152606482015260006084820181905260a48201526001600160a01b0382169063e4eacaf49060c40160006040518083038186803b15801561146557600080fd5b505afa158015611479573d6000803e3d6000fd5b505050506114e3565b60405163fc54d91d60e01b81526001600160a01b0382169063fc54d91d906114b290889088908790600401613b65565b60006040518083038186803b1580156114ca57600080fd5b505afa1580156114de573d6000803e3d6000fd5b505050505b60a08501516000901561158857600354608087015160a08801516040808a015160208b0151915163f3ec823d60e01b81526001600160a01b039485166004820152602481019390935260448301521515606482015291169063f3ec823d90608401602060405180830381865afa158015611561573d6000803e3d6000fd5b505050506040513d601f19601f820116820180604052508101906115859190613624565b90505b6101008501819052600061159e87878487611e5b565b60085460208901516040516334f32e2560e01b815230600482015290151560248201529192506000916001600160a01b03909116906334f32e2590604401602060405180830381865afa1580156115f9573d6000803e3d6000fd5b505050506040513d601f19601f8201168201806040525081019061161d9190613624565b905060008260400151118015611637575060008260800151135b156116e457600354608089810151908401516040808c015160208d0151915163f115e8b560e01b81526001600160a01b039485166004820152602481019390935260006044840152606483015260848201859052151560a482015291169063f115e8b59060c401610180604051808303816000875af11580156116be573d6000803e3d6000fd5b505050506040513d601f19601f820116820180604052508101906116e29190613533565b505b600c5460a0890151600480546040805163313ce56760e01b815290516001600160a01b039586169563e108262f9561176b9590949091169263313ce56792818301926020928290030181865afa158015611742573d6000803e3d6000fd5b505050506040513d601f19601f820116820180604052508101906117669190613b9b565b61212a565b6040518263ffffffff1660e01b815260040161178991815260200190565b600060405180830381600087803b1580156117a357600080fd5b505af11580156117b7573d6000803e3d6000fd5b505060035460808b015160c086015160a08d015160208e015160405163e62c0edf60e01b81526001600160a01b039485166004820152602481019390935260448301919091526064820187905215156084820152600094509116915063e62c0edf9060a401610180604051808303816000875af115801561183c573d6000803e3d6000fd5b505050506040513d601f19601f820116820180604052508101906118609190613533565b90506118746000546001600160a01b031690565b608082015160a083015160405163056b460360e31b8152600481019290925260248201526001600160a01b039190911690632b5a30189060440160006040518083038186803b1580156118c657600080fd5b505afa1580156118da573d6000803e3d6000fd5b505050506118f1888a61216190919063ffffffff16565b156119085761190889608001518a6020015161086f565b6040805160c0810182528a815260208082018b90528183018990526004546001600160a01b03908116606084015260025416608083015260a08681015190830152601280548451818402810184019095528085526119bc94620a2c2a93909291908301828280156119a257602002820191906000526020600020905b81546001600160a01b03168152600190910190602001808311611984575b50506004546001600160a01b0316925030915061219b9050565b505050505050505050565b60008160600151826101200151604051602001611a0f92919060609290921b6bffffffffffffffffffffffff1916825260c01b6001600160c01b0319166014820152601c0190565b604051602081830303815290604052805190602001209050919050565b60006001600160ff1b03821115611a965760405162461bcd60e51b815260206004820152602860248201527f53616665436173743a2076616c756520646f65736e27742066697420696e2061604482015267371034b73a191a9b60c11b606482015260840161056d565b5090565b6040516370a0823160e01b81526001600160a01b038281166004830152600091908416906370a0823190602401602060405180830381865afa158015611ae4573d6000803e3d6000fd5b505050506040513d601f19601f82011682018060405250810190611b089190613624565b905060005b8451811015611c1e57848181518110611b2857611b286134e5565b60200260200101516001600160a01b031663612c39b76040518163ffffffff1660e01b8152600401606060405180830381865afa158015611b6d573d6000803e3d6000fd5b505050506040513d601f19601f82011682018060405250810190611b919190613bb8565b6040015115611c0c57848181518110611bac57611bac6134e5565b60200260200101516001600160a01b031663718cb58a886040518263ffffffff1660e01b8152600401611bdf9190613c29565b600060405180830381600087803b158015611bf957600080fd5b505af1925050508015611c0a575060015b505b80611c168161389d565b915050611b0d565b506040516370a0823160e01b81526001600160a01b038381166004830152600091908516906370a0823190602401602060405180830381865afa158015611c69573d6000803e3d6000fd5b505050506040513d601f19601f82011682018060405250810190611c8d9190613624565b9050818114611cde5760405162461bcd60e51b815260206004820152601b60248201527f455243323020746f6b656e2062616c616e6365206368616e6765640000000000604482015260640161056d565b50505050505050565b6000611cf28361231c565b15611d0e575060e08201516001600160801b03168110156105e4565b5060e08201516001600160801b03168111156105e4565b60008115611d425750608082015165ffffffffffff1615156105e4565b505061010001516001600160801b0316151590565b60408051600480825260a0820190925290602082016080803683375050506101c08301521515606090910152565b600080836001600160a01b0316638749694a6040518163ffffffff1660e01b81526004016040805180830381865afa158015611dc5573d6000803e3d6000fd5b505050506040513d601f19601f82011682018060405250810190611de99190613db6565b60405163c6f83ad160e01b8152306004820152602481018390526044810182905291935091506001600160a01b0384169063c6f83ad190606401600060405180830381600087803b158015611e3d57600080fd5b505af1158015611e51573d6000803e3d6000fd5b5050505050505050565b611e9b6040518060e00160405280600081526020016000815260200160008152602001600081526020016000815260200160008152602001600081525090565b611ea7858585856123a5565b90506000611ec2611ebb8660a00151611a2c565b858561251e565b60045483519192506001600160a01b0316908190600090611f4f90821315611efd578551611ef890611ef390613dda565b6125ce565b611f08565b8551611f08906125ce565b600480546040805163313ce56760e01b815290516001600160a01b039092169263313ce5679282820192602092908290030181865afa158015611742573d6000803e3d6000fd5b905060008560000151126120455760085460405163095ea7b360e01b81526001600160a01b039182166004820152602481018390529083169063095ea7b3906044016020604051808303816000875af1158015611fb0573d6000803e3d6000fd5b505050506040513d601f19601f82011682018060405250810190611fd49190613df6565b5060085460808a01516040516312cd59c560e31b81526001600160a01b039092169163966ace289161200e9187908b908a90600401613e13565b600060405180830381600087803b15801561202857600080fd5b505af115801561203c573d6000803e3d6000fd5b505050506120b1565b60085460808a0151604051631a6ca80960e01b81526001600160a01b0390921691631a6ca8099161207e9187908b908790600401613e13565b600060405180830381600087803b15801561209857600080fd5b505af11580156120ac573d6000803e3d6000fd5b505050505b6000856020015113156120d1576120cc828660200151612620565b6120fe565b6120fe833087602001516120e490613dda565b601354600c5460ff909116906001600160a01b0316612713565b60008560600151131561211e5761211e838a6080015187606001516127ed565b50505050949350505050565b60006121386012600a613f34565b61214660ff8416600a613f43565b61215090856138b6565b61215a91906138cd565b9392505050565b600082610120015160ff166001141580612184575082610120015160ff16600214155b801561215a5750506080015160a090910151141590565b6040516370a0823160e01b81526001600160a01b038281166004830152600091908416906370a0823190602401602060405180830381865afa1580156121e5573d6000803e3d6000fd5b505050506040513d601f19601f820116820180604052508101906122099190613624565b905060005b8451811015611c1e57848181518110612229576122296134e5565b60200260200101516001600160a01b031663612c39b76040518163ffffffff1660e01b8152600401606060405180830381865afa15801561226e573d6000803e3d6000fd5b505050506040513d601f19601f820116820180604052508101906122929190613bb8565b511561230a578481815181106122aa576122aa6134e5565b60200260200101516001600160a01b03166340a542fe886040518263ffffffff1660e01b81526004016122dd9190613f4f565b600060405180830381600087803b1580156122f757600080fd5b505af1925050508015612308575060015b505b806123148161389d565b91505061220e565b6000816040015160ff166000036123755760405162461bcd60e51b815260206004820152601b60248201527f696e76616c6964206f7264657220747269676765722061626f76650000000000604482015260640161056d565b600282604001516123869190613fd4565b60ff1660010361239857506001919050565b506000919050565b919050565b6123e56040518060e00160405280600081526020016000815260200160008152602001600081526020016000815260200160008152602001600081525090565b6000806123f184612857565b9150915060006124008261295c565b9050600083131561242857828760a00181815161241d9190613ff6565b905250608084018390525b826124348888846129a8565b61243e9190614009565b845260a08701516124589061245290611a2c565b87612a0a565b602085015261246988888884612a32565b604085015261247a88888884612b22565b606085015260a08801516080880151036124b757612497836125ce565b8760a0018181516124a89190614030565b90525060a08701516101808901525b83604001518760a001516124cb9190614030565b60c085015260a08801516080880151146125005783608001516124f18560c00151611a2c565b6124fb9190614009565b61250d565b61250d8760a00151611a2c565b60a085015250919695505050505050565b60008082600260ff1681518110612537576125376134e5565b6020026020010151905060008486856001600c811115612559576125596137e4565b60ff168151811061256c5761256c6134e5565b602002602001015161257d90613dda565b6125879190614043565b6125919190614043565b90506000821380156125a257508082135b156125c5576125b2816000612c14565b6125bc9083614009565b9250505061215a565b50509392505050565b600080821215611a965760405162461bcd60e51b815260206004820181905260248201527f53616665436173743a2076616c7565206d75737420626520706f736974697665604482015260640161056d565b60135461263190829060ff1661212a565b600c5460405163095ea7b360e01b81526001600160a01b0391821660048201526024810183905291925083169063095ea7b3906044016020604051808303816000875af1158015612686573d6000803e3d6000fd5b505050506040513d601f19601f820116820180604052508101906126aa9190613df6565b50600c546040516344d38fd560e11b8152306004820152602481018390526001600160a01b03909116906389a71faa90604401600060405180830381600087803b1580156126f757600080fd5b505af115801561270b573d6000803e3d6000fd5b505050505050565b6001600160a01b0384166127695760405162461bcd60e51b815260206004820152601a60248201527f7661756c7457697468647261773a21757365724163636f756e74000000000000604482015260640161056d565b60008313156127e657806001600160a01b031663da8ddc748561278c868661212a565b6040516001600160e01b031960e085901b1681526001600160a01b0390921660048301526024820152604401600060405180830381600087803b1580156127d257600080fd5b505af11580156119bc573d6000803e3d6000fd5b5050505050565b806000036127fa57505050565b600083905061284182856001600160a01b031663313ce5676040518163ffffffff1660e01b8152600401602060405180830381865afa158015611742573d6000803e3d6000fd5b91506105d06001600160a01b0382168484612c23565b600060608183600260ff1681518110612872576128726134e5565b602002602001015190506000811261288d5750600093915050565b83516001600160401b038111156128a6576128a6612ee4565b6040519080825280602002602001820160405280156128cf578160200160208202803683370190505b50915060005b8451811015612927578481815181106128f0576128f06134e5565b602002602001015183828151811061290a5761290a6134e5565b60209081029190910101528061291f8161389d565b9150506128d5565b50600082600260ff1681518110612940576129406134e5565b602090810291909101015261295481613dda565b925050915091565b6000805b82518110156129a25782818151811061297b5761297b6134e5565b60200260200101518261298e9190614043565b91508061299a8161389d565b915050612960565b50919050565b600080836129b98660a00151611a2c565b6129c39190614043565b905060008312156129e757604051630d56a7db60e01b815260040160405180910390fd5b6000811315612a02576129fa8184612c7a565b91505061215a565b509392505050565b600080612a178385614043565b1315612a2b57612a2682613dda565b61215a565b5090919050565b60a08401516080840151600091148015612a525760a08501516101808701525b600086610120015160ff161180612a665750805b15612a755760009150506110e8565b60008385612a868860a00151611a2c565b612a909190614043565b612a9a9190614009565b13612aa95760009150506110e8565b60008385612abb896101800151611a2c565b612ac59190614043565b612acf9190614009565b1215612b0357612afb8385612ae78860a00151611a2c565b612af19190614043565b611ef39190614009565b9150506110e8565b8561018001518560a00151612b189190614030565b9695505050505050565b60a08401516080840151600091148015612b425760a08501516101808701525b60008385612b538860a00151611a2c565b612b5d9190614043565b612b679190614009565b13612b765760009150506110e8565b60008385612b88896101800151611a2c565b612b929190614043565b612b9c9190614009565b1315612bc6578284612bb2886101800151611a2c565b612bbc9190614043565b612afb9190614009565b60008385612bd8896101800151611a2c565b612be29190614043565b612bec9190614009565b13612bfb5760009150506110e8565b83612c0a876101800151611a2c565b612b189190614043565b6000818313612a2b578161215a565b604080516001600160a01b038416602482015260448082018490528251808303909101815260649091019091526020810180516001600160e01b031663a9059cbb60e01b179052612c75908490612c89565b505050565b6000818312612a2b578161215a565b6000612cde826040518060400160405280602081526020017f5361666545524332303a206c6f772d6c6576656c2063616c6c206661696c6564815250856001600160a01b0316612d5e9092919063ffffffff16565b9050805160001480612cff575080806020019051810190612cff9190613df6565b612c755760405162461bcd60e51b815260206004820152602a60248201527f5361666545524332303a204552433230206f7065726174696f6e20646964206e6044820152691bdd081cdd58d8d9595960b21b606482015260840161056d565b60606110e8848460008585600080866001600160a01b03168587604051612d85919061406b565b60006040518083038185875af1925050503d8060008114612dc2576040519150601f19603f3d011682016040523d82523d6000602084013e612dc7565b606091505b5091509150612dd887838387612de3565b979650505050505050565b60608315612e52578251600003612e4b576001600160a01b0385163b612e4b5760405162461bcd60e51b815260206004820152601d60248201527f416464726573733a2063616c6c20746f206e6f6e2d636f6e7472616374000000604482015260640161056d565b50816110e8565b6110e88383815115612e675781518083602001fd5b8060405162461bcd60e51b815260040161056d9190612ed1565b60005b83811015612e9c578181015183820152602001612e84565b50506000910152565b60008151808452612ebd816020860160208601612e81565b601f01601f19169290920160200192915050565b60208152600061215a6020830184612ea5565b634e487b7160e01b600052604160045260246000fd5b6040516101e081016001600160401b0381118282101715612f1d57612f1d612ee4565b60405290565b6040516101a081016001600160401b0381118282101715612f1d57612f1d612ee4565b60405161018081016001600160401b0381118282101715612f1d57612f1d612ee4565b604051601f8201601f191681016001600160401b0381118282101715612f9157612f91612ee4565b604052919050565b60ff8116811461042657600080fd5b80356123a081612f99565b63ffffffff8116811461042657600080fd5b80356123a081612fb3565b6001600160a01b038116811461042657600080fd5b80356123a081612fd0565b65ffffffffffff8116811461042657600080fd5b80356123a081612ff0565b6001600160801b038116811461042657600080fd5b80356123a08161300f565b6001600160401b038116811461042657600080fd5b80356123a08161302f565b801515811461042657600080fd5b80356123a08161304f565b60006001600160401b0382111561308157613081612ee4565b5060051b60200190565b600082601f83011261309c57600080fd5b813560206130b16130ac83613068565b612f69565b82815260059290921b840181019181810190868411156130d057600080fd5b8286015b848110156130eb57803583529183019183016130d4565b509695505050505050565b60006101e0828403121561310957600080fd5b613111612efa565b905061311c82612fe5565b815261312a6020830161305d565b6020820152604082013560408201526131456060830161305d565b606082015261315660808301612fe5565b608082015260a082013560a082015260c082013560c082015260e082013560e082015261010061318781840161305d565b90820152610120613199838201612fa8565b908201526101406131ab838201613044565b90820152610160828101359082015261018080830135908201526101a06131d3818401612fa8565b908201526101c0828101356001600160401b038111156131f257600080fd5b6131fe8582860161308b565b82840152505092915050565b6000808284036101c081121561321f57600080fd5b6101a08082121561322f57600080fd5b613237612f23565b915061324285612fa8565b825261325060208601612fc5565b602083015261326160408601612fa8565b604083015261327260608601612fe5565b606083015261328360808601613004565b608083015261329460a08601613024565b60a08301526132a560c08601613024565b60c08301526132b660e08601613024565b60e08301526101006132c9818701613024565b908301526101206132db868201613044565b908301526101406132ed868201613044565b908301526101606132ff868201613024565b9083015261018085810135908301529092508301356001600160401b0381111561332857600080fd5b613334858286016130f6565b9150509250929050565b6000806040838503121561335157600080fd5b82356001600160401b0381111561336757600080fd5b8301601f8101851361337857600080fd5b803560206133886130ac83613068565b82815260059290921b830181019181810190888411156133a757600080fd5b938201935b838510156133ce5784356133bf81612fd0565b825293820193908201906133ac565b95506133dd905086820161305d565b93505050509250929050565b600080604083850312156133fc57600080fd5b82359150602083013561340e81612fd0565b809150509250929050565b60006020828403121561342b57600080fd5b813561215a81612fd0565b6000806040838503121561344957600080fd5b82356134548161304f565b9150602083013561340e8161304f565b60006020828403121561347657600080fd5b81356001600160401b0381111561348c57600080fd5b6110e8848285016130f6565b6000602082840312156134aa57600080fd5b5035919050565b600181811c908216806134c557607f821691505b6020821081036129a257634e487b7160e01b600052602260045260246000fd5b634e487b7160e01b600052603260045260246000fd5b80516123a081612fd0565b80516123a08161304f565b80516123a081612fb3565b80516001600160d81b03811681146123a057600080fd5b6000610180828403121561354657600080fd5b61354e612f46565b613557836134fb565b815261356560208401613506565b602082015261357660408401613511565b60408201526135876060840161351c565b60608201526080838101519082015260a0808401519082015260c0808401519082015260e08084015190820152610100808401519082015261012080840151908201526101408084015190820152610160928301519281019290925250919050565b6001600160a01b039687168152948616602086015292151560408501529084166060840152909216608082015260a081019190915260c00190565b60006020828403121561363657600080fd5b5051919050565b80516123a081612f99565b80516123a081612ff0565b80516123a08161300f565b80516123a08161302f565b6000602080838503121561367c57600080fd5b82516001600160401b0381111561369257600080fd5b8301601f810185136136a357600080fd5b80516136b16130ac82613068565b8181526101a091820283018401918482019190888411156136d157600080fd5b938501935b838510156137d85780858a0312156136ee5760008081fd5b6136f6612f23565b6136ff8661363d565b815261370c878701613511565b87820152604061371d81880161363d565b90820152606061372e8782016134fb565b90820152608061373f878201613648565b9082015260a0613750878201613653565b9082015260c0613761878201613653565b9082015260e0613772878201613653565b90820152610100613784878201613653565b9082015261012061379687820161365e565b908201526101406137a887820161365e565b908201526101606137ba878201613653565b908201526101808681015190820152835293840193918501916136d6565b50979650505050505050565b634e487b7160e01b600052602160045260246000fd5b634e487b7160e01b600052601160045260246000fd5b80820260008212600160ff1b8414161561382c5761382c6137fa565b81810583148215176105e4576105e46137fa565b634e487b7160e01b600052601260045260246000fd5b60008261386557613865613840565b600160ff1b82146000198414161561387f5761387f6137fa565b500590565b60ff81811683821601908111156105e4576105e46137fa565b6000600182016138af576138af6137fa565b5060010190565b80820281158282048414176105e4576105e46137fa565b6000826138dc576138dc613840565b500490565b600081518084526020808501945080840160005b83811015613911578151875295820195908201906001016138f5565b509495945050505050565b80516001600160a01b0316825260006101e06020830151613941602086018215159052565b5060408301516040850152606083015161395f606086018215159052565b50608083015161397a60808601826001600160a01b03169052565b5060a083015160a085015260c083015160c085015260e083015160e0850152610100808401516139ad8287018215159052565b50506101208381015160ff90811691860191909152610140808501516001600160401b031690860152610160808501519086015261018080850151908601526101a080850151909116908501526101c080840151818601839052612b18838701826138e1565b80516001600160a01b031682526020810151613a33602084018215159052565b506040810151613a4b604084018263ffffffff169052565b506060810151613a6660608401826001600160d81b03169052565b506080818101519083015260a0808201519083015260c0808201519083015260e0808201519083015261010080820151908301526101208082015190830152610140808201519083015261016090810151910152565b60006101a0808352613ad08184018661391c565b91505061215a6020830184613a13565b60006020808385031215613af357600080fd5b82516001600160401b03811115613b0957600080fd5b8301601f81018513613b1a57600080fd5b8051613b286130ac82613068565b81815260059190911b82018301908381019087831115613b4757600080fd5b928401925b82841015612dd857835182529284019290840190613b4c565b60006101c0808352613b798184018761391c565b9050613b886020840186613a13565b8281036101a0840152612b1881856138e1565b600060208284031215613bad57600080fd5b815161215a81612f99565b600060608284031215613bca57600080fd5b604051606081018181106001600160401b0382111715613bec57613bec612ee4565b6040528251613bfa8161304f565b81526020830151613c0a8161304f565b60208201526040830151613c1d8161304f565b60408201529392505050565b6020815260008251613c4160208401825160ff169052565b602081015163ffffffff8116604085015250604081015160ff811660608501525060608101516001600160a01b038116608085015250608081015165ffffffffffff811660a08501525060a08101516001600160801b03811660c08501525060c08101516001600160801b03811660e08501525060e0810151610100613cd1818601836001600160801b03169052565b8201519050610120613ced858201836001600160801b03169052565b8201519050610140613d09858201836001600160401b03169052565b8201519050610160613d25858201836001600160401b03169052565b8201519050610180613d41858201836001600160801b03169052565b808301516101a08601525050506020830151610220806101c0850152613d6b61024085018361391c565b91506040850151613d826101e086018260ff169052565b506060850151848303601f1901610200860152613d9f8382612ea5565b925050608085015181850152508091505092915050565b60008060408385031215613dc957600080fd5b505080516020909101519092909150565b6000600160ff1b8201613def57613def6137fa565b5060000390565b600060208284031215613e0857600080fd5b815161215a8161304f565b6001600160a01b03858116825284166020820152608060408201819052600090613e3f908301856138e1565b905082606083015295945050505050565b600181815b80851115613e8b578160001904821115613e7157613e716137fa565b80851615613e7e57918102915b93841c9390800290613e55565b509250929050565b600082613ea2575060016105e4565b81613eaf575060006105e4565b8160018114613ec55760028114613ecf57613eeb565b60019150506105e4565b60ff841115613ee057613ee06137fa565b50506001821b6105e4565b5060208310610133831016604e8410600b8410161715613f0e575081810a6105e4565b613f188383613e50565b8060001904821115613f2c57613f2c6137fa565b029392505050565b600061215a60ff841683613e93565b600061215a8383613e93565b6020815260008251610220806020850152613f6e61024085018361391c565b91506020850151613f826040860182613a13565b506040850151848303601f19016101c0860152613f9f83826138e1565b60608701516001600160a01b039081166101e088015260808801511661020087015260a0909601519190940152509192915050565b600060ff831680613fe757613fe7613840565b8060ff84160691505092915050565b808201808211156105e4576105e46137fa565b8181036000831280158383131683831282161715614029576140296137fa565b5092915050565b818103818111156105e4576105e46137fa565b8082018281126000831280158216821582161715614063576140636137fa565b505092915050565b6000825161407d818460208701612e81565b919091019291505056fea2646970667358221220a0e652d0c00008d7c1a1114a00af700633a2712a2dbd3b1da4923c4f1d147ca464736f6c63430008110033",
  "linkReferences": {},
  "deployedLinkReferences": {}
}