{
  "_format": "hh-sol-artifact-1",
  "contractName": "MarketReader",
  "sourceName": "contracts/market/MarketReader.sol",
  "abi": [
    {
      "inputs": [
        {
          "internalType": "address",
          "name": "_f",
          "type": "address"
        }
      ],
      "stateMutability": "nonpayable",
      "type": "constructor"
    },
    {
      "anonymous": false,
      "inputs": [
        {
          "indexed": false,
          "internalType": "uint8",
          "name": "version",
          "type": "uint8"
        }
      ],
      "name": "Initialized",
      "type": "event"
    },
    {
      "inputs": [],
      "name": "DEFAULT_ADMIN_ROLE",
      "outputs": [
        {
          "internalType": "bytes32",
          "name": "",
          "type": "bytes32"
        }
      ],
      "stateMutability": "view",
      "type": "function"
    },
    {
      "inputs": [
        {
          "internalType": "address",
          "name": "newOwner",
          "type": "address"
        }
      ],
      "name": "_transferOwnership",
      "outputs": [],
      "stateMutability": "pure",
      "type": "function"
    },
    {
      "inputs": [
        {
          "internalType": "address",
          "name": "market",
          "type": "address"
        },
        {
          "internalType": "address",
          "name": "account",
          "type": "address"
        },
        {
          "internalType": "bool",
          "name": "isLong",
          "type": "bool"
        }
      ],
      "name": "availableLiquidity",
      "outputs": [
        {
          "internalType": "uint256",
          "name": "",
          "type": "uint256"
        }
      ],
      "stateMutability": "view",
      "type": "function"
    },
    {
      "inputs": [],
      "name": "fac",
      "outputs": [
        {
          "internalType": "contract IMarketFactory",
          "name": "",
          "type": "address"
        }
      ],
      "stateMutability": "view",
      "type": "function"
    },
    {
      "inputs": [
        {
          "internalType": "address",
          "name": "account",
          "type": "address"
        },
        {
          "internalType": "address",
          "name": "market",
          "type": "address"
        },
        {
          "internalType": "bool",
          "name": "isLong",
          "type": "bool"
        }
      ],
      "name": "getFundingFee",
      "outputs": [
        {
          "internalType": "int256",
          "name": "",
          "type": "int256"
        }
      ],
      "stateMutability": "view",
      "type": "function"
    },
    {
      "inputs": [
        {
          "internalType": "address",
          "name": "_market",
          "type": "address"
        },
        {
          "internalType": "bool",
          "name": "_isLong",
          "type": "bool"
        }
      ],
      "name": "getFundingRate",
      "outputs": [
        {
          "internalType": "int256",
          "name": "",
          "type": "int256"
        },
        {
          "internalType": "int256",
          "name": "",
          "type": "int256"
        }
      ],
      "stateMutability": "view",
      "type": "function"
    },
    {
      "inputs": [
        {
          "internalType": "address",
          "name": "_marketAddr",
          "type": "address"
        }
      ],
      "name": "getMarket",
      "outputs": [
        {
          "components": [
            {
              "internalType": "uint256",
              "name": "minSlippage",
              "type": "uint256"
            },
            {
              "internalType": "uint256",
              "name": "maxSlippage",
              "type": "uint256"
            },
            {
              "internalType": "uint256",
              "name": "slippageDigits",
              "type": "uint256"
            },
            {
              "internalType": "uint256",
              "name": "minLev",
              "type": "uint256"
            },
            {
              "internalType": "uint256",
              "name": "maxLev",
              "type": "uint256"
            },
            {
              "internalType": "uint256",
              "name": "minCollateral",
              "type": "uint256"
            },
            {
              "internalType": "uint256",
              "name": "maxTradeAmount",
              "type": "uint256"
            },
            {
              "internalType": "bool",
              "name": "allowOpen",
              "type": "bool"
            },
            {
              "internalType": "bool",
              "name": "allowClose",
              "type": "bool"
            }
          ],
          "internalType": "struct IMarketReader.ValidOuts",
          "name": "validOuts",
          "type": "tuple"
        },
        {
          "components": [
            {
              "internalType": "uint256",
              "name": "tokenDigits",
              "type": "uint256"
            },
            {
              "internalType": "uint256",
              "name": "closeFeeRate",
              "type": "uint256"
            },
            {
              "internalType": "uint256",
              "name": "openFeeRate",
              "type": "uint256"
            },
            {
              "internalType": "uint256",
              "name": "liquidationFeeUsd",
              "type": "uint256"
            },
            {
              "internalType": "uint256",
              "name": "spread",
              "type": "uint256"
            },
            {
              "internalType": "address",
              "name": "indexToken",
              "type": "address"
            },
            {
              "internalType": "address",
              "name": "collateralToken",
              "type": "address"
            },
            {
              "internalType": "address",
              "name": "orderBookLong",
              "type": "address"
            },
            {
              "internalType": "address",
              "name": "orderBookShort",
              "type": "address"
            },
            {
              "internalType": "address",
              "name": "positionBook",
              "type": "address"
            }
          ],
          "internalType": "struct IMarketReader.MarketOuts",
          "name": "mktOuts",
          "type": "tuple"
        },
        {
          "components": [
            {
              "internalType": "uint256",
              "name": "closeFeeRate",
              "type": "uint256"
            },
            {
              "internalType": "uint256",
              "name": "openFeeRate",
              "type": "uint256"
            },
            {
              "internalType": "uint256",
              "name": "execFee",
              "type": "uint256"
            },
            {
              "internalType": "uint256",
              "name": "liquidateFee",
              "type": "uint256"
            },
            {
              "internalType": "uint256",
              "name": "digits",
              "type": "uint256"
            }
          ],
          "internalType": "struct IMarketReader.FeeOuts",
          "name": "feeOuts",
          "type": "tuple"
        }
      ],
      "stateMutability": "view",
      "type": "function"
    },
    {
      "inputs": [],
      "name": "getMarkets",
      "outputs": [
        {
          "components": [
            {
              "internalType": "string",
              "name": "name",
              "type": "string"
            },
            {
              "internalType": "address",
              "name": "addr",
              "type": "address"
            },
            {
              "internalType": "uint256",
              "name": "minPay",
              "type": "uint256"
            },
            {
              "internalType": "bool",
              "name": "allowOpen",
              "type": "bool"
            },
            {
              "internalType": "bool",
              "name": "allowClose",
              "type": "bool"
            }
          ],
          "internalType": "struct IMarketFactory.Outs[]",
          "name": "_outs",
          "type": "tuple[]"
        }
      ],
      "stateMutability": "view",
      "type": "function"
    },
    {
      "inputs": [
        {
          "internalType": "address",
          "name": "account",
          "type": "address"
        },
        {
          "internalType": "address",
          "name": "market",
          "type": "address"
        }
      ],
      "name": "getPositions",
      "outputs": [
        {
          "components": [
            {
              "internalType": "address",
              "name": "market",
              "type": "address"
            },
            {
              "internalType": "bool",
              "name": "isLong",
              "type": "bool"
            },
            {
              "internalType": "uint32",
              "name": "lastTime",
              "type": "uint32"
            },
            {
              "internalType": "uint216",
              "name": "extra3",
              "type": "uint216"
            },
            {
              "internalType": "uint256",
              "name": "size",
              "type": "uint256"
            },
            {
              "internalType": "uint256",
              "name": "collateral",
              "type": "uint256"
            },
            {
              "internalType": "uint256",
              "name": "averagePrice",
              "type": "uint256"
            },
            {
              "internalType": "int256",
              "name": "entryFundingRate",
              "type": "int256"
            },
            {
              "internalType": "int256",
              "name": "realisedPnl",
              "type": "int256"
            },
            {
              "internalType": "uint256",
              "name": "extra0",
              "type": "uint256"
            },
            {
              "internalType": "uint256",
              "name": "extra1",
              "type": "uint256"
            },
            {
              "internalType": "uint256",
              "name": "extra2",
              "type": "uint256"
            }
          ],
          "internalType": "struct Position.Props[]",
          "name": "_positions",
          "type": "tuple[]"
        }
      ],
      "stateMutability": "view",
      "type": "function"
    },
    {
      "inputs": [
        {
          "internalType": "address",
          "name": "_account",
          "type": "address"
        }
      ],
      "name": "grantControllerRoleByMarketManager",
      "outputs": [],
      "stateMutability": "nonpayable",
      "type": "function"
    },
    {
      "inputs": [
        {
          "internalType": "bytes32",
          "name": "role",
          "type": "bytes32"
        },
        {
          "internalType": "address",
          "name": "account",
          "type": "address"
        }
      ],
      "name": "grantRole",
      "outputs": [],
      "stateMutability": "pure",
      "type": "function"
    },
    {
      "inputs": [
        {
          "internalType": "bytes32",
          "name": "role",
          "type": "bytes32"
        },
        {
          "internalType": "address",
          "name": "account",
          "type": "address"
        }
      ],
      "name": "hasRole",
      "outputs": [
        {
          "internalType": "bool",
          "name": "",
          "type": "bool"
        }
      ],
      "stateMutability": "pure",
      "type": "function"
    },
    {
      "inputs": [
        {
          "internalType": "address",
          "name": "_marketRouter",
          "type": "address"
        },
        {
          "internalType": "address",
          "name": "_vaultRouter",
          "type": "address"
        }
      ],
      "name": "initialize",
      "outputs": [],
      "stateMutability": "nonpayable",
      "type": "function"
    },
    {
      "inputs": [
        {
          "internalType": "address",
          "name": "market",
          "type": "address"
        },
        {
          "internalType": "address",
          "name": "_account",
          "type": "address"
        },
        {
          "internalType": "bool",
          "name": "_isLong",
          "type": "bool"
        }
      ],
      "name": "isLiquidate",
      "outputs": [
        {
          "internalType": "uint256",
          "name": "_state",
          "type": "uint256"
        }
      ],
      "stateMutability": "view",
      "type": "function"
    },
    {
      "inputs": [],
      "name": "marketRouter",
      "outputs": [
        {
          "internalType": "contract IMarketRouter",
          "name": "",
          "type": "address"
        }
      ],
      "stateMutability": "view",
      "type": "function"
    },
    {
      "inputs": [
        {
          "internalType": "bytes32",
          "name": "role",
          "type": "bytes32"
        },
        {
          "internalType": "address",
          "name": "account",
          "type": "address"
        }
      ],
      "name": "revokeRole",
      "outputs": [],
      "stateMutability": "pure",
      "type": "function"
    },
    {
      "inputs": [
        {
          "internalType": "address",
          "name": "to",
          "type": "address"
        }
      ],
      "name": "transferAdmin",
      "outputs": [],
      "stateMutability": "nonpayable",
      "type": "function"
    },
    {
      "inputs": [
        {
          "internalType": "address",
          "name": "newOwner",
          "type": "address"
        }
      ],
      "name": "transferOwnership",
      "outputs": [],
      "stateMutability": "pure",
      "type": "function"
    },
    {
      "inputs": [],
      "name": "vaultRouter",
      "outputs": [
        {
          "internalType": "contract IVaultRouter",
          "name": "",
          "type": "address"
        }
      ],
      "stateMutability": "view",
      "type": "function"
    }
  ],
  "bytecode": "0x60806040523480156200001157600080fd5b5060405162002c7d38038062002c7d833981016040819052620000349162000081565b806200004b816200007260201b62001d731760201c565b50600480546001600160a01b0319166001600160a01b0392909216919091179055620000b3565b426001556200007e3381565b50565b6000602082840312156200009457600080fd5b81516001600160a01b0381168114620000ac57600080fd5b9392505050565b612bba80620000c36000396000f3fe608060405234801561001057600080fd5b50600436106101215760003560e01c806391d14854116100ad578063d37c441c11610071578063d37c441c14610284578063d4dfadbf14610297578063d547741f14610174578063ec2c9016146102b9578063f2fde38b1461027357600080fd5b806391d1485414610207578063a217fddf1461022d578063c3b3147214610235578063d12dbde414610260578063d29d44ee1461027357600080fd5b8063735a2885116100f4578063735a28851461019b578063739118a4146101ae57806375829def146101ce5780637fe4a698146101e1578063889be285146101f457600080fd5b806320981df41461012657806323961001146101535780632f2ff15d14610174578063485cc95514610188575b600080fd5b610139610134366004611ebe565b6102ce565b604080519283526020830191909152015b60405180910390f35b610166610161366004611ef7565b610433565b60405190815260200161014a565b610186610182366004611f42565b5050565b005b610186610196366004611f67565b610752565b6101666101a9366004611ef7565b6108b7565b6101c16101bc366004611f67565b610e08565b60405161014a919061203e565b6101866101dc36600461208d565b611162565b6101866101ef36600461208d565b610281565b610166610202366004611ef7565b61116d565b61021d610215366004611f42565b600192915050565b604051901515815260200161014a565b610166600081565b600454610248906001600160a01b031681565b6040516001600160a01b03909116815260200161014a565b600254610248906001600160a01b031681565b61018661028136600461208d565b50565b600354610248906001600160a01b031681565b6102aa6102a536600461208d565b6113e6565b60405161014a9392919061214d565b6102c1611cf1565b60405161014a919061221e565b6000806000846001600160a01b031663f29ebf616040518163ffffffff1660e01b8152600401602060405180830381865afa158015610311573d6000803e3d6000fd5b505050506040513d601f19601f8201168201806040525081019061033591906122dc565b604051630826077d60e21b81526001600160a01b03878116600483015286151560248301529192506000918316906320981df490604401602060405180830381865afa158015610389573d6000803e3d6000fd5b505050506040513d601f19601f820116820180604052508101906103ad91906122f9565b6040516334f32e2560e01b81526001600160a01b03888116600483015287151560248301529192506000918416906334f32e2590604401602060405180830381865afa158015610401573d6000803e3d6000fd5b505050506040513d601f19601f8201168201806040525081019061042591906122f9565b919791965090945050505050565b6000808490506000816001600160a01b031663b894300d6040518163ffffffff1660e01b8152600401602060405180830381865afa158015610479573d6000803e3d6000fd5b505050506040513d601f19601f8201168201806040525081019061049d91906122dc565b9050806001600160a01b0316631f21756a868887866001600160a01b031663ac0b05a66040518163ffffffff1660e01b8152600401602060405180830381865afa1580156104ef573d6000803e3d6000fd5b505050506040513d601f19601f8201168201806040525081019061051391906122dc565b876001600160a01b031663f29ebf616040518163ffffffff1660e01b8152600401602060405180830381865afa158015610551573d6000803e3d6000fd5b505050506040513d601f19601f8201168201806040525081019061057591906122dc565b886001600160a01b031663741bef1a6040518163ffffffff1660e01b8152600401602060405180830381865afa1580156105b3573d6000803e3d6000fd5b505050506040513d601f19601f820116820180604052508101906105d791906122dc565b6001600160a01b03166376d697608a6001600160a01b031663e7d015f26040518163ffffffff1660e01b8152600401602060405180830381865afa158015610623573d6000803e3d6000fd5b505050506040513d601f19601f8201168201806040525081019061064791906122dc565b6040516001600160e01b031960e084901b1681526001600160a01b0390911660048201528d156024820152604401602060405180830381865afa158015610692573d6000803e3d6000fd5b505050506040513d601f19601f820116820180604052508101906106b691906122f9565b60405160e088901b6001600160e01b03191681526001600160a01b039687166004820152948616602486015292151560448501529084166064840152909216608482015260a481019190915260c401602060405180830381865afa158015610722573d6000803e3d6000fd5b505050506040513d601f19601f8201168201806040525081019061074691906122f9565b925050505b9392505050565b600054610100900460ff16158080156107725750600054600160ff909116105b8061078c5750303b15801561078c575060005460ff166001145b6107f35760405162461bcd60e51b815260206004820152602e60248201527f496e697469616c697a61626c653a20636f6e747261637420697320616c72656160448201526d191e481a5b9a5d1a585b1a5e995960921b606482015260840160405180910390fd5b6000805460ff191660011790558015610816576000805461ff0019166101001790555b6001600160a01b03831661082957600080fd5b6001600160a01b03821661083c57600080fd5b600280546001600160a01b038086166001600160a01b031992831617909255600380549285169290911691909117905580156108b2576000805461ff0019169055604051600181527f7f26b83ff96e1f2b6a682f133852f6798a09c465da95921460cefb38474024989060200160405180910390a15b505050565b600080846001600160a01b031663d37c441c6040518163ffffffff1660e01b8152600401602060405180830381865afa1580156108f8573d6000803e3d6000fd5b505050506040513d601f19601f8201168201806040525081019061091c91906122dc565b90506000816001600160a01b0316636dc7b0a16040518163ffffffff1660e01b8152600401602060405180830381865afa15801561095e573d6000803e3d6000fd5b505050506040513d601f19601f8201168201806040525081019061098291906122f9565b9050600081116109975760009250505061074b565b6000866001600160a01b031663ac0b05a66040518163ffffffff1660e01b8152600401602060405180830381865afa1580156109d7573d6000803e3d6000fd5b505050506040513d601f19601f820116820180604052508101906109fb91906122dc565b90506000876001600160a01b031663c54dc3d66040518163ffffffff1660e01b8152600401602060405180830381865afa158015610a3d573d6000803e3d6000fd5b505050506040513d601f19601f82011682018060405250810190610a6191906122dc565b9050610ac460405180610140016040528060006001600160a01b0316815260200160008152602001600015158152602001600081526020016000815260200160008152602001600081526020016000815260200160008152602001600081525090565b6001600160a01b03808a1682528715156040808401919091526000602084015280516343a4b4a560e11b8152815192861692638749694a926004808401939192918290030181865afa158015610b1e573d6000803e3d6000fd5b505050506040513d601f19601f82011682018060405250810190610b429190612322565b61010083015260e082015260025460405162b29b4b60e61b81526001600160a01b038a8116600483015290911690632ca6d2c0906024016040805180830381865afa158015610b95573d6000803e3d6000fd5b505050506040513d601f19601f82011682018060405250810190610bb99190612322565b60c083015260a082015260025460408051630799f55f60e01b815281516001600160a01b0390931692630799f55f926004808401939192918290030181865afa158015610c0a573d6000803e3d6000fd5b505050506040513d601f19601f82011682018060405250810190610c2e9190612322565b8260600183608001828152508281525050506000896001600160a01b031663b2016bd46040518163ffffffff1660e01b8152600401602060405180830381865afa158015610c80573d6000803e3d6000fd5b505050506040513d601f19601f82011682018060405250810190610ca491906122dc565b9050610d87600360009054906101000a90046001600160a01b03166001600160a01b0316636dc7b0a16040518163ffffffff1660e01b8152600401602060405180830381865afa158015610cfc573d6000803e3d6000fd5b505050506040513d601f19601f82011682018060405250810190610d2091906122f9565b826001600160a01b031663313ce5676040518163ffffffff1660e01b8152600401602060405180830381865afa158015610d5e573d6000803e3d6000fd5b505050506040513d601f19601f82011682018060405250810190610d829190612346565b611d7a565b610120830152604051638050e32f60e01b81526001600160a01b03841690638050e32f90610db9908590600401612369565b602060405180830381865afa158015610dd6573d6000803e3d6000fd5b505050506040513d601f19601f82011682018060405250810190610dfa91906122f9565b9a9950505050505050505050565b60606001600160a01b0382166110eb576000600460009054906101000a90046001600160a01b03166001600160a01b031663ec2c90166040518163ffffffff1660e01b8152600401600060405180830381865afa158015610e6d573d6000803e3d6000fd5b505050506040513d6000823e601f3d908101601f19168201604052610e9591908101906124ac565b905060008080805b8451811015610f5f57848181518110610eb857610eb8612626565b6020908102919091018101510151604051631f75a98760e11b81526001600160a01b038a81166004830152919550600091861690633eeb530e90602401600060405180830381865afa158015610f12573d6000803e3d6000fd5b505050506040513d6000823e601f3d908101601f19168201604052610f3a9190810190612720565b9050805183610f4991906127d1565b9250508080610f57906127e4565b915050610e9d565b5080600003610f71575050505061115c565b8067ffffffffffffffff811115610f8a57610f8a6123e9565b604051908082528060200260200182016040528015610fc357816020015b610fb0611e20565b815260200190600190039081610fa85790505b50945060005b84518110156110e157848181518110610fe457610fe4612626565b6020908102919091018101510151604051631f75a98760e11b81526001600160a01b038a81166004830152919550600091861690633eeb530e90602401600060405180830381865afa15801561103e573d6000803e3d6000fd5b505050506040513d6000823e601f3d908101601f191682016040526110669190810190612720565b905060005b81518110156110cc5781818151811061108657611086612626565b60200260200101518886815181106110a0576110a0612626565b602002602001018190525084806110b6906127e4565b95505080806110c4906127e4565b91505061106b565b505080806110d9906127e4565b915050610fc9565b505050505061115c565b604051631f75a98760e11b81526001600160a01b038481166004830152831690633eeb530e90602401600060405180830381865afa158015611131573d6000803e3d6000fd5b505050506040513d6000823e601f3d908101601f191682016040526111599190810190612720565b90505b92915050565b600061018260003382565b600080836001600160a01b031663ac0b05a66040518163ffffffff1660e01b8152600401602060405180830381865afa1580156111ae573d6000803e3d6000fd5b505050506040513d601f19601f820116820180604052508101906111d291906122dc565b90506111dc611e20565b60405163bc95baad60e01b81526001600160a01b03878116600483015260006024830152851515604483015283169063bc95baad9060640161018060405180830381865afa158015611232573d6000803e3d6000fd5b505050506040513d601f19601f8201168201806040525081019061125691906127fd565b90506000856001600160a01b031663f29ebf616040518163ffffffff1660e01b8152600401602060405180830381865afa158015611298573d6000803e3d6000fd5b505050506040513d601f19601f820116820180604052508101906112bc91906122dc565b604080516101e081018252600080825281830181905260608083018290526080830182905260a080840183905260c0840183905260e08401839052610100840183905261012084018390526101408401839052610160840183905261018084018381526101a085018490526101c08501929092528a1515602085015287015190526001600160a01b038a811683529251634151026360e01b8152939450909290918416906341510263906113769085908890600401612855565b600060405180830381865afa158015611393573d6000803e3d6000fd5b505050506040513d6000823e601f3d908101601f191682016040526113bb919081019061295d565b9050806002815181106113d0576113d0612626565b6020026020010151955050505050509392505050565b611439604051806101200160405280600081526020016000815260200160008152602001600081526020016000815260200160008152602001600081526020016000151581526020016000151581525090565b6040805161014081018252600080825260208201819052918101829052606081018290526080810182905260a0810182905260c0810182905260e0810182905261010081018290526101208101919091526114bc6040518060a0016040528060008152602001600081526020016000815260200160008152602001600081525090565b60008490506000816001600160a01b031663f29ebf616040518163ffffffff1660e01b8152600401602060405180830381865afa158015611501573d6000803e3d6000fd5b505050506040513d601f19601f8201168201806040525081019061152591906122dc565b90506000826001600160a01b031663b894300d6040518163ffffffff1660e01b8152600401602060405180830381865afa158015611567573d6000803e3d6000fd5b505050506040513d601f19601f8201168201806040525081019061158b91906122dc565b90506000816001600160a01b031663177927296040518163ffffffff1660e01b8152600401602060405180830381865afa1580156115cd573d6000803e3d6000fd5b505050506040513d601f19601f820116820180604052508101906115f191906129ee565b905060405180610120016040528061160b8351610fff1690565b81528251602090910190600c1c610fff16815260200161162c612710611da7565b8152825160181c610fff9081166020830152835160241c16604082015260600161165583611dcc565b815260200161166383611dea565b81526020016116788351600f606c1b16151590565b1515815260200161168f8351600f60681b16151590565b15158152509650604051806101400160405280856001600160a01b031663e84254676040518163ffffffff1660e01b8152600401602060405180830381865afa1580156116e0573d6000803e3d6000fd5b505050506040513d601f19601f820116820180604052508101906117049190612346565b60ff168152602001846001600160a01b031663d87780688b60016040518363ffffffff1660e01b815260040161173b929190612a30565b602060405180830381865afa158015611758573d6000803e3d6000fd5b505050506040513d601f19601f8201168201806040525081019061177c91906122f9565b8152602001846001600160a01b031663d87780688b60006040518363ffffffff1660e01b81526004016117b0929190612a30565b602060405180830381865afa1580156117cd573d6000803e3d6000fd5b505050506040513d601f19601f820116820180604052508101906117f191906122f9565b8152602001846001600160a01b031663d87780688b60046040518363ffffffff1660e01b8152600401611825929190612a30565b602060405180830381865afa158015611842573d6000803e3d6000fd5b505050506040513d601f19601f8201168201806040525081019061186691906122f9565b815260200160008152602001856001600160a01b031663e7d015f26040518163ffffffff1660e01b8152600401602060405180830381865afa1580156118b0573d6000803e3d6000fd5b505050506040513d601f19601f820116820180604052508101906118d491906122dc565b6001600160a01b03168152602001856001600160a01b031663b2016bd46040518163ffffffff1660e01b8152600401602060405180830381865afa158015611920573d6000803e3d6000fd5b505050506040513d601f19601f8201168201806040525081019061194491906122dc565b6001600160a01b03168152602001856001600160a01b0316637b2fd1e56040518163ffffffff1660e01b8152600401602060405180830381865afa158015611990573d6000803e3d6000fd5b505050506040513d601f19601f820116820180604052508101906119b491906122dc565b6001600160a01b03168152602001856001600160a01b03166305ba9ae96040518163ffffffff1660e01b8152600401602060405180830381865afa158015611a00573d6000803e3d6000fd5b505050506040513d601f19601f82011682018060405250810190611a2491906122dc565b6001600160a01b03168152602001856001600160a01b031663ac0b05a66040518163ffffffff1660e01b8152600401602060405180830381865afa158015611a70573d6000803e3d6000fd5b505050506040513d601f19601f82011682018060405250810190611a9491906122dc565b6001600160a01b039081169091526040805160a0810191829052631b0ef00d60e31b9091529197508190851663d8778068611ad48c600160a48601612a30565b602060405180830381865afa158015611af1573d6000803e3d6000fd5b505050506040513d601f19601f82011682018060405250810190611b1591906122f9565b8152602001846001600160a01b031663d87780688b60006040518363ffffffff1660e01b8152600401611b49929190612a30565b602060405180830381865afa158015611b66573d6000803e3d6000fd5b505050506040513d601f19601f82011682018060405250810190611b8a91906122f9565b8152602001846001600160a01b031663d87780688b60036040518363ffffffff1660e01b8152600401611bbe929190612a30565b602060405180830381865afa158015611bdb573d6000803e3d6000fd5b505050506040513d601f19601f82011682018060405250810190611bff91906122f9565b8152602001846001600160a01b031663d87780688b60046040518363ffffffff1660e01b8152600401611c33929190612a30565b602060405180830381865afa158015611c50573d6000803e3d6000fd5b505050506040513d601f19601f82011682018060405250810190611c7491906122f9565b8152602001611ce3856001600160a01b031663f4ca4d1d6040518163ffffffff1660e01b8152600401602060405180830381865afa158015611cba573d6000803e3d6000fd5b505050506040513d601f19601f82011682018060405250810190611cde91906122f9565b611da7565b905296989597505050505050565b6060600460009054906101000a90046001600160a01b03166001600160a01b031663ec2c90166040518163ffffffff1660e01b8152600401600060405180830381865afa158015611d46573d6000803e3d6000fd5b505050506040513d6000823e601f3d908101601f19168201604052611d6e91908101906124ac565b905090565b4260015550565b6000611d8782600a612b30565b611d936012600a612b3f565b611d9d9085612b4b565b6111599190612b62565b600060015b600190910190611dbd600a82612b4b565b9050828103611dac5750919050565b6000611dd782611e0a565b825161115c9190603c1c610fff16612b4b565b6000611df582611e0a565b825161115c919060481c63ffffffff16612b4b565b805160009061115c9060701c60ff16600a612b3f565b60405180610180016040528060006001600160a01b03168152602001600015158152602001600063ffffffff16815260200160006001600160d81b0316815260200160008152602001600081526020016000815260200160008152602001600081526020016000815260200160008152602001600081525090565b6001600160a01b038116811461028157600080fd5b801515811461028157600080fd5b60008060408385031215611ed157600080fd5b8235611edc81611e9b565b91506020830135611eec81611eb0565b809150509250929050565b600080600060608486031215611f0c57600080fd5b8335611f1781611e9b565b92506020840135611f2781611e9b565b91506040840135611f3781611eb0565b809150509250925092565b60008060408385031215611f5557600080fd5b823591506020830135611eec81611e9b565b60008060408385031215611f7a57600080fd5b8235611f8581611e9b565b91506020830135611eec81611e9b565b80516001600160a01b031682526020810151611fb5602084018215159052565b506040810151611fcd604084018263ffffffff169052565b506060810151611fe860608401826001600160d81b03169052565b506080818101519083015260a0808201519083015260c0808201519083015260e0808201519083015261010080820151908301526101208082015190830152610140808201519083015261016090810151910152565b6020808252825182820181905260009190848201906040850190845b818110156120815761206d838551611f95565b92840192610180929092019160010161205a565b50909695505050505050565b60006020828403121561209f57600080fd5b813561074b81611e9b565b805182526020810151602083015260408101516040830152606081015160608301526080810151608083015260a08101516120f060a08401826001600160a01b03169052565b5060c081015161210b60c08401826001600160a01b03169052565b5060e081015161212660e08401826001600160a01b03169052565b50610100818101516001600160a01b03908116918401919091526101209182015116910152565b600061030082019050845182526020850151602083015260408501516040830152606085015160608301526080850151608083015260a085015160a083015260c085015160c083015260e0850151151560e083015261010080860151151581840152506121be6101208301856120aa565b8251610260830152602083015161028083015260408301516102a083015260608301516102c083015260808301516102e0830152949350505050565b60005b838110156122155781810151838201526020016121fd565b50506000910152565b60006020808301818452808551808352604092508286019150828160051b87010184880160005b838110156122ce57603f19898403018552815160a081518186528051808388015260c09250612279818489018d85016121fa565b8a8401516001600160a01b0316878c0152898401518a8801526060808501511515908801526080938401511515938701939093525095880195601f909101601f19169093019092019190860190600101612245565b509098975050505050505050565b6000602082840312156122ee57600080fd5b815161074b81611e9b565b60006020828403121561230b57600080fd5b5051919050565b805161231d81611e9b565b919050565b6000806040838503121561233557600080fd5b505080516020909101519092909150565b60006020828403121561235857600080fd5b815160ff8116811461074b57600080fd5b81516001600160a01b031681526101408101602083015160208301526040830151612398604084018215159052565b50606083015160608301526080830151608083015260a083015160a083015260c083015160c083015260e083015160e083015261010080840151818401525061012080840151818401525092915050565b634e487b7160e01b600052604160045260246000fd5b60405160a0810167ffffffffffffffff81118282101715612422576124226123e9565b60405290565b604051610180810167ffffffffffffffff81118282101715612422576124226123e9565b604051601f8201601f1916810167ffffffffffffffff81118282101715612475576124756123e9565b604052919050565b600067ffffffffffffffff821115612497576124976123e9565b5060051b60200190565b805161231d81611eb0565b600060208083850312156124bf57600080fd5b825167ffffffffffffffff808211156124d757600080fd5b818501915085601f8301126124eb57600080fd5b81516124fe6124f98261247d565b61244c565b81815260059190911b8301840190848101908883111561251d57600080fd5b8585015b838110156126195780518581111561253857600080fd5b8601601f1960a0828d03820112156125505760008081fd5b6125586123ff565b898301518881111561256a5760008081fd5b8301603f81018e1361257c5760008081fd5b8a81015160408a821115612592576125926123e9565b6125a28d86601f8501160161244c565b94508185528f818385010111156125b95760008081fd5b6125c8828e87018386016121fa565b8484526125d6818701612312565b8d85015260609450848601518185015250505060806125f68185016124a1565b8383015261260660a085016124a1565b9082015285525050918601918601612521565b5098975050505050505050565b634e487b7160e01b600052603260045260246000fd5b805163ffffffff8116811461231d57600080fd5b80516001600160d81b038116811461231d57600080fd5b6000610180828403121561267a57600080fd5b612682612428565b905061268d82612312565b815261269b602083016124a1565b60208201526126ac6040830161263c565b60408201526126bd60608301612650565b60608201526080820151608082015260a082015160a082015260c082015160c082015260e082015160e082015261010080830151818301525061012080830151818301525061014080830151818301525061016080830151818301525092915050565b6000602080838503121561273357600080fd5b825167ffffffffffffffff81111561274a57600080fd5b8301601f8101851361275b57600080fd5b80516127696124f98261247d565b818152610180918202830184019184820191908884111561278957600080fd5b938501935b838510156127af576127a08986612667565b8352938401939185019161278e565b50979650505050505050565b634e487b7160e01b600052601160045260246000fd5b8082018082111561115c5761115c6127bb565b6000600182016127f6576127f66127bb565b5060010190565b6000610180828403121561281057600080fd5b6111598383612667565b600081518084526020808501945080840160005b8381101561284a5781518752958201959082019060010161282e565b509495945050505050565b60006101a080835261287281840186516001600160a01b03169052565b60208501516101c06128878186018315159052565b60408701516101e0868101919091526060880151151561020087015260808801516001600160a01b031661022087015260a088015161024087015260c088015161026087015260e088015161028087015261010088015115156102a087015261012088015160ff9081166102c088015261014089015167ffffffffffffffff166102e0880152610160890151610300880152610180890151610320880152938801519093166103408601528601516103608501929092525061294d61038084018261281a565b91505061074b6020830184611f95565b6000602080838503121561297057600080fd5b825167ffffffffffffffff81111561298757600080fd5b8301601f8101851361299857600080fd5b80516129a66124f98261247d565b81815260059190911b820183019083810190878311156129c557600080fd5b928401925b828410156129e3578351825292840192908401906129ca565b979650505050505050565b600060208284031215612a0057600080fd5b6040516020810181811067ffffffffffffffff82111715612a2357612a236123e9565b6040529151825250919050565b6001600160a01b0392909216825260ff16602082015260400190565b600181815b80851115612a87578160001904821115612a6d57612a6d6127bb565b80851615612a7a57918102915b93841c9390800290612a51565b509250929050565b600082612a9e5750600161115c565b81612aab5750600061115c565b8160018114612ac15760028114612acb57612ae7565b600191505061115c565b60ff841115612adc57612adc6127bb565b50506001821b61115c565b5060208310610133831016604e8410600b8410161715612b0a575081810a61115c565b612b148383612a4c565b8060001904821115612b2857612b286127bb565b029392505050565b600061115960ff841683612a8f565b60006111598383612a8f565b808202811582820484141761115c5761115c6127bb565b600082612b7f57634e487b7160e01b600052601260045260246000fd5b50049056fea26469706673582212202f650891f09ed4dde34f41ee1867b5683b1431888fdb61faaebcf1d64a692d4d64736f6c63430008110033",
  "linkReferences": {},
  "deployedLinkReferences": {}
}