{
  "_format": "hh-sol-artifact-1",
  "contractName": "PositionBookMock",
  "sourceName": "contracts/mocker/PositionBookMock.sol",
  "abi": [
    {
      "inputs": [],
      "name": "getGlobalPnl",
      "outputs": [
        {
          "internalType": "int256",
          "name": "",
          "type": "int256"
        }
      ],
      "stateMutability": "view",
      "type": "function"
    },
    {
      "inputs": [],
      "name": "globalPnl",
      "outputs": [
        {
          "internalType": "int256",
          "name": "",
          "type": "int256"
        }
      ],
      "stateMutability": "view",
      "type": "function"
    },
    {
      "inputs": [
        {
          "internalType": "int256",
          "name": "pnl",
          "type": "int256"
        }
      ],
      "name": "setPnl",
      "outputs": [],
      "stateMutability": "nonpayable",
      "type": "function"
    }
  ],
  "bytecode": "0x6080604052633b9aca0060005534801561001857600080fd5b5060c2806100276000396000f3fe6080604052348015600f57600080fd5b5060043610603c5760003560e01c80630ee8a9f814604157806366fa22ad1460535780636f2a14c514606d575b600080fd5b6051604c3660046074565b600055565b005b605b60005481565b60405190815260200160405180910390f35b600054605b565b600060208284031215608557600080fd5b503591905056fea2646970667358221220db43f4675ad5dab128cd2d86125e21b634034b1ed438895cc1426ecb33cc819164736f6c63430008110033",
  "linkReferences": {},
  "deployedLinkReferences": {}
}