{
  "_format": "hh-sol-artifact-1",
  "contractName": "AcUpgradable",
  "sourceName": "contracts/ac/AcUpgradable.sol",
  "abi": [
    {
      "anonymous": false,
      "inputs": [
        {
          "indexed": false,
          "internalType": "uint8",
          "name": "version",
          "type": "uint8"
        }
      ],
      "name": "Initialized",
      "type": "event"
    },
    {
      "anonymous": false,
      "inputs": [
        {
          "indexed": true,
          "internalType": "address",
          "name": "previousOwner",
          "type": "address"
        },
        {
          "indexed": true,
          "internalType": "address",
          "name": "newOwner",
          "type": "address"
        }
      ],
      "name": "OwnershipTransferred",
      "type": "event"
    },
    {
      "anonymous": false,
      "inputs": [
        {
          "indexed": true,
          "internalType": "bytes32",
          "name": "role",
          "type": "bytes32"
        },
        {
          "indexed": true,
          "internalType": "bytes32",
          "name": "previousAdminRole",
          "type": "bytes32"
        },
        {
          "indexed": true,
          "internalType": "bytes32",
          "name": "newAdminRole",
          "type": "bytes32"
        }
      ],
      "name": "RoleAdminChanged",
      "type": "event"
    },
    {
      "anonymous": false,
      "inputs": [
        {
          "indexed": true,
          "internalType": "bytes32",
          "name": "role",
          "type": "bytes32"
        },
        {
          "indexed": true,
          "internalType": "address",
          "name": "account",
          "type": "address"
        },
        {
          "indexed": true,
          "internalType": "address",
          "name": "sender",
          "type": "address"
        }
      ],
      "name": "RoleGranted",
      "type": "event"
    },
    {
      "anonymous": false,
      "inputs": [
        {
          "indexed": true,
          "internalType": "bytes32",
          "name": "role",
          "type": "bytes32"
        },
        {
          "indexed": true,
          "internalType": "address",
          "name": "account",
          "type": "address"
        },
        {
          "indexed": true,
          "internalType": "address",
          "name": "sender",
          "type": "address"
        }
      ],
      "name": "RoleRevoked",
      "type": "event"
    },
    {
      "inputs": [],
      "name": "DEFAULT_ADMIN_ROLE",
      "outputs": [
        {
          "internalType": "bytes32",
          "name": "",
          "type": "bytes32"
        }
      ],
      "stateMutability": "view",
      "type": "function"
    },
    {
      "inputs": [
        {
          "internalType": "bytes32",
          "name": "role",
          "type": "bytes32"
        }
      ],
      "name": "getRoleAdmin",
      "outputs": [
        {
          "internalType": "bytes32",
          "name": "",
          "type": "bytes32"
        }
      ],
      "stateMutability": "view",
      "type": "function"
    },
    {
      "inputs": [
        {
          "internalType": "address",
          "name": "_account",
          "type": "address"
        }
      ],
      "name": "grantControllerRoleByMarketManager",
      "outputs": [],
      "stateMutability": "nonpayable",
      "type": "function"
    },
    {
      "inputs": [
        {
          "internalType": "bytes32",
          "name": "role",
          "type": "bytes32"
        },
        {
          "internalType": "address",
          "name": "account",
          "type": "address"
        }
      ],
      "name": "grantRole",
      "outputs": [],
      "stateMutability": "nonpayable",
      "type": "function"
    },
    {
      "inputs": [
        {
          "internalType": "bytes32",
          "name": "role",
          "type": "bytes32"
        },
        {
          "internalType": "address",
          "name": "account",
          "type": "address"
        }
      ],
      "name": "hasRole",
      "outputs": [
        {
          "internalType": "bool",
          "name": "",
          "type": "bool"
        }
      ],
      "stateMutability": "view",
      "type": "function"
    },
    {
      "inputs": [],
      "name": "owner",
      "outputs": [
        {
          "internalType": "address",
          "name": "",
          "type": "address"
        }
      ],
      "stateMutability": "view",
      "type": "function"
    },
    {
      "inputs": [],
      "name": "renounceOwnership",
      "outputs": [],
      "stateMutability": "nonpayable",
      "type": "function"
    },
    {
      "inputs": [
        {
          "internalType": "bytes32",
          "name": "role",
          "type": "bytes32"
        },
        {
          "internalType": "address",
          "name": "account",
          "type": "address"
        }
      ],
      "name": "renounceRole",
      "outputs": [],
      "stateMutability": "nonpayable",
      "type": "function"
    },
    {
      "inputs": [
        {
          "internalType": "bytes32",
          "name": "role",
          "type": "bytes32"
        },
        {
          "internalType": "address",
          "name": "account",
          "type": "address"
        }
      ],
      "name": "revokeRole",
      "outputs": [],
      "stateMutability": "nonpayable",
      "type": "function"
    },
    {
      "inputs": [
        {
          "internalType": "bytes4",
          "name": "interfaceId",
          "type": "bytes4"
        }
      ],
      "name": "supportsInterface",
      "outputs": [
        {
          "internalType": "bool",
          "name": "",
          "type": "bool"
        }
      ],
      "stateMutability": "view",
      "type": "function"
    },
    {
      "inputs": [
        {
          "internalType": "address",
          "name": "to",
          "type": "address"
        }
      ],
      "name": "transferAdmin",
      "outputs": [],
      "stateMutability": "nonpayable",
      "type": "function"
    },
    {
      "inputs": [
        {
          "internalType": "address",
          "name": "newOwner",
          "type": "address"
        }
      ],
      "name": "transferOwnership",
      "outputs": [],
      "stateMutability": "nonpayable",
      "type": "function"
    }
  ],
  "bytecode": "0x608060405234801561001057600080fd5b5061001a3361001f565b610071565b600180546001600160a01b038381166001600160a01b0319831681179093556040519116919082907f8be0079c531659141344cd1fd0a4f28419497f9722a3daafe3b4186f6b6457e090600090a35050565b6109b9806100806000396000f3fe608060405234801561001057600080fd5b50600436106100b45760003560e01c80637fe4a698116100715780637fe4a698146101555780638da5cb5b1461016857806391d1485414610183578063a217fddf14610196578063d547741f1461019e578063f2fde38b146101b157600080fd5b806301ffc9a7146100b9578063248a9ca3146100e15780632f2ff15d1461011257806336568abe14610127578063715018a61461013a57806375829def14610142575b600080fd5b6100cc6100c736600461078e565b6101c4565b60405190151581526020015b60405180910390f35b6101046100ef3660046107b8565b60009081526020819052604090206001015490565b6040519081526020016100d8565b6101256101203660046107ed565b6101fb565b005b6101256101353660046107ed565b610225565b6101256102a8565b610125610150366004610819565b6102bc565b610125610163366004610819565b6102e6565b6001546040516001600160a01b0390911681526020016100d8565b6100cc6101913660046107ed565b610310565b610104600081565b6101256101ac3660046107ed565b610339565b6101256101bf366004610819565b61035e565b60006001600160e01b03198216637965db0b60e01b14806101f557506301ffc9a760e01b6001600160e01b03198316145b92915050565b600082815260208190526040902060010154610216816103d7565b61022083836103e1565b505050565b6001600160a01b038116331461029a5760405162461bcd60e51b815260206004820152602f60248201527f416363657373436f6e74726f6c3a2063616e206f6e6c792072656e6f756e636560448201526e103937b632b9903337b91039b2b63360891b60648201526084015b60405180910390fd5b6102a48282610465565b5050565b6102b06104ca565b6102ba6000610524565b565b60006102c7816103d7565b6102d2600083610576565b6102db82610524565b6102a4600033610465565b7f8d1089725c0dc266707fa6207730fb801dcd03108bfed7a21099bd303651d2b76100b4816103d7565b6000918252602082815260408084206001600160a01b0393909316845291905290205460ff1690565b600082815260208190526040902060010154610354816103d7565b6102208383610465565b6103666104ca565b6001600160a01b0381166103cb5760405162461bcd60e51b815260206004820152602660248201527f4f776e61626c653a206e6577206f776e657220697320746865207a65726f206160448201526564647265737360d01b6064820152608401610291565b6103d481610524565b50565b6103d48133610580565b6103eb8282610310565b6102a4576000828152602081815260408083206001600160a01b03851684529091529020805460ff191660011790556104213390565b6001600160a01b0316816001600160a01b0316837f2f8788117e7eff1d82e926ec794901d17c78024a50270940304540a733656f0d60405160405180910390a45050565b61046f8282610310565b156102a4576000828152602081815260408083206001600160a01b0385168085529252808320805460ff1916905551339285917ff6391f5c32d9c69d2a47ea670b442974b53935d1edc7fd64eb21e047a839171b9190a45050565b6001546001600160a01b031633146102ba5760405162461bcd60e51b815260206004820181905260248201527f4f776e61626c653a2063616c6c6572206973206e6f7420746865206f776e65726044820152606401610291565b600180546001600160a01b038381166001600160a01b0319831681179093556040519116919082907f8be0079c531659141344cd1fd0a4f28419497f9722a3daafe3b4186f6b6457e090600090a35050565b6102a482826103e1565b61058a8282610310565b6102a457610597816105d9565b6105a28360206105eb565b6040516020016105b3929190610858565b60408051601f198184030181529082905262461bcd60e51b8252610291916004016108cd565b60606101f56001600160a01b03831660145b606060006105fa836002610916565b61060590600261092d565b67ffffffffffffffff81111561061d5761061d610940565b6040519080825280601f01601f191660200182016040528015610647576020820181803683370190505b509050600360fc1b8160008151811061066257610662610956565b60200101906001600160f81b031916908160001a905350600f60fb1b8160018151811061069157610691610956565b60200101906001600160f81b031916908160001a90535060006106b5846002610916565b6106c090600161092d565b90505b6001811115610738576f181899199a1a9b1b9c1cb0b131b232b360811b85600f16601081106106f4576106f4610956565b1a60f81b82828151811061070a5761070a610956565b60200101906001600160f81b031916908160001a90535060049490941c936107318161096c565b90506106c3565b5083156107875760405162461bcd60e51b815260206004820181905260248201527f537472696e67733a20686578206c656e67746820696e73756666696369656e746044820152606401610291565b9392505050565b6000602082840312156107a057600080fd5b81356001600160e01b03198116811461078757600080fd5b6000602082840312156107ca57600080fd5b5035919050565b80356001600160a01b03811681146107e857600080fd5b919050565b6000806040838503121561080057600080fd5b82359150610810602084016107d1565b90509250929050565b60006020828403121561082b57600080fd5b610787826107d1565b60005b8381101561084f578181015183820152602001610837565b50506000910152565b7f416363657373436f6e74726f6c3a206163636f756e7420000000000000000000815260008351610890816017850160208801610834565b7001034b99036b4b9b9b4b733903937b6329607d1b60179184019182015283516108c1816028840160208801610834565b01602801949350505050565b60208152600082518060208401526108ec816040850160208701610834565b601f01601f19169190910160400192915050565b634e487b7160e01b600052601160045260246000fd5b80820281158282048414176101f5576101f5610900565b808201808211156101f5576101f5610900565b634e487b7160e01b600052604160045260246000fd5b634e487b7160e01b600052603260045260246000fd5b60008161097b5761097b610900565b50600019019056fea2646970667358221220b459265eb76e20c4b2e007d6dd7abe1d78da91596db262aad075d6a4042dcbaf64736f6c63430008110033",
  "linkReferences": {},
  "deployedLinkReferences": {}
}