{
  "_format": "hh-sol-artifact-1",
  "contractName": "MockVaultRouter",
  "sourceName": "contracts/test/MockVaultRouter.sol",
  "abi": [
    {
      "inputs": [],
      "stateMutability": "nonpayable",
      "type": "constructor"
    },
    {
      "inputs": [],
      "name": "AUM",
      "outputs": [
        {
          "internalType": "uint256",
          "name": "",
          "type": "uint256"
        }
      ],
      "stateMutability": "view",
      "type": "function"
    },
    {
      "inputs": [],
      "name": "feeRouter",
      "outputs": [
        {
          "internalType": "contract MockFeeRouter",
          "name": "",
          "type": "address"
        }
      ],
      "stateMutability": "view",
      "type": "function"
    },
    {
      "inputs": [],
      "name": "getAUM",
      "outputs": [
        {
          "internalType": "uint256",
          "name": "",
          "type": "uint256"
        }
      ],
      "stateMutability": "view",
      "type": "function"
    },
    {
      "inputs": [
        {
          "internalType": "uint256",
          "name": "_AUM",
          "type": "uint256"
        }
      ],
      "name": "setAUM",
      "outputs": [],
      "stateMutability": "nonpayable",
      "type": "function"
    }
  ],
  "bytecode": "0x608060405260001960015534801561001657600080fd5b5060405161002390610065565b604051809103906000f08015801561003f573d6000803e3d6000fd5b50600080546001600160a01b0319166001600160a01b0392909216919091179055610072565b6101ae8061017683390190565b60f6806100806000396000f3fe6080604052348015600f57600080fd5b506004361060465760003560e01c80634e4173cc14604b5780636dc7b0a11460665780638a44ae9114606d578063f29ebf6114607f575b600080fd5b605360015481565b6040519081526020015b60405180910390f35b6001546053565b607d607836600460a8565b600155565b005b6000546091906001600160a01b031681565b6040516001600160a01b039091168152602001605d565b60006020828403121560b957600080fd5b503591905056fea264697066735822122017f89edbb8e4aacf724de32577095800ca77bce733b711b4fb57727781c5327464736f6c63430008110033608060405234801561001057600080fd5b5061018e806100206000396000f3fe608060405234801561001057600080fd5b506004361061002b5760003560e01c8063e50f19ef14610030575b600080fd5b61004361003e366004610077565b505050565b005b80356001600160a01b038116811461005c57600080fd5b919050565b634e487b7160e01b600052604160045260246000fd5b60008060006060848603121561008c57600080fd5b61009584610045565b925060206100a4818601610045565b9250604085013567ffffffffffffffff808211156100c157600080fd5b818701915087601f8301126100d557600080fd5b8135818111156100e7576100e7610061565b8060051b604051601f19603f8301168101818110858211171561010c5761010c610061565b60405291825284820192508381018501918a83111561012a57600080fd5b938501935b828510156101485784358452938501939285019261012f565b809650505050505050925092509256fea2646970667358221220c2d4e57c06f775cc0a9a5a3808ab5c739cb1fc319f828b86c8c0fa5fa730064164736f6c63430008110033",
  "linkReferences": {},
  "deployedLinkReferences": {}
}