{
  "_format": "hh-sol-artifact-1",
  "contractName": "Faucet",
  "sourceName": "contracts/utils/faucet.sol",
  "abi": [
    {
      "inputs": [
        {
          "internalType": "address",
          "name": "_usdc",
          "type": "address"
        }
      ],
      "stateMutability": "nonpayable",
      "type": "constructor"
    },
    {
      "anonymous": false,
      "inputs": [
        {
          "indexed": true,
          "internalType": "address",
          "name": "previousOwner",
          "type": "address"
        },
        {
          "indexed": true,
          "internalType": "address",
          "name": "newOwner",
          "type": "address"
        }
      ],
      "name": "OwnershipTransferred",
      "type": "event"
    },
    {
      "inputs": [],
      "name": "faucet",
      "outputs": [],
      "stateMutability": "nonpayable",
      "type": "function"
    },
    {
      "inputs": [
        {
          "internalType": "address",
          "name": "",
          "type": "address"
        }
      ],
      "name": "lastFaucetAt",
      "outputs": [
        {
          "internalType": "uint256",
          "name": "",
          "type": "uint256"
        }
      ],
      "stateMutability": "view",
      "type": "function"
    },
    {
      "inputs": [],
      "name": "limit",
      "outputs": [
        {
          "internalType": "uint256",
          "name": "",
          "type": "uint256"
        }
      ],
      "stateMutability": "view",
      "type": "function"
    },
    {
      "inputs": [],
      "name": "owner",
      "outputs": [
        {
          "internalType": "address",
          "name": "",
          "type": "address"
        }
      ],
      "stateMutability": "view",
      "type": "function"
    },
    {
      "inputs": [],
      "name": "renounceOwnership",
      "outputs": [],
      "stateMutability": "nonpayable",
      "type": "function"
    },
    {
      "inputs": [
        {
          "internalType": "uint256",
          "name": "_limit",
          "type": "uint256"
        }
      ],
      "name": "setLimit",
      "outputs": [],
      "stateMutability": "nonpayable",
      "type": "function"
    },
    {
      "inputs": [
        {
          "internalType": "address",
          "name": "newOwner",
          "type": "address"
        }
      ],
      "name": "transferOwnership",
      "outputs": [],
      "stateMutability": "nonpayable",
      "type": "function"
    },
    {
      "inputs": [],
      "name": "usdc",
      "outputs": [
        {
          "internalType": "address",
          "name": "",
          "type": "address"
        }
      ],
      "stateMutability": "view",
      "type": "function"
    }
  ],
  "bytecode": "0x608060405261271060025534801561001657600080fd5b506040516106ca3803806106ca833981016040819052610035916100b3565b61003e33610063565b600180546001600160a01b0319166001600160a01b03929092169190911790556100e3565b600080546001600160a01b038381166001600160a01b0319831681178455604051919092169283917f8be0079c531659141344cd1fd0a4f28419497f9722a3daafe3b4186f6b6457e09190a35050565b6000602082840312156100c557600080fd5b81516001600160a01b03811681146100dc57600080fd5b9392505050565b6105d8806100f26000396000f3fe608060405234801561001057600080fd5b50600436106100885760003560e01c80638da5cb5b1161005b5780638da5cb5b14610108578063a4d66daf14610119578063de5f72fd14610122578063f2fde38b1461012a57600080fd5b80632681616e1461008d57806327ea6f2b146100c05780633e413bee146100d5578063715018a614610100575b600080fd5b6100ad61009b366004610400565b60036020526000908152604090205481565b6040519081526020015b60405180910390f35b6100d36100ce366004610430565b61013d565b005b6001546100e8906001600160a01b031681565b6040516001600160a01b0390911681526020016100b7565b6100d361014a565b6000546001600160a01b03166100e8565b6100ad60025481565b6100d361015e565b6100d3610138366004610400565b6102dd565b610145610356565b600255565b610152610356565b61015c60006103b0565b565b33600090815260036020526040902054429061017c9061708061045f565b106101ce5760405162461bcd60e51b815260206004820152601c60248201527f636f6f6c646f776e206475726174696f6e206e6f74207061737365640000000060448201526064015b60405180910390fd5b336000908152600360209081526040808320429055600154815163313ce56760e01b815291516001600160a01b039091169263313ce56792600480820193918290030181865afa158015610226573d6000803e3d6000fd5b505050506040513d601f19601f8201168201806040525081019061024a9190610478565b60015460ff9190911691506001600160a01b03166340c10f193361026f84600a61057f565b60025461027c919061058b565b6040516001600160e01b031960e085901b1681526001600160a01b0390921660048301526024820152604401600060405180830381600087803b1580156102c257600080fd5b505af11580156102d6573d6000803e3d6000fd5b5050505050565b6102e5610356565b6001600160a01b03811661034a5760405162461bcd60e51b815260206004820152602660248201527f4f776e61626c653a206e6577206f776e657220697320746865207a65726f206160448201526564647265737360d01b60648201526084016101c5565b610353816103b0565b50565b6000546001600160a01b0316331461015c5760405162461bcd60e51b815260206004820181905260248201527f4f776e61626c653a2063616c6c6572206973206e6f7420746865206f776e657260448201526064016101c5565b600080546001600160a01b038381166001600160a01b0319831681178455604051919092169283917f8be0079c531659141344cd1fd0a4f28419497f9722a3daafe3b4186f6b6457e09190a35050565b60006020828403121561041257600080fd5b81356001600160a01b038116811461042957600080fd5b9392505050565b60006020828403121561044257600080fd5b5035919050565b634e487b7160e01b600052601160045260246000fd5b8082018082111561047257610472610449565b92915050565b60006020828403121561048a57600080fd5b815160ff8116811461042957600080fd5b600181815b808511156104d65781600019048211156104bc576104bc610449565b808516156104c957918102915b93841c93908002906104a0565b509250929050565b6000826104ed57506001610472565b816104fa57506000610472565b8160018114610510576002811461051a57610536565b6001915050610472565b60ff84111561052b5761052b610449565b50506001821b610472565b5060208310610133831016604e8410600b8410161715610559575081810a610472565b610563838361049b565b806000190482111561057757610577610449565b029392505050565b600061042983836104de565b80820281158282048414176104725761047261044956fea26469706673582212205cf414457b1c94f8346c93eb9b4aa58e6d802ee21601e9042cc5dc6be1ccd74464736f6c63430008110033",
  "linkReferences": {},
  "deployedLinkReferences": {}
}