{
  "_format": "hh-sol-artifact-1",
  "contractName": "FundingRateCalculator",
  "sourceName": "contracts/fee/lib/FundingRateCalculator.sol",
  "abi": [
    {
      "inputs": [],
      "name": "BASIS_INTERVAL_HOUR_24",
      "outputs": [
        {
          "internalType": "uint256",
          "name": "",
          "type": "uint256"
        }
      ],
      "stateMutability": "view",
      "type": "function"
    },
    {
      "inputs": [],
      "name": "DEFAULT_RATE_DIVISOR_100",
      "outputs": [
        {
          "internalType": "uint256",
          "name": "",
          "type": "uint256"
        }
      ],
      "stateMutability": "view",
      "type": "function"
    },
    {
      "inputs": [],
      "name": "MIN_FUNDING_INTERVAL_3600",
      "outputs": [
        {
          "internalType": "uint256",
          "name": "",
          "type": "uint256"
        }
      ],
      "stateMutability": "view",
      "type": "function"
    },
    {
      "inputs": [],
      "name": "ONE_WITH_8_DECIMALS",
      "outputs": [
        {
          "internalType": "uint256",
          "name": "",
          "type": "uint256"
        }
      ],
      "stateMutability": "view",
      "type": "function"
    }
  ],
  "bytecode": "0x60be610039600b82828239805160001a60731461002c57634e487b7160e01b600052600060045260246000fd5b30600052607381538281f3fe730000000000000000000000000000000000000000301460806040526004361060515760003560e01c8063658f5c92146056578063bb2c07a314606f578063e47848a4146076578063fac32112146080575b600080fd5b605d601881565b60405190815260200160405180910390f35b605d606481565b605d6305f5e10081565b605d610e108156fea2646970667358221220e498decf38a83ace2807f00c1dc546d7054a067e6fe30661816f3be6812667c064736f6c63430008110033",
  "linkReferences": {},
  "deployedLinkReferences": {}
}