{
  "_format": "hh-sol-artifact-1",
  "contractName": "FeeRouterLib",
  "sourceName": "contracts/fee/lib/FeeRouterLib.sol",
  "abi": [
    {
      "inputs": [],
      "name": "FEE_RATE_PRECISION",
      "outputs": [
        {
          "internalType": "uint256",
          "name": "",
          "type": "uint256"
        }
      ],
      "stateMutability": "view",
      "type": "function"
    }
  ],
  "bytecode": "0x6101a861003a600b82828239805160001a60731461002d57634e487b7160e01b600052600060045260246000fd5b30600052607381538281f3fe73000000000000000000000000000000000000000030146080604052600436106100355760003560e01c8063f4ca4d1d1461003a575b600080fd5b610042610054565b60405190815260200160405180910390f35b6100606008600a61015f565b81565b634e487b7160e01b600052601160045260246000fd5b600181815b808511156100b457816000190482111561009a5761009a610063565b808516156100a757918102915b93841c939080029061007e565b509250929050565b6000826100cb57506001610159565b816100d857506000610159565b81600181146100ee57600281146100f857610114565b6001915050610159565b60ff84111561010957610109610063565b50506001821b610159565b5060208310610133831016604e8410600b8410161715610137575081810a610159565b6101418383610079565b806000190482111561015557610155610063565b0290505b92915050565b600061016b83836100bc565b939250505056fea26469706673582212203f74438ad8ebc4dc4ac72ad23eed7db31d395d31d06e3c220edff93aee25a45e64736f6c63430008110033",
  "linkReferences": {},
  "deployedLinkReferences": {}
}