{
  "_format": "hh-sol-artifact-1",
  "contractName": "Precision",
  "sourceName": "contracts/utils/TransferHelper.sol",
  "abi": [
    {
      "inputs": [],
      "name": "BASIS_POINTS_DIVISOR",
      "outputs": [
        {
          "internalType": "uint256",
          "name": "",
          "type": "uint256"
        }
      ],
      "stateMutability": "view",
      "type": "function"
    },
    {
      "inputs": [],
      "name": "FEE_RATE_PRECISION",
      "outputs": [
        {
          "internalType": "uint256",
          "name": "",
          "type": "uint256"
        }
      ],
      "stateMutability": "view",
      "type": "function"
    },
    {
      "inputs": [],
      "name": "FEE_RATE_PRECISION_DECIMALS",
      "outputs": [
        {
          "internalType": "uint256",
          "name": "",
          "type": "uint256"
        }
      ],
      "stateMutability": "view",
      "type": "function"
    }
  ],
  "bytecode": "0x6101cc61003a600b82828239805160001a60731461002d57634e487b7160e01b600052600060045260246000fd5b30600052607381538281f3fe730000000000000000000000000000000000000000301460806040526004361061004b5760003560e01c8063126082cf14610050578063dd30ba911461006d578063f4ca4d1d14610075575b600080fd5b61005b6305f5e10081565b60405190815260200160405180910390f35b61005b600881565b61005b6100846008600a610183565b81565b634e487b7160e01b600052601160045260246000fd5b600181815b808511156100d85781600019048211156100be576100be610087565b808516156100cb57918102915b93841c93908002906100a2565b509250929050565b6000826100ef5750600161017d565b816100fc5750600061017d565b8160018114610112576002811461011c57610138565b600191505061017d565b60ff84111561012d5761012d610087565b50506001821b61017d565b5060208310610133831016604e8410600b841016171561015b575081810a61017d565b610165838361009d565b806000190482111561017957610179610087565b0290505b92915050565b600061018f83836100e0565b939250505056fea26469706673582212200e154fd758b7a00ff1c3bae87b31b0f2b6fcfaa71e6d03e53e13df7fc20c658464736f6c63430008110033",
  "linkReferences": {},
  "deployedLinkReferences": {}
}