{
  "_format": "hh-sol-artifact-1",
  "contractName": "TransferHelper",
  "sourceName": "contracts/utils/TransferHelper.sol",
  "abi": [
    {
      "inputs": [],
      "name": "usdDecimals",
      "outputs": [
        {
          "internalType": "uint8",
          "name": "",
          "type": "uint8"
        }
      ],
      "stateMutability": "view",
      "type": "function"
    }
  ],
  "bytecode": "0x608b610038600b82828239805160001a607314602b57634e487b7160e01b600052600060045260246000fd5b30600052607381538281f3fe730000000000000000000000000000000000000000301460806040526004361060335760003560e01c806366a4b6c0146038575b600080fd5b603f601281565b60405160ff909116815260200160405180910390f3fea2646970667358221220552f6307ec471039a3abcb266dbdbb7df4ec4983f1c00a8ac929f792cf49f06364736f6c63430008110033",
  "linkReferences": {},
  "deployedLinkReferences": {}
}