{
  "_format": "hh-sol-artifact-1",
  "contractName": "PositionBookV2Deployment",
  "sourceName": "contracts/position/PositionBookV2.sol",
  "abi": [
    {
      "anonymous": false,
      "inputs": [
        {
          "indexed": false,
          "internalType": "address",
          "name": "previousAdmin",
          "type": "address"
        },
        {
          "indexed": false,
          "internalType": "address",
          "name": "newAdmin",
          "type": "address"
        }
      ],
      "name": "AdminChanged",
      "type": "event"
    },
    {
      "anonymous": false,
      "inputs": [
        {
          "indexed": true,
          "internalType": "address",
          "name": "beacon",
          "type": "address"
        }
      ],
      "name": "BeaconUpgraded",
      "type": "event"
    },
    {
      "anonymous": false,
      "inputs": [
        {
          "indexed": false,
          "internalType": "uint8",
          "name": "version",
          "type": "uint8"
        }
      ],
      "name": "Initialized",
      "type": "event"
    },
    {
      "anonymous": false,
      "inputs": [
        {
          "indexed": false,
          "internalType": "address",
          "name": "market",
          "type": "address"
        },
        {
          "indexed": false,
          "internalType": "address",
          "name": "oldPositionBook",
          "type": "address"
        },
        {
          "indexed": false,
          "internalType": "address",
          "name": "longStore",
          "type": "address"
        },
        {
          "indexed": false,
          "internalType": "address",
          "name": "shortStore",
          "type": "address"
        }
      ],
      "name": "PositionBookV2Initialized",
      "type": "event"
    },
    {
      "anonymous": false,
      "inputs": [
        {
          "indexed": true,
          "internalType": "address",
          "name": "implementation",
          "type": "address"
        }
      ],
      "name": "Upgraded",
      "type": "event"
    },
    {
      "inputs": [],
      "name": "DEFAULT_ADMIN_ROLE",
      "outputs": [
        {
          "internalType": "bytes32",
          "name": "",
          "type": "bytes32"
        }
      ],
      "stateMutability": "view",
      "type": "function"
    },
    {
      "inputs": [
        {
          "internalType": "address",
          "name": "newOwner",
          "type": "address"
        }
      ],
      "name": "_transferOwnership",
      "outputs": [],
      "stateMutability": "pure",
      "type": "function"
    },
    {
      "inputs": [
        {
          "internalType": "address",
          "name": "account",
          "type": "address"
        },
        {
          "internalType": "uint256",
          "name": "collateralDelta",
          "type": "uint256"
        },
        {
          "internalType": "bool",
          "name": "isLong",
          "type": "bool"
        }
      ],
      "name": "decreaseCollateralFromCancelInvalidOrder",
      "outputs": [
        {
          "internalType": "uint256",
          "name": "",
          "type": "uint256"
        }
      ],
      "stateMutability": "nonpayable",
      "type": "function"
    },
    {
      "inputs": [
        {
          "internalType": "address",
          "name": "account",
          "type": "address"
        },
        {
          "internalType": "uint256",
          "name": "collateralDelta",
          "type": "uint256"
        },
        {
          "internalType": "uint256",
          "name": "sizeDelta",
          "type": "uint256"
        },
        {
          "internalType": "int256",
          "name": "fundingRate",
          "type": "int256"
        },
        {
          "internalType": "bool",
          "name": "isLong",
          "type": "bool"
        }
      ],
      "name": "decreasePosition",
      "outputs": [
        {
          "components": [
            {
              "internalType": "address",
              "name": "market",
              "type": "address"
            },
            {
              "internalType": "bool",
              "name": "isLong",
              "type": "bool"
            },
            {
              "internalType": "uint32",
              "name": "lastTime",
              "type": "uint32"
            },
            {
              "internalType": "uint216",
              "name": "extra3",
              "type": "uint216"
            },
            {
              "internalType": "uint256",
              "name": "size",
              "type": "uint256"
            },
            {
              "internalType": "uint256",
              "name": "collateral",
              "type": "uint256"
            },
            {
              "internalType": "uint256",
              "name": "averagePrice",
              "type": "uint256"
            },
            {
              "internalType": "int256",
              "name": "entryFundingRate",
              "type": "int256"
            },
            {
              "internalType": "int256",
              "name": "realisedPnl",
              "type": "int256"
            },
            {
              "internalType": "uint256",
              "name": "extra0",
              "type": "uint256"
            },
            {
              "internalType": "uint256",
              "name": "extra1",
              "type": "uint256"
            },
            {
              "internalType": "uint256",
              "name": "extra2",
              "type": "uint256"
            }
          ],
          "internalType": "struct Position.Props",
          "name": "result",
          "type": "tuple"
        }
      ],
      "stateMutability": "nonpayable",
      "type": "function"
    },
    {
      "inputs": [
        {
          "internalType": "address",
          "name": "account",
          "type": "address"
        }
      ],
      "name": "getAccountSize",
      "outputs": [
        {
          "internalType": "uint256",
          "name": "",
          "type": "uint256"
        },
        {
          "internalType": "uint256",
          "name": "",
          "type": "uint256"
        }
      ],
      "stateMutability": "view",
      "type": "function"
    },
    {
      "inputs": [
        {
          "internalType": "uint256",
          "name": "longPrice",
          "type": "uint256"
        },
        {
          "internalType": "uint256",
          "name": "shortPrice",
          "type": "uint256"
        }
      ],
      "name": "getMarketPNL",
      "outputs": [
        {
          "internalType": "int256",
          "name": "",
          "type": "int256"
        }
      ],
      "stateMutability": "view",
      "type": "function"
    },
    {
      "inputs": [],
      "name": "getMarketSizes",
      "outputs": [
        {
          "internalType": "uint256",
          "name": "",
          "type": "uint256"
        },
        {
          "internalType": "uint256",
          "name": "",
          "type": "uint256"
        }
      ],
      "stateMutability": "view",
      "type": "function"
    },
    {
      "inputs": [
        {
          "internalType": "address",
          "name": "account",
          "type": "address"
        },
        {
          "internalType": "uint256",
          "name": "sizeDelta",
          "type": "uint256"
        },
        {
          "internalType": "uint256",
          "name": "markPrice",
          "type": "uint256"
        },
        {
          "internalType": "bool",
          "name": "isLong",
          "type": "bool"
        }
      ],
      "name": "getPNL",
      "outputs": [
        {
          "internalType": "int256",
          "name": "",
          "type": "int256"
        }
      ],
      "stateMutability": "view",
      "type": "function"
    },
    {
      "inputs": [
        {
          "internalType": "address",
          "name": "account",
          "type": "address"
        },
        {
          "internalType": "uint256",
          "name": "markPrice",
          "type": "uint256"
        },
        {
          "internalType": "bool",
          "name": "isLong",
          "type": "bool"
        }
      ],
      "name": "getPosition",
      "outputs": [
        {
          "components": [
            {
              "internalType": "address",
              "name": "market",
              "type": "address"
            },
            {
              "internalType": "bool",
              "name": "isLong",
              "type": "bool"
            },
            {
              "internalType": "uint32",
              "name": "lastTime",
              "type": "uint32"
            },
            {
              "internalType": "uint216",
              "name": "extra3",
              "type": "uint216"
            },
            {
              "internalType": "uint256",
              "name": "size",
              "type": "uint256"
            },
            {
              "internalType": "uint256",
              "name": "collateral",
              "type": "uint256"
            },
            {
              "internalType": "uint256",
              "name": "averagePrice",
              "type": "uint256"
            },
            {
              "internalType": "int256",
              "name": "entryFundingRate",
              "type": "int256"
            },
            {
              "internalType": "int256",
              "name": "realisedPnl",
              "type": "int256"
            },
            {
              "internalType": "uint256",
              "name": "extra0",
              "type": "uint256"
            },
            {
              "internalType": "uint256",
              "name": "extra1",
              "type": "uint256"
            },
            {
              "internalType": "uint256",
              "name": "extra2",
              "type": "uint256"
            }
          ],
          "internalType": "struct Position.Props",
          "name": "",
          "type": "tuple"
        }
      ],
      "stateMutability": "view",
      "type": "function"
    },
    {
      "inputs": [
        {
          "internalType": "bool",
          "name": "isLong",
          "type": "bool"
        }
      ],
      "name": "getPositionCount",
      "outputs": [
        {
          "internalType": "uint256",
          "name": "",
          "type": "uint256"
        }
      ],
      "stateMutability": "view",
      "type": "function"
    },
    {
      "inputs": [
        {
          "internalType": "uint256",
          "name": "start",
          "type": "uint256"
        },
        {
          "internalType": "uint256",
          "name": "end",
          "type": "uint256"
        },
        {
          "internalType": "bool",
          "name": "isLong",
          "type": "bool"
        }
      ],
      "name": "getPositionKeys",
      "outputs": [
        {
          "internalType": "address[]",
          "name": "",
          "type": "address[]"
        }
      ],
      "stateMutability": "view",
      "type": "function"
    },
    {
      "inputs": [
        {
          "internalType": "address",
          "name": "account",
          "type": "address"
        }
      ],
      "name": "getPositions",
      "outputs": [
        {
          "components": [
            {
              "internalType": "address",
              "name": "market",
              "type": "address"
            },
            {
              "internalType": "bool",
              "name": "isLong",
              "type": "bool"
            },
            {
              "internalType": "uint32",
              "name": "lastTime",
              "type": "uint32"
            },
            {
              "internalType": "uint216",
              "name": "extra3",
              "type": "uint216"
            },
            {
              "internalType": "uint256",
              "name": "size",
              "type": "uint256"
            },
            {
              "internalType": "uint256",
              "name": "collateral",
              "type": "uint256"
            },
            {
              "internalType": "uint256",
              "name": "averagePrice",
              "type": "uint256"
            },
            {
              "internalType": "int256",
              "name": "entryFundingRate",
              "type": "int256"
            },
            {
              "internalType": "int256",
              "name": "realisedPnl",
              "type": "int256"
            },
            {
              "internalType": "uint256",
              "name": "extra0",
              "type": "uint256"
            },
            {
              "internalType": "uint256",
              "name": "extra1",
              "type": "uint256"
            },
            {
              "internalType": "uint256",
              "name": "extra2",
              "type": "uint256"
            }
          ],
          "internalType": "struct Position.Props[]",
          "name": "",
          "type": "tuple[]"
        }
      ],
      "stateMutability": "view",
      "type": "function"
    },
    {
      "inputs": [
        {
          "internalType": "address",
          "name": "_account",
          "type": "address"
        }
      ],
      "name": "grantControllerRoleByMarketManager",
      "outputs": [],
      "stateMutability": "nonpayable",
      "type": "function"
    },
    {
      "inputs": [
        {
          "internalType": "bytes32",
          "name": "role",
          "type": "bytes32"
        },
        {
          "internalType": "address",
          "name": "account",
          "type": "address"
        }
      ],
      "name": "grantRole",
      "outputs": [],
      "stateMutability": "pure",
      "type": "function"
    },
    {
      "inputs": [
        {
          "internalType": "bytes32",
          "name": "role",
          "type": "bytes32"
        },
        {
          "internalType": "address",
          "name": "account",
          "type": "address"
        }
      ],
      "name": "hasRole",
      "outputs": [
        {
          "internalType": "bool",
          "name": "",
          "type": "bool"
        }
      ],
      "stateMutability": "pure",
      "type": "function"
    },
    {
      "inputs": [
        {
          "internalType": "address",
          "name": "account",
          "type": "address"
        },
        {
          "internalType": "int256",
          "name": "collateralDelta",
          "type": "int256"
        },
        {
          "internalType": "uint256",
          "name": "sizeDelta",
          "type": "uint256"
        },
        {
          "internalType": "uint256",
          "name": "markPrice",
          "type": "uint256"
        },
        {
          "internalType": "int256",
          "name": "fundingRate",
          "type": "int256"
        },
        {
          "internalType": "bool",
          "name": "isLong",
          "type": "bool"
        }
      ],
      "name": "increasePosition",
      "outputs": [
        {
          "components": [
            {
              "internalType": "address",
              "name": "market",
              "type": "address"
            },
            {
              "internalType": "bool",
              "name": "isLong",
              "type": "bool"
            },
            {
              "internalType": "uint32",
              "name": "lastTime",
              "type": "uint32"
            },
            {
              "internalType": "uint216",
              "name": "extra3",
              "type": "uint216"
            },
            {
              "internalType": "uint256",
              "name": "size",
              "type": "uint256"
            },
            {
              "internalType": "uint256",
              "name": "collateral",
              "type": "uint256"
            },
            {
              "internalType": "uint256",
              "name": "averagePrice",
              "type": "uint256"
            },
            {
              "internalType": "int256",
              "name": "entryFundingRate",
              "type": "int256"
            },
            {
              "internalType": "int256",
              "name": "realisedPnl",
              "type": "int256"
            },
            {
              "internalType": "uint256",
              "name": "extra0",
              "type": "uint256"
            },
            {
              "internalType": "uint256",
              "name": "extra1",
              "type": "uint256"
            },
            {
              "internalType": "uint256",
              "name": "extra2",
              "type": "uint256"
            }
          ],
          "internalType": "struct Position.Props",
          "name": "result",
          "type": "tuple"
        }
      ],
      "stateMutability": "nonpayable",
      "type": "function"
    },
    {
      "inputs": [
        {
          "internalType": "address",
          "name": "oldPositionBook",
          "type": "address"
        },
        {
          "internalType": "address",
          "name": "ls",
          "type": "address"
        },
        {
          "internalType": "address",
          "name": "ss",
          "type": "address"
        }
      ],
      "name": "initialize",
      "outputs": [],
      "stateMutability": "nonpayable",
      "type": "function"
    },
    {
      "inputs": [
        {
          "internalType": "address",
          "name": "_market",
          "type": "address"
        }
      ],
      "name": "initialize",
      "outputs": [],
      "stateMutability": "nonpayable",
      "type": "function"
    },
    {
      "inputs": [
        {
          "internalType": "address",
          "name": "account",
          "type": "address"
        },
        {
          "internalType": "uint256",
          "name": "markPrice",
          "type": "uint256"
        },
        {
          "internalType": "bool",
          "name": "isLong",
          "type": "bool"
        }
      ],
      "name": "liquidatePosition",
      "outputs": [
        {
          "components": [
            {
              "internalType": "address",
              "name": "market",
              "type": "address"
            },
            {
              "internalType": "bool",
              "name": "isLong",
              "type": "bool"
            },
            {
              "internalType": "uint32",
              "name": "lastTime",
              "type": "uint32"
            },
            {
              "internalType": "uint216",
              "name": "extra3",
              "type": "uint216"
            },
            {
              "internalType": "uint256",
              "name": "size",
              "type": "uint256"
            },
            {
              "internalType": "uint256",
              "name": "collateral",
              "type": "uint256"
            },
            {
              "internalType": "uint256",
              "name": "averagePrice",
              "type": "uint256"
            },
            {
              "internalType": "int256",
              "name": "entryFundingRate",
              "type": "int256"
            },
            {
              "internalType": "int256",
              "name": "realisedPnl",
              "type": "int256"
            },
            {
              "internalType": "uint256",
              "name": "extra0",
              "type": "uint256"
            },
            {
              "internalType": "uint256",
              "name": "extra1",
              "type": "uint256"
            },
            {
              "internalType": "uint256",
              "name": "extra2",
              "type": "uint256"
            }
          ],
          "internalType": "struct Position.Props",
          "name": "result",
          "type": "tuple"
        }
      ],
      "stateMutability": "nonpayable",
      "type": "function"
    },
    {
      "inputs": [],
      "name": "longStore",
      "outputs": [
        {
          "internalType": "contract PositionStoreV2",
          "name": "",
          "type": "address"
        }
      ],
      "stateMutability": "view",
      "type": "function"
    },
    {
      "inputs": [],
      "name": "market",
      "outputs": [
        {
          "internalType": "address",
          "name": "",
          "type": "address"
        }
      ],
      "stateMutability": "view",
      "type": "function"
    },
    {
      "inputs": [
        {
          "internalType": "bytes32",
          "name": "role",
          "type": "bytes32"
        },
        {
          "internalType": "address",
          "name": "account",
          "type": "address"
        }
      ],
      "name": "revokeRole",
      "outputs": [],
      "stateMutability": "pure",
      "type": "function"
    },
    {
      "inputs": [],
      "name": "shortStore",
      "outputs": [
        {
          "internalType": "contract PositionStoreV2",
          "name": "",
          "type": "address"
        }
      ],
      "stateMutability": "view",
      "type": "function"
    },
    {
      "inputs": [
        {
          "internalType": "address",
          "name": "to",
          "type": "address"
        }
      ],
      "name": "transferAdmin",
      "outputs": [],
      "stateMutability": "nonpayable",
      "type": "function"
    },
    {
      "inputs": [
        {
          "internalType": "address",
          "name": "newOwner",
          "type": "address"
        }
      ],
      "name": "transferOwnership",
      "outputs": [],
      "stateMutability": "pure",
      "type": "function"
    }
  ],
  "bytecode": "0x608060405234801561001057600080fd5b50614d7e806100206000396000f3fe60806040523480156200001157600080fd5b5060043610620001925760003560e01c8063a183861211620000f0578063d29d44ee11620000a3578063e62c0edf116200007a578063e62c0edf14620003be578063f115e8b514620003d5578063f2fde38b1462000393578063f3ec823d14620003ec57600080fd5b8063d29d44ee1462000393578063d547741f146200021b578063dd16feac14620003a757600080fd5b8063a1838612146200030b578063a217fddf146200031f578063b444f8ea1462000328578063bc95baad146200033f578063c0c53b8b1462000365578063c4d66de8146200037c57600080fd5b80637fe4a69811620001495780637fe4a698146200026f57806380f5560514620002865780638749694a146200029a5780638b3c1af614620002a45780638dd3fde314620002bb57806391d1485414620002e157600080fd5b80631460547214620001975780631aa2e39014620001c85780632ca6d2c014620001ee5780632f2ff15d146200021b5780633eeb530e146200023257806375829def1462000258575b600080fd5b600454620001ab906001600160a01b031681565b6040516001600160a01b0390911681526020015b60405180910390f35b620001df620001d936600462001c8c565b62000403565b604051908152602001620001bf565b62000205620001ff36600462001cc5565b62000438565b60408051928352602083019190915201620001bf565b620002306200022c36600462001ce5565b5050565b005b620002496200024336600462001cc5565b62000470565b604051620001bf919062001dc4565b620002306200026936600462001cc5565b620005ad565b620002306200028036600462001cc5565b620003a4565b600254620001ab906001600160a01b031681565b62000205620005b9565b620001df620002b536600462001e26565b620006ac565b620002d2620002cc36600462001e46565b62000742565b604051620001bf919062001e82565b620002fa620002f236600462001ce5565b600192915050565b6040519015158152602001620001bf565b600354620001ab906001600160a01b031681565b620001df600081565b620001df6200033936600462001ec5565b620007db565b620003566200035036600462001ec5565b62000841565b604051620001bf919062001f01565b620002306200037636600462001f12565b6200085a565b620002306200038d36600462001cc5565b62000bf1565b62000230620003a436600462001cc5565b50565b62000356620003b836600462001ec5565b62000f11565b62000356620003cf36600462001f59565b62001005565b62000356620003e636600462001fb4565b6200101e565b620001df620003fd36600462002017565b62001176565b6000806200041384600162001202565b90506200042283600062001202565b6200042e90826200207c565b9150505b92915050565b60008060006200044a84600162001254565b905060006200045b85600062001254565b60809283015192015191959194509092505050565b60606000620004838360006001620012f7565b905060006200049584600080620012f7565b905060008083608001511115620004b65780620004b281620020a7565b9150505b608082015115620004d15780620004cd81620020a7565b9150505b60008167ffffffffffffffff811115620004ef57620004ef620020c3565b6040519080825280602002602001820160405280156200052c57816020015b6200051862001bf5565b8152602001906001900390816200050e5790505b5090508115620005a457608084015160009250156200057757838183815181106200055b576200055b620020d9565b602002602001018190525081806200057390620020a7565b9250505b608083015115620005a45782818381518110620005985762000598620020d9565b60200260200101819052505b95945050505050565b60006200022c60003382565b600080600360009054906101000a90046001600160a01b03166001600160a01b0316631ee229be6040518163ffffffff1660e01b8152600401602060405180830381865afa15801562000610573d6000803e3d6000fd5b505050506040513d601f19601f82011682018060405250810190620006369190620020ef565b6004805460408051630f7114df60e11b815290516001600160a01b0390921692631ee229be9282820192602092908290030181865afa1580156200067e573d6000803e3d6000fd5b505050506040513d601f19601f82011682018060405250810190620006a49190620020ef565b915091509091565b60008082620006c7576004546001600160a01b0316620006d4565b6003546001600160a01b03165b9050806001600160a01b031663816834766040518163ffffffff1660e01b8152600401602060405180830381865afa15801562000715573d6000803e3d6000fd5b505050506040513d601f19601f820116820180604052508101906200073b9190620020ef565b9392505050565b606083831015620007a55760405162461bcd60e51b815260206004820152602260248201527f706f736974696f6e426f6f6b3a20696e76616c69642072616e676520706172616044820152616d7360f01b60648201526084015b60405180910390fd5b600082620007bf576004546001600160a01b0316620007cc565b6003546001600160a01b03165b9050620005a48186866200136c565b600080620007ea858462001254565b90508060a0015184111562000801578060a0015193505b6200080b62001bf5565b6200081f868660008560e00151886200147b565b90508060a001518260a0015162000837919062002109565b9695505050505050565b6200084b62001bf5565b6000620005a4858585620012f7565b600054610100900460ff16158080156200087b5750600054600160ff909116105b80620008975750303b15801562000897575060005460ff166001145b620008b65760405162461bcd60e51b81526004016200079c906200211f565b6000805460ff191660011790558015620008da576000805461ff0019166101001790555b620008e53362001624565b836001600160a01b03166380f556056040518163ffffffff1660e01b8152600401602060405180830381865afa15801562000924573d6000803e3d6000fd5b505050506040513d601f19601f820116820180604052508101906200094a91906200217f565b600280546001600160a01b03199081166001600160a01b039384161790915560038054821686841617905560048054909116848316178155604080516380f5560560e01b8152905162000a0a937fcb58d6d985142a614029cdf01861b4fe094d5919a47e69b8310dc4093d9d6ad093908916926380f5560592818301926020928290030181865afa158015620009e4573d6000803e3d6000fd5b505050506040513d601f19601f820116820180604052508101906200022c91906200217f565b6001600160a01b03841662000a5b5760405162461bcd60e51b8152602060048201526016602482015275696e76616c6964206f6c64207062206164647265737360501b60448201526064016200079c565b6002546001600160a01b031662000aae5760405162461bcd60e51b8152602060048201526016602482015275696e76616c7564206d61726b6574206164647265737360501b60448201526064016200079c565b6001600160a01b03831662000afb5760405162461bcd60e51b8152602060048201526012602482015271696e76616c7564206c73206164647265737360701b60448201526064016200079c565b6001600160a01b03821662000b485760405162461bcd60e51b8152602060048201526012602482015271696e76616c7564207373206164647265737360701b60448201526064016200079c565b600254600354600454604080516001600160a01b0394851681528885166020820152928416838201529216606082015290517f5edc8ea869616f496d39d6e322bcf51428437e1b570749b962ee9f1fbd2d4d999181900360800190a1801562000beb576000805461ff0019169055604051600181527f7f26b83ff96e1f2b6a682f133852f6798a09c465da95921460cefb38474024989060200160405180910390a15b50505050565b600054610100900460ff161580801562000c125750600054600160ff909116105b8062000c2e5750303b15801562000c2e575060005460ff166001145b62000c4d5760405162461bcd60e51b81526004016200079c906200211f565b6000805460ff19166001179055801562000c71576000805461ff0019166101001790555b62000c7c3362001624565b600280546001600160a01b0319166001600160a01b03841617905560405160009062000ca89062001c70565b604051809103906000f08015801562000cc5573d6000803e3d6000fd5b507fb53127684a568b3173ae13b9f8a6016e243e63b6e8ee1178d6a717850b5d6103546001600160a01b03166040805160208101825260008152905162000d0c9062001c7e565b62000d1a939291906200219f565b604051809103906000f08015801562000d37573d6000803e3d6000fd5b50600380546001600160a01b0319166001600160a01b03831690811790915560405163d53a822f60e01b8152600160048201529192509063d53a822f90602401600060405180830381600087803b15801562000d9257600080fd5b505af115801562000da7573d6000803e3d6000fd5b50505050600060405162000dbb9062001c70565b604051809103906000f08015801562000dd8573d6000803e3d6000fd5b507fb53127684a568b3173ae13b9f8a6016e243e63b6e8ee1178d6a717850b5d6103546001600160a01b03166040805160208101825260008152905162000e1f9062001c7e565b62000e2d939291906200219f565b604051809103906000f08015801562000e4a573d6000803e3d6000fd5b50600480546001600160a01b0319166001600160a01b038316908117825560405163d53a822f60e01b815260009281019290925291925063d53a822f90602401600060405180830381600087803b15801562000ea557600080fd5b505af115801562000eba573d6000803e3d6000fd5b5062000ec592505050565b505080156200022c576000805461ff0019169055604051600181527f7f26b83ff96e1f2b6a682f133852f6798a09c465da95921460cefb38474024989060200160405180910390a15050565b62000f1b62001bf5565b600062000f29858462001254565b905062000f398160800151151590565b62000f955760405162461bcd60e51b815260206004820152602560248201527f706f736974696f6e426f6f6b3a20706f736974696f6e20646f6573206e6f7420604482015264195e1a5cdd60da1b60648201526084016200079c565b831562000fd45760008062000fab83876200162b565b9150915060008262000fc85762000fc2826200220b565b62000fca565b815b6101008601525050505b62000fea858260a0015183608001518662001649565b6080808201519083015260a090810151908201529392505050565b6200100f62001bf5565b6200083786868686866200147b565b6200102862001bf5565b600062001036888462001254565b905080608001516000036200104d5760c081018590525b60008160800151118015620010625750600086115b15620010bf576000806200107783886200162b565b90925090506200108b8389898486620016fe565b60c0840152600082620010a957620010a3826200220b565b620010ab565b815b61010086015250505060c080820151908301525b620010e587620010d38360a001516200179a565b620010df91906200207c565b6200180a565b60a082015260e081018490526080810151620011039087906200222a565b6080820152821515602082015263ffffffff4216604082015262001127816200185e565b620011465760405162461bcd60e51b81526004016200079c9062002240565b62001158888489898960018762001896565b6080808201519083015260a090810151908201529695505050505050565b60008062001185868462001254565b905080608001516000036200119f576000915050620011fa565b600080620011ae83876200162b565b9150915086600014620011db576080830151620011cc828962002277565b620011d8919062002291565b90505b81620011f257620011ec816200220b565b620011f4565b805b93505050505b949350505050565b600080620012108362001944565b905080608001516000036200122a57600091505062000432565b6000806200123983876200162b565b9150915081620005a4576200124e816200220b565b62000837565b6200125e62001bf5565b60008262001278576004546001600160a01b031662001285565b6003546001600160a01b03165b6040516330af0bbf60e21b81526001600160a01b0386811660048301529192509082169063c2bc2efc9060240161018060405180830381865afa158015620012d1573d6000803e3d6000fd5b505050506040513d601f19601f820116820180604052508101906200042e91906200234f565b6200130162001bf5565b60006200130f858462001254565b905083600003620013225790506200073b565b608081015115620011fa576000806200133c83876200162b565b91509150600082620013595762001353826200220b565b6200135b565b815b610100850152505050949350505050565b60606000846001600160a01b031663816834766040518163ffffffff1660e01b8152600401602060405180830381865afa158015620013af573d6000803e3d6000fd5b505050506040513d601f19601f82011682018060405250810190620013d59190620020ef565b905080600003620013f75750506040805160008152602081019091526200073b565b8083111562001404578092505b604051637f497d9760e01b815260048101859052602481018490526001600160a01b03861690637f497d9790604401600060405180830381865afa15801562001451573d6000803e3d6000fd5b505050506040513d6000823e601f3d908101601f19168201604052620005a4919081019062002410565b6200148562001bf5565b600062001493878462001254565b9050620014a0816200185e565b620014bf5760405162461bcd60e51b81526004016200079c9062002240565b858160a001511015620015155760405162461bcd60e51b815260206004820181905260248201527f706f736974696f6e426f6f6b3a20696e76616c696420636f6c6c61746572616c60448201526064016200079c565b84816080015110156200156b5760405162461bcd60e51b815260206004820152601a60248201527f706f736974696f6e426f6f6b3a20696e76616c69642073697a6500000000000060448201526064016200079c565b848160800151146200160c5760e0810184905260808101516200159090869062002109565b608082015260a0810151620015a790879062002109565b60a0820152620015b7816200185e565b620015d65760405162461bcd60e51b81526004016200079c9062002240565b620015f28784620015e7896200179a565b886000808762001896565b6080808201519083015260a080820151908301526200161a565b6200161a8787878662001649565b5095945050505050565b4260015550565b60008080806200163c8686620019dd565b9097909650945050505050565b6000620016666200165a856200179a565b84600085600062001a70565b905060008262001682576004546001600160a01b03166200168f565b6003546001600160a01b03165b6040516305a02ac360e31b81529091506001600160a01b03821690632d01561890620016c29089908690600401620024c3565b600060405180830381600087803b158015620016dd57600080fd5b505af1158015620016f2573d6000803e3d6000fd5b50505050505050505050565b6000808587608001516200171391906200222a565b905060008760200151156200174e57836200173a5762001734858362002109565b62001746565b6200174685836200222a565b905062001775565b8362001766576200176085836200222a565b62001772565b62001772858362002109565b90505b8062001782838862002277565b6200178e919062002291565b98975050505050505050565b60006001600160ff1b03821115620018065760405162461bcd60e51b815260206004820152602860248201527f53616665436173743a2076616c756520646f65736e27742066697420696e2061604482015267371034b73a191a9b60c11b60648201526084016200079c565b5090565b600080821215620018065760405162461bcd60e51b815260206004820181905260248201527f53616665436173743a2076616c7565206d75737420626520706f73697469766560448201526064016200079c565b600081608001516000036200187557506000919050565b8160a00151826080015110156200188e57506000919050565b506001919050565b6000620018a78686868a8762001a70565b9050600087620018c3576004546001600160a01b0316620018d0565b6003546001600160a01b03165b60405163b7ed135760e01b81529091506001600160a01b0382169063b7ed13579062001905908c9087908790600401620024e3565b600060405180830381600087803b1580156200192057600080fd5b505af115801562001935573d6000803e3d6000fd5b50505050505050505050505050565b6200194e62001bf5565b60008262001968576004546001600160a01b031662001975565b6003546001600160a01b03165b9050806001600160a01b0316639027b59e6040518163ffffffff1660e01b815260040161018060405180830381865afa158015620019b7573d6000803e3d6000fd5b505050506040513d601f19601f820116820180604052508101906200073b91906200234f565b6000806000838560c001511162001a055760c0850151620019ff908562002109565b62001a17565b838560c0015162001a17919062002109565b905060008560c0015182876080015162001a32919062002277565b62001a3e919062002291565b9050600086602001511562001a5b575060c0860151851162001a65565b858760c001511190505b969095509350505050565b62001a7a62001bf5565b600062001a878462001944565b9050821562001b4c57600062001a9f82888862001b8e565b90506064811162001af35760405162461bcd60e51b815260206004820152601a60248201527f70623a696e76616c696420676c6f62616c20706f736974696f6e00000000000060448201526064016200079c565b60c0820181905260808201805188919062001b109083906200222a565b90525060a082015162001b2a908990620010d3906200179a565b60a083015250831515602082015263ffffffff421660408201529050620005a4565b858160800181815162001b60919062002109565b90525062001b6e876200180a565b8160a00181815162001b81919062002109565b9052509695505050505050565b6000836080015160000362001ba55750806200073b565b6000846080015111801562001bba5750600083115b1562001beb5760008062001bcf86856200162b565b909250905062001be38686868486620016fe565b60c087015250505b50505060c0015190565b60405180610180016040528060006001600160a01b03168152602001600015158152602001600063ffffffff16815260200160006001600160d81b0316815260200160008152602001600081526020016000815260200160008152602001600081526020016000815260200160008152602001600081525090565b611976806200251483390190565b610ebf8062003e8a83390190565b6000806040838503121562001ca057600080fd5b50508035926020909101359150565b6001600160a01b0381168114620003a457600080fd5b60006020828403121562001cd857600080fd5b81356200073b8162001caf565b6000806040838503121562001cf957600080fd5b82359150602083013562001d0d8162001caf565b809150509250929050565b80516001600160a01b03168252602081015162001d39602084018215159052565b50604081015162001d52604084018263ffffffff169052565b50606081015162001d6e60608401826001600160d81b03169052565b506080818101519083015260a0808201519083015260c0808201519083015260e0808201519083015261010080820151908301526101208082015190830152610140808201519083015261016090810151910152565b6020808252825182820181905260009190848201906040850190845b8181101562001e0b5762001df683855162001d18565b92840192610180929092019160010162001de0565b50909695505050505050565b8015158114620003a457600080fd5b60006020828403121562001e3957600080fd5b81356200073b8162001e17565b60008060006060848603121562001e5c57600080fd5b8335925060208401359150604084013562001e778162001e17565b809150509250925092565b6020808252825182820181905260009190848201906040850190845b8181101562001e0b5783516001600160a01b03168352928401929184019160010162001e9e565b60008060006060848603121562001edb57600080fd5b833562001ee88162001caf565b925060208401359150604084013562001e778162001e17565b610180810162000432828462001d18565b60008060006060848603121562001f2857600080fd5b833562001f358162001caf565b9250602084013562001f478162001caf565b9150604084013562001e778162001caf565b600080600080600060a0868803121562001f7257600080fd5b853562001f7f8162001caf565b9450602086013593506040860135925060608601359150608086013562001fa68162001e17565b809150509295509295909350565b60008060008060008060c0878903121562001fce57600080fd5b863562001fdb8162001caf565b95506020870135945060408701359350606087013592506080870135915060a0870135620020098162001e17565b809150509295509295509295565b600080600080608085870312156200202e57600080fd5b84356200203b8162001caf565b9350602085013592506040850135915060608501356200205b8162001e17565b939692955090935050565b634e487b7160e01b600052601160045260246000fd5b80820182811260008312801582168215821617156200209f576200209f62002066565b505092915050565b600060018201620020bc57620020bc62002066565b5060010190565b634e487b7160e01b600052604160045260246000fd5b634e487b7160e01b600052603260045260246000fd5b6000602082840312156200210257600080fd5b5051919050565b8181038181111562000432576200043262002066565b6020808252602e908201527f496e697469616c697a61626c653a20636f6e747261637420697320616c72656160408201526d191e481a5b9a5d1a585b1a5e995960921b606082015260800190565b80516200217a8162001caf565b919050565b6000602082840312156200219257600080fd5b81516200073b8162001caf565b600060018060a01b038086168352602081861681850152606060408501528451915081606085015260005b82811015620021e857858101820151858201608001528101620021ca565b50506000608082850101526080601f19601f830116840101915050949350505050565b6000600160ff1b820162002223576200222362002066565b5060000390565b8082018082111562000432576200043262002066565b6020808252601e908201527f706f736974696f6e426f6f6b3a20696e76616c696420706f736974696f6e0000604082015260600190565b808202811582820484141762000432576200043262002066565b600082620022af57634e487b7160e01b600052601260045260246000fd5b500490565b604051610180810167ffffffffffffffff81118282101715620022db57620022db620020c3565b60405290565b604051601f8201601f1916810167ffffffffffffffff811182821017156200230d576200230d620020c3565b604052919050565b80516200217a8162001e17565b805163ffffffff811681146200217a57600080fd5b80516001600160d81b03811681146200217a57600080fd5b600061018082840312156200236357600080fd5b6200236d620022b4565b62002378836200216d565b8152620023886020840162002315565b60208201526200239b6040840162002322565b6040820152620023ae6060840162002337565b60608201526080838101519082015260a0808401519082015260c0808401519082015260e08084015190820152610100808401519082015261012080840151908201526101408084015190820152610160928301519281019290925250919050565b600060208083850312156200242457600080fd5b825167ffffffffffffffff808211156200243d57600080fd5b818501915085601f8301126200245257600080fd5b815181811115620024675762002467620020c3565b8060051b91506200247a848301620022e1565b81815291830184019184810190888411156200249557600080fd5b938501935b838510156200178e5784519250620024b28362001caf565b82825293850193908501906200249a565b6001600160a01b03831681526101a081016200073b602083018462001d18565b6001600160a01b0384168152610320810162002503602083018562001d18565b620011fa6101a083018462001d1856fe608060405234801561001057600080fd5b50611956806100206000396000f3fe608060405234801561001057600080fd5b50600436106101375760003560e01c80637fe4a698116100b8578063b7ed13571161007c578063b7ed13571461027c578063c2bc2efc1461028f578063d29d44ee146102a2578063d53a822f146102b3578063d547741f14610185578063f2fde38b146102a257600080fd5b80637fe4a6981461022e57806381683476146102415780639027b59e1461024957806391d148541461025e578063a217fddf1461027457600080fd5b8063485cc955116100ff578063485cc955146101aa5780634efab042146101bd5780635dbe47e8146101e857806375829def146101fb5780637f497d971461020e57600080fd5b80631ee229be1461013c578063202a61a1146101535780632d015618146101705780632f2ff15d146101855780633e54bacb14610197575b600080fd5b6008545b6040519081526020015b60405180910390f35b6002546101609060ff1681565b604051901515815260200161014a565b61018361017e366004611256565b6102c6565b005b61018361019336600461128d565b5050565b6101836101a53660046112bd565b610591565b6101836101b83660046112df565b610a55565b6010546101d0906001600160a01b031681565b6040516001600160a01b03909116815260200161014a565b6101606101f636600461130d565b610c02565b61018361020936600461130d565b610c15565b61022161021c3660046112bd565b610c20565b60405161014a919061132a565b61018361023c36600461130d565b6102b0565b610140610c35565b610251610c46565b60405161014a9190611377565b61016061026c36600461128d565b600192915050565b610140600081565b61018361028a36600461142e565b610ce6565b61025161029d36600461130d565b610d78565b6101836102b036600461130d565b50565b6101836102c1366004611485565b610e3f565b60006102d3600484610f0f565b9050806103275760405162461bcd60e51b815260206004820152601760248201527f706f736974696f6e20646f6573206e6f7420657869737400000000000000000060448201526064015b60405180910390fd5b81600661033482826114fd565b905050600060036000856001600160a01b03166001600160a01b03168152602001908152602001600020604051806101800160405290816000820160009054906101000a90046001600160a01b03166001600160a01b03166001600160a01b031681526020016000820160149054906101000a900460ff161515151581526020016000820160159054906101000a900463ffffffff1663ffffffff1663ffffffff1681526020016001820160009054906101000a90046001600160d81b03166001600160d81b03166001600160d81b0316815260200160028201548152602001600382015481526020016004820154815260200160058201548152602001600682015481526020016007820154815260200160088201548152602001600982015481525050905060036000856001600160a01b03166001600160a01b03168152602001908152602001600020600080820160006101000a8154906001600160a01b0302191690556000820160146101000a81549060ff02191690556000820160156101000a81549063ffffffff02191690556001820160006101000a8154906001600160d81b030219169055600282016000905560038201600090556004820160009055600582016000905560068201600090556007820160009055600882016000905560098201600090555050610536846004610f3190919063ffffffff16565b50836001600160a01b03167f20b3ac24c835264e655c493af7b3db37ff78a0f358627f0de89832abc7e1deca82608001518360a00151604051610583929190918252602082015260400190565b60405180910390a250505050565b601054604051637f497d9760e01b815260048101849052602481018390526000916001600160a01b03169082908290637f497d9790604401600060405180830381865afa1580156105e6573d6000803e3d6000fd5b505050506040513d6000823e601f3d908101601f1916820160405261060e9190810190611692565b9050816001600160a01b0316639027b59e6040518163ffffffff1660e01b815260040161018060405180830381865afa15801561064f573d6000803e3d6000fd5b505050506040513d601f19601f820116820180604052508101906106739190611765565b8051600680546020840151604085015163ffffffff16600160a81b0263ffffffff60a81b19911515600160a01b026001600160a81b03199093166001600160a01b039095169490941791909117169190911790556060810151600780546001600160d81b039092166001600160d81b0319909216919091179055608081015160085560a081015160095560c0810151600a5560e0810151600b55610100810151600c55610120810151600d55610140810151600e556101600151600f556000805b825181101561093f5760008382815181106107515761075161181b565b60209081029190910101516040516330af0bbf60e21b81526001600160a01b03808316600483015291925060009187169063c2bc2efc9060240161018060405180830381865afa1580156107a9573d6000803e3d6000fd5b505050506040513d601f19601f820116820180604052508101906107cd9190611765565b6001600160a01b0383811660009081526003602081815260409283902085518154928701519487015195166001600160a81b031990921691909117600160a01b931515939093029290921763ffffffff60a81b1916600160a81b63ffffffff9485160217825560608401516001830180546001600160d81b0319166001600160d81b039092169190911790556080840151600283015560a08401519082015560c083015160048083019190915560e084015160058301556101008401516006830155610120840151600783015561014084015160088301556101608401516009909201919091559192506108c491908490610f4616565b5060808101516108d49085611847565b9350816001600160a01b03167f0d77a4156ff764dade22a2cd25a68a83ff04b20df143bba5d162a6a98070262382608001518360a00151604051610922929190918252602082015260400190565b60405180910390a2505080806109379061185a565b915050610734565b5060085481146109915760405162461bcd60e51b815260206004820152601960248201527f6d6967726174696f6e2073697a6520646f6573206d6174636800000000000000604482015260640161031e565b610999610c35565b836001600160a01b031663816834766040518163ffffffff1660e01b8152600401602060405180830381865afa1580156109d7573d6000803e3d6000fd5b505050506040513d601f19601f820116820180604052508101906109fb9190611873565b14610a0557600080fd5b60105460408051888152602081018890526001600160a01b03909216917f3aa0cc68900a51ae3ff7d219e3de8c619d53584ccd442af0ba1636cb78fc42d7910160405180910390a2505050505050565b600054610100900460ff1615808015610a755750600054600160ff909116105b80610a8f5750303b158015610a8f575060005460ff166001145b610aab5760405162461bcd60e51b815260040161031e9061188c565b6000805460ff191660011790558015610ace576000805461ff0019166101001790555b610ad733610f5b565b601080546001600160a01b0319166001600160a01b0385169081179091556040805163202a61a160e01b8152905163202a61a1916004808201926020929091908290030181865afa158015610b30573d6000803e3d6000fd5b505050506040513d601f19601f82011682018060405250810190610b5491906118da565b6002805460ff19169115159182179055601054604080516001600160a01b03868116825260ff909416151560208201529290911682820152517fc3f74e23ed9c93c3a26c292a1fd4756463ce8a3d6c4d09ab27155e53332f3d6f9181900360600190a18015610bfd576000805461ff0019169055604051600181527f7f26b83ff96e1f2b6a682f133852f6798a09c465da95921460cefb38474024989060200160405180910390a15b505050565b6000610c0f600483610f0f565b92915050565b600061019360003382565b6060610c2e60048484610f62565b9392505050565b6000610c416004611030565b905090565b610c4e6111ad565b5060408051610180810182526006546001600160a01b0381168252600160a01b810460ff1615156020830152600160a81b900463ffffffff16918101919091526007546001600160d81b03166060820152600854608082015260095460a0820152600a5460c0820152600b5460e0820152600c54610100820152600d54610120820152600e54610140820152600f5461016082015290565b806006610cf382826114fd565b50506001600160a01b03831660009081526003602052604090208290610d1982826114fd565b50610d279050600484610f46565b50604080516080840135815260a084013560208201526001600160a01b038516917f0d77a4156ff764dade22a2cd25a68a83ff04b20df143bba5d162a6a980702623910160405180910390a2505050565b610d806111ad565b506001600160a01b0390811660009081526003602081815260409283902083516101808101855281549586168152600160a01b860460ff16151592810192909252600160a81b90940463ffffffff169281019290925260018301546001600160d81b031660608301526002830154608083015282015460a0820152600482015460c0820152600582015460e082015260068201546101008201526007820154610120820152600882015461014082015260099091015461016082015290565b600054610100900460ff1615808015610e5f5750600054600160ff909116105b80610e795750303b158015610e79575060005460ff166001145b610e955760405162461bcd60e51b815260040161031e9061188c565b6000805460ff191660011790558015610eb8576000805461ff0019166101001790555b6002805460ff19168315151790558015610193576000805461ff0019169055604051600181527f7f26b83ff96e1f2b6a682f133852f6798a09c465da95921460cefb38474024989060200160405180910390a15050565b6001600160a01b03811660009081526001830160205260408120541515610c2e565b6000610c2e836001600160a01b03841661103a565b6000610c2e836001600160a01b03841661112d565b4260015550565b60606000610f6f85611030565b905080831115610f7d578092505b6000610f8985856118f7565b67ffffffffffffffff811115610fa157610fa1611611565b604051908082528060200260200182016040528015610fca578160200160208202803683370190505b509050845b8481101561102657610fe1878261117c565b82610fec88846118f7565b81518110610ffc57610ffc61181b565b6001600160a01b03909216602092830291909101909101528061101e8161185a565b915050610fcf565b5095945050505050565b6000610c0f825490565b6000818152600183016020526040812054801561112357600061105e6001836118f7565b8554909150600090611072906001906118f7565b90508181146110d75760008660000182815481106110925761109261181b565b90600052602060002001549050808760000184815481106110b5576110b561181b565b6000918252602080832090910192909255918252600188019052604090208390555b85548690806110e8576110e861190a565b600190038181906000526020600020016000905590558560010160008681526020019081526020016000206000905560019350505050610c0f565b6000915050610c0f565b600081815260018301602052604081205461117457508154600181810184556000848152602080822090930184905584548482528286019093526040902091909155610c0f565b506000610c0f565b6000610c2e8383600082600001828154811061119a5761119a61181b565b9060005260206000200154905092915050565b60405180610180016040528060006001600160a01b03168152602001600015158152602001600063ffffffff16815260200160006001600160d81b0316815260200160008152602001600081526020016000815260200160008152602001600081526020016000815260200160008152602001600081525090565b6001600160a01b03811681146102b057600080fd5b6000610180828403121561125057600080fd5b50919050565b6000806101a0838503121561126a57600080fd5b823561127581611228565b9150611284846020850161123d565b90509250929050565b600080604083850312156112a057600080fd5b8235915060208301356112b281611228565b809150509250929050565b600080604083850312156112d057600080fd5b50508035926020909101359150565b600080604083850312156112f257600080fd5b82356112fd81611228565b915060208301356112b281611228565b60006020828403121561131f57600080fd5b8135610c2e81611228565b6020808252825182820181905260009190848201906040850190845b8181101561136b5783516001600160a01b031683529284019291840191600101611346565b50909695505050505050565b81516001600160a01b031681526101808101602083015161139c602084018215159052565b5060408301516113b4604084018263ffffffff169052565b5060608301516113cf60608401826001600160d81b03169052565b506080830151608083015260a083015160a083015260c083015160c083015260e083015160e083015261010080840151818401525061012080840151818401525061014080840151818401525061016080840151818401525092915050565b6000806000610320848603121561144457600080fd5b833561144f81611228565b925061145e856020860161123d565b915061146e856101a0860161123d565b90509250925092565b80151581146102b057600080fd5b60006020828403121561149757600080fd5b8135610c2e81611477565b60008135610c0f81611228565b60008135610c0f81611477565b63ffffffff811681146102b057600080fd5b60008135610c0f816114bc565b6001600160d81b03811681146102b057600080fd5b60008135610c0f816114db565b611526611509836114a2565b82546001600160a01b0319166001600160a01b0391909116178255565b611553611535602084016114af565b82805460ff60a01b191691151560a01b60ff60a01b16919091179055565b611586611562604084016114ce565b82805463ffffffff60a81b191660a89290921b63ffffffff60a81b16919091179055565b6115b9611595606084016114f0565b6001830180546001600160d81b0319166001600160d81b0392909216919091179055565b6080820135600282015560a0820135600382015560c0820135600482015560e0820135600582015561010082013560068201556101208201356007820155610140820135600882015561016082013560098201555050565b634e487b7160e01b600052604160045260246000fd5b604051610180810167ffffffffffffffff8111828210171561164b5761164b611611565b60405290565b604051601f8201601f1916810167ffffffffffffffff8111828210171561167a5761167a611611565b604052919050565b805161168d81611228565b919050565b600060208083850312156116a557600080fd5b825167ffffffffffffffff808211156116bd57600080fd5b818501915085601f8301126116d157600080fd5b8151818111156116e3576116e3611611565b8060051b91506116f4848301611651565b818152918301840191848101908884111561170e57600080fd5b938501935b83851015611738578451925061172883611228565b8282529385019390850190611713565b98975050505050505050565b805161168d81611477565b805161168d816114bc565b805161168d816114db565b6000610180828403121561177857600080fd5b611780611627565b61178983611682565b815261179760208401611744565b60208201526117a86040840161174f565b60408201526117b96060840161175a565b60608201526080838101519082015260a0808401519082015260c0808401519082015260e08084015190820152610100808401519082015261012080840151908201526101408084015190820152610160928301519281019290925250919050565b634e487b7160e01b600052603260045260246000fd5b634e487b7160e01b600052601160045260246000fd5b80820180821115610c0f57610c0f611831565b60006001820161186c5761186c611831565b5060010190565b60006020828403121561188557600080fd5b5051919050565b6020808252602e908201527f496e697469616c697a61626c653a20636f6e747261637420697320616c72656160408201526d191e481a5b9a5d1a585b1a5e995960921b606082015260800190565b6000602082840312156118ec57600080fd5b8151610c2e81611477565b81810381811115610c0f57610c0f611831565b634e487b7160e01b600052603160045260246000fdfea264697066735822122070d6d7e1ec36cff17a9d29c2a2b3c23f10b83da15ddc53fe3fec81c6fa8f98cc64736f6c63430008110033608060405260405162000ebf38038062000ebf833981016040819052620000269162000497565b828162000036828260006200004d565b50620000449050826200008a565b505050620005ca565b6200005883620000e5565b600082511180620000665750805b1562000085576200008383836200012760201b620001691760201c565b505b505050565b7f7e644d79422f17c01e4894b5f4f588d331ebfa28653d42ae832dc59e38c9798f620000b562000156565b604080516001600160a01b03928316815291841660208301520160405180910390a1620000e2816200018f565b50565b620000f08162000244565b6040516001600160a01b038216907fbc7cd75a20ee27fd9adebab32041f755214dbc6bffa90cc0225b39da2e5c2d3b90600090a250565b60606200014f838360405180606001604052806027815260200162000e9860279139620002f8565b9392505050565b60006200018060008051602062000e7883398151915260001b6200037760201b620001951760201c565b546001600160a01b0316919050565b6001600160a01b038116620001fa5760405162461bcd60e51b815260206004820152602660248201527f455243313936373a206e65772061646d696e20697320746865207a65726f206160448201526564647265737360d01b60648201526084015b60405180910390fd5b806200022360008051602062000e7883398151915260001b6200037760201b620001951760201c565b80546001600160a01b0319166001600160a01b039290921691909117905550565b6200025a816200037a60201b620001981760201c565b620002be5760405162461bcd60e51b815260206004820152602d60248201527f455243313936373a206e657720696d706c656d656e746174696f6e206973206e60448201526c1bdd08184818dbdb9d1c9858dd609a1b6064820152608401620001f1565b80620002237f360894a13ba1a3210667c828492db98dca3e2076cc3735a920a3ca505d382bbc60001b6200037760201b620001951760201c565b6060600080856001600160a01b03168560405162000317919062000577565b600060405180830381855af49150503d806000811462000354576040519150601f19603f3d011682016040523d82523d6000602084013e62000359565b606091505b5090925090506200036d8683838762000389565b9695505050505050565b90565b6001600160a01b03163b151590565b60608315620003fd578251600003620003f5576001600160a01b0385163b620003f55760405162461bcd60e51b815260206004820152601d60248201527f416464726573733a2063616c6c20746f206e6f6e2d636f6e74726163740000006044820152606401620001f1565b508162000409565b62000409838362000411565b949350505050565b815115620004225781518083602001fd5b8060405162461bcd60e51b8152600401620001f1919062000595565b80516001600160a01b03811681146200045657600080fd5b919050565b634e487b7160e01b600052604160045260246000fd5b60005b838110156200048e57818101518382015260200162000474565b50506000910152565b600080600060608486031215620004ad57600080fd5b620004b8846200043e565b9250620004c8602085016200043e565b60408501519092506001600160401b0380821115620004e657600080fd5b818601915086601f830112620004fb57600080fd5b8151818111156200051057620005106200045b565b604051601f8201601f19908116603f011681019083821181831017156200053b576200053b6200045b565b816040528281528960208487010111156200055557600080fd5b6200056883602083016020880162000471565b80955050505050509250925092565b600082516200058b81846020870162000471565b9190910192915050565b6020815260008251806020840152620005b681604085016020870162000471565b601f01601f19169190910160400192915050565b61089e80620005da6000396000f3fe60806040523661001357610011610017565b005b6100115b61001f6101a7565b6001600160a01b0316330361015f5760606001600160e01b0319600035166364d3180d60e11b810161005a576100536101da565b9150610157565b63587086bd60e11b6001600160e01b031982160161007a57610053610231565b63070d7c6960e41b6001600160e01b031982160161009a57610053610277565b621eb96f60e61b6001600160e01b03198216016100b9576100536102a8565b63a39f25e560e01b6001600160e01b03198216016100d9576100536102e8565b60405162461bcd60e51b815260206004820152604260248201527f5472616e73706172656e745570677261646561626c6550726f78793a2061646d60448201527f696e2063616e6e6f742066616c6c6261636b20746f2070726f78792074617267606482015261195d60f21b608482015260a4015b60405180910390fd5b815160208301f35b6101676102fc565b565b606061018e83836040518060600160405280602781526020016108426027913961030c565b9392505050565b90565b6001600160a01b03163b151590565b60007fb53127684a568b3173ae13b9f8a6016e243e63b6e8ee1178d6a717850b5d61035b546001600160a01b0316919050565b60606101e4610384565b60006101f33660048184610695565b81019061020091906106db565b905061021d8160405180602001604052806000815250600061038f565b505060408051602081019091526000815290565b60606000806102433660048184610695565b810190610250919061070c565b915091506102608282600161038f565b604051806020016040528060008152509250505090565b6060610281610384565b60006102903660048184610695565b81019061029d91906106db565b905061021d816103bb565b60606102b2610384565b60006102bc6101a7565b604080516001600160a01b03831660208201529192500160405160208183030381529060405291505090565b60606102f2610384565b60006102bc610412565b610167610307610412565b610421565b6060600080856001600160a01b03168560405161032991906107f2565b600060405180830381855af49150503d8060008114610364576040519150601f19603f3d011682016040523d82523d6000602084013e610369565b606091505b509150915061037a86838387610445565b9695505050505050565b341561016757600080fd5b610398836104c6565b6000825111806103a55750805b156103b6576103b48383610169565b505b505050565b7f7e644d79422f17c01e4894b5f4f588d331ebfa28653d42ae832dc59e38c9798f6103e46101a7565b604080516001600160a01b03928316815291841660208301520160405180910390a161040f81610506565b50565b600061041c6105af565b905090565b3660008037600080366000845af43d6000803e808015610440573d6000f35b3d6000fd5b606083156104b45782516000036104ad576001600160a01b0385163b6104ad5760405162461bcd60e51b815260206004820152601d60248201527f416464726573733a2063616c6c20746f206e6f6e2d636f6e7472616374000000604482015260640161014e565b50816104be565b6104be83836105d7565b949350505050565b6104cf81610601565b6040516001600160a01b038216907fbc7cd75a20ee27fd9adebab32041f755214dbc6bffa90cc0225b39da2e5c2d3b90600090a250565b6001600160a01b03811661056b5760405162461bcd60e51b815260206004820152602660248201527f455243313936373a206e65772061646d696e20697320746865207a65726f206160448201526564647265737360d01b606482015260840161014e565b807fb53127684a568b3173ae13b9f8a6016e243e63b6e8ee1178d6a717850b5d61035b80546001600160a01b0319166001600160a01b039290921691909117905550565b60007f360894a13ba1a3210667c828492db98dca3e2076cc3735a920a3ca505d382bbc6101cb565b8151156105e75781518083602001fd5b8060405162461bcd60e51b815260040161014e919061080e565b6001600160a01b0381163b61066e5760405162461bcd60e51b815260206004820152602d60248201527f455243313936373a206e657720696d706c656d656e746174696f6e206973206e60448201526c1bdd08184818dbdb9d1c9858dd609a1b606482015260840161014e565b807f360894a13ba1a3210667c828492db98dca3e2076cc3735a920a3ca505d382bbc61058e565b600080858511156106a557600080fd5b838611156106b257600080fd5b5050820193919092039150565b80356001600160a01b03811681146106d657600080fd5b919050565b6000602082840312156106ed57600080fd5b61018e826106bf565b634e487b7160e01b600052604160045260246000fd5b6000806040838503121561071f57600080fd5b610728836106bf565b9150602083013567ffffffffffffffff8082111561074557600080fd5b818501915085601f83011261075957600080fd5b81358181111561076b5761076b6106f6565b604051601f8201601f19908116603f01168101908382118183101715610793576107936106f6565b816040528281528860208487010111156107ac57600080fd5b8260208601602083013760006020848301015280955050505050509250929050565b60005b838110156107e95781810151838201526020016107d1565b50506000910152565b600082516108048184602087016107ce565b9190910192915050565b602081526000825180602084015261082d8160408501602087016107ce565b601f01601f1916919091016040019291505056fe416464726573733a206c6f772d6c6576656c2064656c65676174652063616c6c206661696c6564a2646970667358221220fb93d010679553c8505fc6b5f80cc81f93a1bd54a296aaab151f4bc9f6bb23ef64736f6c63430008110033b53127684a568b3173ae13b9f8a6016e243e63b6e8ee1178d6a717850b5d6103416464726573733a206c6f772d6c6576656c2064656c65676174652063616c6c206661696c6564a2646970667358221220e39c1d1965ad5aa3f3c0ed82ace11aeeff81004ce42d944d115bdd8586db3b7864736f6c63430008110033",
  "linkReferences": {},
  "deployedLinkReferences": {}
}