{
  "_format": "hh-sol-artifact-1",
  "contractName": "PositionBookV2",
  "sourceName": "contracts/position/PositionBookV2.sol",
  "abi": [
    {
      "anonymous": false,
      "inputs": [
        {
          "indexed": false,
          "internalType": "uint8",
          "name": "version",
          "type": "uint8"
        }
      ],
      "name": "Initialized",
      "type": "event"
    },
    {
      "anonymous": false,
      "inputs": [
        {
          "indexed": false,
          "internalType": "address",
          "name": "market",
          "type": "address"
        },
        {
          "indexed": false,
          "internalType": "address",
          "name": "oldPositionBook",
          "type": "address"
        },
        {
          "indexed": false,
          "internalType": "address",
          "name": "longStore",
          "type": "address"
        },
        {
          "indexed": false,
          "internalType": "address",
          "name": "shortStore",
          "type": "address"
        }
      ],
      "name": "PositionBookV2Initialized",
      "type": "event"
    },
    {
      "inputs": [],
      "name": "DEFAULT_ADMIN_ROLE",
      "outputs": [
        {
          "internalType": "bytes32",
          "name": "",
          "type": "bytes32"
        }
      ],
      "stateMutability": "view",
      "type": "function"
    },
    {
      "inputs": [
        {
          "internalType": "address",
          "name": "newOwner",
          "type": "address"
        }
      ],
      "name": "_transferOwnership",
      "outputs": [],
      "stateMutability": "pure",
      "type": "function"
    },
    {
      "inputs": [
        {
          "internalType": "address",
          "name": "account",
          "type": "address"
        },
        {
          "internalType": "uint256",
          "name": "collateralDelta",
          "type": "uint256"
        },
        {
          "internalType": "bool",
          "name": "isLong",
          "type": "bool"
        }
      ],
      "name": "decreaseCollateralFromCancelInvalidOrder",
      "outputs": [
        {
          "internalType": "uint256",
          "name": "",
          "type": "uint256"
        }
      ],
      "stateMutability": "nonpayable",
      "type": "function"
    },
    {
      "inputs": [
        {
          "internalType": "address",
          "name": "account",
          "type": "address"
        },
        {
          "internalType": "uint256",
          "name": "collateralDelta",
          "type": "uint256"
        },
        {
          "internalType": "uint256",
          "name": "sizeDelta",
          "type": "uint256"
        },
        {
          "internalType": "int256",
          "name": "fundingRate",
          "type": "int256"
        },
        {
          "internalType": "bool",
          "name": "isLong",
          "type": "bool"
        }
      ],
      "name": "decreasePosition",
      "outputs": [
        {
          "components": [
            {
              "internalType": "address",
              "name": "market",
              "type": "address"
            },
            {
              "internalType": "bool",
              "name": "isLong",
              "type": "bool"
            },
            {
              "internalType": "uint32",
              "name": "lastTime",
              "type": "uint32"
            },
            {
              "internalType": "uint216",
              "name": "extra3",
              "type": "uint216"
            },
            {
              "internalType": "uint256",
              "name": "size",
              "type": "uint256"
            },
            {
              "internalType": "uint256",
              "name": "collateral",
              "type": "uint256"
            },
            {
              "internalType": "uint256",
              "name": "averagePrice",
              "type": "uint256"
            },
            {
              "internalType": "int256",
              "name": "entryFundingRate",
              "type": "int256"
            },
            {
              "internalType": "int256",
              "name": "realisedPnl",
              "type": "int256"
            },
            {
              "internalType": "uint256",
              "name": "extra0",
              "type": "uint256"
            },
            {
              "internalType": "uint256",
              "name": "extra1",
              "type": "uint256"
            },
            {
              "internalType": "uint256",
              "name": "extra2",
              "type": "uint256"
            }
          ],
          "internalType": "struct Position.Props",
          "name": "result",
          "type": "tuple"
        }
      ],
      "stateMutability": "nonpayable",
      "type": "function"
    },
    {
      "inputs": [
        {
          "internalType": "address",
          "name": "account",
          "type": "address"
        }
      ],
      "name": "getAccountSize",
      "outputs": [
        {
          "internalType": "uint256",
          "name": "",
          "type": "uint256"
        },
        {
          "internalType": "uint256",
          "name": "",
          "type": "uint256"
        }
      ],
      "stateMutability": "view",
      "type": "function"
    },
    {
      "inputs": [
        {
          "internalType": "uint256",
          "name": "longPrice",
          "type": "uint256"
        },
        {
          "internalType": "uint256",
          "name": "shortPrice",
          "type": "uint256"
        }
      ],
      "name": "getMarketPNL",
      "outputs": [
        {
          "internalType": "int256",
          "name": "",
          "type": "int256"
        }
      ],
      "stateMutability": "view",
      "type": "function"
    },
    {
      "inputs": [],
      "name": "getMarketSizes",
      "outputs": [
        {
          "internalType": "uint256",
          "name": "",
          "type": "uint256"
        },
        {
          "internalType": "uint256",
          "name": "",
          "type": "uint256"
        }
      ],
      "stateMutability": "view",
      "type": "function"
    },
    {
      "inputs": [
        {
          "internalType": "address",
          "name": "account",
          "type": "address"
        },
        {
          "internalType": "uint256",
          "name": "sizeDelta",
          "type": "uint256"
        },
        {
          "internalType": "uint256",
          "name": "markPrice",
          "type": "uint256"
        },
        {
          "internalType": "bool",
          "name": "isLong",
          "type": "bool"
        }
      ],
      "name": "getPNL",
      "outputs": [
        {
          "internalType": "int256",
          "name": "",
          "type": "int256"
        }
      ],
      "stateMutability": "view",
      "type": "function"
    },
    {
      "inputs": [
        {
          "internalType": "address",
          "name": "account",
          "type": "address"
        },
        {
          "internalType": "uint256",
          "name": "markPrice",
          "type": "uint256"
        },
        {
          "internalType": "bool",
          "name": "isLong",
          "type": "bool"
        }
      ],
      "name": "getPosition",
      "outputs": [
        {
          "components": [
            {
              "internalType": "address",
              "name": "market",
              "type": "address"
            },
            {
              "internalType": "bool",
              "name": "isLong",
              "type": "bool"
            },
            {
              "internalType": "uint32",
              "name": "lastTime",
              "type": "uint32"
            },
            {
              "internalType": "uint216",
              "name": "extra3",
              "type": "uint216"
            },
            {
              "internalType": "uint256",
              "name": "size",
              "type": "uint256"
            },
            {
              "internalType": "uint256",
              "name": "collateral",
              "type": "uint256"
            },
            {
              "internalType": "uint256",
              "name": "averagePrice",
              "type": "uint256"
            },
            {
              "internalType": "int256",
              "name": "entryFundingRate",
              "type": "int256"
            },
            {
              "internalType": "int256",
              "name": "realisedPnl",
              "type": "int256"
            },
            {
              "internalType": "uint256",
              "name": "extra0",
              "type": "uint256"
            },
            {
              "internalType": "uint256",
              "name": "extra1",
              "type": "uint256"
            },
            {
              "internalType": "uint256",
              "name": "extra2",
              "type": "uint256"
            }
          ],
          "internalType": "struct Position.Props",
          "name": "",
          "type": "tuple"
        }
      ],
      "stateMutability": "view",
      "type": "function"
    },
    {
      "inputs": [
        {
          "internalType": "bool",
          "name": "isLong",
          "type": "bool"
        }
      ],
      "name": "getPositionCount",
      "outputs": [
        {
          "internalType": "uint256",
          "name": "",
          "type": "uint256"
        }
      ],
      "stateMutability": "view",
      "type": "function"
    },
    {
      "inputs": [
        {
          "internalType": "uint256",
          "name": "start",
          "type": "uint256"
        },
        {
          "internalType": "uint256",
          "name": "end",
          "type": "uint256"
        },
        {
          "internalType": "bool",
          "name": "isLong",
          "type": "bool"
        }
      ],
      "name": "getPositionKeys",
      "outputs": [
        {
          "internalType": "address[]",
          "name": "",
          "type": "address[]"
        }
      ],
      "stateMutability": "view",
      "type": "function"
    },
    {
      "inputs": [
        {
          "internalType": "address",
          "name": "account",
          "type": "address"
        }
      ],
      "name": "getPositions",
      "outputs": [
        {
          "components": [
            {
              "internalType": "address",
              "name": "market",
              "type": "address"
            },
            {
              "internalType": "bool",
              "name": "isLong",
              "type": "bool"
            },
            {
              "internalType": "uint32",
              "name": "lastTime",
              "type": "uint32"
            },
            {
              "internalType": "uint216",
              "name": "extra3",
              "type": "uint216"
            },
            {
              "internalType": "uint256",
              "name": "size",
              "type": "uint256"
            },
            {
              "internalType": "uint256",
              "name": "collateral",
              "type": "uint256"
            },
            {
              "internalType": "uint256",
              "name": "averagePrice",
              "type": "uint256"
            },
            {
              "internalType": "int256",
              "name": "entryFundingRate",
              "type": "int256"
            },
            {
              "internalType": "int256",
              "name": "realisedPnl",
              "type": "int256"
            },
            {
              "internalType": "uint256",
              "name": "extra0",
              "type": "uint256"
            },
            {
              "internalType": "uint256",
              "name": "extra1",
              "type": "uint256"
            },
            {
              "internalType": "uint256",
              "name": "extra2",
              "type": "uint256"
            }
          ],
          "internalType": "struct Position.Props[]",
          "name": "",
          "type": "tuple[]"
        }
      ],
      "stateMutability": "view",
      "type": "function"
    },
    {
      "inputs": [
        {
          "internalType": "address",
          "name": "_account",
          "type": "address"
        }
      ],
      "name": "grantControllerRoleByMarketManager",
      "outputs": [],
      "stateMutability": "nonpayable",
      "type": "function"
    },
    {
      "inputs": [
        {
          "internalType": "bytes32",
          "name": "role",
          "type": "bytes32"
        },
        {
          "internalType": "address",
          "name": "account",
          "type": "address"
        }
      ],
      "name": "grantRole",
      "outputs": [],
      "stateMutability": "pure",
      "type": "function"
    },
    {
      "inputs": [
        {
          "internalType": "bytes32",
          "name": "role",
          "type": "bytes32"
        },
        {
          "internalType": "address",
          "name": "account",
          "type": "address"
        }
      ],
      "name": "hasRole",
      "outputs": [
        {
          "internalType": "bool",
          "name": "",
          "type": "bool"
        }
      ],
      "stateMutability": "pure",
      "type": "function"
    },
    {
      "inputs": [
        {
          "internalType": "address",
          "name": "account",
          "type": "address"
        },
        {
          "internalType": "int256",
          "name": "collateralDelta",
          "type": "int256"
        },
        {
          "internalType": "uint256",
          "name": "sizeDelta",
          "type": "uint256"
        },
        {
          "internalType": "uint256",
          "name": "markPrice",
          "type": "uint256"
        },
        {
          "internalType": "int256",
          "name": "fundingRate",
          "type": "int256"
        },
        {
          "internalType": "bool",
          "name": "isLong",
          "type": "bool"
        }
      ],
      "name": "increasePosition",
      "outputs": [
        {
          "components": [
            {
              "internalType": "address",
              "name": "market",
              "type": "address"
            },
            {
              "internalType": "bool",
              "name": "isLong",
              "type": "bool"
            },
            {
              "internalType": "uint32",
              "name": "lastTime",
              "type": "uint32"
            },
            {
              "internalType": "uint216",
              "name": "extra3",
              "type": "uint216"
            },
            {
              "internalType": "uint256",
              "name": "size",
              "type": "uint256"
            },
            {
              "internalType": "uint256",
              "name": "collateral",
              "type": "uint256"
            },
            {
              "internalType": "uint256",
              "name": "averagePrice",
              "type": "uint256"
            },
            {
              "internalType": "int256",
              "name": "entryFundingRate",
              "type": "int256"
            },
            {
              "internalType": "int256",
              "name": "realisedPnl",
              "type": "int256"
            },
            {
              "internalType": "uint256",
              "name": "extra0",
              "type": "uint256"
            },
            {
              "internalType": "uint256",
              "name": "extra1",
              "type": "uint256"
            },
            {
              "internalType": "uint256",
              "name": "extra2",
              "type": "uint256"
            }
          ],
          "internalType": "struct Position.Props",
          "name": "result",
          "type": "tuple"
        }
      ],
      "stateMutability": "nonpayable",
      "type": "function"
    },
    {
      "inputs": [
        {
          "internalType": "address",
          "name": "oldPositionBook",
          "type": "address"
        },
        {
          "internalType": "address",
          "name": "ls",
          "type": "address"
        },
        {
          "internalType": "address",
          "name": "ss",
          "type": "address"
        }
      ],
      "name": "initialize",
      "outputs": [],
      "stateMutability": "nonpayable",
      "type": "function"
    },
    {
      "inputs": [
        {
          "internalType": "address",
          "name": "account",
          "type": "address"
        },
        {
          "internalType": "uint256",
          "name": "markPrice",
          "type": "uint256"
        },
        {
          "internalType": "bool",
          "name": "isLong",
          "type": "bool"
        }
      ],
      "name": "liquidatePosition",
      "outputs": [
        {
          "components": [
            {
              "internalType": "address",
              "name": "market",
              "type": "address"
            },
            {
              "internalType": "bool",
              "name": "isLong",
              "type": "bool"
            },
            {
              "internalType": "uint32",
              "name": "lastTime",
              "type": "uint32"
            },
            {
              "internalType": "uint216",
              "name": "extra3",
              "type": "uint216"
            },
            {
              "internalType": "uint256",
              "name": "size",
              "type": "uint256"
            },
            {
              "internalType": "uint256",
              "name": "collateral",
              "type": "uint256"
            },
            {
              "internalType": "uint256",
              "name": "averagePrice",
              "type": "uint256"
            },
            {
              "internalType": "int256",
              "name": "entryFundingRate",
              "type": "int256"
            },
            {
              "internalType": "int256",
              "name": "realisedPnl",
              "type": "int256"
            },
            {
              "internalType": "uint256",
              "name": "extra0",
              "type": "uint256"
            },
            {
              "internalType": "uint256",
              "name": "extra1",
              "type": "uint256"
            },
            {
              "internalType": "uint256",
              "name": "extra2",
              "type": "uint256"
            }
          ],
          "internalType": "struct Position.Props",
          "name": "result",
          "type": "tuple"
        }
      ],
      "stateMutability": "nonpayable",
      "type": "function"
    },
    {
      "inputs": [],
      "name": "longStore",
      "outputs": [
        {
          "internalType": "contract PositionStoreV2",
          "name": "",
          "type": "address"
        }
      ],
      "stateMutability": "view",
      "type": "function"
    },
    {
      "inputs": [],
      "name": "market",
      "outputs": [
        {
          "internalType": "address",
          "name": "",
          "type": "address"
        }
      ],
      "stateMutability": "view",
      "type": "function"
    },
    {
      "inputs": [
        {
          "internalType": "bytes32",
          "name": "role",
          "type": "bytes32"
        },
        {
          "internalType": "address",
          "name": "account",
          "type": "address"
        }
      ],
      "name": "revokeRole",
      "outputs": [],
      "stateMutability": "pure",
      "type": "function"
    },
    {
      "inputs": [],
      "name": "shortStore",
      "outputs": [
        {
          "internalType": "contract PositionStoreV2",
          "name": "",
          "type": "address"
        }
      ],
      "stateMutability": "view",
      "type": "function"
    },
    {
      "inputs": [
        {
          "internalType": "address",
          "name": "to",
          "type": "address"
        }
      ],
      "name": "transferAdmin",
      "outputs": [],
      "stateMutability": "nonpayable",
      "type": "function"
    },
    {
      "inputs": [
        {
          "internalType": "address",
          "name": "newOwner",
          "type": "address"
        }
      ],
      "name": "transferOwnership",
      "outputs": [],
      "stateMutability": "pure",
      "type": "function"
    }
  ],
  "bytecode": "0x608060405234801561001057600080fd5b50611f42806100206000396000f3fe608060405234801561001057600080fd5b50600436106101585760003560e01c8063a1838612116100c3578063d547741f1161007c578063d547741f146101d6578063dd16feac14610316578063e62c0edf14610329578063f115e8b51461033c578063f2fde38b14610305578063f3ec823d1461034f57600080fd5b8063a1838612146102a4578063a217fddf146102b7578063b444f8ea146102bf578063bc95baad146102d2578063c0c53b8b146102f2578063d29d44ee1461030557600080fd5b80637fe4a698116101155780637fe4a6981461021d57806380f55605146102305780638749694a146102435780638b3c1af61461024b5780638dd3fde31461025e57806391d148541461027e57600080fd5b8063146054721461015d5780631aa2e3901461018d5780632ca6d2c0146101ae5780632f2ff15d146101d65780633eeb530e146101ea57806375829def1461020a575b600080fd5b600454610170906001600160a01b031681565b6040516001600160a01b0390911681526020015b60405180910390f35b6101a061019b3660046117b5565b610362565b604051908152602001610184565b6101c16101bc3660046117ec565b610391565b60408051928352602083019190915201610184565b6101e86101e4366004611809565b5050565b005b6101fd6101f83660046117ec565b6103c5565b60405161018491906118e2565b6101e86102183660046117ec565b6104e6565b6101e861022b3660046117ec565b610313565b600254610170906001600160a01b031681565b6101c16104f1565b6101a061025936600461193f565b6105de565b61027161026c36600461195c565b61066f565b6040516101849190611995565b61029461028c366004611809565b600192915050565b6040519015158152602001610184565b600354610170906001600160a01b031681565b6101a0600081565b6101a06102cd3660046119d6565b610703565b6102e56102e03660046119d6565b610760565b6040516101849190611a0d565b6101e8610300366004611a1c565b610775565b6101e86103133660046117ec565b50565b6102e56103243660046119d6565b610b3a565b6102e5610337366004611a5c565b610c1e565b6102e561034a366004611ab2565b610c33565b6101a061035d366004611b10565b610d6d565b600080610370846001610dea565b905061037d836000610dea565b6103879082611b70565b9150505b92915050565b60008060006103a1846001610e32565b905060006103b0856000610e32565b60809283015192015191959194509092505050565b606060006103d68360006001610ece565b905060006103e684600080610ece565b905060008083608001511115610404578061040081611b98565b9150505b60808201511561041c578061041881611b98565b9150505b60008167ffffffffffffffff81111561043757610437611bb1565b60405190808252806020026020018201604052801561047057816020015b61045d61173a565b8152602001906001900390816104555790505b50905081156104dd57608084015160009250156104b4578381838151811061049a5761049a611bc7565b602002602001018190525081806104b090611b98565b9250505b6080830151156104dd57828183815181106104d1576104d1611bc7565b60200260200101819052505b95945050505050565b60006101e460003382565b600080600360009054906101000a90046001600160a01b03166001600160a01b0316631ee229be6040518163ffffffff1660e01b8152600401602060405180830381865afa158015610547573d6000803e3d6000fd5b505050506040513d601f19601f8201168201806040525081019061056b9190611bdd565b6004805460408051630f7114df60e11b815290516001600160a01b0390921692631ee229be9282820192602092908290030181865afa1580156105b2573d6000803e3d6000fd5b505050506040513d601f19601f820116820180604052508101906105d69190611bdd565b915091509091565b600080826105f7576004546001600160a01b0316610604565b6003546001600160a01b03165b9050806001600160a01b031663816834766040518163ffffffff1660e01b8152600401602060405180830381865afa158015610644573d6000803e3d6000fd5b505050506040513d601f19601f820116820180604052508101906106689190611bdd565b9392505050565b6060838310156106d15760405162461bcd60e51b815260206004820152602260248201527f706f736974696f6e426f6f6b3a20696e76616c69642072616e676520706172616044820152616d7360f01b60648201526084015b60405180910390fd5b6000826106e9576004546001600160a01b03166106f6565b6003546001600160a01b03165b90506104dd818686610f36565b6000806107108584610e32565b90508060a00151841115610726578060a0015193505b61072e61173a565b610740868660008560e001518861103c565b90508060a001518260a001516107569190611bf6565b9695505050505050565b61076861173a565b60006104dd858585610ece565b600054610100900460ff16158080156107955750600054600160ff909116105b806107af5750303b1580156107af575060005460ff166001145b6108125760405162461bcd60e51b815260206004820152602e60248201527f496e697469616c697a61626c653a20636f6e747261637420697320616c72656160448201526d191e481a5b9a5d1a585b1a5e995960921b60648201526084016106c8565b6000805460ff191660011790558015610835576000805461ff0019166101001790555b61083e336111c7565b836001600160a01b03166380f556056040518163ffffffff1660e01b8152600401602060405180830381865afa15801561087c573d6000803e3d6000fd5b505050506040513d601f19601f820116820180604052508101906108a09190611c19565b600280546001600160a01b03199081166001600160a01b039384161790915560038054821686841617905560048054909116848316178155604080516380f5560560e01b8152905161095c937fcb58d6d985142a614029cdf01861b4fe094d5919a47e69b8310dc4093d9d6ad093908916926380f5560592818301926020928290030181865afa158015610938573d6000803e3d6000fd5b505050506040513d601f19601f820116820180604052508101906101e49190611c19565b6001600160a01b0384166109ab5760405162461bcd60e51b8152602060048201526016602482015275696e76616c6964206f6c64207062206164647265737360501b60448201526064016106c8565b6002546001600160a01b03166109fc5760405162461bcd60e51b8152602060048201526016602482015275696e76616c7564206d61726b6574206164647265737360501b60448201526064016106c8565b6001600160a01b038316610a475760405162461bcd60e51b8152602060048201526012602482015271696e76616c7564206c73206164647265737360701b60448201526064016106c8565b6001600160a01b038216610a925760405162461bcd60e51b8152602060048201526012602482015271696e76616c7564207373206164647265737360701b60448201526064016106c8565b600254600354600454604080516001600160a01b0394851681528885166020820152928416838201529216606082015290517f5edc8ea869616f496d39d6e322bcf51428437e1b570749b962ee9f1fbd2d4d999181900360800190a18015610b34576000805461ff0019169055604051600181527f7f26b83ff96e1f2b6a682f133852f6798a09c465da95921460cefb38474024989060200160405180910390a15b50505050565b610b4261173a565b6000610b4e8584610e32565b9050610b5d8160800151151590565b610bb75760405162461bcd60e51b815260206004820152602560248201527f706f736974696f6e426f6f6b3a20706f736974696f6e20646f6573206e6f7420604482015264195e1a5cdd60da1b60648201526084016106c8565b8315610bef57600080610bca83876111ce565b91509150600082610be357610bde82611c36565b610be5565b815b6101008601525050505b610c03858260a001518360800151866111ea565b6080808201519083015260a090810151908201529392505050565b610c2661173a565b610756868686868661103c565b610c3b61173a565b6000610c478884610e32565b90508060800151600003610c5d5760c081018590525b60008160800151118015610c715750600086115b15610cc557600080610c8383886111ce565b9092509050610c958389898486611295565b60c0840152600082610caf57610caa82611c36565b610cb1565b815b61010086015250505060c080820151908301525b610ce587610cd68360a0015161131d565b610ce09190611b70565b61138b565b60a082015260e081018490526080810151610d01908790611c52565b6080820152821515602082015263ffffffff42166040820152610d23816113dd565b610d3f5760405162461bcd60e51b81526004016106c890611c65565b610d4f8884898989600187611413565b6080808201519083015260a090810151908201529695505050505050565b600080610d7a8684610e32565b90508060800151600003610d92576000915050610de2565b600080610d9f83876111ce565b9150915086600014610dc7576080830151610dba8289611c9c565b610dc49190611cb3565b90505b81610dda57610dd581611c36565b610ddc565b805b93505050505b949350505050565b600080610df6836114b9565b90508060800151600003610e0e57600091505061038b565b600080610e1b83876111ce565b91509150816104dd57610e2d81611c36565b610756565b610e3a61173a565b600082610e52576004546001600160a01b0316610e5f565b6003546001600160a01b03165b6040516330af0bbf60e21b81526001600160a01b0386811660048301529192509082169063c2bc2efc9060240161018060405180830381865afa158015610eaa573d6000803e3d6000fd5b505050506040513d601f19601f820116820180604052508101906103879190611d66565b610ed661173a565b6000610ee28584610e32565b905083600003610ef3579050610668565b608081015115610de257600080610f0a83876111ce565b91509150600082610f2357610f1e82611c36565b610f25565b815b610100850152505050949350505050565b60606000846001600160a01b031663816834766040518163ffffffff1660e01b8152600401602060405180830381865afa158015610f78573d6000803e3d6000fd5b505050506040513d601f19601f82011682018060405250810190610f9c9190611bdd565b905080600003610fbc575050604080516000815260208101909152610668565b80831115610fc8578092505b604051637f497d9760e01b815260048101859052602481018490526001600160a01b03861690637f497d9790604401600060405180830381865afa158015611014573d6000803e3d6000fd5b505050506040513d6000823e601f3d908101601f191682016040526104dd9190810190611e1c565b61104461173a565b60006110508784610e32565b905061105b816113dd565b6110775760405162461bcd60e51b81526004016106c890611c65565b858160a0015110156110cb5760405162461bcd60e51b815260206004820181905260248201527f706f736974696f6e426f6f6b3a20696e76616c696420636f6c6c61746572616c60448201526064016106c8565b848160800151101561111f5760405162461bcd60e51b815260206004820152601a60248201527f706f736974696f6e426f6f6b3a20696e76616c69642073697a6500000000000060448201526064016106c8565b848160800151146111b15760e081018490526080810151611141908690611bf6565b608082015260a0810151611156908790611bf6565b60a0820152611164816113dd565b6111805760405162461bcd60e51b81526004016106c890611c65565b611198878461118e8961131d565b8860008087611413565b6080808201519083015260a080820151908301526111bd565b6111bd878787866111ea565b5095945050505050565b4260015550565b60008080806111dd868661154b565b9097909650945050505050565b60006112036111f88561131d565b8460008560006115d2565b905060008261121d576004546001600160a01b031661122a565b6003546001600160a01b03165b6040516305a02ac360e31b81529091506001600160a01b03821690632d0156189061125b9089908690600401611ec2565b600060405180830381600087803b15801561127557600080fd5b505af1158015611289573d6000803e3d6000fd5b50505050505050505050565b6000808587608001516112a89190611c52565b905060008760200151156112db57836112ca576112c58583611bf6565b6112d4565b6112d48583611c52565b90506112fc565b836112ef576112ea8583611c52565b6112f9565b6112f98583611bf6565b90505b806113078388611c9c565b6113119190611cb3565b98975050505050505050565b60006001600160ff1b038211156113875760405162461bcd60e51b815260206004820152602860248201527f53616665436173743a2076616c756520646f65736e27742066697420696e2061604482015267371034b73a191a9b60c11b60648201526084016106c8565b5090565b6000808212156113875760405162461bcd60e51b815260206004820181905260248201527f53616665436173743a2076616c7565206d75737420626520706f73697469766560448201526064016106c8565b600081608001516000036113f357506000919050565b8160a001518260800151101561140b57506000919050565b506001919050565b60006114228686868a876115d2565b905060008761143c576004546001600160a01b0316611449565b6003546001600160a01b03165b60405163b7ed135760e01b81529091506001600160a01b0382169063b7ed13579061147c908c9087908790600401611ee0565b600060405180830381600087803b15801561149657600080fd5b505af11580156114aa573d6000803e3d6000fd5b50505050505050505050505050565b6114c161173a565b6000826114d9576004546001600160a01b03166114e6565b6003546001600160a01b03165b9050806001600160a01b0316639027b59e6040518163ffffffff1660e01b815260040161018060405180830381865afa158015611527573d6000803e3d6000fd5b505050506040513d601f19601f820116820180604052508101906106689190611d66565b6000806000838560c001511161156f5760c085015161156a9085611bf6565b61157f565b838560c0015161157f9190611bf6565b905060008560c001518287608001516115989190611c9c565b6115a29190611cb3565b905060008660200151156115bd575060c086015185116115c7565b858760c001511190505b969095509350505050565b6115da61173a565b60006115e5846114b9565b9050821561169f5760006115fa8288886116db565b90506064811161164c5760405162461bcd60e51b815260206004820152601a60248201527f70623a696e76616c696420676c6f62616c20706f736974696f6e00000000000060448201526064016106c8565b60c08201819052608082018051889190611667908390611c52565b90525060a082015161167e908990610cd69061131d565b60a083015250831515602082015263ffffffff4216604082015290506104dd565b85816080018181516116b19190611bf6565b9052506116bd8761138b565b8160a0018181516116ce9190611bf6565b9052509695505050505050565b600083608001516000036116f0575080610668565b600084608001511180156117045750600083115b156117305760008061171686856111ce565b90925090506117288686868486611295565b60c087015250505b50505060c0015190565b60405180610180016040528060006001600160a01b03168152602001600015158152602001600063ffffffff16815260200160006001600160d81b0316815260200160008152602001600081526020016000815260200160008152602001600081526020016000815260200160008152602001600081525090565b600080604083850312156117c857600080fd5b50508035926020909101359150565b6001600160a01b038116811461031357600080fd5b6000602082840312156117fe57600080fd5b8135610668816117d7565b6000806040838503121561181c57600080fd5b82359150602083013561182e816117d7565b809150509250929050565b80516001600160a01b031682526020810151611859602084018215159052565b506040810151611871604084018263ffffffff169052565b50606081015161188c60608401826001600160d81b03169052565b506080818101519083015260a0808201519083015260c0808201519083015260e0808201519083015261010080820151908301526101208082015190830152610140808201519083015261016090810151910152565b6020808252825182820181905260009190848201906040850190845b8181101561192557611911838551611839565b9284019261018092909201916001016118fe565b50909695505050505050565b801515811461031357600080fd5b60006020828403121561195157600080fd5b813561066881611931565b60008060006060848603121561197157600080fd5b8335925060208401359150604084013561198a81611931565b809150509250925092565b6020808252825182820181905260009190848201906040850190845b818110156119255783516001600160a01b0316835292840192918401916001016119b1565b6000806000606084860312156119eb57600080fd5b83356119f6816117d7565b925060208401359150604084013561198a81611931565b610180810161038b8284611839565b600080600060608486031215611a3157600080fd5b8335611a3c816117d7565b92506020840135611a4c816117d7565b9150604084013561198a816117d7565b600080600080600060a08688031215611a7457600080fd5b8535611a7f816117d7565b94506020860135935060408601359250606086013591506080860135611aa481611931565b809150509295509295909350565b60008060008060008060c08789031215611acb57600080fd5b8635611ad6816117d7565b95506020870135945060408701359350606087013592506080870135915060a0870135611b0281611931565b809150509295509295509295565b60008060008060808587031215611b2657600080fd5b8435611b31816117d7565b935060208501359250604085013591506060850135611b4f81611931565b939692955090935050565b634e487b7160e01b600052601160045260246000fd5b8082018281126000831280158216821582161715611b9057611b90611b5a565b505092915050565b600060018201611baa57611baa611b5a565b5060010190565b634e487b7160e01b600052604160045260246000fd5b634e487b7160e01b600052603260045260246000fd5b600060208284031215611bef57600080fd5b5051919050565b8181038181111561038b5761038b611b5a565b8051611c14816117d7565b919050565b600060208284031215611c2b57600080fd5b8151610668816117d7565b6000600160ff1b8201611c4b57611c4b611b5a565b5060000390565b8082018082111561038b5761038b611b5a565b6020808252601e908201527f706f736974696f6e426f6f6b3a20696e76616c696420706f736974696f6e0000604082015260600190565b808202811582820484141761038b5761038b611b5a565b600082611cd057634e487b7160e01b600052601260045260246000fd5b500490565b604051610180810167ffffffffffffffff81118282101715611cf957611cf9611bb1565b60405290565b604051601f8201601f1916810167ffffffffffffffff81118282101715611d2857611d28611bb1565b604052919050565b8051611c1481611931565b805163ffffffff81168114611c1457600080fd5b80516001600160d81b0381168114611c1457600080fd5b60006101808284031215611d7957600080fd5b611d81611cd5565b611d8a83611c09565b8152611d9860208401611d30565b6020820152611da960408401611d3b565b6040820152611dba60608401611d4f565b60608201526080838101519082015260a0808401519082015260c0808401519082015260e08084015190820152610100808401519082015261012080840151908201526101408084015190820152610160928301519281019290925250919050565b60006020808385031215611e2f57600080fd5b825167ffffffffffffffff80821115611e4757600080fd5b818501915085601f830112611e5b57600080fd5b815181811115611e6d57611e6d611bb1565b8060051b9150611e7e848301611cff565b8181529183018401918481019088841115611e9857600080fd5b938501935b838510156113115784519250611eb2836117d7565b8282529385019390850190611e9d565b6001600160a01b03831681526101a081016106686020830184611839565b6001600160a01b03841681526103208101611efe6020830185611839565b610de26101a083018461183956fea26469706673582212203658f05ffdcef6994c7b03081a2b717579313eba7379c3866af77e79a78d435d64736f6c63430008110033",
  "linkReferences": {},
  "deployedLinkReferences": {}
}