{
  "_format": "hh-sol-artifact-1",
  "contractName": "PositionBookV2",
  "sourceName": "contracts/position/PositionBookV2.sol",
  "abi": [
    {
      "anonymous": false,
      "inputs": [
        {
          "indexed": false,
          "internalType": "uint8",
          "name": "version",
          "type": "uint8"
        }
      ],
      "name": "Initialized",
      "type": "event"
    },
    {
      "anonymous": false,
      "inputs": [
        {
          "indexed": true,
          "internalType": "address",
          "name": "previousOwner",
          "type": "address"
        },
        {
          "indexed": true,
          "internalType": "address",
          "name": "newOwner",
          "type": "address"
        }
      ],
      "name": "OwnershipTransferred",
      "type": "event"
    },
    {
      "anonymous": false,
      "inputs": [
        {
          "indexed": false,
          "internalType": "address",
          "name": "market",
          "type": "address"
        },
        {
          "indexed": false,
          "internalType": "address",
          "name": "oldPositionBook",
          "type": "address"
        },
        {
          "indexed": false,
          "internalType": "address",
          "name": "longStore",
          "type": "address"
        },
        {
          "indexed": false,
          "internalType": "address",
          "name": "shortStore",
          "type": "address"
        }
      ],
      "name": "PositionBookV2Initialized",
      "type": "event"
    },
    {
      "anonymous": false,
      "inputs": [
        {
          "indexed": true,
          "internalType": "bytes32",
          "name": "role",
          "type": "bytes32"
        },
        {
          "indexed": true,
          "internalType": "bytes32",
          "name": "previousAdminRole",
          "type": "bytes32"
        },
        {
          "indexed": true,
          "internalType": "bytes32",
          "name": "newAdminRole",
          "type": "bytes32"
        }
      ],
      "name": "RoleAdminChanged",
      "type": "event"
    },
    {
      "anonymous": false,
      "inputs": [
        {
          "indexed": true,
          "internalType": "bytes32",
          "name": "role",
          "type": "bytes32"
        },
        {
          "indexed": true,
          "internalType": "address",
          "name": "account",
          "type": "address"
        },
        {
          "indexed": true,
          "internalType": "address",
          "name": "sender",
          "type": "address"
        }
      ],
      "name": "RoleGranted",
      "type": "event"
    },
    {
      "anonymous": false,
      "inputs": [
        {
          "indexed": true,
          "internalType": "bytes32",
          "name": "role",
          "type": "bytes32"
        },
        {
          "indexed": true,
          "internalType": "address",
          "name": "account",
          "type": "address"
        },
        {
          "indexed": true,
          "internalType": "address",
          "name": "sender",
          "type": "address"
        }
      ],
      "name": "RoleRevoked",
      "type": "event"
    },
    {
      "inputs": [],
      "name": "DEFAULT_ADMIN_ROLE",
      "outputs": [
        {
          "internalType": "bytes32",
          "name": "",
          "type": "bytes32"
        }
      ],
      "stateMutability": "view",
      "type": "function"
    },
    {
      "inputs": [
        {
          "internalType": "address",
          "name": "account",
          "type": "address"
        },
        {
          "internalType": "uint256",
          "name": "collateralDelta",
          "type": "uint256"
        },
        {
          "internalType": "bool",
          "name": "isLong",
          "type": "bool"
        }
      ],
      "name": "decreaseCollateralFromCancelInvalidOrder",
      "outputs": [
        {
          "internalType": "uint256",
          "name": "",
          "type": "uint256"
        }
      ],
      "stateMutability": "nonpayable",
      "type": "function"
    },
    {
      "inputs": [
        {
          "internalType": "address",
          "name": "account",
          "type": "address"
        },
        {
          "internalType": "uint256",
          "name": "collateralDelta",
          "type": "uint256"
        },
        {
          "internalType": "uint256",
          "name": "sizeDelta",
          "type": "uint256"
        },
        {
          "internalType": "int256",
          "name": "fundingRate",
          "type": "int256"
        },
        {
          "internalType": "bool",
          "name": "isLong",
          "type": "bool"
        }
      ],
      "name": "decreasePosition",
      "outputs": [
        {
          "components": [
            {
              "internalType": "address",
              "name": "market",
              "type": "address"
            },
            {
              "internalType": "bool",
              "name": "isLong",
              "type": "bool"
            },
            {
              "internalType": "uint32",
              "name": "lastTime",
              "type": "uint32"
            },
            {
              "internalType": "uint216",
              "name": "extra3",
              "type": "uint216"
            },
            {
              "internalType": "uint256",
              "name": "size",
              "type": "uint256"
            },
            {
              "internalType": "uint256",
              "name": "collateral",
              "type": "uint256"
            },
            {
              "internalType": "uint256",
              "name": "averagePrice",
              "type": "uint256"
            },
            {
              "internalType": "int256",
              "name": "entryFundingRate",
              "type": "int256"
            },
            {
              "internalType": "int256",
              "name": "realisedPnl",
              "type": "int256"
            },
            {
              "internalType": "uint256",
              "name": "extra0",
              "type": "uint256"
            },
            {
              "internalType": "uint256",
              "name": "extra1",
              "type": "uint256"
            },
            {
              "internalType": "uint256",
              "name": "extra2",
              "type": "uint256"
            }
          ],
          "internalType": "struct Position.Props",
          "name": "result",
          "type": "tuple"
        }
      ],
      "stateMutability": "nonpayable",
      "type": "function"
    },
    {
      "inputs": [
        {
          "internalType": "address",
          "name": "account",
          "type": "address"
        }
      ],
      "name": "getAccountSize",
      "outputs": [
        {
          "internalType": "uint256",
          "name": "",
          "type": "uint256"
        },
        {
          "internalType": "uint256",
          "name": "",
          "type": "uint256"
        }
      ],
      "stateMutability": "view",
      "type": "function"
    },
    {
      "inputs": [
        {
          "internalType": "uint256",
          "name": "longPrice",
          "type": "uint256"
        },
        {
          "internalType": "uint256",
          "name": "shortPrice",
          "type": "uint256"
        }
      ],
      "name": "getMarketPNL",
      "outputs": [
        {
          "internalType": "int256",
          "name": "",
          "type": "int256"
        }
      ],
      "stateMutability": "view",
      "type": "function"
    },
    {
      "inputs": [],
      "name": "getMarketSizes",
      "outputs": [
        {
          "internalType": "uint256",
          "name": "",
          "type": "uint256"
        },
        {
          "internalType": "uint256",
          "name": "",
          "type": "uint256"
        }
      ],
      "stateMutability": "view",
      "type": "function"
    },
    {
      "inputs": [
        {
          "internalType": "address",
          "name": "account",
          "type": "address"
        },
        {
          "internalType": "uint256",
          "name": "sizeDelta",
          "type": "uint256"
        },
        {
          "internalType": "uint256",
          "name": "markPrice",
          "type": "uint256"
        },
        {
          "internalType": "bool",
          "name": "isLong",
          "type": "bool"
        }
      ],
      "name": "getPNL",
      "outputs": [
        {
          "internalType": "int256",
          "name": "",
          "type": "int256"
        }
      ],
      "stateMutability": "view",
      "type": "function"
    },
    {
      "inputs": [
        {
          "internalType": "address",
          "name": "account",
          "type": "address"
        },
        {
          "internalType": "uint256",
          "name": "markPrice",
          "type": "uint256"
        },
        {
          "internalType": "bool",
          "name": "isLong",
          "type": "bool"
        }
      ],
      "name": "getPosition",
      "outputs": [
        {
          "components": [
            {
              "internalType": "address",
              "name": "market",
              "type": "address"
            },
            {
              "internalType": "bool",
              "name": "isLong",
              "type": "bool"
            },
            {
              "internalType": "uint32",
              "name": "lastTime",
              "type": "uint32"
            },
            {
              "internalType": "uint216",
              "name": "extra3",
              "type": "uint216"
            },
            {
              "internalType": "uint256",
              "name": "size",
              "type": "uint256"
            },
            {
              "internalType": "uint256",
              "name": "collateral",
              "type": "uint256"
            },
            {
              "internalType": "uint256",
              "name": "averagePrice",
              "type": "uint256"
            },
            {
              "internalType": "int256",
              "name": "entryFundingRate",
              "type": "int256"
            },
            {
              "internalType": "int256",
              "name": "realisedPnl",
              "type": "int256"
            },
            {
              "internalType": "uint256",
              "name": "extra0",
              "type": "uint256"
            },
            {
              "internalType": "uint256",
              "name": "extra1",
              "type": "uint256"
            },
            {
              "internalType": "uint256",
              "name": "extra2",
              "type": "uint256"
            }
          ],
          "internalType": "struct Position.Props",
          "name": "",
          "type": "tuple"
        }
      ],
      "stateMutability": "view",
      "type": "function"
    },
    {
      "inputs": [
        {
          "internalType": "bool",
          "name": "isLong",
          "type": "bool"
        }
      ],
      "name": "getPositionCount",
      "outputs": [
        {
          "internalType": "uint256",
          "name": "",
          "type": "uint256"
        }
      ],
      "stateMutability": "view",
      "type": "function"
    },
    {
      "inputs": [
        {
          "internalType": "uint256",
          "name": "start",
          "type": "uint256"
        },
        {
          "internalType": "uint256",
          "name": "end",
          "type": "uint256"
        },
        {
          "internalType": "bool",
          "name": "isLong",
          "type": "bool"
        }
      ],
      "name": "getPositionKeys",
      "outputs": [
        {
          "internalType": "address[]",
          "name": "",
          "type": "address[]"
        }
      ],
      "stateMutability": "view",
      "type": "function"
    },
    {
      "inputs": [
        {
          "internalType": "address",
          "name": "account",
          "type": "address"
        }
      ],
      "name": "getPositions",
      "outputs": [
        {
          "components": [
            {
              "internalType": "address",
              "name": "market",
              "type": "address"
            },
            {
              "internalType": "bool",
              "name": "isLong",
              "type": "bool"
            },
            {
              "internalType": "uint32",
              "name": "lastTime",
              "type": "uint32"
            },
            {
              "internalType": "uint216",
              "name": "extra3",
              "type": "uint216"
            },
            {
              "internalType": "uint256",
              "name": "size",
              "type": "uint256"
            },
            {
              "internalType": "uint256",
              "name": "collateral",
              "type": "uint256"
            },
            {
              "internalType": "uint256",
              "name": "averagePrice",
              "type": "uint256"
            },
            {
              "internalType": "int256",
              "name": "entryFundingRate",
              "type": "int256"
            },
            {
              "internalType": "int256",
              "name": "realisedPnl",
              "type": "int256"
            },
            {
              "internalType": "uint256",
              "name": "extra0",
              "type": "uint256"
            },
            {
              "internalType": "uint256",
              "name": "extra1",
              "type": "uint256"
            },
            {
              "internalType": "uint256",
              "name": "extra2",
              "type": "uint256"
            }
          ],
          "internalType": "struct Position.Props[]",
          "name": "",
          "type": "tuple[]"
        }
      ],
      "stateMutability": "view",
      "type": "function"
    },
    {
      "inputs": [
        {
          "internalType": "bytes32",
          "name": "role",
          "type": "bytes32"
        }
      ],
      "name": "getRoleAdmin",
      "outputs": [
        {
          "internalType": "bytes32",
          "name": "",
          "type": "bytes32"
        }
      ],
      "stateMutability": "view",
      "type": "function"
    },
    {
      "inputs": [
        {
          "internalType": "address",
          "name": "_account",
          "type": "address"
        }
      ],
      "name": "grantControllerRoleByMarketManager",
      "outputs": [],
      "stateMutability": "nonpayable",
      "type": "function"
    },
    {
      "inputs": [
        {
          "internalType": "bytes32",
          "name": "role",
          "type": "bytes32"
        },
        {
          "internalType": "address",
          "name": "account",
          "type": "address"
        }
      ],
      "name": "grantRole",
      "outputs": [],
      "stateMutability": "nonpayable",
      "type": "function"
    },
    {
      "inputs": [
        {
          "internalType": "bytes32",
          "name": "role",
          "type": "bytes32"
        },
        {
          "internalType": "address",
          "name": "account",
          "type": "address"
        }
      ],
      "name": "hasRole",
      "outputs": [
        {
          "internalType": "bool",
          "name": "",
          "type": "bool"
        }
      ],
      "stateMutability": "view",
      "type": "function"
    },
    {
      "inputs": [
        {
          "internalType": "address",
          "name": "account",
          "type": "address"
        },
        {
          "internalType": "int256",
          "name": "collateralDelta",
          "type": "int256"
        },
        {
          "internalType": "uint256",
          "name": "sizeDelta",
          "type": "uint256"
        },
        {
          "internalType": "uint256",
          "name": "markPrice",
          "type": "uint256"
        },
        {
          "internalType": "int256",
          "name": "fundingRate",
          "type": "int256"
        },
        {
          "internalType": "bool",
          "name": "isLong",
          "type": "bool"
        }
      ],
      "name": "increasePosition",
      "outputs": [
        {
          "components": [
            {
              "internalType": "address",
              "name": "market",
              "type": "address"
            },
            {
              "internalType": "bool",
              "name": "isLong",
              "type": "bool"
            },
            {
              "internalType": "uint32",
              "name": "lastTime",
              "type": "uint32"
            },
            {
              "internalType": "uint216",
              "name": "extra3",
              "type": "uint216"
            },
            {
              "internalType": "uint256",
              "name": "size",
              "type": "uint256"
            },
            {
              "internalType": "uint256",
              "name": "collateral",
              "type": "uint256"
            },
            {
              "internalType": "uint256",
              "name": "averagePrice",
              "type": "uint256"
            },
            {
              "internalType": "int256",
              "name": "entryFundingRate",
              "type": "int256"
            },
            {
              "internalType": "int256",
              "name": "realisedPnl",
              "type": "int256"
            },
            {
              "internalType": "uint256",
              "name": "extra0",
              "type": "uint256"
            },
            {
              "internalType": "uint256",
              "name": "extra1",
              "type": "uint256"
            },
            {
              "internalType": "uint256",
              "name": "extra2",
              "type": "uint256"
            }
          ],
          "internalType": "struct Position.Props",
          "name": "result",
          "type": "tuple"
        }
      ],
      "stateMutability": "nonpayable",
      "type": "function"
    },
    {
      "inputs": [
        {
          "internalType": "address",
          "name": "oldPositionBook",
          "type": "address"
        },
        {
          "internalType": "address",
          "name": "ls",
          "type": "address"
        },
        {
          "internalType": "address",
          "name": "ss",
          "type": "address"
        }
      ],
      "name": "initialize",
      "outputs": [],
      "stateMutability": "nonpayable",
      "type": "function"
    },
    {
      "inputs": [
        {
          "internalType": "address",
          "name": "account",
          "type": "address"
        },
        {
          "internalType": "uint256",
          "name": "markPrice",
          "type": "uint256"
        },
        {
          "internalType": "bool",
          "name": "isLong",
          "type": "bool"
        }
      ],
      "name": "liquidatePosition",
      "outputs": [
        {
          "components": [
            {
              "internalType": "address",
              "name": "market",
              "type": "address"
            },
            {
              "internalType": "bool",
              "name": "isLong",
              "type": "bool"
            },
            {
              "internalType": "uint32",
              "name": "lastTime",
              "type": "uint32"
            },
            {
              "internalType": "uint216",
              "name": "extra3",
              "type": "uint216"
            },
            {
              "internalType": "uint256",
              "name": "size",
              "type": "uint256"
            },
            {
              "internalType": "uint256",
              "name": "collateral",
              "type": "uint256"
            },
            {
              "internalType": "uint256",
              "name": "averagePrice",
              "type": "uint256"
            },
            {
              "internalType": "int256",
              "name": "entryFundingRate",
              "type": "int256"
            },
            {
              "internalType": "int256",
              "name": "realisedPnl",
              "type": "int256"
            },
            {
              "internalType": "uint256",
              "name": "extra0",
              "type": "uint256"
            },
            {
              "internalType": "uint256",
              "name": "extra1",
              "type": "uint256"
            },
            {
              "internalType": "uint256",
              "name": "extra2",
              "type": "uint256"
            }
          ],
          "internalType": "struct Position.Props",
          "name": "result",
          "type": "tuple"
        }
      ],
      "stateMutability": "nonpayable",
      "type": "function"
    },
    {
      "inputs": [],
      "name": "longStore",
      "outputs": [
        {
          "internalType": "contract PositionStoreV2",
          "name": "",
          "type": "address"
        }
      ],
      "stateMutability": "view",
      "type": "function"
    },
    {
      "inputs": [],
      "name": "market",
      "outputs": [
        {
          "internalType": "address",
          "name": "",
          "type": "address"
        }
      ],
      "stateMutability": "view",
      "type": "function"
    },
    {
      "inputs": [],
      "name": "owner",
      "outputs": [
        {
          "internalType": "address",
          "name": "",
          "type": "address"
        }
      ],
      "stateMutability": "view",
      "type": "function"
    },
    {
      "inputs": [],
      "name": "renounceOwnership",
      "outputs": [],
      "stateMutability": "nonpayable",
      "type": "function"
    },
    {
      "inputs": [
        {
          "internalType": "bytes32",
          "name": "role",
          "type": "bytes32"
        },
        {
          "internalType": "address",
          "name": "account",
          "type": "address"
        }
      ],
      "name": "renounceRole",
      "outputs": [],
      "stateMutability": "nonpayable",
      "type": "function"
    },
    {
      "inputs": [
        {
          "internalType": "bytes32",
          "name": "role",
          "type": "bytes32"
        },
        {
          "internalType": "address",
          "name": "account",
          "type": "address"
        }
      ],
      "name": "revokeRole",
      "outputs": [],
      "stateMutability": "nonpayable",
      "type": "function"
    },
    {
      "inputs": [],
      "name": "shortStore",
      "outputs": [
        {
          "internalType": "contract PositionStoreV2",
          "name": "",
          "type": "address"
        }
      ],
      "stateMutability": "view",
      "type": "function"
    },
    {
      "inputs": [
        {
          "internalType": "bytes4",
          "name": "interfaceId",
          "type": "bytes4"
        }
      ],
      "name": "supportsInterface",
      "outputs": [
        {
          "internalType": "bool",
          "name": "",
          "type": "bool"
        }
      ],
      "stateMutability": "view",
      "type": "function"
    },
    {
      "inputs": [
        {
          "internalType": "address",
          "name": "to",
          "type": "address"
        }
      ],
      "name": "transferAdmin",
      "outputs": [],
      "stateMutability": "nonpayable",
      "type": "function"
    },
    {
      "inputs": [
        {
          "internalType": "address",
          "name": "newOwner",
          "type": "address"
        }
      ],
      "name": "transferOwnership",
      "outputs": [],
      "stateMutability": "nonpayable",
      "type": "function"
    }
  ],
  "bytecode": "0x608060405234801561001057600080fd5b5061001a3361001f565b610071565b600180546001600160a01b038381166001600160a01b0319831681179093556040519116919082907f8be0079c531659141344cd1fd0a4f28419497f9722a3daafe3b4186f6b6457e090600090a35050565b61278f806100806000396000f3fe608060405234801561001057600080fd5b50600436106101c45760003560e01c80638da5cb5b116100f9578063c0c53b8b11610097578063e62c0edf11610071578063e62c0edf146103f7578063f115e8b51461040a578063f2fde38b1461041d578063f3ec823d1461043057600080fd5b8063c0c53b8b146103be578063d547741f146103d1578063dd16feac146103e457600080fd5b8063a1838612116100d3578063a183861214610370578063a217fddf14610383578063b444f8ea1461038b578063bc95baad1461039e57600080fd5b80638da5cb5b1461032c5780638dd3fde31461033d57806391d148541461035d57600080fd5b80633eeb530e116101665780637fe4a698116101405780637fe4a698146102eb57806380f55605146102fe5780638749694a146103115780638b3c1af61461031957600080fd5b80633eeb530e146102b0578063715018a6146102d057806375829def146102d857600080fd5b8063248a9ca3116101a2578063248a9ca31461023d5780632ca6d2c0146102605780632f2ff15d1461028857806336568abe1461029d57600080fd5b806301ffc9a7146101c957806314605472146101f15780631aa2e3901461021c575b600080fd5b6101dc6101d7366004611ebc565b610443565b60405190151581526020015b60405180910390f35b600554610204906001600160a01b031681565b6040516001600160a01b0390911681526020016101e8565b61022f61022a366004611ee6565b61047a565b6040519081526020016101e8565b61022f61024b366004611f08565b60009081526020819052604090206001015490565b61027361026e366004611f36565b6104a7565b604080519283526020830191909152016101e8565b61029b610296366004611f53565b6104db565b005b61029b6102ab366004611f53565b610505565b6102c36102be366004611f36565b610588565b6040516101e8919061202c565b61029b6106a9565b61029b6102e6366004611f36565b6106bd565b61029b6102f9366004611f36565b6106e7565b600354610204906001600160a01b031681565b610273610711565b61022f610327366004612089565b6107fd565b6001546001600160a01b0316610204565b61035061034b3660046120a6565b61088e565b6040516101e891906120df565b6101dc61036b366004611f53565b61091d565b600454610204906001600160a01b031681565b61022f600081565b61022f610399366004612120565b610946565b6103b16103ac366004612120565b6109bb565b6040516101e89190612157565b61029b6103cc366004612166565b6109d0565b61029b6103df366004611f53565b610da0565b6103b16103f2366004612120565b610dc5565b6103b16104053660046121a6565b610ec0565b6103b16104183660046121fc565b610eec565b61029b61042b366004611f36565b61103d565b61022f61043e36600461225a565b6110b6565b60006001600160e01b03198216637965db0b60e01b148061047457506301ffc9a760e01b6001600160e01b03198316145b92915050565b600080610488846001611131565b9050610495836000611131565b61049f90826122ba565b949350505050565b60008060006104b7846001611179565b905060006104c6856000611179565b60809283015192015191959194509092505050565b6000828152602081905260409020600101546104f681611215565b610500838361121f565b505050565b6001600160a01b038116331461057a5760405162461bcd60e51b815260206004820152602f60248201527f416363657373436f6e74726f6c3a2063616e206f6e6c792072656e6f756e636560448201526e103937b632b9903337b91039b2b63360891b60648201526084015b60405180910390fd5b61058482826112a3565b5050565b606060006105998360006001611308565b905060006105a984600080611308565b9050600080836080015111156105c757806105c3816122e2565b9150505b6080820151156105df57806105db816122e2565b9150505b60008167ffffffffffffffff8111156105fa576105fa6122fb565b60405190808252806020026020018201604052801561063357816020015b610620611e41565b8152602001906001900390816106185790505b50905081156106a05760808401516000925015610677578381838151811061065d5761065d612311565b60200260200101819052508180610673906122e2565b9250505b6080830151156106a0578281838151811061069457610694612311565b60200260200101819052505b95945050505050565b6106b1611370565b6106bb60006113ca565b565b60006106c881611215565b6106d360008361141c565b6106dc826113ca565b6105846000336112a3565b7f8d1089725c0dc266707fa6207730fb801dcd03108bfed7a21099bd303651d2b76101c481611215565b6004805460408051630f7114df60e11b8152905160009384936001600160a01b031692631ee229be92818301926020928290030181865afa15801561075a573d6000803e3d6000fd5b505050506040513d601f19601f8201168201806040525081019061077e9190612327565b600560009054906101000a90046001600160a01b03166001600160a01b0316631ee229be6040518163ffffffff1660e01b8152600401602060405180830381865afa1580156107d1573d6000803e3d6000fd5b505050506040513d601f19601f820116820180604052508101906107f59190612327565b915091509091565b60008082610816576005546001600160a01b0316610823565b6004546001600160a01b03165b9050806001600160a01b031663816834766040518163ffffffff1660e01b8152600401602060405180830381865afa158015610863573d6000803e3d6000fd5b505050506040513d601f19601f820116820180604052508101906108879190612327565b9392505050565b6060838310156108eb5760405162461bcd60e51b815260206004820152602260248201527f706f736974696f6e426f6f6b3a20696e76616c69642072616e676520706172616044820152616d7360f01b6064820152608401610571565b600082610903576005546001600160a01b0316610910565b6004546001600160a01b03165b90506106a0818686611426565b6000918252602082815260408084206001600160a01b0393909316845291905290205460ff1690565b600061095f60008051602061273a833981519152611215565b600061096b8584611179565b90508060a00151841115610981578060a0015193505b610989611e41565b61099b868660008560e001518861152c565b90508060a001518260a001516109b19190612340565b9695505050505050565b6109c3611e41565b60006106a0858585611308565b600154600160a81b900460ff16158080156109f6575060018054600160a01b900460ff16105b80610a165750303b158015610a16575060018054600160a01b900460ff16145b610a795760405162461bcd60e51b815260206004820152602e60248201527f496e697469616c697a61626c653a20636f6e747261637420697320616c72656160448201526d191e481a5b9a5d1a585b1a5e995960921b6064820152608401610571565b6001805460ff60a01b1916600160a01b1790558015610aa6576001805460ff60a81b1916600160a81b1790555b610aaf336116b7565b836001600160a01b03166380f556056040518163ffffffff1660e01b8152600401602060405180830381865afa158015610aed573d6000803e3d6000fd5b505050506040513d601f19601f82011682018060405250810190610b119190612363565b600380546001600160a01b03199081166001600160a01b03938416179091556004805482168684161781556005805490921685841617909155604080516380f5560560e01b81529051610bc19360008051602061273a83398151915293908916926380f5560592818301926020928290030181865afa158015610b98573d6000803e3d6000fd5b505050506040513d601f19601f82011682018060405250810190610bbc9190612363565b61121f565b6001600160a01b038416610c105760405162461bcd60e51b8152602060048201526016602482015275696e76616c6964206f6c64207062206164647265737360501b6044820152606401610571565b6003546001600160a01b0316610c615760405162461bcd60e51b8152602060048201526016602482015275696e76616c7564206d61726b6574206164647265737360501b6044820152606401610571565b6001600160a01b038316610cac5760405162461bcd60e51b8152602060048201526012602482015271696e76616c7564206c73206164647265737360701b6044820152606401610571565b6001600160a01b038216610cf75760405162461bcd60e51b8152602060048201526012602482015271696e76616c7564207373206164647265737360701b6044820152606401610571565b600354600454600554604080516001600160a01b0394851681528885166020820152928416838201529216606082015290517f5edc8ea869616f496d39d6e322bcf51428437e1b570749b962ee9f1fbd2d4d999181900360800190a18015610d9a576001805460ff60a81b191681556040519081527f7f26b83ff96e1f2b6a682f133852f6798a09c465da95921460cefb38474024989060200160405180910390a15b50505050565b600082815260208190526040902060010154610dbb81611215565b61050083836112a3565b610dcd611e41565b610de460008051602061273a833981519152611215565b6000610df08584611179565b9050610dff8160800151151590565b610e595760405162461bcd60e51b815260206004820152602560248201527f706f736974696f6e426f6f6b3a20706f736974696f6e20646f6573206e6f7420604482015264195e1a5cdd60da1b6064820152608401610571565b8315610e9157600080610e6c83876116da565b91509150600082610e8557610e8082612380565b610e87565b815b6101008601525050505b610ea5858260a001518360800151866116f6565b6080808201519083015260a090810151908201529392505050565b610ec8611e41565b610edf60008051602061273a833981519152611215565b6109b1868686868661152c565b610ef4611e41565b610f0b60008051602061273a833981519152611215565b6000610f178884611179565b90508060800151600003610f2d5760c081018590525b60008160800151118015610f415750600086115b15610f9557600080610f5383886116da565b9092509050610f6583898984866117a1565b60c0840152600082610f7f57610f7a82612380565b610f81565b815b61010086015250505060c080820151908301525b610fb587610fa68360a0015161181d565b610fb091906122ba565b61188b565b60a082015260e081018490526080810151610fd190879061239c565b6080820152821515602082015263ffffffff42166040820152610ff3816118dd565b61100f5760405162461bcd60e51b8152600401610571906123af565b61101f8884898989600187611913565b6080808201519083015260a090810151908201529695505050505050565b611045611370565b6001600160a01b0381166110aa5760405162461bcd60e51b815260206004820152602660248201527f4f776e61626c653a206e6577206f776e657220697320746865207a65726f206160448201526564647265737360d01b6064820152608401610571565b6110b3816113ca565b50565b6000806110c38684611179565b905080608001516000036110db57600091505061049f565b6000806110e883876116da565b915091508660001461111057608083015161110382896123e6565b61110d91906123fd565b90505b816111235761111e81612380565b611125565b805b98975050505050505050565b60008061113d836119b9565b90508060800151600003611155576000915050610474565b60008061116283876116da565b91509150816106a05761117481612380565b6109b1565b611181611e41565b600082611199576005546001600160a01b03166111a6565b6004546001600160a01b03165b6040516330af0bbf60e21b81526001600160a01b0386811660048301529192509082169063c2bc2efc9060240161018060405180830381865afa1580156111f1573d6000803e3d6000fd5b505050506040513d601f19601f8201168201806040525081019061049f91906124b0565b6110b38133611a4b565b611229828261091d565b610584576000828152602081815260408083206001600160a01b03851684529091529020805460ff1916600117905561125f3390565b6001600160a01b0316816001600160a01b0316837f2f8788117e7eff1d82e926ec794901d17c78024a50270940304540a733656f0d60405160405180910390a45050565b6112ad828261091d565b15610584576000828152602081815260408083206001600160a01b0385168085529252808320805460ff1916905551339285917ff6391f5c32d9c69d2a47ea670b442974b53935d1edc7fd64eb21e047a839171b9190a45050565b611310611e41565b600061131c8584611179565b90508360000361132d579050610887565b60808101511561049f5760008061134483876116da565b9150915060008261135d5761135882612380565b61135f565b815b610100850152505050949350505050565b6001546001600160a01b031633146106bb5760405162461bcd60e51b815260206004820181905260248201527f4f776e61626c653a2063616c6c6572206973206e6f7420746865206f776e65726044820152606401610571565b600180546001600160a01b038381166001600160a01b0319831681179093556040519116919082907f8be0079c531659141344cd1fd0a4f28419497f9722a3daafe3b4186f6b6457e090600090a35050565b610584828261121f565b60606000846001600160a01b031663816834766040518163ffffffff1660e01b8152600401602060405180830381865afa158015611468573d6000803e3d6000fd5b505050506040513d601f19601f8201168201806040525081019061148c9190612327565b9050806000036114ac575050604080516000815260208101909152610887565b808311156114b8578092505b604051637f497d9760e01b815260048101859052602481018490526001600160a01b03861690637f497d9790604401600060405180830381865afa158015611504573d6000803e3d6000fd5b505050506040513d6000823e601f3d908101601f191682016040526106a09190810190612566565b611534611e41565b60006115408784611179565b905061154b816118dd565b6115675760405162461bcd60e51b8152600401610571906123af565b858160a0015110156115bb5760405162461bcd60e51b815260206004820181905260248201527f706f736974696f6e426f6f6b3a20696e76616c696420636f6c6c61746572616c6044820152606401610571565b848160800151101561160f5760405162461bcd60e51b815260206004820152601a60248201527f706f736974696f6e426f6f6b3a20696e76616c69642073697a650000000000006044820152606401610571565b848160800151146116a15760e081018490526080810151611631908690612340565b608082015260a0810151611646908790612340565b60a0820152611654816118dd565b6116705760405162461bcd60e51b8152600401610571906123af565b611688878461167e8961181d565b8860008087611913565b6080808201519083015260a080820151908301526116ad565b6116ad878787866116f6565b5095945050505050565b426002556116c4336113ca565b6116cf60003361141c565b6110b360008261141c565b60008080806116e98686611aa4565b9097909650945050505050565b600061170f6117048561181d565b846000856000611b2b565b9050600082611729576005546001600160a01b0316611736565b6004546001600160a01b03165b6040516305a02ac360e31b81529091506001600160a01b03821690632d01561890611767908990869060040161260c565b600060405180830381600087803b15801561178157600080fd5b505af1158015611795573d6000803e3d6000fd5b50505050505050505050565b6000808587608001516117b4919061239c565b905060008760200151156117e757836117d6576117d18583612340565b6117e0565b6117e0858361239c565b9050611808565b836117fb576117f6858361239c565b611805565b6118058583612340565b90505b8061181383886123e6565b61112591906123fd565b60006001600160ff1b038211156118875760405162461bcd60e51b815260206004820152602860248201527f53616665436173743a2076616c756520646f65736e27742066697420696e2061604482015267371034b73a191a9b60c11b6064820152608401610571565b5090565b6000808212156118875760405162461bcd60e51b815260206004820181905260248201527f53616665436173743a2076616c7565206d75737420626520706f7369746976656044820152606401610571565b600081608001516000036118f357506000919050565b8160a001518260800151101561190b57506000919050565b506001919050565b60006119228686868a87611b2b565b905060008761193c576005546001600160a01b0316611949565b6004546001600160a01b03165b60405163b7ed135760e01b81529091506001600160a01b0382169063b7ed13579061197c908c908790879060040161262a565b600060405180830381600087803b15801561199657600080fd5b505af11580156119aa573d6000803e3d6000fd5b50505050505050505050505050565b6119c1611e41565b6000826119d9576005546001600160a01b03166119e6565b6004546001600160a01b03165b9050806001600160a01b0316639027b59e6040518163ffffffff1660e01b815260040161018060405180830381865afa158015611a27573d6000803e3d6000fd5b505050506040513d601f19601f8201168201806040525081019061088791906124b0565b611a55828261091d565b61058457611a6281611c34565b611a6d836020611c46565b604051602001611a7e92919061267a565b60408051601f198184030181529082905262461bcd60e51b8252610571916004016126ef565b6000806000838560c0015111611ac85760c0850151611ac39085612340565b611ad8565b838560c00151611ad89190612340565b905060008560c00151828760800151611af191906123e6565b611afb91906123fd565b90506000866020015115611b16575060c08601518511611b20565b858760c001511190505b969095509350505050565b611b33611e41565b6000611b3e846119b9565b90508215611bf8576000611b53828888611de2565b905060648111611ba55760405162461bcd60e51b815260206004820152601a60248201527f70623a696e76616c696420676c6f62616c20706f736974696f6e0000000000006044820152606401610571565b60c08201819052608082018051889190611bc090839061239c565b90525060a0820151611bd7908990610fa69061181d565b60a083015250831515602082015263ffffffff4216604082015290506106a0565b8581608001818151611c0a9190612340565b905250611c168761188b565b8160a001818151611c279190612340565b9052509695505050505050565b60606104746001600160a01b03831660145b60606000611c558360026123e6565b611c6090600261239c565b67ffffffffffffffff811115611c7857611c786122fb565b6040519080825280601f01601f191660200182016040528015611ca2576020820181803683370190505b509050600360fc1b81600081518110611cbd57611cbd612311565b60200101906001600160f81b031916908160001a905350600f60fb1b81600181518110611cec57611cec612311565b60200101906001600160f81b031916908160001a9053506000611d108460026123e6565b611d1b90600161239c565b90505b6001811115611d93576f181899199a1a9b1b9c1cb0b131b232b360811b85600f1660108110611d4f57611d4f612311565b1a60f81b828281518110611d6557611d65612311565b60200101906001600160f81b031916908160001a90535060049490941c93611d8c81612722565b9050611d1e565b5083156108875760405162461bcd60e51b815260206004820181905260248201527f537472696e67733a20686578206c656e67746820696e73756666696369656e746044820152606401610571565b60008360800151600003611df7575080610887565b60008460800151118015611e0b5750600083115b15611e3757600080611e1d86856116da565b9092509050611e2f86868684866117a1565b60c087015250505b50505060c0015190565b60405180610180016040528060006001600160a01b03168152602001600015158152602001600063ffffffff16815260200160006001600160d81b0316815260200160008152602001600081526020016000815260200160008152602001600081526020016000815260200160008152602001600081525090565b600060208284031215611ece57600080fd5b81356001600160e01b03198116811461088757600080fd5b60008060408385031215611ef957600080fd5b50508035926020909101359150565b600060208284031215611f1a57600080fd5b5035919050565b6001600160a01b03811681146110b357600080fd5b600060208284031215611f4857600080fd5b813561088781611f21565b60008060408385031215611f6657600080fd5b823591506020830135611f7881611f21565b809150509250929050565b80516001600160a01b031682526020810151611fa3602084018215159052565b506040810151611fbb604084018263ffffffff169052565b506060810151611fd660608401826001600160d81b03169052565b506080818101519083015260a0808201519083015260c0808201519083015260e0808201519083015261010080820151908301526101208082015190830152610140808201519083015261016090810151910152565b6020808252825182820181905260009190848201906040850190845b8181101561206f5761205b838551611f83565b928401926101809290920191600101612048565b50909695505050505050565b80151581146110b357600080fd5b60006020828403121561209b57600080fd5b81356108878161207b565b6000806000606084860312156120bb57600080fd5b833592506020840135915060408401356120d48161207b565b809150509250925092565b6020808252825182820181905260009190848201906040850190845b8181101561206f5783516001600160a01b0316835292840192918401916001016120fb565b60008060006060848603121561213557600080fd5b833561214081611f21565b92506020840135915060408401356120d48161207b565b61018081016104748284611f83565b60008060006060848603121561217b57600080fd5b833561218681611f21565b9250602084013561219681611f21565b915060408401356120d481611f21565b600080600080600060a086880312156121be57600080fd5b85356121c981611f21565b945060208601359350604086013592506060860135915060808601356121ee8161207b565b809150509295509295909350565b60008060008060008060c0878903121561221557600080fd5b863561222081611f21565b95506020870135945060408701359350606087013592506080870135915060a087013561224c8161207b565b809150509295509295509295565b6000806000806080858703121561227057600080fd5b843561227b81611f21565b9350602085013592506040850135915060608501356122998161207b565b939692955090935050565b634e487b7160e01b600052601160045260246000fd5b80820182811260008312801582168215821617156122da576122da6122a4565b505092915050565b6000600182016122f4576122f46122a4565b5060010190565b634e487b7160e01b600052604160045260246000fd5b634e487b7160e01b600052603260045260246000fd5b60006020828403121561233957600080fd5b5051919050565b81810381811115610474576104746122a4565b805161235e81611f21565b919050565b60006020828403121561237557600080fd5b815161088781611f21565b6000600160ff1b8201612395576123956122a4565b5060000390565b80820180821115610474576104746122a4565b6020808252601e908201527f706f736974696f6e426f6f6b3a20696e76616c696420706f736974696f6e0000604082015260600190565b8082028115828204841417610474576104746122a4565b60008261241a57634e487b7160e01b600052601260045260246000fd5b500490565b604051610180810167ffffffffffffffff81118282101715612443576124436122fb565b60405290565b604051601f8201601f1916810167ffffffffffffffff81118282101715612472576124726122fb565b604052919050565b805161235e8161207b565b805163ffffffff8116811461235e57600080fd5b80516001600160d81b038116811461235e57600080fd5b600061018082840312156124c357600080fd5b6124cb61241f565b6124d483612353565b81526124e26020840161247a565b60208201526124f360408401612485565b604082015261250460608401612499565b60608201526080838101519082015260a0808401519082015260c0808401519082015260e08084015190820152610100808401519082015261012080840151908201526101408084015190820152610160928301519281019290925250919050565b6000602080838503121561257957600080fd5b825167ffffffffffffffff8082111561259157600080fd5b818501915085601f8301126125a557600080fd5b8151818111156125b7576125b76122fb565b8060051b91506125c8848301612449565b81815291830184019184810190888411156125e257600080fd5b938501935b8385101561112557845192506125fc83611f21565b82825293850193908501906125e7565b6001600160a01b03831681526101a081016108876020830184611f83565b6001600160a01b038416815261032081016126486020830185611f83565b61049f6101a0830184611f83565b60005b83811015612671578181015183820152602001612659565b50506000910152565b7f416363657373436f6e74726f6c3a206163636f756e74200000000000000000008152600083516126b2816017850160208801612656565b7001034b99036b4b9b9b4b733903937b6329607d1b60179184019182015283516126e3816028840160208801612656565b01602801949350505050565b602081526000825180602084015261270e816040850160208701612656565b601f01601f19169190910160400192915050565b600081612731576127316122a4565b50600019019056fecb58d6d985142a614029cdf01861b4fe094d5919a47e69b8310dc4093d9d6ad0a2646970667358221220030b0f06ac8eadb3cfddee50d3965d4f33cb5712f355863edfd824f470214eac64736f6c63430008110033",
  "linkReferences": {},
  "deployedLinkReferences": {}
}